{
  "abi": [
    {
      "inputs": [
        {
          "internalType": "string",
          "name": "_strategyName",
          "type": "string"
        }
      ],
      "name": "deployStrategy",
      "outputs": [
        {
          "internalType": "address",
          "name": "",
          "type": "address"
        }
      ],
      "stateMutability": "nonpayable",
      "type": "function"
    }
  ],
  "bytecode": {
    "object": "0x608060405234801561001057600080fd5b50611878806100206000396000f3fe608060405234801561001057600080fd5b506004361061002b5760003560e01c80635e70059e14610030575b600080fd5b61004361003e36600461014a565b61005f565b6040516001600160a01b03909116815260200160405180910390f35b60008060008360405160200161007591906101fb565b6040516020818303038152906040528051906020012090506040516020016100b990602080825260089082015267537461726761746560c01b604082015260600190565b60405160208183030381529060405280519060200120810361011657336040516100e290610127565b6001600160a01b039091168152602001604051809103906000f08015801561010e573d6000803e3d6000fd5b509150610120565b5060009392505050565b5092915050565b6115f98061024a83390190565b634e487b7160e01b600052604160045260246000fd5b60006020828403121561015c57600080fd5b813567ffffffffffffffff8082111561017457600080fd5b818401915084601f83011261018857600080fd5b81358181111561019a5761019a610134565b604051601f8201601f19908116603f011681019083821181831017156101c2576101c2610134565b816040528281528760208487010111156101db57600080fd5b826020860160208301376000928101602001929092525095945050505050565b600060208083528351808285015260005b818110156102285785810183015185820160400152820161020c565b506000604082860101526040601f19601f830116850101925050509291505056fe608060405234801561001057600080fd5b506040516115f93803806115f983398101604081905261002f916100d1565b600380546001600160a01b0319908116738731d54e9d02c286767d56ac03e8037c07e01e981790915560048054821673b0d502e938ed5f4df2e681fe6e419ff29631d62b17905560058054821673df0770df86a8034b3efef0a1bb3c889b8332ff5617905560068054821673e592427a0aece92de3edee1f18e0157c05861564179055600080546001600160a01b039390931692909116919091179055610101565b6000602082840312156100e357600080fd5b81516001600160a01b03811681146100fa57600080fd5b9392505050565b6114e9806101106000396000f3fe608060405234801561001057600080fd5b506004361061014d5760003560e01c8063aa5c3ab4116100c3578063e507a8a41161007c578063e507a8a4146102d8578063e86c106e146102e0578063ef2dcf5f146102f3578063f69e204614610306578063f840cb831461030e578063ff4949471461032157600080fd5b8063aa5c3ab41461027a578063aba0f7f214610282578063b842e87f14610297578063c42069ec1461029f578063d33b0aa7146102b2578063e30c3978146102c557600080fd5b80635a2f3d09116101155780635a2f3d09146101f5578063735de9f71461021d5780637f1f08731461023057806389a30271146102395780638da5cb5b14610254578063a9e56f3c1461026757600080fd5b8063089fe6aa146101525780630a1c049e1461017457806343a6f4ee1461018a5780634aa4a4fc146101a75780634c16e973146101da575b600080fd5b61015b610bb881565b60405162ffffff90911681526020015b60405180910390f35b61017c610334565b60405190815260200161016b565b6101926103af565b6040805192835260208301919091520161016b565b6101c273c02aaa39b223fe8d0a0e5c4f27ead9083c756cc281565b6040516001600160a01b03909116815260200161016b565b6101c273af5191b0de278c7286d6c7cc6ab6bb8a73ba2cd681565b6101fd610432565b60408051948552602085019390935291830152606082015260800161016b565b6006546101c2906001600160a01b031681565b61017c60025481565b6101c273a0b86991c6218b36c1d19d4a2e9eb0ce3606eb4881565b6000546101c2906001600160a01b031681565b6003546101c2906001600160a01b031681565b61017c6104bf565b610295610290366004611243565b6104f9565b005b6102956105b2565b6102956102ad366004611286565b610627565b61017c6102c03660046112a8565b610673565b6001546101c2906001600160a01b031681565b61017c610972565b6005546101c2906001600160a01b031681565b610295610301366004611286565b610a14565b61017c610a6c565b61017c61031c3660046112c1565b610b13565b6004546101c2906001600160a01b031681565b60048054604051632f607fdd60e01b815260009281018390523060248201526001600160a01b0390911690632f607fdd906044015b602060405180830381865afa158015610386573d6000803e3d6000fd5b505050506040513d601f19601f820116820180604052508101906103aa91906112e3565b905090565b600480546040516393f1a40b60e01b815260009281018390523060248201528291829182916001600160a01b0316906393f1a40b906044016040805180830381865afa158015610403573d6000803e3d6000fd5b505050506040513d601f19601f8201168201806040525081019061042791906112fc565b909590945092505050565b60048054604051631526fe2760e01b8152600092810183905282918291829182918291829182916001600160a01b031690631526fe2790602401608060405180830381865afa158015610489573d6000803e3d6000fd5b505050506040513d601f19601f820116820180604052508101906104ad9190611320565b929b919a509850909650945050505050565b6040516370a0823160e01b815230600482015260009073af5191b0de278c7286d6c7cc6ab6bb8a73ba2cd6906370a0823190602401610369565b6000546001600160a01b0316331461052c5760405162461bcd60e51b815260040161052390611356565b60405180910390fd5b6001600160a01b0383161561055757600380546001600160a01b0319166001600160a01b0385161790555b6001600160a01b0382161561058257600480546001600160a01b0319166001600160a01b0384161790555b6001600160a01b038116156105ad57600580546001600160a01b0319166001600160a01b0383161790555b505050565b6001546001600160a01b031633146106005760405162461bcd60e51b81526020600482015260116024820152702737ba103832b73234b7339037bbb732b960791b6044820152606401610523565b60018054600080546001600160a01b03199081166001600160a01b03841617909155169055565b6000546001600160a01b031633146106515760405162461bcd60e51b815260040161052390611356565b600180546001600160a01b0319166001600160a01b0392909216919091179055565b600080546001600160a01b0316331461069e5760405162461bcd60e51b815260040161052390611356565b6040516370a0823160e01b815230600482015260009073a0b86991c6218b36c1d19d4a2e9eb0ce3606eb48906370a0823190602401602060405180830381865afa1580156106f0573d6000803e3d6000fd5b505050506040513d601f19601f8201168201806040525081019061071491906112e3565b60035460405163095ea7b360e01b81526001600160a01b0390911660048201526024810182905290915073a0b86991c6218b36c1d19d4a2e9eb0ce3606eb489063095ea7b3906044016020604051808303816000875af115801561077c573d6000803e3d6000fd5b505050506040513d601f19601f820116820180604052508101906107a0919061137e565b506003546040516321ec87bf60e21b815260016004820152602481018390523060448201526001600160a01b03909116906387b21efc90606401600060405180830381600087803b1580156107f457600080fd5b505af1158015610808573d6000803e3d6000fd5b50506005546040516370a0823160e01b8152306004820152600093506001600160a01b0390911691506370a08231906024016020604051808303816000875af1158015610859573d6000803e3d6000fd5b505050506040513d601f19601f8201168201806040525081019061087d91906112e3565b6005546004805460405163095ea7b360e01b81526001600160a01b03918216928101929092526024820184905292935091169063095ea7b390604401600060405180830381600087803b1580156108d357600080fd5b505af11580156108e7573d6000803e3d6000fd5b505060048054604051631c57762b60e31b8152600092810192909252602482018590526001600160a01b0316925063e2bbb1589150604401600060405180830381600087803b15801561093957600080fd5b505af115801561094d573d6000803e3d6000fd5b50505050806002600082825461096391906113b6565b9091555090925050505b919050565b600080546001600160a01b0316331461099d5760405162461bcd60e51b815260040161052390611356565b60048054604051631c57762b60e31b8152600092810183905260248101929092526001600160a01b03169063e2bbb15890604401600060405180830381600087803b1580156109eb57600080fd5b505af11580156109ff573d6000803e3d6000fd5b505050506000610a0e33610da2565b91505090565b6000546001600160a01b03163314610a3e5760405162461bcd60e51b815260040161052390611356565b6001600160a01b03811615610a6957600680546001600160a01b0319166001600160a01b0383161790555b50565b600080546001600160a01b03163314610a975760405162461bcd60e51b815260040161052390611356565b60048054604051631c57762b60e31b8152600092810183905260248101929092526001600160a01b03169063e2bbb15890604401600060405180830381600087803b158015610ae557600080fd5b505af1158015610af9573d6000803e3d6000fd5b50505050610b0630610da2565b506000610a0e6001610673565b600080546001600160a01b03163314610b3e5760405162461bcd60e51b815260040161052390611356565b600254821115610b805760405162461bcd60e51b815260206004820152600d60248201526c04e6f7420656e6f756768206c7609c1b6044820152606401610523565b8160026000828254610b9291906113c9565b909155505060048054604051630441a3e760e41b8152600092810192909252602482018490526001600160a01b03169063441a3e7090604401600060405180830381600087803b158015610be557600080fd5b505af1158015610bf9573d6000803e3d6000fd5b50506005546040516370a0823160e01b8152306004820152600093506001600160a01b0390911691506370a08231906024016020604051808303816000875af1158015610c4a573d6000803e3d6000fd5b505050506040513d601f19601f82011682018060405250810190610c6e91906112e3565b60035460405163c4de93a560e01b815261ffff87166004820152602481018390523060448201529192506000916001600160a01b039091169063c4de93a5906064016020604051808303816000875af1158015610ccf573d6000803e3d6000fd5b505050506040513d601f19601f82011682018060405250810190610cf391906112e3565b9050610cfe30610da2565b506040516370a0823160e01b815230600482015260009073a0b86991c6218b36c1d19d4a2e9eb0ce3606eb48906370a0823190602401602060405180830381865afa158015610d51573d6000803e3d6000fd5b505050506040513d601f19601f82011682018060405250810190610d7591906112e3565b9050610d9673a0b86991c6218b36c1d19d4a2e9eb0ce3606eb483383610f6b565b50925050505b92915050565b600080610dad6104bf565b905080600003610dc05750600092915050565b60065460405163095ea7b360e01b81526001600160a01b0390911660048201526024810182905273af5191b0de278c7286d6c7cc6ab6bb8a73ba2cd69063095ea7b3906044016020604051808303816000875af1158015610e25573d6000803e3d6000fd5b505050506040513d601f19601f82011682018060405250810190610e49919061137e565b506040805160a0810182527357a8c8d86f13c639436b63e6355b5dc539dd166b60611b60c082015261017760eb1b60d48201819052736015551cd911ff4685072e2793f56c841e3ab66160611b60d783015260eb8201527314170d3238c43166d83a33a945d3d619c6c0dd6960631b60ee820152815160e28183030181526101028201835281526001600160a01b038581166020830152428284015260608201849052600060808301819052600654935163c04b8d5960e01b81529293909291169063c04b8d5990610f1f90859060040161142c565b6020604051808303816000875af1158015610f3e573d6000803e3d6000fd5b505050506040513d601f19601f82011682018060405250810190610f6291906112e3565b95945050505050565b604080516001600160a01b038416602482015260448082018490528251808303909101815260649091019091526020810180516001600160e01b031663a9059cbb60e01b179052600090610fc0908590610fca565b5060019392505050565b600061101f826040518060400160405280602081526020017f5361666545524332303a206c6f772d6c6576656c2063616c6c206661696c6564815250856001600160a01b031661109c9092919063ffffffff16565b8051909150156105ad578080602001905181019061103d919061137e565b6105ad5760405162461bcd60e51b815260206004820152602a60248201527f5361666545524332303a204552433230206f7065726174696f6e20646964206e6044820152691bdd081cdd58d8d9595960b21b6064820152608401610523565b60606110ab84846000856110b3565b949350505050565b6060824710156111145760405162461bcd60e51b815260206004820152602660248201527f416464726573733a20696e73756666696369656e742062616c616e636520666f6044820152651c8818d85b1b60d21b6064820152608401610523565b600080866001600160a01b031685876040516111309190611484565b60006040518083038185875af1925050503d806000811461116d576040519150601f19603f3d011682016040523d82523d6000602084013e611172565b606091505b50915091506111838783838761118e565b979650505050505050565b606083156111fd5782516000036111f6576001600160a01b0385163b6111f65760405162461bcd60e51b815260206004820152601d60248201527f416464726573733a2063616c6c20746f206e6f6e2d636f6e74726163740000006044820152606401610523565b50816110ab565b6110ab83838151156112125781518083602001fd5b8060405162461bcd60e51b815260040161052391906114a0565b80356001600160a01b038116811461096d57600080fd5b60008060006060848603121561125857600080fd5b6112618461122c565b925061126f6020850161122c565b915061127d6040850161122c565b90509250925092565b60006020828403121561129857600080fd5b6112a18261122c565b9392505050565b6000602082840312156112ba57600080fd5b5035919050565b600080604083850312156112d457600080fd5b50508035926020909101359150565b6000602082840312156112f557600080fd5b5051919050565b6000806040838503121561130f57600080fd5b505080516020909101519092909150565b6000806000806080858703121561133657600080fd5b505082516020840151604085015160609095015191969095509092509050565b6020808252600e908201526d139bdd08185d5d1a1bdc9a5e995960921b604082015260600190565b60006020828403121561139057600080fd5b815180151581146112a157600080fd5b634e487b7160e01b600052601160045260246000fd5b80820180821115610d9c57610d9c6113a0565b81810381811115610d9c57610d9c6113a0565b60005b838110156113f75781810151838201526020016113df565b50506000910152565b600081518084526114188160208601602086016113dc565b601f01601f19169290920160200192915050565b602081526000825160a0602084015261144860c0840182611400565b905060018060a01b0360208501511660408401526040840151606084015260608401516080840152608084015160a08401528091505092915050565b600082516114968184602087016113dc565b9190910192915050565b6020815260006112a1602083018461140056fea26469706673582212204c54625eff8cc754fdddbe6b01f5f350b232c8b305093da85fdd3f8b0e116f6e64736f6c63430008110033a2646970667358221220a5aba71fbe09344a5d9ac2a9caeb8141fee888527e09450d472d2ceaacc839d964736f6c63430008110033",
    "linkReferences": {}
  },
  "methodIdentifiers": {
    "deployStrategy(string)": "5e70059e"
  },
  "id": 35
}