{
  "abi": [
    {
      "inputs": [
        {
          "internalType": "UD60x18",
          "name": "x",
          "type": "uint256"
        }
      ],
      "name": "PRBMathUD60x18__LogInputTooSmall",
      "type": "error"
    },
    {
      "inputs": [
        {
          "internalType": "uint256",
          "name": "x",
          "type": "uint256"
        }
      ],
      "name": "PRBMathUD60x18__ToUD60x18Overflow",
      "type": "error"
    },
    {
      "inputs": [
        {
          "internalType": "uint256",
          "name": "x",
          "type": "uint256"
        },
        {
          "internalType": "uint256",
          "name": "y",
          "type": "uint256"
        }
      ],
      "name": "PRBMath__MulDiv18Overflow",
      "type": "error"
    },
    {
      "inputs": [
        {
          "internalType": "uint256",
          "name": "x",
          "type": "uint256"
        },
        {
          "internalType": "uint256",
          "name": "y",
          "type": "uint256"
        },
        {
          "internalType": "uint256",
          "name": "denominator",
          "type": "uint256"
        }
      ],
      "name": "PRBMath__MulDivOverflow",
      "type": "error"
    },
    {
      "inputs": [
        {
          "internalType": "uint256",
          "name": "_stake",
          "type": "uint256"
        },
        {
          "internalType": "uint256",
          "name": "_poolCap",
          "type": "uint256"
        }
      ],
      "name": "_convertStakeToPoolMeasurements",
      "outputs": [
        {
          "internalType": "uint256",
          "name": "x",
          "type": "uint256"
        },
        {
          "internalType": "uint256",
          "name": "poolPercentage",
          "type": "uint256"
        }
      ],
      "stateMutability": "view",
      "type": "function"
    },
    {
      "inputs": [
        {
          "internalType": "uint256",
          "name": "_x",
          "type": "uint256"
        }
      ],
      "name": "_curveImplementation",
      "outputs": [
        {
          "internalType": "uint256",
          "name": "y",
          "type": "uint256"
        }
      ],
      "stateMutability": "pure",
      "type": "function"
    },
    {
      "inputs": [
        {
          "internalType": "uint256",
          "name": "_targetAPY",
          "type": "uint256"
        }
      ],
      "name": "_updateScalingMultiplier",
      "outputs": [
        {
          "internalType": "uint256",
          "name": "scalingMultiplier",
          "type": "uint256"
        }
      ],
      "stateMutability": "view",
      "type": "function"
    },
    {
      "inputs": [
        {
          "internalType": "uint256",
          "name": "_totalAmount",
          "type": "uint256"
        },
        {
          "internalType": "uint256",
          "name": "_endTime",
          "type": "uint256"
        },
        {
          "internalType": "uint256",
          "name": "_referralFee",
          "type": "uint256"
        },
        {
          "internalType": "address",
          "name": "_referrer",
          "type": "address"
        }
      ],
      "name": "calcReferralSplit",
      "outputs": [
        {
          "internalType": "uint256",
          "name": "",
          "type": "uint256"
        },
        {
          "internalType": "uint256",
          "name": "",
          "type": "uint256"
        },
        {
          "internalType": "address",
          "name": "",
          "type": "address"
        }
      ],
      "stateMutability": "view",
      "type": "function"
    },
    {
      "inputs": [
        {
          "internalType": "uint256",
          "name": "_stake",
          "type": "uint256"
        },
        {
          "internalType": "uint256",
          "name": "_memX",
          "type": "uint256"
        },
        {
          "internalType": "uint256",
          "name": "_poolCap",
          "type": "uint256"
        },
        {
          "internalType": "uint256",
          "name": "_multiplier",
          "type": "uint256"
        }
      ],
      "name": "calculateArbitraryEffectiveAPY",
      "outputs": [
        {
          "internalType": "uint256",
          "name": "scaledAPY",
          "type": "uint256"
        }
      ],
      "stateMutability": "view",
      "type": "function"
    },
    {
      "inputs": [
        {
          "internalType": "uint256",
          "name": "_x",
          "type": "uint256"
        },
        {
          "internalType": "uint256",
          "name": "_multiplier",
          "type": "uint256"
        }
      ],
      "name": "getCurrentAPY",
      "outputs": [
        {
          "internalType": "uint256",
          "name": "currentAPY",
          "type": "uint256"
        }
      ],
      "stateMutability": "view",
      "type": "function"
    },
    {
      "inputs": [
        {
          "internalType": "uint256",
          "name": "_freezeTime",
          "type": "uint256"
        },
        {
          "internalType": "uint256",
          "name": "_lastClaimedTime",
          "type": "uint256"
        },
        {
          "internalType": "uint256",
          "name": "_amount",
          "type": "uint256"
        },
        {
          "internalType": "uint256",
          "name": "_apy",
          "type": "uint256"
        },
        {
          "internalType": "uint256",
          "name": "_unclaimed",
          "type": "uint256"
        }
      ],
      "name": "pendingPremium",
      "outputs": [
        {
          "internalType": "uint256",
          "name": "totalPending",
          "type": "uint256"
        },
        {
          "internalType": "uint256",
          "name": "actualPending",
          "type": "uint256"
        },
        {
          "internalType": "uint256",
          "name": "newPending",
          "type": "uint256"
        }
      ],
      "stateMutability": "view",
      "type": "function"
    }
  ],
  "bytecode": {
    "object": "0x61098a61003a600b82828239805160001a60731461002d57634e487b7160e01b600052600060045260246000fd5b30600052607381538281f3fe73000000000000000000000000000000000000000030146080604052600436106100875760003560e01c80634a0044b6116100655780634a0044b6146100ed578063a0e63f3014610100578063ad6fa23314610113578063fc76fff31461014157600080fd5b8063098952381461008c578063345d1244146100b957806334d51185146100da575b600080fd5b61009f61009a3660046107d4565b610178565b604080519283526020830191909152015b60405180910390f35b6100cc6100c73660046107f6565b6101ae565b6040519081526020016100b0565b6100cc6100e8366004610828565b6102bc565b6100cc6100fb3660046107d4565b6102e9565b6100cc61010e366004610828565b610306565b610126610121366004610841565b61035b565b604080519384526020840192909252908201526060016100b0565b61015461014f36600461087c565b6103f2565b6040805193845260208401929092526001600160a01b0316908201526060016100b0565b6000808261018e670de0b6b3a7640000866108df565b610198919061090c565b90506101a58160056108df565b91509250929050565b600083816101bc8786610178565b50905060006101cb838361092e565b905060006101da8260216108df565b6101ec90674563918244f4000061092e565b905060006101fb8560216108df565b61020d90674563918244f4000061092e565b9050600061022261021d8461045e565b6104ac565b9050600061023261021d8461045e565b90506000610270610243602161045e565b61026a61025086866104e4565b6102646a295be96e6406697200000061045e565b906104f3565b90610502565b9050600061028188620f42406108df565b61028b908361090c565b9050670de0b6b3a76400006102a08c836108df565b6102aa919061090c565b9e9d5050505050505050505050505050565b6000670eb5e06245ea00006102d9670de0b6b3a7640000846108df565b6102e3919061090c565b92915050565b6000816102f584610306565b6102ff91906108df565b9392505050565b600080670de0b6b3a764000061032484670928ca80cfc200006108df565b61032e919061090c565b6103409067016345785d8a000061092e565b90506102ff816ec097ce7bc90715b34b9f100000000061090c565b6000806000808860000361036f5742610371565b885b9050600061037f8983610941565b90506301e13380612710826103948a8c6108df565b61039e91906108df565b6103a8919061090c565b6103b2919061090c565b92506103be868461092e565b94506127106103cf6103e882610941565b6103d990876108df565b6103e3919061090c565b93505050955095509592505050565b600080806001600160a01b038416158061040b57504286105b1561041e57508591506000905082610454565b600061271061042d878a6108df565b610437919061090c565b90506000610445828a610941565b94509092508491506104549050565b9450945094915050565b6000610474670de0b6b3a764000060001961090c565b82111561049c576040516322630c4560e01b8152600481018390526024015b60405180910390fd5b670de0b6b3a764000082026102e3565b60006102e36714057b7ef767814f670de0b6b3a76400006104d26104cf8661051a565b90565b02816104e0576104e06108f6565b0490565b60006102ff6104cf8385610941565b60006102ff6104cf848461064d565b60006102ff6104cf84670de0b6b3a764000085610701565b600081670de0b6b3a764000081101561054957604051633621413760e21b815260048101849052602401610493565b60006105d5670de0b6b3a7640000830460016fffffffffffffffffffffffffffffffff821160071b91821c67ffffffffffffffff811160061b90811c63ffffffff811160051b90811c61ffff811160041b90811c60ff8111600390811b91821c600f811160021b90811c918211871b91821c969096119490961792909217171791909117919091171790565b9050670de0b6b3a7640000810282821c670de0b6b3a763ffff1981016105fe5750949350505050565b671bc16d674ec800006706f05b59d3b200005b801561064157670de0b6b3a7640000838002049250818310610639579283019260019290921c915b60011c610611565b50919695505050505050565b60008080600019848609848602925082811083820303915050670de0b6b3a764000081106106985760405163090638d560e41b81526004810186905260248101859052604401610493565b6000670de0b6b3a76400008587099050816000036106c4575050670de0b6b3a7640000900490506102e3565b620400008184030492109003600160ee1b02177faccb18165bd6fe31ae1cf318dc5b51eee0e1ba569b88cd74c1773b91fac1066902905092915050565b600080806000198587098587029250828110838203039150508060000361073b57838281610731576107316108f6565b04925050506102ff565b83811061076c576040516307639aaf60e41b8152600481018790526024810186905260448101859052606401610493565b600084868809600260036001881981018916988990049182028318808302840302808302840302808302840302808302840302808302840302918202909203026000889003889004909101858311909403939093029303949094049190911702949350505050565b600080604083850312156107e757600080fd5b50508035926020909101359150565b6000806000806080858703121561080c57600080fd5b5050823594602084013594506040840135936060013592509050565b60006020828403121561083a57600080fd5b5035919050565b600080600080600060a0868803121561085957600080fd5b505083359560208501359550604085013594606081013594506080013592509050565b6000806000806080858703121561089257600080fd5b84359350602085013592506040850135915060608501356001600160a01b03811681146108be57600080fd5b939692955090935050565b634e487b7160e01b600052601160045260246000fd5b80820281158282048414176102e3576102e36108c9565b634e487b7160e01b600052601260045260246000fd5b60008261092957634e487b7160e01b600052601260045260246000fd5b500490565b808201808211156102e3576102e36108c9565b818103818111156102e3576102e36108c956fea2646970667358221220b2f523f97e4fddfcb64858032de45bcf0e908afb203298046d0276b4cec8867564736f6c63430008110033",
    "linkReferences": {}
  },
  "methodIdentifiers": {
    "_convertStakeToPoolMeasurements(uint256,uint256)": "09895238",
    "_curveImplementation(uint256)": "a0e63f30",
    "_updateScalingMultiplier(uint256)": "34d51185",
    "calcReferralSplit(uint256,uint256,uint256,address)": "fc76fff3",
    "calculateArbitraryEffectiveAPY(uint256,uint256,uint256,uint256)": "345d1244",
    "getCurrentAPY(uint256,uint256)": "4a0044b6",
    "pendingPremium(uint256,uint256,uint256,uint256,uint256)": "ad6fa233"
  },
  "id": 72
}