{
  "abi": [
    {
      "inputs": [],
      "stateMutability": "nonpayable",
      "type": "constructor"
    },
    {
      "anonymous": false,
      "inputs": [
        {
          "components": [
            {
              "internalType": "address",
              "name": "facet",
              "type": "address"
            },
            {
              "internalType": "enum Diamond.Action",
              "name": "action",
              "type": "uint8"
            },
            {
              "internalType": "bool",
              "name": "isFreezable",
              "type": "bool"
            },
            {
              "internalType": "bytes4[]",
              "name": "selectors",
              "type": "bytes4[]"
            }
          ],
          "indexed": false,
          "internalType": "struct Diamond.FacetCut[]",
          "name": "_facetCuts",
          "type": "tuple[]"
        },
        {
          "indexed": false,
          "internalType": "address",
          "name": "_initAddress",
          "type": "address"
        }
      ],
      "name": "DiamondCutProposal",
      "type": "event"
    },
    {
      "anonymous": false,
      "inputs": [
        {
          "indexed": false,
          "internalType": "uint256",
          "name": "currentProposalId",
          "type": "uint256"
        },
        {
          "indexed": true,
          "internalType": "bytes32",
          "name": "proposedDiamondCutHash",
          "type": "bytes32"
        }
      ],
      "name": "DiamondCutProposalCancelation",
      "type": "event"
    },
    {
      "anonymous": false,
      "inputs": [
        {
          "components": [
            {
              "components": [
                {
                  "internalType": "address",
                  "name": "facet",
                  "type": "address"
                },
                {
                  "internalType": "enum Diamond.Action",
                  "name": "action",
                  "type": "uint8"
                },
                {
                  "internalType": "bool",
                  "name": "isFreezable",
                  "type": "bool"
                },
                {
                  "internalType": "bytes4[]",
                  "name": "selectors",
                  "type": "bytes4[]"
                }
              ],
              "internalType": "struct Diamond.FacetCut[]",
              "name": "facetCuts",
              "type": "tuple[]"
            },
            {
              "internalType": "address",
              "name": "initAddress",
              "type": "address"
            },
            {
              "internalType": "bytes",
              "name": "initCalldata",
              "type": "bytes"
            }
          ],
          "indexed": false,
          "internalType": "struct Diamond.DiamondCutData",
          "name": "_diamondCut",
          "type": "tuple"
        }
      ],
      "name": "DiamondCutProposalExecution",
      "type": "event"
    },
    {
      "anonymous": false,
      "inputs": [
        {
          "indexed": true,
          "internalType": "address",
          "name": "_address",
          "type": "address"
        },
        {
          "indexed": false,
          "internalType": "uint256",
          "name": "currentProposalId",
          "type": "uint256"
        },
        {
          "indexed": false,
          "internalType": "uint256",
          "name": "securityCouncilEmergencyApprovals",
          "type": "uint256"
        },
        {
          "indexed": true,
          "internalType": "bytes32",
          "name": "proposedDiamondCutHash",
          "type": "bytes32"
        }
      ],
      "name": "EmergencyDiamondCutApproved",
      "type": "event"
    },
    {
      "anonymous": false,
      "inputs": [],
      "name": "EmergencyFreeze",
      "type": "event"
    },
    {
      "anonymous": false,
      "inputs": [
        {
          "indexed": false,
          "internalType": "uint256",
          "name": "lastDiamondFreezeTimestamp",
          "type": "uint256"
        }
      ],
      "name": "Unfreeze",
      "type": "event"
    },
    {
      "inputs": [
        {
          "internalType": "bytes32",
          "name": "_diamondCutHash",
          "type": "bytes32"
        }
      ],
      "name": "approveEmergencyDiamondCutAsSecurityCouncilMember",
      "outputs": [],
      "stateMutability": "nonpayable",
      "type": "function"
    },
    {
      "inputs": [],
      "name": "cancelDiamondCutProposal",
      "outputs": [],
      "stateMutability": "nonpayable",
      "type": "function"
    },
    {
      "inputs": [],
      "name": "emergencyFreezeDiamond",
      "outputs": [],
      "stateMutability": "nonpayable",
      "type": "function"
    },
    {
      "inputs": [
        {
          "components": [
            {
              "components": [
                {
                  "internalType": "address",
                  "name": "facet",
                  "type": "address"
                },
                {
                  "internalType": "enum Diamond.Action",
                  "name": "action",
                  "type": "uint8"
                },
                {
                  "internalType": "bool",
                  "name": "isFreezable",
                  "type": "bool"
                },
                {
                  "internalType": "bytes4[]",
                  "name": "selectors",
                  "type": "bytes4[]"
                }
              ],
              "internalType": "struct Diamond.FacetCut[]",
              "name": "facetCuts",
              "type": "tuple[]"
            },
            {
              "internalType": "address",
              "name": "initAddress",
              "type": "address"
            },
            {
              "internalType": "bytes",
              "name": "initCalldata",
              "type": "bytes"
            }
          ],
          "internalType": "struct Diamond.DiamondCutData",
          "name": "_diamondCut",
          "type": "tuple"
        }
      ],
      "name": "executeDiamondCutProposal",
      "outputs": [],
      "stateMutability": "nonpayable",
      "type": "function"
    },
    {
      "inputs": [
        {
          "components": [
            {
              "internalType": "address",
              "name": "facet",
              "type": "address"
            },
            {
              "internalType": "enum Diamond.Action",
              "name": "action",
              "type": "uint8"
            },
            {
              "internalType": "bool",
              "name": "isFreezable",
              "type": "bool"
            },
            {
              "internalType": "bytes4[]",
              "name": "selectors",
              "type": "bytes4[]"
            }
          ],
          "internalType": "struct Diamond.FacetCut[]",
          "name": "_facetCuts",
          "type": "tuple[]"
        },
        {
          "internalType": "address",
          "name": "_initAddress",
          "type": "address"
        }
      ],
      "name": "proposeDiamondCut",
      "outputs": [],
      "stateMutability": "nonpayable",
      "type": "function"
    },
    {
      "inputs": [],
      "name": "unfreezeDiamond",
      "outputs": [],
      "stateMutability": "nonpayable",
      "type": "function"
    }
  ],
  "bytecode": {
    "object": "0x608060405234801561001057600080fd5b50611d94806100206000396000f3fe608060405234801561001057600080fd5b50600436106100625760003560e01c80630b66fc1214610067578063173389451461007c5780631a97bca11461008457806362c727ab14610097578063635abadb1461009f578063b2f44526146100b2575b600080fd5b61007a6100753660046113f5565b6100ba565b005b61007a6102e6565b61007a610092366004611453565b6103c4565b61007a6104b4565b61007a6100ad3660046114d7565b610552565b61007a6106ad565b6007546001600160a01b031633146100ed5760405162461bcd60e51b81526004016100e4906114f0565b60405180910390fd5b60065460018054600080516020611d3f83398151915292821115916000916101159190611529565b421015905081806101235750805b6101545760405162461bcd60e51b8152602060048201526002602482015261309b60f11b60448201526064016100e4565b81806101655750600383015460ff16155b6101965760405162461bcd60e51b8152602060048201526002602482015261663360f01b60448201526064016100e4565b6101a08480611542565b6101b06040870160208801611593565b6040516020016101c29392919061176d565b60408051601f1981840301815291905280516020909101206000541461020f5760405162461bcd60e51b8152602060048201526002602482015261184d60f21b60448201526064016100e4565b610217610786565b6102485760405162461bcd60e51b8152602060048201526002602482015261613560f01b60448201526064016100e4565b600383015460ff16156102985760038301805460ff191690556002546040519081527fe2babfd5e77285a3c3dbc4b25592cbe4a7a26e97a7ac63067a22ebdaa9b82add9060200160405180910390a15b6102a96102a4856118c0565b6107ac565b7f2939ddef15b725effeb997aeabeae70f7fd143da62d054fee20a65879c0327be846040516102d89190611aa4565b60405180910390a150505050565b6007546001600160a01b031633146103105760405162461bcd60e51b81526004016100e4906114f0565b7fc8fcad8db84d3cc18b4c41d551ea0ee66dd599cde068d998e57d5e09332c131e54600080516020611d3f8339815191529060ff166103765760405162461bcd60e51b8152602060048201526002602482015261613760f01b60448201526064016100e4565b61037e610786565b5060038101805460ff191690556002546040519081527fe2babfd5e77285a3c3dbc4b25592cbe4a7a26e97a7ac63067a22ebdaa9b82add9060200160405180910390a150565b6007546001600160a01b031633146103ee5760405162461bcd60e51b81526004016100e4906114f0565b600154156104235760405162461bcd60e51b8152602060048201526002602482015261613360f01b60448201526064016100e4565b8282826040516020016104389392919061176d565b60408051601f1981840301815291905280516020909101206000908155426001908155600380549192909161046e908490611529565b90915550506040517fb660ff2e2beb524469d93421fc2ce64613213acc498afdea46f054941af61145906104a79085908590859061176d565b60405180910390a1505050565b6007546001600160a01b031633146104de5760405162461bcd60e51b81526004016100e4906114f0565b6000546003546040519081527f32086bfab02b0c5cfd1a3625faf6723a921a50a566515a89c5d89f540e3ab5a59060200160405180910390a261051f610786565b6105505760405162461bcd60e51b8152602060048201526002602482015261673160f01b60448201526064016100e4565b565b3360009081526004602052604090205460ff166105965760405162461bcd60e51b8152602060048201526002602482015261613960f01b60448201526064016100e4565b6003543360009081526005602052604090205481116105dc5760405162461bcd60e51b8152602060048201526002602482015261616f60f01b60448201526064016100e4565b33600090815260056020526040812082905560015490036106245760405162461bcd60e51b8152602060048201526002602482015261066360f41b60448201526064016100e4565b600054821461065a5760405162461bcd60e51b8152602060048201526002602482015261663160f01b60448201526064016100e4565b600654610668816001611529565b6006556040805183815260208101839052849133917f143fafaae36ac0284dacf3c58b264d65436660169768c04cad70c95751d79361910160405180910390a3505050565b6007546001600160a01b031633146106d75760405162461bcd60e51b81526004016100e4906114f0565b7fc8fcad8db84d3cc18b4c41d551ea0ee66dd599cde068d998e57d5e09332c131e54600080516020611d3f8339815191529060ff161561073e5760405162461bcd60e51b8152602060048201526002602482015261613960f01b60448201526064016100e4565b610746610786565b5060038101805460ff19166001179055426002556040517fafd1d5b84f004ceb4200b20fa7ff616c76b383dd0487655feb35ae687f45386b90600090a150565b60015460009081036107985750600090565b506000808055600181815560069190915590565b805160208201516040830151825160005b818110156109335760008582815181106107d9576107d9611b4b565b602002602001015160200151905060008683815181106107fb576107fb611b4b565b6020026020010151600001519050600087848151811061081d5761081d611b4b565b6020026020010151604001519050600088858151811061083f5761083f611b4b565b602002602001015160600151905060008151116108825760405162461bcd60e51b81526020600482015260016024820152602160f91b60448201526064016100e4565b6000846002811115610896576108966115bd565b036108ab576108a6838284610980565b61091e565b60018460028111156108bf576108bf6115bd565b036108cf576108a6838284610aaf565b60028460028111156108e3576108e36115bd565b036108f2576108a68382610be1565b60405162461bcd60e51b81526020600482015260016024820152604360f81b60448201526064016100e4565b505050508061092c90611b61565b90506107bd565b5061093e8383610d09565b7f87b829356b3403d36217eff1f66ee48eacd0a69015153aba4f0de29fe5340c3084848460405161097193929190611bca565b60405180910390a15050505050565b600080516020611d3f8339815191526001600160a01b0384166109c95760405162461bcd60e51b81526020600482015260016024820152604760f81b60448201526064016100e4565b6109d284610e86565b825160005b81811015610aa75760008582815181106109f3576109f3611b4b565b6020908102919091018101516001600160e01b031981166000908152868352604090819020815160608101835290546001600160a01b038116808352600160a01b820461ffff1695830195909552600160b01b900460ff161515918101919091529092509015610a895760405162461bcd60e51b81526020600482015260016024820152602560f91b60448201526064016100e4565b610a94888388610f24565b505080610aa090611b61565b90506109d7565b505050505050565b600080516020611d3f8339815191526001600160a01b038416610af85760405162461bcd60e51b81526020600482015260016024820152604b60f81b60448201526064016100e4565b825160005b81811015610aa7576000858281518110610b1957610b19611b4b565b6020908102919091018101516001600160e01b031981166000908152868352604090819020815160608101835290546001600160a01b038116808352600160a01b820461ffff1695830195909552600160b01b900460ff1615159181019190915290925090610bae5760405162461bcd60e51b81526020600482015260016024820152601360fa1b60448201526064016100e4565b8051610bba90836110d7565b610bc388610e86565b610bce888388610f24565b505080610bda90611b61565b9050610afd565b600080516020611d3f8339815191526001600160a01b03831615610c2c5760405162461bcd60e51b8152602060048201526002602482015261613160f01b60448201526064016100e4565b815160005b81811015610d02576000848281518110610c4d57610c4d611b4b565b6020908102919091018101516001600160e01b031981166000908152868352604090819020815160608101835290546001600160a01b038116808352600160a01b820461ffff1695830195909552600160b01b900460ff1615159181019190915290925090610ce35760405162461bcd60e51b8152602060048201526002602482015261309960f11b60448201526064016100e4565b8051610cef90836110d7565b505080610cfb90611b61565b9050610c31565b5050505050565b6001600160a01b038216610d4e57805115610d4a5760405162461bcd60e51b81526020600482015260016024820152600960fb1b60448201526064016100e4565b5050565b600080836001600160a01b031683604051610d699190611cc0565b600060405180830381855af49150503d8060008114610da4576040519150601f19603f3d011682016040523d82523d6000602084013e610da9565b606091505b509150915081610ddf5760405162461bcd60e51b81526020600482015260016024820152604960f81b60448201526064016100e4565b8051602014610e155760405162461bcd60e51b815260206004820152600260248201526106c760f41b60448201526064016100e4565b7f33774e659306e47509050e97cb651e731180a42d458212294d30751925c551a260001b81806020019051810190610e4d9190611cdc565b14610e805760405162461bcd60e51b81526020600482015260036024820152626c703160e81b60448201526064016100e4565b50505050565b6001600160a01b0381166000908152600080516020611d1f8339815191526020526040812054600080516020611d3f83398151915291819003610f1f576002820180546001600160a01b038516600081815260018087016020908152604083208201805461ffff191661ffff90961695909517909455845490810185559381529190912090910180546001600160a01b03191690911790555b505050565b6001600160a01b0383166000908152600080516020611d1f8339815191526020526040902054600080516020611d3f8339815191529061ffff81161561100d576001600160a01b0385166000908152600183016020526040812080548290610f8e57610f8e611b4b565b6000918252602080832060088304015460079092166004026101000a90910460e01b6001600160e01b03198116835290859052604090912054909150600160b01b900460ff1615158415151461100b5760405162461bcd60e51b81526020600482015260026024820152614a3160f01b60448201526064016100e4565b505b604080516060810182526001600160a01b0396871680825261ffff93841660208084019182529615158385019081526001600160e01b03198916600090815287895285812094518554935192519b166001600160b01b031990931692909217600160a01b91909616029490941760ff60b01b1916600160b01b981515989098029790971790559481526001918201835293842080549182018155845292206008830401805463ffffffff60079094166004026101000a938402191660e09290921c92909202179055565b6001600160e01b031981166000908152600080516020611d3f83398151915260208181526040808420546001600160a01b0387168552600080516020611d1f8339815191529092528320549192600160a01b90910461ffff169161113d90600190611cf5565b9050808214611229576001600160a01b0385166000908152600184016020526040812080548390811061117257611172611b4b565b600091825260208083206008830401546001600160a01b038a168452600188019091526040909220805460079092166004026101000a90920460e01b9250829190859081106111c3576111c3611b4b565b600091825260208083206008830401805463ffffffff60079094166004026101000a938402191660e09590951c929092029390931790556001600160e01b031992909216825284905260409020805461ffff60a01b1916600160a01b61ffff8516021790555b6001600160a01b0385166000908152600184016020526040902080548061125257611252611d08565b60008281526020808220600860001990940193840401805463ffffffff600460078716026101000a0219169055919092556001600160e01b0319861682528490526040812080546001600160b81b0319169055819003610d02576001600160a01b0385166000908152600080516020611d1f833981519152602052604081206001908101547fc8fcad8db84d3cc18b4c41d551ea0ee66dd599cde068d998e57d5e09332c131d54610d02938993600080516020611d3f8339815191529361ffff169261131e9190611cf5565b90508082146113ba57600083600201828154811061133e5761133e611b4b565b6000918252602090912001546002850180546001600160a01b03909216925082918590811061136f5761136f611b4b565b600091825260208083209190910180546001600160a01b0319166001600160a01b0394851617905592909116815260018581019092526040902001805461ffff191661ffff84161790555b826002018054806113cd576113cd611d08565b600082815260209020810160001990810180546001600160a01b031916905501905550505050565b60006020828403121561140757600080fd5b813567ffffffffffffffff81111561141e57600080fd5b82016060818503121561143057600080fd5b9392505050565b80356001600160a01b038116811461144e57600080fd5b919050565b60008060006040848603121561146857600080fd5b833567ffffffffffffffff8082111561148057600080fd5b818601915086601f83011261149457600080fd5b8135818111156114a357600080fd5b8760208260051b85010111156114b857600080fd5b6020928301955093506114ce9186019050611437565b90509250925092565b6000602082840312156114e957600080fd5b5035919050565b6020808252600990820152683737ba1037bbb732b960b91b604082015260600190565b634e487b7160e01b600052601160045260246000fd5b8082018082111561153c5761153c611513565b92915050565b6000808335601e1984360301811261155957600080fd5b83018035915067ffffffffffffffff82111561157457600080fd5b6020019150600581901b360382131561158c57600080fd5b9250929050565b6000602082840312156115a557600080fd5b61143082611437565b80356003811061144e57600080fd5b634e487b7160e01b600052602160045260246000fd5b600381106115f157634e487b7160e01b600052602160045260246000fd5b9052565b8035801515811461144e57600080fd5b6000808335601e1984360301811261161c57600080fd5b830160208101925035905067ffffffffffffffff81111561163c57600080fd5b8060051b360382131561158c57600080fd5b80356001600160e01b03198116811461144e57600080fd5b60008235607e1983360301811261167c57600080fd5b90910192915050565b81835260006020808501808196508560051b81019150846000805b8881101561175f578385038a526116b78389611666565b60808681016001600160a01b036116cd84611437565b1688526116db8984016115ae565b6116e78a8a01826115d3565b5060406116f58185016115f5565b151590890152606061170984820185611605565b918a019390935290819052915060a0870190845b8381101561174a576001600160e01b03196117378361164e565b168352918901919089019060010161171d565b50509a87019a955050918501916001016116a0565b509298975050505050505050565b604081526000611781604083018587611685565b905060018060a01b0383166020830152949350505050565b634e487b7160e01b600052604160045260246000fd5b6040516060810167ffffffffffffffff811182821017156117d2576117d2611799565b60405290565b6040516080810167ffffffffffffffff811182821017156117d2576117d2611799565b604051601f8201601f1916810167ffffffffffffffff8111828210171561182457611824611799565b604052919050565b600067ffffffffffffffff82111561184657611846611799565b5060051b60200190565b600082601f83011261186157600080fd5b813567ffffffffffffffff81111561187b5761187b611799565b61188e601f8201601f19166020016117fb565b8181528460208386010111156118a357600080fd5b816020850160208301376000918101602001919091529392505050565b600060608083360312156118d357600080fd5b6118db6117af565b833567ffffffffffffffff808211156118f357600080fd5b9085019036601f83011261190657600080fd5b8135602061191b6119168361182c565b6117fb565b82815260059290921b8401810191818101903684111561193a57600080fd5b8286015b84811015611a39578035868111156119565760008081fd5b8701608036829003601f190181131561196f5760008081fd5b6119776117d8565b611982878401611437565b815260406119918185016115ae565b888301526119a08d85016115f5565b828201529183013591898311156119b75760008081fd5b9282019236603f8501126119cd57600092508283fd5b8784013592506119df6119168461182c565b83815260059390931b840181019288810190368511156119ff5760008081fd5b948201945b84861015611a2457611a158661164e565b82529489019490890190611a04565b838f015250508552505091830191830161193e565b50865250611a48888201611437565b90850152506040860135935080841115611a6157600080fd5b5050611a6f36838601611850565b60408201529392505050565b81835281816020850137506000828201602090810191909152601f909101601f19169091010190565b602081526000611ab48384611605565b60606020850152611ac9608085018284611685565b91506001600160a01b039050611ae160208601611437565b1660408401526040840135601e19853603018112611afe57600080fd5b840160208101903567ffffffffffffffff811115611b1b57600080fd5b803603821315611b2a57600080fd5b848303601f19016060860152611b41838284611a7b565b9695505050505050565b634e487b7160e01b600052603260045260246000fd5b600060018201611b7357611b73611513565b5060010190565b60005b83811015611b95578181015183820152602001611b7d565b50506000910152565b60008151808452611bb6816020860160208601611b7a565b601f01601f19169290920160200192915050565b60006060808301818452808751808352608092508286019150828160051b8701016020808b016000805b85811015611c8f578a8503607f19018752825180516001600160a01b031686528481015189870190611c28878901826115d3565b50604082810151151590880152908a01518a87018a9052805191829052850190839060a08801905b80831015611c7a5783516001600160e01b0319168252928701926001929092019190870190611c50565b50988601989650505091830191600101611bf4565b5050506001600160a01b038a16908801528681036040880152611cb28189611b9e565b9a9950505050505050505050565b60008251611cd2818460208701611b7a565b9190910192915050565b600060208284031215611cee57600080fd5b5051919050565b8181038181111561153c5761153c611513565b634e487b7160e01b600052603160045260246000fdfec8fcad8db84d3cc18b4c41d551ea0ee66dd599cde068d998e57d5e09332c131cc8fcad8db84d3cc18b4c41d551ea0ee66dd599cde068d998e57d5e09332c131ba2646970667358221220bd28a4f87485d8c11e452f1c4091d3459b6790092fbafb3a4438c8e72285ff0b64736f6c63430008110033",
    "linkReferences": {}
  },
  "methodIdentifiers": {
    "approveEmergencyDiamondCutAsSecurityCouncilMember(bytes32)": "635abadb",
    "cancelDiamondCutProposal()": "62c727ab",
    "emergencyFreezeDiamond()": "b2f44526",
    "executeDiamondCutProposal(((address,uint8,bool,bytes4[])[],address,bytes))": "0b66fc12",
    "proposeDiamondCut((address,uint8,bool,bytes4[])[],address)": "1a97bca1",
    "unfreezeDiamond()": "17338945"
  },
  "id": 47
}