{
  "abi": [
    {
      "anonymous": false,
      "inputs": [
        {
          "indexed": true,
          "internalType": "address",
          "name": "owner",
          "type": "address"
        },
        {
          "indexed": true,
          "internalType": "address",
          "name": "approved",
          "type": "address"
        },
        {
          "indexed": true,
          "internalType": "uint256",
          "name": "tokenId",
          "type": "uint256"
        }
      ],
      "name": "Approval",
      "type": "event"
    },
    {
      "anonymous": false,
      "inputs": [
        {
          "indexed": true,
          "internalType": "address",
          "name": "owner",
          "type": "address"
        },
        {
          "indexed": true,
          "internalType": "address",
          "name": "operator",
          "type": "address"
        },
        {
          "indexed": false,
          "internalType": "bool",
          "name": "approved",
          "type": "bool"
        }
      ],
      "name": "ApprovalForAll",
      "type": "event"
    },
    {
      "anonymous": false,
      "inputs": [
        {
          "indexed": false,
          "internalType": "uint8",
          "name": "version",
          "type": "uint8"
        }
      ],
      "name": "Initialized",
      "type": "event"
    },
    {
      "anonymous": false,
      "inputs": [
        {
          "indexed": true,
          "internalType": "address",
          "name": "from",
          "type": "address"
        },
        {
          "indexed": true,
          "internalType": "address",
          "name": "to",
          "type": "address"
        },
        {
          "indexed": true,
          "internalType": "uint256",
          "name": "tokenId",
          "type": "uint256"
        }
      ],
      "name": "Transfer",
      "type": "event"
    },
    {
      "inputs": [
        {
          "internalType": "address",
          "name": "to",
          "type": "address"
        },
        {
          "internalType": "uint256",
          "name": "tokenId",
          "type": "uint256"
        }
      ],
      "name": "approve",
      "outputs": [],
      "stateMutability": "nonpayable",
      "type": "function"
    },
    {
      "inputs": [
        {
          "internalType": "address",
          "name": "owner",
          "type": "address"
        }
      ],
      "name": "balanceOf",
      "outputs": [
        {
          "internalType": "uint256",
          "name": "",
          "type": "uint256"
        }
      ],
      "stateMutability": "view",
      "type": "function"
    },
    {
      "inputs": [
        {
          "internalType": "uint256",
          "name": "tokenId",
          "type": "uint256"
        }
      ],
      "name": "getApproved",
      "outputs": [
        {
          "internalType": "address",
          "name": "",
          "type": "address"
        }
      ],
      "stateMutability": "view",
      "type": "function"
    },
    {
      "inputs": [],
      "name": "index",
      "outputs": [
        {
          "internalType": "uint256",
          "name": "",
          "type": "uint256"
        }
      ],
      "stateMutability": "view",
      "type": "function"
    },
    {
      "inputs": [
        {
          "internalType": "address",
          "name": "owner",
          "type": "address"
        },
        {
          "internalType": "address",
          "name": "operator",
          "type": "address"
        }
      ],
      "name": "isApprovedForAll",
      "outputs": [
        {
          "internalType": "bool",
          "name": "",
          "type": "bool"
        }
      ],
      "stateMutability": "view",
      "type": "function"
    },
    {
      "inputs": [],
      "name": "name",
      "outputs": [
        {
          "internalType": "string",
          "name": "",
          "type": "string"
        }
      ],
      "stateMutability": "view",
      "type": "function"
    },
    {
      "inputs": [
        {
          "internalType": "uint256",
          "name": "tokenId",
          "type": "uint256"
        }
      ],
      "name": "ownerOf",
      "outputs": [
        {
          "internalType": "address",
          "name": "",
          "type": "address"
        }
      ],
      "stateMutability": "view",
      "type": "function"
    },
    {
      "inputs": [
        {
          "internalType": "address",
          "name": "from",
          "type": "address"
        },
        {
          "internalType": "address",
          "name": "to",
          "type": "address"
        },
        {
          "internalType": "uint256",
          "name": "tokenId",
          "type": "uint256"
        }
      ],
      "name": "safeTransferFrom",
      "outputs": [],
      "stateMutability": "nonpayable",
      "type": "function"
    },
    {
      "inputs": [
        {
          "internalType": "address",
          "name": "from",
          "type": "address"
        },
        {
          "internalType": "address",
          "name": "to",
          "type": "address"
        },
        {
          "internalType": "uint256",
          "name": "tokenId",
          "type": "uint256"
        },
        {
          "internalType": "bytes",
          "name": "data",
          "type": "bytes"
        }
      ],
      "name": "safeTransferFrom",
      "outputs": [],
      "stateMutability": "nonpayable",
      "type": "function"
    },
    {
      "inputs": [
        {
          "internalType": "address",
          "name": "operator",
          "type": "address"
        },
        {
          "internalType": "bool",
          "name": "approved",
          "type": "bool"
        }
      ],
      "name": "setApprovalForAll",
      "outputs": [],
      "stateMutability": "nonpayable",
      "type": "function"
    },
    {
      "inputs": [
        {
          "internalType": "bytes4",
          "name": "interfaceId",
          "type": "bytes4"
        }
      ],
      "name": "supportsInterface",
      "outputs": [
        {
          "internalType": "bool",
          "name": "",
          "type": "bool"
        }
      ],
      "stateMutability": "view",
      "type": "function"
    },
    {
      "inputs": [],
      "name": "symbol",
      "outputs": [
        {
          "internalType": "string",
          "name": "",
          "type": "string"
        }
      ],
      "stateMutability": "view",
      "type": "function"
    },
    {
      "inputs": [
        {
          "internalType": "uint256",
          "name": "tokenId",
          "type": "uint256"
        }
      ],
      "name": "tokenURI",
      "outputs": [
        {
          "internalType": "string",
          "name": "",
          "type": "string"
        }
      ],
      "stateMutability": "view",
      "type": "function"
    },
    {
      "inputs": [
        {
          "internalType": "address",
          "name": "from",
          "type": "address"
        },
        {
          "internalType": "address",
          "name": "to",
          "type": "address"
        },
        {
          "internalType": "uint256",
          "name": "tokenId",
          "type": "uint256"
        }
      ],
      "name": "transferFrom",
      "outputs": [],
      "stateMutability": "nonpayable",
      "type": "function"
    }
  ],
  "bytecode": {
    "object": "0x608060405234801561001057600080fd5b50611117806100206000396000f3fe608060405234801561001057600080fd5b50600436106100ea5760003560e01c80636352211e1161008c578063a22cb46511610066578063a22cb465146101d7578063b88d4fde146101ea578063c87b56dd146101fd578063e985e9c51461021057600080fd5b80636352211e146101a957806370a08231146101bc57806395d89b41146101cf57600080fd5b8063095ea7b3116100c8578063095ea7b31461015757806323b872dd1461016c5780632986c0e51461017f57806342842e0e1461019657600080fd5b806301ffc9a7146100ef57806306fdde0314610117578063081812fc1461012c575b600080fd5b6101026100fd366004610ca3565b61024c565b60405190151581526020015b60405180910390f35b61011f61029e565b60405161010e9190610d10565b61013f61013a366004610d23565b610330565b6040516001600160a01b03909116815260200161010e565b61016a610165366004610d58565b610357565b005b61016a61017a366004610d82565b610471565b610188606b5481565b60405190815260200161010e565b61016a6101a4366004610d82565b6104a2565b61013f6101b7366004610d23565b6104bd565b6101886101ca366004610dbe565b61051d565b61011f6105a3565b61016a6101e5366004610dd9565b6105b2565b61016a6101f8366004610e2b565b6105c1565b61011f61020b366004610d23565b6105f9565b61010261021e366004610f07565b6001600160a01b039182166000908152606a6020908152604080832093909416825291909152205460ff1690565b60006001600160e01b031982166380ac58cd60e01b148061027d57506001600160e01b03198216635b5e139f60e01b145b8061029857506301ffc9a760e01b6001600160e01b03198316145b92915050565b6060606580546102ad90610f3a565b80601f01602080910402602001604051908101604052809291908181526020018280546102d990610f3a565b80156103265780601f106102fb57610100808354040283529160200191610326565b820191906000526020600020905b81548152906001019060200180831161030957829003601f168201915b5050505050905090565b600061033b8261066d565b506000908152606960205260409020546001600160a01b031690565b6000610362826104bd565b9050806001600160a01b0316836001600160a01b0316036103d45760405162461bcd60e51b815260206004820152602160248201527f4552433732313a20617070726f76616c20746f2063757272656e74206f776e656044820152603960f91b60648201526084015b60405180910390fd5b336001600160a01b03821614806103f057506103f0813361021e565b6104625760405162461bcd60e51b815260206004820152603d60248201527f4552433732313a20617070726f76652063616c6c6572206973206e6f7420746f60448201527f6b656e206f776e6572206f7220617070726f76656420666f7220616c6c00000060648201526084016103cb565b61046c83836106cf565b505050565b61047b338261073d565b6104975760405162461bcd60e51b81526004016103cb90610f74565b61046c8383836107bc565b61046c838383604051806020016040528060008152506105c1565b6000818152606760205260408120546001600160a01b0316806102985760405162461bcd60e51b8152602060048201526018602482015277115490cdcc8c4e881a5b9d985b1a59081d1bdad95b88125160421b60448201526064016103cb565b60006001600160a01b0382166105875760405162461bcd60e51b815260206004820152602960248201527f4552433732313a2061646472657373207a65726f206973206e6f7420612076616044820152683634b21037bbb732b960b91b60648201526084016103cb565b506001600160a01b031660009081526068602052604090205490565b6060606680546102ad90610f3a565b6105bd338383610920565b5050565b6105cb338361073d565b6105e75760405162461bcd60e51b81526004016103cb90610f74565b6105f3848484846109ee565b50505050565b60606106048261066d565b600061061b60408051602081019091526000815290565b9050600081511161063b5760405180602001604052806000815250610666565b8061064584610a21565b604051602001610656929190610fc1565b6040516020818303038152906040525b9392505050565b6000818152606760205260409020546001600160a01b03166106cc5760405162461bcd60e51b8152602060048201526018602482015277115490cdcc8c4e881a5b9d985b1a59081d1bdad95b88125160421b60448201526064016103cb565b50565b600081815260696020526040902080546001600160a01b0319166001600160a01b0384169081179091558190610704826104bd565b6001600160a01b03167f8c5be1e5ebec7d5bd14f71427d1e84f3dd0314c0f7b2291e5b200ac8c7c3b92560405160405180910390a45050565b600080610749836104bd565b9050806001600160a01b0316846001600160a01b0316148061079057506001600160a01b038082166000908152606a602090815260408083209388168352929052205460ff165b806107b45750836001600160a01b03166107a984610330565b6001600160a01b0316145b949350505050565b826001600160a01b03166107cf826104bd565b6001600160a01b0316146107f55760405162461bcd60e51b81526004016103cb90610ff0565b6001600160a01b0382166108575760405162461bcd60e51b8152602060048201526024808201527f4552433732313a207472616e7366657220746f20746865207a65726f206164646044820152637265737360e01b60648201526084016103cb565b826001600160a01b031661086a826104bd565b6001600160a01b0316146108905760405162461bcd60e51b81526004016103cb90610ff0565b600081815260696020908152604080832080546001600160a01b03199081169091556001600160a01b0387811680865260688552838620805460001901905590871680865283862080546001019055868652606790945282852080549092168417909155905184937fddf252ad1be2c89b69c2b068fc378daa952ba7f163c4a11628f55a4df523b3ef91a4505050565b816001600160a01b0316836001600160a01b0316036109815760405162461bcd60e51b815260206004820152601960248201527f4552433732313a20617070726f766520746f2063616c6c65720000000000000060448201526064016103cb565b6001600160a01b038381166000818152606a6020908152604080832094871680845294825291829020805460ff191686151590811790915591519182527f17307eab39ab6107e8899845ad3d59bd9653f200f220920489ca2b5937696c31910160405180910390a3505050565b6109f98484846107bc565b610a0584848484610ab4565b6105f35760405162461bcd60e51b81526004016103cb90611035565b60606000610a2e83610bb5565b600101905060008167ffffffffffffffff811115610a4e57610a4e610e15565b6040519080825280601f01601f191660200182016040528015610a78576020820181803683370190505b5090508181016020015b600019016f181899199a1a9b1b9c1cb0b131b232b360811b600a86061a8153600a8504945084610a8257509392505050565b60006001600160a01b0384163b15610baa57604051630a85bd0160e11b81526001600160a01b0385169063150b7a0290610af8903390899088908890600401611087565b6020604051808303816000875af1925050508015610b33575060408051601f3d908101601f19168201909252610b30918101906110c4565b60015b610b90573d808015610b61576040519150601f19603f3d011682016040523d82523d6000602084013e610b66565b606091505b508051600003610b885760405162461bcd60e51b81526004016103cb90611035565b805181602001fd5b6001600160e01b031916630a85bd0160e11b1490506107b4565b506001949350505050565b60008072184f03e93ff9f4daa797ed6e38ed64bf6a1f0160401b8310610bf45772184f03e93ff9f4daa797ed6e38ed64bf6a1f0160401b830492506040015b6d04ee2d6d415b85acef81000000008310610c20576d04ee2d6d415b85acef8100000000830492506020015b662386f26fc100008310610c3e57662386f26fc10000830492506010015b6305f5e1008310610c56576305f5e100830492506008015b6127108310610c6a57612710830492506004015b60648310610c7c576064830492506002015b600a83106102985760010192915050565b6001600160e01b0319811681146106cc57600080fd5b600060208284031215610cb557600080fd5b813561066681610c8d565b60005b83811015610cdb578181015183820152602001610cc3565b50506000910152565b60008151808452610cfc816020860160208601610cc0565b601f01601f19169290920160200192915050565b6020815260006106666020830184610ce4565b600060208284031215610d3557600080fd5b5035919050565b80356001600160a01b0381168114610d5357600080fd5b919050565b60008060408385031215610d6b57600080fd5b610d7483610d3c565b946020939093013593505050565b600080600060608486031215610d9757600080fd5b610da084610d3c565b9250610dae60208501610d3c565b9150604084013590509250925092565b600060208284031215610dd057600080fd5b61066682610d3c565b60008060408385031215610dec57600080fd5b610df583610d3c565b915060208301358015158114610e0a57600080fd5b809150509250929050565b634e487b7160e01b600052604160045260246000fd5b60008060008060808587031215610e4157600080fd5b610e4a85610d3c565b9350610e5860208601610d3c565b925060408501359150606085013567ffffffffffffffff80821115610e7c57600080fd5b818701915087601f830112610e9057600080fd5b813581811115610ea257610ea2610e15565b604051601f8201601f19908116603f01168101908382118183101715610eca57610eca610e15565b816040528281528a6020848701011115610ee357600080fd5b82602086016020830137600060208483010152809550505050505092959194509250565b60008060408385031215610f1a57600080fd5b610f2383610d3c565b9150610f3160208401610d3c565b90509250929050565b600181811c90821680610f4e57607f821691505b602082108103610f6e57634e487b7160e01b600052602260045260246000fd5b50919050565b6020808252602d908201527f4552433732313a2063616c6c6572206973206e6f7420746f6b656e206f776e6560408201526c1c881bdc88185c1c1c9bdd9959609a1b606082015260800190565b60008351610fd3818460208801610cc0565b835190830190610fe7818360208801610cc0565b01949350505050565b60208082526025908201527f4552433732313a207472616e736665722066726f6d20696e636f72726563742060408201526437bbb732b960d91b606082015260800190565b60208082526032908201527f4552433732313a207472616e7366657220746f206e6f6e20455243373231526560408201527131b2b4bb32b91034b6b83632b6b2b73a32b960711b606082015260800190565b6001600160a01b03858116825284166020820152604081018390526080606082018190526000906110ba90830184610ce4565b9695505050505050565b6000602082840312156110d657600080fd5b815161066681610c8d56fea26469706673582212205eca0fb392d34ab0901a2bcdf4bd0b00f07922db0e0c20e071562fbb672743ca64736f6c63430008110033",
    "linkReferences": {}
  },
  "methodIdentifiers": {
    "approve(address,uint256)": "095ea7b3",
    "balanceOf(address)": "70a08231",
    "getApproved(uint256)": "081812fc",
    "index()": "2986c0e5",
    "isApprovedForAll(address,address)": "e985e9c5",
    "name()": "06fdde03",
    "ownerOf(uint256)": "6352211e",
    "safeTransferFrom(address,address,uint256)": "42842e0e",
    "safeTransferFrom(address,address,uint256,bytes)": "b88d4fde",
    "setApprovalForAll(address,bool)": "a22cb465",
    "supportsInterface(bytes4)": "01ffc9a7",
    "symbol()": "95d89b41",
    "tokenURI(uint256)": "c87b56dd",
    "transferFrom(address,address,uint256)": "23b872dd"
  },
  "id": 62
}