{
  "abi": [
    {
      "anonymous": false,
      "inputs": [
        {
          "indexed": true,
          "internalType": "address",
          "name": "owner",
          "type": "address"
        },
        {
          "indexed": true,
          "internalType": "address",
          "name": "approved",
          "type": "address"
        },
        {
          "indexed": true,
          "internalType": "uint256",
          "name": "tokenId",
          "type": "uint256"
        }
      ],
      "name": "Approval",
      "type": "event"
    },
    {
      "anonymous": false,
      "inputs": [
        {
          "indexed": true,
          "internalType": "address",
          "name": "owner",
          "type": "address"
        },
        {
          "indexed": true,
          "internalType": "address",
          "name": "operator",
          "type": "address"
        },
        {
          "indexed": false,
          "internalType": "bool",
          "name": "approved",
          "type": "bool"
        }
      ],
      "name": "ApprovalForAll",
      "type": "event"
    },
    {
      "anonymous": false,
      "inputs": [
        {
          "indexed": false,
          "internalType": "uint8",
          "name": "version",
          "type": "uint8"
        }
      ],
      "name": "Initialized",
      "type": "event"
    },
    {
      "anonymous": false,
      "inputs": [
        {
          "indexed": true,
          "internalType": "address",
          "name": "from",
          "type": "address"
        },
        {
          "indexed": true,
          "internalType": "address",
          "name": "to",
          "type": "address"
        },
        {
          "indexed": true,
          "internalType": "uint256",
          "name": "tokenId",
          "type": "uint256"
        }
      ],
      "name": "Transfer",
      "type": "event"
    },
    {
      "inputs": [
        {
          "internalType": "address",
          "name": "to",
          "type": "address"
        },
        {
          "internalType": "uint256",
          "name": "tokenId",
          "type": "uint256"
        }
      ],
      "name": "approve",
      "outputs": [],
      "stateMutability": "nonpayable",
      "type": "function"
    },
    {
      "inputs": [
        {
          "internalType": "address",
          "name": "owner",
          "type": "address"
        }
      ],
      "name": "balanceOf",
      "outputs": [
        {
          "internalType": "uint256",
          "name": "",
          "type": "uint256"
        }
      ],
      "stateMutability": "view",
      "type": "function"
    },
    {
      "inputs": [
        {
          "internalType": "uint256",
          "name": "tokenId",
          "type": "uint256"
        }
      ],
      "name": "getApproved",
      "outputs": [
        {
          "internalType": "address",
          "name": "",
          "type": "address"
        }
      ],
      "stateMutability": "view",
      "type": "function"
    },
    {
      "inputs": [],
      "name": "index",
      "outputs": [
        {
          "internalType": "uint256",
          "name": "",
          "type": "uint256"
        }
      ],
      "stateMutability": "view",
      "type": "function"
    },
    {
      "inputs": [
        {
          "internalType": "address",
          "name": "owner",
          "type": "address"
        },
        {
          "internalType": "address",
          "name": "operator",
          "type": "address"
        }
      ],
      "name": "isApprovedForAll",
      "outputs": [
        {
          "internalType": "bool",
          "name": "",
          "type": "bool"
        }
      ],
      "stateMutability": "view",
      "type": "function"
    },
    {
      "inputs": [
        {
          "internalType": "address",
          "name": "spender",
          "type": "address"
        },
        {
          "internalType": "uint256",
          "name": "tokenId",
          "type": "uint256"
        }
      ],
      "name": "isApprovedOrOwner",
      "outputs": [
        {
          "internalType": "bool",
          "name": "",
          "type": "bool"
        }
      ],
      "stateMutability": "view",
      "type": "function"
    },
    {
      "inputs": [],
      "name": "name",
      "outputs": [
        {
          "internalType": "string",
          "name": "",
          "type": "string"
        }
      ],
      "stateMutability": "view",
      "type": "function"
    },
    {
      "inputs": [
        {
          "internalType": "uint256",
          "name": "tokenId",
          "type": "uint256"
        }
      ],
      "name": "ownerOf",
      "outputs": [
        {
          "internalType": "address",
          "name": "",
          "type": "address"
        }
      ],
      "stateMutability": "view",
      "type": "function"
    },
    {
      "inputs": [
        {
          "internalType": "address",
          "name": "from",
          "type": "address"
        },
        {
          "internalType": "address",
          "name": "to",
          "type": "address"
        },
        {
          "internalType": "uint256",
          "name": "tokenId",
          "type": "uint256"
        }
      ],
      "name": "safeTransferFrom",
      "outputs": [],
      "stateMutability": "nonpayable",
      "type": "function"
    },
    {
      "inputs": [
        {
          "internalType": "address",
          "name": "from",
          "type": "address"
        },
        {
          "internalType": "address",
          "name": "to",
          "type": "address"
        },
        {
          "internalType": "uint256",
          "name": "tokenId",
          "type": "uint256"
        },
        {
          "internalType": "bytes",
          "name": "data",
          "type": "bytes"
        }
      ],
      "name": "safeTransferFrom",
      "outputs": [],
      "stateMutability": "nonpayable",
      "type": "function"
    },
    {
      "inputs": [
        {
          "internalType": "address",
          "name": "operator",
          "type": "address"
        },
        {
          "internalType": "bool",
          "name": "approved",
          "type": "bool"
        }
      ],
      "name": "setApprovalForAll",
      "outputs": [],
      "stateMutability": "nonpayable",
      "type": "function"
    },
    {
      "inputs": [
        {
          "internalType": "bytes4",
          "name": "interfaceId",
          "type": "bytes4"
        }
      ],
      "name": "supportsInterface",
      "outputs": [
        {
          "internalType": "bool",
          "name": "",
          "type": "bool"
        }
      ],
      "stateMutability": "view",
      "type": "function"
    },
    {
      "inputs": [],
      "name": "symbol",
      "outputs": [
        {
          "internalType": "string",
          "name": "",
          "type": "string"
        }
      ],
      "stateMutability": "view",
      "type": "function"
    },
    {
      "inputs": [
        {
          "internalType": "uint256",
          "name": "tokenId",
          "type": "uint256"
        }
      ],
      "name": "tokenURI",
      "outputs": [
        {
          "internalType": "string",
          "name": "",
          "type": "string"
        }
      ],
      "stateMutability": "view",
      "type": "function"
    },
    {
      "inputs": [
        {
          "internalType": "address",
          "name": "from",
          "type": "address"
        },
        {
          "internalType": "address",
          "name": "to",
          "type": "address"
        },
        {
          "internalType": "uint256",
          "name": "tokenId",
          "type": "uint256"
        }
      ],
      "name": "transferFrom",
      "outputs": [],
      "stateMutability": "nonpayable",
      "type": "function"
    }
  ],
  "bytecode": {
    "object": "0x608060405234801561001057600080fd5b5061140c806100206000396000f3fe608060405234801561001057600080fd5b50600436106100f55760003560e01c8063430c208111610097578063a22cb46511610066578063a22cb465146101f5578063b88d4fde14610208578063c87b56dd1461021b578063e985e9c51461022e57600080fd5b8063430c2081146101b45780636352211e146101c757806370a08231146101da57806395d89b41146101ed57600080fd5b8063095ea7b3116100d3578063095ea7b31461016257806323b872dd146101775780632986c0e51461018a57806342842e0e146101a157600080fd5b806301ffc9a7146100fa57806306fdde0314610122578063081812fc14610137575b600080fd5b61010d610108366004610f2a565b61026a565b60405190151581526020015b60405180910390f35b61012a6102bc565b6040516101199190610f97565b61014a610145366004610faa565b61034e565b6040516001600160a01b039091168152602001610119565b610175610170366004610fdf565b610375565b005b610175610185366004611009565b61048f565b610193606b5481565b604051908152602001610119565b6101756101af366004611009565b6104c0565b61010d6101c2366004610fdf565b6104db565b61014a6101d5366004610faa565b6104ee565b6101936101e8366004611045565b61054e565b61012a6105d4565b610175610203366004611060565b6105e3565b6101756102163660046110b2565b6105f2565b61012a610229366004610faa565b61062a565b61010d61023c36600461118e565b6001600160a01b039182166000908152606a6020908152604080832093909416825291909152205460ff1690565b60006001600160e01b031982166380ac58cd60e01b148061029b57506001600160e01b03198216635b5e139f60e01b145b806102b657506301ffc9a760e01b6001600160e01b03198316145b92915050565b6060606580546102cb906111c1565b80601f01602080910402602001604051908101604052809291908181526020018280546102f7906111c1565b80156103445780601f1061031957610100808354040283529160200191610344565b820191906000526020600020905b81548152906001019060200180831161032757829003601f168201915b5050505050905090565b60006103598261069d565b506000908152606960205260409020546001600160a01b031690565b6000610380826104ee565b9050806001600160a01b0316836001600160a01b0316036103f25760405162461bcd60e51b815260206004820152602160248201527f4552433732313a20617070726f76616c20746f2063757272656e74206f776e656044820152603960f91b60648201526084015b60405180910390fd5b336001600160a01b038216148061040e575061040e813361023c565b6104805760405162461bcd60e51b815260206004820152603d60248201527f4552433732313a20617070726f76652063616c6c6572206973206e6f7420746f60448201527f6b656e206f776e6572206f7220617070726f76656420666f7220616c6c00000060648201526084016103e9565b61048a83836106ff565b505050565b610499338261076d565b6104b55760405162461bcd60e51b81526004016103e9906111fb565b61048a8383836107ec565b61048a838383604051806020016040528060008152506105f2565b60006104e7838361076d565b9392505050565b6000818152606760205260408120546001600160a01b0316806102b65760405162461bcd60e51b8152602060048201526018602482015277115490cdcc8c4e881a5b9d985b1a59081d1bdad95b88125160421b60448201526064016103e9565b60006001600160a01b0382166105b85760405162461bcd60e51b815260206004820152602960248201527f4552433732313a2061646472657373207a65726f206973206e6f7420612076616044820152683634b21037bbb732b960b91b60648201526084016103e9565b506001600160a01b031660009081526068602052604090205490565b6060606680546102cb906111c1565b6105ee33838361095b565b5050565b6105fc338361076d565b6106185760405162461bcd60e51b81526004016103e9906111fb565b61062484848484610a29565b50505050565b60606106358261069d565b600061064c60408051602081019091526000815290565b9050600081511161066c57604051806020016040528060008152506104e7565b8061067684610a5c565b604051602001610687929190611248565b6040516020818303038152906040529392505050565b6000818152606760205260409020546001600160a01b03166106fc5760405162461bcd60e51b8152602060048201526018602482015277115490cdcc8c4e881a5b9d985b1a59081d1bdad95b88125160421b60448201526064016103e9565b50565b600081815260696020526040902080546001600160a01b0319166001600160a01b0384169081179091558190610734826104ee565b6001600160a01b03167f8c5be1e5ebec7d5bd14f71427d1e84f3dd0314c0f7b2291e5b200ac8c7c3b92560405160405180910390a45050565b600080610779836104ee565b9050806001600160a01b0316846001600160a01b031614806107c057506001600160a01b038082166000908152606a602090815260408083209388168352929052205460ff165b806107e45750836001600160a01b03166107d98461034e565b6001600160a01b0316145b949350505050565b826001600160a01b03166107ff826104ee565b6001600160a01b0316146108255760405162461bcd60e51b81526004016103e990611277565b6001600160a01b0382166108875760405162461bcd60e51b8152602060048201526024808201527f4552433732313a207472616e7366657220746f20746865207a65726f206164646044820152637265737360e01b60648201526084016103e9565b610892838383610aef565b826001600160a01b03166108a5826104ee565b6001600160a01b0316146108cb5760405162461bcd60e51b81526004016103e990611277565b600081815260696020908152604080832080546001600160a01b03199081169091556001600160a01b0387811680865260688552838620805460001901905590871680865283862080546001019055868652606790945282852080549092168417909155905184937fddf252ad1be2c89b69c2b068fc378daa952ba7f163c4a11628f55a4df523b3ef91a4505050565b816001600160a01b0316836001600160a01b0316036109bc5760405162461bcd60e51b815260206004820152601960248201527f4552433732313a20617070726f766520746f2063616c6c65720000000000000060448201526064016103e9565b6001600160a01b038381166000818152606a6020908152604080832094871680845294825291829020805460ff191686151590811790915591519182527f17307eab39ab6107e8899845ad3d59bd9653f200f220920489ca2b5937696c31910160405180910390a3505050565b610a348484846107ec565b610a4084848484610b85565b6106245760405162461bcd60e51b81526004016103e9906112bc565b60606000610a6983610c86565b600101905060008167ffffffffffffffff811115610a8957610a8961109c565b6040519080825280601f01601f191660200182016040528015610ab3576020820181803683370190505b5090508181016020015b600019016f181899199a1a9b1b9c1cb0b131b232b360811b600a86061a8153600a8504945084610abd57509392505050565b816001600160a01b0316836001600160a01b031614158015610b1957506001600160a01b03831615155b15610b2857610b288382610d5e565b826001600160a01b0316826001600160a01b031614158015610b5257506001600160a01b03821615155b1561048a576001600160a01b03919091166000908152606c60209081526040822080546001810182559083529120015550565b60006001600160a01b0384163b15610c7b57604051630a85bd0160e11b81526001600160a01b0385169063150b7a0290610bc990339089908890889060040161130e565b6020604051808303816000875af1925050508015610c04575060408051601f3d908101601f19168201909252610c019181019061134b565b60015b610c61573d808015610c32576040519150601f19603f3d011682016040523d82523d6000602084013e610c37565b606091505b508051600003610c595760405162461bcd60e51b81526004016103e9906112bc565b805181602001fd5b6001600160e01b031916630a85bd0160e11b1490506107e4565b506001949350505050565b60008072184f03e93ff9f4daa797ed6e38ed64bf6a1f0160401b8310610cc55772184f03e93ff9f4daa797ed6e38ed64bf6a1f0160401b830492506040015b6d04ee2d6d415b85acef81000000008310610cf1576d04ee2d6d415b85acef8100000000830492506020015b662386f26fc100008310610d0f57662386f26fc10000830492506010015b6305f5e1008310610d27576305f5e100830492506008015b6127108310610d3b57612710830492506004015b60648310610d4d576064830492506002015b600a83106102b65760010192915050565b6001600160a01b0382166000908152606c6020908152604080832080548251818502810185019093528083529192909190830182828015610dbe57602002820191906000526020600020905b815481526020019060010190808311610daa575b505083519394506000925050505b81811015610ead5783838281518110610de757610de7611368565b602002602001015103610e9d5782610e00600184611394565b81518110610e1057610e10611368565b6020026020010151838281518110610e2a57610e2a611368565b6020908102919091018101919091526001600160a01b0386166000908152606c8252604090208451610e5e92860190610eb4565b506001600160a01b0385166000908152606c60205260409020805480610e8657610e866113a7565b600190038181906000526020600020016000905590555b610ea6816113bd565b9050610dcc565b5050505050565b828054828255906000526020600020908101928215610eef579160200282015b82811115610eef578251825591602001919060010190610ed4565b50610efb929150610eff565b5090565b5b80821115610efb5760008155600101610f00565b6001600160e01b0319811681146106fc57600080fd5b600060208284031215610f3c57600080fd5b81356104e781610f14565b60005b83811015610f62578181015183820152602001610f4a565b50506000910152565b60008151808452610f83816020860160208601610f47565b601f01601f19169290920160200192915050565b6020815260006104e76020830184610f6b565b600060208284031215610fbc57600080fd5b5035919050565b80356001600160a01b0381168114610fda57600080fd5b919050565b60008060408385031215610ff257600080fd5b610ffb83610fc3565b946020939093013593505050565b60008060006060848603121561101e57600080fd5b61102784610fc3565b925061103560208501610fc3565b9150604084013590509250925092565b60006020828403121561105757600080fd5b6104e782610fc3565b6000806040838503121561107357600080fd5b61107c83610fc3565b91506020830135801515811461109157600080fd5b809150509250929050565b634e487b7160e01b600052604160045260246000fd5b600080600080608085870312156110c857600080fd5b6110d185610fc3565b93506110df60208601610fc3565b925060408501359150606085013567ffffffffffffffff8082111561110357600080fd5b818701915087601f83011261111757600080fd5b8135818111156111295761112961109c565b604051601f8201601f19908116603f011681019083821181831017156111515761115161109c565b816040528281528a602084870101111561116a57600080fd5b82602086016020830137600060208483010152809550505050505092959194509250565b600080604083850312156111a157600080fd5b6111aa83610fc3565b91506111b860208401610fc3565b90509250929050565b600181811c908216806111d557607f821691505b6020821081036111f557634e487b7160e01b600052602260045260246000fd5b50919050565b6020808252602d908201527f4552433732313a2063616c6c6572206973206e6f7420746f6b656e206f776e6560408201526c1c881bdc88185c1c1c9bdd9959609a1b606082015260800190565b6000835161125a818460208801610f47565b83519083019061126e818360208801610f47565b01949350505050565b60208082526025908201527f4552433732313a207472616e736665722066726f6d20696e636f72726563742060408201526437bbb732b960d91b606082015260800190565b60208082526032908201527f4552433732313a207472616e7366657220746f206e6f6e20455243373231526560408201527131b2b4bb32b91034b6b83632b6b2b73a32b960711b606082015260800190565b6001600160a01b038581168252841660208201526040810183905260806060820181905260009061134190830184610f6b565b9695505050505050565b60006020828403121561135d57600080fd5b81516104e781610f14565b634e487b7160e01b600052603260045260246000fd5b634e487b7160e01b600052601160045260246000fd5b818103818111156102b6576102b661137e565b634e487b7160e01b600052603160045260246000fd5b6000600182016113cf576113cf61137e565b506001019056fea26469706673582212202d80a04b1e8ac3a1e593f3f6df3ffdcc9f102fd014e7926fd837b139bc8f553c64736f6c63430008110033",
    "linkReferences": {}
  },
  "methodIdentifiers": {
    "approve(address,uint256)": "095ea7b3",
    "balanceOf(address)": "70a08231",
    "getApproved(uint256)": "081812fc",
    "index()": "2986c0e5",
    "isApprovedForAll(address,address)": "e985e9c5",
    "isApprovedOrOwner(address,uint256)": "430c2081",
    "name()": "06fdde03",
    "ownerOf(uint256)": "6352211e",
    "safeTransferFrom(address,address,uint256)": "42842e0e",
    "safeTransferFrom(address,address,uint256,bytes)": "b88d4fde",
    "setApprovalForAll(address,bool)": "a22cb465",
    "supportsInterface(bytes4)": "01ffc9a7",
    "symbol()": "95d89b41",
    "tokenURI(uint256)": "c87b56dd",
    "transferFrom(address,address,uint256)": "23b872dd"
  },
  "id": 55
}