{
  "abi": [
    {
      "anonymous": false,
      "inputs": [
        {
          "indexed": true,
          "internalType": "address",
          "name": "owner",
          "type": "address"
        },
        {
          "indexed": true,
          "internalType": "address",
          "name": "approved",
          "type": "address"
        },
        {
          "indexed": true,
          "internalType": "uint256",
          "name": "tokenId",
          "type": "uint256"
        }
      ],
      "name": "Approval",
      "type": "event"
    },
    {
      "anonymous": false,
      "inputs": [
        {
          "indexed": true,
          "internalType": "address",
          "name": "owner",
          "type": "address"
        },
        {
          "indexed": true,
          "internalType": "address",
          "name": "operator",
          "type": "address"
        },
        {
          "indexed": false,
          "internalType": "bool",
          "name": "approved",
          "type": "bool"
        }
      ],
      "name": "ApprovalForAll",
      "type": "event"
    },
    {
      "anonymous": false,
      "inputs": [
        {
          "indexed": false,
          "internalType": "uint8",
          "name": "version",
          "type": "uint8"
        }
      ],
      "name": "Initialized",
      "type": "event"
    },
    {
      "anonymous": false,
      "inputs": [
        {
          "indexed": true,
          "internalType": "address",
          "name": "from",
          "type": "address"
        },
        {
          "indexed": true,
          "internalType": "address",
          "name": "to",
          "type": "address"
        },
        {
          "indexed": true,
          "internalType": "uint256",
          "name": "tokenId",
          "type": "uint256"
        }
      ],
      "name": "Transfer",
      "type": "event"
    },
    {
      "inputs": [
        {
          "internalType": "address",
          "name": "to",
          "type": "address"
        },
        {
          "internalType": "uint256",
          "name": "tokenId",
          "type": "uint256"
        }
      ],
      "name": "approve",
      "outputs": [],
      "stateMutability": "nonpayable",
      "type": "function"
    },
    {
      "inputs": [
        {
          "internalType": "address",
          "name": "owner",
          "type": "address"
        }
      ],
      "name": "balanceOf",
      "outputs": [
        {
          "internalType": "uint256",
          "name": "",
          "type": "uint256"
        }
      ],
      "stateMutability": "view",
      "type": "function"
    },
    {
      "inputs": [
        {
          "internalType": "uint256",
          "name": "tokenId",
          "type": "uint256"
        }
      ],
      "name": "getApproved",
      "outputs": [
        {
          "internalType": "address",
          "name": "",
          "type": "address"
        }
      ],
      "stateMutability": "view",
      "type": "function"
    },
    {
      "inputs": [],
      "name": "index",
      "outputs": [
        {
          "internalType": "uint256",
          "name": "",
          "type": "uint256"
        }
      ],
      "stateMutability": "view",
      "type": "function"
    },
    {
      "inputs": [
        {
          "internalType": "address",
          "name": "owner",
          "type": "address"
        },
        {
          "internalType": "address",
          "name": "operator",
          "type": "address"
        }
      ],
      "name": "isApprovedForAll",
      "outputs": [
        {
          "internalType": "bool",
          "name": "",
          "type": "bool"
        }
      ],
      "stateMutability": "view",
      "type": "function"
    },
    {
      "inputs": [],
      "name": "name",
      "outputs": [
        {
          "internalType": "string",
          "name": "",
          "type": "string"
        }
      ],
      "stateMutability": "view",
      "type": "function"
    },
    {
      "inputs": [
        {
          "internalType": "uint256",
          "name": "tokenId",
          "type": "uint256"
        }
      ],
      "name": "ownerOf",
      "outputs": [
        {
          "internalType": "address",
          "name": "",
          "type": "address"
        }
      ],
      "stateMutability": "view",
      "type": "function"
    },
    {
      "inputs": [
        {
          "internalType": "address",
          "name": "from",
          "type": "address"
        },
        {
          "internalType": "address",
          "name": "to",
          "type": "address"
        },
        {
          "internalType": "uint256",
          "name": "tokenId",
          "type": "uint256"
        }
      ],
      "name": "safeTransferFrom",
      "outputs": [],
      "stateMutability": "nonpayable",
      "type": "function"
    },
    {
      "inputs": [
        {
          "internalType": "address",
          "name": "from",
          "type": "address"
        },
        {
          "internalType": "address",
          "name": "to",
          "type": "address"
        },
        {
          "internalType": "uint256",
          "name": "tokenId",
          "type": "uint256"
        },
        {
          "internalType": "bytes",
          "name": "data",
          "type": "bytes"
        }
      ],
      "name": "safeTransferFrom",
      "outputs": [],
      "stateMutability": "nonpayable",
      "type": "function"
    },
    {
      "inputs": [
        {
          "internalType": "address",
          "name": "operator",
          "type": "address"
        },
        {
          "internalType": "bool",
          "name": "approved",
          "type": "bool"
        }
      ],
      "name": "setApprovalForAll",
      "outputs": [],
      "stateMutability": "nonpayable",
      "type": "function"
    },
    {
      "inputs": [
        {
          "internalType": "bytes4",
          "name": "interfaceId",
          "type": "bytes4"
        }
      ],
      "name": "supportsInterface",
      "outputs": [
        {
          "internalType": "bool",
          "name": "",
          "type": "bool"
        }
      ],
      "stateMutability": "view",
      "type": "function"
    },
    {
      "inputs": [],
      "name": "symbol",
      "outputs": [
        {
          "internalType": "string",
          "name": "",
          "type": "string"
        }
      ],
      "stateMutability": "view",
      "type": "function"
    },
    {
      "inputs": [
        {
          "internalType": "uint256",
          "name": "tokenId",
          "type": "uint256"
        }
      ],
      "name": "tokenURI",
      "outputs": [
        {
          "internalType": "string",
          "name": "",
          "type": "string"
        }
      ],
      "stateMutability": "view",
      "type": "function"
    },
    {
      "inputs": [
        {
          "internalType": "address",
          "name": "from",
          "type": "address"
        },
        {
          "internalType": "address",
          "name": "to",
          "type": "address"
        },
        {
          "internalType": "uint256",
          "name": "tokenId",
          "type": "uint256"
        }
      ],
      "name": "transferFrom",
      "outputs": [],
      "stateMutability": "nonpayable",
      "type": "function"
    }
  ],
  "bytecode": {
    "object": "0x608060405234801561001057600080fd5b506113c1806100206000396000f3fe608060405234801561001057600080fd5b50600436106100ea5760003560e01c80636352211e1161008c578063a22cb46511610066578063a22cb465146101d7578063b88d4fde146101ea578063c87b56dd146101fd578063e985e9c51461021057600080fd5b80636352211e146101a957806370a08231146101bc57806395d89b41146101cf57600080fd5b8063095ea7b3116100c8578063095ea7b31461015757806323b872dd1461016c5780632986c0e51461017f57806342842e0e1461019657600080fd5b806301ffc9a7146100ef57806306fdde0314610117578063081812fc1461012c575b600080fd5b6101026100fd366004610edf565b610223565b60405190151581526020015b60405180910390f35b61011f610275565b60405161010e9190610f4c565b61013f61013a366004610f5f565b610307565b6040516001600160a01b03909116815260200161010e565b61016a610165366004610f94565b61032e565b005b61016a61017a366004610fbe565b610448565b610188606b5481565b60405190815260200161010e565b61016a6101a4366004610fbe565b610479565b61013f6101b7366004610f5f565b610494565b6101886101ca366004610ffa565b6104f4565b61011f61057a565b61016a6101e5366004611015565b610589565b61016a6101f8366004611067565b610598565b61011f61020b366004610f5f565b6105d0565b61010261021e366004611143565b610644565b60006001600160e01b031982166380ac58cd60e01b148061025457506001600160e01b03198216635b5e139f60e01b145b8061026f57506301ffc9a760e01b6001600160e01b03198316145b92915050565b60606065805461028490611176565b80601f01602080910402602001604051908101604052809291908181526020018280546102b090611176565b80156102fd5780601f106102d2576101008083540402835291602001916102fd565b820191906000526020600020905b8154815290600101906020018083116102e057829003601f168201915b5050505050905090565b600061031282610672565b506000908152606960205260409020546001600160a01b031690565b600061033982610494565b9050806001600160a01b0316836001600160a01b0316036103ab5760405162461bcd60e51b815260206004820152602160248201527f4552433732313a20617070726f76616c20746f2063757272656e74206f776e656044820152603960f91b60648201526084015b60405180910390fd5b336001600160a01b03821614806103c757506103c78133610644565b6104395760405162461bcd60e51b815260206004820152603d60248201527f4552433732313a20617070726f76652063616c6c6572206973206e6f7420746f60448201527f6b656e206f776e6572206f7220617070726f76656420666f7220616c6c00000060648201526084016103a2565b61044383836106d4565b505050565b6104523382610742565b61046e5760405162461bcd60e51b81526004016103a2906111b0565b6104438383836107a1565b61044383838360405180602001604052806000815250610598565b6000818152606760205260408120546001600160a01b03168061026f5760405162461bcd60e51b8152602060048201526018602482015277115490cdcc8c4e881a5b9d985b1a59081d1bdad95b88125160421b60448201526064016103a2565b60006001600160a01b03821661055e5760405162461bcd60e51b815260206004820152602960248201527f4552433732313a2061646472657373207a65726f206973206e6f7420612076616044820152683634b21037bbb732b960b91b60648201526084016103a2565b506001600160a01b031660009081526068602052604090205490565b60606066805461028490611176565b610594338383610910565b5050565b6105a23383610742565b6105be5760405162461bcd60e51b81526004016103a2906111b0565b6105ca848484846109de565b50505050565b60606105db82610672565b60006105f260408051602081019091526000815290565b90506000815111610612576040518060200160405280600081525061063d565b8061061c84610a11565b60405160200161062d9291906111fd565b6040516020818303038152906040525b9392505050565b6001600160a01b039182166000908152606a6020908152604080832093909416825291909152205460ff1690565b6000818152606760205260409020546001600160a01b03166106d15760405162461bcd60e51b8152602060048201526018602482015277115490cdcc8c4e881a5b9d985b1a59081d1bdad95b88125160421b60448201526064016103a2565b50565b600081815260696020526040902080546001600160a01b0319166001600160a01b038416908117909155819061070982610494565b6001600160a01b03167f8c5be1e5ebec7d5bd14f71427d1e84f3dd0314c0f7b2291e5b200ac8c7c3b92560405160405180910390a45050565b60008061074e83610494565b9050806001600160a01b0316846001600160a01b0316148061077557506107758185610644565b806107995750836001600160a01b031661078e84610307565b6001600160a01b0316145b949350505050565b826001600160a01b03166107b482610494565b6001600160a01b0316146107da5760405162461bcd60e51b81526004016103a29061122c565b6001600160a01b03821661083c5760405162461bcd60e51b8152602060048201526024808201527f4552433732313a207472616e7366657220746f20746865207a65726f206164646044820152637265737360e01b60648201526084016103a2565b610847838383610aa4565b826001600160a01b031661085a82610494565b6001600160a01b0316146108805760405162461bcd60e51b81526004016103a29061122c565b600081815260696020908152604080832080546001600160a01b03199081169091556001600160a01b0387811680865260688552838620805460001901905590871680865283862080546001019055868652606790945282852080549092168417909155905184937fddf252ad1be2c89b69c2b068fc378daa952ba7f163c4a11628f55a4df523b3ef91a4505050565b816001600160a01b0316836001600160a01b0316036109715760405162461bcd60e51b815260206004820152601960248201527f4552433732313a20617070726f766520746f2063616c6c65720000000000000060448201526064016103a2565b6001600160a01b038381166000818152606a6020908152604080832094871680845294825291829020805460ff191686151590811790915591519182527f17307eab39ab6107e8899845ad3d59bd9653f200f220920489ca2b5937696c31910160405180910390a3505050565b6109e98484846107a1565b6109f584848484610b3a565b6105ca5760405162461bcd60e51b81526004016103a290611271565b60606000610a1e83610c3b565b600101905060008167ffffffffffffffff811115610a3e57610a3e611051565b6040519080825280601f01601f191660200182016040528015610a68576020820181803683370190505b5090508181016020015b600019016f181899199a1a9b1b9c1cb0b131b232b360811b600a86061a8153600a8504945084610a7257509392505050565b816001600160a01b0316836001600160a01b031614158015610ace57506001600160a01b03831615155b15610add57610add8382610d13565b826001600160a01b0316826001600160a01b031614158015610b0757506001600160a01b03821615155b15610443576001600160a01b03919091166000908152606c60209081526040822080546001810182559083529120015550565b60006001600160a01b0384163b15610c3057604051630a85bd0160e11b81526001600160a01b0385169063150b7a0290610b7e9033908990889088906004016112c3565b6020604051808303816000875af1925050508015610bb9575060408051601f3d908101601f19168201909252610bb691810190611300565b60015b610c16573d808015610be7576040519150601f19603f3d011682016040523d82523d6000602084013e610bec565b606091505b508051600003610c0e5760405162461bcd60e51b81526004016103a290611271565b805181602001fd5b6001600160e01b031916630a85bd0160e11b149050610799565b506001949350505050565b60008072184f03e93ff9f4daa797ed6e38ed64bf6a1f0160401b8310610c7a5772184f03e93ff9f4daa797ed6e38ed64bf6a1f0160401b830492506040015b6d04ee2d6d415b85acef81000000008310610ca6576d04ee2d6d415b85acef8100000000830492506020015b662386f26fc100008310610cc457662386f26fc10000830492506010015b6305f5e1008310610cdc576305f5e100830492506008015b6127108310610cf057612710830492506004015b60648310610d02576064830492506002015b600a831061026f5760010192915050565b6001600160a01b0382166000908152606c6020908152604080832080548251818502810185019093528083529192909190830182828015610d7357602002820191906000526020600020905b815481526020019060010190808311610d5f575b505083519394506000925050505b81811015610e625783838281518110610d9c57610d9c61131d565b602002602001015103610e525782610db5600184611349565b81518110610dc557610dc561131d565b6020026020010151838281518110610ddf57610ddf61131d565b6020908102919091018101919091526001600160a01b0386166000908152606c8252604090208451610e1392860190610e69565b506001600160a01b0385166000908152606c60205260409020805480610e3b57610e3b61135c565b600190038181906000526020600020016000905590555b610e5b81611372565b9050610d81565b5050505050565b828054828255906000526020600020908101928215610ea4579160200282015b82811115610ea4578251825591602001919060010190610e89565b50610eb0929150610eb4565b5090565b5b80821115610eb05760008155600101610eb5565b6001600160e01b0319811681146106d157600080fd5b600060208284031215610ef157600080fd5b813561063d81610ec9565b60005b83811015610f17578181015183820152602001610eff565b50506000910152565b60008151808452610f38816020860160208601610efc565b601f01601f19169290920160200192915050565b60208152600061063d6020830184610f20565b600060208284031215610f7157600080fd5b5035919050565b80356001600160a01b0381168114610f8f57600080fd5b919050565b60008060408385031215610fa757600080fd5b610fb083610f78565b946020939093013593505050565b600080600060608486031215610fd357600080fd5b610fdc84610f78565b9250610fea60208501610f78565b9150604084013590509250925092565b60006020828403121561100c57600080fd5b61063d82610f78565b6000806040838503121561102857600080fd5b61103183610f78565b91506020830135801515811461104657600080fd5b809150509250929050565b634e487b7160e01b600052604160045260246000fd5b6000806000806080858703121561107d57600080fd5b61108685610f78565b935061109460208601610f78565b925060408501359150606085013567ffffffffffffffff808211156110b857600080fd5b818701915087601f8301126110cc57600080fd5b8135818111156110de576110de611051565b604051601f8201601f19908116603f0116810190838211818310171561110657611106611051565b816040528281528a602084870101111561111f57600080fd5b82602086016020830137600060208483010152809550505050505092959194509250565b6000806040838503121561115657600080fd5b61115f83610f78565b915061116d60208401610f78565b90509250929050565b600181811c9082168061118a57607f821691505b6020821081036111aa57634e487b7160e01b600052602260045260246000fd5b50919050565b6020808252602d908201527f4552433732313a2063616c6c6572206973206e6f7420746f6b656e206f776e6560408201526c1c881bdc88185c1c1c9bdd9959609a1b606082015260800190565b6000835161120f818460208801610efc565b835190830190611223818360208801610efc565b01949350505050565b60208082526025908201527f4552433732313a207472616e736665722066726f6d20696e636f72726563742060408201526437bbb732b960d91b606082015260800190565b60208082526032908201527f4552433732313a207472616e7366657220746f206e6f6e20455243373231526560408201527131b2b4bb32b91034b6b83632b6b2b73a32b960711b606082015260800190565b6001600160a01b03858116825284166020820152604081018390526080606082018190526000906112f690830184610f20565b9695505050505050565b60006020828403121561131257600080fd5b815161063d81610ec9565b634e487b7160e01b600052603260045260246000fd5b634e487b7160e01b600052601160045260246000fd5b8181038181111561026f5761026f611333565b634e487b7160e01b600052603160045260246000fd5b60006001820161138457611384611333565b506001019056fea26469706673582212204a24cb2a2d16e4e13544c898f85002bc4894905184a7ee98dc55cc9eef6049f864736f6c63430008110033",
    "linkReferences": {}
  },
  "methodIdentifiers": {
    "approve(address,uint256)": "095ea7b3",
    "balanceOf(address)": "70a08231",
    "getApproved(uint256)": "081812fc",
    "index()": "2986c0e5",
    "isApprovedForAll(address,address)": "e985e9c5",
    "name()": "06fdde03",
    "ownerOf(uint256)": "6352211e",
    "safeTransferFrom(address,address,uint256)": "42842e0e",
    "safeTransferFrom(address,address,uint256,bytes)": "b88d4fde",
    "setApprovalForAll(address,bool)": "a22cb465",
    "supportsInterface(bytes4)": "01ffc9a7",
    "symbol()": "95d89b41",
    "tokenURI(uint256)": "c87b56dd",
    "transferFrom(address,address,uint256)": "23b872dd"
  },
  "id": 59
}