{
  "abi": [
    {
      "anonymous": false,
      "inputs": [
        {
          "indexed": true,
          "internalType": "uint256",
          "name": "pid",
          "type": "uint256"
        },
        {
          "indexed": false,
          "internalType": "uint256",
          "name": "oldAmount",
          "type": "uint256"
        },
        {
          "indexed": false,
          "internalType": "uint256",
          "name": "newAmount",
          "type": "uint256"
        }
      ],
      "name": "BountyBalanceChanged",
      "type": "event"
    },
    {
      "anonymous": false,
      "inputs": [
        {
          "indexed": true,
          "internalType": "uint256",
          "name": "pid",
          "type": "uint256"
        },
        {
          "indexed": false,
          "internalType": "uint256",
          "name": "amount",
          "type": "uint256"
        }
      ],
      "name": "WithdrawalOrUnstakeScheduled",
      "type": "event"
    },
    {
      "inputs": [
        {
          "internalType": "uint256",
          "name": "_pid",
          "type": "uint256"
        }
      ],
      "name": "compoundYieldForPid",
      "outputs": [],
      "stateMutability": "nonpayable",
      "type": "function"
    },
    {
      "inputs": [
        {
          "internalType": "uint256",
          "name": "_pid",
          "type": "uint256"
        },
        {
          "internalType": "uint256",
          "name": "_deposit",
          "type": "uint256"
        },
        {
          "internalType": "string",
          "name": "_strategyName",
          "type": "string"
        }
      ],
      "name": "makeProjectDeposit",
      "outputs": [],
      "stateMutability": "nonpayable",
      "type": "function"
    },
    {
      "inputs": [
        {
          "internalType": "uint256",
          "name": "_pid",
          "type": "uint256"
        },
        {
          "internalType": "uint256",
          "name": "_amount",
          "type": "uint256"
        }
      ],
      "name": "projectDepositWithdrawal",
      "outputs": [
        {
          "internalType": "bool",
          "name": "",
          "type": "bool"
        }
      ],
      "stateMutability": "nonpayable",
      "type": "function"
    },
    {
      "inputs": [
        {
          "internalType": "address",
          "name": "_token",
          "type": "address"
        },
        {
          "internalType": "uint256",
          "name": "_amount",
          "type": "uint256"
        }
      ],
      "name": "receiveStrategyYield",
      "outputs": [],
      "stateMutability": "nonpayable",
      "type": "function"
    },
    {
      "inputs": [
        {
          "internalType": "uint256",
          "name": "_pid",
          "type": "uint256"
        },
        {
          "internalType": "uint256",
          "name": "_amount",
          "type": "uint256"
        }
      ],
      "name": "scheduleProjectDepositWithdrawal",
      "outputs": [
        {
          "internalType": "bool",
          "name": "",
          "type": "bool"
        }
      ],
      "stateMutability": "nonpayable",
      "type": "function"
    },
    {
      "inputs": [
        {
          "internalType": "uint256",
          "name": "_pid",
          "type": "uint256"
        },
        {
          "internalType": "uint256",
          "name": "_poolCap",
          "type": "uint256"
        },
        {
          "internalType": "uint16",
          "name": "_apy",
          "type": "uint16"
        },
        {
          "internalType": "uint256",
          "name": "_deposit",
          "type": "uint256"
        },
        {
          "internalType": "string",
          "name": "_strategyName",
          "type": "string"
        }
      ],
      "name": "setAPYandPoolCapAndDeposit",
      "outputs": [],
      "stateMutability": "nonpayable",
      "type": "function"
    },
    {
      "inputs": [
        {
          "internalType": "uint256",
          "name": "_pid",
          "type": "uint256"
        },
        {
          "internalType": "address",
          "name": "_projectWallet",
          "type": "address"
        }
      ],
      "name": "updateProjectWalletAddress",
      "outputs": [],
      "stateMutability": "nonpayable",
      "type": "function"
    },
    {
      "inputs": [
        {
          "internalType": "uint256",
          "name": "_pid",
          "type": "uint256"
        }
      ],
      "name": "viewBountyBalance",
      "outputs": [
        {
          "internalType": "uint256",
          "name": "",
          "type": "uint256"
        }
      ],
      "stateMutability": "view",
      "type": "function"
    },
    {
      "inputs": [
        {
          "internalType": "uint256",
          "name": "_pid",
          "type": "uint256"
        }
      ],
      "name": "windDownBounty",
      "outputs": [
        {
          "internalType": "bool",
          "name": "",
          "type": "bool"
        }
      ],
      "stateMutability": "nonpayable",
      "type": "function"
    },
    {
      "inputs": [
        {
          "internalType": "uint256",
          "name": "_pid",
          "type": "uint256"
        }
      ],
      "name": "withdrawProjectYield",
      "outputs": [
        {
          "internalType": "uint256",
          "name": "returnedAmount",
          "type": "uint256"
        }
      ],
      "stateMutability": "nonpayable",
      "type": "function"
    }
  ],
  "bytecode": {
    "object": "0x608060405234801561001057600080fd5b50612a7f806100206000396000f3fe608060405234801561001057600080fd5b506004361061009e5760003560e01c8063995974c411610066578063995974c414610127578063ae07f9481461013a578063bb7019c11461014d578063db53e8b514610160578063e78ea3df1461017357600080fd5b80631aebcecb146100a357806330ca0794146100b85780635669cbef146100cb5780636ac6d812146100f3578063983c1ce014610114575b600080fd5b6100b66100b13660046124f5565b610186565b005b6100b66100c63660046125c4565b610349565b6100de6100d9366004612638565b610793565b60405190151581526020015b60405180910390f35b61010661010136600461265a565b6108ff565b6040519081526020016100ea565b6100de610122366004612638565b610bba565b6100b6610135366004612673565b610dd0565b6100b66101483660046126a3565b611136565b6100de61015b36600461265a565b611288565b61010661016e36600461265a565b6115e0565b6100b661018136600461265a565b6119ae565b61019b6001600160a01b038316333084611db6565b5033600090815260176020526040812054908190036101e7576001600160a01b038316600090815260126020526040812080548492906101dc908490612709565b909155506103449050565b600080600073__$295e309c8a6ffd54f96e1a7c7b04118a38$__63fc76fff3866000600d01878154811061021d5761021d61271c565b9060005260206000209060180201601201600201546000600d0188815481106102485761024861271c565b9060005260206000209060180201601201600101546000600d0189815481106102735761027361271c565b600091825260209091206018909102016012015460405160e086901b6001600160e01b03191681526004810194909452602484019290925260448301526001600160a01b03166064820152608401606060405180830381865af41580156102de573d6000803e3d6000fd5b505050506040513d601f19601f820116820180604052508101906103029190612732565b925092509250610313818784611e30565b6001600160a01b0386166000908152601260205260408120805485929061033b908490612709565b90915550505050505b505050565b600080516020612a2a83398151915254600181146103825760405162461bcd60e51b81526004016103799061276b565b60405180910390fd5b6002600080516020612a2a83398151915255600d80547fb3489dd2b6aceffcd73eb3bc338c0fb7cf41e877855ec204580612eca103a15d91600091899081106103cd576103cd61271c565b60009182526020909120601890910201601781015490915060ff161580156103f757506003810154155b6104435760405162461bcd60e51b815260206004820152601860248201527f506f6f6c20616c726561647920696e697469616c697a656400000000000000006044820152606401610379565b60008661ffff1611801561045d57506127108661ffff1611155b61049c5760405162461bcd60e51b815260206004820152601060248201526f415059206f7574206f662072616e676560801b6044820152606401610379565b80546104b390600160a01b900460ff16600a61286b565b6104bf906103e861287a565b87101580156104f1575080546104e090600160a01b900460ff16600a61286b565b6104ed906298968061287a565b8711155b6105355760405162461bcd60e51b8152602060048201526015602482015274506f6f6c20636170206f7574206f662072616e676560581b6044820152606401610379565b60018101546001600160a01b031633146105615760405162461bcd60e51b815260040161037990612891565b6040516341b778fd60e11b81526004810188905261ffff8716602482015260009073__$295e309c8a6ffd54f96e1a7c7b04118a38$__9063836ef1fa90604401602060405180830381865af41580156105be573d6000803e3d6000fd5b505050506040513d601f19601f820116820180604052508101906105e291906128b9565b9050600083600101548460050154836105fb919061287a565b61060591906128d2565b905060006106128b6108ff565b90506106363330610623868c612709565b87546001600160a01b0316929190611db6565b508784600601600001600082825461064e9190612709565b9091555050600384018a9055835461ffff60a81b1916600160a81b61ffff8b169081029190911785556040516334d5118560e01b8152600481019190915273__$295e309c8a6ffd54f96e1a7c7b04118a38$__906334d5118590602401602060405180830381865af41580156106c8573d6000803e3d6000fd5b505050506040513d601f19601f820116820180604052508101906106ec91906128b9565b600585015560178401805460ff191660011790556008840183905561071182846128f4565b600985015586511561072a576107288b888a611e80565b505b60006107358c6108ff565b60408051848152602081018390529192508d917fa3ea4fb8dee4d414198cb197af6eae4fe483c1a0b849dc50e53b9bf1a60e2166910160405180910390a25050505050506001600080516020612a2a83398151915255505050505050565b6000807fb3489dd2b6aceffcd73eb3bc338c0fb7cf41e877855ec204580612eca103a15d9050600080600d0185815481106107d0576107d061271c565b9060005260206000209060180201905083816006016001015482600601600001546107fb9190612709565b10156108495760405162461bcd60e51b815260206004820152601a60248201527f416d6f756e7420626967676572207468616e206465706f7369740000000000006044820152606401610379565b60018101546001600160a01b031633146108755760405162461bcd60e51b815260040161037990612891565b60048201546108849042612709565b600a82015560048201546108989042612709565b6108a5906203f480612709565b600b820155600c8101849055600d8101805460ff1916905560405184815285907fb3b9c925de3673837b40c6b4d4463a8f88dc821cd27e07f1ff6bf6abf96413a59060200160405180910390a26001925050505b92915050565b6000806000600d0183815481106109185761091861271c565b6000918252602090912060408051610220810190915260189092020180546001600160a01b038082166101208501908152600160a01b830460ff16610140860152600160a81b90920461ffff1661016085015260018301541661018084015260028201805484929184916101a08501919061099290612907565b80601f01602080910402602001604051908101604052809291908181526020018280546109be90612907565b8015610a0b5780601f106109e057610100808354040283529160200191610a0b565b820191906000526020600020905b8154815290600101906020018083116109ee57829003601f168201915b505050918352505060038201546020808301919091526004830154604080840191909152600590930154606092830152928452815180830183526006860154815260078601548185015284840152815180830183526008860154815260098601548185015284830152815160808082018452600a8701548252600b87015482860152600c87015482850152600d87015460ff161515828401528583019190915282518082018452600e870180548252600f88015482870152601088015482860152601188018054865181890281018901909752808752939097019691959094938601939290830182828015610b1f57602002820191906000526020600020905b815481526020019060010190808311610b0b575b505050919092525050508152604080516060808201835260128501546001600160a01b0316825260138501546020838101919091526014860154838501528085019290925260158501549284019290925260168401549183019190915260179092015460ff16151560809091015281810151908101519051919250610ba391612709565b815160c00151610bb39190612709565b9392505050565b600080516020612a2a8339815191525460009060018114610bed5760405162461bcd60e51b81526004016103799061276b565b6002600080516020612a2a83398151915255600080600d018581548110610c1657610c1661271c565b6000918252602090912060189091020160018101549091506001600160a01b03163314610c555760405162461bcd60e51b815260040161037990612891565b600a81015442118015610c6b5750600b81015442105b8015610c7c5750600d81015460ff16155b8015610c8c5750600c8101548411155b8015610c9b5750600a81015415155b610cf95760405162461bcd60e51b815260206004820152602960248201527f54696d656c6f636b206e6f7420736574206f72206e6f7420636f6d706c6574656044820152686420696e2074696d6560b81b6064820152608401610379565b600d8101805460ff191660011790556006810154841115610d1f57610d1d85611fbe565b505b6000610d2a866108ff565b905084826006016000016000828254610d4391906128f4565b909155505060018201548254610d66916001600160a01b03918216911687612123565b506000610d72876108ff565b604080518481526020810183905291925088917fa3ea4fb8dee4d414198cb197af6eae4fe483c1a0b849dc50e53b9bf1a60e2166910160405180910390a2600194505050506001600080516020612a2a833981519152555092915050565b81600080600d018281548110610de857610de861271c565b6000918252602090912060408051610220810190915260189092020180546001600160a01b038082166101208501908152600160a01b830460ff16610140860152600160a81b90920461ffff1661016085015260018301541661018084015260028201805484929184916101a085019190610e6290612907565b80601f0160208091040260200160405190810160405280929190818152602001828054610e8e90612907565b8015610edb5780601f10610eb057610100808354040283529160200191610edb565b820191906000526020600020905b815481529060010190602001808311610ebe57829003601f168201915b505050918352505060038201546020808301919091526004830154604080840191909152600590930154606092830152928452815180830183526006860154815260078601548185015284840152815180830183526008860154815260098601548185015284830152815160808082018452600a8701548252600b87015482860152600c87015482850152600d87015460ff161515828401528583019190915282518082018452600e870180548252600f88015482870152601088015482860152601188018054865181890281018901909752808752939097019691959094938601939290830182828015610fef57602002820191906000526020600020905b815481526020019060010190808311610fdb575b505050919092525050508152604080516060808201835260128501546001600160a01b039081168352601386015460208085019190915260148701548486015285019290925260158501549284019290925260168401548284015260179093015460ff161515608090920191909152825101519192501633148061107d57506007546001600160a01b031633145b6110995760405162461bcd60e51b815260040161037990612891565b6001600160a01b0383166110e85760405162461bcd60e51b8152602060048201526016602482015275496e76616c69642077616c6c6574206164647265737360501b6044820152606401610379565b826000600d0185815481106110ff576110ff61271c565b6000918252602090912060189091020160010180546001600160a01b0319166001600160a01b039290921691909117905550505050565b600080516020612a2a83398151915254600181146111665760405162461bcd60e51b81526004016103799061276b565b6002600080516020612a2a83398151915255600080600d01858154811061118f5761118f61271c565b6000918252602090912060189091020160018101549091506001600160a01b031633146111ce5760405162461bcd60e51b815260040161037990612891565b60006111d9866108ff565b82549091506111f3906001600160a01b0316333088611db6565b508482600601600001600082825461120b9190612709565b909155505083511561122457611222868587611e80565b505b600061122f876108ff565b604080518481526020810183905291925088917fa3ea4fb8dee4d414198cb197af6eae4fe483c1a0b849dc50e53b9bf1a60e2166910160405180910390a25050506001600080516020612a2a8339815191525550505050565b600081600080600d0182815481106112a2576112a261271c565b6000918252602090912060408051610220810190915260189092020180546001600160a01b038082166101208501908152600160a01b830460ff16610140860152600160a81b90920461ffff1661016085015260018301541661018084015260028201805484929184916101a08501919061131c90612907565b80601f016020809104026020016040519081016040528092919081815260200182805461134890612907565b80156113955780601f1061136a57610100808354040283529160200191611395565b820191906000526020600020905b81548152906001019060200180831161137857829003601f168201915b505050918352505060038201546020808301919091526004830154604080840191909152600590930154606092830152928452815180830183526006860154815260078601548185015284840152815180830183526008860154815260098601548185015284830152815160808082018452600a8701548252600b87015482860152600c87015482850152600d87015460ff161515828401528583019190915282518082018452600e870180548252600f880154828701526010880154828601526011880180548651818902810189019097528087529390970196919590949386019392908301828280156114a957602002820191906000526020600020905b815481526020019060010190808311611495575b505050919092525050508152604080516060808201835260128501546001600160a01b039081168352601386015460208085019190915260148701548486015285019290925260158501549284019290925260168401548284015260179093015460ff161515608090920191909152825101519192501633148061153757506007546001600160a01b031633145b6115535760405162461bcd60e51b815260040161037990612891565b600080600d01858154811061156a5761156a61271c565b60009182526020909120601890910201601781015490915060ff166115c35760405162461bcd60e51b815260206004820152600f60248201526e506f6f6c206e6f742061637469766560881b6044820152606401610379565b60178101805460ff19169055426016909101555060019392505050565b600080516020612a2a83398151915254600090600181146116135760405162461bcd60e51b81526004016103799061276b565b6002600080516020612a2a83398151915255600080600d01848154811061163c5761163c61271c565b6000918252602090912060408051610220810190915260189092020180546001600160a01b038082166101208501908152600160a01b830460ff16610140860152600160a81b90920461ffff1661016085015260018301541661018084015260028201805484929184916101a0850191906116b690612907565b80601f01602080910402602001604051908101604052809291908181526020018280546116e290612907565b801561172f5780601f106117045761010080835404028352916020019161172f565b820191906000526020600020905b81548152906001019060200180831161171257829003601f168201915b505050918352505060038201546020808301919091526004830154604080840191909152600590930154606092830152928452815180830183526006860154815260078601548185015284840152815180830183526008860154815260098601548185015284830152815160808082018452600a8701548252600b87015482860152600c87015482850152600d87015460ff161515828401528583019190915282518082018452600e870180548252600f8801548287015260108801548286015260118801805486518189028101890190975280875293909701969195909493860193929083018282801561184357602002820191906000526020600020905b81548152602001906001019080831161182f575b505050919092525050508152604080516060808201835260128501546001600160a01b039081168352601386015460208085019190915260148701548486015285019290925260158501549284019290925260168401548284015260179093015460ff161515608090920191909152825101519192501633146118d85760405162461bcd60e51b815260040161037990612891565b60008481526016602052604090205480156119945760008581526015602090815260408083208484528252808320548151633941ea2960e21b815291516001600160a01b0390911693849363e507a8a49360048082019492939183900301908290875af115801561194d573d6000803e3d6000fd5b505050506040513d601f19601f8201168201806040525081019061197191906128b9565b835160608101519051919650611991916001600160a01b03169087612123565b50505b50506001600080516020612a2a8339815191525550919050565b80600080600d0182815481106119c6576119c661271c565b6000918252602090912060408051610220810190915260189092020180546001600160a01b038082166101208501908152600160a01b830460ff16610140860152600160a81b90920461ffff1661016085015260018301541661018084015260028201805484929184916101a085019190611a4090612907565b80601f0160208091040260200160405190810160405280929190818152602001828054611a6c90612907565b8015611ab95780601f10611a8e57610100808354040283529160200191611ab9565b820191906000526020600020905b815481529060010190602001808311611a9c57829003601f168201915b505050918352505060038201546020808301919091526004830154604080840191909152600590930154606092830152928452815180830183526006860154815260078601548185015284840152815180830183526008860154815260098601548185015284830152815160808082018452600a8701548252600b87015482860152600c87015482850152600d87015460ff161515828401528583019190915282518082018452600e870180548252600f88015482870152601088015482860152601188018054865181890281018901909752808752939097019691959094938601939290830182828015611bcd57602002820191906000526020600020905b815481526020019060010190808311611bb9575b505050919092525050508152604080516060808201835260128501546001600160a01b039081168352601386015460208085019190915260148701548486015285019290925260158501549284019290925260168401548284015260179093015460ff1615156080909201919091528251015191925016331480611c5b57506007546001600160a01b031633145b611c775760405162461bcd60e51b815260040161037990612891565b600080516020612a2a8339815191525460018114611ca75760405162461bcd60e51b81526004016103799061276b565b6002600080516020612a2a8339815191525560008481526016602090815260408083205460158352818420818552909252909120546001600160a01b03168015611d9c576000816001600160a01b031663f69e20466040518163ffffffff1660e01b81526004016020604051808303816000875af1158015611d2d573d6000803e3d6000fd5b505050506040513d601f19601f82011682018060405250810190611d5191906128b9565b9050611d5e6001826128f4565b600d805489908110611d7257611d7261271c565b90600052602060002090601802016006016001016000828254611d959190612709565b9091555050505b50506001600080516020612a2a8339815191525550505050565b6040516001600160a01b0380851660248301528316604482015260648101829052600090611e249086906323b872dd60e01b906084015b60408051601f198184030181529190526020810180516001600160e01b03166001600160e01b031990931692909217909152612160565b5060015b949350505050565b6001600160a01b03831615610344576001600160a01b03808416600090815260136020908152604080832093861683529290529081208054839290611e76908490612709565b9091555050505050565b6000806000600d018581548110611e9957611e9961271c565b90600052602060002090601802019050600084604051602001611ebc9190612991565b60408051601f19818403018152918152815160209283012060008981526016909352912054909150808214611fb4576000611ef688611fbe565b90506000611f048989612232565b90506001600160a01b03811615611fb15760068501805460009091558190611f2d6001826128f4565b60078801558654611f48906001600160a01b03168483612123565b50816001600160a01b0316630b5090076040518163ffffffff1660e01b81526004016020604051808303816000875af1158015611f89573d6000803e3d6000fd5b505050506040513d601f19601f82011682018060405250810190611fad91906128b9565b5050505b50505b5050509392505050565b6000806000600d018381548110611fd757611fd761271c565b600091825260208083208684526016909152604083208054908490556018909202019250801561211b5760008581526015602090815260408083208484528252808320548151637f1f087360e01b815291516001600160a01b0390911693928492637f1f08739260048083019392829003018187875af115801561205f573d6000803e3d6000fd5b505050506040513d601f19601f8201168201806040525081019061208391906128b9565b6040516348b1933560e01b8152600481018290529091506001600160a01b038316906348b19335906024016020604051808303816000875af11580156120cd573d6000803e3d6000fd5b505050506040513d601f19601f820116820180604052508101906120f191906128b9565b6000600787018190556006870180549296508692909190612113908490612709565b909155505050505b509392505050565b6040516001600160a01b03831660248201526044810182905260009061215690859063a9059cbb60e01b90606401611ded565b5060019392505050565b60006121b5826040518060400160405280602081526020017f5361666545524332303a206c6f772d6c6576656c2063616c6c206661696c6564815250856001600160a01b03166123ba9092919063ffffffff16565b80519091501561034457808060200190518101906121d391906129a4565b6103445760405162461bcd60e51b815260206004820152602a60248201527f5361666545524332303a204552433230206f7065726174696f6e20646964206e6044820152691bdd081cdd58d8d9595960b21b6064820152608401610379565b6000806000836040516020016122489190612991565b60408051601f1981840301815291815281516020928301206000888152601584528281208282529093529120549091506001600160a01b03168061233757601454600d80546001600160a01b039092169163dff968019188918a9081106122b1576122b161271c565b60009182526020909120601890910201546040516001600160e01b031960e085901b1681526122ed92916001600160a01b0316906004016129c6565b6020604051808303816000875af115801561230c573d6000803e3d6000fd5b505050506040513d601f19601f8201168201806040525081019061233091906129f0565b9250612352565b60008681526016602052604090209190915591506108f99050565b6001600160a01b038316156123b0576000868152601560209081526040808320858452825280832080546001600160a01b0319166001600160a01b038816908117909155835260178252808320899055888352601690915290208290555b5090949350505050565b6060611e28848460008585600080866001600160a01b031685876040516123e19190612a0d565b60006040518083038185875af1925050503d806000811461241e576040519150601f19603f3d011682016040523d82523d6000602084013e612423565b606091505b50915091506124348783838761243f565b979650505050505050565b606083156124ae5782516000036124a7576001600160a01b0385163b6124a75760405162461bcd60e51b815260206004820152601d60248201527f416464726573733a2063616c6c20746f206e6f6e2d636f6e74726163740000006044820152606401610379565b5081611e28565b611e2883838151156124c35781518083602001fd5b8060405162461bcd60e51b81526004016103799190612991565b6001600160a01b03811681146124f257600080fd5b50565b6000806040838503121561250857600080fd5b8235612513816124dd565b946020939093013593505050565b634e487b7160e01b600052604160045260246000fd5b600082601f83011261254857600080fd5b813567ffffffffffffffff8082111561256357612563612521565b604051601f8301601f19908116603f0116810190828211818310171561258b5761258b612521565b816040528381528660208588010111156125a457600080fd5b836020870160208301376000602085830101528094505050505092915050565b600080600080600060a086880312156125dc57600080fd5b8535945060208601359350604086013561ffff811681146125fc57600080fd5b925060608601359150608086013567ffffffffffffffff81111561261f57600080fd5b61262b88828901612537565b9150509295509295909350565b6000806040838503121561264b57600080fd5b50508035926020909101359150565b60006020828403121561266c57600080fd5b5035919050565b6000806040838503121561268657600080fd5b823591506020830135612698816124dd565b809150509250929050565b6000806000606084860312156126b857600080fd5b8335925060208401359150604084013567ffffffffffffffff8111156126dd57600080fd5b6126e986828701612537565b9150509250925092565b634e487b7160e01b600052601160045260246000fd5b808201808211156108f9576108f96126f3565b634e487b7160e01b600052603260045260246000fd5b60008060006060848603121561274757600080fd5b83519250602084015191506040840151612760816124dd565b809150509250925092565b602080825260029082015261723160f01b604082015260600190565b600181815b808511156127c25781600019048211156127a8576127a86126f3565b808516156127b557918102915b93841c939080029061278c565b509250929050565b6000826127d9575060016108f9565b816127e6575060006108f9565b81600181146127fc576002811461280657612822565b60019150506108f9565b60ff841115612817576128176126f3565b50506001821b6108f9565b5060208310610133831016604e8410600b8410161715612845575081810a6108f9565b61284f8383612787565b8060001904821115612863576128636126f3565b029392505050565b6000610bb360ff8416836127ca565b80820281158282048414176108f9576108f96126f3565b6020808252600e908201526d139bdd08185d5d1a1bdc9a5e995960921b604082015260600190565b6000602082840312156128cb57600080fd5b5051919050565b6000826128ef57634e487b7160e01b600052601260045260246000fd5b500490565b818103818111156108f9576108f96126f3565b600181811c9082168061291b57607f821691505b60208210810361293b57634e487b7160e01b600052602260045260246000fd5b50919050565b60005b8381101561295c578181015183820152602001612944565b50506000910152565b6000815180845261297d816020860160208601612941565b601f01601f19169290920160200192915050565b602081526000610bb36020830184612965565b6000602082840312156129b657600080fd5b81518015158114610bb357600080fd5b6040815260006129d96040830185612965565b905060018060a01b03831660208301529392505050565b600060208284031215612a0257600080fd5b8151610bb3816124dd565b60008251612a1f818460208701612941565b919091019291505056fe8e94fed44239eb2314ab7a406345e6c5a8f0ccedf3b600de3d004e672c33abf4a26469706673582212208b2791fd29655783a21a5597872ec81631a70e6026ef81a2fb00e3724c0e9ad564736f6c63430008130033",
    "linkReferences": {
      "src/lib/LibSaloon.sol": {
        "LibSaloon": [
          {
            "start": 526,
            "length": 20
          },
          {
            "start": 1444,
            "length": 20
          },
          {
            "start": 1710,
            "length": 20
          }
        ]
      }
    }
  },
  "methodIdentifiers": {
    "compoundYieldForPid(uint256)": "e78ea3df",
    "makeProjectDeposit(uint256,uint256,string)": "ae07f948",
    "projectDepositWithdrawal(uint256,uint256)": "983c1ce0",
    "receiveStrategyYield(address,uint256)": "1aebcecb",
    "scheduleProjectDepositWithdrawal(uint256,uint256)": "5669cbef",
    "setAPYandPoolCapAndDeposit(uint256,uint256,uint16,uint256,string)": "30ca0794",
    "updateProjectWalletAddress(uint256,address)": "995974c4",
    "viewBountyBalance(uint256)": "6ac6d812",
    "windDownBounty(uint256)": "bb7019c1",
    "withdrawProjectYield(uint256)": "db53e8b5"
  },
  "id": 47
}