{
  "abi": [
    {
      "anonymous": false,
      "inputs": [
        {
          "indexed": false,
          "internalType": "uint8",
          "name": "version",
          "type": "uint8"
        }
      ],
      "name": "Initialized",
      "type": "event"
    },
    {
      "anonymous": false,
      "inputs": [
        {
          "indexed": true,
          "internalType": "address",
          "name": "previousOwner",
          "type": "address"
        },
        {
          "indexed": true,
          "internalType": "address",
          "name": "newOwner",
          "type": "address"
        }
      ],
      "name": "OwnershipTransferred",
      "type": "event"
    },
    {
      "inputs": [],
      "name": "VERSION",
      "outputs": [
        {
          "internalType": "uint256",
          "name": "",
          "type": "uint256"
        }
      ],
      "stateMutability": "view",
      "type": "function"
    },
    {
      "inputs": [],
      "name": "bountyProxyBase",
      "outputs": [
        {
          "internalType": "address",
          "name": "",
          "type": "address"
        }
      ],
      "stateMutability": "view",
      "type": "function"
    },
    {
      "inputs": [
        {
          "internalType": "address",
          "name": "_beacon",
          "type": "address"
        },
        {
          "internalType": "bytes",
          "name": "_data",
          "type": "bytes"
        }
      ],
      "name": "deployBounty",
      "outputs": [
        {
          "internalType": "contract BountyPool",
          "name": "proxy",
          "type": "address"
        }
      ],
      "stateMutability": "nonpayable",
      "type": "function"
    },
    {
      "inputs": [
        {
          "internalType": "address payable",
          "name": "_bountyProxyBase",
          "type": "address"
        },
        {
          "internalType": "address",
          "name": "_manager",
          "type": "address"
        }
      ],
      "name": "initiliaze",
      "outputs": [],
      "stateMutability": "nonpayable",
      "type": "function"
    },
    {
      "inputs": [],
      "name": "manager",
      "outputs": [
        {
          "internalType": "address",
          "name": "",
          "type": "address"
        }
      ],
      "stateMutability": "view",
      "type": "function"
    },
    {
      "inputs": [],
      "name": "owner",
      "outputs": [
        {
          "internalType": "address",
          "name": "",
          "type": "address"
        }
      ],
      "stateMutability": "view",
      "type": "function"
    },
    {
      "inputs": [],
      "name": "renounceOwnership",
      "outputs": [],
      "stateMutability": "nonpayable",
      "type": "function"
    },
    {
      "inputs": [
        {
          "internalType": "address",
          "name": "newOwner",
          "type": "address"
        }
      ],
      "name": "transferOwnership",
      "outputs": [],
      "stateMutability": "nonpayable",
      "type": "function"
    }
  ],
  "bytecode": {
    "object": "0x608060405234801561001057600080fd5b5061001a3361001f565b61006f565b600080546001600160a01b038381166001600160a01b0319831681178455604051919092169283917f8be0079c531659141344cd1fd0a4f28419497f9722a3daafe3b4186f6b6457e09190a35050565b6107398061007e6000396000f3fe608060405234801561001057600080fd5b50600436106100885760003560e01c8063762688ca1161005b578063762688ca146100ed5780638da5cb5b14610100578063f2fde38b14610111578063ffa1ad741461012457600080fd5b806336d988171461008d578063481c6a75146100bd57806364d67fdd146100d0578063715018a6146100e5575b600080fd5b6100a061009b366004610573565b61013a565b6040516001600160a01b0390911681526020015b60405180910390f35b6002546100a0906001600160a01b031681565b6100e36100de366004610637565b610216565b005b6100e3610374565b6001546100a0906001600160a01b031681565b6000546001600160a01b03166100a0565b6100e361011f366004610670565b610388565b61012c600181565b6040519081526020016100b4565b6002546000906001600160a01b031633146101935760405162461bcd60e51b815260206004820152601460248201527313db9b1e481b585b9859d95c88185b1b1bddd95960621b60448201526064015b60405180910390fd5b6001546101a8906001600160a01b0316610401565b60405163abf90f7b60e01b815290915081906001600160a01b0382169063abf90f7b906101dd90879087903390600401610694565b600060405180830381600087803b1580156101f757600080fd5b505af115801561020b573d6000803e3d6000fd5b505050505092915050565b600054600160a81b900460ff161580801561023e57506000546001600160a01b90910460ff16105b8061025f5750303b15801561025f5750600054600160a01b900460ff166001145b6102c25760405162461bcd60e51b815260206004820152602e60248201527f496e697469616c697a61626c653a20636f6e747261637420697320616c72656160448201526d191e481a5b9a5d1a585b1a5e995960921b606482015260840161018a565b6000805460ff60a01b1916600160a01b17905580156102ef576000805460ff60a81b1916600160a81b1790555b6102f761049e565b600180546001600160a01b038086166001600160a01b0319928316179092556002805492851692909116919091179055801561036f576000805460ff60a81b19169055604051600181527f7f26b83ff96e1f2b6a682f133852f6798a09c465da95921460cefb38474024989060200160405180910390a15b505050565b61037c61049e565b61038660006104f8565b565b61039061049e565b6001600160a01b0381166103f55760405162461bcd60e51b815260206004820152602660248201527f4f776e61626c653a206e6577206f776e657220697320746865207a65726f206160448201526564647265737360d01b606482015260840161018a565b6103fe816104f8565b50565b6000604051733d602d80600a3d3981f3363d3d373d3d3d363d7360601b81528260601b60148201526e5af43d82803e903d91602b57fd5bf360881b60288201526037816000f09150506001600160a01b0381166104995760405162461bcd60e51b8152602060048201526016602482015275115490cc4c4d8dce8818dc99585d194819985a5b195960521b604482015260640161018a565b919050565b6000546001600160a01b031633146103865760405162461bcd60e51b815260206004820181905260248201527f4f776e61626c653a2063616c6c6572206973206e6f7420746865206f776e6572604482015260640161018a565b600080546001600160a01b038381166001600160a01b0319831681178455604051919092169283917f8be0079c531659141344cd1fd0a4f28419497f9722a3daafe3b4186f6b6457e09190a35050565b6001600160a01b03811681146103fe57600080fd5b634e487b7160e01b600052604160045260246000fd5b6000806040838503121561058657600080fd5b823561059181610548565b9150602083013567ffffffffffffffff808211156105ae57600080fd5b818501915085601f8301126105c257600080fd5b8135818111156105d4576105d461055d565b604051601f8201601f19908116603f011681019083821181831017156105fc576105fc61055d565b8160405282815288602084870101111561061557600080fd5b8260208601602083013760006020848301015280955050505050509250929050565b6000806040838503121561064a57600080fd5b823561065581610548565b9150602083013561066581610548565b809150509250929050565b60006020828403121561068257600080fd5b813561068d81610548565b9392505050565b600060018060a01b0380861683526020606081850152855180606086015260005b818110156106d1578781018301518682016080015282016106b5565b818111156106e3576000608083880101525b509490911660408401525050601f91909101601f1916016080019291505056fea2646970667358221220afc8b5618b1338959659f303d0e474f1bbae598c99fcffb41693289d7d96f86d64736f6c634300080a0033",
    "linkReferences": {}
  },
  "methodIdentifiers": {
    "VERSION()": "ffa1ad74",
    "bountyProxyBase()": "762688ca",
    "deployBounty(address,bytes)": "36d98817",
    "initiliaze(address,address)": "64d67fdd",
    "manager()": "481c6a75",
    "owner()": "8da5cb5b",
    "renounceOwnership()": "715018a6",
    "transferOwnership(address)": "f2fde38b"
  },
  "id": 30
}