{
  "abi": [
    {
      "inputs": [
        {
          "internalType": "address payable",
          "name": "_bountyProxyBase",
          "type": "address"
        },
        {
          "internalType": "address",
          "name": "_manager",
          "type": "address"
        }
      ],
      "stateMutability": "nonpayable",
      "type": "constructor"
    },
    {
      "inputs": [],
      "name": "VERSION",
      "outputs": [
        {
          "internalType": "uint256",
          "name": "",
          "type": "uint256"
        }
      ],
      "stateMutability": "view",
      "type": "function"
    },
    {
      "inputs": [],
      "name": "bountyProxyBase",
      "outputs": [
        {
          "internalType": "address payable",
          "name": "",
          "type": "address"
        }
      ],
      "stateMutability": "view",
      "type": "function"
    },
    {
      "inputs": [
        {
          "internalType": "address",
          "name": "_beacon",
          "type": "address"
        },
        {
          "internalType": "address",
          "name": "_projectWallet",
          "type": "address"
        },
        {
          "internalType": "bytes",
          "name": "_data",
          "type": "bytes"
        }
      ],
      "name": "deployBounty",
      "outputs": [
        {
          "internalType": "contract BountyPool",
          "name": "bountyPool",
          "type": "address"
        }
      ],
      "stateMutability": "nonpayable",
      "type": "function"
    },
    {
      "inputs": [],
      "name": "manager",
      "outputs": [
        {
          "internalType": "address",
          "name": "",
          "type": "address"
        }
      ],
      "stateMutability": "view",
      "type": "function"
    }
  ],
  "bytecode": {
    "object": "0x60c060405234801561001057600080fd5b5060405161050238038061050283398101604081905261002f9161005e565b6001600160a01b039182166080521660a052610098565b6001600160a01b038116811461005b57600080fd5b50565b6000806040838503121561007157600080fd5b825161007c81610046565b602084015190925061008d81610046565b809150509250929050565b60805160a05161043a6100c8600039600081816056015260f2015260008181609a0152610162015261043a6000f3fe608060405234801561001057600080fd5b506004361061004c5760003560e01c8063481c6a7514610051578063762688ca14610095578063d83a0cd6146100bc578063ffa1ad74146100cf575b600080fd5b6100787f000000000000000000000000000000000000000000000000000000000000000081565b6040516001600160a01b0390911681526020015b60405180910390f35b6100787f000000000000000000000000000000000000000000000000000000000000000081565b6100786100ca3660046102c3565b6100e5565b6100d7600181565b60405190815260200161008c565b6000336001600160a01b037f0000000000000000000000000000000000000000000000000000000000000000161461015b5760405162461bcd60e51b815260206004820152601460248201527313db9b1e481b585b9859d95c88185b1b1bddd95960621b60448201526064015b60405180910390fd5b60006101867f00000000000000000000000000000000000000000000000000000000000000006101f9565b60405163abf90f7b60e01b8152909150819081906001600160a01b0382169063abf90f7b906101bd908a9089903390600401610395565b600060405180830381600087803b1580156101d757600080fd5b505af11580156101eb573d6000803e3d6000fd5b505050505050509392505050565b6000604051733d602d80600a3d3981f3363d3d373d3d3d363d7360601b81528260601b60148201526e5af43d82803e903d91602b57fd5bf360881b60288201526037816000f09150506001600160a01b0381166102915760405162461bcd60e51b8152602060048201526016602482015275115490cc4c4d8dce8818dc99585d194819985a5b195960521b6044820152606401610152565b919050565b80356001600160a01b038116811461029157600080fd5b634e487b7160e01b600052604160045260246000fd5b6000806000606084860312156102d857600080fd5b6102e184610296565b92506102ef60208501610296565b9150604084013567ffffffffffffffff8082111561030c57600080fd5b818601915086601f83011261032057600080fd5b813581811115610332576103326102ad565b604051601f8201601f19908116603f0116810190838211818310171561035a5761035a6102ad565b8160405282815289602084870101111561037357600080fd5b8260208601602083013760006020848301015280955050505050509250925092565b600060018060a01b0380861683526020606081850152855180606086015260005b818110156103d2578781018301518682016080015282016103b6565b818111156103e4576000608083880101525b509490911660408401525050601f91909101601f1916016080019291505056fea2646970667358221220c69921b49032cb23d6eaadd75e2ad20609055a8e95ff5e358a64587b5203a6a864736f6c634300080a0033",
    "linkReferences": {}
  }
}