{
  "abi": [
    {
      "anonymous": false,
      "inputs": [
        {
          "indexed": false,
          "internalType": "address",
          "name": "previousAdmin",
          "type": "address"
        },
        {
          "indexed": false,
          "internalType": "address",
          "name": "newAdmin",
          "type": "address"
        }
      ],
      "name": "AdminChanged",
      "type": "event"
    },
    {
      "anonymous": false,
      "inputs": [
        {
          "indexed": true,
          "internalType": "address",
          "name": "beacon",
          "type": "address"
        }
      ],
      "name": "BeaconUpgraded",
      "type": "event"
    },
    {
      "anonymous": false,
      "inputs": [
        {
          "indexed": true,
          "internalType": "uint256",
          "name": "pid",
          "type": "uint256"
        },
        {
          "indexed": false,
          "internalType": "uint256",
          "name": "oldAmount",
          "type": "uint256"
        },
        {
          "indexed": false,
          "internalType": "uint256",
          "name": "newAmount",
          "type": "uint256"
        }
      ],
      "name": "BountyBalanceChanged",
      "type": "event"
    },
    {
      "anonymous": false,
      "inputs": [
        {
          "indexed": true,
          "internalType": "address",
          "name": "hunter",
          "type": "address"
        },
        {
          "indexed": true,
          "internalType": "address",
          "name": "token",
          "type": "address"
        },
        {
          "indexed": false,
          "internalType": "uint256",
          "name": "amount",
          "type": "uint256"
        }
      ],
      "name": "BountyPaid",
      "type": "event"
    },
    {
      "anonymous": false,
      "inputs": [
        {
          "indexed": false,
          "internalType": "uint8",
          "name": "version",
          "type": "uint8"
        }
      ],
      "name": "Initialized",
      "type": "event"
    },
    {
      "anonymous": false,
      "inputs": [
        {
          "indexed": true,
          "internalType": "uint256",
          "name": "pid",
          "type": "uint256"
        },
        {
          "indexed": true,
          "internalType": "address",
          "name": "token",
          "type": "address"
        },
        {
          "indexed": false,
          "internalType": "uint256",
          "name": "tokenDecimals",
          "type": "uint256"
        }
      ],
      "name": "NewBountyDeployed",
      "type": "event"
    },
    {
      "anonymous": false,
      "inputs": [
        {
          "indexed": true,
          "internalType": "address",
          "name": "previousOwner",
          "type": "address"
        },
        {
          "indexed": true,
          "internalType": "address",
          "name": "newOwner",
          "type": "address"
        }
      ],
      "name": "OwnershipTransferred",
      "type": "event"
    },
    {
      "anonymous": false,
      "inputs": [
        {
          "indexed": true,
          "internalType": "uint256",
          "name": "pid",
          "type": "uint256"
        },
        {
          "indexed": false,
          "internalType": "uint256",
          "name": "amount",
          "type": "uint256"
        }
      ],
      "name": "PremiumBilled",
      "type": "event"
    },
    {
      "anonymous": false,
      "inputs": [
        {
          "indexed": true,
          "internalType": "address",
          "name": "user",
          "type": "address"
        },
        {
          "indexed": true,
          "internalType": "uint256",
          "name": "pid",
          "type": "uint256"
        },
        {
          "indexed": false,
          "internalType": "uint256",
          "name": "amount",
          "type": "uint256"
        }
      ],
      "name": "Staked",
      "type": "event"
    },
    {
      "anonymous": false,
      "inputs": [
        {
          "indexed": true,
          "internalType": "address",
          "name": "user",
          "type": "address"
        },
        {
          "indexed": true,
          "internalType": "uint256",
          "name": "pid",
          "type": "uint256"
        },
        {
          "indexed": false,
          "internalType": "uint256",
          "name": "amount",
          "type": "uint256"
        }
      ],
      "name": "Unstaked",
      "type": "event"
    },
    {
      "anonymous": false,
      "inputs": [
        {
          "indexed": true,
          "internalType": "address",
          "name": "implementation",
          "type": "address"
        }
      ],
      "name": "Upgraded",
      "type": "event"
    },
    {
      "anonymous": false,
      "inputs": [
        {
          "indexed": true,
          "internalType": "uint256",
          "name": "pid",
          "type": "uint256"
        },
        {
          "indexed": false,
          "internalType": "uint256",
          "name": "amount",
          "type": "uint256"
        }
      ],
      "name": "WithdrawalOrUnstakeScheduled",
      "type": "event"
    },
    {
      "anonymous": false,
      "inputs": [
        {
          "indexed": true,
          "internalType": "address",
          "name": "referrer",
          "type": "address"
        },
        {
          "indexed": false,
          "internalType": "uint256",
          "name": "amount",
          "type": "uint256"
        }
      ],
      "name": "referralPaid",
      "type": "event"
    },
    {
      "anonymous": false,
      "inputs": [
        {
          "indexed": true,
          "internalType": "address",
          "name": "token",
          "type": "address"
        },
        {
          "indexed": true,
          "internalType": "bool",
          "name": "whitelisted",
          "type": "bool"
        }
      ],
      "name": "tokenWhitelistUpdated",
      "type": "event"
    },
    {
      "stateMutability": "payable",
      "type": "fallback"
    },
    {
      "inputs": [],
      "name": "YEAR",
      "outputs": [
        {
          "internalType": "uint256",
          "name": "",
          "type": "uint256"
        }
      ],
      "stateMutability": "view",
      "type": "function"
    },
    {
      "inputs": [],
      "name": "acceptOwnershipTransfer",
      "outputs": [],
      "stateMutability": "nonpayable",
      "type": "function"
    },
    {
      "inputs": [
        {
          "internalType": "uint256",
          "name": "",
          "type": "uint256"
        }
      ],
      "name": "activeStrategies",
      "outputs": [
        {
          "internalType": "bytes32",
          "name": "",
          "type": "bytes32"
        }
      ],
      "stateMutability": "view",
      "type": "function"
    },
    {
      "inputs": [
        {
          "internalType": "uint256",
          "name": "",
          "type": "uint256"
        }
      ],
      "name": "activeTokens",
      "outputs": [
        {
          "internalType": "address",
          "name": "",
          "type": "address"
        }
      ],
      "stateMutability": "view",
      "type": "function"
    },
    {
      "inputs": [
        {
          "internalType": "bytes4",
          "name": "sig",
          "type": "bytes4"
        }
      ],
      "name": "getRouterImplementation",
      "outputs": [
        {
          "internalType": "address",
          "name": "",
          "type": "address"
        }
      ],
      "stateMutability": "view",
      "type": "function"
    },
    {
      "inputs": [
        {
          "internalType": "contract ISaloonManager",
          "name": "_saloonManager",
          "type": "address"
        }
      ],
      "name": "initManager",
      "outputs": [],
      "stateMutability": "nonpayable",
      "type": "function"
    },
    {
      "inputs": [
        {
          "internalType": "contract ISaloonManager",
          "name": "_saloonManager",
          "type": "address"
        },
        {
          "internalType": "contract ISaloonProjectPortal",
          "name": "_saloonProjectPortal",
          "type": "address"
        },
        {
          "internalType": "contract ISaloonBounty",
          "name": "_saloonBounty",
          "type": "address"
        },
        {
          "internalType": "contract ISaloonView",
          "name": "_saloonView",
          "type": "address"
        }
      ],
      "name": "initialize",
      "outputs": [],
      "stateMutability": "nonpayable",
      "type": "function"
    },
    {
      "inputs": [
        {
          "internalType": "address",
          "name": "",
          "type": "address"
        }
      ],
      "name": "minTokenStakeAmount",
      "outputs": [
        {
          "internalType": "uint256",
          "name": "",
          "type": "uint256"
        }
      ],
      "stateMutability": "view",
      "type": "function"
    },
    {
      "inputs": [
        {
          "internalType": "uint256",
          "name": "",
          "type": "uint256"
        }
      ],
      "name": "nftInfo",
      "outputs": [
        {
          "internalType": "uint256",
          "name": "pid",
          "type": "uint256"
        },
        {
          "internalType": "uint256",
          "name": "amount",
          "type": "uint256"
        },
        {
          "internalType": "uint256",
          "name": "xDelta",
          "type": "uint256"
        },
        {
          "internalType": "uint256",
          "name": "apy",
          "type": "uint256"
        },
        {
          "internalType": "uint256",
          "name": "unclaimed",
          "type": "uint256"
        },
        {
          "internalType": "uint256",
          "name": "lastClaimedTime",
          "type": "uint256"
        },
        {
          "internalType": "uint256",
          "name": "timelock",
          "type": "uint256"
        },
        {
          "internalType": "uint256",
          "name": "timelimit",
          "type": "uint256"
        },
        {
          "internalType": "bool",
          "name": "hasUnstaked",
          "type": "bool"
        }
      ],
      "stateMutability": "view",
      "type": "function"
    },
    {
      "inputs": [],
      "name": "owner",
      "outputs": [
        {
          "internalType": "address",
          "name": "",
          "type": "address"
        }
      ],
      "stateMutability": "view",
      "type": "function"
    },
    {
      "inputs": [
        {
          "internalType": "uint256",
          "name": "",
          "type": "uint256"
        },
        {
          "internalType": "uint256",
          "name": "",
          "type": "uint256"
        }
      ],
      "name": "pidNFTList",
      "outputs": [
        {
          "internalType": "uint256",
          "name": "",
          "type": "uint256"
        }
      ],
      "stateMutability": "view",
      "type": "function"
    },
    {
      "inputs": [
        {
          "internalType": "uint256",
          "name": "",
          "type": "uint256"
        },
        {
          "internalType": "bytes32",
          "name": "",
          "type": "bytes32"
        }
      ],
      "name": "pidStrategies",
      "outputs": [
        {
          "internalType": "address",
          "name": "",
          "type": "address"
        }
      ],
      "stateMutability": "view",
      "type": "function"
    },
    {
      "inputs": [
        {
          "internalType": "uint256",
          "name": "",
          "type": "uint256"
        }
      ],
      "name": "poolInfo",
      "outputs": [
        {
          "components": [
            {
              "internalType": "contract IERC20",
              "name": "token",
              "type": "address"
            },
            {
              "internalType": "uint8",
              "name": "tokenDecimals",
              "type": "uint8"
            },
            {
              "internalType": "uint16",
              "name": "apy",
              "type": "uint16"
            },
            {
              "internalType": "address",
              "name": "projectWallet",
              "type": "address"
            },
            {
              "internalType": "string",
              "name": "projectName",
              "type": "string"
            },
            {
              "internalType": "uint256",
              "name": "poolCap",
              "type": "uint256"
            },
            {
              "internalType": "uint256",
              "name": "totalStaked",
              "type": "uint256"
            },
            {
              "internalType": "uint256",
              "name": "scalingMultiplier",
              "type": "uint256"
            }
          ],
          "internalType": "struct ISaloon.GeneralInfo",
          "name": "generalInfo",
          "type": "tuple"
        },
        {
          "components": [
            {
              "internalType": "uint256",
              "name": "projectDepositHeld",
              "type": "uint256"
            },
            {
              "internalType": "uint256",
              "name": "projectDepositInStrategy",
              "type": "uint256"
            }
          ],
          "internalType": "struct ISaloon.DepositInfo",
          "name": "depositInfo",
          "type": "tuple"
        },
        {
          "components": [
            {
              "internalType": "uint256",
              "name": "premiumBalance",
              "type": "uint256"
            },
            {
              "internalType": "uint256",
              "name": "premiumAvailable",
              "type": "uint256"
            }
          ],
          "internalType": "struct ISaloon.PremiumInfo",
          "name": "premiumInfo",
          "type": "tuple"
        },
        {
          "components": [
            {
              "internalType": "uint256",
              "name": "timelock",
              "type": "uint256"
            },
            {
              "internalType": "uint256",
              "name": "timeLimit",
              "type": "uint256"
            },
            {
              "internalType": "uint256",
              "name": "withdrawalScheduledAmount",
              "type": "uint256"
            },
            {
              "internalType": "bool",
              "name": "withdrawalExecuted",
              "type": "bool"
            }
          ],
          "internalType": "struct ISaloon.TimelockInfo",
          "name": "poolTimelock",
          "type": "tuple"
        },
        {
          "components": [
            {
              "internalType": "uint256",
              "name": "currentX",
              "type": "uint256"
            },
            {
              "internalType": "uint256",
              "name": "currentY",
              "type": "uint256"
            },
            {
              "internalType": "uint256",
              "name": "totalSupply",
              "type": "uint256"
            },
            {
              "internalType": "uint256[]",
              "name": "unstakedTokens",
              "type": "uint256[]"
            }
          ],
          "internalType": "struct ISaloon.CurveInfo",
          "name": "curveInfo",
          "type": "tuple"
        },
        {
          "components": [
            {
              "internalType": "address",
              "name": "referrer",
              "type": "address"
            },
            {
              "internalType": "uint256",
              "name": "referralFee",
              "type": "uint256"
            },
            {
              "internalType": "uint256",
              "name": "endTime",
              "type": "uint256"
            }
          ],
          "internalType": "struct ISaloon.ReferralInfo",
          "name": "referralInfo",
          "type": "tuple"
        },
        {
          "internalType": "uint256",
          "name": "assessmentPeriodEnd",
          "type": "uint256"
        },
        {
          "internalType": "uint256",
          "name": "freezeTime",
          "type": "uint256"
        },
        {
          "internalType": "bool",
          "name": "isActive",
          "type": "bool"
        }
      ],
      "stateMutability": "view",
      "type": "function"
    },
    {
      "inputs": [],
      "name": "proxiableUUID",
      "outputs": [
        {
          "internalType": "bytes32",
          "name": "",
          "type": "bytes32"
        }
      ],
      "stateMutability": "view",
      "type": "function"
    },
    {
      "inputs": [
        {
          "internalType": "address",
          "name": "_token",
          "type": "address"
        },
        {
          "internalType": "uint256",
          "name": "_amount",
          "type": "uint256"
        }
      ],
      "name": "receiveStrategyYield",
      "outputs": [],
      "stateMutability": "nonpayable",
      "type": "function"
    },
    {
      "inputs": [
        {
          "internalType": "address",
          "name": "",
          "type": "address"
        },
        {
          "internalType": "address",
          "name": "",
          "type": "address"
        }
      ],
      "name": "referralBalances",
      "outputs": [
        {
          "internalType": "uint256",
          "name": "",
          "type": "uint256"
        }
      ],
      "stateMutability": "view",
      "type": "function"
    },
    {
      "inputs": [],
      "name": "saloonBounty",
      "outputs": [
        {
          "internalType": "contract ISaloonBounty",
          "name": "",
          "type": "address"
        }
      ],
      "stateMutability": "view",
      "type": "function"
    },
    {
      "inputs": [
        {
          "internalType": "address",
          "name": "",
          "type": "address"
        }
      ],
      "name": "saloonBountyProfit",
      "outputs": [
        {
          "internalType": "uint256",
          "name": "",
          "type": "uint256"
        }
      ],
      "stateMutability": "view",
      "type": "function"
    },
    {
      "inputs": [],
      "name": "saloonManager",
      "outputs": [
        {
          "internalType": "contract ISaloonManager",
          "name": "",
          "type": "address"
        }
      ],
      "stateMutability": "view",
      "type": "function"
    },
    {
      "inputs": [
        {
          "internalType": "address",
          "name": "",
          "type": "address"
        }
      ],
      "name": "saloonPremiumProfit",
      "outputs": [
        {
          "internalType": "uint256",
          "name": "",
          "type": "uint256"
        }
      ],
      "stateMutability": "view",
      "type": "function"
    },
    {
      "inputs": [],
      "name": "saloonProjectPortal",
      "outputs": [
        {
          "internalType": "contract ISaloonProjectPortal",
          "name": "",
          "type": "address"
        }
      ],
      "stateMutability": "view",
      "type": "function"
    },
    {
      "inputs": [
        {
          "internalType": "address",
          "name": "",
          "type": "address"
        }
      ],
      "name": "saloonStrategyProfit",
      "outputs": [
        {
          "internalType": "uint256",
          "name": "",
          "type": "uint256"
        }
      ],
      "stateMutability": "view",
      "type": "function"
    },
    {
      "inputs": [],
      "name": "saloonView",
      "outputs": [
        {
          "internalType": "contract ISaloonView",
          "name": "",
          "type": "address"
        }
      ],
      "stateMutability": "view",
      "type": "function"
    },
    {
      "inputs": [
        {
          "internalType": "contract ISaloonManager",
          "name": "_saloonManager",
          "type": "address"
        },
        {
          "internalType": "contract ISaloonProjectPortal",
          "name": "_saloonProjectPortal",
          "type": "address"
        },
        {
          "internalType": "contract ISaloonBounty",
          "name": "_saloonBounty",
          "type": "address"
        },
        {
          "internalType": "contract ISaloonView",
          "name": "_saloonView",
          "type": "address"
        }
      ],
      "name": "setImplementations",
      "outputs": [],
      "stateMutability": "nonpayable",
      "type": "function"
    },
    {
      "inputs": [
        {
          "internalType": "address",
          "name": "",
          "type": "address"
        }
      ],
      "name": "strategyAddressToPid",
      "outputs": [
        {
          "internalType": "uint256",
          "name": "",
          "type": "uint256"
        }
      ],
      "stateMutability": "view",
      "type": "function"
    },
    {
      "inputs": [],
      "name": "strategyFactory",
      "outputs": [
        {
          "internalType": "contract IStrategyFactory",
          "name": "",
          "type": "address"
        }
      ],
      "stateMutability": "view",
      "type": "function"
    },
    {
      "inputs": [
        {
          "internalType": "address",
          "name": "",
          "type": "address"
        }
      ],
      "name": "tokenWhitelist",
      "outputs": [
        {
          "internalType": "bool",
          "name": "",
          "type": "bool"
        }
      ],
      "stateMutability": "view",
      "type": "function"
    },
    {
      "inputs": [
        {
          "internalType": "address",
          "name": "newOwner",
          "type": "address"
        }
      ],
      "name": "transferOwnership",
      "outputs": [],
      "stateMutability": "nonpayable",
      "type": "function"
    },
    {
      "inputs": [
        {
          "internalType": "address",
          "name": "newImplementation",
          "type": "address"
        }
      ],
      "name": "upgradeTo",
      "outputs": [],
      "stateMutability": "nonpayable",
      "type": "function"
    },
    {
      "inputs": [
        {
          "internalType": "address",
          "name": "newImplementation",
          "type": "address"
        },
        {
          "internalType": "bytes",
          "name": "data",
          "type": "bytes"
        }
      ],
      "name": "upgradeToAndCall",
      "outputs": [],
      "stateMutability": "payable",
      "type": "function"
    }
  ],
  "bytecode": {
    "object": "0x60a06040523060805234801561001457600080fd5b50608051611d9161004c60003960008181610cde01528181610d2701528181610dc601528181610e060152610e990152611d916000f3fe6080604052600436106101cd5760003560e01c806376e1df48116100f75780639f224f3511610095578063ca00614811610064578063ca0061481461065c578063e45abd0f14610689578063f2fde38b146106b6578063f8c8765e146106d6576101cd565b80639f224f35146105da578063b1fc19d3146105fa578063b20b24291461061a578063b842e87f14610647576101cd565b80638da5cb5b116100d15780638da5cb5b1461054f578063957deecc1461056d57806396ea48e81461059a5780639ef35710146105ba576101cd565b806376e1df48146104f757806379923898146105175780638391454014610537576101cd565b8063277fd2a11161016f57806352d1902d1161013e57806352d1902d14610455578063598d17bf1461046a57806360b2fa7614610497578063753d7563146104b7576101cd565b8063277fd2a1146103d55780633659cfe6146103f557806339458723146104155780634f1ef28614610442576101cd565b80631526fe27116101ab5780631526fe27146102b05780631aebcecb146102e55780631f8bc79014610305578063220e1124146103b5576101cd565b8063011b408b146101ec578063074ecf03146102375780630a07f54314610290575b6101ea6101e56000356001600160e01b0319166106f6565b6109f4565b005b3480156101f857600080fd5b50610224610207366004611794565b600a60209081526000928352604080842090915290825290205481565b6040519081526020015b60405180910390f35b34801561024357600080fd5b506102786102523660046117cd565b600c6020908152600092835260408084209091529082529020546001600160a01b031681565b6040516001600160a01b03909116815260200161022e565b34801561029c57600080fd5b50600354610278906001600160a01b031681565b3480156102bc57600080fd5b506102d06102cb3660046117ef565b610a1d565b60405161022e999897969594939291906118c3565b3480156102f157600080fd5b506101ea610300366004611a06565b610c7e565b34801561031157600080fd5b5061036f6103203660046117ef565b6005602081905260009182526040909120805460018201546002830154600384015460048501549585015460068601546007870154600890970154959794969395929493919290919060ff1689565b60408051998a5260208a0198909852968801959095526060870193909352608086019190915260a085015260c084015260e083015215156101008201526101200161022e565b3480156103c157600080fd5b50600054610278906001600160a01b031681565b3480156103e157600080fd5b50600154610278906001600160a01b031681565b34801561040157600080fd5b506101ea610410366004611a32565b610cd4565b34801561042157600080fd5b50610224610430366004611a32565b60116020526000908152604090205481565b6101ea610450366004611a65565b610dbc565b34801561046157600080fd5b50610224610e8c565b34801561047657600080fd5b50610224610485366004611a32565b60096020526000908152604090205481565b3480156104a357600080fd5b506101ea6104b2366004611b29565b610f3f565b3480156104c357600080fd5b506104e76104d2366004611a32565b600f6020526000908152604090205460ff1681565b604051901515815260200161022e565b34801561050357600080fd5b50610278610512366004611b85565b6106f6565b34801561052357600080fd5b50600254610278906001600160a01b031681565b34801561054357600080fd5b506102246301e1338081565b34801561055b57600080fd5b506045546001600160a01b0316610278565b34801561057957600080fd5b50610224610588366004611a32565b600e6020526000908152604090205481565b3480156105a657600080fd5b506102246105b53660046117cd565b610f97565b3480156105c657600080fd5b50600b54610278906001600160a01b031681565b3480156105e657600080fd5b506102786105f53660046117ef565b610fc8565b34801561060657600080fd5b506101ea610615366004611a32565b610ff2565b34801561062657600080fd5b506102246106353660046117ef565b600d6020526000908152604090205481565b34801561065357600080fd5b506101ea61102f565b34801561066857600080fd5b50610224610677366004611a32565b60086020526000908152604090205481565b34801561069557600080fd5b506102246106a4366004611a32565b60076020526000908152604090205481565b3480156106c257600080fd5b506101ea6106d1366004611a32565b6110af565b3480156106e257600080fd5b506101ea6106f1366004611b29565b61113e565b60006001600160e01b0319821663a5352bfd60e01b148061072757506001600160e01b03198216630b2c37f360e21b145b8061074257506001600160e01b0319821663197e730160e11b145b8061075d57506001600160e01b0319821663177901b760e21b145b8061077857506001600160e01b031982166316df028f60e11b145b8061079357506001600160e01b0319821663cf9564b960e01b145b806107ae57506001600160e01b0319821663ecd7fbed60e01b145b806107c957506001600160e01b031982166305044d2960e51b145b806107e457506001600160e01b03198216633e8888d960e01b145b156107fa5750506000546001600160a01b031690565b6001600160e01b0319821663341d6beb60e21b148061082957506001600160e01b031982166307b0472f60e41b145b8061084457506001600160e01b0319821663106d08df60e01b145b8061085f57506001600160e01b031982166327afaa2360e21b145b8061087a57506001600160e01b03198216637a3f61df60e11b145b8061089557506001600160e01b031982166381c6f1a760e01b145b806108b057506001600160e01b03198216634a4d252560e11b145b806108cb57506001600160e01b031982166375bfd63d60e01b145b156108e15750506002546001600160a01b031690565b6001600160e01b03198216630c3281e560e21b148061091057506001600160e01b031982166315c0ff2960e31b145b8061092b57506001600160e01b03198216635669cbef60e01b145b8061094657506001600160e01b031982166304c1e0e760e51b145b8061096157506001600160e01b0319821663db53e8b560e01b145b8061097c57506001600160e01b0319821663bb7019c160e01b145b8061099757506001600160e01b031982166326565d3160e21b145b806109b257506001600160e01b03198216631aebcecb60e01b145b806109cd57506001600160e01b0319821663e78ea3df60e01b145b156109e35750506001546001600160a01b031690565b50506003546001600160a01b031690565b3660008037600080366000845af43d6000803e808015610a13573d6000f35b3d6000fd5b505050565b60048181548110610a2d57600080fd5b60009182526020918290206040805161010081018252601890930290910180546001600160a01b03808216855260ff600160a01b8304169585019590955261ffff600160a81b909104169183019190915260018101549092166060820152600282018054929350909183916080840191610aa690611baf565b80601f0160208091040260200160405190810160405280929190818152602001828054610ad290611baf565b8015610b1f5780601f10610af457610100808354040283529160200191610b1f565b820191906000526020600020905b815481529060010190602001808311610b0257829003601f168201915b50505091835250506003820154602080830191909152600483015460408084019190915260059093015460609283015282518084018452600686015481526007860154818301528351808501855260088701548152600987015481840152845160808082018752600a8901548252600b89015482860152600c89015482880152600d89015460ff1615158287015286519081018752600e890180548252600f8a01548287015260108a01548289015260118a018054895181890281018901909a52808a52999a9599949893979596929591949186019392909190830182828015610c2857602002820191906000526020600020905b815481526020019060010190808311610c14575b5050509190925250506040805160608101825260128501546001600160a01b0316815260138501546020820152601485015491810191909152601584015460168501546017909501549394919390925060ff1689565b604080516001600160a01b03848116602483015260448083018590528351808403909101815260649092019092526020810180516001600160e01b0316631aebcecb60e01b179052600154610a18921690611268565b6001600160a01b037f0000000000000000000000000000000000000000000000000000000000000000163003610d255760405162461bcd60e51b8152600401610d1c90611be9565b60405180910390fd5b7f00000000000000000000000000000000000000000000000000000000000000006001600160a01b0316610d6e600080516020611d15833981519152546001600160a01b031690565b6001600160a01b031614610d945760405162461bcd60e51b8152600401610d1c90611c35565b610d9d816112b1565b60408051600080825260208201909252610db9918391906112b9565b50565b6001600160a01b037f0000000000000000000000000000000000000000000000000000000000000000163003610e045760405162461bcd60e51b8152600401610d1c90611be9565b7f00000000000000000000000000000000000000000000000000000000000000006001600160a01b0316610e4d600080516020611d15833981519152546001600160a01b031690565b6001600160a01b031614610e735760405162461bcd60e51b8152600401610d1c90611c35565b610e7c826112b1565b610e88828260016112b9565b5050565b6000306001600160a01b037f00000000000000000000000000000000000000000000000000000000000000001614610f2c5760405162461bcd60e51b815260206004820152603860248201527f555550535570677261646561626c653a206d757374206e6f742062652063616c60448201527f6c6564207468726f7567682064656c656761746563616c6c00000000000000006064820152608401610d1c565b50600080516020611d1583398151915290565b610f47611424565b600080546001600160a01b039586166001600160a01b0319918216179091556001805494861694821694909417909355600280549285169284169290921790915560038054919093169116179055565b60066020528160005260406000208181548110610fb357600080fd5b90600052602060002001600091509150505481565b60108181548110610fd857600080fd5b6000918252602090912001546001600160a01b0316905081565b6040805160048152602481019091526020810180516001600160e01b031663204a7f0760e21b179052610e88906001600160a01b03831690611268565b6046546001600160a01b031633146110985760405162461bcd60e51b815260206004820152602660248201527f6f6e6c792070656e64696e67206f776e65722063616e2061636365707420747260448201526530b739b332b960d11b6064820152608401610d1c565b6046546110ad906001600160a01b031661147e565b565b6110b7611424565b6001600160a01b03811661111c5760405162461bcd60e51b815260206004820152602660248201527f4f776e61626c653a206e6577206f776e657220697320746865207a65726f206160448201526564647265737360d01b6064820152608401610d1c565b604680546001600160a01b0319166001600160a01b0392909216919091179055565b601254610100900460ff161580801561115e5750601254600160ff909116105b806111785750303b158015611178575060125460ff166001145b6111db5760405162461bcd60e51b815260206004820152602e60248201527f496e697469616c697a61626c653a20636f6e747261637420697320616c72656160448201526d191e481a5b9a5d1a585b1a5e995960921b6064820152608401610d1c565b6012805460ff1916600117905580156111fe576012805461ff0019166101001790555b6112066114db565b61120f85610ff2565b61121b85858585610f3f565b8015611261576012805461ff0019169055604051600181527f7f26b83ff96e1f2b6a682f133852f6798a09c465da95921460cefb38474024989060200160405180910390a15b5050505050565b6040518151600090819060208501865af461129a573d6112915763037b81af60e11b8152600481fd5b3d6000823e3d81fd5b3d8152602081013d6000823e3d0160405292915050565b610db9611424565b7f4910fdfa16fed3260ed0e7147f7cc6da11a60208b5b9406d12a635614ffd91435460ff16156112ec57610a188361150a565b826001600160a01b03166352d1902d6040518163ffffffff1660e01b8152600401602060405180830381865afa925050508015611346575060408051601f3d908101601f1916820190925261134391810190611c81565b60015b6113a95760405162461bcd60e51b815260206004820152602e60248201527f45524331393637557067726164653a206e657720696d706c656d656e7461746960448201526d6f6e206973206e6f74205555505360901b6064820152608401610d1c565b600080516020611d1583398151915281146114185760405162461bcd60e51b815260206004820152602960248201527f45524331393637557067726164653a20756e737570706f727465642070726f786044820152681a58589b195555525160ba1b6064820152608401610d1c565b50610a188383836115a6565b6045546001600160a01b031633146110ad5760405162461bcd60e51b815260206004820181905260248201527f4f776e61626c653a2063616c6c6572206973206e6f7420746865206f776e65726044820152606401610d1c565b604580546001600160a01b038381166001600160a01b03198084168217909455604680549094169093556040519116919082907f8be0079c531659141344cd1fd0a4f28419497f9722a3daafe3b4186f6b6457e090600090a35050565b601254610100900460ff166115025760405162461bcd60e51b8152600401610d1c90611c9a565b6110ad6115d1565b6001600160a01b0381163b6115775760405162461bcd60e51b815260206004820152602d60248201527f455243313936373a206e657720696d706c656d656e746174696f6e206973206e60448201526c1bdd08184818dbdb9d1c9858dd609a1b6064820152608401610d1c565b600080516020611d1583398151915280546001600160a01b0319166001600160a01b0392909216919091179055565b6115af83611601565b6000825111806115bc5750805b15610a18576115cb8383611641565b50505050565b601254610100900460ff166115f85760405162461bcd60e51b8152600401610d1c90611c9a565b6110ad3361147e565b61160a8161150a565b6040516001600160a01b038216907fbc7cd75a20ee27fd9adebab32041f755214dbc6bffa90cc0225b39da2e5c2d3b90600090a250565b60606001600160a01b0383163b6116a95760405162461bcd60e51b815260206004820152602660248201527f416464726573733a2064656c65676174652063616c6c20746f206e6f6e2d636f6044820152651b9d1c9858dd60d21b6064820152608401610d1c565b600080846001600160a01b0316846040516116c49190611ce5565b600060405180830381855af49150503d80600081146116ff576040519150601f19603f3d011682016040523d82523d6000602084013e611704565b606091505b509150915061172c8282604051806060016040528060278152602001611d3560279139611735565b95945050505050565b6060831561174457508161174e565b61174e8383611755565b9392505050565b8151156117655781518083602001fd5b8060405162461bcd60e51b8152600401610d1c9190611d01565b6001600160a01b0381168114610db957600080fd5b600080604083850312156117a757600080fd5b82356117b28161177f565b915060208301356117c28161177f565b809150509250929050565b600080604083850312156117e057600080fd5b50508035926020909101359150565b60006020828403121561180157600080fd5b5035919050565b60005b8381101561182357818101518382015260200161180b565b50506000910152565b60008151808452611844816020860160208601611808565b601f01601f19169290920160200192915050565b60006080830182518452602080840151818601526040840151604086015260608401516080606087015282815180855260a0880191508383019450600092505b808310156118b85784518252938301936001929092019190830190611898565b509695505050505050565b6102008082528a516001600160a01b039081169183019190915260208b015160ff1661022083015260408b015161ffff1661024083015260608b01511661026082015260808a015161010061028083015260009061192561030084018261182c565b905060a08c01516102a084015260c08c01516102c084015260e08c01516102e084015261195f602084018c80518252602090810151910152565b8951606084015260208a01516080840152885160a0840152602089015160c0840152604089015160e0840152606089015115156101008401528281036101208401526119ab8189611858565b87516001600160a01b03166101408501526020880151610160850152604088015161018085015291506119db9050565b846101a0830152836101c08301526119f86101e083018415159052565b9a9950505050505050505050565b60008060408385031215611a1957600080fd5b8235611a248161177f565b946020939093013593505050565b600060208284031215611a4457600080fd5b813561174e8161177f565b634e487b7160e01b600052604160045260246000fd5b60008060408385031215611a7857600080fd5b8235611a838161177f565b9150602083013567ffffffffffffffff80821115611aa057600080fd5b818501915085601f830112611ab457600080fd5b813581811115611ac657611ac6611a4f565b604051601f8201601f19908116603f01168101908382118183101715611aee57611aee611a4f565b81604052828152886020848701011115611b0757600080fd5b8260208601602083013760006020848301015280955050505050509250929050565b60008060008060808587031215611b3f57600080fd5b8435611b4a8161177f565b93506020850135611b5a8161177f565b92506040850135611b6a8161177f565b91506060850135611b7a8161177f565b939692955090935050565b600060208284031215611b9757600080fd5b81356001600160e01b03198116811461174e57600080fd5b600181811c90821680611bc357607f821691505b602082108103611be357634e487b7160e01b600052602260045260246000fd5b50919050565b6020808252602c908201527f46756e6374696f6e206d7573742062652063616c6c6564207468726f7567682060408201526b19195b1959d85d1958d85b1b60a21b606082015260800190565b6020808252602c908201527f46756e6374696f6e206d7573742062652063616c6c6564207468726f7567682060408201526b6163746976652070726f787960a01b606082015260800190565b600060208284031215611c9357600080fd5b5051919050565b6020808252602b908201527f496e697469616c697a61626c653a20636f6e7472616374206973206e6f74206960408201526a6e697469616c697a696e6760a81b606082015260800190565b60008251611cf7818460208701611808565b9190910192915050565b60208152600061174e602083018461182c56fe360894a13ba1a3210667c828492db98dca3e2076cc3735a920a3ca505d382bbc416464726573733a206c6f772d6c6576656c2064656c65676174652063616c6c206661696c6564a2646970667358221220f41540318f10395684b27ec528cd6e5942f8e6138850a8c56ce66baa89c35fe164736f6c63430008110033",
    "linkReferences": {}
  },
  "methodIdentifiers": {
    "YEAR()": "83914540",
    "acceptOwnershipTransfer()": "b842e87f",
    "activeStrategies(uint256)": "b20b2429",
    "activeTokens(uint256)": "9f224f35",
    "getRouterImplementation(bytes4)": "76e1df48",
    "initManager(address)": "b1fc19d3",
    "initialize(address,address,address,address)": "f8c8765e",
    "minTokenStakeAmount(address)": "39458723",
    "nftInfo(uint256)": "1f8bc790",
    "owner()": "8da5cb5b",
    "pidNFTList(uint256,uint256)": "96ea48e8",
    "pidStrategies(uint256,bytes32)": "074ecf03",
    "poolInfo(uint256)": "1526fe27",
    "proxiableUUID()": "52d1902d",
    "receiveStrategyYield(address,uint256)": "1aebcecb",
    "referralBalances(address,address)": "011b408b",
    "saloonBounty()": "79923898",
    "saloonBountyProfit(address)": "e45abd0f",
    "saloonManager()": "220e1124",
    "saloonPremiumProfit(address)": "ca006148",
    "saloonProjectPortal()": "277fd2a1",
    "saloonStrategyProfit(address)": "598d17bf",
    "saloonView()": "0a07f543",
    "setImplementations(address,address,address,address)": "60b2fa76",
    "strategyAddressToPid(address)": "957deecc",
    "strategyFactory()": "9ef35710",
    "tokenWhitelist(address)": "753d7563",
    "transferOwnership(address)": "f2fde38b",
    "upgradeTo(address)": "3659cfe6",
    "upgradeToAndCall(address,bytes)": "4f1ef286"
  },
  "id": 46
}