{
  "abi": [
    {
      "anonymous": false,
      "inputs": [
        {
          "indexed": false,
          "internalType": "address",
          "name": "previousAdmin",
          "type": "address"
        },
        {
          "indexed": false,
          "internalType": "address",
          "name": "newAdmin",
          "type": "address"
        }
      ],
      "name": "AdminChanged",
      "type": "event"
    },
    {
      "anonymous": false,
      "inputs": [
        {
          "indexed": true,
          "internalType": "address",
          "name": "beacon",
          "type": "address"
        }
      ],
      "name": "BeaconUpgraded",
      "type": "event"
    },
    {
      "anonymous": false,
      "inputs": [
        {
          "indexed": true,
          "internalType": "uint256",
          "name": "pid",
          "type": "uint256"
        },
        {
          "indexed": false,
          "internalType": "uint256",
          "name": "oldAmount",
          "type": "uint256"
        },
        {
          "indexed": false,
          "internalType": "uint256",
          "name": "newAmount",
          "type": "uint256"
        }
      ],
      "name": "BountyBalanceChanged",
      "type": "event"
    },
    {
      "anonymous": false,
      "inputs": [
        {
          "indexed": true,
          "internalType": "address",
          "name": "hunter",
          "type": "address"
        },
        {
          "indexed": true,
          "internalType": "address",
          "name": "token",
          "type": "address"
        },
        {
          "indexed": false,
          "internalType": "uint256",
          "name": "amount",
          "type": "uint256"
        }
      ],
      "name": "BountyPaid",
      "type": "event"
    },
    {
      "anonymous": false,
      "inputs": [
        {
          "indexed": false,
          "internalType": "uint8",
          "name": "version",
          "type": "uint8"
        }
      ],
      "name": "Initialized",
      "type": "event"
    },
    {
      "anonymous": false,
      "inputs": [
        {
          "indexed": true,
          "internalType": "uint256",
          "name": "pid",
          "type": "uint256"
        },
        {
          "indexed": true,
          "internalType": "address",
          "name": "token",
          "type": "address"
        },
        {
          "indexed": false,
          "internalType": "uint256",
          "name": "tokenDecimals",
          "type": "uint256"
        }
      ],
      "name": "NewBountyDeployed",
      "type": "event"
    },
    {
      "anonymous": false,
      "inputs": [
        {
          "indexed": true,
          "internalType": "address",
          "name": "previousOwner",
          "type": "address"
        },
        {
          "indexed": true,
          "internalType": "address",
          "name": "newOwner",
          "type": "address"
        }
      ],
      "name": "OwnershipTransferred",
      "type": "event"
    },
    {
      "anonymous": false,
      "inputs": [
        {
          "indexed": true,
          "internalType": "uint256",
          "name": "pid",
          "type": "uint256"
        },
        {
          "indexed": false,
          "internalType": "uint256",
          "name": "amount",
          "type": "uint256"
        }
      ],
      "name": "PremiumBilled",
      "type": "event"
    },
    {
      "anonymous": false,
      "inputs": [
        {
          "indexed": true,
          "internalType": "address",
          "name": "user",
          "type": "address"
        },
        {
          "indexed": true,
          "internalType": "uint256",
          "name": "pid",
          "type": "uint256"
        },
        {
          "indexed": false,
          "internalType": "uint256",
          "name": "amount",
          "type": "uint256"
        }
      ],
      "name": "Staked",
      "type": "event"
    },
    {
      "anonymous": false,
      "inputs": [
        {
          "indexed": true,
          "internalType": "address",
          "name": "user",
          "type": "address"
        },
        {
          "indexed": true,
          "internalType": "uint256",
          "name": "pid",
          "type": "uint256"
        },
        {
          "indexed": false,
          "internalType": "uint256",
          "name": "amount",
          "type": "uint256"
        }
      ],
      "name": "Unstaked",
      "type": "event"
    },
    {
      "anonymous": false,
      "inputs": [
        {
          "indexed": true,
          "internalType": "address",
          "name": "implementation",
          "type": "address"
        }
      ],
      "name": "Upgraded",
      "type": "event"
    },
    {
      "anonymous": false,
      "inputs": [
        {
          "indexed": true,
          "internalType": "uint256",
          "name": "pid",
          "type": "uint256"
        },
        {
          "indexed": false,
          "internalType": "uint256",
          "name": "amount",
          "type": "uint256"
        }
      ],
      "name": "WithdrawalOrUnstakeScheduled",
      "type": "event"
    },
    {
      "anonymous": false,
      "inputs": [
        {
          "indexed": true,
          "internalType": "address",
          "name": "referrer",
          "type": "address"
        },
        {
          "indexed": false,
          "internalType": "uint256",
          "name": "amount",
          "type": "uint256"
        }
      ],
      "name": "referralPaid",
      "type": "event"
    },
    {
      "anonymous": false,
      "inputs": [
        {
          "indexed": true,
          "internalType": "address",
          "name": "token",
          "type": "address"
        },
        {
          "indexed": true,
          "internalType": "bool",
          "name": "whitelisted",
          "type": "bool"
        }
      ],
      "name": "tokenWhitelistUpdated",
      "type": "event"
    },
    {
      "stateMutability": "payable",
      "type": "fallback"
    },
    {
      "inputs": [],
      "name": "acceptOwnershipTransfer",
      "outputs": [],
      "stateMutability": "nonpayable",
      "type": "function"
    },
    {
      "inputs": [
        {
          "internalType": "uint256",
          "name": "",
          "type": "uint256"
        }
      ],
      "name": "activeStrategies",
      "outputs": [
        {
          "internalType": "bytes32",
          "name": "",
          "type": "bytes32"
        }
      ],
      "stateMutability": "view",
      "type": "function"
    },
    {
      "inputs": [
        {
          "internalType": "uint256",
          "name": "",
          "type": "uint256"
        }
      ],
      "name": "activeTokens",
      "outputs": [
        {
          "internalType": "address",
          "name": "",
          "type": "address"
        }
      ],
      "stateMutability": "view",
      "type": "function"
    },
    {
      "inputs": [
        {
          "internalType": "bytes4",
          "name": "sig",
          "type": "bytes4"
        }
      ],
      "name": "getRouterImplementation",
      "outputs": [
        {
          "internalType": "address",
          "name": "",
          "type": "address"
        }
      ],
      "stateMutability": "view",
      "type": "function"
    },
    {
      "inputs": [
        {
          "internalType": "contract ISaloonManager",
          "name": "_saloonManager",
          "type": "address"
        }
      ],
      "name": "initManager",
      "outputs": [],
      "stateMutability": "nonpayable",
      "type": "function"
    },
    {
      "inputs": [],
      "name": "initSaloonBounty",
      "outputs": [],
      "stateMutability": "nonpayable",
      "type": "function"
    },
    {
      "inputs": [
        {
          "internalType": "contract ISaloonManager",
          "name": "_saloonManager",
          "type": "address"
        },
        {
          "internalType": "contract ISaloonProjectPortal",
          "name": "_saloonProjectPortal",
          "type": "address"
        },
        {
          "internalType": "contract ISaloonBounty",
          "name": "_saloonBounty",
          "type": "address"
        },
        {
          "internalType": "contract ISaloonView",
          "name": "_saloonView",
          "type": "address"
        }
      ],
      "name": "initialize",
      "outputs": [],
      "stateMutability": "nonpayable",
      "type": "function"
    },
    {
      "inputs": [
        {
          "internalType": "address",
          "name": "",
          "type": "address"
        }
      ],
      "name": "minTokenStakeAmount",
      "outputs": [
        {
          "internalType": "uint256",
          "name": "",
          "type": "uint256"
        }
      ],
      "stateMutability": "view",
      "type": "function"
    },
    {
      "inputs": [
        {
          "internalType": "uint256",
          "name": "",
          "type": "uint256"
        }
      ],
      "name": "nftInfo",
      "outputs": [
        {
          "internalType": "uint256",
          "name": "pid",
          "type": "uint256"
        },
        {
          "internalType": "uint256",
          "name": "amount",
          "type": "uint256"
        },
        {
          "internalType": "uint256",
          "name": "xDelta",
          "type": "uint256"
        },
        {
          "internalType": "uint256",
          "name": "apy",
          "type": "uint256"
        },
        {
          "internalType": "uint256",
          "name": "unclaimed",
          "type": "uint256"
        },
        {
          "internalType": "uint256",
          "name": "lastClaimedTime",
          "type": "uint256"
        },
        {
          "internalType": "uint256",
          "name": "timelock",
          "type": "uint256"
        },
        {
          "internalType": "uint256",
          "name": "timelimit",
          "type": "uint256"
        },
        {
          "internalType": "bool",
          "name": "hasUnstaked",
          "type": "bool"
        }
      ],
      "stateMutability": "view",
      "type": "function"
    },
    {
      "inputs": [],
      "name": "owner",
      "outputs": [
        {
          "internalType": "address",
          "name": "",
          "type": "address"
        }
      ],
      "stateMutability": "view",
      "type": "function"
    },
    {
      "inputs": [
        {
          "internalType": "uint256",
          "name": "",
          "type": "uint256"
        },
        {
          "internalType": "uint256",
          "name": "",
          "type": "uint256"
        }
      ],
      "name": "pidNFTList",
      "outputs": [
        {
          "internalType": "uint256",
          "name": "",
          "type": "uint256"
        }
      ],
      "stateMutability": "view",
      "type": "function"
    },
    {
      "inputs": [
        {
          "internalType": "uint256",
          "name": "",
          "type": "uint256"
        },
        {
          "internalType": "bytes32",
          "name": "",
          "type": "bytes32"
        }
      ],
      "name": "pidStrategies",
      "outputs": [
        {
          "internalType": "address",
          "name": "",
          "type": "address"
        }
      ],
      "stateMutability": "view",
      "type": "function"
    },
    {
      "inputs": [
        {
          "internalType": "uint256",
          "name": "",
          "type": "uint256"
        }
      ],
      "name": "poolInfo",
      "outputs": [
        {
          "components": [
            {
              "internalType": "contract IERC20",
              "name": "token",
              "type": "address"
            },
            {
              "internalType": "uint8",
              "name": "tokenDecimals",
              "type": "uint8"
            },
            {
              "internalType": "uint16",
              "name": "apy",
              "type": "uint16"
            },
            {
              "internalType": "address",
              "name": "projectWallet",
              "type": "address"
            },
            {
              "internalType": "string",
              "name": "projectName",
              "type": "string"
            },
            {
              "internalType": "uint256",
              "name": "poolCap",
              "type": "uint256"
            },
            {
              "internalType": "uint256",
              "name": "totalStaked",
              "type": "uint256"
            },
            {
              "internalType": "uint256",
              "name": "scalingMultiplier",
              "type": "uint256"
            }
          ],
          "internalType": "struct ISaloon.GeneralInfo",
          "name": "generalInfo",
          "type": "tuple"
        },
        {
          "components": [
            {
              "internalType": "uint256",
              "name": "projectDepositHeld",
              "type": "uint256"
            },
            {
              "internalType": "uint256",
              "name": "projectDepositInStrategy",
              "type": "uint256"
            }
          ],
          "internalType": "struct ISaloon.DepositInfo",
          "name": "depositInfo",
          "type": "tuple"
        },
        {
          "components": [
            {
              "internalType": "uint256",
              "name": "premiumBalance",
              "type": "uint256"
            },
            {
              "internalType": "uint256",
              "name": "premiumAvailable",
              "type": "uint256"
            }
          ],
          "internalType": "struct ISaloon.PremiumInfo",
          "name": "premiumInfo",
          "type": "tuple"
        },
        {
          "components": [
            {
              "internalType": "uint256",
              "name": "timelock",
              "type": "uint256"
            },
            {
              "internalType": "uint256",
              "name": "timeLimit",
              "type": "uint256"
            },
            {
              "internalType": "uint256",
              "name": "withdrawalScheduledAmount",
              "type": "uint256"
            },
            {
              "internalType": "bool",
              "name": "withdrawalExecuted",
              "type": "bool"
            }
          ],
          "internalType": "struct ISaloon.TimelockInfo",
          "name": "poolTimelock",
          "type": "tuple"
        },
        {
          "components": [
            {
              "internalType": "uint256",
              "name": "currentX",
              "type": "uint256"
            },
            {
              "internalType": "uint256",
              "name": "currentY",
              "type": "uint256"
            },
            {
              "internalType": "uint256",
              "name": "totalSupply",
              "type": "uint256"
            },
            {
              "internalType": "uint256[]",
              "name": "unstakedTokens",
              "type": "uint256[]"
            }
          ],
          "internalType": "struct ISaloon.CurveInfo",
          "name": "curveInfo",
          "type": "tuple"
        },
        {
          "components": [
            {
              "internalType": "address",
              "name": "referrer",
              "type": "address"
            },
            {
              "internalType": "uint256",
              "name": "referralFee",
              "type": "uint256"
            },
            {
              "internalType": "uint256",
              "name": "endTime",
              "type": "uint256"
            }
          ],
          "internalType": "struct ISaloon.ReferralInfo",
          "name": "referralInfo",
          "type": "tuple"
        },
        {
          "internalType": "uint256",
          "name": "assessmentPeriodEnd",
          "type": "uint256"
        },
        {
          "internalType": "uint256",
          "name": "freezeTime",
          "type": "uint256"
        },
        {
          "internalType": "bool",
          "name": "isActive",
          "type": "bool"
        }
      ],
      "stateMutability": "view",
      "type": "function"
    },
    {
      "inputs": [],
      "name": "proxiableUUID",
      "outputs": [
        {
          "internalType": "bytes32",
          "name": "",
          "type": "bytes32"
        }
      ],
      "stateMutability": "view",
      "type": "function"
    },
    {
      "inputs": [
        {
          "internalType": "address",
          "name": "_token",
          "type": "address"
        },
        {
          "internalType": "uint256",
          "name": "_amount",
          "type": "uint256"
        }
      ],
      "name": "receiveStrategyYield",
      "outputs": [],
      "stateMutability": "nonpayable",
      "type": "function"
    },
    {
      "inputs": [
        {
          "internalType": "address",
          "name": "",
          "type": "address"
        },
        {
          "internalType": "address",
          "name": "",
          "type": "address"
        }
      ],
      "name": "referralBalances",
      "outputs": [
        {
          "internalType": "uint256",
          "name": "",
          "type": "uint256"
        }
      ],
      "stateMutability": "view",
      "type": "function"
    },
    {
      "inputs": [],
      "name": "saloonBounty",
      "outputs": [
        {
          "internalType": "contract ISaloonBounty",
          "name": "",
          "type": "address"
        }
      ],
      "stateMutability": "view",
      "type": "function"
    },
    {
      "inputs": [
        {
          "internalType": "address",
          "name": "",
          "type": "address"
        }
      ],
      "name": "saloonBountyProfit",
      "outputs": [
        {
          "internalType": "uint256",
          "name": "",
          "type": "uint256"
        }
      ],
      "stateMutability": "view",
      "type": "function"
    },
    {
      "inputs": [],
      "name": "saloonManager",
      "outputs": [
        {
          "internalType": "contract ISaloonManager",
          "name": "",
          "type": "address"
        }
      ],
      "stateMutability": "view",
      "type": "function"
    },
    {
      "inputs": [
        {
          "internalType": "address",
          "name": "",
          "type": "address"
        }
      ],
      "name": "saloonPremiumProfit",
      "outputs": [
        {
          "internalType": "uint256",
          "name": "",
          "type": "uint256"
        }
      ],
      "stateMutability": "view",
      "type": "function"
    },
    {
      "inputs": [],
      "name": "saloonProjectPortal",
      "outputs": [
        {
          "internalType": "contract ISaloonProjectPortal",
          "name": "",
          "type": "address"
        }
      ],
      "stateMutability": "view",
      "type": "function"
    },
    {
      "inputs": [
        {
          "internalType": "address",
          "name": "",
          "type": "address"
        }
      ],
      "name": "saloonStrategyProfit",
      "outputs": [
        {
          "internalType": "uint256",
          "name": "",
          "type": "uint256"
        }
      ],
      "stateMutability": "view",
      "type": "function"
    },
    {
      "inputs": [],
      "name": "saloonView",
      "outputs": [
        {
          "internalType": "contract ISaloonView",
          "name": "",
          "type": "address"
        }
      ],
      "stateMutability": "view",
      "type": "function"
    },
    {
      "inputs": [
        {
          "internalType": "contract ISaloonManager",
          "name": "_saloonManager",
          "type": "address"
        },
        {
          "internalType": "contract ISaloonProjectPortal",
          "name": "_saloonProjectPortal",
          "type": "address"
        },
        {
          "internalType": "contract ISaloonBounty",
          "name": "_saloonBounty",
          "type": "address"
        },
        {
          "internalType": "contract ISaloonView",
          "name": "_saloonView",
          "type": "address"
        }
      ],
      "name": "setImplementations",
      "outputs": [],
      "stateMutability": "nonpayable",
      "type": "function"
    },
    {
      "inputs": [
        {
          "internalType": "address",
          "name": "",
          "type": "address"
        }
      ],
      "name": "strategyAddressToPid",
      "outputs": [
        {
          "internalType": "uint256",
          "name": "",
          "type": "uint256"
        }
      ],
      "stateMutability": "view",
      "type": "function"
    },
    {
      "inputs": [],
      "name": "strategyFactory",
      "outputs": [
        {
          "internalType": "contract IStrategyFactory",
          "name": "",
          "type": "address"
        }
      ],
      "stateMutability": "view",
      "type": "function"
    },
    {
      "inputs": [
        {
          "internalType": "address",
          "name": "",
          "type": "address"
        }
      ],
      "name": "tokenWhitelist",
      "outputs": [
        {
          "internalType": "bool",
          "name": "",
          "type": "bool"
        }
      ],
      "stateMutability": "view",
      "type": "function"
    },
    {
      "inputs": [
        {
          "internalType": "address",
          "name": "newOwner",
          "type": "address"
        }
      ],
      "name": "transferOwnership",
      "outputs": [],
      "stateMutability": "nonpayable",
      "type": "function"
    },
    {
      "inputs": [
        {
          "internalType": "address",
          "name": "newImplementation",
          "type": "address"
        }
      ],
      "name": "upgradeTo",
      "outputs": [],
      "stateMutability": "nonpayable",
      "type": "function"
    },
    {
      "inputs": [
        {
          "internalType": "address",
          "name": "newImplementation",
          "type": "address"
        },
        {
          "internalType": "bytes",
          "name": "data",
          "type": "bytes"
        }
      ],
      "name": "upgradeToAndCall",
      "outputs": [],
      "stateMutability": "payable",
      "type": "function"
    }
  ],
  "bytecode": {
    "object": "0x60a06040523060805234801561001457600080fd5b50608051611dea61004c60003960008181610cf601528181610d3f01528181610e1f01528181610e5f0152610ef20152611dea6000f3fe6080604052600436106101cd5760003560e01c8063753d7563116100f75780639f224f3511610095578063ca00614811610064578063ca00614814610659578063e45abd0f14610686578063f2fde38b146106b3578063f8c8765e146106d3576101cd565b80639f224f35146105d7578063b1fc19d3146105f7578063b20b242914610617578063b842e87f14610644576101cd565b80638da5cb5b116100d15780638da5cb5b1461054c578063957deecc1461056a57806396ea48e8146105975780639ef35710146105b7576101cd565b8063753d7563146104cc57806376e1df481461050c578063799238981461052c576101cd565b8063277fd2a11161016f5780634f1ef2861161013e5780634f1ef2861461045757806352d1902d1461046a578063598d17bf1461047f57806360b2fa76146104ac576101cd565b8063277fd2a1146103d55780633659cfe6146103f557806339458723146104155780633b91ff2114610442576101cd565b80631526fe27116101ab5780631526fe27146102b05780631aebcecb146102e55780631f8bc79014610305578063220e1124146103b5576101cd565b8063011b408b146101ec578063074ecf03146102375780630a07f54314610290575b6101ea6101e56000356001600160e01b0319166106f3565b610a0c565b005b3480156101f857600080fd5b506102246102073660046117ed565b600a60209081526000928352604080842090915290825290205481565b6040519081526020015b60405180910390f35b34801561024357600080fd5b50610278610252366004611826565b600c6020908152600092835260408084209091529082529020546001600160a01b031681565b6040516001600160a01b03909116815260200161022e565b34801561029c57600080fd5b50600354610278906001600160a01b031681565b3480156102bc57600080fd5b506102d06102cb366004611848565b610a35565b60405161022e9998979695949392919061191c565b3480156102f157600080fd5b506101ea610300366004611a5f565b610c96565b34801561031157600080fd5b5061036f610320366004611848565b6005602081905260009182526040909120805460018201546002830154600384015460048501549585015460068601546007870154600890970154959794969395929493919290919060ff1689565b60408051998a5260208a0198909852968801959095526060870193909352608086019190915260a085015260c084015260e083015215156101008201526101200161022e565b3480156103c157600080fd5b50600054610278906001600160a01b031681565b3480156103e157600080fd5b50600154610278906001600160a01b031681565b34801561040157600080fd5b506101ea610410366004611a8b565b610cec565b34801561042157600080fd5b50610224610430366004611a8b565b60116020526000908152604090205481565b34801561044e57600080fd5b506101ea610dd4565b6101ea610465366004611abe565b610e15565b34801561047657600080fd5b50610224610ee5565b34801561048b57600080fd5b5061022461049a366004611a8b565b60096020526000908152604090205481565b3480156104b857600080fd5b506101ea6104c7366004611b82565b610f98565b3480156104d857600080fd5b506104fc6104e7366004611a8b565b600f6020526000908152604090205460ff1681565b604051901515815260200161022e565b34801561051857600080fd5b50610278610527366004611bde565b6106f3565b34801561053857600080fd5b50600254610278906001600160a01b031681565b34801561055857600080fd5b506045546001600160a01b0316610278565b34801561057657600080fd5b50610224610585366004611a8b565b600e6020526000908152604090205481565b3480156105a357600080fd5b506102246105b2366004611826565b610ff0565b3480156105c357600080fd5b50600b54610278906001600160a01b031681565b3480156105e357600080fd5b506102786105f2366004611848565b611021565b34801561060357600080fd5b506101ea610612366004611a8b565b61104b565b34801561062357600080fd5b50610224610632366004611848565b600d6020526000908152604090205481565b34801561065057600080fd5b506101ea611088565b34801561066557600080fd5b50610224610674366004611a8b565b60086020526000908152604090205481565b34801561069257600080fd5b506102246106a1366004611a8b565b60076020526000908152604090205481565b3480156106bf57600080fd5b506101ea6106ce366004611a8b565b611108565b3480156106df57600080fd5b506101ea6106ee366004611b82565b611197565b60006001600160e01b0319821663a5352bfd60e01b148061072457506001600160e01b03198216630b2c37f360e21b145b8061073f57506001600160e01b0319821663197e730160e11b145b8061075a57506001600160e01b0319821663177901b760e21b145b8061077557506001600160e01b031982166316df028f60e11b145b8061079057506001600160e01b0319821663cf9564b960e01b145b806107ab57506001600160e01b0319821663ecd7fbed60e01b145b806107c657506001600160e01b031982166305044d2960e51b145b806107e157506001600160e01b03198216633e8888d960e01b145b806107fc57506001600160e01b031982166335636c0960e11b145b156108125750506000546001600160a01b031690565b6001600160e01b0319821663341d6beb60e21b148061084157506001600160e01b031982166307b0472f60e41b145b8061085c57506001600160e01b0319821663106d08df60e01b145b8061087757506001600160e01b031982166327afaa2360e21b145b8061089257506001600160e01b03198216637a3f61df60e11b145b806108ad57506001600160e01b031982166381c6f1a760e01b145b806108c857506001600160e01b03198216634a4d252560e11b145b806108e357506001600160e01b031982166375bfd63d60e01b145b156108f95750506002546001600160a01b031690565b6001600160e01b03198216630c3281e560e21b148061092857506001600160e01b031982166315c0ff2960e31b145b8061094357506001600160e01b03198216635669cbef60e01b145b8061095e57506001600160e01b031982166304c1e0e760e51b145b8061097957506001600160e01b0319821663db53e8b560e01b145b8061099457506001600160e01b0319821663bb7019c160e01b145b806109af57506001600160e01b031982166326565d3160e21b145b806109ca57506001600160e01b03198216631aebcecb60e01b145b806109e557506001600160e01b0319821663e78ea3df60e01b145b156109fb5750506001546001600160a01b031690565b50506003546001600160a01b031690565b3660008037600080366000845af43d6000803e808015610a2b573d6000f35b3d6000fd5b505050565b60048181548110610a4557600080fd5b60009182526020918290206040805161010081018252601890930290910180546001600160a01b03808216855260ff600160a01b8304169585019590955261ffff600160a81b909104169183019190915260018101549092166060820152600282018054929350909183916080840191610abe90611c08565b80601f0160208091040260200160405190810160405280929190818152602001828054610aea90611c08565b8015610b375780601f10610b0c57610100808354040283529160200191610b37565b820191906000526020600020905b815481529060010190602001808311610b1a57829003601f168201915b50505091835250506003820154602080830191909152600483015460408084019190915260059093015460609283015282518084018452600686015481526007860154818301528351808501855260088701548152600987015481840152845160808082018752600a8901548252600b89015482860152600c89015482880152600d89015460ff1615158287015286519081018752600e890180548252600f8a01548287015260108a01548289015260118a018054895181890281018901909a52808a52999a9599949893979596929591949186019392909190830182828015610c4057602002820191906000526020600020905b815481526020019060010190808311610c2c575b5050509190925250506040805160608101825260128501546001600160a01b0316815260138501546020820152601485015491810191909152601584015460168501546017909501549394919390925060ff1689565b604080516001600160a01b03848116602483015260448083018590528351808403909101815260649092019092526020810180516001600160e01b0316631aebcecb60e01b179052600154610a309216906112c1565b6001600160a01b037f0000000000000000000000000000000000000000000000000000000000000000163003610d3d5760405162461bcd60e51b8152600401610d3490611c42565b60405180910390fd5b7f00000000000000000000000000000000000000000000000000000000000000006001600160a01b0316610d86600080516020611d6e833981519152546001600160a01b031690565b6001600160a01b031614610dac5760405162461bcd60e51b8152600401610d3490611c8e565b610db58161130a565b60408051600080825260208201909252610dd191839190611312565b50565b6040805160048152602481019091526020810180516001600160e01b031663204a7f0760e21b179052600254610dd1916001600160a01b03909116906112c1565b6001600160a01b037f0000000000000000000000000000000000000000000000000000000000000000163003610e5d5760405162461bcd60e51b8152600401610d3490611c42565b7f00000000000000000000000000000000000000000000000000000000000000006001600160a01b0316610ea6600080516020611d6e833981519152546001600160a01b031690565b6001600160a01b031614610ecc5760405162461bcd60e51b8152600401610d3490611c8e565b610ed58261130a565b610ee182826001611312565b5050565b6000306001600160a01b037f00000000000000000000000000000000000000000000000000000000000000001614610f855760405162461bcd60e51b815260206004820152603860248201527f555550535570677261646561626c653a206d757374206e6f742062652063616c60448201527f6c6564207468726f7567682064656c656761746563616c6c00000000000000006064820152608401610d34565b50600080516020611d6e83398151915290565b610fa061147d565b600080546001600160a01b039586166001600160a01b0319918216179091556001805494861694821694909417909355600280549285169284169290921790915560038054919093169116179055565b6006602052816000526040600020818154811061100c57600080fd5b90600052602060002001600091509150505481565b6010818154811061103157600080fd5b6000918252602090912001546001600160a01b0316905081565b6040805160048152602481019091526020810180516001600160e01b031663204a7f0760e21b179052610ee1906001600160a01b038316906112c1565b6046546001600160a01b031633146110f15760405162461bcd60e51b815260206004820152602660248201527f6f6e6c792070656e64696e67206f776e65722063616e2061636365707420747260448201526530b739b332b960d11b6064820152608401610d34565b604654611106906001600160a01b03166114d7565b565b61111061147d565b6001600160a01b0381166111755760405162461bcd60e51b815260206004820152602660248201527f4f776e61626c653a206e6577206f776e657220697320746865207a65726f206160448201526564647265737360d01b6064820152608401610d34565b604680546001600160a01b0319166001600160a01b0392909216919091179055565b601254610100900460ff16158080156111b75750601254600160ff909116105b806111d15750303b1580156111d1575060125460ff166001145b6112345760405162461bcd60e51b815260206004820152602e60248201527f496e697469616c697a61626c653a20636f6e747261637420697320616c72656160448201526d191e481a5b9a5d1a585b1a5e995960921b6064820152608401610d34565b6012805460ff191660011790558015611257576012805461ff0019166101001790555b61125f611534565b6112688561104b565b61127485858585610f98565b80156112ba576012805461ff0019169055604051600181527f7f26b83ff96e1f2b6a682f133852f6798a09c465da95921460cefb38474024989060200160405180910390a15b5050505050565b6040518151600090819060208501865af46112f3573d6112ea5763037b81af60e11b8152600481fd5b3d6000823e3d81fd5b3d8152602081013d6000823e3d0160405292915050565b610dd161147d565b7f4910fdfa16fed3260ed0e7147f7cc6da11a60208b5b9406d12a635614ffd91435460ff161561134557610a3083611563565b826001600160a01b03166352d1902d6040518163ffffffff1660e01b8152600401602060405180830381865afa92505050801561139f575060408051601f3d908101601f1916820190925261139c91810190611cda565b60015b6114025760405162461bcd60e51b815260206004820152602e60248201527f45524331393637557067726164653a206e657720696d706c656d656e7461746960448201526d6f6e206973206e6f74205555505360901b6064820152608401610d34565b600080516020611d6e83398151915281146114715760405162461bcd60e51b815260206004820152602960248201527f45524331393637557067726164653a20756e737570706f727465642070726f786044820152681a58589b195555525160ba1b6064820152608401610d34565b50610a308383836115ff565b6045546001600160a01b031633146111065760405162461bcd60e51b815260206004820181905260248201527f4f776e61626c653a2063616c6c6572206973206e6f7420746865206f776e65726044820152606401610d34565b604580546001600160a01b038381166001600160a01b03198084168217909455604680549094169093556040519116919082907f8be0079c531659141344cd1fd0a4f28419497f9722a3daafe3b4186f6b6457e090600090a35050565b601254610100900460ff1661155b5760405162461bcd60e51b8152600401610d3490611cf3565b61110661162a565b6001600160a01b0381163b6115d05760405162461bcd60e51b815260206004820152602d60248201527f455243313936373a206e657720696d706c656d656e746174696f6e206973206e60448201526c1bdd08184818dbdb9d1c9858dd609a1b6064820152608401610d34565b600080516020611d6e83398151915280546001600160a01b0319166001600160a01b0392909216919091179055565b6116088361165a565b6000825111806116155750805b15610a3057611624838361169a565b50505050565b601254610100900460ff166116515760405162461bcd60e51b8152600401610d3490611cf3565b611106336114d7565b61166381611563565b6040516001600160a01b038216907fbc7cd75a20ee27fd9adebab32041f755214dbc6bffa90cc0225b39da2e5c2d3b90600090a250565b60606001600160a01b0383163b6117025760405162461bcd60e51b815260206004820152602660248201527f416464726573733a2064656c65676174652063616c6c20746f206e6f6e2d636f6044820152651b9d1c9858dd60d21b6064820152608401610d34565b600080846001600160a01b03168460405161171d9190611d3e565b600060405180830381855af49150503d8060008114611758576040519150601f19603f3d011682016040523d82523d6000602084013e61175d565b606091505b50915091506117858282604051806060016040528060278152602001611d8e6027913961178e565b95945050505050565b6060831561179d5750816117a7565b6117a783836117ae565b9392505050565b8151156117be5781518083602001fd5b8060405162461bcd60e51b8152600401610d349190611d5a565b6001600160a01b0381168114610dd157600080fd5b6000806040838503121561180057600080fd5b823561180b816117d8565b9150602083013561181b816117d8565b809150509250929050565b6000806040838503121561183957600080fd5b50508035926020909101359150565b60006020828403121561185a57600080fd5b5035919050565b60005b8381101561187c578181015183820152602001611864565b50506000910152565b6000815180845261189d816020860160208601611861565b601f01601f19169290920160200192915050565b60006080830182518452602080840151818601526040840151604086015260608401516080606087015282815180855260a0880191508383019450600092505b8083101561191157845182529383019360019290920191908301906118f1565b509695505050505050565b6102008082528a516001600160a01b039081169183019190915260208b015160ff1661022083015260408b015161ffff1661024083015260608b01511661026082015260808a015161010061028083015260009061197e610300840182611885565b905060a08c01516102a084015260c08c01516102c084015260e08c01516102e08401526119b8602084018c80518252602090810151910152565b8951606084015260208a01516080840152885160a0840152602089015160c0840152604089015160e084015260608901511515610100840152828103610120840152611a0481896118b1565b87516001600160a01b0316610140850152602088015161016085015260408801516101808501529150611a349050565b846101a0830152836101c0830152611a516101e083018415159052565b9a9950505050505050505050565b60008060408385031215611a7257600080fd5b8235611a7d816117d8565b946020939093013593505050565b600060208284031215611a9d57600080fd5b81356117a7816117d8565b634e487b7160e01b600052604160045260246000fd5b60008060408385031215611ad157600080fd5b8235611adc816117d8565b9150602083013567ffffffffffffffff80821115611af957600080fd5b818501915085601f830112611b0d57600080fd5b813581811115611b1f57611b1f611aa8565b604051601f8201601f19908116603f01168101908382118183101715611b4757611b47611aa8565b81604052828152886020848701011115611b6057600080fd5b8260208601602083013760006020848301015280955050505050509250929050565b60008060008060808587031215611b9857600080fd5b8435611ba3816117d8565b93506020850135611bb3816117d8565b92506040850135611bc3816117d8565b91506060850135611bd3816117d8565b939692955090935050565b600060208284031215611bf057600080fd5b81356001600160e01b0319811681146117a757600080fd5b600181811c90821680611c1c57607f821691505b602082108103611c3c57634e487b7160e01b600052602260045260246000fd5b50919050565b6020808252602c908201527f46756e6374696f6e206d7573742062652063616c6c6564207468726f7567682060408201526b19195b1959d85d1958d85b1b60a21b606082015260800190565b6020808252602c908201527f46756e6374696f6e206d7573742062652063616c6c6564207468726f7567682060408201526b6163746976652070726f787960a01b606082015260800190565b600060208284031215611cec57600080fd5b5051919050565b6020808252602b908201527f496e697469616c697a61626c653a20636f6e7472616374206973206e6f74206960408201526a6e697469616c697a696e6760a81b606082015260800190565b60008251611d50818460208701611861565b9190910192915050565b6020815260006117a7602083018461188556fe360894a13ba1a3210667c828492db98dca3e2076cc3735a920a3ca505d382bbc416464726573733a206c6f772d6c6576656c2064656c65676174652063616c6c206661696c6564a2646970667358221220bdf599099b5f3d19bd905a284573e4687ef432959340c16b1556f402a714698f64736f6c63430008110033",
    "linkReferences": {}
  },
  "methodIdentifiers": {
    "acceptOwnershipTransfer()": "b842e87f",
    "activeStrategies(uint256)": "b20b2429",
    "activeTokens(uint256)": "9f224f35",
    "getRouterImplementation(bytes4)": "76e1df48",
    "initManager(address)": "b1fc19d3",
    "initSaloonBounty()": "3b91ff21",
    "initialize(address,address,address,address)": "f8c8765e",
    "minTokenStakeAmount(address)": "39458723",
    "nftInfo(uint256)": "1f8bc790",
    "owner()": "8da5cb5b",
    "pidNFTList(uint256,uint256)": "96ea48e8",
    "pidStrategies(uint256,bytes32)": "074ecf03",
    "poolInfo(uint256)": "1526fe27",
    "proxiableUUID()": "52d1902d",
    "receiveStrategyYield(address,uint256)": "1aebcecb",
    "referralBalances(address,address)": "011b408b",
    "saloonBounty()": "79923898",
    "saloonBountyProfit(address)": "e45abd0f",
    "saloonManager()": "220e1124",
    "saloonPremiumProfit(address)": "ca006148",
    "saloonProjectPortal()": "277fd2a1",
    "saloonStrategyProfit(address)": "598d17bf",
    "saloonView()": "0a07f543",
    "setImplementations(address,address,address,address)": "60b2fa76",
    "strategyAddressToPid(address)": "957deecc",
    "strategyFactory()": "9ef35710",
    "tokenWhitelist(address)": "753d7563",
    "transferOwnership(address)": "f2fde38b",
    "upgradeTo(address)": "3659cfe6",
    "upgradeToAndCall(address,bytes)": "4f1ef286"
  },
  "id": 58
}