{
  "abi": [
    {
      "anonymous": false,
      "inputs": [
        {
          "indexed": false,
          "internalType": "address",
          "name": "previousAdmin",
          "type": "address"
        },
        {
          "indexed": false,
          "internalType": "address",
          "name": "newAdmin",
          "type": "address"
        }
      ],
      "name": "AdminChanged",
      "type": "event"
    },
    {
      "anonymous": false,
      "inputs": [
        {
          "indexed": true,
          "internalType": "address",
          "name": "beacon",
          "type": "address"
        }
      ],
      "name": "BeaconUpgraded",
      "type": "event"
    },
    {
      "anonymous": false,
      "inputs": [
        {
          "indexed": true,
          "internalType": "uint256",
          "name": "pid",
          "type": "uint256"
        },
        {
          "indexed": false,
          "internalType": "uint256",
          "name": "oldAmount",
          "type": "uint256"
        },
        {
          "indexed": false,
          "internalType": "uint256",
          "name": "newAmount",
          "type": "uint256"
        }
      ],
      "name": "BountyBalanceChanged",
      "type": "event"
    },
    {
      "anonymous": false,
      "inputs": [
        {
          "indexed": true,
          "internalType": "address",
          "name": "hunter",
          "type": "address"
        },
        {
          "indexed": true,
          "internalType": "address",
          "name": "token",
          "type": "address"
        },
        {
          "indexed": false,
          "internalType": "uint256",
          "name": "amount",
          "type": "uint256"
        }
      ],
      "name": "BountyPaid",
      "type": "event"
    },
    {
      "anonymous": false,
      "inputs": [
        {
          "indexed": false,
          "internalType": "uint8",
          "name": "version",
          "type": "uint8"
        }
      ],
      "name": "Initialized",
      "type": "event"
    },
    {
      "anonymous": false,
      "inputs": [
        {
          "indexed": true,
          "internalType": "uint256",
          "name": "pid",
          "type": "uint256"
        },
        {
          "indexed": true,
          "internalType": "address",
          "name": "token",
          "type": "address"
        },
        {
          "indexed": false,
          "internalType": "uint256",
          "name": "tokenDecimals",
          "type": "uint256"
        }
      ],
      "name": "NewBountyDeployed",
      "type": "event"
    },
    {
      "anonymous": false,
      "inputs": [
        {
          "indexed": true,
          "internalType": "address",
          "name": "previousOwner",
          "type": "address"
        },
        {
          "indexed": true,
          "internalType": "address",
          "name": "newOwner",
          "type": "address"
        }
      ],
      "name": "OwnershipTransferred",
      "type": "event"
    },
    {
      "anonymous": false,
      "inputs": [
        {
          "indexed": true,
          "internalType": "uint256",
          "name": "pid",
          "type": "uint256"
        },
        {
          "indexed": false,
          "internalType": "uint256",
          "name": "amount",
          "type": "uint256"
        }
      ],
      "name": "PremiumBilled",
      "type": "event"
    },
    {
      "anonymous": false,
      "inputs": [
        {
          "indexed": true,
          "internalType": "address",
          "name": "user",
          "type": "address"
        },
        {
          "indexed": true,
          "internalType": "uint256",
          "name": "pid",
          "type": "uint256"
        },
        {
          "indexed": false,
          "internalType": "uint256",
          "name": "amount",
          "type": "uint256"
        }
      ],
      "name": "Staked",
      "type": "event"
    },
    {
      "anonymous": false,
      "inputs": [
        {
          "indexed": true,
          "internalType": "address",
          "name": "user",
          "type": "address"
        },
        {
          "indexed": true,
          "internalType": "uint256",
          "name": "pid",
          "type": "uint256"
        },
        {
          "indexed": false,
          "internalType": "uint256",
          "name": "amount",
          "type": "uint256"
        }
      ],
      "name": "Unstaked",
      "type": "event"
    },
    {
      "anonymous": false,
      "inputs": [
        {
          "indexed": true,
          "internalType": "address",
          "name": "implementation",
          "type": "address"
        }
      ],
      "name": "Upgraded",
      "type": "event"
    },
    {
      "anonymous": false,
      "inputs": [
        {
          "indexed": true,
          "internalType": "uint256",
          "name": "pid",
          "type": "uint256"
        },
        {
          "indexed": false,
          "internalType": "uint256",
          "name": "amount",
          "type": "uint256"
        }
      ],
      "name": "WithdrawalOrUnstakeScheduled",
      "type": "event"
    },
    {
      "anonymous": false,
      "inputs": [
        {
          "indexed": true,
          "internalType": "address",
          "name": "referrer",
          "type": "address"
        },
        {
          "indexed": false,
          "internalType": "uint256",
          "name": "amount",
          "type": "uint256"
        }
      ],
      "name": "referralPaid",
      "type": "event"
    },
    {
      "anonymous": false,
      "inputs": [
        {
          "indexed": true,
          "internalType": "address",
          "name": "token",
          "type": "address"
        },
        {
          "indexed": true,
          "internalType": "bool",
          "name": "whitelisted",
          "type": "bool"
        }
      ],
      "name": "tokenWhitelistUpdated",
      "type": "event"
    },
    {
      "inputs": [],
      "name": "acceptOwnershipTransfer",
      "outputs": [],
      "stateMutability": "nonpayable",
      "type": "function"
    },
    {
      "inputs": [
        {
          "internalType": "uint256",
          "name": "",
          "type": "uint256"
        }
      ],
      "name": "activeStrategies",
      "outputs": [
        {
          "internalType": "bytes32",
          "name": "",
          "type": "bytes32"
        }
      ],
      "stateMutability": "view",
      "type": "function"
    },
    {
      "inputs": [
        {
          "internalType": "uint256",
          "name": "",
          "type": "uint256"
        }
      ],
      "name": "activeTokens",
      "outputs": [
        {
          "internalType": "address",
          "name": "",
          "type": "address"
        }
      ],
      "stateMutability": "view",
      "type": "function"
    },
    {
      "inputs": [
        {
          "internalType": "address",
          "name": "_token",
          "type": "address"
        },
        {
          "internalType": "address",
          "name": "_projectWallet",
          "type": "address"
        },
        {
          "internalType": "string",
          "name": "_projectName",
          "type": "string"
        },
        {
          "internalType": "address",
          "name": "_referrer",
          "type": "address"
        },
        {
          "internalType": "uint256",
          "name": "_referralFee",
          "type": "uint256"
        },
        {
          "internalType": "uint256",
          "name": "_referralEndTime",
          "type": "uint256"
        }
      ],
      "name": "addNewBountyPool",
      "outputs": [
        {
          "internalType": "uint256",
          "name": "",
          "type": "uint256"
        }
      ],
      "stateMutability": "nonpayable",
      "type": "function"
    },
    {
      "inputs": [
        {
          "internalType": "uint256",
          "name": "_pid",
          "type": "uint256"
        }
      ],
      "name": "billPremium",
      "outputs": [
        {
          "internalType": "bool",
          "name": "",
          "type": "bool"
        }
      ],
      "stateMutability": "nonpayable",
      "type": "function"
    },
    {
      "inputs": [
        {
          "internalType": "uint256",
          "name": "_tokenId",
          "type": "uint256"
        }
      ],
      "name": "claimPremium",
      "outputs": [],
      "stateMutability": "nonpayable",
      "type": "function"
    },
    {
      "inputs": [],
      "name": "collectAllReferralProfits",
      "outputs": [
        {
          "internalType": "bool",
          "name": "",
          "type": "bool"
        }
      ],
      "stateMutability": "nonpayable",
      "type": "function"
    },
    {
      "inputs": [
        {
          "internalType": "address",
          "name": "_saloonWallet",
          "type": "address"
        }
      ],
      "name": "collectAllSaloonProfits",
      "outputs": [
        {
          "internalType": "bool",
          "name": "",
          "type": "bool"
        }
      ],
      "stateMutability": "nonpayable",
      "type": "function"
    },
    {
      "inputs": [
        {
          "internalType": "address",
          "name": "_token",
          "type": "address"
        }
      ],
      "name": "collectReferralProfit",
      "outputs": [
        {
          "internalType": "bool",
          "name": "",
          "type": "bool"
        }
      ],
      "stateMutability": "nonpayable",
      "type": "function"
    },
    {
      "inputs": [
        {
          "internalType": "address",
          "name": "_token",
          "type": "address"
        },
        {
          "internalType": "address",
          "name": "_saloonWallet",
          "type": "address"
        }
      ],
      "name": "collectSaloonProfits",
      "outputs": [
        {
          "internalType": "bool",
          "name": "",
          "type": "bool"
        }
      ],
      "stateMutability": "nonpayable",
      "type": "function"
    },
    {
      "inputs": [
        {
          "internalType": "uint256",
          "name": "_pid",
          "type": "uint256"
        }
      ],
      "name": "compoundYieldForPid",
      "outputs": [],
      "stateMutability": "nonpayable",
      "type": "function"
    },
    {
      "inputs": [
        {
          "internalType": "uint256",
          "name": "_pid",
          "type": "uint256"
        }
      ],
      "name": "consolidate",
      "outputs": [],
      "stateMutability": "nonpayable",
      "type": "function"
    },
    {
      "inputs": [],
      "name": "consolidateAll",
      "outputs": [],
      "stateMutability": "nonpayable",
      "type": "function"
    },
    {
      "inputs": [
        {
          "internalType": "uint256",
          "name": "_pid",
          "type": "uint256"
        },
        {
          "internalType": "uint256",
          "name": "_endTime",
          "type": "uint256"
        }
      ],
      "name": "extendReferralPeriod",
      "outputs": [],
      "stateMutability": "nonpayable",
      "type": "function"
    },
    {
      "inputs": [
        {
          "internalType": "contract ISaloonManager",
          "name": "_saloonManager",
          "type": "address"
        },
        {
          "internalType": "contract ISaloonProjectPortal",
          "name": "_saloonProjectPortal",
          "type": "address"
        },
        {
          "internalType": "contract ISaloonBounty",
          "name": "_saloonBounty",
          "type": "address"
        }
      ],
      "name": "initialize",
      "outputs": [],
      "stateMutability": "nonpayable",
      "type": "function"
    },
    {
      "inputs": [
        {
          "internalType": "uint256",
          "name": "_pid",
          "type": "uint256"
        },
        {
          "internalType": "uint256",
          "name": "_deposit",
          "type": "uint256"
        },
        {
          "internalType": "string",
          "name": "_strategyName",
          "type": "string"
        }
      ],
      "name": "makeProjectDeposit",
      "outputs": [],
      "stateMutability": "nonpayable",
      "type": "function"
    },
    {
      "inputs": [
        {
          "internalType": "address",
          "name": "",
          "type": "address"
        }
      ],
      "name": "minTokenStakeAmount",
      "outputs": [
        {
          "internalType": "uint256",
          "name": "",
          "type": "uint256"
        }
      ],
      "stateMutability": "view",
      "type": "function"
    },
    {
      "inputs": [
        {
          "internalType": "uint256",
          "name": "",
          "type": "uint256"
        }
      ],
      "name": "nftInfo",
      "outputs": [
        {
          "internalType": "uint256",
          "name": "pid",
          "type": "uint256"
        },
        {
          "internalType": "uint256",
          "name": "amount",
          "type": "uint256"
        },
        {
          "internalType": "uint256",
          "name": "xDelta",
          "type": "uint256"
        },
        {
          "internalType": "uint256",
          "name": "apy",
          "type": "uint256"
        },
        {
          "internalType": "uint256",
          "name": "unclaimed",
          "type": "uint256"
        },
        {
          "internalType": "uint256",
          "name": "lastClaimedTime",
          "type": "uint256"
        },
        {
          "internalType": "uint256",
          "name": "timelock",
          "type": "uint256"
        },
        {
          "internalType": "uint256",
          "name": "timelimit",
          "type": "uint256"
        }
      ],
      "stateMutability": "view",
      "type": "function"
    },
    {
      "inputs": [],
      "name": "owner",
      "outputs": [
        {
          "internalType": "address",
          "name": "",
          "type": "address"
        }
      ],
      "stateMutability": "view",
      "type": "function"
    },
    {
      "inputs": [
        {
          "internalType": "uint256",
          "name": "__pid",
          "type": "uint256"
        },
        {
          "internalType": "address",
          "name": "_hunter",
          "type": "address"
        },
        {
          "internalType": "uint16",
          "name": "_payoutBPS",
          "type": "uint16"
        },
        {
          "internalType": "uint16",
          "name": "_hunterBonusBPS",
          "type": "uint16"
        }
      ],
      "name": "payBounty",
      "outputs": [],
      "stateMutability": "nonpayable",
      "type": "function"
    },
    {
      "inputs": [
        {
          "internalType": "uint256",
          "name": "",
          "type": "uint256"
        },
        {
          "internalType": "uint256",
          "name": "",
          "type": "uint256"
        }
      ],
      "name": "pidNFTList",
      "outputs": [
        {
          "internalType": "uint256",
          "name": "",
          "type": "uint256"
        }
      ],
      "stateMutability": "view",
      "type": "function"
    },
    {
      "inputs": [
        {
          "internalType": "uint256",
          "name": "",
          "type": "uint256"
        },
        {
          "internalType": "bytes32",
          "name": "",
          "type": "bytes32"
        }
      ],
      "name": "pidStrategies",
      "outputs": [
        {
          "internalType": "address",
          "name": "",
          "type": "address"
        }
      ],
      "stateMutability": "view",
      "type": "function"
    },
    {
      "inputs": [
        {
          "internalType": "uint256",
          "name": "",
          "type": "uint256"
        }
      ],
      "name": "poolInfo",
      "outputs": [
        {
          "components": [
            {
              "internalType": "contract IERC20",
              "name": "token",
              "type": "address"
            },
            {
              "internalType": "uint8",
              "name": "tokenDecimals",
              "type": "uint8"
            },
            {
              "internalType": "uint16",
              "name": "apy",
              "type": "uint16"
            },
            {
              "internalType": "address",
              "name": "projectWallet",
              "type": "address"
            },
            {
              "internalType": "string",
              "name": "projectName",
              "type": "string"
            },
            {
              "internalType": "uint256",
              "name": "poolCap",
              "type": "uint256"
            },
            {
              "internalType": "uint256",
              "name": "totalStaked",
              "type": "uint256"
            },
            {
              "internalType": "uint256",
              "name": "scalingMultiplier",
              "type": "uint256"
            }
          ],
          "internalType": "struct ISaloon.GeneralInfo",
          "name": "generalInfo",
          "type": "tuple"
        },
        {
          "components": [
            {
              "internalType": "uint256",
              "name": "projectDepositHeld",
              "type": "uint256"
            },
            {
              "internalType": "uint256",
              "name": "projectDepositInStrategy",
              "type": "uint256"
            }
          ],
          "internalType": "struct ISaloon.DepositInfo",
          "name": "depositInfo",
          "type": "tuple"
        },
        {
          "components": [
            {
              "internalType": "uint256",
              "name": "premiumBalance",
              "type": "uint256"
            },
            {
              "internalType": "uint256",
              "name": "premiumAvailable",
              "type": "uint256"
            }
          ],
          "internalType": "struct ISaloon.PremiumInfo",
          "name": "premiumInfo",
          "type": "tuple"
        },
        {
          "components": [
            {
              "internalType": "uint256",
              "name": "timelock",
              "type": "uint256"
            },
            {
              "internalType": "uint256",
              "name": "timeLimit",
              "type": "uint256"
            },
            {
              "internalType": "uint256",
              "name": "withdrawalScheduledAmount",
              "type": "uint256"
            },
            {
              "internalType": "bool",
              "name": "withdrawalExecuted",
              "type": "bool"
            }
          ],
          "internalType": "struct ISaloon.TimelockInfo",
          "name": "poolTimelock",
          "type": "tuple"
        },
        {
          "components": [
            {
              "internalType": "uint256",
              "name": "currentX",
              "type": "uint256"
            },
            {
              "internalType": "uint256",
              "name": "currentY",
              "type": "uint256"
            },
            {
              "internalType": "uint256",
              "name": "totalSupply",
              "type": "uint256"
            },
            {
              "internalType": "uint256[]",
              "name": "unstakedTokens",
              "type": "uint256[]"
            }
          ],
          "internalType": "struct ISaloon.CurveInfo",
          "name": "curveInfo",
          "type": "tuple"
        },
        {
          "components": [
            {
              "internalType": "address",
              "name": "referrer",
              "type": "address"
            },
            {
              "internalType": "uint256",
              "name": "referralFee",
              "type": "uint256"
            },
            {
              "internalType": "uint256",
              "name": "endTime",
              "type": "uint256"
            }
          ],
          "internalType": "struct ISaloon.ReferralInfo",
          "name": "referralInfo",
          "type": "tuple"
        },
        {
          "internalType": "uint256",
          "name": "freezeTime",
          "type": "uint256"
        },
        {
          "internalType": "bool",
          "name": "isActive",
          "type": "bool"
        }
      ],
      "stateMutability": "view",
      "type": "function"
    },
    {
      "inputs": [
        {
          "internalType": "uint256",
          "name": "_pid",
          "type": "uint256"
        },
        {
          "internalType": "uint256",
          "name": "_amount",
          "type": "uint256"
        }
      ],
      "name": "projectDepositWithdrawal",
      "outputs": [
        {
          "internalType": "bool",
          "name": "",
          "type": "bool"
        }
      ],
      "stateMutability": "nonpayable",
      "type": "function"
    },
    {
      "inputs": [],
      "name": "proxiableUUID",
      "outputs": [
        {
          "internalType": "bytes32",
          "name": "",
          "type": "bytes32"
        }
      ],
      "stateMutability": "view",
      "type": "function"
    },
    {
      "inputs": [
        {
          "internalType": "address",
          "name": "_token",
          "type": "address"
        },
        {
          "internalType": "uint256",
          "name": "_amount",
          "type": "uint256"
        }
      ],
      "name": "receiveStrategyYield",
      "outputs": [],
      "stateMutability": "nonpayable",
      "type": "function"
    },
    {
      "inputs": [
        {
          "internalType": "address",
          "name": "",
          "type": "address"
        },
        {
          "internalType": "address",
          "name": "",
          "type": "address"
        }
      ],
      "name": "referralBalances",
      "outputs": [
        {
          "internalType": "uint256",
          "name": "",
          "type": "uint256"
        }
      ],
      "stateMutability": "view",
      "type": "function"
    },
    {
      "inputs": [],
      "name": "saloonBounty",
      "outputs": [
        {
          "internalType": "contract ISaloonBounty",
          "name": "",
          "type": "address"
        }
      ],
      "stateMutability": "view",
      "type": "function"
    },
    {
      "inputs": [
        {
          "internalType": "address",
          "name": "",
          "type": "address"
        }
      ],
      "name": "saloonBountyProfit",
      "outputs": [
        {
          "internalType": "uint256",
          "name": "",
          "type": "uint256"
        }
      ],
      "stateMutability": "view",
      "type": "function"
    },
    {
      "inputs": [],
      "name": "saloonManager",
      "outputs": [
        {
          "internalType": "contract ISaloonManager",
          "name": "",
          "type": "address"
        }
      ],
      "stateMutability": "view",
      "type": "function"
    },
    {
      "inputs": [
        {
          "internalType": "address",
          "name": "",
          "type": "address"
        }
      ],
      "name": "saloonPremiumProfit",
      "outputs": [
        {
          "internalType": "uint256",
          "name": "",
          "type": "uint256"
        }
      ],
      "stateMutability": "view",
      "type": "function"
    },
    {
      "inputs": [],
      "name": "saloonProjectPortal",
      "outputs": [
        {
          "internalType": "contract ISaloonProjectPortal",
          "name": "",
          "type": "address"
        }
      ],
      "stateMutability": "view",
      "type": "function"
    },
    {
      "inputs": [
        {
          "internalType": "address",
          "name": "",
          "type": "address"
        }
      ],
      "name": "saloonStrategyProfit",
      "outputs": [
        {
          "internalType": "uint256",
          "name": "",
          "type": "uint256"
        }
      ],
      "stateMutability": "view",
      "type": "function"
    },
    {
      "inputs": [
        {
          "internalType": "uint256",
          "name": "_pid",
          "type": "uint256"
        },
        {
          "internalType": "uint256",
          "name": "_amount",
          "type": "uint256"
        }
      ],
      "name": "scheduleProjectDepositWithdrawal",
      "outputs": [
        {
          "internalType": "bool",
          "name": "",
          "type": "bool"
        }
      ],
      "stateMutability": "nonpayable",
      "type": "function"
    },
    {
      "inputs": [
        {
          "internalType": "uint256",
          "name": "_tokenId",
          "type": "uint256"
        }
      ],
      "name": "scheduleUnstake",
      "outputs": [
        {
          "internalType": "bool",
          "name": "",
          "type": "bool"
        }
      ],
      "stateMutability": "nonpayable",
      "type": "function"
    },
    {
      "inputs": [
        {
          "internalType": "uint256",
          "name": "_pid",
          "type": "uint256"
        },
        {
          "internalType": "uint256",
          "name": "_poolCap",
          "type": "uint256"
        },
        {
          "internalType": "uint16",
          "name": "_apy",
          "type": "uint16"
        },
        {
          "internalType": "uint256",
          "name": "_deposit",
          "type": "uint256"
        },
        {
          "internalType": "string",
          "name": "_strategyName",
          "type": "string"
        }
      ],
      "name": "setAPYandPoolCapAndDeposit",
      "outputs": [],
      "stateMutability": "nonpayable",
      "type": "function"
    },
    {
      "inputs": [
        {
          "internalType": "contract ISaloonManager",
          "name": "_saloonManager",
          "type": "address"
        },
        {
          "internalType": "contract ISaloonProjectPortal",
          "name": "_saloonProjectPortal",
          "type": "address"
        },
        {
          "internalType": "contract ISaloonBounty",
          "name": "_saloonBounty",
          "type": "address"
        }
      ],
      "name": "setImplementations",
      "outputs": [],
      "stateMutability": "nonpayable",
      "type": "function"
    },
    {
      "inputs": [
        {
          "internalType": "address",
          "name": "_strategyFactory",
          "type": "address"
        }
      ],
      "name": "setStrategyFactory",
      "outputs": [],
      "stateMutability": "nonpayable",
      "type": "function"
    },
    {
      "inputs": [
        {
          "internalType": "uint256",
          "name": "_pid",
          "type": "uint256"
        },
        {
          "internalType": "uint256",
          "name": "_amount",
          "type": "uint256"
        }
      ],
      "name": "stake",
      "outputs": [],
      "stateMutability": "nonpayable",
      "type": "function"
    },
    {
      "inputs": [
        {
          "internalType": "address",
          "name": "",
          "type": "address"
        }
      ],
      "name": "strategyAddressToPid",
      "outputs": [
        {
          "internalType": "uint256",
          "name": "",
          "type": "uint256"
        }
      ],
      "stateMutability": "view",
      "type": "function"
    },
    {
      "inputs": [
        {
          "internalType": "address",
          "name": "",
          "type": "address"
        }
      ],
      "name": "tokenWhitelist",
      "outputs": [
        {
          "internalType": "bool",
          "name": "",
          "type": "bool"
        }
      ],
      "stateMutability": "view",
      "type": "function"
    },
    {
      "inputs": [
        {
          "internalType": "address",
          "name": "newOwner",
          "type": "address"
        }
      ],
      "name": "transferOwnership",
      "outputs": [],
      "stateMutability": "nonpayable",
      "type": "function"
    },
    {
      "inputs": [
        {
          "internalType": "uint256",
          "name": "_tokenId",
          "type": "uint256"
        },
        {
          "internalType": "bool",
          "name": "_shouldHarvest",
          "type": "bool"
        }
      ],
      "name": "unstake",
      "outputs": [
        {
          "internalType": "bool",
          "name": "",
          "type": "bool"
        }
      ],
      "stateMutability": "nonpayable",
      "type": "function"
    },
    {
      "inputs": [
        {
          "internalType": "uint256",
          "name": "_pid",
          "type": "uint256"
        },
        {
          "internalType": "address",
          "name": "_projectWallet",
          "type": "address"
        }
      ],
      "name": "updateProjectWalletAddress",
      "outputs": [],
      "stateMutability": "nonpayable",
      "type": "function"
    },
    {
      "inputs": [
        {
          "internalType": "address",
          "name": "_token",
          "type": "address"
        },
        {
          "internalType": "bool",
          "name": "_whitelisted",
          "type": "bool"
        },
        {
          "internalType": "uint256",
          "name": "_minStakeAmount",
          "type": "uint256"
        }
      ],
      "name": "updateTokenWhitelist",
      "outputs": [
        {
          "internalType": "bool",
          "name": "",
          "type": "bool"
        }
      ],
      "stateMutability": "nonpayable",
      "type": "function"
    },
    {
      "inputs": [
        {
          "internalType": "address",
          "name": "newImplementation",
          "type": "address"
        }
      ],
      "name": "upgradeTo",
      "outputs": [],
      "stateMutability": "nonpayable",
      "type": "function"
    },
    {
      "inputs": [
        {
          "internalType": "address",
          "name": "newImplementation",
          "type": "address"
        },
        {
          "internalType": "bytes",
          "name": "data",
          "type": "bytes"
        }
      ],
      "name": "upgradeToAndCall",
      "outputs": [],
      "stateMutability": "payable",
      "type": "function"
    },
    {
      "inputs": [
        {
          "internalType": "uint256",
          "name": "_pid",
          "type": "uint256"
        }
      ],
      "name": "windDownBounty",
      "outputs": [
        {
          "internalType": "bool",
          "name": "",
          "type": "bool"
        }
      ],
      "stateMutability": "nonpayable",
      "type": "function"
    },
    {
      "inputs": [
        {
          "internalType": "uint256",
          "name": "_pid",
          "type": "uint256"
        }
      ],
      "name": "withdrawProjectYield",
      "outputs": [
        {
          "internalType": "uint256",
          "name": "returnedAmount",
          "type": "uint256"
        }
      ],
      "stateMutability": "nonpayable",
      "type": "function"
    }
  ],
  "bytecode": {
    "object": "0x60a06040523060805234801561001457600080fd5b506080516124b461004c60003960008181610e3c01528181610e8501528181610f6a01528181610faa015261103d01526124b46000f3fe6080604052600436106102ae5760003560e01c80638da5cb5b11610175578063b20b2429116100dc578063d075afac11610095578063e78ea3df1161006f578063e78ea3df14610979578063ecd7fbed14610999578063f2fde38b146109b9578063f47ec3be146109d957600080fd5b8063d075afac1461090c578063db53e8b51461092c578063e45abd0f1461094c57600080fd5b8063b20b24291461083d578063b842e87f1461086a578063bb7019c11461087f578063c0c53b8b1461089f578063ca006148146108bf578063cf9564b9146108ec57600080fd5b8063995974c41161012e578063995974c41461077d5780639ebea88c1461079d5780639f224f35146107bd578063a089a520146107dd578063a5352bfd146107fd578063ae07f9481461081d57600080fd5b80638da5cb5b146106b25780639300d238146106d0578063949a4a4a146106f0578063957deecc1461071057806396ea48e81461073d578063983c1ce01461075d57600080fd5b80633659cfe611610219578063598d17bf116101d2578063598d17bf146105e05780635de406dc1461060d578063753d75631461062d57806375bfd63d1461065d57806379923898146106725780637b0472f01461069257600080fd5b80633659cfe61461053657806339458723146105565780633e8888d9146105835780634f1ef2861461059857806352d1902d146105ab5780635669cbef146105c057600080fd5b8063220e11241161026b578063220e112414610476578063277fd2a1146104965780632cb0dfcc146104b65780632dbe051e146104d657806330ca0794146104f657806332fce6021461051657600080fd5b8063011b408b146102b3578063074ecf03146102fe578063106d08df146103575780631526fe27146103875780631aebcecb146103bb5780631f8bc790146103dd575b600080fd5b3480156102bf57600080fd5b506102eb6102ce366004611bee565b600960209081526000928352604080842090915290825290205481565b6040519081526020015b60405180910390f35b34801561030a57600080fd5b5061033f610319366004611c27565b600b6020908152600092835260408084209091529082529020546001600160a01b031681565b6040516001600160a01b0390911681526020016102f5565b34801561036357600080fd5b50610377610372366004611c49565b6109f9565b60405190151581526020016102f5565b34801561039357600080fd5b506103a76103a2366004611c49565b610a63565b6040516102f5989796959493929190611d12565b3480156103c757600080fd5b506103db6103d6366004611e4d565b610cbf565b005b3480156103e957600080fd5b5061043b6103f8366004611c49565b6004602081905260009182526040909120805460018201546002830154600384015494840154600585015460068601546007909601549496939592949192909188565b604080519889526020890197909752958701949094526060860192909252608085015260a084015260c083015260e0820152610100016102f5565b34801561048257600080fd5b5060005461033f906001600160a01b031681565b3480156104a257600080fd5b5060015461033f906001600160a01b031681565b3480156104c257600080fd5b506103776104d1366004611e8e565b610d32565b3480156104e257600080fd5b506103776104f1366004611c49565b610db3565b34801561050257600080fd5b506103db610511366004611f8a565b610dd3565b34801561052257600080fd5b506102eb610531366004611ff5565b610dff565b34801561054257600080fd5b506103db61055136600461207c565b610e32565b34801561056257600080fd5b506102eb61057136600461207c565b60106020526000908152604090205481565b34801561058f57600080fd5b50610377610f1a565b6103db6105a6366004612099565b610f60565b3480156105b757600080fd5b506102eb611030565b3480156105cc57600080fd5b506103776105db366004611c27565b6110e3565b3480156105ec57600080fd5b506102eb6105fb36600461207c565b60086020526000908152604090205481565b34801561061957600080fd5b506103db610628366004611c27565b611113565b34801561063957600080fd5b5061037761064836600461207c565b600e6020526000908152604090205460ff1681565b34801561066957600080fd5b506103db611139565b34801561067e57600080fd5b5060025461033f906001600160a01b031681565b34801561069e57600080fd5b506103db6106ad366004611c27565b61117a565b3480156106be57600080fd5b506044546001600160a01b031661033f565b3480156106dc57600080fd5b506103db6106eb3660046120fd565b6111a0565b3480156106fc57600080fd5b506103db61070b366004611c49565b611206565b34801561071c57600080fd5b506102eb61072b36600461207c565b600d6020526000908152604090205481565b34801561074957600080fd5b506102eb610758366004611c27565b611225565b34801561076957600080fd5b50610377610778366004611c27565b611256565b34801561078957600080fd5b506103db610798366004612148565b61127f565b3480156107a957600080fd5b506103776107b836600461216d565b6112ad565b3480156107c957600080fd5b5061033f6107d8366004611c49565b6112d7565b3480156107e957600080fd5b506103776107f836600461207c565b611301565b34801561080957600080fd5b506103db61081836600461207c565b61132b565b34801561082957600080fd5b506103db610838366004612199565b61135a565b34801561084957600080fd5b506102eb610858366004611c49565b600c6020526000908152604090205481565b34801561087657600080fd5b506103db61137a565b34801561088b57600080fd5b5061037761089a366004611c49565b6113fa565b3480156108ab57600080fd5b506103db6108ba3660046120fd565b61141a565b3480156108cb57600080fd5b506102eb6108da36600461207c565b60076020526000908152604090205481565b3480156108f857600080fd5b50610377610907366004611bee565b611538565b34801561091857600080fd5b506103db6109273660046121e9565b61156a565b34801561093857600080fd5b506102eb610947366004611c49565b6115b1565b34801561095857600080fd5b506102eb61096736600461207c565b60066020526000908152604090205481565b34801561098557600080fd5b506103db610994366004611c49565b6115d1565b3480156109a557600080fd5b506103776109b436600461207c565b6115f0565b3480156109c557600080fd5b506103db6109d436600461207c565b61161a565b3480156109e557600080fd5b506103db6109f4366004611c49565b6116a9565b6000610a5d63106d08df60e01b83604051602401610a1991815260200190565b60408051601f198184030181529190526020810180516001600160e01b03166001600160e01b0319909316929092179091526002546001600160a01b0316906116c8565b50919050565b60038181548110610a7357600080fd5b60009182526020918290206040805161010081018252601790930290910180546001600160a01b03808216855260ff600160a01b8304169585019590955261ffff600160a81b909104169183019190915260018101549092166060820152600282018054929350909183916080840191610aec90612238565b80601f0160208091040260200160405190810160405280929190818152602001828054610b1890612238565b8015610b655780601f10610b3a57610100808354040283529160200191610b65565b820191906000526020600020905b815481529060010190602001808311610b4857829003601f168201915b50505091835250506003820154602080830191909152600483015460408084019190915260059093015460609283015282518084018452600686015481526007860154818301528351808501855260088701548152600987015481840152845160808082018752600a8901548252600b89015482860152600c89015482880152600d89015460ff1615158287015286519081018752600e890180548252600f8a01548287015260108a01548289015260118a018054895181890281018901909a52808a52999a9599949893979596929591949186019392909190830182828015610c6e57602002820191906000526020600020905b815481526020019060010190808311610c5a575b5050509190925250506040805160608101825260128501546001600160a01b031681526013850154602082015260148501549181019190915260158401546016909401549293909290915060ff1688565b6040516001600160a01b038316602482015260448101829052610d2d90631aebcecb60e01b906064015b60408051601f198184030181529190526020810180516001600160e01b03166001600160e01b0319909316929092179091526001546001600160a01b0316906116c8565b505050565b6040516001600160a01b0384166024820152821515604482015260648101829052600090610dab90630b2c37f360e21b906084015b60408051601f198184030181529190526020810180516001600160e01b03166001600160e01b0319909316929092179091526000546001600160a01b0316906116c8565b509392505050565b6000610a5d632dbe051e60e01b83604051602401610d6791815260200190565b610df76330ca079460e01b8686868686604051602401610ce995949392919061226c565b505050505050565b6000610e276332fce60260e01b888888888888604051602401610d67969594939291906122a6565b509695505050505050565b6001600160a01b037f0000000000000000000000000000000000000000000000000000000000000000163003610e835760405162461bcd60e51b8152600401610e7a906122ed565b60405180910390fd5b7f00000000000000000000000000000000000000000000000000000000000000006001600160a01b0316610ecc600080516020612438833981519152546001600160a01b031690565b6001600160a01b031614610ef25760405162461bcd60e51b8152600401610e7a90612339565b610efb81611711565b60408051600080825260208201909252610f1791839190611719565b50565b6040805160048152602481019091526020810180516001600160e01b0316633e8888d960e01b179052600080549091610f5c916001600160a01b0316906116c8565b5090565b6001600160a01b037f0000000000000000000000000000000000000000000000000000000000000000163003610fa85760405162461bcd60e51b8152600401610e7a906122ed565b7f00000000000000000000000000000000000000000000000000000000000000006001600160a01b0316610ff1600080516020612438833981519152546001600160a01b031690565b6001600160a01b0316146110175760405162461bcd60e51b8152600401610e7a90612339565b61102082611711565b61102c82826001611719565b5050565b6000306001600160a01b037f000000000000000000000000000000000000000000000000000000000000000016146110d05760405162461bcd60e51b815260206004820152603860248201527f555550535570677261646561626c653a206d757374206e6f742062652063616c60448201527f6c6564207468726f7567682064656c656761746563616c6c00000000000000006064820152608401610e7a565b5060008051602061243883398151915290565b604051602481018390526044810182905260009061110c90635669cbef60e01b90606401610ce9565b5092915050565b6040516024810183905260448101829052610d2d9063177901b760e21b90606401610d67565b6040805160048152602481019091526020810180516001600160e01b03166375bfd63d60e01b179052600254610f17916001600160a01b03909116906116c8565b6040516024810183905260448101829052610d2d906307b0472f60e41b90606401610a19565b604080516001600160a01b038581166024830181905285821660448401529084166064808401919091528351808403909101815260849092019092526020810180516001600160e01b03166312601a4760e31b17905261120091906116c8565b50505050565b6040516024810182905261102c90634a4d252560e11b90604401610a19565b6005602052816000526040600020818154811061124157600080fd5b90600052602060002001600091509150505481565b604051602481018390526044810182905260009061110c906304c1e0e760e51b90606401610ce9565b604051602481018390526001600160a01b0382166044820152610d2d906326565d3160e21b90606401610ce9565b60405160248101839052811515604482015260009061110c906327afaa2360e21b90606401610a19565b600f81815481106112e757600080fd5b6000918252602090912001546001600160a01b0316905081565b6040516001600160a01b0382166024820152600090610a5d906305044d2960e51b90604401610d67565b611333611884565b6040516001600160a01b038216602482015261102c9063a5352bfd60e01b90604401610d67565b61120063ae07f94860e01b848484604051602401610ce993929190612385565b6045546001600160a01b031633146113e35760405162461bcd60e51b815260206004820152602660248201527f6f6e6c792070656e64696e67206f776e65722063616e2061636365707420747260448201526530b739b332b960d11b6064820152608401610e7a565b6045546113f8906001600160a01b03166118de565b565b6000610a5d63bb7019c160e01b83604051602401610ce991815260200190565b601154610100900460ff161580801561143a5750601154600160ff909116105b806114545750303b158015611454575060115460ff166001145b6114b75760405162461bcd60e51b815260206004820152602e60248201527f496e697469616c697a61626c653a20636f6e747261637420697320616c72656160448201526d191e481a5b9a5d1a585b1a5e995960921b6064820152608401610e7a565b6011805460ff1916600117905580156114da576011805461ff0019166101001790555b6114e261193b565b6114ed8484846111a0565b8015611200576011805461ff0019169055604051600181527f7f26b83ff96e1f2b6a682f133852f6798a09c465da95921460cefb38474024989060200160405180910390a150505050565b6040516001600160a01b0380841660248301528216604482015260009061110c9063cf9564b960e01b90606401610d67565b604051602481018590526001600160a01b038416604482015261ffff8084166064830152821660848201526115aa9063341d6beb60e21b9060a401610a19565b5050505050565b6000610a5d63db53e8b560e01b83604051602401610ce991815260200190565b6040516024810182905261102c9063e78ea3df60e01b90604401610ce9565b6040516001600160a01b0382166024820152600090610a5d9063ecd7fbed60e01b90604401610d67565b611622611884565b6001600160a01b0381166116875760405162461bcd60e51b815260206004820152602660248201527f4f776e61626c653a206e6577206f776e657220697320746865207a65726f206160448201526564647265737360d01b6064820152608401610e7a565b604580546001600160a01b0319166001600160a01b0392909216919091179055565b6040516024810182905261102c90637a3f61df60e11b90604401610a19565b6040518151600090819060208501865af46116fa573d6116f15763037b81af60e11b8152600481fd5b3d6000823e3d81fd5b3d8152602081013d6000823e3d0160405292915050565b610f17611884565b7f4910fdfa16fed3260ed0e7147f7cc6da11a60208b5b9406d12a635614ffd91435460ff161561174c57610d2d8361196a565b826001600160a01b03166352d1902d6040518163ffffffff1660e01b8152600401602060405180830381865afa9250505080156117a6575060408051601f3d908101601f191682019092526117a3918101906123a4565b60015b6118095760405162461bcd60e51b815260206004820152602e60248201527f45524331393637557067726164653a206e657720696d706c656d656e7461746960448201526d6f6e206973206e6f74205555505360901b6064820152608401610e7a565b60008051602061243883398151915281146118785760405162461bcd60e51b815260206004820152602960248201527f45524331393637557067726164653a20756e737570706f727465642070726f786044820152681a58589b195555525160ba1b6064820152608401610e7a565b50610d2d838383611a06565b6044546001600160a01b031633146113f85760405162461bcd60e51b815260206004820181905260248201527f4f776e61626c653a2063616c6c6572206973206e6f7420746865206f776e65726044820152606401610e7a565b604480546001600160a01b038381166001600160a01b03198084168217909455604580549094169093556040519116919082907f8be0079c531659141344cd1fd0a4f28419497f9722a3daafe3b4186f6b6457e090600090a35050565b601154610100900460ff166119625760405162461bcd60e51b8152600401610e7a906123bd565b6113f8611a2b565b6001600160a01b0381163b6119d75760405162461bcd60e51b815260206004820152602d60248201527f455243313936373a206e657720696d706c656d656e746174696f6e206973206e60448201526c1bdd08184818dbdb9d1c9858dd609a1b6064820152608401610e7a565b60008051602061243883398151915280546001600160a01b0319166001600160a01b0392909216919091179055565b611a0f83611a5b565b600082511180611a1c5750805b15610d2d576112008383611a9b565b601154610100900460ff16611a525760405162461bcd60e51b8152600401610e7a906123bd565b6113f8336118de565b611a648161196a565b6040516001600160a01b038216907fbc7cd75a20ee27fd9adebab32041f755214dbc6bffa90cc0225b39da2e5c2d3b90600090a250565b60606001600160a01b0383163b611b035760405162461bcd60e51b815260206004820152602660248201527f416464726573733a2064656c65676174652063616c6c20746f206e6f6e2d636f6044820152651b9d1c9858dd60d21b6064820152608401610e7a565b600080846001600160a01b031684604051611b1e9190612408565b600060405180830381855af49150503d8060008114611b59576040519150601f19603f3d011682016040523d82523d6000602084013e611b5e565b606091505b5091509150611b86828260405180606001604052806027815260200161245860279139611b8f565b95945050505050565b60608315611b9e575081611ba8565b611ba88383611baf565b9392505050565b815115611bbf5781518083602001fd5b8060405162461bcd60e51b8152600401610e7a9190612424565b6001600160a01b0381168114610f1757600080fd5b60008060408385031215611c0157600080fd5b8235611c0c81611bd9565b91506020830135611c1c81611bd9565b809150509250929050565b60008060408385031215611c3a57600080fd5b50508035926020909101359150565b600060208284031215611c5b57600080fd5b5035919050565b60005b83811015611c7d578181015183820152602001611c65565b50506000910152565b60008151808452611c9e816020860160208601611c62565b601f01601f19169290920160200192915050565b60006080830182518452602080840151818601526040840151604086015260608401516080606087015282815180855260a0880191508383019450600092505b80831015610e275784518252938301936001929092019190830190611cf2565b6101e080825289516001600160a01b039081169183019190915260208a015160ff1661020083015260408a015161ffff1661022083015260608a0151166102408201526080890151610100610260830152600090611d746102e0840182611c86565b905060a08b015161028084015260c08b01516102a084015260e08b01516102c0840152611dae602084018b80518252602090810151910152565b8851606084015260208901516080840152875160a0840152602088015160c0840152604088015160e084015260608801511515610100840152828103610120840152611dfa8188611cb2565b86516001600160a01b0316610140850152602087015161016085015260408701516101808501529150611e2a9050565b836101a0830152611e406101c083018415159052565b9998505050505050505050565b60008060408385031215611e6057600080fd5b8235611e6b81611bd9565b946020939093013593505050565b80358015158114611e8957600080fd5b919050565b600080600060608486031215611ea357600080fd5b8335611eae81611bd9565b9250611ebc60208501611e79565b9150604084013590509250925092565b803561ffff81168114611e8957600080fd5b634e487b7160e01b600052604160045260246000fd5b600067ffffffffffffffff80841115611f0f57611f0f611ede565b604051601f8501601f19908116603f01168101908282118183101715611f3757611f37611ede565b81604052809350858152868686011115611f5057600080fd5b858560208301376000602087830101525050509392505050565b600082601f830112611f7b57600080fd5b611ba883833560208501611ef4565b600080600080600060a08688031215611fa257600080fd5b8535945060208601359350611fb960408701611ecc565b925060608601359150608086013567ffffffffffffffff811115611fdc57600080fd5b611fe888828901611f6a565b9150509295509295909350565b60008060008060008060c0878903121561200e57600080fd5b863561201981611bd9565b9550602087013561202981611bd9565b9450604087013567ffffffffffffffff81111561204557600080fd5b61205189828a01611f6a565b945050606087013561206281611bd9565b9598949750929560808101359460a0909101359350915050565b60006020828403121561208e57600080fd5b8135611ba881611bd9565b600080604083850312156120ac57600080fd5b82356120b781611bd9565b9150602083013567ffffffffffffffff8111156120d357600080fd5b8301601f810185136120e457600080fd5b6120f385823560208401611ef4565b9150509250929050565b60008060006060848603121561211257600080fd5b833561211d81611bd9565b9250602084013561212d81611bd9565b9150604084013561213d81611bd9565b809150509250925092565b6000806040838503121561215b57600080fd5b823591506020830135611c1c81611bd9565b6000806040838503121561218057600080fd5b8235915061219060208401611e79565b90509250929050565b6000806000606084860312156121ae57600080fd5b8335925060208401359150604084013567ffffffffffffffff8111156121d357600080fd5b6121df86828701611f6a565b9150509250925092565b600080600080608085870312156121ff57600080fd5b84359350602085013561221181611bd9565b925061221f60408601611ecc565b915061222d60608601611ecc565b905092959194509250565b600181811c9082168061224c57607f821691505b602082108103610a5d57634e487b7160e01b600052602260045260246000fd5b85815284602082015261ffff8416604082015282606082015260a06080820152600061229b60a0830184611c86565b979650505050505050565b600060018060a01b038089168352808816602084015260c060408401526122d060c0840188611c86565b9516606083015250608081019290925260a0909101529392505050565b6020808252602c908201527f46756e6374696f6e206d7573742062652063616c6c6564207468726f7567682060408201526b19195b1959d85d1958d85b1b60a21b606082015260800190565b6020808252602c908201527f46756e6374696f6e206d7573742062652063616c6c6564207468726f7567682060408201526b6163746976652070726f787960a01b606082015260800190565b838152826020820152606060408201526000611b866060830184611c86565b6000602082840312156123b657600080fd5b5051919050565b6020808252602b908201527f496e697469616c697a61626c653a20636f6e7472616374206973206e6f74206960408201526a6e697469616c697a696e6760a81b606082015260800190565b6000825161241a818460208701611c62565b9190910192915050565b602081526000611ba86020830184611c8656fe360894a13ba1a3210667c828492db98dca3e2076cc3735a920a3ca505d382bbc416464726573733a206c6f772d6c6576656c2064656c65676174652063616c6c206661696c6564a26469706673582212205741e0b037d5abaf1b727a3b824b692b66a39d6fd9cd8000809c13114c3ce67064736f6c63430008110033",
    "linkReferences": {}
  },
  "methodIdentifiers": {
    "acceptOwnershipTransfer()": "b842e87f",
    "activeStrategies(uint256)": "b20b2429",
    "activeTokens(uint256)": "9f224f35",
    "addNewBountyPool(address,address,string,address,uint256,uint256)": "32fce602",
    "billPremium(uint256)": "2dbe051e",
    "claimPremium(uint256)": "f47ec3be",
    "collectAllReferralProfits()": "3e8888d9",
    "collectAllSaloonProfits(address)": "ecd7fbed",
    "collectReferralProfit(address)": "a089a520",
    "collectSaloonProfits(address,address)": "cf9564b9",
    "compoundYieldForPid(uint256)": "e78ea3df",
    "consolidate(uint256)": "949a4a4a",
    "consolidateAll()": "75bfd63d",
    "extendReferralPeriod(uint256,uint256)": "5de406dc",
    "initialize(address,address,address)": "c0c53b8b",
    "makeProjectDeposit(uint256,uint256,string)": "ae07f948",
    "minTokenStakeAmount(address)": "39458723",
    "nftInfo(uint256)": "1f8bc790",
    "owner()": "8da5cb5b",
    "payBounty(uint256,address,uint16,uint16)": "d075afac",
    "pidNFTList(uint256,uint256)": "96ea48e8",
    "pidStrategies(uint256,bytes32)": "074ecf03",
    "poolInfo(uint256)": "1526fe27",
    "projectDepositWithdrawal(uint256,uint256)": "983c1ce0",
    "proxiableUUID()": "52d1902d",
    "receiveStrategyYield(address,uint256)": "1aebcecb",
    "referralBalances(address,address)": "011b408b",
    "saloonBounty()": "79923898",
    "saloonBountyProfit(address)": "e45abd0f",
    "saloonManager()": "220e1124",
    "saloonPremiumProfit(address)": "ca006148",
    "saloonProjectPortal()": "277fd2a1",
    "saloonStrategyProfit(address)": "598d17bf",
    "scheduleProjectDepositWithdrawal(uint256,uint256)": "5669cbef",
    "scheduleUnstake(uint256)": "106d08df",
    "setAPYandPoolCapAndDeposit(uint256,uint256,uint16,uint256,string)": "30ca0794",
    "setImplementations(address,address,address)": "9300d238",
    "setStrategyFactory(address)": "a5352bfd",
    "stake(uint256,uint256)": "7b0472f0",
    "strategyAddressToPid(address)": "957deecc",
    "tokenWhitelist(address)": "753d7563",
    "transferOwnership(address)": "f2fde38b",
    "unstake(uint256,bool)": "9ebea88c",
    "updateProjectWalletAddress(uint256,address)": "995974c4",
    "updateTokenWhitelist(address,bool,uint256)": "2cb0dfcc",
    "upgradeTo(address)": "3659cfe6",
    "upgradeToAndCall(address,bytes)": "4f1ef286",
    "windDownBounty(uint256)": "bb7019c1",
    "withdrawProjectYield(uint256)": "db53e8b5"
  },
  "id": 51
}