{
  "abi": [
    {
      "inputs": [],
      "stateMutability": "nonpayable",
      "type": "constructor"
    },
    {
      "inputs": [
        {
          "internalType": "UD60x18",
          "name": "x",
          "type": "uint256"
        }
      ],
      "name": "PRBMathUD60x18__LogInputTooSmall",
      "type": "error"
    },
    {
      "inputs": [
        {
          "internalType": "uint256",
          "name": "x",
          "type": "uint256"
        }
      ],
      "name": "PRBMathUD60x18__ToUD60x18Overflow",
      "type": "error"
    },
    {
      "inputs": [
        {
          "internalType": "uint256",
          "name": "x",
          "type": "uint256"
        },
        {
          "internalType": "uint256",
          "name": "y",
          "type": "uint256"
        }
      ],
      "name": "PRBMath__MulDiv18Overflow",
      "type": "error"
    },
    {
      "inputs": [
        {
          "internalType": "uint256",
          "name": "x",
          "type": "uint256"
        },
        {
          "internalType": "uint256",
          "name": "y",
          "type": "uint256"
        },
        {
          "internalType": "uint256",
          "name": "denominator",
          "type": "uint256"
        }
      ],
      "name": "PRBMath__MulDivOverflow",
      "type": "error"
    },
    {
      "anonymous": false,
      "inputs": [
        {
          "indexed": true,
          "internalType": "address",
          "name": "owner",
          "type": "address"
        },
        {
          "indexed": true,
          "internalType": "address",
          "name": "approved",
          "type": "address"
        },
        {
          "indexed": true,
          "internalType": "uint256",
          "name": "tokenId",
          "type": "uint256"
        }
      ],
      "name": "Approval",
      "type": "event"
    },
    {
      "anonymous": false,
      "inputs": [
        {
          "indexed": true,
          "internalType": "address",
          "name": "owner",
          "type": "address"
        },
        {
          "indexed": true,
          "internalType": "address",
          "name": "operator",
          "type": "address"
        },
        {
          "indexed": false,
          "internalType": "bool",
          "name": "approved",
          "type": "bool"
        }
      ],
      "name": "ApprovalForAll",
      "type": "event"
    },
    {
      "anonymous": false,
      "inputs": [
        {
          "indexed": true,
          "internalType": "uint256",
          "name": "pid",
          "type": "uint256"
        },
        {
          "indexed": false,
          "internalType": "uint256",
          "name": "oldAmount",
          "type": "uint256"
        },
        {
          "indexed": false,
          "internalType": "uint256",
          "name": "newAmount",
          "type": "uint256"
        }
      ],
      "name": "BountyBalanceChanged",
      "type": "event"
    },
    {
      "anonymous": false,
      "inputs": [
        {
          "indexed": true,
          "internalType": "address",
          "name": "hunter",
          "type": "address"
        },
        {
          "indexed": true,
          "internalType": "address",
          "name": "token",
          "type": "address"
        },
        {
          "indexed": false,
          "internalType": "uint256",
          "name": "amount",
          "type": "uint256"
        }
      ],
      "name": "BountyPaid",
      "type": "event"
    },
    {
      "anonymous": false,
      "inputs": [
        {
          "indexed": false,
          "internalType": "uint8",
          "name": "version",
          "type": "uint8"
        }
      ],
      "name": "Initialized",
      "type": "event"
    },
    {
      "anonymous": false,
      "inputs": [
        {
          "indexed": true,
          "internalType": "uint256",
          "name": "pid",
          "type": "uint256"
        },
        {
          "indexed": true,
          "internalType": "address",
          "name": "token",
          "type": "address"
        },
        {
          "indexed": false,
          "internalType": "uint256",
          "name": "tokenDecimals",
          "type": "uint256"
        }
      ],
      "name": "NewBountyDeployed",
      "type": "event"
    },
    {
      "anonymous": false,
      "inputs": [
        {
          "indexed": true,
          "internalType": "uint256",
          "name": "pid",
          "type": "uint256"
        },
        {
          "indexed": false,
          "internalType": "uint256",
          "name": "amount",
          "type": "uint256"
        }
      ],
      "name": "PremiumBilled",
      "type": "event"
    },
    {
      "anonymous": false,
      "inputs": [
        {
          "indexed": true,
          "internalType": "address",
          "name": "user",
          "type": "address"
        },
        {
          "indexed": true,
          "internalType": "uint256",
          "name": "pid",
          "type": "uint256"
        },
        {
          "indexed": false,
          "internalType": "uint256",
          "name": "amount",
          "type": "uint256"
        }
      ],
      "name": "Staked",
      "type": "event"
    },
    {
      "anonymous": false,
      "inputs": [
        {
          "indexed": true,
          "internalType": "address",
          "name": "from",
          "type": "address"
        },
        {
          "indexed": true,
          "internalType": "address",
          "name": "to",
          "type": "address"
        },
        {
          "indexed": true,
          "internalType": "uint256",
          "name": "tokenId",
          "type": "uint256"
        }
      ],
      "name": "Transfer",
      "type": "event"
    },
    {
      "anonymous": false,
      "inputs": [
        {
          "indexed": true,
          "internalType": "address",
          "name": "user",
          "type": "address"
        },
        {
          "indexed": true,
          "internalType": "uint256",
          "name": "pid",
          "type": "uint256"
        },
        {
          "indexed": false,
          "internalType": "uint256",
          "name": "amount",
          "type": "uint256"
        }
      ],
      "name": "Unstaked",
      "type": "event"
    },
    {
      "anonymous": false,
      "inputs": [
        {
          "indexed": true,
          "internalType": "uint256",
          "name": "pid",
          "type": "uint256"
        },
        {
          "indexed": false,
          "internalType": "uint256",
          "name": "amount",
          "type": "uint256"
        }
      ],
      "name": "WithdrawalOrUnstakeScheduled",
      "type": "event"
    },
    {
      "anonymous": false,
      "inputs": [
        {
          "indexed": true,
          "internalType": "address",
          "name": "referrer",
          "type": "address"
        },
        {
          "indexed": false,
          "internalType": "uint256",
          "name": "amount",
          "type": "uint256"
        }
      ],
      "name": "referralPaid",
      "type": "event"
    },
    {
      "anonymous": false,
      "inputs": [
        {
          "indexed": true,
          "internalType": "address",
          "name": "token",
          "type": "address"
        },
        {
          "indexed": true,
          "internalType": "bool",
          "name": "whitelisted",
          "type": "bool"
        }
      ],
      "name": "tokenWhitelistUpdated",
      "type": "event"
    },
    {
      "inputs": [
        {
          "internalType": "address",
          "name": "to",
          "type": "address"
        },
        {
          "internalType": "uint256",
          "name": "tokenId",
          "type": "uint256"
        }
      ],
      "name": "approve",
      "outputs": [],
      "stateMutability": "nonpayable",
      "type": "function"
    },
    {
      "inputs": [
        {
          "internalType": "address",
          "name": "owner",
          "type": "address"
        }
      ],
      "name": "balanceOf",
      "outputs": [
        {
          "internalType": "uint256",
          "name": "",
          "type": "uint256"
        }
      ],
      "stateMutability": "view",
      "type": "function"
    },
    {
      "inputs": [
        {
          "internalType": "uint256",
          "name": "_pid",
          "type": "uint256"
        },
        {
          "internalType": "uint256",
          "name": "_stake",
          "type": "uint256"
        },
        {
          "internalType": "uint256",
          "name": "_memX",
          "type": "uint256"
        }
      ],
      "name": "calculateArbitraryEffectiveAPY",
      "outputs": [
        {
          "internalType": "uint256",
          "name": "scaledAPY",
          "type": "uint256"
        }
      ],
      "stateMutability": "view",
      "type": "function"
    },
    {
      "inputs": [
        {
          "internalType": "uint256",
          "name": "_pid",
          "type": "uint256"
        },
        {
          "internalType": "uint256",
          "name": "_stake",
          "type": "uint256"
        }
      ],
      "name": "calculateEffectiveAPY",
      "outputs": [
        {
          "internalType": "uint256",
          "name": "scaledAPY",
          "type": "uint256"
        }
      ],
      "stateMutability": "view",
      "type": "function"
    },
    {
      "inputs": [
        {
          "internalType": "uint256",
          "name": "_pid",
          "type": "uint256"
        }
      ],
      "name": "consolidate",
      "outputs": [],
      "stateMutability": "nonpayable",
      "type": "function"
    },
    {
      "inputs": [],
      "name": "consolidateAll",
      "outputs": [],
      "stateMutability": "nonpayable",
      "type": "function"
    },
    {
      "inputs": [
        {
          "internalType": "address",
          "name": "_owner",
          "type": "address"
        }
      ],
      "name": "getAllTokensByOwner",
      "outputs": [
        {
          "components": [
            {
              "internalType": "uint256",
              "name": "pid",
              "type": "uint256"
            },
            {
              "internalType": "uint256",
              "name": "amount",
              "type": "uint256"
            },
            {
              "internalType": "uint256",
              "name": "xDelta",
              "type": "uint256"
            },
            {
              "internalType": "uint256",
              "name": "apy",
              "type": "uint256"
            },
            {
              "internalType": "uint256",
              "name": "unclaimed",
              "type": "uint256"
            },
            {
              "internalType": "uint256",
              "name": "lastClaimedTime",
              "type": "uint256"
            },
            {
              "internalType": "uint256",
              "name": "timelock",
              "type": "uint256"
            },
            {
              "internalType": "uint256",
              "name": "timelimit",
              "type": "uint256"
            }
          ],
          "internalType": "struct BountyTokenNFT.NFTInfo[]",
          "name": "userTokens",
          "type": "tuple[]"
        }
      ],
      "stateMutability": "view",
      "type": "function"
    },
    {
      "inputs": [
        {
          "internalType": "uint256",
          "name": "tokenId",
          "type": "uint256"
        }
      ],
      "name": "getApproved",
      "outputs": [
        {
          "internalType": "address",
          "name": "",
          "type": "address"
        }
      ],
      "stateMutability": "view",
      "type": "function"
    },
    {
      "inputs": [
        {
          "internalType": "uint256",
          "name": "_pid",
          "type": "uint256"
        }
      ],
      "name": "getCurrentAPY",
      "outputs": [
        {
          "internalType": "uint256",
          "name": "currentAPY",
          "type": "uint256"
        }
      ],
      "stateMutability": "view",
      "type": "function"
    },
    {
      "inputs": [],
      "name": "index",
      "outputs": [
        {
          "internalType": "uint256",
          "name": "",
          "type": "uint256"
        }
      ],
      "stateMutability": "view",
      "type": "function"
    },
    {
      "inputs": [
        {
          "internalType": "address",
          "name": "owner",
          "type": "address"
        },
        {
          "internalType": "address",
          "name": "operator",
          "type": "address"
        }
      ],
      "name": "isApprovedForAll",
      "outputs": [
        {
          "internalType": "bool",
          "name": "",
          "type": "bool"
        }
      ],
      "stateMutability": "view",
      "type": "function"
    },
    {
      "inputs": [],
      "name": "name",
      "outputs": [
        {
          "internalType": "string",
          "name": "",
          "type": "string"
        }
      ],
      "stateMutability": "view",
      "type": "function"
    },
    {
      "inputs": [
        {
          "internalType": "uint256",
          "name": "",
          "type": "uint256"
        }
      ],
      "name": "nftInfo",
      "outputs": [
        {
          "internalType": "uint256",
          "name": "pid",
          "type": "uint256"
        },
        {
          "internalType": "uint256",
          "name": "amount",
          "type": "uint256"
        },
        {
          "internalType": "uint256",
          "name": "xDelta",
          "type": "uint256"
        },
        {
          "internalType": "uint256",
          "name": "apy",
          "type": "uint256"
        },
        {
          "internalType": "uint256",
          "name": "unclaimed",
          "type": "uint256"
        },
        {
          "internalType": "uint256",
          "name": "lastClaimedTime",
          "type": "uint256"
        },
        {
          "internalType": "uint256",
          "name": "timelock",
          "type": "uint256"
        },
        {
          "internalType": "uint256",
          "name": "timelimit",
          "type": "uint256"
        }
      ],
      "stateMutability": "view",
      "type": "function"
    },
    {
      "inputs": [
        {
          "internalType": "uint256",
          "name": "tokenId",
          "type": "uint256"
        }
      ],
      "name": "ownerOf",
      "outputs": [
        {
          "internalType": "address",
          "name": "",
          "type": "address"
        }
      ],
      "stateMutability": "view",
      "type": "function"
    },
    {
      "inputs": [
        {
          "internalType": "uint256",
          "name": "",
          "type": "uint256"
        },
        {
          "internalType": "uint256",
          "name": "",
          "type": "uint256"
        }
      ],
      "name": "pidNFTList",
      "outputs": [
        {
          "internalType": "uint256",
          "name": "",
          "type": "uint256"
        }
      ],
      "stateMutability": "view",
      "type": "function"
    },
    {
      "inputs": [
        {
          "internalType": "uint256",
          "name": "",
          "type": "uint256"
        }
      ],
      "name": "poolInfo",
      "outputs": [
        {
          "components": [
            {
              "internalType": "contract IERC20",
              "name": "token",
              "type": "address"
            },
            {
              "internalType": "uint8",
              "name": "tokenDecimals",
              "type": "uint8"
            },
            {
              "internalType": "uint16",
              "name": "apy",
              "type": "uint16"
            },
            {
              "internalType": "address",
              "name": "projectWallet",
              "type": "address"
            },
            {
              "internalType": "string",
              "name": "projectName",
              "type": "string"
            },
            {
              "internalType": "uint256",
              "name": "poolCap",
              "type": "uint256"
            },
            {
              "internalType": "uint256",
              "name": "totalStaked",
              "type": "uint256"
            },
            {
              "internalType": "uint256",
              "name": "scalingMultiplier",
              "type": "uint256"
            }
          ],
          "internalType": "struct ISaloon.GeneralInfo",
          "name": "generalInfo",
          "type": "tuple"
        },
        {
          "components": [
            {
              "internalType": "uint256",
              "name": "projectDepositHeld",
              "type": "uint256"
            },
            {
              "internalType": "uint256",
              "name": "projectDepositInStrategy",
              "type": "uint256"
            }
          ],
          "internalType": "struct ISaloon.DepositInfo",
          "name": "depositInfo",
          "type": "tuple"
        },
        {
          "components": [
            {
              "internalType": "uint256",
              "name": "premiumBalance",
              "type": "uint256"
            },
            {
              "internalType": "uint256",
              "name": "premiumAvailable",
              "type": "uint256"
            }
          ],
          "internalType": "struct ISaloon.PremiumInfo",
          "name": "premiumInfo",
          "type": "tuple"
        },
        {
          "components": [
            {
              "internalType": "uint256",
              "name": "timelock",
              "type": "uint256"
            },
            {
              "internalType": "uint256",
              "name": "timeLimit",
              "type": "uint256"
            },
            {
              "internalType": "uint256",
              "name": "withdrawalScheduledAmount",
              "type": "uint256"
            },
            {
              "internalType": "bool",
              "name": "withdrawalExecuted",
              "type": "bool"
            }
          ],
          "internalType": "struct ISaloon.TimelockInfo",
          "name": "poolTimelock",
          "type": "tuple"
        },
        {
          "components": [
            {
              "internalType": "uint256",
              "name": "currentX",
              "type": "uint256"
            },
            {
              "internalType": "uint256",
              "name": "currentY",
              "type": "uint256"
            },
            {
              "internalType": "uint256",
              "name": "totalSupply",
              "type": "uint256"
            },
            {
              "internalType": "uint256[]",
              "name": "unstakedTokens",
              "type": "uint256[]"
            }
          ],
          "internalType": "struct ISaloon.CurveInfo",
          "name": "curveInfo",
          "type": "tuple"
        },
        {
          "components": [
            {
              "internalType": "address",
              "name": "referrer",
              "type": "address"
            },
            {
              "internalType": "uint256",
              "name": "referralFee",
              "type": "uint256"
            },
            {
              "internalType": "uint256",
              "name": "endTime",
              "type": "uint256"
            }
          ],
          "internalType": "struct ISaloon.ReferralInfo",
          "name": "referralInfo",
          "type": "tuple"
        },
        {
          "internalType": "uint256",
          "name": "freezeTime",
          "type": "uint256"
        },
        {
          "internalType": "bool",
          "name": "isActive",
          "type": "bool"
        }
      ],
      "stateMutability": "view",
      "type": "function"
    },
    {
      "inputs": [
        {
          "internalType": "address",
          "name": "_token",
          "type": "address"
        },
        {
          "internalType": "uint256",
          "name": "_amount",
          "type": "uint256"
        }
      ],
      "name": "receiveStrategyYield",
      "outputs": [],
      "stateMutability": "nonpayable",
      "type": "function"
    },
    {
      "inputs": [
        {
          "internalType": "address",
          "name": "from",
          "type": "address"
        },
        {
          "internalType": "address",
          "name": "to",
          "type": "address"
        },
        {
          "internalType": "uint256",
          "name": "tokenId",
          "type": "uint256"
        }
      ],
      "name": "safeTransferFrom",
      "outputs": [],
      "stateMutability": "nonpayable",
      "type": "function"
    },
    {
      "inputs": [
        {
          "internalType": "address",
          "name": "from",
          "type": "address"
        },
        {
          "internalType": "address",
          "name": "to",
          "type": "address"
        },
        {
          "internalType": "uint256",
          "name": "tokenId",
          "type": "uint256"
        },
        {
          "internalType": "bytes",
          "name": "data",
          "type": "bytes"
        }
      ],
      "name": "safeTransferFrom",
      "outputs": [],
      "stateMutability": "nonpayable",
      "type": "function"
    },
    {
      "inputs": [
        {
          "internalType": "address",
          "name": "operator",
          "type": "address"
        },
        {
          "internalType": "bool",
          "name": "approved",
          "type": "bool"
        }
      ],
      "name": "setApprovalForAll",
      "outputs": [],
      "stateMutability": "nonpayable",
      "type": "function"
    },
    {
      "inputs": [
        {
          "internalType": "bytes4",
          "name": "interfaceId",
          "type": "bytes4"
        }
      ],
      "name": "supportsInterface",
      "outputs": [
        {
          "internalType": "bool",
          "name": "",
          "type": "bool"
        }
      ],
      "stateMutability": "view",
      "type": "function"
    },
    {
      "inputs": [],
      "name": "symbol",
      "outputs": [
        {
          "internalType": "string",
          "name": "",
          "type": "string"
        }
      ],
      "stateMutability": "view",
      "type": "function"
    },
    {
      "inputs": [
        {
          "internalType": "uint256",
          "name": "tokenId",
          "type": "uint256"
        }
      ],
      "name": "tokenURI",
      "outputs": [
        {
          "internalType": "string",
          "name": "",
          "type": "string"
        }
      ],
      "stateMutability": "view",
      "type": "function"
    },
    {
      "inputs": [
        {
          "internalType": "address",
          "name": "from",
          "type": "address"
        },
        {
          "internalType": "address",
          "name": "to",
          "type": "address"
        },
        {
          "internalType": "uint256",
          "name": "tokenId",
          "type": "uint256"
        }
      ],
      "name": "transferFrom",
      "outputs": [],
      "stateMutability": "nonpayable",
      "type": "function"
    }
  ],
  "bytecode": {
    "object": "0x60806040523480156200001157600080fd5b50600054610100900460ff1615808015620000335750600054600160ff909116105b8062000063575062000050306200018e60201b62001a621760201c565b15801562000063575060005460ff166001145b620000cc5760405162461bcd60e51b815260206004820152602e60248201527f496e697469616c697a61626c653a20636f6e747261637420697320616c72656160448201526d191e481a5b9a5d1a585b1a5e995960921b60648201526084015b60405180910390fd5b6000805460ff191660011790558015620000f0576000805461ff0019166101001790555b620001406040518060400160405280600b81526020016a2137bab73a3caa37b5b2b760a91b8152506040518060400160405280600381526020016210951560ea1b8152506200019d60201b60201c565b801562000187576000805461ff0019169055604051600181527f7f26b83ff96e1f2b6a682f133852f6798a09c465da95921460cefb38474024989060200160405180910390a15b50620003f7565b6001600160a01b03163b151590565b600054610100900460ff16620001f95760405162461bcd60e51b815260206004820152602b6024820152600080516020620034fb83398151915260448201526a6e697469616c697a696e6760a81b6064820152608401620000c3565b62000205828262000209565b5050565b600054610100900460ff16620002655760405162461bcd60e51b815260206004820152602b6024820152600080516020620034fb83398151915260448201526a6e697469616c697a696e6760a81b6064820152608401620000c3565b60656200027383826200032b565b5060666200028282826200032b565b505050565b634e487b7160e01b600052604160045260246000fd5b600181811c90821680620002b257607f821691505b602082108103620002d357634e487b7160e01b600052602260045260246000fd5b50919050565b601f8211156200028257600081815260208120601f850160051c81016020861015620003025750805b601f850160051c820191505b8181101562000323578281556001016200030e565b505050505050565b81516001600160401b0381111562000347576200034762000287565b6200035f816200035884546200029d565b84620002d9565b602080601f8311600181146200039757600084156200037e5750858301515b600019600386901b1c1916600185901b17855562000323565b600085815260208120601f198616915b82811015620003c857888601518255948401946001909101908401620003a7565b5085821015620003e75787850151600019600388901b60f8161c191681555b5050505050600190811b01905550565b6130f480620004076000396000f3fe608060405234801561001057600080fd5b50600436106101585760003560e01c80636352211e116100c357806396ea48e81161007c57806396ea48e81461035e578063a22cb46514610371578063b88d4fde14610384578063c87b56dd14610397578063e985e9c5146103aa578063e9fda7d4146103bd57600080fd5b80636352211e1461030257806370a082311461031557806375bfd63d146103285780637fbf385314610330578063949a4a4a1461034357806395d89b411461035657600080fd5b80631f8bc790116101155780631f8bc7901461021357806323b872dd1461029f5780632986c0e5146102b257806342842e0e146102c95780634f3214cc146102dc5780635c46f7b1146102ef57600080fd5b806301ffc9a71461015d57806306fdde0314610185578063081812fc1461019a578063095ea7b3146101c55780631526fe27146101da5780631aebcecb14610201575b600080fd5b61017061016b366004612939565b6103dd565b60405190151581526020015b60405180910390f35b61018d61042f565b60405161017c91906129a6565b6101ad6101a83660046129b9565b6104c1565b6040516001600160a01b03909116815260200161017c565b6101d86101d33660046129ee565b6104e8565b005b6101ed6101e83660046129b9565b610602565b60405161017c989796959493929190612a83565b6101d861020f3660046129ee565b5050565b6102646102213660046129b9565b609a602052600090815260409020805460018201546002830154600384015460048501546005860154600687015460079097015495969495939492939192909188565b604080519889526020890197909752958701949094526060860192909252608085015260a084015260c083015260e08201526101000161017c565b6101d86102ad366004612bbe565b61085e565b6102bb606b5481565b60405190815260200161017c565b6101d86102d7366004612bbe565b61088f565b6102bb6102ea366004612bfa565b6108aa565b6102bb6102fd366004612c26565b610c3c565b6101ad6103103660046129b9565b610fa1565b6102bb610323366004612c48565b611001565b6101d8611087565b6102bb61033e3660046129b9565b6110ae565b6101d86103513660046129b9565b611354565b61018d611775565b6102bb61036c366004612c26565b611784565b6101d861037f366004612c63565b6117b5565b6101d8610392366004612cb5565b6117c0565b61018d6103a53660046129b9565b6117f8565b6101706103b8366004612d91565b61186c565b6103d06103cb366004612c48565b61189a565b60405161017c9190612dc4565b60006001600160e01b031982166380ac58cd60e01b148061040e57506001600160e01b03198216635b5e139f60e01b145b8061042957506301ffc9a760e01b6001600160e01b03198316145b92915050565b60606065805461043e90612e51565b80601f016020809104026020016040519081016040528092919081815260200182805461046a90612e51565b80156104b75780601f1061048c576101008083540402835291602001916104b7565b820191906000526020600020905b81548152906001019060200180831161049a57829003601f168201915b5050505050905090565b60006104cc82611a71565b506000908152606960205260409020546001600160a01b031690565b60006104f382610fa1565b9050806001600160a01b0316836001600160a01b0316036105655760405162461bcd60e51b815260206004820152602160248201527f4552433732313a20617070726f76616c20746f2063757272656e74206f776e656044820152603960f91b60648201526084015b60405180910390fd5b336001600160a01b03821614806105815750610581813361186c565b6105f35760405162461bcd60e51b815260206004820152603d60248201527f4552433732313a20617070726f76652063616c6c6572206973206e6f7420746f60448201527f6b656e206f776e6572206f7220617070726f76656420666f7220616c6c000000606482015260840161055c565b6105fd8383611ad3565b505050565b6099818154811061061257600080fd5b60009182526020918290206040805161010081018252601790930290910180546001600160a01b03808216855260ff600160a01b8304169585019590955261ffff600160a81b90910416918301919091526001810154909216606082015260028201805492935090918391608084019161068b90612e51565b80601f01602080910402602001604051908101604052809291908181526020018280546106b790612e51565b80156107045780601f106106d957610100808354040283529160200191610704565b820191906000526020600020905b8154815290600101906020018083116106e757829003601f168201915b50505091835250506003820154602080830191909152600483015460408084019190915260059093015460609283015282518084018452600686015481526007860154818301528351808501855260088701548152600987015481840152845160808082018752600a8901548252600b89015482860152600c89015482880152600d89015460ff1615158287015286519081018752600e890180548252600f8a01548287015260108a01548289015260118a018054895181890281018901909a52808a52999a959994989397959692959194918601939290919083018282801561080d57602002820191906000526020600020905b8154815260200190600101908083116107f9575b5050509190925250506040805160608101825260128501546001600160a01b031681526013850154602082015260148501549181019190915260158401546016909401549293909290915060ff1688565b6108683382611b41565b6108845760405162461bcd60e51b815260040161055c90612e8b565b6105fd838383611b9f565b6105fd838383604051806020016040528060008152506117c0565b600080609985815481106108c0576108c0612ed8565b6000918252602090912060408051610200810190915260179092020180546001600160a01b038082166101008501908152600160a01b830460ff16610120860152600160a81b90920461ffff1661014085015260018301541661016084015260028201805484929184916101808501919061093a90612e51565b80601f016020809104026020016040519081016040528092919081815260200182805461096690612e51565b80156109b35780601f10610988576101008083540402835291602001916109b3565b820191906000526020600020905b81548152906001019060200180831161099657829003601f168201915b505050918352505060038201546020808301919091526004830154604080840191909152600590930154606092830152928452815180830183526006860154815260078601548185015284840152815180830183526008860154815260098601548185015284830152815160808082018452600a8701548252600b87015482860152600c87015482850152600d87015460ff161515828401528583019190915282518082018452600e870180548252600f88015482870152601088015482860152601188018054865181890281018901909752808752939097019691959094938601939290830182828015610ac757602002820191906000526020600020905b815481526020019060010190808311610ab3575b505050919092525050508152604080516060808201835260128501546001600160a01b03168252601385015460208381019190915260148601548385015284019190915260158401549183019190915260169092015460ff1615159101529050826000610b348787611d0e565b5090506000610b438383612f04565b90506000610b52826021612f17565b610b6490674563918244f40000612f04565b90506000610b73856021612f17565b610b8590674563918244f40000612f04565b90506000610b9a610b9584611d6a565b611db3565b90506000610baa610b9584611d6a565b90506000610be8610bbb6021611d6a565b610be2610bc88686611deb565b610bdc6a295be96e64066972000000611d6a565b90611dfa565b90611e09565b90506000610bf988620f4240612f17565b610c039083612f44565b8a5160e00151909150670de0b6b3a7640000610c1f8284612f17565b610c299190612f44565b9f9e505050505050505050505050505050565b60008060998481548110610c5257610c52612ed8565b6000918252602090912060408051610200810190915260179092020180546001600160a01b038082166101008501908152600160a01b830460ff16610120860152600160a81b90920461ffff16610140850152600183015416610160840152600282018054849291849161018085019190610ccc90612e51565b80601f0160208091040260200160405190810160405280929190818152602001828054610cf890612e51565b8015610d455780601f10610d1a57610100808354040283529160200191610d45565b820191906000526020600020905b815481529060010190602001808311610d2857829003601f168201915b505050918352505060038201546020808301919091526004830154604080840191909152600590930154606092830152928452815180830183526006860154815260078601548185015284840152815180830183526008860154815260098601548185015284830152815160808082018452600a8701548252600b87015482860152600c87015482850152600d87015460ff161515828401528583019190915282518082018452600e870180548252600f88015482870152601088015482860152601188018054865181890281018901909752808752939097019691959094938601939290830182828015610e5957602002820191906000526020600020905b815481526020019060010190808311610e45575b505050919092525050508152604080516060808201835260128501546001600160a01b03168252601385015460208381019190915260148601548385015284019190915260158401549183019190915260169092015460ff1615159101526080810151519091506000610ecc8686611d0e565b5090506000610edb8383612f04565b90506000610eea826021612f17565b610efc90674563918244f40000612f04565b90506000610f0b856021612f17565b610f1d90674563918244f40000612f04565b90506000610f2d610b9584611d6a565b90506000610f3d610b9584611d6a565b90506000610f4e610bbb6021611d6a565b90506000610f5f88620f4240612f17565b610f699083612f44565b8a5160e00151909150670de0b6b3a7640000610f858284612f17565b610f8f9190612f44565b9e9d5050505050505050505050505050565b6000818152606760205260408120546001600160a01b0316806104295760405162461bcd60e51b8152602060048201526018602482015277115490cdcc8c4e881a5b9d985b1a59081d1bdad95b88125160421b604482015260640161055c565b60006001600160a01b03821661106b5760405162461bcd60e51b815260206004820152602960248201527f4552433732313a2061646472657373207a65726f206973206e6f7420612076616044820152683634b21037bbb732b960b91b606482015260840161055c565b506001600160a01b031660009081526068602052604090205490565b60995460005b8181101561020f5761109e81611354565b6110a781612f66565b905061108d565b600080609983815481106110c4576110c4612ed8565b6000918252602090912060408051610200810190915260179092020180546001600160a01b038082166101008501908152600160a01b830460ff16610120860152600160a81b90920461ffff1661014085015260018301541661016084015260028201805484929184916101808501919061113e90612e51565b80601f016020809104026020016040519081016040528092919081815260200182805461116a90612e51565b80156111b75780601f1061118c576101008083540402835291602001916111b7565b820191906000526020600020905b81548152906001019060200180831161119a57829003601f168201915b505050918352505060038201546020808301919091526004830154604080840191909152600590930154606092830152928452815180830183526006860154815260078601548185015284840152815180830183526008860154815260098601548185015284830152815160808082018452600a8701548252600b87015482860152600c87015482850152600d87015460ff161515828401528583019190915282518082018452600e870180548252600f880154828701526010880154828601526011880180548651818902810189019097528087529390970196919590949386019392908301828280156112cb57602002820191906000526020600020905b8154815260200190600101908083116112b7575b505050919092525050508152604080516060808201835260128501546001600160a01b03168252601385015460208381019190915260148601548385015284019190915260158401549183019190915260169092015460ff161515910152608081015151815160e001519192509061134282611e21565b61134c9190612f17565b949350505050565b60006099828154811061136957611369612ed8565b6000918252602090912060408051610200810190915260179092020180546001600160a01b038082166101008501908152600160a01b830460ff16610120860152600160a81b90920461ffff166101408501526001830154166101608401526002820180548492918491610180850191906113e390612e51565b80601f016020809104026020016040519081016040528092919081815260200182805461140f90612e51565b801561145c5780601f106114315761010080835404028352916020019161145c565b820191906000526020600020905b81548152906001019060200180831161143f57829003601f168201915b505050918352505060038201546020808301919091526004830154604080840191909152600590930154606092830152928452815180830183526006860154815260078601548185015284840152815180830183526008860154815260098601548185015284830152815160808082018452600a8701548252600b87015482860152600c87015482850152600d87015460ff161515828401528583019190915282518082018452600e870180548252600f8801548287015260108801548286015260118801805486518189028101890190975280875293909701969195909493860193929083018282801561157057602002820191906000526020600020905b81548152602001906001019080831161155c575b505050919092525050508152604080516060808201835260128501546001600160a01b03168252601385015460208381019190915260148601548385015284019190915260158401549183019190915260169092015460ff16151590820152608082015101518051919250908015806115eb57508260e00151155b156115f65750505050565b60005b818110156116335761162383828151811061161657611616612ed8565b6020026020010151611e76565b61162c81612f66565b90506115f9565b506000848152609b602090815260408083208054825181850281018501909352808352919290919083018282801561168a57602002820191906000526020600020905b815481526020019060010190808311611676575b5050835193945060009250829150505b8281101561170f5760008482815181106116b6576116b6612ed8565b6020908102919091018101516000818152609a90925260409091206001810154919250906116e58b82876108aa565b600383015560028201546116f99086612f04565b94505050508061170890612f66565b905061169a565b50806099888154811061172457611724612ed8565b6000918252602090912060106017909202010155609980548890811061174c5761174c612ed8565b9060005260206000209060170201600e01600301600061176c91906128a5565b50505050505050565b60606066805461043e90612e51565b609b60205281600052604060002081815481106117a057600080fd5b90600052602060002001600091509150505481565b61020f33838361208f565b6117ca3383611b41565b6117e65760405162461bcd60e51b815260040161055c90612e8b565b6117f28484848461215d565b50505050565b606061180382611a71565b600061181a60408051602081019091526000815290565b9050600081511161183a5760405180602001604052806000815250611865565b8061184484612190565b604051602001611855929190612f7f565b6040516020818303038152906040525b9392505050565b6001600160a01b039182166000908152606a6020908152604080832093909416825291909152205460ff1690565b6001600160a01b0381166000908152606c602090815260408083208054825181850281018501909352808352606094938301828280156118f957602002820191906000526020600020905b8154815260200190600101908083116118e5575b50508351939450839250505067ffffffffffffffff81111561191d5761191d612c9f565b60405190808252806020026020018201604052801561199657816020015b61198360405180610100016040528060008152602001600081526020016000815260200160008152602001600081526020016000815260200160008152602001600081525090565b81526020019060019003908161193b5790505b50925060005b81811015611a5a57609a60008483815181106119ba576119ba612ed8565b602002602001015181526020019081526020016000206040518061010001604052908160008201548152602001600182015481526020016002820154815260200160038201548152602001600482015481526020016005820154815260200160068201548152602001600782015481525050848281518110611a3e57611a3e612ed8565b602002602001018190525080611a5390612f66565b905061199c565b505050919050565b6001600160a01b03163b151590565b6000818152606760205260409020546001600160a01b0316611ad05760405162461bcd60e51b8152602060048201526018602482015277115490cdcc8c4e881a5b9d985b1a59081d1bdad95b88125160421b604482015260640161055c565b50565b600081815260696020526040902080546001600160a01b0319166001600160a01b0384169081179091558190611b0882610fa1565b6001600160a01b03167f8c5be1e5ebec7d5bd14f71427d1e84f3dd0314c0f7b2291e5b200ac8c7c3b92560405160405180910390a45050565b600080611b4d83610fa1565b9050806001600160a01b0316846001600160a01b03161480611b745750611b74818561186c565b8061134c5750836001600160a01b0316611b8d846104c1565b6001600160a01b031614949350505050565b826001600160a01b0316611bb282610fa1565b6001600160a01b031614611bd85760405162461bcd60e51b815260040161055c90612fae565b6001600160a01b038216611c3a5760405162461bcd60e51b8152602060048201526024808201527f4552433732313a207472616e7366657220746f20746865207a65726f206164646044820152637265737360e01b606482015260840161055c565b611c45838383612223565b826001600160a01b0316611c5882610fa1565b6001600160a01b031614611c7e5760405162461bcd60e51b815260040161055c90612fae565b600081815260696020908152604080832080546001600160a01b03199081169091556001600160a01b0387811680865260688552838620805460001901905590871680865283862080546001019055868652606790945282852080549092168417909155905184937fddf252ad1be2c89b69c2b068fc378daa952ba7f163c4a11628f55a4df523b3ef91a4505050565b60008060998481548110611d2457611d24612ed8565b6000918252602090912060036017909202010154611d4a670de0b6b3a764000085612f17565b611d549190612f44565b9050611d61816005612f17565b91509250929050565b6000611d80670de0b6b3a7640000600019612f44565b821115611da3576040516322630c4560e01b81526004810183905260240161055c565b670de0b6b3a76400008202610429565b60006104296714057b7ef767814f670de0b6b3a7640000611dd9611dd6866122b9565b90565b0281611de757611de7612f2e565b0490565b6000611865611dd68385612ff3565b6000611865611dd684846123ef565b6000611865611dd684670de0b6b3a7640000856124a3565b600080670de0b6b3a7640000611e3f84670928ca80cfc20000612f17565b611e499190612f44565b611e5b9067016345785d8a0000612f04565b9050611865816ec097ce7bc90715b34b9f1000000000612f44565b6000818152609a6020908152604080832081516101008101835281548082526001830154828601526002830154828501526003830154606083015260048301546080830152600583015460a0830152600683015460c083015260079092015460e0820152818552609b8452828520805484518187028101870190955280855291959294929392909190830182828015611f2e57602002820191906000526020600020905b815481526020019060010190808311611f1a575b5050835193945060009250829150505b82811015611f7e5786848281518110611f5957611f59612ed8565b602002602001015103611f6e57809150611f7e565b611f7781612f66565b9050611f3e565b50818110611fce5760405162461bcd60e51b815260206004820152601860248201527f546f6b656e206e6f7420666f756e6420696e2061727261790000000000000000604482015260640161055c565b805b611fdb600184612ff3565b8110156120335783611fee826001612f04565b81518110611ffe57611ffe612ed8565b602002602001015184828151811061201857612018612ed8565b602090810291909101015261202c81612f66565b9050611fd0565b506000848152609b602090815260409091208451612053928601906128c3565b506000848152609b6020526040902080548061207157612071613006565b60019003818190600052602060002001600090559055505050505050565b816001600160a01b0316836001600160a01b0316036120f05760405162461bcd60e51b815260206004820152601960248201527f4552433732313a20617070726f766520746f2063616c6c657200000000000000604482015260640161055c565b6001600160a01b038381166000818152606a6020908152604080832094871680845294825291829020805460ff191686151590811790915591519182527f17307eab39ab6107e8899845ad3d59bd9653f200f220920489ca2b5937696c31910160405180910390a3505050565b612168848484611b9f565b61217484848484612576565b6117f25760405162461bcd60e51b815260040161055c9061301c565b6060600061219d83612677565b600101905060008167ffffffffffffffff8111156121bd576121bd612c9f565b6040519080825280601f01601f1916602001820160405280156121e7576020820181803683370190505b5090508181016020015b600019016f181899199a1a9b1b9c1cb0b131b232b360811b600a86061a8153600a85049450846121f157509392505050565b816001600160a01b0316836001600160a01b03161415801561224d57506001600160a01b03831615155b1561225c5761225c838261274f565b826001600160a01b0316826001600160a01b03161415801561228657506001600160a01b03821615155b156105fd576001600160a01b03919091166000908152606c60209081526040822080546001810182559083529120015550565b600081670de0b6b3a76400008110156122e857604051633621413760e21b81526004810184905260240161055c565b6000612374670de0b6b3a7640000830460016fffffffffffffffffffffffffffffffff821160071b91821c67ffffffffffffffff811160061b90811c63ffffffff811160051b90811c61ffff811160041b90811c60ff8111600390811b91821c600f811160021b90811c918211871b91821c969096119490961792909217171791909117919091171790565b9050670de0b6b3a7640000810282821c670de0b6b3a763ffff1981016123a057815b9695505050505050565b671bc16d674ec800006706f05b59d3b200005b80156123e357670de0b6b3a76400008380020492508183106123db579283019260019290921c915b60011c6123b3565b50919695505050505050565b60008080600019848609848602925082811083820303915050670de0b6b3a7640000811061243a5760405163090638d560e41b8152600481018690526024810185905260440161055c565b6000670de0b6b3a7640000858709905081600003612466575050670de0b6b3a764000090049050610429565b620400008184030492109003600160ee1b02177faccb18165bd6fe31ae1cf318dc5b51eee0e1ba569b88cd74c1773b91fac1066902905092915050565b60008080600019858709858702925082811083820303915050806000036124dd578382816124d3576124d3612f2e565b0492505050611865565b83811061250e576040516307639aaf60e41b815260048101879052602481018690526044810185905260640161055c565b600084868809600260036001881981018916988990049182028318808302840302808302840302808302840302808302840302808302840302918202909203026000889003889004909101858311909403939093029303949094049190911702949350505050565b60006001600160a01b0384163b1561266c57604051630a85bd0160e11b81526001600160a01b0385169063150b7a02906125ba90339089908890889060040161306e565b6020604051808303816000875af19250505080156125f5575060408051601f3d908101601f191682019092526125f2918101906130a1565b60015b612652573d808015612623576040519150601f19603f3d011682016040523d82523d6000602084013e612628565b606091505b50805160000361264a5760405162461bcd60e51b815260040161055c9061301c565b805181602001fd5b6001600160e01b031916630a85bd0160e11b14905061134c565b506001949350505050565b60008072184f03e93ff9f4daa797ed6e38ed64bf6a1f0160401b83106126b65772184f03e93ff9f4daa797ed6e38ed64bf6a1f0160401b830492506040015b6d04ee2d6d415b85acef810000000083106126e2576d04ee2d6d415b85acef8100000000830492506020015b662386f26fc10000831061270057662386f26fc10000830492506010015b6305f5e1008310612718576305f5e100830492506008015b612710831061272c57612710830492506004015b6064831061273e576064830492506002015b600a83106104295760010192915050565b6001600160a01b0382166000908152606c60209081526040808320805482518185028101850190935280835291929091908301828280156127af57602002820191906000526020600020905b81548152602001906001019080831161279b575b505083519394506000925050505b8181101561289e57838382815181106127d8576127d8612ed8565b60200260200101510361288e57826127f1600184612ff3565b8151811061280157612801612ed8565b602002602001015183828151811061281b5761281b612ed8565b6020908102919091018101919091526001600160a01b0386166000908152606c825260409020845161284f928601906128c3565b506001600160a01b0385166000908152606c6020526040902080548061287757612877613006565b600190038181906000526020600020016000905590555b61289781612f66565b90506127bd565b5050505050565b5080546000825590600052602060002090810190611ad0919061290e565b8280548282559060005260206000209081019282156128fe579160200282015b828111156128fe5782518255916020019190600101906128e3565b5061290a92915061290e565b5090565b5b8082111561290a576000815560010161290f565b6001600160e01b031981168114611ad057600080fd5b60006020828403121561294b57600080fd5b813561186581612923565b60005b83811015612971578181015183820152602001612959565b50506000910152565b60008151808452612992816020860160208601612956565b601f01601f19169290920160200192915050565b602081526000611865602083018461297a565b6000602082840312156129cb57600080fd5b5035919050565b80356001600160a01b03811681146129e957600080fd5b919050565b60008060408385031215612a0157600080fd5b612a0a836129d2565b946020939093013593505050565b60006080830182518452602080840151818601526040840151604086015260608401516080606087015282815180855260a0880191508383019450600092505b80831015612a785784518252938301936001929092019190830190612a58565b509695505050505050565b6101e080825289516001600160a01b039081169183019190915260208a015160ff1661020083015260408a015161ffff1661022083015260608a0151166102408201526080890151610100610260830152600090612ae56102e084018261297a565b905060a08b015161028084015260c08b01516102a084015260e08b01516102c0840152612b1f602084018b80518252602090810151910152565b8851606084015260208901516080840152875160a0840152602088015160c0840152604088015160e084015260608801511515610100840152828103610120840152612b6b8188612a18565b86516001600160a01b0316610140850152602087015161016085015260408701516101808501529150612b9b9050565b836101a0830152612bb16101c083018415159052565b9998505050505050505050565b600080600060608486031215612bd357600080fd5b612bdc846129d2565b9250612bea602085016129d2565b9150604084013590509250925092565b600080600060608486031215612c0f57600080fd5b505081359360208301359350604090920135919050565b60008060408385031215612c3957600080fd5b50508035926020909101359150565b600060208284031215612c5a57600080fd5b611865826129d2565b60008060408385031215612c7657600080fd5b612c7f836129d2565b915060208301358015158114612c9457600080fd5b809150509250929050565b634e487b7160e01b600052604160045260246000fd5b60008060008060808587031215612ccb57600080fd5b612cd4856129d2565b9350612ce2602086016129d2565b925060408501359150606085013567ffffffffffffffff80821115612d0657600080fd5b818701915087601f830112612d1a57600080fd5b813581811115612d2c57612d2c612c9f565b604051601f8201601f19908116603f01168101908382118183101715612d5457612d54612c9f565b816040528281528a6020848701011115612d6d57600080fd5b82602086016020830137600060208483010152809550505050505092959194509250565b60008060408385031215612da457600080fd5b612dad836129d2565b9150612dbb602084016129d2565b90509250929050565b602080825282518282018190526000919060409081850190868401855b82811015612e445781518051855286810151878601528581015186860152606080820151908601526080808201519086015260a0808201519086015260c0808201519086015260e090810151908501526101009093019290850190600101612de1565b5091979650505050505050565b600181811c90821680612e6557607f821691505b602082108103612e8557634e487b7160e01b600052602260045260246000fd5b50919050565b6020808252602d908201527f4552433732313a2063616c6c6572206973206e6f7420746f6b656e206f776e6560408201526c1c881bdc88185c1c1c9bdd9959609a1b606082015260800190565b634e487b7160e01b600052603260045260246000fd5b634e487b7160e01b600052601160045260246000fd5b8082018082111561042957610429612eee565b808202811582820484141761042957610429612eee565b634e487b7160e01b600052601260045260246000fd5b600082612f6157634e487b7160e01b600052601260045260246000fd5b500490565b600060018201612f7857612f78612eee565b5060010190565b60008351612f91818460208801612956565b835190830190612fa5818360208801612956565b01949350505050565b60208082526025908201527f4552433732313a207472616e736665722066726f6d20696e636f72726563742060408201526437bbb732b960d91b606082015260800190565b8181038181111561042957610429612eee565b634e487b7160e01b600052603160045260246000fd5b60208082526032908201527f4552433732313a207472616e7366657220746f206e6f6e20455243373231526560408201527131b2b4bb32b91034b6b83632b6b2b73a32b960711b606082015260800190565b6001600160a01b03858116825284166020820152604081018390526080606082018190526000906123969083018461297a565b6000602082840312156130b357600080fd5b81516118658161292356fea26469706673582212205198022aa1804ab54a26479f707ebe7465416c8831a7ab972e06d8e38aa8c94364736f6c63430008110033496e697469616c697a61626c653a20636f6e7472616374206973206e6f742069",
    "linkReferences": {}
  },
  "methodIdentifiers": {
    "approve(address,uint256)": "095ea7b3",
    "balanceOf(address)": "70a08231",
    "calculateArbitraryEffectiveAPY(uint256,uint256,uint256)": "4f3214cc",
    "calculateEffectiveAPY(uint256,uint256)": "5c46f7b1",
    "consolidate(uint256)": "949a4a4a",
    "consolidateAll()": "75bfd63d",
    "getAllTokensByOwner(address)": "e9fda7d4",
    "getApproved(uint256)": "081812fc",
    "getCurrentAPY(uint256)": "7fbf3853",
    "index()": "2986c0e5",
    "isApprovedForAll(address,address)": "e985e9c5",
    "name()": "06fdde03",
    "nftInfo(uint256)": "1f8bc790",
    "ownerOf(uint256)": "6352211e",
    "pidNFTList(uint256,uint256)": "96ea48e8",
    "poolInfo(uint256)": "1526fe27",
    "receiveStrategyYield(address,uint256)": "1aebcecb",
    "safeTransferFrom(address,address,uint256)": "42842e0e",
    "safeTransferFrom(address,address,uint256,bytes)": "b88d4fde",
    "setApprovalForAll(address,bool)": "a22cb465",
    "supportsInterface(bytes4)": "01ffc9a7",
    "symbol()": "95d89b41",
    "tokenURI(uint256)": "c87b56dd",
    "transferFrom(address,address,uint256)": "23b872dd"
  },
  "id": 42
}