{
  "abi": [
    {
      "inputs": [],
      "stateMutability": "nonpayable",
      "type": "constructor"
    },
    {
      "inputs": [
        {
          "internalType": "UD60x18",
          "name": "x",
          "type": "uint256"
        }
      ],
      "name": "PRBMathUD60x18__LogInputTooSmall",
      "type": "error"
    },
    {
      "inputs": [
        {
          "internalType": "uint256",
          "name": "x",
          "type": "uint256"
        }
      ],
      "name": "PRBMathUD60x18__ToUD60x18Overflow",
      "type": "error"
    },
    {
      "inputs": [
        {
          "internalType": "uint256",
          "name": "x",
          "type": "uint256"
        },
        {
          "internalType": "uint256",
          "name": "y",
          "type": "uint256"
        }
      ],
      "name": "PRBMath__MulDiv18Overflow",
      "type": "error"
    },
    {
      "inputs": [
        {
          "internalType": "uint256",
          "name": "x",
          "type": "uint256"
        },
        {
          "internalType": "uint256",
          "name": "y",
          "type": "uint256"
        },
        {
          "internalType": "uint256",
          "name": "denominator",
          "type": "uint256"
        }
      ],
      "name": "PRBMath__MulDivOverflow",
      "type": "error"
    },
    {
      "anonymous": false,
      "inputs": [
        {
          "indexed": true,
          "internalType": "address",
          "name": "owner",
          "type": "address"
        },
        {
          "indexed": true,
          "internalType": "address",
          "name": "approved",
          "type": "address"
        },
        {
          "indexed": true,
          "internalType": "uint256",
          "name": "tokenId",
          "type": "uint256"
        }
      ],
      "name": "Approval",
      "type": "event"
    },
    {
      "anonymous": false,
      "inputs": [
        {
          "indexed": true,
          "internalType": "address",
          "name": "owner",
          "type": "address"
        },
        {
          "indexed": true,
          "internalType": "address",
          "name": "operator",
          "type": "address"
        },
        {
          "indexed": false,
          "internalType": "bool",
          "name": "approved",
          "type": "bool"
        }
      ],
      "name": "ApprovalForAll",
      "type": "event"
    },
    {
      "anonymous": false,
      "inputs": [
        {
          "indexed": true,
          "internalType": "uint256",
          "name": "pid",
          "type": "uint256"
        },
        {
          "indexed": true,
          "internalType": "uint256",
          "name": "oldAmount",
          "type": "uint256"
        },
        {
          "indexed": true,
          "internalType": "uint256",
          "name": "newAmount",
          "type": "uint256"
        }
      ],
      "name": "BountyBalanceChanged",
      "type": "event"
    },
    {
      "anonymous": false,
      "inputs": [
        {
          "indexed": true,
          "internalType": "uint256",
          "name": "time",
          "type": "uint256"
        },
        {
          "indexed": true,
          "internalType": "address",
          "name": "hunter",
          "type": "address"
        },
        {
          "indexed": true,
          "internalType": "address",
          "name": "token",
          "type": "address"
        },
        {
          "indexed": false,
          "internalType": "uint256",
          "name": "amount",
          "type": "uint256"
        }
      ],
      "name": "BountyPaid",
      "type": "event"
    },
    {
      "anonymous": false,
      "inputs": [
        {
          "indexed": false,
          "internalType": "uint8",
          "name": "version",
          "type": "uint8"
        }
      ],
      "name": "Initialized",
      "type": "event"
    },
    {
      "anonymous": false,
      "inputs": [
        {
          "indexed": true,
          "internalType": "uint256",
          "name": "pid",
          "type": "uint256"
        },
        {
          "indexed": true,
          "internalType": "address",
          "name": "token",
          "type": "address"
        },
        {
          "indexed": true,
          "internalType": "uint256",
          "name": "tokenDecimals",
          "type": "uint256"
        }
      ],
      "name": "NewBountyDeployed",
      "type": "event"
    },
    {
      "anonymous": false,
      "inputs": [
        {
          "indexed": true,
          "internalType": "uint256",
          "name": "pid",
          "type": "uint256"
        },
        {
          "indexed": true,
          "internalType": "uint256",
          "name": "amount",
          "type": "uint256"
        }
      ],
      "name": "PremiumBilled",
      "type": "event"
    },
    {
      "anonymous": false,
      "inputs": [
        {
          "indexed": true,
          "internalType": "address",
          "name": "user",
          "type": "address"
        },
        {
          "indexed": true,
          "internalType": "uint256",
          "name": "pid",
          "type": "uint256"
        },
        {
          "indexed": false,
          "internalType": "uint256",
          "name": "amount",
          "type": "uint256"
        }
      ],
      "name": "Staked",
      "type": "event"
    },
    {
      "anonymous": false,
      "inputs": [
        {
          "indexed": true,
          "internalType": "address",
          "name": "from",
          "type": "address"
        },
        {
          "indexed": true,
          "internalType": "address",
          "name": "to",
          "type": "address"
        },
        {
          "indexed": true,
          "internalType": "uint256",
          "name": "tokenId",
          "type": "uint256"
        }
      ],
      "name": "Transfer",
      "type": "event"
    },
    {
      "anonymous": false,
      "inputs": [
        {
          "indexed": true,
          "internalType": "address",
          "name": "user",
          "type": "address"
        },
        {
          "indexed": true,
          "internalType": "uint256",
          "name": "pid",
          "type": "uint256"
        },
        {
          "indexed": false,
          "internalType": "uint256",
          "name": "amount",
          "type": "uint256"
        }
      ],
      "name": "Unstaked",
      "type": "event"
    },
    {
      "anonymous": false,
      "inputs": [
        {
          "indexed": true,
          "internalType": "uint256",
          "name": "pid",
          "type": "uint256"
        },
        {
          "indexed": true,
          "internalType": "uint256",
          "name": "amount",
          "type": "uint256"
        }
      ],
      "name": "WithdrawalOrUnstakeScheduled",
      "type": "event"
    },
    {
      "anonymous": false,
      "inputs": [
        {
          "indexed": true,
          "internalType": "address",
          "name": "token",
          "type": "address"
        },
        {
          "indexed": true,
          "internalType": "bool",
          "name": "whitelisted",
          "type": "bool"
        }
      ],
      "name": "tokenWhitelistUpdated",
      "type": "event"
    },
    {
      "inputs": [
        {
          "internalType": "address",
          "name": "to",
          "type": "address"
        },
        {
          "internalType": "uint256",
          "name": "tokenId",
          "type": "uint256"
        }
      ],
      "name": "approve",
      "outputs": [],
      "stateMutability": "nonpayable",
      "type": "function"
    },
    {
      "inputs": [
        {
          "internalType": "address",
          "name": "owner",
          "type": "address"
        }
      ],
      "name": "balanceOf",
      "outputs": [
        {
          "internalType": "uint256",
          "name": "",
          "type": "uint256"
        }
      ],
      "stateMutability": "view",
      "type": "function"
    },
    {
      "inputs": [
        {
          "internalType": "uint256",
          "name": "_pid",
          "type": "uint256"
        },
        {
          "internalType": "uint256",
          "name": "_stake",
          "type": "uint256"
        }
      ],
      "name": "calculateEffectiveAPY",
      "outputs": [
        {
          "internalType": "uint256",
          "name": "scaledAPY",
          "type": "uint256"
        }
      ],
      "stateMutability": "view",
      "type": "function"
    },
    {
      "inputs": [
        {
          "internalType": "uint256",
          "name": "_pid",
          "type": "uint256"
        },
        {
          "internalType": "uint256",
          "name": "_stake",
          "type": "uint256"
        },
        {
          "internalType": "uint256",
          "name": "_memX",
          "type": "uint256"
        }
      ],
      "name": "calculateEffectiveAPYConsolidate",
      "outputs": [
        {
          "internalType": "uint256",
          "name": "scaledAPY",
          "type": "uint256"
        }
      ],
      "stateMutability": "view",
      "type": "function"
    },
    {
      "inputs": [
        {
          "internalType": "uint256",
          "name": "_pid",
          "type": "uint256"
        }
      ],
      "name": "consolidate",
      "outputs": [],
      "stateMutability": "nonpayable",
      "type": "function"
    },
    {
      "inputs": [],
      "name": "consolidateAll",
      "outputs": [],
      "stateMutability": "nonpayable",
      "type": "function"
    },
    {
      "inputs": [
        {
          "internalType": "uint256",
          "name": "tokenId",
          "type": "uint256"
        }
      ],
      "name": "getApproved",
      "outputs": [
        {
          "internalType": "address",
          "name": "",
          "type": "address"
        }
      ],
      "stateMutability": "view",
      "type": "function"
    },
    {
      "inputs": [
        {
          "internalType": "uint256",
          "name": "_pid",
          "type": "uint256"
        }
      ],
      "name": "getCurrentAPY",
      "outputs": [
        {
          "internalType": "uint256",
          "name": "currentAPY",
          "type": "uint256"
        }
      ],
      "stateMutability": "view",
      "type": "function"
    },
    {
      "inputs": [],
      "name": "index",
      "outputs": [
        {
          "internalType": "uint256",
          "name": "",
          "type": "uint256"
        }
      ],
      "stateMutability": "view",
      "type": "function"
    },
    {
      "inputs": [
        {
          "internalType": "address",
          "name": "owner",
          "type": "address"
        },
        {
          "internalType": "address",
          "name": "operator",
          "type": "address"
        }
      ],
      "name": "isApprovedForAll",
      "outputs": [
        {
          "internalType": "bool",
          "name": "",
          "type": "bool"
        }
      ],
      "stateMutability": "view",
      "type": "function"
    },
    {
      "inputs": [],
      "name": "name",
      "outputs": [
        {
          "internalType": "string",
          "name": "",
          "type": "string"
        }
      ],
      "stateMutability": "view",
      "type": "function"
    },
    {
      "inputs": [
        {
          "internalType": "uint256",
          "name": "",
          "type": "uint256"
        }
      ],
      "name": "nftAPY",
      "outputs": [
        {
          "internalType": "uint256",
          "name": "",
          "type": "uint256"
        }
      ],
      "stateMutability": "view",
      "type": "function"
    },
    {
      "inputs": [
        {
          "internalType": "uint256",
          "name": "",
          "type": "uint256"
        }
      ],
      "name": "nftBalance",
      "outputs": [
        {
          "internalType": "uint256",
          "name": "",
          "type": "uint256"
        }
      ],
      "stateMutability": "view",
      "type": "function"
    },
    {
      "inputs": [
        {
          "internalType": "uint256",
          "name": "",
          "type": "uint256"
        }
      ],
      "name": "nftInfo",
      "outputs": [
        {
          "internalType": "uint256",
          "name": "amount",
          "type": "uint256"
        },
        {
          "internalType": "uint256",
          "name": "xDelta",
          "type": "uint256"
        },
        {
          "internalType": "uint256",
          "name": "apy",
          "type": "uint256"
        },
        {
          "internalType": "uint256",
          "name": "unclaimed",
          "type": "uint256"
        },
        {
          "internalType": "uint256",
          "name": "lastClaimedTime",
          "type": "uint256"
        },
        {
          "internalType": "uint256",
          "name": "timelock",
          "type": "uint256"
        },
        {
          "internalType": "uint256",
          "name": "timelimit",
          "type": "uint256"
        }
      ],
      "stateMutability": "view",
      "type": "function"
    },
    {
      "inputs": [
        {
          "internalType": "uint256",
          "name": "",
          "type": "uint256"
        }
      ],
      "name": "nftToPid",
      "outputs": [
        {
          "internalType": "uint256",
          "name": "",
          "type": "uint256"
        }
      ],
      "stateMutability": "view",
      "type": "function"
    },
    {
      "inputs": [
        {
          "internalType": "uint256",
          "name": "tokenId",
          "type": "uint256"
        }
      ],
      "name": "ownerOf",
      "outputs": [
        {
          "internalType": "address",
          "name": "",
          "type": "address"
        }
      ],
      "stateMutability": "view",
      "type": "function"
    },
    {
      "inputs": [
        {
          "internalType": "uint256",
          "name": "",
          "type": "uint256"
        },
        {
          "internalType": "uint256",
          "name": "",
          "type": "uint256"
        }
      ],
      "name": "pidNFTList",
      "outputs": [
        {
          "internalType": "uint256",
          "name": "",
          "type": "uint256"
        }
      ],
      "stateMutability": "view",
      "type": "function"
    },
    {
      "inputs": [
        {
          "internalType": "uint256",
          "name": "",
          "type": "uint256"
        }
      ],
      "name": "poolInfo",
      "outputs": [
        {
          "components": [
            {
              "internalType": "contract IERC20",
              "name": "token",
              "type": "address"
            },
            {
              "internalType": "uint8",
              "name": "tokenDecimals",
              "type": "uint8"
            },
            {
              "internalType": "uint16",
              "name": "apy",
              "type": "uint16"
            },
            {
              "internalType": "address",
              "name": "projectWallet",
              "type": "address"
            },
            {
              "internalType": "string",
              "name": "projectName",
              "type": "string"
            },
            {
              "internalType": "uint256",
              "name": "poolCap",
              "type": "uint256"
            },
            {
              "internalType": "uint256",
              "name": "totalStaked",
              "type": "uint256"
            },
            {
              "internalType": "uint256",
              "name": "multiplier",
              "type": "uint256"
            }
          ],
          "internalType": "struct ISaloon.GeneralInfo",
          "name": "generalInfo",
          "type": "tuple"
        },
        {
          "components": [
            {
              "internalType": "uint256",
              "name": "projectDepositHeld",
              "type": "uint256"
            },
            {
              "internalType": "uint256",
              "name": "projectDepositInStrategy",
              "type": "uint256"
            }
          ],
          "internalType": "struct ISaloon.DepositInfo",
          "name": "depositInfo",
          "type": "tuple"
        },
        {
          "components": [
            {
              "internalType": "uint256",
              "name": "premiumBalance",
              "type": "uint256"
            },
            {
              "internalType": "uint256",
              "name": "premiumAvailable",
              "type": "uint256"
            }
          ],
          "internalType": "struct ISaloon.PremiumInfo",
          "name": "premiumInfo",
          "type": "tuple"
        },
        {
          "components": [
            {
              "internalType": "uint256",
              "name": "timelock",
              "type": "uint256"
            },
            {
              "internalType": "uint256",
              "name": "timeLimit",
              "type": "uint256"
            },
            {
              "internalType": "uint256",
              "name": "withdrawalScheduledAmount",
              "type": "uint256"
            },
            {
              "internalType": "bool",
              "name": "withdrawalExecuted",
              "type": "bool"
            }
          ],
          "internalType": "struct ISaloon.TimelockInfo",
          "name": "poolTimelock",
          "type": "tuple"
        },
        {
          "components": [
            {
              "internalType": "uint256",
              "name": "currentX",
              "type": "uint256"
            },
            {
              "internalType": "uint256",
              "name": "currentY",
              "type": "uint256"
            },
            {
              "internalType": "uint256",
              "name": "totalSupply",
              "type": "uint256"
            },
            {
              "internalType": "uint256[]",
              "name": "unstakedTokens",
              "type": "uint256[]"
            }
          ],
          "internalType": "struct ISaloon.TokenInfo",
          "name": "tokenInfo",
          "type": "tuple"
        },
        {
          "internalType": "uint256",
          "name": "freezeTime",
          "type": "uint256"
        },
        {
          "internalType": "bool",
          "name": "isActive",
          "type": "bool"
        }
      ],
      "stateMutability": "view",
      "type": "function"
    },
    {
      "inputs": [
        {
          "internalType": "address",
          "name": "_token",
          "type": "address"
        },
        {
          "internalType": "uint256",
          "name": "_amount",
          "type": "uint256"
        }
      ],
      "name": "receiveStrategyYield",
      "outputs": [],
      "stateMutability": "nonpayable",
      "type": "function"
    },
    {
      "inputs": [
        {
          "internalType": "address",
          "name": "from",
          "type": "address"
        },
        {
          "internalType": "address",
          "name": "to",
          "type": "address"
        },
        {
          "internalType": "uint256",
          "name": "tokenId",
          "type": "uint256"
        }
      ],
      "name": "safeTransferFrom",
      "outputs": [],
      "stateMutability": "nonpayable",
      "type": "function"
    },
    {
      "inputs": [
        {
          "internalType": "address",
          "name": "from",
          "type": "address"
        },
        {
          "internalType": "address",
          "name": "to",
          "type": "address"
        },
        {
          "internalType": "uint256",
          "name": "tokenId",
          "type": "uint256"
        },
        {
          "internalType": "bytes",
          "name": "data",
          "type": "bytes"
        }
      ],
      "name": "safeTransferFrom",
      "outputs": [],
      "stateMutability": "nonpayable",
      "type": "function"
    },
    {
      "inputs": [
        {
          "internalType": "address",
          "name": "operator",
          "type": "address"
        },
        {
          "internalType": "bool",
          "name": "approved",
          "type": "bool"
        }
      ],
      "name": "setApprovalForAll",
      "outputs": [],
      "stateMutability": "nonpayable",
      "type": "function"
    },
    {
      "inputs": [
        {
          "internalType": "bytes4",
          "name": "interfaceId",
          "type": "bytes4"
        }
      ],
      "name": "supportsInterface",
      "outputs": [
        {
          "internalType": "bool",
          "name": "",
          "type": "bool"
        }
      ],
      "stateMutability": "view",
      "type": "function"
    },
    {
      "inputs": [],
      "name": "symbol",
      "outputs": [
        {
          "internalType": "string",
          "name": "",
          "type": "string"
        }
      ],
      "stateMutability": "view",
      "type": "function"
    },
    {
      "inputs": [
        {
          "internalType": "uint256",
          "name": "tokenId",
          "type": "uint256"
        }
      ],
      "name": "tokenURI",
      "outputs": [
        {
          "internalType": "string",
          "name": "",
          "type": "string"
        }
      ],
      "stateMutability": "view",
      "type": "function"
    },
    {
      "inputs": [
        {
          "internalType": "address",
          "name": "from",
          "type": "address"
        },
        {
          "internalType": "address",
          "name": "to",
          "type": "address"
        },
        {
          "internalType": "uint256",
          "name": "tokenId",
          "type": "uint256"
        }
      ],
      "name": "transferFrom",
      "outputs": [],
      "stateMutability": "nonpayable",
      "type": "function"
    }
  ],
  "bytecode": {
    "object": "0x60806040523480156200001157600080fd5b50600054610100900460ff1615808015620000335750600054600160ff909116105b8062000063575062000050306200018e60201b620019461760201c565b15801562000063575060005460ff166001145b620000cc5760405162461bcd60e51b815260206004820152602e60248201527f496e697469616c697a61626c653a20636f6e747261637420697320616c72656160448201526d191e481a5b9a5d1a585b1a5e995960921b60648201526084015b60405180910390fd5b6000805460ff191660011790558015620000f0576000805461ff0019166101001790555b620001406040518060400160405280600b81526020016a2137bab73a3caa37b5b2b760a91b8152506040518060400160405280600381526020016210951560ea1b8152506200019d60201b60201c565b801562000187576000805461ff0019169055604051600181527f7f26b83ff96e1f2b6a682f133852f6798a09c465da95921460cefb38474024989060200160405180910390a15b50620003f7565b6001600160a01b03163b151590565b600054610100900460ff16620001f95760405162461bcd60e51b815260206004820152602b6024820152600080516020620030b883398151915260448201526a6e697469616c697a696e6760a81b6064820152608401620000c3565b62000205828262000209565b5050565b600054610100900460ff16620002655760405162461bcd60e51b815260206004820152602b6024820152600080516020620030b883398151915260448201526a6e697469616c697a696e6760a81b6064820152608401620000c3565b60656200027383826200032b565b5060666200028282826200032b565b505050565b634e487b7160e01b600052604160045260246000fd5b600181811c90821680620002b257607f821691505b602082108103620002d357634e487b7160e01b600052602260045260246000fd5b50919050565b601f8211156200028257600081815260208120601f850160051c81016020861015620003025750805b601f850160051c820191505b8181101562000323578281556001016200030e565b505050505050565b81516001600160401b0381111562000347576200034762000287565b6200035f816200035884546200029d565b84620002d9565b602080601f8311600181146200039757600084156200037e5750858301515b600019600386901b1c1916600185901b17855562000323565b600085815260208120601f198616915b82811015620003c857888601518255948401946001909101908401620003a7565b5085821015620003e75787850151600019600388901b60f8161c191681555b5050505050600190811b01905550565b612cb180620004076000396000f3fe608060405234801561001057600080fd5b506004361061018e5760003560e01c80636352211e116100de57806396ea48e811610097578063c87b56dd11610071578063c87b56dd146103ed578063e63d6ee414610400578063e985e9c514610420578063ff5e5b5f1461043357600080fd5b806396ea48e8146103b4578063a22cb465146103c7578063b88d4fde146103da57600080fd5b80636352211e1461035857806370a082311461036b57806375bfd63d1461037e5780637fbf385314610386578063949a4a4a1461039957806395d89b41146103ac57600080fd5b80631df566221161014b5780632986c0e5116101255780632986c0e51461030957806342842e0e146103125780635c46f7b114610325578063612afc0c1461033857600080fd5b80631df56622146102485780631f8bc7901461027657806323b872dd146102f657600080fd5b806301ffc9a71461019357806306fdde03146101bb578063081812fc146101d0578063095ea7b3146101fb5780631526fe27146102105780631aebcecb14610236575b600080fd5b6101a66101a13660046125b1565b610446565b60405190151581526020015b60405180910390f35b6101c3610498565b6040516101b2919061261e565b6101e36101de366004612631565b61052a565b6040516001600160a01b0390911681526020016101b2565b61020e610209366004612666565b610551565b005b61022361021e366004612631565b61066b565b6040516101b297969594939291906126fb565b61020e610244366004612666565b5050565b610268610256366004612631565b609a6020526000908152604090205481565b6040519081526020016101b2565b6102c1610284366004612631565b609c602052600090815260409020805460018201546002830154600384015460048501546005860154600690960154949593949293919290919087565b604080519788526020880196909652948601939093526060850191909152608084015260a083015260c082015260e0016101b2565b61020e610304366004612808565b610894565b610268606b5481565b61020e610320366004612808565b6108c5565b610268610333366004612844565b6108e0565b610268610346366004612631565b609b6020526000908152604090205481565b6101e3610366366004612631565b610ca2565b610268610379366004612866565b610d02565b61020e610d88565b610268610394366004612631565b610daf565b61020e6103a7366004612631565b611080565b6101c3611496565b6102686103c2366004612844565b6114a5565b61020e6103d5366004612881565b6114d6565b61020e6103e83660046128d3565b6114e1565b6101c36103fb366004612631565b611519565b61026861040e366004612631565b60996020526000908152604090205481565b6101a661042e3660046129af565b61158d565b6102686104413660046129e2565b6115bb565b60006001600160e01b031982166380ac58cd60e01b148061047757506001600160e01b03198216635b5e139f60e01b145b8061049257506301ffc9a760e01b6001600160e01b03198316145b92915050565b6060606580546104a790612a0e565b80601f01602080910402602001604051908101604052809291908181526020018280546104d390612a0e565b80156105205780601f106104f557610100808354040283529160200191610520565b820191906000526020600020905b81548152906001019060200180831161050357829003601f168201915b5050505050905090565b600061053582611955565b506000908152606960205260409020546001600160a01b031690565b600061055c82610ca2565b9050806001600160a01b0316836001600160a01b0316036105ce5760405162461bcd60e51b815260206004820152602160248201527f4552433732313a20617070726f76616c20746f2063757272656e74206f776e656044820152603960f91b60648201526084015b60405180910390fd5b336001600160a01b03821614806105ea57506105ea813361158d565b61065c5760405162461bcd60e51b815260206004820152603d60248201527f4552433732313a20617070726f76652063616c6c6572206973206e6f7420746f60448201527f6b656e206f776e6572206f7220617070726f76656420666f7220616c6c00000060648201526084016105c5565b61066683836119b7565b505050565b6098818154811061067b57600080fd5b60009182526020918290206040805161010081018252601590930290910180546001600160a01b03808216855260ff600160a01b8304169585019590955261ffff600160a81b9091041691830191909152600181015490921660608201526002820180549293509091839160808401916106f490612a0e565b80601f016020809104026020016040519081016040528092919081815260200182805461072090612a0e565b801561076d5780601f106107425761010080835404028352916020019161076d565b820191906000526020600020905b81548152906001019060200180831161075057829003601f168201915b50505091835250506003820154602080830191909152600483015460408084019190915260059093015460609283015282518084018452600686015481526007860154818301528351808501855260088701548152600987015481840152845160808082018752600a8901548252600b89015482860152600c89015482880152600d89015460ff1615158287015286519081018752600e890180548252600f8a01548287015260108a01548289015260118a018054895181890281018901909a52808a52999a959994989397959692959194918601939290919083018282801561087657602002820191906000526020600020905b815481526020019060010190808311610862575b50505091909252505050601382015460149092015490919060ff1687565b61089e3382611a25565b6108ba5760405162461bcd60e51b81526004016105c590612a48565b610666838383611a83565b610666838383604051806020016040528060008152506114e1565b600080609884815481106108f6576108f6612a95565b6000918252602090912060408051610200810190915260159092020180546001600160a01b038082166101008501908152600160a01b830460ff16610120860152600160a81b90920461ffff1661014085015260018301541661016084015260028201805484929184916101808501919061097090612a0e565b80601f016020809104026020016040519081016040528092919081815260200182805461099c90612a0e565b80156109e95780601f106109be576101008083540402835291602001916109e9565b820191906000526020600020905b8154815290600101906020018083116109cc57829003601f168201915b505050918352505060038201546020808301919091526004830154604080840191909152600590930154606092830152928452815180830183526006860154815260078601548185015284840152815180830183526008860154815260098601548185015284830152815160808082018452600a8701548252600b87015482860152600c87015482850152600d87015460ff161515828401528583019190915282518082018452600e870180548252600f88015482870152601088015482860152601188018054865181890281018901909752808752939097019691959094938601939290830182828015610afd57602002820191906000526020600020905b815481526020019060010190808311610ae9575b505050505081525050815260200160128201805480602002602001604051908101604052809291908181526020018280548015610b6357602002820191906000526020600020905b81546001600160a01b03168152600190910190602001808311610b45575b50505091835250506013820154602082015260149091015460ff1615156040909101526080810151519091506000610b9b8686611be7565b5090506000610baa8383612ac1565b90506000610bb9826021612ad4565b610bcb90674563918244f40000612ac1565b90506000610bda856021612ad4565b610bec90674563918244f40000612ac1565b90506000610c01610bfc84611c43565b611c8c565b90506000610c11610bfc84611c43565b90506000610c4f610c226021611c43565b610c49610c2f8686611cc4565b610c436a295be96e64066972000000611c43565b90611cd3565b90611ce2565b90506000610c6088620f4240612ad4565b610c6a9083612b01565b8a5160e00151909150670de0b6b3a7640000610c868284612ad4565b610c909190612b01565b9e9d5050505050505050505050505050565b6000818152606760205260408120546001600160a01b0316806104925760405162461bcd60e51b8152602060048201526018602482015277115490cdcc8c4e881a5b9d985b1a59081d1bdad95b88125160421b60448201526064016105c5565b60006001600160a01b038216610d6c5760405162461bcd60e51b815260206004820152602960248201527f4552433732313a2061646472657373207a65726f206973206e6f7420612076616044820152683634b21037bbb732b960b91b60648201526084016105c5565b506001600160a01b031660009081526068602052604090205490565b60985460005b8181101561024457610d9f81611080565b610da881612b23565b9050610d8e565b60008060988381548110610dc557610dc5612a95565b6000918252602090912060408051610200810190915260159092020180546001600160a01b038082166101008501908152600160a01b830460ff16610120860152600160a81b90920461ffff16610140850152600183015416610160840152600282018054849291849161018085019190610e3f90612a0e565b80601f0160208091040260200160405190810160405280929190818152602001828054610e6b90612a0e565b8015610eb85780601f10610e8d57610100808354040283529160200191610eb8565b820191906000526020600020905b815481529060010190602001808311610e9b57829003601f168201915b505050918352505060038201546020808301919091526004830154604080840191909152600590930154606092830152928452815180830183526006860154815260078601548185015284840152815180830183526008860154815260098601548185015284830152815160808082018452600a8701548252600b87015482860152600c87015482850152600d87015460ff161515828401528583019190915282518082018452600e870180548252600f88015482870152601088015482860152601188018054865181890281018901909752808752939097019691959094938601939290830182828015610fcc57602002820191906000526020600020905b815481526020019060010190808311610fb8575b50505050508152505081526020016012820180548060200260200160405190810160405280929190818152602001828054801561103257602002820191906000526020600020905b81546001600160a01b03168152600190910190602001808311611014575b50505091835250506013820154602082015260149091015460ff161515604090910152608081015151815160e001519192509061106e82611cfa565b6110789190612ad4565b949350505050565b60006098828154811061109557611095612a95565b6000918252602090912060408051610200810190915260159092020180546001600160a01b038082166101008501908152600160a01b830460ff16610120860152600160a81b90920461ffff1661014085015260018301541661016084015260028201805484929184916101808501919061110f90612a0e565b80601f016020809104026020016040519081016040528092919081815260200182805461113b90612a0e565b80156111885780601f1061115d57610100808354040283529160200191611188565b820191906000526020600020905b81548152906001019060200180831161116b57829003601f168201915b505050918352505060038201546020808301919091526004830154604080840191909152600590930154606092830152928452815180830183526006860154815260078601548185015284840152815180830183526008860154815260098601548185015284830152815160808082018452600a8701548252600b87015482860152600c87015482850152600d87015460ff161515828401528583019190915282518082018452600e870180548252600f8801548287015260108801548286015260118801805486518189028101890190975280875293909701969195909493860193929083018282801561129c57602002820191906000526020600020905b815481526020019060010190808311611288575b50505050508152505081526020016012820180548060200260200160405190810160405280929190818152602001828054801561130257602002820191906000526020600020905b81546001600160a01b031681526001909101906020018083116112e4575b50505091835250506013820154602082015260149091015460ff16151560409091015260808101516060015180519192509080158061134357508260e00151155b1561134e5750505050565b60005b8181101561138b5761137b83828151811061136e5761136e612a95565b6020026020010151611d4f565b61138481612b23565b9050611351565b506000848152609d60209081526040808320805482518185028101850190935280835291929091908301828280156113e257602002820191906000526020600020905b8154815260200190600101908083116113ce575b5050835193945060009250829150505b8281101561146457600084828151811061140e5761140e612a95565b6020908102919091018101516000818152609c909252604090912080549192509061143a8b82876115bb565b6002830155600182015461144e9086612ac1565b94505050508061145d90612b23565b90506113f2565b50806098888154811061147957611479612a95565b600091825260209091206010601590920201015550505050505050565b6060606680546104a790612a0e565b609d60205281600052604060002081815481106114c157600080fd5b90600052602060002001600091509150505481565b610244338383611f11565b6114eb3383611a25565b6115075760405162461bcd60e51b81526004016105c590612a48565b61151384848484611fdf565b50505050565b606061152482611955565b600061153b60408051602081019091526000815290565b9050600081511161155b5760405180602001604052806000815250611586565b8061156584612012565b604051602001611576929190612b3c565b6040516020818303038152906040525b9392505050565b6001600160a01b039182166000908152606a6020908152604080832093909416825291909152205460ff1690565b600080609885815481106115d1576115d1612a95565b6000918252602090912060408051610200810190915260159092020180546001600160a01b038082166101008501908152600160a01b830460ff16610120860152600160a81b90920461ffff1661014085015260018301541661016084015260028201805484929184916101808501919061164b90612a0e565b80601f016020809104026020016040519081016040528092919081815260200182805461167790612a0e565b80156116c45780601f10611699576101008083540402835291602001916116c4565b820191906000526020600020905b8154815290600101906020018083116116a757829003601f168201915b505050918352505060038201546020808301919091526004830154604080840191909152600590930154606092830152928452815180830183526006860154815260078601548185015284840152815180830183526008860154815260098601548185015284830152815160808082018452600a8701548252600b87015482860152600c87015482850152600d87015460ff161515828401528583019190915282518082018452600e870180548252600f880154828701526010880154828601526011880180548651818902810189019097528087529390970196919590949386019392908301828280156117d857602002820191906000526020600020905b8154815260200190600101908083116117c4575b50505050508152505081526020016012820180548060200260200160405190810160405280929190818152602001828054801561183e57602002820191906000526020600020905b81546001600160a01b03168152600190910190602001808311611820575b50505091835250506013820154602082015260149091015460ff16151560409091015290508260006118708787611be7565b509050600061187f8383612ac1565b9050600061188e826021612ad4565b6118a090674563918244f40000612ac1565b905060006118af856021612ad4565b6118c190674563918244f40000612ac1565b905060006118d1610bfc84611c43565b905060006118e1610bfc84611c43565b905060006118f2610c226021611c43565b9050600061190388620f4240612ad4565b61190d9083612b01565b8a5160e00151909150670de0b6b3a76400006119298284612ad4565b6119339190612b01565b9f9e505050505050505050505050505050565b6001600160a01b03163b151590565b6000818152606760205260409020546001600160a01b03166119b45760405162461bcd60e51b8152602060048201526018602482015277115490cdcc8c4e881a5b9d985b1a59081d1bdad95b88125160421b60448201526064016105c5565b50565b600081815260696020526040902080546001600160a01b0319166001600160a01b03841690811790915581906119ec82610ca2565b6001600160a01b03167f8c5be1e5ebec7d5bd14f71427d1e84f3dd0314c0f7b2291e5b200ac8c7c3b92560405160405180910390a45050565b600080611a3183610ca2565b9050806001600160a01b0316846001600160a01b03161480611a585750611a58818561158d565b806110785750836001600160a01b0316611a718461052a565b6001600160a01b031614949350505050565b826001600160a01b0316611a9682610ca2565b6001600160a01b031614611abc5760405162461bcd60e51b81526004016105c590612b6b565b6001600160a01b038216611b1e5760405162461bcd60e51b8152602060048201526024808201527f4552433732313a207472616e7366657220746f20746865207a65726f206164646044820152637265737360e01b60648201526084016105c5565b826001600160a01b0316611b3182610ca2565b6001600160a01b031614611b575760405162461bcd60e51b81526004016105c590612b6b565b600081815260696020908152604080832080546001600160a01b03199081169091556001600160a01b0387811680865260688552838620805460001901905590871680865283862080546001019055868652606790945282852080549092168417909155905184937fddf252ad1be2c89b69c2b068fc378daa952ba7f163c4a11628f55a4df523b3ef91a4505050565b60008060988481548110611bfd57611bfd612a95565b6000918252602090912060036015909202010154611c23670de0b6b3a764000085612ad4565b611c2d9190612b01565b9050611c3a816005612ad4565b91509250929050565b6000611c59670de0b6b3a7640000600019612b01565b821115611c7c576040516322630c4560e01b8152600481018390526024016105c5565b670de0b6b3a76400008202610492565b60006104926714057b7ef767814f670de0b6b3a7640000611cb2611caf866120a5565b90565b0281611cc057611cc0612aeb565b0490565b6000611586611caf8385612bb0565b6000611586611caf84846121db565b6000611586611caf84670de0b6b3a76400008561228f565b600080670de0b6b3a7640000611d1884670928ca80cfc20000612ad4565b611d229190612b01565b611d349067016345785d8a0000612ac1565b9050611586816ec097ce7bc90715b34b9f1000000000612b01565b6000818152609b6020908152604080832054808452609d83528184208054835181860281018601909452808452919493909190830182828015611db157602002820191906000526020600020905b815481526020019060010190808311611d9d575b5050835193945060009250829150505b82811015611e015785848281518110611ddc57611ddc612a95565b602002602001015103611df157809150611e01565b611dfa81612b23565b9050611dc1565b50818110611e515760405162461bcd60e51b815260206004820152601860248201527f546f6b656e206e6f7420666f756e6420696e206172726179000000000000000060448201526064016105c5565b805b611e5e600184612bb0565b811015611eb65783611e71826001612ac1565b81518110611e8157611e81612a95565b6020026020010151848281518110611e9b57611e9b612a95565b6020908102919091010152611eaf81612b23565b9050611e53565b506000848152609d602090815260409091208451611ed69286019061253b565b506000848152609d60205260409020805480611ef457611ef4612bc3565b600190038181906000526020600020016000905590555050505050565b816001600160a01b0316836001600160a01b031603611f725760405162461bcd60e51b815260206004820152601960248201527f4552433732313a20617070726f766520746f2063616c6c65720000000000000060448201526064016105c5565b6001600160a01b038381166000818152606a6020908152604080832094871680845294825291829020805460ff191686151590811790915591519182527f17307eab39ab6107e8899845ad3d59bd9653f200f220920489ca2b5937696c31910160405180910390a3505050565b611fea848484611a83565b611ff684848484612362565b6115135760405162461bcd60e51b81526004016105c590612bd9565b6060600061201f83612463565b600101905060008167ffffffffffffffff81111561203f5761203f6128bd565b6040519080825280601f01601f191660200182016040528015612069576020820181803683370190505b5090508181016020015b600019016f181899199a1a9b1b9c1cb0b131b232b360811b600a86061a8153600a850494508461207357509392505050565b600081670de0b6b3a76400008110156120d457604051633621413760e21b8152600481018490526024016105c5565b6000612160670de0b6b3a7640000830460016fffffffffffffffffffffffffffffffff821160071b91821c67ffffffffffffffff811160061b90811c63ffffffff811160051b90811c61ffff811160041b90811c60ff8111600390811b91821c600f811160021b90811c918211871b91821c969096119490961792909217171791909117919091171790565b9050670de0b6b3a7640000810282821c670de0b6b3a763ffff19810161218c57815b9695505050505050565b671bc16d674ec800006706f05b59d3b200005b80156121cf57670de0b6b3a76400008380020492508183106121c7579283019260019290921c915b60011c61219f565b50919695505050505050565b60008080600019848609848602925082811083820303915050670de0b6b3a764000081106122265760405163090638d560e41b815260048101869052602481018590526044016105c5565b6000670de0b6b3a7640000858709905081600003612252575050670de0b6b3a764000090049050610492565b620400008184030492109003600160ee1b02177faccb18165bd6fe31ae1cf318dc5b51eee0e1ba569b88cd74c1773b91fac1066902905092915050565b60008080600019858709858702925082811083820303915050806000036122c9578382816122bf576122bf612aeb565b0492505050611586565b8381106122fa576040516307639aaf60e41b81526004810187905260248101869052604481018590526064016105c5565b600084868809600260036001881981018916988990049182028318808302840302808302840302808302840302808302840302808302840302918202909203026000889003889004909101858311909403939093029303949094049190911702949350505050565b60006001600160a01b0384163b1561245857604051630a85bd0160e11b81526001600160a01b0385169063150b7a02906123a6903390899088908890600401612c2b565b6020604051808303816000875af19250505080156123e1575060408051601f3d908101601f191682019092526123de91810190612c5e565b60015b61243e573d80801561240f576040519150601f19603f3d011682016040523d82523d6000602084013e612414565b606091505b5080516000036124365760405162461bcd60e51b81526004016105c590612bd9565b805181602001fd5b6001600160e01b031916630a85bd0160e11b149050611078565b506001949350505050565b60008072184f03e93ff9f4daa797ed6e38ed64bf6a1f0160401b83106124a25772184f03e93ff9f4daa797ed6e38ed64bf6a1f0160401b830492506040015b6d04ee2d6d415b85acef810000000083106124ce576d04ee2d6d415b85acef8100000000830492506020015b662386f26fc1000083106124ec57662386f26fc10000830492506010015b6305f5e1008310612504576305f5e100830492506008015b612710831061251857612710830492506004015b6064831061252a576064830492506002015b600a83106104925760010192915050565b828054828255906000526020600020908101928215612576579160200282015b8281111561257657825182559160200191906001019061255b565b50612582929150612586565b5090565b5b808211156125825760008155600101612587565b6001600160e01b0319811681146119b457600080fd5b6000602082840312156125c357600080fd5b81356115868161259b565b60005b838110156125e95781810151838201526020016125d1565b50506000910152565b6000815180845261260a8160208601602086016125ce565b601f01601f19169290920160200192915050565b60208152600061158660208301846125f2565b60006020828403121561264357600080fd5b5035919050565b80356001600160a01b038116811461266157600080fd5b919050565b6000806040838503121561267957600080fd5b6126828361264a565b946020939093013593505050565b60006080830182518452602080840151818601526040840151604086015260608401516080606087015282815180855260a0880191508383019450600092505b808310156126f057845182529383019360019290920191908301906126d0565b509695505050505050565b61018080825288516001600160a01b0390811691830191909152602089015160ff166101a0830152604089015161ffff166101c08301526060890151166101e0820152608088015161010061020083015260009061275d6102808401826125f2565b905060a08a015161022084015260c08a015161024084015260e08a0151610260840152612797602084018a80518252602090810151910152565b8751606084015260208801516080840152865160a0840152602087015160c0840152604087015160e0840152606087015115156101008401528281036101208401526127e38187612690565b915050836101408301526127fc61016083018415159052565b98975050505050505050565b60008060006060848603121561281d57600080fd5b6128268461264a565b92506128346020850161264a565b9150604084013590509250925092565b6000806040838503121561285757600080fd5b50508035926020909101359150565b60006020828403121561287857600080fd5b6115868261264a565b6000806040838503121561289457600080fd5b61289d8361264a565b9150602083013580151581146128b257600080fd5b809150509250929050565b634e487b7160e01b600052604160045260246000fd5b600080600080608085870312156128e957600080fd5b6128f28561264a565b93506129006020860161264a565b925060408501359150606085013567ffffffffffffffff8082111561292457600080fd5b818701915087601f83011261293857600080fd5b81358181111561294a5761294a6128bd565b604051601f8201601f19908116603f01168101908382118183101715612972576129726128bd565b816040528281528a602084870101111561298b57600080fd5b82602086016020830137600060208483010152809550505050505092959194509250565b600080604083850312156129c257600080fd5b6129cb8361264a565b91506129d96020840161264a565b90509250929050565b6000806000606084860312156129f757600080fd5b505081359360208301359350604090920135919050565b600181811c90821680612a2257607f821691505b602082108103612a4257634e487b7160e01b600052602260045260246000fd5b50919050565b6020808252602d908201527f4552433732313a2063616c6c6572206973206e6f7420746f6b656e206f776e6560408201526c1c881bdc88185c1c1c9bdd9959609a1b606082015260800190565b634e487b7160e01b600052603260045260246000fd5b634e487b7160e01b600052601160045260246000fd5b8082018082111561049257610492612aab565b808202811582820484141761049257610492612aab565b634e487b7160e01b600052601260045260246000fd5b600082612b1e57634e487b7160e01b600052601260045260246000fd5b500490565b600060018201612b3557612b35612aab565b5060010190565b60008351612b4e8184602088016125ce565b835190830190612b628183602088016125ce565b01949350505050565b60208082526025908201527f4552433732313a207472616e736665722066726f6d20696e636f72726563742060408201526437bbb732b960d91b606082015260800190565b8181038181111561049257610492612aab565b634e487b7160e01b600052603160045260246000fd5b60208082526032908201527f4552433732313a207472616e7366657220746f206e6f6e20455243373231526560408201527131b2b4bb32b91034b6b83632b6b2b73a32b960711b606082015260800190565b6001600160a01b0385811682528416602082015260408101839052608060608201819052600090612182908301846125f2565b600060208284031215612c7057600080fd5b81516115868161259b56fea26469706673582212203d7e607ddcc289bdedf356f5037eca16fa4f8410f45b46c4caaab2b2ecea6edc64736f6c63430008110033496e697469616c697a61626c653a20636f6e7472616374206973206e6f742069",
    "linkReferences": {}
  },
  "methodIdentifiers": {
    "approve(address,uint256)": "095ea7b3",
    "balanceOf(address)": "70a08231",
    "calculateEffectiveAPY(uint256,uint256)": "5c46f7b1",
    "calculateEffectiveAPYConsolidate(uint256,uint256,uint256)": "ff5e5b5f",
    "consolidate(uint256)": "949a4a4a",
    "consolidateAll()": "75bfd63d",
    "getApproved(uint256)": "081812fc",
    "getCurrentAPY(uint256)": "7fbf3853",
    "index()": "2986c0e5",
    "isApprovedForAll(address,address)": "e985e9c5",
    "name()": "06fdde03",
    "nftAPY(uint256)": "1df56622",
    "nftBalance(uint256)": "e63d6ee4",
    "nftInfo(uint256)": "1f8bc790",
    "nftToPid(uint256)": "612afc0c",
    "ownerOf(uint256)": "6352211e",
    "pidNFTList(uint256,uint256)": "96ea48e8",
    "poolInfo(uint256)": "1526fe27",
    "receiveStrategyYield(address,uint256)": "1aebcecb",
    "safeTransferFrom(address,address,uint256)": "42842e0e",
    "safeTransferFrom(address,address,uint256,bytes)": "b88d4fde",
    "setApprovalForAll(address,bool)": "a22cb465",
    "supportsInterface(bytes4)": "01ffc9a7",
    "symbol()": "95d89b41",
    "tokenURI(uint256)": "c87b56dd",
    "transferFrom(address,address,uint256)": "23b872dd"
  },
  "id": 46
}