{
  "abi": [
    {
      "inputs": [],
      "stateMutability": "nonpayable",
      "type": "constructor"
    },
    {
      "inputs": [
        {
          "internalType": "UD60x18",
          "name": "x",
          "type": "uint256"
        }
      ],
      "name": "PRBMathUD60x18__LogInputTooSmall",
      "type": "error"
    },
    {
      "inputs": [
        {
          "internalType": "uint256",
          "name": "x",
          "type": "uint256"
        }
      ],
      "name": "PRBMathUD60x18__ToUD60x18Overflow",
      "type": "error"
    },
    {
      "inputs": [
        {
          "internalType": "uint256",
          "name": "x",
          "type": "uint256"
        },
        {
          "internalType": "uint256",
          "name": "y",
          "type": "uint256"
        }
      ],
      "name": "PRBMath__MulDiv18Overflow",
      "type": "error"
    },
    {
      "inputs": [
        {
          "internalType": "uint256",
          "name": "x",
          "type": "uint256"
        },
        {
          "internalType": "uint256",
          "name": "y",
          "type": "uint256"
        },
        {
          "internalType": "uint256",
          "name": "denominator",
          "type": "uint256"
        }
      ],
      "name": "PRBMath__MulDivOverflow",
      "type": "error"
    },
    {
      "anonymous": false,
      "inputs": [
        {
          "indexed": true,
          "internalType": "address",
          "name": "owner",
          "type": "address"
        },
        {
          "indexed": true,
          "internalType": "address",
          "name": "approved",
          "type": "address"
        },
        {
          "indexed": true,
          "internalType": "uint256",
          "name": "tokenId",
          "type": "uint256"
        }
      ],
      "name": "Approval",
      "type": "event"
    },
    {
      "anonymous": false,
      "inputs": [
        {
          "indexed": true,
          "internalType": "address",
          "name": "owner",
          "type": "address"
        },
        {
          "indexed": true,
          "internalType": "address",
          "name": "operator",
          "type": "address"
        },
        {
          "indexed": false,
          "internalType": "bool",
          "name": "approved",
          "type": "bool"
        }
      ],
      "name": "ApprovalForAll",
      "type": "event"
    },
    {
      "anonymous": false,
      "inputs": [
        {
          "indexed": false,
          "internalType": "uint8",
          "name": "version",
          "type": "uint8"
        }
      ],
      "name": "Initialized",
      "type": "event"
    },
    {
      "anonymous": false,
      "inputs": [
        {
          "indexed": true,
          "internalType": "address",
          "name": "from",
          "type": "address"
        },
        {
          "indexed": true,
          "internalType": "address",
          "name": "to",
          "type": "address"
        },
        {
          "indexed": true,
          "internalType": "uint256",
          "name": "tokenId",
          "type": "uint256"
        }
      ],
      "name": "Transfer",
      "type": "event"
    },
    {
      "inputs": [
        {
          "internalType": "address",
          "name": "to",
          "type": "address"
        },
        {
          "internalType": "uint256",
          "name": "tokenId",
          "type": "uint256"
        }
      ],
      "name": "approve",
      "outputs": [],
      "stateMutability": "nonpayable",
      "type": "function"
    },
    {
      "inputs": [
        {
          "internalType": "address",
          "name": "owner",
          "type": "address"
        }
      ],
      "name": "balanceOf",
      "outputs": [
        {
          "internalType": "uint256",
          "name": "",
          "type": "uint256"
        }
      ],
      "stateMutability": "view",
      "type": "function"
    },
    {
      "inputs": [
        {
          "internalType": "uint256",
          "name": "_stake",
          "type": "uint256"
        },
        {
          "internalType": "uint256",
          "name": "_poolID",
          "type": "uint256"
        }
      ],
      "name": "calculateEffectiveAPY",
      "outputs": [
        {
          "internalType": "uint256",
          "name": "toBeMinted",
          "type": "uint256"
        }
      ],
      "stateMutability": "view",
      "type": "function"
    },
    {
      "inputs": [
        {
          "internalType": "uint256",
          "name": "tokenId",
          "type": "uint256"
        }
      ],
      "name": "getApproved",
      "outputs": [
        {
          "internalType": "address",
          "name": "",
          "type": "address"
        }
      ],
      "stateMutability": "view",
      "type": "function"
    },
    {
      "inputs": [
        {
          "internalType": "uint256",
          "name": "_poolID",
          "type": "uint256"
        }
      ],
      "name": "getCurrentAPY",
      "outputs": [
        {
          "internalType": "uint256",
          "name": "currentAPY",
          "type": "uint256"
        }
      ],
      "stateMutability": "nonpayable",
      "type": "function"
    },
    {
      "inputs": [],
      "name": "index",
      "outputs": [
        {
          "internalType": "uint256",
          "name": "",
          "type": "uint256"
        }
      ],
      "stateMutability": "view",
      "type": "function"
    },
    {
      "inputs": [
        {
          "internalType": "address",
          "name": "owner",
          "type": "address"
        },
        {
          "internalType": "address",
          "name": "operator",
          "type": "address"
        }
      ],
      "name": "isApprovedForAll",
      "outputs": [
        {
          "internalType": "bool",
          "name": "",
          "type": "bool"
        }
      ],
      "stateMutability": "view",
      "type": "function"
    },
    {
      "inputs": [],
      "name": "name",
      "outputs": [
        {
          "internalType": "string",
          "name": "",
          "type": "string"
        }
      ],
      "stateMutability": "view",
      "type": "function"
    },
    {
      "inputs": [
        {
          "internalType": "uint256",
          "name": "",
          "type": "uint256"
        }
      ],
      "name": "nftAPY",
      "outputs": [
        {
          "internalType": "uint256",
          "name": "",
          "type": "uint256"
        }
      ],
      "stateMutability": "view",
      "type": "function"
    },
    {
      "inputs": [
        {
          "internalType": "uint256",
          "name": "",
          "type": "uint256"
        }
      ],
      "name": "nftBalance",
      "outputs": [
        {
          "internalType": "uint256",
          "name": "",
          "type": "uint256"
        }
      ],
      "stateMutability": "view",
      "type": "function"
    },
    {
      "inputs": [
        {
          "internalType": "uint256",
          "name": "",
          "type": "uint256"
        }
      ],
      "name": "nftInfo",
      "outputs": [
        {
          "internalType": "uint256",
          "name": "pid",
          "type": "uint256"
        },
        {
          "internalType": "uint256",
          "name": "amount",
          "type": "uint256"
        },
        {
          "internalType": "uint256",
          "name": "apy",
          "type": "uint256"
        }
      ],
      "stateMutability": "view",
      "type": "function"
    },
    {
      "inputs": [
        {
          "internalType": "uint256",
          "name": "tokenId",
          "type": "uint256"
        }
      ],
      "name": "ownerOf",
      "outputs": [
        {
          "internalType": "address",
          "name": "",
          "type": "address"
        }
      ],
      "stateMutability": "view",
      "type": "function"
    },
    {
      "inputs": [
        {
          "internalType": "uint256",
          "name": "",
          "type": "uint256"
        }
      ],
      "name": "poolInfo",
      "outputs": [
        {
          "components": [
            {
              "internalType": "contract IERC20",
              "name": "token",
              "type": "address"
            },
            {
              "internalType": "uint8",
              "name": "tokenDecimals",
              "type": "uint8"
            },
            {
              "internalType": "uint16",
              "name": "apy",
              "type": "uint16"
            },
            {
              "internalType": "address",
              "name": "projectWallet",
              "type": "address"
            },
            {
              "internalType": "string",
              "name": "projectName",
              "type": "string"
            },
            {
              "internalType": "uint256",
              "name": "poolCap",
              "type": "uint256"
            },
            {
              "internalType": "uint256",
              "name": "totalStaked",
              "type": "uint256"
            },
            {
              "internalType": "uint256",
              "name": "multiplier",
              "type": "uint256"
            }
          ],
          "internalType": "struct ISaloon.GeneralInfo",
          "name": "generalInfo",
          "type": "tuple"
        },
        {
          "components": [
            {
              "internalType": "uint256",
              "name": "projectDepositHeld",
              "type": "uint256"
            },
            {
              "internalType": "uint256",
              "name": "projectDepositInStrategy",
              "type": "uint256"
            }
          ],
          "internalType": "struct ISaloon.DepositInfo",
          "name": "depositInfo",
          "type": "tuple"
        },
        {
          "components": [
            {
              "internalType": "uint256",
              "name": "premiumBalance",
              "type": "uint256"
            },
            {
              "internalType": "uint256",
              "name": "premiumAvailable",
              "type": "uint256"
            }
          ],
          "internalType": "struct ISaloon.PremiumInfo",
          "name": "premiumInfo",
          "type": "tuple"
        },
        {
          "components": [
            {
              "internalType": "uint256",
              "name": "timelock",
              "type": "uint256"
            },
            {
              "internalType": "uint256",
              "name": "timeLimit",
              "type": "uint256"
            },
            {
              "internalType": "uint256",
              "name": "withdrawalScheduledAmount",
              "type": "uint256"
            },
            {
              "internalType": "bool",
              "name": "withdrawalExecuted",
              "type": "bool"
            }
          ],
          "internalType": "struct ISaloon.TimelockInfo",
          "name": "poolTimelock",
          "type": "tuple"
        },
        {
          "components": [
            {
              "internalType": "uint256",
              "name": "currentX",
              "type": "uint256"
            },
            {
              "internalType": "uint256",
              "name": "currentY",
              "type": "uint256"
            },
            {
              "internalType": "uint256",
              "name": "totalSupply",
              "type": "uint256"
            }
          ],
          "internalType": "struct ISaloon.TokenInfo",
          "name": "tokenInfo",
          "type": "tuple"
        },
        {
          "internalType": "uint256",
          "name": "freezeTime",
          "type": "uint256"
        },
        {
          "internalType": "bool",
          "name": "isActive",
          "type": "bool"
        }
      ],
      "stateMutability": "view",
      "type": "function"
    },
    {
      "inputs": [
        {
          "internalType": "address",
          "name": "from",
          "type": "address"
        },
        {
          "internalType": "address",
          "name": "to",
          "type": "address"
        },
        {
          "internalType": "uint256",
          "name": "tokenId",
          "type": "uint256"
        }
      ],
      "name": "safeTransferFrom",
      "outputs": [],
      "stateMutability": "nonpayable",
      "type": "function"
    },
    {
      "inputs": [
        {
          "internalType": "address",
          "name": "from",
          "type": "address"
        },
        {
          "internalType": "address",
          "name": "to",
          "type": "address"
        },
        {
          "internalType": "uint256",
          "name": "tokenId",
          "type": "uint256"
        },
        {
          "internalType": "bytes",
          "name": "data",
          "type": "bytes"
        }
      ],
      "name": "safeTransferFrom",
      "outputs": [],
      "stateMutability": "nonpayable",
      "type": "function"
    },
    {
      "inputs": [
        {
          "internalType": "address",
          "name": "operator",
          "type": "address"
        },
        {
          "internalType": "bool",
          "name": "approved",
          "type": "bool"
        }
      ],
      "name": "setApprovalForAll",
      "outputs": [],
      "stateMutability": "nonpayable",
      "type": "function"
    },
    {
      "inputs": [
        {
          "internalType": "bytes4",
          "name": "interfaceId",
          "type": "bytes4"
        }
      ],
      "name": "supportsInterface",
      "outputs": [
        {
          "internalType": "bool",
          "name": "",
          "type": "bool"
        }
      ],
      "stateMutability": "view",
      "type": "function"
    },
    {
      "inputs": [],
      "name": "symbol",
      "outputs": [
        {
          "internalType": "string",
          "name": "",
          "type": "string"
        }
      ],
      "stateMutability": "view",
      "type": "function"
    },
    {
      "inputs": [
        {
          "internalType": "uint256",
          "name": "tokenId",
          "type": "uint256"
        }
      ],
      "name": "tokenURI",
      "outputs": [
        {
          "internalType": "string",
          "name": "",
          "type": "string"
        }
      ],
      "stateMutability": "view",
      "type": "function"
    },
    {
      "inputs": [
        {
          "internalType": "address",
          "name": "from",
          "type": "address"
        },
        {
          "internalType": "address",
          "name": "to",
          "type": "address"
        },
        {
          "internalType": "uint256",
          "name": "tokenId",
          "type": "uint256"
        }
      ],
      "name": "transferFrom",
      "outputs": [],
      "stateMutability": "nonpayable",
      "type": "function"
    }
  ],
  "bytecode": {
    "object": "0x60806040523480156200001157600080fd5b50600054610100900460ff1615808015620000335750600054600160ff909116105b8062000063575062000050306200018e60201b62000f2f1760201c565b15801562000063575060005460ff166001145b620000cc5760405162461bcd60e51b815260206004820152602e60248201527f496e697469616c697a61626c653a20636f6e747261637420697320616c72656160448201526d191e481a5b9a5d1a585b1a5e995960921b60648201526084015b60405180910390fd5b6000805460ff191660011790558015620000f0576000805461ff0019166101001790555b620001406040518060400160405280600b81526020016a2137bab73a3caa37b5b2b760a91b8152506040518060400160405280600381526020016210951560ea1b8152506200019d60201b60201c565b801562000187576000805461ff0019169055604051600181527f7f26b83ff96e1f2b6a682f133852f6798a09c465da95921460cefb38474024989060200160405180910390a15b50620003f7565b6001600160a01b03163b151590565b600054610100900460ff16620001f95760405162461bcd60e51b815260206004820152602b6024820152600080516020620023ce83398151915260448201526a6e697469616c697a696e6760a81b6064820152608401620000c3565b62000205828262000209565b5050565b600054610100900460ff16620002655760405162461bcd60e51b815260206004820152602b6024820152600080516020620023ce83398151915260448201526a6e697469616c697a696e6760a81b6064820152608401620000c3565b60656200027383826200032b565b5060666200028282826200032b565b505050565b634e487b7160e01b600052604160045260246000fd5b600181811c90821680620002b257607f821691505b602082108103620002d357634e487b7160e01b600052602260045260246000fd5b50919050565b601f8211156200028257600081815260208120601f850160051c81016020861015620003025750805b601f850160051c820191505b8181101562000323578281556001016200030e565b505050505050565b81516001600160401b0381111562000347576200034762000287565b6200035f816200035884546200029d565b84620002d9565b602080601f8311600181146200039757600084156200037e5750858301515b600019600386901b1c1916600185901b17855562000323565b600085815260208120601f198616915b82811015620003c857888601518255948401946001909101908401620003a7565b5085821015620003e75787850151600019600388901b60f8161c191681555b5050505050600190811b01905550565b611fc780620004076000396000f3fe608060405234801561001057600080fd5b506004361061012c5760003560e01c80635c46f7b1116100ad578063a22cb46511610071578063a22cb465146102cf578063b88d4fde146102e2578063c87b56dd146102f5578063e63d6ee414610308578063e985e9c51461032857600080fd5b80635c46f7b11461027b5780636352211e1461028e57806370a08231146102a15780637fbf3853146102b457806395d89b41146102c757600080fd5b80631df56622116100f45780631df56622146101d45780631f8bc7901461020257806323b872dd1461024c5780632986c0e51461025f57806342842e0e1461026857600080fd5b806301ffc9a71461013157806306fdde0314610159578063081812fc1461016e578063095ea7b3146101995780631526fe27146101ae575b600080fd5b61014461013f366004611983565b61033b565b60405190151581526020015b60405180910390f35b61016161038d565b60405161015091906119f0565b61018161017c366004611a03565b61041f565b6040516001600160a01b039091168152602001610150565b6101ac6101a7366004611a38565b610446565b005b6101c16101bc366004611a03565b610560565b6040516101509796959493929190611a62565b6101f46101e2366004611a03565b609a6020526000908152604090205481565b604051908152602001610150565b610231610210366004611a03565b609b6020526000908152604090208054600182015460029092015490919083565b60408051938452602084019290925290820152606001610150565b6101ac61025a366004611b79565b61072e565b6101f4606b5481565b6101ac610276366004611b79565b61075f565b6101f4610289366004611bb5565b61077a565b61018161029c366004611a03565b610ade565b6101f46102af366004611bd7565b610b3e565b6101f46102c2366004611a03565b610bc4565b610161610e37565b6101ac6102dd366004611bf2565b610e46565b6101ac6102f0366004611c44565b610e55565b610161610303366004611a03565b610e8d565b6101f4610316366004611a03565b60996020526000908152604090205481565b610144610336366004611d20565b610f01565b60006001600160e01b031982166380ac58cd60e01b148061036c57506001600160e01b03198216635b5e139f60e01b145b8061038757506301ffc9a760e01b6001600160e01b03198316145b92915050565b60606065805461039c90611d53565b80601f01602080910402602001604051908101604052809291908181526020018280546103c890611d53565b80156104155780601f106103ea57610100808354040283529160200191610415565b820191906000526020600020905b8154815290600101906020018083116103f857829003601f168201915b5050505050905090565b600061042a82610f3e565b506000908152606960205260409020546001600160a01b031690565b600061045182610ade565b9050806001600160a01b0316836001600160a01b0316036104c35760405162461bcd60e51b815260206004820152602160248201527f4552433732313a20617070726f76616c20746f2063757272656e74206f776e656044820152603960f91b60648201526084015b60405180910390fd5b336001600160a01b03821614806104df57506104df8133610f01565b6105515760405162461bcd60e51b815260206004820152603d60248201527f4552433732313a20617070726f76652063616c6c6572206973206e6f7420746f60448201527f6b656e206f776e6572206f7220617070726f76656420666f7220616c6c00000060648201526084016104ba565b61055b8383610fa0565b505050565b6098818154811061057057600080fd5b60009182526020918290206040805161010081018252601490930290910180546001600160a01b03808216855260ff600160a01b8304169585019590955261ffff600160a81b9091041691830191909152600181015490921660608201526002820180549293509091839160808401916105e990611d53565b80601f016020809104026020016040519081016040528092919081815260200182805461061590611d53565b80156106625780601f1061063757610100808354040283529160200191610662565b820191906000526020600020905b81548152906001019060200180831161064557829003601f168201915b505050918352505060038201546020808301919091526004830154604080840191909152600590930154606092830152825180840184526006860154815260078601548183015283518085018552600887015481526009870154818401528451608081018652600a8801548152600b88015481850152600c88015481870152600d88015460ff90811615158287015286519586018752600e8901548652600f89015494860194909452601088015495850195909552601287015460139097015495969195909493921687565b610738338261100e565b6107545760405162461bcd60e51b81526004016104ba90611d8d565b61055b83838361106c565b61055b83838360405180602001604052806000815250610e55565b6000806098838154811061079057610790611dda565b6000918252602090912060408051610200810190915260149092020180546001600160a01b038082166101008501908152600160a01b830460ff16610120860152600160a81b90920461ffff1661014085015260018301541661016084015260028201805484929184916101808501919061080a90611d53565b80601f016020809104026020016040519081016040528092919081815260200182805461083690611d53565b80156108835780601f1061085857610100808354040283529160200191610883565b820191906000526020600020905b81548152906001019060200180831161086657829003601f168201915b505050918352505060038201546020808301919091526004830154604080840191909152600590930154606092830152928452815180830183526006860154815260078601548185015284840152815180830183526008860154815260098601548185015284830152815160808082018452600a8701548252600b87015482860152600c87015482850152600d87015460ff161515828401528583019190915282519182018352600e8601548252600f8601548285015260108601548284015284015260118401805482518185028101850190935280835260a090940193919290919083018282801561099f57602002820191906000526020600020905b81546001600160a01b03168152600190910190602001808311610981575b50505091835250506012820154602082015260139091015460ff16151560409091015260808101515190915060006109d786866111d0565b50905060006109e68383611e06565b905060006109f5826021611e19565b610a0790674563918244f40000611e06565b90506000610a16856021611e19565b610a2890674563918244f40000611e06565b90506000610a3d610a388461122c565b611275565b90506000610a4d610a388461122c565b90506000610a8b610a5e602161122c565b610a85610a6b86866112ad565b610a7f6a295be96e6406697200000061122c565b906112bc565b906112cb565b90506000610a9c88620f4240611e19565b610aa69083611e46565b8a5160e00151909150670de0b6b3a7640000610ac28284611e19565b610acc9190611e46565b9e9d5050505050505050505050505050565b6000818152606760205260408120546001600160a01b0316806103875760405162461bcd60e51b8152602060048201526018602482015277115490cdcc8c4e881a5b9d985b1a59081d1bdad95b88125160421b60448201526064016104ba565b60006001600160a01b038216610ba85760405162461bcd60e51b815260206004820152602960248201527f4552433732313a2061646472657373207a65726f206973206e6f7420612076616044820152683634b21037bbb732b960b91b60648201526084016104ba565b506001600160a01b031660009081526068602052604090205490565b60008060988381548110610bda57610bda611dda565b6000918252602090912060408051610200810190915260149092020180546001600160a01b038082166101008501908152600160a01b830460ff16610120860152600160a81b90920461ffff16610140850152600183015416610160840152600282018054849291849161018085019190610c5490611d53565b80601f0160208091040260200160405190810160405280929190818152602001828054610c8090611d53565b8015610ccd5780601f10610ca257610100808354040283529160200191610ccd565b820191906000526020600020905b815481529060010190602001808311610cb057829003601f168201915b505050918352505060038201546020808301919091526004830154604080840191909152600590930154606092830152928452815180830183526006860154815260078601548185015284840152815180830183526008860154815260098601548185015284830152815160808082018452600a8701548252600b87015482860152600c87015482850152600d87015460ff161515828401528583019190915282519182018352600e8601548252600f8601548285015260108601548284015284015260118401805482518185028101850190935280835260a0909401939192909190830182828015610de957602002820191906000526020600020905b81546001600160a01b03168152600190910190602001808311610dcb575b50505091835250506012820154602082015260139091015460ff161515604090910152608081015151815160e0015191925090610e25826112e3565b610e2f9190611e19565b949350505050565b60606066805461039c90611d53565b610e51338383611343565b5050565b610e5f338361100e565b610e7b5760405162461bcd60e51b81526004016104ba90611d8d565b610e8784848484611411565b50505050565b6060610e9882610f3e565b6000610eaf60408051602081019091526000815290565b90506000815111610ecf5760405180602001604052806000815250610efa565b80610ed984611444565b604051602001610eea929190611e68565b6040516020818303038152906040525b9392505050565b6001600160a01b039182166000908152606a6020908152604080832093909416825291909152205460ff1690565b6001600160a01b03163b151590565b6000818152606760205260409020546001600160a01b0316610f9d5760405162461bcd60e51b8152602060048201526018602482015277115490cdcc8c4e881a5b9d985b1a59081d1bdad95b88125160421b60448201526064016104ba565b50565b600081815260696020526040902080546001600160a01b0319166001600160a01b0384169081179091558190610fd582610ade565b6001600160a01b03167f8c5be1e5ebec7d5bd14f71427d1e84f3dd0314c0f7b2291e5b200ac8c7c3b92560405160405180910390a45050565b60008061101a83610ade565b9050806001600160a01b0316846001600160a01b0316148061104157506110418185610f01565b80610e2f5750836001600160a01b031661105a8461041f565b6001600160a01b031614949350505050565b826001600160a01b031661107f82610ade565b6001600160a01b0316146110a55760405162461bcd60e51b81526004016104ba90611e97565b6001600160a01b0382166111075760405162461bcd60e51b8152602060048201526024808201527f4552433732313a207472616e7366657220746f20746865207a65726f206164646044820152637265737360e01b60648201526084016104ba565b826001600160a01b031661111a82610ade565b6001600160a01b0316146111405760405162461bcd60e51b81526004016104ba90611e97565b600081815260696020908152604080832080546001600160a01b03199081169091556001600160a01b0387811680865260688552838620805460001901905590871680865283862080546001019055868652606790945282852080549092168417909155905184937fddf252ad1be2c89b69c2b068fc378daa952ba7f163c4a11628f55a4df523b3ef91a4505050565b600080609883815481106111e6576111e6611dda565b600091825260209091206003601490920201015461120c670de0b6b3a764000086611e19565b6112169190611e46565b9050611223816005611e19565b91509250929050565b6000611242670de0b6b3a7640000600019611e46565b821115611265576040516322630c4560e01b8152600481018390526024016104ba565b670de0b6b3a76400008202610387565b60006103876714057b7ef767814f670de0b6b3a764000061129b611298866114d7565b90565b02816112a9576112a9611e30565b0490565b6000610efa6112988385611edc565b6000610efa611298848461160d565b6000610efa61129884670de0b6b3a7640000856116c1565b600080670de0b6b3a764000061130184670928ca80cfc20000611e19565b61130b9190611e46565b61131d9067016345785d8a0000611e06565b9050600061133a826ec097ce7bc90715b34b9f1000000000611e46565b90505050919050565b816001600160a01b0316836001600160a01b0316036113a45760405162461bcd60e51b815260206004820152601960248201527f4552433732313a20617070726f766520746f2063616c6c65720000000000000060448201526064016104ba565b6001600160a01b038381166000818152606a6020908152604080832094871680845294825291829020805460ff191686151590811790915591519182527f17307eab39ab6107e8899845ad3d59bd9653f200f220920489ca2b5937696c31910160405180910390a3505050565b61141c84848461106c565b61142884848484611794565b610e875760405162461bcd60e51b81526004016104ba90611eef565b6060600061145183611895565b600101905060008167ffffffffffffffff81111561147157611471611c2e565b6040519080825280601f01601f19166020018201604052801561149b576020820181803683370190505b5090508181016020015b600019016f181899199a1a9b1b9c1cb0b131b232b360811b600a86061a8153600a85049450846114a557509392505050565b600081670de0b6b3a764000081101561150657604051633621413760e21b8152600481018490526024016104ba565b6000611592670de0b6b3a7640000830460016fffffffffffffffffffffffffffffffff821160071b91821c67ffffffffffffffff811160061b90811c63ffffffff811160051b90811c61ffff811160041b90811c60ff8111600390811b91821c600f811160021b90811c918211871b91821c969096119490961792909217171791909117919091171790565b9050670de0b6b3a7640000810282821c670de0b6b3a763ffff1981016115be57815b9695505050505050565b671bc16d674ec800006706f05b59d3b200005b801561160157670de0b6b3a76400008380020492508183106115f9579283019260019290921c915b60011c6115d1565b50919695505050505050565b60008080600019848609848602925082811083820303915050670de0b6b3a764000081106116585760405163090638d560e41b815260048101869052602481018590526044016104ba565b6000670de0b6b3a7640000858709905081600003611684575050670de0b6b3a764000090049050610387565b620400008184030492109003600160ee1b02177faccb18165bd6fe31ae1cf318dc5b51eee0e1ba569b88cd74c1773b91fac1066902905092915050565b60008080600019858709858702925082811083820303915050806000036116fb578382816116f1576116f1611e30565b0492505050610efa565b83811061172c576040516307639aaf60e41b81526004810187905260248101869052604481018590526064016104ba565b600084868809600260036001881981018916988990049182028318808302840302808302840302808302840302808302840302808302840302918202909203026000889003889004909101858311909403939093029303949094049190911702949350505050565b60006001600160a01b0384163b1561188a57604051630a85bd0160e11b81526001600160a01b0385169063150b7a02906117d8903390899088908890600401611f41565b6020604051808303816000875af1925050508015611813575060408051601f3d908101601f1916820190925261181091810190611f74565b60015b611870573d808015611841576040519150601f19603f3d011682016040523d82523d6000602084013e611846565b606091505b5080516000036118685760405162461bcd60e51b81526004016104ba90611eef565b805181602001fd5b6001600160e01b031916630a85bd0160e11b149050610e2f565b506001949350505050565b60008072184f03e93ff9f4daa797ed6e38ed64bf6a1f0160401b83106118d45772184f03e93ff9f4daa797ed6e38ed64bf6a1f0160401b830492506040015b6d04ee2d6d415b85acef81000000008310611900576d04ee2d6d415b85acef8100000000830492506020015b662386f26fc10000831061191e57662386f26fc10000830492506010015b6305f5e1008310611936576305f5e100830492506008015b612710831061194a57612710830492506004015b6064831061195c576064830492506002015b600a83106103875760010192915050565b6001600160e01b031981168114610f9d57600080fd5b60006020828403121561199557600080fd5b8135610efa8161196d565b60005b838110156119bb5781810151838201526020016119a3565b50506000910152565b600081518084526119dc8160208601602086016119a0565b601f01601f19169290920160200192915050565b602081526000610efa60208301846119c4565b600060208284031215611a1557600080fd5b5035919050565b80356001600160a01b0381168114611a3357600080fd5b919050565b60008060408385031215611a4b57600080fd5b611a5483611a1c565b946020939093013593505050565b6101c080825288516001600160a01b0390811691830191909152602089015160ff166101e0830152604089015161ffff166102008301526060890151166102208201526080880151610100610240830152600090611ac46102c08401826119c4565b60a08b015161026085015260c08b015161028085015260e08b01516102a08501529150611b009050602083018980518252602090810151910152565b8651606083015260208701516080830152855160a0830152602086015160c0830152604086015160e08301526060860151151561010083015284516101208301526020850151610140830152604085015161016083015283610180830152611b6d6101a083018415159052565b98975050505050505050565b600080600060608486031215611b8e57600080fd5b611b9784611a1c565b9250611ba560208501611a1c565b9150604084013590509250925092565b60008060408385031215611bc857600080fd5b50508035926020909101359150565b600060208284031215611be957600080fd5b610efa82611a1c565b60008060408385031215611c0557600080fd5b611c0e83611a1c565b915060208301358015158114611c2357600080fd5b809150509250929050565b634e487b7160e01b600052604160045260246000fd5b60008060008060808587031215611c5a57600080fd5b611c6385611a1c565b9350611c7160208601611a1c565b925060408501359150606085013567ffffffffffffffff80821115611c9557600080fd5b818701915087601f830112611ca957600080fd5b813581811115611cbb57611cbb611c2e565b604051601f8201601f19908116603f01168101908382118183101715611ce357611ce3611c2e565b816040528281528a6020848701011115611cfc57600080fd5b82602086016020830137600060208483010152809550505050505092959194509250565b60008060408385031215611d3357600080fd5b611d3c83611a1c565b9150611d4a60208401611a1c565b90509250929050565b600181811c90821680611d6757607f821691505b602082108103611d8757634e487b7160e01b600052602260045260246000fd5b50919050565b6020808252602d908201527f4552433732313a2063616c6c6572206973206e6f7420746f6b656e206f776e6560408201526c1c881bdc88185c1c1c9bdd9959609a1b606082015260800190565b634e487b7160e01b600052603260045260246000fd5b634e487b7160e01b600052601160045260246000fd5b8082018082111561038757610387611df0565b808202811582820484141761038757610387611df0565b634e487b7160e01b600052601260045260246000fd5b600082611e6357634e487b7160e01b600052601260045260246000fd5b500490565b60008351611e7a8184602088016119a0565b835190830190611e8e8183602088016119a0565b01949350505050565b60208082526025908201527f4552433732313a207472616e736665722066726f6d20696e636f72726563742060408201526437bbb732b960d91b606082015260800190565b8181038181111561038757610387611df0565b60208082526032908201527f4552433732313a207472616e7366657220746f206e6f6e20455243373231526560408201527131b2b4bb32b91034b6b83632b6b2b73a32b960711b606082015260800190565b6001600160a01b03858116825284166020820152604081018390526080606082018190526000906115b4908301846119c4565b600060208284031215611f8657600080fd5b8151610efa8161196d56fea26469706673582212207002fe0d6b5da7bcdda22a77908825a667795c73ba0e323f153a6169290646d164736f6c63430008110033496e697469616c697a61626c653a20636f6e7472616374206973206e6f742069",
    "linkReferences": {}
  },
  "methodIdentifiers": {
    "approve(address,uint256)": "095ea7b3",
    "balanceOf(address)": "70a08231",
    "calculateEffectiveAPY(uint256,uint256)": "5c46f7b1",
    "getApproved(uint256)": "081812fc",
    "getCurrentAPY(uint256)": "7fbf3853",
    "index()": "2986c0e5",
    "isApprovedForAll(address,address)": "e985e9c5",
    "name()": "06fdde03",
    "nftAPY(uint256)": "1df56622",
    "nftBalance(uint256)": "e63d6ee4",
    "nftInfo(uint256)": "1f8bc790",
    "ownerOf(uint256)": "6352211e",
    "poolInfo(uint256)": "1526fe27",
    "safeTransferFrom(address,address,uint256)": "42842e0e",
    "safeTransferFrom(address,address,uint256,bytes)": "b88d4fde",
    "setApprovalForAll(address,bool)": "a22cb465",
    "supportsInterface(bytes4)": "01ffc9a7",
    "symbol()": "95d89b41",
    "tokenURI(uint256)": "c87b56dd",
    "transferFrom(address,address,uint256)": "23b872dd"
  },
  "id": 13
}