{
  "abi": [
    {
      "inputs": [],
      "stateMutability": "nonpayable",
      "type": "constructor"
    },
    {
      "inputs": [
        {
          "internalType": "UD60x18",
          "name": "x",
          "type": "uint256"
        }
      ],
      "name": "PRBMathUD60x18__LogInputTooSmall",
      "type": "error"
    },
    {
      "inputs": [
        {
          "internalType": "uint256",
          "name": "x",
          "type": "uint256"
        }
      ],
      "name": "PRBMathUD60x18__ToUD60x18Overflow",
      "type": "error"
    },
    {
      "inputs": [
        {
          "internalType": "uint256",
          "name": "x",
          "type": "uint256"
        },
        {
          "internalType": "uint256",
          "name": "y",
          "type": "uint256"
        }
      ],
      "name": "PRBMath__MulDiv18Overflow",
      "type": "error"
    },
    {
      "inputs": [
        {
          "internalType": "uint256",
          "name": "x",
          "type": "uint256"
        },
        {
          "internalType": "uint256",
          "name": "y",
          "type": "uint256"
        },
        {
          "internalType": "uint256",
          "name": "denominator",
          "type": "uint256"
        }
      ],
      "name": "PRBMath__MulDivOverflow",
      "type": "error"
    },
    {
      "anonymous": false,
      "inputs": [
        {
          "indexed": true,
          "internalType": "address",
          "name": "owner",
          "type": "address"
        },
        {
          "indexed": true,
          "internalType": "address",
          "name": "approved",
          "type": "address"
        },
        {
          "indexed": true,
          "internalType": "uint256",
          "name": "tokenId",
          "type": "uint256"
        }
      ],
      "name": "Approval",
      "type": "event"
    },
    {
      "anonymous": false,
      "inputs": [
        {
          "indexed": true,
          "internalType": "address",
          "name": "owner",
          "type": "address"
        },
        {
          "indexed": true,
          "internalType": "address",
          "name": "operator",
          "type": "address"
        },
        {
          "indexed": false,
          "internalType": "bool",
          "name": "approved",
          "type": "bool"
        }
      ],
      "name": "ApprovalForAll",
      "type": "event"
    },
    {
      "anonymous": false,
      "inputs": [
        {
          "indexed": false,
          "internalType": "uint8",
          "name": "version",
          "type": "uint8"
        }
      ],
      "name": "Initialized",
      "type": "event"
    },
    {
      "anonymous": false,
      "inputs": [
        {
          "indexed": true,
          "internalType": "address",
          "name": "from",
          "type": "address"
        },
        {
          "indexed": true,
          "internalType": "address",
          "name": "to",
          "type": "address"
        },
        {
          "indexed": true,
          "internalType": "uint256",
          "name": "tokenId",
          "type": "uint256"
        }
      ],
      "name": "Transfer",
      "type": "event"
    },
    {
      "inputs": [
        {
          "internalType": "address",
          "name": "to",
          "type": "address"
        },
        {
          "internalType": "uint256",
          "name": "tokenId",
          "type": "uint256"
        }
      ],
      "name": "approve",
      "outputs": [],
      "stateMutability": "nonpayable",
      "type": "function"
    },
    {
      "inputs": [
        {
          "internalType": "address",
          "name": "owner",
          "type": "address"
        }
      ],
      "name": "balanceOf",
      "outputs": [
        {
          "internalType": "uint256",
          "name": "",
          "type": "uint256"
        }
      ],
      "stateMutability": "view",
      "type": "function"
    },
    {
      "inputs": [
        {
          "internalType": "uint256",
          "name": "_pid",
          "type": "uint256"
        },
        {
          "internalType": "uint256",
          "name": "_stake",
          "type": "uint256"
        }
      ],
      "name": "calculateEffectiveAPY",
      "outputs": [
        {
          "internalType": "uint256",
          "name": "scaledAPY",
          "type": "uint256"
        }
      ],
      "stateMutability": "view",
      "type": "function"
    },
    {
      "inputs": [
        {
          "internalType": "uint256",
          "name": "_pid",
          "type": "uint256"
        }
      ],
      "name": "consolidate",
      "outputs": [],
      "stateMutability": "nonpayable",
      "type": "function"
    },
    {
      "inputs": [],
      "name": "consolidateAll",
      "outputs": [],
      "stateMutability": "nonpayable",
      "type": "function"
    },
    {
      "inputs": [
        {
          "internalType": "uint256",
          "name": "tokenId",
          "type": "uint256"
        }
      ],
      "name": "getApproved",
      "outputs": [
        {
          "internalType": "address",
          "name": "",
          "type": "address"
        }
      ],
      "stateMutability": "view",
      "type": "function"
    },
    {
      "inputs": [
        {
          "internalType": "uint256",
          "name": "_pid",
          "type": "uint256"
        }
      ],
      "name": "getCurrentAPY",
      "outputs": [
        {
          "internalType": "uint256",
          "name": "currentAPY",
          "type": "uint256"
        }
      ],
      "stateMutability": "view",
      "type": "function"
    },
    {
      "inputs": [],
      "name": "index",
      "outputs": [
        {
          "internalType": "uint256",
          "name": "",
          "type": "uint256"
        }
      ],
      "stateMutability": "view",
      "type": "function"
    },
    {
      "inputs": [
        {
          "internalType": "address",
          "name": "owner",
          "type": "address"
        },
        {
          "internalType": "address",
          "name": "operator",
          "type": "address"
        }
      ],
      "name": "isApprovedForAll",
      "outputs": [
        {
          "internalType": "bool",
          "name": "",
          "type": "bool"
        }
      ],
      "stateMutability": "view",
      "type": "function"
    },
    {
      "inputs": [],
      "name": "name",
      "outputs": [
        {
          "internalType": "string",
          "name": "",
          "type": "string"
        }
      ],
      "stateMutability": "view",
      "type": "function"
    },
    {
      "inputs": [
        {
          "internalType": "uint256",
          "name": "",
          "type": "uint256"
        }
      ],
      "name": "nftAPY",
      "outputs": [
        {
          "internalType": "uint256",
          "name": "",
          "type": "uint256"
        }
      ],
      "stateMutability": "view",
      "type": "function"
    },
    {
      "inputs": [
        {
          "internalType": "uint256",
          "name": "",
          "type": "uint256"
        }
      ],
      "name": "nftBalance",
      "outputs": [
        {
          "internalType": "uint256",
          "name": "",
          "type": "uint256"
        }
      ],
      "stateMutability": "view",
      "type": "function"
    },
    {
      "inputs": [
        {
          "internalType": "uint256",
          "name": "",
          "type": "uint256"
        }
      ],
      "name": "nftInfo",
      "outputs": [
        {
          "internalType": "uint256",
          "name": "amount",
          "type": "uint256"
        },
        {
          "internalType": "uint256",
          "name": "apy",
          "type": "uint256"
        },
        {
          "internalType": "uint256",
          "name": "unclaimed",
          "type": "uint256"
        },
        {
          "internalType": "uint256",
          "name": "lastClaimedTime",
          "type": "uint256"
        },
        {
          "internalType": "uint256",
          "name": "timelock",
          "type": "uint256"
        },
        {
          "internalType": "uint256",
          "name": "timelimit",
          "type": "uint256"
        }
      ],
      "stateMutability": "view",
      "type": "function"
    },
    {
      "inputs": [
        {
          "internalType": "uint256",
          "name": "",
          "type": "uint256"
        }
      ],
      "name": "nftToPid",
      "outputs": [
        {
          "internalType": "uint256",
          "name": "",
          "type": "uint256"
        }
      ],
      "stateMutability": "view",
      "type": "function"
    },
    {
      "inputs": [
        {
          "internalType": "uint256",
          "name": "tokenId",
          "type": "uint256"
        }
      ],
      "name": "ownerOf",
      "outputs": [
        {
          "internalType": "address",
          "name": "",
          "type": "address"
        }
      ],
      "stateMutability": "view",
      "type": "function"
    },
    {
      "inputs": [
        {
          "internalType": "uint256",
          "name": "",
          "type": "uint256"
        },
        {
          "internalType": "uint256",
          "name": "",
          "type": "uint256"
        }
      ],
      "name": "pidNFTList",
      "outputs": [
        {
          "internalType": "uint256",
          "name": "",
          "type": "uint256"
        }
      ],
      "stateMutability": "view",
      "type": "function"
    },
    {
      "inputs": [
        {
          "internalType": "uint256",
          "name": "",
          "type": "uint256"
        }
      ],
      "name": "poolInfo",
      "outputs": [
        {
          "components": [
            {
              "internalType": "contract IERC20",
              "name": "token",
              "type": "address"
            },
            {
              "internalType": "uint8",
              "name": "tokenDecimals",
              "type": "uint8"
            },
            {
              "internalType": "uint16",
              "name": "apy",
              "type": "uint16"
            },
            {
              "internalType": "address",
              "name": "projectWallet",
              "type": "address"
            },
            {
              "internalType": "string",
              "name": "projectName",
              "type": "string"
            },
            {
              "internalType": "uint256",
              "name": "poolCap",
              "type": "uint256"
            },
            {
              "internalType": "uint256",
              "name": "totalStaked",
              "type": "uint256"
            },
            {
              "internalType": "uint256",
              "name": "multiplier",
              "type": "uint256"
            }
          ],
          "internalType": "struct ISaloon.GeneralInfo",
          "name": "generalInfo",
          "type": "tuple"
        },
        {
          "components": [
            {
              "internalType": "uint256",
              "name": "projectDepositHeld",
              "type": "uint256"
            },
            {
              "internalType": "uint256",
              "name": "projectDepositInStrategy",
              "type": "uint256"
            }
          ],
          "internalType": "struct ISaloon.DepositInfo",
          "name": "depositInfo",
          "type": "tuple"
        },
        {
          "components": [
            {
              "internalType": "uint256",
              "name": "premiumBalance",
              "type": "uint256"
            },
            {
              "internalType": "uint256",
              "name": "premiumAvailable",
              "type": "uint256"
            }
          ],
          "internalType": "struct ISaloon.PremiumInfo",
          "name": "premiumInfo",
          "type": "tuple"
        },
        {
          "components": [
            {
              "internalType": "uint256",
              "name": "timelock",
              "type": "uint256"
            },
            {
              "internalType": "uint256",
              "name": "timeLimit",
              "type": "uint256"
            },
            {
              "internalType": "uint256",
              "name": "withdrawalScheduledAmount",
              "type": "uint256"
            },
            {
              "internalType": "bool",
              "name": "withdrawalExecuted",
              "type": "bool"
            }
          ],
          "internalType": "struct ISaloon.TimelockInfo",
          "name": "poolTimelock",
          "type": "tuple"
        },
        {
          "components": [
            {
              "internalType": "uint256",
              "name": "currentX",
              "type": "uint256"
            },
            {
              "internalType": "uint256",
              "name": "currentY",
              "type": "uint256"
            },
            {
              "internalType": "uint256",
              "name": "totalSupply",
              "type": "uint256"
            },
            {
              "internalType": "bool",
              "name": "needsConsolidation",
              "type": "bool"
            }
          ],
          "internalType": "struct ISaloon.TokenInfo",
          "name": "tokenInfo",
          "type": "tuple"
        },
        {
          "internalType": "uint256",
          "name": "freezeTime",
          "type": "uint256"
        },
        {
          "internalType": "bool",
          "name": "isActive",
          "type": "bool"
        }
      ],
      "stateMutability": "view",
      "type": "function"
    },
    {
      "inputs": [
        {
          "internalType": "address",
          "name": "from",
          "type": "address"
        },
        {
          "internalType": "address",
          "name": "to",
          "type": "address"
        },
        {
          "internalType": "uint256",
          "name": "tokenId",
          "type": "uint256"
        }
      ],
      "name": "safeTransferFrom",
      "outputs": [],
      "stateMutability": "nonpayable",
      "type": "function"
    },
    {
      "inputs": [
        {
          "internalType": "address",
          "name": "from",
          "type": "address"
        },
        {
          "internalType": "address",
          "name": "to",
          "type": "address"
        },
        {
          "internalType": "uint256",
          "name": "tokenId",
          "type": "uint256"
        },
        {
          "internalType": "bytes",
          "name": "data",
          "type": "bytes"
        }
      ],
      "name": "safeTransferFrom",
      "outputs": [],
      "stateMutability": "nonpayable",
      "type": "function"
    },
    {
      "inputs": [
        {
          "internalType": "address",
          "name": "operator",
          "type": "address"
        },
        {
          "internalType": "bool",
          "name": "approved",
          "type": "bool"
        }
      ],
      "name": "setApprovalForAll",
      "outputs": [],
      "stateMutability": "nonpayable",
      "type": "function"
    },
    {
      "inputs": [
        {
          "internalType": "bytes4",
          "name": "interfaceId",
          "type": "bytes4"
        }
      ],
      "name": "supportsInterface",
      "outputs": [
        {
          "internalType": "bool",
          "name": "",
          "type": "bool"
        }
      ],
      "stateMutability": "view",
      "type": "function"
    },
    {
      "inputs": [],
      "name": "symbol",
      "outputs": [
        {
          "internalType": "string",
          "name": "",
          "type": "string"
        }
      ],
      "stateMutability": "view",
      "type": "function"
    },
    {
      "inputs": [
        {
          "internalType": "uint256",
          "name": "tokenId",
          "type": "uint256"
        }
      ],
      "name": "tokenURI",
      "outputs": [
        {
          "internalType": "string",
          "name": "",
          "type": "string"
        }
      ],
      "stateMutability": "view",
      "type": "function"
    },
    {
      "inputs": [
        {
          "internalType": "address",
          "name": "from",
          "type": "address"
        },
        {
          "internalType": "address",
          "name": "to",
          "type": "address"
        },
        {
          "internalType": "uint256",
          "name": "tokenId",
          "type": "uint256"
        }
      ],
      "name": "transferFrom",
      "outputs": [],
      "stateMutability": "nonpayable",
      "type": "function"
    }
  ],
  "bytecode": {
    "object": "0x60806040523480156200001157600080fd5b50600054610100900460ff1615808015620000335750600054600160ff909116105b8062000063575062000050306200018e60201b620013c11760201c565b15801562000063575060005460ff166001145b620000cc5760405162461bcd60e51b815260206004820152602e60248201527f496e697469616c697a61626c653a20636f6e747261637420697320616c72656160448201526d191e481a5b9a5d1a585b1a5e995960921b60648201526084015b60405180910390fd5b6000805460ff191660011790558015620000f0576000805461ff0019166101001790555b620001406040518060400160405280600b81526020016a2137bab73a3caa37b5b2b760a91b8152506040518060400160405280600381526020016210951560ea1b8152506200019d60201b60201c565b801562000187576000805461ff0019169055604051600181527f7f26b83ff96e1f2b6a682f133852f6798a09c465da95921460cefb38474024989060200160405180910390a15b50620003f7565b6001600160a01b03163b151590565b600054610100900460ff16620001f95760405162461bcd60e51b815260206004820152602b6024820152600080516020620028ae83398151915260448201526a6e697469616c697a696e6760a81b6064820152608401620000c3565b62000205828262000209565b5050565b600054610100900460ff16620002655760405162461bcd60e51b815260206004820152602b6024820152600080516020620028ae83398151915260448201526a6e697469616c697a696e6760a81b6064820152608401620000c3565b60656200027383826200032b565b5060666200028282826200032b565b505050565b634e487b7160e01b600052604160045260246000fd5b600181811c90821680620002b257607f821691505b602082108103620002d357634e487b7160e01b600052602260045260246000fd5b50919050565b601f8211156200028257600081815260208120601f850160051c81016020861015620003025750805b601f850160051c820191505b8181101562000323578281556001016200030e565b505050505050565b81516001600160401b0381111562000347576200034762000287565b6200035f816200035884546200029d565b84620002d9565b602080601f8311600181146200039757600084156200037e5750858301515b600019600386901b1c1916600185901b17855562000323565b600085815260208120601f198616915b82811015620003c857888601518255948401946001909101908401620003a7565b5085821015620003e75787850151600019600388901b60f8161c191681555b5050505050600190811b01905550565b6124a780620004076000396000f3fe608060405234801561001057600080fd5b50600436106101585760003560e01c80636352211e116100c357806396ea48e81161007c57806396ea48e81461035c578063a22cb4651461036f578063b88d4fde14610382578063c87b56dd14610395578063e63d6ee4146103a8578063e985e9c5146103c857600080fd5b80636352211e1461030057806370a082311461031357806375bfd63d146103265780637fbf38531461032e578063949a4a4a1461034157806395d89b411461035457600080fd5b80631f8bc790116101155780631f8bc7901461022e57806323b872dd1461029e5780632986c0e5146102b157806342842e0e146102ba5780635c46f7b1146102cd578063612afc0c146102e057600080fd5b806301ffc9a71461015d57806306fdde0314610185578063081812fc1461019a578063095ea7b3146101c55780631526fe27146101da5780631df5662214610200575b600080fd5b61017061016b366004611e3d565b6103db565b60405190151581526020015b60405180910390f35b61018d61042d565b60405161017c9190611eaa565b6101ad6101a8366004611ebd565b6104bf565b6040516001600160a01b03909116815260200161017c565b6101d86101d3366004611ef2565b6104e6565b005b6101ed6101e8366004611ebd565b610600565b60405161017c9796959493929190611f1c565b61022061020e366004611ebd565b609a6020526000908152604090205481565b60405190815260200161017c565b61027161023c366004611ebd565b609c60205260009081526040902080546001820154600283015460038401546004850154600590950154939492939192909186565b604080519687526020870195909552938501929092526060840152608083015260a082015260c00161017c565b6101d86102ac366004612040565b6107de565b610220606b5481565b6101d86102c8366004612040565b61080f565b6102206102db36600461207c565b61082a565b6102206102ee366004611ebd565b609b6020526000908152604090205481565b6101ad61030e366004611ebd565b610ba2565b61022061032136600461209e565b610c02565b6101d8610c88565b61022061033c366004611ebd565b610cb3565b6101d861034f366004611ebd565b610f3a565b61018d61129c565b61022061036a36600461207c565b6112ab565b6101d861037d3660046120b9565b6112dc565b6101d861039036600461210b565b6112e7565b61018d6103a3366004611ebd565b61131f565b6102206103b6366004611ebd565b60996020526000908152604090205481565b6101706103d63660046121e7565b611393565b60006001600160e01b031982166380ac58cd60e01b148061040c57506001600160e01b03198216635b5e139f60e01b145b8061042757506301ffc9a760e01b6001600160e01b03198316145b92915050565b60606065805461043c9061221a565b80601f01602080910402602001604051908101604052809291908181526020018280546104689061221a565b80156104b55780601f1061048a576101008083540402835291602001916104b5565b820191906000526020600020905b81548152906001019060200180831161049857829003601f168201915b5050505050905090565b60006104ca826113d0565b506000908152606960205260409020546001600160a01b031690565b60006104f182610ba2565b9050806001600160a01b0316836001600160a01b0316036105635760405162461bcd60e51b815260206004820152602160248201527f4552433732313a20617070726f76616c20746f2063757272656e74206f776e656044820152603960f91b60648201526084015b60405180910390fd5b336001600160a01b038216148061057f575061057f8133611393565b6105f15760405162461bcd60e51b815260206004820152603d60248201527f4552433732313a20617070726f76652063616c6c6572206973206e6f7420746f60448201527f6b656e206f776e6572206f7220617070726f76656420666f7220616c6c000000606482015260840161055a565b6105fb8383611432565b505050565b6098818154811061061057600080fd5b60009182526020918290206040805161010081018252601590930290910180546001600160a01b03808216855260ff600160a01b8304169585019590955261ffff600160a81b9091041691830191909152600181015490921660608201526002820180549293509091839160808401916106899061221a565b80601f01602080910402602001604051908101604052809291908181526020018280546106b59061221a565b80156107025780601f106106d757610100808354040283529160200191610702565b820191906000526020600020905b8154815290600101906020018083116106e557829003601f168201915b50505091835250506003820154602080830191909152600483015460408084019190915260059093015460609283015282518084018452600686015481526007860154818301528351808501855260088701548152600987015481840152845160808082018752600a8901548252600b89015482860152600c89015482880152600d89015460ff90811615158388015287519182018852600e8a01548252600f8a015495820195909552601089015496810196909652601188015484161515948601949094526013870154601490970154959691959094921687565b6107e833826114a0565b6108045760405162461bcd60e51b815260040161055a90612254565b6105fb8383836114fe565b6105fb838383604051806020016040528060008152506112e7565b60008060988481548110610840576108406122a1565b6000918252602090912060408051610200810190915260159092020180546001600160a01b038082166101008501908152600160a01b830460ff16610120860152600160a81b90920461ffff166101408501526001830154166101608401526002820180548492918491610180850191906108ba9061221a565b80601f01602080910402602001604051908101604052809291908181526020018280546108e69061221a565b80156109335780601f1061090857610100808354040283529160200191610933565b820191906000526020600020905b81548152906001019060200180831161091657829003601f168201915b505050918352505060038201546020808301919091526004830154604080840191909152600590930154606092830152928452815180830183526006860154815260078601548185015284840152815180830183526008860154815260098601548185015284830152815160808082018452600a8701548252600b87015482860152600c87015482850152600d87015460ff9081161515838501528684019290925283518082018552600e8801548152600f8801548187015260108801548186015260118801549092161515928201929092529084015260128401805482518185028101850190935280835260a0909401939192909190830182828015610a6357602002820191906000526020600020905b81546001600160a01b03168152600190910190602001808311610a45575b50505091835250506013820154602082015260149091015460ff1615156040909101526080810151519091506000610a9b8587611662565b5090506000610aaa83836122cd565b90506000610ab98260216122e0565b610acb90674563918244f400006122cd565b90506000610ada8560216122e0565b610aec90674563918244f400006122cd565b90506000610b01610afc846116be565b611707565b90506000610b11610afc846116be565b90506000610b4f610b2260216116be565b610b49610b2f868661173f565b610b436a295be96e640669720000006116be565b9061174e565b9061175d565b90506000610b6088620f42406122e0565b610b6a908361230d565b8a5160e00151909150670de0b6b3a7640000610b8682846122e0565b610b90919061230d565b9e9d5050505050505050505050505050565b6000818152606760205260408120546001600160a01b0316806104275760405162461bcd60e51b8152602060048201526018602482015277115490cdcc8c4e881a5b9d985b1a59081d1bdad95b88125160421b604482015260640161055a565b60006001600160a01b038216610c6c5760405162461bcd60e51b815260206004820152602960248201527f4552433732313a2061646472657373207a65726f206973206e6f7420612076616044820152683634b21037bbb732b960b91b606482015260840161055a565b506001600160a01b031660009081526068602052604090205490565b60985460005b81811015610caf57610c9f81610f3a565b610ca88161232f565b9050610c8e565b5050565b60008060988381548110610cc957610cc96122a1565b6000918252602090912060408051610200810190915260159092020180546001600160a01b038082166101008501908152600160a01b830460ff16610120860152600160a81b90920461ffff16610140850152600183015416610160840152600282018054849291849161018085019190610d439061221a565b80601f0160208091040260200160405190810160405280929190818152602001828054610d6f9061221a565b8015610dbc5780601f10610d9157610100808354040283529160200191610dbc565b820191906000526020600020905b815481529060010190602001808311610d9f57829003601f168201915b505050918352505060038201546020808301919091526004830154604080840191909152600590930154606092830152928452815180830183526006860154815260078601548185015284840152815180830183526008860154815260098601548185015284830152815160808082018452600a8701548252600b87015482860152600c87015482850152600d87015460ff9081161515838501528684019290925283518082018552600e8801548152600f8801548187015260108801548186015260118801549092161515928201929092529084015260128401805482518185028101850190935280835260a0909401939192909190830182828015610eec57602002820191906000526020600020905b81546001600160a01b03168152600190910190602001808311610ece575b50505091835250506013820154602082015260149091015460ff161515604090910152608081015151815160e0015191925090610f2882611775565b610f3291906122e0565b949350505050565b600060988281548110610f4f57610f4f6122a1565b6000918252602090912060408051610200810190915260159092020180546001600160a01b038082166101008501908152600160a01b830460ff16610120860152600160a81b90920461ffff16610140850152600183015416610160840152600282018054849291849161018085019190610fc99061221a565b80601f0160208091040260200160405190810160405280929190818152602001828054610ff59061221a565b80156110425780601f1061101757610100808354040283529160200191611042565b820191906000526020600020905b81548152906001019060200180831161102557829003601f168201915b505050918352505060038201546020808301919091526004830154604080840191909152600590930154606092830152928452815180830183526006860154815260078601548185015284840152815180830183526008860154815260098601548185015284830152815160808082018452600a8701548252600b87015482860152600c87015482850152600d87015460ff9081161515838501528684019290925283518082018552600e8801548152600f8801548187015260108801548186015260118801549092161515928201929092529084015260128401805482518185028101850190935280835260a090940193919290919083018282801561117257602002820191906000526020600020905b81546001600160a01b03168152600190910190602001808311611154575b50505091835250506013820154602082015260149091015460ff16151560409091015260808101516060015190915015806111af57508060e00151155b156111b8575050565b6000828152609d602090815260408083208054825181850281018501909352808352919290919083018282801561120e57602002820191906000526020600020905b8154815260200190600101908083116111fa575b505050505090506000815190506112268460006117ca565b5060005b81811015611295576000838281518110611246576112466122a1565b6020908102919091018101516000818152609c9092526040909120805491925090611271888261082a565b600183015561128088826117ca565b505050508061128e9061232f565b905061122a565b5050505050565b60606066805461043c9061221a565b609d60205281600052604060002081815481106112c757600080fd5b90600052602060002001600091509150505481565b610caf3383836117fd565b6112f133836114a0565b61130d5760405162461bcd60e51b815260040161055a90612254565b611319848484846118cb565b50505050565b606061132a826113d0565b600061134160408051602081019091526000815290565b90506000815111611361576040518060200160405280600081525061138c565b8061136b846118fe565b60405160200161137c929190612348565b6040516020818303038152906040525b9392505050565b6001600160a01b039182166000908152606a6020908152604080832093909416825291909152205460ff1690565b6001600160a01b03163b151590565b6000818152606760205260409020546001600160a01b031661142f5760405162461bcd60e51b8152602060048201526018602482015277115490cdcc8c4e881a5b9d985b1a59081d1bdad95b88125160421b604482015260640161055a565b50565b600081815260696020526040902080546001600160a01b0319166001600160a01b038416908117909155819061146782610ba2565b6001600160a01b03167f8c5be1e5ebec7d5bd14f71427d1e84f3dd0314c0f7b2291e5b200ac8c7c3b92560405160405180910390a45050565b6000806114ac83610ba2565b9050806001600160a01b0316846001600160a01b031614806114d357506114d38185611393565b80610f325750836001600160a01b03166114ec846104bf565b6001600160a01b031614949350505050565b826001600160a01b031661151182610ba2565b6001600160a01b0316146115375760405162461bcd60e51b815260040161055a90612377565b6001600160a01b0382166115995760405162461bcd60e51b8152602060048201526024808201527f4552433732313a207472616e7366657220746f20746865207a65726f206164646044820152637265737360e01b606482015260840161055a565b826001600160a01b03166115ac82610ba2565b6001600160a01b0316146115d25760405162461bcd60e51b815260040161055a90612377565b600081815260696020908152604080832080546001600160a01b03199081169091556001600160a01b0387811680865260688552838620805460001901905590871680865283862080546001019055868652606790945282852080549092168417909155905184937fddf252ad1be2c89b69c2b068fc378daa952ba7f163c4a11628f55a4df523b3ef91a4505050565b60008060988381548110611678576116786122a1565b600091825260209091206003601590920201015461169e670de0b6b3a7640000866122e0565b6116a8919061230d565b90506116b58160056122e0565b91509250929050565b60006116d4670de0b6b3a764000060001961230d565b8211156116f7576040516322630c4560e01b81526004810183905260240161055a565b670de0b6b3a76400008202610427565b60006104276714057b7ef767814f670de0b6b3a764000061172d61172a86611991565b90565b028161173b5761173b6122f7565b0490565b600061138c61172a83856123bc565b600061138c61172a8484611ac7565b600061138c61172a84670de0b6b3a764000085611b7b565b600080670de0b6b3a764000061179384670928ca80cfc200006122e0565b61179d919061230d565b6117af9067016345785d8a00006122cd565b905061138c816ec097ce7bc90715b34b9f100000000061230d565b600081609884815481106117e0576117e06122a1565b60009182526020909120600e601590920201015550600192915050565b816001600160a01b0316836001600160a01b03160361185e5760405162461bcd60e51b815260206004820152601960248201527f4552433732313a20617070726f766520746f2063616c6c657200000000000000604482015260640161055a565b6001600160a01b038381166000818152606a6020908152604080832094871680845294825291829020805460ff191686151590811790915591519182527f17307eab39ab6107e8899845ad3d59bd9653f200f220920489ca2b5937696c31910160405180910390a3505050565b6118d68484846114fe565b6118e284848484611c4e565b6113195760405162461bcd60e51b815260040161055a906123cf565b6060600061190b83611d4f565b600101905060008167ffffffffffffffff81111561192b5761192b6120f5565b6040519080825280601f01601f191660200182016040528015611955576020820181803683370190505b5090508181016020015b600019016f181899199a1a9b1b9c1cb0b131b232b360811b600a86061a8153600a850494508461195f57509392505050565b600081670de0b6b3a76400008110156119c057604051633621413760e21b81526004810184905260240161055a565b6000611a4c670de0b6b3a7640000830460016fffffffffffffffffffffffffffffffff821160071b91821c67ffffffffffffffff811160061b90811c63ffffffff811160051b90811c61ffff811160041b90811c60ff8111600390811b91821c600f811160021b90811c918211871b91821c969096119490961792909217171791909117919091171790565b9050670de0b6b3a7640000810282821c670de0b6b3a763ffff198101611a7857815b9695505050505050565b671bc16d674ec800006706f05b59d3b200005b8015611abb57670de0b6b3a7640000838002049250818310611ab3579283019260019290921c915b60011c611a8b565b50919695505050505050565b60008080600019848609848602925082811083820303915050670de0b6b3a76400008110611b125760405163090638d560e41b8152600481018690526024810185905260440161055a565b6000670de0b6b3a7640000858709905081600003611b3e575050670de0b6b3a764000090049050610427565b620400008184030492109003600160ee1b02177faccb18165bd6fe31ae1cf318dc5b51eee0e1ba569b88cd74c1773b91fac1066902905092915050565b6000808060001985870985870292508281108382030391505080600003611bb557838281611bab57611bab6122f7565b049250505061138c565b838110611be6576040516307639aaf60e41b815260048101879052602481018690526044810185905260640161055a565b600084868809600260036001881981018916988990049182028318808302840302808302840302808302840302808302840302808302840302918202909203026000889003889004909101858311909403939093029303949094049190911702949350505050565b60006001600160a01b0384163b15611d4457604051630a85bd0160e11b81526001600160a01b0385169063150b7a0290611c92903390899088908890600401612421565b6020604051808303816000875af1925050508015611ccd575060408051601f3d908101601f19168201909252611cca91810190612454565b60015b611d2a573d808015611cfb576040519150601f19603f3d011682016040523d82523d6000602084013e611d00565b606091505b508051600003611d225760405162461bcd60e51b815260040161055a906123cf565b805181602001fd5b6001600160e01b031916630a85bd0160e11b149050610f32565b506001949350505050565b60008072184f03e93ff9f4daa797ed6e38ed64bf6a1f0160401b8310611d8e5772184f03e93ff9f4daa797ed6e38ed64bf6a1f0160401b830492506040015b6d04ee2d6d415b85acef81000000008310611dba576d04ee2d6d415b85acef8100000000830492506020015b662386f26fc100008310611dd857662386f26fc10000830492506010015b6305f5e1008310611df0576305f5e100830492506008015b6127108310611e0457612710830492506004015b60648310611e16576064830492506002015b600a83106104275760010192915050565b6001600160e01b03198116811461142f57600080fd5b600060208284031215611e4f57600080fd5b813561138c81611e27565b60005b83811015611e75578181015183820152602001611e5d565b50506000910152565b60008151808452611e96816020860160208601611e5a565b601f01601f19169290920160200192915050565b60208152600061138c6020830184611e7e565b600060208284031215611ecf57600080fd5b5035919050565b80356001600160a01b0381168114611eed57600080fd5b919050565b60008060408385031215611f0557600080fd5b611f0e83611ed6565b946020939093013593505050565b6101e080825288516001600160a01b0390811691830191909152602089015160ff16610200830152604089015161ffff166102208301526060890151166102408201526080880151610100610260830152600090611f7e6102e0840182611e7e565b60a08b015161028085015260c08b01516102a085015260e08b01516102c08501529150611fba9050602083018980518252602090810151910152565b8651606083015260208701516080830152855160a0830152602086015160c0830152604086015160e08301526060860151151561010083015284516101208301526020850151610140830152604085015161016083015260608501511515610180830152836101a08301526120346101c083018415159052565b98975050505050505050565b60008060006060848603121561205557600080fd5b61205e84611ed6565b925061206c60208501611ed6565b9150604084013590509250925092565b6000806040838503121561208f57600080fd5b50508035926020909101359150565b6000602082840312156120b057600080fd5b61138c82611ed6565b600080604083850312156120cc57600080fd5b6120d583611ed6565b9150602083013580151581146120ea57600080fd5b809150509250929050565b634e487b7160e01b600052604160045260246000fd5b6000806000806080858703121561212157600080fd5b61212a85611ed6565b935061213860208601611ed6565b925060408501359150606085013567ffffffffffffffff8082111561215c57600080fd5b818701915087601f83011261217057600080fd5b813581811115612182576121826120f5565b604051601f8201601f19908116603f011681019083821181831017156121aa576121aa6120f5565b816040528281528a60208487010111156121c357600080fd5b82602086016020830137600060208483010152809550505050505092959194509250565b600080604083850312156121fa57600080fd5b61220383611ed6565b915061221160208401611ed6565b90509250929050565b600181811c9082168061222e57607f821691505b60208210810361224e57634e487b7160e01b600052602260045260246000fd5b50919050565b6020808252602d908201527f4552433732313a2063616c6c6572206973206e6f7420746f6b656e206f776e6560408201526c1c881bdc88185c1c1c9bdd9959609a1b606082015260800190565b634e487b7160e01b600052603260045260246000fd5b634e487b7160e01b600052601160045260246000fd5b80820180821115610427576104276122b7565b8082028115828204841417610427576104276122b7565b634e487b7160e01b600052601260045260246000fd5b60008261232a57634e487b7160e01b600052601260045260246000fd5b500490565b600060018201612341576123416122b7565b5060010190565b6000835161235a818460208801611e5a565b83519083019061236e818360208801611e5a565b01949350505050565b60208082526025908201527f4552433732313a207472616e736665722066726f6d20696e636f72726563742060408201526437bbb732b960d91b606082015260800190565b81810381811115610427576104276122b7565b60208082526032908201527f4552433732313a207472616e7366657220746f206e6f6e20455243373231526560408201527131b2b4bb32b91034b6b83632b6b2b73a32b960711b606082015260800190565b6001600160a01b0385811682528416602082015260408101839052608060608201819052600090611a6e90830184611e7e565b60006020828403121561246657600080fd5b815161138c81611e2756fea26469706673582212204714d1f8023b918a22f819901dcf80cb8c5bf1e41463551d01f647d7c0f68bd964736f6c63430008110033496e697469616c697a61626c653a20636f6e7472616374206973206e6f742069",
    "linkReferences": {}
  },
  "methodIdentifiers": {
    "approve(address,uint256)": "095ea7b3",
    "balanceOf(address)": "70a08231",
    "calculateEffectiveAPY(uint256,uint256)": "5c46f7b1",
    "consolidate(uint256)": "949a4a4a",
    "consolidateAll()": "75bfd63d",
    "getApproved(uint256)": "081812fc",
    "getCurrentAPY(uint256)": "7fbf3853",
    "index()": "2986c0e5",
    "isApprovedForAll(address,address)": "e985e9c5",
    "name()": "06fdde03",
    "nftAPY(uint256)": "1df56622",
    "nftBalance(uint256)": "e63d6ee4",
    "nftInfo(uint256)": "1f8bc790",
    "nftToPid(uint256)": "612afc0c",
    "ownerOf(uint256)": "6352211e",
    "pidNFTList(uint256,uint256)": "96ea48e8",
    "poolInfo(uint256)": "1526fe27",
    "safeTransferFrom(address,address,uint256)": "42842e0e",
    "safeTransferFrom(address,address,uint256,bytes)": "b88d4fde",
    "setApprovalForAll(address,bool)": "a22cb465",
    "supportsInterface(bytes4)": "01ffc9a7",
    "symbol()": "95d89b41",
    "tokenURI(uint256)": "c87b56dd",
    "transferFrom(address,address,uint256)": "23b872dd"
  },
  "id": 45
}