{
  "abi": [
    {
      "inputs": [],
      "stateMutability": "nonpayable",
      "type": "constructor"
    },
    {
      "inputs": [
        {
          "internalType": "UD60x18",
          "name": "x",
          "type": "uint256"
        }
      ],
      "name": "PRBMathUD60x18__LogInputTooSmall",
      "type": "error"
    },
    {
      "inputs": [
        {
          "internalType": "uint256",
          "name": "x",
          "type": "uint256"
        }
      ],
      "name": "PRBMathUD60x18__ToUD60x18Overflow",
      "type": "error"
    },
    {
      "inputs": [
        {
          "internalType": "uint256",
          "name": "x",
          "type": "uint256"
        },
        {
          "internalType": "uint256",
          "name": "y",
          "type": "uint256"
        }
      ],
      "name": "PRBMath__MulDiv18Overflow",
      "type": "error"
    },
    {
      "inputs": [
        {
          "internalType": "uint256",
          "name": "x",
          "type": "uint256"
        },
        {
          "internalType": "uint256",
          "name": "y",
          "type": "uint256"
        },
        {
          "internalType": "uint256",
          "name": "denominator",
          "type": "uint256"
        }
      ],
      "name": "PRBMath__MulDivOverflow",
      "type": "error"
    },
    {
      "anonymous": false,
      "inputs": [
        {
          "indexed": true,
          "internalType": "address",
          "name": "owner",
          "type": "address"
        },
        {
          "indexed": true,
          "internalType": "address",
          "name": "approved",
          "type": "address"
        },
        {
          "indexed": true,
          "internalType": "uint256",
          "name": "tokenId",
          "type": "uint256"
        }
      ],
      "name": "Approval",
      "type": "event"
    },
    {
      "anonymous": false,
      "inputs": [
        {
          "indexed": true,
          "internalType": "address",
          "name": "owner",
          "type": "address"
        },
        {
          "indexed": true,
          "internalType": "address",
          "name": "operator",
          "type": "address"
        },
        {
          "indexed": false,
          "internalType": "bool",
          "name": "approved",
          "type": "bool"
        }
      ],
      "name": "ApprovalForAll",
      "type": "event"
    },
    {
      "anonymous": false,
      "inputs": [
        {
          "indexed": false,
          "internalType": "uint8",
          "name": "version",
          "type": "uint8"
        }
      ],
      "name": "Initialized",
      "type": "event"
    },
    {
      "anonymous": false,
      "inputs": [
        {
          "indexed": true,
          "internalType": "address",
          "name": "from",
          "type": "address"
        },
        {
          "indexed": true,
          "internalType": "address",
          "name": "to",
          "type": "address"
        },
        {
          "indexed": true,
          "internalType": "uint256",
          "name": "tokenId",
          "type": "uint256"
        }
      ],
      "name": "Transfer",
      "type": "event"
    },
    {
      "inputs": [
        {
          "internalType": "address",
          "name": "to",
          "type": "address"
        },
        {
          "internalType": "uint256",
          "name": "tokenId",
          "type": "uint256"
        }
      ],
      "name": "approve",
      "outputs": [],
      "stateMutability": "nonpayable",
      "type": "function"
    },
    {
      "inputs": [
        {
          "internalType": "address",
          "name": "owner",
          "type": "address"
        }
      ],
      "name": "balanceOf",
      "outputs": [
        {
          "internalType": "uint256",
          "name": "",
          "type": "uint256"
        }
      ],
      "stateMutability": "view",
      "type": "function"
    },
    {
      "inputs": [
        {
          "internalType": "uint256",
          "name": "_pid",
          "type": "uint256"
        },
        {
          "internalType": "uint256",
          "name": "_stake",
          "type": "uint256"
        }
      ],
      "name": "calculateEffectiveAPY",
      "outputs": [
        {
          "internalType": "uint256",
          "name": "scaledAPY",
          "type": "uint256"
        }
      ],
      "stateMutability": "view",
      "type": "function"
    },
    {
      "inputs": [
        {
          "internalType": "uint256",
          "name": "_pid",
          "type": "uint256"
        },
        {
          "internalType": "uint256",
          "name": "_stake",
          "type": "uint256"
        },
        {
          "internalType": "uint256",
          "name": "_memX",
          "type": "uint256"
        }
      ],
      "name": "calculateEffectiveAPYConsolidate",
      "outputs": [
        {
          "internalType": "uint256",
          "name": "scaledAPY",
          "type": "uint256"
        }
      ],
      "stateMutability": "view",
      "type": "function"
    },
    {
      "inputs": [
        {
          "internalType": "uint256",
          "name": "_pid",
          "type": "uint256"
        }
      ],
      "name": "consolidate",
      "outputs": [],
      "stateMutability": "nonpayable",
      "type": "function"
    },
    {
      "inputs": [],
      "name": "consolidateAll",
      "outputs": [],
      "stateMutability": "nonpayable",
      "type": "function"
    },
    {
      "inputs": [
        {
          "internalType": "uint256",
          "name": "tokenId",
          "type": "uint256"
        }
      ],
      "name": "getApproved",
      "outputs": [
        {
          "internalType": "address",
          "name": "",
          "type": "address"
        }
      ],
      "stateMutability": "view",
      "type": "function"
    },
    {
      "inputs": [
        {
          "internalType": "uint256",
          "name": "_pid",
          "type": "uint256"
        }
      ],
      "name": "getCurrentAPY",
      "outputs": [
        {
          "internalType": "uint256",
          "name": "currentAPY",
          "type": "uint256"
        }
      ],
      "stateMutability": "view",
      "type": "function"
    },
    {
      "inputs": [],
      "name": "index",
      "outputs": [
        {
          "internalType": "uint256",
          "name": "",
          "type": "uint256"
        }
      ],
      "stateMutability": "view",
      "type": "function"
    },
    {
      "inputs": [
        {
          "internalType": "address",
          "name": "owner",
          "type": "address"
        },
        {
          "internalType": "address",
          "name": "operator",
          "type": "address"
        }
      ],
      "name": "isApprovedForAll",
      "outputs": [
        {
          "internalType": "bool",
          "name": "",
          "type": "bool"
        }
      ],
      "stateMutability": "view",
      "type": "function"
    },
    {
      "inputs": [],
      "name": "name",
      "outputs": [
        {
          "internalType": "string",
          "name": "",
          "type": "string"
        }
      ],
      "stateMutability": "view",
      "type": "function"
    },
    {
      "inputs": [
        {
          "internalType": "uint256",
          "name": "",
          "type": "uint256"
        }
      ],
      "name": "nftAPY",
      "outputs": [
        {
          "internalType": "uint256",
          "name": "",
          "type": "uint256"
        }
      ],
      "stateMutability": "view",
      "type": "function"
    },
    {
      "inputs": [
        {
          "internalType": "uint256",
          "name": "",
          "type": "uint256"
        }
      ],
      "name": "nftBalance",
      "outputs": [
        {
          "internalType": "uint256",
          "name": "",
          "type": "uint256"
        }
      ],
      "stateMutability": "view",
      "type": "function"
    },
    {
      "inputs": [
        {
          "internalType": "uint256",
          "name": "",
          "type": "uint256"
        }
      ],
      "name": "nftInfo",
      "outputs": [
        {
          "internalType": "uint256",
          "name": "amount",
          "type": "uint256"
        },
        {
          "internalType": "uint256",
          "name": "xDelta",
          "type": "uint256"
        },
        {
          "internalType": "uint256",
          "name": "apy",
          "type": "uint256"
        },
        {
          "internalType": "uint256",
          "name": "unclaimed",
          "type": "uint256"
        },
        {
          "internalType": "uint256",
          "name": "lastClaimedTime",
          "type": "uint256"
        },
        {
          "internalType": "uint256",
          "name": "timelock",
          "type": "uint256"
        },
        {
          "internalType": "uint256",
          "name": "timelimit",
          "type": "uint256"
        }
      ],
      "stateMutability": "view",
      "type": "function"
    },
    {
      "inputs": [
        {
          "internalType": "uint256",
          "name": "",
          "type": "uint256"
        }
      ],
      "name": "nftToPid",
      "outputs": [
        {
          "internalType": "uint256",
          "name": "",
          "type": "uint256"
        }
      ],
      "stateMutability": "view",
      "type": "function"
    },
    {
      "inputs": [
        {
          "internalType": "uint256",
          "name": "tokenId",
          "type": "uint256"
        }
      ],
      "name": "ownerOf",
      "outputs": [
        {
          "internalType": "address",
          "name": "",
          "type": "address"
        }
      ],
      "stateMutability": "view",
      "type": "function"
    },
    {
      "inputs": [
        {
          "internalType": "uint256",
          "name": "",
          "type": "uint256"
        },
        {
          "internalType": "uint256",
          "name": "",
          "type": "uint256"
        }
      ],
      "name": "pidNFTList",
      "outputs": [
        {
          "internalType": "uint256",
          "name": "",
          "type": "uint256"
        }
      ],
      "stateMutability": "view",
      "type": "function"
    },
    {
      "inputs": [
        {
          "internalType": "uint256",
          "name": "",
          "type": "uint256"
        }
      ],
      "name": "poolInfo",
      "outputs": [
        {
          "components": [
            {
              "internalType": "contract IERC20",
              "name": "token",
              "type": "address"
            },
            {
              "internalType": "uint8",
              "name": "tokenDecimals",
              "type": "uint8"
            },
            {
              "internalType": "uint16",
              "name": "apy",
              "type": "uint16"
            },
            {
              "internalType": "address",
              "name": "projectWallet",
              "type": "address"
            },
            {
              "internalType": "string",
              "name": "projectName",
              "type": "string"
            },
            {
              "internalType": "uint256",
              "name": "poolCap",
              "type": "uint256"
            },
            {
              "internalType": "uint256",
              "name": "totalStaked",
              "type": "uint256"
            },
            {
              "internalType": "uint256",
              "name": "multiplier",
              "type": "uint256"
            }
          ],
          "internalType": "struct ISaloon.GeneralInfo",
          "name": "generalInfo",
          "type": "tuple"
        },
        {
          "components": [
            {
              "internalType": "uint256",
              "name": "projectDepositHeld",
              "type": "uint256"
            },
            {
              "internalType": "uint256",
              "name": "projectDepositInStrategy",
              "type": "uint256"
            }
          ],
          "internalType": "struct ISaloon.DepositInfo",
          "name": "depositInfo",
          "type": "tuple"
        },
        {
          "components": [
            {
              "internalType": "uint256",
              "name": "premiumBalance",
              "type": "uint256"
            },
            {
              "internalType": "uint256",
              "name": "premiumAvailable",
              "type": "uint256"
            }
          ],
          "internalType": "struct ISaloon.PremiumInfo",
          "name": "premiumInfo",
          "type": "tuple"
        },
        {
          "components": [
            {
              "internalType": "uint256",
              "name": "timelock",
              "type": "uint256"
            },
            {
              "internalType": "uint256",
              "name": "timeLimit",
              "type": "uint256"
            },
            {
              "internalType": "uint256",
              "name": "withdrawalScheduledAmount",
              "type": "uint256"
            },
            {
              "internalType": "bool",
              "name": "withdrawalExecuted",
              "type": "bool"
            }
          ],
          "internalType": "struct ISaloon.TimelockInfo",
          "name": "poolTimelock",
          "type": "tuple"
        },
        {
          "components": [
            {
              "internalType": "uint256",
              "name": "currentX",
              "type": "uint256"
            },
            {
              "internalType": "uint256",
              "name": "currentY",
              "type": "uint256"
            },
            {
              "internalType": "uint256",
              "name": "totalSupply",
              "type": "uint256"
            },
            {
              "internalType": "uint256[]",
              "name": "unstakedTokens",
              "type": "uint256[]"
            }
          ],
          "internalType": "struct ISaloon.TokenInfo",
          "name": "tokenInfo",
          "type": "tuple"
        },
        {
          "internalType": "uint256",
          "name": "freezeTime",
          "type": "uint256"
        },
        {
          "internalType": "bool",
          "name": "isActive",
          "type": "bool"
        }
      ],
      "stateMutability": "view",
      "type": "function"
    },
    {
      "inputs": [
        {
          "internalType": "address",
          "name": "from",
          "type": "address"
        },
        {
          "internalType": "address",
          "name": "to",
          "type": "address"
        },
        {
          "internalType": "uint256",
          "name": "tokenId",
          "type": "uint256"
        }
      ],
      "name": "safeTransferFrom",
      "outputs": [],
      "stateMutability": "nonpayable",
      "type": "function"
    },
    {
      "inputs": [
        {
          "internalType": "address",
          "name": "from",
          "type": "address"
        },
        {
          "internalType": "address",
          "name": "to",
          "type": "address"
        },
        {
          "internalType": "uint256",
          "name": "tokenId",
          "type": "uint256"
        },
        {
          "internalType": "bytes",
          "name": "data",
          "type": "bytes"
        }
      ],
      "name": "safeTransferFrom",
      "outputs": [],
      "stateMutability": "nonpayable",
      "type": "function"
    },
    {
      "inputs": [
        {
          "internalType": "address",
          "name": "operator",
          "type": "address"
        },
        {
          "internalType": "bool",
          "name": "approved",
          "type": "bool"
        }
      ],
      "name": "setApprovalForAll",
      "outputs": [],
      "stateMutability": "nonpayable",
      "type": "function"
    },
    {
      "inputs": [
        {
          "internalType": "bytes4",
          "name": "interfaceId",
          "type": "bytes4"
        }
      ],
      "name": "supportsInterface",
      "outputs": [
        {
          "internalType": "bool",
          "name": "",
          "type": "bool"
        }
      ],
      "stateMutability": "view",
      "type": "function"
    },
    {
      "inputs": [],
      "name": "symbol",
      "outputs": [
        {
          "internalType": "string",
          "name": "",
          "type": "string"
        }
      ],
      "stateMutability": "view",
      "type": "function"
    },
    {
      "inputs": [
        {
          "internalType": "uint256",
          "name": "tokenId",
          "type": "uint256"
        }
      ],
      "name": "tokenURI",
      "outputs": [
        {
          "internalType": "string",
          "name": "",
          "type": "string"
        }
      ],
      "stateMutability": "view",
      "type": "function"
    },
    {
      "inputs": [
        {
          "internalType": "address",
          "name": "from",
          "type": "address"
        },
        {
          "internalType": "address",
          "name": "to",
          "type": "address"
        },
        {
          "internalType": "uint256",
          "name": "tokenId",
          "type": "uint256"
        }
      ],
      "name": "transferFrom",
      "outputs": [],
      "stateMutability": "nonpayable",
      "type": "function"
    }
  ],
  "bytecode": {
    "object": "0x60806040523480156200001157600080fd5b50600054610100900460ff1615808015620000335750600054600160ff909116105b8062000063575062000050306200018e60201b6200191d1760201c565b15801562000063575060005460ff166001145b620000cc5760405162461bcd60e51b815260206004820152602e60248201527f496e697469616c697a61626c653a20636f6e747261637420697320616c72656160448201526d191e481a5b9a5d1a585b1a5e995960921b60648201526084015b60405180910390fd5b6000805460ff191660011790558015620000f0576000805461ff0019166101001790555b620001406040518060400160405280600b81526020016a2137bab73a3caa37b5b2b760a91b8152506040518060400160405280600381526020016210951560ea1b8152506200019d60201b60201c565b801562000187576000805461ff0019169055604051600181527f7f26b83ff96e1f2b6a682f133852f6798a09c465da95921460cefb38474024989060200160405180910390a15b50620003f7565b6001600160a01b03163b151590565b600054610100900460ff16620001f95760405162461bcd60e51b815260206004820152602b60248201526000805160206200308f83398151915260448201526a6e697469616c697a696e6760a81b6064820152608401620000c3565b62000205828262000209565b5050565b600054610100900460ff16620002655760405162461bcd60e51b815260206004820152602b60248201526000805160206200308f83398151915260448201526a6e697469616c697a696e6760a81b6064820152608401620000c3565b60656200027383826200032b565b5060666200028282826200032b565b505050565b634e487b7160e01b600052604160045260246000fd5b600181811c90821680620002b257607f821691505b602082108103620002d357634e487b7160e01b600052602260045260246000fd5b50919050565b601f8211156200028257600081815260208120601f850160051c81016020861015620003025750805b601f850160051c820191505b8181101562000323578281556001016200030e565b505050505050565b81516001600160401b0381111562000347576200034762000287565b6200035f816200035884546200029d565b84620002d9565b602080601f8311600181146200039757600084156200037e5750858301515b600019600386901b1c1916600185901b17855562000323565b600085815260208120601f198616915b82811015620003c857888601518255948401946001909101908401620003a7565b5085821015620003e75787850151600019600388901b60f8161c191681555b5050505050600190811b01905550565b612c8880620004076000396000f3fe608060405234801561001057600080fd5b50600436106101735760003560e01c80636352211e116100de57806396ea48e811610097578063c87b56dd11610071578063c87b56dd146103c0578063e63d6ee4146103d3578063e985e9c5146103f3578063ff5e5b5f1461040657600080fd5b806396ea48e814610387578063a22cb4651461039a578063b88d4fde146103ad57600080fd5b80636352211e1461032b57806370a082311461033e57806375bfd63d146103515780637fbf385314610359578063949a4a4a1461036c57806395d89b411461037f57600080fd5b80631f8bc790116101305780631f8bc7901461024957806323b872dd146102c95780632986c0e5146102dc57806342842e0e146102e55780635c46f7b1146102f8578063612afc0c1461030b57600080fd5b806301ffc9a71461017857806306fdde03146101a0578063081812fc146101b5578063095ea7b3146101e05780631526fe27146101f55780631df566221461021b575b600080fd5b61018b610186366004612588565b610419565b60405190151581526020015b60405180910390f35b6101a861046b565b60405161019791906125f5565b6101c86101c3366004612608565b6104fd565b6040516001600160a01b039091168152602001610197565b6101f36101ee36600461263d565b610524565b005b610208610203366004612608565b61063e565b60405161019797969594939291906126d2565b61023b610229366004612608565b609a6020526000908152604090205481565b604051908152602001610197565b610294610257366004612608565b609c602052600090815260409020805460018201546002830154600384015460048501546005860154600690960154949593949293919290919087565b604080519788526020880196909652948601939093526060850191909152608084015260a083015260c082015260e001610197565b6101f36102d73660046127df565b610867565b61023b606b5481565b6101f36102f33660046127df565b610898565b61023b61030636600461281b565b6108b3565b61023b610319366004612608565b609b6020526000908152604090205481565b6101c8610339366004612608565b610c75565b61023b61034c36600461283d565b610cd5565b6101f3610d5b565b61023b610367366004612608565b610d86565b6101f361037a366004612608565b611057565b6101a861146d565b61023b61039536600461281b565b61147c565b6101f36103a8366004612858565b6114ad565b6101f36103bb3660046128aa565b6114b8565b6101a86103ce366004612608565b6114f0565b61023b6103e1366004612608565b60996020526000908152604090205481565b61018b610401366004612986565b611564565b61023b6104143660046129b9565b611592565b60006001600160e01b031982166380ac58cd60e01b148061044a57506001600160e01b03198216635b5e139f60e01b145b8061046557506301ffc9a760e01b6001600160e01b03198316145b92915050565b60606065805461047a906129e5565b80601f01602080910402602001604051908101604052809291908181526020018280546104a6906129e5565b80156104f35780601f106104c8576101008083540402835291602001916104f3565b820191906000526020600020905b8154815290600101906020018083116104d657829003601f168201915b5050505050905090565b60006105088261192c565b506000908152606960205260409020546001600160a01b031690565b600061052f82610c75565b9050806001600160a01b0316836001600160a01b0316036105a15760405162461bcd60e51b815260206004820152602160248201527f4552433732313a20617070726f76616c20746f2063757272656e74206f776e656044820152603960f91b60648201526084015b60405180910390fd5b336001600160a01b03821614806105bd57506105bd8133611564565b61062f5760405162461bcd60e51b815260206004820152603d60248201527f4552433732313a20617070726f76652063616c6c6572206973206e6f7420746f60448201527f6b656e206f776e6572206f7220617070726f76656420666f7220616c6c0000006064820152608401610598565b610639838361198e565b505050565b6098818154811061064e57600080fd5b60009182526020918290206040805161010081018252601590930290910180546001600160a01b03808216855260ff600160a01b8304169585019590955261ffff600160a81b9091041691830191909152600181015490921660608201526002820180549293509091839160808401916106c7906129e5565b80601f01602080910402602001604051908101604052809291908181526020018280546106f3906129e5565b80156107405780601f1061071557610100808354040283529160200191610740565b820191906000526020600020905b81548152906001019060200180831161072357829003601f168201915b50505091835250506003820154602080830191909152600483015460408084019190915260059093015460609283015282518084018452600686015481526007860154818301528351808501855260088701548152600987015481840152845160808082018752600a8901548252600b89015482860152600c89015482880152600d89015460ff1615158287015286519081018752600e890180548252600f8a01548287015260108a01548289015260118a018054895181890281018901909a52808a52999a959994989397959692959194918601939290919083018282801561084957602002820191906000526020600020905b815481526020019060010190808311610835575b50505091909252505050601382015460149092015490919060ff1687565b61087133826119fc565b61088d5760405162461bcd60e51b815260040161059890612a1f565b610639838383611a5a565b610639838383604051806020016040528060008152506114b8565b600080609884815481106108c9576108c9612a6c565b6000918252602090912060408051610200810190915260159092020180546001600160a01b038082166101008501908152600160a01b830460ff16610120860152600160a81b90920461ffff16610140850152600183015416610160840152600282018054849291849161018085019190610943906129e5565b80601f016020809104026020016040519081016040528092919081815260200182805461096f906129e5565b80156109bc5780601f10610991576101008083540402835291602001916109bc565b820191906000526020600020905b81548152906001019060200180831161099f57829003601f168201915b505050918352505060038201546020808301919091526004830154604080840191909152600590930154606092830152928452815180830183526006860154815260078601548185015284840152815180830183526008860154815260098601548185015284830152815160808082018452600a8701548252600b87015482860152600c87015482850152600d87015460ff161515828401528583019190915282518082018452600e870180548252600f88015482870152601088015482860152601188018054865181890281018901909752808752939097019691959094938601939290830182828015610ad057602002820191906000526020600020905b815481526020019060010190808311610abc575b505050505081525050815260200160128201805480602002602001604051908101604052809291908181526020018280548015610b3657602002820191906000526020600020905b81546001600160a01b03168152600190910190602001808311610b18575b50505091835250506013820154602082015260149091015460ff1615156040909101526080810151519091506000610b6e8686611bbe565b5090506000610b7d8383612a98565b90506000610b8c826021612aab565b610b9e90674563918244f40000612a98565b90506000610bad856021612aab565b610bbf90674563918244f40000612a98565b90506000610bd4610bcf84611c1a565b611c63565b90506000610be4610bcf84611c1a565b90506000610c22610bf56021611c1a565b610c1c610c028686611c9b565b610c166a295be96e64066972000000611c1a565b90611caa565b90611cb9565b90506000610c3388620f4240612aab565b610c3d9083612ad8565b8a5160e00151909150670de0b6b3a7640000610c598284612aab565b610c639190612ad8565b9e9d5050505050505050505050505050565b6000818152606760205260408120546001600160a01b0316806104655760405162461bcd60e51b8152602060048201526018602482015277115490cdcc8c4e881a5b9d985b1a59081d1bdad95b88125160421b6044820152606401610598565b60006001600160a01b038216610d3f5760405162461bcd60e51b815260206004820152602960248201527f4552433732313a2061646472657373207a65726f206973206e6f7420612076616044820152683634b21037bbb732b960b91b6064820152608401610598565b506001600160a01b031660009081526068602052604090205490565b60985460005b81811015610d8257610d7281611057565b610d7b81612afa565b9050610d61565b5050565b60008060988381548110610d9c57610d9c612a6c565b6000918252602090912060408051610200810190915260159092020180546001600160a01b038082166101008501908152600160a01b830460ff16610120860152600160a81b90920461ffff16610140850152600183015416610160840152600282018054849291849161018085019190610e16906129e5565b80601f0160208091040260200160405190810160405280929190818152602001828054610e42906129e5565b8015610e8f5780601f10610e6457610100808354040283529160200191610e8f565b820191906000526020600020905b815481529060010190602001808311610e7257829003601f168201915b505050918352505060038201546020808301919091526004830154604080840191909152600590930154606092830152928452815180830183526006860154815260078601548185015284840152815180830183526008860154815260098601548185015284830152815160808082018452600a8701548252600b87015482860152600c87015482850152600d87015460ff161515828401528583019190915282518082018452600e870180548252600f88015482870152601088015482860152601188018054865181890281018901909752808752939097019691959094938601939290830182828015610fa357602002820191906000526020600020905b815481526020019060010190808311610f8f575b50505050508152505081526020016012820180548060200260200160405190810160405280929190818152602001828054801561100957602002820191906000526020600020905b81546001600160a01b03168152600190910190602001808311610feb575b50505091835250506013820154602082015260149091015460ff161515604090910152608081015151815160e001519192509061104582611cd1565b61104f9190612aab565b949350505050565b60006098828154811061106c5761106c612a6c565b6000918252602090912060408051610200810190915260159092020180546001600160a01b038082166101008501908152600160a01b830460ff16610120860152600160a81b90920461ffff166101408501526001830154166101608401526002820180548492918491610180850191906110e6906129e5565b80601f0160208091040260200160405190810160405280929190818152602001828054611112906129e5565b801561115f5780601f106111345761010080835404028352916020019161115f565b820191906000526020600020905b81548152906001019060200180831161114257829003601f168201915b505050918352505060038201546020808301919091526004830154604080840191909152600590930154606092830152928452815180830183526006860154815260078601548185015284840152815180830183526008860154815260098601548185015284830152815160808082018452600a8701548252600b87015482860152600c87015482850152600d87015460ff161515828401528583019190915282518082018452600e870180548252600f8801548287015260108801548286015260118801805486518189028101890190975280875293909701969195909493860193929083018282801561127357602002820191906000526020600020905b81548152602001906001019080831161125f575b5050505050815250508152602001601282018054806020026020016040519081016040528092919081815260200182805480156112d957602002820191906000526020600020905b81546001600160a01b031681526001909101906020018083116112bb575b50505091835250506013820154602082015260149091015460ff16151560409091015260808101516060015180519192509080158061131a57508260e00151155b156113255750505050565b60005b818110156113625761135283828151811061134557611345612a6c565b6020026020010151611d26565b61135b81612afa565b9050611328565b506000848152609d60209081526040808320805482518185028101850190935280835291929091908301828280156113b957602002820191906000526020600020905b8154815260200190600101908083116113a5575b5050835193945060009250829150505b8281101561143b5760008482815181106113e5576113e5612a6c565b6020908102919091018101516000818152609c90925260409091208054919250906114118b8287611592565b600283015560018201546114259086612a98565b94505050508061143490612afa565b90506113c9565b50806098888154811061145057611450612a6c565b600091825260209091206010601590920201015550505050505050565b60606066805461047a906129e5565b609d602052816000526040600020818154811061149857600080fd5b90600052602060002001600091509150505481565b610d82338383611ee8565b6114c233836119fc565b6114de5760405162461bcd60e51b815260040161059890612a1f565b6114ea84848484611fb6565b50505050565b60606114fb8261192c565b600061151260408051602081019091526000815290565b90506000815111611532576040518060200160405280600081525061155d565b8061153c84611fe9565b60405160200161154d929190612b13565b6040516020818303038152906040525b9392505050565b6001600160a01b039182166000908152606a6020908152604080832093909416825291909152205460ff1690565b600080609885815481106115a8576115a8612a6c565b6000918252602090912060408051610200810190915260159092020180546001600160a01b038082166101008501908152600160a01b830460ff16610120860152600160a81b90920461ffff16610140850152600183015416610160840152600282018054849291849161018085019190611622906129e5565b80601f016020809104026020016040519081016040528092919081815260200182805461164e906129e5565b801561169b5780601f106116705761010080835404028352916020019161169b565b820191906000526020600020905b81548152906001019060200180831161167e57829003601f168201915b505050918352505060038201546020808301919091526004830154604080840191909152600590930154606092830152928452815180830183526006860154815260078601548185015284840152815180830183526008860154815260098601548185015284830152815160808082018452600a8701548252600b87015482860152600c87015482850152600d87015460ff161515828401528583019190915282518082018452600e870180548252600f880154828701526010880154828601526011880180548651818902810189019097528087529390970196919590949386019392908301828280156117af57602002820191906000526020600020905b81548152602001906001019080831161179b575b50505050508152505081526020016012820180548060200260200160405190810160405280929190818152602001828054801561181557602002820191906000526020600020905b81546001600160a01b031681526001909101906020018083116117f7575b50505091835250506013820154602082015260149091015460ff16151560409091015290508260006118478787611bbe565b50905060006118568383612a98565b90506000611865826021612aab565b61187790674563918244f40000612a98565b90506000611886856021612aab565b61189890674563918244f40000612a98565b905060006118a8610bcf84611c1a565b905060006118b8610bcf84611c1a565b905060006118c9610bf56021611c1a565b905060006118da88620f4240612aab565b6118e49083612ad8565b8a5160e00151909150670de0b6b3a76400006119008284612aab565b61190a9190612ad8565b9f9e505050505050505050505050505050565b6001600160a01b03163b151590565b6000818152606760205260409020546001600160a01b031661198b5760405162461bcd60e51b8152602060048201526018602482015277115490cdcc8c4e881a5b9d985b1a59081d1bdad95b88125160421b6044820152606401610598565b50565b600081815260696020526040902080546001600160a01b0319166001600160a01b03841690811790915581906119c382610c75565b6001600160a01b03167f8c5be1e5ebec7d5bd14f71427d1e84f3dd0314c0f7b2291e5b200ac8c7c3b92560405160405180910390a45050565b600080611a0883610c75565b9050806001600160a01b0316846001600160a01b03161480611a2f5750611a2f8185611564565b8061104f5750836001600160a01b0316611a48846104fd565b6001600160a01b031614949350505050565b826001600160a01b0316611a6d82610c75565b6001600160a01b031614611a935760405162461bcd60e51b815260040161059890612b42565b6001600160a01b038216611af55760405162461bcd60e51b8152602060048201526024808201527f4552433732313a207472616e7366657220746f20746865207a65726f206164646044820152637265737360e01b6064820152608401610598565b826001600160a01b0316611b0882610c75565b6001600160a01b031614611b2e5760405162461bcd60e51b815260040161059890612b42565b600081815260696020908152604080832080546001600160a01b03199081169091556001600160a01b0387811680865260688552838620805460001901905590871680865283862080546001019055868652606790945282852080549092168417909155905184937fddf252ad1be2c89b69c2b068fc378daa952ba7f163c4a11628f55a4df523b3ef91a4505050565b60008060988481548110611bd457611bd4612a6c565b6000918252602090912060036015909202010154611bfa670de0b6b3a764000085612aab565b611c049190612ad8565b9050611c11816005612aab565b91509250929050565b6000611c30670de0b6b3a7640000600019612ad8565b821115611c53576040516322630c4560e01b815260048101839052602401610598565b670de0b6b3a76400008202610465565b60006104656714057b7ef767814f670de0b6b3a7640000611c89611c868661207c565b90565b0281611c9757611c97612ac2565b0490565b600061155d611c868385612b87565b600061155d611c8684846121b2565b600061155d611c8684670de0b6b3a764000085612266565b600080670de0b6b3a7640000611cef84670928ca80cfc20000612aab565b611cf99190612ad8565b611d0b9067016345785d8a0000612a98565b905061155d816ec097ce7bc90715b34b9f1000000000612ad8565b6000818152609b6020908152604080832054808452609d83528184208054835181860281018601909452808452919493909190830182828015611d8857602002820191906000526020600020905b815481526020019060010190808311611d74575b5050835193945060009250829150505b82811015611dd85785848281518110611db357611db3612a6c565b602002602001015103611dc857809150611dd8565b611dd181612afa565b9050611d98565b50818110611e285760405162461bcd60e51b815260206004820152601860248201527f546f6b656e206e6f7420666f756e6420696e20617272617900000000000000006044820152606401610598565b805b611e35600184612b87565b811015611e8d5783611e48826001612a98565b81518110611e5857611e58612a6c565b6020026020010151848281518110611e7257611e72612a6c565b6020908102919091010152611e8681612afa565b9050611e2a565b506000848152609d602090815260409091208451611ead92860190612512565b506000848152609d60205260409020805480611ecb57611ecb612b9a565b600190038181906000526020600020016000905590555050505050565b816001600160a01b0316836001600160a01b031603611f495760405162461bcd60e51b815260206004820152601960248201527f4552433732313a20617070726f766520746f2063616c6c6572000000000000006044820152606401610598565b6001600160a01b038381166000818152606a6020908152604080832094871680845294825291829020805460ff191686151590811790915591519182527f17307eab39ab6107e8899845ad3d59bd9653f200f220920489ca2b5937696c31910160405180910390a3505050565b611fc1848484611a5a565b611fcd84848484612339565b6114ea5760405162461bcd60e51b815260040161059890612bb0565b60606000611ff68361243a565b600101905060008167ffffffffffffffff81111561201657612016612894565b6040519080825280601f01601f191660200182016040528015612040576020820181803683370190505b5090508181016020015b600019016f181899199a1a9b1b9c1cb0b131b232b360811b600a86061a8153600a850494508461204a57509392505050565b600081670de0b6b3a76400008110156120ab57604051633621413760e21b815260048101849052602401610598565b6000612137670de0b6b3a7640000830460016fffffffffffffffffffffffffffffffff821160071b91821c67ffffffffffffffff811160061b90811c63ffffffff811160051b90811c61ffff811160041b90811c60ff8111600390811b91821c600f811160021b90811c918211871b91821c969096119490961792909217171791909117919091171790565b9050670de0b6b3a7640000810282821c670de0b6b3a763ffff19810161216357815b9695505050505050565b671bc16d674ec800006706f05b59d3b200005b80156121a657670de0b6b3a764000083800204925081831061219e579283019260019290921c915b60011c612176565b50919695505050505050565b60008080600019848609848602925082811083820303915050670de0b6b3a764000081106121fd5760405163090638d560e41b81526004810186905260248101859052604401610598565b6000670de0b6b3a7640000858709905081600003612229575050670de0b6b3a764000090049050610465565b620400008184030492109003600160ee1b02177faccb18165bd6fe31ae1cf318dc5b51eee0e1ba569b88cd74c1773b91fac1066902905092915050565b60008080600019858709858702925082811083820303915050806000036122a05783828161229657612296612ac2565b049250505061155d565b8381106122d1576040516307639aaf60e41b8152600481018790526024810186905260448101859052606401610598565b600084868809600260036001881981018916988990049182028318808302840302808302840302808302840302808302840302808302840302918202909203026000889003889004909101858311909403939093029303949094049190911702949350505050565b60006001600160a01b0384163b1561242f57604051630a85bd0160e11b81526001600160a01b0385169063150b7a029061237d903390899088908890600401612c02565b6020604051808303816000875af19250505080156123b8575060408051601f3d908101601f191682019092526123b591810190612c35565b60015b612415573d8080156123e6576040519150601f19603f3d011682016040523d82523d6000602084013e6123eb565b606091505b50805160000361240d5760405162461bcd60e51b815260040161059890612bb0565b805181602001fd5b6001600160e01b031916630a85bd0160e11b14905061104f565b506001949350505050565b60008072184f03e93ff9f4daa797ed6e38ed64bf6a1f0160401b83106124795772184f03e93ff9f4daa797ed6e38ed64bf6a1f0160401b830492506040015b6d04ee2d6d415b85acef810000000083106124a5576d04ee2d6d415b85acef8100000000830492506020015b662386f26fc1000083106124c357662386f26fc10000830492506010015b6305f5e10083106124db576305f5e100830492506008015b61271083106124ef57612710830492506004015b60648310612501576064830492506002015b600a83106104655760010192915050565b82805482825590600052602060002090810192821561254d579160200282015b8281111561254d578251825591602001919060010190612532565b5061255992915061255d565b5090565b5b80821115612559576000815560010161255e565b6001600160e01b03198116811461198b57600080fd5b60006020828403121561259a57600080fd5b813561155d81612572565b60005b838110156125c05781810151838201526020016125a8565b50506000910152565b600081518084526125e18160208601602086016125a5565b601f01601f19169290920160200192915050565b60208152600061155d60208301846125c9565b60006020828403121561261a57600080fd5b5035919050565b80356001600160a01b038116811461263857600080fd5b919050565b6000806040838503121561265057600080fd5b61265983612621565b946020939093013593505050565b60006080830182518452602080840151818601526040840151604086015260608401516080606087015282815180855260a0880191508383019450600092505b808310156126c757845182529383019360019290920191908301906126a7565b509695505050505050565b61018080825288516001600160a01b0390811691830191909152602089015160ff166101a0830152604089015161ffff166101c08301526060890151166101e082015260808801516101006102008301526000906127346102808401826125c9565b905060a08a015161022084015260c08a015161024084015260e08a015161026084015261276e602084018a80518252602090810151910152565b8751606084015260208801516080840152865160a0840152602087015160c0840152604087015160e0840152606087015115156101008401528281036101208401526127ba8187612667565b915050836101408301526127d361016083018415159052565b98975050505050505050565b6000806000606084860312156127f457600080fd5b6127fd84612621565b925061280b60208501612621565b9150604084013590509250925092565b6000806040838503121561282e57600080fd5b50508035926020909101359150565b60006020828403121561284f57600080fd5b61155d82612621565b6000806040838503121561286b57600080fd5b61287483612621565b91506020830135801515811461288957600080fd5b809150509250929050565b634e487b7160e01b600052604160045260246000fd5b600080600080608085870312156128c057600080fd5b6128c985612621565b93506128d760208601612621565b925060408501359150606085013567ffffffffffffffff808211156128fb57600080fd5b818701915087601f83011261290f57600080fd5b81358181111561292157612921612894565b604051601f8201601f19908116603f0116810190838211818310171561294957612949612894565b816040528281528a602084870101111561296257600080fd5b82602086016020830137600060208483010152809550505050505092959194509250565b6000806040838503121561299957600080fd5b6129a283612621565b91506129b060208401612621565b90509250929050565b6000806000606084860312156129ce57600080fd5b505081359360208301359350604090920135919050565b600181811c908216806129f957607f821691505b602082108103612a1957634e487b7160e01b600052602260045260246000fd5b50919050565b6020808252602d908201527f4552433732313a2063616c6c6572206973206e6f7420746f6b656e206f776e6560408201526c1c881bdc88185c1c1c9bdd9959609a1b606082015260800190565b634e487b7160e01b600052603260045260246000fd5b634e487b7160e01b600052601160045260246000fd5b8082018082111561046557610465612a82565b808202811582820484141761046557610465612a82565b634e487b7160e01b600052601260045260246000fd5b600082612af557634e487b7160e01b600052601260045260246000fd5b500490565b600060018201612b0c57612b0c612a82565b5060010190565b60008351612b258184602088016125a5565b835190830190612b398183602088016125a5565b01949350505050565b60208082526025908201527f4552433732313a207472616e736665722066726f6d20696e636f72726563742060408201526437bbb732b960d91b606082015260800190565b8181038181111561046557610465612a82565b634e487b7160e01b600052603160045260246000fd5b60208082526032908201527f4552433732313a207472616e7366657220746f206e6f6e20455243373231526560408201527131b2b4bb32b91034b6b83632b6b2b73a32b960711b606082015260800190565b6001600160a01b0385811682528416602082015260408101839052608060608201819052600090612159908301846125c9565b600060208284031215612c4757600080fd5b815161155d8161257256fea264697066735822122068964f1c817fb9327853f98210d51f48a16e68ffebc429f736f202bf57eddd8964736f6c63430008110033496e697469616c697a61626c653a20636f6e7472616374206973206e6f742069",
    "linkReferences": {}
  },
  "methodIdentifiers": {
    "approve(address,uint256)": "095ea7b3",
    "balanceOf(address)": "70a08231",
    "calculateEffectiveAPY(uint256,uint256)": "5c46f7b1",
    "calculateEffectiveAPYConsolidate(uint256,uint256,uint256)": "ff5e5b5f",
    "consolidate(uint256)": "949a4a4a",
    "consolidateAll()": "75bfd63d",
    "getApproved(uint256)": "081812fc",
    "getCurrentAPY(uint256)": "7fbf3853",
    "index()": "2986c0e5",
    "isApprovedForAll(address,address)": "e985e9c5",
    "name()": "06fdde03",
    "nftAPY(uint256)": "1df56622",
    "nftBalance(uint256)": "e63d6ee4",
    "nftInfo(uint256)": "1f8bc790",
    "nftToPid(uint256)": "612afc0c",
    "ownerOf(uint256)": "6352211e",
    "pidNFTList(uint256,uint256)": "96ea48e8",
    "poolInfo(uint256)": "1526fe27",
    "safeTransferFrom(address,address,uint256)": "42842e0e",
    "safeTransferFrom(address,address,uint256,bytes)": "b88d4fde",
    "setApprovalForAll(address,bool)": "a22cb465",
    "supportsInterface(bytes4)": "01ffc9a7",
    "symbol()": "95d89b41",
    "tokenURI(uint256)": "c87b56dd",
    "transferFrom(address,address,uint256)": "23b872dd"
  },
  "id": 46
}