{
  "abi": [
    {
      "inputs": [],
      "stateMutability": "nonpayable",
      "type": "constructor"
    },
    {
      "inputs": [
        {
          "internalType": "UD60x18",
          "name": "x",
          "type": "uint256"
        }
      ],
      "name": "PRBMathUD60x18__LogInputTooSmall",
      "type": "error"
    },
    {
      "inputs": [
        {
          "internalType": "uint256",
          "name": "x",
          "type": "uint256"
        }
      ],
      "name": "PRBMathUD60x18__ToUD60x18Overflow",
      "type": "error"
    },
    {
      "inputs": [
        {
          "internalType": "uint256",
          "name": "x",
          "type": "uint256"
        },
        {
          "internalType": "uint256",
          "name": "y",
          "type": "uint256"
        }
      ],
      "name": "PRBMath__MulDiv18Overflow",
      "type": "error"
    },
    {
      "inputs": [
        {
          "internalType": "uint256",
          "name": "x",
          "type": "uint256"
        },
        {
          "internalType": "uint256",
          "name": "y",
          "type": "uint256"
        },
        {
          "internalType": "uint256",
          "name": "denominator",
          "type": "uint256"
        }
      ],
      "name": "PRBMath__MulDivOverflow",
      "type": "error"
    },
    {
      "anonymous": false,
      "inputs": [
        {
          "indexed": true,
          "internalType": "address",
          "name": "owner",
          "type": "address"
        },
        {
          "indexed": true,
          "internalType": "address",
          "name": "approved",
          "type": "address"
        },
        {
          "indexed": true,
          "internalType": "uint256",
          "name": "tokenId",
          "type": "uint256"
        }
      ],
      "name": "Approval",
      "type": "event"
    },
    {
      "anonymous": false,
      "inputs": [
        {
          "indexed": true,
          "internalType": "address",
          "name": "owner",
          "type": "address"
        },
        {
          "indexed": true,
          "internalType": "address",
          "name": "operator",
          "type": "address"
        },
        {
          "indexed": false,
          "internalType": "bool",
          "name": "approved",
          "type": "bool"
        }
      ],
      "name": "ApprovalForAll",
      "type": "event"
    },
    {
      "anonymous": false,
      "inputs": [
        {
          "indexed": true,
          "internalType": "uint256",
          "name": "pid",
          "type": "uint256"
        },
        {
          "indexed": false,
          "internalType": "uint256",
          "name": "oldAmount",
          "type": "uint256"
        },
        {
          "indexed": false,
          "internalType": "uint256",
          "name": "newAmount",
          "type": "uint256"
        }
      ],
      "name": "BountyBalanceChanged",
      "type": "event"
    },
    {
      "anonymous": false,
      "inputs": [
        {
          "indexed": true,
          "internalType": "address",
          "name": "hunter",
          "type": "address"
        },
        {
          "indexed": true,
          "internalType": "address",
          "name": "token",
          "type": "address"
        },
        {
          "indexed": false,
          "internalType": "uint256",
          "name": "amount",
          "type": "uint256"
        }
      ],
      "name": "BountyPaid",
      "type": "event"
    },
    {
      "anonymous": false,
      "inputs": [
        {
          "indexed": false,
          "internalType": "uint8",
          "name": "version",
          "type": "uint8"
        }
      ],
      "name": "Initialized",
      "type": "event"
    },
    {
      "anonymous": false,
      "inputs": [
        {
          "indexed": true,
          "internalType": "uint256",
          "name": "pid",
          "type": "uint256"
        },
        {
          "indexed": true,
          "internalType": "address",
          "name": "token",
          "type": "address"
        },
        {
          "indexed": false,
          "internalType": "uint256",
          "name": "tokenDecimals",
          "type": "uint256"
        }
      ],
      "name": "NewBountyDeployed",
      "type": "event"
    },
    {
      "anonymous": false,
      "inputs": [
        {
          "indexed": true,
          "internalType": "uint256",
          "name": "pid",
          "type": "uint256"
        },
        {
          "indexed": false,
          "internalType": "uint256",
          "name": "amount",
          "type": "uint256"
        }
      ],
      "name": "PremiumBilled",
      "type": "event"
    },
    {
      "anonymous": false,
      "inputs": [
        {
          "indexed": true,
          "internalType": "address",
          "name": "user",
          "type": "address"
        },
        {
          "indexed": true,
          "internalType": "uint256",
          "name": "pid",
          "type": "uint256"
        },
        {
          "indexed": false,
          "internalType": "uint256",
          "name": "amount",
          "type": "uint256"
        }
      ],
      "name": "Staked",
      "type": "event"
    },
    {
      "anonymous": false,
      "inputs": [
        {
          "indexed": true,
          "internalType": "address",
          "name": "from",
          "type": "address"
        },
        {
          "indexed": true,
          "internalType": "address",
          "name": "to",
          "type": "address"
        },
        {
          "indexed": true,
          "internalType": "uint256",
          "name": "tokenId",
          "type": "uint256"
        }
      ],
      "name": "Transfer",
      "type": "event"
    },
    {
      "anonymous": false,
      "inputs": [
        {
          "indexed": true,
          "internalType": "address",
          "name": "user",
          "type": "address"
        },
        {
          "indexed": true,
          "internalType": "uint256",
          "name": "pid",
          "type": "uint256"
        },
        {
          "indexed": false,
          "internalType": "uint256",
          "name": "amount",
          "type": "uint256"
        }
      ],
      "name": "Unstaked",
      "type": "event"
    },
    {
      "anonymous": false,
      "inputs": [
        {
          "indexed": true,
          "internalType": "uint256",
          "name": "pid",
          "type": "uint256"
        },
        {
          "indexed": false,
          "internalType": "uint256",
          "name": "amount",
          "type": "uint256"
        }
      ],
      "name": "WithdrawalOrUnstakeScheduled",
      "type": "event"
    },
    {
      "anonymous": false,
      "inputs": [
        {
          "indexed": true,
          "internalType": "address",
          "name": "referrer",
          "type": "address"
        },
        {
          "indexed": false,
          "internalType": "uint256",
          "name": "amount",
          "type": "uint256"
        }
      ],
      "name": "referralPaid",
      "type": "event"
    },
    {
      "anonymous": false,
      "inputs": [
        {
          "indexed": true,
          "internalType": "address",
          "name": "token",
          "type": "address"
        },
        {
          "indexed": true,
          "internalType": "bool",
          "name": "whitelisted",
          "type": "bool"
        }
      ],
      "name": "tokenWhitelistUpdated",
      "type": "event"
    },
    {
      "inputs": [
        {
          "internalType": "address",
          "name": "to",
          "type": "address"
        },
        {
          "internalType": "uint256",
          "name": "tokenId",
          "type": "uint256"
        }
      ],
      "name": "approve",
      "outputs": [],
      "stateMutability": "nonpayable",
      "type": "function"
    },
    {
      "inputs": [
        {
          "internalType": "address",
          "name": "owner",
          "type": "address"
        }
      ],
      "name": "balanceOf",
      "outputs": [
        {
          "internalType": "uint256",
          "name": "",
          "type": "uint256"
        }
      ],
      "stateMutability": "view",
      "type": "function"
    },
    {
      "inputs": [
        {
          "internalType": "uint256",
          "name": "_pid",
          "type": "uint256"
        },
        {
          "internalType": "uint256",
          "name": "_stake",
          "type": "uint256"
        }
      ],
      "name": "calculateEffectiveAPY",
      "outputs": [
        {
          "internalType": "uint256",
          "name": "scaledAPY",
          "type": "uint256"
        }
      ],
      "stateMutability": "view",
      "type": "function"
    },
    {
      "inputs": [
        {
          "internalType": "uint256",
          "name": "_pid",
          "type": "uint256"
        },
        {
          "internalType": "uint256",
          "name": "_stake",
          "type": "uint256"
        },
        {
          "internalType": "uint256",
          "name": "_memX",
          "type": "uint256"
        }
      ],
      "name": "calculateEffectiveAPYConsolidate",
      "outputs": [
        {
          "internalType": "uint256",
          "name": "scaledAPY",
          "type": "uint256"
        }
      ],
      "stateMutability": "view",
      "type": "function"
    },
    {
      "inputs": [
        {
          "internalType": "uint256",
          "name": "_pid",
          "type": "uint256"
        }
      ],
      "name": "consolidate",
      "outputs": [],
      "stateMutability": "nonpayable",
      "type": "function"
    },
    {
      "inputs": [],
      "name": "consolidateAll",
      "outputs": [],
      "stateMutability": "nonpayable",
      "type": "function"
    },
    {
      "inputs": [
        {
          "internalType": "uint256",
          "name": "tokenId",
          "type": "uint256"
        }
      ],
      "name": "getApproved",
      "outputs": [
        {
          "internalType": "address",
          "name": "",
          "type": "address"
        }
      ],
      "stateMutability": "view",
      "type": "function"
    },
    {
      "inputs": [
        {
          "internalType": "uint256",
          "name": "_pid",
          "type": "uint256"
        }
      ],
      "name": "getCurrentAPY",
      "outputs": [
        {
          "internalType": "uint256",
          "name": "currentAPY",
          "type": "uint256"
        }
      ],
      "stateMutability": "view",
      "type": "function"
    },
    {
      "inputs": [],
      "name": "index",
      "outputs": [
        {
          "internalType": "uint256",
          "name": "",
          "type": "uint256"
        }
      ],
      "stateMutability": "view",
      "type": "function"
    },
    {
      "inputs": [
        {
          "internalType": "address",
          "name": "owner",
          "type": "address"
        },
        {
          "internalType": "address",
          "name": "operator",
          "type": "address"
        }
      ],
      "name": "isApprovedForAll",
      "outputs": [
        {
          "internalType": "bool",
          "name": "",
          "type": "bool"
        }
      ],
      "stateMutability": "view",
      "type": "function"
    },
    {
      "inputs": [],
      "name": "name",
      "outputs": [
        {
          "internalType": "string",
          "name": "",
          "type": "string"
        }
      ],
      "stateMutability": "view",
      "type": "function"
    },
    {
      "inputs": [
        {
          "internalType": "uint256",
          "name": "",
          "type": "uint256"
        }
      ],
      "name": "nftAPY",
      "outputs": [
        {
          "internalType": "uint256",
          "name": "",
          "type": "uint256"
        }
      ],
      "stateMutability": "view",
      "type": "function"
    },
    {
      "inputs": [
        {
          "internalType": "uint256",
          "name": "",
          "type": "uint256"
        }
      ],
      "name": "nftBalance",
      "outputs": [
        {
          "internalType": "uint256",
          "name": "",
          "type": "uint256"
        }
      ],
      "stateMutability": "view",
      "type": "function"
    },
    {
      "inputs": [
        {
          "internalType": "uint256",
          "name": "",
          "type": "uint256"
        }
      ],
      "name": "nftInfo",
      "outputs": [
        {
          "internalType": "uint256",
          "name": "amount",
          "type": "uint256"
        },
        {
          "internalType": "uint256",
          "name": "xDelta",
          "type": "uint256"
        },
        {
          "internalType": "uint256",
          "name": "apy",
          "type": "uint256"
        },
        {
          "internalType": "uint256",
          "name": "unclaimed",
          "type": "uint256"
        },
        {
          "internalType": "uint256",
          "name": "lastClaimedTime",
          "type": "uint256"
        },
        {
          "internalType": "uint256",
          "name": "timelock",
          "type": "uint256"
        },
        {
          "internalType": "uint256",
          "name": "timelimit",
          "type": "uint256"
        }
      ],
      "stateMutability": "view",
      "type": "function"
    },
    {
      "inputs": [
        {
          "internalType": "uint256",
          "name": "",
          "type": "uint256"
        }
      ],
      "name": "nftToPid",
      "outputs": [
        {
          "internalType": "uint256",
          "name": "",
          "type": "uint256"
        }
      ],
      "stateMutability": "view",
      "type": "function"
    },
    {
      "inputs": [
        {
          "internalType": "uint256",
          "name": "tokenId",
          "type": "uint256"
        }
      ],
      "name": "ownerOf",
      "outputs": [
        {
          "internalType": "address",
          "name": "",
          "type": "address"
        }
      ],
      "stateMutability": "view",
      "type": "function"
    },
    {
      "inputs": [
        {
          "internalType": "uint256",
          "name": "",
          "type": "uint256"
        },
        {
          "internalType": "uint256",
          "name": "",
          "type": "uint256"
        }
      ],
      "name": "pidNFTList",
      "outputs": [
        {
          "internalType": "uint256",
          "name": "",
          "type": "uint256"
        }
      ],
      "stateMutability": "view",
      "type": "function"
    },
    {
      "inputs": [
        {
          "internalType": "uint256",
          "name": "",
          "type": "uint256"
        }
      ],
      "name": "poolInfo",
      "outputs": [
        {
          "components": [
            {
              "internalType": "contract IERC20",
              "name": "token",
              "type": "address"
            },
            {
              "internalType": "uint8",
              "name": "tokenDecimals",
              "type": "uint8"
            },
            {
              "internalType": "uint16",
              "name": "apy",
              "type": "uint16"
            },
            {
              "internalType": "address",
              "name": "projectWallet",
              "type": "address"
            },
            {
              "internalType": "string",
              "name": "projectName",
              "type": "string"
            },
            {
              "internalType": "uint256",
              "name": "poolCap",
              "type": "uint256"
            },
            {
              "internalType": "uint256",
              "name": "totalStaked",
              "type": "uint256"
            },
            {
              "internalType": "uint256",
              "name": "multiplier",
              "type": "uint256"
            }
          ],
          "internalType": "struct ISaloon.GeneralInfo",
          "name": "generalInfo",
          "type": "tuple"
        },
        {
          "components": [
            {
              "internalType": "uint256",
              "name": "projectDepositHeld",
              "type": "uint256"
            },
            {
              "internalType": "uint256",
              "name": "projectDepositInStrategy",
              "type": "uint256"
            }
          ],
          "internalType": "struct ISaloon.DepositInfo",
          "name": "depositInfo",
          "type": "tuple"
        },
        {
          "components": [
            {
              "internalType": "uint256",
              "name": "premiumBalance",
              "type": "uint256"
            },
            {
              "internalType": "uint256",
              "name": "premiumAvailable",
              "type": "uint256"
            }
          ],
          "internalType": "struct ISaloon.PremiumInfo",
          "name": "premiumInfo",
          "type": "tuple"
        },
        {
          "components": [
            {
              "internalType": "uint256",
              "name": "timelock",
              "type": "uint256"
            },
            {
              "internalType": "uint256",
              "name": "timeLimit",
              "type": "uint256"
            },
            {
              "internalType": "uint256",
              "name": "withdrawalScheduledAmount",
              "type": "uint256"
            },
            {
              "internalType": "bool",
              "name": "withdrawalExecuted",
              "type": "bool"
            }
          ],
          "internalType": "struct ISaloon.TimelockInfo",
          "name": "poolTimelock",
          "type": "tuple"
        },
        {
          "components": [
            {
              "internalType": "uint256",
              "name": "currentX",
              "type": "uint256"
            },
            {
              "internalType": "uint256",
              "name": "currentY",
              "type": "uint256"
            },
            {
              "internalType": "uint256",
              "name": "totalSupply",
              "type": "uint256"
            },
            {
              "internalType": "uint256[]",
              "name": "unstakedTokens",
              "type": "uint256[]"
            }
          ],
          "internalType": "struct ISaloon.TokenInfo",
          "name": "tokenInfo",
          "type": "tuple"
        },
        {
          "components": [
            {
              "internalType": "address",
              "name": "referrer",
              "type": "address"
            },
            {
              "internalType": "uint256",
              "name": "referralFee",
              "type": "uint256"
            }
          ],
          "internalType": "struct ISaloon.ReferralInfo",
          "name": "referralInfo",
          "type": "tuple"
        },
        {
          "internalType": "uint256",
          "name": "freezeTime",
          "type": "uint256"
        },
        {
          "internalType": "bool",
          "name": "isActive",
          "type": "bool"
        }
      ],
      "stateMutability": "view",
      "type": "function"
    },
    {
      "inputs": [
        {
          "internalType": "address",
          "name": "_token",
          "type": "address"
        },
        {
          "internalType": "uint256",
          "name": "_amount",
          "type": "uint256"
        }
      ],
      "name": "receiveStrategyYield",
      "outputs": [],
      "stateMutability": "nonpayable",
      "type": "function"
    },
    {
      "inputs": [
        {
          "internalType": "address",
          "name": "from",
          "type": "address"
        },
        {
          "internalType": "address",
          "name": "to",
          "type": "address"
        },
        {
          "internalType": "uint256",
          "name": "tokenId",
          "type": "uint256"
        }
      ],
      "name": "safeTransferFrom",
      "outputs": [],
      "stateMutability": "nonpayable",
      "type": "function"
    },
    {
      "inputs": [
        {
          "internalType": "address",
          "name": "from",
          "type": "address"
        },
        {
          "internalType": "address",
          "name": "to",
          "type": "address"
        },
        {
          "internalType": "uint256",
          "name": "tokenId",
          "type": "uint256"
        },
        {
          "internalType": "bytes",
          "name": "data",
          "type": "bytes"
        }
      ],
      "name": "safeTransferFrom",
      "outputs": [],
      "stateMutability": "nonpayable",
      "type": "function"
    },
    {
      "inputs": [
        {
          "internalType": "address",
          "name": "operator",
          "type": "address"
        },
        {
          "internalType": "bool",
          "name": "approved",
          "type": "bool"
        }
      ],
      "name": "setApprovalForAll",
      "outputs": [],
      "stateMutability": "nonpayable",
      "type": "function"
    },
    {
      "inputs": [
        {
          "internalType": "bytes4",
          "name": "interfaceId",
          "type": "bytes4"
        }
      ],
      "name": "supportsInterface",
      "outputs": [
        {
          "internalType": "bool",
          "name": "",
          "type": "bool"
        }
      ],
      "stateMutability": "view",
      "type": "function"
    },
    {
      "inputs": [],
      "name": "symbol",
      "outputs": [
        {
          "internalType": "string",
          "name": "",
          "type": "string"
        }
      ],
      "stateMutability": "view",
      "type": "function"
    },
    {
      "inputs": [
        {
          "internalType": "uint256",
          "name": "tokenId",
          "type": "uint256"
        }
      ],
      "name": "tokenURI",
      "outputs": [
        {
          "internalType": "string",
          "name": "",
          "type": "string"
        }
      ],
      "stateMutability": "view",
      "type": "function"
    },
    {
      "inputs": [
        {
          "internalType": "address",
          "name": "from",
          "type": "address"
        },
        {
          "internalType": "address",
          "name": "to",
          "type": "address"
        },
        {
          "internalType": "uint256",
          "name": "tokenId",
          "type": "uint256"
        }
      ],
      "name": "transferFrom",
      "outputs": [],
      "stateMutability": "nonpayable",
      "type": "function"
    }
  ],
  "bytecode": {
    "object": "0x60806040523480156200001157600080fd5b50600054610100900460ff1615808015620000335750600054600160ff909116105b8062000063575062000050306200018e60201b62001a0f1760201c565b15801562000063575060005460ff166001145b620000cc5760405162461bcd60e51b815260206004820152602e60248201527f496e697469616c697a61626c653a20636f6e747261637420697320616c72656160448201526d191e481a5b9a5d1a585b1a5e995960921b60648201526084015b60405180910390fd5b6000805460ff191660011790558015620000f0576000805461ff0019166101001790555b620001406040518060400160405280600b81526020016a2137bab73a3caa37b5b2b760a91b8152506040518060400160405280600381526020016210951560ea1b8152506200019d60201b60201c565b801562000187576000805461ff0019169055604051600181527f7f26b83ff96e1f2b6a682f133852f6798a09c465da95921460cefb38474024989060200160405180910390a15b50620003f7565b6001600160a01b03163b151590565b600054610100900460ff16620001f95760405162461bcd60e51b815260206004820152602b6024820152600080516020620031a483398151915260448201526a6e697469616c697a696e6760a81b6064820152608401620000c3565b62000205828262000209565b5050565b600054610100900460ff16620002655760405162461bcd60e51b815260206004820152602b6024820152600080516020620031a483398151915260448201526a6e697469616c697a696e6760a81b6064820152608401620000c3565b60656200027383826200032b565b5060666200028282826200032b565b505050565b634e487b7160e01b600052604160045260246000fd5b600181811c90821680620002b257607f821691505b602082108103620002d357634e487b7160e01b600052602260045260246000fd5b50919050565b601f8211156200028257600081815260208120601f850160051c81016020861015620003025750805b601f850160051c820191505b8181101562000323578281556001016200030e565b505050505050565b81516001600160401b0381111562000347576200034762000287565b6200035f816200035884546200029d565b84620002d9565b602080601f8311600181146200039757600084156200037e5750858301515b600019600386901b1c1916600185901b17855562000323565b600085815260208120601f198616915b82811015620003c857888601518255948401946001909101908401620003a7565b5085821015620003e75787850151600019600388901b60f8161c191681555b5050505050600190811b01905550565b612d9d80620004076000396000f3fe608060405234801561001057600080fd5b506004361061018e5760003560e01c80636352211e116100de57806396ea48e811610097578063c87b56dd11610071578063c87b56dd146103ee578063e63d6ee414610401578063e985e9c514610421578063ff5e5b5f1461043457600080fd5b806396ea48e8146103b5578063a22cb465146103c8578063b88d4fde146103db57600080fd5b80636352211e1461035957806370a082311461036c57806375bfd63d1461037f5780637fbf385314610387578063949a4a4a1461039a57806395d89b41146103ad57600080fd5b80631df566221161014b5780632986c0e5116101255780632986c0e51461030a57806342842e0e146103135780635c46f7b114610326578063612afc0c1461033957600080fd5b80631df56622146102495780631f8bc7901461027757806323b872dd146102f757600080fd5b806301ffc9a71461019357806306fdde03146101bb578063081812fc146101d0578063095ea7b3146101fb5780631526fe27146102105780631aebcecb14610237575b600080fd5b6101a66101a136600461267a565b610447565b60405190151581526020015b60405180910390f35b6101c3610499565b6040516101b291906126e7565b6101e36101de3660046126fa565b61052b565b6040516001600160a01b0390911681526020016101b2565b61020e61020936600461272f565b610552565b005b61022361021e3660046126fa565b61066c565b6040516101b29897969594939291906127c4565b61020e61024536600461272f565b5050565b6102696102573660046126fa565b609a6020526000908152604090205481565b6040519081526020016101b2565b6102c26102853660046126fa565b609c602052600090815260409020805460018201546002830154600384015460048501546005860154600690960154949593949293919290919087565b604080519788526020880196909652948601939093526060850191909152608084015260a083015260c082015260e0016101b2565b61020e6103053660046128f4565b6108bc565b610269606b5481565b61020e6103213660046128f4565b6108ed565b610269610334366004612930565b610908565b6102696103473660046126fa565b609b6020526000908152604090205481565b6101e36103673660046126fa565b610cf2565b61026961037a366004612952565b610d52565b61020e610dd8565b6102696103953660046126fa565b610dff565b61020e6103a83660046126fa565b6110f8565b6101c3611537565b6102696103c3366004612930565b611546565b61020e6103d636600461296d565b611577565b61020e6103e93660046129bf565b611582565b6101c36103fc3660046126fa565b6115ba565b61026961040f3660046126fa565b60996020526000908152604090205481565b6101a661042f366004612a9b565b61162e565b610269610442366004612ace565b61165c565b60006001600160e01b031982166380ac58cd60e01b148061047857506001600160e01b03198216635b5e139f60e01b145b8061049357506301ffc9a760e01b6001600160e01b03198316145b92915050565b6060606580546104a890612afa565b80601f01602080910402602001604051908101604052809291908181526020018280546104d490612afa565b80156105215780601f106104f657610100808354040283529160200191610521565b820191906000526020600020905b81548152906001019060200180831161050457829003601f168201915b5050505050905090565b600061053682611a1e565b506000908152606960205260409020546001600160a01b031690565b600061055d82610cf2565b9050806001600160a01b0316836001600160a01b0316036105cf5760405162461bcd60e51b815260206004820152602160248201527f4552433732313a20617070726f76616c20746f2063757272656e74206f776e656044820152603960f91b60648201526084015b60405180910390fd5b336001600160a01b03821614806105eb57506105eb813361162e565b61065d5760405162461bcd60e51b815260206004820152603d60248201527f4552433732313a20617070726f76652063616c6c6572206973206e6f7420746f60448201527f6b656e206f776e6572206f7220617070726f76656420666f7220616c6c00000060648201526084016105c6565b6106678383611a80565b505050565b6098818154811061067c57600080fd5b60009182526020918290206040805161010081018252601790930290910180546001600160a01b03808216855260ff600160a01b8304169585019590955261ffff600160a81b9091041691830191909152600181015490921660608201526002820180549293509091839160808401916106f590612afa565b80601f016020809104026020016040519081016040528092919081815260200182805461072190612afa565b801561076e5780601f106107435761010080835404028352916020019161076e565b820191906000526020600020905b81548152906001019060200180831161075157829003601f168201915b50505091835250506003820154602080830191909152600483015460408084019190915260059093015460609283015282518084018452600686015481526007860154818301528351808501855260088701548152600987015481840152845160808082018752600a8901548252600b89015482860152600c89015482880152600d89015460ff1615158287015286519081018752600e890180548252600f8a01548287015260108a01548289015260118a018054895181890281018901909a52808a52999a959994989397959692959194918601939290919083018282801561087757602002820191906000526020600020905b815481526020019060010190808311610863575b5050509190925250506040805180820190915260128401546001600160a01b031681526013840154602082015260158401546016909401549293909290915060ff1688565b6108c63382611aee565b6108e25760405162461bcd60e51b81526004016105c690612b34565b610667838383611b4c565b61066783838360405180602001604052806000815250611582565b6000806098848154811061091e5761091e612b81565b6000918252602090912060408051610220810190915260179092020180546001600160a01b038082166101208501908152600160a01b830460ff16610140860152600160a81b90920461ffff1661016085015260018301541661018084015260028201805484929184916101a08501919061099890612afa565b80601f01602080910402602001604051908101604052809291908181526020018280546109c490612afa565b8015610a115780601f106109e657610100808354040283529160200191610a11565b820191906000526020600020905b8154815290600101906020018083116109f457829003601f168201915b505050918352505060038201546020808301919091526004830154604080840191909152600590930154606092830152928452815180830183526006860154815260078601548185015284840152815180830183526008860154815260098601548185015284830152815160808082018452600a8701548252600b87015482860152600c87015482850152600d87015460ff161515828401528583019190915282518082018452600e870180548252600f88015482870152601088015482860152601188018054865181890281018901909752808752939097019691959094938601939290830182828015610b2557602002820191906000526020600020905b815481526020019060010190808311610b11575b50505091909252505050815260408051808201825260128401546001600160a01b03168152601384015460208281019190915280840191909152601484018054835181840281018401855281815293909401939091830182828015610bb357602002820191906000526020600020905b81546001600160a01b03168152600190910190602001808311610b95575b50505091835250506015820154602082015260169091015460ff1615156040909101526080810151519091506000610beb8686611cb0565b5090506000610bfa8383612bad565b90506000610c09826021612bc0565b610c1b90674563918244f40000612bad565b90506000610c2a856021612bc0565b610c3c90674563918244f40000612bad565b90506000610c51610c4c84611d0c565b611d55565b90506000610c61610c4c84611d0c565b90506000610c9f610c726021611d0c565b610c99610c7f8686611d8d565b610c936a295be96e64066972000000611d0c565b90611d9c565b90611dab565b90506000610cb088620f4240612bc0565b610cba9083612bed565b8a5160e00151909150670de0b6b3a7640000610cd68284612bc0565b610ce09190612bed565b9e9d5050505050505050505050505050565b6000818152606760205260408120546001600160a01b0316806104935760405162461bcd60e51b8152602060048201526018602482015277115490cdcc8c4e881a5b9d985b1a59081d1bdad95b88125160421b60448201526064016105c6565b60006001600160a01b038216610dbc5760405162461bcd60e51b815260206004820152602960248201527f4552433732313a2061646472657373207a65726f206973206e6f7420612076616044820152683634b21037bbb732b960b91b60648201526084016105c6565b506001600160a01b031660009081526068602052604090205490565b60985460005b8181101561024557610def816110f8565b610df881612c0f565b9050610dde565b60008060988381548110610e1557610e15612b81565b6000918252602090912060408051610220810190915260179092020180546001600160a01b038082166101208501908152600160a01b830460ff16610140860152600160a81b90920461ffff1661016085015260018301541661018084015260028201805484929184916101a085019190610e8f90612afa565b80601f0160208091040260200160405190810160405280929190818152602001828054610ebb90612afa565b8015610f085780601f10610edd57610100808354040283529160200191610f08565b820191906000526020600020905b815481529060010190602001808311610eeb57829003601f168201915b505050918352505060038201546020808301919091526004830154604080840191909152600590930154606092830152928452815180830183526006860154815260078601548185015284840152815180830183526008860154815260098601548185015284830152815160808082018452600a8701548252600b87015482860152600c87015482850152600d87015460ff161515828401528583019190915282518082018452600e870180548252600f8801548287015260108801548286015260118801805486518189028101890190975280875293909701969195909493860193929083018282801561101c57602002820191906000526020600020905b815481526020019060010190808311611008575b50505091909252505050815260408051808201825260128401546001600160a01b031681526013840154602082810191909152808401919091526014840180548351818402810184018552818152939094019390918301828280156110aa57602002820191906000526020600020905b81546001600160a01b0316815260019091019060200180831161108c575b50505091835250506015820154602082015260169091015460ff161515604090910152608081015151815160e00151919250906110e682611dc3565b6110f09190612bc0565b949350505050565b60006098828154811061110d5761110d612b81565b6000918252602090912060408051610220810190915260179092020180546001600160a01b038082166101208501908152600160a01b830460ff16610140860152600160a81b90920461ffff1661016085015260018301541661018084015260028201805484929184916101a08501919061118790612afa565b80601f01602080910402602001604051908101604052809291908181526020018280546111b390612afa565b80156112005780601f106111d557610100808354040283529160200191611200565b820191906000526020600020905b8154815290600101906020018083116111e357829003601f168201915b505050918352505060038201546020808301919091526004830154604080840191909152600590930154606092830152928452815180830183526006860154815260078601548185015284840152815180830183526008860154815260098601548185015284830152815160808082018452600a8701548252600b87015482860152600c87015482850152600d87015460ff161515828401528583019190915282518082018452600e870180548252600f8801548287015260108801548286015260118801805486518189028101890190975280875293909701969195909493860193929083018282801561131457602002820191906000526020600020905b815481526020019060010190808311611300575b50505091909252505050815260408051808201825260128401546001600160a01b031681526013840154602082810191909152808401919091526014840180548351818402810184018552818152939094019390918301828280156113a257602002820191906000526020600020905b81546001600160a01b03168152600190910190602001808311611384575b50505091835250506015820154602082015260169091015460ff1615156040909101526080810151606001518051919250908015806113e45750826101000151155b156113ef5750505050565b60005b8181101561142c5761141c83828151811061140f5761140f612b81565b6020026020010151611e18565b61142581612c0f565b90506113f2565b506000848152609d602090815260408083208054825181850281018501909352808352919290919083018282801561148357602002820191906000526020600020905b81548152602001906001019080831161146f575b5050835193945060009250829150505b828110156115055760008482815181106114af576114af612b81565b6020908102919091018101516000818152609c90925260409091208054919250906114db8b828761165c565b600283015560018201546114ef9086612bad565b9450505050806114fe90612c0f565b9050611493565b50806098888154811061151a5761151a612b81565b600091825260209091206010601790920201015550505050505050565b6060606680546104a890612afa565b609d602052816000526040600020818154811061156257600080fd5b90600052602060002001600091509150505481565b610245338383611fda565b61158c3383611aee565b6115a85760405162461bcd60e51b81526004016105c690612b34565b6115b4848484846120a8565b50505050565b60606115c582611a1e565b60006115dc60408051602081019091526000815290565b905060008151116115fc5760405180602001604052806000815250611627565b80611606846120db565b604051602001611617929190612c28565b6040516020818303038152906040525b9392505050565b6001600160a01b039182166000908152606a6020908152604080832093909416825291909152205460ff1690565b6000806098858154811061167257611672612b81565b6000918252602090912060408051610220810190915260179092020180546001600160a01b038082166101208501908152600160a01b830460ff16610140860152600160a81b90920461ffff1661016085015260018301541661018084015260028201805484929184916101a0850191906116ec90612afa565b80601f016020809104026020016040519081016040528092919081815260200182805461171890612afa565b80156117655780601f1061173a57610100808354040283529160200191611765565b820191906000526020600020905b81548152906001019060200180831161174857829003601f168201915b505050918352505060038201546020808301919091526004830154604080840191909152600590930154606092830152928452815180830183526006860154815260078601548185015284840152815180830183526008860154815260098601548185015284830152815160808082018452600a8701548252600b87015482860152600c87015482850152600d87015460ff161515828401528583019190915282518082018452600e870180548252600f8801548287015260108801548286015260118801805486518189028101890190975280875293909701969195909493860193929083018282801561187957602002820191906000526020600020905b815481526020019060010190808311611865575b50505091909252505050815260408051808201825260128401546001600160a01b0316815260138401546020828101919091528084019190915260148401805483518184028101840185528181529390940193909183018282801561190757602002820191906000526020600020905b81546001600160a01b031681526001909101906020018083116118e9575b50505091835250506015820154602082015260169091015460ff16151560409091015290508260006119398787611cb0565b50905060006119488383612bad565b90506000611957826021612bc0565b61196990674563918244f40000612bad565b90506000611978856021612bc0565b61198a90674563918244f40000612bad565b9050600061199a610c4c84611d0c565b905060006119aa610c4c84611d0c565b905060006119bb610c726021611d0c565b905060006119cc88620f4240612bc0565b6119d69083612bed565b8a5160e00151909150670de0b6b3a76400006119f28284612bc0565b6119fc9190612bed565b9f9e505050505050505050505050505050565b6001600160a01b03163b151590565b6000818152606760205260409020546001600160a01b0316611a7d5760405162461bcd60e51b8152602060048201526018602482015277115490cdcc8c4e881a5b9d985b1a59081d1bdad95b88125160421b60448201526064016105c6565b50565b600081815260696020526040902080546001600160a01b0319166001600160a01b0384169081179091558190611ab582610cf2565b6001600160a01b03167f8c5be1e5ebec7d5bd14f71427d1e84f3dd0314c0f7b2291e5b200ac8c7c3b92560405160405180910390a45050565b600080611afa83610cf2565b9050806001600160a01b0316846001600160a01b03161480611b215750611b21818561162e565b806110f05750836001600160a01b0316611b3a8461052b565b6001600160a01b031614949350505050565b826001600160a01b0316611b5f82610cf2565b6001600160a01b031614611b855760405162461bcd60e51b81526004016105c690612c57565b6001600160a01b038216611be75760405162461bcd60e51b8152602060048201526024808201527f4552433732313a207472616e7366657220746f20746865207a65726f206164646044820152637265737360e01b60648201526084016105c6565b826001600160a01b0316611bfa82610cf2565b6001600160a01b031614611c205760405162461bcd60e51b81526004016105c690612c57565b600081815260696020908152604080832080546001600160a01b03199081169091556001600160a01b0387811680865260688552838620805460001901905590871680865283862080546001019055868652606790945282852080549092168417909155905184937fddf252ad1be2c89b69c2b068fc378daa952ba7f163c4a11628f55a4df523b3ef91a4505050565b60008060988481548110611cc657611cc6612b81565b6000918252602090912060036017909202010154611cec670de0b6b3a764000085612bc0565b611cf69190612bed565b9050611d03816005612bc0565b91509250929050565b6000611d22670de0b6b3a7640000600019612bed565b821115611d45576040516322630c4560e01b8152600481018390526024016105c6565b670de0b6b3a76400008202610493565b60006104936714057b7ef767814f670de0b6b3a7640000611d7b611d788661216e565b90565b0281611d8957611d89612bd7565b0490565b6000611627611d788385612c9c565b6000611627611d7884846122a4565b6000611627611d7884670de0b6b3a764000085612358565b600080670de0b6b3a7640000611de184670928ca80cfc20000612bc0565b611deb9190612bed565b611dfd9067016345785d8a0000612bad565b9050611627816ec097ce7bc90715b34b9f1000000000612bed565b6000818152609b6020908152604080832054808452609d83528184208054835181860281018601909452808452919493909190830182828015611e7a57602002820191906000526020600020905b815481526020019060010190808311611e66575b5050835193945060009250829150505b82811015611eca5785848281518110611ea557611ea5612b81565b602002602001015103611eba57809150611eca565b611ec381612c0f565b9050611e8a565b50818110611f1a5760405162461bcd60e51b815260206004820152601860248201527f546f6b656e206e6f7420666f756e6420696e206172726179000000000000000060448201526064016105c6565b805b611f27600184612c9c565b811015611f7f5783611f3a826001612bad565b81518110611f4a57611f4a612b81565b6020026020010151848281518110611f6457611f64612b81565b6020908102919091010152611f7881612c0f565b9050611f1c565b506000848152609d602090815260409091208451611f9f92860190612604565b506000848152609d60205260409020805480611fbd57611fbd612caf565b600190038181906000526020600020016000905590555050505050565b816001600160a01b0316836001600160a01b03160361203b5760405162461bcd60e51b815260206004820152601960248201527f4552433732313a20617070726f766520746f2063616c6c65720000000000000060448201526064016105c6565b6001600160a01b038381166000818152606a6020908152604080832094871680845294825291829020805460ff191686151590811790915591519182527f17307eab39ab6107e8899845ad3d59bd9653f200f220920489ca2b5937696c31910160405180910390a3505050565b6120b3848484611b4c565b6120bf8484848461242b565b6115b45760405162461bcd60e51b81526004016105c690612cc5565b606060006120e88361252c565b600101905060008167ffffffffffffffff811115612108576121086129a9565b6040519080825280601f01601f191660200182016040528015612132576020820181803683370190505b5090508181016020015b600019016f181899199a1a9b1b9c1cb0b131b232b360811b600a86061a8153600a850494508461213c57509392505050565b600081670de0b6b3a764000081101561219d57604051633621413760e21b8152600481018490526024016105c6565b6000612229670de0b6b3a7640000830460016fffffffffffffffffffffffffffffffff821160071b91821c67ffffffffffffffff811160061b90811c63ffffffff811160051b90811c61ffff811160041b90811c60ff8111600390811b91821c600f811160021b90811c918211871b91821c969096119490961792909217171791909117919091171790565b9050670de0b6b3a7640000810282821c670de0b6b3a763ffff19810161225557815b9695505050505050565b671bc16d674ec800006706f05b59d3b200005b801561229857670de0b6b3a7640000838002049250818310612290579283019260019290921c915b60011c612268565b50919695505050505050565b60008080600019848609848602925082811083820303915050670de0b6b3a764000081106122ef5760405163090638d560e41b815260048101869052602481018590526044016105c6565b6000670de0b6b3a764000085870990508160000361231b575050670de0b6b3a764000090049050610493565b620400008184030492109003600160ee1b02177faccb18165bd6fe31ae1cf318dc5b51eee0e1ba569b88cd74c1773b91fac1066902905092915050565b60008080600019858709858702925082811083820303915050806000036123925783828161238857612388612bd7565b0492505050611627565b8381106123c3576040516307639aaf60e41b81526004810187905260248101869052604481018590526064016105c6565b600084868809600260036001881981018916988990049182028318808302840302808302840302808302840302808302840302808302840302918202909203026000889003889004909101858311909403939093029303949094049190911702949350505050565b60006001600160a01b0384163b1561252157604051630a85bd0160e11b81526001600160a01b0385169063150b7a029061246f903390899088908890600401612d17565b6020604051808303816000875af19250505080156124aa575060408051601f3d908101601f191682019092526124a791810190612d4a565b60015b612507573d8080156124d8576040519150601f19603f3d011682016040523d82523d6000602084013e6124dd565b606091505b5080516000036124ff5760405162461bcd60e51b81526004016105c690612cc5565b805181602001fd5b6001600160e01b031916630a85bd0160e11b1490506110f0565b506001949350505050565b60008072184f03e93ff9f4daa797ed6e38ed64bf6a1f0160401b831061256b5772184f03e93ff9f4daa797ed6e38ed64bf6a1f0160401b830492506040015b6d04ee2d6d415b85acef81000000008310612597576d04ee2d6d415b85acef8100000000830492506020015b662386f26fc1000083106125b557662386f26fc10000830492506010015b6305f5e10083106125cd576305f5e100830492506008015b61271083106125e157612710830492506004015b606483106125f3576064830492506002015b600a83106104935760010192915050565b82805482825590600052602060002090810192821561263f579160200282015b8281111561263f578251825591602001919060010190612624565b5061264b92915061264f565b5090565b5b8082111561264b5760008155600101612650565b6001600160e01b031981168114611a7d57600080fd5b60006020828403121561268c57600080fd5b813561162781612664565b60005b838110156126b257818101518382015260200161269a565b50506000910152565b600081518084526126d3816020860160208601612697565b601f01601f19169290920160200192915050565b60208152600061162760208301846126bb565b60006020828403121561270c57600080fd5b5035919050565b80356001600160a01b038116811461272a57600080fd5b919050565b6000806040838503121561274257600080fd5b61274b83612713565b946020939093013593505050565b60006080830182518452602080840151818601526040840151604086015260608401516080606087015282815180855260a0880191508383019450600092505b808310156127b95784518252938301936001929092019190830190612799565b509695505050505050565b6101c080825289516001600160a01b039081169183019190915260208a015160ff166101e083015260408a015161ffff1661020083015260608a01511661022082015260808901516101006102408301526000906128266102c08401826126bb565b905060a08b015161026084015260c08b015161028084015260e08b01516102a0840152612860602084018b80518252602090810151910152565b8851606084015260208901516080840152875160a0840152602088015160c0840152604088015160e0840152606088015115156101008401528281036101208401526128ac8188612759565b86516001600160a01b0316610140850152602087015161016085015291506128d19050565b836101808301526128e76101a083018415159052565b9998505050505050505050565b60008060006060848603121561290957600080fd5b61291284612713565b925061292060208501612713565b9150604084013590509250925092565b6000806040838503121561294357600080fd5b50508035926020909101359150565b60006020828403121561296457600080fd5b61162782612713565b6000806040838503121561298057600080fd5b61298983612713565b91506020830135801515811461299e57600080fd5b809150509250929050565b634e487b7160e01b600052604160045260246000fd5b600080600080608085870312156129d557600080fd5b6129de85612713565b93506129ec60208601612713565b925060408501359150606085013567ffffffffffffffff80821115612a1057600080fd5b818701915087601f830112612a2457600080fd5b813581811115612a3657612a366129a9565b604051601f8201601f19908116603f01168101908382118183101715612a5e57612a5e6129a9565b816040528281528a6020848701011115612a7757600080fd5b82602086016020830137600060208483010152809550505050505092959194509250565b60008060408385031215612aae57600080fd5b612ab783612713565b9150612ac560208401612713565b90509250929050565b600080600060608486031215612ae357600080fd5b505081359360208301359350604090920135919050565b600181811c90821680612b0e57607f821691505b602082108103612b2e57634e487b7160e01b600052602260045260246000fd5b50919050565b6020808252602d908201527f4552433732313a2063616c6c6572206973206e6f7420746f6b656e206f776e6560408201526c1c881bdc88185c1c1c9bdd9959609a1b606082015260800190565b634e487b7160e01b600052603260045260246000fd5b634e487b7160e01b600052601160045260246000fd5b8082018082111561049357610493612b97565b808202811582820484141761049357610493612b97565b634e487b7160e01b600052601260045260246000fd5b600082612c0a57634e487b7160e01b600052601260045260246000fd5b500490565b600060018201612c2157612c21612b97565b5060010190565b60008351612c3a818460208801612697565b835190830190612c4e818360208801612697565b01949350505050565b60208082526025908201527f4552433732313a207472616e736665722066726f6d20696e636f72726563742060408201526437bbb732b960d91b606082015260800190565b8181038181111561049357610493612b97565b634e487b7160e01b600052603160045260246000fd5b60208082526032908201527f4552433732313a207472616e7366657220746f206e6f6e20455243373231526560408201527131b2b4bb32b91034b6b83632b6b2b73a32b960711b606082015260800190565b6001600160a01b038581168252841660208201526040810183905260806060820181905260009061224b908301846126bb565b600060208284031215612d5c57600080fd5b81516116278161266456fea2646970667358221220be0cedac2a6c0cf291b204f07b3bfa3378c02e18646fc75098753a98c0513da964736f6c63430008110033496e697469616c697a61626c653a20636f6e7472616374206973206e6f742069",
    "linkReferences": {}
  },
  "methodIdentifiers": {
    "approve(address,uint256)": "095ea7b3",
    "balanceOf(address)": "70a08231",
    "calculateEffectiveAPY(uint256,uint256)": "5c46f7b1",
    "calculateEffectiveAPYConsolidate(uint256,uint256,uint256)": "ff5e5b5f",
    "consolidate(uint256)": "949a4a4a",
    "consolidateAll()": "75bfd63d",
    "getApproved(uint256)": "081812fc",
    "getCurrentAPY(uint256)": "7fbf3853",
    "index()": "2986c0e5",
    "isApprovedForAll(address,address)": "e985e9c5",
    "name()": "06fdde03",
    "nftAPY(uint256)": "1df56622",
    "nftBalance(uint256)": "e63d6ee4",
    "nftInfo(uint256)": "1f8bc790",
    "nftToPid(uint256)": "612afc0c",
    "ownerOf(uint256)": "6352211e",
    "pidNFTList(uint256,uint256)": "96ea48e8",
    "poolInfo(uint256)": "1526fe27",
    "receiveStrategyYield(address,uint256)": "1aebcecb",
    "safeTransferFrom(address,address,uint256)": "42842e0e",
    "safeTransferFrom(address,address,uint256,bytes)": "b88d4fde",
    "setApprovalForAll(address,bool)": "a22cb465",
    "supportsInterface(bytes4)": "01ffc9a7",
    "symbol()": "95d89b41",
    "tokenURI(uint256)": "c87b56dd",
    "transferFrom(address,address,uint256)": "23b872dd"
  },
  "id": 46
}