{
  "abi": [
    {
      "inputs": [
        {
          "internalType": "address",
          "name": "_owner",
          "type": "address"
        }
      ],
      "stateMutability": "nonpayable",
      "type": "constructor"
    },
    {
      "inputs": [
        {
          "internalType": "UD60x18",
          "name": "x",
          "type": "uint256"
        }
      ],
      "name": "PRBMathUD60x18__LogInputTooSmall",
      "type": "error"
    },
    {
      "inputs": [
        {
          "internalType": "uint256",
          "name": "x",
          "type": "uint256"
        }
      ],
      "name": "PRBMathUD60x18__ToUD60x18Overflow",
      "type": "error"
    },
    {
      "inputs": [
        {
          "internalType": "uint256",
          "name": "x",
          "type": "uint256"
        },
        {
          "internalType": "uint256",
          "name": "y",
          "type": "uint256"
        }
      ],
      "name": "PRBMath__MulDiv18Overflow",
      "type": "error"
    },
    {
      "inputs": [
        {
          "internalType": "uint256",
          "name": "x",
          "type": "uint256"
        },
        {
          "internalType": "uint256",
          "name": "y",
          "type": "uint256"
        },
        {
          "internalType": "uint256",
          "name": "denominator",
          "type": "uint256"
        }
      ],
      "name": "PRBMath__MulDivOverflow",
      "type": "error"
    },
    {
      "anonymous": false,
      "inputs": [
        {
          "indexed": true,
          "internalType": "address",
          "name": "owner",
          "type": "address"
        },
        {
          "indexed": true,
          "internalType": "address",
          "name": "approved",
          "type": "address"
        },
        {
          "indexed": true,
          "internalType": "uint256",
          "name": "tokenId",
          "type": "uint256"
        }
      ],
      "name": "Approval",
      "type": "event"
    },
    {
      "anonymous": false,
      "inputs": [
        {
          "indexed": true,
          "internalType": "address",
          "name": "owner",
          "type": "address"
        },
        {
          "indexed": true,
          "internalType": "address",
          "name": "operator",
          "type": "address"
        },
        {
          "indexed": false,
          "internalType": "bool",
          "name": "approved",
          "type": "bool"
        }
      ],
      "name": "ApprovalForAll",
      "type": "event"
    },
    {
      "anonymous": false,
      "inputs": [
        {
          "indexed": false,
          "internalType": "uint8",
          "name": "version",
          "type": "uint8"
        }
      ],
      "name": "Initialized",
      "type": "event"
    },
    {
      "anonymous": false,
      "inputs": [
        {
          "indexed": true,
          "internalType": "address",
          "name": "from",
          "type": "address"
        },
        {
          "indexed": true,
          "internalType": "address",
          "name": "to",
          "type": "address"
        },
        {
          "indexed": true,
          "internalType": "uint256",
          "name": "tokenId",
          "type": "uint256"
        }
      ],
      "name": "Transfer",
      "type": "event"
    },
    {
      "inputs": [
        {
          "internalType": "address",
          "name": "to",
          "type": "address"
        },
        {
          "internalType": "uint256",
          "name": "tokenId",
          "type": "uint256"
        }
      ],
      "name": "approve",
      "outputs": [],
      "stateMutability": "nonpayable",
      "type": "function"
    },
    {
      "inputs": [
        {
          "internalType": "address",
          "name": "owner",
          "type": "address"
        }
      ],
      "name": "balanceOf",
      "outputs": [
        {
          "internalType": "uint256",
          "name": "",
          "type": "uint256"
        }
      ],
      "stateMutability": "view",
      "type": "function"
    },
    {
      "inputs": [
        {
          "internalType": "uint256",
          "name": "_tokenId",
          "type": "uint256"
        }
      ],
      "name": "burn",
      "outputs": [],
      "stateMutability": "nonpayable",
      "type": "function"
    },
    {
      "inputs": [
        {
          "internalType": "uint256",
          "name": "_pid",
          "type": "uint256"
        },
        {
          "internalType": "uint256",
          "name": "_stake",
          "type": "uint256"
        },
        {
          "internalType": "bool",
          "name": "_simulation",
          "type": "bool"
        },
        {
          "internalType": "uint256",
          "name": "_memX",
          "type": "uint256"
        }
      ],
      "name": "calculateEffectiveAPY",
      "outputs": [
        {
          "internalType": "uint256",
          "name": "scaledAPY",
          "type": "uint256"
        }
      ],
      "stateMutability": "view",
      "type": "function"
    },
    {
      "inputs": [
        {
          "internalType": "uint256",
          "name": "_targetAPY",
          "type": "uint256"
        }
      ],
      "name": "calculateScalingMultiplier",
      "outputs": [
        {
          "internalType": "uint256",
          "name": "sm",
          "type": "uint256"
        }
      ],
      "stateMutability": "nonpayable",
      "type": "function"
    },
    {
      "inputs": [
        {
          "internalType": "uint256",
          "name": "_pid",
          "type": "uint256"
        }
      ],
      "name": "consolidate",
      "outputs": [],
      "stateMutability": "nonpayable",
      "type": "function"
    },
    {
      "inputs": [],
      "name": "consolidateAll",
      "outputs": [],
      "stateMutability": "nonpayable",
      "type": "function"
    },
    {
      "inputs": [
        {
          "internalType": "uint256",
          "name": "_x",
          "type": "uint256"
        }
      ],
      "name": "curveImplementation",
      "outputs": [
        {
          "internalType": "uint256",
          "name": "y",
          "type": "uint256"
        }
      ],
      "stateMutability": "pure",
      "type": "function"
    },
    {
      "inputs": [
        {
          "internalType": "address",
          "name": "_owner",
          "type": "address"
        }
      ],
      "name": "getAllTokensByOwner",
      "outputs": [
        {
          "components": [
            {
              "internalType": "uint256",
              "name": "pid",
              "type": "uint256"
            },
            {
              "internalType": "uint256",
              "name": "amount",
              "type": "uint256"
            },
            {
              "internalType": "uint256",
              "name": "xDelta",
              "type": "uint256"
            },
            {
              "internalType": "uint256",
              "name": "apy",
              "type": "uint256"
            },
            {
              "internalType": "uint256",
              "name": "unclaimed",
              "type": "uint256"
            },
            {
              "internalType": "uint256",
              "name": "lastClaimedTime",
              "type": "uint256"
            },
            {
              "internalType": "uint256",
              "name": "timelock",
              "type": "uint256"
            },
            {
              "internalType": "uint256",
              "name": "timelimit",
              "type": "uint256"
            }
          ],
          "internalType": "struct BountyTokenNFT.NFTInfo[]",
          "name": "userTokens",
          "type": "tuple[]"
        }
      ],
      "stateMutability": "view",
      "type": "function"
    },
    {
      "inputs": [
        {
          "internalType": "uint256",
          "name": "tokenId",
          "type": "uint256"
        }
      ],
      "name": "getApproved",
      "outputs": [
        {
          "internalType": "address",
          "name": "",
          "type": "address"
        }
      ],
      "stateMutability": "view",
      "type": "function"
    },
    {
      "inputs": [],
      "name": "index",
      "outputs": [
        {
          "internalType": "uint256",
          "name": "",
          "type": "uint256"
        }
      ],
      "stateMutability": "view",
      "type": "function"
    },
    {
      "inputs": [
        {
          "internalType": "address",
          "name": "owner",
          "type": "address"
        },
        {
          "internalType": "address",
          "name": "operator",
          "type": "address"
        }
      ],
      "name": "isApprovedForAll",
      "outputs": [
        {
          "internalType": "bool",
          "name": "",
          "type": "bool"
        }
      ],
      "stateMutability": "view",
      "type": "function"
    },
    {
      "inputs": [
        {
          "internalType": "address",
          "name": "spender",
          "type": "address"
        },
        {
          "internalType": "uint256",
          "name": "tokenId",
          "type": "uint256"
        }
      ],
      "name": "isApprovedOrOwner",
      "outputs": [
        {
          "internalType": "bool",
          "name": "",
          "type": "bool"
        }
      ],
      "stateMutability": "view",
      "type": "function"
    },
    {
      "inputs": [
        {
          "internalType": "uint256",
          "name": "_pid",
          "type": "uint256"
        },
        {
          "internalType": "address",
          "name": "_staker",
          "type": "address"
        },
        {
          "internalType": "uint256",
          "name": "_stake",
          "type": "uint256"
        }
      ],
      "name": "mint",
      "outputs": [
        {
          "internalType": "uint256",
          "name": "tokenId",
          "type": "uint256"
        }
      ],
      "stateMutability": "nonpayable",
      "type": "function"
    },
    {
      "inputs": [],
      "name": "name",
      "outputs": [
        {
          "internalType": "string",
          "name": "",
          "type": "string"
        }
      ],
      "stateMutability": "view",
      "type": "function"
    },
    {
      "inputs": [
        {
          "internalType": "uint256",
          "name": "",
          "type": "uint256"
        }
      ],
      "name": "nftInfo",
      "outputs": [
        {
          "internalType": "uint256",
          "name": "pid",
          "type": "uint256"
        },
        {
          "internalType": "uint256",
          "name": "amount",
          "type": "uint256"
        },
        {
          "internalType": "uint256",
          "name": "xDelta",
          "type": "uint256"
        },
        {
          "internalType": "uint256",
          "name": "apy",
          "type": "uint256"
        },
        {
          "internalType": "uint256",
          "name": "unclaimed",
          "type": "uint256"
        },
        {
          "internalType": "uint256",
          "name": "lastClaimedTime",
          "type": "uint256"
        },
        {
          "internalType": "uint256",
          "name": "timelock",
          "type": "uint256"
        },
        {
          "internalType": "uint256",
          "name": "timelimit",
          "type": "uint256"
        }
      ],
      "stateMutability": "view",
      "type": "function"
    },
    {
      "inputs": [],
      "name": "owner",
      "outputs": [
        {
          "internalType": "address",
          "name": "",
          "type": "address"
        }
      ],
      "stateMutability": "view",
      "type": "function"
    },
    {
      "inputs": [
        {
          "internalType": "uint256",
          "name": "tokenId",
          "type": "uint256"
        }
      ],
      "name": "ownerOf",
      "outputs": [
        {
          "internalType": "address",
          "name": "",
          "type": "address"
        }
      ],
      "stateMutability": "view",
      "type": "function"
    },
    {
      "inputs": [
        {
          "internalType": "uint256",
          "name": "_tokenId",
          "type": "uint256"
        }
      ],
      "name": "pendingPremium",
      "outputs": [
        {
          "internalType": "uint256",
          "name": "totalPending",
          "type": "uint256"
        },
        {
          "internalType": "uint256",
          "name": "actualPending",
          "type": "uint256"
        },
        {
          "internalType": "uint256",
          "name": "newPending",
          "type": "uint256"
        }
      ],
      "stateMutability": "view",
      "type": "function"
    },
    {
      "inputs": [
        {
          "internalType": "uint256",
          "name": "",
          "type": "uint256"
        },
        {
          "internalType": "uint256",
          "name": "",
          "type": "uint256"
        }
      ],
      "name": "pidNFTList",
      "outputs": [
        {
          "internalType": "uint256",
          "name": "",
          "type": "uint256"
        }
      ],
      "stateMutability": "view",
      "type": "function"
    },
    {
      "inputs": [
        {
          "internalType": "address",
          "name": "from",
          "type": "address"
        },
        {
          "internalType": "address",
          "name": "to",
          "type": "address"
        },
        {
          "internalType": "uint256",
          "name": "tokenId",
          "type": "uint256"
        }
      ],
      "name": "safeTransferFrom",
      "outputs": [],
      "stateMutability": "nonpayable",
      "type": "function"
    },
    {
      "inputs": [
        {
          "internalType": "address",
          "name": "from",
          "type": "address"
        },
        {
          "internalType": "address",
          "name": "to",
          "type": "address"
        },
        {
          "internalType": "uint256",
          "name": "tokenId",
          "type": "uint256"
        },
        {
          "internalType": "bytes",
          "name": "data",
          "type": "bytes"
        }
      ],
      "name": "safeTransferFrom",
      "outputs": [],
      "stateMutability": "nonpayable",
      "type": "function"
    },
    {
      "inputs": [
        {
          "internalType": "address",
          "name": "operator",
          "type": "address"
        },
        {
          "internalType": "bool",
          "name": "approved",
          "type": "bool"
        }
      ],
      "name": "setApprovalForAll",
      "outputs": [],
      "stateMutability": "nonpayable",
      "type": "function"
    },
    {
      "inputs": [
        {
          "internalType": "bytes4",
          "name": "interfaceId",
          "type": "bytes4"
        }
      ],
      "name": "supportsInterface",
      "outputs": [
        {
          "internalType": "bool",
          "name": "",
          "type": "bool"
        }
      ],
      "stateMutability": "view",
      "type": "function"
    },
    {
      "inputs": [],
      "name": "symbol",
      "outputs": [
        {
          "internalType": "string",
          "name": "",
          "type": "string"
        }
      ],
      "stateMutability": "view",
      "type": "function"
    },
    {
      "inputs": [
        {
          "internalType": "uint256",
          "name": "tokenId",
          "type": "uint256"
        }
      ],
      "name": "tokenURI",
      "outputs": [
        {
          "internalType": "string",
          "name": "",
          "type": "string"
        }
      ],
      "stateMutability": "view",
      "type": "function"
    },
    {
      "inputs": [
        {
          "internalType": "address",
          "name": "from",
          "type": "address"
        },
        {
          "internalType": "address",
          "name": "to",
          "type": "address"
        },
        {
          "internalType": "uint256",
          "name": "tokenId",
          "type": "uint256"
        }
      ],
      "name": "transferFrom",
      "outputs": [],
      "stateMutability": "nonpayable",
      "type": "function"
    },
    {
      "inputs": [
        {
          "internalType": "uint256",
          "name": "_tokenId",
          "type": "uint256"
        },
        {
          "components": [
            {
              "internalType": "uint256",
              "name": "pid",
              "type": "uint256"
            },
            {
              "internalType": "uint256",
              "name": "amount",
              "type": "uint256"
            },
            {
              "internalType": "uint256",
              "name": "xDelta",
              "type": "uint256"
            },
            {
              "internalType": "uint256",
              "name": "apy",
              "type": "uint256"
            },
            {
              "internalType": "uint256",
              "name": "unclaimed",
              "type": "uint256"
            },
            {
              "internalType": "uint256",
              "name": "lastClaimedTime",
              "type": "uint256"
            },
            {
              "internalType": "uint256",
              "name": "timelock",
              "type": "uint256"
            },
            {
              "internalType": "uint256",
              "name": "timelimit",
              "type": "uint256"
            }
          ],
          "internalType": "struct BountyTokenNFT.NFTInfo",
          "name": "_tokenData",
          "type": "tuple"
        }
      ],
      "name": "updateToken",
      "outputs": [],
      "stateMutability": "nonpayable",
      "type": "function"
    }
  ],
  "bytecode": {
    "object": "0x60806040523480156200001157600080fd5b506040516200379d3803806200379d8339810160408190526200003491620002ef565b600054610100900460ff1615808015620000555750600054600160ff909116105b806200008557506200007230620001f660201b620012861760201c565b15801562000085575060005460ff166001145b620000ee5760405162461bcd60e51b815260206004820152602e60248201527f496e697469616c697a61626c653a20636f6e747261637420697320616c72656160448201526d191e481a5b9a5d1a585b1a5e995960921b60648201526084015b60405180910390fd5b6000805460ff19166001179055801562000112576000805461ff0019166101001790555b6001600160a01b0382166200012657600080fd5b6200017c6040518060400160405280601181526020017029b0b637b7b72137bab73a3caa37b5b2b760791b8152506040518060400160405280600381526020016214d09560ea1b8152506200020560201b60201c565b609980546001600160a01b0384166001600160a01b03199182168117909255609a805490911690911790558015620001ee576000805461ff0019169055604051600181527f7f26b83ff96e1f2b6a682f133852f6798a09c465da95921460cefb38474024989060200160405180910390a15b505062000491565b6001600160a01b03163b151590565b600054610100900460ff16620002615760405162461bcd60e51b815260206004820152602b60248201526000805160206200377d83398151915260448201526a6e697469616c697a696e6760a81b6064820152608401620000e5565b6200026d828262000271565b5050565b600054610100900460ff16620002cd5760405162461bcd60e51b815260206004820152602b60248201526000805160206200377d83398151915260448201526a6e697469616c697a696e6760a81b6064820152608401620000e5565b6065620002db8382620003c5565b506066620002ea8282620003c5565b505050565b6000602082840312156200030257600080fd5b81516001600160a01b03811681146200031a57600080fd5b9392505050565b634e487b7160e01b600052604160045260246000fd5b600181811c908216806200034c57607f821691505b6020821081036200036d57634e487b7160e01b600052602260045260246000fd5b50919050565b601f821115620002ea57600081815260208120601f850160051c810160208610156200039c5750805b601f850160051c820191505b81811015620003bd57828155600101620003a8565b505050505050565b81516001600160401b03811115620003e157620003e162000321565b620003f981620003f2845462000337565b8462000373565b602080601f831160018114620004315760008415620004185750858301515b600019600386901b1c1916600185901b178555620003bd565b600085815260208120601f198616915b82811015620004625788860151825594840194600190910190840162000441565b5085821015620004815787850151600019600388901b60f8161c191681555b5050505050600190811b01905550565b6132dc80620004a16000396000f3fe608060405234801561001057600080fd5b50600436106101c45760003560e01c8063836a1040116100f9578063b0af534b11610097578063e985e9c511610071578063e985e9c514610444578063e9fda7d414610480578063f2eb7c67146104a0578063fb2f4352146104b357600080fd5b8063b0af534b1461040b578063b88d4fde1461041e578063c87b56dd1461043157600080fd5b8063949a4a4a116100d3578063949a4a4a146103ca57806395d89b41146103dd57806396ea48e8146103e5578063a22cb465146103f857600080fd5b8063836a1040146103915780638622ea5d146103a45780638da5cb5b146103b757600080fd5b806340bd1d0011610166578063430c208111610140578063430c2081146103505780636352211e1461036357806370a082311461037657806375bfd63d1461038957600080fd5b806340bd1d00146102fc57806342842e0e1461032a57806342966c681461033d57600080fd5b8063095ea7b3116101a2578063095ea7b3146102315780631f8bc7901461024657806323b872dd146102d25780632986c0e5146102e557600080fd5b806301ffc9a7146101c957806306fdde03146101f1578063081812fc14610206575b600080fd5b6101dc6101d7366004612748565b6104c6565b60405190151581526020015b60405180910390f35b6101f9610518565b6040516101e891906127b5565b6102196102143660046127c8565b6105aa565b6040516001600160a01b0390911681526020016101e8565b61024461023f3660046127f6565b6105d1565b005b6102976102543660046127c8565b609b602052600090815260409020805460018201546002830154600384015460048501546005860154600687015460079097015495969495939492939192909188565b604080519889526020890197909752958701949094526060860192909252608085015260a084015260c083015260e0820152610100016101e8565b6102446102e0366004612822565b6106eb565b6102ee606b5481565b6040519081526020016101e8565b61030f61030a3660046127c8565b61071c565b604080519384526020840192909252908201526060016101e8565b610244610338366004612822565b6108a9565b61024461034b3660046127c8565b6108c4565b6101dc61035e3660046127f6565b6108fa565b6102196103713660046127c8565b61090d565b6102ee610384366004612863565b61096d565b6102446109f3565b6102ee61039f366004612880565b610a8b565b6102446103b2366004612938565b610acb565b609954610219906001600160a01b031681565b6102446103d83660046127c8565b610b51565b6101f9610de8565b6102ee6103f33660046129c7565b610df7565b6102446104063660046129f7565b610e28565b6102ee6104193660046127c8565b610e33565b61024461042c366004612a57565b610e88565b6101f961043f3660046127c8565b610ec0565b6101dc610452366004612b05565b6001600160a01b039182166000908152606a6020908152604080832093909416825291909152205460ff1690565b61049361048e366004612863565b610f33565b6040516101e89190612b33565b6102ee6104ae3660046127c8565b6110ba565b6102ee6104c1366004612bc0565b6110e1565b60006001600160e01b031982166380ac58cd60e01b14806104f757506001600160e01b03198216635b5e139f60e01b145b8061051257506301ffc9a760e01b6001600160e01b03198316145b92915050565b60606065805461052790612bff565b80601f016020809104026020016040519081016040528092919081815260200182805461055390612bff565b80156105a05780601f10610575576101008083540402835291602001916105a0565b820191906000526020600020905b81548152906001019060200180831161058357829003601f168201915b5050505050905090565b60006105b582611295565b506000908152606960205260409020546001600160a01b031690565b60006105dc8261090d565b9050806001600160a01b0316836001600160a01b03160361064e5760405162461bcd60e51b815260206004820152602160248201527f4552433732313a20617070726f76616c20746f2063757272656e74206f776e656044820152603960f91b60648201526084015b60405180910390fd5b336001600160a01b038216148061066a575061066a8133610452565b6106dc5760405162461bcd60e51b815260206004820152603d60248201527f4552433732313a20617070726f76652063616c6c6572206973206e6f7420746f60448201527f6b656e206f776e6572206f7220617070726f76656420666f7220616c6c0000006064820152608401610645565b6106e683836112f4565b505050565b6106f53382611362565b6107115760405162461bcd60e51b815260040161064590612c39565b6106e68383836113e0565b6000818152609b602090815260408083208151610100810183528154808252600183015494820194909452600282015481840152600382015460608201526004808301546080830152600583015460a0830152600683015460c083015260079092015460e0820152609a549251632f380b3560e01b8152918201849052849384939192909184916001600160a01b0390911690632f380b3590602401600060405180830381865afa1580156107d5573d6000803e3d6000fd5b505050506040513d6000823e601f3d908101601f191682016040526107fd9190810190612f82565b60c0015190506000816000036108135742610815565b815b905060006108278560a001518361154f565b90506301e1338081612710876060015188602001516108469190613090565b61085091906130bd565b61085a9190613090565b61086491906130bd565b955084608001518661087691906130df565b97506127106108876103e8826130f2565b610891908a613090565b61089b91906130bd565b965050505050509193909250565b6106e683838360405180602001604052806000815250610e88565b6099546001600160a01b031633146108ee5760405162461bcd60e51b815260040161064590613105565b6108f78161155b565b50565b60006109068383611362565b9392505050565b6000818152606760205260408120546001600160a01b0316806105125760405162461bcd60e51b8152602060048201526018602482015277115490cdcc8c4e881a5b9d985b1a59081d1bdad95b88125160421b6044820152606401610645565b60006001600160a01b0382166109d75760405162461bcd60e51b815260206004820152602960248201527f4552433732313a2061646472657373207a65726f206973206e6f7420612076616044820152683634b21037bbb732b960b91b6064820152608401610645565b506001600160a01b031660009081526068602052604090205490565b609a546040805163040f1f6d60e11b815290516000926001600160a01b03169163081e3eda9160048083019260209291908290030181865afa158015610a3d573d6000803e3d6000fd5b505050506040513d601f19601f82011682018060405250810190610a619190613132565b905060005b81811015610a8757610a7781610b51565b610a808161314b565b9050610a66565b5050565b6099546000906001600160a01b03163314610ab85760405162461bcd60e51b815260040161064590613105565b610ac38484846115fc565b949350505050565b6099546001600160a01b03163314610af55760405162461bcd60e51b815260040161064590613105565b6000918252609b602090815260409283902082518155908201516001820155918101516002830155606081015160038301556080810151600483015560a0810151600583015560c0810151600683015560e00151600790910155565b609a54604051632f380b3560e01b8152600481018390526000916001600160a01b031690632f380b3590602401600060405180830381865afa158015610b9b573d6000803e3d6000fd5b505050506040513d6000823e601f3d908101601f19168201604052610bc39190810190612f82565b60800151606001518051909150801580610c4f5750609a54604051632f380b3560e01b8152600481018590526001600160a01b0390911690632f380b3590602401600060405180830381865afa158015610c21573d6000803e3d6000fd5b505050506040513d6000823e601f3d908101601f19168201604052610c499190810190612f82565b60e00151155b15610c5957505050565b60005b81811015610c9657610c86838281518110610c7957610c79613164565b602002602001015161193e565b610c8f8161314b565b9050610c5c565b506000838152609c6020908152604080832080548251818502810185019093528083529192909190830182828015610ced57602002820191906000526020600020905b815481526020019060010190808311610cd9575b5050835193945060009250829150505b82811015610d7a576000848281518110610d1957610d19613164565b602002602001015190506000609b60008381526020019081526020016000209050600081600101549050610d508a826001886110e1565b60038301556002820154610d6490866130df565b945050505080610d739061314b565b9050610cfd565b50609a5460405163f247df0960e01b815260048101889052602481018390526001600160a01b039091169063f247df0990604401600060405180830381600087803b158015610dc857600080fd5b505af1158015610ddc573d6000803e3d6000fd5b50505050505050505050565b60606066805461052790612bff565b609c6020528160005260406000208181548110610e1357600080fd5b90600052602060002001600091509150505481565b610a87338383611b57565b600080670de0b6b3a7640000610e5184670928ca80cfc20000613090565b610e5b91906130bd565b610e6d9067016345785d8a00006130df565b9050610906816ec097ce7bc90715b34b9f10000000006130bd565b610e923383611362565b610eae5760405162461bcd60e51b815260040161064590612c39565b610eba84848484611c25565b50505050565b6060610ecb82611295565b6000610ee260408051602081019091526000815290565b90506000815111610f025760405180602001604052806000815250610906565b80610f0c84611c58565b604051602001610f1d92919061317a565b6040516020818303038152906040529392505050565b6001600160a01b0381166000908152606c60209081526040808320805482518185028101850190935280835260609493830182828015610f9257602002820191906000526020600020905b815481526020019060010190808311610f7e575b5050835193945083925050506001600160401b03811115610fb557610fb56128a7565b604051908082528060200260200182016040528015610fee57816020015b610fdb61268d565b815260200190600190039081610fd35790505b50925060005b818110156110b257609b600084838151811061101257611012613164565b60200260200101518152602001908152602001600020604051806101000160405290816000820154815260200160018201548152602001600282015481526020016003820154815260200160048201548152602001600582015481526020016006820154815260200160078201548152505084828151811061109657611096613164565b6020026020010181905250806110ab9061314b565b9050610ff4565b505050919050565b6000670eb5e06245ea00006110d7670de0b6b3a764000084613090565b61051291906130bd565b609a54604051632f380b3560e01b81526004810186905260009182916001600160a01b0390911690632f380b3590602401600060405180830381865afa15801561112f573d6000803e3d6000fd5b505050506040513d6000823e601f3d908101601f191682016040526111579190810190612f82565b905060008415611168575082611170565b506080810151515b600061117c8888611cea565b509050600061118b83836130df565b9050600061119a826021613090565b6111ac90674563918244f400006130df565b905060006111bb856021613090565b6111cd90674563918244f400006130df565b905060006111e26111dd84611d97565b611de0565b905060006111f26111dd84611d97565b905060006112306112036021611d97565b61122a6112108686611e18565b6112246a295be96e64066972000000611d97565b90611e27565b90611e36565b9050600061124188620f4240613090565b61124b90836130bd565b8a5160e00151909150670de0b6b3a76400006112678284613090565b61127191906130bd565b9b505050505050505050505050949350505050565b6001600160a01b03163b151590565b6000818152606760205260409020546001600160a01b03166108f75760405162461bcd60e51b8152602060048201526018602482015277115490cdcc8c4e881a5b9d985b1a59081d1bdad95b88125160421b6044820152606401610645565b600081815260696020526040902080546001600160a01b0319166001600160a01b03841690811790915581906113298261090d565b6001600160a01b03167f8c5be1e5ebec7d5bd14f71427d1e84f3dd0314c0f7b2291e5b200ac8c7c3b92560405160405180910390a45050565b60008061136e8361090d565b9050806001600160a01b0316846001600160a01b031614806113b557506001600160a01b038082166000908152606a602090815260408083209388168352929052205460ff165b80610ac35750836001600160a01b03166113ce846105aa565b6001600160a01b031614949350505050565b826001600160a01b03166113f38261090d565b6001600160a01b0316146114195760405162461bcd60e51b8152600401610645906131a9565b6001600160a01b03821661147b5760405162461bcd60e51b8152602060048201526024808201527f4552433732313a207472616e7366657220746f20746865207a65726f206164646044820152637265737360e01b6064820152608401610645565b611486838383611e4e565b826001600160a01b03166114998261090d565b6001600160a01b0316146114bf5760405162461bcd60e51b8152600401610645906131a9565b600081815260696020908152604080832080546001600160a01b03199081169091556001600160a01b0387811680865260688552838620805460001901905590871680865283862080546001019055868652606790945282852080549092168417909155905184937fddf252ad1be2c89b69c2b068fc378daa952ba7f163c4a11628f55a4df523b3ef91a4505050565b60006109068284611ee4565b60006115668261090d565b905061157481600084611e4e565b61157d8261090d565b600083815260696020908152604080832080546001600160a01b03199081169091556001600160a01b0385168085526068845282852080546000190190558785526067909352818420805490911690555192935084927fddf252ad1be2c89b69c2b068fc378daa952ba7f163c4a11628f55a4df523b3ef908390a45050565b60006001600160a01b0383166116545760405162461bcd60e51b815260206004820152601f60248201527f45524332303a206d696e7420746f20746865207a65726f2061646472657373006044820152606401610645565b600061166385846000806110e1565b9050600061167085611ef0565b905061167a61268d565b8681526020810185905260006116908887611cea565b50609a54604051632f380b3560e01b8152600481018b9052919250674563918244f400009183916001600160a01b031690632f380b3590602401600060405180830381865afa1580156116e7573d6000803e3d6000fd5b505050506040513d6000823e601f3d908101601f1916820160405261170f9190810190612f82565b608001516040015161172191906130df565b11156117655760405162461bcd60e51b81526020600482015260136024820152721608189bdd5b99185c9e481d9a5bdb185d1959606a1b6044820152606401610645565b6040828101828152606084018681524260a086019081526000878152609b60209081528582208851815581890151600180830191909155955160028201559351600385015560808801516004808601919091559251600585015560c0880151600685015560e08801516007909401939093558c8152609c835284812080549485018155815291909120909101859055609a5491516319cd9bbb60e11b81529081018a9052602481018390526001600160a01b039091169063339b377690604401600060405180830381600087803b15801561183f57600080fd5b505af1158015611853573d6000803e3d6000fd5b5050609a54604051632f380b3560e01b8152600481018c90526001600160a01b03909116925063da4ef10791508a908390632f380b3590602401600060405180830381865afa1580156118aa573d6000803e3d6000fd5b505050506040513d6000823e601f3d908101601f191682016040526118d29190810190612f82565b60800151604001516040518363ffffffff1660e01b8152600401611900929190918252602082015260400190565b600060405180830381600087803b15801561191a57600080fd5b505af115801561192e573d6000803e3d6000fd5b50949a9950505050505050505050565b6000818152609b6020908152604080832081516101008101835281548082526001830154828601526002830154828501526003830154606083015260048301546080830152600583015460a0830152600683015460c083015260079092015460e0820152818552609c84528285208054845181870281018701909552808552919592949293929091908301828280156119f657602002820191906000526020600020905b8154815260200190600101908083116119e2575b5050835193945060009250829150505b82811015611a465786848281518110611a2157611a21613164565b602002602001015103611a3657809150611a46565b611a3f8161314b565b9050611a06565b50818110611a965760405162461bcd60e51b815260206004820152601860248201527f546f6b656e206e6f7420666f756e6420696e20617272617900000000000000006044820152606401610645565b805b611aa36001846130f2565b811015611afb5783611ab68260016130df565b81518110611ac657611ac6613164565b6020026020010151848281518110611ae057611ae0613164565b6020908102919091010152611af48161314b565b9050611a98565b506000848152609c602090815260409091208451611b1b928601906126d2565b506000848152609c60205260409020805480611b3957611b396131ee565b60019003818190600052602060002001600090559055505050505050565b816001600160a01b0316836001600160a01b031603611bb85760405162461bcd60e51b815260206004820152601960248201527f4552433732313a20617070726f766520746f2063616c6c6572000000000000006044820152606401610645565b6001600160a01b038381166000818152606a6020908152604080832094871680845294825291829020805460ff191686151590811790915591519182527f17307eab39ab6107e8899845ad3d59bd9653f200f220920489ca2b5937696c31910160405180910390a3505050565b611c308484846113e0565b611c3c848484846120a1565b610eba5760405162461bcd60e51b815260040161064590613204565b60606000611c65836121a2565b60010190506000816001600160401b03811115611c8457611c846128a7565b6040519080825280601f01601f191660200182016040528015611cae576020820181803683370190505b5090508181016020015b600019016f181899199a1a9b1b9c1cb0b131b232b360811b600a86061a8153600a8504945084611cb857509392505050565b609a54604051632f380b3560e01b81526004810184905260009182916001600160a01b0390911690632f380b3590602401600060405180830381865afa158015611d38573d6000803e3d6000fd5b505050506040513d6000823e601f3d908101601f19168201604052611d609190810190612f82565b5160a00151611d77670de0b6b3a764000085613090565b611d8191906130bd565b9050611d8e816005613090565b91509250929050565b6000611dad670de0b6b3a76400006000196130bd565b821115611dd0576040516322630c4560e01b815260048101839052602401610645565b670de0b6b3a76400008202610512565b60006105126714057b7ef767814f670de0b6b3a7640000611e06611e038661227a565b90565b0281611e1457611e146130a7565b0490565b6000610906611e0383856130f2565b6000610906611e0384846123af565b6000610906611e0384670de0b6b3a764000085612463565b816001600160a01b0316836001600160a01b031614158015611e7857506001600160a01b03831615155b15611e8757611e878382612537565b826001600160a01b0316826001600160a01b031614158015611eb157506001600160a01b03821615155b156106e6576001600160a01b03919091166000908152606c60209081526040822080546001810182559083529120015550565b600061090682846130f2565b600080606b60008154611f029061314b565b918290555090506001600160a01b038316611f5f5760405162461bcd60e51b815260206004820181905260248201527f4552433732313a206d696e7420746f20746865207a65726f20616464726573736044820152606401610645565b6000818152606760205260409020546001600160a01b031615611fc45760405162461bcd60e51b815260206004820152601c60248201527f4552433732313a20746f6b656e20616c7265616479206d696e746564000000006044820152606401610645565b611fd060008483611e4e565b6000818152606760205260409020546001600160a01b0316156120355760405162461bcd60e51b815260206004820152601c60248201527f4552433732313a20746f6b656e20616c7265616479206d696e746564000000006044820152606401610645565b6001600160a01b038316600081815260686020908152604080832080546001019055848352606790915280822080546001600160a01b0319168417905551839291907fddf252ad1be2c89b69c2b068fc378daa952ba7f163c4a11628f55a4df523b3ef908290a4610512565b60006001600160a01b0384163b1561219757604051630a85bd0160e11b81526001600160a01b0385169063150b7a02906120e5903390899088908890600401613256565b6020604051808303816000875af1925050508015612120575060408051601f3d908101601f1916820190925261211d91810190613289565b60015b61217d573d80801561214e576040519150601f19603f3d011682016040523d82523d6000602084013e612153565b606091505b5080516000036121755760405162461bcd60e51b815260040161064590613204565b805181602001fd5b6001600160e01b031916630a85bd0160e11b149050610ac3565b506001949350505050565b60008072184f03e93ff9f4daa797ed6e38ed64bf6a1f0160401b83106121e15772184f03e93ff9f4daa797ed6e38ed64bf6a1f0160401b830492506040015b6d04ee2d6d415b85acef8100000000831061220d576d04ee2d6d415b85acef8100000000830492506020015b662386f26fc10000831061222b57662386f26fc10000830492506010015b6305f5e1008310612243576305f5e100830492506008015b612710831061225757612710830492506004015b60648310612269576064830492506002015b600a83106105125760010192915050565b600081670de0b6b3a76400008110156122a957604051633621413760e21b815260048101849052602401610645565b6000612334670de0b6b3a7640000830460016fffffffffffffffffffffffffffffffff821160071b91821c6001600160401b03811160061b90811c63ffffffff811160051b90811c61ffff811160041b90811c60ff8111600390811b91821c600f811160021b90811c918211871b91821c969096119490961792909217171791909117919091171790565b9050670de0b6b3a7640000810282821c670de0b6b3a763ffff19810161236057815b9695505050505050565b671bc16d674ec800006706f05b59d3b200005b80156123a357670de0b6b3a764000083800204925081831061239b579283019260019290921c915b60011c612373565b50919695505050505050565b60008080600019848609848602925082811083820303915050670de0b6b3a764000081106123fa5760405163090638d560e41b81526004810186905260248101859052604401610645565b6000670de0b6b3a7640000858709905081600003612426575050670de0b6b3a764000090049050610512565b620400008184030492109003600160ee1b02177faccb18165bd6fe31ae1cf318dc5b51eee0e1ba569b88cd74c1773b91fac1066902905092915050565b600080806000198587098587029250828110838203039150508060000361249d57838281612493576124936130a7565b0492505050610906565b8381106124ce576040516307639aaf60e41b8152600481018790526024810186905260448101859052606401610645565b60008486880960026001871981018816978890046003810283188082028403028082028403028082028403028082028403028082028403029081029092039091026000889003889004909101858311909403939093029303949094049190911702949350505050565b6001600160a01b0382166000908152606c602090815260408083208054825181850281018501909352808352919290919083018282801561259757602002820191906000526020600020905b815481526020019060010190808311612583575b505083519394506000925050505b8181101561268657838382815181106125c0576125c0613164565b60200260200101510361267657826125d96001846130f2565b815181106125e9576125e9613164565b602002602001015183828151811061260357612603613164565b6020908102919091018101919091526001600160a01b0386166000908152606c8252604090208451612637928601906126d2565b506001600160a01b0385166000908152606c6020526040902080548061265f5761265f6131ee565b600190038181906000526020600020016000905590555b61267f8161314b565b90506125a5565b5050505050565b60405180610100016040528060008152602001600081526020016000815260200160008152602001600081526020016000815260200160008152602001600081525090565b82805482825590600052602060002090810192821561270d579160200282015b8281111561270d5782518255916020019190600101906126f2565b5061271992915061271d565b5090565b5b80821115612719576000815560010161271e565b6001600160e01b0319811681146108f757600080fd5b60006020828403121561275a57600080fd5b813561090681612732565b60005b83811015612780578181015183820152602001612768565b50506000910152565b600081518084526127a1816020860160208601612765565b601f01601f19169290920160200192915050565b6020815260006109066020830184612789565b6000602082840312156127da57600080fd5b5035919050565b6001600160a01b03811681146108f757600080fd5b6000806040838503121561280957600080fd5b8235612814816127e1565b946020939093013593505050565b60008060006060848603121561283757600080fd5b8335612842816127e1565b92506020840135612852816127e1565b929592945050506040919091013590565b60006020828403121561287557600080fd5b8135610906816127e1565b60008060006060848603121561289557600080fd5b833592506020840135612852816127e1565b634e487b7160e01b600052604160045260246000fd5b60405161010081016001600160401b03811182821017156128e0576128e06128a7565b60405290565b604051608081016001600160401b03811182821017156128e0576128e06128a7565b604051601f8201601f191681016001600160401b0381118282101715612930576129306128a7565b604052919050565b60008082840361012081121561294d57600080fd5b8335925061010080601f198301121561296557600080fd5b61296d6128bd565b91506020850135825260408501356020830152606085013560408301526080850135606083015260a0850135608083015260c085013560a083015260e085013560c08301528085013560e083015250809150509250929050565b600080604083850312156129da57600080fd5b50508035926020909101359150565b80151581146108f757600080fd5b60008060408385031215612a0a57600080fd5b8235612a15816127e1565b91506020830135612a25816129e9565b809150509250929050565b60006001600160401b03821115612a4957612a496128a7565b50601f01601f191660200190565b60008060008060808587031215612a6d57600080fd5b8435612a78816127e1565b93506020850135612a88816127e1565b92506040850135915060608501356001600160401b03811115612aaa57600080fd5b8501601f81018713612abb57600080fd5b8035612ace612ac982612a30565b612908565b818152886020838501011115612ae357600080fd5b8160208401602083013760006020838301015280935050505092959194509250565b60008060408385031215612b1857600080fd5b8235612b23816127e1565b91506020830135612a25816127e1565b602080825282518282018190526000919060409081850190868401855b82811015612bb35781518051855286810151878601528581015186860152606080820151908601526080808201519086015260a0808201519086015260c0808201519086015260e090810151908501526101009093019290850190600101612b50565b5091979650505050505050565b60008060008060808587031215612bd657600080fd5b84359350602085013592506040850135612bef816129e9565b9396929550929360600135925050565b600181811c90821680612c1357607f821691505b602082108103612c3357634e487b7160e01b600052602260045260246000fd5b50919050565b6020808252602d908201527f4552433732313a2063616c6c6572206973206e6f7420746f6b656e206f776e6560408201526c1c881bdc88185c1c1c9bdd9959609a1b606082015260800190565b8051612c91816127e1565b919050565b805160ff81168114612c9157600080fd5b805161ffff81168114612c9157600080fd5b600082601f830112612cca57600080fd5b8151612cd8612ac982612a30565b818152846020838601011115612ced57600080fd5b610ac3826020830160208701612765565b60006101008284031215612d1157600080fd5b612d196128bd565b9050612d2482612c86565b8152612d3260208301612c96565b6020820152612d4360408301612ca7565b6040820152612d5460608301612c86565b606082015260808201516001600160401b03811115612d7257600080fd5b612d7e84828501612cb9565b60808301525060a082015160a082015260c082015160c082015260e082015160e082015292915050565b600060408284031215612dba57600080fd5b604051604081018181106001600160401b0382111715612ddc57612ddc6128a7565b604052825181526020928301519281019290925250919050565b8051612c91816129e9565b600060808284031215612e1357600080fd5b612e1b6128e6565b90508151815260208201516020820152604082015160408201526060820151612e43816129e9565b606082015292915050565b600060808284031215612e6057600080fd5b612e686128e6565b905081518152602080830151818301526040830151604083015260608301516001600160401b0380821115612e9c57600080fd5b818501915085601f830112612eb057600080fd5b815181811115612ec257612ec26128a7565b8060051b9150612ed3848301612908565b8181529183018401918481019088841115612eed57600080fd5b938501935b83851015612f0b57845182529385019390850190612ef2565b606087015250939695505050505050565b600060608284031215612f2e57600080fd5b604051606081018181106001600160401b0382111715612f5057612f506128a7565b80604052508091508251612f63816127e1565b8082525060208301516020820152604083015160408201525092915050565b600060208284031215612f9457600080fd5b81516001600160401b0380821115612fab57600080fd5b908301906101e08286031215612fc057600080fd5b612fc86128bd565b825182811115612fd757600080fd5b612fe387828601612cfe565b825250612ff38660208501612da8565b60208201526130058660608501612da8565b60408201526130178660a08501612e01565b60608201526101208301518281111561302f57600080fd5b61303b87828601612e4e565b60808301525061304f866101408501612f1c565b60a08201526101a083015160c082015261306c6101c08401612df6565b60e082015295945050505050565b634e487b7160e01b600052601160045260246000fd5b80820281158282048414176105125761051261307a565b634e487b7160e01b600052601260045260246000fd5b6000826130da57634e487b7160e01b600052601260045260246000fd5b500490565b808201808211156105125761051261307a565b818103818111156105125761051261307a565b60208082526013908201527214d0950e881b9bdd08185d5d1a1bdc9a5e9959606a1b604082015260600190565b60006020828403121561314457600080fd5b5051919050565b60006001820161315d5761315d61307a565b5060010190565b634e487b7160e01b600052603260045260246000fd5b6000835161318c818460208801612765565b8351908301906131a0818360208801612765565b01949350505050565b60208082526025908201527f4552433732313a207472616e736665722066726f6d20696e636f72726563742060408201526437bbb732b960d91b606082015260800190565b634e487b7160e01b600052603160045260246000fd5b60208082526032908201527f4552433732313a207472616e7366657220746f206e6f6e20455243373231526560408201527131b2b4bb32b91034b6b83632b6b2b73a32b960711b606082015260800190565b6001600160a01b038581168252841660208201526040810183905260806060820181905260009061235690830184612789565b60006020828403121561329b57600080fd5b81516109068161273256fea2646970667358221220204f232e7d9a92782d268f03a2844a9aa95e25567472c4eb6b7e0f8e4725e90d64736f6c63430008110033496e697469616c697a61626c653a20636f6e7472616374206973206e6f742069",
    "linkReferences": {}
  },
  "methodIdentifiers": {
    "approve(address,uint256)": "095ea7b3",
    "balanceOf(address)": "70a08231",
    "burn(uint256)": "42966c68",
    "calculateEffectiveAPY(uint256,uint256,bool,uint256)": "fb2f4352",
    "calculateScalingMultiplier(uint256)": "f2eb7c67",
    "consolidate(uint256)": "949a4a4a",
    "consolidateAll()": "75bfd63d",
    "curveImplementation(uint256)": "b0af534b",
    "getAllTokensByOwner(address)": "e9fda7d4",
    "getApproved(uint256)": "081812fc",
    "index()": "2986c0e5",
    "isApprovedForAll(address,address)": "e985e9c5",
    "isApprovedOrOwner(address,uint256)": "430c2081",
    "mint(uint256,address,uint256)": "836a1040",
    "name()": "06fdde03",
    "nftInfo(uint256)": "1f8bc790",
    "owner()": "8da5cb5b",
    "ownerOf(uint256)": "6352211e",
    "pendingPremium(uint256)": "40bd1d00",
    "pidNFTList(uint256,uint256)": "96ea48e8",
    "safeTransferFrom(address,address,uint256)": "42842e0e",
    "safeTransferFrom(address,address,uint256,bytes)": "b88d4fde",
    "setApprovalForAll(address,bool)": "a22cb465",
    "supportsInterface(bytes4)": "01ffc9a7",
    "symbol()": "95d89b41",
    "tokenURI(uint256)": "c87b56dd",
    "transferFrom(address,address,uint256)": "23b872dd",
    "updateToken(uint256,(uint256,uint256,uint256,uint256,uint256,uint256,uint256,uint256))": "8622ea5d"
  },
  "id": 42
}