{
  "abi": [
    {
      "inputs": [],
      "stateMutability": "nonpayable",
      "type": "constructor"
    },
    {
      "inputs": [
        {
          "internalType": "UD60x18",
          "name": "x",
          "type": "uint256"
        }
      ],
      "name": "PRBMathUD60x18__LogInputTooSmall",
      "type": "error"
    },
    {
      "inputs": [
        {
          "internalType": "uint256",
          "name": "x",
          "type": "uint256"
        }
      ],
      "name": "PRBMathUD60x18__ToUD60x18Overflow",
      "type": "error"
    },
    {
      "inputs": [
        {
          "internalType": "uint256",
          "name": "x",
          "type": "uint256"
        },
        {
          "internalType": "uint256",
          "name": "y",
          "type": "uint256"
        }
      ],
      "name": "PRBMath__MulDiv18Overflow",
      "type": "error"
    },
    {
      "inputs": [
        {
          "internalType": "uint256",
          "name": "x",
          "type": "uint256"
        },
        {
          "internalType": "uint256",
          "name": "y",
          "type": "uint256"
        },
        {
          "internalType": "uint256",
          "name": "denominator",
          "type": "uint256"
        }
      ],
      "name": "PRBMath__MulDivOverflow",
      "type": "error"
    },
    {
      "anonymous": false,
      "inputs": [
        {
          "indexed": true,
          "internalType": "address",
          "name": "owner",
          "type": "address"
        },
        {
          "indexed": true,
          "internalType": "address",
          "name": "approved",
          "type": "address"
        },
        {
          "indexed": true,
          "internalType": "uint256",
          "name": "tokenId",
          "type": "uint256"
        }
      ],
      "name": "Approval",
      "type": "event"
    },
    {
      "anonymous": false,
      "inputs": [
        {
          "indexed": true,
          "internalType": "address",
          "name": "owner",
          "type": "address"
        },
        {
          "indexed": true,
          "internalType": "address",
          "name": "operator",
          "type": "address"
        },
        {
          "indexed": false,
          "internalType": "bool",
          "name": "approved",
          "type": "bool"
        }
      ],
      "name": "ApprovalForAll",
      "type": "event"
    },
    {
      "anonymous": false,
      "inputs": [
        {
          "indexed": true,
          "internalType": "uint256",
          "name": "pid",
          "type": "uint256"
        },
        {
          "indexed": false,
          "internalType": "uint256",
          "name": "oldAmount",
          "type": "uint256"
        },
        {
          "indexed": false,
          "internalType": "uint256",
          "name": "newAmount",
          "type": "uint256"
        }
      ],
      "name": "BountyBalanceChanged",
      "type": "event"
    },
    {
      "anonymous": false,
      "inputs": [
        {
          "indexed": true,
          "internalType": "address",
          "name": "hunter",
          "type": "address"
        },
        {
          "indexed": true,
          "internalType": "address",
          "name": "token",
          "type": "address"
        },
        {
          "indexed": false,
          "internalType": "uint256",
          "name": "amount",
          "type": "uint256"
        }
      ],
      "name": "BountyPaid",
      "type": "event"
    },
    {
      "anonymous": false,
      "inputs": [
        {
          "indexed": false,
          "internalType": "uint8",
          "name": "version",
          "type": "uint8"
        }
      ],
      "name": "Initialized",
      "type": "event"
    },
    {
      "anonymous": false,
      "inputs": [
        {
          "indexed": true,
          "internalType": "uint256",
          "name": "pid",
          "type": "uint256"
        },
        {
          "indexed": true,
          "internalType": "address",
          "name": "token",
          "type": "address"
        },
        {
          "indexed": false,
          "internalType": "uint256",
          "name": "tokenDecimals",
          "type": "uint256"
        }
      ],
      "name": "NewBountyDeployed",
      "type": "event"
    },
    {
      "anonymous": false,
      "inputs": [
        {
          "indexed": true,
          "internalType": "uint256",
          "name": "pid",
          "type": "uint256"
        },
        {
          "indexed": false,
          "internalType": "uint256",
          "name": "amount",
          "type": "uint256"
        }
      ],
      "name": "PremiumBilled",
      "type": "event"
    },
    {
      "anonymous": false,
      "inputs": [
        {
          "indexed": true,
          "internalType": "address",
          "name": "user",
          "type": "address"
        },
        {
          "indexed": true,
          "internalType": "uint256",
          "name": "pid",
          "type": "uint256"
        },
        {
          "indexed": false,
          "internalType": "uint256",
          "name": "amount",
          "type": "uint256"
        }
      ],
      "name": "Staked",
      "type": "event"
    },
    {
      "anonymous": false,
      "inputs": [
        {
          "indexed": true,
          "internalType": "address",
          "name": "from",
          "type": "address"
        },
        {
          "indexed": true,
          "internalType": "address",
          "name": "to",
          "type": "address"
        },
        {
          "indexed": true,
          "internalType": "uint256",
          "name": "tokenId",
          "type": "uint256"
        }
      ],
      "name": "Transfer",
      "type": "event"
    },
    {
      "anonymous": false,
      "inputs": [
        {
          "indexed": true,
          "internalType": "address",
          "name": "user",
          "type": "address"
        },
        {
          "indexed": true,
          "internalType": "uint256",
          "name": "pid",
          "type": "uint256"
        },
        {
          "indexed": false,
          "internalType": "uint256",
          "name": "amount",
          "type": "uint256"
        }
      ],
      "name": "Unstaked",
      "type": "event"
    },
    {
      "anonymous": false,
      "inputs": [
        {
          "indexed": true,
          "internalType": "uint256",
          "name": "pid",
          "type": "uint256"
        },
        {
          "indexed": false,
          "internalType": "uint256",
          "name": "amount",
          "type": "uint256"
        }
      ],
      "name": "WithdrawalOrUnstakeScheduled",
      "type": "event"
    },
    {
      "anonymous": false,
      "inputs": [
        {
          "indexed": true,
          "internalType": "address",
          "name": "referrer",
          "type": "address"
        },
        {
          "indexed": false,
          "internalType": "uint256",
          "name": "amount",
          "type": "uint256"
        }
      ],
      "name": "referralPaid",
      "type": "event"
    },
    {
      "anonymous": false,
      "inputs": [
        {
          "indexed": true,
          "internalType": "address",
          "name": "token",
          "type": "address"
        },
        {
          "indexed": true,
          "internalType": "bool",
          "name": "whitelisted",
          "type": "bool"
        }
      ],
      "name": "tokenWhitelistUpdated",
      "type": "event"
    },
    {
      "inputs": [
        {
          "internalType": "address",
          "name": "to",
          "type": "address"
        },
        {
          "internalType": "uint256",
          "name": "tokenId",
          "type": "uint256"
        }
      ],
      "name": "approve",
      "outputs": [],
      "stateMutability": "nonpayable",
      "type": "function"
    },
    {
      "inputs": [
        {
          "internalType": "address",
          "name": "owner",
          "type": "address"
        }
      ],
      "name": "balanceOf",
      "outputs": [
        {
          "internalType": "uint256",
          "name": "",
          "type": "uint256"
        }
      ],
      "stateMutability": "view",
      "type": "function"
    },
    {
      "inputs": [
        {
          "internalType": "uint256",
          "name": "_pid",
          "type": "uint256"
        },
        {
          "internalType": "uint256",
          "name": "_stake",
          "type": "uint256"
        },
        {
          "internalType": "uint256",
          "name": "_memX",
          "type": "uint256"
        }
      ],
      "name": "calculateArbitraryEffectiveAPY",
      "outputs": [
        {
          "internalType": "uint256",
          "name": "scaledAPY",
          "type": "uint256"
        }
      ],
      "stateMutability": "view",
      "type": "function"
    },
    {
      "inputs": [
        {
          "internalType": "uint256",
          "name": "_pid",
          "type": "uint256"
        },
        {
          "internalType": "uint256",
          "name": "_stake",
          "type": "uint256"
        }
      ],
      "name": "calculateEffectiveAPY",
      "outputs": [
        {
          "internalType": "uint256",
          "name": "scaledAPY",
          "type": "uint256"
        }
      ],
      "stateMutability": "view",
      "type": "function"
    },
    {
      "inputs": [
        {
          "internalType": "uint256",
          "name": "_pid",
          "type": "uint256"
        }
      ],
      "name": "consolidate",
      "outputs": [],
      "stateMutability": "nonpayable",
      "type": "function"
    },
    {
      "inputs": [],
      "name": "consolidateAll",
      "outputs": [],
      "stateMutability": "nonpayable",
      "type": "function"
    },
    {
      "inputs": [
        {
          "internalType": "address",
          "name": "owner",
          "type": "address"
        }
      ],
      "name": "getAllTokensByOwner",
      "outputs": [
        {
          "components": [
            {
              "internalType": "uint256",
              "name": "pid",
              "type": "uint256"
            },
            {
              "internalType": "uint256",
              "name": "amount",
              "type": "uint256"
            },
            {
              "internalType": "uint256",
              "name": "xDelta",
              "type": "uint256"
            },
            {
              "internalType": "uint256",
              "name": "apy",
              "type": "uint256"
            },
            {
              "internalType": "uint256",
              "name": "unclaimed",
              "type": "uint256"
            },
            {
              "internalType": "uint256",
              "name": "lastClaimedTime",
              "type": "uint256"
            },
            {
              "internalType": "uint256",
              "name": "timelock",
              "type": "uint256"
            },
            {
              "internalType": "uint256",
              "name": "timelimit",
              "type": "uint256"
            }
          ],
          "internalType": "struct BountyTokenNFT.NFTInfo[]",
          "name": "userTokens",
          "type": "tuple[]"
        }
      ],
      "stateMutability": "view",
      "type": "function"
    },
    {
      "inputs": [
        {
          "internalType": "uint256",
          "name": "tokenId",
          "type": "uint256"
        }
      ],
      "name": "getApproved",
      "outputs": [
        {
          "internalType": "address",
          "name": "",
          "type": "address"
        }
      ],
      "stateMutability": "view",
      "type": "function"
    },
    {
      "inputs": [
        {
          "internalType": "uint256",
          "name": "_pid",
          "type": "uint256"
        }
      ],
      "name": "getCurrentAPY",
      "outputs": [
        {
          "internalType": "uint256",
          "name": "currentAPY",
          "type": "uint256"
        }
      ],
      "stateMutability": "view",
      "type": "function"
    },
    {
      "inputs": [],
      "name": "index",
      "outputs": [
        {
          "internalType": "uint256",
          "name": "",
          "type": "uint256"
        }
      ],
      "stateMutability": "view",
      "type": "function"
    },
    {
      "inputs": [
        {
          "internalType": "address",
          "name": "owner",
          "type": "address"
        },
        {
          "internalType": "address",
          "name": "operator",
          "type": "address"
        }
      ],
      "name": "isApprovedForAll",
      "outputs": [
        {
          "internalType": "bool",
          "name": "",
          "type": "bool"
        }
      ],
      "stateMutability": "view",
      "type": "function"
    },
    {
      "inputs": [],
      "name": "name",
      "outputs": [
        {
          "internalType": "string",
          "name": "",
          "type": "string"
        }
      ],
      "stateMutability": "view",
      "type": "function"
    },
    {
      "inputs": [
        {
          "internalType": "uint256",
          "name": "",
          "type": "uint256"
        }
      ],
      "name": "nftInfo",
      "outputs": [
        {
          "internalType": "uint256",
          "name": "pid",
          "type": "uint256"
        },
        {
          "internalType": "uint256",
          "name": "amount",
          "type": "uint256"
        },
        {
          "internalType": "uint256",
          "name": "xDelta",
          "type": "uint256"
        },
        {
          "internalType": "uint256",
          "name": "apy",
          "type": "uint256"
        },
        {
          "internalType": "uint256",
          "name": "unclaimed",
          "type": "uint256"
        },
        {
          "internalType": "uint256",
          "name": "lastClaimedTime",
          "type": "uint256"
        },
        {
          "internalType": "uint256",
          "name": "timelock",
          "type": "uint256"
        },
        {
          "internalType": "uint256",
          "name": "timelimit",
          "type": "uint256"
        }
      ],
      "stateMutability": "view",
      "type": "function"
    },
    {
      "inputs": [
        {
          "internalType": "uint256",
          "name": "",
          "type": "uint256"
        }
      ],
      "name": "nftToPid",
      "outputs": [
        {
          "internalType": "uint256",
          "name": "",
          "type": "uint256"
        }
      ],
      "stateMutability": "view",
      "type": "function"
    },
    {
      "inputs": [
        {
          "internalType": "uint256",
          "name": "tokenId",
          "type": "uint256"
        }
      ],
      "name": "ownerOf",
      "outputs": [
        {
          "internalType": "address",
          "name": "",
          "type": "address"
        }
      ],
      "stateMutability": "view",
      "type": "function"
    },
    {
      "inputs": [
        {
          "internalType": "uint256",
          "name": "",
          "type": "uint256"
        },
        {
          "internalType": "uint256",
          "name": "",
          "type": "uint256"
        }
      ],
      "name": "pidNFTList",
      "outputs": [
        {
          "internalType": "uint256",
          "name": "",
          "type": "uint256"
        }
      ],
      "stateMutability": "view",
      "type": "function"
    },
    {
      "inputs": [
        {
          "internalType": "uint256",
          "name": "",
          "type": "uint256"
        }
      ],
      "name": "poolInfo",
      "outputs": [
        {
          "components": [
            {
              "internalType": "contract IERC20",
              "name": "token",
              "type": "address"
            },
            {
              "internalType": "uint8",
              "name": "tokenDecimals",
              "type": "uint8"
            },
            {
              "internalType": "uint16",
              "name": "apy",
              "type": "uint16"
            },
            {
              "internalType": "address",
              "name": "projectWallet",
              "type": "address"
            },
            {
              "internalType": "string",
              "name": "projectName",
              "type": "string"
            },
            {
              "internalType": "uint256",
              "name": "poolCap",
              "type": "uint256"
            },
            {
              "internalType": "uint256",
              "name": "totalStaked",
              "type": "uint256"
            },
            {
              "internalType": "uint256",
              "name": "scalingMultiplier",
              "type": "uint256"
            }
          ],
          "internalType": "struct ISaloon.GeneralInfo",
          "name": "generalInfo",
          "type": "tuple"
        },
        {
          "components": [
            {
              "internalType": "uint256",
              "name": "projectDepositHeld",
              "type": "uint256"
            },
            {
              "internalType": "uint256",
              "name": "projectDepositInStrategy",
              "type": "uint256"
            }
          ],
          "internalType": "struct ISaloon.DepositInfo",
          "name": "depositInfo",
          "type": "tuple"
        },
        {
          "components": [
            {
              "internalType": "uint256",
              "name": "premiumBalance",
              "type": "uint256"
            },
            {
              "internalType": "uint256",
              "name": "premiumAvailable",
              "type": "uint256"
            }
          ],
          "internalType": "struct ISaloon.PremiumInfo",
          "name": "premiumInfo",
          "type": "tuple"
        },
        {
          "components": [
            {
              "internalType": "uint256",
              "name": "timelock",
              "type": "uint256"
            },
            {
              "internalType": "uint256",
              "name": "timeLimit",
              "type": "uint256"
            },
            {
              "internalType": "uint256",
              "name": "withdrawalScheduledAmount",
              "type": "uint256"
            },
            {
              "internalType": "bool",
              "name": "withdrawalExecuted",
              "type": "bool"
            }
          ],
          "internalType": "struct ISaloon.TimelockInfo",
          "name": "poolTimelock",
          "type": "tuple"
        },
        {
          "components": [
            {
              "internalType": "uint256",
              "name": "currentX",
              "type": "uint256"
            },
            {
              "internalType": "uint256",
              "name": "currentY",
              "type": "uint256"
            },
            {
              "internalType": "uint256",
              "name": "totalSupply",
              "type": "uint256"
            },
            {
              "internalType": "uint256[]",
              "name": "unstakedTokens",
              "type": "uint256[]"
            }
          ],
          "internalType": "struct ISaloon.CurveInfo",
          "name": "curveInfo",
          "type": "tuple"
        },
        {
          "components": [
            {
              "internalType": "address",
              "name": "referrer",
              "type": "address"
            },
            {
              "internalType": "uint256",
              "name": "referralFee",
              "type": "uint256"
            },
            {
              "internalType": "uint256",
              "name": "endTime",
              "type": "uint256"
            }
          ],
          "internalType": "struct ISaloon.ReferralInfo",
          "name": "referralInfo",
          "type": "tuple"
        },
        {
          "internalType": "uint256",
          "name": "freezeTime",
          "type": "uint256"
        },
        {
          "internalType": "bool",
          "name": "isActive",
          "type": "bool"
        }
      ],
      "stateMutability": "view",
      "type": "function"
    },
    {
      "inputs": [
        {
          "internalType": "address",
          "name": "_token",
          "type": "address"
        },
        {
          "internalType": "uint256",
          "name": "_amount",
          "type": "uint256"
        }
      ],
      "name": "receiveStrategyYield",
      "outputs": [],
      "stateMutability": "nonpayable",
      "type": "function"
    },
    {
      "inputs": [
        {
          "internalType": "address",
          "name": "from",
          "type": "address"
        },
        {
          "internalType": "address",
          "name": "to",
          "type": "address"
        },
        {
          "internalType": "uint256",
          "name": "tokenId",
          "type": "uint256"
        }
      ],
      "name": "safeTransferFrom",
      "outputs": [],
      "stateMutability": "nonpayable",
      "type": "function"
    },
    {
      "inputs": [
        {
          "internalType": "address",
          "name": "from",
          "type": "address"
        },
        {
          "internalType": "address",
          "name": "to",
          "type": "address"
        },
        {
          "internalType": "uint256",
          "name": "tokenId",
          "type": "uint256"
        },
        {
          "internalType": "bytes",
          "name": "data",
          "type": "bytes"
        }
      ],
      "name": "safeTransferFrom",
      "outputs": [],
      "stateMutability": "nonpayable",
      "type": "function"
    },
    {
      "inputs": [
        {
          "internalType": "address",
          "name": "operator",
          "type": "address"
        },
        {
          "internalType": "bool",
          "name": "approved",
          "type": "bool"
        }
      ],
      "name": "setApprovalForAll",
      "outputs": [],
      "stateMutability": "nonpayable",
      "type": "function"
    },
    {
      "inputs": [
        {
          "internalType": "bytes4",
          "name": "interfaceId",
          "type": "bytes4"
        }
      ],
      "name": "supportsInterface",
      "outputs": [
        {
          "internalType": "bool",
          "name": "",
          "type": "bool"
        }
      ],
      "stateMutability": "view",
      "type": "function"
    },
    {
      "inputs": [],
      "name": "symbol",
      "outputs": [
        {
          "internalType": "string",
          "name": "",
          "type": "string"
        }
      ],
      "stateMutability": "view",
      "type": "function"
    },
    {
      "inputs": [
        {
          "internalType": "uint256",
          "name": "tokenId",
          "type": "uint256"
        }
      ],
      "name": "tokenURI",
      "outputs": [
        {
          "internalType": "string",
          "name": "",
          "type": "string"
        }
      ],
      "stateMutability": "view",
      "type": "function"
    },
    {
      "inputs": [
        {
          "internalType": "address",
          "name": "from",
          "type": "address"
        },
        {
          "internalType": "address",
          "name": "to",
          "type": "address"
        },
        {
          "internalType": "uint256",
          "name": "tokenId",
          "type": "uint256"
        }
      ],
      "name": "transferFrom",
      "outputs": [],
      "stateMutability": "nonpayable",
      "type": "function"
    }
  ],
  "bytecode": {
    "object": "0x60806040523480156200001157600080fd5b50600054610100900460ff1615808015620000335750600054600160ff909116105b8062000063575062000050306200018e60201b62001b5c1760201c565b15801562000063575060005460ff166001145b620000cc5760405162461bcd60e51b815260206004820152602e60248201527f496e697469616c697a61626c653a20636f6e747261637420697320616c72656160448201526d191e481a5b9a5d1a585b1a5e995960921b60648201526084015b60405180910390fd5b6000805460ff191660011790558015620000f0576000805461ff0019166101001790555b620001406040518060400160405280600b81526020016a2137bab73a3caa37b5b2b760a91b8152506040518060400160405280600381526020016210951560ea1b8152506200019d60201b60201c565b801562000187576000805461ff0019169055604051600181527f7f26b83ff96e1f2b6a682f133852f6798a09c465da95921460cefb38474024989060200160405180910390a15b50620003f7565b6001600160a01b03163b151590565b600054610100900460ff16620001f95760405162461bcd60e51b815260206004820152602b60248201526000805160206200358083398151915260448201526a6e697469616c697a696e6760a81b6064820152608401620000c3565b62000205828262000209565b5050565b600054610100900460ff16620002655760405162461bcd60e51b815260206004820152602b60248201526000805160206200358083398151915260448201526a6e697469616c697a696e6760a81b6064820152608401620000c3565b60656200027383826200032b565b5060666200028282826200032b565b505050565b634e487b7160e01b600052604160045260246000fd5b600181811c90821680620002b257607f821691505b602082108103620002d357634e487b7160e01b600052602260045260246000fd5b50919050565b601f8211156200028257600081815260208120601f850160051c81016020861015620003025750805b601f850160051c820191505b8181101562000323578281556001016200030e565b505050505050565b81516001600160401b0381111562000347576200034762000287565b6200035f816200035884546200029d565b84620002d9565b602080601f8311600181146200039757600084156200037e5750858301515b600019600386901b1c1916600185901b17855562000323565b600085815260208120601f198616915b82811015620003c857888601518255948401946001909101908401620003a7565b5085821015620003e75787850151600019600388901b60f8161c191681555b5050505050600190811b01905550565b61317980620004076000396000f3fe608060405234801561001057600080fd5b50600436106101735760003560e01c8063612afc0c116100de57806395d89b4111610097578063b88d4fde11610071578063b88d4fde146103bf578063c87b56dd146103d2578063e985e9c5146103e5578063e9fda7d4146103f857600080fd5b806395d89b411461039157806396ea48e814610399578063a22cb465146103ac57600080fd5b8063612afc0c1461031d5780636352211e1461033d57806370a082311461035057806375bfd63d146103635780637fbf38531461036b578063949a4a4a1461037e57600080fd5b80631f8bc790116101305780631f8bc7901461022e57806323b872dd146102ba5780632986c0e5146102cd57806342842e0e146102e45780634f3214cc146102f75780635c46f7b11461030a57600080fd5b806301ffc9a71461017857806306fdde03146101a0578063081812fc146101b5578063095ea7b3146101e05780631526fe27146101f55780631aebcecb1461021c575b600080fd5b61018b6101863660046129be565b610418565b60405190151581526020015b60405180910390f35b6101a861046a565b6040516101979190612a2b565b6101c86101c3366004612a3e565b6104fc565b6040516001600160a01b039091168152602001610197565b6101f36101ee366004612a73565b610523565b005b610208610203366004612a3e565b61063d565b604051610197989796959493929190612b08565b6101f361022a366004612a73565b5050565b61027f61023c366004612a3e565b609b602052600090815260409020805460018201546002830154600384015460048501546005860154600687015460079097015495969495939492939192909188565b604080519889526020890197909752958701949094526060860192909252608085015260a084015260c083015260e082015261010001610197565b6101f36102c8366004612c43565b610899565b6102d6606b5481565b604051908152602001610197565b6101f36102f2366004612c43565b6108ca565b6102d6610305366004612c7f565b6108e5565b6102d6610318366004612cab565b610cd4565b6102d661032b366004612a3e565b609a6020526000908152604090205481565b6101c861034b366004612a3e565b611096565b6102d661035e366004612ccd565b6110f6565b6101f361117c565b6102d6610379366004612a3e565b6111a3565b6101f361038c366004612a3e565b6114a6565b6101a86118f2565b6102d66103a7366004612cab565b611901565b6101f36103ba366004612ce8565b611932565b6101f36103cd366004612d3a565b61193d565b6101a86103e0366004612a3e565b611975565b61018b6103f3366004612e16565b6119e9565b61040b610406366004612ccd565b611a17565b6040516101979190612e49565b60006001600160e01b031982166380ac58cd60e01b148061044957506001600160e01b03198216635b5e139f60e01b145b8061046457506301ffc9a760e01b6001600160e01b03198316145b92915050565b60606065805461047990612ed6565b80601f01602080910402602001604051908101604052809291908181526020018280546104a590612ed6565b80156104f25780601f106104c7576101008083540402835291602001916104f2565b820191906000526020600020905b8154815290600101906020018083116104d557829003601f168201915b5050505050905090565b600061050782611b6b565b506000908152606960205260409020546001600160a01b031690565b600061052e82611096565b9050806001600160a01b0316836001600160a01b0316036105a05760405162461bcd60e51b815260206004820152602160248201527f4552433732313a20617070726f76616c20746f2063757272656e74206f776e656044820152603960f91b60648201526084015b60405180910390fd5b336001600160a01b03821614806105bc57506105bc81336119e9565b61062e5760405162461bcd60e51b815260206004820152603d60248201527f4552433732313a20617070726f76652063616c6c6572206973206e6f7420746f60448201527f6b656e206f776e6572206f7220617070726f76656420666f7220616c6c0000006064820152608401610597565b6106388383611bcd565b505050565b6099818154811061064d57600080fd5b60009182526020918290206040805161010081018252601890930290910180546001600160a01b03808216855260ff600160a01b8304169585019590955261ffff600160a81b9091041691830191909152600181015490921660608201526002820180549293509091839160808401916106c690612ed6565b80601f01602080910402602001604051908101604052809291908181526020018280546106f290612ed6565b801561073f5780601f106107145761010080835404028352916020019161073f565b820191906000526020600020905b81548152906001019060200180831161072257829003601f168201915b50505091835250506003820154602080830191909152600483015460408084019190915260059093015460609283015282518084018452600686015481526007860154818301528351808501855260088701548152600987015481840152845160808082018752600a8901548252600b89015482860152600c89015482880152600d89015460ff1615158287015286519081018752600e890180548252600f8a01548287015260108a01548289015260118a018054895181890281018901909a52808a52999a959994989397959692959194918601939290919083018282801561084857602002820191906000526020600020905b815481526020019060010190808311610834575b5050509190925250506040805160608101825260128501546001600160a01b031681526013850154602082015260148501549181019190915260168401546017909401549293909290915060ff1688565b6108a33382611c3b565b6108bf5760405162461bcd60e51b815260040161059790612f10565b610638838383611c99565b6106388383836040518060200160405280600081525061193d565b600080609985815481106108fb576108fb612f5d565b6000918252602090912060408051610220810190915260189092020180546001600160a01b038082166101208501908152600160a01b830460ff16610140860152600160a81b90920461ffff1661016085015260018301541661018084015260028201805484929184916101a08501919061097590612ed6565b80601f01602080910402602001604051908101604052809291908181526020018280546109a190612ed6565b80156109ee5780601f106109c3576101008083540402835291602001916109ee565b820191906000526020600020905b8154815290600101906020018083116109d157829003601f168201915b505050918352505060038201546020808301919091526004830154604080840191909152600590930154606092830152928452815180830183526006860154815260078601548185015284840152815180830183526008860154815260098601548185015284830152815160808082018452600a8701548252600b87015482860152600c87015482850152600d87015460ff161515828401528583019190915282518082018452600e870180548252600f88015482870152601088015482860152601188018054865181890281018901909752808752939097019691959094938601939290830182828015610b0257602002820191906000526020600020905b815481526020019060010190808311610aee575b5050509190925250505081526040805160608101825260128401546001600160a01b03168152601384015460208281019190915260148501548284015280840191909152601584018054835181840281018401855281815293909401939091830182828015610b9a57602002820191906000526020600020905b81546001600160a01b03168152600190910190602001808311610b7c575b50505091835250506016820154602082015260179091015460ff1615156040909101529050826000610bcc8787611e08565b5090506000610bdb8383612f89565b90506000610bea826021612f9c565b610bfc90674563918244f40000612f89565b90506000610c0b856021612f9c565b610c1d90674563918244f40000612f89565b90506000610c32610c2d84611e64565b611ead565b90506000610c42610c2d84611e64565b90506000610c80610c536021611e64565b610c7a610c608686611ee5565b610c746a295be96e64066972000000611e64565b90611ef4565b90611f03565b90506000610c9188620f4240612f9c565b610c9b9083612fc9565b8a5160e00151909150670de0b6b3a7640000610cb78284612f9c565b610cc19190612fc9565b9f9e505050505050505050505050505050565b60008060998481548110610cea57610cea612f5d565b6000918252602090912060408051610220810190915260189092020180546001600160a01b038082166101208501908152600160a01b830460ff16610140860152600160a81b90920461ffff1661016085015260018301541661018084015260028201805484929184916101a085019190610d6490612ed6565b80601f0160208091040260200160405190810160405280929190818152602001828054610d9090612ed6565b8015610ddd5780601f10610db257610100808354040283529160200191610ddd565b820191906000526020600020905b815481529060010190602001808311610dc057829003601f168201915b505050918352505060038201546020808301919091526004830154604080840191909152600590930154606092830152928452815180830183526006860154815260078601548185015284840152815180830183526008860154815260098601548185015284830152815160808082018452600a8701548252600b87015482860152600c87015482850152600d87015460ff161515828401528583019190915282518082018452600e870180548252600f88015482870152601088015482860152601188018054865181890281018901909752808752939097019691959094938601939290830182828015610ef157602002820191906000526020600020905b815481526020019060010190808311610edd575b5050509190925250505081526040805160608101825260128401546001600160a01b03168152601384015460208281019190915260148501548284015280840191909152601584018054835181840281018401855281815293909401939091830182828015610f8957602002820191906000526020600020905b81546001600160a01b03168152600190910190602001808311610f6b575b50505091835250506016820154602082015260179091015460ff1615156040909101526080810151519091506000610fc18686611e08565b5090506000610fd08383612f89565b90506000610fdf826021612f9c565b610ff190674563918244f40000612f89565b90506000611000856021612f9c565b61101290674563918244f40000612f89565b90506000611022610c2d84611e64565b90506000611032610c2d84611e64565b90506000611043610c536021611e64565b9050600061105488620f4240612f9c565b61105e9083612fc9565b8a5160e00151909150670de0b6b3a764000061107a8284612f9c565b6110849190612fc9565b9e9d5050505050505050505050505050565b6000818152606760205260408120546001600160a01b0316806104645760405162461bcd60e51b8152602060048201526018602482015277115490cdcc8c4e881a5b9d985b1a59081d1bdad95b88125160421b6044820152606401610597565b60006001600160a01b0382166111605760405162461bcd60e51b815260206004820152602960248201527f4552433732313a2061646472657373207a65726f206973206e6f7420612076616044820152683634b21037bbb732b960b91b6064820152608401610597565b506001600160a01b031660009081526068602052604090205490565b60995460005b8181101561022a57611193816114a6565b61119c81612feb565b9050611182565b600080609983815481106111b9576111b9612f5d565b6000918252602090912060408051610220810190915260189092020180546001600160a01b038082166101208501908152600160a01b830460ff16610140860152600160a81b90920461ffff1661016085015260018301541661018084015260028201805484929184916101a08501919061123390612ed6565b80601f016020809104026020016040519081016040528092919081815260200182805461125f90612ed6565b80156112ac5780601f10611281576101008083540402835291602001916112ac565b820191906000526020600020905b81548152906001019060200180831161128f57829003601f168201915b505050918352505060038201546020808301919091526004830154604080840191909152600590930154606092830152928452815180830183526006860154815260078601548185015284840152815180830183526008860154815260098601548185015284830152815160808082018452600a8701548252600b87015482860152600c87015482850152600d87015460ff161515828401528583019190915282518082018452600e870180548252600f880154828701526010880154828601526011880180548651818902810189019097528087529390970196919590949386019392908301828280156113c057602002820191906000526020600020905b8154815260200190600101908083116113ac575b5050509190925250505081526040805160608101825260128401546001600160a01b0316815260138401546020828101919091526014850154828401528084019190915260158401805483518184028101840185528181529390940193909183018282801561145857602002820191906000526020600020905b81546001600160a01b0316815260019091019060200180831161143a575b50505091835250506016820154602082015260179091015460ff161515604090910152608081015151815160e001519192509061149482611f1b565b61149e9190612f9c565b949350505050565b6000609982815481106114bb576114bb612f5d565b6000918252602090912060408051610220810190915260189092020180546001600160a01b038082166101208501908152600160a01b830460ff16610140860152600160a81b90920461ffff1661016085015260018301541661018084015260028201805484929184916101a08501919061153590612ed6565b80601f016020809104026020016040519081016040528092919081815260200182805461156190612ed6565b80156115ae5780601f10611583576101008083540402835291602001916115ae565b820191906000526020600020905b81548152906001019060200180831161159157829003601f168201915b505050918352505060038201546020808301919091526004830154604080840191909152600590930154606092830152928452815180830183526006860154815260078601548185015284840152815180830183526008860154815260098601548185015284830152815160808082018452600a8701548252600b87015482860152600c87015482850152600d87015460ff161515828401528583019190915282518082018452600e870180548252600f880154828701526010880154828601526011880180548651818902810189019097528087529390970196919590949386019392908301828280156116c257602002820191906000526020600020905b8154815260200190600101908083116116ae575b5050509190925250505081526040805160608101825260128401546001600160a01b0316815260138401546020828101919091526014850154828401528084019190915260158401805483518184028101840185528181529390940193909183018282801561175a57602002820191906000526020600020905b81546001600160a01b0316815260019091019060200180831161173c575b50505091835250506016820154602082015260179091015460ff16151560409091015260808101516060015180519192509080158061179c5750826101000151155b156117a75750505050565b60005b818110156117e4576117d48382815181106117c7576117c7612f5d565b6020026020010151611f70565b6117dd81612feb565b90506117aa565b506000848152609c602090815260408083208054825181850281018501909352808352919290919083018282801561183b57602002820191906000526020600020905b815481526020019060010190808311611827575b5050835193945060009250829150505b828110156118c057600084828151811061186757611867612f5d565b6020908102919091018101516000818152609b90925260409091206001810154919250906118968b82876108e5565b600383015560028201546118aa9086612f89565b9450505050806118b990612feb565b905061184b565b5080609988815481106118d5576118d5612f5d565b600091825260209091206010601890920201015550505050505050565b60606066805461047990612ed6565b609c602052816000526040600020818154811061191d57600080fd5b90600052602060002001600091509150505481565b61022a338383612132565b6119473383611c3b565b6119635760405162461bcd60e51b815260040161059790612f10565b61196f84848484612200565b50505050565b606061198082611b6b565b600061199760408051602081019091526000815290565b905060008151116119b757604051806020016040528060008152506119e2565b806119c184612233565b6040516020016119d2929190613004565b6040516020818303038152906040525b9392505050565b6001600160a01b039182166000908152606a6020908152604080832093909416825291909152205460ff1690565b6001600160a01b0381166000908152606c60209081526040808320805482518185028101850190935280835260609493830182828015611a7657602002820191906000526020600020905b815481526020019060010190808311611a62575b505050505090506000815190506000805b82811015611b5357609b6000858381518110611aa557611aa5612f5d565b602002602001015181526020019081526020016000206040518061010001604052908160008201548152602001600182015481526020016002820154815260200160038201548152602001600482015481526020016005820154815260200160068201548152602001600782015481525050858381518110611b2957611b29612f5d565b60200260200101819052508180611b3f90612feb565b92505080611b4c90612feb565b9050611a87565b50505050919050565b6001600160a01b03163b151590565b6000818152606760205260409020546001600160a01b0316611bca5760405162461bcd60e51b8152602060048201526018602482015277115490cdcc8c4e881a5b9d985b1a59081d1bdad95b88125160421b6044820152606401610597565b50565b600081815260696020526040902080546001600160a01b0319166001600160a01b0384169081179091558190611c0282611096565b6001600160a01b03167f8c5be1e5ebec7d5bd14f71427d1e84f3dd0314c0f7b2291e5b200ac8c7c3b92560405160405180910390a45050565b600080611c4783611096565b9050806001600160a01b0316846001600160a01b03161480611c6e5750611c6e81856119e9565b8061149e5750836001600160a01b0316611c87846104fc565b6001600160a01b031614949350505050565b826001600160a01b0316611cac82611096565b6001600160a01b031614611cd25760405162461bcd60e51b815260040161059790613033565b6001600160a01b038216611d345760405162461bcd60e51b8152602060048201526024808201527f4552433732313a207472616e7366657220746f20746865207a65726f206164646044820152637265737360e01b6064820152608401610597565b611d3f8383836122c6565b826001600160a01b0316611d5282611096565b6001600160a01b031614611d785760405162461bcd60e51b815260040161059790613033565b600081815260696020908152604080832080546001600160a01b03199081169091556001600160a01b0387811680865260688552838620805460001901905590871680865283862080546001019055868652606790945282852080549092168417909155905184937fddf252ad1be2c89b69c2b068fc378daa952ba7f163c4a11628f55a4df523b3ef91a4505050565b60008060998481548110611e1e57611e1e612f5d565b6000918252602090912060036018909202010154611e44670de0b6b3a764000085612f9c565b611e4e9190612fc9565b9050611e5b816005612f9c565b91509250929050565b6000611e7a670de0b6b3a7640000600019612fc9565b821115611e9d576040516322630c4560e01b815260048101839052602401610597565b670de0b6b3a76400008202610464565b60006104646714057b7ef767814f670de0b6b3a7640000611ed3611ed08661235c565b90565b0281611ee157611ee1612fb3565b0490565b60006119e2611ed08385613078565b60006119e2611ed08484612492565b60006119e2611ed084670de0b6b3a764000085612546565b600080670de0b6b3a7640000611f3984670928ca80cfc20000612f9c565b611f439190612fc9565b611f559067016345785d8a0000612f89565b90506119e2816ec097ce7bc90715b34b9f1000000000612fc9565b6000818152609a6020908152604080832054808452609c83528184208054835181860281018601909452808452919493909190830182828015611fd257602002820191906000526020600020905b815481526020019060010190808311611fbe575b5050835193945060009250829150505b828110156120225785848281518110611ffd57611ffd612f5d565b60200260200101510361201257809150612022565b61201b81612feb565b9050611fe2565b508181106120725760405162461bcd60e51b815260206004820152601860248201527f546f6b656e206e6f7420666f756e6420696e20617272617900000000000000006044820152606401610597565b805b61207f600184613078565b8110156120d75783612092826001612f89565b815181106120a2576120a2612f5d565b60200260200101518482815181106120bc576120bc612f5d565b60209081029190910101526120d081612feb565b9050612074565b506000848152609c6020908152604090912084516120f792860190612948565b506000848152609c602052604090208054806121155761211561308b565b600190038181906000526020600020016000905590555050505050565b816001600160a01b0316836001600160a01b0316036121935760405162461bcd60e51b815260206004820152601960248201527f4552433732313a20617070726f766520746f2063616c6c6572000000000000006044820152606401610597565b6001600160a01b038381166000818152606a6020908152604080832094871680845294825291829020805460ff191686151590811790915591519182527f17307eab39ab6107e8899845ad3d59bd9653f200f220920489ca2b5937696c31910160405180910390a3505050565b61220b848484611c99565b61221784848484612619565b61196f5760405162461bcd60e51b8152600401610597906130a1565b606060006122408361271a565b600101905060008167ffffffffffffffff81111561226057612260612d24565b6040519080825280601f01601f19166020018201604052801561228a576020820181803683370190505b5090508181016020015b600019016f181899199a1a9b1b9c1cb0b131b232b360811b600a86061a8153600a850494508461229457509392505050565b816001600160a01b0316836001600160a01b0316141580156122f057506001600160a01b03831615155b156122ff576122ff83826127f2565b826001600160a01b0316826001600160a01b03161415801561232957506001600160a01b03821615155b15610638576001600160a01b03919091166000908152606c60209081526040822080546001810182559083529120015550565b600081670de0b6b3a764000081101561238b57604051633621413760e21b815260048101849052602401610597565b6000612417670de0b6b3a7640000830460016fffffffffffffffffffffffffffffffff821160071b91821c67ffffffffffffffff811160061b90811c63ffffffff811160051b90811c61ffff811160041b90811c60ff8111600390811b91821c600f811160021b90811c918211871b91821c969096119490961792909217171791909117919091171790565b9050670de0b6b3a7640000810282821c670de0b6b3a763ffff19810161244357815b9695505050505050565b671bc16d674ec800006706f05b59d3b200005b801561248657670de0b6b3a764000083800204925081831061247e579283019260019290921c915b60011c612456565b50919695505050505050565b60008080600019848609848602925082811083820303915050670de0b6b3a764000081106124dd5760405163090638d560e41b81526004810186905260248101859052604401610597565b6000670de0b6b3a7640000858709905081600003612509575050670de0b6b3a764000090049050610464565b620400008184030492109003600160ee1b02177faccb18165bd6fe31ae1cf318dc5b51eee0e1ba569b88cd74c1773b91fac1066902905092915050565b60008080600019858709858702925082811083820303915050806000036125805783828161257657612576612fb3565b04925050506119e2565b8381106125b1576040516307639aaf60e41b8152600481018790526024810186905260448101859052606401610597565b600084868809600260036001881981018916988990049182028318808302840302808302840302808302840302808302840302808302840302918202909203026000889003889004909101858311909403939093029303949094049190911702949350505050565b60006001600160a01b0384163b1561270f57604051630a85bd0160e11b81526001600160a01b0385169063150b7a029061265d9033908990889088906004016130f3565b6020604051808303816000875af1925050508015612698575060408051601f3d908101601f1916820190925261269591810190613126565b60015b6126f5573d8080156126c6576040519150601f19603f3d011682016040523d82523d6000602084013e6126cb565b606091505b5080516000036126ed5760405162461bcd60e51b8152600401610597906130a1565b805181602001fd5b6001600160e01b031916630a85bd0160e11b14905061149e565b506001949350505050565b60008072184f03e93ff9f4daa797ed6e38ed64bf6a1f0160401b83106127595772184f03e93ff9f4daa797ed6e38ed64bf6a1f0160401b830492506040015b6d04ee2d6d415b85acef81000000008310612785576d04ee2d6d415b85acef8100000000830492506020015b662386f26fc1000083106127a357662386f26fc10000830492506010015b6305f5e10083106127bb576305f5e100830492506008015b61271083106127cf57612710830492506004015b606483106127e1576064830492506002015b600a83106104645760010192915050565b6001600160a01b0382166000908152606c602090815260408083208054825181850281018501909352808352919290919083018282801561285257602002820191906000526020600020905b81548152602001906001019080831161283e575b505083519394506000925050505b81811015612941578383828151811061287b5761287b612f5d565b6020026020010151036129315782612894600184613078565b815181106128a4576128a4612f5d565b60200260200101518382815181106128be576128be612f5d565b6020908102919091018101919091526001600160a01b0386166000908152606c82526040902084516128f292860190612948565b506001600160a01b0385166000908152606c6020526040902080548061291a5761291a61308b565b600190038181906000526020600020016000905590555b61293a81612feb565b9050612860565b5050505050565b828054828255906000526020600020908101928215612983579160200282015b82811115612983578251825591602001919060010190612968565b5061298f929150612993565b5090565b5b8082111561298f5760008155600101612994565b6001600160e01b031981168114611bca57600080fd5b6000602082840312156129d057600080fd5b81356119e2816129a8565b60005b838110156129f65781810151838201526020016129de565b50506000910152565b60008151808452612a178160208601602086016129db565b601f01601f19169290920160200192915050565b6020815260006119e260208301846129ff565b600060208284031215612a5057600080fd5b5035919050565b80356001600160a01b0381168114612a6e57600080fd5b919050565b60008060408385031215612a8657600080fd5b612a8f83612a57565b946020939093013593505050565b60006080830182518452602080840151818601526040840151604086015260608401516080606087015282815180855260a0880191508383019450600092505b80831015612afd5784518252938301936001929092019190830190612add565b509695505050505050565b6101e080825289516001600160a01b039081169183019190915260208a015160ff1661020083015260408a015161ffff1661022083015260608a0151166102408201526080890151610100610260830152600090612b6a6102e08401826129ff565b905060a08b015161028084015260c08b01516102a084015260e08b01516102c0840152612ba4602084018b80518252602090810151910152565b8851606084015260208901516080840152875160a0840152602088015160c0840152604088015160e084015260608801511515610100840152828103610120840152612bf08188612a9d565b86516001600160a01b0316610140850152602087015161016085015260408701516101808501529150612c209050565b836101a0830152612c366101c083018415159052565b9998505050505050505050565b600080600060608486031215612c5857600080fd5b612c6184612a57565b9250612c6f60208501612a57565b9150604084013590509250925092565b600080600060608486031215612c9457600080fd5b505081359360208301359350604090920135919050565b60008060408385031215612cbe57600080fd5b50508035926020909101359150565b600060208284031215612cdf57600080fd5b6119e282612a57565b60008060408385031215612cfb57600080fd5b612d0483612a57565b915060208301358015158114612d1957600080fd5b809150509250929050565b634e487b7160e01b600052604160045260246000fd5b60008060008060808587031215612d5057600080fd5b612d5985612a57565b9350612d6760208601612a57565b925060408501359150606085013567ffffffffffffffff80821115612d8b57600080fd5b818701915087601f830112612d9f57600080fd5b813581811115612db157612db1612d24565b604051601f8201601f19908116603f01168101908382118183101715612dd957612dd9612d24565b816040528281528a6020848701011115612df257600080fd5b82602086016020830137600060208483010152809550505050505092959194509250565b60008060408385031215612e2957600080fd5b612e3283612a57565b9150612e4060208401612a57565b90509250929050565b602080825282518282018190526000919060409081850190868401855b82811015612ec95781518051855286810151878601528581015186860152606080820151908601526080808201519086015260a0808201519086015260c0808201519086015260e090810151908501526101009093019290850190600101612e66565b5091979650505050505050565b600181811c90821680612eea57607f821691505b602082108103612f0a57634e487b7160e01b600052602260045260246000fd5b50919050565b6020808252602d908201527f4552433732313a2063616c6c6572206973206e6f7420746f6b656e206f776e6560408201526c1c881bdc88185c1c1c9bdd9959609a1b606082015260800190565b634e487b7160e01b600052603260045260246000fd5b634e487b7160e01b600052601160045260246000fd5b8082018082111561046457610464612f73565b808202811582820484141761046457610464612f73565b634e487b7160e01b600052601260045260246000fd5b600082612fe657634e487b7160e01b600052601260045260246000fd5b500490565b600060018201612ffd57612ffd612f73565b5060010190565b600083516130168184602088016129db565b83519083019061302a8183602088016129db565b01949350505050565b60208082526025908201527f4552433732313a207472616e736665722066726f6d20696e636f72726563742060408201526437bbb732b960d91b606082015260800190565b8181038181111561046457610464612f73565b634e487b7160e01b600052603160045260246000fd5b60208082526032908201527f4552433732313a207472616e7366657220746f206e6f6e20455243373231526560408201527131b2b4bb32b91034b6b83632b6b2b73a32b960711b606082015260800190565b6001600160a01b0385811682528416602082015260408101839052608060608201819052600090612439908301846129ff565b60006020828403121561313857600080fd5b81516119e2816129a856fea2646970667358221220a61d1a34347886c64486b8d0802072a328f2f36015ddfec99e38e2af3bb9fdf464736f6c63430008110033496e697469616c697a61626c653a20636f6e7472616374206973206e6f742069",
    "linkReferences": {}
  },
  "methodIdentifiers": {
    "approve(address,uint256)": "095ea7b3",
    "balanceOf(address)": "70a08231",
    "calculateArbitraryEffectiveAPY(uint256,uint256,uint256)": "4f3214cc",
    "calculateEffectiveAPY(uint256,uint256)": "5c46f7b1",
    "consolidate(uint256)": "949a4a4a",
    "consolidateAll()": "75bfd63d",
    "getAllTokensByOwner(address)": "e9fda7d4",
    "getApproved(uint256)": "081812fc",
    "getCurrentAPY(uint256)": "7fbf3853",
    "index()": "2986c0e5",
    "isApprovedForAll(address,address)": "e985e9c5",
    "name()": "06fdde03",
    "nftInfo(uint256)": "1f8bc790",
    "nftToPid(uint256)": "612afc0c",
    "ownerOf(uint256)": "6352211e",
    "pidNFTList(uint256,uint256)": "96ea48e8",
    "poolInfo(uint256)": "1526fe27",
    "receiveStrategyYield(address,uint256)": "1aebcecb",
    "safeTransferFrom(address,address,uint256)": "42842e0e",
    "safeTransferFrom(address,address,uint256,bytes)": "b88d4fde",
    "setApprovalForAll(address,bool)": "a22cb465",
    "supportsInterface(bytes4)": "01ffc9a7",
    "symbol()": "95d89b41",
    "tokenURI(uint256)": "c87b56dd",
    "transferFrom(address,address,uint256)": "23b872dd"
  },
  "id": 42
}