{
  "abi": [
    {
      "inputs": [],
      "stateMutability": "nonpayable",
      "type": "constructor"
    },
    {
      "inputs": [
        {
          "internalType": "UD60x18",
          "name": "x",
          "type": "uint256"
        }
      ],
      "name": "PRBMathUD60x18__LogInputTooSmall",
      "type": "error"
    },
    {
      "inputs": [
        {
          "internalType": "uint256",
          "name": "x",
          "type": "uint256"
        }
      ],
      "name": "PRBMathUD60x18__ToUD60x18Overflow",
      "type": "error"
    },
    {
      "inputs": [
        {
          "internalType": "uint256",
          "name": "x",
          "type": "uint256"
        },
        {
          "internalType": "uint256",
          "name": "y",
          "type": "uint256"
        }
      ],
      "name": "PRBMath__MulDiv18Overflow",
      "type": "error"
    },
    {
      "inputs": [
        {
          "internalType": "uint256",
          "name": "x",
          "type": "uint256"
        },
        {
          "internalType": "uint256",
          "name": "y",
          "type": "uint256"
        },
        {
          "internalType": "uint256",
          "name": "denominator",
          "type": "uint256"
        }
      ],
      "name": "PRBMath__MulDivOverflow",
      "type": "error"
    },
    {
      "anonymous": false,
      "inputs": [
        {
          "indexed": true,
          "internalType": "address",
          "name": "owner",
          "type": "address"
        },
        {
          "indexed": true,
          "internalType": "address",
          "name": "approved",
          "type": "address"
        },
        {
          "indexed": true,
          "internalType": "uint256",
          "name": "tokenId",
          "type": "uint256"
        }
      ],
      "name": "Approval",
      "type": "event"
    },
    {
      "anonymous": false,
      "inputs": [
        {
          "indexed": true,
          "internalType": "address",
          "name": "owner",
          "type": "address"
        },
        {
          "indexed": true,
          "internalType": "address",
          "name": "operator",
          "type": "address"
        },
        {
          "indexed": false,
          "internalType": "bool",
          "name": "approved",
          "type": "bool"
        }
      ],
      "name": "ApprovalForAll",
      "type": "event"
    },
    {
      "anonymous": false,
      "inputs": [
        {
          "indexed": true,
          "internalType": "uint256",
          "name": "pid",
          "type": "uint256"
        },
        {
          "indexed": false,
          "internalType": "uint256",
          "name": "oldAmount",
          "type": "uint256"
        },
        {
          "indexed": false,
          "internalType": "uint256",
          "name": "newAmount",
          "type": "uint256"
        }
      ],
      "name": "BountyBalanceChanged",
      "type": "event"
    },
    {
      "anonymous": false,
      "inputs": [
        {
          "indexed": true,
          "internalType": "address",
          "name": "hunter",
          "type": "address"
        },
        {
          "indexed": true,
          "internalType": "address",
          "name": "token",
          "type": "address"
        },
        {
          "indexed": false,
          "internalType": "uint256",
          "name": "amount",
          "type": "uint256"
        }
      ],
      "name": "BountyPaid",
      "type": "event"
    },
    {
      "anonymous": false,
      "inputs": [
        {
          "indexed": false,
          "internalType": "uint8",
          "name": "version",
          "type": "uint8"
        }
      ],
      "name": "Initialized",
      "type": "event"
    },
    {
      "anonymous": false,
      "inputs": [
        {
          "indexed": true,
          "internalType": "uint256",
          "name": "pid",
          "type": "uint256"
        },
        {
          "indexed": true,
          "internalType": "address",
          "name": "token",
          "type": "address"
        },
        {
          "indexed": false,
          "internalType": "uint256",
          "name": "tokenDecimals",
          "type": "uint256"
        }
      ],
      "name": "NewBountyDeployed",
      "type": "event"
    },
    {
      "anonymous": false,
      "inputs": [
        {
          "indexed": true,
          "internalType": "uint256",
          "name": "pid",
          "type": "uint256"
        },
        {
          "indexed": false,
          "internalType": "uint256",
          "name": "amount",
          "type": "uint256"
        }
      ],
      "name": "PremiumBilled",
      "type": "event"
    },
    {
      "anonymous": false,
      "inputs": [
        {
          "indexed": true,
          "internalType": "address",
          "name": "user",
          "type": "address"
        },
        {
          "indexed": true,
          "internalType": "uint256",
          "name": "pid",
          "type": "uint256"
        },
        {
          "indexed": false,
          "internalType": "uint256",
          "name": "amount",
          "type": "uint256"
        }
      ],
      "name": "Staked",
      "type": "event"
    },
    {
      "anonymous": false,
      "inputs": [
        {
          "indexed": true,
          "internalType": "address",
          "name": "from",
          "type": "address"
        },
        {
          "indexed": true,
          "internalType": "address",
          "name": "to",
          "type": "address"
        },
        {
          "indexed": true,
          "internalType": "uint256",
          "name": "tokenId",
          "type": "uint256"
        }
      ],
      "name": "Transfer",
      "type": "event"
    },
    {
      "anonymous": false,
      "inputs": [
        {
          "indexed": true,
          "internalType": "address",
          "name": "user",
          "type": "address"
        },
        {
          "indexed": true,
          "internalType": "uint256",
          "name": "pid",
          "type": "uint256"
        },
        {
          "indexed": false,
          "internalType": "uint256",
          "name": "amount",
          "type": "uint256"
        }
      ],
      "name": "Unstaked",
      "type": "event"
    },
    {
      "anonymous": false,
      "inputs": [
        {
          "indexed": true,
          "internalType": "uint256",
          "name": "pid",
          "type": "uint256"
        },
        {
          "indexed": false,
          "internalType": "uint256",
          "name": "amount",
          "type": "uint256"
        }
      ],
      "name": "WithdrawalOrUnstakeScheduled",
      "type": "event"
    },
    {
      "anonymous": false,
      "inputs": [
        {
          "indexed": true,
          "internalType": "address",
          "name": "referrer",
          "type": "address"
        },
        {
          "indexed": false,
          "internalType": "uint256",
          "name": "amount",
          "type": "uint256"
        }
      ],
      "name": "referralPaid",
      "type": "event"
    },
    {
      "anonymous": false,
      "inputs": [
        {
          "indexed": true,
          "internalType": "address",
          "name": "token",
          "type": "address"
        },
        {
          "indexed": true,
          "internalType": "bool",
          "name": "whitelisted",
          "type": "bool"
        }
      ],
      "name": "tokenWhitelistUpdated",
      "type": "event"
    },
    {
      "inputs": [
        {
          "internalType": "address",
          "name": "to",
          "type": "address"
        },
        {
          "internalType": "uint256",
          "name": "tokenId",
          "type": "uint256"
        }
      ],
      "name": "approve",
      "outputs": [],
      "stateMutability": "nonpayable",
      "type": "function"
    },
    {
      "inputs": [
        {
          "internalType": "address",
          "name": "owner",
          "type": "address"
        }
      ],
      "name": "balanceOf",
      "outputs": [
        {
          "internalType": "uint256",
          "name": "",
          "type": "uint256"
        }
      ],
      "stateMutability": "view",
      "type": "function"
    },
    {
      "inputs": [
        {
          "internalType": "uint256",
          "name": "_pid",
          "type": "uint256"
        },
        {
          "internalType": "uint256",
          "name": "_stake",
          "type": "uint256"
        },
        {
          "internalType": "uint256",
          "name": "_memX",
          "type": "uint256"
        }
      ],
      "name": "calculateArbitraryEffectiveAPY",
      "outputs": [
        {
          "internalType": "uint256",
          "name": "scaledAPY",
          "type": "uint256"
        }
      ],
      "stateMutability": "view",
      "type": "function"
    },
    {
      "inputs": [
        {
          "internalType": "uint256",
          "name": "_pid",
          "type": "uint256"
        },
        {
          "internalType": "uint256",
          "name": "_stake",
          "type": "uint256"
        }
      ],
      "name": "calculateEffectiveAPY",
      "outputs": [
        {
          "internalType": "uint256",
          "name": "scaledAPY",
          "type": "uint256"
        }
      ],
      "stateMutability": "view",
      "type": "function"
    },
    {
      "inputs": [
        {
          "internalType": "uint256",
          "name": "_pid",
          "type": "uint256"
        }
      ],
      "name": "consolidate",
      "outputs": [],
      "stateMutability": "nonpayable",
      "type": "function"
    },
    {
      "inputs": [],
      "name": "consolidateAll",
      "outputs": [],
      "stateMutability": "nonpayable",
      "type": "function"
    },
    {
      "inputs": [
        {
          "internalType": "uint256",
          "name": "tokenId",
          "type": "uint256"
        }
      ],
      "name": "getApproved",
      "outputs": [
        {
          "internalType": "address",
          "name": "",
          "type": "address"
        }
      ],
      "stateMutability": "view",
      "type": "function"
    },
    {
      "inputs": [
        {
          "internalType": "uint256",
          "name": "_pid",
          "type": "uint256"
        }
      ],
      "name": "getCurrentAPY",
      "outputs": [
        {
          "internalType": "uint256",
          "name": "currentAPY",
          "type": "uint256"
        }
      ],
      "stateMutability": "view",
      "type": "function"
    },
    {
      "inputs": [],
      "name": "index",
      "outputs": [
        {
          "internalType": "uint256",
          "name": "",
          "type": "uint256"
        }
      ],
      "stateMutability": "view",
      "type": "function"
    },
    {
      "inputs": [
        {
          "internalType": "address",
          "name": "owner",
          "type": "address"
        },
        {
          "internalType": "address",
          "name": "operator",
          "type": "address"
        }
      ],
      "name": "isApprovedForAll",
      "outputs": [
        {
          "internalType": "bool",
          "name": "",
          "type": "bool"
        }
      ],
      "stateMutability": "view",
      "type": "function"
    },
    {
      "inputs": [],
      "name": "name",
      "outputs": [
        {
          "internalType": "string",
          "name": "",
          "type": "string"
        }
      ],
      "stateMutability": "view",
      "type": "function"
    },
    {
      "inputs": [
        {
          "internalType": "uint256",
          "name": "",
          "type": "uint256"
        }
      ],
      "name": "nftAPY",
      "outputs": [
        {
          "internalType": "uint256",
          "name": "",
          "type": "uint256"
        }
      ],
      "stateMutability": "view",
      "type": "function"
    },
    {
      "inputs": [
        {
          "internalType": "uint256",
          "name": "",
          "type": "uint256"
        }
      ],
      "name": "nftBalance",
      "outputs": [
        {
          "internalType": "uint256",
          "name": "",
          "type": "uint256"
        }
      ],
      "stateMutability": "view",
      "type": "function"
    },
    {
      "inputs": [
        {
          "internalType": "uint256",
          "name": "",
          "type": "uint256"
        }
      ],
      "name": "nftInfo",
      "outputs": [
        {
          "internalType": "uint256",
          "name": "amount",
          "type": "uint256"
        },
        {
          "internalType": "uint256",
          "name": "xDelta",
          "type": "uint256"
        },
        {
          "internalType": "uint256",
          "name": "apy",
          "type": "uint256"
        },
        {
          "internalType": "uint256",
          "name": "unclaimed",
          "type": "uint256"
        },
        {
          "internalType": "uint256",
          "name": "lastClaimedTime",
          "type": "uint256"
        },
        {
          "internalType": "uint256",
          "name": "timelock",
          "type": "uint256"
        },
        {
          "internalType": "uint256",
          "name": "timelimit",
          "type": "uint256"
        }
      ],
      "stateMutability": "view",
      "type": "function"
    },
    {
      "inputs": [
        {
          "internalType": "uint256",
          "name": "",
          "type": "uint256"
        }
      ],
      "name": "nftToPid",
      "outputs": [
        {
          "internalType": "uint256",
          "name": "",
          "type": "uint256"
        }
      ],
      "stateMutability": "view",
      "type": "function"
    },
    {
      "inputs": [
        {
          "internalType": "uint256",
          "name": "tokenId",
          "type": "uint256"
        }
      ],
      "name": "ownerOf",
      "outputs": [
        {
          "internalType": "address",
          "name": "",
          "type": "address"
        }
      ],
      "stateMutability": "view",
      "type": "function"
    },
    {
      "inputs": [
        {
          "internalType": "uint256",
          "name": "",
          "type": "uint256"
        },
        {
          "internalType": "uint256",
          "name": "",
          "type": "uint256"
        }
      ],
      "name": "pidNFTList",
      "outputs": [
        {
          "internalType": "uint256",
          "name": "",
          "type": "uint256"
        }
      ],
      "stateMutability": "view",
      "type": "function"
    },
    {
      "inputs": [
        {
          "internalType": "uint256",
          "name": "",
          "type": "uint256"
        }
      ],
      "name": "poolInfo",
      "outputs": [
        {
          "components": [
            {
              "internalType": "contract IERC20",
              "name": "token",
              "type": "address"
            },
            {
              "internalType": "uint8",
              "name": "tokenDecimals",
              "type": "uint8"
            },
            {
              "internalType": "uint16",
              "name": "apy",
              "type": "uint16"
            },
            {
              "internalType": "address",
              "name": "projectWallet",
              "type": "address"
            },
            {
              "internalType": "string",
              "name": "projectName",
              "type": "string"
            },
            {
              "internalType": "uint256",
              "name": "poolCap",
              "type": "uint256"
            },
            {
              "internalType": "uint256",
              "name": "totalStaked",
              "type": "uint256"
            },
            {
              "internalType": "uint256",
              "name": "scalingMultiplier",
              "type": "uint256"
            }
          ],
          "internalType": "struct ISaloon.GeneralInfo",
          "name": "generalInfo",
          "type": "tuple"
        },
        {
          "components": [
            {
              "internalType": "uint256",
              "name": "projectDepositHeld",
              "type": "uint256"
            },
            {
              "internalType": "uint256",
              "name": "projectDepositInStrategy",
              "type": "uint256"
            }
          ],
          "internalType": "struct ISaloon.DepositInfo",
          "name": "depositInfo",
          "type": "tuple"
        },
        {
          "components": [
            {
              "internalType": "uint256",
              "name": "premiumBalance",
              "type": "uint256"
            },
            {
              "internalType": "uint256",
              "name": "premiumAvailable",
              "type": "uint256"
            }
          ],
          "internalType": "struct ISaloon.PremiumInfo",
          "name": "premiumInfo",
          "type": "tuple"
        },
        {
          "components": [
            {
              "internalType": "uint256",
              "name": "timelock",
              "type": "uint256"
            },
            {
              "internalType": "uint256",
              "name": "timeLimit",
              "type": "uint256"
            },
            {
              "internalType": "uint256",
              "name": "withdrawalScheduledAmount",
              "type": "uint256"
            },
            {
              "internalType": "bool",
              "name": "withdrawalExecuted",
              "type": "bool"
            }
          ],
          "internalType": "struct ISaloon.TimelockInfo",
          "name": "poolTimelock",
          "type": "tuple"
        },
        {
          "components": [
            {
              "internalType": "uint256",
              "name": "currentX",
              "type": "uint256"
            },
            {
              "internalType": "uint256",
              "name": "currentY",
              "type": "uint256"
            },
            {
              "internalType": "uint256",
              "name": "totalSupply",
              "type": "uint256"
            },
            {
              "internalType": "uint256[]",
              "name": "unstakedTokens",
              "type": "uint256[]"
            }
          ],
          "internalType": "struct ISaloon.CurveInfo",
          "name": "curveInfo",
          "type": "tuple"
        },
        {
          "components": [
            {
              "internalType": "address",
              "name": "referrer",
              "type": "address"
            },
            {
              "internalType": "uint256",
              "name": "referralFee",
              "type": "uint256"
            },
            {
              "internalType": "uint256",
              "name": "endTime",
              "type": "uint256"
            }
          ],
          "internalType": "struct ISaloon.ReferralInfo",
          "name": "referralInfo",
          "type": "tuple"
        },
        {
          "internalType": "uint256",
          "name": "freezeTime",
          "type": "uint256"
        },
        {
          "internalType": "bool",
          "name": "isActive",
          "type": "bool"
        }
      ],
      "stateMutability": "view",
      "type": "function"
    },
    {
      "inputs": [
        {
          "internalType": "address",
          "name": "_token",
          "type": "address"
        },
        {
          "internalType": "uint256",
          "name": "_amount",
          "type": "uint256"
        }
      ],
      "name": "receiveStrategyYield",
      "outputs": [],
      "stateMutability": "nonpayable",
      "type": "function"
    },
    {
      "inputs": [
        {
          "internalType": "address",
          "name": "from",
          "type": "address"
        },
        {
          "internalType": "address",
          "name": "to",
          "type": "address"
        },
        {
          "internalType": "uint256",
          "name": "tokenId",
          "type": "uint256"
        }
      ],
      "name": "safeTransferFrom",
      "outputs": [],
      "stateMutability": "nonpayable",
      "type": "function"
    },
    {
      "inputs": [
        {
          "internalType": "address",
          "name": "from",
          "type": "address"
        },
        {
          "internalType": "address",
          "name": "to",
          "type": "address"
        },
        {
          "internalType": "uint256",
          "name": "tokenId",
          "type": "uint256"
        },
        {
          "internalType": "bytes",
          "name": "data",
          "type": "bytes"
        }
      ],
      "name": "safeTransferFrom",
      "outputs": [],
      "stateMutability": "nonpayable",
      "type": "function"
    },
    {
      "inputs": [
        {
          "internalType": "address",
          "name": "operator",
          "type": "address"
        },
        {
          "internalType": "bool",
          "name": "approved",
          "type": "bool"
        }
      ],
      "name": "setApprovalForAll",
      "outputs": [],
      "stateMutability": "nonpayable",
      "type": "function"
    },
    {
      "inputs": [
        {
          "internalType": "bytes4",
          "name": "interfaceId",
          "type": "bytes4"
        }
      ],
      "name": "supportsInterface",
      "outputs": [
        {
          "internalType": "bool",
          "name": "",
          "type": "bool"
        }
      ],
      "stateMutability": "view",
      "type": "function"
    },
    {
      "inputs": [],
      "name": "symbol",
      "outputs": [
        {
          "internalType": "string",
          "name": "",
          "type": "string"
        }
      ],
      "stateMutability": "view",
      "type": "function"
    },
    {
      "inputs": [
        {
          "internalType": "uint256",
          "name": "tokenId",
          "type": "uint256"
        }
      ],
      "name": "tokenURI",
      "outputs": [
        {
          "internalType": "string",
          "name": "",
          "type": "string"
        }
      ],
      "stateMutability": "view",
      "type": "function"
    },
    {
      "inputs": [
        {
          "internalType": "address",
          "name": "from",
          "type": "address"
        },
        {
          "internalType": "address",
          "name": "to",
          "type": "address"
        },
        {
          "internalType": "uint256",
          "name": "tokenId",
          "type": "uint256"
        }
      ],
      "name": "transferFrom",
      "outputs": [],
      "stateMutability": "nonpayable",
      "type": "function"
    }
  ],
  "bytecode": {
    "object": "0x60806040523480156200001157600080fd5b50600054610100900460ff1615808015620000335750600054600160ff909116105b8062000063575062000050306200018e60201b62001a431760201c565b15801562000063575060005460ff166001145b620000cc5760405162461bcd60e51b815260206004820152602e60248201527f496e697469616c697a61626c653a20636f6e747261637420697320616c72656160448201526d191e481a5b9a5d1a585b1a5e995960921b60648201526084015b60405180910390fd5b6000805460ff191660011790558015620000f0576000805461ff0019166101001790555b620001406040518060400160405280600b81526020016a2137bab73a3caa37b5b2b760a91b8152506040518060400160405280600381526020016210951560ea1b8152506200019d60201b60201c565b801562000187576000805461ff0019169055604051600181527f7f26b83ff96e1f2b6a682f133852f6798a09c465da95921460cefb38474024989060200160405180910390a15b50620003f7565b6001600160a01b03163b151590565b600054610100900460ff16620001f95760405162461bcd60e51b815260206004820152602b6024820152600080516020620031e383398151915260448201526a6e697469616c697a696e6760a81b6064820152608401620000c3565b62000205828262000209565b5050565b600054610100900460ff16620002655760405162461bcd60e51b815260206004820152602b6024820152600080516020620031e383398151915260448201526a6e697469616c697a696e6760a81b6064820152608401620000c3565b60656200027383826200032b565b5060666200028282826200032b565b505050565b634e487b7160e01b600052604160045260246000fd5b600181811c90821680620002b257607f821691505b602082108103620002d357634e487b7160e01b600052602260045260246000fd5b50919050565b601f8211156200028257600081815260208120601f850160051c81016020861015620003025750805b601f850160051c820191505b8181101562000323578281556001016200030e565b505050505050565b81516001600160401b0381111562000347576200034762000287565b6200035f816200035884546200029d565b84620002d9565b602080601f8311600181146200039757600084156200037e5750858301515b600019600386901b1c1916600185901b17855562000323565b600085815260208120601f198616915b82811015620003c857888601518255948401946001909101908401620003a7565b5085821015620003e75787850151600019600388901b60f8161c191681555b5050505050600190811b01905550565b612ddc80620004076000396000f3fe608060405234801561001057600080fd5b506004361061018e5760003560e01c8063612afc0c116100de57806395d89b4111610097578063b88d4fde11610071578063b88d4fde146103ee578063c87b56dd14610401578063e63d6ee414610414578063e985e9c51461043457600080fd5b806395d89b41146103c057806396ea48e8146103c8578063a22cb465146103db57600080fd5b8063612afc0c1461034c5780636352211e1461036c57806370a082311461037f57806375bfd63d146103925780637fbf38531461039a578063949a4a4a146103ad57600080fd5b80631df566221161014b5780632986c0e5116101255780632986c0e51461030a57806342842e0e146103135780634f3214cc146103265780635c46f7b11461033957600080fd5b80631df56622146102495780631f8bc7901461027757806323b872dd146102f757600080fd5b806301ffc9a71461019357806306fdde03146101bb578063081812fc146101d0578063095ea7b3146101fb5780631526fe27146102105780631aebcecb14610237575b600080fd5b6101a66101a13660046126ae565b610447565b60405190151581526020015b60405180910390f35b6101c3610499565b6040516101b2919061271b565b6101e36101de36600461272e565b61052b565b6040516001600160a01b0390911681526020016101b2565b61020e610209366004612763565b610552565b005b61022361021e36600461272e565b61066c565b6040516101b29897969594939291906127f8565b61020e610245366004612763565b5050565b61026961025736600461272e565b609a6020526000908152604090205481565b6040519081526020016101b2565b6102c261028536600461272e565b609c602052600090815260409020805460018201546002830154600384015460048501546005860154600690960154949593949293919290919087565b604080519788526020880196909652948601939093526060850191909152608084015260a083015260c082015260e0016101b2565b61020e610305366004612933565b6108c8565b610269606b5481565b61020e610321366004612933565b6108f9565b61026961033436600461296f565b610914565b61026961034736600461299b565b610d03565b61026961035a36600461272e565b609b6020526000908152604090205481565b6101e361037a36600461272e565b6110c5565b61026961038d3660046129bd565b611125565b61020e6111ab565b6102696103a836600461272e565b6111d2565b61020e6103bb36600461272e565b6114d5565b6101c361191e565b6102696103d636600461299b565b61192d565b61020e6103e93660046129d8565b61195e565b61020e6103fc366004612a2a565b611969565b6101c361040f36600461272e565b6119a1565b61026961042236600461272e565b60996020526000908152604090205481565b6101a6610442366004612b06565b611a15565b60006001600160e01b031982166380ac58cd60e01b148061047857506001600160e01b03198216635b5e139f60e01b145b8061049357506301ffc9a760e01b6001600160e01b03198316145b92915050565b6060606580546104a890612b39565b80601f01602080910402602001604051908101604052809291908181526020018280546104d490612b39565b80156105215780601f106104f657610100808354040283529160200191610521565b820191906000526020600020905b81548152906001019060200180831161050457829003601f168201915b5050505050905090565b600061053682611a52565b506000908152606960205260409020546001600160a01b031690565b600061055d826110c5565b9050806001600160a01b0316836001600160a01b0316036105cf5760405162461bcd60e51b815260206004820152602160248201527f4552433732313a20617070726f76616c20746f2063757272656e74206f776e656044820152603960f91b60648201526084015b60405180910390fd5b336001600160a01b03821614806105eb57506105eb8133611a15565b61065d5760405162461bcd60e51b815260206004820152603d60248201527f4552433732313a20617070726f76652063616c6c6572206973206e6f7420746f60448201527f6b656e206f776e6572206f7220617070726f76656420666f7220616c6c00000060648201526084016105c6565b6106678383611ab4565b505050565b6098818154811061067c57600080fd5b60009182526020918290206040805161010081018252601890930290910180546001600160a01b03808216855260ff600160a01b8304169585019590955261ffff600160a81b9091041691830191909152600181015490921660608201526002820180549293509091839160808401916106f590612b39565b80601f016020809104026020016040519081016040528092919081815260200182805461072190612b39565b801561076e5780601f106107435761010080835404028352916020019161076e565b820191906000526020600020905b81548152906001019060200180831161075157829003601f168201915b50505091835250506003820154602080830191909152600483015460408084019190915260059093015460609283015282518084018452600686015481526007860154818301528351808501855260088701548152600987015481840152845160808082018752600a8901548252600b89015482860152600c89015482880152600d89015460ff1615158287015286519081018752600e890180548252600f8a01548287015260108a01548289015260118a018054895181890281018901909a52808a52999a959994989397959692959194918601939290919083018282801561087757602002820191906000526020600020905b815481526020019060010190808311610863575b5050509190925250506040805160608101825260128501546001600160a01b031681526013850154602082015260148501549181019190915260168401546017909401549293909290915060ff1688565b6108d23382611b22565b6108ee5760405162461bcd60e51b81526004016105c690612b73565b610667838383611b80565b61066783838360405180602001604052806000815250611969565b6000806098858154811061092a5761092a612bc0565b6000918252602090912060408051610220810190915260189092020180546001600160a01b038082166101208501908152600160a01b830460ff16610140860152600160a81b90920461ffff1661016085015260018301541661018084015260028201805484929184916101a0850191906109a490612b39565b80601f01602080910402602001604051908101604052809291908181526020018280546109d090612b39565b8015610a1d5780601f106109f257610100808354040283529160200191610a1d565b820191906000526020600020905b815481529060010190602001808311610a0057829003601f168201915b505050918352505060038201546020808301919091526004830154604080840191909152600590930154606092830152928452815180830183526006860154815260078601548185015284840152815180830183526008860154815260098601548185015284830152815160808082018452600a8701548252600b87015482860152600c87015482850152600d87015460ff161515828401528583019190915282518082018452600e870180548252600f88015482870152601088015482860152601188018054865181890281018901909752808752939097019691959094938601939290830182828015610b3157602002820191906000526020600020905b815481526020019060010190808311610b1d575b5050509190925250505081526040805160608101825260128401546001600160a01b03168152601384015460208281019190915260148501548284015280840191909152601584018054835181840281018401855281815293909401939091830182828015610bc957602002820191906000526020600020905b81546001600160a01b03168152600190910190602001808311610bab575b50505091835250506016820154602082015260179091015460ff1615156040909101529050826000610bfb8787611ce4565b5090506000610c0a8383612bec565b90506000610c19826021612bff565b610c2b90674563918244f40000612bec565b90506000610c3a856021612bff565b610c4c90674563918244f40000612bec565b90506000610c61610c5c84611d40565b611d89565b90506000610c71610c5c84611d40565b90506000610caf610c826021611d40565b610ca9610c8f8686611dc1565b610ca36a295be96e64066972000000611d40565b90611dd0565b90611ddf565b90506000610cc088620f4240612bff565b610cca9083612c2c565b8a5160e00151909150670de0b6b3a7640000610ce68284612bff565b610cf09190612c2c565b9f9e505050505050505050505050505050565b60008060988481548110610d1957610d19612bc0565b6000918252602090912060408051610220810190915260189092020180546001600160a01b038082166101208501908152600160a01b830460ff16610140860152600160a81b90920461ffff1661016085015260018301541661018084015260028201805484929184916101a085019190610d9390612b39565b80601f0160208091040260200160405190810160405280929190818152602001828054610dbf90612b39565b8015610e0c5780601f10610de157610100808354040283529160200191610e0c565b820191906000526020600020905b815481529060010190602001808311610def57829003601f168201915b505050918352505060038201546020808301919091526004830154604080840191909152600590930154606092830152928452815180830183526006860154815260078601548185015284840152815180830183526008860154815260098601548185015284830152815160808082018452600a8701548252600b87015482860152600c87015482850152600d87015460ff161515828401528583019190915282518082018452600e870180548252600f88015482870152601088015482860152601188018054865181890281018901909752808752939097019691959094938601939290830182828015610f2057602002820191906000526020600020905b815481526020019060010190808311610f0c575b5050509190925250505081526040805160608101825260128401546001600160a01b03168152601384015460208281019190915260148501548284015280840191909152601584018054835181840281018401855281815293909401939091830182828015610fb857602002820191906000526020600020905b81546001600160a01b03168152600190910190602001808311610f9a575b50505091835250506016820154602082015260179091015460ff1615156040909101526080810151519091506000610ff08686611ce4565b5090506000610fff8383612bec565b9050600061100e826021612bff565b61102090674563918244f40000612bec565b9050600061102f856021612bff565b61104190674563918244f40000612bec565b90506000611051610c5c84611d40565b90506000611061610c5c84611d40565b90506000611072610c826021611d40565b9050600061108388620f4240612bff565b61108d9083612c2c565b8a5160e00151909150670de0b6b3a76400006110a98284612bff565b6110b39190612c2c565b9e9d5050505050505050505050505050565b6000818152606760205260408120546001600160a01b0316806104935760405162461bcd60e51b8152602060048201526018602482015277115490cdcc8c4e881a5b9d985b1a59081d1bdad95b88125160421b60448201526064016105c6565b60006001600160a01b03821661118f5760405162461bcd60e51b815260206004820152602960248201527f4552433732313a2061646472657373207a65726f206973206e6f7420612076616044820152683634b21037bbb732b960b91b60648201526084016105c6565b506001600160a01b031660009081526068602052604090205490565b60985460005b81811015610245576111c2816114d5565b6111cb81612c4e565b90506111b1565b600080609883815481106111e8576111e8612bc0565b6000918252602090912060408051610220810190915260189092020180546001600160a01b038082166101208501908152600160a01b830460ff16610140860152600160a81b90920461ffff1661016085015260018301541661018084015260028201805484929184916101a08501919061126290612b39565b80601f016020809104026020016040519081016040528092919081815260200182805461128e90612b39565b80156112db5780601f106112b0576101008083540402835291602001916112db565b820191906000526020600020905b8154815290600101906020018083116112be57829003601f168201915b505050918352505060038201546020808301919091526004830154604080840191909152600590930154606092830152928452815180830183526006860154815260078601548185015284840152815180830183526008860154815260098601548185015284830152815160808082018452600a8701548252600b87015482860152600c87015482850152600d87015460ff161515828401528583019190915282518082018452600e870180548252600f880154828701526010880154828601526011880180548651818902810189019097528087529390970196919590949386019392908301828280156113ef57602002820191906000526020600020905b8154815260200190600101908083116113db575b5050509190925250505081526040805160608101825260128401546001600160a01b0316815260138401546020828101919091526014850154828401528084019190915260158401805483518184028101840185528181529390940193909183018282801561148757602002820191906000526020600020905b81546001600160a01b03168152600190910190602001808311611469575b50505091835250506016820154602082015260179091015460ff161515604090910152608081015151815160e00151919250906114c382611df7565b6114cd9190612bff565b949350505050565b6000609882815481106114ea576114ea612bc0565b6000918252602090912060408051610220810190915260189092020180546001600160a01b038082166101208501908152600160a01b830460ff16610140860152600160a81b90920461ffff1661016085015260018301541661018084015260028201805484929184916101a08501919061156490612b39565b80601f016020809104026020016040519081016040528092919081815260200182805461159090612b39565b80156115dd5780601f106115b2576101008083540402835291602001916115dd565b820191906000526020600020905b8154815290600101906020018083116115c057829003601f168201915b505050918352505060038201546020808301919091526004830154604080840191909152600590930154606092830152928452815180830183526006860154815260078601548185015284840152815180830183526008860154815260098601548185015284830152815160808082018452600a8701548252600b87015482860152600c87015482850152600d87015460ff161515828401528583019190915282518082018452600e870180548252600f880154828701526010880154828601526011880180548651818902810189019097528087529390970196919590949386019392908301828280156116f157602002820191906000526020600020905b8154815260200190600101908083116116dd575b5050509190925250505081526040805160608101825260128401546001600160a01b0316815260138401546020828101919091526014850154828401528084019190915260158401805483518184028101840185528181529390940193909183018282801561178957602002820191906000526020600020905b81546001600160a01b0316815260019091019060200180831161176b575b50505091835250506016820154602082015260179091015460ff1615156040909101526080810151606001518051919250908015806117cb5750826101000151155b156117d65750505050565b60005b81811015611813576118038382815181106117f6576117f6612bc0565b6020026020010151611e4c565b61180c81612c4e565b90506117d9565b506000848152609d602090815260408083208054825181850281018501909352808352919290919083018282801561186a57602002820191906000526020600020905b815481526020019060010190808311611856575b5050835193945060009250829150505b828110156118ec57600084828151811061189657611896612bc0565b6020908102919091018101516000818152609c90925260409091208054919250906118c28b8287610914565b600283015560018201546118d69086612bec565b9450505050806118e590612c4e565b905061187a565b50806098888154811061190157611901612bc0565b600091825260209091206010601890920201015550505050505050565b6060606680546104a890612b39565b609d602052816000526040600020818154811061194957600080fd5b90600052602060002001600091509150505481565b61024533838361200e565b6119733383611b22565b61198f5760405162461bcd60e51b81526004016105c690612b73565b61199b848484846120dc565b50505050565b60606119ac82611a52565b60006119c360408051602081019091526000815290565b905060008151116119e35760405180602001604052806000815250611a0e565b806119ed8461210f565b6040516020016119fe929190612c67565b6040516020818303038152906040525b9392505050565b6001600160a01b039182166000908152606a6020908152604080832093909416825291909152205460ff1690565b6001600160a01b03163b151590565b6000818152606760205260409020546001600160a01b0316611ab15760405162461bcd60e51b8152602060048201526018602482015277115490cdcc8c4e881a5b9d985b1a59081d1bdad95b88125160421b60448201526064016105c6565b50565b600081815260696020526040902080546001600160a01b0319166001600160a01b0384169081179091558190611ae9826110c5565b6001600160a01b03167f8c5be1e5ebec7d5bd14f71427d1e84f3dd0314c0f7b2291e5b200ac8c7c3b92560405160405180910390a45050565b600080611b2e836110c5565b9050806001600160a01b0316846001600160a01b03161480611b555750611b558185611a15565b806114cd5750836001600160a01b0316611b6e8461052b565b6001600160a01b031614949350505050565b826001600160a01b0316611b93826110c5565b6001600160a01b031614611bb95760405162461bcd60e51b81526004016105c690612c96565b6001600160a01b038216611c1b5760405162461bcd60e51b8152602060048201526024808201527f4552433732313a207472616e7366657220746f20746865207a65726f206164646044820152637265737360e01b60648201526084016105c6565b826001600160a01b0316611c2e826110c5565b6001600160a01b031614611c545760405162461bcd60e51b81526004016105c690612c96565b600081815260696020908152604080832080546001600160a01b03199081169091556001600160a01b0387811680865260688552838620805460001901905590871680865283862080546001019055868652606790945282852080549092168417909155905184937fddf252ad1be2c89b69c2b068fc378daa952ba7f163c4a11628f55a4df523b3ef91a4505050565b60008060988481548110611cfa57611cfa612bc0565b6000918252602090912060036018909202010154611d20670de0b6b3a764000085612bff565b611d2a9190612c2c565b9050611d37816005612bff565b91509250929050565b6000611d56670de0b6b3a7640000600019612c2c565b821115611d79576040516322630c4560e01b8152600481018390526024016105c6565b670de0b6b3a76400008202610493565b60006104936714057b7ef767814f670de0b6b3a7640000611daf611dac866121a2565b90565b0281611dbd57611dbd612c16565b0490565b6000611a0e611dac8385612cdb565b6000611a0e611dac84846122d8565b6000611a0e611dac84670de0b6b3a76400008561238c565b600080670de0b6b3a7640000611e1584670928ca80cfc20000612bff565b611e1f9190612c2c565b611e319067016345785d8a0000612bec565b9050611a0e816ec097ce7bc90715b34b9f1000000000612c2c565b6000818152609b6020908152604080832054808452609d83528184208054835181860281018601909452808452919493909190830182828015611eae57602002820191906000526020600020905b815481526020019060010190808311611e9a575b5050835193945060009250829150505b82811015611efe5785848281518110611ed957611ed9612bc0565b602002602001015103611eee57809150611efe565b611ef781612c4e565b9050611ebe565b50818110611f4e5760405162461bcd60e51b815260206004820152601860248201527f546f6b656e206e6f7420666f756e6420696e206172726179000000000000000060448201526064016105c6565b805b611f5b600184612cdb565b811015611fb35783611f6e826001612bec565b81518110611f7e57611f7e612bc0565b6020026020010151848281518110611f9857611f98612bc0565b6020908102919091010152611fac81612c4e565b9050611f50565b506000848152609d602090815260409091208451611fd392860190612638565b506000848152609d60205260409020805480611ff157611ff1612cee565b600190038181906000526020600020016000905590555050505050565b816001600160a01b0316836001600160a01b03160361206f5760405162461bcd60e51b815260206004820152601960248201527f4552433732313a20617070726f766520746f2063616c6c65720000000000000060448201526064016105c6565b6001600160a01b038381166000818152606a6020908152604080832094871680845294825291829020805460ff191686151590811790915591519182527f17307eab39ab6107e8899845ad3d59bd9653f200f220920489ca2b5937696c31910160405180910390a3505050565b6120e7848484611b80565b6120f38484848461245f565b61199b5760405162461bcd60e51b81526004016105c690612d04565b6060600061211c83612560565b600101905060008167ffffffffffffffff81111561213c5761213c612a14565b6040519080825280601f01601f191660200182016040528015612166576020820181803683370190505b5090508181016020015b600019016f181899199a1a9b1b9c1cb0b131b232b360811b600a86061a8153600a850494508461217057509392505050565b600081670de0b6b3a76400008110156121d157604051633621413760e21b8152600481018490526024016105c6565b600061225d670de0b6b3a7640000830460016fffffffffffffffffffffffffffffffff821160071b91821c67ffffffffffffffff811160061b90811c63ffffffff811160051b90811c61ffff811160041b90811c60ff8111600390811b91821c600f811160021b90811c918211871b91821c969096119490961792909217171791909117919091171790565b9050670de0b6b3a7640000810282821c670de0b6b3a763ffff19810161228957815b9695505050505050565b671bc16d674ec800006706f05b59d3b200005b80156122cc57670de0b6b3a76400008380020492508183106122c4579283019260019290921c915b60011c61229c565b50919695505050505050565b60008080600019848609848602925082811083820303915050670de0b6b3a764000081106123235760405163090638d560e41b815260048101869052602481018590526044016105c6565b6000670de0b6b3a764000085870990508160000361234f575050670de0b6b3a764000090049050610493565b620400008184030492109003600160ee1b02177faccb18165bd6fe31ae1cf318dc5b51eee0e1ba569b88cd74c1773b91fac1066902905092915050565b60008080600019858709858702925082811083820303915050806000036123c6578382816123bc576123bc612c16565b0492505050611a0e565b8381106123f7576040516307639aaf60e41b81526004810187905260248101869052604481018590526064016105c6565b600084868809600260036001881981018916988990049182028318808302840302808302840302808302840302808302840302808302840302918202909203026000889003889004909101858311909403939093029303949094049190911702949350505050565b60006001600160a01b0384163b1561255557604051630a85bd0160e11b81526001600160a01b0385169063150b7a02906124a3903390899088908890600401612d56565b6020604051808303816000875af19250505080156124de575060408051601f3d908101601f191682019092526124db91810190612d89565b60015b61253b573d80801561250c576040519150601f19603f3d011682016040523d82523d6000602084013e612511565b606091505b5080516000036125335760405162461bcd60e51b81526004016105c690612d04565b805181602001fd5b6001600160e01b031916630a85bd0160e11b1490506114cd565b506001949350505050565b60008072184f03e93ff9f4daa797ed6e38ed64bf6a1f0160401b831061259f5772184f03e93ff9f4daa797ed6e38ed64bf6a1f0160401b830492506040015b6d04ee2d6d415b85acef810000000083106125cb576d04ee2d6d415b85acef8100000000830492506020015b662386f26fc1000083106125e957662386f26fc10000830492506010015b6305f5e1008310612601576305f5e100830492506008015b612710831061261557612710830492506004015b60648310612627576064830492506002015b600a83106104935760010192915050565b828054828255906000526020600020908101928215612673579160200282015b82811115612673578251825591602001919060010190612658565b5061267f929150612683565b5090565b5b8082111561267f5760008155600101612684565b6001600160e01b031981168114611ab157600080fd5b6000602082840312156126c057600080fd5b8135611a0e81612698565b60005b838110156126e65781810151838201526020016126ce565b50506000910152565b600081518084526127078160208601602086016126cb565b601f01601f19169290920160200192915050565b602081526000611a0e60208301846126ef565b60006020828403121561274057600080fd5b5035919050565b80356001600160a01b038116811461275e57600080fd5b919050565b6000806040838503121561277657600080fd5b61277f83612747565b946020939093013593505050565b60006080830182518452602080840151818601526040840151604086015260608401516080606087015282815180855260a0880191508383019450600092505b808310156127ed57845182529383019360019290920191908301906127cd565b509695505050505050565b6101e080825289516001600160a01b039081169183019190915260208a015160ff1661020083015260408a015161ffff1661022083015260608a015116610240820152608089015161010061026083015260009061285a6102e08401826126ef565b905060a08b015161028084015260c08b01516102a084015260e08b01516102c0840152612894602084018b80518252602090810151910152565b8851606084015260208901516080840152875160a0840152602088015160c0840152604088015160e0840152606088015115156101008401528281036101208401526128e0818861278d565b86516001600160a01b03166101408501526020870151610160850152604087015161018085015291506129109050565b836101a08301526129266101c083018415159052565b9998505050505050505050565b60008060006060848603121561294857600080fd5b61295184612747565b925061295f60208501612747565b9150604084013590509250925092565b60008060006060848603121561298457600080fd5b505081359360208301359350604090920135919050565b600080604083850312156129ae57600080fd5b50508035926020909101359150565b6000602082840312156129cf57600080fd5b611a0e82612747565b600080604083850312156129eb57600080fd5b6129f483612747565b915060208301358015158114612a0957600080fd5b809150509250929050565b634e487b7160e01b600052604160045260246000fd5b60008060008060808587031215612a4057600080fd5b612a4985612747565b9350612a5760208601612747565b925060408501359150606085013567ffffffffffffffff80821115612a7b57600080fd5b818701915087601f830112612a8f57600080fd5b813581811115612aa157612aa1612a14565b604051601f8201601f19908116603f01168101908382118183101715612ac957612ac9612a14565b816040528281528a6020848701011115612ae257600080fd5b82602086016020830137600060208483010152809550505050505092959194509250565b60008060408385031215612b1957600080fd5b612b2283612747565b9150612b3060208401612747565b90509250929050565b600181811c90821680612b4d57607f821691505b602082108103612b6d57634e487b7160e01b600052602260045260246000fd5b50919050565b6020808252602d908201527f4552433732313a2063616c6c6572206973206e6f7420746f6b656e206f776e6560408201526c1c881bdc88185c1c1c9bdd9959609a1b606082015260800190565b634e487b7160e01b600052603260045260246000fd5b634e487b7160e01b600052601160045260246000fd5b8082018082111561049357610493612bd6565b808202811582820484141761049357610493612bd6565b634e487b7160e01b600052601260045260246000fd5b600082612c4957634e487b7160e01b600052601260045260246000fd5b500490565b600060018201612c6057612c60612bd6565b5060010190565b60008351612c798184602088016126cb565b835190830190612c8d8183602088016126cb565b01949350505050565b60208082526025908201527f4552433732313a207472616e736665722066726f6d20696e636f72726563742060408201526437bbb732b960d91b606082015260800190565b8181038181111561049357610493612bd6565b634e487b7160e01b600052603160045260246000fd5b60208082526032908201527f4552433732313a207472616e7366657220746f206e6f6e20455243373231526560408201527131b2b4bb32b91034b6b83632b6b2b73a32b960711b606082015260800190565b6001600160a01b038581168252841660208201526040810183905260806060820181905260009061227f908301846126ef565b600060208284031215612d9b57600080fd5b8151611a0e8161269856fea26469706673582212208510685e3779c882f5be97a50600c9939867f42b12300516303e283b1e4b1f1664736f6c63430008110033496e697469616c697a61626c653a20636f6e7472616374206973206e6f742069",
    "linkReferences": {}
  },
  "methodIdentifiers": {
    "approve(address,uint256)": "095ea7b3",
    "balanceOf(address)": "70a08231",
    "calculateArbitraryEffectiveAPY(uint256,uint256,uint256)": "4f3214cc",
    "calculateEffectiveAPY(uint256,uint256)": "5c46f7b1",
    "consolidate(uint256)": "949a4a4a",
    "consolidateAll()": "75bfd63d",
    "getApproved(uint256)": "081812fc",
    "getCurrentAPY(uint256)": "7fbf3853",
    "index()": "2986c0e5",
    "isApprovedForAll(address,address)": "e985e9c5",
    "name()": "06fdde03",
    "nftAPY(uint256)": "1df56622",
    "nftBalance(uint256)": "e63d6ee4",
    "nftInfo(uint256)": "1f8bc790",
    "nftToPid(uint256)": "612afc0c",
    "ownerOf(uint256)": "6352211e",
    "pidNFTList(uint256,uint256)": "96ea48e8",
    "poolInfo(uint256)": "1526fe27",
    "receiveStrategyYield(address,uint256)": "1aebcecb",
    "safeTransferFrom(address,address,uint256)": "42842e0e",
    "safeTransferFrom(address,address,uint256,bytes)": "b88d4fde",
    "setApprovalForAll(address,bool)": "a22cb465",
    "supportsInterface(bytes4)": "01ffc9a7",
    "symbol()": "95d89b41",
    "tokenURI(uint256)": "c87b56dd",
    "transferFrom(address,address,uint256)": "23b872dd"
  },
  "id": 42
}