{
  "abi": [
    {
      "inputs": [],
      "stateMutability": "nonpayable",
      "type": "constructor"
    },
    {
      "inputs": [
        {
          "internalType": "UD60x18",
          "name": "x",
          "type": "uint256"
        }
      ],
      "name": "PRBMathUD60x18__LogInputTooSmall",
      "type": "error"
    },
    {
      "inputs": [
        {
          "internalType": "uint256",
          "name": "x",
          "type": "uint256"
        }
      ],
      "name": "PRBMathUD60x18__ToUD60x18Overflow",
      "type": "error"
    },
    {
      "inputs": [
        {
          "internalType": "uint256",
          "name": "x",
          "type": "uint256"
        },
        {
          "internalType": "uint256",
          "name": "y",
          "type": "uint256"
        }
      ],
      "name": "PRBMath__MulDiv18Overflow",
      "type": "error"
    },
    {
      "inputs": [
        {
          "internalType": "uint256",
          "name": "x",
          "type": "uint256"
        },
        {
          "internalType": "uint256",
          "name": "y",
          "type": "uint256"
        },
        {
          "internalType": "uint256",
          "name": "denominator",
          "type": "uint256"
        }
      ],
      "name": "PRBMath__MulDivOverflow",
      "type": "error"
    },
    {
      "anonymous": false,
      "inputs": [
        {
          "indexed": true,
          "internalType": "address",
          "name": "owner",
          "type": "address"
        },
        {
          "indexed": true,
          "internalType": "address",
          "name": "approved",
          "type": "address"
        },
        {
          "indexed": true,
          "internalType": "uint256",
          "name": "tokenId",
          "type": "uint256"
        }
      ],
      "name": "Approval",
      "type": "event"
    },
    {
      "anonymous": false,
      "inputs": [
        {
          "indexed": true,
          "internalType": "address",
          "name": "owner",
          "type": "address"
        },
        {
          "indexed": true,
          "internalType": "address",
          "name": "operator",
          "type": "address"
        },
        {
          "indexed": false,
          "internalType": "bool",
          "name": "approved",
          "type": "bool"
        }
      ],
      "name": "ApprovalForAll",
      "type": "event"
    },
    {
      "anonymous": false,
      "inputs": [
        {
          "indexed": false,
          "internalType": "uint8",
          "name": "version",
          "type": "uint8"
        }
      ],
      "name": "Initialized",
      "type": "event"
    },
    {
      "anonymous": false,
      "inputs": [
        {
          "indexed": true,
          "internalType": "address",
          "name": "from",
          "type": "address"
        },
        {
          "indexed": true,
          "internalType": "address",
          "name": "to",
          "type": "address"
        },
        {
          "indexed": true,
          "internalType": "uint256",
          "name": "tokenId",
          "type": "uint256"
        }
      ],
      "name": "Transfer",
      "type": "event"
    },
    {
      "inputs": [
        {
          "internalType": "address",
          "name": "to",
          "type": "address"
        },
        {
          "internalType": "uint256",
          "name": "tokenId",
          "type": "uint256"
        }
      ],
      "name": "approve",
      "outputs": [],
      "stateMutability": "nonpayable",
      "type": "function"
    },
    {
      "inputs": [
        {
          "internalType": "address",
          "name": "owner",
          "type": "address"
        }
      ],
      "name": "balanceOf",
      "outputs": [
        {
          "internalType": "uint256",
          "name": "",
          "type": "uint256"
        }
      ],
      "stateMutability": "view",
      "type": "function"
    },
    {
      "inputs": [
        {
          "internalType": "uint256",
          "name": "_stake",
          "type": "uint256"
        },
        {
          "internalType": "uint256",
          "name": "_poolID",
          "type": "uint256"
        }
      ],
      "name": "calculateEffectiveAPY",
      "outputs": [
        {
          "internalType": "uint256",
          "name": "toBeMinted",
          "type": "uint256"
        }
      ],
      "stateMutability": "view",
      "type": "function"
    },
    {
      "inputs": [
        {
          "internalType": "uint256",
          "name": "tokenId",
          "type": "uint256"
        }
      ],
      "name": "getApproved",
      "outputs": [
        {
          "internalType": "address",
          "name": "",
          "type": "address"
        }
      ],
      "stateMutability": "view",
      "type": "function"
    },
    {
      "inputs": [
        {
          "internalType": "uint256",
          "name": "_poolID",
          "type": "uint256"
        }
      ],
      "name": "getCurrentAPY",
      "outputs": [
        {
          "internalType": "uint256",
          "name": "currentAPY",
          "type": "uint256"
        }
      ],
      "stateMutability": "nonpayable",
      "type": "function"
    },
    {
      "inputs": [],
      "name": "index",
      "outputs": [
        {
          "internalType": "uint256",
          "name": "",
          "type": "uint256"
        }
      ],
      "stateMutability": "view",
      "type": "function"
    },
    {
      "inputs": [
        {
          "internalType": "address",
          "name": "owner",
          "type": "address"
        },
        {
          "internalType": "address",
          "name": "operator",
          "type": "address"
        }
      ],
      "name": "isApprovedForAll",
      "outputs": [
        {
          "internalType": "bool",
          "name": "",
          "type": "bool"
        }
      ],
      "stateMutability": "view",
      "type": "function"
    },
    {
      "inputs": [],
      "name": "name",
      "outputs": [
        {
          "internalType": "string",
          "name": "",
          "type": "string"
        }
      ],
      "stateMutability": "view",
      "type": "function"
    },
    {
      "inputs": [
        {
          "internalType": "uint256",
          "name": "",
          "type": "uint256"
        }
      ],
      "name": "nftAPY",
      "outputs": [
        {
          "internalType": "uint256",
          "name": "",
          "type": "uint256"
        }
      ],
      "stateMutability": "view",
      "type": "function"
    },
    {
      "inputs": [
        {
          "internalType": "uint256",
          "name": "",
          "type": "uint256"
        }
      ],
      "name": "nftBalance",
      "outputs": [
        {
          "internalType": "uint256",
          "name": "",
          "type": "uint256"
        }
      ],
      "stateMutability": "view",
      "type": "function"
    },
    {
      "inputs": [
        {
          "internalType": "uint256",
          "name": "",
          "type": "uint256"
        }
      ],
      "name": "nftInfo",
      "outputs": [
        {
          "internalType": "uint256",
          "name": "amount",
          "type": "uint256"
        },
        {
          "internalType": "uint256",
          "name": "apy",
          "type": "uint256"
        },
        {
          "internalType": "uint256",
          "name": "unclaimed",
          "type": "uint256"
        },
        {
          "internalType": "uint256",
          "name": "lastClaimedTime",
          "type": "uint256"
        },
        {
          "internalType": "uint256",
          "name": "timelock",
          "type": "uint256"
        },
        {
          "internalType": "uint256",
          "name": "timelimit",
          "type": "uint256"
        }
      ],
      "stateMutability": "view",
      "type": "function"
    },
    {
      "inputs": [
        {
          "internalType": "uint256",
          "name": "",
          "type": "uint256"
        }
      ],
      "name": "nftToPid",
      "outputs": [
        {
          "internalType": "uint256",
          "name": "",
          "type": "uint256"
        }
      ],
      "stateMutability": "view",
      "type": "function"
    },
    {
      "inputs": [
        {
          "internalType": "uint256",
          "name": "tokenId",
          "type": "uint256"
        }
      ],
      "name": "ownerOf",
      "outputs": [
        {
          "internalType": "address",
          "name": "",
          "type": "address"
        }
      ],
      "stateMutability": "view",
      "type": "function"
    },
    {
      "inputs": [
        {
          "internalType": "uint256",
          "name": "",
          "type": "uint256"
        },
        {
          "internalType": "uint256",
          "name": "",
          "type": "uint256"
        }
      ],
      "name": "pidNFTList",
      "outputs": [
        {
          "internalType": "uint256",
          "name": "",
          "type": "uint256"
        }
      ],
      "stateMutability": "view",
      "type": "function"
    },
    {
      "inputs": [
        {
          "internalType": "uint256",
          "name": "",
          "type": "uint256"
        }
      ],
      "name": "poolInfo",
      "outputs": [
        {
          "components": [
            {
              "internalType": "contract IERC20",
              "name": "token",
              "type": "address"
            },
            {
              "internalType": "uint8",
              "name": "tokenDecimals",
              "type": "uint8"
            },
            {
              "internalType": "uint16",
              "name": "apy",
              "type": "uint16"
            },
            {
              "internalType": "address",
              "name": "projectWallet",
              "type": "address"
            },
            {
              "internalType": "string",
              "name": "projectName",
              "type": "string"
            },
            {
              "internalType": "uint256",
              "name": "poolCap",
              "type": "uint256"
            },
            {
              "internalType": "uint256",
              "name": "totalStaked",
              "type": "uint256"
            },
            {
              "internalType": "uint256",
              "name": "multiplier",
              "type": "uint256"
            }
          ],
          "internalType": "struct ISaloon.GeneralInfo",
          "name": "generalInfo",
          "type": "tuple"
        },
        {
          "components": [
            {
              "internalType": "uint256",
              "name": "projectDepositHeld",
              "type": "uint256"
            },
            {
              "internalType": "uint256",
              "name": "projectDepositInStrategy",
              "type": "uint256"
            }
          ],
          "internalType": "struct ISaloon.DepositInfo",
          "name": "depositInfo",
          "type": "tuple"
        },
        {
          "components": [
            {
              "internalType": "uint256",
              "name": "premiumBalance",
              "type": "uint256"
            },
            {
              "internalType": "uint256",
              "name": "premiumAvailable",
              "type": "uint256"
            }
          ],
          "internalType": "struct ISaloon.PremiumInfo",
          "name": "premiumInfo",
          "type": "tuple"
        },
        {
          "components": [
            {
              "internalType": "uint256",
              "name": "timelock",
              "type": "uint256"
            },
            {
              "internalType": "uint256",
              "name": "timeLimit",
              "type": "uint256"
            },
            {
              "internalType": "uint256",
              "name": "withdrawalScheduledAmount",
              "type": "uint256"
            },
            {
              "internalType": "bool",
              "name": "withdrawalExecuted",
              "type": "bool"
            }
          ],
          "internalType": "struct ISaloon.TimelockInfo",
          "name": "poolTimelock",
          "type": "tuple"
        },
        {
          "components": [
            {
              "internalType": "uint256",
              "name": "currentX",
              "type": "uint256"
            },
            {
              "internalType": "uint256",
              "name": "currentY",
              "type": "uint256"
            },
            {
              "internalType": "uint256",
              "name": "totalSupply",
              "type": "uint256"
            }
          ],
          "internalType": "struct ISaloon.TokenInfo",
          "name": "tokenInfo",
          "type": "tuple"
        },
        {
          "internalType": "uint256",
          "name": "freezeTime",
          "type": "uint256"
        },
        {
          "internalType": "bool",
          "name": "isActive",
          "type": "bool"
        }
      ],
      "stateMutability": "view",
      "type": "function"
    },
    {
      "inputs": [
        {
          "internalType": "address",
          "name": "from",
          "type": "address"
        },
        {
          "internalType": "address",
          "name": "to",
          "type": "address"
        },
        {
          "internalType": "uint256",
          "name": "tokenId",
          "type": "uint256"
        }
      ],
      "name": "safeTransferFrom",
      "outputs": [],
      "stateMutability": "nonpayable",
      "type": "function"
    },
    {
      "inputs": [
        {
          "internalType": "address",
          "name": "from",
          "type": "address"
        },
        {
          "internalType": "address",
          "name": "to",
          "type": "address"
        },
        {
          "internalType": "uint256",
          "name": "tokenId",
          "type": "uint256"
        },
        {
          "internalType": "bytes",
          "name": "data",
          "type": "bytes"
        }
      ],
      "name": "safeTransferFrom",
      "outputs": [],
      "stateMutability": "nonpayable",
      "type": "function"
    },
    {
      "inputs": [
        {
          "internalType": "address",
          "name": "operator",
          "type": "address"
        },
        {
          "internalType": "bool",
          "name": "approved",
          "type": "bool"
        }
      ],
      "name": "setApprovalForAll",
      "outputs": [],
      "stateMutability": "nonpayable",
      "type": "function"
    },
    {
      "inputs": [
        {
          "internalType": "bytes4",
          "name": "interfaceId",
          "type": "bytes4"
        }
      ],
      "name": "supportsInterface",
      "outputs": [
        {
          "internalType": "bool",
          "name": "",
          "type": "bool"
        }
      ],
      "stateMutability": "view",
      "type": "function"
    },
    {
      "inputs": [],
      "name": "symbol",
      "outputs": [
        {
          "internalType": "string",
          "name": "",
          "type": "string"
        }
      ],
      "stateMutability": "view",
      "type": "function"
    },
    {
      "inputs": [
        {
          "internalType": "uint256",
          "name": "tokenId",
          "type": "uint256"
        }
      ],
      "name": "tokenURI",
      "outputs": [
        {
          "internalType": "string",
          "name": "",
          "type": "string"
        }
      ],
      "stateMutability": "view",
      "type": "function"
    },
    {
      "inputs": [
        {
          "internalType": "address",
          "name": "from",
          "type": "address"
        },
        {
          "internalType": "address",
          "name": "to",
          "type": "address"
        },
        {
          "internalType": "uint256",
          "name": "tokenId",
          "type": "uint256"
        }
      ],
      "name": "transferFrom",
      "outputs": [],
      "stateMutability": "nonpayable",
      "type": "function"
    }
  ],
  "bytecode": {
    "object": "0x60806040523480156200001157600080fd5b50600054610100900460ff1615808015620000335750600054600160ff909116105b8062000063575062000050306200018e60201b62000fcf1760201c565b15801562000063575060005460ff166001145b620000cc5760405162461bcd60e51b815260206004820152602e60248201527f496e697469616c697a61626c653a20636f6e747261637420697320616c72656160448201526d191e481a5b9a5d1a585b1a5e995960921b60648201526084015b60405180910390fd5b6000805460ff191660011790558015620000f0576000805461ff0019166101001790555b620001406040518060400160405280600b81526020016a2137bab73a3caa37b5b2b760a91b8152506040518060400160405280600381526020016210951560ea1b8152506200019d60201b60201c565b801562000187576000805461ff0019169055604051600181527f7f26b83ff96e1f2b6a682f133852f6798a09c465da95921460cefb38474024989060200160405180910390a15b50620003f7565b6001600160a01b03163b151590565b600054610100900460ff16620001f95760405162461bcd60e51b815260206004820152602b60248201526000805160206200246383398151915260448201526a6e697469616c697a696e6760a81b6064820152608401620000c3565b62000205828262000209565b5050565b600054610100900460ff16620002655760405162461bcd60e51b815260206004820152602b60248201526000805160206200246383398151915260448201526a6e697469616c697a696e6760a81b6064820152608401620000c3565b60656200027383826200032b565b5060666200028282826200032b565b505050565b634e487b7160e01b600052604160045260246000fd5b600181811c90821680620002b257607f821691505b602082108103620002d357634e487b7160e01b600052602260045260246000fd5b50919050565b601f8211156200028257600081815260208120601f850160051c81016020861015620003025750805b601f850160051c820191505b8181101562000323578281556001016200030e565b505050505050565b81516001600160401b0381111562000347576200034762000287565b6200035f816200035884546200029d565b84620002d9565b602080601f8311600181146200039757600084156200037e5750858301515b600019600386901b1c1916600185901b17855562000323565b600085815260208120601f198616915b82811015620003c857888601518255948401946001909101908401620003a7565b5085821015620003e75787850151600019600388901b60f8161c191681555b5050505050600190811b01905550565b61205c80620004076000396000f3fe608060405234801561001057600080fd5b50600436106101425760003560e01c8063612afc0c116100b857806396ea48e81161007c57806396ea48e81461032b578063a22cb4651461033e578063b88d4fde14610351578063c87b56dd14610364578063e63d6ee414610377578063e985e9c51461039757600080fd5b8063612afc0c146102ca5780636352211e146102ea57806370a08231146102fd5780637fbf38531461031057806395d89b411461032357600080fd5b80631df566221161010a5780631df56622146101ea5780631f8bc7901461021857806323b872dd146102885780632986c0e51461029b57806342842e0e146102a45780635c46f7b1146102b757600080fd5b806301ffc9a71461014757806306fdde031461016f578063081812fc14610184578063095ea7b3146101af5780631526fe27146101c4575b600080fd5b61015a610155366004611a18565b6103aa565b60405190151581526020015b60405180910390f35b6101776103fc565b6040516101669190611a85565b610197610192366004611a98565b61048e565b6040516001600160a01b039091168152602001610166565b6101c26101bd366004611acd565b6104b5565b005b6101d76101d2366004611a98565b6105cf565b6040516101669796959493929190611af7565b61020a6101f8366004611a98565b609a6020526000908152604090205481565b604051908152602001610166565b61025b610226366004611a98565b609c60205260009081526040902080546001820154600283015460038401546004850154600590950154939492939192909186565b604080519687526020870195909552938501929092526060840152608083015260a082015260c001610166565b6101c2610296366004611c0e565b61079d565b61020a606b5481565b6101c26102b2366004611c0e565b6107ce565b61020a6102c5366004611c4a565b6107e9565b61020a6102d8366004611a98565b609b6020526000908152604090205481565b6101976102f8366004611a98565b610b4d565b61020a61030b366004611c6c565b610bad565b61020a61031e366004611a98565b610c33565b610177610ea6565b61020a610339366004611c4a565b610eb5565b6101c261034c366004611c87565b610ee6565b6101c261035f366004611cd9565b610ef5565b610177610372366004611a98565b610f2d565b61020a610385366004611a98565b60996020526000908152604090205481565b61015a6103a5366004611db5565b610fa1565b60006001600160e01b031982166380ac58cd60e01b14806103db57506001600160e01b03198216635b5e139f60e01b145b806103f657506301ffc9a760e01b6001600160e01b03198316145b92915050565b60606065805461040b90611de8565b80601f016020809104026020016040519081016040528092919081815260200182805461043790611de8565b80156104845780601f1061045957610100808354040283529160200191610484565b820191906000526020600020905b81548152906001019060200180831161046757829003601f168201915b5050505050905090565b600061049982610fde565b506000908152606960205260409020546001600160a01b031690565b60006104c082610b4d565b9050806001600160a01b0316836001600160a01b0316036105325760405162461bcd60e51b815260206004820152602160248201527f4552433732313a20617070726f76616c20746f2063757272656e74206f776e656044820152603960f91b60648201526084015b60405180910390fd5b336001600160a01b038216148061054e575061054e8133610fa1565b6105c05760405162461bcd60e51b815260206004820152603d60248201527f4552433732313a20617070726f76652063616c6c6572206973206e6f7420746f60448201527f6b656e206f776e6572206f7220617070726f76656420666f7220616c6c0000006064820152608401610529565b6105ca8383611040565b505050565b609881815481106105df57600080fd5b60009182526020918290206040805161010081018252601490930290910180546001600160a01b03808216855260ff600160a01b8304169585019590955261ffff600160a81b90910416918301919091526001810154909216606082015260028201805492935090918391608084019161065890611de8565b80601f016020809104026020016040519081016040528092919081815260200182805461068490611de8565b80156106d15780601f106106a6576101008083540402835291602001916106d1565b820191906000526020600020905b8154815290600101906020018083116106b457829003601f168201915b505050918352505060038201546020808301919091526004830154604080840191909152600590930154606092830152825180840184526006860154815260078601548183015283518085018552600887015481526009870154818401528451608081018652600a8801548152600b88015481850152600c88015481870152600d88015460ff90811615158287015286519586018752600e8901548652600f89015494860194909452601088015495850195909552601287015460139097015495969195909493921687565b6107a733826110ae565b6107c35760405162461bcd60e51b815260040161052990611e22565b6105ca83838361110c565b6105ca83838360405180602001604052806000815250610ef5565b600080609883815481106107ff576107ff611e6f565b6000918252602090912060408051610200810190915260149092020180546001600160a01b038082166101008501908152600160a01b830460ff16610120860152600160a81b90920461ffff1661014085015260018301541661016084015260028201805484929184916101808501919061087990611de8565b80601f01602080910402602001604051908101604052809291908181526020018280546108a590611de8565b80156108f25780601f106108c7576101008083540402835291602001916108f2565b820191906000526020600020905b8154815290600101906020018083116108d557829003601f168201915b505050918352505060038201546020808301919091526004830154604080840191909152600590930154606092830152928452815180830183526006860154815260078601548185015284840152815180830183526008860154815260098601548185015284830152815160808082018452600a8701548252600b87015482860152600c87015482850152600d87015460ff161515828401528583019190915282519182018352600e8601548252600f8601548285015260108601548284015284015260118401805482518185028101850190935280835260a0909401939192909190830182828015610a0e57602002820191906000526020600020905b81546001600160a01b031681526001909101906020018083116109f0575b50505091835250506012820154602082015260139091015460ff1615156040909101526080810151519091506000610a468686611270565b5090506000610a558383611e9b565b90506000610a64826021611eae565b610a7690674563918244f40000611e9b565b90506000610a85856021611eae565b610a9790674563918244f40000611e9b565b90506000610aac610aa7846112cc565b611315565b90506000610abc610aa7846112cc565b90506000610afa610acd60216112cc565b610af4610ada868661134d565b610aee6a295be96e640669720000006112cc565b9061135c565b9061136b565b90506000610b0b88620f4240611eae565b610b159083611edb565b8a5160e00151909150670de0b6b3a7640000610b318284611eae565b610b3b9190611edb565b9e9d5050505050505050505050505050565b6000818152606760205260408120546001600160a01b0316806103f65760405162461bcd60e51b8152602060048201526018602482015277115490cdcc8c4e881a5b9d985b1a59081d1bdad95b88125160421b6044820152606401610529565b60006001600160a01b038216610c175760405162461bcd60e51b815260206004820152602960248201527f4552433732313a2061646472657373207a65726f206973206e6f7420612076616044820152683634b21037bbb732b960b91b6064820152608401610529565b506001600160a01b031660009081526068602052604090205490565b60008060988381548110610c4957610c49611e6f565b6000918252602090912060408051610200810190915260149092020180546001600160a01b038082166101008501908152600160a01b830460ff16610120860152600160a81b90920461ffff16610140850152600183015416610160840152600282018054849291849161018085019190610cc390611de8565b80601f0160208091040260200160405190810160405280929190818152602001828054610cef90611de8565b8015610d3c5780601f10610d1157610100808354040283529160200191610d3c565b820191906000526020600020905b815481529060010190602001808311610d1f57829003601f168201915b505050918352505060038201546020808301919091526004830154604080840191909152600590930154606092830152928452815180830183526006860154815260078601548185015284840152815180830183526008860154815260098601548185015284830152815160808082018452600a8701548252600b87015482860152600c87015482850152600d87015460ff161515828401528583019190915282519182018352600e8601548252600f8601548285015260108601548284015284015260118401805482518185028101850190935280835260a0909401939192909190830182828015610e5857602002820191906000526020600020905b81546001600160a01b03168152600190910190602001808311610e3a575b50505091835250506012820154602082015260139091015460ff161515604090910152608081015151815160e0015191925090610e9482611383565b610e9e9190611eae565b949350505050565b60606066805461040b90611de8565b609d6020528160005260406000208181548110610ed157600080fd5b90600052602060002001600091509150505481565b610ef13383836113d8565b5050565b610eff33836110ae565b610f1b5760405162461bcd60e51b815260040161052990611e22565b610f27848484846114a6565b50505050565b6060610f3882610fde565b6000610f4f60408051602081019091526000815290565b90506000815111610f6f5760405180602001604052806000815250610f9a565b80610f79846114d9565b604051602001610f8a929190611efd565b6040516020818303038152906040525b9392505050565b6001600160a01b039182166000908152606a6020908152604080832093909416825291909152205460ff1690565b6001600160a01b03163b151590565b6000818152606760205260409020546001600160a01b031661103d5760405162461bcd60e51b8152602060048201526018602482015277115490cdcc8c4e881a5b9d985b1a59081d1bdad95b88125160421b6044820152606401610529565b50565b600081815260696020526040902080546001600160a01b0319166001600160a01b038416908117909155819061107582610b4d565b6001600160a01b03167f8c5be1e5ebec7d5bd14f71427d1e84f3dd0314c0f7b2291e5b200ac8c7c3b92560405160405180910390a45050565b6000806110ba83610b4d565b9050806001600160a01b0316846001600160a01b031614806110e157506110e18185610fa1565b80610e9e5750836001600160a01b03166110fa8461048e565b6001600160a01b031614949350505050565b826001600160a01b031661111f82610b4d565b6001600160a01b0316146111455760405162461bcd60e51b815260040161052990611f2c565b6001600160a01b0382166111a75760405162461bcd60e51b8152602060048201526024808201527f4552433732313a207472616e7366657220746f20746865207a65726f206164646044820152637265737360e01b6064820152608401610529565b826001600160a01b03166111ba82610b4d565b6001600160a01b0316146111e05760405162461bcd60e51b815260040161052990611f2c565b600081815260696020908152604080832080546001600160a01b03199081169091556001600160a01b0387811680865260688552838620805460001901905590871680865283862080546001019055868652606790945282852080549092168417909155905184937fddf252ad1be2c89b69c2b068fc378daa952ba7f163c4a11628f55a4df523b3ef91a4505050565b6000806098838154811061128657611286611e6f565b60009182526020909120600360149092020101546112ac670de0b6b3a764000086611eae565b6112b69190611edb565b90506112c3816005611eae565b91509250929050565b60006112e2670de0b6b3a7640000600019611edb565b821115611305576040516322630c4560e01b815260048101839052602401610529565b670de0b6b3a764000082026103f6565b60006103f66714057b7ef767814f670de0b6b3a764000061133b6113388661156c565b90565b028161134957611349611ec5565b0490565b6000610f9a6113388385611f71565b6000610f9a61133884846116a2565b6000610f9a61133884670de0b6b3a764000085611756565b600080670de0b6b3a76400006113a184670928ca80cfc20000611eae565b6113ab9190611edb565b6113bd9067016345785d8a0000611e9b565b9050610f9a816ec097ce7bc90715b34b9f1000000000611edb565b816001600160a01b0316836001600160a01b0316036114395760405162461bcd60e51b815260206004820152601960248201527f4552433732313a20617070726f766520746f2063616c6c6572000000000000006044820152606401610529565b6001600160a01b038381166000818152606a6020908152604080832094871680845294825291829020805460ff191686151590811790915591519182527f17307eab39ab6107e8899845ad3d59bd9653f200f220920489ca2b5937696c31910160405180910390a3505050565b6114b184848461110c565b6114bd84848484611829565b610f275760405162461bcd60e51b815260040161052990611f84565b606060006114e68361192a565b600101905060008167ffffffffffffffff81111561150657611506611cc3565b6040519080825280601f01601f191660200182016040528015611530576020820181803683370190505b5090508181016020015b600019016f181899199a1a9b1b9c1cb0b131b232b360811b600a86061a8153600a850494508461153a57509392505050565b600081670de0b6b3a764000081101561159b57604051633621413760e21b815260048101849052602401610529565b6000611627670de0b6b3a7640000830460016fffffffffffffffffffffffffffffffff821160071b91821c67ffffffffffffffff811160061b90811c63ffffffff811160051b90811c61ffff811160041b90811c60ff8111600390811b91821c600f811160021b90811c918211871b91821c969096119490961792909217171791909117919091171790565b9050670de0b6b3a7640000810282821c670de0b6b3a763ffff19810161165357815b9695505050505050565b671bc16d674ec800006706f05b59d3b200005b801561169657670de0b6b3a764000083800204925081831061168e579283019260019290921c915b60011c611666565b50919695505050505050565b60008080600019848609848602925082811083820303915050670de0b6b3a764000081106116ed5760405163090638d560e41b81526004810186905260248101859052604401610529565b6000670de0b6b3a7640000858709905081600003611719575050670de0b6b3a7640000900490506103f6565b620400008184030492109003600160ee1b02177faccb18165bd6fe31ae1cf318dc5b51eee0e1ba569b88cd74c1773b91fac1066902905092915050565b60008080600019858709858702925082811083820303915050806000036117905783828161178657611786611ec5565b0492505050610f9a565b8381106117c1576040516307639aaf60e41b8152600481018790526024810186905260448101859052606401610529565b600084868809600260036001881981018916988990049182028318808302840302808302840302808302840302808302840302808302840302918202909203026000889003889004909101858311909403939093029303949094049190911702949350505050565b60006001600160a01b0384163b1561191f57604051630a85bd0160e11b81526001600160a01b0385169063150b7a029061186d903390899088908890600401611fd6565b6020604051808303816000875af19250505080156118a8575060408051601f3d908101601f191682019092526118a591810190612009565b60015b611905573d8080156118d6576040519150601f19603f3d011682016040523d82523d6000602084013e6118db565b606091505b5080516000036118fd5760405162461bcd60e51b815260040161052990611f84565b805181602001fd5b6001600160e01b031916630a85bd0160e11b149050610e9e565b506001949350505050565b60008072184f03e93ff9f4daa797ed6e38ed64bf6a1f0160401b83106119695772184f03e93ff9f4daa797ed6e38ed64bf6a1f0160401b830492506040015b6d04ee2d6d415b85acef81000000008310611995576d04ee2d6d415b85acef8100000000830492506020015b662386f26fc1000083106119b357662386f26fc10000830492506010015b6305f5e10083106119cb576305f5e100830492506008015b61271083106119df57612710830492506004015b606483106119f1576064830492506002015b600a83106103f65760010192915050565b6001600160e01b03198116811461103d57600080fd5b600060208284031215611a2a57600080fd5b8135610f9a81611a02565b60005b83811015611a50578181015183820152602001611a38565b50506000910152565b60008151808452611a71816020860160208601611a35565b601f01601f19169290920160200192915050565b602081526000610f9a6020830184611a59565b600060208284031215611aaa57600080fd5b5035919050565b80356001600160a01b0381168114611ac857600080fd5b919050565b60008060408385031215611ae057600080fd5b611ae983611ab1565b946020939093013593505050565b6101c080825288516001600160a01b0390811691830191909152602089015160ff166101e0830152604089015161ffff166102008301526060890151166102208201526080880151610100610240830152600090611b596102c0840182611a59565b60a08b015161026085015260c08b015161028085015260e08b01516102a08501529150611b959050602083018980518252602090810151910152565b8651606083015260208701516080830152855160a0830152602086015160c0830152604086015160e08301526060860151151561010083015284516101208301526020850151610140830152604085015161016083015283610180830152611c026101a083018415159052565b98975050505050505050565b600080600060608486031215611c2357600080fd5b611c2c84611ab1565b9250611c3a60208501611ab1565b9150604084013590509250925092565b60008060408385031215611c5d57600080fd5b50508035926020909101359150565b600060208284031215611c7e57600080fd5b610f9a82611ab1565b60008060408385031215611c9a57600080fd5b611ca383611ab1565b915060208301358015158114611cb857600080fd5b809150509250929050565b634e487b7160e01b600052604160045260246000fd5b60008060008060808587031215611cef57600080fd5b611cf885611ab1565b9350611d0660208601611ab1565b925060408501359150606085013567ffffffffffffffff80821115611d2a57600080fd5b818701915087601f830112611d3e57600080fd5b813581811115611d5057611d50611cc3565b604051601f8201601f19908116603f01168101908382118183101715611d7857611d78611cc3565b816040528281528a6020848701011115611d9157600080fd5b82602086016020830137600060208483010152809550505050505092959194509250565b60008060408385031215611dc857600080fd5b611dd183611ab1565b9150611ddf60208401611ab1565b90509250929050565b600181811c90821680611dfc57607f821691505b602082108103611e1c57634e487b7160e01b600052602260045260246000fd5b50919050565b6020808252602d908201527f4552433732313a2063616c6c6572206973206e6f7420746f6b656e206f776e6560408201526c1c881bdc88185c1c1c9bdd9959609a1b606082015260800190565b634e487b7160e01b600052603260045260246000fd5b634e487b7160e01b600052601160045260246000fd5b808201808211156103f6576103f6611e85565b80820281158282048414176103f6576103f6611e85565b634e487b7160e01b600052601260045260246000fd5b600082611ef857634e487b7160e01b600052601260045260246000fd5b500490565b60008351611f0f818460208801611a35565b835190830190611f23818360208801611a35565b01949350505050565b60208082526025908201527f4552433732313a207472616e736665722066726f6d20696e636f72726563742060408201526437bbb732b960d91b606082015260800190565b818103818111156103f6576103f6611e85565b60208082526032908201527f4552433732313a207472616e7366657220746f206e6f6e20455243373231526560408201527131b2b4bb32b91034b6b83632b6b2b73a32b960711b606082015260800190565b6001600160a01b038581168252841660208201526040810183905260806060820181905260009061164990830184611a59565b60006020828403121561201b57600080fd5b8151610f9a81611a0256fea26469706673582212204618c5ce97264a8b0ae16dc1718a87916fe915f746f527a8763210bc7a30c79f64736f6c63430008110033496e697469616c697a61626c653a20636f6e7472616374206973206e6f742069",
    "linkReferences": {}
  },
  "methodIdentifiers": {
    "approve(address,uint256)": "095ea7b3",
    "balanceOf(address)": "70a08231",
    "calculateEffectiveAPY(uint256,uint256)": "5c46f7b1",
    "getApproved(uint256)": "081812fc",
    "getCurrentAPY(uint256)": "7fbf3853",
    "index()": "2986c0e5",
    "isApprovedForAll(address,address)": "e985e9c5",
    "name()": "06fdde03",
    "nftAPY(uint256)": "1df56622",
    "nftBalance(uint256)": "e63d6ee4",
    "nftInfo(uint256)": "1f8bc790",
    "nftToPid(uint256)": "612afc0c",
    "ownerOf(uint256)": "6352211e",
    "pidNFTList(uint256,uint256)": "96ea48e8",
    "poolInfo(uint256)": "1526fe27",
    "safeTransferFrom(address,address,uint256)": "42842e0e",
    "safeTransferFrom(address,address,uint256,bytes)": "b88d4fde",
    "setApprovalForAll(address,bool)": "a22cb465",
    "supportsInterface(bytes4)": "01ffc9a7",
    "symbol()": "95d89b41",
    "tokenURI(uint256)": "c87b56dd",
    "transferFrom(address,address,uint256)": "23b872dd"
  },
  "id": 45
}