{
  "abi": [
    {
      "inputs": [],
      "stateMutability": "nonpayable",
      "type": "constructor"
    },
    {
      "inputs": [
        {
          "internalType": "UD60x18",
          "name": "x",
          "type": "uint256"
        }
      ],
      "name": "PRBMathUD60x18__LogInputTooSmall",
      "type": "error"
    },
    {
      "inputs": [
        {
          "internalType": "uint256",
          "name": "x",
          "type": "uint256"
        }
      ],
      "name": "PRBMathUD60x18__ToUD60x18Overflow",
      "type": "error"
    },
    {
      "inputs": [
        {
          "internalType": "uint256",
          "name": "x",
          "type": "uint256"
        },
        {
          "internalType": "uint256",
          "name": "y",
          "type": "uint256"
        }
      ],
      "name": "PRBMath__MulDiv18Overflow",
      "type": "error"
    },
    {
      "inputs": [
        {
          "internalType": "uint256",
          "name": "x",
          "type": "uint256"
        },
        {
          "internalType": "uint256",
          "name": "y",
          "type": "uint256"
        },
        {
          "internalType": "uint256",
          "name": "denominator",
          "type": "uint256"
        }
      ],
      "name": "PRBMath__MulDivOverflow",
      "type": "error"
    },
    {
      "anonymous": false,
      "inputs": [
        {
          "indexed": true,
          "internalType": "address",
          "name": "owner",
          "type": "address"
        },
        {
          "indexed": true,
          "internalType": "address",
          "name": "spender",
          "type": "address"
        },
        {
          "indexed": false,
          "internalType": "uint256",
          "name": "value",
          "type": "uint256"
        }
      ],
      "name": "Approval",
      "type": "event"
    },
    {
      "anonymous": false,
      "inputs": [
        {
          "indexed": true,
          "internalType": "uint256",
          "name": "pid",
          "type": "uint256"
        },
        {
          "indexed": false,
          "internalType": "uint256",
          "name": "oldAmount",
          "type": "uint256"
        },
        {
          "indexed": false,
          "internalType": "uint256",
          "name": "newAmount",
          "type": "uint256"
        }
      ],
      "name": "BountyBalanceChanged",
      "type": "event"
    },
    {
      "anonymous": false,
      "inputs": [
        {
          "indexed": true,
          "internalType": "address",
          "name": "hunter",
          "type": "address"
        },
        {
          "indexed": true,
          "internalType": "address",
          "name": "token",
          "type": "address"
        },
        {
          "indexed": false,
          "internalType": "uint256",
          "name": "amount",
          "type": "uint256"
        }
      ],
      "name": "BountyPaid",
      "type": "event"
    },
    {
      "anonymous": false,
      "inputs": [
        {
          "indexed": false,
          "internalType": "uint8",
          "name": "version",
          "type": "uint8"
        }
      ],
      "name": "Initialized",
      "type": "event"
    },
    {
      "anonymous": false,
      "inputs": [
        {
          "indexed": true,
          "internalType": "uint256",
          "name": "pid",
          "type": "uint256"
        },
        {
          "indexed": true,
          "internalType": "address",
          "name": "token",
          "type": "address"
        },
        {
          "indexed": false,
          "internalType": "uint256",
          "name": "tokenDecimals",
          "type": "uint256"
        }
      ],
      "name": "NewBountyDeployed",
      "type": "event"
    },
    {
      "anonymous": false,
      "inputs": [
        {
          "indexed": true,
          "internalType": "uint256",
          "name": "pid",
          "type": "uint256"
        },
        {
          "indexed": false,
          "internalType": "uint256",
          "name": "amount",
          "type": "uint256"
        }
      ],
      "name": "PremiumBilled",
      "type": "event"
    },
    {
      "anonymous": false,
      "inputs": [
        {
          "indexed": true,
          "internalType": "address",
          "name": "user",
          "type": "address"
        },
        {
          "indexed": true,
          "internalType": "uint256",
          "name": "pid",
          "type": "uint256"
        },
        {
          "indexed": false,
          "internalType": "uint256",
          "name": "amount",
          "type": "uint256"
        }
      ],
      "name": "Staked",
      "type": "event"
    },
    {
      "anonymous": false,
      "inputs": [
        {
          "indexed": true,
          "internalType": "address",
          "name": "from",
          "type": "address"
        },
        {
          "indexed": true,
          "internalType": "address",
          "name": "to",
          "type": "address"
        },
        {
          "indexed": false,
          "internalType": "uint256",
          "name": "value",
          "type": "uint256"
        }
      ],
      "name": "Transfer",
      "type": "event"
    },
    {
      "anonymous": false,
      "inputs": [
        {
          "indexed": true,
          "internalType": "address",
          "name": "user",
          "type": "address"
        },
        {
          "indexed": true,
          "internalType": "uint256",
          "name": "pid",
          "type": "uint256"
        },
        {
          "indexed": false,
          "internalType": "uint256",
          "name": "amount",
          "type": "uint256"
        }
      ],
      "name": "Unstaked",
      "type": "event"
    },
    {
      "anonymous": false,
      "inputs": [
        {
          "indexed": true,
          "internalType": "uint256",
          "name": "pid",
          "type": "uint256"
        },
        {
          "indexed": false,
          "internalType": "uint256",
          "name": "amount",
          "type": "uint256"
        }
      ],
      "name": "WithdrawalOrUnstakeScheduled",
      "type": "event"
    },
    {
      "anonymous": false,
      "inputs": [
        {
          "indexed": true,
          "internalType": "address",
          "name": "referrer",
          "type": "address"
        },
        {
          "indexed": false,
          "internalType": "uint256",
          "name": "amount",
          "type": "uint256"
        }
      ],
      "name": "referralPaid",
      "type": "event"
    },
    {
      "anonymous": false,
      "inputs": [
        {
          "indexed": true,
          "internalType": "address",
          "name": "token",
          "type": "address"
        },
        {
          "indexed": true,
          "internalType": "bool",
          "name": "whitelisted",
          "type": "bool"
        }
      ],
      "name": "tokenWhitelistUpdated",
      "type": "event"
    },
    {
      "inputs": [
        {
          "internalType": "address",
          "name": "owner",
          "type": "address"
        },
        {
          "internalType": "address",
          "name": "spender",
          "type": "address"
        }
      ],
      "name": "allowance",
      "outputs": [
        {
          "internalType": "uint256",
          "name": "",
          "type": "uint256"
        }
      ],
      "stateMutability": "view",
      "type": "function"
    },
    {
      "inputs": [
        {
          "internalType": "address",
          "name": "spender",
          "type": "address"
        },
        {
          "internalType": "uint256",
          "name": "amount",
          "type": "uint256"
        }
      ],
      "name": "approve",
      "outputs": [
        {
          "internalType": "bool",
          "name": "",
          "type": "bool"
        }
      ],
      "stateMutability": "nonpayable",
      "type": "function"
    },
    {
      "inputs": [
        {
          "internalType": "address",
          "name": "_staker",
          "type": "address"
        },
        {
          "internalType": "uint256",
          "name": "_poolID",
          "type": "uint256"
        }
      ],
      "name": "balanceOf",
      "outputs": [
        {
          "internalType": "uint256",
          "name": "",
          "type": "uint256"
        }
      ],
      "stateMutability": "view",
      "type": "function"
    },
    {
      "inputs": [
        {
          "internalType": "address",
          "name": "account",
          "type": "address"
        }
      ],
      "name": "balanceOf",
      "outputs": [
        {
          "internalType": "uint256",
          "name": "",
          "type": "uint256"
        }
      ],
      "stateMutability": "view",
      "type": "function"
    },
    {
      "inputs": [
        {
          "internalType": "uint256",
          "name": "_stake",
          "type": "uint256"
        },
        {
          "internalType": "uint256",
          "name": "_poolID",
          "type": "uint256"
        }
      ],
      "name": "calculateEffectiveAPY",
      "outputs": [
        {
          "internalType": "uint256",
          "name": "toBeMinted",
          "type": "uint256"
        }
      ],
      "stateMutability": "view",
      "type": "function"
    },
    {
      "inputs": [],
      "name": "decimals",
      "outputs": [
        {
          "internalType": "uint8",
          "name": "",
          "type": "uint8"
        }
      ],
      "stateMutability": "view",
      "type": "function"
    },
    {
      "inputs": [
        {
          "internalType": "address",
          "name": "spender",
          "type": "address"
        },
        {
          "internalType": "uint256",
          "name": "subtractedValue",
          "type": "uint256"
        }
      ],
      "name": "decreaseAllowance",
      "outputs": [
        {
          "internalType": "bool",
          "name": "",
          "type": "bool"
        }
      ],
      "stateMutability": "nonpayable",
      "type": "function"
    },
    {
      "inputs": [
        {
          "internalType": "uint256",
          "name": "_poolID",
          "type": "uint256"
        }
      ],
      "name": "getCurrentAPY",
      "outputs": [
        {
          "internalType": "uint256",
          "name": "currentAPY",
          "type": "uint256"
        }
      ],
      "stateMutability": "nonpayable",
      "type": "function"
    },
    {
      "inputs": [
        {
          "internalType": "address",
          "name": "spender",
          "type": "address"
        },
        {
          "internalType": "uint256",
          "name": "addedValue",
          "type": "uint256"
        }
      ],
      "name": "increaseAllowance",
      "outputs": [
        {
          "internalType": "bool",
          "name": "",
          "type": "bool"
        }
      ],
      "stateMutability": "nonpayable",
      "type": "function"
    },
    {
      "inputs": [],
      "name": "name",
      "outputs": [
        {
          "internalType": "string",
          "name": "",
          "type": "string"
        }
      ],
      "stateMutability": "view",
      "type": "function"
    },
    {
      "inputs": [
        {
          "internalType": "uint256",
          "name": "",
          "type": "uint256"
        }
      ],
      "name": "poolInfo",
      "outputs": [
        {
          "components": [
            {
              "internalType": "contract IERC20",
              "name": "token",
              "type": "address"
            },
            {
              "internalType": "uint8",
              "name": "tokenDecimals",
              "type": "uint8"
            },
            {
              "internalType": "uint16",
              "name": "apy",
              "type": "uint16"
            },
            {
              "internalType": "address",
              "name": "projectWallet",
              "type": "address"
            },
            {
              "internalType": "string",
              "name": "projectName",
              "type": "string"
            },
            {
              "internalType": "uint256",
              "name": "poolCap",
              "type": "uint256"
            },
            {
              "internalType": "uint256",
              "name": "totalStaked",
              "type": "uint256"
            },
            {
              "internalType": "uint256",
              "name": "multiplier",
              "type": "uint256"
            }
          ],
          "internalType": "struct ISaloon.GeneralInfo",
          "name": "generalInfo",
          "type": "tuple"
        },
        {
          "components": [
            {
              "internalType": "uint256",
              "name": "projectDepositHeld",
              "type": "uint256"
            },
            {
              "internalType": "uint256",
              "name": "projectDepositInStrategy",
              "type": "uint256"
            }
          ],
          "internalType": "struct ISaloon.DepositInfo",
          "name": "depositInfo",
          "type": "tuple"
        },
        {
          "components": [
            {
              "internalType": "uint256",
              "name": "premiumBalance",
              "type": "uint256"
            },
            {
              "internalType": "uint256",
              "name": "premiumAvailable",
              "type": "uint256"
            }
          ],
          "internalType": "struct ISaloon.PremiumInfo",
          "name": "premiumInfo",
          "type": "tuple"
        },
        {
          "components": [
            {
              "internalType": "uint256",
              "name": "timelock",
              "type": "uint256"
            },
            {
              "internalType": "uint256",
              "name": "timeLimit",
              "type": "uint256"
            },
            {
              "internalType": "uint256",
              "name": "withdrawalScheduledAmount",
              "type": "uint256"
            },
            {
              "internalType": "bool",
              "name": "withdrawalExecuted",
              "type": "bool"
            }
          ],
          "internalType": "struct ISaloon.TimelockInfo",
          "name": "poolTimelock",
          "type": "tuple"
        },
        {
          "components": [
            {
              "internalType": "uint256",
              "name": "currentX",
              "type": "uint256"
            },
            {
              "internalType": "uint256",
              "name": "currentY",
              "type": "uint256"
            },
            {
              "internalType": "uint256",
              "name": "totalSupply",
              "type": "uint256"
            },
            {
              "internalType": "uint256[]",
              "name": "unstakedTokens",
              "type": "uint256[]"
            }
          ],
          "internalType": "struct ISaloon.TokenInfo",
          "name": "tokenInfo",
          "type": "tuple"
        },
        {
          "components": [
            {
              "internalType": "address",
              "name": "referrer",
              "type": "address"
            },
            {
              "internalType": "uint256",
              "name": "referralFee",
              "type": "uint256"
            }
          ],
          "internalType": "struct ISaloon.ReferralInfo",
          "name": "referralInfo",
          "type": "tuple"
        },
        {
          "internalType": "uint256",
          "name": "freezeTime",
          "type": "uint256"
        },
        {
          "internalType": "bool",
          "name": "isActive",
          "type": "bool"
        }
      ],
      "stateMutability": "view",
      "type": "function"
    },
    {
      "inputs": [
        {
          "internalType": "address",
          "name": "_token",
          "type": "address"
        },
        {
          "internalType": "uint256",
          "name": "_amount",
          "type": "uint256"
        }
      ],
      "name": "receiveStrategyYield",
      "outputs": [],
      "stateMutability": "nonpayable",
      "type": "function"
    },
    {
      "inputs": [
        {
          "internalType": "address",
          "name": "",
          "type": "address"
        },
        {
          "internalType": "uint256",
          "name": "",
          "type": "uint256"
        }
      ],
      "name": "stakerBalance",
      "outputs": [
        {
          "internalType": "uint256",
          "name": "",
          "type": "uint256"
        }
      ],
      "stateMutability": "view",
      "type": "function"
    },
    {
      "inputs": [],
      "name": "symbol",
      "outputs": [
        {
          "internalType": "string",
          "name": "",
          "type": "string"
        }
      ],
      "stateMutability": "view",
      "type": "function"
    },
    {
      "inputs": [],
      "name": "totalSupply",
      "outputs": [
        {
          "internalType": "uint256",
          "name": "",
          "type": "uint256"
        }
      ],
      "stateMutability": "view",
      "type": "function"
    },
    {
      "inputs": [
        {
          "internalType": "address",
          "name": "to",
          "type": "address"
        },
        {
          "internalType": "uint256",
          "name": "amount",
          "type": "uint256"
        }
      ],
      "name": "transfer",
      "outputs": [
        {
          "internalType": "bool",
          "name": "",
          "type": "bool"
        }
      ],
      "stateMutability": "nonpayable",
      "type": "function"
    },
    {
      "inputs": [
        {
          "internalType": "address",
          "name": "from",
          "type": "address"
        },
        {
          "internalType": "address",
          "name": "to",
          "type": "address"
        },
        {
          "internalType": "uint256",
          "name": "amount",
          "type": "uint256"
        }
      ],
      "name": "transferFrom",
      "outputs": [
        {
          "internalType": "bool",
          "name": "",
          "type": "bool"
        }
      ],
      "stateMutability": "nonpayable",
      "type": "function"
    }
  ],
  "bytecode": {
    "object": "0x60806040523480156200001157600080fd5b50600054610100900460ff1615808015620000335750600054600160ff909116105b8062000063575062000050306200018e60201b62000dc31760201c565b15801562000063575060005460ff166001145b620000cc5760405162461bcd60e51b815260206004820152602e60248201527f496e697469616c697a61626c653a20636f6e747261637420697320616c72656160448201526d191e481a5b9a5d1a585b1a5e995960921b60648201526084015b60405180910390fd5b6000805460ff191660011790558015620000f0576000805461ff0019166101001790555b620001406040518060400160405280600b81526020016a2137bab73a3caa37b5b2b760a91b8152506040518060400160405280600381526020016210951560ea1b8152506200019d60201b60201c565b801562000187576000805461ff0019169055604051600181527f7f26b83ff96e1f2b6a682f133852f6798a09c465da95921460cefb38474024989060200160405180910390a15b50620003f7565b6001600160a01b03163b151590565b600054610100900460ff16620001f95760405162461bcd60e51b815260206004820152602b602482015260008051602062001d5583398151915260448201526a6e697469616c697a696e6760a81b6064820152608401620000c3565b62000205828262000209565b5050565b600054610100900460ff16620002655760405162461bcd60e51b815260206004820152602b602482015260008051602062001d5583398151915260448201526a6e697469616c697a696e6760a81b6064820152608401620000c3565b60366200027383826200032b565b5060376200028282826200032b565b505050565b634e487b7160e01b600052604160045260246000fd5b600181811c90821680620002b257607f821691505b602082108103620002d357634e487b7160e01b600052602260045260246000fd5b50919050565b601f8211156200028257600081815260208120601f850160051c81016020861015620003025750805b601f850160051c820191505b8181101562000323578281556001016200030e565b505050505050565b81516001600160401b0381111562000347576200034762000287565b6200035f816200035884546200029d565b84620002d9565b602080601f8311600181146200039757600084156200037e5750858301515b600019600386901b1c1916600185901b17855562000323565b600085815260208120601f198616915b82811015620003c857888601518255948401946001909101908401620003a7565b5085821015620003e75787850151600019600388901b60f8161c191681555b5050505050600190811b01905550565b61194e80620004076000396000f3fe608060405234801561001057600080fd5b506004361061010a5760003560e01c806339509351116100a25780637fbf3853116100715780637fbf38531461024c57806395d89b411461025f578063a457c2d714610267578063a9059cbb1461027a578063dd62ed3e1461028d57600080fd5b806339509351146101d25780635c46f7b1146101e557806370882b47146101f857806370a082311461022357600080fd5b806318160ddd116100de57806318160ddd146101945780631aebcecb1461019c57806323b872dd146101b0578063313ce567146101c357600080fd5b8062fdd58e1461010f57806306fdde0314610135578063095ea7b31461014a5780631526fe271461016d575b600080fd5b61012261011d36600461155a565b6102a0565b6040519081526020015b60405180910390f35b61013d6102cb565b60405161012c91906115ca565b61015d61015836600461155a565b61035d565b604051901515815260200161012c565b61018061017b3660046115dd565b610375565b60405161012c989796959493929190611661565b603554610122565b6101ae6101aa36600461155a565b5050565b005b61015d6101be366004611791565b6105c5565b6040516012815260200161012c565b61015d6101e036600461155a565b6105eb565b6101226101f33660046117cd565b61060d565b61012261020636600461155a565b606660209081526000928352604080842090915290825290205481565b6101226102313660046117ef565b6001600160a01b031660009081526033602052604090205490565b61012261025a3660046115dd565b6109f7565b61013d610cf0565b61015d61027536600461155a565b610cff565b61015d61028836600461155a565b610d8a565b61012261029b36600461180a565b610d98565b6001600160a01b03821660009081526066602090815260408083208484529091529020545b92915050565b6060603680546102da9061183d565b80601f01602080910402602001604051908101604052809291908181526020018280546103069061183d565b80156103535780601f1061032857610100808354040283529160200191610353565b820191906000526020600020905b81548152906001019060200180831161033657829003601f168201915b5050505050905090565b60003361036b818585610dd2565b5060019392505050565b6065818154811061038557600080fd5b60009182526020918290206040805161010081018252601790930290910180546001600160a01b03808216855260ff600160a01b8304169585019590955261ffff600160a81b9091041691830191909152600181015490921660608201526002820180549293509091839160808401916103fe9061183d565b80601f016020809104026020016040519081016040528092919081815260200182805461042a9061183d565b80156104775780601f1061044c57610100808354040283529160200191610477565b820191906000526020600020905b81548152906001019060200180831161045a57829003601f168201915b50505091835250506003820154602080830191909152600483015460408084019190915260059093015460609283015282518084018452600686015481526007860154818301528351808501855260088701548152600987015481840152845160808082018752600a8901548252600b89015482860152600c89015482880152600d89015460ff1615158287015286519081018752600e890180548252600f8a01548287015260108a01548289015260118a018054895181890281018901909a52808a52999a959994989397959692959194918601939290919083018282801561058057602002820191906000526020600020905b81548152602001906001019080831161056c575b5050509190925250506040805180820190915260128401546001600160a01b031681526013840154602082015260158401546016909401549293909290915060ff1688565b6000336105d3858285610ef6565b6105de858585610f70565b60019150505b9392505050565b60003361036b8185856105fe8383610d98565b610608919061188d565b610dd2565b60008060658381548110610623576106236118a0565b6000918252602090912060408051610220810190915260179092020180546001600160a01b038082166101208501908152600160a01b830460ff16610140860152600160a81b90920461ffff1661016085015260018301541661018084015260028201805484929184916101a08501919061069d9061183d565b80601f01602080910402602001604051908101604052809291908181526020018280546106c99061183d565b80156107165780601f106106eb57610100808354040283529160200191610716565b820191906000526020600020905b8154815290600101906020018083116106f957829003601f168201915b505050918352505060038201546020808301919091526004830154604080840191909152600590930154606092830152928452815180830183526006860154815260078601548185015284840152815180830183526008860154815260098601548185015284830152815160808082018452600a8701548252600b87015482860152600c87015482850152600d87015460ff161515828401528583019190915282518082018452600e870180548252600f8801548287015260108801548286015260118801805486518189028101890190975280875293909701969195909493860193929083018282801561082a57602002820191906000526020600020905b815481526020019060010190808311610816575b50505091909252505050815260408051808201825260128401546001600160a01b031681526013840154602082810191909152808401919091526014840180548351818402810184018552818152939094019390918301828280156108b857602002820191906000526020600020905b81546001600160a01b0316815260019091019060200180831161089a575b50505091835250506015820154602082015260169091015460ff16151560409091015260808101515190915060006108f0868661111b565b50905060006108ff838361188d565b9050600061090e8260216118b6565b61092090674563918244f4000061188d565b9050600061092f8560216118b6565b61094190674563918244f4000061188d565b9050600061095661095184611177565b6111c0565b9050600061096661095184611177565b905060006109a46109776021611177565b61099e61098486866111f8565b6109986a295be96e64066972000000611177565b90611207565b90611216565b905060006109b588620f42406118b6565b6109bf90836118e3565b8a5160e00151909150670de0b6b3a76400006109db82846118b6565b6109e591906118e3565b9e9d5050505050505050505050505050565b60008060658381548110610a0d57610a0d6118a0565b6000918252602090912060408051610220810190915260179092020180546001600160a01b038082166101208501908152600160a01b830460ff16610140860152600160a81b90920461ffff1661016085015260018301541661018084015260028201805484929184916101a085019190610a879061183d565b80601f0160208091040260200160405190810160405280929190818152602001828054610ab39061183d565b8015610b005780601f10610ad557610100808354040283529160200191610b00565b820191906000526020600020905b815481529060010190602001808311610ae357829003601f168201915b505050918352505060038201546020808301919091526004830154604080840191909152600590930154606092830152928452815180830183526006860154815260078601548185015284840152815180830183526008860154815260098601548185015284830152815160808082018452600a8701548252600b87015482860152600c87015482850152600d87015460ff161515828401528583019190915282518082018452600e870180548252600f88015482870152601088015482860152601188018054865181890281018901909752808752939097019691959094938601939290830182828015610c1457602002820191906000526020600020905b815481526020019060010190808311610c00575b50505091909252505050815260408051808201825260128401546001600160a01b03168152601384015460208281019190915280840191909152601484018054835181840281018401855281815293909401939091830182828015610ca257602002820191906000526020600020905b81546001600160a01b03168152600190910190602001808311610c84575b50505091835250506015820154602082015260169091015460ff161515604090910152608081015151815160e0015191925090610cde8261122e565b610ce891906118b6565b949350505050565b6060603780546102da9061183d565b60003381610d0d8286610d98565b905083811015610d725760405162461bcd60e51b815260206004820152602560248201527f45524332303a2064656372656173656420616c6c6f77616e63652062656c6f77604482015264207a65726f60d81b60648201526084015b60405180910390fd5b610d7f8286868403610dd2565b506001949350505050565b60003361036b818585610f70565b6001600160a01b03918216600090815260346020908152604080832093909416825291909152205490565b6001600160a01b03163b151590565b6001600160a01b038316610e345760405162461bcd60e51b8152602060048201526024808201527f45524332303a20617070726f76652066726f6d20746865207a65726f206164646044820152637265737360e01b6064820152608401610d69565b6001600160a01b038216610e955760405162461bcd60e51b815260206004820152602260248201527f45524332303a20617070726f766520746f20746865207a65726f206164647265604482015261737360f01b6064820152608401610d69565b6001600160a01b0383811660008181526034602090815260408083209487168084529482529182902085905590518481527f8c5be1e5ebec7d5bd14f71427d1e84f3dd0314c0f7b2291e5b200ac8c7c3b925910160405180910390a3505050565b6000610f028484610d98565b90506000198114610f6a5781811015610f5d5760405162461bcd60e51b815260206004820152601d60248201527f45524332303a20696e73756666696369656e7420616c6c6f77616e63650000006044820152606401610d69565b610f6a8484848403610dd2565b50505050565b6001600160a01b038316610fd45760405162461bcd60e51b815260206004820152602560248201527f45524332303a207472616e736665722066726f6d20746865207a65726f206164604482015264647265737360d81b6064820152608401610d69565b6001600160a01b0382166110365760405162461bcd60e51b815260206004820152602360248201527f45524332303a207472616e7366657220746f20746865207a65726f206164647260448201526265737360e81b6064820152608401610d69565b6001600160a01b038316600090815260336020526040902054818110156110ae5760405162461bcd60e51b815260206004820152602660248201527f45524332303a207472616e7366657220616d6f756e7420657863656564732062604482015265616c616e636560d01b6064820152608401610d69565b6001600160a01b0380851660008181526033602052604080822086860390559286168082529083902080548601905591517fddf252ad1be2c89b69c2b068fc378daa952ba7f163c4a11628f55a4df523b3ef9061110e9086815260200190565b60405180910390a3610f6a565b60008060658381548110611131576111316118a0565b6000918252602090912060036017909202010154611157670de0b6b3a7640000866118b6565b61116191906118e3565b905061116e8160056118b6565b91509250929050565b600061118d670de0b6b3a76400006000196118e3565b8211156111b0576040516322630c4560e01b815260048101839052602401610d69565b670de0b6b3a764000082026102c5565b60006102c56714057b7ef767814f670de0b6b3a76400006111e66111e386611283565b90565b02816111f4576111f46118cd565b0490565b60006105e46111e38385611905565b60006105e46111e384846113b6565b60006105e46111e384670de0b6b3a76400008561146a565b600080670de0b6b3a764000061124c84670928ca80cfc200006118b6565b61125691906118e3565b6112689067016345785d8a000061188d565b90506105e4816ec097ce7bc90715b34b9f10000000006118e3565b600081670de0b6b3a76400008110156112b257604051633621413760e21b815260048101849052602401610d69565b600061133e670de0b6b3a7640000830460016fffffffffffffffffffffffffffffffff821160071b91821c67ffffffffffffffff811160061b90811c63ffffffff811160051b90811c61ffff811160041b90811c60ff8111600390811b91821c600f811160021b90811c918211871b91821c969096119490961792909217171791909117919091171790565b9050670de0b6b3a7640000810282821c670de0b6b3a763ffff1981016113675750949350505050565b671bc16d674ec800006706f05b59d3b200005b80156113aa57670de0b6b3a76400008380020492508183106113a2579283019260019290921c915b60011c61137a565b50919695505050505050565b60008080600019848609848602925082811083820303915050670de0b6b3a764000081106114015760405163090638d560e41b81526004810186905260248101859052604401610d69565b6000670de0b6b3a764000085870990508160000361142d575050670de0b6b3a7640000900490506102c5565b620400008184030492109003600160ee1b02177faccb18165bd6fe31ae1cf318dc5b51eee0e1ba569b88cd74c1773b91fac1066902905092915050565b60008080600019858709858702925082811083820303915050806000036114a45783828161149a5761149a6118cd565b04925050506105e4565b8381106114d5576040516307639aaf60e41b8152600481018790526024810186905260448101859052606401610d69565b60008486880960026001871981018816978890046003810283188082028403028082028403028082028403028082028403028082028403029081029092039091026000889003889004909101858311909403939093029303949094049190911702949350505050565b80356001600160a01b038116811461155557600080fd5b919050565b6000806040838503121561156d57600080fd5b6115768361153e565b946020939093013593505050565b6000815180845260005b818110156115aa5760208185018101518683018201520161158e565b506000602082860101526020601f19601f83011685010191505092915050565b6020815260006105e46020830184611584565b6000602082840312156115ef57600080fd5b5035919050565b60006080830182518452602080840151818601526040840151604086015260608401516080606087015282815180855260a0880191508383019450600092505b808310156116565784518252938301936001929092019190830190611636565b509695505050505050565b6101c080825289516001600160a01b039081169183019190915260208a015160ff166101e083015260408a015161ffff1661020083015260608a01511661022082015260808901516101006102408301526000906116c36102c0840182611584565b905060a08b015161026084015260c08b015161028084015260e08b01516102a08401526116fd602084018b80518252602090810151910152565b8851606084015260208901516080840152875160a0840152602088015160c0840152604088015160e08401526060880151151561010084015282810361012084015261174981886115f6565b86516001600160a01b03166101408501526020870151610160850152915061176e9050565b836101808301526117846101a083018415159052565b9998505050505050505050565b6000806000606084860312156117a657600080fd5b6117af8461153e565b92506117bd6020850161153e565b9150604084013590509250925092565b600080604083850312156117e057600080fd5b50508035926020909101359150565b60006020828403121561180157600080fd5b6105e48261153e565b6000806040838503121561181d57600080fd5b6118268361153e565b91506118346020840161153e565b90509250929050565b600181811c9082168061185157607f821691505b60208210810361187157634e487b7160e01b600052602260045260246000fd5b50919050565b634e487b7160e01b600052601160045260246000fd5b808201808211156102c5576102c5611877565b634e487b7160e01b600052603260045260246000fd5b80820281158282048414176102c5576102c5611877565b634e487b7160e01b600052601260045260246000fd5b60008261190057634e487b7160e01b600052601260045260246000fd5b500490565b818103818111156102c5576102c561187756fea264697066735822122046de0626cafd486a4603db195887f9d8206c9f58ee8194ece4919c7bdbb8403464736f6c63430008110033496e697469616c697a61626c653a20636f6e7472616374206973206e6f742069",
    "linkReferences": {}
  },
  "methodIdentifiers": {
    "allowance(address,address)": "dd62ed3e",
    "approve(address,uint256)": "095ea7b3",
    "balanceOf(address)": "70a08231",
    "balanceOf(address,uint256)": "00fdd58e",
    "calculateEffectiveAPY(uint256,uint256)": "5c46f7b1",
    "decimals()": "313ce567",
    "decreaseAllowance(address,uint256)": "a457c2d7",
    "getCurrentAPY(uint256)": "7fbf3853",
    "increaseAllowance(address,uint256)": "39509351",
    "name()": "06fdde03",
    "poolInfo(uint256)": "1526fe27",
    "receiveStrategyYield(address,uint256)": "1aebcecb",
    "stakerBalance(address,uint256)": "70882b47",
    "symbol()": "95d89b41",
    "totalSupply()": "18160ddd",
    "transfer(address,uint256)": "a9059cbb",
    "transferFrom(address,address,uint256)": "23b872dd"
  },
  "id": 45
}