{
  "abi": [
    {
      "inputs": [],
      "stateMutability": "nonpayable",
      "type": "constructor"
    },
    {
      "inputs": [
        {
          "internalType": "UD60x18",
          "name": "x",
          "type": "uint256"
        }
      ],
      "name": "PRBMathUD60x18__LogInputTooSmall",
      "type": "error"
    },
    {
      "inputs": [
        {
          "internalType": "uint256",
          "name": "x",
          "type": "uint256"
        }
      ],
      "name": "PRBMathUD60x18__ToUD60x18Overflow",
      "type": "error"
    },
    {
      "inputs": [
        {
          "internalType": "uint256",
          "name": "x",
          "type": "uint256"
        },
        {
          "internalType": "uint256",
          "name": "y",
          "type": "uint256"
        }
      ],
      "name": "PRBMath__MulDiv18Overflow",
      "type": "error"
    },
    {
      "inputs": [
        {
          "internalType": "uint256",
          "name": "x",
          "type": "uint256"
        },
        {
          "internalType": "uint256",
          "name": "y",
          "type": "uint256"
        },
        {
          "internalType": "uint256",
          "name": "denominator",
          "type": "uint256"
        }
      ],
      "name": "PRBMath__MulDivOverflow",
      "type": "error"
    },
    {
      "anonymous": false,
      "inputs": [
        {
          "indexed": true,
          "internalType": "address",
          "name": "owner",
          "type": "address"
        },
        {
          "indexed": true,
          "internalType": "address",
          "name": "spender",
          "type": "address"
        },
        {
          "indexed": false,
          "internalType": "uint256",
          "name": "value",
          "type": "uint256"
        }
      ],
      "name": "Approval",
      "type": "event"
    },
    {
      "anonymous": false,
      "inputs": [
        {
          "indexed": false,
          "internalType": "uint8",
          "name": "version",
          "type": "uint8"
        }
      ],
      "name": "Initialized",
      "type": "event"
    },
    {
      "anonymous": false,
      "inputs": [
        {
          "indexed": true,
          "internalType": "address",
          "name": "from",
          "type": "address"
        },
        {
          "indexed": true,
          "internalType": "address",
          "name": "to",
          "type": "address"
        },
        {
          "indexed": false,
          "internalType": "uint256",
          "name": "value",
          "type": "uint256"
        }
      ],
      "name": "Transfer",
      "type": "event"
    },
    {
      "inputs": [
        {
          "internalType": "address",
          "name": "owner",
          "type": "address"
        },
        {
          "internalType": "address",
          "name": "spender",
          "type": "address"
        }
      ],
      "name": "allowance",
      "outputs": [
        {
          "internalType": "uint256",
          "name": "",
          "type": "uint256"
        }
      ],
      "stateMutability": "view",
      "type": "function"
    },
    {
      "inputs": [
        {
          "internalType": "address",
          "name": "spender",
          "type": "address"
        },
        {
          "internalType": "uint256",
          "name": "amount",
          "type": "uint256"
        }
      ],
      "name": "approve",
      "outputs": [
        {
          "internalType": "bool",
          "name": "",
          "type": "bool"
        }
      ],
      "stateMutability": "nonpayable",
      "type": "function"
    },
    {
      "inputs": [
        {
          "internalType": "address",
          "name": "account",
          "type": "address"
        }
      ],
      "name": "balanceOf",
      "outputs": [
        {
          "internalType": "uint256",
          "name": "",
          "type": "uint256"
        }
      ],
      "stateMutability": "view",
      "type": "function"
    },
    {
      "inputs": [
        {
          "internalType": "uint256",
          "name": "_stake",
          "type": "uint256"
        },
        {
          "internalType": "uint256",
          "name": "_poolID",
          "type": "uint256"
        }
      ],
      "name": "calculateEffectiveAPY",
      "outputs": [
        {
          "internalType": "uint256",
          "name": "toBeMinted",
          "type": "uint256"
        }
      ],
      "stateMutability": "view",
      "type": "function"
    },
    {
      "inputs": [],
      "name": "decimals",
      "outputs": [
        {
          "internalType": "uint8",
          "name": "",
          "type": "uint8"
        }
      ],
      "stateMutability": "view",
      "type": "function"
    },
    {
      "inputs": [
        {
          "internalType": "address",
          "name": "spender",
          "type": "address"
        },
        {
          "internalType": "uint256",
          "name": "subtractedValue",
          "type": "uint256"
        }
      ],
      "name": "decreaseAllowance",
      "outputs": [
        {
          "internalType": "bool",
          "name": "",
          "type": "bool"
        }
      ],
      "stateMutability": "nonpayable",
      "type": "function"
    },
    {
      "inputs": [],
      "name": "getCurrentAPY",
      "outputs": [
        {
          "internalType": "uint256",
          "name": "result",
          "type": "uint256"
        }
      ],
      "stateMutability": "nonpayable",
      "type": "function"
    },
    {
      "inputs": [
        {
          "internalType": "address",
          "name": "spender",
          "type": "address"
        },
        {
          "internalType": "uint256",
          "name": "addedValue",
          "type": "uint256"
        }
      ],
      "name": "increaseAllowance",
      "outputs": [
        {
          "internalType": "bool",
          "name": "",
          "type": "bool"
        }
      ],
      "stateMutability": "nonpayable",
      "type": "function"
    },
    {
      "inputs": [],
      "name": "name",
      "outputs": [
        {
          "internalType": "string",
          "name": "",
          "type": "string"
        }
      ],
      "stateMutability": "view",
      "type": "function"
    },
    {
      "inputs": [
        {
          "internalType": "uint256",
          "name": "",
          "type": "uint256"
        }
      ],
      "name": "poolInfo",
      "outputs": [
        {
          "components": [
            {
              "internalType": "contract IERC20",
              "name": "token",
              "type": "address"
            },
            {
              "internalType": "uint8",
              "name": "tokenDecimals",
              "type": "uint8"
            },
            {
              "internalType": "uint16",
              "name": "apy",
              "type": "uint16"
            },
            {
              "internalType": "address",
              "name": "projectWallet",
              "type": "address"
            },
            {
              "internalType": "string",
              "name": "projectName",
              "type": "string"
            },
            {
              "internalType": "uint256",
              "name": "projectDeposit",
              "type": "uint256"
            },
            {
              "internalType": "uint256",
              "name": "poolCap",
              "type": "uint256"
            },
            {
              "internalType": "uint256",
              "name": "totalStaked",
              "type": "uint256"
            },
            {
              "internalType": "uint256",
              "name": "multiplier",
              "type": "uint256"
            }
          ],
          "internalType": "struct ISaloon.GeneralInfo",
          "name": "generalInfo",
          "type": "tuple"
        },
        {
          "components": [
            {
              "internalType": "uint256",
              "name": "requiredPremiumBalancePerPeriod",
              "type": "uint256"
            },
            {
              "internalType": "uint256",
              "name": "premiumBalance",
              "type": "uint256"
            },
            {
              "internalType": "uint256",
              "name": "premiumAvailable",
              "type": "uint256"
            }
          ],
          "internalType": "struct ISaloon.PremiumInfo",
          "name": "premiumInfo",
          "type": "tuple"
        },
        {
          "components": [
            {
              "internalType": "uint256",
              "name": "timelock",
              "type": "uint256"
            },
            {
              "internalType": "uint256",
              "name": "timeLimit",
              "type": "uint256"
            },
            {
              "internalType": "uint256",
              "name": "withdrawalScheduledAmount",
              "type": "uint256"
            },
            {
              "internalType": "bool",
              "name": "withdrawalExecuted",
              "type": "bool"
            }
          ],
          "internalType": "struct ISaloon.TimelockInfo",
          "name": "poolTimelock",
          "type": "tuple"
        },
        {
          "components": [
            {
              "internalType": "uint256",
              "name": "currentX",
              "type": "uint256"
            },
            {
              "internalType": "uint256",
              "name": "currentY",
              "type": "uint256"
            }
          ],
          "internalType": "struct ISaloon.TokenInfo",
          "name": "tokenInfo",
          "type": "tuple"
        },
        {
          "internalType": "uint256",
          "name": "freezeTime",
          "type": "uint256"
        },
        {
          "internalType": "bool",
          "name": "isActive",
          "type": "bool"
        }
      ],
      "stateMutability": "view",
      "type": "function"
    },
    {
      "inputs": [],
      "name": "symbol",
      "outputs": [
        {
          "internalType": "string",
          "name": "",
          "type": "string"
        }
      ],
      "stateMutability": "view",
      "type": "function"
    },
    {
      "inputs": [],
      "name": "totalSupply",
      "outputs": [
        {
          "internalType": "uint256",
          "name": "",
          "type": "uint256"
        }
      ],
      "stateMutability": "view",
      "type": "function"
    },
    {
      "inputs": [
        {
          "internalType": "address",
          "name": "to",
          "type": "address"
        },
        {
          "internalType": "uint256",
          "name": "amount",
          "type": "uint256"
        }
      ],
      "name": "transfer",
      "outputs": [
        {
          "internalType": "bool",
          "name": "",
          "type": "bool"
        }
      ],
      "stateMutability": "nonpayable",
      "type": "function"
    },
    {
      "inputs": [
        {
          "internalType": "address",
          "name": "from",
          "type": "address"
        },
        {
          "internalType": "address",
          "name": "to",
          "type": "address"
        },
        {
          "internalType": "uint256",
          "name": "amount",
          "type": "uint256"
        }
      ],
      "name": "transferFrom",
      "outputs": [
        {
          "internalType": "bool",
          "name": "",
          "type": "bool"
        }
      ],
      "stateMutability": "nonpayable",
      "type": "function"
    }
  ],
  "bytecode": {
    "object": "0x60806040523480156200001157600080fd5b50600054610100900460ff1615808015620000335750600054600160ff909116105b8062000063575062000050306200018e60201b620009111760201c565b15801562000063575060005460ff166001145b620000cc5760405162461bcd60e51b815260206004820152602e60248201527f496e697469616c697a61626c653a20636f6e747261637420697320616c72656160448201526d191e481a5b9a5d1a585b1a5e995960921b60648201526084015b60405180910390fd5b6000805460ff191660011790558015620000f0576000805461ff0019166101001790555b620001406040518060400160405280600b81526020016a2137bab73a3caa37b5b2b760a91b8152506040518060400160405280600381526020016210951560ea1b8152506200019d60201b60201c565b801562000187576000805461ff0019169055604051600181527f7f26b83ff96e1f2b6a682f133852f6798a09c465da95921460cefb38474024989060200160405180910390a15b50620003f7565b6001600160a01b03163b151590565b600054610100900460ff16620001f95760405162461bcd60e51b815260206004820152602b60248201526000805160206200182983398151915260448201526a6e697469616c697a696e6760a81b6064820152608401620000c3565b62000205828262000209565b5050565b600054610100900460ff16620002655760405162461bcd60e51b815260206004820152602b60248201526000805160206200182983398151915260448201526a6e697469616c697a696e6760a81b6064820152608401620000c3565b60366200027383826200032b565b5060376200028282826200032b565b505050565b634e487b7160e01b600052604160045260246000fd5b600181811c90821680620002b257607f821691505b602082108103620002d357634e487b7160e01b600052602260045260246000fd5b50919050565b601f8211156200028257600081815260208120601f850160051c81016020861015620003025750805b601f850160051c820191505b8181101562000323578281556001016200030e565b505050505050565b81516001600160401b0381111562000347576200034762000287565b6200035f816200035884546200029d565b84620002d9565b602080601f8311600181146200039757600084156200037e5750858301515b600019600386901b1c1916600185901b17855562000323565b600085815260208120601f198616915b82811015620003c857888601518255948401946001909101908401620003a7565b5085821015620003e75787850151600019600388901b60f8161c191681555b5050505050600190811b01905550565b61142280620004076000396000f3fe608060405234801561001057600080fd5b50600436106100ea5760003560e01c80635c46f7b11161008c578063962ca49611610066578063962ca496146101e0578063a457c2d7146101e8578063a9059cbb146101fb578063dd62ed3e1461020e57600080fd5b80635c46f7b11461019c57806370a08231146101af57806395d89b41146101d857600080fd5b806318160ddd116100c857806318160ddd1461015557806323b872dd14610167578063313ce5671461017a578063395093511461018957600080fd5b806306fdde03146100ef578063095ea7b31461010d5780631526fe2714610130575b600080fd5b6100f7610221565b60405161010491906110df565b60405180910390f35b61012061011b36600461110e565b6102b3565b6040519015158152602001610104565b61014361013e366004611138565b6102cd565b60405161010496959493929190611151565b6035545b604051908152602001610104565b610120610175366004611265565b610492565b60405160128152602001610104565b61012061019736600461110e565b6104b8565b6101596101aa3660046112a1565b6104da565b6101596101bd3660046112c3565b6001600160a01b031660009081526033602052604090205490565b6100f761082c565b61015961083b565b6101206101f636600461110e565b61084d565b61012061020936600461110e565b6108d8565b61015961021c3660046112de565b6108e6565b60606036805461023090611311565b80601f016020809104026020016040519081016040528092919081815260200182805461025c90611311565b80156102a95780601f1061027e576101008083540402835291602001916102a9565b820191906000526020600020905b81548152906001019060200180831161028c57829003601f168201915b5050505050905090565b6000336102c1818585610920565b60019150505b92915050565b606581815481106102dd57600080fd5b60009182526020918290206040805161012081018252601390930290910180546001600160a01b03808216855260ff600160a01b8304169585019590955261ffff600160a81b90910416918301919091526001810154909216606082015260028201805492935090918391608084019161035690611311565b80601f016020809104026020016040519081016040528092919081815260200182805461038290611311565b80156103cf5780601f106103a4576101008083540402835291602001916103cf565b820191906000526020600020905b8154815290600101906020018083116103b257829003601f168201915b5050509183525050600382015460208083019190915260048301546040808401919091526005840154606080850191909152600690940154608093840152805180850182526007870154815260088701548184015260098701548183015281519384018252600a8701548452600b87015484840152600c87015484830152600d87015460ff9081161515958501959095528151808301909252600e8701548252600f87015492820192909252601186015460129096015494959194929390921686565b6000336104a0858285610a44565b6104ab858585610abe565b60019150505b9392505050565b6000336102c18185856104cb83836108e6565b6104d59190611361565b610920565b600080606583815481106104f0576104f0611374565b6000918252602090912060408051610200810190915260139092020180546001600160a01b0380821660e08501908152600160a01b830460ff16610100860152600160a81b90920461ffff1661012085015260018301541661014084015260028201805484929184916101608501919061056990611311565b80601f016020809104026020016040519081016040528092919081815260200182805461059590611311565b80156105e25780601f106105b7576101008083540402835291602001916105e2565b820191906000526020600020905b8154815290600101906020018083116105c557829003601f168201915b505050918352505060038201546020808301919091526004830154604080840191909152600584015460608085019190915260069094015460809384015293855283518084018552600787015481526008870154818301526009870154818601528582015283518083018552600a8701548152600b87015481830152600c87015481860152600d87015460ff161515818501528585015283518085018552600e8701548152600f8701548183015292850192909252601085018054845181850281018501909552808552949091019390918301828280156106ec57602002820191906000526020600020905b81546001600160a01b031681526001909101906020018083116106ce575b50505091835250506011820154602082015260129091015460ff16151560409091015260608101515190915060006107248686610c69565b50905060006107338383611361565b9050600061074282602161138a565b61075490674563918244f40000611361565b9050600061076385602161138a565b61077590674563918244f40000611361565b9050600061078a61078584610cc5565b610d0e565b9050600061079a61078584610cc5565b905060006107d86107ab6021610cc5565b6107d26107b88686610d46565b6107cc6a295be96e64066972000000610cc5565b90610d55565b90610d64565b905060006107e988620f424061138a565b6107f390836113b7565b8a516101000151909150670de0b6b3a7640000610810828461138a565b61081a91906113b7565b9e9d5050505050505050505050505050565b60606037805461023090611311565b60008061084781610d7c565b91505090565b6000338161085b82866108e6565b9050838110156108c05760405162461bcd60e51b815260206004820152602560248201527f45524332303a2064656372656173656420616c6c6f77616e63652062656c6f77604482015264207a65726f60d81b60648201526084015b60405180910390fd5b6108cd8286868403610920565b506001949350505050565b6000336102c1818585610abe565b6001600160a01b03918216600090815260346020908152604080832093909416825291909152205490565b6001600160a01b03163b151590565b6001600160a01b0383166109825760405162461bcd60e51b8152602060048201526024808201527f45524332303a20617070726f76652066726f6d20746865207a65726f206164646044820152637265737360e01b60648201526084016108b7565b6001600160a01b0382166109e35760405162461bcd60e51b815260206004820152602260248201527f45524332303a20617070726f766520746f20746865207a65726f206164647265604482015261737360f01b60648201526084016108b7565b6001600160a01b0383811660008181526034602090815260408083209487168084529482529182902085905590518481527f8c5be1e5ebec7d5bd14f71427d1e84f3dd0314c0f7b2291e5b200ac8c7c3b925910160405180910390a3505050565b6000610a5084846108e6565b90506000198114610ab85781811015610aab5760405162461bcd60e51b815260206004820152601d60248201527f45524332303a20696e73756666696369656e7420616c6c6f77616e636500000060448201526064016108b7565b610ab88484848403610920565b50505050565b6001600160a01b038316610b225760405162461bcd60e51b815260206004820152602560248201527f45524332303a207472616e736665722066726f6d20746865207a65726f206164604482015264647265737360d81b60648201526084016108b7565b6001600160a01b038216610b845760405162461bcd60e51b815260206004820152602360248201527f45524332303a207472616e7366657220746f20746865207a65726f206164647260448201526265737360e81b60648201526084016108b7565b6001600160a01b03831660009081526033602052604090205481811015610bfc5760405162461bcd60e51b815260206004820152602660248201527f45524332303a207472616e7366657220616d6f756e7420657863656564732062604482015265616c616e636560d01b60648201526084016108b7565b6001600160a01b0380851660008181526033602052604080822086860390559286168082529083902080548601905591517fddf252ad1be2c89b69c2b068fc378daa952ba7f163c4a11628f55a4df523b3ef90610c5c9086815260200190565b60405180910390a3610ab8565b60008060658381548110610c7f57610c7f611374565b6000918252602090912060046013909202010154610ca5670de0b6b3a76400008661138a565b610caf91906113b7565b9050610cbc81600561138a565b91509250929050565b6000610cdb670de0b6b3a76400006000196113b7565b821115610cfe576040516322630c4560e01b8152600481018390526024016108b7565b670de0b6b3a764000082026102c7565b60006102c76714057b7ef767814f670de0b6b3a7640000610d34610d3186610ddc565b90565b0281610d4257610d426113a1565b0490565b60006104b1610d3183856113d9565b60006104b1610d318484610f11565b60006104b1610d3184670de0b6b3a764000085610fc5565b600080670de0b6b3a7640000610d9a84670928ca80cfc2000061138a565b610da491906113b7565b610db69067016345785d8a0000611361565b90506000610dd3826ec097ce7bc90715b34b9f10000000006113b7565b90505050919050565b600081670de0b6b3a7640000811015610e0b57604051633621413760e21b8152600481018490526024016108b7565b6000610e97670de0b6b3a7640000830460016fffffffffffffffffffffffffffffffff821160071b91821c67ffffffffffffffff811160061b90811c63ffffffff811160051b90811c61ffff811160041b90811c60ff8111600390811b91821c600f811160021b90811c918211871b91821c969096119490961792909217171791909117919091171790565b9050670de0b6b3a7640000810282821c670de0b6b3a763ffff198101610ec05750949350505050565b671bc16d674ec800006706f05b59d3b200005b8015610f0357670de0b6b3a7640000838002049250818310610efb579283019260019290921c915b60011c610ed3565b50825b979650505050505050565b60008080600019848609848602925082811083820303915050670de0b6b3a76400008110610f5c5760405163090638d560e41b815260048101869052602481018590526044016108b7565b6000670de0b6b3a7640000858709905081600003610f88575050670de0b6b3a7640000900490506102c7565b620400008184030492109003600160ee1b02177faccb18165bd6fe31ae1cf318dc5b51eee0e1ba569b88cd74c1773b91fac1066902905092915050565b6000808060001985870985870292508281108382030391505080600003610fff57838281610ff557610ff56113a1565b04925050506104b1565b838110611030576040516307639aaf60e41b81526004810187905260248101869052604481018590526064016108b7565b60008486880960026001871981018816978890046003810283188082028403028082028403028082028403028082028403028082028403029081029092039091026000889003889004909101858311909403939093029303949094049190911702949350505050565b6000815180845260005b818110156110bf576020818501810151868301820152016110a3565b506000602082860101526020601f19601f83011685010191505092915050565b6020815260006104b16020830184611099565b80356001600160a01b038116811461110957600080fd5b919050565b6000806040838503121561112157600080fd5b61112a836110f2565b946020939093013593505050565b60006020828403121561114a57600080fd5b5035919050565b600061018080835261116e8184018a516001600160a01b03169052565b50602088015160ff166101a0830152604088015161ffff166101c083015260608801516001600160a01b03166101e083015260808801516101206102008401526111bc6102a0840182611099565b905060a089015161022084015260c089015161024084015260e0890151610260840152610100808a0151610280850152819250611210602085018a8051825260208082015190830152604090810151910152565b87516080850152602088015160a0850152604088015160c08501526060880151151560e085015261124d8185018880518252602090810151910152565b505083610140830152610f0661016083018415159052565b60008060006060848603121561127a57600080fd5b611283846110f2565b9250611291602085016110f2565b9150604084013590509250925092565b600080604083850312156112b457600080fd5b50508035926020909101359150565b6000602082840312156112d557600080fd5b6104b1826110f2565b600080604083850312156112f157600080fd5b6112fa836110f2565b9150611308602084016110f2565b90509250929050565b600181811c9082168061132557607f821691505b60208210810361134557634e487b7160e01b600052602260045260246000fd5b50919050565b634e487b7160e01b600052601160045260246000fd5b808201808211156102c7576102c761134b565b634e487b7160e01b600052603260045260246000fd5b80820281158282048414176102c7576102c761134b565b634e487b7160e01b600052601260045260246000fd5b6000826113d457634e487b7160e01b600052601260045260246000fd5b500490565b818103818111156102c7576102c761134b56fea2646970667358221220ef90486d87f2c7661a283a8a7c0a700296631e415ead663bdb20eed7a7d5b8f164736f6c63430008110033496e697469616c697a61626c653a20636f6e7472616374206973206e6f742069",
    "linkReferences": {}
  },
  "methodIdentifiers": {
    "allowance(address,address)": "dd62ed3e",
    "approve(address,uint256)": "095ea7b3",
    "balanceOf(address)": "70a08231",
    "calculateEffectiveAPY(uint256,uint256)": "5c46f7b1",
    "decimals()": "313ce567",
    "decreaseAllowance(address,uint256)": "a457c2d7",
    "getCurrentAPY()": "962ca496",
    "increaseAllowance(address,uint256)": "39509351",
    "name()": "06fdde03",
    "poolInfo(uint256)": "1526fe27",
    "symbol()": "95d89b41",
    "totalSupply()": "18160ddd",
    "transfer(address,uint256)": "a9059cbb",
    "transferFrom(address,address,uint256)": "23b872dd"
  },
  "id": 36
}