{
  "abi": [
    {
      "inputs": [],
      "stateMutability": "nonpayable",
      "type": "constructor"
    },
    {
      "anonymous": false,
      "inputs": [
        {
          "indexed": true,
          "internalType": "address",
          "name": "owner",
          "type": "address"
        },
        {
          "indexed": true,
          "internalType": "address",
          "name": "spender",
          "type": "address"
        },
        {
          "indexed": false,
          "internalType": "uint256",
          "name": "value",
          "type": "uint256"
        }
      ],
      "name": "Approval",
      "type": "event"
    },
    {
      "anonymous": false,
      "inputs": [
        {
          "indexed": false,
          "internalType": "uint8",
          "name": "version",
          "type": "uint8"
        }
      ],
      "name": "Initialized",
      "type": "event"
    },
    {
      "anonymous": false,
      "inputs": [
        {
          "indexed": true,
          "internalType": "address",
          "name": "from",
          "type": "address"
        },
        {
          "indexed": true,
          "internalType": "address",
          "name": "to",
          "type": "address"
        },
        {
          "indexed": false,
          "internalType": "uint256",
          "name": "value",
          "type": "uint256"
        }
      ],
      "name": "Transfer",
      "type": "event"
    },
    {
      "inputs": [
        {
          "internalType": "address",
          "name": "owner",
          "type": "address"
        },
        {
          "internalType": "address",
          "name": "spender",
          "type": "address"
        }
      ],
      "name": "allowance",
      "outputs": [
        {
          "internalType": "uint256",
          "name": "",
          "type": "uint256"
        }
      ],
      "stateMutability": "view",
      "type": "function"
    },
    {
      "inputs": [
        {
          "internalType": "address",
          "name": "spender",
          "type": "address"
        },
        {
          "internalType": "uint256",
          "name": "amount",
          "type": "uint256"
        }
      ],
      "name": "approve",
      "outputs": [
        {
          "internalType": "bool",
          "name": "",
          "type": "bool"
        }
      ],
      "stateMutability": "nonpayable",
      "type": "function"
    },
    {
      "inputs": [
        {
          "internalType": "address",
          "name": "account",
          "type": "address"
        }
      ],
      "name": "balanceOf",
      "outputs": [
        {
          "internalType": "uint256",
          "name": "",
          "type": "uint256"
        }
      ],
      "stateMutability": "view",
      "type": "function"
    },
    {
      "inputs": [
        {
          "internalType": "uint256",
          "name": "_stake",
          "type": "uint256"
        },
        {
          "internalType": "uint256",
          "name": "_poolID",
          "type": "uint256"
        }
      ],
      "name": "convertStakeToPoolMeasurements",
      "outputs": [
        {
          "internalType": "uint256",
          "name": "x",
          "type": "uint256"
        },
        {
          "internalType": "uint256",
          "name": "poolPercentage",
          "type": "uint256"
        }
      ],
      "stateMutability": "nonpayable",
      "type": "function"
    },
    {
      "inputs": [],
      "name": "decimals",
      "outputs": [
        {
          "internalType": "uint8",
          "name": "",
          "type": "uint8"
        }
      ],
      "stateMutability": "view",
      "type": "function"
    },
    {
      "inputs": [
        {
          "internalType": "address",
          "name": "spender",
          "type": "address"
        },
        {
          "internalType": "uint256",
          "name": "subtractedValue",
          "type": "uint256"
        }
      ],
      "name": "decreaseAllowance",
      "outputs": [
        {
          "internalType": "bool",
          "name": "",
          "type": "bool"
        }
      ],
      "stateMutability": "nonpayable",
      "type": "function"
    },
    {
      "inputs": [],
      "name": "getCurrentAPY",
      "outputs": [
        {
          "internalType": "uint256",
          "name": "result",
          "type": "uint256"
        }
      ],
      "stateMutability": "nonpayable",
      "type": "function"
    },
    {
      "inputs": [
        {
          "internalType": "address",
          "name": "spender",
          "type": "address"
        },
        {
          "internalType": "uint256",
          "name": "addedValue",
          "type": "uint256"
        }
      ],
      "name": "increaseAllowance",
      "outputs": [
        {
          "internalType": "bool",
          "name": "",
          "type": "bool"
        }
      ],
      "stateMutability": "nonpayable",
      "type": "function"
    },
    {
      "inputs": [],
      "name": "name",
      "outputs": [
        {
          "internalType": "string",
          "name": "",
          "type": "string"
        }
      ],
      "stateMutability": "view",
      "type": "function"
    },
    {
      "inputs": [
        {
          "internalType": "uint256",
          "name": "",
          "type": "uint256"
        }
      ],
      "name": "poolInfo",
      "outputs": [
        {
          "components": [
            {
              "internalType": "contract IERC20",
              "name": "token",
              "type": "address"
            },
            {
              "internalType": "uint8",
              "name": "tokenDecimals",
              "type": "uint8"
            },
            {
              "internalType": "uint16",
              "name": "apy",
              "type": "uint16"
            },
            {
              "internalType": "address",
              "name": "projectWallet",
              "type": "address"
            },
            {
              "internalType": "string",
              "name": "projectName",
              "type": "string"
            },
            {
              "internalType": "uint256",
              "name": "projectDeposit",
              "type": "uint256"
            },
            {
              "internalType": "uint256",
              "name": "poolCap",
              "type": "uint256"
            },
            {
              "internalType": "uint256",
              "name": "totalStaked",
              "type": "uint256"
            },
            {
              "internalType": "uint256",
              "name": "multiplier",
              "type": "uint256"
            }
          ],
          "internalType": "struct ISaloon.GeneralInfo",
          "name": "generalInfo",
          "type": "tuple"
        },
        {
          "components": [
            {
              "internalType": "uint256",
              "name": "requiredPremiumBalancePerPeriod",
              "type": "uint256"
            },
            {
              "internalType": "uint256",
              "name": "premiumBalance",
              "type": "uint256"
            },
            {
              "internalType": "uint256",
              "name": "premiumAvailable",
              "type": "uint256"
            }
          ],
          "internalType": "struct ISaloon.PremiumInfo",
          "name": "premiumInfo",
          "type": "tuple"
        },
        {
          "components": [
            {
              "internalType": "uint256",
              "name": "timelock",
              "type": "uint256"
            },
            {
              "internalType": "uint256",
              "name": "timeLimit",
              "type": "uint256"
            },
            {
              "internalType": "uint256",
              "name": "withdrawalScheduledAmount",
              "type": "uint256"
            },
            {
              "internalType": "bool",
              "name": "withdrawalExecuted",
              "type": "bool"
            }
          ],
          "internalType": "struct ISaloon.TimelockInfo",
          "name": "poolTimelock",
          "type": "tuple"
        },
        {
          "internalType": "bool",
          "name": "isActive",
          "type": "bool"
        },
        {
          "internalType": "uint256",
          "name": "freezeTime",
          "type": "uint256"
        }
      ],
      "stateMutability": "view",
      "type": "function"
    },
    {
      "inputs": [],
      "name": "seeEffectiveStakingAPY",
      "outputs": [],
      "stateMutability": "nonpayable",
      "type": "function"
    },
    {
      "inputs": [],
      "name": "symbol",
      "outputs": [
        {
          "internalType": "string",
          "name": "",
          "type": "string"
        }
      ],
      "stateMutability": "view",
      "type": "function"
    },
    {
      "inputs": [],
      "name": "totalSupply",
      "outputs": [
        {
          "internalType": "uint256",
          "name": "",
          "type": "uint256"
        }
      ],
      "stateMutability": "view",
      "type": "function"
    },
    {
      "inputs": [
        {
          "internalType": "address",
          "name": "to",
          "type": "address"
        },
        {
          "internalType": "uint256",
          "name": "amount",
          "type": "uint256"
        }
      ],
      "name": "transfer",
      "outputs": [
        {
          "internalType": "bool",
          "name": "",
          "type": "bool"
        }
      ],
      "stateMutability": "nonpayable",
      "type": "function"
    },
    {
      "inputs": [
        {
          "internalType": "address",
          "name": "from",
          "type": "address"
        },
        {
          "internalType": "address",
          "name": "to",
          "type": "address"
        },
        {
          "internalType": "uint256",
          "name": "amount",
          "type": "uint256"
        }
      ],
      "name": "transferFrom",
      "outputs": [
        {
          "internalType": "bool",
          "name": "",
          "type": "bool"
        }
      ],
      "stateMutability": "nonpayable",
      "type": "function"
    }
  ],
  "bytecode": {
    "object": "0x60806040523480156200001157600080fd5b50600054610100900460ff1615808015620000335750600054600160ff909116105b8062000063575062000050306200018e60201b620006161760201c565b15801562000063575060005460ff166001145b620000cc5760405162461bcd60e51b815260206004820152602e60248201527f496e697469616c697a61626c653a20636f6e747261637420697320616c72656160448201526d191e481a5b9a5d1a585b1a5e995960921b60648201526084015b60405180910390fd5b6000805460ff191660011790558015620000f0576000805461ff0019166101001790555b620001406040518060400160405280600b81526020016a2137bab73a3caa37b5b2b760a91b8152506040518060400160405280600381526020016210951560ea1b8152506200019d60201b60201c565b801562000187576000805461ff0019169055604051600181527f7f26b83ff96e1f2b6a682f133852f6798a09c465da95921460cefb38474024989060200160405180910390a15b50620003f7565b6001600160a01b03163b151590565b600054610100900460ff16620001f95760405162461bcd60e51b815260206004820152602b60248201526000805160206200112583398151915260448201526a6e697469616c697a696e6760a81b6064820152608401620000c3565b62000205828262000209565b5050565b600054610100900460ff16620002655760405162461bcd60e51b815260206004820152602b60248201526000805160206200112583398151915260448201526a6e697469616c697a696e6760a81b6064820152608401620000c3565b60366200027383826200032b565b5060376200028282826200032b565b505050565b634e487b7160e01b600052604160045260246000fd5b600181811c90821680620002b257607f821691505b602082108103620002d357634e487b7160e01b600052602260045260246000fd5b50919050565b601f8211156200028257600081815260208120601f850160051c81016020861015620003025750805b601f850160051c820191505b8181101562000323578281556001016200030e565b505050505050565b81516001600160401b0381111562000347576200034762000287565b6200035f816200035884546200029d565b84620002d9565b602080601f8311600181146200039757600084156200037e5750858301515b600019600386901b1c1916600185901b17855562000323565b600085815260208120601f198616915b82811015620003c857888601518255948401946001909101908401620003a7565b5085821015620003e75787850151600019600388901b60f8161c191681555b5050505050600190811b01905550565b610d1e80620004076000396000f3fe608060405234801561001057600080fd5b50600436106100f55760003560e01c806370a0823111610097578063a9059cbb11610066578063a9059cbb146101f2578063dd62ed3e14610205578063de1b75ec14610218578063fceb3d761461024057600080fd5b806370a08231146101a657806395d89b41146101cf578063962ca496146101d7578063a457c2d7146101df57600080fd5b806318160ddd116100d357806318160ddd1461015f57806323b872dd14610171578063313ce56714610184578063395093511461019357600080fd5b806306fdde03146100fa578063095ea7b3146101185780631526fe271461013b575b600080fd5b610102610242565b60405161010f9190610a14565b60405180910390f35b61012b610126366004610a4a565b6102d4565b604051901515815260200161010f565b61014e610149366004610a74565b6102ee565b60405161010f959493929190610a8d565b6035545b60405190815260200161010f565b61012b61017f366004610b8a565b61049a565b6040516012815260200161010f565b61012b6101a1366004610a4a565b6104be565b6101636101b4366004610bc6565b6001600160a01b031660009081526033602052604090205490565b6101026104e0565b6101636104ef565b61012b6101ed366004610a4a565b610501565b61012b610200366004610a4a565b610581565b610163610213366004610be1565b61058f565b61022b610226366004610c14565b6105ba565b6040805192835260208301919091520161010f565b005b60606036805461025190610c36565b80601f016020809104026020016040519081016040528092919081815260200182805461027d90610c36565b80156102ca5780601f1061029f576101008083540402835291602001916102ca565b820191906000526020600020905b8154815290600101906020018083116102ad57829003601f168201915b5050505050905090565b6000336102e2818585610625565b60019150505b92915050565b606581815481106102fe57600080fd5b60009182526020918290206040805161012081018252601190930290910180546001600160a01b03808216855260ff600160a01b8304169585019590955261ffff600160a81b90910416918301919091526001810154909216606082015260028201805492935090918391608084019161037790610c36565b80601f01602080910402602001604051908101604052809291908181526020018280546103a390610c36565b80156103f05780601f106103c5576101008083540402835291602001916103f0565b820191906000526020600020905b8154815290600101906020018083116103d357829003601f168201915b5050509183525050600382015460208083019190915260048301546040808401919091526005840154606080850191909152600690940154608093840152805180850182526007870154815260088701548184015260098701548183015281519384018252600a8701548452600b87015492840192909252600c86015490830152600d85015460ff908116151593830193909352600f850154601090950154939490939192169085565b6000336104a8858285610749565b6104b38585856107c3565b506001949350505050565b6000336102e28185856104d1838361058f565b6104db9190610c86565b610625565b60606037805461025190610c36565b6000806104fb8161096e565b91505090565b6000338161050f828661058f565b9050838110156105745760405162461bcd60e51b815260206004820152602560248201527f45524332303a2064656372656173656420616c6c6f77616e63652062656c6f77604482015264207a65726f60d81b60648201526084015b60405180910390fd5b6104b38286868403610625565b6000336102e28185856107c3565b6001600160a01b03918216600090815260346020908152604080832093909416825291909152205490565b600080606583815481106105d0576105d0610c99565b60009182526020909120600460119092020101546105f6670de0b6b3a764000086610caf565b6106009190610cc6565b905061060d816005610caf565b91509250929050565b6001600160a01b03163b151590565b6001600160a01b0383166106875760405162461bcd60e51b8152602060048201526024808201527f45524332303a20617070726f76652066726f6d20746865207a65726f206164646044820152637265737360e01b606482015260840161056b565b6001600160a01b0382166106e85760405162461bcd60e51b815260206004820152602260248201527f45524332303a20617070726f766520746f20746865207a65726f206164647265604482015261737360f01b606482015260840161056b565b6001600160a01b0383811660008181526034602090815260408083209487168084529482529182902085905590518481527f8c5be1e5ebec7d5bd14f71427d1e84f3dd0314c0f7b2291e5b200ac8c7c3b925910160405180910390a3505050565b6000610755848461058f565b905060001981146107bd57818110156107b05760405162461bcd60e51b815260206004820152601d60248201527f45524332303a20696e73756666696369656e7420616c6c6f77616e6365000000604482015260640161056b565b6107bd8484848403610625565b50505050565b6001600160a01b0383166108275760405162461bcd60e51b815260206004820152602560248201527f45524332303a207472616e736665722066726f6d20746865207a65726f206164604482015264647265737360d81b606482015260840161056b565b6001600160a01b0382166108895760405162461bcd60e51b815260206004820152602360248201527f45524332303a207472616e7366657220746f20746865207a65726f206164647260448201526265737360e81b606482015260840161056b565b6001600160a01b038316600090815260336020526040902054818110156109015760405162461bcd60e51b815260206004820152602660248201527f45524332303a207472616e7366657220616d6f756e7420657863656564732062604482015265616c616e636560d01b606482015260840161056b565b6001600160a01b0380851660008181526033602052604080822086860390559286168082529083902080548601905591517fddf252ad1be2c89b69c2b068fc378daa952ba7f163c4a11628f55a4df523b3ef906109619086815260200190565b60405180910390a36107bd565b600080670de0b6b3a764000061098c84670928ca80cfc20000610caf565b6109969190610cc6565b6109a89067016345785d8a0000610c86565b905060006109c5826ec097ce7bc90715b34b9f1000000000610cc6565b90505050919050565b6000815180845260005b818110156109f4576020818501810151868301820152016109d8565b506000602082860101526020601f19601f83011685010191505092915050565b602081526000610a2760208301846109ce565b9392505050565b80356001600160a01b0381168114610a4557600080fd5b919050565b60008060408385031215610a5d57600080fd5b610a6683610a2e565b946020939093013593505050565b600060208284031215610a8657600080fd5b5035919050565b6000610140808352610aaa81840189516001600160a01b03169052565b50602087015160ff16610160830152604087015161ffff1661018083015260608701516001600160a01b03166101a083015260808701516101206101c08401819052610afa6102608501836109ce565b915060a08901516101e085015260c089015161020085015260e0890151610220850152610100808a0151610240860152829350610b4e602086018a8051825260208082015190830152604090810151910152565b87516080860152602088015160a0860152604088015160c0860152606090970151151560e0850152941515958301959095529201529392505050565b600080600060608486031215610b9f57600080fd5b610ba884610a2e565b9250610bb660208501610a2e565b9150604084013590509250925092565b600060208284031215610bd857600080fd5b610a2782610a2e565b60008060408385031215610bf457600080fd5b610bfd83610a2e565b9150610c0b60208401610a2e565b90509250929050565b60008060408385031215610c2757600080fd5b50508035926020909101359150565b600181811c90821680610c4a57607f821691505b602082108103610c6a57634e487b7160e01b600052602260045260246000fd5b50919050565b634e487b7160e01b600052601160045260246000fd5b808201808211156102e8576102e8610c70565b634e487b7160e01b600052603260045260246000fd5b80820281158282048414176102e8576102e8610c70565b600082610ce357634e487b7160e01b600052601260045260246000fd5b50049056fea264697066735822122018c074e9fc913796fb2ccc0aa6e3920610eb78b3f7b7bb8497f40a86ccfa3df264736f6c63430008110033496e697469616c697a61626c653a20636f6e7472616374206973206e6f742069",
    "linkReferences": {}
  },
  "methodIdentifiers": {
    "allowance(address,address)": "dd62ed3e",
    "approve(address,uint256)": "095ea7b3",
    "balanceOf(address)": "70a08231",
    "convertStakeToPoolMeasurements(uint256,uint256)": "de1b75ec",
    "decimals()": "313ce567",
    "decreaseAllowance(address,uint256)": "a457c2d7",
    "getCurrentAPY()": "962ca496",
    "increaseAllowance(address,uint256)": "39509351",
    "name()": "06fdde03",
    "poolInfo(uint256)": "1526fe27",
    "seeEffectiveStakingAPY()": "fceb3d76",
    "symbol()": "95d89b41",
    "totalSupply()": "18160ddd",
    "transfer(address,uint256)": "a9059cbb",
    "transferFrom(address,address,uint256)": "23b872dd"
  },
  "id": 36
}