{
  "abi": [
    {
      "inputs": [],
      "stateMutability": "nonpayable",
      "type": "constructor"
    },
    {
      "inputs": [
        {
          "internalType": "UD60x18",
          "name": "x",
          "type": "uint256"
        }
      ],
      "name": "PRBMathUD60x18__LogInputTooSmall",
      "type": "error"
    },
    {
      "inputs": [
        {
          "internalType": "uint256",
          "name": "x",
          "type": "uint256"
        }
      ],
      "name": "PRBMathUD60x18__ToUD60x18Overflow",
      "type": "error"
    },
    {
      "inputs": [
        {
          "internalType": "uint256",
          "name": "x",
          "type": "uint256"
        },
        {
          "internalType": "uint256",
          "name": "y",
          "type": "uint256"
        }
      ],
      "name": "PRBMath__MulDiv18Overflow",
      "type": "error"
    },
    {
      "inputs": [
        {
          "internalType": "uint256",
          "name": "x",
          "type": "uint256"
        },
        {
          "internalType": "uint256",
          "name": "y",
          "type": "uint256"
        },
        {
          "internalType": "uint256",
          "name": "denominator",
          "type": "uint256"
        }
      ],
      "name": "PRBMath__MulDivOverflow",
      "type": "error"
    },
    {
      "anonymous": false,
      "inputs": [
        {
          "indexed": true,
          "internalType": "address",
          "name": "owner",
          "type": "address"
        },
        {
          "indexed": true,
          "internalType": "address",
          "name": "spender",
          "type": "address"
        },
        {
          "indexed": false,
          "internalType": "uint256",
          "name": "value",
          "type": "uint256"
        }
      ],
      "name": "Approval",
      "type": "event"
    },
    {
      "anonymous": false,
      "inputs": [
        {
          "indexed": true,
          "internalType": "uint256",
          "name": "pid",
          "type": "uint256"
        },
        {
          "indexed": true,
          "internalType": "uint256",
          "name": "oldAmount",
          "type": "uint256"
        },
        {
          "indexed": true,
          "internalType": "uint256",
          "name": "newAmount",
          "type": "uint256"
        }
      ],
      "name": "BountyBalanceChanged",
      "type": "event"
    },
    {
      "anonymous": false,
      "inputs": [
        {
          "indexed": true,
          "internalType": "uint256",
          "name": "time",
          "type": "uint256"
        },
        {
          "indexed": true,
          "internalType": "address",
          "name": "hunter",
          "type": "address"
        },
        {
          "indexed": true,
          "internalType": "address",
          "name": "token",
          "type": "address"
        },
        {
          "indexed": false,
          "internalType": "uint256",
          "name": "amount",
          "type": "uint256"
        }
      ],
      "name": "BountyPaid",
      "type": "event"
    },
    {
      "anonymous": false,
      "inputs": [
        {
          "indexed": false,
          "internalType": "uint8",
          "name": "version",
          "type": "uint8"
        }
      ],
      "name": "Initialized",
      "type": "event"
    },
    {
      "anonymous": false,
      "inputs": [
        {
          "indexed": true,
          "internalType": "uint256",
          "name": "pid",
          "type": "uint256"
        },
        {
          "indexed": true,
          "internalType": "address",
          "name": "token",
          "type": "address"
        },
        {
          "indexed": true,
          "internalType": "uint256",
          "name": "tokenDecimals",
          "type": "uint256"
        }
      ],
      "name": "NewBountyDeployed",
      "type": "event"
    },
    {
      "anonymous": false,
      "inputs": [
        {
          "indexed": true,
          "internalType": "uint256",
          "name": "pid",
          "type": "uint256"
        },
        {
          "indexed": true,
          "internalType": "uint256",
          "name": "amount",
          "type": "uint256"
        }
      ],
      "name": "PremiumBilled",
      "type": "event"
    },
    {
      "anonymous": false,
      "inputs": [
        {
          "indexed": true,
          "internalType": "address",
          "name": "user",
          "type": "address"
        },
        {
          "indexed": true,
          "internalType": "uint256",
          "name": "pid",
          "type": "uint256"
        },
        {
          "indexed": false,
          "internalType": "uint256",
          "name": "amount",
          "type": "uint256"
        }
      ],
      "name": "Staked",
      "type": "event"
    },
    {
      "anonymous": false,
      "inputs": [
        {
          "indexed": true,
          "internalType": "address",
          "name": "from",
          "type": "address"
        },
        {
          "indexed": true,
          "internalType": "address",
          "name": "to",
          "type": "address"
        },
        {
          "indexed": false,
          "internalType": "uint256",
          "name": "value",
          "type": "uint256"
        }
      ],
      "name": "Transfer",
      "type": "event"
    },
    {
      "anonymous": false,
      "inputs": [
        {
          "indexed": true,
          "internalType": "address",
          "name": "user",
          "type": "address"
        },
        {
          "indexed": true,
          "internalType": "uint256",
          "name": "pid",
          "type": "uint256"
        },
        {
          "indexed": false,
          "internalType": "uint256",
          "name": "amount",
          "type": "uint256"
        }
      ],
      "name": "Unstaked",
      "type": "event"
    },
    {
      "anonymous": false,
      "inputs": [
        {
          "indexed": true,
          "internalType": "uint256",
          "name": "pid",
          "type": "uint256"
        },
        {
          "indexed": true,
          "internalType": "uint256",
          "name": "amount",
          "type": "uint256"
        }
      ],
      "name": "WithdrawalOrUnstakeScheduled",
      "type": "event"
    },
    {
      "anonymous": false,
      "inputs": [
        {
          "indexed": true,
          "internalType": "address",
          "name": "token",
          "type": "address"
        },
        {
          "indexed": true,
          "internalType": "bool",
          "name": "whitelisted",
          "type": "bool"
        }
      ],
      "name": "tokenWhitelistUpdated",
      "type": "event"
    },
    {
      "inputs": [
        {
          "internalType": "address",
          "name": "owner",
          "type": "address"
        },
        {
          "internalType": "address",
          "name": "spender",
          "type": "address"
        }
      ],
      "name": "allowance",
      "outputs": [
        {
          "internalType": "uint256",
          "name": "",
          "type": "uint256"
        }
      ],
      "stateMutability": "view",
      "type": "function"
    },
    {
      "inputs": [
        {
          "internalType": "address",
          "name": "spender",
          "type": "address"
        },
        {
          "internalType": "uint256",
          "name": "amount",
          "type": "uint256"
        }
      ],
      "name": "approve",
      "outputs": [
        {
          "internalType": "bool",
          "name": "",
          "type": "bool"
        }
      ],
      "stateMutability": "nonpayable",
      "type": "function"
    },
    {
      "inputs": [
        {
          "internalType": "address",
          "name": "_staker",
          "type": "address"
        },
        {
          "internalType": "uint256",
          "name": "_poolID",
          "type": "uint256"
        }
      ],
      "name": "balanceOf",
      "outputs": [
        {
          "internalType": "uint256",
          "name": "",
          "type": "uint256"
        }
      ],
      "stateMutability": "view",
      "type": "function"
    },
    {
      "inputs": [
        {
          "internalType": "address",
          "name": "account",
          "type": "address"
        }
      ],
      "name": "balanceOf",
      "outputs": [
        {
          "internalType": "uint256",
          "name": "",
          "type": "uint256"
        }
      ],
      "stateMutability": "view",
      "type": "function"
    },
    {
      "inputs": [
        {
          "internalType": "uint256",
          "name": "_stake",
          "type": "uint256"
        },
        {
          "internalType": "uint256",
          "name": "_poolID",
          "type": "uint256"
        }
      ],
      "name": "calculateEffectiveAPY",
      "outputs": [
        {
          "internalType": "uint256",
          "name": "toBeMinted",
          "type": "uint256"
        }
      ],
      "stateMutability": "view",
      "type": "function"
    },
    {
      "inputs": [],
      "name": "decimals",
      "outputs": [
        {
          "internalType": "uint8",
          "name": "",
          "type": "uint8"
        }
      ],
      "stateMutability": "view",
      "type": "function"
    },
    {
      "inputs": [
        {
          "internalType": "address",
          "name": "spender",
          "type": "address"
        },
        {
          "internalType": "uint256",
          "name": "subtractedValue",
          "type": "uint256"
        }
      ],
      "name": "decreaseAllowance",
      "outputs": [
        {
          "internalType": "bool",
          "name": "",
          "type": "bool"
        }
      ],
      "stateMutability": "nonpayable",
      "type": "function"
    },
    {
      "inputs": [
        {
          "internalType": "uint256",
          "name": "_poolID",
          "type": "uint256"
        }
      ],
      "name": "getCurrentAPY",
      "outputs": [
        {
          "internalType": "uint256",
          "name": "currentAPY",
          "type": "uint256"
        }
      ],
      "stateMutability": "nonpayable",
      "type": "function"
    },
    {
      "inputs": [
        {
          "internalType": "address",
          "name": "spender",
          "type": "address"
        },
        {
          "internalType": "uint256",
          "name": "addedValue",
          "type": "uint256"
        }
      ],
      "name": "increaseAllowance",
      "outputs": [
        {
          "internalType": "bool",
          "name": "",
          "type": "bool"
        }
      ],
      "stateMutability": "nonpayable",
      "type": "function"
    },
    {
      "inputs": [],
      "name": "name",
      "outputs": [
        {
          "internalType": "string",
          "name": "",
          "type": "string"
        }
      ],
      "stateMutability": "view",
      "type": "function"
    },
    {
      "inputs": [
        {
          "internalType": "uint256",
          "name": "",
          "type": "uint256"
        }
      ],
      "name": "poolInfo",
      "outputs": [
        {
          "components": [
            {
              "internalType": "contract IERC20",
              "name": "token",
              "type": "address"
            },
            {
              "internalType": "uint8",
              "name": "tokenDecimals",
              "type": "uint8"
            },
            {
              "internalType": "uint16",
              "name": "apy",
              "type": "uint16"
            },
            {
              "internalType": "address",
              "name": "projectWallet",
              "type": "address"
            },
            {
              "internalType": "string",
              "name": "projectName",
              "type": "string"
            },
            {
              "internalType": "uint256",
              "name": "poolCap",
              "type": "uint256"
            },
            {
              "internalType": "uint256",
              "name": "totalStaked",
              "type": "uint256"
            },
            {
              "internalType": "uint256",
              "name": "multiplier",
              "type": "uint256"
            }
          ],
          "internalType": "struct ISaloon.GeneralInfo",
          "name": "generalInfo",
          "type": "tuple"
        },
        {
          "components": [
            {
              "internalType": "uint256",
              "name": "projectDepositHeld",
              "type": "uint256"
            },
            {
              "internalType": "uint256",
              "name": "projectDepositInStrategy",
              "type": "uint256"
            }
          ],
          "internalType": "struct ISaloon.DepositInfo",
          "name": "depositInfo",
          "type": "tuple"
        },
        {
          "components": [
            {
              "internalType": "uint256",
              "name": "premiumBalance",
              "type": "uint256"
            },
            {
              "internalType": "uint256",
              "name": "premiumAvailable",
              "type": "uint256"
            }
          ],
          "internalType": "struct ISaloon.PremiumInfo",
          "name": "premiumInfo",
          "type": "tuple"
        },
        {
          "components": [
            {
              "internalType": "uint256",
              "name": "timelock",
              "type": "uint256"
            },
            {
              "internalType": "uint256",
              "name": "timeLimit",
              "type": "uint256"
            },
            {
              "internalType": "uint256",
              "name": "withdrawalScheduledAmount",
              "type": "uint256"
            },
            {
              "internalType": "bool",
              "name": "withdrawalExecuted",
              "type": "bool"
            }
          ],
          "internalType": "struct ISaloon.TimelockInfo",
          "name": "poolTimelock",
          "type": "tuple"
        },
        {
          "components": [
            {
              "internalType": "uint256",
              "name": "currentX",
              "type": "uint256"
            },
            {
              "internalType": "uint256",
              "name": "currentY",
              "type": "uint256"
            },
            {
              "internalType": "uint256",
              "name": "totalSupply",
              "type": "uint256"
            },
            {
              "internalType": "uint256[]",
              "name": "unstakedTokens",
              "type": "uint256[]"
            }
          ],
          "internalType": "struct ISaloon.TokenInfo",
          "name": "tokenInfo",
          "type": "tuple"
        },
        {
          "internalType": "uint256",
          "name": "freezeTime",
          "type": "uint256"
        },
        {
          "internalType": "bool",
          "name": "isActive",
          "type": "bool"
        }
      ],
      "stateMutability": "view",
      "type": "function"
    },
    {
      "inputs": [
        {
          "internalType": "address",
          "name": "_token",
          "type": "address"
        },
        {
          "internalType": "uint256",
          "name": "_amount",
          "type": "uint256"
        }
      ],
      "name": "receiveStrategyYield",
      "outputs": [],
      "stateMutability": "nonpayable",
      "type": "function"
    },
    {
      "inputs": [
        {
          "internalType": "address",
          "name": "",
          "type": "address"
        },
        {
          "internalType": "uint256",
          "name": "",
          "type": "uint256"
        }
      ],
      "name": "stakerBalance",
      "outputs": [
        {
          "internalType": "uint256",
          "name": "",
          "type": "uint256"
        }
      ],
      "stateMutability": "view",
      "type": "function"
    },
    {
      "inputs": [],
      "name": "symbol",
      "outputs": [
        {
          "internalType": "string",
          "name": "",
          "type": "string"
        }
      ],
      "stateMutability": "view",
      "type": "function"
    },
    {
      "inputs": [],
      "name": "totalSupply",
      "outputs": [
        {
          "internalType": "uint256",
          "name": "",
          "type": "uint256"
        }
      ],
      "stateMutability": "view",
      "type": "function"
    },
    {
      "inputs": [
        {
          "internalType": "address",
          "name": "to",
          "type": "address"
        },
        {
          "internalType": "uint256",
          "name": "amount",
          "type": "uint256"
        }
      ],
      "name": "transfer",
      "outputs": [
        {
          "internalType": "bool",
          "name": "",
          "type": "bool"
        }
      ],
      "stateMutability": "nonpayable",
      "type": "function"
    },
    {
      "inputs": [
        {
          "internalType": "address",
          "name": "from",
          "type": "address"
        },
        {
          "internalType": "address",
          "name": "to",
          "type": "address"
        },
        {
          "internalType": "uint256",
          "name": "amount",
          "type": "uint256"
        }
      ],
      "name": "transferFrom",
      "outputs": [
        {
          "internalType": "bool",
          "name": "",
          "type": "bool"
        }
      ],
      "stateMutability": "nonpayable",
      "type": "function"
    }
  ],
  "bytecode": {
    "object": "0x60806040523480156200001157600080fd5b50600054610100900460ff1615808015620000335750600054600160ff909116105b8062000063575062000050306200018e60201b62000d4b1760201c565b15801562000063575060005460ff166001145b620000cc5760405162461bcd60e51b815260206004820152602e60248201527f496e697469616c697a61626c653a20636f6e747261637420697320616c72656160448201526d191e481a5b9a5d1a585b1a5e995960921b60648201526084015b60405180910390fd5b6000805460ff191660011790558015620000f0576000805461ff0019166101001790555b620001406040518060400160405280600b81526020016a2137bab73a3caa37b5b2b760a91b8152506040518060400160405280600381526020016210951560ea1b8152506200019d60201b60201c565b801562000187576000805461ff0019169055604051600181527f7f26b83ff96e1f2b6a682f133852f6798a09c465da95921460cefb38474024989060200160405180910390a15b50620003f7565b6001600160a01b03163b151590565b600054610100900460ff16620001f95760405162461bcd60e51b815260206004820152602b602482015260008051602062001cba83398151915260448201526a6e697469616c697a696e6760a81b6064820152608401620000c3565b62000205828262000209565b5050565b600054610100900460ff16620002655760405162461bcd60e51b815260206004820152602b602482015260008051602062001cba83398151915260448201526a6e697469616c697a696e6760a81b6064820152608401620000c3565b60366200027383826200032b565b5060376200028282826200032b565b505050565b634e487b7160e01b600052604160045260246000fd5b600181811c90821680620002b257607f821691505b602082108103620002d357634e487b7160e01b600052602260045260246000fd5b50919050565b601f8211156200028257600081815260208120601f850160051c81016020861015620003025750805b601f850160051c820191505b8181101562000323578281556001016200030e565b505050505050565b81516001600160401b0381111562000347576200034762000287565b6200035f816200035884546200029d565b84620002d9565b602080601f8311600181146200039757600084156200037e5750858301515b600019600386901b1c1916600185901b17855562000323565b600085815260208120601f198616915b82811015620003c857888601518255948401946001909101908401620003a7565b5085821015620003e75787850151600019600388901b60f8161c191681555b5050505050600190811b01905550565b6118b380620004076000396000f3fe608060405234801561001057600080fd5b506004361061010a5760003560e01c806339509351116100a25780637fbf3853116100715780637fbf38531461024b57806395d89b411461025e578063a457c2d714610266578063a9059cbb14610279578063dd62ed3e1461028c57600080fd5b806339509351146101d15780635c46f7b1146101e457806370882b47146101f757806370a082311461022257600080fd5b806318160ddd116100de57806318160ddd146101935780631aebcecb1461019b57806323b872dd146101af578063313ce567146101c257600080fd5b8062fdd58e1461010f57806306fdde0314610135578063095ea7b31461014a5780631526fe271461016d575b600080fd5b61012261011d3660046114e2565b61029f565b6040519081526020015b60405180910390f35b61013d6102ca565b60405161012c9190611552565b61015d6101583660046114e2565b61035c565b604051901515815260200161012c565b61018061017b366004611565565b610374565b60405161012c97969594939291906115e9565b603554610122565b6101ad6101a93660046114e2565b5050565b005b61015d6101bd3660046116f6565b61059d565b6040516012815260200161012c565b61015d6101df3660046114e2565b6105c3565b6101226101f2366004611732565b6105e5565b6101226102053660046114e2565b606660209081526000928352604080842090915290825290205481565b610122610230366004611754565b6001600160a01b031660009081526033602052604090205490565b610122610259366004611565565b6109a7565b61013d610c78565b61015d6102743660046114e2565b610c87565b61015d6102873660046114e2565b610d12565b61012261029a36600461176f565b610d20565b6001600160a01b03821660009081526066602090815260408083208484529091529020545b92915050565b6060603680546102d9906117a2565b80601f0160208091040260200160405190810160405280929190818152602001828054610305906117a2565b80156103525780601f1061032757610100808354040283529160200191610352565b820191906000526020600020905b81548152906001019060200180831161033557829003601f168201915b5050505050905090565b60003361036a818585610d5a565b5060019392505050565b6065818154811061038457600080fd5b60009182526020918290206040805161010081018252601590930290910180546001600160a01b03808216855260ff600160a01b8304169585019590955261ffff600160a81b9091041691830191909152600181015490921660608201526002820180549293509091839160808401916103fd906117a2565b80601f0160208091040260200160405190810160405280929190818152602001828054610429906117a2565b80156104765780601f1061044b57610100808354040283529160200191610476565b820191906000526020600020905b81548152906001019060200180831161045957829003601f168201915b50505091835250506003820154602080830191909152600483015460408084019190915260059093015460609283015282518084018452600686015481526007860154818301528351808501855260088701548152600987015481840152845160808082018752600a8901548252600b89015482860152600c89015482880152600d89015460ff1615158287015286519081018752600e890180548252600f8a01548287015260108a01548289015260118a018054895181890281018901909a52808a52999a959994989397959692959194918601939290919083018282801561057f57602002820191906000526020600020905b81548152602001906001019080831161056b575b50505091909252505050601382015460149092015490919060ff1687565b6000336105ab858285610e7e565b6105b6858585610ef8565b60019150505b9392505050565b60003361036a8185856105d68383610d20565b6105e091906117f2565b610d5a565b600080606583815481106105fb576105fb611805565b6000918252602090912060408051610200810190915260159092020180546001600160a01b038082166101008501908152600160a01b830460ff16610120860152600160a81b90920461ffff16610140850152600183015416610160840152600282018054849291849161018085019190610675906117a2565b80601f01602080910402602001604051908101604052809291908181526020018280546106a1906117a2565b80156106ee5780601f106106c3576101008083540402835291602001916106ee565b820191906000526020600020905b8154815290600101906020018083116106d157829003601f168201915b505050918352505060038201546020808301919091526004830154604080840191909152600590930154606092830152928452815180830183526006860154815260078601548185015284840152815180830183526008860154815260098601548185015284830152815160808082018452600a8701548252600b87015482860152600c87015482850152600d87015460ff161515828401528583019190915282518082018452600e870180548252600f8801548287015260108801548286015260118801805486518189028101890190975280875293909701969195909493860193929083018282801561080257602002820191906000526020600020905b8154815260200190600101908083116107ee575b50505050508152505081526020016012820180548060200260200160405190810160405280929190818152602001828054801561086857602002820191906000526020600020905b81546001600160a01b0316815260019091019060200180831161084a575b50505091835250506013820154602082015260149091015460ff16151560409091015260808101515190915060006108a086866110a3565b50905060006108af83836117f2565b905060006108be82602161181b565b6108d090674563918244f400006117f2565b905060006108df85602161181b565b6108f190674563918244f400006117f2565b90506000610906610901846110ff565b611148565b90506000610916610901846110ff565b9050600061095461092760216110ff565b61094e6109348686611180565b6109486a295be96e640669720000006110ff565b9061118f565b9061119e565b9050600061096588620f424061181b565b61096f9083611848565b8a5160e00151909150670de0b6b3a764000061098b828461181b565b6109959190611848565b9e9d5050505050505050505050505050565b600080606583815481106109bd576109bd611805565b6000918252602090912060408051610200810190915260159092020180546001600160a01b038082166101008501908152600160a01b830460ff16610120860152600160a81b90920461ffff16610140850152600183015416610160840152600282018054849291849161018085019190610a37906117a2565b80601f0160208091040260200160405190810160405280929190818152602001828054610a63906117a2565b8015610ab05780601f10610a8557610100808354040283529160200191610ab0565b820191906000526020600020905b815481529060010190602001808311610a9357829003601f168201915b505050918352505060038201546020808301919091526004830154604080840191909152600590930154606092830152928452815180830183526006860154815260078601548185015284840152815180830183526008860154815260098601548185015284830152815160808082018452600a8701548252600b87015482860152600c87015482850152600d87015460ff161515828401528583019190915282518082018452600e870180548252600f88015482870152601088015482860152601188018054865181890281018901909752808752939097019691959094938601939290830182828015610bc457602002820191906000526020600020905b815481526020019060010190808311610bb0575b505050505081525050815260200160128201805480602002602001604051908101604052809291908181526020018280548015610c2a57602002820191906000526020600020905b81546001600160a01b03168152600190910190602001808311610c0c575b50505091835250506013820154602082015260149091015460ff161515604090910152608081015151815160e0015191925090610c66826111b6565b610c70919061181b565b949350505050565b6060603780546102d9906117a2565b60003381610c958286610d20565b905083811015610cfa5760405162461bcd60e51b815260206004820152602560248201527f45524332303a2064656372656173656420616c6c6f77616e63652062656c6f77604482015264207a65726f60d81b60648201526084015b60405180910390fd5b610d078286868403610d5a565b506001949350505050565b60003361036a818585610ef8565b6001600160a01b03918216600090815260346020908152604080832093909416825291909152205490565b6001600160a01b03163b151590565b6001600160a01b038316610dbc5760405162461bcd60e51b8152602060048201526024808201527f45524332303a20617070726f76652066726f6d20746865207a65726f206164646044820152637265737360e01b6064820152608401610cf1565b6001600160a01b038216610e1d5760405162461bcd60e51b815260206004820152602260248201527f45524332303a20617070726f766520746f20746865207a65726f206164647265604482015261737360f01b6064820152608401610cf1565b6001600160a01b0383811660008181526034602090815260408083209487168084529482529182902085905590518481527f8c5be1e5ebec7d5bd14f71427d1e84f3dd0314c0f7b2291e5b200ac8c7c3b925910160405180910390a3505050565b6000610e8a8484610d20565b90506000198114610ef25781811015610ee55760405162461bcd60e51b815260206004820152601d60248201527f45524332303a20696e73756666696369656e7420616c6c6f77616e63650000006044820152606401610cf1565b610ef28484848403610d5a565b50505050565b6001600160a01b038316610f5c5760405162461bcd60e51b815260206004820152602560248201527f45524332303a207472616e736665722066726f6d20746865207a65726f206164604482015264647265737360d81b6064820152608401610cf1565b6001600160a01b038216610fbe5760405162461bcd60e51b815260206004820152602360248201527f45524332303a207472616e7366657220746f20746865207a65726f206164647260448201526265737360e81b6064820152608401610cf1565b6001600160a01b038316600090815260336020526040902054818110156110365760405162461bcd60e51b815260206004820152602660248201527f45524332303a207472616e7366657220616d6f756e7420657863656564732062604482015265616c616e636560d01b6064820152608401610cf1565b6001600160a01b0380851660008181526033602052604080822086860390559286168082529083902080548601905591517fddf252ad1be2c89b69c2b068fc378daa952ba7f163c4a11628f55a4df523b3ef906110969086815260200190565b60405180910390a3610ef2565b600080606583815481106110b9576110b9611805565b60009182526020909120600360159092020101546110df670de0b6b3a76400008661181b565b6110e99190611848565b90506110f681600561181b565b91509250929050565b6000611115670de0b6b3a7640000600019611848565b821115611138576040516322630c4560e01b815260048101839052602401610cf1565b670de0b6b3a764000082026102c4565b60006102c46714057b7ef767814f670de0b6b3a764000061116e61116b8661120b565b90565b028161117c5761117c611832565b0490565b60006105bc61116b838561186a565b60006105bc61116b848461133e565b60006105bc61116b84670de0b6b3a7640000856113f2565b600080670de0b6b3a76400006111d484670928ca80cfc2000061181b565b6111de9190611848565b6111f09067016345785d8a00006117f2565b90506105bc816ec097ce7bc90715b34b9f1000000000611848565b600081670de0b6b3a764000081101561123a57604051633621413760e21b815260048101849052602401610cf1565b60006112c6670de0b6b3a7640000830460016fffffffffffffffffffffffffffffffff821160071b91821c67ffffffffffffffff811160061b90811c63ffffffff811160051b90811c61ffff811160041b90811c60ff8111600390811b91821c600f811160021b90811c918211871b91821c969096119490961792909217171791909117919091171790565b9050670de0b6b3a7640000810282821c670de0b6b3a763ffff1981016112ef5750949350505050565b671bc16d674ec800006706f05b59d3b200005b801561133257670de0b6b3a764000083800204925081831061132a579283019260019290921c915b60011c611302565b50919695505050505050565b60008080600019848609848602925082811083820303915050670de0b6b3a764000081106113895760405163090638d560e41b81526004810186905260248101859052604401610cf1565b6000670de0b6b3a76400008587099050816000036113b5575050670de0b6b3a7640000900490506102c4565b620400008184030492109003600160ee1b02177faccb18165bd6fe31ae1cf318dc5b51eee0e1ba569b88cd74c1773b91fac1066902905092915050565b600080806000198587098587029250828110838203039150508060000361142c5783828161142257611422611832565b04925050506105bc565b83811061145d576040516307639aaf60e41b8152600481018790526024810186905260448101859052606401610cf1565b60008486880960026001871981018816978890046003810283188082028403028082028403028082028403028082028403028082028403029081029092039091026000889003889004909101858311909403939093029303949094049190911702949350505050565b80356001600160a01b03811681146114dd57600080fd5b919050565b600080604083850312156114f557600080fd5b6114fe836114c6565b946020939093013593505050565b6000815180845260005b8181101561153257602081850181015186830182015201611516565b506000602082860101526020601f19601f83011685010191505092915050565b6020815260006105bc602083018461150c565b60006020828403121561157757600080fd5b5035919050565b60006080830182518452602080840151818601526040840151604086015260608401516080606087015282815180855260a0880191508383019450600092505b808310156115de57845182529383019360019290920191908301906115be565b509695505050505050565b61018080825288516001600160a01b0390811691830191909152602089015160ff166101a0830152604089015161ffff166101c08301526060890151166101e0820152608088015161010061020083015260009061164b61028084018261150c565b905060a08a015161022084015260c08a015161024084015260e08a0151610260840152611685602084018a80518252602090810151910152565b8751606084015260208801516080840152865160a0840152602087015160c0840152604087015160e0840152606087015115156101008401528281036101208401526116d1818761157e565b915050836101408301526116ea61016083018415159052565b98975050505050505050565b60008060006060848603121561170b57600080fd5b611714846114c6565b9250611722602085016114c6565b9150604084013590509250925092565b6000806040838503121561174557600080fd5b50508035926020909101359150565b60006020828403121561176657600080fd5b6105bc826114c6565b6000806040838503121561178257600080fd5b61178b836114c6565b9150611799602084016114c6565b90509250929050565b600181811c908216806117b657607f821691505b6020821081036117d657634e487b7160e01b600052602260045260246000fd5b50919050565b634e487b7160e01b600052601160045260246000fd5b808201808211156102c4576102c46117dc565b634e487b7160e01b600052603260045260246000fd5b80820281158282048414176102c4576102c46117dc565b634e487b7160e01b600052601260045260246000fd5b60008261186557634e487b7160e01b600052601260045260246000fd5b500490565b818103818111156102c4576102c46117dc56fea2646970667358221220441777d570e0fa69eacc0ce7bde8bbd5fc62bbb41493433d15cf576ae0528c9864736f6c63430008110033496e697469616c697a61626c653a20636f6e7472616374206973206e6f742069",
    "linkReferences": {}
  },
  "methodIdentifiers": {
    "allowance(address,address)": "dd62ed3e",
    "approve(address,uint256)": "095ea7b3",
    "balanceOf(address)": "70a08231",
    "balanceOf(address,uint256)": "00fdd58e",
    "calculateEffectiveAPY(uint256,uint256)": "5c46f7b1",
    "decimals()": "313ce567",
    "decreaseAllowance(address,uint256)": "a457c2d7",
    "getCurrentAPY(uint256)": "7fbf3853",
    "increaseAllowance(address,uint256)": "39509351",
    "name()": "06fdde03",
    "poolInfo(uint256)": "1526fe27",
    "receiveStrategyYield(address,uint256)": "1aebcecb",
    "stakerBalance(address,uint256)": "70882b47",
    "symbol()": "95d89b41",
    "totalSupply()": "18160ddd",
    "transfer(address,uint256)": "a9059cbb",
    "transferFrom(address,address,uint256)": "23b872dd"
  },
  "id": 45
}