{
  "abi": [
    {
      "inputs": [],
      "stateMutability": "nonpayable",
      "type": "constructor"
    },
    {
      "inputs": [
        {
          "internalType": "UD60x18",
          "name": "x",
          "type": "uint256"
        }
      ],
      "name": "PRBMathUD60x18__LogInputTooSmall",
      "type": "error"
    },
    {
      "inputs": [
        {
          "internalType": "uint256",
          "name": "x",
          "type": "uint256"
        }
      ],
      "name": "PRBMathUD60x18__ToUD60x18Overflow",
      "type": "error"
    },
    {
      "inputs": [
        {
          "internalType": "uint256",
          "name": "x",
          "type": "uint256"
        },
        {
          "internalType": "uint256",
          "name": "y",
          "type": "uint256"
        }
      ],
      "name": "PRBMath__MulDiv18Overflow",
      "type": "error"
    },
    {
      "inputs": [
        {
          "internalType": "uint256",
          "name": "x",
          "type": "uint256"
        },
        {
          "internalType": "uint256",
          "name": "y",
          "type": "uint256"
        },
        {
          "internalType": "uint256",
          "name": "denominator",
          "type": "uint256"
        }
      ],
      "name": "PRBMath__MulDivOverflow",
      "type": "error"
    },
    {
      "anonymous": false,
      "inputs": [
        {
          "indexed": true,
          "internalType": "address",
          "name": "owner",
          "type": "address"
        },
        {
          "indexed": true,
          "internalType": "address",
          "name": "spender",
          "type": "address"
        },
        {
          "indexed": false,
          "internalType": "uint256",
          "name": "value",
          "type": "uint256"
        }
      ],
      "name": "Approval",
      "type": "event"
    },
    {
      "anonymous": false,
      "inputs": [
        {
          "indexed": false,
          "internalType": "uint8",
          "name": "version",
          "type": "uint8"
        }
      ],
      "name": "Initialized",
      "type": "event"
    },
    {
      "anonymous": false,
      "inputs": [
        {
          "indexed": true,
          "internalType": "address",
          "name": "from",
          "type": "address"
        },
        {
          "indexed": true,
          "internalType": "address",
          "name": "to",
          "type": "address"
        },
        {
          "indexed": false,
          "internalType": "uint256",
          "name": "value",
          "type": "uint256"
        }
      ],
      "name": "Transfer",
      "type": "event"
    },
    {
      "inputs": [
        {
          "internalType": "address",
          "name": "owner",
          "type": "address"
        },
        {
          "internalType": "address",
          "name": "spender",
          "type": "address"
        }
      ],
      "name": "allowance",
      "outputs": [
        {
          "internalType": "uint256",
          "name": "",
          "type": "uint256"
        }
      ],
      "stateMutability": "view",
      "type": "function"
    },
    {
      "inputs": [
        {
          "internalType": "address",
          "name": "spender",
          "type": "address"
        },
        {
          "internalType": "uint256",
          "name": "amount",
          "type": "uint256"
        }
      ],
      "name": "approve",
      "outputs": [
        {
          "internalType": "bool",
          "name": "",
          "type": "bool"
        }
      ],
      "stateMutability": "nonpayable",
      "type": "function"
    },
    {
      "inputs": [
        {
          "internalType": "address",
          "name": "_staker",
          "type": "address"
        },
        {
          "internalType": "uint256",
          "name": "_poolID",
          "type": "uint256"
        }
      ],
      "name": "balanceOf",
      "outputs": [
        {
          "internalType": "uint256",
          "name": "",
          "type": "uint256"
        }
      ],
      "stateMutability": "view",
      "type": "function"
    },
    {
      "inputs": [
        {
          "internalType": "address",
          "name": "account",
          "type": "address"
        }
      ],
      "name": "balanceOf",
      "outputs": [
        {
          "internalType": "uint256",
          "name": "",
          "type": "uint256"
        }
      ],
      "stateMutability": "view",
      "type": "function"
    },
    {
      "inputs": [
        {
          "internalType": "uint256",
          "name": "_stake",
          "type": "uint256"
        },
        {
          "internalType": "uint256",
          "name": "_poolID",
          "type": "uint256"
        }
      ],
      "name": "calculateEffectiveAPY",
      "outputs": [
        {
          "internalType": "uint256",
          "name": "toBeMinted",
          "type": "uint256"
        }
      ],
      "stateMutability": "view",
      "type": "function"
    },
    {
      "inputs": [],
      "name": "decimals",
      "outputs": [
        {
          "internalType": "uint8",
          "name": "",
          "type": "uint8"
        }
      ],
      "stateMutability": "view",
      "type": "function"
    },
    {
      "inputs": [
        {
          "internalType": "address",
          "name": "spender",
          "type": "address"
        },
        {
          "internalType": "uint256",
          "name": "subtractedValue",
          "type": "uint256"
        }
      ],
      "name": "decreaseAllowance",
      "outputs": [
        {
          "internalType": "bool",
          "name": "",
          "type": "bool"
        }
      ],
      "stateMutability": "nonpayable",
      "type": "function"
    },
    {
      "inputs": [
        {
          "internalType": "uint256",
          "name": "_poolID",
          "type": "uint256"
        }
      ],
      "name": "getCurrentAPY",
      "outputs": [
        {
          "internalType": "uint256",
          "name": "currentAPY",
          "type": "uint256"
        }
      ],
      "stateMutability": "nonpayable",
      "type": "function"
    },
    {
      "inputs": [
        {
          "internalType": "address",
          "name": "spender",
          "type": "address"
        },
        {
          "internalType": "uint256",
          "name": "addedValue",
          "type": "uint256"
        }
      ],
      "name": "increaseAllowance",
      "outputs": [
        {
          "internalType": "bool",
          "name": "",
          "type": "bool"
        }
      ],
      "stateMutability": "nonpayable",
      "type": "function"
    },
    {
      "inputs": [],
      "name": "name",
      "outputs": [
        {
          "internalType": "string",
          "name": "",
          "type": "string"
        }
      ],
      "stateMutability": "view",
      "type": "function"
    },
    {
      "inputs": [
        {
          "internalType": "uint256",
          "name": "",
          "type": "uint256"
        }
      ],
      "name": "poolInfo",
      "outputs": [
        {
          "components": [
            {
              "internalType": "contract IERC20",
              "name": "token",
              "type": "address"
            },
            {
              "internalType": "uint8",
              "name": "tokenDecimals",
              "type": "uint8"
            },
            {
              "internalType": "uint16",
              "name": "apy",
              "type": "uint16"
            },
            {
              "internalType": "address",
              "name": "projectWallet",
              "type": "address"
            },
            {
              "internalType": "string",
              "name": "projectName",
              "type": "string"
            },
            {
              "internalType": "uint256",
              "name": "poolCap",
              "type": "uint256"
            },
            {
              "internalType": "uint256",
              "name": "totalStaked",
              "type": "uint256"
            },
            {
              "internalType": "uint256",
              "name": "multiplier",
              "type": "uint256"
            }
          ],
          "internalType": "struct ISaloon.GeneralInfo",
          "name": "generalInfo",
          "type": "tuple"
        },
        {
          "components": [
            {
              "internalType": "uint256",
              "name": "projectDepositHeld",
              "type": "uint256"
            },
            {
              "internalType": "uint256",
              "name": "projectDepositInStrategy",
              "type": "uint256"
            }
          ],
          "internalType": "struct ISaloon.DepositInfo",
          "name": "depositInfo",
          "type": "tuple"
        },
        {
          "components": [
            {
              "internalType": "uint256",
              "name": "premiumBalance",
              "type": "uint256"
            },
            {
              "internalType": "uint256",
              "name": "premiumAvailable",
              "type": "uint256"
            }
          ],
          "internalType": "struct ISaloon.PremiumInfo",
          "name": "premiumInfo",
          "type": "tuple"
        },
        {
          "components": [
            {
              "internalType": "uint256",
              "name": "timelock",
              "type": "uint256"
            },
            {
              "internalType": "uint256",
              "name": "timeLimit",
              "type": "uint256"
            },
            {
              "internalType": "uint256",
              "name": "withdrawalScheduledAmount",
              "type": "uint256"
            },
            {
              "internalType": "bool",
              "name": "withdrawalExecuted",
              "type": "bool"
            }
          ],
          "internalType": "struct ISaloon.TimelockInfo",
          "name": "poolTimelock",
          "type": "tuple"
        },
        {
          "components": [
            {
              "internalType": "uint256",
              "name": "currentX",
              "type": "uint256"
            },
            {
              "internalType": "uint256",
              "name": "currentY",
              "type": "uint256"
            },
            {
              "internalType": "uint256",
              "name": "totalSupply",
              "type": "uint256"
            }
          ],
          "internalType": "struct ISaloon.TokenInfo",
          "name": "tokenInfo",
          "type": "tuple"
        },
        {
          "internalType": "uint256",
          "name": "freezeTime",
          "type": "uint256"
        },
        {
          "internalType": "bool",
          "name": "isActive",
          "type": "bool"
        }
      ],
      "stateMutability": "view",
      "type": "function"
    },
    {
      "inputs": [
        {
          "internalType": "address",
          "name": "",
          "type": "address"
        },
        {
          "internalType": "uint256",
          "name": "",
          "type": "uint256"
        }
      ],
      "name": "stakerBalance",
      "outputs": [
        {
          "internalType": "uint256",
          "name": "",
          "type": "uint256"
        }
      ],
      "stateMutability": "view",
      "type": "function"
    },
    {
      "inputs": [],
      "name": "symbol",
      "outputs": [
        {
          "internalType": "string",
          "name": "",
          "type": "string"
        }
      ],
      "stateMutability": "view",
      "type": "function"
    },
    {
      "inputs": [],
      "name": "totalSupply",
      "outputs": [
        {
          "internalType": "uint256",
          "name": "",
          "type": "uint256"
        }
      ],
      "stateMutability": "view",
      "type": "function"
    },
    {
      "inputs": [
        {
          "internalType": "address",
          "name": "to",
          "type": "address"
        },
        {
          "internalType": "uint256",
          "name": "amount",
          "type": "uint256"
        }
      ],
      "name": "transfer",
      "outputs": [
        {
          "internalType": "bool",
          "name": "",
          "type": "bool"
        }
      ],
      "stateMutability": "nonpayable",
      "type": "function"
    },
    {
      "inputs": [
        {
          "internalType": "address",
          "name": "from",
          "type": "address"
        },
        {
          "internalType": "address",
          "name": "to",
          "type": "address"
        },
        {
          "internalType": "uint256",
          "name": "amount",
          "type": "uint256"
        }
      ],
      "name": "transferFrom",
      "outputs": [
        {
          "internalType": "bool",
          "name": "",
          "type": "bool"
        }
      ],
      "stateMutability": "nonpayable",
      "type": "function"
    }
  ],
  "bytecode": {
    "object": "0x60806040523480156200001157600080fd5b50600054610100900460ff1615808015620000335750600054600160ff909116105b8062000063575062000050306200018e60201b62000c151760201c565b15801562000063575060005460ff166001145b620000cc5760405162461bcd60e51b815260206004820152602e60248201527f496e697469616c697a61626c653a20636f6e747261637420697320616c72656160448201526d191e481a5b9a5d1a585b1a5e995960921b60648201526084015b60405180910390fd5b6000805460ff191660011790558015620000f0576000805461ff0019166101001790555b620001406040518060400160405280600b81526020016a2137bab73a3caa37b5b2b760a91b8152506040518060400160405280600381526020016210951560ea1b8152506200019d60201b60201c565b801562000187576000805461ff0019169055604051600181527f7f26b83ff96e1f2b6a682f133852f6798a09c465da95921460cefb38474024989060200160405180910390a15b50620003f7565b6001600160a01b03163b151590565b600054610100900460ff16620001f95760405162461bcd60e51b815260206004820152602b602482015260008051602062001b2383398151915260448201526a6e697469616c697a696e6760a81b6064820152608401620000c3565b62000205828262000209565b5050565b600054610100900460ff16620002655760405162461bcd60e51b815260206004820152602b602482015260008051602062001b2383398151915260448201526a6e697469616c697a696e6760a81b6064820152608401620000c3565b60366200027383826200032b565b5060376200028282826200032b565b505050565b634e487b7160e01b600052604160045260246000fd5b600181811c90821680620002b257607f821691505b602082108103620002d357634e487b7160e01b600052602260045260246000fd5b50919050565b601f8211156200028257600081815260208120601f850160051c81016020861015620003025750805b601f850160051c820191505b8181101562000323578281556001016200030e565b505050505050565b81516001600160401b0381111562000347576200034762000287565b6200035f816200035884546200029d565b84620002d9565b602080601f8311600181146200039757600084156200037e5750858301515b600019600386901b1c1916600185901b17855562000323565b600085815260208120601f198616915b82811015620003c857888601518255948401946001909101908401620003a7565b5085821015620003e75787850151600019600388901b60f8161c191681555b5050505050600190811b01905550565b61171c80620004076000396000f3fe608060405234801561001057600080fd5b50600436106100ff5760003560e01c80635c46f7b11161009757806395d89b411161006657806395d89b411461023f578063a457c2d714610247578063a9059cbb1461025a578063dd62ed3e1461026d57600080fd5b80635c46f7b1146101c557806370882b47146101d857806370a08231146102035780637fbf38531461022c57600080fd5b806318160ddd116100d357806318160ddd1461018857806323b872dd14610190578063313ce567146101a357806339509351146101b257600080fd5b8062fdd58e1461010457806306fdde031461012a578063095ea7b31461013f5780631526fe2714610162575b600080fd5b6101176101123660046113ac565b610280565b6040519081526020015b60405180910390f35b6101326102ab565b604051610121919061141c565b61015261014d3660046113ac565b61033d565b6040519015158152602001610121565b61017561017036600461142f565b610355565b6040516101219796959493929190611448565b603554610117565b61015261019e36600461155f565b610523565b60405160128152602001610121565b6101526101c03660046113ac565b610549565b6101176101d336600461159b565b61056b565b6101176101e63660046113ac565b606660209081526000928352604080842090915290825290205481565b6101176102113660046115bd565b6001600160a01b031660009081526033602052604090205490565b61011761023a36600461142f565b6108cf565b610132610b42565b6101526102553660046113ac565b610b51565b6101526102683660046113ac565b610bdc565b61011761027b3660046115d8565b610bea565b6001600160a01b03821660009081526066602090815260408083208484529091529020545b92915050565b6060603680546102ba9061160b565b80601f01602080910402602001604051908101604052809291908181526020018280546102e69061160b565b80156103335780601f1061030857610100808354040283529160200191610333565b820191906000526020600020905b81548152906001019060200180831161031657829003601f168201915b5050505050905090565b60003361034b818585610c24565b5060019392505050565b6065818154811061036557600080fd5b60009182526020918290206040805161010081018252601490930290910180546001600160a01b03808216855260ff600160a01b8304169585019590955261ffff600160a81b9091041691830191909152600181015490921660608201526002820180549293509091839160808401916103de9061160b565b80601f016020809104026020016040519081016040528092919081815260200182805461040a9061160b565b80156104575780601f1061042c57610100808354040283529160200191610457565b820191906000526020600020905b81548152906001019060200180831161043a57829003601f168201915b505050918352505060038201546020808301919091526004830154604080840191909152600590930154606092830152825180840184526006860154815260078601548183015283518085018552600887015481526009870154818401528451608081018652600a8801548152600b88015481850152600c88015481870152600d88015460ff90811615158287015286519586018752600e8901548652600f89015494860194909452601088015495850195909552601287015460139097015495969195909493921687565b600033610531858285610d48565b61053c858585610dc2565b60019150505b9392505050565b60003361034b81858561055c8383610bea565b610566919061165b565b610c24565b600080606583815481106105815761058161166e565b6000918252602090912060408051610200810190915260149092020180546001600160a01b038082166101008501908152600160a01b830460ff16610120860152600160a81b90920461ffff166101408501526001830154166101608401526002820180548492918491610180850191906105fb9061160b565b80601f01602080910402602001604051908101604052809291908181526020018280546106279061160b565b80156106745780601f1061064957610100808354040283529160200191610674565b820191906000526020600020905b81548152906001019060200180831161065757829003601f168201915b505050918352505060038201546020808301919091526004830154604080840191909152600590930154606092830152928452815180830183526006860154815260078601548185015284840152815180830183526008860154815260098601548185015284830152815160808082018452600a8701548252600b87015482860152600c87015482850152600d87015460ff161515828401528583019190915282519182018352600e8601548252600f8601548285015260108601548284015284015260118401805482518185028101850190935280835260a090940193919290919083018282801561079057602002820191906000526020600020905b81546001600160a01b03168152600190910190602001808311610772575b50505091835250506012820154602082015260139091015460ff16151560409091015260808101515190915060006107c88686610f6d565b50905060006107d7838361165b565b905060006107e6826021611684565b6107f890674563918244f4000061165b565b90506000610807856021611684565b61081990674563918244f4000061165b565b9050600061082e61082984610fc9565b611012565b9050600061083e61082984610fc9565b9050600061087c61084f6021610fc9565b61087661085c868661104a565b6108706a295be96e64066972000000610fc9565b90611059565b90611068565b9050600061088d88620f4240611684565b61089790836116b1565b8a5160e00151909150670de0b6b3a76400006108b38284611684565b6108bd91906116b1565b9e9d5050505050505050505050505050565b600080606583815481106108e5576108e561166e565b6000918252602090912060408051610200810190915260149092020180546001600160a01b038082166101008501908152600160a01b830460ff16610120860152600160a81b90920461ffff1661014085015260018301541661016084015260028201805484929184916101808501919061095f9061160b565b80601f016020809104026020016040519081016040528092919081815260200182805461098b9061160b565b80156109d85780601f106109ad576101008083540402835291602001916109d8565b820191906000526020600020905b8154815290600101906020018083116109bb57829003601f168201915b505050918352505060038201546020808301919091526004830154604080840191909152600590930154606092830152928452815180830183526006860154815260078601548185015284840152815180830183526008860154815260098601548185015284830152815160808082018452600a8701548252600b87015482860152600c87015482850152600d87015460ff161515828401528583019190915282519182018352600e8601548252600f8601548285015260108601548284015284015260118401805482518185028101850190935280835260a0909401939192909190830182828015610af457602002820191906000526020600020905b81546001600160a01b03168152600190910190602001808311610ad6575b50505091835250506012820154602082015260139091015460ff161515604090910152608081015151815160e0015191925090610b3082611080565b610b3a9190611684565b949350505050565b6060603780546102ba9061160b565b60003381610b5f8286610bea565b905083811015610bc45760405162461bcd60e51b815260206004820152602560248201527f45524332303a2064656372656173656420616c6c6f77616e63652062656c6f77604482015264207a65726f60d81b60648201526084015b60405180910390fd5b610bd18286868403610c24565b506001949350505050565b60003361034b818585610dc2565b6001600160a01b03918216600090815260346020908152604080832093909416825291909152205490565b6001600160a01b03163b151590565b6001600160a01b038316610c865760405162461bcd60e51b8152602060048201526024808201527f45524332303a20617070726f76652066726f6d20746865207a65726f206164646044820152637265737360e01b6064820152608401610bbb565b6001600160a01b038216610ce75760405162461bcd60e51b815260206004820152602260248201527f45524332303a20617070726f766520746f20746865207a65726f206164647265604482015261737360f01b6064820152608401610bbb565b6001600160a01b0383811660008181526034602090815260408083209487168084529482529182902085905590518481527f8c5be1e5ebec7d5bd14f71427d1e84f3dd0314c0f7b2291e5b200ac8c7c3b925910160405180910390a3505050565b6000610d548484610bea565b90506000198114610dbc5781811015610daf5760405162461bcd60e51b815260206004820152601d60248201527f45524332303a20696e73756666696369656e7420616c6c6f77616e63650000006044820152606401610bbb565b610dbc8484848403610c24565b50505050565b6001600160a01b038316610e265760405162461bcd60e51b815260206004820152602560248201527f45524332303a207472616e736665722066726f6d20746865207a65726f206164604482015264647265737360d81b6064820152608401610bbb565b6001600160a01b038216610e885760405162461bcd60e51b815260206004820152602360248201527f45524332303a207472616e7366657220746f20746865207a65726f206164647260448201526265737360e81b6064820152608401610bbb565b6001600160a01b03831660009081526033602052604090205481811015610f005760405162461bcd60e51b815260206004820152602660248201527f45524332303a207472616e7366657220616d6f756e7420657863656564732062604482015265616c616e636560d01b6064820152608401610bbb565b6001600160a01b0380851660008181526033602052604080822086860390559286168082529083902080548601905591517fddf252ad1be2c89b69c2b068fc378daa952ba7f163c4a11628f55a4df523b3ef90610f609086815260200190565b60405180910390a3610dbc565b60008060658381548110610f8357610f8361166e565b6000918252602090912060036014909202010154610fa9670de0b6b3a764000086611684565b610fb391906116b1565b9050610fc0816005611684565b91509250929050565b6000610fdf670de0b6b3a76400006000196116b1565b821115611002576040516322630c4560e01b815260048101839052602401610bbb565b670de0b6b3a764000082026102a5565b60006102a56714057b7ef767814f670de0b6b3a7640000611038611035866110d5565b90565b02816110465761104661169b565b0490565b600061054261103583856116d3565b60006105426110358484611208565b600061054261103584670de0b6b3a7640000856112bc565b600080670de0b6b3a764000061109e84670928ca80cfc20000611684565b6110a891906116b1565b6110ba9067016345785d8a000061165b565b9050610542816ec097ce7bc90715b34b9f10000000006116b1565b600081670de0b6b3a764000081101561110457604051633621413760e21b815260048101849052602401610bbb565b6000611190670de0b6b3a7640000830460016fffffffffffffffffffffffffffffffff821160071b91821c67ffffffffffffffff811160061b90811c63ffffffff811160051b90811c61ffff811160041b90811c60ff8111600390811b91821c600f811160021b90811c918211871b91821c969096119490961792909217171791909117919091171790565b9050670de0b6b3a7640000810282821c670de0b6b3a763ffff1981016111b95750949350505050565b671bc16d674ec800006706f05b59d3b200005b80156111fc57670de0b6b3a76400008380020492508183106111f4579283019260019290921c915b60011c6111cc565b50919695505050505050565b60008080600019848609848602925082811083820303915050670de0b6b3a764000081106112535760405163090638d560e41b81526004810186905260248101859052604401610bbb565b6000670de0b6b3a764000085870990508160000361127f575050670de0b6b3a7640000900490506102a5565b620400008184030492109003600160ee1b02177faccb18165bd6fe31ae1cf318dc5b51eee0e1ba569b88cd74c1773b91fac1066902905092915050565b60008080600019858709858702925082811083820303915050806000036112f6578382816112ec576112ec61169b565b0492505050610542565b838110611327576040516307639aaf60e41b8152600481018790526024810186905260448101859052606401610bbb565b60008486880960026001871981018816978890046003810283188082028403028082028403028082028403028082028403028082028403029081029092039091026000889003889004909101858311909403939093029303949094049190911702949350505050565b80356001600160a01b03811681146113a757600080fd5b919050565b600080604083850312156113bf57600080fd5b6113c883611390565b946020939093013593505050565b6000815180845260005b818110156113fc576020818501810151868301820152016113e0565b506000602082860101526020601f19601f83011685010191505092915050565b60208152600061054260208301846113d6565b60006020828403121561144157600080fd5b5035919050565b6101c080825288516001600160a01b0390811691830191909152602089015160ff166101e0830152604089015161ffff1661020083015260608901511661022082015260808801516101006102408301526000906114aa6102c08401826113d6565b60a08b015161026085015260c08b015161028085015260e08b01516102a085015291506114e69050602083018980518252602090810151910152565b8651606083015260208701516080830152855160a0830152602086015160c0830152604086015160e083015260608601511515610100830152845161012083015260208501516101408301526040850151610160830152836101808301526115536101a083018415159052565b98975050505050505050565b60008060006060848603121561157457600080fd5b61157d84611390565b925061158b60208501611390565b9150604084013590509250925092565b600080604083850312156115ae57600080fd5b50508035926020909101359150565b6000602082840312156115cf57600080fd5b61054282611390565b600080604083850312156115eb57600080fd5b6115f483611390565b915061160260208401611390565b90509250929050565b600181811c9082168061161f57607f821691505b60208210810361163f57634e487b7160e01b600052602260045260246000fd5b50919050565b634e487b7160e01b600052601160045260246000fd5b808201808211156102a5576102a5611645565b634e487b7160e01b600052603260045260246000fd5b80820281158282048414176102a5576102a5611645565b634e487b7160e01b600052601260045260246000fd5b6000826116ce57634e487b7160e01b600052601260045260246000fd5b500490565b818103818111156102a5576102a561164556fea2646970667358221220e2448ea04a405668ff09e088231784e034cad210c2e89fb1112fab003f69c4dd64736f6c63430008110033496e697469616c697a61626c653a20636f6e7472616374206973206e6f742069",
    "linkReferences": {}
  },
  "methodIdentifiers": {
    "allowance(address,address)": "dd62ed3e",
    "approve(address,uint256)": "095ea7b3",
    "balanceOf(address)": "70a08231",
    "balanceOf(address,uint256)": "00fdd58e",
    "calculateEffectiveAPY(uint256,uint256)": "5c46f7b1",
    "decimals()": "313ce567",
    "decreaseAllowance(address,uint256)": "a457c2d7",
    "getCurrentAPY(uint256)": "7fbf3853",
    "increaseAllowance(address,uint256)": "39509351",
    "name()": "06fdde03",
    "poolInfo(uint256)": "1526fe27",
    "stakerBalance(address,uint256)": "70882b47",
    "symbol()": "95d89b41",
    "totalSupply()": "18160ddd",
    "transfer(address,uint256)": "a9059cbb",
    "transferFrom(address,address,uint256)": "23b872dd"
  },
  "id": 47
}