{
  "abi": [
    {
      "inputs": [
        {
          "internalType": "address",
          "name": "_token",
          "type": "address"
        },
        {
          "internalType": "address",
          "name": "_projectWallet",
          "type": "address"
        },
        {
          "internalType": "string",
          "name": "_projectName",
          "type": "string"
        },
        {
          "internalType": "address",
          "name": "_referrer",
          "type": "address"
        },
        {
          "internalType": "uint256",
          "name": "_referralFee",
          "type": "uint256"
        },
        {
          "internalType": "uint256",
          "name": "_referralEndTime",
          "type": "uint256"
        }
      ],
      "name": "addNewBountyPool",
      "outputs": [
        {
          "internalType": "uint256",
          "name": "",
          "type": "uint256"
        }
      ],
      "stateMutability": "nonpayable",
      "type": "function"
    },
    {
      "inputs": [
        {
          "internalType": "uint256",
          "name": "_pid",
          "type": "uint256"
        }
      ],
      "name": "viewBountyBalance",
      "outputs": [
        {
          "internalType": "uint256",
          "name": "",
          "type": "uint256"
        }
      ],
      "stateMutability": "view",
      "type": "function"
    }
  ],
  "bytecode": {
    "object": "0x608060405234801561001057600080fd5b50610c44806100206000396000f3fe608060405234801561001057600080fd5b50600436106100365760003560e01c806332fce6021461003b5780636ac6d81214610060575b600080fd5b61004e61004936600461090d565b610073565b60405190815260200160405180910390f35b61004e61006e366004610a02565b61048c565b6007546000906001600160a01b031633146100c15760405162461bcd60e51b81526020600482015260096024820152683737ba1037bbb732b960b91b60448201526064015b60405180910390fd5b61138883111561010b5760405162461bcd60e51b81526020600482015260156024820152740e4cacccae4e4c2d840cccaca40e8dede40d0d2ced605b1b60448201526064016100b8565b60408051600481526024810182526020810180516001600160e01b031663313ce56760e01b17905290516000916001600160a01b038a169161014d9190610a1b565b600060405180830381855afa9150503d8060008114610188576040519150601f19603f3d011682016040523d82523d6000602084013e61018d565b606091505b509150506000818060200190518101906101a79190610a4a565b905060068160ff1610156101f65760405162461bcd60e51b815260206004820152601660248201527524b73b30b634b2103232b1b4b6b0b6103932ba3ab93760511b60448201526064016100b8565b6101fe610747565b80516001600160a01b03808c16909152815160ff80851660209283015283518c8416606091820152845160809081018d905260a0860180518d87169052805185018c90525160409081018b9052601380546001810182556000919091528751805160189092027f66de8ffda797e3de9c05e8fc57b3bf0ec28a930d40b0d285d93c06501cf6a09081018054988301519483015161ffff16600160a81b0261ffff60a81b1995909816600160a01b026001600160a81b0319909916938a16939093179790971792909216949094178455918201517f66de8ffda797e3de9c05e8fc57b3bf0ec28a930d40b0d285d93c06501cf6a09185018054919096166001600160a01b03199190911617909455928301518493919283917f66de8ffda797e3de9c05e8fc57b3bf0ec28a930d40b0d285d93c06501cf6a092909101906103449082610af6565b5060a0820151600382015560c0820151600482015560e0909101516005909101556020828101518051600684015581015160078301556040808401518051600885015582015160098401556060808501518051600a86015580840151600b86015580830151600c860155810151600d8501805460ff191691151591909117905560808501518051600e860190815581850151600f87015592810151601086015590810151805191936103fe9260118701929091019061087b565b50505060a082015180516012830180546001600160a01b0319166001600160a01b039092169190911790556020810151601380840191909155604090910151601483015560c0830151601583015560e08301516016830155610100909201516017909101805460ff19169115159190911790555461047e90600190610bcc565b9a9950505050505050505050565b600080600060130183815481106104a5576104a5610be5565b6000918252602090912060408051610220810190915260189092020180546001600160a01b038082166101208501908152600160a01b830460ff16610140860152600160a81b90920461ffff1661016085015260018301541661018084015260028201805484929184916101a08501919061051f90610a6d565b80601f016020809104026020016040519081016040528092919081815260200182805461054b90610a6d565b80156105985780601f1061056d57610100808354040283529160200191610598565b820191906000526020600020905b81548152906001019060200180831161057b57829003601f168201915b505050918352505060038201546020808301919091526004830154604080840191909152600590930154606092830152928452815180830183526006860154815260078601548185015284840152815180830183526008860154815260098601548185015284830152815160808082018452600a8701548252600b87015482860152600c87015482850152600d87015460ff161515828401528583019190915282518082018452600e870180548252600f880154828701526010880154828601526011880180548651818902810189019097528087529390970196919590949386019392908301828280156106ac57602002820191906000526020600020905b815481526020019060010190808311610698575b505050919092525050508152604080516060808201835260128501546001600160a01b0316825260138501546020838101919091526014860154838501528085019290925260158501549284019290925260168401549183019190915260179092015460ff1615156080909101528181015190810151905191925061073091610bfb565b815160c001516107409190610bfb565b9392505050565b6040805161022081019091526000610120820181815261014083018290526101608301829052610180830182905260606101a08401526101c083018290526101e08301829052610200830191909152819081526020016107ba604051806040016040528060008152602001600081525090565b81526020016107dc604051806040016040528060008152602001600081525090565b815260200161080e60405180608001604052806000815260200160008152602001600081526020016000151581525090565b815260200161083e6040518060800160405280600081526020016000815260200160008152602001606081525090565b8152604080516060810182526000808252602082810182905292820152910190815260200160008152602001600081526020016000151581525090565b8280548282559060005260206000209081019282156108b6579160200282015b828111156108b657825182559160200191906001019061089b565b506108c29291506108c6565b5090565b5b808211156108c257600081556001016108c7565b80356001600160a01b03811681146108f257600080fd5b919050565b634e487b7160e01b600052604160045260246000fd5b60008060008060008060c0878903121561092657600080fd5b61092f876108db565b955061093d602088016108db565b9450604087013567ffffffffffffffff8082111561095a57600080fd5b818901915089601f83011261096e57600080fd5b813581811115610980576109806108f7565b604051601f8201601f19908116603f011681019083821181831017156109a8576109a86108f7565b816040528281528c60208487010111156109c157600080fd5b8260208601602083013760006020848301015280985050505050506109e8606088016108db565b92506080870135915060a087013590509295509295509295565b600060208284031215610a1457600080fd5b5035919050565b6000825160005b81811015610a3c5760208186018101518583015201610a22565b506000920191825250919050565b600060208284031215610a5c57600080fd5b815160ff8116811461074057600080fd5b600181811c90821680610a8157607f821691505b602082108103610aa157634e487b7160e01b600052602260045260246000fd5b50919050565b601f821115610af157600081815260208120601f850160051c81016020861015610ace5750805b601f850160051c820191505b81811015610aed57828155600101610ada565b5050505b505050565b815167ffffffffffffffff811115610b1057610b106108f7565b610b2481610b1e8454610a6d565b84610aa7565b602080601f831160018114610b595760008415610b415750858301515b600019600386901b1c1916600185901b178555610aed565b600085815260208120601f198616915b82811015610b8857888601518255948401946001909101908401610b69565b5085821015610ba65787850151600019600388901b60f8161c191681555b5050505050600190811b01905550565b634e487b7160e01b600052601160045260246000fd5b81810381811115610bdf57610bdf610bb6565b92915050565b634e487b7160e01b600052603260045260246000fd5b80820180821115610bdf57610bdf610bb656fea2646970667358221220db4dbc506b75f3e9445dc9852c55ef8095164a40f50cc888ba269cb24a6f5fa364736f6c63430008110033",
    "linkReferences": {}
  },
  "methodIdentifiers": {
    "addNewBountyPool(address,address,string,address,uint256,uint256)": "32fce602",
    "viewBountyBalance(uint256)": "6ac6d812"
  },
  "id": 45
}