{
  "abi": [
    {
      "anonymous": false,
      "inputs": [
        {
          "indexed": true,
          "internalType": "uint256",
          "name": "pid",
          "type": "uint256"
        },
        {
          "indexed": true,
          "internalType": "address",
          "name": "token",
          "type": "address"
        },
        {
          "indexed": false,
          "internalType": "uint256",
          "name": "tokenDecimals",
          "type": "uint256"
        }
      ],
      "name": "NewBountyDeployed",
      "type": "event"
    },
    {
      "anonymous": false,
      "inputs": [
        {
          "indexed": true,
          "internalType": "address",
          "name": "previousOwner",
          "type": "address"
        },
        {
          "indexed": true,
          "internalType": "address",
          "name": "pendingOwner",
          "type": "address"
        }
      ],
      "name": "NewOwner",
      "type": "event"
    },
    {
      "anonymous": false,
      "inputs": [
        {
          "indexed": true,
          "internalType": "address",
          "name": "pendingOwner",
          "type": "address"
        },
        {
          "indexed": true,
          "internalType": "address",
          "name": "newPendingOwner",
          "type": "address"
        }
      ],
      "name": "NewPendingOwner",
      "type": "event"
    },
    {
      "anonymous": false,
      "inputs": [
        {
          "indexed": true,
          "internalType": "uint256",
          "name": "pid",
          "type": "uint256"
        },
        {
          "indexed": false,
          "internalType": "uint256",
          "name": "amount",
          "type": "uint256"
        }
      ],
      "name": "PremiumBilled",
      "type": "event"
    },
    {
      "anonymous": false,
      "inputs": [
        {
          "indexed": true,
          "internalType": "address",
          "name": "referrer",
          "type": "address"
        },
        {
          "indexed": false,
          "internalType": "uint256",
          "name": "amount",
          "type": "uint256"
        }
      ],
      "name": "referralPaid",
      "type": "event"
    },
    {
      "anonymous": false,
      "inputs": [
        {
          "indexed": true,
          "internalType": "address",
          "name": "token",
          "type": "address"
        },
        {
          "indexed": true,
          "internalType": "bool",
          "name": "whitelisted",
          "type": "bool"
        }
      ],
      "name": "tokenWhitelistUpdated",
      "type": "event"
    },
    {
      "inputs": [],
      "name": "acceptOwnershipTransfer",
      "outputs": [],
      "stateMutability": "nonpayable",
      "type": "function"
    },
    {
      "inputs": [
        {
          "internalType": "address",
          "name": "_token",
          "type": "address"
        },
        {
          "internalType": "address",
          "name": "_projectWallet",
          "type": "address"
        },
        {
          "internalType": "string",
          "name": "_projectName",
          "type": "string"
        },
        {
          "internalType": "address",
          "name": "_referrer",
          "type": "address"
        },
        {
          "internalType": "uint256",
          "name": "_referralFee",
          "type": "uint256"
        },
        {
          "internalType": "uint256",
          "name": "_referralEndTime",
          "type": "uint256"
        }
      ],
      "name": "addNewBountyPool",
      "outputs": [
        {
          "internalType": "uint256",
          "name": "",
          "type": "uint256"
        }
      ],
      "stateMutability": "nonpayable",
      "type": "function"
    },
    {
      "inputs": [
        {
          "internalType": "uint256",
          "name": "_pid",
          "type": "uint256"
        }
      ],
      "name": "billPremium",
      "outputs": [
        {
          "internalType": "bool",
          "name": "",
          "type": "bool"
        }
      ],
      "stateMutability": "nonpayable",
      "type": "function"
    },
    {
      "inputs": [],
      "name": "collectAllReferralProfits",
      "outputs": [
        {
          "internalType": "bool",
          "name": "",
          "type": "bool"
        }
      ],
      "stateMutability": "nonpayable",
      "type": "function"
    },
    {
      "inputs": [
        {
          "internalType": "address",
          "name": "_saloonWallet",
          "type": "address"
        }
      ],
      "name": "collectAllSaloonProfits",
      "outputs": [
        {
          "internalType": "bool",
          "name": "",
          "type": "bool"
        }
      ],
      "stateMutability": "nonpayable",
      "type": "function"
    },
    {
      "inputs": [
        {
          "internalType": "address",
          "name": "_token",
          "type": "address"
        }
      ],
      "name": "collectReferralProfit",
      "outputs": [
        {
          "internalType": "bool",
          "name": "",
          "type": "bool"
        }
      ],
      "stateMutability": "nonpayable",
      "type": "function"
    },
    {
      "inputs": [
        {
          "internalType": "address",
          "name": "_token",
          "type": "address"
        },
        {
          "internalType": "address",
          "name": "_saloonWallet",
          "type": "address"
        }
      ],
      "name": "collectSaloonProfits",
      "outputs": [
        {
          "internalType": "bool",
          "name": "",
          "type": "bool"
        }
      ],
      "stateMutability": "nonpayable",
      "type": "function"
    },
    {
      "inputs": [
        {
          "internalType": "uint256",
          "name": "_pid",
          "type": "uint256"
        },
        {
          "internalType": "uint256",
          "name": "_endTime",
          "type": "uint256"
        }
      ],
      "name": "extendReferralPeriod",
      "outputs": [],
      "stateMutability": "nonpayable",
      "type": "function"
    },
    {
      "inputs": [],
      "name": "setLibSaloonStorage",
      "outputs": [],
      "stateMutability": "nonpayable",
      "type": "function"
    },
    {
      "inputs": [
        {
          "internalType": "address",
          "name": "_newPendingOwner",
          "type": "address"
        }
      ],
      "name": "setPendingOwner",
      "outputs": [],
      "stateMutability": "nonpayable",
      "type": "function"
    },
    {
      "inputs": [],
      "name": "setSecurityCouncilMembers",
      "outputs": [],
      "stateMutability": "nonpayable",
      "type": "function"
    },
    {
      "inputs": [
        {
          "internalType": "address",
          "name": "_strategyFactory",
          "type": "address"
        }
      ],
      "name": "setStrategyFactory",
      "outputs": [],
      "stateMutability": "nonpayable",
      "type": "function"
    },
    {
      "inputs": [],
      "name": "setUpgradePeriodAndNumberOfApprovals",
      "outputs": [],
      "stateMutability": "nonpayable",
      "type": "function"
    },
    {
      "inputs": [
        {
          "internalType": "uint256",
          "name": "_pid",
          "type": "uint256"
        }
      ],
      "name": "startAssessmentPeriod",
      "outputs": [],
      "stateMutability": "nonpayable",
      "type": "function"
    },
    {
      "inputs": [
        {
          "internalType": "address",
          "name": "_token",
          "type": "address"
        },
        {
          "internalType": "bool",
          "name": "_whitelisted",
          "type": "bool"
        },
        {
          "internalType": "uint256",
          "name": "_minStakeAmount",
          "type": "uint256"
        }
      ],
      "name": "updateTokenWhitelist",
      "outputs": [
        {
          "internalType": "bool",
          "name": "",
          "type": "bool"
        }
      ],
      "stateMutability": "nonpayable",
      "type": "function"
    }
  ],
  "bytecode": {
    "object": "0x608060405234801561001057600080fd5b50611e39806100206000396000f3fe608060405234801561001057600080fd5b50600436106100f55760003560e01c80635de406dc11610097578063b842e87f11610066578063b842e87f146101c4578063c42069ec146101cc578063cf9564b9146101df578063ecd7fbed146101f257600080fd5b80635de406dc146101835780639dd94c4214610196578063a089a5201461019e578063a5352bfd146101b157600080fd5b806332fce602116100d357806332fce6021461013f5780633e8888d914610160578063418f880d14610168578063583fc4391461017057600080fd5b806322af7415146100fa5780632cb0dfcc146101045780632dbe051e1461012c575b600080fd5b610102610205565b005b6101176101123660046118d8565b610246565b60405190151581526020015b60405180910390f35b61011761013a366004611919565b61043d565b61015261014d366004611948565b6104e8565b604051908152602001610123565b61011761093c565b61010261099f565b61010261017e366004611919565b610ab8565b610102610191366004611a41565b610b1b565b610102610bc9565b6101176101ac366004611a63565b610c5b565b6101026101bf366004611a63565b610d64565b610102610db0565b6101026101da366004611a63565b610eb1565b6101176101ed366004611a80565b610f44565b610117610200366004611a63565b610ffe565b6009546001600160a01b031633146102385760405162461bcd60e51b815260040161022f90611ab9565b60405180910390fd5b62093a806007556002600855565b6009546000906001600160a01b031633146102735760405162461bcd60e51b815260040161022f90611ab9565b6001600160a01b038416600081815260166020526040808220805460ff191687151590811790915590519092917f99795d51e5a8804307721456a7a9c2f0d7421f719d46a46d36e91fee7c85aa7691a3821561032a57506017805460018082019092557fc624b66cc0138b8fabc209247f72d758e1cf3343756d543badbf24212bed8c150180546001600160a01b0319166001600160a01b0386169081179091556000908152601860205260409020829055610436565b60175460005b8181101561043357600080601701828154811061034f5761034f611adc565b6000918252602090912001546001600160a01b0390811691508716810361042257601761037d600185611b08565b8154811061038d5761038d611adc565b600091825260209091200154601780546001600160a01b0390921691849081106103b9576103b9611adc565b600091825260209091200180546001600160a01b0319166001600160a01b039290921691909117905560178054806103f3576103f3611b1b565b600082815260209020810160001990810180546001600160a01b03191690550190555060019250610436915050565b5061042c81611b31565b9050610330565b50505b9392505050565b600080516020611de483398151915254600090600181146104855760405162461bcd60e51b8152602060048201526002602482015261723160f01b604482015260640161022f565b6002600080516020611de4833981519152556009546001600160a01b031633146104c15760405162461bcd60e51b815260040161022f90611ab9565b6104cc836000611090565b600191506001600080516020611de48339815191525550919050565b6009546000906001600160a01b031633146105155760405162461bcd60e51b815260040161022f90611ab9565b6001600160a01b03871660009081526016602052604090205460ff166105755760405162461bcd60e51b81526020600482015260156024820152741d1bdad95b881b9bdd081dda1a5d195b1a5cdd1959605a1b604482015260640161022f565b6113888311156105bf5760405162461bcd60e51b81526020600482015260156024820152740e4cacccae4e4c2d840cccaca40e8dede40d0d2ced605b1b604482015260640161022f565b60408051600481526024810182526020810180516001600160e01b031663313ce56760e01b17905290516000916001600160a01b038a16916106019190611b6e565b600060405180830381855afa9150503d806000811461063c576040519150601f19603f3d011682016040523d82523d6000602084013e610641565b606091505b5091505060008180602001905181019061065b9190611b8a565b905060068160ff1610156106aa5760405162461bcd60e51b815260206004820152601660248201527524b73b30b634b2103232b1b4b6b0b6103932ba3ab93760511b604482015260640161022f565b6106b2611716565b80516001600160a01b03808c16909152815160ff80851660209283015283518c8416606091820152845160809081018d905260a0860180518d87169052805185018c90525160409081018b9052600b80546001810182556000919091528751805160189092027f0175b7a638427703f0dbe7bb9bbf987a2551717b34e79f33b5b1008d1fa01db981018054988301519483015161ffff16600160a81b0261ffff60a81b1995909816600160a01b026001600160a81b0319909916938a16939093179790971792909216949094178455918201517f0175b7a638427703f0dbe7bb9bbf987a2551717b34e79f33b5b1008d1fa01dba85018054919096166001600160a01b03199190911617909455928301518493919283917f0175b7a638427703f0dbe7bb9bbf987a2551717b34e79f33b5b1008d1fa01dbb909101906107f89082611c35565b5060a0820151600382015560c0820151600482015560e0909101516005909101556020828101518051600684015581015160078301556040808401518051600885015582015160098401556060808501518051600a86015580840151600b86015580830151600c860155810151600d8501805460ff191691151591909117905560808501518051600e860190815581850151600f87015592810151601086015590810151805191936108b29260118701929091019061184a565b50505060a082015180516012830180546001600160a01b0319166001600160a01b039092169190911790556020810151601383015560400151601482015560c0820151601582015560e08201516016820155610100909101516017909101805460ff1916911515919091179055600b5461092e90600190611b08565b9a9950505050505050505050565b601754600090815b8181101561099657600080601701828154811061096357610963611adc565b6000918252602090912001546001600160a01b0316905061098381610c5b565b50508061098f90611b31565b9050610944565b50600191505090565b6009546001600160a01b031633146109c95760405162461bcd60e51b815260040161022f90611ab9565b670eb5e06245ea00007fb3489dd2b6aceffcd73eb3bc338c0fb7cf41e877855ec204580612eca103a15d556127107fb3489dd2b6aceffcd73eb3bc338c0fb7cf41e877855ec204580612eca103a15e55670de0b6b3a76400007fb3489dd2b6aceffcd73eb3bc338c0fb7cf41e877855ec204580612eca103a15f556301e133807fb3489dd2b6aceffcd73eb3bc338c0fb7cf41e877855ec204580612eca103a1605562093a807fb3489dd2b6aceffcd73eb3bc338c0fb7cf41e877855ec204580612eca103a161556103e87fb3489dd2b6aceffcd73eb3bc338c0fb7cf41e877855ec204580612eca103a16255565b6009546001600160a01b03163314610ae25760405162461bcd60e51b815260040161022f90611ab9565b610aef4262127500611cf5565b600b805483908110610b0357610b03611adc565b90600052602060002090601802016015018190555050565b6009546001600160a01b03163314610b455760405162461bcd60e51b815260040161022f90611ab9565b600080600b018381548110610b5c57610b5c611adc565b9060005260206000209060180201905080601201600201548211610bc25760405162461bcd60e51b815260206004820152601860248201527f63616e206f6e6c7920657874656e6420656e642074696d650000000000000000604482015260640161022f565b6014015550565b6009546001600160a01b03163314610bf35760405162461bcd60e51b815260040161022f90611ab9565b60046020527f948543ad562464d78df2375bcecaa90dc488cd7c4ce48810e4eb8e65a2916f0e8054600160ff199182168117909255615ec26000527fe2a907f9682ccc650d99ae5b2e59cac6396ff33450e26c7d25e43bf949a2799c80549091169091179055565b600080516020611de48339815191525460009060018114610ca35760405162461bcd60e51b8152602060048201526002602482015261723160f01b604482015260640161022f565b6002600080516020611de4833981519152553360009081526011602090815260408083206001600160a01b03871684529091529020548015610d47573360008181526011602090815260408083206001600160a01b0389168085529252822091909155610d109183611419565b5060405181815233907fbf7aaef98dccc47249def450ef0fd30757d553648a28fa7cd56e3b2b052724949060200160405180910390a25b60019250506001600080516020611de48339815191525550919050565b6009546001600160a01b03163314610d8e5760405162461bcd60e51b815260040161022f90611ab9565b601280546001600160a01b0319166001600160a01b0392909216919091179055565b600a546001600160a01b0316338114610dff5760405162461bcd60e51b81526020600482015260116024820152703737ba103832b73234b7339037bbb732b960791b604482015260640161022f565b6009546001600160a01b03828116911614610eae57600980546001600160a01b038381166001600160a01b03198084168217909455600a80549094169093556040519116916000917fb3d55174552271a4f1aaf36b72f50381e892171636b3fb5447fe00e995e7a37b908390a3816001600160a01b0316816001600160a01b03167f70aea8d848e8a90fb7661b227dc522eb6395c3dac71b63cb59edd5c9899b236460405160405180910390a3505b50565b6009546001600160a01b03163314610edb5760405162461bcd60e51b815260040161022f90611ab9565b6009546001600160a01b039081169082168114610f4057600a80546001600160a01b0319166001600160a01b0384811691821790925560405190918316907fb3d55174552271a4f1aaf36b72f50381e892171636b3fb5447fe00e995e7a37b90600090a35b5050565b6009546000906001600160a01b03163314610f715760405162461bcd60e51b815260040161022f90611ab9565b6001600160a01b0383166000908152600f60209081526040808320546010835281842054600e909352908320549091610fa991611cf5565b610fb39190611cf5565b6001600160a01b0385166000818152600e60209081526040808320839055600f82528083208390556010909152812055909150610ff1908483611419565b5060019150505b92915050565b6009546000906001600160a01b0316331461102b5760405162461bcd60e51b815260040161022f90611ab9565b60175460005b8181101561108457600080601701828154811061105057611050611adc565b6000918252602090912001546001600160a01b031690506110718186610f44565b50508061107d90611b31565b9050611031565b5060019150505b919050565b6040805160c0810182527fb3489dd2b6aceffcd73eb3bc338c0fb7cf41e877855ec204580612eca103a15d5481527fb3489dd2b6aceffcd73eb3bc338c0fb7cf41e877855ec204580612eca103a15e5460208201527fb3489dd2b6aceffcd73eb3bc338c0fb7cf41e877855ec204580612eca103a15f54918101919091527fb3489dd2b6aceffcd73eb3bc338c0fb7cf41e877855ec204580612eca103a1605460608201527fb3489dd2b6aceffcd73eb3bc338c0fb7cf41e877855ec204580612eca103a1615460808201527fb3489dd2b6aceffcd73eb3bc338c0fb7cf41e877855ec204580612eca103a1625460a0820152600b8054600091908590811061119b5761119b611adc565b600091825260208220601891909102016008810154600382015482546040516341b778fd60e11b81526004810192909252600160a81b900461ffff166024820152919350859173__$295e309c8a6ffd54f96e1a7c7b04118a38$__9063836ef1fa90604401602060405180830381865af415801561121d573d6000803e3d6000fd5b505050506040513d601f19601f820116820180604052508101906112419190611d08565b61124b9190611b08565b6112559190611cf5565b60018301548354919250611277916001600160a01b0390811691163084611489565b508082600801600001600082825461128f9190611cf5565b9091555050602083015160a0840151600091906112ac9084611d21565b6112b69190611d38565b60148401546013850154601286015460405163fc76fff360e01b815260048101859052602481019390935260448301919091526001600160a01b031660648201529091506000908190819073__$295e309c8a6ffd54f96e1a7c7b04118a38$__9063fc76fff390608401606060405180830381865af415801561133d573d6000803e3d6000fd5b505050506040513d601f19601f820116820180604052508101906113619190611d5a565b885492955090935091506001600160a01b031661137f8282856114d0565b6001600160a01b0381166000908152600f6020526040812080548692906113a7908490611cf5565b90915550600090506113b98688611b08565b9050808860080160010160008282546113d29190611cf5565b90915550506040518781528b907fadb049ad2d09be3db90459a16aef1ad0a4d89e8fdcc1ade9429d6cc55abbcd2b9060200160405180910390a25050505050505050505050565b6040516001600160a01b03831660248201526044810182905260009061147f90859063a9059cbb60e01b906064015b60408051601f198184030181529190526020810180516001600160e01b03166001600160e01b031990931692909217909152611521565b5060019392505050565b6040516001600160a01b03808516602483015283166044820152606481018290526000906114c49086906323b872dd60e01b90608401611448565b5060015b949350505050565b6001600160a01b0383161561151c576001600160a01b03808416600090815260116020908152604080832093861683529290529081208054839290611516908490611cf5565b90915550505b505050565b6000611576826040518060400160405280602081526020017f5361666545524332303a206c6f772d6c6576656c2063616c6c206661696c6564815250856001600160a01b03166115f39092919063ffffffff16565b80519091501561151c57808060200190518101906115949190611d93565b61151c5760405162461bcd60e51b815260206004820152602a60248201527f5361666545524332303a204552433230206f7065726174696f6e20646964206e6044820152691bdd081cdd58d8d9595960b21b606482015260840161022f565b60606114c8848460008585600080866001600160a01b0316858760405161161a9190611b6e565b60006040518083038185875af1925050503d8060008114611657576040519150601f19603f3d011682016040523d82523d6000602084013e61165c565b606091505b509150915061166d87838387611678565b979650505050505050565b606083156116e75782516000036116e0576001600160a01b0385163b6116e05760405162461bcd60e51b815260206004820152601d60248201527f416464726573733a2063616c6c20746f206e6f6e2d636f6e7472616374000000604482015260640161022f565b50816114c8565b6114c883838151156116fc5781518083602001fd5b8060405162461bcd60e51b815260040161022f9190611db0565b6040805161022081019091526000610120820181815261014083018290526101608301829052610180830182905260606101a08401526101c083018290526101e0830182905261020083019190915281908152602001611789604051806040016040528060008152602001600081525090565b81526020016117ab604051806040016040528060008152602001600081525090565b81526020016117dd60405180608001604052806000815260200160008152602001600081526020016000151581525090565b815260200161180d6040518060800160405280600081526020016000815260200160008152602001606081525090565b8152604080516060810182526000808252602082810182905292820152910190815260200160008152602001600081526020016000151581525090565b828054828255906000526020600020908101928215611885579160200282015b8281111561188557825182559160200191906001019061186a565b50611891929150611895565b5090565b5b808211156118915760008155600101611896565b6001600160a01b0381168114610eae57600080fd5b803561108b816118aa565b8015158114610eae57600080fd5b6000806000606084860312156118ed57600080fd5b83356118f8816118aa565b92506020840135611908816118ca565b929592945050506040919091013590565b60006020828403121561192b57600080fd5b5035919050565b634e487b7160e01b600052604160045260246000fd5b60008060008060008060c0878903121561196157600080fd5b863561196c816118aa565b9550602087013561197c816118aa565b9450604087013567ffffffffffffffff8082111561199957600080fd5b818901915089601f8301126119ad57600080fd5b8135818111156119bf576119bf611932565b604051601f8201601f19908116603f011681019083821181831017156119e7576119e7611932565b816040528281528c6020848701011115611a0057600080fd5b826020860160208301376000602084830101528098505050505050611a27606088016118bf565b92506080870135915060a087013590509295509295509295565b60008060408385031215611a5457600080fd5b50508035926020909101359150565b600060208284031215611a7557600080fd5b8135610436816118aa565b60008060408385031215611a9357600080fd5b8235611a9e816118aa565b91506020830135611aae816118aa565b809150509250929050565b6020808252600990820152683737ba1037bbb732b960b91b604082015260600190565b634e487b7160e01b600052603260045260246000fd5b634e487b7160e01b600052601160045260246000fd5b81810381811115610ff857610ff8611af2565b634e487b7160e01b600052603160045260246000fd5b600060018201611b4357611b43611af2565b5060010190565b60005b83811015611b65578181015183820152602001611b4d565b50506000910152565b60008251611b80818460208701611b4a565b9190910192915050565b600060208284031215611b9c57600080fd5b815160ff8116811461043657600080fd5b600181811c90821680611bc157607f821691505b602082108103611be157634e487b7160e01b600052602260045260246000fd5b50919050565b601f82111561151c57600081815260208120601f850160051c81016020861015611c0e5750805b601f850160051c820191505b81811015611c2d57828155600101611c1a565b505050505050565b815167ffffffffffffffff811115611c4f57611c4f611932565b611c6381611c5d8454611bad565b84611be7565b602080601f831160018114611c985760008415611c805750858301515b600019600386901b1c1916600185901b178555611c2d565b600085815260208120601f198616915b82811015611cc757888601518255948401946001909101908401611ca8565b5085821015611ce55787850151600019600388901b60f8161c191681555b5050505050600190811b01905550565b80820180821115610ff857610ff8611af2565b600060208284031215611d1a57600080fd5b5051919050565b8082028115828204841417610ff857610ff8611af2565b600082611d5557634e487b7160e01b600052601260045260246000fd5b500490565b600080600060608486031215611d6f57600080fd5b83519250602084015191506040840151611d88816118aa565b809150509250925092565b600060208284031215611da557600080fd5b8151610436816118ca565b6020815260008251806020840152611dcf816040850160208701611b4a565b601f01601f1916919091016040019291505056fe8e94fed44239eb2314ab7a406345e6c5a8f0ccedf3b600de3d004e672c33abf4a2646970667358221220f13b6a99ea4723ea1f66f211e0af790aff10880b2c82ddbf17709b9acf947be964736f6c63430008130033",
    "linkReferences": {
      "src/lib/LibSaloon.sol": {
        "LibSaloon": [
          {
            "start": 4611,
            "length": 20
          },
          {
            "start": 4899,
            "length": 20
          }
        ]
      }
    }
  },
  "methodIdentifiers": {
    "acceptOwnershipTransfer()": "b842e87f",
    "addNewBountyPool(address,address,string,address,uint256,uint256)": "32fce602",
    "billPremium(uint256)": "2dbe051e",
    "collectAllReferralProfits()": "3e8888d9",
    "collectAllSaloonProfits(address)": "ecd7fbed",
    "collectReferralProfit(address)": "a089a520",
    "collectSaloonProfits(address,address)": "cf9564b9",
    "extendReferralPeriod(uint256,uint256)": "5de406dc",
    "setLibSaloonStorage()": "418f880d",
    "setPendingOwner(address)": "c42069ec",
    "setSecurityCouncilMembers()": "9dd94c42",
    "setStrategyFactory(address)": "a5352bfd",
    "setUpgradePeriodAndNumberOfApprovals()": "22af7415",
    "startAssessmentPeriod(uint256)": "583fc439",
    "updateTokenWhitelist(address,bool,uint256)": "2cb0dfcc"
  },
  "id": 46
}