{
  "abi": [
    {
      "anonymous": false,
      "inputs": [
        {
          "indexed": true,
          "internalType": "uint256",
          "name": "pid",
          "type": "uint256"
        },
        {
          "indexed": true,
          "internalType": "address",
          "name": "token",
          "type": "address"
        },
        {
          "indexed": false,
          "internalType": "uint256",
          "name": "tokenDecimals",
          "type": "uint256"
        }
      ],
      "name": "NewBountyDeployed",
      "type": "event"
    },
    {
      "anonymous": false,
      "inputs": [
        {
          "indexed": true,
          "internalType": "uint256",
          "name": "pid",
          "type": "uint256"
        },
        {
          "indexed": false,
          "internalType": "uint256",
          "name": "amount",
          "type": "uint256"
        }
      ],
      "name": "PremiumBilled",
      "type": "event"
    },
    {
      "anonymous": false,
      "inputs": [
        {
          "indexed": true,
          "internalType": "address",
          "name": "referrer",
          "type": "address"
        },
        {
          "indexed": false,
          "internalType": "uint256",
          "name": "amount",
          "type": "uint256"
        }
      ],
      "name": "referralPaid",
      "type": "event"
    },
    {
      "anonymous": false,
      "inputs": [
        {
          "indexed": true,
          "internalType": "address",
          "name": "token",
          "type": "address"
        },
        {
          "indexed": true,
          "internalType": "bool",
          "name": "whitelisted",
          "type": "bool"
        }
      ],
      "name": "tokenWhitelistUpdated",
      "type": "event"
    },
    {
      "inputs": [
        {
          "internalType": "address",
          "name": "_token",
          "type": "address"
        },
        {
          "internalType": "address",
          "name": "_projectWallet",
          "type": "address"
        },
        {
          "internalType": "string",
          "name": "_projectName",
          "type": "string"
        },
        {
          "internalType": "address",
          "name": "_referrer",
          "type": "address"
        },
        {
          "internalType": "uint256",
          "name": "_referralFee",
          "type": "uint256"
        },
        {
          "internalType": "uint256",
          "name": "_referralEndTime",
          "type": "uint256"
        }
      ],
      "name": "addNewBountyPool",
      "outputs": [
        {
          "internalType": "uint256",
          "name": "",
          "type": "uint256"
        }
      ],
      "stateMutability": "nonpayable",
      "type": "function"
    },
    {
      "inputs": [
        {
          "internalType": "uint256",
          "name": "_pid",
          "type": "uint256"
        }
      ],
      "name": "billPremium",
      "outputs": [
        {
          "internalType": "bool",
          "name": "",
          "type": "bool"
        }
      ],
      "stateMutability": "nonpayable",
      "type": "function"
    },
    {
      "inputs": [],
      "name": "collectAllReferralProfits",
      "outputs": [
        {
          "internalType": "bool",
          "name": "",
          "type": "bool"
        }
      ],
      "stateMutability": "nonpayable",
      "type": "function"
    },
    {
      "inputs": [
        {
          "internalType": "address",
          "name": "_saloonWallet",
          "type": "address"
        }
      ],
      "name": "collectAllSaloonProfits",
      "outputs": [
        {
          "internalType": "bool",
          "name": "",
          "type": "bool"
        }
      ],
      "stateMutability": "nonpayable",
      "type": "function"
    },
    {
      "inputs": [
        {
          "internalType": "address",
          "name": "_token",
          "type": "address"
        }
      ],
      "name": "collectReferralProfit",
      "outputs": [
        {
          "internalType": "bool",
          "name": "",
          "type": "bool"
        }
      ],
      "stateMutability": "nonpayable",
      "type": "function"
    },
    {
      "inputs": [
        {
          "internalType": "address",
          "name": "_token",
          "type": "address"
        },
        {
          "internalType": "address",
          "name": "_saloonWallet",
          "type": "address"
        }
      ],
      "name": "collectSaloonProfits",
      "outputs": [
        {
          "internalType": "bool",
          "name": "",
          "type": "bool"
        }
      ],
      "stateMutability": "nonpayable",
      "type": "function"
    },
    {
      "inputs": [
        {
          "internalType": "uint256",
          "name": "_pid",
          "type": "uint256"
        },
        {
          "internalType": "uint256",
          "name": "_endTime",
          "type": "uint256"
        }
      ],
      "name": "extendReferralPeriod",
      "outputs": [],
      "stateMutability": "nonpayable",
      "type": "function"
    },
    {
      "inputs": [
        {
          "internalType": "address",
          "name": "_strategyFactory",
          "type": "address"
        }
      ],
      "name": "setStrategyFactory",
      "outputs": [],
      "stateMutability": "nonpayable",
      "type": "function"
    },
    {
      "inputs": [
        {
          "internalType": "uint256",
          "name": "_pid",
          "type": "uint256"
        }
      ],
      "name": "startAssessmentPeriod",
      "outputs": [],
      "stateMutability": "nonpayable",
      "type": "function"
    },
    {
      "inputs": [
        {
          "internalType": "address",
          "name": "_token",
          "type": "address"
        },
        {
          "internalType": "bool",
          "name": "_whitelisted",
          "type": "bool"
        },
        {
          "internalType": "uint256",
          "name": "_minStakeAmount",
          "type": "uint256"
        }
      ],
      "name": "updateTokenWhitelist",
      "outputs": [
        {
          "internalType": "bool",
          "name": "",
          "type": "bool"
        }
      ],
      "stateMutability": "nonpayable",
      "type": "function"
    }
  ],
  "bytecode": {
    "object": "0x608060405234801561001057600080fd5b50611a3b806100206000396000f3fe608060405234801561001057600080fd5b506004361061009e5760003560e01c80635de406dc116100665780635de406dc1461011c578063a089a5201461012f578063a5352bfd14610142578063cf9564b914610155578063ecd7fbed1461016857600080fd5b80632cb0dfcc146100a35780632dbe051e146100cb57806332fce602146100de5780633e8888d9146100ff578063583fc43914610107575b600080fd5b6100b66100b13660046114da565b61017b565b60405190151581526020015b60405180910390f35b6100b66100d936600461151b565b61037b565b6100f16100ec36600461154a565b610426565b6040519081526020016100c2565b6100b661087a565b61011a61011536600461151b565b6108dd565b005b61011a61012a366004611643565b610940565b6100b661013d366004611665565b6109ee565b61011a610150366004611665565b610af7565b6100b6610163366004611682565b610b43565b6100b6610176366004611665565b610bfd565b6007546000906001600160a01b031633146101b15760405162461bcd60e51b81526004016101a8906116bb565b60405180910390fd5b6001600160a01b038416600081815260186020526040808220805460ff191687151590811790915590519092917f99795d51e5a8804307721456a7a9c2f0d7421f719d46a46d36e91fee7c85aa7691a3821561026857506019805460018082019092557f944998273e477b495144fb8794c914197f3ccb46be2900f4698fd0ef743c96950180546001600160a01b0319166001600160a01b0386169081179091556000908152601a60205260409020829055610374565b60195460005b8181101561037157600080601901828154811061028d5761028d6116de565b6000918252602090912001546001600160a01b039081169150871681036103605760196102bb60018561170a565b815481106102cb576102cb6116de565b600091825260209091200154601980546001600160a01b0390921691849081106102f7576102f76116de565b600091825260209091200180546001600160a01b0319166001600160a01b039290921691909117905560198054806103315761033161171d565b600082815260209020810160001990810180546001600160a01b03191690550190555060019250610374915050565b5061036a81611733565b905061026e565b50505b9392505050565b6000805160206119e683398151915254600090600181146103c35760405162461bcd60e51b8152602060048201526002602482015261723160f01b60448201526064016101a8565b60026000805160206119e6833981519152556007546001600160a01b031633146103ff5760405162461bcd60e51b81526004016101a8906116bb565b61040a836000610c8f565b6001915060016000805160206119e68339815191525550919050565b6007546000906001600160a01b031633146104535760405162461bcd60e51b81526004016101a8906116bb565b6001600160a01b03871660009081526018602052604090205460ff166104b35760405162461bcd60e51b81526020600482015260156024820152741d1bdad95b881b9bdd081dda1a5d195b1a5cdd1959605a1b60448201526064016101a8565b6113888311156104fd5760405162461bcd60e51b81526020600482015260156024820152740e4cacccae4e4c2d840cccaca40e8dede40d0d2ced605b1b60448201526064016101a8565b60408051600481526024810182526020810180516001600160e01b031663313ce56760e01b17905290516000916001600160a01b038a169161053f9190611770565b600060405180830381855afa9150503d806000811461057a576040519150601f19603f3d011682016040523d82523d6000602084013e61057f565b606091505b50915050600081806020019051810190610599919061178c565b905060068160ff1610156105e85760405162461bcd60e51b815260206004820152601660248201527524b73b30b634b2103232b1b4b6b0b6103932ba3ab93760511b60448201526064016101a8565b6105f0611315565b80516001600160a01b03808c16909152815160ff80851660209283015283518c8416606091820152845160809081018d905260a0860180518d87169052805185018c90525160409081018b9052600d80546001810182556000919091528751805160189092027fd7b6990105719101dabeb77144f2a3385c8033acd3af97e9423a695e81ad1eb581018054988301519483015161ffff16600160a81b0261ffff60a81b1995909816600160a01b026001600160a81b0319909916938a16939093179790971792909216949094178455918201517fd7b6990105719101dabeb77144f2a3385c8033acd3af97e9423a695e81ad1eb685018054919096166001600160a01b03199190911617909455928301518493919283917fd7b6990105719101dabeb77144f2a3385c8033acd3af97e9423a695e81ad1eb7909101906107369082611837565b5060a0820151600382015560c0820151600482015560e0909101516005909101556020828101518051600684015581015160078301556040808401518051600885015582015160098401556060808501518051600a86015580840151600b86015580830151600c860155810151600d8501805460ff191691151591909117905560808501518051600e860190815581850151600f87015592810151601086015590810151805191936107f092601187019290910190611449565b50505060a082015180516012830180546001600160a01b0319166001600160a01b039092169190911790556020810151601383015560400151601482015560c0820151601582015560e08201516016820155610100909101516017909101805460ff1916911515919091179055600d5461086c9060019061170a565b9a9950505050505050505050565b601954600090815b818110156108d45760008060190182815481106108a1576108a16116de565b6000918252602090912001546001600160a01b031690506108c1816109ee565b5050806108cd90611733565b9050610882565b50600191505090565b6007546001600160a01b031633146109075760405162461bcd60e51b81526004016101a8906116bb565b61091442621275006118f7565b600d805483908110610928576109286116de565b90600052602060002090601802016015018190555050565b6007546001600160a01b0316331461096a5760405162461bcd60e51b81526004016101a8906116bb565b600080600d018381548110610981576109816116de565b90600052602060002090601802019050806012016002015482116109e75760405162461bcd60e51b815260206004820152601860248201527f63616e206f6e6c7920657874656e6420656e642074696d65000000000000000060448201526064016101a8565b6014015550565b6000805160206119e68339815191525460009060018114610a365760405162461bcd60e51b8152602060048201526002602482015261723160f01b60448201526064016101a8565b60026000805160206119e6833981519152553360009081526013602090815260408083206001600160a01b03871684529091529020548015610ada573360008181526013602090815260408083206001600160a01b0389168085529252822091909155610aa39183611018565b5060405181815233907fbf7aaef98dccc47249def450ef0fd30757d553648a28fa7cd56e3b2b052724949060200160405180910390a25b600192505060016000805160206119e68339815191525550919050565b6007546001600160a01b03163314610b215760405162461bcd60e51b81526004016101a8906116bb565b601480546001600160a01b0319166001600160a01b0392909216919091179055565b6007546000906001600160a01b03163314610b705760405162461bcd60e51b81526004016101a8906116bb565b6001600160a01b03831660009081526011602090815260408083205460128352818420546010909352908320549091610ba8916118f7565b610bb291906118f7565b6001600160a01b0385166000818152601060209081526040808320839055601182528083208390556012909152812055909150610bf0908483611018565b5060019150505b92915050565b6007546000906001600160a01b03163314610c2a5760405162461bcd60e51b81526004016101a8906116bb565b60195460005b81811015610c83576000806019018281548110610c4f57610c4f6116de565b6000918252602090912001546001600160a01b03169050610c708186610b43565b505080610c7c90611733565b9050610c30565b5060019150505b919050565b6040805160c0810182527fb3489dd2b6aceffcd73eb3bc338c0fb7cf41e877855ec204580612eca103a15d5481527fb3489dd2b6aceffcd73eb3bc338c0fb7cf41e877855ec204580612eca103a15e5460208201527fb3489dd2b6aceffcd73eb3bc338c0fb7cf41e877855ec204580612eca103a15f54918101919091527fb3489dd2b6aceffcd73eb3bc338c0fb7cf41e877855ec204580612eca103a1605460608201527fb3489dd2b6aceffcd73eb3bc338c0fb7cf41e877855ec204580612eca103a1615460808201527fb3489dd2b6aceffcd73eb3bc338c0fb7cf41e877855ec204580612eca103a1625460a0820152600d80546000919085908110610d9a57610d9a6116de565b600091825260208220601891909102016008810154600382015482546040516341b778fd60e11b81526004810192909252600160a81b900461ffff166024820152919350859173__$295e309c8a6ffd54f96e1a7c7b04118a38$__9063836ef1fa90604401602060405180830381865af4158015610e1c573d6000803e3d6000fd5b505050506040513d601f19601f82011682018060405250810190610e40919061190a565b610e4a919061170a565b610e5491906118f7565b60018301548354919250610e76916001600160a01b0390811691163084611088565b5080826008016000016000828254610e8e91906118f7565b9091555050602083015160a084015160009190610eab9084611923565b610eb5919061193a565b60148401546013850154601286015460405163fc76fff360e01b815260048101859052602481019390935260448301919091526001600160a01b031660648201529091506000908190819073__$295e309c8a6ffd54f96e1a7c7b04118a38$__9063fc76fff390608401606060405180830381865af4158015610f3c573d6000803e3d6000fd5b505050506040513d601f19601f82011682018060405250810190610f60919061195c565b885492955090935091506001600160a01b0316610f7e8282856110cf565b6001600160a01b03811660009081526011602052604081208054869290610fa69084906118f7565b9091555060009050610fb8868861170a565b905080886008016001016000828254610fd191906118f7565b90915550506040518781528b907fadb049ad2d09be3db90459a16aef1ad0a4d89e8fdcc1ade9429d6cc55abbcd2b9060200160405180910390a25050505050505050505050565b6040516001600160a01b03831660248201526044810182905260009061107e90859063a9059cbb60e01b906064015b60408051601f198184030181529190526020810180516001600160e01b03166001600160e01b031990931692909217909152611120565b5060019392505050565b6040516001600160a01b03808516602483015283166044820152606481018290526000906110c39086906323b872dd60e01b90608401611047565b5060015b949350505050565b6001600160a01b0383161561111b576001600160a01b038084166000908152601360209081526040808320938616835292905290812080548392906111159084906118f7565b90915550505b505050565b6000611175826040518060400160405280602081526020017f5361666545524332303a206c6f772d6c6576656c2063616c6c206661696c6564815250856001600160a01b03166111f29092919063ffffffff16565b80519091501561111b57808060200190518101906111939190611995565b61111b5760405162461bcd60e51b815260206004820152602a60248201527f5361666545524332303a204552433230206f7065726174696f6e20646964206e6044820152691bdd081cdd58d8d9595960b21b60648201526084016101a8565b60606110c7848460008585600080866001600160a01b031685876040516112199190611770565b60006040518083038185875af1925050503d8060008114611256576040519150601f19603f3d011682016040523d82523d6000602084013e61125b565b606091505b509150915061126c87838387611277565b979650505050505050565b606083156112e65782516000036112df576001600160a01b0385163b6112df5760405162461bcd60e51b815260206004820152601d60248201527f416464726573733a2063616c6c20746f206e6f6e2d636f6e747261637400000060448201526064016101a8565b50816110c7565b6110c783838151156112fb5781518083602001fd5b8060405162461bcd60e51b81526004016101a891906119b2565b6040805161022081019091526000610120820181815261014083018290526101608301829052610180830182905260606101a08401526101c083018290526101e0830182905261020083019190915281908152602001611388604051806040016040528060008152602001600081525090565b81526020016113aa604051806040016040528060008152602001600081525090565b81526020016113dc60405180608001604052806000815260200160008152602001600081526020016000151581525090565b815260200161140c6040518060800160405280600081526020016000815260200160008152602001606081525090565b8152604080516060810182526000808252602082810182905292820152910190815260200160008152602001600081526020016000151581525090565b828054828255906000526020600020908101928215611484579160200282015b82811115611484578251825591602001919060010190611469565b50611490929150611494565b5090565b5b808211156114905760008155600101611495565b6001600160a01b03811681146114be57600080fd5b50565b8035610c8a816114a9565b80151581146114be57600080fd5b6000806000606084860312156114ef57600080fd5b83356114fa816114a9565b9250602084013561150a816114cc565b929592945050506040919091013590565b60006020828403121561152d57600080fd5b5035919050565b634e487b7160e01b600052604160045260246000fd5b60008060008060008060c0878903121561156357600080fd5b863561156e816114a9565b9550602087013561157e816114a9565b9450604087013567ffffffffffffffff8082111561159b57600080fd5b818901915089601f8301126115af57600080fd5b8135818111156115c1576115c1611534565b604051601f8201601f19908116603f011681019083821181831017156115e9576115e9611534565b816040528281528c602084870101111561160257600080fd5b826020860160208301376000602084830101528098505050505050611629606088016114c1565b92506080870135915060a087013590509295509295509295565b6000806040838503121561165657600080fd5b50508035926020909101359150565b60006020828403121561167757600080fd5b8135610374816114a9565b6000806040838503121561169557600080fd5b82356116a0816114a9565b915060208301356116b0816114a9565b809150509250929050565b6020808252600990820152683737ba1037bbb732b960b91b604082015260600190565b634e487b7160e01b600052603260045260246000fd5b634e487b7160e01b600052601160045260246000fd5b81810381811115610bf757610bf76116f4565b634e487b7160e01b600052603160045260246000fd5b600060018201611745576117456116f4565b5060010190565b60005b8381101561176757818101518382015260200161174f565b50506000910152565b6000825161178281846020870161174c565b9190910192915050565b60006020828403121561179e57600080fd5b815160ff8116811461037457600080fd5b600181811c908216806117c357607f821691505b6020821081036117e357634e487b7160e01b600052602260045260246000fd5b50919050565b601f82111561111b57600081815260208120601f850160051c810160208610156118105750805b601f850160051c820191505b8181101561182f5782815560010161181c565b505050505050565b815167ffffffffffffffff81111561185157611851611534565b6118658161185f84546117af565b846117e9565b602080601f83116001811461189a57600084156118825750858301515b600019600386901b1c1916600185901b17855561182f565b600085815260208120601f198616915b828110156118c9578886015182559484019460019091019084016118aa565b50858210156118e75787850151600019600388901b60f8161c191681555b5050505050600190811b01905550565b80820180821115610bf757610bf76116f4565b60006020828403121561191c57600080fd5b5051919050565b8082028115828204841417610bf757610bf76116f4565b60008261195757634e487b7160e01b600052601260045260246000fd5b500490565b60008060006060848603121561197157600080fd5b8351925060208401519150604084015161198a816114a9565b809150509250925092565b6000602082840312156119a757600080fd5b8151610374816114cc565b60208152600082518060208401526119d181604085016020870161174c565b601f01601f1916919091016040019291505056fe8e94fed44239eb2314ab7a406345e6c5a8f0ccedf3b600de3d004e672c33abf4a26469706673582212200836bf53736523be77da3e91548af5ad7e6cec263ca7f882cf2dfefd388649d064736f6c63430008110033",
    "linkReferences": {
      "src/lib/LibSaloon.sol": {
        "LibSaloon": [
          {
            "start": 3586,
            "length": 20
          },
          {
            "start": 3874,
            "length": 20
          }
        ]
      }
    }
  },
  "methodIdentifiers": {
    "addNewBountyPool(address,address,string,address,uint256,uint256)": "32fce602",
    "billPremium(uint256)": "2dbe051e",
    "collectAllReferralProfits()": "3e8888d9",
    "collectAllSaloonProfits(address)": "ecd7fbed",
    "collectReferralProfit(address)": "a089a520",
    "collectSaloonProfits(address,address)": "cf9564b9",
    "extendReferralPeriod(uint256,uint256)": "5de406dc",
    "setStrategyFactory(address)": "a5352bfd",
    "startAssessmentPeriod(uint256)": "583fc439",
    "updateTokenWhitelist(address,bool,uint256)": "2cb0dfcc"
  },
  "id": 51
}