{
  "abi": [
    {
      "anonymous": false,
      "inputs": [
        {
          "indexed": true,
          "internalType": "uint256",
          "name": "pid",
          "type": "uint256"
        },
        {
          "indexed": true,
          "internalType": "address",
          "name": "token",
          "type": "address"
        },
        {
          "indexed": false,
          "internalType": "uint256",
          "name": "tokenDecimals",
          "type": "uint256"
        }
      ],
      "name": "NewBountyDeployed",
      "type": "event"
    },
    {
      "anonymous": false,
      "inputs": [
        {
          "indexed": true,
          "internalType": "uint256",
          "name": "pid",
          "type": "uint256"
        },
        {
          "indexed": false,
          "internalType": "uint256",
          "name": "amount",
          "type": "uint256"
        }
      ],
      "name": "PremiumBilled",
      "type": "event"
    },
    {
      "anonymous": false,
      "inputs": [
        {
          "indexed": true,
          "internalType": "address",
          "name": "referrer",
          "type": "address"
        },
        {
          "indexed": false,
          "internalType": "uint256",
          "name": "amount",
          "type": "uint256"
        }
      ],
      "name": "referralPaid",
      "type": "event"
    },
    {
      "anonymous": false,
      "inputs": [
        {
          "indexed": true,
          "internalType": "address",
          "name": "token",
          "type": "address"
        },
        {
          "indexed": true,
          "internalType": "bool",
          "name": "whitelisted",
          "type": "bool"
        }
      ],
      "name": "tokenWhitelistUpdated",
      "type": "event"
    },
    {
      "inputs": [
        {
          "internalType": "address",
          "name": "_token",
          "type": "address"
        },
        {
          "internalType": "address",
          "name": "_projectWallet",
          "type": "address"
        },
        {
          "internalType": "string",
          "name": "_projectName",
          "type": "string"
        },
        {
          "internalType": "address",
          "name": "_referrer",
          "type": "address"
        },
        {
          "internalType": "uint256",
          "name": "_referralFee",
          "type": "uint256"
        },
        {
          "internalType": "uint256",
          "name": "_referralEndTime",
          "type": "uint256"
        }
      ],
      "name": "addNewBountyPool",
      "outputs": [
        {
          "internalType": "uint256",
          "name": "",
          "type": "uint256"
        }
      ],
      "stateMutability": "nonpayable",
      "type": "function"
    },
    {
      "inputs": [
        {
          "internalType": "uint256",
          "name": "_pid",
          "type": "uint256"
        }
      ],
      "name": "billPremium",
      "outputs": [
        {
          "internalType": "bool",
          "name": "",
          "type": "bool"
        }
      ],
      "stateMutability": "nonpayable",
      "type": "function"
    },
    {
      "inputs": [],
      "name": "collectAllReferralProfits",
      "outputs": [
        {
          "internalType": "bool",
          "name": "",
          "type": "bool"
        }
      ],
      "stateMutability": "nonpayable",
      "type": "function"
    },
    {
      "inputs": [
        {
          "internalType": "address",
          "name": "_saloonWallet",
          "type": "address"
        }
      ],
      "name": "collectAllSaloonProfits",
      "outputs": [
        {
          "internalType": "bool",
          "name": "",
          "type": "bool"
        }
      ],
      "stateMutability": "nonpayable",
      "type": "function"
    },
    {
      "inputs": [
        {
          "internalType": "address",
          "name": "_token",
          "type": "address"
        }
      ],
      "name": "collectReferralProfit",
      "outputs": [
        {
          "internalType": "bool",
          "name": "",
          "type": "bool"
        }
      ],
      "stateMutability": "nonpayable",
      "type": "function"
    },
    {
      "inputs": [
        {
          "internalType": "address",
          "name": "_token",
          "type": "address"
        },
        {
          "internalType": "address",
          "name": "_saloonWallet",
          "type": "address"
        }
      ],
      "name": "collectSaloonProfits",
      "outputs": [
        {
          "internalType": "bool",
          "name": "",
          "type": "bool"
        }
      ],
      "stateMutability": "nonpayable",
      "type": "function"
    },
    {
      "inputs": [
        {
          "internalType": "uint256",
          "name": "_pid",
          "type": "uint256"
        },
        {
          "internalType": "uint256",
          "name": "_endTime",
          "type": "uint256"
        }
      ],
      "name": "extendReferralPeriod",
      "outputs": [],
      "stateMutability": "nonpayable",
      "type": "function"
    },
    {
      "inputs": [],
      "name": "setLibSaloonStorage",
      "outputs": [],
      "stateMutability": "nonpayable",
      "type": "function"
    },
    {
      "inputs": [
        {
          "internalType": "address",
          "name": "_strategyFactory",
          "type": "address"
        }
      ],
      "name": "setStrategyFactory",
      "outputs": [],
      "stateMutability": "nonpayable",
      "type": "function"
    },
    {
      "inputs": [
        {
          "internalType": "uint256",
          "name": "_pid",
          "type": "uint256"
        }
      ],
      "name": "startAssessmentPeriod",
      "outputs": [],
      "stateMutability": "nonpayable",
      "type": "function"
    },
    {
      "inputs": [
        {
          "internalType": "address",
          "name": "_token",
          "type": "address"
        },
        {
          "internalType": "bool",
          "name": "_whitelisted",
          "type": "bool"
        },
        {
          "internalType": "uint256",
          "name": "_minStakeAmount",
          "type": "uint256"
        }
      ],
      "name": "updateTokenWhitelist",
      "outputs": [
        {
          "internalType": "bool",
          "name": "",
          "type": "bool"
        }
      ],
      "stateMutability": "nonpayable",
      "type": "function"
    }
  ],
  "bytecode": {
    "object": "0x608060405234801561001057600080fd5b50611b67806100206000396000f3fe608060405234801561001057600080fd5b50600436106100a95760003560e01c8063583fc43911610071578063583fc4391461011c5780635de406dc1461012f578063a089a52014610142578063a5352bfd14610155578063cf9564b914610168578063ecd7fbed1461017b57600080fd5b80632cb0dfcc146100ae5780632dbe051e146100d657806332fce602146100e95780633e8888d91461010a578063418f880d14610112575b600080fd5b6100c16100bc366004611606565b61018e565b60405190151581526020015b60405180910390f35b6100c16100e4366004611647565b61038e565b6100fc6100f7366004611676565b610439565b6040519081526020016100cd565b6100c161088d565b61011a6108f0565b005b61011a61012a366004611647565b610a09565b61011a61013d36600461176f565b610a6c565b6100c1610150366004611791565b610b1a565b61011a610163366004611791565b610c23565b6100c16101763660046117ae565b610c6f565b6100c1610189366004611791565b610d29565b6007546000906001600160a01b031633146101c45760405162461bcd60e51b81526004016101bb906117e7565b60405180910390fd5b6001600160a01b038416600081815260186020526040808220805460ff191687151590811790915590519092917f99795d51e5a8804307721456a7a9c2f0d7421f719d46a46d36e91fee7c85aa7691a3821561027b57506019805460018082019092557f944998273e477b495144fb8794c914197f3ccb46be2900f4698fd0ef743c96950180546001600160a01b0319166001600160a01b0386169081179091556000908152601a60205260409020829055610387565b60195460005b818110156103845760008060190182815481106102a0576102a061180a565b6000918252602090912001546001600160a01b039081169150871681036103735760196102ce600185611836565b815481106102de576102de61180a565b600091825260209091200154601980546001600160a01b03909216918490811061030a5761030a61180a565b600091825260209091200180546001600160a01b0319166001600160a01b0392909216919091179055601980548061034457610344611849565b600082815260209020810160001990810180546001600160a01b03191690550190555060019250610387915050565b5061037d8161185f565b9050610281565b50505b9392505050565b600080516020611b1283398151915254600090600181146103d65760405162461bcd60e51b8152602060048201526002602482015261723160f01b60448201526064016101bb565b6002600080516020611b12833981519152556007546001600160a01b031633146104125760405162461bcd60e51b81526004016101bb906117e7565b61041d836000610dbb565b600191506001600080516020611b128339815191525550919050565b6007546000906001600160a01b031633146104665760405162461bcd60e51b81526004016101bb906117e7565b6001600160a01b03871660009081526018602052604090205460ff166104c65760405162461bcd60e51b81526020600482015260156024820152741d1bdad95b881b9bdd081dda1a5d195b1a5cdd1959605a1b60448201526064016101bb565b6113888311156105105760405162461bcd60e51b81526020600482015260156024820152740e4cacccae4e4c2d840cccaca40e8dede40d0d2ced605b1b60448201526064016101bb565b60408051600481526024810182526020810180516001600160e01b031663313ce56760e01b17905290516000916001600160a01b038a1691610552919061189c565b600060405180830381855afa9150503d806000811461058d576040519150601f19603f3d011682016040523d82523d6000602084013e610592565b606091505b509150506000818060200190518101906105ac91906118b8565b905060068160ff1610156105fb5760405162461bcd60e51b815260206004820152601660248201527524b73b30b634b2103232b1b4b6b0b6103932ba3ab93760511b60448201526064016101bb565b610603611441565b80516001600160a01b03808c16909152815160ff80851660209283015283518c8416606091820152845160809081018d905260a0860180518d87169052805185018c90525160409081018b9052600d80546001810182556000919091528751805160189092027fd7b6990105719101dabeb77144f2a3385c8033acd3af97e9423a695e81ad1eb581018054988301519483015161ffff16600160a81b0261ffff60a81b1995909816600160a01b026001600160a81b0319909916938a16939093179790971792909216949094178455918201517fd7b6990105719101dabeb77144f2a3385c8033acd3af97e9423a695e81ad1eb685018054919096166001600160a01b03199190911617909455928301518493919283917fd7b6990105719101dabeb77144f2a3385c8033acd3af97e9423a695e81ad1eb7909101906107499082611963565b5060a0820151600382015560c0820151600482015560e0909101516005909101556020828101518051600684015581015160078301556040808401518051600885015582015160098401556060808501518051600a86015580840151600b86015580830151600c860155810151600d8501805460ff191691151591909117905560808501518051600e860190815581850151600f870155928101516010860155908101518051919361080392601187019290910190611575565b50505060a082015180516012830180546001600160a01b0319166001600160a01b039092169190911790556020810151601383015560400151601482015560c0820151601582015560e08201516016820155610100909101516017909101805460ff1916911515919091179055600d5461087f90600190611836565b9a9950505050505050505050565b601954600090815b818110156108e75760008060190182815481106108b4576108b461180a565b6000918252602090912001546001600160a01b031690506108d481610b1a565b5050806108e09061185f565b9050610895565b50600191505090565b6007546001600160a01b0316331461091a5760405162461bcd60e51b81526004016101bb906117e7565b670eb5e06245ea00007fb3489dd2b6aceffcd73eb3bc338c0fb7cf41e877855ec204580612eca103a15d556127107fb3489dd2b6aceffcd73eb3bc338c0fb7cf41e877855ec204580612eca103a15e55670de0b6b3a76400007fb3489dd2b6aceffcd73eb3bc338c0fb7cf41e877855ec204580612eca103a15f556301e133807fb3489dd2b6aceffcd73eb3bc338c0fb7cf41e877855ec204580612eca103a1605562093a807fb3489dd2b6aceffcd73eb3bc338c0fb7cf41e877855ec204580612eca103a161556103e87fb3489dd2b6aceffcd73eb3bc338c0fb7cf41e877855ec204580612eca103a16255565b6007546001600160a01b03163314610a335760405162461bcd60e51b81526004016101bb906117e7565b610a404262127500611a23565b600d805483908110610a5457610a5461180a565b90600052602060002090601802016015018190555050565b6007546001600160a01b03163314610a965760405162461bcd60e51b81526004016101bb906117e7565b600080600d018381548110610aad57610aad61180a565b9060005260206000209060180201905080601201600201548211610b135760405162461bcd60e51b815260206004820152601860248201527f63616e206f6e6c7920657874656e6420656e642074696d65000000000000000060448201526064016101bb565b6014015550565b600080516020611b128339815191525460009060018114610b625760405162461bcd60e51b8152602060048201526002602482015261723160f01b60448201526064016101bb565b6002600080516020611b12833981519152553360009081526013602090815260408083206001600160a01b03871684529091529020548015610c06573360008181526013602090815260408083206001600160a01b0389168085529252822091909155610bcf9183611144565b5060405181815233907fbf7aaef98dccc47249def450ef0fd30757d553648a28fa7cd56e3b2b052724949060200160405180910390a25b60019250506001600080516020611b128339815191525550919050565b6007546001600160a01b03163314610c4d5760405162461bcd60e51b81526004016101bb906117e7565b601480546001600160a01b0319166001600160a01b0392909216919091179055565b6007546000906001600160a01b03163314610c9c5760405162461bcd60e51b81526004016101bb906117e7565b6001600160a01b03831660009081526011602090815260408083205460128352818420546010909352908320549091610cd491611a23565b610cde9190611a23565b6001600160a01b0385166000818152601060209081526040808320839055601182528083208390556012909152812055909150610d1c908483611144565b5060019150505b92915050565b6007546000906001600160a01b03163314610d565760405162461bcd60e51b81526004016101bb906117e7565b60195460005b81811015610daf576000806019018281548110610d7b57610d7b61180a565b6000918252602090912001546001600160a01b03169050610d9c8186610c6f565b505080610da89061185f565b9050610d5c565b5060019150505b919050565b6040805160c0810182527fb3489dd2b6aceffcd73eb3bc338c0fb7cf41e877855ec204580612eca103a15d5481527fb3489dd2b6aceffcd73eb3bc338c0fb7cf41e877855ec204580612eca103a15e5460208201527fb3489dd2b6aceffcd73eb3bc338c0fb7cf41e877855ec204580612eca103a15f54918101919091527fb3489dd2b6aceffcd73eb3bc338c0fb7cf41e877855ec204580612eca103a1605460608201527fb3489dd2b6aceffcd73eb3bc338c0fb7cf41e877855ec204580612eca103a1615460808201527fb3489dd2b6aceffcd73eb3bc338c0fb7cf41e877855ec204580612eca103a1625460a0820152600d80546000919085908110610ec657610ec661180a565b600091825260208220601891909102016008810154600382015482546040516341b778fd60e11b81526004810192909252600160a81b900461ffff166024820152919350859173__$295e309c8a6ffd54f96e1a7c7b04118a38$__9063836ef1fa90604401602060405180830381865af4158015610f48573d6000803e3d6000fd5b505050506040513d601f19601f82011682018060405250810190610f6c9190611a36565b610f769190611836565b610f809190611a23565b60018301548354919250610fa2916001600160a01b03908116911630846111b4565b5080826008016000016000828254610fba9190611a23565b9091555050602083015160a084015160009190610fd79084611a4f565b610fe19190611a66565b60148401546013850154601286015460405163fc76fff360e01b815260048101859052602481019390935260448301919091526001600160a01b031660648201529091506000908190819073__$295e309c8a6ffd54f96e1a7c7b04118a38$__9063fc76fff390608401606060405180830381865af4158015611068573d6000803e3d6000fd5b505050506040513d601f19601f8201168201806040525081019061108c9190611a88565b885492955090935091506001600160a01b03166110aa8282856111fb565b6001600160a01b038116600090815260116020526040812080548692906110d2908490611a23565b90915550600090506110e48688611836565b9050808860080160010160008282546110fd9190611a23565b90915550506040518781528b907fadb049ad2d09be3db90459a16aef1ad0a4d89e8fdcc1ade9429d6cc55abbcd2b9060200160405180910390a25050505050505050505050565b6040516001600160a01b0383166024820152604481018290526000906111aa90859063a9059cbb60e01b906064015b60408051601f198184030181529190526020810180516001600160e01b03166001600160e01b03199093169290921790915261124c565b5060019392505050565b6040516001600160a01b03808516602483015283166044820152606481018290526000906111ef9086906323b872dd60e01b90608401611173565b5060015b949350505050565b6001600160a01b03831615611247576001600160a01b03808416600090815260136020908152604080832093861683529290529081208054839290611241908490611a23565b90915550505b505050565b60006112a1826040518060400160405280602081526020017f5361666545524332303a206c6f772d6c6576656c2063616c6c206661696c6564815250856001600160a01b031661131e9092919063ffffffff16565b80519091501561124757808060200190518101906112bf9190611ac1565b6112475760405162461bcd60e51b815260206004820152602a60248201527f5361666545524332303a204552433230206f7065726174696f6e20646964206e6044820152691bdd081cdd58d8d9595960b21b60648201526084016101bb565b60606111f3848460008585600080866001600160a01b03168587604051611345919061189c565b60006040518083038185875af1925050503d8060008114611382576040519150601f19603f3d011682016040523d82523d6000602084013e611387565b606091505b5091509150611398878383876113a3565b979650505050505050565b6060831561141257825160000361140b576001600160a01b0385163b61140b5760405162461bcd60e51b815260206004820152601d60248201527f416464726573733a2063616c6c20746f206e6f6e2d636f6e747261637400000060448201526064016101bb565b50816111f3565b6111f383838151156114275781518083602001fd5b8060405162461bcd60e51b81526004016101bb9190611ade565b6040805161022081019091526000610120820181815261014083018290526101608301829052610180830182905260606101a08401526101c083018290526101e08301829052610200830191909152819081526020016114b4604051806040016040528060008152602001600081525090565b81526020016114d6604051806040016040528060008152602001600081525090565b815260200161150860405180608001604052806000815260200160008152602001600081526020016000151581525090565b81526020016115386040518060800160405280600081526020016000815260200160008152602001606081525090565b8152604080516060810182526000808252602082810182905292820152910190815260200160008152602001600081526020016000151581525090565b8280548282559060005260206000209081019282156115b0579160200282015b828111156115b0578251825591602001919060010190611595565b506115bc9291506115c0565b5090565b5b808211156115bc57600081556001016115c1565b6001600160a01b03811681146115ea57600080fd5b50565b8035610db6816115d5565b80151581146115ea57600080fd5b60008060006060848603121561161b57600080fd5b8335611626816115d5565b92506020840135611636816115f8565b929592945050506040919091013590565b60006020828403121561165957600080fd5b5035919050565b634e487b7160e01b600052604160045260246000fd5b60008060008060008060c0878903121561168f57600080fd5b863561169a816115d5565b955060208701356116aa816115d5565b9450604087013567ffffffffffffffff808211156116c757600080fd5b818901915089601f8301126116db57600080fd5b8135818111156116ed576116ed611660565b604051601f8201601f19908116603f0116810190838211818310171561171557611715611660565b816040528281528c602084870101111561172e57600080fd5b826020860160208301376000602084830101528098505050505050611755606088016115ed565b92506080870135915060a087013590509295509295509295565b6000806040838503121561178257600080fd5b50508035926020909101359150565b6000602082840312156117a357600080fd5b8135610387816115d5565b600080604083850312156117c157600080fd5b82356117cc816115d5565b915060208301356117dc816115d5565b809150509250929050565b6020808252600990820152683737ba1037bbb732b960b91b604082015260600190565b634e487b7160e01b600052603260045260246000fd5b634e487b7160e01b600052601160045260246000fd5b81810381811115610d2357610d23611820565b634e487b7160e01b600052603160045260246000fd5b60006001820161187157611871611820565b5060010190565b60005b8381101561189357818101518382015260200161187b565b50506000910152565b600082516118ae818460208701611878565b9190910192915050565b6000602082840312156118ca57600080fd5b815160ff8116811461038757600080fd5b600181811c908216806118ef57607f821691505b60208210810361190f57634e487b7160e01b600052602260045260246000fd5b50919050565b601f82111561124757600081815260208120601f850160051c8101602086101561193c5750805b601f850160051c820191505b8181101561195b57828155600101611948565b505050505050565b815167ffffffffffffffff81111561197d5761197d611660565b6119918161198b84546118db565b84611915565b602080601f8311600181146119c657600084156119ae5750858301515b600019600386901b1c1916600185901b17855561195b565b600085815260208120601f198616915b828110156119f5578886015182559484019460019091019084016119d6565b5085821015611a135787850151600019600388901b60f8161c191681555b5050505050600190811b01905550565b80820180821115610d2357610d23611820565b600060208284031215611a4857600080fd5b5051919050565b8082028115828204841417610d2357610d23611820565b600082611a8357634e487b7160e01b600052601260045260246000fd5b500490565b600080600060608486031215611a9d57600080fd5b83519250602084015191506040840151611ab6816115d5565b809150509250925092565b600060208284031215611ad357600080fd5b8151610387816115f8565b6020815260008251806020840152611afd816040850160208701611878565b601f01601f1916919091016040019291505056fe8e94fed44239eb2314ab7a406345e6c5a8f0ccedf3b600de3d004e672c33abf4a2646970667358221220417dcd0a15ad8556d771483475b54d8a5f0500aca501f3bcf45757087e73aa3864736f6c63430008130033",
    "linkReferences": {
      "src/lib/LibSaloon.sol": {
        "LibSaloon": [
          {
            "start": 3886,
            "length": 20
          },
          {
            "start": 4174,
            "length": 20
          }
        ]
      }
    }
  },
  "methodIdentifiers": {
    "addNewBountyPool(address,address,string,address,uint256,uint256)": "32fce602",
    "billPremium(uint256)": "2dbe051e",
    "collectAllReferralProfits()": "3e8888d9",
    "collectAllSaloonProfits(address)": "ecd7fbed",
    "collectReferralProfit(address)": "a089a520",
    "collectSaloonProfits(address,address)": "cf9564b9",
    "extendReferralPeriod(uint256,uint256)": "5de406dc",
    "setLibSaloonStorage()": "418f880d",
    "setStrategyFactory(address)": "a5352bfd",
    "startAssessmentPeriod(uint256)": "583fc439",
    "updateTokenWhitelist(address,bool,uint256)": "2cb0dfcc"
  },
  "id": 46
}