{
  "abi": [
    {
      "anonymous": false,
      "inputs": [
        {
          "indexed": true,
          "internalType": "uint256",
          "name": "pid",
          "type": "uint256"
        },
        {
          "indexed": true,
          "internalType": "address",
          "name": "token",
          "type": "address"
        },
        {
          "indexed": false,
          "internalType": "uint256",
          "name": "tokenDecimals",
          "type": "uint256"
        }
      ],
      "name": "NewBountyDeployed",
      "type": "event"
    },
    {
      "anonymous": false,
      "inputs": [
        {
          "indexed": true,
          "internalType": "address",
          "name": "previousOwner",
          "type": "address"
        },
        {
          "indexed": true,
          "internalType": "address",
          "name": "pendingOwner",
          "type": "address"
        }
      ],
      "name": "NewOwner",
      "type": "event"
    },
    {
      "anonymous": false,
      "inputs": [
        {
          "indexed": true,
          "internalType": "address",
          "name": "pendingOwner",
          "type": "address"
        },
        {
          "indexed": true,
          "internalType": "address",
          "name": "newPendingOwner",
          "type": "address"
        }
      ],
      "name": "NewPendingOwner",
      "type": "event"
    },
    {
      "anonymous": false,
      "inputs": [
        {
          "indexed": true,
          "internalType": "uint256",
          "name": "pid",
          "type": "uint256"
        },
        {
          "indexed": false,
          "internalType": "uint256",
          "name": "amount",
          "type": "uint256"
        }
      ],
      "name": "PremiumBilled",
      "type": "event"
    },
    {
      "anonymous": false,
      "inputs": [
        {
          "indexed": true,
          "internalType": "address",
          "name": "referrer",
          "type": "address"
        },
        {
          "indexed": false,
          "internalType": "uint256",
          "name": "amount",
          "type": "uint256"
        }
      ],
      "name": "referralPaid",
      "type": "event"
    },
    {
      "anonymous": false,
      "inputs": [
        {
          "indexed": true,
          "internalType": "address",
          "name": "token",
          "type": "address"
        },
        {
          "indexed": true,
          "internalType": "bool",
          "name": "whitelisted",
          "type": "bool"
        }
      ],
      "name": "tokenWhitelistUpdated",
      "type": "event"
    },
    {
      "inputs": [],
      "name": "acceptOwnershipTransfer",
      "outputs": [],
      "stateMutability": "nonpayable",
      "type": "function"
    },
    {
      "inputs": [
        {
          "internalType": "address",
          "name": "_token",
          "type": "address"
        },
        {
          "internalType": "address",
          "name": "_projectWallet",
          "type": "address"
        },
        {
          "internalType": "string",
          "name": "_projectName",
          "type": "string"
        },
        {
          "internalType": "address",
          "name": "_referrer",
          "type": "address"
        },
        {
          "internalType": "uint256",
          "name": "_referralFee",
          "type": "uint256"
        },
        {
          "internalType": "uint256",
          "name": "_referralEndTime",
          "type": "uint256"
        }
      ],
      "name": "addNewBountyPool",
      "outputs": [
        {
          "internalType": "uint256",
          "name": "",
          "type": "uint256"
        }
      ],
      "stateMutability": "nonpayable",
      "type": "function"
    },
    {
      "inputs": [
        {
          "internalType": "uint256",
          "name": "_pid",
          "type": "uint256"
        }
      ],
      "name": "billPremium",
      "outputs": [
        {
          "internalType": "bool",
          "name": "",
          "type": "bool"
        }
      ],
      "stateMutability": "nonpayable",
      "type": "function"
    },
    {
      "inputs": [],
      "name": "collectAllReferralProfits",
      "outputs": [
        {
          "internalType": "bool",
          "name": "",
          "type": "bool"
        }
      ],
      "stateMutability": "nonpayable",
      "type": "function"
    },
    {
      "inputs": [
        {
          "internalType": "address",
          "name": "_saloonWallet",
          "type": "address"
        }
      ],
      "name": "collectAllSaloonProfits",
      "outputs": [
        {
          "internalType": "bool",
          "name": "",
          "type": "bool"
        }
      ],
      "stateMutability": "nonpayable",
      "type": "function"
    },
    {
      "inputs": [
        {
          "internalType": "address",
          "name": "_token",
          "type": "address"
        }
      ],
      "name": "collectReferralProfit",
      "outputs": [
        {
          "internalType": "bool",
          "name": "",
          "type": "bool"
        }
      ],
      "stateMutability": "nonpayable",
      "type": "function"
    },
    {
      "inputs": [
        {
          "internalType": "address",
          "name": "_token",
          "type": "address"
        },
        {
          "internalType": "address",
          "name": "_saloonWallet",
          "type": "address"
        }
      ],
      "name": "collectSaloonProfits",
      "outputs": [
        {
          "internalType": "bool",
          "name": "",
          "type": "bool"
        }
      ],
      "stateMutability": "nonpayable",
      "type": "function"
    },
    {
      "inputs": [
        {
          "internalType": "uint256",
          "name": "_pid",
          "type": "uint256"
        },
        {
          "internalType": "uint256",
          "name": "_endTime",
          "type": "uint256"
        }
      ],
      "name": "extendReferralPeriod",
      "outputs": [],
      "stateMutability": "nonpayable",
      "type": "function"
    },
    {
      "inputs": [],
      "name": "setLibSaloonStorage",
      "outputs": [],
      "stateMutability": "nonpayable",
      "type": "function"
    },
    {
      "inputs": [
        {
          "internalType": "address",
          "name": "_newPendingOwner",
          "type": "address"
        }
      ],
      "name": "setPendingOwner",
      "outputs": [],
      "stateMutability": "nonpayable",
      "type": "function"
    },
    {
      "inputs": [
        {
          "internalType": "address",
          "name": "_strategyFactory",
          "type": "address"
        }
      ],
      "name": "setStrategyFactory",
      "outputs": [],
      "stateMutability": "nonpayable",
      "type": "function"
    },
    {
      "inputs": [
        {
          "internalType": "uint256",
          "name": "_pid",
          "type": "uint256"
        }
      ],
      "name": "startAssessmentPeriod",
      "outputs": [],
      "stateMutability": "nonpayable",
      "type": "function"
    },
    {
      "inputs": [
        {
          "internalType": "address",
          "name": "_token",
          "type": "address"
        },
        {
          "internalType": "bool",
          "name": "_whitelisted",
          "type": "bool"
        },
        {
          "internalType": "uint256",
          "name": "_minStakeAmount",
          "type": "uint256"
        }
      ],
      "name": "updateTokenWhitelist",
      "outputs": [
        {
          "internalType": "bool",
          "name": "",
          "type": "bool"
        }
      ],
      "stateMutability": "nonpayable",
      "type": "function"
    }
  ],
  "bytecode": {
    "object": "0x608060405234801561001057600080fd5b50611d39806100206000396000f3fe608060405234801561001057600080fd5b50600436106100cf5760003560e01c80635de406dc1161008c578063b842e87f11610066578063b842e87f1461018e578063c42069ec14610196578063cf9564b9146101a9578063ecd7fbed146101bc57600080fd5b80635de406dc14610155578063a089a52014610168578063a5352bfd1461017b57600080fd5b80632cb0dfcc146100d45780632dbe051e146100fc57806332fce6021461010f5780633e8888d914610130578063418f880d14610138578063583fc43914610142575b600080fd5b6100e76100e23660046117d8565b6101cf565b60405190151581526020015b60405180910390f35b6100e761010a366004611819565b6103cf565b61012261011d366004611848565b61047a565b6040519081526020016100f3565b6100e76108ce565b610140610931565b005b610140610150366004611819565b610a4a565b610140610163366004611941565b610aad565b6100e7610176366004611963565b610b5b565b610140610189366004611963565b610c64565b610140610cb0565b6101406101a4366004611963565b610db1565b6100e76101b7366004611980565b610e44565b6100e76101ca366004611963565b610efe565b6007546000906001600160a01b031633146102055760405162461bcd60e51b81526004016101fc906119b9565b60405180910390fd5b6001600160a01b038416600081815260146020526040808220805460ff191687151590811790915590519092917f99795d51e5a8804307721456a7a9c2f0d7421f719d46a46d36e91fee7c85aa7691a382156102bc57506015805460018082019092557f55f448fdea98c4d29eb340757ef0a66cd03dbb9538908a6a81d96026b71ec4750180546001600160a01b0319166001600160a01b03861690811790915560009081526016602052604090208290556103c8565b60155460005b818110156103c55760008060150182815481106102e1576102e16119dc565b6000918252602090912001546001600160a01b039081169150871681036103b457601561030f600185611a08565b8154811061031f5761031f6119dc565b600091825260209091200154601580546001600160a01b03909216918490811061034b5761034b6119dc565b600091825260209091200180546001600160a01b0319166001600160a01b0392909216919091179055601580548061038557610385611a1b565b600082815260209020810160001990810180546001600160a01b031916905501905550600192506103c8915050565b506103be81611a31565b90506102c2565b50505b9392505050565b600080516020611ce483398151915254600090600181146104175760405162461bcd60e51b8152602060048201526002602482015261723160f01b60448201526064016101fc565b6002600080516020611ce4833981519152556007546001600160a01b031633146104535760405162461bcd60e51b81526004016101fc906119b9565b61045e836000610f90565b600191506001600080516020611ce48339815191525550919050565b6007546000906001600160a01b031633146104a75760405162461bcd60e51b81526004016101fc906119b9565b6001600160a01b03871660009081526014602052604090205460ff166105075760405162461bcd60e51b81526020600482015260156024820152741d1bdad95b881b9bdd081dda1a5d195b1a5cdd1959605a1b60448201526064016101fc565b6113888311156105515760405162461bcd60e51b81526020600482015260156024820152740e4cacccae4e4c2d840cccaca40e8dede40d0d2ced605b1b60448201526064016101fc565b60408051600481526024810182526020810180516001600160e01b031663313ce56760e01b17905290516000916001600160a01b038a16916105939190611a6e565b600060405180830381855afa9150503d80600081146105ce576040519150601f19603f3d011682016040523d82523d6000602084013e6105d3565b606091505b509150506000818060200190518101906105ed9190611a8a565b905060068160ff16101561063c5760405162461bcd60e51b815260206004820152601660248201527524b73b30b634b2103232b1b4b6b0b6103932ba3ab93760511b60448201526064016101fc565b610644611616565b80516001600160a01b03808c16909152815160ff80851660209283015283518c8416606091820152845160809081018d905260a0860180518d87169052805185018c90525160409081018b9052600980546001810182556000919091528751805160189092027f6e1540171b6c0c960b71a7020d9f60077f6af931a8bbf590da0223dacf75c7af81018054988301519483015161ffff16600160a81b0261ffff60a81b1995909816600160a01b026001600160a81b0319909916938a16939093179790971792909216949094178455918201517f6e1540171b6c0c960b71a7020d9f60077f6af931a8bbf590da0223dacf75c7b085018054919096166001600160a01b03199190911617909455928301518493919283917f6e1540171b6c0c960b71a7020d9f60077f6af931a8bbf590da0223dacf75c7b19091019061078a9082611b35565b5060a0820151600382015560c0820151600482015560e0909101516005909101556020828101518051600684015581015160078301556040808401518051600885015582015160098401556060808501518051600a86015580840151600b86015580830151600c860155810151600d8501805460ff191691151591909117905560808501518051600e860190815581850151600f87015592810151601086015590810151805191936108449260118701929091019061174a565b50505060a082015180516012830180546001600160a01b0319166001600160a01b039092169190911790556020810151601383015560400151601482015560c0820151601582015560e08201516016820155610100909101516017909101805460ff19169115159190911790556009546108c090600190611a08565b9a9950505050505050505050565b601554600090815b818110156109285760008060150182815481106108f5576108f56119dc565b6000918252602090912001546001600160a01b0316905061091581610b5b565b50508061092190611a31565b90506108d6565b50600191505090565b6007546001600160a01b0316331461095b5760405162461bcd60e51b81526004016101fc906119b9565b670eb5e06245ea00007fb3489dd2b6aceffcd73eb3bc338c0fb7cf41e877855ec204580612eca103a15d556127107fb3489dd2b6aceffcd73eb3bc338c0fb7cf41e877855ec204580612eca103a15e55670de0b6b3a76400007fb3489dd2b6aceffcd73eb3bc338c0fb7cf41e877855ec204580612eca103a15f556301e133807fb3489dd2b6aceffcd73eb3bc338c0fb7cf41e877855ec204580612eca103a1605562093a807fb3489dd2b6aceffcd73eb3bc338c0fb7cf41e877855ec204580612eca103a161556103e87fb3489dd2b6aceffcd73eb3bc338c0fb7cf41e877855ec204580612eca103a16255565b6007546001600160a01b03163314610a745760405162461bcd60e51b81526004016101fc906119b9565b610a814262127500611bf5565b6009805483908110610a9557610a956119dc565b90600052602060002090601802016015018190555050565b6007546001600160a01b03163314610ad75760405162461bcd60e51b81526004016101fc906119b9565b6000806009018381548110610aee57610aee6119dc565b9060005260206000209060180201905080601201600201548211610b545760405162461bcd60e51b815260206004820152601860248201527f63616e206f6e6c7920657874656e6420656e642074696d65000000000000000060448201526064016101fc565b6014015550565b600080516020611ce48339815191525460009060018114610ba35760405162461bcd60e51b8152602060048201526002602482015261723160f01b60448201526064016101fc565b6002600080516020611ce483398151915255336000908152600f602090815260408083206001600160a01b03871684529091529020548015610c4757336000818152600f602090815260408083206001600160a01b0389168085529252822091909155610c109183611319565b5060405181815233907fbf7aaef98dccc47249def450ef0fd30757d553648a28fa7cd56e3b2b052724949060200160405180910390a25b60019250506001600080516020611ce48339815191525550919050565b6007546001600160a01b03163314610c8e5760405162461bcd60e51b81526004016101fc906119b9565b601080546001600160a01b0319166001600160a01b0392909216919091179055565b6008546001600160a01b0316338114610cff5760405162461bcd60e51b81526020600482015260116024820152703737ba103832b73234b7339037bbb732b960791b60448201526064016101fc565b6007546001600160a01b03828116911614610dae57600780546001600160a01b038381166001600160a01b03198084168217909455600880549094169093556040519116916000917fb3d55174552271a4f1aaf36b72f50381e892171636b3fb5447fe00e995e7a37b908390a3816001600160a01b0316816001600160a01b03167f70aea8d848e8a90fb7661b227dc522eb6395c3dac71b63cb59edd5c9899b236460405160405180910390a3505b50565b6007546001600160a01b03163314610ddb5760405162461bcd60e51b81526004016101fc906119b9565b6007546001600160a01b039081169082168114610e4057600880546001600160a01b0319166001600160a01b0384811691821790925560405190918316907fb3d55174552271a4f1aaf36b72f50381e892171636b3fb5447fe00e995e7a37b90600090a35b5050565b6007546000906001600160a01b03163314610e715760405162461bcd60e51b81526004016101fc906119b9565b6001600160a01b0383166000908152600d6020908152604080832054600e835281842054600c909352908320549091610ea991611bf5565b610eb39190611bf5565b6001600160a01b0385166000818152600c60209081526040808320839055600d8252808320839055600e909152812055909150610ef1908483611319565b5060019150505b92915050565b6007546000906001600160a01b03163314610f2b5760405162461bcd60e51b81526004016101fc906119b9565b60155460005b81811015610f84576000806015018281548110610f5057610f506119dc565b6000918252602090912001546001600160a01b03169050610f718186610e44565b505080610f7d90611a31565b9050610f31565b5060019150505b919050565b6040805160c0810182527fb3489dd2b6aceffcd73eb3bc338c0fb7cf41e877855ec204580612eca103a15d5481527fb3489dd2b6aceffcd73eb3bc338c0fb7cf41e877855ec204580612eca103a15e5460208201527fb3489dd2b6aceffcd73eb3bc338c0fb7cf41e877855ec204580612eca103a15f54918101919091527fb3489dd2b6aceffcd73eb3bc338c0fb7cf41e877855ec204580612eca103a1605460608201527fb3489dd2b6aceffcd73eb3bc338c0fb7cf41e877855ec204580612eca103a1615460808201527fb3489dd2b6aceffcd73eb3bc338c0fb7cf41e877855ec204580612eca103a1625460a082015260098054600091908590811061109b5761109b6119dc565b600091825260208220601891909102016008810154600382015482546040516341b778fd60e11b81526004810192909252600160a81b900461ffff166024820152919350859173__$295e309c8a6ffd54f96e1a7c7b04118a38$__9063836ef1fa90604401602060405180830381865af415801561111d573d6000803e3d6000fd5b505050506040513d601f19601f820116820180604052508101906111419190611c08565b61114b9190611a08565b6111559190611bf5565b60018301548354919250611177916001600160a01b0390811691163084611389565b508082600801600001600082825461118f9190611bf5565b9091555050602083015160a0840151600091906111ac9084611c21565b6111b69190611c38565b60148401546013850154601286015460405163fc76fff360e01b815260048101859052602481019390935260448301919091526001600160a01b031660648201529091506000908190819073__$295e309c8a6ffd54f96e1a7c7b04118a38$__9063fc76fff390608401606060405180830381865af415801561123d573d6000803e3d6000fd5b505050506040513d601f19601f820116820180604052508101906112619190611c5a565b885492955090935091506001600160a01b031661127f8282856113d0565b6001600160a01b0381166000908152600d6020526040812080548692906112a7908490611bf5565b90915550600090506112b98688611a08565b9050808860080160010160008282546112d29190611bf5565b90915550506040518781528b907fadb049ad2d09be3db90459a16aef1ad0a4d89e8fdcc1ade9429d6cc55abbcd2b9060200160405180910390a25050505050505050505050565b6040516001600160a01b03831660248201526044810182905260009061137f90859063a9059cbb60e01b906064015b60408051601f198184030181529190526020810180516001600160e01b03166001600160e01b031990931692909217909152611421565b5060019392505050565b6040516001600160a01b03808516602483015283166044820152606481018290526000906113c49086906323b872dd60e01b90608401611348565b5060015b949350505050565b6001600160a01b0383161561141c576001600160a01b038084166000908152600f6020908152604080832093861683529290529081208054839290611416908490611bf5565b90915550505b505050565b6000611476826040518060400160405280602081526020017f5361666545524332303a206c6f772d6c6576656c2063616c6c206661696c6564815250856001600160a01b03166114f39092919063ffffffff16565b80519091501561141c57808060200190518101906114949190611c93565b61141c5760405162461bcd60e51b815260206004820152602a60248201527f5361666545524332303a204552433230206f7065726174696f6e20646964206e6044820152691bdd081cdd58d8d9595960b21b60648201526084016101fc565b60606113c8848460008585600080866001600160a01b0316858760405161151a9190611a6e565b60006040518083038185875af1925050503d8060008114611557576040519150601f19603f3d011682016040523d82523d6000602084013e61155c565b606091505b509150915061156d87838387611578565b979650505050505050565b606083156115e75782516000036115e0576001600160a01b0385163b6115e05760405162461bcd60e51b815260206004820152601d60248201527f416464726573733a2063616c6c20746f206e6f6e2d636f6e747261637400000060448201526064016101fc565b50816113c8565b6113c883838151156115fc5781518083602001fd5b8060405162461bcd60e51b81526004016101fc9190611cb0565b6040805161022081019091526000610120820181815261014083018290526101608301829052610180830182905260606101a08401526101c083018290526101e0830182905261020083019190915281908152602001611689604051806040016040528060008152602001600081525090565b81526020016116ab604051806040016040528060008152602001600081525090565b81526020016116dd60405180608001604052806000815260200160008152602001600081526020016000151581525090565b815260200161170d6040518060800160405280600081526020016000815260200160008152602001606081525090565b8152604080516060810182526000808252602082810182905292820152910190815260200160008152602001600081526020016000151581525090565b828054828255906000526020600020908101928215611785579160200282015b8281111561178557825182559160200191906001019061176a565b50611791929150611795565b5090565b5b808211156117915760008155600101611796565b6001600160a01b0381168114610dae57600080fd5b8035610f8b816117aa565b8015158114610dae57600080fd5b6000806000606084860312156117ed57600080fd5b83356117f8816117aa565b92506020840135611808816117ca565b929592945050506040919091013590565b60006020828403121561182b57600080fd5b5035919050565b634e487b7160e01b600052604160045260246000fd5b60008060008060008060c0878903121561186157600080fd5b863561186c816117aa565b9550602087013561187c816117aa565b9450604087013567ffffffffffffffff8082111561189957600080fd5b818901915089601f8301126118ad57600080fd5b8135818111156118bf576118bf611832565b604051601f8201601f19908116603f011681019083821181831017156118e7576118e7611832565b816040528281528c602084870101111561190057600080fd5b826020860160208301376000602084830101528098505050505050611927606088016117bf565b92506080870135915060a087013590509295509295509295565b6000806040838503121561195457600080fd5b50508035926020909101359150565b60006020828403121561197557600080fd5b81356103c8816117aa565b6000806040838503121561199357600080fd5b823561199e816117aa565b915060208301356119ae816117aa565b809150509250929050565b6020808252600990820152683737ba1037bbb732b960b91b604082015260600190565b634e487b7160e01b600052603260045260246000fd5b634e487b7160e01b600052601160045260246000fd5b81810381811115610ef857610ef86119f2565b634e487b7160e01b600052603160045260246000fd5b600060018201611a4357611a436119f2565b5060010190565b60005b83811015611a65578181015183820152602001611a4d565b50506000910152565b60008251611a80818460208701611a4a565b9190910192915050565b600060208284031215611a9c57600080fd5b815160ff811681146103c857600080fd5b600181811c90821680611ac157607f821691505b602082108103611ae157634e487b7160e01b600052602260045260246000fd5b50919050565b601f82111561141c57600081815260208120601f850160051c81016020861015611b0e5750805b601f850160051c820191505b81811015611b2d57828155600101611b1a565b505050505050565b815167ffffffffffffffff811115611b4f57611b4f611832565b611b6381611b5d8454611aad565b84611ae7565b602080601f831160018114611b985760008415611b805750858301515b600019600386901b1c1916600185901b178555611b2d565b600085815260208120601f198616915b82811015611bc757888601518255948401946001909101908401611ba8565b5085821015611be55787850151600019600388901b60f8161c191681555b5050505050600190811b01905550565b80820180821115610ef857610ef86119f2565b600060208284031215611c1a57600080fd5b5051919050565b8082028115828204841417610ef857610ef86119f2565b600082611c5557634e487b7160e01b600052601260045260246000fd5b500490565b600080600060608486031215611c6f57600080fd5b83519250602084015191506040840151611c88816117aa565b809150509250925092565b600060208284031215611ca557600080fd5b81516103c8816117ca565b6020815260008251806020840152611ccf816040850160208701611a4a565b601f01601f1916919091016040019291505056fe8e94fed44239eb2314ab7a406345e6c5a8f0ccedf3b600de3d004e672c33abf4a26469706673582212208aaae8485f29d1539b1a1085c53c7b259debe061a20600eddc6c8f3f81c62e5464736f6c63430008130033",
    "linkReferences": {
      "src/lib/LibSaloon.sol": {
        "LibSaloon": [
          {
            "start": 4355,
            "length": 20
          },
          {
            "start": 4643,
            "length": 20
          }
        ]
      }
    }
  },
  "methodIdentifiers": {
    "acceptOwnershipTransfer()": "b842e87f",
    "addNewBountyPool(address,address,string,address,uint256,uint256)": "32fce602",
    "billPremium(uint256)": "2dbe051e",
    "collectAllReferralProfits()": "3e8888d9",
    "collectAllSaloonProfits(address)": "ecd7fbed",
    "collectReferralProfit(address)": "a089a520",
    "collectSaloonProfits(address,address)": "cf9564b9",
    "extendReferralPeriod(uint256,uint256)": "5de406dc",
    "setLibSaloonStorage()": "418f880d",
    "setPendingOwner(address)": "c42069ec",
    "setStrategyFactory(address)": "a5352bfd",
    "startAssessmentPeriod(uint256)": "583fc439",
    "updateTokenWhitelist(address,bool,uint256)": "2cb0dfcc"
  },
  "id": 31
}