{
  "abi": [
    {
      "inputs": [],
      "stateMutability": "nonpayable",
      "type": "constructor"
    },
    {
      "anonymous": false,
      "inputs": [
        {
          "indexed": true,
          "internalType": "address",
          "name": "owner",
          "type": "address"
        },
        {
          "indexed": true,
          "internalType": "address",
          "name": "approved",
          "type": "address"
        },
        {
          "indexed": true,
          "internalType": "uint256",
          "name": "tokenId",
          "type": "uint256"
        }
      ],
      "name": "Approval",
      "type": "event"
    },
    {
      "anonymous": false,
      "inputs": [
        {
          "indexed": true,
          "internalType": "address",
          "name": "owner",
          "type": "address"
        },
        {
          "indexed": true,
          "internalType": "address",
          "name": "operator",
          "type": "address"
        },
        {
          "indexed": false,
          "internalType": "bool",
          "name": "approved",
          "type": "bool"
        }
      ],
      "name": "ApprovalForAll",
      "type": "event"
    },
    {
      "anonymous": false,
      "inputs": [
        {
          "indexed": true,
          "internalType": "uint256",
          "name": "pid",
          "type": "uint256"
        },
        {
          "indexed": false,
          "internalType": "uint256",
          "name": "oldAmount",
          "type": "uint256"
        },
        {
          "indexed": false,
          "internalType": "uint256",
          "name": "newAmount",
          "type": "uint256"
        }
      ],
      "name": "BountyBalanceChanged",
      "type": "event"
    },
    {
      "anonymous": false,
      "inputs": [
        {
          "indexed": true,
          "internalType": "address",
          "name": "hunter",
          "type": "address"
        },
        {
          "indexed": true,
          "internalType": "address",
          "name": "token",
          "type": "address"
        },
        {
          "indexed": false,
          "internalType": "uint256",
          "name": "amount",
          "type": "uint256"
        }
      ],
      "name": "BountyPaid",
      "type": "event"
    },
    {
      "anonymous": false,
      "inputs": [
        {
          "indexed": false,
          "internalType": "uint8",
          "name": "version",
          "type": "uint8"
        }
      ],
      "name": "Initialized",
      "type": "event"
    },
    {
      "anonymous": false,
      "inputs": [
        {
          "indexed": true,
          "internalType": "uint256",
          "name": "pid",
          "type": "uint256"
        },
        {
          "indexed": true,
          "internalType": "address",
          "name": "token",
          "type": "address"
        },
        {
          "indexed": false,
          "internalType": "uint256",
          "name": "tokenDecimals",
          "type": "uint256"
        }
      ],
      "name": "NewBountyDeployed",
      "type": "event"
    },
    {
      "anonymous": false,
      "inputs": [
        {
          "indexed": true,
          "internalType": "address",
          "name": "previousOwner",
          "type": "address"
        },
        {
          "indexed": true,
          "internalType": "address",
          "name": "newOwner",
          "type": "address"
        }
      ],
      "name": "OwnershipTransferred",
      "type": "event"
    },
    {
      "anonymous": false,
      "inputs": [
        {
          "indexed": true,
          "internalType": "uint256",
          "name": "pid",
          "type": "uint256"
        },
        {
          "indexed": false,
          "internalType": "uint256",
          "name": "amount",
          "type": "uint256"
        }
      ],
      "name": "PremiumBilled",
      "type": "event"
    },
    {
      "anonymous": false,
      "inputs": [
        {
          "indexed": true,
          "internalType": "address",
          "name": "user",
          "type": "address"
        },
        {
          "indexed": true,
          "internalType": "uint256",
          "name": "pid",
          "type": "uint256"
        },
        {
          "indexed": false,
          "internalType": "uint256",
          "name": "amount",
          "type": "uint256"
        }
      ],
      "name": "Staked",
      "type": "event"
    },
    {
      "anonymous": false,
      "inputs": [
        {
          "indexed": true,
          "internalType": "address",
          "name": "from",
          "type": "address"
        },
        {
          "indexed": true,
          "internalType": "address",
          "name": "to",
          "type": "address"
        },
        {
          "indexed": true,
          "internalType": "uint256",
          "name": "tokenId",
          "type": "uint256"
        }
      ],
      "name": "Transfer",
      "type": "event"
    },
    {
      "anonymous": false,
      "inputs": [
        {
          "indexed": true,
          "internalType": "address",
          "name": "user",
          "type": "address"
        },
        {
          "indexed": true,
          "internalType": "uint256",
          "name": "pid",
          "type": "uint256"
        },
        {
          "indexed": false,
          "internalType": "uint256",
          "name": "amount",
          "type": "uint256"
        }
      ],
      "name": "Unstaked",
      "type": "event"
    },
    {
      "anonymous": false,
      "inputs": [
        {
          "indexed": true,
          "internalType": "uint256",
          "name": "pid",
          "type": "uint256"
        },
        {
          "indexed": false,
          "internalType": "uint256",
          "name": "amount",
          "type": "uint256"
        }
      ],
      "name": "WithdrawalOrUnstakeScheduled",
      "type": "event"
    },
    {
      "anonymous": false,
      "inputs": [
        {
          "indexed": true,
          "internalType": "address",
          "name": "referrer",
          "type": "address"
        },
        {
          "indexed": false,
          "internalType": "uint256",
          "name": "amount",
          "type": "uint256"
        }
      ],
      "name": "referralPaid",
      "type": "event"
    },
    {
      "anonymous": false,
      "inputs": [
        {
          "indexed": true,
          "internalType": "address",
          "name": "token",
          "type": "address"
        },
        {
          "indexed": true,
          "internalType": "bool",
          "name": "whitelisted",
          "type": "bool"
        }
      ],
      "name": "tokenWhitelistUpdated",
      "type": "event"
    },
    {
      "inputs": [],
      "name": "acceptOwnershipTransfer",
      "outputs": [],
      "stateMutability": "nonpayable",
      "type": "function"
    },
    {
      "inputs": [
        {
          "internalType": "uint256",
          "name": "",
          "type": "uint256"
        }
      ],
      "name": "activeStrategies",
      "outputs": [
        {
          "internalType": "bytes32",
          "name": "",
          "type": "bytes32"
        }
      ],
      "stateMutability": "view",
      "type": "function"
    },
    {
      "inputs": [
        {
          "internalType": "uint256",
          "name": "",
          "type": "uint256"
        }
      ],
      "name": "activeTokens",
      "outputs": [
        {
          "internalType": "address",
          "name": "",
          "type": "address"
        }
      ],
      "stateMutability": "view",
      "type": "function"
    },
    {
      "inputs": [
        {
          "internalType": "address",
          "name": "to",
          "type": "address"
        },
        {
          "internalType": "uint256",
          "name": "tokenId",
          "type": "uint256"
        }
      ],
      "name": "approve",
      "outputs": [],
      "stateMutability": "nonpayable",
      "type": "function"
    },
    {
      "inputs": [
        {
          "internalType": "address",
          "name": "owner",
          "type": "address"
        }
      ],
      "name": "balanceOf",
      "outputs": [
        {
          "internalType": "uint256",
          "name": "",
          "type": "uint256"
        }
      ],
      "stateMutability": "view",
      "type": "function"
    },
    {
      "inputs": [
        {
          "internalType": "uint256",
          "name": "_poolCap",
          "type": "uint256"
        },
        {
          "internalType": "uint256",
          "name": "_apy",
          "type": "uint256"
        }
      ],
      "name": "calcRequiredPremiumBalancePerPeriod",
      "outputs": [
        {
          "internalType": "uint256",
          "name": "requiredPremiumBalance",
          "type": "uint256"
        }
      ],
      "stateMutability": "pure",
      "type": "function"
    },
    {
      "inputs": [
        {
          "internalType": "uint256",
          "name": "_pid",
          "type": "uint256"
        },
        {
          "internalType": "uint256",
          "name": "_stake",
          "type": "uint256"
        },
        {
          "internalType": "uint256",
          "name": "_x",
          "type": "uint256"
        }
      ],
      "name": "calculateEffectiveAPY",
      "outputs": [
        {
          "internalType": "uint256",
          "name": "scaledAPY",
          "type": "uint256"
        }
      ],
      "stateMutability": "view",
      "type": "function"
    },
    {
      "inputs": [
        {
          "internalType": "uint256",
          "name": "_tokenId",
          "type": "uint256"
        }
      ],
      "name": "claimPremium",
      "outputs": [],
      "stateMutability": "nonpayable",
      "type": "function"
    },
    {
      "inputs": [
        {
          "internalType": "uint256",
          "name": "_pid",
          "type": "uint256"
        }
      ],
      "name": "consolidate",
      "outputs": [],
      "stateMutability": "nonpayable",
      "type": "function"
    },
    {
      "inputs": [],
      "name": "consolidateAll",
      "outputs": [],
      "stateMutability": "nonpayable",
      "type": "function"
    },
    {
      "inputs": [
        {
          "internalType": "address",
          "name": "_owner",
          "type": "address"
        }
      ],
      "name": "getAllTokensByOwner",
      "outputs": [
        {
          "components": [
            {
              "internalType": "uint256",
              "name": "pid",
              "type": "uint256"
            },
            {
              "internalType": "uint256",
              "name": "amount",
              "type": "uint256"
            },
            {
              "internalType": "uint256",
              "name": "xDelta",
              "type": "uint256"
            },
            {
              "internalType": "uint256",
              "name": "apy",
              "type": "uint256"
            },
            {
              "internalType": "uint256",
              "name": "unclaimed",
              "type": "uint256"
            },
            {
              "internalType": "uint256",
              "name": "lastClaimedTime",
              "type": "uint256"
            },
            {
              "internalType": "uint256",
              "name": "timelock",
              "type": "uint256"
            },
            {
              "internalType": "uint256",
              "name": "timelimit",
              "type": "uint256"
            }
          ],
          "internalType": "struct ISaloon.NFTInfo[]",
          "name": "userTokens",
          "type": "tuple[]"
        }
      ],
      "stateMutability": "view",
      "type": "function"
    },
    {
      "inputs": [
        {
          "internalType": "uint256",
          "name": "tokenId",
          "type": "uint256"
        }
      ],
      "name": "getApproved",
      "outputs": [
        {
          "internalType": "address",
          "name": "",
          "type": "address"
        }
      ],
      "stateMutability": "view",
      "type": "function"
    },
    {
      "inputs": [
        {
          "internalType": "uint256",
          "name": "_pid",
          "type": "uint256"
        }
      ],
      "name": "getCurrentAPY",
      "outputs": [
        {
          "internalType": "uint256",
          "name": "currentAPY",
          "type": "uint256"
        }
      ],
      "stateMutability": "view",
      "type": "function"
    },
    {
      "inputs": [],
      "name": "index",
      "outputs": [
        {
          "internalType": "uint256",
          "name": "",
          "type": "uint256"
        }
      ],
      "stateMutability": "view",
      "type": "function"
    },
    {
      "inputs": [
        {
          "internalType": "address",
          "name": "_strategyFactory",
          "type": "address"
        }
      ],
      "name": "initialize",
      "outputs": [],
      "stateMutability": "nonpayable",
      "type": "function"
    },
    {
      "inputs": [
        {
          "internalType": "address",
          "name": "owner",
          "type": "address"
        },
        {
          "internalType": "address",
          "name": "operator",
          "type": "address"
        }
      ],
      "name": "isApprovedForAll",
      "outputs": [
        {
          "internalType": "bool",
          "name": "",
          "type": "bool"
        }
      ],
      "stateMutability": "view",
      "type": "function"
    },
    {
      "inputs": [
        {
          "internalType": "address",
          "name": "",
          "type": "address"
        }
      ],
      "name": "minTokenStakeAmount",
      "outputs": [
        {
          "internalType": "uint256",
          "name": "",
          "type": "uint256"
        }
      ],
      "stateMutability": "view",
      "type": "function"
    },
    {
      "inputs": [],
      "name": "name",
      "outputs": [
        {
          "internalType": "string",
          "name": "",
          "type": "string"
        }
      ],
      "stateMutability": "view",
      "type": "function"
    },
    {
      "inputs": [
        {
          "internalType": "uint256",
          "name": "",
          "type": "uint256"
        }
      ],
      "name": "nftInfo",
      "outputs": [
        {
          "internalType": "uint256",
          "name": "pid",
          "type": "uint256"
        },
        {
          "internalType": "uint256",
          "name": "amount",
          "type": "uint256"
        },
        {
          "internalType": "uint256",
          "name": "xDelta",
          "type": "uint256"
        },
        {
          "internalType": "uint256",
          "name": "apy",
          "type": "uint256"
        },
        {
          "internalType": "uint256",
          "name": "unclaimed",
          "type": "uint256"
        },
        {
          "internalType": "uint256",
          "name": "lastClaimedTime",
          "type": "uint256"
        },
        {
          "internalType": "uint256",
          "name": "timelock",
          "type": "uint256"
        },
        {
          "internalType": "uint256",
          "name": "timelimit",
          "type": "uint256"
        }
      ],
      "stateMutability": "view",
      "type": "function"
    },
    {
      "inputs": [],
      "name": "owner",
      "outputs": [
        {
          "internalType": "address",
          "name": "",
          "type": "address"
        }
      ],
      "stateMutability": "view",
      "type": "function"
    },
    {
      "inputs": [
        {
          "internalType": "uint256",
          "name": "tokenId",
          "type": "uint256"
        }
      ],
      "name": "ownerOf",
      "outputs": [
        {
          "internalType": "address",
          "name": "",
          "type": "address"
        }
      ],
      "stateMutability": "view",
      "type": "function"
    },
    {
      "inputs": [
        {
          "internalType": "uint256",
          "name": "__pid",
          "type": "uint256"
        },
        {
          "internalType": "address",
          "name": "_hunter",
          "type": "address"
        },
        {
          "internalType": "uint16",
          "name": "_payoutBPS",
          "type": "uint16"
        },
        {
          "internalType": "uint16",
          "name": "_hunterBonusBPS",
          "type": "uint16"
        }
      ],
      "name": "payBounty",
      "outputs": [],
      "stateMutability": "nonpayable",
      "type": "function"
    },
    {
      "inputs": [
        {
          "internalType": "uint256",
          "name": "",
          "type": "uint256"
        },
        {
          "internalType": "uint256",
          "name": "",
          "type": "uint256"
        }
      ],
      "name": "pidNFTList",
      "outputs": [
        {
          "internalType": "uint256",
          "name": "",
          "type": "uint256"
        }
      ],
      "stateMutability": "view",
      "type": "function"
    },
    {
      "inputs": [
        {
          "internalType": "uint256",
          "name": "",
          "type": "uint256"
        },
        {
          "internalType": "bytes32",
          "name": "",
          "type": "bytes32"
        }
      ],
      "name": "pidStrategies",
      "outputs": [
        {
          "internalType": "address",
          "name": "",
          "type": "address"
        }
      ],
      "stateMutability": "view",
      "type": "function"
    },
    {
      "inputs": [
        {
          "internalType": "uint256",
          "name": "",
          "type": "uint256"
        }
      ],
      "name": "poolInfo",
      "outputs": [
        {
          "components": [
            {
              "internalType": "contract IERC20",
              "name": "token",
              "type": "address"
            },
            {
              "internalType": "uint8",
              "name": "tokenDecimals",
              "type": "uint8"
            },
            {
              "internalType": "uint16",
              "name": "apy",
              "type": "uint16"
            },
            {
              "internalType": "address",
              "name": "projectWallet",
              "type": "address"
            },
            {
              "internalType": "string",
              "name": "projectName",
              "type": "string"
            },
            {
              "internalType": "uint256",
              "name": "poolCap",
              "type": "uint256"
            },
            {
              "internalType": "uint256",
              "name": "totalStaked",
              "type": "uint256"
            },
            {
              "internalType": "uint256",
              "name": "scalingMultiplier",
              "type": "uint256"
            }
          ],
          "internalType": "struct ISaloon.GeneralInfo",
          "name": "generalInfo",
          "type": "tuple"
        },
        {
          "components": [
            {
              "internalType": "uint256",
              "name": "projectDepositHeld",
              "type": "uint256"
            },
            {
              "internalType": "uint256",
              "name": "projectDepositInStrategy",
              "type": "uint256"
            }
          ],
          "internalType": "struct ISaloon.DepositInfo",
          "name": "depositInfo",
          "type": "tuple"
        },
        {
          "components": [
            {
              "internalType": "uint256",
              "name": "premiumBalance",
              "type": "uint256"
            },
            {
              "internalType": "uint256",
              "name": "premiumAvailable",
              "type": "uint256"
            }
          ],
          "internalType": "struct ISaloon.PremiumInfo",
          "name": "premiumInfo",
          "type": "tuple"
        },
        {
          "components": [
            {
              "internalType": "uint256",
              "name": "timelock",
              "type": "uint256"
            },
            {
              "internalType": "uint256",
              "name": "timeLimit",
              "type": "uint256"
            },
            {
              "internalType": "uint256",
              "name": "withdrawalScheduledAmount",
              "type": "uint256"
            },
            {
              "internalType": "bool",
              "name": "withdrawalExecuted",
              "type": "bool"
            }
          ],
          "internalType": "struct ISaloon.TimelockInfo",
          "name": "poolTimelock",
          "type": "tuple"
        },
        {
          "components": [
            {
              "internalType": "uint256",
              "name": "currentX",
              "type": "uint256"
            },
            {
              "internalType": "uint256",
              "name": "currentY",
              "type": "uint256"
            },
            {
              "internalType": "uint256",
              "name": "totalSupply",
              "type": "uint256"
            },
            {
              "internalType": "uint256[]",
              "name": "unstakedTokens",
              "type": "uint256[]"
            }
          ],
          "internalType": "struct ISaloon.CurveInfo",
          "name": "curveInfo",
          "type": "tuple"
        },
        {
          "components": [
            {
              "internalType": "address",
              "name": "referrer",
              "type": "address"
            },
            {
              "internalType": "uint256",
              "name": "referralFee",
              "type": "uint256"
            },
            {
              "internalType": "uint256",
              "name": "endTime",
              "type": "uint256"
            }
          ],
          "internalType": "struct ISaloon.ReferralInfo",
          "name": "referralInfo",
          "type": "tuple"
        },
        {
          "internalType": "uint256",
          "name": "freezeTime",
          "type": "uint256"
        },
        {
          "internalType": "bool",
          "name": "isActive",
          "type": "bool"
        }
      ],
      "stateMutability": "view",
      "type": "function"
    },
    {
      "inputs": [
        {
          "internalType": "address",
          "name": "_token",
          "type": "address"
        },
        {
          "internalType": "uint256",
          "name": "_amount",
          "type": "uint256"
        }
      ],
      "name": "receiveStrategyYield",
      "outputs": [],
      "stateMutability": "nonpayable",
      "type": "function"
    },
    {
      "inputs": [
        {
          "internalType": "address",
          "name": "",
          "type": "address"
        },
        {
          "internalType": "address",
          "name": "",
          "type": "address"
        }
      ],
      "name": "referralBalances",
      "outputs": [
        {
          "internalType": "uint256",
          "name": "",
          "type": "uint256"
        }
      ],
      "stateMutability": "view",
      "type": "function"
    },
    {
      "inputs": [
        {
          "internalType": "address",
          "name": "from",
          "type": "address"
        },
        {
          "internalType": "address",
          "name": "to",
          "type": "address"
        },
        {
          "internalType": "uint256",
          "name": "tokenId",
          "type": "uint256"
        }
      ],
      "name": "safeTransferFrom",
      "outputs": [],
      "stateMutability": "nonpayable",
      "type": "function"
    },
    {
      "inputs": [
        {
          "internalType": "address",
          "name": "from",
          "type": "address"
        },
        {
          "internalType": "address",
          "name": "to",
          "type": "address"
        },
        {
          "internalType": "uint256",
          "name": "tokenId",
          "type": "uint256"
        },
        {
          "internalType": "bytes",
          "name": "data",
          "type": "bytes"
        }
      ],
      "name": "safeTransferFrom",
      "outputs": [],
      "stateMutability": "nonpayable",
      "type": "function"
    },
    {
      "inputs": [],
      "name": "saloonBounty",
      "outputs": [
        {
          "internalType": "contract ISaloonBounty",
          "name": "",
          "type": "address"
        }
      ],
      "stateMutability": "view",
      "type": "function"
    },
    {
      "inputs": [
        {
          "internalType": "address",
          "name": "",
          "type": "address"
        }
      ],
      "name": "saloonBountyProfit",
      "outputs": [
        {
          "internalType": "uint256",
          "name": "",
          "type": "uint256"
        }
      ],
      "stateMutability": "view",
      "type": "function"
    },
    {
      "inputs": [],
      "name": "saloonManager",
      "outputs": [
        {
          "internalType": "contract ISaloonManager",
          "name": "",
          "type": "address"
        }
      ],
      "stateMutability": "view",
      "type": "function"
    },
    {
      "inputs": [
        {
          "internalType": "address",
          "name": "",
          "type": "address"
        }
      ],
      "name": "saloonPremiumProfit",
      "outputs": [
        {
          "internalType": "uint256",
          "name": "",
          "type": "uint256"
        }
      ],
      "stateMutability": "view",
      "type": "function"
    },
    {
      "inputs": [],
      "name": "saloonProjectPortal",
      "outputs": [
        {
          "internalType": "contract ISaloonProjectPortal",
          "name": "",
          "type": "address"
        }
      ],
      "stateMutability": "view",
      "type": "function"
    },
    {
      "inputs": [
        {
          "internalType": "address",
          "name": "",
          "type": "address"
        }
      ],
      "name": "saloonStrategyProfit",
      "outputs": [
        {
          "internalType": "uint256",
          "name": "",
          "type": "uint256"
        }
      ],
      "stateMutability": "view",
      "type": "function"
    },
    {
      "inputs": [
        {
          "internalType": "uint256",
          "name": "_tokenId",
          "type": "uint256"
        }
      ],
      "name": "scheduleUnstake",
      "outputs": [
        {
          "internalType": "bool",
          "name": "",
          "type": "bool"
        }
      ],
      "stateMutability": "nonpayable",
      "type": "function"
    },
    {
      "inputs": [
        {
          "internalType": "address",
          "name": "operator",
          "type": "address"
        },
        {
          "internalType": "bool",
          "name": "approved",
          "type": "bool"
        }
      ],
      "name": "setApprovalForAll",
      "outputs": [],
      "stateMutability": "nonpayable",
      "type": "function"
    },
    {
      "inputs": [
        {
          "internalType": "uint256",
          "name": "_pid",
          "type": "uint256"
        },
        {
          "internalType": "uint256",
          "name": "_amount",
          "type": "uint256"
        }
      ],
      "name": "stake",
      "outputs": [
        {
          "internalType": "uint256",
          "name": "",
          "type": "uint256"
        }
      ],
      "stateMutability": "nonpayable",
      "type": "function"
    },
    {
      "inputs": [
        {
          "internalType": "address",
          "name": "",
          "type": "address"
        }
      ],
      "name": "strategyAddressToPid",
      "outputs": [
        {
          "internalType": "uint256",
          "name": "",
          "type": "uint256"
        }
      ],
      "stateMutability": "view",
      "type": "function"
    },
    {
      "inputs": [
        {
          "internalType": "bytes4",
          "name": "interfaceId",
          "type": "bytes4"
        }
      ],
      "name": "supportsInterface",
      "outputs": [
        {
          "internalType": "bool",
          "name": "",
          "type": "bool"
        }
      ],
      "stateMutability": "view",
      "type": "function"
    },
    {
      "inputs": [],
      "name": "symbol",
      "outputs": [
        {
          "internalType": "string",
          "name": "",
          "type": "string"
        }
      ],
      "stateMutability": "view",
      "type": "function"
    },
    {
      "inputs": [
        {
          "internalType": "uint256",
          "name": "tokenId",
          "type": "uint256"
        }
      ],
      "name": "tokenURI",
      "outputs": [
        {
          "internalType": "string",
          "name": "",
          "type": "string"
        }
      ],
      "stateMutability": "view",
      "type": "function"
    },
    {
      "inputs": [
        {
          "internalType": "address",
          "name": "",
          "type": "address"
        }
      ],
      "name": "tokenWhitelist",
      "outputs": [
        {
          "internalType": "bool",
          "name": "",
          "type": "bool"
        }
      ],
      "stateMutability": "view",
      "type": "function"
    },
    {
      "inputs": [
        {
          "internalType": "address",
          "name": "from",
          "type": "address"
        },
        {
          "internalType": "address",
          "name": "to",
          "type": "address"
        },
        {
          "internalType": "uint256",
          "name": "tokenId",
          "type": "uint256"
        }
      ],
      "name": "transferFrom",
      "outputs": [],
      "stateMutability": "nonpayable",
      "type": "function"
    },
    {
      "inputs": [
        {
          "internalType": "address",
          "name": "newOwner",
          "type": "address"
        }
      ],
      "name": "transferOwnership",
      "outputs": [],
      "stateMutability": "nonpayable",
      "type": "function"
    },
    {
      "inputs": [
        {
          "internalType": "uint256",
          "name": "_tokenId",
          "type": "uint256"
        },
        {
          "internalType": "bool",
          "name": "_shouldHarvest",
          "type": "bool"
        }
      ],
      "name": "unstake",
      "outputs": [
        {
          "internalType": "bool",
          "name": "",
          "type": "bool"
        }
      ],
      "stateMutability": "nonpayable",
      "type": "function"
    },
    {
      "inputs": [
        {
          "internalType": "uint256",
          "name": "_pid",
          "type": "uint256"
        }
      ],
      "name": "viewBountyBalance",
      "outputs": [
        {
          "internalType": "uint256",
          "name": "",
          "type": "uint256"
        }
      ],
      "stateMutability": "view",
      "type": "function"
    }
  ],
  "bytecode": {
    "object": "0x60806040523480156200001157600080fd5b50600054610100900460ff1615808015620000335750600054600160ff909116105b8062000063575062000050306200018e60201b62002c0e1760201c565b15801562000063575060005460ff166001145b620000cc5760405162461bcd60e51b815260206004820152602e60248201527f496e697469616c697a61626c653a20636f6e747261637420697320616c72656160448201526d191e481a5b9a5d1a585b1a5e995960921b60648201526084015b60405180910390fd5b6000805460ff191660011790558015620000f0576000805461ff0019166101001790555b620001406040518060400160405280600b81526020016a2137bab73a3caa37b5b2b760a91b8152506040518060400160405280600381526020016210951560ea1b8152506200019d60201b60201c565b801562000187576000805461ff0019169055604051600181527f7f26b83ff96e1f2b6a682f133852f6798a09c465da95921460cefb38474024989060200160405180910390a15b50620003f7565b6001600160a01b03163b151590565b600054610100900460ff16620001f95760405162461bcd60e51b815260206004820152602b6024820152600080516020620053b983398151915260448201526a6e697469616c697a696e6760a81b6064820152608401620000c3565b62000205828262000209565b5050565b600054610100900460ff16620002655760405162461bcd60e51b815260206004820152602b6024820152600080516020620053b983398151915260448201526a6e697469616c697a696e6760a81b6064820152608401620000c3565b60656200027383826200032b565b5060666200028282826200032b565b505050565b634e487b7160e01b600052604160045260246000fd5b600181811c90821680620002b257607f821691505b602082108103620002d357634e487b7160e01b600052602260045260246000fd5b50919050565b601f8211156200028257600081815260208120601f850160051c81016020861015620003025750805b601f850160051c820191505b8181101562000323578281556001016200030e565b505050505050565b81516001600160401b0381111562000347576200034762000287565b6200035f816200035884546200029d565b84620002d9565b602080601f8311600181146200039757600084156200037e5750858301515b600019600386901b1c1916600185901b17855562000323565b600085815260208120601f198616915b82811015620003c857888601518255948401946001909101908401620003a7565b5085821015620003e75787850151600019600388901b60f8161c191681555b5050505050600190811b01905550565b614fb280620004076000396000f3fe608060405234801561001057600080fd5b50600436106102955760003560e01c80637b0472f011610167578063b20b2429116100ce578063d075afac11610087578063d075afac146106cd578063e45abd0f146106e0578063e985e9c514610700578063e9fda7d41461073c578063f2fde38b1461075c578063f47ec3be1461076f57600080fd5b8063b20b24291461064c578063b842e87f1461066c578063b88d4fde14610674578063c4d66de814610687578063c87b56dd1461069a578063ca006148146106ad57600080fd5b8063957deecc11610120578063957deecc146105d857806395d89b41146105f857806396ea48e8146106005780639ebea88c146106135780639f224f3514610626578063a22cb4651461063957600080fd5b80637b0472f0146105685780637fbf38531461057b57806381c6f1a71461058e578063836ef1fa146105a15780638da5cb5b146105b4578063949a4a4a146105c557600080fd5b806323b872dd1161020b5780636352211e116101c45780636352211e146104f15780636ac6d8121461050457806370a0823114610517578063753d75631461052a57806375bfd63d1461054d578063799238981461055557600080fd5b806323b872dd1461046f578063277fd2a1146104825780632986c0e514610495578063394587231461049e57806342842e0e146104be578063598d17bf146104d157600080fd5b8063095ea7b31161025d578063095ea7b31461036f578063106d08df146103845780631526fe27146103975780631aebcecb146103be5780631f8bc790146103d0578063220e11241461045c57600080fd5b8063011b408b1461029a57806301ffc9a7146102d857806306fdde03146102fb578063074ecf0314610310578063081812fc1461035c575b600080fd5b6102c56102a8366004614655565b60a260209081526000928352604080842090915290825290205481565b6040519081526020015b60405180910390f35b6102eb6102e63660046146a4565b610782565b60405190151581526020016102cf565b6103036107d4565b6040516102cf9190614711565b61034461031e366004614724565b60a46020908152600092835260408084209091529082529020546001600160a01b031681565b6040516001600160a01b0390911681526020016102cf565b61034461036a366004614746565b610866565b61038261037d36600461475f565b61088d565b005b6102eb610392366004614746565b6109a7565b6103aa6103a5366004614746565b610a8d565b6040516102cf9897969594939291906147f6565b6103826103cc36600461475f565b5050565b6104216103de366004614746565b609d602052600090815260409020805460018201546002830154600384015460048501546005860154600687015460079097015495969495939492939192909188565b604080519889526020890197909752958701949094526060860192909252608085015260a084015260c083015260e0820152610100016102cf565b609954610344906001600160a01b031681565b61038261047d366004614931565b610ce9565b609a54610344906001600160a01b031681565b6102c5606b5481565b6102c56104ac366004614972565b60a96020526000908152604090205481565b6103826104cc366004614931565b610d1a565b6102c56104df366004614972565b60a16020526000908152604090205481565b6103446104ff366004614746565b610d35565b6102c5610512366004614746565b610d95565b6102c5610525366004614972565b61103e565b6102eb610538366004614972565b60a76020526000908152604090205460ff1681565b6103826110c4565b609b54610344906001600160a01b031681565b6102c5610576366004614724565b6110eb565b6102c5610589366004614746565b61156b565b6102c561059c36600461498f565b61187c565b6102c56105af366004614724565b611b57565b60aa546001600160a01b0316610344565b6103826105d3366004614746565b611b8d565b6102c56105e6366004614972565b60a66020526000908152604090205481565b610303611fae565b6102c561060e366004614724565b611fbd565b6102eb6106213660046149c9565b611fee565b610344610634366004614746565b612214565b6103826106473660046149ee565b61223e565b6102c561065a366004614746565b60a56020526000908152604090205481565b610382612249565b610382610682366004614a32565b6122c9565b610382610695366004614972565b612301565b6103036106a8366004614746565b612412565b6102c56106bb366004614972565b60a06020526000908152604090205481565b6103826106db366004614b24565b612485565b6102c56106ee366004614972565b609f6020526000908152604090205481565b6102eb61070e366004614655565b6001600160a01b039182166000908152606a6020908152604080832093909416825291909152205460ff1690565b61074f61074a366004614972565b612990565b6040516102cf9190614b73565b61038261076a366004614972565b612b18565b61038261077d366004614746565b612ba7565b60006001600160e01b031982166380ac58cd60e01b14806107b357506001600160e01b03198216635b5e139f60e01b145b806107ce57506301ffc9a760e01b6001600160e01b03198316145b92915050565b6060606580546107e390614bf3565b80601f016020809104026020016040519081016040528092919081815260200182805461080f90614bf3565b801561085c5780601f106108315761010080835404028352916020019161085c565b820191906000526020600020905b81548152906001019060200180831161083f57829003601f168201915b5050505050905090565b600061087182612c1d565b506000908152606960205260409020546001600160a01b031690565b600061089882610d35565b9050806001600160a01b0316836001600160a01b03160361090a5760405162461bcd60e51b815260206004820152602160248201527f4552433732313a20617070726f76616c20746f2063757272656e74206f776e656044820152603960f91b60648201526084015b60405180910390fd5b336001600160a01b03821614806109265750610926813361070e565b6109985760405162461bcd60e51b815260206004820152603d60248201527f4552433732313a20617070726f76652063616c6c6572206973206e6f7420746f60448201527f6b656e206f776e6572206f7220617070726f76656420666f7220616c6c0000006064820152608401610901565b6109a28383612c7c565b505050565b60006109b1612cea565b6109bb3383612d43565b6109fd5760405162461bcd60e51b815260206004820152601360248201527239b2b73232b91034b9903737ba1037bbb732b960691b6044820152606401610901565b6000828152609d602052604090208054610a1a62093a8042614c43565b6006830155610a2c62093a8042614c43565b610a39906203f480614c43565b6007830155600182015460405190815281907fb3b9c925de3673837b40c6b4d4463a8f88dc821cd27e07f1ff6bf6abf96413a59060200160405180910390a2600192505050610a88600160dd55565b919050565b609c8181548110610a9d57600080fd5b60009182526020918290206040805161010081018252601790930290910180546001600160a01b03808216855260ff600160a01b8304169585019590955261ffff600160a81b909104169183019190915260018101549092166060820152600282018054929350909183916080840191610b1690614bf3565b80601f0160208091040260200160405190810160405280929190818152602001828054610b4290614bf3565b8015610b8f5780601f10610b6457610100808354040283529160200191610b8f565b820191906000526020600020905b815481529060010190602001808311610b7257829003601f168201915b50505091835250506003820154602080830191909152600483015460408084019190915260059093015460609283015282518084018452600686015481526007860154818301528351808501855260088701548152600987015481840152845160808082018752600a8901548252600b89015482860152600c89015482880152600d89015460ff1615158287015286519081018752600e890180548252600f8a01548287015260108a01548289015260118a018054895181890281018901909a52808a52999a9599949893979596929591949186019392909190830182828015610c9857602002820191906000526020600020905b815481526020019060010190808311610c84575b5050509190925250506040805160608101825260128501546001600160a01b031681526013850154602082015260148501549181019190915260158401546016909401549293909290915060ff1688565b610cf33382612d43565b610d0f5760405162461bcd60e51b815260040161090190614c56565b6109a2838383612dc2565b6109a2838383604051806020016040528060008152506122c9565b6000818152606760205260408120546001600160a01b0316806107ce5760405162461bcd60e51b8152602060048201526018602482015277115490cdcc8c4e881a5b9d985b1a59081d1bdad95b88125160421b6044820152606401610901565b600080609c8381548110610dab57610dab614ca3565b6000918252602090912060408051610200810190915260179092020180546001600160a01b038082166101008501908152600160a01b830460ff16610120860152600160a81b90920461ffff16610140850152600183015416610160840152600282018054849291849161018085019190610e2590614bf3565b80601f0160208091040260200160405190810160405280929190818152602001828054610e5190614bf3565b8015610e9e5780601f10610e7357610100808354040283529160200191610e9e565b820191906000526020600020905b815481529060010190602001808311610e8157829003601f168201915b505050918352505060038201546020808301919091526004830154604080840191909152600590930154606092830152928452815180830183526006860154815260078601548185015284840152815180830183526008860154815260098601548185015284830152815160808082018452600a8701548252600b87015482860152600c87015482850152600d87015460ff161515828401528583019190915282518082018452600e870180548252600f88015482870152601088015482860152601188018054865181890281018901909752808752939097019691959094938601939290830182828015610fb257602002820191906000526020600020905b815481526020019060010190808311610f9e575b505050919092525050508152604080516060808201835260128501546001600160a01b0316825260138501546020838101919091526014860154838501528085019290925260158501549284019290925260169093015460ff1615159101528181015190810151905191925061102791614c43565b815160c001516110379190614c43565b9392505050565b60006001600160a01b0382166110a85760405162461bcd60e51b815260206004820152602960248201527f4552433732313a2061646472657373207a65726f206973206e6f7420612076616044820152683634b21037bbb732b960b91b6064820152608401610901565b506001600160a01b031660009081526068602052604090205490565b609c5460005b818110156103cc576110db81611b8d565b6110e481614cb9565b90506110ca565b60006110f5612cea565b826000609c828154811061110b5761110b614ca3565b6000918252602090912060408051610200810190915260179092020180546001600160a01b038082166101008501908152600160a01b830460ff16610120860152600160a81b90920461ffff1661014085015260018301541661016084015260028201805484929184916101808501919061118590614bf3565b80601f01602080910402602001604051908101604052809291908181526020018280546111b190614bf3565b80156111fe5780601f106111d3576101008083540402835291602001916111fe565b820191906000526020600020905b8154815290600101906020018083116111e157829003601f168201915b505050918352505060038201546020808301919091526004830154604080840191909152600590930154606092830152928452815180830183526006860154815260078601548185015284840152815180830183526008860154815260098601548185015284830152815160808082018452600a8701548252600b87015482860152600c87015482850152600d87015460ff161515828401528583019190915282518082018452600e870180548252600f8801548287015260108801548286015260118801805486518189028101890190975280875293909701969195909493860193929083018282801561131257602002820191906000526020600020905b8154815260200190600101908083116112fe575b505050919092525050508152604080516060808201835260128501546001600160a01b03168252601385015460208381019190915260148601548385015284019190915260158401549183019190915260169092015460ff16151591015260e08101519091506113b65760405162461bcd60e51b815260206004820152600f60248201526e706f6f6c206e6f742061637469766560881b6044820152606401610901565b6000609c86815481106113cb576113cb614ca3565b60009182526020808320601790920290910180546001600160a01b0316835260a990915260409091205490915085101561143b5760405162461bcd60e51b8152602060048201526011602482015270135a5b881cdd185ad9481b9bdd081b595d607a1b6044820152606401610901565b600061144687610d95565b8254909150611460906001600160a01b0316333089612f31565b50600061146e883389612faa565b9050868360000160040160008282546114879190614c43565b90915550506003830154600484015411156114da5760405162461bcd60e51b8152602060048201526013602482015272115e18d959591959081c1bdbdb081b1a5b5a5d606a1b6044820152606401610901565b604051878152889033907f1449c6dd7851abc30abf37f57715f492010519147cc2652fbc38202c18a6ee909060200160405180910390a3600061151c89610d95565b60408051858152602081018390529192508a917fa3ea4fb8dee4d414198cb197af6eae4fe483c1a0b849dc50e53b9bf1a60e2166910160405180910390a2509450505050506107ce600160dd55565b600080609c838154811061158157611581614ca3565b6000918252602090912060408051610200810190915260179092020180546001600160a01b038082166101008501908152600160a01b830460ff16610120860152600160a81b90920461ffff166101408501526001830154166101608401526002820180548492918491610180850191906115fb90614bf3565b80601f016020809104026020016040519081016040528092919081815260200182805461162790614bf3565b80156116745780601f1061164957610100808354040283529160200191611674565b820191906000526020600020905b81548152906001019060200180831161165757829003601f168201915b505050918352505060038201546020808301919091526004830154604080840191909152600590930154606092830152928452815180830183526006860154815260078601548185015284840152815180830183526008860154815260098601548185015284830152815160808082018452600a8701548252600b87015482860152600c87015482850152600d87015460ff161515828401528583019190915282518082018452600e870180548252600f8801548287015260108801548286015260118801805486518189028101890190975280875293909701969195909493860193929083018282801561178857602002820191906000526020600020905b815481526020019060010190808311611774575b505050919092525050508152604080516060808201835260128501546001600160a01b03168252601385015460208084019190915260148601548385015284019190915260158401548284015260169093015460ff1615159290910191909152608082015151825160e001519151632500225b60e11b815260048101829052602481018390529293509173__$4defa815a6c8401eda00ac6be9b95d3cdb$__90634a0044b6906044015b602060405180830381865af415801561184f573d6000803e3d6000fd5b505050506040513d601f19601f820116820180604052508101906118739190614cd2565b95945050505050565b600080609c858154811061189257611892614ca3565b6000918252602090912060408051610200810190915260179092020180546001600160a01b038082166101008501908152600160a01b830460ff16610120860152600160a81b90920461ffff1661014085015260018301541661016084015260028201805484929184916101808501919061190c90614bf3565b80601f016020809104026020016040519081016040528092919081815260200182805461193890614bf3565b80156119855780601f1061195a57610100808354040283529160200191611985565b820191906000526020600020905b81548152906001019060200180831161196857829003601f168201915b505050918352505060038201546020808301919091526004830154604080840191909152600590930154606092830152928452815180830183526006860154815260078601548185015284840152815180830183526008860154815260098601548185015284830152815160808082018452600a8701548252600b87015482860152600c87015482850152600d87015460ff161515828401528583019190915282518082018452600e870180548252600f88015482870152601088015482860152601188018054865181890281018901909752808752939097019691959094938601939290830182828015611a9957602002820191906000526020600020905b815481526020019060010190808311611a85575b505050919092525050508152604080516060808201835260128501546001600160a01b03168252601385015460208084019190915260148601548385015284019190915260158401548284015260169093015460ff1615159290910191909152815160a081015160e0909101519151630d17449160e21b815260048101889052602481018790526044810191909152606481019190915290915073__$4defa815a6c8401eda00ac6be9b95d3cdb$__9063345d124490608401611832565b60006301e1338061271062093a80611b6f8587614ceb565b611b799190614ceb565b611b839190614d02565b6110379190614d02565b6000609c8281548110611ba257611ba2614ca3565b6000918252602090912060408051610200810190915260179092020180546001600160a01b038082166101008501908152600160a01b830460ff16610120860152600160a81b90920461ffff16610140850152600183015416610160840152600282018054849291849161018085019190611c1c90614bf3565b80601f0160208091040260200160405190810160405280929190818152602001828054611c4890614bf3565b8015611c955780601f10611c6a57610100808354040283529160200191611c95565b820191906000526020600020905b815481529060010190602001808311611c7857829003601f168201915b505050918352505060038201546020808301919091526004830154604080840191909152600590930154606092830152928452815180830183526006860154815260078601548185015284840152815180830183526008860154815260098601548185015284830152815160808082018452600a8701548252600b87015482860152600c87015482850152600d87015460ff161515828401528583019190915282518082018452600e870180548252600f88015482870152601088015482860152601188018054865181890281018901909752808752939097019691959094938601939290830182828015611da957602002820191906000526020600020905b815481526020019060010190808311611d95575b505050919092525050508152604080516060808201835260128501546001600160a01b03168252601385015460208381019190915260148601548385015284019190915260158401549183019190915260169092015460ff1615159082015260808201510151805191925090801580611e2457508260e00151155b15611e2f5750505050565b60005b81811015611e6c57611e5c838281518110611e4f57611e4f614ca3565b6020026020010151613292565b611e6581614cb9565b9050611e32565b506000848152609e6020908152604080832080548251818502810185019093528083529192909190830182828015611ec357602002820191906000526020600020905b815481526020019060010190808311611eaf575b5050835193945060009250829150505b82811015611f48576000848281518110611eef57611eef614ca3565b6020908102919091018101516000818152609d9092526040909120600181015491925090611f1e8b828761187c565b60038301556002820154611f329086614c43565b945050505080611f4190614cb9565b9050611ed3565b5080609c8881548110611f5d57611f5d614ca3565b6000918252602090912060106017909202010155609c805488908110611f8557611f85614ca3565b9060005260206000209060170201600e016003016000611fa5919061457d565b50505050505050565b6060606680546107e390614bf3565b609e6020528160005260406000208181548110611fd957600080fd5b90600052602060002001600091509150505481565b6000611ff8612cea565b6120023384612d43565b6120445760405162461bcd60e51b815260206004820152601360248201527239b2b73232b91034b9903737ba1037bbb732b960691b6044820152606401610901565b6000838152609d602052604081208054609c8054929391928390811061206c5761206c614ca3565b906000526020600020906017020190504283600601541080156120925750428360070154115b6120f05760405162461bcd60e51b815260206004820152602960248201527f54696d656c6f636b206e6f7420736574206f72206e6f7420636f6d706c6574656044820152686420696e2074696d6560b81b6064820152608401610901565b6120fa86866134ab565b60018301805460009182905560068501829055600785018290559061211e84610d95565b9050861561212f5761212f8861368c565b8115612169578183600001600401600082825461214c9190614d24565b90915550508254612167906001600160a01b0316338461372d565b505b604051828152849033907f7fc4727e062e336010f2c282598ef5f14facb3de68cf8195c2f23e1454b2b74e9060200160405180910390a360006121ab85610d95565b604080518481526020810183905291925086917fa3ea4fb8dee4d414198cb197af6eae4fe483c1a0b849dc50e53b9bf1a60e2166910160405180910390a25050506011018054600181810183556000928352602090922001869055925050506107ce600160dd55565b60a8818154811061222457600080fd5b6000918252602090912001546001600160a01b0316905081565b6103cc33838361376a565b60ab546001600160a01b031633146122b25760405162461bcd60e51b815260206004820152602660248201527f6f6e6c792070656e64696e67206f776e65722063616e2061636365707420747260448201526530b739b332b960d11b6064820152608401610901565b60ab546122c7906001600160a01b0316613838565b565b6122d33383612d43565b6122ef5760405162461bcd60e51b815260040161090190614c56565b6122fb84848484613895565b50505050565b600054610100900460ff16158080156123215750600054600160ff909116105b8061233b5750303b15801561233b575060005460ff166001145b61239e5760405162461bcd60e51b815260206004820152602e60248201527f496e697469616c697a61626c653a20636f6e747261637420697320616c72656160448201526d191e481a5b9a5d1a585b1a5e995960921b6064820152608401610901565b6000805460ff1916600117905580156123c1576000805461ff0019166101001790555b6123c96138c8565b80156103cc576000805461ff0019169055604051600181527f7f26b83ff96e1f2b6a682f133852f6798a09c465da95921460cefb38474024989060200160405180910390a15050565b606061241d82612c1d565b600061243460408051602081019091526000815290565b905060008151116124545760405180602001604052806000815250611037565b8061245e846138f7565b60405160200161246f929190614d37565b6040516020818303038152906040529392505050565b61248d61398b565b6127108261ffff1611156124d55760405162461bcd60e51b815260206004820152600f60248201526e0a0c2f2deeae840e8dede40d0d2ced608b1b6044820152606401610901565b6127108161ffff16111561251c5760405162461bcd60e51b815260206004820152600e60248201526d084dedceae640e8dede40d0d2ced60931b6044820152606401610901565b60008490506000609c828154811061253657612536614ca3565b6000918252602082206004601790920201908101549092508161255885610d95565b9050600061271061256d61ffff8a1684614ceb565b6125779190614d02565b6000878152609e60205260409020549091508382101561267b576000846125a6670de0b6b3a764000085614ceb565b6125b09190614d02565b905060005b82811015612674576000898152609e602052604081208054839081106125dd576125dd614ca3565b90600052602060002001549050609d6000828152602001908152602001600020975061260a8160006134ab565b6000670de0b6b3a7640000848a600101546126259190614ceb565b61262f9190614d02565b9050808960010160008282546126459190614d24565b909155505060048a018054829190600090612661908490614d24565b9091555050600190920191506125b59050565b5050612796565b83821015801561268b5750828211155b1561275c5760005b81811015612719576000888152609e602052604081208054839081106126bb576126bb614ca3565b90600052602060002001549050609d600082815260200190815260200160002096506126e88160006134ab565b600060018089018290556003890182905560118a018054808301825590835260209092209091019190915501612693565b506000600487015561272a876139e5565b5060006127378584614d24565b9050808760060160000160008282546127509190614d24565b90915550612796915050565b60405162461bcd60e51b815260206004820152600f60248201526e082dadeeadce840e8dede40d0d2ced608b1b6044820152606401610901565b60006127106127a961ffff8b1682614d24565b6127106127b86103e887614ceb565b6127c29190614d02565b6127cc9190614ceb565b6127d69190614d02565b6014880154601389015460128a015460405163fc76fff360e01b815260048101859052602481019390935260448301919091526001600160a01b031660648201529091506000908190819073__$4defa815a6c8401eda00ac6be9b95d3cdb$__9063fc76fff390608401606060405180830381865af415801561285d573d6000803e3d6000fd5b505050506040513d601f19601f820116820180604052508101906128819190614d66565b8c5492955090935091506001600160a01b031661289f828285613b46565b6001600160a01b0381166000908152609f6020526040812080548692906128c7908490614c43565b909155506128ec90508f6128db878a614d24565b6001600160a01b038416919061372d565b50806001600160a01b03168f6001600160a01b03167fbcbf239e05ac65bcc1a5612cd36d392b0a0aa8c93e027bc86e727687483424888960405161293291815260200190565b60405180910390a38b7fa3ea4fb8dee4d414198cb197af6eae4fe483c1a0b849dc50e53b9bf1a60e2166896129668f610d95565b6040805192835260208301919091520160405180910390a250505050505050505050505050505050565b6001600160a01b0381166000908152606c602090815260408083208054825181850281018501909352808352606094938301828280156129ef57602002820191906000526020600020905b8154815260200190600101908083116129db575b50508351939450839250505067ffffffffffffffff811115612a1357612a13614a1c565b604051908082528060200260200182016040528015612a4c57816020015b612a3961459b565b815260200190600190039081612a315790505b50925060005b81811015612b1057609d6000848381518110612a7057612a70614ca3565b602002602001015181526020019081526020016000206040518061010001604052908160008201548152602001600182015481526020016002820154815260200160038201548152602001600482015481526020016005820154815260200160068201548152602001600782015481525050848281518110612af457612af4614ca3565b602002602001018190525080612b0990614cb9565b9050612a52565b505050919050565b612b2061398b565b6001600160a01b038116612b855760405162461bcd60e51b815260206004820152602660248201527f4f776e61626c653a206e6577206f776e657220697320746865207a65726f206160448201526564647265737360d01b6064820152608401610901565b60ab80546001600160a01b0319166001600160a01b0392909216919091179055565b612baf612cea565b612bb93382612d43565b612bd55760405162461bcd60e51b815260040161090190614c56565b612be08160016134ab565b6000818152609d60205260408120600101549003612c0157612c018161368c565b612c0b600160dd55565b50565b6001600160a01b03163b151590565b6000818152606760205260409020546001600160a01b0316612c0b5760405162461bcd60e51b8152602060048201526018602482015277115490cdcc8c4e881a5b9d985b1a59081d1bdad95b88125160421b6044820152606401610901565b600081815260696020526040902080546001600160a01b0319166001600160a01b0384169081179091558190612cb182610d35565b6001600160a01b03167f8c5be1e5ebec7d5bd14f71427d1e84f3dd0314c0f7b2291e5b200ac8c7c3b92560405160405180910390a45050565b600260dd5403612d3c5760405162461bcd60e51b815260206004820152601f60248201527f5265656e7472616e637947756172643a207265656e7472616e742063616c6c006044820152606401610901565b600260dd55565b600080612d4f83610d35565b9050806001600160a01b0316846001600160a01b03161480612d9657506001600160a01b038082166000908152606a602090815260408083209388168352929052205460ff165b80612dba5750836001600160a01b0316612daf84610866565b6001600160a01b0316145b949350505050565b826001600160a01b0316612dd582610d35565b6001600160a01b031614612dfb5760405162461bcd60e51b815260040161090190614d9f565b6001600160a01b038216612e5d5760405162461bcd60e51b8152602060048201526024808201527f4552433732313a207472616e7366657220746f20746865207a65726f206164646044820152637265737360e01b6064820152608401610901565b612e68838383613b96565b826001600160a01b0316612e7b82610d35565b6001600160a01b031614612ea15760405162461bcd60e51b815260040161090190614d9f565b600081815260696020908152604080832080546001600160a01b03199081169091556001600160a01b0387811680865260688552838620805460001901905590871680865283862080546001019055868652606790945282852080549092168417909155905184937fddf252ad1be2c89b69c2b068fc378daa952ba7f163c4a11628f55a4df523b3ef91a4505050565b6040516001600160a01b0380851660248301528316604482015260648101829052600090612f9f9086906323b872dd60e01b906084015b60408051601f198184030181529190526020810180516001600160e01b03166001600160e01b031990931692909217909152613c2c565b506001949350505050565b60006001600160a01b0383166130025760405162461bcd60e51b815260206004820152601f60248201527f45524332303a206d696e7420746f20746865207a65726f2061646472657373006044820152606401610901565b60006130368584609c888154811061301c5761301c614ca3565b9060005260206000209060170201600e016000015461187c565b9050600061304385613cfe565b905061304d61459b565b86815260208101859052609c805460009173__$4defa815a6c8401eda00ac6be9b95d3cdb$__9163098952389189918c90811061308c5761308c614ca3565b9060005260206000209060170201600001600301546040518363ffffffff1660e01b81526004016130c7929190918252602082015260400190565b6040805180830381865af41580156130e3573d6000803e3d6000fd5b505050506040513d601f19601f820116820180604052508101906131079190614de4565b509050674563918244f4000081609c8a8154811061312757613127614ca3565b9060005260206000209060170201600e01600201546131469190614c43565b111561318a5760405162461bcd60e51b81526020600482015260136024820152721608189bdd5b99185c9e481d9a5bdb185d1959606a1b6044820152606401610901565b6040808301828152606084018681524260a086019081526000878152609d602090815285822088518155818901516001808301919091559551600282015593516003850155608088015160048501559151600584015560c0870151600684015560e08701516007909301929092558b8252609e81529281208054928301815581529190912001839055609c80548291908a90811061322a5761322a614ca3565b9060005260206000209060170201600e01600201600082825461324d9190614c43565b9250508190555061328588609c8a8154811061326b5761326b614ca3565b9060005260206000209060170201600e0160020154613eaf565b5091979650505050505050565b6000818152609d6020908152604080832081516101008101835281548082526001830154828601526002830154828501526003830154606083015260048301546080830152600583015460a0830152600683015460c083015260079092015460e0820152818552609e845282852080548451818702810187019095528085529195929492939290919083018282801561334a57602002820191906000526020600020905b815481526020019060010190808311613336575b5050835193945060009250829150505b8281101561339a578684828151811061337557613375614ca3565b60200260200101510361338a5780915061339a565b61339381614cb9565b905061335a565b508181106133ea5760405162461bcd60e51b815260206004820152601860248201527f546f6b656e206e6f7420666f756e6420696e20617272617900000000000000006044820152606401610901565b805b6133f7600184614d24565b81101561344f578361340a826001614c43565b8151811061341a5761341a614ca3565b602002602001015184828151811061343457613434614ca3565b602090810291909101015261344881614cb9565b90506133ec565b506000848152609e60209081526040909120845161346f928601906145e0565b506000848152609e6020526040902080548061348d5761348d614e08565b60019003818190600052602060002001600090559055505050505050565b6000828152609d602052604081208054609c805492939192839081106134d3576134d3614ca3565b90600052602060002090601702019050600080600073__$4defa815a6c8401eda00ac6be9b95d3cdb$__63ad6fa2338560150154886005015489600101548a600301548b600401546040518663ffffffff1660e01b8152600401613559959493929190948552602085019390935260408401919091526060830152608082015260a00190565b606060405180830381865af4158015613576573d6000803e3d6000fd5b505050506040513d601f19601f8201168201806040525081019061359a9190614e1e565b925092509250866135e85783601501546000036135b757426135bd565b83601501545b8660050181905550808660040160008282546135d99190614c43565b90915550505050505050505050565b60088401548311156135fe576135fe8584613ee2565b8215613682576000600487018190556015850154900361361e5742613624565b83601501545b6005870155600884018054849190600090613640908490614d24565b909155505060098401805483919060009061365c908490614d24565b90915550613680905061366e89610d35565b85546001600160a01b0316908461372d565b505b5050505050505050565b600061369782610d35565b90506136a581600084613b96565b6136ae82610d35565b600083815260696020908152604080832080546001600160a01b03199081169091556001600160a01b0385168085526068845282852080546000190190558785526067909352818420805490911690555192935084927fddf252ad1be2c89b69c2b068fc378daa952ba7f163c4a11628f55a4df523b3ef908390a45050565b6040516001600160a01b03831660248201526044810182905260009061376090859063a9059cbb60e01b90606401612f68565b5060019392505050565b816001600160a01b0316836001600160a01b0316036137cb5760405162461bcd60e51b815260206004820152601960248201527f4552433732313a20617070726f766520746f2063616c6c6572000000000000006044820152606401610901565b6001600160a01b038381166000818152606a6020908152604080832094871680845294825291829020805460ff191686151590811790915591519182527f17307eab39ab6107e8899845ad3d59bd9653f200f220920489ca2b5937696c31910160405180910390a3505050565b60aa80546001600160a01b038381166001600160a01b0319808416821790945560ab80549094169093556040519116919082907f8be0079c531659141344cd1fd0a4f28419497f9722a3daafe3b4186f6b6457e090600090a35050565b6138a0848484612dc2565b6138ac848484846140fe565b6122fb5760405162461bcd60e51b815260040161090190614e4c565b600054610100900460ff166138ef5760405162461bcd60e51b815260040161090190614e9e565b6122c76141fc565b606060006139048361422c565b600101905060008167ffffffffffffffff81111561392457613924614a1c565b6040519080825280601f01601f19166020018201604052801561394e576020820181803683370190505b5090508181016020015b600019016f181899199a1a9b1b9c1cb0b131b232b360811b600a86061a8153600a8504945084613958575b509392505050565b60aa546001600160a01b031633146122c75760405162461bcd60e51b815260206004820181905260248201527f4f776e61626c653a2063616c6c6572206973206e6f7420746865206f776e65726044820152606401610901565b600080609c83815481106139fb576139fb614ca3565b6000918252602080832086845260a5909152604083208054908490556017909202019250801561398357600085815260a4602090815260408083208484528252808320548151637f1f087360e01b815291516001600160a01b0390911693928492637f1f08739260048083019392829003018187875af1158015613a83573d6000803e3d6000fd5b505050506040513d601f19601f82011682018060405250810190613aa79190614cd2565b6040516348b1933560e01b8152600481018290529091506001600160a01b038316906348b19335906024016020604051808303816000875af1158015613af1573d6000803e3d6000fd5b505050506040513d601f19601f82011682018060405250810190613b159190614cd2565b6000600787018190556006870180549296508692909190613b37908490614c43565b90915550505050509392505050565b6001600160a01b038316156109a2576001600160a01b03808416600090815260a26020908152604080832093861683529290529081208054839290613b8c908490614c43565b9091555050505050565b816001600160a01b0316836001600160a01b031614158015613bc057506001600160a01b03831615155b15613bcf57613bcf8382614304565b826001600160a01b0316826001600160a01b031614158015613bf957506001600160a01b03821615155b156109a2576001600160a01b03919091166000908152606c60209081526040822080546001810182559083529120015550565b6000613c81826040518060400160405280602081526020017f5361666545524332303a206c6f772d6c6576656c2063616c6c206661696c6564815250856001600160a01b031661445a9092919063ffffffff16565b8051909150156109a25780806020019051810190613c9f9190614ee9565b6109a25760405162461bcd60e51b815260206004820152602a60248201527f5361666545524332303a204552433230206f7065726174696f6e20646964206e6044820152691bdd081cdd58d8d9595960b21b6064820152608401610901565b600080606b60008154613d1090614cb9565b918290555090506001600160a01b038316613d6d5760405162461bcd60e51b815260206004820181905260248201527f4552433732313a206d696e7420746f20746865207a65726f20616464726573736044820152606401610901565b6000818152606760205260409020546001600160a01b031615613dd25760405162461bcd60e51b815260206004820152601c60248201527f4552433732313a20746f6b656e20616c7265616479206d696e746564000000006044820152606401610901565b613dde60008483613b96565b6000818152606760205260409020546001600160a01b031615613e435760405162461bcd60e51b815260206004820152601c60248201527f4552433732313a20746f6b656e20616c7265616479206d696e746564000000006044820152606401610901565b6001600160a01b038316600081815260686020908152604080832080546001019055848352606790915280822080546001600160a01b0319168417905551839291907fddf252ad1be2c89b69c2b068fc378daa952ba7f163c4a11628f55a4df523b3ef908290a46107ce565b600081609c8481548110613ec557613ec5614ca3565b60009182526020909120600e601790920201015550600192915050565b6000609c8381548110613ef757613ef7614ca3565b600091825260208220601791909102016008810154600382015482549294508592613f2d9190600160a81b900461ffff16611b57565b613f379190614d24565b613f419190614c43565b60018301548354919250613f63916001600160a01b0390811691163084612f31565b5080826008016000016000828254613f7b9190614c43565b9091555060009050612710613f926103e884614ceb565b613f9c9190614d02565b60148401546013850154601286015460405163fc76fff360e01b815260048101859052602481019390935260448301919091526001600160a01b031660648201529091506000908190819073__$4defa815a6c8401eda00ac6be9b95d3cdb$__9063fc76fff390608401606060405180830381865af4158015614023573d6000803e3d6000fd5b505050506040513d601f19601f820116820180604052508101906140479190614d66565b885492955090935091506001600160a01b0316614065828285613b46565b6001600160a01b038116600090815260a060205260408120805486929061408d908490614c43565b909155506000905061409f8688614d24565b9050808860080160010160008282546140b89190614c43565b90915550506040518781528a907fadb049ad2d09be3db90459a16aef1ad0a4d89e8fdcc1ade9429d6cc55abbcd2b9060200160405180910390a250505050505050505050565b60006001600160a01b0384163b156141f457604051630a85bd0160e11b81526001600160a01b0385169063150b7a0290614142903390899088908890600401614f06565b6020604051808303816000875af192505050801561417d575060408051601f3d908101601f1916820190925261417a91810190614f43565b60015b6141da573d8080156141ab576040519150601f19603f3d011682016040523d82523d6000602084013e6141b0565b606091505b5080516000036141d25760405162461bcd60e51b815260040161090190614e4c565b805181602001fd5b6001600160e01b031916630a85bd0160e11b149050612dba565b506001612dba565b600054610100900460ff166142235760405162461bcd60e51b815260040161090190614e9e565b6122c733613838565b60008072184f03e93ff9f4daa797ed6e38ed64bf6a1f0160401b831061426b5772184f03e93ff9f4daa797ed6e38ed64bf6a1f0160401b830492506040015b6d04ee2d6d415b85acef81000000008310614297576d04ee2d6d415b85acef8100000000830492506020015b662386f26fc1000083106142b557662386f26fc10000830492506010015b6305f5e10083106142cd576305f5e100830492506008015b61271083106142e157612710830492506004015b606483106142f3576064830492506002015b600a83106107ce5760010192915050565b6001600160a01b0382166000908152606c602090815260408083208054825181850281018501909352808352919290919083018282801561436457602002820191906000526020600020905b815481526020019060010190808311614350575b505083519394506000925050505b81811015614453578383828151811061438d5761438d614ca3565b60200260200101510361444357826143a6600184614d24565b815181106143b6576143b6614ca3565b60200260200101518382815181106143d0576143d0614ca3565b6020908102919091018101919091526001600160a01b0386166000908152606c8252604090208451614404928601906145e0565b506001600160a01b0385166000908152606c6020526040902080548061442c5761442c614e08565b600190038181906000526020600020016000905590555b61444c81614cb9565b9050614372565b5050505050565b6060612dba848460008585600080866001600160a01b031685876040516144819190614f60565b60006040518083038185875af1925050503d80600081146144be576040519150601f19603f3d011682016040523d82523d6000602084013e6144c3565b606091505b50915091506144d4878383876144df565b979650505050505050565b6060831561454e578251600003614547576001600160a01b0385163b6145475760405162461bcd60e51b815260206004820152601d60248201527f416464726573733a2063616c6c20746f206e6f6e2d636f6e74726163740000006044820152606401610901565b5081612dba565b612dba83838151156145635781518083602001fd5b8060405162461bcd60e51b81526004016109019190614711565b5080546000825590600052602060002090810190612c0b919061462b565b60405180610100016040528060008152602001600081526020016000815260200160008152602001600081526020016000815260200160008152602001600081525090565b82805482825590600052602060002090810192821561461b579160200282015b8281111561461b578251825591602001919060010190614600565b5061462792915061462b565b5090565b5b80821115614627576000815560010161462c565b6001600160a01b0381168114612c0b57600080fd5b6000806040838503121561466857600080fd5b823561467381614640565b9150602083013561468381614640565b809150509250929050565b6001600160e01b031981168114612c0b57600080fd5b6000602082840312156146b657600080fd5b81356110378161468e565b60005b838110156146dc5781810151838201526020016146c4565b50506000910152565b600081518084526146fd8160208601602086016146c1565b601f01601f19169290920160200192915050565b60208152600061103760208301846146e5565b6000806040838503121561473757600080fd5b50508035926020909101359150565b60006020828403121561475857600080fd5b5035919050565b6000806040838503121561477257600080fd5b823561477d81614640565b946020939093013593505050565b60006080830182518452602080840151818601526040840151604086015260608401516080606087015282815180855260a0880191508383019450600092505b808310156147eb57845182529383019360019290920191908301906147cb565b509695505050505050565b6101e080825289516001600160a01b039081169183019190915260208a015160ff1661020083015260408a015161ffff1661022083015260608a01511661024082015260808901516101006102608301526000906148586102e08401826146e5565b905060a08b015161028084015260c08b01516102a084015260e08b01516102c0840152614892602084018b80518252602090810151910152565b8851606084015260208901516080840152875160a0840152602088015160c0840152604088015160e0840152606088015115156101008401528281036101208401526148de818861478b565b86516001600160a01b031661014085015260208701516101608501526040870151610180850152915061490e9050565b836101a08301526149246101c083018415159052565b9998505050505050505050565b60008060006060848603121561494657600080fd5b833561495181614640565b9250602084013561496181614640565b929592945050506040919091013590565b60006020828403121561498457600080fd5b813561103781614640565b6000806000606084860312156149a457600080fd5b505081359360208301359350604090920135919050565b8015158114612c0b57600080fd5b600080604083850312156149dc57600080fd5b823591506020830135614683816149bb565b60008060408385031215614a0157600080fd5b8235614a0c81614640565b91506020830135614683816149bb565b634e487b7160e01b600052604160045260246000fd5b60008060008060808587031215614a4857600080fd5b8435614a5381614640565b93506020850135614a6381614640565b925060408501359150606085013567ffffffffffffffff80821115614a8757600080fd5b818701915087601f830112614a9b57600080fd5b813581811115614aad57614aad614a1c565b604051601f8201601f19908116603f01168101908382118183101715614ad557614ad5614a1c565b816040528281528a6020848701011115614aee57600080fd5b82602086016020830137600060208483010152809550505050505092959194509250565b803561ffff81168114610a8857600080fd5b60008060008060808587031215614b3a57600080fd5b843593506020850135614b4c81614640565b9250614b5a60408601614b12565b9150614b6860608601614b12565b905092959194509250565b602080825282518282018190526000919060409081850190868401855b828110156132855781518051855286810151878601528581015186860152606080820151908601526080808201519086015260a0808201519086015260c0808201519086015260e090810151908501526101009093019290850190600101614b90565b600181811c90821680614c0757607f821691505b602082108103614c2757634e487b7160e01b600052602260045260246000fd5b50919050565b634e487b7160e01b600052601160045260246000fd5b808201808211156107ce576107ce614c2d565b6020808252602d908201527f4552433732313a2063616c6c6572206973206e6f7420746f6b656e206f776e6560408201526c1c881bdc88185c1c1c9bdd9959609a1b606082015260800190565b634e487b7160e01b600052603260045260246000fd5b600060018201614ccb57614ccb614c2d565b5060010190565b600060208284031215614ce457600080fd5b5051919050565b80820281158282048414176107ce576107ce614c2d565b600082614d1f57634e487b7160e01b600052601260045260246000fd5b500490565b818103818111156107ce576107ce614c2d565b60008351614d498184602088016146c1565b835190830190614d5d8183602088016146c1565b01949350505050565b600080600060608486031215614d7b57600080fd5b83519250602084015191506040840151614d9481614640565b809150509250925092565b60208082526025908201527f4552433732313a207472616e736665722066726f6d20696e636f72726563742060408201526437bbb732b960d91b606082015260800190565b60008060408385031215614df757600080fd5b505080516020909101519092909150565b634e487b7160e01b600052603160045260246000fd5b600080600060608486031215614e3357600080fd5b8351925060208401519150604084015190509250925092565b60208082526032908201527f4552433732313a207472616e7366657220746f206e6f6e20455243373231526560408201527131b2b4bb32b91034b6b83632b6b2b73a32b960711b606082015260800190565b6020808252602b908201527f496e697469616c697a61626c653a20636f6e7472616374206973206e6f74206960408201526a6e697469616c697a696e6760a81b606082015260800190565b600060208284031215614efb57600080fd5b8151611037816149bb565b6001600160a01b0385811682528416602082015260408101839052608060608201819052600090614f39908301846146e5565b9695505050505050565b600060208284031215614f5557600080fd5b81516110378161468e565b60008251614f728184602087016146c1565b919091019291505056fea2646970667358221220635ec674f7da876525b3e5e69ba5b012fb135ab64737456a855af8930135003364736f6c63430008110033496e697469616c697a61626c653a20636f6e7472616374206973206e6f742069",
    "linkReferences": {
      "src/lib/SaloonLib.sol": {
        "SaloonLib": [
          {
            "start": 7195,
            "length": 20
          },
          {
            "start": 7996,
            "length": 20
          },
          {
            "start": 11306,
            "length": 20
          },
          {
            "start": 13415,
            "length": 20
          },
          {
            "start": 14577,
            "length": 20
          },
          {
            "start": 17392,
            "length": 20
          }
        ]
      }
    }
  },
  "methodIdentifiers": {
    "acceptOwnershipTransfer()": "b842e87f",
    "activeStrategies(uint256)": "b20b2429",
    "activeTokens(uint256)": "9f224f35",
    "approve(address,uint256)": "095ea7b3",
    "balanceOf(address)": "70a08231",
    "calcRequiredPremiumBalancePerPeriod(uint256,uint256)": "836ef1fa",
    "calculateEffectiveAPY(uint256,uint256,uint256)": "81c6f1a7",
    "claimPremium(uint256)": "f47ec3be",
    "consolidate(uint256)": "949a4a4a",
    "consolidateAll()": "75bfd63d",
    "getAllTokensByOwner(address)": "e9fda7d4",
    "getApproved(uint256)": "081812fc",
    "getCurrentAPY(uint256)": "7fbf3853",
    "index()": "2986c0e5",
    "initialize(address)": "c4d66de8",
    "isApprovedForAll(address,address)": "e985e9c5",
    "minTokenStakeAmount(address)": "39458723",
    "name()": "06fdde03",
    "nftInfo(uint256)": "1f8bc790",
    "owner()": "8da5cb5b",
    "ownerOf(uint256)": "6352211e",
    "payBounty(uint256,address,uint16,uint16)": "d075afac",
    "pidNFTList(uint256,uint256)": "96ea48e8",
    "pidStrategies(uint256,bytes32)": "074ecf03",
    "poolInfo(uint256)": "1526fe27",
    "receiveStrategyYield(address,uint256)": "1aebcecb",
    "referralBalances(address,address)": "011b408b",
    "safeTransferFrom(address,address,uint256)": "42842e0e",
    "safeTransferFrom(address,address,uint256,bytes)": "b88d4fde",
    "saloonBounty()": "79923898",
    "saloonBountyProfit(address)": "e45abd0f",
    "saloonManager()": "220e1124",
    "saloonPremiumProfit(address)": "ca006148",
    "saloonProjectPortal()": "277fd2a1",
    "saloonStrategyProfit(address)": "598d17bf",
    "scheduleUnstake(uint256)": "106d08df",
    "setApprovalForAll(address,bool)": "a22cb465",
    "stake(uint256,uint256)": "7b0472f0",
    "strategyAddressToPid(address)": "957deecc",
    "supportsInterface(bytes4)": "01ffc9a7",
    "symbol()": "95d89b41",
    "tokenURI(uint256)": "c87b56dd",
    "tokenWhitelist(address)": "753d7563",
    "transferFrom(address,address,uint256)": "23b872dd",
    "transferOwnership(address)": "f2fde38b",
    "unstake(uint256,bool)": "9ebea88c",
    "viewBountyBalance(uint256)": "6ac6d812"
  },
  "id": 46
}