{
  "abi": [
    {
      "inputs": [],
      "stateMutability": "nonpayable",
      "type": "constructor"
    },
    {
      "anonymous": false,
      "inputs": [
        {
          "indexed": true,
          "internalType": "address",
          "name": "owner",
          "type": "address"
        },
        {
          "indexed": true,
          "internalType": "address",
          "name": "approved",
          "type": "address"
        },
        {
          "indexed": true,
          "internalType": "uint256",
          "name": "tokenId",
          "type": "uint256"
        }
      ],
      "name": "Approval",
      "type": "event"
    },
    {
      "anonymous": false,
      "inputs": [
        {
          "indexed": true,
          "internalType": "address",
          "name": "owner",
          "type": "address"
        },
        {
          "indexed": true,
          "internalType": "address",
          "name": "operator",
          "type": "address"
        },
        {
          "indexed": false,
          "internalType": "bool",
          "name": "approved",
          "type": "bool"
        }
      ],
      "name": "ApprovalForAll",
      "type": "event"
    },
    {
      "anonymous": false,
      "inputs": [
        {
          "indexed": true,
          "internalType": "uint256",
          "name": "pid",
          "type": "uint256"
        },
        {
          "indexed": false,
          "internalType": "uint256",
          "name": "oldAmount",
          "type": "uint256"
        },
        {
          "indexed": false,
          "internalType": "uint256",
          "name": "newAmount",
          "type": "uint256"
        }
      ],
      "name": "BountyBalanceChanged",
      "type": "event"
    },
    {
      "anonymous": false,
      "inputs": [
        {
          "indexed": true,
          "internalType": "address",
          "name": "hunter",
          "type": "address"
        },
        {
          "indexed": true,
          "internalType": "address",
          "name": "token",
          "type": "address"
        },
        {
          "indexed": false,
          "internalType": "uint256",
          "name": "amount",
          "type": "uint256"
        }
      ],
      "name": "BountyPaid",
      "type": "event"
    },
    {
      "anonymous": false,
      "inputs": [
        {
          "indexed": false,
          "internalType": "uint8",
          "name": "version",
          "type": "uint8"
        }
      ],
      "name": "Initialized",
      "type": "event"
    },
    {
      "anonymous": false,
      "inputs": [
        {
          "indexed": true,
          "internalType": "uint256",
          "name": "pid",
          "type": "uint256"
        },
        {
          "indexed": true,
          "internalType": "address",
          "name": "token",
          "type": "address"
        },
        {
          "indexed": false,
          "internalType": "uint256",
          "name": "tokenDecimals",
          "type": "uint256"
        }
      ],
      "name": "NewBountyDeployed",
      "type": "event"
    },
    {
      "anonymous": false,
      "inputs": [
        {
          "indexed": true,
          "internalType": "address",
          "name": "previousOwner",
          "type": "address"
        },
        {
          "indexed": true,
          "internalType": "address",
          "name": "newOwner",
          "type": "address"
        }
      ],
      "name": "OwnershipTransferred",
      "type": "event"
    },
    {
      "anonymous": false,
      "inputs": [
        {
          "indexed": true,
          "internalType": "uint256",
          "name": "pid",
          "type": "uint256"
        },
        {
          "indexed": false,
          "internalType": "uint256",
          "name": "amount",
          "type": "uint256"
        }
      ],
      "name": "PremiumBilled",
      "type": "event"
    },
    {
      "anonymous": false,
      "inputs": [
        {
          "indexed": true,
          "internalType": "address",
          "name": "user",
          "type": "address"
        },
        {
          "indexed": true,
          "internalType": "uint256",
          "name": "pid",
          "type": "uint256"
        },
        {
          "indexed": false,
          "internalType": "uint256",
          "name": "amount",
          "type": "uint256"
        }
      ],
      "name": "Staked",
      "type": "event"
    },
    {
      "anonymous": false,
      "inputs": [
        {
          "indexed": true,
          "internalType": "address",
          "name": "from",
          "type": "address"
        },
        {
          "indexed": true,
          "internalType": "address",
          "name": "to",
          "type": "address"
        },
        {
          "indexed": true,
          "internalType": "uint256",
          "name": "tokenId",
          "type": "uint256"
        }
      ],
      "name": "Transfer",
      "type": "event"
    },
    {
      "anonymous": false,
      "inputs": [
        {
          "indexed": true,
          "internalType": "address",
          "name": "user",
          "type": "address"
        },
        {
          "indexed": true,
          "internalType": "uint256",
          "name": "pid",
          "type": "uint256"
        },
        {
          "indexed": false,
          "internalType": "uint256",
          "name": "amount",
          "type": "uint256"
        }
      ],
      "name": "Unstaked",
      "type": "event"
    },
    {
      "anonymous": false,
      "inputs": [
        {
          "indexed": true,
          "internalType": "uint256",
          "name": "pid",
          "type": "uint256"
        },
        {
          "indexed": false,
          "internalType": "uint256",
          "name": "amount",
          "type": "uint256"
        }
      ],
      "name": "WithdrawalOrUnstakeScheduled",
      "type": "event"
    },
    {
      "anonymous": false,
      "inputs": [
        {
          "indexed": true,
          "internalType": "address",
          "name": "referrer",
          "type": "address"
        },
        {
          "indexed": false,
          "internalType": "uint256",
          "name": "amount",
          "type": "uint256"
        }
      ],
      "name": "referralPaid",
      "type": "event"
    },
    {
      "anonymous": false,
      "inputs": [
        {
          "indexed": true,
          "internalType": "address",
          "name": "token",
          "type": "address"
        },
        {
          "indexed": true,
          "internalType": "bool",
          "name": "whitelisted",
          "type": "bool"
        }
      ],
      "name": "tokenWhitelistUpdated",
      "type": "event"
    },
    {
      "inputs": [],
      "name": "acceptOwnershipTransfer",
      "outputs": [],
      "stateMutability": "nonpayable",
      "type": "function"
    },
    {
      "inputs": [
        {
          "internalType": "uint256",
          "name": "",
          "type": "uint256"
        }
      ],
      "name": "activeStrategies",
      "outputs": [
        {
          "internalType": "bytes32",
          "name": "",
          "type": "bytes32"
        }
      ],
      "stateMutability": "view",
      "type": "function"
    },
    {
      "inputs": [
        {
          "internalType": "uint256",
          "name": "",
          "type": "uint256"
        }
      ],
      "name": "activeTokens",
      "outputs": [
        {
          "internalType": "address",
          "name": "",
          "type": "address"
        }
      ],
      "stateMutability": "view",
      "type": "function"
    },
    {
      "inputs": [
        {
          "internalType": "address",
          "name": "to",
          "type": "address"
        },
        {
          "internalType": "uint256",
          "name": "tokenId",
          "type": "uint256"
        }
      ],
      "name": "approve",
      "outputs": [],
      "stateMutability": "nonpayable",
      "type": "function"
    },
    {
      "inputs": [
        {
          "internalType": "address",
          "name": "owner",
          "type": "address"
        }
      ],
      "name": "balanceOf",
      "outputs": [
        {
          "internalType": "uint256",
          "name": "",
          "type": "uint256"
        }
      ],
      "stateMutability": "view",
      "type": "function"
    },
    {
      "inputs": [
        {
          "internalType": "uint256",
          "name": "_poolCap",
          "type": "uint256"
        },
        {
          "internalType": "uint256",
          "name": "_apy",
          "type": "uint256"
        }
      ],
      "name": "calcRequiredPremiumBalancePerPeriod",
      "outputs": [
        {
          "internalType": "uint256",
          "name": "requiredPremiumBalance",
          "type": "uint256"
        }
      ],
      "stateMutability": "pure",
      "type": "function"
    },
    {
      "inputs": [
        {
          "internalType": "uint256",
          "name": "_pid",
          "type": "uint256"
        },
        {
          "internalType": "uint256",
          "name": "_stake",
          "type": "uint256"
        },
        {
          "internalType": "uint256",
          "name": "_x",
          "type": "uint256"
        }
      ],
      "name": "calculateEffectiveAPY",
      "outputs": [
        {
          "internalType": "uint256",
          "name": "scaledAPY",
          "type": "uint256"
        }
      ],
      "stateMutability": "view",
      "type": "function"
    },
    {
      "inputs": [
        {
          "internalType": "uint256",
          "name": "_tokenId",
          "type": "uint256"
        }
      ],
      "name": "claimPremium",
      "outputs": [],
      "stateMutability": "nonpayable",
      "type": "function"
    },
    {
      "inputs": [
        {
          "internalType": "uint256",
          "name": "_pid",
          "type": "uint256"
        }
      ],
      "name": "consolidate",
      "outputs": [],
      "stateMutability": "nonpayable",
      "type": "function"
    },
    {
      "inputs": [],
      "name": "consolidateAll",
      "outputs": [],
      "stateMutability": "nonpayable",
      "type": "function"
    },
    {
      "inputs": [
        {
          "internalType": "address",
          "name": "_owner",
          "type": "address"
        }
      ],
      "name": "getAllTokensByOwner",
      "outputs": [
        {
          "components": [
            {
              "internalType": "uint256",
              "name": "pid",
              "type": "uint256"
            },
            {
              "internalType": "uint256",
              "name": "amount",
              "type": "uint256"
            },
            {
              "internalType": "uint256",
              "name": "xDelta",
              "type": "uint256"
            },
            {
              "internalType": "uint256",
              "name": "apy",
              "type": "uint256"
            },
            {
              "internalType": "uint256",
              "name": "unclaimed",
              "type": "uint256"
            },
            {
              "internalType": "uint256",
              "name": "lastClaimedTime",
              "type": "uint256"
            },
            {
              "internalType": "uint256",
              "name": "timelock",
              "type": "uint256"
            },
            {
              "internalType": "uint256",
              "name": "timelimit",
              "type": "uint256"
            },
            {
              "internalType": "bool",
              "name": "hasUnstaked",
              "type": "bool"
            }
          ],
          "internalType": "struct ISaloon.NFTInfo[]",
          "name": "userTokens",
          "type": "tuple[]"
        }
      ],
      "stateMutability": "view",
      "type": "function"
    },
    {
      "inputs": [
        {
          "internalType": "uint256",
          "name": "tokenId",
          "type": "uint256"
        }
      ],
      "name": "getApproved",
      "outputs": [
        {
          "internalType": "address",
          "name": "",
          "type": "address"
        }
      ],
      "stateMutability": "view",
      "type": "function"
    },
    {
      "inputs": [
        {
          "internalType": "uint256",
          "name": "_pid",
          "type": "uint256"
        }
      ],
      "name": "getCurrentAPY",
      "outputs": [
        {
          "internalType": "uint256",
          "name": "currentAPY",
          "type": "uint256"
        }
      ],
      "stateMutability": "view",
      "type": "function"
    },
    {
      "inputs": [],
      "name": "index",
      "outputs": [
        {
          "internalType": "uint256",
          "name": "",
          "type": "uint256"
        }
      ],
      "stateMutability": "view",
      "type": "function"
    },
    {
      "inputs": [],
      "name": "initialize",
      "outputs": [],
      "stateMutability": "nonpayable",
      "type": "function"
    },
    {
      "inputs": [
        {
          "internalType": "address",
          "name": "owner",
          "type": "address"
        },
        {
          "internalType": "address",
          "name": "operator",
          "type": "address"
        }
      ],
      "name": "isApprovedForAll",
      "outputs": [
        {
          "internalType": "bool",
          "name": "",
          "type": "bool"
        }
      ],
      "stateMutability": "view",
      "type": "function"
    },
    {
      "inputs": [
        {
          "internalType": "address",
          "name": "",
          "type": "address"
        }
      ],
      "name": "minTokenStakeAmount",
      "outputs": [
        {
          "internalType": "uint256",
          "name": "",
          "type": "uint256"
        }
      ],
      "stateMutability": "view",
      "type": "function"
    },
    {
      "inputs": [],
      "name": "name",
      "outputs": [
        {
          "internalType": "string",
          "name": "",
          "type": "string"
        }
      ],
      "stateMutability": "view",
      "type": "function"
    },
    {
      "inputs": [
        {
          "internalType": "uint256",
          "name": "",
          "type": "uint256"
        }
      ],
      "name": "nftInfo",
      "outputs": [
        {
          "internalType": "uint256",
          "name": "pid",
          "type": "uint256"
        },
        {
          "internalType": "uint256",
          "name": "amount",
          "type": "uint256"
        },
        {
          "internalType": "uint256",
          "name": "xDelta",
          "type": "uint256"
        },
        {
          "internalType": "uint256",
          "name": "apy",
          "type": "uint256"
        },
        {
          "internalType": "uint256",
          "name": "unclaimed",
          "type": "uint256"
        },
        {
          "internalType": "uint256",
          "name": "lastClaimedTime",
          "type": "uint256"
        },
        {
          "internalType": "uint256",
          "name": "timelock",
          "type": "uint256"
        },
        {
          "internalType": "uint256",
          "name": "timelimit",
          "type": "uint256"
        },
        {
          "internalType": "bool",
          "name": "hasUnstaked",
          "type": "bool"
        }
      ],
      "stateMutability": "view",
      "type": "function"
    },
    {
      "inputs": [],
      "name": "owner",
      "outputs": [
        {
          "internalType": "address",
          "name": "",
          "type": "address"
        }
      ],
      "stateMutability": "view",
      "type": "function"
    },
    {
      "inputs": [
        {
          "internalType": "uint256",
          "name": "tokenId",
          "type": "uint256"
        }
      ],
      "name": "ownerOf",
      "outputs": [
        {
          "internalType": "address",
          "name": "",
          "type": "address"
        }
      ],
      "stateMutability": "view",
      "type": "function"
    },
    {
      "inputs": [
        {
          "internalType": "uint256",
          "name": "__pid",
          "type": "uint256"
        },
        {
          "internalType": "address",
          "name": "_hunter",
          "type": "address"
        },
        {
          "internalType": "uint16",
          "name": "_payoutBPS",
          "type": "uint16"
        },
        {
          "internalType": "uint16",
          "name": "_hunterBonusBPS",
          "type": "uint16"
        }
      ],
      "name": "payBounty",
      "outputs": [],
      "stateMutability": "nonpayable",
      "type": "function"
    },
    {
      "inputs": [
        {
          "internalType": "uint256",
          "name": "_pid",
          "type": "uint256"
        },
        {
          "internalType": "address",
          "name": "_hunter",
          "type": "address"
        },
        {
          "internalType": "uint16",
          "name": "_payoutBPS",
          "type": "uint16"
        },
        {
          "internalType": "uint16",
          "name": "_hunterBonusBPS",
          "type": "uint16"
        }
      ],
      "name": "payBountyDuringAssessment",
      "outputs": [],
      "stateMutability": "nonpayable",
      "type": "function"
    },
    {
      "inputs": [
        {
          "internalType": "uint256",
          "name": "",
          "type": "uint256"
        },
        {
          "internalType": "uint256",
          "name": "",
          "type": "uint256"
        }
      ],
      "name": "pidNFTList",
      "outputs": [
        {
          "internalType": "uint256",
          "name": "",
          "type": "uint256"
        }
      ],
      "stateMutability": "view",
      "type": "function"
    },
    {
      "inputs": [
        {
          "internalType": "uint256",
          "name": "",
          "type": "uint256"
        },
        {
          "internalType": "bytes32",
          "name": "",
          "type": "bytes32"
        }
      ],
      "name": "pidStrategies",
      "outputs": [
        {
          "internalType": "address",
          "name": "",
          "type": "address"
        }
      ],
      "stateMutability": "view",
      "type": "function"
    },
    {
      "inputs": [
        {
          "internalType": "uint256",
          "name": "",
          "type": "uint256"
        }
      ],
      "name": "poolInfo",
      "outputs": [
        {
          "components": [
            {
              "internalType": "contract IERC20",
              "name": "token",
              "type": "address"
            },
            {
              "internalType": "uint8",
              "name": "tokenDecimals",
              "type": "uint8"
            },
            {
              "internalType": "uint16",
              "name": "apy",
              "type": "uint16"
            },
            {
              "internalType": "address",
              "name": "projectWallet",
              "type": "address"
            },
            {
              "internalType": "string",
              "name": "projectName",
              "type": "string"
            },
            {
              "internalType": "uint256",
              "name": "poolCap",
              "type": "uint256"
            },
            {
              "internalType": "uint256",
              "name": "totalStaked",
              "type": "uint256"
            },
            {
              "internalType": "uint256",
              "name": "scalingMultiplier",
              "type": "uint256"
            }
          ],
          "internalType": "struct ISaloon.GeneralInfo",
          "name": "generalInfo",
          "type": "tuple"
        },
        {
          "components": [
            {
              "internalType": "uint256",
              "name": "projectDepositHeld",
              "type": "uint256"
            },
            {
              "internalType": "uint256",
              "name": "projectDepositInStrategy",
              "type": "uint256"
            }
          ],
          "internalType": "struct ISaloon.DepositInfo",
          "name": "depositInfo",
          "type": "tuple"
        },
        {
          "components": [
            {
              "internalType": "uint256",
              "name": "premiumBalance",
              "type": "uint256"
            },
            {
              "internalType": "uint256",
              "name": "premiumAvailable",
              "type": "uint256"
            }
          ],
          "internalType": "struct ISaloon.PremiumInfo",
          "name": "premiumInfo",
          "type": "tuple"
        },
        {
          "components": [
            {
              "internalType": "uint256",
              "name": "timelock",
              "type": "uint256"
            },
            {
              "internalType": "uint256",
              "name": "timeLimit",
              "type": "uint256"
            },
            {
              "internalType": "uint256",
              "name": "withdrawalScheduledAmount",
              "type": "uint256"
            },
            {
              "internalType": "bool",
              "name": "withdrawalExecuted",
              "type": "bool"
            }
          ],
          "internalType": "struct ISaloon.TimelockInfo",
          "name": "poolTimelock",
          "type": "tuple"
        },
        {
          "components": [
            {
              "internalType": "uint256",
              "name": "currentX",
              "type": "uint256"
            },
            {
              "internalType": "uint256",
              "name": "currentY",
              "type": "uint256"
            },
            {
              "internalType": "uint256",
              "name": "totalSupply",
              "type": "uint256"
            },
            {
              "internalType": "uint256[]",
              "name": "unstakedTokens",
              "type": "uint256[]"
            }
          ],
          "internalType": "struct ISaloon.CurveInfo",
          "name": "curveInfo",
          "type": "tuple"
        },
        {
          "components": [
            {
              "internalType": "address",
              "name": "referrer",
              "type": "address"
            },
            {
              "internalType": "uint256",
              "name": "referralFee",
              "type": "uint256"
            },
            {
              "internalType": "uint256",
              "name": "endTime",
              "type": "uint256"
            }
          ],
          "internalType": "struct ISaloon.ReferralInfo",
          "name": "referralInfo",
          "type": "tuple"
        },
        {
          "internalType": "uint256",
          "name": "assessmentPeriodEnd",
          "type": "uint256"
        },
        {
          "internalType": "uint256",
          "name": "freezeTime",
          "type": "uint256"
        },
        {
          "internalType": "bool",
          "name": "isActive",
          "type": "bool"
        }
      ],
      "stateMutability": "view",
      "type": "function"
    },
    {
      "inputs": [
        {
          "internalType": "address",
          "name": "_token",
          "type": "address"
        },
        {
          "internalType": "uint256",
          "name": "_amount",
          "type": "uint256"
        }
      ],
      "name": "receiveStrategyYield",
      "outputs": [],
      "stateMutability": "nonpayable",
      "type": "function"
    },
    {
      "inputs": [
        {
          "internalType": "address",
          "name": "",
          "type": "address"
        },
        {
          "internalType": "address",
          "name": "",
          "type": "address"
        }
      ],
      "name": "referralBalances",
      "outputs": [
        {
          "internalType": "uint256",
          "name": "",
          "type": "uint256"
        }
      ],
      "stateMutability": "view",
      "type": "function"
    },
    {
      "inputs": [
        {
          "internalType": "address",
          "name": "from",
          "type": "address"
        },
        {
          "internalType": "address",
          "name": "to",
          "type": "address"
        },
        {
          "internalType": "uint256",
          "name": "tokenId",
          "type": "uint256"
        }
      ],
      "name": "safeTransferFrom",
      "outputs": [],
      "stateMutability": "nonpayable",
      "type": "function"
    },
    {
      "inputs": [
        {
          "internalType": "address",
          "name": "from",
          "type": "address"
        },
        {
          "internalType": "address",
          "name": "to",
          "type": "address"
        },
        {
          "internalType": "uint256",
          "name": "tokenId",
          "type": "uint256"
        },
        {
          "internalType": "bytes",
          "name": "data",
          "type": "bytes"
        }
      ],
      "name": "safeTransferFrom",
      "outputs": [],
      "stateMutability": "nonpayable",
      "type": "function"
    },
    {
      "inputs": [],
      "name": "saloonBounty",
      "outputs": [
        {
          "internalType": "contract ISaloonBounty",
          "name": "",
          "type": "address"
        }
      ],
      "stateMutability": "view",
      "type": "function"
    },
    {
      "inputs": [
        {
          "internalType": "address",
          "name": "",
          "type": "address"
        }
      ],
      "name": "saloonBountyProfit",
      "outputs": [
        {
          "internalType": "uint256",
          "name": "",
          "type": "uint256"
        }
      ],
      "stateMutability": "view",
      "type": "function"
    },
    {
      "inputs": [],
      "name": "saloonManager",
      "outputs": [
        {
          "internalType": "contract ISaloonManager",
          "name": "",
          "type": "address"
        }
      ],
      "stateMutability": "view",
      "type": "function"
    },
    {
      "inputs": [
        {
          "internalType": "address",
          "name": "",
          "type": "address"
        }
      ],
      "name": "saloonPremiumProfit",
      "outputs": [
        {
          "internalType": "uint256",
          "name": "",
          "type": "uint256"
        }
      ],
      "stateMutability": "view",
      "type": "function"
    },
    {
      "inputs": [],
      "name": "saloonProjectPortal",
      "outputs": [
        {
          "internalType": "contract ISaloonProjectPortal",
          "name": "",
          "type": "address"
        }
      ],
      "stateMutability": "view",
      "type": "function"
    },
    {
      "inputs": [
        {
          "internalType": "address",
          "name": "",
          "type": "address"
        }
      ],
      "name": "saloonStrategyProfit",
      "outputs": [
        {
          "internalType": "uint256",
          "name": "",
          "type": "uint256"
        }
      ],
      "stateMutability": "view",
      "type": "function"
    },
    {
      "inputs": [],
      "name": "saloonView",
      "outputs": [
        {
          "internalType": "contract ISaloonView",
          "name": "",
          "type": "address"
        }
      ],
      "stateMutability": "view",
      "type": "function"
    },
    {
      "inputs": [
        {
          "internalType": "uint256",
          "name": "_tokenId",
          "type": "uint256"
        }
      ],
      "name": "scheduleUnstake",
      "outputs": [
        {
          "internalType": "bool",
          "name": "",
          "type": "bool"
        }
      ],
      "stateMutability": "nonpayable",
      "type": "function"
    },
    {
      "inputs": [
        {
          "internalType": "address",
          "name": "operator",
          "type": "address"
        },
        {
          "internalType": "bool",
          "name": "approved",
          "type": "bool"
        }
      ],
      "name": "setApprovalForAll",
      "outputs": [],
      "stateMutability": "nonpayable",
      "type": "function"
    },
    {
      "inputs": [
        {
          "internalType": "uint256",
          "name": "_pid",
          "type": "uint256"
        },
        {
          "internalType": "uint256",
          "name": "_amount",
          "type": "uint256"
        }
      ],
      "name": "stake",
      "outputs": [
        {
          "internalType": "uint256",
          "name": "",
          "type": "uint256"
        }
      ],
      "stateMutability": "nonpayable",
      "type": "function"
    },
    {
      "inputs": [
        {
          "internalType": "address",
          "name": "",
          "type": "address"
        }
      ],
      "name": "strategyAddressToPid",
      "outputs": [
        {
          "internalType": "uint256",
          "name": "",
          "type": "uint256"
        }
      ],
      "stateMutability": "view",
      "type": "function"
    },
    {
      "inputs": [],
      "name": "strategyFactory",
      "outputs": [
        {
          "internalType": "contract IStrategyFactory",
          "name": "",
          "type": "address"
        }
      ],
      "stateMutability": "view",
      "type": "function"
    },
    {
      "inputs": [
        {
          "internalType": "bytes4",
          "name": "interfaceId",
          "type": "bytes4"
        }
      ],
      "name": "supportsInterface",
      "outputs": [
        {
          "internalType": "bool",
          "name": "",
          "type": "bool"
        }
      ],
      "stateMutability": "view",
      "type": "function"
    },
    {
      "inputs": [],
      "name": "symbol",
      "outputs": [
        {
          "internalType": "string",
          "name": "",
          "type": "string"
        }
      ],
      "stateMutability": "view",
      "type": "function"
    },
    {
      "inputs": [
        {
          "internalType": "uint256",
          "name": "tokenId",
          "type": "uint256"
        }
      ],
      "name": "tokenURI",
      "outputs": [
        {
          "internalType": "string",
          "name": "",
          "type": "string"
        }
      ],
      "stateMutability": "view",
      "type": "function"
    },
    {
      "inputs": [
        {
          "internalType": "address",
          "name": "",
          "type": "address"
        }
      ],
      "name": "tokenWhitelist",
      "outputs": [
        {
          "internalType": "bool",
          "name": "",
          "type": "bool"
        }
      ],
      "stateMutability": "view",
      "type": "function"
    },
    {
      "inputs": [
        {
          "internalType": "address",
          "name": "from",
          "type": "address"
        },
        {
          "internalType": "address",
          "name": "to",
          "type": "address"
        },
        {
          "internalType": "uint256",
          "name": "tokenId",
          "type": "uint256"
        }
      ],
      "name": "transferFrom",
      "outputs": [],
      "stateMutability": "nonpayable",
      "type": "function"
    },
    {
      "inputs": [
        {
          "internalType": "address",
          "name": "newOwner",
          "type": "address"
        }
      ],
      "name": "transferOwnership",
      "outputs": [],
      "stateMutability": "nonpayable",
      "type": "function"
    },
    {
      "inputs": [
        {
          "internalType": "uint256",
          "name": "_tokenId",
          "type": "uint256"
        },
        {
          "internalType": "bool",
          "name": "_shouldHarvest",
          "type": "bool"
        }
      ],
      "name": "unstake",
      "outputs": [
        {
          "internalType": "bool",
          "name": "",
          "type": "bool"
        }
      ],
      "stateMutability": "nonpayable",
      "type": "function"
    },
    {
      "inputs": [
        {
          "internalType": "uint256",
          "name": "_pid",
          "type": "uint256"
        }
      ],
      "name": "viewBountyBalance",
      "outputs": [
        {
          "internalType": "uint256",
          "name": "",
          "type": "uint256"
        }
      ],
      "stateMutability": "view",
      "type": "function"
    },
    {
      "inputs": [
        {
          "internalType": "uint256",
          "name": "_pid",
          "type": "uint256"
        }
      ],
      "name": "withdrawRemainingAPY",
      "outputs": [],
      "stateMutability": "nonpayable",
      "type": "function"
    }
  ],
  "bytecode": {
    "object": "0x60806040523480156200001157600080fd5b50601254610100900460ff1615808015620000335750601254600160ff909116105b806200004f5750303b1580156200004f575060125460ff166001145b620000b85760405162461bcd60e51b815260206004820152602e60248201527f496e697469616c697a61626c653a20636f6e747261637420697320616c72656160448201526d191e481a5b9a5d1a585b1a5e995960921b60648201526084015b60405180910390fd5b6012805460ff191660011790558015620000dc576012805461ff0019166101001790555b6200012c6040518060400160405280600b81526020016a2137bab73a3caa37b5b2b760a91b8152506040518060400160405280600381526020016210951560ea1b8152506200017a60201b60201c565b801562000173576012805461ff0019169055604051600181527f7f26b83ff96e1f2b6a682f133852f6798a09c465da95921460cefb38474024989060200160405180910390a15b50620003d4565b601254610100900460ff16620001d65760405162461bcd60e51b815260206004820152602b602482015260008051602062005eac83398151915260448201526a6e697469616c697a696e6760a81b6064820152608401620000af565b620001e28282620001e6565b5050565b601254610100900460ff16620002425760405162461bcd60e51b815260206004820152602b602482015260008051602062005eac83398151915260448201526a6e697469616c697a696e6760a81b6064820152608401620000af565b607762000250838262000308565b5060786200025f828262000308565b505050565b634e487b7160e01b600052604160045260246000fd5b600181811c908216806200028f57607f821691505b602082108103620002b057634e487b7160e01b600052602260045260246000fd5b50919050565b601f8211156200025f57600081815260208120601f850160051c81016020861015620002df5750805b601f850160051c820191505b818110156200030057828155600101620002eb565b505050505050565b81516001600160401b0381111562000324576200032462000264565b6200033c816200033584546200027a565b84620002b6565b602080601f8311600181146200037457600084156200035b5750858301515b600019600386901b1c1916600185901b17855562000300565b600085815260208120601f198616915b82811015620003a55788860151825594840194600190910190840162000384565b5085821015620003c45787850151600019600388901b60f8161c191681555b5050505050600190811b01905550565b615ac880620003e46000396000f3fe608060405234801561001057600080fd5b50600436106102f15760003560e01c80637b0472f01161019d578063a22cb465116100e9578063cfd54bfa116100a2578063e985e9c51161007c578063e985e9c5146107b5578063e9fda7d4146107f1578063f2fde38b14610811578063f47ec3be1461082457600080fd5b8063cfd54bfa1461076f578063d075afac14610782578063e45abd0f1461079557600080fd5b8063a22cb465146106ee578063b20b242914610701578063b842e87f14610721578063b88d4fde14610729578063c87b56dd1461073c578063ca0061481461074f57600080fd5b8063949a4a4a1161015657806396ea48e81161013057806396ea48e8146106a25780639ebea88c146106b55780639ef35710146106c85780639f224f35146106db57600080fd5b8063949a4a4a14610667578063957deecc1461067a57806395d89b411461069a57600080fd5b80637b0472f0146106025780637fbf3853146106155780638129fc1c1461062857806381c6f1a714610630578063836ef1fa146106435780638da5cb5b1461065657600080fd5b806323b872dd1161025c578063598d17bf1161021557806370a08231116101ef57806370a08231146105b1578063753d7563146105c457806375bfd63d146105e757806379923898146105ef57600080fd5b8063598d17bf1461056b5780636352211e1461058b5780636ac6d8121461059e57600080fd5b806323b872dd146104f6578063277fd2a1146105095780632986c0e51461051c578063394587231461052557806342842e0e146105455780634ef19f631461055857600080fd5b80630a07f543116102ae5780630a07f543146103e0578063106d08df146103f35780631526fe27146104065780631aebcecb1461042e5780631f8bc79014610440578063220e1124146104e357600080fd5b8063011b408b146102f657806301ffc9a71461033457806306fdde0314610357578063074ecf031461036c578063081812fc146103b8578063095ea7b3146103cb575b600080fd5b610321610304366004615136565b600a60209081526000928352604080842090915290825290205481565b6040519081526020015b60405180910390f35b610347610342366004615185565b610837565b604051901515815260200161032b565b61035f610889565b60405161032b91906151f2565b6103a061037a366004615205565b600c6020908152600092835260408084209091529082529020546001600160a01b031681565b6040516001600160a01b03909116815260200161032b565b6103a06103c6366004615227565b61091b565b6103de6103d9366004615240565b610942565b005b6003546103a0906001600160a01b031681565b610347610401366004615227565b610a5c565b610419610414366004615227565b610b4b565b60405161032b999897969594939291906152d7565b6103de61043c366004615240565b5050565b61049d61044e366004615227565b6005602081905260009182526040909120805460018201546002830154600384015460048501549585015460068601546007870154600890970154959794969395929493919290919060ff1689565b60408051998a5260208a0198909852968801959095526060870193909352608086019190915260a085015260c084015260e083015215156101008201526101200161032b565b6000546103a0906001600160a01b031681565b6103de61050436600461541a565b610dac565b6001546103a0906001600160a01b031681565b610321607d5481565b61032161053336600461545b565b60116020526000908152604090205481565b6103de61055336600461541a565b610ddd565b6103de610566366004615227565b610df8565b61032161057936600461545b565b60096020526000908152604090205481565b6103a0610599366004615227565b61146a565b6103216105ac366004615227565b6114ca565b6103216105bf36600461545b565b611782565b6103476105d236600461545b565b600f6020526000908152604090205460ff1681565b6103de611808565b6002546103a0906001600160a01b031681565b610321610610366004615205565b61182f565b610321610623366004615227565b611caa565b6103de611fc0565b61032161063e366004615478565b6120d1565b610321610651366004615205565b6123b3565b60ab546001600160a01b03166103a0565b6103de610675366004615227565b6123e9565b61032161068836600461545b565b600e6020526000908152604090205481565b61035f612821565b6103216106b0366004615205565b612830565b6103476106c33660046154b2565b612861565b600b546103a0906001600160a01b031681565b6103a06106e9366004615227565b612a9a565b6103de6106fc3660046154d7565b612ac4565b61032161070f366004615227565b600d6020526000908152604090205481565b6103de612acf565b6103de61073736600461551b565b612b4f565b61035f61074a366004615227565b612b87565b61032161075d36600461545b565b60086020526000908152604090205481565b6103de61077d36600461560d565b612bfa565b6103de61079036600461560d565b612f32565b6103216107a336600461545b565b60076020526000908152604090205481565b6103476107c3366004615136565b6001600160a01b039182166000908152607c6020908152604080832093909416825291909152205460ff1690565b6108046107ff36600461545b565b613474565b60405161032b919061565c565b6103de61081f36600461545b565b613617565b6103de610832366004615227565b6136a6565b60006001600160e01b031982166380ac58cd60e01b148061086857506001600160e01b03198216635b5e139f60e01b145b8061088357506301ffc9a760e01b6001600160e01b03198316145b92915050565b606060778054610898906156e9565b80601f01602080910402602001604051908101604052809291908181526020018280546108c4906156e9565b80156109115780601f106108e657610100808354040283529160200191610911565b820191906000526020600020905b8154815290600101906020018083116108f457829003601f168201915b5050505050905090565b60006109268261370a565b506000908152607b60205260409020546001600160a01b031690565b600061094d8261146a565b9050806001600160a01b0316836001600160a01b0316036109bf5760405162461bcd60e51b815260206004820152602160248201527f4552433732313a20617070726f76616c20746f2063757272656e74206f776e656044820152603960f91b60648201526084015b60405180910390fd5b336001600160a01b03821614806109db57506109db81336107c3565b610a4d5760405162461bcd60e51b815260206004820152603d60248201527f4552433732313a20617070726f76652063616c6c6572206973206e6f7420746f60448201527f6b656e206f776e6572206f7220617070726f76656420666f7220616c6c00000060648201526084016109b6565b610a578383613769565b505050565b6000610a666137d7565b610a703383613830565b610ab25760405162461bcd60e51b815260206004820152601360248201527239b2b73232b91034b9903737ba1037bbb732b960691b60448201526064016109b6565b60008281526005602052604081208054600382019290925590610ad862093a8042615739565b6006830155610aea62093a8042615739565b610af7906203f480615739565b6007830155600182015460405190815281907fb3b9c925de3673837b40c6b4d4463a8f88dc821cd27e07f1ff6bf6abf96413a59060200160405180910390a2600192505050610b46600160de55565b919050565b60048181548110610b5b57600080fd5b60009182526020918290206040805161010081018252601890930290910180546001600160a01b03808216855260ff600160a01b8304169585019590955261ffff600160a81b909104169183019190915260018101549092166060820152600282018054929350909183916080840191610bd4906156e9565b80601f0160208091040260200160405190810160405280929190818152602001828054610c00906156e9565b8015610c4d5780601f10610c2257610100808354040283529160200191610c4d565b820191906000526020600020905b815481529060010190602001808311610c3057829003601f168201915b50505091835250506003820154602080830191909152600483015460408084019190915260059093015460609283015282518084018452600686015481526007860154818301528351808501855260088701548152600987015481840152845160808082018752600a8901548252600b89015482860152600c89015482880152600d89015460ff1615158287015286519081018752600e890180548252600f8a01548287015260108a01548289015260118a018054895181890281018901909a52808a52999a9599949893979596929591949186019392909190830182828015610d5657602002820191906000526020600020905b815481526020019060010190808311610d42575b5050509190925250506040805160608101825260128501546001600160a01b0316815260138501546020820152601485015491810191909152601584015460168501546017909501549394919390925060ff1689565b610db63382613830565b610dd25760405162461bcd60e51b81526004016109b69061574c565b610a578383836138af565b610a5783838360405180602001604052806000815250612b4f565b80600060048281548110610e0e57610e0e615799565b6000918252602090912060408051610220810190915260189092020180546001600160a01b038082166101208501908152600160a01b830460ff16610140860152600160a81b90920461ffff1661016085015260018301541661018084015260028201805484929184916101a085019190610e88906156e9565b80601f0160208091040260200160405190810160405280929190818152602001828054610eb4906156e9565b8015610f015780601f10610ed657610100808354040283529160200191610f01565b820191906000526020600020905b815481529060010190602001808311610ee457829003601f168201915b505050918352505060038201546020808301919091526004830154604080840191909152600590930154606092830152928452815180830183526006860154815260078601548185015284840152815180830183526008860154815260098601548185015284830152815160808082018452600a8701548252600b87015482860152600c87015482850152600d87015460ff161515828401528583019190915282518082018452600e870180548252600f8801548287015260108801548286015260118801805486518189028101890190975280875293909701969195909493860193929083018282801561101557602002820191906000526020600020905b815481526020019060010190808311611001575b505050919092525050508152604080516060808201835260128501546001600160a01b039081168352601386015460208085019190915260148701548486015285019290925260158501549284019290925260168401548284015260179093015460ff16151560809092019190915282510151919250163314806110a3575060ab546001600160a01b031633145b6110e05760405162461bcd60e51b815260206004820152600e60248201526d139bdd08185d5d1a1bdc9a5e995960921b60448201526064016109b6565b6000600484815481106110f5576110f5615799565b6000918252602090912060408051610220810190915260189092020180546001600160a01b038082166101208501908152600160a01b830460ff16610140860152600160a81b90920461ffff1661016085015260018301541661018084015260028201805484929184916101a08501919061116f906156e9565b80601f016020809104026020016040519081016040528092919081815260200182805461119b906156e9565b80156111e85780601f106111bd576101008083540402835291602001916111e8565b820191906000526020600020905b8154815290600101906020018083116111cb57829003601f168201915b505050918352505060038201546020808301919091526004830154604080840191909152600590930154606092830152928452815180830183526006860154815260078601548185015284840152815180830183526008860154815260098601548185015284830152815160808082018452600a8701548252600b87015482860152600c87015482850152600d87015460ff161515828401528583019190915282518082018452600e870180548252600f880154828701526010880154828601526011880180548651818902810189019097528087529390970196919590949386019392908301828280156112fc57602002820191906000526020600020905b8154815260200190600101908083116112e8575b505050919092525050508152604080516060808201835260128501546001600160a01b03168252601385015460208381019190915260148601548385015284019190915260158401549183019190915260168301549082015260179091015460ff161515608090910152610100810151909150156113bc5760405162461bcd60e51b815260206004820152601860248201527f506f6f6c206d757374206265206465616374697661746564000000000000000060448201526064016109b6565b600084815260066020526040812054905b818110156114135760008681526006602052604081208054839081106113f5576113f5615799565b9060005260206000200154905061140d816001613a1e565b506113cd565b50815160608101516040840151519151611439926001600160a01b039091169190613bff565b5060006004868154811061144f5761144f615799565b60009182526020909120600860189092020101555050505050565b6000818152607960205260408120546001600160a01b0316806108835760405162461bcd60e51b8152602060048201526018602482015277115490cdcc8c4e881a5b9d985b1a59081d1bdad95b88125160421b60448201526064016109b6565b600080600483815481106114e0576114e0615799565b6000918252602090912060408051610220810190915260189092020180546001600160a01b038082166101208501908152600160a01b830460ff16610140860152600160a81b90920461ffff1661016085015260018301541661018084015260028201805484929184916101a08501919061155a906156e9565b80601f0160208091040260200160405190810160405280929190818152602001828054611586906156e9565b80156115d35780601f106115a8576101008083540402835291602001916115d3565b820191906000526020600020905b8154815290600101906020018083116115b657829003601f168201915b505050918352505060038201546020808301919091526004830154604080840191909152600590930154606092830152928452815180830183526006860154815260078601548185015284840152815180830183526008860154815260098601548185015284830152815160808082018452600a8701548252600b87015482860152600c87015482850152600d87015460ff161515828401528583019190915282518082018452600e870180548252600f880154828701526010880154828601526011880180548651818902810189019097528087529390970196919590949386019392908301828280156116e757602002820191906000526020600020905b8154815260200190600101908083116116d3575b505050919092525050508152604080516060808201835260128501546001600160a01b0316825260138501546020838101919091526014860154838501528085019290925260158501549284019290925260168401549183019190915260179092015460ff1615156080909101528181015190810151905191925061176b91615739565b815160c0015161177b9190615739565b9392505050565b60006001600160a01b0382166117ec5760405162461bcd60e51b815260206004820152602960248201527f4552433732313a2061646472657373207a65726f206973206e6f7420612076616044820152683634b21037bbb732b960b91b60648201526084016109b6565b506001600160a01b03166000908152607a602052604090205490565b60045460005b8181101561043c5761181f816123e9565b611828816157af565b905061180e565b60006118396137d7565b8260006004828154811061184f5761184f615799565b6000918252602090912060408051610220810190915260189092020180546001600160a01b038082166101208501908152600160a01b830460ff16610140860152600160a81b90920461ffff1661016085015260018301541661018084015260028201805484929184916101a0850191906118c9906156e9565b80601f01602080910402602001604051908101604052809291908181526020018280546118f5906156e9565b80156119425780601f1061191757610100808354040283529160200191611942565b820191906000526020600020905b81548152906001019060200180831161192557829003601f168201915b505050918352505060038201546020808301919091526004830154604080840191909152600590930154606092830152928452815180830183526006860154815260078601548185015284840152815180830183526008860154815260098601548185015284830152815160808082018452600a8701548252600b87015482860152600c87015482850152600d87015460ff161515828401528583019190915282518082018452600e870180548252600f88015482870152601088015482860152601188018054865181890281018901909752808752939097019691959094938601939290830182828015611a5657602002820191906000526020600020905b815481526020019060010190808311611a42575b505050919092525050508152604080516060808201835260128501546001600160a01b03168252601385015460208381019190915260148601548385015284019190915260158401549183019190915260168301549082015260179091015460ff161515608090910152610100810151909150611b075760405162461bcd60e51b815260206004820152600f60248201526e706f6f6c206e6f742061637469766560881b60448201526064016109b6565b600060048681548110611b1c57611b1c615799565b60009182526020808320601890920290910180546001600160a01b031683526011909152604090912054909150851015611b8c5760405162461bcd60e51b8152602060048201526011602482015270135a5b881cdd185ad9481b9bdd081b595d607a1b60448201526064016109b6565b6000611b97876114ca565b8254909150611bb1906001600160a01b0316333089613c6f565b506000611bbf883389613cb5565b905086836000016004016000828254611bd89190615739565b9091555050600383015460048401541115611c2b5760405162461bcd60e51b8152602060048201526013602482015272115e18d959591959081c1bdbdb081b1a5b5a5d606a1b60448201526064016109b6565b604051878152889033907f1449c6dd7851abc30abf37f57715f492010519147cc2652fbc38202c18a6ee909060200160405180910390a36000611c6d896114ca565b60408051858152602081018390529192508a91600080516020615a73833981519152910160405180910390a250945050505050610883600160de55565b60008060048381548110611cc057611cc0615799565b6000918252602090912060408051610220810190915260189092020180546001600160a01b038082166101208501908152600160a01b830460ff16610140860152600160a81b90920461ffff1661016085015260018301541661018084015260028201805484929184916101a085019190611d3a906156e9565b80601f0160208091040260200160405190810160405280929190818152602001828054611d66906156e9565b8015611db35780601f10611d8857610100808354040283529160200191611db3565b820191906000526020600020905b815481529060010190602001808311611d9657829003601f168201915b505050918352505060038201546020808301919091526004830154604080840191909152600590930154606092830152928452815180830183526006860154815260078601548185015284840152815180830183526008860154815260098601548185015284830152815160808082018452600a8701548252600b87015482860152600c87015482850152600d87015460ff161515828401528583019190915282518082018452600e870180548252600f88015482870152601088015482860152601188018054865181890281018901909752808752939097019691959094938601939290830182828015611ec757602002820191906000526020600020905b815481526020019060010190808311611eb3575b505050919092525050508152604080516060808201835260128501546001600160a01b03168252601385015460208084019190915260148601548385015284019190915260158401548284015260168401549083015260179092015460ff16151560809182015282015151825160e001519151632500225b60e11b815260048101829052602481018390529293509173__$4defa815a6c8401eda00ac6be9b95d3cdb$__90634a0044b6906044015b602060405180830381865af4158015611f93573d6000803e3d6000fd5b505050506040513d601f19601f82011682018060405250810190611fb791906157c8565b95945050505050565b601254610100900460ff1615808015611fe05750601254600160ff909116105b80611ffa5750303b158015611ffa575060125460ff166001145b61205d5760405162461bcd60e51b815260206004820152602e60248201527f496e697469616c697a61626c653a20636f6e747261637420697320616c72656160448201526d191e481a5b9a5d1a585b1a5e995960921b60648201526084016109b6565b6012805460ff191660011790558015612080576012805461ff0019166101001790555b612088613fb9565b80156120ce576012805461ff0019169055604051600181527f7f26b83ff96e1f2b6a682f133852f6798a09c465da95921460cefb38474024989060200160405180910390a15b50565b600080600485815481106120e7576120e7615799565b6000918252602090912060408051610220810190915260189092020180546001600160a01b038082166101208501908152600160a01b830460ff16610140860152600160a81b90920461ffff1661016085015260018301541661018084015260028201805484929184916101a085019190612161906156e9565b80601f016020809104026020016040519081016040528092919081815260200182805461218d906156e9565b80156121da5780601f106121af576101008083540402835291602001916121da565b820191906000526020600020905b8154815290600101906020018083116121bd57829003601f168201915b505050918352505060038201546020808301919091526004830154604080840191909152600590930154606092830152928452815180830183526006860154815260078601548185015284840152815180830183526008860154815260098601548185015284830152815160808082018452600a8701548252600b87015482860152600c87015482850152600d87015460ff161515828401528583019190915282518082018452600e870180548252600f880154828701526010880154828601526011880180548651818902810189019097528087529390970196919590949386019392908301828280156122ee57602002820191906000526020600020905b8154815260200190600101908083116122da575b505050919092525050508152604080516060808201835260128501546001600160a01b03168252601385015460208084019190915260148601548385015284019190915260158401548284015260168401549083015260179092015460ff161515608090910152815160a081015160e0909101519151630d17449160e21b815260048101889052602481018790526044810191909152606481019190915290915073__$4defa815a6c8401eda00ac6be9b95d3cdb$__9063345d124490608401611f76565b60006301e1338061271062093a806123cb85876157e1565b6123d591906157e1565b6123df91906157f8565b61177b91906157f8565b6000600482815481106123fe576123fe615799565b6000918252602090912060408051610220810190915260189092020180546001600160a01b038082166101208501908152600160a01b830460ff16610140860152600160a81b90920461ffff1661016085015260018301541661018084015260028201805484929184916101a085019190612478906156e9565b80601f01602080910402602001604051908101604052809291908181526020018280546124a4906156e9565b80156124f15780601f106124c6576101008083540402835291602001916124f1565b820191906000526020600020905b8154815290600101906020018083116124d457829003601f168201915b505050918352505060038201546020808301919091526004830154604080840191909152600590930154606092830152928452815180830183526006860154815260078601548185015284840152815180830183526008860154815260098601548185015284830152815160808082018452600a8701548252600b87015482860152600c87015482850152600d87015460ff161515828401528583019190915282518082018452600e870180548252600f8801548287015260108801548286015260118801805486518189028101890190975280875293909701969195909493860193929083018282801561260557602002820191906000526020600020905b8154815260200190600101908083116125f1575b505050919092525050508152604080516060808201835260128501546001600160a01b03168252601385015460208381019190915260148601548385015284019190915260158401549183019190915260168301548183015260179092015460ff161515608091820152820151015180519192509080158061268a5750826101000151155b156126955750505050565b60005b818110156126d2576126c28382815181106126b5576126b5615799565b6020026020010151613fe8565b6126cb816157af565b9050612698565b5060008481526006602090815260408083208054825181850281018501909352808352919290919083018282801561272957602002820191906000526020600020905b815481526020019060010190808311612715575b5050835193945060009250829150505b828110156127bb57600084828151811061275557612755615799565b602002602001015190506000600560008381526020019081526020016000209050612781826000613a1e565b60018101546127918b82876120d1565b600383015560028201546127a59086615739565b9450505050806127b4906157af565b9050612739565b5080600488815481106127d0576127d0615799565b600091825260209091206010601890920201015560048054889081106127f8576127f8615799565b9060005260206000209060180201600e0160030160006128189190615055565b50505050505050565b606060788054610898906156e9565b6006602052816000526040600020818154811061284c57600080fd5b90600052602060002001600091509150505481565b600061286b6137d7565b6128753384613830565b6128b75760405162461bcd60e51b815260206004820152601360248201527239b2b73232b91034b9903737ba1037bbb732b960691b60448201526064016109b6565b600083815260056020526040812080546004805492939192839081106128df576128df615799565b90600052602060002090601802019050428160150154111561296f574283600601541080156129115750428360070154115b61296f5760405162461bcd60e51b815260206004820152602960248201527f54696d656c6f636b206e6f7420736574206f72206e6f7420636f6d706c6574656044820152686420696e2074696d6560b81b60648201526084016109b6565b6129798686613a1e565b60018301805460009182905560068501829055600785018290559061299d846114ca565b905086156129ae576129ae886141d0565b81156129f157818360000160040160008282546129cb919061581a565b909155506129ef90506129dd8961146a565b84546001600160a01b03169084613bff565b505b604051828152849033907f7fc4727e062e336010f2c282598ef5f14facb3de68cf8195c2f23e1454b2b74e9060200160405180910390a36000612a33856114ca565b60408051848152602081018390529192508691600080516020615a73833981519152910160405180910390a2600886015460ff16612a865760118401805460018101825560009182526020909120018990555b60019650505050505050610883600160de55565b60108181548110612aaa57600080fd5b6000918252602090912001546001600160a01b0316905081565b61043c338383614271565b60ac546001600160a01b03163314612b385760405162461bcd60e51b815260206004820152602660248201527f6f6e6c792070656e64696e67206f776e65722063616e2061636365707420747260448201526530b739b332b960d11b60648201526084016109b6565b60ac54612b4d906001600160a01b031661433f565b565b612b593383613830565b612b755760405162461bcd60e51b81526004016109b69061574c565b612b818484848461439c565b50505050565b6060612b928261370a565b6000612ba960408051602081019091526000815290565b90506000815111612bc9576040518060200160405280600081525061177b565b80612bd3846143cf565b604051602001612be492919061582d565b6040516020818303038152906040529392505050565b612c02614463565b600060048581548110612c1757612c17615799565b9060005260206000209060180201905042816015015411612c745760405162461bcd60e51b815260206004820152601760248201527641737365736d656e7420706572696f6420626f756e747960481b60448201526064016109b6565b6127108361ffff161115612cbc5760405162461bcd60e51b815260206004820152600f60248201526e0a0c2f2deeae840e8dede40d0d2ced608b1b60448201526064016109b6565b6127108261ffff161115612d035760405162461bcd60e51b815260206004820152600e60248201526d084dedceae640e8dede40d0d2ced60931b60448201526064016109b6565b612d0c856144bd565b5060068101546000612710612d2561ffff8716846157e1565b612d2f91906157f8565b905080836006016000016000828254612d48919061581a565b9091555060009050612710612d6161ffff87168261581a565b612710612d706103e8866157e1565b612d7a91906157f8565b612d8491906157e1565b612d8e91906157f8565b60148501546013860154601287015460405163fc76fff360e01b815260048101859052602481019390935260448301919091526001600160a01b031660648201529091506000908190819073__$4defa815a6c8401eda00ac6be9b95d3cdb$__9063fc76fff390608401606060405180830381865af4158015612e15573d6000803e3d6000fd5b505050506040513d601f19601f82011682018060405250810190612e39919061585c565b895492955090935091506001600160a01b0316612e5782828561461e565b6001600160a01b03811660009081526007602052604081208054869290612e7f908490615739565b90915550612ea490508b612e93878961581a565b6001600160a01b0384169190613bff565b50806001600160a01b03168b6001600160a01b03167fbcbf239e05ac65bcc1a5612cd36d392b0a0aa8c93e027bc86e7276874834248888604051612eea91815260200190565b60405180910390a38b600080516020615a7383398151915288612f0c8f6114ca565b6040805192835260208301919091520160405180910390a2505050505050505050505050565b612f3a614463565b6000849050600060048281548110612f5457612f54615799565b9060005260206000209060180201905042816015015410612fb15760405162461bcd60e51b815260206004820152601760248201527641737365736d656e7420706572696f6420626f756e747960481b60448201526064016109b6565b6127108461ffff161115612ff95760405162461bcd60e51b815260206004820152600f60248201526e0a0c2f2deeae840e8dede40d0d2ced608b1b60448201526064016109b6565b6127108361ffff1611156130405760405162461bcd60e51b815260206004820152600e60248201526d084dedceae640e8dede40d0d2ced60931b60448201526064016109b6565b600481015460009081613052856114ca565b9050600061271061306761ffff8a16846157e1565b61307191906157f8565b60008781526006602052604090205490915083821015613175576000846130a0670de0b6b3a7640000856157e1565b6130aa91906157f8565b905060005b8281101561316e5760008981526006602052604081208054839081106130d7576130d7615799565b90600052602060002001549050600560008281526020019081526020016000209750613104816000613a1e565b6000670de0b6b3a7640000848a6001015461311f91906157e1565b61312991906157f8565b90508089600101600082825461313f919061581a565b909155505060048a01805482919060009061315b90849061581a565b9091555050600190920191506130af9050565b505061329d565b8382101580156131855750828211155b156132635760005b818110156132205760008881526006602052604081208054839081106131b5576131b5615799565b906000526020600020015490506005600082815260200190815260200160002096506131e2816000613a1e565b6000600188018190556003880155600887015460ff166132175760118801805460018101825560009182526020909120018190555b5060010161318d565b5060006004870155613231876144bd565b50600061323e858461581a565b905080876006016000016000828254613257919061581a565b9091555061329d915050565b60405162461bcd60e51b815260206004820152600f60248201526e082dadeeadce840e8dede40d0d2ced608b1b60448201526064016109b6565b60006127106132b061ffff8b168261581a565b6127106132bf6103e8876157e1565b6132c991906157f8565b6132d391906157e1565b6132dd91906157f8565b6014880154601389015460128a015460405163fc76fff360e01b815260048101859052602481019390935260448301919091526001600160a01b031660648201529091506000908190819073__$4defa815a6c8401eda00ac6be9b95d3cdb$__9063fc76fff390608401606060405180830381865af4158015613364573d6000803e3d6000fd5b505050506040513d601f19601f82011682018060405250810190613388919061585c565b8c5492955090935091506001600160a01b03166133a682828561461e565b6001600160a01b038116600090815260076020526040812080548692906133ce908490615739565b909155506133e290508f612e93878a61581a565b50806001600160a01b03168f6001600160a01b03167fbcbf239e05ac65bcc1a5612cd36d392b0a0aa8c93e027bc86e727687483424888960405161342891815260200190565b60405180910390a38b600080516020615a738339815191528961344a8f6114ca565b6040805192835260208301919091520160405180910390a250505050505050505050505050505050565b6001600160a01b0381166000908152607e602090815260408083208054825181850281018501909352808352606094938301828280156134d357602002820191906000526020600020905b8154815260200190600101908083116134bf575b50508351939450839250505067ffffffffffffffff8111156134f7576134f7615505565b60405190808252806020026020018201604052801561353057816020015b61351d615073565b8152602001906001900390816135155790505b50925060005b8181101561360f576005600084838151811061355457613554615799565b602002602001015181526020019081526020016000206040518061012001604052908160008201548152602001600182015481526020016002820154815260200160038201548152602001600482015481526020016005820154815260200160068201548152602001600782015481526020016008820160009054906101000a900460ff1615151515815250508482815181106135f3576135f3615799565b602002602001018190525080613608906157af565b9050613536565b505050919050565b61361f614463565b6001600160a01b0381166136845760405162461bcd60e51b815260206004820152602660248201527f4f776e61626c653a206e6577206f776e657220697320746865207a65726f206160448201526564647265737360d01b60648201526084016109b6565b60ac80546001600160a01b0319166001600160a01b0392909216919091179055565b6136ae6137d7565b6136b83382613830565b6136d45760405162461bcd60e51b81526004016109b69061574c565b6136df816001613a1e565b600081815260056020526040812060010154900361370057613700816141d0565b6120ce600160de55565b6000818152607960205260409020546001600160a01b03166120ce5760405162461bcd60e51b8152602060048201526018602482015277115490cdcc8c4e881a5b9d985b1a59081d1bdad95b88125160421b60448201526064016109b6565b6000818152607b6020526040902080546001600160a01b0319166001600160a01b038416908117909155819061379e8261146a565b6001600160a01b03167f8c5be1e5ebec7d5bd14f71427d1e84f3dd0314c0f7b2291e5b200ac8c7c3b92560405160405180910390a45050565b600260de54036138295760405162461bcd60e51b815260206004820152601f60248201527f5265656e7472616e637947756172643a207265656e7472616e742063616c6c0060448201526064016109b6565b600260de55565b60008061383c8361146a565b9050806001600160a01b0316846001600160a01b0316148061388357506001600160a01b038082166000908152607c602090815260408083209388168352929052205460ff165b806138a75750836001600160a01b031661389c8461091b565b6001600160a01b0316145b949350505050565b826001600160a01b03166138c28261146a565b6001600160a01b0316146138e85760405162461bcd60e51b81526004016109b690615895565b6001600160a01b03821661394a5760405162461bcd60e51b8152602060048201526024808201527f4552433732313a207472616e7366657220746f20746865207a65726f206164646044820152637265737360e01b60648201526084016109b6565b61395583838361466e565b826001600160a01b03166139688261146a565b6001600160a01b03161461398e5760405162461bcd60e51b81526004016109b690615895565b6000818152607b6020908152604080832080546001600160a01b03199081169091556001600160a01b03878116808652607a8552838620805460001901905590871680865283862080546001019055868652607990945282852080549092168417909155905184937fddf252ad1be2c89b69c2b068fc378daa952ba7f163c4a11628f55a4df523b3ef91a4505050565b60008281526005602052604081208054600480549293919283908110613a4657613a46615799565b90600052602060002090601802019050600080600073__$4defa815a6c8401eda00ac6be9b95d3cdb$__63ad6fa2338560160154886005015489600101548a600301548b600401546040518663ffffffff1660e01b8152600401613acc959493929190948552602085019390935260408401919091526060830152608082015260a00190565b606060405180830381865af4158015613ae9573d6000803e3d6000fd5b505050506040513d601f19601f82011682018060405250810190613b0d91906158da565b92509250925086613b5b578360160154600003613b2a5742613b30565b83601601545b866005018190555080866004016000828254613b4c9190615739565b90915550505050505050505050565b6008840154831115613b7157613b718584614704565b8215613bf55760006004870181905560168501549003613b915742613b97565b83601601545b6005870155600884018054849190600090613bb390849061581a565b9091555050600984018054839190600090613bcf90849061581a565b90915550613bf39050613be18961146a565b85546001600160a01b03169084613bff565b505b5050505050505050565b6040516001600160a01b038316602482015260448101829052600090613c6590859063a9059cbb60e01b906064015b60408051601f198184030181529190526020810180516001600160e01b03166001600160e01b031990931692909217909152614920565b5060019392505050565b6040516001600160a01b0380851660248301528316604482015260648101829052600090613caa9086906323b872dd60e01b90608401613c2e565b506001949350505050565b60006001600160a01b038316613d0d5760405162461bcd60e51b815260206004820152601f60248201527f45524332303a206d696e7420746f20746865207a65726f20616464726573730060448201526064016109b6565b6000613d41858460048881548110613d2757613d27615799565b9060005260206000209060180201600e01600001546120d1565b90506000613d4e856149f2565b9050613d58615073565b868152602081018590526004805460009173__$4defa815a6c8401eda00ac6be9b95d3cdb$__9163098952389189918c908110613d9757613d97615799565b9060005260206000209060180201600001600301546040518363ffffffff1660e01b8152600401613dd2929190918252602082015260400190565b6040805180830381865af4158015613dee573d6000803e3d6000fd5b505050506040513d601f19601f82011682018060405250810190613e129190615908565b509050674563918244f400008160048a81548110613e3257613e32615799565b9060005260206000209060180201600e0160020154613e519190615739565b1115613e955760405162461bcd60e51b81526020600482015260136024820152721608189bdd5b99185c9e481d9a5bdb185d1959606a1b60448201526064016109b6565b6040828101828152606084018681524260a0860190815260008781526005602081815286832089518155818a01516001808301919091559651600282015594516003860155608089015160048087019190915593519185019190915560c088015160068086019190915560e089015160078601556101008901516008909501805460ff1916951515959095179094558d825292835293842080549384018155845292200184905580548291908a908110613f5157613f51615799565b9060005260206000209060180201600e016002016000828254613f749190615739565b92505081905550613fac8860048a81548110613f9257613f92615799565b9060005260206000209060180201600e0160020154614ba3565b5091979650505050505050565b601254610100900460ff16613fe05760405162461bcd60e51b81526004016109b69061592c565b612b4d614bd6565b6000818152600560208181526040808420815161012081018352815480825260018301548286015260028301548285015260038301546060830152600483015460808301529482015460a082015260068083015460c0830152600783015460e083015260089092015460ff16151561010082015284865290835281852080548351818602810186019094528084529195939091908301828280156140ab57602002820191906000526020600020905b815481526020019060010190808311614097575b5050835193945060009250829150505b828110156140fb57868482815181106140d6576140d6615799565b6020026020010151036140eb578091506140fb565b6140f4816157af565b90506140bb565b5081811061414b5760405162461bcd60e51b815260206004820152601860248201527f546f6b656e206e6f7420666f756e6420696e206172726179000000000000000060448201526064016109b6565b805b61415860018461581a565b8110156141b0578361416b826001615739565b8151811061417b5761417b615799565b602002602001015184828151811061419557614195615799565b60209081029190910101526141a9816157af565b905061414d565b5060008481526006602090815260409091208451612818928601906150c1565b60006141db8261146a565b90506141e98160008461466e565b6141f28261146a565b6000838152607b6020908152604080832080546001600160a01b03199081169091556001600160a01b038516808552607a845282852080546000190190558785526079909352818420805490911690555192935084927fddf252ad1be2c89b69c2b068fc378daa952ba7f163c4a11628f55a4df523b3ef908390a45050565b816001600160a01b0316836001600160a01b0316036142d25760405162461bcd60e51b815260206004820152601960248201527f4552433732313a20617070726f766520746f2063616c6c65720000000000000060448201526064016109b6565b6001600160a01b038381166000818152607c6020908152604080832094871680845294825291829020805460ff191686151590811790915591519182527f17307eab39ab6107e8899845ad3d59bd9653f200f220920489ca2b5937696c31910160405180910390a3505050565b60ab80546001600160a01b038381166001600160a01b0319808416821790945560ac80549094169093556040519116919082907f8be0079c531659141344cd1fd0a4f28419497f9722a3daafe3b4186f6b6457e090600090a35050565b6143a78484846138af565b6143b384848484614c06565b612b815760405162461bcd60e51b81526004016109b690615977565b606060006143dc83614d04565b600101905060008167ffffffffffffffff8111156143fc576143fc615505565b6040519080825280601f01601f191660200182016040528015614426576020820181803683370190505b5090508181016020015b600019016f181899199a1a9b1b9c1cb0b131b232b360811b600a86061a8153600a8504945084614430575b509392505050565b60ab546001600160a01b03163314612b4d5760405162461bcd60e51b815260206004820181905260248201527f4f776e61626c653a2063616c6c6572206973206e6f7420746865206f776e657260448201526064016109b6565b600080600483815481106144d3576144d3615799565b60009182526020808320868452600d909152604083208054908490556018909202019250801561445b576000858152600c602090815260408083208484528252808320548151637f1f087360e01b815291516001600160a01b0390911693928492637f1f08739260048083019392829003018187875af115801561455b573d6000803e3d6000fd5b505050506040513d601f19601f8201168201806040525081019061457f91906157c8565b6040516348b1933560e01b8152600481018290529091506001600160a01b038316906348b19335906024016020604051808303816000875af11580156145c9573d6000803e3d6000fd5b505050506040513d601f19601f820116820180604052508101906145ed91906157c8565b600060078701819055600687018054929650869290919061460f908490615739565b90915550505050509392505050565b6001600160a01b03831615610a57576001600160a01b038084166000908152600a6020908152604080832093861683529290529081208054839290614664908490615739565b9091555050505050565b816001600160a01b0316836001600160a01b03161415801561469857506001600160a01b03831615155b156146a7576146a78382614ddc565b826001600160a01b0316826001600160a01b0316141580156146d157506001600160a01b03821615155b15610a57576001600160a01b03919091166000908152607e60209081526040822080546001810182559083529120015550565b60006004838154811061471957614719615799565b60009182526020822060189190910201600881015460038201548254929450859261474f9190600160a81b900461ffff166123b3565b614759919061581a565b6147639190615739565b60018301548354919250614785916001600160a01b0390811691163084613c6f565b508082600801600001600082825461479d9190615739565b90915550600090506127106147b46103e8846157e1565b6147be91906157f8565b60148401546013850154601286015460405163fc76fff360e01b815260048101859052602481019390935260448301919091526001600160a01b031660648201529091506000908190819073__$4defa815a6c8401eda00ac6be9b95d3cdb$__9063fc76fff390608401606060405180830381865af4158015614845573d6000803e3d6000fd5b505050506040513d601f19601f82011682018060405250810190614869919061585c565b885492955090935091506001600160a01b031661488782828561461e565b6001600160a01b038116600090815260086020526040812080548692906148af908490615739565b90915550600090506148c1868861581a565b9050808860080160010160008282546148da9190615739565b90915550506040518781528a907fadb049ad2d09be3db90459a16aef1ad0a4d89e8fdcc1ade9429d6cc55abbcd2b9060200160405180910390a250505050505050505050565b6000614975826040518060400160405280602081526020017f5361666545524332303a206c6f772d6c6576656c2063616c6c206661696c6564815250856001600160a01b0316614f329092919063ffffffff16565b805190915015610a57578080602001905181019061499391906159c9565b610a575760405162461bcd60e51b815260206004820152602a60248201527f5361666545524332303a204552433230206f7065726174696f6e20646964206e6044820152691bdd081cdd58d8d9595960b21b60648201526084016109b6565b600080607d60008154614a04906157af565b918290555090506001600160a01b038316614a615760405162461bcd60e51b815260206004820181905260248201527f4552433732313a206d696e7420746f20746865207a65726f206164647265737360448201526064016109b6565b6000818152607960205260409020546001600160a01b031615614ac65760405162461bcd60e51b815260206004820152601c60248201527f4552433732313a20746f6b656e20616c7265616479206d696e7465640000000060448201526064016109b6565b614ad26000848361466e565b6000818152607960205260409020546001600160a01b031615614b375760405162461bcd60e51b815260206004820152601c60248201527f4552433732313a20746f6b656e20616c7265616479206d696e7465640000000060448201526064016109b6565b6001600160a01b0383166000818152607a6020908152604080832080546001019055848352607990915280822080546001600160a01b0319168417905551839291907fddf252ad1be2c89b69c2b068fc378daa952ba7f163c4a11628f55a4df523b3ef908290a4610883565b60008160048481548110614bb957614bb9615799565b60009182526020909120600e601890920201015550600192915050565b601254610100900460ff16614bfd5760405162461bcd60e51b81526004016109b69061592c565b612b4d3361433f565b60006001600160a01b0384163b15614cfc57604051630a85bd0160e11b81526001600160a01b0385169063150b7a0290614c4a9033908990889088906004016159e6565b6020604051808303816000875af1925050508015614c85575060408051601f3d908101601f19168201909252614c8291810190615a23565b60015b614ce2573d808015614cb3576040519150601f19603f3d011682016040523d82523d6000602084013e614cb8565b606091505b508051600003614cda5760405162461bcd60e51b81526004016109b690615977565b805181602001fd5b6001600160e01b031916630a85bd0160e11b1490506138a7565b5060016138a7565b60008072184f03e93ff9f4daa797ed6e38ed64bf6a1f0160401b8310614d435772184f03e93ff9f4daa797ed6e38ed64bf6a1f0160401b830492506040015b6d04ee2d6d415b85acef81000000008310614d6f576d04ee2d6d415b85acef8100000000830492506020015b662386f26fc100008310614d8d57662386f26fc10000830492506010015b6305f5e1008310614da5576305f5e100830492506008015b6127108310614db957612710830492506004015b60648310614dcb576064830492506002015b600a83106108835760010192915050565b6001600160a01b0382166000908152607e6020908152604080832080548251818502810185019093528083529192909190830182828015614e3c57602002820191906000526020600020905b815481526020019060010190808311614e28575b505083519394506000925050505b81811015614f2b5783838281518110614e6557614e65615799565b602002602001015103614f1b5782614e7e60018461581a565b81518110614e8e57614e8e615799565b6020026020010151838281518110614ea857614ea8615799565b6020908102919091018101919091526001600160a01b0386166000908152607e8252604090208451614edc928601906150c1565b506001600160a01b0385166000908152607e60205260409020805480614f0457614f04615a40565b600190038181906000526020600020016000905590555b614f24816157af565b9050614e4a565b5050505050565b60606138a7848460008585600080866001600160a01b03168587604051614f599190615a56565b60006040518083038185875af1925050503d8060008114614f96576040519150601f19603f3d011682016040523d82523d6000602084013e614f9b565b606091505b5091509150614fac87838387614fb7565b979650505050505050565b6060831561502657825160000361501f576001600160a01b0385163b61501f5760405162461bcd60e51b815260206004820152601d60248201527f416464726573733a2063616c6c20746f206e6f6e2d636f6e747261637400000060448201526064016109b6565b50816138a7565b6138a7838381511561503b5781518083602001fd5b8060405162461bcd60e51b81526004016109b691906151f2565b50805460008255906000526020600020908101906120ce919061510c565b60405180610120016040528060008152602001600081526020016000815260200160008152602001600081526020016000815260200160008152602001600081526020016000151581525090565b8280548282559060005260206000209081019282156150fc579160200282015b828111156150fc5782518255916020019190600101906150e1565b5061510892915061510c565b5090565b5b80821115615108576000815560010161510d565b6001600160a01b03811681146120ce57600080fd5b6000806040838503121561514957600080fd5b823561515481615121565b9150602083013561516481615121565b809150509250929050565b6001600160e01b0319811681146120ce57600080fd5b60006020828403121561519757600080fd5b813561177b8161516f565b60005b838110156151bd5781810151838201526020016151a5565b50506000910152565b600081518084526151de8160208601602086016151a2565b601f01601f19169290920160200192915050565b60208152600061177b60208301846151c6565b6000806040838503121561521857600080fd5b50508035926020909101359150565b60006020828403121561523957600080fd5b5035919050565b6000806040838503121561525357600080fd5b823561525e81615121565b946020939093013593505050565b60006080830182518452602080840151818601526040840151604086015260608401516080606087015282815180855260a0880191508383019450600092505b808310156152cc57845182529383019360019290920191908301906152ac565b509695505050505050565b6102008082528a516001600160a01b039081169183019190915260208b015160ff1661022083015260408b015161ffff1661024083015260608b01511661026082015260808a01516101006102808301526000906153396103008401826151c6565b905060a08c01516102a084015260c08c01516102c084015260e08c01516102e0840152615373602084018c80518252602090810151910152565b8951606084015260208a01516080840152885160a0840152602089015160c0840152604089015160e0840152606089015115156101008401528281036101208401526153bf818961526c565b87516001600160a01b03166101408501526020880151610160850152604088015161018085015291506153ef9050565b846101a0830152836101c083015261540c6101e083018415159052565b9a9950505050505050505050565b60008060006060848603121561542f57600080fd5b833561543a81615121565b9250602084013561544a81615121565b929592945050506040919091013590565b60006020828403121561546d57600080fd5b813561177b81615121565b60008060006060848603121561548d57600080fd5b505081359360208301359350604090920135919050565b80151581146120ce57600080fd5b600080604083850312156154c557600080fd5b823591506020830135615164816154a4565b600080604083850312156154ea57600080fd5b82356154f581615121565b91506020830135615164816154a4565b634e487b7160e01b600052604160045260246000fd5b6000806000806080858703121561553157600080fd5b843561553c81615121565b9350602085013561554c81615121565b925060408501359150606085013567ffffffffffffffff8082111561557057600080fd5b818701915087601f83011261558457600080fd5b81358181111561559657615596615505565b604051601f8201601f19908116603f011681019083821181831017156155be576155be615505565b816040528281528a60208487010111156155d757600080fd5b82602086016020830137600060208483010152809550505050505092959194509250565b803561ffff81168114610b4657600080fd5b6000806000806080858703121561562357600080fd5b84359350602085013561563581615121565b9250615643604086016155fb565b9150615651606086016155fb565b905092959194509250565b602080825282518282018190526000919060409081850190868401855b82811015613fac5781518051855286810151878601528581015186860152606080820151908601526080808201519086015260a0808201519086015260c0808201519086015260e08082015190860152610100908101511515908501526101209093019290850190600101615679565b600181811c908216806156fd57607f821691505b60208210810361571d57634e487b7160e01b600052602260045260246000fd5b50919050565b634e487b7160e01b600052601160045260246000fd5b8082018082111561088357610883615723565b6020808252602d908201527f4552433732313a2063616c6c6572206973206e6f7420746f6b656e206f776e6560408201526c1c881bdc88185c1c1c9bdd9959609a1b606082015260800190565b634e487b7160e01b600052603260045260246000fd5b6000600182016157c1576157c1615723565b5060010190565b6000602082840312156157da57600080fd5b5051919050565b808202811582820484141761088357610883615723565b60008261581557634e487b7160e01b600052601260045260246000fd5b500490565b8181038181111561088357610883615723565b6000835161583f8184602088016151a2565b8351908301906158538183602088016151a2565b01949350505050565b60008060006060848603121561587157600080fd5b8351925060208401519150604084015161588a81615121565b809150509250925092565b60208082526025908201527f4552433732313a207472616e736665722066726f6d20696e636f72726563742060408201526437bbb732b960d91b606082015260800190565b6000806000606084860312156158ef57600080fd5b8351925060208401519150604084015190509250925092565b6000806040838503121561591b57600080fd5b505080516020909101519092909150565b6020808252602b908201527f496e697469616c697a61626c653a20636f6e7472616374206973206e6f74206960408201526a6e697469616c697a696e6760a81b606082015260800190565b60208082526032908201527f4552433732313a207472616e7366657220746f206e6f6e20455243373231526560408201527131b2b4bb32b91034b6b83632b6b2b73a32b960711b606082015260800190565b6000602082840312156159db57600080fd5b815161177b816154a4565b6001600160a01b0385811682528416602082015260408101839052608060608201819052600090615a19908301846151c6565b9695505050505050565b600060208284031215615a3557600080fd5b815161177b8161516f565b634e487b7160e01b600052603160045260246000fd5b60008251615a688184602087016151a2565b919091019291505056fea3ea4fb8dee4d414198cb197af6eae4fe483c1a0b849dc50e53b9bf1a60e2166a26469706673582212204b47532a2ba611b7eb9961334f288a138c03b1f2184caaa0e1919c87675afa0f64736f6c63430008130033496e697469616c697a61626c653a20636f6e7472616374206973206e6f742069",
    "linkReferences": {
      "src/lib/SaloonLib.sol": {
        "SaloonLib": [
          {
            "start": 9020,
            "length": 20
          },
          {
            "start": 10101,
            "length": 20
          },
          {
            "start": 12735,
            "length": 20
          },
          {
            "start": 14094,
            "length": 20
          },
          {
            "start": 15937,
            "length": 20
          },
          {
            "start": 16719,
            "length": 20
          },
          {
            "start": 19439,
            "length": 20
          }
        ]
      }
    }
  },
  "methodIdentifiers": {
    "acceptOwnershipTransfer()": "b842e87f",
    "activeStrategies(uint256)": "b20b2429",
    "activeTokens(uint256)": "9f224f35",
    "approve(address,uint256)": "095ea7b3",
    "balanceOf(address)": "70a08231",
    "calcRequiredPremiumBalancePerPeriod(uint256,uint256)": "836ef1fa",
    "calculateEffectiveAPY(uint256,uint256,uint256)": "81c6f1a7",
    "claimPremium(uint256)": "f47ec3be",
    "consolidate(uint256)": "949a4a4a",
    "consolidateAll()": "75bfd63d",
    "getAllTokensByOwner(address)": "e9fda7d4",
    "getApproved(uint256)": "081812fc",
    "getCurrentAPY(uint256)": "7fbf3853",
    "index()": "2986c0e5",
    "initialize()": "8129fc1c",
    "isApprovedForAll(address,address)": "e985e9c5",
    "minTokenStakeAmount(address)": "39458723",
    "name()": "06fdde03",
    "nftInfo(uint256)": "1f8bc790",
    "owner()": "8da5cb5b",
    "ownerOf(uint256)": "6352211e",
    "payBounty(uint256,address,uint16,uint16)": "d075afac",
    "payBountyDuringAssessment(uint256,address,uint16,uint16)": "cfd54bfa",
    "pidNFTList(uint256,uint256)": "96ea48e8",
    "pidStrategies(uint256,bytes32)": "074ecf03",
    "poolInfo(uint256)": "1526fe27",
    "receiveStrategyYield(address,uint256)": "1aebcecb",
    "referralBalances(address,address)": "011b408b",
    "safeTransferFrom(address,address,uint256)": "42842e0e",
    "safeTransferFrom(address,address,uint256,bytes)": "b88d4fde",
    "saloonBounty()": "79923898",
    "saloonBountyProfit(address)": "e45abd0f",
    "saloonManager()": "220e1124",
    "saloonPremiumProfit(address)": "ca006148",
    "saloonProjectPortal()": "277fd2a1",
    "saloonStrategyProfit(address)": "598d17bf",
    "saloonView()": "0a07f543",
    "scheduleUnstake(uint256)": "106d08df",
    "setApprovalForAll(address,bool)": "a22cb465",
    "stake(uint256,uint256)": "7b0472f0",
    "strategyAddressToPid(address)": "957deecc",
    "strategyFactory()": "9ef35710",
    "supportsInterface(bytes4)": "01ffc9a7",
    "symbol()": "95d89b41",
    "tokenURI(uint256)": "c87b56dd",
    "tokenWhitelist(address)": "753d7563",
    "transferFrom(address,address,uint256)": "23b872dd",
    "transferOwnership(address)": "f2fde38b",
    "unstake(uint256,bool)": "9ebea88c",
    "viewBountyBalance(uint256)": "6ac6d812",
    "withdrawRemainingAPY(uint256)": "4ef19f63"
  },
  "id": 56
}