{
  "abi": [
    {
      "inputs": [],
      "stateMutability": "nonpayable",
      "type": "constructor"
    },
    {
      "anonymous": false,
      "inputs": [
        {
          "indexed": true,
          "internalType": "address",
          "name": "owner",
          "type": "address"
        },
        {
          "indexed": true,
          "internalType": "address",
          "name": "approved",
          "type": "address"
        },
        {
          "indexed": true,
          "internalType": "uint256",
          "name": "tokenId",
          "type": "uint256"
        }
      ],
      "name": "Approval",
      "type": "event"
    },
    {
      "anonymous": false,
      "inputs": [
        {
          "indexed": true,
          "internalType": "address",
          "name": "owner",
          "type": "address"
        },
        {
          "indexed": true,
          "internalType": "address",
          "name": "operator",
          "type": "address"
        },
        {
          "indexed": false,
          "internalType": "bool",
          "name": "approved",
          "type": "bool"
        }
      ],
      "name": "ApprovalForAll",
      "type": "event"
    },
    {
      "anonymous": false,
      "inputs": [
        {
          "indexed": true,
          "internalType": "uint256",
          "name": "pid",
          "type": "uint256"
        },
        {
          "indexed": false,
          "internalType": "uint256",
          "name": "oldAmount",
          "type": "uint256"
        },
        {
          "indexed": false,
          "internalType": "uint256",
          "name": "newAmount",
          "type": "uint256"
        }
      ],
      "name": "BountyBalanceChanged",
      "type": "event"
    },
    {
      "anonymous": false,
      "inputs": [
        {
          "indexed": true,
          "internalType": "address",
          "name": "hunter",
          "type": "address"
        },
        {
          "indexed": true,
          "internalType": "address",
          "name": "token",
          "type": "address"
        },
        {
          "indexed": false,
          "internalType": "uint256",
          "name": "amount",
          "type": "uint256"
        }
      ],
      "name": "BountyPaid",
      "type": "event"
    },
    {
      "anonymous": false,
      "inputs": [
        {
          "indexed": false,
          "internalType": "uint8",
          "name": "version",
          "type": "uint8"
        }
      ],
      "name": "Initialized",
      "type": "event"
    },
    {
      "anonymous": false,
      "inputs": [
        {
          "indexed": true,
          "internalType": "uint256",
          "name": "pid",
          "type": "uint256"
        },
        {
          "indexed": true,
          "internalType": "address",
          "name": "token",
          "type": "address"
        },
        {
          "indexed": false,
          "internalType": "uint256",
          "name": "tokenDecimals",
          "type": "uint256"
        }
      ],
      "name": "NewBountyDeployed",
      "type": "event"
    },
    {
      "anonymous": false,
      "inputs": [
        {
          "indexed": true,
          "internalType": "address",
          "name": "previousOwner",
          "type": "address"
        },
        {
          "indexed": true,
          "internalType": "address",
          "name": "newOwner",
          "type": "address"
        }
      ],
      "name": "OwnershipTransferred",
      "type": "event"
    },
    {
      "anonymous": false,
      "inputs": [
        {
          "indexed": true,
          "internalType": "uint256",
          "name": "pid",
          "type": "uint256"
        },
        {
          "indexed": false,
          "internalType": "uint256",
          "name": "amount",
          "type": "uint256"
        }
      ],
      "name": "PremiumBilled",
      "type": "event"
    },
    {
      "anonymous": false,
      "inputs": [
        {
          "indexed": true,
          "internalType": "address",
          "name": "user",
          "type": "address"
        },
        {
          "indexed": true,
          "internalType": "uint256",
          "name": "pid",
          "type": "uint256"
        },
        {
          "indexed": false,
          "internalType": "uint256",
          "name": "amount",
          "type": "uint256"
        }
      ],
      "name": "Staked",
      "type": "event"
    },
    {
      "anonymous": false,
      "inputs": [
        {
          "indexed": true,
          "internalType": "address",
          "name": "from",
          "type": "address"
        },
        {
          "indexed": true,
          "internalType": "address",
          "name": "to",
          "type": "address"
        },
        {
          "indexed": true,
          "internalType": "uint256",
          "name": "tokenId",
          "type": "uint256"
        }
      ],
      "name": "Transfer",
      "type": "event"
    },
    {
      "anonymous": false,
      "inputs": [
        {
          "indexed": true,
          "internalType": "address",
          "name": "user",
          "type": "address"
        },
        {
          "indexed": true,
          "internalType": "uint256",
          "name": "pid",
          "type": "uint256"
        },
        {
          "indexed": false,
          "internalType": "uint256",
          "name": "amount",
          "type": "uint256"
        }
      ],
      "name": "Unstaked",
      "type": "event"
    },
    {
      "anonymous": false,
      "inputs": [
        {
          "indexed": true,
          "internalType": "uint256",
          "name": "pid",
          "type": "uint256"
        },
        {
          "indexed": false,
          "internalType": "uint256",
          "name": "amount",
          "type": "uint256"
        }
      ],
      "name": "WithdrawalOrUnstakeScheduled",
      "type": "event"
    },
    {
      "anonymous": false,
      "inputs": [
        {
          "indexed": true,
          "internalType": "address",
          "name": "referrer",
          "type": "address"
        },
        {
          "indexed": false,
          "internalType": "uint256",
          "name": "amount",
          "type": "uint256"
        }
      ],
      "name": "referralPaid",
      "type": "event"
    },
    {
      "anonymous": false,
      "inputs": [
        {
          "indexed": true,
          "internalType": "address",
          "name": "token",
          "type": "address"
        },
        {
          "indexed": true,
          "internalType": "bool",
          "name": "whitelisted",
          "type": "bool"
        }
      ],
      "name": "tokenWhitelistUpdated",
      "type": "event"
    },
    {
      "inputs": [],
      "name": "YEAR",
      "outputs": [
        {
          "internalType": "uint256",
          "name": "",
          "type": "uint256"
        }
      ],
      "stateMutability": "view",
      "type": "function"
    },
    {
      "inputs": [],
      "name": "acceptOwnershipTransfer",
      "outputs": [],
      "stateMutability": "nonpayable",
      "type": "function"
    },
    {
      "inputs": [
        {
          "internalType": "uint256",
          "name": "",
          "type": "uint256"
        }
      ],
      "name": "activeStrategies",
      "outputs": [
        {
          "internalType": "bytes32",
          "name": "",
          "type": "bytes32"
        }
      ],
      "stateMutability": "view",
      "type": "function"
    },
    {
      "inputs": [
        {
          "internalType": "uint256",
          "name": "",
          "type": "uint256"
        }
      ],
      "name": "activeTokens",
      "outputs": [
        {
          "internalType": "address",
          "name": "",
          "type": "address"
        }
      ],
      "stateMutability": "view",
      "type": "function"
    },
    {
      "inputs": [
        {
          "internalType": "address",
          "name": "to",
          "type": "address"
        },
        {
          "internalType": "uint256",
          "name": "tokenId",
          "type": "uint256"
        }
      ],
      "name": "approve",
      "outputs": [],
      "stateMutability": "nonpayable",
      "type": "function"
    },
    {
      "inputs": [
        {
          "internalType": "address",
          "name": "owner",
          "type": "address"
        }
      ],
      "name": "balanceOf",
      "outputs": [
        {
          "internalType": "uint256",
          "name": "",
          "type": "uint256"
        }
      ],
      "stateMutability": "view",
      "type": "function"
    },
    {
      "inputs": [
        {
          "internalType": "uint256",
          "name": "_poolCap",
          "type": "uint256"
        },
        {
          "internalType": "uint256",
          "name": "_apy",
          "type": "uint256"
        }
      ],
      "name": "calcRequiredPremiumBalancePerPeriod",
      "outputs": [
        {
          "internalType": "uint256",
          "name": "requiredPremiumBalance",
          "type": "uint256"
        }
      ],
      "stateMutability": "pure",
      "type": "function"
    },
    {
      "inputs": [
        {
          "internalType": "uint256",
          "name": "_pid",
          "type": "uint256"
        },
        {
          "internalType": "uint256",
          "name": "_stake",
          "type": "uint256"
        },
        {
          "internalType": "uint256",
          "name": "_x",
          "type": "uint256"
        }
      ],
      "name": "calculateEffectiveAPY",
      "outputs": [
        {
          "internalType": "uint256",
          "name": "scaledAPY",
          "type": "uint256"
        }
      ],
      "stateMutability": "view",
      "type": "function"
    },
    {
      "inputs": [
        {
          "internalType": "uint256",
          "name": "_tokenId",
          "type": "uint256"
        }
      ],
      "name": "claimPremium",
      "outputs": [],
      "stateMutability": "nonpayable",
      "type": "function"
    },
    {
      "inputs": [
        {
          "internalType": "uint256",
          "name": "_pid",
          "type": "uint256"
        }
      ],
      "name": "consolidate",
      "outputs": [],
      "stateMutability": "nonpayable",
      "type": "function"
    },
    {
      "inputs": [],
      "name": "consolidateAll",
      "outputs": [],
      "stateMutability": "nonpayable",
      "type": "function"
    },
    {
      "inputs": [
        {
          "internalType": "address",
          "name": "_owner",
          "type": "address"
        }
      ],
      "name": "getAllTokensByOwner",
      "outputs": [
        {
          "components": [
            {
              "internalType": "uint256",
              "name": "pid",
              "type": "uint256"
            },
            {
              "internalType": "uint256",
              "name": "amount",
              "type": "uint256"
            },
            {
              "internalType": "uint256",
              "name": "xDelta",
              "type": "uint256"
            },
            {
              "internalType": "uint256",
              "name": "apy",
              "type": "uint256"
            },
            {
              "internalType": "uint256",
              "name": "unclaimed",
              "type": "uint256"
            },
            {
              "internalType": "uint256",
              "name": "lastClaimedTime",
              "type": "uint256"
            },
            {
              "internalType": "uint256",
              "name": "timelock",
              "type": "uint256"
            },
            {
              "internalType": "uint256",
              "name": "timelimit",
              "type": "uint256"
            },
            {
              "internalType": "bool",
              "name": "hasUnstaked",
              "type": "bool"
            }
          ],
          "internalType": "struct ISaloon.NFTInfo[]",
          "name": "userTokens",
          "type": "tuple[]"
        }
      ],
      "stateMutability": "view",
      "type": "function"
    },
    {
      "inputs": [
        {
          "internalType": "uint256",
          "name": "tokenId",
          "type": "uint256"
        }
      ],
      "name": "getApproved",
      "outputs": [
        {
          "internalType": "address",
          "name": "",
          "type": "address"
        }
      ],
      "stateMutability": "view",
      "type": "function"
    },
    {
      "inputs": [
        {
          "internalType": "uint256",
          "name": "_pid",
          "type": "uint256"
        }
      ],
      "name": "getCurrentAPY",
      "outputs": [
        {
          "internalType": "uint256",
          "name": "currentAPY",
          "type": "uint256"
        }
      ],
      "stateMutability": "view",
      "type": "function"
    },
    {
      "inputs": [],
      "name": "index",
      "outputs": [
        {
          "internalType": "uint256",
          "name": "",
          "type": "uint256"
        }
      ],
      "stateMutability": "view",
      "type": "function"
    },
    {
      "inputs": [],
      "name": "initialize",
      "outputs": [],
      "stateMutability": "nonpayable",
      "type": "function"
    },
    {
      "inputs": [
        {
          "internalType": "address",
          "name": "owner",
          "type": "address"
        },
        {
          "internalType": "address",
          "name": "operator",
          "type": "address"
        }
      ],
      "name": "isApprovedForAll",
      "outputs": [
        {
          "internalType": "bool",
          "name": "",
          "type": "bool"
        }
      ],
      "stateMutability": "view",
      "type": "function"
    },
    {
      "inputs": [
        {
          "internalType": "address",
          "name": "",
          "type": "address"
        }
      ],
      "name": "minTokenStakeAmount",
      "outputs": [
        {
          "internalType": "uint256",
          "name": "",
          "type": "uint256"
        }
      ],
      "stateMutability": "view",
      "type": "function"
    },
    {
      "inputs": [],
      "name": "name",
      "outputs": [
        {
          "internalType": "string",
          "name": "",
          "type": "string"
        }
      ],
      "stateMutability": "view",
      "type": "function"
    },
    {
      "inputs": [
        {
          "internalType": "uint256",
          "name": "",
          "type": "uint256"
        }
      ],
      "name": "nftInfo",
      "outputs": [
        {
          "internalType": "uint256",
          "name": "pid",
          "type": "uint256"
        },
        {
          "internalType": "uint256",
          "name": "amount",
          "type": "uint256"
        },
        {
          "internalType": "uint256",
          "name": "xDelta",
          "type": "uint256"
        },
        {
          "internalType": "uint256",
          "name": "apy",
          "type": "uint256"
        },
        {
          "internalType": "uint256",
          "name": "unclaimed",
          "type": "uint256"
        },
        {
          "internalType": "uint256",
          "name": "lastClaimedTime",
          "type": "uint256"
        },
        {
          "internalType": "uint256",
          "name": "timelock",
          "type": "uint256"
        },
        {
          "internalType": "uint256",
          "name": "timelimit",
          "type": "uint256"
        },
        {
          "internalType": "bool",
          "name": "hasUnstaked",
          "type": "bool"
        }
      ],
      "stateMutability": "view",
      "type": "function"
    },
    {
      "inputs": [],
      "name": "owner",
      "outputs": [
        {
          "internalType": "address",
          "name": "",
          "type": "address"
        }
      ],
      "stateMutability": "view",
      "type": "function"
    },
    {
      "inputs": [
        {
          "internalType": "uint256",
          "name": "tokenId",
          "type": "uint256"
        }
      ],
      "name": "ownerOf",
      "outputs": [
        {
          "internalType": "address",
          "name": "",
          "type": "address"
        }
      ],
      "stateMutability": "view",
      "type": "function"
    },
    {
      "inputs": [
        {
          "internalType": "uint256",
          "name": "__pid",
          "type": "uint256"
        },
        {
          "internalType": "address",
          "name": "_hunter",
          "type": "address"
        },
        {
          "internalType": "uint16",
          "name": "_payoutBPS",
          "type": "uint16"
        },
        {
          "internalType": "uint16",
          "name": "_hunterBonusBPS",
          "type": "uint16"
        }
      ],
      "name": "payBounty",
      "outputs": [],
      "stateMutability": "nonpayable",
      "type": "function"
    },
    {
      "inputs": [
        {
          "internalType": "uint256",
          "name": "_pid",
          "type": "uint256"
        },
        {
          "internalType": "address",
          "name": "_hunter",
          "type": "address"
        },
        {
          "internalType": "uint16",
          "name": "_payoutBPS",
          "type": "uint16"
        },
        {
          "internalType": "uint16",
          "name": "_hunterBonusBPS",
          "type": "uint16"
        }
      ],
      "name": "payBountyDuringAssessment",
      "outputs": [],
      "stateMutability": "nonpayable",
      "type": "function"
    },
    {
      "inputs": [
        {
          "internalType": "uint256",
          "name": "",
          "type": "uint256"
        },
        {
          "internalType": "uint256",
          "name": "",
          "type": "uint256"
        }
      ],
      "name": "pidNFTList",
      "outputs": [
        {
          "internalType": "uint256",
          "name": "",
          "type": "uint256"
        }
      ],
      "stateMutability": "view",
      "type": "function"
    },
    {
      "inputs": [
        {
          "internalType": "uint256",
          "name": "",
          "type": "uint256"
        },
        {
          "internalType": "bytes32",
          "name": "",
          "type": "bytes32"
        }
      ],
      "name": "pidStrategies",
      "outputs": [
        {
          "internalType": "address",
          "name": "",
          "type": "address"
        }
      ],
      "stateMutability": "view",
      "type": "function"
    },
    {
      "inputs": [
        {
          "internalType": "uint256",
          "name": "",
          "type": "uint256"
        }
      ],
      "name": "poolInfo",
      "outputs": [
        {
          "components": [
            {
              "internalType": "contract IERC20",
              "name": "token",
              "type": "address"
            },
            {
              "internalType": "uint8",
              "name": "tokenDecimals",
              "type": "uint8"
            },
            {
              "internalType": "uint16",
              "name": "apy",
              "type": "uint16"
            },
            {
              "internalType": "address",
              "name": "projectWallet",
              "type": "address"
            },
            {
              "internalType": "string",
              "name": "projectName",
              "type": "string"
            },
            {
              "internalType": "uint256",
              "name": "poolCap",
              "type": "uint256"
            },
            {
              "internalType": "uint256",
              "name": "totalStaked",
              "type": "uint256"
            },
            {
              "internalType": "uint256",
              "name": "scalingMultiplier",
              "type": "uint256"
            }
          ],
          "internalType": "struct ISaloon.GeneralInfo",
          "name": "generalInfo",
          "type": "tuple"
        },
        {
          "components": [
            {
              "internalType": "uint256",
              "name": "projectDepositHeld",
              "type": "uint256"
            },
            {
              "internalType": "uint256",
              "name": "projectDepositInStrategy",
              "type": "uint256"
            }
          ],
          "internalType": "struct ISaloon.DepositInfo",
          "name": "depositInfo",
          "type": "tuple"
        },
        {
          "components": [
            {
              "internalType": "uint256",
              "name": "premiumBalance",
              "type": "uint256"
            },
            {
              "internalType": "uint256",
              "name": "premiumAvailable",
              "type": "uint256"
            }
          ],
          "internalType": "struct ISaloon.PremiumInfo",
          "name": "premiumInfo",
          "type": "tuple"
        },
        {
          "components": [
            {
              "internalType": "uint256",
              "name": "timelock",
              "type": "uint256"
            },
            {
              "internalType": "uint256",
              "name": "timeLimit",
              "type": "uint256"
            },
            {
              "internalType": "uint256",
              "name": "withdrawalScheduledAmount",
              "type": "uint256"
            },
            {
              "internalType": "bool",
              "name": "withdrawalExecuted",
              "type": "bool"
            }
          ],
          "internalType": "struct ISaloon.TimelockInfo",
          "name": "poolTimelock",
          "type": "tuple"
        },
        {
          "components": [
            {
              "internalType": "uint256",
              "name": "currentX",
              "type": "uint256"
            },
            {
              "internalType": "uint256",
              "name": "currentY",
              "type": "uint256"
            },
            {
              "internalType": "uint256",
              "name": "totalSupply",
              "type": "uint256"
            },
            {
              "internalType": "uint256[]",
              "name": "unstakedTokens",
              "type": "uint256[]"
            }
          ],
          "internalType": "struct ISaloon.CurveInfo",
          "name": "curveInfo",
          "type": "tuple"
        },
        {
          "components": [
            {
              "internalType": "address",
              "name": "referrer",
              "type": "address"
            },
            {
              "internalType": "uint256",
              "name": "referralFee",
              "type": "uint256"
            },
            {
              "internalType": "uint256",
              "name": "endTime",
              "type": "uint256"
            }
          ],
          "internalType": "struct ISaloon.ReferralInfo",
          "name": "referralInfo",
          "type": "tuple"
        },
        {
          "internalType": "uint256",
          "name": "assessmentPeriodEnd",
          "type": "uint256"
        },
        {
          "internalType": "uint256",
          "name": "freezeTime",
          "type": "uint256"
        },
        {
          "internalType": "bool",
          "name": "isActive",
          "type": "bool"
        }
      ],
      "stateMutability": "view",
      "type": "function"
    },
    {
      "inputs": [
        {
          "internalType": "address",
          "name": "_token",
          "type": "address"
        },
        {
          "internalType": "uint256",
          "name": "_amount",
          "type": "uint256"
        }
      ],
      "name": "receiveStrategyYield",
      "outputs": [],
      "stateMutability": "nonpayable",
      "type": "function"
    },
    {
      "inputs": [
        {
          "internalType": "address",
          "name": "",
          "type": "address"
        },
        {
          "internalType": "address",
          "name": "",
          "type": "address"
        }
      ],
      "name": "referralBalances",
      "outputs": [
        {
          "internalType": "uint256",
          "name": "",
          "type": "uint256"
        }
      ],
      "stateMutability": "view",
      "type": "function"
    },
    {
      "inputs": [
        {
          "internalType": "address",
          "name": "from",
          "type": "address"
        },
        {
          "internalType": "address",
          "name": "to",
          "type": "address"
        },
        {
          "internalType": "uint256",
          "name": "tokenId",
          "type": "uint256"
        }
      ],
      "name": "safeTransferFrom",
      "outputs": [],
      "stateMutability": "nonpayable",
      "type": "function"
    },
    {
      "inputs": [
        {
          "internalType": "address",
          "name": "from",
          "type": "address"
        },
        {
          "internalType": "address",
          "name": "to",
          "type": "address"
        },
        {
          "internalType": "uint256",
          "name": "tokenId",
          "type": "uint256"
        },
        {
          "internalType": "bytes",
          "name": "data",
          "type": "bytes"
        }
      ],
      "name": "safeTransferFrom",
      "outputs": [],
      "stateMutability": "nonpayable",
      "type": "function"
    },
    {
      "inputs": [],
      "name": "saloonBounty",
      "outputs": [
        {
          "internalType": "contract ISaloonBounty",
          "name": "",
          "type": "address"
        }
      ],
      "stateMutability": "view",
      "type": "function"
    },
    {
      "inputs": [
        {
          "internalType": "address",
          "name": "",
          "type": "address"
        }
      ],
      "name": "saloonBountyProfit",
      "outputs": [
        {
          "internalType": "uint256",
          "name": "",
          "type": "uint256"
        }
      ],
      "stateMutability": "view",
      "type": "function"
    },
    {
      "inputs": [],
      "name": "saloonManager",
      "outputs": [
        {
          "internalType": "contract ISaloonManager",
          "name": "",
          "type": "address"
        }
      ],
      "stateMutability": "view",
      "type": "function"
    },
    {
      "inputs": [
        {
          "internalType": "address",
          "name": "",
          "type": "address"
        }
      ],
      "name": "saloonPremiumProfit",
      "outputs": [
        {
          "internalType": "uint256",
          "name": "",
          "type": "uint256"
        }
      ],
      "stateMutability": "view",
      "type": "function"
    },
    {
      "inputs": [],
      "name": "saloonProjectPortal",
      "outputs": [
        {
          "internalType": "contract ISaloonProjectPortal",
          "name": "",
          "type": "address"
        }
      ],
      "stateMutability": "view",
      "type": "function"
    },
    {
      "inputs": [
        {
          "internalType": "address",
          "name": "",
          "type": "address"
        }
      ],
      "name": "saloonStrategyProfit",
      "outputs": [
        {
          "internalType": "uint256",
          "name": "",
          "type": "uint256"
        }
      ],
      "stateMutability": "view",
      "type": "function"
    },
    {
      "inputs": [],
      "name": "saloonView",
      "outputs": [
        {
          "internalType": "contract ISaloonView",
          "name": "",
          "type": "address"
        }
      ],
      "stateMutability": "view",
      "type": "function"
    },
    {
      "inputs": [
        {
          "internalType": "uint256",
          "name": "_tokenId",
          "type": "uint256"
        }
      ],
      "name": "scheduleUnstake",
      "outputs": [
        {
          "internalType": "bool",
          "name": "",
          "type": "bool"
        }
      ],
      "stateMutability": "nonpayable",
      "type": "function"
    },
    {
      "inputs": [
        {
          "internalType": "address",
          "name": "operator",
          "type": "address"
        },
        {
          "internalType": "bool",
          "name": "approved",
          "type": "bool"
        }
      ],
      "name": "setApprovalForAll",
      "outputs": [],
      "stateMutability": "nonpayable",
      "type": "function"
    },
    {
      "inputs": [
        {
          "internalType": "uint256",
          "name": "_pid",
          "type": "uint256"
        },
        {
          "internalType": "uint256",
          "name": "_amount",
          "type": "uint256"
        }
      ],
      "name": "stake",
      "outputs": [
        {
          "internalType": "uint256",
          "name": "",
          "type": "uint256"
        }
      ],
      "stateMutability": "nonpayable",
      "type": "function"
    },
    {
      "inputs": [
        {
          "internalType": "address",
          "name": "",
          "type": "address"
        }
      ],
      "name": "strategyAddressToPid",
      "outputs": [
        {
          "internalType": "uint256",
          "name": "",
          "type": "uint256"
        }
      ],
      "stateMutability": "view",
      "type": "function"
    },
    {
      "inputs": [],
      "name": "strategyFactory",
      "outputs": [
        {
          "internalType": "contract IStrategyFactory",
          "name": "",
          "type": "address"
        }
      ],
      "stateMutability": "view",
      "type": "function"
    },
    {
      "inputs": [
        {
          "internalType": "bytes4",
          "name": "interfaceId",
          "type": "bytes4"
        }
      ],
      "name": "supportsInterface",
      "outputs": [
        {
          "internalType": "bool",
          "name": "",
          "type": "bool"
        }
      ],
      "stateMutability": "view",
      "type": "function"
    },
    {
      "inputs": [],
      "name": "symbol",
      "outputs": [
        {
          "internalType": "string",
          "name": "",
          "type": "string"
        }
      ],
      "stateMutability": "view",
      "type": "function"
    },
    {
      "inputs": [
        {
          "internalType": "uint256",
          "name": "tokenId",
          "type": "uint256"
        }
      ],
      "name": "tokenURI",
      "outputs": [
        {
          "internalType": "string",
          "name": "",
          "type": "string"
        }
      ],
      "stateMutability": "view",
      "type": "function"
    },
    {
      "inputs": [
        {
          "internalType": "address",
          "name": "",
          "type": "address"
        }
      ],
      "name": "tokenWhitelist",
      "outputs": [
        {
          "internalType": "bool",
          "name": "",
          "type": "bool"
        }
      ],
      "stateMutability": "view",
      "type": "function"
    },
    {
      "inputs": [
        {
          "internalType": "address",
          "name": "from",
          "type": "address"
        },
        {
          "internalType": "address",
          "name": "to",
          "type": "address"
        },
        {
          "internalType": "uint256",
          "name": "tokenId",
          "type": "uint256"
        }
      ],
      "name": "transferFrom",
      "outputs": [],
      "stateMutability": "nonpayable",
      "type": "function"
    },
    {
      "inputs": [
        {
          "internalType": "address",
          "name": "newOwner",
          "type": "address"
        }
      ],
      "name": "transferOwnership",
      "outputs": [],
      "stateMutability": "nonpayable",
      "type": "function"
    },
    {
      "inputs": [
        {
          "internalType": "uint256",
          "name": "_tokenId",
          "type": "uint256"
        },
        {
          "internalType": "bool",
          "name": "_shouldHarvest",
          "type": "bool"
        }
      ],
      "name": "unstake",
      "outputs": [
        {
          "internalType": "bool",
          "name": "",
          "type": "bool"
        }
      ],
      "stateMutability": "nonpayable",
      "type": "function"
    },
    {
      "inputs": [
        {
          "internalType": "uint256",
          "name": "_pid",
          "type": "uint256"
        }
      ],
      "name": "viewBountyBalance",
      "outputs": [
        {
          "internalType": "uint256",
          "name": "",
          "type": "uint256"
        }
      ],
      "stateMutability": "view",
      "type": "function"
    },
    {
      "inputs": [
        {
          "internalType": "uint256",
          "name": "_pid",
          "type": "uint256"
        }
      ],
      "name": "withdrawRemainingAPY",
      "outputs": [],
      "stateMutability": "nonpayable",
      "type": "function"
    }
  ],
  "bytecode": {
    "object": "0x60806040523480156200001157600080fd5b50601254610100900460ff1615808015620000335750601254600160ff909116105b8062000063575062000050306200018e60201b620037301760201c565b15801562000063575060125460ff166001145b620000cc5760405162461bcd60e51b815260206004820152602e60248201527f496e697469616c697a61626c653a20636f6e747261637420697320616c72656160448201526d191e481a5b9a5d1a585b1a5e995960921b60648201526084015b60405180910390fd5b6012805460ff191660011790558015620000f0576012805461ff0019166101001790555b620001406040518060400160405280600b81526020016a2137bab73a3caa37b5b2b760a91b8152506040518060400160405280600381526020016210951560ea1b8152506200019d60201b60201c565b801562000187576012805461ff0019169055604051600181527f7f26b83ff96e1f2b6a682f133852f6798a09c465da95921460cefb38474024989060200160405180910390a15b50620003f7565b6001600160a01b03163b151590565b601254610100900460ff16620001f95760405162461bcd60e51b815260206004820152602b602482015260008051602062005f0483398151915260448201526a6e697469616c697a696e6760a81b6064820152608401620000c3565b62000205828262000209565b5050565b601254610100900460ff16620002655760405162461bcd60e51b815260206004820152602b602482015260008051602062005f0483398151915260448201526a6e697469616c697a696e6760a81b6064820152608401620000c3565b60776200027383826200032b565b5060786200028282826200032b565b505050565b634e487b7160e01b600052604160045260246000fd5b600181811c90821680620002b257607f821691505b602082108103620002d357634e487b7160e01b600052602260045260246000fd5b50919050565b601f8211156200028257600081815260208120601f850160051c81016020861015620003025750805b601f850160051c820191505b8181101562000323578281556001016200030e565b505050505050565b81516001600160401b0381111562000347576200034762000287565b6200035f816200035884546200029d565b84620002d9565b602080601f8311600181146200039757600084156200037e5750858301515b600019600386901b1c1916600185901b17855562000323565b600085815260208120601f198616915b82811015620003c857888601518255948401946001909101908401620003a7565b5085821015620003e75787850151600019600388901b60f8161c191681555b5050505050600190811b01905550565b615afd80620004076000396000f3fe608060405234801561001057600080fd5b506004361061030c5760003560e01c80637fbf38531161019d578063a22cb465116100e9578063cfd54bfa116100a2578063e985e9c51161007c578063e985e9c5146107db578063e9fda7d414610817578063f2fde38b14610837578063f47ec3be1461084a57600080fd5b8063cfd54bfa14610795578063d075afac146107a8578063e45abd0f146107bb57600080fd5b8063a22cb46514610714578063b20b242914610727578063b842e87f14610747578063b88d4fde1461074f578063c87b56dd14610762578063ca0061481461077557600080fd5b8063949a4a4a1161015657806396ea48e81161013057806396ea48e8146106c85780639ebea88c146106db5780639ef35710146106ee5780639f224f351461070157600080fd5b8063949a4a4a1461068d578063957deecc146106a057806395d89b41146106c057600080fd5b80637fbf3853146106305780638129fc1c1461064357806381c6f1a71461064b578063836ef1fa1461065e57806383914540146106715780638da5cb5b1461067c57600080fd5b8063277fd2a11161025c5780636352211e11610215578063753d7563116101ef578063753d7563146105df57806375bfd63d14610602578063799238981461060a5780637b0472f01461061d57600080fd5b80636352211e146105a65780636ac6d812146105b957806370a08231146105cc57600080fd5b8063277fd2a1146105245780632986c0e514610537578063394587231461054057806342842e0e146105605780634ef19f6314610573578063598d17bf1461058657600080fd5b80630a07f543116102c95780631aebcecb116102a35780631aebcecb146104495780631f8bc7901461045b578063220e1124146104fe57806323b872dd1461051157600080fd5b80630a07f543146103fb578063106d08df1461040e5780631526fe271461042157600080fd5b8063011b408b1461031157806301ffc9a71461034f57806306fdde0314610372578063074ecf0314610387578063081812fc146103d3578063095ea7b3146103e6575b600080fd5b61033c61031f36600461516b565b600a60209081526000928352604080842090915290825290205481565b6040519081526020015b60405180910390f35b61036261035d3660046151ba565b61085d565b6040519015158152602001610346565b61037a6108af565b6040516103469190615227565b6103bb61039536600461523a565b600c6020908152600092835260408084209091529082529020546001600160a01b031681565b6040516001600160a01b039091168152602001610346565b6103bb6103e136600461525c565b610941565b6103f96103f4366004615275565b610968565b005b6003546103bb906001600160a01b031681565b61036261041c36600461525c565b610a82565b61043461042f36600461525c565b610b71565b6040516103469998979695949392919061530c565b6103f9610457366004615275565b5050565b6104b861046936600461525c565b6005602081905260009182526040909120805460018201546002830154600384015460048501549585015460068601546007870154600890970154959794969395929493919290919060ff1689565b60408051998a5260208a0198909852968801959095526060870193909352608086019190915260a085015260c084015260e0830152151561010082015261012001610346565b6000546103bb906001600160a01b031681565b6103f961051f36600461544f565b610dd2565b6001546103bb906001600160a01b031681565b61033c607d5481565b61033c61054e366004615490565b60116020526000908152604090205481565b6103f961056e36600461544f565b610e03565b6103f961058136600461525c565b610e1e565b61033c610594366004615490565b60096020526000908152604090205481565b6103bb6105b436600461525c565b611490565b61033c6105c736600461525c565b6114f0565b61033c6105da366004615490565b6117a8565b6103626105ed366004615490565b600f6020526000908152604090205460ff1681565b6103f961182e565b6002546103bb906001600160a01b031681565b61033c61062b36600461523a565b611855565b61033c61063e36600461525c565b611cd0565b6103f9611fe6565b61033c6106593660046154ad565b6120f7565b61033c61066c36600461523a565b6123d9565b61033c6301e1338081565b60ab546001600160a01b03166103bb565b6103f961069b36600461525c565b61240f565b61033c6106ae366004615490565b600e6020526000908152604090205481565b61037a612847565b61033c6106d636600461523a565b612856565b6103626106e93660046154e7565b612887565b600b546103bb906001600160a01b031681565b6103bb61070f36600461525c565b612ac0565b6103f961072236600461550c565b612aea565b61033c61073536600461525c565b600d6020526000908152604090205481565b6103f9612af5565b6103f961075d366004615550565b612b75565b61037a61077036600461525c565b612bad565b61033c610783366004615490565b60086020526000908152604090205481565b6103f96107a3366004615642565b612c20565b6103f96107b6366004615642565b612f58565b61033c6107c9366004615490565b60076020526000908152604090205481565b6103626107e936600461516b565b6001600160a01b039182166000908152607c6020908152604080832093909416825291909152205460ff1690565b61082a610825366004615490565b61349a565b6040516103469190615691565b6103f9610845366004615490565b61363d565b6103f961085836600461525c565b6136cc565b60006001600160e01b031982166380ac58cd60e01b148061088e57506001600160e01b03198216635b5e139f60e01b145b806108a957506301ffc9a760e01b6001600160e01b03198316145b92915050565b6060607780546108be9061571e565b80601f01602080910402602001604051908101604052809291908181526020018280546108ea9061571e565b80156109375780601f1061090c57610100808354040283529160200191610937565b820191906000526020600020905b81548152906001019060200180831161091a57829003601f168201915b5050505050905090565b600061094c8261373f565b506000908152607b60205260409020546001600160a01b031690565b600061097382611490565b9050806001600160a01b0316836001600160a01b0316036109e55760405162461bcd60e51b815260206004820152602160248201527f4552433732313a20617070726f76616c20746f2063757272656e74206f776e656044820152603960f91b60648201526084015b60405180910390fd5b336001600160a01b0382161480610a015750610a0181336107e9565b610a735760405162461bcd60e51b815260206004820152603d60248201527f4552433732313a20617070726f76652063616c6c6572206973206e6f7420746f60448201527f6b656e206f776e6572206f7220617070726f76656420666f7220616c6c00000060648201526084016109dc565b610a7d838361379e565b505050565b6000610a8c61380c565b610a963383613865565b610ad85760405162461bcd60e51b815260206004820152601360248201527239b2b73232b91034b9903737ba1037bbb732b960691b60448201526064016109dc565b60008281526005602052604081208054600382019290925590610afe62093a804261576e565b6006830155610b1062093a804261576e565b610b1d906203f48061576e565b6007830155600182015460405190815281907fb3b9c925de3673837b40c6b4d4463a8f88dc821cd27e07f1ff6bf6abf96413a59060200160405180910390a2600192505050610b6c600160de55565b919050565b60048181548110610b8157600080fd5b60009182526020918290206040805161010081018252601890930290910180546001600160a01b03808216855260ff600160a01b8304169585019590955261ffff600160a81b909104169183019190915260018101549092166060820152600282018054929350909183916080840191610bfa9061571e565b80601f0160208091040260200160405190810160405280929190818152602001828054610c269061571e565b8015610c735780601f10610c4857610100808354040283529160200191610c73565b820191906000526020600020905b815481529060010190602001808311610c5657829003601f168201915b50505091835250506003820154602080830191909152600483015460408084019190915260059093015460609283015282518084018452600686015481526007860154818301528351808501855260088701548152600987015481840152845160808082018752600a8901548252600b89015482860152600c89015482880152600d89015460ff1615158287015286519081018752600e890180548252600f8a01548287015260108a01548289015260118a018054895181890281018901909a52808a52999a9599949893979596929591949186019392909190830182828015610d7c57602002820191906000526020600020905b815481526020019060010190808311610d68575b5050509190925250506040805160608101825260128501546001600160a01b0316815260138501546020820152601485015491810191909152601584015460168501546017909501549394919390925060ff1689565b610ddc3382613865565b610df85760405162461bcd60e51b81526004016109dc90615781565b610a7d8383836138e4565b610a7d83838360405180602001604052806000815250612b75565b80600060048281548110610e3457610e346157ce565b6000918252602090912060408051610220810190915260189092020180546001600160a01b038082166101208501908152600160a01b830460ff16610140860152600160a81b90920461ffff1661016085015260018301541661018084015260028201805484929184916101a085019190610eae9061571e565b80601f0160208091040260200160405190810160405280929190818152602001828054610eda9061571e565b8015610f275780601f10610efc57610100808354040283529160200191610f27565b820191906000526020600020905b815481529060010190602001808311610f0a57829003601f168201915b505050918352505060038201546020808301919091526004830154604080840191909152600590930154606092830152928452815180830183526006860154815260078601548185015284840152815180830183526008860154815260098601548185015284830152815160808082018452600a8701548252600b87015482860152600c87015482850152600d87015460ff161515828401528583019190915282518082018452600e870180548252600f8801548287015260108801548286015260118801805486518189028101890190975280875293909701969195909493860193929083018282801561103b57602002820191906000526020600020905b815481526020019060010190808311611027575b505050919092525050508152604080516060808201835260128501546001600160a01b039081168352601386015460208085019190915260148701548486015285019290925260158501549284019290925260168401548284015260179093015460ff16151560809092019190915282510151919250163314806110c9575060ab546001600160a01b031633145b6111065760405162461bcd60e51b815260206004820152600e60248201526d139bdd08185d5d1a1bdc9a5e995960921b60448201526064016109dc565b60006004848154811061111b5761111b6157ce565b6000918252602090912060408051610220810190915260189092020180546001600160a01b038082166101208501908152600160a01b830460ff16610140860152600160a81b90920461ffff1661016085015260018301541661018084015260028201805484929184916101a0850191906111959061571e565b80601f01602080910402602001604051908101604052809291908181526020018280546111c19061571e565b801561120e5780601f106111e35761010080835404028352916020019161120e565b820191906000526020600020905b8154815290600101906020018083116111f157829003601f168201915b505050918352505060038201546020808301919091526004830154604080840191909152600590930154606092830152928452815180830183526006860154815260078601548185015284840152815180830183526008860154815260098601548185015284830152815160808082018452600a8701548252600b87015482860152600c87015482850152600d87015460ff161515828401528583019190915282518082018452600e870180548252600f8801548287015260108801548286015260118801805486518189028101890190975280875293909701969195909493860193929083018282801561132257602002820191906000526020600020905b81548152602001906001019080831161130e575b505050919092525050508152604080516060808201835260128501546001600160a01b03168252601385015460208381019190915260148601548385015284019190915260158401549183019190915260168301549082015260179091015460ff161515608090910152610100810151909150156113e25760405162461bcd60e51b815260206004820152601860248201527f506f6f6c206d757374206265206465616374697661746564000000000000000060448201526064016109dc565b600084815260066020526040812054905b8181101561143957600086815260066020526040812080548390811061141b5761141b6157ce565b90600052602060002001549050611433816001613a53565b506113f3565b5081516060810151604084015151915161145f926001600160a01b039091169190613c34565b50600060048681548110611475576114756157ce565b60009182526020909120600860189092020101555050505050565b6000818152607960205260408120546001600160a01b0316806108a95760405162461bcd60e51b8152602060048201526018602482015277115490cdcc8c4e881a5b9d985b1a59081d1bdad95b88125160421b60448201526064016109dc565b60008060048381548110611506576115066157ce565b6000918252602090912060408051610220810190915260189092020180546001600160a01b038082166101208501908152600160a01b830460ff16610140860152600160a81b90920461ffff1661016085015260018301541661018084015260028201805484929184916101a0850191906115809061571e565b80601f01602080910402602001604051908101604052809291908181526020018280546115ac9061571e565b80156115f95780601f106115ce576101008083540402835291602001916115f9565b820191906000526020600020905b8154815290600101906020018083116115dc57829003601f168201915b505050918352505060038201546020808301919091526004830154604080840191909152600590930154606092830152928452815180830183526006860154815260078601548185015284840152815180830183526008860154815260098601548185015284830152815160808082018452600a8701548252600b87015482860152600c87015482850152600d87015460ff161515828401528583019190915282518082018452600e870180548252600f8801548287015260108801548286015260118801805486518189028101890190975280875293909701969195909493860193929083018282801561170d57602002820191906000526020600020905b8154815260200190600101908083116116f9575b505050919092525050508152604080516060808201835260128501546001600160a01b0316825260138501546020838101919091526014860154838501528085019290925260158501549284019290925260168401549183019190915260179092015460ff161515608090910152818101519081015190519192506117919161576e565b815160c001516117a1919061576e565b9392505050565b60006001600160a01b0382166118125760405162461bcd60e51b815260206004820152602960248201527f4552433732313a2061646472657373207a65726f206973206e6f7420612076616044820152683634b21037bbb732b960b91b60648201526084016109dc565b506001600160a01b03166000908152607a602052604090205490565b60045460005b81811015610457576118458161240f565b61184e816157e4565b9050611834565b600061185f61380c565b82600060048281548110611875576118756157ce565b6000918252602090912060408051610220810190915260189092020180546001600160a01b038082166101208501908152600160a01b830460ff16610140860152600160a81b90920461ffff1661016085015260018301541661018084015260028201805484929184916101a0850191906118ef9061571e565b80601f016020809104026020016040519081016040528092919081815260200182805461191b9061571e565b80156119685780601f1061193d57610100808354040283529160200191611968565b820191906000526020600020905b81548152906001019060200180831161194b57829003601f168201915b505050918352505060038201546020808301919091526004830154604080840191909152600590930154606092830152928452815180830183526006860154815260078601548185015284840152815180830183526008860154815260098601548185015284830152815160808082018452600a8701548252600b87015482860152600c87015482850152600d87015460ff161515828401528583019190915282518082018452600e870180548252600f88015482870152601088015482860152601188018054865181890281018901909752808752939097019691959094938601939290830182828015611a7c57602002820191906000526020600020905b815481526020019060010190808311611a68575b505050919092525050508152604080516060808201835260128501546001600160a01b03168252601385015460208381019190915260148601548385015284019190915260158401549183019190915260168301549082015260179091015460ff161515608090910152610100810151909150611b2d5760405162461bcd60e51b815260206004820152600f60248201526e706f6f6c206e6f742061637469766560881b60448201526064016109dc565b600060048681548110611b4257611b426157ce565b60009182526020808320601890920290910180546001600160a01b031683526011909152604090912054909150851015611bb25760405162461bcd60e51b8152602060048201526011602482015270135a5b881cdd185ad9481b9bdd081b595d607a1b60448201526064016109dc565b6000611bbd876114f0565b8254909150611bd7906001600160a01b0316333089613ca4565b506000611be5883389613cea565b905086836000016004016000828254611bfe919061576e565b9091555050600383015460048401541115611c515760405162461bcd60e51b8152602060048201526013602482015272115e18d959591959081c1bdbdb081b1a5b5a5d606a1b60448201526064016109dc565b604051878152889033907f1449c6dd7851abc30abf37f57715f492010519147cc2652fbc38202c18a6ee909060200160405180910390a36000611c93896114f0565b60408051858152602081018390529192508a91600080516020615aa8833981519152910160405180910390a2509450505050506108a9600160de55565b60008060048381548110611ce657611ce66157ce565b6000918252602090912060408051610220810190915260189092020180546001600160a01b038082166101208501908152600160a01b830460ff16610140860152600160a81b90920461ffff1661016085015260018301541661018084015260028201805484929184916101a085019190611d609061571e565b80601f0160208091040260200160405190810160405280929190818152602001828054611d8c9061571e565b8015611dd95780601f10611dae57610100808354040283529160200191611dd9565b820191906000526020600020905b815481529060010190602001808311611dbc57829003601f168201915b505050918352505060038201546020808301919091526004830154604080840191909152600590930154606092830152928452815180830183526006860154815260078601548185015284840152815180830183526008860154815260098601548185015284830152815160808082018452600a8701548252600b87015482860152600c87015482850152600d87015460ff161515828401528583019190915282518082018452600e870180548252600f88015482870152601088015482860152601188018054865181890281018901909752808752939097019691959094938601939290830182828015611eed57602002820191906000526020600020905b815481526020019060010190808311611ed9575b505050919092525050508152604080516060808201835260128501546001600160a01b03168252601385015460208084019190915260148601548385015284019190915260158401548284015260168401549083015260179092015460ff16151560809182015282015151825160e001519151632500225b60e11b815260048101829052602481018390529293509173__$4defa815a6c8401eda00ac6be9b95d3cdb$__90634a0044b6906044015b602060405180830381865af4158015611fb9573d6000803e3d6000fd5b505050506040513d601f19601f82011682018060405250810190611fdd91906157fd565b95945050505050565b601254610100900460ff16158080156120065750601254600160ff909116105b806120205750303b158015612020575060125460ff166001145b6120835760405162461bcd60e51b815260206004820152602e60248201527f496e697469616c697a61626c653a20636f6e747261637420697320616c72656160448201526d191e481a5b9a5d1a585b1a5e995960921b60648201526084016109dc565b6012805460ff1916600117905580156120a6576012805461ff0019166101001790555b6120ae613fee565b80156120f4576012805461ff0019169055604051600181527f7f26b83ff96e1f2b6a682f133852f6798a09c465da95921460cefb38474024989060200160405180910390a15b50565b6000806004858154811061210d5761210d6157ce565b6000918252602090912060408051610220810190915260189092020180546001600160a01b038082166101208501908152600160a01b830460ff16610140860152600160a81b90920461ffff1661016085015260018301541661018084015260028201805484929184916101a0850191906121879061571e565b80601f01602080910402602001604051908101604052809291908181526020018280546121b39061571e565b80156122005780601f106121d557610100808354040283529160200191612200565b820191906000526020600020905b8154815290600101906020018083116121e357829003601f168201915b505050918352505060038201546020808301919091526004830154604080840191909152600590930154606092830152928452815180830183526006860154815260078601548185015284840152815180830183526008860154815260098601548185015284830152815160808082018452600a8701548252600b87015482860152600c87015482850152600d87015460ff161515828401528583019190915282518082018452600e870180548252600f8801548287015260108801548286015260118801805486518189028101890190975280875293909701969195909493860193929083018282801561231457602002820191906000526020600020905b815481526020019060010190808311612300575b505050919092525050508152604080516060808201835260128501546001600160a01b03168252601385015460208084019190915260148601548385015284019190915260158401548284015260168401549083015260179092015460ff161515608090910152815160a081015160e0909101519151630d17449160e21b815260048101889052602481018790526044810191909152606481019190915290915073__$4defa815a6c8401eda00ac6be9b95d3cdb$__9063345d124490608401611f9c565b60006301e1338061271062093a806123f18587615816565b6123fb9190615816565b612405919061582d565b6117a1919061582d565b600060048281548110612424576124246157ce565b6000918252602090912060408051610220810190915260189092020180546001600160a01b038082166101208501908152600160a01b830460ff16610140860152600160a81b90920461ffff1661016085015260018301541661018084015260028201805484929184916101a08501919061249e9061571e565b80601f01602080910402602001604051908101604052809291908181526020018280546124ca9061571e565b80156125175780601f106124ec57610100808354040283529160200191612517565b820191906000526020600020905b8154815290600101906020018083116124fa57829003601f168201915b505050918352505060038201546020808301919091526004830154604080840191909152600590930154606092830152928452815180830183526006860154815260078601548185015284840152815180830183526008860154815260098601548185015284830152815160808082018452600a8701548252600b87015482860152600c87015482850152600d87015460ff161515828401528583019190915282518082018452600e870180548252600f8801548287015260108801548286015260118801805486518189028101890190975280875293909701969195909493860193929083018282801561262b57602002820191906000526020600020905b815481526020019060010190808311612617575b505050919092525050508152604080516060808201835260128501546001600160a01b03168252601385015460208381019190915260148601548385015284019190915260158401549183019190915260168301548183015260179092015460ff16151560809182015282015101518051919250908015806126b05750826101000151155b156126bb5750505050565b60005b818110156126f8576126e88382815181106126db576126db6157ce565b602002602001015161401d565b6126f1816157e4565b90506126be565b5060008481526006602090815260408083208054825181850281018501909352808352919290919083018282801561274f57602002820191906000526020600020905b81548152602001906001019080831161273b575b5050835193945060009250829150505b828110156127e157600084828151811061277b5761277b6157ce565b6020026020010151905060006005600083815260200190815260200160002090506127a7826000613a53565b60018101546127b78b82876120f7565b600383015560028201546127cb908661576e565b9450505050806127da906157e4565b905061275f565b5080600488815481106127f6576127f66157ce565b6000918252602090912060106018909202010155600480548890811061281e5761281e6157ce565b9060005260206000209060180201600e01600301600061283e919061508a565b50505050505050565b6060607880546108be9061571e565b6006602052816000526040600020818154811061287257600080fd5b90600052602060002001600091509150505481565b600061289161380c565b61289b3384613865565b6128dd5760405162461bcd60e51b815260206004820152601360248201527239b2b73232b91034b9903737ba1037bbb732b960691b60448201526064016109dc565b60008381526005602052604081208054600480549293919283908110612905576129056157ce565b906000526020600020906018020190504281601501541115612995574283600601541080156129375750428360070154115b6129955760405162461bcd60e51b815260206004820152602960248201527f54696d656c6f636b206e6f7420736574206f72206e6f7420636f6d706c6574656044820152686420696e2074696d6560b81b60648201526084016109dc565b61299f8686613a53565b6001830180546000918290556006850182905560078501829055906129c3846114f0565b905086156129d4576129d488614205565b8115612a1757818360000160040160008282546129f1919061584f565b90915550612a159050612a0389611490565b84546001600160a01b03169084613c34565b505b604051828152849033907f7fc4727e062e336010f2c282598ef5f14facb3de68cf8195c2f23e1454b2b74e9060200160405180910390a36000612a59856114f0565b60408051848152602081018390529192508691600080516020615aa8833981519152910160405180910390a2600886015460ff16612aac5760118401805460018101825560009182526020909120018990555b600196505050505050506108a9600160de55565b60108181548110612ad057600080fd5b6000918252602090912001546001600160a01b0316905081565b6104573383836142a6565b60ac546001600160a01b03163314612b5e5760405162461bcd60e51b815260206004820152602660248201527f6f6e6c792070656e64696e67206f776e65722063616e2061636365707420747260448201526530b739b332b960d11b60648201526084016109dc565b60ac54612b73906001600160a01b0316614374565b565b612b7f3383613865565b612b9b5760405162461bcd60e51b81526004016109dc90615781565b612ba7848484846143d1565b50505050565b6060612bb88261373f565b6000612bcf60408051602081019091526000815290565b90506000815111612bef57604051806020016040528060008152506117a1565b80612bf984614404565b604051602001612c0a929190615862565b6040516020818303038152906040529392505050565b612c28614498565b600060048581548110612c3d57612c3d6157ce565b9060005260206000209060180201905042816015015411612c9a5760405162461bcd60e51b815260206004820152601760248201527641737365736d656e7420706572696f6420626f756e747960481b60448201526064016109dc565b6127108361ffff161115612ce25760405162461bcd60e51b815260206004820152600f60248201526e0a0c2f2deeae840e8dede40d0d2ced608b1b60448201526064016109dc565b6127108261ffff161115612d295760405162461bcd60e51b815260206004820152600e60248201526d084dedceae640e8dede40d0d2ced60931b60448201526064016109dc565b612d32856144f2565b5060068101546000612710612d4b61ffff871684615816565b612d55919061582d565b905080836006016000016000828254612d6e919061584f565b9091555060009050612710612d8761ffff87168261584f565b612710612d966103e886615816565b612da0919061582d565b612daa9190615816565b612db4919061582d565b60148501546013860154601287015460405163fc76fff360e01b815260048101859052602481019390935260448301919091526001600160a01b031660648201529091506000908190819073__$4defa815a6c8401eda00ac6be9b95d3cdb$__9063fc76fff390608401606060405180830381865af4158015612e3b573d6000803e3d6000fd5b505050506040513d601f19601f82011682018060405250810190612e5f9190615891565b895492955090935091506001600160a01b0316612e7d828285614653565b6001600160a01b03811660009081526007602052604081208054869290612ea590849061576e565b90915550612eca90508b612eb9878961584f565b6001600160a01b0384169190613c34565b50806001600160a01b03168b6001600160a01b03167fbcbf239e05ac65bcc1a5612cd36d392b0a0aa8c93e027bc86e7276874834248888604051612f1091815260200190565b60405180910390a38b600080516020615aa883398151915288612f328f6114f0565b6040805192835260208301919091520160405180910390a2505050505050505050505050565b612f60614498565b6000849050600060048281548110612f7a57612f7a6157ce565b9060005260206000209060180201905042816015015410612fd75760405162461bcd60e51b815260206004820152601760248201527641737365736d656e7420706572696f6420626f756e747960481b60448201526064016109dc565b6127108461ffff16111561301f5760405162461bcd60e51b815260206004820152600f60248201526e0a0c2f2deeae840e8dede40d0d2ced608b1b60448201526064016109dc565b6127108361ffff1611156130665760405162461bcd60e51b815260206004820152600e60248201526d084dedceae640e8dede40d0d2ced60931b60448201526064016109dc565b600481015460009081613078856114f0565b9050600061271061308d61ffff8a1684615816565b613097919061582d565b6000878152600660205260409020549091508382101561319b576000846130c6670de0b6b3a764000085615816565b6130d0919061582d565b905060005b828110156131945760008981526006602052604081208054839081106130fd576130fd6157ce565b9060005260206000200154905060056000828152602001908152602001600020975061312a816000613a53565b6000670de0b6b3a7640000848a600101546131459190615816565b61314f919061582d565b905080896001016000828254613165919061584f565b909155505060048a01805482919060009061318190849061584f565b9091555050600190920191506130d59050565b50506132c3565b8382101580156131ab5750828211155b156132895760005b818110156132465760008881526006602052604081208054839081106131db576131db6157ce565b90600052602060002001549050600560008281526020019081526020016000209650613208816000613a53565b6000600188018190556003880155600887015460ff1661323d5760118801805460018101825560009182526020909120018190555b506001016131b3565b5060006004870155613257876144f2565b506000613264858461584f565b90508087600601600001600082825461327d919061584f565b909155506132c3915050565b60405162461bcd60e51b815260206004820152600f60248201526e082dadeeadce840e8dede40d0d2ced608b1b60448201526064016109dc565b60006127106132d661ffff8b168261584f565b6127106132e56103e887615816565b6132ef919061582d565b6132f99190615816565b613303919061582d565b6014880154601389015460128a015460405163fc76fff360e01b815260048101859052602481019390935260448301919091526001600160a01b031660648201529091506000908190819073__$4defa815a6c8401eda00ac6be9b95d3cdb$__9063fc76fff390608401606060405180830381865af415801561338a573d6000803e3d6000fd5b505050506040513d601f19601f820116820180604052508101906133ae9190615891565b8c5492955090935091506001600160a01b03166133cc828285614653565b6001600160a01b038116600090815260076020526040812080548692906133f490849061576e565b9091555061340890508f612eb9878a61584f565b50806001600160a01b03168f6001600160a01b03167fbcbf239e05ac65bcc1a5612cd36d392b0a0aa8c93e027bc86e727687483424888960405161344e91815260200190565b60405180910390a38b600080516020615aa8833981519152896134708f6114f0565b6040805192835260208301919091520160405180910390a250505050505050505050505050505050565b6001600160a01b0381166000908152607e602090815260408083208054825181850281018501909352808352606094938301828280156134f957602002820191906000526020600020905b8154815260200190600101908083116134e5575b50508351939450839250505067ffffffffffffffff81111561351d5761351d61553a565b60405190808252806020026020018201604052801561355657816020015b6135436150a8565b81526020019060019003908161353b5790505b50925060005b81811015613635576005600084838151811061357a5761357a6157ce565b602002602001015181526020019081526020016000206040518061012001604052908160008201548152602001600182015481526020016002820154815260200160038201548152602001600482015481526020016005820154815260200160068201548152602001600782015481526020016008820160009054906101000a900460ff161515151581525050848281518110613619576136196157ce565b60200260200101819052508061362e906157e4565b905061355c565b505050919050565b613645614498565b6001600160a01b0381166136aa5760405162461bcd60e51b815260206004820152602660248201527f4f776e61626c653a206e6577206f776e657220697320746865207a65726f206160448201526564647265737360d01b60648201526084016109dc565b60ac80546001600160a01b0319166001600160a01b0392909216919091179055565b6136d461380c565b6136de3382613865565b6136fa5760405162461bcd60e51b81526004016109dc90615781565b613705816001613a53565b60008181526005602052604081206001015490036137265761372681614205565b6120f4600160de55565b6001600160a01b03163b151590565b6000818152607960205260409020546001600160a01b03166120f45760405162461bcd60e51b8152602060048201526018602482015277115490cdcc8c4e881a5b9d985b1a59081d1bdad95b88125160421b60448201526064016109dc565b6000818152607b6020526040902080546001600160a01b0319166001600160a01b03841690811790915581906137d382611490565b6001600160a01b03167f8c5be1e5ebec7d5bd14f71427d1e84f3dd0314c0f7b2291e5b200ac8c7c3b92560405160405180910390a45050565b600260de540361385e5760405162461bcd60e51b815260206004820152601f60248201527f5265656e7472616e637947756172643a207265656e7472616e742063616c6c0060448201526064016109dc565b600260de55565b60008061387183611490565b9050806001600160a01b0316846001600160a01b031614806138b857506001600160a01b038082166000908152607c602090815260408083209388168352929052205460ff165b806138dc5750836001600160a01b03166138d184610941565b6001600160a01b0316145b949350505050565b826001600160a01b03166138f782611490565b6001600160a01b03161461391d5760405162461bcd60e51b81526004016109dc906158ca565b6001600160a01b03821661397f5760405162461bcd60e51b8152602060048201526024808201527f4552433732313a207472616e7366657220746f20746865207a65726f206164646044820152637265737360e01b60648201526084016109dc565b61398a8383836146a3565b826001600160a01b031661399d82611490565b6001600160a01b0316146139c35760405162461bcd60e51b81526004016109dc906158ca565b6000818152607b6020908152604080832080546001600160a01b03199081169091556001600160a01b03878116808652607a8552838620805460001901905590871680865283862080546001019055868652607990945282852080549092168417909155905184937fddf252ad1be2c89b69c2b068fc378daa952ba7f163c4a11628f55a4df523b3ef91a4505050565b60008281526005602052604081208054600480549293919283908110613a7b57613a7b6157ce565b90600052602060002090601802019050600080600073__$4defa815a6c8401eda00ac6be9b95d3cdb$__63ad6fa2338560160154886005015489600101548a600301548b600401546040518663ffffffff1660e01b8152600401613b01959493929190948552602085019390935260408401919091526060830152608082015260a00190565b606060405180830381865af4158015613b1e573d6000803e3d6000fd5b505050506040513d601f19601f82011682018060405250810190613b42919061590f565b92509250925086613b90578360160154600003613b5f5742613b65565b83601601545b866005018190555080866004016000828254613b81919061576e565b90915550505050505050505050565b6008840154831115613ba657613ba68584614739565b8215613c2a5760006004870181905560168501549003613bc65742613bcc565b83601601545b6005870155600884018054849190600090613be890849061584f565b9091555050600984018054839190600090613c0490849061584f565b90915550613c289050613c1689611490565b85546001600160a01b03169084613c34565b505b5050505050505050565b6040516001600160a01b038316602482015260448101829052600090613c9a90859063a9059cbb60e01b906064015b60408051601f198184030181529190526020810180516001600160e01b03166001600160e01b031990931692909217909152614955565b5060019392505050565b6040516001600160a01b0380851660248301528316604482015260648101829052600090613cdf9086906323b872dd60e01b90608401613c63565b506001949350505050565b60006001600160a01b038316613d425760405162461bcd60e51b815260206004820152601f60248201527f45524332303a206d696e7420746f20746865207a65726f20616464726573730060448201526064016109dc565b6000613d76858460048881548110613d5c57613d5c6157ce565b9060005260206000209060180201600e01600001546120f7565b90506000613d8385614a27565b9050613d8d6150a8565b868152602081018590526004805460009173__$4defa815a6c8401eda00ac6be9b95d3cdb$__9163098952389189918c908110613dcc57613dcc6157ce565b9060005260206000209060180201600001600301546040518363ffffffff1660e01b8152600401613e07929190918252602082015260400190565b6040805180830381865af4158015613e23573d6000803e3d6000fd5b505050506040513d601f19601f82011682018060405250810190613e47919061593d565b509050674563918244f400008160048a81548110613e6757613e676157ce565b9060005260206000209060180201600e0160020154613e86919061576e565b1115613eca5760405162461bcd60e51b81526020600482015260136024820152721608189bdd5b99185c9e481d9a5bdb185d1959606a1b60448201526064016109dc565b6040828101828152606084018681524260a0860190815260008781526005602081815286832089518155818a01516001808301919091559651600282015594516003860155608089015160048087019190915593519185019190915560c088015160068086019190915560e089015160078601556101008901516008909501805460ff1916951515959095179094558d825292835293842080549384018155845292200184905580548291908a908110613f8657613f866157ce565b9060005260206000209060180201600e016002016000828254613fa9919061576e565b92505081905550613fe18860048a81548110613fc757613fc76157ce565b9060005260206000209060180201600e0160020154614bd8565b5091979650505050505050565b601254610100900460ff166140155760405162461bcd60e51b81526004016109dc90615961565b612b73614c0b565b6000818152600560208181526040808420815161012081018352815480825260018301548286015260028301548285015260038301546060830152600483015460808301529482015460a082015260068083015460c0830152600783015460e083015260089092015460ff16151561010082015284865290835281852080548351818602810186019094528084529195939091908301828280156140e057602002820191906000526020600020905b8154815260200190600101908083116140cc575b5050835193945060009250829150505b82811015614130578684828151811061410b5761410b6157ce565b60200260200101510361412057809150614130565b614129816157e4565b90506140f0565b508181106141805760405162461bcd60e51b815260206004820152601860248201527f546f6b656e206e6f7420666f756e6420696e206172726179000000000000000060448201526064016109dc565b805b61418d60018461584f565b8110156141e557836141a082600161576e565b815181106141b0576141b06157ce565b60200260200101518482815181106141ca576141ca6157ce565b60209081029190910101526141de816157e4565b9050614182565b506000848152600660209081526040909120845161283e928601906150f6565b600061421082611490565b905061421e816000846146a3565b61422782611490565b6000838152607b6020908152604080832080546001600160a01b03199081169091556001600160a01b038516808552607a845282852080546000190190558785526079909352818420805490911690555192935084927fddf252ad1be2c89b69c2b068fc378daa952ba7f163c4a11628f55a4df523b3ef908390a45050565b816001600160a01b0316836001600160a01b0316036143075760405162461bcd60e51b815260206004820152601960248201527f4552433732313a20617070726f766520746f2063616c6c65720000000000000060448201526064016109dc565b6001600160a01b038381166000818152607c6020908152604080832094871680845294825291829020805460ff191686151590811790915591519182527f17307eab39ab6107e8899845ad3d59bd9653f200f220920489ca2b5937696c31910160405180910390a3505050565b60ab80546001600160a01b038381166001600160a01b0319808416821790945560ac80549094169093556040519116919082907f8be0079c531659141344cd1fd0a4f28419497f9722a3daafe3b4186f6b6457e090600090a35050565b6143dc8484846138e4565b6143e884848484614c3b565b612ba75760405162461bcd60e51b81526004016109dc906159ac565b6060600061441183614d39565b600101905060008167ffffffffffffffff8111156144315761443161553a565b6040519080825280601f01601f19166020018201604052801561445b576020820181803683370190505b5090508181016020015b600019016f181899199a1a9b1b9c1cb0b131b232b360811b600a86061a8153600a8504945084614465575b509392505050565b60ab546001600160a01b03163314612b735760405162461bcd60e51b815260206004820181905260248201527f4f776e61626c653a2063616c6c6572206973206e6f7420746865206f776e657260448201526064016109dc565b60008060048381548110614508576145086157ce565b60009182526020808320868452600d9091526040832080549084905560189092020192508015614490576000858152600c602090815260408083208484528252808320548151637f1f087360e01b815291516001600160a01b0390911693928492637f1f08739260048083019392829003018187875af1158015614590573d6000803e3d6000fd5b505050506040513d601f19601f820116820180604052508101906145b491906157fd565b6040516348b1933560e01b8152600481018290529091506001600160a01b038316906348b19335906024016020604051808303816000875af11580156145fe573d6000803e3d6000fd5b505050506040513d601f19601f8201168201806040525081019061462291906157fd565b600060078701819055600687018054929650869290919061464490849061576e565b90915550505050509392505050565b6001600160a01b03831615610a7d576001600160a01b038084166000908152600a602090815260408083209386168352929052908120805483929061469990849061576e565b9091555050505050565b816001600160a01b0316836001600160a01b0316141580156146cd57506001600160a01b03831615155b156146dc576146dc8382614e11565b826001600160a01b0316826001600160a01b03161415801561470657506001600160a01b03821615155b15610a7d576001600160a01b03919091166000908152607e60209081526040822080546001810182559083529120015550565b60006004838154811061474e5761474e6157ce565b6000918252602082206018919091020160088101546003820154825492945085926147849190600160a81b900461ffff166123d9565b61478e919061584f565b614798919061576e565b600183015483549192506147ba916001600160a01b0390811691163084613ca4565b50808260080160000160008282546147d2919061576e565b90915550600090506127106147e96103e884615816565b6147f3919061582d565b60148401546013850154601286015460405163fc76fff360e01b815260048101859052602481019390935260448301919091526001600160a01b031660648201529091506000908190819073__$4defa815a6c8401eda00ac6be9b95d3cdb$__9063fc76fff390608401606060405180830381865af415801561487a573d6000803e3d6000fd5b505050506040513d601f19601f8201168201806040525081019061489e9190615891565b885492955090935091506001600160a01b03166148bc828285614653565b6001600160a01b038116600090815260086020526040812080548692906148e490849061576e565b90915550600090506148f6868861584f565b90508088600801600101600082825461490f919061576e565b90915550506040518781528a907fadb049ad2d09be3db90459a16aef1ad0a4d89e8fdcc1ade9429d6cc55abbcd2b9060200160405180910390a250505050505050505050565b60006149aa826040518060400160405280602081526020017f5361666545524332303a206c6f772d6c6576656c2063616c6c206661696c6564815250856001600160a01b0316614f679092919063ffffffff16565b805190915015610a7d57808060200190518101906149c891906159fe565b610a7d5760405162461bcd60e51b815260206004820152602a60248201527f5361666545524332303a204552433230206f7065726174696f6e20646964206e6044820152691bdd081cdd58d8d9595960b21b60648201526084016109dc565b600080607d60008154614a39906157e4565b918290555090506001600160a01b038316614a965760405162461bcd60e51b815260206004820181905260248201527f4552433732313a206d696e7420746f20746865207a65726f206164647265737360448201526064016109dc565b6000818152607960205260409020546001600160a01b031615614afb5760405162461bcd60e51b815260206004820152601c60248201527f4552433732313a20746f6b656e20616c7265616479206d696e7465640000000060448201526064016109dc565b614b07600084836146a3565b6000818152607960205260409020546001600160a01b031615614b6c5760405162461bcd60e51b815260206004820152601c60248201527f4552433732313a20746f6b656e20616c7265616479206d696e7465640000000060448201526064016109dc565b6001600160a01b0383166000818152607a6020908152604080832080546001019055848352607990915280822080546001600160a01b0319168417905551839291907fddf252ad1be2c89b69c2b068fc378daa952ba7f163c4a11628f55a4df523b3ef908290a46108a9565b60008160048481548110614bee57614bee6157ce565b60009182526020909120600e601890920201015550600192915050565b601254610100900460ff16614c325760405162461bcd60e51b81526004016109dc90615961565b612b7333614374565b60006001600160a01b0384163b15614d3157604051630a85bd0160e11b81526001600160a01b0385169063150b7a0290614c7f903390899088908890600401615a1b565b6020604051808303816000875af1925050508015614cba575060408051601f3d908101601f19168201909252614cb791810190615a58565b60015b614d17573d808015614ce8576040519150601f19603f3d011682016040523d82523d6000602084013e614ced565b606091505b508051600003614d0f5760405162461bcd60e51b81526004016109dc906159ac565b805181602001fd5b6001600160e01b031916630a85bd0160e11b1490506138dc565b5060016138dc565b60008072184f03e93ff9f4daa797ed6e38ed64bf6a1f0160401b8310614d785772184f03e93ff9f4daa797ed6e38ed64bf6a1f0160401b830492506040015b6d04ee2d6d415b85acef81000000008310614da4576d04ee2d6d415b85acef8100000000830492506020015b662386f26fc100008310614dc257662386f26fc10000830492506010015b6305f5e1008310614dda576305f5e100830492506008015b6127108310614dee57612710830492506004015b60648310614e00576064830492506002015b600a83106108a95760010192915050565b6001600160a01b0382166000908152607e6020908152604080832080548251818502810185019093528083529192909190830182828015614e7157602002820191906000526020600020905b815481526020019060010190808311614e5d575b505083519394506000925050505b81811015614f605783838281518110614e9a57614e9a6157ce565b602002602001015103614f505782614eb360018461584f565b81518110614ec357614ec36157ce565b6020026020010151838281518110614edd57614edd6157ce565b6020908102919091018101919091526001600160a01b0386166000908152607e8252604090208451614f11928601906150f6565b506001600160a01b0385166000908152607e60205260409020805480614f3957614f39615a75565b600190038181906000526020600020016000905590555b614f59816157e4565b9050614e7f565b5050505050565b60606138dc848460008585600080866001600160a01b03168587604051614f8e9190615a8b565b60006040518083038185875af1925050503d8060008114614fcb576040519150601f19603f3d011682016040523d82523d6000602084013e614fd0565b606091505b5091509150614fe187838387614fec565b979650505050505050565b6060831561505b578251600003615054576001600160a01b0385163b6150545760405162461bcd60e51b815260206004820152601d60248201527f416464726573733a2063616c6c20746f206e6f6e2d636f6e747261637400000060448201526064016109dc565b50816138dc565b6138dc83838151156150705781518083602001fd5b8060405162461bcd60e51b81526004016109dc9190615227565b50805460008255906000526020600020908101906120f49190615141565b60405180610120016040528060008152602001600081526020016000815260200160008152602001600081526020016000815260200160008152602001600081526020016000151581525090565b828054828255906000526020600020908101928215615131579160200282015b82811115615131578251825591602001919060010190615116565b5061513d929150615141565b5090565b5b8082111561513d5760008155600101615142565b6001600160a01b03811681146120f457600080fd5b6000806040838503121561517e57600080fd5b823561518981615156565b9150602083013561519981615156565b809150509250929050565b6001600160e01b0319811681146120f457600080fd5b6000602082840312156151cc57600080fd5b81356117a1816151a4565b60005b838110156151f25781810151838201526020016151da565b50506000910152565b600081518084526152138160208601602086016151d7565b601f01601f19169290920160200192915050565b6020815260006117a160208301846151fb565b6000806040838503121561524d57600080fd5b50508035926020909101359150565b60006020828403121561526e57600080fd5b5035919050565b6000806040838503121561528857600080fd5b823561529381615156565b946020939093013593505050565b60006080830182518452602080840151818601526040840151604086015260608401516080606087015282815180855260a0880191508383019450600092505b8083101561530157845182529383019360019290920191908301906152e1565b509695505050505050565b6102008082528a516001600160a01b039081169183019190915260208b015160ff1661022083015260408b015161ffff1661024083015260608b01511661026082015260808a015161010061028083015260009061536e6103008401826151fb565b905060a08c01516102a084015260c08c01516102c084015260e08c01516102e08401526153a8602084018c80518252602090810151910152565b8951606084015260208a01516080840152885160a0840152602089015160c0840152604089015160e0840152606089015115156101008401528281036101208401526153f481896152a1565b87516001600160a01b03166101408501526020880151610160850152604088015161018085015291506154249050565b846101a0830152836101c08301526154416101e083018415159052565b9a9950505050505050505050565b60008060006060848603121561546457600080fd5b833561546f81615156565b9250602084013561547f81615156565b929592945050506040919091013590565b6000602082840312156154a257600080fd5b81356117a181615156565b6000806000606084860312156154c257600080fd5b505081359360208301359350604090920135919050565b80151581146120f457600080fd5b600080604083850312156154fa57600080fd5b823591506020830135615199816154d9565b6000806040838503121561551f57600080fd5b823561552a81615156565b91506020830135615199816154d9565b634e487b7160e01b600052604160045260246000fd5b6000806000806080858703121561556657600080fd5b843561557181615156565b9350602085013561558181615156565b925060408501359150606085013567ffffffffffffffff808211156155a557600080fd5b818701915087601f8301126155b957600080fd5b8135818111156155cb576155cb61553a565b604051601f8201601f19908116603f011681019083821181831017156155f3576155f361553a565b816040528281528a602084870101111561560c57600080fd5b82602086016020830137600060208483010152809550505050505092959194509250565b803561ffff81168114610b6c57600080fd5b6000806000806080858703121561565857600080fd5b84359350602085013561566a81615156565b925061567860408601615630565b915061568660608601615630565b905092959194509250565b602080825282518282018190526000919060409081850190868401855b82811015613fe15781518051855286810151878601528581015186860152606080820151908601526080808201519086015260a0808201519086015260c0808201519086015260e080820151908601526101009081015115159085015261012090930192908501906001016156ae565b600181811c9082168061573257607f821691505b60208210810361575257634e487b7160e01b600052602260045260246000fd5b50919050565b634e487b7160e01b600052601160045260246000fd5b808201808211156108a9576108a9615758565b6020808252602d908201527f4552433732313a2063616c6c6572206973206e6f7420746f6b656e206f776e6560408201526c1c881bdc88185c1c1c9bdd9959609a1b606082015260800190565b634e487b7160e01b600052603260045260246000fd5b6000600182016157f6576157f6615758565b5060010190565b60006020828403121561580f57600080fd5b5051919050565b80820281158282048414176108a9576108a9615758565b60008261584a57634e487b7160e01b600052601260045260246000fd5b500490565b818103818111156108a9576108a9615758565b600083516158748184602088016151d7565b8351908301906158888183602088016151d7565b01949350505050565b6000806000606084860312156158a657600080fd5b835192506020840151915060408401516158bf81615156565b809150509250925092565b60208082526025908201527f4552433732313a207472616e736665722066726f6d20696e636f72726563742060408201526437bbb732b960d91b606082015260800190565b60008060006060848603121561592457600080fd5b8351925060208401519150604084015190509250925092565b6000806040838503121561595057600080fd5b505080516020909101519092909150565b6020808252602b908201527f496e697469616c697a61626c653a20636f6e7472616374206973206e6f74206960408201526a6e697469616c697a696e6760a81b606082015260800190565b60208082526032908201527f4552433732313a207472616e7366657220746f206e6f6e20455243373231526560408201527131b2b4bb32b91034b6b83632b6b2b73a32b960711b606082015260800190565b600060208284031215615a1057600080fd5b81516117a1816154d9565b6001600160a01b0385811682528416602082015260408101839052608060608201819052600090615a4e908301846151fb565b9695505050505050565b600060208284031215615a6a57600080fd5b81516117a1816151a4565b634e487b7160e01b600052603160045260246000fd5b60008251615a9d8184602087016151d7565b919091019291505056fea3ea4fb8dee4d414198cb197af6eae4fe483c1a0b849dc50e53b9bf1a60e2166a264697066735822122088b13500e8987c93b93b12a69c6dd7a25837aa274b5ec23f87ef45fe07d0495764736f6c63430008110033496e697469616c697a61626c653a20636f6e7472616374206973206e6f742069",
    "linkReferences": {
      "src/lib/SaloonLib.sol": {
        "SaloonLib": [
          {
            "start": 9093,
            "length": 20
          },
          {
            "start": 10174,
            "length": 20
          },
          {
            "start": 12808,
            "length": 20
          },
          {
            "start": 14167,
            "length": 20
          },
          {
            "start": 16025,
            "length": 20
          },
          {
            "start": 16807,
            "length": 20
          },
          {
            "start": 19527,
            "length": 20
          }
        ]
      }
    }
  },
  "methodIdentifiers": {
    "YEAR()": "83914540",
    "acceptOwnershipTransfer()": "b842e87f",
    "activeStrategies(uint256)": "b20b2429",
    "activeTokens(uint256)": "9f224f35",
    "approve(address,uint256)": "095ea7b3",
    "balanceOf(address)": "70a08231",
    "calcRequiredPremiumBalancePerPeriod(uint256,uint256)": "836ef1fa",
    "calculateEffectiveAPY(uint256,uint256,uint256)": "81c6f1a7",
    "claimPremium(uint256)": "f47ec3be",
    "consolidate(uint256)": "949a4a4a",
    "consolidateAll()": "75bfd63d",
    "getAllTokensByOwner(address)": "e9fda7d4",
    "getApproved(uint256)": "081812fc",
    "getCurrentAPY(uint256)": "7fbf3853",
    "index()": "2986c0e5",
    "initialize()": "8129fc1c",
    "isApprovedForAll(address,address)": "e985e9c5",
    "minTokenStakeAmount(address)": "39458723",
    "name()": "06fdde03",
    "nftInfo(uint256)": "1f8bc790",
    "owner()": "8da5cb5b",
    "ownerOf(uint256)": "6352211e",
    "payBounty(uint256,address,uint16,uint16)": "d075afac",
    "payBountyDuringAssessment(uint256,address,uint16,uint16)": "cfd54bfa",
    "pidNFTList(uint256,uint256)": "96ea48e8",
    "pidStrategies(uint256,bytes32)": "074ecf03",
    "poolInfo(uint256)": "1526fe27",
    "receiveStrategyYield(address,uint256)": "1aebcecb",
    "referralBalances(address,address)": "011b408b",
    "safeTransferFrom(address,address,uint256)": "42842e0e",
    "safeTransferFrom(address,address,uint256,bytes)": "b88d4fde",
    "saloonBounty()": "79923898",
    "saloonBountyProfit(address)": "e45abd0f",
    "saloonManager()": "220e1124",
    "saloonPremiumProfit(address)": "ca006148",
    "saloonProjectPortal()": "277fd2a1",
    "saloonStrategyProfit(address)": "598d17bf",
    "saloonView()": "0a07f543",
    "scheduleUnstake(uint256)": "106d08df",
    "setApprovalForAll(address,bool)": "a22cb465",
    "stake(uint256,uint256)": "7b0472f0",
    "strategyAddressToPid(address)": "957deecc",
    "strategyFactory()": "9ef35710",
    "supportsInterface(bytes4)": "01ffc9a7",
    "symbol()": "95d89b41",
    "tokenURI(uint256)": "c87b56dd",
    "tokenWhitelist(address)": "753d7563",
    "transferFrom(address,address,uint256)": "23b872dd",
    "transferOwnership(address)": "f2fde38b",
    "unstake(uint256,bool)": "9ebea88c",
    "viewBountyBalance(uint256)": "6ac6d812",
    "withdrawRemainingAPY(uint256)": "4ef19f63"
  },
  "id": 41
}