{
  "abi": [
    {
      "inputs": [],
      "stateMutability": "nonpayable",
      "type": "constructor"
    },
    {
      "anonymous": false,
      "inputs": [
        {
          "indexed": true,
          "internalType": "address",
          "name": "owner",
          "type": "address"
        },
        {
          "indexed": true,
          "internalType": "address",
          "name": "approved",
          "type": "address"
        },
        {
          "indexed": true,
          "internalType": "uint256",
          "name": "tokenId",
          "type": "uint256"
        }
      ],
      "name": "Approval",
      "type": "event"
    },
    {
      "anonymous": false,
      "inputs": [
        {
          "indexed": true,
          "internalType": "address",
          "name": "owner",
          "type": "address"
        },
        {
          "indexed": true,
          "internalType": "address",
          "name": "operator",
          "type": "address"
        },
        {
          "indexed": false,
          "internalType": "bool",
          "name": "approved",
          "type": "bool"
        }
      ],
      "name": "ApprovalForAll",
      "type": "event"
    },
    {
      "anonymous": false,
      "inputs": [
        {
          "indexed": true,
          "internalType": "uint256",
          "name": "pid",
          "type": "uint256"
        },
        {
          "indexed": false,
          "internalType": "uint256",
          "name": "oldAmount",
          "type": "uint256"
        },
        {
          "indexed": false,
          "internalType": "uint256",
          "name": "newAmount",
          "type": "uint256"
        }
      ],
      "name": "BountyBalanceChanged",
      "type": "event"
    },
    {
      "anonymous": false,
      "inputs": [
        {
          "indexed": true,
          "internalType": "address",
          "name": "hunter",
          "type": "address"
        },
        {
          "indexed": true,
          "internalType": "address",
          "name": "token",
          "type": "address"
        },
        {
          "indexed": false,
          "internalType": "uint256",
          "name": "amount",
          "type": "uint256"
        }
      ],
      "name": "BountyPaid",
      "type": "event"
    },
    {
      "anonymous": false,
      "inputs": [
        {
          "indexed": false,
          "internalType": "uint8",
          "name": "version",
          "type": "uint8"
        }
      ],
      "name": "Initialized",
      "type": "event"
    },
    {
      "anonymous": false,
      "inputs": [
        {
          "indexed": true,
          "internalType": "uint256",
          "name": "pid",
          "type": "uint256"
        },
        {
          "indexed": true,
          "internalType": "address",
          "name": "token",
          "type": "address"
        },
        {
          "indexed": false,
          "internalType": "uint256",
          "name": "tokenDecimals",
          "type": "uint256"
        }
      ],
      "name": "NewBountyDeployed",
      "type": "event"
    },
    {
      "anonymous": false,
      "inputs": [
        {
          "indexed": true,
          "internalType": "address",
          "name": "previousOwner",
          "type": "address"
        },
        {
          "indexed": true,
          "internalType": "address",
          "name": "newOwner",
          "type": "address"
        }
      ],
      "name": "OwnershipTransferred",
      "type": "event"
    },
    {
      "anonymous": false,
      "inputs": [
        {
          "indexed": true,
          "internalType": "uint256",
          "name": "pid",
          "type": "uint256"
        },
        {
          "indexed": false,
          "internalType": "uint256",
          "name": "amount",
          "type": "uint256"
        }
      ],
      "name": "PremiumBilled",
      "type": "event"
    },
    {
      "anonymous": false,
      "inputs": [
        {
          "indexed": true,
          "internalType": "address",
          "name": "user",
          "type": "address"
        },
        {
          "indexed": true,
          "internalType": "uint256",
          "name": "pid",
          "type": "uint256"
        },
        {
          "indexed": false,
          "internalType": "uint256",
          "name": "amount",
          "type": "uint256"
        }
      ],
      "name": "Staked",
      "type": "event"
    },
    {
      "anonymous": false,
      "inputs": [
        {
          "indexed": true,
          "internalType": "address",
          "name": "from",
          "type": "address"
        },
        {
          "indexed": true,
          "internalType": "address",
          "name": "to",
          "type": "address"
        },
        {
          "indexed": true,
          "internalType": "uint256",
          "name": "tokenId",
          "type": "uint256"
        }
      ],
      "name": "Transfer",
      "type": "event"
    },
    {
      "anonymous": false,
      "inputs": [
        {
          "indexed": true,
          "internalType": "address",
          "name": "user",
          "type": "address"
        },
        {
          "indexed": true,
          "internalType": "uint256",
          "name": "pid",
          "type": "uint256"
        },
        {
          "indexed": false,
          "internalType": "uint256",
          "name": "amount",
          "type": "uint256"
        }
      ],
      "name": "Unstaked",
      "type": "event"
    },
    {
      "anonymous": false,
      "inputs": [
        {
          "indexed": true,
          "internalType": "uint256",
          "name": "pid",
          "type": "uint256"
        },
        {
          "indexed": false,
          "internalType": "uint256",
          "name": "amount",
          "type": "uint256"
        }
      ],
      "name": "WithdrawalOrUnstakeScheduled",
      "type": "event"
    },
    {
      "anonymous": false,
      "inputs": [
        {
          "indexed": true,
          "internalType": "address",
          "name": "referrer",
          "type": "address"
        },
        {
          "indexed": false,
          "internalType": "uint256",
          "name": "amount",
          "type": "uint256"
        }
      ],
      "name": "referralPaid",
      "type": "event"
    },
    {
      "anonymous": false,
      "inputs": [
        {
          "indexed": true,
          "internalType": "address",
          "name": "token",
          "type": "address"
        },
        {
          "indexed": true,
          "internalType": "bool",
          "name": "whitelisted",
          "type": "bool"
        }
      ],
      "name": "tokenWhitelistUpdated",
      "type": "event"
    },
    {
      "inputs": [],
      "name": "acceptOwnershipTransfer",
      "outputs": [],
      "stateMutability": "nonpayable",
      "type": "function"
    },
    {
      "inputs": [
        {
          "internalType": "uint256",
          "name": "",
          "type": "uint256"
        }
      ],
      "name": "activeStrategies",
      "outputs": [
        {
          "internalType": "bytes32",
          "name": "",
          "type": "bytes32"
        }
      ],
      "stateMutability": "view",
      "type": "function"
    },
    {
      "inputs": [
        {
          "internalType": "uint256",
          "name": "",
          "type": "uint256"
        }
      ],
      "name": "activeTokens",
      "outputs": [
        {
          "internalType": "address",
          "name": "",
          "type": "address"
        }
      ],
      "stateMutability": "view",
      "type": "function"
    },
    {
      "inputs": [
        {
          "internalType": "address",
          "name": "to",
          "type": "address"
        },
        {
          "internalType": "uint256",
          "name": "tokenId",
          "type": "uint256"
        }
      ],
      "name": "approve",
      "outputs": [],
      "stateMutability": "nonpayable",
      "type": "function"
    },
    {
      "inputs": [
        {
          "internalType": "address",
          "name": "owner",
          "type": "address"
        }
      ],
      "name": "balanceOf",
      "outputs": [
        {
          "internalType": "uint256",
          "name": "",
          "type": "uint256"
        }
      ],
      "stateMutability": "view",
      "type": "function"
    },
    {
      "inputs": [
        {
          "internalType": "uint256",
          "name": "_poolCap",
          "type": "uint256"
        },
        {
          "internalType": "uint256",
          "name": "_apy",
          "type": "uint256"
        }
      ],
      "name": "calcRequiredPremiumBalancePerPeriod",
      "outputs": [
        {
          "internalType": "uint256",
          "name": "requiredPremiumBalance",
          "type": "uint256"
        }
      ],
      "stateMutability": "pure",
      "type": "function"
    },
    {
      "inputs": [
        {
          "internalType": "uint256",
          "name": "_pid",
          "type": "uint256"
        },
        {
          "internalType": "uint256",
          "name": "_stake",
          "type": "uint256"
        },
        {
          "internalType": "uint256",
          "name": "_x",
          "type": "uint256"
        }
      ],
      "name": "calculateEffectiveAPY",
      "outputs": [
        {
          "internalType": "uint256",
          "name": "scaledAPY",
          "type": "uint256"
        }
      ],
      "stateMutability": "view",
      "type": "function"
    },
    {
      "inputs": [
        {
          "internalType": "uint256",
          "name": "_tokenId",
          "type": "uint256"
        }
      ],
      "name": "claimPremium",
      "outputs": [],
      "stateMutability": "nonpayable",
      "type": "function"
    },
    {
      "inputs": [
        {
          "internalType": "uint256",
          "name": "_pid",
          "type": "uint256"
        }
      ],
      "name": "consolidate",
      "outputs": [],
      "stateMutability": "nonpayable",
      "type": "function"
    },
    {
      "inputs": [],
      "name": "consolidateAll",
      "outputs": [],
      "stateMutability": "nonpayable",
      "type": "function"
    },
    {
      "inputs": [
        {
          "internalType": "address",
          "name": "_owner",
          "type": "address"
        }
      ],
      "name": "getAllTokensByOwner",
      "outputs": [
        {
          "components": [
            {
              "internalType": "uint256",
              "name": "pid",
              "type": "uint256"
            },
            {
              "internalType": "uint256",
              "name": "amount",
              "type": "uint256"
            },
            {
              "internalType": "uint256",
              "name": "xDelta",
              "type": "uint256"
            },
            {
              "internalType": "uint256",
              "name": "apy",
              "type": "uint256"
            },
            {
              "internalType": "uint256",
              "name": "unclaimed",
              "type": "uint256"
            },
            {
              "internalType": "uint256",
              "name": "lastClaimedTime",
              "type": "uint256"
            },
            {
              "internalType": "uint256",
              "name": "timelock",
              "type": "uint256"
            },
            {
              "internalType": "uint256",
              "name": "timelimit",
              "type": "uint256"
            },
            {
              "internalType": "bool",
              "name": "hasUnstaked",
              "type": "bool"
            }
          ],
          "internalType": "struct ISaloon.NFTInfo[]",
          "name": "userTokens",
          "type": "tuple[]"
        }
      ],
      "stateMutability": "view",
      "type": "function"
    },
    {
      "inputs": [
        {
          "internalType": "uint256",
          "name": "tokenId",
          "type": "uint256"
        }
      ],
      "name": "getApproved",
      "outputs": [
        {
          "internalType": "address",
          "name": "",
          "type": "address"
        }
      ],
      "stateMutability": "view",
      "type": "function"
    },
    {
      "inputs": [
        {
          "internalType": "uint256",
          "name": "_pid",
          "type": "uint256"
        }
      ],
      "name": "getCurrentAPY",
      "outputs": [
        {
          "internalType": "uint256",
          "name": "currentAPY",
          "type": "uint256"
        }
      ],
      "stateMutability": "view",
      "type": "function"
    },
    {
      "inputs": [],
      "name": "index",
      "outputs": [
        {
          "internalType": "uint256",
          "name": "",
          "type": "uint256"
        }
      ],
      "stateMutability": "view",
      "type": "function"
    },
    {
      "inputs": [
        {
          "internalType": "address",
          "name": "_strategyFactory",
          "type": "address"
        }
      ],
      "name": "initialize",
      "outputs": [],
      "stateMutability": "nonpayable",
      "type": "function"
    },
    {
      "inputs": [
        {
          "internalType": "address",
          "name": "owner",
          "type": "address"
        },
        {
          "internalType": "address",
          "name": "operator",
          "type": "address"
        }
      ],
      "name": "isApprovedForAll",
      "outputs": [
        {
          "internalType": "bool",
          "name": "",
          "type": "bool"
        }
      ],
      "stateMutability": "view",
      "type": "function"
    },
    {
      "inputs": [
        {
          "internalType": "address",
          "name": "",
          "type": "address"
        }
      ],
      "name": "minTokenStakeAmount",
      "outputs": [
        {
          "internalType": "uint256",
          "name": "",
          "type": "uint256"
        }
      ],
      "stateMutability": "view",
      "type": "function"
    },
    {
      "inputs": [],
      "name": "name",
      "outputs": [
        {
          "internalType": "string",
          "name": "",
          "type": "string"
        }
      ],
      "stateMutability": "view",
      "type": "function"
    },
    {
      "inputs": [
        {
          "internalType": "uint256",
          "name": "",
          "type": "uint256"
        }
      ],
      "name": "nftInfo",
      "outputs": [
        {
          "internalType": "uint256",
          "name": "pid",
          "type": "uint256"
        },
        {
          "internalType": "uint256",
          "name": "amount",
          "type": "uint256"
        },
        {
          "internalType": "uint256",
          "name": "xDelta",
          "type": "uint256"
        },
        {
          "internalType": "uint256",
          "name": "apy",
          "type": "uint256"
        },
        {
          "internalType": "uint256",
          "name": "unclaimed",
          "type": "uint256"
        },
        {
          "internalType": "uint256",
          "name": "lastClaimedTime",
          "type": "uint256"
        },
        {
          "internalType": "uint256",
          "name": "timelock",
          "type": "uint256"
        },
        {
          "internalType": "uint256",
          "name": "timelimit",
          "type": "uint256"
        },
        {
          "internalType": "bool",
          "name": "hasUnstaked",
          "type": "bool"
        }
      ],
      "stateMutability": "view",
      "type": "function"
    },
    {
      "inputs": [],
      "name": "owner",
      "outputs": [
        {
          "internalType": "address",
          "name": "",
          "type": "address"
        }
      ],
      "stateMutability": "view",
      "type": "function"
    },
    {
      "inputs": [
        {
          "internalType": "uint256",
          "name": "tokenId",
          "type": "uint256"
        }
      ],
      "name": "ownerOf",
      "outputs": [
        {
          "internalType": "address",
          "name": "",
          "type": "address"
        }
      ],
      "stateMutability": "view",
      "type": "function"
    },
    {
      "inputs": [
        {
          "internalType": "uint256",
          "name": "__pid",
          "type": "uint256"
        },
        {
          "internalType": "address",
          "name": "_hunter",
          "type": "address"
        },
        {
          "internalType": "uint16",
          "name": "_payoutBPS",
          "type": "uint16"
        },
        {
          "internalType": "uint16",
          "name": "_hunterBonusBPS",
          "type": "uint16"
        }
      ],
      "name": "payBounty",
      "outputs": [],
      "stateMutability": "nonpayable",
      "type": "function"
    },
    {
      "inputs": [
        {
          "internalType": "uint256",
          "name": "_pid",
          "type": "uint256"
        },
        {
          "internalType": "address",
          "name": "_hunter",
          "type": "address"
        },
        {
          "internalType": "uint16",
          "name": "_payoutBPS",
          "type": "uint16"
        },
        {
          "internalType": "uint16",
          "name": "_hunterBonusBPS",
          "type": "uint16"
        }
      ],
      "name": "payBountyDuringAssessment",
      "outputs": [],
      "stateMutability": "nonpayable",
      "type": "function"
    },
    {
      "inputs": [
        {
          "internalType": "uint256",
          "name": "",
          "type": "uint256"
        },
        {
          "internalType": "uint256",
          "name": "",
          "type": "uint256"
        }
      ],
      "name": "pidNFTList",
      "outputs": [
        {
          "internalType": "uint256",
          "name": "",
          "type": "uint256"
        }
      ],
      "stateMutability": "view",
      "type": "function"
    },
    {
      "inputs": [
        {
          "internalType": "uint256",
          "name": "",
          "type": "uint256"
        },
        {
          "internalType": "bytes32",
          "name": "",
          "type": "bytes32"
        }
      ],
      "name": "pidStrategies",
      "outputs": [
        {
          "internalType": "address",
          "name": "",
          "type": "address"
        }
      ],
      "stateMutability": "view",
      "type": "function"
    },
    {
      "inputs": [
        {
          "internalType": "uint256",
          "name": "",
          "type": "uint256"
        }
      ],
      "name": "poolInfo",
      "outputs": [
        {
          "components": [
            {
              "internalType": "contract IERC20",
              "name": "token",
              "type": "address"
            },
            {
              "internalType": "uint8",
              "name": "tokenDecimals",
              "type": "uint8"
            },
            {
              "internalType": "uint16",
              "name": "apy",
              "type": "uint16"
            },
            {
              "internalType": "address",
              "name": "projectWallet",
              "type": "address"
            },
            {
              "internalType": "string",
              "name": "projectName",
              "type": "string"
            },
            {
              "internalType": "uint256",
              "name": "poolCap",
              "type": "uint256"
            },
            {
              "internalType": "uint256",
              "name": "totalStaked",
              "type": "uint256"
            },
            {
              "internalType": "uint256",
              "name": "scalingMultiplier",
              "type": "uint256"
            }
          ],
          "internalType": "struct ISaloon.GeneralInfo",
          "name": "generalInfo",
          "type": "tuple"
        },
        {
          "components": [
            {
              "internalType": "uint256",
              "name": "projectDepositHeld",
              "type": "uint256"
            },
            {
              "internalType": "uint256",
              "name": "projectDepositInStrategy",
              "type": "uint256"
            }
          ],
          "internalType": "struct ISaloon.DepositInfo",
          "name": "depositInfo",
          "type": "tuple"
        },
        {
          "components": [
            {
              "internalType": "uint256",
              "name": "premiumBalance",
              "type": "uint256"
            },
            {
              "internalType": "uint256",
              "name": "premiumAvailable",
              "type": "uint256"
            }
          ],
          "internalType": "struct ISaloon.PremiumInfo",
          "name": "premiumInfo",
          "type": "tuple"
        },
        {
          "components": [
            {
              "internalType": "uint256",
              "name": "timelock",
              "type": "uint256"
            },
            {
              "internalType": "uint256",
              "name": "timeLimit",
              "type": "uint256"
            },
            {
              "internalType": "uint256",
              "name": "withdrawalScheduledAmount",
              "type": "uint256"
            },
            {
              "internalType": "bool",
              "name": "withdrawalExecuted",
              "type": "bool"
            }
          ],
          "internalType": "struct ISaloon.TimelockInfo",
          "name": "poolTimelock",
          "type": "tuple"
        },
        {
          "components": [
            {
              "internalType": "uint256",
              "name": "currentX",
              "type": "uint256"
            },
            {
              "internalType": "uint256",
              "name": "currentY",
              "type": "uint256"
            },
            {
              "internalType": "uint256",
              "name": "totalSupply",
              "type": "uint256"
            },
            {
              "internalType": "uint256[]",
              "name": "unstakedTokens",
              "type": "uint256[]"
            }
          ],
          "internalType": "struct ISaloon.CurveInfo",
          "name": "curveInfo",
          "type": "tuple"
        },
        {
          "components": [
            {
              "internalType": "address",
              "name": "referrer",
              "type": "address"
            },
            {
              "internalType": "uint256",
              "name": "referralFee",
              "type": "uint256"
            },
            {
              "internalType": "uint256",
              "name": "endTime",
              "type": "uint256"
            }
          ],
          "internalType": "struct ISaloon.ReferralInfo",
          "name": "referralInfo",
          "type": "tuple"
        },
        {
          "internalType": "uint256",
          "name": "assessmentPeriodEnd",
          "type": "uint256"
        },
        {
          "internalType": "uint256",
          "name": "freezeTime",
          "type": "uint256"
        },
        {
          "internalType": "bool",
          "name": "isActive",
          "type": "bool"
        }
      ],
      "stateMutability": "view",
      "type": "function"
    },
    {
      "inputs": [
        {
          "internalType": "address",
          "name": "_token",
          "type": "address"
        },
        {
          "internalType": "uint256",
          "name": "_amount",
          "type": "uint256"
        }
      ],
      "name": "receiveStrategyYield",
      "outputs": [],
      "stateMutability": "nonpayable",
      "type": "function"
    },
    {
      "inputs": [
        {
          "internalType": "address",
          "name": "",
          "type": "address"
        },
        {
          "internalType": "address",
          "name": "",
          "type": "address"
        }
      ],
      "name": "referralBalances",
      "outputs": [
        {
          "internalType": "uint256",
          "name": "",
          "type": "uint256"
        }
      ],
      "stateMutability": "view",
      "type": "function"
    },
    {
      "inputs": [
        {
          "internalType": "address",
          "name": "from",
          "type": "address"
        },
        {
          "internalType": "address",
          "name": "to",
          "type": "address"
        },
        {
          "internalType": "uint256",
          "name": "tokenId",
          "type": "uint256"
        }
      ],
      "name": "safeTransferFrom",
      "outputs": [],
      "stateMutability": "nonpayable",
      "type": "function"
    },
    {
      "inputs": [
        {
          "internalType": "address",
          "name": "from",
          "type": "address"
        },
        {
          "internalType": "address",
          "name": "to",
          "type": "address"
        },
        {
          "internalType": "uint256",
          "name": "tokenId",
          "type": "uint256"
        },
        {
          "internalType": "bytes",
          "name": "data",
          "type": "bytes"
        }
      ],
      "name": "safeTransferFrom",
      "outputs": [],
      "stateMutability": "nonpayable",
      "type": "function"
    },
    {
      "inputs": [],
      "name": "saloonBounty",
      "outputs": [
        {
          "internalType": "contract ISaloonBounty",
          "name": "",
          "type": "address"
        }
      ],
      "stateMutability": "view",
      "type": "function"
    },
    {
      "inputs": [
        {
          "internalType": "address",
          "name": "",
          "type": "address"
        }
      ],
      "name": "saloonBountyProfit",
      "outputs": [
        {
          "internalType": "uint256",
          "name": "",
          "type": "uint256"
        }
      ],
      "stateMutability": "view",
      "type": "function"
    },
    {
      "inputs": [],
      "name": "saloonManager",
      "outputs": [
        {
          "internalType": "contract ISaloonManager",
          "name": "",
          "type": "address"
        }
      ],
      "stateMutability": "view",
      "type": "function"
    },
    {
      "inputs": [
        {
          "internalType": "address",
          "name": "",
          "type": "address"
        }
      ],
      "name": "saloonPremiumProfit",
      "outputs": [
        {
          "internalType": "uint256",
          "name": "",
          "type": "uint256"
        }
      ],
      "stateMutability": "view",
      "type": "function"
    },
    {
      "inputs": [],
      "name": "saloonProjectPortal",
      "outputs": [
        {
          "internalType": "contract ISaloonProjectPortal",
          "name": "",
          "type": "address"
        }
      ],
      "stateMutability": "view",
      "type": "function"
    },
    {
      "inputs": [
        {
          "internalType": "address",
          "name": "",
          "type": "address"
        }
      ],
      "name": "saloonStrategyProfit",
      "outputs": [
        {
          "internalType": "uint256",
          "name": "",
          "type": "uint256"
        }
      ],
      "stateMutability": "view",
      "type": "function"
    },
    {
      "inputs": [
        {
          "internalType": "uint256",
          "name": "_tokenId",
          "type": "uint256"
        }
      ],
      "name": "scheduleUnstake",
      "outputs": [
        {
          "internalType": "bool",
          "name": "",
          "type": "bool"
        }
      ],
      "stateMutability": "nonpayable",
      "type": "function"
    },
    {
      "inputs": [
        {
          "internalType": "address",
          "name": "operator",
          "type": "address"
        },
        {
          "internalType": "bool",
          "name": "approved",
          "type": "bool"
        }
      ],
      "name": "setApprovalForAll",
      "outputs": [],
      "stateMutability": "nonpayable",
      "type": "function"
    },
    {
      "inputs": [
        {
          "internalType": "uint256",
          "name": "_pid",
          "type": "uint256"
        },
        {
          "internalType": "uint256",
          "name": "_amount",
          "type": "uint256"
        }
      ],
      "name": "stake",
      "outputs": [
        {
          "internalType": "uint256",
          "name": "",
          "type": "uint256"
        }
      ],
      "stateMutability": "nonpayable",
      "type": "function"
    },
    {
      "inputs": [
        {
          "internalType": "address",
          "name": "",
          "type": "address"
        }
      ],
      "name": "strategyAddressToPid",
      "outputs": [
        {
          "internalType": "uint256",
          "name": "",
          "type": "uint256"
        }
      ],
      "stateMutability": "view",
      "type": "function"
    },
    {
      "inputs": [
        {
          "internalType": "bytes4",
          "name": "interfaceId",
          "type": "bytes4"
        }
      ],
      "name": "supportsInterface",
      "outputs": [
        {
          "internalType": "bool",
          "name": "",
          "type": "bool"
        }
      ],
      "stateMutability": "view",
      "type": "function"
    },
    {
      "inputs": [],
      "name": "symbol",
      "outputs": [
        {
          "internalType": "string",
          "name": "",
          "type": "string"
        }
      ],
      "stateMutability": "view",
      "type": "function"
    },
    {
      "inputs": [
        {
          "internalType": "uint256",
          "name": "tokenId",
          "type": "uint256"
        }
      ],
      "name": "tokenURI",
      "outputs": [
        {
          "internalType": "string",
          "name": "",
          "type": "string"
        }
      ],
      "stateMutability": "view",
      "type": "function"
    },
    {
      "inputs": [
        {
          "internalType": "address",
          "name": "",
          "type": "address"
        }
      ],
      "name": "tokenWhitelist",
      "outputs": [
        {
          "internalType": "bool",
          "name": "",
          "type": "bool"
        }
      ],
      "stateMutability": "view",
      "type": "function"
    },
    {
      "inputs": [
        {
          "internalType": "address",
          "name": "from",
          "type": "address"
        },
        {
          "internalType": "address",
          "name": "to",
          "type": "address"
        },
        {
          "internalType": "uint256",
          "name": "tokenId",
          "type": "uint256"
        }
      ],
      "name": "transferFrom",
      "outputs": [],
      "stateMutability": "nonpayable",
      "type": "function"
    },
    {
      "inputs": [
        {
          "internalType": "address",
          "name": "newOwner",
          "type": "address"
        }
      ],
      "name": "transferOwnership",
      "outputs": [],
      "stateMutability": "nonpayable",
      "type": "function"
    },
    {
      "inputs": [
        {
          "internalType": "uint256",
          "name": "_tokenId",
          "type": "uint256"
        },
        {
          "internalType": "bool",
          "name": "_shouldHarvest",
          "type": "bool"
        }
      ],
      "name": "unstake",
      "outputs": [
        {
          "internalType": "bool",
          "name": "",
          "type": "bool"
        }
      ],
      "stateMutability": "nonpayable",
      "type": "function"
    },
    {
      "inputs": [
        {
          "internalType": "uint256",
          "name": "_pid",
          "type": "uint256"
        }
      ],
      "name": "viewBountyBalance",
      "outputs": [
        {
          "internalType": "uint256",
          "name": "",
          "type": "uint256"
        }
      ],
      "stateMutability": "view",
      "type": "function"
    },
    {
      "inputs": [
        {
          "internalType": "uint256",
          "name": "_pid",
          "type": "uint256"
        }
      ],
      "name": "withdrawRemainingAPY",
      "outputs": [],
      "stateMutability": "nonpayable",
      "type": "function"
    }
  ],
  "bytecode": {
    "object": "0x60806040523480156200001157600080fd5b50600054610100900460ff1615808015620000335750600054600160ff909116105b8062000063575062000050306200018e60201b620036bb1760201c565b15801562000063575060005460ff166001145b620000cc5760405162461bcd60e51b815260206004820152602e60248201527f496e697469616c697a61626c653a20636f6e747261637420697320616c72656160448201526d191e481a5b9a5d1a585b1a5e995960921b60648201526084015b60405180910390fd5b6000805460ff191660011790558015620000f0576000805461ff0019166101001790555b620001406040518060400160405280600b81526020016a2137bab73a3caa37b5b2b760a91b8152506040518060400160405280600381526020016210951560ea1b8152506200019d60201b60201c565b801562000187576000805461ff0019169055604051600181527f7f26b83ff96e1f2b6a682f133852f6798a09c465da95921460cefb38474024989060200160405180910390a15b50620003f7565b6001600160a01b03163b151590565b600054610100900460ff16620001f95760405162461bcd60e51b815260206004820152602b602482015260008051602062005e8f83398151915260448201526a6e697469616c697a696e6760a81b6064820152608401620000c3565b62000205828262000209565b5050565b600054610100900460ff16620002655760405162461bcd60e51b815260206004820152602b602482015260008051602062005e8f83398151915260448201526a6e697469616c697a696e6760a81b6064820152608401620000c3565b60656200027383826200032b565b5060666200028282826200032b565b505050565b634e487b7160e01b600052604160045260246000fd5b600181811c90821680620002b257607f821691505b602082108103620002d357634e487b7160e01b600052602260045260246000fd5b50919050565b601f8211156200028257600081815260208120601f850160051c81016020861015620003025750805b601f850160051c820191505b8181101562000323578281556001016200030e565b505050505050565b81516001600160401b0381111562000347576200034762000287565b6200035f816200035884546200029d565b84620002d9565b602080601f8311600181146200039757600084156200037e5750858301515b600019600386901b1c1916600185901b17855562000323565b600085815260208120601f198616915b82811015620003c857888601518255948401946001909101908401620003a7565b5085821015620003e75787850151600019600388901b60f8161c191681555b5050505050600190811b01905550565b615a8880620004076000396000f3fe608060405234801561001057600080fd5b50600436106102bb5760003560e01c80637b0472f011610182578063b20b2429116100e9578063cfd54bfa116100a2578063e985e9c51161007c578063e985e9c514610763578063e9fda7d41461079f578063f2fde38b146107bf578063f47ec3be146107d257600080fd5b8063cfd54bfa1461071d578063d075afac14610730578063e45abd0f1461074357600080fd5b8063b20b24291461069c578063b842e87f146106bc578063b88d4fde146106c4578063c4d66de8146106d7578063c87b56dd146106ea578063ca006148146106fd57600080fd5b8063957deecc1161013b578063957deecc1461062857806395d89b411461064857806396ea48e8146106505780639ebea88c146106635780639f224f3514610676578063a22cb4651461068957600080fd5b80637b0472f0146105b85780637fbf3853146105cb57806381c6f1a7146105de578063836ef1fa146105f15780638da5cb5b14610604578063949a4a4a1461061557600080fd5b8063277fd2a1116102265780636352211e116101df5780636352211e146105415780636ac6d8121461055457806370a0823114610567578063753d75631461057a57806375bfd63d1461059d57806379923898146105a557600080fd5b8063277fd2a1146104bf5780632986c0e5146104d257806339458723146104db57806342842e0e146104fb5780634ef19f631461050e578063598d17bf1461052157600080fd5b8063106d08df11610278578063106d08df146103aa5780631526fe27146103bd5780631aebcecb146103e55780631f8bc790146103f7578063220e11241461049957806323b872dd146104ac57600080fd5b8063011b408b146102c057806301ffc9a7146102fe57806306fdde0314610321578063074ecf0314610336578063081812fc14610382578063095ea7b314610395575b600080fd5b6102eb6102ce3660046150f6565b60a260209081526000928352604080842090915290825290205481565b6040519081526020015b60405180910390f35b61031161030c366004615145565b6107e5565b60405190151581526020016102f5565b610329610837565b6040516102f591906151b2565b61036a6103443660046151c5565b60a46020908152600092835260408084209091529082529020546001600160a01b031681565b6040516001600160a01b0390911681526020016102f5565b61036a6103903660046151e7565b6108c9565b6103a86103a3366004615200565b6108f0565b005b6103116103b83660046151e7565b610a0a565b6103d06103cb3660046151e7565b610af9565b6040516102f599989796959493929190615297565b6103a86103f3366004615200565b5050565b6104536104053660046151e7565b609d6020526000908152604090208054600182015460028301546003840154600485015460058601546006870154600788015460089098015496979596949593949293919290919060ff1689565b60408051998a5260208a0198909852968801959095526060870193909352608086019190915260a085015260c084015260e08301521515610100820152610120016102f5565b60995461036a906001600160a01b031681565b6103a86104ba3660046153da565b610d5a565b609a5461036a906001600160a01b031681565b6102eb606b5481565b6102eb6104e936600461541b565b60a96020526000908152604090205481565b6103a86105093660046153da565b610d8b565b6103a861051c3660046151e7565b610da6565b6102eb61052f36600461541b565b60a16020526000908152604090205481565b61036a61054f3660046151e7565b611418565b6102eb6105623660046151e7565b611478565b6102eb61057536600461541b565b611730565b61031161058836600461541b565b60a76020526000908152604090205460ff1681565b6103a86117b6565b609b5461036a906001600160a01b031681565b6102eb6105c63660046151c5565b6117dd565b6102eb6105d93660046151e7565b611c58565b6102eb6105ec366004615438565b611f6e565b6102eb6105ff3660046151c5565b612250565b60aa546001600160a01b031661036a565b6103a86106233660046151e7565b612286565b6102eb61063636600461541b565b60a66020526000908152604090205481565b6103296126be565b6102eb61065e3660046151c5565b6126cd565b610311610671366004615472565b6126fe565b61036a6106843660046151e7565b612937565b6103a8610697366004615497565b612961565b6102eb6106aa3660046151e7565b60a56020526000908152604090205481565b6103a861296c565b6103a86106d23660046154db565b6129ec565b6103a86106e536600461541b565b612a24565b6103296106f83660046151e7565b612b35565b6102eb61070b36600461541b565b60a06020526000908152604090205481565b6103a861072b3660046155cd565b612ba8565b6103a861073e3660046155cd565b612ee0565b6102eb61075136600461541b565b609f6020526000908152604090205481565b6103116107713660046150f6565b6001600160a01b039182166000908152606a6020908152604080832093909416825291909152205460ff1690565b6107b26107ad36600461541b565b613422565b6040516102f5919061561c565b6103a86107cd36600461541b565b6135c5565b6103a86107e03660046151e7565b613654565b60006001600160e01b031982166380ac58cd60e01b148061081657506001600160e01b03198216635b5e139f60e01b145b8061083157506301ffc9a760e01b6001600160e01b03198316145b92915050565b606060658054610846906156a9565b80601f0160208091040260200160405190810160405280929190818152602001828054610872906156a9565b80156108bf5780601f10610894576101008083540402835291602001916108bf565b820191906000526020600020905b8154815290600101906020018083116108a257829003601f168201915b5050505050905090565b60006108d4826136ca565b506000908152606960205260409020546001600160a01b031690565b60006108fb82611418565b9050806001600160a01b0316836001600160a01b03160361096d5760405162461bcd60e51b815260206004820152602160248201527f4552433732313a20617070726f76616c20746f2063757272656e74206f776e656044820152603960f91b60648201526084015b60405180910390fd5b336001600160a01b038216148061098957506109898133610771565b6109fb5760405162461bcd60e51b815260206004820152603d60248201527f4552433732313a20617070726f76652063616c6c6572206973206e6f7420746f60448201527f6b656e206f776e6572206f7220617070726f76656420666f7220616c6c0000006064820152608401610964565b610a058383613729565b505050565b6000610a14613797565b610a1e33836137f0565b610a605760405162461bcd60e51b815260206004820152601360248201527239b2b73232b91034b9903737ba1037bbb732b960691b6044820152606401610964565b6000828152609d602052604081208054600382019290925590610a8662093a80426156f9565b6006830155610a9862093a80426156f9565b610aa5906203f4806156f9565b6007830155600182015460405190815281907fb3b9c925de3673837b40c6b4d4463a8f88dc821cd27e07f1ff6bf6abf96413a59060200160405180910390a2600192505050610af4600160dd55565b919050565b609c8181548110610b0957600080fd5b60009182526020918290206040805161010081018252601890930290910180546001600160a01b03808216855260ff600160a01b8304169585019590955261ffff600160a81b909104169183019190915260018101549092166060820152600282018054929350909183916080840191610b82906156a9565b80601f0160208091040260200160405190810160405280929190818152602001828054610bae906156a9565b8015610bfb5780601f10610bd057610100808354040283529160200191610bfb565b820191906000526020600020905b815481529060010190602001808311610bde57829003601f168201915b50505091835250506003820154602080830191909152600483015460408084019190915260059093015460609283015282518084018452600686015481526007860154818301528351808501855260088701548152600987015481840152845160808082018752600a8901548252600b89015482860152600c89015482880152600d89015460ff1615158287015286519081018752600e890180548252600f8a01548287015260108a01548289015260118a018054895181890281018901909a52808a52999a9599949893979596929591949186019392909190830182828015610d0457602002820191906000526020600020905b815481526020019060010190808311610cf0575b5050509190925250506040805160608101825260128501546001600160a01b0316815260138501546020820152601485015491810191909152601584015460168501546017909501549394919390925060ff1689565b610d6433826137f0565b610d805760405162461bcd60e51b81526004016109649061570c565b610a0583838361386f565b610a05838383604051806020016040528060008152506129ec565b806000609c8281548110610dbc57610dbc615759565b6000918252602090912060408051610220810190915260189092020180546001600160a01b038082166101208501908152600160a01b830460ff16610140860152600160a81b90920461ffff1661016085015260018301541661018084015260028201805484929184916101a085019190610e36906156a9565b80601f0160208091040260200160405190810160405280929190818152602001828054610e62906156a9565b8015610eaf5780601f10610e8457610100808354040283529160200191610eaf565b820191906000526020600020905b815481529060010190602001808311610e9257829003601f168201915b505050918352505060038201546020808301919091526004830154604080840191909152600590930154606092830152928452815180830183526006860154815260078601548185015284840152815180830183526008860154815260098601548185015284830152815160808082018452600a8701548252600b87015482860152600c87015482850152600d87015460ff161515828401528583019190915282518082018452600e870180548252600f88015482870152601088015482860152601188018054865181890281018901909752808752939097019691959094938601939290830182828015610fc357602002820191906000526020600020905b815481526020019060010190808311610faf575b505050919092525050508152604080516060808201835260128501546001600160a01b039081168352601386015460208085019190915260148701548486015285019290925260158501549284019290925260168401548284015260179093015460ff1615156080909201919091528251015191925016331480611051575060aa546001600160a01b031633145b61108e5760405162461bcd60e51b815260206004820152600e60248201526d139bdd08185d5d1a1bdc9a5e995960921b6044820152606401610964565b6000609c84815481106110a3576110a3615759565b6000918252602090912060408051610220810190915260189092020180546001600160a01b038082166101208501908152600160a01b830460ff16610140860152600160a81b90920461ffff1661016085015260018301541661018084015260028201805484929184916101a08501919061111d906156a9565b80601f0160208091040260200160405190810160405280929190818152602001828054611149906156a9565b80156111965780601f1061116b57610100808354040283529160200191611196565b820191906000526020600020905b81548152906001019060200180831161117957829003601f168201915b505050918352505060038201546020808301919091526004830154604080840191909152600590930154606092830152928452815180830183526006860154815260078601548185015284840152815180830183526008860154815260098601548185015284830152815160808082018452600a8701548252600b87015482860152600c87015482850152600d87015460ff161515828401528583019190915282518082018452600e870180548252600f880154828701526010880154828601526011880180548651818902810189019097528087529390970196919590949386019392908301828280156112aa57602002820191906000526020600020905b815481526020019060010190808311611296575b505050919092525050508152604080516060808201835260128501546001600160a01b03168252601385015460208381019190915260148601548385015284019190915260158401549183019190915260168301549082015260179091015460ff1615156080909101526101008101519091501561136a5760405162461bcd60e51b815260206004820152601860248201527f506f6f6c206d75737420626520646561637469766174656400000000000000006044820152606401610964565b6000848152609e6020526040812054905b818110156113c1576000868152609e602052604081208054839081106113a3576113a3615759565b906000526020600020015490506113bb8160016139de565b5061137b565b508151606081015160408401515191516113e7926001600160a01b039091169190613bbf565b506000609c86815481106113fd576113fd615759565b60009182526020909120600860189092020101555050505050565b6000818152606760205260408120546001600160a01b0316806108315760405162461bcd60e51b8152602060048201526018602482015277115490cdcc8c4e881a5b9d985b1a59081d1bdad95b88125160421b6044820152606401610964565b600080609c838154811061148e5761148e615759565b6000918252602090912060408051610220810190915260189092020180546001600160a01b038082166101208501908152600160a01b830460ff16610140860152600160a81b90920461ffff1661016085015260018301541661018084015260028201805484929184916101a085019190611508906156a9565b80601f0160208091040260200160405190810160405280929190818152602001828054611534906156a9565b80156115815780601f1061155657610100808354040283529160200191611581565b820191906000526020600020905b81548152906001019060200180831161156457829003601f168201915b505050918352505060038201546020808301919091526004830154604080840191909152600590930154606092830152928452815180830183526006860154815260078601548185015284840152815180830183526008860154815260098601548185015284830152815160808082018452600a8701548252600b87015482860152600c87015482850152600d87015460ff161515828401528583019190915282518082018452600e870180548252600f8801548287015260108801548286015260118801805486518189028101890190975280875293909701969195909493860193929083018282801561169557602002820191906000526020600020905b815481526020019060010190808311611681575b505050919092525050508152604080516060808201835260128501546001600160a01b0316825260138501546020838101919091526014860154838501528085019290925260158501549284019290925260168401549183019190915260179092015460ff16151560809091015281810151908101519051919250611719916156f9565b815160c0015161172991906156f9565b9392505050565b60006001600160a01b03821661179a5760405162461bcd60e51b815260206004820152602960248201527f4552433732313a2061646472657373207a65726f206973206e6f7420612076616044820152683634b21037bbb732b960b91b6064820152608401610964565b506001600160a01b031660009081526068602052604090205490565b609c5460005b818110156103f3576117cd81612286565b6117d68161576f565b90506117bc565b60006117e7613797565b826000609c82815481106117fd576117fd615759565b6000918252602090912060408051610220810190915260189092020180546001600160a01b038082166101208501908152600160a01b830460ff16610140860152600160a81b90920461ffff1661016085015260018301541661018084015260028201805484929184916101a085019190611877906156a9565b80601f01602080910402602001604051908101604052809291908181526020018280546118a3906156a9565b80156118f05780601f106118c5576101008083540402835291602001916118f0565b820191906000526020600020905b8154815290600101906020018083116118d357829003601f168201915b505050918352505060038201546020808301919091526004830154604080840191909152600590930154606092830152928452815180830183526006860154815260078601548185015284840152815180830183526008860154815260098601548185015284830152815160808082018452600a8701548252600b87015482860152600c87015482850152600d87015460ff161515828401528583019190915282518082018452600e870180548252600f88015482870152601088015482860152601188018054865181890281018901909752808752939097019691959094938601939290830182828015611a0457602002820191906000526020600020905b8154815260200190600101908083116119f0575b505050919092525050508152604080516060808201835260128501546001600160a01b03168252601385015460208381019190915260148601548385015284019190915260158401549183019190915260168301549082015260179091015460ff161515608090910152610100810151909150611ab55760405162461bcd60e51b815260206004820152600f60248201526e706f6f6c206e6f742061637469766560881b6044820152606401610964565b6000609c8681548110611aca57611aca615759565b60009182526020808320601890920290910180546001600160a01b0316835260a9909152604090912054909150851015611b3a5760405162461bcd60e51b8152602060048201526011602482015270135a5b881cdd185ad9481b9bdd081b595d607a1b6044820152606401610964565b6000611b4587611478565b8254909150611b5f906001600160a01b0316333089613c2f565b506000611b6d883389613c75565b905086836000016004016000828254611b8691906156f9565b9091555050600383015460048401541115611bd95760405162461bcd60e51b8152602060048201526013602482015272115e18d959591959081c1bdbdb081b1a5b5a5d606a1b6044820152606401610964565b604051878152889033907f1449c6dd7851abc30abf37f57715f492010519147cc2652fbc38202c18a6ee909060200160405180910390a36000611c1b89611478565b60408051858152602081018390529192508a91600080516020615a33833981519152910160405180910390a250945050505050610831600160dd55565b600080609c8381548110611c6e57611c6e615759565b6000918252602090912060408051610220810190915260189092020180546001600160a01b038082166101208501908152600160a01b830460ff16610140860152600160a81b90920461ffff1661016085015260018301541661018084015260028201805484929184916101a085019190611ce8906156a9565b80601f0160208091040260200160405190810160405280929190818152602001828054611d14906156a9565b8015611d615780601f10611d3657610100808354040283529160200191611d61565b820191906000526020600020905b815481529060010190602001808311611d4457829003601f168201915b505050918352505060038201546020808301919091526004830154604080840191909152600590930154606092830152928452815180830183526006860154815260078601548185015284840152815180830183526008860154815260098601548185015284830152815160808082018452600a8701548252600b87015482860152600c87015482850152600d87015460ff161515828401528583019190915282518082018452600e870180548252600f88015482870152601088015482860152601188018054865181890281018901909752808752939097019691959094938601939290830182828015611e7557602002820191906000526020600020905b815481526020019060010190808311611e61575b505050919092525050508152604080516060808201835260128501546001600160a01b03168252601385015460208084019190915260148601548385015284019190915260158401548284015260168401549083015260179092015460ff16151560809182015282015151825160e001519151632500225b60e11b815260048101829052602481018390529293509173__$4defa815a6c8401eda00ac6be9b95d3cdb$__90634a0044b6906044015b602060405180830381865af4158015611f41573d6000803e3d6000fd5b505050506040513d601f19601f82011682018060405250810190611f659190615788565b95945050505050565b600080609c8581548110611f8457611f84615759565b6000918252602090912060408051610220810190915260189092020180546001600160a01b038082166101208501908152600160a01b830460ff16610140860152600160a81b90920461ffff1661016085015260018301541661018084015260028201805484929184916101a085019190611ffe906156a9565b80601f016020809104026020016040519081016040528092919081815260200182805461202a906156a9565b80156120775780601f1061204c57610100808354040283529160200191612077565b820191906000526020600020905b81548152906001019060200180831161205a57829003601f168201915b505050918352505060038201546020808301919091526004830154604080840191909152600590930154606092830152928452815180830183526006860154815260078601548185015284840152815180830183526008860154815260098601548185015284830152815160808082018452600a8701548252600b87015482860152600c87015482850152600d87015460ff161515828401528583019190915282518082018452600e870180548252600f8801548287015260108801548286015260118801805486518189028101890190975280875293909701969195909493860193929083018282801561218b57602002820191906000526020600020905b815481526020019060010190808311612177575b505050919092525050508152604080516060808201835260128501546001600160a01b03168252601385015460208084019190915260148601548385015284019190915260158401548284015260168401549083015260179092015460ff161515608090910152815160a081015160e0909101519151630d17449160e21b815260048101889052602481018790526044810191909152606481019190915290915073__$4defa815a6c8401eda00ac6be9b95d3cdb$__9063345d124490608401611f24565b60006301e1338061271062093a8061226885876157a1565b61227291906157a1565b61227c91906157b8565b61172991906157b8565b6000609c828154811061229b5761229b615759565b6000918252602090912060408051610220810190915260189092020180546001600160a01b038082166101208501908152600160a01b830460ff16610140860152600160a81b90920461ffff1661016085015260018301541661018084015260028201805484929184916101a085019190612315906156a9565b80601f0160208091040260200160405190810160405280929190818152602001828054612341906156a9565b801561238e5780601f106123635761010080835404028352916020019161238e565b820191906000526020600020905b81548152906001019060200180831161237157829003601f168201915b505050918352505060038201546020808301919091526004830154604080840191909152600590930154606092830152928452815180830183526006860154815260078601548185015284840152815180830183526008860154815260098601548185015284830152815160808082018452600a8701548252600b87015482860152600c87015482850152600d87015460ff161515828401528583019190915282518082018452600e870180548252600f880154828701526010880154828601526011880180548651818902810189019097528087529390970196919590949386019392908301828280156124a257602002820191906000526020600020905b81548152602001906001019080831161248e575b505050919092525050508152604080516060808201835260128501546001600160a01b03168252601385015460208381019190915260148601548385015284019190915260158401549183019190915260168301548183015260179092015460ff16151560809182015282015101518051919250908015806125275750826101000151155b156125325750505050565b60005b8181101561256f5761255f83828151811061255257612552615759565b6020026020010151613f74565b6125688161576f565b9050612535565b506000848152609e60209081526040808320805482518185028101850190935280835291929091908301828280156125c657602002820191906000526020600020905b8154815260200190600101908083116125b2575b5050835193945060009250829150505b828110156126585760008482815181106125f2576125f2615759565b602002602001015190506000609d6000838152602001908152602001600020905061261e8260006139de565b600181015461262e8b8287611f6e565b6003830155600282015461264290866156f9565b9450505050806126519061576f565b90506125d6565b5080609c888154811061266d5761266d615759565b6000918252602090912060106018909202010155609c80548890811061269557612695615759565b9060005260206000209060180201600e0160030160006126b59190615015565b50505050505050565b606060668054610846906156a9565b609e60205281600052604060002081815481106126e957600080fd5b90600052602060002001600091509150505481565b6000612708613797565b61271233846137f0565b6127545760405162461bcd60e51b815260206004820152601360248201527239b2b73232b91034b9903737ba1037bbb732b960691b6044820152606401610964565b6000838152609d602052604081208054609c8054929391928390811061277c5761277c615759565b90600052602060002090601802019050428160150154111561280c574283600601541080156127ae5750428360070154115b61280c5760405162461bcd60e51b815260206004820152602960248201527f54696d656c6f636b206e6f7420736574206f72206e6f7420636f6d706c6574656044820152686420696e2074696d6560b81b6064820152608401610964565b61281686866139de565b60018301805460009182905560068501829055600785018290559061283a84611478565b9050861561284b5761284b88614161565b811561288e578183600001600401600082825461286891906157da565b9091555061288c905061287a89611418565b84546001600160a01b03169084613bbf565b505b604051828152849033907f7fc4727e062e336010f2c282598ef5f14facb3de68cf8195c2f23e1454b2b74e9060200160405180910390a360006128d085611478565b60408051848152602081018390529192508691600080516020615a33833981519152910160405180910390a2600886015460ff166129235760118401805460018101825560009182526020909120018990555b60019650505050505050610831600160dd55565b60a8818154811061294757600080fd5b6000918252602090912001546001600160a01b0316905081565b6103f3338383614202565b60ab546001600160a01b031633146129d55760405162461bcd60e51b815260206004820152602660248201527f6f6e6c792070656e64696e67206f776e65722063616e2061636365707420747260448201526530b739b332b960d11b6064820152608401610964565b60ab546129ea906001600160a01b03166142d0565b565b6129f633836137f0565b612a125760405162461bcd60e51b81526004016109649061570c565b612a1e8484848461432d565b50505050565b600054610100900460ff1615808015612a445750600054600160ff909116105b80612a5e5750303b158015612a5e575060005460ff166001145b612ac15760405162461bcd60e51b815260206004820152602e60248201527f496e697469616c697a61626c653a20636f6e747261637420697320616c72656160448201526d191e481a5b9a5d1a585b1a5e995960921b6064820152608401610964565b6000805460ff191660011790558015612ae4576000805461ff0019166101001790555b612aec614360565b80156103f3576000805461ff0019169055604051600181527f7f26b83ff96e1f2b6a682f133852f6798a09c465da95921460cefb38474024989060200160405180910390a15050565b6060612b40826136ca565b6000612b5760408051602081019091526000815290565b90506000815111612b775760405180602001604052806000815250611729565b80612b818461438f565b604051602001612b929291906157ed565b6040516020818303038152906040529392505050565b612bb0614423565b6000609c8581548110612bc557612bc5615759565b9060005260206000209060180201905042816015015411612c225760405162461bcd60e51b815260206004820152601760248201527641737365736d656e7420706572696f6420626f756e747960481b6044820152606401610964565b6127108361ffff161115612c6a5760405162461bcd60e51b815260206004820152600f60248201526e0a0c2f2deeae840e8dede40d0d2ced608b1b6044820152606401610964565b6127108261ffff161115612cb15760405162461bcd60e51b815260206004820152600e60248201526d084dedceae640e8dede40d0d2ced60931b6044820152606401610964565b612cba8561447d565b5060068101546000612710612cd361ffff8716846157a1565b612cdd91906157b8565b905080836006016000016000828254612cf691906157da565b9091555060009050612710612d0f61ffff8716826157da565b612710612d1e6103e8866157a1565b612d2891906157b8565b612d3291906157a1565b612d3c91906157b8565b60148501546013860154601287015460405163fc76fff360e01b815260048101859052602481019390935260448301919091526001600160a01b031660648201529091506000908190819073__$4defa815a6c8401eda00ac6be9b95d3cdb$__9063fc76fff390608401606060405180830381865af4158015612dc3573d6000803e3d6000fd5b505050506040513d601f19601f82011682018060405250810190612de7919061581c565b895492955090935091506001600160a01b0316612e058282856145de565b6001600160a01b0381166000908152609f602052604081208054869290612e2d9084906156f9565b90915550612e5290508b612e4187896157da565b6001600160a01b0384169190613bbf565b50806001600160a01b03168b6001600160a01b03167fbcbf239e05ac65bcc1a5612cd36d392b0a0aa8c93e027bc86e7276874834248888604051612e9891815260200190565b60405180910390a38b600080516020615a3383398151915288612eba8f611478565b6040805192835260208301919091520160405180910390a2505050505050505050505050565b612ee8614423565b60008490506000609c8281548110612f0257612f02615759565b9060005260206000209060180201905042816015015410612f5f5760405162461bcd60e51b815260206004820152601760248201527641737365736d656e7420706572696f6420626f756e747960481b6044820152606401610964565b6127108461ffff161115612fa75760405162461bcd60e51b815260206004820152600f60248201526e0a0c2f2deeae840e8dede40d0d2ced608b1b6044820152606401610964565b6127108361ffff161115612fee5760405162461bcd60e51b815260206004820152600e60248201526d084dedceae640e8dede40d0d2ced60931b6044820152606401610964565b60048101546000908161300085611478565b9050600061271061301561ffff8a16846157a1565b61301f91906157b8565b6000878152609e6020526040902054909150838210156131235760008461304e670de0b6b3a7640000856157a1565b61305891906157b8565b905060005b8281101561311c576000898152609e6020526040812080548390811061308557613085615759565b90600052602060002001549050609d600082815260200190815260200160002097506130b28160006139de565b6000670de0b6b3a7640000848a600101546130cd91906157a1565b6130d791906157b8565b9050808960010160008282546130ed91906157da565b909155505060048a0180548291906000906131099084906157da565b90915550506001909201915061305d9050565b505061324b565b8382101580156131335750828211155b156132115760005b818110156131ce576000888152609e6020526040812080548390811061316357613163615759565b90600052602060002001549050609d600082815260200190815260200160002096506131908160006139de565b6000600188018190556003880155600887015460ff166131c55760118801805460018101825560009182526020909120018190555b5060010161313b565b50600060048701556131df8761447d565b5060006131ec85846157da565b90508087600601600001600082825461320591906157da565b9091555061324b915050565b60405162461bcd60e51b815260206004820152600f60248201526e082dadeeadce840e8dede40d0d2ced608b1b6044820152606401610964565b600061271061325e61ffff8b16826157da565b61271061326d6103e8876157a1565b61327791906157b8565b61328191906157a1565b61328b91906157b8565b6014880154601389015460128a015460405163fc76fff360e01b815260048101859052602481019390935260448301919091526001600160a01b031660648201529091506000908190819073__$4defa815a6c8401eda00ac6be9b95d3cdb$__9063fc76fff390608401606060405180830381865af4158015613312573d6000803e3d6000fd5b505050506040513d601f19601f82011682018060405250810190613336919061581c565b8c5492955090935091506001600160a01b03166133548282856145de565b6001600160a01b0381166000908152609f60205260408120805486929061337c9084906156f9565b9091555061339090508f612e41878a6157da565b50806001600160a01b03168f6001600160a01b03167fbcbf239e05ac65bcc1a5612cd36d392b0a0aa8c93e027bc86e72768748342488896040516133d691815260200190565b60405180910390a38b600080516020615a33833981519152896133f88f611478565b6040805192835260208301919091520160405180910390a250505050505050505050505050505050565b6001600160a01b0381166000908152606c6020908152604080832080548251818502810185019093528083526060949383018282801561348157602002820191906000526020600020905b81548152602001906001019080831161346d575b50508351939450839250505067ffffffffffffffff8111156134a5576134a56154c5565b6040519080825280602002602001820160405280156134de57816020015b6134cb615033565b8152602001906001900390816134c35790505b50925060005b818110156135bd57609d600084838151811061350257613502615759565b602002602001015181526020019081526020016000206040518061012001604052908160008201548152602001600182015481526020016002820154815260200160038201548152602001600482015481526020016005820154815260200160068201548152602001600782015481526020016008820160009054906101000a900460ff1615151515815250508482815181106135a1576135a1615759565b6020026020010181905250806135b69061576f565b90506134e4565b505050919050565b6135cd614423565b6001600160a01b0381166136325760405162461bcd60e51b815260206004820152602660248201527f4f776e61626c653a206e6577206f776e657220697320746865207a65726f206160448201526564647265737360d01b6064820152608401610964565b60ab80546001600160a01b0319166001600160a01b0392909216919091179055565b61365c613797565b61366633826137f0565b6136825760405162461bcd60e51b81526004016109649061570c565b61368d8160016139de565b6000818152609d602052604081206001015490036136ae576136ae81614161565b6136b8600160dd55565b50565b6001600160a01b03163b151590565b6000818152606760205260409020546001600160a01b03166136b85760405162461bcd60e51b8152602060048201526018602482015277115490cdcc8c4e881a5b9d985b1a59081d1bdad95b88125160421b6044820152606401610964565b600081815260696020526040902080546001600160a01b0319166001600160a01b038416908117909155819061375e82611418565b6001600160a01b03167f8c5be1e5ebec7d5bd14f71427d1e84f3dd0314c0f7b2291e5b200ac8c7c3b92560405160405180910390a45050565b600260dd54036137e95760405162461bcd60e51b815260206004820152601f60248201527f5265656e7472616e637947756172643a207265656e7472616e742063616c6c006044820152606401610964565b600260dd55565b6000806137fc83611418565b9050806001600160a01b0316846001600160a01b0316148061384357506001600160a01b038082166000908152606a602090815260408083209388168352929052205460ff165b806138675750836001600160a01b031661385c846108c9565b6001600160a01b0316145b949350505050565b826001600160a01b031661388282611418565b6001600160a01b0316146138a85760405162461bcd60e51b815260040161096490615855565b6001600160a01b03821661390a5760405162461bcd60e51b8152602060048201526024808201527f4552433732313a207472616e7366657220746f20746865207a65726f206164646044820152637265737360e01b6064820152608401610964565b61391583838361462e565b826001600160a01b031661392882611418565b6001600160a01b03161461394e5760405162461bcd60e51b815260040161096490615855565b600081815260696020908152604080832080546001600160a01b03199081169091556001600160a01b0387811680865260688552838620805460001901905590871680865283862080546001019055868652606790945282852080549092168417909155905184937fddf252ad1be2c89b69c2b068fc378daa952ba7f163c4a11628f55a4df523b3ef91a4505050565b6000828152609d602052604081208054609c80549293919283908110613a0657613a06615759565b90600052602060002090601802019050600080600073__$4defa815a6c8401eda00ac6be9b95d3cdb$__63ad6fa2338560160154886005015489600101548a600301548b600401546040518663ffffffff1660e01b8152600401613a8c959493929190948552602085019390935260408401919091526060830152608082015260a00190565b606060405180830381865af4158015613aa9573d6000803e3d6000fd5b505050506040513d601f19601f82011682018060405250810190613acd919061589a565b92509250925086613b1b578360160154600003613aea5742613af0565b83601601545b866005018190555080866004016000828254613b0c91906156f9565b90915550505050505050505050565b6008840154831115613b3157613b3185846146c4565b8215613bb55760006004870181905560168501549003613b515742613b57565b83601601545b6005870155600884018054849190600090613b739084906157da565b9091555050600984018054839190600090613b8f9084906157da565b90915550613bb39050613ba189611418565b85546001600160a01b03169084613bbf565b505b5050505050505050565b6040516001600160a01b038316602482015260448101829052600090613c2590859063a9059cbb60e01b906064015b60408051601f198184030181529190526020810180516001600160e01b03166001600160e01b0319909316929092179091526148e0565b5060019392505050565b6040516001600160a01b0380851660248301528316604482015260648101829052600090613c6a9086906323b872dd60e01b90608401613bee565b506001949350505050565b60006001600160a01b038316613ccd5760405162461bcd60e51b815260206004820152601f60248201527f45524332303a206d696e7420746f20746865207a65726f2061646472657373006044820152606401610964565b6000613d018584609c8881548110613ce757613ce7615759565b9060005260206000209060180201600e0160000154611f6e565b90506000613d0e856149b2565b9050613d18615033565b86815260208101859052609c805460009173__$4defa815a6c8401eda00ac6be9b95d3cdb$__9163098952389189918c908110613d5757613d57615759565b9060005260206000209060180201600001600301546040518363ffffffff1660e01b8152600401613d92929190918252602082015260400190565b6040805180830381865af4158015613dae573d6000803e3d6000fd5b505050506040513d601f19601f82011682018060405250810190613dd291906158c8565b509050674563918244f4000081609c8a81548110613df257613df2615759565b9060005260206000209060180201600e0160020154613e1191906156f9565b1115613e555760405162461bcd60e51b81526020600482015260136024820152721608189bdd5b99185c9e481d9a5bdb185d1959606a1b6044820152606401610964565b6040828101828152606084018681524260a086019081526000878152609d602090815285822088518155818901516001808301919091559551600282015593516003850155608088015160048501559151600584015560c0870151600684015560e087015160078401556101008701516008909301805460ff1916931515939093179092558b8252609e81529281208054928301815581529190912001839055609c80548291908a908110613f0c57613f0c615759565b9060005260206000209060180201600e016002016000828254613f2f91906156f9565b92505081905550613f6788609c8a81548110613f4d57613f4d615759565b9060005260206000209060180201600e0160020154614b63565b5091979650505050505050565b6000818152609d6020908152604080832081516101208101835281548082526001830154828601526002830154828501526003830154606083015260048301546080830152600583015460a0830152600683015460c0830152600783015460e083015260089092015460ff161515610100820152818552609e845282852080548451818702810187019095528085529195929492939290919083018282801561403c57602002820191906000526020600020905b815481526020019060010190808311614028575b5050835193945060009250829150505b8281101561408c578684828151811061406757614067615759565b60200260200101510361407c5780915061408c565b6140858161576f565b905061404c565b508181106140dc5760405162461bcd60e51b815260206004820152601860248201527f546f6b656e206e6f7420666f756e6420696e20617272617900000000000000006044820152606401610964565b805b6140e96001846157da565b81101561414157836140fc8260016156f9565b8151811061410c5761410c615759565b602002602001015184828151811061412657614126615759565b602090810291909101015261413a8161576f565b90506140de565b506000848152609e6020908152604090912084516126b592860190615081565b600061416c82611418565b905061417a8160008461462e565b61418382611418565b600083815260696020908152604080832080546001600160a01b03199081169091556001600160a01b0385168085526068845282852080546000190190558785526067909352818420805490911690555192935084927fddf252ad1be2c89b69c2b068fc378daa952ba7f163c4a11628f55a4df523b3ef908390a45050565b816001600160a01b0316836001600160a01b0316036142635760405162461bcd60e51b815260206004820152601960248201527f4552433732313a20617070726f766520746f2063616c6c6572000000000000006044820152606401610964565b6001600160a01b038381166000818152606a6020908152604080832094871680845294825291829020805460ff191686151590811790915591519182527f17307eab39ab6107e8899845ad3d59bd9653f200f220920489ca2b5937696c31910160405180910390a3505050565b60aa80546001600160a01b038381166001600160a01b0319808416821790945560ab80549094169093556040519116919082907f8be0079c531659141344cd1fd0a4f28419497f9722a3daafe3b4186f6b6457e090600090a35050565b61433884848461386f565b61434484848484614b96565b612a1e5760405162461bcd60e51b8152600401610964906158ec565b600054610100900460ff166143875760405162461bcd60e51b81526004016109649061593e565b6129ea614c94565b6060600061439c83614cc4565b600101905060008167ffffffffffffffff8111156143bc576143bc6154c5565b6040519080825280601f01601f1916602001820160405280156143e6576020820181803683370190505b5090508181016020015b600019016f181899199a1a9b1b9c1cb0b131b232b360811b600a86061a8153600a85049450846143f0575b509392505050565b60aa546001600160a01b031633146129ea5760405162461bcd60e51b815260206004820181905260248201527f4f776e61626c653a2063616c6c6572206973206e6f7420746865206f776e65726044820152606401610964565b600080609c838154811061449357614493615759565b6000918252602080832086845260a5909152604083208054908490556018909202019250801561441b57600085815260a4602090815260408083208484528252808320548151637f1f087360e01b815291516001600160a01b0390911693928492637f1f08739260048083019392829003018187875af115801561451b573d6000803e3d6000fd5b505050506040513d601f19601f8201168201806040525081019061453f9190615788565b6040516348b1933560e01b8152600481018290529091506001600160a01b038316906348b19335906024016020604051808303816000875af1158015614589573d6000803e3d6000fd5b505050506040513d601f19601f820116820180604052508101906145ad9190615788565b60006007870181905560068701805492965086929091906145cf9084906156f9565b90915550505050509392505050565b6001600160a01b03831615610a05576001600160a01b03808416600090815260a260209081526040808320938616835292905290812080548392906146249084906156f9565b9091555050505050565b816001600160a01b0316836001600160a01b03161415801561465857506001600160a01b03831615155b15614667576146678382614d9c565b826001600160a01b0316826001600160a01b03161415801561469157506001600160a01b03821615155b15610a05576001600160a01b03919091166000908152606c60209081526040822080546001810182559083529120015550565b6000609c83815481106146d9576146d9615759565b60009182526020822060189190910201600881015460038201548254929450859261470f9190600160a81b900461ffff16612250565b61471991906157da565b61472391906156f9565b60018301548354919250614745916001600160a01b0390811691163084613c2f565b508082600801600001600082825461475d91906156f9565b90915550600090506127106147746103e8846157a1565b61477e91906157b8565b60148401546013850154601286015460405163fc76fff360e01b815260048101859052602481019390935260448301919091526001600160a01b031660648201529091506000908190819073__$4defa815a6c8401eda00ac6be9b95d3cdb$__9063fc76fff390608401606060405180830381865af4158015614805573d6000803e3d6000fd5b505050506040513d601f19601f82011682018060405250810190614829919061581c565b885492955090935091506001600160a01b03166148478282856145de565b6001600160a01b038116600090815260a060205260408120805486929061486f9084906156f9565b909155506000905061488186886157da565b90508088600801600101600082825461489a91906156f9565b90915550506040518781528a907fadb049ad2d09be3db90459a16aef1ad0a4d89e8fdcc1ade9429d6cc55abbcd2b9060200160405180910390a250505050505050505050565b6000614935826040518060400160405280602081526020017f5361666545524332303a206c6f772d6c6576656c2063616c6c206661696c6564815250856001600160a01b0316614ef29092919063ffffffff16565b805190915015610a0557808060200190518101906149539190615989565b610a055760405162461bcd60e51b815260206004820152602a60248201527f5361666545524332303a204552433230206f7065726174696f6e20646964206e6044820152691bdd081cdd58d8d9595960b21b6064820152608401610964565b600080606b600081546149c49061576f565b918290555090506001600160a01b038316614a215760405162461bcd60e51b815260206004820181905260248201527f4552433732313a206d696e7420746f20746865207a65726f20616464726573736044820152606401610964565b6000818152606760205260409020546001600160a01b031615614a865760405162461bcd60e51b815260206004820152601c60248201527f4552433732313a20746f6b656e20616c7265616479206d696e746564000000006044820152606401610964565b614a926000848361462e565b6000818152606760205260409020546001600160a01b031615614af75760405162461bcd60e51b815260206004820152601c60248201527f4552433732313a20746f6b656e20616c7265616479206d696e746564000000006044820152606401610964565b6001600160a01b038316600081815260686020908152604080832080546001019055848352606790915280822080546001600160a01b0319168417905551839291907fddf252ad1be2c89b69c2b068fc378daa952ba7f163c4a11628f55a4df523b3ef908290a4610831565b600081609c8481548110614b7957614b79615759565b60009182526020909120600e601890920201015550600192915050565b60006001600160a01b0384163b15614c8c57604051630a85bd0160e11b81526001600160a01b0385169063150b7a0290614bda9033908990889088906004016159a6565b6020604051808303816000875af1925050508015614c15575060408051601f3d908101601f19168201909252614c12918101906159e3565b60015b614c72573d808015614c43576040519150601f19603f3d011682016040523d82523d6000602084013e614c48565b606091505b508051600003614c6a5760405162461bcd60e51b8152600401610964906158ec565b805181602001fd5b6001600160e01b031916630a85bd0160e11b149050613867565b506001613867565b600054610100900460ff16614cbb5760405162461bcd60e51b81526004016109649061593e565b6129ea336142d0565b60008072184f03e93ff9f4daa797ed6e38ed64bf6a1f0160401b8310614d035772184f03e93ff9f4daa797ed6e38ed64bf6a1f0160401b830492506040015b6d04ee2d6d415b85acef81000000008310614d2f576d04ee2d6d415b85acef8100000000830492506020015b662386f26fc100008310614d4d57662386f26fc10000830492506010015b6305f5e1008310614d65576305f5e100830492506008015b6127108310614d7957612710830492506004015b60648310614d8b576064830492506002015b600a83106108315760010192915050565b6001600160a01b0382166000908152606c6020908152604080832080548251818502810185019093528083529192909190830182828015614dfc57602002820191906000526020600020905b815481526020019060010190808311614de8575b505083519394506000925050505b81811015614eeb5783838281518110614e2557614e25615759565b602002602001015103614edb5782614e3e6001846157da565b81518110614e4e57614e4e615759565b6020026020010151838281518110614e6857614e68615759565b6020908102919091018101919091526001600160a01b0386166000908152606c8252604090208451614e9c92860190615081565b506001600160a01b0385166000908152606c60205260409020805480614ec457614ec4615a00565b600190038181906000526020600020016000905590555b614ee48161576f565b9050614e0a565b5050505050565b6060613867848460008585600080866001600160a01b03168587604051614f199190615a16565b60006040518083038185875af1925050503d8060008114614f56576040519150601f19603f3d011682016040523d82523d6000602084013e614f5b565b606091505b5091509150614f6c87838387614f77565b979650505050505050565b60608315614fe6578251600003614fdf576001600160a01b0385163b614fdf5760405162461bcd60e51b815260206004820152601d60248201527f416464726573733a2063616c6c20746f206e6f6e2d636f6e74726163740000006044820152606401610964565b5081613867565b6138678383815115614ffb5781518083602001fd5b8060405162461bcd60e51b815260040161096491906151b2565b50805460008255906000526020600020908101906136b891906150cc565b60405180610120016040528060008152602001600081526020016000815260200160008152602001600081526020016000815260200160008152602001600081526020016000151581525090565b8280548282559060005260206000209081019282156150bc579160200282015b828111156150bc5782518255916020019190600101906150a1565b506150c89291506150cc565b5090565b5b808211156150c857600081556001016150cd565b6001600160a01b03811681146136b857600080fd5b6000806040838503121561510957600080fd5b8235615114816150e1565b91506020830135615124816150e1565b809150509250929050565b6001600160e01b0319811681146136b857600080fd5b60006020828403121561515757600080fd5b81356117298161512f565b60005b8381101561517d578181015183820152602001615165565b50506000910152565b6000815180845261519e816020860160208601615162565b601f01601f19169290920160200192915050565b6020815260006117296020830184615186565b600080604083850312156151d857600080fd5b50508035926020909101359150565b6000602082840312156151f957600080fd5b5035919050565b6000806040838503121561521357600080fd5b823561521e816150e1565b946020939093013593505050565b60006080830182518452602080840151818601526040840151604086015260608401516080606087015282815180855260a0880191508383019450600092505b8083101561528c578451825293830193600192909201919083019061526c565b509695505050505050565b6102008082528a516001600160a01b039081169183019190915260208b015160ff1661022083015260408b015161ffff1661024083015260608b01511661026082015260808a01516101006102808301526000906152f9610300840182615186565b905060a08c01516102a084015260c08c01516102c084015260e08c01516102e0840152615333602084018c80518252602090810151910152565b8951606084015260208a01516080840152885160a0840152602089015160c0840152604089015160e08401526060890151151561010084015282810361012084015261537f818961522c565b87516001600160a01b03166101408501526020880151610160850152604088015161018085015291506153af9050565b846101a0830152836101c08301526153cc6101e083018415159052565b9a9950505050505050505050565b6000806000606084860312156153ef57600080fd5b83356153fa816150e1565b9250602084013561540a816150e1565b929592945050506040919091013590565b60006020828403121561542d57600080fd5b8135611729816150e1565b60008060006060848603121561544d57600080fd5b505081359360208301359350604090920135919050565b80151581146136b857600080fd5b6000806040838503121561548557600080fd5b82359150602083013561512481615464565b600080604083850312156154aa57600080fd5b82356154b5816150e1565b9150602083013561512481615464565b634e487b7160e01b600052604160045260246000fd5b600080600080608085870312156154f157600080fd5b84356154fc816150e1565b9350602085013561550c816150e1565b925060408501359150606085013567ffffffffffffffff8082111561553057600080fd5b818701915087601f83011261554457600080fd5b813581811115615556576155566154c5565b604051601f8201601f19908116603f0116810190838211818310171561557e5761557e6154c5565b816040528281528a602084870101111561559757600080fd5b82602086016020830137600060208483010152809550505050505092959194509250565b803561ffff81168114610af457600080fd5b600080600080608085870312156155e357600080fd5b8435935060208501356155f5816150e1565b9250615603604086016155bb565b9150615611606086016155bb565b905092959194509250565b602080825282518282018190526000919060409081850190868401855b82811015613f675781518051855286810151878601528581015186860152606080820151908601526080808201519086015260a0808201519086015260c0808201519086015260e08082015190860152610100908101511515908501526101209093019290850190600101615639565b600181811c908216806156bd57607f821691505b6020821081036156dd57634e487b7160e01b600052602260045260246000fd5b50919050565b634e487b7160e01b600052601160045260246000fd5b80820180821115610831576108316156e3565b6020808252602d908201527f4552433732313a2063616c6c6572206973206e6f7420746f6b656e206f776e6560408201526c1c881bdc88185c1c1c9bdd9959609a1b606082015260800190565b634e487b7160e01b600052603260045260246000fd5b600060018201615781576157816156e3565b5060010190565b60006020828403121561579a57600080fd5b5051919050565b8082028115828204841417610831576108316156e3565b6000826157d557634e487b7160e01b600052601260045260246000fd5b500490565b81810381811115610831576108316156e3565b600083516157ff818460208801615162565b835190830190615813818360208801615162565b01949350505050565b60008060006060848603121561583157600080fd5b8351925060208401519150604084015161584a816150e1565b809150509250925092565b60208082526025908201527f4552433732313a207472616e736665722066726f6d20696e636f72726563742060408201526437bbb732b960d91b606082015260800190565b6000806000606084860312156158af57600080fd5b8351925060208401519150604084015190509250925092565b600080604083850312156158db57600080fd5b505080516020909101519092909150565b60208082526032908201527f4552433732313a207472616e7366657220746f206e6f6e20455243373231526560408201527131b2b4bb32b91034b6b83632b6b2b73a32b960711b606082015260800190565b6020808252602b908201527f496e697469616c697a61626c653a20636f6e7472616374206973206e6f74206960408201526a6e697469616c697a696e6760a81b606082015260800190565b60006020828403121561599b57600080fd5b815161172981615464565b6001600160a01b03858116825284166020820152604081018390526080606082018190526000906159d990830184615186565b9695505050505050565b6000602082840312156159f557600080fd5b81516117298161512f565b634e487b7160e01b600052603160045260246000fd5b60008251615a28818460208701615162565b919091019291505056fea3ea4fb8dee4d414198cb197af6eae4fe483c1a0b849dc50e53b9bf1a60e2166a26469706673582212209e44e50a6a96590b9e41fd4c1286024fbca1cc05714f247266ee58c728bd3edc64736f6c63430008110033496e697469616c697a61626c653a20636f6e7472616374206973206e6f742069",
    "linkReferences": {
      "src/lib/SaloonLib.sol": {
        "SaloonLib": [
          {
            "start": 8973,
            "length": 20
          },
          {
            "start": 9781,
            "length": 20
          },
          {
            "start": 12688,
            "length": 20
          },
          {
            "start": 14047,
            "length": 20
          },
          {
            "start": 15908,
            "length": 20
          },
          {
            "start": 16690,
            "length": 20
          },
          {
            "start": 19410,
            "length": 20
          }
        ]
      }
    }
  },
  "methodIdentifiers": {
    "acceptOwnershipTransfer()": "b842e87f",
    "activeStrategies(uint256)": "b20b2429",
    "activeTokens(uint256)": "9f224f35",
    "approve(address,uint256)": "095ea7b3",
    "balanceOf(address)": "70a08231",
    "calcRequiredPremiumBalancePerPeriod(uint256,uint256)": "836ef1fa",
    "calculateEffectiveAPY(uint256,uint256,uint256)": "81c6f1a7",
    "claimPremium(uint256)": "f47ec3be",
    "consolidate(uint256)": "949a4a4a",
    "consolidateAll()": "75bfd63d",
    "getAllTokensByOwner(address)": "e9fda7d4",
    "getApproved(uint256)": "081812fc",
    "getCurrentAPY(uint256)": "7fbf3853",
    "index()": "2986c0e5",
    "initialize(address)": "c4d66de8",
    "isApprovedForAll(address,address)": "e985e9c5",
    "minTokenStakeAmount(address)": "39458723",
    "name()": "06fdde03",
    "nftInfo(uint256)": "1f8bc790",
    "owner()": "8da5cb5b",
    "ownerOf(uint256)": "6352211e",
    "payBounty(uint256,address,uint16,uint16)": "d075afac",
    "payBountyDuringAssessment(uint256,address,uint16,uint16)": "cfd54bfa",
    "pidNFTList(uint256,uint256)": "96ea48e8",
    "pidStrategies(uint256,bytes32)": "074ecf03",
    "poolInfo(uint256)": "1526fe27",
    "receiveStrategyYield(address,uint256)": "1aebcecb",
    "referralBalances(address,address)": "011b408b",
    "safeTransferFrom(address,address,uint256)": "42842e0e",
    "safeTransferFrom(address,address,uint256,bytes)": "b88d4fde",
    "saloonBounty()": "79923898",
    "saloonBountyProfit(address)": "e45abd0f",
    "saloonManager()": "220e1124",
    "saloonPremiumProfit(address)": "ca006148",
    "saloonProjectPortal()": "277fd2a1",
    "saloonStrategyProfit(address)": "598d17bf",
    "scheduleUnstake(uint256)": "106d08df",
    "setApprovalForAll(address,bool)": "a22cb465",
    "stake(uint256,uint256)": "7b0472f0",
    "strategyAddressToPid(address)": "957deecc",
    "supportsInterface(bytes4)": "01ffc9a7",
    "symbol()": "95d89b41",
    "tokenURI(uint256)": "c87b56dd",
    "tokenWhitelist(address)": "753d7563",
    "transferFrom(address,address,uint256)": "23b872dd",
    "transferOwnership(address)": "f2fde38b",
    "unstake(uint256,bool)": "9ebea88c",
    "viewBountyBalance(uint256)": "6ac6d812",
    "withdrawRemainingAPY(uint256)": "4ef19f63"
  },
  "id": 46
}