{
  "abi": [
    {
      "anonymous": false,
      "inputs": [
        {
          "indexed": false,
          "internalType": "address",
          "name": "previousAdmin",
          "type": "address"
        },
        {
          "indexed": false,
          "internalType": "address",
          "name": "newAdmin",
          "type": "address"
        }
      ],
      "name": "AdminChanged",
      "type": "event"
    },
    {
      "anonymous": false,
      "inputs": [
        {
          "indexed": true,
          "internalType": "address",
          "name": "beacon",
          "type": "address"
        }
      ],
      "name": "BeaconUpgraded",
      "type": "event"
    },
    {
      "anonymous": false,
      "inputs": [
        {
          "indexed": true,
          "internalType": "uint256",
          "name": "pid",
          "type": "uint256"
        },
        {
          "indexed": false,
          "internalType": "uint256",
          "name": "oldAmount",
          "type": "uint256"
        },
        {
          "indexed": false,
          "internalType": "uint256",
          "name": "newAmount",
          "type": "uint256"
        }
      ],
      "name": "BountyBalanceChanged",
      "type": "event"
    },
    {
      "anonymous": false,
      "inputs": [
        {
          "indexed": true,
          "internalType": "address",
          "name": "hunter",
          "type": "address"
        },
        {
          "indexed": true,
          "internalType": "address",
          "name": "token",
          "type": "address"
        },
        {
          "indexed": false,
          "internalType": "uint256",
          "name": "amount",
          "type": "uint256"
        }
      ],
      "name": "BountyPaid",
      "type": "event"
    },
    {
      "anonymous": false,
      "inputs": [
        {
          "indexed": false,
          "internalType": "uint8",
          "name": "version",
          "type": "uint8"
        }
      ],
      "name": "Initialized",
      "type": "event"
    },
    {
      "anonymous": false,
      "inputs": [
        {
          "indexed": true,
          "internalType": "uint256",
          "name": "pid",
          "type": "uint256"
        },
        {
          "indexed": true,
          "internalType": "address",
          "name": "token",
          "type": "address"
        },
        {
          "indexed": false,
          "internalType": "uint256",
          "name": "tokenDecimals",
          "type": "uint256"
        }
      ],
      "name": "NewBountyDeployed",
      "type": "event"
    },
    {
      "anonymous": false,
      "inputs": [
        {
          "indexed": true,
          "internalType": "address",
          "name": "previousOwner",
          "type": "address"
        },
        {
          "indexed": true,
          "internalType": "address",
          "name": "newOwner",
          "type": "address"
        }
      ],
      "name": "OwnershipTransferred",
      "type": "event"
    },
    {
      "anonymous": false,
      "inputs": [
        {
          "indexed": true,
          "internalType": "uint256",
          "name": "pid",
          "type": "uint256"
        },
        {
          "indexed": false,
          "internalType": "uint256",
          "name": "amount",
          "type": "uint256"
        }
      ],
      "name": "PremiumBilled",
      "type": "event"
    },
    {
      "anonymous": false,
      "inputs": [
        {
          "indexed": true,
          "internalType": "address",
          "name": "user",
          "type": "address"
        },
        {
          "indexed": true,
          "internalType": "uint256",
          "name": "pid",
          "type": "uint256"
        },
        {
          "indexed": false,
          "internalType": "uint256",
          "name": "amount",
          "type": "uint256"
        }
      ],
      "name": "Staked",
      "type": "event"
    },
    {
      "anonymous": false,
      "inputs": [
        {
          "indexed": true,
          "internalType": "address",
          "name": "user",
          "type": "address"
        },
        {
          "indexed": true,
          "internalType": "uint256",
          "name": "pid",
          "type": "uint256"
        },
        {
          "indexed": false,
          "internalType": "uint256",
          "name": "amount",
          "type": "uint256"
        }
      ],
      "name": "Unstaked",
      "type": "event"
    },
    {
      "anonymous": false,
      "inputs": [
        {
          "indexed": true,
          "internalType": "address",
          "name": "implementation",
          "type": "address"
        }
      ],
      "name": "Upgraded",
      "type": "event"
    },
    {
      "anonymous": false,
      "inputs": [
        {
          "indexed": true,
          "internalType": "uint256",
          "name": "pid",
          "type": "uint256"
        },
        {
          "indexed": false,
          "internalType": "uint256",
          "name": "amount",
          "type": "uint256"
        }
      ],
      "name": "WithdrawalOrUnstakeScheduled",
      "type": "event"
    },
    {
      "anonymous": false,
      "inputs": [
        {
          "indexed": true,
          "internalType": "address",
          "name": "referrer",
          "type": "address"
        },
        {
          "indexed": false,
          "internalType": "uint256",
          "name": "amount",
          "type": "uint256"
        }
      ],
      "name": "referralPaid",
      "type": "event"
    },
    {
      "anonymous": false,
      "inputs": [
        {
          "indexed": true,
          "internalType": "address",
          "name": "token",
          "type": "address"
        },
        {
          "indexed": true,
          "internalType": "bool",
          "name": "whitelisted",
          "type": "bool"
        }
      ],
      "name": "tokenWhitelistUpdated",
      "type": "event"
    },
    {
      "inputs": [],
      "name": "acceptOwnershipTransfer",
      "outputs": [],
      "stateMutability": "nonpayable",
      "type": "function"
    },
    {
      "inputs": [
        {
          "internalType": "uint256",
          "name": "",
          "type": "uint256"
        }
      ],
      "name": "activeStrategies",
      "outputs": [
        {
          "internalType": "bytes32",
          "name": "",
          "type": "bytes32"
        }
      ],
      "stateMutability": "view",
      "type": "function"
    },
    {
      "inputs": [
        {
          "internalType": "uint256",
          "name": "",
          "type": "uint256"
        }
      ],
      "name": "activeTokens",
      "outputs": [
        {
          "internalType": "address",
          "name": "",
          "type": "address"
        }
      ],
      "stateMutability": "view",
      "type": "function"
    },
    {
      "inputs": [
        {
          "internalType": "address",
          "name": "_token",
          "type": "address"
        },
        {
          "internalType": "address",
          "name": "_projectWallet",
          "type": "address"
        },
        {
          "internalType": "string",
          "name": "_projectName",
          "type": "string"
        },
        {
          "internalType": "address",
          "name": "_referrer",
          "type": "address"
        },
        {
          "internalType": "uint256",
          "name": "_referralFee",
          "type": "uint256"
        },
        {
          "internalType": "uint256",
          "name": "_referralEndTime",
          "type": "uint256"
        }
      ],
      "name": "addNewBountyPool",
      "outputs": [
        {
          "internalType": "uint256",
          "name": "",
          "type": "uint256"
        }
      ],
      "stateMutability": "nonpayable",
      "type": "function"
    },
    {
      "inputs": [
        {
          "internalType": "uint256",
          "name": "_pid",
          "type": "uint256"
        }
      ],
      "name": "billPremium",
      "outputs": [
        {
          "internalType": "bool",
          "name": "",
          "type": "bool"
        }
      ],
      "stateMutability": "nonpayable",
      "type": "function"
    },
    {
      "inputs": [
        {
          "internalType": "uint256",
          "name": "_poolCap",
          "type": "uint256"
        },
        {
          "internalType": "uint256",
          "name": "_apy",
          "type": "uint256"
        }
      ],
      "name": "calcRequiredPremiumBalancePerPeriod",
      "outputs": [
        {
          "internalType": "uint256",
          "name": "requiredPremiumBalance",
          "type": "uint256"
        }
      ],
      "stateMutability": "pure",
      "type": "function"
    },
    {
      "inputs": [],
      "name": "collectAllReferralProfits",
      "outputs": [
        {
          "internalType": "bool",
          "name": "",
          "type": "bool"
        }
      ],
      "stateMutability": "nonpayable",
      "type": "function"
    },
    {
      "inputs": [
        {
          "internalType": "address",
          "name": "_saloonWallet",
          "type": "address"
        }
      ],
      "name": "collectAllSaloonProfits",
      "outputs": [
        {
          "internalType": "bool",
          "name": "",
          "type": "bool"
        }
      ],
      "stateMutability": "nonpayable",
      "type": "function"
    },
    {
      "inputs": [
        {
          "internalType": "address",
          "name": "_token",
          "type": "address"
        }
      ],
      "name": "collectReferralProfit",
      "outputs": [
        {
          "internalType": "bool",
          "name": "",
          "type": "bool"
        }
      ],
      "stateMutability": "nonpayable",
      "type": "function"
    },
    {
      "inputs": [
        {
          "internalType": "address",
          "name": "_token",
          "type": "address"
        },
        {
          "internalType": "address",
          "name": "_saloonWallet",
          "type": "address"
        }
      ],
      "name": "collectSaloonProfits",
      "outputs": [
        {
          "internalType": "bool",
          "name": "",
          "type": "bool"
        }
      ],
      "stateMutability": "nonpayable",
      "type": "function"
    },
    {
      "inputs": [
        {
          "internalType": "uint256",
          "name": "_pid",
          "type": "uint256"
        },
        {
          "internalType": "uint256",
          "name": "_endTime",
          "type": "uint256"
        }
      ],
      "name": "extendReferralPeriod",
      "outputs": [],
      "stateMutability": "nonpayable",
      "type": "function"
    },
    {
      "inputs": [
        {
          "internalType": "address",
          "name": "_strategyFactory",
          "type": "address"
        }
      ],
      "name": "initialize",
      "outputs": [],
      "stateMutability": "nonpayable",
      "type": "function"
    },
    {
      "inputs": [
        {
          "internalType": "address",
          "name": "",
          "type": "address"
        }
      ],
      "name": "minTokenStakeAmount",
      "outputs": [
        {
          "internalType": "uint256",
          "name": "",
          "type": "uint256"
        }
      ],
      "stateMutability": "view",
      "type": "function"
    },
    {
      "inputs": [
        {
          "internalType": "uint256",
          "name": "",
          "type": "uint256"
        }
      ],
      "name": "nftInfo",
      "outputs": [
        {
          "internalType": "uint256",
          "name": "pid",
          "type": "uint256"
        },
        {
          "internalType": "uint256",
          "name": "amount",
          "type": "uint256"
        },
        {
          "internalType": "uint256",
          "name": "xDelta",
          "type": "uint256"
        },
        {
          "internalType": "uint256",
          "name": "apy",
          "type": "uint256"
        },
        {
          "internalType": "uint256",
          "name": "unclaimed",
          "type": "uint256"
        },
        {
          "internalType": "uint256",
          "name": "lastClaimedTime",
          "type": "uint256"
        },
        {
          "internalType": "uint256",
          "name": "timelock",
          "type": "uint256"
        },
        {
          "internalType": "uint256",
          "name": "timelimit",
          "type": "uint256"
        }
      ],
      "stateMutability": "view",
      "type": "function"
    },
    {
      "inputs": [],
      "name": "owner",
      "outputs": [
        {
          "internalType": "address",
          "name": "",
          "type": "address"
        }
      ],
      "stateMutability": "view",
      "type": "function"
    },
    {
      "inputs": [
        {
          "internalType": "uint256",
          "name": "",
          "type": "uint256"
        },
        {
          "internalType": "uint256",
          "name": "",
          "type": "uint256"
        }
      ],
      "name": "pidNFTList",
      "outputs": [
        {
          "internalType": "uint256",
          "name": "",
          "type": "uint256"
        }
      ],
      "stateMutability": "view",
      "type": "function"
    },
    {
      "inputs": [
        {
          "internalType": "uint256",
          "name": "",
          "type": "uint256"
        },
        {
          "internalType": "bytes32",
          "name": "",
          "type": "bytes32"
        }
      ],
      "name": "pidStrategies",
      "outputs": [
        {
          "internalType": "address",
          "name": "",
          "type": "address"
        }
      ],
      "stateMutability": "view",
      "type": "function"
    },
    {
      "inputs": [
        {
          "internalType": "uint256",
          "name": "",
          "type": "uint256"
        }
      ],
      "name": "poolInfo",
      "outputs": [
        {
          "components": [
            {
              "internalType": "contract IERC20",
              "name": "token",
              "type": "address"
            },
            {
              "internalType": "uint8",
              "name": "tokenDecimals",
              "type": "uint8"
            },
            {
              "internalType": "uint16",
              "name": "apy",
              "type": "uint16"
            },
            {
              "internalType": "address",
              "name": "projectWallet",
              "type": "address"
            },
            {
              "internalType": "string",
              "name": "projectName",
              "type": "string"
            },
            {
              "internalType": "uint256",
              "name": "poolCap",
              "type": "uint256"
            },
            {
              "internalType": "uint256",
              "name": "totalStaked",
              "type": "uint256"
            },
            {
              "internalType": "uint256",
              "name": "scalingMultiplier",
              "type": "uint256"
            }
          ],
          "internalType": "struct ISaloon.GeneralInfo",
          "name": "generalInfo",
          "type": "tuple"
        },
        {
          "components": [
            {
              "internalType": "uint256",
              "name": "projectDepositHeld",
              "type": "uint256"
            },
            {
              "internalType": "uint256",
              "name": "projectDepositInStrategy",
              "type": "uint256"
            }
          ],
          "internalType": "struct ISaloon.DepositInfo",
          "name": "depositInfo",
          "type": "tuple"
        },
        {
          "components": [
            {
              "internalType": "uint256",
              "name": "premiumBalance",
              "type": "uint256"
            },
            {
              "internalType": "uint256",
              "name": "premiumAvailable",
              "type": "uint256"
            }
          ],
          "internalType": "struct ISaloon.PremiumInfo",
          "name": "premiumInfo",
          "type": "tuple"
        },
        {
          "components": [
            {
              "internalType": "uint256",
              "name": "timelock",
              "type": "uint256"
            },
            {
              "internalType": "uint256",
              "name": "timeLimit",
              "type": "uint256"
            },
            {
              "internalType": "uint256",
              "name": "withdrawalScheduledAmount",
              "type": "uint256"
            },
            {
              "internalType": "bool",
              "name": "withdrawalExecuted",
              "type": "bool"
            }
          ],
          "internalType": "struct ISaloon.TimelockInfo",
          "name": "poolTimelock",
          "type": "tuple"
        },
        {
          "components": [
            {
              "internalType": "uint256",
              "name": "currentX",
              "type": "uint256"
            },
            {
              "internalType": "uint256",
              "name": "currentY",
              "type": "uint256"
            },
            {
              "internalType": "uint256",
              "name": "totalSupply",
              "type": "uint256"
            },
            {
              "internalType": "uint256[]",
              "name": "unstakedTokens",
              "type": "uint256[]"
            }
          ],
          "internalType": "struct ISaloon.CurveInfo",
          "name": "curveInfo",
          "type": "tuple"
        },
        {
          "components": [
            {
              "internalType": "address",
              "name": "referrer",
              "type": "address"
            },
            {
              "internalType": "uint256",
              "name": "referralFee",
              "type": "uint256"
            },
            {
              "internalType": "uint256",
              "name": "endTime",
              "type": "uint256"
            }
          ],
          "internalType": "struct ISaloon.ReferralInfo",
          "name": "referralInfo",
          "type": "tuple"
        },
        {
          "internalType": "uint256",
          "name": "freezeTime",
          "type": "uint256"
        },
        {
          "internalType": "bool",
          "name": "isActive",
          "type": "bool"
        }
      ],
      "stateMutability": "view",
      "type": "function"
    },
    {
      "inputs": [],
      "name": "proxiableUUID",
      "outputs": [
        {
          "internalType": "bytes32",
          "name": "",
          "type": "bytes32"
        }
      ],
      "stateMutability": "view",
      "type": "function"
    },
    {
      "inputs": [
        {
          "internalType": "address",
          "name": "_token",
          "type": "address"
        },
        {
          "internalType": "uint256",
          "name": "_amount",
          "type": "uint256"
        }
      ],
      "name": "receiveStrategyYield",
      "outputs": [],
      "stateMutability": "nonpayable",
      "type": "function"
    },
    {
      "inputs": [
        {
          "internalType": "address",
          "name": "",
          "type": "address"
        },
        {
          "internalType": "address",
          "name": "",
          "type": "address"
        }
      ],
      "name": "referralBalances",
      "outputs": [
        {
          "internalType": "uint256",
          "name": "",
          "type": "uint256"
        }
      ],
      "stateMutability": "view",
      "type": "function"
    },
    {
      "inputs": [
        {
          "internalType": "address",
          "name": "",
          "type": "address"
        }
      ],
      "name": "saloonBountyProfit",
      "outputs": [
        {
          "internalType": "uint256",
          "name": "",
          "type": "uint256"
        }
      ],
      "stateMutability": "view",
      "type": "function"
    },
    {
      "inputs": [
        {
          "internalType": "address",
          "name": "",
          "type": "address"
        }
      ],
      "name": "saloonPremiumProfit",
      "outputs": [
        {
          "internalType": "uint256",
          "name": "",
          "type": "uint256"
        }
      ],
      "stateMutability": "view",
      "type": "function"
    },
    {
      "inputs": [
        {
          "internalType": "address",
          "name": "",
          "type": "address"
        }
      ],
      "name": "saloonStrategyProfit",
      "outputs": [
        {
          "internalType": "uint256",
          "name": "",
          "type": "uint256"
        }
      ],
      "stateMutability": "view",
      "type": "function"
    },
    {
      "inputs": [
        {
          "internalType": "address",
          "name": "",
          "type": "address"
        }
      ],
      "name": "strategyAddressToPid",
      "outputs": [
        {
          "internalType": "uint256",
          "name": "",
          "type": "uint256"
        }
      ],
      "stateMutability": "view",
      "type": "function"
    },
    {
      "inputs": [
        {
          "internalType": "address",
          "name": "",
          "type": "address"
        }
      ],
      "name": "tokenWhitelist",
      "outputs": [
        {
          "internalType": "bool",
          "name": "",
          "type": "bool"
        }
      ],
      "stateMutability": "view",
      "type": "function"
    },
    {
      "inputs": [
        {
          "internalType": "address",
          "name": "newOwner",
          "type": "address"
        }
      ],
      "name": "transferOwnership",
      "outputs": [],
      "stateMutability": "nonpayable",
      "type": "function"
    },
    {
      "inputs": [
        {
          "internalType": "address",
          "name": "_token",
          "type": "address"
        },
        {
          "internalType": "bool",
          "name": "_whitelisted",
          "type": "bool"
        },
        {
          "internalType": "uint256",
          "name": "_minStakeAmount",
          "type": "uint256"
        }
      ],
      "name": "updateTokenWhitelist",
      "outputs": [
        {
          "internalType": "bool",
          "name": "",
          "type": "bool"
        }
      ],
      "stateMutability": "nonpayable",
      "type": "function"
    },
    {
      "inputs": [
        {
          "internalType": "address",
          "name": "newImplementation",
          "type": "address"
        }
      ],
      "name": "upgradeTo",
      "outputs": [],
      "stateMutability": "nonpayable",
      "type": "function"
    },
    {
      "inputs": [
        {
          "internalType": "address",
          "name": "newImplementation",
          "type": "address"
        },
        {
          "internalType": "bytes",
          "name": "data",
          "type": "bytes"
        }
      ],
      "name": "upgradeToAndCall",
      "outputs": [],
      "stateMutability": "payable",
      "type": "function"
    },
    {
      "inputs": [
        {
          "internalType": "uint256",
          "name": "_pid",
          "type": "uint256"
        }
      ],
      "name": "viewBountyBalance",
      "outputs": [
        {
          "internalType": "uint256",
          "name": "",
          "type": "uint256"
        }
      ],
      "stateMutability": "view",
      "type": "function"
    }
  ],
  "bytecode": {
    "object": "0x60a06040523060805234801561001457600080fd5b50608051612f1f61004c60003960008181610ffe0152818161103e0152818161114001528181611180015261120f0152612f1f6000f3fe6080604052600436106101d85760003560e01c80636ac6d81211610102578063b20b242911610095578063cf9564b911610064578063cf9564b914610668578063e45abd0f14610688578063ecd7fbed146106b5578063f2fde38b146106d557600080fd5b8063b20b2429146105d7578063b842e87f14610605578063c4d66de81461061a578063ca0061481461063a57600080fd5b8063957deecc116100d1578063957deecc1461054957806396ea48e8146105775780639f224f3514610597578063a089a520146105b757600080fd5b80636ac6d812146104ba578063753d7563146104da578063836ef1fa1461050b5780638da5cb5b1461052b57600080fd5b806332fce6021161017a5780634f1ef286116101495780634f1ef2861461044457806352d1902d14610457578063598d17bf1461046c5780635de406dc1461049a57600080fd5b806332fce602146103c15780633659cfe6146103e157806339458723146104015780633e8888d91461042f57600080fd5b80631aebcecb116101b65780631aebcecb146102b75780631f8bc790146102d85780632cb0dfcc146103715780632dbe051e146103a157600080fd5b8063011b408b146101dd578063074ecf03146102295780631526fe2714610283575b600080fd5b3480156101e957600080fd5b506102166101f836600461266f565b61010260209081526000928352604080842090915290825290205481565b6040519081526020015b60405180910390f35b34801561023557600080fd5b5061026b6102443660046126a8565b6101046020908152600092835260408084209091529082529020546001600160a01b031681565b6040516001600160a01b039091168152602001610220565b34801561028f57600080fd5b506102a361029e3660046126ca565b6106f5565b60405161022098979695949392919061279e565b3480156102c357600080fd5b506102d66102d23660046128d9565b5050565b005b3480156102e457600080fd5b506103366102f33660046126ca565b60fd602052600090815260409020805460018201546002830154600384015460048501546005860154600687015460079097015495969495939492939192909188565b604080519889526020890197909752958701949094526060860192909252608085015260a084015260c083015260e082015261010001610220565b34801561037d57600080fd5b5061039161038c366004612913565b610951565b6040519015158152602001610220565b3480156103ad57600080fd5b506103916103bc3660046126ca565b610b9e565b3480156103cd57600080fd5b506102166103dc3660046129e0565b610bcd565b3480156103ed57600080fd5b506102d66103fc366004612a7b565b610ff4565b34801561040d57600080fd5b5061021661041c366004612a7b565b6101096020526000908152604090205481565b34801561043b57600080fd5b506103916110d3565b6102d6610452366004612a98565b611136565b34801561046357600080fd5b50610216611202565b34801561047857600080fd5b50610216610487366004612a7b565b6101016020526000908152604090205481565b3480156104a657600080fd5b506102d66104b53660046126a8565b6112b5565b3480156104c657600080fd5b506102166104d53660046126ca565b61133f565b3480156104e657600080fd5b506103916104f5366004612a7b565b6101076020526000908152604090205460ff1681565b34801561051757600080fd5b506102166105263660046126a8565b6115e1565b34801561053757600080fd5b506033546001600160a01b031661026b565b34801561055557600080fd5b50610216610564366004612a7b565b6101066020526000908152604090205481565b34801561058357600080fd5b506102166105923660046126a8565b611617565b3480156105a357600080fd5b5061026b6105b23660046126ca565b611648565b3480156105c357600080fd5b506103916105d2366004612a7b565b611673565b3480156105e357600080fd5b506102166105f23660046126ca565b6101056020526000908152604090205481565b34801561061157600080fd5b506102d6611720565b34801561062657600080fd5b506102d6610635366004612a7b565b6117a0565b34801561064657600080fd5b50610216610655366004612a7b565b6101006020526000908152604090205481565b34801561067457600080fd5b5061039161068336600461266f565b6118cd565b34801561069457600080fd5b506102166106a3366004612a7b565b60ff6020526000908152604090205481565b3480156106c157600080fd5b506103916106d0366004612a7b565b611968565b3480156106e157600080fd5b506102d66106f0366004612a7b565b6119cb565b60fc818154811061070557600080fd5b60009182526020918290206040805161010081018252601790930290910180546001600160a01b03808216855260ff600160a01b8304169585019590955261ffff600160a81b90910416918301919091526001810154909216606082015260028201805492935090918391608084019161077e90612afc565b80601f01602080910402602001604051908101604052809291908181526020018280546107aa90612afc565b80156107f75780601f106107cc576101008083540402835291602001916107f7565b820191906000526020600020905b8154815290600101906020018083116107da57829003601f168201915b50505091835250506003820154602080830191909152600483015460408084019190915260059093015460609283015282518084018452600686015481526007860154818301528351808501855260088701548152600987015481840152845160808082018752600a8901548252600b89015482860152600c89015482880152600d89015460ff1615158287015286519081018752600e890180548252600f8a01548287015260108a01548289015260118a018054895181890281018901909a52808a52999a959994989397959692959194918601939290919083018282801561090057602002820191906000526020600020905b8154815260200190600101908083116108ec575b5050509190925250506040805160608101825260128501546001600160a01b031681526013850154602082015260148501549181019190915260158401546016909401549293909290915060ff1688565b600061095b611a5a565b6001600160a01b0384166000908152610107602052604090205460ff1615158315146109c75760405162461bcd60e51b81526020600482015260166024820152751b9bc818da185b99d9481d1bc81dda1a5d195b1a5cdd60521b60448201526064015b60405180910390fd5b6001600160a01b03841660008181526101076020526040808220805460ff191687151590811790915590519092917f99795d51e5a8804307721456a7a9c2f0d7421f719d46a46d36e91fee7c85aa7691a38215610a7f576101088054600181019091557f8543e9adbfbe1f62b7411fdf032fcfea758a7d6b332f64d971a1334c2ff364dd0180546001600160a01b0319166001600160a01b038616908117909155600090815261010960205260409020829055610b93565b6101085460005b81811015610b905760006101088281548110610aa457610aa4612b36565b6000918252602090912001546001600160a01b03908116915087168103610b7f57610108610ad3600185612b62565b81548110610ae357610ae3612b36565b60009182526020909120015461010880546001600160a01b039092169184908110610b1057610b10612b36565b9060005260206000200160006101000a8154816001600160a01b0302191690836001600160a01b03160217905550610108805480610b5057610b50612b75565b600082815260209020810160001990810180546001600160a01b03191690550190555060019250610b97915050565b50610b8981612b8b565b9050610a86565b50505b5060015b9392505050565b6000610ba8611ab4565b610bb0611a5a565b610bbb826000611b0d565b506001610bc8600160ca55565b919050565b6000610bd7611a5a565b6001600160a01b0387166000908152610107602052604090205460ff16610c385760405162461bcd60e51b81526020600482015260156024820152741d1bdad95b881b9bdd081dda1a5d195b1a5cdd1959605a1b60448201526064016109be565b611388831115610c825760405162461bcd60e51b81526020600482015260156024820152740e4cacccae4e4c2d840cccaca40e8dede40d0d2ced605b1b60448201526064016109be565b60408051600481526024810182526020810180516001600160e01b031663313ce56760e01b17905290516000916001600160a01b038a1691610cc49190612ba4565b600060405180830381855afa9150503d8060008114610cff576040519150601f19603f3d011682016040523d82523d6000602084013e610d04565b606091505b50915050600081806020019051810190610d1e9190612bc0565b905060068160ff161015610d6d5760405162461bcd60e51b815260206004820152601660248201527524b73b30b634b2103232b1b4b6b0b6103932ba3ab93760511b60448201526064016109be565b610d756124cf565b80516001600160a01b03808c16909152815160ff80851660209283015283518c8416606091820152845160809081018d905260a0860180518d87169052805185018c90525160409081018b905260fc80546001810182556000919091528751805160179092027f371f36870d18f32a11fea0f144b021c8b407bb50f8e0267c711123f454b963c081018054988301519483015161ffff16600160a81b0261ffff60a81b1995909816600160a01b026001600160a81b0319909916938a16939093179790971792909216949094178455918201517f371f36870d18f32a11fea0f144b021c8b407bb50f8e0267c711123f454b963c185018054919096166001600160a01b03199190911617909455928301518493919283917f371f36870d18f32a11fea0f144b021c8b407bb50f8e0267c711123f454b963c290910190610ebb9082612c31565b5060a0820151600382015560c0820151600482015560e0909101516005909101556020828101518051600684015581015160078301556040808401518051600885015582015160098401556060808501518051600a86015580840151600b86015580830151600c860155810151600d8501805460ff191691151591909117905560808501518051600e860190815581850151600f8701559281015160108601559081015180519193610f75926011870192909101906125fa565b50505060a082015180516012830180546001600160a01b0319166001600160a01b039092169190911790556020810151601383015560400151601482015560c0820151601582015560e0909101516016909101805460ff191691151591909117905560fc54610fe690600190612b62565b9a9950505050505050505050565b6001600160a01b037f000000000000000000000000000000000000000000000000000000000000000016300361103c5760405162461bcd60e51b81526004016109be90612cf1565b7f00000000000000000000000000000000000000000000000000000000000000006001600160a01b0316611085600080516020612ea3833981519152546001600160a01b031690565b6001600160a01b0316146110ab5760405162461bcd60e51b81526004016109be90612d3d565b6110b481611d2a565b604080516000808252602082019092526110d091839190611d32565b50565b61010854600090815b8181101561112d57600061010882815481106110fa576110fa612b36565b6000918252602090912001546001600160a01b0316905061111a81611673565b50508061112690612b8b565b90506110dc565b50600191505090565b6001600160a01b037f000000000000000000000000000000000000000000000000000000000000000016300361117e5760405162461bcd60e51b81526004016109be90612cf1565b7f00000000000000000000000000000000000000000000000000000000000000006001600160a01b03166111c7600080516020612ea3833981519152546001600160a01b031690565b6001600160a01b0316146111ed5760405162461bcd60e51b81526004016109be90612d3d565b6111f682611d2a565b6102d282826001611d32565b6000306001600160a01b037f000000000000000000000000000000000000000000000000000000000000000016146112a25760405162461bcd60e51b815260206004820152603860248201527f555550535570677261646561626c653a206d757374206e6f742062652063616c60448201527f6c6564207468726f7567682064656c656761746563616c6c000000000000000060648201526084016109be565b50600080516020612ea383398151915290565b6112bd611a5a565b600060fc83815481106112d2576112d2612b36565b90600052602060002090601702019050806012016002015482116113385760405162461bcd60e51b815260206004820152601860248201527f63616e206f6e6c7920657874656e6420656e642074696d65000000000000000060448201526064016109be565b6014015550565b60008060fc838154811061135557611355612b36565b6000918252602090912060408051610200810190915260179092020180546001600160a01b038082166101008501908152600160a01b830460ff16610120860152600160a81b90920461ffff166101408501526001830154166101608401526002820180548492918491610180850191906113cf90612afc565b80601f01602080910402602001604051908101604052809291908181526020018280546113fb90612afc565b80156114485780601f1061141d57610100808354040283529160200191611448565b820191906000526020600020905b81548152906001019060200180831161142b57829003601f168201915b505050918352505060038201546020808301919091526004830154604080840191909152600590930154606092830152928452815180830183526006860154815260078601548185015284840152815180830183526008860154815260098601548185015284830152815160808082018452600a8701548252600b87015482860152600c87015482850152600d87015460ff161515828401528583019190915282518082018452600e870180548252600f8801548287015260108801548286015260118801805486518189028101890190975280875293909701969195909493860193929083018282801561155c57602002820191906000526020600020905b815481526020019060010190808311611548575b505050919092525050508152604080516060808201835260128501546001600160a01b0316825260138501546020838101919091526014860154838501528085019290925260158501549284019290925260169093015460ff161515910152818101519081015190519192506115d191612d89565b815160c00151610b979190612d89565b60006301e1338061271062093a806115f98587612d9c565b6116039190612d9c565b61160d9190612db3565b610b979190612db3565b60fe602052816000526040600020818154811061163357600080fd5b90600052602060002001600091509150505481565b610108818154811061165957600080fd5b6000918252602090912001546001600160a01b0316905081565b600061167d611ab4565b336000908152610102602090815260408083206001600160a01b0386168452909152902054801561171157336000818152610102602090815260408083206001600160a01b03881680855292528220919091556116da9183611ea2565b5060405181815233907fbf7aaef98dccc47249def450ef0fd30757d553648a28fa7cd56e3b2b052724949060200160405180910390a25b6001915050610bc8600160ca55565b6034546001600160a01b031633146117895760405162461bcd60e51b815260206004820152602660248201527f6f6e6c792070656e64696e67206f776e65722063616e2061636365707420747260448201526530b739b332b960d11b60648201526084016109be565b60345461179e906001600160a01b0316611f08565b565b600054610100900460ff16158080156117c05750600054600160ff909116105b806117da5750303b1580156117da575060005460ff166001145b61183d5760405162461bcd60e51b815260206004820152602e60248201527f496e697469616c697a61626c653a20636f6e747261637420697320616c72656160448201526d191e481a5b9a5d1a585b1a5e995960921b60648201526084016109be565b6000805460ff191660011790558015611860576000805461ff0019166101001790555b611868611f65565b61010380546001600160a01b0319166001600160a01b03841617905580156102d2576000805461ff0019169055604051600181527f7f26b83ff96e1f2b6a682f133852f6798a09c465da95921460cefb38474024989060200160405180910390a15050565b60006118d7611a5a565b6001600160a01b0383166000908152610100602090815260408083205461010183528184205460ff90935290832054909161191191612d89565b61191b9190612d89565b6001600160a01b038516600081815260ff60209081526040808320839055610100825280832083905561010190915281205590915061195b908483611ea2565b5060019150505b92915050565b6000611972611a5a565b6101085460005b81811015610b93576000610108828154811061199757611997612b36565b6000918252602090912001546001600160a01b031690506119b881866118cd565b5050806119c490612b8b565b9050611979565b6119d3611a5a565b6001600160a01b038116611a385760405162461bcd60e51b815260206004820152602660248201527f4f776e61626c653a206e6577206f776e657220697320746865207a65726f206160448201526564647265737360d01b60648201526084016109be565b603480546001600160a01b0319166001600160a01b0392909216919091179055565b6033546001600160a01b0316331461179e5760405162461bcd60e51b815260206004820181905260248201527f4f776e61626c653a2063616c6c6572206973206e6f7420746865206f776e657260448201526064016109be565b600260ca5403611b065760405162461bcd60e51b815260206004820152601f60248201527f5265656e7472616e637947756172643a207265656e7472616e742063616c6c0060448201526064016109be565b600260ca55565b600060fc8381548110611b2257611b22612b36565b600091825260208220601791909102016008810154600382015482549294508592611b589190600160a81b900461ffff166115e1565b611b629190612b62565b611b6c9190612d89565b60018301548354919250611b8e916001600160a01b0390811691163084611f94565b5080826008016000016000828254611ba69190612d89565b9091555060009050612710611bbd6103e884612d9c565b611bc79190612db3565b60148401546013850154601286015460405163fc76fff360e01b815260048101859052602481019390935260448301919091526001600160a01b031660648201529091506000908190819073__$4defa815a6c8401eda00ac6be9b95d3cdb$__9063fc76fff390608401606060405180830381865af4158015611c4e573d6000803e3d6000fd5b505050506040513d601f19601f82011682018060405250810190611c729190612dd5565b885492955090935091506001600160a01b0316611c90828285611fdb565b6001600160a01b0381166000908152610100602052604081208054869290611cb9908490612d89565b9091555060009050611ccb8688612b62565b905080886008016001016000828254611ce49190612d89565b90915550506040518781528a907fadb049ad2d09be3db90459a16aef1ad0a4d89e8fdcc1ade9429d6cc55abbcd2b9060200160405180910390a250505050505050505050565b6110d0611a5a565b7f4910fdfa16fed3260ed0e7147f7cc6da11a60208b5b9406d12a635614ffd91435460ff1615611d6a57611d658361202c565b505050565b826001600160a01b03166352d1902d6040518163ffffffff1660e01b8152600401602060405180830381865afa925050508015611dc4575060408051601f3d908101601f19168201909252611dc191810190612e0e565b60015b611e275760405162461bcd60e51b815260206004820152602e60248201527f45524331393637557067726164653a206e657720696d706c656d656e7461746960448201526d6f6e206973206e6f74205555505360901b60648201526084016109be565b600080516020612ea38339815191528114611e965760405162461bcd60e51b815260206004820152602960248201527f45524331393637557067726164653a20756e737570706f727465642070726f786044820152681a58589b195555525160ba1b60648201526084016109be565b50611d658383836120c8565b6040516001600160a01b038316602482015260448101829052600090610b9390859063a9059cbb60e01b906064015b60408051601f198184030181529190526020810180516001600160e01b03166001600160e01b0319909316929092179091526120f3565b603380546001600160a01b038381166001600160a01b03198084168217909455603480549094169093556040519116919082907f8be0079c531659141344cd1fd0a4f28419497f9722a3daafe3b4186f6b6457e090600090a35050565b600054610100900460ff16611f8c5760405162461bcd60e51b81526004016109be90612e27565b61179e6121c5565b6040516001600160a01b0380851660248301528316604482015260648101829052600090611fcf9086906323b872dd60e01b90608401611ed1565b5060015b949350505050565b6001600160a01b03831615611d65576001600160a01b0380841660009081526101026020908152604080832093861683529290529081208054839290612022908490612d89565b9091555050505050565b6001600160a01b0381163b6120995760405162461bcd60e51b815260206004820152602d60248201527f455243313936373a206e657720696d706c656d656e746174696f6e206973206e60448201526c1bdd08184818dbdb9d1c9858dd609a1b60648201526084016109be565b600080516020612ea383398151915280546001600160a01b0319166001600160a01b0392909216919091179055565b6120d1836121f5565b6000825111806120de5750805b15611d65576120ed8383612235565b50505050565b6000612148826040518060400160405280602081526020017f5361666545524332303a206c6f772d6c6576656c2063616c6c206661696c6564815250856001600160a01b03166123299092919063ffffffff16565b805190915015611d6557808060200190518101906121669190612e72565b611d655760405162461bcd60e51b815260206004820152602a60248201527f5361666545524332303a204552433230206f7065726174696f6e20646964206e6044820152691bdd081cdd58d8d9595960b21b60648201526084016109be565b600054610100900460ff166121ec5760405162461bcd60e51b81526004016109be90612e27565b61179e33611f08565b6121fe8161202c565b6040516001600160a01b038216907fbc7cd75a20ee27fd9adebab32041f755214dbc6bffa90cc0225b39da2e5c2d3b90600090a250565b60606001600160a01b0383163b61229d5760405162461bcd60e51b815260206004820152602660248201527f416464726573733a2064656c65676174652063616c6c20746f206e6f6e2d636f6044820152651b9d1c9858dd60d21b60648201526084016109be565b600080846001600160a01b0316846040516122b89190612ba4565b600060405180830381855af49150503d80600081146122f3576040519150601f19603f3d011682016040523d82523d6000602084013e6122f8565b606091505b50915091506123208282604051806060016040528060278152602001612ec360279139612338565b95945050505050565b6060611fd38484600085612351565b60608315612347575081610b97565b610b97838361242c565b6060824710156123b25760405162461bcd60e51b815260206004820152602660248201527f416464726573733a20696e73756666696369656e742062616c616e636520666f6044820152651c8818d85b1b60d21b60648201526084016109be565b600080866001600160a01b031685876040516123ce9190612ba4565b60006040518083038185875af1925050503d806000811461240b576040519150601f19603f3d011682016040523d82523d6000602084013e612410565b606091505b509150915061242187838387612456565b979650505050505050565b81511561243c5781518083602001fd5b8060405162461bcd60e51b81526004016109be9190612e8f565b606083156124c55782516000036124be576001600160a01b0385163b6124be5760405162461bcd60e51b815260206004820152601d60248201527f416464726573733a2063616c6c20746f206e6f6e2d636f6e747261637400000060448201526064016109be565b5081611fd3565b611fd3838361242c565b6040805161020081019091526000610100820181815261012083018290526101408301829052610160830182905260606101808401526101a083018290526101c083018290526101e083019190915281908152602001612542604051806040016040528060008152602001600081525090565b8152602001612564604051806040016040528060008152602001600081525090565b815260200161259660405180608001604052806000815260200160008152602001600081526020016000151581525090565b81526020016125c66040518060800160405280600081526020016000815260200160008152602001606081525090565b8152604080516060810182526000808252602082810182905292820152910190815260006020820181905260409091015290565b828054828255906000526020600020908101928215612635579160200282015b8281111561263557825182559160200191906001019061261a565b50612641929150612645565b5090565b5b808211156126415760008155600101612646565b6001600160a01b03811681146110d057600080fd5b6000806040838503121561268257600080fd5b823561268d8161265a565b9150602083013561269d8161265a565b809150509250929050565b600080604083850312156126bb57600080fd5b50508035926020909101359150565b6000602082840312156126dc57600080fd5b5035919050565b60005b838110156126fe5781810151838201526020016126e6565b50506000910152565b6000815180845261271f8160208601602086016126e3565b601f01601f19169290920160200192915050565b60006080830182518452602080840151818601526040840151604086015260608401516080606087015282815180855260a0880191508383019450600092505b808310156127935784518252938301936001929092019190830190612773565b509695505050505050565b6101e080825289516001600160a01b039081169183019190915260208a015160ff1661020083015260408a015161ffff1661022083015260608a01511661024082015260808901516101006102608301526000906128006102e0840182612707565b905060a08b015161028084015260c08b01516102a084015260e08b01516102c084015261283a602084018b80518252602090810151910152565b8851606084015260208901516080840152875160a0840152602088015160c0840152604088015160e0840152606088015115156101008401528281036101208401526128868188612733565b86516001600160a01b03166101408501526020870151610160850152604087015161018085015291506128b69050565b836101a08301526128cc6101c083018415159052565b9998505050505050505050565b600080604083850312156128ec57600080fd5b82356128f78161265a565b946020939093013593505050565b80151581146110d057600080fd5b60008060006060848603121561292857600080fd5b83356129338161265a565b9250602084013561294381612905565b929592945050506040919091013590565b634e487b7160e01b600052604160045260246000fd5b600067ffffffffffffffff8084111561298557612985612954565b604051601f8501601f19908116603f011681019082821181831017156129ad576129ad612954565b816040528093508581528686860111156129c657600080fd5b858560208301376000602087830101525050509392505050565b60008060008060008060c087890312156129f957600080fd5b8635612a048161265a565b95506020870135612a148161265a565b9450604087013567ffffffffffffffff811115612a3057600080fd5b8701601f81018913612a4157600080fd5b612a508982356020840161296a565b9450506060870135612a618161265a565b9598949750929560808101359460a0909101359350915050565b600060208284031215612a8d57600080fd5b8135610b978161265a565b60008060408385031215612aab57600080fd5b8235612ab68161265a565b9150602083013567ffffffffffffffff811115612ad257600080fd5b8301601f81018513612ae357600080fd5b612af28582356020840161296a565b9150509250929050565b600181811c90821680612b1057607f821691505b602082108103612b3057634e487b7160e01b600052602260045260246000fd5b50919050565b634e487b7160e01b600052603260045260246000fd5b634e487b7160e01b600052601160045260246000fd5b8181038181111561196257611962612b4c565b634e487b7160e01b600052603160045260246000fd5b600060018201612b9d57612b9d612b4c565b5060010190565b60008251612bb68184602087016126e3565b9190910192915050565b600060208284031215612bd257600080fd5b815160ff81168114610b9757600080fd5b601f821115611d6557600081815260208120601f850160051c81016020861015612c0a5750805b601f850160051c820191505b81811015612c2957828155600101612c16565b505050505050565b815167ffffffffffffffff811115612c4b57612c4b612954565b612c5f81612c598454612afc565b84612be3565b602080601f831160018114612c945760008415612c7c5750858301515b600019600386901b1c1916600185901b178555612c29565b600085815260208120601f198616915b82811015612cc357888601518255948401946001909101908401612ca4565b5085821015612ce15787850151600019600388901b60f8161c191681555b5050505050600190811b01905550565b6020808252602c908201527f46756e6374696f6e206d7573742062652063616c6c6564207468726f7567682060408201526b19195b1959d85d1958d85b1b60a21b606082015260800190565b6020808252602c908201527f46756e6374696f6e206d7573742062652063616c6c6564207468726f7567682060408201526b6163746976652070726f787960a01b606082015260800190565b8082018082111561196257611962612b4c565b808202811582820484141761196257611962612b4c565b600082612dd057634e487b7160e01b600052601260045260246000fd5b500490565b600080600060608486031215612dea57600080fd5b83519250602084015191506040840151612e038161265a565b809150509250925092565b600060208284031215612e2057600080fd5b5051919050565b6020808252602b908201527f496e697469616c697a61626c653a20636f6e7472616374206973206e6f74206960408201526a6e697469616c697a696e6760a81b606082015260800190565b600060208284031215612e8457600080fd5b8151610b9781612905565b602081526000610b97602083018461270756fe360894a13ba1a3210667c828492db98dca3e2076cc3735a920a3ca505d382bbc416464726573733a206c6f772d6c6576656c2064656c65676174652063616c6c206661696c6564a2646970667358221220131a16058eab1a992d62663c0b6bfd5f096f937d833cab3d9e6bc38314fb6c5464736f6c63430008110033",
    "linkReferences": {
      "src/lib/SaloonLib.sol": {
        "SaloonLib": [
          {
            "start": 7264,
            "length": 20
          }
        ]
      }
    }
  },
  "methodIdentifiers": {
    "acceptOwnershipTransfer()": "b842e87f",
    "activeStrategies(uint256)": "b20b2429",
    "activeTokens(uint256)": "9f224f35",
    "addNewBountyPool(address,address,string,address,uint256,uint256)": "32fce602",
    "billPremium(uint256)": "2dbe051e",
    "calcRequiredPremiumBalancePerPeriod(uint256,uint256)": "836ef1fa",
    "collectAllReferralProfits()": "3e8888d9",
    "collectAllSaloonProfits(address)": "ecd7fbed",
    "collectReferralProfit(address)": "a089a520",
    "collectSaloonProfits(address,address)": "cf9564b9",
    "extendReferralPeriod(uint256,uint256)": "5de406dc",
    "initialize(address)": "c4d66de8",
    "minTokenStakeAmount(address)": "39458723",
    "nftInfo(uint256)": "1f8bc790",
    "owner()": "8da5cb5b",
    "pidNFTList(uint256,uint256)": "96ea48e8",
    "pidStrategies(uint256,bytes32)": "074ecf03",
    "poolInfo(uint256)": "1526fe27",
    "proxiableUUID()": "52d1902d",
    "receiveStrategyYield(address,uint256)": "1aebcecb",
    "referralBalances(address,address)": "011b408b",
    "saloonBountyProfit(address)": "e45abd0f",
    "saloonPremiumProfit(address)": "ca006148",
    "saloonStrategyProfit(address)": "598d17bf",
    "strategyAddressToPid(address)": "957deecc",
    "tokenWhitelist(address)": "753d7563",
    "transferOwnership(address)": "f2fde38b",
    "updateTokenWhitelist(address,bool,uint256)": "2cb0dfcc",
    "upgradeTo(address)": "3659cfe6",
    "upgradeToAndCall(address,bytes)": "4f1ef286",
    "viewBountyBalance(uint256)": "6ac6d812"
  },
  "id": 26
}