{
  "abi": [
    {
      "inputs": [],
      "stateMutability": "nonpayable",
      "type": "constructor"
    },
    {
      "anonymous": false,
      "inputs": [
        {
          "indexed": true,
          "internalType": "address",
          "name": "owner",
          "type": "address"
        },
        {
          "indexed": true,
          "internalType": "address",
          "name": "approved",
          "type": "address"
        },
        {
          "indexed": true,
          "internalType": "uint256",
          "name": "tokenId",
          "type": "uint256"
        }
      ],
      "name": "Approval",
      "type": "event"
    },
    {
      "anonymous": false,
      "inputs": [
        {
          "indexed": true,
          "internalType": "address",
          "name": "owner",
          "type": "address"
        },
        {
          "indexed": true,
          "internalType": "address",
          "name": "operator",
          "type": "address"
        },
        {
          "indexed": false,
          "internalType": "bool",
          "name": "approved",
          "type": "bool"
        }
      ],
      "name": "ApprovalForAll",
      "type": "event"
    },
    {
      "anonymous": false,
      "inputs": [
        {
          "indexed": true,
          "internalType": "uint256",
          "name": "pid",
          "type": "uint256"
        },
        {
          "indexed": false,
          "internalType": "uint256",
          "name": "oldAmount",
          "type": "uint256"
        },
        {
          "indexed": false,
          "internalType": "uint256",
          "name": "newAmount",
          "type": "uint256"
        }
      ],
      "name": "BountyBalanceChanged",
      "type": "event"
    },
    {
      "anonymous": false,
      "inputs": [
        {
          "indexed": true,
          "internalType": "address",
          "name": "hunter",
          "type": "address"
        },
        {
          "indexed": true,
          "internalType": "address",
          "name": "token",
          "type": "address"
        },
        {
          "indexed": false,
          "internalType": "uint256",
          "name": "amount",
          "type": "uint256"
        }
      ],
      "name": "BountyPaid",
      "type": "event"
    },
    {
      "anonymous": false,
      "inputs": [
        {
          "indexed": false,
          "internalType": "uint8",
          "name": "version",
          "type": "uint8"
        }
      ],
      "name": "Initialized",
      "type": "event"
    },
    {
      "anonymous": false,
      "inputs": [
        {
          "indexed": true,
          "internalType": "uint256",
          "name": "pid",
          "type": "uint256"
        },
        {
          "indexed": true,
          "internalType": "address",
          "name": "token",
          "type": "address"
        },
        {
          "indexed": false,
          "internalType": "uint256",
          "name": "tokenDecimals",
          "type": "uint256"
        }
      ],
      "name": "NewBountyDeployed",
      "type": "event"
    },
    {
      "anonymous": false,
      "inputs": [
        {
          "indexed": true,
          "internalType": "address",
          "name": "previousOwner",
          "type": "address"
        },
        {
          "indexed": true,
          "internalType": "address",
          "name": "newOwner",
          "type": "address"
        }
      ],
      "name": "OwnershipTransferred",
      "type": "event"
    },
    {
      "anonymous": false,
      "inputs": [
        {
          "indexed": true,
          "internalType": "uint256",
          "name": "pid",
          "type": "uint256"
        },
        {
          "indexed": false,
          "internalType": "uint256",
          "name": "amount",
          "type": "uint256"
        }
      ],
      "name": "PremiumBilled",
      "type": "event"
    },
    {
      "anonymous": false,
      "inputs": [
        {
          "indexed": true,
          "internalType": "address",
          "name": "user",
          "type": "address"
        },
        {
          "indexed": true,
          "internalType": "uint256",
          "name": "pid",
          "type": "uint256"
        },
        {
          "indexed": false,
          "internalType": "uint256",
          "name": "amount",
          "type": "uint256"
        }
      ],
      "name": "Staked",
      "type": "event"
    },
    {
      "anonymous": false,
      "inputs": [
        {
          "indexed": true,
          "internalType": "address",
          "name": "from",
          "type": "address"
        },
        {
          "indexed": true,
          "internalType": "address",
          "name": "to",
          "type": "address"
        },
        {
          "indexed": true,
          "internalType": "uint256",
          "name": "tokenId",
          "type": "uint256"
        }
      ],
      "name": "Transfer",
      "type": "event"
    },
    {
      "anonymous": false,
      "inputs": [
        {
          "indexed": true,
          "internalType": "address",
          "name": "user",
          "type": "address"
        },
        {
          "indexed": true,
          "internalType": "uint256",
          "name": "pid",
          "type": "uint256"
        },
        {
          "indexed": false,
          "internalType": "uint256",
          "name": "amount",
          "type": "uint256"
        }
      ],
      "name": "Unstaked",
      "type": "event"
    },
    {
      "anonymous": false,
      "inputs": [
        {
          "indexed": true,
          "internalType": "uint256",
          "name": "pid",
          "type": "uint256"
        },
        {
          "indexed": false,
          "internalType": "uint256",
          "name": "amount",
          "type": "uint256"
        }
      ],
      "name": "WithdrawalOrUnstakeScheduled",
      "type": "event"
    },
    {
      "anonymous": false,
      "inputs": [
        {
          "indexed": true,
          "internalType": "address",
          "name": "referrer",
          "type": "address"
        },
        {
          "indexed": false,
          "internalType": "uint256",
          "name": "amount",
          "type": "uint256"
        }
      ],
      "name": "referralPaid",
      "type": "event"
    },
    {
      "anonymous": false,
      "inputs": [
        {
          "indexed": true,
          "internalType": "address",
          "name": "token",
          "type": "address"
        },
        {
          "indexed": true,
          "internalType": "bool",
          "name": "whitelisted",
          "type": "bool"
        }
      ],
      "name": "tokenWhitelistUpdated",
      "type": "event"
    },
    {
      "inputs": [],
      "name": "acceptOwnershipTransfer",
      "outputs": [],
      "stateMutability": "nonpayable",
      "type": "function"
    },
    {
      "inputs": [
        {
          "internalType": "uint256",
          "name": "",
          "type": "uint256"
        }
      ],
      "name": "activeStrategies",
      "outputs": [
        {
          "internalType": "bytes32",
          "name": "",
          "type": "bytes32"
        }
      ],
      "stateMutability": "view",
      "type": "function"
    },
    {
      "inputs": [
        {
          "internalType": "uint256",
          "name": "",
          "type": "uint256"
        }
      ],
      "name": "activeTokens",
      "outputs": [
        {
          "internalType": "address",
          "name": "",
          "type": "address"
        }
      ],
      "stateMutability": "view",
      "type": "function"
    },
    {
      "inputs": [
        {
          "internalType": "address",
          "name": "to",
          "type": "address"
        },
        {
          "internalType": "uint256",
          "name": "tokenId",
          "type": "uint256"
        }
      ],
      "name": "approve",
      "outputs": [],
      "stateMutability": "nonpayable",
      "type": "function"
    },
    {
      "inputs": [
        {
          "internalType": "address",
          "name": "owner",
          "type": "address"
        }
      ],
      "name": "balanceOf",
      "outputs": [
        {
          "internalType": "uint256",
          "name": "",
          "type": "uint256"
        }
      ],
      "stateMutability": "view",
      "type": "function"
    },
    {
      "inputs": [
        {
          "internalType": "uint256",
          "name": "_poolCap",
          "type": "uint256"
        },
        {
          "internalType": "uint256",
          "name": "_apy",
          "type": "uint256"
        }
      ],
      "name": "calcRequiredPremiumBalancePerPeriod",
      "outputs": [
        {
          "internalType": "uint256",
          "name": "requiredPremiumBalance",
          "type": "uint256"
        }
      ],
      "stateMutability": "pure",
      "type": "function"
    },
    {
      "inputs": [
        {
          "internalType": "uint256",
          "name": "_pid",
          "type": "uint256"
        },
        {
          "internalType": "uint256",
          "name": "_stake",
          "type": "uint256"
        },
        {
          "internalType": "uint256",
          "name": "_x",
          "type": "uint256"
        }
      ],
      "name": "calculateEffectiveAPY",
      "outputs": [
        {
          "internalType": "uint256",
          "name": "scaledAPY",
          "type": "uint256"
        }
      ],
      "stateMutability": "view",
      "type": "function"
    },
    {
      "inputs": [
        {
          "internalType": "uint256",
          "name": "_tokenId",
          "type": "uint256"
        }
      ],
      "name": "claimPremium",
      "outputs": [],
      "stateMutability": "nonpayable",
      "type": "function"
    },
    {
      "inputs": [
        {
          "internalType": "uint256",
          "name": "_pid",
          "type": "uint256"
        }
      ],
      "name": "consolidate",
      "outputs": [],
      "stateMutability": "nonpayable",
      "type": "function"
    },
    {
      "inputs": [],
      "name": "consolidateAll",
      "outputs": [],
      "stateMutability": "nonpayable",
      "type": "function"
    },
    {
      "inputs": [
        {
          "internalType": "address",
          "name": "_owner",
          "type": "address"
        }
      ],
      "name": "getAllTokensByOwner",
      "outputs": [
        {
          "components": [
            {
              "internalType": "uint256",
              "name": "pid",
              "type": "uint256"
            },
            {
              "internalType": "uint256",
              "name": "amount",
              "type": "uint256"
            },
            {
              "internalType": "uint256",
              "name": "xDelta",
              "type": "uint256"
            },
            {
              "internalType": "uint256",
              "name": "apy",
              "type": "uint256"
            },
            {
              "internalType": "uint256",
              "name": "unclaimed",
              "type": "uint256"
            },
            {
              "internalType": "uint256",
              "name": "lastClaimedTime",
              "type": "uint256"
            },
            {
              "internalType": "uint256",
              "name": "timelock",
              "type": "uint256"
            },
            {
              "internalType": "uint256",
              "name": "timelimit",
              "type": "uint256"
            }
          ],
          "internalType": "struct ISaloon.NFTInfo[]",
          "name": "userTokens",
          "type": "tuple[]"
        }
      ],
      "stateMutability": "view",
      "type": "function"
    },
    {
      "inputs": [
        {
          "internalType": "uint256",
          "name": "tokenId",
          "type": "uint256"
        }
      ],
      "name": "getApproved",
      "outputs": [
        {
          "internalType": "address",
          "name": "",
          "type": "address"
        }
      ],
      "stateMutability": "view",
      "type": "function"
    },
    {
      "inputs": [
        {
          "internalType": "uint256",
          "name": "_pid",
          "type": "uint256"
        }
      ],
      "name": "getCurrentAPY",
      "outputs": [
        {
          "internalType": "uint256",
          "name": "currentAPY",
          "type": "uint256"
        }
      ],
      "stateMutability": "view",
      "type": "function"
    },
    {
      "inputs": [],
      "name": "index",
      "outputs": [
        {
          "internalType": "uint256",
          "name": "",
          "type": "uint256"
        }
      ],
      "stateMutability": "view",
      "type": "function"
    },
    {
      "inputs": [
        {
          "internalType": "address",
          "name": "_strategyFactory",
          "type": "address"
        }
      ],
      "name": "initialize",
      "outputs": [],
      "stateMutability": "nonpayable",
      "type": "function"
    },
    {
      "inputs": [
        {
          "internalType": "address",
          "name": "owner",
          "type": "address"
        },
        {
          "internalType": "address",
          "name": "operator",
          "type": "address"
        }
      ],
      "name": "isApprovedForAll",
      "outputs": [
        {
          "internalType": "bool",
          "name": "",
          "type": "bool"
        }
      ],
      "stateMutability": "view",
      "type": "function"
    },
    {
      "inputs": [
        {
          "internalType": "address",
          "name": "",
          "type": "address"
        }
      ],
      "name": "minTokenStakeAmount",
      "outputs": [
        {
          "internalType": "uint256",
          "name": "",
          "type": "uint256"
        }
      ],
      "stateMutability": "view",
      "type": "function"
    },
    {
      "inputs": [],
      "name": "name",
      "outputs": [
        {
          "internalType": "string",
          "name": "",
          "type": "string"
        }
      ],
      "stateMutability": "view",
      "type": "function"
    },
    {
      "inputs": [
        {
          "internalType": "uint256",
          "name": "",
          "type": "uint256"
        }
      ],
      "name": "nftInfo",
      "outputs": [
        {
          "internalType": "uint256",
          "name": "pid",
          "type": "uint256"
        },
        {
          "internalType": "uint256",
          "name": "amount",
          "type": "uint256"
        },
        {
          "internalType": "uint256",
          "name": "xDelta",
          "type": "uint256"
        },
        {
          "internalType": "uint256",
          "name": "apy",
          "type": "uint256"
        },
        {
          "internalType": "uint256",
          "name": "unclaimed",
          "type": "uint256"
        },
        {
          "internalType": "uint256",
          "name": "lastClaimedTime",
          "type": "uint256"
        },
        {
          "internalType": "uint256",
          "name": "timelock",
          "type": "uint256"
        },
        {
          "internalType": "uint256",
          "name": "timelimit",
          "type": "uint256"
        }
      ],
      "stateMutability": "view",
      "type": "function"
    },
    {
      "inputs": [],
      "name": "owner",
      "outputs": [
        {
          "internalType": "address",
          "name": "",
          "type": "address"
        }
      ],
      "stateMutability": "view",
      "type": "function"
    },
    {
      "inputs": [
        {
          "internalType": "uint256",
          "name": "tokenId",
          "type": "uint256"
        }
      ],
      "name": "ownerOf",
      "outputs": [
        {
          "internalType": "address",
          "name": "",
          "type": "address"
        }
      ],
      "stateMutability": "view",
      "type": "function"
    },
    {
      "inputs": [
        {
          "internalType": "uint256",
          "name": "__pid",
          "type": "uint256"
        },
        {
          "internalType": "address",
          "name": "_hunter",
          "type": "address"
        },
        {
          "internalType": "uint16",
          "name": "_payoutBPS",
          "type": "uint16"
        },
        {
          "internalType": "uint16",
          "name": "_hunterBonusBPS",
          "type": "uint16"
        }
      ],
      "name": "payBounty",
      "outputs": [],
      "stateMutability": "nonpayable",
      "type": "function"
    },
    {
      "inputs": [
        {
          "internalType": "uint256",
          "name": "",
          "type": "uint256"
        },
        {
          "internalType": "uint256",
          "name": "",
          "type": "uint256"
        }
      ],
      "name": "pidNFTList",
      "outputs": [
        {
          "internalType": "uint256",
          "name": "",
          "type": "uint256"
        }
      ],
      "stateMutability": "view",
      "type": "function"
    },
    {
      "inputs": [
        {
          "internalType": "uint256",
          "name": "",
          "type": "uint256"
        },
        {
          "internalType": "bytes32",
          "name": "",
          "type": "bytes32"
        }
      ],
      "name": "pidStrategies",
      "outputs": [
        {
          "internalType": "address",
          "name": "",
          "type": "address"
        }
      ],
      "stateMutability": "view",
      "type": "function"
    },
    {
      "inputs": [
        {
          "internalType": "uint256",
          "name": "",
          "type": "uint256"
        }
      ],
      "name": "poolInfo",
      "outputs": [
        {
          "components": [
            {
              "internalType": "contract IERC20",
              "name": "token",
              "type": "address"
            },
            {
              "internalType": "uint8",
              "name": "tokenDecimals",
              "type": "uint8"
            },
            {
              "internalType": "uint16",
              "name": "apy",
              "type": "uint16"
            },
            {
              "internalType": "address",
              "name": "projectWallet",
              "type": "address"
            },
            {
              "internalType": "string",
              "name": "projectName",
              "type": "string"
            },
            {
              "internalType": "uint256",
              "name": "poolCap",
              "type": "uint256"
            },
            {
              "internalType": "uint256",
              "name": "totalStaked",
              "type": "uint256"
            },
            {
              "internalType": "uint256",
              "name": "scalingMultiplier",
              "type": "uint256"
            }
          ],
          "internalType": "struct ISaloon.GeneralInfo",
          "name": "generalInfo",
          "type": "tuple"
        },
        {
          "components": [
            {
              "internalType": "uint256",
              "name": "projectDepositHeld",
              "type": "uint256"
            },
            {
              "internalType": "uint256",
              "name": "projectDepositInStrategy",
              "type": "uint256"
            }
          ],
          "internalType": "struct ISaloon.DepositInfo",
          "name": "depositInfo",
          "type": "tuple"
        },
        {
          "components": [
            {
              "internalType": "uint256",
              "name": "premiumBalance",
              "type": "uint256"
            },
            {
              "internalType": "uint256",
              "name": "premiumAvailable",
              "type": "uint256"
            }
          ],
          "internalType": "struct ISaloon.PremiumInfo",
          "name": "premiumInfo",
          "type": "tuple"
        },
        {
          "components": [
            {
              "internalType": "uint256",
              "name": "timelock",
              "type": "uint256"
            },
            {
              "internalType": "uint256",
              "name": "timeLimit",
              "type": "uint256"
            },
            {
              "internalType": "uint256",
              "name": "withdrawalScheduledAmount",
              "type": "uint256"
            },
            {
              "internalType": "bool",
              "name": "withdrawalExecuted",
              "type": "bool"
            }
          ],
          "internalType": "struct ISaloon.TimelockInfo",
          "name": "poolTimelock",
          "type": "tuple"
        },
        {
          "components": [
            {
              "internalType": "uint256",
              "name": "currentX",
              "type": "uint256"
            },
            {
              "internalType": "uint256",
              "name": "currentY",
              "type": "uint256"
            },
            {
              "internalType": "uint256",
              "name": "totalSupply",
              "type": "uint256"
            },
            {
              "internalType": "uint256[]",
              "name": "unstakedTokens",
              "type": "uint256[]"
            }
          ],
          "internalType": "struct ISaloon.CurveInfo",
          "name": "curveInfo",
          "type": "tuple"
        },
        {
          "components": [
            {
              "internalType": "address",
              "name": "referrer",
              "type": "address"
            },
            {
              "internalType": "uint256",
              "name": "referralFee",
              "type": "uint256"
            },
            {
              "internalType": "uint256",
              "name": "endTime",
              "type": "uint256"
            }
          ],
          "internalType": "struct ISaloon.ReferralInfo",
          "name": "referralInfo",
          "type": "tuple"
        },
        {
          "internalType": "uint256",
          "name": "freezeTime",
          "type": "uint256"
        },
        {
          "internalType": "bool",
          "name": "isActive",
          "type": "bool"
        }
      ],
      "stateMutability": "view",
      "type": "function"
    },
    {
      "inputs": [
        {
          "internalType": "address",
          "name": "_token",
          "type": "address"
        },
        {
          "internalType": "uint256",
          "name": "_amount",
          "type": "uint256"
        }
      ],
      "name": "receiveStrategyYield",
      "outputs": [],
      "stateMutability": "nonpayable",
      "type": "function"
    },
    {
      "inputs": [
        {
          "internalType": "address",
          "name": "",
          "type": "address"
        },
        {
          "internalType": "address",
          "name": "",
          "type": "address"
        }
      ],
      "name": "referralBalances",
      "outputs": [
        {
          "internalType": "uint256",
          "name": "",
          "type": "uint256"
        }
      ],
      "stateMutability": "view",
      "type": "function"
    },
    {
      "inputs": [
        {
          "internalType": "address",
          "name": "from",
          "type": "address"
        },
        {
          "internalType": "address",
          "name": "to",
          "type": "address"
        },
        {
          "internalType": "uint256",
          "name": "tokenId",
          "type": "uint256"
        }
      ],
      "name": "safeTransferFrom",
      "outputs": [],
      "stateMutability": "nonpayable",
      "type": "function"
    },
    {
      "inputs": [
        {
          "internalType": "address",
          "name": "from",
          "type": "address"
        },
        {
          "internalType": "address",
          "name": "to",
          "type": "address"
        },
        {
          "internalType": "uint256",
          "name": "tokenId",
          "type": "uint256"
        },
        {
          "internalType": "bytes",
          "name": "data",
          "type": "bytes"
        }
      ],
      "name": "safeTransferFrom",
      "outputs": [],
      "stateMutability": "nonpayable",
      "type": "function"
    },
    {
      "inputs": [
        {
          "internalType": "address",
          "name": "",
          "type": "address"
        }
      ],
      "name": "saloonBountyProfit",
      "outputs": [
        {
          "internalType": "uint256",
          "name": "",
          "type": "uint256"
        }
      ],
      "stateMutability": "view",
      "type": "function"
    },
    {
      "inputs": [
        {
          "internalType": "address",
          "name": "",
          "type": "address"
        }
      ],
      "name": "saloonPremiumProfit",
      "outputs": [
        {
          "internalType": "uint256",
          "name": "",
          "type": "uint256"
        }
      ],
      "stateMutability": "view",
      "type": "function"
    },
    {
      "inputs": [
        {
          "internalType": "address",
          "name": "",
          "type": "address"
        }
      ],
      "name": "saloonStrategyProfit",
      "outputs": [
        {
          "internalType": "uint256",
          "name": "",
          "type": "uint256"
        }
      ],
      "stateMutability": "view",
      "type": "function"
    },
    {
      "inputs": [
        {
          "internalType": "uint256",
          "name": "_tokenId",
          "type": "uint256"
        }
      ],
      "name": "scheduleUnstake",
      "outputs": [
        {
          "internalType": "bool",
          "name": "",
          "type": "bool"
        }
      ],
      "stateMutability": "nonpayable",
      "type": "function"
    },
    {
      "inputs": [
        {
          "internalType": "address",
          "name": "operator",
          "type": "address"
        },
        {
          "internalType": "bool",
          "name": "approved",
          "type": "bool"
        }
      ],
      "name": "setApprovalForAll",
      "outputs": [],
      "stateMutability": "nonpayable",
      "type": "function"
    },
    {
      "inputs": [
        {
          "internalType": "uint256",
          "name": "_pid",
          "type": "uint256"
        },
        {
          "internalType": "uint256",
          "name": "_amount",
          "type": "uint256"
        }
      ],
      "name": "stake",
      "outputs": [
        {
          "internalType": "uint256",
          "name": "",
          "type": "uint256"
        }
      ],
      "stateMutability": "nonpayable",
      "type": "function"
    },
    {
      "inputs": [
        {
          "internalType": "address",
          "name": "",
          "type": "address"
        }
      ],
      "name": "strategyAddressToPid",
      "outputs": [
        {
          "internalType": "uint256",
          "name": "",
          "type": "uint256"
        }
      ],
      "stateMutability": "view",
      "type": "function"
    },
    {
      "inputs": [
        {
          "internalType": "bytes4",
          "name": "interfaceId",
          "type": "bytes4"
        }
      ],
      "name": "supportsInterface",
      "outputs": [
        {
          "internalType": "bool",
          "name": "",
          "type": "bool"
        }
      ],
      "stateMutability": "view",
      "type": "function"
    },
    {
      "inputs": [],
      "name": "symbol",
      "outputs": [
        {
          "internalType": "string",
          "name": "",
          "type": "string"
        }
      ],
      "stateMutability": "view",
      "type": "function"
    },
    {
      "inputs": [
        {
          "internalType": "uint256",
          "name": "tokenId",
          "type": "uint256"
        }
      ],
      "name": "tokenURI",
      "outputs": [
        {
          "internalType": "string",
          "name": "",
          "type": "string"
        }
      ],
      "stateMutability": "view",
      "type": "function"
    },
    {
      "inputs": [
        {
          "internalType": "address",
          "name": "",
          "type": "address"
        }
      ],
      "name": "tokenWhitelist",
      "outputs": [
        {
          "internalType": "bool",
          "name": "",
          "type": "bool"
        }
      ],
      "stateMutability": "view",
      "type": "function"
    },
    {
      "inputs": [
        {
          "internalType": "address",
          "name": "from",
          "type": "address"
        },
        {
          "internalType": "address",
          "name": "to",
          "type": "address"
        },
        {
          "internalType": "uint256",
          "name": "tokenId",
          "type": "uint256"
        }
      ],
      "name": "transferFrom",
      "outputs": [],
      "stateMutability": "nonpayable",
      "type": "function"
    },
    {
      "inputs": [
        {
          "internalType": "address",
          "name": "newOwner",
          "type": "address"
        }
      ],
      "name": "transferOwnership",
      "outputs": [],
      "stateMutability": "nonpayable",
      "type": "function"
    },
    {
      "inputs": [
        {
          "internalType": "uint256",
          "name": "_tokenId",
          "type": "uint256"
        },
        {
          "internalType": "bool",
          "name": "_shouldHarvest",
          "type": "bool"
        }
      ],
      "name": "unstake",
      "outputs": [
        {
          "internalType": "bool",
          "name": "",
          "type": "bool"
        }
      ],
      "stateMutability": "nonpayable",
      "type": "function"
    },
    {
      "inputs": [
        {
          "internalType": "uint256",
          "name": "_pid",
          "type": "uint256"
        }
      ],
      "name": "viewBountyBalance",
      "outputs": [
        {
          "internalType": "uint256",
          "name": "",
          "type": "uint256"
        }
      ],
      "stateMutability": "view",
      "type": "function"
    }
  ],
  "bytecode": {
    "object": "0x60806040523480156200001157600080fd5b50600054610100900460ff1615808015620000335750600054600160ff909116105b8062000063575062000050306200018e60201b62002bcf1760201c565b15801562000063575060005460ff166001145b620000cc5760405162461bcd60e51b815260206004820152602e60248201527f496e697469616c697a61626c653a20636f6e747261637420697320616c72656160448201526d191e481a5b9a5d1a585b1a5e995960921b60648201526084015b60405180910390fd5b6000805460ff191660011790558015620000f0576000805461ff0019166101001790555b620001406040518060400160405280600b81526020016a2137bab73a3caa37b5b2b760a91b8152506040518060400160405280600381526020016210951560ea1b8152506200019d60201b60201c565b801562000187576000805461ff0019169055604051600181527f7f26b83ff96e1f2b6a682f133852f6798a09c465da95921460cefb38474024989060200160405180910390a15b50620003f7565b6001600160a01b03163b151590565b600054610100900460ff16620001f95760405162461bcd60e51b815260206004820152602b60248201526000805160206200537a83398151915260448201526a6e697469616c697a696e6760a81b6064820152608401620000c3565b62000205828262000209565b5050565b600054610100900460ff16620002655760405162461bcd60e51b815260206004820152602b60248201526000805160206200537a83398151915260448201526a6e697469616c697a696e6760a81b6064820152608401620000c3565b60656200027383826200032b565b5060666200028282826200032b565b505050565b634e487b7160e01b600052604160045260246000fd5b600181811c90821680620002b257607f821691505b602082108103620002d357634e487b7160e01b600052602260045260246000fd5b50919050565b601f8211156200028257600081815260208120601f850160051c81016020861015620003025750805b601f850160051c820191505b8181101562000323578281556001016200030e565b505050505050565b81516001600160401b0381111562000347576200034762000287565b6200035f816200035884546200029d565b84620002d9565b602080601f8311600181146200039757600084156200037e5750858301515b600019600386901b1c1916600185901b17855562000323565b600085815260208120601f198616915b82811015620003c857888601518255948401946001909101908401620003a7565b5085821015620003e75787850151600019600388901b60f8161c191681555b5050505050600190811b01905550565b614f7380620004076000396000f3fe608060405234801561001057600080fd5b50600436106102745760003560e01c806381c6f1a711610151578063b842e87f116100c3578063d075afac11610087578063d075afac14610673578063e45abd0f14610686578063e985e9c5146106a6578063e9fda7d4146106e2578063f2fde38b14610702578063f47ec3be1461071557600080fd5b8063b842e87f14610612578063b88d4fde1461061a578063c4d66de81461062d578063c87b56dd14610640578063ca0061481461065357600080fd5b806395d89b411161011557806395d89b411461059e57806396ea48e8146105a65780639ebea88c146105b95780639f224f35146105cc578063a22cb465146105df578063b20b2429146105f257600080fd5b806381c6f1a714610534578063836ef1fa146105475780638da5cb5b1461055a578063949a4a4a1461056b578063957deecc1461057e57600080fd5b80632986c0e5116101ea5780636ac6d812116101ae5780636ac6d812146104bd57806370a08231146104d0578063753d7563146104e357806375bfd63d146105065780637b0472f01461050e5780637fbf38531461052157600080fd5b80632986c0e51461044e578063394587231461045757806342842e0e14610477578063598d17bf1461048a5780636352211e146104aa57600080fd5b8063095ea7b31161023c578063095ea7b31461034e578063106d08df146103635780631526fe27146103765780631aebcecb1461039d5780631f8bc790146103af57806323b872dd1461043b57600080fd5b8063011b408b1461027957806301ffc9a7146102b757806306fdde03146102da578063074ecf03146102ef578063081812fc1461033b575b600080fd5b6102a4610287366004614616565b609f60209081526000928352604080842090915290825290205481565b6040519081526020015b60405180910390f35b6102ca6102c5366004614665565b610728565b60405190151581526020016102ae565b6102e261077a565b6040516102ae91906146d2565b6103236102fd3660046146e5565b60a16020908152600092835260408084209091529082529020546001600160a01b031681565b6040516001600160a01b0390911681526020016102ae565b610323610349366004614707565b61080c565b61036161035c366004614720565b610833565b005b6102ca610371366004614707565b61094d565b610389610384366004614707565b610a33565b6040516102ae9897969594939291906147b7565b6103616103ab366004614720565b5050565b6104006103bd366004614707565b609a602052600090815260409020805460018201546002830154600384015460048501546005860154600687015460079097015495969495939492939192909188565b604080519889526020890197909752958701949094526060860192909252608085015260a084015260c083015260e0820152610100016102ae565b6103616104493660046148f2565b610c8f565b6102a4606b5481565b6102a4610465366004614933565b60a66020526000908152604090205481565b6103616104853660046148f2565b610cc0565b6102a4610498366004614933565b609e6020526000908152604090205481565b6103236104b8366004614707565b610cdb565b6102a46104cb366004614707565b610d3b565b6102a46104de366004614933565b610fe4565b6102ca6104f1366004614933565b60a46020526000908152604090205460ff1681565b61036161106a565b6102a461051c3660046146e5565b611091565b6102a461052f366004614707565b611511565b6102a4610542366004614950565b611822565b6102a46105553660046146e5565b611afd565b60a7546001600160a01b0316610323565b610361610579366004614707565b611b33565b6102a461058c366004614933565b60a36020526000908152604090205481565b6102e2611f54565b6102a46105b43660046146e5565b611f63565b6102ca6105c736600461498a565b611f94565b6103236105da366004614707565b6121ba565b6103616105ed3660046149af565b6121e4565b6102a4610600366004614707565b60a26020526000908152604090205481565b6103616121ef565b6103616106283660046149f3565b61226f565b61036161063b366004614933565b6122a7565b6102e261064e366004614707565b6123d3565b6102a4610661366004614933565b609d6020526000908152604090205481565b610361610681366004614ae5565b612446565b6102a4610694366004614933565b609c6020526000908152604090205481565b6102ca6106b4366004614616565b6001600160a01b039182166000908152606a6020908152604080832093909416825291909152205460ff1690565b6106f56106f0366004614933565b612951565b6040516102ae9190614b34565b610361610710366004614933565b612ad9565b610361610723366004614707565b612b68565b60006001600160e01b031982166380ac58cd60e01b148061075957506001600160e01b03198216635b5e139f60e01b145b8061077457506301ffc9a760e01b6001600160e01b03198316145b92915050565b60606065805461078990614bb4565b80601f01602080910402602001604051908101604052809291908181526020018280546107b590614bb4565b80156108025780601f106107d757610100808354040283529160200191610802565b820191906000526020600020905b8154815290600101906020018083116107e557829003601f168201915b5050505050905090565b600061081782612bde565b506000908152606960205260409020546001600160a01b031690565b600061083e82610cdb565b9050806001600160a01b0316836001600160a01b0316036108b05760405162461bcd60e51b815260206004820152602160248201527f4552433732313a20617070726f76616c20746f2063757272656e74206f776e656044820152603960f91b60648201526084015b60405180910390fd5b336001600160a01b03821614806108cc57506108cc81336106b4565b61093e5760405162461bcd60e51b815260206004820152603d60248201527f4552433732313a20617070726f76652063616c6c6572206973206e6f7420746f60448201527f6b656e206f776e6572206f7220617070726f76656420666f7220616c6c00000060648201526084016108a7565b6109488383612c3d565b505050565b6000610957612cab565b6109613383612d04565b6109a35760405162461bcd60e51b815260206004820152601360248201527239b2b73232b91034b9903737ba1037bbb732b960691b60448201526064016108a7565b6000828152609a6020526040902080546109c062093a8042614c04565b60068301556109d262093a8042614c04565b6109df906203f480614c04565b6007830155600182015460405190815281907fb3b9c925de3673837b40c6b4d4463a8f88dc821cd27e07f1ff6bf6abf96413a59060200160405180910390a2600192505050610a2e600160da55565b919050565b60998181548110610a4357600080fd5b60009182526020918290206040805161010081018252601790930290910180546001600160a01b03808216855260ff600160a01b8304169585019590955261ffff600160a81b909104169183019190915260018101549092166060820152600282018054929350909183916080840191610abc90614bb4565b80601f0160208091040260200160405190810160405280929190818152602001828054610ae890614bb4565b8015610b355780601f10610b0a57610100808354040283529160200191610b35565b820191906000526020600020905b815481529060010190602001808311610b1857829003601f168201915b50505091835250506003820154602080830191909152600483015460408084019190915260059093015460609283015282518084018452600686015481526007860154818301528351808501855260088701548152600987015481840152845160808082018752600a8901548252600b89015482860152600c89015482880152600d89015460ff1615158287015286519081018752600e890180548252600f8a01548287015260108a01548289015260118a018054895181890281018901909a52808a52999a9599949893979596929591949186019392909190830182828015610c3e57602002820191906000526020600020905b815481526020019060010190808311610c2a575b5050509190925250506040805160608101825260128501546001600160a01b031681526013850154602082015260148501549181019190915260158401546016909401549293909290915060ff1688565b610c993382612d04565b610cb55760405162461bcd60e51b81526004016108a790614c17565b610948838383612d83565b6109488383836040518060200160405280600081525061226f565b6000818152606760205260408120546001600160a01b0316806107745760405162461bcd60e51b8152602060048201526018602482015277115490cdcc8c4e881a5b9d985b1a59081d1bdad95b88125160421b60448201526064016108a7565b60008060998381548110610d5157610d51614c64565b6000918252602090912060408051610200810190915260179092020180546001600160a01b038082166101008501908152600160a01b830460ff16610120860152600160a81b90920461ffff16610140850152600183015416610160840152600282018054849291849161018085019190610dcb90614bb4565b80601f0160208091040260200160405190810160405280929190818152602001828054610df790614bb4565b8015610e445780601f10610e1957610100808354040283529160200191610e44565b820191906000526020600020905b815481529060010190602001808311610e2757829003601f168201915b505050918352505060038201546020808301919091526004830154604080840191909152600590930154606092830152928452815180830183526006860154815260078601548185015284840152815180830183526008860154815260098601548185015284830152815160808082018452600a8701548252600b87015482860152600c87015482850152600d87015460ff161515828401528583019190915282518082018452600e870180548252600f88015482870152601088015482860152601188018054865181890281018901909752808752939097019691959094938601939290830182828015610f5857602002820191906000526020600020905b815481526020019060010190808311610f44575b505050919092525050508152604080516060808201835260128501546001600160a01b0316825260138501546020838101919091526014860154838501528085019290925260158501549284019290925260169093015460ff16151591015281810151908101519051919250610fcd91614c04565b815160c00151610fdd9190614c04565b9392505050565b60006001600160a01b03821661104e5760405162461bcd60e51b815260206004820152602960248201527f4552433732313a2061646472657373207a65726f206973206e6f7420612076616044820152683634b21037bbb732b960b91b60648201526084016108a7565b506001600160a01b031660009081526068602052604090205490565b60995460005b818110156103ab5761108181611b33565b61108a81614c7a565b9050611070565b600061109b612cab565b826000609982815481106110b1576110b1614c64565b6000918252602090912060408051610200810190915260179092020180546001600160a01b038082166101008501908152600160a01b830460ff16610120860152600160a81b90920461ffff1661014085015260018301541661016084015260028201805484929184916101808501919061112b90614bb4565b80601f016020809104026020016040519081016040528092919081815260200182805461115790614bb4565b80156111a45780601f10611179576101008083540402835291602001916111a4565b820191906000526020600020905b81548152906001019060200180831161118757829003601f168201915b505050918352505060038201546020808301919091526004830154604080840191909152600590930154606092830152928452815180830183526006860154815260078601548185015284840152815180830183526008860154815260098601548185015284830152815160808082018452600a8701548252600b87015482860152600c87015482850152600d87015460ff161515828401528583019190915282518082018452600e870180548252600f880154828701526010880154828601526011880180548651818902810189019097528087529390970196919590949386019392908301828280156112b857602002820191906000526020600020905b8154815260200190600101908083116112a4575b505050919092525050508152604080516060808201835260128501546001600160a01b03168252601385015460208381019190915260148601548385015284019190915260158401549183019190915260169092015460ff16151591015260e081015190915061135c5760405162461bcd60e51b815260206004820152600f60248201526e706f6f6c206e6f742061637469766560881b60448201526064016108a7565b60006099868154811061137157611371614c64565b60009182526020808320601790920290910180546001600160a01b0316835260a69091526040909120549091508510156113e15760405162461bcd60e51b8152602060048201526011602482015270135a5b881cdd185ad9481b9bdd081b595d607a1b60448201526064016108a7565b60006113ec87610d3b565b8254909150611406906001600160a01b0316333089612ef2565b506000611414883389612f6b565b90508683600001600401600082825461142d9190614c04565b90915550506003830154600484015411156114805760405162461bcd60e51b8152602060048201526013602482015272115e18d959591959081c1bdbdb081b1a5b5a5d606a1b60448201526064016108a7565b604051878152889033907f1449c6dd7851abc30abf37f57715f492010519147cc2652fbc38202c18a6ee909060200160405180910390a360006114c289610d3b565b60408051858152602081018390529192508a917fa3ea4fb8dee4d414198cb197af6eae4fe483c1a0b849dc50e53b9bf1a60e2166910160405180910390a250945050505050610774600160da55565b6000806099838154811061152757611527614c64565b6000918252602090912060408051610200810190915260179092020180546001600160a01b038082166101008501908152600160a01b830460ff16610120860152600160a81b90920461ffff166101408501526001830154166101608401526002820180548492918491610180850191906115a190614bb4565b80601f01602080910402602001604051908101604052809291908181526020018280546115cd90614bb4565b801561161a5780601f106115ef5761010080835404028352916020019161161a565b820191906000526020600020905b8154815290600101906020018083116115fd57829003601f168201915b505050918352505060038201546020808301919091526004830154604080840191909152600590930154606092830152928452815180830183526006860154815260078601548185015284840152815180830183526008860154815260098601548185015284830152815160808082018452600a8701548252600b87015482860152600c87015482850152600d87015460ff161515828401528583019190915282518082018452600e870180548252600f8801548287015260108801548286015260118801805486518189028101890190975280875293909701969195909493860193929083018282801561172e57602002820191906000526020600020905b81548152602001906001019080831161171a575b505050919092525050508152604080516060808201835260128501546001600160a01b03168252601385015460208084019190915260148601548385015284019190915260158401548284015260169093015460ff1615159290910191909152608082015151825160e001519151632500225b60e11b815260048101829052602481018390529293509173__$4defa815a6c8401eda00ac6be9b95d3cdb$__90634a0044b6906044015b602060405180830381865af41580156117f5573d6000803e3d6000fd5b505050506040513d601f19601f820116820180604052508101906118199190614c93565b95945050505050565b6000806099858154811061183857611838614c64565b6000918252602090912060408051610200810190915260179092020180546001600160a01b038082166101008501908152600160a01b830460ff16610120860152600160a81b90920461ffff166101408501526001830154166101608401526002820180548492918491610180850191906118b290614bb4565b80601f01602080910402602001604051908101604052809291908181526020018280546118de90614bb4565b801561192b5780601f106119005761010080835404028352916020019161192b565b820191906000526020600020905b81548152906001019060200180831161190e57829003601f168201915b505050918352505060038201546020808301919091526004830154604080840191909152600590930154606092830152928452815180830183526006860154815260078601548185015284840152815180830183526008860154815260098601548185015284830152815160808082018452600a8701548252600b87015482860152600c87015482850152600d87015460ff161515828401528583019190915282518082018452600e870180548252600f88015482870152601088015482860152601188018054865181890281018901909752808752939097019691959094938601939290830182828015611a3f57602002820191906000526020600020905b815481526020019060010190808311611a2b575b505050919092525050508152604080516060808201835260128501546001600160a01b03168252601385015460208084019190915260148601548385015284019190915260158401548284015260169093015460ff1615159290910191909152815160a081015160e0909101519151630d17449160e21b815260048101889052602481018790526044810191909152606481019190915290915073__$4defa815a6c8401eda00ac6be9b95d3cdb$__9063345d1244906084016117d8565b60006301e1338061271062093a80611b158587614cac565b611b1f9190614cac565b611b299190614cc3565b610fdd9190614cc3565b600060998281548110611b4857611b48614c64565b6000918252602090912060408051610200810190915260179092020180546001600160a01b038082166101008501908152600160a01b830460ff16610120860152600160a81b90920461ffff16610140850152600183015416610160840152600282018054849291849161018085019190611bc290614bb4565b80601f0160208091040260200160405190810160405280929190818152602001828054611bee90614bb4565b8015611c3b5780601f10611c1057610100808354040283529160200191611c3b565b820191906000526020600020905b815481529060010190602001808311611c1e57829003601f168201915b505050918352505060038201546020808301919091526004830154604080840191909152600590930154606092830152928452815180830183526006860154815260078601548185015284840152815180830183526008860154815260098601548185015284830152815160808082018452600a8701548252600b87015482860152600c87015482850152600d87015460ff161515828401528583019190915282518082018452600e870180548252600f88015482870152601088015482860152601188018054865181890281018901909752808752939097019691959094938601939290830182828015611d4f57602002820191906000526020600020905b815481526020019060010190808311611d3b575b505050919092525050508152604080516060808201835260128501546001600160a01b03168252601385015460208381019190915260148601548385015284019190915260158401549183019190915260169092015460ff1615159082015260808201510151805191925090801580611dca57508260e00151155b15611dd55750505050565b60005b81811015611e1257611e02838281518110611df557611df5614c64565b6020026020010151613253565b611e0b81614c7a565b9050611dd8565b506000848152609b6020908152604080832080548251818502810185019093528083529192909190830182828015611e6957602002820191906000526020600020905b815481526020019060010190808311611e55575b5050835193945060009250829150505b82811015611eee576000848281518110611e9557611e95614c64565b6020908102919091018101516000818152609a9092526040909120600181015491925090611ec48b8287611822565b60038301556002820154611ed89086614c04565b945050505080611ee790614c7a565b9050611e79565b508060998881548110611f0357611f03614c64565b60009182526020909120601060179092020101556099805488908110611f2b57611f2b614c64565b9060005260206000209060170201600e016003016000611f4b919061453e565b50505050505050565b60606066805461078990614bb4565b609b6020528160005260406000208181548110611f7f57600080fd5b90600052602060002001600091509150505481565b6000611f9e612cab565b611fa83384612d04565b611fea5760405162461bcd60e51b815260206004820152601360248201527239b2b73232b91034b9903737ba1037bbb732b960691b60448201526064016108a7565b6000838152609a60205260408120805460998054929391928390811061201257612012614c64565b906000526020600020906017020190504283600601541080156120385750428360070154115b6120965760405162461bcd60e51b815260206004820152602960248201527f54696d656c6f636b206e6f7420736574206f72206e6f7420636f6d706c6574656044820152686420696e2074696d6560b81b60648201526084016108a7565b6120a0868661346c565b6001830180546000918290556006850182905560078501829055906120c484610d3b565b905086156120d5576120d58861364d565b811561210f57818360000160040160008282546120f29190614ce5565b9091555050825461210d906001600160a01b031633846136ee565b505b604051828152849033907f7fc4727e062e336010f2c282598ef5f14facb3de68cf8195c2f23e1454b2b74e9060200160405180910390a3600061215185610d3b565b604080518481526020810183905291925086917fa3ea4fb8dee4d414198cb197af6eae4fe483c1a0b849dc50e53b9bf1a60e2166910160405180910390a2505050601101805460018181018355600092835260209092200186905592505050610774600160da55565b60a581815481106121ca57600080fd5b6000918252602090912001546001600160a01b0316905081565b6103ab33838361372b565b60a8546001600160a01b031633146122585760405162461bcd60e51b815260206004820152602660248201527f6f6e6c792070656e64696e67206f776e65722063616e2061636365707420747260448201526530b739b332b960d11b60648201526084016108a7565b60a85461226d906001600160a01b03166137f9565b565b6122793383612d04565b6122955760405162461bcd60e51b81526004016108a790614c17565b6122a184848484613856565b50505050565b600054610100900460ff16158080156122c75750600054600160ff909116105b806122e15750303b1580156122e1575060005460ff166001145b6123445760405162461bcd60e51b815260206004820152602e60248201527f496e697469616c697a61626c653a20636f6e747261637420697320616c72656160448201526d191e481a5b9a5d1a585b1a5e995960921b60648201526084016108a7565b6000805460ff191660011790558015612367576000805461ff0019166101001790555b61236f613889565b60a080546001600160a01b0319166001600160a01b03841617905580156103ab576000805461ff0019169055604051600181527f7f26b83ff96e1f2b6a682f133852f6798a09c465da95921460cefb38474024989060200160405180910390a15050565b60606123de82612bde565b60006123f560408051602081019091526000815290565b905060008151116124155760405180602001604052806000815250610fdd565b8061241f846138b8565b604051602001612430929190614cf8565b6040516020818303038152906040529392505050565b61244e61394c565b6127108261ffff1611156124965760405162461bcd60e51b815260206004820152600f60248201526e0a0c2f2deeae840e8dede40d0d2ced608b1b60448201526064016108a7565b6127108161ffff1611156124dd5760405162461bcd60e51b815260206004820152600e60248201526d084dedceae640e8dede40d0d2ced60931b60448201526064016108a7565b60008490506000609982815481106124f7576124f7614c64565b6000918252602082206004601790920201908101549092508161251985610d3b565b9050600061271061252e61ffff8a1684614cac565b6125389190614cc3565b6000878152609b60205260409020549091508382101561263c57600084612567670de0b6b3a764000085614cac565b6125719190614cc3565b905060005b82811015612635576000898152609b6020526040812080548390811061259e5761259e614c64565b90600052602060002001549050609a600082815260200190815260200160002097506125cb81600061346c565b6000670de0b6b3a7640000848a600101546125e69190614cac565b6125f09190614cc3565b9050808960010160008282546126069190614ce5565b909155505060048a018054829190600090612622908490614ce5565b9091555050600190920191506125769050565b5050612757565b83821015801561264c5750828211155b1561271d5760005b818110156126da576000888152609b6020526040812080548390811061267c5761267c614c64565b90600052602060002001549050609a600082815260200190815260200160002096506126a981600061346c565b600060018089018290556003890182905560118a018054808301825590835260209092209091019190915501612654565b50600060048701556126eb876139a6565b5060006126f88584614ce5565b9050808760060160000160008282546127119190614ce5565b90915550612757915050565b60405162461bcd60e51b815260206004820152600f60248201526e082dadeeadce840e8dede40d0d2ced608b1b60448201526064016108a7565b600061271061276a61ffff8b1682614ce5565b6127106127796103e887614cac565b6127839190614cc3565b61278d9190614cac565b6127979190614cc3565b6014880154601389015460128a015460405163fc76fff360e01b815260048101859052602481019390935260448301919091526001600160a01b031660648201529091506000908190819073__$4defa815a6c8401eda00ac6be9b95d3cdb$__9063fc76fff390608401606060405180830381865af415801561281e573d6000803e3d6000fd5b505050506040513d601f19601f820116820180604052508101906128429190614d27565b8c5492955090935091506001600160a01b0316612860828285613b07565b6001600160a01b0381166000908152609c602052604081208054869290612888908490614c04565b909155506128ad90508f61289c878a614ce5565b6001600160a01b03841691906136ee565b50806001600160a01b03168f6001600160a01b03167fbcbf239e05ac65bcc1a5612cd36d392b0a0aa8c93e027bc86e72768748342488896040516128f391815260200190565b60405180910390a38b7fa3ea4fb8dee4d414198cb197af6eae4fe483c1a0b849dc50e53b9bf1a60e2166896129278f610d3b565b6040805192835260208301919091520160405180910390a250505050505050505050505050505050565b6001600160a01b0381166000908152606c602090815260408083208054825181850281018501909352808352606094938301828280156129b057602002820191906000526020600020905b81548152602001906001019080831161299c575b50508351939450839250505067ffffffffffffffff8111156129d4576129d46149dd565b604051908082528060200260200182016040528015612a0d57816020015b6129fa61455c565b8152602001906001900390816129f25790505b50925060005b81811015612ad157609a6000848381518110612a3157612a31614c64565b602002602001015181526020019081526020016000206040518061010001604052908160008201548152602001600182015481526020016002820154815260200160038201548152602001600482015481526020016005820154815260200160068201548152602001600782015481525050848281518110612ab557612ab5614c64565b602002602001018190525080612aca90614c7a565b9050612a13565b505050919050565b612ae161394c565b6001600160a01b038116612b465760405162461bcd60e51b815260206004820152602660248201527f4f776e61626c653a206e6577206f776e657220697320746865207a65726f206160448201526564647265737360d01b60648201526084016108a7565b60a880546001600160a01b0319166001600160a01b0392909216919091179055565b612b70612cab565b612b7a3382612d04565b612b965760405162461bcd60e51b81526004016108a790614c17565b612ba181600161346c565b6000818152609a60205260408120600101549003612bc257612bc28161364d565b612bcc600160da55565b50565b6001600160a01b03163b151590565b6000818152606760205260409020546001600160a01b0316612bcc5760405162461bcd60e51b8152602060048201526018602482015277115490cdcc8c4e881a5b9d985b1a59081d1bdad95b88125160421b60448201526064016108a7565b600081815260696020526040902080546001600160a01b0319166001600160a01b0384169081179091558190612c7282610cdb565b6001600160a01b03167f8c5be1e5ebec7d5bd14f71427d1e84f3dd0314c0f7b2291e5b200ac8c7c3b92560405160405180910390a45050565b600260da5403612cfd5760405162461bcd60e51b815260206004820152601f60248201527f5265656e7472616e637947756172643a207265656e7472616e742063616c6c0060448201526064016108a7565b600260da55565b600080612d1083610cdb565b9050806001600160a01b0316846001600160a01b03161480612d5757506001600160a01b038082166000908152606a602090815260408083209388168352929052205460ff165b80612d7b5750836001600160a01b0316612d708461080c565b6001600160a01b0316145b949350505050565b826001600160a01b0316612d9682610cdb565b6001600160a01b031614612dbc5760405162461bcd60e51b81526004016108a790614d60565b6001600160a01b038216612e1e5760405162461bcd60e51b8152602060048201526024808201527f4552433732313a207472616e7366657220746f20746865207a65726f206164646044820152637265737360e01b60648201526084016108a7565b612e29838383613b57565b826001600160a01b0316612e3c82610cdb565b6001600160a01b031614612e625760405162461bcd60e51b81526004016108a790614d60565b600081815260696020908152604080832080546001600160a01b03199081169091556001600160a01b0387811680865260688552838620805460001901905590871680865283862080546001019055868652606790945282852080549092168417909155905184937fddf252ad1be2c89b69c2b068fc378daa952ba7f163c4a11628f55a4df523b3ef91a4505050565b6040516001600160a01b0380851660248301528316604482015260648101829052600090612f609086906323b872dd60e01b906084015b60408051601f198184030181529190526020810180516001600160e01b03166001600160e01b031990931692909217909152613bed565b506001949350505050565b60006001600160a01b038316612fc35760405162461bcd60e51b815260206004820152601f60248201527f45524332303a206d696e7420746f20746865207a65726f20616464726573730060448201526064016108a7565b6000612ff7858460998881548110612fdd57612fdd614c64565b9060005260206000209060170201600e0160000154611822565b9050600061300485613cbf565b905061300e61455c565b868152602081018590526099805460009173__$4defa815a6c8401eda00ac6be9b95d3cdb$__9163098952389189918c90811061304d5761304d614c64565b9060005260206000209060170201600001600301546040518363ffffffff1660e01b8152600401613088929190918252602082015260400190565b6040805180830381865af41580156130a4573d6000803e3d6000fd5b505050506040513d601f19601f820116820180604052508101906130c89190614da5565b509050674563918244f400008160998a815481106130e8576130e8614c64565b9060005260206000209060170201600e01600201546131079190614c04565b111561314b5760405162461bcd60e51b81526020600482015260136024820152721608189bdd5b99185c9e481d9a5bdb185d1959606a1b60448201526064016108a7565b6040808301828152606084018681524260a086019081526000878152609a602090815285822088518155818901516001808301919091559551600282015593516003850155608088015160048501559151600584015560c0870151600684015560e08701516007909301929092558b8252609b81529281208054928301815581529190912001839055609980548291908a9081106131eb576131eb614c64565b9060005260206000209060170201600e01600201600082825461320e9190614c04565b925050819055506132468860998a8154811061322c5761322c614c64565b9060005260206000209060170201600e0160020154613e70565b5091979650505050505050565b6000818152609a6020908152604080832081516101008101835281548082526001830154828601526002830154828501526003830154606083015260048301546080830152600583015460a0830152600683015460c083015260079092015460e0820152818552609b845282852080548451818702810187019095528085529195929492939290919083018282801561330b57602002820191906000526020600020905b8154815260200190600101908083116132f7575b5050835193945060009250829150505b8281101561335b578684828151811061333657613336614c64565b60200260200101510361334b5780915061335b565b61335481614c7a565b905061331b565b508181106133ab5760405162461bcd60e51b815260206004820152601860248201527f546f6b656e206e6f7420666f756e6420696e206172726179000000000000000060448201526064016108a7565b805b6133b8600184614ce5565b81101561341057836133cb826001614c04565b815181106133db576133db614c64565b60200260200101518482815181106133f5576133f5614c64565b602090810291909101015261340981614c7a565b90506133ad565b506000848152609b602090815260409091208451613430928601906145a1565b506000848152609b6020526040902080548061344e5761344e614dc9565b60019003818190600052602060002001600090559055505050505050565b6000828152609a60205260408120805460998054929391928390811061349457613494614c64565b90600052602060002090601702019050600080600073__$4defa815a6c8401eda00ac6be9b95d3cdb$__63ad6fa2338560150154886005015489600101548a600301548b600401546040518663ffffffff1660e01b815260040161351a959493929190948552602085019390935260408401919091526060830152608082015260a00190565b606060405180830381865af4158015613537573d6000803e3d6000fd5b505050506040513d601f19601f8201168201806040525081019061355b9190614ddf565b925092509250866135a9578360150154600003613578574261357e565b83601501545b86600501819055508086600401600082825461359a9190614c04565b90915550505050505050505050565b60088401548311156135bf576135bf8584613ea3565b821561364357600060048701819055601585015490036135df57426135e5565b83601501545b6005870155600884018054849190600090613601908490614ce5565b909155505060098401805483919060009061361d908490614ce5565b90915550613641905061362f89610cdb565b85546001600160a01b031690846136ee565b505b5050505050505050565b600061365882610cdb565b905061366681600084613b57565b61366f82610cdb565b600083815260696020908152604080832080546001600160a01b03199081169091556001600160a01b0385168085526068845282852080546000190190558785526067909352818420805490911690555192935084927fddf252ad1be2c89b69c2b068fc378daa952ba7f163c4a11628f55a4df523b3ef908390a45050565b6040516001600160a01b03831660248201526044810182905260009061372190859063a9059cbb60e01b90606401612f29565b5060019392505050565b816001600160a01b0316836001600160a01b03160361378c5760405162461bcd60e51b815260206004820152601960248201527f4552433732313a20617070726f766520746f2063616c6c65720000000000000060448201526064016108a7565b6001600160a01b038381166000818152606a6020908152604080832094871680845294825291829020805460ff191686151590811790915591519182527f17307eab39ab6107e8899845ad3d59bd9653f200f220920489ca2b5937696c31910160405180910390a3505050565b60a780546001600160a01b038381166001600160a01b0319808416821790945560a880549094169093556040519116919082907f8be0079c531659141344cd1fd0a4f28419497f9722a3daafe3b4186f6b6457e090600090a35050565b613861848484612d83565b61386d848484846140bf565b6122a15760405162461bcd60e51b81526004016108a790614e0d565b600054610100900460ff166138b05760405162461bcd60e51b81526004016108a790614e5f565b61226d6141bd565b606060006138c5836141ed565b600101905060008167ffffffffffffffff8111156138e5576138e56149dd565b6040519080825280601f01601f19166020018201604052801561390f576020820181803683370190505b5090508181016020015b600019016f181899199a1a9b1b9c1cb0b131b232b360811b600a86061a8153600a8504945084613919575b509392505050565b60a7546001600160a01b0316331461226d5760405162461bcd60e51b815260206004820181905260248201527f4f776e61626c653a2063616c6c6572206973206e6f7420746865206f776e657260448201526064016108a7565b600080609983815481106139bc576139bc614c64565b6000918252602080832086845260a2909152604083208054908490556017909202019250801561394457600085815260a1602090815260408083208484528252808320548151637f1f087360e01b815291516001600160a01b0390911693928492637f1f08739260048083019392829003018187875af1158015613a44573d6000803e3d6000fd5b505050506040513d601f19601f82011682018060405250810190613a689190614c93565b6040516348b1933560e01b8152600481018290529091506001600160a01b038316906348b19335906024016020604051808303816000875af1158015613ab2573d6000803e3d6000fd5b505050506040513d601f19601f82011682018060405250810190613ad69190614c93565b6000600787018190556006870180549296508692909190613af8908490614c04565b90915550505050509392505050565b6001600160a01b03831615610948576001600160a01b038084166000908152609f6020908152604080832093861683529290529081208054839290613b4d908490614c04565b9091555050505050565b816001600160a01b0316836001600160a01b031614158015613b8157506001600160a01b03831615155b15613b9057613b9083826142c5565b826001600160a01b0316826001600160a01b031614158015613bba57506001600160a01b03821615155b15610948576001600160a01b03919091166000908152606c60209081526040822080546001810182559083529120015550565b6000613c42826040518060400160405280602081526020017f5361666545524332303a206c6f772d6c6576656c2063616c6c206661696c6564815250856001600160a01b031661441b9092919063ffffffff16565b8051909150156109485780806020019051810190613c609190614eaa565b6109485760405162461bcd60e51b815260206004820152602a60248201527f5361666545524332303a204552433230206f7065726174696f6e20646964206e6044820152691bdd081cdd58d8d9595960b21b60648201526084016108a7565b600080606b60008154613cd190614c7a565b918290555090506001600160a01b038316613d2e5760405162461bcd60e51b815260206004820181905260248201527f4552433732313a206d696e7420746f20746865207a65726f206164647265737360448201526064016108a7565b6000818152606760205260409020546001600160a01b031615613d935760405162461bcd60e51b815260206004820152601c60248201527f4552433732313a20746f6b656e20616c7265616479206d696e7465640000000060448201526064016108a7565b613d9f60008483613b57565b6000818152606760205260409020546001600160a01b031615613e045760405162461bcd60e51b815260206004820152601c60248201527f4552433732313a20746f6b656e20616c7265616479206d696e7465640000000060448201526064016108a7565b6001600160a01b038316600081815260686020908152604080832080546001019055848352606790915280822080546001600160a01b0319168417905551839291907fddf252ad1be2c89b69c2b068fc378daa952ba7f163c4a11628f55a4df523b3ef908290a4610774565b60008160998481548110613e8657613e86614c64565b60009182526020909120600e601790920201015550600192915050565b600060998381548110613eb857613eb8614c64565b600091825260208220601791909102016008810154600382015482549294508592613eee9190600160a81b900461ffff16611afd565b613ef89190614ce5565b613f029190614c04565b60018301548354919250613f24916001600160a01b0390811691163084612ef2565b5080826008016000016000828254613f3c9190614c04565b9091555060009050612710613f536103e884614cac565b613f5d9190614cc3565b60148401546013850154601286015460405163fc76fff360e01b815260048101859052602481019390935260448301919091526001600160a01b031660648201529091506000908190819073__$4defa815a6c8401eda00ac6be9b95d3cdb$__9063fc76fff390608401606060405180830381865af4158015613fe4573d6000803e3d6000fd5b505050506040513d601f19601f820116820180604052508101906140089190614d27565b885492955090935091506001600160a01b0316614026828285613b07565b6001600160a01b0381166000908152609d60205260408120805486929061404e908490614c04565b90915550600090506140608688614ce5565b9050808860080160010160008282546140799190614c04565b90915550506040518781528a907fadb049ad2d09be3db90459a16aef1ad0a4d89e8fdcc1ade9429d6cc55abbcd2b9060200160405180910390a250505050505050505050565b60006001600160a01b0384163b156141b557604051630a85bd0160e11b81526001600160a01b0385169063150b7a0290614103903390899088908890600401614ec7565b6020604051808303816000875af192505050801561413e575060408051601f3d908101601f1916820190925261413b91810190614f04565b60015b61419b573d80801561416c576040519150601f19603f3d011682016040523d82523d6000602084013e614171565b606091505b5080516000036141935760405162461bcd60e51b81526004016108a790614e0d565b805181602001fd5b6001600160e01b031916630a85bd0160e11b149050612d7b565b506001612d7b565b600054610100900460ff166141e45760405162461bcd60e51b81526004016108a790614e5f565b61226d336137f9565b60008072184f03e93ff9f4daa797ed6e38ed64bf6a1f0160401b831061422c5772184f03e93ff9f4daa797ed6e38ed64bf6a1f0160401b830492506040015b6d04ee2d6d415b85acef81000000008310614258576d04ee2d6d415b85acef8100000000830492506020015b662386f26fc10000831061427657662386f26fc10000830492506010015b6305f5e100831061428e576305f5e100830492506008015b61271083106142a257612710830492506004015b606483106142b4576064830492506002015b600a83106107745760010192915050565b6001600160a01b0382166000908152606c602090815260408083208054825181850281018501909352808352919290919083018282801561432557602002820191906000526020600020905b815481526020019060010190808311614311575b505083519394506000925050505b81811015614414578383828151811061434e5761434e614c64565b6020026020010151036144045782614367600184614ce5565b8151811061437757614377614c64565b602002602001015183828151811061439157614391614c64565b6020908102919091018101919091526001600160a01b0386166000908152606c82526040902084516143c5928601906145a1565b506001600160a01b0385166000908152606c602052604090208054806143ed576143ed614dc9565b600190038181906000526020600020016000905590555b61440d81614c7a565b9050614333565b5050505050565b6060612d7b848460008585600080866001600160a01b031685876040516144429190614f21565b60006040518083038185875af1925050503d806000811461447f576040519150601f19603f3d011682016040523d82523d6000602084013e614484565b606091505b5091509150614495878383876144a0565b979650505050505050565b6060831561450f578251600003614508576001600160a01b0385163b6145085760405162461bcd60e51b815260206004820152601d60248201527f416464726573733a2063616c6c20746f206e6f6e2d636f6e747261637400000060448201526064016108a7565b5081612d7b565b612d7b83838151156145245781518083602001fd5b8060405162461bcd60e51b81526004016108a791906146d2565b5080546000825590600052602060002090810190612bcc91906145ec565b60405180610100016040528060008152602001600081526020016000815260200160008152602001600081526020016000815260200160008152602001600081525090565b8280548282559060005260206000209081019282156145dc579160200282015b828111156145dc5782518255916020019190600101906145c1565b506145e89291506145ec565b5090565b5b808211156145e857600081556001016145ed565b6001600160a01b0381168114612bcc57600080fd5b6000806040838503121561462957600080fd5b823561463481614601565b9150602083013561464481614601565b809150509250929050565b6001600160e01b031981168114612bcc57600080fd5b60006020828403121561467757600080fd5b8135610fdd8161464f565b60005b8381101561469d578181015183820152602001614685565b50506000910152565b600081518084526146be816020860160208601614682565b601f01601f19169290920160200192915050565b602081526000610fdd60208301846146a6565b600080604083850312156146f857600080fd5b50508035926020909101359150565b60006020828403121561471957600080fd5b5035919050565b6000806040838503121561473357600080fd5b823561473e81614601565b946020939093013593505050565b60006080830182518452602080840151818601526040840151604086015260608401516080606087015282815180855260a0880191508383019450600092505b808310156147ac578451825293830193600192909201919083019061478c565b509695505050505050565b6101e080825289516001600160a01b039081169183019190915260208a015160ff1661020083015260408a015161ffff1661022083015260608a01511661024082015260808901516101006102608301526000906148196102e08401826146a6565b905060a08b015161028084015260c08b01516102a084015260e08b01516102c0840152614853602084018b80518252602090810151910152565b8851606084015260208901516080840152875160a0840152602088015160c0840152604088015160e08401526060880151151561010084015282810361012084015261489f818861474c565b86516001600160a01b03166101408501526020870151610160850152604087015161018085015291506148cf9050565b836101a08301526148e56101c083018415159052565b9998505050505050505050565b60008060006060848603121561490757600080fd5b833561491281614601565b9250602084013561492281614601565b929592945050506040919091013590565b60006020828403121561494557600080fd5b8135610fdd81614601565b60008060006060848603121561496557600080fd5b505081359360208301359350604090920135919050565b8015158114612bcc57600080fd5b6000806040838503121561499d57600080fd5b8235915060208301356146448161497c565b600080604083850312156149c257600080fd5b82356149cd81614601565b915060208301356146448161497c565b634e487b7160e01b600052604160045260246000fd5b60008060008060808587031215614a0957600080fd5b8435614a1481614601565b93506020850135614a2481614601565b925060408501359150606085013567ffffffffffffffff80821115614a4857600080fd5b818701915087601f830112614a5c57600080fd5b813581811115614a6e57614a6e6149dd565b604051601f8201601f19908116603f01168101908382118183101715614a9657614a966149dd565b816040528281528a6020848701011115614aaf57600080fd5b82602086016020830137600060208483010152809550505050505092959194509250565b803561ffff81168114610a2e57600080fd5b60008060008060808587031215614afb57600080fd5b843593506020850135614b0d81614601565b9250614b1b60408601614ad3565b9150614b2960608601614ad3565b905092959194509250565b602080825282518282018190526000919060409081850190868401855b828110156132465781518051855286810151878601528581015186860152606080820151908601526080808201519086015260a0808201519086015260c0808201519086015260e090810151908501526101009093019290850190600101614b51565b600181811c90821680614bc857607f821691505b602082108103614be857634e487b7160e01b600052602260045260246000fd5b50919050565b634e487b7160e01b600052601160045260246000fd5b8082018082111561077457610774614bee565b6020808252602d908201527f4552433732313a2063616c6c6572206973206e6f7420746f6b656e206f776e6560408201526c1c881bdc88185c1c1c9bdd9959609a1b606082015260800190565b634e487b7160e01b600052603260045260246000fd5b600060018201614c8c57614c8c614bee565b5060010190565b600060208284031215614ca557600080fd5b5051919050565b808202811582820484141761077457610774614bee565b600082614ce057634e487b7160e01b600052601260045260246000fd5b500490565b8181038181111561077457610774614bee565b60008351614d0a818460208801614682565b835190830190614d1e818360208801614682565b01949350505050565b600080600060608486031215614d3c57600080fd5b83519250602084015191506040840151614d5581614601565b809150509250925092565b60208082526025908201527f4552433732313a207472616e736665722066726f6d20696e636f72726563742060408201526437bbb732b960d91b606082015260800190565b60008060408385031215614db857600080fd5b505080516020909101519092909150565b634e487b7160e01b600052603160045260246000fd5b600080600060608486031215614df457600080fd5b8351925060208401519150604084015190509250925092565b60208082526032908201527f4552433732313a207472616e7366657220746f206e6f6e20455243373231526560408201527131b2b4bb32b91034b6b83632b6b2b73a32b960711b606082015260800190565b6020808252602b908201527f496e697469616c697a61626c653a20636f6e7472616374206973206e6f74206960408201526a6e697469616c697a696e6760a81b606082015260800190565b600060208284031215614ebc57600080fd5b8151610fdd8161497c565b6001600160a01b0385811682528416602082015260408101839052608060608201819052600090614efa908301846146a6565b9695505050505050565b600060208284031215614f1657600080fd5b8151610fdd8161464f565b60008251614f33818460208701614682565b919091019291505056fea26469706673582212203e033973e1d930a62aefc1e8c2ffa55b78e8dbfae08117cfdd40c9cb26c65fc564736f6c63430008110033496e697469616c697a61626c653a20636f6e7472616374206973206e6f742069",
    "linkReferences": {
      "src/lib/SaloonLib.sol": {
        "SaloonLib": [
          {
            "start": 7105,
            "length": 20
          },
          {
            "start": 7906,
            "length": 20
          },
          {
            "start": 11243,
            "length": 20
          },
          {
            "start": 13352,
            "length": 20
          },
          {
            "start": 14514,
            "length": 20
          },
          {
            "start": 17329,
            "length": 20
          }
        ]
      }
    }
  },
  "methodIdentifiers": {
    "acceptOwnershipTransfer()": "b842e87f",
    "activeStrategies(uint256)": "b20b2429",
    "activeTokens(uint256)": "9f224f35",
    "approve(address,uint256)": "095ea7b3",
    "balanceOf(address)": "70a08231",
    "calcRequiredPremiumBalancePerPeriod(uint256,uint256)": "836ef1fa",
    "calculateEffectiveAPY(uint256,uint256,uint256)": "81c6f1a7",
    "claimPremium(uint256)": "f47ec3be",
    "consolidate(uint256)": "949a4a4a",
    "consolidateAll()": "75bfd63d",
    "getAllTokensByOwner(address)": "e9fda7d4",
    "getApproved(uint256)": "081812fc",
    "getCurrentAPY(uint256)": "7fbf3853",
    "index()": "2986c0e5",
    "initialize(address)": "c4d66de8",
    "isApprovedForAll(address,address)": "e985e9c5",
    "minTokenStakeAmount(address)": "39458723",
    "name()": "06fdde03",
    "nftInfo(uint256)": "1f8bc790",
    "owner()": "8da5cb5b",
    "ownerOf(uint256)": "6352211e",
    "payBounty(uint256,address,uint16,uint16)": "d075afac",
    "pidNFTList(uint256,uint256)": "96ea48e8",
    "pidStrategies(uint256,bytes32)": "074ecf03",
    "poolInfo(uint256)": "1526fe27",
    "receiveStrategyYield(address,uint256)": "1aebcecb",
    "referralBalances(address,address)": "011b408b",
    "safeTransferFrom(address,address,uint256)": "42842e0e",
    "safeTransferFrom(address,address,uint256,bytes)": "b88d4fde",
    "saloonBountyProfit(address)": "e45abd0f",
    "saloonPremiumProfit(address)": "ca006148",
    "saloonStrategyProfit(address)": "598d17bf",
    "scheduleUnstake(uint256)": "106d08df",
    "setApprovalForAll(address,bool)": "a22cb465",
    "stake(uint256,uint256)": "7b0472f0",
    "strategyAddressToPid(address)": "957deecc",
    "supportsInterface(bytes4)": "01ffc9a7",
    "symbol()": "95d89b41",
    "tokenURI(uint256)": "c87b56dd",
    "tokenWhitelist(address)": "753d7563",
    "transferFrom(address,address,uint256)": "23b872dd",
    "transferOwnership(address)": "f2fde38b",
    "unstake(uint256,bool)": "9ebea88c",
    "viewBountyBalance(uint256)": "6ac6d812"
  },
  "id": 26
}