{
  "abi": [
    {
      "anonymous": false,
      "inputs": [
        {
          "indexed": false,
          "internalType": "address",
          "name": "previousAdmin",
          "type": "address"
        },
        {
          "indexed": false,
          "internalType": "address",
          "name": "newAdmin",
          "type": "address"
        }
      ],
      "name": "AdminChanged",
      "type": "event"
    },
    {
      "anonymous": false,
      "inputs": [
        {
          "indexed": true,
          "internalType": "address",
          "name": "beacon",
          "type": "address"
        }
      ],
      "name": "BeaconUpgraded",
      "type": "event"
    },
    {
      "anonymous": false,
      "inputs": [
        {
          "indexed": true,
          "internalType": "string",
          "name": "projectName",
          "type": "string"
        }
      ],
      "name": "BountyKilled",
      "type": "event"
    },
    {
      "anonymous": false,
      "inputs": [
        {
          "indexed": true,
          "internalType": "address",
          "name": "token",
          "type": "address"
        },
        {
          "indexed": true,
          "internalType": "address",
          "name": "hunter",
          "type": "address"
        },
        {
          "indexed": true,
          "internalType": "uint256",
          "name": "amount",
          "type": "uint256"
        }
      ],
      "name": "BountyPaid",
      "type": "event"
    },
    {
      "anonymous": false,
      "inputs": [
        {
          "indexed": true,
          "internalType": "address",
          "name": "sender",
          "type": "address"
        },
        {
          "indexed": true,
          "internalType": "address",
          "name": "_projectWallet",
          "type": "address"
        },
        {
          "indexed": false,
          "internalType": "contract BountyPool",
          "name": "newProxyAddress",
          "type": "address"
        }
      ],
      "name": "DeployNewBounty",
      "type": "event"
    },
    {
      "anonymous": false,
      "inputs": [
        {
          "indexed": true,
          "internalType": "string",
          "name": "projectName",
          "type": "string"
        },
        {
          "indexed": true,
          "internalType": "uint256",
          "name": "oldAmount",
          "type": "uint256"
        },
        {
          "indexed": true,
          "internalType": "uint256",
          "name": "newAmount",
          "type": "uint256"
        }
      ],
      "name": "HackerPayoutChanged",
      "type": "event"
    },
    {
      "anonymous": false,
      "inputs": [
        {
          "indexed": false,
          "internalType": "uint8",
          "name": "version",
          "type": "uint8"
        }
      ],
      "name": "Initialized",
      "type": "event"
    },
    {
      "anonymous": false,
      "inputs": [
        {
          "indexed": true,
          "internalType": "address",
          "name": "previousOwner",
          "type": "address"
        },
        {
          "indexed": true,
          "internalType": "address",
          "name": "newOwner",
          "type": "address"
        }
      ],
      "name": "OwnershipTransferred",
      "type": "event"
    },
    {
      "anonymous": false,
      "inputs": [
        {
          "indexed": true,
          "internalType": "string",
          "name": "projectName",
          "type": "string"
        },
        {
          "indexed": true,
          "internalType": "uint256",
          "name": "poolCap",
          "type": "uint256"
        },
        {
          "indexed": true,
          "internalType": "uint256",
          "name": "apy",
          "type": "uint256"
        }
      ],
      "name": "PoolCapAndAPYChanged",
      "type": "event"
    },
    {
      "anonymous": false,
      "inputs": [
        {
          "indexed": true,
          "internalType": "string",
          "name": "projectName",
          "type": "string"
        },
        {
          "indexed": true,
          "internalType": "address",
          "name": "projectWallet",
          "type": "address"
        }
      ],
      "name": "PremiumBilled",
      "type": "event"
    },
    {
      "anonymous": false,
      "inputs": [
        {
          "indexed": true,
          "internalType": "address",
          "name": "token",
          "type": "address"
        },
        {
          "indexed": true,
          "internalType": "uint256",
          "name": "amount",
          "type": "uint256"
        }
      ],
      "name": "SaloonFundsWithdrawal",
      "type": "event"
    },
    {
      "anonymous": false,
      "inputs": [
        {
          "indexed": true,
          "internalType": "string",
          "name": "projectName",
          "type": "string"
        },
        {
          "indexed": true,
          "internalType": "uint256",
          "name": "previousStaked",
          "type": "uint256"
        },
        {
          "indexed": true,
          "internalType": "uint256",
          "name": "newStaked",
          "type": "uint256"
        }
      ],
      "name": "StakedAmountChanged",
      "type": "event"
    },
    {
      "anonymous": false,
      "inputs": [
        {
          "indexed": true,
          "internalType": "address",
          "name": "implementation",
          "type": "address"
        }
      ],
      "name": "Upgraded",
      "type": "event"
    },
    {
      "inputs": [],
      "name": "beacon",
      "outputs": [
        {
          "internalType": "contract UpgradeableBeacon",
          "name": "",
          "type": "address"
        }
      ],
      "stateMutability": "view",
      "type": "function"
    },
    {
      "inputs": [],
      "name": "billPremiumForAll",
      "outputs": [
        {
          "internalType": "bool",
          "name": "",
          "type": "bool"
        }
      ],
      "stateMutability": "nonpayable",
      "type": "function"
    },
    {
      "inputs": [
        {
          "internalType": "string",
          "name": "_projectName",
          "type": "string"
        }
      ],
      "name": "billPremiumForOnePool",
      "outputs": [
        {
          "internalType": "bool",
          "name": "",
          "type": "bool"
        }
      ],
      "stateMutability": "nonpayable",
      "type": "function"
    },
    {
      "inputs": [
        {
          "internalType": "uint256",
          "name": "",
          "type": "uint256"
        }
      ],
      "name": "bountiesList",
      "outputs": [
        {
          "internalType": "string",
          "name": "projectName",
          "type": "string"
        },
        {
          "internalType": "address",
          "name": "projectWallet",
          "type": "address"
        },
        {
          "internalType": "contract BountyPool",
          "name": "proxyAddress",
          "type": "address"
        },
        {
          "internalType": "address",
          "name": "token",
          "type": "address"
        },
        {
          "internalType": "bool",
          "name": "dead",
          "type": "bool"
        }
      ],
      "stateMutability": "view",
      "type": "function"
    },
    {
      "inputs": [
        {
          "internalType": "string",
          "name": "",
          "type": "string"
        }
      ],
      "name": "bountyDetails",
      "outputs": [
        {
          "internalType": "string",
          "name": "projectName",
          "type": "string"
        },
        {
          "internalType": "address",
          "name": "projectWallet",
          "type": "address"
        },
        {
          "internalType": "contract BountyPool",
          "name": "proxyAddress",
          "type": "address"
        },
        {
          "internalType": "address",
          "name": "token",
          "type": "address"
        },
        {
          "internalType": "bool",
          "name": "dead",
          "type": "bool"
        }
      ],
      "stateMutability": "view",
      "type": "function"
    },
    {
      "inputs": [],
      "name": "bountyImplementation",
      "outputs": [
        {
          "internalType": "address",
          "name": "",
          "type": "address"
        }
      ],
      "stateMutability": "view",
      "type": "function"
    },
    {
      "inputs": [
        {
          "internalType": "string",
          "name": "_projectName",
          "type": "string"
        }
      ],
      "name": "claimPremium",
      "outputs": [
        {
          "internalType": "uint256",
          "name": "",
          "type": "uint256"
        }
      ],
      "stateMutability": "nonpayable",
      "type": "function"
    },
    {
      "inputs": [
        {
          "internalType": "bytes",
          "name": "_data",
          "type": "bytes"
        },
        {
          "internalType": "string",
          "name": "_projectName",
          "type": "string"
        },
        {
          "internalType": "address",
          "name": "_token",
          "type": "address"
        },
        {
          "internalType": "address",
          "name": "_projectWallet",
          "type": "address"
        }
      ],
      "name": "deployNewBounty",
      "outputs": [
        {
          "internalType": "contract BountyPool",
          "name": "",
          "type": "address"
        },
        {
          "internalType": "bool",
          "name": "",
          "type": "bool"
        }
      ],
      "stateMutability": "nonpayable",
      "type": "function"
    },
    {
      "inputs": [],
      "name": "factory",
      "outputs": [
        {
          "internalType": "contract BountyProxyFactory",
          "name": "",
          "type": "address"
        }
      ],
      "stateMutability": "view",
      "type": "function"
    },
    {
      "inputs": [
        {
          "internalType": "string",
          "name": "_projectName",
          "type": "string"
        }
      ],
      "name": "getBountyAddressByName",
      "outputs": [
        {
          "internalType": "address",
          "name": "",
          "type": "address"
        }
      ],
      "stateMutability": "view",
      "type": "function"
    },
    {
      "inputs": [
        {
          "internalType": "contract BountyProxyFactory",
          "name": "_factory",
          "type": "address"
        },
        {
          "internalType": "contract UpgradeableBeacon",
          "name": "_beacon",
          "type": "address"
        },
        {
          "internalType": "address",
          "name": "_bountyImplementation",
          "type": "address"
        }
      ],
      "name": "initialize",
      "outputs": [],
      "stateMutability": "nonpayable",
      "type": "function"
    },
    {
      "inputs": [
        {
          "internalType": "string",
          "name": "_projectName",
          "type": "string"
        }
      ],
      "name": "killBounty",
      "outputs": [
        {
          "internalType": "bool",
          "name": "",
          "type": "bool"
        }
      ],
      "stateMutability": "nonpayable",
      "type": "function"
    },
    {
      "inputs": [],
      "name": "owner",
      "outputs": [
        {
          "internalType": "address",
          "name": "",
          "type": "address"
        }
      ],
      "stateMutability": "view",
      "type": "function"
    },
    {
      "inputs": [
        {
          "internalType": "string",
          "name": "_projectName",
          "type": "string"
        },
        {
          "internalType": "address",
          "name": "_hunter",
          "type": "address"
        },
        {
          "internalType": "uint256",
          "name": "_amount",
          "type": "uint256"
        }
      ],
      "name": "payBounty",
      "outputs": [
        {
          "internalType": "bool",
          "name": "",
          "type": "bool"
        }
      ],
      "stateMutability": "nonpayable",
      "type": "function"
    },
    {
      "inputs": [
        {
          "internalType": "string",
          "name": "_projectName",
          "type": "string"
        },
        {
          "internalType": "uint256",
          "name": "_amount",
          "type": "uint256"
        }
      ],
      "name": "projectDeposit",
      "outputs": [
        {
          "internalType": "bool",
          "name": "",
          "type": "bool"
        }
      ],
      "stateMutability": "nonpayable",
      "type": "function"
    },
    {
      "inputs": [
        {
          "internalType": "string",
          "name": "_projectName",
          "type": "string"
        },
        {
          "internalType": "uint256",
          "name": "_amount",
          "type": "uint256"
        }
      ],
      "name": "projectDepositWithdrawal",
      "outputs": [
        {
          "internalType": "bool",
          "name": "",
          "type": "bool"
        }
      ],
      "stateMutability": "nonpayable",
      "type": "function"
    },
    {
      "inputs": [],
      "name": "proxiableUUID",
      "outputs": [
        {
          "internalType": "bytes32",
          "name": "",
          "type": "bytes32"
        }
      ],
      "stateMutability": "view",
      "type": "function"
    },
    {
      "inputs": [],
      "name": "renounceOwnership",
      "outputs": [],
      "stateMutability": "nonpayable",
      "type": "function"
    },
    {
      "inputs": [],
      "name": "saloonWallet",
      "outputs": [
        {
          "internalType": "contract SaloonWallet",
          "name": "",
          "type": "address"
        }
      ],
      "stateMutability": "view",
      "type": "function"
    },
    {
      "inputs": [
        {
          "internalType": "string",
          "name": "_projectName",
          "type": "string"
        },
        {
          "internalType": "uint256",
          "name": "_amount",
          "type": "uint256"
        }
      ],
      "name": "scheduleProjectDepositWithdrawal",
      "outputs": [
        {
          "internalType": "bool",
          "name": "",
          "type": "bool"
        }
      ],
      "stateMutability": "nonpayable",
      "type": "function"
    },
    {
      "inputs": [
        {
          "internalType": "string",
          "name": "_projectName",
          "type": "string"
        },
        {
          "internalType": "uint256",
          "name": "_amount",
          "type": "uint256"
        }
      ],
      "name": "scheduleUnstake",
      "outputs": [
        {
          "internalType": "bool",
          "name": "",
          "type": "bool"
        }
      ],
      "stateMutability": "nonpayable",
      "type": "function"
    },
    {
      "inputs": [
        {
          "internalType": "string",
          "name": "_projectName",
          "type": "string"
        },
        {
          "internalType": "uint256",
          "name": "_poolCap",
          "type": "uint256"
        },
        {
          "internalType": "uint256",
          "name": "_desiredAPY",
          "type": "uint256"
        }
      ],
      "name": "setBountyCapAndAPY",
      "outputs": [
        {
          "internalType": "bool",
          "name": "",
          "type": "bool"
        }
      ],
      "stateMutability": "nonpayable",
      "type": "function"
    },
    {
      "inputs": [
        {
          "internalType": "string",
          "name": "_projectName",
          "type": "string"
        },
        {
          "internalType": "uint256",
          "name": "_amount",
          "type": "uint256"
        }
      ],
      "name": "stake",
      "outputs": [
        {
          "internalType": "bool",
          "name": "",
          "type": "bool"
        }
      ],
      "stateMutability": "nonpayable",
      "type": "function"
    },
    {
      "inputs": [
        {
          "internalType": "address",
          "name": "",
          "type": "address"
        }
      ],
      "name": "tokenWhitelist",
      "outputs": [
        {
          "internalType": "bool",
          "name": "",
          "type": "bool"
        }
      ],
      "stateMutability": "view",
      "type": "function"
    },
    {
      "inputs": [
        {
          "internalType": "address",
          "name": "newOwner",
          "type": "address"
        }
      ],
      "name": "transferOwnership",
      "outputs": [],
      "stateMutability": "nonpayable",
      "type": "function"
    },
    {
      "inputs": [
        {
          "internalType": "string",
          "name": "_projectName",
          "type": "string"
        },
        {
          "internalType": "uint256",
          "name": "_amount",
          "type": "uint256"
        }
      ],
      "name": "unstake",
      "outputs": [
        {
          "internalType": "bool",
          "name": "",
          "type": "bool"
        }
      ],
      "stateMutability": "nonpayable",
      "type": "function"
    },
    {
      "inputs": [
        {
          "internalType": "address",
          "name": "_newImplementation",
          "type": "address"
        }
      ],
      "name": "updateBountyPoolImplementation",
      "outputs": [
        {
          "internalType": "bool",
          "name": "",
          "type": "bool"
        }
      ],
      "stateMutability": "nonpayable",
      "type": "function"
    },
    {
      "inputs": [
        {
          "internalType": "address",
          "name": "_newWallet",
          "type": "address"
        }
      ],
      "name": "updateSaloonWallet",
      "outputs": [],
      "stateMutability": "nonpayable",
      "type": "function"
    },
    {
      "inputs": [
        {
          "internalType": "address",
          "name": "_token",
          "type": "address"
        },
        {
          "internalType": "bool",
          "name": "whitelisted",
          "type": "bool"
        }
      ],
      "name": "updateTokenWhitelist",
      "outputs": [
        {
          "internalType": "bool",
          "name": "",
          "type": "bool"
        }
      ],
      "stateMutability": "nonpayable",
      "type": "function"
    },
    {
      "inputs": [
        {
          "internalType": "address",
          "name": "newImplementation",
          "type": "address"
        }
      ],
      "name": "upgradeTo",
      "outputs": [],
      "stateMutability": "nonpayable",
      "type": "function"
    },
    {
      "inputs": [
        {
          "internalType": "address",
          "name": "newImplementation",
          "type": "address"
        },
        {
          "internalType": "bytes",
          "name": "data",
          "type": "bytes"
        }
      ],
      "name": "upgradeToAndCall",
      "outputs": [],
      "stateMutability": "payable",
      "type": "function"
    },
    {
      "inputs": [],
      "name": "viewAllBountiesByName",
      "outputs": [
        {
          "components": [
            {
              "internalType": "string",
              "name": "projectName",
              "type": "string"
            },
            {
              "internalType": "address",
              "name": "projectWallet",
              "type": "address"
            },
            {
              "internalType": "contract BountyPool",
              "name": "proxyAddress",
              "type": "address"
            },
            {
              "internalType": "address",
              "name": "token",
              "type": "address"
            },
            {
              "internalType": "bool",
              "name": "dead",
              "type": "bool"
            }
          ],
          "internalType": "struct BountyProxiesManager.Bounties[]",
          "name": "",
          "type": "tuple[]"
        }
      ],
      "stateMutability": "view",
      "type": "function"
    },
    {
      "inputs": [
        {
          "internalType": "string",
          "name": "_projectName",
          "type": "string"
        }
      ],
      "name": "viewBountyBalance",
      "outputs": [
        {
          "internalType": "uint256",
          "name": "",
          "type": "uint256"
        }
      ],
      "stateMutability": "view",
      "type": "function"
    },
    {
      "inputs": [
        {
          "internalType": "string",
          "name": "_projectName",
          "type": "string"
        }
      ],
      "name": "viewBountyInfo",
      "outputs": [
        {
          "internalType": "uint256",
          "name": "payout",
          "type": "uint256"
        },
        {
          "internalType": "uint256",
          "name": "apy",
          "type": "uint256"
        },
        {
          "internalType": "uint256",
          "name": "staked",
          "type": "uint256"
        },
        {
          "internalType": "uint256",
          "name": "poolCap",
          "type": "uint256"
        }
      ],
      "stateMutability": "view",
      "type": "function"
    },
    {
      "inputs": [
        {
          "internalType": "string",
          "name": "_projectName",
          "type": "string"
        }
      ],
      "name": "viewBountyOwner",
      "outputs": [
        {
          "internalType": "address",
          "name": "",
          "type": "address"
        }
      ],
      "stateMutability": "view",
      "type": "function"
    },
    {
      "inputs": [
        {
          "internalType": "string",
          "name": "_projectName",
          "type": "string"
        }
      ],
      "name": "viewDesiredAPY",
      "outputs": [
        {
          "internalType": "uint256",
          "name": "",
          "type": "uint256"
        }
      ],
      "stateMutability": "view",
      "type": "function"
    },
    {
      "inputs": [
        {
          "internalType": "string",
          "name": "_projectName",
          "type": "string"
        }
      ],
      "name": "viewHackerPayout",
      "outputs": [
        {
          "internalType": "uint256",
          "name": "",
          "type": "uint256"
        }
      ],
      "stateMutability": "view",
      "type": "function"
    },
    {
      "inputs": [
        {
          "internalType": "address",
          "name": "_token",
          "type": "address"
        },
        {
          "internalType": "address",
          "name": "_hunter",
          "type": "address"
        }
      ],
      "name": "viewHunterTotalTokenPayouts",
      "outputs": [
        {
          "internalType": "uint256",
          "name": "",
          "type": "uint256"
        }
      ],
      "stateMutability": "view",
      "type": "function"
    },
    {
      "inputs": [
        {
          "internalType": "string",
          "name": "_projectName",
          "type": "string"
        }
      ],
      "name": "viewPoolCap",
      "outputs": [
        {
          "internalType": "uint256",
          "name": "",
          "type": "uint256"
        }
      ],
      "stateMutability": "view",
      "type": "function"
    },
    {
      "inputs": [
        {
          "internalType": "string",
          "name": "_projectName",
          "type": "string"
        }
      ],
      "name": "viewProjectDeposit",
      "outputs": [
        {
          "internalType": "uint256",
          "name": "",
          "type": "uint256"
        }
      ],
      "stateMutability": "view",
      "type": "function"
    },
    {
      "inputs": [],
      "name": "viewSaloonBalance",
      "outputs": [
        {
          "internalType": "uint256",
          "name": "",
          "type": "uint256"
        }
      ],
      "stateMutability": "view",
      "type": "function"
    },
    {
      "inputs": [],
      "name": "viewTotalEarnedSaloon",
      "outputs": [
        {
          "internalType": "uint256",
          "name": "",
          "type": "uint256"
        }
      ],
      "stateMutability": "view",
      "type": "function"
    },
    {
      "inputs": [],
      "name": "viewTotalHackerPayouts",
      "outputs": [
        {
          "internalType": "uint256",
          "name": "",
          "type": "uint256"
        }
      ],
      "stateMutability": "view",
      "type": "function"
    },
    {
      "inputs": [],
      "name": "viewTotalPremiums",
      "outputs": [
        {
          "internalType": "uint256",
          "name": "",
          "type": "uint256"
        }
      ],
      "stateMutability": "view",
      "type": "function"
    },
    {
      "inputs": [],
      "name": "viewTotalSaloonCommission",
      "outputs": [
        {
          "internalType": "uint256",
          "name": "",
          "type": "uint256"
        }
      ],
      "stateMutability": "view",
      "type": "function"
    },
    {
      "inputs": [
        {
          "internalType": "string",
          "name": "_projectName",
          "type": "string"
        }
      ],
      "name": "viewUserStakingBalance",
      "outputs": [
        {
          "internalType": "uint256",
          "name": "",
          "type": "uint256"
        }
      ],
      "stateMutability": "view",
      "type": "function"
    },
    {
      "inputs": [
        {
          "internalType": "string",
          "name": "_projectName",
          "type": "string"
        }
      ],
      "name": "viewstakersDeposit",
      "outputs": [
        {
          "internalType": "uint256",
          "name": "",
          "type": "uint256"
        }
      ],
      "stateMutability": "view",
      "type": "function"
    },
    {
      "inputs": [
        {
          "internalType": "address",
          "name": "_token",
          "type": "address"
        },
        {
          "internalType": "address",
          "name": "_to",
          "type": "address"
        },
        {
          "internalType": "uint256",
          "name": "_amount",
          "type": "uint256"
        }
      ],
      "name": "withdrawSaloon",
      "outputs": [
        {
          "internalType": "bool",
          "name": "",
          "type": "bool"
        }
      ],
      "stateMutability": "nonpayable",
      "type": "function"
    },
    {
      "inputs": [],
      "name": "withdrawSaloonPremiumFees",
      "outputs": [
        {
          "internalType": "bool",
          "name": "",
          "type": "bool"
        }
      ],
      "stateMutability": "nonpayable",
      "type": "function"
    }
  ],
  "bytecode": {
    "object": "0x60a06040523060805234801561001457600080fd5b50608051614d2461004c60003960008181611350015281816113990152818161196d015281816119ad0152611a400152614d246000f3fe6080604052600436106102ae5760003560e01c80637f2f3e5e11610175578063c45a0155116100dc578063d7dc56a511610095578063e6b37f6f1161006f578063e6b37f6f14610884578063f0e6b4ed146108a4578063f2fde38b146108c4578063f4808fea146108e457600080fd5b8063d7dc56a51461082f578063e5125d7b1461084f578063e5e97c651461086457600080fd5b8063c45a01551461077a578063cae38faa1461079a578063d16ad2f7146107ba578063d3326a0a146107da578063d37c92dc146107ef578063d3c15cdb1461080f57600080fd5b8063a667b5d01161012e578063a667b5d0146106c5578063b8047881146106e5578063b91cdea714610705578063bc16076114610725578063c0c53b8b14610745578063c31495901461076557600080fd5b80637f2f3e5e146105e15780638da5cb5b14610612578063943eb4f2146106305780639494c8ae146106705780639ca7e78714610690578063a0d07125146106b057600080fd5b806352d1902d1161021957806368dd3dbf116101d257806368dd3dbf146105275780636c94853514610547578063715018a61461055c578063753d75631461057157806379f99a89146105a15780637dd03e8f146105c157600080fd5b806352d1902d1461047257806353dce8561461048757806358b07d5b146104a757806359659e90146104c7578063666b7030146104e757806366b6c6471461050757600080fd5b80633659cfe61161026b5780633659cfe61461038657806337787926146103a85780633ef0c3ed146103e05780634389e41a146104005780634c0d9a6c146104205780634f1ef2861461045f57600080fd5b806303c46f51146102b357806305234fda146102de5780630e0602491461030c5780630f0df17114610331578063215803221461035157806327e7354214610371575b600080fd5b3480156102bf57600080fd5b506102c8610904565b6040516102d591906144e7565b60405180910390f35b3480156102ea57600080fd5b506102fe6102f9366004614631565b610a3a565b6040519081526020016102d5565b34801561031857600080fd5b50610321610bac565b60405190151581526020016102d5565b34801561033d57600080fd5b506102fe61034c366004614631565b610ea6565b34801561035d57600080fd5b506102fe61036c36600461467b565b610fed565b34801561037d57600080fd5b5061032161106d565b34801561039257600080fd5b506103a66103a13660046146b4565b611345565b005b3480156103b457600080fd5b506103c86103c3366004614631565b61142e565b6040516001600160a01b0390911681526020016102d5565b3480156103ec57600080fd5b506102fe6103fb366004614631565b611462565b34801561040c57600080fd5b506068546103c8906001600160a01b031681565b34801561042c57600080fd5b5061044061043b3660046146d1565b6115ac565b604080516001600160a01b0390931683529015156020830152016102d5565b6103a661046d36600461475a565b611962565b34801561047e57600080fd5b506102fe611a33565b34801561049357600080fd5b506103216104a23660046146b4565b611ae6565b3480156104b357600080fd5b506103216104c23660046147aa565b611b9c565b3480156104d357600080fd5b506066546103c8906001600160a01b031681565b3480156104f357600080fd5b506102fe610502366004614631565b611e2f565b34801561051357600080fd5b506103c8610522366004614631565b611ff2565b34801561053357600080fd5b506103216105423660046147f8565b612026565b34801561055357600080fd5b506102fe6122ce565b34801561056857600080fd5b506103a6612341565b34801561057d57600080fd5b5061032161058c3660046146b4565b606b6020526000908152604090205460ff1681565b3480156105ad57600080fd5b506103a66105bc3660046146b4565b612355565b3480156105cd57600080fd5b506102fe6105dc366004614631565b6123cc565b3480156105ed57600080fd5b506106016105fc36600461483d565b612539565b6040516102d5959493929190614856565b34801561061e57600080fd5b506033546001600160a01b03166103c8565b34801561063c57600080fd5b5061065061064b366004614631565b61261d565b6040805194855260208501939093529183015260608201526080016102d5565b34801561067c57600080fd5b5061032161068b3660046147f8565b612656565b34801561069c57600080fd5b506103216106ab366004614631565b61297f565b3480156106bc57600080fd5b506102fe612a0b565b3480156106d157600080fd5b506102fe6106e0366004614631565b612a55565b3480156106f157600080fd5b506103216107003660046147f8565b612b9c565b34801561071157600080fd5b506102fe610720366004614631565b612d6e565b34801561073157600080fd5b5061032161074036600461489c565b612eb5565b34801561075157600080fd5b506103a66107603660046148f6565b6130ea565b34801561077157600080fd5b506102fe61323b565b34801561078657600080fd5b506065546103c8906001600160a01b031681565b3480156107a657600080fd5b506067546103c8906001600160a01b031681565b3480156107c657600080fd5b506103216107d53660046147f8565b613285565b3480156107e657600080fd5b506102fe613441565b3480156107fb57600080fd5b5061032161080a3660046147f8565b61348b565b34801561081b57600080fd5b506102fe61082a366004614631565b6137c1565b34801561083b57600080fd5b5061060161084a366004614631565b613908565b34801561085b57600080fd5b506102fe61392e565b34801561087057600080fd5b5061032161087f36600461494f565b613978565b34801561089057600080fd5b5061032161089f366004614631565b6139ae565b3480156108b057600080fd5b506103216108bf36600461497d565b613b44565b3480156108d057600080fd5b506103a66108df3660046146b4565b613c4b565b3480156108f057600080fd5b506103216108ff3660046147f8565b613cc1565b60606069805480602002602001604051908101604052809291908181526020016000905b82821015610a3157838290600052602060002090600402016040518060a001604052908160008201805461095b906149ad565b80601f0160208091040260200160405190810160405280929190818152602001828054610987906149ad565b80156109d45780601f106109a9576101008083540402835291602001916109d4565b820191906000526020600020905b8154815290600101906020018083116109b757829003601f168201915b50505091835250506001828101546001600160a01b039081166020808501919091526002850154821660408501526003909401549081166060840152600160a01b900460ff16151560809092019190915291835292019101610928565b50505050905090565b600080606a83604051610a4d91906149e8565b90815260200160405180910390206040518060a0016040529081600082018054610a76906149ad565b80601f0160208091040260200160405190810160405280929190818152602001828054610aa2906149ad565b8015610aef5780601f10610ac457610100808354040283529160200191610aef565b820191906000526020600020905b815481529060010190602001808311610ad257829003601f168201915b505050918352505060018201546001600160a01b03908116602080840191909152600284015482166040808501919091526003909401548083166060850152600160a01b900460ff161515608090930192909252838301518351637228407360e11b81529351949550169263e45080e69260048082019392918290030181865afa158015610b81573d6000803e3d6000fd5b505050506040513d601f19601f82011682018060405250810190610ba59190614a04565b9392505050565b6000610bb6613f1b565b60006069805480602002602001604051908101604052809291908181526020016000905b82821015610ce357838290600052602060002090600402016040518060a0016040529081600082018054610c0d906149ad565b80601f0160208091040260200160405190810160405280929190818152602001828054610c39906149ad565b8015610c865780601f10610c5b57610100808354040283529160200191610c86565b820191906000526020600020905b815481529060010190602001808311610c6957829003601f168201915b50505091835250506001828101546001600160a01b039081166020808501919091526002850154821660408501526003909401549081166060840152600160a01b900460ff16151560809092019190915291835292019101610bda565b5050825192935060009150505b81811015610e9c57610d1e838281518110610d0d57610d0d614a1d565b602002602001015160800151613f75565b151560011415610d2d57610e8c565b6000838281518110610d4157610d41614a1d565b6020026020010151604001516001600160a01b0316635121ac9d858481518110610d6d57610d6d614a1d565b60209081029190910101516060015160685460405160e084901b6001600160e01b03191681526001600160a01b039283166004820152911660248201526044016020604051808303816000875af1158015610dcc573d6000803e3d6000fd5b505050506040513d601f19601f82011682018060405250810190610df09190614a04565b60685485519192506001600160a01b0316906383ab930490869085908110610e1a57610e1a614a1d565b602002602001015160600151836040518363ffffffff1660e01b8152600401610e589291906001600160a01b03929092168252602082015260400190565b600060405180830381600087803b158015610e7257600080fd5b505af1158015610e86573d6000803e3d6000fd5b50505050505b610e9581614a49565b9050610cf0565b5060019250505090565b600080606a83604051610eb991906149e8565b90815260200160405180910390206040518060a0016040529081600082018054610ee2906149ad565b80601f0160208091040260200160405190810160405280929190818152602001828054610f0e906149ad565b8015610f5b5780601f10610f3057610100808354040283529160200191610f5b565b820191906000526020600020905b815481529060010190602001808311610f3e57829003601f168201915b505050918352505060018201546001600160a01b03908116602080840191909152600284015482166040808501919091526003909401548083166060850152600160a01b900460ff161515608090930192909252838301518351634a94bcb360e01b815293519495501692634a94bcb39260048082019392918290030181865afa158015610b81573d6000803e3d6000fd5b6068546040516310ac019160e11b81526001600160a01b03848116600483015283811660248301526000921690632158032290604401602060405180830381865afa158015611040573d6000803e3d6000fd5b505050506040513d601f19601f820116820180604052508101906110649190614a04565b90505b92915050565b6000806069805480602002602001604051908101604052809291908181526020016000905b8282101561119b57838290600052602060002090600402016040518060a00160405290816000820180546110c5906149ad565b80601f01602080910402602001604051908101604052809291908181526020018280546110f1906149ad565b801561113e5780601f106111135761010080835404028352916020019161113e565b820191906000526020600020905b81548152906001019060200180831161112157829003601f168201915b50505091835250506001828101546001600160a01b039081166020808501919091526002850154821660408501526003909401549081166060840152600160a01b900460ff16151560809092019190915291835292019101611092565b5050825192935060009150505b81811015610e9c576111c5838281518110610d0d57610d0d614a1d565b1515600114156111d457611335565b8281815181106111e6576111e6614a1d565b6020026020010151604001516001600160a01b03166310775e7484838151811061121257611212614a1d565b60200260200101516060015185848151811061123057611230614a1d565b6020026020010151602001516040518363ffffffff1660e01b815260040161126e9291906001600160a01b0392831681529116602082015260400190565b6020604051808303816000875af115801561128d573d6000803e3d6000fd5b505050506040513d601f19601f820116820180604052508101906112b19190614a64565b508281815181106112c4576112c4614a1d565b6020026020010151602001516001600160a01b03168382815181106112eb576112eb614a1d565b60200260200101516000015160405161130491906149e8565b604051908190038120907fd5d2d05dfe0d10d196c53d6f16e6d70e4dbb9cb77fe8682f6c68e9426c29103090600090a35b61133e81614a49565b90506111a8565b306001600160a01b037f00000000000000000000000000000000000000000000000000000000000000001614156113975760405162461bcd60e51b815260040161138e90614a81565b60405180910390fd5b7f00000000000000000000000000000000000000000000000000000000000000006001600160a01b03166113e0600080516020614ca8833981519152546001600160a01b031690565b6001600160a01b0316146114065760405162461bcd60e51b815260040161138e90614acd565b61140f81613f8c565b6040805160008082526020820190925261142b91839190613f94565b50565b6000606a8260405161144091906149e8565b908152604051908190036020019020600101546001600160a01b031692915050565b600080606a8360405161147591906149e8565b90815260200160405180910390206040518060a001604052908160008201805461149e906149ad565b80601f01602080910402602001604051908101604052809291908181526020018280546114ca906149ad565b80156115175780601f106114ec57610100808354040283529160200191611517565b820191906000526020600020905b8154815290600101906020018083116114fa57829003601f168201915b505050918352505060018201546001600160a01b03908116602080840191909152600284015482166040808501919091526003909401548083166060850152600160a01b900460ff16151560809093019290925283830151835160016202e8ad60e61b031981529351949550169263ff45d4c09260048082019392918290030181865afa158015610b81573d6000803e3d6000fd5b6000806115b7613f1b565b60006001600160a01b0316606a866040516115d291906149e8565b908152604051908190036020019020600201546001600160a01b03161461163b5760405162461bcd60e51b815260206004820152601a60248201527f50726f6a65637420616c72656164792068617320626f756e7479000000000000604482015260640161138e565b6001600160a01b0384166000908152606b602052604090205460ff16151560011461169d5760405162461bcd60e51b8152602060048201526012602482015271151bdad95b881b9bdd08185c1c1c9bdd995960721b604482015260640161138e565b6040805160a0810182526000818301819052608082018190528782526001600160a01b038681166020840152878116606084015260655460665494516336d9881760e01b815293949293908216926336d9881792611702929116908c90600401614b19565b6020604051808303816000875af1158015611721573d6000803e3d6000fd5b505050506040513d601f19601f820116820180604052508101906117459190614b3d565b604051634b8e0d3760e01b81523060048201529091506001600160a01b03821690634b8e0d3790602401600060405180830381600087803b15801561178957600080fd5b505af115801561179d573d6000803e3d6000fd5b5050506001600160a01b038216604084015250606980546001810182556000919091528251805184926004027f7fb4302e8e91f9110a6554c2c0a24601252c2a42c2220ca988efcfe39991430801916117fb918391602001906143f6565b5060208201516001820180546001600160a01b039283166001600160a01b03199182161790915560408085015160028501805491851691909316179091556060840151600390930180546080909501511515600160a01b026001600160a81b0319909516939092169290921792909217909155518290606a9061187f908a906149e8565b908152602001604051809103902060008201518160000190805190602001906118a99291906143f6565b506020828101516001830180546001600160a01b039283166001600160a01b03199182161790915560408086015160028601805491851691909316179091556060850151600390940180546080909601511515600160a01b026001600160a81b03199096169483169490941794909417909255915183821681529087169133917fa397122091ddbad4417c188353200f86978770ea6a146a5860667b1ef760917c910160405180910390a3976001975095505050505050565b306001600160a01b037f00000000000000000000000000000000000000000000000000000000000000001614156119ab5760405162461bcd60e51b815260040161138e90614a81565b7f00000000000000000000000000000000000000000000000000000000000000006001600160a01b03166119f4600080516020614ca8833981519152546001600160a01b031690565b6001600160a01b031614611a1a5760405162461bcd60e51b815260040161138e90614acd565b611a2382613f8c565b611a2f82826001613f94565b5050565b6000306001600160a01b037f00000000000000000000000000000000000000000000000000000000000000001614611ad35760405162461bcd60e51b815260206004820152603860248201527f555550535570677261646561626c653a206d757374206e6f742062652063616c60448201527f6c6564207468726f7567682064656c656761746563616c6c0000000000000000606482015260840161138e565b50600080516020614ca883398151915290565b6000611af0613f1b565b6001600160a01b038216611b355760405162461bcd60e51b815260206004820152600c60248201526b41646472657373207a65726f60a01b604482015260640161138e565b606654604051631b2ce7f360e11b81526001600160a01b03848116600483015290911690633659cfe690602401600060405180830381600087803b158015611b7c57600080fd5b505af1158015611b90573d6000803e3d6000fd5b50600195945050505050565b600080606a85604051611baf91906149e8565b90815260200160405180910390206040518060a0016040529081600082018054611bd8906149ad565b80601f0160208091040260200160405190810160405280929190818152602001828054611c04906149ad565b8015611c515780601f10611c2657610100808354040283529160200191611c51565b820191906000526020600020905b815481529060010190602001808311611c3457829003601f168201915b505050918352505060018201546001600160a01b0390811660208301526002830154811660408301526003909201549182166060820152600160a01b90910460ff161515608091820152810151909150611caa90613f75565b1515600114611ccb5760405162461bcd60e51b815260040161138e90614b5a565b80602001516001600160a01b0316336001600160a01b031614611d005760405162461bcd60e51b815260040161138e90614b82565b80604001516001600160a01b031663d835f535856040518263ffffffff1660e01b8152600401611d3291815260200190565b600060405180830381600087803b158015611d4c57600080fd5b505af1158015611d60573d6000803e3d6000fd5b50505060408083015160608401516020850151925163cc12c31160e01b81526001600160a01b03909216935063cc12c31192611da0928890600401614bad565b6020604051808303816000875af1158015611dbf573d6000803e3d6000fd5b505050506040513d601f19601f82011682018060405250810190611de39190614a64565b50828486604051611df491906149e8565b604051908190038120907f5d9beb4943b1823a8d5ffbc059a5d64cf367d9b7aaee9e28a697b842779957d890600090a4506001949350505050565b600080606a83604051611e4291906149e8565b90815260200160405180910390206040518060a0016040529081600082018054611e6b906149ad565b80601f0160208091040260200160405190810160405280929190818152602001828054611e97906149ad565b8015611ee45780601f10611eb957610100808354040283529160200191611ee4565b820191906000526020600020905b815481529060010190602001808311611ec757829003601f168201915b505050918352505060018201546001600160a01b0390811660208301526002830154811660408301526003909201549182166060820152600160a01b90910460ff161515608091820152810151909150611f3d90613f75565b1515600114611f5e5760405162461bcd60e51b815260040161138e90614b5a565b6040808201516060830151602084015192516303065f4560e41b81526001600160a01b0391821660048201523360248201529281166044840152600092911690633065f4509060640160408051808303816000875af1158015611fc5573d6000803e3d6000fd5b505050506040513d601f19601f82011682018060405250810190611fe99190614bd1565b50949350505050565b6000606a8260405161200491906149e8565b908152604051908190036020019020600201546001600160a01b031692915050565b600080606a8460405161203991906149e8565b90815260200160405180910390206040518060a0016040529081600082018054612062906149ad565b80601f016020809104026020016040519081016040528092919081815260200182805461208e906149ad565b80156120db5780601f106120b0576101008083540402835291602001916120db565b820191906000526020600020905b8154815290600101906020018083116120be57829003601f168201915b505050918352505060018201546001600160a01b0390811660208301526002830154811660408301526003909201549182166060820152600160a01b90910460ff16151560809182015281015190915061213490613f75565b15156001146121555760405162461bcd60e51b815260040161138e90614b5a565b80602001516001600160a01b0316336001600160a01b03161461218a5760405162461bcd60e51b815260040161138e90614b82565b600081604001516001600160a01b0316634a94bcb36040518163ffffffff1660e01b8152600401602060405180830381865afa1580156121ce573d6000803e3d6000fd5b505050506040513d601f19601f820116820180604052508101906121f29190614a04565b905081604001516001600160a01b031663419b7bd783606001518460200151876040518463ffffffff1660e01b815260040161223093929190614bad565b6020604051808303816000875af115801561224f573d6000803e3d6000fd5b505050506040513d601f19601f820116820180604052508101906122739190614a64565b5060006122808583614bf6565b905080828760405161229291906149e8565b604051908190038120907f4263aad47889a1b6d47c62c4329f18cb38e94cb40ac428c5212a224262e39d7b90600090a450600195945050505050565b60685460408051636c94853560e01b815290516000926001600160a01b031691636c9485359160048083019260209291908290030181865afa158015612318573d6000803e3d6000fd5b505050506040513d601f19601f8201168201806040525081019061233c9190614a04565b905090565b612349613f1b565b6123536000614104565b565b61235d613f1b565b6001600160a01b0381166123aa5760405162461bcd60e51b8152602060048201526014602482015273416464726573732063616e74206265207a65726f60601b604482015260640161138e565b606880546001600160a01b0319166001600160a01b0392909216919091179055565b600080606a836040516123df91906149e8565b90815260200160405180910390206040518060a0016040529081600082018054612408906149ad565b80601f0160208091040260200160405190810160405280929190818152602001828054612434906149ad565b80156124815780601f1061245657610100808354040283529160200191612481565b820191906000526020600020905b81548152906001019060200180831161246457829003601f168201915b505050918352505060018201546001600160a01b039081166020830152600283015481166040808401919091526003909301548082166060840152600160a01b900460ff161515608090920191909152828201519151631a89cabd60e01b8152336004820152929350600092911690631a89cabd906024016040805180830381865afa158015612515573d6000803e3d6000fd5b505050506040513d601f19601f82011682018060405250810190611fe99190614c0d565b6069818154811061254957600080fd5b906000526020600020906004020160009150905080600001805461256c906149ad565b80601f0160208091040260200160405190810160405280929190818152602001828054612598906149ad565b80156125e55780601f106125ba576101008083540402835291602001916125e5565b820191906000526020600020905b8154815290600101906020018083116125c857829003601f168201915b505050506001830154600284015460039094015492936001600160a01b0391821693908216925090811690600160a01b900460ff1685565b60008060008061262c85610ea6565b935061263785612d6e565b915061264285612a55565b925061264d85611462565b90509193509193565b600080606a8460405161266991906149e8565b90815260200160405180910390206040518060a0016040529081600082018054612692906149ad565b80601f01602080910402602001604051908101604052809291908181526020018280546126be906149ad565b801561270b5780601f106126e05761010080835404028352916020019161270b565b820191906000526020600020905b8154815290600101906020018083116126ee57829003601f168201915b505050918352505060018201546001600160a01b0390811660208301526002830154811660408301526003909201549182166060820152600160a01b90910460ff16151560809182015281015190915061276490613f75565b15156001146127855760405162461bcd60e51b815260040161138e90614b5a565b600081604001516001600160a01b0316634a94bcb36040518163ffffffff1660e01b8152600401602060405180830381865afa1580156127c9573d6000803e3d6000fd5b505050506040513d601f19601f820116820180604052508101906127ed9190614a04565b9050600082604001516001600160a01b03166316e17b8d6040518163ffffffff1660e01b8152600401602060405180830381865afa158015612833573d6000803e3d6000fd5b505050506040513d601f19601f820116820180604052508101906128579190614a04565b6040808501516060860151915163bf6eac2f60e01b81529293506001600160a01b03169163bf6eac2f916128919133908a90600401614bad565b6020604051808303816000875af11580156128b0573d6000803e3d6000fd5b505050506040513d601f19601f820116820180604052508101906128d49190614a64565b5060006128e18684614c31565b905060006128ef8784614c31565b905080838960405161290191906149e8565b604051908190038120907f8834bcade58122eb5594c97d7d46171dc644983fafc2663e6728a6eb925a18ba90600090a481848960405161294191906149e8565b604051908190038120907f4263aad47889a1b6d47c62c4329f18cb38e94cb40ac428c5212a224262e39d7b90600090a4506001979650505050505050565b6000612989613f1b565b6001606a8360405161299b91906149e8565b9081526040519081900360200181206003018054921515600160a01b0260ff60a01b19909316929092179091556129d39083906149e8565b604051908190038120907f064c50721c2d6a8dde5fa7e23659e4df58c910897f7b98ca5b9a940038645cc890600090a2506001919050565b6068546040805163a0d0712560e01b815290516000926001600160a01b03169163a0d071259160048083019260209291908290030181865afa158015612318573d6000803e3d6000fd5b600080606a83604051612a6891906149e8565b90815260200160405180910390206040518060a0016040529081600082018054612a91906149ad565b80601f0160208091040260200160405190810160405280929190818152602001828054612abd906149ad565b8015612b0a5780601f10612adf57610100808354040283529160200191612b0a565b820191906000526020600020905b815481529060010190602001808311612aed57829003601f168201915b505050918352505060018201546001600160a01b03908116602080840191909152600284015482166040808501919091526003909401548083166060850152600160a01b900460ff1615156080909301929092528383015183516378eb46fd60e01b8152935194955016926378eb46fd9260048082019392918290030181865afa158015610b81573d6000803e3d6000fd5b600080606a84604051612baf91906149e8565b90815260200160405180910390206040518060a0016040529081600082018054612bd8906149ad565b80601f0160208091040260200160405190810160405280929190818152602001828054612c04906149ad565b8015612c515780601f10612c2657610100808354040283529160200191612c51565b820191906000526020600020905b815481529060010190602001808311612c3457829003601f168201915b505050918352505060018201546001600160a01b0390811660208301526002830154811660408301526003909201549182166060820152600160a01b90910460ff161515608091820152810151909150612caa90613f75565b1515600114612ccb5760405162461bcd60e51b815260040161138e90614b5a565b80602001516001600160a01b0316336001600160a01b031614612d005760405162461bcd60e51b815260040161138e90614b82565b80604001516001600160a01b0316634b5df6cc846040518263ffffffff1660e01b8152600401612d3291815260200190565b600060405180830381600087803b158015612d4c57600080fd5b505af1158015612d60573d6000803e3d6000fd5b506001979650505050505050565b600080606a83604051612d8191906149e8565b90815260200160405180910390206040518060a0016040529081600082018054612daa906149ad565b80601f0160208091040260200160405190810160405280929190818152602001828054612dd6906149ad565b8015612e235780601f10612df857610100808354040283529160200191612e23565b820191906000526020600020905b815481529060010190602001808311612e0657829003601f168201915b505050918352505060018201546001600160a01b03908116602080840191909152600284015482166040808501919091526003909401548083166060850152600160a01b900460ff1615156080909301929092528383015183516316e17b8d60e01b8152935194955016926316e17b8d9260048082019392918290030181865afa158015610b81573d6000803e3d6000fd5b6000612ebf613f1b565b612ef5606a85604051612ed291906149e8565b9081526040519081900360200190206003015460ff600160a01b90910416613f75565b1515600114612f165760405162461bcd60e51b815260040161138e90614b5a565b606a84604051612f2691906149e8565b908152604051908190036020018120600201546001600160a01b0316906373927c1190606a90612f579088906149e8565b908152604051908190036020018120600301546068546001600160e01b031960e085901b1683526001600160a01b0391821660048401528116602483015286166044820152606481018590526084016020604051808303816000875af1158015612fc5573d6000803e3d6000fd5b505050506040513d601f19601f82011682018060405250810190612fe99190614a64565b506068546040516001600160a01b039091169063d16cfcc190606a906130109088906149e8565b908152604051908190036020018120600301546001600160e01b031960e084901b168252613050916001600160a01b039091169087908790600401614bad565b600060405180830381600087803b15801561306a57600080fd5b505af115801561307e573d6000803e3d6000fd5b5050505081836001600160a01b0316606a8660405161309d91906149e8565b908152604051908190036020018120600301546001600160a01b0316907fbcbf239e05ac65bcc1a5612cd36d392b0a0aa8c93e027bc86e7276874834248890600090a45060019392505050565b600054610100900460ff161580801561310a5750600054600160ff909116105b806131245750303b158015613124575060005460ff166001145b6131875760405162461bcd60e51b815260206004820152602e60248201527f496e697469616c697a61626c653a20636f6e747261637420697320616c72656160448201526d191e481a5b9a5d1a585b1a5e995960921b606482015260840161138e565b6000805460ff1916600117905580156131aa576000805461ff0019166101001790555b606580546001600160a01b038087166001600160a01b0319928316179092556066805486841690831617905560678054928516929091169190911790556131ef614156565b8015613235576000805461ff0019169055604051600181527f7f26b83ff96e1f2b6a682f133852f6798a09c465da95921460cefb38474024989060200160405180910390a15b50505050565b60685460408051630c31495960e41b815290516000926001600160a01b03169163c31495909160048083019260209291908290030181865afa158015612318573d6000803e3d6000fd5b600080606a8460405161329891906149e8565b90815260200160405180910390206040518060a00160405290816000820180546132c1906149ad565b80601f01602080910402602001604051908101604052809291908181526020018280546132ed906149ad565b801561333a5780601f1061330f5761010080835404028352916020019161333a565b820191906000526020600020905b81548152906001019060200180831161331d57829003601f168201915b505050918352505060018201546001600160a01b0390811660208301526002830154811660408301526003909201549182166060820152600160a01b90910460ff16151560809182015281015190915061339390613f75565b15156001146133b45760405162461bcd60e51b815260040161138e90614b5a565b60408082015190516358ae710560e11b8152336004820152602481018590526001600160a01b039091169063b15ce20a906044016020604051808303816000875af1158015613407573d6000803e3d6000fd5b505050506040513d601f19601f8201168201806040525081019061342b9190614a64565b1561343a576001915050611067565b5092915050565b60685460408051636999350560e11b815290516000926001600160a01b03169163d3326a0a9160048083019260209291908290030181865afa158015612318573d6000803e3d6000fd5b600080606a8460405161349e91906149e8565b90815260200160405180910390206040518060a00160405290816000820180546134c7906149ad565b80601f01602080910402602001604051908101604052809291908181526020018280546134f3906149ad565b80156135405780601f1061351557610100808354040283529160200191613540565b820191906000526020600020905b81548152906001019060200180831161352357829003601f168201915b505050918352505060018201546001600160a01b0390811660208301526002830154811660408301526003909201549182166060820152600160a01b90910460ff16151560809182015281015190915061359990613f75565b15156001146135ba5760405162461bcd60e51b815260040161138e90614b5a565b600081604001516001600160a01b0316634a94bcb36040518163ffffffff1660e01b8152600401602060405180830381865afa1580156135fe573d6000803e3d6000fd5b505050506040513d601f19601f820116820180604052508101906136229190614a04565b9050600082604001516001600160a01b03166316e17b8d6040518163ffffffff1660e01b8152600401602060405180830381865afa158015613668573d6000803e3d6000fd5b505050506040513d601f19601f8201168201806040525081019061368c9190614a04565b604080850151606086015191516330414fc560e11b81529293506001600160a01b0316916360829f8a916136c69133908a90600401614bad565b6020604051808303816000875af11580156136e5573d6000803e3d6000fd5b505050506040513d601f19601f820116820180604052508101906137099190614a64565b156137b857600061371a8684614bf6565b905060006137288784614bf6565b905080838960405161373a91906149e8565b604051908190038120907f8834bcade58122eb5594c97d7d46171dc644983fafc2663e6728a6eb925a18ba90600090a481848960405161377a91906149e8565b604051908190038120907f4263aad47889a1b6d47c62c4329f18cb38e94cb40ac428c5212a224262e39d7b90600090a4600195505050505050611067565b50505092915050565b600080606a836040516137d491906149e8565b90815260200160405180910390206040518060a00160405290816000820180546137fd906149ad565b80601f0160208091040260200160405190810160405280929190818152602001828054613829906149ad565b80156138765780601f1061384b57610100808354040283529160200191613876565b820191906000526020600020905b81548152906001019060200180831161385957829003601f168201915b505050918352505060018201546001600160a01b03908116602080840191909152600284015482166040808501919091526003909401548083166060850152600160a01b900460ff16151560809093019290925283830151835163383639b360e01b81529351949550169263383639b39260048082019392918290030181865afa158015610b81573d6000803e3d6000fd5b8051602081830181018051606a8252928201919093012091528054819061256c906149ad565b6068546040805163e5125d7b60e01b815290516000926001600160a01b03169163e5125d7b9160048083019260209291908290030181865afa158015612318573d6000803e3d6000fd5b6000613982613f1b565b6001600160a01b03929092166000908152606b60205260409020805460ff191691151591909117905590565b60006139c3606a83604051612ed291906149e8565b15156001146139e45760405162461bcd60e51b815260040161138e90614b5a565b606a826040516139f491906149e8565b908152604051908190036020018120600201546001600160a01b0316906310775e7490606a90613a259086906149e8565b908152604051908190036020018120600301546001600160a01b031690606a90613a509087906149e8565b908152604051908190036020018120600101546001600160e01b031960e085901b1682526001600160a01b0392831660048301529190911660248201526044016020604051808303816000875af1158015613aaf573d6000803e3d6000fd5b505050506040513d601f19601f82011682018060405250810190613ad39190614a64565b50606a82604051613ae491906149e8565b908152604051908190036020018120600101546001600160a01b031690613b0c9084906149e8565b604051908190038120907fd5d2d05dfe0d10d196c53d6f16e6d70e4dbb9cb77fe8682f6c68e9426c29103090600090a3506001919050565b6000613b4e613f1b565b6001600160a01b038316613b935760405162461bcd60e51b815260206004820152600c60248201526b41646472657373205a65726f60a01b604482015260640161138e565b606854604051630be5e47b60e11b81526001600160a01b03909116906317cbc8f690613bc790879087908790600401614bad565b6020604051808303816000875af1158015613be6573d6000803e3d6000fd5b505050506040513d601f19601f82011682018060405250810190613c0a9190614a64565b5060405182906001600160a01b038616907f189e21cdbf554d2e7158d144a91a275ae2145eaf20b9697ea962df4fba6462c390600090a35060019392505050565b613c53613f1b565b6001600160a01b038116613cb85760405162461bcd60e51b815260206004820152602660248201527f4f776e61626c653a206e6577206f776e657220697320746865207a65726f206160448201526564647265737360d01b606482015260840161138e565b61142b81614104565b600080606a84604051613cd491906149e8565b90815260200160405180910390206040518060a0016040529081600082018054613cfd906149ad565b80601f0160208091040260200160405190810160405280929190818152602001828054613d29906149ad565b8015613d765780601f10613d4b57610100808354040283529160200191613d76565b820191906000526020600020905b815481529060010190602001808311613d5957829003601f168201915b505050918352505060018201546001600160a01b0390811660208301526002830154811660408301526003909201549182166060820152600160a01b90910460ff161515608091820152810151909150613dcf90613f75565b1515600114613df05760405162461bcd60e51b815260040161138e90614b5a565b600081604001516001600160a01b0316634a94bcb36040518163ffffffff1660e01b8152600401602060405180830381865afa158015613e34573d6000803e3d6000fd5b505050506040513d601f19601f82011682018060405250810190613e589190614a04565b905081602001516001600160a01b0316336001600160a01b031614613e8f5760405162461bcd60e51b815260040161138e90614b82565b81604001516001600160a01b0316633147096d83606001518460200151876040518463ffffffff1660e01b8152600401613ecb93929190614bad565b6020604051808303816000875af1158015613eea573d6000803e3d6000fd5b505050506040513d601f19601f82011682018060405250810190613f0e9190614a64565b5060006122808583614c31565b6033546001600160a01b031633146123535760405162461bcd60e51b815260206004820181905260248201527f4f776e61626c653a2063616c6c6572206973206e6f7420746865206f776e6572604482015260640161138e565b60008115613f84576000611067565b600192915050565b61142b613f1b565b7f4910fdfa16fed3260ed0e7147f7cc6da11a60208b5b9406d12a635614ffd91435460ff1615613fcc57613fc783614185565b505050565b826001600160a01b03166352d1902d6040518163ffffffff1660e01b8152600401602060405180830381865afa925050508015614026575060408051601f3d908101601f1916820190925261402391810190614a04565b60015b6140895760405162461bcd60e51b815260206004820152602e60248201527f45524331393637557067726164653a206e657720696d706c656d656e7461746960448201526d6f6e206973206e6f74205555505360901b606482015260840161138e565b600080516020614ca883398151915281146140f85760405162461bcd60e51b815260206004820152602960248201527f45524331393637557067726164653a20756e737570706f727465642070726f786044820152681a58589b195555525160ba1b606482015260840161138e565b50613fc7838383614221565b603380546001600160a01b038381166001600160a01b0319831681179093556040519116919082907f8be0079c531659141344cd1fd0a4f28419497f9722a3daafe3b4186f6b6457e090600090a35050565b600054610100900460ff1661417d5760405162461bcd60e51b815260040161138e90614c49565b612353614246565b6001600160a01b0381163b6141f25760405162461bcd60e51b815260206004820152602d60248201527f455243313936373a206e657720696d706c656d656e746174696f6e206973206e60448201526c1bdd08184818dbdb9d1c9858dd609a1b606482015260840161138e565b600080516020614ca883398151915280546001600160a01b0319166001600160a01b0392909216919091179055565b61422a83614276565b6000825111806142375750805b15613fc75761323583836142b6565b600054610100900460ff1661426d5760405162461bcd60e51b815260040161138e90614c49565b61235333614104565b61427f81614185565b6040516001600160a01b038216907fbc7cd75a20ee27fd9adebab32041f755214dbc6bffa90cc0225b39da2e5c2d3b90600090a250565b60606110648383604051806060016040528060278152602001614cc8602791396060600080856001600160a01b0316856040516142f391906149e8565b600060405180830381855af49150503d806000811461432e576040519150601f19603f3d011682016040523d82523d6000602084013e614333565b606091505b50915091506143448683838761434e565b9695505050505050565b606083156143ba5782516143b3576001600160a01b0385163b6143b35760405162461bcd60e51b815260206004820152601d60248201527f416464726573733a2063616c6c20746f206e6f6e2d636f6e7472616374000000604482015260640161138e565b50816143c4565b6143c483836143cc565b949350505050565b8151156143dc5781518083602001fd5b8060405162461bcd60e51b815260040161138e9190614c94565b828054614402906149ad565b90600052602060002090601f016020900481019282614424576000855561446a565b82601f1061443d57805160ff191683800117855561446a565b8280016001018555821561446a579182015b8281111561446a57825182559160200191906001019061444f565b5061447692915061447a565b5090565b5b80821115614476576000815560010161447b565b60005b838110156144aa578181015183820152602001614492565b838111156132355750506000910152565b600081518084526144d381602086016020860161448f565b601f01601f19169290920160200192915050565b60006020808301818452808551808352604092508286019150828160051b87010184880160005b8381101561458057603f19898403018552815160a08151818652614534828701826144bb565b838b01516001600160a01b03908116888d01528a85015181168b89015260608086015190911690880152608093840151151593909601929092525050938601939086019060010161450e565b509098975050505050505050565b634e487b7160e01b600052604160045260246000fd5b600082601f8301126145b557600080fd5b813567ffffffffffffffff808211156145d0576145d061458e565b604051601f8301601f19908116603f011681019082821181831017156145f8576145f861458e565b8160405283815286602085880101111561461157600080fd5b836020870160208301376000602085830101528094505050505092915050565b60006020828403121561464357600080fd5b813567ffffffffffffffff81111561465a57600080fd5b6143c4848285016145a4565b6001600160a01b038116811461142b57600080fd5b6000806040838503121561468e57600080fd5b823561469981614666565b915060208301356146a981614666565b809150509250929050565b6000602082840312156146c657600080fd5b8135610ba581614666565b600080600080608085870312156146e757600080fd5b843567ffffffffffffffff808211156146ff57600080fd5b61470b888389016145a4565b9550602087013591508082111561472157600080fd5b5061472e878288016145a4565b935050604085013561473f81614666565b9150606085013561474f81614666565b939692955090935050565b6000806040838503121561476d57600080fd5b823561477881614666565b9150602083013567ffffffffffffffff81111561479457600080fd5b6147a0858286016145a4565b9150509250929050565b6000806000606084860312156147bf57600080fd5b833567ffffffffffffffff8111156147d657600080fd5b6147e2868287016145a4565b9660208601359650604090950135949350505050565b6000806040838503121561480b57600080fd5b823567ffffffffffffffff81111561482257600080fd5b61482e858286016145a4565b95602094909401359450505050565b60006020828403121561484f57600080fd5b5035919050565b60a08152600061486960a08301886144bb565b6001600160a01b039687166020840152948616604083015250919093166060820152911515608090920191909152919050565b6000806000606084860312156148b157600080fd5b833567ffffffffffffffff8111156148c857600080fd5b6148d4868287016145a4565b93505060208401356148e581614666565b929592945050506040919091013590565b60008060006060848603121561490b57600080fd5b833561491681614666565b9250602084013561492681614666565b9150604084013561493681614666565b809150509250925092565b801515811461142b57600080fd5b6000806040838503121561496257600080fd5b823561496d81614666565b915060208301356146a981614941565b60008060006060848603121561499257600080fd5b833561499d81614666565b925060208401356148e581614666565b600181811c908216806149c157607f821691505b602082108114156149e257634e487b7160e01b600052602260045260246000fd5b50919050565b600082516149fa81846020870161448f565b9190910192915050565b600060208284031215614a1657600080fd5b5051919050565b634e487b7160e01b600052603260045260246000fd5b634e487b7160e01b600052601160045260246000fd5b6000600019821415614a5d57614a5d614a33565b5060010190565b600060208284031215614a7657600080fd5b8151610ba581614941565b6020808252602c908201527f46756e6374696f6e206d7573742062652063616c6c6564207468726f7567682060408201526b19195b1959d85d1958d85b1b60a21b606082015260800190565b6020808252602c908201527f46756e6374696f6e206d7573742062652063616c6c6564207468726f7567682060408201526b6163746976652070726f787960a01b606082015260800190565b6001600160a01b03831681526040602082018190526000906143c4908301846144bb565b600060208284031215614b4f57600080fd5b8151610ba581614666565b6020808252600e908201526d109bdd5b9d1e481a5cc81119585960921b604082015260600190565b6020808252601190820152702737ba10383937b532b1ba1037bbb732b960791b604082015260600190565b6001600160a01b039384168152919092166020820152604081019190915260600190565b60008060408385031215614be457600080fd5b8251915060208301516146a981614941565b600082821015614c0857614c08614a33565b500390565b60008060408385031215614c2057600080fd5b505080516020909101519092909150565b60008219821115614c4457614c44614a33565b500190565b6020808252602b908201527f496e697469616c697a61626c653a20636f6e7472616374206973206e6f74206960408201526a6e697469616c697a696e6760a81b606082015260800190565b60208152600061106460208301846144bb56fe360894a13ba1a3210667c828492db98dca3e2076cc3735a920a3ca505d382bbc416464726573733a206c6f772d6c6576656c2064656c65676174652063616c6c206661696c6564a26469706673582212201709cf7818e5ce9c869715173768988c1c7e3b7b3b87c16b6fa152a720e7790764736f6c634300080a0033",
    "linkReferences": {}
  },
  "methodIdentifiers": {
    "beacon()": "59659e90",
    "billPremiumForAll()": "27e73542",
    "billPremiumForOnePool(string)": "e6b37f6f",
    "bountiesList(uint256)": "7f2f3e5e",
    "bountyDetails(string)": "d7dc56a5",
    "bountyImplementation()": "cae38faa",
    "claimPremium(string)": "666b7030",
    "deployNewBounty(bytes,string,address,address)": "4c0d9a6c",
    "factory()": "c45a0155",
    "getBountyAddressByName(string)": "66b6c647",
    "initialize(address,address,address)": "c0c53b8b",
    "killBounty(string)": "9ca7e787",
    "owner()": "8da5cb5b",
    "payBounty(string,address,uint256)": "bc160761",
    "projectDeposit(string,uint256)": "f4808fea",
    "projectDepositWithdrawal(string,uint256)": "68dd3dbf",
    "proxiableUUID()": "52d1902d",
    "renounceOwnership()": "715018a6",
    "saloonWallet()": "4389e41a",
    "scheduleProjectDepositWithdrawal(string,uint256)": "b8047881",
    "scheduleUnstake(string,uint256)": "d16ad2f7",
    "setBountyCapAndAPY(string,uint256,uint256)": "58b07d5b",
    "stake(string,uint256)": "9494c8ae",
    "tokenWhitelist(address)": "753d7563",
    "transferOwnership(address)": "f2fde38b",
    "unstake(string,uint256)": "d37c92dc",
    "updateBountyPoolImplementation(address)": "53dce856",
    "updateSaloonWallet(address)": "79f99a89",
    "updateTokenWhitelist(address,bool)": "e5e97c65",
    "upgradeTo(address)": "3659cfe6",
    "upgradeToAndCall(address,bytes)": "4f1ef286",
    "viewAllBountiesByName()": "03c46f51",
    "viewBountyBalance(string)": "05234fda",
    "viewBountyInfo(string)": "943eb4f2",
    "viewBountyOwner(string)": "37787926",
    "viewDesiredAPY(string)": "a667b5d0",
    "viewHackerPayout(string)": "0f0df171",
    "viewHunterTotalTokenPayouts(address,address)": "21580322",
    "viewPoolCap(string)": "3ef0c3ed",
    "viewProjectDeposit(string)": "d3c15cdb",
    "viewSaloonBalance()": "a0d07125",
    "viewTotalEarnedSaloon()": "6c948535",
    "viewTotalHackerPayouts()": "c3149590",
    "viewTotalPremiums()": "e5125d7b",
    "viewTotalSaloonCommission()": "d3326a0a",
    "viewUserStakingBalance(string)": "7dd03e8f",
    "viewstakersDeposit(string)": "b91cdea7",
    "withdrawSaloon(address,address,uint256)": "f0e6b4ed",
    "withdrawSaloonPremiumFees()": "0e060249"
  },
  "id": 28
}