{
  "abi": [
    {
      "anonymous": false,
      "inputs": [
        {
          "indexed": false,
          "internalType": "address",
          "name": "previousAdmin",
          "type": "address"
        },
        {
          "indexed": false,
          "internalType": "address",
          "name": "newAdmin",
          "type": "address"
        }
      ],
      "name": "AdminChanged",
      "type": "event"
    },
    {
      "anonymous": false,
      "inputs": [
        {
          "indexed": true,
          "internalType": "address",
          "name": "beacon",
          "type": "address"
        }
      ],
      "name": "BeaconUpgraded",
      "type": "event"
    },
    {
      "anonymous": false,
      "inputs": [
        {
          "indexed": true,
          "internalType": "string",
          "name": "projectName",
          "type": "string"
        },
        {
          "indexed": true,
          "internalType": "uint256",
          "name": "oldAmount",
          "type": "uint256"
        },
        {
          "indexed": true,
          "internalType": "uint256",
          "name": "newAmount",
          "type": "uint256"
        }
      ],
      "name": "BountyBalanceChanged",
      "type": "event"
    },
    {
      "anonymous": false,
      "inputs": [
        {
          "indexed": true,
          "internalType": "string",
          "name": "projectName",
          "type": "string"
        }
      ],
      "name": "BountyKilled",
      "type": "event"
    },
    {
      "anonymous": false,
      "inputs": [
        {
          "indexed": true,
          "internalType": "uint256",
          "name": "time",
          "type": "uint256"
        },
        {
          "indexed": true,
          "internalType": "address",
          "name": "hunter",
          "type": "address"
        },
        {
          "indexed": true,
          "internalType": "uint256",
          "name": "amount",
          "type": "uint256"
        },
        {
          "indexed": false,
          "internalType": "address",
          "name": "token",
          "type": "address"
        }
      ],
      "name": "BountyPaid",
      "type": "event"
    },
    {
      "anonymous": false,
      "inputs": [
        {
          "indexed": true,
          "internalType": "address",
          "name": "newImplementation",
          "type": "address"
        }
      ],
      "name": "BountyPoolImplementationUpdated",
      "type": "event"
    },
    {
      "anonymous": false,
      "inputs": [
        {
          "indexed": true,
          "internalType": "address",
          "name": "sender",
          "type": "address"
        },
        {
          "indexed": true,
          "internalType": "address",
          "name": "_projectWallet",
          "type": "address"
        },
        {
          "indexed": false,
          "internalType": "contract BountyPool",
          "name": "newProxyAddress",
          "type": "address"
        }
      ],
      "name": "DeployNewBounty",
      "type": "event"
    },
    {
      "anonymous": false,
      "inputs": [
        {
          "indexed": false,
          "internalType": "uint8",
          "name": "version",
          "type": "uint8"
        }
      ],
      "name": "Initialized",
      "type": "event"
    },
    {
      "anonymous": false,
      "inputs": [
        {
          "indexed": true,
          "internalType": "address",
          "name": "previousOwner",
          "type": "address"
        },
        {
          "indexed": true,
          "internalType": "address",
          "name": "newOwner",
          "type": "address"
        }
      ],
      "name": "OwnershipTransferred",
      "type": "event"
    },
    {
      "anonymous": false,
      "inputs": [
        {
          "indexed": true,
          "internalType": "string",
          "name": "projectName",
          "type": "string"
        },
        {
          "indexed": true,
          "internalType": "uint256",
          "name": "poolCap",
          "type": "uint256"
        },
        {
          "indexed": true,
          "internalType": "uint256",
          "name": "apy",
          "type": "uint256"
        }
      ],
      "name": "PoolCapAndAPYChanged",
      "type": "event"
    },
    {
      "anonymous": false,
      "inputs": [
        {
          "indexed": true,
          "internalType": "string",
          "name": "projectName",
          "type": "string"
        },
        {
          "indexed": true,
          "internalType": "address",
          "name": "projectWallet",
          "type": "address"
        }
      ],
      "name": "PremiumBilled",
      "type": "event"
    },
    {
      "anonymous": false,
      "inputs": [
        {
          "indexed": true,
          "internalType": "address",
          "name": "token",
          "type": "address"
        },
        {
          "indexed": true,
          "internalType": "uint256",
          "name": "amount",
          "type": "uint256"
        }
      ],
      "name": "SaloonFundsWithdrawal",
      "type": "event"
    },
    {
      "anonymous": false,
      "inputs": [
        {
          "indexed": true,
          "internalType": "uint256",
          "name": "totalCollected",
          "type": "uint256"
        }
      ],
      "name": "SaloonPremiumCollected",
      "type": "event"
    },
    {
      "anonymous": false,
      "inputs": [
        {
          "indexed": true,
          "internalType": "string",
          "name": "projectName",
          "type": "string"
        },
        {
          "indexed": true,
          "internalType": "uint256",
          "name": "previousStaked",
          "type": "uint256"
        },
        {
          "indexed": true,
          "internalType": "uint256",
          "name": "newStaked",
          "type": "uint256"
        }
      ],
      "name": "StakedAmountChanged",
      "type": "event"
    },
    {
      "anonymous": false,
      "inputs": [
        {
          "indexed": true,
          "internalType": "address",
          "name": "implementation",
          "type": "address"
        }
      ],
      "name": "Upgraded",
      "type": "event"
    },
    {
      "anonymous": false,
      "inputs": [
        {
          "indexed": true,
          "internalType": "string",
          "name": "projectName",
          "type": "string"
        },
        {
          "indexed": true,
          "internalType": "uint256",
          "name": "amount",
          "type": "uint256"
        }
      ],
      "name": "WithdrawalorUnstakeScheduled",
      "type": "event"
    },
    {
      "anonymous": false,
      "inputs": [
        {
          "indexed": true,
          "internalType": "address",
          "name": "token",
          "type": "address"
        },
        {
          "indexed": true,
          "internalType": "bool",
          "name": "whitelisted",
          "type": "bool"
        }
      ],
      "name": "tokenWhitelistUpdated",
      "type": "event"
    },
    {
      "inputs": [],
      "name": "beacon",
      "outputs": [
        {
          "internalType": "contract UpgradeableBeacon",
          "name": "",
          "type": "address"
        }
      ],
      "stateMutability": "view",
      "type": "function"
    },
    {
      "inputs": [],
      "name": "billPremiumForAll",
      "outputs": [
        {
          "internalType": "bool",
          "name": "",
          "type": "bool"
        }
      ],
      "stateMutability": "nonpayable",
      "type": "function"
    },
    {
      "inputs": [
        {
          "internalType": "string",
          "name": "_projectName",
          "type": "string"
        }
      ],
      "name": "billPremiumForOnePool",
      "outputs": [
        {
          "internalType": "bool",
          "name": "",
          "type": "bool"
        }
      ],
      "stateMutability": "nonpayable",
      "type": "function"
    },
    {
      "inputs": [
        {
          "internalType": "uint256",
          "name": "",
          "type": "uint256"
        }
      ],
      "name": "bountiesList",
      "outputs": [
        {
          "internalType": "string",
          "name": "projectName",
          "type": "string"
        },
        {
          "internalType": "address",
          "name": "projectWallet",
          "type": "address"
        },
        {
          "internalType": "contract BountyPool",
          "name": "proxyAddress",
          "type": "address"
        },
        {
          "internalType": "address",
          "name": "token",
          "type": "address"
        },
        {
          "internalType": "bool",
          "name": "dead",
          "type": "bool"
        }
      ],
      "stateMutability": "view",
      "type": "function"
    },
    {
      "inputs": [
        {
          "internalType": "string",
          "name": "",
          "type": "string"
        }
      ],
      "name": "bountyDetails",
      "outputs": [
        {
          "internalType": "string",
          "name": "projectName",
          "type": "string"
        },
        {
          "internalType": "address",
          "name": "projectWallet",
          "type": "address"
        },
        {
          "internalType": "contract BountyPool",
          "name": "proxyAddress",
          "type": "address"
        },
        {
          "internalType": "address",
          "name": "token",
          "type": "address"
        },
        {
          "internalType": "bool",
          "name": "dead",
          "type": "bool"
        }
      ],
      "stateMutability": "view",
      "type": "function"
    },
    {
      "inputs": [],
      "name": "bountyImplementation",
      "outputs": [
        {
          "internalType": "address",
          "name": "",
          "type": "address"
        }
      ],
      "stateMutability": "view",
      "type": "function"
    },
    {
      "inputs": [
        {
          "internalType": "string",
          "name": "_projectName",
          "type": "string"
        }
      ],
      "name": "claimPremium",
      "outputs": [
        {
          "internalType": "uint256",
          "name": "",
          "type": "uint256"
        }
      ],
      "stateMutability": "nonpayable",
      "type": "function"
    },
    {
      "inputs": [
        {
          "internalType": "bytes",
          "name": "_data",
          "type": "bytes"
        },
        {
          "internalType": "string",
          "name": "_projectName",
          "type": "string"
        },
        {
          "internalType": "address",
          "name": "_token",
          "type": "address"
        },
        {
          "internalType": "address",
          "name": "_projectWallet",
          "type": "address"
        }
      ],
      "name": "deployNewBounty",
      "outputs": [
        {
          "internalType": "contract BountyPool",
          "name": "",
          "type": "address"
        },
        {
          "internalType": "bool",
          "name": "",
          "type": "bool"
        }
      ],
      "stateMutability": "nonpayable",
      "type": "function"
    },
    {
      "inputs": [],
      "name": "factory",
      "outputs": [
        {
          "internalType": "contract BountyProxyFactory",
          "name": "",
          "type": "address"
        }
      ],
      "stateMutability": "view",
      "type": "function"
    },
    {
      "inputs": [
        {
          "internalType": "string",
          "name": "_projectName",
          "type": "string"
        }
      ],
      "name": "getBountyAddressByName",
      "outputs": [
        {
          "internalType": "address",
          "name": "",
          "type": "address"
        }
      ],
      "stateMutability": "view",
      "type": "function"
    },
    {
      "inputs": [
        {
          "internalType": "contract BountyProxyFactory",
          "name": "_factory",
          "type": "address"
        },
        {
          "internalType": "contract UpgradeableBeacon",
          "name": "_beacon",
          "type": "address"
        },
        {
          "internalType": "address",
          "name": "_bountyImplementation",
          "type": "address"
        }
      ],
      "name": "initialize",
      "outputs": [],
      "stateMutability": "nonpayable",
      "type": "function"
    },
    {
      "inputs": [
        {
          "internalType": "string",
          "name": "_projectName",
          "type": "string"
        }
      ],
      "name": "killBounty",
      "outputs": [
        {
          "internalType": "bool",
          "name": "",
          "type": "bool"
        }
      ],
      "stateMutability": "nonpayable",
      "type": "function"
    },
    {
      "inputs": [],
      "name": "owner",
      "outputs": [
        {
          "internalType": "address",
          "name": "",
          "type": "address"
        }
      ],
      "stateMutability": "view",
      "type": "function"
    },
    {
      "inputs": [
        {
          "internalType": "string",
          "name": "_projectName",
          "type": "string"
        },
        {
          "internalType": "address",
          "name": "_hunter",
          "type": "address"
        },
        {
          "internalType": "uint256",
          "name": "_amount",
          "type": "uint256"
        }
      ],
      "name": "payBounty",
      "outputs": [
        {
          "internalType": "bool",
          "name": "",
          "type": "bool"
        }
      ],
      "stateMutability": "nonpayable",
      "type": "function"
    },
    {
      "inputs": [
        {
          "internalType": "string",
          "name": "_projectName",
          "type": "string"
        },
        {
          "internalType": "uint256",
          "name": "_amount",
          "type": "uint256"
        }
      ],
      "name": "projectDeposit",
      "outputs": [
        {
          "internalType": "bool",
          "name": "",
          "type": "bool"
        }
      ],
      "stateMutability": "nonpayable",
      "type": "function"
    },
    {
      "inputs": [
        {
          "internalType": "string",
          "name": "_projectName",
          "type": "string"
        },
        {
          "internalType": "uint256",
          "name": "_amount",
          "type": "uint256"
        }
      ],
      "name": "projectDepositWithdrawal",
      "outputs": [
        {
          "internalType": "bool",
          "name": "",
          "type": "bool"
        }
      ],
      "stateMutability": "nonpayable",
      "type": "function"
    },
    {
      "inputs": [],
      "name": "proxiableUUID",
      "outputs": [
        {
          "internalType": "bytes32",
          "name": "",
          "type": "bytes32"
        }
      ],
      "stateMutability": "view",
      "type": "function"
    },
    {
      "inputs": [],
      "name": "renounceOwnership",
      "outputs": [],
      "stateMutability": "nonpayable",
      "type": "function"
    },
    {
      "inputs": [],
      "name": "saloonWallet",
      "outputs": [
        {
          "internalType": "contract SaloonWallet",
          "name": "",
          "type": "address"
        }
      ],
      "stateMutability": "view",
      "type": "function"
    },
    {
      "inputs": [
        {
          "internalType": "string",
          "name": "_projectName",
          "type": "string"
        },
        {
          "internalType": "uint256",
          "name": "_amount",
          "type": "uint256"
        }
      ],
      "name": "scheduleProjectDepositWithdrawal",
      "outputs": [
        {
          "internalType": "bool",
          "name": "",
          "type": "bool"
        }
      ],
      "stateMutability": "nonpayable",
      "type": "function"
    },
    {
      "inputs": [
        {
          "internalType": "string",
          "name": "_projectName",
          "type": "string"
        },
        {
          "internalType": "uint256",
          "name": "_amount",
          "type": "uint256"
        }
      ],
      "name": "scheduleUnstake",
      "outputs": [
        {
          "internalType": "bool",
          "name": "",
          "type": "bool"
        }
      ],
      "stateMutability": "nonpayable",
      "type": "function"
    },
    {
      "inputs": [
        {
          "internalType": "string",
          "name": "_projectName",
          "type": "string"
        },
        {
          "internalType": "uint256",
          "name": "_poolCap",
          "type": "uint256"
        },
        {
          "internalType": "uint256",
          "name": "_desiredAPY",
          "type": "uint256"
        }
      ],
      "name": "setBountyCapAndAPY",
      "outputs": [
        {
          "internalType": "bool",
          "name": "",
          "type": "bool"
        }
      ],
      "stateMutability": "nonpayable",
      "type": "function"
    },
    {
      "inputs": [
        {
          "internalType": "string",
          "name": "_projectName",
          "type": "string"
        },
        {
          "internalType": "uint256",
          "name": "_amount",
          "type": "uint256"
        }
      ],
      "name": "stake",
      "outputs": [
        {
          "internalType": "bool",
          "name": "",
          "type": "bool"
        }
      ],
      "stateMutability": "nonpayable",
      "type": "function"
    },
    {
      "inputs": [
        {
          "internalType": "address",
          "name": "",
          "type": "address"
        }
      ],
      "name": "tokenWhitelist",
      "outputs": [
        {
          "internalType": "bool",
          "name": "",
          "type": "bool"
        }
      ],
      "stateMutability": "view",
      "type": "function"
    },
    {
      "inputs": [
        {
          "internalType": "address",
          "name": "newOwner",
          "type": "address"
        }
      ],
      "name": "transferOwnership",
      "outputs": [],
      "stateMutability": "nonpayable",
      "type": "function"
    },
    {
      "inputs": [
        {
          "internalType": "string",
          "name": "_projectName",
          "type": "string"
        },
        {
          "internalType": "uint256",
          "name": "_amount",
          "type": "uint256"
        }
      ],
      "name": "unstake",
      "outputs": [
        {
          "internalType": "bool",
          "name": "",
          "type": "bool"
        }
      ],
      "stateMutability": "nonpayable",
      "type": "function"
    },
    {
      "inputs": [
        {
          "internalType": "address",
          "name": "_newImplementation",
          "type": "address"
        }
      ],
      "name": "updateBountyPoolImplementation",
      "outputs": [
        {
          "internalType": "bool",
          "name": "",
          "type": "bool"
        }
      ],
      "stateMutability": "nonpayable",
      "type": "function"
    },
    {
      "inputs": [
        {
          "internalType": "address",
          "name": "_newWallet",
          "type": "address"
        }
      ],
      "name": "updateSaloonWallet",
      "outputs": [],
      "stateMutability": "nonpayable",
      "type": "function"
    },
    {
      "inputs": [
        {
          "internalType": "address",
          "name": "_token",
          "type": "address"
        },
        {
          "internalType": "bool",
          "name": "_whitelisted",
          "type": "bool"
        }
      ],
      "name": "updateTokenWhitelist",
      "outputs": [
        {
          "internalType": "bool",
          "name": "",
          "type": "bool"
        }
      ],
      "stateMutability": "nonpayable",
      "type": "function"
    },
    {
      "inputs": [
        {
          "internalType": "address",
          "name": "newImplementation",
          "type": "address"
        }
      ],
      "name": "upgradeTo",
      "outputs": [],
      "stateMutability": "nonpayable",
      "type": "function"
    },
    {
      "inputs": [
        {
          "internalType": "address",
          "name": "newImplementation",
          "type": "address"
        },
        {
          "internalType": "bytes",
          "name": "data",
          "type": "bytes"
        }
      ],
      "name": "upgradeToAndCall",
      "outputs": [],
      "stateMutability": "payable",
      "type": "function"
    },
    {
      "inputs": [],
      "name": "viewAllBountiesByName",
      "outputs": [
        {
          "components": [
            {
              "internalType": "string",
              "name": "projectName",
              "type": "string"
            },
            {
              "internalType": "address",
              "name": "projectWallet",
              "type": "address"
            },
            {
              "internalType": "contract BountyPool",
              "name": "proxyAddress",
              "type": "address"
            },
            {
              "internalType": "address",
              "name": "token",
              "type": "address"
            },
            {
              "internalType": "bool",
              "name": "dead",
              "type": "bool"
            }
          ],
          "internalType": "struct BountyProxiesManager.Bounties[]",
          "name": "",
          "type": "tuple[]"
        }
      ],
      "stateMutability": "view",
      "type": "function"
    },
    {
      "inputs": [
        {
          "internalType": "string",
          "name": "_projectName",
          "type": "string"
        }
      ],
      "name": "viewBountyBalance",
      "outputs": [
        {
          "internalType": "uint256",
          "name": "",
          "type": "uint256"
        }
      ],
      "stateMutability": "view",
      "type": "function"
    },
    {
      "inputs": [
        {
          "internalType": "string",
          "name": "_projectName",
          "type": "string"
        }
      ],
      "name": "viewBountyInfo",
      "outputs": [
        {
          "internalType": "uint256",
          "name": "payout",
          "type": "uint256"
        },
        {
          "internalType": "uint256",
          "name": "apy",
          "type": "uint256"
        },
        {
          "internalType": "uint256",
          "name": "staked",
          "type": "uint256"
        },
        {
          "internalType": "uint256",
          "name": "poolCap",
          "type": "uint256"
        }
      ],
      "stateMutability": "view",
      "type": "function"
    },
    {
      "inputs": [
        {
          "internalType": "string",
          "name": "_projectName",
          "type": "string"
        }
      ],
      "name": "viewBountyOwner",
      "outputs": [
        {
          "internalType": "address",
          "name": "",
          "type": "address"
        }
      ],
      "stateMutability": "view",
      "type": "function"
    },
    {
      "inputs": [
        {
          "internalType": "string",
          "name": "_projectName",
          "type": "string"
        }
      ],
      "name": "viewDesiredAPY",
      "outputs": [
        {
          "internalType": "uint256",
          "name": "",
          "type": "uint256"
        }
      ],
      "stateMutability": "view",
      "type": "function"
    },
    {
      "inputs": [
        {
          "internalType": "string",
          "name": "_projectName",
          "type": "string"
        }
      ],
      "name": "viewHackerPayout",
      "outputs": [
        {
          "internalType": "uint256",
          "name": "",
          "type": "uint256"
        }
      ],
      "stateMutability": "view",
      "type": "function"
    },
    {
      "inputs": [
        {
          "internalType": "address",
          "name": "_token",
          "type": "address"
        },
        {
          "internalType": "address",
          "name": "_hunter",
          "type": "address"
        }
      ],
      "name": "viewHunterTotalTokenPayouts",
      "outputs": [
        {
          "internalType": "uint256",
          "name": "",
          "type": "uint256"
        }
      ],
      "stateMutability": "view",
      "type": "function"
    },
    {
      "inputs": [
        {
          "internalType": "string",
          "name": "_projectName",
          "type": "string"
        }
      ],
      "name": "viewPoolCap",
      "outputs": [
        {
          "internalType": "uint256",
          "name": "",
          "type": "uint256"
        }
      ],
      "stateMutability": "view",
      "type": "function"
    },
    {
      "inputs": [
        {
          "internalType": "string",
          "name": "_projectName",
          "type": "string"
        }
      ],
      "name": "viewProjectDeposit",
      "outputs": [
        {
          "internalType": "uint256",
          "name": "",
          "type": "uint256"
        }
      ],
      "stateMutability": "view",
      "type": "function"
    },
    {
      "inputs": [],
      "name": "viewSaloonBalance",
      "outputs": [
        {
          "internalType": "uint256",
          "name": "",
          "type": "uint256"
        }
      ],
      "stateMutability": "view",
      "type": "function"
    },
    {
      "inputs": [],
      "name": "viewTotalEarnedSaloon",
      "outputs": [
        {
          "internalType": "uint256",
          "name": "",
          "type": "uint256"
        }
      ],
      "stateMutability": "view",
      "type": "function"
    },
    {
      "inputs": [],
      "name": "viewTotalHackerPayouts",
      "outputs": [
        {
          "internalType": "uint256",
          "name": "",
          "type": "uint256"
        }
      ],
      "stateMutability": "view",
      "type": "function"
    },
    {
      "inputs": [],
      "name": "viewTotalPremiums",
      "outputs": [
        {
          "internalType": "uint256",
          "name": "",
          "type": "uint256"
        }
      ],
      "stateMutability": "view",
      "type": "function"
    },
    {
      "inputs": [],
      "name": "viewTotalSaloonCommission",
      "outputs": [
        {
          "internalType": "uint256",
          "name": "",
          "type": "uint256"
        }
      ],
      "stateMutability": "view",
      "type": "function"
    },
    {
      "inputs": [
        {
          "internalType": "string",
          "name": "_projectName",
          "type": "string"
        },
        {
          "internalType": "address",
          "name": "_staker",
          "type": "address"
        }
      ],
      "name": "viewUserStakingBalance",
      "outputs": [
        {
          "internalType": "uint256",
          "name": "",
          "type": "uint256"
        }
      ],
      "stateMutability": "view",
      "type": "function"
    },
    {
      "inputs": [
        {
          "internalType": "string",
          "name": "_projectName",
          "type": "string"
        },
        {
          "internalType": "address",
          "name": "_staker",
          "type": "address"
        }
      ],
      "name": "viewUserTimelock",
      "outputs": [
        {
          "internalType": "uint256",
          "name": "timelock",
          "type": "uint256"
        },
        {
          "internalType": "uint256",
          "name": "amount",
          "type": "uint256"
        },
        {
          "internalType": "bool",
          "name": "executed",
          "type": "bool"
        }
      ],
      "stateMutability": "view",
      "type": "function"
    },
    {
      "inputs": [
        {
          "internalType": "string",
          "name": "_projectName",
          "type": "string"
        }
      ],
      "name": "viewstakersDeposit",
      "outputs": [
        {
          "internalType": "uint256",
          "name": "",
          "type": "uint256"
        }
      ],
      "stateMutability": "view",
      "type": "function"
    },
    {
      "inputs": [
        {
          "internalType": "address",
          "name": "_token",
          "type": "address"
        },
        {
          "internalType": "address",
          "name": "_to",
          "type": "address"
        },
        {
          "internalType": "uint256",
          "name": "_amount",
          "type": "uint256"
        }
      ],
      "name": "withdrawSaloon",
      "outputs": [
        {
          "internalType": "bool",
          "name": "",
          "type": "bool"
        }
      ],
      "stateMutability": "nonpayable",
      "type": "function"
    },
    {
      "inputs": [],
      "name": "withdrawSaloonPremiumFees",
      "outputs": [
        {
          "internalType": "bool",
          "name": "",
          "type": "bool"
        }
      ],
      "stateMutability": "nonpayable",
      "type": "function"
    }
  ],
  "bytecode": {
    "object": "0x60a06040523060805234801561001457600080fd5b5060805161519661004c600039600081816115e60152818161162f01528181611c0301528181611c430152611cd601526151966000f3fe6080604052600436106102c95760003560e01c80638da5cb5b11610175578063c8191c54116100dc578063d7dc56a511610095578063e6b37f6f1161006f578063e6b37f6f146108dc578063f0e6b4ed146108fc578063f2fde38b1461091c578063f4808fea1461093c57600080fd5b8063d7dc56a514610887578063e5125d7b146108a7578063e5e97c65146108bc57600080fd5b8063c8191c54146107b5578063cae38faa146107f2578063d16ad2f714610812578063d3326a0a14610832578063d37c92dc14610847578063d3c15cdb1461086757600080fd5b8063b80478811161012e578063b804788114610700578063b91cdea714610720578063bc16076114610740578063c0c53b8b14610760578063c314959014610780578063c45a01551461079557600080fd5b80638da5cb5b1461062d578063943eb4f21461064b5780639494c8ae1461068b5780639ca7e787146106ab578063a0d07125146106cb578063a667b5d0146106e057600080fd5b80634f1ef2861161023457806366b6c647116101ed578063715018a6116101c7578063715018a614610597578063753d7563146105ac57806379f99a89146105dc5780637f2f3e5e146105fc57600080fd5b806366b6c6471461054257806368dd3dbf146105625780636c9485351461058257600080fd5b80634f1ef2861461049a57806352d1902d146104ad57806353dce856146104c257806358b07d5b146104e257806359659e9014610502578063666b70301461052257600080fd5b806327e735421161028657806327e73542146103ac5780633659cfe6146103c157806337787926146103e35780633ef0c3ed1461041b5780634389e41a1461043b5780634c0d9a6c1461045b57600080fd5b806303c46f51146102ce57806305234fda146102f95780630e060249146103275780630f0df1711461034c57806315daef491461036c578063215803221461038c575b600080fd5b3480156102da57600080fd5b506102e361095c565b6040516102f091906148e4565b60405180910390f35b34801561030557600080fd5b50610319610314366004614a2e565b610a92565b6040519081526020016102f0565b34801561033357600080fd5b5061033c610c04565b60405190151581526020016102f0565b34801561035857600080fd5b50610319610367366004614a2e565b610f29565b34801561037857600080fd5b50610319610387366004614a78565b611070565b34801561039857600080fd5b506103196103a7366004614aca565b6111eb565b3480156103b857600080fd5b5061033c61123e565b3480156103cd57600080fd5b506103e16103dc366004614af8565b6115db565b005b3480156103ef57600080fd5b506104036103fe366004614a2e565b6116c4565b6040516001600160a01b0390911681526020016102f0565b34801561042757600080fd5b50610319610436366004614a2e565b6116f8565b34801561044757600080fd5b50606854610403906001600160a01b031681565b34801561046757600080fd5b5061047b610476366004614b15565b611842565b604080516001600160a01b0390931683529015156020830152016102f0565b6103e16104a8366004614b9e565b611bf8565b3480156104b957600080fd5b50610319611cc9565b3480156104ce57600080fd5b5061033c6104dd366004614af8565b611d7c565b3480156104ee57600080fd5b5061033c6104fd366004614bee565b611e66565b34801561050e57600080fd5b50606654610403906001600160a01b031681565b34801561052e57600080fd5b5061031961053d366004614a2e565b6120f9565b34801561054e57600080fd5b5061040361055d366004614a2e565b6122bc565b34801561056e57600080fd5b5061033c61057d366004614c3c565b6122f0565b34801561058e57600080fd5b50610319612598565b3480156105a357600080fd5b506103e161260b565b3480156105b857600080fd5b5061033c6105c7366004614af8565b606b6020526000908152604090205460ff1681565b3480156105e857600080fd5b506103e16105f7366004614af8565b61261f565b34801561060857600080fd5b5061061c610617366004614c81565b612696565b6040516102f0959493929190614c9a565b34801561063957600080fd5b506033546001600160a01b0316610403565b34801561065757600080fd5b5061066b610666366004614a2e565b61277a565b6040805194855260208501939093529183015260608201526080016102f0565b34801561069757600080fd5b5061033c6106a6366004614c3c565b6127b3565b3480156106b757600080fd5b5061033c6106c6366004614a2e565b612adc565b3480156106d757600080fd5b50610319612b68565b3480156106ec57600080fd5b506103196106fb366004614a2e565b612bb2565b34801561070c57600080fd5b5061033c61071b366004614c3c565b612cf9565b34801561072c57600080fd5b5061031961073b366004614a2e565b612f1c565b34801561074c57600080fd5b5061033c61075b366004614ce0565b613063565b34801561076c57600080fd5b506103e161077b366004614d3a565b6132e9565b34801561078c57600080fd5b5061031961343a565b3480156107a157600080fd5b50606554610403906001600160a01b031681565b3480156107c157600080fd5b506107d56107d0366004614a78565b613484565b6040805193845260208401929092521515908201526060016102f0565b3480156107fe57600080fd5b50606754610403906001600160a01b031681565b34801561081e57600080fd5b5061033c61082d366004614c3c565b613602565b34801561083e57600080fd5b506103196137fd565b34801561085357600080fd5b5061033c610862366004614c3c565b613847565b34801561087357600080fd5b50610319610882366004614a2e565b613b7d565b34801561089357600080fd5b5061061c6108a2366004614a2e565b613cc4565b3480156108b357600080fd5b50610319613cea565b3480156108c857600080fd5b5061033c6108d7366004614d93565b613d34565b3480156108e857600080fd5b5061033c6108f7366004614a2e565b613d97565b34801561090857600080fd5b5061033c610917366004614dc1565b613f98565b34801561092857600080fd5b506103e1610937366004614af8565b61409f565b34801561094857600080fd5b5061033c610957366004614c3c565b614115565b60606069805480602002602001604051908101604052809291908181526020016000905b82821015610a8957838290600052602060002090600402016040518060a00160405290816000820180546109b390614df1565b80601f01602080910402602001604051908101604052809291908181526020018280546109df90614df1565b8015610a2c5780601f10610a0157610100808354040283529160200191610a2c565b820191906000526020600020905b815481529060010190602001808311610a0f57829003601f168201915b50505091835250506001828101546001600160a01b039081166020808501919091526002850154821660408501526003909401549081166060840152600160a01b900460ff16151560809092019190915291835292019101610980565b50505050905090565b600080606a83604051610aa59190614e2c565b90815260200160405180910390206040518060a0016040529081600082018054610ace90614df1565b80601f0160208091040260200160405190810160405280929190818152602001828054610afa90614df1565b8015610b475780601f10610b1c57610100808354040283529160200191610b47565b820191906000526020600020905b815481529060010190602001808311610b2a57829003601f168201915b505050918352505060018201546001600160a01b03908116602080840191909152600284015482166040808501919091526003909401548083166060850152600160a01b900460ff161515608090930192909252838301518351637228407360e11b81529351949550169263e45080e69260048082019392918290030181865afa158015610bd9573d6000803e3d6000fd5b505050506040513d601f19601f82011682018060405250810190610bfd9190614e48565b9392505050565b6000610c0e61431f565b60006069805480602002602001604051908101604052809291908181526020016000905b82821015610d3b57838290600052602060002090600402016040518060a0016040529081600082018054610c6590614df1565b80601f0160208091040260200160405190810160405280929190818152602001828054610c9190614df1565b8015610cde5780601f10610cb357610100808354040283529160200191610cde565b820191906000526020600020905b815481529060010190602001808311610cc157829003601f168201915b50505091835250506001828101546001600160a01b039081166020808501919091526002850154821660408501526003909401549081166060840152600160a01b900460ff16151560809092019190915291835292019101610c32565b5050505090506000815190506000805b82811015610ef357610d79848281518110610d6857610d68614e61565b602002602001015160800151614379565b610d8257610ee3565b6000848281518110610d9657610d96614e61565b6020026020010151604001516001600160a01b0316635121ac9d868481518110610dc257610dc2614e61565b60209081029190910101516060015160685460405160e084901b6001600160e01b03191681526001600160a01b039283166004820152911660248201526044016020604051808303816000875af1158015610e21573d6000803e3d6000fd5b505050506040513d601f19601f82011682018060405250810190610e459190614e48565b60685486519192506001600160a01b0316906383ab930490879085908110610e6f57610e6f614e61565b602002602001015160600151836040518363ffffffff1660e01b8152600401610ead9291906001600160a01b03929092168252602082015260400190565b600060405180830381600087803b158015610ec757600080fd5b505af1158015610edb573d6000803e3d6000fd5b509294505050505b610eec81614e8d565b9050610d4b565b5060405181907ff61dcc40e5f2c6bc5b24cb6f24690965e673c4c563bbf94cbbdaff36bffde00b90600090a26001935050505090565b600080606a83604051610f3c9190614e2c565b90815260200160405180910390206040518060a0016040529081600082018054610f6590614df1565b80601f0160208091040260200160405190810160405280929190818152602001828054610f9190614df1565b8015610fde5780601f10610fb357610100808354040283529160200191610fde565b820191906000526020600020905b815481529060010190602001808311610fc157829003601f168201915b505050918352505060018201546001600160a01b03908116602080840191909152600284015482166040808501919091526003909401548083166060850152600160a01b900460ff161515608090930192909252838301518351634a94bcb360e01b815293519495501692634a94bcb39260048082019392918290030181865afa158015610bd9573d6000803e3d6000fd5b600080606a846040516110839190614e2c565b90815260200160405180910390206040518060a00160405290816000820180546110ac90614df1565b80601f01602080910402602001604051908101604052809291908181526020018280546110d890614df1565b80156111255780601f106110fa57610100808354040283529160200191611125565b820191906000526020600020905b81548152906001019060200180831161110857829003601f168201915b505050918352505060018201546001600160a01b039081166020830152600283015481166040808401919091526003909301548082166060840152600160a01b900460ff161515608090920191909152828201519151631a89cabd60e01b81528682166004820152929350600092911690631a89cabd906024016040805180830381865afa1580156111bb573d6000803e3d6000fd5b505050506040513d601f19601f820116820180604052508101906111df9190614ea8565b50925050505b92915050565b6068546040516310ac019160e11b81526001600160a01b03848116600483015283811660248301526000921690632158032290604401602060405180830381865afa158015610bd9573d6000803e3d6000fd5b6000806069805480602002602001604051908101604052809291908181526020016000905b8282101561136c57838290600052602060002090600402016040518060a001604052908160008201805461129690614df1565b80601f01602080910402602001604051908101604052809291908181526020018280546112c290614df1565b801561130f5780601f106112e45761010080835404028352916020019161130f565b820191906000526020600020905b8154815290600101906020018083116112f257829003601f168201915b50505091835250506001828101546001600160a01b039081166020808501919091526002850154821660408501526003909401549081166060840152600160a01b900460ff16151560809092019190915291835292019101611263565b5050825192935060009150505b818110156115d157611396838281518110610d6857610d68614e61565b61139f576115c1565b8281815181106113b1576113b1614e61565b6020026020010151604001516001600160a01b0316638aa82e828483815181106113dd576113dd614e61565b6020026020010151606001518584815181106113fb576113fb614e61565b6020026020010151602001516040518363ffffffff1660e01b81526004016114399291906001600160a01b0392831681529116602082015260400190565b6020604051808303816000875af1158015611458573d6000803e3d6000fd5b505050506040513d601f19601f8201168201806040525081019061147c9190614ecc565b15156001141561150d5782818151811061149857611498614e61565b6020026020010151602001516001600160a01b03168382815181106114bf576114bf614e61565b6020026020010151600001516040516114d89190614e2c565b604051908190038120907fd5d2d05dfe0d10d196c53d6f16e6d70e4dbb9cb77fe8682f6c68e9426c29103090600090a36115c1565b600061153584838151811061152457611524614e61565b602002602001015160000151612bb2565b9050600061155f85848151811061154e5761154e614e61565b6020026020010151600001516116f8565b9050818186858151811061157557611575614e61565b60200260200101516000015160405161158e9190614e2c565b604051908190038120907f5d9beb4943b1823a8d5ffbc059a5d64cf367d9b7aaee9e28a697b842779957d890600090a450505b6115ca81614e8d565b9050611379565b5060019250505090565b306001600160a01b037f000000000000000000000000000000000000000000000000000000000000000016141561162d5760405162461bcd60e51b815260040161162490614ee9565b60405180910390fd5b7f00000000000000000000000000000000000000000000000000000000000000006001600160a01b031661167660008051602061511a833981519152546001600160a01b031690565b6001600160a01b03161461169c5760405162461bcd60e51b815260040161162490614f35565b6116a581614389565b604080516000808252602082019092526116c191839190614391565b50565b6000606a826040516116d69190614e2c565b908152604051908190036020019020600101546001600160a01b031692915050565b600080606a8360405161170b9190614e2c565b90815260200160405180910390206040518060a001604052908160008201805461173490614df1565b80601f016020809104026020016040519081016040528092919081815260200182805461176090614df1565b80156117ad5780601f10611782576101008083540402835291602001916117ad565b820191906000526020600020905b81548152906001019060200180831161179057829003601f168201915b505050918352505060018201546001600160a01b03908116602080840191909152600284015482166040808501919091526003909401548083166060850152600160a01b900460ff16151560809093019290925283830151835160016202e8ad60e61b031981529351949550169263ff45d4c09260048082019392918290030181865afa158015610bd9573d6000803e3d6000fd5b60008061184d61431f565b60006001600160a01b0316606a866040516118689190614e2c565b908152604051908190036020019020600201546001600160a01b0316146118d15760405162461bcd60e51b815260206004820152601a60248201527f50726f6a65637420616c72656164792068617320626f756e74790000000000006044820152606401611624565b6001600160a01b0384166000908152606b602052604090205460ff1615156001146119335760405162461bcd60e51b8152602060048201526012602482015271151bdad95b881b9bdd08185c1c1c9bdd995960721b6044820152606401611624565b6040805160a0810182526000818301819052608082018190528782526001600160a01b038681166020840152878116606084015260655460665494516336d9881760e01b815293949293908216926336d9881792611998929116908c90600401614f81565b6020604051808303816000875af11580156119b7573d6000803e3d6000fd5b505050506040513d601f19601f820116820180604052508101906119db9190614fa5565b604051634b8e0d3760e01b81523060048201529091506001600160a01b03821690634b8e0d3790602401600060405180830381600087803b158015611a1f57600080fd5b505af1158015611a33573d6000803e3d6000fd5b5050506001600160a01b038216604084015250606980546001810182556000919091528251805184926004027f7fb4302e8e91f9110a6554c2c0a24601252c2a42c2220ca988efcfe3999143080191611a91918391602001906147f3565b5060208201516001820180546001600160a01b039283166001600160a01b03199182161790915560408085015160028501805491851691909316179091556060840151600390930180546080909501511515600160a01b026001600160a81b0319909516939092169290921792909217909155518290606a90611b15908a90614e2c565b90815260200160405180910390206000820151816000019080519060200190611b3f9291906147f3565b506020828101516001830180546001600160a01b039283166001600160a01b03199182161790915560408086015160028601805491851691909316179091556060850151600390940180546080909601511515600160a01b026001600160a81b03199096169483169490941794909417909255915183821681529087169133917fa397122091ddbad4417c188353200f86978770ea6a146a5860667b1ef760917c910160405180910390a3976001975095505050505050565b306001600160a01b037f0000000000000000000000000000000000000000000000000000000000000000161415611c415760405162461bcd60e51b815260040161162490614ee9565b7f00000000000000000000000000000000000000000000000000000000000000006001600160a01b0316611c8a60008051602061511a833981519152546001600160a01b031690565b6001600160a01b031614611cb05760405162461bcd60e51b815260040161162490614f35565b611cb982614389565b611cc582826001614391565b5050565b6000306001600160a01b037f00000000000000000000000000000000000000000000000000000000000000001614611d695760405162461bcd60e51b815260206004820152603860248201527f555550535570677261646561626c653a206d757374206e6f742062652063616c60448201527f6c6564207468726f7567682064656c656761746563616c6c00000000000000006064820152608401611624565b5060008051602061511a83398151915290565b6000611d8661431f565b6001600160a01b038216611dcb5760405162461bcd60e51b815260206004820152600c60248201526b41646472657373207a65726f60a01b6044820152606401611624565b606654604051631b2ce7f360e11b81526001600160a01b03848116600483015290911690633659cfe690602401600060405180830381600087803b158015611e1257600080fd5b505af1158015611e26573d6000803e3d6000fd5b50506040516001600160a01b03851692507f8351bb7d88cde824de55ae548c81488c9bea6ad24cafb7644e7df7ac0cfcb46c9150600090a2506001919050565b600080606a85604051611e799190614e2c565b90815260200160405180910390206040518060a0016040529081600082018054611ea290614df1565b80601f0160208091040260200160405190810160405280929190818152602001828054611ece90614df1565b8015611f1b5780601f10611ef057610100808354040283529160200191611f1b565b820191906000526020600020905b815481529060010190602001808311611efe57829003601f168201915b505050918352505060018201546001600160a01b0390811660208301526002830154811660408301526003909201549182166060820152600160a01b90910460ff161515608091820152810151909150611f7490614379565b1515600114611f955760405162461bcd60e51b815260040161162490614fc2565b80602001516001600160a01b0316336001600160a01b031614611fca5760405162461bcd60e51b815260040161162490614fea565b80604001516001600160a01b031663d835f535856040518263ffffffff1660e01b8152600401611ffc91815260200190565b600060405180830381600087803b15801561201657600080fd5b505af115801561202a573d6000803e3d6000fd5b50505060408083015160608401516020850151925163cc12c31160e01b81526001600160a01b03909216935063cc12c3119261206a928890600401615015565b6020604051808303816000875af1158015612089573d6000803e3d6000fd5b505050506040513d601f19601f820116820180604052508101906120ad9190614ecc565b508284866040516120be9190614e2c565b604051908190038120907f5d9beb4943b1823a8d5ffbc059a5d64cf367d9b7aaee9e28a697b842779957d890600090a4506001949350505050565b600080606a8360405161210c9190614e2c565b90815260200160405180910390206040518060a001604052908160008201805461213590614df1565b80601f016020809104026020016040519081016040528092919081815260200182805461216190614df1565b80156121ae5780601f10612183576101008083540402835291602001916121ae565b820191906000526020600020905b81548152906001019060200180831161219157829003601f168201915b505050918352505060018201546001600160a01b0390811660208301526002830154811660408301526003909201549182166060820152600160a01b90910460ff16151560809182015281015190915061220790614379565b15156001146122285760405162461bcd60e51b815260040161162490614fc2565b6040808201516060830151602084015192516303065f4560e41b81526001600160a01b0391821660048201523360248201529281166044840152600092911690633065f4509060640160408051808303816000875af115801561228f573d6000803e3d6000fd5b505050506040513d601f19601f820116820180604052508101906122b39190615039565b50949350505050565b6000606a826040516122ce9190614e2c565b908152604051908190036020019020600201546001600160a01b031692915050565b600080606a846040516123039190614e2c565b90815260200160405180910390206040518060a001604052908160008201805461232c90614df1565b80601f016020809104026020016040519081016040528092919081815260200182805461235890614df1565b80156123a55780601f1061237a576101008083540402835291602001916123a5565b820191906000526020600020905b81548152906001019060200180831161238857829003601f168201915b505050918352505060018201546001600160a01b0390811660208301526002830154811660408301526003909201549182166060820152600160a01b90910460ff1615156080918201528101519091506123fe90614379565b151560011461241f5760405162461bcd60e51b815260040161162490614fc2565b80602001516001600160a01b0316336001600160a01b0316146124545760405162461bcd60e51b815260040161162490614fea565b600081604001516001600160a01b0316634a94bcb36040518163ffffffff1660e01b8152600401602060405180830381865afa158015612498573d6000803e3d6000fd5b505050506040513d601f19601f820116820180604052508101906124bc9190614e48565b905081604001516001600160a01b031663419b7bd783606001518460200151876040518463ffffffff1660e01b81526004016124fa93929190615015565b6020604051808303816000875af1158015612519573d6000803e3d6000fd5b505050506040513d601f19601f8201168201806040525081019061253d9190614ecc565b50600061254a858361505e565b905080828760405161255c9190614e2c565b604051908190038120907f6104fb37beb719c37a4d2a456c761462b5e74ef11d0944a9e3e1b23f21dbb31d90600090a450600195945050505050565b60685460408051636c94853560e01b815290516000926001600160a01b031691636c9485359160048083019260209291908290030181865afa1580156125e2573d6000803e3d6000fd5b505050506040513d601f19601f820116820180604052508101906126069190614e48565b905090565b61261361431f565b61261d6000614501565b565b61262761431f565b6001600160a01b0381166126745760405162461bcd60e51b8152602060048201526014602482015273416464726573732063616e74206265207a65726f60601b6044820152606401611624565b606880546001600160a01b0319166001600160a01b0392909216919091179055565b606981815481106126a657600080fd5b90600052602060002090600402016000915090508060000180546126c990614df1565b80601f01602080910402602001604051908101604052809291908181526020018280546126f590614df1565b80156127425780601f1061271757610100808354040283529160200191612742565b820191906000526020600020905b81548152906001019060200180831161272557829003601f168201915b505050506001830154600284015460039094015492936001600160a01b0391821693908216925090811690600160a01b900460ff1685565b60008060008061278985610f29565b935061279485612f1c565b915061279f85612bb2565b92506127aa856116f8565b90509193509193565b600080606a846040516127c69190614e2c565b90815260200160405180910390206040518060a00160405290816000820180546127ef90614df1565b80601f016020809104026020016040519081016040528092919081815260200182805461281b90614df1565b80156128685780601f1061283d57610100808354040283529160200191612868565b820191906000526020600020905b81548152906001019060200180831161284b57829003601f168201915b505050918352505060018201546001600160a01b0390811660208301526002830154811660408301526003909201549182166060820152600160a01b90910460ff1615156080918201528101519091506128c190614379565b15156001146128e25760405162461bcd60e51b815260040161162490614fc2565b600081604001516001600160a01b0316634a94bcb36040518163ffffffff1660e01b8152600401602060405180830381865afa158015612926573d6000803e3d6000fd5b505050506040513d601f19601f8201168201806040525081019061294a9190614e48565b9050600082604001516001600160a01b03166316e17b8d6040518163ffffffff1660e01b8152600401602060405180830381865afa158015612990573d6000803e3d6000fd5b505050506040513d601f19601f820116820180604052508101906129b49190614e48565b6040808501516060860151915163bf6eac2f60e01b81529293506001600160a01b03169163bf6eac2f916129ee9133908a90600401615015565b6020604051808303816000875af1158015612a0d573d6000803e3d6000fd5b505050506040513d601f19601f82011682018060405250810190612a319190614ecc565b506000612a3e868461505e565b90506000612a4c878461505e565b9050808389604051612a5e9190614e2c565b604051908190038120907f8834bcade58122eb5594c97d7d46171dc644983fafc2663e6728a6eb925a18ba90600090a4838289604051612a9e9190614e2c565b604051908190038120907f6104fb37beb719c37a4d2a456c761462b5e74ef11d0944a9e3e1b23f21dbb31d90600090a4506001979650505050505050565b6000612ae661431f565b6001606a83604051612af89190614e2c565b9081526040519081900360200181206003018054921515600160a01b0260ff60a01b1990931692909217909155612b30908390614e2c565b604051908190038120907f064c50721c2d6a8dde5fa7e23659e4df58c910897f7b98ca5b9a940038645cc890600090a2506001919050565b6068546040805163a0d0712560e01b815290516000926001600160a01b03169163a0d071259160048083019260209291908290030181865afa1580156125e2573d6000803e3d6000fd5b600080606a83604051612bc59190614e2c565b90815260200160405180910390206040518060a0016040529081600082018054612bee90614df1565b80601f0160208091040260200160405190810160405280929190818152602001828054612c1a90614df1565b8015612c675780601f10612c3c57610100808354040283529160200191612c67565b820191906000526020600020905b815481529060010190602001808311612c4a57829003601f168201915b505050918352505060018201546001600160a01b03908116602080840191909152600284015482166040808501919091526003909401548083166060850152600160a01b900460ff1615156080909301929092528383015183516378eb46fd60e01b8152935194955016926378eb46fd9260048082019392918290030181865afa158015610bd9573d6000803e3d6000fd5b600080606a84604051612d0c9190614e2c565b90815260200160405180910390206040518060a0016040529081600082018054612d3590614df1565b80601f0160208091040260200160405190810160405280929190818152602001828054612d6190614df1565b8015612dae5780601f10612d8357610100808354040283529160200191612dae565b820191906000526020600020905b815481529060010190602001808311612d9157829003601f168201915b505050918352505060018201546001600160a01b0390811660208301526002830154811660408301526003909201549182166060820152600160a01b90910460ff161515608091820152810151909150612e0790614379565b1515600114612e285760405162461bcd60e51b815260040161162490614fc2565b80602001516001600160a01b0316336001600160a01b031614612e5d5760405162461bcd60e51b815260040161162490614fea565b80604001516001600160a01b0316634b5df6cc846040518263ffffffff1660e01b8152600401612e8f91815260200190565b6020604051808303816000875af1158015612eae573d6000803e3d6000fd5b505050506040513d601f19601f82011682018060405250810190612ed29190614ecc565b508284604051612ee29190614e2c565b604051908190038120907f0e6ef9b3f0bcbf52c4ddbfdfb70f52e00c6083b9d5f795123d4e753ac4f82d3990600090a35060019392505050565b600080606a83604051612f2f9190614e2c565b90815260200160405180910390206040518060a0016040529081600082018054612f5890614df1565b80601f0160208091040260200160405190810160405280929190818152602001828054612f8490614df1565b8015612fd15780601f10612fa657610100808354040283529160200191612fd1565b820191906000526020600020905b815481529060010190602001808311612fb457829003601f168201915b505050918352505060018201546001600160a01b03908116602080840191909152600284015482166040808501919091526003909401548083166060850152600160a01b900460ff1615156080909301929092528383015183516316e17b8d60e01b8152935194955016926316e17b8d9260048082019392918290030181865afa158015610bd9573d6000803e3d6000fd5b600061306d61431f565b6130a3606a856040516130809190614e2c565b9081526040519081900360200190206003015460ff600160a01b90910416614379565b15156001146130c45760405162461bcd60e51b815260040161162490614fc2565b6001600160a01b03831661310e5760405162461bcd60e51b815260206004820152601160248201527048756e746572206164647265737328302960781b6044820152606401611624565b606a8460405161311e9190614e2c565b908152604051908190036020018120600201546001600160a01b0316906373927c1190606a9061314f908890614e2c565b908152604051908190036020018120600301546068546001600160e01b031960e085901b1683526001600160a01b0391821660048401528116602483015286166044820152606481018590526084016020604051808303816000875af11580156131bd573d6000803e3d6000fd5b505050506040513d601f19601f820116820180604052508101906131e19190614ecc565b506068546040516001600160a01b039091169063d16cfcc190606a90613208908890614e2c565b908152604051908190036020018120600301546001600160e01b031960e084901b168252613248916001600160a01b039091169087908790600401615015565b600060405180830381600087803b15801561326257600080fd5b505af1158015613276573d6000803e3d6000fd5b5050505081836001600160a01b0316427fc94856745b23bcaffb2e3755abe04f2ee7cf7047605058b72c2f1cb3e58d5c43606a886040516132b79190614e2c565b90815260405160209181900382018120600301546001600160a01b031681520160405180910390a45060019392505050565b600054610100900460ff16158080156133095750600054600160ff909116105b806133235750303b158015613323575060005460ff166001145b6133865760405162461bcd60e51b815260206004820152602e60248201527f496e697469616c697a61626c653a20636f6e747261637420697320616c72656160448201526d191e481a5b9a5d1a585b1a5e995960921b6064820152608401611624565b6000805460ff1916600117905580156133a9576000805461ff0019166101001790555b606580546001600160a01b038087166001600160a01b0319928316179092556066805486841690831617905560678054928516929091169190911790556133ee614553565b8015613434576000805461ff0019169055604051600181527f7f26b83ff96e1f2b6a682f133852f6798a09c465da95921460cefb38474024989060200160405180910390a15b50505050565b60685460408051630c31495960e41b815290516000926001600160a01b03169163c31495909160048083019260209291908290030181865afa1580156125e2573d6000803e3d6000fd5b600080600080606a8660405161349a9190614e2c565b90815260200160405180910390206040518060a00160405290816000820180546134c390614df1565b80601f01602080910402602001604051908101604052809291908181526020018280546134ef90614df1565b801561353c5780601f106135115761010080835404028352916020019161353c565b820191906000526020600020905b81548152906001019060200180831161351f57829003601f168201915b505050918352505060018201546001600160a01b039081166020830152600283015481166040808401919091526003909301548082166060840152600160a01b900460ff161515608090920191909152828201519151632d7807a960e01b815288821660048201529293501690632d7807a990602401606060405180830381865afa1580156135cf573d6000803e3d6000fd5b505050506040513d601f19601f820116820180604052508101906135f39190615076565b91989097509095509350505050565b600080606a846040516136159190614e2c565b90815260200160405180910390206040518060a001604052908160008201805461363e90614df1565b80601f016020809104026020016040519081016040528092919081815260200182805461366a90614df1565b80156136b75780601f1061368c576101008083540402835291602001916136b7565b820191906000526020600020905b81548152906001019060200180831161369a57829003601f168201915b505050918352505060018201546001600160a01b0390811660208301526002830154811660408301526003909201549182166060820152600160a01b90910460ff16151560809182015281015190915061371090614379565b15156001146137315760405162461bcd60e51b815260040161162490614fc2565b60408082015190516363c877c160e11b8152336004820152602481018590526001600160a01b039091169063c790ef82906044016020604051808303816000875af1158015613784573d6000803e3d6000fd5b505050506040513d601f19601f820116820180604052508101906137a89190614ecc565b156137f65782846040516137bc9190614e2c565b604051908190038120907f0e6ef9b3f0bcbf52c4ddbfdfb70f52e00c6083b9d5f795123d4e753ac4f82d3990600090a360019150506111e5565b5092915050565b60685460408051636999350560e11b815290516000926001600160a01b03169163d3326a0a9160048083019260209291908290030181865afa1580156125e2573d6000803e3d6000fd5b600080606a8460405161385a9190614e2c565b90815260200160405180910390206040518060a001604052908160008201805461388390614df1565b80601f01602080910402602001604051908101604052809291908181526020018280546138af90614df1565b80156138fc5780601f106138d1576101008083540402835291602001916138fc565b820191906000526020600020905b8154815290600101906020018083116138df57829003601f168201915b505050918352505060018201546001600160a01b0390811660208301526002830154811660408301526003909201549182166060820152600160a01b90910460ff16151560809182015281015190915061395590614379565b15156001146139765760405162461bcd60e51b815260040161162490614fc2565b600081604001516001600160a01b0316634a94bcb36040518163ffffffff1660e01b8152600401602060405180830381865afa1580156139ba573d6000803e3d6000fd5b505050506040513d601f19601f820116820180604052508101906139de9190614e48565b9050600082604001516001600160a01b03166316e17b8d6040518163ffffffff1660e01b8152600401602060405180830381865afa158015613a24573d6000803e3d6000fd5b505050506040513d601f19601f82011682018060405250810190613a489190614e48565b604080850151606086015191516330414fc560e11b81529293506001600160a01b0316916360829f8a91613a829133908a90600401615015565b6020604051808303816000875af1158015613aa1573d6000803e3d6000fd5b505050506040513d601f19601f82011682018060405250810190613ac59190614ecc565b15613b74576000613ad6868461505e565b90506000613ae487846150a4565b9050808389604051613af69190614e2c565b604051908190038120907f8834bcade58122eb5594c97d7d46171dc644983fafc2663e6728a6eb925a18ba90600090a4818489604051613b369190614e2c565b604051908190038120907f6104fb37beb719c37a4d2a456c761462b5e74ef11d0944a9e3e1b23f21dbb31d90600090a46001955050505050506111e5565b50505092915050565b600080606a83604051613b909190614e2c565b90815260200160405180910390206040518060a0016040529081600082018054613bb990614df1565b80601f0160208091040260200160405190810160405280929190818152602001828054613be590614df1565b8015613c325780601f10613c0757610100808354040283529160200191613c32565b820191906000526020600020905b815481529060010190602001808311613c1557829003601f168201915b505050918352505060018201546001600160a01b03908116602080840191909152600284015482166040808501919091526003909401548083166060850152600160a01b900460ff16151560809093019290925283830151835163383639b360e01b81529351949550169263383639b39260048082019392918290030181865afa158015610bd9573d6000803e3d6000fd5b8051602081830181018051606a825292820191909301209152805481906126c990614df1565b6068546040805163e5125d7b60e01b815290516000926001600160a01b03169163e5125d7b9160048083019260209291908290030181865afa1580156125e2573d6000803e3d6000fd5b6000613d3e61431f565b6001600160a01b0383166000818152606b6020526040808220805460ff191686151590811790915590519092917f99795d51e5a8804307721456a7a9c2f0d7421f719d46a46d36e91fee7c85aa7691a350600192915050565b6000613dac606a836040516130809190614e2c565b1515600114613dcd5760405162461bcd60e51b815260040161162490614fc2565b606a82604051613ddd9190614e2c565b908152604051908190036020018120600201546001600160a01b031690638aa82e8290606a90613e0e908690614e2c565b908152604051908190036020018120600301546001600160a01b031690606a90613e39908790614e2c565b908152604051908190036020018120600101546001600160e01b031960e085901b1682526001600160a01b0392831660048301529190911660248201526044016020604051808303816000875af1158015613e98573d6000803e3d6000fd5b505050506040513d601f19601f82011682018060405250810190613ebc9190614ecc565b151560011415613f3357606a82604051613ed69190614e2c565b908152604051908190036020018120600101546001600160a01b031690613efe908490614e2c565b604051908190038120907fd5d2d05dfe0d10d196c53d6f16e6d70e4dbb9cb77fe8682f6c68e9426c29103090600090a3613f90565b6000613f3e83612bb2565b90506000613f4b846116f8565b9050818185604051613f5d9190614e2c565b604051908190038120907f5d9beb4943b1823a8d5ffbc059a5d64cf367d9b7aaee9e28a697b842779957d890600090a450505b506001919050565b6000613fa261431f565b6001600160a01b038316613fe75760405162461bcd60e51b815260206004820152600c60248201526b41646472657373205a65726f60a01b6044820152606401611624565b606854604051630be5e47b60e11b81526001600160a01b03909116906317cbc8f69061401b90879087908790600401615015565b6020604051808303816000875af115801561403a573d6000803e3d6000fd5b505050506040513d601f19601f8201168201806040525081019061405e9190614ecc565b5060405182906001600160a01b038616907f189e21cdbf554d2e7158d144a91a275ae2145eaf20b9697ea962df4fba6462c390600090a35060019392505050565b6140a761431f565b6001600160a01b03811661410c5760405162461bcd60e51b815260206004820152602660248201527f4f776e61626c653a206e6577206f776e657220697320746865207a65726f206160448201526564647265737360d01b6064820152608401611624565b6116c181614501565b600080606a846040516141289190614e2c565b90815260200160405180910390206040518060a001604052908160008201805461415190614df1565b80601f016020809104026020016040519081016040528092919081815260200182805461417d90614df1565b80156141ca5780601f1061419f576101008083540402835291602001916141ca565b820191906000526020600020905b8154815290600101906020018083116141ad57829003601f168201915b505050918352505060018201546001600160a01b0390811660208301526002830154811660408301526003909201549182166060820152600160a01b90910460ff16151560809182015281015190915061422390614379565b15156001146142445760405162461bcd60e51b815260040161162490614fc2565b600081604001516001600160a01b0316634a94bcb36040518163ffffffff1660e01b8152600401602060405180830381865afa158015614288573d6000803e3d6000fd5b505050506040513d601f19601f820116820180604052508101906142ac9190614e48565b905081602001516001600160a01b0316336001600160a01b0316146142e35760405162461bcd60e51b815260040161162490614fea565b81604001516001600160a01b0316633147096d83606001518460200151876040518463ffffffff1660e01b81526004016124fa93929190615015565b6033546001600160a01b0316331461261d5760405162461bcd60e51b815260206004820181905260248201527f4f776e61626c653a2063616c6c6572206973206e6f7420746865206f776e65726044820152606401611624565b60008115613f9057600092915050565b6116c161431f565b7f4910fdfa16fed3260ed0e7147f7cc6da11a60208b5b9406d12a635614ffd91435460ff16156143c9576143c483614582565b505050565b826001600160a01b03166352d1902d6040518163ffffffff1660e01b8152600401602060405180830381865afa925050508015614423575060408051601f3d908101601f1916820190925261442091810190614e48565b60015b6144865760405162461bcd60e51b815260206004820152602e60248201527f45524331393637557067726164653a206e657720696d706c656d656e7461746960448201526d6f6e206973206e6f74205555505360901b6064820152608401611624565b60008051602061511a83398151915281146144f55760405162461bcd60e51b815260206004820152602960248201527f45524331393637557067726164653a20756e737570706f727465642070726f786044820152681a58589b195555525160ba1b6064820152608401611624565b506143c483838361461e565b603380546001600160a01b038381166001600160a01b0319831681179093556040519116919082907f8be0079c531659141344cd1fd0a4f28419497f9722a3daafe3b4186f6b6457e090600090a35050565b600054610100900460ff1661457a5760405162461bcd60e51b8152600401611624906150bb565b61261d614643565b6001600160a01b0381163b6145ef5760405162461bcd60e51b815260206004820152602d60248201527f455243313936373a206e657720696d706c656d656e746174696f6e206973206e60448201526c1bdd08184818dbdb9d1c9858dd609a1b6064820152608401611624565b60008051602061511a83398151915280546001600160a01b0319166001600160a01b0392909216919091179055565b61462783614673565b6000825111806146345750805b156143c45761343483836146b3565b600054610100900460ff1661466a5760405162461bcd60e51b8152600401611624906150bb565b61261d33614501565b61467c81614582565b6040516001600160a01b038216907fbc7cd75a20ee27fd9adebab32041f755214dbc6bffa90cc0225b39da2e5c2d3b90600090a250565b6060610bfd838360405180606001604052806027815260200161513a602791396060600080856001600160a01b0316856040516146f09190614e2c565b600060405180830381855af49150503d806000811461472b576040519150601f19603f3d011682016040523d82523d6000602084013e614730565b606091505b50915091506147418683838761474b565b9695505050505050565b606083156147b75782516147b0576001600160a01b0385163b6147b05760405162461bcd60e51b815260206004820152601d60248201527f416464726573733a2063616c6c20746f206e6f6e2d636f6e74726163740000006044820152606401611624565b50816147c1565b6147c183836147c9565b949350505050565b8151156147d95781518083602001fd5b8060405162461bcd60e51b81526004016116249190615106565b8280546147ff90614df1565b90600052602060002090601f0160209004810192826148215760008555614867565b82601f1061483a57805160ff1916838001178555614867565b82800160010185558215614867579182015b8281111561486757825182559160200191906001019061484c565b50614873929150614877565b5090565b5b808211156148735760008155600101614878565b60005b838110156148a757818101518382015260200161488f565b838111156134345750506000910152565b600081518084526148d081602086016020860161488c565b601f01601f19169290920160200192915050565b60006020808301818452808551808352604092508286019150828160051b87010184880160005b8381101561497d57603f19898403018552815160a08151818652614931828701826148b8565b838b01516001600160a01b03908116888d01528a85015181168b89015260608086015190911690880152608093840151151593909601929092525050938601939086019060010161490b565b509098975050505050505050565b634e487b7160e01b600052604160045260246000fd5b600082601f8301126149b257600080fd5b813567ffffffffffffffff808211156149cd576149cd61498b565b604051601f8301601f19908116603f011681019082821181831017156149f5576149f561498b565b81604052838152866020858801011115614a0e57600080fd5b836020870160208301376000602085830101528094505050505092915050565b600060208284031215614a4057600080fd5b813567ffffffffffffffff811115614a5757600080fd5b6147c1848285016149a1565b6001600160a01b03811681146116c157600080fd5b60008060408385031215614a8b57600080fd5b823567ffffffffffffffff811115614aa257600080fd5b614aae858286016149a1565b9250506020830135614abf81614a63565b809150509250929050565b60008060408385031215614add57600080fd5b8235614ae881614a63565b91506020830135614abf81614a63565b600060208284031215614b0a57600080fd5b8135610bfd81614a63565b60008060008060808587031215614b2b57600080fd5b843567ffffffffffffffff80821115614b4357600080fd5b614b4f888389016149a1565b95506020870135915080821115614b6557600080fd5b50614b72878288016149a1565b9350506040850135614b8381614a63565b91506060850135614b9381614a63565b939692955090935050565b60008060408385031215614bb157600080fd5b8235614bbc81614a63565b9150602083013567ffffffffffffffff811115614bd857600080fd5b614be4858286016149a1565b9150509250929050565b600080600060608486031215614c0357600080fd5b833567ffffffffffffffff811115614c1a57600080fd5b614c26868287016149a1565b9660208601359650604090950135949350505050565b60008060408385031215614c4f57600080fd5b823567ffffffffffffffff811115614c6657600080fd5b614c72858286016149a1565b95602094909401359450505050565b600060208284031215614c9357600080fd5b5035919050565b60a081526000614cad60a08301886148b8565b6001600160a01b039687166020840152948616604083015250919093166060820152911515608090920191909152919050565b600080600060608486031215614cf557600080fd5b833567ffffffffffffffff811115614d0c57600080fd5b614d18868287016149a1565b9350506020840135614d2981614a63565b929592945050506040919091013590565b600080600060608486031215614d4f57600080fd5b8335614d5a81614a63565b92506020840135614d6a81614a63565b91506040840135614d7a81614a63565b809150509250925092565b80151581146116c157600080fd5b60008060408385031215614da657600080fd5b8235614db181614a63565b91506020830135614abf81614d85565b600080600060608486031215614dd657600080fd5b8335614de181614a63565b92506020840135614d2981614a63565b600181811c90821680614e0557607f821691505b60208210811415614e2657634e487b7160e01b600052602260045260246000fd5b50919050565b60008251614e3e81846020870161488c565b9190910192915050565b600060208284031215614e5a57600080fd5b5051919050565b634e487b7160e01b600052603260045260246000fd5b634e487b7160e01b600052601160045260246000fd5b6000600019821415614ea157614ea1614e77565b5060010190565b60008060408385031215614ebb57600080fd5b505080516020909101519092909150565b600060208284031215614ede57600080fd5b8151610bfd81614d85565b6020808252602c908201527f46756e6374696f6e206d7573742062652063616c6c6564207468726f7567682060408201526b19195b1959d85d1958d85b1b60a21b606082015260800190565b6020808252602c908201527f46756e6374696f6e206d7573742062652063616c6c6564207468726f7567682060408201526b6163746976652070726f787960a01b606082015260800190565b6001600160a01b03831681526040602082018190526000906147c1908301846148b8565b600060208284031215614fb757600080fd5b8151610bfd81614a63565b6020808252600e908201526d109bdd5b9d1e481a5cc81119585960921b604082015260600190565b6020808252601190820152702737ba10383937b532b1ba1037bbb732b960791b604082015260600190565b6001600160a01b039384168152919092166020820152604081019190915260600190565b6000806040838503121561504c57600080fd5b825191506020830151614abf81614d85565b6000821982111561507157615071614e77565b500190565b60008060006060848603121561508b57600080fd5b83519250602084015191506040840151614d7a81614d85565b6000828210156150b6576150b6614e77565b500390565b6020808252602b908201527f496e697469616c697a61626c653a20636f6e7472616374206973206e6f74206960408201526a6e697469616c697a696e6760a81b606082015260800190565b602081526000610bfd60208301846148b856fe360894a13ba1a3210667c828492db98dca3e2076cc3735a920a3ca505d382bbc416464726573733a206c6f772d6c6576656c2064656c65676174652063616c6c206661696c6564a2646970667358221220f67ebb9fe2dabcc82dc2e7b75b23f9eccb2b214de54497434dd3d3d459d5929264736f6c634300080a0033",
    "linkReferences": {}
  },
  "methodIdentifiers": {
    "beacon()": "59659e90",
    "billPremiumForAll()": "27e73542",
    "billPremiumForOnePool(string)": "e6b37f6f",
    "bountiesList(uint256)": "7f2f3e5e",
    "bountyDetails(string)": "d7dc56a5",
    "bountyImplementation()": "cae38faa",
    "claimPremium(string)": "666b7030",
    "deployNewBounty(bytes,string,address,address)": "4c0d9a6c",
    "factory()": "c45a0155",
    "getBountyAddressByName(string)": "66b6c647",
    "initialize(address,address,address)": "c0c53b8b",
    "killBounty(string)": "9ca7e787",
    "owner()": "8da5cb5b",
    "payBounty(string,address,uint256)": "bc160761",
    "projectDeposit(string,uint256)": "f4808fea",
    "projectDepositWithdrawal(string,uint256)": "68dd3dbf",
    "proxiableUUID()": "52d1902d",
    "renounceOwnership()": "715018a6",
    "saloonWallet()": "4389e41a",
    "scheduleProjectDepositWithdrawal(string,uint256)": "b8047881",
    "scheduleUnstake(string,uint256)": "d16ad2f7",
    "setBountyCapAndAPY(string,uint256,uint256)": "58b07d5b",
    "stake(string,uint256)": "9494c8ae",
    "tokenWhitelist(address)": "753d7563",
    "transferOwnership(address)": "f2fde38b",
    "unstake(string,uint256)": "d37c92dc",
    "updateBountyPoolImplementation(address)": "53dce856",
    "updateSaloonWallet(address)": "79f99a89",
    "updateTokenWhitelist(address,bool)": "e5e97c65",
    "upgradeTo(address)": "3659cfe6",
    "upgradeToAndCall(address,bytes)": "4f1ef286",
    "viewAllBountiesByName()": "03c46f51",
    "viewBountyBalance(string)": "05234fda",
    "viewBountyInfo(string)": "943eb4f2",
    "viewBountyOwner(string)": "37787926",
    "viewDesiredAPY(string)": "a667b5d0",
    "viewHackerPayout(string)": "0f0df171",
    "viewHunterTotalTokenPayouts(address,address)": "21580322",
    "viewPoolCap(string)": "3ef0c3ed",
    "viewProjectDeposit(string)": "d3c15cdb",
    "viewSaloonBalance()": "a0d07125",
    "viewTotalEarnedSaloon()": "6c948535",
    "viewTotalHackerPayouts()": "c3149590",
    "viewTotalPremiums()": "e5125d7b",
    "viewTotalSaloonCommission()": "d3326a0a",
    "viewUserStakingBalance(string,address)": "15daef49",
    "viewUserTimelock(string,address)": "c8191c54",
    "viewstakersDeposit(string)": "b91cdea7",
    "withdrawSaloon(address,address,uint256)": "f0e6b4ed",
    "withdrawSaloonPremiumFees()": "0e060249"
  },
  "id": 30
}