{
  "abi": [
    {
      "anonymous": false,
      "inputs": [
        {
          "indexed": false,
          "internalType": "address",
          "name": "previousAdmin",
          "type": "address"
        },
        {
          "indexed": false,
          "internalType": "address",
          "name": "newAdmin",
          "type": "address"
        }
      ],
      "name": "AdminChanged",
      "type": "event"
    },
    {
      "anonymous": false,
      "inputs": [
        {
          "indexed": true,
          "internalType": "address",
          "name": "beacon",
          "type": "address"
        }
      ],
      "name": "BeaconUpgraded",
      "type": "event"
    },
    {
      "anonymous": false,
      "inputs": [
        {
          "indexed": true,
          "internalType": "string",
          "name": "projectName",
          "type": "string"
        },
        {
          "indexed": true,
          "internalType": "uint256",
          "name": "oldAmount",
          "type": "uint256"
        },
        {
          "indexed": true,
          "internalType": "uint256",
          "name": "newAmount",
          "type": "uint256"
        }
      ],
      "name": "BountyBalanceChanged",
      "type": "event"
    },
    {
      "anonymous": false,
      "inputs": [
        {
          "indexed": true,
          "internalType": "string",
          "name": "projectName",
          "type": "string"
        }
      ],
      "name": "BountyKilled",
      "type": "event"
    },
    {
      "anonymous": false,
      "inputs": [
        {
          "indexed": true,
          "internalType": "uint256",
          "name": "time",
          "type": "uint256"
        },
        {
          "indexed": true,
          "internalType": "address",
          "name": "hunter",
          "type": "address"
        },
        {
          "indexed": true,
          "internalType": "uint256",
          "name": "amount",
          "type": "uint256"
        },
        {
          "indexed": false,
          "internalType": "address",
          "name": "token",
          "type": "address"
        }
      ],
      "name": "BountyPaid",
      "type": "event"
    },
    {
      "anonymous": false,
      "inputs": [
        {
          "indexed": true,
          "internalType": "address",
          "name": "newImplementation",
          "type": "address"
        }
      ],
      "name": "BountyPoolImplementationUpdated",
      "type": "event"
    },
    {
      "anonymous": false,
      "inputs": [
        {
          "indexed": true,
          "internalType": "address",
          "name": "sender",
          "type": "address"
        },
        {
          "indexed": true,
          "internalType": "address",
          "name": "_projectWallet",
          "type": "address"
        },
        {
          "indexed": false,
          "internalType": "contract BountyPool",
          "name": "newProxyAddress",
          "type": "address"
        }
      ],
      "name": "DeployNewBounty",
      "type": "event"
    },
    {
      "anonymous": false,
      "inputs": [
        {
          "indexed": false,
          "internalType": "uint8",
          "name": "version",
          "type": "uint8"
        }
      ],
      "name": "Initialized",
      "type": "event"
    },
    {
      "anonymous": false,
      "inputs": [
        {
          "indexed": true,
          "internalType": "address",
          "name": "previousOwner",
          "type": "address"
        },
        {
          "indexed": true,
          "internalType": "address",
          "name": "newOwner",
          "type": "address"
        }
      ],
      "name": "OwnershipTransferred",
      "type": "event"
    },
    {
      "anonymous": false,
      "inputs": [
        {
          "indexed": true,
          "internalType": "string",
          "name": "projectName",
          "type": "string"
        },
        {
          "indexed": true,
          "internalType": "uint256",
          "name": "poolCap",
          "type": "uint256"
        },
        {
          "indexed": true,
          "internalType": "uint256",
          "name": "apy",
          "type": "uint256"
        }
      ],
      "name": "PoolCapAndAPYChanged",
      "type": "event"
    },
    {
      "anonymous": false,
      "inputs": [
        {
          "indexed": true,
          "internalType": "string",
          "name": "projectName",
          "type": "string"
        },
        {
          "indexed": true,
          "internalType": "address",
          "name": "projectWallet",
          "type": "address"
        }
      ],
      "name": "PremiumBilled",
      "type": "event"
    },
    {
      "anonymous": false,
      "inputs": [
        {
          "indexed": true,
          "internalType": "address",
          "name": "token",
          "type": "address"
        },
        {
          "indexed": true,
          "internalType": "uint256",
          "name": "amount",
          "type": "uint256"
        }
      ],
      "name": "SaloonFundsWithdrawal",
      "type": "event"
    },
    {
      "anonymous": false,
      "inputs": [
        {
          "indexed": true,
          "internalType": "uint256",
          "name": "totalCollected",
          "type": "uint256"
        }
      ],
      "name": "SaloonPremiumCollected",
      "type": "event"
    },
    {
      "anonymous": false,
      "inputs": [
        {
          "indexed": true,
          "internalType": "string",
          "name": "projectName",
          "type": "string"
        },
        {
          "indexed": true,
          "internalType": "uint256",
          "name": "previousStaked",
          "type": "uint256"
        },
        {
          "indexed": true,
          "internalType": "uint256",
          "name": "newStaked",
          "type": "uint256"
        }
      ],
      "name": "StakedAmountChanged",
      "type": "event"
    },
    {
      "anonymous": false,
      "inputs": [
        {
          "indexed": true,
          "internalType": "address",
          "name": "implementation",
          "type": "address"
        }
      ],
      "name": "Upgraded",
      "type": "event"
    },
    {
      "anonymous": false,
      "inputs": [
        {
          "indexed": true,
          "internalType": "string",
          "name": "projectName",
          "type": "string"
        },
        {
          "indexed": true,
          "internalType": "uint256",
          "name": "amount",
          "type": "uint256"
        }
      ],
      "name": "WithdrawalorUnstakeScheduled",
      "type": "event"
    },
    {
      "anonymous": false,
      "inputs": [
        {
          "indexed": true,
          "internalType": "address",
          "name": "token",
          "type": "address"
        },
        {
          "indexed": true,
          "internalType": "bool",
          "name": "whitelisted",
          "type": "bool"
        }
      ],
      "name": "tokenWhitelistUpdated",
      "type": "event"
    },
    {
      "inputs": [],
      "name": "beacon",
      "outputs": [
        {
          "internalType": "contract UpgradeableBeacon",
          "name": "",
          "type": "address"
        }
      ],
      "stateMutability": "view",
      "type": "function"
    },
    {
      "inputs": [],
      "name": "billPremiumForAll",
      "outputs": [
        {
          "internalType": "bool",
          "name": "",
          "type": "bool"
        }
      ],
      "stateMutability": "nonpayable",
      "type": "function"
    },
    {
      "inputs": [
        {
          "internalType": "string",
          "name": "_projectName",
          "type": "string"
        }
      ],
      "name": "billPremiumForOnePool",
      "outputs": [
        {
          "internalType": "bool",
          "name": "",
          "type": "bool"
        }
      ],
      "stateMutability": "nonpayable",
      "type": "function"
    },
    {
      "inputs": [
        {
          "internalType": "uint256",
          "name": "",
          "type": "uint256"
        }
      ],
      "name": "bountiesList",
      "outputs": [
        {
          "internalType": "contract BountyPool",
          "name": "proxyAddress",
          "type": "address"
        },
        {
          "internalType": "address",
          "name": "projectWallet",
          "type": "address"
        },
        {
          "internalType": "address",
          "name": "token",
          "type": "address"
        },
        {
          "internalType": "uint256",
          "name": "decimals",
          "type": "uint256"
        },
        {
          "internalType": "string",
          "name": "projectName",
          "type": "string"
        },
        {
          "internalType": "bool",
          "name": "dead",
          "type": "bool"
        }
      ],
      "stateMutability": "view",
      "type": "function"
    },
    {
      "inputs": [
        {
          "internalType": "string",
          "name": "",
          "type": "string"
        }
      ],
      "name": "bountyDetails",
      "outputs": [
        {
          "internalType": "contract BountyPool",
          "name": "proxyAddress",
          "type": "address"
        },
        {
          "internalType": "address",
          "name": "projectWallet",
          "type": "address"
        },
        {
          "internalType": "address",
          "name": "token",
          "type": "address"
        },
        {
          "internalType": "uint256",
          "name": "decimals",
          "type": "uint256"
        },
        {
          "internalType": "string",
          "name": "projectName",
          "type": "string"
        },
        {
          "internalType": "bool",
          "name": "dead",
          "type": "bool"
        }
      ],
      "stateMutability": "view",
      "type": "function"
    },
    {
      "inputs": [],
      "name": "bountyImplementation",
      "outputs": [
        {
          "internalType": "address",
          "name": "",
          "type": "address"
        }
      ],
      "stateMutability": "view",
      "type": "function"
    },
    {
      "inputs": [
        {
          "internalType": "string",
          "name": "_projectName",
          "type": "string"
        }
      ],
      "name": "claimPremium",
      "outputs": [
        {
          "internalType": "uint256",
          "name": "",
          "type": "uint256"
        }
      ],
      "stateMutability": "nonpayable",
      "type": "function"
    },
    {
      "inputs": [
        {
          "internalType": "bytes",
          "name": "_data",
          "type": "bytes"
        },
        {
          "internalType": "string",
          "name": "_projectName",
          "type": "string"
        },
        {
          "internalType": "address",
          "name": "_token",
          "type": "address"
        },
        {
          "internalType": "address",
          "name": "_projectWallet",
          "type": "address"
        }
      ],
      "name": "deployNewBounty",
      "outputs": [
        {
          "internalType": "contract BountyPool",
          "name": "",
          "type": "address"
        },
        {
          "internalType": "bool",
          "name": "",
          "type": "bool"
        }
      ],
      "stateMutability": "nonpayable",
      "type": "function"
    },
    {
      "inputs": [],
      "name": "factory",
      "outputs": [
        {
          "internalType": "contract BountyProxyFactory",
          "name": "",
          "type": "address"
        }
      ],
      "stateMutability": "view",
      "type": "function"
    },
    {
      "inputs": [
        {
          "internalType": "string",
          "name": "_projectName",
          "type": "string"
        }
      ],
      "name": "getBountyAddressByName",
      "outputs": [
        {
          "internalType": "address",
          "name": "",
          "type": "address"
        }
      ],
      "stateMutability": "view",
      "type": "function"
    },
    {
      "inputs": [
        {
          "internalType": "contract BountyProxyFactory",
          "name": "_factory",
          "type": "address"
        },
        {
          "internalType": "contract UpgradeableBeacon",
          "name": "_beacon",
          "type": "address"
        },
        {
          "internalType": "address",
          "name": "_bountyImplementation",
          "type": "address"
        }
      ],
      "name": "initialize",
      "outputs": [],
      "stateMutability": "nonpayable",
      "type": "function"
    },
    {
      "inputs": [
        {
          "internalType": "string",
          "name": "_projectName",
          "type": "string"
        }
      ],
      "name": "killBounty",
      "outputs": [
        {
          "internalType": "bool",
          "name": "",
          "type": "bool"
        }
      ],
      "stateMutability": "nonpayable",
      "type": "function"
    },
    {
      "inputs": [],
      "name": "owner",
      "outputs": [
        {
          "internalType": "address",
          "name": "",
          "type": "address"
        }
      ],
      "stateMutability": "view",
      "type": "function"
    },
    {
      "inputs": [
        {
          "internalType": "string",
          "name": "_projectName",
          "type": "string"
        },
        {
          "internalType": "address",
          "name": "_hunter",
          "type": "address"
        },
        {
          "internalType": "uint256",
          "name": "_amount",
          "type": "uint256"
        }
      ],
      "name": "payBounty",
      "outputs": [
        {
          "internalType": "bool",
          "name": "",
          "type": "bool"
        }
      ],
      "stateMutability": "nonpayable",
      "type": "function"
    },
    {
      "inputs": [
        {
          "internalType": "string",
          "name": "_projectName",
          "type": "string"
        },
        {
          "internalType": "uint256",
          "name": "_amount",
          "type": "uint256"
        }
      ],
      "name": "projectDeposit",
      "outputs": [
        {
          "internalType": "bool",
          "name": "",
          "type": "bool"
        }
      ],
      "stateMutability": "nonpayable",
      "type": "function"
    },
    {
      "inputs": [
        {
          "internalType": "string",
          "name": "_projectName",
          "type": "string"
        },
        {
          "internalType": "uint256",
          "name": "_amount",
          "type": "uint256"
        }
      ],
      "name": "projectDepositWithdrawal",
      "outputs": [
        {
          "internalType": "bool",
          "name": "",
          "type": "bool"
        }
      ],
      "stateMutability": "nonpayable",
      "type": "function"
    },
    {
      "inputs": [],
      "name": "proxiableUUID",
      "outputs": [
        {
          "internalType": "bytes32",
          "name": "",
          "type": "bytes32"
        }
      ],
      "stateMutability": "view",
      "type": "function"
    },
    {
      "inputs": [],
      "name": "renounceOwnership",
      "outputs": [],
      "stateMutability": "nonpayable",
      "type": "function"
    },
    {
      "inputs": [],
      "name": "saloonWallet",
      "outputs": [
        {
          "internalType": "contract SaloonWallet",
          "name": "",
          "type": "address"
        }
      ],
      "stateMutability": "view",
      "type": "function"
    },
    {
      "inputs": [
        {
          "internalType": "string",
          "name": "_projectName",
          "type": "string"
        },
        {
          "internalType": "uint256",
          "name": "_amount",
          "type": "uint256"
        }
      ],
      "name": "scheduleProjectDepositWithdrawal",
      "outputs": [
        {
          "internalType": "bool",
          "name": "",
          "type": "bool"
        }
      ],
      "stateMutability": "nonpayable",
      "type": "function"
    },
    {
      "inputs": [
        {
          "internalType": "string",
          "name": "_projectName",
          "type": "string"
        },
        {
          "internalType": "uint256",
          "name": "_amount",
          "type": "uint256"
        }
      ],
      "name": "scheduleUnstake",
      "outputs": [
        {
          "internalType": "bool",
          "name": "",
          "type": "bool"
        }
      ],
      "stateMutability": "nonpayable",
      "type": "function"
    },
    {
      "inputs": [
        {
          "internalType": "string",
          "name": "_projectName",
          "type": "string"
        },
        {
          "internalType": "uint256",
          "name": "_poolCap",
          "type": "uint256"
        },
        {
          "internalType": "uint256",
          "name": "_desiredAPY",
          "type": "uint256"
        }
      ],
      "name": "setBountyCapAndAPY",
      "outputs": [
        {
          "internalType": "bool",
          "name": "",
          "type": "bool"
        }
      ],
      "stateMutability": "nonpayable",
      "type": "function"
    },
    {
      "inputs": [
        {
          "internalType": "string",
          "name": "_projectName",
          "type": "string"
        },
        {
          "internalType": "uint256",
          "name": "_amount",
          "type": "uint256"
        }
      ],
      "name": "stake",
      "outputs": [
        {
          "internalType": "bool",
          "name": "",
          "type": "bool"
        }
      ],
      "stateMutability": "nonpayable",
      "type": "function"
    },
    {
      "inputs": [
        {
          "internalType": "address",
          "name": "",
          "type": "address"
        }
      ],
      "name": "tokenWhitelist",
      "outputs": [
        {
          "internalType": "bool",
          "name": "",
          "type": "bool"
        }
      ],
      "stateMutability": "view",
      "type": "function"
    },
    {
      "inputs": [
        {
          "internalType": "address",
          "name": "newOwner",
          "type": "address"
        }
      ],
      "name": "transferOwnership",
      "outputs": [],
      "stateMutability": "nonpayable",
      "type": "function"
    },
    {
      "inputs": [
        {
          "internalType": "string",
          "name": "_projectName",
          "type": "string"
        },
        {
          "internalType": "uint256",
          "name": "_amount",
          "type": "uint256"
        }
      ],
      "name": "unstake",
      "outputs": [
        {
          "internalType": "bool",
          "name": "",
          "type": "bool"
        }
      ],
      "stateMutability": "nonpayable",
      "type": "function"
    },
    {
      "inputs": [
        {
          "internalType": "address",
          "name": "_newImplementation",
          "type": "address"
        }
      ],
      "name": "updateBountyPoolImplementation",
      "outputs": [
        {
          "internalType": "bool",
          "name": "",
          "type": "bool"
        }
      ],
      "stateMutability": "nonpayable",
      "type": "function"
    },
    {
      "inputs": [
        {
          "internalType": "address",
          "name": "_newWallet",
          "type": "address"
        }
      ],
      "name": "updateSaloonWallet",
      "outputs": [],
      "stateMutability": "nonpayable",
      "type": "function"
    },
    {
      "inputs": [
        {
          "internalType": "address",
          "name": "_token",
          "type": "address"
        },
        {
          "internalType": "bool",
          "name": "_whitelisted",
          "type": "bool"
        }
      ],
      "name": "updateTokenWhitelist",
      "outputs": [
        {
          "internalType": "bool",
          "name": "",
          "type": "bool"
        }
      ],
      "stateMutability": "nonpayable",
      "type": "function"
    },
    {
      "inputs": [
        {
          "internalType": "address",
          "name": "newImplementation",
          "type": "address"
        }
      ],
      "name": "upgradeTo",
      "outputs": [],
      "stateMutability": "nonpayable",
      "type": "function"
    },
    {
      "inputs": [
        {
          "internalType": "address",
          "name": "newImplementation",
          "type": "address"
        },
        {
          "internalType": "bytes",
          "name": "data",
          "type": "bytes"
        }
      ],
      "name": "upgradeToAndCall",
      "outputs": [],
      "stateMutability": "payable",
      "type": "function"
    },
    {
      "inputs": [],
      "name": "viewAllBountiesByName",
      "outputs": [
        {
          "components": [
            {
              "internalType": "contract BountyPool",
              "name": "proxyAddress",
              "type": "address"
            },
            {
              "internalType": "address",
              "name": "projectWallet",
              "type": "address"
            },
            {
              "internalType": "address",
              "name": "token",
              "type": "address"
            },
            {
              "internalType": "uint256",
              "name": "decimals",
              "type": "uint256"
            },
            {
              "internalType": "string",
              "name": "projectName",
              "type": "string"
            },
            {
              "internalType": "bool",
              "name": "dead",
              "type": "bool"
            }
          ],
          "internalType": "struct BountyProxiesManager.Bounties[]",
          "name": "",
          "type": "tuple[]"
        }
      ],
      "stateMutability": "view",
      "type": "function"
    },
    {
      "inputs": [
        {
          "internalType": "string",
          "name": "_projectName",
          "type": "string"
        }
      ],
      "name": "viewBountyBalance",
      "outputs": [
        {
          "internalType": "uint256",
          "name": "",
          "type": "uint256"
        }
      ],
      "stateMutability": "view",
      "type": "function"
    },
    {
      "inputs": [
        {
          "internalType": "string",
          "name": "_projectName",
          "type": "string"
        }
      ],
      "name": "viewBountyInfo",
      "outputs": [
        {
          "internalType": "uint256",
          "name": "payout",
          "type": "uint256"
        },
        {
          "internalType": "uint256",
          "name": "apy",
          "type": "uint256"
        },
        {
          "internalType": "uint256",
          "name": "staked",
          "type": "uint256"
        },
        {
          "internalType": "uint256",
          "name": "poolCap",
          "type": "uint256"
        }
      ],
      "stateMutability": "view",
      "type": "function"
    },
    {
      "inputs": [
        {
          "internalType": "string",
          "name": "_projectName",
          "type": "string"
        }
      ],
      "name": "viewBountyOwner",
      "outputs": [
        {
          "internalType": "address",
          "name": "",
          "type": "address"
        }
      ],
      "stateMutability": "view",
      "type": "function"
    },
    {
      "inputs": [
        {
          "internalType": "string",
          "name": "_projectName",
          "type": "string"
        }
      ],
      "name": "viewDesiredAPY",
      "outputs": [
        {
          "internalType": "uint256",
          "name": "",
          "type": "uint256"
        }
      ],
      "stateMutability": "view",
      "type": "function"
    },
    {
      "inputs": [
        {
          "internalType": "string",
          "name": "_projectName",
          "type": "string"
        }
      ],
      "name": "viewHackerPayout",
      "outputs": [
        {
          "internalType": "uint256",
          "name": "",
          "type": "uint256"
        }
      ],
      "stateMutability": "view",
      "type": "function"
    },
    {
      "inputs": [
        {
          "internalType": "address",
          "name": "_token",
          "type": "address"
        },
        {
          "internalType": "address",
          "name": "_hunter",
          "type": "address"
        }
      ],
      "name": "viewHunterTotalTokenPayouts",
      "outputs": [
        {
          "internalType": "uint256",
          "name": "",
          "type": "uint256"
        }
      ],
      "stateMutability": "view",
      "type": "function"
    },
    {
      "inputs": [
        {
          "internalType": "string",
          "name": "_projectName",
          "type": "string"
        }
      ],
      "name": "viewPoolCap",
      "outputs": [
        {
          "internalType": "uint256",
          "name": "",
          "type": "uint256"
        }
      ],
      "stateMutability": "view",
      "type": "function"
    },
    {
      "inputs": [
        {
          "internalType": "string",
          "name": "_projectName",
          "type": "string"
        }
      ],
      "name": "viewProjectDeposit",
      "outputs": [
        {
          "internalType": "uint256",
          "name": "",
          "type": "uint256"
        }
      ],
      "stateMutability": "view",
      "type": "function"
    },
    {
      "inputs": [],
      "name": "viewSaloonBalance",
      "outputs": [
        {
          "internalType": "uint256",
          "name": "",
          "type": "uint256"
        }
      ],
      "stateMutability": "view",
      "type": "function"
    },
    {
      "inputs": [],
      "name": "viewTotalEarnedSaloon",
      "outputs": [
        {
          "internalType": "uint256",
          "name": "",
          "type": "uint256"
        }
      ],
      "stateMutability": "view",
      "type": "function"
    },
    {
      "inputs": [],
      "name": "viewTotalHackerPayouts",
      "outputs": [
        {
          "internalType": "uint256",
          "name": "",
          "type": "uint256"
        }
      ],
      "stateMutability": "view",
      "type": "function"
    },
    {
      "inputs": [],
      "name": "viewTotalPremiums",
      "outputs": [
        {
          "internalType": "uint256",
          "name": "",
          "type": "uint256"
        }
      ],
      "stateMutability": "view",
      "type": "function"
    },
    {
      "inputs": [],
      "name": "viewTotalSaloonCommission",
      "outputs": [
        {
          "internalType": "uint256",
          "name": "",
          "type": "uint256"
        }
      ],
      "stateMutability": "view",
      "type": "function"
    },
    {
      "inputs": [
        {
          "internalType": "string",
          "name": "_projectName",
          "type": "string"
        },
        {
          "internalType": "address",
          "name": "_staker",
          "type": "address"
        }
      ],
      "name": "viewUserStakingBalance",
      "outputs": [
        {
          "internalType": "uint256",
          "name": "",
          "type": "uint256"
        }
      ],
      "stateMutability": "view",
      "type": "function"
    },
    {
      "inputs": [
        {
          "internalType": "string",
          "name": "_projectName",
          "type": "string"
        },
        {
          "internalType": "address",
          "name": "_staker",
          "type": "address"
        }
      ],
      "name": "viewUserTimelock",
      "outputs": [
        {
          "internalType": "uint256",
          "name": "timelock",
          "type": "uint256"
        },
        {
          "internalType": "uint256",
          "name": "amount",
          "type": "uint256"
        },
        {
          "internalType": "bool",
          "name": "executed",
          "type": "bool"
        }
      ],
      "stateMutability": "view",
      "type": "function"
    },
    {
      "inputs": [
        {
          "internalType": "string",
          "name": "_projectName",
          "type": "string"
        }
      ],
      "name": "viewstakersDeposit",
      "outputs": [
        {
          "internalType": "uint256",
          "name": "",
          "type": "uint256"
        }
      ],
      "stateMutability": "view",
      "type": "function"
    },
    {
      "inputs": [
        {
          "internalType": "address",
          "name": "_token",
          "type": "address"
        },
        {
          "internalType": "address",
          "name": "_to",
          "type": "address"
        },
        {
          "internalType": "uint256",
          "name": "_amount",
          "type": "uint256"
        }
      ],
      "name": "withdrawSaloon",
      "outputs": [
        {
          "internalType": "bool",
          "name": "",
          "type": "bool"
        }
      ],
      "stateMutability": "nonpayable",
      "type": "function"
    },
    {
      "inputs": [],
      "name": "withdrawSaloonPremiumFees",
      "outputs": [
        {
          "internalType": "bool",
          "name": "",
          "type": "bool"
        }
      ],
      "stateMutability": "nonpayable",
      "type": "function"
    }
  ],
  "bytecode": {
    "object": "0x60a06040523060805234801561001457600080fd5b506080516156fc6200004d600039600081816116250152818161166e01528181611d9c01528181611ddc0152611e6f01526156fc6000f3fe6080604052600436106102c95760003560e01c80638da5cb5b11610175578063c8191c54116100dc578063d7dc56a511610095578063e6b37f6f1161006f578063e6b37f6f146108dd578063f0e6b4ed146108fd578063f2fde38b1461091d578063f4808fea1461093d57600080fd5b8063d7dc56a514610888578063e5125d7b146108a8578063e5e97c65146108bd57600080fd5b8063c8191c54146107b6578063cae38faa146107f3578063d16ad2f714610813578063d3326a0a14610833578063d37c92dc14610848578063d3c15cdb1461086857600080fd5b8063b80478811161012e578063b804788114610701578063b91cdea714610721578063bc16076114610741578063c0c53b8b14610761578063c314959014610781578063c45a01551461079657600080fd5b80638da5cb5b1461062e578063943eb4f21461064c5780639494c8ae1461068c5780639ca7e787146106ac578063a0d07125146106cc578063a667b5d0146106e157600080fd5b80634f1ef2861161023457806366b6c647116101ed578063715018a6116101c7578063715018a614610597578063753d7563146105ac57806379f99a89146105dc5780637f2f3e5e146105fc57600080fd5b806366b6c6471461054257806368dd3dbf146105625780636c9485351461058257600080fd5b80634f1ef2861461049a57806352d1902d146104ad57806353dce856146104c257806358b07d5b146104e257806359659e9014610502578063666b70301461052257600080fd5b806327e735421161028657806327e73542146103ac5780633659cfe6146103c157806337787926146103e35780633ef0c3ed1461041b5780634389e41a1461043b5780634c0d9a6c1461045b57600080fd5b806303c46f51146102ce57806305234fda146102f95780630e060249146103275780630f0df1711461034c57806315daef491461036c578063215803221461038c575b600080fd5b3480156102da57600080fd5b506102e361095d565b6040516102f09190614d01565b60405180910390f35b34801561030557600080fd5b50610319610314366004614e58565b610a9c565b6040519081526020016102f0565b34801561033357600080fd5b5061033c610c19565b60405190151581526020016102f0565b34801561035857600080fd5b50610319610367366004614e58565b610f48565b34801561037857600080fd5b50610319610387366004614ea2565b61109a565b34801561039857600080fd5b506103196103a7366004614ef4565b611221565b3480156103b857600080fd5b5061033c611274565b3480156103cd57600080fd5b506103e16103dc366004614f22565b61161a565b005b3480156103ef57600080fd5b506104036103fe366004614e58565b611703565b6040516001600160a01b0390911681526020016102f0565b34801561042757600080fd5b50610319610436366004614e58565b611737565b34801561044757600080fd5b50606854610403906001600160a01b031681565b34801561046757600080fd5b5061047b610476366004614f3f565b61188c565b604080516001600160a01b0390931683529015156020830152016102f0565b6103e16104a8366004614fc8565b611d91565b3480156104b957600080fd5b50610319611e62565b3480156104ce57600080fd5b5061033c6104dd366004614f22565b611f15565b3480156104ee57600080fd5b5061033c6104fd366004615018565b611fff565b34801561050e57600080fd5b50606654610403906001600160a01b031681565b34801561052e57600080fd5b5061031961053d366004614e58565b6122d6565b34801561054e57600080fd5b5061040361055d366004614e58565b6124a1565b34801561056e57600080fd5b5061033c61057d366004615066565b6124d2565b34801561058e57600080fd5b506103196127a6565b3480156105a357600080fd5b506103e1612819565b3480156105b857600080fd5b5061033c6105c7366004614f22565b606b6020526000908152604090205460ff1681565b3480156105e857600080fd5b506103e16105f7366004614f22565b61282d565b34801561060857600080fd5b5061061c6106173660046150ab565b6128a4565b6040516102f0969594939291906150c4565b34801561063a57600080fd5b506033546001600160a01b0316610403565b34801561065857600080fd5b5061066c610667366004614e58565b612988565b6040805194855260208501939093529183015260608201526080016102f0565b34801561069857600080fd5b5061033c6106a7366004615066565b6129c1565b3480156106b857600080fd5b5061033c6106c7366004614e58565b612d15565b3480156106d857600080fd5b50610319612d98565b3480156106ed57600080fd5b506103196106fc366004614e58565b612de2565b34801561070d57600080fd5b5061033c61071c366004615066565b612f34565b34801561072d57600080fd5b5061031961073c366004614e58565b61317b565b34801561074d57600080fd5b5061033c61075c366004615114565b6132cd565b34801561076d57600080fd5b506103e161077c36600461516e565b6135c0565b34801561078d57600080fd5b50610319613711565b3480156107a257600080fd5b50606554610403906001600160a01b031681565b3480156107c257600080fd5b506107d66107d1366004614ea2565b61375b565b6040805193845260208401929092521515908201526060016102f0565b3480156107ff57600080fd5b50606754610403906001600160a01b031681565b34801561081f57600080fd5b5061033c61082e366004615066565b6138e5565b34801561083f57600080fd5b50610319613b0c565b34801561085457600080fd5b5061033c610863366004615066565b613b56565b34801561087457600080fd5b50610319610883366004614e58565b613ebb565b34801561089457600080fd5b5061061c6108a3366004614e58565b61400d565b3480156108b457600080fd5b5061031961405c565b3480156108c957600080fd5b5061033c6108d83660046151c7565b6140a6565b3480156108e957600080fd5b5061033c6108f8366004614e58565b614109565b34801561090957600080fd5b5061033c6109183660046151f5565b614307565b34801561092957600080fd5b506103e1610938366004614f22565b614491565b34801561094957600080fd5b5061033c610958366004615066565b614507565b60606069805480602002602001604051908101604052809291908181526020016000905b82821015610a935760008481526020908190206040805160c0810182526006860290920180546001600160a01b0390811684526001820154811694840194909452600281015490931690820152600382015460608201526004820180549192916080840191906109f090615225565b80601f0160208091040260200160405190810160405280929190818152602001828054610a1c90615225565b8015610a695780601f10610a3e57610100808354040283529160200191610a69565b820191906000526020600020905b815481529060010190602001808311610a4c57829003601f168201915b50505091835250506005919091015460ff1615156020918201529082526001929092019101610981565b50505050905090565b600080606a83604051610aaf9190615260565b90815260408051918290036020908101832060c08401835280546001600160a01b039081168552600182015481169285019290925260028101549091169183019190915260038101546060830152600481018054608084019190610b1290615225565b80601f0160208091040260200160405190810160405280929190818152602001828054610b3e90615225565b8015610b8b5780601f10610b6057610100808354040283529160200191610b8b565b820191906000526020600020905b815481529060010190602001808311610b6e57829003601f168201915b50505091835250506005919091015460ff161515602091820152815160408051637228407360e11b815290519394506001600160a01b039091169263e45080e6926004808401939192918290030181865afa158015610bee573d6000803e3d6000fd5b505050506040513d601f19601f82011682018060405250810190610c12919061527c565b9392505050565b6000610c2361473c565b60006069805480602002602001604051908101604052809291908181526020016000905b82821015610d595760008481526020908190206040805160c0810182526006860290920180546001600160a01b039081168452600182015481169484019490945260028101549093169082015260038201546060820152600482018054919291608084019190610cb690615225565b80601f0160208091040260200160405190810160405280929190818152602001828054610ce290615225565b8015610d2f5780601f10610d0457610100808354040283529160200191610d2f565b820191906000526020600020905b815481529060010190602001808311610d1257829003601f168201915b50505091835250506005919091015460ff1615156020918201529082526001929092019101610c47565b5050505090506000815190506000805b82811015610f1257610d97848281518110610d8657610d86615295565b602002602001015160a00151614796565b610da057610f02565b6000848281518110610db457610db4615295565b6020026020010151600001516001600160a01b0316635121ac9d868481518110610de057610de0615295565b6020908102919091010151604090810151606854915160e084901b6001600160e01b03191681526001600160a01b039182166004820152911660248201526044016020604051808303816000875af1158015610e40573d6000803e3d6000fd5b505050506040513d601f19601f82011682018060405250810190610e64919061527c565b60685486519192506001600160a01b0316906383ab930490879085908110610e8e57610e8e615295565b602002602001015160400151836040518363ffffffff1660e01b8152600401610ecc9291906001600160a01b03929092168252602082015260400190565b600060405180830381600087803b158015610ee657600080fd5b505af1158015610efa573d6000803e3d6000fd5b509294505050505b610f0b816152c1565b9050610d69565b5060405181907ff61dcc40e5f2c6bc5b24cb6f24690965e673c4c563bbf94cbbdaff36bffde00b90600090a26001935050505090565b600080606a83604051610f5b9190615260565b90815260408051918290036020908101832060c08401835280546001600160a01b039081168552600182015481169285019290925260028101549091169183019190915260038101546060830152600481018054608084019190610fbe90615225565b80601f0160208091040260200160405190810160405280929190818152602001828054610fea90615225565b80156110375780601f1061100c57610100808354040283529160200191611037565b820191906000526020600020905b81548152906001019060200180831161101a57829003601f168201915b50505091835250506005919091015460ff161515602091820152815160408051634a94bcb360e01b815290519394506001600160a01b0390911692634a94bcb3926004808401939192918290030181865afa158015610bee573d6000803e3d6000fd5b600080606a846040516110ad9190615260565b90815260408051918290036020908101832060c08401835280546001600160a01b03908116855260018201548116928501929092526002810154909116918301919091526003810154606083015260048101805460808401919061111090615225565b80601f016020809104026020016040519081016040528092919081815260200182805461113c90615225565b80156111895780601f1061115e57610100808354040283529160200191611189565b820191906000526020600020905b81548152906001019060200180831161116c57829003601f168201915b50505091835250506005919091015460ff1615156020909101528051604051631a89cabd60e01b81526001600160a01b03868116600483015292935060009290911690631a89cabd906024016040805180830381865afa1580156111f1573d6000803e3d6000fd5b505050506040513d601f19601f8201168201806040525081019061121591906152dc565b50925050505b92915050565b6068546040516310ac019160e11b81526001600160a01b03848116600483015283811660248301526000921690632158032290604401602060405180830381865afa158015610bee573d6000803e3d6000fd5b6000806069805480602002602001604051908101604052809291908181526020016000905b828210156113ab5760008481526020908190206040805160c0810182526006860290920180546001600160a01b03908116845260018201548116948401949094526002810154909316908201526003820154606082015260048201805491929160808401919061130890615225565b80601f016020809104026020016040519081016040528092919081815260200182805461133490615225565b80156113815780601f1061135657610100808354040283529160200191611381565b820191906000526020600020905b81548152906001019060200180831161136457829003601f168201915b50505091835250506005919091015460ff1615156020918201529082526001929092019101611299565b5050825192935060009150505b81811015611610576113d5838281518110610d8657610d86615295565b6113de57611600565b8281815181106113f0576113f0615295565b6020026020010151600001516001600160a01b0316638aa82e8284838151811061141c5761141c615295565b60200260200101516040015185848151811061143a5761143a615295565b6020026020010151602001516040518363ffffffff1660e01b81526004016114789291906001600160a01b0392831681529116602082015260400190565b6020604051808303816000875af1158015611497573d6000803e3d6000fd5b505050506040513d601f19601f820116820180604052508101906114bb9190615300565b15156001141561154c578281815181106114d7576114d7615295565b6020026020010151602001516001600160a01b03168382815181106114fe576114fe615295565b6020026020010151608001516040516115179190615260565b604051908190038120907fd5d2d05dfe0d10d196c53d6f16e6d70e4dbb9cb77fe8682f6c68e9426c29103090600090a3611600565b600061157484838151811061156357611563615295565b602002602001015160800151612de2565b9050600061159e85848151811061158d5761158d615295565b602002602001015160800151611737565b905081818685815181106115b4576115b4615295565b6020026020010151608001516040516115cd9190615260565b604051908190038120907f5d9beb4943b1823a8d5ffbc059a5d64cf367d9b7aaee9e28a697b842779957d890600090a450505b611609816152c1565b90506113b8565b5060019250505090565b306001600160a01b037f000000000000000000000000000000000000000000000000000000000000000016141561166c5760405162461bcd60e51b81526004016116639061531d565b60405180910390fd5b7f00000000000000000000000000000000000000000000000000000000000000006001600160a01b03166116b5600080516020615680833981519152546001600160a01b031690565b6001600160a01b0316146116db5760405162461bcd60e51b815260040161166390615369565b6116e4816147a6565b60408051600080825260208201909252611700918391906147ae565b50565b6000606a826040516117159190615260565b908152604051908190036020019020600101546001600160a01b031692915050565b600080606a8360405161174a9190615260565b90815260408051918290036020908101832060c08401835280546001600160a01b0390811685526001820154811692850192909252600281015490911691830191909152600381015460608301526004810180546080840191906117ad90615225565b80601f01602080910402602001604051908101604052809291908181526020018280546117d990615225565b80156118265780601f106117fb57610100808354040283529160200191611826565b820191906000526020600020905b81548152906001019060200180831161180957829003601f168201915b50505091835250506005919091015460ff16151560209182015281516040805160016202e8ad60e61b0319815290519394506001600160a01b039091169263ff45d4c0926004808401939192918290030181865afa158015610bee573d6000803e3d6000fd5b60008061189761473c565b60006001600160a01b0316606a866040516118b29190615260565b908152604051908190036020019020546001600160a01b0316146119185760405162461bcd60e51b815260206004820152601a60248201527f50726f6a65637420616c72656164792068617320626f756e74790000000000006044820152606401611663565b6001600160a01b0384166000908152606b602052604090205460ff16151560011461197a5760405162461bcd60e51b8152602060048201526012602482015271151bdad95b881b9bdd08185c1c1c9bdd995960721b6044820152606401611663565b6040805160c08101825260008082526060820181905260a0820152608081018790526001600160a01b03858116602080840191909152908716828401819052835163313ce56760e01b815293519293909263313ce567926004808401939192918290030181865afa1580156119f3573d6000803e3d6000fd5b505050506040513d601f19601f82011682018060405250810190611a1791906153b5565b60ff1660608201819052611a665760405162461bcd60e51b8152602060048201526016602482015275496e76616c696420546f6b656e20446563696d616c7360501b6044820152606401611663565b6065546066546040516336d9881760e01b81526000926001600160a01b03908116926336d9881792611aa092909116908c906004016153d8565b6020604051808303816000875af1158015611abf573d6000803e3d6000fd5b505050506040513d601f19601f82011682018060405250810190611ae391906153fc565b6060830151604051635a898d0360e01b815230600482015260248101919091529091506001600160a01b03821690635a898d0390604401600060405180830381600087803b158015611b3457600080fd5b505af1158015611b48573d6000803e3d6000fd5b5050506001600160a01b03808316845260698054600181018255600091909152845160069091027f7fb4302e8e91f9110a6554c2c0a24601252c2a42c2220ca988efcfe399914308810180549284166001600160a01b03199384161781556020808801517f7fb4302e8e91f9110a6554c2c0a24601252c2a42c2220ca988efcfe3999143098401805491871691861691909117905560408801517f7fb4302e8e91f9110a6554c2c0a24601252c2a42c2220ca988efcfe39991430a840180549190961694169390931790935560608601517f7fb4302e8e91f9110a6554c2c0a24601252c2a42c2220ca988efcfe39991430b82015560808601518051879550611c7a937f7fb4302e8e91f9110a6554c2c0a24601252c2a42c2220ca988efcfe39991430c909301929190910190614c10565b5060a091909101516005909101805460ff19169115159190911790556040518290606a90611ca9908a90615260565b9081526040805160209281900383019020835181546001600160a01b03199081166001600160a01b039283161783558585015160018401805483169184169190911790559285015160028301805490941691161790915560608301516003820155608083015180519192611d2592600485019290910190614c10565b5060a091909101516005909101805460ff19169115159190911790556040516001600160a01b03828116825286169033907fa397122091ddbad4417c188353200f86978770ea6a146a5860667b1ef760917c9060200160405180910390a3976001975095505050505050565b306001600160a01b037f0000000000000000000000000000000000000000000000000000000000000000161415611dda5760405162461bcd60e51b81526004016116639061531d565b7f00000000000000000000000000000000000000000000000000000000000000006001600160a01b0316611e23600080516020615680833981519152546001600160a01b031690565b6001600160a01b031614611e495760405162461bcd60e51b815260040161166390615369565b611e52826147a6565b611e5e828260016147ae565b5050565b6000306001600160a01b037f00000000000000000000000000000000000000000000000000000000000000001614611f025760405162461bcd60e51b815260206004820152603860248201527f555550535570677261646561626c653a206d757374206e6f742062652063616c60448201527f6c6564207468726f7567682064656c656761746563616c6c00000000000000006064820152608401611663565b5060008051602061568083398151915290565b6000611f1f61473c565b6001600160a01b038216611f645760405162461bcd60e51b815260206004820152600c60248201526b41646472657373207a65726f60a01b6044820152606401611663565b606654604051631b2ce7f360e11b81526001600160a01b03848116600483015290911690633659cfe690602401600060405180830381600087803b158015611fab57600080fd5b505af1158015611fbf573d6000803e3d6000fd5b50506040516001600160a01b03851692507f8351bb7d88cde824de55ae548c81488c9bea6ad24cafb7644e7df7ac0cfcb46c9150600090a2506001919050565b600080606a856040516120129190615260565b90815260408051918290036020908101832060c08401835280546001600160a01b03908116855260018201548116928501929092526002810154909116918301919091526003810154606083015260048101805460808401919061207590615225565b80601f01602080910402602001604051908101604052809291908181526020018280546120a190615225565b80156120ee5780601f106120c3576101008083540402835291602001916120ee565b820191906000526020600020905b8154815290600101906020018083116120d157829003601f168201915b50505091835250506005919091015460ff16151560209091015260a081015190915061211990614796565b151560011461213a5760405162461bcd60e51b815260040161166390615419565b80602001516001600160a01b0316336001600160a01b03161461216f5760405162461bcd60e51b815260040161166390615441565b60008160600151600a6121829190615550565b61218c908661555c565b905060008260600151600a6121a19190615550565b6121ab908661555c565b835160405163d835f53560e01b8152600481018590529192506001600160a01b03169063d835f53590602401600060405180830381600087803b1580156121f157600080fd5b505af1158015612205573d6000803e3d6000fd5b5050505082600001516001600160a01b031663cc12c31184604001518560200151846040518463ffffffff1660e01b81526004016122459392919061557b565b6020604051808303816000875af1158015612264573d6000803e3d6000fd5b505050506040513d601f19601f820116820180604052508101906122889190615300565b508082886040516122999190615260565b604051908190038120907f5d9beb4943b1823a8d5ffbc059a5d64cf367d9b7aaee9e28a697b842779957d890600090a45060019695505050505050565b600080606a836040516122e99190615260565b90815260408051918290036020908101832060c08401835280546001600160a01b03908116855260018201548116928501929092526002810154909116918301919091526003810154606083015260048101805460808401919061234c90615225565b80601f016020809104026020016040519081016040528092919081815260200182805461237890615225565b80156123c55780601f1061239a576101008083540402835291602001916123c5565b820191906000526020600020905b8154815290600101906020018083116123a857829003601f168201915b50505091835250506005919091015460ff16151560209091015260a08101519091506123f090614796565b15156001146124115760405162461bcd60e51b815260040161166390615419565b8051604080830151602084015191516303065f4560e41b81526001600160a01b03918216600482015233602482015291811660448301526000921690633065f4509060640160408051808303816000875af1158015612474573d6000803e3d6000fd5b505050506040513d601f19601f82011682018060405250810190612498919061559f565b50949350505050565b6000606a826040516124b39190615260565b908152604051908190036020019020546001600160a01b031692915050565b600080606a846040516124e59190615260565b90815260408051918290036020908101832060c08401835280546001600160a01b03908116855260018201548116928501929092526002810154909116918301919091526003810154606083015260048101805460808401919061254890615225565b80601f016020809104026020016040519081016040528092919081815260200182805461257490615225565b80156125c15780601f10612596576101008083540402835291602001916125c1565b820191906000526020600020905b8154815290600101906020018083116125a457829003601f168201915b50505091835250506005919091015460ff16151560209091015260a08101519091506125ec90614796565b151560011461260d5760405162461bcd60e51b815260040161166390615419565b80602001516001600160a01b0316336001600160a01b0316146126425760405162461bcd60e51b815260040161166390615441565b600081600001516001600160a01b031663e45080e66040518163ffffffff1660e01b8152600401602060405180830381865afa158015612686573d6000803e3d6000fd5b505050506040513d601f19601f820116820180604052508101906126aa919061527c565b905060008260600151600a6126bf9190615550565b6126c9908661555c565b905082600001516001600160a01b031663419b7bd784604001518560200151846040518463ffffffff1660e01b81526004016127079392919061557b565b6020604051808303816000875af1158015612726573d6000803e3d6000fd5b505050506040513d601f19601f8201168201806040525081019061274a9190615300565b50600061275782846155c4565b90508083886040516127699190615260565b604051908190038120907f6104fb37beb719c37a4d2a456c761462b5e74ef11d0944a9e3e1b23f21dbb31d90600090a45060019695505050505050565b60685460408051636c94853560e01b815290516000926001600160a01b031691636c9485359160048083019260209291908290030181865afa1580156127f0573d6000803e3d6000fd5b505050506040513d601f19601f82011682018060405250810190612814919061527c565b905090565b61282161473c565b61282b600061491e565b565b61283561473c565b6001600160a01b0381166128825760405162461bcd60e51b8152602060048201526014602482015273416464726573732063616e74206265207a65726f60601b6044820152606401611663565b606880546001600160a01b0319166001600160a01b0392909216919091179055565b606981815481106128b457600080fd5b6000918252602090912060069091020180546001820154600283015460038401546004850180546001600160a01b03958616975093851695929094169390926128fc90615225565b80601f016020809104026020016040519081016040528092919081815260200182805461292890615225565b80156129755780601f1061294a57610100808354040283529160200191612975565b820191906000526020600020905b81548152906001019060200180831161295857829003601f168201915b5050506005909301549192505060ff1686565b60008060008061299785610f48565b93506129a28561317b565b91506129ad85612de2565b92506129b885611737565b90509193509193565b600080606a846040516129d49190615260565b90815260408051918290036020908101832060c08401835280546001600160a01b039081168552600182015481169285019290925260028101549091169183019190915260038101546060830152600481018054608084019190612a3790615225565b80601f0160208091040260200160405190810160405280929190818152602001828054612a6390615225565b8015612ab05780601f10612a8557610100808354040283529160200191612ab0565b820191906000526020600020905b815481529060010190602001808311612a9357829003601f168201915b50505091835250506005919091015460ff16151560209091015260a0810151909150612adb90614796565b1515600114612afc5760405162461bcd60e51b815260040161166390615419565b600081600001516001600160a01b031663e45080e66040518163ffffffff1660e01b8152600401602060405180830381865afa158015612b40573d6000803e3d6000fd5b505050506040513d601f19601f82011682018060405250810190612b64919061527c565b9050600082600001516001600160a01b03166316e17b8d6040518163ffffffff1660e01b8152600401602060405180830381865afa158015612baa573d6000803e3d6000fd5b505050506040513d601f19601f82011682018060405250810190612bce919061527c565b905060008360600151600a612be39190615550565b612bed908761555c565b8451604080870151905163bf6eac2f60e01b81529293506001600160a01b039091169163bf6eac2f91612c26913390869060040161557b565b6020604051808303816000875af1158015612c45573d6000803e3d6000fd5b505050506040513d601f19601f82011682018060405250810190612c699190615300565b506000612c7682856155c4565b90506000612c8483856155c4565b905080848a604051612c969190615260565b604051908190038120907f8834bcade58122eb5594c97d7d46171dc644983fafc2663e6728a6eb925a18ba90600090a484828a604051612cd69190615260565b604051908190038120907f6104fb37beb719c37a4d2a456c761462b5e74ef11d0944a9e3e1b23f21dbb31d90600090a450600198975050505050505050565b6000612d1f61473c565b6001606a83604051612d319190615260565b908152604051908190036020018120600501805492151560ff1990931692909217909155612d60908390615260565b604051908190038120907f064c50721c2d6a8dde5fa7e23659e4df58c910897f7b98ca5b9a940038645cc890600090a2506001919050565b6068546040805163a0d0712560e01b815290516000926001600160a01b03169163a0d071259160048083019260209291908290030181865afa1580156127f0573d6000803e3d6000fd5b600080606a83604051612df59190615260565b90815260408051918290036020908101832060c08401835280546001600160a01b039081168552600182015481169285019290925260028101549091169183019190915260038101546060830152600481018054608084019190612e5890615225565b80601f0160208091040260200160405190810160405280929190818152602001828054612e8490615225565b8015612ed15780601f10612ea657610100808354040283529160200191612ed1565b820191906000526020600020905b815481529060010190602001808311612eb457829003601f168201915b50505091835250506005919091015460ff1615156020918201528151604080516378eb46fd60e01b815290519394506001600160a01b03909116926378eb46fd926004808401939192918290030181865afa158015610bee573d6000803e3d6000fd5b600080606a84604051612f479190615260565b90815260408051918290036020908101832060c08401835280546001600160a01b039081168552600182015481169285019290925260028101549091169183019190915260038101546060830152600481018054608084019190612faa90615225565b80601f0160208091040260200160405190810160405280929190818152602001828054612fd690615225565b80156130235780601f10612ff857610100808354040283529160200191613023565b820191906000526020600020905b81548152906001019060200180831161300657829003601f168201915b50505091835250506005919091015460ff16151560209091015260a081015190915061304e90614796565b151560011461306f5760405162461bcd60e51b815260040161166390615419565b80602001516001600160a01b0316336001600160a01b0316146130a45760405162461bcd60e51b815260040161166390615441565b60008160600151600a6130b79190615550565b6130c1908561555c565b82516040516312d77db360e21b8152600481018390529192506001600160a01b031690634b5df6cc906024016020604051808303816000875af115801561310c573d6000803e3d6000fd5b505050506040513d601f19601f820116820180604052508101906131309190615300565b5080856040516131409190615260565b604051908190038120907f0e6ef9b3f0bcbf52c4ddbfdfb70f52e00c6083b9d5f795123d4e753ac4f82d3990600090a3506001949350505050565b600080606a8360405161318e9190615260565b90815260408051918290036020908101832060c08401835280546001600160a01b0390811685526001820154811692850192909252600281015490911691830191909152600381015460608301526004810180546080840191906131f190615225565b80601f016020809104026020016040519081016040528092919081815260200182805461321d90615225565b801561326a5780601f1061323f5761010080835404028352916020019161326a565b820191906000526020600020905b81548152906001019060200180831161324d57829003601f168201915b50505091835250506005919091015460ff1615156020918201528151604080516316e17b8d60e01b815290519394506001600160a01b03909116926316e17b8d926004808401939192918290030181865afa158015610bee573d6000803e3d6000fd5b60006132d761473c565b613305606a856040516132ea9190615260565b9081526040519081900360200190206005015460ff16614796565b15156001146133265760405162461bcd60e51b815260040161166390615419565b6001600160a01b0383166133705760405162461bcd60e51b815260206004820152601160248201527048756e746572206164647265737328302960781b6044820152606401611663565b6000606a856040516133829190615260565b90815260405190819003602001902060030154905060006133a482600a615550565b6133ae908561555c565b9050606a866040516133c09190615260565b908152604051908190036020018120546001600160a01b0316906373927c1190606a906133ee908a90615260565b908152604051908190036020018120600201546068546001600160e01b031960e085901b1683526001600160a01b0391821660048401528116602483015288166044820152606481018490526084016020604051808303816000875af115801561345c573d6000803e3d6000fd5b505050506040513d601f19601f820116820180604052508101906134809190615300565b506068546040516001600160a01b0390911690637a76be8690606a906134a7908a90615260565b908152604051908190036020018120600201546001600160a01b031690606a906134d2908b90615260565b908152604051908190036020018120600301546001600160e01b031960e085901b1682526001600160a01b0392831660048301526024820152908816604482015260648101849052608401600060405180830381600087803b15801561353757600080fd5b505af115801561354b573d6000803e3d6000fd5b5050505083856001600160a01b0316427fc94856745b23bcaffb2e3755abe04f2ee7cf7047605058b72c2f1cb3e58d5c43606a8a60405161358c9190615260565b90815260405160209181900382018120600201546001600160a01b031681520160405180910390a450600195945050505050565b600054610100900460ff16158080156135e05750600054600160ff909116105b806135fa5750303b1580156135fa575060005460ff166001145b61365d5760405162461bcd60e51b815260206004820152602e60248201527f496e697469616c697a61626c653a20636f6e747261637420697320616c72656160448201526d191e481a5b9a5d1a585b1a5e995960921b6064820152608401611663565b6000805460ff191660011790558015613680576000805461ff0019166101001790555b606580546001600160a01b038087166001600160a01b0319928316179092556066805486841690831617905560678054928516929091169190911790556136c5614970565b801561370b576000805461ff0019169055604051600181527f7f26b83ff96e1f2b6a682f133852f6798a09c465da95921460cefb38474024989060200160405180910390a15b50505050565b60685460408051630c31495960e41b815290516000926001600160a01b03169163c31495909160048083019260209291908290030181865afa1580156127f0573d6000803e3d6000fd5b600080600080606a866040516137719190615260565b90815260408051918290036020908101832060c08401835280546001600160a01b0390811685526001820154811692850192909252600281015490911691830191909152600381015460608301526004810180546080840191906137d490615225565b80601f016020809104026020016040519081016040528092919081815260200182805461380090615225565b801561384d5780601f106138225761010080835404028352916020019161384d565b820191906000526020600020905b81548152906001019060200180831161383057829003601f168201915b50505091835250506005919091015460ff1615156020909101528051604051632d7807a960e01b81526001600160a01b038881166004830152929350911690632d7807a990602401606060405180830381865afa1580156138b2573d6000803e3d6000fd5b505050506040513d601f19601f820116820180604052508101906138d691906155dc565b91989097509095509350505050565b600080606a846040516138f89190615260565b90815260408051918290036020908101832060c08401835280546001600160a01b03908116855260018201548116928501929092526002810154909116918301919091526003810154606083015260048101805460808401919061395b90615225565b80601f016020809104026020016040519081016040528092919081815260200182805461398790615225565b80156139d45780601f106139a9576101008083540402835291602001916139d4565b820191906000526020600020905b8154815290600101906020018083116139b757829003601f168201915b50505091835250506005919091015460ff16151560209091015260a08101519091506139ff90614796565b1515600114613a205760405162461bcd60e51b815260040161166390615419565b60008160600151600a613a339190615550565b613a3d908561555c565b82516040516363c877c160e11b8152336004820152602481018390529192506001600160a01b03169063c790ef82906044016020604051808303816000875af1158015613a8e573d6000803e3d6000fd5b505050506040513d601f19601f82011682018060405250810190613ab29190615300565b15613b01578085604051613ac69190615260565b604051908190038120907f0e6ef9b3f0bcbf52c4ddbfdfb70f52e00c6083b9d5f795123d4e753ac4f82d3990600090a360019250505061121b565b60009250505061121b565b60685460408051636999350560e11b815290516000926001600160a01b03169163d3326a0a9160048083019260209291908290030181865afa1580156127f0573d6000803e3d6000fd5b600080606a84604051613b699190615260565b90815260408051918290036020908101832060c08401835280546001600160a01b039081168552600182015481169285019290925260028101549091169183019190915260038101546060830152600481018054608084019190613bcc90615225565b80601f0160208091040260200160405190810160405280929190818152602001828054613bf890615225565b8015613c455780601f10613c1a57610100808354040283529160200191613c45565b820191906000526020600020905b815481529060010190602001808311613c2857829003601f168201915b50505091835250506005919091015460ff16151560209091015260a0810151909150613c7090614796565b1515600114613c915760405162461bcd60e51b815260040161166390615419565b600081600001516001600160a01b031663e45080e66040518163ffffffff1660e01b8152600401602060405180830381865afa158015613cd5573d6000803e3d6000fd5b505050506040513d601f19601f82011682018060405250810190613cf9919061527c565b9050600082600001516001600160a01b03166316e17b8d6040518163ffffffff1660e01b8152600401602060405180830381865afa158015613d3f573d6000803e3d6000fd5b505050506040513d601f19601f82011682018060405250810190613d63919061527c565b905060008360600151600a613d789190615550565b613d82908761555c565b845160408087015190516330414fc560e11b81529293506001600160a01b03909116916360829f8a91613dbb913390869060040161557b565b6020604051808303816000875af1158015613dda573d6000803e3d6000fd5b505050506040513d601f19601f82011682018060405250810190613dfe9190615300565b15613eae576000613e0f82856155c4565b90506000613e1d838561560a565b905080848a604051613e2f9190615260565b604051908190038120907f8834bcade58122eb5594c97d7d46171dc644983fafc2663e6728a6eb925a18ba90600090a481858a604051613e6f9190615260565b604051908190038120907f6104fb37beb719c37a4d2a456c761462b5e74ef11d0944a9e3e1b23f21dbb31d90600090a46001965050505050505061121b565b600094505050505061121b565b600080606a83604051613ece9190615260565b90815260408051918290036020908101832060c08401835280546001600160a01b039081168552600182015481169285019290925260028101549091169183019190915260038101546060830152600481018054608084019190613f3190615225565b80601f0160208091040260200160405190810160405280929190818152602001828054613f5d90615225565b8015613faa5780601f10613f7f57610100808354040283529160200191613faa565b820191906000526020600020905b815481529060010190602001808311613f8d57829003601f168201915b50505091835250506005919091015460ff16151560209182015281516040805163383639b360e01b815290519394506001600160a01b039091169263383639b3926004808401939192918290030181865afa158015610bee573d6000803e3d6000fd5b8051602081830181018051606a82529282019190930120915280546001820154600283015460038401546004850180546001600160a01b0395861696948616959093169391926128fc90615225565b6068546040805163e5125d7b60e01b815290516000926001600160a01b03169163e5125d7b9160048083019260209291908290030181865afa1580156127f0573d6000803e3d6000fd5b60006140b061473c565b6001600160a01b0383166000818152606b6020526040808220805460ff191686151590811790915590519092917f99795d51e5a8804307721456a7a9c2f0d7421f719d46a46d36e91fee7c85aa7691a350600192915050565b600061411e606a836040516132ea9190615260565b151560011461413f5760405162461bcd60e51b815260040161166390615419565b606a8260405161414f9190615260565b908152604051908190036020018120546001600160a01b031690638aa82e8290606a9061417d908690615260565b908152604051908190036020018120600201546001600160a01b031690606a906141a8908790615260565b908152604051908190036020018120600101546001600160e01b031960e085901b1682526001600160a01b0392831660048301529190911660248201526044016020604051808303816000875af1158015614207573d6000803e3d6000fd5b505050506040513d601f19601f8201168201806040525081019061422b9190615300565b1515600114156142a257606a826040516142459190615260565b908152604051908190036020018120600101546001600160a01b03169061426d908490615260565b604051908190038120907fd5d2d05dfe0d10d196c53d6f16e6d70e4dbb9cb77fe8682f6c68e9426c29103090600090a36142ff565b60006142ad83612de2565b905060006142ba84611737565b90508181856040516142cc9190615260565b604051908190038120907f5d9beb4943b1823a8d5ffbc059a5d64cf367d9b7aaee9e28a697b842779957d890600090a450505b506001919050565b600061431161473c565b6001600160a01b0383166143565760405162461bcd60e51b815260206004820152600c60248201526b41646472657373205a65726f60a01b6044820152606401611663565b6000846001600160a01b031663313ce5676040518163ffffffff1660e01b8152600401602060405180830381865afa158015614396573d6000803e3d6000fd5b505050506040513d601f19601f820116820180604052508101906143ba91906153b5565b60ff16905060006143cc82600a615550565b6143d6908561555c565b606854604051630be5e47b60e11b81529192506001600160a01b0316906317cbc8f69061440b9089908990869060040161557b565b6020604051808303816000875af115801561442a573d6000803e3d6000fd5b505050506040513d601f19601f8201168201806040525081019061444e9190615300565b5060405184906001600160a01b038816907f189e21cdbf554d2e7158d144a91a275ae2145eaf20b9697ea962df4fba6462c390600090a350600195945050505050565b61449961473c565b6001600160a01b0381166144fe5760405162461bcd60e51b815260206004820152602660248201527f4f776e61626c653a206e6577206f776e657220697320746865207a65726f206160448201526564647265737360d01b6064820152608401611663565b6117008161491e565b600080606a8460405161451a9190615260565b90815260408051918290036020908101832060c08401835280546001600160a01b03908116855260018201548116928501929092526002810154909116918301919091526003810154606083015260048101805460808401919061457d90615225565b80601f01602080910402602001604051908101604052809291908181526020018280546145a990615225565b80156145f65780601f106145cb576101008083540402835291602001916145f6565b820191906000526020600020905b8154815290600101906020018083116145d957829003601f168201915b50505091835250506005919091015460ff16151560209091015260a081015190915061462190614796565b15156001146146425760405162461bcd60e51b815260040161166390615419565b80602001516001600160a01b0316336001600160a01b0316146146775760405162461bcd60e51b815260040161166390615441565b600081600001516001600160a01b031663e45080e66040518163ffffffff1660e01b8152600401602060405180830381865afa1580156146bb573d6000803e3d6000fd5b505050506040513d601f19601f820116820180604052508101906146df919061527c565b905060008260600151600a6146f49190615550565b6146fe908661555c565b905082600001516001600160a01b0316633147096d84604001518560200151846040518463ffffffff1660e01b81526004016127079392919061557b565b6033546001600160a01b0316331461282b5760405162461bcd60e51b815260206004820181905260248201527f4f776e61626c653a2063616c6c6572206973206e6f7420746865206f776e65726044820152606401611663565b600081156142ff57600092915050565b61170061473c565b7f4910fdfa16fed3260ed0e7147f7cc6da11a60208b5b9406d12a635614ffd91435460ff16156147e6576147e18361499f565b505050565b826001600160a01b03166352d1902d6040518163ffffffff1660e01b8152600401602060405180830381865afa925050508015614840575060408051601f3d908101601f1916820190925261483d9181019061527c565b60015b6148a35760405162461bcd60e51b815260206004820152602e60248201527f45524331393637557067726164653a206e657720696d706c656d656e7461746960448201526d6f6e206973206e6f74205555505360901b6064820152608401611663565b60008051602061568083398151915281146149125760405162461bcd60e51b815260206004820152602960248201527f45524331393637557067726164653a20756e737570706f727465642070726f786044820152681a58589b195555525160ba1b6064820152608401611663565b506147e1838383614a3b565b603380546001600160a01b038381166001600160a01b0319831681179093556040519116919082907f8be0079c531659141344cd1fd0a4f28419497f9722a3daafe3b4186f6b6457e090600090a35050565b600054610100900460ff166149975760405162461bcd60e51b815260040161166390615621565b61282b614a60565b6001600160a01b0381163b614a0c5760405162461bcd60e51b815260206004820152602d60248201527f455243313936373a206e657720696d706c656d656e746174696f6e206973206e60448201526c1bdd08184818dbdb9d1c9858dd609a1b6064820152608401611663565b60008051602061568083398151915280546001600160a01b0319166001600160a01b0392909216919091179055565b614a4483614a90565b600082511180614a515750805b156147e15761370b8383614ad0565b600054610100900460ff16614a875760405162461bcd60e51b815260040161166390615621565b61282b3361491e565b614a998161499f565b6040516001600160a01b038216907fbc7cd75a20ee27fd9adebab32041f755214dbc6bffa90cc0225b39da2e5c2d3b90600090a250565b6060610c1283836040518060600160405280602781526020016156a0602791396060600080856001600160a01b031685604051614b0d9190615260565b600060405180830381855af49150503d8060008114614b48576040519150601f19603f3d011682016040523d82523d6000602084013e614b4d565b606091505b5091509150614b5e86838387614b68565b9695505050505050565b60608315614bd4578251614bcd576001600160a01b0385163b614bcd5760405162461bcd60e51b815260206004820152601d60248201527f416464726573733a2063616c6c20746f206e6f6e2d636f6e74726163740000006044820152606401611663565b5081614bde565b614bde8383614be6565b949350505050565b815115614bf65781518083602001fd5b8060405162461bcd60e51b8152600401611663919061566c565b828054614c1c90615225565b90600052602060002090601f016020900481019282614c3e5760008555614c84565b82601f10614c5757805160ff1916838001178555614c84565b82800160010185558215614c84579182015b82811115614c84578251825591602001919060010190614c69565b50614c90929150614c94565b5090565b5b80821115614c905760008155600101614c95565b60005b83811015614cc4578181015183820152602001614cac565b8381111561370b5750506000910152565b60008151808452614ced816020860160208601614ca9565b601f01601f19169290920160200192915050565b60006020808301818452808551808352604092508286019150828160051b87010184880160005b83811015614da757888303603f19018552815180516001600160a01b039081168552888201518116898601528782015116878501526060808201519085015260808082015160c08287018190529190614d8383880182614cd5565b60a09485015115159790940196909652505094870194925090860190600101614d28565b509098975050505050505050565b634e487b7160e01b600052604160045260246000fd5b600082601f830112614ddc57600080fd5b813567ffffffffffffffff80821115614df757614df7614db5565b604051601f8301601f19908116603f01168101908282118183101715614e1f57614e1f614db5565b81604052838152866020858801011115614e3857600080fd5b836020870160208301376000602085830101528094505050505092915050565b600060208284031215614e6a57600080fd5b813567ffffffffffffffff811115614e8157600080fd5b614bde84828501614dcb565b6001600160a01b038116811461170057600080fd5b60008060408385031215614eb557600080fd5b823567ffffffffffffffff811115614ecc57600080fd5b614ed885828601614dcb565b9250506020830135614ee981614e8d565b809150509250929050565b60008060408385031215614f0757600080fd5b8235614f1281614e8d565b91506020830135614ee981614e8d565b600060208284031215614f3457600080fd5b8135610c1281614e8d565b60008060008060808587031215614f5557600080fd5b843567ffffffffffffffff80821115614f6d57600080fd5b614f7988838901614dcb565b95506020870135915080821115614f8f57600080fd5b50614f9c87828801614dcb565b9350506040850135614fad81614e8d565b91506060850135614fbd81614e8d565b939692955090935050565b60008060408385031215614fdb57600080fd5b8235614fe681614e8d565b9150602083013567ffffffffffffffff81111561500257600080fd5b61500e85828601614dcb565b9150509250929050565b60008060006060848603121561502d57600080fd5b833567ffffffffffffffff81111561504457600080fd5b61505086828701614dcb565b9660208601359650604090950135949350505050565b6000806040838503121561507957600080fd5b823567ffffffffffffffff81111561509057600080fd5b61509c85828601614dcb565b95602094909401359450505050565b6000602082840312156150bd57600080fd5b5035919050565b6001600160a01b0387811682528681166020830152851660408201526060810184905260c0608082018190526000906150ff90830185614cd5565b905082151560a0830152979650505050505050565b60008060006060848603121561512957600080fd5b833567ffffffffffffffff81111561514057600080fd5b61514c86828701614dcb565b935050602084013561515d81614e8d565b929592945050506040919091013590565b60008060006060848603121561518357600080fd5b833561518e81614e8d565b9250602084013561519e81614e8d565b915060408401356151ae81614e8d565b809150509250925092565b801515811461170057600080fd5b600080604083850312156151da57600080fd5b82356151e581614e8d565b91506020830135614ee9816151b9565b60008060006060848603121561520a57600080fd5b833561521581614e8d565b9250602084013561515d81614e8d565b600181811c9082168061523957607f821691505b6020821081141561525a57634e487b7160e01b600052602260045260246000fd5b50919050565b60008251615272818460208701614ca9565b9190910192915050565b60006020828403121561528e57600080fd5b5051919050565b634e487b7160e01b600052603260045260246000fd5b634e487b7160e01b600052601160045260246000fd5b60006000198214156152d5576152d56152ab565b5060010190565b600080604083850312156152ef57600080fd5b505080516020909101519092909150565b60006020828403121561531257600080fd5b8151610c12816151b9565b6020808252602c908201527f46756e6374696f6e206d7573742062652063616c6c6564207468726f7567682060408201526b19195b1959d85d1958d85b1b60a21b606082015260800190565b6020808252602c908201527f46756e6374696f6e206d7573742062652063616c6c6564207468726f7567682060408201526b6163746976652070726f787960a01b606082015260800190565b6000602082840312156153c757600080fd5b815160ff81168114610c1257600080fd5b6001600160a01b0383168152604060208201819052600090614bde90830184614cd5565b60006020828403121561540e57600080fd5b8151610c1281614e8d565b6020808252600e908201526d109bdd5b9d1e481a5cc81119585960921b604082015260600190565b6020808252601190820152702737ba10383937b532b1ba1037bbb732b960791b604082015260600190565b600181815b808511156154a757816000190482111561548d5761548d6152ab565b8085161561549a57918102915b93841c9390800290615471565b509250929050565b6000826154be5750600161121b565b816154cb5750600061121b565b81600181146154e157600281146154eb57615507565b600191505061121b565b60ff8411156154fc576154fc6152ab565b50506001821b61121b565b5060208310610133831016604e8410600b841016171561552a575081810a61121b565b615534838361546c565b8060001904821115615548576155486152ab565b029392505050565b6000610c1283836154af565b6000816000190483118215151615615576576155766152ab565b500290565b6001600160a01b039384168152919092166020820152604081019190915260600190565b600080604083850312156155b257600080fd5b825191506020830151614ee9816151b9565b600082198211156155d7576155d76152ab565b500190565b6000806000606084860312156155f157600080fd5b835192506020840151915060408401516151ae816151b9565b60008282101561561c5761561c6152ab565b500390565b6020808252602b908201527f496e697469616c697a61626c653a20636f6e7472616374206973206e6f74206960408201526a6e697469616c697a696e6760a81b606082015260800190565b602081526000610c126020830184614cd556fe360894a13ba1a3210667c828492db98dca3e2076cc3735a920a3ca505d382bbc416464726573733a206c6f772d6c6576656c2064656c65676174652063616c6c206661696c6564a264697066735822122042b90b06a08cdb22bf29230788dc1b4415f5fa2fe44aa14f2ec72e7e2051c51264736f6c634300080a0033",
    "linkReferences": {}
  },
  "methodIdentifiers": {
    "beacon()": "59659e90",
    "billPremiumForAll()": "27e73542",
    "billPremiumForOnePool(string)": "e6b37f6f",
    "bountiesList(uint256)": "7f2f3e5e",
    "bountyDetails(string)": "d7dc56a5",
    "bountyImplementation()": "cae38faa",
    "claimPremium(string)": "666b7030",
    "deployNewBounty(bytes,string,address,address)": "4c0d9a6c",
    "factory()": "c45a0155",
    "getBountyAddressByName(string)": "66b6c647",
    "initialize(address,address,address)": "c0c53b8b",
    "killBounty(string)": "9ca7e787",
    "owner()": "8da5cb5b",
    "payBounty(string,address,uint256)": "bc160761",
    "projectDeposit(string,uint256)": "f4808fea",
    "projectDepositWithdrawal(string,uint256)": "68dd3dbf",
    "proxiableUUID()": "52d1902d",
    "renounceOwnership()": "715018a6",
    "saloonWallet()": "4389e41a",
    "scheduleProjectDepositWithdrawal(string,uint256)": "b8047881",
    "scheduleUnstake(string,uint256)": "d16ad2f7",
    "setBountyCapAndAPY(string,uint256,uint256)": "58b07d5b",
    "stake(string,uint256)": "9494c8ae",
    "tokenWhitelist(address)": "753d7563",
    "transferOwnership(address)": "f2fde38b",
    "unstake(string,uint256)": "d37c92dc",
    "updateBountyPoolImplementation(address)": "53dce856",
    "updateSaloonWallet(address)": "79f99a89",
    "updateTokenWhitelist(address,bool)": "e5e97c65",
    "upgradeTo(address)": "3659cfe6",
    "upgradeToAndCall(address,bytes)": "4f1ef286",
    "viewAllBountiesByName()": "03c46f51",
    "viewBountyBalance(string)": "05234fda",
    "viewBountyInfo(string)": "943eb4f2",
    "viewBountyOwner(string)": "37787926",
    "viewDesiredAPY(string)": "a667b5d0",
    "viewHackerPayout(string)": "0f0df171",
    "viewHunterTotalTokenPayouts(address,address)": "21580322",
    "viewPoolCap(string)": "3ef0c3ed",
    "viewProjectDeposit(string)": "d3c15cdb",
    "viewSaloonBalance()": "a0d07125",
    "viewTotalEarnedSaloon()": "6c948535",
    "viewTotalHackerPayouts()": "c3149590",
    "viewTotalPremiums()": "e5125d7b",
    "viewTotalSaloonCommission()": "d3326a0a",
    "viewUserStakingBalance(string,address)": "15daef49",
    "viewUserTimelock(string,address)": "c8191c54",
    "viewstakersDeposit(string)": "b91cdea7",
    "withdrawSaloon(address,address,uint256)": "f0e6b4ed",
    "withdrawSaloonPremiumFees()": "0e060249"
  },
  "id": 28
}