{
  "abi": [
    {
      "anonymous": false,
      "inputs": [
        {
          "indexed": true,
          "internalType": "string",
          "name": "projectName",
          "type": "string"
        },
        {
          "indexed": true,
          "internalType": "uint256",
          "name": "apy",
          "type": "uint256"
        }
      ],
      "name": "APYChanged",
      "type": "event"
    },
    {
      "anonymous": false,
      "inputs": [
        {
          "indexed": false,
          "internalType": "address",
          "name": "previousAdmin",
          "type": "address"
        },
        {
          "indexed": false,
          "internalType": "address",
          "name": "newAdmin",
          "type": "address"
        }
      ],
      "name": "AdminChanged",
      "type": "event"
    },
    {
      "anonymous": false,
      "inputs": [
        {
          "indexed": true,
          "internalType": "address",
          "name": "beacon",
          "type": "address"
        }
      ],
      "name": "BeaconUpgraded",
      "type": "event"
    },
    {
      "anonymous": false,
      "inputs": [
        {
          "indexed": true,
          "internalType": "string",
          "name": "projectName",
          "type": "string"
        },
        {
          "indexed": true,
          "internalType": "uint256",
          "name": "oldAmount",
          "type": "uint256"
        },
        {
          "indexed": true,
          "internalType": "uint256",
          "name": "newAmount",
          "type": "uint256"
        }
      ],
      "name": "BountyBalanceChanged",
      "type": "event"
    },
    {
      "anonymous": false,
      "inputs": [
        {
          "indexed": true,
          "internalType": "string",
          "name": "projectName",
          "type": "string"
        }
      ],
      "name": "BountyKilled",
      "type": "event"
    },
    {
      "anonymous": false,
      "inputs": [
        {
          "indexed": true,
          "internalType": "uint256",
          "name": "time",
          "type": "uint256"
        },
        {
          "indexed": true,
          "internalType": "address",
          "name": "hunter",
          "type": "address"
        },
        {
          "indexed": true,
          "internalType": "uint256",
          "name": "amount",
          "type": "uint256"
        },
        {
          "indexed": false,
          "internalType": "address",
          "name": "token",
          "type": "address"
        }
      ],
      "name": "BountyPaid",
      "type": "event"
    },
    {
      "anonymous": false,
      "inputs": [
        {
          "indexed": true,
          "internalType": "address",
          "name": "newImplementation",
          "type": "address"
        }
      ],
      "name": "BountyPoolImplementationUpdated",
      "type": "event"
    },
    {
      "anonymous": false,
      "inputs": [
        {
          "indexed": true,
          "internalType": "address",
          "name": "sender",
          "type": "address"
        },
        {
          "indexed": true,
          "internalType": "address",
          "name": "_projectWallet",
          "type": "address"
        },
        {
          "indexed": false,
          "internalType": "contract BountyPool",
          "name": "newProxyAddress",
          "type": "address"
        }
      ],
      "name": "DeployNewBounty",
      "type": "event"
    },
    {
      "anonymous": false,
      "inputs": [
        {
          "indexed": false,
          "internalType": "uint8",
          "name": "version",
          "type": "uint8"
        }
      ],
      "name": "Initialized",
      "type": "event"
    },
    {
      "anonymous": false,
      "inputs": [
        {
          "indexed": true,
          "internalType": "address",
          "name": "previousOwner",
          "type": "address"
        },
        {
          "indexed": true,
          "internalType": "address",
          "name": "newOwner",
          "type": "address"
        }
      ],
      "name": "OwnershipTransferred",
      "type": "event"
    },
    {
      "anonymous": false,
      "inputs": [
        {
          "indexed": true,
          "internalType": "string",
          "name": "projectName",
          "type": "string"
        },
        {
          "indexed": true,
          "internalType": "uint256",
          "name": "poolCap",
          "type": "uint256"
        }
      ],
      "name": "PoolCapChanged",
      "type": "event"
    },
    {
      "anonymous": false,
      "inputs": [
        {
          "indexed": true,
          "internalType": "string",
          "name": "projectName",
          "type": "string"
        },
        {
          "indexed": true,
          "internalType": "address",
          "name": "projectWallet",
          "type": "address"
        }
      ],
      "name": "PremiumBilled",
      "type": "event"
    },
    {
      "anonymous": false,
      "inputs": [
        {
          "indexed": true,
          "internalType": "address",
          "name": "token",
          "type": "address"
        },
        {
          "indexed": true,
          "internalType": "uint256",
          "name": "amount",
          "type": "uint256"
        }
      ],
      "name": "SaloonFundsWithdrawal",
      "type": "event"
    },
    {
      "anonymous": false,
      "inputs": [
        {
          "indexed": true,
          "internalType": "uint256",
          "name": "totalCollected",
          "type": "uint256"
        }
      ],
      "name": "SaloonPremiumCollected",
      "type": "event"
    },
    {
      "anonymous": false,
      "inputs": [
        {
          "indexed": true,
          "internalType": "string",
          "name": "projectName",
          "type": "string"
        },
        {
          "indexed": true,
          "internalType": "uint256",
          "name": "previousStaked",
          "type": "uint256"
        },
        {
          "indexed": true,
          "internalType": "uint256",
          "name": "newStaked",
          "type": "uint256"
        }
      ],
      "name": "StakedAmountChanged",
      "type": "event"
    },
    {
      "anonymous": false,
      "inputs": [
        {
          "indexed": true,
          "internalType": "address",
          "name": "implementation",
          "type": "address"
        }
      ],
      "name": "Upgraded",
      "type": "event"
    },
    {
      "anonymous": false,
      "inputs": [
        {
          "indexed": true,
          "internalType": "string",
          "name": "projectName",
          "type": "string"
        },
        {
          "indexed": true,
          "internalType": "uint256",
          "name": "amount",
          "type": "uint256"
        }
      ],
      "name": "WithdrawalorUnstakeScheduled",
      "type": "event"
    },
    {
      "anonymous": false,
      "inputs": [
        {
          "indexed": true,
          "internalType": "address",
          "name": "token",
          "type": "address"
        },
        {
          "indexed": true,
          "internalType": "bool",
          "name": "whitelisted",
          "type": "bool"
        }
      ],
      "name": "tokenWhitelistUpdated",
      "type": "event"
    },
    {
      "inputs": [],
      "name": "beacon",
      "outputs": [
        {
          "internalType": "contract UpgradeableBeacon",
          "name": "",
          "type": "address"
        }
      ],
      "stateMutability": "view",
      "type": "function"
    },
    {
      "inputs": [],
      "name": "billPremiumForAll",
      "outputs": [
        {
          "internalType": "bool",
          "name": "",
          "type": "bool"
        }
      ],
      "stateMutability": "nonpayable",
      "type": "function"
    },
    {
      "inputs": [
        {
          "internalType": "string",
          "name": "_projectName",
          "type": "string"
        }
      ],
      "name": "billPremiumForOnePool",
      "outputs": [
        {
          "internalType": "bool",
          "name": "",
          "type": "bool"
        }
      ],
      "stateMutability": "nonpayable",
      "type": "function"
    },
    {
      "inputs": [
        {
          "internalType": "uint256",
          "name": "",
          "type": "uint256"
        }
      ],
      "name": "bountiesList",
      "outputs": [
        {
          "internalType": "contract BountyPool",
          "name": "proxyAddress",
          "type": "address"
        },
        {
          "internalType": "address",
          "name": "projectWallet",
          "type": "address"
        },
        {
          "internalType": "address",
          "name": "token",
          "type": "address"
        },
        {
          "internalType": "uint256",
          "name": "decimals",
          "type": "uint256"
        },
        {
          "internalType": "string",
          "name": "projectName",
          "type": "string"
        },
        {
          "internalType": "bool",
          "name": "dead",
          "type": "bool"
        }
      ],
      "stateMutability": "view",
      "type": "function"
    },
    {
      "inputs": [
        {
          "internalType": "string",
          "name": "",
          "type": "string"
        }
      ],
      "name": "bountyDetails",
      "outputs": [
        {
          "internalType": "contract BountyPool",
          "name": "proxyAddress",
          "type": "address"
        },
        {
          "internalType": "address",
          "name": "projectWallet",
          "type": "address"
        },
        {
          "internalType": "address",
          "name": "token",
          "type": "address"
        },
        {
          "internalType": "uint256",
          "name": "decimals",
          "type": "uint256"
        },
        {
          "internalType": "string",
          "name": "projectName",
          "type": "string"
        },
        {
          "internalType": "bool",
          "name": "dead",
          "type": "bool"
        }
      ],
      "stateMutability": "view",
      "type": "function"
    },
    {
      "inputs": [],
      "name": "bountyImplementation",
      "outputs": [
        {
          "internalType": "address",
          "name": "",
          "type": "address"
        }
      ],
      "stateMutability": "view",
      "type": "function"
    },
    {
      "inputs": [
        {
          "internalType": "string",
          "name": "_projectName",
          "type": "string"
        }
      ],
      "name": "claimPremium",
      "outputs": [
        {
          "internalType": "uint256",
          "name": "",
          "type": "uint256"
        }
      ],
      "stateMutability": "nonpayable",
      "type": "function"
    },
    {
      "inputs": [
        {
          "internalType": "bytes",
          "name": "_data",
          "type": "bytes"
        },
        {
          "internalType": "string",
          "name": "_projectName",
          "type": "string"
        },
        {
          "internalType": "address",
          "name": "_token",
          "type": "address"
        },
        {
          "internalType": "address",
          "name": "_projectWallet",
          "type": "address"
        }
      ],
      "name": "deployNewBounty",
      "outputs": [
        {
          "internalType": "contract BountyPool",
          "name": "",
          "type": "address"
        },
        {
          "internalType": "bool",
          "name": "",
          "type": "bool"
        }
      ],
      "stateMutability": "nonpayable",
      "type": "function"
    },
    {
      "inputs": [],
      "name": "factory",
      "outputs": [
        {
          "internalType": "contract BountyProxyFactory",
          "name": "",
          "type": "address"
        }
      ],
      "stateMutability": "view",
      "type": "function"
    },
    {
      "inputs": [
        {
          "internalType": "string",
          "name": "_projectName",
          "type": "string"
        }
      ],
      "name": "getBountyAddressByName",
      "outputs": [
        {
          "internalType": "address",
          "name": "",
          "type": "address"
        }
      ],
      "stateMutability": "view",
      "type": "function"
    },
    {
      "inputs": [
        {
          "internalType": "contract BountyProxyFactory",
          "name": "_factory",
          "type": "address"
        },
        {
          "internalType": "contract UpgradeableBeacon",
          "name": "_beacon",
          "type": "address"
        },
        {
          "internalType": "address",
          "name": "_bountyImplementation",
          "type": "address"
        }
      ],
      "name": "initialize",
      "outputs": [],
      "stateMutability": "nonpayable",
      "type": "function"
    },
    {
      "inputs": [
        {
          "internalType": "string",
          "name": "_projectName",
          "type": "string"
        }
      ],
      "name": "killBounty",
      "outputs": [
        {
          "internalType": "bool",
          "name": "",
          "type": "bool"
        }
      ],
      "stateMutability": "nonpayable",
      "type": "function"
    },
    {
      "inputs": [],
      "name": "owner",
      "outputs": [
        {
          "internalType": "address",
          "name": "",
          "type": "address"
        }
      ],
      "stateMutability": "view",
      "type": "function"
    },
    {
      "inputs": [
        {
          "internalType": "string",
          "name": "_projectName",
          "type": "string"
        },
        {
          "internalType": "address",
          "name": "_hunter",
          "type": "address"
        },
        {
          "internalType": "uint256",
          "name": "_amount",
          "type": "uint256"
        }
      ],
      "name": "payBounty",
      "outputs": [
        {
          "internalType": "bool",
          "name": "",
          "type": "bool"
        }
      ],
      "stateMutability": "nonpayable",
      "type": "function"
    },
    {
      "inputs": [
        {
          "internalType": "string",
          "name": "_projectName",
          "type": "string"
        },
        {
          "internalType": "uint256",
          "name": "_amount",
          "type": "uint256"
        }
      ],
      "name": "projectDeposit",
      "outputs": [
        {
          "internalType": "bool",
          "name": "",
          "type": "bool"
        }
      ],
      "stateMutability": "nonpayable",
      "type": "function"
    },
    {
      "inputs": [
        {
          "internalType": "string",
          "name": "_projectName",
          "type": "string"
        },
        {
          "internalType": "uint256",
          "name": "_amount",
          "type": "uint256"
        }
      ],
      "name": "projectDepositWithdrawal",
      "outputs": [
        {
          "internalType": "bool",
          "name": "",
          "type": "bool"
        }
      ],
      "stateMutability": "nonpayable",
      "type": "function"
    },
    {
      "inputs": [],
      "name": "proxiableUUID",
      "outputs": [
        {
          "internalType": "bytes32",
          "name": "",
          "type": "bytes32"
        }
      ],
      "stateMutability": "view",
      "type": "function"
    },
    {
      "inputs": [],
      "name": "renounceOwnership",
      "outputs": [],
      "stateMutability": "nonpayable",
      "type": "function"
    },
    {
      "inputs": [],
      "name": "saloonWallet",
      "outputs": [
        {
          "internalType": "contract SaloonWallet",
          "name": "",
          "type": "address"
        }
      ],
      "stateMutability": "view",
      "type": "function"
    },
    {
      "inputs": [
        {
          "internalType": "string",
          "name": "_projectName",
          "type": "string"
        },
        {
          "internalType": "uint256",
          "name": "_newAPY",
          "type": "uint256"
        }
      ],
      "name": "scheduleAPYChange",
      "outputs": [
        {
          "internalType": "bool",
          "name": "",
          "type": "bool"
        }
      ],
      "stateMutability": "nonpayable",
      "type": "function"
    },
    {
      "inputs": [
        {
          "internalType": "string",
          "name": "_projectName",
          "type": "string"
        },
        {
          "internalType": "uint256",
          "name": "_newPoolCap",
          "type": "uint256"
        }
      ],
      "name": "schedulePoolCapChange",
      "outputs": [
        {
          "internalType": "bool",
          "name": "",
          "type": "bool"
        }
      ],
      "stateMutability": "nonpayable",
      "type": "function"
    },
    {
      "inputs": [
        {
          "internalType": "string",
          "name": "_projectName",
          "type": "string"
        },
        {
          "internalType": "uint256",
          "name": "_amount",
          "type": "uint256"
        }
      ],
      "name": "scheduleProjectDepositWithdrawal",
      "outputs": [
        {
          "internalType": "bool",
          "name": "",
          "type": "bool"
        }
      ],
      "stateMutability": "nonpayable",
      "type": "function"
    },
    {
      "inputs": [
        {
          "internalType": "string",
          "name": "_projectName",
          "type": "string"
        },
        {
          "internalType": "uint256",
          "name": "_amount",
          "type": "uint256"
        }
      ],
      "name": "scheduleUnstake",
      "outputs": [
        {
          "internalType": "bool",
          "name": "",
          "type": "bool"
        }
      ],
      "stateMutability": "nonpayable",
      "type": "function"
    },
    {
      "inputs": [
        {
          "internalType": "string",
          "name": "_projectName",
          "type": "string"
        },
        {
          "internalType": "uint256",
          "name": "_newAPY",
          "type": "uint256"
        }
      ],
      "name": "setAPY",
      "outputs": [
        {
          "internalType": "bool",
          "name": "",
          "type": "bool"
        }
      ],
      "stateMutability": "nonpayable",
      "type": "function"
    },
    {
      "inputs": [
        {
          "internalType": "string",
          "name": "_projectName",
          "type": "string"
        },
        {
          "internalType": "uint256",
          "name": "_poolCap",
          "type": "uint256"
        },
        {
          "internalType": "uint256",
          "name": "_desiredAPY",
          "type": "uint256"
        }
      ],
      "name": "setBountyCapAndAPY",
      "outputs": [
        {
          "internalType": "bool",
          "name": "",
          "type": "bool"
        }
      ],
      "stateMutability": "nonpayable",
      "type": "function"
    },
    {
      "inputs": [
        {
          "internalType": "string",
          "name": "_projectName",
          "type": "string"
        },
        {
          "internalType": "uint256",
          "name": "_newPoolCap",
          "type": "uint256"
        }
      ],
      "name": "setPoolCap",
      "outputs": [
        {
          "internalType": "bool",
          "name": "",
          "type": "bool"
        }
      ],
      "stateMutability": "nonpayable",
      "type": "function"
    },
    {
      "inputs": [
        {
          "internalType": "string",
          "name": "_projectName",
          "type": "string"
        },
        {
          "internalType": "uint256",
          "name": "_amount",
          "type": "uint256"
        }
      ],
      "name": "stake",
      "outputs": [
        {
          "internalType": "bool",
          "name": "",
          "type": "bool"
        }
      ],
      "stateMutability": "nonpayable",
      "type": "function"
    },
    {
      "inputs": [
        {
          "internalType": "address",
          "name": "",
          "type": "address"
        }
      ],
      "name": "tokenWhitelist",
      "outputs": [
        {
          "internalType": "bool",
          "name": "",
          "type": "bool"
        }
      ],
      "stateMutability": "view",
      "type": "function"
    },
    {
      "inputs": [
        {
          "internalType": "address",
          "name": "newOwner",
          "type": "address"
        }
      ],
      "name": "transferOwnership",
      "outputs": [],
      "stateMutability": "nonpayable",
      "type": "function"
    },
    {
      "inputs": [
        {
          "internalType": "string",
          "name": "_projectName",
          "type": "string"
        },
        {
          "internalType": "uint256",
          "name": "_amount",
          "type": "uint256"
        }
      ],
      "name": "unstake",
      "outputs": [
        {
          "internalType": "bool",
          "name": "",
          "type": "bool"
        }
      ],
      "stateMutability": "nonpayable",
      "type": "function"
    },
    {
      "inputs": [
        {
          "internalType": "address",
          "name": "_newImplementation",
          "type": "address"
        }
      ],
      "name": "updateBountyPoolImplementation",
      "outputs": [
        {
          "internalType": "bool",
          "name": "",
          "type": "bool"
        }
      ],
      "stateMutability": "nonpayable",
      "type": "function"
    },
    {
      "inputs": [
        {
          "internalType": "address",
          "name": "_newWallet",
          "type": "address"
        }
      ],
      "name": "updateSaloonWallet",
      "outputs": [],
      "stateMutability": "nonpayable",
      "type": "function"
    },
    {
      "inputs": [
        {
          "internalType": "address",
          "name": "_token",
          "type": "address"
        },
        {
          "internalType": "bool",
          "name": "_whitelisted",
          "type": "bool"
        }
      ],
      "name": "updateTokenWhitelist",
      "outputs": [
        {
          "internalType": "bool",
          "name": "",
          "type": "bool"
        }
      ],
      "stateMutability": "nonpayable",
      "type": "function"
    },
    {
      "inputs": [
        {
          "internalType": "address",
          "name": "newImplementation",
          "type": "address"
        }
      ],
      "name": "upgradeTo",
      "outputs": [],
      "stateMutability": "nonpayable",
      "type": "function"
    },
    {
      "inputs": [
        {
          "internalType": "address",
          "name": "newImplementation",
          "type": "address"
        },
        {
          "internalType": "bytes",
          "name": "data",
          "type": "bytes"
        }
      ],
      "name": "upgradeToAndCall",
      "outputs": [],
      "stateMutability": "payable",
      "type": "function"
    },
    {
      "inputs": [],
      "name": "viewAllBountiesByName",
      "outputs": [
        {
          "components": [
            {
              "internalType": "contract BountyPool",
              "name": "proxyAddress",
              "type": "address"
            },
            {
              "internalType": "address",
              "name": "projectWallet",
              "type": "address"
            },
            {
              "internalType": "address",
              "name": "token",
              "type": "address"
            },
            {
              "internalType": "uint256",
              "name": "decimals",
              "type": "uint256"
            },
            {
              "internalType": "string",
              "name": "projectName",
              "type": "string"
            },
            {
              "internalType": "bool",
              "name": "dead",
              "type": "bool"
            }
          ],
          "internalType": "struct BountyProxiesManager.Bounties[]",
          "name": "",
          "type": "tuple[]"
        }
      ],
      "stateMutability": "view",
      "type": "function"
    },
    {
      "inputs": [
        {
          "internalType": "string",
          "name": "_projectName",
          "type": "string"
        }
      ],
      "name": "viewBountyBalance",
      "outputs": [
        {
          "internalType": "uint256",
          "name": "",
          "type": "uint256"
        }
      ],
      "stateMutability": "view",
      "type": "function"
    },
    {
      "inputs": [
        {
          "internalType": "string",
          "name": "_projectName",
          "type": "string"
        }
      ],
      "name": "viewBountyInfo",
      "outputs": [
        {
          "internalType": "uint256",
          "name": "payout",
          "type": "uint256"
        },
        {
          "internalType": "uint256",
          "name": "apy",
          "type": "uint256"
        },
        {
          "internalType": "uint256",
          "name": "staked",
          "type": "uint256"
        },
        {
          "internalType": "uint256",
          "name": "poolCap",
          "type": "uint256"
        }
      ],
      "stateMutability": "view",
      "type": "function"
    },
    {
      "inputs": [
        {
          "internalType": "string",
          "name": "_projectName",
          "type": "string"
        }
      ],
      "name": "viewBountyOwner",
      "outputs": [
        {
          "internalType": "address",
          "name": "",
          "type": "address"
        }
      ],
      "stateMutability": "view",
      "type": "function"
    },
    {
      "inputs": [
        {
          "internalType": "string",
          "name": "_projectName",
          "type": "string"
        }
      ],
      "name": "viewDesiredAPY",
      "outputs": [
        {
          "internalType": "uint256",
          "name": "",
          "type": "uint256"
        }
      ],
      "stateMutability": "view",
      "type": "function"
    },
    {
      "inputs": [
        {
          "internalType": "string",
          "name": "_projectName",
          "type": "string"
        }
      ],
      "name": "viewHackerPayout",
      "outputs": [
        {
          "internalType": "uint256",
          "name": "",
          "type": "uint256"
        }
      ],
      "stateMutability": "view",
      "type": "function"
    },
    {
      "inputs": [
        {
          "internalType": "address",
          "name": "_token",
          "type": "address"
        },
        {
          "internalType": "address",
          "name": "_hunter",
          "type": "address"
        }
      ],
      "name": "viewHunterTotalTokenPayouts",
      "outputs": [
        {
          "internalType": "uint256",
          "name": "",
          "type": "uint256"
        }
      ],
      "stateMutability": "view",
      "type": "function"
    },
    {
      "inputs": [
        {
          "internalType": "string",
          "name": "_projectName",
          "type": "string"
        }
      ],
      "name": "viewPoolCap",
      "outputs": [
        {
          "internalType": "uint256",
          "name": "",
          "type": "uint256"
        }
      ],
      "stateMutability": "view",
      "type": "function"
    },
    {
      "inputs": [
        {
          "internalType": "string",
          "name": "_projectName",
          "type": "string"
        }
      ],
      "name": "viewProjectDeposit",
      "outputs": [
        {
          "internalType": "uint256",
          "name": "",
          "type": "uint256"
        }
      ],
      "stateMutability": "view",
      "type": "function"
    },
    {
      "inputs": [],
      "name": "viewSaloonBalance",
      "outputs": [
        {
          "internalType": "uint256",
          "name": "",
          "type": "uint256"
        }
      ],
      "stateMutability": "view",
      "type": "function"
    },
    {
      "inputs": [],
      "name": "viewTotalEarnedSaloon",
      "outputs": [
        {
          "internalType": "uint256",
          "name": "",
          "type": "uint256"
        }
      ],
      "stateMutability": "view",
      "type": "function"
    },
    {
      "inputs": [],
      "name": "viewTotalHackerPayouts",
      "outputs": [
        {
          "internalType": "uint256",
          "name": "",
          "type": "uint256"
        }
      ],
      "stateMutability": "view",
      "type": "function"
    },
    {
      "inputs": [],
      "name": "viewTotalSaloonCommission",
      "outputs": [
        {
          "internalType": "uint256",
          "name": "",
          "type": "uint256"
        }
      ],
      "stateMutability": "view",
      "type": "function"
    },
    {
      "inputs": [
        {
          "internalType": "string",
          "name": "_projectName",
          "type": "string"
        },
        {
          "internalType": "address",
          "name": "_staker",
          "type": "address"
        }
      ],
      "name": "viewUserStakingBalance",
      "outputs": [
        {
          "internalType": "uint256",
          "name": "",
          "type": "uint256"
        }
      ],
      "stateMutability": "view",
      "type": "function"
    },
    {
      "inputs": [
        {
          "internalType": "string",
          "name": "_projectName",
          "type": "string"
        },
        {
          "internalType": "address",
          "name": "_staker",
          "type": "address"
        }
      ],
      "name": "viewUserTimelock",
      "outputs": [
        {
          "internalType": "uint256",
          "name": "timelock",
          "type": "uint256"
        },
        {
          "internalType": "uint256",
          "name": "amount",
          "type": "uint256"
        },
        {
          "internalType": "bool",
          "name": "executed",
          "type": "bool"
        }
      ],
      "stateMutability": "view",
      "type": "function"
    },
    {
      "inputs": [
        {
          "internalType": "string",
          "name": "_projectName",
          "type": "string"
        }
      ],
      "name": "viewstakersDeposit",
      "outputs": [
        {
          "internalType": "uint256",
          "name": "",
          "type": "uint256"
        }
      ],
      "stateMutability": "view",
      "type": "function"
    },
    {
      "inputs": [
        {
          "internalType": "address",
          "name": "_token",
          "type": "address"
        },
        {
          "internalType": "address",
          "name": "_to",
          "type": "address"
        },
        {
          "internalType": "uint256",
          "name": "_amount",
          "type": "uint256"
        }
      ],
      "name": "withdrawSaloon",
      "outputs": [
        {
          "internalType": "bool",
          "name": "",
          "type": "bool"
        }
      ],
      "stateMutability": "nonpayable",
      "type": "function"
    },
    {
      "inputs": [],
      "name": "withdrawSaloonPremiumFees",
      "outputs": [
        {
          "internalType": "bool",
          "name": "",
          "type": "bool"
        }
      ],
      "stateMutability": "nonpayable",
      "type": "function"
    }
  ],
  "bytecode": {
    "object": "0x60a06040523060805234801561001457600080fd5b50608051615fdc6200004d6000396000818161194c0152818161198c015281816120ba015281816120fa015261218d0152615fdc6000f3fe60806040526004361061031a5760003560e01c80637f2f3e5e116101ab578063c45a0155116100f7578063d70ef6f411610095578063e6b37f6f1161006f578063e6b37f6f14610995578063f0e6b4ed146109b5578063f2fde38b146109d5578063f4808fea146109f557600080fd5b8063d70ef6f414610935578063d7dc56a514610955578063e5e97c651461097557600080fd5b8063d16ad2f7116100d1578063d16ad2f7146108c0578063d3326a0a146108e0578063d37c92dc146108f5578063d3c15cdb1461091557600080fd5b8063c45a015514610843578063c8191c5414610863578063cae38faa146108a057600080fd5b8063a1f0b84211610164578063b91cdea71161013e578063b91cdea7146107ce578063bc160761146107ee578063c0c53b8b1461080e578063c31495901461082e57600080fd5b8063a1f0b8421461076e578063a667b5d01461078e578063b8047881146107ae57600080fd5b80637f2f3e5e146106895780638da5cb5b146106bb578063943eb4f2146106d95780639494c8ae146107195780639ca7e78714610739578063a0d071251461075957600080fd5b80634f1ef2861161026a57806366b6c64711610223578063715018a6116101fd578063715018a614610604578063753d7563146106195780637611fc621461064957806379f99a891461066957600080fd5b806366b6c647146105af57806368dd3dbf146105cf5780636c948535146105ef57600080fd5b80634f1ef2861461050757806352d1902d1461051a57806353dce8561461052f57806358b07d5b1461054f57806359659e901461056f578063666b70301461058f57600080fd5b806321580322116102d757806337787926116102b157806337787926146104505780633ef0c3ed146104885780634389e41a146104a85780634c0d9a6c146104c857600080fd5b806321580322146103f957806327e73542146104195780633659cfe61461042e57600080fd5b806301f5b1ff1461031f57806303c46f511461035457806305234fda146103765780630e060249146103a45780630f0df171146103b957806315daef49146103d9575b600080fd5b34801561032b57600080fd5b5061033f61033a3660046155ec565b610a15565b60405190151581526020015b60405180910390f35b34801561036057600080fd5b50610369610c43565b60405161034b9190615689565b34801561038257600080fd5b5061039661039136600461573d565b610d82565b60405190815260200161034b565b3480156103b057600080fd5b5061033f610eff565b3480156103c557600080fd5b506103966103d436600461573d565b61123a565b3480156103e557600080fd5b506103966103f4366004615787565b61138c565b34801561040557600080fd5b506103966104143660046157d9565b611511565b34801561042557600080fd5b5061033f611564565b34801561043a57600080fd5b5061044e610449366004615807565b611941565b005b34801561045c57600080fd5b5061047061046b36600461573d565b611a21565b6040516001600160a01b03909116815260200161034b565b34801561049457600080fd5b506103966104a336600461573d565b611a55565b3480156104b457600080fd5b50606854610470906001600160a01b031681565b3480156104d457600080fd5b506104e86104e3366004615824565b611baa565b604080516001600160a01b03909316835290151560208301520161034b565b61044e6105153660046158ad565b6120af565b34801561052657600080fd5b50610396612180565b34801561053b57600080fd5b5061033f61054a366004615807565b612233565b34801561055b57600080fd5b5061033f61056a3660046158fd565b61231d565b34801561057b57600080fd5b50606654610470906001600160a01b031681565b34801561059b57600080fd5b506103966105aa36600461573d565b61260e565b3480156105bb57600080fd5b506104706105ca36600461573d565b6127d9565b3480156105db57600080fd5b5061033f6105ea3660046155ec565b61280a565b3480156105fb57600080fd5b50610396612ade565b34801561061057600080fd5b5061044e612b51565b34801561062557600080fd5b5061033f610634366004615807565b606b6020526000908152604090205460ff1681565b34801561065557600080fd5b5061033f6106643660046155ec565b612b65565b34801561067557600080fd5b5061044e610684366004615807565b612dac565b34801561069557600080fd5b506106a96106a436600461594b565b612e23565b60405161034b96959493929190615964565b3480156106c757600080fd5b506033546001600160a01b0316610470565b3480156106e557600080fd5b506106f96106f436600461573d565b612f07565b60408051948552602085019390935291830152606082015260800161034b565b34801561072557600080fd5b5061033f6107343660046155ec565b612f40565b34801561074557600080fd5b5061033f61075436600461573d565b613294565b34801561076557600080fd5b50610396613317565b34801561077a57600080fd5b5061033f6107893660046155ec565b613361565b34801561079a57600080fd5b506103966107a936600461573d565b613558565b3480156107ba57600080fd5b5061033f6107c93660046155ec565b6136aa565b3480156107da57600080fd5b506103966107e936600461573d565b6138f1565b3480156107fa57600080fd5b5061033f6108093660046159b4565b613a43565b34801561081a57600080fd5b5061044e610829366004615a0e565b613d36565b34801561083a57600080fd5b50610396613e87565b34801561084f57600080fd5b50606554610470906001600160a01b031681565b34801561086f57600080fd5b5061088361087e366004615787565b613ed1565b60408051938452602084019290925215159082015260600161034b565b3480156108ac57600080fd5b50606754610470906001600160a01b031681565b3480156108cc57600080fd5b5061033f6108db3660046155ec565b61405b565b3480156108ec57600080fd5b50610396614253565b34801561090157600080fd5b5061033f6109103660046155ec565b61429d565b34801561092157600080fd5b5061039661093036600461573d565b6145d5565b34801561094157600080fd5b5061033f6109503660046155ec565b614727565b34801561096157600080fd5b506106a961097036600461573d565b6148e5565b34801561098157600080fd5b5061033f610990366004615a67565b614934565b3480156109a157600080fd5b5061033f6109b036600461573d565b614997565b3480156109c157600080fd5b5061033f6109d0366004615a95565b614baf565b3480156109e157600080fd5b5061044e6109f0366004615807565b614d31565b348015610a0157600080fd5b5061033f610a103660046155ec565b614da7565b600080606a84604051610a289190615ac5565b90815260408051918290036020908101832060c08401835280546001600160a01b039081168552600182015481169285019290925260028101549091169183019190915260038101546060830152600481018054608084019190610a8b90615ae1565b80601f0160208091040260200160405190810160405280929190818152602001828054610ab790615ae1565b8015610b045780601f10610ad957610100808354040283529160200191610b04565b820191906000526020600020905b815481529060010190602001808311610ae757829003601f168201915b50505091835250506005919091015460ff16151560209091015260a0810151909150610b2f90614fdc565b1515600114610b595760405162461bcd60e51b8152600401610b5090615b1c565b60405180910390fd5b80602001516001600160a01b0316336001600160a01b031614610b8e5760405162461bcd60e51b8152600401610b5090615b44565b60008160600151600a610ba19190615c69565b610bab9085615c75565b825160405163d835f53560e01b8152600481018390529192506001600160a01b03169063d835f53590602401600060405180830381600087803b158015610bf157600080fd5b505af1158015610c05573d6000803e3d6000fd5b505050508085604051610c189190615ac5565b60405190819003812090600080516020615f2083398151915290600090a36001925050505b92915050565b60606069805480602002602001604051908101604052809291908181526020016000905b82821015610d795760008481526020908190206040805160c0810182526006860290920180546001600160a01b039081168452600182015481169484019490945260028101549093169082015260038201546060820152600482018054919291608084019190610cd690615ae1565b80601f0160208091040260200160405190810160405280929190818152602001828054610d0290615ae1565b8015610d4f5780601f10610d2457610100808354040283529160200191610d4f565b820191906000526020600020905b815481529060010190602001808311610d3257829003601f168201915b50505091835250506005919091015460ff1615156020918201529082526001929092019101610c67565b50505050905090565b600080606a83604051610d959190615ac5565b90815260408051918290036020908101832060c08401835280546001600160a01b039081168552600182015481169285019290925260028101549091169183019190915260038101546060830152600481018054608084019190610df890615ae1565b80601f0160208091040260200160405190810160405280929190818152602001828054610e2490615ae1565b8015610e715780601f10610e4657610100808354040283529160200191610e71565b820191906000526020600020905b815481529060010190602001808311610e5457829003601f168201915b50505091835250506005919091015460ff161515602091820152815160408051637228407360e11b815290519394506001600160a01b039091169263e45080e6926004808401939192918290030181865afa158015610ed4573d6000803e3d6000fd5b505050506040513d601f19601f82011682018060405250810190610ef89190615c94565b9392505050565b6000610f09614fec565b60006069805480602002602001604051908101604052809291908181526020016000905b8282101561103f5760008481526020908190206040805160c0810182526006860290920180546001600160a01b039081168452600182015481169484019490945260028101549093169082015260038201546060820152600482018054919291608084019190610f9c90615ae1565b80601f0160208091040260200160405190810160405280929190818152602001828054610fc890615ae1565b80156110155780601f10610fea57610100808354040283529160200191611015565b820191906000526020600020905b815481529060010190602001808311610ff857829003601f168201915b50505091835250506005919091015460ff1615156020918201529082526001929092019101610f2d565b5050505090506000815190506000805b828110156112045761107d84828151811061106c5761106c615cad565b602002602001015160a00151614fdc565b611086576111f4565b600084828151811061109a5761109a615cad565b6020026020010151600001516001600160a01b0316635121ac9d8684815181106110c6576110c6615cad565b6020908102919091010151604090810151606854915160e084901b6001600160e01b03191681526001600160a01b039182166004820152911660248201526044016020604051808303816000875af1158015611126573d6000803e3d6000fd5b505050506040513d601f19601f8201168201806040525081019061114a9190615c94565b60685486519192506001600160a01b0316906383ab93049087908590811061117457611174615cad565b602002602001015160400151836040518363ffffffff1660e01b81526004016111b29291906001600160a01b03929092168252602082015260400190565b600060405180830381600087803b1580156111cc57600080fd5b505af11580156111e0573d6000803e3d6000fd5b5050505080836111f09190615cc3565b9250505b6111fd81615cdb565b905061104f565b5060405181907ff61dcc40e5f2c6bc5b24cb6f24690965e673c4c563bbf94cbbdaff36bffde00b90600090a26001935050505090565b600080606a8360405161124d9190615ac5565b90815260408051918290036020908101832060c08401835280546001600160a01b0390811685526001820154811692850192909252600281015490911691830191909152600381015460608301526004810180546080840191906112b090615ae1565b80601f01602080910402602001604051908101604052809291908181526020018280546112dc90615ae1565b80156113295780601f106112fe57610100808354040283529160200191611329565b820191906000526020600020905b81548152906001019060200180831161130c57829003601f168201915b50505091835250506005919091015460ff161515602091820152815160408051634a94bcb360e01b815290519394506001600160a01b0390911692634a94bcb3926004808401939192918290030181865afa158015610ed4573d6000803e3d6000fd5b600080606a8460405161139f9190615ac5565b90815260408051918290036020908101832060c08401835280546001600160a01b03908116855260018201548116928501929092526002810154909116918301919091526003810154606083015260048101805460808401919061140290615ae1565b80601f016020809104026020016040519081016040528092919081815260200182805461142e90615ae1565b801561147b5780601f106114505761010080835404028352916020019161147b565b820191906000526020600020905b81548152906001019060200180831161145e57829003601f168201915b50505091835250506005919091015460ff1615156020909101528051604051631a89cabd60e01b81526001600160a01b03868116600483015292935060009290911690631a89cabd906024016040805180830381865afa1580156114e3573d6000803e3d6000fd5b505050506040513d601f19601f820116820180604052508101906115079190615cf6565b5095945050505050565b6068546040516310ac019160e11b81526001600160a01b03848116600483015283811660248301526000921690632158032290604401602060405180830381865afa158015610ed4573d6000803e3d6000fd5b6000806069805480602002602001604051908101604052809291908181526020016000905b8282101561169b5760008481526020908190206040805160c0810182526006860290920180546001600160a01b0390811684526001820154811694840194909452600281015490931690820152600382015460608201526004820180549192916080840191906115f890615ae1565b80601f016020809104026020016040519081016040528092919081815260200182805461162490615ae1565b80156116715780601f1061164657610100808354040283529160200191611671565b820191906000526020600020905b81548152906001019060200180831161165457829003601f168201915b50505091835250506005919091015460ff1615156020918201529082526001929092019101611589565b5050825192935060009150505b81811015611937576116c583828151811061106c5761106c615cad565b6116ce57611927565b8281815181106116e0576116e0615cad565b6020026020010151600001516001600160a01b0316638aa82e8284838151811061170c5761170c615cad565b60200260200101516040015185848151811061172a5761172a615cad565b6020026020010151602001516040518363ffffffff1660e01b81526004016117689291906001600160a01b0392831681529116602082015260400190565b6020604051808303816000875af1158015611787573d6000803e3d6000fd5b505050506040513d601f19601f820116820180604052508101906117ab9190615d1a565b15156001141561183c578281815181106117c7576117c7615cad565b6020026020010151602001516001600160a01b03168382815181106117ee576117ee615cad565b6020026020010151608001516040516118079190615ac5565b604051908190038120907fd5d2d05dfe0d10d196c53d6f16e6d70e4dbb9cb77fe8682f6c68e9426c29103090600090a3611927565b600061186484838151811061185357611853615cad565b602002602001015160800151613558565b9050600061188e85848151811061187d5761187d615cad565b602002602001015160800151611a55565b9050808584815181106118a3576118a3615cad565b6020026020010151608001516040516118bc9190615ac5565b60405190819003812090600080516020615f2083398151915290600090a3818584815181106118ed576118ed615cad565b6020026020010151608001516040516119069190615ac5565b60405190819003812090600080516020615f6083398151915290600090a350505b61193081615cdb565b90506116a8565b5060019250505090565b306001600160a01b037f000000000000000000000000000000000000000000000000000000000000000016141561198a5760405162461bcd60e51b8152600401610b5090615d37565b7f00000000000000000000000000000000000000000000000000000000000000006001600160a01b03166119d3600080516020615f40833981519152546001600160a01b031690565b6001600160a01b0316146119f95760405162461bcd60e51b8152600401610b5090615d83565b611a0281615046565b60408051600080825260208201909252611a1e9183919061504e565b50565b6000606a82604051611a339190615ac5565b908152604051908190036020019020600101546001600160a01b031692915050565b600080606a83604051611a689190615ac5565b90815260408051918290036020908101832060c08401835280546001600160a01b039081168552600182015481169285019290925260028101549091169183019190915260038101546060830152600481018054608084019190611acb90615ae1565b80601f0160208091040260200160405190810160405280929190818152602001828054611af790615ae1565b8015611b445780601f10611b1957610100808354040283529160200191611b44565b820191906000526020600020905b815481529060010190602001808311611b2757829003601f168201915b50505091835250506005919091015460ff16151560209182015281516040805160016202e8ad60e61b0319815290519394506001600160a01b039091169263ff45d4c0926004808401939192918290030181865afa158015610ed4573d6000803e3d6000fd5b600080611bb5614fec565b60006001600160a01b0316606a86604051611bd09190615ac5565b908152604051908190036020019020546001600160a01b031614611c365760405162461bcd60e51b815260206004820152601a60248201527f50726f6a65637420616c72656164792068617320626f756e74790000000000006044820152606401610b50565b6001600160a01b0384166000908152606b602052604090205460ff161515600114611c985760405162461bcd60e51b8152602060048201526012602482015271151bdad95b881b9bdd08185c1c1c9bdd995960721b6044820152606401610b50565b6040805160c08101825260008082526060820181905260a0820152608081018790526001600160a01b03858116602080840191909152908716828401819052835163313ce56760e01b815293519293909263313ce567926004808401939192918290030181865afa158015611d11573d6000803e3d6000fd5b505050506040513d601f19601f82011682018060405250810190611d359190615dcf565b60ff1660608201819052611d845760405162461bcd60e51b8152602060048201526016602482015275496e76616c696420546f6b656e20446563696d616c7360501b6044820152606401610b50565b6065546066546040516336d9881760e01b81526000926001600160a01b03908116926336d9881792611dbe92909116908c90600401615df2565b6020604051808303816000875af1158015611ddd573d6000803e3d6000fd5b505050506040513d601f19601f82011682018060405250810190611e019190615e16565b6060830151604051635a898d0360e01b815230600482015260248101919091529091506001600160a01b03821690635a898d0390604401600060405180830381600087803b158015611e5257600080fd5b505af1158015611e66573d6000803e3d6000fd5b5050506001600160a01b03808316845260698054600181018255600091909152845160069091027f7fb4302e8e91f9110a6554c2c0a24601252c2a42c2220ca988efcfe399914308810180549284166001600160a01b03199384161781556020808801517f7fb4302e8e91f9110a6554c2c0a24601252c2a42c2220ca988efcfe3999143098401805491871691861691909117905560408801517f7fb4302e8e91f9110a6554c2c0a24601252c2a42c2220ca988efcfe39991430a840180549190961694169390931790935560608601517f7fb4302e8e91f9110a6554c2c0a24601252c2a42c2220ca988efcfe39991430b82015560808601518051879550611f98937f7fb4302e8e91f9110a6554c2c0a24601252c2a42c2220ca988efcfe39991430c9093019291909101906154b0565b5060a091909101516005909101805460ff19169115159190911790556040518290606a90611fc7908a90615ac5565b9081526040805160209281900383019020835181546001600160a01b03199081166001600160a01b039283161783558585015160018401805483169184169190911790559285015160028301805490941691161790915560608301516003820155608083015180519192612043926004850192909101906154b0565b5060a091909101516005909101805460ff19169115159190911790556040516001600160a01b03828116825286169033907fa397122091ddbad4417c188353200f86978770ea6a146a5860667b1ef760917c9060200160405180910390a3976001975095505050505050565b306001600160a01b037f00000000000000000000000000000000000000000000000000000000000000001614156120f85760405162461bcd60e51b8152600401610b5090615d37565b7f00000000000000000000000000000000000000000000000000000000000000006001600160a01b0316612141600080516020615f40833981519152546001600160a01b031690565b6001600160a01b0316146121675760405162461bcd60e51b8152600401610b5090615d83565b61217082615046565b61217c8282600161504e565b5050565b6000306001600160a01b037f000000000000000000000000000000000000000000000000000000000000000016146122205760405162461bcd60e51b815260206004820152603860248201527f555550535570677261646561626c653a206d757374206e6f742062652063616c60448201527f6c6564207468726f7567682064656c656761746563616c6c00000000000000006064820152608401610b50565b50600080516020615f4083398151915290565b600061223d614fec565b6001600160a01b0382166122825760405162461bcd60e51b815260206004820152600c60248201526b41646472657373207a65726f60a01b6044820152606401610b50565b606654604051631b2ce7f360e11b81526001600160a01b03848116600483015290911690633659cfe690602401600060405180830381600087803b1580156122c957600080fd5b505af11580156122dd573d6000803e3d6000fd5b50506040516001600160a01b03851692507f8351bb7d88cde824de55ae548c81488c9bea6ad24cafb7644e7df7ac0cfcb46c9150600090a2506001919050565b600080606a856040516123309190615ac5565b90815260408051918290036020908101832060c08401835280546001600160a01b03908116855260018201548116928501929092526002810154909116918301919091526003810154606083015260048101805460808401919061239390615ae1565b80601f01602080910402602001604051908101604052809291908181526020018280546123bf90615ae1565b801561240c5780601f106123e15761010080835404028352916020019161240c565b820191906000526020600020905b8154815290600101906020018083116123ef57829003601f168201915b50505091835250506005919091015460ff16151560209091015260a081015190915061243790614fdc565b15156001146124585760405162461bcd60e51b8152600401610b5090615b1c565b80602001516001600160a01b0316336001600160a01b03161461248d5760405162461bcd60e51b8152600401610b5090615b44565b60008160600151600a6124a09190615c69565b6124aa9086615c75565b905060008260600151600a6124bf9190615c69565b6124c99086615c75565b835160405163d835f53560e01b8152600481018590529192506001600160a01b03169063d835f53590602401600060405180830381600087803b15801561250f57600080fd5b505af1158015612523573d6000803e3d6000fd5b5050505082600001516001600160a01b031663cc12c31184604001518560200151846040518463ffffffff1660e01b815260040161256393929190615e33565b6020604051808303816000875af1158015612582573d6000803e3d6000fd5b505050506040513d601f19601f820116820180604052508101906125a69190615d1a565b5081876040516125b69190615ac5565b60405190819003812090600080516020615f2083398151915290600090a380876040516125e39190615ac5565b60405190819003812090600080516020615f6083398151915290600090a35060019695505050505050565b600080606a836040516126219190615ac5565b90815260408051918290036020908101832060c08401835280546001600160a01b03908116855260018201548116928501929092526002810154909116918301919091526003810154606083015260048101805460808401919061268490615ae1565b80601f01602080910402602001604051908101604052809291908181526020018280546126b090615ae1565b80156126fd5780601f106126d2576101008083540402835291602001916126fd565b820191906000526020600020905b8154815290600101906020018083116126e057829003601f168201915b50505091835250506005919091015460ff16151560209091015260a081015190915061272890614fdc565b15156001146127495760405162461bcd60e51b8152600401610b5090615b1c565b8051604080830151602084015191516303065f4560e41b81526001600160a01b03918216600482015233602482015291811660448301526000921690633065f4509060640160408051808303816000875af11580156127ac573d6000803e3d6000fd5b505050506040513d601f19601f820116820180604052508101906127d09190615e57565b50949350505050565b6000606a826040516127eb9190615ac5565b908152604051908190036020019020546001600160a01b031692915050565b600080606a8460405161281d9190615ac5565b90815260408051918290036020908101832060c08401835280546001600160a01b03908116855260018201548116928501929092526002810154909116918301919091526003810154606083015260048101805460808401919061288090615ae1565b80601f01602080910402602001604051908101604052809291908181526020018280546128ac90615ae1565b80156128f95780601f106128ce576101008083540402835291602001916128f9565b820191906000526020600020905b8154815290600101906020018083116128dc57829003601f168201915b50505091835250506005919091015460ff16151560209091015260a081015190915061292490614fdc565b15156001146129455760405162461bcd60e51b8152600401610b5090615b1c565b80602001516001600160a01b0316336001600160a01b03161461297a5760405162461bcd60e51b8152600401610b5090615b44565b600081600001516001600160a01b031663e45080e66040518163ffffffff1660e01b8152600401602060405180830381865afa1580156129be573d6000803e3d6000fd5b505050506040513d601f19601f820116820180604052508101906129e29190615c94565b905060008260600151600a6129f79190615c69565b612a019086615c75565b905082600001516001600160a01b031663419b7bd784604001518560200151846040518463ffffffff1660e01b8152600401612a3f93929190615e33565b6020604051808303816000875af1158015612a5e573d6000803e3d6000fd5b505050506040513d601f19601f82011682018060405250810190612a829190615d1a565b506000612a8f8284615cc3565b9050808388604051612aa19190615ac5565b604051908190038120907f6104fb37beb719c37a4d2a456c761462b5e74ef11d0944a9e3e1b23f21dbb31d90600090a45060019695505050505050565b60685460408051636c94853560e01b815290516000926001600160a01b031691636c9485359160048083019260209291908290030181865afa158015612b28573d6000803e3d6000fd5b505050506040513d601f19601f82011682018060405250810190612b4c9190615c94565b905090565b612b59614fec565b612b6360006151be565b565b600080606a84604051612b789190615ac5565b90815260408051918290036020908101832060c08401835280546001600160a01b039081168552600182015481169285019290925260028101549091169183019190915260038101546060830152600481018054608084019190612bdb90615ae1565b80601f0160208091040260200160405190810160405280929190818152602001828054612c0790615ae1565b8015612c545780601f10612c2957610100808354040283529160200191612c54565b820191906000526020600020905b815481529060010190602001808311612c3757829003601f168201915b50505091835250506005919091015460ff16151560209091015260a0810151909150612c7f90614fdc565b1515600114612ca05760405162461bcd60e51b8152600401610b5090615b1c565b80602001516001600160a01b0316336001600160a01b031614612cd55760405162461bcd60e51b8152600401610b5090615b44565b60008160600151600a612ce89190615c69565b612cf29085615c75565b905081600001516001600160a01b031663cc12c31183604001518460200151846040518463ffffffff1660e01b8152600401612d3093929190615e33565b6020604051808303816000875af1158015612d4f573d6000803e3d6000fd5b505050506040513d601f19601f82011682018060405250810190612d739190615d1a565b508085604051612d839190615ac5565b60405190819003812090600080516020615f6083398151915290600090a3506001949350505050565b612db4614fec565b6001600160a01b038116612e015760405162461bcd60e51b8152602060048201526014602482015273416464726573732063616e74206265207a65726f60601b6044820152606401610b50565b606880546001600160a01b0319166001600160a01b0392909216919091179055565b60698181548110612e3357600080fd5b6000918252602090912060069091020180546001820154600283015460038401546004850180546001600160a01b0395861697509385169592909416939092612e7b90615ae1565b80601f0160208091040260200160405190810160405280929190818152602001828054612ea790615ae1565b8015612ef45780601f10612ec957610100808354040283529160200191612ef4565b820191906000526020600020905b815481529060010190602001808311612ed757829003601f168201915b5050506005909301549192505060ff1686565b600080600080612f168561123a565b9350612f21856138f1565b9150612f2c85613558565b9250612f3785611a55565b90509193509193565b600080606a84604051612f539190615ac5565b90815260408051918290036020908101832060c08401835280546001600160a01b039081168552600182015481169285019290925260028101549091169183019190915260038101546060830152600481018054608084019190612fb690615ae1565b80601f0160208091040260200160405190810160405280929190818152602001828054612fe290615ae1565b801561302f5780601f106130045761010080835404028352916020019161302f565b820191906000526020600020905b81548152906001019060200180831161301257829003601f168201915b50505091835250506005919091015460ff16151560209091015260a081015190915061305a90614fdc565b151560011461307b5760405162461bcd60e51b8152600401610b5090615b1c565b600081600001516001600160a01b031663e45080e66040518163ffffffff1660e01b8152600401602060405180830381865afa1580156130bf573d6000803e3d6000fd5b505050506040513d601f19601f820116820180604052508101906130e39190615c94565b9050600082600001516001600160a01b03166316e17b8d6040518163ffffffff1660e01b8152600401602060405180830381865afa158015613129573d6000803e3d6000fd5b505050506040513d601f19601f8201168201806040525081019061314d9190615c94565b905060008360600151600a6131629190615c69565b61316c9087615c75565b8451604080870151905163bf6eac2f60e01b81529293506001600160a01b039091169163bf6eac2f916131a59133908690600401615e33565b6020604051808303816000875af11580156131c4573d6000803e3d6000fd5b505050506040513d601f19601f820116820180604052508101906131e89190615d1a565b5060006131f58285615cc3565b905060006132038385615cc3565b905080848a6040516132159190615ac5565b604051908190038120907f8834bcade58122eb5594c97d7d46171dc644983fafc2663e6728a6eb925a18ba90600090a484828a6040516132559190615ac5565b604051908190038120907f6104fb37beb719c37a4d2a456c761462b5e74ef11d0944a9e3e1b23f21dbb31d90600090a450600198975050505050505050565b600061329e614fec565b6001606a836040516132b09190615ac5565b908152604051908190036020018120600501805492151560ff19909316929092179091556132df908390615ac5565b604051908190038120907f064c50721c2d6a8dde5fa7e23659e4df58c910897f7b98ca5b9a940038645cc890600090a2506001919050565b6068546040805163a0d0712560e01b815290516000926001600160a01b03169163a0d071259160048083019260209291908290030181865afa158015612b28573d6000803e3d6000fd5b600080606a846040516133749190615ac5565b90815260408051918290036020908101832060c08401835280546001600160a01b0390811685526001820154811692850192909252600281015490911691830191909152600381015460608301526004810180546080840191906133d790615ae1565b80601f016020809104026020016040519081016040528092919081815260200182805461340390615ae1565b80156134505780601f1061342557610100808354040283529160200191613450565b820191906000526020600020905b81548152906001019060200180831161343357829003601f168201915b50505091835250506005919091015460ff16151560209091015260a081015190915061347b90614fdc565b151560011461349c5760405162461bcd60e51b8152600401610b5090615b1c565b80602001516001600160a01b0316336001600160a01b0316146134d15760405162461bcd60e51b8152600401610b5090615b44565b60008160600151600a6134e49190615c69565b6134ee9085615c75565b825160405163d26c90a960e01b8152600481018390529192506001600160a01b03169063d26c90a9906024015b600060405180830381600087803b15801561353557600080fd5b505af1158015613549573d6000803e3d6000fd5b50600198975050505050505050565b600080606a8360405161356b9190615ac5565b90815260408051918290036020908101832060c08401835280546001600160a01b0390811685526001820154811692850192909252600281015490911691830191909152600381015460608301526004810180546080840191906135ce90615ae1565b80601f01602080910402602001604051908101604052809291908181526020018280546135fa90615ae1565b80156136475780601f1061361c57610100808354040283529160200191613647565b820191906000526020600020905b81548152906001019060200180831161362a57829003601f168201915b50505091835250506005919091015460ff1615156020918201528151604080516378eb46fd60e01b815290519394506001600160a01b03909116926378eb46fd926004808401939192918290030181865afa158015610ed4573d6000803e3d6000fd5b600080606a846040516136bd9190615ac5565b90815260408051918290036020908101832060c08401835280546001600160a01b03908116855260018201548116928501929092526002810154909116918301919091526003810154606083015260048101805460808401919061372090615ae1565b80601f016020809104026020016040519081016040528092919081815260200182805461374c90615ae1565b80156137995780601f1061376e57610100808354040283529160200191613799565b820191906000526020600020905b81548152906001019060200180831161377c57829003601f168201915b50505091835250506005919091015460ff16151560209091015260a08101519091506137c490614fdc565b15156001146137e55760405162461bcd60e51b8152600401610b5090615b1c565b80602001516001600160a01b0316336001600160a01b03161461381a5760405162461bcd60e51b8152600401610b5090615b44565b60008160600151600a61382d9190615c69565b6138379085615c75565b82516040516312d77db360e21b8152600481018390529192506001600160a01b031690634b5df6cc906024016020604051808303816000875af1158015613882573d6000803e3d6000fd5b505050506040513d601f19601f820116820180604052508101906138a69190615d1a565b5080856040516138b69190615ac5565b604051908190038120907f0e6ef9b3f0bcbf52c4ddbfdfb70f52e00c6083b9d5f795123d4e753ac4f82d3990600090a3506001949350505050565b600080606a836040516139049190615ac5565b90815260408051918290036020908101832060c08401835280546001600160a01b03908116855260018201548116928501929092526002810154909116918301919091526003810154606083015260048101805460808401919061396790615ae1565b80601f016020809104026020016040519081016040528092919081815260200182805461399390615ae1565b80156139e05780601f106139b5576101008083540402835291602001916139e0565b820191906000526020600020905b8154815290600101906020018083116139c357829003601f168201915b50505091835250506005919091015460ff1615156020918201528151604080516316e17b8d60e01b815290519394506001600160a01b03909116926316e17b8d926004808401939192918290030181865afa158015610ed4573d6000803e3d6000fd5b6000613a4d614fec565b613a7b606a85604051613a609190615ac5565b9081526040519081900360200190206005015460ff16614fdc565b1515600114613a9c5760405162461bcd60e51b8152600401610b5090615b1c565b6001600160a01b038316613ae65760405162461bcd60e51b815260206004820152601160248201527048756e746572206164647265737328302960781b6044820152606401610b50565b6000606a85604051613af89190615ac5565b9081526040519081900360200190206003015490506000613b1a82600a615c69565b613b249085615c75565b9050606a86604051613b369190615ac5565b908152604051908190036020018120546001600160a01b0316906373927c1190606a90613b64908a90615ac5565b908152604051908190036020018120600201546068546001600160e01b031960e085901b1683526001600160a01b0391821660048401528116602483015288166044820152606481018490526084016020604051808303816000875af1158015613bd2573d6000803e3d6000fd5b505050506040513d601f19601f82011682018060405250810190613bf69190615d1a565b506068546040516001600160a01b0390911690637a76be8690606a90613c1d908a90615ac5565b908152604051908190036020018120600201546001600160a01b031690606a90613c48908b90615ac5565b908152604051908190036020018120600301546001600160e01b031960e085901b1682526001600160a01b0392831660048301526024820152908816604482015260648101879052608401600060405180830381600087803b158015613cad57600080fd5b505af1158015613cc1573d6000803e3d6000fd5b5050505083856001600160a01b0316427fc94856745b23bcaffb2e3755abe04f2ee7cf7047605058b72c2f1cb3e58d5c43606a8a604051613d029190615ac5565b90815260405160209181900382018120600201546001600160a01b031681520160405180910390a450600195945050505050565b600054610100900460ff1615808015613d565750600054600160ff909116105b80613d705750303b158015613d70575060005460ff166001145b613dd35760405162461bcd60e51b815260206004820152602e60248201527f496e697469616c697a61626c653a20636f6e747261637420697320616c72656160448201526d191e481a5b9a5d1a585b1a5e995960921b6064820152608401610b50565b6000805460ff191660011790558015613df6576000805461ff0019166101001790555b606580546001600160a01b038087166001600160a01b031992831617909255606680548684169083161790556067805492851692909116919091179055613e3b615210565b8015613e81576000805461ff0019169055604051600181527f7f26b83ff96e1f2b6a682f133852f6798a09c465da95921460cefb38474024989060200160405180910390a15b50505050565b60685460408051630c31495960e41b815290516000926001600160a01b03169163c31495909160048083019260209291908290030181865afa158015612b28573d6000803e3d6000fd5b600080600080606a86604051613ee79190615ac5565b90815260408051918290036020908101832060c08401835280546001600160a01b039081168552600182015481169285019290925260028101549091169183019190915260038101546060830152600481018054608084019190613f4a90615ae1565b80601f0160208091040260200160405190810160405280929190818152602001828054613f7690615ae1565b8015613fc35780601f10613f9857610100808354040283529160200191613fc3565b820191906000526020600020905b815481529060010190602001808311613fa657829003601f168201915b50505091835250506005919091015460ff1615156020909101528051604051632d7807a960e01b81526001600160a01b038881166004830152929350911690632d7807a990602401606060405180830381865afa158015614028573d6000803e3d6000fd5b505050506040513d601f19601f8201168201806040525081019061404c9190615e7c565b91989097509095509350505050565b600080606a8460405161406e9190615ac5565b90815260408051918290036020908101832060c08401835280546001600160a01b0390811685526001820154811692850192909252600281015490911691830191909152600381015460608301526004810180546080840191906140d190615ae1565b80601f01602080910402602001604051908101604052809291908181526020018280546140fd90615ae1565b801561414a5780601f1061411f5761010080835404028352916020019161414a565b820191906000526020600020905b81548152906001019060200180831161412d57829003601f168201915b50505091835250506005919091015460ff161515602090910152606081015190915060009061417a90600a615c69565b6141849085615c75565b82516040516363c877c160e11b8152336004820152602481018390529192506001600160a01b03169063c790ef82906044016020604051808303816000875af11580156141d5573d6000803e3d6000fd5b505050506040513d601f19601f820116820180604052508101906141f99190615d1a565b1561424857808560405161420d9190615ac5565b604051908190038120907f0e6ef9b3f0bcbf52c4ddbfdfb70f52e00c6083b9d5f795123d4e753ac4f82d3990600090a3600192505050610c3d565b600092505050610c3d565b60685460408051636999350560e11b815290516000926001600160a01b03169163d3326a0a9160048083019260209291908290030181865afa158015612b28573d6000803e3d6000fd5b600080606a846040516142b09190615ac5565b90815260408051918290036020908101832060c08401835280546001600160a01b03908116855260018201548116928501929092526002810154909116918301919091526003810154606083015260048101805460808401919061431390615ae1565b80601f016020809104026020016040519081016040528092919081815260200182805461433f90615ae1565b801561438c5780601f106143615761010080835404028352916020019161438c565b820191906000526020600020905b81548152906001019060200180831161436f57829003601f168201915b50505091835250506005919091015460ff161515602091820152815160408051637228407360e11b815290519394506000936001600160a01b039092169263e45080e6926004808401938290030181865afa1580156143ef573d6000803e3d6000fd5b505050506040513d601f19601f820116820180604052508101906144139190615c94565b9050600082600001516001600160a01b03166316e17b8d6040518163ffffffff1660e01b8152600401602060405180830381865afa158015614459573d6000803e3d6000fd5b505050506040513d601f19601f8201168201806040525081019061447d9190615c94565b905060008360600151600a6144929190615c69565b61449c9087615c75565b845160408087015190516330414fc560e11b81529293506001600160a01b03909116916360829f8a916144d59133908690600401615e33565b6020604051808303816000875af11580156144f4573d6000803e3d6000fd5b505050506040513d601f19601f820116820180604052508101906145189190615d1a565b156145c85760006145298285615cc3565b905060006145378385615eaa565b905080848a6040516145499190615ac5565b604051908190038120907f8834bcade58122eb5594c97d7d46171dc644983fafc2663e6728a6eb925a18ba90600090a481858a6040516145899190615ac5565b604051908190038120907f6104fb37beb719c37a4d2a456c761462b5e74ef11d0944a9e3e1b23f21dbb31d90600090a460019650505050505050610c3d565b6000945050505050610c3d565b600080606a836040516145e89190615ac5565b90815260408051918290036020908101832060c08401835280546001600160a01b03908116855260018201548116928501929092526002810154909116918301919091526003810154606083015260048101805460808401919061464b90615ae1565b80601f016020809104026020016040519081016040528092919081815260200182805461467790615ae1565b80156146c45780601f10614699576101008083540402835291602001916146c4565b820191906000526020600020905b8154815290600101906020018083116146a757829003601f168201915b50505091835250506005919091015460ff16151560209182015281516040805163383639b360e01b815290519394506001600160a01b039091169263383639b3926004808401939192918290030181865afa158015610ed4573d6000803e3d6000fd5b600080606a8460405161473a9190615ac5565b90815260408051918290036020908101832060c08401835280546001600160a01b03908116855260018201548116928501929092526002810154909116918301919091526003810154606083015260048101805460808401919061479d90615ae1565b80601f01602080910402602001604051908101604052809291908181526020018280546147c990615ae1565b80156148165780601f106147eb57610100808354040283529160200191614816565b820191906000526020600020905b8154815290600101906020018083116147f957829003601f168201915b50505091835250506005919091015460ff16151560209091015260a081015190915061484190614fdc565b15156001146148625760405162461bcd60e51b8152600401610b5090615b1c565b80602001516001600160a01b0316336001600160a01b0316146148975760405162461bcd60e51b8152600401610b5090615b44565b60008160600151600a6148aa9190615c69565b6148b49085615c75565b825160405163503cb91760e01b8152600481018390529192506001600160a01b03169063503cb9179060240161351b565b8051602081830181018051606a82529282019190930120915280546001820154600283015460038401546004850180546001600160a01b039586169694861695909316939192612e7b90615ae1565b600061493e614fec565b6001600160a01b0383166000818152606b6020526040808220805460ff191686151590811790915590519092917f99795d51e5a8804307721456a7a9c2f0d7421f719d46a46d36e91fee7c85aa7691a350600192915050565b60006149ac606a83604051613a609190615ac5565b15156001146149cd5760405162461bcd60e51b8152600401610b5090615b1c565b606a826040516149dd9190615ac5565b908152604051908190036020018120546001600160a01b031690638aa82e8290606a90614a0b908690615ac5565b908152604051908190036020018120600201546001600160a01b031690606a90614a36908790615ac5565b908152604051908190036020018120600101546001600160e01b031960e085901b1682526001600160a01b0392831660048301529190911660248201526044016020604051808303816000875af1158015614a95573d6000803e3d6000fd5b505050506040513d601f19601f82011682018060405250810190614ab99190615d1a565b151560011415614b3057606a82604051614ad39190615ac5565b908152604051908190036020018120600101546001600160a01b031690614afb908490615ac5565b604051908190038120907fd5d2d05dfe0d10d196c53d6f16e6d70e4dbb9cb77fe8682f6c68e9426c29103090600090a3614ba7565b6000614b3b83613558565b90506000614b4884611a55565b90508084604051614b599190615ac5565b60405190819003812090600080516020615f2083398151915290600090a38184604051614b869190615ac5565b60405190819003812090600080516020615f6083398151915290600090a350505b506001919050565b6000614bb9614fec565b6001600160a01b038316614bfe5760405162461bcd60e51b815260206004820152600c60248201526b41646472657373205a65726f60a01b6044820152606401610b50565b6000846001600160a01b031663313ce5676040518163ffffffff1660e01b8152600401602060405180830381865afa158015614c3e573d6000803e3d6000fd5b505050506040513d601f19601f82011682018060405250810190614c629190615dcf565b606854604051635bcb23c760e01b81526001600160a01b03888116600483015287811660248301526044820187905260ff93909316606482018190529350911690635bcb23c7906084016020604051808303816000875af1158015614ccb573d6000803e3d6000fd5b505050506040513d601f19601f82011682018060405250810190614cef9190615d1a565b5060405183906001600160a01b038716907f189e21cdbf554d2e7158d144a91a275ae2145eaf20b9697ea962df4fba6462c390600090a3506001949350505050565b614d39614fec565b6001600160a01b038116614d9e5760405162461bcd60e51b815260206004820152602660248201527f4f776e61626c653a206e6577206f776e657220697320746865207a65726f206160448201526564647265737360d01b6064820152608401610b50565b611a1e816151be565b600080606a84604051614dba9190615ac5565b90815260408051918290036020908101832060c08401835280546001600160a01b039081168552600182015481169285019290925260028101549091169183019190915260038101546060830152600481018054608084019190614e1d90615ae1565b80601f0160208091040260200160405190810160405280929190818152602001828054614e4990615ae1565b8015614e965780601f10614e6b57610100808354040283529160200191614e96565b820191906000526020600020905b815481529060010190602001808311614e7957829003601f168201915b50505091835250506005919091015460ff16151560209091015260a0810151909150614ec190614fdc565b1515600114614ee25760405162461bcd60e51b8152600401610b5090615b1c565b80602001516001600160a01b0316336001600160a01b031614614f175760405162461bcd60e51b8152600401610b5090615b44565b600081600001516001600160a01b031663e45080e66040518163ffffffff1660e01b8152600401602060405180830381865afa158015614f5b573d6000803e3d6000fd5b505050506040513d601f19601f82011682018060405250810190614f7f9190615c94565b905060008260600151600a614f949190615c69565b614f9e9086615c75565b905082600001516001600160a01b0316633147096d84604001518560200151846040518463ffffffff1660e01b8152600401612a3f93929190615e33565b60008115614ba757600092915050565b6033546001600160a01b03163314612b635760405162461bcd60e51b815260206004820181905260248201527f4f776e61626c653a2063616c6c6572206973206e6f7420746865206f776e65726044820152606401610b50565b611a1e614fec565b7f4910fdfa16fed3260ed0e7147f7cc6da11a60208b5b9406d12a635614ffd91435460ff1615615086576150818361523f565b505050565b826001600160a01b03166352d1902d6040518163ffffffff1660e01b8152600401602060405180830381865afa9250505080156150e0575060408051601f3d908101601f191682019092526150dd91810190615c94565b60015b6151435760405162461bcd60e51b815260206004820152602e60248201527f45524331393637557067726164653a206e657720696d706c656d656e7461746960448201526d6f6e206973206e6f74205555505360901b6064820152608401610b50565b600080516020615f4083398151915281146151b25760405162461bcd60e51b815260206004820152602960248201527f45524331393637557067726164653a20756e737570706f727465642070726f786044820152681a58589b195555525160ba1b6064820152608401610b50565b506150818383836152db565b603380546001600160a01b038381166001600160a01b0319831681179093556040519116919082907f8be0079c531659141344cd1fd0a4f28419497f9722a3daafe3b4186f6b6457e090600090a35050565b600054610100900460ff166152375760405162461bcd60e51b8152600401610b5090615ec1565b612b63615300565b6001600160a01b0381163b6152ac5760405162461bcd60e51b815260206004820152602d60248201527f455243313936373a206e657720696d706c656d656e746174696f6e206973206e60448201526c1bdd08184818dbdb9d1c9858dd609a1b6064820152608401610b50565b600080516020615f4083398151915280546001600160a01b0319166001600160a01b0392909216919091179055565b6152e483615330565b6000825111806152f15750805b1561508157613e818383615370565b600054610100900460ff166153275760405162461bcd60e51b8152600401610b5090615ec1565b612b63336151be565b6153398161523f565b6040516001600160a01b038216907fbc7cd75a20ee27fd9adebab32041f755214dbc6bffa90cc0225b39da2e5c2d3b90600090a250565b6060610ef88383604051806060016040528060278152602001615f80602791396060600080856001600160a01b0316856040516153ad9190615ac5565b600060405180830381855af49150503d80600081146153e8576040519150601f19603f3d011682016040523d82523d6000602084013e6153ed565b606091505b50915091506153fe86838387615408565b9695505050505050565b6060831561547457825161546d576001600160a01b0385163b61546d5760405162461bcd60e51b815260206004820152601d60248201527f416464726573733a2063616c6c20746f206e6f6e2d636f6e74726163740000006044820152606401610b50565b508161547e565b61547e8383615486565b949350505050565b8151156154965781518083602001fd5b8060405162461bcd60e51b8152600401610b509190615f0c565b8280546154bc90615ae1565b90600052602060002090601f0160209004810192826154de5760008555615524565b82601f106154f757805160ff1916838001178555615524565b82800160010185558215615524579182015b82811115615524578251825591602001919060010190615509565b50615530929150615534565b5090565b5b808211156155305760008155600101615535565b634e487b7160e01b600052604160045260246000fd5b600082601f83011261557057600080fd5b813567ffffffffffffffff8082111561558b5761558b615549565b604051601f8301601f19908116603f011681019082821181831017156155b3576155b3615549565b816040528381528660208588010111156155cc57600080fd5b836020870160208301376000602085830101528094505050505092915050565b600080604083850312156155ff57600080fd5b823567ffffffffffffffff81111561561657600080fd5b6156228582860161555f565b95602094909401359450505050565b60005b8381101561564c578181015183820152602001615634565b83811115613e815750506000910152565b60008151808452615675816020860160208601615631565b601f01601f19169290920160200192915050565b60006020808301818452808551808352604092508286019150828160051b87010184880160005b8381101561572f57888303603f19018552815180516001600160a01b039081168552888201518116898601528782015116878501526060808201519085015260808082015160c0828701819052919061570b8388018261565d565b60a094850151151597909401969096525050948701949250908601906001016156b0565b509098975050505050505050565b60006020828403121561574f57600080fd5b813567ffffffffffffffff81111561576657600080fd5b61547e8482850161555f565b6001600160a01b0381168114611a1e57600080fd5b6000806040838503121561579a57600080fd5b823567ffffffffffffffff8111156157b157600080fd5b6157bd8582860161555f565b92505060208301356157ce81615772565b809150509250929050565b600080604083850312156157ec57600080fd5b82356157f781615772565b915060208301356157ce81615772565b60006020828403121561581957600080fd5b8135610ef881615772565b6000806000806080858703121561583a57600080fd5b843567ffffffffffffffff8082111561585257600080fd5b61585e8883890161555f565b9550602087013591508082111561587457600080fd5b506158818782880161555f565b935050604085013561589281615772565b915060608501356158a281615772565b939692955090935050565b600080604083850312156158c057600080fd5b82356158cb81615772565b9150602083013567ffffffffffffffff8111156158e757600080fd5b6158f38582860161555f565b9150509250929050565b60008060006060848603121561591257600080fd5b833567ffffffffffffffff81111561592957600080fd5b6159358682870161555f565b9660208601359650604090950135949350505050565b60006020828403121561595d57600080fd5b5035919050565b6001600160a01b0387811682528681166020830152851660408201526060810184905260c06080820181905260009061599f9083018561565d565b905082151560a0830152979650505050505050565b6000806000606084860312156159c957600080fd5b833567ffffffffffffffff8111156159e057600080fd5b6159ec8682870161555f565b93505060208401356159fd81615772565b929592945050506040919091013590565b600080600060608486031215615a2357600080fd5b8335615a2e81615772565b92506020840135615a3e81615772565b91506040840135615a4e81615772565b809150509250925092565b8015158114611a1e57600080fd5b60008060408385031215615a7a57600080fd5b8235615a8581615772565b915060208301356157ce81615a59565b600080600060608486031215615aaa57600080fd5b8335615ab581615772565b925060208401356159fd81615772565b60008251615ad7818460208701615631565b9190910192915050565b600181811c90821680615af557607f821691505b60208210811415615b1657634e487b7160e01b600052602260045260246000fd5b50919050565b6020808252600e908201526d109bdd5b9d1e481a5cc81119585960921b604082015260600190565b6020808252601190820152702737ba10383937b532b1ba1037bbb732b960791b604082015260600190565b634e487b7160e01b600052601160045260246000fd5b600181815b80851115615bc0578160001904821115615ba657615ba6615b6f565b80851615615bb357918102915b93841c9390800290615b8a565b509250929050565b600082615bd757506001610c3d565b81615be457506000610c3d565b8160018114615bfa5760028114615c0457615c20565b6001915050610c3d565b60ff841115615c1557615c15615b6f565b50506001821b610c3d565b5060208310610133831016604e8410600b8410161715615c43575081810a610c3d565b615c4d8383615b85565b8060001904821115615c6157615c61615b6f565b029392505050565b6000610ef88383615bc8565b6000816000190483118215151615615c8f57615c8f615b6f565b500290565b600060208284031215615ca657600080fd5b5051919050565b634e487b7160e01b600052603260045260246000fd5b60008219821115615cd657615cd6615b6f565b500190565b6000600019821415615cef57615cef615b6f565b5060010190565b60008060408385031215615d0957600080fd5b505080516020909101519092909150565b600060208284031215615d2c57600080fd5b8151610ef881615a59565b6020808252602c908201527f46756e6374696f6e206d7573742062652063616c6c6564207468726f7567682060408201526b19195b1959d85d1958d85b1b60a21b606082015260800190565b6020808252602c908201527f46756e6374696f6e206d7573742062652063616c6c6564207468726f7567682060408201526b6163746976652070726f787960a01b606082015260800190565b600060208284031215615de157600080fd5b815160ff81168114610ef857600080fd5b6001600160a01b038316815260406020820181905260009061547e9083018461565d565b600060208284031215615e2857600080fd5b8151610ef881615772565b6001600160a01b039384168152919092166020820152604081019190915260600190565b60008060408385031215615e6a57600080fd5b8251915060208301516157ce81615a59565b600080600060608486031215615e9157600080fd5b83519250602084015191506040840151615a4e81615a59565b600082821015615ebc57615ebc615b6f565b500390565b6020808252602b908201527f496e697469616c697a61626c653a20636f6e7472616374206973206e6f74206960408201526a6e697469616c697a696e6760a81b606082015260800190565b602081526000610ef8602083018461565d56fe5062d04f3e896d942ccff83fe2c476e0c28bd421463b3ff5a14566a7067e9198360894a13ba1a3210667c828492db98dca3e2076cc3735a920a3ca505d382bbcc28744c746f0c67a4779932b2ba42acc2995ef6326c66706ddcf811fd450627c416464726573733a206c6f772d6c6576656c2064656c65676174652063616c6c206661696c6564a264697066735822122028ebbdea38783c512e220a62add8671fbf22d5c97561e034b50484685137eda564736f6c634300080a0033",
    "linkReferences": {}
  },
  "methodIdentifiers": {
    "beacon()": "59659e90",
    "billPremiumForAll()": "27e73542",
    "billPremiumForOnePool(string)": "e6b37f6f",
    "bountiesList(uint256)": "7f2f3e5e",
    "bountyDetails(string)": "d7dc56a5",
    "bountyImplementation()": "cae38faa",
    "claimPremium(string)": "666b7030",
    "deployNewBounty(bytes,string,address,address)": "4c0d9a6c",
    "factory()": "c45a0155",
    "getBountyAddressByName(string)": "66b6c647",
    "initialize(address,address,address)": "c0c53b8b",
    "killBounty(string)": "9ca7e787",
    "owner()": "8da5cb5b",
    "payBounty(string,address,uint256)": "bc160761",
    "projectDeposit(string,uint256)": "f4808fea",
    "projectDepositWithdrawal(string,uint256)": "68dd3dbf",
    "proxiableUUID()": "52d1902d",
    "renounceOwnership()": "715018a6",
    "saloonWallet()": "4389e41a",
    "scheduleAPYChange(string,uint256)": "d70ef6f4",
    "schedulePoolCapChange(string,uint256)": "a1f0b842",
    "scheduleProjectDepositWithdrawal(string,uint256)": "b8047881",
    "scheduleUnstake(string,uint256)": "d16ad2f7",
    "setAPY(string,uint256)": "7611fc62",
    "setBountyCapAndAPY(string,uint256,uint256)": "58b07d5b",
    "setPoolCap(string,uint256)": "01f5b1ff",
    "stake(string,uint256)": "9494c8ae",
    "tokenWhitelist(address)": "753d7563",
    "transferOwnership(address)": "f2fde38b",
    "unstake(string,uint256)": "d37c92dc",
    "updateBountyPoolImplementation(address)": "53dce856",
    "updateSaloonWallet(address)": "79f99a89",
    "updateTokenWhitelist(address,bool)": "e5e97c65",
    "upgradeTo(address)": "3659cfe6",
    "upgradeToAndCall(address,bytes)": "4f1ef286",
    "viewAllBountiesByName()": "03c46f51",
    "viewBountyBalance(string)": "05234fda",
    "viewBountyInfo(string)": "943eb4f2",
    "viewBountyOwner(string)": "37787926",
    "viewDesiredAPY(string)": "a667b5d0",
    "viewHackerPayout(string)": "0f0df171",
    "viewHunterTotalTokenPayouts(address,address)": "21580322",
    "viewPoolCap(string)": "3ef0c3ed",
    "viewProjectDeposit(string)": "d3c15cdb",
    "viewSaloonBalance()": "a0d07125",
    "viewTotalEarnedSaloon()": "6c948535",
    "viewTotalHackerPayouts()": "c3149590",
    "viewTotalSaloonCommission()": "d3326a0a",
    "viewUserStakingBalance(string,address)": "15daef49",
    "viewUserTimelock(string,address)": "c8191c54",
    "viewstakersDeposit(string)": "b91cdea7",
    "withdrawSaloon(address,address,uint256)": "f0e6b4ed",
    "withdrawSaloonPremiumFees()": "0e060249"
  },
  "id": 26
}