{
  "abi": [
    {
      "anonymous": false,
      "inputs": [
        {
          "indexed": false,
          "internalType": "address",
          "name": "previousAdmin",
          "type": "address"
        },
        {
          "indexed": false,
          "internalType": "address",
          "name": "newAdmin",
          "type": "address"
        }
      ],
      "name": "AdminChanged",
      "type": "event"
    },
    {
      "anonymous": false,
      "inputs": [
        {
          "indexed": true,
          "internalType": "address",
          "name": "beacon",
          "type": "address"
        }
      ],
      "name": "BeaconUpgraded",
      "type": "event"
    },
    {
      "anonymous": false,
      "inputs": [
        {
          "indexed": true,
          "internalType": "string",
          "name": "projectName",
          "type": "string"
        }
      ],
      "name": "BountyKilled",
      "type": "event"
    },
    {
      "anonymous": false,
      "inputs": [
        {
          "indexed": true,
          "internalType": "uint256",
          "name": "time",
          "type": "uint256"
        },
        {
          "indexed": true,
          "internalType": "address",
          "name": "hunter",
          "type": "address"
        },
        {
          "indexed": true,
          "internalType": "uint256",
          "name": "amount",
          "type": "uint256"
        },
        {
          "indexed": false,
          "internalType": "address",
          "name": "token",
          "type": "address"
        }
      ],
      "name": "BountyPaid",
      "type": "event"
    },
    {
      "anonymous": false,
      "inputs": [
        {
          "indexed": true,
          "internalType": "address",
          "name": "newImplementation",
          "type": "address"
        }
      ],
      "name": "BountyPoolImplementationUpdated",
      "type": "event"
    },
    {
      "anonymous": false,
      "inputs": [
        {
          "indexed": true,
          "internalType": "address",
          "name": "sender",
          "type": "address"
        },
        {
          "indexed": true,
          "internalType": "address",
          "name": "_projectWallet",
          "type": "address"
        },
        {
          "indexed": false,
          "internalType": "contract BountyPool",
          "name": "newProxyAddress",
          "type": "address"
        }
      ],
      "name": "DeployNewBounty",
      "type": "event"
    },
    {
      "anonymous": false,
      "inputs": [
        {
          "indexed": true,
          "internalType": "string",
          "name": "projectName",
          "type": "string"
        },
        {
          "indexed": true,
          "internalType": "uint256",
          "name": "oldAmount",
          "type": "uint256"
        },
        {
          "indexed": true,
          "internalType": "uint256",
          "name": "newAmount",
          "type": "uint256"
        }
      ],
      "name": "HackerPayoutChanged",
      "type": "event"
    },
    {
      "anonymous": false,
      "inputs": [
        {
          "indexed": false,
          "internalType": "uint8",
          "name": "version",
          "type": "uint8"
        }
      ],
      "name": "Initialized",
      "type": "event"
    },
    {
      "anonymous": false,
      "inputs": [
        {
          "indexed": true,
          "internalType": "address",
          "name": "previousOwner",
          "type": "address"
        },
        {
          "indexed": true,
          "internalType": "address",
          "name": "newOwner",
          "type": "address"
        }
      ],
      "name": "OwnershipTransferred",
      "type": "event"
    },
    {
      "anonymous": false,
      "inputs": [
        {
          "indexed": true,
          "internalType": "string",
          "name": "projectName",
          "type": "string"
        },
        {
          "indexed": true,
          "internalType": "uint256",
          "name": "poolCap",
          "type": "uint256"
        },
        {
          "indexed": true,
          "internalType": "uint256",
          "name": "apy",
          "type": "uint256"
        }
      ],
      "name": "PoolCapAndAPYChanged",
      "type": "event"
    },
    {
      "anonymous": false,
      "inputs": [
        {
          "indexed": true,
          "internalType": "string",
          "name": "projectName",
          "type": "string"
        },
        {
          "indexed": true,
          "internalType": "address",
          "name": "projectWallet",
          "type": "address"
        }
      ],
      "name": "PremiumBilled",
      "type": "event"
    },
    {
      "anonymous": false,
      "inputs": [
        {
          "indexed": true,
          "internalType": "address",
          "name": "token",
          "type": "address"
        },
        {
          "indexed": true,
          "internalType": "uint256",
          "name": "amount",
          "type": "uint256"
        }
      ],
      "name": "SaloonFundsWithdrawal",
      "type": "event"
    },
    {
      "anonymous": false,
      "inputs": [
        {
          "indexed": true,
          "internalType": "uint256",
          "name": "totalCollected",
          "type": "uint256"
        }
      ],
      "name": "SaloonPremiumCollected",
      "type": "event"
    },
    {
      "anonymous": false,
      "inputs": [
        {
          "indexed": true,
          "internalType": "string",
          "name": "projectName",
          "type": "string"
        },
        {
          "indexed": true,
          "internalType": "uint256",
          "name": "previousStaked",
          "type": "uint256"
        },
        {
          "indexed": true,
          "internalType": "uint256",
          "name": "newStaked",
          "type": "uint256"
        }
      ],
      "name": "StakedAmountChanged",
      "type": "event"
    },
    {
      "anonymous": false,
      "inputs": [
        {
          "indexed": true,
          "internalType": "address",
          "name": "implementation",
          "type": "address"
        }
      ],
      "name": "Upgraded",
      "type": "event"
    },
    {
      "anonymous": false,
      "inputs": [
        {
          "indexed": true,
          "internalType": "string",
          "name": "projectName",
          "type": "string"
        },
        {
          "indexed": true,
          "internalType": "uint256",
          "name": "amount",
          "type": "uint256"
        }
      ],
      "name": "WithdrawalorUnstakeScheduled",
      "type": "event"
    },
    {
      "anonymous": false,
      "inputs": [
        {
          "indexed": true,
          "internalType": "address",
          "name": "token",
          "type": "address"
        },
        {
          "indexed": true,
          "internalType": "bool",
          "name": "whitelisted",
          "type": "bool"
        }
      ],
      "name": "tokenWhitelistUpdated",
      "type": "event"
    },
    {
      "inputs": [],
      "name": "beacon",
      "outputs": [
        {
          "internalType": "contract UpgradeableBeacon",
          "name": "",
          "type": "address"
        }
      ],
      "stateMutability": "view",
      "type": "function"
    },
    {
      "inputs": [],
      "name": "billPremiumForAll",
      "outputs": [
        {
          "internalType": "bool",
          "name": "",
          "type": "bool"
        }
      ],
      "stateMutability": "nonpayable",
      "type": "function"
    },
    {
      "inputs": [
        {
          "internalType": "string",
          "name": "_projectName",
          "type": "string"
        }
      ],
      "name": "billPremiumForOnePool",
      "outputs": [
        {
          "internalType": "bool",
          "name": "",
          "type": "bool"
        }
      ],
      "stateMutability": "nonpayable",
      "type": "function"
    },
    {
      "inputs": [
        {
          "internalType": "uint256",
          "name": "",
          "type": "uint256"
        }
      ],
      "name": "bountiesList",
      "outputs": [
        {
          "internalType": "string",
          "name": "projectName",
          "type": "string"
        },
        {
          "internalType": "address",
          "name": "projectWallet",
          "type": "address"
        },
        {
          "internalType": "contract BountyPool",
          "name": "proxyAddress",
          "type": "address"
        },
        {
          "internalType": "address",
          "name": "token",
          "type": "address"
        },
        {
          "internalType": "bool",
          "name": "dead",
          "type": "bool"
        }
      ],
      "stateMutability": "view",
      "type": "function"
    },
    {
      "inputs": [
        {
          "internalType": "string",
          "name": "",
          "type": "string"
        }
      ],
      "name": "bountyDetails",
      "outputs": [
        {
          "internalType": "string",
          "name": "projectName",
          "type": "string"
        },
        {
          "internalType": "address",
          "name": "projectWallet",
          "type": "address"
        },
        {
          "internalType": "contract BountyPool",
          "name": "proxyAddress",
          "type": "address"
        },
        {
          "internalType": "address",
          "name": "token",
          "type": "address"
        },
        {
          "internalType": "bool",
          "name": "dead",
          "type": "bool"
        }
      ],
      "stateMutability": "view",
      "type": "function"
    },
    {
      "inputs": [],
      "name": "bountyImplementation",
      "outputs": [
        {
          "internalType": "address",
          "name": "",
          "type": "address"
        }
      ],
      "stateMutability": "view",
      "type": "function"
    },
    {
      "inputs": [
        {
          "internalType": "string",
          "name": "_projectName",
          "type": "string"
        }
      ],
      "name": "claimPremium",
      "outputs": [
        {
          "internalType": "uint256",
          "name": "",
          "type": "uint256"
        }
      ],
      "stateMutability": "nonpayable",
      "type": "function"
    },
    {
      "inputs": [
        {
          "internalType": "bytes",
          "name": "_data",
          "type": "bytes"
        },
        {
          "internalType": "string",
          "name": "_projectName",
          "type": "string"
        },
        {
          "internalType": "address",
          "name": "_token",
          "type": "address"
        },
        {
          "internalType": "address",
          "name": "_projectWallet",
          "type": "address"
        }
      ],
      "name": "deployNewBounty",
      "outputs": [
        {
          "internalType": "contract BountyPool",
          "name": "",
          "type": "address"
        },
        {
          "internalType": "bool",
          "name": "",
          "type": "bool"
        }
      ],
      "stateMutability": "nonpayable",
      "type": "function"
    },
    {
      "inputs": [],
      "name": "factory",
      "outputs": [
        {
          "internalType": "contract BountyProxyFactory",
          "name": "",
          "type": "address"
        }
      ],
      "stateMutability": "view",
      "type": "function"
    },
    {
      "inputs": [
        {
          "internalType": "string",
          "name": "_projectName",
          "type": "string"
        }
      ],
      "name": "getBountyAddressByName",
      "outputs": [
        {
          "internalType": "address",
          "name": "",
          "type": "address"
        }
      ],
      "stateMutability": "view",
      "type": "function"
    },
    {
      "inputs": [
        {
          "internalType": "contract BountyProxyFactory",
          "name": "_factory",
          "type": "address"
        },
        {
          "internalType": "contract UpgradeableBeacon",
          "name": "_beacon",
          "type": "address"
        },
        {
          "internalType": "address",
          "name": "_bountyImplementation",
          "type": "address"
        }
      ],
      "name": "initialize",
      "outputs": [],
      "stateMutability": "nonpayable",
      "type": "function"
    },
    {
      "inputs": [
        {
          "internalType": "string",
          "name": "_projectName",
          "type": "string"
        }
      ],
      "name": "killBounty",
      "outputs": [
        {
          "internalType": "bool",
          "name": "",
          "type": "bool"
        }
      ],
      "stateMutability": "nonpayable",
      "type": "function"
    },
    {
      "inputs": [],
      "name": "owner",
      "outputs": [
        {
          "internalType": "address",
          "name": "",
          "type": "address"
        }
      ],
      "stateMutability": "view",
      "type": "function"
    },
    {
      "inputs": [
        {
          "internalType": "string",
          "name": "_projectName",
          "type": "string"
        },
        {
          "internalType": "address",
          "name": "_hunter",
          "type": "address"
        },
        {
          "internalType": "uint256",
          "name": "_amount",
          "type": "uint256"
        }
      ],
      "name": "payBounty",
      "outputs": [
        {
          "internalType": "bool",
          "name": "",
          "type": "bool"
        }
      ],
      "stateMutability": "nonpayable",
      "type": "function"
    },
    {
      "inputs": [
        {
          "internalType": "string",
          "name": "_projectName",
          "type": "string"
        },
        {
          "internalType": "uint256",
          "name": "_amount",
          "type": "uint256"
        }
      ],
      "name": "projectDeposit",
      "outputs": [
        {
          "internalType": "bool",
          "name": "",
          "type": "bool"
        }
      ],
      "stateMutability": "nonpayable",
      "type": "function"
    },
    {
      "inputs": [
        {
          "internalType": "string",
          "name": "_projectName",
          "type": "string"
        },
        {
          "internalType": "uint256",
          "name": "_amount",
          "type": "uint256"
        }
      ],
      "name": "projectDepositWithdrawal",
      "outputs": [
        {
          "internalType": "bool",
          "name": "",
          "type": "bool"
        }
      ],
      "stateMutability": "nonpayable",
      "type": "function"
    },
    {
      "inputs": [],
      "name": "proxiableUUID",
      "outputs": [
        {
          "internalType": "bytes32",
          "name": "",
          "type": "bytes32"
        }
      ],
      "stateMutability": "view",
      "type": "function"
    },
    {
      "inputs": [],
      "name": "renounceOwnership",
      "outputs": [],
      "stateMutability": "nonpayable",
      "type": "function"
    },
    {
      "inputs": [],
      "name": "saloonWallet",
      "outputs": [
        {
          "internalType": "contract SaloonWallet",
          "name": "",
          "type": "address"
        }
      ],
      "stateMutability": "view",
      "type": "function"
    },
    {
      "inputs": [
        {
          "internalType": "string",
          "name": "_projectName",
          "type": "string"
        },
        {
          "internalType": "uint256",
          "name": "_amount",
          "type": "uint256"
        }
      ],
      "name": "scheduleProjectDepositWithdrawal",
      "outputs": [
        {
          "internalType": "bool",
          "name": "",
          "type": "bool"
        }
      ],
      "stateMutability": "nonpayable",
      "type": "function"
    },
    {
      "inputs": [
        {
          "internalType": "string",
          "name": "_projectName",
          "type": "string"
        },
        {
          "internalType": "uint256",
          "name": "_amount",
          "type": "uint256"
        }
      ],
      "name": "scheduleUnstake",
      "outputs": [
        {
          "internalType": "bool",
          "name": "",
          "type": "bool"
        }
      ],
      "stateMutability": "nonpayable",
      "type": "function"
    },
    {
      "inputs": [
        {
          "internalType": "string",
          "name": "_projectName",
          "type": "string"
        },
        {
          "internalType": "uint256",
          "name": "_poolCap",
          "type": "uint256"
        },
        {
          "internalType": "uint256",
          "name": "_desiredAPY",
          "type": "uint256"
        }
      ],
      "name": "setBountyCapAndAPY",
      "outputs": [
        {
          "internalType": "bool",
          "name": "",
          "type": "bool"
        }
      ],
      "stateMutability": "nonpayable",
      "type": "function"
    },
    {
      "inputs": [
        {
          "internalType": "string",
          "name": "_projectName",
          "type": "string"
        },
        {
          "internalType": "uint256",
          "name": "_amount",
          "type": "uint256"
        }
      ],
      "name": "stake",
      "outputs": [
        {
          "internalType": "bool",
          "name": "",
          "type": "bool"
        }
      ],
      "stateMutability": "nonpayable",
      "type": "function"
    },
    {
      "inputs": [
        {
          "internalType": "address",
          "name": "",
          "type": "address"
        }
      ],
      "name": "tokenWhitelist",
      "outputs": [
        {
          "internalType": "bool",
          "name": "",
          "type": "bool"
        }
      ],
      "stateMutability": "view",
      "type": "function"
    },
    {
      "inputs": [
        {
          "internalType": "address",
          "name": "newOwner",
          "type": "address"
        }
      ],
      "name": "transferOwnership",
      "outputs": [],
      "stateMutability": "nonpayable",
      "type": "function"
    },
    {
      "inputs": [
        {
          "internalType": "string",
          "name": "_projectName",
          "type": "string"
        },
        {
          "internalType": "uint256",
          "name": "_amount",
          "type": "uint256"
        }
      ],
      "name": "unstake",
      "outputs": [
        {
          "internalType": "bool",
          "name": "",
          "type": "bool"
        }
      ],
      "stateMutability": "nonpayable",
      "type": "function"
    },
    {
      "inputs": [
        {
          "internalType": "address",
          "name": "_newImplementation",
          "type": "address"
        }
      ],
      "name": "updateBountyPoolImplementation",
      "outputs": [
        {
          "internalType": "bool",
          "name": "",
          "type": "bool"
        }
      ],
      "stateMutability": "nonpayable",
      "type": "function"
    },
    {
      "inputs": [
        {
          "internalType": "address",
          "name": "_newWallet",
          "type": "address"
        }
      ],
      "name": "updateSaloonWallet",
      "outputs": [],
      "stateMutability": "nonpayable",
      "type": "function"
    },
    {
      "inputs": [
        {
          "internalType": "address",
          "name": "_token",
          "type": "address"
        },
        {
          "internalType": "bool",
          "name": "_whitelisted",
          "type": "bool"
        }
      ],
      "name": "updateTokenWhitelist",
      "outputs": [
        {
          "internalType": "bool",
          "name": "",
          "type": "bool"
        }
      ],
      "stateMutability": "nonpayable",
      "type": "function"
    },
    {
      "inputs": [
        {
          "internalType": "address",
          "name": "newImplementation",
          "type": "address"
        }
      ],
      "name": "upgradeTo",
      "outputs": [],
      "stateMutability": "nonpayable",
      "type": "function"
    },
    {
      "inputs": [
        {
          "internalType": "address",
          "name": "newImplementation",
          "type": "address"
        },
        {
          "internalType": "bytes",
          "name": "data",
          "type": "bytes"
        }
      ],
      "name": "upgradeToAndCall",
      "outputs": [],
      "stateMutability": "payable",
      "type": "function"
    },
    {
      "inputs": [],
      "name": "viewAllBountiesByName",
      "outputs": [
        {
          "components": [
            {
              "internalType": "string",
              "name": "projectName",
              "type": "string"
            },
            {
              "internalType": "address",
              "name": "projectWallet",
              "type": "address"
            },
            {
              "internalType": "contract BountyPool",
              "name": "proxyAddress",
              "type": "address"
            },
            {
              "internalType": "address",
              "name": "token",
              "type": "address"
            },
            {
              "internalType": "bool",
              "name": "dead",
              "type": "bool"
            }
          ],
          "internalType": "struct BountyProxiesManager.Bounties[]",
          "name": "",
          "type": "tuple[]"
        }
      ],
      "stateMutability": "view",
      "type": "function"
    },
    {
      "inputs": [
        {
          "internalType": "string",
          "name": "_projectName",
          "type": "string"
        }
      ],
      "name": "viewBountyBalance",
      "outputs": [
        {
          "internalType": "uint256",
          "name": "",
          "type": "uint256"
        }
      ],
      "stateMutability": "view",
      "type": "function"
    },
    {
      "inputs": [
        {
          "internalType": "string",
          "name": "_projectName",
          "type": "string"
        }
      ],
      "name": "viewBountyInfo",
      "outputs": [
        {
          "internalType": "uint256",
          "name": "payout",
          "type": "uint256"
        },
        {
          "internalType": "uint256",
          "name": "apy",
          "type": "uint256"
        },
        {
          "internalType": "uint256",
          "name": "staked",
          "type": "uint256"
        },
        {
          "internalType": "uint256",
          "name": "poolCap",
          "type": "uint256"
        }
      ],
      "stateMutability": "view",
      "type": "function"
    },
    {
      "inputs": [
        {
          "internalType": "string",
          "name": "_projectName",
          "type": "string"
        }
      ],
      "name": "viewBountyOwner",
      "outputs": [
        {
          "internalType": "address",
          "name": "",
          "type": "address"
        }
      ],
      "stateMutability": "view",
      "type": "function"
    },
    {
      "inputs": [
        {
          "internalType": "string",
          "name": "_projectName",
          "type": "string"
        }
      ],
      "name": "viewDesiredAPY",
      "outputs": [
        {
          "internalType": "uint256",
          "name": "",
          "type": "uint256"
        }
      ],
      "stateMutability": "view",
      "type": "function"
    },
    {
      "inputs": [
        {
          "internalType": "string",
          "name": "_projectName",
          "type": "string"
        }
      ],
      "name": "viewHackerPayout",
      "outputs": [
        {
          "internalType": "uint256",
          "name": "",
          "type": "uint256"
        }
      ],
      "stateMutability": "view",
      "type": "function"
    },
    {
      "inputs": [
        {
          "internalType": "address",
          "name": "_token",
          "type": "address"
        },
        {
          "internalType": "address",
          "name": "_hunter",
          "type": "address"
        }
      ],
      "name": "viewHunterTotalTokenPayouts",
      "outputs": [
        {
          "internalType": "uint256",
          "name": "",
          "type": "uint256"
        }
      ],
      "stateMutability": "view",
      "type": "function"
    },
    {
      "inputs": [
        {
          "internalType": "string",
          "name": "_projectName",
          "type": "string"
        }
      ],
      "name": "viewPoolCap",
      "outputs": [
        {
          "internalType": "uint256",
          "name": "",
          "type": "uint256"
        }
      ],
      "stateMutability": "view",
      "type": "function"
    },
    {
      "inputs": [
        {
          "internalType": "string",
          "name": "_projectName",
          "type": "string"
        }
      ],
      "name": "viewProjectDeposit",
      "outputs": [
        {
          "internalType": "uint256",
          "name": "",
          "type": "uint256"
        }
      ],
      "stateMutability": "view",
      "type": "function"
    },
    {
      "inputs": [],
      "name": "viewSaloonBalance",
      "outputs": [
        {
          "internalType": "uint256",
          "name": "",
          "type": "uint256"
        }
      ],
      "stateMutability": "view",
      "type": "function"
    },
    {
      "inputs": [],
      "name": "viewTotalEarnedSaloon",
      "outputs": [
        {
          "internalType": "uint256",
          "name": "",
          "type": "uint256"
        }
      ],
      "stateMutability": "view",
      "type": "function"
    },
    {
      "inputs": [],
      "name": "viewTotalHackerPayouts",
      "outputs": [
        {
          "internalType": "uint256",
          "name": "",
          "type": "uint256"
        }
      ],
      "stateMutability": "view",
      "type": "function"
    },
    {
      "inputs": [],
      "name": "viewTotalPremiums",
      "outputs": [
        {
          "internalType": "uint256",
          "name": "",
          "type": "uint256"
        }
      ],
      "stateMutability": "view",
      "type": "function"
    },
    {
      "inputs": [],
      "name": "viewTotalSaloonCommission",
      "outputs": [
        {
          "internalType": "uint256",
          "name": "",
          "type": "uint256"
        }
      ],
      "stateMutability": "view",
      "type": "function"
    },
    {
      "inputs": [
        {
          "internalType": "string",
          "name": "_projectName",
          "type": "string"
        },
        {
          "internalType": "address",
          "name": "_staker",
          "type": "address"
        }
      ],
      "name": "viewUserStakingBalance",
      "outputs": [
        {
          "internalType": "uint256",
          "name": "",
          "type": "uint256"
        }
      ],
      "stateMutability": "view",
      "type": "function"
    },
    {
      "inputs": [
        {
          "internalType": "string",
          "name": "_projectName",
          "type": "string"
        }
      ],
      "name": "viewstakersDeposit",
      "outputs": [
        {
          "internalType": "uint256",
          "name": "",
          "type": "uint256"
        }
      ],
      "stateMutability": "view",
      "type": "function"
    },
    {
      "inputs": [
        {
          "internalType": "address",
          "name": "_token",
          "type": "address"
        },
        {
          "internalType": "address",
          "name": "_to",
          "type": "address"
        },
        {
          "internalType": "uint256",
          "name": "_amount",
          "type": "uint256"
        }
      ],
      "name": "withdrawSaloon",
      "outputs": [
        {
          "internalType": "bool",
          "name": "",
          "type": "bool"
        }
      ],
      "stateMutability": "nonpayable",
      "type": "function"
    },
    {
      "inputs": [],
      "name": "withdrawSaloonPremiumFees",
      "outputs": [
        {
          "internalType": "bool",
          "name": "",
          "type": "bool"
        }
      ],
      "stateMutability": "nonpayable",
      "type": "function"
    }
  ],
  "bytecode": {
    "object": "0x60a06040523060805234801561001457600080fd5b50608051614ec961004c600039600081816114d90152818161152201528181611af601528181611b360152611bc90152614ec96000f3fe6080604052600436106102ae5760003560e01c80637f2f3e5e11610175578063c45a0155116100dc578063d7dc56a511610095578063e6b37f6f1161006f578063e6b37f6f14610884578063f0e6b4ed146108a4578063f2fde38b146108c4578063f4808fea146108e457600080fd5b8063d7dc56a51461082f578063e5125d7b1461084f578063e5e97c651461086457600080fd5b8063c45a01551461077a578063cae38faa1461079a578063d16ad2f7146107ba578063d3326a0a146107da578063d37c92dc146107ef578063d3c15cdb1461080f57600080fd5b8063a667b5d01161012e578063a667b5d0146106c5578063b8047881146106e5578063b91cdea714610705578063bc16076114610725578063c0c53b8b14610745578063c31495901461076557600080fd5b80637f2f3e5e146105e15780638da5cb5b14610612578063943eb4f2146106305780639494c8ae146106705780639ca7e78714610690578063a0d07125146106b057600080fd5b80634f1ef2861161021957806366b6c647116101d257806366b6c6471461052757806368dd3dbf146105475780636c94853514610567578063715018a61461057c578063753d75631461059157806379f99a89146105c157600080fd5b80634f1ef2861461047f57806352d1902d1461049257806353dce856146104a757806358b07d5b146104c757806359659e90146104e7578063666b70301461050757600080fd5b806327e735421161026b57806327e73542146103915780633659cfe6146103a657806337787926146103c85780633ef0c3ed146104005780634389e41a146104205780634c0d9a6c1461044057600080fd5b806303c46f51146102b357806305234fda146102de5780630e0602491461030c5780630f0df1711461033157806315daef49146103515780632158032214610371575b600080fd5b3480156102bf57600080fd5b506102c8610904565b6040516102d59190614645565b60405180910390f35b3480156102ea57600080fd5b506102fe6102f936600461478f565b610a3a565b6040519081526020016102d5565b34801561031857600080fd5b50610321610bac565b60405190151581526020016102d5565b34801561033d57600080fd5b506102fe61034c36600461478f565b610ed7565b34801561035d57600080fd5b506102fe61036c3660046147d9565b61101e565b34801561037d57600080fd5b506102fe61038c36600461482b565b611199565b34801561039d57600080fd5b506103216111ec565b3480156103b257600080fd5b506103c66103c1366004614859565b6114ce565b005b3480156103d457600080fd5b506103e86103e336600461478f565b6115b7565b6040516001600160a01b0390911681526020016102d5565b34801561040c57600080fd5b506102fe61041b36600461478f565b6115eb565b34801561042c57600080fd5b506068546103e8906001600160a01b031681565b34801561044c57600080fd5b5061046061045b366004614876565b611735565b604080516001600160a01b0390931683529015156020830152016102d5565b6103c661048d3660046148ff565b611aeb565b34801561049e57600080fd5b506102fe611bbc565b3480156104b357600080fd5b506103216104c2366004614859565b611c6f565b3480156104d357600080fd5b506103216104e236600461494f565b611d59565b3480156104f357600080fd5b506066546103e8906001600160a01b031681565b34801561051357600080fd5b506102fe61052236600461478f565b611fec565b34801561053357600080fd5b506103e861054236600461478f565b6121af565b34801561055357600080fd5b5061032161056236600461499d565b6121e3565b34801561057357600080fd5b506102fe61248b565b34801561058857600080fd5b506103c66124fe565b34801561059d57600080fd5b506103216105ac366004614859565b606b6020526000908152604090205460ff1681565b3480156105cd57600080fd5b506103c66105dc366004614859565b612512565b3480156105ed57600080fd5b506106016105fc3660046149e2565b612589565b6040516102d59594939291906149fb565b34801561061e57600080fd5b506033546001600160a01b03166103e8565b34801561063c57600080fd5b5061065061064b36600461478f565b61266d565b6040805194855260208501939093529183015260608201526080016102d5565b34801561067c57600080fd5b5061032161068b36600461499d565b6126a6565b34801561069c57600080fd5b506103216106ab36600461478f565b6129cf565b3480156106bc57600080fd5b506102fe612a5b565b3480156106d157600080fd5b506102fe6106e036600461478f565b612aa5565b3480156106f157600080fd5b5061032161070036600461499d565b612bec565b34801561071157600080fd5b506102fe61072036600461478f565b612e0f565b34801561073157600080fd5b50610321610740366004614a41565b612f56565b34801561075157600080fd5b506103c6610760366004614a9b565b6131dc565b34801561077157600080fd5b506102fe61332d565b34801561078657600080fd5b506065546103e8906001600160a01b031681565b3480156107a657600080fd5b506067546103e8906001600160a01b031681565b3480156107c657600080fd5b506103216107d536600461499d565b613377565b3480156107e657600080fd5b506102fe613572565b3480156107fb57600080fd5b5061032161080a36600461499d565b6135bc565b34801561081b57600080fd5b506102fe61082a36600461478f565b6138f2565b34801561083b57600080fd5b5061060161084a36600461478f565b613a39565b34801561085b57600080fd5b506102fe613a5f565b34801561087057600080fd5b5061032161087f366004614af4565b613aa9565b34801561089057600080fd5b5061032161089f36600461478f565b613b0c565b3480156108b057600080fd5b506103216108bf366004614b22565b613ca2565b3480156108d057600080fd5b506103c66108df366004614859565b613da9565b3480156108f057600080fd5b506103216108ff36600461499d565b613e1f565b60606069805480602002602001604051908101604052809291908181526020016000905b82821015610a3157838290600052602060002090600402016040518060a001604052908160008201805461095b90614b52565b80601f016020809104026020016040519081016040528092919081815260200182805461098790614b52565b80156109d45780601f106109a9576101008083540402835291602001916109d4565b820191906000526020600020905b8154815290600101906020018083116109b757829003601f168201915b50505091835250506001828101546001600160a01b039081166020808501919091526002850154821660408501526003909401549081166060840152600160a01b900460ff16151560809092019190915291835292019101610928565b50505050905090565b600080606a83604051610a4d9190614b8d565b90815260200160405180910390206040518060a0016040529081600082018054610a7690614b52565b80601f0160208091040260200160405190810160405280929190818152602001828054610aa290614b52565b8015610aef5780601f10610ac457610100808354040283529160200191610aef565b820191906000526020600020905b815481529060010190602001808311610ad257829003601f168201915b505050918352505060018201546001600160a01b03908116602080840191909152600284015482166040808501919091526003909401548083166060850152600160a01b900460ff161515608090930192909252838301518351637228407360e11b81529351949550169263e45080e69260048082019392918290030181865afa158015610b81573d6000803e3d6000fd5b505050506040513d601f19601f82011682018060405250810190610ba59190614ba9565b9392505050565b6000610bb6614079565b60006069805480602002602001604051908101604052809291908181526020016000905b82821015610ce357838290600052602060002090600402016040518060a0016040529081600082018054610c0d90614b52565b80601f0160208091040260200160405190810160405280929190818152602001828054610c3990614b52565b8015610c865780601f10610c5b57610100808354040283529160200191610c86565b820191906000526020600020905b815481529060010190602001808311610c6957829003601f168201915b50505091835250506001828101546001600160a01b039081166020808501919091526002850154821660408501526003909401549081166060840152600160a01b900460ff16151560809092019190915291835292019101610bda565b5050505090506000815190506000805b82811015610ea157610d21848281518110610d1057610d10614bc2565b6020026020010151608001516140d3565b151560011415610d3057610e91565b6000848281518110610d4457610d44614bc2565b6020026020010151604001516001600160a01b0316635121ac9d868481518110610d7057610d70614bc2565b60209081029190910101516060015160685460405160e084901b6001600160e01b03191681526001600160a01b039283166004820152911660248201526044016020604051808303816000875af1158015610dcf573d6000803e3d6000fd5b505050506040513d601f19601f82011682018060405250810190610df39190614ba9565b60685486519192506001600160a01b0316906383ab930490879085908110610e1d57610e1d614bc2565b602002602001015160600151836040518363ffffffff1660e01b8152600401610e5b9291906001600160a01b03929092168252602082015260400190565b600060405180830381600087803b158015610e7557600080fd5b505af1158015610e89573d6000803e3d6000fd5b509294505050505b610e9a81614bee565b9050610cf3565b5060405181907ff61dcc40e5f2c6bc5b24cb6f24690965e673c4c563bbf94cbbdaff36bffde00b90600090a26001935050505090565b600080606a83604051610eea9190614b8d565b90815260200160405180910390206040518060a0016040529081600082018054610f1390614b52565b80601f0160208091040260200160405190810160405280929190818152602001828054610f3f90614b52565b8015610f8c5780601f10610f6157610100808354040283529160200191610f8c565b820191906000526020600020905b815481529060010190602001808311610f6f57829003601f168201915b505050918352505060018201546001600160a01b03908116602080840191909152600284015482166040808501919091526003909401548083166060850152600160a01b900460ff161515608090930192909252838301518351634a94bcb360e01b815293519495501692634a94bcb39260048082019392918290030181865afa158015610b81573d6000803e3d6000fd5b600080606a846040516110319190614b8d565b90815260200160405180910390206040518060a001604052908160008201805461105a90614b52565b80601f016020809104026020016040519081016040528092919081815260200182805461108690614b52565b80156110d35780601f106110a8576101008083540402835291602001916110d3565b820191906000526020600020905b8154815290600101906020018083116110b657829003601f168201915b505050918352505060018201546001600160a01b039081166020830152600283015481166040808401919091526003909301548082166060840152600160a01b900460ff161515608090920191909152828201519151631a89cabd60e01b81528682166004820152929350600092911690631a89cabd906024016040805180830381865afa158015611169573d6000803e3d6000fd5b505050506040513d601f19601f8201168201806040525081019061118d9190614c09565b50925050505b92915050565b6068546040516310ac019160e11b81526001600160a01b03848116600483015283811660248301526000921690632158032290604401602060405180830381865afa158015610b81573d6000803e3d6000fd5b6000806069805480602002602001604051908101604052809291908181526020016000905b8282101561131a57838290600052602060002090600402016040518060a001604052908160008201805461124490614b52565b80601f016020809104026020016040519081016040528092919081815260200182805461127090614b52565b80156112bd5780601f10611292576101008083540402835291602001916112bd565b820191906000526020600020905b8154815290600101906020018083116112a057829003601f168201915b50505091835250506001828101546001600160a01b039081166020808501919091526002850154821660408501526003909401549081166060840152600160a01b900460ff16151560809092019190915291835292019101611211565b5050825192935060009150505b818110156114c457611344838281518110610d1057610d10614bc2565b151560011415611353576114b4565b82818151811061136557611365614bc2565b6020026020010151604001516001600160a01b0316638aa82e8284838151811061139157611391614bc2565b6020026020010151606001518584815181106113af576113af614bc2565b6020026020010151602001516040518363ffffffff1660e01b81526004016113ed9291906001600160a01b0392831681529116602082015260400190565b6020604051808303816000875af115801561140c573d6000803e3d6000fd5b505050506040513d601f19601f820116820180604052508101906114309190614c2d565b5082818151811061144357611443614bc2565b6020026020010151602001516001600160a01b031683828151811061146a5761146a614bc2565b6020026020010151600001516040516114839190614b8d565b604051908190038120907fd5d2d05dfe0d10d196c53d6f16e6d70e4dbb9cb77fe8682f6c68e9426c29103090600090a35b6114bd81614bee565b9050611327565b5060019250505090565b306001600160a01b037f00000000000000000000000000000000000000000000000000000000000000001614156115205760405162461bcd60e51b815260040161151790614c4a565b60405180910390fd5b7f00000000000000000000000000000000000000000000000000000000000000006001600160a01b0316611569600080516020614e4d833981519152546001600160a01b031690565b6001600160a01b03161461158f5760405162461bcd60e51b815260040161151790614c96565b611598816140ea565b604080516000808252602082019092526115b4918391906140f2565b50565b6000606a826040516115c99190614b8d565b908152604051908190036020019020600101546001600160a01b031692915050565b600080606a836040516115fe9190614b8d565b90815260200160405180910390206040518060a001604052908160008201805461162790614b52565b80601f016020809104026020016040519081016040528092919081815260200182805461165390614b52565b80156116a05780601f10611675576101008083540402835291602001916116a0565b820191906000526020600020905b81548152906001019060200180831161168357829003601f168201915b505050918352505060018201546001600160a01b03908116602080840191909152600284015482166040808501919091526003909401548083166060850152600160a01b900460ff16151560809093019290925283830151835160016202e8ad60e61b031981529351949550169263ff45d4c09260048082019392918290030181865afa158015610b81573d6000803e3d6000fd5b600080611740614079565b60006001600160a01b0316606a8660405161175b9190614b8d565b908152604051908190036020019020600201546001600160a01b0316146117c45760405162461bcd60e51b815260206004820152601a60248201527f50726f6a65637420616c72656164792068617320626f756e74790000000000006044820152606401611517565b6001600160a01b0384166000908152606b602052604090205460ff1615156001146118265760405162461bcd60e51b8152602060048201526012602482015271151bdad95b881b9bdd08185c1c1c9bdd995960721b6044820152606401611517565b6040805160a0810182526000818301819052608082018190528782526001600160a01b038681166020840152878116606084015260655460665494516336d9881760e01b815293949293908216926336d988179261188b929116908c90600401614ce2565b6020604051808303816000875af11580156118aa573d6000803e3d6000fd5b505050506040513d601f19601f820116820180604052508101906118ce9190614d06565b604051634b8e0d3760e01b81523060048201529091506001600160a01b03821690634b8e0d3790602401600060405180830381600087803b15801561191257600080fd5b505af1158015611926573d6000803e3d6000fd5b5050506001600160a01b038216604084015250606980546001810182556000919091528251805184926004027f7fb4302e8e91f9110a6554c2c0a24601252c2a42c2220ca988efcfe399914308019161198491839160200190614554565b5060208201516001820180546001600160a01b039283166001600160a01b03199182161790915560408085015160028501805491851691909316179091556060840151600390930180546080909501511515600160a01b026001600160a81b0319909516939092169290921792909217909155518290606a90611a08908a90614b8d565b90815260200160405180910390206000820151816000019080519060200190611a32929190614554565b506020828101516001830180546001600160a01b039283166001600160a01b03199182161790915560408086015160028601805491851691909316179091556060850151600390940180546080909601511515600160a01b026001600160a81b03199096169483169490941794909417909255915183821681529087169133917fa397122091ddbad4417c188353200f86978770ea6a146a5860667b1ef760917c910160405180910390a3976001975095505050505050565b306001600160a01b037f0000000000000000000000000000000000000000000000000000000000000000161415611b345760405162461bcd60e51b815260040161151790614c4a565b7f00000000000000000000000000000000000000000000000000000000000000006001600160a01b0316611b7d600080516020614e4d833981519152546001600160a01b031690565b6001600160a01b031614611ba35760405162461bcd60e51b815260040161151790614c96565b611bac826140ea565b611bb8828260016140f2565b5050565b6000306001600160a01b037f00000000000000000000000000000000000000000000000000000000000000001614611c5c5760405162461bcd60e51b815260206004820152603860248201527f555550535570677261646561626c653a206d757374206e6f742062652063616c60448201527f6c6564207468726f7567682064656c656761746563616c6c00000000000000006064820152608401611517565b50600080516020614e4d83398151915290565b6000611c79614079565b6001600160a01b038216611cbe5760405162461bcd60e51b815260206004820152600c60248201526b41646472657373207a65726f60a01b6044820152606401611517565b606654604051631b2ce7f360e11b81526001600160a01b03848116600483015290911690633659cfe690602401600060405180830381600087803b158015611d0557600080fd5b505af1158015611d19573d6000803e3d6000fd5b50506040516001600160a01b03851692507f8351bb7d88cde824de55ae548c81488c9bea6ad24cafb7644e7df7ac0cfcb46c9150600090a2506001919050565b600080606a85604051611d6c9190614b8d565b90815260200160405180910390206040518060a0016040529081600082018054611d9590614b52565b80601f0160208091040260200160405190810160405280929190818152602001828054611dc190614b52565b8015611e0e5780601f10611de357610100808354040283529160200191611e0e565b820191906000526020600020905b815481529060010190602001808311611df157829003601f168201915b505050918352505060018201546001600160a01b0390811660208301526002830154811660408301526003909201549182166060820152600160a01b90910460ff161515608091820152810151909150611e67906140d3565b1515600114611e885760405162461bcd60e51b815260040161151790614d23565b80602001516001600160a01b0316336001600160a01b031614611ebd5760405162461bcd60e51b815260040161151790614d4b565b80604001516001600160a01b031663d835f535856040518263ffffffff1660e01b8152600401611eef91815260200190565b600060405180830381600087803b158015611f0957600080fd5b505af1158015611f1d573d6000803e3d6000fd5b50505060408083015160608401516020850151925163cc12c31160e01b81526001600160a01b03909216935063cc12c31192611f5d928890600401614d76565b6020604051808303816000875af1158015611f7c573d6000803e3d6000fd5b505050506040513d601f19601f82011682018060405250810190611fa09190614c2d565b50828486604051611fb19190614b8d565b604051908190038120907f5d9beb4943b1823a8d5ffbc059a5d64cf367d9b7aaee9e28a697b842779957d890600090a4506001949350505050565b600080606a83604051611fff9190614b8d565b90815260200160405180910390206040518060a001604052908160008201805461202890614b52565b80601f016020809104026020016040519081016040528092919081815260200182805461205490614b52565b80156120a15780601f10612076576101008083540402835291602001916120a1565b820191906000526020600020905b81548152906001019060200180831161208457829003601f168201915b505050918352505060018201546001600160a01b0390811660208301526002830154811660408301526003909201549182166060820152600160a01b90910460ff1615156080918201528101519091506120fa906140d3565b151560011461211b5760405162461bcd60e51b815260040161151790614d23565b6040808201516060830151602084015192516303065f4560e41b81526001600160a01b0391821660048201523360248201529281166044840152600092911690633065f4509060640160408051808303816000875af1158015612182573d6000803e3d6000fd5b505050506040513d601f19601f820116820180604052508101906121a69190614d9a565b50949350505050565b6000606a826040516121c19190614b8d565b908152604051908190036020019020600201546001600160a01b031692915050565b600080606a846040516121f69190614b8d565b90815260200160405180910390206040518060a001604052908160008201805461221f90614b52565b80601f016020809104026020016040519081016040528092919081815260200182805461224b90614b52565b80156122985780601f1061226d57610100808354040283529160200191612298565b820191906000526020600020905b81548152906001019060200180831161227b57829003601f168201915b505050918352505060018201546001600160a01b0390811660208301526002830154811660408301526003909201549182166060820152600160a01b90910460ff1615156080918201528101519091506122f1906140d3565b15156001146123125760405162461bcd60e51b815260040161151790614d23565b80602001516001600160a01b0316336001600160a01b0316146123475760405162461bcd60e51b815260040161151790614d4b565b600081604001516001600160a01b0316634a94bcb36040518163ffffffff1660e01b8152600401602060405180830381865afa15801561238b573d6000803e3d6000fd5b505050506040513d601f19601f820116820180604052508101906123af9190614ba9565b905081604001516001600160a01b031663419b7bd783606001518460200151876040518463ffffffff1660e01b81526004016123ed93929190614d76565b6020604051808303816000875af115801561240c573d6000803e3d6000fd5b505050506040513d601f19601f820116820180604052508101906124309190614c2d565b50600061243d8583614dbf565b905080828760405161244f9190614b8d565b604051908190038120907f4263aad47889a1b6d47c62c4329f18cb38e94cb40ac428c5212a224262e39d7b90600090a450600195945050505050565b60685460408051636c94853560e01b815290516000926001600160a01b031691636c9485359160048083019260209291908290030181865afa1580156124d5573d6000803e3d6000fd5b505050506040513d601f19601f820116820180604052508101906124f99190614ba9565b905090565b612506614079565b6125106000614262565b565b61251a614079565b6001600160a01b0381166125675760405162461bcd60e51b8152602060048201526014602482015273416464726573732063616e74206265207a65726f60601b6044820152606401611517565b606880546001600160a01b0319166001600160a01b0392909216919091179055565b6069818154811061259957600080fd5b90600052602060002090600402016000915090508060000180546125bc90614b52565b80601f01602080910402602001604051908101604052809291908181526020018280546125e890614b52565b80156126355780601f1061260a57610100808354040283529160200191612635565b820191906000526020600020905b81548152906001019060200180831161261857829003601f168201915b505050506001830154600284015460039094015492936001600160a01b0391821693908216925090811690600160a01b900460ff1685565b60008060008061267c85610ed7565b935061268785612e0f565b915061269285612aa5565b925061269d856115eb565b90509193509193565b600080606a846040516126b99190614b8d565b90815260200160405180910390206040518060a00160405290816000820180546126e290614b52565b80601f016020809104026020016040519081016040528092919081815260200182805461270e90614b52565b801561275b5780601f106127305761010080835404028352916020019161275b565b820191906000526020600020905b81548152906001019060200180831161273e57829003601f168201915b505050918352505060018201546001600160a01b0390811660208301526002830154811660408301526003909201549182166060820152600160a01b90910460ff1615156080918201528101519091506127b4906140d3565b15156001146127d55760405162461bcd60e51b815260040161151790614d23565b600081604001516001600160a01b0316634a94bcb36040518163ffffffff1660e01b8152600401602060405180830381865afa158015612819573d6000803e3d6000fd5b505050506040513d601f19601f8201168201806040525081019061283d9190614ba9565b9050600082604001516001600160a01b03166316e17b8d6040518163ffffffff1660e01b8152600401602060405180830381865afa158015612883573d6000803e3d6000fd5b505050506040513d601f19601f820116820180604052508101906128a79190614ba9565b6040808501516060860151915163bf6eac2f60e01b81529293506001600160a01b03169163bf6eac2f916128e19133908a90600401614d76565b6020604051808303816000875af1158015612900573d6000803e3d6000fd5b505050506040513d601f19601f820116820180604052508101906129249190614c2d565b5060006129318684614dd6565b9050600061293f8784614dd6565b90508083896040516129519190614b8d565b604051908190038120907f8834bcade58122eb5594c97d7d46171dc644983fafc2663e6728a6eb925a18ba90600090a48184896040516129919190614b8d565b604051908190038120907f4263aad47889a1b6d47c62c4329f18cb38e94cb40ac428c5212a224262e39d7b90600090a4506001979650505050505050565b60006129d9614079565b6001606a836040516129eb9190614b8d565b9081526040519081900360200181206003018054921515600160a01b0260ff60a01b1990931692909217909155612a23908390614b8d565b604051908190038120907f064c50721c2d6a8dde5fa7e23659e4df58c910897f7b98ca5b9a940038645cc890600090a2506001919050565b6068546040805163a0d0712560e01b815290516000926001600160a01b03169163a0d071259160048083019260209291908290030181865afa1580156124d5573d6000803e3d6000fd5b600080606a83604051612ab89190614b8d565b90815260200160405180910390206040518060a0016040529081600082018054612ae190614b52565b80601f0160208091040260200160405190810160405280929190818152602001828054612b0d90614b52565b8015612b5a5780601f10612b2f57610100808354040283529160200191612b5a565b820191906000526020600020905b815481529060010190602001808311612b3d57829003601f168201915b505050918352505060018201546001600160a01b03908116602080840191909152600284015482166040808501919091526003909401548083166060850152600160a01b900460ff1615156080909301929092528383015183516378eb46fd60e01b8152935194955016926378eb46fd9260048082019392918290030181865afa158015610b81573d6000803e3d6000fd5b600080606a84604051612bff9190614b8d565b90815260200160405180910390206040518060a0016040529081600082018054612c2890614b52565b80601f0160208091040260200160405190810160405280929190818152602001828054612c5490614b52565b8015612ca15780601f10612c7657610100808354040283529160200191612ca1565b820191906000526020600020905b815481529060010190602001808311612c8457829003601f168201915b505050918352505060018201546001600160a01b0390811660208301526002830154811660408301526003909201549182166060820152600160a01b90910460ff161515608091820152810151909150612cfa906140d3565b1515600114612d1b5760405162461bcd60e51b815260040161151790614d23565b80602001516001600160a01b0316336001600160a01b031614612d505760405162461bcd60e51b815260040161151790614d4b565b80604001516001600160a01b0316634b5df6cc846040518263ffffffff1660e01b8152600401612d8291815260200190565b6020604051808303816000875af1158015612da1573d6000803e3d6000fd5b505050506040513d601f19601f82011682018060405250810190612dc59190614c2d565b508284604051612dd59190614b8d565b604051908190038120907f0e6ef9b3f0bcbf52c4ddbfdfb70f52e00c6083b9d5f795123d4e753ac4f82d3990600090a35060019392505050565b600080606a83604051612e229190614b8d565b90815260200160405180910390206040518060a0016040529081600082018054612e4b90614b52565b80601f0160208091040260200160405190810160405280929190818152602001828054612e7790614b52565b8015612ec45780601f10612e9957610100808354040283529160200191612ec4565b820191906000526020600020905b815481529060010190602001808311612ea757829003601f168201915b505050918352505060018201546001600160a01b03908116602080840191909152600284015482166040808501919091526003909401548083166060850152600160a01b900460ff1615156080909301929092528383015183516316e17b8d60e01b8152935194955016926316e17b8d9260048082019392918290030181865afa158015610b81573d6000803e3d6000fd5b6000612f60614079565b612f96606a85604051612f739190614b8d565b9081526040519081900360200190206003015460ff600160a01b909104166140d3565b1515600114612fb75760405162461bcd60e51b815260040161151790614d23565b6001600160a01b0383166130015760405162461bcd60e51b815260206004820152601160248201527048756e746572206164647265737328302960781b6044820152606401611517565b606a846040516130119190614b8d565b908152604051908190036020018120600201546001600160a01b0316906373927c1190606a90613042908890614b8d565b908152604051908190036020018120600301546068546001600160e01b031960e085901b1683526001600160a01b0391821660048401528116602483015286166044820152606481018590526084016020604051808303816000875af11580156130b0573d6000803e3d6000fd5b505050506040513d601f19601f820116820180604052508101906130d49190614c2d565b506068546040516001600160a01b039091169063d16cfcc190606a906130fb908890614b8d565b908152604051908190036020018120600301546001600160e01b031960e084901b16825261313b916001600160a01b039091169087908790600401614d76565b600060405180830381600087803b15801561315557600080fd5b505af1158015613169573d6000803e3d6000fd5b5050505081836001600160a01b0316427fc94856745b23bcaffb2e3755abe04f2ee7cf7047605058b72c2f1cb3e58d5c43606a886040516131aa9190614b8d565b90815260405160209181900382018120600301546001600160a01b031681520160405180910390a45060019392505050565b600054610100900460ff16158080156131fc5750600054600160ff909116105b806132165750303b158015613216575060005460ff166001145b6132795760405162461bcd60e51b815260206004820152602e60248201527f496e697469616c697a61626c653a20636f6e747261637420697320616c72656160448201526d191e481a5b9a5d1a585b1a5e995960921b6064820152608401611517565b6000805460ff19166001179055801561329c576000805461ff0019166101001790555b606580546001600160a01b038087166001600160a01b0319928316179092556066805486841690831617905560678054928516929091169190911790556132e16142b4565b8015613327576000805461ff0019169055604051600181527f7f26b83ff96e1f2b6a682f133852f6798a09c465da95921460cefb38474024989060200160405180910390a15b50505050565b60685460408051630c31495960e41b815290516000926001600160a01b03169163c31495909160048083019260209291908290030181865afa1580156124d5573d6000803e3d6000fd5b600080606a8460405161338a9190614b8d565b90815260200160405180910390206040518060a00160405290816000820180546133b390614b52565b80601f01602080910402602001604051908101604052809291908181526020018280546133df90614b52565b801561342c5780601f106134015761010080835404028352916020019161342c565b820191906000526020600020905b81548152906001019060200180831161340f57829003601f168201915b505050918352505060018201546001600160a01b0390811660208301526002830154811660408301526003909201549182166060820152600160a01b90910460ff161515608091820152810151909150613485906140d3565b15156001146134a65760405162461bcd60e51b815260040161151790614d23565b60408082015190516363c877c160e11b8152336004820152602481018590526001600160a01b039091169063c790ef82906044016020604051808303816000875af11580156134f9573d6000803e3d6000fd5b505050506040513d601f19601f8201168201806040525081019061351d9190614c2d565b1561356b5782846040516135319190614b8d565b604051908190038120907f0e6ef9b3f0bcbf52c4ddbfdfb70f52e00c6083b9d5f795123d4e753ac4f82d3990600090a36001915050611193565b5092915050565b60685460408051636999350560e11b815290516000926001600160a01b03169163d3326a0a9160048083019260209291908290030181865afa1580156124d5573d6000803e3d6000fd5b600080606a846040516135cf9190614b8d565b90815260200160405180910390206040518060a00160405290816000820180546135f890614b52565b80601f016020809104026020016040519081016040528092919081815260200182805461362490614b52565b80156136715780601f1061364657610100808354040283529160200191613671565b820191906000526020600020905b81548152906001019060200180831161365457829003601f168201915b505050918352505060018201546001600160a01b0390811660208301526002830154811660408301526003909201549182166060820152600160a01b90910460ff1615156080918201528101519091506136ca906140d3565b15156001146136eb5760405162461bcd60e51b815260040161151790614d23565b600081604001516001600160a01b0316634a94bcb36040518163ffffffff1660e01b8152600401602060405180830381865afa15801561372f573d6000803e3d6000fd5b505050506040513d601f19601f820116820180604052508101906137539190614ba9565b9050600082604001516001600160a01b03166316e17b8d6040518163ffffffff1660e01b8152600401602060405180830381865afa158015613799573d6000803e3d6000fd5b505050506040513d601f19601f820116820180604052508101906137bd9190614ba9565b604080850151606086015191516330414fc560e11b81529293506001600160a01b0316916360829f8a916137f79133908a90600401614d76565b6020604051808303816000875af1158015613816573d6000803e3d6000fd5b505050506040513d601f19601f8201168201806040525081019061383a9190614c2d565b156138e957600061384b8684614dbf565b905060006138598784614dbf565b905080838960405161386b9190614b8d565b604051908190038120907f8834bcade58122eb5594c97d7d46171dc644983fafc2663e6728a6eb925a18ba90600090a48184896040516138ab9190614b8d565b604051908190038120907f4263aad47889a1b6d47c62c4329f18cb38e94cb40ac428c5212a224262e39d7b90600090a4600195505050505050611193565b50505092915050565b600080606a836040516139059190614b8d565b90815260200160405180910390206040518060a001604052908160008201805461392e90614b52565b80601f016020809104026020016040519081016040528092919081815260200182805461395a90614b52565b80156139a75780601f1061397c576101008083540402835291602001916139a7565b820191906000526020600020905b81548152906001019060200180831161398a57829003601f168201915b505050918352505060018201546001600160a01b03908116602080840191909152600284015482166040808501919091526003909401548083166060850152600160a01b900460ff16151560809093019290925283830151835163383639b360e01b81529351949550169263383639b39260048082019392918290030181865afa158015610b81573d6000803e3d6000fd5b8051602081830181018051606a825292820191909301209152805481906125bc90614b52565b6068546040805163e5125d7b60e01b815290516000926001600160a01b03169163e5125d7b9160048083019260209291908290030181865afa1580156124d5573d6000803e3d6000fd5b6000613ab3614079565b6001600160a01b0383166000818152606b6020526040808220805460ff191686151590811790915590519092917f99795d51e5a8804307721456a7a9c2f0d7421f719d46a46d36e91fee7c85aa7691a350600192915050565b6000613b21606a83604051612f739190614b8d565b1515600114613b425760405162461bcd60e51b815260040161151790614d23565b606a82604051613b529190614b8d565b908152604051908190036020018120600201546001600160a01b031690638aa82e8290606a90613b83908690614b8d565b908152604051908190036020018120600301546001600160a01b031690606a90613bae908790614b8d565b908152604051908190036020018120600101546001600160e01b031960e085901b1682526001600160a01b0392831660048301529190911660248201526044016020604051808303816000875af1158015613c0d573d6000803e3d6000fd5b505050506040513d601f19601f82011682018060405250810190613c319190614c2d565b50606a82604051613c429190614b8d565b908152604051908190036020018120600101546001600160a01b031690613c6a908490614b8d565b604051908190038120907fd5d2d05dfe0d10d196c53d6f16e6d70e4dbb9cb77fe8682f6c68e9426c29103090600090a3506001919050565b6000613cac614079565b6001600160a01b038316613cf15760405162461bcd60e51b815260206004820152600c60248201526b41646472657373205a65726f60a01b6044820152606401611517565b606854604051630be5e47b60e11b81526001600160a01b03909116906317cbc8f690613d2590879087908790600401614d76565b6020604051808303816000875af1158015613d44573d6000803e3d6000fd5b505050506040513d601f19601f82011682018060405250810190613d689190614c2d565b5060405182906001600160a01b038616907f189e21cdbf554d2e7158d144a91a275ae2145eaf20b9697ea962df4fba6462c390600090a35060019392505050565b613db1614079565b6001600160a01b038116613e165760405162461bcd60e51b815260206004820152602660248201527f4f776e61626c653a206e6577206f776e657220697320746865207a65726f206160448201526564647265737360d01b6064820152608401611517565b6115b481614262565b600080606a84604051613e329190614b8d565b90815260200160405180910390206040518060a0016040529081600082018054613e5b90614b52565b80601f0160208091040260200160405190810160405280929190818152602001828054613e8790614b52565b8015613ed45780601f10613ea957610100808354040283529160200191613ed4565b820191906000526020600020905b815481529060010190602001808311613eb757829003601f168201915b505050918352505060018201546001600160a01b0390811660208301526002830154811660408301526003909201549182166060820152600160a01b90910460ff161515608091820152810151909150613f2d906140d3565b1515600114613f4e5760405162461bcd60e51b815260040161151790614d23565b600081604001516001600160a01b0316634a94bcb36040518163ffffffff1660e01b8152600401602060405180830381865afa158015613f92573d6000803e3d6000fd5b505050506040513d601f19601f82011682018060405250810190613fb69190614ba9565b905081602001516001600160a01b0316336001600160a01b031614613fed5760405162461bcd60e51b815260040161151790614d4b565b81604001516001600160a01b0316633147096d83606001518460200151876040518463ffffffff1660e01b815260040161402993929190614d76565b6020604051808303816000875af1158015614048573d6000803e3d6000fd5b505050506040513d601f19601f8201168201806040525081019061406c9190614c2d565b50600061243d8583614dd6565b6033546001600160a01b031633146125105760405162461bcd60e51b815260206004820181905260248201527f4f776e61626c653a2063616c6c6572206973206e6f7420746865206f776e65726044820152606401611517565b600081156140e2576000611193565b600192915050565b6115b4614079565b7f4910fdfa16fed3260ed0e7147f7cc6da11a60208b5b9406d12a635614ffd91435460ff161561412a57614125836142e3565b505050565b826001600160a01b03166352d1902d6040518163ffffffff1660e01b8152600401602060405180830381865afa925050508015614184575060408051601f3d908101601f1916820190925261418191810190614ba9565b60015b6141e75760405162461bcd60e51b815260206004820152602e60248201527f45524331393637557067726164653a206e657720696d706c656d656e7461746960448201526d6f6e206973206e6f74205555505360901b6064820152608401611517565b600080516020614e4d83398151915281146142565760405162461bcd60e51b815260206004820152602960248201527f45524331393637557067726164653a20756e737570706f727465642070726f786044820152681a58589b195555525160ba1b6064820152608401611517565b5061412583838361437f565b603380546001600160a01b038381166001600160a01b0319831681179093556040519116919082907f8be0079c531659141344cd1fd0a4f28419497f9722a3daafe3b4186f6b6457e090600090a35050565b600054610100900460ff166142db5760405162461bcd60e51b815260040161151790614dee565b6125106143a4565b6001600160a01b0381163b6143505760405162461bcd60e51b815260206004820152602d60248201527f455243313936373a206e657720696d706c656d656e746174696f6e206973206e60448201526c1bdd08184818dbdb9d1c9858dd609a1b6064820152608401611517565b600080516020614e4d83398151915280546001600160a01b0319166001600160a01b0392909216919091179055565b614388836143d4565b6000825111806143955750805b15614125576133278383614414565b600054610100900460ff166143cb5760405162461bcd60e51b815260040161151790614dee565b61251033614262565b6143dd816142e3565b6040516001600160a01b038216907fbc7cd75a20ee27fd9adebab32041f755214dbc6bffa90cc0225b39da2e5c2d3b90600090a250565b6060610ba58383604051806060016040528060278152602001614e6d602791396060600080856001600160a01b0316856040516144519190614b8d565b600060405180830381855af49150503d806000811461448c576040519150601f19603f3d011682016040523d82523d6000602084013e614491565b606091505b50915091506144a2868383876144ac565b9695505050505050565b60608315614518578251614511576001600160a01b0385163b6145115760405162461bcd60e51b815260206004820152601d60248201527f416464726573733a2063616c6c20746f206e6f6e2d636f6e74726163740000006044820152606401611517565b5081614522565b614522838361452a565b949350505050565b81511561453a5781518083602001fd5b8060405162461bcd60e51b81526004016115179190614e39565b82805461456090614b52565b90600052602060002090601f01602090048101928261458257600085556145c8565b82601f1061459b57805160ff19168380011785556145c8565b828001600101855582156145c8579182015b828111156145c85782518255916020019190600101906145ad565b506145d49291506145d8565b5090565b5b808211156145d457600081556001016145d9565b60005b838110156146085781810151838201526020016145f0565b838111156133275750506000910152565b600081518084526146318160208601602086016145ed565b601f01601f19169290920160200192915050565b60006020808301818452808551808352604092508286019150828160051b87010184880160005b838110156146de57603f19898403018552815160a0815181865261469282870182614619565b838b01516001600160a01b03908116888d01528a85015181168b89015260608086015190911690880152608093840151151593909601929092525050938601939086019060010161466c565b509098975050505050505050565b634e487b7160e01b600052604160045260246000fd5b600082601f83011261471357600080fd5b813567ffffffffffffffff8082111561472e5761472e6146ec565b604051601f8301601f19908116603f01168101908282118183101715614756576147566146ec565b8160405283815286602085880101111561476f57600080fd5b836020870160208301376000602085830101528094505050505092915050565b6000602082840312156147a157600080fd5b813567ffffffffffffffff8111156147b857600080fd5b61452284828501614702565b6001600160a01b03811681146115b457600080fd5b600080604083850312156147ec57600080fd5b823567ffffffffffffffff81111561480357600080fd5b61480f85828601614702565b9250506020830135614820816147c4565b809150509250929050565b6000806040838503121561483e57600080fd5b8235614849816147c4565b91506020830135614820816147c4565b60006020828403121561486b57600080fd5b8135610ba5816147c4565b6000806000806080858703121561488c57600080fd5b843567ffffffffffffffff808211156148a457600080fd5b6148b088838901614702565b955060208701359150808211156148c657600080fd5b506148d387828801614702565b93505060408501356148e4816147c4565b915060608501356148f4816147c4565b939692955090935050565b6000806040838503121561491257600080fd5b823561491d816147c4565b9150602083013567ffffffffffffffff81111561493957600080fd5b61494585828601614702565b9150509250929050565b60008060006060848603121561496457600080fd5b833567ffffffffffffffff81111561497b57600080fd5b61498786828701614702565b9660208601359650604090950135949350505050565b600080604083850312156149b057600080fd5b823567ffffffffffffffff8111156149c757600080fd5b6149d385828601614702565b95602094909401359450505050565b6000602082840312156149f457600080fd5b5035919050565b60a081526000614a0e60a0830188614619565b6001600160a01b039687166020840152948616604083015250919093166060820152911515608090920191909152919050565b600080600060608486031215614a5657600080fd5b833567ffffffffffffffff811115614a6d57600080fd5b614a7986828701614702565b9350506020840135614a8a816147c4565b929592945050506040919091013590565b600080600060608486031215614ab057600080fd5b8335614abb816147c4565b92506020840135614acb816147c4565b91506040840135614adb816147c4565b809150509250925092565b80151581146115b457600080fd5b60008060408385031215614b0757600080fd5b8235614b12816147c4565b9150602083013561482081614ae6565b600080600060608486031215614b3757600080fd5b8335614b42816147c4565b92506020840135614a8a816147c4565b600181811c90821680614b6657607f821691505b60208210811415614b8757634e487b7160e01b600052602260045260246000fd5b50919050565b60008251614b9f8184602087016145ed565b9190910192915050565b600060208284031215614bbb57600080fd5b5051919050565b634e487b7160e01b600052603260045260246000fd5b634e487b7160e01b600052601160045260246000fd5b6000600019821415614c0257614c02614bd8565b5060010190565b60008060408385031215614c1c57600080fd5b505080516020909101519092909150565b600060208284031215614c3f57600080fd5b8151610ba581614ae6565b6020808252602c908201527f46756e6374696f6e206d7573742062652063616c6c6564207468726f7567682060408201526b19195b1959d85d1958d85b1b60a21b606082015260800190565b6020808252602c908201527f46756e6374696f6e206d7573742062652063616c6c6564207468726f7567682060408201526b6163746976652070726f787960a01b606082015260800190565b6001600160a01b038316815260406020820181905260009061452290830184614619565b600060208284031215614d1857600080fd5b8151610ba5816147c4565b6020808252600e908201526d109bdd5b9d1e481a5cc81119585960921b604082015260600190565b6020808252601190820152702737ba10383937b532b1ba1037bbb732b960791b604082015260600190565b6001600160a01b039384168152919092166020820152604081019190915260600190565b60008060408385031215614dad57600080fd5b82519150602083015161482081614ae6565b600082821015614dd157614dd1614bd8565b500390565b60008219821115614de957614de9614bd8565b500190565b6020808252602b908201527f496e697469616c697a61626c653a20636f6e7472616374206973206e6f74206960408201526a6e697469616c697a696e6760a81b606082015260800190565b602081526000610ba5602083018461461956fe360894a13ba1a3210667c828492db98dca3e2076cc3735a920a3ca505d382bbc416464726573733a206c6f772d6c6576656c2064656c65676174652063616c6c206661696c6564a2646970667358221220f3e6fa87bc17088bdcd11093abb4daece209d179545e33dca1d7140489e219d664736f6c634300080a0033",
    "linkReferences": {}
  },
  "methodIdentifiers": {
    "beacon()": "59659e90",
    "billPremiumForAll()": "27e73542",
    "billPremiumForOnePool(string)": "e6b37f6f",
    "bountiesList(uint256)": "7f2f3e5e",
    "bountyDetails(string)": "d7dc56a5",
    "bountyImplementation()": "cae38faa",
    "claimPremium(string)": "666b7030",
    "deployNewBounty(bytes,string,address,address)": "4c0d9a6c",
    "factory()": "c45a0155",
    "getBountyAddressByName(string)": "66b6c647",
    "initialize(address,address,address)": "c0c53b8b",
    "killBounty(string)": "9ca7e787",
    "owner()": "8da5cb5b",
    "payBounty(string,address,uint256)": "bc160761",
    "projectDeposit(string,uint256)": "f4808fea",
    "projectDepositWithdrawal(string,uint256)": "68dd3dbf",
    "proxiableUUID()": "52d1902d",
    "renounceOwnership()": "715018a6",
    "saloonWallet()": "4389e41a",
    "scheduleProjectDepositWithdrawal(string,uint256)": "b8047881",
    "scheduleUnstake(string,uint256)": "d16ad2f7",
    "setBountyCapAndAPY(string,uint256,uint256)": "58b07d5b",
    "stake(string,uint256)": "9494c8ae",
    "tokenWhitelist(address)": "753d7563",
    "transferOwnership(address)": "f2fde38b",
    "unstake(string,uint256)": "d37c92dc",
    "updateBountyPoolImplementation(address)": "53dce856",
    "updateSaloonWallet(address)": "79f99a89",
    "updateTokenWhitelist(address,bool)": "e5e97c65",
    "upgradeTo(address)": "3659cfe6",
    "upgradeToAndCall(address,bytes)": "4f1ef286",
    "viewAllBountiesByName()": "03c46f51",
    "viewBountyBalance(string)": "05234fda",
    "viewBountyInfo(string)": "943eb4f2",
    "viewBountyOwner(string)": "37787926",
    "viewDesiredAPY(string)": "a667b5d0",
    "viewHackerPayout(string)": "0f0df171",
    "viewHunterTotalTokenPayouts(address,address)": "21580322",
    "viewPoolCap(string)": "3ef0c3ed",
    "viewProjectDeposit(string)": "d3c15cdb",
    "viewSaloonBalance()": "a0d07125",
    "viewTotalEarnedSaloon()": "6c948535",
    "viewTotalHackerPayouts()": "c3149590",
    "viewTotalPremiums()": "e5125d7b",
    "viewTotalSaloonCommission()": "d3326a0a",
    "viewUserStakingBalance(string,address)": "15daef49",
    "viewstakersDeposit(string)": "b91cdea7",
    "withdrawSaloon(address,address,uint256)": "f0e6b4ed",
    "withdrawSaloonPremiumFees()": "0e060249"
  },
  "id": 30
}