{
  "abi": [
    {
      "inputs": [
        {
          "internalType": "contract BountyProxyFactory",
          "name": "factory_",
          "type": "address"
        },
        {
          "internalType": "contract UpgradeableBeacon",
          "name": "_beacon",
          "type": "address"
        },
        {
          "internalType": "address",
          "name": "_bountyImplementation",
          "type": "address"
        }
      ],
      "stateMutability": "nonpayable",
      "type": "constructor"
    },
    {
      "anonymous": false,
      "inputs": [
        {
          "indexed": false,
          "internalType": "address",
          "name": "previousAdmin",
          "type": "address"
        },
        {
          "indexed": false,
          "internalType": "address",
          "name": "newAdmin",
          "type": "address"
        }
      ],
      "name": "AdminChanged",
      "type": "event"
    },
    {
      "anonymous": false,
      "inputs": [
        {
          "indexed": true,
          "internalType": "address",
          "name": "beacon",
          "type": "address"
        }
      ],
      "name": "BeaconUpgraded",
      "type": "event"
    },
    {
      "anonymous": false,
      "inputs": [
        {
          "indexed": true,
          "internalType": "address",
          "name": "sender",
          "type": "address"
        },
        {
          "indexed": true,
          "internalType": "address",
          "name": "_projectWallet",
          "type": "address"
        },
        {
          "indexed": false,
          "internalType": "contract BountyPool",
          "name": "newProxyAddress",
          "type": "address"
        }
      ],
      "name": "DeployNewBounty",
      "type": "event"
    },
    {
      "anonymous": false,
      "inputs": [
        {
          "indexed": true,
          "internalType": "address",
          "name": "previousOwner",
          "type": "address"
        },
        {
          "indexed": true,
          "internalType": "address",
          "name": "newOwner",
          "type": "address"
        }
      ],
      "name": "OwnershipTransferred",
      "type": "event"
    },
    {
      "anonymous": false,
      "inputs": [
        {
          "indexed": true,
          "internalType": "address",
          "name": "implementation",
          "type": "address"
        }
      ],
      "name": "Upgraded",
      "type": "event"
    },
    {
      "inputs": [],
      "name": "beacon",
      "outputs": [
        {
          "internalType": "contract UpgradeableBeacon",
          "name": "",
          "type": "address"
        }
      ],
      "stateMutability": "view",
      "type": "function"
    },
    {
      "inputs": [],
      "name": "billPremiumForAll",
      "outputs": [
        {
          "internalType": "bool",
          "name": "",
          "type": "bool"
        }
      ],
      "stateMutability": "nonpayable",
      "type": "function"
    },
    {
      "inputs": [
        {
          "internalType": "string",
          "name": "_projectName",
          "type": "string"
        }
      ],
      "name": "billPremiumForOnePool",
      "outputs": [
        {
          "internalType": "bool",
          "name": "",
          "type": "bool"
        }
      ],
      "stateMutability": "nonpayable",
      "type": "function"
    },
    {
      "inputs": [
        {
          "internalType": "uint256",
          "name": "",
          "type": "uint256"
        }
      ],
      "name": "bountiesList",
      "outputs": [
        {
          "internalType": "string",
          "name": "projectName",
          "type": "string"
        },
        {
          "internalType": "address",
          "name": "projectWallet",
          "type": "address"
        },
        {
          "internalType": "contract BountyPool",
          "name": "proxyAddress",
          "type": "address"
        },
        {
          "internalType": "address",
          "name": "token",
          "type": "address"
        },
        {
          "internalType": "bool",
          "name": "dead",
          "type": "bool"
        }
      ],
      "stateMutability": "view",
      "type": "function"
    },
    {
      "inputs": [
        {
          "internalType": "string",
          "name": "",
          "type": "string"
        }
      ],
      "name": "bountyDetails",
      "outputs": [
        {
          "internalType": "string",
          "name": "projectName",
          "type": "string"
        },
        {
          "internalType": "address",
          "name": "projectWallet",
          "type": "address"
        },
        {
          "internalType": "contract BountyPool",
          "name": "proxyAddress",
          "type": "address"
        },
        {
          "internalType": "address",
          "name": "token",
          "type": "address"
        },
        {
          "internalType": "bool",
          "name": "dead",
          "type": "bool"
        }
      ],
      "stateMutability": "view",
      "type": "function"
    },
    {
      "inputs": [],
      "name": "bountyImplementation",
      "outputs": [
        {
          "internalType": "address",
          "name": "",
          "type": "address"
        }
      ],
      "stateMutability": "view",
      "type": "function"
    },
    {
      "inputs": [
        {
          "internalType": "string",
          "name": "_projectName",
          "type": "string"
        }
      ],
      "name": "claimPremium",
      "outputs": [
        {
          "internalType": "uint256",
          "name": "",
          "type": "uint256"
        }
      ],
      "stateMutability": "nonpayable",
      "type": "function"
    },
    {
      "inputs": [
        {
          "internalType": "bytes",
          "name": "_data",
          "type": "bytes"
        },
        {
          "internalType": "string",
          "name": "_projectName",
          "type": "string"
        },
        {
          "internalType": "address",
          "name": "_token",
          "type": "address"
        },
        {
          "internalType": "address",
          "name": "_projectWallet",
          "type": "address"
        }
      ],
      "name": "deployNewBounty",
      "outputs": [
        {
          "internalType": "contract BountyPool",
          "name": "",
          "type": "address"
        },
        {
          "internalType": "bool",
          "name": "",
          "type": "bool"
        }
      ],
      "stateMutability": "nonpayable",
      "type": "function"
    },
    {
      "inputs": [],
      "name": "factory",
      "outputs": [
        {
          "internalType": "contract BountyProxyFactory",
          "name": "",
          "type": "address"
        }
      ],
      "stateMutability": "view",
      "type": "function"
    },
    {
      "inputs": [
        {
          "internalType": "string",
          "name": "_projectName",
          "type": "string"
        }
      ],
      "name": "getBountyAddressByName",
      "outputs": [
        {
          "internalType": "address",
          "name": "",
          "type": "address"
        }
      ],
      "stateMutability": "view",
      "type": "function"
    },
    {
      "inputs": [
        {
          "internalType": "string",
          "name": "_projectName",
          "type": "string"
        }
      ],
      "name": "killBounty",
      "outputs": [
        {
          "internalType": "bool",
          "name": "",
          "type": "bool"
        }
      ],
      "stateMutability": "nonpayable",
      "type": "function"
    },
    {
      "inputs": [],
      "name": "owner",
      "outputs": [
        {
          "internalType": "address",
          "name": "",
          "type": "address"
        }
      ],
      "stateMutability": "view",
      "type": "function"
    },
    {
      "inputs": [
        {
          "internalType": "string",
          "name": "_projectName",
          "type": "string"
        },
        {
          "internalType": "address",
          "name": "_hunter",
          "type": "address"
        },
        {
          "internalType": "uint256",
          "name": "_amount",
          "type": "uint256"
        }
      ],
      "name": "payBounty",
      "outputs": [
        {
          "internalType": "bool",
          "name": "",
          "type": "bool"
        }
      ],
      "stateMutability": "nonpayable",
      "type": "function"
    },
    {
      "inputs": [
        {
          "internalType": "string",
          "name": "_projectName",
          "type": "string"
        },
        {
          "internalType": "uint256",
          "name": "_amount",
          "type": "uint256"
        }
      ],
      "name": "projectDeposit",
      "outputs": [
        {
          "internalType": "bool",
          "name": "",
          "type": "bool"
        }
      ],
      "stateMutability": "nonpayable",
      "type": "function"
    },
    {
      "inputs": [
        {
          "internalType": "string",
          "name": "_projectName",
          "type": "string"
        },
        {
          "internalType": "uint256",
          "name": "_amount",
          "type": "uint256"
        }
      ],
      "name": "projectDepositWithdrawal",
      "outputs": [
        {
          "internalType": "bool",
          "name": "",
          "type": "bool"
        }
      ],
      "stateMutability": "nonpayable",
      "type": "function"
    },
    {
      "inputs": [],
      "name": "proxiableUUID",
      "outputs": [
        {
          "internalType": "bytes32",
          "name": "",
          "type": "bytes32"
        }
      ],
      "stateMutability": "view",
      "type": "function"
    },
    {
      "inputs": [],
      "name": "renounceOwnership",
      "outputs": [],
      "stateMutability": "nonpayable",
      "type": "function"
    },
    {
      "inputs": [],
      "name": "saloonWallet",
      "outputs": [
        {
          "internalType": "contract SaloonWallet",
          "name": "",
          "type": "address"
        }
      ],
      "stateMutability": "view",
      "type": "function"
    },
    {
      "inputs": [
        {
          "internalType": "string",
          "name": "_projectName",
          "type": "string"
        },
        {
          "internalType": "uint256",
          "name": "_amount",
          "type": "uint256"
        }
      ],
      "name": "scheduleProjectDepositWithdrawal",
      "outputs": [
        {
          "internalType": "bool",
          "name": "",
          "type": "bool"
        }
      ],
      "stateMutability": "nonpayable",
      "type": "function"
    },
    {
      "inputs": [
        {
          "internalType": "string",
          "name": "_projectName",
          "type": "string"
        },
        {
          "internalType": "uint256",
          "name": "_amount",
          "type": "uint256"
        }
      ],
      "name": "scheduleUnstake",
      "outputs": [
        {
          "internalType": "bool",
          "name": "",
          "type": "bool"
        }
      ],
      "stateMutability": "nonpayable",
      "type": "function"
    },
    {
      "inputs": [
        {
          "internalType": "string",
          "name": "_projectName",
          "type": "string"
        },
        {
          "internalType": "uint256",
          "name": "_poolCap",
          "type": "uint256"
        },
        {
          "internalType": "uint256",
          "name": "_desiredAPY",
          "type": "uint256"
        }
      ],
      "name": "setBountyCapAndAPY",
      "outputs": [
        {
          "internalType": "bool",
          "name": "",
          "type": "bool"
        }
      ],
      "stateMutability": "nonpayable",
      "type": "function"
    },
    {
      "inputs": [
        {
          "internalType": "string",
          "name": "_projectName",
          "type": "string"
        },
        {
          "internalType": "uint256",
          "name": "_amount",
          "type": "uint256"
        }
      ],
      "name": "stake",
      "outputs": [
        {
          "internalType": "bool",
          "name": "",
          "type": "bool"
        }
      ],
      "stateMutability": "nonpayable",
      "type": "function"
    },
    {
      "inputs": [
        {
          "internalType": "address",
          "name": "",
          "type": "address"
        }
      ],
      "name": "tokenWhitelist",
      "outputs": [
        {
          "internalType": "bool",
          "name": "",
          "type": "bool"
        }
      ],
      "stateMutability": "view",
      "type": "function"
    },
    {
      "inputs": [
        {
          "internalType": "address",
          "name": "newOwner",
          "type": "address"
        }
      ],
      "name": "transferOwnership",
      "outputs": [],
      "stateMutability": "nonpayable",
      "type": "function"
    },
    {
      "inputs": [
        {
          "internalType": "string",
          "name": "_projectName",
          "type": "string"
        },
        {
          "internalType": "uint256",
          "name": "_amount",
          "type": "uint256"
        }
      ],
      "name": "unstake",
      "outputs": [
        {
          "internalType": "bool",
          "name": "",
          "type": "bool"
        }
      ],
      "stateMutability": "nonpayable",
      "type": "function"
    },
    {
      "inputs": [
        {
          "internalType": "address",
          "name": "_newImplementation",
          "type": "address"
        }
      ],
      "name": "updateBountyPoolImplementation",
      "outputs": [
        {
          "internalType": "bool",
          "name": "",
          "type": "bool"
        }
      ],
      "stateMutability": "nonpayable",
      "type": "function"
    },
    {
      "inputs": [
        {
          "internalType": "address",
          "name": "_newWallet",
          "type": "address"
        }
      ],
      "name": "updateSaloonWallet",
      "outputs": [],
      "stateMutability": "nonpayable",
      "type": "function"
    },
    {
      "inputs": [
        {
          "internalType": "address",
          "name": "_token",
          "type": "address"
        },
        {
          "internalType": "bool",
          "name": "whitelisted",
          "type": "bool"
        }
      ],
      "name": "updateTokenWhitelist",
      "outputs": [
        {
          "internalType": "bool",
          "name": "",
          "type": "bool"
        }
      ],
      "stateMutability": "nonpayable",
      "type": "function"
    },
    {
      "inputs": [
        {
          "internalType": "address",
          "name": "newImplementation",
          "type": "address"
        }
      ],
      "name": "upgradeTo",
      "outputs": [],
      "stateMutability": "nonpayable",
      "type": "function"
    },
    {
      "inputs": [
        {
          "internalType": "address",
          "name": "newImplementation",
          "type": "address"
        },
        {
          "internalType": "bytes",
          "name": "data",
          "type": "bytes"
        }
      ],
      "name": "upgradeToAndCall",
      "outputs": [],
      "stateMutability": "payable",
      "type": "function"
    },
    {
      "inputs": [],
      "name": "viewAllBountiesByName",
      "outputs": [
        {
          "components": [
            {
              "internalType": "string",
              "name": "projectName",
              "type": "string"
            },
            {
              "internalType": "address",
              "name": "projectWallet",
              "type": "address"
            },
            {
              "internalType": "contract BountyPool",
              "name": "proxyAddress",
              "type": "address"
            },
            {
              "internalType": "address",
              "name": "token",
              "type": "address"
            },
            {
              "internalType": "bool",
              "name": "dead",
              "type": "bool"
            }
          ],
          "internalType": "struct BountyProxiesManager.Bounties[]",
          "name": "",
          "type": "tuple[]"
        }
      ],
      "stateMutability": "view",
      "type": "function"
    },
    {
      "inputs": [
        {
          "internalType": "string",
          "name": "_projectName",
          "type": "string"
        }
      ],
      "name": "viewBountyPayout",
      "outputs": [
        {
          "internalType": "uint256",
          "name": "",
          "type": "uint256"
        }
      ],
      "stateMutability": "view",
      "type": "function"
    },
    {
      "inputs": [
        {
          "internalType": "address",
          "name": "_token",
          "type": "address"
        },
        {
          "internalType": "address",
          "name": "_hunter",
          "type": "address"
        }
      ],
      "name": "viewHunterTotalTokenPayouts",
      "outputs": [
        {
          "internalType": "uint256",
          "name": "",
          "type": "uint256"
        }
      ],
      "stateMutability": "view",
      "type": "function"
    },
    {
      "inputs": [
        {
          "internalType": "string",
          "name": "_projectName",
          "type": "string"
        }
      ],
      "name": "viewProjectDeposit",
      "outputs": [
        {
          "internalType": "uint256",
          "name": "",
          "type": "uint256"
        }
      ],
      "stateMutability": "view",
      "type": "function"
    },
    {
      "inputs": [],
      "name": "viewSaloonBalance",
      "outputs": [
        {
          "internalType": "uint256",
          "name": "",
          "type": "uint256"
        }
      ],
      "stateMutability": "view",
      "type": "function"
    },
    {
      "inputs": [],
      "name": "viewTotalEarnedSaloon",
      "outputs": [
        {
          "internalType": "uint256",
          "name": "",
          "type": "uint256"
        }
      ],
      "stateMutability": "view",
      "type": "function"
    },
    {
      "inputs": [],
      "name": "viewTotalHackerPayouts",
      "outputs": [
        {
          "internalType": "uint256",
          "name": "",
          "type": "uint256"
        }
      ],
      "stateMutability": "view",
      "type": "function"
    },
    {
      "inputs": [],
      "name": "viewTotalPremiums",
      "outputs": [
        {
          "internalType": "uint256",
          "name": "",
          "type": "uint256"
        }
      ],
      "stateMutability": "view",
      "type": "function"
    },
    {
      "inputs": [],
      "name": "viewTotalSaloonCommission",
      "outputs": [
        {
          "internalType": "uint256",
          "name": "",
          "type": "uint256"
        }
      ],
      "stateMutability": "view",
      "type": "function"
    },
    {
      "inputs": [
        {
          "internalType": "string",
          "name": "_projectName",
          "type": "string"
        }
      ],
      "name": "viewUserStakingBalance",
      "outputs": [
        {
          "internalType": "uint256",
          "name": "",
          "type": "uint256"
        }
      ],
      "stateMutability": "view",
      "type": "function"
    },
    {
      "inputs": [
        {
          "internalType": "string",
          "name": "_projectName",
          "type": "string"
        }
      ],
      "name": "viewstakersDeposit",
      "outputs": [
        {
          "internalType": "uint256",
          "name": "",
          "type": "uint256"
        }
      ],
      "stateMutability": "view",
      "type": "function"
    },
    {
      "inputs": [
        {
          "internalType": "address",
          "name": "_token",
          "type": "address"
        },
        {
          "internalType": "address",
          "name": "_to",
          "type": "address"
        },
        {
          "internalType": "uint256",
          "name": "_amount",
          "type": "uint256"
        }
      ],
      "name": "withdrawSaloon",
      "outputs": [
        {
          "internalType": "bool",
          "name": "",
          "type": "bool"
        }
      ],
      "stateMutability": "nonpayable",
      "type": "function"
    },
    {
      "inputs": [],
      "name": "withdrawSaloonPremiumFees",
      "outputs": [
        {
          "internalType": "bool",
          "name": "",
          "type": "bool"
        }
      ],
      "stateMutability": "nonpayable",
      "type": "function"
    }
  ],
  "bytecode": {
    "object": "0x610100604052306080523480156200001657600080fd5b50604051620040e7380380620040e78339810160408190526200003991620000cb565b620000443362000062565b6001600160a01b0392831660a05290821660c0521660e0526200011f565b600080546001600160a01b038381166001600160a01b0319831681178455604051919092169283917f8be0079c531659141344cd1fd0a4f28419497f9722a3daafe3b4186f6b6457e09190a35050565b6001600160a01b0381168114620000c857600080fd5b50565b600080600060608486031215620000e157600080fd5b8351620000ee81620000b2565b60208501519093506200010181620000b2565b60408501519092506200011481620000b2565b809150509250925092565b60805160a05160c05160e051613f5d6200018a6000396000610682015260008181610407015281816111bf015261160501526000818161064e0152611190015260008181610f4901528181610f89015281816113fd0152818161143d01526114d00152613f5d6000f3fe60806040526004361061025c5760003560e01c80638da5cb5b11610144578063d3326a0a116100b6578063e5e97c651161007a578063e5e97c651461074e578063e6b37f6f1461076e578063f0e6b4ed1461078e578063f2fde38b146107ae578063f4808fea146107ce578063ff8d30fb146107ee57600080fd5b8063d3326a0a146106c4578063d37c92dc146106d9578063d3c15cdb146106f9578063d7dc56a514610719578063e5125d7b1461073957600080fd5b8063b91cdea711610108578063b91cdea7146105e7578063bc16076114610607578063c314959014610627578063c45a01551461063c578063cae38faa14610670578063d16ad2f7146106a457600080fd5b80638da5cb5b146105545780639494c8ae146105725780639ca7e78714610592578063a0d07125146105b2578063b8047881146105c757600080fd5b806358b07d5b116101dd5780636c948535116101a15780636c94853514610489578063715018a61461049e578063753d7563146104b357806379f99a89146104e35780637dd03e8f146105035780637f2f3e5e1461052357600080fd5b806358b07d5b146103d557806359659e90146103f5578063666b70301461042957806366b6c6471461044957806368dd3dbf1461046957600080fd5b80634389e41a116102245780634389e41a146103165780634c0d9a6c1461034e5780634f1ef2861461038d57806352d1902d146103a057806353dce856146103b557600080fd5b806303c46f51146102615780630e0602491461028c57806321580322146102b157806327e73542146102df5780633659cfe6146102f4575b600080fd5b34801561026d57600080fd5b5061027661080e565b60405161028391906137af565b60405180910390f35b34801561029857600080fd5b506102a1610944565b6040519015158152602001610283565b3480156102bd57600080fd5b506102d16102cc36600461386b565b610c68565b604051908152602001610283565b3480156102eb57600080fd5b506102a1610ce8565b34801561030057600080fd5b5061031461030f3660046138a4565b610f3e565b005b34801561032257600080fd5b50600154610336906001600160a01b031681565b6040516001600160a01b039091168152602001610283565b34801561035a57600080fd5b5061036e610369366004613964565b61101e565b604080516001600160a01b039093168352901515602083015201610283565b61031461039b3660046139ed565b6113f2565b3480156103ac57600080fd5b506102d16114c3565b3480156103c157600080fd5b506102a16103d03660046138a4565b611576565b3480156103e157600080fd5b506102a16103f0366004613a3d565b611669565b34801561040157600080fd5b506103367f000000000000000000000000000000000000000000000000000000000000000081565b34801561043557600080fd5b506102d1610444366004613a8b565b6118b0565b34801561045557600080fd5b50610336610464366004613a8b565b611a73565b34801561047557600080fd5b506102a1610484366004613ac0565b611aa7565b34801561049557600080fd5b506102d1611c95565b3480156104aa57600080fd5b50610314611d08565b3480156104bf57600080fd5b506102a16104ce3660046138a4565b60046020526000908152604090205460ff1681565b3480156104ef57600080fd5b506103146104fe3660046138a4565b611d1c565b34801561050f57600080fd5b506102d161051e366004613a8b565b611db5565b34801561052f57600080fd5b5061054361053e366004613b05565b611f22565b604051610283959493929190613b1e565b34801561056057600080fd5b506000546001600160a01b0316610336565b34801561057e57600080fd5b506102a161058d366004613ac0565b612006565b34801561059e57600080fd5b506102a16105ad366004613a8b565b61216d565b3480156105be57600080fd5b506102d16121de565b3480156105d357600080fd5b506102a16105e2366004613ac0565b612228565b3480156105f357600080fd5b506102d1610602366004613a8b565b6123fa565b34801561061357600080fd5b506102a1610622366004613b64565b61256c565b34801561063357600080fd5b506102d1612728565b34801561064857600080fd5b506103367f000000000000000000000000000000000000000000000000000000000000000081565b34801561067c57600080fd5b506103367f000000000000000000000000000000000000000000000000000000000000000081565b3480156106b057600080fd5b506102a16106bf366004613ac0565b612772565b3480156106d057600080fd5b506102d161292f565b3480156106e557600080fd5b506102a16106f4366004613ac0565b612979565b34801561070557600080fd5b506102d1610714366004613a8b565b612ae0565b34801561072557600080fd5b50610543610734366004613a8b565b612c27565b34801561074557600080fd5b506102d1612c4d565b34801561075a57600080fd5b506102a1610769366004613bcc565b612c97565b34801561077a57600080fd5b506102a1610789366004613a8b565b612cee565b34801561079a57600080fd5b506102a16107a9366004613bfa565b612e1b565b3480156107ba57600080fd5b506103146107c93660046138a4565b612ebf565b3480156107da57600080fd5b506102a16107e9366004613ac0565b612f35565b3480156107fa57600080fd5b506102d1610809366004613a8b565b6130d5565b60606002805480602002602001604051908101604052809291908181526020016000905b8282101561093b57838290600052602060002090600402016040518060a001604052908160008201805461086590613c2a565b80601f016020809104026020016040519081016040528092919081815260200182805461089190613c2a565b80156108de5780601f106108b3576101008083540402835291602001916108de565b820191906000526020600020905b8154815290600101906020018083116108c157829003601f168201915b50505091835250506001828101546001600160a01b039081166020808501919091526002850154821660408501526003909401549081166060840152600160a01b900460ff16151560809092019190915291835292019101610832565b50505050905090565b600080546001600160a01b031633146109785760405162461bcd60e51b815260040161096f90613c65565b60405180910390fd5b60006002805480602002602001604051908101604052809291908181526020016000905b82821015610aa557838290600052602060002090600402016040518060a00160405290816000820180546109cf90613c2a565b80601f01602080910402602001604051908101604052809291908181526020018280546109fb90613c2a565b8015610a485780601f10610a1d57610100808354040283529160200191610a48565b820191906000526020600020905b815481529060010190602001808311610a2b57829003601f168201915b50505091835250506001828101546001600160a01b039081166020808501919091526002850154821660408501526003909401549081166060840152600160a01b900460ff1615156080909201919091529183529201910161099c565b5050825192935060009150505b81811015610c5e57610ae0838281518110610acf57610acf613c92565b60200260200101516080015161321c565b151560011415610aef57610c4e565b6000838281518110610b0357610b03613c92565b6020026020010151604001516001600160a01b0316635121ac9d858481518110610b2f57610b2f613c92565b60209081029190910101516060015160015460405160e084901b6001600160e01b03191681526001600160a01b039283166004820152911660248201526044016020604051808303816000875af1158015610b8e573d6000803e3d6000fd5b505050506040513d601f19601f82011682018060405250810190610bb29190613ca8565b60015485519192506001600160a01b0316906383ab930490869085908110610bdc57610bdc613c92565b602002602001015160600151836040518363ffffffff1660e01b8152600401610c1a9291906001600160a01b03929092168252602082015260400190565b600060405180830381600087803b158015610c3457600080fd5b505af1158015610c48573d6000803e3d6000fd5b50505050505b610c5781613cc1565b9050610ab2565b5060019250505090565b6001546040516310ac019160e11b81526001600160a01b03848116600483015283811660248301526000921690632158032290604401602060405180830381865afa158015610cbb573d6000803e3d6000fd5b505050506040513d601f19601f82011682018060405250810190610cdf9190613ca8565b90505b92915050565b6000806002805480602002602001604051908101604052809291908181526020016000905b82821015610e1657838290600052602060002090600402016040518060a0016040529081600082018054610d4090613c2a565b80601f0160208091040260200160405190810160405280929190818152602001828054610d6c90613c2a565b8015610db95780601f10610d8e57610100808354040283529160200191610db9565b820191906000526020600020905b815481529060010190602001808311610d9c57829003601f168201915b50505091835250506001828101546001600160a01b039081166020808501919091526002850154821660408501526003909401549081166060840152600160a01b900460ff16151560809092019190915291835292019101610d0d565b5050825192935060009150505b81811015610c5e57610e40838281518110610acf57610acf613c92565b151560011415610e4f57610f2e565b828181518110610e6157610e61613c92565b6020026020010151604001516001600160a01b03166310775e74848381518110610e8d57610e8d613c92565b602002602001015160600151858481518110610eab57610eab613c92565b6020026020010151602001516040518363ffffffff1660e01b8152600401610ee99291906001600160a01b0392831681529116602082015260400190565b6020604051808303816000875af1158015610f08573d6000803e3d6000fd5b505050506040513d601f19601f82011682018060405250810190610f2c9190613cea565b505b610f3781613cc1565b9050610e23565b306001600160a01b037f0000000000000000000000000000000000000000000000000000000000000000161415610f875760405162461bcd60e51b815260040161096f90613d07565b7f00000000000000000000000000000000000000000000000000000000000000006001600160a01b0316610fd0600080516020613ee1833981519152546001600160a01b031690565b6001600160a01b031614610ff65760405162461bcd60e51b815260040161096f90613d53565b610fff81613233565b6040805160008082526020820190925261101b9183919061325d565b50565b6000806110336000546001600160a01b031690565b6001600160a01b0316336001600160a01b0316146110635760405162461bcd60e51b815260040161096f90613c65565b60006001600160a01b031660038660405161107e9190613d9f565b908152604051908190036020019020600201546001600160a01b031614156110e85760405162461bcd60e51b815260206004820152601a60248201527f50726f6a65637420616c72656164792068617320626f756e7479000000000000604482015260640161096f565b6001600160a01b03841660009081526004602052604090205460ff16151560011461114a5760405162461bcd60e51b8152602060048201526012602482015271151bdad95b881b9bdd08185c1c1c9bdd995960721b604482015260640161096f565b6040805160a0810182526000818301819052608082018190528782526001600160a01b03868116602084015287811660608401529251636c1d066b60e11b8152919290917f00000000000000000000000000000000000000000000000000000000000000009091169063d83a0cd6906111eb907f00000000000000000000000000000000000000000000000000000000000000009089908d90600401613dbb565b6020604051808303816000875af115801561120a573d6000803e3d6000fd5b505050506040513d601f19601f8201168201806040525081019061122e9190613df0565b6001600160a01b03811660408401526002805460018101825560009190915283518051929350849260049092027f405787fa12a823e0f2b7631cc41b3ba8828b3321ca811111fa75cd3aa3bb5ace0191611290918391602091909101906136be565b5060208201516001820180546001600160a01b039283166001600160a01b03199182161790915560408085015160028501805491851691909316179091556060840151600393840180546080909601511515600160a01b026001600160a81b03199096169190931617939093179055905183919061130f908a90613d9f565b908152602001604051809103902060008201518160000190805190602001906113399291906136be565b506020828101516001830180546001600160a01b039283166001600160a01b03199182161790915560408086015160028601805491851691909316179091556060850151600390940180546080909601511515600160a01b026001600160a81b03199096169483169490941794909417909255915183821681529087169133917fa397122091ddbad4417c188353200f86978770ea6a146a5860667b1ef760917c910160405180910390a3976001975095505050505050565b306001600160a01b037f000000000000000000000000000000000000000000000000000000000000000016141561143b5760405162461bcd60e51b815260040161096f90613d07565b7f00000000000000000000000000000000000000000000000000000000000000006001600160a01b0316611484600080516020613ee1833981519152546001600160a01b031690565b6001600160a01b0316146114aa5760405162461bcd60e51b815260040161096f90613d53565b6114b382613233565b6114bf8282600161325d565b5050565b6000306001600160a01b037f000000000000000000000000000000000000000000000000000000000000000016146115635760405162461bcd60e51b815260206004820152603860248201527f555550535570677261646561626c653a206d757374206e6f742062652063616c60448201527f6c6564207468726f7567682064656c656761746563616c6c0000000000000000606482015260840161096f565b50600080516020613ee183398151915290565b600080546001600160a01b031633146115a15760405162461bcd60e51b815260040161096f90613c65565b6001600160a01b0382166115e65760405162461bcd60e51b815260206004820152600c60248201526b41646472657373207a65726f60a01b604482015260640161096f565b604051631b2ce7f360e11b81526001600160a01b0383811660048301527f00000000000000000000000000000000000000000000000000000000000000001690633659cfe690602401600060405180830381600087803b15801561164957600080fd5b505af115801561165d573d6000803e3d6000fd5b50600195945050505050565b60008060038560405161167c9190613d9f565b90815260200160405180910390206040518060a00160405290816000820180546116a590613c2a565b80601f01602080910402602001604051908101604052809291908181526020018280546116d190613c2a565b801561171e5780601f106116f35761010080835404028352916020019161171e565b820191906000526020600020905b81548152906001019060200180831161170157829003601f168201915b505050918352505060018201546001600160a01b0390811660208301526002830154811660408301526003909201549182166060820152600160a01b90910460ff1615156080918201528101519091506117779061321c565b15156001146117985760405162461bcd60e51b815260040161096f90613e0d565b80602001516001600160a01b0316336001600160a01b0316146117cd5760405162461bcd60e51b815260040161096f90613e35565b80604001516001600160a01b031663d835f535856040518263ffffffff1660e01b81526004016117ff91815260200190565b600060405180830381600087803b15801561181957600080fd5b505af115801561182d573d6000803e3d6000fd5b50505060408083015160608401516020850151925163cc12c31160e01b81526001600160a01b03909216935063cc12c3119261186d928890600401613e60565b6020604051808303816000875af115801561188c573d6000803e3d6000fd5b505050506040513d601f19601f8201168201806040525081019061165d9190613cea565b6000806003836040516118c39190613d9f565b90815260200160405180910390206040518060a00160405290816000820180546118ec90613c2a565b80601f016020809104026020016040519081016040528092919081815260200182805461191890613c2a565b80156119655780601f1061193a57610100808354040283529160200191611965565b820191906000526020600020905b81548152906001019060200180831161194857829003601f168201915b505050918352505060018201546001600160a01b0390811660208301526002830154811660408301526003909201549182166060820152600160a01b90910460ff1615156080918201528101519091506119be9061321c565b15156001146119df5760405162461bcd60e51b815260040161096f90613e0d565b6040808201516060830151602084015192516303065f4560e41b81526001600160a01b0391821660048201523360248201529281166044840152600092911690633065f4509060640160408051808303816000875af1158015611a46573d6000803e3d6000fd5b505050506040513d601f19601f82011682018060405250810190611a6a9190613e84565b50949350505050565b6000600382604051611a859190613d9f565b908152604051908190036020019020600201546001600160a01b031692915050565b600080600384604051611aba9190613d9f565b90815260200160405180910390206040518060a0016040529081600082018054611ae390613c2a565b80601f0160208091040260200160405190810160405280929190818152602001828054611b0f90613c2a565b8015611b5c5780601f10611b3157610100808354040283529160200191611b5c565b820191906000526020600020905b815481529060010190602001808311611b3f57829003601f168201915b505050918352505060018201546001600160a01b0390811660208301526002830154811660408301526003909201549182166060820152600160a01b90910460ff161515608091820152810151909150611bb59061321c565b1515600114611bd65760405162461bcd60e51b815260040161096f90613e0d565b80602001516001600160a01b0316336001600160a01b031614611c0b5760405162461bcd60e51b815260040161096f90613e35565b80604001516001600160a01b031663419b7bd782606001518360200151866040518463ffffffff1660e01b8152600401611c4793929190613e60565b6020604051808303816000875af1158015611c66573d6000803e3d6000fd5b505050506040513d601f19601f82011682018060405250810190611c8a9190613cea565b506001949350505050565b60015460408051636c94853560e01b815290516000926001600160a01b031691636c9485359160048083019260209291908290030181865afa158015611cdf573d6000803e3d6000fd5b505050506040513d601f19601f82011682018060405250810190611d039190613ca8565b905090565b611d106133cd565b611d1a6000613427565b565b6000546001600160a01b03163314611d465760405162461bcd60e51b815260040161096f90613c65565b6001600160a01b038116611d935760405162461bcd60e51b8152602060048201526014602482015273416464726573732063616e74206265207a65726f60601b604482015260640161096f565b600180546001600160a01b0319166001600160a01b0392909216919091179055565b600080600383604051611dc89190613d9f565b90815260200160405180910390206040518060a0016040529081600082018054611df190613c2a565b80601f0160208091040260200160405190810160405280929190818152602001828054611e1d90613c2a565b8015611e6a5780601f10611e3f57610100808354040283529160200191611e6a565b820191906000526020600020905b815481529060010190602001808311611e4d57829003601f168201915b505050918352505060018201546001600160a01b039081166020830152600283015481166040808401919091526003909301548082166060840152600160a01b900460ff161515608090920191909152828201519151631a89cabd60e01b8152336004820152929350600092911690631a89cabd906024016040805180830381865afa158015611efe573d6000803e3d6000fd5b505050506040513d601f19601f82011682018060405250810190611a6a9190613ea9565b60028181548110611f3257600080fd5b9060005260206000209060040201600091509050806000018054611f5590613c2a565b80601f0160208091040260200160405190810160405280929190818152602001828054611f8190613c2a565b8015611fce5780601f10611fa357610100808354040283529160200191611fce565b820191906000526020600020905b815481529060010190602001808311611fb157829003601f168201915b505050506001830154600284015460039094015492936001600160a01b0391821693908216925090811690600160a01b900460ff1685565b6000806003846040516120199190613d9f565b90815260200160405180910390206040518060a001604052908160008201805461204290613c2a565b80601f016020809104026020016040519081016040528092919081815260200182805461206e90613c2a565b80156120bb5780601f10612090576101008083540402835291602001916120bb565b820191906000526020600020905b81548152906001019060200180831161209e57829003601f168201915b505050918352505060018201546001600160a01b0390811660208301526002830154811660408301526003909201549182166060820152600160a01b90910460ff1615156080918201528101519091506121149061321c565b15156001146121355760405162461bcd60e51b815260040161096f90613e0d565b80604001516001600160a01b031663bf6eac2f826060015133866040518463ffffffff1660e01b8152600401611c4793929190613e60565b600080546001600160a01b031633146121985760405162461bcd60e51b815260040161096f90613c65565b60016003836040516121aa9190613d9f565b9081526040519081900360200190206003018054911515600160a01b0260ff60a01b19909216919091179055506001919050565b6001546040805163a0d0712560e01b815290516000926001600160a01b03169163a0d071259160048083019260209291908290030181865afa158015611cdf573d6000803e3d6000fd5b60008060038460405161223b9190613d9f565b90815260200160405180910390206040518060a001604052908160008201805461226490613c2a565b80601f016020809104026020016040519081016040528092919081815260200182805461229090613c2a565b80156122dd5780601f106122b2576101008083540402835291602001916122dd565b820191906000526020600020905b8154815290600101906020018083116122c057829003601f168201915b505050918352505060018201546001600160a01b0390811660208301526002830154811660408301526003909201549182166060820152600160a01b90910460ff1615156080918201528101519091506123369061321c565b15156001146123575760405162461bcd60e51b815260040161096f90613e0d565b80602001516001600160a01b0316336001600160a01b03161461238c5760405162461bcd60e51b815260040161096f90613e35565b80604001516001600160a01b0316634b5df6cc846040518263ffffffff1660e01b81526004016123be91815260200190565b600060405180830381600087803b1580156123d857600080fd5b505af11580156123ec573d6000803e3d6000fd5b506001979650505050505050565b60008060038360405161240d9190613d9f565b90815260200160405180910390206040518060a001604052908160008201805461243690613c2a565b80601f016020809104026020016040519081016040528092919081815260200182805461246290613c2a565b80156124af5780601f10612484576101008083540402835291602001916124af565b820191906000526020600020905b81548152906001019060200180831161249257829003601f168201915b505050918352505060018201546001600160a01b03908116602080840191909152600284015482166040808501919091526003909401548083166060850152600160a01b900460ff1615156080909301929092528383015183516316e17b8d60e01b8152935194955016926316e17b8d9260048082019392918290030181865afa158015612541573d6000803e3d6000fd5b505050506040513d601f19601f820116820180604052508101906125659190613ca8565b9392505050565b600080546001600160a01b031633146125975760405162461bcd60e51b815260040161096f90613c65565b6125cd6003856040516125aa9190613d9f565b9081526040519081900360200190206003015460ff600160a01b9091041661321c565b15156001146125ee5760405162461bcd60e51b815260040161096f90613e0d565b6003846040516125fe9190613d9f565b908152604051908190036020018120600201546001600160a01b0316906373927c119060039061262f908890613d9f565b908152604051908190036020018120600301546001546001600160e01b031960e085901b1683526001600160a01b0391821660048401528116602483015286166044820152606481018590526084016020604051808303816000875af115801561269d573d6000803e3d6000fd5b505050506040513d601f19601f820116820180604052508101906126c19190613cea565b506001546040516001600160a01b039091169063d16cfcc1906003906126e8908890613d9f565b908152604051908190036020018120600301546001600160e01b031960e084901b1682526123be916001600160a01b039091169087908790600401613e60565b60015460408051630c31495960e41b815290516000926001600160a01b03169163c31495909160048083019260209291908290030181865afa158015611cdf573d6000803e3d6000fd5b6000806003846040516127859190613d9f565b90815260200160405180910390206040518060a00160405290816000820180546127ae90613c2a565b80601f01602080910402602001604051908101604052809291908181526020018280546127da90613c2a565b80156128275780601f106127fc57610100808354040283529160200191612827565b820191906000526020600020905b81548152906001019060200180831161280a57829003601f168201915b505050918352505060018201546001600160a01b0390811660208301526002830154811660408301526003909201549182166060820152600160a01b90910460ff1615156080918201528101519091506128809061321c565b15156001146128a15760405162461bcd60e51b815260040161096f90613e0d565b60408082015190516358ae710560e11b8152336004820152602481018590526001600160a01b039091169063b15ce20a906044015b6020604051808303816000875af11580156128f5573d6000803e3d6000fd5b505050506040513d601f19601f820116820180604052508101906129199190613cea565b15612928576001915050610ce2565b5092915050565b60015460408051636999350560e11b815290516000926001600160a01b03169163d3326a0a9160048083019260209291908290030181865afa158015611cdf573d6000803e3d6000fd5b60008060038460405161298c9190613d9f565b90815260200160405180910390206040518060a00160405290816000820180546129b590613c2a565b80601f01602080910402602001604051908101604052809291908181526020018280546129e190613c2a565b8015612a2e5780601f10612a0357610100808354040283529160200191612a2e565b820191906000526020600020905b815481529060010190602001808311612a1157829003601f168201915b505050918352505060018201546001600160a01b0390811660208301526002830154811660408301526003909201549182166060820152600160a01b90910460ff161515608091820152810151909150612a879061321c565b1515600114612aa85760405162461bcd60e51b815260040161096f90613e0d565b80604001516001600160a01b03166360829f8a826060015133866040518463ffffffff1660e01b81526004016128d693929190613e60565b600080600383604051612af39190613d9f565b90815260200160405180910390206040518060a0016040529081600082018054612b1c90613c2a565b80601f0160208091040260200160405190810160405280929190818152602001828054612b4890613c2a565b8015612b955780601f10612b6a57610100808354040283529160200191612b95565b820191906000526020600020905b815481529060010190602001808311612b7857829003601f168201915b505050918352505060018201546001600160a01b03908116602080840191909152600284015482166040808501919091526003909401548083166060850152600160a01b900460ff16151560809093019290925283830151835163383639b360e01b81529351949550169263383639b39260048082019392918290030181865afa158015612541573d6000803e3d6000fd5b8051602081830181018051600382529282019190930120915280548190611f5590613c2a565b6001546040805163e5125d7b60e01b815290516000926001600160a01b03169163e5125d7b9160048083019260209291908290030181865afa158015611cdf573d6000803e3d6000fd5b600080546001600160a01b03163314612cc25760405162461bcd60e51b815260040161096f90613c65565b6001600160a01b03929092166000908152600460205260409020805460ff191691151591909117905590565b6000612d036003836040516125aa9190613d9f565b1515600114612d245760405162461bcd60e51b815260040161096f90613e0d565b600382604051612d349190613d9f565b908152604051908190036020018120600201546001600160a01b0316906310775e7490600390612d65908690613d9f565b9081526040519081900360200181206003908101546001600160a01b031691612d8f908790613d9f565b908152604051908190036020018120600101546001600160e01b031960e085901b1682526001600160a01b0392831660048301529190911660248201526044016020604051808303816000875af1158015612dee573d6000803e3d6000fd5b505050506040513d601f19601f82011682018060405250810190612e129190613cea565b50600192915050565b600080546001600160a01b03163314612e465760405162461bcd60e51b815260040161096f90613c65565b6001600160a01b038316612e8b5760405162461bcd60e51b815260206004820152600c60248201526b41646472657373205a65726f60a01b604482015260640161096f565b600154604051630be5e47b60e11b81526001600160a01b03909116906317cbc8f690611c4790879087908790600401613e60565b612ec76133cd565b6001600160a01b038116612f2c5760405162461bcd60e51b815260206004820152602660248201527f4f776e61626c653a206e6577206f776e657220697320746865207a65726f206160448201526564647265737360d01b606482015260840161096f565b61101b81613427565b600080600384604051612f489190613d9f565b90815260200160405180910390206040518060a0016040529081600082018054612f7190613c2a565b80601f0160208091040260200160405190810160405280929190818152602001828054612f9d90613c2a565b8015612fea5780601f10612fbf57610100808354040283529160200191612fea565b820191906000526020600020905b815481529060010190602001808311612fcd57829003601f168201915b505050918352505060018201546001600160a01b0390811660208301526002830154811660408301526003909201549182166060820152600160a01b90910460ff1615156080918201528101519091506130439061321c565b15156001146130645760405162461bcd60e51b815260040161096f90613e0d565b80602001516001600160a01b0316336001600160a01b0316146130995760405162461bcd60e51b815260040161096f90613e35565b80604001516001600160a01b0316633147096d82606001518360200151866040518463ffffffff1660e01b8152600401611c4793929190613e60565b6000806003836040516130e89190613d9f565b90815260200160405180910390206040518060a001604052908160008201805461311190613c2a565b80601f016020809104026020016040519081016040528092919081815260200182805461313d90613c2a565b801561318a5780601f1061315f5761010080835404028352916020019161318a565b820191906000526020600020905b81548152906001019060200180831161316d57829003601f168201915b505050918352505060018201546001600160a01b03908116602080840191909152600284015482166040808501919091526003909401548083166060850152600160a01b900460ff161515608090930192909252838301518351634a94bcb360e01b815293519495501692634a94bcb39260048082019392918290030181865afa158015612541573d6000803e3d6000fd5b6000811561322b576000610ce2565b600192915050565b6000546001600160a01b0316331461101b5760405162461bcd60e51b815260040161096f90613c65565b7f4910fdfa16fed3260ed0e7147f7cc6da11a60208b5b9406d12a635614ffd91435460ff16156132955761329083613477565b505050565b826001600160a01b03166352d1902d6040518163ffffffff1660e01b8152600401602060405180830381865afa9250505080156132ef575060408051601f3d908101601f191682019092526132ec91810190613ca8565b60015b6133525760405162461bcd60e51b815260206004820152602e60248201527f45524331393637557067726164653a206e657720696d706c656d656e7461746960448201526d6f6e206973206e6f74205555505360901b606482015260840161096f565b600080516020613ee183398151915281146133c15760405162461bcd60e51b815260206004820152602960248201527f45524331393637557067726164653a20756e737570706f727465642070726f786044820152681a58589b195555525160ba1b606482015260840161096f565b50613290838383613513565b6000546001600160a01b03163314611d1a5760405162461bcd60e51b815260206004820181905260248201527f4f776e61626c653a2063616c6c6572206973206e6f7420746865206f776e6572604482015260640161096f565b600080546001600160a01b038381166001600160a01b0319831681178455604051919092169283917f8be0079c531659141344cd1fd0a4f28419497f9722a3daafe3b4186f6b6457e09190a35050565b6001600160a01b0381163b6134e45760405162461bcd60e51b815260206004820152602d60248201527f455243313936373a206e657720696d706c656d656e746174696f6e206973206e60448201526c1bdd08184818dbdb9d1c9858dd609a1b606482015260840161096f565b600080516020613ee183398151915280546001600160a01b0319166001600160a01b0392909216919091179055565b61351c8361353e565b6000825111806135295750805b1561329057613538838361357e565b50505050565b61354781613477565b6040516001600160a01b038216907fbc7cd75a20ee27fd9adebab32041f755214dbc6bffa90cc0225b39da2e5c2d3b90600090a250565b6060610cdf8383604051806060016040528060278152602001613f01602791396060600080856001600160a01b0316856040516135bb9190613d9f565b600060405180830381855af49150503d80600081146135f6576040519150601f19603f3d011682016040523d82523d6000602084013e6135fb565b606091505b509150915061360c86838387613616565b9695505050505050565b6060831561368257825161367b576001600160a01b0385163b61367b5760405162461bcd60e51b815260206004820152601d60248201527f416464726573733a2063616c6c20746f206e6f6e2d636f6e7472616374000000604482015260640161096f565b508161368c565b61368c8383613694565b949350505050565b8151156136a45781518083602001fd5b8060405162461bcd60e51b815260040161096f9190613ecd565b8280546136ca90613c2a565b90600052602060002090601f0160209004810192826136ec5760008555613732565b82601f1061370557805160ff1916838001178555613732565b82800160010185558215613732579182015b82811115613732578251825591602001919060010190613717565b5061373e929150613742565b5090565b5b8082111561373e5760008155600101613743565b60005b8381101561377257818101518382015260200161375a565b838111156135385750506000910152565b6000815180845261379b816020860160208601613757565b601f01601f19169290920160200192915050565b60006020808301818452808551808352604092508286019150828160051b87010184880160005b8381101561384857603f19898403018552815160a081518186526137fc82870182613783565b838b01516001600160a01b03908116888d01528a85015181168b8901526060808601519091169088015260809384015115159390960192909252505093860193908601906001016137d6565b509098975050505050505050565b6001600160a01b038116811461101b57600080fd5b6000806040838503121561387e57600080fd5b823561388981613856565b9150602083013561389981613856565b809150509250929050565b6000602082840312156138b657600080fd5b813561256581613856565b634e487b7160e01b600052604160045260246000fd5b600082601f8301126138e857600080fd5b813567ffffffffffffffff80821115613903576139036138c1565b604051601f8301601f19908116603f0116810190828211818310171561392b5761392b6138c1565b8160405283815286602085880101111561394457600080fd5b836020870160208301376000602085830101528094505050505092915050565b6000806000806080858703121561397a57600080fd5b843567ffffffffffffffff8082111561399257600080fd5b61399e888389016138d7565b955060208701359150808211156139b457600080fd5b506139c1878288016138d7565b93505060408501356139d281613856565b915060608501356139e281613856565b939692955090935050565b60008060408385031215613a0057600080fd5b8235613a0b81613856565b9150602083013567ffffffffffffffff811115613a2757600080fd5b613a33858286016138d7565b9150509250929050565b600080600060608486031215613a5257600080fd5b833567ffffffffffffffff811115613a6957600080fd5b613a75868287016138d7565b9660208601359650604090950135949350505050565b600060208284031215613a9d57600080fd5b813567ffffffffffffffff811115613ab457600080fd5b61368c848285016138d7565b60008060408385031215613ad357600080fd5b823567ffffffffffffffff811115613aea57600080fd5b613af6858286016138d7565b95602094909401359450505050565b600060208284031215613b1757600080fd5b5035919050565b60a081526000613b3160a0830188613783565b6001600160a01b039687166020840152948616604083015250919093166060820152911515608090920191909152919050565b600080600060608486031215613b7957600080fd5b833567ffffffffffffffff811115613b9057600080fd5b613b9c868287016138d7565b9350506020840135613bad81613856565b929592945050506040919091013590565b801515811461101b57600080fd5b60008060408385031215613bdf57600080fd5b8235613bea81613856565b9150602083013561389981613bbe565b600080600060608486031215613c0f57600080fd5b8335613c1a81613856565b92506020840135613bad81613856565b600181811c90821680613c3e57607f821691505b60208210811415613c5f57634e487b7160e01b600052602260045260246000fd5b50919050565b60208082526013908201527213db9b1e4814d85b1bdbdb88185b1b1bddd959606a1b604082015260600190565b634e487b7160e01b600052603260045260246000fd5b600060208284031215613cba57600080fd5b5051919050565b6000600019821415613ce357634e487b7160e01b600052601160045260246000fd5b5060010190565b600060208284031215613cfc57600080fd5b815161256581613bbe565b6020808252602c908201527f46756e6374696f6e206d7573742062652063616c6c6564207468726f7567682060408201526b19195b1959d85d1958d85b1b60a21b606082015260800190565b6020808252602c908201527f46756e6374696f6e206d7573742062652063616c6c6564207468726f7567682060408201526b6163746976652070726f787960a01b606082015260800190565b60008251613db1818460208701613757565b9190910192915050565b6001600160a01b03848116825283166020820152606060408201819052600090613de790830184613783565b95945050505050565b600060208284031215613e0257600080fd5b815161256581613856565b6020808252600e908201526d109bdd5b9d1e481a5cc81119585960921b604082015260600190565b6020808252601190820152702737ba10383937b532b1ba1037bbb732b960791b604082015260600190565b6001600160a01b039384168152919092166020820152604081019190915260600190565b60008060408385031215613e9757600080fd5b82519150602083015161389981613bbe565b60008060408385031215613ebc57600080fd5b505080516020909101519092909150565b602081526000610cdf602083018461378356fe360894a13ba1a3210667c828492db98dca3e2076cc3735a920a3ca505d382bbc416464726573733a206c6f772d6c6576656c2064656c65676174652063616c6c206661696c6564a26469706673582212209bf0ad2070069448e23bb1d99fbf4400c0a50cecb84b361bde0cb9923d7bef0d64736f6c634300080a0033",
    "linkReferences": {}
  },
  "methodIdentifiers": {
    "beacon()": "59659e90",
    "billPremiumForAll()": "27e73542",
    "billPremiumForOnePool(string)": "e6b37f6f",
    "bountiesList(uint256)": "7f2f3e5e",
    "bountyDetails(string)": "d7dc56a5",
    "bountyImplementation()": "cae38faa",
    "claimPremium(string)": "666b7030",
    "deployNewBounty(bytes,string,address,address)": "4c0d9a6c",
    "factory()": "c45a0155",
    "getBountyAddressByName(string)": "66b6c647",
    "killBounty(string)": "9ca7e787",
    "owner()": "8da5cb5b",
    "payBounty(string,address,uint256)": "bc160761",
    "projectDeposit(string,uint256)": "f4808fea",
    "projectDepositWithdrawal(string,uint256)": "68dd3dbf",
    "proxiableUUID()": "52d1902d",
    "renounceOwnership()": "715018a6",
    "saloonWallet()": "4389e41a",
    "scheduleProjectDepositWithdrawal(string,uint256)": "b8047881",
    "scheduleUnstake(string,uint256)": "d16ad2f7",
    "setBountyCapAndAPY(string,uint256,uint256)": "58b07d5b",
    "stake(string,uint256)": "9494c8ae",
    "tokenWhitelist(address)": "753d7563",
    "transferOwnership(address)": "f2fde38b",
    "unstake(string,uint256)": "d37c92dc",
    "updateBountyPoolImplementation(address)": "53dce856",
    "updateSaloonWallet(address)": "79f99a89",
    "updateTokenWhitelist(address,bool)": "e5e97c65",
    "upgradeTo(address)": "3659cfe6",
    "upgradeToAndCall(address,bytes)": "4f1ef286",
    "viewAllBountiesByName()": "03c46f51",
    "viewBountyPayout(string)": "ff8d30fb",
    "viewHunterTotalTokenPayouts(address,address)": "21580322",
    "viewProjectDeposit(string)": "d3c15cdb",
    "viewSaloonBalance()": "a0d07125",
    "viewTotalEarnedSaloon()": "6c948535",
    "viewTotalHackerPayouts()": "c3149590",
    "viewTotalPremiums()": "e5125d7b",
    "viewTotalSaloonCommission()": "d3326a0a",
    "viewUserStakingBalance(string)": "7dd03e8f",
    "viewstakersDeposit(string)": "b91cdea7",
    "withdrawSaloon(address,address,uint256)": "f0e6b4ed",
    "withdrawSaloonPremiumFees()": "0e060249"
  },
  "id": 24
}