{
  "abi": [
    {
      "anonymous": false,
      "inputs": [
        {
          "indexed": false,
          "internalType": "address",
          "name": "previousAdmin",
          "type": "address"
        },
        {
          "indexed": false,
          "internalType": "address",
          "name": "newAdmin",
          "type": "address"
        }
      ],
      "name": "AdminChanged",
      "type": "event"
    },
    {
      "anonymous": false,
      "inputs": [
        {
          "indexed": true,
          "internalType": "address",
          "name": "beacon",
          "type": "address"
        }
      ],
      "name": "BeaconUpgraded",
      "type": "event"
    },
    {
      "anonymous": false,
      "inputs": [
        {
          "indexed": true,
          "internalType": "address",
          "name": "sender",
          "type": "address"
        },
        {
          "indexed": true,
          "internalType": "address",
          "name": "_projectWallet",
          "type": "address"
        },
        {
          "indexed": false,
          "internalType": "contract BountyPool",
          "name": "newProxyAddress",
          "type": "address"
        }
      ],
      "name": "DeployNewBounty",
      "type": "event"
    },
    {
      "anonymous": false,
      "inputs": [
        {
          "indexed": false,
          "internalType": "uint8",
          "name": "version",
          "type": "uint8"
        }
      ],
      "name": "Initialized",
      "type": "event"
    },
    {
      "anonymous": false,
      "inputs": [
        {
          "indexed": true,
          "internalType": "address",
          "name": "previousOwner",
          "type": "address"
        },
        {
          "indexed": true,
          "internalType": "address",
          "name": "newOwner",
          "type": "address"
        }
      ],
      "name": "OwnershipTransferred",
      "type": "event"
    },
    {
      "anonymous": false,
      "inputs": [
        {
          "indexed": true,
          "internalType": "address",
          "name": "implementation",
          "type": "address"
        }
      ],
      "name": "Upgraded",
      "type": "event"
    },
    {
      "inputs": [],
      "name": "beacon",
      "outputs": [
        {
          "internalType": "contract UpgradeableBeacon",
          "name": "",
          "type": "address"
        }
      ],
      "stateMutability": "view",
      "type": "function"
    },
    {
      "inputs": [],
      "name": "billPremiumForAll",
      "outputs": [
        {
          "internalType": "bool",
          "name": "",
          "type": "bool"
        }
      ],
      "stateMutability": "nonpayable",
      "type": "function"
    },
    {
      "inputs": [
        {
          "internalType": "string",
          "name": "_projectName",
          "type": "string"
        }
      ],
      "name": "billPremiumForOnePool",
      "outputs": [
        {
          "internalType": "bool",
          "name": "",
          "type": "bool"
        }
      ],
      "stateMutability": "nonpayable",
      "type": "function"
    },
    {
      "inputs": [
        {
          "internalType": "uint256",
          "name": "",
          "type": "uint256"
        }
      ],
      "name": "bountiesList",
      "outputs": [
        {
          "internalType": "string",
          "name": "projectName",
          "type": "string"
        },
        {
          "internalType": "address",
          "name": "projectWallet",
          "type": "address"
        },
        {
          "internalType": "contract BountyPool",
          "name": "proxyAddress",
          "type": "address"
        },
        {
          "internalType": "address",
          "name": "token",
          "type": "address"
        },
        {
          "internalType": "bool",
          "name": "dead",
          "type": "bool"
        }
      ],
      "stateMutability": "view",
      "type": "function"
    },
    {
      "inputs": [
        {
          "internalType": "string",
          "name": "",
          "type": "string"
        }
      ],
      "name": "bountyDetails",
      "outputs": [
        {
          "internalType": "string",
          "name": "projectName",
          "type": "string"
        },
        {
          "internalType": "address",
          "name": "projectWallet",
          "type": "address"
        },
        {
          "internalType": "contract BountyPool",
          "name": "proxyAddress",
          "type": "address"
        },
        {
          "internalType": "address",
          "name": "token",
          "type": "address"
        },
        {
          "internalType": "bool",
          "name": "dead",
          "type": "bool"
        }
      ],
      "stateMutability": "view",
      "type": "function"
    },
    {
      "inputs": [],
      "name": "bountyImplementation",
      "outputs": [
        {
          "internalType": "address",
          "name": "",
          "type": "address"
        }
      ],
      "stateMutability": "view",
      "type": "function"
    },
    {
      "inputs": [
        {
          "internalType": "string",
          "name": "_projectName",
          "type": "string"
        }
      ],
      "name": "claimPremium",
      "outputs": [
        {
          "internalType": "uint256",
          "name": "",
          "type": "uint256"
        }
      ],
      "stateMutability": "nonpayable",
      "type": "function"
    },
    {
      "inputs": [
        {
          "internalType": "bytes",
          "name": "_data",
          "type": "bytes"
        },
        {
          "internalType": "string",
          "name": "_projectName",
          "type": "string"
        },
        {
          "internalType": "address",
          "name": "_token",
          "type": "address"
        },
        {
          "internalType": "address",
          "name": "_projectWallet",
          "type": "address"
        }
      ],
      "name": "deployNewBounty",
      "outputs": [
        {
          "internalType": "contract BountyPool",
          "name": "",
          "type": "address"
        },
        {
          "internalType": "bool",
          "name": "",
          "type": "bool"
        }
      ],
      "stateMutability": "nonpayable",
      "type": "function"
    },
    {
      "inputs": [],
      "name": "factory",
      "outputs": [
        {
          "internalType": "contract BountyProxyFactory",
          "name": "",
          "type": "address"
        }
      ],
      "stateMutability": "view",
      "type": "function"
    },
    {
      "inputs": [
        {
          "internalType": "string",
          "name": "_projectName",
          "type": "string"
        }
      ],
      "name": "getBountyAddressByName",
      "outputs": [
        {
          "internalType": "address",
          "name": "",
          "type": "address"
        }
      ],
      "stateMutability": "view",
      "type": "function"
    },
    {
      "inputs": [
        {
          "internalType": "contract BountyProxyFactory",
          "name": "_factory",
          "type": "address"
        },
        {
          "internalType": "contract UpgradeableBeacon",
          "name": "_beacon",
          "type": "address"
        },
        {
          "internalType": "address",
          "name": "_bountyImplementation",
          "type": "address"
        }
      ],
      "name": "initialize",
      "outputs": [],
      "stateMutability": "nonpayable",
      "type": "function"
    },
    {
      "inputs": [
        {
          "internalType": "string",
          "name": "_projectName",
          "type": "string"
        }
      ],
      "name": "killBounty",
      "outputs": [
        {
          "internalType": "bool",
          "name": "",
          "type": "bool"
        }
      ],
      "stateMutability": "nonpayable",
      "type": "function"
    },
    {
      "inputs": [],
      "name": "owner",
      "outputs": [
        {
          "internalType": "address",
          "name": "",
          "type": "address"
        }
      ],
      "stateMutability": "view",
      "type": "function"
    },
    {
      "inputs": [
        {
          "internalType": "string",
          "name": "_projectName",
          "type": "string"
        },
        {
          "internalType": "address",
          "name": "_hunter",
          "type": "address"
        },
        {
          "internalType": "uint256",
          "name": "_amount",
          "type": "uint256"
        }
      ],
      "name": "payBounty",
      "outputs": [
        {
          "internalType": "bool",
          "name": "",
          "type": "bool"
        }
      ],
      "stateMutability": "nonpayable",
      "type": "function"
    },
    {
      "inputs": [
        {
          "internalType": "string",
          "name": "_projectName",
          "type": "string"
        },
        {
          "internalType": "uint256",
          "name": "_amount",
          "type": "uint256"
        }
      ],
      "name": "projectDeposit",
      "outputs": [
        {
          "internalType": "bool",
          "name": "",
          "type": "bool"
        }
      ],
      "stateMutability": "nonpayable",
      "type": "function"
    },
    {
      "inputs": [
        {
          "internalType": "string",
          "name": "_projectName",
          "type": "string"
        },
        {
          "internalType": "uint256",
          "name": "_amount",
          "type": "uint256"
        }
      ],
      "name": "projectDepositWithdrawal",
      "outputs": [
        {
          "internalType": "bool",
          "name": "",
          "type": "bool"
        }
      ],
      "stateMutability": "nonpayable",
      "type": "function"
    },
    {
      "inputs": [],
      "name": "proxiableUUID",
      "outputs": [
        {
          "internalType": "bytes32",
          "name": "",
          "type": "bytes32"
        }
      ],
      "stateMutability": "view",
      "type": "function"
    },
    {
      "inputs": [],
      "name": "renounceOwnership",
      "outputs": [],
      "stateMutability": "nonpayable",
      "type": "function"
    },
    {
      "inputs": [],
      "name": "saloonWallet",
      "outputs": [
        {
          "internalType": "contract SaloonWallet",
          "name": "",
          "type": "address"
        }
      ],
      "stateMutability": "view",
      "type": "function"
    },
    {
      "inputs": [
        {
          "internalType": "string",
          "name": "_projectName",
          "type": "string"
        },
        {
          "internalType": "uint256",
          "name": "_amount",
          "type": "uint256"
        }
      ],
      "name": "scheduleProjectDepositWithdrawal",
      "outputs": [
        {
          "internalType": "bool",
          "name": "",
          "type": "bool"
        }
      ],
      "stateMutability": "nonpayable",
      "type": "function"
    },
    {
      "inputs": [
        {
          "internalType": "string",
          "name": "_projectName",
          "type": "string"
        },
        {
          "internalType": "uint256",
          "name": "_amount",
          "type": "uint256"
        }
      ],
      "name": "scheduleUnstake",
      "outputs": [
        {
          "internalType": "bool",
          "name": "",
          "type": "bool"
        }
      ],
      "stateMutability": "nonpayable",
      "type": "function"
    },
    {
      "inputs": [
        {
          "internalType": "string",
          "name": "_projectName",
          "type": "string"
        },
        {
          "internalType": "uint256",
          "name": "_poolCap",
          "type": "uint256"
        },
        {
          "internalType": "uint256",
          "name": "_desiredAPY",
          "type": "uint256"
        }
      ],
      "name": "setBountyCapAndAPY",
      "outputs": [
        {
          "internalType": "bool",
          "name": "",
          "type": "bool"
        }
      ],
      "stateMutability": "nonpayable",
      "type": "function"
    },
    {
      "inputs": [
        {
          "internalType": "string",
          "name": "_projectName",
          "type": "string"
        },
        {
          "internalType": "uint256",
          "name": "_amount",
          "type": "uint256"
        }
      ],
      "name": "stake",
      "outputs": [
        {
          "internalType": "bool",
          "name": "",
          "type": "bool"
        }
      ],
      "stateMutability": "nonpayable",
      "type": "function"
    },
    {
      "inputs": [
        {
          "internalType": "address",
          "name": "",
          "type": "address"
        }
      ],
      "name": "tokenWhitelist",
      "outputs": [
        {
          "internalType": "bool",
          "name": "",
          "type": "bool"
        }
      ],
      "stateMutability": "view",
      "type": "function"
    },
    {
      "inputs": [
        {
          "internalType": "address",
          "name": "newOwner",
          "type": "address"
        }
      ],
      "name": "transferOwnership",
      "outputs": [],
      "stateMutability": "nonpayable",
      "type": "function"
    },
    {
      "inputs": [
        {
          "internalType": "string",
          "name": "_projectName",
          "type": "string"
        },
        {
          "internalType": "uint256",
          "name": "_amount",
          "type": "uint256"
        }
      ],
      "name": "unstake",
      "outputs": [
        {
          "internalType": "bool",
          "name": "",
          "type": "bool"
        }
      ],
      "stateMutability": "nonpayable",
      "type": "function"
    },
    {
      "inputs": [
        {
          "internalType": "address",
          "name": "_newImplementation",
          "type": "address"
        }
      ],
      "name": "updateBountyPoolImplementation",
      "outputs": [
        {
          "internalType": "bool",
          "name": "",
          "type": "bool"
        }
      ],
      "stateMutability": "nonpayable",
      "type": "function"
    },
    {
      "inputs": [
        {
          "internalType": "address",
          "name": "_newWallet",
          "type": "address"
        }
      ],
      "name": "updateSaloonWallet",
      "outputs": [],
      "stateMutability": "nonpayable",
      "type": "function"
    },
    {
      "inputs": [
        {
          "internalType": "address",
          "name": "_token",
          "type": "address"
        },
        {
          "internalType": "bool",
          "name": "whitelisted",
          "type": "bool"
        }
      ],
      "name": "updateTokenWhitelist",
      "outputs": [
        {
          "internalType": "bool",
          "name": "",
          "type": "bool"
        }
      ],
      "stateMutability": "nonpayable",
      "type": "function"
    },
    {
      "inputs": [
        {
          "internalType": "address",
          "name": "newImplementation",
          "type": "address"
        }
      ],
      "name": "upgradeTo",
      "outputs": [],
      "stateMutability": "nonpayable",
      "type": "function"
    },
    {
      "inputs": [
        {
          "internalType": "address",
          "name": "newImplementation",
          "type": "address"
        },
        {
          "internalType": "bytes",
          "name": "data",
          "type": "bytes"
        }
      ],
      "name": "upgradeToAndCall",
      "outputs": [],
      "stateMutability": "payable",
      "type": "function"
    },
    {
      "inputs": [],
      "name": "viewAllBountiesByName",
      "outputs": [
        {
          "components": [
            {
              "internalType": "string",
              "name": "projectName",
              "type": "string"
            },
            {
              "internalType": "address",
              "name": "projectWallet",
              "type": "address"
            },
            {
              "internalType": "contract BountyPool",
              "name": "proxyAddress",
              "type": "address"
            },
            {
              "internalType": "address",
              "name": "token",
              "type": "address"
            },
            {
              "internalType": "bool",
              "name": "dead",
              "type": "bool"
            }
          ],
          "internalType": "struct BountyProxiesManager.Bounties[]",
          "name": "",
          "type": "tuple[]"
        }
      ],
      "stateMutability": "view",
      "type": "function"
    },
    {
      "inputs": [
        {
          "internalType": "string",
          "name": "_projectName",
          "type": "string"
        }
      ],
      "name": "viewBountyInfo",
      "outputs": [
        {
          "internalType": "uint256",
          "name": "payout",
          "type": "uint256"
        },
        {
          "internalType": "uint256",
          "name": "apy",
          "type": "uint256"
        },
        {
          "internalType": "uint256",
          "name": "staked",
          "type": "uint256"
        },
        {
          "internalType": "uint256",
          "name": "poolCap",
          "type": "uint256"
        }
      ],
      "stateMutability": "view",
      "type": "function"
    },
    {
      "inputs": [
        {
          "internalType": "string",
          "name": "_projectName",
          "type": "string"
        }
      ],
      "name": "viewBountyOwner",
      "outputs": [
        {
          "internalType": "address",
          "name": "",
          "type": "address"
        }
      ],
      "stateMutability": "view",
      "type": "function"
    },
    {
      "inputs": [
        {
          "internalType": "string",
          "name": "_projectName",
          "type": "string"
        }
      ],
      "name": "viewBountyPayout",
      "outputs": [
        {
          "internalType": "uint256",
          "name": "",
          "type": "uint256"
        }
      ],
      "stateMutability": "view",
      "type": "function"
    },
    {
      "inputs": [
        {
          "internalType": "string",
          "name": "_projectName",
          "type": "string"
        }
      ],
      "name": "viewDesiredAPY",
      "outputs": [
        {
          "internalType": "uint256",
          "name": "",
          "type": "uint256"
        }
      ],
      "stateMutability": "view",
      "type": "function"
    },
    {
      "inputs": [
        {
          "internalType": "address",
          "name": "_token",
          "type": "address"
        },
        {
          "internalType": "address",
          "name": "_hunter",
          "type": "address"
        }
      ],
      "name": "viewHunterTotalTokenPayouts",
      "outputs": [
        {
          "internalType": "uint256",
          "name": "",
          "type": "uint256"
        }
      ],
      "stateMutability": "view",
      "type": "function"
    },
    {
      "inputs": [
        {
          "internalType": "string",
          "name": "_projectName",
          "type": "string"
        }
      ],
      "name": "viewPoolCap",
      "outputs": [
        {
          "internalType": "uint256",
          "name": "",
          "type": "uint256"
        }
      ],
      "stateMutability": "view",
      "type": "function"
    },
    {
      "inputs": [
        {
          "internalType": "string",
          "name": "_projectName",
          "type": "string"
        }
      ],
      "name": "viewProjectDeposit",
      "outputs": [
        {
          "internalType": "uint256",
          "name": "",
          "type": "uint256"
        }
      ],
      "stateMutability": "view",
      "type": "function"
    },
    {
      "inputs": [],
      "name": "viewSaloonBalance",
      "outputs": [
        {
          "internalType": "uint256",
          "name": "",
          "type": "uint256"
        }
      ],
      "stateMutability": "view",
      "type": "function"
    },
    {
      "inputs": [],
      "name": "viewTotalEarnedSaloon",
      "outputs": [
        {
          "internalType": "uint256",
          "name": "",
          "type": "uint256"
        }
      ],
      "stateMutability": "view",
      "type": "function"
    },
    {
      "inputs": [],
      "name": "viewTotalHackerPayouts",
      "outputs": [
        {
          "internalType": "uint256",
          "name": "",
          "type": "uint256"
        }
      ],
      "stateMutability": "view",
      "type": "function"
    },
    {
      "inputs": [],
      "name": "viewTotalPremiums",
      "outputs": [
        {
          "internalType": "uint256",
          "name": "",
          "type": "uint256"
        }
      ],
      "stateMutability": "view",
      "type": "function"
    },
    {
      "inputs": [],
      "name": "viewTotalSaloonCommission",
      "outputs": [
        {
          "internalType": "uint256",
          "name": "",
          "type": "uint256"
        }
      ],
      "stateMutability": "view",
      "type": "function"
    },
    {
      "inputs": [
        {
          "internalType": "string",
          "name": "_projectName",
          "type": "string"
        }
      ],
      "name": "viewUserStakingBalance",
      "outputs": [
        {
          "internalType": "uint256",
          "name": "",
          "type": "uint256"
        }
      ],
      "stateMutability": "view",
      "type": "function"
    },
    {
      "inputs": [
        {
          "internalType": "string",
          "name": "_projectName",
          "type": "string"
        }
      ],
      "name": "viewstakersDeposit",
      "outputs": [
        {
          "internalType": "uint256",
          "name": "",
          "type": "uint256"
        }
      ],
      "stateMutability": "view",
      "type": "function"
    },
    {
      "inputs": [
        {
          "internalType": "address",
          "name": "_token",
          "type": "address"
        },
        {
          "internalType": "address",
          "name": "_to",
          "type": "address"
        },
        {
          "internalType": "uint256",
          "name": "_amount",
          "type": "uint256"
        }
      ],
      "name": "withdrawSaloon",
      "outputs": [
        {
          "internalType": "bool",
          "name": "",
          "type": "bool"
        }
      ],
      "stateMutability": "nonpayable",
      "type": "function"
    },
    {
      "inputs": [],
      "name": "withdrawSaloonPremiumFees",
      "outputs": [
        {
          "internalType": "bool",
          "name": "",
          "type": "bool"
        }
      ],
      "stateMutability": "nonpayable",
      "type": "function"
    }
  ],
  "bytecode": {
    "object": "0x60a06040523060805234801561001457600080fd5b506080516143d761004c60003960008181610fda01528181611023015281816116220152818161166201526116f501526143d76000f3fe6080604052600436106102935760003560e01c8063943eb4f21161015a578063d16ad2f7116100c1578063e5e97c651161007a578063e5e97c6514610809578063e6b37f6f14610829578063f0e6b4ed14610849578063f2fde38b14610869578063f4808fea14610889578063ff8d30fb146108a957600080fd5b8063d16ad2f71461075f578063d3326a0a1461077f578063d37c92dc14610794578063d3c15cdb146107b4578063d7dc56a5146107d4578063e5125d7b146107f457600080fd5b8063b91cdea711610113578063b91cdea7146106aa578063bc160761146106ca578063c0c53b8b146106ea578063c31495901461070a578063c45a01551461071f578063cae38faa1461073f57600080fd5b8063943eb4f2146105d55780639494c8ae146106155780639ca7e78714610635578063a0d0712514610655578063a667b5d01461066a578063b80478811461068a57600080fd5b806358b07d5b116101fe578063715018a6116101b7578063715018a614610501578063753d75631461051657806379f99a89146105465780637dd03e8f146105665780637f2f3e5e146105865780638da5cb5b146105b757600080fd5b806358b07d5b1461044c57806359659e901461046c578063666b70301461048c57806366b6c647146104ac57806368dd3dbf146104cc5780636c948535146104ec57600080fd5b80633ef0c3ed116102505780633ef0c3ed146103855780634389e41a146103a55780634c0d9a6c146103c55780634f1ef2861461040457806352d1902d1461041757806353dce8561461042c57600080fd5b806303c46f51146102985780630e060249146102c357806321580322146102e857806327e73542146103165780633659cfe61461032b578063377879261461034d575b600080fd5b3480156102a457600080fd5b506102ad6108c9565b6040516102ba9190613bd1565b60405180910390f35b3480156102cf57600080fd5b506102d86109ff565b60405190151581526020016102ba565b3480156102f457600080fd5b50610308610303366004613c8d565b610cf9565b6040519081526020016102ba565b34801561032257600080fd5b506102d8610d79565b34801561033757600080fd5b5061034b610346366004613cc6565b610fcf565b005b34801561035957600080fd5b5061036d610368366004613d86565b6110b8565b6040516001600160a01b0390911681526020016102ba565b34801561039157600080fd5b506103086103a0366004613d86565b6110ec565b3480156103b157600080fd5b5060685461036d906001600160a01b031681565b3480156103d157600080fd5b506103e56103e0366004613dbb565b611261565b604080516001600160a01b0390931683529015156020830152016102ba565b61034b610412366004613e44565b611617565b34801561042357600080fd5b506103086116e8565b34801561043857600080fd5b506102d8610447366004613cc6565b61179b565b34801561045857600080fd5b506102d8610467366004613e94565b611851565b34801561047857600080fd5b5060665461036d906001600160a01b031681565b34801561049857600080fd5b506103086104a7366004613d86565b611a98565b3480156104b857600080fd5b5061036d6104c7366004613d86565b611c5b565b3480156104d857600080fd5b506102d86104e7366004613ee2565b611c8f565b3480156104f857600080fd5b50610308611e7d565b34801561050d57600080fd5b5061034b611ef0565b34801561052257600080fd5b506102d8610531366004613cc6565b606b6020526000908152604090205460ff1681565b34801561055257600080fd5b5061034b610561366004613cc6565b611f04565b34801561057257600080fd5b50610308610581366004613d86565b611f7b565b34801561059257600080fd5b506105a66105a1366004613f27565b6120e8565b6040516102ba959493929190613f40565b3480156105c357600080fd5b506033546001600160a01b031661036d565b3480156105e157600080fd5b506105f56105f0366004613d86565b6121cc565b6040805194855260208501939093529183015260608201526080016102ba565b34801561062157600080fd5b506102d8610630366004613ee2565b612205565b34801561064157600080fd5b506102d8610650366004613d86565b61236c565b34801561066157600080fd5b506103086123bc565b34801561067657600080fd5b50610308610685366004613d86565b612406565b34801561069657600080fd5b506102d86106a5366004613ee2565b61254d565b3480156106b657600080fd5b506103086106c5366004613d86565b61271f565b3480156106d657600080fd5b506102d86106e5366004613f86565b612866565b3480156106f657600080fd5b5061034b610705366004613fe0565b612a01565b34801561071657600080fd5b50610308612b52565b34801561072b57600080fd5b5060655461036d906001600160a01b031681565b34801561074b57600080fd5b5060675461036d906001600160a01b031681565b34801561076b57600080fd5b506102d861077a366004613ee2565b612b9c565b34801561078b57600080fd5b50610308612d59565b3480156107a057600080fd5b506102d86107af366004613ee2565b612da3565b3480156107c057600080fd5b506103086107cf366004613d86565b612f0a565b3480156107e057600080fd5b506105a66107ef366004613d86565b613051565b34801561080057600080fd5b50610308613077565b34801561081557600080fd5b506102d8610824366004614039565b6130c1565b34801561083557600080fd5b506102d8610844366004613d86565b6130f7565b34801561085557600080fd5b506102d8610864366004614067565b613225565b34801561087557600080fd5b5061034b610884366004613cc6565b6132a8565b34801561089557600080fd5b506102d86108a4366004613ee2565b61331e565b3480156108b557600080fd5b506103086108c4366004613d86565b6134be565b60606069805480602002602001604051908101604052809291908181526020016000905b828210156109f657838290600052602060002090600402016040518060a001604052908160008201805461092090614097565b80601f016020809104026020016040519081016040528092919081815260200182805461094c90614097565b80156109995780601f1061096e57610100808354040283529160200191610999565b820191906000526020600020905b81548152906001019060200180831161097c57829003601f168201915b50505091835250506001828101546001600160a01b039081166020808501919091526002850154821660408501526003909401549081166060840152600160a01b900460ff161515608090920191909152918352920191016108ed565b50505050905090565b6000610a09613605565b60006069805480602002602001604051908101604052809291908181526020016000905b82821015610b3657838290600052602060002090600402016040518060a0016040529081600082018054610a6090614097565b80601f0160208091040260200160405190810160405280929190818152602001828054610a8c90614097565b8015610ad95780601f10610aae57610100808354040283529160200191610ad9565b820191906000526020600020905b815481529060010190602001808311610abc57829003601f168201915b50505091835250506001828101546001600160a01b039081166020808501919091526002850154821660408501526003909401549081166060840152600160a01b900460ff16151560809092019190915291835292019101610a2d565b5050825192935060009150505b81811015610cef57610b71838281518110610b6057610b606140d2565b60200260200101516080015161365f565b151560011415610b8057610cdf565b6000838281518110610b9457610b946140d2565b6020026020010151604001516001600160a01b0316635121ac9d858481518110610bc057610bc06140d2565b60209081029190910101516060015160685460405160e084901b6001600160e01b03191681526001600160a01b039283166004820152911660248201526044016020604051808303816000875af1158015610c1f573d6000803e3d6000fd5b505050506040513d601f19601f82011682018060405250810190610c4391906140e8565b60685485519192506001600160a01b0316906383ab930490869085908110610c6d57610c6d6140d2565b602002602001015160600151836040518363ffffffff1660e01b8152600401610cab9291906001600160a01b03929092168252602082015260400190565b600060405180830381600087803b158015610cc557600080fd5b505af1158015610cd9573d6000803e3d6000fd5b50505050505b610ce881614101565b9050610b43565b5060019250505090565b6068546040516310ac019160e11b81526001600160a01b03848116600483015283811660248301526000921690632158032290604401602060405180830381865afa158015610d4c573d6000803e3d6000fd5b505050506040513d601f19601f82011682018060405250810190610d7091906140e8565b90505b92915050565b6000806069805480602002602001604051908101604052809291908181526020016000905b82821015610ea757838290600052602060002090600402016040518060a0016040529081600082018054610dd190614097565b80601f0160208091040260200160405190810160405280929190818152602001828054610dfd90614097565b8015610e4a5780601f10610e1f57610100808354040283529160200191610e4a565b820191906000526020600020905b815481529060010190602001808311610e2d57829003601f168201915b50505091835250506001828101546001600160a01b039081166020808501919091526002850154821660408501526003909401549081166060840152600160a01b900460ff16151560809092019190915291835292019101610d9e565b5050825192935060009150505b81811015610cef57610ed1838281518110610b6057610b606140d2565b151560011415610ee057610fbf565b828181518110610ef257610ef26140d2565b6020026020010151604001516001600160a01b03166310775e74848381518110610f1e57610f1e6140d2565b602002602001015160600151858481518110610f3c57610f3c6140d2565b6020026020010151602001516040518363ffffffff1660e01b8152600401610f7a9291906001600160a01b0392831681529116602082015260400190565b6020604051808303816000875af1158015610f99573d6000803e3d6000fd5b505050506040513d601f19601f82011682018060405250810190610fbd919061412a565b505b610fc881614101565b9050610eb4565b306001600160a01b037f00000000000000000000000000000000000000000000000000000000000000001614156110215760405162461bcd60e51b815260040161101890614147565b60405180910390fd5b7f00000000000000000000000000000000000000000000000000000000000000006001600160a01b031661106a60008051602061435b833981519152546001600160a01b031690565b6001600160a01b0316146110905760405162461bcd60e51b815260040161101890614193565b61109981613676565b604080516000808252602082019092526110b59183919061367e565b50565b6000606a826040516110ca91906141df565b908152604051908190036020019020600101546001600160a01b031692915050565b600080606a836040516110ff91906141df565b90815260200160405180910390206040518060a001604052908160008201805461112890614097565b80601f016020809104026020016040519081016040528092919081815260200182805461115490614097565b80156111a15780601f10611176576101008083540402835291602001916111a1565b820191906000526020600020905b81548152906001019060200180831161118457829003601f168201915b505050918352505060018201546001600160a01b03908116602080840191909152600284015482166040808501919091526003909401548083166060850152600160a01b900460ff16151560809093019290925283830151835160016202e8ad60e61b031981529351949550169263ff45d4c09260048082019392918290030181865afa158015611236573d6000803e3d6000fd5b505050506040513d601f19601f8201168201806040525081019061125a91906140e8565b9392505050565b60008061126c613605565b60006001600160a01b0316606a8660405161128791906141df565b908152604051908190036020019020600201546001600160a01b0316146112f05760405162461bcd60e51b815260206004820152601a60248201527f50726f6a65637420616c72656164792068617320626f756e74790000000000006044820152606401611018565b6001600160a01b0384166000908152606b602052604090205460ff1615156001146113525760405162461bcd60e51b8152602060048201526012602482015271151bdad95b881b9bdd08185c1c1c9bdd995960721b6044820152606401611018565b6040805160a0810182526000818301819052608082018190528782526001600160a01b038681166020840152878116606084015260655460665494516336d9881760e01b815293949293908216926336d98817926113b7929116908c906004016141fb565b6020604051808303816000875af11580156113d6573d6000803e3d6000fd5b505050506040513d601f19601f820116820180604052508101906113fa919061421f565b604051634b8e0d3760e01b81523060048201529091506001600160a01b03821690634b8e0d3790602401600060405180830381600087803b15801561143e57600080fd5b505af1158015611452573d6000803e3d6000fd5b5050506001600160a01b038216604084015250606980546001810182556000919091528251805184926004027f7fb4302e8e91f9110a6554c2c0a24601252c2a42c2220ca988efcfe39991430801916114b091839160200190613ae0565b5060208201516001820180546001600160a01b039283166001600160a01b03199182161790915560408085015160028501805491851691909316179091556060840151600390930180546080909501511515600160a01b026001600160a81b0319909516939092169290921792909217909155518290606a90611534908a906141df565b9081526020016040518091039020600082015181600001908051906020019061155e929190613ae0565b506020828101516001830180546001600160a01b039283166001600160a01b03199182161790915560408086015160028601805491851691909316179091556060850151600390940180546080909601511515600160a01b026001600160a81b03199096169483169490941794909417909255915183821681529087169133917fa397122091ddbad4417c188353200f86978770ea6a146a5860667b1ef760917c910160405180910390a3976001975095505050505050565b306001600160a01b037f00000000000000000000000000000000000000000000000000000000000000001614156116605760405162461bcd60e51b815260040161101890614147565b7f00000000000000000000000000000000000000000000000000000000000000006001600160a01b03166116a960008051602061435b833981519152546001600160a01b031690565b6001600160a01b0316146116cf5760405162461bcd60e51b815260040161101890614193565b6116d882613676565b6116e48282600161367e565b5050565b6000306001600160a01b037f000000000000000000000000000000000000000000000000000000000000000016146117885760405162461bcd60e51b815260206004820152603860248201527f555550535570677261646561626c653a206d757374206e6f742062652063616c60448201527f6c6564207468726f7567682064656c656761746563616c6c00000000000000006064820152608401611018565b5060008051602061435b83398151915290565b60006117a5613605565b6001600160a01b0382166117ea5760405162461bcd60e51b815260206004820152600c60248201526b41646472657373207a65726f60a01b6044820152606401611018565b606654604051631b2ce7f360e11b81526001600160a01b03848116600483015290911690633659cfe690602401600060405180830381600087803b15801561183157600080fd5b505af1158015611845573d6000803e3d6000fd5b50600195945050505050565b600080606a8560405161186491906141df565b90815260200160405180910390206040518060a001604052908160008201805461188d90614097565b80601f01602080910402602001604051908101604052809291908181526020018280546118b990614097565b80156119065780601f106118db57610100808354040283529160200191611906565b820191906000526020600020905b8154815290600101906020018083116118e957829003601f168201915b505050918352505060018201546001600160a01b0390811660208301526002830154811660408301526003909201549182166060820152600160a01b90910460ff16151560809182015281015190915061195f9061365f565b15156001146119805760405162461bcd60e51b81526004016110189061423c565b80602001516001600160a01b0316336001600160a01b0316146119b55760405162461bcd60e51b815260040161101890614264565b80604001516001600160a01b031663d835f535856040518263ffffffff1660e01b81526004016119e791815260200190565b600060405180830381600087803b158015611a0157600080fd5b505af1158015611a15573d6000803e3d6000fd5b50505060408083015160608401516020850151925163cc12c31160e01b81526001600160a01b03909216935063cc12c31192611a5592889060040161428f565b6020604051808303816000875af1158015611a74573d6000803e3d6000fd5b505050506040513d601f19601f82011682018060405250810190611845919061412a565b600080606a83604051611aab91906141df565b90815260200160405180910390206040518060a0016040529081600082018054611ad490614097565b80601f0160208091040260200160405190810160405280929190818152602001828054611b0090614097565b8015611b4d5780601f10611b2257610100808354040283529160200191611b4d565b820191906000526020600020905b815481529060010190602001808311611b3057829003601f168201915b505050918352505060018201546001600160a01b0390811660208301526002830154811660408301526003909201549182166060820152600160a01b90910460ff161515608091820152810151909150611ba69061365f565b1515600114611bc75760405162461bcd60e51b81526004016110189061423c565b6040808201516060830151602084015192516303065f4560e41b81526001600160a01b0391821660048201523360248201529281166044840152600092911690633065f4509060640160408051808303816000875af1158015611c2e573d6000803e3d6000fd5b505050506040513d601f19601f82011682018060405250810190611c5291906142b3565b50949350505050565b6000606a82604051611c6d91906141df565b908152604051908190036020019020600201546001600160a01b031692915050565b600080606a84604051611ca291906141df565b90815260200160405180910390206040518060a0016040529081600082018054611ccb90614097565b80601f0160208091040260200160405190810160405280929190818152602001828054611cf790614097565b8015611d445780601f10611d1957610100808354040283529160200191611d44565b820191906000526020600020905b815481529060010190602001808311611d2757829003601f168201915b505050918352505060018201546001600160a01b0390811660208301526002830154811660408301526003909201549182166060820152600160a01b90910460ff161515608091820152810151909150611d9d9061365f565b1515600114611dbe5760405162461bcd60e51b81526004016110189061423c565b80602001516001600160a01b0316336001600160a01b031614611df35760405162461bcd60e51b815260040161101890614264565b80604001516001600160a01b031663419b7bd782606001518360200151866040518463ffffffff1660e01b8152600401611e2f9392919061428f565b6020604051808303816000875af1158015611e4e573d6000803e3d6000fd5b505050506040513d601f19601f82011682018060405250810190611e72919061412a565b506001949350505050565b60685460408051636c94853560e01b815290516000926001600160a01b031691636c9485359160048083019260209291908290030181865afa158015611ec7573d6000803e3d6000fd5b505050506040513d601f19601f82011682018060405250810190611eeb91906140e8565b905090565b611ef8613605565b611f0260006137ee565b565b611f0c613605565b6001600160a01b038116611f595760405162461bcd60e51b8152602060048201526014602482015273416464726573732063616e74206265207a65726f60601b6044820152606401611018565b606880546001600160a01b0319166001600160a01b0392909216919091179055565b600080606a83604051611f8e91906141df565b90815260200160405180910390206040518060a0016040529081600082018054611fb790614097565b80601f0160208091040260200160405190810160405280929190818152602001828054611fe390614097565b80156120305780601f1061200557610100808354040283529160200191612030565b820191906000526020600020905b81548152906001019060200180831161201357829003601f168201915b505050918352505060018201546001600160a01b039081166020830152600283015481166040808401919091526003909301548082166060840152600160a01b900460ff161515608090920191909152828201519151631a89cabd60e01b8152336004820152929350600092911690631a89cabd906024016040805180830381865afa1580156120c4573d6000803e3d6000fd5b505050506040513d601f19601f82011682018060405250810190611c5291906142d8565b606981815481106120f857600080fd5b906000526020600020906004020160009150905080600001805461211b90614097565b80601f016020809104026020016040519081016040528092919081815260200182805461214790614097565b80156121945780601f1061216957610100808354040283529160200191612194565b820191906000526020600020905b81548152906001019060200180831161217757829003601f168201915b505050506001830154600284015460039094015492936001600160a01b0391821693908216925090811690600160a01b900460ff1685565b6000806000806121db856134be565b93506121e68561271f565b91506121f185612406565b92506121fc856110ec565b90509193509193565b600080606a8460405161221891906141df565b90815260200160405180910390206040518060a001604052908160008201805461224190614097565b80601f016020809104026020016040519081016040528092919081815260200182805461226d90614097565b80156122ba5780601f1061228f576101008083540402835291602001916122ba565b820191906000526020600020905b81548152906001019060200180831161229d57829003601f168201915b505050918352505060018201546001600160a01b0390811660208301526002830154811660408301526003909201549182166060820152600160a01b90910460ff1615156080918201528101519091506123139061365f565b15156001146123345760405162461bcd60e51b81526004016110189061423c565b80604001516001600160a01b031663bf6eac2f826060015133866040518463ffffffff1660e01b8152600401611e2f9392919061428f565b6000612376613605565b6001606a8360405161238891906141df565b9081526040519081900360200190206003018054911515600160a01b0260ff60a01b19909216919091179055506001919050565b6068546040805163a0d0712560e01b815290516000926001600160a01b03169163a0d071259160048083019260209291908290030181865afa158015611ec7573d6000803e3d6000fd5b600080606a8360405161241991906141df565b90815260200160405180910390206040518060a001604052908160008201805461244290614097565b80601f016020809104026020016040519081016040528092919081815260200182805461246e90614097565b80156124bb5780601f10612490576101008083540402835291602001916124bb565b820191906000526020600020905b81548152906001019060200180831161249e57829003601f168201915b505050918352505060018201546001600160a01b03908116602080840191909152600284015482166040808501919091526003909401548083166060850152600160a01b900460ff161515608090930192909252838301518351639ff3128f60e01b815293519495501692639ff3128f9260048082019392918290030181865afa158015611236573d6000803e3d6000fd5b600080606a8460405161256091906141df565b90815260200160405180910390206040518060a001604052908160008201805461258990614097565b80601f01602080910402602001604051908101604052809291908181526020018280546125b590614097565b80156126025780601f106125d757610100808354040283529160200191612602565b820191906000526020600020905b8154815290600101906020018083116125e557829003601f168201915b505050918352505060018201546001600160a01b0390811660208301526002830154811660408301526003909201549182166060820152600160a01b90910460ff16151560809182015281015190915061265b9061365f565b151560011461267c5760405162461bcd60e51b81526004016110189061423c565b80602001516001600160a01b0316336001600160a01b0316146126b15760405162461bcd60e51b815260040161101890614264565b80604001516001600160a01b0316634b5df6cc846040518263ffffffff1660e01b81526004016126e391815260200190565b600060405180830381600087803b1580156126fd57600080fd5b505af1158015612711573d6000803e3d6000fd5b506001979650505050505050565b600080606a8360405161273291906141df565b90815260200160405180910390206040518060a001604052908160008201805461275b90614097565b80601f016020809104026020016040519081016040528092919081815260200182805461278790614097565b80156127d45780601f106127a9576101008083540402835291602001916127d4565b820191906000526020600020905b8154815290600101906020018083116127b757829003601f168201915b505050918352505060018201546001600160a01b03908116602080840191909152600284015482166040808501919091526003909401548083166060850152600160a01b900460ff1615156080909301929092528383015183516316e17b8d60e01b8152935194955016926316e17b8d9260048082019392918290030181865afa158015611236573d6000803e3d6000fd5b6000612870613605565b6128a6606a8560405161288391906141df565b9081526040519081900360200190206003015460ff600160a01b9091041661365f565b15156001146128c75760405162461bcd60e51b81526004016110189061423c565b606a846040516128d791906141df565b908152604051908190036020018120600201546001600160a01b0316906373927c1190606a906129089088906141df565b908152604051908190036020018120600301546068546001600160e01b031960e085901b1683526001600160a01b0391821660048401528116602483015286166044820152606481018590526084016020604051808303816000875af1158015612976573d6000803e3d6000fd5b505050506040513d601f19601f8201168201806040525081019061299a919061412a565b506068546040516001600160a01b039091169063d16cfcc190606a906129c19088906141df565b908152604051908190036020018120600301546001600160e01b031960e084901b1682526126e3916001600160a01b03909116908790879060040161428f565b600054610100900460ff1615808015612a215750600054600160ff909116105b80612a3b5750303b158015612a3b575060005460ff166001145b612a9e5760405162461bcd60e51b815260206004820152602e60248201527f496e697469616c697a61626c653a20636f6e747261637420697320616c72656160448201526d191e481a5b9a5d1a585b1a5e995960921b6064820152608401611018565b6000805460ff191660011790558015612ac1576000805461ff0019166101001790555b606580546001600160a01b038087166001600160a01b031992831617909255606680548684169083161790556067805492851692909116919091179055612b06613840565b8015612b4c576000805461ff0019169055604051600181527f7f26b83ff96e1f2b6a682f133852f6798a09c465da95921460cefb38474024989060200160405180910390a15b50505050565b60685460408051630c31495960e41b815290516000926001600160a01b03169163c31495909160048083019260209291908290030181865afa158015611ec7573d6000803e3d6000fd5b600080606a84604051612baf91906141df565b90815260200160405180910390206040518060a0016040529081600082018054612bd890614097565b80601f0160208091040260200160405190810160405280929190818152602001828054612c0490614097565b8015612c515780601f10612c2657610100808354040283529160200191612c51565b820191906000526020600020905b815481529060010190602001808311612c3457829003601f168201915b505050918352505060018201546001600160a01b0390811660208301526002830154811660408301526003909201549182166060820152600160a01b90910460ff161515608091820152810151909150612caa9061365f565b1515600114612ccb5760405162461bcd60e51b81526004016110189061423c565b60408082015190516358ae710560e11b8152336004820152602481018590526001600160a01b039091169063b15ce20a906044015b6020604051808303816000875af1158015612d1f573d6000803e3d6000fd5b505050506040513d601f19601f82011682018060405250810190612d43919061412a565b15612d52576001915050610d73565b5092915050565b60685460408051636999350560e11b815290516000926001600160a01b03169163d3326a0a9160048083019260209291908290030181865afa158015611ec7573d6000803e3d6000fd5b600080606a84604051612db691906141df565b90815260200160405180910390206040518060a0016040529081600082018054612ddf90614097565b80601f0160208091040260200160405190810160405280929190818152602001828054612e0b90614097565b8015612e585780601f10612e2d57610100808354040283529160200191612e58565b820191906000526020600020905b815481529060010190602001808311612e3b57829003601f168201915b505050918352505060018201546001600160a01b0390811660208301526002830154811660408301526003909201549182166060820152600160a01b90910460ff161515608091820152810151909150612eb19061365f565b1515600114612ed25760405162461bcd60e51b81526004016110189061423c565b80604001516001600160a01b03166360829f8a826060015133866040518463ffffffff1660e01b8152600401612d009392919061428f565b600080606a83604051612f1d91906141df565b90815260200160405180910390206040518060a0016040529081600082018054612f4690614097565b80601f0160208091040260200160405190810160405280929190818152602001828054612f7290614097565b8015612fbf5780601f10612f9457610100808354040283529160200191612fbf565b820191906000526020600020905b815481529060010190602001808311612fa257829003601f168201915b505050918352505060018201546001600160a01b03908116602080840191909152600284015482166040808501919091526003909401548083166060850152600160a01b900460ff16151560809093019290925283830151835163383639b360e01b81529351949550169263383639b39260048082019392918290030181865afa158015611236573d6000803e3d6000fd5b8051602081830181018051606a8252928201919093012091528054819061211b90614097565b6068546040805163e5125d7b60e01b815290516000926001600160a01b03169163e5125d7b9160048083019260209291908290030181865afa158015611ec7573d6000803e3d6000fd5b60006130cb613605565b6001600160a01b03929092166000908152606b60205260409020805460ff191691151591909117905590565b600061310c606a8360405161288391906141df565b151560011461312d5760405162461bcd60e51b81526004016110189061423c565b606a8260405161313d91906141df565b908152604051908190036020018120600201546001600160a01b0316906310775e7490606a9061316e9086906141df565b908152604051908190036020018120600301546001600160a01b031690606a906131999087906141df565b908152604051908190036020018120600101546001600160e01b031960e085901b1682526001600160a01b0392831660048301529190911660248201526044016020604051808303816000875af11580156131f8573d6000803e3d6000fd5b505050506040513d601f19601f8201168201806040525081019061321c919061412a565b50600192915050565b600061322f613605565b6001600160a01b0383166132745760405162461bcd60e51b815260206004820152600c60248201526b41646472657373205a65726f60a01b6044820152606401611018565b606854604051630be5e47b60e11b81526001600160a01b03909116906317cbc8f690611e2f9087908790879060040161428f565b6132b0613605565b6001600160a01b0381166133155760405162461bcd60e51b815260206004820152602660248201527f4f776e61626c653a206e6577206f776e657220697320746865207a65726f206160448201526564647265737360d01b6064820152608401611018565b6110b5816137ee565b600080606a8460405161333191906141df565b90815260200160405180910390206040518060a001604052908160008201805461335a90614097565b80601f016020809104026020016040519081016040528092919081815260200182805461338690614097565b80156133d35780601f106133a8576101008083540402835291602001916133d3565b820191906000526020600020905b8154815290600101906020018083116133b657829003601f168201915b505050918352505060018201546001600160a01b0390811660208301526002830154811660408301526003909201549182166060820152600160a01b90910460ff16151560809182015281015190915061342c9061365f565b151560011461344d5760405162461bcd60e51b81526004016110189061423c565b80602001516001600160a01b0316336001600160a01b0316146134825760405162461bcd60e51b815260040161101890614264565b80604001516001600160a01b0316633147096d82606001518360200151866040518463ffffffff1660e01b8152600401611e2f9392919061428f565b600080606a836040516134d191906141df565b90815260200160405180910390206040518060a00160405290816000820180546134fa90614097565b80601f016020809104026020016040519081016040528092919081815260200182805461352690614097565b80156135735780601f1061354857610100808354040283529160200191613573565b820191906000526020600020905b81548152906001019060200180831161355657829003601f168201915b505050918352505060018201546001600160a01b03908116602080840191909152600284015482166040808501919091526003909401548083166060850152600160a01b900460ff161515608090930192909252838301518351634a94bcb360e01b815293519495501692634a94bcb39260048082019392918290030181865afa158015611236573d6000803e3d6000fd5b6033546001600160a01b03163314611f025760405162461bcd60e51b815260206004820181905260248201527f4f776e61626c653a2063616c6c6572206973206e6f7420746865206f776e65726044820152606401611018565b6000811561366e576000610d73565b600192915050565b6110b5613605565b7f4910fdfa16fed3260ed0e7147f7cc6da11a60208b5b9406d12a635614ffd91435460ff16156136b6576136b18361386f565b505050565b826001600160a01b03166352d1902d6040518163ffffffff1660e01b8152600401602060405180830381865afa925050508015613710575060408051601f3d908101601f1916820190925261370d918101906140e8565b60015b6137735760405162461bcd60e51b815260206004820152602e60248201527f45524331393637557067726164653a206e657720696d706c656d656e7461746960448201526d6f6e206973206e6f74205555505360901b6064820152608401611018565b60008051602061435b83398151915281146137e25760405162461bcd60e51b815260206004820152602960248201527f45524331393637557067726164653a20756e737570706f727465642070726f786044820152681a58589b195555525160ba1b6064820152608401611018565b506136b183838361390b565b603380546001600160a01b038381166001600160a01b0319831681179093556040519116919082907f8be0079c531659141344cd1fd0a4f28419497f9722a3daafe3b4186f6b6457e090600090a35050565b600054610100900460ff166138675760405162461bcd60e51b8152600401611018906142fc565b611f02613930565b6001600160a01b0381163b6138dc5760405162461bcd60e51b815260206004820152602d60248201527f455243313936373a206e657720696d706c656d656e746174696f6e206973206e60448201526c1bdd08184818dbdb9d1c9858dd609a1b6064820152608401611018565b60008051602061435b83398151915280546001600160a01b0319166001600160a01b0392909216919091179055565b61391483613960565b6000825111806139215750805b156136b157612b4c83836139a0565b600054610100900460ff166139575760405162461bcd60e51b8152600401611018906142fc565b611f02336137ee565b6139698161386f565b6040516001600160a01b038216907fbc7cd75a20ee27fd9adebab32041f755214dbc6bffa90cc0225b39da2e5c2d3b90600090a250565b6060610d70838360405180606001604052806027815260200161437b602791396060600080856001600160a01b0316856040516139dd91906141df565b600060405180830381855af49150503d8060008114613a18576040519150601f19603f3d011682016040523d82523d6000602084013e613a1d565b606091505b5091509150613a2e86838387613a38565b9695505050505050565b60608315613aa4578251613a9d576001600160a01b0385163b613a9d5760405162461bcd60e51b815260206004820152601d60248201527f416464726573733a2063616c6c20746f206e6f6e2d636f6e74726163740000006044820152606401611018565b5081613aae565b613aae8383613ab6565b949350505050565b815115613ac65781518083602001fd5b8060405162461bcd60e51b81526004016110189190614347565b828054613aec90614097565b90600052602060002090601f016020900481019282613b0e5760008555613b54565b82601f10613b2757805160ff1916838001178555613b54565b82800160010185558215613b54579182015b82811115613b54578251825591602001919060010190613b39565b50613b60929150613b64565b5090565b5b80821115613b605760008155600101613b65565b60005b83811015613b94578181015183820152602001613b7c565b83811115612b4c5750506000910152565b60008151808452613bbd816020860160208601613b79565b601f01601f19169290920160200192915050565b60006020808301818452808551808352604092508286019150828160051b87010184880160005b83811015613c6a57603f19898403018552815160a08151818652613c1e82870182613ba5565b838b01516001600160a01b03908116888d01528a85015181168b890152606080860151909116908801526080938401511515939096019290925250509386019390860190600101613bf8565b509098975050505050505050565b6001600160a01b03811681146110b557600080fd5b60008060408385031215613ca057600080fd5b8235613cab81613c78565b91506020830135613cbb81613c78565b809150509250929050565b600060208284031215613cd857600080fd5b813561125a81613c78565b634e487b7160e01b600052604160045260246000fd5b600082601f830112613d0a57600080fd5b813567ffffffffffffffff80821115613d2557613d25613ce3565b604051601f8301601f19908116603f01168101908282118183101715613d4d57613d4d613ce3565b81604052838152866020858801011115613d6657600080fd5b836020870160208301376000602085830101528094505050505092915050565b600060208284031215613d9857600080fd5b813567ffffffffffffffff811115613daf57600080fd5b613aae84828501613cf9565b60008060008060808587031215613dd157600080fd5b843567ffffffffffffffff80821115613de957600080fd5b613df588838901613cf9565b95506020870135915080821115613e0b57600080fd5b50613e1887828801613cf9565b9350506040850135613e2981613c78565b91506060850135613e3981613c78565b939692955090935050565b60008060408385031215613e5757600080fd5b8235613e6281613c78565b9150602083013567ffffffffffffffff811115613e7e57600080fd5b613e8a85828601613cf9565b9150509250929050565b600080600060608486031215613ea957600080fd5b833567ffffffffffffffff811115613ec057600080fd5b613ecc86828701613cf9565b9660208601359650604090950135949350505050565b60008060408385031215613ef557600080fd5b823567ffffffffffffffff811115613f0c57600080fd5b613f1885828601613cf9565b95602094909401359450505050565b600060208284031215613f3957600080fd5b5035919050565b60a081526000613f5360a0830188613ba5565b6001600160a01b039687166020840152948616604083015250919093166060820152911515608090920191909152919050565b600080600060608486031215613f9b57600080fd5b833567ffffffffffffffff811115613fb257600080fd5b613fbe86828701613cf9565b9350506020840135613fcf81613c78565b929592945050506040919091013590565b600080600060608486031215613ff557600080fd5b833561400081613c78565b9250602084013561401081613c78565b9150604084013561402081613c78565b809150509250925092565b80151581146110b557600080fd5b6000806040838503121561404c57600080fd5b823561405781613c78565b91506020830135613cbb8161402b565b60008060006060848603121561407c57600080fd5b833561408781613c78565b92506020840135613fcf81613c78565b600181811c908216806140ab57607f821691505b602082108114156140cc57634e487b7160e01b600052602260045260246000fd5b50919050565b634e487b7160e01b600052603260045260246000fd5b6000602082840312156140fa57600080fd5b5051919050565b600060001982141561412357634e487b7160e01b600052601160045260246000fd5b5060010190565b60006020828403121561413c57600080fd5b815161125a8161402b565b6020808252602c908201527f46756e6374696f6e206d7573742062652063616c6c6564207468726f7567682060408201526b19195b1959d85d1958d85b1b60a21b606082015260800190565b6020808252602c908201527f46756e6374696f6e206d7573742062652063616c6c6564207468726f7567682060408201526b6163746976652070726f787960a01b606082015260800190565b600082516141f1818460208701613b79565b9190910192915050565b6001600160a01b0383168152604060208201819052600090613aae90830184613ba5565b60006020828403121561423157600080fd5b815161125a81613c78565b6020808252600e908201526d109bdd5b9d1e481a5cc81119585960921b604082015260600190565b6020808252601190820152702737ba10383937b532b1ba1037bbb732b960791b604082015260600190565b6001600160a01b039384168152919092166020820152604081019190915260600190565b600080604083850312156142c657600080fd5b825191506020830151613cbb8161402b565b600080604083850312156142eb57600080fd5b505080516020909101519092909150565b6020808252602b908201527f496e697469616c697a61626c653a20636f6e7472616374206973206e6f74206960408201526a6e697469616c697a696e6760a81b606082015260800190565b602081526000610d706020830184613ba556fe360894a13ba1a3210667c828492db98dca3e2076cc3735a920a3ca505d382bbc416464726573733a206c6f772d6c6576656c2064656c65676174652063616c6c206661696c6564a264697066735822122070de249e48d26ba7cc9f998ab5780b9826a90e73ed4564e8f237431d2509263664736f6c634300080a0033",
    "linkReferences": {}
  },
  "methodIdentifiers": {
    "beacon()": "59659e90",
    "billPremiumForAll()": "27e73542",
    "billPremiumForOnePool(string)": "e6b37f6f",
    "bountiesList(uint256)": "7f2f3e5e",
    "bountyDetails(string)": "d7dc56a5",
    "bountyImplementation()": "cae38faa",
    "claimPremium(string)": "666b7030",
    "deployNewBounty(bytes,string,address,address)": "4c0d9a6c",
    "factory()": "c45a0155",
    "getBountyAddressByName(string)": "66b6c647",
    "initialize(address,address,address)": "c0c53b8b",
    "killBounty(string)": "9ca7e787",
    "owner()": "8da5cb5b",
    "payBounty(string,address,uint256)": "bc160761",
    "projectDeposit(string,uint256)": "f4808fea",
    "projectDepositWithdrawal(string,uint256)": "68dd3dbf",
    "proxiableUUID()": "52d1902d",
    "renounceOwnership()": "715018a6",
    "saloonWallet()": "4389e41a",
    "scheduleProjectDepositWithdrawal(string,uint256)": "b8047881",
    "scheduleUnstake(string,uint256)": "d16ad2f7",
    "setBountyCapAndAPY(string,uint256,uint256)": "58b07d5b",
    "stake(string,uint256)": "9494c8ae",
    "tokenWhitelist(address)": "753d7563",
    "transferOwnership(address)": "f2fde38b",
    "unstake(string,uint256)": "d37c92dc",
    "updateBountyPoolImplementation(address)": "53dce856",
    "updateSaloonWallet(address)": "79f99a89",
    "updateTokenWhitelist(address,bool)": "e5e97c65",
    "upgradeTo(address)": "3659cfe6",
    "upgradeToAndCall(address,bytes)": "4f1ef286",
    "viewAllBountiesByName()": "03c46f51",
    "viewBountyInfo(string)": "943eb4f2",
    "viewBountyOwner(string)": "37787926",
    "viewBountyPayout(string)": "ff8d30fb",
    "viewDesiredAPY(string)": "a667b5d0",
    "viewHunterTotalTokenPayouts(address,address)": "21580322",
    "viewPoolCap(string)": "3ef0c3ed",
    "viewProjectDeposit(string)": "d3c15cdb",
    "viewSaloonBalance()": "a0d07125",
    "viewTotalEarnedSaloon()": "6c948535",
    "viewTotalHackerPayouts()": "c3149590",
    "viewTotalPremiums()": "e5125d7b",
    "viewTotalSaloonCommission()": "d3326a0a",
    "viewUserStakingBalance(string)": "7dd03e8f",
    "viewstakersDeposit(string)": "b91cdea7",
    "withdrawSaloon(address,address,uint256)": "f0e6b4ed",
    "withdrawSaloonPremiumFees()": "0e060249"
  },
  "id": 28
}