{
  "abi": [
    {
      "anonymous": false,
      "inputs": [
        {
          "indexed": false,
          "internalType": "address",
          "name": "previousAdmin",
          "type": "address"
        },
        {
          "indexed": false,
          "internalType": "address",
          "name": "newAdmin",
          "type": "address"
        }
      ],
      "name": "AdminChanged",
      "type": "event"
    },
    {
      "anonymous": false,
      "inputs": [
        {
          "indexed": true,
          "internalType": "address",
          "name": "beacon",
          "type": "address"
        }
      ],
      "name": "BeaconUpgraded",
      "type": "event"
    },
    {
      "anonymous": false,
      "inputs": [
        {
          "indexed": true,
          "internalType": "string",
          "name": "projectName",
          "type": "string"
        }
      ],
      "name": "BountyKilled",
      "type": "event"
    },
    {
      "anonymous": false,
      "inputs": [
        {
          "indexed": true,
          "internalType": "uint256",
          "name": "time",
          "type": "uint256"
        },
        {
          "indexed": true,
          "internalType": "address",
          "name": "hunter",
          "type": "address"
        },
        {
          "indexed": true,
          "internalType": "uint256",
          "name": "amount",
          "type": "uint256"
        },
        {
          "indexed": false,
          "internalType": "address",
          "name": "token",
          "type": "address"
        }
      ],
      "name": "BountyPaid",
      "type": "event"
    },
    {
      "anonymous": false,
      "inputs": [
        {
          "indexed": true,
          "internalType": "address",
          "name": "newImplementation",
          "type": "address"
        }
      ],
      "name": "BountyPoolImplementationUpdated",
      "type": "event"
    },
    {
      "anonymous": false,
      "inputs": [
        {
          "indexed": true,
          "internalType": "address",
          "name": "sender",
          "type": "address"
        },
        {
          "indexed": true,
          "internalType": "address",
          "name": "_projectWallet",
          "type": "address"
        },
        {
          "indexed": false,
          "internalType": "contract BountyPool",
          "name": "newProxyAddress",
          "type": "address"
        }
      ],
      "name": "DeployNewBounty",
      "type": "event"
    },
    {
      "anonymous": false,
      "inputs": [
        {
          "indexed": true,
          "internalType": "string",
          "name": "projectName",
          "type": "string"
        },
        {
          "indexed": true,
          "internalType": "uint256",
          "name": "oldAmount",
          "type": "uint256"
        },
        {
          "indexed": true,
          "internalType": "uint256",
          "name": "newAmount",
          "type": "uint256"
        }
      ],
      "name": "HackerPayoutChanged",
      "type": "event"
    },
    {
      "anonymous": false,
      "inputs": [
        {
          "indexed": false,
          "internalType": "uint8",
          "name": "version",
          "type": "uint8"
        }
      ],
      "name": "Initialized",
      "type": "event"
    },
    {
      "anonymous": false,
      "inputs": [
        {
          "indexed": true,
          "internalType": "address",
          "name": "previousOwner",
          "type": "address"
        },
        {
          "indexed": true,
          "internalType": "address",
          "name": "newOwner",
          "type": "address"
        }
      ],
      "name": "OwnershipTransferred",
      "type": "event"
    },
    {
      "anonymous": false,
      "inputs": [
        {
          "indexed": true,
          "internalType": "string",
          "name": "projectName",
          "type": "string"
        },
        {
          "indexed": true,
          "internalType": "uint256",
          "name": "poolCap",
          "type": "uint256"
        },
        {
          "indexed": true,
          "internalType": "uint256",
          "name": "apy",
          "type": "uint256"
        }
      ],
      "name": "PoolCapAndAPYChanged",
      "type": "event"
    },
    {
      "anonymous": false,
      "inputs": [
        {
          "indexed": true,
          "internalType": "string",
          "name": "projectName",
          "type": "string"
        },
        {
          "indexed": true,
          "internalType": "address",
          "name": "projectWallet",
          "type": "address"
        }
      ],
      "name": "PremiumBilled",
      "type": "event"
    },
    {
      "anonymous": false,
      "inputs": [
        {
          "indexed": true,
          "internalType": "address",
          "name": "token",
          "type": "address"
        },
        {
          "indexed": true,
          "internalType": "uint256",
          "name": "amount",
          "type": "uint256"
        }
      ],
      "name": "SaloonFundsWithdrawal",
      "type": "event"
    },
    {
      "anonymous": false,
      "inputs": [
        {
          "indexed": true,
          "internalType": "uint256",
          "name": "totalCollected",
          "type": "uint256"
        }
      ],
      "name": "SaloonPremiumCollected",
      "type": "event"
    },
    {
      "anonymous": false,
      "inputs": [
        {
          "indexed": true,
          "internalType": "string",
          "name": "projectName",
          "type": "string"
        },
        {
          "indexed": true,
          "internalType": "uint256",
          "name": "previousStaked",
          "type": "uint256"
        },
        {
          "indexed": true,
          "internalType": "uint256",
          "name": "newStaked",
          "type": "uint256"
        }
      ],
      "name": "StakedAmountChanged",
      "type": "event"
    },
    {
      "anonymous": false,
      "inputs": [
        {
          "indexed": true,
          "internalType": "address",
          "name": "implementation",
          "type": "address"
        }
      ],
      "name": "Upgraded",
      "type": "event"
    },
    {
      "anonymous": false,
      "inputs": [
        {
          "indexed": true,
          "internalType": "string",
          "name": "projectName",
          "type": "string"
        },
        {
          "indexed": true,
          "internalType": "uint256",
          "name": "amount",
          "type": "uint256"
        }
      ],
      "name": "WithdrawalorUnstakeScheduled",
      "type": "event"
    },
    {
      "anonymous": false,
      "inputs": [
        {
          "indexed": true,
          "internalType": "address",
          "name": "token",
          "type": "address"
        },
        {
          "indexed": true,
          "internalType": "bool",
          "name": "whitelisted",
          "type": "bool"
        }
      ],
      "name": "tokenWhitelistUpdated",
      "type": "event"
    },
    {
      "inputs": [],
      "name": "beacon",
      "outputs": [
        {
          "internalType": "contract UpgradeableBeacon",
          "name": "",
          "type": "address"
        }
      ],
      "stateMutability": "view",
      "type": "function"
    },
    {
      "inputs": [],
      "name": "billPremiumForAll",
      "outputs": [
        {
          "internalType": "bool",
          "name": "",
          "type": "bool"
        }
      ],
      "stateMutability": "nonpayable",
      "type": "function"
    },
    {
      "inputs": [
        {
          "internalType": "string",
          "name": "_projectName",
          "type": "string"
        }
      ],
      "name": "billPremiumForOnePool",
      "outputs": [
        {
          "internalType": "bool",
          "name": "",
          "type": "bool"
        }
      ],
      "stateMutability": "nonpayable",
      "type": "function"
    },
    {
      "inputs": [
        {
          "internalType": "uint256",
          "name": "",
          "type": "uint256"
        }
      ],
      "name": "bountiesList",
      "outputs": [
        {
          "internalType": "string",
          "name": "projectName",
          "type": "string"
        },
        {
          "internalType": "address",
          "name": "projectWallet",
          "type": "address"
        },
        {
          "internalType": "contract BountyPool",
          "name": "proxyAddress",
          "type": "address"
        },
        {
          "internalType": "address",
          "name": "token",
          "type": "address"
        },
        {
          "internalType": "bool",
          "name": "dead",
          "type": "bool"
        }
      ],
      "stateMutability": "view",
      "type": "function"
    },
    {
      "inputs": [
        {
          "internalType": "string",
          "name": "",
          "type": "string"
        }
      ],
      "name": "bountyDetails",
      "outputs": [
        {
          "internalType": "string",
          "name": "projectName",
          "type": "string"
        },
        {
          "internalType": "address",
          "name": "projectWallet",
          "type": "address"
        },
        {
          "internalType": "contract BountyPool",
          "name": "proxyAddress",
          "type": "address"
        },
        {
          "internalType": "address",
          "name": "token",
          "type": "address"
        },
        {
          "internalType": "bool",
          "name": "dead",
          "type": "bool"
        }
      ],
      "stateMutability": "view",
      "type": "function"
    },
    {
      "inputs": [],
      "name": "bountyImplementation",
      "outputs": [
        {
          "internalType": "address",
          "name": "",
          "type": "address"
        }
      ],
      "stateMutability": "view",
      "type": "function"
    },
    {
      "inputs": [
        {
          "internalType": "string",
          "name": "_projectName",
          "type": "string"
        }
      ],
      "name": "claimPremium",
      "outputs": [
        {
          "internalType": "uint256",
          "name": "",
          "type": "uint256"
        }
      ],
      "stateMutability": "nonpayable",
      "type": "function"
    },
    {
      "inputs": [
        {
          "internalType": "bytes",
          "name": "_data",
          "type": "bytes"
        },
        {
          "internalType": "string",
          "name": "_projectName",
          "type": "string"
        },
        {
          "internalType": "address",
          "name": "_token",
          "type": "address"
        },
        {
          "internalType": "address",
          "name": "_projectWallet",
          "type": "address"
        }
      ],
      "name": "deployNewBounty",
      "outputs": [
        {
          "internalType": "contract BountyPool",
          "name": "",
          "type": "address"
        },
        {
          "internalType": "bool",
          "name": "",
          "type": "bool"
        }
      ],
      "stateMutability": "nonpayable",
      "type": "function"
    },
    {
      "inputs": [],
      "name": "factory",
      "outputs": [
        {
          "internalType": "contract BountyProxyFactory",
          "name": "",
          "type": "address"
        }
      ],
      "stateMutability": "view",
      "type": "function"
    },
    {
      "inputs": [
        {
          "internalType": "string",
          "name": "_projectName",
          "type": "string"
        }
      ],
      "name": "getBountyAddressByName",
      "outputs": [
        {
          "internalType": "address",
          "name": "",
          "type": "address"
        }
      ],
      "stateMutability": "view",
      "type": "function"
    },
    {
      "inputs": [
        {
          "internalType": "contract BountyProxyFactory",
          "name": "_factory",
          "type": "address"
        },
        {
          "internalType": "contract UpgradeableBeacon",
          "name": "_beacon",
          "type": "address"
        },
        {
          "internalType": "address",
          "name": "_bountyImplementation",
          "type": "address"
        }
      ],
      "name": "initialize",
      "outputs": [],
      "stateMutability": "nonpayable",
      "type": "function"
    },
    {
      "inputs": [
        {
          "internalType": "string",
          "name": "_projectName",
          "type": "string"
        }
      ],
      "name": "killBounty",
      "outputs": [
        {
          "internalType": "bool",
          "name": "",
          "type": "bool"
        }
      ],
      "stateMutability": "nonpayable",
      "type": "function"
    },
    {
      "inputs": [],
      "name": "owner",
      "outputs": [
        {
          "internalType": "address",
          "name": "",
          "type": "address"
        }
      ],
      "stateMutability": "view",
      "type": "function"
    },
    {
      "inputs": [
        {
          "internalType": "string",
          "name": "_projectName",
          "type": "string"
        },
        {
          "internalType": "address",
          "name": "_hunter",
          "type": "address"
        },
        {
          "internalType": "uint256",
          "name": "_amount",
          "type": "uint256"
        }
      ],
      "name": "payBounty",
      "outputs": [
        {
          "internalType": "bool",
          "name": "",
          "type": "bool"
        }
      ],
      "stateMutability": "nonpayable",
      "type": "function"
    },
    {
      "inputs": [
        {
          "internalType": "string",
          "name": "_projectName",
          "type": "string"
        },
        {
          "internalType": "uint256",
          "name": "_amount",
          "type": "uint256"
        }
      ],
      "name": "projectDeposit",
      "outputs": [
        {
          "internalType": "bool",
          "name": "",
          "type": "bool"
        }
      ],
      "stateMutability": "nonpayable",
      "type": "function"
    },
    {
      "inputs": [
        {
          "internalType": "string",
          "name": "_projectName",
          "type": "string"
        },
        {
          "internalType": "uint256",
          "name": "_amount",
          "type": "uint256"
        }
      ],
      "name": "projectDepositWithdrawal",
      "outputs": [
        {
          "internalType": "bool",
          "name": "",
          "type": "bool"
        }
      ],
      "stateMutability": "nonpayable",
      "type": "function"
    },
    {
      "inputs": [],
      "name": "proxiableUUID",
      "outputs": [
        {
          "internalType": "bytes32",
          "name": "",
          "type": "bytes32"
        }
      ],
      "stateMutability": "view",
      "type": "function"
    },
    {
      "inputs": [],
      "name": "renounceOwnership",
      "outputs": [],
      "stateMutability": "nonpayable",
      "type": "function"
    },
    {
      "inputs": [],
      "name": "saloonWallet",
      "outputs": [
        {
          "internalType": "contract SaloonWallet",
          "name": "",
          "type": "address"
        }
      ],
      "stateMutability": "view",
      "type": "function"
    },
    {
      "inputs": [
        {
          "internalType": "string",
          "name": "_projectName",
          "type": "string"
        },
        {
          "internalType": "uint256",
          "name": "_amount",
          "type": "uint256"
        }
      ],
      "name": "scheduleProjectDepositWithdrawal",
      "outputs": [
        {
          "internalType": "bool",
          "name": "",
          "type": "bool"
        }
      ],
      "stateMutability": "nonpayable",
      "type": "function"
    },
    {
      "inputs": [
        {
          "internalType": "string",
          "name": "_projectName",
          "type": "string"
        },
        {
          "internalType": "uint256",
          "name": "_amount",
          "type": "uint256"
        }
      ],
      "name": "scheduleUnstake",
      "outputs": [
        {
          "internalType": "bool",
          "name": "",
          "type": "bool"
        }
      ],
      "stateMutability": "nonpayable",
      "type": "function"
    },
    {
      "inputs": [
        {
          "internalType": "string",
          "name": "_projectName",
          "type": "string"
        },
        {
          "internalType": "uint256",
          "name": "_poolCap",
          "type": "uint256"
        },
        {
          "internalType": "uint256",
          "name": "_desiredAPY",
          "type": "uint256"
        }
      ],
      "name": "setBountyCapAndAPY",
      "outputs": [
        {
          "internalType": "bool",
          "name": "",
          "type": "bool"
        }
      ],
      "stateMutability": "nonpayable",
      "type": "function"
    },
    {
      "inputs": [
        {
          "internalType": "string",
          "name": "_projectName",
          "type": "string"
        },
        {
          "internalType": "uint256",
          "name": "_amount",
          "type": "uint256"
        }
      ],
      "name": "stake",
      "outputs": [
        {
          "internalType": "bool",
          "name": "",
          "type": "bool"
        }
      ],
      "stateMutability": "nonpayable",
      "type": "function"
    },
    {
      "inputs": [
        {
          "internalType": "address",
          "name": "",
          "type": "address"
        }
      ],
      "name": "tokenWhitelist",
      "outputs": [
        {
          "internalType": "bool",
          "name": "",
          "type": "bool"
        }
      ],
      "stateMutability": "view",
      "type": "function"
    },
    {
      "inputs": [
        {
          "internalType": "address",
          "name": "newOwner",
          "type": "address"
        }
      ],
      "name": "transferOwnership",
      "outputs": [],
      "stateMutability": "nonpayable",
      "type": "function"
    },
    {
      "inputs": [
        {
          "internalType": "string",
          "name": "_projectName",
          "type": "string"
        },
        {
          "internalType": "uint256",
          "name": "_amount",
          "type": "uint256"
        }
      ],
      "name": "unstake",
      "outputs": [
        {
          "internalType": "bool",
          "name": "",
          "type": "bool"
        }
      ],
      "stateMutability": "nonpayable",
      "type": "function"
    },
    {
      "inputs": [
        {
          "internalType": "address",
          "name": "_newImplementation",
          "type": "address"
        }
      ],
      "name": "updateBountyPoolImplementation",
      "outputs": [
        {
          "internalType": "bool",
          "name": "",
          "type": "bool"
        }
      ],
      "stateMutability": "nonpayable",
      "type": "function"
    },
    {
      "inputs": [
        {
          "internalType": "address",
          "name": "_newWallet",
          "type": "address"
        }
      ],
      "name": "updateSaloonWallet",
      "outputs": [],
      "stateMutability": "nonpayable",
      "type": "function"
    },
    {
      "inputs": [
        {
          "internalType": "address",
          "name": "_token",
          "type": "address"
        },
        {
          "internalType": "bool",
          "name": "_whitelisted",
          "type": "bool"
        }
      ],
      "name": "updateTokenWhitelist",
      "outputs": [
        {
          "internalType": "bool",
          "name": "",
          "type": "bool"
        }
      ],
      "stateMutability": "nonpayable",
      "type": "function"
    },
    {
      "inputs": [
        {
          "internalType": "address",
          "name": "newImplementation",
          "type": "address"
        }
      ],
      "name": "upgradeTo",
      "outputs": [],
      "stateMutability": "nonpayable",
      "type": "function"
    },
    {
      "inputs": [
        {
          "internalType": "address",
          "name": "newImplementation",
          "type": "address"
        },
        {
          "internalType": "bytes",
          "name": "data",
          "type": "bytes"
        }
      ],
      "name": "upgradeToAndCall",
      "outputs": [],
      "stateMutability": "payable",
      "type": "function"
    },
    {
      "inputs": [],
      "name": "viewAllBountiesByName",
      "outputs": [
        {
          "components": [
            {
              "internalType": "string",
              "name": "projectName",
              "type": "string"
            },
            {
              "internalType": "address",
              "name": "projectWallet",
              "type": "address"
            },
            {
              "internalType": "contract BountyPool",
              "name": "proxyAddress",
              "type": "address"
            },
            {
              "internalType": "address",
              "name": "token",
              "type": "address"
            },
            {
              "internalType": "bool",
              "name": "dead",
              "type": "bool"
            }
          ],
          "internalType": "struct BountyProxiesManager.Bounties[]",
          "name": "",
          "type": "tuple[]"
        }
      ],
      "stateMutability": "view",
      "type": "function"
    },
    {
      "inputs": [
        {
          "internalType": "string",
          "name": "_projectName",
          "type": "string"
        }
      ],
      "name": "viewBountyBalance",
      "outputs": [
        {
          "internalType": "uint256",
          "name": "",
          "type": "uint256"
        }
      ],
      "stateMutability": "view",
      "type": "function"
    },
    {
      "inputs": [
        {
          "internalType": "string",
          "name": "_projectName",
          "type": "string"
        }
      ],
      "name": "viewBountyInfo",
      "outputs": [
        {
          "internalType": "uint256",
          "name": "payout",
          "type": "uint256"
        },
        {
          "internalType": "uint256",
          "name": "apy",
          "type": "uint256"
        },
        {
          "internalType": "uint256",
          "name": "staked",
          "type": "uint256"
        },
        {
          "internalType": "uint256",
          "name": "poolCap",
          "type": "uint256"
        }
      ],
      "stateMutability": "view",
      "type": "function"
    },
    {
      "inputs": [
        {
          "internalType": "string",
          "name": "_projectName",
          "type": "string"
        }
      ],
      "name": "viewBountyOwner",
      "outputs": [
        {
          "internalType": "address",
          "name": "",
          "type": "address"
        }
      ],
      "stateMutability": "view",
      "type": "function"
    },
    {
      "inputs": [
        {
          "internalType": "string",
          "name": "_projectName",
          "type": "string"
        }
      ],
      "name": "viewDesiredAPY",
      "outputs": [
        {
          "internalType": "uint256",
          "name": "",
          "type": "uint256"
        }
      ],
      "stateMutability": "view",
      "type": "function"
    },
    {
      "inputs": [
        {
          "internalType": "string",
          "name": "_projectName",
          "type": "string"
        }
      ],
      "name": "viewHackerPayout",
      "outputs": [
        {
          "internalType": "uint256",
          "name": "",
          "type": "uint256"
        }
      ],
      "stateMutability": "view",
      "type": "function"
    },
    {
      "inputs": [
        {
          "internalType": "address",
          "name": "_token",
          "type": "address"
        },
        {
          "internalType": "address",
          "name": "_hunter",
          "type": "address"
        }
      ],
      "name": "viewHunterTotalTokenPayouts",
      "outputs": [
        {
          "internalType": "uint256",
          "name": "",
          "type": "uint256"
        }
      ],
      "stateMutability": "view",
      "type": "function"
    },
    {
      "inputs": [
        {
          "internalType": "string",
          "name": "_projectName",
          "type": "string"
        }
      ],
      "name": "viewPoolCap",
      "outputs": [
        {
          "internalType": "uint256",
          "name": "",
          "type": "uint256"
        }
      ],
      "stateMutability": "view",
      "type": "function"
    },
    {
      "inputs": [
        {
          "internalType": "string",
          "name": "_projectName",
          "type": "string"
        }
      ],
      "name": "viewProjectDeposit",
      "outputs": [
        {
          "internalType": "uint256",
          "name": "",
          "type": "uint256"
        }
      ],
      "stateMutability": "view",
      "type": "function"
    },
    {
      "inputs": [],
      "name": "viewSaloonBalance",
      "outputs": [
        {
          "internalType": "uint256",
          "name": "",
          "type": "uint256"
        }
      ],
      "stateMutability": "view",
      "type": "function"
    },
    {
      "inputs": [],
      "name": "viewTotalEarnedSaloon",
      "outputs": [
        {
          "internalType": "uint256",
          "name": "",
          "type": "uint256"
        }
      ],
      "stateMutability": "view",
      "type": "function"
    },
    {
      "inputs": [],
      "name": "viewTotalHackerPayouts",
      "outputs": [
        {
          "internalType": "uint256",
          "name": "",
          "type": "uint256"
        }
      ],
      "stateMutability": "view",
      "type": "function"
    },
    {
      "inputs": [],
      "name": "viewTotalPremiums",
      "outputs": [
        {
          "internalType": "uint256",
          "name": "",
          "type": "uint256"
        }
      ],
      "stateMutability": "view",
      "type": "function"
    },
    {
      "inputs": [],
      "name": "viewTotalSaloonCommission",
      "outputs": [
        {
          "internalType": "uint256",
          "name": "",
          "type": "uint256"
        }
      ],
      "stateMutability": "view",
      "type": "function"
    },
    {
      "inputs": [
        {
          "internalType": "string",
          "name": "_projectName",
          "type": "string"
        },
        {
          "internalType": "address",
          "name": "_staker",
          "type": "address"
        }
      ],
      "name": "viewUserStakingBalance",
      "outputs": [
        {
          "internalType": "uint256",
          "name": "",
          "type": "uint256"
        }
      ],
      "stateMutability": "view",
      "type": "function"
    },
    {
      "inputs": [
        {
          "internalType": "string",
          "name": "_projectName",
          "type": "string"
        }
      ],
      "name": "viewstakersDeposit",
      "outputs": [
        {
          "internalType": "uint256",
          "name": "",
          "type": "uint256"
        }
      ],
      "stateMutability": "view",
      "type": "function"
    },
    {
      "inputs": [
        {
          "internalType": "address",
          "name": "_token",
          "type": "address"
        },
        {
          "internalType": "address",
          "name": "_to",
          "type": "address"
        },
        {
          "internalType": "uint256",
          "name": "_amount",
          "type": "uint256"
        }
      ],
      "name": "withdrawSaloon",
      "outputs": [
        {
          "internalType": "bool",
          "name": "",
          "type": "bool"
        }
      ],
      "stateMutability": "nonpayable",
      "type": "function"
    },
    {
      "inputs": [],
      "name": "withdrawSaloonPremiumFees",
      "outputs": [
        {
          "internalType": "bool",
          "name": "",
          "type": "bool"
        }
      ],
      "stateMutability": "nonpayable",
      "type": "function"
    }
  ],
  "bytecode": {
    "object": "0x60a06040523060805234801561001457600080fd5b50608051614ebd61004c600039600081816114cd0152818161151601528181611aea01528181611b2a0152611bbd0152614ebd6000f3fe6080604052600436106102ae5760003560e01c80637f2f3e5e11610175578063c45a0155116100dc578063d7dc56a511610095578063e6b37f6f1161006f578063e6b37f6f14610884578063f0e6b4ed146108a4578063f2fde38b146108c4578063f4808fea146108e457600080fd5b8063d7dc56a51461082f578063e5125d7b1461084f578063e5e97c651461086457600080fd5b8063c45a01551461077a578063cae38faa1461079a578063d16ad2f7146107ba578063d3326a0a146107da578063d37c92dc146107ef578063d3c15cdb1461080f57600080fd5b8063a667b5d01161012e578063a667b5d0146106c5578063b8047881146106e5578063b91cdea714610705578063bc16076114610725578063c0c53b8b14610745578063c31495901461076557600080fd5b80637f2f3e5e146105e15780638da5cb5b14610612578063943eb4f2146106305780639494c8ae146106705780639ca7e78714610690578063a0d07125146106b057600080fd5b80634f1ef2861161021957806366b6c647116101d257806366b6c6471461052757806368dd3dbf146105475780636c94853514610567578063715018a61461057c578063753d75631461059157806379f99a89146105c157600080fd5b80634f1ef2861461047f57806352d1902d1461049257806353dce856146104a757806358b07d5b146104c757806359659e90146104e7578063666b70301461050757600080fd5b806327e735421161026b57806327e73542146103915780633659cfe6146103a657806337787926146103c85780633ef0c3ed146104005780634389e41a146104205780634c0d9a6c1461044057600080fd5b806303c46f51146102b357806305234fda146102de5780630e0602491461030c5780630f0df1711461033157806315daef49146103515780632158032214610371575b600080fd5b3480156102bf57600080fd5b506102c8610904565b6040516102d59190614639565b60405180910390f35b3480156102ea57600080fd5b506102fe6102f9366004614783565b610a3a565b6040519081526020016102d5565b34801561031857600080fd5b50610321610bac565b60405190151581526020016102d5565b34801561033d57600080fd5b506102fe61034c366004614783565b610ed1565b34801561035d57600080fd5b506102fe61036c3660046147cd565b611018565b34801561037d57600080fd5b506102fe61038c36600461481f565b611193565b34801561039d57600080fd5b506103216111e6565b3480156103b257600080fd5b506103c66103c136600461484d565b6114c2565b005b3480156103d457600080fd5b506103e86103e3366004614783565b6115ab565b6040516001600160a01b0390911681526020016102d5565b34801561040c57600080fd5b506102fe61041b366004614783565b6115df565b34801561042c57600080fd5b506068546103e8906001600160a01b031681565b34801561044c57600080fd5b5061046061045b36600461486a565b611729565b604080516001600160a01b0390931683529015156020830152016102d5565b6103c661048d3660046148f3565b611adf565b34801561049e57600080fd5b506102fe611bb0565b3480156104b357600080fd5b506103216104c236600461484d565b611c63565b3480156104d357600080fd5b506103216104e2366004614943565b611d4d565b3480156104f357600080fd5b506066546103e8906001600160a01b031681565b34801561051357600080fd5b506102fe610522366004614783565b611fe0565b34801561053357600080fd5b506103e8610542366004614783565b6121a3565b34801561055357600080fd5b50610321610562366004614991565b6121d7565b34801561057357600080fd5b506102fe61247f565b34801561058857600080fd5b506103c66124f2565b34801561059d57600080fd5b506103216105ac36600461484d565b606b6020526000908152604090205460ff1681565b3480156105cd57600080fd5b506103c66105dc36600461484d565b612506565b3480156105ed57600080fd5b506106016105fc3660046149d6565b61257d565b6040516102d59594939291906149ef565b34801561061e57600080fd5b506033546001600160a01b03166103e8565b34801561063c57600080fd5b5061065061064b366004614783565b612661565b6040805194855260208501939093529183015260608201526080016102d5565b34801561067c57600080fd5b5061032161068b366004614991565b61269a565b34801561069c57600080fd5b506103216106ab366004614783565b6129c3565b3480156106bc57600080fd5b506102fe612a4f565b3480156106d157600080fd5b506102fe6106e0366004614783565b612a99565b3480156106f157600080fd5b50610321610700366004614991565b612be0565b34801561071157600080fd5b506102fe610720366004614783565b612e03565b34801561073157600080fd5b50610321610740366004614a35565b612f4a565b34801561075157600080fd5b506103c6610760366004614a8f565b6131d0565b34801561077157600080fd5b506102fe613321565b34801561078657600080fd5b506065546103e8906001600160a01b031681565b3480156107a657600080fd5b506067546103e8906001600160a01b031681565b3480156107c657600080fd5b506103216107d5366004614991565b61336b565b3480156107e657600080fd5b506102fe613566565b3480156107fb57600080fd5b5061032161080a366004614991565b6135b0565b34801561081b57600080fd5b506102fe61082a366004614783565b6138e6565b34801561083b57600080fd5b5061060161084a366004614783565b613a2d565b34801561085b57600080fd5b506102fe613a53565b34801561087057600080fd5b5061032161087f366004614ae8565b613a9d565b34801561089057600080fd5b5061032161089f366004614783565b613b00565b3480156108b057600080fd5b506103216108bf366004614b16565b613c96565b3480156108d057600080fd5b506103c66108df36600461484d565b613d9d565b3480156108f057600080fd5b506103216108ff366004614991565b613e13565b60606069805480602002602001604051908101604052809291908181526020016000905b82821015610a3157838290600052602060002090600402016040518060a001604052908160008201805461095b90614b46565b80601f016020809104026020016040519081016040528092919081815260200182805461098790614b46565b80156109d45780601f106109a9576101008083540402835291602001916109d4565b820191906000526020600020905b8154815290600101906020018083116109b757829003601f168201915b50505091835250506001828101546001600160a01b039081166020808501919091526002850154821660408501526003909401549081166060840152600160a01b900460ff16151560809092019190915291835292019101610928565b50505050905090565b600080606a83604051610a4d9190614b81565b90815260200160405180910390206040518060a0016040529081600082018054610a7690614b46565b80601f0160208091040260200160405190810160405280929190818152602001828054610aa290614b46565b8015610aef5780601f10610ac457610100808354040283529160200191610aef565b820191906000526020600020905b815481529060010190602001808311610ad257829003601f168201915b505050918352505060018201546001600160a01b03908116602080840191909152600284015482166040808501919091526003909401548083166060850152600160a01b900460ff161515608090930192909252838301518351637228407360e11b81529351949550169263e45080e69260048082019392918290030181865afa158015610b81573d6000803e3d6000fd5b505050506040513d601f19601f82011682018060405250810190610ba59190614b9d565b9392505050565b6000610bb661406d565b60006069805480602002602001604051908101604052809291908181526020016000905b82821015610ce357838290600052602060002090600402016040518060a0016040529081600082018054610c0d90614b46565b80601f0160208091040260200160405190810160405280929190818152602001828054610c3990614b46565b8015610c865780601f10610c5b57610100808354040283529160200191610c86565b820191906000526020600020905b815481529060010190602001808311610c6957829003601f168201915b50505091835250506001828101546001600160a01b039081166020808501919091526002850154821660408501526003909401549081166060840152600160a01b900460ff16151560809092019190915291835292019101610bda565b5050505090506000815190506000805b82811015610e9b57610d21848281518110610d1057610d10614bb6565b6020026020010151608001516140c7565b610d2a57610e8b565b6000848281518110610d3e57610d3e614bb6565b6020026020010151604001516001600160a01b0316635121ac9d868481518110610d6a57610d6a614bb6565b60209081029190910101516060015160685460405160e084901b6001600160e01b03191681526001600160a01b039283166004820152911660248201526044016020604051808303816000875af1158015610dc9573d6000803e3d6000fd5b505050506040513d601f19601f82011682018060405250810190610ded9190614b9d565b60685486519192506001600160a01b0316906383ab930490879085908110610e1757610e17614bb6565b602002602001015160600151836040518363ffffffff1660e01b8152600401610e559291906001600160a01b03929092168252602082015260400190565b600060405180830381600087803b158015610e6f57600080fd5b505af1158015610e83573d6000803e3d6000fd5b509294505050505b610e9481614be2565b9050610cf3565b5060405181907ff61dcc40e5f2c6bc5b24cb6f24690965e673c4c563bbf94cbbdaff36bffde00b90600090a26001935050505090565b600080606a83604051610ee49190614b81565b90815260200160405180910390206040518060a0016040529081600082018054610f0d90614b46565b80601f0160208091040260200160405190810160405280929190818152602001828054610f3990614b46565b8015610f865780601f10610f5b57610100808354040283529160200191610f86565b820191906000526020600020905b815481529060010190602001808311610f6957829003601f168201915b505050918352505060018201546001600160a01b03908116602080840191909152600284015482166040808501919091526003909401548083166060850152600160a01b900460ff161515608090930192909252838301518351634a94bcb360e01b815293519495501692634a94bcb39260048082019392918290030181865afa158015610b81573d6000803e3d6000fd5b600080606a8460405161102b9190614b81565b90815260200160405180910390206040518060a001604052908160008201805461105490614b46565b80601f016020809104026020016040519081016040528092919081815260200182805461108090614b46565b80156110cd5780601f106110a2576101008083540402835291602001916110cd565b820191906000526020600020905b8154815290600101906020018083116110b057829003601f168201915b505050918352505060018201546001600160a01b039081166020830152600283015481166040808401919091526003909301548082166060840152600160a01b900460ff161515608090920191909152828201519151631a89cabd60e01b81528682166004820152929350600092911690631a89cabd906024016040805180830381865afa158015611163573d6000803e3d6000fd5b505050506040513d601f19601f820116820180604052508101906111879190614bfd565b50925050505b92915050565b6068546040516310ac019160e11b81526001600160a01b03848116600483015283811660248301526000921690632158032290604401602060405180830381865afa158015610b81573d6000803e3d6000fd5b6000806069805480602002602001604051908101604052809291908181526020016000905b8282101561131457838290600052602060002090600402016040518060a001604052908160008201805461123e90614b46565b80601f016020809104026020016040519081016040528092919081815260200182805461126a90614b46565b80156112b75780601f1061128c576101008083540402835291602001916112b7565b820191906000526020600020905b81548152906001019060200180831161129a57829003601f168201915b50505091835250506001828101546001600160a01b039081166020808501919091526002850154821660408501526003909401549081166060840152600160a01b900460ff1615156080909201919091529183529201910161120b565b5050825192935060009150505b818110156114b85761133e838281518110610d1057610d10614bb6565b611347576114a8565b82818151811061135957611359614bb6565b6020026020010151604001516001600160a01b0316638aa82e8284838151811061138557611385614bb6565b6020026020010151606001518584815181106113a3576113a3614bb6565b6020026020010151602001516040518363ffffffff1660e01b81526004016113e19291906001600160a01b0392831681529116602082015260400190565b6020604051808303816000875af1158015611400573d6000803e3d6000fd5b505050506040513d601f19601f820116820180604052508101906114249190614c21565b5082818151811061143757611437614bb6565b6020026020010151602001516001600160a01b031683828151811061145e5761145e614bb6565b6020026020010151600001516040516114779190614b81565b604051908190038120907fd5d2d05dfe0d10d196c53d6f16e6d70e4dbb9cb77fe8682f6c68e9426c29103090600090a35b6114b181614be2565b9050611321565b5060019250505090565b306001600160a01b037f00000000000000000000000000000000000000000000000000000000000000001614156115145760405162461bcd60e51b815260040161150b90614c3e565b60405180910390fd5b7f00000000000000000000000000000000000000000000000000000000000000006001600160a01b031661155d600080516020614e41833981519152546001600160a01b031690565b6001600160a01b0316146115835760405162461bcd60e51b815260040161150b90614c8a565b61158c816140de565b604080516000808252602082019092526115a8918391906140e6565b50565b6000606a826040516115bd9190614b81565b908152604051908190036020019020600101546001600160a01b031692915050565b600080606a836040516115f29190614b81565b90815260200160405180910390206040518060a001604052908160008201805461161b90614b46565b80601f016020809104026020016040519081016040528092919081815260200182805461164790614b46565b80156116945780601f1061166957610100808354040283529160200191611694565b820191906000526020600020905b81548152906001019060200180831161167757829003601f168201915b505050918352505060018201546001600160a01b03908116602080840191909152600284015482166040808501919091526003909401548083166060850152600160a01b900460ff16151560809093019290925283830151835160016202e8ad60e61b031981529351949550169263ff45d4c09260048082019392918290030181865afa158015610b81573d6000803e3d6000fd5b60008061173461406d565b60006001600160a01b0316606a8660405161174f9190614b81565b908152604051908190036020019020600201546001600160a01b0316146117b85760405162461bcd60e51b815260206004820152601a60248201527f50726f6a65637420616c72656164792068617320626f756e7479000000000000604482015260640161150b565b6001600160a01b0384166000908152606b602052604090205460ff16151560011461181a5760405162461bcd60e51b8152602060048201526012602482015271151bdad95b881b9bdd08185c1c1c9bdd995960721b604482015260640161150b565b6040805160a0810182526000818301819052608082018190528782526001600160a01b038681166020840152878116606084015260655460665494516336d9881760e01b815293949293908216926336d988179261187f929116908c90600401614cd6565b6020604051808303816000875af115801561189e573d6000803e3d6000fd5b505050506040513d601f19601f820116820180604052508101906118c29190614cfa565b604051634b8e0d3760e01b81523060048201529091506001600160a01b03821690634b8e0d3790602401600060405180830381600087803b15801561190657600080fd5b505af115801561191a573d6000803e3d6000fd5b5050506001600160a01b038216604084015250606980546001810182556000919091528251805184926004027f7fb4302e8e91f9110a6554c2c0a24601252c2a42c2220ca988efcfe399914308019161197891839160200190614548565b5060208201516001820180546001600160a01b039283166001600160a01b03199182161790915560408085015160028501805491851691909316179091556060840151600390930180546080909501511515600160a01b026001600160a81b0319909516939092169290921792909217909155518290606a906119fc908a90614b81565b90815260200160405180910390206000820151816000019080519060200190611a26929190614548565b506020828101516001830180546001600160a01b039283166001600160a01b03199182161790915560408086015160028601805491851691909316179091556060850151600390940180546080909601511515600160a01b026001600160a81b03199096169483169490941794909417909255915183821681529087169133917fa397122091ddbad4417c188353200f86978770ea6a146a5860667b1ef760917c910160405180910390a3976001975095505050505050565b306001600160a01b037f0000000000000000000000000000000000000000000000000000000000000000161415611b285760405162461bcd60e51b815260040161150b90614c3e565b7f00000000000000000000000000000000000000000000000000000000000000006001600160a01b0316611b71600080516020614e41833981519152546001600160a01b031690565b6001600160a01b031614611b975760405162461bcd60e51b815260040161150b90614c8a565b611ba0826140de565b611bac828260016140e6565b5050565b6000306001600160a01b037f00000000000000000000000000000000000000000000000000000000000000001614611c505760405162461bcd60e51b815260206004820152603860248201527f555550535570677261646561626c653a206d757374206e6f742062652063616c60448201527f6c6564207468726f7567682064656c656761746563616c6c0000000000000000606482015260840161150b565b50600080516020614e4183398151915290565b6000611c6d61406d565b6001600160a01b038216611cb25760405162461bcd60e51b815260206004820152600c60248201526b41646472657373207a65726f60a01b604482015260640161150b565b606654604051631b2ce7f360e11b81526001600160a01b03848116600483015290911690633659cfe690602401600060405180830381600087803b158015611cf957600080fd5b505af1158015611d0d573d6000803e3d6000fd5b50506040516001600160a01b03851692507f8351bb7d88cde824de55ae548c81488c9bea6ad24cafb7644e7df7ac0cfcb46c9150600090a2506001919050565b600080606a85604051611d609190614b81565b90815260200160405180910390206040518060a0016040529081600082018054611d8990614b46565b80601f0160208091040260200160405190810160405280929190818152602001828054611db590614b46565b8015611e025780601f10611dd757610100808354040283529160200191611e02565b820191906000526020600020905b815481529060010190602001808311611de557829003601f168201915b505050918352505060018201546001600160a01b0390811660208301526002830154811660408301526003909201549182166060820152600160a01b90910460ff161515608091820152810151909150611e5b906140c7565b1515600114611e7c5760405162461bcd60e51b815260040161150b90614d17565b80602001516001600160a01b0316336001600160a01b031614611eb15760405162461bcd60e51b815260040161150b90614d3f565b80604001516001600160a01b031663d835f535856040518263ffffffff1660e01b8152600401611ee391815260200190565b600060405180830381600087803b158015611efd57600080fd5b505af1158015611f11573d6000803e3d6000fd5b50505060408083015160608401516020850151925163cc12c31160e01b81526001600160a01b03909216935063cc12c31192611f51928890600401614d6a565b6020604051808303816000875af1158015611f70573d6000803e3d6000fd5b505050506040513d601f19601f82011682018060405250810190611f949190614c21565b50828486604051611fa59190614b81565b604051908190038120907f5d9beb4943b1823a8d5ffbc059a5d64cf367d9b7aaee9e28a697b842779957d890600090a4506001949350505050565b600080606a83604051611ff39190614b81565b90815260200160405180910390206040518060a001604052908160008201805461201c90614b46565b80601f016020809104026020016040519081016040528092919081815260200182805461204890614b46565b80156120955780601f1061206a57610100808354040283529160200191612095565b820191906000526020600020905b81548152906001019060200180831161207857829003601f168201915b505050918352505060018201546001600160a01b0390811660208301526002830154811660408301526003909201549182166060820152600160a01b90910460ff1615156080918201528101519091506120ee906140c7565b151560011461210f5760405162461bcd60e51b815260040161150b90614d17565b6040808201516060830151602084015192516303065f4560e41b81526001600160a01b0391821660048201523360248201529281166044840152600092911690633065f4509060640160408051808303816000875af1158015612176573d6000803e3d6000fd5b505050506040513d601f19601f8201168201806040525081019061219a9190614d8e565b50949350505050565b6000606a826040516121b59190614b81565b908152604051908190036020019020600201546001600160a01b031692915050565b600080606a846040516121ea9190614b81565b90815260200160405180910390206040518060a001604052908160008201805461221390614b46565b80601f016020809104026020016040519081016040528092919081815260200182805461223f90614b46565b801561228c5780601f106122615761010080835404028352916020019161228c565b820191906000526020600020905b81548152906001019060200180831161226f57829003601f168201915b505050918352505060018201546001600160a01b0390811660208301526002830154811660408301526003909201549182166060820152600160a01b90910460ff1615156080918201528101519091506122e5906140c7565b15156001146123065760405162461bcd60e51b815260040161150b90614d17565b80602001516001600160a01b0316336001600160a01b03161461233b5760405162461bcd60e51b815260040161150b90614d3f565b600081604001516001600160a01b0316634a94bcb36040518163ffffffff1660e01b8152600401602060405180830381865afa15801561237f573d6000803e3d6000fd5b505050506040513d601f19601f820116820180604052508101906123a39190614b9d565b905081604001516001600160a01b031663419b7bd783606001518460200151876040518463ffffffff1660e01b81526004016123e193929190614d6a565b6020604051808303816000875af1158015612400573d6000803e3d6000fd5b505050506040513d601f19601f820116820180604052508101906124249190614c21565b5060006124318583614db3565b90508082876040516124439190614b81565b604051908190038120907f4263aad47889a1b6d47c62c4329f18cb38e94cb40ac428c5212a224262e39d7b90600090a450600195945050505050565b60685460408051636c94853560e01b815290516000926001600160a01b031691636c9485359160048083019260209291908290030181865afa1580156124c9573d6000803e3d6000fd5b505050506040513d601f19601f820116820180604052508101906124ed9190614b9d565b905090565b6124fa61406d565b6125046000614256565b565b61250e61406d565b6001600160a01b03811661255b5760405162461bcd60e51b8152602060048201526014602482015273416464726573732063616e74206265207a65726f60601b604482015260640161150b565b606880546001600160a01b0319166001600160a01b0392909216919091179055565b6069818154811061258d57600080fd5b90600052602060002090600402016000915090508060000180546125b090614b46565b80601f01602080910402602001604051908101604052809291908181526020018280546125dc90614b46565b80156126295780601f106125fe57610100808354040283529160200191612629565b820191906000526020600020905b81548152906001019060200180831161260c57829003601f168201915b505050506001830154600284015460039094015492936001600160a01b0391821693908216925090811690600160a01b900460ff1685565b60008060008061267085610ed1565b935061267b85612e03565b915061268685612a99565b9250612691856115df565b90509193509193565b600080606a846040516126ad9190614b81565b90815260200160405180910390206040518060a00160405290816000820180546126d690614b46565b80601f016020809104026020016040519081016040528092919081815260200182805461270290614b46565b801561274f5780601f106127245761010080835404028352916020019161274f565b820191906000526020600020905b81548152906001019060200180831161273257829003601f168201915b505050918352505060018201546001600160a01b0390811660208301526002830154811660408301526003909201549182166060820152600160a01b90910460ff1615156080918201528101519091506127a8906140c7565b15156001146127c95760405162461bcd60e51b815260040161150b90614d17565b600081604001516001600160a01b0316634a94bcb36040518163ffffffff1660e01b8152600401602060405180830381865afa15801561280d573d6000803e3d6000fd5b505050506040513d601f19601f820116820180604052508101906128319190614b9d565b9050600082604001516001600160a01b03166316e17b8d6040518163ffffffff1660e01b8152600401602060405180830381865afa158015612877573d6000803e3d6000fd5b505050506040513d601f19601f8201168201806040525081019061289b9190614b9d565b6040808501516060860151915163bf6eac2f60e01b81529293506001600160a01b03169163bf6eac2f916128d59133908a90600401614d6a565b6020604051808303816000875af11580156128f4573d6000803e3d6000fd5b505050506040513d601f19601f820116820180604052508101906129189190614c21565b5060006129258684614dca565b905060006129338784614dca565b90508083896040516129459190614b81565b604051908190038120907f8834bcade58122eb5594c97d7d46171dc644983fafc2663e6728a6eb925a18ba90600090a48184896040516129859190614b81565b604051908190038120907f4263aad47889a1b6d47c62c4329f18cb38e94cb40ac428c5212a224262e39d7b90600090a4506001979650505050505050565b60006129cd61406d565b6001606a836040516129df9190614b81565b9081526040519081900360200181206003018054921515600160a01b0260ff60a01b1990931692909217909155612a17908390614b81565b604051908190038120907f064c50721c2d6a8dde5fa7e23659e4df58c910897f7b98ca5b9a940038645cc890600090a2506001919050565b6068546040805163a0d0712560e01b815290516000926001600160a01b03169163a0d071259160048083019260209291908290030181865afa1580156124c9573d6000803e3d6000fd5b600080606a83604051612aac9190614b81565b90815260200160405180910390206040518060a0016040529081600082018054612ad590614b46565b80601f0160208091040260200160405190810160405280929190818152602001828054612b0190614b46565b8015612b4e5780601f10612b2357610100808354040283529160200191612b4e565b820191906000526020600020905b815481529060010190602001808311612b3157829003601f168201915b505050918352505060018201546001600160a01b03908116602080840191909152600284015482166040808501919091526003909401548083166060850152600160a01b900460ff1615156080909301929092528383015183516378eb46fd60e01b8152935194955016926378eb46fd9260048082019392918290030181865afa158015610b81573d6000803e3d6000fd5b600080606a84604051612bf39190614b81565b90815260200160405180910390206040518060a0016040529081600082018054612c1c90614b46565b80601f0160208091040260200160405190810160405280929190818152602001828054612c4890614b46565b8015612c955780601f10612c6a57610100808354040283529160200191612c95565b820191906000526020600020905b815481529060010190602001808311612c7857829003601f168201915b505050918352505060018201546001600160a01b0390811660208301526002830154811660408301526003909201549182166060820152600160a01b90910460ff161515608091820152810151909150612cee906140c7565b1515600114612d0f5760405162461bcd60e51b815260040161150b90614d17565b80602001516001600160a01b0316336001600160a01b031614612d445760405162461bcd60e51b815260040161150b90614d3f565b80604001516001600160a01b0316634b5df6cc846040518263ffffffff1660e01b8152600401612d7691815260200190565b6020604051808303816000875af1158015612d95573d6000803e3d6000fd5b505050506040513d601f19601f82011682018060405250810190612db99190614c21565b508284604051612dc99190614b81565b604051908190038120907f0e6ef9b3f0bcbf52c4ddbfdfb70f52e00c6083b9d5f795123d4e753ac4f82d3990600090a35060019392505050565b600080606a83604051612e169190614b81565b90815260200160405180910390206040518060a0016040529081600082018054612e3f90614b46565b80601f0160208091040260200160405190810160405280929190818152602001828054612e6b90614b46565b8015612eb85780601f10612e8d57610100808354040283529160200191612eb8565b820191906000526020600020905b815481529060010190602001808311612e9b57829003601f168201915b505050918352505060018201546001600160a01b03908116602080840191909152600284015482166040808501919091526003909401548083166060850152600160a01b900460ff1615156080909301929092528383015183516316e17b8d60e01b8152935194955016926316e17b8d9260048082019392918290030181865afa158015610b81573d6000803e3d6000fd5b6000612f5461406d565b612f8a606a85604051612f679190614b81565b9081526040519081900360200190206003015460ff600160a01b909104166140c7565b1515600114612fab5760405162461bcd60e51b815260040161150b90614d17565b6001600160a01b038316612ff55760405162461bcd60e51b815260206004820152601160248201527048756e746572206164647265737328302960781b604482015260640161150b565b606a846040516130059190614b81565b908152604051908190036020018120600201546001600160a01b0316906373927c1190606a90613036908890614b81565b908152604051908190036020018120600301546068546001600160e01b031960e085901b1683526001600160a01b0391821660048401528116602483015286166044820152606481018590526084016020604051808303816000875af11580156130a4573d6000803e3d6000fd5b505050506040513d601f19601f820116820180604052508101906130c89190614c21565b506068546040516001600160a01b039091169063d16cfcc190606a906130ef908890614b81565b908152604051908190036020018120600301546001600160e01b031960e084901b16825261312f916001600160a01b039091169087908790600401614d6a565b600060405180830381600087803b15801561314957600080fd5b505af115801561315d573d6000803e3d6000fd5b5050505081836001600160a01b0316427fc94856745b23bcaffb2e3755abe04f2ee7cf7047605058b72c2f1cb3e58d5c43606a8860405161319e9190614b81565b90815260405160209181900382018120600301546001600160a01b031681520160405180910390a45060019392505050565b600054610100900460ff16158080156131f05750600054600160ff909116105b8061320a5750303b15801561320a575060005460ff166001145b61326d5760405162461bcd60e51b815260206004820152602e60248201527f496e697469616c697a61626c653a20636f6e747261637420697320616c72656160448201526d191e481a5b9a5d1a585b1a5e995960921b606482015260840161150b565b6000805460ff191660011790558015613290576000805461ff0019166101001790555b606580546001600160a01b038087166001600160a01b0319928316179092556066805486841690831617905560678054928516929091169190911790556132d56142a8565b801561331b576000805461ff0019169055604051600181527f7f26b83ff96e1f2b6a682f133852f6798a09c465da95921460cefb38474024989060200160405180910390a15b50505050565b60685460408051630c31495960e41b815290516000926001600160a01b03169163c31495909160048083019260209291908290030181865afa1580156124c9573d6000803e3d6000fd5b600080606a8460405161337e9190614b81565b90815260200160405180910390206040518060a00160405290816000820180546133a790614b46565b80601f01602080910402602001604051908101604052809291908181526020018280546133d390614b46565b80156134205780601f106133f557610100808354040283529160200191613420565b820191906000526020600020905b81548152906001019060200180831161340357829003601f168201915b505050918352505060018201546001600160a01b0390811660208301526002830154811660408301526003909201549182166060820152600160a01b90910460ff161515608091820152810151909150613479906140c7565b151560011461349a5760405162461bcd60e51b815260040161150b90614d17565b60408082015190516363c877c160e11b8152336004820152602481018590526001600160a01b039091169063c790ef82906044016020604051808303816000875af11580156134ed573d6000803e3d6000fd5b505050506040513d601f19601f820116820180604052508101906135119190614c21565b1561355f5782846040516135259190614b81565b604051908190038120907f0e6ef9b3f0bcbf52c4ddbfdfb70f52e00c6083b9d5f795123d4e753ac4f82d3990600090a3600191505061118d565b5092915050565b60685460408051636999350560e11b815290516000926001600160a01b03169163d3326a0a9160048083019260209291908290030181865afa1580156124c9573d6000803e3d6000fd5b600080606a846040516135c39190614b81565b90815260200160405180910390206040518060a00160405290816000820180546135ec90614b46565b80601f016020809104026020016040519081016040528092919081815260200182805461361890614b46565b80156136655780601f1061363a57610100808354040283529160200191613665565b820191906000526020600020905b81548152906001019060200180831161364857829003601f168201915b505050918352505060018201546001600160a01b0390811660208301526002830154811660408301526003909201549182166060820152600160a01b90910460ff1615156080918201528101519091506136be906140c7565b15156001146136df5760405162461bcd60e51b815260040161150b90614d17565b600081604001516001600160a01b0316634a94bcb36040518163ffffffff1660e01b8152600401602060405180830381865afa158015613723573d6000803e3d6000fd5b505050506040513d601f19601f820116820180604052508101906137479190614b9d565b9050600082604001516001600160a01b03166316e17b8d6040518163ffffffff1660e01b8152600401602060405180830381865afa15801561378d573d6000803e3d6000fd5b505050506040513d601f19601f820116820180604052508101906137b19190614b9d565b604080850151606086015191516330414fc560e11b81529293506001600160a01b0316916360829f8a916137eb9133908a90600401614d6a565b6020604051808303816000875af115801561380a573d6000803e3d6000fd5b505050506040513d601f19601f8201168201806040525081019061382e9190614c21565b156138dd57600061383f8684614db3565b9050600061384d8784614db3565b905080838960405161385f9190614b81565b604051908190038120907f8834bcade58122eb5594c97d7d46171dc644983fafc2663e6728a6eb925a18ba90600090a481848960405161389f9190614b81565b604051908190038120907f4263aad47889a1b6d47c62c4329f18cb38e94cb40ac428c5212a224262e39d7b90600090a460019550505050505061118d565b50505092915050565b600080606a836040516138f99190614b81565b90815260200160405180910390206040518060a001604052908160008201805461392290614b46565b80601f016020809104026020016040519081016040528092919081815260200182805461394e90614b46565b801561399b5780601f106139705761010080835404028352916020019161399b565b820191906000526020600020905b81548152906001019060200180831161397e57829003601f168201915b505050918352505060018201546001600160a01b03908116602080840191909152600284015482166040808501919091526003909401548083166060850152600160a01b900460ff16151560809093019290925283830151835163383639b360e01b81529351949550169263383639b39260048082019392918290030181865afa158015610b81573d6000803e3d6000fd5b8051602081830181018051606a825292820191909301209152805481906125b090614b46565b6068546040805163e5125d7b60e01b815290516000926001600160a01b03169163e5125d7b9160048083019260209291908290030181865afa1580156124c9573d6000803e3d6000fd5b6000613aa761406d565b6001600160a01b0383166000818152606b6020526040808220805460ff191686151590811790915590519092917f99795d51e5a8804307721456a7a9c2f0d7421f719d46a46d36e91fee7c85aa7691a350600192915050565b6000613b15606a83604051612f679190614b81565b1515600114613b365760405162461bcd60e51b815260040161150b90614d17565b606a82604051613b469190614b81565b908152604051908190036020018120600201546001600160a01b031690638aa82e8290606a90613b77908690614b81565b908152604051908190036020018120600301546001600160a01b031690606a90613ba2908790614b81565b908152604051908190036020018120600101546001600160e01b031960e085901b1682526001600160a01b0392831660048301529190911660248201526044016020604051808303816000875af1158015613c01573d6000803e3d6000fd5b505050506040513d601f19601f82011682018060405250810190613c259190614c21565b50606a82604051613c369190614b81565b908152604051908190036020018120600101546001600160a01b031690613c5e908490614b81565b604051908190038120907fd5d2d05dfe0d10d196c53d6f16e6d70e4dbb9cb77fe8682f6c68e9426c29103090600090a3506001919050565b6000613ca061406d565b6001600160a01b038316613ce55760405162461bcd60e51b815260206004820152600c60248201526b41646472657373205a65726f60a01b604482015260640161150b565b606854604051630be5e47b60e11b81526001600160a01b03909116906317cbc8f690613d1990879087908790600401614d6a565b6020604051808303816000875af1158015613d38573d6000803e3d6000fd5b505050506040513d601f19601f82011682018060405250810190613d5c9190614c21565b5060405182906001600160a01b038616907f189e21cdbf554d2e7158d144a91a275ae2145eaf20b9697ea962df4fba6462c390600090a35060019392505050565b613da561406d565b6001600160a01b038116613e0a5760405162461bcd60e51b815260206004820152602660248201527f4f776e61626c653a206e6577206f776e657220697320746865207a65726f206160448201526564647265737360d01b606482015260840161150b565b6115a881614256565b600080606a84604051613e269190614b81565b90815260200160405180910390206040518060a0016040529081600082018054613e4f90614b46565b80601f0160208091040260200160405190810160405280929190818152602001828054613e7b90614b46565b8015613ec85780601f10613e9d57610100808354040283529160200191613ec8565b820191906000526020600020905b815481529060010190602001808311613eab57829003601f168201915b505050918352505060018201546001600160a01b0390811660208301526002830154811660408301526003909201549182166060820152600160a01b90910460ff161515608091820152810151909150613f21906140c7565b1515600114613f425760405162461bcd60e51b815260040161150b90614d17565b600081604001516001600160a01b0316634a94bcb36040518163ffffffff1660e01b8152600401602060405180830381865afa158015613f86573d6000803e3d6000fd5b505050506040513d601f19601f82011682018060405250810190613faa9190614b9d565b905081602001516001600160a01b0316336001600160a01b031614613fe15760405162461bcd60e51b815260040161150b90614d3f565b81604001516001600160a01b0316633147096d83606001518460200151876040518463ffffffff1660e01b815260040161401d93929190614d6a565b6020604051808303816000875af115801561403c573d6000803e3d6000fd5b505050506040513d601f19601f820116820180604052508101906140609190614c21565b5060006124318583614dca565b6033546001600160a01b031633146125045760405162461bcd60e51b815260206004820181905260248201527f4f776e61626c653a2063616c6c6572206973206e6f7420746865206f776e6572604482015260640161150b565b600081156140d657600061118d565b600192915050565b6115a861406d565b7f4910fdfa16fed3260ed0e7147f7cc6da11a60208b5b9406d12a635614ffd91435460ff161561411e57614119836142d7565b505050565b826001600160a01b03166352d1902d6040518163ffffffff1660e01b8152600401602060405180830381865afa925050508015614178575060408051601f3d908101601f1916820190925261417591810190614b9d565b60015b6141db5760405162461bcd60e51b815260206004820152602e60248201527f45524331393637557067726164653a206e657720696d706c656d656e7461746960448201526d6f6e206973206e6f74205555505360901b606482015260840161150b565b600080516020614e41833981519152811461424a5760405162461bcd60e51b815260206004820152602960248201527f45524331393637557067726164653a20756e737570706f727465642070726f786044820152681a58589b195555525160ba1b606482015260840161150b565b50614119838383614373565b603380546001600160a01b038381166001600160a01b0319831681179093556040519116919082907f8be0079c531659141344cd1fd0a4f28419497f9722a3daafe3b4186f6b6457e090600090a35050565b600054610100900460ff166142cf5760405162461bcd60e51b815260040161150b90614de2565b612504614398565b6001600160a01b0381163b6143445760405162461bcd60e51b815260206004820152602d60248201527f455243313936373a206e657720696d706c656d656e746174696f6e206973206e60448201526c1bdd08184818dbdb9d1c9858dd609a1b606482015260840161150b565b600080516020614e4183398151915280546001600160a01b0319166001600160a01b0392909216919091179055565b61437c836143c8565b6000825111806143895750805b156141195761331b8383614408565b600054610100900460ff166143bf5760405162461bcd60e51b815260040161150b90614de2565b61250433614256565b6143d1816142d7565b6040516001600160a01b038216907fbc7cd75a20ee27fd9adebab32041f755214dbc6bffa90cc0225b39da2e5c2d3b90600090a250565b6060610ba58383604051806060016040528060278152602001614e61602791396060600080856001600160a01b0316856040516144459190614b81565b600060405180830381855af49150503d8060008114614480576040519150601f19603f3d011682016040523d82523d6000602084013e614485565b606091505b5091509150614496868383876144a0565b9695505050505050565b6060831561450c578251614505576001600160a01b0385163b6145055760405162461bcd60e51b815260206004820152601d60248201527f416464726573733a2063616c6c20746f206e6f6e2d636f6e7472616374000000604482015260640161150b565b5081614516565b614516838361451e565b949350505050565b81511561452e5781518083602001fd5b8060405162461bcd60e51b815260040161150b9190614e2d565b82805461455490614b46565b90600052602060002090601f01602090048101928261457657600085556145bc565b82601f1061458f57805160ff19168380011785556145bc565b828001600101855582156145bc579182015b828111156145bc5782518255916020019190600101906145a1565b506145c89291506145cc565b5090565b5b808211156145c857600081556001016145cd565b60005b838110156145fc5781810151838201526020016145e4565b8381111561331b5750506000910152565b600081518084526146258160208601602086016145e1565b601f01601f19169290920160200192915050565b60006020808301818452808551808352604092508286019150828160051b87010184880160005b838110156146d257603f19898403018552815160a081518186526146868287018261460d565b838b01516001600160a01b03908116888d01528a85015181168b890152606080860151909116908801526080938401511515939096019290925250509386019390860190600101614660565b509098975050505050505050565b634e487b7160e01b600052604160045260246000fd5b600082601f83011261470757600080fd5b813567ffffffffffffffff80821115614722576147226146e0565b604051601f8301601f19908116603f0116810190828211818310171561474a5761474a6146e0565b8160405283815286602085880101111561476357600080fd5b836020870160208301376000602085830101528094505050505092915050565b60006020828403121561479557600080fd5b813567ffffffffffffffff8111156147ac57600080fd5b614516848285016146f6565b6001600160a01b03811681146115a857600080fd5b600080604083850312156147e057600080fd5b823567ffffffffffffffff8111156147f757600080fd5b614803858286016146f6565b9250506020830135614814816147b8565b809150509250929050565b6000806040838503121561483257600080fd5b823561483d816147b8565b91506020830135614814816147b8565b60006020828403121561485f57600080fd5b8135610ba5816147b8565b6000806000806080858703121561488057600080fd5b843567ffffffffffffffff8082111561489857600080fd5b6148a4888389016146f6565b955060208701359150808211156148ba57600080fd5b506148c7878288016146f6565b93505060408501356148d8816147b8565b915060608501356148e8816147b8565b939692955090935050565b6000806040838503121561490657600080fd5b8235614911816147b8565b9150602083013567ffffffffffffffff81111561492d57600080fd5b614939858286016146f6565b9150509250929050565b60008060006060848603121561495857600080fd5b833567ffffffffffffffff81111561496f57600080fd5b61497b868287016146f6565b9660208601359650604090950135949350505050565b600080604083850312156149a457600080fd5b823567ffffffffffffffff8111156149bb57600080fd5b6149c7858286016146f6565b95602094909401359450505050565b6000602082840312156149e857600080fd5b5035919050565b60a081526000614a0260a083018861460d565b6001600160a01b039687166020840152948616604083015250919093166060820152911515608090920191909152919050565b600080600060608486031215614a4a57600080fd5b833567ffffffffffffffff811115614a6157600080fd5b614a6d868287016146f6565b9350506020840135614a7e816147b8565b929592945050506040919091013590565b600080600060608486031215614aa457600080fd5b8335614aaf816147b8565b92506020840135614abf816147b8565b91506040840135614acf816147b8565b809150509250925092565b80151581146115a857600080fd5b60008060408385031215614afb57600080fd5b8235614b06816147b8565b9150602083013561481481614ada565b600080600060608486031215614b2b57600080fd5b8335614b36816147b8565b92506020840135614a7e816147b8565b600181811c90821680614b5a57607f821691505b60208210811415614b7b57634e487b7160e01b600052602260045260246000fd5b50919050565b60008251614b938184602087016145e1565b9190910192915050565b600060208284031215614baf57600080fd5b5051919050565b634e487b7160e01b600052603260045260246000fd5b634e487b7160e01b600052601160045260246000fd5b6000600019821415614bf657614bf6614bcc565b5060010190565b60008060408385031215614c1057600080fd5b505080516020909101519092909150565b600060208284031215614c3357600080fd5b8151610ba581614ada565b6020808252602c908201527f46756e6374696f6e206d7573742062652063616c6c6564207468726f7567682060408201526b19195b1959d85d1958d85b1b60a21b606082015260800190565b6020808252602c908201527f46756e6374696f6e206d7573742062652063616c6c6564207468726f7567682060408201526b6163746976652070726f787960a01b606082015260800190565b6001600160a01b03831681526040602082018190526000906145169083018461460d565b600060208284031215614d0c57600080fd5b8151610ba5816147b8565b6020808252600e908201526d109bdd5b9d1e481a5cc81119585960921b604082015260600190565b6020808252601190820152702737ba10383937b532b1ba1037bbb732b960791b604082015260600190565b6001600160a01b039384168152919092166020820152604081019190915260600190565b60008060408385031215614da157600080fd5b82519150602083015161481481614ada565b600082821015614dc557614dc5614bcc565b500390565b60008219821115614ddd57614ddd614bcc565b500190565b6020808252602b908201527f496e697469616c697a61626c653a20636f6e7472616374206973206e6f74206960408201526a6e697469616c697a696e6760a81b606082015260800190565b602081526000610ba5602083018461460d56fe360894a13ba1a3210667c828492db98dca3e2076cc3735a920a3ca505d382bbc416464726573733a206c6f772d6c6576656c2064656c65676174652063616c6c206661696c6564a26469706673582212202646840abd309b6db1c0ebd0c7ffbf1ba872b475dea12749c4845de6176ce9cb64736f6c634300080a0033",
    "linkReferences": {}
  },
  "methodIdentifiers": {
    "beacon()": "59659e90",
    "billPremiumForAll()": "27e73542",
    "billPremiumForOnePool(string)": "e6b37f6f",
    "bountiesList(uint256)": "7f2f3e5e",
    "bountyDetails(string)": "d7dc56a5",
    "bountyImplementation()": "cae38faa",
    "claimPremium(string)": "666b7030",
    "deployNewBounty(bytes,string,address,address)": "4c0d9a6c",
    "factory()": "c45a0155",
    "getBountyAddressByName(string)": "66b6c647",
    "initialize(address,address,address)": "c0c53b8b",
    "killBounty(string)": "9ca7e787",
    "owner()": "8da5cb5b",
    "payBounty(string,address,uint256)": "bc160761",
    "projectDeposit(string,uint256)": "f4808fea",
    "projectDepositWithdrawal(string,uint256)": "68dd3dbf",
    "proxiableUUID()": "52d1902d",
    "renounceOwnership()": "715018a6",
    "saloonWallet()": "4389e41a",
    "scheduleProjectDepositWithdrawal(string,uint256)": "b8047881",
    "scheduleUnstake(string,uint256)": "d16ad2f7",
    "setBountyCapAndAPY(string,uint256,uint256)": "58b07d5b",
    "stake(string,uint256)": "9494c8ae",
    "tokenWhitelist(address)": "753d7563",
    "transferOwnership(address)": "f2fde38b",
    "unstake(string,uint256)": "d37c92dc",
    "updateBountyPoolImplementation(address)": "53dce856",
    "updateSaloonWallet(address)": "79f99a89",
    "updateTokenWhitelist(address,bool)": "e5e97c65",
    "upgradeTo(address)": "3659cfe6",
    "upgradeToAndCall(address,bytes)": "4f1ef286",
    "viewAllBountiesByName()": "03c46f51",
    "viewBountyBalance(string)": "05234fda",
    "viewBountyInfo(string)": "943eb4f2",
    "viewBountyOwner(string)": "37787926",
    "viewDesiredAPY(string)": "a667b5d0",
    "viewHackerPayout(string)": "0f0df171",
    "viewHunterTotalTokenPayouts(address,address)": "21580322",
    "viewPoolCap(string)": "3ef0c3ed",
    "viewProjectDeposit(string)": "d3c15cdb",
    "viewSaloonBalance()": "a0d07125",
    "viewTotalEarnedSaloon()": "6c948535",
    "viewTotalHackerPayouts()": "c3149590",
    "viewTotalPremiums()": "e5125d7b",
    "viewTotalSaloonCommission()": "d3326a0a",
    "viewUserStakingBalance(string,address)": "15daef49",
    "viewstakersDeposit(string)": "b91cdea7",
    "withdrawSaloon(address,address,uint256)": "f0e6b4ed",
    "withdrawSaloonPremiumFees()": "0e060249"
  },
  "id": 30
}