{
  "abi": [
    {
      "anonymous": false,
      "inputs": [
        {
          "indexed": false,
          "internalType": "address",
          "name": "previousAdmin",
          "type": "address"
        },
        {
          "indexed": false,
          "internalType": "address",
          "name": "newAdmin",
          "type": "address"
        }
      ],
      "name": "AdminChanged",
      "type": "event"
    },
    {
      "anonymous": false,
      "inputs": [
        {
          "indexed": true,
          "internalType": "address",
          "name": "beacon",
          "type": "address"
        }
      ],
      "name": "BeaconUpgraded",
      "type": "event"
    },
    {
      "anonymous": false,
      "inputs": [
        {
          "indexed": true,
          "internalType": "address",
          "name": "sender",
          "type": "address"
        },
        {
          "indexed": true,
          "internalType": "address",
          "name": "_projectWallet",
          "type": "address"
        },
        {
          "indexed": false,
          "internalType": "contract BountyPool",
          "name": "newProxyAddress",
          "type": "address"
        }
      ],
      "name": "DeployNewBounty",
      "type": "event"
    },
    {
      "anonymous": false,
      "inputs": [
        {
          "indexed": false,
          "internalType": "uint8",
          "name": "version",
          "type": "uint8"
        }
      ],
      "name": "Initialized",
      "type": "event"
    },
    {
      "anonymous": false,
      "inputs": [
        {
          "indexed": true,
          "internalType": "address",
          "name": "previousOwner",
          "type": "address"
        },
        {
          "indexed": true,
          "internalType": "address",
          "name": "newOwner",
          "type": "address"
        }
      ],
      "name": "OwnershipTransferred",
      "type": "event"
    },
    {
      "anonymous": false,
      "inputs": [
        {
          "indexed": true,
          "internalType": "address",
          "name": "implementation",
          "type": "address"
        }
      ],
      "name": "Upgraded",
      "type": "event"
    },
    {
      "inputs": [],
      "name": "beacon",
      "outputs": [
        {
          "internalType": "contract UpgradeableBeacon",
          "name": "",
          "type": "address"
        }
      ],
      "stateMutability": "view",
      "type": "function"
    },
    {
      "inputs": [],
      "name": "billPremiumForAll",
      "outputs": [
        {
          "internalType": "bool",
          "name": "",
          "type": "bool"
        }
      ],
      "stateMutability": "nonpayable",
      "type": "function"
    },
    {
      "inputs": [
        {
          "internalType": "string",
          "name": "_projectName",
          "type": "string"
        }
      ],
      "name": "billPremiumForOnePool",
      "outputs": [
        {
          "internalType": "bool",
          "name": "",
          "type": "bool"
        }
      ],
      "stateMutability": "nonpayable",
      "type": "function"
    },
    {
      "inputs": [
        {
          "internalType": "uint256",
          "name": "",
          "type": "uint256"
        }
      ],
      "name": "bountiesList",
      "outputs": [
        {
          "internalType": "string",
          "name": "projectName",
          "type": "string"
        },
        {
          "internalType": "address",
          "name": "projectWallet",
          "type": "address"
        },
        {
          "internalType": "contract BountyPool",
          "name": "proxyAddress",
          "type": "address"
        },
        {
          "internalType": "address",
          "name": "token",
          "type": "address"
        },
        {
          "internalType": "bool",
          "name": "dead",
          "type": "bool"
        }
      ],
      "stateMutability": "view",
      "type": "function"
    },
    {
      "inputs": [
        {
          "internalType": "string",
          "name": "",
          "type": "string"
        }
      ],
      "name": "bountyDetails",
      "outputs": [
        {
          "internalType": "string",
          "name": "projectName",
          "type": "string"
        },
        {
          "internalType": "address",
          "name": "projectWallet",
          "type": "address"
        },
        {
          "internalType": "contract BountyPool",
          "name": "proxyAddress",
          "type": "address"
        },
        {
          "internalType": "address",
          "name": "token",
          "type": "address"
        },
        {
          "internalType": "bool",
          "name": "dead",
          "type": "bool"
        }
      ],
      "stateMutability": "view",
      "type": "function"
    },
    {
      "inputs": [],
      "name": "bountyImplementation",
      "outputs": [
        {
          "internalType": "address",
          "name": "",
          "type": "address"
        }
      ],
      "stateMutability": "view",
      "type": "function"
    },
    {
      "inputs": [
        {
          "internalType": "string",
          "name": "_projectName",
          "type": "string"
        }
      ],
      "name": "claimPremium",
      "outputs": [
        {
          "internalType": "uint256",
          "name": "",
          "type": "uint256"
        }
      ],
      "stateMutability": "nonpayable",
      "type": "function"
    },
    {
      "inputs": [
        {
          "internalType": "bytes",
          "name": "_data",
          "type": "bytes"
        },
        {
          "internalType": "string",
          "name": "_projectName",
          "type": "string"
        },
        {
          "internalType": "address",
          "name": "_token",
          "type": "address"
        },
        {
          "internalType": "address",
          "name": "_projectWallet",
          "type": "address"
        }
      ],
      "name": "deployNewBounty",
      "outputs": [
        {
          "internalType": "contract BountyPool",
          "name": "",
          "type": "address"
        },
        {
          "internalType": "bool",
          "name": "",
          "type": "bool"
        }
      ],
      "stateMutability": "nonpayable",
      "type": "function"
    },
    {
      "inputs": [],
      "name": "factory",
      "outputs": [
        {
          "internalType": "contract BountyProxyFactory",
          "name": "",
          "type": "address"
        }
      ],
      "stateMutability": "view",
      "type": "function"
    },
    {
      "inputs": [
        {
          "internalType": "string",
          "name": "_projectName",
          "type": "string"
        }
      ],
      "name": "getBountyAddressByName",
      "outputs": [
        {
          "internalType": "address",
          "name": "",
          "type": "address"
        }
      ],
      "stateMutability": "view",
      "type": "function"
    },
    {
      "inputs": [
        {
          "internalType": "contract BountyProxyFactory",
          "name": "_factory",
          "type": "address"
        },
        {
          "internalType": "contract UpgradeableBeacon",
          "name": "_beacon",
          "type": "address"
        },
        {
          "internalType": "address",
          "name": "_bountyImplementation",
          "type": "address"
        }
      ],
      "name": "initialize",
      "outputs": [],
      "stateMutability": "nonpayable",
      "type": "function"
    },
    {
      "inputs": [
        {
          "internalType": "string",
          "name": "_projectName",
          "type": "string"
        }
      ],
      "name": "killBounty",
      "outputs": [
        {
          "internalType": "bool",
          "name": "",
          "type": "bool"
        }
      ],
      "stateMutability": "nonpayable",
      "type": "function"
    },
    {
      "inputs": [],
      "name": "owner",
      "outputs": [
        {
          "internalType": "address",
          "name": "",
          "type": "address"
        }
      ],
      "stateMutability": "view",
      "type": "function"
    },
    {
      "inputs": [
        {
          "internalType": "string",
          "name": "_projectName",
          "type": "string"
        },
        {
          "internalType": "address",
          "name": "_hunter",
          "type": "address"
        },
        {
          "internalType": "uint256",
          "name": "_amount",
          "type": "uint256"
        }
      ],
      "name": "payBounty",
      "outputs": [
        {
          "internalType": "bool",
          "name": "",
          "type": "bool"
        }
      ],
      "stateMutability": "nonpayable",
      "type": "function"
    },
    {
      "inputs": [
        {
          "internalType": "string",
          "name": "_projectName",
          "type": "string"
        },
        {
          "internalType": "uint256",
          "name": "_amount",
          "type": "uint256"
        }
      ],
      "name": "projectDeposit",
      "outputs": [
        {
          "internalType": "bool",
          "name": "",
          "type": "bool"
        }
      ],
      "stateMutability": "nonpayable",
      "type": "function"
    },
    {
      "inputs": [
        {
          "internalType": "string",
          "name": "_projectName",
          "type": "string"
        },
        {
          "internalType": "uint256",
          "name": "_amount",
          "type": "uint256"
        }
      ],
      "name": "projectDepositWithdrawal",
      "outputs": [
        {
          "internalType": "bool",
          "name": "",
          "type": "bool"
        }
      ],
      "stateMutability": "nonpayable",
      "type": "function"
    },
    {
      "inputs": [],
      "name": "proxiableUUID",
      "outputs": [
        {
          "internalType": "bytes32",
          "name": "",
          "type": "bytes32"
        }
      ],
      "stateMutability": "view",
      "type": "function"
    },
    {
      "inputs": [],
      "name": "renounceOwnership",
      "outputs": [],
      "stateMutability": "nonpayable",
      "type": "function"
    },
    {
      "inputs": [],
      "name": "saloonWallet",
      "outputs": [
        {
          "internalType": "contract SaloonWallet",
          "name": "",
          "type": "address"
        }
      ],
      "stateMutability": "view",
      "type": "function"
    },
    {
      "inputs": [
        {
          "internalType": "string",
          "name": "_projectName",
          "type": "string"
        },
        {
          "internalType": "uint256",
          "name": "_amount",
          "type": "uint256"
        }
      ],
      "name": "scheduleProjectDepositWithdrawal",
      "outputs": [
        {
          "internalType": "bool",
          "name": "",
          "type": "bool"
        }
      ],
      "stateMutability": "nonpayable",
      "type": "function"
    },
    {
      "inputs": [
        {
          "internalType": "string",
          "name": "_projectName",
          "type": "string"
        },
        {
          "internalType": "uint256",
          "name": "_amount",
          "type": "uint256"
        }
      ],
      "name": "scheduleUnstake",
      "outputs": [
        {
          "internalType": "bool",
          "name": "",
          "type": "bool"
        }
      ],
      "stateMutability": "nonpayable",
      "type": "function"
    },
    {
      "inputs": [
        {
          "internalType": "string",
          "name": "_projectName",
          "type": "string"
        },
        {
          "internalType": "uint256",
          "name": "_poolCap",
          "type": "uint256"
        },
        {
          "internalType": "uint256",
          "name": "_desiredAPY",
          "type": "uint256"
        }
      ],
      "name": "setBountyCapAndAPY",
      "outputs": [
        {
          "internalType": "bool",
          "name": "",
          "type": "bool"
        }
      ],
      "stateMutability": "nonpayable",
      "type": "function"
    },
    {
      "inputs": [
        {
          "internalType": "string",
          "name": "_projectName",
          "type": "string"
        },
        {
          "internalType": "uint256",
          "name": "_amount",
          "type": "uint256"
        }
      ],
      "name": "stake",
      "outputs": [
        {
          "internalType": "bool",
          "name": "",
          "type": "bool"
        }
      ],
      "stateMutability": "nonpayable",
      "type": "function"
    },
    {
      "inputs": [
        {
          "internalType": "address",
          "name": "",
          "type": "address"
        }
      ],
      "name": "tokenWhitelist",
      "outputs": [
        {
          "internalType": "bool",
          "name": "",
          "type": "bool"
        }
      ],
      "stateMutability": "view",
      "type": "function"
    },
    {
      "inputs": [
        {
          "internalType": "address",
          "name": "newOwner",
          "type": "address"
        }
      ],
      "name": "transferOwnership",
      "outputs": [],
      "stateMutability": "nonpayable",
      "type": "function"
    },
    {
      "inputs": [
        {
          "internalType": "string",
          "name": "_projectName",
          "type": "string"
        },
        {
          "internalType": "uint256",
          "name": "_amount",
          "type": "uint256"
        }
      ],
      "name": "unstake",
      "outputs": [
        {
          "internalType": "bool",
          "name": "",
          "type": "bool"
        }
      ],
      "stateMutability": "nonpayable",
      "type": "function"
    },
    {
      "inputs": [
        {
          "internalType": "address",
          "name": "_newImplementation",
          "type": "address"
        }
      ],
      "name": "updateBountyPoolImplementation",
      "outputs": [
        {
          "internalType": "bool",
          "name": "",
          "type": "bool"
        }
      ],
      "stateMutability": "nonpayable",
      "type": "function"
    },
    {
      "inputs": [
        {
          "internalType": "address",
          "name": "_newWallet",
          "type": "address"
        }
      ],
      "name": "updateSaloonWallet",
      "outputs": [],
      "stateMutability": "nonpayable",
      "type": "function"
    },
    {
      "inputs": [
        {
          "internalType": "address",
          "name": "_token",
          "type": "address"
        },
        {
          "internalType": "bool",
          "name": "whitelisted",
          "type": "bool"
        }
      ],
      "name": "updateTokenWhitelist",
      "outputs": [
        {
          "internalType": "bool",
          "name": "",
          "type": "bool"
        }
      ],
      "stateMutability": "nonpayable",
      "type": "function"
    },
    {
      "inputs": [
        {
          "internalType": "address",
          "name": "newImplementation",
          "type": "address"
        }
      ],
      "name": "upgradeTo",
      "outputs": [],
      "stateMutability": "nonpayable",
      "type": "function"
    },
    {
      "inputs": [
        {
          "internalType": "address",
          "name": "newImplementation",
          "type": "address"
        },
        {
          "internalType": "bytes",
          "name": "data",
          "type": "bytes"
        }
      ],
      "name": "upgradeToAndCall",
      "outputs": [],
      "stateMutability": "payable",
      "type": "function"
    },
    {
      "inputs": [],
      "name": "viewAllBountiesByName",
      "outputs": [
        {
          "components": [
            {
              "internalType": "string",
              "name": "projectName",
              "type": "string"
            },
            {
              "internalType": "address",
              "name": "projectWallet",
              "type": "address"
            },
            {
              "internalType": "contract BountyPool",
              "name": "proxyAddress",
              "type": "address"
            },
            {
              "internalType": "address",
              "name": "token",
              "type": "address"
            },
            {
              "internalType": "bool",
              "name": "dead",
              "type": "bool"
            }
          ],
          "internalType": "struct BountyProxiesManager.Bounties[]",
          "name": "",
          "type": "tuple[]"
        }
      ],
      "stateMutability": "view",
      "type": "function"
    },
    {
      "inputs": [
        {
          "internalType": "string",
          "name": "_projectName",
          "type": "string"
        }
      ],
      "name": "viewBountyOwner",
      "outputs": [
        {
          "internalType": "address",
          "name": "",
          "type": "address"
        }
      ],
      "stateMutability": "view",
      "type": "function"
    },
    {
      "inputs": [
        {
          "internalType": "string",
          "name": "_projectName",
          "type": "string"
        }
      ],
      "name": "viewBountyPayout",
      "outputs": [
        {
          "internalType": "uint256",
          "name": "",
          "type": "uint256"
        }
      ],
      "stateMutability": "view",
      "type": "function"
    },
    {
      "inputs": [
        {
          "internalType": "address",
          "name": "_token",
          "type": "address"
        },
        {
          "internalType": "address",
          "name": "_hunter",
          "type": "address"
        }
      ],
      "name": "viewHunterTotalTokenPayouts",
      "outputs": [
        {
          "internalType": "uint256",
          "name": "",
          "type": "uint256"
        }
      ],
      "stateMutability": "view",
      "type": "function"
    },
    {
      "inputs": [
        {
          "internalType": "string",
          "name": "_projectName",
          "type": "string"
        }
      ],
      "name": "viewProjectDeposit",
      "outputs": [
        {
          "internalType": "uint256",
          "name": "",
          "type": "uint256"
        }
      ],
      "stateMutability": "view",
      "type": "function"
    },
    {
      "inputs": [],
      "name": "viewSaloonBalance",
      "outputs": [
        {
          "internalType": "uint256",
          "name": "",
          "type": "uint256"
        }
      ],
      "stateMutability": "view",
      "type": "function"
    },
    {
      "inputs": [],
      "name": "viewTotalEarnedSaloon",
      "outputs": [
        {
          "internalType": "uint256",
          "name": "",
          "type": "uint256"
        }
      ],
      "stateMutability": "view",
      "type": "function"
    },
    {
      "inputs": [],
      "name": "viewTotalHackerPayouts",
      "outputs": [
        {
          "internalType": "uint256",
          "name": "",
          "type": "uint256"
        }
      ],
      "stateMutability": "view",
      "type": "function"
    },
    {
      "inputs": [],
      "name": "viewTotalPremiums",
      "outputs": [
        {
          "internalType": "uint256",
          "name": "",
          "type": "uint256"
        }
      ],
      "stateMutability": "view",
      "type": "function"
    },
    {
      "inputs": [],
      "name": "viewTotalSaloonCommission",
      "outputs": [
        {
          "internalType": "uint256",
          "name": "",
          "type": "uint256"
        }
      ],
      "stateMutability": "view",
      "type": "function"
    },
    {
      "inputs": [
        {
          "internalType": "string",
          "name": "_projectName",
          "type": "string"
        }
      ],
      "name": "viewUserStakingBalance",
      "outputs": [
        {
          "internalType": "uint256",
          "name": "",
          "type": "uint256"
        }
      ],
      "stateMutability": "view",
      "type": "function"
    },
    {
      "inputs": [
        {
          "internalType": "string",
          "name": "_projectName",
          "type": "string"
        }
      ],
      "name": "viewstakersDeposit",
      "outputs": [
        {
          "internalType": "uint256",
          "name": "",
          "type": "uint256"
        }
      ],
      "stateMutability": "view",
      "type": "function"
    },
    {
      "inputs": [
        {
          "internalType": "address",
          "name": "_token",
          "type": "address"
        },
        {
          "internalType": "address",
          "name": "_to",
          "type": "address"
        },
        {
          "internalType": "uint256",
          "name": "_amount",
          "type": "uint256"
        }
      ],
      "name": "withdrawSaloon",
      "outputs": [
        {
          "internalType": "bool",
          "name": "",
          "type": "bool"
        }
      ],
      "stateMutability": "nonpayable",
      "type": "function"
    },
    {
      "inputs": [],
      "name": "withdrawSaloonPremiumFees",
      "outputs": [
        {
          "internalType": "bool",
          "name": "",
          "type": "bool"
        }
      ],
      "stateMutability": "nonpayable",
      "type": "function"
    }
  ],
  "bytecode": {
    "object": "0x60a06040523060805234801561001457600080fd5b5060805161406c61004c60003960008181610f3901528181610f820152818161140c0152818161144c01526114df015261406c6000f3fe6080604052600436106102725760003560e01c80638da5cb5b1161014f578063d16ad2f7116100c1578063e5e97c651161007a578063e5e97c6514610768578063e6b37f6f14610788578063f0e6b4ed146107a8578063f2fde38b146107c8578063f4808fea146107e8578063ff8d30fb1461080857600080fd5b8063d16ad2f7146106be578063d3326a0a146106de578063d37c92dc146106f3578063d3c15cdb14610713578063d7dc56a514610733578063e5125d7b1461075357600080fd5b8063b91cdea711610113578063b91cdea714610609578063bc16076114610629578063c0c53b8b14610649578063c314959014610669578063c45a01551461067e578063cae38faa1461069e57600080fd5b80638da5cb5b146105765780639494c8ae146105945780639ca7e787146105b4578063a0d07125146105d4578063b8047881146105e957600080fd5b806358b07d5b116101e85780636c948535116101ac5780636c948535146104ab578063715018a6146104c0578063753d7563146104d557806379f99a89146105055780637dd03e8f146105255780637f2f3e5e1461054557600080fd5b806358b07d5b1461040b57806359659e901461042b578063666b70301461044b57806366b6c6471461046b57806368dd3dbf1461048b57600080fd5b8063377879261161023a578063377879261461032c5780634389e41a146103645780634c0d9a6c146103845780634f1ef286146103c357806352d1902d146103d657806353dce856146103eb57600080fd5b806303c46f51146102775780630e060249146102a257806321580322146102c757806327e73542146102f55780633659cfe61461030a575b600080fd5b34801561028357600080fd5b5061028c610828565b6040516102999190613866565b60405180910390f35b3480156102ae57600080fd5b506102b761095e565b6040519015158152602001610299565b3480156102d357600080fd5b506102e76102e2366004613922565b610c58565b604051908152602001610299565b34801561030157600080fd5b506102b7610cd8565b34801561031657600080fd5b5061032a61032536600461395b565b610f2e565b005b34801561033857600080fd5b5061034c610347366004613a1b565b611017565b6040516001600160a01b039091168152602001610299565b34801561037057600080fd5b5060685461034c906001600160a01b031681565b34801561039057600080fd5b506103a461039f366004613a50565b61104b565b604080516001600160a01b039093168352901515602083015201610299565b61032a6103d1366004613ad9565b611401565b3480156103e257600080fd5b506102e76114d2565b3480156103f757600080fd5b506102b761040636600461395b565b611585565b34801561041757600080fd5b506102b7610426366004613b29565b61163b565b34801561043757600080fd5b5060665461034c906001600160a01b031681565b34801561045757600080fd5b506102e7610466366004613a1b565b611882565b34801561047757600080fd5b5061034c610486366004613a1b565b611a45565b34801561049757600080fd5b506102b76104a6366004613b77565b611a79565b3480156104b757600080fd5b506102e7611c67565b3480156104cc57600080fd5b5061032a611cda565b3480156104e157600080fd5b506102b76104f036600461395b565b606b6020526000908152604090205460ff1681565b34801561051157600080fd5b5061032a61052036600461395b565b611cee565b34801561053157600080fd5b506102e7610540366004613a1b565b611d65565b34801561055157600080fd5b50610565610560366004613bbc565b611ed2565b604051610299959493929190613bd5565b34801561058257600080fd5b506033546001600160a01b031661034c565b3480156105a057600080fd5b506102b76105af366004613b77565b611fb6565b3480156105c057600080fd5b506102b76105cf366004613a1b565b61211d565b3480156105e057600080fd5b506102e761216d565b3480156105f557600080fd5b506102b7610604366004613b77565b6121b7565b34801561061557600080fd5b506102e7610624366004613a1b565b612389565b34801561063557600080fd5b506102b7610644366004613c1b565b6124fb565b34801561065557600080fd5b5061032a610664366004613c75565b612696565b34801561067557600080fd5b506102e76127e7565b34801561068a57600080fd5b5060655461034c906001600160a01b031681565b3480156106aa57600080fd5b5060675461034c906001600160a01b031681565b3480156106ca57600080fd5b506102b76106d9366004613b77565b612831565b3480156106ea57600080fd5b506102e76129ee565b3480156106ff57600080fd5b506102b761070e366004613b77565b612a38565b34801561071f57600080fd5b506102e761072e366004613a1b565b612b9f565b34801561073f57600080fd5b5061056561074e366004613a1b565b612ce6565b34801561075f57600080fd5b506102e7612d0c565b34801561077457600080fd5b506102b7610783366004613cce565b612d56565b34801561079457600080fd5b506102b76107a3366004613a1b565b612d8c565b3480156107b457600080fd5b506102b76107c3366004613cfc565b612eba565b3480156107d457600080fd5b5061032a6107e336600461395b565b612f3d565b3480156107f457600080fd5b506102b7610803366004613b77565b612fb3565b34801561081457600080fd5b506102e7610823366004613a1b565b613153565b60606069805480602002602001604051908101604052809291908181526020016000905b8282101561095557838290600052602060002090600402016040518060a001604052908160008201805461087f90613d2c565b80601f01602080910402602001604051908101604052809291908181526020018280546108ab90613d2c565b80156108f85780601f106108cd576101008083540402835291602001916108f8565b820191906000526020600020905b8154815290600101906020018083116108db57829003601f168201915b50505091835250506001828101546001600160a01b039081166020808501919091526002850154821660408501526003909401549081166060840152600160a01b900460ff1615156080909201919091529183529201910161084c565b50505050905090565b600061096861329a565b60006069805480602002602001604051908101604052809291908181526020016000905b82821015610a9557838290600052602060002090600402016040518060a00160405290816000820180546109bf90613d2c565b80601f01602080910402602001604051908101604052809291908181526020018280546109eb90613d2c565b8015610a385780601f10610a0d57610100808354040283529160200191610a38565b820191906000526020600020905b815481529060010190602001808311610a1b57829003601f168201915b50505091835250506001828101546001600160a01b039081166020808501919091526002850154821660408501526003909401549081166060840152600160a01b900460ff1615156080909201919091529183529201910161098c565b5050825192935060009150505b81811015610c4e57610ad0838281518110610abf57610abf613d67565b6020026020010151608001516132f4565b151560011415610adf57610c3e565b6000838281518110610af357610af3613d67565b6020026020010151604001516001600160a01b0316635121ac9d858481518110610b1f57610b1f613d67565b60209081029190910101516060015160685460405160e084901b6001600160e01b03191681526001600160a01b039283166004820152911660248201526044016020604051808303816000875af1158015610b7e573d6000803e3d6000fd5b505050506040513d601f19601f82011682018060405250810190610ba29190613d7d565b60685485519192506001600160a01b0316906383ab930490869085908110610bcc57610bcc613d67565b602002602001015160600151836040518363ffffffff1660e01b8152600401610c0a9291906001600160a01b03929092168252602082015260400190565b600060405180830381600087803b158015610c2457600080fd5b505af1158015610c38573d6000803e3d6000fd5b50505050505b610c4781613d96565b9050610aa2565b5060019250505090565b6068546040516310ac019160e11b81526001600160a01b03848116600483015283811660248301526000921690632158032290604401602060405180830381865afa158015610cab573d6000803e3d6000fd5b505050506040513d601f19601f82011682018060405250810190610ccf9190613d7d565b90505b92915050565b6000806069805480602002602001604051908101604052809291908181526020016000905b82821015610e0657838290600052602060002090600402016040518060a0016040529081600082018054610d3090613d2c565b80601f0160208091040260200160405190810160405280929190818152602001828054610d5c90613d2c565b8015610da95780601f10610d7e57610100808354040283529160200191610da9565b820191906000526020600020905b815481529060010190602001808311610d8c57829003601f168201915b50505091835250506001828101546001600160a01b039081166020808501919091526002850154821660408501526003909401549081166060840152600160a01b900460ff16151560809092019190915291835292019101610cfd565b5050825192935060009150505b81811015610c4e57610e30838281518110610abf57610abf613d67565b151560011415610e3f57610f1e565b828181518110610e5157610e51613d67565b6020026020010151604001516001600160a01b03166310775e74848381518110610e7d57610e7d613d67565b602002602001015160600151858481518110610e9b57610e9b613d67565b6020026020010151602001516040518363ffffffff1660e01b8152600401610ed99291906001600160a01b0392831681529116602082015260400190565b6020604051808303816000875af1158015610ef8573d6000803e3d6000fd5b505050506040513d601f19601f82011682018060405250810190610f1c9190613dbf565b505b610f2781613d96565b9050610e13565b306001600160a01b037f0000000000000000000000000000000000000000000000000000000000000000161415610f805760405162461bcd60e51b8152600401610f7790613ddc565b60405180910390fd5b7f00000000000000000000000000000000000000000000000000000000000000006001600160a01b0316610fc9600080516020613ff0833981519152546001600160a01b031690565b6001600160a01b031614610fef5760405162461bcd60e51b8152600401610f7790613e28565b610ff88161330b565b6040805160008082526020820190925261101491839190613313565b50565b6000606a826040516110299190613e74565b908152604051908190036020019020600101546001600160a01b031692915050565b60008061105661329a565b60006001600160a01b0316606a866040516110719190613e74565b908152604051908190036020019020600201546001600160a01b0316146110da5760405162461bcd60e51b815260206004820152601a60248201527f50726f6a65637420616c72656164792068617320626f756e74790000000000006044820152606401610f77565b6001600160a01b0384166000908152606b602052604090205460ff16151560011461113c5760405162461bcd60e51b8152602060048201526012602482015271151bdad95b881b9bdd08185c1c1c9bdd995960721b6044820152606401610f77565b6040805160a0810182526000818301819052608082018190528782526001600160a01b038681166020840152878116606084015260655460665494516336d9881760e01b815293949293908216926336d98817926111a1929116908c90600401613e90565b6020604051808303816000875af11580156111c0573d6000803e3d6000fd5b505050506040513d601f19601f820116820180604052508101906111e49190613eb4565b604051634b8e0d3760e01b81523060048201529091506001600160a01b03821690634b8e0d3790602401600060405180830381600087803b15801561122857600080fd5b505af115801561123c573d6000803e3d6000fd5b5050506001600160a01b038216604084015250606980546001810182556000919091528251805184926004027f7fb4302e8e91f9110a6554c2c0a24601252c2a42c2220ca988efcfe399914308019161129a91839160200190613775565b5060208201516001820180546001600160a01b039283166001600160a01b03199182161790915560408085015160028501805491851691909316179091556060840151600390930180546080909501511515600160a01b026001600160a81b0319909516939092169290921792909217909155518290606a9061131e908a90613e74565b90815260200160405180910390206000820151816000019080519060200190611348929190613775565b506020828101516001830180546001600160a01b039283166001600160a01b03199182161790915560408086015160028601805491851691909316179091556060850151600390940180546080909601511515600160a01b026001600160a81b03199096169483169490941794909417909255915183821681529087169133917fa397122091ddbad4417c188353200f86978770ea6a146a5860667b1ef760917c910160405180910390a3976001975095505050505050565b306001600160a01b037f000000000000000000000000000000000000000000000000000000000000000016141561144a5760405162461bcd60e51b8152600401610f7790613ddc565b7f00000000000000000000000000000000000000000000000000000000000000006001600160a01b0316611493600080516020613ff0833981519152546001600160a01b031690565b6001600160a01b0316146114b95760405162461bcd60e51b8152600401610f7790613e28565b6114c28261330b565b6114ce82826001613313565b5050565b6000306001600160a01b037f000000000000000000000000000000000000000000000000000000000000000016146115725760405162461bcd60e51b815260206004820152603860248201527f555550535570677261646561626c653a206d757374206e6f742062652063616c60448201527f6c6564207468726f7567682064656c656761746563616c6c00000000000000006064820152608401610f77565b50600080516020613ff083398151915290565b600061158f61329a565b6001600160a01b0382166115d45760405162461bcd60e51b815260206004820152600c60248201526b41646472657373207a65726f60a01b6044820152606401610f77565b606654604051631b2ce7f360e11b81526001600160a01b03848116600483015290911690633659cfe690602401600060405180830381600087803b15801561161b57600080fd5b505af115801561162f573d6000803e3d6000fd5b50600195945050505050565b600080606a8560405161164e9190613e74565b90815260200160405180910390206040518060a001604052908160008201805461167790613d2c565b80601f01602080910402602001604051908101604052809291908181526020018280546116a390613d2c565b80156116f05780601f106116c5576101008083540402835291602001916116f0565b820191906000526020600020905b8154815290600101906020018083116116d357829003601f168201915b505050918352505060018201546001600160a01b0390811660208301526002830154811660408301526003909201549182166060820152600160a01b90910460ff161515608091820152810151909150611749906132f4565b151560011461176a5760405162461bcd60e51b8152600401610f7790613ed1565b80602001516001600160a01b0316336001600160a01b03161461179f5760405162461bcd60e51b8152600401610f7790613ef9565b80604001516001600160a01b031663d835f535856040518263ffffffff1660e01b81526004016117d191815260200190565b600060405180830381600087803b1580156117eb57600080fd5b505af11580156117ff573d6000803e3d6000fd5b50505060408083015160608401516020850151925163cc12c31160e01b81526001600160a01b03909216935063cc12c3119261183f928890600401613f24565b6020604051808303816000875af115801561185e573d6000803e3d6000fd5b505050506040513d601f19601f8201168201806040525081019061162f9190613dbf565b600080606a836040516118959190613e74565b90815260200160405180910390206040518060a00160405290816000820180546118be90613d2c565b80601f01602080910402602001604051908101604052809291908181526020018280546118ea90613d2c565b80156119375780601f1061190c57610100808354040283529160200191611937565b820191906000526020600020905b81548152906001019060200180831161191a57829003601f168201915b505050918352505060018201546001600160a01b0390811660208301526002830154811660408301526003909201549182166060820152600160a01b90910460ff161515608091820152810151909150611990906132f4565b15156001146119b15760405162461bcd60e51b8152600401610f7790613ed1565b6040808201516060830151602084015192516303065f4560e41b81526001600160a01b0391821660048201523360248201529281166044840152600092911690633065f4509060640160408051808303816000875af1158015611a18573d6000803e3d6000fd5b505050506040513d601f19601f82011682018060405250810190611a3c9190613f48565b50949350505050565b6000606a82604051611a579190613e74565b908152604051908190036020019020600201546001600160a01b031692915050565b600080606a84604051611a8c9190613e74565b90815260200160405180910390206040518060a0016040529081600082018054611ab590613d2c565b80601f0160208091040260200160405190810160405280929190818152602001828054611ae190613d2c565b8015611b2e5780601f10611b0357610100808354040283529160200191611b2e565b820191906000526020600020905b815481529060010190602001808311611b1157829003601f168201915b505050918352505060018201546001600160a01b0390811660208301526002830154811660408301526003909201549182166060820152600160a01b90910460ff161515608091820152810151909150611b87906132f4565b1515600114611ba85760405162461bcd60e51b8152600401610f7790613ed1565b80602001516001600160a01b0316336001600160a01b031614611bdd5760405162461bcd60e51b8152600401610f7790613ef9565b80604001516001600160a01b031663419b7bd782606001518360200151866040518463ffffffff1660e01b8152600401611c1993929190613f24565b6020604051808303816000875af1158015611c38573d6000803e3d6000fd5b505050506040513d601f19601f82011682018060405250810190611c5c9190613dbf565b506001949350505050565b60685460408051636c94853560e01b815290516000926001600160a01b031691636c9485359160048083019260209291908290030181865afa158015611cb1573d6000803e3d6000fd5b505050506040513d601f19601f82011682018060405250810190611cd59190613d7d565b905090565b611ce261329a565b611cec6000613483565b565b611cf661329a565b6001600160a01b038116611d435760405162461bcd60e51b8152602060048201526014602482015273416464726573732063616e74206265207a65726f60601b6044820152606401610f77565b606880546001600160a01b0319166001600160a01b0392909216919091179055565b600080606a83604051611d789190613e74565b90815260200160405180910390206040518060a0016040529081600082018054611da190613d2c565b80601f0160208091040260200160405190810160405280929190818152602001828054611dcd90613d2c565b8015611e1a5780601f10611def57610100808354040283529160200191611e1a565b820191906000526020600020905b815481529060010190602001808311611dfd57829003601f168201915b505050918352505060018201546001600160a01b039081166020830152600283015481166040808401919091526003909301548082166060840152600160a01b900460ff161515608090920191909152828201519151631a89cabd60e01b8152336004820152929350600092911690631a89cabd906024016040805180830381865afa158015611eae573d6000803e3d6000fd5b505050506040513d601f19601f82011682018060405250810190611a3c9190613f6d565b60698181548110611ee257600080fd5b9060005260206000209060040201600091509050806000018054611f0590613d2c565b80601f0160208091040260200160405190810160405280929190818152602001828054611f3190613d2c565b8015611f7e5780601f10611f5357610100808354040283529160200191611f7e565b820191906000526020600020905b815481529060010190602001808311611f6157829003601f168201915b505050506001830154600284015460039094015492936001600160a01b0391821693908216925090811690600160a01b900460ff1685565b600080606a84604051611fc99190613e74565b90815260200160405180910390206040518060a0016040529081600082018054611ff290613d2c565b80601f016020809104026020016040519081016040528092919081815260200182805461201e90613d2c565b801561206b5780601f106120405761010080835404028352916020019161206b565b820191906000526020600020905b81548152906001019060200180831161204e57829003601f168201915b505050918352505060018201546001600160a01b0390811660208301526002830154811660408301526003909201549182166060820152600160a01b90910460ff1615156080918201528101519091506120c4906132f4565b15156001146120e55760405162461bcd60e51b8152600401610f7790613ed1565b80604001516001600160a01b031663bf6eac2f826060015133866040518463ffffffff1660e01b8152600401611c1993929190613f24565b600061212761329a565b6001606a836040516121399190613e74565b9081526040519081900360200190206003018054911515600160a01b0260ff60a01b19909216919091179055506001919050565b6068546040805163a0d0712560e01b815290516000926001600160a01b03169163a0d071259160048083019260209291908290030181865afa158015611cb1573d6000803e3d6000fd5b600080606a846040516121ca9190613e74565b90815260200160405180910390206040518060a00160405290816000820180546121f390613d2c565b80601f016020809104026020016040519081016040528092919081815260200182805461221f90613d2c565b801561226c5780601f106122415761010080835404028352916020019161226c565b820191906000526020600020905b81548152906001019060200180831161224f57829003601f168201915b505050918352505060018201546001600160a01b0390811660208301526002830154811660408301526003909201549182166060820152600160a01b90910460ff1615156080918201528101519091506122c5906132f4565b15156001146122e65760405162461bcd60e51b8152600401610f7790613ed1565b80602001516001600160a01b0316336001600160a01b03161461231b5760405162461bcd60e51b8152600401610f7790613ef9565b80604001516001600160a01b0316634b5df6cc846040518263ffffffff1660e01b815260040161234d91815260200190565b600060405180830381600087803b15801561236757600080fd5b505af115801561237b573d6000803e3d6000fd5b506001979650505050505050565b600080606a8360405161239c9190613e74565b90815260200160405180910390206040518060a00160405290816000820180546123c590613d2c565b80601f01602080910402602001604051908101604052809291908181526020018280546123f190613d2c565b801561243e5780601f106124135761010080835404028352916020019161243e565b820191906000526020600020905b81548152906001019060200180831161242157829003601f168201915b505050918352505060018201546001600160a01b03908116602080840191909152600284015482166040808501919091526003909401548083166060850152600160a01b900460ff1615156080909301929092528383015183516316e17b8d60e01b8152935194955016926316e17b8d9260048082019392918290030181865afa1580156124d0573d6000803e3d6000fd5b505050506040513d601f19601f820116820180604052508101906124f49190613d7d565b9392505050565b600061250561329a565b61253b606a856040516125189190613e74565b9081526040519081900360200190206003015460ff600160a01b909104166132f4565b151560011461255c5760405162461bcd60e51b8152600401610f7790613ed1565b606a8460405161256c9190613e74565b908152604051908190036020018120600201546001600160a01b0316906373927c1190606a9061259d908890613e74565b908152604051908190036020018120600301546068546001600160e01b031960e085901b1683526001600160a01b0391821660048401528116602483015286166044820152606481018590526084016020604051808303816000875af115801561260b573d6000803e3d6000fd5b505050506040513d601f19601f8201168201806040525081019061262f9190613dbf565b506068546040516001600160a01b039091169063d16cfcc190606a90612656908890613e74565b908152604051908190036020018120600301546001600160e01b031960e084901b16825261234d916001600160a01b039091169087908790600401613f24565b600054610100900460ff16158080156126b65750600054600160ff909116105b806126d05750303b1580156126d0575060005460ff166001145b6127335760405162461bcd60e51b815260206004820152602e60248201527f496e697469616c697a61626c653a20636f6e747261637420697320616c72656160448201526d191e481a5b9a5d1a585b1a5e995960921b6064820152608401610f77565b6000805460ff191660011790558015612756576000805461ff0019166101001790555b606580546001600160a01b038087166001600160a01b03199283161790925560668054868416908316179055606780549285169290911691909117905561279b6134d5565b80156127e1576000805461ff0019169055604051600181527f7f26b83ff96e1f2b6a682f133852f6798a09c465da95921460cefb38474024989060200160405180910390a15b50505050565b60685460408051630c31495960e41b815290516000926001600160a01b03169163c31495909160048083019260209291908290030181865afa158015611cb1573d6000803e3d6000fd5b600080606a846040516128449190613e74565b90815260200160405180910390206040518060a001604052908160008201805461286d90613d2c565b80601f016020809104026020016040519081016040528092919081815260200182805461289990613d2c565b80156128e65780601f106128bb576101008083540402835291602001916128e6565b820191906000526020600020905b8154815290600101906020018083116128c957829003601f168201915b505050918352505060018201546001600160a01b0390811660208301526002830154811660408301526003909201549182166060820152600160a01b90910460ff16151560809182015281015190915061293f906132f4565b15156001146129605760405162461bcd60e51b8152600401610f7790613ed1565b60408082015190516358ae710560e11b8152336004820152602481018590526001600160a01b039091169063b15ce20a906044015b6020604051808303816000875af11580156129b4573d6000803e3d6000fd5b505050506040513d601f19601f820116820180604052508101906129d89190613dbf565b156129e7576001915050610cd2565b5092915050565b60685460408051636999350560e11b815290516000926001600160a01b03169163d3326a0a9160048083019260209291908290030181865afa158015611cb1573d6000803e3d6000fd5b600080606a84604051612a4b9190613e74565b90815260200160405180910390206040518060a0016040529081600082018054612a7490613d2c565b80601f0160208091040260200160405190810160405280929190818152602001828054612aa090613d2c565b8015612aed5780601f10612ac257610100808354040283529160200191612aed565b820191906000526020600020905b815481529060010190602001808311612ad057829003601f168201915b505050918352505060018201546001600160a01b0390811660208301526002830154811660408301526003909201549182166060820152600160a01b90910460ff161515608091820152810151909150612b46906132f4565b1515600114612b675760405162461bcd60e51b8152600401610f7790613ed1565b80604001516001600160a01b03166360829f8a826060015133866040518463ffffffff1660e01b815260040161299593929190613f24565b600080606a83604051612bb29190613e74565b90815260200160405180910390206040518060a0016040529081600082018054612bdb90613d2c565b80601f0160208091040260200160405190810160405280929190818152602001828054612c0790613d2c565b8015612c545780601f10612c2957610100808354040283529160200191612c54565b820191906000526020600020905b815481529060010190602001808311612c3757829003601f168201915b505050918352505060018201546001600160a01b03908116602080840191909152600284015482166040808501919091526003909401548083166060850152600160a01b900460ff16151560809093019290925283830151835163383639b360e01b81529351949550169263383639b39260048082019392918290030181865afa1580156124d0573d6000803e3d6000fd5b8051602081830181018051606a82529282019190930120915280548190611f0590613d2c565b6068546040805163e5125d7b60e01b815290516000926001600160a01b03169163e5125d7b9160048083019260209291908290030181865afa158015611cb1573d6000803e3d6000fd5b6000612d6061329a565b6001600160a01b03929092166000908152606b60205260409020805460ff191691151591909117905590565b6000612da1606a836040516125189190613e74565b1515600114612dc25760405162461bcd60e51b8152600401610f7790613ed1565b606a82604051612dd29190613e74565b908152604051908190036020018120600201546001600160a01b0316906310775e7490606a90612e03908690613e74565b908152604051908190036020018120600301546001600160a01b031690606a90612e2e908790613e74565b908152604051908190036020018120600101546001600160e01b031960e085901b1682526001600160a01b0392831660048301529190911660248201526044016020604051808303816000875af1158015612e8d573d6000803e3d6000fd5b505050506040513d601f19601f82011682018060405250810190612eb19190613dbf565b50600192915050565b6000612ec461329a565b6001600160a01b038316612f095760405162461bcd60e51b815260206004820152600c60248201526b41646472657373205a65726f60a01b6044820152606401610f77565b606854604051630be5e47b60e11b81526001600160a01b03909116906317cbc8f690611c1990879087908790600401613f24565b612f4561329a565b6001600160a01b038116612faa5760405162461bcd60e51b815260206004820152602660248201527f4f776e61626c653a206e6577206f776e657220697320746865207a65726f206160448201526564647265737360d01b6064820152608401610f77565b61101481613483565b600080606a84604051612fc69190613e74565b90815260200160405180910390206040518060a0016040529081600082018054612fef90613d2c565b80601f016020809104026020016040519081016040528092919081815260200182805461301b90613d2c565b80156130685780601f1061303d57610100808354040283529160200191613068565b820191906000526020600020905b81548152906001019060200180831161304b57829003601f168201915b505050918352505060018201546001600160a01b0390811660208301526002830154811660408301526003909201549182166060820152600160a01b90910460ff1615156080918201528101519091506130c1906132f4565b15156001146130e25760405162461bcd60e51b8152600401610f7790613ed1565b80602001516001600160a01b0316336001600160a01b0316146131175760405162461bcd60e51b8152600401610f7790613ef9565b80604001516001600160a01b0316633147096d82606001518360200151866040518463ffffffff1660e01b8152600401611c1993929190613f24565b600080606a836040516131669190613e74565b90815260200160405180910390206040518060a001604052908160008201805461318f90613d2c565b80601f01602080910402602001604051908101604052809291908181526020018280546131bb90613d2c565b80156132085780601f106131dd57610100808354040283529160200191613208565b820191906000526020600020905b8154815290600101906020018083116131eb57829003601f168201915b505050918352505060018201546001600160a01b03908116602080840191909152600284015482166040808501919091526003909401548083166060850152600160a01b900460ff161515608090930192909252838301518351634a94bcb360e01b815293519495501692634a94bcb39260048082019392918290030181865afa1580156124d0573d6000803e3d6000fd5b6033546001600160a01b03163314611cec5760405162461bcd60e51b815260206004820181905260248201527f4f776e61626c653a2063616c6c6572206973206e6f7420746865206f776e65726044820152606401610f77565b60008115613303576000610cd2565b600192915050565b61101461329a565b7f4910fdfa16fed3260ed0e7147f7cc6da11a60208b5b9406d12a635614ffd91435460ff161561334b5761334683613504565b505050565b826001600160a01b03166352d1902d6040518163ffffffff1660e01b8152600401602060405180830381865afa9250505080156133a5575060408051601f3d908101601f191682019092526133a291810190613d7d565b60015b6134085760405162461bcd60e51b815260206004820152602e60248201527f45524331393637557067726164653a206e657720696d706c656d656e7461746960448201526d6f6e206973206e6f74205555505360901b6064820152608401610f77565b600080516020613ff083398151915281146134775760405162461bcd60e51b815260206004820152602960248201527f45524331393637557067726164653a20756e737570706f727465642070726f786044820152681a58589b195555525160ba1b6064820152608401610f77565b506133468383836135a0565b603380546001600160a01b038381166001600160a01b0319831681179093556040519116919082907f8be0079c531659141344cd1fd0a4f28419497f9722a3daafe3b4186f6b6457e090600090a35050565b600054610100900460ff166134fc5760405162461bcd60e51b8152600401610f7790613f91565b611cec6135c5565b6001600160a01b0381163b6135715760405162461bcd60e51b815260206004820152602d60248201527f455243313936373a206e657720696d706c656d656e746174696f6e206973206e60448201526c1bdd08184818dbdb9d1c9858dd609a1b6064820152608401610f77565b600080516020613ff083398151915280546001600160a01b0319166001600160a01b0392909216919091179055565b6135a9836135f5565b6000825111806135b65750805b15613346576127e18383613635565b600054610100900460ff166135ec5760405162461bcd60e51b8152600401610f7790613f91565b611cec33613483565b6135fe81613504565b6040516001600160a01b038216907fbc7cd75a20ee27fd9adebab32041f755214dbc6bffa90cc0225b39da2e5c2d3b90600090a250565b6060610ccf8383604051806060016040528060278152602001614010602791396060600080856001600160a01b0316856040516136729190613e74565b600060405180830381855af49150503d80600081146136ad576040519150601f19603f3d011682016040523d82523d6000602084013e6136b2565b606091505b50915091506136c3868383876136cd565b9695505050505050565b60608315613739578251613732576001600160a01b0385163b6137325760405162461bcd60e51b815260206004820152601d60248201527f416464726573733a2063616c6c20746f206e6f6e2d636f6e74726163740000006044820152606401610f77565b5081613743565b613743838361374b565b949350505050565b81511561375b5781518083602001fd5b8060405162461bcd60e51b8152600401610f779190613fdc565b82805461378190613d2c565b90600052602060002090601f0160209004810192826137a357600085556137e9565b82601f106137bc57805160ff19168380011785556137e9565b828001600101855582156137e9579182015b828111156137e95782518255916020019190600101906137ce565b506137f59291506137f9565b5090565b5b808211156137f557600081556001016137fa565b60005b83811015613829578181015183820152602001613811565b838111156127e15750506000910152565b6000815180845261385281602086016020860161380e565b601f01601f19169290920160200192915050565b60006020808301818452808551808352604092508286019150828160051b87010184880160005b838110156138ff57603f19898403018552815160a081518186526138b38287018261383a565b838b01516001600160a01b03908116888d01528a85015181168b89015260608086015190911690880152608093840151151593909601929092525050938601939086019060010161388d565b509098975050505050505050565b6001600160a01b038116811461101457600080fd5b6000806040838503121561393557600080fd5b82356139408161390d565b915060208301356139508161390d565b809150509250929050565b60006020828403121561396d57600080fd5b81356124f48161390d565b634e487b7160e01b600052604160045260246000fd5b600082601f83011261399f57600080fd5b813567ffffffffffffffff808211156139ba576139ba613978565b604051601f8301601f19908116603f011681019082821181831017156139e2576139e2613978565b816040528381528660208588010111156139fb57600080fd5b836020870160208301376000602085830101528094505050505092915050565b600060208284031215613a2d57600080fd5b813567ffffffffffffffff811115613a4457600080fd5b6137438482850161398e565b60008060008060808587031215613a6657600080fd5b843567ffffffffffffffff80821115613a7e57600080fd5b613a8a8883890161398e565b95506020870135915080821115613aa057600080fd5b50613aad8782880161398e565b9350506040850135613abe8161390d565b91506060850135613ace8161390d565b939692955090935050565b60008060408385031215613aec57600080fd5b8235613af78161390d565b9150602083013567ffffffffffffffff811115613b1357600080fd5b613b1f8582860161398e565b9150509250929050565b600080600060608486031215613b3e57600080fd5b833567ffffffffffffffff811115613b5557600080fd5b613b618682870161398e565b9660208601359650604090950135949350505050565b60008060408385031215613b8a57600080fd5b823567ffffffffffffffff811115613ba157600080fd5b613bad8582860161398e565b95602094909401359450505050565b600060208284031215613bce57600080fd5b5035919050565b60a081526000613be860a083018861383a565b6001600160a01b039687166020840152948616604083015250919093166060820152911515608090920191909152919050565b600080600060608486031215613c3057600080fd5b833567ffffffffffffffff811115613c4757600080fd5b613c538682870161398e565b9350506020840135613c648161390d565b929592945050506040919091013590565b600080600060608486031215613c8a57600080fd5b8335613c958161390d565b92506020840135613ca58161390d565b91506040840135613cb58161390d565b809150509250925092565b801515811461101457600080fd5b60008060408385031215613ce157600080fd5b8235613cec8161390d565b9150602083013561395081613cc0565b600080600060608486031215613d1157600080fd5b8335613d1c8161390d565b92506020840135613c648161390d565b600181811c90821680613d4057607f821691505b60208210811415613d6157634e487b7160e01b600052602260045260246000fd5b50919050565b634e487b7160e01b600052603260045260246000fd5b600060208284031215613d8f57600080fd5b5051919050565b6000600019821415613db857634e487b7160e01b600052601160045260246000fd5b5060010190565b600060208284031215613dd157600080fd5b81516124f481613cc0565b6020808252602c908201527f46756e6374696f6e206d7573742062652063616c6c6564207468726f7567682060408201526b19195b1959d85d1958d85b1b60a21b606082015260800190565b6020808252602c908201527f46756e6374696f6e206d7573742062652063616c6c6564207468726f7567682060408201526b6163746976652070726f787960a01b606082015260800190565b60008251613e8681846020870161380e565b9190910192915050565b6001600160a01b03831681526040602082018190526000906137439083018461383a565b600060208284031215613ec657600080fd5b81516124f48161390d565b6020808252600e908201526d109bdd5b9d1e481a5cc81119585960921b604082015260600190565b6020808252601190820152702737ba10383937b532b1ba1037bbb732b960791b604082015260600190565b6001600160a01b039384168152919092166020820152604081019190915260600190565b60008060408385031215613f5b57600080fd5b82519150602083015161395081613cc0565b60008060408385031215613f8057600080fd5b505080516020909101519092909150565b6020808252602b908201527f496e697469616c697a61626c653a20636f6e7472616374206973206e6f74206960408201526a6e697469616c697a696e6760a81b606082015260800190565b602081526000610ccf602083018461383a56fe360894a13ba1a3210667c828492db98dca3e2076cc3735a920a3ca505d382bbc416464726573733a206c6f772d6c6576656c2064656c65676174652063616c6c206661696c6564a2646970667358221220270192b474e12b743f3f7d4a7b7d27bf8aceb12f39176cbe75667a66bfa272c964736f6c634300080a0033",
    "linkReferences": {}
  },
  "methodIdentifiers": {
    "beacon()": "59659e90",
    "billPremiumForAll()": "27e73542",
    "billPremiumForOnePool(string)": "e6b37f6f",
    "bountiesList(uint256)": "7f2f3e5e",
    "bountyDetails(string)": "d7dc56a5",
    "bountyImplementation()": "cae38faa",
    "claimPremium(string)": "666b7030",
    "deployNewBounty(bytes,string,address,address)": "4c0d9a6c",
    "factory()": "c45a0155",
    "getBountyAddressByName(string)": "66b6c647",
    "initialize(address,address,address)": "c0c53b8b",
    "killBounty(string)": "9ca7e787",
    "owner()": "8da5cb5b",
    "payBounty(string,address,uint256)": "bc160761",
    "projectDeposit(string,uint256)": "f4808fea",
    "projectDepositWithdrawal(string,uint256)": "68dd3dbf",
    "proxiableUUID()": "52d1902d",
    "renounceOwnership()": "715018a6",
    "saloonWallet()": "4389e41a",
    "scheduleProjectDepositWithdrawal(string,uint256)": "b8047881",
    "scheduleUnstake(string,uint256)": "d16ad2f7",
    "setBountyCapAndAPY(string,uint256,uint256)": "58b07d5b",
    "stake(string,uint256)": "9494c8ae",
    "tokenWhitelist(address)": "753d7563",
    "transferOwnership(address)": "f2fde38b",
    "unstake(string,uint256)": "d37c92dc",
    "updateBountyPoolImplementation(address)": "53dce856",
    "updateSaloonWallet(address)": "79f99a89",
    "updateTokenWhitelist(address,bool)": "e5e97c65",
    "upgradeTo(address)": "3659cfe6",
    "upgradeToAndCall(address,bytes)": "4f1ef286",
    "viewAllBountiesByName()": "03c46f51",
    "viewBountyOwner(string)": "37787926",
    "viewBountyPayout(string)": "ff8d30fb",
    "viewHunterTotalTokenPayouts(address,address)": "21580322",
    "viewProjectDeposit(string)": "d3c15cdb",
    "viewSaloonBalance()": "a0d07125",
    "viewTotalEarnedSaloon()": "6c948535",
    "viewTotalHackerPayouts()": "c3149590",
    "viewTotalPremiums()": "e5125d7b",
    "viewTotalSaloonCommission()": "d3326a0a",
    "viewUserStakingBalance(string)": "7dd03e8f",
    "viewstakersDeposit(string)": "b91cdea7",
    "withdrawSaloon(address,address,uint256)": "f0e6b4ed",
    "withdrawSaloonPremiumFees()": "0e060249"
  },
  "id": 28
}