{
  "abi": [
    {
      "anonymous": false,
      "inputs": [
        {
          "indexed": false,
          "internalType": "address",
          "name": "previousAdmin",
          "type": "address"
        },
        {
          "indexed": false,
          "internalType": "address",
          "name": "newAdmin",
          "type": "address"
        }
      ],
      "name": "AdminChanged",
      "type": "event"
    },
    {
      "anonymous": false,
      "inputs": [
        {
          "indexed": true,
          "internalType": "address",
          "name": "beacon",
          "type": "address"
        }
      ],
      "name": "BeaconUpgraded",
      "type": "event"
    },
    {
      "anonymous": false,
      "inputs": [
        {
          "indexed": true,
          "internalType": "string",
          "name": "projectName",
          "type": "string"
        }
      ],
      "name": "BountyKilled",
      "type": "event"
    },
    {
      "anonymous": false,
      "inputs": [
        {
          "indexed": true,
          "internalType": "uint256",
          "name": "time",
          "type": "uint256"
        },
        {
          "indexed": true,
          "internalType": "address",
          "name": "hunter",
          "type": "address"
        },
        {
          "indexed": true,
          "internalType": "uint256",
          "name": "amount",
          "type": "uint256"
        },
        {
          "indexed": false,
          "internalType": "address",
          "name": "token",
          "type": "address"
        }
      ],
      "name": "BountyPaid",
      "type": "event"
    },
    {
      "anonymous": false,
      "inputs": [
        {
          "indexed": true,
          "internalType": "address",
          "name": "newImplementation",
          "type": "address"
        }
      ],
      "name": "BountyPoolImplementationUpdated",
      "type": "event"
    },
    {
      "anonymous": false,
      "inputs": [
        {
          "indexed": true,
          "internalType": "address",
          "name": "sender",
          "type": "address"
        },
        {
          "indexed": true,
          "internalType": "address",
          "name": "_projectWallet",
          "type": "address"
        },
        {
          "indexed": false,
          "internalType": "contract BountyPool",
          "name": "newProxyAddress",
          "type": "address"
        }
      ],
      "name": "DeployNewBounty",
      "type": "event"
    },
    {
      "anonymous": false,
      "inputs": [
        {
          "indexed": true,
          "internalType": "string",
          "name": "projectName",
          "type": "string"
        },
        {
          "indexed": true,
          "internalType": "uint256",
          "name": "oldAmount",
          "type": "uint256"
        },
        {
          "indexed": true,
          "internalType": "uint256",
          "name": "newAmount",
          "type": "uint256"
        }
      ],
      "name": "HackerPayoutChanged",
      "type": "event"
    },
    {
      "anonymous": false,
      "inputs": [
        {
          "indexed": false,
          "internalType": "uint8",
          "name": "version",
          "type": "uint8"
        }
      ],
      "name": "Initialized",
      "type": "event"
    },
    {
      "anonymous": false,
      "inputs": [
        {
          "indexed": true,
          "internalType": "address",
          "name": "previousOwner",
          "type": "address"
        },
        {
          "indexed": true,
          "internalType": "address",
          "name": "newOwner",
          "type": "address"
        }
      ],
      "name": "OwnershipTransferred",
      "type": "event"
    },
    {
      "anonymous": false,
      "inputs": [
        {
          "indexed": true,
          "internalType": "string",
          "name": "projectName",
          "type": "string"
        },
        {
          "indexed": true,
          "internalType": "uint256",
          "name": "poolCap",
          "type": "uint256"
        },
        {
          "indexed": true,
          "internalType": "uint256",
          "name": "apy",
          "type": "uint256"
        }
      ],
      "name": "PoolCapAndAPYChanged",
      "type": "event"
    },
    {
      "anonymous": false,
      "inputs": [
        {
          "indexed": true,
          "internalType": "string",
          "name": "projectName",
          "type": "string"
        },
        {
          "indexed": true,
          "internalType": "address",
          "name": "projectWallet",
          "type": "address"
        }
      ],
      "name": "PremiumBilled",
      "type": "event"
    },
    {
      "anonymous": false,
      "inputs": [
        {
          "indexed": true,
          "internalType": "address",
          "name": "token",
          "type": "address"
        },
        {
          "indexed": true,
          "internalType": "uint256",
          "name": "amount",
          "type": "uint256"
        }
      ],
      "name": "SaloonFundsWithdrawal",
      "type": "event"
    },
    {
      "anonymous": false,
      "inputs": [
        {
          "indexed": true,
          "internalType": "uint256",
          "name": "totalCollected",
          "type": "uint256"
        }
      ],
      "name": "SaloonPremiumCollected",
      "type": "event"
    },
    {
      "anonymous": false,
      "inputs": [
        {
          "indexed": true,
          "internalType": "string",
          "name": "projectName",
          "type": "string"
        },
        {
          "indexed": true,
          "internalType": "uint256",
          "name": "previousStaked",
          "type": "uint256"
        },
        {
          "indexed": true,
          "internalType": "uint256",
          "name": "newStaked",
          "type": "uint256"
        }
      ],
      "name": "StakedAmountChanged",
      "type": "event"
    },
    {
      "anonymous": false,
      "inputs": [
        {
          "indexed": true,
          "internalType": "address",
          "name": "implementation",
          "type": "address"
        }
      ],
      "name": "Upgraded",
      "type": "event"
    },
    {
      "anonymous": false,
      "inputs": [
        {
          "indexed": true,
          "internalType": "string",
          "name": "projectName",
          "type": "string"
        },
        {
          "indexed": true,
          "internalType": "uint256",
          "name": "amount",
          "type": "uint256"
        }
      ],
      "name": "WithdrawalorUnstakeScheduled",
      "type": "event"
    },
    {
      "anonymous": false,
      "inputs": [
        {
          "indexed": true,
          "internalType": "address",
          "name": "token",
          "type": "address"
        },
        {
          "indexed": true,
          "internalType": "bool",
          "name": "whitelisted",
          "type": "bool"
        }
      ],
      "name": "tokenWhitelistUpdated",
      "type": "event"
    },
    {
      "inputs": [],
      "name": "beacon",
      "outputs": [
        {
          "internalType": "contract UpgradeableBeacon",
          "name": "",
          "type": "address"
        }
      ],
      "stateMutability": "view",
      "type": "function"
    },
    {
      "inputs": [],
      "name": "billPremiumForAll",
      "outputs": [
        {
          "internalType": "bool",
          "name": "",
          "type": "bool"
        }
      ],
      "stateMutability": "nonpayable",
      "type": "function"
    },
    {
      "inputs": [
        {
          "internalType": "string",
          "name": "_projectName",
          "type": "string"
        }
      ],
      "name": "billPremiumForOnePool",
      "outputs": [
        {
          "internalType": "bool",
          "name": "",
          "type": "bool"
        }
      ],
      "stateMutability": "nonpayable",
      "type": "function"
    },
    {
      "inputs": [
        {
          "internalType": "uint256",
          "name": "",
          "type": "uint256"
        }
      ],
      "name": "bountiesList",
      "outputs": [
        {
          "internalType": "string",
          "name": "projectName",
          "type": "string"
        },
        {
          "internalType": "address",
          "name": "projectWallet",
          "type": "address"
        },
        {
          "internalType": "contract BountyPool",
          "name": "proxyAddress",
          "type": "address"
        },
        {
          "internalType": "address",
          "name": "token",
          "type": "address"
        },
        {
          "internalType": "bool",
          "name": "dead",
          "type": "bool"
        }
      ],
      "stateMutability": "view",
      "type": "function"
    },
    {
      "inputs": [
        {
          "internalType": "string",
          "name": "",
          "type": "string"
        }
      ],
      "name": "bountyDetails",
      "outputs": [
        {
          "internalType": "string",
          "name": "projectName",
          "type": "string"
        },
        {
          "internalType": "address",
          "name": "projectWallet",
          "type": "address"
        },
        {
          "internalType": "contract BountyPool",
          "name": "proxyAddress",
          "type": "address"
        },
        {
          "internalType": "address",
          "name": "token",
          "type": "address"
        },
        {
          "internalType": "bool",
          "name": "dead",
          "type": "bool"
        }
      ],
      "stateMutability": "view",
      "type": "function"
    },
    {
      "inputs": [],
      "name": "bountyImplementation",
      "outputs": [
        {
          "internalType": "address",
          "name": "",
          "type": "address"
        }
      ],
      "stateMutability": "view",
      "type": "function"
    },
    {
      "inputs": [
        {
          "internalType": "string",
          "name": "_projectName",
          "type": "string"
        }
      ],
      "name": "claimPremium",
      "outputs": [
        {
          "internalType": "uint256",
          "name": "",
          "type": "uint256"
        }
      ],
      "stateMutability": "nonpayable",
      "type": "function"
    },
    {
      "inputs": [
        {
          "internalType": "bytes",
          "name": "_data",
          "type": "bytes"
        },
        {
          "internalType": "string",
          "name": "_projectName",
          "type": "string"
        },
        {
          "internalType": "address",
          "name": "_token",
          "type": "address"
        },
        {
          "internalType": "address",
          "name": "_projectWallet",
          "type": "address"
        }
      ],
      "name": "deployNewBounty",
      "outputs": [
        {
          "internalType": "contract BountyPool",
          "name": "",
          "type": "address"
        },
        {
          "internalType": "bool",
          "name": "",
          "type": "bool"
        }
      ],
      "stateMutability": "nonpayable",
      "type": "function"
    },
    {
      "inputs": [],
      "name": "factory",
      "outputs": [
        {
          "internalType": "contract BountyProxyFactory",
          "name": "",
          "type": "address"
        }
      ],
      "stateMutability": "view",
      "type": "function"
    },
    {
      "inputs": [
        {
          "internalType": "string",
          "name": "_projectName",
          "type": "string"
        }
      ],
      "name": "getBountyAddressByName",
      "outputs": [
        {
          "internalType": "address",
          "name": "",
          "type": "address"
        }
      ],
      "stateMutability": "view",
      "type": "function"
    },
    {
      "inputs": [
        {
          "internalType": "contract BountyProxyFactory",
          "name": "_factory",
          "type": "address"
        },
        {
          "internalType": "contract UpgradeableBeacon",
          "name": "_beacon",
          "type": "address"
        },
        {
          "internalType": "address",
          "name": "_bountyImplementation",
          "type": "address"
        }
      ],
      "name": "initialize",
      "outputs": [],
      "stateMutability": "nonpayable",
      "type": "function"
    },
    {
      "inputs": [
        {
          "internalType": "string",
          "name": "_projectName",
          "type": "string"
        }
      ],
      "name": "killBounty",
      "outputs": [
        {
          "internalType": "bool",
          "name": "",
          "type": "bool"
        }
      ],
      "stateMutability": "nonpayable",
      "type": "function"
    },
    {
      "inputs": [],
      "name": "owner",
      "outputs": [
        {
          "internalType": "address",
          "name": "",
          "type": "address"
        }
      ],
      "stateMutability": "view",
      "type": "function"
    },
    {
      "inputs": [
        {
          "internalType": "string",
          "name": "_projectName",
          "type": "string"
        },
        {
          "internalType": "address",
          "name": "_hunter",
          "type": "address"
        },
        {
          "internalType": "uint256",
          "name": "_amount",
          "type": "uint256"
        }
      ],
      "name": "payBounty",
      "outputs": [
        {
          "internalType": "bool",
          "name": "",
          "type": "bool"
        }
      ],
      "stateMutability": "nonpayable",
      "type": "function"
    },
    {
      "inputs": [
        {
          "internalType": "string",
          "name": "_projectName",
          "type": "string"
        },
        {
          "internalType": "uint256",
          "name": "_amount",
          "type": "uint256"
        }
      ],
      "name": "projectDeposit",
      "outputs": [
        {
          "internalType": "bool",
          "name": "",
          "type": "bool"
        }
      ],
      "stateMutability": "nonpayable",
      "type": "function"
    },
    {
      "inputs": [
        {
          "internalType": "string",
          "name": "_projectName",
          "type": "string"
        },
        {
          "internalType": "uint256",
          "name": "_amount",
          "type": "uint256"
        }
      ],
      "name": "projectDepositWithdrawal",
      "outputs": [
        {
          "internalType": "bool",
          "name": "",
          "type": "bool"
        }
      ],
      "stateMutability": "nonpayable",
      "type": "function"
    },
    {
      "inputs": [],
      "name": "proxiableUUID",
      "outputs": [
        {
          "internalType": "bytes32",
          "name": "",
          "type": "bytes32"
        }
      ],
      "stateMutability": "view",
      "type": "function"
    },
    {
      "inputs": [],
      "name": "renounceOwnership",
      "outputs": [],
      "stateMutability": "nonpayable",
      "type": "function"
    },
    {
      "inputs": [],
      "name": "saloonWallet",
      "outputs": [
        {
          "internalType": "contract SaloonWallet",
          "name": "",
          "type": "address"
        }
      ],
      "stateMutability": "view",
      "type": "function"
    },
    {
      "inputs": [
        {
          "internalType": "string",
          "name": "_projectName",
          "type": "string"
        },
        {
          "internalType": "uint256",
          "name": "_amount",
          "type": "uint256"
        }
      ],
      "name": "scheduleProjectDepositWithdrawal",
      "outputs": [
        {
          "internalType": "bool",
          "name": "",
          "type": "bool"
        }
      ],
      "stateMutability": "nonpayable",
      "type": "function"
    },
    {
      "inputs": [
        {
          "internalType": "string",
          "name": "_projectName",
          "type": "string"
        },
        {
          "internalType": "uint256",
          "name": "_amount",
          "type": "uint256"
        }
      ],
      "name": "scheduleUnstake",
      "outputs": [
        {
          "internalType": "bool",
          "name": "",
          "type": "bool"
        }
      ],
      "stateMutability": "nonpayable",
      "type": "function"
    },
    {
      "inputs": [
        {
          "internalType": "string",
          "name": "_projectName",
          "type": "string"
        },
        {
          "internalType": "uint256",
          "name": "_poolCap",
          "type": "uint256"
        },
        {
          "internalType": "uint256",
          "name": "_desiredAPY",
          "type": "uint256"
        }
      ],
      "name": "setBountyCapAndAPY",
      "outputs": [
        {
          "internalType": "bool",
          "name": "",
          "type": "bool"
        }
      ],
      "stateMutability": "nonpayable",
      "type": "function"
    },
    {
      "inputs": [
        {
          "internalType": "string",
          "name": "_projectName",
          "type": "string"
        },
        {
          "internalType": "uint256",
          "name": "_amount",
          "type": "uint256"
        }
      ],
      "name": "stake",
      "outputs": [
        {
          "internalType": "bool",
          "name": "",
          "type": "bool"
        }
      ],
      "stateMutability": "nonpayable",
      "type": "function"
    },
    {
      "inputs": [
        {
          "internalType": "address",
          "name": "",
          "type": "address"
        }
      ],
      "name": "tokenWhitelist",
      "outputs": [
        {
          "internalType": "bool",
          "name": "",
          "type": "bool"
        }
      ],
      "stateMutability": "view",
      "type": "function"
    },
    {
      "inputs": [
        {
          "internalType": "address",
          "name": "newOwner",
          "type": "address"
        }
      ],
      "name": "transferOwnership",
      "outputs": [],
      "stateMutability": "nonpayable",
      "type": "function"
    },
    {
      "inputs": [
        {
          "internalType": "string",
          "name": "_projectName",
          "type": "string"
        },
        {
          "internalType": "uint256",
          "name": "_amount",
          "type": "uint256"
        }
      ],
      "name": "unstake",
      "outputs": [
        {
          "internalType": "bool",
          "name": "",
          "type": "bool"
        }
      ],
      "stateMutability": "nonpayable",
      "type": "function"
    },
    {
      "inputs": [
        {
          "internalType": "address",
          "name": "_newImplementation",
          "type": "address"
        }
      ],
      "name": "updateBountyPoolImplementation",
      "outputs": [
        {
          "internalType": "bool",
          "name": "",
          "type": "bool"
        }
      ],
      "stateMutability": "nonpayable",
      "type": "function"
    },
    {
      "inputs": [
        {
          "internalType": "address",
          "name": "_newWallet",
          "type": "address"
        }
      ],
      "name": "updateSaloonWallet",
      "outputs": [],
      "stateMutability": "nonpayable",
      "type": "function"
    },
    {
      "inputs": [
        {
          "internalType": "address",
          "name": "_token",
          "type": "address"
        },
        {
          "internalType": "bool",
          "name": "_whitelisted",
          "type": "bool"
        }
      ],
      "name": "updateTokenWhitelist",
      "outputs": [
        {
          "internalType": "bool",
          "name": "",
          "type": "bool"
        }
      ],
      "stateMutability": "nonpayable",
      "type": "function"
    },
    {
      "inputs": [
        {
          "internalType": "address",
          "name": "newImplementation",
          "type": "address"
        }
      ],
      "name": "upgradeTo",
      "outputs": [],
      "stateMutability": "nonpayable",
      "type": "function"
    },
    {
      "inputs": [
        {
          "internalType": "address",
          "name": "newImplementation",
          "type": "address"
        },
        {
          "internalType": "bytes",
          "name": "data",
          "type": "bytes"
        }
      ],
      "name": "upgradeToAndCall",
      "outputs": [],
      "stateMutability": "payable",
      "type": "function"
    },
    {
      "inputs": [],
      "name": "viewAllBountiesByName",
      "outputs": [
        {
          "components": [
            {
              "internalType": "string",
              "name": "projectName",
              "type": "string"
            },
            {
              "internalType": "address",
              "name": "projectWallet",
              "type": "address"
            },
            {
              "internalType": "contract BountyPool",
              "name": "proxyAddress",
              "type": "address"
            },
            {
              "internalType": "address",
              "name": "token",
              "type": "address"
            },
            {
              "internalType": "bool",
              "name": "dead",
              "type": "bool"
            }
          ],
          "internalType": "struct BountyProxiesManager.Bounties[]",
          "name": "",
          "type": "tuple[]"
        }
      ],
      "stateMutability": "view",
      "type": "function"
    },
    {
      "inputs": [
        {
          "internalType": "string",
          "name": "_projectName",
          "type": "string"
        }
      ],
      "name": "viewBountyBalance",
      "outputs": [
        {
          "internalType": "uint256",
          "name": "",
          "type": "uint256"
        }
      ],
      "stateMutability": "view",
      "type": "function"
    },
    {
      "inputs": [
        {
          "internalType": "string",
          "name": "_projectName",
          "type": "string"
        }
      ],
      "name": "viewBountyInfo",
      "outputs": [
        {
          "internalType": "uint256",
          "name": "payout",
          "type": "uint256"
        },
        {
          "internalType": "uint256",
          "name": "apy",
          "type": "uint256"
        },
        {
          "internalType": "uint256",
          "name": "staked",
          "type": "uint256"
        },
        {
          "internalType": "uint256",
          "name": "poolCap",
          "type": "uint256"
        }
      ],
      "stateMutability": "view",
      "type": "function"
    },
    {
      "inputs": [
        {
          "internalType": "string",
          "name": "_projectName",
          "type": "string"
        }
      ],
      "name": "viewBountyOwner",
      "outputs": [
        {
          "internalType": "address",
          "name": "",
          "type": "address"
        }
      ],
      "stateMutability": "view",
      "type": "function"
    },
    {
      "inputs": [
        {
          "internalType": "string",
          "name": "_projectName",
          "type": "string"
        }
      ],
      "name": "viewDesiredAPY",
      "outputs": [
        {
          "internalType": "uint256",
          "name": "",
          "type": "uint256"
        }
      ],
      "stateMutability": "view",
      "type": "function"
    },
    {
      "inputs": [
        {
          "internalType": "string",
          "name": "_projectName",
          "type": "string"
        }
      ],
      "name": "viewHackerPayout",
      "outputs": [
        {
          "internalType": "uint256",
          "name": "",
          "type": "uint256"
        }
      ],
      "stateMutability": "view",
      "type": "function"
    },
    {
      "inputs": [
        {
          "internalType": "address",
          "name": "_token",
          "type": "address"
        },
        {
          "internalType": "address",
          "name": "_hunter",
          "type": "address"
        }
      ],
      "name": "viewHunterTotalTokenPayouts",
      "outputs": [
        {
          "internalType": "uint256",
          "name": "",
          "type": "uint256"
        }
      ],
      "stateMutability": "view",
      "type": "function"
    },
    {
      "inputs": [
        {
          "internalType": "string",
          "name": "_projectName",
          "type": "string"
        }
      ],
      "name": "viewPoolCap",
      "outputs": [
        {
          "internalType": "uint256",
          "name": "",
          "type": "uint256"
        }
      ],
      "stateMutability": "view",
      "type": "function"
    },
    {
      "inputs": [
        {
          "internalType": "string",
          "name": "_projectName",
          "type": "string"
        }
      ],
      "name": "viewProjectDeposit",
      "outputs": [
        {
          "internalType": "uint256",
          "name": "",
          "type": "uint256"
        }
      ],
      "stateMutability": "view",
      "type": "function"
    },
    {
      "inputs": [],
      "name": "viewSaloonBalance",
      "outputs": [
        {
          "internalType": "uint256",
          "name": "",
          "type": "uint256"
        }
      ],
      "stateMutability": "view",
      "type": "function"
    },
    {
      "inputs": [],
      "name": "viewTotalEarnedSaloon",
      "outputs": [
        {
          "internalType": "uint256",
          "name": "",
          "type": "uint256"
        }
      ],
      "stateMutability": "view",
      "type": "function"
    },
    {
      "inputs": [],
      "name": "viewTotalHackerPayouts",
      "outputs": [
        {
          "internalType": "uint256",
          "name": "",
          "type": "uint256"
        }
      ],
      "stateMutability": "view",
      "type": "function"
    },
    {
      "inputs": [],
      "name": "viewTotalPremiums",
      "outputs": [
        {
          "internalType": "uint256",
          "name": "",
          "type": "uint256"
        }
      ],
      "stateMutability": "view",
      "type": "function"
    },
    {
      "inputs": [],
      "name": "viewTotalSaloonCommission",
      "outputs": [
        {
          "internalType": "uint256",
          "name": "",
          "type": "uint256"
        }
      ],
      "stateMutability": "view",
      "type": "function"
    },
    {
      "inputs": [
        {
          "internalType": "string",
          "name": "_projectName",
          "type": "string"
        }
      ],
      "name": "viewUserStakingBalance",
      "outputs": [
        {
          "internalType": "uint256",
          "name": "",
          "type": "uint256"
        }
      ],
      "stateMutability": "view",
      "type": "function"
    },
    {
      "inputs": [
        {
          "internalType": "string",
          "name": "_projectName",
          "type": "string"
        }
      ],
      "name": "viewstakersDeposit",
      "outputs": [
        {
          "internalType": "uint256",
          "name": "",
          "type": "uint256"
        }
      ],
      "stateMutability": "view",
      "type": "function"
    },
    {
      "inputs": [
        {
          "internalType": "address",
          "name": "_token",
          "type": "address"
        },
        {
          "internalType": "address",
          "name": "_to",
          "type": "address"
        },
        {
          "internalType": "uint256",
          "name": "_amount",
          "type": "uint256"
        }
      ],
      "name": "withdrawSaloon",
      "outputs": [
        {
          "internalType": "bool",
          "name": "",
          "type": "bool"
        }
      ],
      "stateMutability": "nonpayable",
      "type": "function"
    },
    {
      "inputs": [],
      "name": "withdrawSaloonPremiumFees",
      "outputs": [
        {
          "internalType": "bool",
          "name": "",
          "type": "bool"
        }
      ],
      "stateMutability": "nonpayable",
      "type": "function"
    }
  ],
  "bytecode": {
    "object": "0x60a06040523060805234801561001457600080fd5b50608051614e8f61004c6000396000818161138b015281816113d4015281816119a8015281816119e80152611a7b0152614e8f6000f3fe6080604052600436106102ae5760003560e01c80637f2f3e5e11610175578063c45a0155116100dc578063d7dc56a511610095578063e6b37f6f1161006f578063e6b37f6f14610884578063f0e6b4ed146108a4578063f2fde38b146108c4578063f4808fea146108e457600080fd5b8063d7dc56a51461082f578063e5125d7b1461084f578063e5e97c651461086457600080fd5b8063c45a01551461077a578063cae38faa1461079a578063d16ad2f7146107ba578063d3326a0a146107da578063d37c92dc146107ef578063d3c15cdb1461080f57600080fd5b8063a667b5d01161012e578063a667b5d0146106c5578063b8047881146106e5578063b91cdea714610705578063bc16076114610725578063c0c53b8b14610745578063c31495901461076557600080fd5b80637f2f3e5e146105e15780638da5cb5b14610612578063943eb4f2146106305780639494c8ae146106705780639ca7e78714610690578063a0d07125146106b057600080fd5b806352d1902d1161021957806368dd3dbf116101d257806368dd3dbf146105275780636c94853514610547578063715018a61461055c578063753d75631461057157806379f99a89146105a15780637dd03e8f146105c157600080fd5b806352d1902d1461047257806353dce8561461048757806358b07d5b146104a757806359659e90146104c7578063666b7030146104e757806366b6c6471461050757600080fd5b80633659cfe61161026b5780633659cfe61461038657806337787926146103a85780633ef0c3ed146103e05780634389e41a146104005780634c0d9a6c146104205780634f1ef2861461045f57600080fd5b806303c46f51146102b357806305234fda146102de5780630e0602491461030c5780630f0df17114610331578063215803221461035157806327e7354214610371575b600080fd5b3480156102bf57600080fd5b506102c8610904565b6040516102d59190614652565b60405180910390f35b3480156102ea57600080fd5b506102fe6102f936600461479c565b610a3a565b6040519081526020016102d5565b34801561031857600080fd5b50610321610bac565b60405190151581526020016102d5565b34801561033d57600080fd5b506102fe61034c36600461479c565b610ed7565b34801561035d57600080fd5b506102fe61036c3660046147e6565b61101e565b34801561037d57600080fd5b5061032161109e565b34801561039257600080fd5b506103a66103a136600461481f565b611380565b005b3480156103b457600080fd5b506103c86103c336600461479c565b611469565b6040516001600160a01b0390911681526020016102d5565b3480156103ec57600080fd5b506102fe6103fb36600461479c565b61149d565b34801561040c57600080fd5b506068546103c8906001600160a01b031681565b34801561042c57600080fd5b5061044061043b36600461483c565b6115e7565b604080516001600160a01b0390931683529015156020830152016102d5565b6103a661046d3660046148c5565b61199d565b34801561047e57600080fd5b506102fe611a6e565b34801561049357600080fd5b506103216104a236600461481f565b611b21565b3480156104b357600080fd5b506103216104c2366004614915565b611c0b565b3480156104d357600080fd5b506066546103c8906001600160a01b031681565b3480156104f357600080fd5b506102fe61050236600461479c565b611e9e565b34801561051357600080fd5b506103c861052236600461479c565b612061565b34801561053357600080fd5b50610321610542366004614963565b612095565b34801561055357600080fd5b506102fe61233d565b34801561056857600080fd5b506103a66123b0565b34801561057d57600080fd5b5061032161058c36600461481f565b606b6020526000908152604090205460ff1681565b3480156105ad57600080fd5b506103a66105bc36600461481f565b6123c4565b3480156105cd57600080fd5b506102fe6105dc36600461479c565b61243b565b3480156105ed57600080fd5b506106016105fc3660046149a8565b6125a8565b6040516102d59594939291906149c1565b34801561061e57600080fd5b506033546001600160a01b03166103c8565b34801561063c57600080fd5b5061065061064b36600461479c565b61268c565b6040805194855260208501939093529183015260608201526080016102d5565b34801561067c57600080fd5b5061032161068b366004614963565b6126c5565b34801561069c57600080fd5b506103216106ab36600461479c565b6129ee565b3480156106bc57600080fd5b506102fe612a7a565b3480156106d157600080fd5b506102fe6106e036600461479c565b612ac4565b3480156106f157600080fd5b50610321610700366004614963565b612c0b565b34801561071157600080fd5b506102fe61072036600461479c565b612e1c565b34801561073157600080fd5b50610321610740366004614a07565b612f63565b34801561075157600080fd5b506103a6610760366004614a61565b6131e9565b34801561077157600080fd5b506102fe61333a565b34801561078657600080fd5b506065546103c8906001600160a01b031681565b3480156107a657600080fd5b506067546103c8906001600160a01b031681565b3480156107c657600080fd5b506103216107d5366004614963565b613384565b3480156107e657600080fd5b506102fe61357f565b3480156107fb57600080fd5b5061032161080a366004614963565b6135c9565b34801561081b57600080fd5b506102fe61082a36600461479c565b6138ff565b34801561083b57600080fd5b5061060161084a36600461479c565b613a46565b34801561085b57600080fd5b506102fe613a6c565b34801561087057600080fd5b5061032161087f366004614aba565b613ab6565b34801561089057600080fd5b5061032161089f36600461479c565b613b19565b3480156108b057600080fd5b506103216108bf366004614ae8565b613caf565b3480156108d057600080fd5b506103a66108df36600461481f565b613db6565b3480156108f057600080fd5b506103216108ff366004614963565b613e2c565b60606069805480602002602001604051908101604052809291908181526020016000905b82821015610a3157838290600052602060002090600402016040518060a001604052908160008201805461095b90614b18565b80601f016020809104026020016040519081016040528092919081815260200182805461098790614b18565b80156109d45780601f106109a9576101008083540402835291602001916109d4565b820191906000526020600020905b8154815290600101906020018083116109b757829003601f168201915b50505091835250506001828101546001600160a01b039081166020808501919091526002850154821660408501526003909401549081166060840152600160a01b900460ff16151560809092019190915291835292019101610928565b50505050905090565b600080606a83604051610a4d9190614b53565b90815260200160405180910390206040518060a0016040529081600082018054610a7690614b18565b80601f0160208091040260200160405190810160405280929190818152602001828054610aa290614b18565b8015610aef5780601f10610ac457610100808354040283529160200191610aef565b820191906000526020600020905b815481529060010190602001808311610ad257829003601f168201915b505050918352505060018201546001600160a01b03908116602080840191909152600284015482166040808501919091526003909401548083166060850152600160a01b900460ff161515608090930192909252838301518351637228407360e11b81529351949550169263e45080e69260048082019392918290030181865afa158015610b81573d6000803e3d6000fd5b505050506040513d601f19601f82011682018060405250810190610ba59190614b6f565b9392505050565b6000610bb6614086565b60006069805480602002602001604051908101604052809291908181526020016000905b82821015610ce357838290600052602060002090600402016040518060a0016040529081600082018054610c0d90614b18565b80601f0160208091040260200160405190810160405280929190818152602001828054610c3990614b18565b8015610c865780601f10610c5b57610100808354040283529160200191610c86565b820191906000526020600020905b815481529060010190602001808311610c6957829003601f168201915b50505091835250506001828101546001600160a01b039081166020808501919091526002850154821660408501526003909401549081166060840152600160a01b900460ff16151560809092019190915291835292019101610bda565b5050505090506000815190506000805b82811015610ea157610d21848281518110610d1057610d10614b88565b6020026020010151608001516140e0565b151560011415610d3057610e91565b6000848281518110610d4457610d44614b88565b6020026020010151604001516001600160a01b0316635121ac9d868481518110610d7057610d70614b88565b60209081029190910101516060015160685460405160e084901b6001600160e01b03191681526001600160a01b039283166004820152911660248201526044016020604051808303816000875af1158015610dcf573d6000803e3d6000fd5b505050506040513d601f19601f82011682018060405250810190610df39190614b6f565b60685486519192506001600160a01b0316906383ab930490879085908110610e1d57610e1d614b88565b602002602001015160600151836040518363ffffffff1660e01b8152600401610e5b9291906001600160a01b03929092168252602082015260400190565b600060405180830381600087803b158015610e7557600080fd5b505af1158015610e89573d6000803e3d6000fd5b509294505050505b610e9a81614bb4565b9050610cf3565b5060405181907ff61dcc40e5f2c6bc5b24cb6f24690965e673c4c563bbf94cbbdaff36bffde00b90600090a26001935050505090565b600080606a83604051610eea9190614b53565b90815260200160405180910390206040518060a0016040529081600082018054610f1390614b18565b80601f0160208091040260200160405190810160405280929190818152602001828054610f3f90614b18565b8015610f8c5780601f10610f6157610100808354040283529160200191610f8c565b820191906000526020600020905b815481529060010190602001808311610f6f57829003601f168201915b505050918352505060018201546001600160a01b03908116602080840191909152600284015482166040808501919091526003909401548083166060850152600160a01b900460ff161515608090930192909252838301518351634a94bcb360e01b815293519495501692634a94bcb39260048082019392918290030181865afa158015610b81573d6000803e3d6000fd5b6068546040516310ac019160e11b81526001600160a01b03848116600483015283811660248301526000921690632158032290604401602060405180830381865afa158015611071573d6000803e3d6000fd5b505050506040513d601f19601f820116820180604052508101906110959190614b6f565b90505b92915050565b6000806069805480602002602001604051908101604052809291908181526020016000905b828210156111cc57838290600052602060002090600402016040518060a00160405290816000820180546110f690614b18565b80601f016020809104026020016040519081016040528092919081815260200182805461112290614b18565b801561116f5780601f106111445761010080835404028352916020019161116f565b820191906000526020600020905b81548152906001019060200180831161115257829003601f168201915b50505091835250506001828101546001600160a01b039081166020808501919091526002850154821660408501526003909401549081166060840152600160a01b900460ff161515608090920191909152918352920191016110c3565b5050825192935060009150505b81811015611376576111f6838281518110610d1057610d10614b88565b15156001141561120557611366565b82818151811061121757611217614b88565b6020026020010151604001516001600160a01b03166310775e7484838151811061124357611243614b88565b60200260200101516060015185848151811061126157611261614b88565b6020026020010151602001516040518363ffffffff1660e01b815260040161129f9291906001600160a01b0392831681529116602082015260400190565b6020604051808303816000875af11580156112be573d6000803e3d6000fd5b505050506040513d601f19601f820116820180604052508101906112e29190614bcf565b508281815181106112f5576112f5614b88565b6020026020010151602001516001600160a01b031683828151811061131c5761131c614b88565b6020026020010151600001516040516113359190614b53565b604051908190038120907fd5d2d05dfe0d10d196c53d6f16e6d70e4dbb9cb77fe8682f6c68e9426c29103090600090a35b61136f81614bb4565b90506111d9565b5060019250505090565b306001600160a01b037f00000000000000000000000000000000000000000000000000000000000000001614156113d25760405162461bcd60e51b81526004016113c990614bec565b60405180910390fd5b7f00000000000000000000000000000000000000000000000000000000000000006001600160a01b031661141b600080516020614e13833981519152546001600160a01b031690565b6001600160a01b0316146114415760405162461bcd60e51b81526004016113c990614c38565b61144a816140f7565b60408051600080825260208201909252611466918391906140ff565b50565b6000606a8260405161147b9190614b53565b908152604051908190036020019020600101546001600160a01b031692915050565b600080606a836040516114b09190614b53565b90815260200160405180910390206040518060a00160405290816000820180546114d990614b18565b80601f016020809104026020016040519081016040528092919081815260200182805461150590614b18565b80156115525780601f1061152757610100808354040283529160200191611552565b820191906000526020600020905b81548152906001019060200180831161153557829003601f168201915b505050918352505060018201546001600160a01b03908116602080840191909152600284015482166040808501919091526003909401548083166060850152600160a01b900460ff16151560809093019290925283830151835160016202e8ad60e61b031981529351949550169263ff45d4c09260048082019392918290030181865afa158015610b81573d6000803e3d6000fd5b6000806115f2614086565b60006001600160a01b0316606a8660405161160d9190614b53565b908152604051908190036020019020600201546001600160a01b0316146116765760405162461bcd60e51b815260206004820152601a60248201527f50726f6a65637420616c72656164792068617320626f756e747900000000000060448201526064016113c9565b6001600160a01b0384166000908152606b602052604090205460ff1615156001146116d85760405162461bcd60e51b8152602060048201526012602482015271151bdad95b881b9bdd08185c1c1c9bdd995960721b60448201526064016113c9565b6040805160a0810182526000818301819052608082018190528782526001600160a01b038681166020840152878116606084015260655460665494516336d9881760e01b815293949293908216926336d988179261173d929116908c90600401614c84565b6020604051808303816000875af115801561175c573d6000803e3d6000fd5b505050506040513d601f19601f820116820180604052508101906117809190614ca8565b604051634b8e0d3760e01b81523060048201529091506001600160a01b03821690634b8e0d3790602401600060405180830381600087803b1580156117c457600080fd5b505af11580156117d8573d6000803e3d6000fd5b5050506001600160a01b038216604084015250606980546001810182556000919091528251805184926004027f7fb4302e8e91f9110a6554c2c0a24601252c2a42c2220ca988efcfe399914308019161183691839160200190614561565b5060208201516001820180546001600160a01b039283166001600160a01b03199182161790915560408085015160028501805491851691909316179091556060840151600390930180546080909501511515600160a01b026001600160a81b0319909516939092169290921792909217909155518290606a906118ba908a90614b53565b908152602001604051809103902060008201518160000190805190602001906118e4929190614561565b506020828101516001830180546001600160a01b039283166001600160a01b03199182161790915560408086015160028601805491851691909316179091556060850151600390940180546080909601511515600160a01b026001600160a81b03199096169483169490941794909417909255915183821681529087169133917fa397122091ddbad4417c188353200f86978770ea6a146a5860667b1ef760917c910160405180910390a3976001975095505050505050565b306001600160a01b037f00000000000000000000000000000000000000000000000000000000000000001614156119e65760405162461bcd60e51b81526004016113c990614bec565b7f00000000000000000000000000000000000000000000000000000000000000006001600160a01b0316611a2f600080516020614e13833981519152546001600160a01b031690565b6001600160a01b031614611a555760405162461bcd60e51b81526004016113c990614c38565b611a5e826140f7565b611a6a828260016140ff565b5050565b6000306001600160a01b037f00000000000000000000000000000000000000000000000000000000000000001614611b0e5760405162461bcd60e51b815260206004820152603860248201527f555550535570677261646561626c653a206d757374206e6f742062652063616c60448201527f6c6564207468726f7567682064656c656761746563616c6c000000000000000060648201526084016113c9565b50600080516020614e1383398151915290565b6000611b2b614086565b6001600160a01b038216611b705760405162461bcd60e51b815260206004820152600c60248201526b41646472657373207a65726f60a01b60448201526064016113c9565b606654604051631b2ce7f360e11b81526001600160a01b03848116600483015290911690633659cfe690602401600060405180830381600087803b158015611bb757600080fd5b505af1158015611bcb573d6000803e3d6000fd5b50506040516001600160a01b03851692507f8351bb7d88cde824de55ae548c81488c9bea6ad24cafb7644e7df7ac0cfcb46c9150600090a2506001919050565b600080606a85604051611c1e9190614b53565b90815260200160405180910390206040518060a0016040529081600082018054611c4790614b18565b80601f0160208091040260200160405190810160405280929190818152602001828054611c7390614b18565b8015611cc05780601f10611c9557610100808354040283529160200191611cc0565b820191906000526020600020905b815481529060010190602001808311611ca357829003601f168201915b505050918352505060018201546001600160a01b0390811660208301526002830154811660408301526003909201549182166060820152600160a01b90910460ff161515608091820152810151909150611d19906140e0565b1515600114611d3a5760405162461bcd60e51b81526004016113c990614cc5565b80602001516001600160a01b0316336001600160a01b031614611d6f5760405162461bcd60e51b81526004016113c990614ced565b80604001516001600160a01b031663d835f535856040518263ffffffff1660e01b8152600401611da191815260200190565b600060405180830381600087803b158015611dbb57600080fd5b505af1158015611dcf573d6000803e3d6000fd5b50505060408083015160608401516020850151925163cc12c31160e01b81526001600160a01b03909216935063cc12c31192611e0f928890600401614d18565b6020604051808303816000875af1158015611e2e573d6000803e3d6000fd5b505050506040513d601f19601f82011682018060405250810190611e529190614bcf565b50828486604051611e639190614b53565b604051908190038120907f5d9beb4943b1823a8d5ffbc059a5d64cf367d9b7aaee9e28a697b842779957d890600090a4506001949350505050565b600080606a83604051611eb19190614b53565b90815260200160405180910390206040518060a0016040529081600082018054611eda90614b18565b80601f0160208091040260200160405190810160405280929190818152602001828054611f0690614b18565b8015611f535780601f10611f2857610100808354040283529160200191611f53565b820191906000526020600020905b815481529060010190602001808311611f3657829003601f168201915b505050918352505060018201546001600160a01b0390811660208301526002830154811660408301526003909201549182166060820152600160a01b90910460ff161515608091820152810151909150611fac906140e0565b1515600114611fcd5760405162461bcd60e51b81526004016113c990614cc5565b6040808201516060830151602084015192516303065f4560e41b81526001600160a01b0391821660048201523360248201529281166044840152600092911690633065f4509060640160408051808303816000875af1158015612034573d6000803e3d6000fd5b505050506040513d601f19601f820116820180604052508101906120589190614d3c565b50949350505050565b6000606a826040516120739190614b53565b908152604051908190036020019020600201546001600160a01b031692915050565b600080606a846040516120a89190614b53565b90815260200160405180910390206040518060a00160405290816000820180546120d190614b18565b80601f01602080910402602001604051908101604052809291908181526020018280546120fd90614b18565b801561214a5780601f1061211f5761010080835404028352916020019161214a565b820191906000526020600020905b81548152906001019060200180831161212d57829003601f168201915b505050918352505060018201546001600160a01b0390811660208301526002830154811660408301526003909201549182166060820152600160a01b90910460ff1615156080918201528101519091506121a3906140e0565b15156001146121c45760405162461bcd60e51b81526004016113c990614cc5565b80602001516001600160a01b0316336001600160a01b0316146121f95760405162461bcd60e51b81526004016113c990614ced565b600081604001516001600160a01b0316634a94bcb36040518163ffffffff1660e01b8152600401602060405180830381865afa15801561223d573d6000803e3d6000fd5b505050506040513d601f19601f820116820180604052508101906122619190614b6f565b905081604001516001600160a01b031663419b7bd783606001518460200151876040518463ffffffff1660e01b815260040161229f93929190614d18565b6020604051808303816000875af11580156122be573d6000803e3d6000fd5b505050506040513d601f19601f820116820180604052508101906122e29190614bcf565b5060006122ef8583614d61565b90508082876040516123019190614b53565b604051908190038120907f4263aad47889a1b6d47c62c4329f18cb38e94cb40ac428c5212a224262e39d7b90600090a450600195945050505050565b60685460408051636c94853560e01b815290516000926001600160a01b031691636c9485359160048083019260209291908290030181865afa158015612387573d6000803e3d6000fd5b505050506040513d601f19601f820116820180604052508101906123ab9190614b6f565b905090565b6123b8614086565b6123c2600061426f565b565b6123cc614086565b6001600160a01b0381166124195760405162461bcd60e51b8152602060048201526014602482015273416464726573732063616e74206265207a65726f60601b60448201526064016113c9565b606880546001600160a01b0319166001600160a01b0392909216919091179055565b600080606a8360405161244e9190614b53565b90815260200160405180910390206040518060a001604052908160008201805461247790614b18565b80601f01602080910402602001604051908101604052809291908181526020018280546124a390614b18565b80156124f05780601f106124c5576101008083540402835291602001916124f0565b820191906000526020600020905b8154815290600101906020018083116124d357829003601f168201915b505050918352505060018201546001600160a01b039081166020830152600283015481166040808401919091526003909301548082166060840152600160a01b900460ff161515608090920191909152828201519151631a89cabd60e01b8152336004820152929350600092911690631a89cabd906024016040805180830381865afa158015612584573d6000803e3d6000fd5b505050506040513d601f19601f820116820180604052508101906120589190614d78565b606981815481106125b857600080fd5b90600052602060002090600402016000915090508060000180546125db90614b18565b80601f016020809104026020016040519081016040528092919081815260200182805461260790614b18565b80156126545780601f1061262957610100808354040283529160200191612654565b820191906000526020600020905b81548152906001019060200180831161263757829003601f168201915b505050506001830154600284015460039094015492936001600160a01b0391821693908216925090811690600160a01b900460ff1685565b60008060008061269b85610ed7565b93506126a685612e1c565b91506126b185612ac4565b92506126bc8561149d565b90509193509193565b600080606a846040516126d89190614b53565b90815260200160405180910390206040518060a001604052908160008201805461270190614b18565b80601f016020809104026020016040519081016040528092919081815260200182805461272d90614b18565b801561277a5780601f1061274f5761010080835404028352916020019161277a565b820191906000526020600020905b81548152906001019060200180831161275d57829003601f168201915b505050918352505060018201546001600160a01b0390811660208301526002830154811660408301526003909201549182166060820152600160a01b90910460ff1615156080918201528101519091506127d3906140e0565b15156001146127f45760405162461bcd60e51b81526004016113c990614cc5565b600081604001516001600160a01b0316634a94bcb36040518163ffffffff1660e01b8152600401602060405180830381865afa158015612838573d6000803e3d6000fd5b505050506040513d601f19601f8201168201806040525081019061285c9190614b6f565b9050600082604001516001600160a01b03166316e17b8d6040518163ffffffff1660e01b8152600401602060405180830381865afa1580156128a2573d6000803e3d6000fd5b505050506040513d601f19601f820116820180604052508101906128c69190614b6f565b6040808501516060860151915163bf6eac2f60e01b81529293506001600160a01b03169163bf6eac2f916129009133908a90600401614d18565b6020604051808303816000875af115801561291f573d6000803e3d6000fd5b505050506040513d601f19601f820116820180604052508101906129439190614bcf565b5060006129508684614d9c565b9050600061295e8784614d9c565b90508083896040516129709190614b53565b604051908190038120907f8834bcade58122eb5594c97d7d46171dc644983fafc2663e6728a6eb925a18ba90600090a48184896040516129b09190614b53565b604051908190038120907f4263aad47889a1b6d47c62c4329f18cb38e94cb40ac428c5212a224262e39d7b90600090a4506001979650505050505050565b60006129f8614086565b6001606a83604051612a0a9190614b53565b9081526040519081900360200181206003018054921515600160a01b0260ff60a01b1990931692909217909155612a42908390614b53565b604051908190038120907f064c50721c2d6a8dde5fa7e23659e4df58c910897f7b98ca5b9a940038645cc890600090a2506001919050565b6068546040805163a0d0712560e01b815290516000926001600160a01b03169163a0d071259160048083019260209291908290030181865afa158015612387573d6000803e3d6000fd5b600080606a83604051612ad79190614b53565b90815260200160405180910390206040518060a0016040529081600082018054612b0090614b18565b80601f0160208091040260200160405190810160405280929190818152602001828054612b2c90614b18565b8015612b795780601f10612b4e57610100808354040283529160200191612b79565b820191906000526020600020905b815481529060010190602001808311612b5c57829003601f168201915b505050918352505060018201546001600160a01b03908116602080840191909152600284015482166040808501919091526003909401548083166060850152600160a01b900460ff1615156080909301929092528383015183516378eb46fd60e01b8152935194955016926378eb46fd9260048082019392918290030181865afa158015610b81573d6000803e3d6000fd5b600080606a84604051612c1e9190614b53565b90815260200160405180910390206040518060a0016040529081600082018054612c4790614b18565b80601f0160208091040260200160405190810160405280929190818152602001828054612c7390614b18565b8015612cc05780601f10612c9557610100808354040283529160200191612cc0565b820191906000526020600020905b815481529060010190602001808311612ca357829003601f168201915b505050918352505060018201546001600160a01b0390811660208301526002830154811660408301526003909201549182166060820152600160a01b90910460ff161515608091820152810151909150612d19906140e0565b1515600114612d3a5760405162461bcd60e51b81526004016113c990614cc5565b80602001516001600160a01b0316336001600160a01b031614612d6f5760405162461bcd60e51b81526004016113c990614ced565b80604001516001600160a01b0316634b5df6cc846040518263ffffffff1660e01b8152600401612da191815260200190565b600060405180830381600087803b158015612dbb57600080fd5b505af1158015612dcf573d6000803e3d6000fd5b505050508284604051612de29190614b53565b604051908190038120907f0e6ef9b3f0bcbf52c4ddbfdfb70f52e00c6083b9d5f795123d4e753ac4f82d3990600090a35060019392505050565b600080606a83604051612e2f9190614b53565b90815260200160405180910390206040518060a0016040529081600082018054612e5890614b18565b80601f0160208091040260200160405190810160405280929190818152602001828054612e8490614b18565b8015612ed15780601f10612ea657610100808354040283529160200191612ed1565b820191906000526020600020905b815481529060010190602001808311612eb457829003601f168201915b505050918352505060018201546001600160a01b03908116602080840191909152600284015482166040808501919091526003909401548083166060850152600160a01b900460ff1615156080909301929092528383015183516316e17b8d60e01b8152935194955016926316e17b8d9260048082019392918290030181865afa158015610b81573d6000803e3d6000fd5b6000612f6d614086565b612fa3606a85604051612f809190614b53565b9081526040519081900360200190206003015460ff600160a01b909104166140e0565b1515600114612fc45760405162461bcd60e51b81526004016113c990614cc5565b6001600160a01b03831661300e5760405162461bcd60e51b815260206004820152601160248201527048756e746572206164647265737328302960781b60448201526064016113c9565b606a8460405161301e9190614b53565b908152604051908190036020018120600201546001600160a01b0316906373927c1190606a9061304f908890614b53565b908152604051908190036020018120600301546068546001600160e01b031960e085901b1683526001600160a01b0391821660048401528116602483015286166044820152606481018590526084016020604051808303816000875af11580156130bd573d6000803e3d6000fd5b505050506040513d601f19601f820116820180604052508101906130e19190614bcf565b506068546040516001600160a01b039091169063d16cfcc190606a90613108908890614b53565b908152604051908190036020018120600301546001600160e01b031960e084901b168252613148916001600160a01b039091169087908790600401614d18565b600060405180830381600087803b15801561316257600080fd5b505af1158015613176573d6000803e3d6000fd5b5050505081836001600160a01b0316427fc94856745b23bcaffb2e3755abe04f2ee7cf7047605058b72c2f1cb3e58d5c43606a886040516131b79190614b53565b90815260405160209181900382018120600301546001600160a01b031681520160405180910390a45060019392505050565b600054610100900460ff16158080156132095750600054600160ff909116105b806132235750303b158015613223575060005460ff166001145b6132865760405162461bcd60e51b815260206004820152602e60248201527f496e697469616c697a61626c653a20636f6e747261637420697320616c72656160448201526d191e481a5b9a5d1a585b1a5e995960921b60648201526084016113c9565b6000805460ff1916600117905580156132a9576000805461ff0019166101001790555b606580546001600160a01b038087166001600160a01b0319928316179092556066805486841690831617905560678054928516929091169190911790556132ee6142c1565b8015613334576000805461ff0019169055604051600181527f7f26b83ff96e1f2b6a682f133852f6798a09c465da95921460cefb38474024989060200160405180910390a15b50505050565b60685460408051630c31495960e41b815290516000926001600160a01b03169163c31495909160048083019260209291908290030181865afa158015612387573d6000803e3d6000fd5b600080606a846040516133979190614b53565b90815260200160405180910390206040518060a00160405290816000820180546133c090614b18565b80601f01602080910402602001604051908101604052809291908181526020018280546133ec90614b18565b80156134395780601f1061340e57610100808354040283529160200191613439565b820191906000526020600020905b81548152906001019060200180831161341c57829003601f168201915b505050918352505060018201546001600160a01b0390811660208301526002830154811660408301526003909201549182166060820152600160a01b90910460ff161515608091820152810151909150613492906140e0565b15156001146134b35760405162461bcd60e51b81526004016113c990614cc5565b60408082015190516358ae710560e11b8152336004820152602481018590526001600160a01b039091169063b15ce20a906044016020604051808303816000875af1158015613506573d6000803e3d6000fd5b505050506040513d601f19601f8201168201806040525081019061352a9190614bcf565b1561357857828460405161353e9190614b53565b604051908190038120907f0e6ef9b3f0bcbf52c4ddbfdfb70f52e00c6083b9d5f795123d4e753ac4f82d3990600090a36001915050611098565b5092915050565b60685460408051636999350560e11b815290516000926001600160a01b03169163d3326a0a9160048083019260209291908290030181865afa158015612387573d6000803e3d6000fd5b600080606a846040516135dc9190614b53565b90815260200160405180910390206040518060a001604052908160008201805461360590614b18565b80601f016020809104026020016040519081016040528092919081815260200182805461363190614b18565b801561367e5780601f106136535761010080835404028352916020019161367e565b820191906000526020600020905b81548152906001019060200180831161366157829003601f168201915b505050918352505060018201546001600160a01b0390811660208301526002830154811660408301526003909201549182166060820152600160a01b90910460ff1615156080918201528101519091506136d7906140e0565b15156001146136f85760405162461bcd60e51b81526004016113c990614cc5565b600081604001516001600160a01b0316634a94bcb36040518163ffffffff1660e01b8152600401602060405180830381865afa15801561373c573d6000803e3d6000fd5b505050506040513d601f19601f820116820180604052508101906137609190614b6f565b9050600082604001516001600160a01b03166316e17b8d6040518163ffffffff1660e01b8152600401602060405180830381865afa1580156137a6573d6000803e3d6000fd5b505050506040513d601f19601f820116820180604052508101906137ca9190614b6f565b604080850151606086015191516330414fc560e11b81529293506001600160a01b0316916360829f8a916138049133908a90600401614d18565b6020604051808303816000875af1158015613823573d6000803e3d6000fd5b505050506040513d601f19601f820116820180604052508101906138479190614bcf565b156138f65760006138588684614d61565b905060006138668784614d61565b90508083896040516138789190614b53565b604051908190038120907f8834bcade58122eb5594c97d7d46171dc644983fafc2663e6728a6eb925a18ba90600090a48184896040516138b89190614b53565b604051908190038120907f4263aad47889a1b6d47c62c4329f18cb38e94cb40ac428c5212a224262e39d7b90600090a4600195505050505050611098565b50505092915050565b600080606a836040516139129190614b53565b90815260200160405180910390206040518060a001604052908160008201805461393b90614b18565b80601f016020809104026020016040519081016040528092919081815260200182805461396790614b18565b80156139b45780601f10613989576101008083540402835291602001916139b4565b820191906000526020600020905b81548152906001019060200180831161399757829003601f168201915b505050918352505060018201546001600160a01b03908116602080840191909152600284015482166040808501919091526003909401548083166060850152600160a01b900460ff16151560809093019290925283830151835163383639b360e01b81529351949550169263383639b39260048082019392918290030181865afa158015610b81573d6000803e3d6000fd5b8051602081830181018051606a825292820191909301209152805481906125db90614b18565b6068546040805163e5125d7b60e01b815290516000926001600160a01b03169163e5125d7b9160048083019260209291908290030181865afa158015612387573d6000803e3d6000fd5b6000613ac0614086565b6001600160a01b0383166000818152606b6020526040808220805460ff191686151590811790915590519092917f99795d51e5a8804307721456a7a9c2f0d7421f719d46a46d36e91fee7c85aa7691a350600192915050565b6000613b2e606a83604051612f809190614b53565b1515600114613b4f5760405162461bcd60e51b81526004016113c990614cc5565b606a82604051613b5f9190614b53565b908152604051908190036020018120600201546001600160a01b0316906310775e7490606a90613b90908690614b53565b908152604051908190036020018120600301546001600160a01b031690606a90613bbb908790614b53565b908152604051908190036020018120600101546001600160e01b031960e085901b1682526001600160a01b0392831660048301529190911660248201526044016020604051808303816000875af1158015613c1a573d6000803e3d6000fd5b505050506040513d601f19601f82011682018060405250810190613c3e9190614bcf565b50606a82604051613c4f9190614b53565b908152604051908190036020018120600101546001600160a01b031690613c77908490614b53565b604051908190038120907fd5d2d05dfe0d10d196c53d6f16e6d70e4dbb9cb77fe8682f6c68e9426c29103090600090a3506001919050565b6000613cb9614086565b6001600160a01b038316613cfe5760405162461bcd60e51b815260206004820152600c60248201526b41646472657373205a65726f60a01b60448201526064016113c9565b606854604051630be5e47b60e11b81526001600160a01b03909116906317cbc8f690613d3290879087908790600401614d18565b6020604051808303816000875af1158015613d51573d6000803e3d6000fd5b505050506040513d601f19601f82011682018060405250810190613d759190614bcf565b5060405182906001600160a01b038616907f189e21cdbf554d2e7158d144a91a275ae2145eaf20b9697ea962df4fba6462c390600090a35060019392505050565b613dbe614086565b6001600160a01b038116613e235760405162461bcd60e51b815260206004820152602660248201527f4f776e61626c653a206e6577206f776e657220697320746865207a65726f206160448201526564647265737360d01b60648201526084016113c9565b6114668161426f565b600080606a84604051613e3f9190614b53565b90815260200160405180910390206040518060a0016040529081600082018054613e6890614b18565b80601f0160208091040260200160405190810160405280929190818152602001828054613e9490614b18565b8015613ee15780601f10613eb657610100808354040283529160200191613ee1565b820191906000526020600020905b815481529060010190602001808311613ec457829003601f168201915b505050918352505060018201546001600160a01b0390811660208301526002830154811660408301526003909201549182166060820152600160a01b90910460ff161515608091820152810151909150613f3a906140e0565b1515600114613f5b5760405162461bcd60e51b81526004016113c990614cc5565b600081604001516001600160a01b0316634a94bcb36040518163ffffffff1660e01b8152600401602060405180830381865afa158015613f9f573d6000803e3d6000fd5b505050506040513d601f19601f82011682018060405250810190613fc39190614b6f565b905081602001516001600160a01b0316336001600160a01b031614613ffa5760405162461bcd60e51b81526004016113c990614ced565b81604001516001600160a01b0316633147096d83606001518460200151876040518463ffffffff1660e01b815260040161403693929190614d18565b6020604051808303816000875af1158015614055573d6000803e3d6000fd5b505050506040513d601f19601f820116820180604052508101906140799190614bcf565b5060006122ef8583614d9c565b6033546001600160a01b031633146123c25760405162461bcd60e51b815260206004820181905260248201527f4f776e61626c653a2063616c6c6572206973206e6f7420746865206f776e657260448201526064016113c9565b600081156140ef576000611098565b600192915050565b611466614086565b7f4910fdfa16fed3260ed0e7147f7cc6da11a60208b5b9406d12a635614ffd91435460ff161561413757614132836142f0565b505050565b826001600160a01b03166352d1902d6040518163ffffffff1660e01b8152600401602060405180830381865afa925050508015614191575060408051601f3d908101601f1916820190925261418e91810190614b6f565b60015b6141f45760405162461bcd60e51b815260206004820152602e60248201527f45524331393637557067726164653a206e657720696d706c656d656e7461746960448201526d6f6e206973206e6f74205555505360901b60648201526084016113c9565b600080516020614e1383398151915281146142635760405162461bcd60e51b815260206004820152602960248201527f45524331393637557067726164653a20756e737570706f727465642070726f786044820152681a58589b195555525160ba1b60648201526084016113c9565b5061413283838361438c565b603380546001600160a01b038381166001600160a01b0319831681179093556040519116919082907f8be0079c531659141344cd1fd0a4f28419497f9722a3daafe3b4186f6b6457e090600090a35050565b600054610100900460ff166142e85760405162461bcd60e51b81526004016113c990614db4565b6123c26143b1565b6001600160a01b0381163b61435d5760405162461bcd60e51b815260206004820152602d60248201527f455243313936373a206e657720696d706c656d656e746174696f6e206973206e60448201526c1bdd08184818dbdb9d1c9858dd609a1b60648201526084016113c9565b600080516020614e1383398151915280546001600160a01b0319166001600160a01b0392909216919091179055565b614395836143e1565b6000825111806143a25750805b15614132576133348383614421565b600054610100900460ff166143d85760405162461bcd60e51b81526004016113c990614db4565b6123c23361426f565b6143ea816142f0565b6040516001600160a01b038216907fbc7cd75a20ee27fd9adebab32041f755214dbc6bffa90cc0225b39da2e5c2d3b90600090a250565b60606110958383604051806060016040528060278152602001614e33602791396060600080856001600160a01b03168560405161445e9190614b53565b600060405180830381855af49150503d8060008114614499576040519150601f19603f3d011682016040523d82523d6000602084013e61449e565b606091505b50915091506144af868383876144b9565b9695505050505050565b6060831561452557825161451e576001600160a01b0385163b61451e5760405162461bcd60e51b815260206004820152601d60248201527f416464726573733a2063616c6c20746f206e6f6e2d636f6e747261637400000060448201526064016113c9565b508161452f565b61452f8383614537565b949350505050565b8151156145475781518083602001fd5b8060405162461bcd60e51b81526004016113c99190614dff565b82805461456d90614b18565b90600052602060002090601f01602090048101928261458f57600085556145d5565b82601f106145a857805160ff19168380011785556145d5565b828001600101855582156145d5579182015b828111156145d55782518255916020019190600101906145ba565b506145e19291506145e5565b5090565b5b808211156145e157600081556001016145e6565b60005b838110156146155781810151838201526020016145fd565b838111156133345750506000910152565b6000815180845261463e8160208601602086016145fa565b601f01601f19169290920160200192915050565b60006020808301818452808551808352604092508286019150828160051b87010184880160005b838110156146eb57603f19898403018552815160a0815181865261469f82870182614626565b838b01516001600160a01b03908116888d01528a85015181168b890152606080860151909116908801526080938401511515939096019290925250509386019390860190600101614679565b509098975050505050505050565b634e487b7160e01b600052604160045260246000fd5b600082601f83011261472057600080fd5b813567ffffffffffffffff8082111561473b5761473b6146f9565b604051601f8301601f19908116603f01168101908282118183101715614763576147636146f9565b8160405283815286602085880101111561477c57600080fd5b836020870160208301376000602085830101528094505050505092915050565b6000602082840312156147ae57600080fd5b813567ffffffffffffffff8111156147c557600080fd5b61452f8482850161470f565b6001600160a01b038116811461146657600080fd5b600080604083850312156147f957600080fd5b8235614804816147d1565b91506020830135614814816147d1565b809150509250929050565b60006020828403121561483157600080fd5b8135610ba5816147d1565b6000806000806080858703121561485257600080fd5b843567ffffffffffffffff8082111561486a57600080fd5b6148768883890161470f565b9550602087013591508082111561488c57600080fd5b506148998782880161470f565b93505060408501356148aa816147d1565b915060608501356148ba816147d1565b939692955090935050565b600080604083850312156148d857600080fd5b82356148e3816147d1565b9150602083013567ffffffffffffffff8111156148ff57600080fd5b61490b8582860161470f565b9150509250929050565b60008060006060848603121561492a57600080fd5b833567ffffffffffffffff81111561494157600080fd5b61494d8682870161470f565b9660208601359650604090950135949350505050565b6000806040838503121561497657600080fd5b823567ffffffffffffffff81111561498d57600080fd5b6149998582860161470f565b95602094909401359450505050565b6000602082840312156149ba57600080fd5b5035919050565b60a0815260006149d460a0830188614626565b6001600160a01b039687166020840152948616604083015250919093166060820152911515608090920191909152919050565b600080600060608486031215614a1c57600080fd5b833567ffffffffffffffff811115614a3357600080fd5b614a3f8682870161470f565b9350506020840135614a50816147d1565b929592945050506040919091013590565b600080600060608486031215614a7657600080fd5b8335614a81816147d1565b92506020840135614a91816147d1565b91506040840135614aa1816147d1565b809150509250925092565b801515811461146657600080fd5b60008060408385031215614acd57600080fd5b8235614ad8816147d1565b9150602083013561481481614aac565b600080600060608486031215614afd57600080fd5b8335614b08816147d1565b92506020840135614a50816147d1565b600181811c90821680614b2c57607f821691505b60208210811415614b4d57634e487b7160e01b600052602260045260246000fd5b50919050565b60008251614b658184602087016145fa565b9190910192915050565b600060208284031215614b8157600080fd5b5051919050565b634e487b7160e01b600052603260045260246000fd5b634e487b7160e01b600052601160045260246000fd5b6000600019821415614bc857614bc8614b9e565b5060010190565b600060208284031215614be157600080fd5b8151610ba581614aac565b6020808252602c908201527f46756e6374696f6e206d7573742062652063616c6c6564207468726f7567682060408201526b19195b1959d85d1958d85b1b60a21b606082015260800190565b6020808252602c908201527f46756e6374696f6e206d7573742062652063616c6c6564207468726f7567682060408201526b6163746976652070726f787960a01b606082015260800190565b6001600160a01b038316815260406020820181905260009061452f90830184614626565b600060208284031215614cba57600080fd5b8151610ba5816147d1565b6020808252600e908201526d109bdd5b9d1e481a5cc81119585960921b604082015260600190565b6020808252601190820152702737ba10383937b532b1ba1037bbb732b960791b604082015260600190565b6001600160a01b039384168152919092166020820152604081019190915260600190565b60008060408385031215614d4f57600080fd5b82519150602083015161481481614aac565b600082821015614d7357614d73614b9e565b500390565b60008060408385031215614d8b57600080fd5b505080516020909101519092909150565b60008219821115614daf57614daf614b9e565b500190565b6020808252602b908201527f496e697469616c697a61626c653a20636f6e7472616374206973206e6f74206960408201526a6e697469616c697a696e6760a81b606082015260800190565b602081526000611095602083018461462656fe360894a13ba1a3210667c828492db98dca3e2076cc3735a920a3ca505d382bbc416464726573733a206c6f772d6c6576656c2064656c65676174652063616c6c206661696c6564a264697066735822122005933364b1657cab767b15504af2b1914843106c43f0183ca541453a821a1e5164736f6c634300080a0033",
    "linkReferences": {}
  },
  "methodIdentifiers": {
    "beacon()": "59659e90",
    "billPremiumForAll()": "27e73542",
    "billPremiumForOnePool(string)": "e6b37f6f",
    "bountiesList(uint256)": "7f2f3e5e",
    "bountyDetails(string)": "d7dc56a5",
    "bountyImplementation()": "cae38faa",
    "claimPremium(string)": "666b7030",
    "deployNewBounty(bytes,string,address,address)": "4c0d9a6c",
    "factory()": "c45a0155",
    "getBountyAddressByName(string)": "66b6c647",
    "initialize(address,address,address)": "c0c53b8b",
    "killBounty(string)": "9ca7e787",
    "owner()": "8da5cb5b",
    "payBounty(string,address,uint256)": "bc160761",
    "projectDeposit(string,uint256)": "f4808fea",
    "projectDepositWithdrawal(string,uint256)": "68dd3dbf",
    "proxiableUUID()": "52d1902d",
    "renounceOwnership()": "715018a6",
    "saloonWallet()": "4389e41a",
    "scheduleProjectDepositWithdrawal(string,uint256)": "b8047881",
    "scheduleUnstake(string,uint256)": "d16ad2f7",
    "setBountyCapAndAPY(string,uint256,uint256)": "58b07d5b",
    "stake(string,uint256)": "9494c8ae",
    "tokenWhitelist(address)": "753d7563",
    "transferOwnership(address)": "f2fde38b",
    "unstake(string,uint256)": "d37c92dc",
    "updateBountyPoolImplementation(address)": "53dce856",
    "updateSaloonWallet(address)": "79f99a89",
    "updateTokenWhitelist(address,bool)": "e5e97c65",
    "upgradeTo(address)": "3659cfe6",
    "upgradeToAndCall(address,bytes)": "4f1ef286",
    "viewAllBountiesByName()": "03c46f51",
    "viewBountyBalance(string)": "05234fda",
    "viewBountyInfo(string)": "943eb4f2",
    "viewBountyOwner(string)": "37787926",
    "viewDesiredAPY(string)": "a667b5d0",
    "viewHackerPayout(string)": "0f0df171",
    "viewHunterTotalTokenPayouts(address,address)": "21580322",
    "viewPoolCap(string)": "3ef0c3ed",
    "viewProjectDeposit(string)": "d3c15cdb",
    "viewSaloonBalance()": "a0d07125",
    "viewTotalEarnedSaloon()": "6c948535",
    "viewTotalHackerPayouts()": "c3149590",
    "viewTotalPremiums()": "e5125d7b",
    "viewTotalSaloonCommission()": "d3326a0a",
    "viewUserStakingBalance(string)": "7dd03e8f",
    "viewstakersDeposit(string)": "b91cdea7",
    "withdrawSaloon(address,address,uint256)": "f0e6b4ed",
    "withdrawSaloonPremiumFees()": "0e060249"
  },
  "id": 30
}