{
  "abi": [
    {
      "anonymous": false,
      "inputs": [
        {
          "indexed": true,
          "internalType": "string",
          "name": "projectName",
          "type": "string"
        },
        {
          "indexed": true,
          "internalType": "uint256",
          "name": "apy",
          "type": "uint256"
        }
      ],
      "name": "APYChanged",
      "type": "event"
    },
    {
      "anonymous": false,
      "inputs": [
        {
          "indexed": false,
          "internalType": "address",
          "name": "previousAdmin",
          "type": "address"
        },
        {
          "indexed": false,
          "internalType": "address",
          "name": "newAdmin",
          "type": "address"
        }
      ],
      "name": "AdminChanged",
      "type": "event"
    },
    {
      "anonymous": false,
      "inputs": [
        {
          "indexed": true,
          "internalType": "address",
          "name": "beacon",
          "type": "address"
        }
      ],
      "name": "BeaconUpgraded",
      "type": "event"
    },
    {
      "anonymous": false,
      "inputs": [
        {
          "indexed": true,
          "internalType": "string",
          "name": "projectName",
          "type": "string"
        },
        {
          "indexed": true,
          "internalType": "uint256",
          "name": "oldAmount",
          "type": "uint256"
        },
        {
          "indexed": true,
          "internalType": "uint256",
          "name": "newAmount",
          "type": "uint256"
        }
      ],
      "name": "BountyBalanceChanged",
      "type": "event"
    },
    {
      "anonymous": false,
      "inputs": [
        {
          "indexed": true,
          "internalType": "string",
          "name": "projectName",
          "type": "string"
        }
      ],
      "name": "BountyKilled",
      "type": "event"
    },
    {
      "anonymous": false,
      "inputs": [
        {
          "indexed": true,
          "internalType": "uint256",
          "name": "time",
          "type": "uint256"
        },
        {
          "indexed": true,
          "internalType": "address",
          "name": "hunter",
          "type": "address"
        },
        {
          "indexed": true,
          "internalType": "uint256",
          "name": "amount",
          "type": "uint256"
        },
        {
          "indexed": false,
          "internalType": "address",
          "name": "token",
          "type": "address"
        }
      ],
      "name": "BountyPaid",
      "type": "event"
    },
    {
      "anonymous": false,
      "inputs": [
        {
          "indexed": true,
          "internalType": "address",
          "name": "newImplementation",
          "type": "address"
        }
      ],
      "name": "BountyPoolImplementationUpdated",
      "type": "event"
    },
    {
      "anonymous": false,
      "inputs": [
        {
          "indexed": true,
          "internalType": "address",
          "name": "sender",
          "type": "address"
        },
        {
          "indexed": true,
          "internalType": "address",
          "name": "_projectWallet",
          "type": "address"
        },
        {
          "indexed": false,
          "internalType": "contract BountyPool",
          "name": "newProxyAddress",
          "type": "address"
        }
      ],
      "name": "DeployNewBounty",
      "type": "event"
    },
    {
      "anonymous": false,
      "inputs": [
        {
          "indexed": false,
          "internalType": "uint8",
          "name": "version",
          "type": "uint8"
        }
      ],
      "name": "Initialized",
      "type": "event"
    },
    {
      "anonymous": false,
      "inputs": [
        {
          "indexed": true,
          "internalType": "address",
          "name": "previousOwner",
          "type": "address"
        },
        {
          "indexed": true,
          "internalType": "address",
          "name": "newOwner",
          "type": "address"
        }
      ],
      "name": "OwnershipTransferred",
      "type": "event"
    },
    {
      "anonymous": false,
      "inputs": [
        {
          "indexed": true,
          "internalType": "string",
          "name": "projectName",
          "type": "string"
        },
        {
          "indexed": true,
          "internalType": "uint256",
          "name": "poolCap",
          "type": "uint256"
        }
      ],
      "name": "PoolCapChanged",
      "type": "event"
    },
    {
      "anonymous": false,
      "inputs": [
        {
          "indexed": true,
          "internalType": "string",
          "name": "projectName",
          "type": "string"
        },
        {
          "indexed": true,
          "internalType": "address",
          "name": "projectWallet",
          "type": "address"
        }
      ],
      "name": "PremiumBilled",
      "type": "event"
    },
    {
      "anonymous": false,
      "inputs": [
        {
          "indexed": true,
          "internalType": "address",
          "name": "token",
          "type": "address"
        },
        {
          "indexed": true,
          "internalType": "uint256",
          "name": "amount",
          "type": "uint256"
        }
      ],
      "name": "SaloonFundsWithdrawal",
      "type": "event"
    },
    {
      "anonymous": false,
      "inputs": [
        {
          "indexed": true,
          "internalType": "uint256",
          "name": "totalCollected",
          "type": "uint256"
        }
      ],
      "name": "SaloonPremiumCollected",
      "type": "event"
    },
    {
      "anonymous": false,
      "inputs": [
        {
          "indexed": true,
          "internalType": "string",
          "name": "projectName",
          "type": "string"
        },
        {
          "indexed": true,
          "internalType": "uint256",
          "name": "previousStaked",
          "type": "uint256"
        },
        {
          "indexed": true,
          "internalType": "uint256",
          "name": "newStaked",
          "type": "uint256"
        }
      ],
      "name": "StakedAmountChanged",
      "type": "event"
    },
    {
      "anonymous": false,
      "inputs": [
        {
          "indexed": true,
          "internalType": "address",
          "name": "implementation",
          "type": "address"
        }
      ],
      "name": "Upgraded",
      "type": "event"
    },
    {
      "anonymous": false,
      "inputs": [
        {
          "indexed": true,
          "internalType": "string",
          "name": "projectName",
          "type": "string"
        },
        {
          "indexed": true,
          "internalType": "uint256",
          "name": "amount",
          "type": "uint256"
        }
      ],
      "name": "WithdrawalorUnstakeScheduled",
      "type": "event"
    },
    {
      "anonymous": false,
      "inputs": [
        {
          "indexed": true,
          "internalType": "address",
          "name": "token",
          "type": "address"
        },
        {
          "indexed": true,
          "internalType": "bool",
          "name": "whitelisted",
          "type": "bool"
        }
      ],
      "name": "tokenWhitelistUpdated",
      "type": "event"
    },
    {
      "inputs": [],
      "name": "beacon",
      "outputs": [
        {
          "internalType": "contract UpgradeableBeacon",
          "name": "",
          "type": "address"
        }
      ],
      "stateMutability": "view",
      "type": "function"
    },
    {
      "inputs": [],
      "name": "billPremiumForAll",
      "outputs": [
        {
          "internalType": "bool",
          "name": "",
          "type": "bool"
        }
      ],
      "stateMutability": "nonpayable",
      "type": "function"
    },
    {
      "inputs": [
        {
          "internalType": "string",
          "name": "_projectName",
          "type": "string"
        }
      ],
      "name": "billPremiumForOnePool",
      "outputs": [
        {
          "internalType": "bool",
          "name": "",
          "type": "bool"
        }
      ],
      "stateMutability": "nonpayable",
      "type": "function"
    },
    {
      "inputs": [
        {
          "internalType": "uint256",
          "name": "",
          "type": "uint256"
        }
      ],
      "name": "bountiesList",
      "outputs": [
        {
          "internalType": "contract BountyPool",
          "name": "proxyAddress",
          "type": "address"
        },
        {
          "internalType": "address",
          "name": "projectWallet",
          "type": "address"
        },
        {
          "internalType": "address",
          "name": "token",
          "type": "address"
        },
        {
          "internalType": "uint256",
          "name": "decimals",
          "type": "uint256"
        },
        {
          "internalType": "string",
          "name": "projectName",
          "type": "string"
        },
        {
          "internalType": "bool",
          "name": "dead",
          "type": "bool"
        }
      ],
      "stateMutability": "view",
      "type": "function"
    },
    {
      "inputs": [
        {
          "internalType": "string",
          "name": "",
          "type": "string"
        }
      ],
      "name": "bountyDetails",
      "outputs": [
        {
          "internalType": "contract BountyPool",
          "name": "proxyAddress",
          "type": "address"
        },
        {
          "internalType": "address",
          "name": "projectWallet",
          "type": "address"
        },
        {
          "internalType": "address",
          "name": "token",
          "type": "address"
        },
        {
          "internalType": "uint256",
          "name": "decimals",
          "type": "uint256"
        },
        {
          "internalType": "string",
          "name": "projectName",
          "type": "string"
        },
        {
          "internalType": "bool",
          "name": "dead",
          "type": "bool"
        }
      ],
      "stateMutability": "view",
      "type": "function"
    },
    {
      "inputs": [],
      "name": "bountyImplementation",
      "outputs": [
        {
          "internalType": "address",
          "name": "",
          "type": "address"
        }
      ],
      "stateMutability": "view",
      "type": "function"
    },
    {
      "inputs": [
        {
          "internalType": "string",
          "name": "_projectName",
          "type": "string"
        }
      ],
      "name": "claimPremium",
      "outputs": [
        {
          "internalType": "uint256",
          "name": "",
          "type": "uint256"
        }
      ],
      "stateMutability": "nonpayable",
      "type": "function"
    },
    {
      "inputs": [
        {
          "internalType": "bytes",
          "name": "_data",
          "type": "bytes"
        },
        {
          "internalType": "string",
          "name": "_projectName",
          "type": "string"
        },
        {
          "internalType": "address",
          "name": "_token",
          "type": "address"
        },
        {
          "internalType": "address",
          "name": "_projectWallet",
          "type": "address"
        }
      ],
      "name": "deployNewBounty",
      "outputs": [
        {
          "internalType": "contract BountyPool",
          "name": "",
          "type": "address"
        },
        {
          "internalType": "bool",
          "name": "",
          "type": "bool"
        }
      ],
      "stateMutability": "nonpayable",
      "type": "function"
    },
    {
      "inputs": [],
      "name": "factory",
      "outputs": [
        {
          "internalType": "contract BountyProxyFactory",
          "name": "",
          "type": "address"
        }
      ],
      "stateMutability": "view",
      "type": "function"
    },
    {
      "inputs": [
        {
          "internalType": "string",
          "name": "_projectName",
          "type": "string"
        }
      ],
      "name": "getBountyAddressByName",
      "outputs": [
        {
          "internalType": "address",
          "name": "",
          "type": "address"
        }
      ],
      "stateMutability": "view",
      "type": "function"
    },
    {
      "inputs": [
        {
          "internalType": "contract BountyProxyFactory",
          "name": "_factory",
          "type": "address"
        },
        {
          "internalType": "contract UpgradeableBeacon",
          "name": "_beacon",
          "type": "address"
        },
        {
          "internalType": "address",
          "name": "_bountyImplementation",
          "type": "address"
        }
      ],
      "name": "initialize",
      "outputs": [],
      "stateMutability": "nonpayable",
      "type": "function"
    },
    {
      "inputs": [
        {
          "internalType": "string",
          "name": "_projectName",
          "type": "string"
        }
      ],
      "name": "killBounty",
      "outputs": [
        {
          "internalType": "bool",
          "name": "",
          "type": "bool"
        }
      ],
      "stateMutability": "nonpayable",
      "type": "function"
    },
    {
      "inputs": [],
      "name": "owner",
      "outputs": [
        {
          "internalType": "address",
          "name": "",
          "type": "address"
        }
      ],
      "stateMutability": "view",
      "type": "function"
    },
    {
      "inputs": [
        {
          "internalType": "string",
          "name": "_projectName",
          "type": "string"
        },
        {
          "internalType": "address",
          "name": "_hunter",
          "type": "address"
        },
        {
          "internalType": "uint256",
          "name": "_amount",
          "type": "uint256"
        }
      ],
      "name": "payBounty",
      "outputs": [
        {
          "internalType": "bool",
          "name": "",
          "type": "bool"
        }
      ],
      "stateMutability": "nonpayable",
      "type": "function"
    },
    {
      "inputs": [
        {
          "internalType": "string",
          "name": "_projectName",
          "type": "string"
        },
        {
          "internalType": "uint256",
          "name": "_amount",
          "type": "uint256"
        }
      ],
      "name": "projectDeposit",
      "outputs": [
        {
          "internalType": "bool",
          "name": "",
          "type": "bool"
        }
      ],
      "stateMutability": "nonpayable",
      "type": "function"
    },
    {
      "inputs": [
        {
          "internalType": "string",
          "name": "_projectName",
          "type": "string"
        },
        {
          "internalType": "uint256",
          "name": "_amount",
          "type": "uint256"
        }
      ],
      "name": "projectDepositWithdrawal",
      "outputs": [
        {
          "internalType": "bool",
          "name": "",
          "type": "bool"
        }
      ],
      "stateMutability": "nonpayable",
      "type": "function"
    },
    {
      "inputs": [],
      "name": "proxiableUUID",
      "outputs": [
        {
          "internalType": "bytes32",
          "name": "",
          "type": "bytes32"
        }
      ],
      "stateMutability": "view",
      "type": "function"
    },
    {
      "inputs": [],
      "name": "renounceOwnership",
      "outputs": [],
      "stateMutability": "nonpayable",
      "type": "function"
    },
    {
      "inputs": [],
      "name": "saloonWallet",
      "outputs": [
        {
          "internalType": "contract SaloonWallet",
          "name": "",
          "type": "address"
        }
      ],
      "stateMutability": "view",
      "type": "function"
    },
    {
      "inputs": [
        {
          "internalType": "string",
          "name": "_projectName",
          "type": "string"
        },
        {
          "internalType": "uint256",
          "name": "_newAPY",
          "type": "uint256"
        }
      ],
      "name": "scheduleAPYChange",
      "outputs": [
        {
          "internalType": "bool",
          "name": "",
          "type": "bool"
        }
      ],
      "stateMutability": "nonpayable",
      "type": "function"
    },
    {
      "inputs": [
        {
          "internalType": "string",
          "name": "_projectName",
          "type": "string"
        },
        {
          "internalType": "uint256",
          "name": "_newPoolCap",
          "type": "uint256"
        }
      ],
      "name": "schedulePoolCapChange",
      "outputs": [
        {
          "internalType": "bool",
          "name": "",
          "type": "bool"
        }
      ],
      "stateMutability": "nonpayable",
      "type": "function"
    },
    {
      "inputs": [
        {
          "internalType": "string",
          "name": "_projectName",
          "type": "string"
        },
        {
          "internalType": "uint256",
          "name": "_amount",
          "type": "uint256"
        }
      ],
      "name": "scheduleProjectDepositWithdrawal",
      "outputs": [
        {
          "internalType": "bool",
          "name": "",
          "type": "bool"
        }
      ],
      "stateMutability": "nonpayable",
      "type": "function"
    },
    {
      "inputs": [
        {
          "internalType": "string",
          "name": "_projectName",
          "type": "string"
        },
        {
          "internalType": "uint256",
          "name": "_amount",
          "type": "uint256"
        }
      ],
      "name": "scheduleUnstake",
      "outputs": [
        {
          "internalType": "bool",
          "name": "",
          "type": "bool"
        }
      ],
      "stateMutability": "nonpayable",
      "type": "function"
    },
    {
      "inputs": [
        {
          "internalType": "string",
          "name": "_projectName",
          "type": "string"
        },
        {
          "internalType": "uint256",
          "name": "_newAPY",
          "type": "uint256"
        }
      ],
      "name": "setAPY",
      "outputs": [
        {
          "internalType": "bool",
          "name": "",
          "type": "bool"
        }
      ],
      "stateMutability": "nonpayable",
      "type": "function"
    },
    {
      "inputs": [
        {
          "internalType": "string",
          "name": "_projectName",
          "type": "string"
        },
        {
          "internalType": "uint256",
          "name": "_poolCap",
          "type": "uint256"
        },
        {
          "internalType": "uint256",
          "name": "_desiredAPY",
          "type": "uint256"
        }
      ],
      "name": "setBountyCapAndAPY",
      "outputs": [
        {
          "internalType": "bool",
          "name": "",
          "type": "bool"
        }
      ],
      "stateMutability": "nonpayable",
      "type": "function"
    },
    {
      "inputs": [
        {
          "internalType": "string",
          "name": "_projectName",
          "type": "string"
        },
        {
          "internalType": "uint256",
          "name": "_newPoolCap",
          "type": "uint256"
        }
      ],
      "name": "setPoolCap",
      "outputs": [
        {
          "internalType": "bool",
          "name": "",
          "type": "bool"
        }
      ],
      "stateMutability": "nonpayable",
      "type": "function"
    },
    {
      "inputs": [
        {
          "internalType": "string",
          "name": "_projectName",
          "type": "string"
        },
        {
          "internalType": "uint256",
          "name": "_amount",
          "type": "uint256"
        }
      ],
      "name": "stake",
      "outputs": [
        {
          "internalType": "bool",
          "name": "",
          "type": "bool"
        }
      ],
      "stateMutability": "nonpayable",
      "type": "function"
    },
    {
      "inputs": [
        {
          "internalType": "address",
          "name": "",
          "type": "address"
        }
      ],
      "name": "tokenWhitelist",
      "outputs": [
        {
          "internalType": "bool",
          "name": "",
          "type": "bool"
        }
      ],
      "stateMutability": "view",
      "type": "function"
    },
    {
      "inputs": [
        {
          "internalType": "address",
          "name": "newOwner",
          "type": "address"
        }
      ],
      "name": "transferOwnership",
      "outputs": [],
      "stateMutability": "nonpayable",
      "type": "function"
    },
    {
      "inputs": [
        {
          "internalType": "string",
          "name": "_projectName",
          "type": "string"
        },
        {
          "internalType": "uint256",
          "name": "_amount",
          "type": "uint256"
        }
      ],
      "name": "unstake",
      "outputs": [
        {
          "internalType": "bool",
          "name": "",
          "type": "bool"
        }
      ],
      "stateMutability": "nonpayable",
      "type": "function"
    },
    {
      "inputs": [
        {
          "internalType": "address",
          "name": "_newImplementation",
          "type": "address"
        }
      ],
      "name": "updateBountyPoolImplementation",
      "outputs": [
        {
          "internalType": "bool",
          "name": "",
          "type": "bool"
        }
      ],
      "stateMutability": "nonpayable",
      "type": "function"
    },
    {
      "inputs": [
        {
          "internalType": "address",
          "name": "_newWallet",
          "type": "address"
        }
      ],
      "name": "updateSaloonWallet",
      "outputs": [],
      "stateMutability": "nonpayable",
      "type": "function"
    },
    {
      "inputs": [
        {
          "internalType": "address",
          "name": "_token",
          "type": "address"
        },
        {
          "internalType": "bool",
          "name": "_whitelisted",
          "type": "bool"
        }
      ],
      "name": "updateTokenWhitelist",
      "outputs": [
        {
          "internalType": "bool",
          "name": "",
          "type": "bool"
        }
      ],
      "stateMutability": "nonpayable",
      "type": "function"
    },
    {
      "inputs": [
        {
          "internalType": "address",
          "name": "newImplementation",
          "type": "address"
        }
      ],
      "name": "upgradeTo",
      "outputs": [],
      "stateMutability": "nonpayable",
      "type": "function"
    },
    {
      "inputs": [
        {
          "internalType": "address",
          "name": "newImplementation",
          "type": "address"
        },
        {
          "internalType": "bytes",
          "name": "data",
          "type": "bytes"
        }
      ],
      "name": "upgradeToAndCall",
      "outputs": [],
      "stateMutability": "payable",
      "type": "function"
    },
    {
      "inputs": [],
      "name": "viewAllBountiesByName",
      "outputs": [
        {
          "components": [
            {
              "internalType": "contract BountyPool",
              "name": "proxyAddress",
              "type": "address"
            },
            {
              "internalType": "address",
              "name": "projectWallet",
              "type": "address"
            },
            {
              "internalType": "address",
              "name": "token",
              "type": "address"
            },
            {
              "internalType": "uint256",
              "name": "decimals",
              "type": "uint256"
            },
            {
              "internalType": "string",
              "name": "projectName",
              "type": "string"
            },
            {
              "internalType": "bool",
              "name": "dead",
              "type": "bool"
            }
          ],
          "internalType": "struct BountyProxiesManager.Bounties[]",
          "name": "",
          "type": "tuple[]"
        }
      ],
      "stateMutability": "view",
      "type": "function"
    },
    {
      "inputs": [
        {
          "internalType": "string",
          "name": "_projectName",
          "type": "string"
        }
      ],
      "name": "viewBountyBalance",
      "outputs": [
        {
          "internalType": "uint256",
          "name": "",
          "type": "uint256"
        }
      ],
      "stateMutability": "view",
      "type": "function"
    },
    {
      "inputs": [
        {
          "internalType": "string",
          "name": "_projectName",
          "type": "string"
        }
      ],
      "name": "viewBountyInfo",
      "outputs": [
        {
          "internalType": "uint256",
          "name": "payout",
          "type": "uint256"
        },
        {
          "internalType": "uint256",
          "name": "apy",
          "type": "uint256"
        },
        {
          "internalType": "uint256",
          "name": "staked",
          "type": "uint256"
        },
        {
          "internalType": "uint256",
          "name": "poolCap",
          "type": "uint256"
        }
      ],
      "stateMutability": "view",
      "type": "function"
    },
    {
      "inputs": [
        {
          "internalType": "string",
          "name": "_projectName",
          "type": "string"
        }
      ],
      "name": "viewBountyOwner",
      "outputs": [
        {
          "internalType": "address",
          "name": "",
          "type": "address"
        }
      ],
      "stateMutability": "view",
      "type": "function"
    },
    {
      "inputs": [
        {
          "internalType": "string",
          "name": "_projectName",
          "type": "string"
        }
      ],
      "name": "viewDesiredAPY",
      "outputs": [
        {
          "internalType": "uint256",
          "name": "",
          "type": "uint256"
        }
      ],
      "stateMutability": "view",
      "type": "function"
    },
    {
      "inputs": [
        {
          "internalType": "string",
          "name": "_projectName",
          "type": "string"
        }
      ],
      "name": "viewHackerPayout",
      "outputs": [
        {
          "internalType": "uint256",
          "name": "",
          "type": "uint256"
        }
      ],
      "stateMutability": "view",
      "type": "function"
    },
    {
      "inputs": [
        {
          "internalType": "address",
          "name": "_token",
          "type": "address"
        },
        {
          "internalType": "address",
          "name": "_hunter",
          "type": "address"
        }
      ],
      "name": "viewHunterTotalTokenPayouts",
      "outputs": [
        {
          "internalType": "uint256",
          "name": "",
          "type": "uint256"
        }
      ],
      "stateMutability": "view",
      "type": "function"
    },
    {
      "inputs": [
        {
          "internalType": "string",
          "name": "_projectName",
          "type": "string"
        }
      ],
      "name": "viewPoolCap",
      "outputs": [
        {
          "internalType": "uint256",
          "name": "",
          "type": "uint256"
        }
      ],
      "stateMutability": "view",
      "type": "function"
    },
    {
      "inputs": [
        {
          "internalType": "string",
          "name": "_projectName",
          "type": "string"
        }
      ],
      "name": "viewProjectDeposit",
      "outputs": [
        {
          "internalType": "uint256",
          "name": "",
          "type": "uint256"
        }
      ],
      "stateMutability": "view",
      "type": "function"
    },
    {
      "inputs": [],
      "name": "viewSaloonBalance",
      "outputs": [
        {
          "internalType": "uint256",
          "name": "",
          "type": "uint256"
        }
      ],
      "stateMutability": "view",
      "type": "function"
    },
    {
      "inputs": [],
      "name": "viewTotalEarnedSaloon",
      "outputs": [
        {
          "internalType": "uint256",
          "name": "",
          "type": "uint256"
        }
      ],
      "stateMutability": "view",
      "type": "function"
    },
    {
      "inputs": [],
      "name": "viewTotalHackerPayouts",
      "outputs": [
        {
          "internalType": "uint256",
          "name": "",
          "type": "uint256"
        }
      ],
      "stateMutability": "view",
      "type": "function"
    },
    {
      "inputs": [],
      "name": "viewTotalPremiums",
      "outputs": [
        {
          "internalType": "uint256",
          "name": "",
          "type": "uint256"
        }
      ],
      "stateMutability": "view",
      "type": "function"
    },
    {
      "inputs": [],
      "name": "viewTotalSaloonCommission",
      "outputs": [
        {
          "internalType": "uint256",
          "name": "",
          "type": "uint256"
        }
      ],
      "stateMutability": "view",
      "type": "function"
    },
    {
      "inputs": [
        {
          "internalType": "string",
          "name": "_projectName",
          "type": "string"
        },
        {
          "internalType": "address",
          "name": "_staker",
          "type": "address"
        }
      ],
      "name": "viewUserStakingBalance",
      "outputs": [
        {
          "internalType": "uint256",
          "name": "",
          "type": "uint256"
        }
      ],
      "stateMutability": "view",
      "type": "function"
    },
    {
      "inputs": [
        {
          "internalType": "string",
          "name": "_projectName",
          "type": "string"
        },
        {
          "internalType": "address",
          "name": "_staker",
          "type": "address"
        }
      ],
      "name": "viewUserTimelock",
      "outputs": [
        {
          "internalType": "uint256",
          "name": "timelock",
          "type": "uint256"
        },
        {
          "internalType": "uint256",
          "name": "amount",
          "type": "uint256"
        },
        {
          "internalType": "bool",
          "name": "executed",
          "type": "bool"
        }
      ],
      "stateMutability": "view",
      "type": "function"
    },
    {
      "inputs": [
        {
          "internalType": "string",
          "name": "_projectName",
          "type": "string"
        }
      ],
      "name": "viewstakersDeposit",
      "outputs": [
        {
          "internalType": "uint256",
          "name": "",
          "type": "uint256"
        }
      ],
      "stateMutability": "view",
      "type": "function"
    },
    {
      "inputs": [
        {
          "internalType": "address",
          "name": "_token",
          "type": "address"
        },
        {
          "internalType": "address",
          "name": "_to",
          "type": "address"
        },
        {
          "internalType": "uint256",
          "name": "_amount",
          "type": "uint256"
        }
      ],
      "name": "withdrawSaloon",
      "outputs": [
        {
          "internalType": "bool",
          "name": "",
          "type": "bool"
        }
      ],
      "stateMutability": "nonpayable",
      "type": "function"
    },
    {
      "inputs": [],
      "name": "withdrawSaloonPremiumFees",
      "outputs": [
        {
          "internalType": "bool",
          "name": "",
          "type": "bool"
        }
      ],
      "stateMutability": "nonpayable",
      "type": "function"
    }
  ],
  "bytecode": {
    "object": "0x60a06040523060805234801561001457600080fd5b5060805161606e6200004d6000396000818161197c015281816119bc015281816120ea0152818161212a01526121bd015261606e6000f3fe6080604052600436106103355760003560e01c80638da5cb5b116101ab578063c8191c54116100f7578063d7dc56a511610095578063e6b37f6f1161006f578063e6b37f6f146109c5578063f0e6b4ed146109e5578063f2fde38b14610a05578063f4808fea14610a2557600080fd5b8063d7dc56a514610970578063e5125d7b14610990578063e5e97c65146109a557600080fd5b8063d3326a0a116100d1578063d3326a0a146108fb578063d37c92dc14610910578063d3c15cdb14610930578063d70ef6f41461095057600080fd5b8063c8191c541461087e578063cae38faa146108bb578063d16ad2f7146108db57600080fd5b8063a667b5d011610164578063bc1607611161013e578063bc16076114610809578063c0c53b8b14610829578063c314959014610849578063c45a01551461085e57600080fd5b8063a667b5d0146107a9578063b8047881146107c9578063b91cdea7146107e957600080fd5b80638da5cb5b146106d6578063943eb4f2146106f45780639494c8ae146107345780639ca7e78714610754578063a0d0712514610774578063a1f0b8421461078957600080fd5b80634f1ef2861161028557806368dd3dbf11610223578063753d7563116101fd578063753d7563146106345780637611fc621461066457806379f99a89146106845780637f2f3e5e146106a457600080fd5b806368dd3dbf146105ea5780636c9485351461060a578063715018a61461061f57600080fd5b806358b07d5b1161025f57806358b07d5b1461056a57806359659e901461058a578063666b7030146105aa57806366b6c647146105ca57600080fd5b80634f1ef2861461052257806352d1902d1461053557806353dce8561461054a57600080fd5b806321580322116102f257806337787926116102cc578063377879261461046b5780633ef0c3ed146104a35780634389e41a146104c35780634c0d9a6c146104e357600080fd5b8063215803221461041457806327e73542146104345780633659cfe61461044957600080fd5b806301f5b1ff1461033a57806303c46f511461036f57806305234fda146103915780630e060249146103bf5780630f0df171146103d457806315daef49146103f4575b600080fd5b34801561034657600080fd5b5061035a61035536600461567e565b610a45565b60405190151581526020015b60405180910390f35b34801561037b57600080fd5b50610384610c73565b604051610366919061571b565b34801561039d57600080fd5b506103b16103ac3660046157cf565b610db2565b604051908152602001610366565b3480156103cb57600080fd5b5061035a610f2f565b3480156103e057600080fd5b506103b16103ef3660046157cf565b61126a565b34801561040057600080fd5b506103b161040f366004615819565b6113bc565b34801561042057600080fd5b506103b161042f36600461586b565b611541565b34801561044057600080fd5b5061035a611594565b34801561045557600080fd5b50610469610464366004615899565b611971565b005b34801561047757600080fd5b5061048b6104863660046157cf565b611a51565b6040516001600160a01b039091168152602001610366565b3480156104af57600080fd5b506103b16104be3660046157cf565b611a85565b3480156104cf57600080fd5b5060685461048b906001600160a01b031681565b3480156104ef57600080fd5b506105036104fe3660046158b6565b611bda565b604080516001600160a01b039093168352901515602083015201610366565b61046961053036600461593f565b6120df565b34801561054157600080fd5b506103b16121b0565b34801561055657600080fd5b5061035a610565366004615899565b612263565b34801561057657600080fd5b5061035a61058536600461598f565b61234d565b34801561059657600080fd5b5060665461048b906001600160a01b031681565b3480156105b657600080fd5b506103b16105c53660046157cf565b61263e565b3480156105d657600080fd5b5061048b6105e53660046157cf565b612809565b3480156105f657600080fd5b5061035a61060536600461567e565b61283a565b34801561061657600080fd5b506103b1612b0e565b34801561062b57600080fd5b50610469612b81565b34801561064057600080fd5b5061035a61064f366004615899565b606b6020526000908152604090205460ff1681565b34801561067057600080fd5b5061035a61067f36600461567e565b612b95565b34801561069057600080fd5b5061046961069f366004615899565b612ddc565b3480156106b057600080fd5b506106c46106bf3660046159dd565b612e53565b604051610366969594939291906159f6565b3480156106e257600080fd5b506033546001600160a01b031661048b565b34801561070057600080fd5b5061071461070f3660046157cf565b612f37565b604080519485526020850193909352918301526060820152608001610366565b34801561074057600080fd5b5061035a61074f36600461567e565b612f70565b34801561076057600080fd5b5061035a61076f3660046157cf565b6132c4565b34801561078057600080fd5b506103b1613347565b34801561079557600080fd5b5061035a6107a436600461567e565b613391565b3480156107b557600080fd5b506103b16107c43660046157cf565b613588565b3480156107d557600080fd5b5061035a6107e436600461567e565b6136da565b3480156107f557600080fd5b506103b16108043660046157cf565b613921565b34801561081557600080fd5b5061035a610824366004615a46565b613a73565b34801561083557600080fd5b50610469610844366004615aa0565b613d66565b34801561085557600080fd5b506103b1613eb7565b34801561086a57600080fd5b5060655461048b906001600160a01b031681565b34801561088a57600080fd5b5061089e610899366004615819565b613f01565b604080519384526020840192909252151590820152606001610366565b3480156108c757600080fd5b5060675461048b906001600160a01b031681565b3480156108e757600080fd5b5061035a6108f636600461567e565b61408b565b34801561090757600080fd5b506103b1614283565b34801561091c57600080fd5b5061035a61092b36600461567e565b6142cd565b34801561093c57600080fd5b506103b161094b3660046157cf565b614605565b34801561095c57600080fd5b5061035a61096b36600461567e565b614757565b34801561097c57600080fd5b506106c461098b3660046157cf565b614915565b34801561099c57600080fd5b506103b1614964565b3480156109b157600080fd5b5061035a6109c0366004615af9565b6149ae565b3480156109d157600080fd5b5061035a6109e03660046157cf565b614a11565b3480156109f157600080fd5b5061035a610a00366004615b27565b614c29565b348015610a1157600080fd5b50610469610a20366004615899565b614dc3565b348015610a3157600080fd5b5061035a610a4036600461567e565b614e39565b600080606a84604051610a589190615b57565b90815260408051918290036020908101832060c08401835280546001600160a01b039081168552600182015481169285019290925260028101549091169183019190915260038101546060830152600481018054608084019190610abb90615b73565b80601f0160208091040260200160405190810160405280929190818152602001828054610ae790615b73565b8015610b345780601f10610b0957610100808354040283529160200191610b34565b820191906000526020600020905b815481529060010190602001808311610b1757829003601f168201915b50505091835250506005919091015460ff16151560209091015260a0810151909150610b5f9061506e565b1515600114610b895760405162461bcd60e51b8152600401610b8090615bae565b60405180910390fd5b80602001516001600160a01b0316336001600160a01b031614610bbe5760405162461bcd60e51b8152600401610b8090615bd6565b60008160600151600a610bd19190615cfb565b610bdb9085615d07565b825160405163d835f53560e01b8152600481018390529192506001600160a01b03169063d835f53590602401600060405180830381600087803b158015610c2157600080fd5b505af1158015610c35573d6000803e3d6000fd5b505050508085604051610c489190615b57565b60405190819003812090600080516020615fb283398151915290600090a36001925050505b92915050565b60606069805480602002602001604051908101604052809291908181526020016000905b82821015610da95760008481526020908190206040805160c0810182526006860290920180546001600160a01b039081168452600182015481169484019490945260028101549093169082015260038201546060820152600482018054919291608084019190610d0690615b73565b80601f0160208091040260200160405190810160405280929190818152602001828054610d3290615b73565b8015610d7f5780601f10610d5457610100808354040283529160200191610d7f565b820191906000526020600020905b815481529060010190602001808311610d6257829003601f168201915b50505091835250506005919091015460ff1615156020918201529082526001929092019101610c97565b50505050905090565b600080606a83604051610dc59190615b57565b90815260408051918290036020908101832060c08401835280546001600160a01b039081168552600182015481169285019290925260028101549091169183019190915260038101546060830152600481018054608084019190610e2890615b73565b80601f0160208091040260200160405190810160405280929190818152602001828054610e5490615b73565b8015610ea15780601f10610e7657610100808354040283529160200191610ea1565b820191906000526020600020905b815481529060010190602001808311610e8457829003601f168201915b50505091835250506005919091015460ff161515602091820152815160408051637228407360e11b815290519394506001600160a01b039091169263e45080e6926004808401939192918290030181865afa158015610f04573d6000803e3d6000fd5b505050506040513d601f19601f82011682018060405250810190610f289190615d26565b9392505050565b6000610f3961507e565b60006069805480602002602001604051908101604052809291908181526020016000905b8282101561106f5760008481526020908190206040805160c0810182526006860290920180546001600160a01b039081168452600182015481169484019490945260028101549093169082015260038201546060820152600482018054919291608084019190610fcc90615b73565b80601f0160208091040260200160405190810160405280929190818152602001828054610ff890615b73565b80156110455780601f1061101a57610100808354040283529160200191611045565b820191906000526020600020905b81548152906001019060200180831161102857829003601f168201915b50505091835250506005919091015460ff1615156020918201529082526001929092019101610f5d565b5050505090506000815190506000805b82811015611234576110ad84828151811061109c5761109c615d3f565b602002602001015160a0015161506e565b6110b657611224565b60008482815181106110ca576110ca615d3f565b6020026020010151600001516001600160a01b0316635121ac9d8684815181106110f6576110f6615d3f565b6020908102919091010151604090810151606854915160e084901b6001600160e01b03191681526001600160a01b039182166004820152911660248201526044016020604051808303816000875af1158015611156573d6000803e3d6000fd5b505050506040513d601f19601f8201168201806040525081019061117a9190615d26565b60685486519192506001600160a01b0316906383ab9304908790859081106111a4576111a4615d3f565b602002602001015160400151836040518363ffffffff1660e01b81526004016111e29291906001600160a01b03929092168252602082015260400190565b600060405180830381600087803b1580156111fc57600080fd5b505af1158015611210573d6000803e3d6000fd5b5050505080836112209190615d55565b9250505b61122d81615d6d565b905061107f565b5060405181907ff61dcc40e5f2c6bc5b24cb6f24690965e673c4c563bbf94cbbdaff36bffde00b90600090a26001935050505090565b600080606a8360405161127d9190615b57565b90815260408051918290036020908101832060c08401835280546001600160a01b0390811685526001820154811692850192909252600281015490911691830191909152600381015460608301526004810180546080840191906112e090615b73565b80601f016020809104026020016040519081016040528092919081815260200182805461130c90615b73565b80156113595780601f1061132e57610100808354040283529160200191611359565b820191906000526020600020905b81548152906001019060200180831161133c57829003601f168201915b50505091835250506005919091015460ff161515602091820152815160408051634a94bcb360e01b815290519394506001600160a01b0390911692634a94bcb3926004808401939192918290030181865afa158015610f04573d6000803e3d6000fd5b600080606a846040516113cf9190615b57565b90815260408051918290036020908101832060c08401835280546001600160a01b03908116855260018201548116928501929092526002810154909116918301919091526003810154606083015260048101805460808401919061143290615b73565b80601f016020809104026020016040519081016040528092919081815260200182805461145e90615b73565b80156114ab5780601f10611480576101008083540402835291602001916114ab565b820191906000526020600020905b81548152906001019060200180831161148e57829003601f168201915b50505091835250506005919091015460ff1615156020909101528051604051631a89cabd60e01b81526001600160a01b03868116600483015292935060009290911690631a89cabd906024016040805180830381865afa158015611513573d6000803e3d6000fd5b505050506040513d601f19601f820116820180604052508101906115379190615d88565b5095945050505050565b6068546040516310ac019160e11b81526001600160a01b03848116600483015283811660248301526000921690632158032290604401602060405180830381865afa158015610f04573d6000803e3d6000fd5b6000806069805480602002602001604051908101604052809291908181526020016000905b828210156116cb5760008481526020908190206040805160c0810182526006860290920180546001600160a01b03908116845260018201548116948401949094526002810154909316908201526003820154606082015260048201805491929160808401919061162890615b73565b80601f016020809104026020016040519081016040528092919081815260200182805461165490615b73565b80156116a15780601f10611676576101008083540402835291602001916116a1565b820191906000526020600020905b81548152906001019060200180831161168457829003601f168201915b50505091835250506005919091015460ff16151560209182015290825260019290920191016115b9565b5050825192935060009150505b81811015611967576116f583828151811061109c5761109c615d3f565b6116fe57611957565b82818151811061171057611710615d3f565b6020026020010151600001516001600160a01b0316638aa82e8284838151811061173c5761173c615d3f565b60200260200101516040015185848151811061175a5761175a615d3f565b6020026020010151602001516040518363ffffffff1660e01b81526004016117989291906001600160a01b0392831681529116602082015260400190565b6020604051808303816000875af11580156117b7573d6000803e3d6000fd5b505050506040513d601f19601f820116820180604052508101906117db9190615dac565b15156001141561186c578281815181106117f7576117f7615d3f565b6020026020010151602001516001600160a01b031683828151811061181e5761181e615d3f565b6020026020010151608001516040516118379190615b57565b604051908190038120907fd5d2d05dfe0d10d196c53d6f16e6d70e4dbb9cb77fe8682f6c68e9426c29103090600090a3611957565b600061189484838151811061188357611883615d3f565b602002602001015160800151613588565b905060006118be8584815181106118ad576118ad615d3f565b602002602001015160800151611a85565b9050808584815181106118d3576118d3615d3f565b6020026020010151608001516040516118ec9190615b57565b60405190819003812090600080516020615fb283398151915290600090a38185848151811061191d5761191d615d3f565b6020026020010151608001516040516119369190615b57565b60405190819003812090600080516020615ff283398151915290600090a350505b61196081615d6d565b90506116d8565b5060019250505090565b306001600160a01b037f00000000000000000000000000000000000000000000000000000000000000001614156119ba5760405162461bcd60e51b8152600401610b8090615dc9565b7f00000000000000000000000000000000000000000000000000000000000000006001600160a01b0316611a03600080516020615fd2833981519152546001600160a01b031690565b6001600160a01b031614611a295760405162461bcd60e51b8152600401610b8090615e15565b611a32816150d8565b60408051600080825260208201909252611a4e918391906150e0565b50565b6000606a82604051611a639190615b57565b908152604051908190036020019020600101546001600160a01b031692915050565b600080606a83604051611a989190615b57565b90815260408051918290036020908101832060c08401835280546001600160a01b039081168552600182015481169285019290925260028101549091169183019190915260038101546060830152600481018054608084019190611afb90615b73565b80601f0160208091040260200160405190810160405280929190818152602001828054611b2790615b73565b8015611b745780601f10611b4957610100808354040283529160200191611b74565b820191906000526020600020905b815481529060010190602001808311611b5757829003601f168201915b50505091835250506005919091015460ff16151560209182015281516040805160016202e8ad60e61b0319815290519394506001600160a01b039091169263ff45d4c0926004808401939192918290030181865afa158015610f04573d6000803e3d6000fd5b600080611be561507e565b60006001600160a01b0316606a86604051611c009190615b57565b908152604051908190036020019020546001600160a01b031614611c665760405162461bcd60e51b815260206004820152601a60248201527f50726f6a65637420616c72656164792068617320626f756e74790000000000006044820152606401610b80565b6001600160a01b0384166000908152606b602052604090205460ff161515600114611cc85760405162461bcd60e51b8152602060048201526012602482015271151bdad95b881b9bdd08185c1c1c9bdd995960721b6044820152606401610b80565b6040805160c08101825260008082526060820181905260a0820152608081018790526001600160a01b03858116602080840191909152908716828401819052835163313ce56760e01b815293519293909263313ce567926004808401939192918290030181865afa158015611d41573d6000803e3d6000fd5b505050506040513d601f19601f82011682018060405250810190611d659190615e61565b60ff1660608201819052611db45760405162461bcd60e51b8152602060048201526016602482015275496e76616c696420546f6b656e20446563696d616c7360501b6044820152606401610b80565b6065546066546040516336d9881760e01b81526000926001600160a01b03908116926336d9881792611dee92909116908c90600401615e84565b6020604051808303816000875af1158015611e0d573d6000803e3d6000fd5b505050506040513d601f19601f82011682018060405250810190611e319190615ea8565b6060830151604051635a898d0360e01b815230600482015260248101919091529091506001600160a01b03821690635a898d0390604401600060405180830381600087803b158015611e8257600080fd5b505af1158015611e96573d6000803e3d6000fd5b5050506001600160a01b03808316845260698054600181018255600091909152845160069091027f7fb4302e8e91f9110a6554c2c0a24601252c2a42c2220ca988efcfe399914308810180549284166001600160a01b03199384161781556020808801517f7fb4302e8e91f9110a6554c2c0a24601252c2a42c2220ca988efcfe3999143098401805491871691861691909117905560408801517f7fb4302e8e91f9110a6554c2c0a24601252c2a42c2220ca988efcfe39991430a840180549190961694169390931790935560608601517f7fb4302e8e91f9110a6554c2c0a24601252c2a42c2220ca988efcfe39991430b82015560808601518051879550611fc8937f7fb4302e8e91f9110a6554c2c0a24601252c2a42c2220ca988efcfe39991430c909301929190910190615542565b5060a091909101516005909101805460ff19169115159190911790556040518290606a90611ff7908a90615b57565b9081526040805160209281900383019020835181546001600160a01b03199081166001600160a01b03928316178355858501516001840180548316918416919091179055928501516002830180549094169116179091556060830151600382015560808301518051919261207392600485019290910190615542565b5060a091909101516005909101805460ff19169115159190911790556040516001600160a01b03828116825286169033907fa397122091ddbad4417c188353200f86978770ea6a146a5860667b1ef760917c9060200160405180910390a3976001975095505050505050565b306001600160a01b037f00000000000000000000000000000000000000000000000000000000000000001614156121285760405162461bcd60e51b8152600401610b8090615dc9565b7f00000000000000000000000000000000000000000000000000000000000000006001600160a01b0316612171600080516020615fd2833981519152546001600160a01b031690565b6001600160a01b0316146121975760405162461bcd60e51b8152600401610b8090615e15565b6121a0826150d8565b6121ac828260016150e0565b5050565b6000306001600160a01b037f000000000000000000000000000000000000000000000000000000000000000016146122505760405162461bcd60e51b815260206004820152603860248201527f555550535570677261646561626c653a206d757374206e6f742062652063616c60448201527f6c6564207468726f7567682064656c656761746563616c6c00000000000000006064820152608401610b80565b50600080516020615fd283398151915290565b600061226d61507e565b6001600160a01b0382166122b25760405162461bcd60e51b815260206004820152600c60248201526b41646472657373207a65726f60a01b6044820152606401610b80565b606654604051631b2ce7f360e11b81526001600160a01b03848116600483015290911690633659cfe690602401600060405180830381600087803b1580156122f957600080fd5b505af115801561230d573d6000803e3d6000fd5b50506040516001600160a01b03851692507f8351bb7d88cde824de55ae548c81488c9bea6ad24cafb7644e7df7ac0cfcb46c9150600090a2506001919050565b600080606a856040516123609190615b57565b90815260408051918290036020908101832060c08401835280546001600160a01b0390811685526001820154811692850192909252600281015490911691830191909152600381015460608301526004810180546080840191906123c390615b73565b80601f01602080910402602001604051908101604052809291908181526020018280546123ef90615b73565b801561243c5780601f106124115761010080835404028352916020019161243c565b820191906000526020600020905b81548152906001019060200180831161241f57829003601f168201915b50505091835250506005919091015460ff16151560209091015260a08101519091506124679061506e565b15156001146124885760405162461bcd60e51b8152600401610b8090615bae565b80602001516001600160a01b0316336001600160a01b0316146124bd5760405162461bcd60e51b8152600401610b8090615bd6565b60008160600151600a6124d09190615cfb565b6124da9086615d07565b905060008260600151600a6124ef9190615cfb565b6124f99086615d07565b835160405163d835f53560e01b8152600481018590529192506001600160a01b03169063d835f53590602401600060405180830381600087803b15801561253f57600080fd5b505af1158015612553573d6000803e3d6000fd5b5050505082600001516001600160a01b031663cc12c31184604001518560200151846040518463ffffffff1660e01b815260040161259393929190615ec5565b6020604051808303816000875af11580156125b2573d6000803e3d6000fd5b505050506040513d601f19601f820116820180604052508101906125d69190615dac565b5081876040516125e69190615b57565b60405190819003812090600080516020615fb283398151915290600090a380876040516126139190615b57565b60405190819003812090600080516020615ff283398151915290600090a35060019695505050505050565b600080606a836040516126519190615b57565b90815260408051918290036020908101832060c08401835280546001600160a01b0390811685526001820154811692850192909252600281015490911691830191909152600381015460608301526004810180546080840191906126b490615b73565b80601f01602080910402602001604051908101604052809291908181526020018280546126e090615b73565b801561272d5780601f106127025761010080835404028352916020019161272d565b820191906000526020600020905b81548152906001019060200180831161271057829003601f168201915b50505091835250506005919091015460ff16151560209091015260a08101519091506127589061506e565b15156001146127795760405162461bcd60e51b8152600401610b8090615bae565b8051604080830151602084015191516303065f4560e41b81526001600160a01b03918216600482015233602482015291811660448301526000921690633065f4509060640160408051808303816000875af11580156127dc573d6000803e3d6000fd5b505050506040513d601f19601f820116820180604052508101906128009190615ee9565b50949350505050565b6000606a8260405161281b9190615b57565b908152604051908190036020019020546001600160a01b031692915050565b600080606a8460405161284d9190615b57565b90815260408051918290036020908101832060c08401835280546001600160a01b0390811685526001820154811692850192909252600281015490911691830191909152600381015460608301526004810180546080840191906128b090615b73565b80601f01602080910402602001604051908101604052809291908181526020018280546128dc90615b73565b80156129295780601f106128fe57610100808354040283529160200191612929565b820191906000526020600020905b81548152906001019060200180831161290c57829003601f168201915b50505091835250506005919091015460ff16151560209091015260a08101519091506129549061506e565b15156001146129755760405162461bcd60e51b8152600401610b8090615bae565b80602001516001600160a01b0316336001600160a01b0316146129aa5760405162461bcd60e51b8152600401610b8090615bd6565b600081600001516001600160a01b031663e45080e66040518163ffffffff1660e01b8152600401602060405180830381865afa1580156129ee573d6000803e3d6000fd5b505050506040513d601f19601f82011682018060405250810190612a129190615d26565b905060008260600151600a612a279190615cfb565b612a319086615d07565b905082600001516001600160a01b031663419b7bd784604001518560200151846040518463ffffffff1660e01b8152600401612a6f93929190615ec5565b6020604051808303816000875af1158015612a8e573d6000803e3d6000fd5b505050506040513d601f19601f82011682018060405250810190612ab29190615dac565b506000612abf8284615d55565b9050808388604051612ad19190615b57565b604051908190038120907f6104fb37beb719c37a4d2a456c761462b5e74ef11d0944a9e3e1b23f21dbb31d90600090a45060019695505050505050565b60685460408051636c94853560e01b815290516000926001600160a01b031691636c9485359160048083019260209291908290030181865afa158015612b58573d6000803e3d6000fd5b505050506040513d601f19601f82011682018060405250810190612b7c9190615d26565b905090565b612b8961507e565b612b936000615250565b565b600080606a84604051612ba89190615b57565b90815260408051918290036020908101832060c08401835280546001600160a01b039081168552600182015481169285019290925260028101549091169183019190915260038101546060830152600481018054608084019190612c0b90615b73565b80601f0160208091040260200160405190810160405280929190818152602001828054612c3790615b73565b8015612c845780601f10612c5957610100808354040283529160200191612c84565b820191906000526020600020905b815481529060010190602001808311612c6757829003601f168201915b50505091835250506005919091015460ff16151560209091015260a0810151909150612caf9061506e565b1515600114612cd05760405162461bcd60e51b8152600401610b8090615bae565b80602001516001600160a01b0316336001600160a01b031614612d055760405162461bcd60e51b8152600401610b8090615bd6565b60008160600151600a612d189190615cfb565b612d229085615d07565b905081600001516001600160a01b031663cc12c31183604001518460200151846040518463ffffffff1660e01b8152600401612d6093929190615ec5565b6020604051808303816000875af1158015612d7f573d6000803e3d6000fd5b505050506040513d601f19601f82011682018060405250810190612da39190615dac565b508085604051612db39190615b57565b60405190819003812090600080516020615ff283398151915290600090a3506001949350505050565b612de461507e565b6001600160a01b038116612e315760405162461bcd60e51b8152602060048201526014602482015273416464726573732063616e74206265207a65726f60601b6044820152606401610b80565b606880546001600160a01b0319166001600160a01b0392909216919091179055565b60698181548110612e6357600080fd5b6000918252602090912060069091020180546001820154600283015460038401546004850180546001600160a01b0395861697509385169592909416939092612eab90615b73565b80601f0160208091040260200160405190810160405280929190818152602001828054612ed790615b73565b8015612f245780601f10612ef957610100808354040283529160200191612f24565b820191906000526020600020905b815481529060010190602001808311612f0757829003601f168201915b5050506005909301549192505060ff1686565b600080600080612f468561126a565b9350612f5185613921565b9150612f5c85613588565b9250612f6785611a85565b90509193509193565b600080606a84604051612f839190615b57565b90815260408051918290036020908101832060c08401835280546001600160a01b039081168552600182015481169285019290925260028101549091169183019190915260038101546060830152600481018054608084019190612fe690615b73565b80601f016020809104026020016040519081016040528092919081815260200182805461301290615b73565b801561305f5780601f106130345761010080835404028352916020019161305f565b820191906000526020600020905b81548152906001019060200180831161304257829003601f168201915b50505091835250506005919091015460ff16151560209091015260a081015190915061308a9061506e565b15156001146130ab5760405162461bcd60e51b8152600401610b8090615bae565b600081600001516001600160a01b031663e45080e66040518163ffffffff1660e01b8152600401602060405180830381865afa1580156130ef573d6000803e3d6000fd5b505050506040513d601f19601f820116820180604052508101906131139190615d26565b9050600082600001516001600160a01b03166316e17b8d6040518163ffffffff1660e01b8152600401602060405180830381865afa158015613159573d6000803e3d6000fd5b505050506040513d601f19601f8201168201806040525081019061317d9190615d26565b905060008360600151600a6131929190615cfb565b61319c9087615d07565b8451604080870151905163bf6eac2f60e01b81529293506001600160a01b039091169163bf6eac2f916131d59133908690600401615ec5565b6020604051808303816000875af11580156131f4573d6000803e3d6000fd5b505050506040513d601f19601f820116820180604052508101906132189190615dac565b5060006132258285615d55565b905060006132338385615d55565b905080848a6040516132459190615b57565b604051908190038120907f8834bcade58122eb5594c97d7d46171dc644983fafc2663e6728a6eb925a18ba90600090a484828a6040516132859190615b57565b604051908190038120907f6104fb37beb719c37a4d2a456c761462b5e74ef11d0944a9e3e1b23f21dbb31d90600090a450600198975050505050505050565b60006132ce61507e565b6001606a836040516132e09190615b57565b908152604051908190036020018120600501805492151560ff199093169290921790915561330f908390615b57565b604051908190038120907f064c50721c2d6a8dde5fa7e23659e4df58c910897f7b98ca5b9a940038645cc890600090a2506001919050565b6068546040805163a0d0712560e01b815290516000926001600160a01b03169163a0d071259160048083019260209291908290030181865afa158015612b58573d6000803e3d6000fd5b600080606a846040516133a49190615b57565b90815260408051918290036020908101832060c08401835280546001600160a01b03908116855260018201548116928501929092526002810154909116918301919091526003810154606083015260048101805460808401919061340790615b73565b80601f016020809104026020016040519081016040528092919081815260200182805461343390615b73565b80156134805780601f1061345557610100808354040283529160200191613480565b820191906000526020600020905b81548152906001019060200180831161346357829003601f168201915b50505091835250506005919091015460ff16151560209091015260a08101519091506134ab9061506e565b15156001146134cc5760405162461bcd60e51b8152600401610b8090615bae565b80602001516001600160a01b0316336001600160a01b0316146135015760405162461bcd60e51b8152600401610b8090615bd6565b60008160600151600a6135149190615cfb565b61351e9085615d07565b825160405163d26c90a960e01b8152600481018390529192506001600160a01b03169063d26c90a9906024015b600060405180830381600087803b15801561356557600080fd5b505af1158015613579573d6000803e3d6000fd5b50600198975050505050505050565b600080606a8360405161359b9190615b57565b90815260408051918290036020908101832060c08401835280546001600160a01b0390811685526001820154811692850192909252600281015490911691830191909152600381015460608301526004810180546080840191906135fe90615b73565b80601f016020809104026020016040519081016040528092919081815260200182805461362a90615b73565b80156136775780601f1061364c57610100808354040283529160200191613677565b820191906000526020600020905b81548152906001019060200180831161365a57829003601f168201915b50505091835250506005919091015460ff1615156020918201528151604080516378eb46fd60e01b815290519394506001600160a01b03909116926378eb46fd926004808401939192918290030181865afa158015610f04573d6000803e3d6000fd5b600080606a846040516136ed9190615b57565b90815260408051918290036020908101832060c08401835280546001600160a01b03908116855260018201548116928501929092526002810154909116918301919091526003810154606083015260048101805460808401919061375090615b73565b80601f016020809104026020016040519081016040528092919081815260200182805461377c90615b73565b80156137c95780601f1061379e576101008083540402835291602001916137c9565b820191906000526020600020905b8154815290600101906020018083116137ac57829003601f168201915b50505091835250506005919091015460ff16151560209091015260a08101519091506137f49061506e565b15156001146138155760405162461bcd60e51b8152600401610b8090615bae565b80602001516001600160a01b0316336001600160a01b03161461384a5760405162461bcd60e51b8152600401610b8090615bd6565b60008160600151600a61385d9190615cfb565b6138679085615d07565b82516040516312d77db360e21b8152600481018390529192506001600160a01b031690634b5df6cc906024016020604051808303816000875af11580156138b2573d6000803e3d6000fd5b505050506040513d601f19601f820116820180604052508101906138d69190615dac565b5080856040516138e69190615b57565b604051908190038120907f0e6ef9b3f0bcbf52c4ddbfdfb70f52e00c6083b9d5f795123d4e753ac4f82d3990600090a3506001949350505050565b600080606a836040516139349190615b57565b90815260408051918290036020908101832060c08401835280546001600160a01b03908116855260018201548116928501929092526002810154909116918301919091526003810154606083015260048101805460808401919061399790615b73565b80601f01602080910402602001604051908101604052809291908181526020018280546139c390615b73565b8015613a105780601f106139e557610100808354040283529160200191613a10565b820191906000526020600020905b8154815290600101906020018083116139f357829003601f168201915b50505091835250506005919091015460ff1615156020918201528151604080516316e17b8d60e01b815290519394506001600160a01b03909116926316e17b8d926004808401939192918290030181865afa158015610f04573d6000803e3d6000fd5b6000613a7d61507e565b613aab606a85604051613a909190615b57565b9081526040519081900360200190206005015460ff1661506e565b1515600114613acc5760405162461bcd60e51b8152600401610b8090615bae565b6001600160a01b038316613b165760405162461bcd60e51b815260206004820152601160248201527048756e746572206164647265737328302960781b6044820152606401610b80565b6000606a85604051613b289190615b57565b9081526040519081900360200190206003015490506000613b4a82600a615cfb565b613b549085615d07565b9050606a86604051613b669190615b57565b908152604051908190036020018120546001600160a01b0316906373927c1190606a90613b94908a90615b57565b908152604051908190036020018120600201546068546001600160e01b031960e085901b1683526001600160a01b0391821660048401528116602483015288166044820152606481018490526084016020604051808303816000875af1158015613c02573d6000803e3d6000fd5b505050506040513d601f19601f82011682018060405250810190613c269190615dac565b506068546040516001600160a01b0390911690637a76be8690606a90613c4d908a90615b57565b908152604051908190036020018120600201546001600160a01b031690606a90613c78908b90615b57565b908152604051908190036020018120600301546001600160e01b031960e085901b1682526001600160a01b0392831660048301526024820152908816604482015260648101849052608401600060405180830381600087803b158015613cdd57600080fd5b505af1158015613cf1573d6000803e3d6000fd5b5050505083856001600160a01b0316427fc94856745b23bcaffb2e3755abe04f2ee7cf7047605058b72c2f1cb3e58d5c43606a8a604051613d329190615b57565b90815260405160209181900382018120600201546001600160a01b031681520160405180910390a450600195945050505050565b600054610100900460ff1615808015613d865750600054600160ff909116105b80613da05750303b158015613da0575060005460ff166001145b613e035760405162461bcd60e51b815260206004820152602e60248201527f496e697469616c697a61626c653a20636f6e747261637420697320616c72656160448201526d191e481a5b9a5d1a585b1a5e995960921b6064820152608401610b80565b6000805460ff191660011790558015613e26576000805461ff0019166101001790555b606580546001600160a01b038087166001600160a01b031992831617909255606680548684169083161790556067805492851692909116919091179055613e6b6152a2565b8015613eb1576000805461ff0019169055604051600181527f7f26b83ff96e1f2b6a682f133852f6798a09c465da95921460cefb38474024989060200160405180910390a15b50505050565b60685460408051630c31495960e41b815290516000926001600160a01b03169163c31495909160048083019260209291908290030181865afa158015612b58573d6000803e3d6000fd5b600080600080606a86604051613f179190615b57565b90815260408051918290036020908101832060c08401835280546001600160a01b039081168552600182015481169285019290925260028101549091169183019190915260038101546060830152600481018054608084019190613f7a90615b73565b80601f0160208091040260200160405190810160405280929190818152602001828054613fa690615b73565b8015613ff35780601f10613fc857610100808354040283529160200191613ff3565b820191906000526020600020905b815481529060010190602001808311613fd657829003601f168201915b50505091835250506005919091015460ff1615156020909101528051604051632d7807a960e01b81526001600160a01b038881166004830152929350911690632d7807a990602401606060405180830381865afa158015614058573d6000803e3d6000fd5b505050506040513d601f19601f8201168201806040525081019061407c9190615f0e565b91989097509095509350505050565b600080606a8460405161409e9190615b57565b90815260408051918290036020908101832060c08401835280546001600160a01b03908116855260018201548116928501929092526002810154909116918301919091526003810154606083015260048101805460808401919061410190615b73565b80601f016020809104026020016040519081016040528092919081815260200182805461412d90615b73565b801561417a5780601f1061414f5761010080835404028352916020019161417a565b820191906000526020600020905b81548152906001019060200180831161415d57829003601f168201915b50505091835250506005919091015460ff16151560209091015260608101519091506000906141aa90600a615cfb565b6141b49085615d07565b82516040516363c877c160e11b8152336004820152602481018390529192506001600160a01b03169063c790ef82906044016020604051808303816000875af1158015614205573d6000803e3d6000fd5b505050506040513d601f19601f820116820180604052508101906142299190615dac565b1561427857808560405161423d9190615b57565b604051908190038120907f0e6ef9b3f0bcbf52c4ddbfdfb70f52e00c6083b9d5f795123d4e753ac4f82d3990600090a3600192505050610c6d565b600092505050610c6d565b60685460408051636999350560e11b815290516000926001600160a01b03169163d3326a0a9160048083019260209291908290030181865afa158015612b58573d6000803e3d6000fd5b600080606a846040516142e09190615b57565b90815260408051918290036020908101832060c08401835280546001600160a01b03908116855260018201548116928501929092526002810154909116918301919091526003810154606083015260048101805460808401919061434390615b73565b80601f016020809104026020016040519081016040528092919081815260200182805461436f90615b73565b80156143bc5780601f10614391576101008083540402835291602001916143bc565b820191906000526020600020905b81548152906001019060200180831161439f57829003601f168201915b50505091835250506005919091015460ff161515602091820152815160408051637228407360e11b815290519394506000936001600160a01b039092169263e45080e6926004808401938290030181865afa15801561441f573d6000803e3d6000fd5b505050506040513d601f19601f820116820180604052508101906144439190615d26565b9050600082600001516001600160a01b03166316e17b8d6040518163ffffffff1660e01b8152600401602060405180830381865afa158015614489573d6000803e3d6000fd5b505050506040513d601f19601f820116820180604052508101906144ad9190615d26565b905060008360600151600a6144c29190615cfb565b6144cc9087615d07565b845160408087015190516330414fc560e11b81529293506001600160a01b03909116916360829f8a916145059133908690600401615ec5565b6020604051808303816000875af1158015614524573d6000803e3d6000fd5b505050506040513d601f19601f820116820180604052508101906145489190615dac565b156145f85760006145598285615d55565b905060006145678385615f3c565b905080848a6040516145799190615b57565b604051908190038120907f8834bcade58122eb5594c97d7d46171dc644983fafc2663e6728a6eb925a18ba90600090a481858a6040516145b99190615b57565b604051908190038120907f6104fb37beb719c37a4d2a456c761462b5e74ef11d0944a9e3e1b23f21dbb31d90600090a460019650505050505050610c6d565b6000945050505050610c6d565b600080606a836040516146189190615b57565b90815260408051918290036020908101832060c08401835280546001600160a01b03908116855260018201548116928501929092526002810154909116918301919091526003810154606083015260048101805460808401919061467b90615b73565b80601f01602080910402602001604051908101604052809291908181526020018280546146a790615b73565b80156146f45780601f106146c9576101008083540402835291602001916146f4565b820191906000526020600020905b8154815290600101906020018083116146d757829003601f168201915b50505091835250506005919091015460ff16151560209182015281516040805163383639b360e01b815290519394506001600160a01b039091169263383639b3926004808401939192918290030181865afa158015610f04573d6000803e3d6000fd5b600080606a8460405161476a9190615b57565b90815260408051918290036020908101832060c08401835280546001600160a01b0390811685526001820154811692850192909252600281015490911691830191909152600381015460608301526004810180546080840191906147cd90615b73565b80601f01602080910402602001604051908101604052809291908181526020018280546147f990615b73565b80156148465780601f1061481b57610100808354040283529160200191614846565b820191906000526020600020905b81548152906001019060200180831161482957829003601f168201915b50505091835250506005919091015460ff16151560209091015260a08101519091506148719061506e565b15156001146148925760405162461bcd60e51b8152600401610b8090615bae565b80602001516001600160a01b0316336001600160a01b0316146148c75760405162461bcd60e51b8152600401610b8090615bd6565b60008160600151600a6148da9190615cfb565b6148e49085615d07565b825160405163503cb91760e01b8152600481018390529192506001600160a01b03169063503cb9179060240161354b565b8051602081830181018051606a82529282019190930120915280546001820154600283015460038401546004850180546001600160a01b039586169694861695909316939192612eab90615b73565b6068546040805163e5125d7b60e01b815290516000926001600160a01b03169163e5125d7b9160048083019260209291908290030181865afa158015612b58573d6000803e3d6000fd5b60006149b861507e565b6001600160a01b0383166000818152606b6020526040808220805460ff191686151590811790915590519092917f99795d51e5a8804307721456a7a9c2f0d7421f719d46a46d36e91fee7c85aa7691a350600192915050565b6000614a26606a83604051613a909190615b57565b1515600114614a475760405162461bcd60e51b8152600401610b8090615bae565b606a82604051614a579190615b57565b908152604051908190036020018120546001600160a01b031690638aa82e8290606a90614a85908690615b57565b908152604051908190036020018120600201546001600160a01b031690606a90614ab0908790615b57565b908152604051908190036020018120600101546001600160e01b031960e085901b1682526001600160a01b0392831660048301529190911660248201526044016020604051808303816000875af1158015614b0f573d6000803e3d6000fd5b505050506040513d601f19601f82011682018060405250810190614b339190615dac565b151560011415614baa57606a82604051614b4d9190615b57565b908152604051908190036020018120600101546001600160a01b031690614b75908490615b57565b604051908190038120907fd5d2d05dfe0d10d196c53d6f16e6d70e4dbb9cb77fe8682f6c68e9426c29103090600090a3614c21565b6000614bb583613588565b90506000614bc284611a85565b90508084604051614bd39190615b57565b60405190819003812090600080516020615fb283398151915290600090a38184604051614c009190615b57565b60405190819003812090600080516020615ff283398151915290600090a350505b506001919050565b6000614c3361507e565b6001600160a01b038316614c785760405162461bcd60e51b815260206004820152600c60248201526b41646472657373205a65726f60a01b6044820152606401610b80565b6000846001600160a01b031663313ce5676040518163ffffffff1660e01b8152600401602060405180830381865afa158015614cb8573d6000803e3d6000fd5b505050506040513d601f19601f82011682018060405250810190614cdc9190615e61565b60ff1690506000614cee82600a615cfb565b614cf89085615d07565b606854604051635bcb23c760e01b81526001600160a01b03898116600483015288811660248301526044820184905260648201869052929350911690635bcb23c7906084016020604051808303816000875af1158015614d5c573d6000803e3d6000fd5b505050506040513d601f19601f82011682018060405250810190614d809190615dac565b5060405184906001600160a01b038816907f189e21cdbf554d2e7158d144a91a275ae2145eaf20b9697ea962df4fba6462c390600090a350600195945050505050565b614dcb61507e565b6001600160a01b038116614e305760405162461bcd60e51b815260206004820152602660248201527f4f776e61626c653a206e6577206f776e657220697320746865207a65726f206160448201526564647265737360d01b6064820152608401610b80565b611a4e81615250565b600080606a84604051614e4c9190615b57565b90815260408051918290036020908101832060c08401835280546001600160a01b039081168552600182015481169285019290925260028101549091169183019190915260038101546060830152600481018054608084019190614eaf90615b73565b80601f0160208091040260200160405190810160405280929190818152602001828054614edb90615b73565b8015614f285780601f10614efd57610100808354040283529160200191614f28565b820191906000526020600020905b815481529060010190602001808311614f0b57829003601f168201915b50505091835250506005919091015460ff16151560209091015260a0810151909150614f539061506e565b1515600114614f745760405162461bcd60e51b8152600401610b8090615bae565b80602001516001600160a01b0316336001600160a01b031614614fa95760405162461bcd60e51b8152600401610b8090615bd6565b600081600001516001600160a01b031663e45080e66040518163ffffffff1660e01b8152600401602060405180830381865afa158015614fed573d6000803e3d6000fd5b505050506040513d601f19601f820116820180604052508101906150119190615d26565b905060008260600151600a6150269190615cfb565b6150309086615d07565b905082600001516001600160a01b0316633147096d84604001518560200151846040518463ffffffff1660e01b8152600401612a6f93929190615ec5565b60008115614c2157600092915050565b6033546001600160a01b03163314612b935760405162461bcd60e51b815260206004820181905260248201527f4f776e61626c653a2063616c6c6572206973206e6f7420746865206f776e65726044820152606401610b80565b611a4e61507e565b7f4910fdfa16fed3260ed0e7147f7cc6da11a60208b5b9406d12a635614ffd91435460ff161561511857615113836152d1565b505050565b826001600160a01b03166352d1902d6040518163ffffffff1660e01b8152600401602060405180830381865afa925050508015615172575060408051601f3d908101601f1916820190925261516f91810190615d26565b60015b6151d55760405162461bcd60e51b815260206004820152602e60248201527f45524331393637557067726164653a206e657720696d706c656d656e7461746960448201526d6f6e206973206e6f74205555505360901b6064820152608401610b80565b600080516020615fd283398151915281146152445760405162461bcd60e51b815260206004820152602960248201527f45524331393637557067726164653a20756e737570706f727465642070726f786044820152681a58589b195555525160ba1b6064820152608401610b80565b5061511383838361536d565b603380546001600160a01b038381166001600160a01b0319831681179093556040519116919082907f8be0079c531659141344cd1fd0a4f28419497f9722a3daafe3b4186f6b6457e090600090a35050565b600054610100900460ff166152c95760405162461bcd60e51b8152600401610b8090615f53565b612b93615392565b6001600160a01b0381163b61533e5760405162461bcd60e51b815260206004820152602d60248201527f455243313936373a206e657720696d706c656d656e746174696f6e206973206e60448201526c1bdd08184818dbdb9d1c9858dd609a1b6064820152608401610b80565b600080516020615fd283398151915280546001600160a01b0319166001600160a01b0392909216919091179055565b615376836153c2565b6000825111806153835750805b1561511357613eb18383615402565b600054610100900460ff166153b95760405162461bcd60e51b8152600401610b8090615f53565b612b9333615250565b6153cb816152d1565b6040516001600160a01b038216907fbc7cd75a20ee27fd9adebab32041f755214dbc6bffa90cc0225b39da2e5c2d3b90600090a250565b6060610f288383604051806060016040528060278152602001616012602791396060600080856001600160a01b03168560405161543f9190615b57565b600060405180830381855af49150503d806000811461547a576040519150601f19603f3d011682016040523d82523d6000602084013e61547f565b606091505b50915091506154908683838761549a565b9695505050505050565b606083156155065782516154ff576001600160a01b0385163b6154ff5760405162461bcd60e51b815260206004820152601d60248201527f416464726573733a2063616c6c20746f206e6f6e2d636f6e74726163740000006044820152606401610b80565b5081615510565b6155108383615518565b949350505050565b8151156155285781518083602001fd5b8060405162461bcd60e51b8152600401610b809190615f9e565b82805461554e90615b73565b90600052602060002090601f01602090048101928261557057600085556155b6565b82601f1061558957805160ff19168380011785556155b6565b828001600101855582156155b6579182015b828111156155b657825182559160200191906001019061559b565b506155c29291506155c6565b5090565b5b808211156155c257600081556001016155c7565b634e487b7160e01b600052604160045260246000fd5b600082601f83011261560257600080fd5b813567ffffffffffffffff8082111561561d5761561d6155db565b604051601f8301601f19908116603f01168101908282118183101715615645576156456155db565b8160405283815286602085880101111561565e57600080fd5b836020870160208301376000602085830101528094505050505092915050565b6000806040838503121561569157600080fd5b823567ffffffffffffffff8111156156a857600080fd5b6156b4858286016155f1565b95602094909401359450505050565b60005b838110156156de5781810151838201526020016156c6565b83811115613eb15750506000910152565b600081518084526157078160208601602086016156c3565b601f01601f19169290920160200192915050565b60006020808301818452808551808352604092508286019150828160051b87010184880160005b838110156157c157888303603f19018552815180516001600160a01b039081168552888201518116898601528782015116878501526060808201519085015260808082015160c0828701819052919061579d838801826156ef565b60a09485015115159790940196909652505094870194925090860190600101615742565b509098975050505050505050565b6000602082840312156157e157600080fd5b813567ffffffffffffffff8111156157f857600080fd5b615510848285016155f1565b6001600160a01b0381168114611a4e57600080fd5b6000806040838503121561582c57600080fd5b823567ffffffffffffffff81111561584357600080fd5b61584f858286016155f1565b925050602083013561586081615804565b809150509250929050565b6000806040838503121561587e57600080fd5b823561588981615804565b9150602083013561586081615804565b6000602082840312156158ab57600080fd5b8135610f2881615804565b600080600080608085870312156158cc57600080fd5b843567ffffffffffffffff808211156158e457600080fd5b6158f0888389016155f1565b9550602087013591508082111561590657600080fd5b50615913878288016155f1565b935050604085013561592481615804565b9150606085013561593481615804565b939692955090935050565b6000806040838503121561595257600080fd5b823561595d81615804565b9150602083013567ffffffffffffffff81111561597957600080fd5b615985858286016155f1565b9150509250929050565b6000806000606084860312156159a457600080fd5b833567ffffffffffffffff8111156159bb57600080fd5b6159c7868287016155f1565b9660208601359650604090950135949350505050565b6000602082840312156159ef57600080fd5b5035919050565b6001600160a01b0387811682528681166020830152851660408201526060810184905260c060808201819052600090615a31908301856156ef565b905082151560a0830152979650505050505050565b600080600060608486031215615a5b57600080fd5b833567ffffffffffffffff811115615a7257600080fd5b615a7e868287016155f1565b9350506020840135615a8f81615804565b929592945050506040919091013590565b600080600060608486031215615ab557600080fd5b8335615ac081615804565b92506020840135615ad081615804565b91506040840135615ae081615804565b809150509250925092565b8015158114611a4e57600080fd5b60008060408385031215615b0c57600080fd5b8235615b1781615804565b9150602083013561586081615aeb565b600080600060608486031215615b3c57600080fd5b8335615b4781615804565b92506020840135615a8f81615804565b60008251615b698184602087016156c3565b9190910192915050565b600181811c90821680615b8757607f821691505b60208210811415615ba857634e487b7160e01b600052602260045260246000fd5b50919050565b6020808252600e908201526d109bdd5b9d1e481a5cc81119585960921b604082015260600190565b6020808252601190820152702737ba10383937b532b1ba1037bbb732b960791b604082015260600190565b634e487b7160e01b600052601160045260246000fd5b600181815b80851115615c52578160001904821115615c3857615c38615c01565b80851615615c4557918102915b93841c9390800290615c1c565b509250929050565b600082615c6957506001610c6d565b81615c7657506000610c6d565b8160018114615c8c5760028114615c9657615cb2565b6001915050610c6d565b60ff841115615ca757615ca7615c01565b50506001821b610c6d565b5060208310610133831016604e8410600b8410161715615cd5575081810a610c6d565b615cdf8383615c17565b8060001904821115615cf357615cf3615c01565b029392505050565b6000610f288383615c5a565b6000816000190483118215151615615d2157615d21615c01565b500290565b600060208284031215615d3857600080fd5b5051919050565b634e487b7160e01b600052603260045260246000fd5b60008219821115615d6857615d68615c01565b500190565b6000600019821415615d8157615d81615c01565b5060010190565b60008060408385031215615d9b57600080fd5b505080516020909101519092909150565b600060208284031215615dbe57600080fd5b8151610f2881615aeb565b6020808252602c908201527f46756e6374696f6e206d7573742062652063616c6c6564207468726f7567682060408201526b19195b1959d85d1958d85b1b60a21b606082015260800190565b6020808252602c908201527f46756e6374696f6e206d7573742062652063616c6c6564207468726f7567682060408201526b6163746976652070726f787960a01b606082015260800190565b600060208284031215615e7357600080fd5b815160ff81168114610f2857600080fd5b6001600160a01b0383168152604060208201819052600090615510908301846156ef565b600060208284031215615eba57600080fd5b8151610f2881615804565b6001600160a01b039384168152919092166020820152604081019190915260600190565b60008060408385031215615efc57600080fd5b82519150602083015161586081615aeb565b600080600060608486031215615f2357600080fd5b83519250602084015191506040840151615ae081615aeb565b600082821015615f4e57615f4e615c01565b500390565b6020808252602b908201527f496e697469616c697a61626c653a20636f6e7472616374206973206e6f74206960408201526a6e697469616c697a696e6760a81b606082015260800190565b602081526000610f2860208301846156ef56fe5062d04f3e896d942ccff83fe2c476e0c28bd421463b3ff5a14566a7067e9198360894a13ba1a3210667c828492db98dca3e2076cc3735a920a3ca505d382bbcc28744c746f0c67a4779932b2ba42acc2995ef6326c66706ddcf811fd450627c416464726573733a206c6f772d6c6576656c2064656c65676174652063616c6c206661696c6564a26469706673582212205d720ebc1a945ec80a9f144b255abc89784101094835ba9773891519a0d6a30564736f6c634300080a0033",
    "linkReferences": {}
  },
  "methodIdentifiers": {
    "beacon()": "59659e90",
    "billPremiumForAll()": "27e73542",
    "billPremiumForOnePool(string)": "e6b37f6f",
    "bountiesList(uint256)": "7f2f3e5e",
    "bountyDetails(string)": "d7dc56a5",
    "bountyImplementation()": "cae38faa",
    "claimPremium(string)": "666b7030",
    "deployNewBounty(bytes,string,address,address)": "4c0d9a6c",
    "factory()": "c45a0155",
    "getBountyAddressByName(string)": "66b6c647",
    "initialize(address,address,address)": "c0c53b8b",
    "killBounty(string)": "9ca7e787",
    "owner()": "8da5cb5b",
    "payBounty(string,address,uint256)": "bc160761",
    "projectDeposit(string,uint256)": "f4808fea",
    "projectDepositWithdrawal(string,uint256)": "68dd3dbf",
    "proxiableUUID()": "52d1902d",
    "renounceOwnership()": "715018a6",
    "saloonWallet()": "4389e41a",
    "scheduleAPYChange(string,uint256)": "d70ef6f4",
    "schedulePoolCapChange(string,uint256)": "a1f0b842",
    "scheduleProjectDepositWithdrawal(string,uint256)": "b8047881",
    "scheduleUnstake(string,uint256)": "d16ad2f7",
    "setAPY(string,uint256)": "7611fc62",
    "setBountyCapAndAPY(string,uint256,uint256)": "58b07d5b",
    "setPoolCap(string,uint256)": "01f5b1ff",
    "stake(string,uint256)": "9494c8ae",
    "tokenWhitelist(address)": "753d7563",
    "transferOwnership(address)": "f2fde38b",
    "unstake(string,uint256)": "d37c92dc",
    "updateBountyPoolImplementation(address)": "53dce856",
    "updateSaloonWallet(address)": "79f99a89",
    "updateTokenWhitelist(address,bool)": "e5e97c65",
    "upgradeTo(address)": "3659cfe6",
    "upgradeToAndCall(address,bytes)": "4f1ef286",
    "viewAllBountiesByName()": "03c46f51",
    "viewBountyBalance(string)": "05234fda",
    "viewBountyInfo(string)": "943eb4f2",
    "viewBountyOwner(string)": "37787926",
    "viewDesiredAPY(string)": "a667b5d0",
    "viewHackerPayout(string)": "0f0df171",
    "viewHunterTotalTokenPayouts(address,address)": "21580322",
    "viewPoolCap(string)": "3ef0c3ed",
    "viewProjectDeposit(string)": "d3c15cdb",
    "viewSaloonBalance()": "a0d07125",
    "viewTotalEarnedSaloon()": "6c948535",
    "viewTotalHackerPayouts()": "c3149590",
    "viewTotalPremiums()": "e5125d7b",
    "viewTotalSaloonCommission()": "d3326a0a",
    "viewUserStakingBalance(string,address)": "15daef49",
    "viewUserTimelock(string,address)": "c8191c54",
    "viewstakersDeposit(string)": "b91cdea7",
    "withdrawSaloon(address,address,uint256)": "f0e6b4ed",
    "withdrawSaloonPremiumFees()": "0e060249"
  },
  "id": 25
}