{
  "abi": [
    {
      "inputs": [
        {
          "internalType": "contract BountyProxyFactory",
          "name": "factory_",
          "type": "address"
        },
        {
          "internalType": "contract UpgradeableBeacon",
          "name": "_beacon",
          "type": "address"
        },
        {
          "internalType": "address",
          "name": "_bountyImplementation",
          "type": "address"
        }
      ],
      "stateMutability": "nonpayable",
      "type": "constructor"
    },
    {
      "anonymous": false,
      "inputs": [
        {
          "indexed": false,
          "internalType": "address",
          "name": "previousAdmin",
          "type": "address"
        },
        {
          "indexed": false,
          "internalType": "address",
          "name": "newAdmin",
          "type": "address"
        }
      ],
      "name": "AdminChanged",
      "type": "event"
    },
    {
      "anonymous": false,
      "inputs": [
        {
          "indexed": true,
          "internalType": "address",
          "name": "beacon",
          "type": "address"
        }
      ],
      "name": "BeaconUpgraded",
      "type": "event"
    },
    {
      "anonymous": false,
      "inputs": [
        {
          "indexed": true,
          "internalType": "address",
          "name": "sender",
          "type": "address"
        },
        {
          "indexed": true,
          "internalType": "address",
          "name": "_projectWallet",
          "type": "address"
        },
        {
          "indexed": false,
          "internalType": "contract BountyPool",
          "name": "newProxyAddress",
          "type": "address"
        }
      ],
      "name": "DeployNewBounty",
      "type": "event"
    },
    {
      "anonymous": false,
      "inputs": [
        {
          "indexed": true,
          "internalType": "address",
          "name": "previousOwner",
          "type": "address"
        },
        {
          "indexed": true,
          "internalType": "address",
          "name": "newOwner",
          "type": "address"
        }
      ],
      "name": "OwnershipTransferred",
      "type": "event"
    },
    {
      "anonymous": false,
      "inputs": [
        {
          "indexed": true,
          "internalType": "address",
          "name": "implementation",
          "type": "address"
        }
      ],
      "name": "Upgraded",
      "type": "event"
    },
    {
      "inputs": [],
      "name": "beacon",
      "outputs": [
        {
          "internalType": "contract UpgradeableBeacon",
          "name": "",
          "type": "address"
        }
      ],
      "stateMutability": "view",
      "type": "function"
    },
    {
      "inputs": [],
      "name": "billPremiumForAll",
      "outputs": [
        {
          "internalType": "bool",
          "name": "",
          "type": "bool"
        }
      ],
      "stateMutability": "nonpayable",
      "type": "function"
    },
    {
      "inputs": [
        {
          "internalType": "string",
          "name": "_projectName",
          "type": "string"
        }
      ],
      "name": "billPremiumForOnePool",
      "outputs": [
        {
          "internalType": "bool",
          "name": "",
          "type": "bool"
        }
      ],
      "stateMutability": "nonpayable",
      "type": "function"
    },
    {
      "inputs": [
        {
          "internalType": "uint256",
          "name": "",
          "type": "uint256"
        }
      ],
      "name": "bountiesList",
      "outputs": [
        {
          "internalType": "string",
          "name": "projectName",
          "type": "string"
        },
        {
          "internalType": "address",
          "name": "projectWallet",
          "type": "address"
        },
        {
          "internalType": "contract BountyPool",
          "name": "proxyAddress",
          "type": "address"
        },
        {
          "internalType": "address",
          "name": "token",
          "type": "address"
        },
        {
          "internalType": "bool",
          "name": "dead",
          "type": "bool"
        }
      ],
      "stateMutability": "view",
      "type": "function"
    },
    {
      "inputs": [
        {
          "internalType": "string",
          "name": "",
          "type": "string"
        }
      ],
      "name": "bountyDetails",
      "outputs": [
        {
          "internalType": "string",
          "name": "projectName",
          "type": "string"
        },
        {
          "internalType": "address",
          "name": "projectWallet",
          "type": "address"
        },
        {
          "internalType": "contract BountyPool",
          "name": "proxyAddress",
          "type": "address"
        },
        {
          "internalType": "address",
          "name": "token",
          "type": "address"
        },
        {
          "internalType": "bool",
          "name": "dead",
          "type": "bool"
        }
      ],
      "stateMutability": "view",
      "type": "function"
    },
    {
      "inputs": [],
      "name": "bountyImplementation",
      "outputs": [
        {
          "internalType": "address",
          "name": "",
          "type": "address"
        }
      ],
      "stateMutability": "view",
      "type": "function"
    },
    {
      "inputs": [
        {
          "internalType": "string",
          "name": "_projectName",
          "type": "string"
        }
      ],
      "name": "claimPremium",
      "outputs": [
        {
          "internalType": "uint256",
          "name": "",
          "type": "uint256"
        }
      ],
      "stateMutability": "nonpayable",
      "type": "function"
    },
    {
      "inputs": [
        {
          "internalType": "bytes",
          "name": "_data",
          "type": "bytes"
        },
        {
          "internalType": "string",
          "name": "_projectName",
          "type": "string"
        },
        {
          "internalType": "address",
          "name": "_token",
          "type": "address"
        },
        {
          "internalType": "address",
          "name": "_projectWallet",
          "type": "address"
        }
      ],
      "name": "deployNewBounty",
      "outputs": [
        {
          "internalType": "contract BountyPool",
          "name": "",
          "type": "address"
        },
        {
          "internalType": "bool",
          "name": "",
          "type": "bool"
        }
      ],
      "stateMutability": "nonpayable",
      "type": "function"
    },
    {
      "inputs": [],
      "name": "factory",
      "outputs": [
        {
          "internalType": "contract BountyProxyFactory",
          "name": "",
          "type": "address"
        }
      ],
      "stateMutability": "view",
      "type": "function"
    },
    {
      "inputs": [
        {
          "internalType": "string",
          "name": "_projectName",
          "type": "string"
        }
      ],
      "name": "getBountyAddressByName",
      "outputs": [
        {
          "internalType": "address",
          "name": "",
          "type": "address"
        }
      ],
      "stateMutability": "view",
      "type": "function"
    },
    {
      "inputs": [
        {
          "internalType": "string",
          "name": "_projectName",
          "type": "string"
        }
      ],
      "name": "killBounty",
      "outputs": [
        {
          "internalType": "bool",
          "name": "",
          "type": "bool"
        }
      ],
      "stateMutability": "nonpayable",
      "type": "function"
    },
    {
      "inputs": [],
      "name": "owner",
      "outputs": [
        {
          "internalType": "address",
          "name": "",
          "type": "address"
        }
      ],
      "stateMutability": "view",
      "type": "function"
    },
    {
      "inputs": [
        {
          "internalType": "string",
          "name": "_projectName",
          "type": "string"
        },
        {
          "internalType": "address",
          "name": "_hunter",
          "type": "address"
        },
        {
          "internalType": "uint256",
          "name": "_amount",
          "type": "uint256"
        }
      ],
      "name": "payBounty",
      "outputs": [
        {
          "internalType": "bool",
          "name": "",
          "type": "bool"
        }
      ],
      "stateMutability": "nonpayable",
      "type": "function"
    },
    {
      "inputs": [
        {
          "internalType": "string",
          "name": "_projectName",
          "type": "string"
        },
        {
          "internalType": "uint256",
          "name": "_amount",
          "type": "uint256"
        }
      ],
      "name": "projectDeposit",
      "outputs": [
        {
          "internalType": "bool",
          "name": "",
          "type": "bool"
        }
      ],
      "stateMutability": "nonpayable",
      "type": "function"
    },
    {
      "inputs": [
        {
          "internalType": "string",
          "name": "_projectName",
          "type": "string"
        },
        {
          "internalType": "uint256",
          "name": "_amount",
          "type": "uint256"
        }
      ],
      "name": "projectDepositWithdrawal",
      "outputs": [
        {
          "internalType": "bool",
          "name": "",
          "type": "bool"
        }
      ],
      "stateMutability": "nonpayable",
      "type": "function"
    },
    {
      "inputs": [],
      "name": "proxiableUUID",
      "outputs": [
        {
          "internalType": "bytes32",
          "name": "",
          "type": "bytes32"
        }
      ],
      "stateMutability": "view",
      "type": "function"
    },
    {
      "inputs": [],
      "name": "renounceOwnership",
      "outputs": [],
      "stateMutability": "nonpayable",
      "type": "function"
    },
    {
      "inputs": [],
      "name": "saloonWallet",
      "outputs": [
        {
          "internalType": "contract SaloonWallet",
          "name": "",
          "type": "address"
        }
      ],
      "stateMutability": "view",
      "type": "function"
    },
    {
      "inputs": [
        {
          "internalType": "string",
          "name": "_projectName",
          "type": "string"
        },
        {
          "internalType": "uint256",
          "name": "_amount",
          "type": "uint256"
        }
      ],
      "name": "scheduleProjectDepositWithdrawal",
      "outputs": [
        {
          "internalType": "bool",
          "name": "",
          "type": "bool"
        }
      ],
      "stateMutability": "nonpayable",
      "type": "function"
    },
    {
      "inputs": [
        {
          "internalType": "string",
          "name": "_projectName",
          "type": "string"
        },
        {
          "internalType": "uint256",
          "name": "_amount",
          "type": "uint256"
        }
      ],
      "name": "scheduleUnstake",
      "outputs": [
        {
          "internalType": "bool",
          "name": "",
          "type": "bool"
        }
      ],
      "stateMutability": "nonpayable",
      "type": "function"
    },
    {
      "inputs": [
        {
          "internalType": "string",
          "name": "_projectName",
          "type": "string"
        },
        {
          "internalType": "uint256",
          "name": "_poolCap",
          "type": "uint256"
        },
        {
          "internalType": "uint256",
          "name": "_desiredAPY",
          "type": "uint256"
        }
      ],
      "name": "setBountyCapAndAPY",
      "outputs": [
        {
          "internalType": "bool",
          "name": "",
          "type": "bool"
        }
      ],
      "stateMutability": "nonpayable",
      "type": "function"
    },
    {
      "inputs": [
        {
          "internalType": "string",
          "name": "_projectName",
          "type": "string"
        },
        {
          "internalType": "uint256",
          "name": "_amount",
          "type": "uint256"
        }
      ],
      "name": "stake",
      "outputs": [
        {
          "internalType": "bool",
          "name": "",
          "type": "bool"
        }
      ],
      "stateMutability": "nonpayable",
      "type": "function"
    },
    {
      "inputs": [
        {
          "internalType": "address",
          "name": "",
          "type": "address"
        }
      ],
      "name": "tokenWhitelist",
      "outputs": [
        {
          "internalType": "bool",
          "name": "",
          "type": "bool"
        }
      ],
      "stateMutability": "view",
      "type": "function"
    },
    {
      "inputs": [
        {
          "internalType": "address",
          "name": "newOwner",
          "type": "address"
        }
      ],
      "name": "transferOwnership",
      "outputs": [],
      "stateMutability": "nonpayable",
      "type": "function"
    },
    {
      "inputs": [
        {
          "internalType": "string",
          "name": "_projectName",
          "type": "string"
        },
        {
          "internalType": "uint256",
          "name": "_amount",
          "type": "uint256"
        }
      ],
      "name": "unstake",
      "outputs": [
        {
          "internalType": "bool",
          "name": "",
          "type": "bool"
        }
      ],
      "stateMutability": "nonpayable",
      "type": "function"
    },
    {
      "inputs": [
        {
          "internalType": "address",
          "name": "_newImplementation",
          "type": "address"
        }
      ],
      "name": "updateBountyPoolImplementation",
      "outputs": [
        {
          "internalType": "bool",
          "name": "",
          "type": "bool"
        }
      ],
      "stateMutability": "nonpayable",
      "type": "function"
    },
    {
      "inputs": [
        {
          "internalType": "address",
          "name": "_newWallet",
          "type": "address"
        }
      ],
      "name": "updateSaloonWallet",
      "outputs": [],
      "stateMutability": "nonpayable",
      "type": "function"
    },
    {
      "inputs": [
        {
          "internalType": "address",
          "name": "_token",
          "type": "address"
        },
        {
          "internalType": "bool",
          "name": "whitelisted",
          "type": "bool"
        }
      ],
      "name": "updateTokenWhitelist",
      "outputs": [
        {
          "internalType": "bool",
          "name": "",
          "type": "bool"
        }
      ],
      "stateMutability": "nonpayable",
      "type": "function"
    },
    {
      "inputs": [
        {
          "internalType": "address",
          "name": "newImplementation",
          "type": "address"
        }
      ],
      "name": "upgradeTo",
      "outputs": [],
      "stateMutability": "nonpayable",
      "type": "function"
    },
    {
      "inputs": [
        {
          "internalType": "address",
          "name": "newImplementation",
          "type": "address"
        },
        {
          "internalType": "bytes",
          "name": "data",
          "type": "bytes"
        }
      ],
      "name": "upgradeToAndCall",
      "outputs": [],
      "stateMutability": "payable",
      "type": "function"
    },
    {
      "inputs": [],
      "name": "viewAllBountiesByName",
      "outputs": [
        {
          "components": [
            {
              "internalType": "string",
              "name": "projectName",
              "type": "string"
            },
            {
              "internalType": "address",
              "name": "projectWallet",
              "type": "address"
            },
            {
              "internalType": "contract BountyPool",
              "name": "proxyAddress",
              "type": "address"
            },
            {
              "internalType": "address",
              "name": "token",
              "type": "address"
            },
            {
              "internalType": "bool",
              "name": "dead",
              "type": "bool"
            }
          ],
          "internalType": "struct BountyProxiesManager.Bounties[]",
          "name": "",
          "type": "tuple[]"
        }
      ],
      "stateMutability": "view",
      "type": "function"
    },
    {
      "inputs": [
        {
          "internalType": "string",
          "name": "_projectName",
          "type": "string"
        }
      ],
      "name": "viewBountyPayout",
      "outputs": [
        {
          "internalType": "uint256",
          "name": "",
          "type": "uint256"
        }
      ],
      "stateMutability": "view",
      "type": "function"
    },
    {
      "inputs": [
        {
          "internalType": "address",
          "name": "_token",
          "type": "address"
        },
        {
          "internalType": "address",
          "name": "_hunter",
          "type": "address"
        }
      ],
      "name": "viewHunterTotalTokenPayouts",
      "outputs": [
        {
          "internalType": "uint256",
          "name": "",
          "type": "uint256"
        }
      ],
      "stateMutability": "view",
      "type": "function"
    },
    {
      "inputs": [
        {
          "internalType": "string",
          "name": "_projectName",
          "type": "string"
        }
      ],
      "name": "viewProjectDeposit",
      "outputs": [
        {
          "internalType": "uint256",
          "name": "",
          "type": "uint256"
        }
      ],
      "stateMutability": "view",
      "type": "function"
    },
    {
      "inputs": [],
      "name": "viewSaloonBalance",
      "outputs": [
        {
          "internalType": "uint256",
          "name": "",
          "type": "uint256"
        }
      ],
      "stateMutability": "view",
      "type": "function"
    },
    {
      "inputs": [],
      "name": "viewTotalEarnedSaloon",
      "outputs": [
        {
          "internalType": "uint256",
          "name": "",
          "type": "uint256"
        }
      ],
      "stateMutability": "view",
      "type": "function"
    },
    {
      "inputs": [],
      "name": "viewTotalHackerPayouts",
      "outputs": [
        {
          "internalType": "uint256",
          "name": "",
          "type": "uint256"
        }
      ],
      "stateMutability": "view",
      "type": "function"
    },
    {
      "inputs": [],
      "name": "viewTotalPremiums",
      "outputs": [
        {
          "internalType": "uint256",
          "name": "",
          "type": "uint256"
        }
      ],
      "stateMutability": "view",
      "type": "function"
    },
    {
      "inputs": [],
      "name": "viewTotalSaloonCommission",
      "outputs": [
        {
          "internalType": "uint256",
          "name": "",
          "type": "uint256"
        }
      ],
      "stateMutability": "view",
      "type": "function"
    },
    {
      "inputs": [
        {
          "internalType": "string",
          "name": "_projectName",
          "type": "string"
        }
      ],
      "name": "viewUserStakingBalance",
      "outputs": [
        {
          "internalType": "uint256",
          "name": "",
          "type": "uint256"
        }
      ],
      "stateMutability": "view",
      "type": "function"
    },
    {
      "inputs": [
        {
          "internalType": "string",
          "name": "_projectName",
          "type": "string"
        }
      ],
      "name": "viewstakersDeposit",
      "outputs": [
        {
          "internalType": "uint256",
          "name": "",
          "type": "uint256"
        }
      ],
      "stateMutability": "view",
      "type": "function"
    },
    {
      "inputs": [
        {
          "internalType": "address",
          "name": "_token",
          "type": "address"
        },
        {
          "internalType": "address",
          "name": "_to",
          "type": "address"
        },
        {
          "internalType": "uint256",
          "name": "_amount",
          "type": "uint256"
        }
      ],
      "name": "withdrawSaloon",
      "outputs": [
        {
          "internalType": "bool",
          "name": "",
          "type": "bool"
        }
      ],
      "stateMutability": "nonpayable",
      "type": "function"
    },
    {
      "inputs": [],
      "name": "withdrawSaloonPremiumFees",
      "outputs": [
        {
          "internalType": "bool",
          "name": "",
          "type": "bool"
        }
      ],
      "stateMutability": "nonpayable",
      "type": "function"
    }
  ],
  "bytecode": {
    "object": "0x610100604052306080523480156200001657600080fd5b5060405162003f7638038062003f768339810160408190526200003991620000cb565b620000443362000062565b6001600160a01b0392831660a05290821660c0521660e0526200011f565b600080546001600160a01b038381166001600160a01b0319831681178455604051919092169283917f8be0079c531659141344cd1fd0a4f28419497f9722a3daafe3b4186f6b6457e09190a35050565b6001600160a01b0381168114620000c857600080fd5b50565b600080600060608486031215620000e157600080fd5b8351620000ee81620000b2565b60208501519093506200010181620000b2565b60408501519092506200011481620000b2565b809150509250925092565b60805160a05160c05160e051613dec6200018a600039600061068201526000818161040701528181611164015261158901526000818161064e0152611135015260008181610f1f01528181610f68015281816113a2015281816113e201526114750152613dec6000f3fe60806040526004361061025c5760003560e01c80638da5cb5b11610144578063d3326a0a116100b6578063e5e97c651161007a578063e5e97c651461074e578063e6b37f6f1461076e578063f0e6b4ed1461078e578063f2fde38b146107ae578063f4808fea146107ce578063ff8d30fb146107ee57600080fd5b8063d3326a0a146106c4578063d37c92dc146106d9578063d3c15cdb146106f9578063d7dc56a514610719578063e5125d7b1461073957600080fd5b8063b91cdea711610108578063b91cdea7146105e7578063bc16076114610607578063c314959014610627578063c45a01551461063c578063cae38faa14610670578063d16ad2f7146106a457600080fd5b80638da5cb5b146105545780639494c8ae146105725780639ca7e78714610592578063a0d07125146105b2578063b8047881146105c757600080fd5b806358b07d5b116101dd5780636c948535116101a15780636c94853514610489578063715018a61461049e578063753d7563146104b357806379f99a89146104e35780637dd03e8f146105035780637f2f3e5e1461052357600080fd5b806358b07d5b146103d557806359659e90146103f5578063666b70301461042957806366b6c6471461044957806368dd3dbf1461046957600080fd5b80634389e41a116102245780634389e41a146103165780634c0d9a6c1461034e5780634f1ef2861461038d57806352d1902d146103a057806353dce856146103b557600080fd5b806303c46f51146102615780630e0602491461028c57806321580322146102b157806327e73542146102df5780633659cfe6146102f4575b600080fd5b34801561026d57600080fd5b5061027661080e565b604051610283919061366b565b60405180910390f35b34801561029857600080fd5b506102a1610944565b6040519015158152602001610283565b3480156102bd57600080fd5b506102d16102cc366004613727565b610c3e565b604051908152602001610283565b3480156102eb57600080fd5b506102a1610cbe565b34801561030057600080fd5b5061031461030f366004613760565b610f14565b005b34801561032257600080fd5b50600154610336906001600160a01b031681565b6040516001600160a01b039091168152602001610283565b34801561035a57600080fd5b5061036e610369366004613820565b610ffd565b604080516001600160a01b039093168352901515602083015201610283565b61031461039b3660046138a9565b611397565b3480156103ac57600080fd5b506102d1611468565b3480156103c157600080fd5b506102a16103d0366004613760565b61151b565b3480156103e157600080fd5b506102a16103f03660046138f9565b6115ed565b34801561040157600080fd5b506103367f000000000000000000000000000000000000000000000000000000000000000081565b34801561043557600080fd5b506102d1610444366004613947565b611834565b34801561045557600080fd5b50610336610464366004613947565b6119f7565b34801561047557600080fd5b506102a161048436600461397c565b611a2b565b34801561049557600080fd5b506102d1611c19565b3480156104aa57600080fd5b50610314611c8c565b3480156104bf57600080fd5b506102a16104ce366004613760565b60046020526000908152604090205460ff1681565b3480156104ef57600080fd5b506103146104fe366004613760565b611ca0565b34801561050f57600080fd5b506102d161051e366004613947565b611d17565b34801561052f57600080fd5b5061054361053e3660046139c1565b611e84565b6040516102839594939291906139da565b34801561056057600080fd5b506000546001600160a01b0316610336565b34801561057e57600080fd5b506102a161058d36600461397c565b611f68565b34801561059e57600080fd5b506102a16105ad366004613947565b6120cf565b3480156105be57600080fd5b506102d161211f565b3480156105d357600080fd5b506102a16105e236600461397c565b612169565b3480156105f357600080fd5b506102d1610602366004613947565b61233b565b34801561061357600080fd5b506102a1610622366004613a20565b6124ad565b34801561063357600080fd5b506102d1612648565b34801561064857600080fd5b506103367f000000000000000000000000000000000000000000000000000000000000000081565b34801561067c57600080fd5b506103367f000000000000000000000000000000000000000000000000000000000000000081565b3480156106b057600080fd5b506102a16106bf36600461397c565b612692565b3480156106d057600080fd5b506102d161284f565b3480156106e557600080fd5b506102a16106f436600461397c565b612899565b34801561070557600080fd5b506102d1610714366004613947565b612a00565b34801561072557600080fd5b50610543610734366004613947565b612b47565b34801561074557600080fd5b506102d1612b6d565b34801561075a57600080fd5b506102a1610769366004613a88565b612bb7565b34801561077a57600080fd5b506102a1610789366004613947565b612bed565b34801561079a57600080fd5b506102a16107a9366004613ab6565b612d1a565b3480156107ba57600080fd5b506103146107c9366004613760565b612d9d565b3480156107da57600080fd5b506102a16107e936600461397c565b612e13565b3480156107fa57600080fd5b506102d1610809366004613947565b612fb3565b60606002805480602002602001604051908101604052809291908181526020016000905b8282101561093b57838290600052602060002090600402016040518060a001604052908160008201805461086590613ae6565b80601f016020809104026020016040519081016040528092919081815260200182805461089190613ae6565b80156108de5780601f106108b3576101008083540402835291602001916108de565b820191906000526020600020905b8154815290600101906020018083116108c157829003601f168201915b50505091835250506001828101546001600160a01b039081166020808501919091526002850154821660408501526003909401549081166060840152600160a01b900460ff16151560809092019190915291835292019101610832565b50505050905090565b600061094e6130fa565b60006002805480602002602001604051908101604052809291908181526020016000905b82821015610a7b57838290600052602060002090600402016040518060a00160405290816000820180546109a590613ae6565b80601f01602080910402602001604051908101604052809291908181526020018280546109d190613ae6565b8015610a1e5780601f106109f357610100808354040283529160200191610a1e565b820191906000526020600020905b815481529060010190602001808311610a0157829003601f168201915b50505091835250506001828101546001600160a01b039081166020808501919091526002850154821660408501526003909401549081166060840152600160a01b900460ff16151560809092019190915291835292019101610972565b5050825192935060009150505b81811015610c3457610ab6838281518110610aa557610aa5613b21565b602002602001015160800151613154565b151560011415610ac557610c24565b6000838281518110610ad957610ad9613b21565b6020026020010151604001516001600160a01b0316635121ac9d858481518110610b0557610b05613b21565b60209081029190910101516060015160015460405160e084901b6001600160e01b03191681526001600160a01b039283166004820152911660248201526044016020604051808303816000875af1158015610b64573d6000803e3d6000fd5b505050506040513d601f19601f82011682018060405250810190610b889190613b37565b60015485519192506001600160a01b0316906383ab930490869085908110610bb257610bb2613b21565b602002602001015160600151836040518363ffffffff1660e01b8152600401610bf09291906001600160a01b03929092168252602082015260400190565b600060405180830381600087803b158015610c0a57600080fd5b505af1158015610c1e573d6000803e3d6000fd5b50505050505b610c2d81613b50565b9050610a88565b5060019250505090565b6001546040516310ac019160e11b81526001600160a01b03848116600483015283811660248301526000921690632158032290604401602060405180830381865afa158015610c91573d6000803e3d6000fd5b505050506040513d601f19601f82011682018060405250810190610cb59190613b37565b90505b92915050565b6000806002805480602002602001604051908101604052809291908181526020016000905b82821015610dec57838290600052602060002090600402016040518060a0016040529081600082018054610d1690613ae6565b80601f0160208091040260200160405190810160405280929190818152602001828054610d4290613ae6565b8015610d8f5780601f10610d6457610100808354040283529160200191610d8f565b820191906000526020600020905b815481529060010190602001808311610d7257829003601f168201915b50505091835250506001828101546001600160a01b039081166020808501919091526002850154821660408501526003909401549081166060840152600160a01b900460ff16151560809092019190915291835292019101610ce3565b5050825192935060009150505b81811015610c3457610e16838281518110610aa557610aa5613b21565b151560011415610e2557610f04565b828181518110610e3757610e37613b21565b6020026020010151604001516001600160a01b03166310775e74848381518110610e6357610e63613b21565b602002602001015160600151858481518110610e8157610e81613b21565b6020026020010151602001516040518363ffffffff1660e01b8152600401610ebf9291906001600160a01b0392831681529116602082015260400190565b6020604051808303816000875af1158015610ede573d6000803e3d6000fd5b505050506040513d601f19601f82011682018060405250810190610f029190613b79565b505b610f0d81613b50565b9050610df9565b306001600160a01b037f0000000000000000000000000000000000000000000000000000000000000000161415610f665760405162461bcd60e51b8152600401610f5d90613b96565b60405180910390fd5b7f00000000000000000000000000000000000000000000000000000000000000006001600160a01b0316610faf600080516020613d70833981519152546001600160a01b031690565b6001600160a01b031614610fd55760405162461bcd60e51b8152600401610f5d90613be2565b610fde8161316b565b60408051600080825260208201909252610ffa91839190613173565b50565b6000806110086130fa565b60006001600160a01b03166003866040516110239190613c2e565b908152604051908190036020019020600201546001600160a01b0316141561108d5760405162461bcd60e51b815260206004820152601a60248201527f50726f6a65637420616c72656164792068617320626f756e74790000000000006044820152606401610f5d565b6001600160a01b03841660009081526004602052604090205460ff1615156001146110ef5760405162461bcd60e51b8152602060048201526012602482015271151bdad95b881b9bdd08185c1c1c9bdd995960721b6044820152606401610f5d565b6040805160a0810182526000818301819052608082018190528782526001600160a01b03868116602084015287811660608401529251636c1d066b60e11b8152919290917f00000000000000000000000000000000000000000000000000000000000000009091169063d83a0cd690611190907f00000000000000000000000000000000000000000000000000000000000000009089908d90600401613c4a565b6020604051808303816000875af11580156111af573d6000803e3d6000fd5b505050506040513d601f19601f820116820180604052508101906111d39190613c7f565b6001600160a01b03811660408401526002805460018101825560009190915283518051929350849260049092027f405787fa12a823e0f2b7631cc41b3ba8828b3321ca811111fa75cd3aa3bb5ace01916112359183916020919091019061357a565b5060208201516001820180546001600160a01b039283166001600160a01b03199182161790915560408085015160028501805491851691909316179091556060840151600393840180546080909601511515600160a01b026001600160a81b0319909616919093161793909317905590518391906112b4908a90613c2e565b908152602001604051809103902060008201518160000190805190602001906112de92919061357a565b506020828101516001830180546001600160a01b039283166001600160a01b03199182161790915560408086015160028601805491851691909316179091556060850151600390940180546080909601511515600160a01b026001600160a81b03199096169483169490941794909417909255915183821681529087169133917fa397122091ddbad4417c188353200f86978770ea6a146a5860667b1ef760917c910160405180910390a3976001975095505050505050565b306001600160a01b037f00000000000000000000000000000000000000000000000000000000000000001614156113e05760405162461bcd60e51b8152600401610f5d90613b96565b7f00000000000000000000000000000000000000000000000000000000000000006001600160a01b0316611429600080516020613d70833981519152546001600160a01b031690565b6001600160a01b03161461144f5760405162461bcd60e51b8152600401610f5d90613be2565b6114588261316b565b61146482826001613173565b5050565b6000306001600160a01b037f000000000000000000000000000000000000000000000000000000000000000016146115085760405162461bcd60e51b815260206004820152603860248201527f555550535570677261646561626c653a206d757374206e6f742062652063616c60448201527f6c6564207468726f7567682064656c656761746563616c6c00000000000000006064820152608401610f5d565b50600080516020613d7083398151915290565b60006115256130fa565b6001600160a01b03821661156a5760405162461bcd60e51b815260206004820152600c60248201526b41646472657373207a65726f60a01b6044820152606401610f5d565b604051631b2ce7f360e11b81526001600160a01b0383811660048301527f00000000000000000000000000000000000000000000000000000000000000001690633659cfe690602401600060405180830381600087803b1580156115cd57600080fd5b505af11580156115e1573d6000803e3d6000fd5b50600195945050505050565b6000806003856040516116009190613c2e565b90815260200160405180910390206040518060a001604052908160008201805461162990613ae6565b80601f016020809104026020016040519081016040528092919081815260200182805461165590613ae6565b80156116a25780601f10611677576101008083540402835291602001916116a2565b820191906000526020600020905b81548152906001019060200180831161168557829003601f168201915b505050918352505060018201546001600160a01b0390811660208301526002830154811660408301526003909201549182166060820152600160a01b90910460ff1615156080918201528101519091506116fb90613154565b151560011461171c5760405162461bcd60e51b8152600401610f5d90613c9c565b80602001516001600160a01b0316336001600160a01b0316146117515760405162461bcd60e51b8152600401610f5d90613cc4565b80604001516001600160a01b031663d835f535856040518263ffffffff1660e01b815260040161178391815260200190565b600060405180830381600087803b15801561179d57600080fd5b505af11580156117b1573d6000803e3d6000fd5b50505060408083015160608401516020850151925163cc12c31160e01b81526001600160a01b03909216935063cc12c311926117f1928890600401613cef565b6020604051808303816000875af1158015611810573d6000803e3d6000fd5b505050506040513d601f19601f820116820180604052508101906115e19190613b79565b6000806003836040516118479190613c2e565b90815260200160405180910390206040518060a001604052908160008201805461187090613ae6565b80601f016020809104026020016040519081016040528092919081815260200182805461189c90613ae6565b80156118e95780601f106118be576101008083540402835291602001916118e9565b820191906000526020600020905b8154815290600101906020018083116118cc57829003601f168201915b505050918352505060018201546001600160a01b0390811660208301526002830154811660408301526003909201549182166060820152600160a01b90910460ff16151560809182015281015190915061194290613154565b15156001146119635760405162461bcd60e51b8152600401610f5d90613c9c565b6040808201516060830151602084015192516303065f4560e41b81526001600160a01b0391821660048201523360248201529281166044840152600092911690633065f4509060640160408051808303816000875af11580156119ca573d6000803e3d6000fd5b505050506040513d601f19601f820116820180604052508101906119ee9190613d13565b50949350505050565b6000600382604051611a099190613c2e565b908152604051908190036020019020600201546001600160a01b031692915050565b600080600384604051611a3e9190613c2e565b90815260200160405180910390206040518060a0016040529081600082018054611a6790613ae6565b80601f0160208091040260200160405190810160405280929190818152602001828054611a9390613ae6565b8015611ae05780601f10611ab557610100808354040283529160200191611ae0565b820191906000526020600020905b815481529060010190602001808311611ac357829003601f168201915b505050918352505060018201546001600160a01b0390811660208301526002830154811660408301526003909201549182166060820152600160a01b90910460ff161515608091820152810151909150611b3990613154565b1515600114611b5a5760405162461bcd60e51b8152600401610f5d90613c9c565b80602001516001600160a01b0316336001600160a01b031614611b8f5760405162461bcd60e51b8152600401610f5d90613cc4565b80604001516001600160a01b031663419b7bd782606001518360200151866040518463ffffffff1660e01b8152600401611bcb93929190613cef565b6020604051808303816000875af1158015611bea573d6000803e3d6000fd5b505050506040513d601f19601f82011682018060405250810190611c0e9190613b79565b506001949350505050565b60015460408051636c94853560e01b815290516000926001600160a01b031691636c9485359160048083019260209291908290030181865afa158015611c63573d6000803e3d6000fd5b505050506040513d601f19601f82011682018060405250810190611c879190613b37565b905090565b611c946130fa565b611c9e60006132e3565b565b611ca86130fa565b6001600160a01b038116611cf55760405162461bcd60e51b8152602060048201526014602482015273416464726573732063616e74206265207a65726f60601b6044820152606401610f5d565b600180546001600160a01b0319166001600160a01b0392909216919091179055565b600080600383604051611d2a9190613c2e565b90815260200160405180910390206040518060a0016040529081600082018054611d5390613ae6565b80601f0160208091040260200160405190810160405280929190818152602001828054611d7f90613ae6565b8015611dcc5780601f10611da157610100808354040283529160200191611dcc565b820191906000526020600020905b815481529060010190602001808311611daf57829003601f168201915b505050918352505060018201546001600160a01b039081166020830152600283015481166040808401919091526003909301548082166060840152600160a01b900460ff161515608090920191909152828201519151631a89cabd60e01b8152336004820152929350600092911690631a89cabd906024016040805180830381865afa158015611e60573d6000803e3d6000fd5b505050506040513d601f19601f820116820180604052508101906119ee9190613d38565b60028181548110611e9457600080fd5b9060005260206000209060040201600091509050806000018054611eb790613ae6565b80601f0160208091040260200160405190810160405280929190818152602001828054611ee390613ae6565b8015611f305780601f10611f0557610100808354040283529160200191611f30565b820191906000526020600020905b815481529060010190602001808311611f1357829003601f168201915b505050506001830154600284015460039094015492936001600160a01b0391821693908216925090811690600160a01b900460ff1685565b600080600384604051611f7b9190613c2e565b90815260200160405180910390206040518060a0016040529081600082018054611fa490613ae6565b80601f0160208091040260200160405190810160405280929190818152602001828054611fd090613ae6565b801561201d5780601f10611ff25761010080835404028352916020019161201d565b820191906000526020600020905b81548152906001019060200180831161200057829003601f168201915b505050918352505060018201546001600160a01b0390811660208301526002830154811660408301526003909201549182166060820152600160a01b90910460ff16151560809182015281015190915061207690613154565b15156001146120975760405162461bcd60e51b8152600401610f5d90613c9c565b80604001516001600160a01b031663bf6eac2f826060015133866040518463ffffffff1660e01b8152600401611bcb93929190613cef565b60006120d96130fa565b60016003836040516120eb9190613c2e565b9081526040519081900360200190206003018054911515600160a01b0260ff60a01b19909216919091179055506001919050565b6001546040805163a0d0712560e01b815290516000926001600160a01b03169163a0d071259160048083019260209291908290030181865afa158015611c63573d6000803e3d6000fd5b60008060038460405161217c9190613c2e565b90815260200160405180910390206040518060a00160405290816000820180546121a590613ae6565b80601f01602080910402602001604051908101604052809291908181526020018280546121d190613ae6565b801561221e5780601f106121f35761010080835404028352916020019161221e565b820191906000526020600020905b81548152906001019060200180831161220157829003601f168201915b505050918352505060018201546001600160a01b0390811660208301526002830154811660408301526003909201549182166060820152600160a01b90910460ff16151560809182015281015190915061227790613154565b15156001146122985760405162461bcd60e51b8152600401610f5d90613c9c565b80602001516001600160a01b0316336001600160a01b0316146122cd5760405162461bcd60e51b8152600401610f5d90613cc4565b80604001516001600160a01b0316634b5df6cc846040518263ffffffff1660e01b81526004016122ff91815260200190565b600060405180830381600087803b15801561231957600080fd5b505af115801561232d573d6000803e3d6000fd5b506001979650505050505050565b60008060038360405161234e9190613c2e565b90815260200160405180910390206040518060a001604052908160008201805461237790613ae6565b80601f01602080910402602001604051908101604052809291908181526020018280546123a390613ae6565b80156123f05780601f106123c5576101008083540402835291602001916123f0565b820191906000526020600020905b8154815290600101906020018083116123d357829003601f168201915b505050918352505060018201546001600160a01b03908116602080840191909152600284015482166040808501919091526003909401548083166060850152600160a01b900460ff1615156080909301929092528383015183516316e17b8d60e01b8152935194955016926316e17b8d9260048082019392918290030181865afa158015612482573d6000803e3d6000fd5b505050506040513d601f19601f820116820180604052508101906124a69190613b37565b9392505050565b60006124b76130fa565b6124ed6003856040516124ca9190613c2e565b9081526040519081900360200190206003015460ff600160a01b90910416613154565b151560011461250e5760405162461bcd60e51b8152600401610f5d90613c9c565b60038460405161251e9190613c2e565b908152604051908190036020018120600201546001600160a01b0316906373927c119060039061254f908890613c2e565b908152604051908190036020018120600301546001546001600160e01b031960e085901b1683526001600160a01b0391821660048401528116602483015286166044820152606481018590526084016020604051808303816000875af11580156125bd573d6000803e3d6000fd5b505050506040513d601f19601f820116820180604052508101906125e19190613b79565b506001546040516001600160a01b039091169063d16cfcc190600390612608908890613c2e565b908152604051908190036020018120600301546001600160e01b031960e084901b1682526122ff916001600160a01b039091169087908790600401613cef565b60015460408051630c31495960e41b815290516000926001600160a01b03169163c31495909160048083019260209291908290030181865afa158015611c63573d6000803e3d6000fd5b6000806003846040516126a59190613c2e565b90815260200160405180910390206040518060a00160405290816000820180546126ce90613ae6565b80601f01602080910402602001604051908101604052809291908181526020018280546126fa90613ae6565b80156127475780601f1061271c57610100808354040283529160200191612747565b820191906000526020600020905b81548152906001019060200180831161272a57829003601f168201915b505050918352505060018201546001600160a01b0390811660208301526002830154811660408301526003909201549182166060820152600160a01b90910460ff1615156080918201528101519091506127a090613154565b15156001146127c15760405162461bcd60e51b8152600401610f5d90613c9c565b60408082015190516358ae710560e11b8152336004820152602481018590526001600160a01b039091169063b15ce20a906044015b6020604051808303816000875af1158015612815573d6000803e3d6000fd5b505050506040513d601f19601f820116820180604052508101906128399190613b79565b15612848576001915050610cb8565b5092915050565b60015460408051636999350560e11b815290516000926001600160a01b03169163d3326a0a9160048083019260209291908290030181865afa158015611c63573d6000803e3d6000fd5b6000806003846040516128ac9190613c2e565b90815260200160405180910390206040518060a00160405290816000820180546128d590613ae6565b80601f016020809104026020016040519081016040528092919081815260200182805461290190613ae6565b801561294e5780601f106129235761010080835404028352916020019161294e565b820191906000526020600020905b81548152906001019060200180831161293157829003601f168201915b505050918352505060018201546001600160a01b0390811660208301526002830154811660408301526003909201549182166060820152600160a01b90910460ff1615156080918201528101519091506129a790613154565b15156001146129c85760405162461bcd60e51b8152600401610f5d90613c9c565b80604001516001600160a01b03166360829f8a826060015133866040518463ffffffff1660e01b81526004016127f693929190613cef565b600080600383604051612a139190613c2e565b90815260200160405180910390206040518060a0016040529081600082018054612a3c90613ae6565b80601f0160208091040260200160405190810160405280929190818152602001828054612a6890613ae6565b8015612ab55780601f10612a8a57610100808354040283529160200191612ab5565b820191906000526020600020905b815481529060010190602001808311612a9857829003601f168201915b505050918352505060018201546001600160a01b03908116602080840191909152600284015482166040808501919091526003909401548083166060850152600160a01b900460ff16151560809093019290925283830151835163383639b360e01b81529351949550169263383639b39260048082019392918290030181865afa158015612482573d6000803e3d6000fd5b8051602081830181018051600382529282019190930120915280548190611eb790613ae6565b6001546040805163e5125d7b60e01b815290516000926001600160a01b03169163e5125d7b9160048083019260209291908290030181865afa158015611c63573d6000803e3d6000fd5b6000612bc16130fa565b6001600160a01b03929092166000908152600460205260409020805460ff191691151591909117905590565b6000612c026003836040516124ca9190613c2e565b1515600114612c235760405162461bcd60e51b8152600401610f5d90613c9c565b600382604051612c339190613c2e565b908152604051908190036020018120600201546001600160a01b0316906310775e7490600390612c64908690613c2e565b9081526040519081900360200181206003908101546001600160a01b031691612c8e908790613c2e565b908152604051908190036020018120600101546001600160e01b031960e085901b1682526001600160a01b0392831660048301529190911660248201526044016020604051808303816000875af1158015612ced573d6000803e3d6000fd5b505050506040513d601f19601f82011682018060405250810190612d119190613b79565b50600192915050565b6000612d246130fa565b6001600160a01b038316612d695760405162461bcd60e51b815260206004820152600c60248201526b41646472657373205a65726f60a01b6044820152606401610f5d565b600154604051630be5e47b60e11b81526001600160a01b03909116906317cbc8f690611bcb90879087908790600401613cef565b612da56130fa565b6001600160a01b038116612e0a5760405162461bcd60e51b815260206004820152602660248201527f4f776e61626c653a206e6577206f776e657220697320746865207a65726f206160448201526564647265737360d01b6064820152608401610f5d565b610ffa816132e3565b600080600384604051612e269190613c2e565b90815260200160405180910390206040518060a0016040529081600082018054612e4f90613ae6565b80601f0160208091040260200160405190810160405280929190818152602001828054612e7b90613ae6565b8015612ec85780601f10612e9d57610100808354040283529160200191612ec8565b820191906000526020600020905b815481529060010190602001808311612eab57829003601f168201915b505050918352505060018201546001600160a01b0390811660208301526002830154811660408301526003909201549182166060820152600160a01b90910460ff161515608091820152810151909150612f2190613154565b1515600114612f425760405162461bcd60e51b8152600401610f5d90613c9c565b80602001516001600160a01b0316336001600160a01b031614612f775760405162461bcd60e51b8152600401610f5d90613cc4565b80604001516001600160a01b0316633147096d82606001518360200151866040518463ffffffff1660e01b8152600401611bcb93929190613cef565b600080600383604051612fc69190613c2e565b90815260200160405180910390206040518060a0016040529081600082018054612fef90613ae6565b80601f016020809104026020016040519081016040528092919081815260200182805461301b90613ae6565b80156130685780601f1061303d57610100808354040283529160200191613068565b820191906000526020600020905b81548152906001019060200180831161304b57829003601f168201915b505050918352505060018201546001600160a01b03908116602080840191909152600284015482166040808501919091526003909401548083166060850152600160a01b900460ff161515608090930192909252838301518351634a94bcb360e01b815293519495501692634a94bcb39260048082019392918290030181865afa158015612482573d6000803e3d6000fd5b6000546001600160a01b03163314611c9e5760405162461bcd60e51b815260206004820181905260248201527f4f776e61626c653a2063616c6c6572206973206e6f7420746865206f776e65726044820152606401610f5d565b60008115613163576000610cb8565b600192915050565b610ffa6130fa565b7f4910fdfa16fed3260ed0e7147f7cc6da11a60208b5b9406d12a635614ffd91435460ff16156131ab576131a683613333565b505050565b826001600160a01b03166352d1902d6040518163ffffffff1660e01b8152600401602060405180830381865afa925050508015613205575060408051601f3d908101601f1916820190925261320291810190613b37565b60015b6132685760405162461bcd60e51b815260206004820152602e60248201527f45524331393637557067726164653a206e657720696d706c656d656e7461746960448201526d6f6e206973206e6f74205555505360901b6064820152608401610f5d565b600080516020613d7083398151915281146132d75760405162461bcd60e51b815260206004820152602960248201527f45524331393637557067726164653a20756e737570706f727465642070726f786044820152681a58589b195555525160ba1b6064820152608401610f5d565b506131a68383836133cf565b600080546001600160a01b038381166001600160a01b0319831681178455604051919092169283917f8be0079c531659141344cd1fd0a4f28419497f9722a3daafe3b4186f6b6457e09190a35050565b6001600160a01b0381163b6133a05760405162461bcd60e51b815260206004820152602d60248201527f455243313936373a206e657720696d706c656d656e746174696f6e206973206e60448201526c1bdd08184818dbdb9d1c9858dd609a1b6064820152608401610f5d565b600080516020613d7083398151915280546001600160a01b0319166001600160a01b0392909216919091179055565b6133d8836133fa565b6000825111806133e55750805b156131a6576133f4838361343a565b50505050565b61340381613333565b6040516001600160a01b038216907fbc7cd75a20ee27fd9adebab32041f755214dbc6bffa90cc0225b39da2e5c2d3b90600090a250565b6060610cb58383604051806060016040528060278152602001613d90602791396060600080856001600160a01b0316856040516134779190613c2e565b600060405180830381855af49150503d80600081146134b2576040519150601f19603f3d011682016040523d82523d6000602084013e6134b7565b606091505b50915091506134c8868383876134d2565b9695505050505050565b6060831561353e578251613537576001600160a01b0385163b6135375760405162461bcd60e51b815260206004820152601d60248201527f416464726573733a2063616c6c20746f206e6f6e2d636f6e74726163740000006044820152606401610f5d565b5081613548565b6135488383613550565b949350505050565b8151156135605781518083602001fd5b8060405162461bcd60e51b8152600401610f5d9190613d5c565b82805461358690613ae6565b90600052602060002090601f0160209004810192826135a857600085556135ee565b82601f106135c157805160ff19168380011785556135ee565b828001600101855582156135ee579182015b828111156135ee5782518255916020019190600101906135d3565b506135fa9291506135fe565b5090565b5b808211156135fa57600081556001016135ff565b60005b8381101561362e578181015183820152602001613616565b838111156133f45750506000910152565b60008151808452613657816020860160208601613613565b601f01601f19169290920160200192915050565b60006020808301818452808551808352604092508286019150828160051b87010184880160005b8381101561370457603f19898403018552815160a081518186526136b88287018261363f565b838b01516001600160a01b03908116888d01528a85015181168b890152606080860151909116908801526080938401511515939096019290925250509386019390860190600101613692565b509098975050505050505050565b6001600160a01b0381168114610ffa57600080fd5b6000806040838503121561373a57600080fd5b823561374581613712565b9150602083013561375581613712565b809150509250929050565b60006020828403121561377257600080fd5b81356124a681613712565b634e487b7160e01b600052604160045260246000fd5b600082601f8301126137a457600080fd5b813567ffffffffffffffff808211156137bf576137bf61377d565b604051601f8301601f19908116603f011681019082821181831017156137e7576137e761377d565b8160405283815286602085880101111561380057600080fd5b836020870160208301376000602085830101528094505050505092915050565b6000806000806080858703121561383657600080fd5b843567ffffffffffffffff8082111561384e57600080fd5b61385a88838901613793565b9550602087013591508082111561387057600080fd5b5061387d87828801613793565b935050604085013561388e81613712565b9150606085013561389e81613712565b939692955090935050565b600080604083850312156138bc57600080fd5b82356138c781613712565b9150602083013567ffffffffffffffff8111156138e357600080fd5b6138ef85828601613793565b9150509250929050565b60008060006060848603121561390e57600080fd5b833567ffffffffffffffff81111561392557600080fd5b61393186828701613793565b9660208601359650604090950135949350505050565b60006020828403121561395957600080fd5b813567ffffffffffffffff81111561397057600080fd5b61354884828501613793565b6000806040838503121561398f57600080fd5b823567ffffffffffffffff8111156139a657600080fd5b6139b285828601613793565b95602094909401359450505050565b6000602082840312156139d357600080fd5b5035919050565b60a0815260006139ed60a083018861363f565b6001600160a01b039687166020840152948616604083015250919093166060820152911515608090920191909152919050565b600080600060608486031215613a3557600080fd5b833567ffffffffffffffff811115613a4c57600080fd5b613a5886828701613793565b9350506020840135613a6981613712565b929592945050506040919091013590565b8015158114610ffa57600080fd5b60008060408385031215613a9b57600080fd5b8235613aa681613712565b9150602083013561375581613a7a565b600080600060608486031215613acb57600080fd5b8335613ad681613712565b92506020840135613a6981613712565b600181811c90821680613afa57607f821691505b60208210811415613b1b57634e487b7160e01b600052602260045260246000fd5b50919050565b634e487b7160e01b600052603260045260246000fd5b600060208284031215613b4957600080fd5b5051919050565b6000600019821415613b7257634e487b7160e01b600052601160045260246000fd5b5060010190565b600060208284031215613b8b57600080fd5b81516124a681613a7a565b6020808252602c908201527f46756e6374696f6e206d7573742062652063616c6c6564207468726f7567682060408201526b19195b1959d85d1958d85b1b60a21b606082015260800190565b6020808252602c908201527f46756e6374696f6e206d7573742062652063616c6c6564207468726f7567682060408201526b6163746976652070726f787960a01b606082015260800190565b60008251613c40818460208701613613565b9190910192915050565b6001600160a01b03848116825283166020820152606060408201819052600090613c769083018461363f565b95945050505050565b600060208284031215613c9157600080fd5b81516124a681613712565b6020808252600e908201526d109bdd5b9d1e481a5cc81119585960921b604082015260600190565b6020808252601190820152702737ba10383937b532b1ba1037bbb732b960791b604082015260600190565b6001600160a01b039384168152919092166020820152604081019190915260600190565b60008060408385031215613d2657600080fd5b82519150602083015161375581613a7a565b60008060408385031215613d4b57600080fd5b505080516020909101519092909150565b602081526000610cb5602083018461363f56fe360894a13ba1a3210667c828492db98dca3e2076cc3735a920a3ca505d382bbc416464726573733a206c6f772d6c6576656c2064656c65676174652063616c6c206661696c6564a2646970667358221220348e9e2a3cb3f355262239eb70fde82621e02fd33fefa5baef94d0db61bc456e64736f6c634300080a0033",
    "linkReferences": {}
  },
  "methodIdentifiers": {
    "beacon()": "59659e90",
    "billPremiumForAll()": "27e73542",
    "billPremiumForOnePool(string)": "e6b37f6f",
    "bountiesList(uint256)": "7f2f3e5e",
    "bountyDetails(string)": "d7dc56a5",
    "bountyImplementation()": "cae38faa",
    "claimPremium(string)": "666b7030",
    "deployNewBounty(bytes,string,address,address)": "4c0d9a6c",
    "factory()": "c45a0155",
    "getBountyAddressByName(string)": "66b6c647",
    "killBounty(string)": "9ca7e787",
    "owner()": "8da5cb5b",
    "payBounty(string,address,uint256)": "bc160761",
    "projectDeposit(string,uint256)": "f4808fea",
    "projectDepositWithdrawal(string,uint256)": "68dd3dbf",
    "proxiableUUID()": "52d1902d",
    "renounceOwnership()": "715018a6",
    "saloonWallet()": "4389e41a",
    "scheduleProjectDepositWithdrawal(string,uint256)": "b8047881",
    "scheduleUnstake(string,uint256)": "d16ad2f7",
    "setBountyCapAndAPY(string,uint256,uint256)": "58b07d5b",
    "stake(string,uint256)": "9494c8ae",
    "tokenWhitelist(address)": "753d7563",
    "transferOwnership(address)": "f2fde38b",
    "unstake(string,uint256)": "d37c92dc",
    "updateBountyPoolImplementation(address)": "53dce856",
    "updateSaloonWallet(address)": "79f99a89",
    "updateTokenWhitelist(address,bool)": "e5e97c65",
    "upgradeTo(address)": "3659cfe6",
    "upgradeToAndCall(address,bytes)": "4f1ef286",
    "viewAllBountiesByName()": "03c46f51",
    "viewBountyPayout(string)": "ff8d30fb",
    "viewHunterTotalTokenPayouts(address,address)": "21580322",
    "viewProjectDeposit(string)": "d3c15cdb",
    "viewSaloonBalance()": "a0d07125",
    "viewTotalEarnedSaloon()": "6c948535",
    "viewTotalHackerPayouts()": "c3149590",
    "viewTotalPremiums()": "e5125d7b",
    "viewTotalSaloonCommission()": "d3326a0a",
    "viewUserStakingBalance(string)": "7dd03e8f",
    "viewstakersDeposit(string)": "b91cdea7",
    "withdrawSaloon(address,address,uint256)": "f0e6b4ed",
    "withdrawSaloonPremiumFees()": "0e060249"
  },
  "id": 24
}