{
  "abi": [
    {
      "anonymous": false,
      "inputs": [
        {
          "indexed": true,
          "internalType": "address",
          "name": "owner",
          "type": "address"
        },
        {
          "indexed": true,
          "internalType": "address",
          "name": "approved",
          "type": "address"
        },
        {
          "indexed": true,
          "internalType": "uint256",
          "name": "tokenId",
          "type": "uint256"
        }
      ],
      "name": "Approval",
      "type": "event"
    },
    {
      "anonymous": false,
      "inputs": [
        {
          "indexed": true,
          "internalType": "address",
          "name": "owner",
          "type": "address"
        },
        {
          "indexed": true,
          "internalType": "address",
          "name": "operator",
          "type": "address"
        },
        {
          "indexed": false,
          "internalType": "bool",
          "name": "approved",
          "type": "bool"
        }
      ],
      "name": "ApprovalForAll",
      "type": "event"
    },
    {
      "anonymous": false,
      "inputs": [
        {
          "indexed": true,
          "internalType": "address",
          "name": "from",
          "type": "address"
        },
        {
          "indexed": true,
          "internalType": "address",
          "name": "to",
          "type": "address"
        },
        {
          "indexed": true,
          "internalType": "uint256",
          "name": "tokenId",
          "type": "uint256"
        }
      ],
      "name": "Transfer",
      "type": "event"
    },
    {
      "inputs": [
        {
          "internalType": "address",
          "name": "owner",
          "type": "address"
        }
      ],
      "name": "balanceOf",
      "outputs": [
        {
          "internalType": "uint256",
          "name": "",
          "type": "uint256"
        }
      ],
      "stateMutability": "view",
      "type": "function"
    },
    {
      "inputs": [
        {
          "internalType": "uint256",
          "name": "tokenId",
          "type": "uint256"
        }
      ],
      "name": "getApproved",
      "outputs": [
        {
          "internalType": "address",
          "name": "",
          "type": "address"
        }
      ],
      "stateMutability": "view",
      "type": "function"
    },
    {
      "inputs": [
        {
          "internalType": "address",
          "name": "owner",
          "type": "address"
        },
        {
          "internalType": "address",
          "name": "operator",
          "type": "address"
        }
      ],
      "name": "isApprovedForAll",
      "outputs": [
        {
          "internalType": "bool",
          "name": "",
          "type": "bool"
        }
      ],
      "stateMutability": "view",
      "type": "function"
    },
    {
      "inputs": [],
      "name": "name",
      "outputs": [
        {
          "internalType": "string",
          "name": "",
          "type": "string"
        }
      ],
      "stateMutability": "pure",
      "type": "function"
    },
    {
      "inputs": [
        {
          "internalType": "uint256",
          "name": "tokenId",
          "type": "uint256"
        }
      ],
      "name": "ownerOf",
      "outputs": [
        {
          "internalType": "address",
          "name": "",
          "type": "address"
        }
      ],
      "stateMutability": "view",
      "type": "function"
    },
    {
      "inputs": [
        {
          "internalType": "bytes4",
          "name": "interfaceId",
          "type": "bytes4"
        }
      ],
      "name": "supportsInterface",
      "outputs": [
        {
          "internalType": "bool",
          "name": "",
          "type": "bool"
        }
      ],
      "stateMutability": "view",
      "type": "function"
    },
    {
      "inputs": [],
      "name": "symbol",
      "outputs": [
        {
          "internalType": "string",
          "name": "",
          "type": "string"
        }
      ],
      "stateMutability": "pure",
      "type": "function"
    }
  ],
  "bytecode": {
    "object": "0x61127661003a600b82828239805160001a60731461002d57634e487b7160e01b600052600060045260246000fd5b30600052607381538281f3fe73000000000000000000000000000000000000000030146080604052600436106100be5760003560e01c80636352211e1161007b5780636352211e146101af57806370a08231146101c257806395d89b41146101e3578063a22cb46514610202578063b88d4fde14610222578063e985e9c51461024257600080fd5b806301ffc9a7146100c357806306fdde03146100eb578063081812fc14610122578063095ea7b31461014d57806323b872dd1461016f57806342842e0e1461018f575b600080fd5b6100d66100d1366004610de0565b610255565b60405190151581526020015b60405180910390f35b60408051808201909152601281527129b0b637b7b729ba30b5b4b733aa37b5b2b760711b60208201525b6040516100e29190610e4a565b610135610130366004610e5d565b6102a7565b6040516001600160a01b0390911681526020016100e2565b81801561015957600080fd5b5061016d610168366004610e92565b6102ed565b005b81801561017b57600080fd5b5061016d61018a366004610ebc565b610407565b81801561019b57600080fd5b5061016d6101aa366004610ebc565b610438565b6101356101bd366004610e5d565b610453565b6101d56101d0366004610ef8565b6104b2565b6040519081526020016100e2565b60408051808201909152600381526214d4d560ea1b6020820152610115565b81801561020e57600080fd5b5061016d61021d366004610f13565b61054c565b81801561022e57600080fd5b5061016d61023d366004610f65565b61055b565b6100d6610250366004611041565b610593565b60006001600160e01b031982166380ac58cd60e01b148061028657506001600160e01b03198216635b5e139f60e01b145b806102a157506001600160e01b031982166301ffc9a760e01b145b92915050565b60006102b2826105e0565b5060009081527f07cfe06905cfedb580eece28a10ae6a81afa7f795e57d58eb5cecaff527e70c360205260409020546001600160a01b031690565b60006102f882610453565b9050806001600160a01b0316836001600160a01b03160361036a5760405162461bcd60e51b815260206004820152602160248201527f4552433732313a20617070726f76616c20746f2063757272656e74206f776e656044820152603960f91b60648201526084015b60405180910390fd5b336001600160a01b038216148061038657506103868133610593565b6103f85760405162461bcd60e51b815260206004820152603d60248201527f4552433732313a20617070726f76652063616c6c6572206973206e6f7420746f60448201527f6b656e206f776e6572206f7220617070726f76656420666f7220616c6c0000006064820152608401610361565b6104028383610633565b505050565b61041133826106d1565b61042d5760405162461bcd60e51b815260040161036190611074565b610402838383610730565b6104028383836040518060200160405280600081525061055b565b60008061045f836108b6565b90506001600160a01b0381166102a15760405162461bcd60e51b8152602060048201526018602482015277115490cdcc8c4e881a5b9d985b1a59081d1bdad95b88125160421b6044820152606401610361565b60006000805160206112218339815191526001600160a01b03831661052b5760405162461bcd60e51b815260206004820152602960248201527f4552433732313a2061646472657373207a65726f206973206e6f7420612076616044820152683634b21037bbb732b960b91b6064820152608401610361565b6001600160a01b039092166000908152600190920160205250604090205490565b6105573383836108de565b5050565b61056533836106d1565b6105815760405162461bcd60e51b815260040161036190611074565b61058d848484846109de565b50505050565b6001600160a01b0391821660009081527f07cfe06905cfedb580eece28a10ae6a81afa7f795e57d58eb5cecaff527e70c46020908152604080832093909416825291909152205460ff1690565b6105e981610a11565b6106305760405162461bcd60e51b8152602060048201526018602482015277115490cdcc8c4e881a5b9d985b1a59081d1bdad95b88125160421b6044820152606401610361565b50565b60008181527f07cfe06905cfedb580eece28a10ae6a81afa7f795e57d58eb5cecaff527e70c36020526040902080546001600160a01b0319166001600160a01b03841690811790915560008051602061122183398151915290829061069782610453565b6001600160a01b03167f8c5be1e5ebec7d5bd14f71427d1e84f3dd0314c0f7b2291e5b200ac8c7c3b92560405160405180910390a4505050565b6000806106dd83610453565b9050806001600160a01b0316846001600160a01b0316148061070457506107048185610593565b806107285750836001600160a01b031661071d846102a7565b6001600160a01b0316145b949350505050565b6000805160206112218339815191526001600160a01b03841661075283610453565b6001600160a01b0316146107785760405162461bcd60e51b8152600401610361906110c1565b6001600160a01b0383166107da5760405162461bcd60e51b8152602060048201526024808201527f4552433732313a207472616e7366657220746f20746865207a65726f206164646044820152637265737360e01b6064820152608401610361565b6107e5848484610a2e565b836001600160a01b03166107f883610453565b6001600160a01b03161461081e5760405162461bcd60e51b8152600401610361906110c1565b6000828152600282016020908152604080832080546001600160a01b03199081169091556001600160a01b0388811680865260018088018652848720805460001901905591891680875284872080549093019092558786529386905282852080549092168117909155905185939192917fddf252ad1be2c89b69c2b068fc378daa952ba7f163c4a11628f55a4df523b3ef91a461058d565b600090815260008051602061122183398151915260205260409020546001600160a01b031690565b816001600160a01b0316836001600160a01b03160361093f5760405162461bcd60e51b815260206004820152601960248201527f4552433732313a20617070726f766520746f2063616c6c6572000000000000006044820152606401610361565b6001600160a01b0383811660008181527f07cfe06905cfedb580eece28a10ae6a81afa7f795e57d58eb5cecaff527e70c46020908152604080832094871680845294825291829020805460ff1916861515908117909155825190815291516000805160206112218339815191529493927f17307eab39ab6107e8899845ad3d59bd9653f200f220920489ca2b5937696c3192908290030190a350505050565b6109e9848484610730565b6109f584848484610ae3565b61058d5760405162461bcd60e51b815260040161036190611106565b600080610a1d836108b6565b6001600160a01b0316141592915050565b816001600160a01b0316836001600160a01b031614158015610a5857506001600160a01b03831615155b15610a6757610a678382610be4565b826001600160a01b0316826001600160a01b031614158015610a9157506001600160a01b03821615155b15610402576001600160a01b039190911660009081527f07cfe06905cfedb580eece28a10ae6a81afa7f795e57d58eb5cecaff527e70c660209081526040822080546001810182559083529120015550565b60006001600160a01b0384163b15610bd957604051630a85bd0160e11b81526001600160a01b0385169063150b7a0290610b27903390899088908890600401611158565b6020604051808303816000875af1925050508015610b62575060408051601f3d908101601f19168201909252610b5f91810190611195565b60015b610bbf573d808015610b90576040519150601f19603f3d011682016040523d82523d6000602084013e610b95565b606091505b508051600003610bb75760405162461bcd60e51b815260040161036190611106565b805181602001fd5b6001600160e01b031916630a85bd0160e11b149050610728565b506001949350505050565b6001600160a01b03821660009081527f07cfe06905cfedb580eece28a10ae6a81afa7f795e57d58eb5cecaff527e70c66020908152604080832080548251818502810185019093528083526000805160206112218339815191529493830182828015610c6f57602002820191906000526020600020905b815481526020019060010190808311610c5b575b505083519394506000925050505b81811015610d625784838281518110610c9857610c986111b2565b602002602001015103610d525782610cb16001846111de565b81518110610cc157610cc16111b2565b6020026020010151838281518110610cdb57610cdb6111b2565b6020908102919091018101919091526001600160a01b0387166000908152600586018252604090208451610d1192860190610d6a565b506001600160a01b03861660009081526005850160205260409020805480610d3b57610d3b6111f1565b600190038181906000526020600020016000905590555b610d5b81611207565b9050610c7d565b505050505050565b828054828255906000526020600020908101928215610da5579160200282015b82811115610da5578251825591602001919060010190610d8a565b50610db1929150610db5565b5090565b5b80821115610db15760008155600101610db6565b6001600160e01b03198116811461063057600080fd5b600060208284031215610df257600080fd5b8135610dfd81610dca565b9392505050565b6000815180845260005b81811015610e2a57602081850181015186830182015201610e0e565b506000602082860101526020601f19601f83011685010191505092915050565b602081526000610dfd6020830184610e04565b600060208284031215610e6f57600080fd5b5035919050565b80356001600160a01b0381168114610e8d57600080fd5b919050565b60008060408385031215610ea557600080fd5b610eae83610e76565b946020939093013593505050565b600080600060608486031215610ed157600080fd5b610eda84610e76565b9250610ee860208501610e76565b9150604084013590509250925092565b600060208284031215610f0a57600080fd5b610dfd82610e76565b60008060408385031215610f2657600080fd5b610f2f83610e76565b915060208301358015158114610f4457600080fd5b809150509250929050565b634e487b7160e01b600052604160045260246000fd5b60008060008060808587031215610f7b57600080fd5b610f8485610e76565b9350610f9260208601610e76565b925060408501359150606085013567ffffffffffffffff80821115610fb657600080fd5b818701915087601f830112610fca57600080fd5b813581811115610fdc57610fdc610f4f565b604051601f8201601f19908116603f0116810190838211818310171561100457611004610f4f565b816040528281528a602084870101111561101d57600080fd5b82602086016020830137600060208483010152809550505050505092959194509250565b6000806040838503121561105457600080fd5b61105d83610e76565b915061106b60208401610e76565b90509250929050565b6020808252602d908201527f4552433732313a2063616c6c6572206973206e6f7420746f6b656e206f776e6560408201526c1c881bdc88185c1c1c9bdd9959609a1b606082015260800190565b60208082526025908201527f4552433732313a207472616e736665722066726f6d20696e636f72726563742060408201526437bbb732b960d91b606082015260800190565b60208082526032908201527f4552433732313a207472616e7366657220746f206e6f6e20455243373231526560408201527131b2b4bb32b91034b6b83632b6b2b73a32b960711b606082015260800190565b6001600160a01b038581168252841660208201526040810183905260806060820181905260009061118b90830184610e04565b9695505050505050565b6000602082840312156111a757600080fd5b8151610dfd81610dca565b634e487b7160e01b600052603260045260246000fd5b634e487b7160e01b600052601160045260246000fd5b818103818111156102a1576102a16111c8565b634e487b7160e01b600052603160045260246000fd5b600060018201611219576112196111c8565b506001019056fe07cfe06905cfedb580eece28a10ae6a81afa7f795e57d58eb5cecaff527e70c1a2646970667358221220d386c892019ea4b425837052daec18df953d36f6162134ed8c344a633f6befc864736f6c63430008130033",
    "linkReferences": {}
  },
  "methodIdentifiers": {
    "approve(address,uint256)": "095ea7b3",
    "balanceOf(address)": "70a08231",
    "getApproved(uint256)": "081812fc",
    "isApprovedForAll(address,address)": "e985e9c5",
    "name()": "06fdde03",
    "ownerOf(uint256)": "6352211e",
    "safeTransferFrom(address,address,uint256)": "42842e0e",
    "safeTransferFrom(address,address,uint256,bytes)": "b88d4fde",
    "setApprovalForAll(address,bool)": "a22cb465",
    "supportsInterface(bytes4)": "01ffc9a7",
    "symbol()": "95d89b41",
    "transferFrom(address,address,uint256)": "23b872dd"
  },
  "id": 95
}