{
  "abi": [
    {
      "anonymous": false,
      "inputs": [
        {
          "indexed": true,
          "internalType": "uint256",
          "name": "pid",
          "type": "uint256"
        },
        {
          "indexed": false,
          "internalType": "uint256",
          "name": "oldAmount",
          "type": "uint256"
        },
        {
          "indexed": false,
          "internalType": "uint256",
          "name": "newAmount",
          "type": "uint256"
        }
      ],
      "name": "BountyBalanceChanged",
      "type": "event"
    },
    {
      "anonymous": false,
      "inputs": [
        {
          "indexed": true,
          "internalType": "address",
          "name": "hunter",
          "type": "address"
        },
        {
          "indexed": true,
          "internalType": "address",
          "name": "token",
          "type": "address"
        },
        {
          "indexed": false,
          "internalType": "uint256",
          "name": "amount",
          "type": "uint256"
        }
      ],
      "name": "BountyPaid",
      "type": "event"
    },
    {
      "anonymous": false,
      "inputs": [
        {
          "indexed": false,
          "internalType": "uint8",
          "name": "version",
          "type": "uint8"
        }
      ],
      "name": "Initialized",
      "type": "event"
    },
    {
      "anonymous": false,
      "inputs": [
        {
          "indexed": true,
          "internalType": "uint256",
          "name": "pid",
          "type": "uint256"
        },
        {
          "indexed": true,
          "internalType": "address",
          "name": "token",
          "type": "address"
        },
        {
          "indexed": false,
          "internalType": "uint256",
          "name": "tokenDecimals",
          "type": "uint256"
        }
      ],
      "name": "NewBountyDeployed",
      "type": "event"
    },
    {
      "anonymous": false,
      "inputs": [
        {
          "indexed": true,
          "internalType": "address",
          "name": "previousOwner",
          "type": "address"
        },
        {
          "indexed": true,
          "internalType": "address",
          "name": "newOwner",
          "type": "address"
        }
      ],
      "name": "OwnershipTransferred",
      "type": "event"
    },
    {
      "anonymous": false,
      "inputs": [
        {
          "indexed": true,
          "internalType": "uint256",
          "name": "pid",
          "type": "uint256"
        },
        {
          "indexed": false,
          "internalType": "uint256",
          "name": "amount",
          "type": "uint256"
        }
      ],
      "name": "PremiumBilled",
      "type": "event"
    },
    {
      "anonymous": false,
      "inputs": [
        {
          "indexed": true,
          "internalType": "address",
          "name": "user",
          "type": "address"
        },
        {
          "indexed": true,
          "internalType": "uint256",
          "name": "pid",
          "type": "uint256"
        },
        {
          "indexed": false,
          "internalType": "uint256",
          "name": "amount",
          "type": "uint256"
        }
      ],
      "name": "Staked",
      "type": "event"
    },
    {
      "anonymous": false,
      "inputs": [
        {
          "indexed": true,
          "internalType": "address",
          "name": "user",
          "type": "address"
        },
        {
          "indexed": true,
          "internalType": "uint256",
          "name": "pid",
          "type": "uint256"
        },
        {
          "indexed": false,
          "internalType": "uint256",
          "name": "amount",
          "type": "uint256"
        }
      ],
      "name": "Unstaked",
      "type": "event"
    },
    {
      "anonymous": false,
      "inputs": [
        {
          "indexed": true,
          "internalType": "uint256",
          "name": "pid",
          "type": "uint256"
        },
        {
          "indexed": false,
          "internalType": "uint256",
          "name": "amount",
          "type": "uint256"
        }
      ],
      "name": "WithdrawalOrUnstakeScheduled",
      "type": "event"
    },
    {
      "anonymous": false,
      "inputs": [
        {
          "indexed": true,
          "internalType": "address",
          "name": "referrer",
          "type": "address"
        },
        {
          "indexed": false,
          "internalType": "uint256",
          "name": "amount",
          "type": "uint256"
        }
      ],
      "name": "referralPaid",
      "type": "event"
    },
    {
      "anonymous": false,
      "inputs": [
        {
          "indexed": true,
          "internalType": "address",
          "name": "token",
          "type": "address"
        },
        {
          "indexed": true,
          "internalType": "bool",
          "name": "whitelisted",
          "type": "bool"
        }
      ],
      "name": "tokenWhitelistUpdated",
      "type": "event"
    },
    {
      "inputs": [],
      "name": "acceptOwnershipTransfer",
      "outputs": [],
      "stateMutability": "nonpayable",
      "type": "function"
    },
    {
      "inputs": [
        {
          "internalType": "uint256",
          "name": "",
          "type": "uint256"
        }
      ],
      "name": "activeStrategies",
      "outputs": [
        {
          "internalType": "bytes32",
          "name": "",
          "type": "bytes32"
        }
      ],
      "stateMutability": "view",
      "type": "function"
    },
    {
      "inputs": [
        {
          "internalType": "uint256",
          "name": "",
          "type": "uint256"
        }
      ],
      "name": "activeTokens",
      "outputs": [
        {
          "internalType": "address",
          "name": "",
          "type": "address"
        }
      ],
      "stateMutability": "view",
      "type": "function"
    },
    {
      "inputs": [
        {
          "internalType": "address",
          "name": "_token",
          "type": "address"
        },
        {
          "internalType": "address",
          "name": "_projectWallet",
          "type": "address"
        },
        {
          "internalType": "string",
          "name": "_projectName",
          "type": "string"
        },
        {
          "internalType": "address",
          "name": "_referrer",
          "type": "address"
        },
        {
          "internalType": "uint256",
          "name": "_referralFee",
          "type": "uint256"
        },
        {
          "internalType": "uint256",
          "name": "_referralEndTime",
          "type": "uint256"
        }
      ],
      "name": "addNewBountyPool",
      "outputs": [
        {
          "internalType": "uint256",
          "name": "",
          "type": "uint256"
        }
      ],
      "stateMutability": "nonpayable",
      "type": "function"
    },
    {
      "inputs": [
        {
          "internalType": "uint256",
          "name": "_pid",
          "type": "uint256"
        }
      ],
      "name": "billPremium",
      "outputs": [
        {
          "internalType": "bool",
          "name": "",
          "type": "bool"
        }
      ],
      "stateMutability": "nonpayable",
      "type": "function"
    },
    {
      "inputs": [
        {
          "internalType": "uint256",
          "name": "_poolCap",
          "type": "uint256"
        },
        {
          "internalType": "uint256",
          "name": "_apy",
          "type": "uint256"
        }
      ],
      "name": "calcRequiredPremiumBalancePerPeriod",
      "outputs": [
        {
          "internalType": "uint256",
          "name": "requiredPremiumBalance",
          "type": "uint256"
        }
      ],
      "stateMutability": "pure",
      "type": "function"
    },
    {
      "inputs": [],
      "name": "collectAllReferralProfits",
      "outputs": [
        {
          "internalType": "bool",
          "name": "",
          "type": "bool"
        }
      ],
      "stateMutability": "nonpayable",
      "type": "function"
    },
    {
      "inputs": [
        {
          "internalType": "address",
          "name": "_saloonWallet",
          "type": "address"
        }
      ],
      "name": "collectAllSaloonProfits",
      "outputs": [
        {
          "internalType": "bool",
          "name": "",
          "type": "bool"
        }
      ],
      "stateMutability": "nonpayable",
      "type": "function"
    },
    {
      "inputs": [
        {
          "internalType": "address",
          "name": "_token",
          "type": "address"
        }
      ],
      "name": "collectReferralProfit",
      "outputs": [
        {
          "internalType": "bool",
          "name": "",
          "type": "bool"
        }
      ],
      "stateMutability": "nonpayable",
      "type": "function"
    },
    {
      "inputs": [
        {
          "internalType": "address",
          "name": "_token",
          "type": "address"
        },
        {
          "internalType": "address",
          "name": "_saloonWallet",
          "type": "address"
        }
      ],
      "name": "collectSaloonProfits",
      "outputs": [
        {
          "internalType": "bool",
          "name": "",
          "type": "bool"
        }
      ],
      "stateMutability": "nonpayable",
      "type": "function"
    },
    {
      "inputs": [
        {
          "internalType": "uint256",
          "name": "_pid",
          "type": "uint256"
        },
        {
          "internalType": "uint256",
          "name": "_endTime",
          "type": "uint256"
        }
      ],
      "name": "extendReferralPeriod",
      "outputs": [],
      "stateMutability": "nonpayable",
      "type": "function"
    },
    {
      "inputs": [],
      "name": "initialize",
      "outputs": [],
      "stateMutability": "nonpayable",
      "type": "function"
    },
    {
      "inputs": [
        {
          "internalType": "address",
          "name": "",
          "type": "address"
        }
      ],
      "name": "minTokenStakeAmount",
      "outputs": [
        {
          "internalType": "uint256",
          "name": "",
          "type": "uint256"
        }
      ],
      "stateMutability": "view",
      "type": "function"
    },
    {
      "inputs": [
        {
          "internalType": "uint256",
          "name": "",
          "type": "uint256"
        }
      ],
      "name": "nftInfo",
      "outputs": [
        {
          "internalType": "uint256",
          "name": "pid",
          "type": "uint256"
        },
        {
          "internalType": "uint256",
          "name": "amount",
          "type": "uint256"
        },
        {
          "internalType": "uint256",
          "name": "xDelta",
          "type": "uint256"
        },
        {
          "internalType": "uint256",
          "name": "apy",
          "type": "uint256"
        },
        {
          "internalType": "uint256",
          "name": "unclaimed",
          "type": "uint256"
        },
        {
          "internalType": "uint256",
          "name": "lastClaimedTime",
          "type": "uint256"
        },
        {
          "internalType": "uint256",
          "name": "timelock",
          "type": "uint256"
        },
        {
          "internalType": "uint256",
          "name": "timelimit",
          "type": "uint256"
        },
        {
          "internalType": "bool",
          "name": "hasUnstaked",
          "type": "bool"
        }
      ],
      "stateMutability": "view",
      "type": "function"
    },
    {
      "inputs": [],
      "name": "owner",
      "outputs": [
        {
          "internalType": "address",
          "name": "",
          "type": "address"
        }
      ],
      "stateMutability": "view",
      "type": "function"
    },
    {
      "inputs": [
        {
          "internalType": "uint256",
          "name": "",
          "type": "uint256"
        },
        {
          "internalType": "uint256",
          "name": "",
          "type": "uint256"
        }
      ],
      "name": "pidNFTList",
      "outputs": [
        {
          "internalType": "uint256",
          "name": "",
          "type": "uint256"
        }
      ],
      "stateMutability": "view",
      "type": "function"
    },
    {
      "inputs": [
        {
          "internalType": "uint256",
          "name": "",
          "type": "uint256"
        },
        {
          "internalType": "bytes32",
          "name": "",
          "type": "bytes32"
        }
      ],
      "name": "pidStrategies",
      "outputs": [
        {
          "internalType": "address",
          "name": "",
          "type": "address"
        }
      ],
      "stateMutability": "view",
      "type": "function"
    },
    {
      "inputs": [
        {
          "internalType": "uint256",
          "name": "",
          "type": "uint256"
        }
      ],
      "name": "poolInfo",
      "outputs": [
        {
          "components": [
            {
              "internalType": "contract IERC20",
              "name": "token",
              "type": "address"
            },
            {
              "internalType": "uint8",
              "name": "tokenDecimals",
              "type": "uint8"
            },
            {
              "internalType": "uint16",
              "name": "apy",
              "type": "uint16"
            },
            {
              "internalType": "address",
              "name": "projectWallet",
              "type": "address"
            },
            {
              "internalType": "string",
              "name": "projectName",
              "type": "string"
            },
            {
              "internalType": "uint256",
              "name": "poolCap",
              "type": "uint256"
            },
            {
              "internalType": "uint256",
              "name": "totalStaked",
              "type": "uint256"
            },
            {
              "internalType": "uint256",
              "name": "scalingMultiplier",
              "type": "uint256"
            }
          ],
          "internalType": "struct ISaloon.GeneralInfo",
          "name": "generalInfo",
          "type": "tuple"
        },
        {
          "components": [
            {
              "internalType": "uint256",
              "name": "projectDepositHeld",
              "type": "uint256"
            },
            {
              "internalType": "uint256",
              "name": "projectDepositInStrategy",
              "type": "uint256"
            }
          ],
          "internalType": "struct ISaloon.DepositInfo",
          "name": "depositInfo",
          "type": "tuple"
        },
        {
          "components": [
            {
              "internalType": "uint256",
              "name": "premiumBalance",
              "type": "uint256"
            },
            {
              "internalType": "uint256",
              "name": "premiumAvailable",
              "type": "uint256"
            }
          ],
          "internalType": "struct ISaloon.PremiumInfo",
          "name": "premiumInfo",
          "type": "tuple"
        },
        {
          "components": [
            {
              "internalType": "uint256",
              "name": "timelock",
              "type": "uint256"
            },
            {
              "internalType": "uint256",
              "name": "timeLimit",
              "type": "uint256"
            },
            {
              "internalType": "uint256",
              "name": "withdrawalScheduledAmount",
              "type": "uint256"
            },
            {
              "internalType": "bool",
              "name": "withdrawalExecuted",
              "type": "bool"
            }
          ],
          "internalType": "struct ISaloon.TimelockInfo",
          "name": "poolTimelock",
          "type": "tuple"
        },
        {
          "components": [
            {
              "internalType": "uint256",
              "name": "currentX",
              "type": "uint256"
            },
            {
              "internalType": "uint256",
              "name": "currentY",
              "type": "uint256"
            },
            {
              "internalType": "uint256",
              "name": "totalSupply",
              "type": "uint256"
            },
            {
              "internalType": "uint256[]",
              "name": "unstakedTokens",
              "type": "uint256[]"
            }
          ],
          "internalType": "struct ISaloon.CurveInfo",
          "name": "curveInfo",
          "type": "tuple"
        },
        {
          "components": [
            {
              "internalType": "address",
              "name": "referrer",
              "type": "address"
            },
            {
              "internalType": "uint256",
              "name": "referralFee",
              "type": "uint256"
            },
            {
              "internalType": "uint256",
              "name": "endTime",
              "type": "uint256"
            }
          ],
          "internalType": "struct ISaloon.ReferralInfo",
          "name": "referralInfo",
          "type": "tuple"
        },
        {
          "internalType": "uint256",
          "name": "assessmentPeriodEnd",
          "type": "uint256"
        },
        {
          "internalType": "uint256",
          "name": "freezeTime",
          "type": "uint256"
        },
        {
          "internalType": "bool",
          "name": "isActive",
          "type": "bool"
        }
      ],
      "stateMutability": "view",
      "type": "function"
    },
    {
      "inputs": [
        {
          "internalType": "address",
          "name": "_token",
          "type": "address"
        },
        {
          "internalType": "uint256",
          "name": "_amount",
          "type": "uint256"
        }
      ],
      "name": "receiveStrategyYield",
      "outputs": [],
      "stateMutability": "nonpayable",
      "type": "function"
    },
    {
      "inputs": [
        {
          "internalType": "address",
          "name": "",
          "type": "address"
        },
        {
          "internalType": "address",
          "name": "",
          "type": "address"
        }
      ],
      "name": "referralBalances",
      "outputs": [
        {
          "internalType": "uint256",
          "name": "",
          "type": "uint256"
        }
      ],
      "stateMutability": "view",
      "type": "function"
    },
    {
      "inputs": [],
      "name": "saloonBounty",
      "outputs": [
        {
          "internalType": "contract ISaloonBounty",
          "name": "",
          "type": "address"
        }
      ],
      "stateMutability": "view",
      "type": "function"
    },
    {
      "inputs": [
        {
          "internalType": "address",
          "name": "",
          "type": "address"
        }
      ],
      "name": "saloonBountyProfit",
      "outputs": [
        {
          "internalType": "uint256",
          "name": "",
          "type": "uint256"
        }
      ],
      "stateMutability": "view",
      "type": "function"
    },
    {
      "inputs": [],
      "name": "saloonManager",
      "outputs": [
        {
          "internalType": "contract ISaloonManager",
          "name": "",
          "type": "address"
        }
      ],
      "stateMutability": "view",
      "type": "function"
    },
    {
      "inputs": [
        {
          "internalType": "address",
          "name": "",
          "type": "address"
        }
      ],
      "name": "saloonPremiumProfit",
      "outputs": [
        {
          "internalType": "uint256",
          "name": "",
          "type": "uint256"
        }
      ],
      "stateMutability": "view",
      "type": "function"
    },
    {
      "inputs": [],
      "name": "saloonProjectPortal",
      "outputs": [
        {
          "internalType": "contract ISaloonProjectPortal",
          "name": "",
          "type": "address"
        }
      ],
      "stateMutability": "view",
      "type": "function"
    },
    {
      "inputs": [
        {
          "internalType": "address",
          "name": "",
          "type": "address"
        }
      ],
      "name": "saloonStrategyProfit",
      "outputs": [
        {
          "internalType": "uint256",
          "name": "",
          "type": "uint256"
        }
      ],
      "stateMutability": "view",
      "type": "function"
    },
    {
      "inputs": [],
      "name": "saloonView",
      "outputs": [
        {
          "internalType": "contract ISaloonView",
          "name": "",
          "type": "address"
        }
      ],
      "stateMutability": "view",
      "type": "function"
    },
    {
      "inputs": [
        {
          "internalType": "contract ISaloonManager",
          "name": "_saloonManager",
          "type": "address"
        },
        {
          "internalType": "contract ISaloonProjectPortal",
          "name": "_saloonProjectPortal",
          "type": "address"
        },
        {
          "internalType": "contract ISaloonBounty",
          "name": "_saloonBounty",
          "type": "address"
        }
      ],
      "name": "setImplementations",
      "outputs": [],
      "stateMutability": "nonpayable",
      "type": "function"
    },
    {
      "inputs": [
        {
          "internalType": "address",
          "name": "_strategyFactory",
          "type": "address"
        }
      ],
      "name": "setStrategyFactory",
      "outputs": [],
      "stateMutability": "nonpayable",
      "type": "function"
    },
    {
      "inputs": [
        {
          "internalType": "uint256",
          "name": "_pid",
          "type": "uint256"
        }
      ],
      "name": "startAssessmentPeriod",
      "outputs": [],
      "stateMutability": "nonpayable",
      "type": "function"
    },
    {
      "inputs": [
        {
          "internalType": "address",
          "name": "",
          "type": "address"
        }
      ],
      "name": "strategyAddressToPid",
      "outputs": [
        {
          "internalType": "uint256",
          "name": "",
          "type": "uint256"
        }
      ],
      "stateMutability": "view",
      "type": "function"
    },
    {
      "inputs": [],
      "name": "strategyFactory",
      "outputs": [
        {
          "internalType": "contract IStrategyFactory",
          "name": "",
          "type": "address"
        }
      ],
      "stateMutability": "view",
      "type": "function"
    },
    {
      "inputs": [
        {
          "internalType": "address",
          "name": "",
          "type": "address"
        }
      ],
      "name": "tokenWhitelist",
      "outputs": [
        {
          "internalType": "bool",
          "name": "",
          "type": "bool"
        }
      ],
      "stateMutability": "view",
      "type": "function"
    },
    {
      "inputs": [
        {
          "internalType": "address",
          "name": "newOwner",
          "type": "address"
        }
      ],
      "name": "transferOwnership",
      "outputs": [],
      "stateMutability": "nonpayable",
      "type": "function"
    },
    {
      "inputs": [
        {
          "internalType": "address",
          "name": "_token",
          "type": "address"
        },
        {
          "internalType": "bool",
          "name": "_whitelisted",
          "type": "bool"
        },
        {
          "internalType": "uint256",
          "name": "_minStakeAmount",
          "type": "uint256"
        }
      ],
      "name": "updateTokenWhitelist",
      "outputs": [
        {
          "internalType": "bool",
          "name": "",
          "type": "bool"
        }
      ],
      "stateMutability": "nonpayable",
      "type": "function"
    },
    {
      "inputs": [
        {
          "internalType": "uint256",
          "name": "_pid",
          "type": "uint256"
        }
      ],
      "name": "viewBountyBalance",
      "outputs": [
        {
          "internalType": "uint256",
          "name": "",
          "type": "uint256"
        }
      ],
      "stateMutability": "view",
      "type": "function"
    }
  ],
  "bytecode": {
    "object": "0x608060405234801561001057600080fd5b50612712806100206000396000f3fe608060405234801561001057600080fd5b506004361061021c5760003560e01c80637992389811610125578063a089a520116100ad578063ca0061481161007c578063ca006148146105a9578063cf9564b9146105c9578063e45abd0f146105dc578063ecd7fbed146105fc578063f2fde38b1461060f57600080fd5b8063a089a5201461055b578063a5352bfd1461056e578063b20b242914610581578063b842e87f146105a157600080fd5b80639300d238116100f45780639300d238146104ef578063957deecc1461050257806396ea48e8146105225780639ef35710146105355780639f224f351461054857600080fd5b806379923898146104b05780638129fc1c146104c3578063836ef1fa146104cb5780638da5cb5b146104de57600080fd5b80632dbe051e116101a8578063583fc43911610177578063583fc43914610434578063598d17bf146104475780635de406dc146104675780636ac6d8121461047a578063753d75631461048d57600080fd5b80632dbe051e146103e657806332fce602146103f9578063394587231461040c5780633e8888d91461042c57600080fd5b80631aebcecb116101ef5780631aebcecb146102e65780631f8bc790146102fa578063220e11241461039d578063277fd2a1146103b05780632cb0dfcc146103c357600080fd5b8063011b408b14610221578063074ecf031461025f5780630a07f543146102ab5780631526fe27146102be575b600080fd5b61024c61022f366004611f9c565b600a60209081526000928352604080842090915290825290205481565b6040519081526020015b60405180910390f35b61029361026d366004611fd5565b600c6020908152600092835260408084209091529082529020546001600160a01b031681565b6040516001600160a01b039091168152602001610256565b600354610293906001600160a01b031681565b6102d16102cc366004611ff7565b610622565b604051610256999897969594939291906120cb565b6102f86102f4366004612200565b5050565b005b610357610308366004611ff7565b6005602081905260009182526040909120805460018201546002830154600384015460048501549585015460068601546007870154600890970154959794969395929493919290919060ff1689565b60408051998a5260208a0198909852968801959095526060870193909352608086019190915260a085015260c084015260e0830152151561010082015261012001610256565b600054610293906001600160a01b031681565b600154610293906001600160a01b031681565b6103d66103d136600461223a565b610883565b6040519015158152602001610256565b6103d66103f4366004611ff7565b610a5a565b61024c610407366004612291565b610a89565b61024c61041a36600461238a565b60116020526000908152604090205481565b6103d6610ebf565b6102f8610442366004611ff7565b610f20565b61024c61045536600461238a565b60096020526000908152604090205481565b6102f8610475366004611fd5565b610f60565b61024c610488366004611ff7565b610fea565b6103d661049b36600461238a565b600f6020526000908152604090205460ff1681565b600254610293906001600160a01b031681565b6102f861129b565b61024c6104d9366004611fd5565b6113ac565b6045546001600160a01b0316610293565b6102f86104fd3660046123a7565b6113e2565b61024c61051036600461238a565b600e6020526000908152604090205481565b61024c610530366004611fd5565b611429565b600b54610293906001600160a01b031681565b610293610556366004611ff7565b61145a565b6103d661056936600461238a565b611484565b6102f861057c36600461238a565b61152f565b61024c61058f366004611ff7565b600d6020526000908152604090205481565b6102f8611559565b61024c6105b736600461238a565b60086020526000908152604090205481565b6103d66105d7366004611f9c565b6115d9565b61024c6105ea36600461238a565b60076020526000908152604090205481565b6103d661060a36600461238a565b611670565b6102f861061d36600461238a565b6116db565b6004818154811061063257600080fd5b60009182526020918290206040805161010081018252601890930290910180546001600160a01b03808216855260ff600160a01b8304169585019590955261ffff600160a81b9091041691830191909152600181015490921660608201526002820180549293509091839160808401916106ab906123f2565b80601f01602080910402602001604051908101604052809291908181526020018280546106d7906123f2565b80156107245780601f106106f957610100808354040283529160200191610724565b820191906000526020600020905b81548152906001019060200180831161070757829003601f168201915b50505091835250506003820154602080830191909152600483015460408084019190915260059093015460609283015282518084018452600686015481526007860154818301528351808501855260088701548152600987015481840152845160808082018752600a8901548252600b89015482860152600c89015482880152600d89015460ff1615158287015286519081018752600e890180548252600f8a01548287015260108a01548289015260118a018054895181890281018901909a52808a52999a959994989397959692959194918601939290919083018282801561082d57602002820191906000526020600020905b815481526020019060010190808311610819575b5050509190925250506040805160608101825260128501546001600160a01b0316815260138501546020820152601485015491810191909152601584015460168501546017909501549394919390925060ff1689565b600061088d61176a565b6001600160a01b0384166000818152600f6020526040808220805460ff191687151590811790915590519092917f99795d51e5a8804307721456a7a9c2f0d7421f719d46a46d36e91fee7c85aa7691a3821561094457506010805460018082019092557f1b6847dc741a1b0cd08d278845f9d819d87b734759afb55fe2de5cb82a9ae6720180546001600160a01b0319166001600160a01b0386169081179091556000908152601160205260409020829055610a53565b60105460005b81811015610a50576000601082815481106109675761096761242c565b6000918252602090912001546001600160a01b03908116915087168103610a3f576010610995600185612458565b815481106109a5576109a561242c565b600091825260209091200154601080546001600160a01b0390921691849081106109d1576109d161242c565b9060005260206000200160006101000a8154816001600160a01b0302191690836001600160a01b031602179055506010805480610a1057610a1061246b565b600082815260209020810160001990810180546001600160a01b03191690550190555060019250610a53915050565b50610a4981612481565b905061094a565b50505b9392505050565b6000610a646117c4565b610a6c61176a565b610a7782600061181d565b506001610a846001607855565b919050565b6000610a9361176a565b6001600160a01b0387166000908152600f602052604090205460ff16610af85760405162461bcd60e51b81526020600482015260156024820152741d1bdad95b881b9bdd081dda1a5d195b1a5cdd1959605a1b60448201526064015b60405180910390fd5b611388831115610b425760405162461bcd60e51b81526020600482015260156024820152740e4cacccae4e4c2d840cccaca40e8dede40d0d2ced605b1b6044820152606401610aef565b60408051600481526024810182526020810180516001600160e01b031663313ce56760e01b17905290516000916001600160a01b038a1691610b84919061249a565b600060405180830381855afa9150503d8060008114610bbf576040519150601f19603f3d011682016040523d82523d6000602084013e610bc4565b606091505b50915050600081806020019051810190610bde91906124b6565b905060068160ff161015610c2d5760405162461bcd60e51b815260206004820152601660248201527524b73b30b634b2103232b1b4b6b0b6103932ba3ab93760511b6044820152606401610aef565b610c35611de8565b80516001600160a01b03808c16909152815160ff80851660209283015283518c8416606091820152845160809081018d905260a0860180518d87169052805185018c90525160409081018b9052600480546001810182556000919091528751805160189092027f8a35acfbc15ff81a39ae7d344fd709f28e8600b4aa8c65c6b64bfe7fe36bd19b81018054988301519483015161ffff16600160a81b0261ffff60a81b1995909816600160a01b026001600160a81b0319909916938a16939093179790971792909216949094178455918201517f8a35acfbc15ff81a39ae7d344fd709f28e8600b4aa8c65c6b64bfe7fe36bd19c85018054919096166001600160a01b03199190911617909455928301518493919283917f8a35acfbc15ff81a39ae7d344fd709f28e8600b4aa8c65c6b64bfe7fe36bd19d90910190610d7b9082612527565b5060a0820151600382015560c0820151600482015560e0909101516005909101556020828101518051600684015581015160078301556040808401518051600885015582015160098401556060808501518051600a86015580840151600b86015580830151600c860155810151600d8501805460ff191691151591909117905560808501518051600e860190815581850151600f8701559281015160108601559081015180519193610e3592601187019290910190611f1c565b50505060a082015180516012830180546001600160a01b0319166001600160a01b039092169190911790556020810151601383015560400151601482015560c0820151601582015560e08201516016820155610100909101516017909101805460ff1916911515919091179055600454610eb190600190612458565b9a9950505050505050505050565b601054600090815b81811015610f1757600060108281548110610ee457610ee461242c565b6000918252602090912001546001600160a01b03169050610f0481611484565b505080610f1090612481565b9050610ec7565b50600191505090565b610f2861176a565b610f3542621275006125e7565b60048281548110610f4857610f4861242c565b90600052602060002090601802016015018190555050565b610f6861176a565b600060048381548110610f7d57610f7d61242c565b9060005260206000209060180201905080601201600201548211610fe35760405162461bcd60e51b815260206004820152601860248201527f63616e206f6e6c7920657874656e6420656e642074696d6500000000000000006044820152606401610aef565b6014015550565b600080600483815481106110005761100061242c565b6000918252602090912060408051610220810190915260189092020180546001600160a01b038082166101208501908152600160a01b830460ff16610140860152600160a81b90920461ffff1661016085015260018301541661018084015260028201805484929184916101a08501919061107a906123f2565b80601f01602080910402602001604051908101604052809291908181526020018280546110a6906123f2565b80156110f35780601f106110c8576101008083540402835291602001916110f3565b820191906000526020600020905b8154815290600101906020018083116110d657829003601f168201915b505050918352505060038201546020808301919091526004830154604080840191909152600590930154606092830152928452815180830183526006860154815260078601548185015284840152815180830183526008860154815260098601548185015284830152815160808082018452600a8701548252600b87015482860152600c87015482850152600d87015460ff161515828401528583019190915282518082018452600e870180548252600f8801548287015260108801548286015260118801805486518189028101890190975280875293909701969195909493860193929083018282801561120757602002820191906000526020600020905b8154815260200190600101908083116111f3575b505050919092525050508152604080516060808201835260128501546001600160a01b0316825260138501546020838101919091526014860154838501528085019290925260158501549284019290925260168401549183019190915260179092015460ff1615156080909101528181015190810151905191925061128b916125e7565b815160c00151610a5391906125e7565b601254610100900460ff16158080156112bb5750601254600160ff909116105b806112d55750303b1580156112d5575060125460ff166001145b6113385760405162461bcd60e51b815260206004820152602e60248201527f496e697469616c697a61626c653a20636f6e747261637420697320616c72656160448201526d191e481a5b9a5d1a585b1a5e995960921b6064820152608401610aef565b6012805460ff19166001179055801561135b576012805461ff0019166101001790555b611363611a39565b80156113a9576012805461ff0019169055604051600181527f7f26b83ff96e1f2b6a682f133852f6798a09c465da95921460cefb38474024989060200160405180910390a15b50565b60006301e1338061271062093a806113c485876125fa565b6113ce91906125fa565b6113d89190612611565b610a539190612611565b6113ea61176a565b600080546001600160a01b039485166001600160a01b031991821617909155600180549385169382169390931790925560028054919093169116179055565b6006602052816000526040600020818154811061144557600080fd5b90600052602060002001600091509150505481565b6010818154811061146a57600080fd5b6000918252602090912001546001600160a01b0316905081565b600061148e6117c4565b336000908152600a602090815260408083206001600160a01b0386168452909152902054801561152057336000818152600a602090815260408083206001600160a01b03881680855292528220919091556114e99183611a68565b5060405181815233907fbf7aaef98dccc47249def450ef0fd30757d553648a28fa7cd56e3b2b052724949060200160405180910390a25b6001915050610a846001607855565b61153761176a565b600b80546001600160a01b0319166001600160a01b0392909216919091179055565b6046546001600160a01b031633146115c25760405162461bcd60e51b815260206004820152602660248201527f6f6e6c792070656e64696e67206f776e65722063616e2061636365707420747260448201526530b739b332b960d11b6064820152608401610aef565b6046546115d7906001600160a01b0316611ace565b565b60006115e361176a565b6001600160a01b0383166000908152600860209081526040808320546009835281842054600790935290832054909161161b916125e7565b61162591906125e7565b6001600160a01b0385166000818152600760209081526040808320839055600882528083208390556009909152812055909150611663908483611a68565b5060019150505b92915050565b600061167a61176a565b60105460005b818110156116d15760006010828154811061169d5761169d61242c565b6000918252602090912001546001600160a01b031690506116be81866115d9565b5050806116ca90612481565b9050611680565b5060019392505050565b6116e361176a565b6001600160a01b0381166117485760405162461bcd60e51b815260206004820152602660248201527f4f776e61626c653a206e6577206f776e657220697320746865207a65726f206160448201526564647265737360d01b6064820152608401610aef565b604680546001600160a01b0319166001600160a01b0392909216919091179055565b6045546001600160a01b031633146115d75760405162461bcd60e51b815260206004820181905260248201527f4f776e61626c653a2063616c6c6572206973206e6f7420746865206f776e65726044820152606401610aef565b6002607854036118165760405162461bcd60e51b815260206004820152601f60248201527f5265656e7472616e637947756172643a207265656e7472616e742063616c6c006044820152606401610aef565b6002607855565b6000600483815481106118325761183261242c565b6000918252602082206018919091020160088101546003820154825492945085926118689190600160a81b900461ffff166113ac565b6118729190612458565b61187c91906125e7565b6001830154835491925061189e916001600160a01b0390811691163084611b2b565b50808260080160000160008282546118b691906125e7565b90915550600090506127106118cd6103e8846125fa565b6118d79190612611565b60148401546013850154601286015460405163fc76fff360e01b815260048101859052602481019390935260448301919091526001600160a01b031660648201529091506000908190819073__$4defa815a6c8401eda00ac6be9b95d3cdb$__9063fc76fff390608401606060405180830381865af415801561195e573d6000803e3d6000fd5b505050506040513d601f19601f820116820180604052508101906119829190612633565b885492955090935091506001600160a01b03166119a0828285611b72565b6001600160a01b038116600090815260086020526040812080548692906119c89084906125e7565b90915550600090506119da8688612458565b9050808860080160010160008282546119f391906125e7565b90915550506040518781528a907fadb049ad2d09be3db90459a16aef1ad0a4d89e8fdcc1ade9429d6cc55abbcd2b9060200160405180910390a250505050505050505050565b601254610100900460ff16611a605760405162461bcd60e51b8152600401610aef90612661565b6115d7611bc3565b6040516001600160a01b0383166024820152604481018290526000906116d190859063a9059cbb60e01b906064015b60408051601f198184030181529190526020810180516001600160e01b03166001600160e01b031990931692909217909152611bf3565b604580546001600160a01b038381166001600160a01b03198084168217909455604680549094169093556040519116919082907f8be0079c531659141344cd1fd0a4f28419497f9722a3daafe3b4186f6b6457e090600090a35050565b6040516001600160a01b0380851660248301528316604482015260648101829052600090611b669086906323b872dd60e01b90608401611a97565b5060015b949350505050565b6001600160a01b03831615611bbe576001600160a01b038084166000908152600a6020908152604080832093861683529290529081208054839290611bb89084906125e7565b90915550505b505050565b601254610100900460ff16611bea5760405162461bcd60e51b8152600401610aef90612661565b6115d733611ace565b6000611c48826040518060400160405280602081526020017f5361666545524332303a206c6f772d6c6576656c2063616c6c206661696c6564815250856001600160a01b0316611cc59092919063ffffffff16565b805190915015611bbe5780806020019051810190611c6691906126ac565b611bbe5760405162461bcd60e51b815260206004820152602a60248201527f5361666545524332303a204552433230206f7065726174696f6e20646964206e6044820152691bdd081cdd58d8d9595960b21b6064820152608401610aef565b6060611b6a848460008585600080866001600160a01b03168587604051611cec919061249a565b60006040518083038185875af1925050503d8060008114611d29576040519150601f19603f3d011682016040523d82523d6000602084013e611d2e565b606091505b5091509150611d3f87838387611d4a565b979650505050505050565b60608315611db9578251600003611db2576001600160a01b0385163b611db25760405162461bcd60e51b815260206004820152601d60248201527f416464726573733a2063616c6c20746f206e6f6e2d636f6e74726163740000006044820152606401610aef565b5081611b6a565b611b6a8383815115611dce5781518083602001fd5b8060405162461bcd60e51b8152600401610aef91906126c9565b6040805161022081019091526000610120820181815261014083018290526101608301829052610180830182905260606101a08401526101c083018290526101e0830182905261020083019190915281908152602001611e5b604051806040016040528060008152602001600081525090565b8152602001611e7d604051806040016040528060008152602001600081525090565b8152602001611eaf60405180608001604052806000815260200160008152602001600081526020016000151581525090565b8152602001611edf6040518060800160405280600081526020016000815260200160008152602001606081525090565b8152604080516060810182526000808252602082810182905292820152910190815260200160008152602001600081526020016000151581525090565b828054828255906000526020600020908101928215611f57579160200282015b82811115611f57578251825591602001919060010190611f3c565b50611f63929150611f67565b5090565b5b80821115611f635760008155600101611f68565b6001600160a01b03811681146113a957600080fd5b8035610a8481611f7c565b60008060408385031215611faf57600080fd5b8235611fba81611f7c565b91506020830135611fca81611f7c565b809150509250929050565b60008060408385031215611fe857600080fd5b50508035926020909101359150565b60006020828403121561200957600080fd5b5035919050565b60005b8381101561202b578181015183820152602001612013565b50506000910152565b6000815180845261204c816020860160208601612010565b601f01601f19169290920160200192915050565b60006080830182518452602080840151818601526040840151604086015260608401516080606087015282815180855260a0880191508383019450600092505b808310156120c057845182529383019360019290920191908301906120a0565b509695505050505050565b6102008082528a516001600160a01b039081169183019190915260208b015160ff1661022083015260408b015161ffff1661024083015260608b01511661026082015260808a015161010061028083015260009061212d610300840182612034565b905060a08c01516102a084015260c08c01516102c084015260e08c01516102e0840152612167602084018c80518252602090810151910152565b8951606084015260208a01516080840152885160a0840152602089015160c0840152604089015160e0840152606089015115156101008401528281036101208401526121b38189612060565b87516001600160a01b03166101408501526020880151610160850152604088015161018085015291506121e39050565b846101a0830152836101c0830152610eb16101e083018415159052565b6000806040838503121561221357600080fd5b823561221e81611f7c565b946020939093013593505050565b80151581146113a957600080fd5b60008060006060848603121561224f57600080fd5b833561225a81611f7c565b9250602084013561226a8161222c565b929592945050506040919091013590565b634e487b7160e01b600052604160045260246000fd5b60008060008060008060c087890312156122aa57600080fd5b86356122b581611f7c565b955060208701356122c581611f7c565b9450604087013567ffffffffffffffff808211156122e257600080fd5b818901915089601f8301126122f657600080fd5b8135818111156123085761230861227b565b604051601f8201601f19908116603f011681019083821181831017156123305761233061227b565b816040528281528c602084870101111561234957600080fd5b82602086016020830137600060208483010152809850505050505061237060608801611f91565b92506080870135915060a087013590509295509295509295565b60006020828403121561239c57600080fd5b8135610a5381611f7c565b6000806000606084860312156123bc57600080fd5b83356123c781611f7c565b925060208401356123d781611f7c565b915060408401356123e781611f7c565b809150509250925092565b600181811c9082168061240657607f821691505b60208210810361242657634e487b7160e01b600052602260045260246000fd5b50919050565b634e487b7160e01b600052603260045260246000fd5b634e487b7160e01b600052601160045260246000fd5b8181038181111561166a5761166a612442565b634e487b7160e01b600052603160045260246000fd5b60006001820161249357612493612442565b5060010190565b600082516124ac818460208701612010565b9190910192915050565b6000602082840312156124c857600080fd5b815160ff81168114610a5357600080fd5b601f821115611bbe57600081815260208120601f850160051c810160208610156125005750805b601f850160051c820191505b8181101561251f5782815560010161250c565b505050505050565b815167ffffffffffffffff8111156125415761254161227b565b6125558161254f84546123f2565b846124d9565b602080601f83116001811461258a57600084156125725750858301515b600019600386901b1c1916600185901b17855561251f565b600085815260208120601f198616915b828110156125b95788860151825594840194600190910190840161259a565b50858210156125d75787850151600019600388901b60f8161c191681555b5050505050600190811b01905550565b8082018082111561166a5761166a612442565b808202811582820484141761166a5761166a612442565b60008261262e57634e487b7160e01b600052601260045260246000fd5b500490565b60008060006060848603121561264857600080fd5b835192506020840151915060408401516123e781611f7c565b6020808252602b908201527f496e697469616c697a61626c653a20636f6e7472616374206973206e6f74206960408201526a6e697469616c697a696e6760a81b606082015260800190565b6000602082840312156126be57600080fd5b8151610a538161222c565b602081526000610a53602083018461203456fea26469706673582212203039087283434befcd4c69ee6b74d9b16ccf287cd5f251d89fdf40cdc317cb1b64736f6c63430008110033",
    "linkReferences": {
      "src/lib/SaloonLib.sol": {
        "SaloonLib": [
          {
            "start": 6468,
            "length": 20
          }
        ]
      }
    }
  },
  "methodIdentifiers": {
    "acceptOwnershipTransfer()": "b842e87f",
    "activeStrategies(uint256)": "b20b2429",
    "activeTokens(uint256)": "9f224f35",
    "addNewBountyPool(address,address,string,address,uint256,uint256)": "32fce602",
    "billPremium(uint256)": "2dbe051e",
    "calcRequiredPremiumBalancePerPeriod(uint256,uint256)": "836ef1fa",
    "collectAllReferralProfits()": "3e8888d9",
    "collectAllSaloonProfits(address)": "ecd7fbed",
    "collectReferralProfit(address)": "a089a520",
    "collectSaloonProfits(address,address)": "cf9564b9",
    "extendReferralPeriod(uint256,uint256)": "5de406dc",
    "initialize()": "8129fc1c",
    "minTokenStakeAmount(address)": "39458723",
    "nftInfo(uint256)": "1f8bc790",
    "owner()": "8da5cb5b",
    "pidNFTList(uint256,uint256)": "96ea48e8",
    "pidStrategies(uint256,bytes32)": "074ecf03",
    "poolInfo(uint256)": "1526fe27",
    "receiveStrategyYield(address,uint256)": "1aebcecb",
    "referralBalances(address,address)": "011b408b",
    "saloonBounty()": "79923898",
    "saloonBountyProfit(address)": "e45abd0f",
    "saloonManager()": "220e1124",
    "saloonPremiumProfit(address)": "ca006148",
    "saloonProjectPortal()": "277fd2a1",
    "saloonStrategyProfit(address)": "598d17bf",
    "saloonView()": "0a07f543",
    "setImplementations(address,address,address)": "9300d238",
    "setStrategyFactory(address)": "a5352bfd",
    "startAssessmentPeriod(uint256)": "583fc439",
    "strategyAddressToPid(address)": "957deecc",
    "strategyFactory()": "9ef35710",
    "tokenWhitelist(address)": "753d7563",
    "transferOwnership(address)": "f2fde38b",
    "updateTokenWhitelist(address,bool,uint256)": "2cb0dfcc",
    "viewBountyBalance(uint256)": "6ac6d812"
  },
  "id": 55
}