{
  "abi": [
    {
      "anonymous": false,
      "inputs": [
        {
          "indexed": false,
          "internalType": "address",
          "name": "previousAdmin",
          "type": "address"
        },
        {
          "indexed": false,
          "internalType": "address",
          "name": "newAdmin",
          "type": "address"
        }
      ],
      "name": "AdminChanged",
      "type": "event"
    },
    {
      "anonymous": false,
      "inputs": [
        {
          "indexed": true,
          "internalType": "address",
          "name": "beacon",
          "type": "address"
        }
      ],
      "name": "BeaconUpgraded",
      "type": "event"
    },
    {
      "anonymous": false,
      "inputs": [
        {
          "indexed": true,
          "internalType": "uint256",
          "name": "pid",
          "type": "uint256"
        },
        {
          "indexed": false,
          "internalType": "uint256",
          "name": "oldAmount",
          "type": "uint256"
        },
        {
          "indexed": false,
          "internalType": "uint256",
          "name": "newAmount",
          "type": "uint256"
        }
      ],
      "name": "BountyBalanceChanged",
      "type": "event"
    },
    {
      "anonymous": false,
      "inputs": [
        {
          "indexed": true,
          "internalType": "address",
          "name": "hunter",
          "type": "address"
        },
        {
          "indexed": true,
          "internalType": "address",
          "name": "token",
          "type": "address"
        },
        {
          "indexed": false,
          "internalType": "uint256",
          "name": "amount",
          "type": "uint256"
        }
      ],
      "name": "BountyPaid",
      "type": "event"
    },
    {
      "anonymous": false,
      "inputs": [
        {
          "indexed": false,
          "internalType": "uint8",
          "name": "version",
          "type": "uint8"
        }
      ],
      "name": "Initialized",
      "type": "event"
    },
    {
      "anonymous": false,
      "inputs": [
        {
          "indexed": true,
          "internalType": "uint256",
          "name": "pid",
          "type": "uint256"
        },
        {
          "indexed": true,
          "internalType": "address",
          "name": "token",
          "type": "address"
        },
        {
          "indexed": false,
          "internalType": "uint256",
          "name": "tokenDecimals",
          "type": "uint256"
        }
      ],
      "name": "NewBountyDeployed",
      "type": "event"
    },
    {
      "anonymous": false,
      "inputs": [
        {
          "indexed": true,
          "internalType": "address",
          "name": "previousOwner",
          "type": "address"
        },
        {
          "indexed": true,
          "internalType": "address",
          "name": "newOwner",
          "type": "address"
        }
      ],
      "name": "OwnershipTransferred",
      "type": "event"
    },
    {
      "anonymous": false,
      "inputs": [
        {
          "indexed": true,
          "internalType": "uint256",
          "name": "pid",
          "type": "uint256"
        },
        {
          "indexed": false,
          "internalType": "uint256",
          "name": "amount",
          "type": "uint256"
        }
      ],
      "name": "PremiumBilled",
      "type": "event"
    },
    {
      "anonymous": false,
      "inputs": [
        {
          "indexed": true,
          "internalType": "address",
          "name": "user",
          "type": "address"
        },
        {
          "indexed": true,
          "internalType": "uint256",
          "name": "pid",
          "type": "uint256"
        },
        {
          "indexed": false,
          "internalType": "uint256",
          "name": "amount",
          "type": "uint256"
        }
      ],
      "name": "Staked",
      "type": "event"
    },
    {
      "anonymous": false,
      "inputs": [
        {
          "indexed": true,
          "internalType": "address",
          "name": "user",
          "type": "address"
        },
        {
          "indexed": true,
          "internalType": "uint256",
          "name": "pid",
          "type": "uint256"
        },
        {
          "indexed": false,
          "internalType": "uint256",
          "name": "amount",
          "type": "uint256"
        }
      ],
      "name": "Unstaked",
      "type": "event"
    },
    {
      "anonymous": false,
      "inputs": [
        {
          "indexed": true,
          "internalType": "address",
          "name": "implementation",
          "type": "address"
        }
      ],
      "name": "Upgraded",
      "type": "event"
    },
    {
      "anonymous": false,
      "inputs": [
        {
          "indexed": true,
          "internalType": "uint256",
          "name": "pid",
          "type": "uint256"
        },
        {
          "indexed": false,
          "internalType": "uint256",
          "name": "amount",
          "type": "uint256"
        }
      ],
      "name": "WithdrawalOrUnstakeScheduled",
      "type": "event"
    },
    {
      "anonymous": false,
      "inputs": [
        {
          "indexed": true,
          "internalType": "address",
          "name": "referrer",
          "type": "address"
        },
        {
          "indexed": false,
          "internalType": "uint256",
          "name": "amount",
          "type": "uint256"
        }
      ],
      "name": "referralPaid",
      "type": "event"
    },
    {
      "anonymous": false,
      "inputs": [
        {
          "indexed": true,
          "internalType": "address",
          "name": "token",
          "type": "address"
        },
        {
          "indexed": true,
          "internalType": "bool",
          "name": "whitelisted",
          "type": "bool"
        }
      ],
      "name": "tokenWhitelistUpdated",
      "type": "event"
    },
    {
      "inputs": [],
      "name": "acceptOwnershipTransfer",
      "outputs": [],
      "stateMutability": "nonpayable",
      "type": "function"
    },
    {
      "inputs": [
        {
          "internalType": "uint256",
          "name": "",
          "type": "uint256"
        }
      ],
      "name": "activeStrategies",
      "outputs": [
        {
          "internalType": "bytes32",
          "name": "",
          "type": "bytes32"
        }
      ],
      "stateMutability": "view",
      "type": "function"
    },
    {
      "inputs": [
        {
          "internalType": "uint256",
          "name": "",
          "type": "uint256"
        }
      ],
      "name": "activeTokens",
      "outputs": [
        {
          "internalType": "address",
          "name": "",
          "type": "address"
        }
      ],
      "stateMutability": "view",
      "type": "function"
    },
    {
      "inputs": [
        {
          "internalType": "address",
          "name": "_token",
          "type": "address"
        },
        {
          "internalType": "address",
          "name": "_projectWallet",
          "type": "address"
        },
        {
          "internalType": "string",
          "name": "_projectName",
          "type": "string"
        },
        {
          "internalType": "address",
          "name": "_referrer",
          "type": "address"
        },
        {
          "internalType": "uint256",
          "name": "_referralFee",
          "type": "uint256"
        },
        {
          "internalType": "uint256",
          "name": "_referralEndTime",
          "type": "uint256"
        }
      ],
      "name": "addNewBountyPool",
      "outputs": [
        {
          "internalType": "uint256",
          "name": "",
          "type": "uint256"
        }
      ],
      "stateMutability": "nonpayable",
      "type": "function"
    },
    {
      "inputs": [
        {
          "internalType": "uint256",
          "name": "_pid",
          "type": "uint256"
        }
      ],
      "name": "billPremium",
      "outputs": [
        {
          "internalType": "bool",
          "name": "",
          "type": "bool"
        }
      ],
      "stateMutability": "nonpayable",
      "type": "function"
    },
    {
      "inputs": [
        {
          "internalType": "uint256",
          "name": "_poolCap",
          "type": "uint256"
        },
        {
          "internalType": "uint256",
          "name": "_apy",
          "type": "uint256"
        }
      ],
      "name": "calcRequiredPremiumBalancePerPeriod",
      "outputs": [
        {
          "internalType": "uint256",
          "name": "requiredPremiumBalance",
          "type": "uint256"
        }
      ],
      "stateMutability": "pure",
      "type": "function"
    },
    {
      "inputs": [],
      "name": "collectAllReferralProfits",
      "outputs": [
        {
          "internalType": "bool",
          "name": "",
          "type": "bool"
        }
      ],
      "stateMutability": "nonpayable",
      "type": "function"
    },
    {
      "inputs": [
        {
          "internalType": "address",
          "name": "_saloonWallet",
          "type": "address"
        }
      ],
      "name": "collectAllSaloonProfits",
      "outputs": [
        {
          "internalType": "bool",
          "name": "",
          "type": "bool"
        }
      ],
      "stateMutability": "nonpayable",
      "type": "function"
    },
    {
      "inputs": [
        {
          "internalType": "address",
          "name": "_token",
          "type": "address"
        }
      ],
      "name": "collectReferralProfit",
      "outputs": [
        {
          "internalType": "bool",
          "name": "",
          "type": "bool"
        }
      ],
      "stateMutability": "nonpayable",
      "type": "function"
    },
    {
      "inputs": [
        {
          "internalType": "address",
          "name": "_token",
          "type": "address"
        },
        {
          "internalType": "address",
          "name": "_saloonWallet",
          "type": "address"
        }
      ],
      "name": "collectSaloonProfits",
      "outputs": [
        {
          "internalType": "bool",
          "name": "",
          "type": "bool"
        }
      ],
      "stateMutability": "nonpayable",
      "type": "function"
    },
    {
      "inputs": [
        {
          "internalType": "uint256",
          "name": "_pid",
          "type": "uint256"
        },
        {
          "internalType": "uint256",
          "name": "_endTime",
          "type": "uint256"
        }
      ],
      "name": "extendReferralPeriod",
      "outputs": [],
      "stateMutability": "nonpayable",
      "type": "function"
    },
    {
      "inputs": [
        {
          "internalType": "address",
          "name": "",
          "type": "address"
        }
      ],
      "name": "minTokenStakeAmount",
      "outputs": [
        {
          "internalType": "uint256",
          "name": "",
          "type": "uint256"
        }
      ],
      "stateMutability": "view",
      "type": "function"
    },
    {
      "inputs": [
        {
          "internalType": "uint256",
          "name": "",
          "type": "uint256"
        }
      ],
      "name": "nftInfo",
      "outputs": [
        {
          "internalType": "uint256",
          "name": "pid",
          "type": "uint256"
        },
        {
          "internalType": "uint256",
          "name": "amount",
          "type": "uint256"
        },
        {
          "internalType": "uint256",
          "name": "xDelta",
          "type": "uint256"
        },
        {
          "internalType": "uint256",
          "name": "apy",
          "type": "uint256"
        },
        {
          "internalType": "uint256",
          "name": "unclaimed",
          "type": "uint256"
        },
        {
          "internalType": "uint256",
          "name": "lastClaimedTime",
          "type": "uint256"
        },
        {
          "internalType": "uint256",
          "name": "timelock",
          "type": "uint256"
        },
        {
          "internalType": "uint256",
          "name": "timelimit",
          "type": "uint256"
        }
      ],
      "stateMutability": "view",
      "type": "function"
    },
    {
      "inputs": [],
      "name": "owner",
      "outputs": [
        {
          "internalType": "address",
          "name": "",
          "type": "address"
        }
      ],
      "stateMutability": "view",
      "type": "function"
    },
    {
      "inputs": [
        {
          "internalType": "uint256",
          "name": "",
          "type": "uint256"
        },
        {
          "internalType": "uint256",
          "name": "",
          "type": "uint256"
        }
      ],
      "name": "pidNFTList",
      "outputs": [
        {
          "internalType": "uint256",
          "name": "",
          "type": "uint256"
        }
      ],
      "stateMutability": "view",
      "type": "function"
    },
    {
      "inputs": [
        {
          "internalType": "uint256",
          "name": "",
          "type": "uint256"
        },
        {
          "internalType": "bytes32",
          "name": "",
          "type": "bytes32"
        }
      ],
      "name": "pidStrategies",
      "outputs": [
        {
          "internalType": "address",
          "name": "",
          "type": "address"
        }
      ],
      "stateMutability": "view",
      "type": "function"
    },
    {
      "inputs": [
        {
          "internalType": "uint256",
          "name": "",
          "type": "uint256"
        }
      ],
      "name": "poolInfo",
      "outputs": [
        {
          "components": [
            {
              "internalType": "contract IERC20",
              "name": "token",
              "type": "address"
            },
            {
              "internalType": "uint8",
              "name": "tokenDecimals",
              "type": "uint8"
            },
            {
              "internalType": "uint16",
              "name": "apy",
              "type": "uint16"
            },
            {
              "internalType": "address",
              "name": "projectWallet",
              "type": "address"
            },
            {
              "internalType": "string",
              "name": "projectName",
              "type": "string"
            },
            {
              "internalType": "uint256",
              "name": "poolCap",
              "type": "uint256"
            },
            {
              "internalType": "uint256",
              "name": "totalStaked",
              "type": "uint256"
            },
            {
              "internalType": "uint256",
              "name": "scalingMultiplier",
              "type": "uint256"
            }
          ],
          "internalType": "struct ISaloon.GeneralInfo",
          "name": "generalInfo",
          "type": "tuple"
        },
        {
          "components": [
            {
              "internalType": "uint256",
              "name": "projectDepositHeld",
              "type": "uint256"
            },
            {
              "internalType": "uint256",
              "name": "projectDepositInStrategy",
              "type": "uint256"
            }
          ],
          "internalType": "struct ISaloon.DepositInfo",
          "name": "depositInfo",
          "type": "tuple"
        },
        {
          "components": [
            {
              "internalType": "uint256",
              "name": "premiumBalance",
              "type": "uint256"
            },
            {
              "internalType": "uint256",
              "name": "premiumAvailable",
              "type": "uint256"
            }
          ],
          "internalType": "struct ISaloon.PremiumInfo",
          "name": "premiumInfo",
          "type": "tuple"
        },
        {
          "components": [
            {
              "internalType": "uint256",
              "name": "timelock",
              "type": "uint256"
            },
            {
              "internalType": "uint256",
              "name": "timeLimit",
              "type": "uint256"
            },
            {
              "internalType": "uint256",
              "name": "withdrawalScheduledAmount",
              "type": "uint256"
            },
            {
              "internalType": "bool",
              "name": "withdrawalExecuted",
              "type": "bool"
            }
          ],
          "internalType": "struct ISaloon.TimelockInfo",
          "name": "poolTimelock",
          "type": "tuple"
        },
        {
          "components": [
            {
              "internalType": "uint256",
              "name": "currentX",
              "type": "uint256"
            },
            {
              "internalType": "uint256",
              "name": "currentY",
              "type": "uint256"
            },
            {
              "internalType": "uint256",
              "name": "totalSupply",
              "type": "uint256"
            },
            {
              "internalType": "uint256[]",
              "name": "unstakedTokens",
              "type": "uint256[]"
            }
          ],
          "internalType": "struct ISaloon.CurveInfo",
          "name": "curveInfo",
          "type": "tuple"
        },
        {
          "components": [
            {
              "internalType": "address",
              "name": "referrer",
              "type": "address"
            },
            {
              "internalType": "uint256",
              "name": "referralFee",
              "type": "uint256"
            },
            {
              "internalType": "uint256",
              "name": "endTime",
              "type": "uint256"
            }
          ],
          "internalType": "struct ISaloon.ReferralInfo",
          "name": "referralInfo",
          "type": "tuple"
        },
        {
          "internalType": "uint256",
          "name": "freezeTime",
          "type": "uint256"
        },
        {
          "internalType": "bool",
          "name": "isActive",
          "type": "bool"
        }
      ],
      "stateMutability": "view",
      "type": "function"
    },
    {
      "inputs": [],
      "name": "proxiableUUID",
      "outputs": [
        {
          "internalType": "bytes32",
          "name": "",
          "type": "bytes32"
        }
      ],
      "stateMutability": "view",
      "type": "function"
    },
    {
      "inputs": [
        {
          "internalType": "address",
          "name": "_token",
          "type": "address"
        },
        {
          "internalType": "uint256",
          "name": "_amount",
          "type": "uint256"
        }
      ],
      "name": "receiveStrategyYield",
      "outputs": [],
      "stateMutability": "nonpayable",
      "type": "function"
    },
    {
      "inputs": [
        {
          "internalType": "address",
          "name": "",
          "type": "address"
        },
        {
          "internalType": "address",
          "name": "",
          "type": "address"
        }
      ],
      "name": "referralBalances",
      "outputs": [
        {
          "internalType": "uint256",
          "name": "",
          "type": "uint256"
        }
      ],
      "stateMutability": "view",
      "type": "function"
    },
    {
      "inputs": [
        {
          "internalType": "address",
          "name": "",
          "type": "address"
        }
      ],
      "name": "saloonBountyProfit",
      "outputs": [
        {
          "internalType": "uint256",
          "name": "",
          "type": "uint256"
        }
      ],
      "stateMutability": "view",
      "type": "function"
    },
    {
      "inputs": [
        {
          "internalType": "address",
          "name": "",
          "type": "address"
        }
      ],
      "name": "saloonPremiumProfit",
      "outputs": [
        {
          "internalType": "uint256",
          "name": "",
          "type": "uint256"
        }
      ],
      "stateMutability": "view",
      "type": "function"
    },
    {
      "inputs": [
        {
          "internalType": "address",
          "name": "",
          "type": "address"
        }
      ],
      "name": "saloonStrategyProfit",
      "outputs": [
        {
          "internalType": "uint256",
          "name": "",
          "type": "uint256"
        }
      ],
      "stateMutability": "view",
      "type": "function"
    },
    {
      "inputs": [
        {
          "internalType": "address",
          "name": "",
          "type": "address"
        }
      ],
      "name": "strategyAddressToPid",
      "outputs": [
        {
          "internalType": "uint256",
          "name": "",
          "type": "uint256"
        }
      ],
      "stateMutability": "view",
      "type": "function"
    },
    {
      "inputs": [
        {
          "internalType": "address",
          "name": "",
          "type": "address"
        }
      ],
      "name": "tokenWhitelist",
      "outputs": [
        {
          "internalType": "bool",
          "name": "",
          "type": "bool"
        }
      ],
      "stateMutability": "view",
      "type": "function"
    },
    {
      "inputs": [
        {
          "internalType": "address",
          "name": "newOwner",
          "type": "address"
        }
      ],
      "name": "transferOwnership",
      "outputs": [],
      "stateMutability": "nonpayable",
      "type": "function"
    },
    {
      "inputs": [
        {
          "internalType": "address",
          "name": "_token",
          "type": "address"
        },
        {
          "internalType": "bool",
          "name": "_whitelisted",
          "type": "bool"
        },
        {
          "internalType": "uint256",
          "name": "_minStakeAmount",
          "type": "uint256"
        }
      ],
      "name": "updateTokenWhitelist",
      "outputs": [
        {
          "internalType": "bool",
          "name": "",
          "type": "bool"
        }
      ],
      "stateMutability": "nonpayable",
      "type": "function"
    },
    {
      "inputs": [
        {
          "internalType": "address",
          "name": "newImplementation",
          "type": "address"
        }
      ],
      "name": "upgradeTo",
      "outputs": [],
      "stateMutability": "nonpayable",
      "type": "function"
    },
    {
      "inputs": [
        {
          "internalType": "address",
          "name": "newImplementation",
          "type": "address"
        },
        {
          "internalType": "bytes",
          "name": "data",
          "type": "bytes"
        }
      ],
      "name": "upgradeToAndCall",
      "outputs": [],
      "stateMutability": "payable",
      "type": "function"
    },
    {
      "inputs": [
        {
          "internalType": "uint256",
          "name": "_pid",
          "type": "uint256"
        }
      ],
      "name": "viewBountyBalance",
      "outputs": [
        {
          "internalType": "uint256",
          "name": "",
          "type": "uint256"
        }
      ],
      "stateMutability": "view",
      "type": "function"
    }
  ],
  "bytecode": {
    "object": "0x60a06040523060805234801561001457600080fd5b50608051612d1d61004c60003960008181610fd301528181611013015281816111150152818161115501526111e40152612d1d6000f3fe6080604052600436106101cd5760003560e01c80636ac6d812116100f7578063a089a52011610095578063cf9564b911610064578063cf9564b91461063d578063e45abd0f1461065d578063ecd7fbed1461068a578063f2fde38b146106aa57600080fd5b8063a089a520146105ac578063b20b2429146105cc578063b842e87f146105fa578063ca0061481461060f57600080fd5b80638da5cb5b116100d15780638da5cb5b14610520578063957deecc1461053e57806396ea48e81461056c5780639f224f351461058c57600080fd5b80636ac6d812146104af578063753d7563146104cf578063836ef1fa1461050057600080fd5b806332fce6021161016f5780634f1ef2861161013e5780634f1ef2861461043957806352d1902d1461044c578063598d17bf146104615780635de406dc1461048f57600080fd5b806332fce602146103b65780633659cfe6146103d657806339458723146103f65780633e8888d91461042457600080fd5b80631aebcecb116101ab5780631aebcecb146102ac5780631f8bc790146102cd5780632cb0dfcc146103665780632dbe051e1461039657600080fd5b8063011b408b146101d2578063074ecf031461021e5780631526fe2714610278575b600080fd5b3480156101de57600080fd5b5061020b6101ed3660046124b8565b61010260209081526000928352604080842090915290825290205481565b6040519081526020015b60405180910390f35b34801561022a57600080fd5b506102606102393660046124f1565b6101046020908152600092835260408084209091529082529020546001600160a01b031681565b6040516001600160a01b039091168152602001610215565b34801561028457600080fd5b50610298610293366004612513565b6106ca565b6040516102159897969594939291906125e7565b3480156102b857600080fd5b506102cb6102c7366004612722565b5050565b005b3480156102d957600080fd5b5061032b6102e8366004612513565b60fd602052600090815260409020805460018201546002830154600384015460048501546005860154600687015460079097015495969495939492939192909188565b604080519889526020890197909752958701949094526060860192909252608085015260a084015260c083015260e082015261010001610215565b34801561037257600080fd5b5061038661038136600461275c565b610926565b6040519015158152602001610215565b3480156103a257600080fd5b506103866103b1366004612513565b610b73565b3480156103c257600080fd5b5061020b6103d1366004612829565b610ba2565b3480156103e257600080fd5b506102cb6103f13660046128c4565b610fc9565b34801561040257600080fd5b5061020b6104113660046128c4565b6101096020526000908152604090205481565b34801561043057600080fd5b506103866110a8565b6102cb6104473660046128e1565b61110b565b34801561045857600080fd5b5061020b6111d7565b34801561046d57600080fd5b5061020b61047c3660046128c4565b6101016020526000908152604090205481565b34801561049b57600080fd5b506102cb6104aa3660046124f1565b61128a565b3480156104bb57600080fd5b5061020b6104ca366004612513565b611314565b3480156104db57600080fd5b506103866104ea3660046128c4565b6101076020526000908152604090205460ff1681565b34801561050c57600080fd5b5061020b61051b3660046124f1565b6115b6565b34801561052c57600080fd5b506033546001600160a01b0316610260565b34801561054a57600080fd5b5061020b6105593660046128c4565b6101066020526000908152604090205481565b34801561057857600080fd5b5061020b6105873660046124f1565b6115ec565b34801561059857600080fd5b506102606105a7366004612513565b61161d565b3480156105b857600080fd5b506103866105c73660046128c4565b611648565b3480156105d857600080fd5b5061020b6105e7366004612513565b6101056020526000908152604090205481565b34801561060657600080fd5b506102cb6116f5565b34801561061b57600080fd5b5061020b61062a3660046128c4565b6101006020526000908152604090205481565b34801561064957600080fd5b506103866106583660046124b8565b611775565b34801561066957600080fd5b5061020b6106783660046128c4565b60ff6020526000908152604090205481565b34801561069657600080fd5b506103866106a53660046128c4565b611810565b3480156106b657600080fd5b506102cb6106c53660046128c4565b611873565b60fc81815481106106da57600080fd5b60009182526020918290206040805161010081018252601790930290910180546001600160a01b03808216855260ff600160a01b8304169585019590955261ffff600160a81b90910416918301919091526001810154909216606082015260028201805492935090918391608084019161075390612945565b80601f016020809104026020016040519081016040528092919081815260200182805461077f90612945565b80156107cc5780601f106107a1576101008083540402835291602001916107cc565b820191906000526020600020905b8154815290600101906020018083116107af57829003601f168201915b50505091835250506003820154602080830191909152600483015460408084019190915260059093015460609283015282518084018452600686015481526007860154818301528351808501855260088701548152600987015481840152845160808082018752600a8901548252600b89015482860152600c89015482880152600d89015460ff1615158287015286519081018752600e890180548252600f8a01548287015260108a01548289015260118a018054895181890281018901909a52808a52999a95999498939795969295919491860193929091908301828280156108d557602002820191906000526020600020905b8154815260200190600101908083116108c1575b5050509190925250506040805160608101825260128501546001600160a01b031681526013850154602082015260148501549181019190915260158401546016909401549293909290915060ff1688565b6000610930611902565b6001600160a01b0384166000908152610107602052604090205460ff16151583151461099c5760405162461bcd60e51b81526020600482015260166024820152751b9bc818da185b99d9481d1bc81dda1a5d195b1a5cdd60521b60448201526064015b60405180910390fd5b6001600160a01b03841660008181526101076020526040808220805460ff191687151590811790915590519092917f99795d51e5a8804307721456a7a9c2f0d7421f719d46a46d36e91fee7c85aa7691a38215610a54576101088054600181019091557f8543e9adbfbe1f62b7411fdf032fcfea758a7d6b332f64d971a1334c2ff364dd0180546001600160a01b0319166001600160a01b038616908117909155600090815261010960205260409020829055610b68565b6101085460005b81811015610b655760006101088281548110610a7957610a7961297f565b6000918252602090912001546001600160a01b03908116915087168103610b5457610108610aa86001856129ab565b81548110610ab857610ab861297f565b60009182526020909120015461010880546001600160a01b039092169184908110610ae557610ae561297f565b9060005260206000200160006101000a8154816001600160a01b0302191690836001600160a01b03160217905550610108805480610b2557610b256129be565b600082815260209020810160001990810180546001600160a01b03191690550190555060019250610b6c915050565b50610b5e816129d4565b9050610a5b565b50505b5060015b9392505050565b6000610b7d61195c565b610b85611902565b610b908260006119b5565b506001610b9d600160ca55565b919050565b6000610bac611902565b6001600160a01b0387166000908152610107602052604090205460ff16610c0d5760405162461bcd60e51b81526020600482015260156024820152741d1bdad95b881b9bdd081dda1a5d195b1a5cdd1959605a1b6044820152606401610993565b611388831115610c575760405162461bcd60e51b81526020600482015260156024820152740e4cacccae4e4c2d840cccaca40e8dede40d0d2ced605b1b6044820152606401610993565b60408051600481526024810182526020810180516001600160e01b031663313ce56760e01b17905290516000916001600160a01b038a1691610c9991906129ed565b600060405180830381855afa9150503d8060008114610cd4576040519150601f19603f3d011682016040523d82523d6000602084013e610cd9565b606091505b50915050600081806020019051810190610cf39190612a09565b905060068160ff161015610d425760405162461bcd60e51b815260206004820152601660248201527524b73b30b634b2103232b1b4b6b0b6103932ba3ab93760511b6044820152606401610993565b610d4a612318565b80516001600160a01b03808c16909152815160ff80851660209283015283518c8416606091820152845160809081018d905260a0860180518d87169052805185018c90525160409081018b905260fc80546001810182556000919091528751805160179092027f371f36870d18f32a11fea0f144b021c8b407bb50f8e0267c711123f454b963c081018054988301519483015161ffff16600160a81b0261ffff60a81b1995909816600160a01b026001600160a81b0319909916938a16939093179790971792909216949094178455918201517f371f36870d18f32a11fea0f144b021c8b407bb50f8e0267c711123f454b963c185018054919096166001600160a01b03199190911617909455928301518493919283917f371f36870d18f32a11fea0f144b021c8b407bb50f8e0267c711123f454b963c290910190610e909082612a7a565b5060a0820151600382015560c0820151600482015560e0909101516005909101556020828101518051600684015581015160078301556040808401518051600885015582015160098401556060808501518051600a86015580840151600b86015580830151600c860155810151600d8501805460ff191691151591909117905560808501518051600e860190815581850151600f8701559281015160108601559081015180519193610f4a92601187019290910190612443565b50505060a082015180516012830180546001600160a01b0319166001600160a01b039092169190911790556020810151601383015560400151601482015560c0820151601582015560e0909101516016909101805460ff191691151591909117905560fc54610fbb906001906129ab565b9a9950505050505050505050565b6001600160a01b037f00000000000000000000000000000000000000000000000000000000000000001630036110115760405162461bcd60e51b815260040161099390612b3a565b7f00000000000000000000000000000000000000000000000000000000000000006001600160a01b031661105a600080516020612ca1833981519152546001600160a01b031690565b6001600160a01b0316146110805760405162461bcd60e51b815260040161099390612b86565b61108981611bd2565b604080516000808252602082019092526110a591839190611bda565b50565b61010854600090815b8181101561110257600061010882815481106110cf576110cf61297f565b6000918252602090912001546001600160a01b031690506110ef81611648565b5050806110fb906129d4565b90506110b1565b50600191505090565b6001600160a01b037f00000000000000000000000000000000000000000000000000000000000000001630036111535760405162461bcd60e51b815260040161099390612b3a565b7f00000000000000000000000000000000000000000000000000000000000000006001600160a01b031661119c600080516020612ca1833981519152546001600160a01b031690565b6001600160a01b0316146111c25760405162461bcd60e51b815260040161099390612b86565b6111cb82611bd2565b6102c782826001611bda565b6000306001600160a01b037f000000000000000000000000000000000000000000000000000000000000000016146112775760405162461bcd60e51b815260206004820152603860248201527f555550535570677261646561626c653a206d757374206e6f742062652063616c60448201527f6c6564207468726f7567682064656c656761746563616c6c00000000000000006064820152608401610993565b50600080516020612ca183398151915290565b611292611902565b600060fc83815481106112a7576112a761297f565b906000526020600020906017020190508060120160020154821161130d5760405162461bcd60e51b815260206004820152601860248201527f63616e206f6e6c7920657874656e6420656e642074696d6500000000000000006044820152606401610993565b6014015550565b60008060fc838154811061132a5761132a61297f565b6000918252602090912060408051610200810190915260179092020180546001600160a01b038082166101008501908152600160a01b830460ff16610120860152600160a81b90920461ffff166101408501526001830154166101608401526002820180548492918491610180850191906113a490612945565b80601f01602080910402602001604051908101604052809291908181526020018280546113d090612945565b801561141d5780601f106113f25761010080835404028352916020019161141d565b820191906000526020600020905b81548152906001019060200180831161140057829003601f168201915b505050918352505060038201546020808301919091526004830154604080840191909152600590930154606092830152928452815180830183526006860154815260078601548185015284840152815180830183526008860154815260098601548185015284830152815160808082018452600a8701548252600b87015482860152600c87015482850152600d87015460ff161515828401528583019190915282518082018452600e870180548252600f8801548287015260108801548286015260118801805486518189028101890190975280875293909701969195909493860193929083018282801561153157602002820191906000526020600020905b81548152602001906001019080831161151d575b505050919092525050508152604080516060808201835260128501546001600160a01b0316825260138501546020838101919091526014860154838501528085019290925260158501549284019290925260169093015460ff161515910152818101519081015190519192506115a691612bd2565b815160c00151610b6c9190612bd2565b60006301e1338061271062093a806115ce8587612be5565b6115d89190612be5565b6115e29190612bfc565b610b6c9190612bfc565b60fe602052816000526040600020818154811061160857600080fd5b90600052602060002001600091509150505481565b610108818154811061162e57600080fd5b6000918252602090912001546001600160a01b0316905081565b600061165261195c565b336000908152610102602090815260408083206001600160a01b038616845290915290205480156116e657336000818152610102602090815260408083206001600160a01b03881680855292528220919091556116af9183611d4a565b5060405181815233907fbf7aaef98dccc47249def450ef0fd30757d553648a28fa7cd56e3b2b052724949060200160405180910390a25b6001915050610b9d600160ca55565b6034546001600160a01b0316331461175e5760405162461bcd60e51b815260206004820152602660248201527f6f6e6c792070656e64696e67206f776e65722063616e2061636365707420747260448201526530b739b332b960d11b6064820152608401610993565b603454611773906001600160a01b0316611db0565b565b600061177f611902565b6001600160a01b0383166000908152610100602090815260408083205461010183528184205460ff9093529083205490916117b991612bd2565b6117c39190612bd2565b6001600160a01b038516600081815260ff602090815260408083208390556101008252808320839055610101909152812055909150611803908483611d4a565b5060019150505b92915050565b600061181a611902565b6101085460005b81811015610b68576000610108828154811061183f5761183f61297f565b6000918252602090912001546001600160a01b031690506118608186611775565b50508061186c906129d4565b9050611821565b61187b611902565b6001600160a01b0381166118e05760405162461bcd60e51b815260206004820152602660248201527f4f776e61626c653a206e6577206f776e657220697320746865207a65726f206160448201526564647265737360d01b6064820152608401610993565b603480546001600160a01b0319166001600160a01b0392909216919091179055565b6033546001600160a01b031633146117735760405162461bcd60e51b815260206004820181905260248201527f4f776e61626c653a2063616c6c6572206973206e6f7420746865206f776e65726044820152606401610993565b600260ca54036119ae5760405162461bcd60e51b815260206004820152601f60248201527f5265656e7472616e637947756172643a207265656e7472616e742063616c6c006044820152606401610993565b600260ca55565b600060fc83815481106119ca576119ca61297f565b600091825260208220601791909102016008810154600382015482549294508592611a009190600160a81b900461ffff166115b6565b611a0a91906129ab565b611a149190612bd2565b60018301548354919250611a36916001600160a01b0390811691163084611e0d565b5080826008016000016000828254611a4e9190612bd2565b9091555060009050612710611a656103e884612be5565b611a6f9190612bfc565b60148401546013850154601286015460405163fc76fff360e01b815260048101859052602481019390935260448301919091526001600160a01b031660648201529091506000908190819073__$4defa815a6c8401eda00ac6be9b95d3cdb$__9063fc76fff390608401606060405180830381865af4158015611af6573d6000803e3d6000fd5b505050506040513d601f19601f82011682018060405250810190611b1a9190612c1e565b885492955090935091506001600160a01b0316611b38828285611e54565b6001600160a01b0381166000908152610100602052604081208054869290611b61908490612bd2565b9091555060009050611b7386886129ab565b905080886008016001016000828254611b8c9190612bd2565b90915550506040518781528a907fadb049ad2d09be3db90459a16aef1ad0a4d89e8fdcc1ade9429d6cc55abbcd2b9060200160405180910390a250505050505050505050565b6110a5611902565b7f4910fdfa16fed3260ed0e7147f7cc6da11a60208b5b9406d12a635614ffd91435460ff1615611c1257611c0d83611ea5565b505050565b826001600160a01b03166352d1902d6040518163ffffffff1660e01b8152600401602060405180830381865afa925050508015611c6c575060408051601f3d908101601f19168201909252611c6991810190612c57565b60015b611ccf5760405162461bcd60e51b815260206004820152602e60248201527f45524331393637557067726164653a206e657720696d706c656d656e7461746960448201526d6f6e206973206e6f74205555505360901b6064820152608401610993565b600080516020612ca18339815191528114611d3e5760405162461bcd60e51b815260206004820152602960248201527f45524331393637557067726164653a20756e737570706f727465642070726f786044820152681a58589b195555525160ba1b6064820152608401610993565b50611c0d838383611f41565b6040516001600160a01b038316602482015260448101829052600090610b6890859063a9059cbb60e01b906064015b60408051601f198184030181529190526020810180516001600160e01b03166001600160e01b031990931692909217909152611f6c565b603380546001600160a01b038381166001600160a01b03198084168217909455603480549094169093556040519116919082907f8be0079c531659141344cd1fd0a4f28419497f9722a3daafe3b4186f6b6457e090600090a35050565b6040516001600160a01b0380851660248301528316604482015260648101829052600090611e489086906323b872dd60e01b90608401611d79565b5060015b949350505050565b6001600160a01b03831615611c0d576001600160a01b0380841660009081526101026020908152604080832093861683529290529081208054839290611e9b908490612bd2565b9091555050505050565b6001600160a01b0381163b611f125760405162461bcd60e51b815260206004820152602d60248201527f455243313936373a206e657720696d706c656d656e746174696f6e206973206e60448201526c1bdd08184818dbdb9d1c9858dd609a1b6064820152608401610993565b600080516020612ca183398151915280546001600160a01b0319166001600160a01b0392909216919091179055565b611f4a8361203e565b600082511180611f575750805b15611c0d57611f66838361207e565b50505050565b6000611fc1826040518060400160405280602081526020017f5361666545524332303a206c6f772d6c6576656c2063616c6c206661696c6564815250856001600160a01b03166121729092919063ffffffff16565b805190915015611c0d5780806020019051810190611fdf9190612c70565b611c0d5760405162461bcd60e51b815260206004820152602a60248201527f5361666545524332303a204552433230206f7065726174696f6e20646964206e6044820152691bdd081cdd58d8d9595960b21b6064820152608401610993565b61204781611ea5565b6040516001600160a01b038216907fbc7cd75a20ee27fd9adebab32041f755214dbc6bffa90cc0225b39da2e5c2d3b90600090a250565b60606001600160a01b0383163b6120e65760405162461bcd60e51b815260206004820152602660248201527f416464726573733a2064656c65676174652063616c6c20746f206e6f6e2d636f6044820152651b9d1c9858dd60d21b6064820152608401610993565b600080846001600160a01b03168460405161210191906129ed565b600060405180830381855af49150503d806000811461213c576040519150601f19603f3d011682016040523d82523d6000602084013e612141565b606091505b50915091506121698282604051806060016040528060278152602001612cc160279139612181565b95945050505050565b6060611e4c848460008561219a565b60608315612190575081610b6c565b610b6c8383612275565b6060824710156121fb5760405162461bcd60e51b815260206004820152602660248201527f416464726573733a20696e73756666696369656e742062616c616e636520666f6044820152651c8818d85b1b60d21b6064820152608401610993565b600080866001600160a01b0316858760405161221791906129ed565b60006040518083038185875af1925050503d8060008114612254576040519150601f19603f3d011682016040523d82523d6000602084013e612259565b606091505b509150915061226a8783838761229f565b979650505050505050565b8151156122855781518083602001fd5b8060405162461bcd60e51b81526004016109939190612c8d565b6060831561230e578251600003612307576001600160a01b0385163b6123075760405162461bcd60e51b815260206004820152601d60248201527f416464726573733a2063616c6c20746f206e6f6e2d636f6e74726163740000006044820152606401610993565b5081611e4c565b611e4c8383612275565b6040805161020081019091526000610100820181815261012083018290526101408301829052610160830182905260606101808401526101a083018290526101c083018290526101e08301919091528190815260200161238b604051806040016040528060008152602001600081525090565b81526020016123ad604051806040016040528060008152602001600081525090565b81526020016123df60405180608001604052806000815260200160008152602001600081526020016000151581525090565b815260200161240f6040518060800160405280600081526020016000815260200160008152602001606081525090565b8152604080516060810182526000808252602082810182905292820152910190815260006020820181905260409091015290565b82805482825590600052602060002090810192821561247e579160200282015b8281111561247e578251825591602001919060010190612463565b5061248a92915061248e565b5090565b5b8082111561248a576000815560010161248f565b6001600160a01b03811681146110a557600080fd5b600080604083850312156124cb57600080fd5b82356124d6816124a3565b915060208301356124e6816124a3565b809150509250929050565b6000806040838503121561250457600080fd5b50508035926020909101359150565b60006020828403121561252557600080fd5b5035919050565b60005b8381101561254757818101518382015260200161252f565b50506000910152565b6000815180845261256881602086016020860161252c565b601f01601f19169290920160200192915050565b60006080830182518452602080840151818601526040840151604086015260608401516080606087015282815180855260a0880191508383019450600092505b808310156125dc57845182529383019360019290920191908301906125bc565b509695505050505050565b6101e080825289516001600160a01b039081169183019190915260208a015160ff1661020083015260408a015161ffff1661022083015260608a01511661024082015260808901516101006102608301526000906126496102e0840182612550565b905060a08b015161028084015260c08b01516102a084015260e08b01516102c0840152612683602084018b80518252602090810151910152565b8851606084015260208901516080840152875160a0840152602088015160c0840152604088015160e0840152606088015115156101008401528281036101208401526126cf818861257c565b86516001600160a01b03166101408501526020870151610160850152604087015161018085015291506126ff9050565b836101a08301526127156101c083018415159052565b9998505050505050505050565b6000806040838503121561273557600080fd5b8235612740816124a3565b946020939093013593505050565b80151581146110a557600080fd5b60008060006060848603121561277157600080fd5b833561277c816124a3565b9250602084013561278c8161274e565b929592945050506040919091013590565b634e487b7160e01b600052604160045260246000fd5b600067ffffffffffffffff808411156127ce576127ce61279d565b604051601f8501601f19908116603f011681019082821181831017156127f6576127f661279d565b8160405280935085815286868601111561280f57600080fd5b858560208301376000602087830101525050509392505050565b60008060008060008060c0878903121561284257600080fd5b863561284d816124a3565b9550602087013561285d816124a3565b9450604087013567ffffffffffffffff81111561287957600080fd5b8701601f8101891361288a57600080fd5b612899898235602084016127b3565b94505060608701356128aa816124a3565b9598949750929560808101359460a0909101359350915050565b6000602082840312156128d657600080fd5b8135610b6c816124a3565b600080604083850312156128f457600080fd5b82356128ff816124a3565b9150602083013567ffffffffffffffff81111561291b57600080fd5b8301601f8101851361292c57600080fd5b61293b858235602084016127b3565b9150509250929050565b600181811c9082168061295957607f821691505b60208210810361297957634e487b7160e01b600052602260045260246000fd5b50919050565b634e487b7160e01b600052603260045260246000fd5b634e487b7160e01b600052601160045260246000fd5b8181038181111561180a5761180a612995565b634e487b7160e01b600052603160045260246000fd5b6000600182016129e6576129e6612995565b5060010190565b600082516129ff81846020870161252c565b9190910192915050565b600060208284031215612a1b57600080fd5b815160ff81168114610b6c57600080fd5b601f821115611c0d57600081815260208120601f850160051c81016020861015612a535750805b601f850160051c820191505b81811015612a7257828155600101612a5f565b505050505050565b815167ffffffffffffffff811115612a9457612a9461279d565b612aa881612aa28454612945565b84612a2c565b602080601f831160018114612add5760008415612ac55750858301515b600019600386901b1c1916600185901b178555612a72565b600085815260208120601f198616915b82811015612b0c57888601518255948401946001909101908401612aed565b5085821015612b2a5787850151600019600388901b60f8161c191681555b5050505050600190811b01905550565b6020808252602c908201527f46756e6374696f6e206d7573742062652063616c6c6564207468726f7567682060408201526b19195b1959d85d1958d85b1b60a21b606082015260800190565b6020808252602c908201527f46756e6374696f6e206d7573742062652063616c6c6564207468726f7567682060408201526b6163746976652070726f787960a01b606082015260800190565b8082018082111561180a5761180a612995565b808202811582820484141761180a5761180a612995565b600082612c1957634e487b7160e01b600052601260045260246000fd5b500490565b600080600060608486031215612c3357600080fd5b83519250602084015191506040840151612c4c816124a3565b809150509250925092565b600060208284031215612c6957600080fd5b5051919050565b600060208284031215612c8257600080fd5b8151610b6c8161274e565b602081526000610b6c602083018461255056fe360894a13ba1a3210667c828492db98dca3e2076cc3735a920a3ca505d382bbc416464726573733a206c6f772d6c6576656c2064656c65676174652063616c6c206661696c6564a2646970667358221220e9fa89ba5cb31e1bacbb92484ade884344a8cae08ae49418ac17aea3d682640364736f6c63430008110033",
    "linkReferences": {
      "src/lib/SaloonLib.sol": {
        "SaloonLib": [
          {
            "start": 6920,
            "length": 20
          }
        ]
      }
    }
  },
  "methodIdentifiers": {
    "acceptOwnershipTransfer()": "b842e87f",
    "activeStrategies(uint256)": "b20b2429",
    "activeTokens(uint256)": "9f224f35",
    "addNewBountyPool(address,address,string,address,uint256,uint256)": "32fce602",
    "billPremium(uint256)": "2dbe051e",
    "calcRequiredPremiumBalancePerPeriod(uint256,uint256)": "836ef1fa",
    "collectAllReferralProfits()": "3e8888d9",
    "collectAllSaloonProfits(address)": "ecd7fbed",
    "collectReferralProfit(address)": "a089a520",
    "collectSaloonProfits(address,address)": "cf9564b9",
    "extendReferralPeriod(uint256,uint256)": "5de406dc",
    "minTokenStakeAmount(address)": "39458723",
    "nftInfo(uint256)": "1f8bc790",
    "owner()": "8da5cb5b",
    "pidNFTList(uint256,uint256)": "96ea48e8",
    "pidStrategies(uint256,bytes32)": "074ecf03",
    "poolInfo(uint256)": "1526fe27",
    "proxiableUUID()": "52d1902d",
    "receiveStrategyYield(address,uint256)": "1aebcecb",
    "referralBalances(address,address)": "011b408b",
    "saloonBountyProfit(address)": "e45abd0f",
    "saloonPremiumProfit(address)": "ca006148",
    "saloonStrategyProfit(address)": "598d17bf",
    "strategyAddressToPid(address)": "957deecc",
    "tokenWhitelist(address)": "753d7563",
    "transferOwnership(address)": "f2fde38b",
    "updateTokenWhitelist(address,bool,uint256)": "2cb0dfcc",
    "upgradeTo(address)": "3659cfe6",
    "upgradeToAndCall(address,bytes)": "4f1ef286",
    "viewBountyBalance(uint256)": "6ac6d812"
  },
  "id": 28
}