{
  "abi": [
    {
      "anonymous": false,
      "inputs": [
        {
          "indexed": true,
          "internalType": "uint256",
          "name": "pid",
          "type": "uint256"
        },
        {
          "indexed": false,
          "internalType": "uint256",
          "name": "oldAmount",
          "type": "uint256"
        },
        {
          "indexed": false,
          "internalType": "uint256",
          "name": "newAmount",
          "type": "uint256"
        }
      ],
      "name": "BountyBalanceChanged",
      "type": "event"
    },
    {
      "anonymous": false,
      "inputs": [
        {
          "indexed": true,
          "internalType": "address",
          "name": "hunter",
          "type": "address"
        },
        {
          "indexed": true,
          "internalType": "address",
          "name": "token",
          "type": "address"
        },
        {
          "indexed": false,
          "internalType": "uint256",
          "name": "amount",
          "type": "uint256"
        }
      ],
      "name": "BountyPaid",
      "type": "event"
    },
    {
      "anonymous": false,
      "inputs": [
        {
          "indexed": false,
          "internalType": "uint8",
          "name": "version",
          "type": "uint8"
        }
      ],
      "name": "Initialized",
      "type": "event"
    },
    {
      "anonymous": false,
      "inputs": [
        {
          "indexed": true,
          "internalType": "uint256",
          "name": "pid",
          "type": "uint256"
        },
        {
          "indexed": true,
          "internalType": "address",
          "name": "token",
          "type": "address"
        },
        {
          "indexed": false,
          "internalType": "uint256",
          "name": "tokenDecimals",
          "type": "uint256"
        }
      ],
      "name": "NewBountyDeployed",
      "type": "event"
    },
    {
      "anonymous": false,
      "inputs": [
        {
          "indexed": true,
          "internalType": "address",
          "name": "previousOwner",
          "type": "address"
        },
        {
          "indexed": true,
          "internalType": "address",
          "name": "newOwner",
          "type": "address"
        }
      ],
      "name": "OwnershipTransferred",
      "type": "event"
    },
    {
      "anonymous": false,
      "inputs": [
        {
          "indexed": true,
          "internalType": "uint256",
          "name": "pid",
          "type": "uint256"
        },
        {
          "indexed": false,
          "internalType": "uint256",
          "name": "amount",
          "type": "uint256"
        }
      ],
      "name": "PremiumBilled",
      "type": "event"
    },
    {
      "anonymous": false,
      "inputs": [
        {
          "indexed": true,
          "internalType": "address",
          "name": "user",
          "type": "address"
        },
        {
          "indexed": true,
          "internalType": "uint256",
          "name": "pid",
          "type": "uint256"
        },
        {
          "indexed": false,
          "internalType": "uint256",
          "name": "amount",
          "type": "uint256"
        }
      ],
      "name": "Staked",
      "type": "event"
    },
    {
      "anonymous": false,
      "inputs": [
        {
          "indexed": true,
          "internalType": "address",
          "name": "user",
          "type": "address"
        },
        {
          "indexed": true,
          "internalType": "uint256",
          "name": "pid",
          "type": "uint256"
        },
        {
          "indexed": false,
          "internalType": "uint256",
          "name": "amount",
          "type": "uint256"
        }
      ],
      "name": "Unstaked",
      "type": "event"
    },
    {
      "anonymous": false,
      "inputs": [
        {
          "indexed": true,
          "internalType": "uint256",
          "name": "pid",
          "type": "uint256"
        },
        {
          "indexed": false,
          "internalType": "uint256",
          "name": "amount",
          "type": "uint256"
        }
      ],
      "name": "WithdrawalOrUnstakeScheduled",
      "type": "event"
    },
    {
      "anonymous": false,
      "inputs": [
        {
          "indexed": true,
          "internalType": "address",
          "name": "referrer",
          "type": "address"
        },
        {
          "indexed": false,
          "internalType": "uint256",
          "name": "amount",
          "type": "uint256"
        }
      ],
      "name": "referralPaid",
      "type": "event"
    },
    {
      "anonymous": false,
      "inputs": [
        {
          "indexed": true,
          "internalType": "address",
          "name": "token",
          "type": "address"
        },
        {
          "indexed": true,
          "internalType": "bool",
          "name": "whitelisted",
          "type": "bool"
        }
      ],
      "name": "tokenWhitelistUpdated",
      "type": "event"
    },
    {
      "inputs": [],
      "name": "YEAR",
      "outputs": [
        {
          "internalType": "uint256",
          "name": "",
          "type": "uint256"
        }
      ],
      "stateMutability": "view",
      "type": "function"
    },
    {
      "inputs": [],
      "name": "acceptOwnershipTransfer",
      "outputs": [],
      "stateMutability": "nonpayable",
      "type": "function"
    },
    {
      "inputs": [
        {
          "internalType": "uint256",
          "name": "",
          "type": "uint256"
        }
      ],
      "name": "activeStrategies",
      "outputs": [
        {
          "internalType": "bytes32",
          "name": "",
          "type": "bytes32"
        }
      ],
      "stateMutability": "view",
      "type": "function"
    },
    {
      "inputs": [
        {
          "internalType": "uint256",
          "name": "",
          "type": "uint256"
        }
      ],
      "name": "activeTokens",
      "outputs": [
        {
          "internalType": "address",
          "name": "",
          "type": "address"
        }
      ],
      "stateMutability": "view",
      "type": "function"
    },
    {
      "inputs": [
        {
          "internalType": "address",
          "name": "_token",
          "type": "address"
        },
        {
          "internalType": "address",
          "name": "_projectWallet",
          "type": "address"
        },
        {
          "internalType": "string",
          "name": "_projectName",
          "type": "string"
        },
        {
          "internalType": "address",
          "name": "_referrer",
          "type": "address"
        },
        {
          "internalType": "uint256",
          "name": "_referralFee",
          "type": "uint256"
        },
        {
          "internalType": "uint256",
          "name": "_referralEndTime",
          "type": "uint256"
        }
      ],
      "name": "addNewBountyPool",
      "outputs": [
        {
          "internalType": "uint256",
          "name": "",
          "type": "uint256"
        }
      ],
      "stateMutability": "nonpayable",
      "type": "function"
    },
    {
      "inputs": [
        {
          "internalType": "uint256",
          "name": "_pid",
          "type": "uint256"
        }
      ],
      "name": "billPremium",
      "outputs": [
        {
          "internalType": "bool",
          "name": "",
          "type": "bool"
        }
      ],
      "stateMutability": "nonpayable",
      "type": "function"
    },
    {
      "inputs": [
        {
          "internalType": "uint256",
          "name": "_poolCap",
          "type": "uint256"
        },
        {
          "internalType": "uint256",
          "name": "_apy",
          "type": "uint256"
        }
      ],
      "name": "calcRequiredPremiumBalancePerPeriod",
      "outputs": [
        {
          "internalType": "uint256",
          "name": "requiredPremiumBalance",
          "type": "uint256"
        }
      ],
      "stateMutability": "pure",
      "type": "function"
    },
    {
      "inputs": [],
      "name": "collectAllReferralProfits",
      "outputs": [
        {
          "internalType": "bool",
          "name": "",
          "type": "bool"
        }
      ],
      "stateMutability": "nonpayable",
      "type": "function"
    },
    {
      "inputs": [
        {
          "internalType": "address",
          "name": "_saloonWallet",
          "type": "address"
        }
      ],
      "name": "collectAllSaloonProfits",
      "outputs": [
        {
          "internalType": "bool",
          "name": "",
          "type": "bool"
        }
      ],
      "stateMutability": "nonpayable",
      "type": "function"
    },
    {
      "inputs": [
        {
          "internalType": "address",
          "name": "_token",
          "type": "address"
        }
      ],
      "name": "collectReferralProfit",
      "outputs": [
        {
          "internalType": "bool",
          "name": "",
          "type": "bool"
        }
      ],
      "stateMutability": "nonpayable",
      "type": "function"
    },
    {
      "inputs": [
        {
          "internalType": "address",
          "name": "_token",
          "type": "address"
        },
        {
          "internalType": "address",
          "name": "_saloonWallet",
          "type": "address"
        }
      ],
      "name": "collectSaloonProfits",
      "outputs": [
        {
          "internalType": "bool",
          "name": "",
          "type": "bool"
        }
      ],
      "stateMutability": "nonpayable",
      "type": "function"
    },
    {
      "inputs": [
        {
          "internalType": "uint256",
          "name": "_pid",
          "type": "uint256"
        },
        {
          "internalType": "uint256",
          "name": "_endTime",
          "type": "uint256"
        }
      ],
      "name": "extendReferralPeriod",
      "outputs": [],
      "stateMutability": "nonpayable",
      "type": "function"
    },
    {
      "inputs": [],
      "name": "initialize",
      "outputs": [],
      "stateMutability": "nonpayable",
      "type": "function"
    },
    {
      "inputs": [
        {
          "internalType": "address",
          "name": "",
          "type": "address"
        }
      ],
      "name": "minTokenStakeAmount",
      "outputs": [
        {
          "internalType": "uint256",
          "name": "",
          "type": "uint256"
        }
      ],
      "stateMutability": "view",
      "type": "function"
    },
    {
      "inputs": [
        {
          "internalType": "uint256",
          "name": "",
          "type": "uint256"
        }
      ],
      "name": "nftInfo",
      "outputs": [
        {
          "internalType": "uint256",
          "name": "pid",
          "type": "uint256"
        },
        {
          "internalType": "uint256",
          "name": "amount",
          "type": "uint256"
        },
        {
          "internalType": "uint256",
          "name": "xDelta",
          "type": "uint256"
        },
        {
          "internalType": "uint256",
          "name": "apy",
          "type": "uint256"
        },
        {
          "internalType": "uint256",
          "name": "unclaimed",
          "type": "uint256"
        },
        {
          "internalType": "uint256",
          "name": "lastClaimedTime",
          "type": "uint256"
        },
        {
          "internalType": "uint256",
          "name": "timelock",
          "type": "uint256"
        },
        {
          "internalType": "uint256",
          "name": "timelimit",
          "type": "uint256"
        },
        {
          "internalType": "bool",
          "name": "hasUnstaked",
          "type": "bool"
        }
      ],
      "stateMutability": "view",
      "type": "function"
    },
    {
      "inputs": [],
      "name": "owner",
      "outputs": [
        {
          "internalType": "address",
          "name": "",
          "type": "address"
        }
      ],
      "stateMutability": "view",
      "type": "function"
    },
    {
      "inputs": [
        {
          "internalType": "uint256",
          "name": "",
          "type": "uint256"
        },
        {
          "internalType": "uint256",
          "name": "",
          "type": "uint256"
        }
      ],
      "name": "pidNFTList",
      "outputs": [
        {
          "internalType": "uint256",
          "name": "",
          "type": "uint256"
        }
      ],
      "stateMutability": "view",
      "type": "function"
    },
    {
      "inputs": [
        {
          "internalType": "uint256",
          "name": "",
          "type": "uint256"
        },
        {
          "internalType": "bytes32",
          "name": "",
          "type": "bytes32"
        }
      ],
      "name": "pidStrategies",
      "outputs": [
        {
          "internalType": "address",
          "name": "",
          "type": "address"
        }
      ],
      "stateMutability": "view",
      "type": "function"
    },
    {
      "inputs": [
        {
          "internalType": "uint256",
          "name": "",
          "type": "uint256"
        }
      ],
      "name": "poolInfo",
      "outputs": [
        {
          "components": [
            {
              "internalType": "contract IERC20",
              "name": "token",
              "type": "address"
            },
            {
              "internalType": "uint8",
              "name": "tokenDecimals",
              "type": "uint8"
            },
            {
              "internalType": "uint16",
              "name": "apy",
              "type": "uint16"
            },
            {
              "internalType": "address",
              "name": "projectWallet",
              "type": "address"
            },
            {
              "internalType": "string",
              "name": "projectName",
              "type": "string"
            },
            {
              "internalType": "uint256",
              "name": "poolCap",
              "type": "uint256"
            },
            {
              "internalType": "uint256",
              "name": "totalStaked",
              "type": "uint256"
            },
            {
              "internalType": "uint256",
              "name": "scalingMultiplier",
              "type": "uint256"
            }
          ],
          "internalType": "struct ISaloon.GeneralInfo",
          "name": "generalInfo",
          "type": "tuple"
        },
        {
          "components": [
            {
              "internalType": "uint256",
              "name": "projectDepositHeld",
              "type": "uint256"
            },
            {
              "internalType": "uint256",
              "name": "projectDepositInStrategy",
              "type": "uint256"
            }
          ],
          "internalType": "struct ISaloon.DepositInfo",
          "name": "depositInfo",
          "type": "tuple"
        },
        {
          "components": [
            {
              "internalType": "uint256",
              "name": "premiumBalance",
              "type": "uint256"
            },
            {
              "internalType": "uint256",
              "name": "premiumAvailable",
              "type": "uint256"
            }
          ],
          "internalType": "struct ISaloon.PremiumInfo",
          "name": "premiumInfo",
          "type": "tuple"
        },
        {
          "components": [
            {
              "internalType": "uint256",
              "name": "timelock",
              "type": "uint256"
            },
            {
              "internalType": "uint256",
              "name": "timeLimit",
              "type": "uint256"
            },
            {
              "internalType": "uint256",
              "name": "withdrawalScheduledAmount",
              "type": "uint256"
            },
            {
              "internalType": "bool",
              "name": "withdrawalExecuted",
              "type": "bool"
            }
          ],
          "internalType": "struct ISaloon.TimelockInfo",
          "name": "poolTimelock",
          "type": "tuple"
        },
        {
          "components": [
            {
              "internalType": "uint256",
              "name": "currentX",
              "type": "uint256"
            },
            {
              "internalType": "uint256",
              "name": "currentY",
              "type": "uint256"
            },
            {
              "internalType": "uint256",
              "name": "totalSupply",
              "type": "uint256"
            },
            {
              "internalType": "uint256[]",
              "name": "unstakedTokens",
              "type": "uint256[]"
            }
          ],
          "internalType": "struct ISaloon.CurveInfo",
          "name": "curveInfo",
          "type": "tuple"
        },
        {
          "components": [
            {
              "internalType": "address",
              "name": "referrer",
              "type": "address"
            },
            {
              "internalType": "uint256",
              "name": "referralFee",
              "type": "uint256"
            },
            {
              "internalType": "uint256",
              "name": "endTime",
              "type": "uint256"
            }
          ],
          "internalType": "struct ISaloon.ReferralInfo",
          "name": "referralInfo",
          "type": "tuple"
        },
        {
          "internalType": "uint256",
          "name": "assessmentPeriodEnd",
          "type": "uint256"
        },
        {
          "internalType": "uint256",
          "name": "freezeTime",
          "type": "uint256"
        },
        {
          "internalType": "bool",
          "name": "isActive",
          "type": "bool"
        }
      ],
      "stateMutability": "view",
      "type": "function"
    },
    {
      "inputs": [
        {
          "internalType": "address",
          "name": "_token",
          "type": "address"
        },
        {
          "internalType": "uint256",
          "name": "_amount",
          "type": "uint256"
        }
      ],
      "name": "receiveStrategyYield",
      "outputs": [],
      "stateMutability": "nonpayable",
      "type": "function"
    },
    {
      "inputs": [
        {
          "internalType": "address",
          "name": "",
          "type": "address"
        },
        {
          "internalType": "address",
          "name": "",
          "type": "address"
        }
      ],
      "name": "referralBalances",
      "outputs": [
        {
          "internalType": "uint256",
          "name": "",
          "type": "uint256"
        }
      ],
      "stateMutability": "view",
      "type": "function"
    },
    {
      "inputs": [],
      "name": "saloonBounty",
      "outputs": [
        {
          "internalType": "contract ISaloonBounty",
          "name": "",
          "type": "address"
        }
      ],
      "stateMutability": "view",
      "type": "function"
    },
    {
      "inputs": [
        {
          "internalType": "address",
          "name": "",
          "type": "address"
        }
      ],
      "name": "saloonBountyProfit",
      "outputs": [
        {
          "internalType": "uint256",
          "name": "",
          "type": "uint256"
        }
      ],
      "stateMutability": "view",
      "type": "function"
    },
    {
      "inputs": [],
      "name": "saloonManager",
      "outputs": [
        {
          "internalType": "contract ISaloonManager",
          "name": "",
          "type": "address"
        }
      ],
      "stateMutability": "view",
      "type": "function"
    },
    {
      "inputs": [
        {
          "internalType": "address",
          "name": "",
          "type": "address"
        }
      ],
      "name": "saloonPremiumProfit",
      "outputs": [
        {
          "internalType": "uint256",
          "name": "",
          "type": "uint256"
        }
      ],
      "stateMutability": "view",
      "type": "function"
    },
    {
      "inputs": [],
      "name": "saloonProjectPortal",
      "outputs": [
        {
          "internalType": "contract ISaloonProjectPortal",
          "name": "",
          "type": "address"
        }
      ],
      "stateMutability": "view",
      "type": "function"
    },
    {
      "inputs": [
        {
          "internalType": "address",
          "name": "",
          "type": "address"
        }
      ],
      "name": "saloonStrategyProfit",
      "outputs": [
        {
          "internalType": "uint256",
          "name": "",
          "type": "uint256"
        }
      ],
      "stateMutability": "view",
      "type": "function"
    },
    {
      "inputs": [],
      "name": "saloonView",
      "outputs": [
        {
          "internalType": "contract ISaloonView",
          "name": "",
          "type": "address"
        }
      ],
      "stateMutability": "view",
      "type": "function"
    },
    {
      "inputs": [
        {
          "internalType": "contract ISaloonManager",
          "name": "_saloonManager",
          "type": "address"
        },
        {
          "internalType": "contract ISaloonProjectPortal",
          "name": "_saloonProjectPortal",
          "type": "address"
        },
        {
          "internalType": "contract ISaloonBounty",
          "name": "_saloonBounty",
          "type": "address"
        }
      ],
      "name": "setImplementations",
      "outputs": [],
      "stateMutability": "nonpayable",
      "type": "function"
    },
    {
      "inputs": [
        {
          "internalType": "address",
          "name": "_strategyFactory",
          "type": "address"
        }
      ],
      "name": "setStrategyFactory",
      "outputs": [],
      "stateMutability": "nonpayable",
      "type": "function"
    },
    {
      "inputs": [
        {
          "internalType": "uint256",
          "name": "_pid",
          "type": "uint256"
        }
      ],
      "name": "startAssessmentPeriod",
      "outputs": [],
      "stateMutability": "nonpayable",
      "type": "function"
    },
    {
      "inputs": [
        {
          "internalType": "address",
          "name": "",
          "type": "address"
        }
      ],
      "name": "strategyAddressToPid",
      "outputs": [
        {
          "internalType": "uint256",
          "name": "",
          "type": "uint256"
        }
      ],
      "stateMutability": "view",
      "type": "function"
    },
    {
      "inputs": [],
      "name": "strategyFactory",
      "outputs": [
        {
          "internalType": "contract IStrategyFactory",
          "name": "",
          "type": "address"
        }
      ],
      "stateMutability": "view",
      "type": "function"
    },
    {
      "inputs": [
        {
          "internalType": "address",
          "name": "",
          "type": "address"
        }
      ],
      "name": "tokenWhitelist",
      "outputs": [
        {
          "internalType": "bool",
          "name": "",
          "type": "bool"
        }
      ],
      "stateMutability": "view",
      "type": "function"
    },
    {
      "inputs": [
        {
          "internalType": "address",
          "name": "newOwner",
          "type": "address"
        }
      ],
      "name": "transferOwnership",
      "outputs": [],
      "stateMutability": "nonpayable",
      "type": "function"
    },
    {
      "inputs": [
        {
          "internalType": "address",
          "name": "_token",
          "type": "address"
        },
        {
          "internalType": "bool",
          "name": "_whitelisted",
          "type": "bool"
        },
        {
          "internalType": "uint256",
          "name": "_minStakeAmount",
          "type": "uint256"
        }
      ],
      "name": "updateTokenWhitelist",
      "outputs": [
        {
          "internalType": "bool",
          "name": "",
          "type": "bool"
        }
      ],
      "stateMutability": "nonpayable",
      "type": "function"
    },
    {
      "inputs": [
        {
          "internalType": "uint256",
          "name": "_pid",
          "type": "uint256"
        }
      ],
      "name": "viewBountyBalance",
      "outputs": [
        {
          "internalType": "uint256",
          "name": "",
          "type": "uint256"
        }
      ],
      "stateMutability": "view",
      "type": "function"
    }
  ],
  "bytecode": {
    "object": "0x608060405234801561001057600080fd5b50612727806100206000396000f3fe608060405234801561001057600080fd5b50600436106102275760003560e01c806379923898116101305780639f224f35116100b8578063ca0061481161007c578063ca006148146105be578063cf9564b9146105de578063e45abd0f146105f1578063ecd7fbed14610611578063f2fde38b1461062457600080fd5b80639f224f351461055d578063a089a52014610570578063a5352bfd14610583578063b20b242914610596578063b842e87f146105b657600080fd5b80638da5cb5b116100ff5780638da5cb5b146104f35780639300d23814610504578063957deecc1461051757806396ea48e8146105375780639ef357101461054a57600080fd5b806379923898146104ba5780638129fc1c146104cd578063836ef1fa146104d557806383914540146104e857600080fd5b80632dbe051e116101b3578063583fc43911610182578063583fc4391461043e578063598d17bf146104515780635de406dc146104715780636ac6d81214610484578063753d75631461049757600080fd5b80632dbe051e146103f057806332fce6021461040357806339458723146104165780633e8888d91461043657600080fd5b80631aebcecb116101fa5780631aebcecb146102f15780631f8bc79014610305578063220e1124146103a7578063277fd2a1146103ba5780632cb0dfcc146103cd57600080fd5b8063011b408b1461022c578063074ecf031461026a5780630a07f543146102b65780631526fe27146102c9575b600080fd5b61025761023a366004611fb1565b60a260209081526000928352604080842090915290825290205481565b6040519081526020015b60405180910390f35b61029e610278366004611fea565b60a46020908152600092835260408084209091529082529020546001600160a01b031681565b6040516001600160a01b039091168152602001610261565b609b5461029e906001600160a01b031681565b6102dc6102d736600461200c565b610637565b604051610261999897969594939291906120e0565b6103036102ff366004612215565b5050565b005b61036161031336600461200c565b609d6020526000908152604090208054600182015460028301546003840154600485015460058601546006870154600788015460089098015496979596949593949293919290919060ff1689565b60408051998a5260208a0198909852968801959095526060870193909352608086019190915260a085015260c084015260e0830152151561010082015261012001610261565b60985461029e906001600160a01b031681565b60995461029e906001600160a01b031681565b6103e06103db36600461224f565b610898565b6040519015158152602001610261565b6103e06103fe36600461200c565b610a6f565b6102576104113660046122a6565b610a9e565b61025761042436600461239f565b60a96020526000908152604090205481565b6103e0610ed4565b61030361044c36600461200c565b610f35565b61025761045f36600461239f565b60a16020526000908152604090205481565b61030361047f366004611fea565b610f75565b61025761049236600461200c565b610fff565b6103e06104a536600461239f565b60a76020526000908152604090205460ff1681565b609a5461029e906001600160a01b031681565b6103036112b0565b6102576104e3366004611fea565b6113c1565b6102576301e1338081565b6033546001600160a01b031661029e565b6103036105123660046123bc565b6113f7565b61025761052536600461239f565b60a66020526000908152604090205481565b610257610545366004611fea565b61143e565b60a35461029e906001600160a01b031681565b61029e61056b36600461200c565b61146f565b6103e061057e36600461239f565b611499565b61030361059136600461239f565b611544565b6102576105a436600461200c565b60a56020526000908152604090205481565b61030361156e565b6102576105cc36600461239f565b60a06020526000908152604090205481565b6103e06105ec366004611fb1565b6115ee565b6102576105ff36600461239f565b609f6020526000908152604090205481565b6103e061061f36600461239f565b611685565b61030361063236600461239f565b6116f0565b609c818154811061064757600080fd5b60009182526020918290206040805161010081018252601890930290910180546001600160a01b03808216855260ff600160a01b8304169585019590955261ffff600160a81b9091041691830191909152600181015490921660608201526002820180549293509091839160808401916106c090612407565b80601f01602080910402602001604051908101604052809291908181526020018280546106ec90612407565b80156107395780601f1061070e57610100808354040283529160200191610739565b820191906000526020600020905b81548152906001019060200180831161071c57829003601f168201915b50505091835250506003820154602080830191909152600483015460408084019190915260059093015460609283015282518084018452600686015481526007860154818301528351808501855260088701548152600987015481840152845160808082018752600a8901548252600b89015482860152600c89015482880152600d89015460ff1615158287015286519081018752600e890180548252600f8a01548287015260108a01548289015260118a018054895181890281018901909a52808a52999a959994989397959692959194918601939290919083018282801561084257602002820191906000526020600020905b81548152602001906001019080831161082e575b5050509190925250506040805160608101825260128501546001600160a01b0316815260138501546020820152601485015491810191909152601584015460168501546017909501549394919390925060ff1689565b60006108a261177f565b6001600160a01b038416600081815260a76020526040808220805460ff191687151590811790915590519092917f99795d51e5a8804307721456a7a9c2f0d7421f719d46a46d36e91fee7c85aa7691a38215610959575060a8805460018082019092557fbee89403b5bf0e626c2f71adb366311c697013df53107181a963adc459ef4d990180546001600160a01b0319166001600160a01b038616908117909155600090815260a960205260409020829055610a68565b60a85460005b81811015610a6557600060a8828154811061097c5761097c612441565b6000918252602090912001546001600160a01b03908116915087168103610a545760a86109aa60018561246d565b815481106109ba576109ba612441565b60009182526020909120015460a880546001600160a01b0390921691849081106109e6576109e6612441565b9060005260206000200160006101000a8154816001600160a01b0302191690836001600160a01b0316021790555060a8805480610a2557610a25612480565b600082815260209020810160001990810180546001600160a01b03191690550190555060019250610a68915050565b50610a5e81612496565b905061095f565b50505b9392505050565b6000610a796117d9565b610a8161177f565b610a8c826000611832565b506001610a996001606655565b919050565b6000610aa861177f565b6001600160a01b038716600090815260a7602052604090205460ff16610b0d5760405162461bcd60e51b81526020600482015260156024820152741d1bdad95b881b9bdd081dda1a5d195b1a5cdd1959605a1b60448201526064015b60405180910390fd5b611388831115610b575760405162461bcd60e51b81526020600482015260156024820152740e4cacccae4e4c2d840cccaca40e8dede40d0d2ced605b1b6044820152606401610b04565b60408051600481526024810182526020810180516001600160e01b031663313ce56760e01b17905290516000916001600160a01b038a1691610b9991906124af565b600060405180830381855afa9150503d8060008114610bd4576040519150601f19603f3d011682016040523d82523d6000602084013e610bd9565b606091505b50915050600081806020019051810190610bf391906124cb565b905060068160ff161015610c425760405162461bcd60e51b815260206004820152601660248201527524b73b30b634b2103232b1b4b6b0b6103932ba3ab93760511b6044820152606401610b04565b610c4a611dfd565b80516001600160a01b03808c16909152815160ff80851660209283015283518c8416606091820152845160809081018d905260a0860180518d87169052805185018c90525160409081018b9052609c80546001810182556000919091528751805160189092027faf85b9071dfafeac1409d3f1d19bafc9bc7c37974cde8df0ee6168f0086e539c81018054988301519483015161ffff16600160a81b0261ffff60a81b1995909816600160a01b026001600160a81b0319909916938a16939093179790971792909216949094178455918201517faf85b9071dfafeac1409d3f1d19bafc9bc7c37974cde8df0ee6168f0086e539d85018054919096166001600160a01b03199190911617909455928301518493919283917faf85b9071dfafeac1409d3f1d19bafc9bc7c37974cde8df0ee6168f0086e539e90910190610d90908261253c565b5060a0820151600382015560c0820151600482015560e0909101516005909101556020828101518051600684015581015160078301556040808401518051600885015582015160098401556060808501518051600a86015580840151600b86015580830151600c860155810151600d8501805460ff191691151591909117905560808501518051600e860190815581850151600f8701559281015160108601559081015180519193610e4a92601187019290910190611f31565b50505060a082015180516012830180546001600160a01b0319166001600160a01b039092169190911790556020810151601383015560400151601482015560c0820151601582015560e08201516016820155610100909101516017909101805460ff1916911515919091179055609c54610ec69060019061246d565b9a9950505050505050505050565b60a854600090815b81811015610f2c57600060a88281548110610ef957610ef9612441565b6000918252602090912001546001600160a01b03169050610f1981611499565b505080610f2590612496565b9050610edc565b50600191505090565b610f3d61177f565b610f4a42621275006125fc565b609c8281548110610f5d57610f5d612441565b90600052602060002090601802016015018190555050565b610f7d61177f565b6000609c8381548110610f9257610f92612441565b9060005260206000209060180201905080601201600201548211610ff85760405162461bcd60e51b815260206004820152601860248201527f63616e206f6e6c7920657874656e6420656e642074696d6500000000000000006044820152606401610b04565b6014015550565b600080609c838154811061101557611015612441565b6000918252602090912060408051610220810190915260189092020180546001600160a01b038082166101208501908152600160a01b830460ff16610140860152600160a81b90920461ffff1661016085015260018301541661018084015260028201805484929184916101a08501919061108f90612407565b80601f01602080910402602001604051908101604052809291908181526020018280546110bb90612407565b80156111085780601f106110dd57610100808354040283529160200191611108565b820191906000526020600020905b8154815290600101906020018083116110eb57829003601f168201915b505050918352505060038201546020808301919091526004830154604080840191909152600590930154606092830152928452815180830183526006860154815260078601548185015284840152815180830183526008860154815260098601548185015284830152815160808082018452600a8701548252600b87015482860152600c87015482850152600d87015460ff161515828401528583019190915282518082018452600e870180548252600f8801548287015260108801548286015260118801805486518189028101890190975280875293909701969195909493860193929083018282801561121c57602002820191906000526020600020905b815481526020019060010190808311611208575b505050919092525050508152604080516060808201835260128501546001600160a01b0316825260138501546020838101919091526014860154838501528085019290925260158501549284019290925260168401549183019190915260179092015460ff161515608090910152818101519081015190519192506112a0916125fc565b815160c00151610a6891906125fc565b600054610100900460ff16158080156112d05750600054600160ff909116105b806112ea5750303b1580156112ea575060005460ff166001145b61134d5760405162461bcd60e51b815260206004820152602e60248201527f496e697469616c697a61626c653a20636f6e747261637420697320616c72656160448201526d191e481a5b9a5d1a585b1a5e995960921b6064820152608401610b04565b6000805460ff191660011790558015611370576000805461ff0019166101001790555b611378611a4e565b80156113be576000805461ff0019169055604051600181527f7f26b83ff96e1f2b6a682f133852f6798a09c465da95921460cefb38474024989060200160405180910390a15b50565b60006301e1338061271062093a806113d9858761260f565b6113e3919061260f565b6113ed9190612626565b610a689190612626565b6113ff61177f565b609880546001600160a01b039485166001600160a01b0319918216179091556099805493851693821693909317909255609a8054919093169116179055565b609e602052816000526040600020818154811061145a57600080fd5b90600052602060002001600091509150505481565b60a8818154811061147f57600080fd5b6000918252602090912001546001600160a01b0316905081565b60006114a36117d9565b33600090815260a2602090815260408083206001600160a01b038616845290915290205480156115355733600081815260a2602090815260408083206001600160a01b03881680855292528220919091556114fe9183611a7d565b5060405181815233907fbf7aaef98dccc47249def450ef0fd30757d553648a28fa7cd56e3b2b052724949060200160405180910390a25b6001915050610a996001606655565b61154c61177f565b60a380546001600160a01b0319166001600160a01b0392909216919091179055565b6034546001600160a01b031633146115d75760405162461bcd60e51b815260206004820152602660248201527f6f6e6c792070656e64696e67206f776e65722063616e2061636365707420747260448201526530b739b332b960d11b6064820152608401610b04565b6034546115ec906001600160a01b0316611ae3565b565b60006115f861177f565b6001600160a01b038316600090815260a0602090815260408083205460a1835281842054609f909352908320549091611630916125fc565b61163a91906125fc565b6001600160a01b0385166000818152609f6020908152604080832083905560a0825280832083905560a1909152812055909150611678908483611a7d565b5060019150505b92915050565b600061168f61177f565b60a85460005b818110156116e657600060a882815481106116b2576116b2612441565b6000918252602090912001546001600160a01b031690506116d381866115ee565b5050806116df90612496565b9050611695565b5060019392505050565b6116f861177f565b6001600160a01b03811661175d5760405162461bcd60e51b815260206004820152602660248201527f4f776e61626c653a206e6577206f776e657220697320746865207a65726f206160448201526564647265737360d01b6064820152608401610b04565b603480546001600160a01b0319166001600160a01b0392909216919091179055565b6033546001600160a01b031633146115ec5760405162461bcd60e51b815260206004820181905260248201527f4f776e61626c653a2063616c6c6572206973206e6f7420746865206f776e65726044820152606401610b04565b60026066540361182b5760405162461bcd60e51b815260206004820152601f60248201527f5265656e7472616e637947756172643a207265656e7472616e742063616c6c006044820152606401610b04565b6002606655565b6000609c838154811061184757611847612441565b60009182526020822060189190910201600881015460038201548254929450859261187d9190600160a81b900461ffff166113c1565b611887919061246d565b61189191906125fc565b600183015483549192506118b3916001600160a01b0390811691163084611b40565b50808260080160000160008282546118cb91906125fc565b90915550600090506127106118e26103e88461260f565b6118ec9190612626565b60148401546013850154601286015460405163fc76fff360e01b815260048101859052602481019390935260448301919091526001600160a01b031660648201529091506000908190819073__$4defa815a6c8401eda00ac6be9b95d3cdb$__9063fc76fff390608401606060405180830381865af4158015611973573d6000803e3d6000fd5b505050506040513d601f19601f820116820180604052508101906119979190612648565b885492955090935091506001600160a01b03166119b5828285611b87565b6001600160a01b038116600090815260a06020526040812080548692906119dd9084906125fc565b90915550600090506119ef868861246d565b905080886008016001016000828254611a0891906125fc565b90915550506040518781528a907fadb049ad2d09be3db90459a16aef1ad0a4d89e8fdcc1ade9429d6cc55abbcd2b9060200160405180910390a250505050505050505050565b600054610100900460ff16611a755760405162461bcd60e51b8152600401610b0490612676565b6115ec611bd8565b6040516001600160a01b0383166024820152604481018290526000906116e690859063a9059cbb60e01b906064015b60408051601f198184030181529190526020810180516001600160e01b03166001600160e01b031990931692909217909152611c08565b603380546001600160a01b038381166001600160a01b03198084168217909455603480549094169093556040519116919082907f8be0079c531659141344cd1fd0a4f28419497f9722a3daafe3b4186f6b6457e090600090a35050565b6040516001600160a01b0380851660248301528316604482015260648101829052600090611b7b9086906323b872dd60e01b90608401611aac565b5060015b949350505050565b6001600160a01b03831615611bd3576001600160a01b03808416600090815260a26020908152604080832093861683529290529081208054839290611bcd9084906125fc565b90915550505b505050565b600054610100900460ff16611bff5760405162461bcd60e51b8152600401610b0490612676565b6115ec33611ae3565b6000611c5d826040518060400160405280602081526020017f5361666545524332303a206c6f772d6c6576656c2063616c6c206661696c6564815250856001600160a01b0316611cda9092919063ffffffff16565b805190915015611bd35780806020019051810190611c7b91906126c1565b611bd35760405162461bcd60e51b815260206004820152602a60248201527f5361666545524332303a204552433230206f7065726174696f6e20646964206e6044820152691bdd081cdd58d8d9595960b21b6064820152608401610b04565b6060611b7f848460008585600080866001600160a01b03168587604051611d0191906124af565b60006040518083038185875af1925050503d8060008114611d3e576040519150601f19603f3d011682016040523d82523d6000602084013e611d43565b606091505b5091509150611d5487838387611d5f565b979650505050505050565b60608315611dce578251600003611dc7576001600160a01b0385163b611dc75760405162461bcd60e51b815260206004820152601d60248201527f416464726573733a2063616c6c20746f206e6f6e2d636f6e74726163740000006044820152606401610b04565b5081611b7f565b611b7f8383815115611de35781518083602001fd5b8060405162461bcd60e51b8152600401610b0491906126de565b6040805161022081019091526000610120820181815261014083018290526101608301829052610180830182905260606101a08401526101c083018290526101e0830182905261020083019190915281908152602001611e70604051806040016040528060008152602001600081525090565b8152602001611e92604051806040016040528060008152602001600081525090565b8152602001611ec460405180608001604052806000815260200160008152602001600081526020016000151581525090565b8152602001611ef46040518060800160405280600081526020016000815260200160008152602001606081525090565b8152604080516060810182526000808252602082810182905292820152910190815260200160008152602001600081526020016000151581525090565b828054828255906000526020600020908101928215611f6c579160200282015b82811115611f6c578251825591602001919060010190611f51565b50611f78929150611f7c565b5090565b5b80821115611f785760008155600101611f7d565b6001600160a01b03811681146113be57600080fd5b8035610a9981611f91565b60008060408385031215611fc457600080fd5b8235611fcf81611f91565b91506020830135611fdf81611f91565b809150509250929050565b60008060408385031215611ffd57600080fd5b50508035926020909101359150565b60006020828403121561201e57600080fd5b5035919050565b60005b83811015612040578181015183820152602001612028565b50506000910152565b60008151808452612061816020860160208601612025565b601f01601f19169290920160200192915050565b60006080830182518452602080840151818601526040840151604086015260608401516080606087015282815180855260a0880191508383019450600092505b808310156120d557845182529383019360019290920191908301906120b5565b509695505050505050565b6102008082528a516001600160a01b039081169183019190915260208b015160ff1661022083015260408b015161ffff1661024083015260608b01511661026082015260808a0151610100610280830152600090612142610300840182612049565b905060a08c01516102a084015260c08c01516102c084015260e08c01516102e084015261217c602084018c80518252602090810151910152565b8951606084015260208a01516080840152885160a0840152602089015160c0840152604089015160e0840152606089015115156101008401528281036101208401526121c88189612075565b87516001600160a01b03166101408501526020880151610160850152604088015161018085015291506121f89050565b846101a0830152836101c0830152610ec66101e083018415159052565b6000806040838503121561222857600080fd5b823561223381611f91565b946020939093013593505050565b80151581146113be57600080fd5b60008060006060848603121561226457600080fd5b833561226f81611f91565b9250602084013561227f81612241565b929592945050506040919091013590565b634e487b7160e01b600052604160045260246000fd5b60008060008060008060c087890312156122bf57600080fd5b86356122ca81611f91565b955060208701356122da81611f91565b9450604087013567ffffffffffffffff808211156122f757600080fd5b818901915089601f83011261230b57600080fd5b81358181111561231d5761231d612290565b604051601f8201601f19908116603f0116810190838211818310171561234557612345612290565b816040528281528c602084870101111561235e57600080fd5b82602086016020830137600060208483010152809850505050505061238560608801611fa6565b92506080870135915060a087013590509295509295509295565b6000602082840312156123b157600080fd5b8135610a6881611f91565b6000806000606084860312156123d157600080fd5b83356123dc81611f91565b925060208401356123ec81611f91565b915060408401356123fc81611f91565b809150509250925092565b600181811c9082168061241b57607f821691505b60208210810361243b57634e487b7160e01b600052602260045260246000fd5b50919050565b634e487b7160e01b600052603260045260246000fd5b634e487b7160e01b600052601160045260246000fd5b8181038181111561167f5761167f612457565b634e487b7160e01b600052603160045260246000fd5b6000600182016124a8576124a8612457565b5060010190565b600082516124c1818460208701612025565b9190910192915050565b6000602082840312156124dd57600080fd5b815160ff81168114610a6857600080fd5b601f821115611bd357600081815260208120601f850160051c810160208610156125155750805b601f850160051c820191505b8181101561253457828155600101612521565b505050505050565b815167ffffffffffffffff81111561255657612556612290565b61256a816125648454612407565b846124ee565b602080601f83116001811461259f57600084156125875750858301515b600019600386901b1c1916600185901b178555612534565b600085815260208120601f198616915b828110156125ce578886015182559484019460019091019084016125af565b50858210156125ec5787850151600019600388901b60f8161c191681555b5050505050600190811b01905550565b8082018082111561167f5761167f612457565b808202811582820484141761167f5761167f612457565b60008261264357634e487b7160e01b600052601260045260246000fd5b500490565b60008060006060848603121561265d57600080fd5b835192506020840151915060408401516123fc81611f91565b6020808252602b908201527f496e697469616c697a61626c653a20636f6e7472616374206973206e6f74206960408201526a6e697469616c697a696e6760a81b606082015260800190565b6000602082840312156126d357600080fd5b8151610a6881612241565b602081526000610a68602083018461204956fea2646970667358221220ce41704ba183447ef847c918fe378fbe59cd6f1f4bfa751a35a3a4525cd6962664736f6c63430008110033",
    "linkReferences": {
      "src/lib/SaloonLib.sol": {
        "SaloonLib": [
          {
            "start": 6489,
            "length": 20
          }
        ]
      }
    }
  },
  "methodIdentifiers": {
    "YEAR()": "83914540",
    "acceptOwnershipTransfer()": "b842e87f",
    "activeStrategies(uint256)": "b20b2429",
    "activeTokens(uint256)": "9f224f35",
    "addNewBountyPool(address,address,string,address,uint256,uint256)": "32fce602",
    "billPremium(uint256)": "2dbe051e",
    "calcRequiredPremiumBalancePerPeriod(uint256,uint256)": "836ef1fa",
    "collectAllReferralProfits()": "3e8888d9",
    "collectAllSaloonProfits(address)": "ecd7fbed",
    "collectReferralProfit(address)": "a089a520",
    "collectSaloonProfits(address,address)": "cf9564b9",
    "extendReferralPeriod(uint256,uint256)": "5de406dc",
    "initialize()": "8129fc1c",
    "minTokenStakeAmount(address)": "39458723",
    "nftInfo(uint256)": "1f8bc790",
    "owner()": "8da5cb5b",
    "pidNFTList(uint256,uint256)": "96ea48e8",
    "pidStrategies(uint256,bytes32)": "074ecf03",
    "poolInfo(uint256)": "1526fe27",
    "receiveStrategyYield(address,uint256)": "1aebcecb",
    "referralBalances(address,address)": "011b408b",
    "saloonBounty()": "79923898",
    "saloonBountyProfit(address)": "e45abd0f",
    "saloonManager()": "220e1124",
    "saloonPremiumProfit(address)": "ca006148",
    "saloonProjectPortal()": "277fd2a1",
    "saloonStrategyProfit(address)": "598d17bf",
    "saloonView()": "0a07f543",
    "setImplementations(address,address,address)": "9300d238",
    "setStrategyFactory(address)": "a5352bfd",
    "startAssessmentPeriod(uint256)": "583fc439",
    "strategyAddressToPid(address)": "957deecc",
    "strategyFactory()": "9ef35710",
    "tokenWhitelist(address)": "753d7563",
    "transferOwnership(address)": "f2fde38b",
    "updateTokenWhitelist(address,bool,uint256)": "2cb0dfcc",
    "viewBountyBalance(uint256)": "6ac6d812"
  },
  "id": 43
}