{
  "abi": [
    {
      "anonymous": false,
      "inputs": [
        {
          "indexed": false,
          "internalType": "address",
          "name": "previousAdmin",
          "type": "address"
        },
        {
          "indexed": false,
          "internalType": "address",
          "name": "newAdmin",
          "type": "address"
        }
      ],
      "name": "AdminChanged",
      "type": "event"
    },
    {
      "anonymous": false,
      "inputs": [
        {
          "indexed": true,
          "internalType": "address",
          "name": "beacon",
          "type": "address"
        }
      ],
      "name": "BeaconUpgraded",
      "type": "event"
    },
    {
      "anonymous": false,
      "inputs": [
        {
          "indexed": true,
          "internalType": "uint256",
          "name": "pid",
          "type": "uint256"
        },
        {
          "indexed": false,
          "internalType": "uint256",
          "name": "oldAmount",
          "type": "uint256"
        },
        {
          "indexed": false,
          "internalType": "uint256",
          "name": "newAmount",
          "type": "uint256"
        }
      ],
      "name": "BountyBalanceChanged",
      "type": "event"
    },
    {
      "anonymous": false,
      "inputs": [
        {
          "indexed": true,
          "internalType": "address",
          "name": "hunter",
          "type": "address"
        },
        {
          "indexed": true,
          "internalType": "address",
          "name": "token",
          "type": "address"
        },
        {
          "indexed": false,
          "internalType": "uint256",
          "name": "amount",
          "type": "uint256"
        }
      ],
      "name": "BountyPaid",
      "type": "event"
    },
    {
      "anonymous": false,
      "inputs": [
        {
          "indexed": false,
          "internalType": "uint8",
          "name": "version",
          "type": "uint8"
        }
      ],
      "name": "Initialized",
      "type": "event"
    },
    {
      "anonymous": false,
      "inputs": [
        {
          "indexed": true,
          "internalType": "uint256",
          "name": "pid",
          "type": "uint256"
        },
        {
          "indexed": true,
          "internalType": "address",
          "name": "token",
          "type": "address"
        },
        {
          "indexed": false,
          "internalType": "uint256",
          "name": "tokenDecimals",
          "type": "uint256"
        }
      ],
      "name": "NewBountyDeployed",
      "type": "event"
    },
    {
      "anonymous": false,
      "inputs": [
        {
          "indexed": true,
          "internalType": "address",
          "name": "previousOwner",
          "type": "address"
        },
        {
          "indexed": true,
          "internalType": "address",
          "name": "newOwner",
          "type": "address"
        }
      ],
      "name": "OwnershipTransferred",
      "type": "event"
    },
    {
      "anonymous": false,
      "inputs": [
        {
          "indexed": true,
          "internalType": "uint256",
          "name": "pid",
          "type": "uint256"
        },
        {
          "indexed": false,
          "internalType": "uint256",
          "name": "amount",
          "type": "uint256"
        }
      ],
      "name": "PremiumBilled",
      "type": "event"
    },
    {
      "anonymous": false,
      "inputs": [
        {
          "indexed": true,
          "internalType": "address",
          "name": "user",
          "type": "address"
        },
        {
          "indexed": true,
          "internalType": "uint256",
          "name": "pid",
          "type": "uint256"
        },
        {
          "indexed": false,
          "internalType": "uint256",
          "name": "amount",
          "type": "uint256"
        }
      ],
      "name": "Staked",
      "type": "event"
    },
    {
      "anonymous": false,
      "inputs": [
        {
          "indexed": true,
          "internalType": "address",
          "name": "user",
          "type": "address"
        },
        {
          "indexed": true,
          "internalType": "uint256",
          "name": "pid",
          "type": "uint256"
        },
        {
          "indexed": false,
          "internalType": "uint256",
          "name": "amount",
          "type": "uint256"
        }
      ],
      "name": "Unstaked",
      "type": "event"
    },
    {
      "anonymous": false,
      "inputs": [
        {
          "indexed": true,
          "internalType": "address",
          "name": "implementation",
          "type": "address"
        }
      ],
      "name": "Upgraded",
      "type": "event"
    },
    {
      "anonymous": false,
      "inputs": [
        {
          "indexed": true,
          "internalType": "uint256",
          "name": "pid",
          "type": "uint256"
        },
        {
          "indexed": false,
          "internalType": "uint256",
          "name": "amount",
          "type": "uint256"
        }
      ],
      "name": "WithdrawalOrUnstakeScheduled",
      "type": "event"
    },
    {
      "anonymous": false,
      "inputs": [
        {
          "indexed": true,
          "internalType": "address",
          "name": "referrer",
          "type": "address"
        },
        {
          "indexed": false,
          "internalType": "uint256",
          "name": "amount",
          "type": "uint256"
        }
      ],
      "name": "referralPaid",
      "type": "event"
    },
    {
      "anonymous": false,
      "inputs": [
        {
          "indexed": true,
          "internalType": "address",
          "name": "token",
          "type": "address"
        },
        {
          "indexed": true,
          "internalType": "bool",
          "name": "whitelisted",
          "type": "bool"
        }
      ],
      "name": "tokenWhitelistUpdated",
      "type": "event"
    },
    {
      "inputs": [],
      "name": "acceptOwnershipTransfer",
      "outputs": [],
      "stateMutability": "nonpayable",
      "type": "function"
    },
    {
      "inputs": [
        {
          "internalType": "uint256",
          "name": "",
          "type": "uint256"
        }
      ],
      "name": "activeStrategies",
      "outputs": [
        {
          "internalType": "bytes32",
          "name": "",
          "type": "bytes32"
        }
      ],
      "stateMutability": "view",
      "type": "function"
    },
    {
      "inputs": [
        {
          "internalType": "uint256",
          "name": "",
          "type": "uint256"
        }
      ],
      "name": "activeTokens",
      "outputs": [
        {
          "internalType": "address",
          "name": "",
          "type": "address"
        }
      ],
      "stateMutability": "view",
      "type": "function"
    },
    {
      "inputs": [
        {
          "internalType": "address",
          "name": "_token",
          "type": "address"
        },
        {
          "internalType": "address",
          "name": "_projectWallet",
          "type": "address"
        },
        {
          "internalType": "string",
          "name": "_projectName",
          "type": "string"
        },
        {
          "internalType": "address",
          "name": "_referrer",
          "type": "address"
        },
        {
          "internalType": "uint256",
          "name": "_referralFee",
          "type": "uint256"
        },
        {
          "internalType": "uint256",
          "name": "_referralEndTime",
          "type": "uint256"
        }
      ],
      "name": "addNewBountyPool",
      "outputs": [
        {
          "internalType": "uint256",
          "name": "",
          "type": "uint256"
        }
      ],
      "stateMutability": "nonpayable",
      "type": "function"
    },
    {
      "inputs": [
        {
          "internalType": "uint256",
          "name": "_pid",
          "type": "uint256"
        }
      ],
      "name": "billPremium",
      "outputs": [
        {
          "internalType": "bool",
          "name": "",
          "type": "bool"
        }
      ],
      "stateMutability": "nonpayable",
      "type": "function"
    },
    {
      "inputs": [
        {
          "internalType": "uint256",
          "name": "_poolCap",
          "type": "uint256"
        },
        {
          "internalType": "uint256",
          "name": "_apy",
          "type": "uint256"
        }
      ],
      "name": "calcRequiredPremiumBalancePerPeriod",
      "outputs": [
        {
          "internalType": "uint256",
          "name": "requiredPremiumBalance",
          "type": "uint256"
        }
      ],
      "stateMutability": "pure",
      "type": "function"
    },
    {
      "inputs": [],
      "name": "collectAllReferralProfits",
      "outputs": [
        {
          "internalType": "bool",
          "name": "",
          "type": "bool"
        }
      ],
      "stateMutability": "nonpayable",
      "type": "function"
    },
    {
      "inputs": [
        {
          "internalType": "address",
          "name": "_saloonWallet",
          "type": "address"
        }
      ],
      "name": "collectAllSaloonProfits",
      "outputs": [
        {
          "internalType": "bool",
          "name": "",
          "type": "bool"
        }
      ],
      "stateMutability": "nonpayable",
      "type": "function"
    },
    {
      "inputs": [
        {
          "internalType": "address",
          "name": "_token",
          "type": "address"
        }
      ],
      "name": "collectReferralProfit",
      "outputs": [
        {
          "internalType": "bool",
          "name": "",
          "type": "bool"
        }
      ],
      "stateMutability": "nonpayable",
      "type": "function"
    },
    {
      "inputs": [
        {
          "internalType": "address",
          "name": "_token",
          "type": "address"
        },
        {
          "internalType": "address",
          "name": "_saloonWallet",
          "type": "address"
        }
      ],
      "name": "collectSaloonProfits",
      "outputs": [
        {
          "internalType": "bool",
          "name": "",
          "type": "bool"
        }
      ],
      "stateMutability": "nonpayable",
      "type": "function"
    },
    {
      "inputs": [
        {
          "internalType": "uint256",
          "name": "_pid",
          "type": "uint256"
        },
        {
          "internalType": "uint256",
          "name": "_endTime",
          "type": "uint256"
        }
      ],
      "name": "extendReferralPeriod",
      "outputs": [],
      "stateMutability": "nonpayable",
      "type": "function"
    },
    {
      "inputs": [
        {
          "internalType": "address",
          "name": "",
          "type": "address"
        }
      ],
      "name": "minTokenStakeAmount",
      "outputs": [
        {
          "internalType": "uint256",
          "name": "",
          "type": "uint256"
        }
      ],
      "stateMutability": "view",
      "type": "function"
    },
    {
      "inputs": [
        {
          "internalType": "uint256",
          "name": "",
          "type": "uint256"
        }
      ],
      "name": "nftInfo",
      "outputs": [
        {
          "internalType": "uint256",
          "name": "pid",
          "type": "uint256"
        },
        {
          "internalType": "uint256",
          "name": "amount",
          "type": "uint256"
        },
        {
          "internalType": "uint256",
          "name": "xDelta",
          "type": "uint256"
        },
        {
          "internalType": "uint256",
          "name": "apy",
          "type": "uint256"
        },
        {
          "internalType": "uint256",
          "name": "unclaimed",
          "type": "uint256"
        },
        {
          "internalType": "uint256",
          "name": "lastClaimedTime",
          "type": "uint256"
        },
        {
          "internalType": "uint256",
          "name": "timelock",
          "type": "uint256"
        },
        {
          "internalType": "uint256",
          "name": "timelimit",
          "type": "uint256"
        }
      ],
      "stateMutability": "view",
      "type": "function"
    },
    {
      "inputs": [],
      "name": "owner",
      "outputs": [
        {
          "internalType": "address",
          "name": "",
          "type": "address"
        }
      ],
      "stateMutability": "view",
      "type": "function"
    },
    {
      "inputs": [
        {
          "internalType": "uint256",
          "name": "",
          "type": "uint256"
        },
        {
          "internalType": "uint256",
          "name": "",
          "type": "uint256"
        }
      ],
      "name": "pidNFTList",
      "outputs": [
        {
          "internalType": "uint256",
          "name": "",
          "type": "uint256"
        }
      ],
      "stateMutability": "view",
      "type": "function"
    },
    {
      "inputs": [
        {
          "internalType": "uint256",
          "name": "",
          "type": "uint256"
        },
        {
          "internalType": "bytes32",
          "name": "",
          "type": "bytes32"
        }
      ],
      "name": "pidStrategies",
      "outputs": [
        {
          "internalType": "address",
          "name": "",
          "type": "address"
        }
      ],
      "stateMutability": "view",
      "type": "function"
    },
    {
      "inputs": [
        {
          "internalType": "uint256",
          "name": "",
          "type": "uint256"
        }
      ],
      "name": "poolInfo",
      "outputs": [
        {
          "components": [
            {
              "internalType": "contract IERC20",
              "name": "token",
              "type": "address"
            },
            {
              "internalType": "uint8",
              "name": "tokenDecimals",
              "type": "uint8"
            },
            {
              "internalType": "uint16",
              "name": "apy",
              "type": "uint16"
            },
            {
              "internalType": "address",
              "name": "projectWallet",
              "type": "address"
            },
            {
              "internalType": "string",
              "name": "projectName",
              "type": "string"
            },
            {
              "internalType": "uint256",
              "name": "poolCap",
              "type": "uint256"
            },
            {
              "internalType": "uint256",
              "name": "totalStaked",
              "type": "uint256"
            },
            {
              "internalType": "uint256",
              "name": "scalingMultiplier",
              "type": "uint256"
            }
          ],
          "internalType": "struct ISaloon.GeneralInfo",
          "name": "generalInfo",
          "type": "tuple"
        },
        {
          "components": [
            {
              "internalType": "uint256",
              "name": "projectDepositHeld",
              "type": "uint256"
            },
            {
              "internalType": "uint256",
              "name": "projectDepositInStrategy",
              "type": "uint256"
            }
          ],
          "internalType": "struct ISaloon.DepositInfo",
          "name": "depositInfo",
          "type": "tuple"
        },
        {
          "components": [
            {
              "internalType": "uint256",
              "name": "premiumBalance",
              "type": "uint256"
            },
            {
              "internalType": "uint256",
              "name": "premiumAvailable",
              "type": "uint256"
            }
          ],
          "internalType": "struct ISaloon.PremiumInfo",
          "name": "premiumInfo",
          "type": "tuple"
        },
        {
          "components": [
            {
              "internalType": "uint256",
              "name": "timelock",
              "type": "uint256"
            },
            {
              "internalType": "uint256",
              "name": "timeLimit",
              "type": "uint256"
            },
            {
              "internalType": "uint256",
              "name": "withdrawalScheduledAmount",
              "type": "uint256"
            },
            {
              "internalType": "bool",
              "name": "withdrawalExecuted",
              "type": "bool"
            }
          ],
          "internalType": "struct ISaloon.TimelockInfo",
          "name": "poolTimelock",
          "type": "tuple"
        },
        {
          "components": [
            {
              "internalType": "uint256",
              "name": "currentX",
              "type": "uint256"
            },
            {
              "internalType": "uint256",
              "name": "currentY",
              "type": "uint256"
            },
            {
              "internalType": "uint256",
              "name": "totalSupply",
              "type": "uint256"
            },
            {
              "internalType": "uint256[]",
              "name": "unstakedTokens",
              "type": "uint256[]"
            }
          ],
          "internalType": "struct ISaloon.CurveInfo",
          "name": "curveInfo",
          "type": "tuple"
        },
        {
          "components": [
            {
              "internalType": "address",
              "name": "referrer",
              "type": "address"
            },
            {
              "internalType": "uint256",
              "name": "referralFee",
              "type": "uint256"
            },
            {
              "internalType": "uint256",
              "name": "endTime",
              "type": "uint256"
            }
          ],
          "internalType": "struct ISaloon.ReferralInfo",
          "name": "referralInfo",
          "type": "tuple"
        },
        {
          "internalType": "uint256",
          "name": "freezeTime",
          "type": "uint256"
        },
        {
          "internalType": "bool",
          "name": "isActive",
          "type": "bool"
        }
      ],
      "stateMutability": "view",
      "type": "function"
    },
    {
      "inputs": [],
      "name": "proxiableUUID",
      "outputs": [
        {
          "internalType": "bytes32",
          "name": "",
          "type": "bytes32"
        }
      ],
      "stateMutability": "view",
      "type": "function"
    },
    {
      "inputs": [
        {
          "internalType": "address",
          "name": "_token",
          "type": "address"
        },
        {
          "internalType": "uint256",
          "name": "_amount",
          "type": "uint256"
        }
      ],
      "name": "receiveStrategyYield",
      "outputs": [],
      "stateMutability": "nonpayable",
      "type": "function"
    },
    {
      "inputs": [
        {
          "internalType": "address",
          "name": "",
          "type": "address"
        },
        {
          "internalType": "address",
          "name": "",
          "type": "address"
        }
      ],
      "name": "referralBalances",
      "outputs": [
        {
          "internalType": "uint256",
          "name": "",
          "type": "uint256"
        }
      ],
      "stateMutability": "view",
      "type": "function"
    },
    {
      "inputs": [],
      "name": "saloonBounty",
      "outputs": [
        {
          "internalType": "contract ISaloonBounty",
          "name": "",
          "type": "address"
        }
      ],
      "stateMutability": "view",
      "type": "function"
    },
    {
      "inputs": [
        {
          "internalType": "address",
          "name": "",
          "type": "address"
        }
      ],
      "name": "saloonBountyProfit",
      "outputs": [
        {
          "internalType": "uint256",
          "name": "",
          "type": "uint256"
        }
      ],
      "stateMutability": "view",
      "type": "function"
    },
    {
      "inputs": [],
      "name": "saloonManager",
      "outputs": [
        {
          "internalType": "contract ISaloonManager",
          "name": "",
          "type": "address"
        }
      ],
      "stateMutability": "view",
      "type": "function"
    },
    {
      "inputs": [
        {
          "internalType": "address",
          "name": "",
          "type": "address"
        }
      ],
      "name": "saloonPremiumProfit",
      "outputs": [
        {
          "internalType": "uint256",
          "name": "",
          "type": "uint256"
        }
      ],
      "stateMutability": "view",
      "type": "function"
    },
    {
      "inputs": [],
      "name": "saloonProjectPortal",
      "outputs": [
        {
          "internalType": "contract ISaloonProjectPortal",
          "name": "",
          "type": "address"
        }
      ],
      "stateMutability": "view",
      "type": "function"
    },
    {
      "inputs": [
        {
          "internalType": "address",
          "name": "",
          "type": "address"
        }
      ],
      "name": "saloonStrategyProfit",
      "outputs": [
        {
          "internalType": "uint256",
          "name": "",
          "type": "uint256"
        }
      ],
      "stateMutability": "view",
      "type": "function"
    },
    {
      "inputs": [
        {
          "internalType": "address",
          "name": "",
          "type": "address"
        }
      ],
      "name": "strategyAddressToPid",
      "outputs": [
        {
          "internalType": "uint256",
          "name": "",
          "type": "uint256"
        }
      ],
      "stateMutability": "view",
      "type": "function"
    },
    {
      "inputs": [
        {
          "internalType": "address",
          "name": "",
          "type": "address"
        }
      ],
      "name": "tokenWhitelist",
      "outputs": [
        {
          "internalType": "bool",
          "name": "",
          "type": "bool"
        }
      ],
      "stateMutability": "view",
      "type": "function"
    },
    {
      "inputs": [
        {
          "internalType": "address",
          "name": "newOwner",
          "type": "address"
        }
      ],
      "name": "transferOwnership",
      "outputs": [],
      "stateMutability": "nonpayable",
      "type": "function"
    },
    {
      "inputs": [
        {
          "internalType": "address",
          "name": "_token",
          "type": "address"
        },
        {
          "internalType": "bool",
          "name": "_whitelisted",
          "type": "bool"
        },
        {
          "internalType": "uint256",
          "name": "_minStakeAmount",
          "type": "uint256"
        }
      ],
      "name": "updateTokenWhitelist",
      "outputs": [
        {
          "internalType": "bool",
          "name": "",
          "type": "bool"
        }
      ],
      "stateMutability": "nonpayable",
      "type": "function"
    },
    {
      "inputs": [
        {
          "internalType": "address",
          "name": "newImplementation",
          "type": "address"
        }
      ],
      "name": "upgradeTo",
      "outputs": [],
      "stateMutability": "nonpayable",
      "type": "function"
    },
    {
      "inputs": [
        {
          "internalType": "address",
          "name": "newImplementation",
          "type": "address"
        },
        {
          "internalType": "bytes",
          "name": "data",
          "type": "bytes"
        }
      ],
      "name": "upgradeToAndCall",
      "outputs": [],
      "stateMutability": "payable",
      "type": "function"
    },
    {
      "inputs": [
        {
          "internalType": "uint256",
          "name": "_pid",
          "type": "uint256"
        }
      ],
      "name": "viewBountyBalance",
      "outputs": [
        {
          "internalType": "uint256",
          "name": "",
          "type": "uint256"
        }
      ],
      "stateMutability": "view",
      "type": "function"
    }
  ],
  "bytecode": {
    "object": "0x60a06040523060805234801561001457600080fd5b50608051612da061004c600039600081816110530152818161109301528181611195015281816111d501526112640152612da06000f3fe6080604052600436106101ee5760003560e01c80635de406dc1161010d5780639f224f35116100a0578063ca0061481161006f578063ca00614814610691578063cf9564b9146106bf578063e45abd0f146106df578063ecd7fbed1461070d578063f2fde38b1461072d57600080fd5b80639f224f351461060e578063a089a5201461062e578063b20b24291461064e578063b842e87f1461067c57600080fd5b8063836ef1fa116100dc578063836ef1fa146105825780638da5cb5b146105a2578063957deecc146105c057806396ea48e8146105ee57600080fd5b80635de406dc146104f15780636ac6d81214610511578063753d756314610531578063799238981461056257600080fd5b80632dbe051e116101855780633e8888d9116101545780633e8888d9146104865780634f1ef2861461049b57806352d1902d146104ae578063598d17bf146104c357600080fd5b80632dbe051e146103f857806332fce602146104185780633659cfe614610438578063394587231461045857600080fd5b80631f8bc790116101c15780631f8bc790146102ee578063220e112414610388578063277fd2a1146103a85780632cb0dfcc146103c857600080fd5b8063011b408b146101f3578063074ecf031461023f5780631526fe27146102995780631aebcecb146102cd575b600080fd5b3480156101ff57600080fd5b5061022c61020e36600461253b565b61010560209081526000928352604080842090915290825290205481565b6040519081526020015b60405180910390f35b34801561024b57600080fd5b5061028161025a366004612574565b6101076020908152600092835260408084209091529082529020546001600160a01b031681565b6040516001600160a01b039091168152602001610236565b3480156102a557600080fd5b506102b96102b4366004612596565b61074d565b60405161023698979695949392919061266a565b3480156102d957600080fd5b506102ec6102e83660046127a5565b5050565b005b3480156102fa57600080fd5b5061034d610309366004612596565b610100602052600090815260409020805460018201546002830154600384015460048501546005860154600687015460079097015495969495939492939192909188565b604080519889526020890197909752958701949094526060860192909252608085015260a084015260c083015260e082015261010001610236565b34801561039457600080fd5b5060fc54610281906001600160a01b031681565b3480156103b457600080fd5b5060fd54610281906001600160a01b031681565b3480156103d457600080fd5b506103e86103e33660046127df565b6109a9565b6040519015158152602001610236565b34801561040457600080fd5b506103e8610413366004612596565b610bf6565b34801561042457600080fd5b5061022c6104333660046128ac565b610c25565b34801561044457600080fd5b506102ec610453366004612947565b611049565b34801561046457600080fd5b5061022c610473366004612947565b61010c6020526000908152604090205481565b34801561049257600080fd5b506103e8611128565b6102ec6104a9366004612964565b61118b565b3480156104ba57600080fd5b5061022c611257565b3480156104cf57600080fd5b5061022c6104de366004612947565b6101046020526000908152604090205481565b3480156104fd57600080fd5b506102ec61050c366004612574565b61130a565b34801561051d57600080fd5b5061022c61052c366004612596565b611394565b34801561053d57600080fd5b506103e861054c366004612947565b61010a6020526000908152604090205460ff1681565b34801561056e57600080fd5b5060fe54610281906001600160a01b031681565b34801561058e57600080fd5b5061022c61059d366004612574565b611636565b3480156105ae57600080fd5b506033546001600160a01b0316610281565b3480156105cc57600080fd5b5061022c6105db366004612947565b6101096020526000908152604090205481565b3480156105fa57600080fd5b5061022c610609366004612574565b61166c565b34801561061a57600080fd5b50610281610629366004612596565b61169e565b34801561063a57600080fd5b506103e8610649366004612947565b6116c9565b34801561065a57600080fd5b5061022c610669366004612596565b6101086020526000908152604090205481565b34801561068857600080fd5b506102ec611776565b34801561069d57600080fd5b5061022c6106ac366004612947565b6101036020526000908152604090205481565b3480156106cb57600080fd5b506103e86106da36600461253b565b6117f6565b3480156106eb57600080fd5b5061022c6106fa366004612947565b6101026020526000908152604090205481565b34801561071957600080fd5b506103e8610728366004612947565b611893565b34801561073957600080fd5b506102ec610748366004612947565b6118f6565b60ff818154811061075d57600080fd5b60009182526020918290206040805161010081018252601790930290910180546001600160a01b03808216855260ff600160a01b8304169585019590955261ffff600160a81b9091041691830191909152600181015490921660608201526002820180549293509091839160808401916107d6906129c8565b80601f0160208091040260200160405190810160405280929190818152602001828054610802906129c8565b801561084f5780601f106108245761010080835404028352916020019161084f565b820191906000526020600020905b81548152906001019060200180831161083257829003601f168201915b50505091835250506003820154602080830191909152600483015460408084019190915260059093015460609283015282518084018452600686015481526007860154818301528351808501855260088701548152600987015481840152845160808082018752600a8901548252600b89015482860152600c89015482880152600d89015460ff1615158287015286519081018752600e890180548252600f8a01548287015260108a01548289015260118a018054895181890281018901909a52808a52999a959994989397959692959194918601939290919083018282801561095857602002820191906000526020600020905b815481526020019060010190808311610944575b5050509190925250506040805160608101825260128501546001600160a01b031681526013850154602082015260148501549181019190915260158401546016909401549293909290915060ff1688565b60006109b3611985565b6001600160a01b038416600090815261010a602052604090205460ff161515831514610a1f5760405162461bcd60e51b81526020600482015260166024820152751b9bc818da185b99d9481d1bc81dda1a5d195b1a5cdd60521b60448201526064015b60405180910390fd5b6001600160a01b038416600081815261010a6020526040808220805460ff191687151590811790915590519092917f99795d51e5a8804307721456a7a9c2f0d7421f719d46a46d36e91fee7c85aa7691a38215610ad75761010b8054600181019091557fc4a0eda7235d7f6fd09c1e1f9f82dc3264d0d2f064cb41576c42a996a7be28920180546001600160a01b0319166001600160a01b038616908117909155600090815261010c60205260409020829055610beb565b61010b5460005b81811015610be857600061010b8281548110610afc57610afc612a02565b6000918252602090912001546001600160a01b03908116915087168103610bd75761010b610b2b600185612a2e565b81548110610b3b57610b3b612a02565b60009182526020909120015461010b80546001600160a01b039092169184908110610b6857610b68612a02565b9060005260206000200160006101000a8154816001600160a01b0302191690836001600160a01b0316021790555061010b805480610ba857610ba8612a41565b600082815260209020810160001990810180546001600160a01b03191690550190555060019250610bef915050565b50610be181612a57565b9050610ade565b50505b5060015b9392505050565b6000610c006119df565b610c08611985565b610c13826000611a38565b506001610c20600160ca55565b919050565b6000610c2f611985565b6001600160a01b038716600090815261010a602052604090205460ff16610c905760405162461bcd60e51b81526020600482015260156024820152741d1bdad95b881b9bdd081dda1a5d195b1a5cdd1959605a1b6044820152606401610a16565b611388831115610cda5760405162461bcd60e51b81526020600482015260156024820152740e4cacccae4e4c2d840cccaca40e8dede40d0d2ced605b1b6044820152606401610a16565b60408051600481526024810182526020810180516001600160e01b031663313ce56760e01b17905290516000916001600160a01b038a1691610d1c9190612a70565b600060405180830381855afa9150503d8060008114610d57576040519150601f19603f3d011682016040523d82523d6000602084013e610d5c565b606091505b50915050600081806020019051810190610d769190612a8c565b905060068160ff161015610dc55760405162461bcd60e51b815260206004820152601660248201527524b73b30b634b2103232b1b4b6b0b6103932ba3ab93760511b6044820152606401610a16565b610dcd61239b565b80516001600160a01b03808c16909152815160ff80851660209283015283518c8416606091820152845160809081018d905260a0860180518d87169052805185018c90525160409081018b9052835460018101855560008590528751805160179092027fe08ec2af2cfc251225e1968fd6ca21e4044f129bffa95bac3503be8bdb30a36781018054988301519483015161ffff16600160a81b0261ffff60a81b1995909816600160a01b026001600160a81b0319909916938a16939093179790971792909216949094178455918201517fe08ec2af2cfc251225e1968fd6ca21e4044f129bffa95bac3503be8bdb30a36885018054919096166001600160a01b03199190911617909455928301518493919283917fe08ec2af2cfc251225e1968fd6ca21e4044f129bffa95bac3503be8bdb30a36990910190610f109082612afd565b5060a0820151600382015560c0820151600482015560e0909101516005909101556020828101518051600684015581015160078301556040808401518051600885015582015160098401556060808501518051600a86015580840151600b86015580830151600c860155810151600d8501805460ff191691151591909117905560808501518051600e860190815581850151600f8701559281015160108601559081015180519193610fca926011870192909101906124c6565b50505060a082015180516012830180546001600160a01b0319166001600160a01b039092169190911790556020810151601383015560400151601482015560c0820151601582015560e0909101516016909101805460ff191691151591909117905560ff5461103b90600190612a2e565b9a9950505050505050505050565b6001600160a01b037f00000000000000000000000000000000000000000000000000000000000000001630036110915760405162461bcd60e51b8152600401610a1690612bbd565b7f00000000000000000000000000000000000000000000000000000000000000006001600160a01b03166110da600080516020612d24833981519152546001600160a01b031690565b6001600160a01b0316146111005760405162461bcd60e51b8152600401610a1690612c09565b61110981611c55565b6040805160008082526020820190925261112591839190611c5d565b50565b61010b54600090815b8181101561118257600061010b828154811061114f5761114f612a02565b6000918252602090912001546001600160a01b0316905061116f816116c9565b50508061117b90612a57565b9050611131565b50600191505090565b6001600160a01b037f00000000000000000000000000000000000000000000000000000000000000001630036111d35760405162461bcd60e51b8152600401610a1690612bbd565b7f00000000000000000000000000000000000000000000000000000000000000006001600160a01b031661121c600080516020612d24833981519152546001600160a01b031690565b6001600160a01b0316146112425760405162461bcd60e51b8152600401610a1690612c09565b61124b82611c55565b6102e882826001611c5d565b6000306001600160a01b037f000000000000000000000000000000000000000000000000000000000000000016146112f75760405162461bcd60e51b815260206004820152603860248201527f555550535570677261646561626c653a206d757374206e6f742062652063616c60448201527f6c6564207468726f7567682064656c656761746563616c6c00000000000000006064820152608401610a16565b50600080516020612d2483398151915290565b611312611985565b600060ff838154811061132757611327612a02565b906000526020600020906017020190508060120160020154821161138d5760405162461bcd60e51b815260206004820152601860248201527f63616e206f6e6c7920657874656e6420656e642074696d6500000000000000006044820152606401610a16565b6014015550565b60008060ff83815481106113aa576113aa612a02565b6000918252602090912060408051610200810190915260179092020180546001600160a01b038082166101008501908152600160a01b830460ff16610120860152600160a81b90920461ffff16610140850152600183015416610160840152600282018054849291849161018085019190611424906129c8565b80601f0160208091040260200160405190810160405280929190818152602001828054611450906129c8565b801561149d5780601f106114725761010080835404028352916020019161149d565b820191906000526020600020905b81548152906001019060200180831161148057829003601f168201915b505050918352505060038201546020808301919091526004830154604080840191909152600590930154606092830152928452815180830183526006860154815260078601548185015284840152815180830183526008860154815260098601548185015284830152815160808082018452600a8701548252600b87015482860152600c87015482850152600d87015460ff161515828401528583019190915282518082018452600e870180548252600f880154828701526010880154828601526011880180548651818902810189019097528087529390970196919590949386019392908301828280156115b157602002820191906000526020600020905b81548152602001906001019080831161159d575b505050919092525050508152604080516060808201835260128501546001600160a01b0316825260138501546020838101919091526014860154838501528085019290925260158501549284019290925260169093015460ff1615159101528181015190810151905191925061162691612c55565b815160c00151610bef9190612c55565b60006301e1338061271062093a8061164e8587612c68565b6116589190612c68565b6116629190612c7f565b610bef9190612c7f565b610101602052816000526040600020818154811061168957600080fd5b90600052602060002001600091509150505481565b61010b81815481106116af57600080fd5b6000918252602090912001546001600160a01b0316905081565b60006116d36119df565b336000908152610105602090815260408083206001600160a01b0386168452909152902054801561176757336000818152610105602090815260408083206001600160a01b03881680855292528220919091556117309183611dcd565b5060405181815233907fbf7aaef98dccc47249def450ef0fd30757d553648a28fa7cd56e3b2b052724949060200160405180910390a25b6001915050610c20600160ca55565b6034546001600160a01b031633146117df5760405162461bcd60e51b815260206004820152602660248201527f6f6e6c792070656e64696e67206f776e65722063616e2061636365707420747260448201526530b739b332b960d11b6064820152608401610a16565b6034546117f4906001600160a01b0316611e33565b565b6000611800611985565b6001600160a01b0383166000908152610103602090815260408083205461010483528184205461010290935290832054909161183b91612c55565b6118459190612c55565b6001600160a01b0385166000818152610102602090815260408083208390556101038252808320839055610104909152812055909150611886908483611dcd565b5060019150505b92915050565b600061189d611985565b61010b5460005b81811015610beb57600061010b82815481106118c2576118c2612a02565b6000918252602090912001546001600160a01b031690506118e381866117f6565b5050806118ef90612a57565b90506118a4565b6118fe611985565b6001600160a01b0381166119635760405162461bcd60e51b815260206004820152602660248201527f4f776e61626c653a206e6577206f776e657220697320746865207a65726f206160448201526564647265737360d01b6064820152608401610a16565b603480546001600160a01b0319166001600160a01b0392909216919091179055565b6033546001600160a01b031633146117f45760405162461bcd60e51b815260206004820181905260248201527f4f776e61626c653a2063616c6c6572206973206e6f7420746865206f776e65726044820152606401610a16565b600260ca5403611a315760405162461bcd60e51b815260206004820152601f60248201527f5265656e7472616e637947756172643a207265656e7472616e742063616c6c006044820152606401610a16565b600260ca55565b600060ff8381548110611a4d57611a4d612a02565b600091825260208220601791909102016008810154600382015482549294508592611a839190600160a81b900461ffff16611636565b611a8d9190612a2e565b611a979190612c55565b60018301548354919250611ab9916001600160a01b0390811691163084611e90565b5080826008016000016000828254611ad19190612c55565b9091555060009050612710611ae86103e884612c68565b611af29190612c7f565b60148401546013850154601286015460405163fc76fff360e01b815260048101859052602481019390935260448301919091526001600160a01b031660648201529091506000908190819073__$4defa815a6c8401eda00ac6be9b95d3cdb$__9063fc76fff390608401606060405180830381865af4158015611b79573d6000803e3d6000fd5b505050506040513d601f19601f82011682018060405250810190611b9d9190612ca1565b885492955090935091506001600160a01b0316611bbb828285611ed7565b6001600160a01b0381166000908152610103602052604081208054869290611be4908490612c55565b9091555060009050611bf68688612a2e565b905080886008016001016000828254611c0f9190612c55565b90915550506040518781528a907fadb049ad2d09be3db90459a16aef1ad0a4d89e8fdcc1ade9429d6cc55abbcd2b9060200160405180910390a250505050505050505050565b611125611985565b7f4910fdfa16fed3260ed0e7147f7cc6da11a60208b5b9406d12a635614ffd91435460ff1615611c9557611c9083611f28565b505050565b826001600160a01b03166352d1902d6040518163ffffffff1660e01b8152600401602060405180830381865afa925050508015611cef575060408051601f3d908101601f19168201909252611cec91810190612cda565b60015b611d525760405162461bcd60e51b815260206004820152602e60248201527f45524331393637557067726164653a206e657720696d706c656d656e7461746960448201526d6f6e206973206e6f74205555505360901b6064820152608401610a16565b600080516020612d248339815191528114611dc15760405162461bcd60e51b815260206004820152602960248201527f45524331393637557067726164653a20756e737570706f727465642070726f786044820152681a58589b195555525160ba1b6064820152608401610a16565b50611c90838383611fc4565b6040516001600160a01b038316602482015260448101829052600090610beb90859063a9059cbb60e01b906064015b60408051601f198184030181529190526020810180516001600160e01b03166001600160e01b031990931692909217909152611fef565b603380546001600160a01b038381166001600160a01b03198084168217909455603480549094169093556040519116919082907f8be0079c531659141344cd1fd0a4f28419497f9722a3daafe3b4186f6b6457e090600090a35050565b6040516001600160a01b0380851660248301528316604482015260648101829052600090611ecb9086906323b872dd60e01b90608401611dfc565b5060015b949350505050565b6001600160a01b03831615611c90576001600160a01b0380841660009081526101056020908152604080832093861683529290529081208054839290611f1e908490612c55565b9091555050505050565b6001600160a01b0381163b611f955760405162461bcd60e51b815260206004820152602d60248201527f455243313936373a206e657720696d706c656d656e746174696f6e206973206e60448201526c1bdd08184818dbdb9d1c9858dd609a1b6064820152608401610a16565b600080516020612d2483398151915280546001600160a01b0319166001600160a01b0392909216919091179055565b611fcd836120c1565b600082511180611fda5750805b15611c9057611fe98383612101565b50505050565b6000612044826040518060400160405280602081526020017f5361666545524332303a206c6f772d6c6576656c2063616c6c206661696c6564815250856001600160a01b03166121f59092919063ffffffff16565b805190915015611c9057808060200190518101906120629190612cf3565b611c905760405162461bcd60e51b815260206004820152602a60248201527f5361666545524332303a204552433230206f7065726174696f6e20646964206e6044820152691bdd081cdd58d8d9595960b21b6064820152608401610a16565b6120ca81611f28565b6040516001600160a01b038216907fbc7cd75a20ee27fd9adebab32041f755214dbc6bffa90cc0225b39da2e5c2d3b90600090a250565b60606001600160a01b0383163b6121695760405162461bcd60e51b815260206004820152602660248201527f416464726573733a2064656c65676174652063616c6c20746f206e6f6e2d636f6044820152651b9d1c9858dd60d21b6064820152608401610a16565b600080846001600160a01b0316846040516121849190612a70565b600060405180830381855af49150503d80600081146121bf576040519150601f19603f3d011682016040523d82523d6000602084013e6121c4565b606091505b50915091506121ec8282604051806060016040528060278152602001612d4460279139612204565b95945050505050565b6060611ecf848460008561221d565b60608315612213575081610bef565b610bef83836122f8565b60608247101561227e5760405162461bcd60e51b815260206004820152602660248201527f416464726573733a20696e73756666696369656e742062616c616e636520666f6044820152651c8818d85b1b60d21b6064820152608401610a16565b600080866001600160a01b0316858760405161229a9190612a70565b60006040518083038185875af1925050503d80600081146122d7576040519150601f19603f3d011682016040523d82523d6000602084013e6122dc565b606091505b50915091506122ed87838387612322565b979650505050505050565b8151156123085781518083602001fd5b8060405162461bcd60e51b8152600401610a169190612d10565b6060831561239157825160000361238a576001600160a01b0385163b61238a5760405162461bcd60e51b815260206004820152601d60248201527f416464726573733a2063616c6c20746f206e6f6e2d636f6e74726163740000006044820152606401610a16565b5081611ecf565b611ecf83836122f8565b6040805161020081019091526000610100820181815261012083018290526101408301829052610160830182905260606101808401526101a083018290526101c083018290526101e08301919091528190815260200161240e604051806040016040528060008152602001600081525090565b8152602001612430604051806040016040528060008152602001600081525090565b815260200161246260405180608001604052806000815260200160008152602001600081526020016000151581525090565b81526020016124926040518060800160405280600081526020016000815260200160008152602001606081525090565b8152604080516060810182526000808252602082810182905292820152910190815260006020820181905260409091015290565b828054828255906000526020600020908101928215612501579160200282015b828111156125015782518255916020019190600101906124e6565b5061250d929150612511565b5090565b5b8082111561250d5760008155600101612512565b6001600160a01b038116811461112557600080fd5b6000806040838503121561254e57600080fd5b823561255981612526565b9150602083013561256981612526565b809150509250929050565b6000806040838503121561258757600080fd5b50508035926020909101359150565b6000602082840312156125a857600080fd5b5035919050565b60005b838110156125ca5781810151838201526020016125b2565b50506000910152565b600081518084526125eb8160208601602086016125af565b601f01601f19169290920160200192915050565b60006080830182518452602080840151818601526040840151604086015260608401516080606087015282815180855260a0880191508383019450600092505b8083101561265f578451825293830193600192909201919083019061263f565b509695505050505050565b6101e080825289516001600160a01b039081169183019190915260208a015160ff1661020083015260408a015161ffff1661022083015260608a01511661024082015260808901516101006102608301526000906126cc6102e08401826125d3565b905060a08b015161028084015260c08b01516102a084015260e08b01516102c0840152612706602084018b80518252602090810151910152565b8851606084015260208901516080840152875160a0840152602088015160c0840152604088015160e08401526060880151151561010084015282810361012084015261275281886125ff565b86516001600160a01b03166101408501526020870151610160850152604087015161018085015291506127829050565b836101a08301526127986101c083018415159052565b9998505050505050505050565b600080604083850312156127b857600080fd5b82356127c381612526565b946020939093013593505050565b801515811461112557600080fd5b6000806000606084860312156127f457600080fd5b83356127ff81612526565b9250602084013561280f816127d1565b929592945050506040919091013590565b634e487b7160e01b600052604160045260246000fd5b600067ffffffffffffffff8084111561285157612851612820565b604051601f8501601f19908116603f0116810190828211818310171561287957612879612820565b8160405280935085815286868601111561289257600080fd5b858560208301376000602087830101525050509392505050565b60008060008060008060c087890312156128c557600080fd5b86356128d081612526565b955060208701356128e081612526565b9450604087013567ffffffffffffffff8111156128fc57600080fd5b8701601f8101891361290d57600080fd5b61291c89823560208401612836565b945050606087013561292d81612526565b9598949750929560808101359460a0909101359350915050565b60006020828403121561295957600080fd5b8135610bef81612526565b6000806040838503121561297757600080fd5b823561298281612526565b9150602083013567ffffffffffffffff81111561299e57600080fd5b8301601f810185136129af57600080fd5b6129be85823560208401612836565b9150509250929050565b600181811c908216806129dc57607f821691505b6020821081036129fc57634e487b7160e01b600052602260045260246000fd5b50919050565b634e487b7160e01b600052603260045260246000fd5b634e487b7160e01b600052601160045260246000fd5b8181038181111561188d5761188d612a18565b634e487b7160e01b600052603160045260246000fd5b600060018201612a6957612a69612a18565b5060010190565b60008251612a828184602087016125af565b9190910192915050565b600060208284031215612a9e57600080fd5b815160ff81168114610bef57600080fd5b601f821115611c9057600081815260208120601f850160051c81016020861015612ad65750805b601f850160051c820191505b81811015612af557828155600101612ae2565b505050505050565b815167ffffffffffffffff811115612b1757612b17612820565b612b2b81612b2584546129c8565b84612aaf565b602080601f831160018114612b605760008415612b485750858301515b600019600386901b1c1916600185901b178555612af5565b600085815260208120601f198616915b82811015612b8f57888601518255948401946001909101908401612b70565b5085821015612bad5787850151600019600388901b60f8161c191681555b5050505050600190811b01905550565b6020808252602c908201527f46756e6374696f6e206d7573742062652063616c6c6564207468726f7567682060408201526b19195b1959d85d1958d85b1b60a21b606082015260800190565b6020808252602c908201527f46756e6374696f6e206d7573742062652063616c6c6564207468726f7567682060408201526b6163746976652070726f787960a01b606082015260800190565b8082018082111561188d5761188d612a18565b808202811582820484141761188d5761188d612a18565b600082612c9c57634e487b7160e01b600052601260045260246000fd5b500490565b600080600060608486031215612cb657600080fd5b83519250602084015191506040840151612ccf81612526565b809150509250925092565b600060208284031215612cec57600080fd5b5051919050565b600060208284031215612d0557600080fd5b8151610bef816127d1565b602081526000610bef60208301846125d356fe360894a13ba1a3210667c828492db98dca3e2076cc3735a920a3ca505d382bbc416464726573733a206c6f772d6c6576656c2064656c65676174652063616c6c206661696c6564a2646970667358221220bb4b519eeca472b41d09184bd1887dce1803f40bef4744f4f67c26cddd587d7f64736f6c63430008110033",
    "linkReferences": {
      "src/lib/SaloonLib.sol": {
        "SaloonLib": [
          {
            "start": 7051,
            "length": 20
          }
        ]
      }
    }
  },
  "methodIdentifiers": {
    "acceptOwnershipTransfer()": "b842e87f",
    "activeStrategies(uint256)": "b20b2429",
    "activeTokens(uint256)": "9f224f35",
    "addNewBountyPool(address,address,string,address,uint256,uint256)": "32fce602",
    "billPremium(uint256)": "2dbe051e",
    "calcRequiredPremiumBalancePerPeriod(uint256,uint256)": "836ef1fa",
    "collectAllReferralProfits()": "3e8888d9",
    "collectAllSaloonProfits(address)": "ecd7fbed",
    "collectReferralProfit(address)": "a089a520",
    "collectSaloonProfits(address,address)": "cf9564b9",
    "extendReferralPeriod(uint256,uint256)": "5de406dc",
    "minTokenStakeAmount(address)": "39458723",
    "nftInfo(uint256)": "1f8bc790",
    "owner()": "8da5cb5b",
    "pidNFTList(uint256,uint256)": "96ea48e8",
    "pidStrategies(uint256,bytes32)": "074ecf03",
    "poolInfo(uint256)": "1526fe27",
    "proxiableUUID()": "52d1902d",
    "receiveStrategyYield(address,uint256)": "1aebcecb",
    "referralBalances(address,address)": "011b408b",
    "saloonBounty()": "79923898",
    "saloonBountyProfit(address)": "e45abd0f",
    "saloonManager()": "220e1124",
    "saloonPremiumProfit(address)": "ca006148",
    "saloonProjectPortal()": "277fd2a1",
    "saloonStrategyProfit(address)": "598d17bf",
    "strategyAddressToPid(address)": "957deecc",
    "tokenWhitelist(address)": "753d7563",
    "transferOwnership(address)": "f2fde38b",
    "updateTokenWhitelist(address,bool,uint256)": "2cb0dfcc",
    "upgradeTo(address)": "3659cfe6",
    "upgradeToAndCall(address,bytes)": "4f1ef286",
    "viewBountyBalance(uint256)": "6ac6d812"
  },
  "id": 48
}