{
  "abi": [
    {
      "inputs": [
        {
          "internalType": "bytes4",
          "name": "_selector",
          "type": "bytes4"
        }
      ],
      "name": "facetAddress",
      "outputs": [
        {
          "internalType": "address",
          "name": "",
          "type": "address"
        }
      ],
      "stateMutability": "view",
      "type": "function"
    },
    {
      "inputs": [],
      "name": "facetAddresses",
      "outputs": [
        {
          "internalType": "address[]",
          "name": "",
          "type": "address[]"
        }
      ],
      "stateMutability": "view",
      "type": "function"
    },
    {
      "inputs": [
        {
          "internalType": "address",
          "name": "_facet",
          "type": "address"
        }
      ],
      "name": "facetFunctionSelectors",
      "outputs": [
        {
          "internalType": "bytes4[]",
          "name": "",
          "type": "bytes4[]"
        }
      ],
      "stateMutability": "view",
      "type": "function"
    },
    {
      "inputs": [],
      "name": "facets",
      "outputs": [
        {
          "components": [
            {
              "internalType": "address",
              "name": "addr",
              "type": "address"
            },
            {
              "internalType": "bytes4[]",
              "name": "selectors",
              "type": "bytes4[]"
            }
          ],
          "internalType": "struct IGetters.Facet[]",
          "name": "result",
          "type": "tuple[]"
        }
      ],
      "stateMutability": "view",
      "type": "function"
    },
    {
      "inputs": [],
      "name": "getCurrentProposalId",
      "outputs": [
        {
          "internalType": "uint256",
          "name": "",
          "type": "uint256"
        }
      ],
      "stateMutability": "view",
      "type": "function"
    },
    {
      "inputs": [],
      "name": "getLastDiamondFreezeTimestamp",
      "outputs": [
        {
          "internalType": "uint256",
          "name": "",
          "type": "uint256"
        }
      ],
      "stateMutability": "view",
      "type": "function"
    },
    {
      "inputs": [],
      "name": "getOwner",
      "outputs": [
        {
          "internalType": "address",
          "name": "",
          "type": "address"
        }
      ],
      "stateMutability": "view",
      "type": "function"
    },
    {
      "inputs": [],
      "name": "getPendingOwner",
      "outputs": [
        {
          "internalType": "address",
          "name": "",
          "type": "address"
        }
      ],
      "stateMutability": "view",
      "type": "function"
    },
    {
      "inputs": [],
      "name": "getProposedDiamondCutHash",
      "outputs": [
        {
          "internalType": "bytes32",
          "name": "",
          "type": "bytes32"
        }
      ],
      "stateMutability": "view",
      "type": "function"
    },
    {
      "inputs": [],
      "name": "getProposedDiamondCutTimestamp",
      "outputs": [
        {
          "internalType": "uint256",
          "name": "",
          "type": "uint256"
        }
      ],
      "stateMutability": "view",
      "type": "function"
    },
    {
      "inputs": [],
      "name": "getSecurityCouncilEmergencyApprovals",
      "outputs": [
        {
          "internalType": "uint256",
          "name": "",
          "type": "uint256"
        }
      ],
      "stateMutability": "view",
      "type": "function"
    },
    {
      "inputs": [
        {
          "internalType": "address",
          "name": "_address",
          "type": "address"
        }
      ],
      "name": "getSecurityCouncilMemberLastApprovedProposalId",
      "outputs": [
        {
          "internalType": "uint256",
          "name": "",
          "type": "uint256"
        }
      ],
      "stateMutability": "view",
      "type": "function"
    },
    {
      "inputs": [],
      "name": "isDiamondStorageFrozen",
      "outputs": [
        {
          "internalType": "bool",
          "name": "",
          "type": "bool"
        }
      ],
      "stateMutability": "view",
      "type": "function"
    },
    {
      "inputs": [
        {
          "internalType": "address",
          "name": "_facet",
          "type": "address"
        }
      ],
      "name": "isFacetFreezable",
      "outputs": [
        {
          "internalType": "bool",
          "name": "isFreezable",
          "type": "bool"
        }
      ],
      "stateMutability": "view",
      "type": "function"
    },
    {
      "inputs": [
        {
          "internalType": "bytes4",
          "name": "_selector",
          "type": "bytes4"
        }
      ],
      "name": "isFunctionFreezable",
      "outputs": [
        {
          "internalType": "bool",
          "name": "",
          "type": "bool"
        }
      ],
      "stateMutability": "view",
      "type": "function"
    },
    {
      "inputs": [
        {
          "internalType": "address",
          "name": "_address",
          "type": "address"
        }
      ],
      "name": "isSecurityCouncilMember",
      "outputs": [
        {
          "internalType": "bool",
          "name": "",
          "type": "bool"
        }
      ],
      "stateMutability": "view",
      "type": "function"
    }
  ],
  "bytecode": {
    "object": "0x608060405234801561001057600080fd5b5061092f806100206000396000f3fe608060405234801561001057600080fd5b50600436106101005760003560e01c8063adfca15e11610097578063cdffacc611610066578063cdffacc61461024a578063e81e0ba11461028a578063f8457def1461029d578063fe10226d146102a557600080fd5b8063adfca15e14610207578063c3bbd2d714610227578063c88820781461023a578063c9db75e21461024257600080fd5b806352ef6b2c116100d357806352ef6b2c146101a75780637a0ed627146101bc578063893d20e8146101d157806393596c7b146101f657600080fd5b806329b98c67146101055780632ac8a25f1461014057806330518ef91461016c57806333642e231461017e575b600080fd5b7fc8fcad8db84d3cc18b4c41d551ea0ee66dd599cde068d998e57d5e09332c131e5460ff165b60405190151581526020015b60405180910390f35b61012b61014e366004610711565b6001600160a01b031660009081526004602052604090205460ff1690565b6001545b604051908152602001610137565b61017061018c366004610711565b6001600160a01b031660009081526005602052604090205490565b6101af6102ad565b6040516101379190610741565b6101c4610320565b604051610137919061078e565b6007546001600160a01b03165b6040516001600160a01b039091168152602001610137565b6008546001600160a01b03166101de565b61021a610215366004610711565b6104f0565b6040516101379190610841565b61012b610235366004610711565b6105bc565b600054610170565b600254610170565b6101de610258366004610883565b6001600160e01b03191660009081526000805160206108da83398151915260205260409020546001600160a01b031690565b61012b610298366004610883565b61067f565b600654610170565b600354610170565b606060006000805160206108da8339815191526002810180546040805160208084028201810190925282815293945083018282801561031557602002820191906000526020600020905b81546001600160a01b031681526001909101906020018083116102f7575b505050505091505090565b7fc8fcad8db84d3cc18b4c41d551ea0ee66dd599cde068d998e57d5e09332c131d546060906000805160206108da833981519152908067ffffffffffffffff81111561036e5761036e6108ad565b6040519080825280602002602001820160405280156103b457816020015b60408051808201909152600081526060602082015281526020019060019003908161038c5790505b50925060005b818110156104ea5760008360020182815481106103d9576103d96108c3565b60009182526020808320909101546001600160a01b031680835260018701825260408084208151815460609581028201860184529281018381529396509390928492909184919084018282801561047c57602002820191906000526020600020906000905b82829054906101000a900460e01b6001600160e01b0319168152602001906004019060208260030104928301926001038202915080841161043e5790505b50505091835250506001919091015461ffff16602091820152604080518082019091526001600160a01b03851681528251918101919091528751919250908790859081106104cc576104cc6108c3565b602002602001018190525050506104e38160010190565b90506103ba565b50505090565b6001600160a01b03811660009081527fc8fcad8db84d3cc18b4c41d551ea0ee66dd599cde068d998e57d5e09332c131c602090815260409182902080548351818402810184019094528084526060936000805160206108da83398151915293909291908301828280156105af57602002820191906000526020600020906000905b82829054906101000a900460e01b6001600160e01b031916815260200190600401906020826003010492830192600103820291508084116105715790505b5050505050915050919050565b6001600160a01b03811660009081527fc8fcad8db84d3cc18b4c41d551ea0ee66dd599cde068d998e57d5e09332c131c60205260408120546000805160206108da833981519152908015610678576001600160a01b0384166000908152600183016020526040812080548290610634576106346108c3565b6000918252602080832060088304015460079092166004026101000a90910460e01b6001600160e01b03191682528490526040902054600160b01b900460ff169350505b5050919050565b6001600160e01b0319811660009081526000805160206108da833981519152602081905260408220546001600160a01b03166106e65760405162461bcd60e51b8152602060048201526002602482015261339960f11b604482015260640160405180910390fd5b6001600160e01b0319909216600090815260209290925250604090205460ff600160b01b9091041690565b60006020828403121561072357600080fd5b81356001600160a01b038116811461073a57600080fd5b9392505050565b6020808252825182820181905260009190848201906040850190845b818110156107825783516001600160a01b03168352928401929184019160010161075d565b50909695505050505050565b60006020808301818452808551808352604092508286019150828160051b8701018488016000805b8481101561083257898403603f19018652825180516001600160a01b03168552880151888501889052805188860181905290890190839060608701905b8083101561081d5783516001600160e01b0319168252928b019260019290920191908b01906107f3565b50978a019795505050918701916001016107b6565b50919998505050505050505050565b6020808252825182820181905260009190848201906040850190845b818110156107825783516001600160e01b0319168352928401929184019160010161085d565b60006020828403121561089557600080fd5b81356001600160e01b03198116811461073a57600080fd5b634e487b7160e01b600052604160045260246000fd5b634e487b7160e01b600052603260045260246000fdfec8fcad8db84d3cc18b4c41d551ea0ee66dd599cde068d998e57d5e09332c131ba2646970667358221220edaf47acb1bf4471c0cb7e14341ef39bc671223d00f4eee5fb6dba2fd55f54e564736f6c63430008130033",
    "linkReferences": {}
  },
  "methodIdentifiers": {
    "facetAddress(bytes4)": "cdffacc6",
    "facetAddresses()": "52ef6b2c",
    "facetFunctionSelectors(address)": "adfca15e",
    "facets()": "7a0ed627",
    "getCurrentProposalId()": "fe10226d",
    "getLastDiamondFreezeTimestamp()": "c9db75e2",
    "getOwner()": "893d20e8",
    "getPendingOwner()": "93596c7b",
    "getProposedDiamondCutHash()": "c8882078",
    "getProposedDiamondCutTimestamp()": "30518ef9",
    "getSecurityCouncilEmergencyApprovals()": "f8457def",
    "getSecurityCouncilMemberLastApprovedProposalId(address)": "33642e23",
    "isDiamondStorageFrozen()": "29b98c67",
    "isFacetFreezable(address)": "c3bbd2d7",
    "isFunctionFreezable(bytes4)": "e81e0ba1",
    "isSecurityCouncilMember(address)": "2ac8a25f"
  },
  "id": 51
}