{
  "abi": [
    {
      "inputs": [
        {
          "internalType": "uint256",
          "name": "num",
          "type": "uint256"
        },
        {
          "internalType": "uint256",
          "name": "digit",
          "type": "uint256"
        },
        {
          "internalType": "uint256",
          "name": "positionOfChop",
          "type": "uint256"
        }
      ],
      "name": "chopAndRound",
      "outputs": [
        {
          "internalType": "uint256",
          "name": "chopped",
          "type": "uint256"
        }
      ],
      "stateMutability": "pure",
      "type": "function"
    },
    {
      "inputs": [
        {
          "internalType": "uint256",
          "name": "x",
          "type": "uint256"
        }
      ],
      "name": "convert30To18DP",
      "outputs": [
        {
          "internalType": "uint256",
          "name": "y",
          "type": "uint256"
        }
      ],
      "stateMutability": "pure",
      "type": "function"
    },
    {
      "inputs": [
        {
          "internalType": "uint256",
          "name": "x",
          "type": "uint256"
        }
      ],
      "name": "convert30To20DP",
      "outputs": [
        {
          "internalType": "uint256",
          "name": "y",
          "type": "uint256"
        }
      ],
      "stateMutability": "pure",
      "type": "function"
    },
    {
      "inputs": [
        {
          "internalType": "uint256",
          "name": "x",
          "type": "uint256"
        }
      ],
      "name": "convert38To18DP",
      "outputs": [
        {
          "internalType": "uint256",
          "name": "y",
          "type": "uint256"
        }
      ],
      "stateMutability": "pure",
      "type": "function"
    },
    {
      "inputs": [
        {
          "internalType": "uint256",
          "name": "x",
          "type": "uint256"
        }
      ],
      "name": "convert38To30DP",
      "outputs": [
        {
          "internalType": "uint256",
          "name": "y",
          "type": "uint256"
        }
      ],
      "stateMutability": "pure",
      "type": "function"
    },
    {
      "inputs": [
        {
          "internalType": "uint256",
          "name": "num",
          "type": "uint256"
        }
      ],
      "name": "countDigits",
      "outputs": [
        {
          "internalType": "uint256",
          "name": "",
          "type": "uint256"
        }
      ],
      "stateMutability": "view",
      "type": "function"
    },
    {
      "inputs": [
        {
          "internalType": "uint256",
          "name": "x",
          "type": "uint256"
        },
        {
          "internalType": "uint256",
          "name": "y",
          "type": "uint256"
        }
      ],
      "name": "decDiv18",
      "outputs": [
        {
          "internalType": "uint256",
          "name": "decQuotient",
          "type": "uint256"
        }
      ],
      "stateMutability": "pure",
      "type": "function"
    },
    {
      "inputs": [
        {
          "internalType": "uint256",
          "name": "x",
          "type": "uint256"
        },
        {
          "internalType": "uint256",
          "name": "y",
          "type": "uint256"
        }
      ],
      "name": "decMul18",
      "outputs": [
        {
          "internalType": "uint256",
          "name": "decProd",
          "type": "uint256"
        }
      ],
      "stateMutability": "pure",
      "type": "function"
    },
    {
      "inputs": [
        {
          "internalType": "uint256",
          "name": "x",
          "type": "uint256"
        },
        {
          "internalType": "uint256",
          "name": "y",
          "type": "uint256"
        }
      ],
      "name": "decMul30",
      "outputs": [
        {
          "internalType": "uint256",
          "name": "decProd",
          "type": "uint256"
        }
      ],
      "stateMutability": "pure",
      "type": "function"
    },
    {
      "inputs": [
        {
          "internalType": "uint256",
          "name": "x",
          "type": "uint256"
        },
        {
          "internalType": "uint256",
          "name": "y",
          "type": "uint256"
        }
      ],
      "name": "decMul38",
      "outputs": [
        {
          "internalType": "uint256",
          "name": "decProd",
          "type": "uint256"
        }
      ],
      "stateMutability": "pure",
      "type": "function"
    },
    {
      "inputs": [
        {
          "internalType": "uint256",
          "name": "x",
          "type": "uint256"
        }
      ],
      "name": "exp",
      "outputs": [
        {
          "internalType": "uint256",
          "name": "num",
          "type": "uint256"
        }
      ],
      "stateMutability": "view",
      "type": "function"
    },
    {
      "inputs": [
        {
          "internalType": "uint256",
          "name": "x",
          "type": "uint256"
        }
      ],
      "name": "exp_taylor",
      "outputs": [
        {
          "internalType": "uint256",
          "name": "",
          "type": "uint256"
        }
      ],
      "stateMutability": "pure",
      "type": "function"
    },
    {
      "inputs": [
        {
          "internalType": "uint256",
          "name": "x",
          "type": "uint256"
        }
      ],
      "name": "floor",
      "outputs": [
        {
          "internalType": "uint256",
          "name": "num",
          "type": "uint256"
        }
      ],
      "stateMutability": "pure",
      "type": "function"
    },
    {
      "inputs": [
        {
          "internalType": "uint256",
          "name": "x",
          "type": "uint256"
        },
        {
          "internalType": "uint256",
          "name": "accuracy",
          "type": "uint256"
        }
      ],
      "name": "ln",
      "outputs": [
        {
          "internalType": "uint256",
          "name": "",
          "type": "uint256"
        }
      ],
      "stateMutability": "view",
      "type": "function"
    },
    {
      "inputs": [
        {
          "internalType": "uint256",
          "name": "x",
          "type": "uint256"
        },
        {
          "internalType": "uint256",
          "name": "accuracy",
          "type": "uint256"
        }
      ],
      "name": "log_2",
      "outputs": [
        {
          "internalType": "uint256",
          "name": "",
          "type": "uint256"
        }
      ],
      "stateMutability": "view",
      "type": "function"
    },
    {
      "inputs": [
        {
          "internalType": "uint256",
          "name": "base",
          "type": "uint256"
        },
        {
          "internalType": "uint256",
          "name": "x",
          "type": "uint256"
        }
      ],
      "name": "pow",
      "outputs": [
        {
          "internalType": "uint256",
          "name": "power",
          "type": "uint256"
        }
      ],
      "stateMutability": "view",
      "type": "function"
    },
    {
      "inputs": [
        {
          "internalType": "uint256",
          "name": "x",
          "type": "uint256"
        }
      ],
      "name": "pow2",
      "outputs": [
        {
          "internalType": "uint256",
          "name": "",
          "type": "uint256"
        }
      ],
      "stateMutability": "view",
      "type": "function"
    },
    {
      "inputs": [
        {
          "internalType": "uint256",
          "name": "x",
          "type": "uint256"
        },
        {
          "internalType": "uint256",
          "name": "n",
          "type": "uint256"
        }
      ],
      "name": "powBySquare",
      "outputs": [
        {
          "internalType": "uint256",
          "name": "",
          "type": "uint256"
        }
      ],
      "stateMutability": "pure",
      "type": "function"
    },
    {
      "inputs": [
        {
          "internalType": "uint256",
          "name": "base",
          "type": "uint256"
        },
        {
          "internalType": "uint256",
          "name": "n",
          "type": "uint256"
        }
      ],
      "name": "powBySquare18",
      "outputs": [
        {
          "internalType": "uint256",
          "name": "",
          "type": "uint256"
        }
      ],
      "stateMutability": "pure",
      "type": "function"
    },
    {
      "inputs": [
        {
          "internalType": "uint256",
          "name": "base",
          "type": "uint256"
        },
        {
          "internalType": "uint256",
          "name": "n",
          "type": "uint256"
        }
      ],
      "name": "powBySquare38",
      "outputs": [
        {
          "internalType": "uint256",
          "name": "",
          "type": "uint256"
        }
      ],
      "stateMutability": "pure",
      "type": "function"
    },
    {
      "inputs": [],
      "name": "setLUT1",
      "outputs": [],
      "stateMutability": "nonpayable",
      "type": "function"
    },
    {
      "inputs": [],
      "name": "setLUT2",
      "outputs": [],
      "stateMutability": "nonpayable",
      "type": "function"
    },
    {
      "inputs": [],
      "name": "setLUT3_1",
      "outputs": [],
      "stateMutability": "nonpayable",
      "type": "function"
    },
    {
      "inputs": [],
      "name": "setLUT3_2",
      "outputs": [],
      "stateMutability": "nonpayable",
      "type": "function"
    },
    {
      "inputs": [],
      "name": "setLUT3_3",
      "outputs": [],
      "stateMutability": "nonpayable",
      "type": "function"
    },
    {
      "inputs": [],
      "name": "setLUT3_4",
      "outputs": [],
      "stateMutability": "nonpayable",
      "type": "function"
    },
    {
      "inputs": [
        {
          "internalType": "uint256",
          "name": "",
          "type": "uint256"
        }
      ],
      "name": "table2_log_2",
      "outputs": [
        {
          "internalType": "uint256",
          "name": "",
          "type": "uint256"
        }
      ],
      "stateMutability": "view",
      "type": "function"
    },
    {
      "inputs": [
        {
          "internalType": "uint256",
          "name": "",
          "type": "uint256"
        }
      ],
      "name": "table_log_2",
      "outputs": [
        {
          "internalType": "uint256",
          "name": "",
          "type": "uint256"
        }
      ],
      "stateMutability": "view",
      "type": "function"
    },
    {
      "inputs": [
        {
          "internalType": "uint256",
          "name": "",
          "type": "uint256"
        },
        {
          "internalType": "uint256",
          "name": "",
          "type": "uint256"
        }
      ],
      "name": "table_pow2",
      "outputs": [
        {
          "internalType": "uint256",
          "name": "",
          "type": "uint256"
        }
      ],
      "stateMutability": "view",
      "type": "function"
    }
  ],
  "bytecode": {
    "object": "0x608060405261024e805465ffffffffffff1916905534801561002057600080fd5b50613fe2806100306000396000f3fe608060405234801561001057600080fd5b50600436106101cf5760003560e01c806364ce07d811610104578063b2f21109116100a2578063e5ac571711610071578063e5ac571714611eab578063e92fab3b14612680578063f7523c5214612693578063fed6bde0146126a657600080fd5b8063b2f2110914611e5f578063b581fbe314611e72578063d3f87aae14611e85578063dc1a1e0914611e9857600080fd5b80638e962c70116100de5780638e962c70146118905780639636c762146118a3578063a2693515146118b6578063a463a087146118c957600080fd5b806364ce07d81461185757806378b09c471461186a5780638d5dab351461187d57600080fd5b8063422b0d8d11610171578063504f5e561161014b578063504f5e561461180b57806358be7a891461181e578063595a8d07146118315780636172f4671461184457600080fd5b8063422b0d8d146117d2578063442b7ffb146117e557806344f7787f146117f857600080fd5b806326a4c99f116101ad57806326a4c99f14610a595780632e4c697f14610fe8578063344d009514610ffb57806334eceac0146117bf57600080fd5b80631ea97975146101d457806322aa59fc146101f95780632443342614610a46575b600080fd5b6101e76101e2366004613d12565b612e68565b60405190815260200160405180910390f35b6b012ced32a16a1b11e826288960261b60c88190556f50a19b26283d0b34e82c419e778521b360c9556f566b2026a35e43fb189e7d9afd311ca060ca556f5c9efa9a30c4933df96ffc0f774a744c60cb556f6344cc47e6d8d888a38d43e4480b40f760cc556f6a64c33195499e0731ba5be94803fff160cd556f7207a3a4586c4cc4064088ea4276fb5c60ce556f7a36d3021aa31ad13619f68058eab61160cf556f82fc635149ae40556949b9c77aaeb7d460d0556f8c631fa0f9b00c8830bcc92f66a8cdfd60d15560d28190556f4bc1422ac6aec230a72fd844c9aea33160d3556f4c482634ef728f0d43fd3e29706e261860d4556f4ccffa6f902e802e1ef5c9a8be84d8ea60d5556f4d58c08658883da39409ffd3360b2db760d6556f4de27a27f1b16b3aea7b151d4596edfd60d7556f4e6d290603b3af2ce3f021430787e70760d8556f4ef8ced53ac6275dc7b0d659adfe49d160d9556f4f856d4d4cac5dfa583fd57df7f3724d60da556f50130628fe1ece5b09368f0bf71dde1e60db5560dc8190556f4b48a7525f322bd41641432d1b296e5360dd556f4b56045b3a41b4a74901ff728163244460de556f4b6363c3576d2eaf8e9404badf6fc66760df556f4b70c58b227f889075c56e7d93fd891760e0556f4b7e29b30756d33a10e6f73c041cb39460e1556f4b8b903b71e4454e7183b4c100273dc560e2556f4b98f924ce2c3e87be6fbfff18a1b52460e3556f4ba6646f88464b1ee4492e06d6e1b2d460e4556f4bb3d21c0c5d2732e086c46abe5f89d160e55560e68190556f4b3ca26adc181e23c3f7c5dad355d41e60e7556f4b3df8336e326f421d274ed62dafe5a960e8556f4b3f4e0210f144a30d966466400a0ca060e9556f4b40a3d6c4702b91b501c642957c6b9e60ea556f4b41f9b188cab1d65c9dd779526b20ae60eb556f4b434f925e1c65b6794f335934ff081960ec556f4b44a5794480d5f4ade34c7284bc6be260ed556f4b45fb663c1391d0cd4915af1f0d4a9560ee556f4b47515944f02907dcc9b581ce95b07960ef5560f08190556f4b3b6ed5219f48be09db701ae9ef16d660f1556f4b3b9101f83e0ae41c67ff10bc60a57660f2556f4b3bb32ede6311f99a899a44d8e4e40260f3556f4b3bd55bd40e650be0ce2710494ba86160f4556f4b3bf788d9400b284ef7a6764a559e7960f5556f4b3c19b5edf80b5c47fc3698d70ebbb460f6556f4b3c3be312366cb53206142d34d1ee3360f7556f4b3c5e1045fb364076739bf07ff607e360f8556f4b3c803d89466f0b81d74c1c3923e5d560f95560fa8190556f4b3b50133a89943d50fdc16ee0f2f73e60fb556f4b3b537e1ab421ff687c5c6e8878520860fc556f4b3b56e8fb066dc21e3032644f2f78c360fd556f4b3b5a53db807787404397741c07de0b60fe556f4b3b5dbebc223f509ce0f4c0653523dd60ff556f4b3b61299cebc5200232c86a312340cc610100556f4b3b64947ddd08f73e63a591176aa541610101556f4b3b67ff5ef60ad81f9e345341c460c6610102556f4b3b6b6a4036cac4740d31cd6cfe475a610103556101048190556f4b3b4cffd7520f6c63dac18be5cb197f610105556f4b3b4d57541dc01c279c42b2eff446f4610106556f4b3b4daed0e9d6895544f6205530a6ca610107556f4b3b4e064db652b3ed4b2c3fd5cbfcb4610108556f4b3b4e5dca83349bf025357dbba8b251610109556f4b3b4eb547507c415e496246da3fd7ca61010a556f4b3b4f0cc41e29a4382e03088ea1247161010b556f4b3b4f6440ec3cc47e496830bf72f76061010c556f4b3b4fbbbdbab5a23111e22ddcf2582061010d5561010e8190556f4b3b4cb11a34adcb07707cfefb195abe61010f556f4b3b4cb9d9e298207996e81ff5da2db6610110556f4b3b4cc29990837a5ffd81ecc5e37ca1610111556f4b3b4ccb593e6fd8baa468af40d9d0ec610112556f4b3b4cd418ec5d3b898bbab13c6539b7610113556f4b3b4cdcd89a4ba2ccb3963c8e314bd5610114556f4b3b4ce598483b0e841c199b0bed21cc610115556f4b3b4cee57f62b7eafc563168b4b5bd4610116556f4b3b4cf717a41cf34faf90f8e2021fdb610117556101188190556f4b3b4ca93a7e8ef66a7f91d9c09f21a7610119556f4b3b4caa1a7659756638348adc3ec58c61011a556f4b3b4caafa6e23f6fcb40a5b13da368361011b556f4b3b4cabda65ee7b2df31352286cbf7261011c556f4b3b4cacba5db901f9f54f77daf1ab5a61011d556f4b3b4cad9a55838b60babed3ec64455261011e556f4b3b4cae7a4d4e176243616e1dbfd88861011f556f4b3b4caf5a4518a5fe8f374e2fffb040610120556f4b3b4cb03a3ce337359e407be41f17d6610121556101228190556f4b3b4ca870ec58b98ed4c5fde7bd3232610123556f4b3b4ca88751ecf91aca53344b52c275610124556f4b3b4ca89db78138ad6ac9e32cbcd88c610125556f4b3b4ca8b41d157846b62a0a8df79c37610126556f4b3b4ca8ca82a9b7e6ac73aa70ff3538610127556f4b3b4ca8e0e83df78d4da6c2d7cfcb4f610128556f4b3b4ca8f74dd2373a99c353c465863e610129556f4b3b4ca90db36676ee90c95d38bc8dc661012a556f4b3b4ca92418fab6a932b8df36d109a961012b5561012c556f4b3b4ca85cc42019fcf7fc9916c7068761012d556f4b3b4ca85f017bb9f076e8a405d0c2e361012e556f4b3b4ca8613ed759e406e660cd1db72a61012f556f4b3b4ca8637c32f9d7a7f5cf6cae6572610130556f4b3b4ca865b98e99cb5a16efe4834fd3610131556f4b3b4ca867f6ea39bf1d49c2349cf862610132556f4b3b4ca86a3445d9b2f18e465cfbe136610133556f4b3b4ca86c71a179a6d6e47c5da08c66610134556f4b3b4ca86eaefd199acd4c64368b7c086101355561024e805462ff0000191662010000179055005b005b6101e7610a54366004613d12565b612ec3565b6b012ced32a16a1b11e826288960261b6101fe8190556f4b3b4ca85a86c47a098a2240000a939b6101ff556f4b3b4ca85a86c47a098a224000152736610200556f4b3b4ca85a86c47a098a2240001fbad2610201556f4b3b4ca85a86c47a098a2240002a4e6d610202556f4b3b4ca85a86c47a098a22400034e208610203556f4b3b4ca85a86c47a098a2240003f75a3610204556f4b3b4ca85a86c47a098a2240004a093e610205556f4b3b4ca85a86c47a098a224000549cd9610206556f4b3b4ca85a86c47a098a2240005f3075610207556102088190556f4b3b4ca85a86c47a098a224000010ec3610209556f4b3b4ca85a86c47a098a224000021d8561020a556f4b3b4ca85a86c47a098a224000032c4861020b556f4b3b4ca85a86c47a098a224000043b0b61020c556f4b3b4ca85a86c47a098a2240000549ce61020d556f4b3b4ca85a86c47a098a22400006589061020e556f4b3b4ca85a86c47a098a22400007675361020f556f4b3b4ca85a86c47a098a224000087616610210556f4b3b4ca85a86c47a098a2240000984d8610211556102128190556f4b3b4ca85a86c47a098a224000001b13610213556f4b3b4ca85a86c47a098a224000003627610214556f4b3b4ca85a86c47a098a22400000513a610215556f4b3b4ca85a86c47a098a224000006c4e610216556f4b3b4ca85a86c47a098a224000008761610217556f4b3b4ca85a86c47a098a22400000a275610218556f4b3b4ca85a86c47a098a22400000bd88610219556f4b3b4ca85a86c47a098a22400000d89c61021a556f4b3b4ca85a86c47a098a22400000f3af61021b5561021c8190556f4b3b4ca85a86c47a098a2240000002b561021d556f4b3b4ca85a86c47a098a22400000056a61021e556f4b3b4ca85a86c47a098a22400000081f61021f556f4b3b4ca85a86c47a098a224000000ad5610220556f4b3b4ca85a86c47a098a224000000d8a610221556f4b3b4ca85a86c47a098a22400000103f610222556f4b3b4ca85a86c47a098a2240000012f4610223556f4b3b4ca85a86c47a098a2240000015a9610224556f4b3b4ca85a86c47a098a22400000185e610225556102268190556f4b3b4ca85a86c47a098a224000000045610227556f4b3b4ca85a86c47a098a22400000008b610228556f4b3b4ca85a86c47a098a2240000000d0610229556f4b3b4ca85a86c47a098a22400000011561022a556f4b3b4ca85a86c47a098a22400000015b61022b556f4b3b4ca85a86c47a098a2240000001a061022c556f4b3b4ca85a86c47a098a2240000001e561022d556f4b3b4ca85a86c47a098a22400000022b61022e556f4b3b4ca85a86c47a098a22400000027061022f556102308190556f4b3b4ca85a86c47a098a224000000007610231556f4b3b4ca85a86c47a098a22400000000e610232556f4b3b4ca85a86c47a098a224000000015610233556f4b3b4ca85a86c47a098a22400000001c610234556f4b3b4ca85a86c47a098a224000000023610235556f4b3b4ca85a86c47a098a22400000002a610236556f4b3b4ca85a86c47a098a224000000031610237556f4b3b4ca85a86c47a098a224000000037610238556f4b3b4ca85a86c47a098a22400000003e6102395561023a8190556f4b3b4ca85a86c47a098a22400000000161023b81905561023c8190556f4b3b4ca85a86c47a098a22400000000261023d556f4b3b4ca85a86c47a098a22400000000361023e81905561023f556f4b3b4ca85a86c47a098a224000000004610240556f4b3b4ca85a86c47a098a224000000005610241556f4b3b4ca85a86c47a098a2240000000066102428190556102435561024482905561024582905561024682905561024782905561024882905561024982905561024a82905561024b9190915561024c81905561024d5561024e805465ff0000000000191665010000000000179055005b6101e7610ff6366004613d2b565b612f01565b6b012ced32a16a1b11e826288960261b61019a8190556f4b3b4ca85a86c47a09a2c2630abe4edd61019b556f4b3b4ca85a86c47a09bb6286157c9dba61019c556f4b3b4ca85a86c47a09d402a9203aec9761019d556f4b3b4ca85a86c47a09eca2cc2af93b7461019e556f4b3b4ca85a86c47a0a0542ef35b78a5161019f556f4b3b4ca85a86c47a0a1de3124075d92f6101a0556f4b3b4ca85a86c47a0a3683354b34280c6101a1556f4b3b4ca85a86c47a0a4f235855f276e96101a2556f4b3b4ca85a86c47a0a67c37b60b0c5c66101a3556101a48190556f4b3b4ca85a86c47a098c98a9e7796e496101a5556f4b3b4ca85a86c47a098f0f13cef2dc936101a6556f4b3b4ca85a86c47a0991857db66c4adc6101a7556f4b3b4ca85a86c47a0993fbe79de5b9256101a8556f4b3b4ca85a86c47a09967251855f276f6101a9556f4b3b4ca85a86c47a0998e8bb6cd895b86101aa556f4b3b4ca85a86c47a099b5f25545204016101ab556f4b3b4ca85a86c47a099dd58f3bcb724a6101ac556f4b3b4ca85a86c47a09a04bf92344e0946101ad556101ae8190556f4b3b4ca85a86c47a098a614a9725be3b6101af556f4b3b4ca85a86c47a098aa0552e4b7c756101b0556f4b3b4ca85a86c47a098adf5fc5713ab06101b1556f4b3b4ca85a86c47a098b1e6a5c96f8ea6101b2556f4b3b4ca85a86c47a098b5d74f3bcb7256101b3556f4b3b4ca85a86c47a098b9c7f8ae2755f6101b4556f4b3b4ca85a86c47a098bdb8a2208339a6101b5556f4b3b4ca85a86c47a098c1a94b92df1d46101b6556f4b3b4ca85a86c47a098c599f5053b00f6101b7556101b88190556f4b3b4ca85a86c47a098a288ddbea2c9f6101b9556f4b3b4ca85a86c47a098a2edbb7d4593f6101ba556f4b3b4ca85a86c47a098a352993be85de6101bb556f4b3b4ca85a86c47a098a3b776fa8b27e6101bc556f4b3b4ca85a86c47a098a41c54b92df1d6101bd556f4b3b4ca85a86c47a098a4813277d0bbd6101be556f4b3b4ca85a86c47a098a4e610367385c6101bf556f4b3b4ca85a86c47a098a54aedf5164fc6101c0556f4b3b4ca85a86c47a098a5afcbb3b919b6101c1556101c28190556f4b3b4ca85a86c47a098a22e162ca9e106101c3556f4b3b4ca85a86c47a098a2382c5953c206101c4556f4b3b4ca85a86c47a098a2424285fda306101c5556f4b3b4ca85a86c47a098a24c58b2a78406101c6556f4b3b4ca85a86c47a098a2566edf516506101c7556f4b3b4ca85a86c47a098a260850bfb4606101c8556f4b3b4ca85a86c47a098a26a9b38a52706101c9556f4b3b4ca85a86c47a098a274b1654f0806101ca556f4b3b4ca85a86c47a098a27ec791f8e906101cb556101cc8190556f4b3b4ca85a86c47a098a2250237aa9686101cd556f4b3b4ca85a86c47a098a226046f552d06101ce556f4b3b4ca85a86c47a098a22706a6ffc386101cf556f4b3b4ca85a86c47a098a22808deaa5a06101d0556f4b3b4ca85a86c47a098a2290b1654f086101d1556f4b3b4ca85a86c47a098a22a0d4dff8706101d2556f4b3b4ca85a86c47a098a22b0f85aa1d86101d3556f4b3b4ca85a86c47a098a22c11bd54b406101d4556f4b3b4ca85a86c47a098a22d13f4ff4a86101d5556101d68190556f4b3b4ca85a86c47a098a22419d25ddbe6101d7556f4b3b4ca85a86c47a098a22433a4bbb7b6101d8556f4b3b4ca85a86c47a098a2244d77199396101d9556f4b3b4ca85a86c47a098a2246749776f66101da556f4b3b4ca85a86c47a098a224811bd54b46101db556f4b3b4ca85a86c47a098a2249aee332726101dc556f4b3b4ca85a86c47a098a224b4c09102f6101dd556f4b3b4ca85a86c47a098a224ce92eeded6101de556f4b3b4ca85a86c47a098a224e8654cbaa6101df556101e08190556f4b3b4ca85a86c47a098a22402950962d6101e1556f4b3b4ca85a86c47a098a224052a12c596101e2556f4b3b4ca85a86c47a098a22407bf1c2866101e3556f4b3b4ca85a86c47a098a2240a54258b26101e4556f4b3b4ca85a86c47a098a2240ce92eedf6101e5556f4b3b4ca85a86c47a098a2240f7e3850b6101e6556f4b3b4ca85a86c47a098a224121341b386101e7556f4b3b4ca85a86c47a098a22414a84b1646101e8556f4b3b4ca85a86c47a098a224173d547916101e9556101ea8190556f4b3b4ca85a86c47a098a22400421a89e6101eb556f4b3b4ca85a86c47a098a22400843513c6101ec556f4b3b4ca85a86c47a098a22400c64f9da6101ed556f4b3b4ca85a86c47a098a22401086a2786101ee556f4b3b4ca85a86c47a098a224014a84b166101ef556f4b3b4ca85a86c47a098a224018c9f3b46101f0556f4b3b4ca85a86c47a098a22401ceb9c526101f1556f4b3b4ca85a86c47a098a2240210d44f06101f2556f4b3b4ca85a86c47a098a2240252eed8f6101f3556101f4556f4b3b4ca85a86c47a098a22400069c4106101f5556f4b3b4ca85a86c47a098a224000d388206101f6556f4b3b4ca85a86c47a098a2240013d4c2f6101f7556f4b3b4ca85a86c47a098a224001a7103f6101f8556f4b3b4ca85a86c47a098a22400210d44f6101f9556f4b3b4ca85a86c47a098a2240027a985f6101fa556f4b3b4ca85a86c47a098a224002e45c6f6101fb556f4b3b4ca85a86c47a098a2240034e207e6101fc556f4b3b4ca85a86c47a098a224003b7e48e6101fd5561024e805464ff000000001916640100000000179055005b6101e76117cd366004613d2b565b612f7e565b6101e76117e0366004613d2b565b613028565b6101e76117f3366004613d12565b6130c4565b6101e7611806366004613d2b565b6132d9565b6101e7611819366004613d12565b6136e8565b6101e761182c366004613d2b565b613707565b6101e761183f366004613d12565b61373d565b6101e7611852366004613d2b565b613754565b6101e7611865366004613d2b565b613782565b6101e7611878366004613d12565b6137a9565b6101e761188b366004613d12565b6137d6565b6101e761189e366004613d12565b613805565b6101e76118b1366004613d12565b613835565b6101e76118c4366004613d2b565b61385e565b6f96769950b50d88f413144480000000006064556f259da6542d43623d04c51120000000006065556f12ced32a16a1b11e82628890000000006066556f096769950b50d88f41314448000000006067556f04b3b4ca85a86c47a098a224000000006068556f0259da6542d43623d04c5112000000006069556f012ced32a16a1b11e826288900000000606a556e96769950b50d88f413144480000000606b556e4b3b4ca85a86c47a098a2240000000606c556e259da6542d43623d04c51120000000606d556e12ced32a16a1b11e82628890000000606e556e096769950b50d88f41314448000000606f556e04b3b4ca85a86c47a098a2240000006070556e0259da6542d43623d04c51120000006071556e012ced32a16a1b11e82628890000006072556d96769950b50d88f41314448000006073556d4b3b4ca85a86c47a098a224000006074556d259da6542d43623d04c5112000006075556d12ced32a16a1b11e8262889000006076556d096769950b50d88f4131444800006077556d04b3b4ca85a86c47a098a22400006078556d0259da6542d43623d04c511200006079556d012ced32a16a1b11e82628890000607a556c96769950b50d88f41314448000607b556c4b3b4ca85a86c47a098a224000607c556c259da6542d43623d04c5112000607d556c12ced32a16a1b11e8262889000607e556c096769950b50d88f4131444800607f556c04b3b4ca85a86c47a098a224006080556c0259da6542d43623d04c5112006081556c012ced32a16a1b11e8262889006082556b96769950b50d88f4131444806083556b4b3b4ca85a86c47a098a22406084556b259da6542d43623d04c511206085556b12ced32a16a1b11e826288906086556b096769950b50d88f413144486087556b04b3b4ca85a86c47a098a2246088556b0259da6542d43623d04c51126089556b012ced32a16a1b11e8262889608a556a96769950b50d88f4131444608b556a4b3b4ca85a86c47a098a22608c556a259da6542d43623d04c511608d556a12ced32a16a1b11e826288608e556a096769950b50d88f413144608f556a04b3b4ca85a86c47a098a26090556a0259da6542d43623d04c516091556a012ced32a16a1b11e826286092556996769950b50d88f41314609355694b3b4ca85a86c47a098a60945569259da6542d43623d04c56095556912ced32a16a1b11e826260965569096769950b50d88f41316097556904b3b4ca85a86c47a098609855690259da6542d43623d04c60995569012ced32a16a1b11e826609a556896769950b50d88f413609b55684b3b4ca85a86c47a09609c5568259da6542d43623d04609d556812ced32a16a1b11e82609e5568096769950b50d88f41609f556804b3b4ca85a86c47a060a055680259da6542d43623d060a15568012ced32a16a1b11e860a2556796769950b50d88f460a355674b3b4ca85a86c47a60a45567259da6542d43623d60a5556712ced32a16a1b11e60a65567096769950b50d88f60a7556704b3b4ca85a86c4760a855670259da6542d4362360a95567012ced32a16a1b1160aa556696769950b50d8860ab55664b3b4ca85a86c460ac5566259da6542d436260ad556612ced32a16a1b160ae5566096769950b50d860af556604b3b4ca85a86c60b055660259da6542d43660b15566012ced32a16a1b60b2556596769950b50d60b355654b3b4ca85a8660b45565259da6542d4360b5556512ced32a16a160b65565096769950b5060b7556504b3b4ca85a860b855650259da6542d460b95565012ced32a16a60ba556496769950b560bb55644b3b4ca85a60bc5564259da6542d60bd556412ced32a1660be5564096769950b60bf556404b3b4ca8560c055640259da654260c15564012ced32a160c255639676995060c355634b3b4ca860c45563259da65460c5556312ced32a60c655630967699560c75561024e805461ff001916610100179055005b6101e7611e6d366004613d2b565b613916565b6101e7611e80366004613d12565b613941565b6101e7611e93366004613d4d565b613a48565b6101e7611ea6366004613d12565b613a98565b610a44600080556f35326198caa4cf0398dd2df4a401fff860019081556f3f43136bbc1145a3d84ccd8fde8050606002556f44fcdaff61cc4ceae78af7acfc2dcb346003556f480ac4b15dff81588c37988631acc6496004556f499e9cc45b22529d4b6abaa6c727fa206005556f4a6bd6a98878b7e749bca36139d8d4396006556f4ad349c2776ffca447fac2991089d4966007556f4b07392f52b5c840e2f500a685315e106008556f4b213e68c12287618b384447416493666009556f4b2e4467966940f3e15f711b485e0c54600a556f4b34c83fb45aa7f02968d3f10c7bf179600b556f4b380a61f5a1002253dd42289d3f4eac600c556f4b39ab80a386e7ea4aa8befbc274a593600d556f4b3a7c135de075ee193ece3e8ec0de14600e556f4b3ae45d93e9a0ecb716a961237770f6600f556f4b3b1882e525a71aafc82b1e629fd4f66010556f4b3b32959b519153545560036c6f85a76011556f4b3b3f9ef9cb0196d145667cf95b88916012556f4b3b4623a9e098ae32898d76368829126013556f4b3b496602219bfcc6e3c6e7270bab636014556f4b3b4b072e4fab95795f9efc3a14fb8d6015556f4b3b4bd7c46a16de429d50fdc920a2e56016556f4b3b4c400f782561c5f99e6e8cc40d766017556f4b3b4c7434ff62db4faed2a218e2ba686018556f4b3b4c8e47c30f26069626269d2ce2996019556f4b3b4c9b5124e8aede8e5d050e398bb3601a556f4b3b4ca1d5d5d64c29abc79382732075601b556f4b3b4ca5182e4d510702d61d917cca2f601c556f4b3b4ca6b95a88e103a07462aefce70c601d556f4b3b4ca789f0a6ac656bc95b2f53ca62601e556f4b3b4ca7f23bb592ef30954fa967f1b3601f556f4b3b4ca826613d066a4ac3a84c9c92d46020556f4b3b4ca8407400c03565ccec42b792c36021556f4b3b4ca84d7d629d1e56ce14284400136022556f4b3b4ca85402138b93a82dc995d5ca426023556f4b3b4ca857446c02ce87156cab570f406024556f4b3b4ca858e5983e6c0417304dc6791a6025556f4b3b4ca859b62e5c3ac5fb8ea4e9f5ca6026556f4b3b4ca85a1e796b2227c69cf1f6a8d06027556f4b3b4ca85a529ef295d8e25be0dbbfd66028556f4b3b4ca85a6cb1b64fb17dc94a65fac56029556f4b3b4ca85a79bb182c9dcee37bb10419602a556f4b3b4ca85a803fc91b13f849737803ba602b556f4b3b4ca85a838221924f0d32a723e248602c556f4b3b4ca85a85234dcdec97b4ceebe93f602d556f4b3b4ca85a85f3e3ebbb5cf9464c72a6602e556f4b3b4ca85a865c2efaa2bf9c5adbd8d5602f556f4b3b4ca85a869054821670ee1b5b544b6030556f4b3b4ca85a86aa6745d049970929041e6031556f4b3b4ca85a86b770a7ad35eb8373588d6032556f4b3b4ca85a86bdf5589bac15c17161e66033556f4b3b4ca85a86c137b112e72ae0a69e5b6034556f4b3b4ca85a86c2d8dd4e84b5704eca876035556f4b3b4ca85a86c3a9736c537ab826441a6036556f4b3b4ca85a86c411be7b3add5c12d9c36037556f4b3b4ca85a86c445e402ae8eae095acf6038556f4b3b4ca85a86c45ff6c668675704a8e36039556f4b3b4ca85a86c46d00284553ab825350603a556f4b3b4ca85a86c47384d933c9d5c12960603b556f4b3b4ca85a86c476c731ab04eae0949e603c556f4b3b4ca85a86c478685de6a275704a4a603d556f4b3b4ca85a86c47938f404713ab82524603e556f4b3b4ca85a86c479a13f13589d5c1292603f556f4b3b4ca85a86c479d5649acc4eae09496040556f4b3b4ca85a86c479ef775e86275704a46041556f4b3b4ca85a86c479fc80c06313ab82526042556f4b3b4ca85a86c47a0305715189d5c1296043556f4b3b4ca85a86c47a0647c9c8c4eae0956044556f4b3b4ca85a86c47a07e8f6046275704a6045556f4b3b4ca85a86c47a08b98c22313ab8256046556f4b3b4ca85a86c47a0921d731189d5c136047556f4b3b4ca85a86c47a0955fcb88c4eae096048556f4b3b4ca85a86c47a09700f7c462757056049556f4b3b4ca85a86c47a097d18de2313ab82604a556f4b3b4ca85a86c47a09839d8f1189d5c1604b556f4b3b4ca85a86c47a0986dfe788c4eae1604c556f4b3b4ca85a86c47a09888113c4627570604d556f4b3b4ca85a86c47a098951a9e2313ab8604e556f4b3b4ca85a86c47a0989b9f4f1189d5c604f556f4b3b4ca85a86c47a0989ee1a788c4eae6050556f4b3b4ca85a86c47a098a082d3c4627576051556f4b3b4ca85a86c47a098a15369e2313ac6052556f4b3b4ca85a86c47a098a1bbb4f1189d66053556f4b3b4ca85a86c47a098a1efda788c4eb6054556f4b3b4ca85a86c47a098a209ed3c462756055556f4b3b4ca85a86c47a098a216f69e2313b6056556f4b3b4ca85a86c47a098a21d7b4f1189d6057556f4b3b4ca85a86c47a098a220bda788c4f6058556f4b3b4ca85a86c47a098a2225ed3c46276059556f4b3b4ca85a86c47a098a2232f69e2314605a556f4b3b4ca85a86c47a098a22397b4f118a605b556f4b3b4ca85a86c47a098a223cbda788c5605c556f4b3b4ca85a86c47a098a223e5ed3c462605d556f4b3b4ca85a86c47a098a223f2f69e231605e556f4b3b4ca85a86c47a098a223f97b4f119605f556f4b3b4ca85a86c47a098a223fcbda788c6060556f4b3b4ca85a86c47a098a223fe5ed3c466061556f4b3b4ca85a86c47a098a223ff2f69e236062556f4b3b4ca85a86c47a098a223ff97b4f1260635561024e805460ff19169091179055565b6101e761268e366004613d2b565b613aa8565b6101e76126a1366004613d2b565b613c24565b6b012ced32a16a1b11e826288960261b6101368190556f4b3b4ca85ac01a706eadf372d36d1338610137556f4b3b4ca85af97066d3d1f05811f9885d610138556f4b3b4ca85b32c65d38f618efbba55f91610139556f4b3b4ca85b6c1c539e1a6d39d07098f561013a556f4b3b4ca85ba5724a033eed36505b34aa61013b556f4b3b4ca85bdec840686398e53b6532d261013c556f4b3b4ca85c181e36cd887046918e938e61013d556f4b3b4ca85c51742d32ad735a52d7570061013e556f4b3b4ca85c8aca2397d2a2207f3f7d4761013f556101408190556f4b3b4ca85a8c8045e0741b9a7e66ef70610141556f4b3b4ca85a923c11b75e1564da09107f610142556f4b3b4ca85a97f7dd8e480f9f12e6632c610143556f4b3b4ca85a9db3a965320a4928fee777610144556f4b3b4ca85aa36f753c1c05631c529d60610145556f4b3b4ca85aa92b41130600ecece184e8610146556f4b3b4ca85aaee70ce9effce69aab9e0e610147556f4b3b4ca85ab4a2d8c0d9f95025b0e8d3610148556f4b3b4ca85aba5ea497c3f6298df165366101495561014a8190556f4b3b4ca85a8757419f07ee5d9d9096fe61014b556f4b3b4ca85a87ea093485ba7c59807dd761014c556f4b3b4ca85a887cd0ca03869c33cfb48b61014d556f4b3b4ca85a890f985f8152bd2c7e3b1a61014e556f4b3b4ca85a89a25ff4ff1edf438c118461014f556f4b3b4ca85a8a35278a7ceb0278f937ca610150556f4b3b4ca85a8ac7ef1ffab726ccc5adeb610151556f4b3b4ca85a8b5ab6b578834c3ef173e7610152556f4b3b4ca85a8bed7e4af64f72cf7c89be610153556101548190556f4b3b4ca85a86d327987d1d0fb611d996610155556f4b3b4ca85a86e1d5277017df6f00d021610156556f4b3b4ca85a86f082b66312af2acce3a2610157556f4b3b4ca85a86ff3045560d7ee9761418610158556f4b3b4ca85a870dddd449084eaafc6183610159556f4b3b4ca85a871c8b633c031e6f5fcbe461015a556f4b3b4ca85a872b38f22efdee36a0533b61015b556f4b3b4ca85a8739e68121f8be00bdf78661015c556f4b3b4ca85a8748941014f38dcdb8b8c761015d5561015e8190556f4b3b4ca85a86c5f1cb08d4ee5ee0cb7f61015f556f4b3b4ca85a86c7698c87879cbdc8ebc3610160556f4b3b4ca85a86c8e14e063a4b1cb860cc610161556f4b3b4ca85a86ca590f84ecf97baf2a99610162556f4b3b4ca85a86cbd0d1039fa7daad492c610163556f4b3b4ca85a86cd489282525639b2bc84610164556f4b3b4ca85a86cec05401050498bf84a1610165556f4b3b4ca85a86d038157fb7b2f7d3a183610166556f4b3b4ca85a86d1afd6fe6a6156ef132a610167556101688190556f4b3b4ca85a86c49f9ce39a84a316264b610169556f4b3b4ca85a86c4c5303d12c9462c5f5c61016a556f4b3b4ca85a86c4eac3968b0de942ab3061016b556f4b3b4ca85a86c51056f003528c5909c961016c556f4b3b4ca85a86c535ea497b972f6f7b2761016d556f4b3b4ca85a86c55b7da2f3dbd285ff4961016e556f4b3b4ca85a86c58110fc6c20759c963061016f556f4b3b4ca85a86c5a6a455e46518b33fdb610170556f4b3b4ca85a86c5cc37af5ca9bbc9fc4b610171556101728190556f4b3b4ca85a86c47dcb797b13a9e89c96610173556f4b3b4ca85a86c4818d68d3e753d1395c610174556f4b3b4ca85a86c4854f582cbafdb9d651610175556f4b3b4ca85a86c4891147858ea7a27377610176556f4b3b4ca85a86c48cd336de62518b10cd610177556f4b3b4ca85a86c49095263735fb73ae53610178556f4b3b4ca85a86c49457159009a55c4c09610179556f4b3b4ca85a86c4981904e8dd4f44e9ef61017a556f4b3b4ca85a86c49bdaf441b0f92d880561017b5561017c8190556f4b3b4ca85a86c47a69bbab21f7640fa661017d556f4b3b4ca85a86c47ac9ed3403eec81f4d61017e556f4b3b4ca85a86c47b2a1ebce5e62c2ef561017f556f4b3b4ca85a86c47b8a5045c7dd903e9d610180556f4b3b4ca85a86c47bea81cea9d4f44e45610181556f4b3b4ca85a86c47c4ab3578bcc585dee610182556f4b3b4ca85a86c47caae4e06dc3bc6d97610183556f4b3b4ca85a86c47d0b16694fbb207d41610184556f4b3b4ca85a86c47d6b47f231b2848ceb610185556101868190556f4b3b4ca85a86c47a1328aff03256ce5d610187556f4b3b4ca85a86c47a1cc73da064ad9cbb610188556f4b3b4ca85a86c47a2665cb5097046b18610189556f4b3b4ca85a86c47a30045900c95b397661018a556f4b3b4ca85a86c47a39a2e6b0fbb207d361018b556f4b3b4ca85a86c47a434174612e08d63161018c556f4b3b4ca85a86c47a4ce00211605fa48e61018d556f4b3b4ca85a86c47a567e8fc192b672eb61018e556f4b3b4ca85a86c47a601d1d71c50d414961018f55610190556f4b3b4ca85a86c47a0a80639e6b6f14a3610191556f4b3b4ca85a86c47a0b76a4fcd6de2946610192556f4b3b4ca85a86c47a0c6ce65b424d3de9610193556f4b3b4ca85a86c47a0d6327b9adbc528c610194556f4b3b4ca85a86c47a0e596918192b672f610195556f4b3b4ca85a86c47a0f4faa76849a7bd2610196556f4b3b4ca85a86c47a1045ebd4f0099075610197556f4b3b4ca85a86c47a113c2d335b78a518610198556f4b3b4ca85a86c47a12326e91c6e7b9ba6101995561024e805463ff00000019166301000000179055005b60006001670de0b6b3a764000080835b83831115612eba57612e92670de0b6b3a764000082613d8f565b9050612ea7612ea18488613c24565b82613782565b9250612eb38383613d8f565b9150612e78565b50949350505050565b600080678ac7230489e80000612ee268056bc75e2d6310000085613dce565b612eec9190613de2565b9050612efa83826014613a48565b9392505050565b6000670de0b6b3a76400008310612f2b57612f24611e80836126a18660466132d9565b9050612f78565b670de0b6b3a7640000831015612f78576000612f5d836126a1612f56670de0b6b3a764000088613782565b60466132d9565b9050612f74670de0b6b3a764000061186583613941565b9150505b92915050565b600081600003612f975750670de0b6b3a7640000612f78565b670de0b6b3a76400005b600183111561301e57612fb5600284613dce565b600003612fda57612fc68485613c24565b9350612fd3600284613de2565b9250612fa1565b612fe5600284613dce565b1561301957612ff48482613c24565b90506130008485613c24565b9350600261300f600185613df6565b612fd39190613de2565b612fa1565b612f748482613c24565b60008160000361303a57506001612f78565b60015b60018311156130ba57613051600284613dce565b600003613076576130628485613c4b565b935061306f600284613de2565b925061303d565b613081600284613dce565b156130b5576130908482613c4b565b905061309c8485613c4b565b935060026130ab600185613df6565b61306f9190613de2565b61303d565b612f748482613c4b565b61024e5460009062010000900460ff16151560011480156130f4575061024e546301000000900460ff1615156001145b8015613110575061024e54640100000000900460ff1615156001145b801561312d575061024e5465010000000000900460ff1615156001145b61317e5760405162461bcd60e51b815260206004820181905260248201527f4c6f6f6b7570207461626c652033206d7573742066697273742062652073657460448201526064015b60405180910390fd5b68056bc75e2d6310000082101580156131a957506131a668056bc75e2d631000006002613e09565b82105b6131c55760405162461bcd60e51b815260040161317590613e20565b60006131d9670de0b6b3a764000084613e09565b905060006131f76b012ced32a16a1b11e826288960261b6002613e09565b905060006132146b012ced32a16a1b11e826288960261b84613dce565b9050600061322182613835565b905060005b818110156132ce57600061323b82600a613f46565b613246836001613d8f565b61325190600a613f46565b61325b9086613dce565b6132659190613de2565b90508060000361327557506132bc565b600060c8613284846025613df6565b6027811061329457613294613da2565b600a020182600a81106132a9576132a9613da2565b015490506132b78682613754565b955050505b806132c681613f52565b915050613226565b509195945050505050565b6000670de0b6b3a76400008310156133285760405162461bcd60e51b8152602060048201526012602482015271696e707574206d757374206265203e3d203160701b6044820152606401613175565b60008061333e670de0b6b3a76400006002613c4b565b90505b613354670de0b6b3a76400006002613e09565b851061369157613370670de0b6b3a76400006340000000613e09565b85106133a45761339085611865670de0b6b3a76400006340000000613e09565b945061339d601e83613d8f565b9150613341565b6133b9670de0b6b3a764000062100000613e09565b85106133e5576133d885611865670de0b6b3a764000062100000613e09565b945061339d601483613d8f565b6133f9670de0b6b3a7640000618000613e09565b85106134245761341785611865670de0b6b3a7640000618000613e09565b945061339d600f83613d8f565b613438670de0b6b3a7640000610400613e09565b85106134635761345685611865670de0b6b3a7640000610400613e09565b945061339d600a83613d8f565b613477670de0b6b3a7640000610200613e09565b85106134a25761349585611865670de0b6b3a7640000610200613e09565b945061339d600983613d8f565b6134b6670de0b6b3a7640000610100613e09565b85106134e1576134d485611865670de0b6b3a7640000610100613e09565b945061339d600883613d8f565b6134f4670de0b6b3a76400006080613e09565b851061351e5761351185611865670de0b6b3a76400006080613e09565b945061339d600783613d8f565b613531670de0b6b3a76400006040613e09565b851061355b5761354e85611865670de0b6b3a76400006040613e09565b945061339d600683613d8f565b61356e670de0b6b3a76400006020613e09565b85106135985761358b85611865670de0b6b3a76400006020613e09565b945061339d600583613d8f565b6135ab670de0b6b3a76400006010613e09565b85106135d5576135c885611865670de0b6b3a76400006010613e09565b945061339d600483613d8f565b6135e8670de0b6b3a76400006008613e09565b85106136125761360585611865670de0b6b3a76400006008613e09565b945061339d600383613d8f565b613625670de0b6b3a76400006004613e09565b851061364f5761364285611865670de0b6b3a76400006004613e09565b945061339d600283613d8f565b613662670de0b6b3a76400006002613e09565b851061368c5761367f85611865670de0b6b3a76400006002613e09565b945061339d600183613d8f565b613341565b60006136aa6c0c9f2c9cd04674edea4000000084613e09565b905060006136d26c08bfade8cec3c65ca697cfbe7261182c846136cd8b8b613aa8565b613c93565b90506136dd81613805565b979650505050505050565b60006136fd68056bc75e2d6310000083613dce565b612f789083613df6565b6000806137148484613c4b565b90506c0c9f2c9cd04674edea40000000613733826136cd600284613de2565b612f749190613de2565b6064816064811061374d57600080fd5b0154905081565b6000806137618484613c4b565b90506b012ced32a16a1b11e826288960261b613733826136cd600284613de2565b60008061379784670de0b6b3a7640000613c4b565b905082613733826136cd600284613de2565b600080629896806137be6305f5e10085613dce565b6137c89190613de2565b9050612efa83826008613a48565b600080633b9aca006137ed6402540be40085613dce565b6137f79190613de2565b9050612efa8382600a613a48565b60008064174876e80061381d64e8d4a5100085613dce565b6138279190613de2565b9050612efa8382600c613a48565b6000805b8215612f785761384a600a84613de2565b92508061385681613f52565b915050613839565b60008160000361387e57506b012ced32a16a1b11e826288960261b612f78565b6b012ced32a16a1b11e826288960261b5b600183111561390c576138a3600284613dce565b6000036138c8576138b48485613754565b93506138c1600284613de2565b925061388f565b6138d3600284613dce565b15613907576138e28482613754565b90506138ee8485613754565b935060026138fd600185613df6565b6138c19190613de2565b61388f565b612f748482613754565b60c8826027811061392657600080fd5b600a020181600a811061393857600080fd5b01549150829050565b6000806000806139568564e8d4a51000613c4b565b945061396f6c1235995e1e4b3c4c2e092eb92a86613707565b945061397a856137d6565b945068056bc75e2d6310000085108015613992575060015b156139dc576139aa68056bc75e2d6310000086613c93565b91506139c660026b012ced32a16a1b11e826288960261b613de2565b90506139d581611852846130c4565b9350613a36565b68056bc75e2d631000006139ef866136e8565b6139f99190613df6565b9250613a058386613df6565b9150613a1f60026117e08568056bc75e2d63100000613cc2565b9050613a3381613a2e846130c4565b613c4b565b93505b613a3f84612ec3565b95945050505050565b60006005831015613a6e57613a6784613a6284600a613f46565b613cc2565b9050612efa565b60058310612efa57613a8584613a6284600a613f46565b613a90906001613d8f565b949350505050565b6000816064811061374d57600080fd5b61024e5460009060ff1615156001148015613ad1575061024e5460ff6101009091041615156001145b613b2b5760405162461bcd60e51b815260206004820152602560248201527f4c6f6f6b7570207461626c6573203120262032206d757374206669727374206260448201526419481cd95d60da1b6064820152608401613175565b670de0b6b3a76400008310158015613b545750613b51670de0b6b3a76400006002613e09565b83105b613b705760405162461bcd60e51b815260040161317590613e20565b6000613b858468056bc75e2d63100000613c4b565b90506b012ced32a16a1b11e826288960261b600060015b858111613c1057613bc160008260648110613bb957613bb9613da2565b015485613754565b92506b012ced32a16a1b11e826288960261b8310613bfe5782935060648160648110613bef57613bef613da2565b0154613bfb9083613d8f565b91505b80613c0881613f52565b915050613b9c565b50613c1a816137a9565b9695505050505050565b600080613c318484613c4b565b9050670de0b6b3a7640000613733826136cd600284613de2565b600082600003613c5d57506000612f78565b6000613c698385613e09565b905082613c768583613de2565b14612efa5760405162461bcd60e51b815260040161317590613f6b565b600080613ca08385613d8f565b905083811015612efa5760405162461bcd60e51b815260040161317590613f6b565b6000808211613d065760405162461bcd60e51b815260206004820152601060248201526f6469766973696f6e206279207a65726f60801b6044820152606401613175565b6000612f748385613de2565b600060208284031215613d2457600080fd5b5035919050565b60008060408385031215613d3e57600080fd5b50508035926020909101359150565b600080600060608486031215613d6257600080fd5b505081359360208301359350604090920135919050565b634e487b7160e01b600052601160045260246000fd5b80820180821115612f7857612f78613d79565b634e487b7160e01b600052603260045260246000fd5b634e487b7160e01b600052601260045260246000fd5b600082613ddd57613ddd613db8565b500690565b600082613df157613df1613db8565b500490565b81810381811115612f7857612f78613d79565b8082028115828204841417612f7857612f78613d79565b60208082526022908201527f696e7075742078206d7573742062652077697468696e2072616e6765205b312c604082015261325b60f01b606082015260800190565b600181815b80851115613e9d578160001904821115613e8357613e83613d79565b80851615613e9057918102915b93841c9390800290613e67565b509250929050565b600082613eb457506001612f78565b81613ec157506000612f78565b8160018114613ed75760028114613ee157613efd565b6001915050612f78565b60ff841115613ef257613ef2613d79565b50506001821b612f78565b5060208310610133831016604e8410600b8410161715613f20575081810a612f78565b613f2a8383613e62565b8060001904821115613f3e57613f3e613d79565b029392505050565b6000612efa8383613ea5565b600060018201613f6457613f64613d79565b5060010190565b60208082526021908201527f75696e74206f766572666c6f772066726f6d206d756c7469706c69636174696f6040820152603760f91b60608201526080019056fea264697066735822122035ef954870e5ac49e10f311c0349f744424c7c4855266db9e49f486ede8d70e864736f6c63430008110033",
    "linkReferences": {}
  },
  "methodIdentifiers": {
    "chopAndRound(uint256,uint256,uint256)": "d3f87aae",
    "convert30To18DP(uint256)": "8e962c70",
    "convert30To20DP(uint256)": "8d5dab35",
    "convert38To18DP(uint256)": "24433426",
    "convert38To30DP(uint256)": "78b09c47",
    "countDigits(uint256)": "9636c762",
    "decDiv18(uint256,uint256)": "64ce07d8",
    "decMul18(uint256,uint256)": "f7523c52",
    "decMul30(uint256,uint256)": "58be7a89",
    "decMul38(uint256,uint256)": "6172f467",
    "exp(uint256)": "b581fbe3",
    "exp_taylor(uint256)": "1ea97975",
    "floor(uint256)": "504f5e56",
    "ln(uint256,uint256)": "44f7787f",
    "log_2(uint256,uint256)": "e92fab3b",
    "pow(uint256,uint256)": "2e4c697f",
    "pow2(uint256)": "442b7ffb",
    "powBySquare(uint256,uint256)": "422b0d8d",
    "powBySquare18(uint256,uint256)": "34eceac0",
    "powBySquare38(uint256,uint256)": "a2693515",
    "setLUT1()": "e5ac5717",
    "setLUT2()": "a463a087",
    "setLUT3_1()": "22aa59fc",
    "setLUT3_2()": "fed6bde0",
    "setLUT3_3()": "344d0095",
    "setLUT3_4()": "26a4c99f",
    "table2_log_2(uint256)": "595a8d07",
    "table_log_2(uint256)": "dc1a1e09",
    "table_pow2(uint256,uint256)": "b2f21109"
  },
  "id": 56
}