{
  "abi": [
    {
      "inputs": [
        {
          "internalType": "UD60x18",
          "name": "x",
          "type": "uint256"
        }
      ],
      "name": "PRBMathUD60x18__LogInputTooSmall",
      "type": "error"
    },
    {
      "inputs": [
        {
          "internalType": "uint256",
          "name": "x",
          "type": "uint256"
        }
      ],
      "name": "PRBMathUD60x18__ToUD60x18Overflow",
      "type": "error"
    },
    {
      "inputs": [
        {
          "internalType": "uint256",
          "name": "x",
          "type": "uint256"
        },
        {
          "internalType": "uint256",
          "name": "y",
          "type": "uint256"
        }
      ],
      "name": "PRBMath__MulDiv18Overflow",
      "type": "error"
    },
    {
      "inputs": [
        {
          "internalType": "uint256",
          "name": "x",
          "type": "uint256"
        },
        {
          "internalType": "uint256",
          "name": "y",
          "type": "uint256"
        },
        {
          "internalType": "uint256",
          "name": "denominator",
          "type": "uint256"
        }
      ],
      "name": "PRBMath__MulDivOverflow",
      "type": "error"
    },
    {
      "anonymous": false,
      "inputs": [
        {
          "indexed": false,
          "internalType": "address",
          "name": "previousAdmin",
          "type": "address"
        },
        {
          "indexed": false,
          "internalType": "address",
          "name": "newAdmin",
          "type": "address"
        }
      ],
      "name": "AdminChanged",
      "type": "event"
    },
    {
      "anonymous": false,
      "inputs": [
        {
          "indexed": true,
          "internalType": "address",
          "name": "owner",
          "type": "address"
        },
        {
          "indexed": true,
          "internalType": "address",
          "name": "approved",
          "type": "address"
        },
        {
          "indexed": true,
          "internalType": "uint256",
          "name": "tokenId",
          "type": "uint256"
        }
      ],
      "name": "Approval",
      "type": "event"
    },
    {
      "anonymous": false,
      "inputs": [
        {
          "indexed": true,
          "internalType": "address",
          "name": "owner",
          "type": "address"
        },
        {
          "indexed": true,
          "internalType": "address",
          "name": "operator",
          "type": "address"
        },
        {
          "indexed": false,
          "internalType": "bool",
          "name": "approved",
          "type": "bool"
        }
      ],
      "name": "ApprovalForAll",
      "type": "event"
    },
    {
      "anonymous": false,
      "inputs": [
        {
          "indexed": true,
          "internalType": "address",
          "name": "beacon",
          "type": "address"
        }
      ],
      "name": "BeaconUpgraded",
      "type": "event"
    },
    {
      "anonymous": false,
      "inputs": [
        {
          "indexed": true,
          "internalType": "uint256",
          "name": "pid",
          "type": "uint256"
        },
        {
          "indexed": false,
          "internalType": "uint256",
          "name": "oldAmount",
          "type": "uint256"
        },
        {
          "indexed": false,
          "internalType": "uint256",
          "name": "newAmount",
          "type": "uint256"
        }
      ],
      "name": "BountyBalanceChanged",
      "type": "event"
    },
    {
      "anonymous": false,
      "inputs": [
        {
          "indexed": true,
          "internalType": "address",
          "name": "hunter",
          "type": "address"
        },
        {
          "indexed": true,
          "internalType": "address",
          "name": "token",
          "type": "address"
        },
        {
          "indexed": false,
          "internalType": "uint256",
          "name": "amount",
          "type": "uint256"
        }
      ],
      "name": "BountyPaid",
      "type": "event"
    },
    {
      "anonymous": false,
      "inputs": [
        {
          "indexed": false,
          "internalType": "uint8",
          "name": "version",
          "type": "uint8"
        }
      ],
      "name": "Initialized",
      "type": "event"
    },
    {
      "anonymous": false,
      "inputs": [
        {
          "indexed": true,
          "internalType": "uint256",
          "name": "pid",
          "type": "uint256"
        },
        {
          "indexed": true,
          "internalType": "address",
          "name": "token",
          "type": "address"
        },
        {
          "indexed": false,
          "internalType": "uint256",
          "name": "tokenDecimals",
          "type": "uint256"
        }
      ],
      "name": "NewBountyDeployed",
      "type": "event"
    },
    {
      "anonymous": false,
      "inputs": [
        {
          "indexed": true,
          "internalType": "address",
          "name": "previousOwner",
          "type": "address"
        },
        {
          "indexed": true,
          "internalType": "address",
          "name": "newOwner",
          "type": "address"
        }
      ],
      "name": "OwnershipTransferred",
      "type": "event"
    },
    {
      "anonymous": false,
      "inputs": [
        {
          "indexed": true,
          "internalType": "uint256",
          "name": "pid",
          "type": "uint256"
        },
        {
          "indexed": false,
          "internalType": "uint256",
          "name": "amount",
          "type": "uint256"
        }
      ],
      "name": "PremiumBilled",
      "type": "event"
    },
    {
      "anonymous": false,
      "inputs": [
        {
          "indexed": true,
          "internalType": "address",
          "name": "user",
          "type": "address"
        },
        {
          "indexed": true,
          "internalType": "uint256",
          "name": "pid",
          "type": "uint256"
        },
        {
          "indexed": false,
          "internalType": "uint256",
          "name": "amount",
          "type": "uint256"
        }
      ],
      "name": "Staked",
      "type": "event"
    },
    {
      "anonymous": false,
      "inputs": [
        {
          "indexed": true,
          "internalType": "address",
          "name": "from",
          "type": "address"
        },
        {
          "indexed": true,
          "internalType": "address",
          "name": "to",
          "type": "address"
        },
        {
          "indexed": true,
          "internalType": "uint256",
          "name": "tokenId",
          "type": "uint256"
        }
      ],
      "name": "Transfer",
      "type": "event"
    },
    {
      "anonymous": false,
      "inputs": [
        {
          "indexed": true,
          "internalType": "address",
          "name": "user",
          "type": "address"
        },
        {
          "indexed": true,
          "internalType": "uint256",
          "name": "pid",
          "type": "uint256"
        },
        {
          "indexed": false,
          "internalType": "uint256",
          "name": "amount",
          "type": "uint256"
        }
      ],
      "name": "Unstaked",
      "type": "event"
    },
    {
      "anonymous": false,
      "inputs": [
        {
          "indexed": true,
          "internalType": "address",
          "name": "implementation",
          "type": "address"
        }
      ],
      "name": "Upgraded",
      "type": "event"
    },
    {
      "anonymous": false,
      "inputs": [
        {
          "indexed": true,
          "internalType": "uint256",
          "name": "pid",
          "type": "uint256"
        },
        {
          "indexed": false,
          "internalType": "uint256",
          "name": "amount",
          "type": "uint256"
        }
      ],
      "name": "WithdrawalOrUnstakeScheduled",
      "type": "event"
    },
    {
      "anonymous": false,
      "inputs": [
        {
          "indexed": true,
          "internalType": "address",
          "name": "referrer",
          "type": "address"
        },
        {
          "indexed": false,
          "internalType": "uint256",
          "name": "amount",
          "type": "uint256"
        }
      ],
      "name": "referralPaid",
      "type": "event"
    },
    {
      "anonymous": false,
      "inputs": [
        {
          "indexed": true,
          "internalType": "address",
          "name": "token",
          "type": "address"
        },
        {
          "indexed": true,
          "internalType": "bool",
          "name": "whitelisted",
          "type": "bool"
        }
      ],
      "name": "tokenWhitelistUpdated",
      "type": "event"
    },
    {
      "inputs": [],
      "name": "acceptOwnershipTransfer",
      "outputs": [],
      "stateMutability": "nonpayable",
      "type": "function"
    },
    {
      "inputs": [
        {
          "internalType": "uint256",
          "name": "",
          "type": "uint256"
        }
      ],
      "name": "activeStrategies",
      "outputs": [
        {
          "internalType": "bytes32",
          "name": "",
          "type": "bytes32"
        }
      ],
      "stateMutability": "view",
      "type": "function"
    },
    {
      "inputs": [
        {
          "internalType": "uint256",
          "name": "",
          "type": "uint256"
        }
      ],
      "name": "activeTokens",
      "outputs": [
        {
          "internalType": "address",
          "name": "",
          "type": "address"
        }
      ],
      "stateMutability": "view",
      "type": "function"
    },
    {
      "inputs": [
        {
          "internalType": "address",
          "name": "_token",
          "type": "address"
        },
        {
          "internalType": "address",
          "name": "_projectWallet",
          "type": "address"
        },
        {
          "internalType": "string",
          "name": "_projectName",
          "type": "string"
        },
        {
          "internalType": "address",
          "name": "_referrer",
          "type": "address"
        },
        {
          "internalType": "uint256",
          "name": "_referralFee",
          "type": "uint256"
        }
      ],
      "name": "addNewBountyPool",
      "outputs": [
        {
          "internalType": "uint256",
          "name": "",
          "type": "uint256"
        }
      ],
      "stateMutability": "nonpayable",
      "type": "function"
    },
    {
      "inputs": [
        {
          "internalType": "address",
          "name": "to",
          "type": "address"
        },
        {
          "internalType": "uint256",
          "name": "tokenId",
          "type": "uint256"
        }
      ],
      "name": "approve",
      "outputs": [],
      "stateMutability": "nonpayable",
      "type": "function"
    },
    {
      "inputs": [
        {
          "internalType": "address",
          "name": "owner",
          "type": "address"
        }
      ],
      "name": "balanceOf",
      "outputs": [
        {
          "internalType": "uint256",
          "name": "",
          "type": "uint256"
        }
      ],
      "stateMutability": "view",
      "type": "function"
    },
    {
      "inputs": [
        {
          "internalType": "uint256",
          "name": "_pid",
          "type": "uint256"
        }
      ],
      "name": "billPremium",
      "outputs": [
        {
          "internalType": "bool",
          "name": "",
          "type": "bool"
        }
      ],
      "stateMutability": "nonpayable",
      "type": "function"
    },
    {
      "inputs": [
        {
          "internalType": "uint256",
          "name": "_pid",
          "type": "uint256"
        },
        {
          "internalType": "uint256",
          "name": "_totalAmount",
          "type": "uint256"
        }
      ],
      "name": "calcReferralSplit",
      "outputs": [
        {
          "internalType": "uint256",
          "name": "",
          "type": "uint256"
        },
        {
          "internalType": "uint256",
          "name": "",
          "type": "uint256"
        },
        {
          "internalType": "address",
          "name": "",
          "type": "address"
        }
      ],
      "stateMutability": "view",
      "type": "function"
    },
    {
      "inputs": [
        {
          "internalType": "uint256",
          "name": "_poolCap",
          "type": "uint256"
        },
        {
          "internalType": "uint256",
          "name": "_apy",
          "type": "uint256"
        }
      ],
      "name": "calcRequiredPremiumBalancePerPeriod",
      "outputs": [
        {
          "internalType": "uint256",
          "name": "requiredPremiumBalance",
          "type": "uint256"
        }
      ],
      "stateMutability": "pure",
      "type": "function"
    },
    {
      "inputs": [
        {
          "internalType": "uint256",
          "name": "_pid",
          "type": "uint256"
        },
        {
          "internalType": "uint256",
          "name": "_stake",
          "type": "uint256"
        },
        {
          "internalType": "uint256",
          "name": "_memX",
          "type": "uint256"
        }
      ],
      "name": "calculateArbitraryEffectiveAPY",
      "outputs": [
        {
          "internalType": "uint256",
          "name": "scaledAPY",
          "type": "uint256"
        }
      ],
      "stateMutability": "view",
      "type": "function"
    },
    {
      "inputs": [
        {
          "internalType": "uint256",
          "name": "_pid",
          "type": "uint256"
        },
        {
          "internalType": "uint256",
          "name": "_stake",
          "type": "uint256"
        }
      ],
      "name": "calculateEffectiveAPY",
      "outputs": [
        {
          "internalType": "uint256",
          "name": "scaledAPY",
          "type": "uint256"
        }
      ],
      "stateMutability": "view",
      "type": "function"
    },
    {
      "inputs": [
        {
          "internalType": "uint256",
          "name": "_tokenId",
          "type": "uint256"
        }
      ],
      "name": "claimPremium",
      "outputs": [],
      "stateMutability": "nonpayable",
      "type": "function"
    },
    {
      "inputs": [],
      "name": "collectAllReferralProfits",
      "outputs": [
        {
          "internalType": "bool",
          "name": "",
          "type": "bool"
        }
      ],
      "stateMutability": "nonpayable",
      "type": "function"
    },
    {
      "inputs": [
        {
          "internalType": "address",
          "name": "_saloonWallet",
          "type": "address"
        }
      ],
      "name": "collectAllSaloonProfits",
      "outputs": [
        {
          "internalType": "bool",
          "name": "",
          "type": "bool"
        }
      ],
      "stateMutability": "nonpayable",
      "type": "function"
    },
    {
      "inputs": [
        {
          "internalType": "address",
          "name": "_token",
          "type": "address"
        }
      ],
      "name": "collectReferralProfit",
      "outputs": [
        {
          "internalType": "bool",
          "name": "",
          "type": "bool"
        }
      ],
      "stateMutability": "nonpayable",
      "type": "function"
    },
    {
      "inputs": [
        {
          "internalType": "address",
          "name": "_token",
          "type": "address"
        },
        {
          "internalType": "address",
          "name": "_saloonWallet",
          "type": "address"
        }
      ],
      "name": "collectSaloonProfits",
      "outputs": [
        {
          "internalType": "bool",
          "name": "",
          "type": "bool"
        }
      ],
      "stateMutability": "nonpayable",
      "type": "function"
    },
    {
      "inputs": [],
      "name": "compoundYieldForAll",
      "outputs": [],
      "stateMutability": "nonpayable",
      "type": "function"
    },
    {
      "inputs": [
        {
          "internalType": "uint256",
          "name": "_pid",
          "type": "uint256"
        }
      ],
      "name": "compoundYieldForPid",
      "outputs": [],
      "stateMutability": "nonpayable",
      "type": "function"
    },
    {
      "inputs": [
        {
          "internalType": "uint256",
          "name": "_pid",
          "type": "uint256"
        }
      ],
      "name": "consolidate",
      "outputs": [],
      "stateMutability": "nonpayable",
      "type": "function"
    },
    {
      "inputs": [],
      "name": "consolidateAll",
      "outputs": [],
      "stateMutability": "nonpayable",
      "type": "function"
    },
    {
      "inputs": [
        {
          "internalType": "uint256",
          "name": "tokenId",
          "type": "uint256"
        }
      ],
      "name": "getApproved",
      "outputs": [
        {
          "internalType": "address",
          "name": "",
          "type": "address"
        }
      ],
      "stateMutability": "view",
      "type": "function"
    },
    {
      "inputs": [
        {
          "internalType": "uint256",
          "name": "_pid",
          "type": "uint256"
        }
      ],
      "name": "getCurrentAPY",
      "outputs": [
        {
          "internalType": "uint256",
          "name": "currentAPY",
          "type": "uint256"
        }
      ],
      "stateMutability": "view",
      "type": "function"
    },
    {
      "inputs": [
        {
          "internalType": "uint256",
          "name": "_from",
          "type": "uint256"
        },
        {
          "internalType": "uint256",
          "name": "_to",
          "type": "uint256"
        }
      ],
      "name": "getSecondsPassed",
      "outputs": [
        {
          "internalType": "uint256",
          "name": "",
          "type": "uint256"
        }
      ],
      "stateMutability": "pure",
      "type": "function"
    },
    {
      "inputs": [],
      "name": "index",
      "outputs": [
        {
          "internalType": "uint256",
          "name": "",
          "type": "uint256"
        }
      ],
      "stateMutability": "view",
      "type": "function"
    },
    {
      "inputs": [
        {
          "internalType": "address",
          "name": "_strategyFactory",
          "type": "address"
        }
      ],
      "name": "initialize",
      "outputs": [],
      "stateMutability": "nonpayable",
      "type": "function"
    },
    {
      "inputs": [
        {
          "internalType": "address",
          "name": "owner",
          "type": "address"
        },
        {
          "internalType": "address",
          "name": "operator",
          "type": "address"
        }
      ],
      "name": "isApprovedForAll",
      "outputs": [
        {
          "internalType": "bool",
          "name": "",
          "type": "bool"
        }
      ],
      "stateMutability": "view",
      "type": "function"
    },
    {
      "inputs": [
        {
          "internalType": "uint256",
          "name": "_pid",
          "type": "uint256"
        },
        {
          "internalType": "uint256",
          "name": "_deposit",
          "type": "uint256"
        },
        {
          "internalType": "string",
          "name": "_strategyName",
          "type": "string"
        }
      ],
      "name": "makeProjectDeposit",
      "outputs": [],
      "stateMutability": "nonpayable",
      "type": "function"
    },
    {
      "inputs": [
        {
          "internalType": "address",
          "name": "",
          "type": "address"
        }
      ],
      "name": "minTokenStakeAmount",
      "outputs": [
        {
          "internalType": "uint256",
          "name": "",
          "type": "uint256"
        }
      ],
      "stateMutability": "view",
      "type": "function"
    },
    {
      "inputs": [],
      "name": "name",
      "outputs": [
        {
          "internalType": "string",
          "name": "",
          "type": "string"
        }
      ],
      "stateMutability": "view",
      "type": "function"
    },
    {
      "inputs": [
        {
          "internalType": "uint256",
          "name": "",
          "type": "uint256"
        }
      ],
      "name": "nftAPY",
      "outputs": [
        {
          "internalType": "uint256",
          "name": "",
          "type": "uint256"
        }
      ],
      "stateMutability": "view",
      "type": "function"
    },
    {
      "inputs": [
        {
          "internalType": "uint256",
          "name": "",
          "type": "uint256"
        }
      ],
      "name": "nftBalance",
      "outputs": [
        {
          "internalType": "uint256",
          "name": "",
          "type": "uint256"
        }
      ],
      "stateMutability": "view",
      "type": "function"
    },
    {
      "inputs": [
        {
          "internalType": "uint256",
          "name": "",
          "type": "uint256"
        }
      ],
      "name": "nftInfo",
      "outputs": [
        {
          "internalType": "uint256",
          "name": "amount",
          "type": "uint256"
        },
        {
          "internalType": "uint256",
          "name": "xDelta",
          "type": "uint256"
        },
        {
          "internalType": "uint256",
          "name": "apy",
          "type": "uint256"
        },
        {
          "internalType": "uint256",
          "name": "unclaimed",
          "type": "uint256"
        },
        {
          "internalType": "uint256",
          "name": "lastClaimedTime",
          "type": "uint256"
        },
        {
          "internalType": "uint256",
          "name": "timelock",
          "type": "uint256"
        },
        {
          "internalType": "uint256",
          "name": "timelimit",
          "type": "uint256"
        }
      ],
      "stateMutability": "view",
      "type": "function"
    },
    {
      "inputs": [
        {
          "internalType": "uint256",
          "name": "",
          "type": "uint256"
        }
      ],
      "name": "nftToPid",
      "outputs": [
        {
          "internalType": "uint256",
          "name": "",
          "type": "uint256"
        }
      ],
      "stateMutability": "view",
      "type": "function"
    },
    {
      "inputs": [],
      "name": "owner",
      "outputs": [
        {
          "internalType": "address",
          "name": "",
          "type": "address"
        }
      ],
      "stateMutability": "view",
      "type": "function"
    },
    {
      "inputs": [
        {
          "internalType": "uint256",
          "name": "tokenId",
          "type": "uint256"
        }
      ],
      "name": "ownerOf",
      "outputs": [
        {
          "internalType": "address",
          "name": "",
          "type": "address"
        }
      ],
      "stateMutability": "view",
      "type": "function"
    },
    {
      "inputs": [
        {
          "internalType": "uint256",
          "name": "_pid",
          "type": "uint256"
        },
        {
          "internalType": "address",
          "name": "_hunter",
          "type": "address"
        },
        {
          "internalType": "uint256",
          "name": "_amount",
          "type": "uint256"
        }
      ],
      "name": "payBounty",
      "outputs": [
        {
          "internalType": "bool",
          "name": "",
          "type": "bool"
        }
      ],
      "stateMutability": "nonpayable",
      "type": "function"
    },
    {
      "inputs": [
        {
          "internalType": "uint256",
          "name": "_tokenId",
          "type": "uint256"
        }
      ],
      "name": "pendingPremium",
      "outputs": [
        {
          "internalType": "uint256",
          "name": "totalPending",
          "type": "uint256"
        },
        {
          "internalType": "uint256",
          "name": "actualPending",
          "type": "uint256"
        },
        {
          "internalType": "uint256",
          "name": "newPending",
          "type": "uint256"
        }
      ],
      "stateMutability": "view",
      "type": "function"
    },
    {
      "inputs": [
        {
          "internalType": "uint256",
          "name": "",
          "type": "uint256"
        },
        {
          "internalType": "uint256",
          "name": "",
          "type": "uint256"
        }
      ],
      "name": "pidNFTList",
      "outputs": [
        {
          "internalType": "uint256",
          "name": "",
          "type": "uint256"
        }
      ],
      "stateMutability": "view",
      "type": "function"
    },
    {
      "inputs": [
        {
          "internalType": "uint256",
          "name": "",
          "type": "uint256"
        },
        {
          "internalType": "bytes32",
          "name": "",
          "type": "bytes32"
        }
      ],
      "name": "pidStrategies",
      "outputs": [
        {
          "internalType": "address",
          "name": "",
          "type": "address"
        }
      ],
      "stateMutability": "view",
      "type": "function"
    },
    {
      "inputs": [
        {
          "internalType": "uint256",
          "name": "",
          "type": "uint256"
        }
      ],
      "name": "poolInfo",
      "outputs": [
        {
          "components": [
            {
              "internalType": "contract IERC20",
              "name": "token",
              "type": "address"
            },
            {
              "internalType": "uint8",
              "name": "tokenDecimals",
              "type": "uint8"
            },
            {
              "internalType": "uint16",
              "name": "apy",
              "type": "uint16"
            },
            {
              "internalType": "address",
              "name": "projectWallet",
              "type": "address"
            },
            {
              "internalType": "string",
              "name": "projectName",
              "type": "string"
            },
            {
              "internalType": "uint256",
              "name": "poolCap",
              "type": "uint256"
            },
            {
              "internalType": "uint256",
              "name": "totalStaked",
              "type": "uint256"
            },
            {
              "internalType": "uint256",
              "name": "scalingMultiplier",
              "type": "uint256"
            }
          ],
          "internalType": "struct ISaloon.GeneralInfo",
          "name": "generalInfo",
          "type": "tuple"
        },
        {
          "components": [
            {
              "internalType": "uint256",
              "name": "projectDepositHeld",
              "type": "uint256"
            },
            {
              "internalType": "uint256",
              "name": "projectDepositInStrategy",
              "type": "uint256"
            }
          ],
          "internalType": "struct ISaloon.DepositInfo",
          "name": "depositInfo",
          "type": "tuple"
        },
        {
          "components": [
            {
              "internalType": "uint256",
              "name": "premiumBalance",
              "type": "uint256"
            },
            {
              "internalType": "uint256",
              "name": "premiumAvailable",
              "type": "uint256"
            }
          ],
          "internalType": "struct ISaloon.PremiumInfo",
          "name": "premiumInfo",
          "type": "tuple"
        },
        {
          "components": [
            {
              "internalType": "uint256",
              "name": "timelock",
              "type": "uint256"
            },
            {
              "internalType": "uint256",
              "name": "timeLimit",
              "type": "uint256"
            },
            {
              "internalType": "uint256",
              "name": "withdrawalScheduledAmount",
              "type": "uint256"
            },
            {
              "internalType": "bool",
              "name": "withdrawalExecuted",
              "type": "bool"
            }
          ],
          "internalType": "struct ISaloon.TimelockInfo",
          "name": "poolTimelock",
          "type": "tuple"
        },
        {
          "components": [
            {
              "internalType": "uint256",
              "name": "currentX",
              "type": "uint256"
            },
            {
              "internalType": "uint256",
              "name": "currentY",
              "type": "uint256"
            },
            {
              "internalType": "uint256",
              "name": "totalSupply",
              "type": "uint256"
            },
            {
              "internalType": "uint256[]",
              "name": "unstakedTokens",
              "type": "uint256[]"
            }
          ],
          "internalType": "struct ISaloon.CurveInfo",
          "name": "curveInfo",
          "type": "tuple"
        },
        {
          "components": [
            {
              "internalType": "address",
              "name": "referrer",
              "type": "address"
            },
            {
              "internalType": "uint256",
              "name": "referralFee",
              "type": "uint256"
            }
          ],
          "internalType": "struct ISaloon.ReferralInfo",
          "name": "referralInfo",
          "type": "tuple"
        },
        {
          "internalType": "uint256",
          "name": "freezeTime",
          "type": "uint256"
        },
        {
          "internalType": "bool",
          "name": "isActive",
          "type": "bool"
        }
      ],
      "stateMutability": "view",
      "type": "function"
    },
    {
      "inputs": [],
      "name": "poolLength",
      "outputs": [
        {
          "internalType": "uint256",
          "name": "",
          "type": "uint256"
        }
      ],
      "stateMutability": "view",
      "type": "function"
    },
    {
      "inputs": [
        {
          "internalType": "uint256",
          "name": "_pid",
          "type": "uint256"
        },
        {
          "internalType": "uint256",
          "name": "_amount",
          "type": "uint256"
        }
      ],
      "name": "projectDepositWithdrawal",
      "outputs": [
        {
          "internalType": "bool",
          "name": "",
          "type": "bool"
        }
      ],
      "stateMutability": "nonpayable",
      "type": "function"
    },
    {
      "inputs": [],
      "name": "proxiableUUID",
      "outputs": [
        {
          "internalType": "bytes32",
          "name": "",
          "type": "bytes32"
        }
      ],
      "stateMutability": "view",
      "type": "function"
    },
    {
      "inputs": [
        {
          "internalType": "address",
          "name": "_token",
          "type": "address"
        },
        {
          "internalType": "uint256",
          "name": "_amount",
          "type": "uint256"
        }
      ],
      "name": "receiveStrategyYield",
      "outputs": [],
      "stateMutability": "nonpayable",
      "type": "function"
    },
    {
      "inputs": [
        {
          "internalType": "address",
          "name": "",
          "type": "address"
        },
        {
          "internalType": "address",
          "name": "",
          "type": "address"
        }
      ],
      "name": "referralBalances",
      "outputs": [
        {
          "internalType": "uint256",
          "name": "",
          "type": "uint256"
        }
      ],
      "stateMutability": "view",
      "type": "function"
    },
    {
      "inputs": [
        {
          "internalType": "address",
          "name": "from",
          "type": "address"
        },
        {
          "internalType": "address",
          "name": "to",
          "type": "address"
        },
        {
          "internalType": "uint256",
          "name": "tokenId",
          "type": "uint256"
        }
      ],
      "name": "safeTransferFrom",
      "outputs": [],
      "stateMutability": "nonpayable",
      "type": "function"
    },
    {
      "inputs": [
        {
          "internalType": "address",
          "name": "from",
          "type": "address"
        },
        {
          "internalType": "address",
          "name": "to",
          "type": "address"
        },
        {
          "internalType": "uint256",
          "name": "tokenId",
          "type": "uint256"
        },
        {
          "internalType": "bytes",
          "name": "data",
          "type": "bytes"
        }
      ],
      "name": "safeTransferFrom",
      "outputs": [],
      "stateMutability": "nonpayable",
      "type": "function"
    },
    {
      "inputs": [
        {
          "internalType": "address",
          "name": "",
          "type": "address"
        }
      ],
      "name": "saloonBountyProfit",
      "outputs": [
        {
          "internalType": "uint256",
          "name": "",
          "type": "uint256"
        }
      ],
      "stateMutability": "view",
      "type": "function"
    },
    {
      "inputs": [
        {
          "internalType": "address",
          "name": "",
          "type": "address"
        }
      ],
      "name": "saloonPremiumProfit",
      "outputs": [
        {
          "internalType": "uint256",
          "name": "",
          "type": "uint256"
        }
      ],
      "stateMutability": "view",
      "type": "function"
    },
    {
      "inputs": [
        {
          "internalType": "address",
          "name": "",
          "type": "address"
        }
      ],
      "name": "saloonStrategyProfit",
      "outputs": [
        {
          "internalType": "uint256",
          "name": "",
          "type": "uint256"
        }
      ],
      "stateMutability": "view",
      "type": "function"
    },
    {
      "inputs": [
        {
          "internalType": "uint256",
          "name": "_pid",
          "type": "uint256"
        },
        {
          "internalType": "uint256",
          "name": "_amount",
          "type": "uint256"
        }
      ],
      "name": "scheduleProjectDepositWithdrawal",
      "outputs": [
        {
          "internalType": "bool",
          "name": "",
          "type": "bool"
        }
      ],
      "stateMutability": "nonpayable",
      "type": "function"
    },
    {
      "inputs": [
        {
          "internalType": "uint256",
          "name": "_tokenId",
          "type": "uint256"
        }
      ],
      "name": "scheduleUnstake",
      "outputs": [
        {
          "internalType": "bool",
          "name": "",
          "type": "bool"
        }
      ],
      "stateMutability": "nonpayable",
      "type": "function"
    },
    {
      "inputs": [
        {
          "internalType": "uint256",
          "name": "_pid",
          "type": "uint256"
        },
        {
          "internalType": "uint256",
          "name": "_poolCap",
          "type": "uint256"
        },
        {
          "internalType": "uint16",
          "name": "_apy",
          "type": "uint16"
        },
        {
          "internalType": "uint256",
          "name": "_deposit",
          "type": "uint256"
        },
        {
          "internalType": "string",
          "name": "_strategyName",
          "type": "string"
        }
      ],
      "name": "setAPYandPoolCapAndDeposit",
      "outputs": [],
      "stateMutability": "nonpayable",
      "type": "function"
    },
    {
      "inputs": [
        {
          "internalType": "address",
          "name": "operator",
          "type": "address"
        },
        {
          "internalType": "bool",
          "name": "approved",
          "type": "bool"
        }
      ],
      "name": "setApprovalForAll",
      "outputs": [],
      "stateMutability": "nonpayable",
      "type": "function"
    },
    {
      "inputs": [
        {
          "internalType": "uint256",
          "name": "_pid",
          "type": "uint256"
        },
        {
          "internalType": "uint256",
          "name": "_amount",
          "type": "uint256"
        }
      ],
      "name": "stake",
      "outputs": [
        {
          "internalType": "uint256",
          "name": "",
          "type": "uint256"
        }
      ],
      "stateMutability": "nonpayable",
      "type": "function"
    },
    {
      "inputs": [
        {
          "internalType": "address",
          "name": "",
          "type": "address"
        }
      ],
      "name": "strategyAddressToPid",
      "outputs": [
        {
          "internalType": "uint256",
          "name": "",
          "type": "uint256"
        }
      ],
      "stateMutability": "view",
      "type": "function"
    },
    {
      "inputs": [
        {
          "internalType": "bytes4",
          "name": "interfaceId",
          "type": "bytes4"
        }
      ],
      "name": "supportsInterface",
      "outputs": [
        {
          "internalType": "bool",
          "name": "",
          "type": "bool"
        }
      ],
      "stateMutability": "view",
      "type": "function"
    },
    {
      "inputs": [],
      "name": "symbol",
      "outputs": [
        {
          "internalType": "string",
          "name": "",
          "type": "string"
        }
      ],
      "stateMutability": "view",
      "type": "function"
    },
    {
      "inputs": [
        {
          "internalType": "uint256",
          "name": "tokenId",
          "type": "uint256"
        }
      ],
      "name": "tokenURI",
      "outputs": [
        {
          "internalType": "string",
          "name": "",
          "type": "string"
        }
      ],
      "stateMutability": "view",
      "type": "function"
    },
    {
      "inputs": [
        {
          "internalType": "address",
          "name": "",
          "type": "address"
        }
      ],
      "name": "tokenWhitelist",
      "outputs": [
        {
          "internalType": "bool",
          "name": "",
          "type": "bool"
        }
      ],
      "stateMutability": "view",
      "type": "function"
    },
    {
      "inputs": [
        {
          "internalType": "address",
          "name": "from",
          "type": "address"
        },
        {
          "internalType": "address",
          "name": "to",
          "type": "address"
        },
        {
          "internalType": "uint256",
          "name": "tokenId",
          "type": "uint256"
        }
      ],
      "name": "transferFrom",
      "outputs": [],
      "stateMutability": "nonpayable",
      "type": "function"
    },
    {
      "inputs": [
        {
          "internalType": "address",
          "name": "newOwner",
          "type": "address"
        }
      ],
      "name": "transferOwnership",
      "outputs": [],
      "stateMutability": "nonpayable",
      "type": "function"
    },
    {
      "inputs": [
        {
          "internalType": "uint256",
          "name": "_tokenId",
          "type": "uint256"
        },
        {
          "internalType": "bool",
          "name": "_shouldHarvest",
          "type": "bool"
        }
      ],
      "name": "unstake",
      "outputs": [
        {
          "internalType": "bool",
          "name": "",
          "type": "bool"
        }
      ],
      "stateMutability": "nonpayable",
      "type": "function"
    },
    {
      "inputs": [
        {
          "internalType": "address",
          "name": "_strategyFactory",
          "type": "address"
        }
      ],
      "name": "updateStrategyFactoryAddress",
      "outputs": [],
      "stateMutability": "nonpayable",
      "type": "function"
    },
    {
      "inputs": [
        {
          "internalType": "address",
          "name": "_token",
          "type": "address"
        },
        {
          "internalType": "bool",
          "name": "_whitelisted",
          "type": "bool"
        },
        {
          "internalType": "uint256",
          "name": "_minStakeAmount",
          "type": "uint256"
        }
      ],
      "name": "updateTokenWhitelist",
      "outputs": [
        {
          "internalType": "bool",
          "name": "",
          "type": "bool"
        }
      ],
      "stateMutability": "nonpayable",
      "type": "function"
    },
    {
      "inputs": [
        {
          "internalType": "address",
          "name": "newImplementation",
          "type": "address"
        }
      ],
      "name": "upgradeTo",
      "outputs": [],
      "stateMutability": "nonpayable",
      "type": "function"
    },
    {
      "inputs": [
        {
          "internalType": "address",
          "name": "newImplementation",
          "type": "address"
        },
        {
          "internalType": "bytes",
          "name": "data",
          "type": "bytes"
        }
      ],
      "name": "upgradeToAndCall",
      "outputs": [],
      "stateMutability": "payable",
      "type": "function"
    },
    {
      "inputs": [
        {
          "internalType": "uint256",
          "name": "_pid",
          "type": "uint256"
        }
      ],
      "name": "viewBountyBalance",
      "outputs": [
        {
          "internalType": "uint256",
          "name": "",
          "type": "uint256"
        }
      ],
      "stateMutability": "view",
      "type": "function"
    },
    {
      "inputs": [
        {
          "internalType": "uint256",
          "name": "_pid",
          "type": "uint256"
        }
      ],
      "name": "viewBountyInfo",
      "outputs": [
        {
          "internalType": "uint256",
          "name": "payout",
          "type": "uint256"
        },
        {
          "internalType": "uint256",
          "name": "apy",
          "type": "uint256"
        },
        {
          "internalType": "uint256",
          "name": "staked",
          "type": "uint256"
        },
        {
          "internalType": "uint256",
          "name": "poolCap",
          "type": "uint256"
        }
      ],
      "stateMutability": "view",
      "type": "function"
    },
    {
      "inputs": [
        {
          "internalType": "uint256",
          "name": "_pid",
          "type": "uint256"
        }
      ],
      "name": "viewHackerPayout",
      "outputs": [
        {
          "internalType": "uint256",
          "name": "",
          "type": "uint256"
        }
      ],
      "stateMutability": "view",
      "type": "function"
    },
    {
      "inputs": [
        {
          "internalType": "uint256",
          "name": "_pid",
          "type": "uint256"
        }
      ],
      "name": "viewMinProjectDeposit",
      "outputs": [
        {
          "internalType": "uint256",
          "name": "",
          "type": "uint256"
        }
      ],
      "stateMutability": "view",
      "type": "function"
    },
    {
      "inputs": [
        {
          "internalType": "uint256",
          "name": "_pid",
          "type": "uint256"
        }
      ],
      "name": "viewPoolAPY",
      "outputs": [
        {
          "internalType": "uint256",
          "name": "",
          "type": "uint256"
        }
      ],
      "stateMutability": "view",
      "type": "function"
    },
    {
      "inputs": [
        {
          "internalType": "uint256",
          "name": "_pid",
          "type": "uint256"
        }
      ],
      "name": "viewPoolCap",
      "outputs": [
        {
          "internalType": "uint256",
          "name": "",
          "type": "uint256"
        }
      ],
      "stateMutability": "view",
      "type": "function"
    },
    {
      "inputs": [
        {
          "internalType": "uint256",
          "name": "_pid",
          "type": "uint256"
        }
      ],
      "name": "viewPoolPremiumInfo",
      "outputs": [
        {
          "internalType": "uint256",
          "name": "requiredPremiumBalancePerPeriod",
          "type": "uint256"
        },
        {
          "internalType": "uint256",
          "name": "premiumBalance",
          "type": "uint256"
        },
        {
          "internalType": "uint256",
          "name": "premiumAvailable",
          "type": "uint256"
        }
      ],
      "stateMutability": "view",
      "type": "function"
    },
    {
      "inputs": [
        {
          "internalType": "uint256",
          "name": "_pid",
          "type": "uint256"
        }
      ],
      "name": "viewPoolTimelockInfo",
      "outputs": [
        {
          "internalType": "uint256",
          "name": "timelock",
          "type": "uint256"
        },
        {
          "internalType": "uint256",
          "name": "timeLimit",
          "type": "uint256"
        },
        {
          "internalType": "uint256",
          "name": "withdrawalScheduledAmount",
          "type": "uint256"
        }
      ],
      "stateMutability": "view",
      "type": "function"
    },
    {
      "inputs": [
        {
          "internalType": "address",
          "name": "_referrer",
          "type": "address"
        },
        {
          "internalType": "address",
          "name": "_token",
          "type": "address"
        }
      ],
      "name": "viewReferralBalance",
      "outputs": [
        {
          "internalType": "uint256",
          "name": "referralBalance",
          "type": "uint256"
        }
      ],
      "stateMutability": "view",
      "type": "function"
    },
    {
      "inputs": [
        {
          "internalType": "address",
          "name": "_token",
          "type": "address"
        }
      ],
      "name": "viewSaloonProfitBalance",
      "outputs": [
        {
          "internalType": "uint256",
          "name": "totalProfit",
          "type": "uint256"
        },
        {
          "internalType": "uint256",
          "name": "bountyProfit",
          "type": "uint256"
        },
        {
          "internalType": "uint256",
          "name": "strategyProfit",
          "type": "uint256"
        },
        {
          "internalType": "uint256",
          "name": "premiumProfit",
          "type": "uint256"
        }
      ],
      "stateMutability": "view",
      "type": "function"
    },
    {
      "inputs": [
        {
          "internalType": "uint256",
          "name": "_tokenId",
          "type": "uint256"
        }
      ],
      "name": "viewTokenInfo",
      "outputs": [
        {
          "internalType": "uint256",
          "name": "amount",
          "type": "uint256"
        },
        {
          "internalType": "uint256",
          "name": "apy",
          "type": "uint256"
        },
        {
          "internalType": "uint256",
          "name": "actualPending",
          "type": "uint256"
        },
        {
          "internalType": "uint256",
          "name": "unclaimed",
          "type": "uint256"
        },
        {
          "internalType": "uint256",
          "name": "timelock",
          "type": "uint256"
        }
      ],
      "stateMutability": "view",
      "type": "function"
    },
    {
      "inputs": [
        {
          "internalType": "uint256",
          "name": "_pid",
          "type": "uint256"
        }
      ],
      "name": "viewTotalStaked",
      "outputs": [
        {
          "internalType": "uint256",
          "name": "",
          "type": "uint256"
        }
      ],
      "stateMutability": "view",
      "type": "function"
    },
    {
      "inputs": [
        {
          "internalType": "uint256",
          "name": "_tokenId",
          "type": "uint256"
        }
      ],
      "name": "viewUserUnclaimed",
      "outputs": [
        {
          "internalType": "uint256",
          "name": "unclaimed",
          "type": "uint256"
        }
      ],
      "stateMutability": "view",
      "type": "function"
    },
    {
      "inputs": [
        {
          "internalType": "uint256",
          "name": "_pid",
          "type": "uint256"
        }
      ],
      "name": "windDownBounty",
      "outputs": [
        {
          "internalType": "bool",
          "name": "",
          "type": "bool"
        }
      ],
      "stateMutability": "nonpayable",
      "type": "function"
    }
  ],
  "bytecode": {
    "object": "0x60a0604052306080523480156200001557600080fd5b50600160ca55600054610100900460ff16158080156200003c5750600054600160ff909116105b806200006c575062000059306200019760201b6200686b1760201c565b1580156200006c575060005460ff166001145b620000d55760405162461bcd60e51b815260206004820152602e60248201527f496e697469616c697a61626c653a20636f6e747261637420697320616c72656160448201526d191e481a5b9a5d1a585b1a5e995960921b60648201526084015b60405180910390fd5b6000805460ff191660011790558015620000f9576000805461ff0019166101001790555b620001496040518060400160405280600b81526020016a2137bab73a3caa37b5b2b760a91b8152506040518060400160405280600381526020016210951560ea1b815250620001a660201b60201c565b801562000190576000805461ff0019169055604051600181527f7f26b83ff96e1f2b6a682f133852f6798a09c465da95921460cefb38474024989060200160405180910390a15b5062000400565b6001600160a01b03163b151590565b600054610100900460ff16620002025760405162461bcd60e51b815260206004820152602b602482015260008051602062009d4483398151915260448201526a6e697469616c697a696e6760a81b6064820152608401620000cc565b6200020e828262000212565b5050565b600054610100900460ff166200026e5760405162461bcd60e51b815260206004820152602b602482015260008051602062009d4483398151915260448201526a6e697469616c697a696e6760a81b6064820152608401620000cc565b60fd6200027c838262000334565b5060fe6200028b828262000334565b505050565b634e487b7160e01b600052604160045260246000fd5b600181811c90821680620002bb57607f821691505b602082108103620002dc57634e487b7160e01b600052602260045260246000fd5b50919050565b601f8211156200028b57600081815260208120601f850160051c810160208610156200030b5750805b601f850160051c820191505b818110156200032c5782815560010162000317565b505050505050565b81516001600160401b0381111562000350576200035062000290565b6200036881620003618454620002a6565b84620002e2565b602080601f831160018114620003a05760008415620003875750858301515b600019600386901b1c1916600185901b1785556200032c565b600085815260208120601f198616915b82811015620003d157888601518255948401946001909101908401620003b0565b5085821015620003f05787850151600019600388901b60f8161c191681555b5050505050600190811b01905550565b60805161990c6200043860003960008181611fba01528181611ffa01528181612c8e01528181612cce0152613147015261990c6000f3fe60806040526004361061047e5760003560e01c806370a0823111610255578063ac30b85611610144578063cf9564b9116100c1578063e985e9c511610085578063e985e9c514610fd4578063ecd7fbed1461101e578063f2fde38b1461103e578063f47ec3be1461105e578063f68ce4991461107e578063fb9920731461109357600080fd5b8063cf9564b914610f18578063dbdd695714610f38578063e45abd0f14610f58578063e63d6ee414610f86578063e78ea3df14610fb457600080fd5b8063b88d4fde11610108578063b88d4fde14610e6a578063bb7019c114610e8a578063c4d66de814610eaa578063c87b56dd14610eca578063ca00614814610eea57600080fd5b8063ac30b85614610dc7578063ae07f94814610de7578063b1a2d16f14610e07578063b20b242914610e27578063b842e87f14610e5557600080fd5b8063949a4a4a116101d25780639ebea88c116101965780639ebea88c14610d275780639f224f3514610d47578063a089a52014610d67578063a22cb46514610d87578063a27f921314610da757600080fd5b8063949a4a4a14610c84578063957deecc14610ca457806395d89b4114610cd257806396ea48e814610ce7578063983c1ce014610d0757600080fd5b80637fbf3853116102195780637fbf385314610bc2578063836ef1fa14610be2578063861e5f6614610c025780638da5cb5b14610c22578063928dc6a914610c4057600080fd5b806370a0823114610b1c578063718c7eef14610b3c578063753d756314610b5c57806375bfd63d14610b8d5780637b0472f014610ba257600080fd5b80632dbe051e1161037157806342842e0e116102ee578063598d17bf116102b2578063598d17bf14610a605780635c46f7b114610a8e578063612afc0c14610aae5780636352211e14610adc5780636ac6d81214610afc57600080fd5b806342842e0e146109d85780634f1ef286146109f85780634f3214cc14610a0b57806352d1902d14610a2b5780635669cbef14610a4057600080fd5b806339679ff41161033557806339679ff4146109085780633ac6ad7b146109285780633e8888d91461094857806340bd1d001461095d57806340ef28681461099857600080fd5b80632dbe051e1461085a57806330ca07941461087a5780633538fda01461089a5780633659cfe6146108ba57806339458723146108da57600080fd5b806310725852116103ff5780631df56622116103c35780631df56622146107475780631f8bc7901461077557806323b872dd146108035780632986c0e5146108235780632cb0dfcc1461083a57600080fd5b8063107258521461065a5780631526fe27146106a257806319693071146106d65780631aebcecb146107075780631c6b323f1461072757600080fd5b8063081e3eda11610446578063081e3eda1461059b578063095ea7b3146105b15780630a015ab1146105d35780630ed7610c146105f3578063106d08df1461063a57600080fd5b8063011b408b1461048357806301ffc9a7146104cf57806306fdde03146104ff578063074ecf0314610521578063081812fc1461057b575b600080fd5b34801561048f57600080fd5b506104bc61049e366004618b75565b61013960209081526000928352604080842090915290825290205481565b6040519081526020015b60405180910390f35b3480156104db57600080fd5b506104ef6104ea366004618bc4565b6110b3565b60405190151581526020016104c6565b34801561050b57600080fd5b50610514611105565b6040516104c69190618c31565b34801561052d57600080fd5b5061056361053c366004618c44565b61013b6020908152600092835260408084209091529082529020546001600160a01b031681565b6040516001600160a01b0390911681526020016104c6565b34801561058757600080fd5b50610563610596366004618c66565b611197565b3480156105a757600080fd5b50610130546104bc565b3480156105bd57600080fd5b506105d16105cc366004618c7f565b6111bf565b005b3480156105df57600080fd5b506104bc6105ee366004618c44565b6112d9565b3480156105ff57600080fd5b506104bc61060e366004618b75565b6001600160a01b0391821660009081526101396020908152604080832093909416825291909152205490565b34801561064657600080fd5b506104ef610655366004618c66565b6112ec565b34801561066657600080fd5b5061067a610675366004618c66565b6113d3565b604080519586526020860194909452928401919091526060830152608082015260a0016104c6565b3480156106ae57600080fd5b506106c26106bd366004618c66565b61146b565b6040516104c6989796959493929190618d16565b3480156106e257600080fd5b506104bc6106f1366004618c66565b6000908152610134602052604090206003015490565b34801561071357600080fd5b506105d1610722366004618c7f565b6116bc565b34801561073357600080fd5b506104bc610742366004618c66565b611775565b34801561075357600080fd5b506104bc610762366004618c66565b6101326020526000908152604090205481565b34801561078157600080fd5b506107ce610790366004618c66565b610134602052600090815260409020805460018201546002830154600384015460048501546005860154600690960154949593949293919290919087565b604080519788526020880196909652948601939093526060850191909152608084015260a083015260c082015260e0016104c6565b34801561080f57600080fd5b506105d161081e366004618e39565b611a5e565b34801561082f57600080fd5b506104bc6101035481565b34801561084657600080fd5b506104ef610855366004618e88565b611a8f565b34801561086657600080fd5b506104ef610875366004618c66565b611ce1565b34801561088657600080fd5b506105d1610895366004618f5b565b611cfe565b3480156108a657600080fd5b506105d16108b5366004618fcf565b611f85565b3480156108c657600080fd5b506105d16108d5366004618fcf565b611fb0565b3480156108e657600080fd5b506104bc6108f5366004618fcf565b6101406020526000908152604090205481565b34801561091457600080fd5b506104bc610923366004618c66565b61208f565b34801561093457600080fd5b506104ef610943366004618fec565b61236a565b34801561095457600080fd5b506104ef6127dc565b34801561096957600080fd5b5061097d610978366004618c66565b61283f565b604080519384526020840192909252908201526060016104c6565b3480156109a457600080fd5b506109b86109b3366004618c66565b612c30565b6040805194855260208501939093529183015260608201526080016104c6565b3480156109e457600080fd5b506105d16109f3366004618e39565b612c69565b6105d1610a06366004619013565b612c84565b348015610a1757600080fd5b506104bc610a26366004619063565b612d54565b348015610a3757600080fd5b506104bc61313a565b348015610a4c57600080fd5b506104ef610a5b366004618c44565b6131ed565b348015610a6c57600080fd5b506104bc610a7b366004618fcf565b6101386020526000908152604090205481565b348015610a9a57600080fd5b506104bc610aa9366004618c44565b61331b565b348015610aba57600080fd5b506104bc610ac9366004618c66565b6101336020526000908152604090205481565b348015610ae857600080fd5b50610563610af7366004618c66565b6136d4565b348015610b0857600080fd5b506104bc610b17366004618c66565b613734565b348015610b2857600080fd5b506104bc610b37366004618fcf565b613a1e565b348015610b4857600080fd5b506109b8610b57366004618fcf565b613aa5565b348015610b6857600080fd5b506104ef610b77366004618fcf565b61013e6020526000908152604090205460ff1681565b348015610b9957600080fd5b506105d1613af5565b348015610bae57600080fd5b506104bc610bbd366004618c44565b613b1d565b348015610bce57600080fd5b506104bc610bdd366004618c66565b61400f565b348015610bee57600080fd5b506104bc610bfd366004618c44565b614309565b348015610c0e57600080fd5b506104bc610c1d366004618c66565b61433f565b348015610c2e57600080fd5b506033546001600160a01b0316610563565b348015610c4c57600080fd5b50610c60610c5b366004618c44565b61463f565b6040805193845260208401929092526001600160a01b0316908201526060016104c6565b348015610c9057600080fd5b506105d1610c9f366004618c66565b614980565b348015610cb057600080fd5b506104bc610cbf366004618fcf565b61013d6020526000908152604090205481565b348015610cde57600080fd5b50610514614dc3565b348015610cf357600080fd5b506104bc610d02366004618c44565b614dd2565b348015610d1357600080fd5b506104ef610d22366004618c44565b614e04565b348015610d3357600080fd5b506104ef610d4236600461908f565b614f8b565b348015610d5357600080fd5b50610563610d62366004618c66565b615191565b348015610d7357600080fd5b506104ef610d82366004618fcf565b6151bc565b348015610d9357600080fd5b506105d1610da23660046190b4565b615232565b348015610db357600080fd5b506104bc610dc2366004618c66565b61523d565b348015610dd357600080fd5b5061097d610de2366004618c66565b61551b565b348015610df357600080fd5b506105d1610e023660046190e2565b61580d565b348015610e1357600080fd5b5061097d610e22366004618c66565b61590d565b348015610e3357600080fd5b506104bc610e42366004618c66565b61013c6020526000908152604090205481565b348015610e6157600080fd5b506105d1615c14565b348015610e7657600080fd5b506105d1610e85366004619132565b615c94565b348015610e9657600080fd5b506104ef610ea5366004618c66565b615ccc565b348015610eb657600080fd5b506105d1610ec5366004618fcf565b615d98565b348015610ed657600080fd5b50610514610ee5366004618c66565b615ec5565b348015610ef657600080fd5b506104bc610f05366004618fcf565b6101376020526000908152604090205481565b348015610f2457600080fd5b506104ef610f33366004618b75565b615f38565b348015610f4457600080fd5b506104bc610f53366004618c66565b615f9c565b348015610f6457600080fd5b506104bc610f73366004618fcf565b6101366020526000908152604090205481565b348015610f9257600080fd5b506104bc610fa1366004618c66565b6101316020526000908152604090205481565b348015610fc057600080fd5b506105d1610fcf366004618c66565b616277565b348015610fe057600080fd5b506104ef610fef366004618b75565b6001600160a01b0391821660009081526101026020908152604080832093909416825291909152205460ff1690565b34801561102a57600080fd5b506104ef611039366004618fcf565b616306565b34801561104a57600080fd5b506105d1611059366004618fcf565b616369565b34801561106a57600080fd5b506105d1611079366004618c66565b6163f8565b34801561108a57600080fd5b506105d1616415565b34801561109f57600080fd5b506104bc6110ae36600461919e565b61643d565b60006001600160e01b031982166380ac58cd60e01b14806110e457506001600160e01b03198216635b5e139f60e01b145b806110ff57506301ffc9a760e01b6001600160e01b03198316145b92915050565b606060fd80546111149061921b565b80601f01602080910402602001604051908101604052809291908181526020018280546111409061921b565b801561118d5780601f106111625761010080835404028352916020019161118d565b820191906000526020600020905b81548152906001019060200180831161117057829003601f168201915b5050505050905090565b60006111a28261687a565b50600090815261010160205260409020546001600160a01b031690565b60006111ca826136d4565b9050806001600160a01b0316836001600160a01b03160361123c5760405162461bcd60e51b815260206004820152602160248201527f4552433732313a20617070726f76616c20746f2063757272656e74206f776e656044820152603960f91b60648201526084015b60405180910390fd5b336001600160a01b038216148061125857506112588133610fef565b6112ca5760405162461bcd60e51b815260206004820152603d60248201527f4552433732313a20617070726f76652063616c6c6572206973206e6f7420746f60448201527f6b656e206f776e6572206f7220617070726f76656420666f7220616c6c0000006064820152608401611233565b6112d483836168d9565b505050565b60006112e58284616948565b9392505050565b6000336112f8836136d4565b6001600160a01b0316146113445760405162461bcd60e51b815260206004820152601360248201527239b2b73232b91034b9903737ba1037bbb732b960691b6044820152606401611233565b6000828152610133602090815260408083205461013490925290912061136d62093a804261926b565b600582015561137f62093a804261926b565b61138c906203f48061926b565b6006820155805460405181815283907fb3b9c925de3673837b40c6b4d4463a8f88dc821cd27e07f1ff6bf6abf96413a59060200160405180910390a2506001949350505050565b600081815261013360209081526040808320546101348352818420825160e081018452815480825260018301549582019590955260028201549381018490526003820154606082015260048201546080820152600582015460a082015260069091015460c0820152929391928291829161144c8861283f565b50606083015160a090930151989a979950979196919550909350505050565b610130818154811061147c57600080fd5b60009182526020918290206040805161010081018252601790930290910180546001600160a01b03808216855260ff600160a01b8304169585019590955261ffff600160a81b9091041691830191909152600181015490921660608201526002820180549293509091839160808401916114f59061921b565b80601f01602080910402602001604051908101604052809291908181526020018280546115219061921b565b801561156e5780601f106115435761010080835404028352916020019161156e565b820191906000526020600020905b81548152906001019060200180831161155157829003601f168201915b50505091835250506003820154602080830191909152600483015460408084019190915260059093015460609283015282518084018452600686015481526007860154818301528351808501855260088701548152600987015481840152845160808082018752600a8901548252600b89015482860152600c89015482880152600d89015460ff1615158287015286519081018752600e890180548252600f8a01548287015260108a01548289015260118a018054895181890281018901909a52808a52999a959994989397959692959194918601939290919083018282801561167757602002820191906000526020600020905b815481526020019060010190808311611663575b5050509190925250506040805180820190915260128401546001600160a01b031681526013840154602082015260158401546016909401549293909290915060ff1688565b6116d16001600160a01b038316333084616954565b5033600090815261013d60205260408120549081900361171f576001600160a01b038316600090815261013860205260408120805484929061171490849061926b565b909155506112d49050565b600080600061172e848661463f565b92509250925061173f8187846169c2565b6001600160a01b038616600090815261013860205260408120805485929061176890849061926b565b9091555050505050505050565b600080610130838154811061178c5761178c61927e565b6000918252602090912060408051610220810190915260179092020180546001600160a01b038082166101208501908152600160a01b830460ff16610140860152600160a81b90920461ffff1661016085015260018301541661018084015260028201805484929184916101a0850191906118069061921b565b80601f01602080910402602001604051908101604052809291908181526020018280546118329061921b565b801561187f5780601f106118545761010080835404028352916020019161187f565b820191906000526020600020905b81548152906001019060200180831161186257829003601f168201915b505050918352505060038201546020808301919091526004830154604080840191909152600590930154606092830152928452815180830183526006860154815260078601548185015284840152815180830183526008860154815260098601548185015284830152815160808082018452600a8701548252600b87015482860152600c87015482850152600d87015460ff161515828401528583019190915282518082018452600e870180548252600f8801548287015260108801548286015260118801805486518189028101890190975280875293909701969195909493860193929083018282801561199357602002820191906000526020600020905b81548152602001906001019080831161197f575b50505091909252505050815260408051808201825260128401546001600160a01b03168152601384015460208281019190915280840191909152601484018054835181840281018401855281815293909401939091830182828015611a2157602002820191906000526020600020905b81546001600160a01b03168152600190910190602001808311611a03575b5050509183525050601582015460208083019190915260169092015460ff161515604090910152818101519081015190519192506112e59161926b565b611a683382616a13565b611a845760405162461bcd60e51b815260040161123390619294565b6112d4838383616a92565b6000611a99616bf8565b6001600160a01b038416600090815261013e602052604090205460ff16151583151480611ac65750600082115b611b0b5760405162461bcd60e51b81526020600482015260166024820152751b9bc818da185b99d9481d1bc81dda1a5d195b1a5cdd60521b6044820152606401611233565b6001600160a01b038416600081815261013e6020526040808220805460ff191687151590811790915590519092917f99795d51e5a8804307721456a7a9c2f0d7421f719d46a46d36e91fee7c85aa7691a38215611bc35761013f8054600181019091557f61537fc21ace3653481170484f792538e1b4bc282f58b619d975a553f7077a760180546001600160a01b0319166001600160a01b038616908117909155600090815261014060205260409020829055611cd7565b61013f5460005b81811015611cd457600061013f8281548110611be857611be861927e565b6000918252602090912001546001600160a01b03908116915087168103611cc35761013f611c176001856192e1565b81548110611c2757611c2761927e565b60009182526020909120015461013f80546001600160a01b039092169184908110611c5457611c5461927e565b9060005260206000200160006101000a8154816001600160a01b0302191690836001600160a01b0316021790555061013f805480611c9457611c946192f4565b600082815260209020810160001990810180546001600160a01b031916905501905550600192506112e5915050565b50611ccd8161930a565b9050611bca565b50505b5060019392505050565b6000611ceb616bf8565b611cf6826000616c52565b506001919050565b60006101308681548110611d1457611d1461927e565b60009182526020909120601790910201601681015490915060ff16158015611d3e57506003810154155b611d8a5760405162461bcd60e51b815260206004820152601860248201527f506f6f6c20616c726561647920696e697469616c697a656400000000000000006044820152606401611233565b60008461ffff16118015611da457506127108461ffff1611155b611de35760405162461bcd60e51b815260206004820152601060248201526f415059206f7574206f662072616e676560801b6044820152606401611233565b8054611dfa90600160a01b900460ff16600a619407565b611e05906064619416565b8510158015611e3757508054611e2690600160a01b900460ff16600a619407565b611e339062989680619416565b8511155b611e7b5760405162461bcd60e51b8152602060048201526015602482015274506f6f6c20636170206f7574206f662072616e676560581b6044820152606401611233565b60018101546001600160a01b03163314611ea75760405162461bcd60e51b81526004016112339061942d565b6000611eb7868661ffff16614309565b90506000612710611eca6103e884619416565b611ed4919061946b565b9050611ef83330611ee5858961926b565b86546001600160a01b0316929190616954565b5084836006016000016000828254611f10919061926b565b909155505060038301879055825461ffff60a81b1916600160a81b61ffff88160217835560168301805460ff1916600117905560088301829055611f5481836192e1565b6009840155611f678861ffff8816616dd5565b835115611f7b57611f79888587616e2c565b505b5050505050505050565b611f8d616bf8565b61013a80546001600160a01b0319166001600160a01b0392909216919091179055565b6001600160a01b037f0000000000000000000000000000000000000000000000000000000000000000163003611ff85760405162461bcd60e51b81526004016112339061948d565b7f00000000000000000000000000000000000000000000000000000000000000006001600160a01b0316612041600080516020619890833981519152546001600160a01b031690565b6001600160a01b0316146120675760405162461bcd60e51b8152600401611233906194d9565b61207081616fc6565b6040805160008082526020820190925261208c91839190616fce565b50565b60008061013083815481106120a6576120a661927e565b6000918252602090912060408051610220810190915260179092020180546001600160a01b038082166101208501908152600160a01b830460ff16610140860152600160a81b90920461ffff1661016085015260018301541661018084015260028201805484929184916101a0850191906121209061921b565b80601f016020809104026020016040519081016040528092919081815260200182805461214c9061921b565b80156121995780601f1061216e57610100808354040283529160200191612199565b820191906000526020600020905b81548152906001019060200180831161217c57829003601f168201915b505050918352505060038201546020808301919091526004830154604080840191909152600590930154606092830152928452815180830183526006860154815260078601548185015284840152815180830183526008860154815260098601548185015284830152815160808082018452600a8701548252600b87015482860152600c87015482850152600d87015460ff161515828401528583019190915282518082018452600e870180548252600f880154828701526010880154828601526011880180548651818902810189019097528087529390970196919590949386019392908301828280156122ad57602002820191906000526020600020905b815481526020019060010190808311612299575b50505091909252505050815260408051808201825260128401546001600160a01b0316815260138401546020828101919091528084019190915260148401805483518184028101840185528181529390940193909183018282801561233b57602002820191906000526020600020905b81546001600160a01b0316815260019091019060200180831161231d575b50505091835250506015820154602082015260169091015460ff1615156040909101525160a001519392505050565b6000612374616bf8565b6000610130858154811061238a5761238a61927e565b600091825260208220600460179092020190810154909250906123ac87611775565b6123b6908361926b565b90508082861161255c5782860361245d5760008881526101356020526040812054905b8181101561243f5760008a8152610135602052604081208054839081106124025761240261927e565b90600052602060002001549050600061013460008381526020019081526020016000209050612432826000617139565b60009055506001016123d9565b50600060048601819055612457906014870190618951565b50612676565b600083612472670de0b6b3a764000089619416565b61247c919061946b565b60008a815261013560205260408120549192505b818110156125545760008b8152610135602052604081208054839081106124b9576124b961927e565b906000526020600020015490506000610134600083815260200190815260200160002090506124e9826000617139565b6000670de0b6b3a76400008683600001546125049190619416565b61250e919061946b565b90508082600001600082825461252491906192e1565b909155505060048a0180548291906000906125409084906192e1565b909155505060019093019250612490915050565b505050612676565b828611801561256b5750818611155b1561263c5760008881526101356020526040812054905b818110156125e85760008a8152610135602052604081208054839081106125ab576125ab61927e565b906000526020600020015490506000610134600083815260200190815260200160002090506125db826000617139565b6000905550600101612582565b50600060048601819055612600906014870190618951565b61260989617272565b50600061261685896192e1565b90508086600601600001600082825461262f91906192e1565b9091555061267692505050565b60405162461bcd60e51b815260206004820152600f60248201526e082dadeeadce840e8dede40d0d2ced608b1b6044820152606401611233565b60006127106126876103e889619416565b612691919061946b565b9050600061269f82896192e1565b905060008060006126b08d8661463f565b8b5492955090935091506001600160a01b03166126ce8282856169c2565b6001600160a01b03811660009081526101366020526040812080548692906126f790849061926b565b90915550508954612712906001600160a01b03168e876173d0565b50600061271e8f611775565b60048c015461272d919061926b565b90508a60000160000160009054906101000a90046001600160a01b03166001600160a01b03168e6001600160a01b03167fbcbf239e05ac65bcc1a5612cd36d392b0a0aa8c93e027bc86e727687483424888f60405161278e91815260200190565b60405180910390a38e60008051602061987083398151915289836040516127bf929190918252602082015260400190565b60405180910390a25060019e9d5050505050505050505050505050565b61013f54600090815b8181101561283657600061013f82815481106128035761280361927e565b6000918252602090912001546001600160a01b03169050612823816151bc565b50508061282f9061930a565b90506127e5565b50600191505090565b6000818152610133602052604081205461013080548392839290918391908390811061286d5761286d61927e565b6000918252602090912060408051610220810190915260179092020180546001600160a01b038082166101208501908152600160a01b830460ff16610140860152600160a81b90920461ffff1661016085015260018301541661018084015260028201805484929184916101a0850191906128e79061921b565b80601f01602080910402602001604051908101604052809291908181526020018280546129139061921b565b80156129605780601f1061293557610100808354040283529160200191612960565b820191906000526020600020905b81548152906001019060200180831161294357829003601f168201915b505050918352505060038201546020808301919091526004830154604080840191909152600590930154606092830152928452815180830183526006860154815260078601548185015284840152815180830183526008860154815260098601548185015284830152815160808082018452600a8701548252600b87015482860152600c87015482850152600d87015460ff161515828401528583019190915282518082018452600e870180548252600f88015482870152601088015482860152601188018054865181890281018901909752808752939097019691959094938601939290830182828015612a7457602002820191906000526020600020905b815481526020019060010190808311612a60575b50505091909252505050815260408051808201825260128401546001600160a01b03168152601384015460208281019190915280840191909152601484018054835181840281018401855281815293909401939091830182828015612b0257602002820191906000526020600020905b81546001600160a01b03168152600190910190602001808311612ae4575b5050509183525050601582015460208083019190915260169092015460ff16151560409182015260008981526101348352818120825160e08082018552825482526001830154958201959095526002820154938101939093526003810154606084015260048101546080840152600581015460a08401526006015460c083015291830151929350918103612b965742612b9c565b8260e001515b90506000612bae8360800151836112d9565b90506301e133808161271085604001518660000151612bcd9190619416565b612bd7919061946b565b612be19190619416565b612beb919061946b565b9550826060015186612bfd919061926b565b9750612710612c0e6103e8826192e1565b612c18908a619416565b612c22919061946b565b965050505050509193909250565b600080600080612c3f8561433f565b9350612c4a85615f9c565b9150612c558561523d565b9250612c608561208f565b90509193509193565b6112d483838360405180602001604052806000815250615c94565b6001600160a01b037f0000000000000000000000000000000000000000000000000000000000000000163003612ccc5760405162461bcd60e51b81526004016112339061948d565b7f00000000000000000000000000000000000000000000000000000000000000006001600160a01b0316612d15600080516020619890833981519152546001600160a01b031690565b6001600160a01b031614612d3b5760405162461bcd60e51b8152600401611233906194d9565b612d4482616fc6565b612d5082826001616fce565b5050565b6000806101308581548110612d6b57612d6b61927e565b6000918252602090912060408051610220810190915260179092020180546001600160a01b038082166101208501908152600160a01b830460ff16610140860152600160a81b90920461ffff1661016085015260018301541661018084015260028201805484929184916101a085019190612de59061921b565b80601f0160208091040260200160405190810160405280929190818152602001828054612e119061921b565b8015612e5e5780601f10612e3357610100808354040283529160200191612e5e565b820191906000526020600020905b815481529060010190602001808311612e4157829003601f168201915b505050918352505060038201546020808301919091526004830154604080840191909152600590930154606092830152928452815180830183526006860154815260078601548185015284840152815180830183526008860154815260098601548185015284830152815160808082018452600a8701548252600b87015482860152600c87015482850152600d87015460ff161515828401528583019190915282518082018452600e870180548252600f88015482870152601088015482860152601188018054865181890281018901909752808752939097019691959094938601939290830182828015612f7257602002820191906000526020600020905b815481526020019060010190808311612f5e575b50505091909252505050815260408051808201825260128401546001600160a01b0316815260138401546020828101919091528084019190915260148401805483518184028101840185528181529390940193909183018282801561300057602002820191906000526020600020905b81546001600160a01b03168152600190910190602001808311612fe2575b50505091835250506015820154602082015260169091015460ff16151560409091015290508260006130328787617403565b5090506000613041838361926b565b90506000613050826021619416565b61306290674563918244f4000061926b565b90506000613071856021619416565b61308390674563918244f4000061926b565b9050600061309861309384617460565b6174a9565b905060006130a861309384617460565b905060006130e66130b96021617460565b6130e06130c686866174e1565b6130da6a295be96e64066972000000617460565b906174f0565b906174ff565b905060006130f788620f4240619416565b613101908361946b565b8a5160e00151909150670de0b6b3a764000061311d8284619416565b613127919061946b565b9f9e505050505050505050505050505050565b6000306001600160a01b037f000000000000000000000000000000000000000000000000000000000000000016146131da5760405162461bcd60e51b815260206004820152603860248201527f555550535570677261646561626c653a206d757374206e6f742062652063616c60448201527f6c6564207468726f7567682064656c656761746563616c6c00000000000000006064820152608401611233565b5060008051602061989083398151915290565b60008061013084815481106132045761320461927e565b906000526020600020906017020190508261321e85611775565b101561326c5760405162461bcd60e51b815260206004820152601a60248201527f416d6f756e7420626967676572207468616e206465706f7369740000000000006044820152606401611233565b60018101546001600160a01b031633146132985760405162461bcd60e51b81526004016112339061942d565b6132a562093a804261926b565b600a8201556132b762093a804261926b565b6132c4906203f48061926b565b600b820155600c8101839055600d8101805460ff1916905560405183815284907fb3b9c925de3673837b40c6b4d4463a8f88dc821cd27e07f1ff6bf6abf96413a59060200160405180910390a25060019392505050565b60008061013084815481106133325761333261927e565b6000918252602090912060408051610220810190915260179092020180546001600160a01b038082166101208501908152600160a01b830460ff16610140860152600160a81b90920461ffff1661016085015260018301541661018084015260028201805484929184916101a0850191906133ac9061921b565b80601f01602080910402602001604051908101604052809291908181526020018280546133d89061921b565b80156134255780601f106133fa57610100808354040283529160200191613425565b820191906000526020600020905b81548152906001019060200180831161340857829003601f168201915b505050918352505060038201546020808301919091526004830154604080840191909152600590930154606092830152928452815180830183526006860154815260078601548185015284840152815180830183526008860154815260098601548185015284830152815160808082018452600a8701548252600b87015482860152600c87015482850152600d87015460ff161515828401528583019190915282518082018452600e870180548252600f8801548287015260108801548286015260118801805486518189028101890190975280875293909701969195909493860193929083018282801561353957602002820191906000526020600020905b815481526020019060010190808311613525575b50505091909252505050815260408051808201825260128401546001600160a01b031681526013840154602082810191909152808401919091526014840180548351818402810184018552818152939094019390918301828280156135c757602002820191906000526020600020905b81546001600160a01b031681526001909101906020018083116135a9575b50505091835250506015820154602082015260169091015460ff16151560409091015260808101515190915060006135ff8686617403565b509050600061360e838361926b565b9050600061361d826021619416565b61362f90674563918244f4000061926b565b9050600061363e856021619416565b61365090674563918244f4000061926b565b9050600061366061309384617460565b9050600061367061309384617460565b905060006136816130b96021617460565b9050600061369288620f4240619416565b61369c908361946b565b8a5160e00151909150670de0b6b3a76400006136b88284619416565b6136c2919061946b565b9e9d5050505050505050505050505050565b600081815260ff60205260408120546001600160a01b0316806110ff5760405162461bcd60e51b8152602060048201526018602482015277115490cdcc8c4e881a5b9d985b1a59081d1bdad95b88125160421b6044820152606401611233565b600080610130838154811061374b5761374b61927e565b6000918252602090912060408051610220810190915260179092020180546001600160a01b038082166101208501908152600160a01b830460ff16610140860152600160a81b90920461ffff1661016085015260018301541661018084015260028201805484929184916101a0850191906137c59061921b565b80601f01602080910402602001604051908101604052809291908181526020018280546137f19061921b565b801561383e5780601f106138135761010080835404028352916020019161383e565b820191906000526020600020905b81548152906001019060200180831161382157829003601f168201915b505050918352505060038201546020808301919091526004830154604080840191909152600590930154606092830152928452815180830183526006860154815260078601548185015284840152815180830183526008860154815260098601548185015284830152815160808082018452600a8701548252600b87015482860152600c87015482850152600d87015460ff161515828401528583019190915282518082018452600e870180548252600f8801548287015260108801548286015260118801805486518189028101890190975280875293909701969195909493860193929083018282801561395257602002820191906000526020600020905b81548152602001906001019080831161393e575b50505091909252505050815260408051808201825260128401546001600160a01b031681526013840154602082810191909152808401919091526014840180548351818402810184018552818152939094019390918301828280156139e057602002820191906000526020600020905b81546001600160a01b031681526001909101906020018083116139c2575b50505091835250506015820154602082015260169091015460ff1615156040909101529050613a0e83611775565b815160c001516112e5919061926b565b60006001600160a01b038216613a885760405162461bcd60e51b815260206004820152602960248201527f4552433732313a2061646472657373207a65726f206973206e6f7420612076616044820152683634b21037bbb732b960b91b6064820152608401611233565b506001600160a01b03166000908152610100602052604090205490565b6001600160a01b0381166000908152610136602090815260408083205461013783528184205461013890935290832054909181613ae2848361926b565b613aec919061926b565b93509193509193565b6101305460005b81811015612d5057613b0d81614980565b613b168161930a565b9050613afc565b6000613b27617517565b8260006101308281548110613b3e57613b3e61927e565b6000918252602090912060408051610220810190915260179092020180546001600160a01b038082166101208501908152600160a01b830460ff16610140860152600160a81b90920461ffff1661016085015260018301541661018084015260028201805484929184916101a085019190613bb89061921b565b80601f0160208091040260200160405190810160405280929190818152602001828054613be49061921b565b8015613c315780601f10613c0657610100808354040283529160200191613c31565b820191906000526020600020905b815481529060010190602001808311613c1457829003601f168201915b505050918352505060038201546020808301919091526004830154604080840191909152600590930154606092830152928452815180830183526006860154815260078601548185015284840152815180830183526008860154815260098601548185015284830152815160808082018452600a8701548252600b87015482860152600c87015482850152600d87015460ff161515828401528583019190915282518082018452600e870180548252600f88015482870152601088015482860152601188018054865181890281018901909752808752939097019691959094938601939290830182828015613d4557602002820191906000526020600020905b815481526020019060010190808311613d31575b50505091909252505050815260408051808201825260128401546001600160a01b03168152601384015460208281019190915280840191909152601484018054835181840281018401855281815293909401939091830182828015613dd357602002820191906000526020600020905b81546001600160a01b03168152600190910190602001808311613db5575b50505091835250506015820154602082015260169091015460ff161515604090910152610100810151909150613e3d5760405162461bcd60e51b815260206004820152600f60248201526e706f6f6c206e6f742061637469766560881b6044820152606401611233565b60006101308681548110613e5357613e5361927e565b60009182526020808320601790920290910180546001600160a01b03168352610140909152604090912054909150851015613ec45760405162461bcd60e51b8152602060048201526011602482015270135a5b881cdd185ad9481b9bdd081b595d607a1b6044820152606401611233565b6000613ecf87611775565b6004830154613ede919061926b565b8254909150613ef8906001600160a01b0316333089616954565b506000613f06883389617570565b905086836000016004016000828254613f1f919061926b565b9091555050600383015415801590613f3f57506003830154600484015411155b613f815760405162461bcd60e51b8152602060048201526013602482015272115e18d959591959081c1bdbdb081b1a5b5a5d606a1b6044820152606401611233565b604051878152889033907f1449c6dd7851abc30abf37f57715f492010519147cc2652fbc38202c18a6ee909060200160405180910390a36000613fc389611775565b6004850154613fd2919061926b565b60408051858152602081018390529192508a91600080516020619870833981519152910160405180910390a2509450505050506110ff600160ca55565b60008061013083815481106140265761402661927e565b6000918252602090912060408051610220810190915260179092020180546001600160a01b038082166101208501908152600160a01b830460ff16610140860152600160a81b90920461ffff1661016085015260018301541661018084015260028201805484929184916101a0850191906140a09061921b565b80601f01602080910402602001604051908101604052809291908181526020018280546140cc9061921b565b80156141195780601f106140ee57610100808354040283529160200191614119565b820191906000526020600020905b8154815290600101906020018083116140fc57829003601f168201915b505050918352505060038201546020808301919091526004830154604080840191909152600590930154606092830152928452815180830183526006860154815260078601548185015284840152815180830183526008860154815260098601548185015284830152815160808082018452600a8701548252600b87015482860152600c87015482850152600d87015460ff161515828401528583019190915282518082018452600e870180548252600f8801548287015260108801548286015260118801805486518189028101890190975280875293909701969195909493860193929083018282801561422d57602002820191906000526020600020905b815481526020019060010190808311614219575b50505091909252505050815260408051808201825260128401546001600160a01b031681526013840154602082810191909152808401919091526014840180548351818402810184018552818152939094019390918301828280156142bb57602002820191906000526020600020905b81546001600160a01b0316815260019091019060200180831161429d575b50505091835250506015820154602082015260169091015460ff161515604090910152608081015151815160e00151919250906142f7826177c3565b6143019190619416565b949350505050565b60006301e1338061271062093a806143218587619416565b61432b9190619416565b614335919061946b565b6112e5919061946b565b60008061013083815481106143565761435661927e565b6000918252602090912060408051610220810190915260179092020180546001600160a01b038082166101208501908152600160a01b830460ff16610140860152600160a81b90920461ffff1661016085015260018301541661018084015260028201805484929184916101a0850191906143d09061921b565b80601f01602080910402602001604051908101604052809291908181526020018280546143fc9061921b565b80156144495780601f1061441e57610100808354040283529160200191614449565b820191906000526020600020905b81548152906001019060200180831161442c57829003601f168201915b505050918352505060038201546020808301919091526004830154604080840191909152600590930154606092830152928452815180830183526006860154815260078601548185015284840152815180830183526008860154815260098601548185015284830152815160808082018452600a8701548252600b87015482860152600c87015482850152600d87015460ff161515828401528583019190915282518082018452600e870180548252600f8801548287015260108801548286015260118801805486518189028101890190975280875293909701969195909493860193929083018282801561455d57602002820191906000526020600020905b815481526020019060010190808311614549575b50505091909252505050815260408051808201825260128401546001600160a01b031681526013840154602082810191909152808401919091526014840180548351818402810184018552818152939094019390918301828280156145eb57602002820191906000526020600020905b81546001600160a01b031681526001909101906020018083116145cd575b50505091835250506015820154602082015260169091015460ff161515604090910152905061271061461f6103e8826192e1565b602083015151835160c00151614635919061926b565b6143359190619416565b60008060008061013086815481106146595761465961927e565b6000918252602090912060408051610220810190915260179092020180546001600160a01b038082166101208501908152600160a01b830460ff16610140860152600160a81b90920461ffff1661016085015260018301541661018084015260028201805484929184916101a0850191906146d39061921b565b80601f01602080910402602001604051908101604052809291908181526020018280546146ff9061921b565b801561474c5780601f106147215761010080835404028352916020019161474c565b820191906000526020600020905b81548152906001019060200180831161472f57829003601f168201915b505050918352505060038201546020808301919091526004830154604080840191909152600590930154606092830152928452815180830183526006860154815260078601548185015284840152815180830183526008860154815260098601548185015284830152815160808082018452600a8701548252600b87015482860152600c87015482850152600d87015460ff161515828401528583019190915282518082018452600e870180548252600f8801548287015260108801548286015260118801805486518189028101890190975280875293909701969195909493860193929083018282801561486057602002820191906000526020600020905b81548152602001906001019080831161484c575b50505091909252505050815260408051808201825260128401546001600160a01b031681526013840154602082810191909152808401919091526014840180548351818402810184018552818152939094019390918301828280156148ee57602002820191906000526020600020905b81546001600160a01b031681526001909101906020018083116148d0575b50505091835250506015820154602082015260169091015460ff16151560409091015260a0810151519091506001600160a01b038116614938578594506000935091506149799050565b60006127108360a0015160200151886149519190619416565b61495b919061946b565b9050600061496982896192e1565b9650909450909250614979915050565b9250925092565b600061013082815481106149965761499661927e565b6000918252602090912060408051610220810190915260179092020180546001600160a01b038082166101208501908152600160a01b830460ff16610140860152600160a81b90920461ffff1661016085015260018301541661018084015260028201805484929184916101a085019190614a109061921b565b80601f0160208091040260200160405190810160405280929190818152602001828054614a3c9061921b565b8015614a895780601f10614a5e57610100808354040283529160200191614a89565b820191906000526020600020905b815481529060010190602001808311614a6c57829003601f168201915b505050918352505060038201546020808301919091526004830154604080840191909152600590930154606092830152928452815180830183526006860154815260078601548185015284840152815180830183526008860154815260098601548185015284830152815160808082018452600a8701548252600b87015482860152600c87015482850152600d87015460ff161515828401528583019190915282518082018452600e870180548252600f88015482870152601088015482860152601188018054865181890281018901909752808752939097019691959094938601939290830182828015614b9d57602002820191906000526020600020905b815481526020019060010190808311614b89575b50505091909252505050815260408051808201825260128401546001600160a01b03168152601384015460208281019190915280840191909152601484018054835181840281018401855281815293909401939091830182828015614c2b57602002820191906000526020600020905b81546001600160a01b03168152600190910190602001808311614c0d575b50505091835250506015820154602082015260169091015460ff161515604090910152608081015160600151805191925090801580614c6d5750826101000151155b15614c785750505050565b60005b81811015614cb557614ca5838281518110614c9857614c9861927e565b6020026020010151617818565b614cae8161930a565b9050614c7b565b5060008481526101356020908152604080832080548251818502810185019093528083529192909190830182828015614d0d57602002820191906000526020600020905b815481526020019060010190808311614cf9575b5050835193945060009250829150505b82811015614d90576000848281518110614d3957614d3961927e565b60209081029190910181015160008181526101349092526040909120805491925090614d668b8287612d54565b60028301556001820154614d7a908661926b565b945050505080614d899061930a565b9050614d1d565b50806101308881548110614da657614da661927e565b600091825260209091206010601790920201015550505050505050565b606060fe80546111149061921b565b6101356020528160005260406000208181548110614def57600080fd5b90600052602060002001600091509150505481565b6000806101308481548110614e1b57614e1b61927e565b6000918252602090912060179091020160018101549091506001600160a01b03163314614e5a5760405162461bcd60e51b81526004016112339061942d565b600a81015442118015614e705750600b81015442105b8015614e815750600d81015460ff16155b8015614e915750600c8101548311155b8015614ea05750600a81015415155b614ebc5760405162461bcd60e51b815260040161123390619525565b600d8101805460ff191660011790556006810154831115614ee257614ee084617272565b505b6000614eed85611775565b6004830154614efc919061926b565b905083826006016000016000828254614f1591906192e1565b909155505060018201548254614f38916001600160a01b039182169116866173d0565b506000614f4486611775565b6004840154614f53919061926b565b60408051848152602081018390529192508791600080516020619870833981519152910160405180910390a250600195945050505050565b6000614f95617517565b33614f9f846136d4565b6001600160a01b031614614feb5760405162461bcd60e51b815260206004820152601360248201527239b2b73232b91034b9903737ba1037bbb732b960691b6044820152606401611233565b600083815261013360205260408120546101308054919291839081106150135761501361927e565b906000526020600020906017020190506000610134600087815260200190815260200160002090504281600501541080156150515750428160060154115b61506d5760405162461bcd60e51b815260040161123390619525565b6150778686617139565b80546000808355600583018190556006830181905561509585611775565b60048501546150a4919061926b565b905086156150b5576150b5886179de565b81156150e75760048401546150ca9083616948565b600485015583546150e5906001600160a01b031633846173d0565b505b604051828152859033907f7fc4727e062e336010f2c282598ef5f14facb3de68cf8195c2f23e1454b2b74e9060200160405180910390a3600061512986611775565b6004860154615138919061926b565b60408051848152602081018390529192508791600080516020619870833981519152910160405180910390a250505060119091018054600181810183556000928352602090922001869055925050506110ff600160ca55565b61013f81815481106151a257600080fd5b6000918252602090912001546001600160a01b0316905081565b336000818152610139602090815260408083206001600160a01b0386168085529252822080549083905591926151f39190836173d0565b5060405181815233907fbf7aaef98dccc47249def450ef0fd30757d553648a28fa7cd56e3b2b052724949060200160405180910390a250600192915050565b612d50338383617a4e565b60008061013083815481106152545761525461927e565b6000918252602090912060408051610220810190915260179092020180546001600160a01b038082166101208501908152600160a01b830460ff16610140860152600160a81b90920461ffff1661016085015260018301541661018084015260028201805484929184916101a0850191906152ce9061921b565b80601f01602080910402602001604051908101604052809291908181526020018280546152fa9061921b565b80156153475780601f1061531c57610100808354040283529160200191615347565b820191906000526020600020905b81548152906001019060200180831161532a57829003601f168201915b505050918352505060038201546020808301919091526004830154604080840191909152600590930154606092830152928452815180830183526006860154815260078601548185015284840152815180830183526008860154815260098601548185015284830152815160808082018452600a8701548252600b87015482860152600c87015482850152600d87015460ff161515828401528583019190915282518082018452600e870180548252600f8801548287015260108801548286015260118801805486518189028101890190975280875293909701969195909493860193929083018282801561545b57602002820191906000526020600020905b815481526020019060010190808311615447575b50505091909252505050815260408051808201825260128401546001600160a01b031681526013840154602082810191909152808401919091526014840180548351818402810184018552818152939094019390918301828280156154e957602002820191906000526020600020905b81546001600160a01b031681526001909101906020018083116154cb575b50505091835250506015820154602082015260169091015460ff1615156040918201529051015161ffff169392505050565b60008060008061013085815481106155355761553561927e565b6000918252602090912060408051610220810190915260179092020180546001600160a01b038082166101208501908152600160a01b830460ff16610140860152600160a81b90920461ffff1661016085015260018301541661018084015260028201805484929184916101a0850191906155af9061921b565b80601f01602080910402602001604051908101604052809291908181526020018280546155db9061921b565b80156156285780601f106155fd57610100808354040283529160200191615628565b820191906000526020600020905b81548152906001019060200180831161560b57829003601f168201915b505050918352505060038201546020808301919091526004830154604080840191909152600590930154606092830152928452815180830183526006860154815260078601548185015284840152815180830183526008860154815260098601548185015284830152815160808082018452600a8701548252600b87015482860152600c87015482850152600d87015460ff161515828401528583019190915282518082018452600e870180548252600f8801548287015260108801548286015260118801805486518189028101890190975280875293909701969195909493860193929083018282801561573c57602002820191906000526020600020905b815481526020019060010190808311615728575b50505091909252505050815260408051808201825260128401546001600160a01b031681526013840154602082810191909152808401919091526014840180548351818402810184018552818152939094019390918301828280156157ca57602002820191906000526020600020905b81546001600160a01b031681526001909101906020018083116157ac575b5050509183525050601582015460208083019190915260169092015460ff1615156040918201526060909201518051918101519201519097919650945092505050565b600061013084815481106158235761582361927e565b6000918252602090912060179091020160018101549091506001600160a01b031633146158625760405162461bcd60e51b81526004016112339061942d565b600061586d85611775565b600483015461587c919061926b565b8254909150615896906001600160a01b0316333087616954565b50838260060160000160008282546158ae919061926b565b90915550600090506158bf86611775565b60048401546158ce919061926b565b90506158db868587616e2c565b5060408051838152602081018390528791600080516020619870833981519152910160405180910390a2505050505050565b60008060008061013085815481106159275761592761927e565b6000918252602090912060408051610220810190915260179092020180546001600160a01b038082166101208501908152600160a01b830460ff16610140860152600160a81b90920461ffff1661016085015260018301541661018084015260028201805484929184916101a0850191906159a19061921b565b80601f01602080910402602001604051908101604052809291908181526020018280546159cd9061921b565b8015615a1a5780601f106159ef57610100808354040283529160200191615a1a565b820191906000526020600020905b8154815290600101906020018083116159fd57829003601f168201915b505050918352505060038201546020808301919091526004830154604080840191909152600590930154606092830152928452815180830183526006860154815260078601548185015284840152815180830183526008860154815260098601548185015284830152815160808082018452600a8701548252600b87015482860152600c87015482850152600d87015460ff161515828401528583019190915282518082018452600e870180548252600f88015482870152601088015482860152601188018054865181890281018901909752808752939097019691959094938601939290830182828015615b2e57602002820191906000526020600020905b815481526020019060010190808311615b1a575b50505091909252505050815260408051808201825260128401546001600160a01b03168152601384015460208281019190915280840191909152601484018054835181840281018401855281815293909401939091830182828015615bbc57602002820191906000526020600020905b81546001600160a01b03168152600190910190602001808311615b9e575b50505091835250506015820154602082015260169091015460ff161515604091820152815160a0810151910151919250615bf99161ffff16614309565b60409091015180516020909101519196909550909350915050565b6034546001600160a01b03163314615c7d5760405162461bcd60e51b815260206004820152602660248201527f6f6e6c792070656e64696e67206f776e65722063616e2061636365707420747260448201526530b739b332b960d11b6064820152608401611233565b603454615c92906001600160a01b0316617b1d565b565b615c9e3383616a13565b615cba5760405162461bcd60e51b815260040161123390619294565b615cc684848484617b7a565b50505050565b6000806101308381548110615ce357615ce361927e565b6000918252602090912060179091020160018101549091506001600160a01b0316331480615d1b57506033546001600160a01b031633145b615d375760405162461bcd60e51b81526004016112339061942d565b601681015460ff16615d7d5760405162461bcd60e51b815260206004820152600f60248201526e506f6f6c206e6f742061637469766560881b6044820152606401611233565b60168101805460ff1916905542601590910155506001919050565b600054610100900460ff1615808015615db85750600054600160ff909116105b80615dd25750303b158015615dd2575060005460ff166001145b615e355760405162461bcd60e51b815260206004820152602e60248201527f496e697469616c697a61626c653a20636f6e747261637420697320616c72656160448201526d191e481a5b9a5d1a585b1a5e995960921b6064820152608401611233565b6000805460ff191660011790558015615e58576000805461ff0019166101001790555b615e60617bad565b61013a80546001600160a01b0319166001600160a01b0384161790558015612d50576000805461ff0019169055604051600181527f7f26b83ff96e1f2b6a682f133852f6798a09c465da95921460cefb38474024989060200160405180910390a15050565b6060615ed08261687a565b6000615ee760408051602081019091526000815290565b90506000815111615f0757604051806020016040528060008152506112e5565b80615f1184617bdc565b604051602001615f2292919061956e565b6040516020818303038152906040529392505050565b6000615f42616bf8565b6000615f4d84613aa5565b5050506001600160a01b0385166000818152610136602090815260408083208390556101378252808320839055610138909152812055909150615f919084836173d0565b506001949350505050565b6000806101308381548110615fb357615fb361927e565b6000918252602090912060408051610220810190915260179092020180546001600160a01b038082166101208501908152600160a01b830460ff16610140860152600160a81b90920461ffff1661016085015260018301541661018084015260028201805484929184916101a08501919061602d9061921b565b80601f01602080910402602001604051908101604052809291908181526020018280546160599061921b565b80156160a65780601f1061607b576101008083540402835291602001916160a6565b820191906000526020600020905b81548152906001019060200180831161608957829003601f168201915b505050918352505060038201546020808301919091526004830154604080840191909152600590930154606092830152928452815180830183526006860154815260078601548185015284840152815180830183526008860154815260098601548185015284830152815160808082018452600a8701548252600b87015482860152600c87015482850152600d87015460ff161515828401528583019190915282518082018452600e870180548252600f880154828701526010880154828601526011880180548651818902810189019097528087529390970196919590949386019392908301828280156161ba57602002820191906000526020600020905b8154815260200190600101908083116161a6575b50505091909252505050815260408051808201825260128401546001600160a01b0316815260138401546020828101919091528084019190915260148401805483518184028101840185528181529390940193909183018282801561624857602002820191906000526020600020905b81546001600160a01b0316815260019091019060200180831161622a575b50505091835250506015820154602082015260169091015460ff1615156040909101525160c001519392505050565b600081815261013c602090815260408083205461013b83528184208185528352818420548251637b4f102360e11b8152925191946001600160a01b0390911693849363f69e204693600480830194919283900301908290875af11580156162e2573d6000803e3d6000fd5b505050506040513d601f19601f82011682018060405250810190615cc6919061959d565b6000616310616bf8565b61013f5460005b81811015611cd757600061013f82815481106163355761633561927e565b6000918252602090912001546001600160a01b031690506163568186615f38565b5050806163629061930a565b9050616317565b616371616bf8565b6001600160a01b0381166163d65760405162461bcd60e51b815260206004820152602660248201527f4f776e61626c653a206e6577206f776e657220697320746865207a65726f206160448201526564647265737360d01b6064820152608401611233565b603480546001600160a01b0319166001600160a01b0392909216919091179055565b616400617517565b61640b816001617139565b61208c600160ca55565b6101305460005b81811015612d505761642d81616277565b6164368161930a565b905061641c565b6000616447616bf8565b6001600160a01b038616600090815261013e602052604090205460ff166164a85760405162461bcd60e51b81526020600482015260156024820152741d1bdad95b881b9bdd081dda1a5d195b1a5cdd1959605a1b6044820152606401611233565b6127108211156164f25760405162461bcd60e51b81526020600482015260156024820152740e4cacccae4e4c2d840cccaca40e8dede40d0d2ced605b1b6044820152606401611233565b60408051600481526024810182526020810180516001600160e01b031663313ce56760e01b17905290516000916001600160a01b0389169161653491906195b6565b600060405180830381855afa9150503d806000811461656f576040519150601f19603f3d011682016040523d82523d6000602084013e616574565b606091505b5091505060008180602001905181019061658e91906195d2565b905060068160ff1610156165dd5760405162461bcd60e51b815260206004820152601660248201527524b73b30b634b2103232b1b4b6b0b6103932ba3ab93760511b6044820152606401611233565b6165e561896f565b80516001600160a01b03808b16909152815160ff80851660209283015283518b8416606091820152845160809081018c905260a0860180518c871690525184018a905261013080546001810182556000919091528651805160179092027f2f605e086faac1d93117bbfbc18835d434e9405fadc1ca66faf4b864746daf348101805497830151604084015161ffff16600160a81b0261ffff60a81b1991909816600160a01b026001600160a81b0319909916948a16949094179790971792909216949094178555918301517f2f605e086faac1d93117bbfbc18835d434e9405fadc1ca66faf4b864746daf3583018054919096166001600160a01b0319919091161790945592810151849383917f2f605e086faac1d93117bbfbc18835d434e9405fadc1ca66faf4b864746daf36909101906167219082619643565b5060a0820151600382015560c0820151600482015560e0909101516005909101556020828101518051600684015581015160078301556040808401518051600885015582015160098401556060808501518051600a86015580840151600b86015580830151600c860155810151600d8501805460ff191691151591909117905560808501518051600e860190815581850151600f87015592810151601086015590810151805191936167db92601187019290910190618aab565b50505060a082015180516012830180546001600160a01b0319166001600160a01b03909216919091179055602090810151601383015560c083015180516168289260148501920190618af6565b5060e08201516015820155610100909101516016909101805460ff19169115159190911790556101305461685e906001906192e1565b9998505050505050505050565b6001600160a01b03163b151590565b600081815260ff60205260409020546001600160a01b031661208c5760405162461bcd60e51b8152602060048201526018602482015277115490cdcc8c4e881a5b9d985b1a59081d1bdad95b88125160421b6044820152606401611233565b60008181526101016020526040902080546001600160a01b0319166001600160a01b038416908117909155819061690f826136d4565b6001600160a01b03167f8c5be1e5ebec7d5bd14f71427d1e84f3dd0314c0f7b2291e5b200ac8c7c3b92560405160405180910390a45050565b60006112e582846192e1565b6040516001600160a01b0380851660248301528316604482015260648101829052600090615f919086906323b872dd60e01b906084015b60408051601f198184030181529190526020810180516001600160e01b03166001600160e01b031990931692909217909152617c6d565b6001600160a01b038316156112d4576001600160a01b0380841660009081526101396020908152604080832093861683529290529081208054839290616a0990849061926b565b9091555050505050565b600080616a1f836136d4565b9050806001600160a01b0316846001600160a01b03161480616a6757506001600160a01b038082166000908152610102602090815260408083209388168352929052205460ff165b806143015750836001600160a01b0316616a8084611197565b6001600160a01b031614949350505050565b826001600160a01b0316616aa5826136d4565b6001600160a01b031614616acb5760405162461bcd60e51b815260040161123390619703565b6001600160a01b038216616b2d5760405162461bcd60e51b8152602060048201526024808201527f4552433732313a207472616e7366657220746f20746865207a65726f206164646044820152637265737360e01b6064820152608401611233565b826001600160a01b0316616b40826136d4565b6001600160a01b031614616b665760405162461bcd60e51b815260040161123390619703565b60008181526101016020908152604080832080546001600160a01b03199081169091556001600160a01b03878116808652610100855283862080546000190190559087168086528386208054600101905586865260ff90945282852080549092168417909155905184937fddf252ad1be2c89b69c2b068fc378daa952ba7f163c4a11628f55a4df523b3ef91a4505050565b6033546001600160a01b03163314615c925760405162461bcd60e51b815260206004820181905260248201527f4f776e61626c653a2063616c6c6572206973206e6f7420746865206f776e65726044820152606401611233565b60006101308381548110616c6857616c6861927e565b600091825260208220601791909102016008810154600382015482549294508592616c9e9190600160a81b900461ffff16614309565b616ca891906192e1565b616cb2919061926b565b60018301548354919250616cd4916001600160a01b0390811691163084616954565b506000612710616ce66103e884619416565b616cf0919061946b565b905081836008016000016000828254616d09919061926b565b90915550600090508080616d1d888561463f565b885492955090935091506001600160a01b0316616d3b8282856169c2565b6001600160a01b0381166000908152610137602052604081208054869290616d6490849061926b565b9091555060009050616d7686886192e1565b905080886008016001016000828254616d8f919061926b565b90915550506040518781528a907fadb049ad2d09be3db90459a16aef1ad0a4d89e8fdcc1ade9429d6cc55abbcd2b9060200160405180910390a250505050505050505050565b6000670eb5e06245ea0000616df2670de0b6b3a764000084619416565b616dfc919061946b565b9050806101308481548110616e1357616e1361927e565b6000918252602090912060056017909202010155505050565b6000806101308581548110616e4357616e4361927e565b90600052602060002090601702019050600084604051602001616e669190618c31565b60408051601f198184030181529181528151602092830120600089815261013c909352912054909150808214616fbc576000616ea188617272565b90506000616eaf8989617d3f565b90506001600160a01b03811615616f9c5780616ecb838961926b565b600687018054600090616edf9084906192e1565b90915550616eef9050838961926b565b600787018054600090616f0390849061926b565b90915550616f29905082616f17858b61926b565b88546001600160a01b031691906173d0565b5060405163d33b0aa760e01b8152600160048201526001600160a01b0382169063d33b0aa7906024016020604051808303816000875af1158015616f71573d6000803e3d6000fd5b505050506040513d601f19601f82011682018060405250810190616f95919061959d565b5050616fb9565b86856006016000016000828254616fb3919061926b565b90915550505b50505b5050509392505050565b61208c616bf8565b7f4910fdfa16fed3260ed0e7147f7cc6da11a60208b5b9406d12a635614ffd91435460ff1615617001576112d483617e8d565b826001600160a01b03166352d1902d6040518163ffffffff1660e01b8152600401602060405180830381865afa92505050801561705b575060408051601f3d908101601f191682019092526170589181019061959d565b60015b6170be5760405162461bcd60e51b815260206004820152602e60248201527f45524331393637557067726164653a206e657720696d706c656d656e7461746960448201526d6f6e206973206e6f74205555505360901b6064820152608401611233565b600080516020619890833981519152811461712d5760405162461bcd60e51b815260206004820152602960248201527f45524331393637557067726164653a20756e737570706f727465642070726f786044820152681a58589b195555525160ba1b6064820152608401611233565b506112d4838383617f29565b600082815261013360205260408120546101308054919291839081106171615761716161927e565b6000918252602080832087845261013490915260408320601790920201925090808061718c8861283f565b925092509250866171da5784601501546000036171a957426171af565b84601501545b8460040181905550808460030160008282546171cb919061926b565b90915550505050505050505050565b60088501548311156171f0576171f08684616c52565b8215611f7b57600060038501819055601586015490036172105742617216565b84601501545b60048501556008850180548491906000906172329084906192e1565b909155505060098501805483919060009061724e9084906192e1565b90915550611f799050617260896136d4565b86546001600160a01b031690846173d0565b60008061013083815481106172895761728961927e565b6000918252602080832086845261013c9091526040832054601790920201925080156173c857600085815261013b602090815260408083208484528252808320548151637f1f087360e01b815291516001600160a01b0390911693928492637f1f08739260048083019392829003018187875af115801561730e573d6000803e3d6000fd5b505050506040513d601f19601f82011682018060405250810190617332919061959d565b60405163f840cb8360e01b815260016004820152602481018290529091506001600160a01b0383169063f840cb83906044016020604051808303816000875af1158015617383573d6000803e3d6000fd5b505050506040513d601f19601f820116820180604052508101906173a7919061959d565b9350838560060160000160008282546173c0919061926b565b909155505050505b509392505050565b6040516001600160a01b038316602482015260448101829052600090611cd790859063a9059cbb60e01b9060640161698b565b600080610130848154811061741a5761741a61927e565b6000918252602090912060036017909202010154617440670de0b6b3a764000085619416565b61744a919061946b565b9050617457816005619416565b91509250929050565b6000617476670de0b6b3a764000060001961946b565b821115617499576040516322630c4560e01b815260048101839052602401611233565b670de0b6b3a764000082026110ff565b60006110ff6714057b7ef767814f670de0b6b3a76400006174cf6174cc86617f4e565b90565b02816174dd576174dd619455565b0490565b60006112e56174cc83856192e1565b60006112e56174cc8484618086565b60006112e56174cc84670de0b6b3a76400008561813a565b600260ca54036175695760405162461bcd60e51b815260206004820152601f60248201527f5265656e7472616e637947756172643a207265656e7472616e742063616c6c006044820152606401611233565b600260ca55565b60006001600160a01b0383166175c85760405162461bcd60e51b815260206004820152601f60248201527f45524332303a206d696e7420746f20746865207a65726f2061646472657373006044820152606401611233565b60006175d4858461331b565b905060006175e18561820e565b90506176236040518060e00160405280600081526020016000815260200160008152602001600081526020016000815260200160008152602001600081525090565b84815260006176328887617403565b509050674563918244f40000816101308a815481106176535761765361927e565b9060005260206000209060170201600e0160020154617672919061926b565b11156176b65760405162461bcd60e51b81526020600482015260136024820152721608189bdd5b99185c9e481d9a5bdb185d1959606a1b6044820152606401611233565b6020808301828152604080850187815242608087019081526000888152610134865283812088518155945160018087019190915592516002860155606088015160038601559051600485015560a0870151600585015560c08701516006909401939093558b83526101358452818320805491820181558352838320018690558582526101339092522088905561013080548291908a90811061775a5761775a61927e565b9060005260206000209060170201600e01600201600082825461777d919061926b565b925050819055506177b6886101308a8154811061779c5761779c61927e565b9060005260206000209060170201600e01600201546183b5565b5091979650505050505050565b600080670de0b6b3a76400006177e184670928ca80cfc20000619416565b6177eb919061946b565b6177fd9067016345785d8a000061926b565b90506112e5816ec097ce7bc90715b34b9f100000000061946b565b600081815261013360209081526040808320548084526101358352818420805483518186028101860190945280845291949390919083018282801561787c57602002820191906000526020600020905b815481526020019060010190808311617868575b5050835193945060009250829150505b828110156178cc57858482815181106178a7576178a761927e565b6020026020010151036178bc578091506178cc565b6178c58161930a565b905061788c565b5081811061791c5760405162461bcd60e51b815260206004820152601860248201527f546f6b656e206e6f7420666f756e6420696e20617272617900000000000000006044820152606401611233565b805b6179296001846192e1565b811015617981578361793c82600161926b565b8151811061794c5761794c61927e565b60200260200101518482815181106179665761796661927e565b602090810291909101015261797a8161930a565b905061791e565b5060008481526101356020908152604090912084516179a292860190618aab565b506000848152610135602052604090208054806179c1576179c16192f4565b600190038181906000526020600020016000905590555050505050565b60008181526101336020908152604080832054610134835292819020815160e081018352815481526001820154938101939093526002810154918301919091526003810154606083015260048101546080830152600581015460a08301526006015460c08201526112d4836183e9565b816001600160a01b0316836001600160a01b031603617aaf5760405162461bcd60e51b815260206004820152601960248201527f4552433732313a20617070726f766520746f2063616c6c6572000000000000006044820152606401611233565b6001600160a01b0383811660008181526101026020908152604080832094871680845294825291829020805460ff191686151590811790915591519182527f17307eab39ab6107e8899845ad3d59bd9653f200f220920489ca2b5937696c31910160405180910390a3505050565b603380546001600160a01b038381166001600160a01b03198084168217909455603480549094169093556040519116919082907f8be0079c531659141344cd1fd0a4f28419497f9722a3daafe3b4186f6b6457e090600090a35050565b617b85848484616a92565b617b9184848484618480565b615cc65760405162461bcd60e51b815260040161123390619748565b600054610100900460ff16617bd45760405162461bcd60e51b81526004016112339061979a565b615c9261857e565b60606000617be9836185ae565b600101905060008167ffffffffffffffff811115617c0957617c09618eb8565b6040519080825280601f01601f191660200182016040528015617c33576020820181803683370190505b5090508181016020015b600019016f181899199a1a9b1b9c1cb0b131b232b360811b600a86061a8153600a8504945084156173c857617c3d565b6000617cc2826040518060400160405280602081526020017f5361666545524332303a206c6f772d6c6576656c2063616c6c206661696c6564815250856001600160a01b03166186869092919063ffffffff16565b8051909150156112d45780806020019051810190617ce091906197e5565b6112d45760405162461bcd60e51b815260206004820152602a60248201527f5361666545524332303a204552433230206f7065726174696f6e20646964206e6044820152691bdd081cdd58d8d9595960b21b6064820152608401611233565b600080600083604051602001617d559190618c31565b60408051601f198184030181529181528151602092830120600088815261013b84528281208282529093529120549091506001600160a01b031680617e0f5761013a54604051632f3802cf60e11b81526001600160a01b0390911690635e70059e90617dc5908890600401618c31565b6020604051808303816000875af1158015617de4573d6000803e3d6000fd5b505050506040513d601f19601f82011682018060405250810190617e089190619802565b9250617e19565b92506110ff915050565b6001600160a01b038316617e3357600093505050506110ff565b50600085815261013b60209081526040808320848452825280832080546001600160a01b0319166001600160a01b03871690811790915588845261013c83528184209490945592825261013d905220939093555090919050565b6001600160a01b0381163b617efa5760405162461bcd60e51b815260206004820152602d60248201527f455243313936373a206e657720696d706c656d656e746174696f6e206973206e60448201526c1bdd08184818dbdb9d1c9858dd609a1b6064820152608401611233565b60008051602061989083398151915280546001600160a01b0319166001600160a01b0392909216919091179055565b617f3283618695565b600082511180617f3f5750805b156112d457615cc683836186d5565b600081670de0b6b3a7640000811015617f7d57604051633621413760e21b815260048101849052602401611233565b6000618009670de0b6b3a7640000830460016fffffffffffffffffffffffffffffffff821160071b91821c67ffffffffffffffff811160061b90811c63ffffffff811160051b90811c61ffff811160041b90811c60ff8111600390811b91821c600f811160021b90811c918211871b91821c969096119490961792909217171791909117919091171790565b9050670de0b6b3a7640000810282821c670de0b6b3a763ffff19810161803557815b9695505050505050565b671bc16d674ec800006706f05b59d3b200005b801561807857670de0b6b3a7640000838002049250818310618070579283019260019290921c915b60011c618048565b50825b979650505050505050565b60008080600019848609848602925082811083820303915050670de0b6b3a764000081106180d15760405163090638d560e41b81526004810186905260248101859052604401611233565b6000670de0b6b3a76400008587099050816000036180fd575050670de0b6b3a7640000900490506110ff565b620400008184030492109003600160ee1b02177faccb18165bd6fe31ae1cf318dc5b51eee0e1ba569b88cd74c1773b91fac1066902905092915050565b60008080600019858709858702925082811083820303915050806000036181745783828161816a5761816a619455565b04925050506112e5565b8381106181a5576040516307639aaf60e41b8152600481018790526024810186905260448101859052606401611233565b60008486880960026001871981018816978890046003810283188082028403028082028403028082028403028082028403028082028403029081029092039091026000889003889004909101858311909403939093029303949094049190911702949350505050565b600080610103600081546182219061930a565b918290555090506001600160a01b03831661827e5760405162461bcd60e51b815260206004820181905260248201527f4552433732313a206d696e7420746f20746865207a65726f20616464726573736044820152606401611233565b600081815260ff60205260409020546001600160a01b0316156182e35760405162461bcd60e51b815260206004820152601c60248201527f4552433732313a20746f6b656e20616c7265616479206d696e746564000000006044820152606401611233565b600081815260ff60205260409020546001600160a01b0316156183485760405162461bcd60e51b815260206004820152601c60248201527f4552433732313a20746f6b656e20616c7265616479206d696e746564000000006044820152606401611233565b6001600160a01b0383166000818152610100602090815260408083208054600101905584835260ff90915280822080546001600160a01b0319168417905551839291907fddf252ad1be2c89b69c2b068fc378daa952ba7f163c4a11628f55a4df523b3ef908290a46110ff565b60008161013084815481106183cc576183cc61927e565b60009182526020909120600e601790920201015550600192915050565b60006183f4826136d4565b90506183ff826136d4565b60008381526101016020908152604080832080546001600160a01b03199081169091556001600160a01b0385168085526101008452828520805460001901905587855260ff909352818420805490911690555192935084927fddf252ad1be2c89b69c2b068fc378daa952ba7f163c4a11628f55a4df523b3ef908390a45050565b60006001600160a01b0384163b1561857657604051630a85bd0160e11b81526001600160a01b0385169063150b7a02906184c490339089908890889060040161981f565b6020604051808303816000875af19250505080156184ff575060408051601f3d908101601f191682019092526184fc91810190619852565b60015b61855c573d80801561852d576040519150601f19603f3d011682016040523d82523d6000602084013e618532565b606091505b5080516000036185545760405162461bcd60e51b815260040161123390619748565b805181602001fd5b6001600160e01b031916630a85bd0160e11b149050614301565b506001614301565b600054610100900460ff166185a55760405162461bcd60e51b81526004016112339061979a565b615c9233617b1d565b60008072184f03e93ff9f4daa797ed6e38ed64bf6a1f0160401b83106185ed5772184f03e93ff9f4daa797ed6e38ed64bf6a1f0160401b830492506040015b6d04ee2d6d415b85acef81000000008310618619576d04ee2d6d415b85acef8100000000830492506020015b662386f26fc10000831061863757662386f26fc10000830492506010015b6305f5e100831061864f576305f5e100830492506008015b612710831061866357612710830492506004015b60648310618675576064830492506002015b600a83106110ff5760010192915050565b606061430184846000856187c9565b61869e81617e8d565b6040516001600160a01b038216907fbc7cd75a20ee27fd9adebab32041f755214dbc6bffa90cc0225b39da2e5c2d3b90600090a250565b60606001600160a01b0383163b61873d5760405162461bcd60e51b815260206004820152602660248201527f416464726573733a2064656c65676174652063616c6c20746f206e6f6e2d636f6044820152651b9d1c9858dd60d21b6064820152608401611233565b600080846001600160a01b03168460405161875891906195b6565b600060405180830381855af49150503d8060008114618793576040519150601f19603f3d011682016040523d82523d6000602084013e618798565b606091505b50915091506187c082826040518060600160405280602781526020016198b060279139618899565b95945050505050565b60608247101561882a5760405162461bcd60e51b815260206004820152602660248201527f416464726573733a20696e73756666696369656e742062616c616e636520666f6044820152651c8818d85b1b60d21b6064820152608401611233565b600080866001600160a01b0316858760405161884691906195b6565b60006040518083038185875af1925050503d8060008114618883576040519150601f19603f3d011682016040523d82523d6000602084013e618888565b606091505b509150915061807b878383876188b2565b606083156188a85750816112e5565b6112e58383618927565b6060831561892157825160000361891a576001600160a01b0385163b61891a5760405162461bcd60e51b815260206004820152601d60248201527f416464726573733a2063616c6c20746f206e6f6e2d636f6e74726163740000006044820152606401611233565b5081614301565b61430183835b8151156189375781518083602001fd5b8060405162461bcd60e51b81526004016112339190618c31565b508054600082559060005260206000209081019061208c9190618b4b565b6040805161022081019091526000610120820181815261014083018290526101608301829052610180830182905260606101a08401526101c083018290526101e08301829052610200830191909152819081526020016189e2604051806040016040528060008152602001600081525090565b8152602001618a04604051806040016040528060008152602001600081525090565b8152602001618a3660405180608001604052806000815260200160008152602001600081526020016000151581525090565b8152602001618a666040518060800160405280600081526020016000815260200160008152602001606081525090565b8152602001618a91604051806040016040528060006001600160a01b03168152602001600081525090565b815260606020820181905260006040830181905291015290565b828054828255906000526020600020908101928215618ae6579160200282015b82811115618ae6578251825591602001919060010190618acb565b50618af2929150618b4b565b5090565b828054828255906000526020600020908101928215618ae6579160200282015b82811115618ae657825182546001600160a01b0319166001600160a01b03909116178255602090920191600190910190618b16565b5b80821115618af25760008155600101618b4c565b6001600160a01b038116811461208c57600080fd5b60008060408385031215618b8857600080fd5b8235618b9381618b60565b91506020830135618ba381618b60565b809150509250929050565b6001600160e01b03198116811461208c57600080fd5b600060208284031215618bd657600080fd5b81356112e581618bae565b60005b83811015618bfc578181015183820152602001618be4565b50506000910152565b60008151808452618c1d816020860160208601618be1565b601f01601f19169290920160200192915050565b6020815260006112e56020830184618c05565b60008060408385031215618c5757600080fd5b50508035926020909101359150565b600060208284031215618c7857600080fd5b5035919050565b60008060408385031215618c9257600080fd5b8235618c9d81618b60565b946020939093013593505050565b60006080830182518452602080840151818601526040840151604086015260608401516080606087015282815180855260a0880191508383019450600092505b80831015618d0b5784518252938301936001929092019190830190618ceb565b509695505050505050565b6101c080825289516001600160a01b039081169183019190915260208a015160ff166101e083015260408a015161ffff1661020083015260608a0151166102208201526080890151610100610240830152600090618d786102c0840182618c05565b905060a08b015161026084015260c08b015161028084015260e08b01516102a0840152618db2602084018b80518252602090810151910152565b8851606084015260208901516080840152875160a0840152602088015160c0840152604088015160e084015260608801511515610100840152828103610120840152618dfe8188618cab565b86516001600160a01b031661014085015260208701516101608501529150618e239050565b8361018083015261685e6101a083018415159052565b600080600060608486031215618e4e57600080fd5b8335618e5981618b60565b92506020840135618e6981618b60565b929592945050506040919091013590565b801515811461208c57600080fd5b600080600060608486031215618e9d57600080fd5b8335618ea881618b60565b92506020840135618e6981618e7a565b634e487b7160e01b600052604160045260246000fd5b600082601f830112618edf57600080fd5b813567ffffffffffffffff80821115618efa57618efa618eb8565b604051601f8301601f19908116603f01168101908282118183101715618f2257618f22618eb8565b81604052838152866020858801011115618f3b57600080fd5b836020870160208301376000602085830101528094505050505092915050565b600080600080600060a08688031215618f7357600080fd5b8535945060208601359350604086013561ffff81168114618f9357600080fd5b925060608601359150608086013567ffffffffffffffff811115618fb657600080fd5b618fc288828901618ece565b9150509295509295909350565b600060208284031215618fe157600080fd5b81356112e581618b60565b60008060006060848603121561900157600080fd5b833592506020840135618e6981618b60565b6000806040838503121561902657600080fd5b823561903181618b60565b9150602083013567ffffffffffffffff81111561904d57600080fd5b61905985828601618ece565b9150509250929050565b60008060006060848603121561907857600080fd5b505081359360208301359350604090920135919050565b600080604083850312156190a257600080fd5b823591506020830135618ba381618e7a565b600080604083850312156190c757600080fd5b82356190d281618b60565b91506020830135618ba381618e7a565b6000806000606084860312156190f757600080fd5b8335925060208401359150604084013567ffffffffffffffff81111561911c57600080fd5b61912886828701618ece565b9150509250925092565b6000806000806080858703121561914857600080fd5b843561915381618b60565b9350602085013561916381618b60565b925060408501359150606085013567ffffffffffffffff81111561918657600080fd5b61919287828801618ece565b91505092959194509250565b600080600080600060a086880312156191b657600080fd5b85356191c181618b60565b945060208601356191d181618b60565b9350604086013567ffffffffffffffff8111156191ed57600080fd5b6191f988828901618ece565b935050606086013561920a81618b60565b949793965091946080013592915050565b600181811c9082168061922f57607f821691505b60208210810361924f57634e487b7160e01b600052602260045260246000fd5b50919050565b634e487b7160e01b600052601160045260246000fd5b808201808211156110ff576110ff619255565b634e487b7160e01b600052603260045260246000fd5b6020808252602d908201527f4552433732313a2063616c6c6572206973206e6f7420746f6b656e206f776e6560408201526c1c881bdc88185c1c1c9bdd9959609a1b606082015260800190565b818103818111156110ff576110ff619255565b634e487b7160e01b600052603160045260246000fd5b60006001820161931c5761931c619255565b5060010190565b600181815b8085111561935e57816000190482111561934457619344619255565b8085161561935157918102915b93841c9390800290619328565b509250929050565b600082619375575060016110ff565b81619382575060006110ff565b816001811461939857600281146193a2576193be565b60019150506110ff565b60ff8411156193b3576193b3619255565b50506001821b6110ff565b5060208310610133831016604e8410600b84101617156193e1575081810a6110ff565b6193eb8383619323565b80600019048211156193ff576193ff619255565b029392505050565b60006112e560ff841683619366565b80820281158282048414176110ff576110ff619255565b6020808252600e908201526d139bdd08185d5d1a1bdc9a5e995960921b604082015260600190565b634e487b7160e01b600052601260045260246000fd5b60008261948857634e487b7160e01b600052601260045260246000fd5b500490565b6020808252602c908201527f46756e6374696f6e206d7573742062652063616c6c6564207468726f7567682060408201526b19195b1959d85d1958d85b1b60a21b606082015260800190565b6020808252602c908201527f46756e6374696f6e206d7573742062652063616c6c6564207468726f7567682060408201526b6163746976652070726f787960a01b606082015260800190565b60208082526029908201527f54696d656c6f636b206e6f7420736574206f72206e6f7420636f6d706c6574656040820152686420696e2074696d6560b81b606082015260800190565b60008351619580818460208801618be1565b835190830190619594818360208801618be1565b01949350505050565b6000602082840312156195af57600080fd5b5051919050565b600082516195c8818460208701618be1565b9190910192915050565b6000602082840312156195e457600080fd5b815160ff811681146112e557600080fd5b601f8211156112d457600081815260208120601f850160051c8101602086101561961c5750805b601f850160051c820191505b8181101561963b57828155600101619628565b505050505050565b815167ffffffffffffffff81111561965d5761965d618eb8565b6196718161966b845461921b565b846195f5565b602080601f8311600181146196a6576000841561968e5750858301515b600019600386901b1c1916600185901b17855561963b565b600085815260208120601f198616915b828110156196d5578886015182559484019460019091019084016196b6565b50858210156196f35787850151600019600388901b60f8161c191681555b5050505050600190811b01905550565b60208082526025908201527f4552433732313a207472616e736665722066726f6d20696e636f72726563742060408201526437bbb732b960d91b606082015260800190565b60208082526032908201527f4552433732313a207472616e7366657220746f206e6f6e20455243373231526560408201527131b2b4bb32b91034b6b83632b6b2b73a32b960711b606082015260800190565b6020808252602b908201527f496e697469616c697a61626c653a20636f6e7472616374206973206e6f74206960408201526a6e697469616c697a696e6760a81b606082015260800190565b6000602082840312156197f757600080fd5b81516112e581618e7a565b60006020828403121561981457600080fd5b81516112e581618b60565b6001600160a01b038581168252841660208201526040810183905260806060820181905260009061802b90830184618c05565b60006020828403121561986457600080fd5b81516112e581618bae56fea3ea4fb8dee4d414198cb197af6eae4fe483c1a0b849dc50e53b9bf1a60e2166360894a13ba1a3210667c828492db98dca3e2076cc3735a920a3ca505d382bbc416464726573733a206c6f772d6c6576656c2064656c65676174652063616c6c206661696c6564a2646970667358221220c3b9bd17aed0c79d4acff6e0410877c50360cb7f19dbbf261fb612de8ddf9a4064736f6c63430008110033496e697469616c697a61626c653a20636f6e7472616374206973206e6f742069",
    "linkReferences": {}
  },
  "methodIdentifiers": {
    "acceptOwnershipTransfer()": "b842e87f",
    "activeStrategies(uint256)": "b20b2429",
    "activeTokens(uint256)": "9f224f35",
    "addNewBountyPool(address,address,string,address,uint256)": "fb992073",
    "approve(address,uint256)": "095ea7b3",
    "balanceOf(address)": "70a08231",
    "billPremium(uint256)": "2dbe051e",
    "calcReferralSplit(uint256,uint256)": "928dc6a9",
    "calcRequiredPremiumBalancePerPeriod(uint256,uint256)": "836ef1fa",
    "calculateArbitraryEffectiveAPY(uint256,uint256,uint256)": "4f3214cc",
    "calculateEffectiveAPY(uint256,uint256)": "5c46f7b1",
    "claimPremium(uint256)": "f47ec3be",
    "collectAllReferralProfits()": "3e8888d9",
    "collectAllSaloonProfits(address)": "ecd7fbed",
    "collectReferralProfit(address)": "a089a520",
    "collectSaloonProfits(address,address)": "cf9564b9",
    "compoundYieldForAll()": "f68ce499",
    "compoundYieldForPid(uint256)": "e78ea3df",
    "consolidate(uint256)": "949a4a4a",
    "consolidateAll()": "75bfd63d",
    "getApproved(uint256)": "081812fc",
    "getCurrentAPY(uint256)": "7fbf3853",
    "getSecondsPassed(uint256,uint256)": "0a015ab1",
    "index()": "2986c0e5",
    "initialize(address)": "c4d66de8",
    "isApprovedForAll(address,address)": "e985e9c5",
    "makeProjectDeposit(uint256,uint256,string)": "ae07f948",
    "minTokenStakeAmount(address)": "39458723",
    "name()": "06fdde03",
    "nftAPY(uint256)": "1df56622",
    "nftBalance(uint256)": "e63d6ee4",
    "nftInfo(uint256)": "1f8bc790",
    "nftToPid(uint256)": "612afc0c",
    "owner()": "8da5cb5b",
    "ownerOf(uint256)": "6352211e",
    "payBounty(uint256,address,uint256)": "3ac6ad7b",
    "pendingPremium(uint256)": "40bd1d00",
    "pidNFTList(uint256,uint256)": "96ea48e8",
    "pidStrategies(uint256,bytes32)": "074ecf03",
    "poolInfo(uint256)": "1526fe27",
    "poolLength()": "081e3eda",
    "projectDepositWithdrawal(uint256,uint256)": "983c1ce0",
    "proxiableUUID()": "52d1902d",
    "receiveStrategyYield(address,uint256)": "1aebcecb",
    "referralBalances(address,address)": "011b408b",
    "safeTransferFrom(address,address,uint256)": "42842e0e",
    "safeTransferFrom(address,address,uint256,bytes)": "b88d4fde",
    "saloonBountyProfit(address)": "e45abd0f",
    "saloonPremiumProfit(address)": "ca006148",
    "saloonStrategyProfit(address)": "598d17bf",
    "scheduleProjectDepositWithdrawal(uint256,uint256)": "5669cbef",
    "scheduleUnstake(uint256)": "106d08df",
    "setAPYandPoolCapAndDeposit(uint256,uint256,uint16,uint256,string)": "30ca0794",
    "setApprovalForAll(address,bool)": "a22cb465",
    "stake(uint256,uint256)": "7b0472f0",
    "strategyAddressToPid(address)": "957deecc",
    "supportsInterface(bytes4)": "01ffc9a7",
    "symbol()": "95d89b41",
    "tokenURI(uint256)": "c87b56dd",
    "tokenWhitelist(address)": "753d7563",
    "transferFrom(address,address,uint256)": "23b872dd",
    "transferOwnership(address)": "f2fde38b",
    "unstake(uint256,bool)": "9ebea88c",
    "updateStrategyFactoryAddress(address)": "3538fda0",
    "updateTokenWhitelist(address,bool,uint256)": "2cb0dfcc",
    "upgradeTo(address)": "3659cfe6",
    "upgradeToAndCall(address,bytes)": "4f1ef286",
    "viewBountyBalance(uint256)": "6ac6d812",
    "viewBountyInfo(uint256)": "40ef2868",
    "viewHackerPayout(uint256)": "861e5f66",
    "viewMinProjectDeposit(uint256)": "1c6b323f",
    "viewPoolAPY(uint256)": "a27f9213",
    "viewPoolCap(uint256)": "39679ff4",
    "viewPoolPremiumInfo(uint256)": "b1a2d16f",
    "viewPoolTimelockInfo(uint256)": "ac30b856",
    "viewReferralBalance(address,address)": "0ed7610c",
    "viewSaloonProfitBalance(address)": "718c7eef",
    "viewTokenInfo(uint256)": "10725852",
    "viewTotalStaked(uint256)": "dbdd6957",
    "viewUserUnclaimed(uint256)": "19693071",
    "windDownBounty(uint256)": "bb7019c1"
  },
  "id": 43
}