{
  "abi": [
    {
      "anonymous": false,
      "inputs": [
        {
          "indexed": false,
          "internalType": "address",
          "name": "previousAdmin",
          "type": "address"
        },
        {
          "indexed": false,
          "internalType": "address",
          "name": "newAdmin",
          "type": "address"
        }
      ],
      "name": "AdminChanged",
      "type": "event"
    },
    {
      "anonymous": false,
      "inputs": [
        {
          "indexed": true,
          "internalType": "address",
          "name": "beacon",
          "type": "address"
        }
      ],
      "name": "BeaconUpgraded",
      "type": "event"
    },
    {
      "anonymous": false,
      "inputs": [
        {
          "indexed": true,
          "internalType": "address",
          "name": "user",
          "type": "address"
        },
        {
          "indexed": true,
          "internalType": "uint256",
          "name": "pid",
          "type": "uint256"
        },
        {
          "indexed": false,
          "internalType": "uint256",
          "name": "amount",
          "type": "uint256"
        }
      ],
      "name": "Deposit",
      "type": "event"
    },
    {
      "anonymous": false,
      "inputs": [
        {
          "indexed": true,
          "internalType": "address",
          "name": "user",
          "type": "address"
        },
        {
          "indexed": true,
          "internalType": "uint256",
          "name": "pid",
          "type": "uint256"
        },
        {
          "indexed": false,
          "internalType": "uint256",
          "name": "amount",
          "type": "uint256"
        }
      ],
      "name": "EmergencyWithdraw",
      "type": "event"
    },
    {
      "anonymous": false,
      "inputs": [
        {
          "indexed": false,
          "internalType": "uint8",
          "name": "version",
          "type": "uint8"
        }
      ],
      "name": "Initialized",
      "type": "event"
    },
    {
      "anonymous": false,
      "inputs": [
        {
          "indexed": true,
          "internalType": "address",
          "name": "previousOwner",
          "type": "address"
        },
        {
          "indexed": true,
          "internalType": "address",
          "name": "newOwner",
          "type": "address"
        }
      ],
      "name": "OwnershipTransferred",
      "type": "event"
    },
    {
      "anonymous": false,
      "inputs": [
        {
          "indexed": true,
          "internalType": "address",
          "name": "implementation",
          "type": "address"
        }
      ],
      "name": "Upgraded",
      "type": "event"
    },
    {
      "anonymous": false,
      "inputs": [
        {
          "indexed": true,
          "internalType": "address",
          "name": "user",
          "type": "address"
        },
        {
          "indexed": true,
          "internalType": "uint256",
          "name": "pid",
          "type": "uint256"
        },
        {
          "indexed": false,
          "internalType": "uint256",
          "name": "amount",
          "type": "uint256"
        }
      ],
      "name": "Withdraw",
      "type": "event"
    },
    {
      "inputs": [],
      "name": "PERIOD",
      "outputs": [
        {
          "internalType": "uint256",
          "name": "",
          "type": "uint256"
        }
      ],
      "stateMutability": "view",
      "type": "function"
    },
    {
      "inputs": [],
      "name": "YEAR",
      "outputs": [
        {
          "internalType": "uint256",
          "name": "",
          "type": "uint256"
        }
      ],
      "stateMutability": "view",
      "type": "function"
    },
    {
      "inputs": [
        {
          "internalType": "address",
          "name": "_token",
          "type": "address"
        },
        {
          "internalType": "uint8",
          "name": "_tokenDecimals",
          "type": "uint8"
        },
        {
          "internalType": "address",
          "name": "_projectWallet",
          "type": "address"
        }
      ],
      "name": "addNewBountyPool",
      "outputs": [],
      "stateMutability": "nonpayable",
      "type": "function"
    },
    {
      "inputs": [
        {
          "internalType": "uint256",
          "name": "_pid",
          "type": "uint256"
        }
      ],
      "name": "billPremium",
      "outputs": [
        {
          "internalType": "bool",
          "name": "",
          "type": "bool"
        }
      ],
      "stateMutability": "nonpayable",
      "type": "function"
    },
    {
      "inputs": [
        {
          "internalType": "uint256",
          "name": "_pid",
          "type": "uint256"
        },
        {
          "internalType": "address",
          "name": "_user",
          "type": "address"
        }
      ],
      "name": "claimPremium",
      "outputs": [],
      "stateMutability": "nonpayable",
      "type": "function"
    },
    {
      "inputs": [
        {
          "internalType": "address",
          "name": "_token",
          "type": "address"
        },
        {
          "internalType": "address",
          "name": "_saloonWallet",
          "type": "address"
        }
      ],
      "name": "collectSaloonProfits",
      "outputs": [
        {
          "internalType": "bool",
          "name": "",
          "type": "bool"
        }
      ],
      "stateMutability": "nonpayable",
      "type": "function"
    },
    {
      "inputs": [],
      "name": "denominator",
      "outputs": [
        {
          "internalType": "uint256",
          "name": "",
          "type": "uint256"
        }
      ],
      "stateMutability": "view",
      "type": "function"
    },
    {
      "inputs": [
        {
          "internalType": "uint256",
          "name": "_from",
          "type": "uint256"
        },
        {
          "internalType": "uint256",
          "name": "_to",
          "type": "uint256"
        }
      ],
      "name": "getMultiplier",
      "outputs": [
        {
          "internalType": "uint256",
          "name": "",
          "type": "uint256"
        }
      ],
      "stateMutability": "pure",
      "type": "function"
    },
    {
      "inputs": [
        {
          "internalType": "uint256",
          "name": "_pid",
          "type": "uint256"
        },
        {
          "internalType": "uint256",
          "name": "_deposit",
          "type": "uint256"
        }
      ],
      "name": "makeProjectDeposit",
      "outputs": [],
      "stateMutability": "nonpayable",
      "type": "function"
    },
    {
      "inputs": [],
      "name": "owner",
      "outputs": [
        {
          "internalType": "address",
          "name": "",
          "type": "address"
        }
      ],
      "stateMutability": "view",
      "type": "function"
    },
    {
      "inputs": [
        {
          "internalType": "uint256",
          "name": "_pid",
          "type": "uint256"
        },
        {
          "internalType": "address",
          "name": "_hunter",
          "type": "address"
        },
        {
          "internalType": "uint256",
          "name": "_amount",
          "type": "uint256"
        }
      ],
      "name": "payBounty",
      "outputs": [
        {
          "internalType": "bool",
          "name": "",
          "type": "bool"
        }
      ],
      "stateMutability": "nonpayable",
      "type": "function"
    },
    {
      "inputs": [
        {
          "internalType": "uint256",
          "name": "_pid",
          "type": "uint256"
        },
        {
          "internalType": "address",
          "name": "_user",
          "type": "address"
        }
      ],
      "name": "pendingToken",
      "outputs": [
        {
          "internalType": "uint256",
          "name": "",
          "type": "uint256"
        }
      ],
      "stateMutability": "view",
      "type": "function"
    },
    {
      "inputs": [
        {
          "internalType": "uint256",
          "name": "",
          "type": "uint256"
        }
      ],
      "name": "poolInfo",
      "outputs": [
        {
          "internalType": "contract IERC20",
          "name": "token",
          "type": "address"
        },
        {
          "internalType": "uint8",
          "name": "tokenDecimals",
          "type": "uint8"
        },
        {
          "internalType": "address",
          "name": "projectWallet",
          "type": "address"
        },
        {
          "internalType": "uint256",
          "name": "projectDeposit",
          "type": "uint256"
        },
        {
          "internalType": "uint16",
          "name": "apy",
          "type": "uint16"
        },
        {
          "internalType": "uint256",
          "name": "poolCap",
          "type": "uint256"
        },
        {
          "internalType": "uint256",
          "name": "totalStaked",
          "type": "uint256"
        },
        {
          "internalType": "uint256",
          "name": "lastBilledTime",
          "type": "uint256"
        },
        {
          "internalType": "uint256",
          "name": "timelock",
          "type": "uint256"
        },
        {
          "internalType": "uint256",
          "name": "timeLimit",
          "type": "uint256"
        },
        {
          "internalType": "uint256",
          "name": "withdrawalScheduledAmount",
          "type": "uint256"
        },
        {
          "internalType": "bool",
          "name": "WithdrawalExecuted",
          "type": "bool"
        },
        {
          "internalType": "bool",
          "name": "initialized",
          "type": "bool"
        }
      ],
      "stateMutability": "view",
      "type": "function"
    },
    {
      "inputs": [],
      "name": "poolLength",
      "outputs": [
        {
          "internalType": "uint256",
          "name": "",
          "type": "uint256"
        }
      ],
      "stateMutability": "view",
      "type": "function"
    },
    {
      "inputs": [],
      "name": "premiumBalance",
      "outputs": [
        {
          "internalType": "uint256",
          "name": "",
          "type": "uint256"
        }
      ],
      "stateMutability": "view",
      "type": "function"
    },
    {
      "inputs": [
        {
          "internalType": "uint256",
          "name": "_pid",
          "type": "uint256"
        },
        {
          "internalType": "uint256",
          "name": "_amount",
          "type": "uint256"
        }
      ],
      "name": "projectDepositWithdrawal",
      "outputs": [
        {
          "internalType": "bool",
          "name": "",
          "type": "bool"
        }
      ],
      "stateMutability": "nonpayable",
      "type": "function"
    },
    {
      "inputs": [],
      "name": "proxiableUUID",
      "outputs": [
        {
          "internalType": "bytes32",
          "name": "",
          "type": "bytes32"
        }
      ],
      "stateMutability": "view",
      "type": "function"
    },
    {
      "inputs": [],
      "name": "renounceOwnership",
      "outputs": [],
      "stateMutability": "nonpayable",
      "type": "function"
    },
    {
      "inputs": [
        {
          "internalType": "address",
          "name": "",
          "type": "address"
        }
      ],
      "name": "saloonBountyProfit",
      "outputs": [
        {
          "internalType": "uint256",
          "name": "",
          "type": "uint256"
        }
      ],
      "stateMutability": "view",
      "type": "function"
    },
    {
      "inputs": [
        {
          "internalType": "address",
          "name": "",
          "type": "address"
        }
      ],
      "name": "saloonPremiumProfit",
      "outputs": [
        {
          "internalType": "uint256",
          "name": "",
          "type": "uint256"
        }
      ],
      "stateMutability": "view",
      "type": "function"
    },
    {
      "inputs": [
        {
          "internalType": "uint256",
          "name": "_pid",
          "type": "uint256"
        },
        {
          "internalType": "uint256",
          "name": "_amount",
          "type": "uint256"
        }
      ],
      "name": "scheduleProjectDepositWithdrawal",
      "outputs": [
        {
          "internalType": "bool",
          "name": "",
          "type": "bool"
        }
      ],
      "stateMutability": "nonpayable",
      "type": "function"
    },
    {
      "inputs": [
        {
          "internalType": "uint256",
          "name": "_pid",
          "type": "uint256"
        },
        {
          "internalType": "uint256",
          "name": "_amount",
          "type": "uint256"
        }
      ],
      "name": "scheduleUnstake",
      "outputs": [
        {
          "internalType": "bool",
          "name": "",
          "type": "bool"
        }
      ],
      "stateMutability": "nonpayable",
      "type": "function"
    },
    {
      "inputs": [
        {
          "internalType": "uint256",
          "name": "_pid",
          "type": "uint256"
        },
        {
          "internalType": "uint256",
          "name": "_poolCap",
          "type": "uint256"
        },
        {
          "internalType": "uint16",
          "name": "_apy",
          "type": "uint16"
        },
        {
          "internalType": "uint256",
          "name": "_deposit",
          "type": "uint256"
        }
      ],
      "name": "setAPYandPoolCapAndDeposit",
      "outputs": [],
      "stateMutability": "nonpayable",
      "type": "function"
    },
    {
      "inputs": [
        {
          "internalType": "uint256",
          "name": "_pid",
          "type": "uint256"
        },
        {
          "internalType": "address",
          "name": "_user",
          "type": "address"
        },
        {
          "internalType": "uint256",
          "name": "_amount",
          "type": "uint256"
        }
      ],
      "name": "stake",
      "outputs": [
        {
          "internalType": "bool",
          "name": "",
          "type": "bool"
        }
      ],
      "stateMutability": "nonpayable",
      "type": "function"
    },
    {
      "inputs": [
        {
          "internalType": "uint256",
          "name": "",
          "type": "uint256"
        }
      ],
      "name": "stakerList",
      "outputs": [
        {
          "internalType": "address",
          "name": "",
          "type": "address"
        }
      ],
      "stateMutability": "view",
      "type": "function"
    },
    {
      "inputs": [],
      "name": "startTime",
      "outputs": [
        {
          "internalType": "uint256",
          "name": "",
          "type": "uint256"
        }
      ],
      "stateMutability": "view",
      "type": "function"
    },
    {
      "inputs": [
        {
          "internalType": "address",
          "name": "newOwner",
          "type": "address"
        }
      ],
      "name": "transferOwnership",
      "outputs": [],
      "stateMutability": "nonpayable",
      "type": "function"
    },
    {
      "inputs": [
        {
          "internalType": "uint256",
          "name": "_pid",
          "type": "uint256"
        },
        {
          "internalType": "address",
          "name": "_user",
          "type": "address"
        },
        {
          "internalType": "uint256",
          "name": "_amount",
          "type": "uint256"
        }
      ],
      "name": "unstake",
      "outputs": [
        {
          "internalType": "bool",
          "name": "",
          "type": "bool"
        }
      ],
      "stateMutability": "nonpayable",
      "type": "function"
    },
    {
      "inputs": [
        {
          "internalType": "address",
          "name": "newImplementation",
          "type": "address"
        }
      ],
      "name": "upgradeTo",
      "outputs": [],
      "stateMutability": "nonpayable",
      "type": "function"
    },
    {
      "inputs": [
        {
          "internalType": "address",
          "name": "newImplementation",
          "type": "address"
        },
        {
          "internalType": "bytes",
          "name": "data",
          "type": "bytes"
        }
      ],
      "name": "upgradeToAndCall",
      "outputs": [],
      "stateMutability": "payable",
      "type": "function"
    },
    {
      "inputs": [
        {
          "internalType": "uint256",
          "name": "",
          "type": "uint256"
        },
        {
          "internalType": "address",
          "name": "",
          "type": "address"
        }
      ],
      "name": "userInfo",
      "outputs": [
        {
          "internalType": "uint256",
          "name": "amount",
          "type": "uint256"
        },
        {
          "internalType": "uint256",
          "name": "unclaimed",
          "type": "uint256"
        },
        {
          "internalType": "uint256",
          "name": "lastRewardTime",
          "type": "uint256"
        },
        {
          "internalType": "uint256",
          "name": "timelock",
          "type": "uint256"
        },
        {
          "internalType": "uint256",
          "name": "timeLimit",
          "type": "uint256"
        },
        {
          "internalType": "uint256",
          "name": "unstakeScheduledAmount",
          "type": "uint256"
        },
        {
          "internalType": "bool",
          "name": "UnstakeExecuted",
          "type": "bool"
        }
      ],
      "stateMutability": "view",
      "type": "function"
    },
    {
      "inputs": [
        {
          "internalType": "uint256",
          "name": "_pid",
          "type": "uint256"
        }
      ],
      "name": "viewBountyBalance",
      "outputs": [
        {
          "internalType": "uint256",
          "name": "",
          "type": "uint256"
        }
      ],
      "stateMutability": "view",
      "type": "function"
    },
    {
      "inputs": [
        {
          "internalType": "uint256",
          "name": "_pid",
          "type": "uint256"
        }
      ],
      "name": "viewPoolCap",
      "outputs": [
        {
          "internalType": "uint256",
          "name": "",
          "type": "uint256"
        }
      ],
      "stateMutability": "view",
      "type": "function"
    },
    {
      "inputs": [
        {
          "internalType": "uint256",
          "name": "_pid",
          "type": "uint256"
        }
      ],
      "name": "viewStake",
      "outputs": [
        {
          "internalType": "uint256",
          "name": "",
          "type": "uint256"
        }
      ],
      "stateMutability": "view",
      "type": "function"
    },
    {
      "inputs": [
        {
          "internalType": "uint256",
          "name": "_pid",
          "type": "uint256"
        }
      ],
      "name": "viewTotalStaked",
      "outputs": [
        {
          "internalType": "uint256",
          "name": "",
          "type": "uint256"
        }
      ],
      "stateMutability": "view",
      "type": "function"
    }
  ],
  "bytecode": {
    "object": "0x60a06040523060805268056bc75e2d6310000060cd5534801561002157600080fd5b50600160c955608051612d0761005e60003960008181610975015281816109be0152818161107f015281816110bf01526113cb0152612d076000f3fe6080604052600436106102045760003560e01c80636ac6d8121161011857806396ce0795116100a0578063cee6b0691161006f578063cee6b069146106c0578063cf9564b9146106e0578063dbdd695714610700578063e45abd0f14610720578063f2fde38b1461074d57600080fd5b806396ce079514610646578063983c1ce01461065c578063b4d1d7951461067c578063ca0061481461069357600080fd5b806383914540116100e757806383914540146105335780638da5cb5b1461054b5780638dbb1e3a1461056957806391635b4e1461058957806393f1a40b146105a957600080fd5b80636ac6d812146104c85780636e9c931c146104e8578063715018a61461050857806378e979251461051d57600080fd5b8063399eadb81161019b5780634f1ef2861161016a5780634f1ef2861461044057806351a7c7161461045357806352d1902d146104735780635669cbef1461048857806357a86d3a146104a857600080fd5b8063399eadb8146103ca5780633ac6ad7b146103ea57806344ebc03d1461040a57806348e43af41461042057600080fd5b80632dbe051e116101d75780632dbe051e14610322578063348e50c6146103525780633659cfe61461038a57806339679ff4146103aa57600080fd5b8063081e3eda146102095780631526fe271461022d578063196ca389146102c857806323691677146102ea575b600080fd5b34801561021557600080fd5b5060cf545b6040519081526020015b60405180910390f35b34801561023957600080fd5b5061024d6102483660046126c5565b61076d565b604080516001600160a01b039e8f16815260ff909d1660208e01529c909a169b8b019b909b5260608a019790975261ffff909516608089015260a088019390935260c087019190915260e08601526101008501526101208401526101408301529115156101608201529015156101808201526101a001610224565b3480156102d457600080fd5b506102e86102e33660046126f5565b610800565b005b3480156102f657600080fd5b5061021a6103053660046126c5565b600090815260d06020908152604080832033845290915290205490565b34801561032e57600080fd5b5061034261033d3660046126c5565b61082a565b6040519015158152602001610224565b34801561035e57600080fd5b5061037261036d3660046126c5565b610941565b6040516001600160a01b039091168152602001610224565b34801561039657600080fd5b506102e86103a5366004612721565b61096b565b3480156103b657600080fd5b5061021a6103c53660046126c5565b610a53565b3480156103d657600080fd5b506102e86103e536600461273c565b610b3d565b3480156103f657600080fd5b50610342610405366004612787565b610d1f565b34801561041657600080fd5b5061021a60cc5481565b34801561042c57600080fd5b5061021a61043b3660046126f5565b610f5c565b6102e861044e3660046127d2565b611075565b34801561045f57600080fd5b5061034261046e366004612787565b611141565b34801561047f57600080fd5b5061021a6113be565b34801561049457600080fd5b506103426104a3366004612894565b611471565b3480156104b457600080fd5b506102e86104c3366004612894565b611562565b3480156104d457600080fd5b5061021a6104e33660046126c5565b6115ec565b3480156104f457600080fd5b50610342610503366004612787565b6116dd565b34801561051457600080fd5b506102e861183a565b34801561052957600080fd5b5061021a60d15481565b34801561053f57600080fd5b5061021a6301e1338081565b34801561055757600080fd5b506033546001600160a01b0316610372565b34801561057557600080fd5b5061021a610584366004612894565b61184e565b34801561059557600080fd5b506103426105a4366004612894565b61185a565b3480156105b557600080fd5b5061060f6105c43660046126f5565b60d06020908152600092835260408084209091529082529020805460018201546002830154600384015460048501546005860154600690960154949593949293919290919060ff1687565b604080519788526020880196909652948601939093526060850191909152608084015260a0830152151560c082015260e001610224565b34801561065257600080fd5b5061021a60cd5481565b34801561066857600080fd5b50610342610677366004612894565b61190f565b34801561068857600080fd5b5061021a62093a8081565b34801561069f57600080fd5b5061021a6106ae366004612721565b60cb6020526000908152604090205481565b3480156106cc57600080fd5b506102e86106db3660046128b6565b611a1a565b3480156106ec57600080fd5b506103426106fb3660046128fc565b611c0e565b34801561070c57600080fd5b5061021a61071b3660046126c5565b611c7a565b34801561072c57600080fd5b5061021a61073b366004612721565b60ca6020526000908152604090205481565b34801561075957600080fd5b506102e8610768366004612721565b611d64565b60cf818154811061077d57600080fd5b60009182526020909120600b9091020180546001820154600283015460038401546004850154600586015460068701546007880154600889015460098a0154600a909a01546001600160a01b03808b169c5060ff600160a01b909b048b169b991699979861ffff909716979596949593949293919291818116916101009004168d565b610808611dda565b610810611e33565b61081c82826001611e8d565b610826600160c955565b5050565b6000610834611e33565b600060cf838154811061084957610849612926565b6000918252602082206003600b9092020190810154600482015491935061ffff16916301e1338061271062093a806108818686612952565b61088b9190612952565b6108959190612971565b61089f9190612971565b600185015485549192506108c1916001600160a01b0390811691163084611f83565b5060006127106108d36103e884612952565b6108dd9190612971565b85546001600160a01b0316600090815260cb602052604081208054929350839290919061090b908490612993565b925050819055508160cc60008282546109249190612993565b90915550504260069095019490945550600193505050505b919050565b60ce818154811061095157600080fd5b6000918252602090912001546001600160a01b0316905081565b6001600160a01b037f00000000000000000000000000000000000000000000000000000000000000001630036109bc5760405162461bcd60e51b81526004016109b3906129ab565b60405180910390fd5b7f00000000000000000000000000000000000000000000000000000000000000006001600160a01b0316610a05600080516020612c8b833981519152546001600160a01b031690565b6001600160a01b031614610a2b5760405162461bcd60e51b81526004016109b3906129f7565b610a3481611ff9565b60408051600080825260208201909252610a5091839190612001565b50565b60008060cf8381548110610a6957610a69612926565b6000918252602091829020604080516101a081018252600b90930290910180546001600160a01b03808216855260ff600160a01b90920482169585019590955260018201549094169183019190915260028101546060830152600381015461ffff166080830152600481015460a08301819052600582015460c0840152600682015460e084015260078201546101008085019190915260088301546101208501526009830154610140850152600a909201548085161515610160850152919091049092161515610180909101529392505050565b610b45611e33565b60cf604051806101a00160405280856001600160a01b031681526020018460ff168152602001836001600160a01b0316815260200160008152602001600061ffff1681526020016000815260200160008152602001600081526020016000815260200160008152602001600081526020016000151581526020016000151581525090806001815401808255809150506001900390600052602060002090600b020160009091909190915060008201518160000160006101000a8154816001600160a01b0302191690836001600160a01b0316021790555060208201518160000160146101000a81548160ff021916908360ff16021790555060408201518160010160006101000a8154816001600160a01b0302191690836001600160a01b031602179055506060820151816002015560808201518160030160006101000a81548161ffff021916908361ffff16021790555060a0820151816004015560c0820151816005015560e0820151816006015561010082015181600701556101208201518160080155610140820151816009015561016082015181600a0160006101000a81548160ff02191690831515021790555061018082015181600a0160016101000a81548160ff0219169083151502179055505050505050565b6000610d29611e33565b600060cf8581548110610d3e57610d3e612926565b90600052602060002090600b020190506000816005015490506000826002015482610d699190612993565b9050600081861015610dcd5781610d8261271088612952565b610d8c9190612971565b905061271061ffff16818560020154610da59190612952565b610daf9190612971565b846002016000828254610dc29190612a43565b90915550610e1e9050565b818603610de4575060006002840155612710610e1e565b60405162461bcd60e51b815260206004820152600f60248201526e082dadeeadce840e8dede40d0d2ced608b1b60448201526064016109b3565b60ce5460005b81811015610ec257600060ce8281548110610e4157610e41612926565b60009182526020808320909101548d835260d0825260408084206001600160a01b039092168085529190925290822090925090610e81908d908490611e8d565b805461271090610e92908790612952565b610e9c9190612971565b816000016000828254610eaf9190612a43565b909155505060019092019150610e249050565b50828703610ed657610ed660ce6000612693565b6000612710610ee76103e88a612952565b610ef19190612971565b90506000610eff828a612a43565b87546001600160a01b0316600090815260ca6020526040812080549293508492909190610f2d908490612993565b90915550508654610f48906001600160a01b03168b83612171565b5060019750505050505050505b9392505050565b60008060cf8481548110610f7257610f72612926565b6000918252602080832087845260d0825260408085206001600160a01b0389168652909252908320600b92909202016005810154600283015491945091929042118015610fbe57508115155b15611069576000610fd384600201544261184e565b600386015460cd5486549293506000926301e13380926127109261ffff90911691610ffe9190612952565b6110089190612952565b6110129190612971565b61101c9190612971565b60cd5490915060009061102f84846121ae565b6110399190612971565b9050600061271061104c6103e884612952565b6110569190612971565b90506110628183612a43565b9450505050505b93505050505b92915050565b6001600160a01b037f00000000000000000000000000000000000000000000000000000000000000001630036110bd5760405162461bcd60e51b81526004016109b3906129ab565b7f00000000000000000000000000000000000000000000000000000000000000006001600160a01b0316611106600080516020612c8b833981519152546001600160a01b031690565b6001600160a01b03161461112c5760405162461bcd60e51b81526004016109b3906129f7565b61113582611ff9565b61082682826001612001565b600061114b611dda565b611153611e33565b600060cf858154811061116857611168612926565b6000918252602080832088845260d0825260408085206001600160a01b038a16865290925292208054600b90920290920192508411156111df5760405162461bcd60e51b81526020600482015260126024820152711dda5d1a191c985dce881b9bdd0819dbdbd960721b60448201526064016109b3565b4281600301541080156111f55750428160040154115b80156112065750600681015460ff16155b8015611216575083816005015410155b80156112255750600381015415155b6112415760405162461bcd60e51b81526004016109b390612a5a565b60068101805460ff191660019081179091556112609087908790611e8d565b83156112a057805461127290856121ba565b8155600582015461128390856121ba565b6005830155815461129e906001600160a01b03168686612171565b505b80546000036113ae5760ce5460005b818110156113ab57866001600160a01b031660ce82815481106112d4576112d4612926565b6000918252602090912001546001600160a01b0316036113a357600060ce6112fd600185612a43565b8154811061130d5761130d612926565b60009182526020909120015460ce80546001600160a01b03909216925082918490811061133c5761133c612926565b9060005260206000200160006101000a8154816001600160a01b0302191690836001600160a01b0316021790555060ce80548061137b5761137b612aa3565b600082815260209020810160001990810180546001600160a01b0319169055019055506113ab565b6001016112af565b50505b600192505050610f55600160c955565b6000306001600160a01b037f0000000000000000000000000000000000000000000000000000000000000000161461145e5760405162461bcd60e51b815260206004820152603860248201527f555550535570677261646561626c653a206d757374206e6f742062652063616c60448201527f6c6564207468726f7567682064656c656761746563616c6c000000000000000060648201526084016109b3565b50600080516020612c8b83398151915290565b60008060cf848154811061148757611487612926565b90600052602060002090600b0201905082816002015410156114eb5760405162461bcd60e51b815260206004820152601a60248201527f416d6f756e7420626967676572207468616e206465706f73697400000000000060448201526064016109b3565b60018101546001600160a01b031633146115175760405162461bcd60e51b81526004016109b390612ab9565b61152462093a8042612993565b600782015561153662093a8042612993565b611543906203f480612993565b6008820155600981019290925550600a01805460ff1916905550600190565b600060cf838154811061157757611577612926565b60009182526020909120600b9091020160018101549091506001600160a01b031633146115b65760405162461bcd60e51b81526004016109b390612ab9565b80546115cd906001600160a01b0316333085611f83565b50818160020160008282546115e29190612993565b9091555050505050565b60008060cf838154811061160257611602612926565b6000918252602091829020604080516101a081018252600b90930290910180546001600160a01b03808216855260ff600160a01b909204821695850195909552600182015490941691830191909152600281015460608301819052600382015461ffff166080840152600482015460a0840152600582015460c08401819052600683015460e085015260078301546101008086019190915260088401546101208601526009840154610140860152600a909301548086161515610160860152929092049093161515610180830152909250610f559190612993565b60006116e7611dda565b6116ef611e33565b600082116116fc57600080fd5b600060cf858154811061171157611711612926565b6000918252602080832088845260d0825260408085206001600160a01b038a1686529092529220600b909102909101915061174e86866001611e8d565b80546000036117a35760ce80546001810182556000919091527fd36cd1c74ef8d7326d8021b776c18fb5a5724b7f7bc93c2f42e43e10ef27d12a0180546001600160a01b0319166001600160a01b0387161790555b81546117ba906001600160a01b0316863087611f83565b5080546117c790856121c6565b815560058201546117d890856121c6565b60058301556004820154158015906117f857508160040154826005015411155b6113ae5760405162461bcd60e51b8152602060048201526013602482015272115e18d959591959081c1bdbdb081b1a5b5a5d606a1b60448201526064016109b3565b611842611e33565b61184c60006121d2565b565b6000610f5582846121ba565b600082815260d060209081526040808320338452909152812080548311156118c45760405162461bcd60e51b815260206004820152601a60248201527f416d6f756e7420626967676572207468616e206465706f73697400000000000060448201526064016109b3565b6118d162093a8042612993565b60038201556118e362093a8042612993565b6118f0906203f480612993565b6004820155600581019290925550600601805460ff1916905550600190565b60008060cf848154811061192557611925612926565b60009182526020909120600b9091020160018101549091506001600160a01b031633146119645760405162461bcd60e51b81526004016109b390612ab9565b42816007015410801561197a5750428160080154115b801561198b5750600a81015460ff16155b801561199b575082816009015410155b80156119aa5750600781015415155b6119c65760405162461bcd60e51b81526004016109b390612a5a565b600a8101805460ff191660011790556002810180548491906000906119ec908490612a43565b909155505060018101548154611a0f916001600160a01b03918216911685612171565b506001949350505050565b600060cf8581548110611a2f57611a2f612926565b90600052602060002090600b0201905080600a0160019054906101000a900460ff1615611a9e5760405162461bcd60e51b815260206004820152601860248201527f506f6f6c20616c726561647920696e697469616c697a6564000000000000000060448201526064016109b3565b60008361ffff16118015611ab857506127108361ffff1611155b611af75760405162461bcd60e51b815260206004820152601060248201526f415059206f7574206f662072616e676560801b60448201526064016109b3565b8054611b0e90600160a01b900460ff16600a612bc5565b611b19906064612952565b84118015611b4a57508054611b3990600160a01b900460ff16600a612bc5565b611b469062989680612952565b8411155b611b8e5760405162461bcd60e51b8152602060048201526015602482015274506f6f6c20636170206f7574206f662072616e676560581b60448201526064016109b3565b60018101546001600160a01b03163314611bba5760405162461bcd60e51b81526004016109b390612ab9565b8054611bd1906001600160a01b0316333085611f83565b506002810191909155600481019290925560038201805461ffff90921661ffff19909216919091179055600a01805461ff00191661010017905550565b6000611c18611e33565b6001600160a01b038316600090815260cb602090815260408083205460ca909252822054611c469190612993565b6001600160a01b038516600081815260ca6020908152604080832083905560cb909152812055909150611a0f908483612171565b60008060cf8381548110611c9057611c90612926565b6000918252602091829020604080516101a081018252600b90930290910180546001600160a01b03808216855260ff600160a01b90920482169585019590955260018201549094169183019190915260028101546060830152600381015461ffff166080830152600481015460a0830152600581015460c08301819052600682015460e084015260078201546101008085019190915260088301546101208501526009830154610140850152600a909201548085161515610160850152919091049092161515610180909101529392505050565b611d6c611e33565b6001600160a01b038116611dd15760405162461bcd60e51b815260206004820152602660248201527f4f776e61626c653a206e6577206f776e657220697320746865207a65726f206160448201526564647265737360d01b60648201526084016109b3565b610a50816121d2565b600260c95403611e2c5760405162461bcd60e51b815260206004820152601f60248201527f5265656e7472616e637947756172643a207265656e7472616e742063616c6c0060448201526064016109b3565b600260c955565b6033546001600160a01b0316331461184c5760405162461bcd60e51b815260206004820181905260248201527f4f776e61626c653a2063616c6c6572206973206e6f7420746865206f776e657260448201526064016109b3565b600060cf8481548110611ea257611ea2612926565b6000918252602080832087845260d0825260408085206001600160a01b03891686529092529083208054600b90930290910193509103611ee9574260029091015550505050565b6000611ef58686610f5c565b905060cc54811115611f0c57611f0a8661082a565b505b83611f3b5780826001016000828254611f259190612993565b9091555050426002909201919091555050505050565b6000826001015482611f4d9190612993565b90508015611f74578354611f6b906001600160a01b03168783612171565b50600060018401555b50504260029091015550505050565b6040516001600160a01b0380851660248301528316604482015260648101829052600090611a0f9086906323b872dd60e01b906084015b60408051601f198184030181529190526020810180516001600160e01b03166001600160e01b031990931692909217909152612224565b949350505050565b610a50611e33565b7f4910fdfa16fed3260ed0e7147f7cc6da11a60208b5b9406d12a635614ffd91435460ff161561203957612034836122f6565b505050565b826001600160a01b03166352d1902d6040518163ffffffff1660e01b8152600401602060405180830381865afa925050508015612093575060408051601f3d908101601f1916820190925261209091810190612bd4565b60015b6120f65760405162461bcd60e51b815260206004820152602e60248201527f45524331393637557067726164653a206e657720696d706c656d656e7461746960448201526d6f6e206973206e6f74205555505360901b60648201526084016109b3565b600080516020612c8b83398151915281146121655760405162461bcd60e51b815260206004820152602960248201527f45524331393637557067726164653a20756e737570706f727465642070726f786044820152681a58589b195555525160ba1b60648201526084016109b3565b50612034838383612392565b6040516001600160a01b0383166024820152604481018290526000906121a490859063a9059cbb60e01b90606401611fba565b5060019392505050565b6000610f558284612952565b6000610f558284612a43565b6000610f558284612993565b603380546001600160a01b038381166001600160a01b0319831681179093556040519116919082907f8be0079c531659141344cd1fd0a4f28419497f9722a3daafe3b4186f6b6457e090600090a35050565b6000612279826040518060400160405280602081526020017f5361666545524332303a206c6f772d6c6576656c2063616c6c206661696c6564815250856001600160a01b03166123bd9092919063ffffffff16565b80519091501561203457808060200190518101906122979190612bed565b6120345760405162461bcd60e51b815260206004820152602a60248201527f5361666545524332303a204552433230206f7065726174696f6e20646964206e6044820152691bdd081cdd58d8d9595960b21b60648201526084016109b3565b6001600160a01b0381163b6123635760405162461bcd60e51b815260206004820152602d60248201527f455243313936373a206e657720696d706c656d656e746174696f6e206973206e60448201526c1bdd08184818dbdb9d1c9858dd609a1b60648201526084016109b3565b600080516020612c8b83398151915280546001600160a01b0319166001600160a01b0392909216919091179055565b61239b836123cc565b6000825111806123a85750805b15612034576123b7838361240c565b50505050565b6060611ff18484600085612500565b6123d5816122f6565b6040516001600160a01b038216907fbc7cd75a20ee27fd9adebab32041f755214dbc6bffa90cc0225b39da2e5c2d3b90600090a250565b60606001600160a01b0383163b6124745760405162461bcd60e51b815260206004820152602660248201527f416464726573733a2064656c65676174652063616c6c20746f206e6f6e2d636f6044820152651b9d1c9858dd60d21b60648201526084016109b3565b600080846001600160a01b03168460405161248f9190612c3b565b600060405180830381855af49150503d80600081146124ca576040519150601f19603f3d011682016040523d82523d6000602084013e6124cf565b606091505b50915091506124f78282604051806060016040528060278152602001612cab602791396125db565b95945050505050565b6060824710156125615760405162461bcd60e51b815260206004820152602660248201527f416464726573733a20696e73756666696369656e742062616c616e636520666f6044820152651c8818d85b1b60d21b60648201526084016109b3565b600080866001600160a01b0316858760405161257d9190612c3b565b60006040518083038185875af1925050503d80600081146125ba576040519150601f19603f3d011682016040523d82523d6000602084013e6125bf565b606091505b50915091506125d0878383876125f4565b979650505050505050565b606083156125ea575081610f55565b610f558383612669565b6060831561266357825160000361265c576001600160a01b0385163b61265c5760405162461bcd60e51b815260206004820152601d60248201527f416464726573733a2063616c6c20746f206e6f6e2d636f6e747261637400000060448201526064016109b3565b5081611ff1565b611ff183835b8151156126795781518083602001fd5b8060405162461bcd60e51b81526004016109b39190612c57565b5080546000825590600052602060002090810190610a5091905b808211156126c157600081556001016126ad565b5090565b6000602082840312156126d757600080fd5b5035919050565b80356001600160a01b038116811461093c57600080fd5b6000806040838503121561270857600080fd5b82359150612718602084016126de565b90509250929050565b60006020828403121561273357600080fd5b610f55826126de565b60008060006060848603121561275157600080fd5b61275a846126de565b9250602084013560ff8116811461277057600080fd5b915061277e604085016126de565b90509250925092565b60008060006060848603121561279c57600080fd5b833592506127ac602085016126de565b9150604084013590509250925092565b634e487b7160e01b600052604160045260246000fd5b600080604083850312156127e557600080fd5b6127ee836126de565b9150602083013567ffffffffffffffff8082111561280b57600080fd5b818501915085601f83011261281f57600080fd5b813581811115612831576128316127bc565b604051601f8201601f19908116603f01168101908382118183101715612859576128596127bc565b8160405282815288602084870101111561287257600080fd5b8260208601602083013760006020848301015280955050505050509250929050565b600080604083850312156128a757600080fd5b50508035926020909101359150565b600080600080608085870312156128cc57600080fd5b8435935060208501359250604085013561ffff811681146128ec57600080fd5b9396929550929360600135925050565b6000806040838503121561290f57600080fd5b612918836126de565b9150612718602084016126de565b634e487b7160e01b600052603260045260246000fd5b634e487b7160e01b600052601160045260246000fd5b600081600019048311821515161561296c5761296c61293c565b500290565b60008261298e57634e487b7160e01b600052601260045260246000fd5b500490565b600082198211156129a6576129a661293c565b500190565b6020808252602c908201527f46756e6374696f6e206d7573742062652063616c6c6564207468726f7567682060408201526b19195b1959d85d1958d85b1b60a21b606082015260800190565b6020808252602c908201527f46756e6374696f6e206d7573742062652063616c6c6564207468726f7567682060408201526b6163746976652070726f787960a01b606082015260800190565b600082821015612a5557612a5561293c565b500390565b60208082526029908201527f54696d656c6f636b206e6f7420736574206f72206e6f7420636f6d706c6574656040820152686420696e2074696d6560b81b606082015260800190565b634e487b7160e01b600052603160045260246000fd5b6020808252600e908201526d139bdd08185d5d1a1bdc9a5e995960921b604082015260600190565b600181815b80851115612b1c578160001904821115612b0257612b0261293c565b80851615612b0f57918102915b93841c9390800290612ae6565b509250929050565b600082612b335750600161106f565b81612b405750600061106f565b8160018114612b565760028114612b6057612b7c565b600191505061106f565b60ff841115612b7157612b7161293c565b50506001821b61106f565b5060208310610133831016604e8410600b8410161715612b9f575081810a61106f565b612ba98383612ae1565b8060001904821115612bbd57612bbd61293c565b029392505050565b6000610f5560ff841683612b24565b600060208284031215612be657600080fd5b5051919050565b600060208284031215612bff57600080fd5b81518015158114610f5557600080fd5b60005b83811015612c2a578181015183820152602001612c12565b838111156123b75750506000910152565b60008251612c4d818460208701612c0f565b9190910192915050565b6020815260008251806020840152612c76816040850160208701612c0f565b601f01601f1916919091016040019291505056fe360894a13ba1a3210667c828492db98dca3e2076cc3735a920a3ca505d382bbc416464726573733a206c6f772d6c6576656c2064656c65676174652063616c6c206661696c6564a2646970667358221220cfc07c997f2fc9bf5d21e532c167e5a1eff27491f47f7c73e43a9c3c6ea24d8264736f6c634300080d0033",
    "linkReferences": {}
  },
  "methodIdentifiers": {
    "PERIOD()": "b4d1d795",
    "YEAR()": "83914540",
    "addNewBountyPool(address,uint8,address)": "399eadb8",
    "billPremium(uint256)": "2dbe051e",
    "claimPremium(uint256,address)": "196ca389",
    "collectSaloonProfits(address,address)": "cf9564b9",
    "denominator()": "96ce0795",
    "getMultiplier(uint256,uint256)": "8dbb1e3a",
    "makeProjectDeposit(uint256,uint256)": "57a86d3a",
    "owner()": "8da5cb5b",
    "payBounty(uint256,address,uint256)": "3ac6ad7b",
    "pendingToken(uint256,address)": "48e43af4",
    "poolInfo(uint256)": "1526fe27",
    "poolLength()": "081e3eda",
    "premiumBalance()": "44ebc03d",
    "projectDepositWithdrawal(uint256,uint256)": "983c1ce0",
    "proxiableUUID()": "52d1902d",
    "renounceOwnership()": "715018a6",
    "saloonBountyProfit(address)": "e45abd0f",
    "saloonPremiumProfit(address)": "ca006148",
    "scheduleProjectDepositWithdrawal(uint256,uint256)": "5669cbef",
    "scheduleUnstake(uint256,uint256)": "91635b4e",
    "setAPYandPoolCapAndDeposit(uint256,uint256,uint16,uint256)": "cee6b069",
    "stake(uint256,address,uint256)": "6e9c931c",
    "stakerList(uint256)": "348e50c6",
    "startTime()": "78e97925",
    "transferOwnership(address)": "f2fde38b",
    "unstake(uint256,address,uint256)": "51a7c716",
    "upgradeTo(address)": "3659cfe6",
    "upgradeToAndCall(address,bytes)": "4f1ef286",
    "userInfo(uint256,address)": "93f1a40b",
    "viewBountyBalance(uint256)": "6ac6d812",
    "viewPoolCap(uint256)": "39679ff4",
    "viewStake(uint256)": "23691677",
    "viewTotalStaked(uint256)": "dbdd6957"
  },
  "id": 15
}