{
  "abi": [
    {
      "anonymous": false,
      "inputs": [
        {
          "indexed": false,
          "internalType": "address",
          "name": "previousAdmin",
          "type": "address"
        },
        {
          "indexed": false,
          "internalType": "address",
          "name": "newAdmin",
          "type": "address"
        }
      ],
      "name": "AdminChanged",
      "type": "event"
    },
    {
      "anonymous": false,
      "inputs": [
        {
          "indexed": true,
          "internalType": "address",
          "name": "beacon",
          "type": "address"
        }
      ],
      "name": "BeaconUpgraded",
      "type": "event"
    },
    {
      "anonymous": false,
      "inputs": [
        {
          "indexed": true,
          "internalType": "uint256",
          "name": "pid",
          "type": "uint256"
        },
        {
          "indexed": true,
          "internalType": "uint256",
          "name": "oldAmount",
          "type": "uint256"
        },
        {
          "indexed": true,
          "internalType": "uint256",
          "name": "newAmount",
          "type": "uint256"
        }
      ],
      "name": "BountyBalanceChanged",
      "type": "event"
    },
    {
      "anonymous": false,
      "inputs": [
        {
          "indexed": true,
          "internalType": "uint256",
          "name": "time",
          "type": "uint256"
        },
        {
          "indexed": true,
          "internalType": "address",
          "name": "hunter",
          "type": "address"
        },
        {
          "indexed": true,
          "internalType": "address",
          "name": "token",
          "type": "address"
        },
        {
          "indexed": false,
          "internalType": "uint256",
          "name": "amount",
          "type": "uint256"
        }
      ],
      "name": "BountyPaid",
      "type": "event"
    },
    {
      "anonymous": false,
      "inputs": [
        {
          "indexed": false,
          "internalType": "uint8",
          "name": "version",
          "type": "uint8"
        }
      ],
      "name": "Initialized",
      "type": "event"
    },
    {
      "anonymous": false,
      "inputs": [
        {
          "indexed": true,
          "internalType": "uint256",
          "name": "pid",
          "type": "uint256"
        },
        {
          "indexed": true,
          "internalType": "address",
          "name": "token",
          "type": "address"
        },
        {
          "indexed": true,
          "internalType": "uint256",
          "name": "tokenDecimals",
          "type": "uint256"
        }
      ],
      "name": "NewBountyDeployed",
      "type": "event"
    },
    {
      "anonymous": false,
      "inputs": [
        {
          "indexed": true,
          "internalType": "address",
          "name": "previousOwner",
          "type": "address"
        },
        {
          "indexed": true,
          "internalType": "address",
          "name": "newOwner",
          "type": "address"
        }
      ],
      "name": "OwnershipTransferred",
      "type": "event"
    },
    {
      "anonymous": false,
      "inputs": [
        {
          "indexed": true,
          "internalType": "uint256",
          "name": "pid",
          "type": "uint256"
        },
        {
          "indexed": true,
          "internalType": "uint256",
          "name": "amount",
          "type": "uint256"
        }
      ],
      "name": "PremiumBilled",
      "type": "event"
    },
    {
      "anonymous": false,
      "inputs": [
        {
          "indexed": true,
          "internalType": "address",
          "name": "user",
          "type": "address"
        },
        {
          "indexed": true,
          "internalType": "uint256",
          "name": "pid",
          "type": "uint256"
        },
        {
          "indexed": false,
          "internalType": "uint256",
          "name": "amount",
          "type": "uint256"
        }
      ],
      "name": "Staked",
      "type": "event"
    },
    {
      "anonymous": false,
      "inputs": [
        {
          "indexed": true,
          "internalType": "address",
          "name": "user",
          "type": "address"
        },
        {
          "indexed": true,
          "internalType": "uint256",
          "name": "pid",
          "type": "uint256"
        },
        {
          "indexed": false,
          "internalType": "uint256",
          "name": "amount",
          "type": "uint256"
        }
      ],
      "name": "Unstaked",
      "type": "event"
    },
    {
      "anonymous": false,
      "inputs": [
        {
          "indexed": true,
          "internalType": "address",
          "name": "implementation",
          "type": "address"
        }
      ],
      "name": "Upgraded",
      "type": "event"
    },
    {
      "anonymous": false,
      "inputs": [
        {
          "indexed": true,
          "internalType": "uint256",
          "name": "pid",
          "type": "uint256"
        },
        {
          "indexed": true,
          "internalType": "uint256",
          "name": "amount",
          "type": "uint256"
        }
      ],
      "name": "WithdrawalOrUnstakeScheduled",
      "type": "event"
    },
    {
      "anonymous": false,
      "inputs": [
        {
          "indexed": true,
          "internalType": "address",
          "name": "token",
          "type": "address"
        },
        {
          "indexed": true,
          "internalType": "bool",
          "name": "whitelisted",
          "type": "bool"
        }
      ],
      "name": "tokenWhitelistUpdated",
      "type": "event"
    },
    {
      "inputs": [],
      "name": "acceptOwnershipTransfer",
      "outputs": [],
      "stateMutability": "nonpayable",
      "type": "function"
    },
    {
      "inputs": [
        {
          "internalType": "uint256",
          "name": "",
          "type": "uint256"
        }
      ],
      "name": "activeTokens",
      "outputs": [
        {
          "internalType": "address",
          "name": "",
          "type": "address"
        }
      ],
      "stateMutability": "view",
      "type": "function"
    },
    {
      "inputs": [
        {
          "internalType": "address",
          "name": "_token",
          "type": "address"
        },
        {
          "internalType": "address",
          "name": "_projectWallet",
          "type": "address"
        },
        {
          "internalType": "string",
          "name": "_projectName",
          "type": "string"
        }
      ],
      "name": "addNewBountyPool",
      "outputs": [
        {
          "internalType": "uint256",
          "name": "",
          "type": "uint256"
        }
      ],
      "stateMutability": "nonpayable",
      "type": "function"
    },
    {
      "inputs": [
        {
          "internalType": "uint256",
          "name": "_pid",
          "type": "uint256"
        }
      ],
      "name": "billPremium",
      "outputs": [
        {
          "internalType": "bool",
          "name": "",
          "type": "bool"
        }
      ],
      "stateMutability": "nonpayable",
      "type": "function"
    },
    {
      "inputs": [
        {
          "internalType": "uint256",
          "name": "_pid",
          "type": "uint256"
        }
      ],
      "name": "claimPremium",
      "outputs": [],
      "stateMutability": "nonpayable",
      "type": "function"
    },
    {
      "inputs": [
        {
          "internalType": "address",
          "name": "_saloonWallet",
          "type": "address"
        }
      ],
      "name": "collectAllSaloonProfits",
      "outputs": [
        {
          "internalType": "bool",
          "name": "",
          "type": "bool"
        }
      ],
      "stateMutability": "nonpayable",
      "type": "function"
    },
    {
      "inputs": [
        {
          "internalType": "address",
          "name": "_token",
          "type": "address"
        },
        {
          "internalType": "address",
          "name": "_saloonWallet",
          "type": "address"
        }
      ],
      "name": "collectSaloonProfits",
      "outputs": [
        {
          "internalType": "bool",
          "name": "",
          "type": "bool"
        }
      ],
      "stateMutability": "nonpayable",
      "type": "function"
    },
    {
      "inputs": [
        {
          "internalType": "uint256",
          "name": "_from",
          "type": "uint256"
        },
        {
          "internalType": "uint256",
          "name": "_to",
          "type": "uint256"
        }
      ],
      "name": "getMultiplier",
      "outputs": [
        {
          "internalType": "uint256",
          "name": "",
          "type": "uint256"
        }
      ],
      "stateMutability": "pure",
      "type": "function"
    },
    {
      "inputs": [],
      "name": "initialize",
      "outputs": [],
      "stateMutability": "nonpayable",
      "type": "function"
    },
    {
      "inputs": [
        {
          "internalType": "uint256",
          "name": "_pid",
          "type": "uint256"
        },
        {
          "internalType": "uint256",
          "name": "_deposit",
          "type": "uint256"
        }
      ],
      "name": "makeProjectDeposit",
      "outputs": [],
      "stateMutability": "nonpayable",
      "type": "function"
    },
    {
      "inputs": [],
      "name": "owner",
      "outputs": [
        {
          "internalType": "address",
          "name": "",
          "type": "address"
        }
      ],
      "stateMutability": "view",
      "type": "function"
    },
    {
      "inputs": [
        {
          "internalType": "uint256",
          "name": "_pid",
          "type": "uint256"
        },
        {
          "internalType": "address",
          "name": "_hunter",
          "type": "address"
        },
        {
          "internalType": "uint256",
          "name": "_amount",
          "type": "uint256"
        }
      ],
      "name": "payBounty",
      "outputs": [
        {
          "internalType": "bool",
          "name": "",
          "type": "bool"
        }
      ],
      "stateMutability": "nonpayable",
      "type": "function"
    },
    {
      "inputs": [
        {
          "internalType": "uint256",
          "name": "_pid",
          "type": "uint256"
        },
        {
          "internalType": "address",
          "name": "_user",
          "type": "address"
        }
      ],
      "name": "pendingToken",
      "outputs": [
        {
          "internalType": "uint256",
          "name": "",
          "type": "uint256"
        }
      ],
      "stateMutability": "view",
      "type": "function"
    },
    {
      "inputs": [
        {
          "internalType": "uint256",
          "name": "",
          "type": "uint256"
        }
      ],
      "name": "poolInfo",
      "outputs": [
        {
          "internalType": "contract IERC20",
          "name": "token",
          "type": "address"
        },
        {
          "internalType": "uint8",
          "name": "tokenDecimals",
          "type": "uint8"
        },
        {
          "internalType": "uint16",
          "name": "apy",
          "type": "uint16"
        },
        {
          "internalType": "address",
          "name": "projectWallet",
          "type": "address"
        },
        {
          "internalType": "string",
          "name": "projectName",
          "type": "string"
        },
        {
          "internalType": "uint256",
          "name": "projectDeposit",
          "type": "uint256"
        },
        {
          "internalType": "uint256",
          "name": "poolCap",
          "type": "uint256"
        },
        {
          "internalType": "uint256",
          "name": "totalStaked",
          "type": "uint256"
        },
        {
          "internalType": "uint256",
          "name": "requiredPremiumBalancePerPeriod",
          "type": "uint256"
        },
        {
          "internalType": "uint256",
          "name": "premiumBalance",
          "type": "uint256"
        },
        {
          "internalType": "uint256",
          "name": "premiumAvailable",
          "type": "uint256"
        },
        {
          "components": [
            {
              "internalType": "uint256",
              "name": "timelock",
              "type": "uint256"
            },
            {
              "internalType": "uint256",
              "name": "timeLimit",
              "type": "uint256"
            },
            {
              "internalType": "uint256",
              "name": "withdrawalScheduledAmount",
              "type": "uint256"
            },
            {
              "internalType": "bool",
              "name": "withdrawalExecuted",
              "type": "bool"
            }
          ],
          "internalType": "struct ISaloon.TimelockInfo",
          "name": "poolTimelock",
          "type": "tuple"
        },
        {
          "internalType": "bool",
          "name": "isActive",
          "type": "bool"
        },
        {
          "internalType": "uint256",
          "name": "freezeTime",
          "type": "uint256"
        }
      ],
      "stateMutability": "view",
      "type": "function"
    },
    {
      "inputs": [],
      "name": "poolLength",
      "outputs": [
        {
          "internalType": "uint256",
          "name": "",
          "type": "uint256"
        }
      ],
      "stateMutability": "view",
      "type": "function"
    },
    {
      "inputs": [
        {
          "internalType": "uint256",
          "name": "_pid",
          "type": "uint256"
        },
        {
          "internalType": "uint256",
          "name": "_amount",
          "type": "uint256"
        }
      ],
      "name": "projectDepositWithdrawal",
      "outputs": [
        {
          "internalType": "bool",
          "name": "",
          "type": "bool"
        }
      ],
      "stateMutability": "nonpayable",
      "type": "function"
    },
    {
      "inputs": [],
      "name": "proxiableUUID",
      "outputs": [
        {
          "internalType": "bytes32",
          "name": "",
          "type": "bytes32"
        }
      ],
      "stateMutability": "view",
      "type": "function"
    },
    {
      "inputs": [
        {
          "internalType": "address",
          "name": "",
          "type": "address"
        }
      ],
      "name": "saloonBountyProfit",
      "outputs": [
        {
          "internalType": "uint256",
          "name": "",
          "type": "uint256"
        }
      ],
      "stateMutability": "view",
      "type": "function"
    },
    {
      "inputs": [
        {
          "internalType": "address",
          "name": "",
          "type": "address"
        }
      ],
      "name": "saloonPremiumProfit",
      "outputs": [
        {
          "internalType": "uint256",
          "name": "",
          "type": "uint256"
        }
      ],
      "stateMutability": "view",
      "type": "function"
    },
    {
      "inputs": [
        {
          "internalType": "uint256",
          "name": "_pid",
          "type": "uint256"
        },
        {
          "internalType": "uint256",
          "name": "_amount",
          "type": "uint256"
        }
      ],
      "name": "scheduleProjectDepositWithdrawal",
      "outputs": [
        {
          "internalType": "bool",
          "name": "",
          "type": "bool"
        }
      ],
      "stateMutability": "nonpayable",
      "type": "function"
    },
    {
      "inputs": [
        {
          "internalType": "uint256",
          "name": "_pid",
          "type": "uint256"
        },
        {
          "internalType": "uint256",
          "name": "_amount",
          "type": "uint256"
        }
      ],
      "name": "scheduleUnstake",
      "outputs": [
        {
          "internalType": "bool",
          "name": "",
          "type": "bool"
        }
      ],
      "stateMutability": "nonpayable",
      "type": "function"
    },
    {
      "inputs": [
        {
          "internalType": "uint256",
          "name": "_pid",
          "type": "uint256"
        },
        {
          "internalType": "uint256",
          "name": "_poolCap",
          "type": "uint256"
        },
        {
          "internalType": "uint16",
          "name": "_apy",
          "type": "uint16"
        },
        {
          "internalType": "uint256",
          "name": "_deposit",
          "type": "uint256"
        }
      ],
      "name": "setAPYandPoolCapAndDeposit",
      "outputs": [],
      "stateMutability": "nonpayable",
      "type": "function"
    },
    {
      "inputs": [
        {
          "internalType": "uint256",
          "name": "_pid",
          "type": "uint256"
        },
        {
          "internalType": "address",
          "name": "_user",
          "type": "address"
        },
        {
          "internalType": "uint256",
          "name": "_amount",
          "type": "uint256"
        }
      ],
      "name": "stake",
      "outputs": [
        {
          "internalType": "bool",
          "name": "",
          "type": "bool"
        }
      ],
      "stateMutability": "nonpayable",
      "type": "function"
    },
    {
      "inputs": [
        {
          "internalType": "address",
          "name": "",
          "type": "address"
        }
      ],
      "name": "tokenWhitelist",
      "outputs": [
        {
          "internalType": "bool",
          "name": "",
          "type": "bool"
        }
      ],
      "stateMutability": "view",
      "type": "function"
    },
    {
      "inputs": [
        {
          "internalType": "address",
          "name": "newOwner",
          "type": "address"
        }
      ],
      "name": "transferOwnership",
      "outputs": [],
      "stateMutability": "nonpayable",
      "type": "function"
    },
    {
      "inputs": [
        {
          "internalType": "uint256",
          "name": "_pid",
          "type": "uint256"
        },
        {
          "internalType": "uint256",
          "name": "_amount",
          "type": "uint256"
        }
      ],
      "name": "unstake",
      "outputs": [
        {
          "internalType": "bool",
          "name": "",
          "type": "bool"
        }
      ],
      "stateMutability": "nonpayable",
      "type": "function"
    },
    {
      "inputs": [
        {
          "internalType": "address",
          "name": "_token",
          "type": "address"
        },
        {
          "internalType": "bool",
          "name": "_whitelisted",
          "type": "bool"
        }
      ],
      "name": "updateTokenWhitelist",
      "outputs": [
        {
          "internalType": "bool",
          "name": "",
          "type": "bool"
        }
      ],
      "stateMutability": "nonpayable",
      "type": "function"
    },
    {
      "inputs": [
        {
          "internalType": "address",
          "name": "newImplementation",
          "type": "address"
        }
      ],
      "name": "upgradeTo",
      "outputs": [],
      "stateMutability": "nonpayable",
      "type": "function"
    },
    {
      "inputs": [
        {
          "internalType": "address",
          "name": "newImplementation",
          "type": "address"
        },
        {
          "internalType": "bytes",
          "name": "data",
          "type": "bytes"
        }
      ],
      "name": "upgradeToAndCall",
      "outputs": [],
      "stateMutability": "payable",
      "type": "function"
    },
    {
      "inputs": [
        {
          "internalType": "uint256",
          "name": "",
          "type": "uint256"
        },
        {
          "internalType": "address",
          "name": "",
          "type": "address"
        }
      ],
      "name": "userInfo",
      "outputs": [
        {
          "internalType": "uint256",
          "name": "amount",
          "type": "uint256"
        },
        {
          "internalType": "uint256",
          "name": "unclaimed",
          "type": "uint256"
        },
        {
          "internalType": "uint256",
          "name": "lastRewardTime",
          "type": "uint256"
        },
        {
          "internalType": "uint256",
          "name": "timelock",
          "type": "uint256"
        },
        {
          "internalType": "uint256",
          "name": "timeLimit",
          "type": "uint256"
        },
        {
          "internalType": "uint256",
          "name": "unstakeScheduledAmount",
          "type": "uint256"
        },
        {
          "internalType": "bool",
          "name": "unstakeExecuted",
          "type": "bool"
        }
      ],
      "stateMutability": "view",
      "type": "function"
    },
    {
      "inputs": [
        {
          "internalType": "uint256",
          "name": "_pid",
          "type": "uint256"
        }
      ],
      "name": "viewBountyBalance",
      "outputs": [
        {
          "internalType": "uint256",
          "name": "",
          "type": "uint256"
        }
      ],
      "stateMutability": "view",
      "type": "function"
    },
    {
      "inputs": [
        {
          "internalType": "uint256",
          "name": "_pid",
          "type": "uint256"
        }
      ],
      "name": "viewBountyInfo",
      "outputs": [
        {
          "internalType": "uint256",
          "name": "payout",
          "type": "uint256"
        },
        {
          "internalType": "uint256",
          "name": "apy",
          "type": "uint256"
        },
        {
          "internalType": "uint256",
          "name": "staked",
          "type": "uint256"
        },
        {
          "internalType": "uint256",
          "name": "poolCap",
          "type": "uint256"
        }
      ],
      "stateMutability": "view",
      "type": "function"
    },
    {
      "inputs": [
        {
          "internalType": "uint256",
          "name": "_pid",
          "type": "uint256"
        }
      ],
      "name": "viewHackerPayout",
      "outputs": [
        {
          "internalType": "uint256",
          "name": "",
          "type": "uint256"
        }
      ],
      "stateMutability": "view",
      "type": "function"
    },
    {
      "inputs": [
        {
          "internalType": "uint256",
          "name": "_pid",
          "type": "uint256"
        }
      ],
      "name": "viewPoolAPY",
      "outputs": [
        {
          "internalType": "uint256",
          "name": "",
          "type": "uint256"
        }
      ],
      "stateMutability": "view",
      "type": "function"
    },
    {
      "inputs": [
        {
          "internalType": "uint256",
          "name": "_pid",
          "type": "uint256"
        }
      ],
      "name": "viewPoolCap",
      "outputs": [
        {
          "internalType": "uint256",
          "name": "",
          "type": "uint256"
        }
      ],
      "stateMutability": "view",
      "type": "function"
    },
    {
      "inputs": [
        {
          "internalType": "uint256",
          "name": "_pid",
          "type": "uint256"
        }
      ],
      "name": "viewPoolPremiumInfo",
      "outputs": [
        {
          "internalType": "uint256",
          "name": "requiredPremiumBalancePerPeriod",
          "type": "uint256"
        },
        {
          "internalType": "uint256",
          "name": "premiumBalance",
          "type": "uint256"
        }
      ],
      "stateMutability": "view",
      "type": "function"
    },
    {
      "inputs": [
        {
          "internalType": "uint256",
          "name": "_pid",
          "type": "uint256"
        }
      ],
      "name": "viewPoolTimelockInfo",
      "outputs": [
        {
          "internalType": "uint256",
          "name": "timelock",
          "type": "uint256"
        },
        {
          "internalType": "uint256",
          "name": "timeLimit",
          "type": "uint256"
        },
        {
          "internalType": "uint256",
          "name": "withdrawalScheduledAmount",
          "type": "uint256"
        }
      ],
      "stateMutability": "view",
      "type": "function"
    },
    {
      "inputs": [
        {
          "internalType": "address",
          "name": "_token",
          "type": "address"
        }
      ],
      "name": "viewSaloonProfitBalance",
      "outputs": [
        {
          "internalType": "uint256",
          "name": "totalProfit",
          "type": "uint256"
        },
        {
          "internalType": "uint256",
          "name": "bountyProfit",
          "type": "uint256"
        },
        {
          "internalType": "uint256",
          "name": "premiumProfit",
          "type": "uint256"
        }
      ],
      "stateMutability": "view",
      "type": "function"
    },
    {
      "inputs": [
        {
          "internalType": "uint256",
          "name": "_pid",
          "type": "uint256"
        },
        {
          "internalType": "address",
          "name": "_user",
          "type": "address"
        }
      ],
      "name": "viewStake",
      "outputs": [
        {
          "internalType": "uint256",
          "name": "",
          "type": "uint256"
        }
      ],
      "stateMutability": "view",
      "type": "function"
    },
    {
      "inputs": [
        {
          "internalType": "uint256",
          "name": "_pid",
          "type": "uint256"
        }
      ],
      "name": "viewTotalStaked",
      "outputs": [
        {
          "internalType": "uint256",
          "name": "",
          "type": "uint256"
        }
      ],
      "stateMutability": "view",
      "type": "function"
    },
    {
      "inputs": [
        {
          "internalType": "uint256",
          "name": "_pid",
          "type": "uint256"
        },
        {
          "internalType": "address",
          "name": "_user",
          "type": "address"
        }
      ],
      "name": "viewUserInfo",
      "outputs": [
        {
          "internalType": "uint256",
          "name": "amount",
          "type": "uint256"
        },
        {
          "internalType": "uint256",
          "name": "unclaimed",
          "type": "uint256"
        }
      ],
      "stateMutability": "view",
      "type": "function"
    },
    {
      "inputs": [
        {
          "internalType": "uint256",
          "name": "_pid",
          "type": "uint256"
        }
      ],
      "name": "windDownBounty",
      "outputs": [
        {
          "internalType": "bool",
          "name": "",
          "type": "bool"
        }
      ],
      "stateMutability": "nonpayable",
      "type": "function"
    }
  ],
  "bytecode": {
    "object": "0x60a06040523060805234801561001457600080fd5b50600160ca55608051614e5b61005160003960008181610a7101528181610aba015281816112d80152818161131801526113ab0152614e5b6000f3fe6080604052600436106102515760003560e01c80638dbb1e3a11610139578063b842e87f116100b6578063dbdd69571161007a578063dbdd6957146107fe578063e45abd0f1461081e578063e5e97c651461084b578063ecd7fbed1461086b578063f2fde38b1461088b578063f47ec3be146108ab57600080fd5b8063b842e87f1461075c578063bb7019c114610771578063ca00614814610791578063cee6b069146107be578063cf9564b9146107de57600080fd5b80639f224f35116100fd5780639f224f351461067d578063a27f92131461069d578063a754ecb0146106bd578063ac30b8561461071c578063b1a2d16f1461073c57600080fd5b80638dbb1e3a1461056057806391635b4e1461058057806393f1a40b146105a0578063983c1ce01461063d5780639e2c8a5b1461065d57600080fd5b806352d1902d116101d2578063718c7eef11610196578063718c7eef1461046e578063753d7563146104a9578063804fd590146104d95780638129fc1c146104f9578063861e5f661461050e5780638da5cb5b1461052e57600080fd5b806352d1902d146103d95780635669cbef146103ee57806357a86d3a1461040e5780636ac6d8121461042e5780636e9c931c1461044e57600080fd5b806339679ff41161021957806339679ff4146103265780633ac6ad7b1461034657806340ef28681461036657806348e43af4146103a65780634f1ef286146103c657600080fd5b8063081e3eda1461025657806313c6f76d1461027a5780631526fe271461029a5780632dbe051e146102d45780633659cfe614610304575b600080fd5b34801561026257600080fd5b5060cd545b6040519081526020015b60405180910390f35b34801561028657600080fd5b50610267610295366004614513565b6108cb565b3480156102a657600080fd5b506102ba6102b536600461453f565b6108f5565b6040516102719e9d9c9b9a999897969594939291906145a8565b3480156102e057600080fd5b506102f46102ef36600461453f565b610a4a565b6040519015158152602001610271565b34801561031057600080fd5b5061032461031f366004614666565b610a67565b005b34801561033257600080fd5b5061026761034136600461453f565b610b4f565b34801561035257600080fd5b506102f4610361366004614681565b610d6d565b34801561037257600080fd5b5061038661038136600461453f565b6111a9565b604080519485526020850193909352918301526060820152608001610271565b3480156103b257600080fd5b506102676103c1366004614513565b6111e2565b6103246103d4366004614742565b6112ce565b3480156103e557600080fd5b5061026761139e565b3480156103fa57600080fd5b506102f46104093660046147a4565b611451565b34801561041a57600080fd5b506103246104293660046147a4565b611572565b34801561043a57600080fd5b5061026761044936600461453f565b61164c565b34801561045a57600080fd5b506102f4610469366004614681565b611875565b34801561047a57600080fd5b5061048e610489366004614666565b611cbf565b60408051938452602084019290925290820152606001610271565b3480156104b557600080fd5b506102f46104c4366004614666565b60cf6020526000908152604090205460ff1681565b3480156104e557600080fd5b506102676104f43660046147c6565b611cf5565b34801561050557600080fd5b5061032461203a565b34801561051a57600080fd5b5061026761052936600461453f565b61214a565b34801561053a57600080fd5b506033546001600160a01b03165b6040516001600160a01b039091168152602001610271565b34801561056c57600080fd5b5061026761057b3660046147a4565b61238f565b34801561058c57600080fd5b506102f461059b3660046147a4565b61239b565b3480156105ac57600080fd5b506106066105bb366004614513565b60ce6020908152600092835260408084209091529082529020805460018201546002830154600384015460048501546005860154600690960154949593949293919290919060ff1687565b604080519788526020880196909652948601939093526060850191909152608084015260a0830152151560c082015260e001610271565b34801561064957600080fd5b506102f46106583660046147a4565b612480565b34801561066957600080fd5b506102f46106783660046147a4565b6125d7565b34801561068957600080fd5b5061054861069836600461453f565b6128cd565b3480156106a957600080fd5b506102676106b836600461453f565b6128f7565b3480156106c957600080fd5b506107076106d8366004614513565b600091825260ce602090815260408084206001600160a01b039093168452919052902080546001909101549091565b60408051928352602083019190915201610271565b34801561072857600080fd5b5061048e61073736600461453f565b612b17565b34801561074857600080fd5b5061070761075736600461453f565b612d4e565b34801561076857600080fd5b50610324612f7b565b34801561077d57600080fd5b506102f461078c36600461453f565b612ffb565b34801561079d57600080fd5b506102676107ac366004614666565b60cc6020526000908152604090205481565b3480156107ca57600080fd5b506103246107d9366004614838565b61303d565b3480156107ea57600080fd5b506102f46107f936600461487e565b6132c3565b34801561080a57600080fd5b5061026761081936600461453f565b61333a565b34801561082a57600080fd5b50610267610839366004614666565b60cb6020526000908152604090205481565b34801561085757600080fd5b506102f46108663660046148b6565b613558565b34801561087757600080fd5b506102f4610886366004614666565b613785565b34801561089757600080fd5b506103246108a6366004614666565b61384d565b3480156108b757600080fd5b506103246108c636600461453f565b6138dc565b600082815260ce602090815260408083206001600160a01b03851684529091529020545b92915050565b60cd818154811061090557600080fd5b60009182526020909120601090910201805460018201546002830180546001600160a01b038085169650600160a01b850460ff1695600160a81b90950461ffff16949316929190610955906148ed565b80601f0160208091040260200160405190810160405280929190818152602001828054610981906148ed565b80156109ce5780601f106109a3576101008083540402835291602001916109ce565b820191906000526020600020905b8154815290600101906020018083116109b157829003601f168201915b5050506003840154600485015460058601546006870154600788015460088901546040805160808101825260098c01548152600a8c01546020820152600b8c015491810191909152600c8b015460ff90811615156060830152600e8c0154600f909c01549a9b979a96995094975092959194909391909116908e565b6000610a546138f8565b610a5f826000613952565b505050919050565b6001600160a01b037f0000000000000000000000000000000000000000000000000000000000000000163003610ab85760405162461bcd60e51b8152600401610aaf90614927565b60405180910390fd5b7f00000000000000000000000000000000000000000000000000000000000000006001600160a01b0316610b01600080516020614ddf833981519152546001600160a01b031690565b6001600160a01b031614610b275760405162461bcd60e51b8152600401610aaf90614973565b610b3081613a89565b60408051600080825260208201909252610b4c91839190613a91565b50565b60008060cd8381548110610b6557610b656149bf565b6000918252602091829020604080516101e081018252601090930290910180546001600160a01b03808216855260ff600160a01b8304169585019590955261ffff600160a81b909104169183019190915260018101549092166060820152600282018054919291608084019190610bdb906148ed565b80601f0160208091040260200160405190810160405280929190818152602001828054610c07906148ed565b8015610c545780601f10610c2957610100808354040283529160200191610c54565b820191906000526020600020905b815481529060010190602001808311610c3757829003601f168201915b50505050508152602001600382015481526020016004820154815260200160058201548152602001600682015481526020016007820154815260200160088201548152602001600982016040518060800160405290816000820154815260200160018201548152602001600282015481526020016003820160009054906101000a900460ff1615151515815250508152602001600d8201805480602002602001604051908101604052809291908181526020018280548015610d3f57602002820191906000526020600020905b81546001600160a01b03168152600190910190602001808311610d21575b5050509183525050600e82015460ff1615156020820152600f9091015460409091015260c001519392505050565b6000610d776138f8565b600060cd8581548110610d8c57610d8c6149bf565b906000526020600020906010020190506000816005015490506000826003015482610db791906149eb565b9050818511610f3d57818503610e5457600d83015460005b81811015610e3657600085600d018281548110610dee57610dee6149bf565b60009182526020808320909101548c835260ce825260408084206001600160a01b03909216808552919092529120909150610e298b83613c01565b6000905550600101610dcf565b50600060058501819055610e4e90600d8601906143ab565b506110df565b600082610e636103e8886149fe565b610e6d9190614a15565b600d85015490915060005b81811015610f3557600086600d018281548110610e9757610e976149bf565b60009182526020808320909101548d835260ce825260408084206001600160a01b03909216808552919092529120909150610ed28c83613c01565b80546000906103e890610ee69088906149fe565b610ef09190614a15565b905080826000016000828254610f069190614a37565b9250508190555080896005016000828254610f219190614a37565b909155505060019093019250610e78915050565b5050506110df565b8185118015610f4f5750826003015485105b1561100a57600d83015460005b81811015610fc357600085600d018281548110610f7b57610f7b6149bf565b60009182526020808320909101548c835260ce825260408084206001600160a01b03909216808552919092529120909150610fb68b83613c01565b6000905550600101610f5c565b50600060058501819055610fdb90600d8601906143ab565b6000610fe78484614a37565b905080856003016000828254610ffd9190614a37565b909155506110df92505050565b8085036110a557600d83015460005b8181101561108057600085600d018281548110611038576110386149bf565b60009182526020808320909101548c835260ce825260408084206001600160a01b039092168085529190925291209091506110738b83613c01565b6000905550600101611019565b5060006005850181905561109890600d8601906143ab565b50600060038401556110df565b60405162461bcd60e51b815260206004820152600f60248201526e082dadeeadce840e8dede40d0d2ced608b1b6044820152606401610aaf565b60006127106110f06103e8886149fe565b6110fa9190614a15565b905060006111088288614a37565b85546001600160a01b0316600090815260cb60205260408120805492935084929091906111369084906149eb565b90915550508454611151906001600160a01b03168983613d6f565b5084546040518881526001600160a01b03918216918a169042907fc351e6e0f377ec1a399ec84224a83d6a4b9f3cd9a5530e5c652d0b11c2f8dae29060200160405180910390a46001955050505050505b9392505050565b6000806000806111b88561214a565b93506111c38561333a565b91506111ce856128f7565b92506111d985610b4f565b90509193509193565b60008060cd84815481106111f8576111f86149bf565b6000918252602080832087845260ce825260408085206001600160a01b0389168652909252908320601092909202016005810154600f82015491945091929081908103611245574261124b565b84600f01545b905083600201548111801561125f57508215155b156112c357600061127485600201548361238f565b865486549192506000916301e13380918491612710916112a091600160a81b90910461ffff16906149fe565b6112aa9190614a15565b6112b491906149fe565b6112be9190614a15565b935050505b509695505050505050565b6001600160a01b037f00000000000000000000000000000000000000000000000000000000000000001630036113165760405162461bcd60e51b8152600401610aaf90614927565b7f00000000000000000000000000000000000000000000000000000000000000006001600160a01b031661135f600080516020614ddf833981519152546001600160a01b031690565b6001600160a01b0316146113855760405162461bcd60e51b8152600401610aaf90614973565b61138e82613a89565b61139a82826001613a91565b5050565b6000306001600160a01b037f0000000000000000000000000000000000000000000000000000000000000000161461143e5760405162461bcd60e51b815260206004820152603860248201527f555550535570677261646561626c653a206d757374206e6f742062652063616c60448201527f6c6564207468726f7567682064656c656761746563616c6c00000000000000006064820152608401610aaf565b50600080516020614ddf83398151915290565b60008060cd8481548110611467576114676149bf565b9060005260206000209060100201905082816003015410156114cb5760405162461bcd60e51b815260206004820152601a60248201527f416d6f756e7420626967676572207468616e206465706f7369740000000000006044820152606401610aaf565b60018101546001600160a01b031633146114f75760405162461bcd60e51b8152600401610aaf90614a4a565b61150462093a80426149eb565b600982015561151662093a80426149eb565b611523906203f4806149eb565b600a820155600b8101839055600c8101805460ff19169055604051839085907fb3b9c925de3673837b40c6b4d4463a8f88dc821cd27e07f1ff6bf6abf96413a590600090a35060019392505050565b600060cd8381548110611587576115876149bf565b6000918252602090912060109091020160018101549091506001600160a01b031633146115c65760405162461bcd60e51b8152600401610aaf90614a4a565b6000816003015482600501546115dc91906149eb565b82549091506115f6906001600160a01b0316333086613ddf565b508282600301600082825461160b91906149eb565b909155505060038201546005830154600091611626916149eb565b9050808286600080516020614dbf83398151915260405160405180910390a45050505050565b60008060cd8381548110611662576116626149bf565b6000918252602091829020604080516101e081018252601090930290910180546001600160a01b03808216855260ff600160a01b8304169585019590955261ffff600160a81b9091041691830191909152600181015490921660608201526002820180549192916080840191906116d8906148ed565b80601f0160208091040260200160405190810160405280929190818152602001828054611704906148ed565b80156117515780601f1061172657610100808354040283529160200191611751565b820191906000526020600020905b81548152906001019060200180831161173457829003601f168201915b50505050508152602001600382015481526020016004820154815260200160058201548152602001600682015481526020016007820154815260200160088201548152602001600982016040518060800160405290816000820154815260200160018201548152602001600282015481526020016003820160009054906101000a900460ff1615151515815250508152602001600d820180548060200260200160405190810160405280929190818152602001828054801561183c57602002820191906000526020600020905b81546001600160a01b0316815260019091019060200180831161181e575b5050509183525050600e82015460ff1615156020820152600f9091015460409091015260a081015160e08201519192506111a2916149eb565b600061187f613e22565b83600060cd8281548110611895576118956149bf565b6000918252602091829020604080516101e081018252601090930290910180546001600160a01b03808216855260ff600160a01b8304169585019590955261ffff600160a81b90910416918301919091526001810154909216606082015260028201805491929160808401919061190b906148ed565b80601f0160208091040260200160405190810160405280929190818152602001828054611937906148ed565b80156119845780601f1061195957610100808354040283529160200191611984565b820191906000526020600020905b81548152906001019060200180831161196757829003601f168201915b50505050508152602001600382015481526020016004820154815260200160058201548152602001600682015481526020016007820154815260200160088201548152602001600982016040518060800160405290816000820154815260200160018201548152602001600282015481526020016003820160009054906101000a900460ff1615151515815250508152602001600d8201805480602002602001604051908101604052809291908181526020018280548015611a6f57602002820191906000526020600020905b81546001600160a01b03168152600190910190602001808311611a51575b5050509183525050600e82015460ff1615156020820152600f909101546040909101526101a0810151909150611ad95760405162461bcd60e51b815260206004820152600f60248201526e706f6f6c206e6f742061637469766560881b6044820152606401610aaf565b60008411611ae657600080fd5b600060cd8781548110611afb57611afb6149bf565b600091825260208083208a845260ce825260408085206001600160a01b038c1686529092529083206010929092020160038101546005820154919450919291611b43916149eb565b9050611b4f8989613c01565b8154600003611b8957600d83018054600181018255600091825260209091200180546001600160a01b0319166001600160a01b038a161790555b8254611ba0906001600160a01b031633308a613ddf565b5086826000016000828254611bb591906149eb565b9250508190555086836005016000828254611bd091906149eb565b9091555050600483015415801590611bf057508260040154836005015411155b611c325760405162461bcd60e51b8152602060048201526013602482015272115e18d959591959081c1bdbdb081b1a5b5a5d606a1b6044820152606401610aaf565b88886001600160a01b03167f1449c6dd7851abc30abf37f57715f492010519147cc2652fbc38202c18a6ee9089604051611c6e91815260200190565b60405180910390a3600083600301548460050154611c8c91906149eb565b905080828b600080516020614dbf83398151915260405160405180910390a4600196505050505050506111a2600160ca55565b6001600160a01b038116600090815260cb602090815260408083205460cc909252822054611ced82826149eb565b949193509150565b6000611cff6138f8565b6001600160a01b038416600090815260cf602052604090205460ff16611d5f5760405162461bcd60e51b81526020600482015260156024820152741d1bdad95b881b9bdd081dda1a5d195b1a5cdd1959605a1b6044820152606401610aaf565b60408051600481526024810182526020810180516001600160e01b031663313ce56760e01b17905290516000916001600160a01b03871691611da19190614a72565b600060405180830381855afa9150503d8060008114611ddc576040519150601f19603f3d011682016040523d82523d6000602084013e611de1565b606091505b50915050600081806020019051810190611dfb9190614a8e565b9050611e056143c9565b6001600160a01b03808816825260ff80841660208085019182528984166060808701918252608087018b8152600060a089018190526040808a0182815260c08b0183905260e08b018390526101608b0180518490528051909701839052865190910182905294519092018290526101a088018290526101c0880182905260cd80546001810182559252875160109092027f83978b4c69c48dd978ab43fe30f077615294f938fb7f936d9eb340e51ea7db2e810180549651955161ffff16600160a81b0261ffff60a81b1996909816600160a01b026001600160a81b0319909716938916939093179590951793909316949094178455517f83978b4c69c48dd978ab43fe30f077615294f938fb7f936d9eb340e51ea7db2f83018054919095166001600160a01b03199190911617909355915183927f83978b4c69c48dd978ab43fe30f077615294f938fb7f936d9eb340e51ea7db300190611f669082614aff565b5060a0820151600382015560c0820151600482015560e0820151600582015561010082015160068201556101208201516007820155610140820151600882015561016082015180516009830155602080820151600a8401556040820151600b840155606090910151600c8301805460ff19169115159190911790556101808301518051611ff992600d8501920190614482565b506101a0820151600e8201805460ff19169115159190911790556101c090910151600f9091015560cd5461202f90600190614a37565b979650505050505050565b600054610100900460ff161580801561205a5750600054600160ff909116105b806120745750303b158015612074575060005460ff166001145b6120d75760405162461bcd60e51b815260206004820152602e60248201527f496e697469616c697a61626c653a20636f6e747261637420697320616c72656160448201526d191e481a5b9a5d1a585b1a5e995960921b6064820152608401610aaf565b6000805460ff1916600117905580156120fa576000805461ff0019166101001790555b612102613e7b565b8015610b4c576000805461ff0019169055604051600181527f7f26b83ff96e1f2b6a682f133852f6798a09c465da95921460cefb38474024989060200160405180910390a150565b60008060cd8381548110612160576121606149bf565b6000918252602091829020604080516101e081018252601090930290910180546001600160a01b03808216855260ff600160a01b8304169585019590955261ffff600160a81b9091041691830191909152600181015490921660608201526002820180549192916080840191906121d6906148ed565b80601f0160208091040260200160405190810160405280929190818152602001828054612202906148ed565b801561224f5780601f106122245761010080835404028352916020019161224f565b820191906000526020600020905b81548152906001019060200180831161223257829003601f168201915b50505050508152602001600382015481526020016004820154815260200160058201548152602001600682015481526020016007820154815260200160088201548152602001600982016040518060800160405290816000820154815260200160018201548152602001600282015481526020016003820160009054906101000a900460ff1615151515815250508152602001600d820180548060200260200160405190810160405280929190818152602001828054801561233a57602002820191906000526020600020905b81546001600160a01b0316815260019091019060200180831161231c575b5050509183525050600e82015460ff1615156020820152600f9091015460409091015260a081015160e0820151919250612710916103e89161237b916149eb565b61238591906149fe565b6111a29190614a15565b60006111a28284613eaa565b600082815260ce60209081526040808320338452909152812080548311156124055760405162461bcd60e51b815260206004820152601a60248201527f416d6f756e7420626967676572207468616e206465706f7369740000000000006044820152606401610aaf565b61241262093a80426149eb565b600382015561242462093a80426149eb565b612431906203f4806149eb565b60048201556005810183905560068101805460ff19169055604051839085907fb3b9c925de3673837b40c6b4d4463a8f88dc821cd27e07f1ff6bf6abf96413a590600090a35060019392505050565b60008060cd8481548110612496576124966149bf565b6000918252602090912060109091020160018101549091506001600160a01b031633146124d55760405162461bcd60e51b8152600401610aaf90614a4a565b6009810154421180156124eb5750600a81015442105b80156124fc5750600c81015460ff16155b801561250c5750600b8101548311155b801561251b5750600981015415155b6125375760405162461bcd60e51b8152600401610aaf90614bbf565b600c8101805460ff191660011790556003810154600582015460009161255c916149eb565b9050838260030160008282546125729190614a37565b909155505060018201548254612595916001600160a01b03918216911686613d6f565b506000826003015483600501546125ac91906149eb565b9050808287600080516020614dbf83398151915260405160405180910390a450600195945050505050565b60006125e1613e22565b600060cd84815481106125f6576125f66149bf565b6000918252602080832087845260ce8252604080852033865290925292208054601090920290920192508411156126645760405162461bcd60e51b81526020600482015260126024820152711dda5d1a191c985dce881b9bdd0819dbdbd960721b6044820152606401610aaf565b42816003015410801561267a5750428160040154115b801561268b5750600681015460ff16155b801561269b575083816005015410155b80156126aa5750600381015415155b6126c65760405162461bcd60e51b8152600401610aaf90614bbf565b60068101805460ff19166001179055600382015460058301546000916126eb916149eb565b90506126f78633613c01565b84156127375781546127099086613eaa565b8255600583015461271a9086613eaa565b60058401558254612735906001600160a01b03163387613d6f565b505b815460000361284f57600d83015460005b8181101561284c57336001600160a01b031685600d01828154811061276f5761276f6149bf565b6000918252602090912001546001600160a01b031603612844576000600d860161279a600185614a37565b815481106127aa576127aa6149bf565b600091825260209091200154600d870180546001600160a01b0390921692508291849081106127db576127db6149bf565b9060005260206000200160006101000a8154816001600160a01b0302191690836001600160a01b0316021790555085600d0180548061281c5761281c614c08565b600082815260209020810160001990810180546001600160a01b03191690550190555061284c565b600101612748565b50505b604051858152869033907f7fc4727e062e336010f2c282598ef5f14facb3de68cf8195c2f23e1454b2b74e9060200160405180910390a360008360030154846005015461289c91906149eb565b9050808288600080516020614dbf83398151915260405160405180910390a460019450505050506108ef600160ca55565b60d081815481106128dd57600080fd5b6000918252602090912001546001600160a01b0316905081565b60008060cd838154811061290d5761290d6149bf565b6000918252602091829020604080516101e081018252601090930290910180546001600160a01b03808216855260ff600160a01b8304169585019590955261ffff600160a81b909104169183019190915260018101549092166060820152600282018054919291608084019190612983906148ed565b80601f01602080910402602001604051908101604052809291908181526020018280546129af906148ed565b80156129fc5780601f106129d1576101008083540402835291602001916129fc565b820191906000526020600020905b8154815290600101906020018083116129df57829003601f168201915b50505050508152602001600382015481526020016004820154815260200160058201548152602001600682015481526020016007820154815260200160088201548152602001600982016040518060800160405290816000820154815260200160018201548152602001600282015481526020016003820160009054906101000a900460ff1615151515815250508152602001600d8201805480602002602001604051908101604052809291908181526020018280548015612ae757602002820191906000526020600020905b81546001600160a01b03168152600190910190602001808311612ac9575b5050509183525050600e82015460ff1615156020820152600f90910154604091820152015161ffff169392505050565b60008060008060cd8581548110612b3057612b306149bf565b6000918252602091829020604080516101e081018252601090930290910180546001600160a01b03808216855260ff600160a01b8304169585019590955261ffff600160a81b909104169183019190915260018101549092166060820152600282018054919291608084019190612ba6906148ed565b80601f0160208091040260200160405190810160405280929190818152602001828054612bd2906148ed565b8015612c1f5780601f10612bf457610100808354040283529160200191612c1f565b820191906000526020600020905b815481529060010190602001808311612c0257829003601f168201915b50505050508152602001600382015481526020016004820154815260200160058201548152602001600682015481526020016007820154815260200160088201548152602001600982016040518060800160405290816000820154815260200160018201548152602001600282015481526020016003820160009054906101000a900460ff1615151515815250508152602001600d8201805480602002602001604051908101604052809291908181526020018280548015612d0a57602002820191906000526020600020905b81546001600160a01b03168152600190910190602001808311612cec575b5050509183525050600e82015460ff161515602080830191909152600f90920154604091820152610160909201518051918101519201519097919650945092505050565b600080600060cd8481548110612d6657612d666149bf565b6000918252602091829020604080516101e081018252601090930290910180546001600160a01b03808216855260ff600160a01b8304169585019590955261ffff600160a81b909104169183019190915260018101549092166060820152600282018054919291608084019190612ddc906148ed565b80601f0160208091040260200160405190810160405280929190818152602001828054612e08906148ed565b8015612e555780601f10612e2a57610100808354040283529160200191612e55565b820191906000526020600020905b815481529060010190602001808311612e3857829003601f168201915b50505050508152602001600382015481526020016004820154815260200160058201548152602001600682015481526020016007820154815260200160088201548152602001600982016040518060800160405290816000820154815260200160018201548152602001600282015481526020016003820160009054906101000a900460ff1615151515815250508152602001600d8201805480602002602001604051908101604052809291908181526020018280548015612f4057602002820191906000526020600020905b81546001600160a01b03168152600190910190602001808311612f22575b5050509183525050600e82015460ff1615156020820152600f9091015460409091015261010081015161012090910151909590945092505050565b6034546001600160a01b03163314612fe45760405162461bcd60e51b815260206004820152602660248201527f6f6e6c792070656e64696e67206f776e65722063616e2061636365707420747260448201526530b739b332b960d11b6064820152608401610aaf565b603454612ff9906001600160a01b0316613eb6565b565b60008060cd8381548110613011576130116149bf565b60009182526020909120601090910201600e8101805460ff1916905542600f9091015550600192915050565b600060cd8581548110613052576130526149bf565b60009182526020909120601090910201600e81015490915060ff16156130ba5760405162461bcd60e51b815260206004820152601860248201527f506f6f6c20616c726561647920696e697469616c697a656400000000000000006044820152606401610aaf565b60008361ffff161180156130d457506127108361ffff1611155b6131135760405162461bcd60e51b815260206004820152601060248201526f415059206f7574206f662072616e676560801b6044820152606401610aaf565b805461312a90600160a01b900460ff16600a614d02565b6131359060646149fe565b84101580156131675750805461315690600160a01b900460ff16600a614d02565b61316390629896806149fe565b8411155b6131ab5760405162461bcd60e51b8152602060048201526015602482015274506f6f6c20636170206f7574206f662072616e676560581b6044820152606401610aaf565b60018101546001600160a01b031633146131d75760405162461bcd60e51b8152600401610aaf90614a4a565b60006301e1338061271062093a806131f361ffff8816896149fe565b6131fd91906149fe565b6132079190614a15565b6132119190614a15565b905060006127106132246103e8846149fe565b61322e9190614a15565b9050613252333061323f85886149eb565b86546001600160a01b0316929190613ddf565b508383600301600082825461326791906149eb565b909155505060048301869055825461ffff60a81b1916600160a81b61ffff871602178355600e8301805460ff1916600117905560078301829055600683018290556132b28183614a37565b836008018190555050505050505050565b60006132cd6138f8565b6001600160a01b038316600090815260cc602090815260408083205460cb9092528220546132fb91906149eb565b6001600160a01b038516600081815260cb6020908152604080832083905560cc90915281205590915061332f908483613d6f565b506001949350505050565b60008060cd8381548110613350576133506149bf565b6000918252602091829020604080516101e081018252601090930290910180546001600160a01b03808216855260ff600160a01b8304169585019590955261ffff600160a81b9091041691830191909152600181015490921660608201526002820180549192916080840191906133c6906148ed565b80601f01602080910402602001604051908101604052809291908181526020018280546133f2906148ed565b801561343f5780601f106134145761010080835404028352916020019161343f565b820191906000526020600020905b81548152906001019060200180831161342257829003601f168201915b50505050508152602001600382015481526020016004820154815260200160058201548152602001600682015481526020016007820154815260200160088201548152602001600982016040518060800160405290816000820154815260200160018201548152602001600282015481526020016003820160009054906101000a900460ff1615151515815250508152602001600d820180548060200260200160405190810160405280929190818152602001828054801561352a57602002820191906000526020600020905b81546001600160a01b0316815260019091019060200180831161350c575b5050509183525050600e82015460ff1615156020820152600f9091015460409091015260e001519392505050565b60006135626138f8565b6001600160a01b038316600090815260cf602052604090205460ff1615158215146135c75760405162461bcd60e51b81526020600482015260156024820152741dda1a5d195b1a5cdd08185b1c9958591e481cd95d605a1b6044820152606401610aaf565b6001600160a01b038316600081815260cf6020526040808220805460ff191686151590811790915590519092917f99795d51e5a8804307721456a7a9c2f0d7421f719d46a46d36e91fee7c85aa7691a3811561366d5760d080546001810182556000919091527fe89d44c8fd6a9bac8af33ce47f56337617d449bf7ff3956b618c646de829cbcb0180546001600160a01b0319166001600160a01b03851617905561377c565b60d05460005b8181101561377957600060d08281548110613690576136906149bf565b6000918252602090912001546001600160a01b039081169150861681036137685760d06136be600185614a37565b815481106136ce576136ce6149bf565b60009182526020909120015460d080546001600160a01b0390921691849081106136fa576136fa6149bf565b9060005260206000200160006101000a8154816001600160a01b0302191690836001600160a01b0316021790555060d080548061373957613739614c08565b600082815260209020810160001990810180546001600160a01b031916905501905550600192506108ef915050565b5061377281614d11565b9050613673565b50505b50600192915050565b600061378f6138f8565b60d05460005b8181101561384157600060d082815481106137b2576137b26149bf565b60009182526020808320909101546001600160a01b031680835260cc825260408084205460cb9093528320549093506137eb91906149eb565b9050806000036137fc575050613831565b6001600160a01b038216600081815260cb6020908152604080832083905560cc90915281205561382d908783613d6f565b5050505b61383a81614d11565b9050613795565b5060019150505b919050565b6138556138f8565b6001600160a01b0381166138ba5760405162461bcd60e51b815260206004820152602660248201527f4f776e61626c653a206e6577206f776e657220697320746865207a65726f206160448201526564647265737360d01b6064820152608401610aaf565b603480546001600160a01b0319166001600160a01b0392909216919091179055565b6138e4613e22565b6138ee8133613c01565b610b4c600160ca55565b6033546001600160a01b03163314612ff95760405162461bcd60e51b815260206004820181905260248201527f4f776e61626c653a2063616c6c6572206973206e6f7420746865206f776e65726044820152606401610aaf565b60008060008060cd868154811061396b5761396b6149bf565b90600052602060002090601002019050600085826007015483600601546139929190614a37565b61399c91906149eb565b600183015483549192506139be916001600160a01b0390811691163084613ddf565b5060006127106139d06103e8846149fe565b6139da9190614a15565b9050818360070160008282546139f091906149eb565b909155505082546001600160a01b0316600090815260cc602052604081208054839290613a1e9084906149eb565b9091555060009050613a308284614a37565b905080846008016000828254613a4691906149eb565b909155505060405183908a907fadb049ad2d09be3db90459a16aef1ad0a4d89e8fdcc1ade9429d6cc55abbcd2b90600090a3600199929850965090945050505050565b610b4c6138f8565b7f4910fdfa16fed3260ed0e7147f7cc6da11a60208b5b9406d12a635614ffd91435460ff1615613ac957613ac483613f13565b505050565b826001600160a01b03166352d1902d6040518163ffffffff1660e01b8152600401602060405180830381865afa925050508015613b23575060408051601f3d908101601f19168201909252613b2091810190614d2a565b60015b613b865760405162461bcd60e51b815260206004820152602e60248201527f45524331393637557067726164653a206e657720696d706c656d656e7461746960448201526d6f6e206973206e6f74205555505360901b6064820152608401610aaf565b600080516020614ddf8339815191528114613bf55760405162461bcd60e51b815260206004820152602960248201527f45524331393637557067726164653a20756e737570706f727465642070726f786044820152681a58589b195555525160ba1b6064820152608401610aaf565b50613ac4838383613faf565b600060cd8381548110613c1657613c166149bf565b6000918252602080832086845260ce825260408085206001600160a01b03881686529092529083208054601090930290910193509103613c5c5742600290910155505050565b6000613c6885856111e2565b90508260080154811115613ce6576000613c828683613952565b9093509150508115613ce0578354613ca4906001600160a01b03168683613d6f565b5081846007016000828254613cb99190614a37565b9250508190555080846008016000828254613cd49190614a37565b90915550504260028401555b50613d68565b8015613d685780836007016000828254613d009190614a37565b9091555060009050612710613d176103e8846149fe565b613d219190614a15565b9050613d2d8183614a37565b8454909250613d46906001600160a01b03168684613d6f565b5081846008016000828254613d5b9190614a37565b9091555050426002840155505b5050505050565b6040516001600160a01b038316602482015260448101829052600090613dd590859063a9059cbb60e01b906064015b60408051601f198184030181529190526020810180516001600160e01b03166001600160e01b031990931692909217909152613fda565b5060019392505050565b6040516001600160a01b038085166024830152831660448201526064810182905260009061332f9086906323b872dd60e01b90608401613d9e565b949350505050565b600260ca5403613e745760405162461bcd60e51b815260206004820152601f60248201527f5265656e7472616e637947756172643a207265656e7472616e742063616c6c006044820152606401610aaf565b600260ca55565b600054610100900460ff16613ea25760405162461bcd60e51b8152600401610aaf90614d43565b612ff96140ac565b60006111a28284614a37565b603380546001600160a01b038381166001600160a01b03198084168217909455603480549094169093556040519116919082907f8be0079c531659141344cd1fd0a4f28419497f9722a3daafe3b4186f6b6457e090600090a35050565b6001600160a01b0381163b613f805760405162461bcd60e51b815260206004820152602d60248201527f455243313936373a206e657720696d706c656d656e746174696f6e206973206e60448201526c1bdd08184818dbdb9d1c9858dd609a1b6064820152608401610aaf565b600080516020614ddf83398151915280546001600160a01b0319166001600160a01b0392909216919091179055565b613fb8836140dc565b600082511180613fc55750805b15613ac457613fd4838361411c565b50505050565b600061402f826040518060400160405280602081526020017f5361666545524332303a206c6f772d6c6576656c2063616c6c206661696c6564815250856001600160a01b03166142109092919063ffffffff16565b805190915015613ac4578080602001905181019061404d9190614d8e565b613ac45760405162461bcd60e51b815260206004820152602a60248201527f5361666545524332303a204552433230206f7065726174696f6e20646964206e6044820152691bdd081cdd58d8d9595960b21b6064820152608401610aaf565b600054610100900460ff166140d35760405162461bcd60e51b8152600401610aaf90614d43565b612ff933613eb6565b6140e581613f13565b6040516001600160a01b038216907fbc7cd75a20ee27fd9adebab32041f755214dbc6bffa90cc0225b39da2e5c2d3b90600090a250565b60606001600160a01b0383163b6141845760405162461bcd60e51b815260206004820152602660248201527f416464726573733a2064656c65676174652063616c6c20746f206e6f6e2d636f6044820152651b9d1c9858dd60d21b6064820152608401610aaf565b600080846001600160a01b03168460405161419f9190614a72565b600060405180830381855af49150503d80600081146141da576040519150601f19603f3d011682016040523d82523d6000602084013e6141df565b606091505b50915091506142078282604051806060016040528060278152602001614dff6027913961421f565b95945050505050565b6060613e1a8484600085614238565b6060831561422e5750816111a2565b6111a28383614308565b6060824710156142995760405162461bcd60e51b815260206004820152602660248201527f416464726573733a20696e73756666696369656e742062616c616e636520666f6044820152651c8818d85b1b60d21b6064820152608401610aaf565b600080866001600160a01b031685876040516142b59190614a72565b60006040518083038185875af1925050503d80600081146142f2576040519150601f19603f3d011682016040523d82523d6000602084013e6142f7565b606091505b509150915061202f87838387614332565b8151156143185781518083602001fd5b8060405162461bcd60e51b8152600401610aaf9190614dab565b606083156143a157825160000361439a576001600160a01b0385163b61439a5760405162461bcd60e51b815260206004820152601d60248201527f416464726573733a2063616c6c20746f206e6f6e2d636f6e74726163740000006044820152606401610aaf565b5081613e1a565b613e1a8383614308565b5080546000825590600052602060002090810190610b4c91906144e7565b604051806101e0016040528060006001600160a01b03168152602001600060ff168152602001600061ffff16815260200160006001600160a01b031681526020016060815260200160008152602001600081526020016000815260200160008152602001600081526020016000815260200161446860405180608001604052806000815260200160008152602001600081526020016000151581525090565b815260606020820181905260006040830181905291015290565b8280548282559060005260206000209081019282156144d7579160200282015b828111156144d757825182546001600160a01b0319166001600160a01b039091161782556020909201916001909101906144a2565b506144e39291506144e7565b5090565b5b808211156144e357600081556001016144e8565b80356001600160a01b038116811461384857600080fd5b6000806040838503121561452657600080fd5b82359150614536602084016144fc565b90509250929050565b60006020828403121561455157600080fd5b5035919050565b60005b8381101561457357818101518382015260200161455b565b50506000910152565b60008151808452614594816020860160208601614558565b601f01601f19169290920160200192915050565b6001600160a01b038f16815260ff8e16602082015261ffff8d1660408201526001600160a01b038c166060820152610220608082015260006145ee61022083018d61457c565b90508a60a08301528960c08301528860e08301528761010083015286610120830152856101408301526146486101608301868051825260208101516020830152604081015160408301526060810151151560608301525050565b9215156101e082015261020001529c9b505050505050505050505050565b60006020828403121561467857600080fd5b6111a2826144fc565b60008060006060848603121561469657600080fd5b833592506146a6602085016144fc565b9150604084013590509250925092565b634e487b7160e01b600052604160045260246000fd5b600067ffffffffffffffff808411156146e7576146e76146b6565b604051601f8501601f19908116603f0116810190828211818310171561470f5761470f6146b6565b8160405280935085815286868601111561472857600080fd5b858560208301376000602087830101525050509392505050565b6000806040838503121561475557600080fd5b61475e836144fc565b9150602083013567ffffffffffffffff81111561477a57600080fd5b8301601f8101851361478b57600080fd5b61479a858235602084016146cc565b9150509250929050565b600080604083850312156147b757600080fd5b50508035926020909101359150565b6000806000606084860312156147db57600080fd5b6147e4846144fc565b92506147f2602085016144fc565b9150604084013567ffffffffffffffff81111561480e57600080fd5b8401601f8101861361481f57600080fd5b61482e868235602084016146cc565b9150509250925092565b6000806000806080858703121561484e57600080fd5b8435935060208501359250604085013561ffff8116811461486e57600080fd5b9396929550929360600135925050565b6000806040838503121561489157600080fd5b61489a836144fc565b9150614536602084016144fc565b8015158114610b4c57600080fd5b600080604083850312156148c957600080fd5b6148d2836144fc565b915060208301356148e2816148a8565b809150509250929050565b600181811c9082168061490157607f821691505b60208210810361492157634e487b7160e01b600052602260045260246000fd5b50919050565b6020808252602c908201527f46756e6374696f6e206d7573742062652063616c6c6564207468726f7567682060408201526b19195b1959d85d1958d85b1b60a21b606082015260800190565b6020808252602c908201527f46756e6374696f6e206d7573742062652063616c6c6564207468726f7567682060408201526b6163746976652070726f787960a01b606082015260800190565b634e487b7160e01b600052603260045260246000fd5b634e487b7160e01b600052601160045260246000fd5b808201808211156108ef576108ef6149d5565b80820281158282048414176108ef576108ef6149d5565b600082614a3257634e487b7160e01b600052601260045260246000fd5b500490565b818103818111156108ef576108ef6149d5565b6020808252600e908201526d139bdd08185d5d1a1bdc9a5e995960921b604082015260600190565b60008251614a84818460208701614558565b9190910192915050565b600060208284031215614aa057600080fd5b815160ff811681146111a257600080fd5b601f821115613ac457600081815260208120601f850160051c81016020861015614ad85750805b601f850160051c820191505b81811015614af757828155600101614ae4565b505050505050565b815167ffffffffffffffff811115614b1957614b196146b6565b614b2d81614b2784546148ed565b84614ab1565b602080601f831160018114614b625760008415614b4a5750858301515b600019600386901b1c1916600185901b178555614af7565b600085815260208120601f198616915b82811015614b9157888601518255948401946001909101908401614b72565b5085821015614baf5787850151600019600388901b60f8161c191681555b5050505050600190811b01905550565b60208082526029908201527f54696d656c6f636b206e6f7420736574206f72206e6f7420636f6d706c6574656040820152686420696e2074696d6560b81b606082015260800190565b634e487b7160e01b600052603160045260246000fd5b600181815b80851115614c59578160001904821115614c3f57614c3f6149d5565b80851615614c4c57918102915b93841c9390800290614c23565b509250929050565b600082614c70575060016108ef565b81614c7d575060006108ef565b8160018114614c935760028114614c9d57614cb9565b60019150506108ef565b60ff841115614cae57614cae6149d5565b50506001821b6108ef565b5060208310610133831016604e8410600b8410161715614cdc575081810a6108ef565b614ce68383614c1e565b8060001904821115614cfa57614cfa6149d5565b029392505050565b60006111a260ff841683614c61565b600060018201614d2357614d236149d5565b5060010190565b600060208284031215614d3c57600080fd5b5051919050565b6020808252602b908201527f496e697469616c697a61626c653a20636f6e7472616374206973206e6f74206960408201526a6e697469616c697a696e6760a81b606082015260800190565b600060208284031215614da057600080fd5b81516111a2816148a8565b6020815260006111a2602083018461457c56fea3ea4fb8dee4d414198cb197af6eae4fe483c1a0b849dc50e53b9bf1a60e2166360894a13ba1a3210667c828492db98dca3e2076cc3735a920a3ca505d382bbc416464726573733a206c6f772d6c6576656c2064656c65676174652063616c6c206661696c6564a2646970667358221220dfd8a0eac5f239f285d0907c03a0b25b8a7fa7a7abbe2b8d9310f7c4dcbc6da864736f6c63430008110033",
    "linkReferences": {}
  },
  "methodIdentifiers": {
    "acceptOwnershipTransfer()": "b842e87f",
    "activeTokens(uint256)": "9f224f35",
    "addNewBountyPool(address,address,string)": "804fd590",
    "billPremium(uint256)": "2dbe051e",
    "claimPremium(uint256)": "f47ec3be",
    "collectAllSaloonProfits(address)": "ecd7fbed",
    "collectSaloonProfits(address,address)": "cf9564b9",
    "getMultiplier(uint256,uint256)": "8dbb1e3a",
    "initialize()": "8129fc1c",
    "makeProjectDeposit(uint256,uint256)": "57a86d3a",
    "owner()": "8da5cb5b",
    "payBounty(uint256,address,uint256)": "3ac6ad7b",
    "pendingToken(uint256,address)": "48e43af4",
    "poolInfo(uint256)": "1526fe27",
    "poolLength()": "081e3eda",
    "projectDepositWithdrawal(uint256,uint256)": "983c1ce0",
    "proxiableUUID()": "52d1902d",
    "saloonBountyProfit(address)": "e45abd0f",
    "saloonPremiumProfit(address)": "ca006148",
    "scheduleProjectDepositWithdrawal(uint256,uint256)": "5669cbef",
    "scheduleUnstake(uint256,uint256)": "91635b4e",
    "setAPYandPoolCapAndDeposit(uint256,uint256,uint16,uint256)": "cee6b069",
    "stake(uint256,address,uint256)": "6e9c931c",
    "tokenWhitelist(address)": "753d7563",
    "transferOwnership(address)": "f2fde38b",
    "unstake(uint256,uint256)": "9e2c8a5b",
    "updateTokenWhitelist(address,bool)": "e5e97c65",
    "upgradeTo(address)": "3659cfe6",
    "upgradeToAndCall(address,bytes)": "4f1ef286",
    "userInfo(uint256,address)": "93f1a40b",
    "viewBountyBalance(uint256)": "6ac6d812",
    "viewBountyInfo(uint256)": "40ef2868",
    "viewHackerPayout(uint256)": "861e5f66",
    "viewPoolAPY(uint256)": "a27f9213",
    "viewPoolCap(uint256)": "39679ff4",
    "viewPoolPremiumInfo(uint256)": "b1a2d16f",
    "viewPoolTimelockInfo(uint256)": "ac30b856",
    "viewSaloonProfitBalance(address)": "718c7eef",
    "viewStake(uint256,address)": "13c6f76d",
    "viewTotalStaked(uint256)": "dbdd6957",
    "viewUserInfo(uint256,address)": "a754ecb0",
    "windDownBounty(uint256)": "bb7019c1"
  },
  "id": 28
}