{
  "abi": [
    {
      "inputs": [
        {
          "internalType": "UD60x18",
          "name": "x",
          "type": "uint256"
        }
      ],
      "name": "PRBMathUD60x18__LogInputTooSmall",
      "type": "error"
    },
    {
      "inputs": [
        {
          "internalType": "uint256",
          "name": "x",
          "type": "uint256"
        }
      ],
      "name": "PRBMathUD60x18__ToUD60x18Overflow",
      "type": "error"
    },
    {
      "inputs": [
        {
          "internalType": "uint256",
          "name": "x",
          "type": "uint256"
        },
        {
          "internalType": "uint256",
          "name": "y",
          "type": "uint256"
        }
      ],
      "name": "PRBMath__MulDiv18Overflow",
      "type": "error"
    },
    {
      "inputs": [
        {
          "internalType": "uint256",
          "name": "x",
          "type": "uint256"
        },
        {
          "internalType": "uint256",
          "name": "y",
          "type": "uint256"
        },
        {
          "internalType": "uint256",
          "name": "denominator",
          "type": "uint256"
        }
      ],
      "name": "PRBMath__MulDivOverflow",
      "type": "error"
    },
    {
      "anonymous": false,
      "inputs": [
        {
          "indexed": false,
          "internalType": "address",
          "name": "previousAdmin",
          "type": "address"
        },
        {
          "indexed": false,
          "internalType": "address",
          "name": "newAdmin",
          "type": "address"
        }
      ],
      "name": "AdminChanged",
      "type": "event"
    },
    {
      "anonymous": false,
      "inputs": [
        {
          "indexed": true,
          "internalType": "address",
          "name": "owner",
          "type": "address"
        },
        {
          "indexed": true,
          "internalType": "address",
          "name": "approved",
          "type": "address"
        },
        {
          "indexed": true,
          "internalType": "uint256",
          "name": "tokenId",
          "type": "uint256"
        }
      ],
      "name": "Approval",
      "type": "event"
    },
    {
      "anonymous": false,
      "inputs": [
        {
          "indexed": true,
          "internalType": "address",
          "name": "owner",
          "type": "address"
        },
        {
          "indexed": true,
          "internalType": "address",
          "name": "operator",
          "type": "address"
        },
        {
          "indexed": false,
          "internalType": "bool",
          "name": "approved",
          "type": "bool"
        }
      ],
      "name": "ApprovalForAll",
      "type": "event"
    },
    {
      "anonymous": false,
      "inputs": [
        {
          "indexed": true,
          "internalType": "address",
          "name": "beacon",
          "type": "address"
        }
      ],
      "name": "BeaconUpgraded",
      "type": "event"
    },
    {
      "anonymous": false,
      "inputs": [
        {
          "indexed": true,
          "internalType": "uint256",
          "name": "pid",
          "type": "uint256"
        },
        {
          "indexed": true,
          "internalType": "uint256",
          "name": "oldAmount",
          "type": "uint256"
        },
        {
          "indexed": true,
          "internalType": "uint256",
          "name": "newAmount",
          "type": "uint256"
        }
      ],
      "name": "BountyBalanceChanged",
      "type": "event"
    },
    {
      "anonymous": false,
      "inputs": [
        {
          "indexed": true,
          "internalType": "uint256",
          "name": "time",
          "type": "uint256"
        },
        {
          "indexed": true,
          "internalType": "address",
          "name": "hunter",
          "type": "address"
        },
        {
          "indexed": true,
          "internalType": "address",
          "name": "token",
          "type": "address"
        },
        {
          "indexed": false,
          "internalType": "uint256",
          "name": "amount",
          "type": "uint256"
        }
      ],
      "name": "BountyPaid",
      "type": "event"
    },
    {
      "anonymous": false,
      "inputs": [
        {
          "indexed": false,
          "internalType": "uint8",
          "name": "version",
          "type": "uint8"
        }
      ],
      "name": "Initialized",
      "type": "event"
    },
    {
      "anonymous": false,
      "inputs": [
        {
          "indexed": true,
          "internalType": "uint256",
          "name": "pid",
          "type": "uint256"
        },
        {
          "indexed": true,
          "internalType": "address",
          "name": "token",
          "type": "address"
        },
        {
          "indexed": true,
          "internalType": "uint256",
          "name": "tokenDecimals",
          "type": "uint256"
        }
      ],
      "name": "NewBountyDeployed",
      "type": "event"
    },
    {
      "anonymous": false,
      "inputs": [
        {
          "indexed": true,
          "internalType": "address",
          "name": "previousOwner",
          "type": "address"
        },
        {
          "indexed": true,
          "internalType": "address",
          "name": "newOwner",
          "type": "address"
        }
      ],
      "name": "OwnershipTransferred",
      "type": "event"
    },
    {
      "anonymous": false,
      "inputs": [
        {
          "indexed": true,
          "internalType": "uint256",
          "name": "pid",
          "type": "uint256"
        },
        {
          "indexed": true,
          "internalType": "uint256",
          "name": "amount",
          "type": "uint256"
        }
      ],
      "name": "PremiumBilled",
      "type": "event"
    },
    {
      "anonymous": false,
      "inputs": [
        {
          "indexed": true,
          "internalType": "address",
          "name": "user",
          "type": "address"
        },
        {
          "indexed": true,
          "internalType": "uint256",
          "name": "pid",
          "type": "uint256"
        },
        {
          "indexed": false,
          "internalType": "uint256",
          "name": "amount",
          "type": "uint256"
        }
      ],
      "name": "Staked",
      "type": "event"
    },
    {
      "anonymous": false,
      "inputs": [
        {
          "indexed": true,
          "internalType": "address",
          "name": "from",
          "type": "address"
        },
        {
          "indexed": true,
          "internalType": "address",
          "name": "to",
          "type": "address"
        },
        {
          "indexed": true,
          "internalType": "uint256",
          "name": "tokenId",
          "type": "uint256"
        }
      ],
      "name": "Transfer",
      "type": "event"
    },
    {
      "anonymous": false,
      "inputs": [
        {
          "indexed": true,
          "internalType": "address",
          "name": "user",
          "type": "address"
        },
        {
          "indexed": true,
          "internalType": "uint256",
          "name": "pid",
          "type": "uint256"
        },
        {
          "indexed": false,
          "internalType": "uint256",
          "name": "amount",
          "type": "uint256"
        }
      ],
      "name": "Unstaked",
      "type": "event"
    },
    {
      "anonymous": false,
      "inputs": [
        {
          "indexed": true,
          "internalType": "address",
          "name": "implementation",
          "type": "address"
        }
      ],
      "name": "Upgraded",
      "type": "event"
    },
    {
      "anonymous": false,
      "inputs": [
        {
          "indexed": true,
          "internalType": "uint256",
          "name": "pid",
          "type": "uint256"
        },
        {
          "indexed": true,
          "internalType": "uint256",
          "name": "amount",
          "type": "uint256"
        }
      ],
      "name": "WithdrawalOrUnstakeScheduled",
      "type": "event"
    },
    {
      "anonymous": false,
      "inputs": [
        {
          "indexed": true,
          "internalType": "address",
          "name": "token",
          "type": "address"
        },
        {
          "indexed": true,
          "internalType": "bool",
          "name": "whitelisted",
          "type": "bool"
        }
      ],
      "name": "tokenWhitelistUpdated",
      "type": "event"
    },
    {
      "inputs": [],
      "name": "acceptOwnershipTransfer",
      "outputs": [],
      "stateMutability": "nonpayable",
      "type": "function"
    },
    {
      "inputs": [
        {
          "internalType": "uint256",
          "name": "",
          "type": "uint256"
        }
      ],
      "name": "activeStrategies",
      "outputs": [
        {
          "internalType": "bytes32",
          "name": "",
          "type": "bytes32"
        }
      ],
      "stateMutability": "view",
      "type": "function"
    },
    {
      "inputs": [
        {
          "internalType": "uint256",
          "name": "",
          "type": "uint256"
        }
      ],
      "name": "activeTokens",
      "outputs": [
        {
          "internalType": "address",
          "name": "",
          "type": "address"
        }
      ],
      "stateMutability": "view",
      "type": "function"
    },
    {
      "inputs": [
        {
          "internalType": "address",
          "name": "_token",
          "type": "address"
        },
        {
          "internalType": "address",
          "name": "_projectWallet",
          "type": "address"
        },
        {
          "internalType": "string",
          "name": "_projectName",
          "type": "string"
        }
      ],
      "name": "addNewBountyPool",
      "outputs": [
        {
          "internalType": "uint256",
          "name": "",
          "type": "uint256"
        }
      ],
      "stateMutability": "nonpayable",
      "type": "function"
    },
    {
      "inputs": [
        {
          "internalType": "address",
          "name": "to",
          "type": "address"
        },
        {
          "internalType": "uint256",
          "name": "tokenId",
          "type": "uint256"
        }
      ],
      "name": "approve",
      "outputs": [],
      "stateMutability": "nonpayable",
      "type": "function"
    },
    {
      "inputs": [
        {
          "internalType": "address",
          "name": "owner",
          "type": "address"
        }
      ],
      "name": "balanceOf",
      "outputs": [
        {
          "internalType": "uint256",
          "name": "",
          "type": "uint256"
        }
      ],
      "stateMutability": "view",
      "type": "function"
    },
    {
      "inputs": [
        {
          "internalType": "uint256",
          "name": "_pid",
          "type": "uint256"
        }
      ],
      "name": "billPremium",
      "outputs": [
        {
          "internalType": "bool",
          "name": "",
          "type": "bool"
        }
      ],
      "stateMutability": "nonpayable",
      "type": "function"
    },
    {
      "inputs": [
        {
          "internalType": "uint256",
          "name": "_poolCap",
          "type": "uint256"
        },
        {
          "internalType": "uint256",
          "name": "_apy",
          "type": "uint256"
        }
      ],
      "name": "calcRequiredPremiumBalancePerPeriod",
      "outputs": [
        {
          "internalType": "uint256",
          "name": "requiredPremiumBalance",
          "type": "uint256"
        }
      ],
      "stateMutability": "pure",
      "type": "function"
    },
    {
      "inputs": [
        {
          "internalType": "uint256",
          "name": "_pid",
          "type": "uint256"
        },
        {
          "internalType": "uint256",
          "name": "_stake",
          "type": "uint256"
        }
      ],
      "name": "calculateEffectiveAPY",
      "outputs": [
        {
          "internalType": "uint256",
          "name": "scaledAPY",
          "type": "uint256"
        }
      ],
      "stateMutability": "view",
      "type": "function"
    },
    {
      "inputs": [
        {
          "internalType": "uint256",
          "name": "_tokenId",
          "type": "uint256"
        }
      ],
      "name": "claimPremium",
      "outputs": [],
      "stateMutability": "nonpayable",
      "type": "function"
    },
    {
      "inputs": [
        {
          "internalType": "address",
          "name": "_saloonWallet",
          "type": "address"
        }
      ],
      "name": "collectAllSaloonProfits",
      "outputs": [
        {
          "internalType": "bool",
          "name": "",
          "type": "bool"
        }
      ],
      "stateMutability": "nonpayable",
      "type": "function"
    },
    {
      "inputs": [
        {
          "internalType": "address",
          "name": "_token",
          "type": "address"
        },
        {
          "internalType": "address",
          "name": "_saloonWallet",
          "type": "address"
        }
      ],
      "name": "collectSaloonProfits",
      "outputs": [
        {
          "internalType": "bool",
          "name": "",
          "type": "bool"
        }
      ],
      "stateMutability": "nonpayable",
      "type": "function"
    },
    {
      "inputs": [],
      "name": "consolidate",
      "outputs": [],
      "stateMutability": "nonpayable",
      "type": "function"
    },
    {
      "inputs": [
        {
          "internalType": "uint256",
          "name": "tokenId",
          "type": "uint256"
        }
      ],
      "name": "getApproved",
      "outputs": [
        {
          "internalType": "address",
          "name": "",
          "type": "address"
        }
      ],
      "stateMutability": "view",
      "type": "function"
    },
    {
      "inputs": [
        {
          "internalType": "uint256",
          "name": "_pid",
          "type": "uint256"
        }
      ],
      "name": "getCurrentAPY",
      "outputs": [
        {
          "internalType": "uint256",
          "name": "currentAPY",
          "type": "uint256"
        }
      ],
      "stateMutability": "view",
      "type": "function"
    },
    {
      "inputs": [
        {
          "internalType": "uint256",
          "name": "_from",
          "type": "uint256"
        },
        {
          "internalType": "uint256",
          "name": "_to",
          "type": "uint256"
        }
      ],
      "name": "getMultiplier",
      "outputs": [
        {
          "internalType": "uint256",
          "name": "",
          "type": "uint256"
        }
      ],
      "stateMutability": "pure",
      "type": "function"
    },
    {
      "inputs": [],
      "name": "index",
      "outputs": [
        {
          "internalType": "uint256",
          "name": "",
          "type": "uint256"
        }
      ],
      "stateMutability": "view",
      "type": "function"
    },
    {
      "inputs": [
        {
          "internalType": "address",
          "name": "_strategyFactory",
          "type": "address"
        }
      ],
      "name": "initialize",
      "outputs": [],
      "stateMutability": "nonpayable",
      "type": "function"
    },
    {
      "inputs": [
        {
          "internalType": "address",
          "name": "owner",
          "type": "address"
        },
        {
          "internalType": "address",
          "name": "operator",
          "type": "address"
        }
      ],
      "name": "isApprovedForAll",
      "outputs": [
        {
          "internalType": "bool",
          "name": "",
          "type": "bool"
        }
      ],
      "stateMutability": "view",
      "type": "function"
    },
    {
      "inputs": [
        {
          "internalType": "uint256",
          "name": "_pid",
          "type": "uint256"
        },
        {
          "internalType": "uint256",
          "name": "_deposit",
          "type": "uint256"
        },
        {
          "internalType": "string",
          "name": "_strategyName",
          "type": "string"
        }
      ],
      "name": "makeProjectDeposit",
      "outputs": [],
      "stateMutability": "nonpayable",
      "type": "function"
    },
    {
      "inputs": [
        {
          "internalType": "address",
          "name": "",
          "type": "address"
        }
      ],
      "name": "minTokenStakeAmount",
      "outputs": [
        {
          "internalType": "uint256",
          "name": "",
          "type": "uint256"
        }
      ],
      "stateMutability": "view",
      "type": "function"
    },
    {
      "inputs": [
        {
          "internalType": "uint256",
          "name": "",
          "type": "uint256"
        },
        {
          "internalType": "address",
          "name": "",
          "type": "address"
        }
      ],
      "name": "nFTInfo",
      "outputs": [
        {
          "internalType": "uint256",
          "name": "amount",
          "type": "uint256"
        },
        {
          "internalType": "uint256",
          "name": "apy",
          "type": "uint256"
        },
        {
          "internalType": "uint256",
          "name": "unclaimed",
          "type": "uint256"
        },
        {
          "internalType": "uint256",
          "name": "lastClaimedTime",
          "type": "uint256"
        },
        {
          "internalType": "uint256",
          "name": "timelock",
          "type": "uint256"
        },
        {
          "internalType": "uint256",
          "name": "timelimit",
          "type": "uint256"
        }
      ],
      "stateMutability": "view",
      "type": "function"
    },
    {
      "inputs": [],
      "name": "name",
      "outputs": [
        {
          "internalType": "string",
          "name": "",
          "type": "string"
        }
      ],
      "stateMutability": "view",
      "type": "function"
    },
    {
      "inputs": [
        {
          "internalType": "uint256",
          "name": "",
          "type": "uint256"
        }
      ],
      "name": "nftAPY",
      "outputs": [
        {
          "internalType": "uint256",
          "name": "",
          "type": "uint256"
        }
      ],
      "stateMutability": "view",
      "type": "function"
    },
    {
      "inputs": [
        {
          "internalType": "uint256",
          "name": "",
          "type": "uint256"
        }
      ],
      "name": "nftBalance",
      "outputs": [
        {
          "internalType": "uint256",
          "name": "",
          "type": "uint256"
        }
      ],
      "stateMutability": "view",
      "type": "function"
    },
    {
      "inputs": [
        {
          "internalType": "uint256",
          "name": "",
          "type": "uint256"
        }
      ],
      "name": "nftInfo",
      "outputs": [
        {
          "internalType": "uint256",
          "name": "amount",
          "type": "uint256"
        },
        {
          "internalType": "uint256",
          "name": "apy",
          "type": "uint256"
        },
        {
          "internalType": "uint256",
          "name": "unclaimed",
          "type": "uint256"
        },
        {
          "internalType": "uint256",
          "name": "lastClaimedTime",
          "type": "uint256"
        },
        {
          "internalType": "uint256",
          "name": "timelock",
          "type": "uint256"
        },
        {
          "internalType": "uint256",
          "name": "timelimit",
          "type": "uint256"
        }
      ],
      "stateMutability": "view",
      "type": "function"
    },
    {
      "inputs": [
        {
          "internalType": "uint256",
          "name": "",
          "type": "uint256"
        }
      ],
      "name": "nftToPid",
      "outputs": [
        {
          "internalType": "uint256",
          "name": "",
          "type": "uint256"
        }
      ],
      "stateMutability": "view",
      "type": "function"
    },
    {
      "inputs": [],
      "name": "owner",
      "outputs": [
        {
          "internalType": "address",
          "name": "",
          "type": "address"
        }
      ],
      "stateMutability": "view",
      "type": "function"
    },
    {
      "inputs": [
        {
          "internalType": "uint256",
          "name": "tokenId",
          "type": "uint256"
        }
      ],
      "name": "ownerOf",
      "outputs": [
        {
          "internalType": "address",
          "name": "",
          "type": "address"
        }
      ],
      "stateMutability": "view",
      "type": "function"
    },
    {
      "inputs": [
        {
          "internalType": "uint256",
          "name": "_pid",
          "type": "uint256"
        },
        {
          "internalType": "address",
          "name": "_hunter",
          "type": "address"
        },
        {
          "internalType": "uint256",
          "name": "_amount",
          "type": "uint256"
        }
      ],
      "name": "payBounty",
      "outputs": [
        {
          "internalType": "bool",
          "name": "",
          "type": "bool"
        }
      ],
      "stateMutability": "nonpayable",
      "type": "function"
    },
    {
      "inputs": [
        {
          "internalType": "uint256",
          "name": "_tokenId",
          "type": "uint256"
        }
      ],
      "name": "pendingPremium",
      "outputs": [
        {
          "internalType": "uint256",
          "name": "totalPending",
          "type": "uint256"
        },
        {
          "internalType": "uint256",
          "name": "actualPending",
          "type": "uint256"
        },
        {
          "internalType": "uint256",
          "name": "newPending",
          "type": "uint256"
        }
      ],
      "stateMutability": "view",
      "type": "function"
    },
    {
      "inputs": [
        {
          "internalType": "uint256",
          "name": "",
          "type": "uint256"
        },
        {
          "internalType": "uint256",
          "name": "",
          "type": "uint256"
        }
      ],
      "name": "pidNFTList",
      "outputs": [
        {
          "internalType": "uint256",
          "name": "",
          "type": "uint256"
        }
      ],
      "stateMutability": "view",
      "type": "function"
    },
    {
      "inputs": [
        {
          "internalType": "uint256",
          "name": "",
          "type": "uint256"
        },
        {
          "internalType": "bytes32",
          "name": "",
          "type": "bytes32"
        }
      ],
      "name": "pidStrategies",
      "outputs": [
        {
          "internalType": "address",
          "name": "",
          "type": "address"
        }
      ],
      "stateMutability": "view",
      "type": "function"
    },
    {
      "inputs": [
        {
          "internalType": "uint256",
          "name": "",
          "type": "uint256"
        }
      ],
      "name": "poolInfo",
      "outputs": [
        {
          "components": [
            {
              "internalType": "contract IERC20",
              "name": "token",
              "type": "address"
            },
            {
              "internalType": "uint8",
              "name": "tokenDecimals",
              "type": "uint8"
            },
            {
              "internalType": "uint16",
              "name": "apy",
              "type": "uint16"
            },
            {
              "internalType": "address",
              "name": "projectWallet",
              "type": "address"
            },
            {
              "internalType": "string",
              "name": "projectName",
              "type": "string"
            },
            {
              "internalType": "uint256",
              "name": "poolCap",
              "type": "uint256"
            },
            {
              "internalType": "uint256",
              "name": "totalStaked",
              "type": "uint256"
            },
            {
              "internalType": "uint256",
              "name": "multiplier",
              "type": "uint256"
            }
          ],
          "internalType": "struct ISaloon.GeneralInfo",
          "name": "generalInfo",
          "type": "tuple"
        },
        {
          "components": [
            {
              "internalType": "uint256",
              "name": "projectDepositHeld",
              "type": "uint256"
            },
            {
              "internalType": "uint256",
              "name": "projectDepositInStrategy",
              "type": "uint256"
            }
          ],
          "internalType": "struct ISaloon.DepositInfo",
          "name": "depositInfo",
          "type": "tuple"
        },
        {
          "components": [
            {
              "internalType": "uint256",
              "name": "premiumBalance",
              "type": "uint256"
            },
            {
              "internalType": "uint256",
              "name": "premiumAvailable",
              "type": "uint256"
            }
          ],
          "internalType": "struct ISaloon.PremiumInfo",
          "name": "premiumInfo",
          "type": "tuple"
        },
        {
          "components": [
            {
              "internalType": "uint256",
              "name": "timelock",
              "type": "uint256"
            },
            {
              "internalType": "uint256",
              "name": "timeLimit",
              "type": "uint256"
            },
            {
              "internalType": "uint256",
              "name": "withdrawalScheduledAmount",
              "type": "uint256"
            },
            {
              "internalType": "bool",
              "name": "withdrawalExecuted",
              "type": "bool"
            }
          ],
          "internalType": "struct ISaloon.TimelockInfo",
          "name": "poolTimelock",
          "type": "tuple"
        },
        {
          "components": [
            {
              "internalType": "uint256",
              "name": "currentX",
              "type": "uint256"
            },
            {
              "internalType": "uint256",
              "name": "currentY",
              "type": "uint256"
            },
            {
              "internalType": "uint256",
              "name": "totalSupply",
              "type": "uint256"
            }
          ],
          "internalType": "struct ISaloon.TokenInfo",
          "name": "tokenInfo",
          "type": "tuple"
        },
        {
          "internalType": "uint256",
          "name": "freezeTime",
          "type": "uint256"
        },
        {
          "internalType": "bool",
          "name": "isActive",
          "type": "bool"
        }
      ],
      "stateMutability": "view",
      "type": "function"
    },
    {
      "inputs": [],
      "name": "poolLength",
      "outputs": [
        {
          "internalType": "uint256",
          "name": "",
          "type": "uint256"
        }
      ],
      "stateMutability": "view",
      "type": "function"
    },
    {
      "inputs": [
        {
          "internalType": "uint256",
          "name": "_pid",
          "type": "uint256"
        },
        {
          "internalType": "uint256",
          "name": "_amount",
          "type": "uint256"
        }
      ],
      "name": "projectDepositWithdrawal",
      "outputs": [
        {
          "internalType": "bool",
          "name": "",
          "type": "bool"
        }
      ],
      "stateMutability": "nonpayable",
      "type": "function"
    },
    {
      "inputs": [],
      "name": "proxiableUUID",
      "outputs": [
        {
          "internalType": "bytes32",
          "name": "",
          "type": "bytes32"
        }
      ],
      "stateMutability": "view",
      "type": "function"
    },
    {
      "inputs": [
        {
          "internalType": "address",
          "name": "from",
          "type": "address"
        },
        {
          "internalType": "address",
          "name": "to",
          "type": "address"
        },
        {
          "internalType": "uint256",
          "name": "tokenId",
          "type": "uint256"
        }
      ],
      "name": "safeTransferFrom",
      "outputs": [],
      "stateMutability": "nonpayable",
      "type": "function"
    },
    {
      "inputs": [
        {
          "internalType": "address",
          "name": "from",
          "type": "address"
        },
        {
          "internalType": "address",
          "name": "to",
          "type": "address"
        },
        {
          "internalType": "uint256",
          "name": "tokenId",
          "type": "uint256"
        },
        {
          "internalType": "bytes",
          "name": "data",
          "type": "bytes"
        }
      ],
      "name": "safeTransferFrom",
      "outputs": [],
      "stateMutability": "nonpayable",
      "type": "function"
    },
    {
      "inputs": [
        {
          "internalType": "address",
          "name": "",
          "type": "address"
        }
      ],
      "name": "saloonBountyProfit",
      "outputs": [
        {
          "internalType": "uint256",
          "name": "",
          "type": "uint256"
        }
      ],
      "stateMutability": "view",
      "type": "function"
    },
    {
      "inputs": [
        {
          "internalType": "address",
          "name": "",
          "type": "address"
        }
      ],
      "name": "saloonPremiumProfit",
      "outputs": [
        {
          "internalType": "uint256",
          "name": "",
          "type": "uint256"
        }
      ],
      "stateMutability": "view",
      "type": "function"
    },
    {
      "inputs": [
        {
          "internalType": "uint256",
          "name": "_pid",
          "type": "uint256"
        },
        {
          "internalType": "uint256",
          "name": "_amount",
          "type": "uint256"
        }
      ],
      "name": "scheduleProjectDepositWithdrawal",
      "outputs": [
        {
          "internalType": "bool",
          "name": "",
          "type": "bool"
        }
      ],
      "stateMutability": "nonpayable",
      "type": "function"
    },
    {
      "inputs": [
        {
          "internalType": "uint256",
          "name": "_tokenId",
          "type": "uint256"
        }
      ],
      "name": "scheduleUnstake",
      "outputs": [
        {
          "internalType": "bool",
          "name": "",
          "type": "bool"
        }
      ],
      "stateMutability": "nonpayable",
      "type": "function"
    },
    {
      "inputs": [
        {
          "internalType": "uint256",
          "name": "_pid",
          "type": "uint256"
        },
        {
          "internalType": "uint256",
          "name": "_poolCap",
          "type": "uint256"
        },
        {
          "internalType": "uint16",
          "name": "_apy",
          "type": "uint16"
        },
        {
          "internalType": "uint256",
          "name": "_deposit",
          "type": "uint256"
        },
        {
          "internalType": "string",
          "name": "_strategyName",
          "type": "string"
        }
      ],
      "name": "setAPYandPoolCapAndDeposit",
      "outputs": [],
      "stateMutability": "nonpayable",
      "type": "function"
    },
    {
      "inputs": [
        {
          "internalType": "address",
          "name": "operator",
          "type": "address"
        },
        {
          "internalType": "bool",
          "name": "approved",
          "type": "bool"
        }
      ],
      "name": "setApprovalForAll",
      "outputs": [],
      "stateMutability": "nonpayable",
      "type": "function"
    },
    {
      "inputs": [
        {
          "internalType": "uint256",
          "name": "_pid",
          "type": "uint256"
        },
        {
          "internalType": "uint256",
          "name": "_amount",
          "type": "uint256"
        }
      ],
      "name": "stake",
      "outputs": [
        {
          "internalType": "uint256",
          "name": "",
          "type": "uint256"
        }
      ],
      "stateMutability": "nonpayable",
      "type": "function"
    },
    {
      "inputs": [
        {
          "internalType": "bytes4",
          "name": "interfaceId",
          "type": "bytes4"
        }
      ],
      "name": "supportsInterface",
      "outputs": [
        {
          "internalType": "bool",
          "name": "",
          "type": "bool"
        }
      ],
      "stateMutability": "view",
      "type": "function"
    },
    {
      "inputs": [],
      "name": "symbol",
      "outputs": [
        {
          "internalType": "string",
          "name": "",
          "type": "string"
        }
      ],
      "stateMutability": "view",
      "type": "function"
    },
    {
      "inputs": [
        {
          "internalType": "uint256",
          "name": "tokenId",
          "type": "uint256"
        }
      ],
      "name": "tokenURI",
      "outputs": [
        {
          "internalType": "string",
          "name": "",
          "type": "string"
        }
      ],
      "stateMutability": "view",
      "type": "function"
    },
    {
      "inputs": [
        {
          "internalType": "address",
          "name": "",
          "type": "address"
        }
      ],
      "name": "tokenWhitelist",
      "outputs": [
        {
          "internalType": "bool",
          "name": "",
          "type": "bool"
        }
      ],
      "stateMutability": "view",
      "type": "function"
    },
    {
      "inputs": [
        {
          "internalType": "address",
          "name": "from",
          "type": "address"
        },
        {
          "internalType": "address",
          "name": "to",
          "type": "address"
        },
        {
          "internalType": "uint256",
          "name": "tokenId",
          "type": "uint256"
        }
      ],
      "name": "transferFrom",
      "outputs": [],
      "stateMutability": "nonpayable",
      "type": "function"
    },
    {
      "inputs": [
        {
          "internalType": "address",
          "name": "newOwner",
          "type": "address"
        }
      ],
      "name": "transferOwnership",
      "outputs": [],
      "stateMutability": "nonpayable",
      "type": "function"
    },
    {
      "inputs": [
        {
          "internalType": "uint256",
          "name": "_tokenId",
          "type": "uint256"
        },
        {
          "internalType": "bool",
          "name": "_shouldHarvest",
          "type": "bool"
        }
      ],
      "name": "unstake",
      "outputs": [
        {
          "internalType": "bool",
          "name": "",
          "type": "bool"
        }
      ],
      "stateMutability": "nonpayable",
      "type": "function"
    },
    {
      "inputs": [
        {
          "internalType": "address",
          "name": "_strategyFactory",
          "type": "address"
        }
      ],
      "name": "updateStrategyFactoryAddress",
      "outputs": [],
      "stateMutability": "nonpayable",
      "type": "function"
    },
    {
      "inputs": [
        {
          "internalType": "address",
          "name": "_token",
          "type": "address"
        },
        {
          "internalType": "bool",
          "name": "_whitelisted",
          "type": "bool"
        },
        {
          "internalType": "uint256",
          "name": "_minStakeAmount",
          "type": "uint256"
        }
      ],
      "name": "updateTokenWhitelist",
      "outputs": [
        {
          "internalType": "bool",
          "name": "",
          "type": "bool"
        }
      ],
      "stateMutability": "nonpayable",
      "type": "function"
    },
    {
      "inputs": [
        {
          "internalType": "address",
          "name": "newImplementation",
          "type": "address"
        }
      ],
      "name": "upgradeTo",
      "outputs": [],
      "stateMutability": "nonpayable",
      "type": "function"
    },
    {
      "inputs": [
        {
          "internalType": "address",
          "name": "newImplementation",
          "type": "address"
        },
        {
          "internalType": "bytes",
          "name": "data",
          "type": "bytes"
        }
      ],
      "name": "upgradeToAndCall",
      "outputs": [],
      "stateMutability": "payable",
      "type": "function"
    },
    {
      "inputs": [
        {
          "internalType": "uint256",
          "name": "_pid",
          "type": "uint256"
        }
      ],
      "name": "viewBountyBalance",
      "outputs": [
        {
          "internalType": "uint256",
          "name": "",
          "type": "uint256"
        }
      ],
      "stateMutability": "view",
      "type": "function"
    },
    {
      "inputs": [
        {
          "internalType": "uint256",
          "name": "_pid",
          "type": "uint256"
        }
      ],
      "name": "viewBountyInfo",
      "outputs": [
        {
          "internalType": "uint256",
          "name": "payout",
          "type": "uint256"
        },
        {
          "internalType": "uint256",
          "name": "apy",
          "type": "uint256"
        },
        {
          "internalType": "uint256",
          "name": "staked",
          "type": "uint256"
        },
        {
          "internalType": "uint256",
          "name": "poolCap",
          "type": "uint256"
        }
      ],
      "stateMutability": "view",
      "type": "function"
    },
    {
      "inputs": [
        {
          "internalType": "uint256",
          "name": "_pid",
          "type": "uint256"
        }
      ],
      "name": "viewHackerPayout",
      "outputs": [
        {
          "internalType": "uint256",
          "name": "",
          "type": "uint256"
        }
      ],
      "stateMutability": "view",
      "type": "function"
    },
    {
      "inputs": [
        {
          "internalType": "uint256",
          "name": "_pid",
          "type": "uint256"
        }
      ],
      "name": "viewMinProjectDeposit",
      "outputs": [
        {
          "internalType": "uint256",
          "name": "",
          "type": "uint256"
        }
      ],
      "stateMutability": "view",
      "type": "function"
    },
    {
      "inputs": [
        {
          "internalType": "uint256",
          "name": "_pid",
          "type": "uint256"
        }
      ],
      "name": "viewPoolAPY",
      "outputs": [
        {
          "internalType": "uint256",
          "name": "",
          "type": "uint256"
        }
      ],
      "stateMutability": "view",
      "type": "function"
    },
    {
      "inputs": [
        {
          "internalType": "uint256",
          "name": "_pid",
          "type": "uint256"
        }
      ],
      "name": "viewPoolCap",
      "outputs": [
        {
          "internalType": "uint256",
          "name": "",
          "type": "uint256"
        }
      ],
      "stateMutability": "view",
      "type": "function"
    },
    {
      "inputs": [
        {
          "internalType": "uint256",
          "name": "_pid",
          "type": "uint256"
        }
      ],
      "name": "viewPoolPremiumInfo",
      "outputs": [
        {
          "internalType": "uint256",
          "name": "requiredPremiumBalancePerPeriod",
          "type": "uint256"
        },
        {
          "internalType": "uint256",
          "name": "premiumBalance",
          "type": "uint256"
        },
        {
          "internalType": "uint256",
          "name": "premiumAvailable",
          "type": "uint256"
        }
      ],
      "stateMutability": "view",
      "type": "function"
    },
    {
      "inputs": [
        {
          "internalType": "uint256",
          "name": "_pid",
          "type": "uint256"
        }
      ],
      "name": "viewPoolTimelockInfo",
      "outputs": [
        {
          "internalType": "uint256",
          "name": "timelock",
          "type": "uint256"
        },
        {
          "internalType": "uint256",
          "name": "timeLimit",
          "type": "uint256"
        },
        {
          "internalType": "uint256",
          "name": "withdrawalScheduledAmount",
          "type": "uint256"
        }
      ],
      "stateMutability": "view",
      "type": "function"
    },
    {
      "inputs": [
        {
          "internalType": "address",
          "name": "_token",
          "type": "address"
        }
      ],
      "name": "viewSaloonProfitBalance",
      "outputs": [
        {
          "internalType": "uint256",
          "name": "totalProfit",
          "type": "uint256"
        },
        {
          "internalType": "uint256",
          "name": "bountyProfit",
          "type": "uint256"
        },
        {
          "internalType": "uint256",
          "name": "premiumProfit",
          "type": "uint256"
        }
      ],
      "stateMutability": "view",
      "type": "function"
    },
    {
      "inputs": [
        {
          "internalType": "uint256",
          "name": "_tokenId",
          "type": "uint256"
        }
      ],
      "name": "viewTokenInfo",
      "outputs": [
        {
          "internalType": "uint256",
          "name": "amount",
          "type": "uint256"
        },
        {
          "internalType": "uint256",
          "name": "apy",
          "type": "uint256"
        },
        {
          "internalType": "uint256",
          "name": "actualPending",
          "type": "uint256"
        },
        {
          "internalType": "uint256",
          "name": "unclaimed",
          "type": "uint256"
        },
        {
          "internalType": "uint256",
          "name": "timelock",
          "type": "uint256"
        }
      ],
      "stateMutability": "view",
      "type": "function"
    },
    {
      "inputs": [
        {
          "internalType": "uint256",
          "name": "_pid",
          "type": "uint256"
        }
      ],
      "name": "viewTotalStaked",
      "outputs": [
        {
          "internalType": "uint256",
          "name": "",
          "type": "uint256"
        }
      ],
      "stateMutability": "view",
      "type": "function"
    },
    {
      "inputs": [
        {
          "internalType": "uint256",
          "name": "_tokenId",
          "type": "uint256"
        }
      ],
      "name": "viewUserUnclaimed",
      "outputs": [
        {
          "internalType": "uint256",
          "name": "unclaimed",
          "type": "uint256"
        }
      ],
      "stateMutability": "view",
      "type": "function"
    },
    {
      "inputs": [
        {
          "internalType": "uint256",
          "name": "_pid",
          "type": "uint256"
        }
      ],
      "name": "windDownBounty",
      "outputs": [
        {
          "internalType": "bool",
          "name": "",
          "type": "bool"
        }
      ],
      "stateMutability": "nonpayable",
      "type": "function"
    }
  ],
  "bytecode": {
    "object": "0x60a0604052306080523480156200001557600080fd5b50600160ca55600054610100900460ff16158080156200003c5750600054600160ff909116105b806200006c575062000059306200019760201b6200507e1760201c565b1580156200006c575060005460ff166001145b620000d55760405162461bcd60e51b815260206004820152602e60248201527f496e697469616c697a61626c653a20636f6e747261637420697320616c72656160448201526d191e481a5b9a5d1a585b1a5e995960921b60648201526084015b60405180910390fd5b6000805460ff191660011790558015620000f9576000805461ff0019166101001790555b620001496040518060400160405280600b81526020016a2137bab73a3caa37b5b2b760a91b8152506040518060400160405280600381526020016210951560ea1b815250620001a660201b60201c565b801562000190576000805461ff0019169055604051600181527f7f26b83ff96e1f2b6a682f133852f6798a09c465da95921460cefb38474024989060200160405180910390a15b5062000400565b6001600160a01b03163b151590565b600054610100900460ff16620002025760405162461bcd60e51b815260206004820152602b60248201526000805160206200837c83398151915260448201526a6e697469616c697a696e6760a81b6064820152608401620000cc565b6200020e828262000212565b5050565b600054610100900460ff166200026e5760405162461bcd60e51b815260206004820152602b60248201526000805160206200837c83398151915260448201526a6e697469616c697a696e6760a81b6064820152608401620000cc565b60fd6200027c838262000334565b5060fe6200028b828262000334565b505050565b634e487b7160e01b600052604160045260246000fd5b600181811c90821680620002bb57607f821691505b602082108103620002dc57634e487b7160e01b600052602260045260246000fd5b50919050565b601f8211156200028b57600081815260208120601f850160051c810160208610156200030b5750805b601f850160051c820191505b818110156200032c5782815560010162000317565b505050505050565b81516001600160401b0381111562000350576200035062000290565b6200036881620003618454620002a6565b84620002e2565b602080601f831160018114620003a05760008415620003875750858301515b600019600386901b1c1916600185901b1785556200032c565b600085815260208120601f198616915b82811015620003d157888601518255948401946001909101908401620003b0565b5085821015620003f05787850151600019600388901b60f8161c191681555b5050505050600190811b01905550565b608051617f446200043860003960008181611baf01528181611bef015281816126aa015281816126ea015261277d0152617f446000f3fe6080604052600436106104055760003560e01c8063724f024b11610213578063ae07f94811610123578063cc6f6b5b116100ab578063e63d6ee41161007a578063e63d6ee414610db6578063e985e9c514610de4578063ecd7fbed14610e2e578063f2fde38b14610e4e578063f47ec3be14610e6e57600080fd5b8063cc6f6b5b14610cec578063cf9564b914610d48578063dbdd695714610d68578063e45abd0f14610d8857600080fd5b8063b88d4fde116100f2578063b88d4fde14610c3e578063bb7019c114610c5e578063c4d66de814610c7e578063c87b56dd14610c9e578063ca00614814610cbe57600080fd5b8063ae07f94814610bbb578063b1a2d16f14610bdb578063b20b242914610bfb578063b842e87f14610c2957600080fd5b80638dbb1e3a116101a65780639ebea88c116101755780639ebea88c14610b1b5780639f224f3514610b3b578063a22cb46514610b5b578063a27f921314610b7b578063ac30b85614610b9b57600080fd5b80638dbb1e3a14610aa657806395d89b4114610ac657806396ea48e814610adb578063983c1ce014610afb57600080fd5b8063804fd590116101e2578063804fd59014610a28578063836ef1fa14610a48578063861e5f6614610a685780638da5cb5b14610a8857600080fd5b8063724f024b146109ab578063753d7563146109b75780637b0472f0146109e85780637fbf385314610a0857600080fd5b806330ca0794116103195780634f1ef286116102a1578063612afc0c11610270578063612afc0c146108fd5780636352211e1461092b5780636ac6d8121461094b57806370a082311461096b578063718c7eef1461098b57600080fd5b80634f1ef2861461089557806352d1902d146108a85780635669cbef146108bd5780635c46f7b1146108dd57600080fd5b806339679ff4116102e857806339679ff4146107ba5780633ac6ad7b146107da57806340bd1d00146107fa57806340ef28681461083557806342842e0e1461087557600080fd5b806330ca07941461072c5780633538fda01461074c5780633659cfe61461076c578063394587231461078c57600080fd5b80631526fe271161039c5780631f8bc7901161036b5780631f8bc7901461063757806323b872dd146106b55780632986c0e5146106d55780632cb0dfcc146106ec5780632dbe051e1461070c57600080fd5b80631526fe271461058557806319693071146105b85780631c6b323f146105e95780631df566221461060957600080fd5b8063081e3eda116103d8578063081e3eda146104db578063095ea7b3146104fb578063106d08df1461051d578063107258521461053d57600080fd5b806301ffc9a71461040a57806306fdde031461043f578063074ecf0314610461578063081812fc146104bb575b600080fd5b34801561041657600080fd5b5061042a61042536600461725d565b610e8e565b60405190151581526020015b60405180910390f35b34801561044b57600080fd5b50610454610ee0565b60405161043691906172ca565b34801561046d57600080fd5b506104a361047c3660046172dd565b61013a6020908152600092835260408084209091529082529020546001600160a01b031681565b6040516001600160a01b039091168152602001610436565b3480156104c757600080fd5b506104a36104d63660046172ff565b610f72565b3480156104e757600080fd5b50610130545b604051908152602001610436565b34801561050757600080fd5b5061051b61051636600461732d565b610f9a565b005b34801561052957600080fd5b5061042a6105383660046172ff565b6110b4565b34801561054957600080fd5b5061055d6105583660046172ff565b611193565b604080519586526020860194909452928401919091526060830152608082015260a001610436565b34801561059157600080fd5b506105a56105a03660046172ff565b611220565b6040516104369796959493929190617359565b3480156105c457600080fd5b506104ed6105d33660046172ff565b6000908152610134602052604090206002015490565b3480156105f557600080fd5b506104ed6106043660046172ff565b6113ef565b34801561061557600080fd5b506104ed6106243660046172ff565b6101326020526000908152604090205481565b34801561064357600080fd5b506106886106523660046172ff565b61013460205260009081526040902080546001820154600283015460038401546004850154600590950154939492939192909186565b604080519687526020870195909552938501929092526060840152608083015260a082015260c001610436565b3480156106c157600080fd5b5061051b6106d0366004617470565b611659565b3480156106e157600080fd5b506104ed6101035481565b3480156106f857600080fd5b5061042a6107073660046174bf565b61168a565b34801561071857600080fd5b5061042a6107273660046172ff565b6118d9565b34801561073857600080fd5b5061051b610747366004617592565b6118f3565b34801561075857600080fd5b5061051b610767366004617606565b611b7a565b34801561077857600080fd5b5061051b610787366004617606565b611ba5565b34801561079857600080fd5b506104ed6107a7366004617606565b61013e6020526000908152604090205481565b3480156107c657600080fd5b506104ed6107d53660046172ff565b611c84565b3480156107e657600080fd5b5061042a6107f5366004617623565b611ed9565b34801561080657600080fd5b5061081a6108153660046172ff565b6122eb565b60408051938452602084019290925290820152606001610436565b34801561084157600080fd5b506108556108503660046172ff565b61264c565b604080519485526020850193909352918301526060820152608001610436565b34801561088157600080fd5b5061051b610890366004617470565b612685565b61051b6108a336600461764a565b6126a0565b3480156108b457600080fd5b506104ed612770565b3480156108c957600080fd5b5061042a6108d83660046172dd565b612823565b3480156108e957600080fd5b506104ed6108f83660046172dd565b612949565b34801561090957600080fd5b506104ed6109183660046172ff565b6101336020526000908152604090205481565b34801561093757600080fd5b506104a36109463660046172ff565b612cae565b34801561095757600080fd5b506104ed6109663660046172ff565b612d0e565b34801561097757600080fd5b506104ed610986366004617606565b612f72565b34801561099757600080fd5b5061081a6109a6366004617606565b612ff9565b34801561051b57600080fd5b3480156109c357600080fd5b5061042a6109d2366004617606565b61013c6020526000908152604090205460ff1681565b3480156109f457600080fd5b506104ed610a033660046172dd565b613033565b348015610a1457600080fd5b506104ed610a233660046172ff565b613489565b348015610a3457600080fd5b506104ed610a4336600461769a565b6136fd565b348015610a5457600080fd5b506104ed610a633660046172dd565b613a7e565b348015610a7457600080fd5b506104ed610a833660046172ff565b613ab4565b348015610a9457600080fd5b506033546001600160a01b03166104a3565b348015610ab257600080fd5b506104ed610ac13660046172dd565b613d2e565b348015610ad257600080fd5b50610454613d3a565b348015610ae757600080fd5b506104ed610af63660046172dd565b613d49565b348015610b0757600080fd5b5061042a610b163660046172dd565b613d7b565b348015610b2757600080fd5b5061042a610b363660046176fc565b613ef5565b348015610b4757600080fd5b506104a3610b563660046172ff565b6140d5565b348015610b6757600080fd5b5061051b610b7636600461772c565b614100565b348015610b8757600080fd5b506104ed610b963660046172ff565b61410b565b348015610ba757600080fd5b5061081a610bb63660046172ff565b614363565b348015610bc757600080fd5b5061051b610bd636600461775a565b6145cf565b348015610be757600080fd5b5061081a610bf63660046172ff565b61469d565b348015610c0757600080fd5b506104ed610c163660046172ff565b61013b6020526000908152604090205481565b348015610c3557600080fd5b5061051b61491e565b348015610c4a57600080fd5b5061051b610c59366004617794565b61499c565b348015610c6a57600080fd5b5061042a610c793660046172ff565b6149d4565b348015610c8a57600080fd5b5061051b610c99366004617606565b614aa0565b348015610caa57600080fd5b50610454610cb93660046172ff565b614bcd565b348015610cca57600080fd5b506104ed610cd9366004617606565b6101376020526000908152604090205481565b348015610cf857600080fd5b50610688610d07366004617800565b610138602090815260009283526040808420909152908252902080546001820154600283015460038401546004850154600590950154939492939192909186565b348015610d5457600080fd5b5061042a610d63366004617825565b614c40565b348015610d7457600080fd5b506104ed610d833660046172ff565b614cbb565b348015610d9457600080fd5b506104ed610da3366004617606565b6101366020526000908152604090205481565b348015610dc257600080fd5b506104ed610dd13660046172ff565b6101316020526000908152604090205481565b348015610df057600080fd5b5061042a610dff366004617825565b6001600160a01b0391821660009081526101026020908152604080832093909416825291909152205460ff1690565b348015610e3a57600080fd5b5061042a610e49366004617606565b614f10565b348015610e5a57600080fd5b5061051b610e69366004617606565b614fd2565b348015610e7a57600080fd5b5061051b610e893660046172ff565b615061565b60006001600160e01b031982166380ac58cd60e01b1480610ebf57506001600160e01b03198216635b5e139f60e01b145b80610eda57506301ffc9a760e01b6001600160e01b03198316145b92915050565b606060fd8054610eef90617853565b80601f0160208091040260200160405190810160405280929190818152602001828054610f1b90617853565b8015610f685780601f10610f3d57610100808354040283529160200191610f68565b820191906000526020600020905b815481529060010190602001808311610f4b57829003601f168201915b5050505050905090565b6000610f7d8261508d565b50600090815261010160205260409020546001600160a01b031690565b6000610fa582612cae565b9050806001600160a01b0316836001600160a01b0316036110175760405162461bcd60e51b815260206004820152602160248201527f4552433732313a20617070726f76616c20746f2063757272656e74206f776e656044820152603960f91b60648201526084015b60405180910390fd5b336001600160a01b038216148061103357506110338133610dff565b6110a55760405162461bcd60e51b815260206004820152603d60248201527f4552433732313a20617070726f76652063616c6c6572206973206e6f7420746f60448201527f6b656e206f776e6572206f7220617070726f76656420666f7220616c6c000000606482015260840161100e565b6110af83836150ec565b505050565b6000336110c083612cae565b6001600160a01b03161461110c5760405162461bcd60e51b815260206004820152601360248201527239b2b73232b91034b9903737ba1037bbb732b960691b604482015260640161100e565b6000828152610133602090815260408083205461013490925290912061113562093a80426178a3565b600482015561114762093a80426178a3565b611154906203f4806178a3565b60058201558054604051819084907fb3b9c925de3673837b40c6b4d4463a8f88dc821cd27e07f1ff6bf6abf96413a590600090a3506001949350505050565b600081815261013360209081526040808320546101348352818420825160c08101845281548082526001830154958201869052600283015494820194909452600382015460608201526004820154608082015260059091015460a082015291939182918291611201886122eb565b506040830151608090930151989a979950979196919550909350505050565b610130818154811061123157600080fd5b60009182526020918290206040805161010081018252601490930290910180546001600160a01b03808216855260ff600160a01b8304169585019590955261ffff600160a81b9091041691830191909152600181015490921660608201526002820180549293509091839160808401916112aa90617853565b80601f01602080910402602001604051908101604052809291908181526020018280546112d690617853565b80156113235780601f106112f857610100808354040283529160200191611323565b820191906000526020600020905b81548152906001019060200180831161130657829003601f168201915b505050918352505060038201546020808301919091526004830154604080840191909152600590930154606092830152825180840184526006860154815260078601548183015283518085018552600887015481526009870154818401528451608081018652600a8801548152600b88015481850152600c88015481870152600d88015460ff90811615158287015286519586018752600e8901548652600f89015494860194909452601088015495850195909552601287015460139097015495969195909493921687565b6000806101308381548110611406576114066178b6565b6000918252602090912060408051610200810190915260149092020180546001600160a01b038082166101008501908152600160a01b830460ff16610120860152600160a81b90920461ffff1661014085015260018301541661016084015260028201805484929184916101808501919061148090617853565b80601f01602080910402602001604051908101604052809291908181526020018280546114ac90617853565b80156114f95780601f106114ce576101008083540402835291602001916114f9565b820191906000526020600020905b8154815290600101906020018083116114dc57829003601f168201915b505050918352505060038201546020808301919091526004830154604080840191909152600590930154606092830152928452815180830183526006860154815260078601548185015284840152815180830183526008860154815260098601548185015284830152815160808082018452600a8701548252600b87015482860152600c87015482850152600d87015460ff161515828401528583019190915282519182018352600e8601548252600f8601548285015260108601548284015284015260118401805482518185028101850190935280835260a090940193919290919083018282801561161557602002820191906000526020600020905b81546001600160a01b031681526001909101906020018083116115f7575b5050509183525050601282015460208083019190915260139092015460ff16151560409091015281810151908101519051919250611652916178a3565b9392505050565b611663338261515b565b61167f5760405162461bcd60e51b815260040161100e906178cc565b6110af8383836151da565b6000611694615340565b6001600160a01b038416600090815261013c602052604090205460ff161515831514806116bf575082155b6117035760405162461bcd60e51b81526020600482015260156024820152741dda1a5d195b1a5cdd08185b1c9958591e481cd95d605a1b604482015260640161100e565b6001600160a01b038416600081815261013c6020526040808220805460ff191687151590811790915590519092917f99795d51e5a8804307721456a7a9c2f0d7421f719d46a46d36e91fee7c85aa7691a382156117bb5761013d8054600181019091557f311617e6f2abe00ca92b0da56c014828817049e78441cf034e4dd4feba5296250180546001600160a01b0319166001600160a01b038616908117909155600090815261013e602052604090208290556118cf565b61013d5460005b818110156118cc57600061013d82815481106117e0576117e06178b6565b6000918252602090912001546001600160a01b039081169150871681036118bb5761013d61180f600185617919565b8154811061181f5761181f6178b6565b60009182526020909120015461013d80546001600160a01b03909216918490811061184c5761184c6178b6565b9060005260206000200160006101000a8154816001600160a01b0302191690836001600160a01b0316021790555061013d80548061188c5761188c61792c565b600082815260209020810160001990810180546001600160a01b03191690550190555060019250611652915050565b506118c581617942565b90506117c2565b50505b5060019392505050565b60006118e3615340565b6118ee82600061539a565b919050565b60006101308681548110611909576119096178b6565b60009182526020909120601490910201601381015490915060ff1615801561193357506003810154155b61197f5760405162461bcd60e51b815260206004820152601860248201527f506f6f6c20616c726561647920696e697469616c697a65640000000000000000604482015260640161100e565b60008461ffff1611801561199957506127108461ffff1611155b6119d85760405162461bcd60e51b815260206004820152601060248201526f415059206f7574206f662072616e676560801b604482015260640161100e565b80546119ef90600160a01b900460ff16600a617a3f565b6119fa906064617a4e565b8510158015611a2c57508054611a1b90600160a01b900460ff16600a617a3f565b611a289062989680617a4e565b8511155b611a705760405162461bcd60e51b8152602060048201526015602482015274506f6f6c20636170206f7574206f662072616e676560581b604482015260640161100e565b60018101546001600160a01b03163314611a9c5760405162461bcd60e51b815260040161100e90617a65565b6000611aac868661ffff16613a7e565b90506000612710611abf6103e884617a4e565b611ac99190617aa3565b9050611aed3330611ada85896178a3565b86546001600160a01b03169291906154e5565b5084836006016000016000828254611b0591906178a3565b909155505060038301879055825461ffff60a81b1916600160a81b61ffff88160217835560138301805460ff1916600117905560088301829055611b498183617919565b6009840155611b5c8861ffff8816615553565b835115611b7057611b6e8885876155aa565b505b5050505050505050565b611b82615340565b61013980546001600160a01b0319166001600160a01b0392909216919091179055565b6001600160a01b037f0000000000000000000000000000000000000000000000000000000000000000163003611bed5760405162461bcd60e51b815260040161100e90617ac5565b7f00000000000000000000000000000000000000000000000000000000000000006001600160a01b0316611c36600080516020617ec8833981519152546001600160a01b031690565b6001600160a01b031614611c5c5760405162461bcd60e51b815260040161100e90617b11565b611c6581615744565b60408051600080825260208201909252611c819183919061574c565b50565b6000806101308381548110611c9b57611c9b6178b6565b6000918252602090912060408051610200810190915260149092020180546001600160a01b038082166101008501908152600160a01b830460ff16610120860152600160a81b90920461ffff16610140850152600183015416610160840152600282018054849291849161018085019190611d1590617853565b80601f0160208091040260200160405190810160405280929190818152602001828054611d4190617853565b8015611d8e5780601f10611d6357610100808354040283529160200191611d8e565b820191906000526020600020905b815481529060010190602001808311611d7157829003601f168201915b505050918352505060038201546020808301919091526004830154604080840191909152600590930154606092830152928452815180830183526006860154815260078601548185015284840152815180830183526008860154815260098601548185015284830152815160808082018452600a8701548252600b87015482860152600c87015482850152600d87015460ff161515828401528583019190915282519182018352600e8601548252600f8601548285015260108601548284015284015260118401805482518185028101850190935280835260a0909401939192909190830182828015611eaa57602002820191906000526020600020905b81546001600160a01b03168152600190910190602001808311611e8c575b50505091835250506012820154602082015260139091015460ff1615156040909101525160a001519392505050565b6000611ee3615340565b60006101308581548110611ef957611ef96178b6565b60009182526020822060046014909202019081015490925090611f1b876113ef565b611f2590836178a3565b9050808286116120cb57828603611fcc5760008881526101356020526040812054905b81811015611fae5760008a815261013560205260408120805483908110611f7157611f716178b6565b90600052602060002001549050600061013460008381526020019081526020016000209050611fa18260006158b7565b6000905550600101611f48565b50600060048601819055611fc690601187019061706a565b506121e5565b600083611fe1670de0b6b3a764000089617a4e565b611feb9190617aa3565b60008a815261013560205260408120549192505b818110156120c35760008b815261013560205260408120805483908110612028576120286178b6565b906000526020600020015490506000610134600083815260200190815260200160002090506120588260006158b7565b6000670de0b6b3a76400008683600001546120739190617a4e565b61207d9190617aa3565b9050808260000160008282546120939190617919565b909155505060048a0180548291906000906120af908490617919565b909155505060019093019250611fff915050565b5050506121e5565b82861180156120da5750818611155b156121ab5760008881526101356020526040812054905b818110156121575760008a81526101356020526040812080548390811061211a5761211a6178b6565b9060005260206000200154905060006101346000838152602001908152602001600020905061214a8260006158b7565b60009055506001016120f1565b5060006004860181905561216f90601187019061706a565b612178896159f0565b5060006121858589617919565b90508086600601600001600082825461219e9190617919565b909155506121e592505050565b60405162461bcd60e51b815260206004820152600f60248201526e082dadeeadce840e8dede40d0d2ced608b1b604482015260640161100e565b60006127106121f66103e889617a4e565b6122009190617aa3565b9050600061220e8289617919565b86546001600160a01b03166000908152610136602052604081208054929350849290919061223d9084906178a3565b90915550508554612258906001600160a01b03168a83615b4e565b5060006122648b6113ef565b600488015461227391906178a3565b87546040518b81529192506001600160a01b0390811691908c169042907fc351e6e0f377ec1a399ec84224a83d6a4b9f3cd9a5530e5c652d0b11c2f8dae29060200160405180910390a480848c600080516020617ea883398151915260405160405180910390a45060019a9950505050505050505050565b60008181526101336020526040812054610130805483928392909183919083908110612319576123196178b6565b6000918252602090912060408051610200810190915260149092020180546001600160a01b038082166101008501908152600160a01b830460ff16610120860152600160a81b90920461ffff1661014085015260018301541661016084015260028201805484929184916101808501919061239390617853565b80601f01602080910402602001604051908101604052809291908181526020018280546123bf90617853565b801561240c5780601f106123e15761010080835404028352916020019161240c565b820191906000526020600020905b8154815290600101906020018083116123ef57829003601f168201915b505050918352505060038201546020808301919091526004830154604080840191909152600590930154606092830152928452815180830183526006860154815260078601548185015284840152815180830183526008860154815260098601548185015284830152815160808082018452600a8701548252600b87015482860152600c87015482850152600d87015460ff161515828401528583019190915282519182018352600e8601548252600f8601548285015260108601548284015284015260118401805482518185028101850190935280835260a090940193919290919083018282801561252857602002820191906000526020600020905b81546001600160a01b0316815260019091019060200180831161250a575b5050509183525050601282015460208083019190915260139092015460ff16151560409182015260008981526101348352818120825160c080820185528254825260018301549582019590955260028201549381019390935260038101546060840152600481015460808401526005015460a0830152918301519293509181036125b257426125b8565b8260c001515b905060006125ca836060015183613d2e565b90506301e1338081612710856020015186600001516125e99190617a4e565b6125f39190617aa3565b6125fd9190617a4e565b6126079190617aa3565b955082604001518661261991906178a3565b975061271061262a6103e882617919565b612634908a617a4e565b61263e9190617aa3565b965050505050509193909250565b60008060008061265b85613ab4565b935061266685614cbb565b91506126718561410b565b925061267c85611c84565b90509193509193565b6110af8383836040518060200160405280600081525061499c565b6001600160a01b037f00000000000000000000000000000000000000000000000000000000000000001630036126e85760405162461bcd60e51b815260040161100e90617ac5565b7f00000000000000000000000000000000000000000000000000000000000000006001600160a01b0316612731600080516020617ec8833981519152546001600160a01b031690565b6001600160a01b0316146127575760405162461bcd60e51b815260040161100e90617b11565b61276082615744565b61276c8282600161574c565b5050565b6000306001600160a01b037f000000000000000000000000000000000000000000000000000000000000000016146128105760405162461bcd60e51b815260206004820152603860248201527f555550535570677261646561626c653a206d757374206e6f742062652063616c60448201527f6c6564207468726f7567682064656c656761746563616c6c0000000000000000606482015260840161100e565b50600080516020617ec883398151915290565b600080610130848154811061283a5761283a6178b6565b9060005260206000209060140201905082612854856113ef565b10156128a25760405162461bcd60e51b815260206004820152601a60248201527f416d6f756e7420626967676572207468616e206465706f736974000000000000604482015260640161100e565b60018101546001600160a01b031633146128ce5760405162461bcd60e51b815260040161100e90617a65565b6128db62093a80426178a3565b600a8201556128ed62093a80426178a3565b6128fa906203f4806178a3565b600b820155600c8101839055600d8101805460ff19169055604051839085907fb3b9c925de3673837b40c6b4d4463a8f88dc821cd27e07f1ff6bf6abf96413a590600090a35060019392505050565b6000806101308481548110612960576129606178b6565b6000918252602090912060408051610200810190915260149092020180546001600160a01b038082166101008501908152600160a01b830460ff16610120860152600160a81b90920461ffff166101408501526001830154166101608401526002820180548492918491610180850191906129da90617853565b80601f0160208091040260200160405190810160405280929190818152602001828054612a0690617853565b8015612a535780601f10612a2857610100808354040283529160200191612a53565b820191906000526020600020905b815481529060010190602001808311612a3657829003601f168201915b505050918352505060038201546020808301919091526004830154604080840191909152600590930154606092830152928452815180830183526006860154815260078601548185015284840152815180830183526008860154815260098601548185015284830152815160808082018452600a8701548252600b87015482860152600c87015482850152600d87015460ff161515828401528583019190915282519182018352600e8601548252600f8601548285015260108601548284015284015260118401805482518185028101850190935280835260a0909401939192909190830182828015612b6f57602002820191906000526020600020905b81546001600160a01b03168152600190910190602001808311612b51575b50505091835250506012820154602082015260139091015460ff1615156040909101526080810151519091506000612ba78587615b81565b5090506000612bb683836178a3565b90506000612bc5826021617a4e565b612bd790674563918244f400006178a3565b90506000612be6856021617a4e565b612bf890674563918244f400006178a3565b90506000612c0d612c0884615bde565b615c27565b90506000612c1d612c0884615bde565b90506000612c5b612c2e6021615bde565b612c55612c3b8686615c5f565b612c4f6a295be96e64066972000000615bde565b90615c6e565b90615c7d565b90506000612c6c88620f4240617a4e565b612c769083617aa3565b8a5160e00151909150670de0b6b3a7640000612c928284617a4e565b612c9c9190617aa3565b9e9d5050505050505050505050505050565b600081815260ff60205260408120546001600160a01b031680610eda5760405162461bcd60e51b8152602060048201526018602482015277115490cdcc8c4e881a5b9d985b1a59081d1bdad95b88125160421b604482015260640161100e565b6000806101308381548110612d2557612d256178b6565b6000918252602090912060408051610200810190915260149092020180546001600160a01b038082166101008501908152600160a01b830460ff16610120860152600160a81b90920461ffff16610140850152600183015416610160840152600282018054849291849161018085019190612d9f90617853565b80601f0160208091040260200160405190810160405280929190818152602001828054612dcb90617853565b8015612e185780601f10612ded57610100808354040283529160200191612e18565b820191906000526020600020905b815481529060010190602001808311612dfb57829003601f168201915b505050918352505060038201546020808301919091526004830154604080840191909152600590930154606092830152928452815180830183526006860154815260078601548185015284840152815180830183526008860154815260098601548185015284830152815160808082018452600a8701548252600b87015482860152600c87015482850152600d87015460ff161515828401528583019190915282519182018352600e8601548252600f8601548285015260108601548284015284015260118401805482518185028101850190935280835260a0909401939192909190830182828015612f3457602002820191906000526020600020905b81546001600160a01b03168152600190910190602001808311612f16575b50505091835250506012820154602082015260139091015460ff1615156040909101529050612f62836113ef565b815160c0015161165291906178a3565b60006001600160a01b038216612fdc5760405162461bcd60e51b815260206004820152602960248201527f4552433732313a2061646472657373207a65726f206973206e6f7420612076616044820152683634b21037bbb732b960b91b606482015260840161100e565b506001600160a01b03166000908152610100602052604090205490565b6001600160a01b0381166000908152610136602090815260408083205461013790925282205461302982826178a3565b949193509150565b565b600061303d615c95565b8260006101308281548110613054576130546178b6565b6000918252602090912060408051610200810190915260149092020180546001600160a01b038082166101008501908152600160a01b830460ff16610120860152600160a81b90920461ffff166101408501526001830154166101608401526002820180548492918491610180850191906130ce90617853565b80601f01602080910402602001604051908101604052809291908181526020018280546130fa90617853565b80156131475780601f1061311c57610100808354040283529160200191613147565b820191906000526020600020905b81548152906001019060200180831161312a57829003601f168201915b505050918352505060038201546020808301919091526004830154604080840191909152600590930154606092830152928452815180830183526006860154815260078601548185015284840152815180830183526008860154815260098601548185015284830152815160808082018452600a8701548252600b87015482860152600c87015482850152600d87015460ff161515828401528583019190915282519182018352600e8601548252600f8601548285015260108601548284015284015260118401805482518185028101850190935280835260a090940193919290919083018282801561326357602002820191906000526020600020905b81546001600160a01b03168152600190910190602001808311613245575b50505091835250506012820154602082015260139091015460ff16151560409091015260e08101519091506132cc5760405162461bcd60e51b815260206004820152600f60248201526e706f6f6c206e6f742061637469766560881b604482015260640161100e565b600061013086815481106132e2576132e26178b6565b60009182526020808320601490920290910180546001600160a01b0316835261013e9091526040909120549091508510156133535760405162461bcd60e51b8152602060048201526011602482015270135a5b881cdd185ad9481b9bdd081b595d607a1b604482015260640161100e565b60068101546004820154600091613369916178a3565b8254909150613383906001600160a01b03163330896154e5565b506000613391883389615cee565b9050868360000160040160008282546133aa91906178a3565b90915550506003830154158015906133ca57506003830154600484015411155b61340c5760405162461bcd60e51b8152602060048201526013602482015272115e18d959591959081c1bdbdb081b1a5b5a5d606a1b604482015260640161100e565b604051878152889033907f1449c6dd7851abc30abf37f57715f492010519147cc2652fbc38202c18a6ee909060200160405180910390a360068301546004840154600091613459916178a3565b905080838a600080516020617ea883398151915260405160405180910390a450945050505050610eda600160ca55565b60008061013083815481106134a0576134a06178b6565b6000918252602090912060408051610200810190915260149092020180546001600160a01b038082166101008501908152600160a01b830460ff16610120860152600160a81b90920461ffff1661014085015260018301541661016084015260028201805484929184916101808501919061351a90617853565b80601f016020809104026020016040519081016040528092919081815260200182805461354690617853565b80156135935780601f1061356857610100808354040283529160200191613593565b820191906000526020600020905b81548152906001019060200180831161357657829003601f168201915b505050918352505060038201546020808301919091526004830154604080840191909152600590930154606092830152928452815180830183526006860154815260078601548185015284840152815180830183526008860154815260098601548185015284830152815160808082018452600a8701548252600b87015482860152600c87015482850152600d87015460ff161515828401528583019190915282519182018352600e8601548252600f8601548285015260108601548284015284015260118401805482518185028101850190935280835260a09094019391929091908301828280156136af57602002820191906000526020600020905b81546001600160a01b03168152600190910190602001808311613691575b50505091835250506012820154602082015260139091015460ff161515604090910152608081015151815160e00151919250906136eb82615e9e565b6136f59190617a4e565b949350505050565b6000613707615340565b6001600160a01b038416600090815261013c602052604090205460ff166137685760405162461bcd60e51b81526020600482015260156024820152741d1bdad95b881b9bdd081dda1a5d195b1a5cdd1959605a1b604482015260640161100e565b60408051600481526024810182526020810180516001600160e01b031663313ce56760e01b17905290516000916001600160a01b038716916137aa9190617b5d565b600060405180830381855afa9150503d80600081146137e5576040519150601f19603f3d011682016040523d82523d6000602084013e6137ea565b606091505b509150506000818060200190518101906138049190617b79565b905061380e617088565b80516001600160a01b03808916909152815160ff8085166020928301528351898416606091820152845160809081018a9052855160006040918201819052875160a001819052875160e0908101829052885160c0908101839052878a0151839052858a01805184905280518901849052805185018490525186018390529089018290528801819052610130805460018101825591528751805160149092027f2f605e086faac1d93117bbfbc18835d434e9405fadc1ca66faf4b864746daf3481018054988301519483015161ffff16600160a81b0261ffff60a81b1995909816600160a01b026001600160a81b0319909916938a16939093179790971792909216949094178455918201517f2f605e086faac1d93117bbfbc18835d434e9405fadc1ca66faf4b864746daf3585018054919096166001600160a01b03199190911617909455928301518493919283917f2f605e086faac1d93117bbfbc18835d434e9405fadc1ca66faf4b864746daf369091019061398c9082617bea565b5060a082810151600383015560c0830151600483015560e0909201516005909101556020838101518051600685015581015160078401556040808501518051600886015582015160098501556060808601518051600a87015580840151600b87015580830151600c8701550151600d8501805460ff191691151591909117905560808501518051600e86015580830151600f86015501516010840155908301518051613a3e9260118501920190617192565b5060c0820151601282015560e0909101516013909101805460ff191691151591909117905561013054613a7390600190617919565b979650505050505050565b60006301e1338061271062093a80613a968587617a4e565b613aa09190617a4e565b613aaa9190617aa3565b6116529190617aa3565b6000806101308381548110613acb57613acb6178b6565b6000918252602090912060408051610200810190915260149092020180546001600160a01b038082166101008501908152600160a01b830460ff16610120860152600160a81b90920461ffff16610140850152600183015416610160840152600282018054849291849161018085019190613b4590617853565b80601f0160208091040260200160405190810160405280929190818152602001828054613b7190617853565b8015613bbe5780601f10613b9357610100808354040283529160200191613bbe565b820191906000526020600020905b815481529060010190602001808311613ba157829003601f168201915b505050918352505060038201546020808301919091526004830154604080840191909152600590930154606092830152928452815180830183526006860154815260078601548185015284840152815180830183526008860154815260098601548185015284830152815160808082018452600a8701548252600b87015482860152600c87015482850152600d87015460ff161515828401528583019190915282519182018352600e8601548252600f8601548285015260108601548284015284015260118401805482518185028101850190935280835260a0909401939192909190830182828015613cda57602002820191906000526020600020905b81546001600160a01b03168152600190910190602001808311613cbc575b50505091835250506012820154602082015260139091015460ff1615156040909101529050612710613d0e6103e882617919565b602083015151835160c00151613d2491906178a3565b613aaa9190617a4e565b60006116528284615ef3565b606060fe8054610eef90617853565b6101356020528160005260406000208181548110613d6657600080fd5b90600052602060002001600091509150505481565b6000806101308481548110613d9257613d926178b6565b6000918252602090912060149091020160018101549091506001600160a01b03163314613dd15760405162461bcd60e51b815260040161100e90617a65565b600a81015442118015613de75750600b81015442105b8015613df85750600d81015460ff16155b8015613e085750600c8101548311155b8015613e175750600a81015415155b613e335760405162461bcd60e51b815260040161100e90617caa565b600d8101805460ff191660011790556006810154831115613e5957613e57846159f0565b505b6000613e64856113ef565b6004830154613e7391906178a3565b905083826006016000016000828254613e8c9190617919565b909155505060018201548254613eaf916001600160a01b03918216911686615b4e565b506000613ebb866113ef565b6004840154613eca91906178a3565b9050808287600080516020617ea883398151915260405160405180910390a450600195945050505050565b6000613eff615c95565b33613f0984612cae565b6001600160a01b031614613f555760405162461bcd60e51b815260206004820152601360248201527239b2b73232b91034b9903737ba1037bbb732b960691b604482015260640161100e565b60008381526101336020526040812054610130805491929183908110613f7d57613f7d6178b6565b90600052602060002090601402019050600061013460008781526020019081526020016000209050428160040154108015613fbb5750428160050154115b613fd75760405162461bcd60e51b815260040161100e90617caa565b613fe186866158b7565b805460008083556004830181905560058301819055613fff856113ef565b600485015461400e91906178a3565b9050861561401f5761401f88615eff565b81156140515760048401546140349083615ef3565b6004850155835461404f906001600160a01b03163384615b4e565b505b604051828152859033907f7fc4727e062e336010f2c282598ef5f14facb3de68cf8195c2f23e1454b2b74e9060200160405180910390a36000614093866113ef565b60048601546140a291906178a3565b9050808287600080516020617ea883398151915260405160405180910390a460019650505050505050610eda600160ca55565b61013d81815481106140e657600080fd5b6000918252602090912001546001600160a01b0316905081565b61276c338383615fb2565b6000806101308381548110614122576141226178b6565b6000918252602090912060408051610200810190915260149092020180546001600160a01b038082166101008501908152600160a01b830460ff16610120860152600160a81b90920461ffff1661014085015260018301541661016084015260028201805484929184916101808501919061419c90617853565b80601f01602080910402602001604051908101604052809291908181526020018280546141c890617853565b80156142155780601f106141ea57610100808354040283529160200191614215565b820191906000526020600020905b8154815290600101906020018083116141f857829003601f168201915b505050918352505060038201546020808301919091526004830154604080840191909152600590930154606092830152928452815180830183526006860154815260078601548185015284840152815180830183526008860154815260098601548185015284830152815160808082018452600a8701548252600b87015482860152600c87015482850152600d87015460ff161515828401528583019190915282519182018352600e8601548252600f8601548285015260108601548284015284015260118401805482518185028101850190935280835260a090940193919290919083018282801561433157602002820191906000526020600020905b81546001600160a01b03168152600190910190602001808311614313575b50505091835250506012820154602082015260139091015460ff1615156040918201529051015161ffff169392505050565b600080600080610130858154811061437d5761437d6178b6565b6000918252602090912060408051610200810190915260149092020180546001600160a01b038082166101008501908152600160a01b830460ff16610120860152600160a81b90920461ffff166101408501526001830154166101608401526002820180548492918491610180850191906143f790617853565b80601f016020809104026020016040519081016040528092919081815260200182805461442390617853565b80156144705780601f1061444557610100808354040283529160200191614470565b820191906000526020600020905b81548152906001019060200180831161445357829003601f168201915b505050918352505060038201546020808301919091526004830154604080840191909152600590930154606092830152928452815180830183526006860154815260078601548185015284840152815180830183526008860154815260098601548185015284830152815160808082018452600a8701548252600b87015482860152600c87015482850152600d87015460ff161515828401528583019190915282519182018352600e8601548252600f8601548285015260108601548284015284015260118401805482518185028101850190935280835260a090940193919290919083018282801561458c57602002820191906000526020600020905b81546001600160a01b0316815260019091019060200180831161456e575b5050509183525050601282015460208083019190915260139092015460ff1615156040918201526060909201518051918101519201519097919650945092505050565b600061013084815481106145e5576145e56178b6565b6000918252602090912060149091020160018101549091506001600160a01b031633146146245760405162461bcd60e51b815260040161100e90617a65565b6006810154600482015460009161463a916178a3565b8254909150614654906001600160a01b03163330876154e5565b508382600601600001600082825461466c91906178a3565b909155505060068201546004830154600091614687916178a3565b90506146948685876155aa565b50505050505050565b60008060008061013085815481106146b7576146b76178b6565b6000918252602090912060408051610200810190915260149092020180546001600160a01b038082166101008501908152600160a01b830460ff16610120860152600160a81b90920461ffff1661014085015260018301541661016084015260028201805484929184916101808501919061473190617853565b80601f016020809104026020016040519081016040528092919081815260200182805461475d90617853565b80156147aa5780601f1061477f576101008083540402835291602001916147aa565b820191906000526020600020905b81548152906001019060200180831161478d57829003601f168201915b505050918352505060038201546020808301919091526004830154604080840191909152600590930154606092830152928452815180830183526006860154815260078601548185015284840152815180830183526008860154815260098601548185015284830152815160808082018452600a8701548252600b87015482860152600c87015482850152600d87015460ff161515828401528583019190915282519182018352600e8601548252600f8601548285015260108601548284015284015260118401805482518185028101850190935280835260a09094019391929091908301828280156148c657602002820191906000526020600020905b81546001600160a01b031681526001909101906020018083116148a8575b50505091835250506012820154602082015260139091015460ff161515604091820152815160a08101519101519192506149039161ffff16613a7e565b60409091015180516020909101519196909550909350915050565b6034546001600160a01b031633146149875760405162461bcd60e51b815260206004820152602660248201527f6f6e6c792070656e64696e67206f776e65722063616e2061636365707420747260448201526530b739b332b960d11b606482015260840161100e565b603454613031906001600160a01b0316616081565b6149a6338361515b565b6149c25760405162461bcd60e51b815260040161100e906178cc565b6149ce848484846160de565b50505050565b60008061013083815481106149eb576149eb6178b6565b6000918252602090912060149091020160018101549091506001600160a01b0316331480614a2357506033546001600160a01b031633145b614a3f5760405162461bcd60e51b815260040161100e90617a65565b601381015460ff16614a855760405162461bcd60e51b815260206004820152600f60248201526e506f6f6c206e6f742061637469766560881b604482015260640161100e565b60138101805460ff1916905542601290910155506001919050565b600054610100900460ff1615808015614ac05750600054600160ff909116105b80614ada5750303b158015614ada575060005460ff166001145b614b3d5760405162461bcd60e51b815260206004820152602e60248201527f496e697469616c697a61626c653a20636f6e747261637420697320616c72656160448201526d191e481a5b9a5d1a585b1a5e995960921b606482015260840161100e565b6000805460ff191660011790558015614b60576000805461ff0019166101001790555b614b68616111565b61013980546001600160a01b0319166001600160a01b038416179055801561276c576000805461ff0019169055604051600181527f7f26b83ff96e1f2b6a682f133852f6798a09c465da95921460cefb38474024989060200160405180910390a15050565b6060614bd88261508d565b6000614bef60408051602081019091526000815290565b90506000815111614c0f5760405180602001604052806000815250611652565b80614c1984616140565b604051602001614c2a929190617cf3565b6040516020818303038152906040529392505050565b6000614c4a615340565b6001600160a01b03831660009081526101376020908152604080832054610136909252822054614c7a91906178a3565b6001600160a01b038516600081815261013660209081526040808320839055610137909152812055909150614cb0908483615b4e565b506001949350505050565b6000806101308381548110614cd257614cd26178b6565b6000918252602090912060408051610200810190915260149092020180546001600160a01b038082166101008501908152600160a01b830460ff16610120860152600160a81b90920461ffff16610140850152600183015416610160840152600282018054849291849161018085019190614d4c90617853565b80601f0160208091040260200160405190810160405280929190818152602001828054614d7890617853565b8015614dc55780601f10614d9a57610100808354040283529160200191614dc5565b820191906000526020600020905b815481529060010190602001808311614da857829003601f168201915b505050918352505060038201546020808301919091526004830154604080840191909152600590930154606092830152928452815180830183526006860154815260078601548185015284840152815180830183526008860154815260098601548185015284830152815160808082018452600a8701548252600b87015482860152600c87015482850152600d87015460ff161515828401528583019190915282519182018352600e8601548252600f8601548285015260108601548284015284015260118401805482518185028101850190935280835260a0909401939192909190830182828015614ee157602002820191906000526020600020905b81546001600160a01b03168152600190910190602001808311614ec3575b50505091835250506012820154602082015260139091015460ff1615156040909101525160c001519392505050565b6000614f1a615340565b61013d5460005b818110156118cf57600061013d8281548110614f3f57614f3f6178b6565b60009182526020808320909101546001600160a01b03168083526101378252604080842054610136909352832054909350614f7a91906178a3565b905080600003614f8b575050614fc2565b6001600160a01b038216600081815261013660209081526040808320839055610137909152812055614fbe908783615b4e565b5050505b614fcb81617942565b9050614f21565b614fda615340565b6001600160a01b03811661503f5760405162461bcd60e51b815260206004820152602660248201527f4f776e61626c653a206e6577206f776e657220697320746865207a65726f206160448201526564647265737360d01b606482015260840161100e565b603480546001600160a01b0319166001600160a01b0392909216919091179055565b615069615c95565b6150748160016158b7565b611c81600160ca55565b6001600160a01b03163b151590565b600081815260ff60205260409020546001600160a01b0316611c815760405162461bcd60e51b8152602060048201526018602482015277115490cdcc8c4e881a5b9d985b1a59081d1bdad95b88125160421b604482015260640161100e565b60008181526101016020526040902080546001600160a01b0319166001600160a01b038416908117909155819061512282612cae565b6001600160a01b03167f8c5be1e5ebec7d5bd14f71427d1e84f3dd0314c0f7b2291e5b200ac8c7c3b92560405160405180910390a45050565b60008061516783612cae565b9050806001600160a01b0316846001600160a01b031614806151af57506001600160a01b038082166000908152610102602090815260408083209388168352929052205460ff165b806136f55750836001600160a01b03166151c884610f72565b6001600160a01b031614949350505050565b826001600160a01b03166151ed82612cae565b6001600160a01b0316146152135760405162461bcd60e51b815260040161100e90617d22565b6001600160a01b0382166152755760405162461bcd60e51b8152602060048201526024808201527f4552433732313a207472616e7366657220746f20746865207a65726f206164646044820152637265737360e01b606482015260840161100e565b826001600160a01b031661528882612cae565b6001600160a01b0316146152ae5760405162461bcd60e51b815260040161100e90617d22565b60008181526101016020908152604080832080546001600160a01b03199081169091556001600160a01b03878116808652610100855283862080546000190190559087168086528386208054600101905586865260ff90945282852080549092168417909155905184937fddf252ad1be2c89b69c2b068fc378daa952ba7f163c4a11628f55a4df523b3ef91a4505050565b6033546001600160a01b031633146130315760405162461bcd60e51b815260206004820181905260248201527f4f776e61626c653a2063616c6c6572206973206e6f7420746865206f776e6572604482015260640161100e565b600061013083815481106153b0576153b06178b6565b6000918252602082206014919091020160088101546003820154825492945085926153e69190600160a81b900461ffff16613a7e565b6153f09190617919565b6153fa91906178a3565b6001830154835491925061541c916001600160a01b03908116911630846154e5565b50600061271061542e6103e884617a4e565b6154389190617aa3565b90508183600801600001600082825461545191906178a3565b909155505082546001600160a01b031660009081526101376020526040812080548392906154809084906178a3565b90915550600090506154928284617919565b9050808460080160010160008282546154ab91906178a3565b9091555050604051839087907fadb049ad2d09be3db90459a16aef1ad0a4d89e8fdcc1ade9429d6cc55abbcd2b90600090a3505050505050565b6040516001600160a01b0380851660248301528316604482015260648101829052600090614cb09086906323b872dd60e01b906084015b60408051601f198184030181529190526020810180516001600160e01b03166001600160e01b0319909316929092179091526161d1565b6000670eb5e06245ea0000615570670de0b6b3a764000084617a4e565b61557a9190617aa3565b9050806101308481548110615591576155916178b6565b6000918252602090912060056014909202010155505050565b60008061013085815481106155c1576155c16178b6565b906000526020600020906014020190506000846040516020016155e491906172ca565b60408051601f198184030181529181528151602092830120600089815261013b90935291205490915080821461573a57600061561f886159f0565b9050600061562d89896162a3565b90506001600160a01b0381161561571a578061564983896178a3565b60068701805460009061565d908490617919565b9091555061566d905083896178a3565b6007870180546000906156819084906178a3565b909155506156a7905082615695858b6178a3565b88546001600160a01b03169190615b4e565b5060405163d33b0aa760e01b8152600160048201526001600160a01b0382169063d33b0aa7906024016020604051808303816000875af11580156156ef573d6000803e3d6000fd5b505050506040513d601f19601f820116820180604052508101906157139190617d67565b5050615737565b8685600601600001600082825461573191906178a3565b90915550505b50505b5050509392505050565b611c81615340565b7f4910fdfa16fed3260ed0e7147f7cc6da11a60208b5b9406d12a635614ffd91435460ff161561577f576110af836163e2565b826001600160a01b03166352d1902d6040518163ffffffff1660e01b8152600401602060405180830381865afa9250505080156157d9575060408051601f3d908101601f191682019092526157d691810190617d67565b60015b61583c5760405162461bcd60e51b815260206004820152602e60248201527f45524331393637557067726164653a206e657720696d706c656d656e7461746960448201526d6f6e206973206e6f74205555505360901b606482015260840161100e565b600080516020617ec883398151915281146158ab5760405162461bcd60e51b815260206004820152602960248201527f45524331393637557067726164653a20756e737570706f727465642070726f786044820152681a58589b195555525160ba1b606482015260840161100e565b506110af83838361647e565b600082815261013360205260408120546101308054919291839081106158df576158df6178b6565b6000918252602080832087845261013490915260408320601490920201925090808061590a886122eb565b92509250925086615958578460120154600003615927574261592d565b84601201545b84600301819055508084600201600082825461594991906178a3565b90915550505050505050505050565b600885015483111561596e5761596e868461539a565b8215611b70576000600285018190556012860154900361598e5742615994565b84601201545b60038501556008850180548491906000906159b0908490617919565b90915550506009850180548391906000906159cc908490617919565b90915550611b6e90506159de89612cae565b86546001600160a01b03169084615b4e565b6000806101308381548110615a0757615a076178b6565b6000918252602080832086845261013b909152604083205460149092020192508015615b4657600085815261013a602090815260408083208484528252808320548151637f1f087360e01b815291516001600160a01b0390911693928492637f1f08739260048083019392829003018187875af1158015615a8c573d6000803e3d6000fd5b505050506040513d601f19601f82011682018060405250810190615ab09190617d67565b60405163f840cb8360e01b815260016004820152602481018290529091506001600160a01b0383169063f840cb83906044016020604051808303816000875af1158015615b01573d6000803e3d6000fd5b505050506040513d601f19601f82011682018060405250810190615b259190617d67565b935083856006016000016000828254615b3e91906178a3565b909155505050505b509392505050565b6040516001600160a01b0383166024820152604481018290526000906118cf90859063a9059cbb60e01b9060640161551c565b6000806101308381548110615b9857615b986178b6565b6000918252602090912060036014909202010154615bbe670de0b6b3a764000086617a4e565b615bc89190617aa3565b9050615bd5816005617a4e565b91509250929050565b6000615bf4670de0b6b3a7640000600019617aa3565b821115615c17576040516322630c4560e01b81526004810183905260240161100e565b670de0b6b3a76400008202610eda565b6000610eda6714057b7ef767814f670de0b6b3a7640000615c4d615c4a866164a3565b90565b0281615c5b57615c5b617a8d565b0490565b6000611652615c4a8385617919565b6000611652615c4a84846165d9565b6000611652615c4a84670de0b6b3a76400008561668d565b600260ca5403615ce75760405162461bcd60e51b815260206004820152601f60248201527f5265656e7472616e637947756172643a207265656e7472616e742063616c6c00604482015260640161100e565b600260ca55565b60006001600160a01b038316615d465760405162461bcd60e51b815260206004820152601f60248201527f45524332303a206d696e7420746f20746865207a65726f206164647265737300604482015260640161100e565b6000615d528584612949565b90506000615d5f85616761565b9050615d9a6040518060c001604052806000815260200160008152602001600081526020016000815260200160008152602001600081525090565b84815260208082018481524260608401908152600085815261013484526040808220865181559351600180860191909155818701516002860155925160038501556080860151600485015560a08601516005909401939093558a815261013584528281208054928301815581528381209091018590558481526101339092529020879055610130805486919089908110615e3657615e366178b6565b9060005260206000209060140201600e016002016000828254615e5991906178a3565b92505081905550615e92876101308981548110615e7857615e786178b6565b9060005260206000209060140201600e0160020154616908565b50909695505050505050565b600080670de0b6b3a7640000615ebc84670928ca80cfc20000617a4e565b615ec69190617aa3565b615ed89067016345785d8a00006178a3565b9050611652816ec097ce7bc90715b34b9f1000000000617aa3565b60006116528284617919565b60008181526101336020908152604080832054610134835292819020815160c0810183528154815260018201549381019390935260028101549183019190915260038101546060830152600481015460808301526005015460a0820152615f658361693c565b615f6e836169d3565b8051610130805484908110615f8557615f856178b6565b9060005260206000209060140201600e016002016000828254615fa89190617919565b9091555050505050565b816001600160a01b0316836001600160a01b0316036160135760405162461bcd60e51b815260206004820152601960248201527f4552433732313a20617070726f766520746f2063616c6c657200000000000000604482015260640161100e565b6001600160a01b0383811660008181526101026020908152604080832094871680845294825291829020805460ff191686151590811790915591519182527f17307eab39ab6107e8899845ad3d59bd9653f200f220920489ca2b5937696c31910160405180910390a3505050565b603380546001600160a01b038381166001600160a01b03198084168217909455603480549094169093556040519116919082907f8be0079c531659141344cd1fd0a4f28419497f9722a3daafe3b4186f6b6457e090600090a35050565b6160e98484846151da565b6160f584848484616b99565b6149ce5760405162461bcd60e51b815260040161100e90617d80565b600054610100900460ff166161385760405162461bcd60e51b815260040161100e90617dd2565b613031616c97565b6060600061614d83616cc7565b600101905060008167ffffffffffffffff81111561616d5761616d6174ef565b6040519080825280601f01601f191660200182016040528015616197576020820181803683370190505b5090508181016020015b600019016f181899199a1a9b1b9c1cb0b131b232b360811b600a86061a8153600a850494508415615b46576161a1565b6000616226826040518060400160405280602081526020017f5361666545524332303a206c6f772d6c6576656c2063616c6c206661696c6564815250856001600160a01b0316616d9f9092919063ffffffff16565b8051909150156110af57808060200190518101906162449190617e1d565b6110af5760405162461bcd60e51b815260206004820152602a60248201527f5361666545524332303a204552433230206f7065726174696f6e20646964206e6044820152691bdd081cdd58d8d9595960b21b606482015260840161100e565b6000806000836040516020016162b991906172ca565b60408051601f198184030181529181528151602092830120600088815261013a84528281208282529093529120549091506001600160a01b0316806163735761013954604051632f3802cf60e11b81526001600160a01b0390911690635e70059e906163299088906004016172ca565b6020604051808303816000875af1158015616348573d6000803e3d6000fd5b505050506040513d601f19601f8201168201806040525081019061636c9190617e3a565b925061637d565b9250610eda915050565b6001600160a01b0383166163975760009350505050610eda565b50600085815261013a60209081526040808320848452825280832080546001600160a01b0319166001600160a01b03871617905596825261013b905294909420939093555090919050565b6001600160a01b0381163b61644f5760405162461bcd60e51b815260206004820152602d60248201527f455243313936373a206e657720696d706c656d656e746174696f6e206973206e60448201526c1bdd08184818dbdb9d1c9858dd609a1b606482015260840161100e565b600080516020617ec883398151915280546001600160a01b0319166001600160a01b0392909216919091179055565b61648783616dae565b6000825111806164945750805b156110af576149ce8383616dee565b600081670de0b6b3a76400008110156164d257604051633621413760e21b81526004810184905260240161100e565b600061655e670de0b6b3a7640000830460016fffffffffffffffffffffffffffffffff821160071b91821c67ffffffffffffffff811160061b90811c63ffffffff811160051b90811c61ffff811160041b90811c60ff8111600390811b91821c600f811160021b90811c918211871b91821c969096119490961792909217171791909117919091171790565b9050670de0b6b3a7640000810282821c670de0b6b3a763ffff19810161658a57815b9695505050505050565b671bc16d674ec800006706f05b59d3b200005b80156165cd57670de0b6b3a76400008380020492508183106165c5579283019260019290921c915b60011c61659d565b50919695505050505050565b60008080600019848609848602925082811083820303915050670de0b6b3a764000081106166245760405163090638d560e41b8152600481018690526024810185905260440161100e565b6000670de0b6b3a7640000858709905081600003616650575050670de0b6b3a764000090049050610eda565b620400008184030492109003600160ee1b02177faccb18165bd6fe31ae1cf318dc5b51eee0e1ba569b88cd74c1773b91fac1066902905092915050565b60008080600019858709858702925082811083820303915050806000036166c7578382816166bd576166bd617a8d565b0492505050611652565b8381106166f8576040516307639aaf60e41b815260048101879052602481018690526044810185905260640161100e565b60008486880960026001871981018816978890046003810283188082028403028082028403028082028403028082028403028082028403029081029092039091026000889003889004909101858311909403939093029303949094049190911702949350505050565b6000806101036000815461677490617942565b918290555090506001600160a01b0383166167d15760405162461bcd60e51b815260206004820181905260248201527f4552433732313a206d696e7420746f20746865207a65726f2061646472657373604482015260640161100e565b600081815260ff60205260409020546001600160a01b0316156168365760405162461bcd60e51b815260206004820152601c60248201527f4552433732313a20746f6b656e20616c7265616479206d696e74656400000000604482015260640161100e565b600081815260ff60205260409020546001600160a01b03161561689b5760405162461bcd60e51b815260206004820152601c60248201527f4552433732313a20746f6b656e20616c7265616479206d696e74656400000000604482015260640161100e565b6001600160a01b0383166000818152610100602090815260408083208054600101905584835260ff90915280822080546001600160a01b0319168417905551839291907fddf252ad1be2c89b69c2b068fc378daa952ba7f163c4a11628f55a4df523b3ef908290a4610eda565b600081610130848154811061691f5761691f6178b6565b60009182526020909120600e601490920201015550600192915050565b600061694782612cae565b905061695282612cae565b60008381526101016020908152604080832080546001600160a01b03199081169091556001600160a01b0385168085526101008452828520805460001901905587855260ff909352818420805490911690555192935084927fddf252ad1be2c89b69c2b068fc378daa952ba7f163c4a11628f55a4df523b3ef908390a45050565b6000818152610133602090815260408083205480845261013583528184208054835181860281018601909452808452919493909190830182828015616a3757602002820191906000526020600020905b815481526020019060010190808311616a23575b5050835193945060009250829150505b82811015616a875785848281518110616a6257616a626178b6565b602002602001015103616a7757809150616a87565b616a8081617942565b9050616a47565b50818110616ad75760405162461bcd60e51b815260206004820152601860248201527f546f6b656e206e6f7420666f756e6420696e2061727261790000000000000000604482015260640161100e565b805b616ae4600184617919565b811015616b3c5783616af78260016178a3565b81518110616b0757616b076178b6565b6020026020010151848281518110616b2157616b216178b6565b6020908102919091010152616b3581617942565b9050616ad9565b506000848152610135602090815260409091208451616b5d928601906171f7565b50600084815261013560205260409020805480616b7c57616b7c61792c565b600190038181906000526020600020016000905590555050505050565b60006001600160a01b0384163b15616c8f57604051630a85bd0160e11b81526001600160a01b0385169063150b7a0290616bdd903390899088908890600401617e57565b6020604051808303816000875af1925050508015616c18575060408051601f3d908101601f19168201909252616c1591810190617e8a565b60015b616c75573d808015616c46576040519150601f19603f3d011682016040523d82523d6000602084013e616c4b565b606091505b508051600003616c6d5760405162461bcd60e51b815260040161100e90617d80565b805181602001fd5b6001600160e01b031916630a85bd0160e11b1490506136f5565b5060016136f5565b600054610100900460ff16616cbe5760405162461bcd60e51b815260040161100e90617dd2565b61303133616081565b60008072184f03e93ff9f4daa797ed6e38ed64bf6a1f0160401b8310616d065772184f03e93ff9f4daa797ed6e38ed64bf6a1f0160401b830492506040015b6d04ee2d6d415b85acef81000000008310616d32576d04ee2d6d415b85acef8100000000830492506020015b662386f26fc100008310616d5057662386f26fc10000830492506010015b6305f5e1008310616d68576305f5e100830492506008015b6127108310616d7c57612710830492506004015b60648310616d8e576064830492506002015b600a8310610eda5760010192915050565b60606136f58484600085616ee2565b616db7816163e2565b6040516001600160a01b038216907fbc7cd75a20ee27fd9adebab32041f755214dbc6bffa90cc0225b39da2e5c2d3b90600090a250565b60606001600160a01b0383163b616e565760405162461bcd60e51b815260206004820152602660248201527f416464726573733a2064656c65676174652063616c6c20746f206e6f6e2d636f6044820152651b9d1c9858dd60d21b606482015260840161100e565b600080846001600160a01b031684604051616e719190617b5d565b600060405180830381855af49150503d8060008114616eac576040519150601f19603f3d011682016040523d82523d6000602084013e616eb1565b606091505b5091509150616ed98282604051806060016040528060278152602001617ee860279139616fb2565b95945050505050565b606082471015616f435760405162461bcd60e51b815260206004820152602660248201527f416464726573733a20696e73756666696369656e742062616c616e636520666f6044820152651c8818d85b1b60d21b606482015260840161100e565b600080866001600160a01b03168587604051616f5f9190617b5d565b60006040518083038185875af1925050503d8060008114616f9c576040519150601f19603f3d011682016040523d82523d6000602084013e616fa1565b606091505b5091509150613a7387838387616fcb565b60608315616fc1575081611652565b6116528383617040565b6060831561703a578251600003617033576001600160a01b0385163b6170335760405162461bcd60e51b815260206004820152601d60248201527f416464726573733a2063616c6c20746f206e6f6e2d636f6e7472616374000000604482015260640161100e565b50816136f5565b6136f583835b8151156170505781518083602001fd5b8060405162461bcd60e51b815260040161100e91906172ca565b5080546000825590600052602060002090810190611c819190617232565b6040805161020081019091526000610100820181815261012083018290526101408301829052610160830182905260606101808401526101a083018290526101c083018290526101e0830191909152819081526020016170fb604051806040016040528060008152602001600081525090565b815260200161711d604051806040016040528060008152602001600081525090565b815260200161714f60405180608001604052806000815260200160008152602001600081526020016000151581525090565b815260200161717860405180606001604052806000815260200160008152602001600081525090565b815260606020820181905260006040830181905291015290565b8280548282559060005260206000209081019282156171e7579160200282015b828111156171e757825182546001600160a01b0319166001600160a01b039091161782556020909201916001909101906171b2565b506171f3929150617232565b5090565b8280548282559060005260206000209081019282156171e7579160200282015b828111156171e7578251825591602001919060010190617217565b5b808211156171f35760008155600101617233565b6001600160e01b031981168114611c8157600080fd5b60006020828403121561726f57600080fd5b813561165281617247565b60005b8381101561729557818101518382015260200161727d565b50506000910152565b600081518084526172b681602086016020860161727a565b601f01601f19169290920160200192915050565b602081526000611652602083018461729e565b600080604083850312156172f057600080fd5b50508035926020909101359150565b60006020828403121561731157600080fd5b5035919050565b6001600160a01b0381168114611c8157600080fd5b6000806040838503121561734057600080fd5b823561734b81617318565b946020939093013593505050565b6101c080825288516001600160a01b0390811691830191909152602089015160ff166101e0830152604089015161ffff1661020083015260608901511661022082015260808801516101006102408301526000906173bb6102c084018261729e565b60a08b015161026085015260c08b015161028085015260e08b01516102a085015291506173f79050602083018980518252602090810151910152565b8651606083015260208701516080830152855160a0830152602086015160c0830152604086015160e083015260608601511515610100830152845161012083015260208501516101408301526040850151610160830152836101808301526174646101a083018415159052565b98975050505050505050565b60008060006060848603121561748557600080fd5b833561749081617318565b925060208401356174a081617318565b929592945050506040919091013590565b8015158114611c8157600080fd5b6000806000606084860312156174d457600080fd5b83356174df81617318565b925060208401356174a0816174b1565b634e487b7160e01b600052604160045260246000fd5b600082601f83011261751657600080fd5b813567ffffffffffffffff80821115617531576175316174ef565b604051601f8301601f19908116603f01168101908282118183101715617559576175596174ef565b8160405283815286602085880101111561757257600080fd5b836020870160208301376000602085830101528094505050505092915050565b600080600080600060a086880312156175aa57600080fd5b8535945060208601359350604086013561ffff811681146175ca57600080fd5b925060608601359150608086013567ffffffffffffffff8111156175ed57600080fd5b6175f988828901617505565b9150509295509295909350565b60006020828403121561761857600080fd5b813561165281617318565b60008060006060848603121561763857600080fd5b8335925060208401356174a081617318565b6000806040838503121561765d57600080fd5b823561766881617318565b9150602083013567ffffffffffffffff81111561768457600080fd5b61769085828601617505565b9150509250929050565b6000806000606084860312156176af57600080fd5b83356176ba81617318565b925060208401356176ca81617318565b9150604084013567ffffffffffffffff8111156176e657600080fd5b6176f286828701617505565b9150509250925092565b6000806040838503121561770f57600080fd5b823591506020830135617721816174b1565b809150509250929050565b6000806040838503121561773f57600080fd5b823561774a81617318565b91506020830135617721816174b1565b60008060006060848603121561776f57600080fd5b8335925060208401359150604084013567ffffffffffffffff8111156176e657600080fd5b600080600080608085870312156177aa57600080fd5b84356177b581617318565b935060208501356177c581617318565b925060408501359150606085013567ffffffffffffffff8111156177e857600080fd5b6177f487828801617505565b91505092959194509250565b6000806040838503121561781357600080fd5b82359150602083013561772181617318565b6000806040838503121561783857600080fd5b823561784381617318565b9150602083013561772181617318565b600181811c9082168061786757607f821691505b60208210810361788757634e487b7160e01b600052602260045260246000fd5b50919050565b634e487b7160e01b600052601160045260246000fd5b80820180821115610eda57610eda61788d565b634e487b7160e01b600052603260045260246000fd5b6020808252602d908201527f4552433732313a2063616c6c6572206973206e6f7420746f6b656e206f776e6560408201526c1c881bdc88185c1c1c9bdd9959609a1b606082015260800190565b81810381811115610eda57610eda61788d565b634e487b7160e01b600052603160045260246000fd5b6000600182016179545761795461788d565b5060010190565b600181815b8085111561799657816000190482111561797c5761797c61788d565b8085161561798957918102915b93841c9390800290617960565b509250929050565b6000826179ad57506001610eda565b816179ba57506000610eda565b81600181146179d057600281146179da576179f6565b6001915050610eda565b60ff8411156179eb576179eb61788d565b50506001821b610eda565b5060208310610133831016604e8410600b8410161715617a19575081810a610eda565b617a23838361795b565b8060001904821115617a3757617a3761788d565b029392505050565b600061165260ff84168361799e565b8082028115828204841417610eda57610eda61788d565b6020808252600e908201526d139bdd08185d5d1a1bdc9a5e995960921b604082015260600190565b634e487b7160e01b600052601260045260246000fd5b600082617ac057634e487b7160e01b600052601260045260246000fd5b500490565b6020808252602c908201527f46756e6374696f6e206d7573742062652063616c6c6564207468726f7567682060408201526b19195b1959d85d1958d85b1b60a21b606082015260800190565b6020808252602c908201527f46756e6374696f6e206d7573742062652063616c6c6564207468726f7567682060408201526b6163746976652070726f787960a01b606082015260800190565b60008251617b6f81846020870161727a565b9190910192915050565b600060208284031215617b8b57600080fd5b815160ff8116811461165257600080fd5b601f8211156110af57600081815260208120601f850160051c81016020861015617bc35750805b601f850160051c820191505b81811015617be257828155600101617bcf565b505050505050565b815167ffffffffffffffff811115617c0457617c046174ef565b617c1881617c128454617853565b84617b9c565b602080601f831160018114617c4d5760008415617c355750858301515b600019600386901b1c1916600185901b178555617be2565b600085815260208120601f198616915b82811015617c7c57888601518255948401946001909101908401617c5d565b5085821015617c9a5787850151600019600388901b60f8161c191681555b5050505050600190811b01905550565b60208082526029908201527f54696d656c6f636b206e6f7420736574206f72206e6f7420636f6d706c6574656040820152686420696e2074696d6560b81b606082015260800190565b60008351617d0581846020880161727a565b835190830190617d1981836020880161727a565b01949350505050565b60208082526025908201527f4552433732313a207472616e736665722066726f6d20696e636f72726563742060408201526437bbb732b960d91b606082015260800190565b600060208284031215617d7957600080fd5b5051919050565b60208082526032908201527f4552433732313a207472616e7366657220746f206e6f6e20455243373231526560408201527131b2b4bb32b91034b6b83632b6b2b73a32b960711b606082015260800190565b6020808252602b908201527f496e697469616c697a61626c653a20636f6e7472616374206973206e6f74206960408201526a6e697469616c697a696e6760a81b606082015260800190565b600060208284031215617e2f57600080fd5b8151611652816174b1565b600060208284031215617e4c57600080fd5b815161165281617318565b6001600160a01b03858116825284166020820152604081018390526080606082018190526000906165809083018461729e565b600060208284031215617e9c57600080fd5b81516116528161724756fea3ea4fb8dee4d414198cb197af6eae4fe483c1a0b849dc50e53b9bf1a60e2166360894a13ba1a3210667c828492db98dca3e2076cc3735a920a3ca505d382bbc416464726573733a206c6f772d6c6576656c2064656c65676174652063616c6c206661696c6564a264697066735822122070c95c37c227c8e5ee889fda0a6eed3a09f76f0d3bd552e208a776c144de8a5464736f6c63430008110033496e697469616c697a61626c653a20636f6e7472616374206973206e6f742069",
    "linkReferences": {}
  },
  "methodIdentifiers": {
    "acceptOwnershipTransfer()": "b842e87f",
    "activeStrategies(uint256)": "b20b2429",
    "activeTokens(uint256)": "9f224f35",
    "addNewBountyPool(address,address,string)": "804fd590",
    "approve(address,uint256)": "095ea7b3",
    "balanceOf(address)": "70a08231",
    "billPremium(uint256)": "2dbe051e",
    "calcRequiredPremiumBalancePerPeriod(uint256,uint256)": "836ef1fa",
    "calculateEffectiveAPY(uint256,uint256)": "5c46f7b1",
    "claimPremium(uint256)": "f47ec3be",
    "collectAllSaloonProfits(address)": "ecd7fbed",
    "collectSaloonProfits(address,address)": "cf9564b9",
    "consolidate()": "724f024b",
    "getApproved(uint256)": "081812fc",
    "getCurrentAPY(uint256)": "7fbf3853",
    "getMultiplier(uint256,uint256)": "8dbb1e3a",
    "index()": "2986c0e5",
    "initialize(address)": "c4d66de8",
    "isApprovedForAll(address,address)": "e985e9c5",
    "makeProjectDeposit(uint256,uint256,string)": "ae07f948",
    "minTokenStakeAmount(address)": "39458723",
    "nFTInfo(uint256,address)": "cc6f6b5b",
    "name()": "06fdde03",
    "nftAPY(uint256)": "1df56622",
    "nftBalance(uint256)": "e63d6ee4",
    "nftInfo(uint256)": "1f8bc790",
    "nftToPid(uint256)": "612afc0c",
    "owner()": "8da5cb5b",
    "ownerOf(uint256)": "6352211e",
    "payBounty(uint256,address,uint256)": "3ac6ad7b",
    "pendingPremium(uint256)": "40bd1d00",
    "pidNFTList(uint256,uint256)": "96ea48e8",
    "pidStrategies(uint256,bytes32)": "074ecf03",
    "poolInfo(uint256)": "1526fe27",
    "poolLength()": "081e3eda",
    "projectDepositWithdrawal(uint256,uint256)": "983c1ce0",
    "proxiableUUID()": "52d1902d",
    "safeTransferFrom(address,address,uint256)": "42842e0e",
    "safeTransferFrom(address,address,uint256,bytes)": "b88d4fde",
    "saloonBountyProfit(address)": "e45abd0f",
    "saloonPremiumProfit(address)": "ca006148",
    "scheduleProjectDepositWithdrawal(uint256,uint256)": "5669cbef",
    "scheduleUnstake(uint256)": "106d08df",
    "setAPYandPoolCapAndDeposit(uint256,uint256,uint16,uint256,string)": "30ca0794",
    "setApprovalForAll(address,bool)": "a22cb465",
    "stake(uint256,uint256)": "7b0472f0",
    "supportsInterface(bytes4)": "01ffc9a7",
    "symbol()": "95d89b41",
    "tokenURI(uint256)": "c87b56dd",
    "tokenWhitelist(address)": "753d7563",
    "transferFrom(address,address,uint256)": "23b872dd",
    "transferOwnership(address)": "f2fde38b",
    "unstake(uint256,bool)": "9ebea88c",
    "updateStrategyFactoryAddress(address)": "3538fda0",
    "updateTokenWhitelist(address,bool,uint256)": "2cb0dfcc",
    "upgradeTo(address)": "3659cfe6",
    "upgradeToAndCall(address,bytes)": "4f1ef286",
    "viewBountyBalance(uint256)": "6ac6d812",
    "viewBountyInfo(uint256)": "40ef2868",
    "viewHackerPayout(uint256)": "861e5f66",
    "viewMinProjectDeposit(uint256)": "1c6b323f",
    "viewPoolAPY(uint256)": "a27f9213",
    "viewPoolCap(uint256)": "39679ff4",
    "viewPoolPremiumInfo(uint256)": "b1a2d16f",
    "viewPoolTimelockInfo(uint256)": "ac30b856",
    "viewSaloonProfitBalance(address)": "718c7eef",
    "viewTokenInfo(uint256)": "10725852",
    "viewTotalStaked(uint256)": "dbdd6957",
    "viewUserUnclaimed(uint256)": "19693071",
    "windDownBounty(uint256)": "bb7019c1"
  },
  "id": 46
}