{
  "abi": [
    {
      "anonymous": false,
      "inputs": [
        {
          "indexed": false,
          "internalType": "address",
          "name": "previousAdmin",
          "type": "address"
        },
        {
          "indexed": false,
          "internalType": "address",
          "name": "newAdmin",
          "type": "address"
        }
      ],
      "name": "AdminChanged",
      "type": "event"
    },
    {
      "anonymous": false,
      "inputs": [
        {
          "indexed": true,
          "internalType": "address",
          "name": "beacon",
          "type": "address"
        }
      ],
      "name": "BeaconUpgraded",
      "type": "event"
    },
    {
      "anonymous": false,
      "inputs": [
        {
          "indexed": true,
          "internalType": "uint256",
          "name": "pid",
          "type": "uint256"
        },
        {
          "indexed": true,
          "internalType": "uint256",
          "name": "oldAmount",
          "type": "uint256"
        },
        {
          "indexed": true,
          "internalType": "uint256",
          "name": "newAmount",
          "type": "uint256"
        }
      ],
      "name": "BountyBalanceChanged",
      "type": "event"
    },
    {
      "anonymous": false,
      "inputs": [
        {
          "indexed": true,
          "internalType": "uint256",
          "name": "time",
          "type": "uint256"
        },
        {
          "indexed": true,
          "internalType": "address",
          "name": "hunter",
          "type": "address"
        },
        {
          "indexed": true,
          "internalType": "address",
          "name": "token",
          "type": "address"
        },
        {
          "indexed": false,
          "internalType": "uint256",
          "name": "amount",
          "type": "uint256"
        }
      ],
      "name": "BountyPaid",
      "type": "event"
    },
    {
      "anonymous": false,
      "inputs": [
        {
          "indexed": false,
          "internalType": "uint8",
          "name": "version",
          "type": "uint8"
        }
      ],
      "name": "Initialized",
      "type": "event"
    },
    {
      "anonymous": false,
      "inputs": [
        {
          "indexed": true,
          "internalType": "uint256",
          "name": "pid",
          "type": "uint256"
        },
        {
          "indexed": true,
          "internalType": "address",
          "name": "token",
          "type": "address"
        },
        {
          "indexed": true,
          "internalType": "uint256",
          "name": "tokenDecimals",
          "type": "uint256"
        }
      ],
      "name": "NewBountyDeployed",
      "type": "event"
    },
    {
      "anonymous": false,
      "inputs": [
        {
          "indexed": true,
          "internalType": "address",
          "name": "previousOwner",
          "type": "address"
        },
        {
          "indexed": true,
          "internalType": "address",
          "name": "newOwner",
          "type": "address"
        }
      ],
      "name": "OwnershipTransferred",
      "type": "event"
    },
    {
      "anonymous": false,
      "inputs": [
        {
          "indexed": true,
          "internalType": "uint256",
          "name": "pid",
          "type": "uint256"
        },
        {
          "indexed": true,
          "internalType": "uint256",
          "name": "amount",
          "type": "uint256"
        }
      ],
      "name": "PremiumBilled",
      "type": "event"
    },
    {
      "anonymous": false,
      "inputs": [
        {
          "indexed": true,
          "internalType": "address",
          "name": "user",
          "type": "address"
        },
        {
          "indexed": true,
          "internalType": "uint256",
          "name": "pid",
          "type": "uint256"
        },
        {
          "indexed": false,
          "internalType": "uint256",
          "name": "amount",
          "type": "uint256"
        }
      ],
      "name": "Staked",
      "type": "event"
    },
    {
      "anonymous": false,
      "inputs": [
        {
          "indexed": true,
          "internalType": "address",
          "name": "user",
          "type": "address"
        },
        {
          "indexed": true,
          "internalType": "uint256",
          "name": "pid",
          "type": "uint256"
        },
        {
          "indexed": false,
          "internalType": "uint256",
          "name": "amount",
          "type": "uint256"
        }
      ],
      "name": "Unstaked",
      "type": "event"
    },
    {
      "anonymous": false,
      "inputs": [
        {
          "indexed": true,
          "internalType": "address",
          "name": "implementation",
          "type": "address"
        }
      ],
      "name": "Upgraded",
      "type": "event"
    },
    {
      "anonymous": false,
      "inputs": [
        {
          "indexed": true,
          "internalType": "uint256",
          "name": "pid",
          "type": "uint256"
        },
        {
          "indexed": true,
          "internalType": "uint256",
          "name": "amount",
          "type": "uint256"
        }
      ],
      "name": "WithdrawalOrUnstakeScheduled",
      "type": "event"
    },
    {
      "anonymous": false,
      "inputs": [
        {
          "indexed": true,
          "internalType": "address",
          "name": "token",
          "type": "address"
        },
        {
          "indexed": true,
          "internalType": "bool",
          "name": "whitelisted",
          "type": "bool"
        }
      ],
      "name": "tokenWhitelistUpdated",
      "type": "event"
    },
    {
      "inputs": [],
      "name": "acceptOwnershipTransfer",
      "outputs": [],
      "stateMutability": "nonpayable",
      "type": "function"
    },
    {
      "inputs": [
        {
          "internalType": "uint256",
          "name": "",
          "type": "uint256"
        }
      ],
      "name": "activeStrategies",
      "outputs": [
        {
          "internalType": "bytes32",
          "name": "",
          "type": "bytes32"
        }
      ],
      "stateMutability": "view",
      "type": "function"
    },
    {
      "inputs": [
        {
          "internalType": "uint256",
          "name": "",
          "type": "uint256"
        }
      ],
      "name": "activeTokens",
      "outputs": [
        {
          "internalType": "address",
          "name": "",
          "type": "address"
        }
      ],
      "stateMutability": "view",
      "type": "function"
    },
    {
      "inputs": [
        {
          "internalType": "address",
          "name": "_token",
          "type": "address"
        },
        {
          "internalType": "address",
          "name": "_projectWallet",
          "type": "address"
        },
        {
          "internalType": "string",
          "name": "_projectName",
          "type": "string"
        }
      ],
      "name": "addNewBountyPool",
      "outputs": [
        {
          "internalType": "uint256",
          "name": "",
          "type": "uint256"
        }
      ],
      "stateMutability": "nonpayable",
      "type": "function"
    },
    {
      "inputs": [
        {
          "internalType": "uint256",
          "name": "_pid",
          "type": "uint256"
        }
      ],
      "name": "billPremium",
      "outputs": [
        {
          "internalType": "bool",
          "name": "",
          "type": "bool"
        }
      ],
      "stateMutability": "nonpayable",
      "type": "function"
    },
    {
      "inputs": [
        {
          "internalType": "uint256",
          "name": "_poolCap",
          "type": "uint256"
        },
        {
          "internalType": "uint256",
          "name": "_apy",
          "type": "uint256"
        }
      ],
      "name": "calcRequiredPremiumBalancePerPeriod",
      "outputs": [
        {
          "internalType": "uint256",
          "name": "requiredPremiumBalance",
          "type": "uint256"
        }
      ],
      "stateMutability": "pure",
      "type": "function"
    },
    {
      "inputs": [
        {
          "internalType": "uint256",
          "name": "_pid",
          "type": "uint256"
        }
      ],
      "name": "claimPremium",
      "outputs": [],
      "stateMutability": "nonpayable",
      "type": "function"
    },
    {
      "inputs": [
        {
          "internalType": "address",
          "name": "_saloonWallet",
          "type": "address"
        }
      ],
      "name": "collectAllSaloonProfits",
      "outputs": [
        {
          "internalType": "bool",
          "name": "",
          "type": "bool"
        }
      ],
      "stateMutability": "nonpayable",
      "type": "function"
    },
    {
      "inputs": [
        {
          "internalType": "address",
          "name": "_token",
          "type": "address"
        },
        {
          "internalType": "address",
          "name": "_saloonWallet",
          "type": "address"
        }
      ],
      "name": "collectSaloonProfits",
      "outputs": [
        {
          "internalType": "bool",
          "name": "",
          "type": "bool"
        }
      ],
      "stateMutability": "nonpayable",
      "type": "function"
    },
    {
      "inputs": [
        {
          "internalType": "uint256",
          "name": "_from",
          "type": "uint256"
        },
        {
          "internalType": "uint256",
          "name": "_to",
          "type": "uint256"
        }
      ],
      "name": "getMultiplier",
      "outputs": [
        {
          "internalType": "uint256",
          "name": "",
          "type": "uint256"
        }
      ],
      "stateMutability": "pure",
      "type": "function"
    },
    {
      "inputs": [
        {
          "internalType": "address",
          "name": "_strategyFactory",
          "type": "address"
        }
      ],
      "name": "initialize",
      "outputs": [],
      "stateMutability": "nonpayable",
      "type": "function"
    },
    {
      "inputs": [
        {
          "internalType": "uint256",
          "name": "_pid",
          "type": "uint256"
        },
        {
          "internalType": "uint256",
          "name": "_deposit",
          "type": "uint256"
        },
        {
          "internalType": "string",
          "name": "_strategyName",
          "type": "string"
        }
      ],
      "name": "makeProjectDeposit",
      "outputs": [],
      "stateMutability": "nonpayable",
      "type": "function"
    },
    {
      "inputs": [],
      "name": "owner",
      "outputs": [
        {
          "internalType": "address",
          "name": "",
          "type": "address"
        }
      ],
      "stateMutability": "view",
      "type": "function"
    },
    {
      "inputs": [
        {
          "internalType": "uint256",
          "name": "_pid",
          "type": "uint256"
        },
        {
          "internalType": "address",
          "name": "_hunter",
          "type": "address"
        },
        {
          "internalType": "uint256",
          "name": "_amount",
          "type": "uint256"
        }
      ],
      "name": "payBounty",
      "outputs": [
        {
          "internalType": "bool",
          "name": "",
          "type": "bool"
        }
      ],
      "stateMutability": "nonpayable",
      "type": "function"
    },
    {
      "inputs": [
        {
          "internalType": "uint256",
          "name": "_pid",
          "type": "uint256"
        },
        {
          "internalType": "address",
          "name": "_user",
          "type": "address"
        }
      ],
      "name": "pendingToken",
      "outputs": [
        {
          "internalType": "uint256",
          "name": "totalPending",
          "type": "uint256"
        },
        {
          "internalType": "uint256",
          "name": "actualPending",
          "type": "uint256"
        },
        {
          "internalType": "uint256",
          "name": "newPending",
          "type": "uint256"
        }
      ],
      "stateMutability": "view",
      "type": "function"
    },
    {
      "inputs": [
        {
          "internalType": "uint256",
          "name": "",
          "type": "uint256"
        },
        {
          "internalType": "bytes32",
          "name": "",
          "type": "bytes32"
        }
      ],
      "name": "pidStrategies",
      "outputs": [
        {
          "internalType": "address",
          "name": "",
          "type": "address"
        }
      ],
      "stateMutability": "view",
      "type": "function"
    },
    {
      "inputs": [
        {
          "internalType": "uint256",
          "name": "",
          "type": "uint256"
        }
      ],
      "name": "poolInfo",
      "outputs": [
        {
          "internalType": "address",
          "name": "token",
          "type": "address"
        },
        {
          "internalType": "uint8",
          "name": "tokenDecimals",
          "type": "uint8"
        },
        {
          "internalType": "uint16",
          "name": "apy",
          "type": "uint16"
        },
        {
          "internalType": "address",
          "name": "projectWallet",
          "type": "address"
        },
        {
          "internalType": "string",
          "name": "projectName",
          "type": "string"
        },
        {
          "internalType": "uint256",
          "name": "projectDepositHeld",
          "type": "uint256"
        },
        {
          "internalType": "uint256",
          "name": "projectDepositInStrategy",
          "type": "uint256"
        },
        {
          "internalType": "uint256",
          "name": "poolCap",
          "type": "uint256"
        },
        {
          "internalType": "uint256",
          "name": "totalStaked",
          "type": "uint256"
        },
        {
          "internalType": "uint256",
          "name": "premiumBalance",
          "type": "uint256"
        },
        {
          "internalType": "uint256",
          "name": "premiumAvailable",
          "type": "uint256"
        },
        {
          "components": [
            {
              "internalType": "uint256",
              "name": "timelock",
              "type": "uint256"
            },
            {
              "internalType": "uint256",
              "name": "timeLimit",
              "type": "uint256"
            },
            {
              "internalType": "uint256",
              "name": "withdrawalScheduledAmount",
              "type": "uint256"
            },
            {
              "internalType": "bool",
              "name": "withdrawalExecuted",
              "type": "bool"
            }
          ],
          "internalType": "struct ISaloon.TimelockInfo",
          "name": "poolTimelock",
          "type": "tuple"
        },
        {
          "internalType": "bool",
          "name": "isActive",
          "type": "bool"
        },
        {
          "internalType": "uint256",
          "name": "freezeTime",
          "type": "uint256"
        }
      ],
      "stateMutability": "view",
      "type": "function"
    },
    {
      "inputs": [],
      "name": "poolLength",
      "outputs": [
        {
          "internalType": "uint256",
          "name": "",
          "type": "uint256"
        }
      ],
      "stateMutability": "view",
      "type": "function"
    },
    {
      "inputs": [
        {
          "internalType": "uint256",
          "name": "_pid",
          "type": "uint256"
        },
        {
          "internalType": "uint256",
          "name": "_amount",
          "type": "uint256"
        }
      ],
      "name": "projectDepositWithdrawal",
      "outputs": [
        {
          "internalType": "bool",
          "name": "",
          "type": "bool"
        }
      ],
      "stateMutability": "nonpayable",
      "type": "function"
    },
    {
      "inputs": [],
      "name": "proxiableUUID",
      "outputs": [
        {
          "internalType": "bytes32",
          "name": "",
          "type": "bytes32"
        }
      ],
      "stateMutability": "view",
      "type": "function"
    },
    {
      "inputs": [
        {
          "internalType": "address",
          "name": "",
          "type": "address"
        }
      ],
      "name": "saloonBountyProfit",
      "outputs": [
        {
          "internalType": "uint256",
          "name": "",
          "type": "uint256"
        }
      ],
      "stateMutability": "view",
      "type": "function"
    },
    {
      "inputs": [
        {
          "internalType": "address",
          "name": "",
          "type": "address"
        }
      ],
      "name": "saloonPremiumProfit",
      "outputs": [
        {
          "internalType": "uint256",
          "name": "",
          "type": "uint256"
        }
      ],
      "stateMutability": "view",
      "type": "function"
    },
    {
      "inputs": [
        {
          "internalType": "uint256",
          "name": "_pid",
          "type": "uint256"
        },
        {
          "internalType": "uint256",
          "name": "_amount",
          "type": "uint256"
        }
      ],
      "name": "scheduleProjectDepositWithdrawal",
      "outputs": [
        {
          "internalType": "bool",
          "name": "",
          "type": "bool"
        }
      ],
      "stateMutability": "nonpayable",
      "type": "function"
    },
    {
      "inputs": [
        {
          "internalType": "uint256",
          "name": "_pid",
          "type": "uint256"
        },
        {
          "internalType": "uint256",
          "name": "_amount",
          "type": "uint256"
        }
      ],
      "name": "scheduleUnstake",
      "outputs": [
        {
          "internalType": "bool",
          "name": "",
          "type": "bool"
        }
      ],
      "stateMutability": "nonpayable",
      "type": "function"
    },
    {
      "inputs": [
        {
          "internalType": "uint256",
          "name": "_pid",
          "type": "uint256"
        },
        {
          "internalType": "uint256",
          "name": "_poolCap",
          "type": "uint256"
        },
        {
          "internalType": "uint16",
          "name": "_apy",
          "type": "uint16"
        },
        {
          "internalType": "uint256",
          "name": "_deposit",
          "type": "uint256"
        },
        {
          "internalType": "string",
          "name": "_strategyName",
          "type": "string"
        }
      ],
      "name": "setAPYandPoolCapAndDeposit",
      "outputs": [],
      "stateMutability": "nonpayable",
      "type": "function"
    },
    {
      "inputs": [
        {
          "internalType": "uint256",
          "name": "_pid",
          "type": "uint256"
        },
        {
          "internalType": "address",
          "name": "_user",
          "type": "address"
        },
        {
          "internalType": "uint256",
          "name": "_amount",
          "type": "uint256"
        }
      ],
      "name": "stake",
      "outputs": [
        {
          "internalType": "bool",
          "name": "",
          "type": "bool"
        }
      ],
      "stateMutability": "nonpayable",
      "type": "function"
    },
    {
      "inputs": [
        {
          "internalType": "address",
          "name": "",
          "type": "address"
        }
      ],
      "name": "tokenWhitelist",
      "outputs": [
        {
          "internalType": "bool",
          "name": "",
          "type": "bool"
        }
      ],
      "stateMutability": "view",
      "type": "function"
    },
    {
      "inputs": [
        {
          "internalType": "address",
          "name": "newOwner",
          "type": "address"
        }
      ],
      "name": "transferOwnership",
      "outputs": [],
      "stateMutability": "nonpayable",
      "type": "function"
    },
    {
      "inputs": [
        {
          "internalType": "uint256",
          "name": "_pid",
          "type": "uint256"
        },
        {
          "internalType": "uint256",
          "name": "_amount",
          "type": "uint256"
        },
        {
          "internalType": "bool",
          "name": "_shouldHarvest",
          "type": "bool"
        }
      ],
      "name": "unstake",
      "outputs": [
        {
          "internalType": "bool",
          "name": "",
          "type": "bool"
        }
      ],
      "stateMutability": "nonpayable",
      "type": "function"
    },
    {
      "inputs": [
        {
          "internalType": "address",
          "name": "_strategyFactory",
          "type": "address"
        }
      ],
      "name": "updateStrategyFactoryAddress",
      "outputs": [],
      "stateMutability": "nonpayable",
      "type": "function"
    },
    {
      "inputs": [
        {
          "internalType": "address",
          "name": "_token",
          "type": "address"
        },
        {
          "internalType": "bool",
          "name": "_whitelisted",
          "type": "bool"
        }
      ],
      "name": "updateTokenWhitelist",
      "outputs": [
        {
          "internalType": "bool",
          "name": "",
          "type": "bool"
        }
      ],
      "stateMutability": "nonpayable",
      "type": "function"
    },
    {
      "inputs": [
        {
          "internalType": "address",
          "name": "newImplementation",
          "type": "address"
        }
      ],
      "name": "upgradeTo",
      "outputs": [],
      "stateMutability": "nonpayable",
      "type": "function"
    },
    {
      "inputs": [
        {
          "internalType": "address",
          "name": "newImplementation",
          "type": "address"
        },
        {
          "internalType": "bytes",
          "name": "data",
          "type": "bytes"
        }
      ],
      "name": "upgradeToAndCall",
      "outputs": [],
      "stateMutability": "payable",
      "type": "function"
    },
    {
      "inputs": [
        {
          "internalType": "uint256",
          "name": "",
          "type": "uint256"
        },
        {
          "internalType": "address",
          "name": "",
          "type": "address"
        }
      ],
      "name": "userInfo",
      "outputs": [
        {
          "internalType": "uint256",
          "name": "amount",
          "type": "uint256"
        },
        {
          "internalType": "uint256",
          "name": "unclaimed",
          "type": "uint256"
        },
        {
          "internalType": "uint256",
          "name": "lastRewardTime",
          "type": "uint256"
        },
        {
          "internalType": "uint256",
          "name": "timelock",
          "type": "uint256"
        },
        {
          "internalType": "uint256",
          "name": "timeLimit",
          "type": "uint256"
        },
        {
          "internalType": "uint256",
          "name": "unstakeScheduledAmount",
          "type": "uint256"
        }
      ],
      "stateMutability": "view",
      "type": "function"
    },
    {
      "inputs": [
        {
          "internalType": "uint256",
          "name": "_pid",
          "type": "uint256"
        }
      ],
      "name": "viewBountyBalance",
      "outputs": [
        {
          "internalType": "uint256",
          "name": "",
          "type": "uint256"
        }
      ],
      "stateMutability": "view",
      "type": "function"
    },
    {
      "inputs": [
        {
          "internalType": "uint256",
          "name": "_pid",
          "type": "uint256"
        }
      ],
      "name": "viewBountyInfo",
      "outputs": [
        {
          "internalType": "uint256",
          "name": "payout",
          "type": "uint256"
        },
        {
          "internalType": "uint256",
          "name": "apy",
          "type": "uint256"
        },
        {
          "internalType": "uint256",
          "name": "staked",
          "type": "uint256"
        },
        {
          "internalType": "uint256",
          "name": "poolCap",
          "type": "uint256"
        }
      ],
      "stateMutability": "view",
      "type": "function"
    },
    {
      "inputs": [
        {
          "internalType": "uint256",
          "name": "_pid",
          "type": "uint256"
        }
      ],
      "name": "viewHackerPayout",
      "outputs": [
        {
          "internalType": "uint256",
          "name": "",
          "type": "uint256"
        }
      ],
      "stateMutability": "view",
      "type": "function"
    },
    {
      "inputs": [
        {
          "internalType": "uint256",
          "name": "_pid",
          "type": "uint256"
        }
      ],
      "name": "viewMinProjectDeposit",
      "outputs": [
        {
          "internalType": "uint256",
          "name": "",
          "type": "uint256"
        }
      ],
      "stateMutability": "view",
      "type": "function"
    },
    {
      "inputs": [
        {
          "internalType": "uint256",
          "name": "_pid",
          "type": "uint256"
        }
      ],
      "name": "viewPoolAPY",
      "outputs": [
        {
          "internalType": "uint256",
          "name": "",
          "type": "uint256"
        }
      ],
      "stateMutability": "view",
      "type": "function"
    },
    {
      "inputs": [
        {
          "internalType": "uint256",
          "name": "_pid",
          "type": "uint256"
        }
      ],
      "name": "viewPoolCap",
      "outputs": [
        {
          "internalType": "uint256",
          "name": "",
          "type": "uint256"
        }
      ],
      "stateMutability": "view",
      "type": "function"
    },
    {
      "inputs": [
        {
          "internalType": "uint256",
          "name": "_pid",
          "type": "uint256"
        }
      ],
      "name": "viewPoolPremiumInfo",
      "outputs": [
        {
          "internalType": "uint256",
          "name": "requiredPremiumBalancePerPeriod",
          "type": "uint256"
        },
        {
          "internalType": "uint256",
          "name": "premiumBalance",
          "type": "uint256"
        },
        {
          "internalType": "uint256",
          "name": "premiumAvailable",
          "type": "uint256"
        }
      ],
      "stateMutability": "view",
      "type": "function"
    },
    {
      "inputs": [
        {
          "internalType": "uint256",
          "name": "_pid",
          "type": "uint256"
        }
      ],
      "name": "viewPoolTimelockInfo",
      "outputs": [
        {
          "internalType": "uint256",
          "name": "timelock",
          "type": "uint256"
        },
        {
          "internalType": "uint256",
          "name": "timeLimit",
          "type": "uint256"
        },
        {
          "internalType": "uint256",
          "name": "withdrawalScheduledAmount",
          "type": "uint256"
        }
      ],
      "stateMutability": "view",
      "type": "function"
    },
    {
      "inputs": [
        {
          "internalType": "address",
          "name": "_token",
          "type": "address"
        }
      ],
      "name": "viewSaloonProfitBalance",
      "outputs": [
        {
          "internalType": "uint256",
          "name": "totalProfit",
          "type": "uint256"
        },
        {
          "internalType": "uint256",
          "name": "bountyProfit",
          "type": "uint256"
        },
        {
          "internalType": "uint256",
          "name": "premiumProfit",
          "type": "uint256"
        }
      ],
      "stateMutability": "view",
      "type": "function"
    },
    {
      "inputs": [
        {
          "internalType": "uint256",
          "name": "_pid",
          "type": "uint256"
        }
      ],
      "name": "viewTotalStaked",
      "outputs": [
        {
          "internalType": "uint256",
          "name": "",
          "type": "uint256"
        }
      ],
      "stateMutability": "view",
      "type": "function"
    },
    {
      "inputs": [
        {
          "internalType": "uint256",
          "name": "_pid",
          "type": "uint256"
        },
        {
          "internalType": "address",
          "name": "_user",
          "type": "address"
        }
      ],
      "name": "viewUserInfo",
      "outputs": [
        {
          "internalType": "uint256",
          "name": "amount",
          "type": "uint256"
        },
        {
          "internalType": "uint256",
          "name": "actualPending",
          "type": "uint256"
        },
        {
          "internalType": "uint256",
          "name": "unstakeScheduledAmount",
          "type": "uint256"
        },
        {
          "internalType": "uint256",
          "name": "timelock",
          "type": "uint256"
        }
      ],
      "stateMutability": "view",
      "type": "function"
    },
    {
      "inputs": [
        {
          "internalType": "uint256",
          "name": "_pid",
          "type": "uint256"
        },
        {
          "internalType": "address",
          "name": "_user",
          "type": "address"
        }
      ],
      "name": "viewUserUnclaimed",
      "outputs": [
        {
          "internalType": "uint256",
          "name": "unclaimed",
          "type": "uint256"
        }
      ],
      "stateMutability": "view",
      "type": "function"
    },
    {
      "inputs": [
        {
          "internalType": "uint256",
          "name": "_pid",
          "type": "uint256"
        }
      ],
      "name": "windDownBounty",
      "outputs": [
        {
          "internalType": "bool",
          "name": "",
          "type": "bool"
        }
      ],
      "stateMutability": "nonpayable",
      "type": "function"
    }
  ],
  "bytecode": {
    "object": "0x60a06040523060805234801561001457600080fd5b50600160ca556080516158136200005260003960008181610ffd0152818161103d015281816118ea0152818161192a01526119bd01526158136000f3fe6080604052600436106102885760003560e01c8063861e5f661161015a578063b20b2429116100c1578063dbdd69571161007a578063dbdd6957146108e3578063e45abd0f14610903578063e5e97c6514610930578063ecd7fbed14610950578063f2fde38b14610970578063f47ec3be1461099057600080fd5b8063b20b242914610814578063b842e87f14610841578063bb7019c114610856578063c4d66de814610876578063ca00614814610896578063cf9564b9146108c357600080fd5b80639f224f35116101135780639f224f3514610754578063a27f921314610774578063a754ecb014610794578063ac30b856146107b4578063ae07f948146107d4578063b1a2d16f146107f457600080fd5b8063861e5f661461062e5780638da5cb5b1461064e5780638dbb1e3a1461066c57806391635b4e1461068c57806393f1a40b146106ac578063983c1ce01461073457600080fd5b806348e43af4116101fe5780636e9c931c116101b75780636e9c931c1461055e578063718c7eef1461057e578063753d75631461059e57806379b91d69146105ce578063804fd590146105ee578063836ef1fa1461060e57600080fd5b806348e43af4146104765780634f1ef286146104b157806352d1902d146104c45780635669cbef146104d95780635e3b748b146104f95780636ac6d8121461053e57600080fd5b806330ca07941161025057806330ca0794146103945780633538fda0146103b65780633659cfe6146103d657806339679ff4146103f65780633ac6ad7b1461041657806340ef28681461043657600080fd5b8063074ecf031461028d578063081e3eda146102eb5780631526fe271461030a5780631c6b323f146103445780632dbe051e14610364575b600080fd5b34801561029957600080fd5b506102ce6102a8366004614dc0565b60d06020908152600092835260408084209091529082529020546001600160a01b031681565b6040516001600160a01b0390911681526020015b60405180910390f35b3480156102f757600080fd5b5060ce545b6040519081526020016102e2565b34801561031657600080fd5b5061032a610325366004614de2565b6109b0565b6040516102e29e9d9c9b9a99989796959493929190614e4b565b34801561035057600080fd5b506102fc61035f366004614de2565b610b05565b34801561037057600080fd5b5061038461037f366004614de2565b610d35565b60405190151581526020016102e2565b3480156103a057600080fd5b506103b46103af366004614fb5565b610d4f565b005b3480156103c257600080fd5b506103b46103d136600461503e565b610fc9565b3480156103e257600080fd5b506103b46103f136600461503e565b610ff3565b34801561040257600080fd5b506102fc610411366004614de2565b6110d2565b34801561042257600080fd5b5061038461043136600461505b565b6112f0565b34801561044257600080fd5b50610456610451366004614de2565b61179c565b6040805194855260208501939093529183015260608201526080016102e2565b34801561048257600080fd5b50610496610491366004615093565b6117d5565b604080519384526020840192909252908201526060016102e2565b6103b46104bf3660046150c3565b6118e0565b3480156104d057600080fd5b506102fc6119b0565b3480156104e557600080fd5b506103846104f4366004614dc0565b611a63565b34801561050557600080fd5b506102fc610514366004615093565b600091825260cf602090815260408084206001600160a01b03909316845291905290206001015490565b34801561054a57600080fd5b506102fc610559366004614de2565b611b8a565b34801561056a57600080fd5b5061038461057936600461505b565b611db8565b34801561058a57600080fd5b5061049661059936600461503e565b612209565b3480156105aa57600080fd5b506103846105b936600461503e565b60d26020526000908152604090205460ff1681565b3480156105da57600080fd5b506103846105e9366004615135565b61223f565b3480156105fa57600080fd5b506102fc61060936600461516e565b612525565b34801561061a57600080fd5b506102fc610629366004614dc0565b612872565b34801561063a57600080fd5b506102fc610649366004614de2565b6128a8565b34801561065a57600080fd5b506033546001600160a01b03166102ce565b34801561067857600080fd5b506102fc610687366004614dc0565b612af3565b34801561069857600080fd5b506103846106a7366004614dc0565b612aff565b3480156106b857600080fd5b506107076106c7366004615093565b60cf602090815260009283526040808420909152908252902080546001820154600283015460038401546004850154600590950154939492939192909186565b604080519687526020870195909552938501929092526060840152608083015260a082015260c0016102e2565b34801561074057600080fd5b5061038461074f366004614dc0565b612bd8565b34801561076057600080fd5b506102ce61076f366004614de2565b612d4e565b34801561078057600080fd5b506102fc61078f366004614de2565b612d78565b3480156107a057600080fd5b506104566107af366004615093565b612f98565b3480156107c057600080fd5b506104966107cf366004614de2565b612fe8565b3480156107e057600080fd5b506103b46107ef3660046151d0565b61321f565b34801561080057600080fd5b5061049661080f366004614de2565b6132bd565b34801561082057600080fd5b506102fc61082f366004614de2565b60d16020526000908152604090205481565b34801561084d57600080fd5b506103b4613505565b34801561086257600080fd5b50610384610871366004614de2565b613585565b34801561088257600080fd5b506103b461089136600461503e565b613650565b3480156108a257600080fd5b506102fc6108b136600461503e565b60cc6020526000908152604090205481565b3480156108cf57600080fd5b506103846108de36600461520a565b61377c565b3480156108ef57600080fd5b506102fc6108fe366004614de2565b6137f3565b34801561090f57600080fd5b506102fc61091e36600461503e565b60cb6020526000908152604090205481565b34801561093c57600080fd5b5061038461094b366004615238565b613a12565b34801561095c57600080fd5b5061038461096b36600461503e565b613c3f565b34801561097c57600080fd5b506103b461098b36600461503e565b613d05565b34801561099c57600080fd5b506103b46109ab366004614de2565b613d94565b60ce81815481106109c057600080fd5b60009182526020909120601090910201805460018201546002830180546001600160a01b038085169650600160a01b850460ff1695600160a81b90950461ffff16949316929190610a1090615266565b80601f0160208091040260200160405190810160405280929190818152602001828054610a3c90615266565b8015610a895780601f10610a5e57610100808354040283529160200191610a89565b820191906000526020600020905b815481529060010190602001808311610a6c57829003601f168201915b5050506003840154600485015460058601546006870154600788015460088901546040805160808101825260098c01548152600a8c01546020820152600b8c015491810191909152600c8b015460ff90811615156060830152600e8c0154600f909c01549a9b979a96995094975092959194909391909116908e565b60008060ce8381548110610b1b57610b1b6152a0565b6000918252602091829020604080516101e081018252601090930290910180546001600160a01b03808216855260ff600160a01b8304169585019590955261ffff600160a81b909104169183019190915260018101549092166060820152600282018054919291608084019190610b9190615266565b80601f0160208091040260200160405190810160405280929190818152602001828054610bbd90615266565b8015610c0a5780601f10610bdf57610100808354040283529160200191610c0a565b820191906000526020600020905b815481529060010190602001808311610bed57829003601f168201915b50505050508152602001600382015481526020016004820154815260200160058201548152602001600682015481526020016007820154815260200160088201548152602001600982016040518060800160405290816000820154815260200160018201548152602001600282015481526020016003820160009054906101000a900460ff1615151515815250508152602001600d8201805480602002602001604051908101604052809291908181526020018280548015610cf557602002820191906000526020600020905b81546001600160a01b03168152600190910190602001808311610cd7575b5050509183525050600e82015460ff1615156020820152600f9091015460409091015260c081015160a0820151919250610d2e916152cc565b9392505050565b6000610d3f613db2565b610d4a826000613e0c565b919050565b600060ce8681548110610d6457610d646152a0565b60009182526020909120601090910201600e81015490915060ff16158015610d8e57506005810154155b610ddf5760405162461bcd60e51b815260206004820152601860248201527f506f6f6c20616c726561647920696e697469616c697a6564000000000000000060448201526064015b60405180910390fd5b60008461ffff16118015610df957506127108461ffff1611155b610e385760405162461bcd60e51b815260206004820152601060248201526f415059206f7574206f662072616e676560801b6044820152606401610dd6565b8054610e4f90600160a01b900460ff16600a6153c3565b610e5a9060646153d2565b8510158015610e8c57508054610e7b90600160a01b900460ff16600a6153c3565b610e8890629896806153d2565b8511155b610ed05760405162461bcd60e51b8152602060048201526015602482015274506f6f6c20636170206f7574206f662072616e676560581b6044820152606401610dd6565b60018101546001600160a01b03163314610efc5760405162461bcd60e51b8152600401610dd6906153e9565b6000610f0c868661ffff16612872565b90506000612710610f1f6103e8846153d2565b610f299190615411565b9050610f4d3330610f3a85896152cc565b86546001600160a01b0316929190613f4f565b5084836003016000828254610f6291906152cc565b909155505060058301879055825461ffff60a81b1916600160a81b61ffff881602178355600e8301805460ff1916600117905560078301829055610fa68183615433565b6008840155835115610fbf57610fbd888587613fc5565b505b5050505050505050565b610fd1613db2565b60cd80546001600160a01b0319166001600160a01b0392909216919091179055565b6001600160a01b037f000000000000000000000000000000000000000000000000000000000000000016300361103b5760405162461bcd60e51b8152600401610dd690615446565b7f00000000000000000000000000000000000000000000000000000000000000006001600160a01b0316611084600080516020615797833981519152546001600160a01b031690565b6001600160a01b0316146110aa5760405162461bcd60e51b8152600401610dd690615492565b6110b381614158565b604080516000808252602082019092526110cf91839190614160565b50565b60008060ce83815481106110e8576110e86152a0565b6000918252602091829020604080516101e081018252601090930290910180546001600160a01b03808216855260ff600160a01b8304169585019590955261ffff600160a81b90910416918301919091526001810154909216606082015260028201805491929160808401919061115e90615266565b80601f016020809104026020016040519081016040528092919081815260200182805461118a90615266565b80156111d75780601f106111ac576101008083540402835291602001916111d7565b820191906000526020600020905b8154815290600101906020018083116111ba57829003601f168201915b50505050508152602001600382015481526020016004820154815260200160058201548152602001600682015481526020016007820154815260200160088201548152602001600982016040518060800160405290816000820154815260200160018201548152602001600282015481526020016003820160009054906101000a900460ff1615151515815250508152602001600d82018054806020026020016040519081016040528092919081815260200182805480156112c257602002820191906000526020600020905b81546001600160a01b031681526001909101906020018083116112a4575b5050509183525050600e82015460ff1615156020820152600f9091015460409091015260e001519392505050565b60006112fa613db2565b600060ce858154811061130f5761130f6152a0565b90600052602060002090601002019050600081600601549050600061133387610b05565b61133d90836152cc565b9050808286116114db578286036113e057600d84015460005b818110156113c257600086600d018281548110611375576113756152a0565b60009182526020808320909101548d835260cf825260408084206001600160a01b0390921680855291909252908220909250906113b5908d9084906142d0565b6000905550600101611356565b506000600686018190556113da90600d870190614c6f565b50611697565b6000836113f5670de0b6b3a7640000896153d2565b6113ff9190615411565b600d86015490915060005b818110156114d357600087600d018281548110611429576114296152a0565b60009182526020808320909101548e835260cf825260408084206001600160a01b039092168085529190925290822090925090611469908e9084906142d0565b6000670de0b6b3a764000086836000015461148491906153d2565b61148e9190615411565b9050808260000160008282546114a49190615433565b92505081905550808a60060160008282546114bf9190615433565b90915550506001909301925061140a915050565b505050611697565b82861180156114e957508186105b156115b357600d84015460005b8181101561156257600086600d018281548110611515576115156152a0565b60009182526020808320909101548d835260cf825260408084206001600160a01b039092168085529190925290822090925090611555908d9084906142d0565b60009055506001016114f6565b5060006006860181905561157a90600d870190614c6f565b61158389614424565b5060006115908589615433565b9050808660030160008282546115a69190615433565b9091555061169792505050565b81860361165d57600d84015460005b8181101561162e57600086600d0182815481106115e1576115e16152a0565b60009182526020808320909101548d835260cf825260408084206001600160a01b039092168085529190925290822090925090611621908d9084906142d0565b60009055506001016115c2565b5060006006860181905561164690600d870190614c6f565b61164f89614424565b505060006003850155611697565b60405162461bcd60e51b815260206004820152600f60248201526e082dadeeadce840e8dede40d0d2ced608b1b6044820152606401610dd6565b60006127106116a86103e8896153d2565b6116b29190615411565b905060006116c08289615433565b86546001600160a01b0316600090815260cb60205260408120805492935084929091906116ee9084906152cc565b90915550508554611709906001600160a01b03168a8361457c565b5060006117158b610b05565b876006015461172491906152cc565b87546040518b81529192506001600160a01b0390811691908c169042907fc351e6e0f377ec1a399ec84224a83d6a4b9f3cd9a5530e5c652d0b11c2f8dae29060200160405180910390a480848c60008051602061577783398151915260405160405180910390a45060019a9950505050505050505050565b6000806000806117ab856128a8565b93506117b6856137f3565b91506117c185612d78565b92506117cc856110d2565b90509193509193565b60008060008060ce86815481106117ee576117ee6152a0565b6000918252602080832089845260cf825260408085206001600160a01b038b168652909252908320601092909202016006810154600f8201549194509192908103611839574261183f565b83600f01545b90506000611851846002015483612af3565b855485549192506301e133809183916127109161187991600160a81b900461ffff16906153d2565b6118839190615411565b61188d91906153d2565b6118979190615411565b95508360010154866118a991906152cc565b97506127106118ba6103e8826154de565b6118c89061ffff168a6153d2565b6118d29190615411565b965050505050509250925092565b6001600160a01b037f00000000000000000000000000000000000000000000000000000000000000001630036119285760405162461bcd60e51b8152600401610dd690615446565b7f00000000000000000000000000000000000000000000000000000000000000006001600160a01b0316611971600080516020615797833981519152546001600160a01b031690565b6001600160a01b0316146119975760405162461bcd60e51b8152600401610dd690615492565b6119a082614158565b6119ac82826001614160565b5050565b6000306001600160a01b037f00000000000000000000000000000000000000000000000000000000000000001614611a505760405162461bcd60e51b815260206004820152603860248201527f555550535570677261646561626c653a206d757374206e6f742062652063616c60448201527f6c6564207468726f7567682064656c656761746563616c6c00000000000000006064820152608401610dd6565b5060008051602061579783398151915290565b60008060ce8481548110611a7957611a796152a0565b9060005260206000209060100201905082611a9385610b05565b1015611ae15760405162461bcd60e51b815260206004820152601a60248201527f416d6f756e7420626967676572207468616e206465706f7369740000000000006044820152606401610dd6565b60018101546001600160a01b03163314611b0d5760405162461bcd60e51b8152600401610dd6906153e9565b611b1a62093a80426152cc565b6009820155611b2c62093a80426152cc565b611b39906203f4806152cc565b600a820155600b8101839055600c8101805460ff19169055604051839085907fb3b9c925de3673837b40c6b4d4463a8f88dc821cd27e07f1ff6bf6abf96413a590600090a360019150505b92915050565b60008060ce8381548110611ba057611ba06152a0565b6000918252602091829020604080516101e081018252601090930290910180546001600160a01b03808216855260ff600160a01b8304169585019590955261ffff600160a81b909104169183019190915260018101549092166060820152600282018054919291608084019190611c1690615266565b80601f0160208091040260200160405190810160405280929190818152602001828054611c4290615266565b8015611c8f5780601f10611c6457610100808354040283529160200191611c8f565b820191906000526020600020905b815481529060010190602001808311611c7257829003601f168201915b50505050508152602001600382015481526020016004820154815260200160058201548152602001600682015481526020016007820154815260200160088201548152602001600982016040518060800160405290816000820154815260200160018201548152602001600282015481526020016003820160009054906101000a900460ff1615151515815250508152602001600d8201805480602002602001604051908101604052809291908181526020018280548015611d7a57602002820191906000526020600020905b81546001600160a01b03168152600190910190602001808311611d5c575b5050509183525050600e82015460ff1615156020820152600f909101546040909101529050611da883610b05565b816101000151610d2e91906152cc565b6000611dc26145af565b83600060ce8281548110611dd857611dd86152a0565b6000918252602091829020604080516101e081018252601090930290910180546001600160a01b03808216855260ff600160a01b8304169585019590955261ffff600160a81b909104169183019190915260018101549092166060820152600282018054919291608084019190611e4e90615266565b80601f0160208091040260200160405190810160405280929190818152602001828054611e7a90615266565b8015611ec75780601f10611e9c57610100808354040283529160200191611ec7565b820191906000526020600020905b815481529060010190602001808311611eaa57829003601f168201915b50505050508152602001600382015481526020016004820154815260200160058201548152602001600682015481526020016007820154815260200160088201548152602001600982016040518060800160405290816000820154815260200160018201548152602001600282015481526020016003820160009054906101000a900460ff1615151515815250508152602001600d8201805480602002602001604051908101604052809291908181526020018280548015611fb257602002820191906000526020600020905b81546001600160a01b03168152600190910190602001808311611f94575b5050509183525050600e82015460ff1615156020820152600f909101546040909101526101a081015190915061201c5760405162461bcd60e51b815260206004820152600f60248201526e706f6f6c206e6f742061637469766560881b6044820152606401610dd6565b6000841161202957600080fd5b600060ce878154811061203e5761203e6152a0565b600091825260208083208a845260cf825260408085206001600160a01b038c16865290925290832060109092020192509061207889610b05565b836006015461208791906152cc565b9050612095898960016142d0565b81546000036120cf57600d83018054600181018255600091825260209091200180546001600160a01b0319166001600160a01b038a161790555b82546120e6906001600160a01b031633308a613f4f565b50868260000160008282546120fb91906152cc565b925050819055508683600601600082825461211691906152cc565b909155505060058301541580159061213657508260050154836006015411155b6121785760405162461bcd60e51b8152602060048201526013602482015272115e18d959591959081c1bdbdb081b1a5b5a5d606a1b6044820152606401610dd6565b88886001600160a01b03167f1449c6dd7851abc30abf37f57715f492010519147cc2652fbc38202c18a6ee90896040516121b491815260200190565b60405180910390a360006121c78a610b05565b84600601546121d691906152cc565b905080828b60008051602061577783398151915260405160405180910390a460019650505050505050610d2e600160ca55565b6001600160a01b038116600090815260cb602090815260408083205460cc90925282205461223782826152cc565b949193509150565b60006122496145af565b600060ce858154811061225e5761225e6152a0565b6000918252602080832088845260cf8252604080852033865290925292208054601090920290920192508511156122cc5760405162461bcd60e51b81526020600482015260126024820152711dda5d1a191c985dce881b9bdd0819dbdbd960721b6044820152606401610dd6565b4281600301541080156122e25750428160040154115b80156122f2575084816005015410155b80156123015750600381015415155b61231d5760405162461bcd60e51b8152600401610dd690615500565b60006003820181905561232f87610b05565b836006015461233e91906152cc565b905061234b8733876142d0565b851561238b57815461235d9087614608565b8255600683015461236e9087614608565b60068401558254612389906001600160a01b0316338861457c565b505b81546000036124a357600d83015460005b818110156124a057336001600160a01b031685600d0182815481106123c3576123c36152a0565b6000918252602090912001546001600160a01b031603612498576000600d86016123ee600185615433565b815481106123fe576123fe6152a0565b600091825260209091200154600d870180546001600160a01b03909216925082918490811061242f5761242f6152a0565b9060005260206000200160006101000a8154816001600160a01b0302191690836001600160a01b0316021790555085600d0180548061247057612470615549565b600082815260209020810160001990810180546001600160a01b0319169055019055506124a0565b60010161239c565b50505b604051868152879033907f7fc4727e062e336010f2c282598ef5f14facb3de68cf8195c2f23e1454b2b74e9060200160405180910390a360006124e588610b05565b84600601546124f491906152cc565b905080828960008051602061577783398151915260405160405180910390a46001945050505050610d2e600160ca55565b600061252f613db2565b6001600160a01b038416600090815260d2602052604090205460ff1661258f5760405162461bcd60e51b81526020600482015260156024820152741d1bdad95b881b9bdd081dda1a5d195b1a5cdd1959605a1b6044820152606401610dd6565b60408051600481526024810182526020810180516001600160e01b031663313ce56760e01b17905290516000916001600160a01b038716916125d1919061555f565b600060405180830381855afa9150503d806000811461260c576040519150601f19603f3d011682016040523d82523d6000602084013e612611565b606091505b5091505060008180602001905181019061262b919061557b565b9050612635614c8d565b6001600160a01b03808816825260ff80841660208085019182528984166060808701918252608087018b8152600060a0890181905260c089018190526040808a0182815260e08b018390526101008b018390526101608b0180518490528051909701839052865190910182905294519092018290526101a088018290526101c0880182905260ce80546001810182559252875160109092027fd36cd1c74ef8d7326d8021b776c18fb5a5724b7f7bc93c2f42e43e10ef27d12a810180549651955161ffff16600160a81b0261ffff60a81b1996909816600160a01b026001600160a81b0319909716938916939093179590951793909316949094178455517fd36cd1c74ef8d7326d8021b776c18fb5a5724b7f7bc93c2f42e43e10ef27d12b83018054919095166001600160a01b03199190911617909355915183927fd36cd1c74ef8d7326d8021b776c18fb5a5724b7f7bc93c2f42e43e10ef27d12c019061279e90826155ec565b5060a0820151600382015560c0820151600482015560e0820151600582015561010082015160068201556101208201516007820155610140820151600882015561016082015180516009830155602080820151600a8401556040820151600b840155606090910151600c8301805460ff1916911515919091179055610180830151805161283192600d8501920190614d46565b506101a0820151600e8201805460ff19169115159190911790556101c090910151600f9091015560ce5461286790600190615433565b979650505050505050565b60006301e1338061271062093a8061288a85876153d2565b61289491906153d2565b61289e9190615411565b610d2e9190615411565b60008060ce83815481106128be576128be6152a0565b6000918252602091829020604080516101e081018252601090930290910180546001600160a01b03808216855260ff600160a01b8304169585019590955261ffff600160a81b90910416918301919091526001810154909216606082015260028201805491929160808401919061293490615266565b80601f016020809104026020016040519081016040528092919081815260200182805461296090615266565b80156129ad5780601f10612982576101008083540402835291602001916129ad565b820191906000526020600020905b81548152906001019060200180831161299057829003601f168201915b50505050508152602001600382015481526020016004820154815260200160058201548152602001600682015481526020016007820154815260200160088201548152602001600982016040518060800160405290816000820154815260200160018201548152602001600282015481526020016003820160009054906101000a900460ff1615151515815250508152602001600d8201805480602002602001604051908101604052809291908181526020018280548015612a9857602002820191906000526020600020905b81546001600160a01b03168152600190910190602001808311612a7a575b5050509183525050600e82015460ff1615156020820152600f909101546040909101529050612710612acc6103e8826154de565b61ffff16612ad985610b05565b836101000151612ae991906152cc565b61289e91906153d2565b6000610d2e8284614608565b600082815260cf6020908152604080832033845290915281208054831115612b695760405162461bcd60e51b815260206004820152601a60248201527f416d6f756e7420626967676572207468616e206465706f7369740000000000006044820152606401610dd6565b612b7662093a80426152cc565b6003820155612b8862093a80426152cc565b612b95906203f4806152cc565b600482015560058101839055604051839085907fb3b9c925de3673837b40c6b4d4463a8f88dc821cd27e07f1ff6bf6abf96413a590600090a35060019392505050565b60008060ce8481548110612bee57612bee6152a0565b6000918252602090912060109091020160018101549091506001600160a01b03163314612c2d5760405162461bcd60e51b8152600401610dd6906153e9565b600981015442118015612c435750600a81015442105b8015612c545750600c81015460ff16155b8015612c645750600b8101548311155b8015612c735750600981015415155b612c8f5760405162461bcd60e51b8152600401610dd690615500565b600c8101805460ff191660011790556003810154831115612cb557612cb384614424565b505b6000612cc085610b05565b8260060154612ccf91906152cc565b905083826003016000828254612ce59190615433565b909155505060018201548254612d08916001600160a01b0391821691168661457c565b506000612d1486610b05565b8360060154612d2391906152cc565b905080828760008051602061577783398151915260405160405180910390a450600195945050505050565b60d38181548110612d5e57600080fd5b6000918252602090912001546001600160a01b0316905081565b60008060ce8381548110612d8e57612d8e6152a0565b6000918252602091829020604080516101e081018252601090930290910180546001600160a01b03808216855260ff600160a01b8304169585019590955261ffff600160a81b909104169183019190915260018101549092166060820152600282018054919291608084019190612e0490615266565b80601f0160208091040260200160405190810160405280929190818152602001828054612e3090615266565b8015612e7d5780601f10612e5257610100808354040283529160200191612e7d565b820191906000526020600020905b815481529060010190602001808311612e6057829003601f168201915b50505050508152602001600382015481526020016004820154815260200160058201548152602001600682015481526020016007820154815260200160088201548152602001600982016040518060800160405290816000820154815260200160018201548152602001600282015481526020016003820160009054906101000a900460ff1615151515815250508152602001600d8201805480602002602001604051908101604052809291908181526020018280548015612f6857602002820191906000526020600020905b81546001600160a01b03168152600190910190602001808311612f4a575b5050509183525050600e82015460ff1615156020820152600f90910154604091820152015161ffff169392505050565b600082815260cf602090815260408083206001600160a01b038516845290915281208054919081908190612fcc87876117d5565b5060058301546003909301549699909850919650909350505050565b60008060008060ce8581548110613001576130016152a0565b6000918252602091829020604080516101e081018252601090930290910180546001600160a01b03808216855260ff600160a01b8304169585019590955261ffff600160a81b90910416918301919091526001810154909216606082015260028201805491929160808401919061307790615266565b80601f01602080910402602001604051908101604052809291908181526020018280546130a390615266565b80156130f05780601f106130c5576101008083540402835291602001916130f0565b820191906000526020600020905b8154815290600101906020018083116130d357829003601f168201915b50505050508152602001600382015481526020016004820154815260200160058201548152602001600682015481526020016007820154815260200160088201548152602001600982016040518060800160405290816000820154815260200160018201548152602001600282015481526020016003820160009054906101000a900460ff1615151515815250508152602001600d82018054806020026020016040519081016040528092919081815260200182805480156131db57602002820191906000526020600020905b81546001600160a01b031681526001909101906020018083116131bd575b5050509183525050600e82015460ff161515602080830191909152600f90920154604091820152610160909201518051918101519201519097919650945092505050565b600060ce8481548110613234576132346152a0565b6000918252602090912060109091020160018101549091506001600160a01b031633146132735760405162461bcd60e51b8152600401610dd6906153e9565b82156132ab578054613290906001600160a01b0316333086613f4f565b50828160030160008282546132a591906152cc565b90915550505b6132b6848385613fc5565b5050505050565b60008060008060ce85815481106132d6576132d66152a0565b6000918252602091829020604080516101e081018252601090930290910180546001600160a01b03808216855260ff600160a01b8304169585019590955261ffff600160a81b90910416918301919091526001810154909216606082015260028201805491929160808401919061334c90615266565b80601f016020809104026020016040519081016040528092919081815260200182805461337890615266565b80156133c55780601f1061339a576101008083540402835291602001916133c5565b820191906000526020600020905b8154815290600101906020018083116133a857829003601f168201915b50505050508152602001600382015481526020016004820154815260200160058201548152602001600682015481526020016007820154815260200160088201548152602001600982016040518060800160405290816000820154815260200160018201548152602001600282015481526020016003820160009054906101000a900460ff1615151515815250508152602001600d82018054806020026020016040519081016040528092919081815260200182805480156134b057602002820191906000526020600020905b81546001600160a01b03168152600190910190602001808311613492575b5050509183525050600e82015460ff1615156020820152600f9091015460409182015260e0820151908201519192506134ec9161ffff16612872565b6101208201516101409092015190969195509350915050565b6034546001600160a01b0316331461356e5760405162461bcd60e51b815260206004820152602660248201527f6f6e6c792070656e64696e67206f776e65722063616e2061636365707420747260448201526530b739b332b960d11b6064820152608401610dd6565b603454613583906001600160a01b0316614614565b565b60008060ce838154811061359b5761359b6152a0565b6000918252602090912060109091020160018101549091506001600160a01b03163314806135d357506033546001600160a01b031633145b6135ef5760405162461bcd60e51b8152600401610dd6906153e9565b600e81015460ff166136355760405162461bcd60e51b815260206004820152600f60248201526e506f6f6c206e6f742061637469766560881b6044820152606401610dd6565b600e8101805460ff1916905542600f90910155506001919050565b600054610100900460ff16158080156136705750600054600160ff909116105b8061368a5750303b15801561368a575060005460ff166001145b6136ed5760405162461bcd60e51b815260206004820152602e60248201527f496e697469616c697a61626c653a20636f6e747261637420697320616c72656160448201526d191e481a5b9a5d1a585b1a5e995960921b6064820152608401610dd6565b6000805460ff191660011790558015613710576000805461ff0019166101001790555b613718614671565b60cd80546001600160a01b0319166001600160a01b03841617905580156119ac576000805461ff0019169055604051600181527f7f26b83ff96e1f2b6a682f133852f6798a09c465da95921460cefb38474024989060200160405180910390a15050565b6000613786613db2565b6001600160a01b038316600090815260cc602090815260408083205460cb9092528220546137b491906152cc565b6001600160a01b038516600081815260cb6020908152604080832083905560cc9091528120559091506137e890848361457c565b506001949350505050565b60008060ce8381548110613809576138096152a0565b6000918252602091829020604080516101e081018252601090930290910180546001600160a01b03808216855260ff600160a01b8304169585019590955261ffff600160a81b90910416918301919091526001810154909216606082015260028201805491929160808401919061387f90615266565b80601f01602080910402602001604051908101604052809291908181526020018280546138ab90615266565b80156138f85780601f106138cd576101008083540402835291602001916138f8565b820191906000526020600020905b8154815290600101906020018083116138db57829003601f168201915b50505050508152602001600382015481526020016004820154815260200160058201548152602001600682015481526020016007820154815260200160088201548152602001600982016040518060800160405290816000820154815260200160018201548152602001600282015481526020016003820160009054906101000a900460ff1615151515815250508152602001600d82018054806020026020016040519081016040528092919081815260200182805480156139e357602002820191906000526020600020905b81546001600160a01b031681526001909101906020018083116139c5575b5050509183525050600e82015460ff1615156020820152600f9091015460409091015261010001519392505050565b6000613a1c613db2565b6001600160a01b038316600090815260d2602052604090205460ff161515821514613a815760405162461bcd60e51b81526020600482015260156024820152741dda1a5d195b1a5cdd08185b1c9958591e481cd95d605a1b6044820152606401610dd6565b6001600160a01b038316600081815260d26020526040808220805460ff191686151590811790915590519092917f99795d51e5a8804307721456a7a9c2f0d7421f719d46a46d36e91fee7c85aa7691a38115613b275760d380546001810182556000919091527f915c3eb987b20e1af620c1403197bf687fb7f18513b3a73fde6e78c7072c41a60180546001600160a01b0319166001600160a01b038516179055613c36565b60d35460005b81811015613c3357600060d38281548110613b4a57613b4a6152a0565b6000918252602090912001546001600160a01b03908116915086168103613c225760d3613b78600185615433565b81548110613b8857613b886152a0565b60009182526020909120015460d380546001600160a01b039092169184908110613bb457613bb46152a0565b9060005260206000200160006101000a8154816001600160a01b0302191690836001600160a01b0316021790555060d3805480613bf357613bf3615549565b600082815260209020810160001990810180546001600160a01b03191690550190555060019250611b84915050565b50613c2c816156ac565b9050613b2d565b50505b50600192915050565b6000613c49613db2565b60d35460005b81811015613cfb57600060d38281548110613c6c57613c6c6152a0565b60009182526020808320909101546001600160a01b031680835260cc825260408084205460cb909352832054909350613ca591906152cc565b905080600003613cb6575050613ceb565b6001600160a01b038216600081815260cb6020908152604080832083905560cc909152812055613ce790878361457c565b5050505b613cf4816156ac565b9050613c4f565b5060019392505050565b613d0d613db2565b6001600160a01b038116613d725760405162461bcd60e51b815260206004820152602660248201527f4f776e61626c653a206e6577206f776e657220697320746865207a65726f206160448201526564647265737360d01b6064820152608401610dd6565b603480546001600160a01b0319166001600160a01b0392909216919091179055565b613d9c6145af565b613da8813360016142d0565b6110cf600160ca55565b6033546001600160a01b031633146135835760405162461bcd60e51b815260206004820181905260248201527f4f776e61626c653a2063616c6c6572206973206e6f7420746865206f776e65726044820152606401610dd6565b600060ce8381548110613e2157613e216152a0565b600091825260208220601091909102016007810154600582015482549294508592613e579190600160a81b900461ffff16612872565b613e619190615433565b613e6b91906152cc565b60018301548354919250613e8d916001600160a01b0390811691163084613f4f565b506000612710613e9f6103e8846153d2565b613ea99190615411565b905081836007016000828254613ebf91906152cc565b909155505082546001600160a01b0316600090815260cc602052604081208054839290613eed9084906152cc565b9091555060009050613eff8284615433565b905080846008016000828254613f1591906152cc565b9091555050604051839087907fadb049ad2d09be3db90459a16aef1ad0a4d89e8fdcc1ade9429d6cc55abbcd2b90600090a3505050505050565b6040516001600160a01b03808516602483015283166044820152606481018290526000906137e89086906323b872dd60e01b906084015b60408051601f198184030181529190526020810180516001600160e01b03166001600160e01b0319909316929092179091526146a0565b949350505050565b60008060ce8581548110613fdb57613fdb6152a0565b90600052602060002090601002019050600084604051602001613ffe91906156c5565b60408051601f198184030181529181528151602092830120600089815260d190935291205490915080821461414e57600061403888614424565b905060006140468989614772565b90506001600160a01b03811615614131578061406283896152cc565b8660030160008282546140759190615433565b90915550614085905083896152cc565b86600401600082825461409891906152cc565b909155506140be9050826140ac858b6152cc565b88546001600160a01b0316919061457c565b5060405163d33b0aa760e01b8152600160048201526001600160a01b0382169063d33b0aa7906024016020604051808303816000875af1158015614106573d6000803e3d6000fd5b505050506040513d601f19601f8201168201806040525081019061412a91906156d8565b505061414b565b8685600301600082825461414591906152cc565b90915550505b50505b5050509392505050565b6110cf613db2565b7f4910fdfa16fed3260ed0e7147f7cc6da11a60208b5b9406d12a635614ffd91435460ff161561419857614193836148ad565b505050565b826001600160a01b03166352d1902d6040518163ffffffff1660e01b8152600401602060405180830381865afa9250505080156141f2575060408051601f3d908101601f191682019092526141ef918101906156d8565b60015b6142555760405162461bcd60e51b815260206004820152602e60248201527f45524331393637557067726164653a206e657720696d706c656d656e7461746960448201526d6f6e206973206e6f74205555505360901b6064820152608401610dd6565b60008051602061579783398151915281146142c45760405162461bcd60e51b815260206004820152602960248201527f45524331393637557067726164653a20756e737570706f727465642070726f786044820152681a58589b195555525160ba1b6064820152608401610dd6565b50614193838383614949565b600060ce84815481106142e5576142e56152a0565b6000918252602080832087845260cf825260408085206001600160a01b0389168652909252922080546010909202909201925015801561432757506001810154155b15614339574260029091015550505050565b600080600061434888886117d5565b92509250925085614396578084600101600082825461436791906152cc565b9091555050600f85015460000361437e5742614384565b84600f01545b84600201819055505050505050505050565b84600701548311156143ac576143ac8884613e0c565b8215610fbf57600060018501819055600f86015490036143cc57426143d2565b84600f01545b8460020181905550828560070160008282546143ee9190615433565b92505081905550818560080160008282546144099190615433565b90915550508454610fbd906001600160a01b0316888461457c565b60008060ce838154811061443a5761443a6152a0565b6000918252602080832086845260d190915260408320546010909202019250801561457457600085815260d0602090815260408083208484528252808320548151637f1f087360e01b815291516001600160a01b0390911693928492637f1f08739260048083019392829003018187875af11580156144bd573d6000803e3d6000fd5b505050506040513d601f19601f820116820180604052508101906144e191906156d8565b60405163f840cb8360e01b815260016004820152602481018290529091506001600160a01b0383169063f840cb83906044016020604051808303816000875af1158015614532573d6000803e3d6000fd5b505050506040513d601f19601f8201168201806040525081019061455691906156d8565b93508385600301600082825461456c91906152cc565b909155505050505b509392505050565b6040516001600160a01b038316602482015260448101829052600090613cfb90859063a9059cbb60e01b90606401613f86565b600260ca54036146015760405162461bcd60e51b815260206004820152601f60248201527f5265656e7472616e637947756172643a207265656e7472616e742063616c6c006044820152606401610dd6565b600260ca55565b6000610d2e8284615433565b603380546001600160a01b038381166001600160a01b03198084168217909455603480549094169093556040519116919082907f8be0079c531659141344cd1fd0a4f28419497f9722a3daafe3b4186f6b6457e090600090a35050565b600054610100900460ff166146985760405162461bcd60e51b8152600401610dd6906156f1565b613583614974565b60006146f5826040518060400160405280602081526020017f5361666545524332303a206c6f772d6c6576656c2063616c6c206661696c6564815250856001600160a01b03166149a49092919063ffffffff16565b8051909150156141935780806020019051810190614713919061573c565b6141935760405162461bcd60e51b815260206004820152602a60248201527f5361666545524332303a204552433230206f7065726174696f6e20646964206e6044820152691bdd081cdd58d8d9595960b21b6064820152608401610dd6565b60008060008360405160200161478891906156c5565b60408051601f198184030181529181528151602092830120600088815260d084528281208282529093529120549091506001600160a01b0316806148405760cd54604051632f3802cf60e11b81526001600160a01b0390911690635e70059e906147f69088906004016156c5565b6020604051808303816000875af1158015614815573d6000803e3d6000fd5b505050506040513d601f19601f820116820180604052508101906148399190615759565b925061484a565b9250611b84915050565b6001600160a01b0383166148645760009350505050611b84565b50600085815260d060209081526040808320848452825280832080546001600160a01b0319166001600160a01b03871617905596825260d1905294909420939093555090919050565b6001600160a01b0381163b61491a5760405162461bcd60e51b815260206004820152602d60248201527f455243313936373a206e657720696d706c656d656e746174696f6e206973206e60448201526c1bdd08184818dbdb9d1c9858dd609a1b6064820152608401610dd6565b60008051602061579783398151915280546001600160a01b0319166001600160a01b0392909216919091179055565b614952836149b3565b60008251118061495f5750805b156141935761496e83836149f3565b50505050565b600054610100900460ff1661499b5760405162461bcd60e51b8152600401610dd6906156f1565b61358333614614565b6060613fbd8484600085614ae7565b6149bc816148ad565b6040516001600160a01b038216907fbc7cd75a20ee27fd9adebab32041f755214dbc6bffa90cc0225b39da2e5c2d3b90600090a250565b60606001600160a01b0383163b614a5b5760405162461bcd60e51b815260206004820152602660248201527f416464726573733a2064656c65676174652063616c6c20746f206e6f6e2d636f6044820152651b9d1c9858dd60d21b6064820152608401610dd6565b600080846001600160a01b031684604051614a76919061555f565b600060405180830381855af49150503d8060008114614ab1576040519150601f19603f3d011682016040523d82523d6000602084013e614ab6565b606091505b5091509150614ade82826040518060600160405280602781526020016157b760279139614bb7565b95945050505050565b606082471015614b485760405162461bcd60e51b815260206004820152602660248201527f416464726573733a20696e73756666696369656e742062616c616e636520666f6044820152651c8818d85b1b60d21b6064820152608401610dd6565b600080866001600160a01b03168587604051614b64919061555f565b60006040518083038185875af1925050503d8060008114614ba1576040519150601f19603f3d011682016040523d82523d6000602084013e614ba6565b606091505b509150915061286787838387614bd0565b60608315614bc6575081610d2e565b610d2e8383614c45565b60608315614c3f578251600003614c38576001600160a01b0385163b614c385760405162461bcd60e51b815260206004820152601d60248201527f416464726573733a2063616c6c20746f206e6f6e2d636f6e74726163740000006044820152606401610dd6565b5081613fbd565b613fbd83835b815115614c555781518083602001fd5b8060405162461bcd60e51b8152600401610dd691906156c5565b50805460008255906000526020600020908101906110cf9190614dab565b604051806101e0016040528060006001600160a01b03168152602001600060ff168152602001600061ffff16815260200160006001600160a01b0316815260200160608152602001600081526020016000815260200160008152602001600081526020016000815260200160008152602001614d2c60405180608001604052806000815260200160008152602001600081526020016000151581525090565b815260606020820181905260006040830181905291015290565b828054828255906000526020600020908101928215614d9b579160200282015b82811115614d9b57825182546001600160a01b0319166001600160a01b03909116178255602090920191600190910190614d66565b50614da7929150614dab565b5090565b5b80821115614da75760008155600101614dac565b60008060408385031215614dd357600080fd5b50508035926020909101359150565b600060208284031215614df457600080fd5b5035919050565b60005b83811015614e16578181015183820152602001614dfe565b50506000910152565b60008151808452614e37816020860160208601614dfb565b601f01601f19169290920160200192915050565b6001600160a01b038f16815260ff8e16602082015261ffff8d1660408201526001600160a01b038c16606082015261022060808201526000614e9161022083018d614e1f565b90508a60a08301528960c08301528860e0830152876101008301528661012083015285610140830152614eeb6101608301868051825260208101516020830152604081015160408301526060810151151560608301525050565b9215156101e082015261020001529c9b505050505050505050505050565b634e487b7160e01b600052604160045260246000fd5b600067ffffffffffffffff80841115614f3a57614f3a614f09565b604051601f8501601f19908116603f01168101908282118183101715614f6257614f62614f09565b81604052809350858152868686011115614f7b57600080fd5b858560208301376000602087830101525050509392505050565b600082601f830112614fa657600080fd5b610d2e83833560208501614f1f565b600080600080600060a08688031215614fcd57600080fd5b8535945060208601359350604086013561ffff81168114614fed57600080fd5b925060608601359150608086013567ffffffffffffffff81111561501057600080fd5b61501c88828901614f95565b9150509295509295909350565b6001600160a01b03811681146110cf57600080fd5b60006020828403121561505057600080fd5b8135610d2e81615029565b60008060006060848603121561507057600080fd5b83359250602084013561508281615029565b929592945050506040919091013590565b600080604083850312156150a657600080fd5b8235915060208301356150b881615029565b809150509250929050565b600080604083850312156150d657600080fd5b82356150e181615029565b9150602083013567ffffffffffffffff8111156150fd57600080fd5b8301601f8101851361510e57600080fd5b61511d85823560208401614f1f565b9150509250929050565b80151581146110cf57600080fd5b60008060006060848603121561514a57600080fd5b8335925060208401359150604084013561516381615127565b809150509250925092565b60008060006060848603121561518357600080fd5b833561518e81615029565b9250602084013561519e81615029565b9150604084013567ffffffffffffffff8111156151ba57600080fd5b6151c686828701614f95565b9150509250925092565b6000806000606084860312156151e557600080fd5b8335925060208401359150604084013567ffffffffffffffff8111156151ba57600080fd5b6000806040838503121561521d57600080fd5b823561522881615029565b915060208301356150b881615029565b6000806040838503121561524b57600080fd5b823561525681615029565b915060208301356150b881615127565b600181811c9082168061527a57607f821691505b60208210810361529a57634e487b7160e01b600052602260045260246000fd5b50919050565b634e487b7160e01b600052603260045260246000fd5b634e487b7160e01b600052601160045260246000fd5b80820180821115611b8457611b846152b6565b600181815b8085111561531a578160001904821115615300576153006152b6565b8085161561530d57918102915b93841c93908002906152e4565b509250929050565b60008261533157506001611b84565b8161533e57506000611b84565b8160018114615354576002811461535e5761537a565b6001915050611b84565b60ff84111561536f5761536f6152b6565b50506001821b611b84565b5060208310610133831016604e8410600b841016171561539d575081810a611b84565b6153a783836152df565b80600019048211156153bb576153bb6152b6565b029392505050565b6000610d2e60ff841683615322565b8082028115828204841417611b8457611b846152b6565b6020808252600e908201526d139bdd08185d5d1a1bdc9a5e995960921b604082015260600190565b60008261542e57634e487b7160e01b600052601260045260246000fd5b500490565b81810381811115611b8457611b846152b6565b6020808252602c908201527f46756e6374696f6e206d7573742062652063616c6c6564207468726f7567682060408201526b19195b1959d85d1958d85b1b60a21b606082015260800190565b6020808252602c908201527f46756e6374696f6e206d7573742062652063616c6c6564207468726f7567682060408201526b6163746976652070726f787960a01b606082015260800190565b61ffff8281168282160390808211156154f9576154f96152b6565b5092915050565b60208082526029908201527f54696d656c6f636b206e6f7420736574206f72206e6f7420636f6d706c6574656040820152686420696e2074696d6560b81b606082015260800190565b634e487b7160e01b600052603160045260246000fd5b60008251615571818460208701614dfb565b9190910192915050565b60006020828403121561558d57600080fd5b815160ff81168114610d2e57600080fd5b601f82111561419357600081815260208120601f850160051c810160208610156155c55750805b601f850160051c820191505b818110156155e4578281556001016155d1565b505050505050565b815167ffffffffffffffff81111561560657615606614f09565b61561a816156148454615266565b8461559e565b602080601f83116001811461564f57600084156156375750858301515b600019600386901b1c1916600185901b1785556155e4565b600085815260208120601f198616915b8281101561567e5788860151825594840194600190910190840161565f565b508582101561569c5787850151600019600388901b60f8161c191681555b5050505050600190811b01905550565b6000600182016156be576156be6152b6565b5060010190565b602081526000610d2e6020830184614e1f565b6000602082840312156156ea57600080fd5b5051919050565b6020808252602b908201527f496e697469616c697a61626c653a20636f6e7472616374206973206e6f74206960408201526a6e697469616c697a696e6760a81b606082015260800190565b60006020828403121561574e57600080fd5b8151610d2e81615127565b60006020828403121561576b57600080fd5b8151610d2e8161502956fea3ea4fb8dee4d414198cb197af6eae4fe483c1a0b849dc50e53b9bf1a60e2166360894a13ba1a3210667c828492db98dca3e2076cc3735a920a3ca505d382bbc416464726573733a206c6f772d6c6576656c2064656c65676174652063616c6c206661696c6564a26469706673582212200c9065adec7811e1208b018b70959e406da78073fb74cadb97eb77316c6d6f5f64736f6c63430008110033",
    "linkReferences": {}
  },
  "methodIdentifiers": {
    "acceptOwnershipTransfer()": "b842e87f",
    "activeStrategies(uint256)": "b20b2429",
    "activeTokens(uint256)": "9f224f35",
    "addNewBountyPool(address,address,string)": "804fd590",
    "billPremium(uint256)": "2dbe051e",
    "calcRequiredPremiumBalancePerPeriod(uint256,uint256)": "836ef1fa",
    "claimPremium(uint256)": "f47ec3be",
    "collectAllSaloonProfits(address)": "ecd7fbed",
    "collectSaloonProfits(address,address)": "cf9564b9",
    "getMultiplier(uint256,uint256)": "8dbb1e3a",
    "initialize(address)": "c4d66de8",
    "makeProjectDeposit(uint256,uint256,string)": "ae07f948",
    "owner()": "8da5cb5b",
    "payBounty(uint256,address,uint256)": "3ac6ad7b",
    "pendingToken(uint256,address)": "48e43af4",
    "pidStrategies(uint256,bytes32)": "074ecf03",
    "poolInfo(uint256)": "1526fe27",
    "poolLength()": "081e3eda",
    "projectDepositWithdrawal(uint256,uint256)": "983c1ce0",
    "proxiableUUID()": "52d1902d",
    "saloonBountyProfit(address)": "e45abd0f",
    "saloonPremiumProfit(address)": "ca006148",
    "scheduleProjectDepositWithdrawal(uint256,uint256)": "5669cbef",
    "scheduleUnstake(uint256,uint256)": "91635b4e",
    "setAPYandPoolCapAndDeposit(uint256,uint256,uint16,uint256,string)": "30ca0794",
    "stake(uint256,address,uint256)": "6e9c931c",
    "tokenWhitelist(address)": "753d7563",
    "transferOwnership(address)": "f2fde38b",
    "unstake(uint256,uint256,bool)": "79b91d69",
    "updateStrategyFactoryAddress(address)": "3538fda0",
    "updateTokenWhitelist(address,bool)": "e5e97c65",
    "upgradeTo(address)": "3659cfe6",
    "upgradeToAndCall(address,bytes)": "4f1ef286",
    "userInfo(uint256,address)": "93f1a40b",
    "viewBountyBalance(uint256)": "6ac6d812",
    "viewBountyInfo(uint256)": "40ef2868",
    "viewHackerPayout(uint256)": "861e5f66",
    "viewMinProjectDeposit(uint256)": "1c6b323f",
    "viewPoolAPY(uint256)": "a27f9213",
    "viewPoolCap(uint256)": "39679ff4",
    "viewPoolPremiumInfo(uint256)": "b1a2d16f",
    "viewPoolTimelockInfo(uint256)": "ac30b856",
    "viewSaloonProfitBalance(address)": "718c7eef",
    "viewTotalStaked(uint256)": "dbdd6957",
    "viewUserInfo(uint256,address)": "a754ecb0",
    "viewUserUnclaimed(uint256,address)": "5e3b748b",
    "windDownBounty(uint256)": "bb7019c1"
  },
  "id": 32
}