{
  "abi": [
    {
      "inputs": [
        {
          "internalType": "UD60x18",
          "name": "x",
          "type": "uint256"
        }
      ],
      "name": "PRBMathUD60x18__LogInputTooSmall",
      "type": "error"
    },
    {
      "inputs": [
        {
          "internalType": "uint256",
          "name": "x",
          "type": "uint256"
        }
      ],
      "name": "PRBMathUD60x18__ToUD60x18Overflow",
      "type": "error"
    },
    {
      "inputs": [
        {
          "internalType": "uint256",
          "name": "x",
          "type": "uint256"
        },
        {
          "internalType": "uint256",
          "name": "y",
          "type": "uint256"
        }
      ],
      "name": "PRBMath__MulDiv18Overflow",
      "type": "error"
    },
    {
      "inputs": [
        {
          "internalType": "uint256",
          "name": "x",
          "type": "uint256"
        },
        {
          "internalType": "uint256",
          "name": "y",
          "type": "uint256"
        },
        {
          "internalType": "uint256",
          "name": "denominator",
          "type": "uint256"
        }
      ],
      "name": "PRBMath__MulDivOverflow",
      "type": "error"
    },
    {
      "anonymous": false,
      "inputs": [
        {
          "indexed": false,
          "internalType": "address",
          "name": "previousAdmin",
          "type": "address"
        },
        {
          "indexed": false,
          "internalType": "address",
          "name": "newAdmin",
          "type": "address"
        }
      ],
      "name": "AdminChanged",
      "type": "event"
    },
    {
      "anonymous": false,
      "inputs": [
        {
          "indexed": true,
          "internalType": "address",
          "name": "owner",
          "type": "address"
        },
        {
          "indexed": true,
          "internalType": "address",
          "name": "approved",
          "type": "address"
        },
        {
          "indexed": true,
          "internalType": "uint256",
          "name": "tokenId",
          "type": "uint256"
        }
      ],
      "name": "Approval",
      "type": "event"
    },
    {
      "anonymous": false,
      "inputs": [
        {
          "indexed": true,
          "internalType": "address",
          "name": "owner",
          "type": "address"
        },
        {
          "indexed": true,
          "internalType": "address",
          "name": "operator",
          "type": "address"
        },
        {
          "indexed": false,
          "internalType": "bool",
          "name": "approved",
          "type": "bool"
        }
      ],
      "name": "ApprovalForAll",
      "type": "event"
    },
    {
      "anonymous": false,
      "inputs": [
        {
          "indexed": true,
          "internalType": "address",
          "name": "beacon",
          "type": "address"
        }
      ],
      "name": "BeaconUpgraded",
      "type": "event"
    },
    {
      "anonymous": false,
      "inputs": [
        {
          "indexed": true,
          "internalType": "uint256",
          "name": "pid",
          "type": "uint256"
        },
        {
          "indexed": true,
          "internalType": "uint256",
          "name": "oldAmount",
          "type": "uint256"
        },
        {
          "indexed": true,
          "internalType": "uint256",
          "name": "newAmount",
          "type": "uint256"
        }
      ],
      "name": "BountyBalanceChanged",
      "type": "event"
    },
    {
      "anonymous": false,
      "inputs": [
        {
          "indexed": true,
          "internalType": "uint256",
          "name": "time",
          "type": "uint256"
        },
        {
          "indexed": true,
          "internalType": "address",
          "name": "hunter",
          "type": "address"
        },
        {
          "indexed": true,
          "internalType": "address",
          "name": "token",
          "type": "address"
        },
        {
          "indexed": false,
          "internalType": "uint256",
          "name": "amount",
          "type": "uint256"
        }
      ],
      "name": "BountyPaid",
      "type": "event"
    },
    {
      "anonymous": false,
      "inputs": [
        {
          "indexed": false,
          "internalType": "uint8",
          "name": "version",
          "type": "uint8"
        }
      ],
      "name": "Initialized",
      "type": "event"
    },
    {
      "anonymous": false,
      "inputs": [
        {
          "indexed": true,
          "internalType": "uint256",
          "name": "pid",
          "type": "uint256"
        },
        {
          "indexed": true,
          "internalType": "address",
          "name": "token",
          "type": "address"
        },
        {
          "indexed": true,
          "internalType": "uint256",
          "name": "tokenDecimals",
          "type": "uint256"
        }
      ],
      "name": "NewBountyDeployed",
      "type": "event"
    },
    {
      "anonymous": false,
      "inputs": [
        {
          "indexed": true,
          "internalType": "address",
          "name": "previousOwner",
          "type": "address"
        },
        {
          "indexed": true,
          "internalType": "address",
          "name": "newOwner",
          "type": "address"
        }
      ],
      "name": "OwnershipTransferred",
      "type": "event"
    },
    {
      "anonymous": false,
      "inputs": [
        {
          "indexed": true,
          "internalType": "uint256",
          "name": "pid",
          "type": "uint256"
        },
        {
          "indexed": true,
          "internalType": "uint256",
          "name": "amount",
          "type": "uint256"
        }
      ],
      "name": "PremiumBilled",
      "type": "event"
    },
    {
      "anonymous": false,
      "inputs": [
        {
          "indexed": true,
          "internalType": "address",
          "name": "user",
          "type": "address"
        },
        {
          "indexed": true,
          "internalType": "uint256",
          "name": "pid",
          "type": "uint256"
        },
        {
          "indexed": false,
          "internalType": "uint256",
          "name": "amount",
          "type": "uint256"
        }
      ],
      "name": "Staked",
      "type": "event"
    },
    {
      "anonymous": false,
      "inputs": [
        {
          "indexed": true,
          "internalType": "address",
          "name": "from",
          "type": "address"
        },
        {
          "indexed": true,
          "internalType": "address",
          "name": "to",
          "type": "address"
        },
        {
          "indexed": true,
          "internalType": "uint256",
          "name": "tokenId",
          "type": "uint256"
        }
      ],
      "name": "Transfer",
      "type": "event"
    },
    {
      "anonymous": false,
      "inputs": [
        {
          "indexed": true,
          "internalType": "address",
          "name": "user",
          "type": "address"
        },
        {
          "indexed": true,
          "internalType": "uint256",
          "name": "pid",
          "type": "uint256"
        },
        {
          "indexed": false,
          "internalType": "uint256",
          "name": "amount",
          "type": "uint256"
        }
      ],
      "name": "Unstaked",
      "type": "event"
    },
    {
      "anonymous": false,
      "inputs": [
        {
          "indexed": true,
          "internalType": "address",
          "name": "implementation",
          "type": "address"
        }
      ],
      "name": "Upgraded",
      "type": "event"
    },
    {
      "anonymous": false,
      "inputs": [
        {
          "indexed": true,
          "internalType": "uint256",
          "name": "pid",
          "type": "uint256"
        },
        {
          "indexed": true,
          "internalType": "uint256",
          "name": "amount",
          "type": "uint256"
        }
      ],
      "name": "WithdrawalOrUnstakeScheduled",
      "type": "event"
    },
    {
      "anonymous": false,
      "inputs": [
        {
          "indexed": true,
          "internalType": "address",
          "name": "token",
          "type": "address"
        },
        {
          "indexed": true,
          "internalType": "bool",
          "name": "whitelisted",
          "type": "bool"
        }
      ],
      "name": "tokenWhitelistUpdated",
      "type": "event"
    },
    {
      "inputs": [],
      "name": "acceptOwnershipTransfer",
      "outputs": [],
      "stateMutability": "nonpayable",
      "type": "function"
    },
    {
      "inputs": [
        {
          "internalType": "uint256",
          "name": "",
          "type": "uint256"
        }
      ],
      "name": "activeStrategies",
      "outputs": [
        {
          "internalType": "bytes32",
          "name": "",
          "type": "bytes32"
        }
      ],
      "stateMutability": "view",
      "type": "function"
    },
    {
      "inputs": [
        {
          "internalType": "uint256",
          "name": "",
          "type": "uint256"
        }
      ],
      "name": "activeTokens",
      "outputs": [
        {
          "internalType": "address",
          "name": "",
          "type": "address"
        }
      ],
      "stateMutability": "view",
      "type": "function"
    },
    {
      "inputs": [
        {
          "internalType": "address",
          "name": "_token",
          "type": "address"
        },
        {
          "internalType": "address",
          "name": "_projectWallet",
          "type": "address"
        },
        {
          "internalType": "string",
          "name": "_projectName",
          "type": "string"
        }
      ],
      "name": "addNewBountyPool",
      "outputs": [
        {
          "internalType": "uint256",
          "name": "",
          "type": "uint256"
        }
      ],
      "stateMutability": "nonpayable",
      "type": "function"
    },
    {
      "inputs": [
        {
          "internalType": "address",
          "name": "to",
          "type": "address"
        },
        {
          "internalType": "uint256",
          "name": "tokenId",
          "type": "uint256"
        }
      ],
      "name": "approve",
      "outputs": [],
      "stateMutability": "nonpayable",
      "type": "function"
    },
    {
      "inputs": [
        {
          "internalType": "address",
          "name": "owner",
          "type": "address"
        }
      ],
      "name": "balanceOf",
      "outputs": [
        {
          "internalType": "uint256",
          "name": "",
          "type": "uint256"
        }
      ],
      "stateMutability": "view",
      "type": "function"
    },
    {
      "inputs": [
        {
          "internalType": "uint256",
          "name": "_pid",
          "type": "uint256"
        }
      ],
      "name": "billPremium",
      "outputs": [
        {
          "internalType": "bool",
          "name": "",
          "type": "bool"
        }
      ],
      "stateMutability": "nonpayable",
      "type": "function"
    },
    {
      "inputs": [
        {
          "internalType": "uint256",
          "name": "_poolCap",
          "type": "uint256"
        },
        {
          "internalType": "uint256",
          "name": "_apy",
          "type": "uint256"
        }
      ],
      "name": "calcRequiredPremiumBalancePerPeriod",
      "outputs": [
        {
          "internalType": "uint256",
          "name": "requiredPremiumBalance",
          "type": "uint256"
        }
      ],
      "stateMutability": "pure",
      "type": "function"
    },
    {
      "inputs": [
        {
          "internalType": "uint256",
          "name": "_stake",
          "type": "uint256"
        },
        {
          "internalType": "uint256",
          "name": "_poolID",
          "type": "uint256"
        }
      ],
      "name": "calculateEffectiveAPY",
      "outputs": [
        {
          "internalType": "uint256",
          "name": "toBeMinted",
          "type": "uint256"
        }
      ],
      "stateMutability": "view",
      "type": "function"
    },
    {
      "inputs": [
        {
          "internalType": "uint256",
          "name": "_pid",
          "type": "uint256"
        }
      ],
      "name": "claimPremium",
      "outputs": [],
      "stateMutability": "nonpayable",
      "type": "function"
    },
    {
      "inputs": [
        {
          "internalType": "address",
          "name": "_saloonWallet",
          "type": "address"
        }
      ],
      "name": "collectAllSaloonProfits",
      "outputs": [
        {
          "internalType": "bool",
          "name": "",
          "type": "bool"
        }
      ],
      "stateMutability": "nonpayable",
      "type": "function"
    },
    {
      "inputs": [
        {
          "internalType": "address",
          "name": "_token",
          "type": "address"
        },
        {
          "internalType": "address",
          "name": "_saloonWallet",
          "type": "address"
        }
      ],
      "name": "collectSaloonProfits",
      "outputs": [
        {
          "internalType": "bool",
          "name": "",
          "type": "bool"
        }
      ],
      "stateMutability": "nonpayable",
      "type": "function"
    },
    {
      "inputs": [
        {
          "internalType": "uint256",
          "name": "tokenId",
          "type": "uint256"
        }
      ],
      "name": "getApproved",
      "outputs": [
        {
          "internalType": "address",
          "name": "",
          "type": "address"
        }
      ],
      "stateMutability": "view",
      "type": "function"
    },
    {
      "inputs": [
        {
          "internalType": "uint256",
          "name": "_poolID",
          "type": "uint256"
        }
      ],
      "name": "getCurrentAPY",
      "outputs": [
        {
          "internalType": "uint256",
          "name": "currentAPY",
          "type": "uint256"
        }
      ],
      "stateMutability": "nonpayable",
      "type": "function"
    },
    {
      "inputs": [
        {
          "internalType": "uint256",
          "name": "_from",
          "type": "uint256"
        },
        {
          "internalType": "uint256",
          "name": "_to",
          "type": "uint256"
        }
      ],
      "name": "getMultiplier",
      "outputs": [
        {
          "internalType": "uint256",
          "name": "",
          "type": "uint256"
        }
      ],
      "stateMutability": "pure",
      "type": "function"
    },
    {
      "inputs": [],
      "name": "index",
      "outputs": [
        {
          "internalType": "uint256",
          "name": "",
          "type": "uint256"
        }
      ],
      "stateMutability": "view",
      "type": "function"
    },
    {
      "inputs": [
        {
          "internalType": "address",
          "name": "_strategyFactory",
          "type": "address"
        }
      ],
      "name": "initialize",
      "outputs": [],
      "stateMutability": "nonpayable",
      "type": "function"
    },
    {
      "inputs": [
        {
          "internalType": "address",
          "name": "owner",
          "type": "address"
        },
        {
          "internalType": "address",
          "name": "operator",
          "type": "address"
        }
      ],
      "name": "isApprovedForAll",
      "outputs": [
        {
          "internalType": "bool",
          "name": "",
          "type": "bool"
        }
      ],
      "stateMutability": "view",
      "type": "function"
    },
    {
      "inputs": [
        {
          "internalType": "uint256",
          "name": "_pid",
          "type": "uint256"
        },
        {
          "internalType": "uint256",
          "name": "_deposit",
          "type": "uint256"
        },
        {
          "internalType": "string",
          "name": "_strategyName",
          "type": "string"
        }
      ],
      "name": "makeProjectDeposit",
      "outputs": [],
      "stateMutability": "nonpayable",
      "type": "function"
    },
    {
      "inputs": [],
      "name": "name",
      "outputs": [
        {
          "internalType": "string",
          "name": "",
          "type": "string"
        }
      ],
      "stateMutability": "view",
      "type": "function"
    },
    {
      "inputs": [
        {
          "internalType": "uint256",
          "name": "",
          "type": "uint256"
        }
      ],
      "name": "nftAPY",
      "outputs": [
        {
          "internalType": "uint256",
          "name": "",
          "type": "uint256"
        }
      ],
      "stateMutability": "view",
      "type": "function"
    },
    {
      "inputs": [
        {
          "internalType": "uint256",
          "name": "",
          "type": "uint256"
        }
      ],
      "name": "nftBalance",
      "outputs": [
        {
          "internalType": "uint256",
          "name": "",
          "type": "uint256"
        }
      ],
      "stateMutability": "view",
      "type": "function"
    },
    {
      "inputs": [
        {
          "internalType": "uint256",
          "name": "",
          "type": "uint256"
        }
      ],
      "name": "nftInfo",
      "outputs": [
        {
          "internalType": "uint256",
          "name": "pid",
          "type": "uint256"
        },
        {
          "internalType": "uint256",
          "name": "amount",
          "type": "uint256"
        },
        {
          "internalType": "uint256",
          "name": "apy",
          "type": "uint256"
        }
      ],
      "stateMutability": "view",
      "type": "function"
    },
    {
      "inputs": [],
      "name": "owner",
      "outputs": [
        {
          "internalType": "address",
          "name": "",
          "type": "address"
        }
      ],
      "stateMutability": "view",
      "type": "function"
    },
    {
      "inputs": [
        {
          "internalType": "uint256",
          "name": "tokenId",
          "type": "uint256"
        }
      ],
      "name": "ownerOf",
      "outputs": [
        {
          "internalType": "address",
          "name": "",
          "type": "address"
        }
      ],
      "stateMutability": "view",
      "type": "function"
    },
    {
      "inputs": [
        {
          "internalType": "uint256",
          "name": "_pid",
          "type": "uint256"
        },
        {
          "internalType": "address",
          "name": "_hunter",
          "type": "address"
        },
        {
          "internalType": "uint256",
          "name": "_amount",
          "type": "uint256"
        }
      ],
      "name": "payBounty",
      "outputs": [
        {
          "internalType": "bool",
          "name": "",
          "type": "bool"
        }
      ],
      "stateMutability": "nonpayable",
      "type": "function"
    },
    {
      "inputs": [
        {
          "internalType": "uint256",
          "name": "_pid",
          "type": "uint256"
        },
        {
          "internalType": "address",
          "name": "_user",
          "type": "address"
        }
      ],
      "name": "pendingToken",
      "outputs": [
        {
          "internalType": "uint256",
          "name": "totalPending",
          "type": "uint256"
        },
        {
          "internalType": "uint256",
          "name": "actualPending",
          "type": "uint256"
        },
        {
          "internalType": "uint256",
          "name": "newPending",
          "type": "uint256"
        }
      ],
      "stateMutability": "view",
      "type": "function"
    },
    {
      "inputs": [
        {
          "internalType": "uint256",
          "name": "",
          "type": "uint256"
        },
        {
          "internalType": "bytes32",
          "name": "",
          "type": "bytes32"
        }
      ],
      "name": "pidStrategies",
      "outputs": [
        {
          "internalType": "address",
          "name": "",
          "type": "address"
        }
      ],
      "stateMutability": "view",
      "type": "function"
    },
    {
      "inputs": [
        {
          "internalType": "uint256",
          "name": "",
          "type": "uint256"
        }
      ],
      "name": "poolInfo",
      "outputs": [
        {
          "components": [
            {
              "internalType": "contract IERC20",
              "name": "token",
              "type": "address"
            },
            {
              "internalType": "uint8",
              "name": "tokenDecimals",
              "type": "uint8"
            },
            {
              "internalType": "uint16",
              "name": "apy",
              "type": "uint16"
            },
            {
              "internalType": "address",
              "name": "projectWallet",
              "type": "address"
            },
            {
              "internalType": "string",
              "name": "projectName",
              "type": "string"
            },
            {
              "internalType": "uint256",
              "name": "poolCap",
              "type": "uint256"
            },
            {
              "internalType": "uint256",
              "name": "totalStaked",
              "type": "uint256"
            },
            {
              "internalType": "uint256",
              "name": "multiplier",
              "type": "uint256"
            }
          ],
          "internalType": "struct ISaloon.GeneralInfo",
          "name": "generalInfo",
          "type": "tuple"
        },
        {
          "components": [
            {
              "internalType": "uint256",
              "name": "projectDepositHeld",
              "type": "uint256"
            },
            {
              "internalType": "uint256",
              "name": "projectDepositInStrategy",
              "type": "uint256"
            }
          ],
          "internalType": "struct ISaloon.DepositInfo",
          "name": "depositInfo",
          "type": "tuple"
        },
        {
          "components": [
            {
              "internalType": "uint256",
              "name": "premiumBalance",
              "type": "uint256"
            },
            {
              "internalType": "uint256",
              "name": "premiumAvailable",
              "type": "uint256"
            }
          ],
          "internalType": "struct ISaloon.PremiumInfo",
          "name": "premiumInfo",
          "type": "tuple"
        },
        {
          "components": [
            {
              "internalType": "uint256",
              "name": "timelock",
              "type": "uint256"
            },
            {
              "internalType": "uint256",
              "name": "timeLimit",
              "type": "uint256"
            },
            {
              "internalType": "uint256",
              "name": "withdrawalScheduledAmount",
              "type": "uint256"
            },
            {
              "internalType": "bool",
              "name": "withdrawalExecuted",
              "type": "bool"
            }
          ],
          "internalType": "struct ISaloon.TimelockInfo",
          "name": "poolTimelock",
          "type": "tuple"
        },
        {
          "components": [
            {
              "internalType": "uint256",
              "name": "currentX",
              "type": "uint256"
            },
            {
              "internalType": "uint256",
              "name": "currentY",
              "type": "uint256"
            },
            {
              "internalType": "uint256",
              "name": "totalSupply",
              "type": "uint256"
            }
          ],
          "internalType": "struct ISaloon.TokenInfo",
          "name": "tokenInfo",
          "type": "tuple"
        },
        {
          "internalType": "uint256",
          "name": "freezeTime",
          "type": "uint256"
        },
        {
          "internalType": "bool",
          "name": "isActive",
          "type": "bool"
        }
      ],
      "stateMutability": "view",
      "type": "function"
    },
    {
      "inputs": [],
      "name": "poolLength",
      "outputs": [
        {
          "internalType": "uint256",
          "name": "",
          "type": "uint256"
        }
      ],
      "stateMutability": "view",
      "type": "function"
    },
    {
      "inputs": [
        {
          "internalType": "uint256",
          "name": "_pid",
          "type": "uint256"
        },
        {
          "internalType": "uint256",
          "name": "_amount",
          "type": "uint256"
        }
      ],
      "name": "projectDepositWithdrawal",
      "outputs": [
        {
          "internalType": "bool",
          "name": "",
          "type": "bool"
        }
      ],
      "stateMutability": "nonpayable",
      "type": "function"
    },
    {
      "inputs": [],
      "name": "proxiableUUID",
      "outputs": [
        {
          "internalType": "bytes32",
          "name": "",
          "type": "bytes32"
        }
      ],
      "stateMutability": "view",
      "type": "function"
    },
    {
      "inputs": [
        {
          "internalType": "address",
          "name": "from",
          "type": "address"
        },
        {
          "internalType": "address",
          "name": "to",
          "type": "address"
        },
        {
          "internalType": "uint256",
          "name": "tokenId",
          "type": "uint256"
        }
      ],
      "name": "safeTransferFrom",
      "outputs": [],
      "stateMutability": "nonpayable",
      "type": "function"
    },
    {
      "inputs": [
        {
          "internalType": "address",
          "name": "from",
          "type": "address"
        },
        {
          "internalType": "address",
          "name": "to",
          "type": "address"
        },
        {
          "internalType": "uint256",
          "name": "tokenId",
          "type": "uint256"
        },
        {
          "internalType": "bytes",
          "name": "data",
          "type": "bytes"
        }
      ],
      "name": "safeTransferFrom",
      "outputs": [],
      "stateMutability": "nonpayable",
      "type": "function"
    },
    {
      "inputs": [
        {
          "internalType": "address",
          "name": "",
          "type": "address"
        }
      ],
      "name": "saloonBountyProfit",
      "outputs": [
        {
          "internalType": "uint256",
          "name": "",
          "type": "uint256"
        }
      ],
      "stateMutability": "view",
      "type": "function"
    },
    {
      "inputs": [
        {
          "internalType": "address",
          "name": "",
          "type": "address"
        }
      ],
      "name": "saloonPremiumProfit",
      "outputs": [
        {
          "internalType": "uint256",
          "name": "",
          "type": "uint256"
        }
      ],
      "stateMutability": "view",
      "type": "function"
    },
    {
      "inputs": [
        {
          "internalType": "uint256",
          "name": "_pid",
          "type": "uint256"
        },
        {
          "internalType": "uint256",
          "name": "_amount",
          "type": "uint256"
        }
      ],
      "name": "scheduleProjectDepositWithdrawal",
      "outputs": [
        {
          "internalType": "bool",
          "name": "",
          "type": "bool"
        }
      ],
      "stateMutability": "nonpayable",
      "type": "function"
    },
    {
      "inputs": [
        {
          "internalType": "uint256",
          "name": "_pid",
          "type": "uint256"
        },
        {
          "internalType": "uint256",
          "name": "_amount",
          "type": "uint256"
        }
      ],
      "name": "scheduleUnstake",
      "outputs": [
        {
          "internalType": "bool",
          "name": "",
          "type": "bool"
        }
      ],
      "stateMutability": "nonpayable",
      "type": "function"
    },
    {
      "inputs": [
        {
          "internalType": "uint256",
          "name": "_pid",
          "type": "uint256"
        },
        {
          "internalType": "uint256",
          "name": "_poolCap",
          "type": "uint256"
        },
        {
          "internalType": "uint16",
          "name": "_apy",
          "type": "uint16"
        },
        {
          "internalType": "uint256",
          "name": "_deposit",
          "type": "uint256"
        },
        {
          "internalType": "string",
          "name": "_strategyName",
          "type": "string"
        }
      ],
      "name": "setAPYandPoolCapAndDeposit",
      "outputs": [],
      "stateMutability": "nonpayable",
      "type": "function"
    },
    {
      "inputs": [
        {
          "internalType": "address",
          "name": "operator",
          "type": "address"
        },
        {
          "internalType": "bool",
          "name": "approved",
          "type": "bool"
        }
      ],
      "name": "setApprovalForAll",
      "outputs": [],
      "stateMutability": "nonpayable",
      "type": "function"
    },
    {
      "inputs": [
        {
          "internalType": "uint256",
          "name": "_pid",
          "type": "uint256"
        },
        {
          "internalType": "address",
          "name": "_user",
          "type": "address"
        },
        {
          "internalType": "uint256",
          "name": "_amount",
          "type": "uint256"
        }
      ],
      "name": "stake",
      "outputs": [
        {
          "internalType": "bool",
          "name": "",
          "type": "bool"
        }
      ],
      "stateMutability": "nonpayable",
      "type": "function"
    },
    {
      "inputs": [
        {
          "internalType": "bytes4",
          "name": "interfaceId",
          "type": "bytes4"
        }
      ],
      "name": "supportsInterface",
      "outputs": [
        {
          "internalType": "bool",
          "name": "",
          "type": "bool"
        }
      ],
      "stateMutability": "view",
      "type": "function"
    },
    {
      "inputs": [],
      "name": "symbol",
      "outputs": [
        {
          "internalType": "string",
          "name": "",
          "type": "string"
        }
      ],
      "stateMutability": "view",
      "type": "function"
    },
    {
      "inputs": [
        {
          "internalType": "uint256",
          "name": "tokenId",
          "type": "uint256"
        }
      ],
      "name": "tokenURI",
      "outputs": [
        {
          "internalType": "string",
          "name": "",
          "type": "string"
        }
      ],
      "stateMutability": "view",
      "type": "function"
    },
    {
      "inputs": [
        {
          "internalType": "address",
          "name": "",
          "type": "address"
        }
      ],
      "name": "tokenWhitelist",
      "outputs": [
        {
          "internalType": "bool",
          "name": "",
          "type": "bool"
        }
      ],
      "stateMutability": "view",
      "type": "function"
    },
    {
      "inputs": [
        {
          "internalType": "address",
          "name": "from",
          "type": "address"
        },
        {
          "internalType": "address",
          "name": "to",
          "type": "address"
        },
        {
          "internalType": "uint256",
          "name": "tokenId",
          "type": "uint256"
        }
      ],
      "name": "transferFrom",
      "outputs": [],
      "stateMutability": "nonpayable",
      "type": "function"
    },
    {
      "inputs": [
        {
          "internalType": "address",
          "name": "newOwner",
          "type": "address"
        }
      ],
      "name": "transferOwnership",
      "outputs": [],
      "stateMutability": "nonpayable",
      "type": "function"
    },
    {
      "inputs": [
        {
          "internalType": "uint256",
          "name": "_pid",
          "type": "uint256"
        },
        {
          "internalType": "uint256",
          "name": "_amount",
          "type": "uint256"
        },
        {
          "internalType": "bool",
          "name": "_shouldHarvest",
          "type": "bool"
        }
      ],
      "name": "unstake",
      "outputs": [
        {
          "internalType": "bool",
          "name": "",
          "type": "bool"
        }
      ],
      "stateMutability": "nonpayable",
      "type": "function"
    },
    {
      "inputs": [
        {
          "internalType": "address",
          "name": "_strategyFactory",
          "type": "address"
        }
      ],
      "name": "updateStrategyFactoryAddress",
      "outputs": [],
      "stateMutability": "nonpayable",
      "type": "function"
    },
    {
      "inputs": [
        {
          "internalType": "address",
          "name": "_token",
          "type": "address"
        },
        {
          "internalType": "bool",
          "name": "_whitelisted",
          "type": "bool"
        }
      ],
      "name": "updateTokenWhitelist",
      "outputs": [
        {
          "internalType": "bool",
          "name": "",
          "type": "bool"
        }
      ],
      "stateMutability": "nonpayable",
      "type": "function"
    },
    {
      "inputs": [
        {
          "internalType": "address",
          "name": "newImplementation",
          "type": "address"
        }
      ],
      "name": "upgradeTo",
      "outputs": [],
      "stateMutability": "nonpayable",
      "type": "function"
    },
    {
      "inputs": [
        {
          "internalType": "address",
          "name": "newImplementation",
          "type": "address"
        },
        {
          "internalType": "bytes",
          "name": "data",
          "type": "bytes"
        }
      ],
      "name": "upgradeToAndCall",
      "outputs": [],
      "stateMutability": "payable",
      "type": "function"
    },
    {
      "inputs": [
        {
          "internalType": "uint256",
          "name": "",
          "type": "uint256"
        },
        {
          "internalType": "address",
          "name": "",
          "type": "address"
        }
      ],
      "name": "userInfo",
      "outputs": [
        {
          "internalType": "uint256",
          "name": "amount",
          "type": "uint256"
        },
        {
          "internalType": "uint256",
          "name": "unclaimed",
          "type": "uint256"
        },
        {
          "internalType": "uint256",
          "name": "lastRewardTime",
          "type": "uint256"
        },
        {
          "internalType": "uint256",
          "name": "timelock",
          "type": "uint256"
        },
        {
          "internalType": "uint256",
          "name": "timeLimit",
          "type": "uint256"
        },
        {
          "internalType": "uint256",
          "name": "unstakeScheduledAmount",
          "type": "uint256"
        }
      ],
      "stateMutability": "view",
      "type": "function"
    },
    {
      "inputs": [
        {
          "internalType": "uint256",
          "name": "_pid",
          "type": "uint256"
        }
      ],
      "name": "viewBountyBalance",
      "outputs": [
        {
          "internalType": "uint256",
          "name": "",
          "type": "uint256"
        }
      ],
      "stateMutability": "view",
      "type": "function"
    },
    {
      "inputs": [
        {
          "internalType": "uint256",
          "name": "_pid",
          "type": "uint256"
        }
      ],
      "name": "viewBountyInfo",
      "outputs": [
        {
          "internalType": "uint256",
          "name": "payout",
          "type": "uint256"
        },
        {
          "internalType": "uint256",
          "name": "apy",
          "type": "uint256"
        },
        {
          "internalType": "uint256",
          "name": "staked",
          "type": "uint256"
        },
        {
          "internalType": "uint256",
          "name": "poolCap",
          "type": "uint256"
        }
      ],
      "stateMutability": "view",
      "type": "function"
    },
    {
      "inputs": [
        {
          "internalType": "uint256",
          "name": "_pid",
          "type": "uint256"
        }
      ],
      "name": "viewHackerPayout",
      "outputs": [
        {
          "internalType": "uint256",
          "name": "",
          "type": "uint256"
        }
      ],
      "stateMutability": "view",
      "type": "function"
    },
    {
      "inputs": [
        {
          "internalType": "uint256",
          "name": "_pid",
          "type": "uint256"
        }
      ],
      "name": "viewMinProjectDeposit",
      "outputs": [
        {
          "internalType": "uint256",
          "name": "",
          "type": "uint256"
        }
      ],
      "stateMutability": "view",
      "type": "function"
    },
    {
      "inputs": [
        {
          "internalType": "uint256",
          "name": "_pid",
          "type": "uint256"
        }
      ],
      "name": "viewPoolAPY",
      "outputs": [
        {
          "internalType": "uint256",
          "name": "",
          "type": "uint256"
        }
      ],
      "stateMutability": "view",
      "type": "function"
    },
    {
      "inputs": [
        {
          "internalType": "uint256",
          "name": "_pid",
          "type": "uint256"
        }
      ],
      "name": "viewPoolCap",
      "outputs": [
        {
          "internalType": "uint256",
          "name": "",
          "type": "uint256"
        }
      ],
      "stateMutability": "view",
      "type": "function"
    },
    {
      "inputs": [
        {
          "internalType": "uint256",
          "name": "_pid",
          "type": "uint256"
        }
      ],
      "name": "viewPoolPremiumInfo",
      "outputs": [
        {
          "internalType": "uint256",
          "name": "requiredPremiumBalancePerPeriod",
          "type": "uint256"
        },
        {
          "internalType": "uint256",
          "name": "premiumBalance",
          "type": "uint256"
        },
        {
          "internalType": "uint256",
          "name": "premiumAvailable",
          "type": "uint256"
        }
      ],
      "stateMutability": "view",
      "type": "function"
    },
    {
      "inputs": [
        {
          "internalType": "uint256",
          "name": "_pid",
          "type": "uint256"
        }
      ],
      "name": "viewPoolTimelockInfo",
      "outputs": [
        {
          "internalType": "uint256",
          "name": "timelock",
          "type": "uint256"
        },
        {
          "internalType": "uint256",
          "name": "timeLimit",
          "type": "uint256"
        },
        {
          "internalType": "uint256",
          "name": "withdrawalScheduledAmount",
          "type": "uint256"
        }
      ],
      "stateMutability": "view",
      "type": "function"
    },
    {
      "inputs": [
        {
          "internalType": "address",
          "name": "_token",
          "type": "address"
        }
      ],
      "name": "viewSaloonProfitBalance",
      "outputs": [
        {
          "internalType": "uint256",
          "name": "totalProfit",
          "type": "uint256"
        },
        {
          "internalType": "uint256",
          "name": "bountyProfit",
          "type": "uint256"
        },
        {
          "internalType": "uint256",
          "name": "premiumProfit",
          "type": "uint256"
        }
      ],
      "stateMutability": "view",
      "type": "function"
    },
    {
      "inputs": [
        {
          "internalType": "uint256",
          "name": "_pid",
          "type": "uint256"
        }
      ],
      "name": "viewTotalStaked",
      "outputs": [
        {
          "internalType": "uint256",
          "name": "",
          "type": "uint256"
        }
      ],
      "stateMutability": "view",
      "type": "function"
    },
    {
      "inputs": [
        {
          "internalType": "uint256",
          "name": "_pid",
          "type": "uint256"
        },
        {
          "internalType": "address",
          "name": "_user",
          "type": "address"
        }
      ],
      "name": "viewUserInfo",
      "outputs": [
        {
          "internalType": "uint256",
          "name": "amount",
          "type": "uint256"
        },
        {
          "internalType": "uint256",
          "name": "actualPending",
          "type": "uint256"
        },
        {
          "internalType": "uint256",
          "name": "unstakeScheduledAmount",
          "type": "uint256"
        },
        {
          "internalType": "uint256",
          "name": "timelock",
          "type": "uint256"
        }
      ],
      "stateMutability": "view",
      "type": "function"
    },
    {
      "inputs": [
        {
          "internalType": "uint256",
          "name": "_pid",
          "type": "uint256"
        },
        {
          "internalType": "address",
          "name": "_user",
          "type": "address"
        }
      ],
      "name": "viewUserUnclaimed",
      "outputs": [
        {
          "internalType": "uint256",
          "name": "unclaimed",
          "type": "uint256"
        }
      ],
      "stateMutability": "view",
      "type": "function"
    },
    {
      "inputs": [
        {
          "internalType": "uint256",
          "name": "_pid",
          "type": "uint256"
        }
      ],
      "name": "windDownBounty",
      "outputs": [
        {
          "internalType": "bool",
          "name": "",
          "type": "bool"
        }
      ],
      "stateMutability": "nonpayable",
      "type": "function"
    }
  ],
  "bytecode": {
    "object": "0x60a0604052306080523480156200001557600080fd5b50600160ca55600054610100900460ff16158080156200003c5750600054600160ff909116105b806200006c575062000059306200019760201b62004e8b1760201c565b1580156200006c575060005460ff166001145b620000d55760405162461bcd60e51b815260206004820152602e60248201527f496e697469616c697a61626c653a20636f6e747261637420697320616c72656160448201526d191e481a5b9a5d1a585b1a5e995960921b60648201526084015b60405180910390fd5b6000805460ff191660011790558015620000f9576000805461ff0019166101001790555b620001496040518060400160405280600b81526020016a2137bab73a3caa37b5b2b760a91b8152506040518060400160405280600381526020016210951560ea1b815250620001a660201b60201c565b801562000190576000805461ff0019169055604051600181527f7f26b83ff96e1f2b6a682f133852f6798a09c465da95921460cefb38474024989060200160405180910390a15b5062000400565b6001600160a01b03163b151590565b600054610100900460ff16620002025760405162461bcd60e51b815260206004820152602b602482015260008051602062007a6983398151915260448201526a6e697469616c697a696e6760a81b6064820152608401620000cc565b6200020e828262000212565b5050565b600054610100900460ff166200026e5760405162461bcd60e51b815260206004820152602b602482015260008051602062007a6983398151915260448201526a6e697469616c697a696e6760a81b6064820152608401620000cc565b60fd6200027c838262000334565b5060fe6200028b828262000334565b505050565b634e487b7160e01b600052604160045260246000fd5b600181811c90821680620002bb57607f821691505b602082108103620002dc57634e487b7160e01b600052602260045260246000fd5b50919050565b601f8211156200028b57600081815260208120601f850160051c810160208610156200030b5750805b601f850160051c820191505b818110156200032c5782815560010162000317565b505050505050565b81516001600160401b0381111562000350576200035062000290565b6200036881620003618454620002a6565b84620002e2565b602080601f831160018114620003a05760008415620003875750858301515b600019600386901b1c1916600185901b1785556200032c565b600085815260208120601f198616915b82811015620003d157888601518255948401946001909101908401620003b0565b5085821015620003f05787850151600019600388901b60f8161c191681555b5050505050600190811b01905550565b608051617631620004386000396000818161170b0152818161174b0152818161205001528181612090015261212301526176316000f3fe6080604052600436106103d95760003560e01c80637fbf3853116101fd578063b1a2d16f11610118578063cf9564b9116100ab578063e63d6ee41161007a578063e63d6ee414610cdb578063e985e9c514610d09578063ecd7fbed14610d53578063f2fde38b14610d73578063f47ec3be14610d9357600080fd5b8063cf9564b914610c4d578063dbdd695714610c6d578063e45abd0f14610c8d578063e5e97c6514610cbb57600080fd5b8063bb7019c1116100e7578063bb7019c114610bbf578063c4d66de814610bdf578063c87b56dd14610bff578063ca00614814610c1f57600080fd5b8063b1a2d16f14610b3c578063b20b242914610b5c578063b842e87f14610b8a578063b88d4fde14610b9f57600080fd5b806395d89b4111610190578063a27f92131161015f578063a27f921314610abc578063a754ecb014610adc578063ac30b85614610afc578063ae07f94814610b1c57600080fd5b806395d89b4114610a47578063983c1ce014610a5c5780639f224f3514610a7c578063a22cb46514610a9c57600080fd5b80638da5cb5b116101cc5780638da5cb5b146109605780638dbb1e3a1461097e57806391635b4e1461099e57806393f1a40b146109be57600080fd5b80637fbf3853146108e0578063804fd59014610900578063836ef1fa14610920578063861e5f661461094057600080fd5b806339679ff4116102f85780635c46f7b11161028b5780636e9c931c1161025a5780636e9c931c1461082f57806370a082311461084f578063718c7eef1461086f578063753d75631461088f57806379b91d69146108c057600080fd5b80635c46f7b1146107895780635e3b748b146107a95780636352211e146107ef5780636ac6d8121461080f57600080fd5b806348e43af4116102c757806348e43af4146107215780634f1ef2861461074157806352d1902d146107545780635669cbef1461076957600080fd5b806339679ff4146106815780633ac6ad7b146106a157806340ef2868146106c157806342842e0e1461070157600080fd5b80631df56622116103705780632dbe051e1161033f5780632dbe051e1461060157806330ca0794146106215780633538fda0146106415780633659cfe61461066157600080fd5b80631df56622146105445780631f8bc7901461057257806323b872dd146105ca5780632986c0e5146105ea57600080fd5b8063081e3eda116103ac578063081e3eda146104af578063095ea7b3146104cf5780631526fe27146104f15780631c6b323f1461052457600080fd5b806301ffc9a7146103de57806306fdde0314610413578063074ecf0314610435578063081812fc1461048f575b600080fd5b3480156103ea57600080fd5b506103fe6103f9366004616966565b610db3565b60405190151581526020015b60405180910390f35b34801561041f57600080fd5b50610428610e05565b60405161040a91906169d3565b34801561044157600080fd5b506104776104503660046169e6565b6101386020908152600092835260408084209091529082529020546001600160a01b031681565b6040516001600160a01b03909116815260200161040a565b34801561049b57600080fd5b506104776104aa366004616a08565b610e97565b3480156104bb57600080fd5b50610130545b60405190815260200161040a565b3480156104db57600080fd5b506104ef6104ea366004616a36565b610ebf565b005b3480156104fd57600080fd5b5061051161050c366004616a08565b610fd9565b60405161040a9796959493929190616a62565b34801561053057600080fd5b506104c161053f366004616a08565b6111a8565b34801561055057600080fd5b506104c161055f366004616a08565b6101326020526000908152604090205481565b34801561057e57600080fd5b506105af61058d366004616a08565b6101336020526000908152604090208054600182015460029092015490919083565b6040805193845260208401929092529082015260600161040a565b3480156105d657600080fd5b506104ef6105e5366004616b79565b611412565b3480156105f657600080fd5b506104c16101035481565b34801561060d57600080fd5b506103fe61061c366004616a08565b611443565b34801561062d57600080fd5b506104ef61063c366004616c5d565b61145d565b34801561064d57600080fd5b506104ef61065c366004616cd1565b6116d6565b34801561066d57600080fd5b506104ef61067c366004616cd1565b611701565b34801561068d57600080fd5b506104c161069c366004616a08565b6117e0565b3480156106ad57600080fd5b506103fe6106bc366004616cee565b611a35565b3480156106cd57600080fd5b506106e16106dc366004616a08565b611ee9565b60408051948552602085019390935291830152606082015260800161040a565b34801561070d57600080fd5b506104ef61071c366004616b79565b611f22565b34801561072d57600080fd5b506105af61073c366004616d15565b611f3d565b6104ef61074f366004616d45565b612046565b34801561076057600080fd5b506104c1612116565b34801561077557600080fd5b506103fe6107843660046169e6565b6121c9565b34801561079557600080fd5b506104c16107a43660046169e6565b6122ef565b3480156107b557600080fd5b506104c16107c4366004616d15565b6000918252610136602090815260408084206001600160a01b03909316845291905290206001015490565b3480156107fb57600080fd5b5061047761080a366004616a08565b612654565b34801561081b57600080fd5b506104c161082a366004616a08565b6126b4565b34801561083b57600080fd5b506103fe61084a366004616cee565b612918565b34801561085b57600080fd5b506104c161086a366004616cd1565b612d9c565b34801561087b57600080fd5b506105af61088a366004616cd1565b612e23565b34801561089b57600080fd5b506103fe6108aa366004616cd1565b61013a6020526000908152604090205460ff1681565b3480156108cc57600080fd5b506103fe6108db366004616da3565b612e5b565b3480156108ec57600080fd5b506104c16108fb366004616a08565b61313b565b34801561090c57600080fd5b506104c161091b366004616ddc565b6133af565b34801561092c57600080fd5b506104c161093b3660046169e6565b613730565b34801561094c57600080fd5b506104c161095b366004616a08565b613766565b34801561096c57600080fd5b506033546001600160a01b0316610477565b34801561098a57600080fd5b506104c16109993660046169e6565b6139e0565b3480156109aa57600080fd5b506103fe6109b93660046169e6565b6139ec565b3480156109ca57600080fd5b50610a1a6109d9366004616d15565b610136602090815260009283526040808420909152908252902080546001820154600283015460038401546004850154600590950154939492939192909186565b604080519687526020870195909552938501929092526060840152608083015260a082015260c00161040a565b348015610a5357600080fd5b50610428613ac6565b348015610a6857600080fd5b506103fe610a773660046169e6565b613ad5565b348015610a8857600080fd5b50610477610a97366004616a08565b613c4f565b348015610aa857600080fd5b506104ef610ab7366004616e3e565b613c7a565b348015610ac857600080fd5b506104c1610ad7366004616a08565b613c85565b348015610ae857600080fd5b506106e1610af7366004616d15565b613edd565b348015610b0857600080fd5b506105af610b17366004616a08565b613f2e565b348015610b2857600080fd5b506104ef610b37366004616e6c565b61419a565b348015610b4857600080fd5b506105af610b57366004616a08565b614268565b348015610b6857600080fd5b506104c1610b77366004616a08565b6101396020526000908152604090205481565b348015610b9657600080fd5b506104ef6144e9565b348015610bab57600080fd5b506104ef610bba366004616ea6565b614569565b348015610bcb57600080fd5b506103fe610bda366004616a08565b6145a1565b348015610beb57600080fd5b506104ef610bfa366004616cd1565b61466d565b348015610c0b57600080fd5b50610428610c1a366004616a08565b61479a565b348015610c2b57600080fd5b506104c1610c3a366004616cd1565b6101356020526000908152604090205481565b348015610c5957600080fd5b506103fe610c68366004616f12565b61480d565b348015610c7957600080fd5b506104c1610c88366004616a08565b614888565b348015610c9957600080fd5b506104c1610ca8366004616cd1565b6101346020526000908152604090205481565b348015610cc757600080fd5b506103fe610cd6366004616e3e565b614add565b348015610ce757600080fd5b506104c1610cf6366004616a08565b6101316020526000908152604090205481565b348015610d1557600080fd5b506103fe610d24366004616f12565b6001600160a01b0391821660009081526101026020908152604080832093909416825291909152205460ff1690565b348015610d5f57600080fd5b506103fe610d6e366004616cd1565b614d12565b348015610d7f57600080fd5b506104ef610d8e366004616cd1565b614dde565b348015610d9f57600080fd5b506104ef610dae366004616a08565b614e6d565b60006001600160e01b031982166380ac58cd60e01b1480610de457506001600160e01b03198216635b5e139f60e01b145b80610dff57506301ffc9a760e01b6001600160e01b03198316145b92915050565b606060fd8054610e1490616f40565b80601f0160208091040260200160405190810160405280929190818152602001828054610e4090616f40565b8015610e8d5780601f10610e6257610100808354040283529160200191610e8d565b820191906000526020600020905b815481529060010190602001808311610e7057829003601f168201915b5050505050905090565b6000610ea282614e9a565b50600090815261010160205260409020546001600160a01b031690565b6000610eca82612654565b9050806001600160a01b0316836001600160a01b031603610f3c5760405162461bcd60e51b815260206004820152602160248201527f4552433732313a20617070726f76616c20746f2063757272656e74206f776e656044820152603960f91b60648201526084015b60405180910390fd5b336001600160a01b0382161480610f585750610f588133610d24565b610fca5760405162461bcd60e51b815260206004820152603d60248201527f4552433732313a20617070726f76652063616c6c6572206973206e6f7420746f60448201527f6b656e206f776e6572206f7220617070726f76656420666f7220616c6c0000006064820152608401610f33565b610fd48383614ef9565b505050565b6101308181548110610fea57600080fd5b60009182526020918290206040805161010081018252601490930290910180546001600160a01b03808216855260ff600160a01b8304169585019590955261ffff600160a81b90910416918301919091526001810154909216606082015260028201805492935090918391608084019161106390616f40565b80601f016020809104026020016040519081016040528092919081815260200182805461108f90616f40565b80156110dc5780601f106110b1576101008083540402835291602001916110dc565b820191906000526020600020905b8154815290600101906020018083116110bf57829003601f168201915b505050918352505060038201546020808301919091526004830154604080840191909152600590930154606092830152825180840184526006860154815260078601548183015283518085018552600887015481526009870154818401528451608081018652600a8801548152600b88015481850152600c88015481870152600d88015460ff90811615158287015286519586018752600e8901548652600f89015494860194909452601088015495850195909552601287015460139097015495969195909493921687565b60008061013083815481106111bf576111bf616f7a565b6000918252602090912060408051610200810190915260149092020180546001600160a01b038082166101008501908152600160a01b830460ff16610120860152600160a81b90920461ffff1661014085015260018301541661016084015260028201805484929184916101808501919061123990616f40565b80601f016020809104026020016040519081016040528092919081815260200182805461126590616f40565b80156112b25780601f10611287576101008083540402835291602001916112b2565b820191906000526020600020905b81548152906001019060200180831161129557829003601f168201915b505050918352505060038201546020808301919091526004830154604080840191909152600590930154606092830152928452815180830183526006860154815260078601548185015284840152815180830183526008860154815260098601548185015284830152815160808082018452600a8701548252600b87015482860152600c87015482850152600d87015460ff161515828401528583019190915282519182018352600e8601548252600f8601548285015260108601548284015284015260118401805482518185028101850190935280835260a09094019391929091908301828280156113ce57602002820191906000526020600020905b81546001600160a01b031681526001909101906020018083116113b0575b5050509183525050601282015460208083019190915260139092015460ff1615156040909101528181015190810151905191925061140b91616fa6565b9392505050565b61141c3382614f68565b6114385760405162461bcd60e51b8152600401610f3390616fb9565b610fd4838383614fe7565b600061144d61514d565b6114588260006151a7565b919050565b6000610130868154811061147357611473616f7a565b60009182526020909120601490910201601381015490915060ff1615801561149d57506003810154155b6114e95760405162461bcd60e51b815260206004820152601860248201527f506f6f6c20616c726561647920696e697469616c697a656400000000000000006044820152606401610f33565b60008461ffff1611801561150357506127108461ffff1611155b6115425760405162461bcd60e51b815260206004820152601060248201526f415059206f7574206f662072616e676560801b6044820152606401610f33565b805461155990600160a01b900460ff16600a6170ea565b6115649060646170f9565b85101580156115965750805461158590600160a01b900460ff16600a6170ea565b61159290629896806170f9565b8511155b6115da5760405162461bcd60e51b8152602060048201526015602482015274506f6f6c20636170206f7574206f662072616e676560581b6044820152606401610f33565b60018101546001600160a01b031633146116065760405162461bcd60e51b8152600401610f3390617110565b6000611616868661ffff16613730565b905060006127106116296103e8846170f9565b611633919061714e565b905061165733306116448589616fa6565b86546001600160a01b03169291906152f2565b508483600601600001600082825461166f9190616fa6565b909155505060038301879055825461ffff60a81b1916600160a81b61ffff88160217835560138301805460ff19166001179055600883018290556116b38183617170565b60098401558351156116cc576116ca888587615360565b505b5050505050505050565b6116de61514d565b61013780546001600160a01b0319166001600160a01b0392909216919091179055565b6001600160a01b037f00000000000000000000000000000000000000000000000000000000000000001630036117495760405162461bcd60e51b8152600401610f3390617183565b7f00000000000000000000000000000000000000000000000000000000000000006001600160a01b03166117926000805160206175b5833981519152546001600160a01b031690565b6001600160a01b0316146117b85760405162461bcd60e51b8152600401610f33906171cf565b6117c1816154fa565b604080516000808252602082019092526117dd91839190615502565b50565b60008061013083815481106117f7576117f7616f7a565b6000918252602090912060408051610200810190915260149092020180546001600160a01b038082166101008501908152600160a01b830460ff16610120860152600160a81b90920461ffff1661014085015260018301541661016084015260028201805484929184916101808501919061187190616f40565b80601f016020809104026020016040519081016040528092919081815260200182805461189d90616f40565b80156118ea5780601f106118bf576101008083540402835291602001916118ea565b820191906000526020600020905b8154815290600101906020018083116118cd57829003601f168201915b505050918352505060038201546020808301919091526004830154604080840191909152600590930154606092830152928452815180830183526006860154815260078601548185015284840152815180830183526008860154815260098601548185015284830152815160808082018452600a8701548252600b87015482860152600c87015482850152600d87015460ff161515828401528583019190915282519182018352600e8601548252600f8601548285015260108601548284015284015260118401805482518185028101850190935280835260a0909401939192909190830182828015611a0657602002820191906000526020600020905b81546001600160a01b031681526001909101906020018083116119e8575b50505091835250506012820154602082015260139091015460ff1615156040909101525160a001519392505050565b6000611a3f61514d565b60006101308581548110611a5557611a55616f7a565b60009182526020822060046014909202019081015490925090611a77876111a8565b611a819083616fa6565b905080828611611c2257828603611b2557601184015460005b81811015611b07576000866011018281548110611ab957611ab9616f7a565b60009182526020808320909101548d8352610136825260408084206001600160a01b039092168085529190925290822090925090611afa908d90849061566d565b6000905550600101611a9a565b50600060048601819055611b1f9060118701906167ae565b50611de3565b600083611b3a670de0b6b3a7640000896170f9565b611b44919061714e565b601186015490915060005b81811015611c1a576000876011018281548110611b6e57611b6e616f7a565b60009182526020808320909101548e8352610136825260408084206001600160a01b039092168085529190925290822090925090611baf908e90849061566d565b6000670de0b6b3a7640000868360000154611bca91906170f9565b611bd4919061714e565b905080826000016000828254611bea9190617170565b909155505060048a018054829190600090611c06908490617170565b909155505060019093019250611b4f915050565b505050611de3565b8286118015611c3057508186105b15611cfe57601184015460005b81811015611caa576000866011018281548110611c5c57611c5c616f7a565b60009182526020808320909101548d8352610136825260408084206001600160a01b039092168085529190925290822090925090611c9d908d90849061566d565b6000905550600101611c3d565b50600060048601819055611cc29060118701906167ae565b611ccb896157c4565b506000611cd88589617170565b905080866006016000016000828254611cf19190617170565b90915550611de392505050565b818603611da957601184015460005b81811015611d7a576000866011018281548110611d2c57611d2c616f7a565b60009182526020808320909101548d8352610136825260408084206001600160a01b039092168085529190925290822090925090611d6d908d90849061566d565b6000905550600101611d0d565b50600060048601819055611d929060118701906167ae565b611d9b896157c4565b505060006006850155611de3565b60405162461bcd60e51b815260206004820152600f60248201526e082dadeeadce840e8dede40d0d2ced608b1b6044820152606401610f33565b6000612710611df46103e8896170f9565b611dfe919061714e565b90506000611e0c8289617170565b86546001600160a01b031660009081526101346020526040812080549293508492909190611e3b908490616fa6565b90915550508554611e56906001600160a01b03168a83615922565b506000611e628b6111a8565b6004880154611e719190616fa6565b87546040518b81529192506001600160a01b0390811691908c169042907fc351e6e0f377ec1a399ec84224a83d6a4b9f3cd9a5530e5c652d0b11c2f8dae29060200160405180910390a480848c60008051602061759583398151915260405160405180910390a45060019a9950505050505050505050565b600080600080611ef885613766565b9350611f0385614888565b9150611f0e85613c85565b9250611f19856117e0565b90509193509193565b610fd483838360405180602001604052806000815250614569565b6000806000806101308681548110611f5757611f57616f7a565b60009182526020808320898452610136825260408085206001600160a01b038b16865290925290832060149290920201600481015460128201549194509192908103611fa35742611fa9565b83601201545b90506000611fbb8460020154836139e0565b855485549192506301e1338091839161271091611fe391600160a81b900461ffff16906170f9565b611fed919061714e565b611ff791906170f9565b612001919061714e565b95508360010154866120139190616fa6565b97506127106120246103e882617170565b61202e908a6170f9565b612038919061714e565b965050505050509250925092565b6001600160a01b037f000000000000000000000000000000000000000000000000000000000000000016300361208e5760405162461bcd60e51b8152600401610f3390617183565b7f00000000000000000000000000000000000000000000000000000000000000006001600160a01b03166120d76000805160206175b5833981519152546001600160a01b031690565b6001600160a01b0316146120fd5760405162461bcd60e51b8152600401610f33906171cf565b612106826154fa565b61211282826001615502565b5050565b6000306001600160a01b037f000000000000000000000000000000000000000000000000000000000000000016146121b65760405162461bcd60e51b815260206004820152603860248201527f555550535570677261646561626c653a206d757374206e6f742062652063616c60448201527f6c6564207468726f7567682064656c656761746563616c6c00000000000000006064820152608401610f33565b506000805160206175b583398151915290565b60008061013084815481106121e0576121e0616f7a565b90600052602060002090601402019050826121fa856111a8565b10156122485760405162461bcd60e51b815260206004820152601a60248201527f416d6f756e7420626967676572207468616e206465706f7369740000000000006044820152606401610f33565b60018101546001600160a01b031633146122745760405162461bcd60e51b8152600401610f3390617110565b61228162093a8042616fa6565b600a82015561229362093a8042616fa6565b6122a0906203f480616fa6565b600b820155600c8101839055600d8101805460ff19169055604051839085907fb3b9c925de3673837b40c6b4d4463a8f88dc821cd27e07f1ff6bf6abf96413a590600090a35060019392505050565b600080610130838154811061230657612306616f7a565b6000918252602090912060408051610200810190915260149092020180546001600160a01b038082166101008501908152600160a01b830460ff16610120860152600160a81b90920461ffff1661014085015260018301541661016084015260028201805484929184916101808501919061238090616f40565b80601f01602080910402602001604051908101604052809291908181526020018280546123ac90616f40565b80156123f95780601f106123ce576101008083540402835291602001916123f9565b820191906000526020600020905b8154815290600101906020018083116123dc57829003601f168201915b505050918352505060038201546020808301919091526004830154604080840191909152600590930154606092830152928452815180830183526006860154815260078601548185015284840152815180830183526008860154815260098601548185015284830152815160808082018452600a8701548252600b87015482860152600c87015482850152600d87015460ff161515828401528583019190915282519182018352600e8601548252600f8601548285015260108601548284015284015260118401805482518185028101850190935280835260a090940193919290919083018282801561251557602002820191906000526020600020905b81546001600160a01b031681526001909101906020018083116124f7575b50505091835250506012820154602082015260139091015460ff161515604090910152608081015151909150600061254d8686615955565b509050600061255c8383616fa6565b9050600061256b8260216170f9565b61257d90674563918244f40000616fa6565b9050600061258c8560216170f9565b61259e90674563918244f40000616fa6565b905060006125b36125ae846159b2565b6159fb565b905060006125c36125ae846159b2565b905060006126016125d460216159b2565b6125fb6125e18686615a33565b6125f56a295be96e640669720000006159b2565b90615a42565b90615a51565b9050600061261288620f42406170f9565b61261c908361714e565b8a5160e00151909150670de0b6b3a764000061263882846170f9565b612642919061714e565b9e9d5050505050505050505050505050565b600081815260ff60205260408120546001600160a01b031680610dff5760405162461bcd60e51b8152602060048201526018602482015277115490cdcc8c4e881a5b9d985b1a59081d1bdad95b88125160421b6044820152606401610f33565b60008061013083815481106126cb576126cb616f7a565b6000918252602090912060408051610200810190915260149092020180546001600160a01b038082166101008501908152600160a01b830460ff16610120860152600160a81b90920461ffff1661014085015260018301541661016084015260028201805484929184916101808501919061274590616f40565b80601f016020809104026020016040519081016040528092919081815260200182805461277190616f40565b80156127be5780601f10612793576101008083540402835291602001916127be565b820191906000526020600020905b8154815290600101906020018083116127a157829003601f168201915b505050918352505060038201546020808301919091526004830154604080840191909152600590930154606092830152928452815180830183526006860154815260078601548185015284840152815180830183526008860154815260098601548185015284830152815160808082018452600a8701548252600b87015482860152600c87015482850152600d87015460ff161515828401528583019190915282519182018352600e8601548252600f8601548285015260108601548284015284015260118401805482518185028101850190935280835260a09094019391929091908301828280156128da57602002820191906000526020600020905b81546001600160a01b031681526001909101906020018083116128bc575b50505091835250506012820154602082015260139091015460ff1615156040909101529050612908836111a8565b815160c0015161140b9190616fa6565b6000612922615a69565b836000610130828154811061293957612939616f7a565b6000918252602090912060408051610200810190915260149092020180546001600160a01b038082166101008501908152600160a01b830460ff16610120860152600160a81b90920461ffff166101408501526001830154166101608401526002820180548492918491610180850191906129b390616f40565b80601f01602080910402602001604051908101604052809291908181526020018280546129df90616f40565b8015612a2c5780601f10612a0157610100808354040283529160200191612a2c565b820191906000526020600020905b815481529060010190602001808311612a0f57829003601f168201915b505050918352505060038201546020808301919091526004830154604080840191909152600590930154606092830152928452815180830183526006860154815260078601548185015284840152815180830183526008860154815260098601548185015284830152815160808082018452600a8701548252600b87015482860152600c87015482850152600d87015460ff161515828401528583019190915282519182018352600e8601548252600f8601548285015260108601548284015284015260118401805482518185028101850190935280835260a0909401939192909190830182828015612b4857602002820191906000526020600020905b81546001600160a01b03168152600190910190602001808311612b2a575b50505091835250506012820154602082015260139091015460ff16151560409091015260e0810151909150612bb15760405162461bcd60e51b815260206004820152600f60248201526e706f6f6c206e6f742061637469766560881b6044820152606401610f33565b60008411612bbe57600080fd5b60006101308781548110612bd457612bd4616f7a565b600091825260208083208a8452610136825260408085206001600160a01b038c1686529092529083206014929092020160068101546004820154919450919291612c1d91616fa6565b9050612c2b8989600161566d565b8154600003612c6557601183018054600181018255600091825260209091200180546001600160a01b0319166001600160a01b038a161790555b8254612c7c906001600160a01b031633308a6152f2565b5086826000016000828254612c919190616fa6565b9091555050600483018054889190600090612cad908490616fa6565b9091555050600383015415801590612ccd57506003830154600484015411155b612d0f5760405162461bcd60e51b8152602060048201526013602482015272115e18d959591959081c1bdbdb081b1a5b5a5d606a1b6044820152606401610f33565b88886001600160a01b03167f1449c6dd7851abc30abf37f57715f492010519147cc2652fbc38202c18a6ee9089604051612d4b91815260200190565b60405180910390a360068301546004840154600091612d6991616fa6565b905080828b60008051602061759583398151915260405160405180910390a46001965050505050505061140b600160ca55565b60006001600160a01b038216612e065760405162461bcd60e51b815260206004820152602960248201527f4552433732313a2061646472657373207a65726f206973206e6f7420612076616044820152683634b21037bbb732b960b91b6064820152608401610f33565b506001600160a01b03166000908152610100602052604090205490565b6001600160a01b03811660009081526101346020908152604080832054610135909252822054612e538282616fa6565b949193509150565b6000612e65615a69565b60006101308581548110612e7b57612e7b616f7a565b60009182526020808320888452610136825260408085203386529092529220805460149092029092019250851115612eea5760405162461bcd60e51b81526020600482015260126024820152711dda5d1a191c985dce881b9bdd0819dbdbd960721b6044820152606401610f33565b428160030154108015612f005750428160040154115b8015612f10575084816005015410155b8015612f1f5750600381015415155b612f3b5760405162461bcd60e51b8152600401610f339061721b565b60006003820181905560068301546004840154612f589190616fa6565b9050612f6587338761566d565b8515612fa5578154612f779087615ac2565b82556004830154612f889087615ac2565b60048401558254612fa3906001600160a01b03163388615922565b505b81546000036130bd57601183015460005b818110156130ba57336001600160a01b0316856011018281548110612fdd57612fdd616f7a565b6000918252602090912001546001600160a01b0316036130b257600060118601613008600185617170565b8154811061301857613018616f7a565b6000918252602090912001546011870180546001600160a01b03909216925082918490811061304957613049616f7a565b9060005260206000200160006101000a8154816001600160a01b0302191690836001600160a01b031602179055508560110180548061308a5761308a617264565b600082815260209020810160001990810180546001600160a01b0319169055019055506130ba565b600101612fb6565b50505b604051868152879033907f7fc4727e062e336010f2c282598ef5f14facb3de68cf8195c2f23e1454b2b74e9060200160405180910390a36006830154600484015460009161310a91616fa6565b905080828960008051602061759583398151915260405160405180910390a4600194505050505061140b600160ca55565b600080610130838154811061315257613152616f7a565b6000918252602090912060408051610200810190915260149092020180546001600160a01b038082166101008501908152600160a01b830460ff16610120860152600160a81b90920461ffff166101408501526001830154166101608401526002820180548492918491610180850191906131cc90616f40565b80601f01602080910402602001604051908101604052809291908181526020018280546131f890616f40565b80156132455780601f1061321a57610100808354040283529160200191613245565b820191906000526020600020905b81548152906001019060200180831161322857829003601f168201915b505050918352505060038201546020808301919091526004830154604080840191909152600590930154606092830152928452815180830183526006860154815260078601548185015284840152815180830183526008860154815260098601548185015284830152815160808082018452600a8701548252600b87015482860152600c87015482850152600d87015460ff161515828401528583019190915282519182018352600e8601548252600f8601548285015260108601548284015284015260118401805482518185028101850190935280835260a090940193919290919083018282801561336157602002820191906000526020600020905b81546001600160a01b03168152600190910190602001808311613343575b50505091835250506012820154602082015260139091015460ff161515604090910152608081015151815160e001519192509061339d82615ace565b6133a791906170f9565b949350505050565b60006133b961514d565b6001600160a01b038416600090815261013a602052604090205460ff1661341a5760405162461bcd60e51b81526020600482015260156024820152741d1bdad95b881b9bdd081dda1a5d195b1a5cdd1959605a1b6044820152606401610f33565b60408051600481526024810182526020810180516001600160e01b031663313ce56760e01b17905290516000916001600160a01b0387169161345c919061727a565b600060405180830381855afa9150503d8060008114613497576040519150601f19603f3d011682016040523d82523d6000602084013e61349c565b606091505b509150506000818060200190518101906134b69190617296565b90506134c06167cc565b80516001600160a01b03808916909152815160ff8085166020928301528351898416606091820152845160809081018a9052855160006040918201819052875160a001819052875160e0908101829052885160c0908101839052878a0151839052858a01805184905280518901849052805185018490525186018390529089018290528801819052610130805460018101825591528751805160149092027f2f605e086faac1d93117bbfbc18835d434e9405fadc1ca66faf4b864746daf3481018054988301519483015161ffff16600160a81b0261ffff60a81b1995909816600160a01b026001600160a81b0319909916938a16939093179790971792909216949094178455918201517f2f605e086faac1d93117bbfbc18835d434e9405fadc1ca66faf4b864746daf3585018054919096166001600160a01b03199190911617909455928301518493919283917f2f605e086faac1d93117bbfbc18835d434e9405fadc1ca66faf4b864746daf369091019061363e9082617307565b5060a082810151600383015560c0830151600483015560e0909201516005909101556020838101518051600685015581015160078401556040808501518051600886015582015160098501556060808601518051600a87015580840151600b87015580830151600c8701550151600d8501805460ff191691151591909117905560808501518051600e86015580830151600f860155015160108401559083015180516136f092601185019201906168d6565b5060c0820151601282015560e0909101516013909101805460ff19169115159190911790556101305461372590600190617170565b979650505050505050565b60006301e1338061271062093a8061374885876170f9565b61375291906170f9565b61375c919061714e565b61140b919061714e565b600080610130838154811061377d5761377d616f7a565b6000918252602090912060408051610200810190915260149092020180546001600160a01b038082166101008501908152600160a01b830460ff16610120860152600160a81b90920461ffff166101408501526001830154166101608401526002820180548492918491610180850191906137f790616f40565b80601f016020809104026020016040519081016040528092919081815260200182805461382390616f40565b80156138705780601f1061384557610100808354040283529160200191613870565b820191906000526020600020905b81548152906001019060200180831161385357829003601f168201915b505050918352505060038201546020808301919091526004830154604080840191909152600590930154606092830152928452815180830183526006860154815260078601548185015284840152815180830183526008860154815260098601548185015284830152815160808082018452600a8701548252600b87015482860152600c87015482850152600d87015460ff161515828401528583019190915282519182018352600e8601548252600f8601548285015260108601548284015284015260118401805482518185028101850190935280835260a090940193919290919083018282801561398c57602002820191906000526020600020905b81546001600160a01b0316815260019091019060200180831161396e575b50505091835250506012820154602082015260139091015460ff16151560409091015290506127106139c06103e882617170565b602083015151835160c001516139d69190616fa6565b61375c91906170f9565b600061140b8284615ac2565b60008281526101366020908152604080832033845290915281208054831115613a575760405162461bcd60e51b815260206004820152601a60248201527f416d6f756e7420626967676572207468616e206465706f7369740000000000006044820152606401610f33565b613a6462093a8042616fa6565b6003820155613a7662093a8042616fa6565b613a83906203f480616fa6565b600482015560058101839055604051839085907fb3b9c925de3673837b40c6b4d4463a8f88dc821cd27e07f1ff6bf6abf96413a590600090a35060019392505050565b606060fe8054610e1490616f40565b6000806101308481548110613aec57613aec616f7a565b6000918252602090912060149091020160018101549091506001600160a01b03163314613b2b5760405162461bcd60e51b8152600401610f3390617110565b600a81015442118015613b415750600b81015442105b8015613b525750600d81015460ff16155b8015613b625750600c8101548311155b8015613b715750600a81015415155b613b8d5760405162461bcd60e51b8152600401610f339061721b565b600d8101805460ff191660011790556006810154831115613bb357613bb1846157c4565b505b6000613bbe856111a8565b6004830154613bcd9190616fa6565b905083826006016000016000828254613be69190617170565b909155505060018201548254613c09916001600160a01b03918216911686615922565b506000613c15866111a8565b6004840154613c249190616fa6565b905080828760008051602061759583398151915260405160405180910390a450600195945050505050565b61013b8181548110613c6057600080fd5b6000918252602090912001546001600160a01b0316905081565b612112338383615b2e565b6000806101308381548110613c9c57613c9c616f7a565b6000918252602090912060408051610200810190915260149092020180546001600160a01b038082166101008501908152600160a01b830460ff16610120860152600160a81b90920461ffff16610140850152600183015416610160840152600282018054849291849161018085019190613d1690616f40565b80601f0160208091040260200160405190810160405280929190818152602001828054613d4290616f40565b8015613d8f5780601f10613d6457610100808354040283529160200191613d8f565b820191906000526020600020905b815481529060010190602001808311613d7257829003601f168201915b505050918352505060038201546020808301919091526004830154604080840191909152600590930154606092830152928452815180830183526006860154815260078601548185015284840152815180830183526008860154815260098601548185015284830152815160808082018452600a8701548252600b87015482860152600c87015482850152600d87015460ff161515828401528583019190915282519182018352600e8601548252600f8601548285015260108601548284015284015260118401805482518185028101850190935280835260a0909401939192909190830182828015613eab57602002820191906000526020600020905b81546001600160a01b03168152600190910190602001808311613e8d575b50505091835250506012820154602082015260139091015460ff1615156040918201529051015161ffff169392505050565b6000828152610136602090815260408083206001600160a01b038516845290915281208054919081908190613f128787611f3d565b5060058301546003909301549699909850919650909350505050565b6000806000806101308581548110613f4857613f48616f7a565b6000918252602090912060408051610200810190915260149092020180546001600160a01b038082166101008501908152600160a01b830460ff16610120860152600160a81b90920461ffff16610140850152600183015416610160840152600282018054849291849161018085019190613fc290616f40565b80601f0160208091040260200160405190810160405280929190818152602001828054613fee90616f40565b801561403b5780601f106140105761010080835404028352916020019161403b565b820191906000526020600020905b81548152906001019060200180831161401e57829003601f168201915b505050918352505060038201546020808301919091526004830154604080840191909152600590930154606092830152928452815180830183526006860154815260078601548185015284840152815180830183526008860154815260098601548185015284830152815160808082018452600a8701548252600b87015482860152600c87015482850152600d87015460ff161515828401528583019190915282519182018352600e8601548252600f8601548285015260108601548284015284015260118401805482518185028101850190935280835260a090940193919290919083018282801561415757602002820191906000526020600020905b81546001600160a01b03168152600190910190602001808311614139575b5050509183525050601282015460208083019190915260139092015460ff1615156040918201526060909201518051918101519201519097919650945092505050565b600061013084815481106141b0576141b0616f7a565b6000918252602090912060149091020160018101549091506001600160a01b031633146141ef5760405162461bcd60e51b8152600401610f3390617110565b6006810154600482015460009161420591616fa6565b825490915061421f906001600160a01b03163330876152f2565b50838260060160000160008282546142379190616fa6565b90915550506006820154600483015460009161425291616fa6565b905061425f868587615360565b50505050505050565b600080600080610130858154811061428257614282616f7a565b6000918252602090912060408051610200810190915260149092020180546001600160a01b038082166101008501908152600160a01b830460ff16610120860152600160a81b90920461ffff166101408501526001830154166101608401526002820180548492918491610180850191906142fc90616f40565b80601f016020809104026020016040519081016040528092919081815260200182805461432890616f40565b80156143755780601f1061434a57610100808354040283529160200191614375565b820191906000526020600020905b81548152906001019060200180831161435857829003601f168201915b505050918352505060038201546020808301919091526004830154604080840191909152600590930154606092830152928452815180830183526006860154815260078601548185015284840152815180830183526008860154815260098601548185015284830152815160808082018452600a8701548252600b87015482860152600c87015482850152600d87015460ff161515828401528583019190915282519182018352600e8601548252600f8601548285015260108601548284015284015260118401805482518185028101850190935280835260a090940193919290919083018282801561449157602002820191906000526020600020905b81546001600160a01b03168152600190910190602001808311614473575b50505091835250506012820154602082015260139091015460ff161515604091820152815160a08101519101519192506144ce9161ffff16613730565b60409091015180516020909101519196909550909350915050565b6034546001600160a01b031633146145525760405162461bcd60e51b815260206004820152602660248201527f6f6e6c792070656e64696e67206f776e65722063616e2061636365707420747260448201526530b739b332b960d11b6064820152608401610f33565b603454614567906001600160a01b0316615bfd565b565b6145733383614f68565b61458f5760405162461bcd60e51b8152600401610f3390616fb9565b61459b84848484615c5a565b50505050565b60008061013083815481106145b8576145b8616f7a565b6000918252602090912060149091020160018101549091506001600160a01b03163314806145f057506033546001600160a01b031633145b61460c5760405162461bcd60e51b8152600401610f3390617110565b601381015460ff166146525760405162461bcd60e51b815260206004820152600f60248201526e506f6f6c206e6f742061637469766560881b6044820152606401610f33565b60138101805460ff1916905542601290910155506001919050565b600054610100900460ff161580801561468d5750600054600160ff909116105b806146a75750303b1580156146a7575060005460ff166001145b61470a5760405162461bcd60e51b815260206004820152602e60248201527f496e697469616c697a61626c653a20636f6e747261637420697320616c72656160448201526d191e481a5b9a5d1a585b1a5e995960921b6064820152608401610f33565b6000805460ff19166001179055801561472d576000805461ff0019166101001790555b614735615c8d565b61013780546001600160a01b0319166001600160a01b0384161790558015612112576000805461ff0019169055604051600181527f7f26b83ff96e1f2b6a682f133852f6798a09c465da95921460cefb38474024989060200160405180910390a15050565b60606147a582614e9a565b60006147bc60408051602081019091526000815290565b905060008151116147dc576040518060200160405280600081525061140b565b806147e684615cbc565b6040516020016147f79291906173c7565b6040516020818303038152906040529392505050565b600061481761514d565b6001600160a01b038316600090815261013560209081526040808320546101349092528220546148479190616fa6565b6001600160a01b03851660008181526101346020908152604080832083905561013590915281205590915061487d908483615922565b506001949350505050565b600080610130838154811061489f5761489f616f7a565b6000918252602090912060408051610200810190915260149092020180546001600160a01b038082166101008501908152600160a01b830460ff16610120860152600160a81b90920461ffff1661014085015260018301541661016084015260028201805484929184916101808501919061491990616f40565b80601f016020809104026020016040519081016040528092919081815260200182805461494590616f40565b80156149925780601f1061496757610100808354040283529160200191614992565b820191906000526020600020905b81548152906001019060200180831161497557829003601f168201915b505050918352505060038201546020808301919091526004830154604080840191909152600590930154606092830152928452815180830183526006860154815260078601548185015284840152815180830183526008860154815260098601548185015284830152815160808082018452600a8701548252600b87015482860152600c87015482850152600d87015460ff161515828401528583019190915282519182018352600e8601548252600f8601548285015260108601548284015284015260118401805482518185028101850190935280835260a0909401939192909190830182828015614aae57602002820191906000526020600020905b81546001600160a01b03168152600190910190602001808311614a90575b50505091835250506012820154602082015260139091015460ff1615156040909101525160c001519392505050565b6000614ae761514d565b6001600160a01b038316600090815261013a602052604090205460ff161515821514614b4d5760405162461bcd60e51b81526020600482015260156024820152741dda1a5d195b1a5cdd08185b1c9958591e481cd95d605a1b6044820152606401610f33565b6001600160a01b038316600081815261013a6020526040808220805460ff191686151590811790915590519092917f99795d51e5a8804307721456a7a9c2f0d7421f719d46a46d36e91fee7c85aa7691a38115614bf55761013b80546001810182556000919091527fe1abe72d20e3d8bbb0a91fbb1c3cdd65253a0a0af97f17849f67ad7b3d1a6a620180546001600160a01b0319166001600160a01b038516179055614d09565b61013b5460005b81811015614d0657600061013b8281548110614c1a57614c1a616f7a565b6000918252602090912001546001600160a01b03908116915086168103614cf55761013b614c49600185617170565b81548110614c5957614c59616f7a565b60009182526020909120015461013b80546001600160a01b039092169184908110614c8657614c86616f7a565b9060005260206000200160006101000a8154816001600160a01b0302191690836001600160a01b0316021790555061013b805480614cc657614cc6617264565b600082815260209020810160001990810180546001600160a01b03191690550190555060019250610dff915050565b50614cff816173f6565b9050614bfc565b50505b50600192915050565b6000614d1c61514d565b61013b5460005b81811015614dd457600061013b8281548110614d4157614d41616f7a565b60009182526020808320909101546001600160a01b03168083526101358252604080842054610134909352832054909350614d7c9190616fa6565b905080600003614d8d575050614dc4565b6001600160a01b038216600081815261013460209081526040808320839055610135909152812055614dc0908783615922565b5050505b614dcd816173f6565b9050614d23565b5060019392505050565b614de661514d565b6001600160a01b038116614e4b5760405162461bcd60e51b815260206004820152602660248201527f4f776e61626c653a206e6577206f776e657220697320746865207a65726f206160448201526564647265737360d01b6064820152608401610f33565b603480546001600160a01b0319166001600160a01b0392909216919091179055565b614e75615a69565b614e818133600161566d565b6117dd600160ca55565b6001600160a01b03163b151590565b600081815260ff60205260409020546001600160a01b03166117dd5760405162461bcd60e51b8152602060048201526018602482015277115490cdcc8c4e881a5b9d985b1a59081d1bdad95b88125160421b6044820152606401610f33565b60008181526101016020526040902080546001600160a01b0319166001600160a01b0384169081179091558190614f2f82612654565b6001600160a01b03167f8c5be1e5ebec7d5bd14f71427d1e84f3dd0314c0f7b2291e5b200ac8c7c3b92560405160405180910390a45050565b600080614f7483612654565b9050806001600160a01b0316846001600160a01b03161480614fbc57506001600160a01b038082166000908152610102602090815260408083209388168352929052205460ff165b806133a75750836001600160a01b0316614fd584610e97565b6001600160a01b031614949350505050565b826001600160a01b0316614ffa82612654565b6001600160a01b0316146150205760405162461bcd60e51b8152600401610f339061740f565b6001600160a01b0382166150825760405162461bcd60e51b8152602060048201526024808201527f4552433732313a207472616e7366657220746f20746865207a65726f206164646044820152637265737360e01b6064820152608401610f33565b826001600160a01b031661509582612654565b6001600160a01b0316146150bb5760405162461bcd60e51b8152600401610f339061740f565b60008181526101016020908152604080832080546001600160a01b03199081169091556001600160a01b03878116808652610100855283862080546000190190559087168086528386208054600101905586865260ff90945282852080549092168417909155905184937fddf252ad1be2c89b69c2b068fc378daa952ba7f163c4a11628f55a4df523b3ef91a4505050565b6033546001600160a01b031633146145675760405162461bcd60e51b815260206004820181905260248201527f4f776e61626c653a2063616c6c6572206973206e6f7420746865206f776e65726044820152606401610f33565b600061013083815481106151bd576151bd616f7a565b6000918252602082206014919091020160088101546003820154825492945085926151f39190600160a81b900461ffff16613730565b6151fd9190617170565b6152079190616fa6565b60018301548354919250615229916001600160a01b03908116911630846152f2565b50600061271061523b6103e8846170f9565b615245919061714e565b90508183600801600001600082825461525e9190616fa6565b909155505082546001600160a01b0316600090815261013560205260408120805483929061528d908490616fa6565b909155506000905061529f8284617170565b9050808460080160010160008282546152b89190616fa6565b9091555050604051839087907fadb049ad2d09be3db90459a16aef1ad0a4d89e8fdcc1ade9429d6cc55abbcd2b90600090a3505050505050565b6040516001600160a01b038085166024830152831660448201526064810182905260009061487d9086906323b872dd60e01b906084015b60408051601f198184030181529190526020810180516001600160e01b03166001600160e01b031990931692909217909152615d4d565b600080610130858154811061537757615377616f7a565b9060005260206000209060140201905060008460405160200161539a91906169d3565b60408051601f19818403018152918152815160209283012060008981526101399093529120549091508082146154f05760006153d5886157c4565b905060006153e38989615e1f565b90506001600160a01b038116156154d057806153ff8389616fa6565b600687018054600090615413908490617170565b9091555061542390508389616fa6565b600787018054600090615437908490616fa6565b9091555061545d90508261544b858b616fa6565b88546001600160a01b03169190615922565b5060405163d33b0aa760e01b8152600160048201526001600160a01b0382169063d33b0aa7906024016020604051808303816000875af11580156154a5573d6000803e3d6000fd5b505050506040513d601f19601f820116820180604052508101906154c99190617454565b50506154ed565b868560060160000160008282546154e79190616fa6565b90915550505b50505b5050509392505050565b6117dd61514d565b7f4910fdfa16fed3260ed0e7147f7cc6da11a60208b5b9406d12a635614ffd91435460ff161561553557610fd483615f5e565b826001600160a01b03166352d1902d6040518163ffffffff1660e01b8152600401602060405180830381865afa92505050801561558f575060408051601f3d908101601f1916820190925261558c91810190617454565b60015b6155f25760405162461bcd60e51b815260206004820152602e60248201527f45524331393637557067726164653a206e657720696d706c656d656e7461746960448201526d6f6e206973206e6f74205555505360901b6064820152608401610f33565b6000805160206175b583398151915281146156615760405162461bcd60e51b815260206004820152602960248201527f45524331393637557067726164653a20756e737570706f727465642070726f786044820152681a58589b195555525160ba1b6064820152608401610f33565b50610fd4838383615ffa565b6000610130848154811061568357615683616f7a565b60009182526020808320878452610136825260408085206001600160a01b038916865290925292208054601490920290920192501580156156c657506001810154155b156156d8574260029091015550505050565b60008060006156e78888611f3d565b9250925092508561573557808460010160008282546157069190616fa6565b9091555050601285015460000361571d5742615723565b84601201545b84600201819055505050505050505050565b600885015483111561574b5761574b88846151a7565b82156116cc576000600185018190556012860154900361576b5742615771565b84601201545b600285015560088501805484919060009061578d908490617170565b90915550506009850180548391906000906157a9908490617170565b909155505084546116ca906001600160a01b03168884615922565b60008061013083815481106157db576157db616f7a565b6000918252602080832086845261013990915260408320546014909202019250801561591a576000858152610138602090815260408083208484528252808320548151637f1f087360e01b815291516001600160a01b0390911693928492637f1f08739260048083019392829003018187875af1158015615860573d6000803e3d6000fd5b505050506040513d601f19601f820116820180604052508101906158849190617454565b60405163f840cb8360e01b815260016004820152602481018290529091506001600160a01b0383169063f840cb83906044016020604051808303816000875af11580156158d5573d6000803e3d6000fd5b505050506040513d601f19601f820116820180604052508101906158f99190617454565b9350838560060160000160008282546159129190616fa6565b909155505050505b509392505050565b6040516001600160a01b038316602482015260448101829052600090614dd490859063a9059cbb60e01b90606401615329565b600080610130838154811061596c5761596c616f7a565b6000918252602090912060036014909202010154615992670de0b6b3a7640000866170f9565b61599c919061714e565b90506159a98160056170f9565b91509250929050565b60006159c8670de0b6b3a764000060001961714e565b8211156159eb576040516322630c4560e01b815260048101839052602401610f33565b670de0b6b3a76400008202610dff565b6000610dff6714057b7ef767814f670de0b6b3a7640000615a21615a1e8661601f565b90565b0281615a2f57615a2f617138565b0490565b600061140b615a1e8385617170565b600061140b615a1e8484616155565b600061140b615a1e84670de0b6b3a764000085616209565b600260ca5403615abb5760405162461bcd60e51b815260206004820152601f60248201527f5265656e7472616e637947756172643a207265656e7472616e742063616c6c006044820152606401610f33565b600260ca55565b600061140b8284617170565b600080670de0b6b3a7640000615aec84670928ca80cfc200006170f9565b615af6919061714e565b615b089067016345785d8a0000616fa6565b90506000615b25826ec097ce7bc90715b34b9f100000000061714e565b90505050919050565b816001600160a01b0316836001600160a01b031603615b8f5760405162461bcd60e51b815260206004820152601960248201527f4552433732313a20617070726f766520746f2063616c6c6572000000000000006044820152606401610f33565b6001600160a01b0383811660008181526101026020908152604080832094871680845294825291829020805460ff191686151590811790915591519182527f17307eab39ab6107e8899845ad3d59bd9653f200f220920489ca2b5937696c31910160405180910390a3505050565b603380546001600160a01b038381166001600160a01b03198084168217909455603480549094169093556040519116919082907f8be0079c531659141344cd1fd0a4f28419497f9722a3daafe3b4186f6b6457e090600090a35050565b615c65848484614fe7565b615c71848484846162dd565b61459b5760405162461bcd60e51b8152600401610f339061746d565b600054610100900460ff16615cb45760405162461bcd60e51b8152600401610f33906174bf565b6145676163db565b60606000615cc98361640b565b600101905060008167ffffffffffffffff811115615ce957615ce9616bba565b6040519080825280601f01601f191660200182016040528015615d13576020820181803683370190505b5090508181016020015b600019016f181899199a1a9b1b9c1cb0b131b232b360811b600a86061a8153600a85049450841561591a57615d1d565b6000615da2826040518060400160405280602081526020017f5361666545524332303a206c6f772d6c6576656c2063616c6c206661696c6564815250856001600160a01b03166164e39092919063ffffffff16565b805190915015610fd45780806020019051810190615dc0919061750a565b610fd45760405162461bcd60e51b815260206004820152602a60248201527f5361666545524332303a204552433230206f7065726174696f6e20646964206e6044820152691bdd081cdd58d8d9595960b21b6064820152608401610f33565b600080600083604051602001615e3591906169d3565b60408051601f198184030181529181528151602092830120600088815261013884528281208282529093529120549091506001600160a01b031680615eef5761013754604051632f3802cf60e11b81526001600160a01b0390911690635e70059e90615ea59088906004016169d3565b6020604051808303816000875af1158015615ec4573d6000803e3d6000fd5b505050506040513d601f19601f82011682018060405250810190615ee89190617527565b9250615ef9565b9250610dff915050565b6001600160a01b038316615f135760009350505050610dff565b50600085815261013860209081526040808320848452825280832080546001600160a01b0319166001600160a01b038716179055968252610139905294909420939093555090919050565b6001600160a01b0381163b615fcb5760405162461bcd60e51b815260206004820152602d60248201527f455243313936373a206e657720696d706c656d656e746174696f6e206973206e60448201526c1bdd08184818dbdb9d1c9858dd609a1b6064820152608401610f33565b6000805160206175b583398151915280546001600160a01b0319166001600160a01b0392909216919091179055565b616003836164f2565b6000825111806160105750805b15610fd45761459b8383616532565b600081670de0b6b3a764000081101561604e57604051633621413760e21b815260048101849052602401610f33565b60006160da670de0b6b3a7640000830460016fffffffffffffffffffffffffffffffff821160071b91821c67ffffffffffffffff811160061b90811c63ffffffff811160051b90811c61ffff811160041b90811c60ff8111600390811b91821c600f811160021b90811c918211871b91821c969096119490961792909217171791909117919091171790565b9050670de0b6b3a7640000810282821c670de0b6b3a763ffff19810161610657815b9695505050505050565b671bc16d674ec800006706f05b59d3b200005b801561614957670de0b6b3a7640000838002049250818310616141579283019260019290921c915b60011c616119565b50919695505050505050565b60008080600019848609848602925082811083820303915050670de0b6b3a764000081106161a05760405163090638d560e41b81526004810186905260248101859052604401610f33565b6000670de0b6b3a76400008587099050816000036161cc575050670de0b6b3a764000090049050610dff565b620400008184030492109003600160ee1b02177faccb18165bd6fe31ae1cf318dc5b51eee0e1ba569b88cd74c1773b91fac1066902905092915050565b60008080600019858709858702925082811083820303915050806000036162435783828161623957616239617138565b049250505061140b565b838110616274576040516307639aaf60e41b8152600481018790526024810186905260448101859052606401610f33565b60008486880960026001871981018816978890046003810283188082028403028082028403028082028403028082028403028082028403029081029092039091026000889003889004909101858311909403939093029303949094049190911702949350505050565b60006001600160a01b0384163b156163d357604051630a85bd0160e11b81526001600160a01b0385169063150b7a0290616321903390899088908890600401617544565b6020604051808303816000875af192505050801561635c575060408051601f3d908101601f1916820190925261635991810190617577565b60015b6163b9573d80801561638a576040519150601f19603f3d011682016040523d82523d6000602084013e61638f565b606091505b5080516000036163b15760405162461bcd60e51b8152600401610f339061746d565b805181602001fd5b6001600160e01b031916630a85bd0160e11b1490506133a7565b5060016133a7565b600054610100900460ff166164025760405162461bcd60e51b8152600401610f33906174bf565b61456733615bfd565b60008072184f03e93ff9f4daa797ed6e38ed64bf6a1f0160401b831061644a5772184f03e93ff9f4daa797ed6e38ed64bf6a1f0160401b830492506040015b6d04ee2d6d415b85acef81000000008310616476576d04ee2d6d415b85acef8100000000830492506020015b662386f26fc10000831061649457662386f26fc10000830492506010015b6305f5e10083106164ac576305f5e100830492506008015b61271083106164c057612710830492506004015b606483106164d2576064830492506002015b600a8310610dff5760010192915050565b60606133a78484600085616626565b6164fb81615f5e565b6040516001600160a01b038216907fbc7cd75a20ee27fd9adebab32041f755214dbc6bffa90cc0225b39da2e5c2d3b90600090a250565b60606001600160a01b0383163b61659a5760405162461bcd60e51b815260206004820152602660248201527f416464726573733a2064656c65676174652063616c6c20746f206e6f6e2d636f6044820152651b9d1c9858dd60d21b6064820152608401610f33565b600080846001600160a01b0316846040516165b5919061727a565b600060405180830381855af49150503d80600081146165f0576040519150601f19603f3d011682016040523d82523d6000602084013e6165f5565b606091505b509150915061661d82826040518060600160405280602781526020016175d5602791396166f6565b95945050505050565b6060824710156166875760405162461bcd60e51b815260206004820152602660248201527f416464726573733a20696e73756666696369656e742062616c616e636520666f6044820152651c8818d85b1b60d21b6064820152608401610f33565b600080866001600160a01b031685876040516166a3919061727a565b60006040518083038185875af1925050503d80600081146166e0576040519150601f19603f3d011682016040523d82523d6000602084013e6166e5565b606091505b50915091506137258783838761670f565b6060831561670557508161140b565b61140b8383616784565b6060831561677e578251600003616777576001600160a01b0385163b6167775760405162461bcd60e51b815260206004820152601d60248201527f416464726573733a2063616c6c20746f206e6f6e2d636f6e74726163740000006044820152606401610f33565b50816133a7565b6133a783835b8151156167945781518083602001fd5b8060405162461bcd60e51b8152600401610f3391906169d3565b50805460008255906000526020600020908101906117dd919061693b565b6040805161020081019091526000610100820181815261012083018290526101408301829052610160830182905260606101808401526101a083018290526101c083018290526101e08301919091528190815260200161683f604051806040016040528060008152602001600081525090565b8152602001616861604051806040016040528060008152602001600081525090565b815260200161689360405180608001604052806000815260200160008152602001600081526020016000151581525090565b81526020016168bc60405180606001604052806000815260200160008152602001600081525090565b815260606020820181905260006040830181905291015290565b82805482825590600052602060002090810192821561692b579160200282015b8281111561692b57825182546001600160a01b0319166001600160a01b039091161782556020909201916001909101906168f6565b5061693792915061693b565b5090565b5b80821115616937576000815560010161693c565b6001600160e01b0319811681146117dd57600080fd5b60006020828403121561697857600080fd5b813561140b81616950565b60005b8381101561699e578181015183820152602001616986565b50506000910152565b600081518084526169bf816020860160208601616983565b601f01601f19169290920160200192915050565b60208152600061140b60208301846169a7565b600080604083850312156169f957600080fd5b50508035926020909101359150565b600060208284031215616a1a57600080fd5b5035919050565b6001600160a01b03811681146117dd57600080fd5b60008060408385031215616a4957600080fd5b8235616a5481616a21565b946020939093013593505050565b6101c080825288516001600160a01b0390811691830191909152602089015160ff166101e0830152604089015161ffff166102008301526060890151166102208201526080880151610100610240830152600090616ac46102c08401826169a7565b60a08b015161026085015260c08b015161028085015260e08b01516102a08501529150616b009050602083018980518252602090810151910152565b8651606083015260208701516080830152855160a0830152602086015160c0830152604086015160e08301526060860151151561010083015284516101208301526020850151610140830152604085015161016083015283610180830152616b6d6101a083018415159052565b98975050505050505050565b600080600060608486031215616b8e57600080fd5b8335616b9981616a21565b92506020840135616ba981616a21565b929592945050506040919091013590565b634e487b7160e01b600052604160045260246000fd5b600082601f830112616be157600080fd5b813567ffffffffffffffff80821115616bfc57616bfc616bba565b604051601f8301601f19908116603f01168101908282118183101715616c2457616c24616bba565b81604052838152866020858801011115616c3d57600080fd5b836020870160208301376000602085830101528094505050505092915050565b600080600080600060a08688031215616c7557600080fd5b8535945060208601359350604086013561ffff81168114616c9557600080fd5b925060608601359150608086013567ffffffffffffffff811115616cb857600080fd5b616cc488828901616bd0565b9150509295509295909350565b600060208284031215616ce357600080fd5b813561140b81616a21565b600080600060608486031215616d0357600080fd5b833592506020840135616ba981616a21565b60008060408385031215616d2857600080fd5b823591506020830135616d3a81616a21565b809150509250929050565b60008060408385031215616d5857600080fd5b8235616d6381616a21565b9150602083013567ffffffffffffffff811115616d7f57600080fd5b616d8b85828601616bd0565b9150509250929050565b80151581146117dd57600080fd5b600080600060608486031215616db857600080fd5b83359250602084013591506040840135616dd181616d95565b809150509250925092565b600080600060608486031215616df157600080fd5b8335616dfc81616a21565b92506020840135616e0c81616a21565b9150604084013567ffffffffffffffff811115616e2857600080fd5b616e3486828701616bd0565b9150509250925092565b60008060408385031215616e5157600080fd5b8235616e5c81616a21565b91506020830135616d3a81616d95565b600080600060608486031215616e8157600080fd5b8335925060208401359150604084013567ffffffffffffffff811115616e2857600080fd5b60008060008060808587031215616ebc57600080fd5b8435616ec781616a21565b93506020850135616ed781616a21565b925060408501359150606085013567ffffffffffffffff811115616efa57600080fd5b616f0687828801616bd0565b91505092959194509250565b60008060408385031215616f2557600080fd5b8235616f3081616a21565b91506020830135616d3a81616a21565b600181811c90821680616f5457607f821691505b602082108103616f7457634e487b7160e01b600052602260045260246000fd5b50919050565b634e487b7160e01b600052603260045260246000fd5b634e487b7160e01b600052601160045260246000fd5b80820180821115610dff57610dff616f90565b6020808252602d908201527f4552433732313a2063616c6c6572206973206e6f7420746f6b656e206f776e6560408201526c1c881bdc88185c1c1c9bdd9959609a1b606082015260800190565b600181815b8085111561704157816000190482111561702757617027616f90565b8085161561703457918102915b93841c939080029061700b565b509250929050565b60008261705857506001610dff565b8161706557506000610dff565b816001811461707b5760028114617085576170a1565b6001915050610dff565b60ff84111561709657617096616f90565b50506001821b610dff565b5060208310610133831016604e8410600b84101617156170c4575081810a610dff565b6170ce8383617006565b80600019048211156170e2576170e2616f90565b029392505050565b600061140b60ff841683617049565b8082028115828204841417610dff57610dff616f90565b6020808252600e908201526d139bdd08185d5d1a1bdc9a5e995960921b604082015260600190565b634e487b7160e01b600052601260045260246000fd5b60008261716b57634e487b7160e01b600052601260045260246000fd5b500490565b81810381811115610dff57610dff616f90565b6020808252602c908201527f46756e6374696f6e206d7573742062652063616c6c6564207468726f7567682060408201526b19195b1959d85d1958d85b1b60a21b606082015260800190565b6020808252602c908201527f46756e6374696f6e206d7573742062652063616c6c6564207468726f7567682060408201526b6163746976652070726f787960a01b606082015260800190565b60208082526029908201527f54696d656c6f636b206e6f7420736574206f72206e6f7420636f6d706c6574656040820152686420696e2074696d6560b81b606082015260800190565b634e487b7160e01b600052603160045260246000fd5b6000825161728c818460208701616983565b9190910192915050565b6000602082840312156172a857600080fd5b815160ff8116811461140b57600080fd5b601f821115610fd457600081815260208120601f850160051c810160208610156172e05750805b601f850160051c820191505b818110156172ff578281556001016172ec565b505050505050565b815167ffffffffffffffff81111561732157617321616bba565b6173358161732f8454616f40565b846172b9565b602080601f83116001811461736a57600084156173525750858301515b600019600386901b1c1916600185901b1785556172ff565b600085815260208120601f198616915b828110156173995788860151825594840194600190910190840161737a565b50858210156173b75787850151600019600388901b60f8161c191681555b5050505050600190811b01905550565b600083516173d9818460208801616983565b8351908301906173ed818360208801616983565b01949350505050565b60006001820161740857617408616f90565b5060010190565b60208082526025908201527f4552433732313a207472616e736665722066726f6d20696e636f72726563742060408201526437bbb732b960d91b606082015260800190565b60006020828403121561746657600080fd5b5051919050565b60208082526032908201527f4552433732313a207472616e7366657220746f206e6f6e20455243373231526560408201527131b2b4bb32b91034b6b83632b6b2b73a32b960711b606082015260800190565b6020808252602b908201527f496e697469616c697a61626c653a20636f6e7472616374206973206e6f74206960408201526a6e697469616c697a696e6760a81b606082015260800190565b60006020828403121561751c57600080fd5b815161140b81616d95565b60006020828403121561753957600080fd5b815161140b81616a21565b6001600160a01b03858116825284166020820152604081018390526080606082018190526000906160fc908301846169a7565b60006020828403121561758957600080fd5b815161140b8161695056fea3ea4fb8dee4d414198cb197af6eae4fe483c1a0b849dc50e53b9bf1a60e2166360894a13ba1a3210667c828492db98dca3e2076cc3735a920a3ca505d382bbc416464726573733a206c6f772d6c6576656c2064656c65676174652063616c6c206661696c6564a26469706673582212201b3fea229b90f8785c9136c70b086ef8b65b70bcf1e61cf4fe4b681a1bd284dd64736f6c63430008110033496e697469616c697a61626c653a20636f6e7472616374206973206e6f742069",
    "linkReferences": {}
  },
  "methodIdentifiers": {
    "acceptOwnershipTransfer()": "b842e87f",
    "activeStrategies(uint256)": "b20b2429",
    "activeTokens(uint256)": "9f224f35",
    "addNewBountyPool(address,address,string)": "804fd590",
    "approve(address,uint256)": "095ea7b3",
    "balanceOf(address)": "70a08231",
    "billPremium(uint256)": "2dbe051e",
    "calcRequiredPremiumBalancePerPeriod(uint256,uint256)": "836ef1fa",
    "calculateEffectiveAPY(uint256,uint256)": "5c46f7b1",
    "claimPremium(uint256)": "f47ec3be",
    "collectAllSaloonProfits(address)": "ecd7fbed",
    "collectSaloonProfits(address,address)": "cf9564b9",
    "getApproved(uint256)": "081812fc",
    "getCurrentAPY(uint256)": "7fbf3853",
    "getMultiplier(uint256,uint256)": "8dbb1e3a",
    "index()": "2986c0e5",
    "initialize(address)": "c4d66de8",
    "isApprovedForAll(address,address)": "e985e9c5",
    "makeProjectDeposit(uint256,uint256,string)": "ae07f948",
    "name()": "06fdde03",
    "nftAPY(uint256)": "1df56622",
    "nftBalance(uint256)": "e63d6ee4",
    "nftInfo(uint256)": "1f8bc790",
    "owner()": "8da5cb5b",
    "ownerOf(uint256)": "6352211e",
    "payBounty(uint256,address,uint256)": "3ac6ad7b",
    "pendingToken(uint256,address)": "48e43af4",
    "pidStrategies(uint256,bytes32)": "074ecf03",
    "poolInfo(uint256)": "1526fe27",
    "poolLength()": "081e3eda",
    "projectDepositWithdrawal(uint256,uint256)": "983c1ce0",
    "proxiableUUID()": "52d1902d",
    "safeTransferFrom(address,address,uint256)": "42842e0e",
    "safeTransferFrom(address,address,uint256,bytes)": "b88d4fde",
    "saloonBountyProfit(address)": "e45abd0f",
    "saloonPremiumProfit(address)": "ca006148",
    "scheduleProjectDepositWithdrawal(uint256,uint256)": "5669cbef",
    "scheduleUnstake(uint256,uint256)": "91635b4e",
    "setAPYandPoolCapAndDeposit(uint256,uint256,uint16,uint256,string)": "30ca0794",
    "setApprovalForAll(address,bool)": "a22cb465",
    "stake(uint256,address,uint256)": "6e9c931c",
    "supportsInterface(bytes4)": "01ffc9a7",
    "symbol()": "95d89b41",
    "tokenURI(uint256)": "c87b56dd",
    "tokenWhitelist(address)": "753d7563",
    "transferFrom(address,address,uint256)": "23b872dd",
    "transferOwnership(address)": "f2fde38b",
    "unstake(uint256,uint256,bool)": "79b91d69",
    "updateStrategyFactoryAddress(address)": "3538fda0",
    "updateTokenWhitelist(address,bool)": "e5e97c65",
    "upgradeTo(address)": "3659cfe6",
    "upgradeToAndCall(address,bytes)": "4f1ef286",
    "userInfo(uint256,address)": "93f1a40b",
    "viewBountyBalance(uint256)": "6ac6d812",
    "viewBountyInfo(uint256)": "40ef2868",
    "viewHackerPayout(uint256)": "861e5f66",
    "viewMinProjectDeposit(uint256)": "1c6b323f",
    "viewPoolAPY(uint256)": "a27f9213",
    "viewPoolCap(uint256)": "39679ff4",
    "viewPoolPremiumInfo(uint256)": "b1a2d16f",
    "viewPoolTimelockInfo(uint256)": "ac30b856",
    "viewSaloonProfitBalance(address)": "718c7eef",
    "viewTotalStaked(uint256)": "dbdd6957",
    "viewUserInfo(uint256,address)": "a754ecb0",
    "viewUserUnclaimed(uint256,address)": "5e3b748b",
    "windDownBounty(uint256)": "bb7019c1"
  },
  "id": 46
}