{
  "abi": [
    {
      "inputs": [
        {
          "internalType": "UD60x18",
          "name": "x",
          "type": "uint256"
        }
      ],
      "name": "PRBMathUD60x18__LogInputTooSmall",
      "type": "error"
    },
    {
      "inputs": [
        {
          "internalType": "uint256",
          "name": "x",
          "type": "uint256"
        }
      ],
      "name": "PRBMathUD60x18__ToUD60x18Overflow",
      "type": "error"
    },
    {
      "inputs": [
        {
          "internalType": "uint256",
          "name": "x",
          "type": "uint256"
        },
        {
          "internalType": "uint256",
          "name": "y",
          "type": "uint256"
        }
      ],
      "name": "PRBMath__MulDiv18Overflow",
      "type": "error"
    },
    {
      "inputs": [
        {
          "internalType": "uint256",
          "name": "x",
          "type": "uint256"
        },
        {
          "internalType": "uint256",
          "name": "y",
          "type": "uint256"
        },
        {
          "internalType": "uint256",
          "name": "denominator",
          "type": "uint256"
        }
      ],
      "name": "PRBMath__MulDivOverflow",
      "type": "error"
    },
    {
      "anonymous": false,
      "inputs": [
        {
          "indexed": false,
          "internalType": "address",
          "name": "previousAdmin",
          "type": "address"
        },
        {
          "indexed": false,
          "internalType": "address",
          "name": "newAdmin",
          "type": "address"
        }
      ],
      "name": "AdminChanged",
      "type": "event"
    },
    {
      "anonymous": false,
      "inputs": [
        {
          "indexed": true,
          "internalType": "address",
          "name": "owner",
          "type": "address"
        },
        {
          "indexed": true,
          "internalType": "address",
          "name": "approved",
          "type": "address"
        },
        {
          "indexed": true,
          "internalType": "uint256",
          "name": "tokenId",
          "type": "uint256"
        }
      ],
      "name": "Approval",
      "type": "event"
    },
    {
      "anonymous": false,
      "inputs": [
        {
          "indexed": true,
          "internalType": "address",
          "name": "owner",
          "type": "address"
        },
        {
          "indexed": true,
          "internalType": "address",
          "name": "operator",
          "type": "address"
        },
        {
          "indexed": false,
          "internalType": "bool",
          "name": "approved",
          "type": "bool"
        }
      ],
      "name": "ApprovalForAll",
      "type": "event"
    },
    {
      "anonymous": false,
      "inputs": [
        {
          "indexed": true,
          "internalType": "address",
          "name": "beacon",
          "type": "address"
        }
      ],
      "name": "BeaconUpgraded",
      "type": "event"
    },
    {
      "anonymous": false,
      "inputs": [
        {
          "indexed": true,
          "internalType": "uint256",
          "name": "pid",
          "type": "uint256"
        },
        {
          "indexed": false,
          "internalType": "uint256",
          "name": "oldAmount",
          "type": "uint256"
        },
        {
          "indexed": false,
          "internalType": "uint256",
          "name": "newAmount",
          "type": "uint256"
        }
      ],
      "name": "BountyBalanceChanged",
      "type": "event"
    },
    {
      "anonymous": false,
      "inputs": [
        {
          "indexed": true,
          "internalType": "address",
          "name": "hunter",
          "type": "address"
        },
        {
          "indexed": true,
          "internalType": "address",
          "name": "token",
          "type": "address"
        },
        {
          "indexed": false,
          "internalType": "uint256",
          "name": "amount",
          "type": "uint256"
        }
      ],
      "name": "BountyPaid",
      "type": "event"
    },
    {
      "anonymous": false,
      "inputs": [
        {
          "indexed": false,
          "internalType": "uint8",
          "name": "version",
          "type": "uint8"
        }
      ],
      "name": "Initialized",
      "type": "event"
    },
    {
      "anonymous": false,
      "inputs": [
        {
          "indexed": true,
          "internalType": "uint256",
          "name": "pid",
          "type": "uint256"
        },
        {
          "indexed": true,
          "internalType": "address",
          "name": "token",
          "type": "address"
        },
        {
          "indexed": false,
          "internalType": "uint256",
          "name": "tokenDecimals",
          "type": "uint256"
        }
      ],
      "name": "NewBountyDeployed",
      "type": "event"
    },
    {
      "anonymous": false,
      "inputs": [
        {
          "indexed": true,
          "internalType": "address",
          "name": "previousOwner",
          "type": "address"
        },
        {
          "indexed": true,
          "internalType": "address",
          "name": "newOwner",
          "type": "address"
        }
      ],
      "name": "OwnershipTransferred",
      "type": "event"
    },
    {
      "anonymous": false,
      "inputs": [
        {
          "indexed": true,
          "internalType": "uint256",
          "name": "pid",
          "type": "uint256"
        },
        {
          "indexed": false,
          "internalType": "uint256",
          "name": "amount",
          "type": "uint256"
        }
      ],
      "name": "PremiumBilled",
      "type": "event"
    },
    {
      "anonymous": false,
      "inputs": [
        {
          "indexed": true,
          "internalType": "address",
          "name": "user",
          "type": "address"
        },
        {
          "indexed": true,
          "internalType": "uint256",
          "name": "pid",
          "type": "uint256"
        },
        {
          "indexed": false,
          "internalType": "uint256",
          "name": "amount",
          "type": "uint256"
        }
      ],
      "name": "Staked",
      "type": "event"
    },
    {
      "anonymous": false,
      "inputs": [
        {
          "indexed": true,
          "internalType": "address",
          "name": "from",
          "type": "address"
        },
        {
          "indexed": true,
          "internalType": "address",
          "name": "to",
          "type": "address"
        },
        {
          "indexed": true,
          "internalType": "uint256",
          "name": "tokenId",
          "type": "uint256"
        }
      ],
      "name": "Transfer",
      "type": "event"
    },
    {
      "anonymous": false,
      "inputs": [
        {
          "indexed": true,
          "internalType": "address",
          "name": "user",
          "type": "address"
        },
        {
          "indexed": true,
          "internalType": "uint256",
          "name": "pid",
          "type": "uint256"
        },
        {
          "indexed": false,
          "internalType": "uint256",
          "name": "amount",
          "type": "uint256"
        }
      ],
      "name": "Unstaked",
      "type": "event"
    },
    {
      "anonymous": false,
      "inputs": [
        {
          "indexed": true,
          "internalType": "address",
          "name": "implementation",
          "type": "address"
        }
      ],
      "name": "Upgraded",
      "type": "event"
    },
    {
      "anonymous": false,
      "inputs": [
        {
          "indexed": true,
          "internalType": "uint256",
          "name": "pid",
          "type": "uint256"
        },
        {
          "indexed": false,
          "internalType": "uint256",
          "name": "amount",
          "type": "uint256"
        }
      ],
      "name": "WithdrawalOrUnstakeScheduled",
      "type": "event"
    },
    {
      "anonymous": false,
      "inputs": [
        {
          "indexed": true,
          "internalType": "address",
          "name": "referrer",
          "type": "address"
        },
        {
          "indexed": false,
          "internalType": "uint256",
          "name": "amount",
          "type": "uint256"
        }
      ],
      "name": "referralPaid",
      "type": "event"
    },
    {
      "anonymous": false,
      "inputs": [
        {
          "indexed": true,
          "internalType": "address",
          "name": "token",
          "type": "address"
        },
        {
          "indexed": true,
          "internalType": "bool",
          "name": "whitelisted",
          "type": "bool"
        }
      ],
      "name": "tokenWhitelistUpdated",
      "type": "event"
    },
    {
      "inputs": [],
      "name": "acceptOwnershipTransfer",
      "outputs": [],
      "stateMutability": "nonpayable",
      "type": "function"
    },
    {
      "inputs": [
        {
          "internalType": "uint256",
          "name": "",
          "type": "uint256"
        }
      ],
      "name": "activeStrategies",
      "outputs": [
        {
          "internalType": "bytes32",
          "name": "",
          "type": "bytes32"
        }
      ],
      "stateMutability": "view",
      "type": "function"
    },
    {
      "inputs": [
        {
          "internalType": "uint256",
          "name": "",
          "type": "uint256"
        }
      ],
      "name": "activeTokens",
      "outputs": [
        {
          "internalType": "address",
          "name": "",
          "type": "address"
        }
      ],
      "stateMutability": "view",
      "type": "function"
    },
    {
      "inputs": [
        {
          "internalType": "address",
          "name": "_token",
          "type": "address"
        },
        {
          "internalType": "address",
          "name": "_projectWallet",
          "type": "address"
        },
        {
          "internalType": "string",
          "name": "_projectName",
          "type": "string"
        },
        {
          "internalType": "address",
          "name": "_referrer",
          "type": "address"
        },
        {
          "internalType": "uint256",
          "name": "_referralFee",
          "type": "uint256"
        }
      ],
      "name": "addNewBountyPool",
      "outputs": [
        {
          "internalType": "uint256",
          "name": "",
          "type": "uint256"
        }
      ],
      "stateMutability": "nonpayable",
      "type": "function"
    },
    {
      "inputs": [
        {
          "internalType": "address",
          "name": "to",
          "type": "address"
        },
        {
          "internalType": "uint256",
          "name": "tokenId",
          "type": "uint256"
        }
      ],
      "name": "approve",
      "outputs": [],
      "stateMutability": "nonpayable",
      "type": "function"
    },
    {
      "inputs": [
        {
          "internalType": "address",
          "name": "owner",
          "type": "address"
        }
      ],
      "name": "balanceOf",
      "outputs": [
        {
          "internalType": "uint256",
          "name": "",
          "type": "uint256"
        }
      ],
      "stateMutability": "view",
      "type": "function"
    },
    {
      "inputs": [
        {
          "internalType": "uint256",
          "name": "_pid",
          "type": "uint256"
        }
      ],
      "name": "billPremium",
      "outputs": [
        {
          "internalType": "bool",
          "name": "",
          "type": "bool"
        }
      ],
      "stateMutability": "nonpayable",
      "type": "function"
    },
    {
      "inputs": [
        {
          "internalType": "uint256",
          "name": "_pid",
          "type": "uint256"
        },
        {
          "internalType": "uint256",
          "name": "_totalAmount",
          "type": "uint256"
        }
      ],
      "name": "calcReferralSplit",
      "outputs": [
        {
          "internalType": "uint256",
          "name": "",
          "type": "uint256"
        },
        {
          "internalType": "uint256",
          "name": "",
          "type": "uint256"
        },
        {
          "internalType": "address",
          "name": "",
          "type": "address"
        }
      ],
      "stateMutability": "view",
      "type": "function"
    },
    {
      "inputs": [
        {
          "internalType": "uint256",
          "name": "_poolCap",
          "type": "uint256"
        },
        {
          "internalType": "uint256",
          "name": "_apy",
          "type": "uint256"
        }
      ],
      "name": "calcRequiredPremiumBalancePerPeriod",
      "outputs": [
        {
          "internalType": "uint256",
          "name": "requiredPremiumBalance",
          "type": "uint256"
        }
      ],
      "stateMutability": "pure",
      "type": "function"
    },
    {
      "inputs": [
        {
          "internalType": "uint256",
          "name": "_pid",
          "type": "uint256"
        },
        {
          "internalType": "uint256",
          "name": "_stake",
          "type": "uint256"
        },
        {
          "internalType": "uint256",
          "name": "_memX",
          "type": "uint256"
        }
      ],
      "name": "calculateArbitraryEffectiveAPY",
      "outputs": [
        {
          "internalType": "uint256",
          "name": "scaledAPY",
          "type": "uint256"
        }
      ],
      "stateMutability": "view",
      "type": "function"
    },
    {
      "inputs": [
        {
          "internalType": "uint256",
          "name": "_pid",
          "type": "uint256"
        },
        {
          "internalType": "uint256",
          "name": "_stake",
          "type": "uint256"
        }
      ],
      "name": "calculateEffectiveAPY",
      "outputs": [
        {
          "internalType": "uint256",
          "name": "scaledAPY",
          "type": "uint256"
        }
      ],
      "stateMutability": "view",
      "type": "function"
    },
    {
      "inputs": [
        {
          "internalType": "uint256",
          "name": "_tokenId",
          "type": "uint256"
        }
      ],
      "name": "claimPremium",
      "outputs": [],
      "stateMutability": "nonpayable",
      "type": "function"
    },
    {
      "inputs": [],
      "name": "collectAllReferralProfits",
      "outputs": [
        {
          "internalType": "bool",
          "name": "",
          "type": "bool"
        }
      ],
      "stateMutability": "nonpayable",
      "type": "function"
    },
    {
      "inputs": [
        {
          "internalType": "address",
          "name": "_saloonWallet",
          "type": "address"
        }
      ],
      "name": "collectAllSaloonProfits",
      "outputs": [
        {
          "internalType": "bool",
          "name": "",
          "type": "bool"
        }
      ],
      "stateMutability": "nonpayable",
      "type": "function"
    },
    {
      "inputs": [
        {
          "internalType": "address",
          "name": "_token",
          "type": "address"
        }
      ],
      "name": "collectReferralProfit",
      "outputs": [
        {
          "internalType": "bool",
          "name": "",
          "type": "bool"
        }
      ],
      "stateMutability": "nonpayable",
      "type": "function"
    },
    {
      "inputs": [
        {
          "internalType": "address",
          "name": "_token",
          "type": "address"
        },
        {
          "internalType": "address",
          "name": "_saloonWallet",
          "type": "address"
        }
      ],
      "name": "collectSaloonProfits",
      "outputs": [
        {
          "internalType": "bool",
          "name": "",
          "type": "bool"
        }
      ],
      "stateMutability": "nonpayable",
      "type": "function"
    },
    {
      "inputs": [],
      "name": "compoundYieldForAll",
      "outputs": [],
      "stateMutability": "nonpayable",
      "type": "function"
    },
    {
      "inputs": [
        {
          "internalType": "uint256",
          "name": "_pid",
          "type": "uint256"
        }
      ],
      "name": "compoundYieldForPid",
      "outputs": [],
      "stateMutability": "nonpayable",
      "type": "function"
    },
    {
      "inputs": [
        {
          "internalType": "uint256",
          "name": "_pid",
          "type": "uint256"
        }
      ],
      "name": "consolidate",
      "outputs": [],
      "stateMutability": "nonpayable",
      "type": "function"
    },
    {
      "inputs": [],
      "name": "consolidateAll",
      "outputs": [],
      "stateMutability": "nonpayable",
      "type": "function"
    },
    {
      "inputs": [
        {
          "internalType": "uint256",
          "name": "tokenId",
          "type": "uint256"
        }
      ],
      "name": "getApproved",
      "outputs": [
        {
          "internalType": "address",
          "name": "",
          "type": "address"
        }
      ],
      "stateMutability": "view",
      "type": "function"
    },
    {
      "inputs": [
        {
          "internalType": "uint256",
          "name": "_pid",
          "type": "uint256"
        }
      ],
      "name": "getCurrentAPY",
      "outputs": [
        {
          "internalType": "uint256",
          "name": "currentAPY",
          "type": "uint256"
        }
      ],
      "stateMutability": "view",
      "type": "function"
    },
    {
      "inputs": [
        {
          "internalType": "uint256",
          "name": "_from",
          "type": "uint256"
        },
        {
          "internalType": "uint256",
          "name": "_to",
          "type": "uint256"
        }
      ],
      "name": "getSecondsPassed",
      "outputs": [
        {
          "internalType": "uint256",
          "name": "",
          "type": "uint256"
        }
      ],
      "stateMutability": "pure",
      "type": "function"
    },
    {
      "inputs": [],
      "name": "index",
      "outputs": [
        {
          "internalType": "uint256",
          "name": "",
          "type": "uint256"
        }
      ],
      "stateMutability": "view",
      "type": "function"
    },
    {
      "inputs": [
        {
          "internalType": "address",
          "name": "_strategyFactory",
          "type": "address"
        }
      ],
      "name": "initialize",
      "outputs": [],
      "stateMutability": "nonpayable",
      "type": "function"
    },
    {
      "inputs": [
        {
          "internalType": "address",
          "name": "owner",
          "type": "address"
        },
        {
          "internalType": "address",
          "name": "operator",
          "type": "address"
        }
      ],
      "name": "isApprovedForAll",
      "outputs": [
        {
          "internalType": "bool",
          "name": "",
          "type": "bool"
        }
      ],
      "stateMutability": "view",
      "type": "function"
    },
    {
      "inputs": [
        {
          "internalType": "uint256",
          "name": "_pid",
          "type": "uint256"
        },
        {
          "internalType": "uint256",
          "name": "_deposit",
          "type": "uint256"
        },
        {
          "internalType": "string",
          "name": "_strategyName",
          "type": "string"
        }
      ],
      "name": "makeProjectDeposit",
      "outputs": [],
      "stateMutability": "nonpayable",
      "type": "function"
    },
    {
      "inputs": [
        {
          "internalType": "address",
          "name": "",
          "type": "address"
        }
      ],
      "name": "minTokenStakeAmount",
      "outputs": [
        {
          "internalType": "uint256",
          "name": "",
          "type": "uint256"
        }
      ],
      "stateMutability": "view",
      "type": "function"
    },
    {
      "inputs": [],
      "name": "name",
      "outputs": [
        {
          "internalType": "string",
          "name": "",
          "type": "string"
        }
      ],
      "stateMutability": "view",
      "type": "function"
    },
    {
      "inputs": [
        {
          "internalType": "uint256",
          "name": "",
          "type": "uint256"
        }
      ],
      "name": "nftAPY",
      "outputs": [
        {
          "internalType": "uint256",
          "name": "",
          "type": "uint256"
        }
      ],
      "stateMutability": "view",
      "type": "function"
    },
    {
      "inputs": [
        {
          "internalType": "uint256",
          "name": "",
          "type": "uint256"
        }
      ],
      "name": "nftBalance",
      "outputs": [
        {
          "internalType": "uint256",
          "name": "",
          "type": "uint256"
        }
      ],
      "stateMutability": "view",
      "type": "function"
    },
    {
      "inputs": [
        {
          "internalType": "uint256",
          "name": "",
          "type": "uint256"
        }
      ],
      "name": "nftInfo",
      "outputs": [
        {
          "internalType": "uint256",
          "name": "amount",
          "type": "uint256"
        },
        {
          "internalType": "uint256",
          "name": "xDelta",
          "type": "uint256"
        },
        {
          "internalType": "uint256",
          "name": "apy",
          "type": "uint256"
        },
        {
          "internalType": "uint256",
          "name": "unclaimed",
          "type": "uint256"
        },
        {
          "internalType": "uint256",
          "name": "lastClaimedTime",
          "type": "uint256"
        },
        {
          "internalType": "uint256",
          "name": "timelock",
          "type": "uint256"
        },
        {
          "internalType": "uint256",
          "name": "timelimit",
          "type": "uint256"
        }
      ],
      "stateMutability": "view",
      "type": "function"
    },
    {
      "inputs": [
        {
          "internalType": "uint256",
          "name": "",
          "type": "uint256"
        }
      ],
      "name": "nftToPid",
      "outputs": [
        {
          "internalType": "uint256",
          "name": "",
          "type": "uint256"
        }
      ],
      "stateMutability": "view",
      "type": "function"
    },
    {
      "inputs": [],
      "name": "owner",
      "outputs": [
        {
          "internalType": "address",
          "name": "",
          "type": "address"
        }
      ],
      "stateMutability": "view",
      "type": "function"
    },
    {
      "inputs": [
        {
          "internalType": "uint256",
          "name": "tokenId",
          "type": "uint256"
        }
      ],
      "name": "ownerOf",
      "outputs": [
        {
          "internalType": "address",
          "name": "",
          "type": "address"
        }
      ],
      "stateMutability": "view",
      "type": "function"
    },
    {
      "inputs": [
        {
          "internalType": "uint256",
          "name": "_pid",
          "type": "uint256"
        },
        {
          "internalType": "address",
          "name": "_hunter",
          "type": "address"
        },
        {
          "internalType": "uint256",
          "name": "_payoutBPS",
          "type": "uint256"
        }
      ],
      "name": "payBounty",
      "outputs": [
        {
          "internalType": "bool",
          "name": "",
          "type": "bool"
        }
      ],
      "stateMutability": "nonpayable",
      "type": "function"
    },
    {
      "inputs": [
        {
          "internalType": "uint256",
          "name": "_tokenId",
          "type": "uint256"
        }
      ],
      "name": "pendingPremium",
      "outputs": [
        {
          "internalType": "uint256",
          "name": "totalPending",
          "type": "uint256"
        },
        {
          "internalType": "uint256",
          "name": "actualPending",
          "type": "uint256"
        },
        {
          "internalType": "uint256",
          "name": "newPending",
          "type": "uint256"
        }
      ],
      "stateMutability": "view",
      "type": "function"
    },
    {
      "inputs": [
        {
          "internalType": "uint256",
          "name": "",
          "type": "uint256"
        },
        {
          "internalType": "uint256",
          "name": "",
          "type": "uint256"
        }
      ],
      "name": "pidNFTList",
      "outputs": [
        {
          "internalType": "uint256",
          "name": "",
          "type": "uint256"
        }
      ],
      "stateMutability": "view",
      "type": "function"
    },
    {
      "inputs": [
        {
          "internalType": "uint256",
          "name": "",
          "type": "uint256"
        },
        {
          "internalType": "bytes32",
          "name": "",
          "type": "bytes32"
        }
      ],
      "name": "pidStrategies",
      "outputs": [
        {
          "internalType": "address",
          "name": "",
          "type": "address"
        }
      ],
      "stateMutability": "view",
      "type": "function"
    },
    {
      "inputs": [
        {
          "internalType": "uint256",
          "name": "",
          "type": "uint256"
        }
      ],
      "name": "poolInfo",
      "outputs": [
        {
          "components": [
            {
              "internalType": "contract IERC20",
              "name": "token",
              "type": "address"
            },
            {
              "internalType": "uint8",
              "name": "tokenDecimals",
              "type": "uint8"
            },
            {
              "internalType": "uint16",
              "name": "apy",
              "type": "uint16"
            },
            {
              "internalType": "address",
              "name": "projectWallet",
              "type": "address"
            },
            {
              "internalType": "string",
              "name": "projectName",
              "type": "string"
            },
            {
              "internalType": "uint256",
              "name": "poolCap",
              "type": "uint256"
            },
            {
              "internalType": "uint256",
              "name": "totalStaked",
              "type": "uint256"
            },
            {
              "internalType": "uint256",
              "name": "scalingMultiplier",
              "type": "uint256"
            }
          ],
          "internalType": "struct ISaloon.GeneralInfo",
          "name": "generalInfo",
          "type": "tuple"
        },
        {
          "components": [
            {
              "internalType": "uint256",
              "name": "projectDepositHeld",
              "type": "uint256"
            },
            {
              "internalType": "uint256",
              "name": "projectDepositInStrategy",
              "type": "uint256"
            }
          ],
          "internalType": "struct ISaloon.DepositInfo",
          "name": "depositInfo",
          "type": "tuple"
        },
        {
          "components": [
            {
              "internalType": "uint256",
              "name": "premiumBalance",
              "type": "uint256"
            },
            {
              "internalType": "uint256",
              "name": "premiumAvailable",
              "type": "uint256"
            }
          ],
          "internalType": "struct ISaloon.PremiumInfo",
          "name": "premiumInfo",
          "type": "tuple"
        },
        {
          "components": [
            {
              "internalType": "uint256",
              "name": "timelock",
              "type": "uint256"
            },
            {
              "internalType": "uint256",
              "name": "timeLimit",
              "type": "uint256"
            },
            {
              "internalType": "uint256",
              "name": "withdrawalScheduledAmount",
              "type": "uint256"
            },
            {
              "internalType": "bool",
              "name": "withdrawalExecuted",
              "type": "bool"
            }
          ],
          "internalType": "struct ISaloon.TimelockInfo",
          "name": "poolTimelock",
          "type": "tuple"
        },
        {
          "components": [
            {
              "internalType": "uint256",
              "name": "currentX",
              "type": "uint256"
            },
            {
              "internalType": "uint256",
              "name": "currentY",
              "type": "uint256"
            },
            {
              "internalType": "uint256",
              "name": "totalSupply",
              "type": "uint256"
            },
            {
              "internalType": "uint256[]",
              "name": "unstakedTokens",
              "type": "uint256[]"
            }
          ],
          "internalType": "struct ISaloon.CurveInfo",
          "name": "curveInfo",
          "type": "tuple"
        },
        {
          "components": [
            {
              "internalType": "address",
              "name": "referrer",
              "type": "address"
            },
            {
              "internalType": "uint256",
              "name": "referralFee",
              "type": "uint256"
            }
          ],
          "internalType": "struct ISaloon.ReferralInfo",
          "name": "referralInfo",
          "type": "tuple"
        },
        {
          "internalType": "uint256",
          "name": "freezeTime",
          "type": "uint256"
        },
        {
          "internalType": "bool",
          "name": "isActive",
          "type": "bool"
        }
      ],
      "stateMutability": "view",
      "type": "function"
    },
    {
      "inputs": [],
      "name": "poolLength",
      "outputs": [
        {
          "internalType": "uint256",
          "name": "",
          "type": "uint256"
        }
      ],
      "stateMutability": "view",
      "type": "function"
    },
    {
      "inputs": [
        {
          "internalType": "uint256",
          "name": "_pid",
          "type": "uint256"
        },
        {
          "internalType": "uint256",
          "name": "_amount",
          "type": "uint256"
        }
      ],
      "name": "projectDepositWithdrawal",
      "outputs": [
        {
          "internalType": "bool",
          "name": "",
          "type": "bool"
        }
      ],
      "stateMutability": "nonpayable",
      "type": "function"
    },
    {
      "inputs": [],
      "name": "proxiableUUID",
      "outputs": [
        {
          "internalType": "bytes32",
          "name": "",
          "type": "bytes32"
        }
      ],
      "stateMutability": "view",
      "type": "function"
    },
    {
      "inputs": [
        {
          "internalType": "address",
          "name": "_token",
          "type": "address"
        },
        {
          "internalType": "uint256",
          "name": "_amount",
          "type": "uint256"
        }
      ],
      "name": "receiveStrategyYield",
      "outputs": [],
      "stateMutability": "nonpayable",
      "type": "function"
    },
    {
      "inputs": [
        {
          "internalType": "address",
          "name": "",
          "type": "address"
        },
        {
          "internalType": "address",
          "name": "",
          "type": "address"
        }
      ],
      "name": "referralBalances",
      "outputs": [
        {
          "internalType": "uint256",
          "name": "",
          "type": "uint256"
        }
      ],
      "stateMutability": "view",
      "type": "function"
    },
    {
      "inputs": [
        {
          "internalType": "address",
          "name": "from",
          "type": "address"
        },
        {
          "internalType": "address",
          "name": "to",
          "type": "address"
        },
        {
          "internalType": "uint256",
          "name": "tokenId",
          "type": "uint256"
        }
      ],
      "name": "safeTransferFrom",
      "outputs": [],
      "stateMutability": "nonpayable",
      "type": "function"
    },
    {
      "inputs": [
        {
          "internalType": "address",
          "name": "from",
          "type": "address"
        },
        {
          "internalType": "address",
          "name": "to",
          "type": "address"
        },
        {
          "internalType": "uint256",
          "name": "tokenId",
          "type": "uint256"
        },
        {
          "internalType": "bytes",
          "name": "data",
          "type": "bytes"
        }
      ],
      "name": "safeTransferFrom",
      "outputs": [],
      "stateMutability": "nonpayable",
      "type": "function"
    },
    {
      "inputs": [
        {
          "internalType": "address",
          "name": "",
          "type": "address"
        }
      ],
      "name": "saloonBountyProfit",
      "outputs": [
        {
          "internalType": "uint256",
          "name": "",
          "type": "uint256"
        }
      ],
      "stateMutability": "view",
      "type": "function"
    },
    {
      "inputs": [
        {
          "internalType": "address",
          "name": "",
          "type": "address"
        }
      ],
      "name": "saloonPremiumProfit",
      "outputs": [
        {
          "internalType": "uint256",
          "name": "",
          "type": "uint256"
        }
      ],
      "stateMutability": "view",
      "type": "function"
    },
    {
      "inputs": [
        {
          "internalType": "address",
          "name": "",
          "type": "address"
        }
      ],
      "name": "saloonStrategyProfit",
      "outputs": [
        {
          "internalType": "uint256",
          "name": "",
          "type": "uint256"
        }
      ],
      "stateMutability": "view",
      "type": "function"
    },
    {
      "inputs": [
        {
          "internalType": "uint256",
          "name": "_pid",
          "type": "uint256"
        },
        {
          "internalType": "uint256",
          "name": "_amount",
          "type": "uint256"
        }
      ],
      "name": "scheduleProjectDepositWithdrawal",
      "outputs": [
        {
          "internalType": "bool",
          "name": "",
          "type": "bool"
        }
      ],
      "stateMutability": "nonpayable",
      "type": "function"
    },
    {
      "inputs": [
        {
          "internalType": "uint256",
          "name": "_tokenId",
          "type": "uint256"
        }
      ],
      "name": "scheduleUnstake",
      "outputs": [
        {
          "internalType": "bool",
          "name": "",
          "type": "bool"
        }
      ],
      "stateMutability": "nonpayable",
      "type": "function"
    },
    {
      "inputs": [
        {
          "internalType": "uint256",
          "name": "_pid",
          "type": "uint256"
        },
        {
          "internalType": "uint256",
          "name": "_poolCap",
          "type": "uint256"
        },
        {
          "internalType": "uint16",
          "name": "_apy",
          "type": "uint16"
        },
        {
          "internalType": "uint256",
          "name": "_deposit",
          "type": "uint256"
        },
        {
          "internalType": "string",
          "name": "_strategyName",
          "type": "string"
        }
      ],
      "name": "setAPYandPoolCapAndDeposit",
      "outputs": [],
      "stateMutability": "nonpayable",
      "type": "function"
    },
    {
      "inputs": [
        {
          "internalType": "address",
          "name": "operator",
          "type": "address"
        },
        {
          "internalType": "bool",
          "name": "approved",
          "type": "bool"
        }
      ],
      "name": "setApprovalForAll",
      "outputs": [],
      "stateMutability": "nonpayable",
      "type": "function"
    },
    {
      "inputs": [
        {
          "internalType": "uint256",
          "name": "_pid",
          "type": "uint256"
        },
        {
          "internalType": "uint256",
          "name": "_amount",
          "type": "uint256"
        }
      ],
      "name": "stake",
      "outputs": [
        {
          "internalType": "uint256",
          "name": "",
          "type": "uint256"
        }
      ],
      "stateMutability": "nonpayable",
      "type": "function"
    },
    {
      "inputs": [
        {
          "internalType": "address",
          "name": "",
          "type": "address"
        }
      ],
      "name": "strategyAddressToPid",
      "outputs": [
        {
          "internalType": "uint256",
          "name": "",
          "type": "uint256"
        }
      ],
      "stateMutability": "view",
      "type": "function"
    },
    {
      "inputs": [
        {
          "internalType": "bytes4",
          "name": "interfaceId",
          "type": "bytes4"
        }
      ],
      "name": "supportsInterface",
      "outputs": [
        {
          "internalType": "bool",
          "name": "",
          "type": "bool"
        }
      ],
      "stateMutability": "view",
      "type": "function"
    },
    {
      "inputs": [],
      "name": "symbol",
      "outputs": [
        {
          "internalType": "string",
          "name": "",
          "type": "string"
        }
      ],
      "stateMutability": "view",
      "type": "function"
    },
    {
      "inputs": [
        {
          "internalType": "uint256",
          "name": "tokenId",
          "type": "uint256"
        }
      ],
      "name": "tokenURI",
      "outputs": [
        {
          "internalType": "string",
          "name": "",
          "type": "string"
        }
      ],
      "stateMutability": "view",
      "type": "function"
    },
    {
      "inputs": [
        {
          "internalType": "address",
          "name": "",
          "type": "address"
        }
      ],
      "name": "tokenWhitelist",
      "outputs": [
        {
          "internalType": "bool",
          "name": "",
          "type": "bool"
        }
      ],
      "stateMutability": "view",
      "type": "function"
    },
    {
      "inputs": [
        {
          "internalType": "address",
          "name": "from",
          "type": "address"
        },
        {
          "internalType": "address",
          "name": "to",
          "type": "address"
        },
        {
          "internalType": "uint256",
          "name": "tokenId",
          "type": "uint256"
        }
      ],
      "name": "transferFrom",
      "outputs": [],
      "stateMutability": "nonpayable",
      "type": "function"
    },
    {
      "inputs": [
        {
          "internalType": "address",
          "name": "newOwner",
          "type": "address"
        }
      ],
      "name": "transferOwnership",
      "outputs": [],
      "stateMutability": "nonpayable",
      "type": "function"
    },
    {
      "inputs": [
        {
          "internalType": "uint256",
          "name": "_tokenId",
          "type": "uint256"
        },
        {
          "internalType": "bool",
          "name": "_shouldHarvest",
          "type": "bool"
        }
      ],
      "name": "unstake",
      "outputs": [
        {
          "internalType": "bool",
          "name": "",
          "type": "bool"
        }
      ],
      "stateMutability": "nonpayable",
      "type": "function"
    },
    {
      "inputs": [
        {
          "internalType": "address",
          "name": "_strategyFactory",
          "type": "address"
        }
      ],
      "name": "updateStrategyFactoryAddress",
      "outputs": [],
      "stateMutability": "nonpayable",
      "type": "function"
    },
    {
      "inputs": [
        {
          "internalType": "address",
          "name": "_token",
          "type": "address"
        },
        {
          "internalType": "bool",
          "name": "_whitelisted",
          "type": "bool"
        },
        {
          "internalType": "uint256",
          "name": "_minStakeAmount",
          "type": "uint256"
        }
      ],
      "name": "updateTokenWhitelist",
      "outputs": [
        {
          "internalType": "bool",
          "name": "",
          "type": "bool"
        }
      ],
      "stateMutability": "nonpayable",
      "type": "function"
    },
    {
      "inputs": [
        {
          "internalType": "address",
          "name": "newImplementation",
          "type": "address"
        }
      ],
      "name": "upgradeTo",
      "outputs": [],
      "stateMutability": "nonpayable",
      "type": "function"
    },
    {
      "inputs": [
        {
          "internalType": "address",
          "name": "newImplementation",
          "type": "address"
        },
        {
          "internalType": "bytes",
          "name": "data",
          "type": "bytes"
        }
      ],
      "name": "upgradeToAndCall",
      "outputs": [],
      "stateMutability": "payable",
      "type": "function"
    },
    {
      "inputs": [
        {
          "internalType": "uint256",
          "name": "_pid",
          "type": "uint256"
        }
      ],
      "name": "viewBountyBalance",
      "outputs": [
        {
          "internalType": "uint256",
          "name": "",
          "type": "uint256"
        }
      ],
      "stateMutability": "view",
      "type": "function"
    },
    {
      "inputs": [
        {
          "internalType": "uint256",
          "name": "_pid",
          "type": "uint256"
        }
      ],
      "name": "viewBountyInfo",
      "outputs": [
        {
          "internalType": "uint256",
          "name": "payout",
          "type": "uint256"
        },
        {
          "internalType": "uint256",
          "name": "apy",
          "type": "uint256"
        },
        {
          "internalType": "uint256",
          "name": "staked",
          "type": "uint256"
        },
        {
          "internalType": "uint256",
          "name": "poolCap",
          "type": "uint256"
        }
      ],
      "stateMutability": "view",
      "type": "function"
    },
    {
      "inputs": [
        {
          "internalType": "uint256",
          "name": "_pid",
          "type": "uint256"
        }
      ],
      "name": "viewHackerPayout",
      "outputs": [
        {
          "internalType": "uint256",
          "name": "",
          "type": "uint256"
        }
      ],
      "stateMutability": "view",
      "type": "function"
    },
    {
      "inputs": [
        {
          "internalType": "uint256",
          "name": "_pid",
          "type": "uint256"
        }
      ],
      "name": "viewMinProjectDeposit",
      "outputs": [
        {
          "internalType": "uint256",
          "name": "",
          "type": "uint256"
        }
      ],
      "stateMutability": "view",
      "type": "function"
    },
    {
      "inputs": [
        {
          "internalType": "uint256",
          "name": "_pid",
          "type": "uint256"
        }
      ],
      "name": "viewPoolAPY",
      "outputs": [
        {
          "internalType": "uint256",
          "name": "",
          "type": "uint256"
        }
      ],
      "stateMutability": "view",
      "type": "function"
    },
    {
      "inputs": [
        {
          "internalType": "uint256",
          "name": "_pid",
          "type": "uint256"
        }
      ],
      "name": "viewPoolCap",
      "outputs": [
        {
          "internalType": "uint256",
          "name": "",
          "type": "uint256"
        }
      ],
      "stateMutability": "view",
      "type": "function"
    },
    {
      "inputs": [
        {
          "internalType": "uint256",
          "name": "_pid",
          "type": "uint256"
        }
      ],
      "name": "viewPoolPremiumInfo",
      "outputs": [
        {
          "internalType": "uint256",
          "name": "requiredPremiumBalancePerPeriod",
          "type": "uint256"
        },
        {
          "internalType": "uint256",
          "name": "premiumBalance",
          "type": "uint256"
        },
        {
          "internalType": "uint256",
          "name": "premiumAvailable",
          "type": "uint256"
        }
      ],
      "stateMutability": "view",
      "type": "function"
    },
    {
      "inputs": [
        {
          "internalType": "uint256",
          "name": "_pid",
          "type": "uint256"
        }
      ],
      "name": "viewPoolTimelockInfo",
      "outputs": [
        {
          "internalType": "uint256",
          "name": "timelock",
          "type": "uint256"
        },
        {
          "internalType": "uint256",
          "name": "timeLimit",
          "type": "uint256"
        },
        {
          "internalType": "uint256",
          "name": "withdrawalScheduledAmount",
          "type": "uint256"
        }
      ],
      "stateMutability": "view",
      "type": "function"
    },
    {
      "inputs": [
        {
          "internalType": "address",
          "name": "_referrer",
          "type": "address"
        },
        {
          "internalType": "address",
          "name": "_token",
          "type": "address"
        }
      ],
      "name": "viewReferralBalance",
      "outputs": [
        {
          "internalType": "uint256",
          "name": "referralBalance",
          "type": "uint256"
        }
      ],
      "stateMutability": "view",
      "type": "function"
    },
    {
      "inputs": [
        {
          "internalType": "address",
          "name": "_token",
          "type": "address"
        }
      ],
      "name": "viewSaloonProfitBalance",
      "outputs": [
        {
          "internalType": "uint256",
          "name": "totalProfit",
          "type": "uint256"
        },
        {
          "internalType": "uint256",
          "name": "bountyProfit",
          "type": "uint256"
        },
        {
          "internalType": "uint256",
          "name": "strategyProfit",
          "type": "uint256"
        },
        {
          "internalType": "uint256",
          "name": "premiumProfit",
          "type": "uint256"
        }
      ],
      "stateMutability": "view",
      "type": "function"
    },
    {
      "inputs": [
        {
          "internalType": "uint256",
          "name": "_tokenId",
          "type": "uint256"
        }
      ],
      "name": "viewTokenInfo",
      "outputs": [
        {
          "internalType": "uint256",
          "name": "amount",
          "type": "uint256"
        },
        {
          "internalType": "uint256",
          "name": "apy",
          "type": "uint256"
        },
        {
          "internalType": "uint256",
          "name": "actualPending",
          "type": "uint256"
        },
        {
          "internalType": "uint256",
          "name": "unclaimed",
          "type": "uint256"
        },
        {
          "internalType": "uint256",
          "name": "timelock",
          "type": "uint256"
        }
      ],
      "stateMutability": "view",
      "type": "function"
    },
    {
      "inputs": [
        {
          "internalType": "uint256",
          "name": "_pid",
          "type": "uint256"
        }
      ],
      "name": "viewTotalStaked",
      "outputs": [
        {
          "internalType": "uint256",
          "name": "",
          "type": "uint256"
        }
      ],
      "stateMutability": "view",
      "type": "function"
    },
    {
      "inputs": [
        {
          "internalType": "uint256",
          "name": "_tokenId",
          "type": "uint256"
        }
      ],
      "name": "viewUserUnclaimed",
      "outputs": [
        {
          "internalType": "uint256",
          "name": "unclaimed",
          "type": "uint256"
        }
      ],
      "stateMutability": "view",
      "type": "function"
    },
    {
      "inputs": [
        {
          "internalType": "uint256",
          "name": "_pid",
          "type": "uint256"
        }
      ],
      "name": "windDownBounty",
      "outputs": [
        {
          "internalType": "bool",
          "name": "",
          "type": "bool"
        }
      ],
      "stateMutability": "nonpayable",
      "type": "function"
    }
  ],
  "bytecode": {
    "object": "0x60a0604052306080523480156200001557600080fd5b50600160ca55600054610100900460ff16158080156200003c5750600054600160ff909116105b806200006c575062000059306200019760201b620068921760201c565b1580156200006c575060005460ff166001145b620000d55760405162461bcd60e51b815260206004820152602e60248201527f496e697469616c697a61626c653a20636f6e747261637420697320616c72656160448201526d191e481a5b9a5d1a585b1a5e995960921b60648201526084015b60405180910390fd5b6000805460ff191660011790558015620000f9576000805461ff0019166101001790555b620001496040518060400160405280600b81526020016a2137bab73a3caa37b5b2b760a91b8152506040518060400160405280600381526020016210951560ea1b815250620001a660201b60201c565b801562000190576000805461ff0019169055604051600181527f7f26b83ff96e1f2b6a682f133852f6798a09c465da95921460cefb38474024989060200160405180910390a15b5062000400565b6001600160a01b03163b151590565b600054610100900460ff16620002025760405162461bcd60e51b815260206004820152602b602482015260008051602062009d6b83398151915260448201526a6e697469616c697a696e6760a81b6064820152608401620000cc565b6200020e828262000212565b5050565b600054610100900460ff166200026e5760405162461bcd60e51b815260206004820152602b602482015260008051602062009d6b83398151915260448201526a6e697469616c697a696e6760a81b6064820152608401620000cc565b60fd6200027c838262000334565b5060fe6200028b828262000334565b505050565b634e487b7160e01b600052604160045260246000fd5b600181811c90821680620002bb57607f821691505b602082108103620002dc57634e487b7160e01b600052602260045260246000fd5b50919050565b601f8211156200028b57600081815260208120601f850160051c810160208610156200030b5750805b601f850160051c820191505b818110156200032c5782815560010162000317565b505050505050565b81516001600160401b0381111562000350576200035062000290565b6200036881620003618454620002a6565b84620002e2565b602080601f831160018114620003a05760008415620003875750858301515b600019600386901b1c1916600185901b1785556200032c565b600085815260208120601f198616915b82811015620003d157888601518255948401946001909101908401620003b0565b5085821015620003f05787850151600019600388901b60f8161c191681555b5050505050600190811b01905550565b6080516199336200043860003960008181611fba01528181611ffa01528181612cb501528181612cf5015261316e01526199336000f3fe60806040526004361061047e5760003560e01c806370a0823111610255578063ac30b85611610144578063cf9564b9116100c1578063e985e9c511610085578063e985e9c514610fd4578063ecd7fbed1461101e578063f2fde38b1461103e578063f47ec3be1461105e578063f68ce4991461107e578063fb9920731461109357600080fd5b8063cf9564b914610f18578063dbdd695714610f38578063e45abd0f14610f58578063e63d6ee414610f86578063e78ea3df14610fb457600080fd5b8063b88d4fde11610108578063b88d4fde14610e6a578063bb7019c114610e8a578063c4d66de814610eaa578063c87b56dd14610eca578063ca00614814610eea57600080fd5b8063ac30b85614610dc7578063ae07f94814610de7578063b1a2d16f14610e07578063b20b242914610e27578063b842e87f14610e5557600080fd5b8063949a4a4a116101d25780639ebea88c116101965780639ebea88c14610d275780639f224f3514610d47578063a089a52014610d67578063a22cb46514610d87578063a27f921314610da757600080fd5b8063949a4a4a14610c84578063957deecc14610ca457806395d89b4114610cd257806396ea48e814610ce7578063983c1ce014610d0757600080fd5b80637fbf3853116102195780637fbf385314610bc2578063836ef1fa14610be2578063861e5f6614610c025780638da5cb5b14610c22578063928dc6a914610c4057600080fd5b806370a0823114610b1c578063718c7eef14610b3c578063753d756314610b5c57806375bfd63d14610b8d5780637b0472f014610ba257600080fd5b80632dbe051e1161037157806342842e0e116102ee578063598d17bf116102b2578063598d17bf14610a605780635c46f7b114610a8e578063612afc0c14610aae5780636352211e14610adc5780636ac6d81214610afc57600080fd5b806342842e0e146109d85780634f1ef286146109f85780634f3214cc14610a0b57806352d1902d14610a2b5780635669cbef14610a4057600080fd5b806339679ff41161033557806339679ff4146109085780633ac6ad7b146109285780633e8888d91461094857806340bd1d001461095d57806340ef28681461099857600080fd5b80632dbe051e1461085a57806330ca07941461087a5780633538fda01461089a5780633659cfe6146108ba57806339458723146108da57600080fd5b806310725852116103ff5780631df56622116103c35780631df56622146107475780631f8bc7901461077557806323b872dd146108035780632986c0e5146108235780632cb0dfcc1461083a57600080fd5b8063107258521461065a5780631526fe27146106a257806319693071146106d65780631aebcecb146107075780631c6b323f1461072757600080fd5b8063081e3eda11610446578063081e3eda1461059b578063095ea7b3146105b15780630a015ab1146105d35780630ed7610c146105f3578063106d08df1461063a57600080fd5b8063011b408b1461048357806301ffc9a7146104cf57806306fdde03146104ff578063074ecf0314610521578063081812fc1461057b575b600080fd5b34801561048f57600080fd5b506104bc61049e366004618b9c565b61013960209081526000928352604080842090915290825290205481565b6040519081526020015b60405180910390f35b3480156104db57600080fd5b506104ef6104ea366004618beb565b6110b3565b60405190151581526020016104c6565b34801561050b57600080fd5b50610514611105565b6040516104c69190618c58565b34801561052d57600080fd5b5061056361053c366004618c6b565b61013b6020908152600092835260408084209091529082529020546001600160a01b031681565b6040516001600160a01b0390911681526020016104c6565b34801561058757600080fd5b50610563610596366004618c8d565b611197565b3480156105a757600080fd5b50610130546104bc565b3480156105bd57600080fd5b506105d16105cc366004618ca6565b6111bf565b005b3480156105df57600080fd5b506104bc6105ee366004618c6b565b6112d9565b3480156105ff57600080fd5b506104bc61060e366004618b9c565b6001600160a01b0391821660009081526101396020908152604080832093909416825291909152205490565b34801561064657600080fd5b506104ef610655366004618c8d565b6112ec565b34801561066657600080fd5b5061067a610675366004618c8d565b6113d3565b604080519586526020860194909452928401919091526060830152608082015260a0016104c6565b3480156106ae57600080fd5b506106c26106bd366004618c8d565b61146b565b6040516104c6989796959493929190618d3d565b3480156106e257600080fd5b506104bc6106f1366004618c8d565b6000908152610134602052604090206003015490565b34801561071357600080fd5b506105d1610722366004618ca6565b6116bc565b34801561073357600080fd5b506104bc610742366004618c8d565b611775565b34801561075357600080fd5b506104bc610762366004618c8d565b6101326020526000908152604090205481565b34801561078157600080fd5b506107ce610790366004618c8d565b610134602052600090815260409020805460018201546002830154600384015460048501546005860154600690960154949593949293919290919087565b604080519788526020880196909652948601939093526060850191909152608084015260a083015260c082015260e0016104c6565b34801561080f57600080fd5b506105d161081e366004618e60565b611a5e565b34801561082f57600080fd5b506104bc6101035481565b34801561084657600080fd5b506104ef610855366004618eaf565b611a8f565b34801561086657600080fd5b506104ef610875366004618c8d565b611ce1565b34801561088657600080fd5b506105d1610895366004618f82565b611cfe565b3480156108a657600080fd5b506105d16108b5366004618ff6565b611f85565b3480156108c657600080fd5b506105d16108d5366004618ff6565b611fb0565b3480156108e657600080fd5b506104bc6108f5366004618ff6565b6101406020526000908152604090205481565b34801561091457600080fd5b506104bc610923366004618c8d565b61208f565b34801561093457600080fd5b506104ef610943366004619013565b61236a565b34801561095457600080fd5b506104ef612803565b34801561096957600080fd5b5061097d610978366004618c8d565b612866565b604080519384526020840192909252908201526060016104c6565b3480156109a457600080fd5b506109b86109b3366004618c8d565b612c57565b6040805194855260208501939093529183015260608201526080016104c6565b3480156109e457600080fd5b506105d16109f3366004618e60565b612c90565b6105d1610a0636600461903a565b612cab565b348015610a1757600080fd5b506104bc610a2636600461908a565b612d7b565b348015610a3757600080fd5b506104bc613161565b348015610a4c57600080fd5b506104ef610a5b366004618c6b565b613214565b348015610a6c57600080fd5b506104bc610a7b366004618ff6565b6101386020526000908152604090205481565b348015610a9a57600080fd5b506104bc610aa9366004618c6b565b613342565b348015610aba57600080fd5b506104bc610ac9366004618c8d565b6101336020526000908152604090205481565b348015610ae857600080fd5b50610563610af7366004618c8d565b6136fb565b348015610b0857600080fd5b506104bc610b17366004618c8d565b61375b565b348015610b2857600080fd5b506104bc610b37366004618ff6565b613a45565b348015610b4857600080fd5b506109b8610b57366004618ff6565b613acc565b348015610b6857600080fd5b506104ef610b77366004618ff6565b61013e6020526000908152604090205460ff1681565b348015610b9957600080fd5b506105d1613b1c565b348015610bae57600080fd5b506104bc610bbd366004618c6b565b613b44565b348015610bce57600080fd5b506104bc610bdd366004618c8d565b614036565b348015610bee57600080fd5b506104bc610bfd366004618c6b565b614330565b348015610c0e57600080fd5b506104bc610c1d366004618c8d565b614366565b348015610c2e57600080fd5b506033546001600160a01b0316610563565b348015610c4c57600080fd5b50610c60610c5b366004618c6b565b614666565b6040805193845260208401929092526001600160a01b0316908201526060016104c6565b348015610c9057600080fd5b506105d1610c9f366004618c8d565b6149a7565b348015610cb057600080fd5b506104bc610cbf366004618ff6565b61013d6020526000908152604090205481565b348015610cde57600080fd5b50610514614dea565b348015610cf357600080fd5b506104bc610d02366004618c6b565b614df9565b348015610d1357600080fd5b506104ef610d22366004618c6b565b614e2b565b348015610d3357600080fd5b506104ef610d423660046190b6565b614fb2565b348015610d5357600080fd5b50610563610d62366004618c8d565b6151b8565b348015610d7357600080fd5b506104ef610d82366004618ff6565b6151e3565b348015610d9357600080fd5b506105d1610da23660046190db565b615259565b348015610db357600080fd5b506104bc610dc2366004618c8d565b615264565b348015610dd357600080fd5b5061097d610de2366004618c8d565b615542565b348015610df357600080fd5b506105d1610e02366004619109565b615834565b348015610e1357600080fd5b5061097d610e22366004618c8d565b615934565b348015610e3357600080fd5b506104bc610e42366004618c8d565b61013c6020526000908152604090205481565b348015610e6157600080fd5b506105d1615c3b565b348015610e7657600080fd5b506105d1610e85366004619159565b615cbb565b348015610e9657600080fd5b506104ef610ea5366004618c8d565b615cf3565b348015610eb657600080fd5b506105d1610ec5366004618ff6565b615dbf565b348015610ed657600080fd5b50610514610ee5366004618c8d565b615eec565b348015610ef657600080fd5b506104bc610f05366004618ff6565b6101376020526000908152604090205481565b348015610f2457600080fd5b506104ef610f33366004618b9c565b615f5f565b348015610f4457600080fd5b506104bc610f53366004618c8d565b615fc3565b348015610f6457600080fd5b506104bc610f73366004618ff6565b6101366020526000908152604090205481565b348015610f9257600080fd5b506104bc610fa1366004618c8d565b6101316020526000908152604090205481565b348015610fc057600080fd5b506105d1610fcf366004618c8d565b61629e565b348015610fe057600080fd5b506104ef610fef366004618b9c565b6001600160a01b0391821660009081526101026020908152604080832093909416825291909152205460ff1690565b34801561102a57600080fd5b506104ef611039366004618ff6565b61632d565b34801561104a57600080fd5b506105d1611059366004618ff6565b616390565b34801561106a57600080fd5b506105d1611079366004618c8d565b61641f565b34801561108a57600080fd5b506105d161643c565b34801561109f57600080fd5b506104bc6110ae3660046191c5565b616464565b60006001600160e01b031982166380ac58cd60e01b14806110e457506001600160e01b03198216635b5e139f60e01b145b806110ff57506301ffc9a760e01b6001600160e01b03198316145b92915050565b606060fd805461111490619242565b80601f016020809104026020016040519081016040528092919081815260200182805461114090619242565b801561118d5780601f106111625761010080835404028352916020019161118d565b820191906000526020600020905b81548152906001019060200180831161117057829003601f168201915b5050505050905090565b60006111a2826168a1565b50600090815261010160205260409020546001600160a01b031690565b60006111ca826136fb565b9050806001600160a01b0316836001600160a01b03160361123c5760405162461bcd60e51b815260206004820152602160248201527f4552433732313a20617070726f76616c20746f2063757272656e74206f776e656044820152603960f91b60648201526084015b60405180910390fd5b336001600160a01b038216148061125857506112588133610fef565b6112ca5760405162461bcd60e51b815260206004820152603d60248201527f4552433732313a20617070726f76652063616c6c6572206973206e6f7420746f60448201527f6b656e206f776e6572206f7220617070726f76656420666f7220616c6c0000006064820152608401611233565b6112d48383616900565b505050565b60006112e5828461696f565b9392505050565b6000336112f8836136fb565b6001600160a01b0316146113445760405162461bcd60e51b815260206004820152601360248201527239b2b73232b91034b9903737ba1037bbb732b960691b6044820152606401611233565b6000828152610133602090815260408083205461013490925290912061136d62093a8042619292565b600582015561137f62093a8042619292565b61138c906203f480619292565b6006820155805460405181815283907fb3b9c925de3673837b40c6b4d4463a8f88dc821cd27e07f1ff6bf6abf96413a59060200160405180910390a2506001949350505050565b600081815261013360209081526040808320546101348352818420825160e081018452815480825260018301549582019590955260028201549381018490526003820154606082015260048201546080820152600582015460a082015260069091015460c0820152929391928291829161144c88612866565b50606083015160a090930151989a979950979196919550909350505050565b610130818154811061147c57600080fd5b60009182526020918290206040805161010081018252601790930290910180546001600160a01b03808216855260ff600160a01b8304169585019590955261ffff600160a81b9091041691830191909152600181015490921660608201526002820180549293509091839160808401916114f590619242565b80601f016020809104026020016040519081016040528092919081815260200182805461152190619242565b801561156e5780601f106115435761010080835404028352916020019161156e565b820191906000526020600020905b81548152906001019060200180831161155157829003601f168201915b50505091835250506003820154602080830191909152600483015460408084019190915260059093015460609283015282518084018452600686015481526007860154818301528351808501855260088701548152600987015481840152845160808082018752600a8901548252600b89015482860152600c89015482880152600d89015460ff1615158287015286519081018752600e890180548252600f8a01548287015260108a01548289015260118a018054895181890281018901909a52808a52999a959994989397959692959194918601939290919083018282801561167757602002820191906000526020600020905b815481526020019060010190808311611663575b5050509190925250506040805180820190915260128401546001600160a01b031681526013840154602082015260158401546016909401549293909290915060ff1688565b6116d16001600160a01b03831633308461697b565b5033600090815261013d60205260408120549081900361171f576001600160a01b0383166000908152610138602052604081208054849290611714908490619292565b909155506112d49050565b600080600061172e8486614666565b92509250925061173f8187846169e9565b6001600160a01b0386166000908152610138602052604081208054859290611768908490619292565b9091555050505050505050565b600080610130838154811061178c5761178c6192a5565b6000918252602090912060408051610220810190915260179092020180546001600160a01b038082166101208501908152600160a01b830460ff16610140860152600160a81b90920461ffff1661016085015260018301541661018084015260028201805484929184916101a08501919061180690619242565b80601f016020809104026020016040519081016040528092919081815260200182805461183290619242565b801561187f5780601f106118545761010080835404028352916020019161187f565b820191906000526020600020905b81548152906001019060200180831161186257829003601f168201915b505050918352505060038201546020808301919091526004830154604080840191909152600590930154606092830152928452815180830183526006860154815260078601548185015284840152815180830183526008860154815260098601548185015284830152815160808082018452600a8701548252600b87015482860152600c87015482850152600d87015460ff161515828401528583019190915282518082018452600e870180548252600f8801548287015260108801548286015260118801805486518189028101890190975280875293909701969195909493860193929083018282801561199357602002820191906000526020600020905b81548152602001906001019080831161197f575b50505091909252505050815260408051808201825260128401546001600160a01b03168152601384015460208281019190915280840191909152601484018054835181840281018401855281815293909401939091830182828015611a2157602002820191906000526020600020905b81546001600160a01b03168152600190910190602001808311611a03575b5050509183525050601582015460208083019190915260169092015460ff161515604090910152818101519081015190519192506112e591619292565b611a683382616a3a565b611a845760405162461bcd60e51b8152600401611233906192bb565b6112d4838383616ab9565b6000611a99616c1f565b6001600160a01b038416600090815261013e602052604090205460ff16151583151480611ac65750600082115b611b0b5760405162461bcd60e51b81526020600482015260166024820152751b9bc818da185b99d9481d1bc81dda1a5d195b1a5cdd60521b6044820152606401611233565b6001600160a01b038416600081815261013e6020526040808220805460ff191687151590811790915590519092917f99795d51e5a8804307721456a7a9c2f0d7421f719d46a46d36e91fee7c85aa7691a38215611bc35761013f8054600181019091557f61537fc21ace3653481170484f792538e1b4bc282f58b619d975a553f7077a760180546001600160a01b0319166001600160a01b038616908117909155600090815261014060205260409020829055611cd7565b61013f5460005b81811015611cd457600061013f8281548110611be857611be86192a5565b6000918252602090912001546001600160a01b03908116915087168103611cc35761013f611c17600185619308565b81548110611c2757611c276192a5565b60009182526020909120015461013f80546001600160a01b039092169184908110611c5457611c546192a5565b9060005260206000200160006101000a8154816001600160a01b0302191690836001600160a01b0316021790555061013f805480611c9457611c9461931b565b600082815260209020810160001990810180546001600160a01b031916905501905550600192506112e5915050565b50611ccd81619331565b9050611bca565b50505b5060019392505050565b6000611ceb616c1f565b611cf6826000616c79565b506001919050565b60006101308681548110611d1457611d146192a5565b60009182526020909120601790910201601681015490915060ff16158015611d3e57506003810154155b611d8a5760405162461bcd60e51b815260206004820152601860248201527f506f6f6c20616c726561647920696e697469616c697a656400000000000000006044820152606401611233565b60008461ffff16118015611da457506127108461ffff1611155b611de35760405162461bcd60e51b815260206004820152601060248201526f415059206f7574206f662072616e676560801b6044820152606401611233565b8054611dfa90600160a01b900460ff16600a61942e565b611e0590606461943d565b8510158015611e3757508054611e2690600160a01b900460ff16600a61942e565b611e33906298968061943d565b8511155b611e7b5760405162461bcd60e51b8152602060048201526015602482015274506f6f6c20636170206f7574206f662072616e676560581b6044820152606401611233565b60018101546001600160a01b03163314611ea75760405162461bcd60e51b815260040161123390619454565b6000611eb7868661ffff16614330565b90506000612710611eca6103e88461943d565b611ed49190619492565b9050611ef83330611ee58589619292565b86546001600160a01b031692919061697b565b5084836006016000016000828254611f109190619292565b909155505060038301879055825461ffff60a81b1916600160a81b61ffff88160217835560168301805460ff1916600117905560088301829055611f548183619308565b6009840155611f678861ffff8816616dfc565b835115611f7b57611f79888587616e53565b505b5050505050505050565b611f8d616c1f565b61013a80546001600160a01b0319166001600160a01b0392909216919091179055565b6001600160a01b037f0000000000000000000000000000000000000000000000000000000000000000163003611ff85760405162461bcd60e51b8152600401611233906194b4565b7f00000000000000000000000000000000000000000000000000000000000000006001600160a01b03166120416000805160206198b7833981519152546001600160a01b031690565b6001600160a01b0316146120675760405162461bcd60e51b815260040161123390619500565b61207081616fed565b6040805160008082526020820190925261208c91839190616ff5565b50565b60008061013083815481106120a6576120a66192a5565b6000918252602090912060408051610220810190915260179092020180546001600160a01b038082166101208501908152600160a01b830460ff16610140860152600160a81b90920461ffff1661016085015260018301541661018084015260028201805484929184916101a08501919061212090619242565b80601f016020809104026020016040519081016040528092919081815260200182805461214c90619242565b80156121995780601f1061216e57610100808354040283529160200191612199565b820191906000526020600020905b81548152906001019060200180831161217c57829003601f168201915b505050918352505060038201546020808301919091526004830154604080840191909152600590930154606092830152928452815180830183526006860154815260078601548185015284840152815180830183526008860154815260098601548185015284830152815160808082018452600a8701548252600b87015482860152600c87015482850152600d87015460ff161515828401528583019190915282518082018452600e870180548252600f880154828701526010880154828601526011880180548651818902810189019097528087529390970196919590949386019392908301828280156122ad57602002820191906000526020600020905b815481526020019060010190808311612299575b50505091909252505050815260408051808201825260128401546001600160a01b0316815260138401546020828101919091528084019190915260148401805483518184028101840185528181529390940193909183018282801561233b57602002820191906000526020600020905b81546001600160a01b0316815260019091019060200180831161231d575b50505091835250506015820154602082015260169091015460ff1615156040909101525160a001519392505050565b6000612374616c1f565b6000610130858154811061238a5761238a6192a5565b6000918252602082206004601790920201908101549092509060016123ae88611775565b6123b89084619292565b6123c29190619308565b905060006127106123d3878461943d565b6123dd9190619492565b905082810361247c5760008881526101356020526040812054905b8181101561245e5760008a815261013560205260408120805483908110612421576124216192a5565b90600052602060002001549050600061013460008381526020019081526020016000209050612451826000617160565b60009055506001016123f8565b50600060048601819055612476906014870190618978565b5061269d565b8281101561258357600083612499670de0b6b3a76400008461943d565b6124a39190619492565b60008a815261013560205260408120549192505b8181101561257b5760008b8152610135602052604081208054839081106124e0576124e06192a5565b90600052602060002001549050600061013460008381526020019081526020016000209050612510826000617160565b6000670de0b6b3a764000086836000015461252b919061943d565b6125359190619492565b90508082600001600082825461254b9190619308565b909155505060048a018054829190600090612567908490619308565b9091555050600190930192506124b7915050565b50505061269d565b82811180156125925750818111155b156126635760008881526101356020526040812054905b8181101561260f5760008a8152610135602052604081208054839081106125d2576125d26192a5565b90600052602060002001549050600061013460008381526020019081526020016000209050612602826000617160565b60009055506001016125a9565b50600060048601819055612627906014870190618978565b61263089617299565b50600061263d8584619308565b9050808660060160000160008282546126569190619308565b9091555061269d92505050565b60405162461bcd60e51b815260206004820152600f60248201526e082dadeeadce840e8dede40d0d2ced608b1b6044820152606401611233565b60006127106126ae6103e88461943d565b6126b89190619492565b905060006126c68284619308565b905060008060006126d78d86614666565b8b5492955090935091506001600160a01b03166126f58282856169e9565b6001600160a01b038116600090815261013660205260408120805486929061271e908490619292565b90915550508954612739906001600160a01b03168e876173f7565b5060006127458f611775565b60048c01546127549190619292565b90508a60000160000160009054906101000a90046001600160a01b03166001600160a01b03168e6001600160a01b03167fbcbf239e05ac65bcc1a5612cd36d392b0a0aa8c93e027bc86e727687483424888a6040516127b591815260200190565b60405180910390a38e6000805160206198978339815191528a836040516127e6929190918252602082015260400190565b60405180910390a25060019e9d5050505050505050505050505050565b61013f54600090815b8181101561285d57600061013f828154811061282a5761282a6192a5565b6000918252602090912001546001600160a01b0316905061284a816151e3565b50508061285690619331565b905061280c565b50600191505090565b60008181526101336020526040812054610130805483928392909183919083908110612894576128946192a5565b6000918252602090912060408051610220810190915260179092020180546001600160a01b038082166101208501908152600160a01b830460ff16610140860152600160a81b90920461ffff1661016085015260018301541661018084015260028201805484929184916101a08501919061290e90619242565b80601f016020809104026020016040519081016040528092919081815260200182805461293a90619242565b80156129875780601f1061295c57610100808354040283529160200191612987565b820191906000526020600020905b81548152906001019060200180831161296a57829003601f168201915b505050918352505060038201546020808301919091526004830154604080840191909152600590930154606092830152928452815180830183526006860154815260078601548185015284840152815180830183526008860154815260098601548185015284830152815160808082018452600a8701548252600b87015482860152600c87015482850152600d87015460ff161515828401528583019190915282518082018452600e870180548252600f88015482870152601088015482860152601188018054865181890281018901909752808752939097019691959094938601939290830182828015612a9b57602002820191906000526020600020905b815481526020019060010190808311612a87575b50505091909252505050815260408051808201825260128401546001600160a01b03168152601384015460208281019190915280840191909152601484018054835181840281018401855281815293909401939091830182828015612b2957602002820191906000526020600020905b81546001600160a01b03168152600190910190602001808311612b0b575b5050509183525050601582015460208083019190915260169092015460ff16151560409182015260008981526101348352818120825160e08082018552825482526001830154958201959095526002820154938101939093526003810154606084015260048101546080840152600581015460a08401526006015460c083015291830151929350918103612bbd5742612bc3565b8260e001515b90506000612bd58360800151836112d9565b90506301e133808161271085604001518660000151612bf4919061943d565b612bfe9190619492565b612c08919061943d565b612c129190619492565b9550826060015186612c249190619292565b9750612710612c356103e882619308565b612c3f908a61943d565b612c499190619492565b965050505050509193909250565b600080600080612c6685614366565b9350612c7185615fc3565b9150612c7c85615264565b9250612c878561208f565b90509193509193565b6112d483838360405180602001604052806000815250615cbb565b6001600160a01b037f0000000000000000000000000000000000000000000000000000000000000000163003612cf35760405162461bcd60e51b8152600401611233906194b4565b7f00000000000000000000000000000000000000000000000000000000000000006001600160a01b0316612d3c6000805160206198b7833981519152546001600160a01b031690565b6001600160a01b031614612d625760405162461bcd60e51b815260040161123390619500565b612d6b82616fed565b612d7782826001616ff5565b5050565b6000806101308581548110612d9257612d926192a5565b6000918252602090912060408051610220810190915260179092020180546001600160a01b038082166101208501908152600160a01b830460ff16610140860152600160a81b90920461ffff1661016085015260018301541661018084015260028201805484929184916101a085019190612e0c90619242565b80601f0160208091040260200160405190810160405280929190818152602001828054612e3890619242565b8015612e855780601f10612e5a57610100808354040283529160200191612e85565b820191906000526020600020905b815481529060010190602001808311612e6857829003601f168201915b505050918352505060038201546020808301919091526004830154604080840191909152600590930154606092830152928452815180830183526006860154815260078601548185015284840152815180830183526008860154815260098601548185015284830152815160808082018452600a8701548252600b87015482860152600c87015482850152600d87015460ff161515828401528583019190915282518082018452600e870180548252600f88015482870152601088015482860152601188018054865181890281018901909752808752939097019691959094938601939290830182828015612f9957602002820191906000526020600020905b815481526020019060010190808311612f85575b50505091909252505050815260408051808201825260128401546001600160a01b0316815260138401546020828101919091528084019190915260148401805483518184028101840185528181529390940193909183018282801561302757602002820191906000526020600020905b81546001600160a01b03168152600190910190602001808311613009575b50505091835250506015820154602082015260169091015460ff1615156040909101529050826000613059878761742a565b50905060006130688383619292565b9050600061307782602161943d565b61308990674563918244f40000619292565b9050600061309885602161943d565b6130aa90674563918244f40000619292565b905060006130bf6130ba84617487565b6174d0565b905060006130cf6130ba84617487565b9050600061310d6130e06021617487565b6131076130ed8686617508565b6131016a295be96e64066972000000617487565b90617517565b90617526565b9050600061311e88620f424061943d565b6131289083619492565b8a5160e00151909150670de0b6b3a7640000613144828461943d565b61314e9190619492565b9f9e505050505050505050505050505050565b6000306001600160a01b037f000000000000000000000000000000000000000000000000000000000000000016146132015760405162461bcd60e51b815260206004820152603860248201527f555550535570677261646561626c653a206d757374206e6f742062652063616c60448201527f6c6564207468726f7567682064656c656761746563616c6c00000000000000006064820152608401611233565b506000805160206198b783398151915290565b600080610130848154811061322b5761322b6192a5565b906000526020600020906017020190508261324585611775565b10156132935760405162461bcd60e51b815260206004820152601a60248201527f416d6f756e7420626967676572207468616e206465706f7369740000000000006044820152606401611233565b60018101546001600160a01b031633146132bf5760405162461bcd60e51b815260040161123390619454565b6132cc62093a8042619292565b600a8201556132de62093a8042619292565b6132eb906203f480619292565b600b820155600c8101839055600d8101805460ff1916905560405183815284907fb3b9c925de3673837b40c6b4d4463a8f88dc821cd27e07f1ff6bf6abf96413a59060200160405180910390a25060019392505050565b6000806101308481548110613359576133596192a5565b6000918252602090912060408051610220810190915260179092020180546001600160a01b038082166101208501908152600160a01b830460ff16610140860152600160a81b90920461ffff1661016085015260018301541661018084015260028201805484929184916101a0850191906133d390619242565b80601f01602080910402602001604051908101604052809291908181526020018280546133ff90619242565b801561344c5780601f106134215761010080835404028352916020019161344c565b820191906000526020600020905b81548152906001019060200180831161342f57829003601f168201915b505050918352505060038201546020808301919091526004830154604080840191909152600590930154606092830152928452815180830183526006860154815260078601548185015284840152815180830183526008860154815260098601548185015284830152815160808082018452600a8701548252600b87015482860152600c87015482850152600d87015460ff161515828401528583019190915282518082018452600e870180548252600f8801548287015260108801548286015260118801805486518189028101890190975280875293909701969195909493860193929083018282801561356057602002820191906000526020600020905b81548152602001906001019080831161354c575b50505091909252505050815260408051808201825260128401546001600160a01b031681526013840154602082810191909152808401919091526014840180548351818402810184018552818152939094019390918301828280156135ee57602002820191906000526020600020905b81546001600160a01b031681526001909101906020018083116135d0575b50505091835250506015820154602082015260169091015460ff1615156040909101526080810151519091506000613626868661742a565b50905060006136358383619292565b9050600061364482602161943d565b61365690674563918244f40000619292565b9050600061366585602161943d565b61367790674563918244f40000619292565b905060006136876130ba84617487565b905060006136976130ba84617487565b905060006136a86130e06021617487565b905060006136b988620f424061943d565b6136c39083619492565b8a5160e00151909150670de0b6b3a76400006136df828461943d565b6136e99190619492565b9e9d5050505050505050505050505050565b600081815260ff60205260408120546001600160a01b0316806110ff5760405162461bcd60e51b8152602060048201526018602482015277115490cdcc8c4e881a5b9d985b1a59081d1bdad95b88125160421b6044820152606401611233565b6000806101308381548110613772576137726192a5565b6000918252602090912060408051610220810190915260179092020180546001600160a01b038082166101208501908152600160a01b830460ff16610140860152600160a81b90920461ffff1661016085015260018301541661018084015260028201805484929184916101a0850191906137ec90619242565b80601f016020809104026020016040519081016040528092919081815260200182805461381890619242565b80156138655780601f1061383a57610100808354040283529160200191613865565b820191906000526020600020905b81548152906001019060200180831161384857829003601f168201915b505050918352505060038201546020808301919091526004830154604080840191909152600590930154606092830152928452815180830183526006860154815260078601548185015284840152815180830183526008860154815260098601548185015284830152815160808082018452600a8701548252600b87015482860152600c87015482850152600d87015460ff161515828401528583019190915282518082018452600e870180548252600f8801548287015260108801548286015260118801805486518189028101890190975280875293909701969195909493860193929083018282801561397957602002820191906000526020600020905b815481526020019060010190808311613965575b50505091909252505050815260408051808201825260128401546001600160a01b03168152601384015460208281019190915280840191909152601484018054835181840281018401855281815293909401939091830182828015613a0757602002820191906000526020600020905b81546001600160a01b031681526001909101906020018083116139e9575b50505091835250506015820154602082015260169091015460ff1615156040909101529050613a3583611775565b815160c001516112e59190619292565b60006001600160a01b038216613aaf5760405162461bcd60e51b815260206004820152602960248201527f4552433732313a2061646472657373207a65726f206973206e6f7420612076616044820152683634b21037bbb732b960b91b6064820152608401611233565b506001600160a01b03166000908152610100602052604090205490565b6001600160a01b0381166000908152610136602090815260408083205461013783528184205461013890935290832054909181613b098483619292565b613b139190619292565b93509193509193565b6101305460005b81811015612d7757613b34816149a7565b613b3d81619331565b9050613b23565b6000613b4e61753e565b8260006101308281548110613b6557613b656192a5565b6000918252602090912060408051610220810190915260179092020180546001600160a01b038082166101208501908152600160a01b830460ff16610140860152600160a81b90920461ffff1661016085015260018301541661018084015260028201805484929184916101a085019190613bdf90619242565b80601f0160208091040260200160405190810160405280929190818152602001828054613c0b90619242565b8015613c585780601f10613c2d57610100808354040283529160200191613c58565b820191906000526020600020905b815481529060010190602001808311613c3b57829003601f168201915b505050918352505060038201546020808301919091526004830154604080840191909152600590930154606092830152928452815180830183526006860154815260078601548185015284840152815180830183526008860154815260098601548185015284830152815160808082018452600a8701548252600b87015482860152600c87015482850152600d87015460ff161515828401528583019190915282518082018452600e870180548252600f88015482870152601088015482860152601188018054865181890281018901909752808752939097019691959094938601939290830182828015613d6c57602002820191906000526020600020905b815481526020019060010190808311613d58575b50505091909252505050815260408051808201825260128401546001600160a01b03168152601384015460208281019190915280840191909152601484018054835181840281018401855281815293909401939091830182828015613dfa57602002820191906000526020600020905b81546001600160a01b03168152600190910190602001808311613ddc575b50505091835250506015820154602082015260169091015460ff161515604090910152610100810151909150613e645760405162461bcd60e51b815260206004820152600f60248201526e706f6f6c206e6f742061637469766560881b6044820152606401611233565b60006101308681548110613e7a57613e7a6192a5565b60009182526020808320601790920290910180546001600160a01b03168352610140909152604090912054909150851015613eeb5760405162461bcd60e51b8152602060048201526011602482015270135a5b881cdd185ad9481b9bdd081b595d607a1b6044820152606401611233565b6000613ef687611775565b6004830154613f059190619292565b8254909150613f1f906001600160a01b031633308961697b565b506000613f2d883389617597565b905086836000016004016000828254613f469190619292565b9091555050600383015415801590613f6657506003830154600484015411155b613fa85760405162461bcd60e51b8152602060048201526013602482015272115e18d959591959081c1bdbdb081b1a5b5a5d606a1b6044820152606401611233565b604051878152889033907f1449c6dd7851abc30abf37f57715f492010519147cc2652fbc38202c18a6ee909060200160405180910390a36000613fea89611775565b6004850154613ff99190619292565b60408051858152602081018390529192508a91600080516020619897833981519152910160405180910390a2509450505050506110ff600160ca55565b600080610130838154811061404d5761404d6192a5565b6000918252602090912060408051610220810190915260179092020180546001600160a01b038082166101208501908152600160a01b830460ff16610140860152600160a81b90920461ffff1661016085015260018301541661018084015260028201805484929184916101a0850191906140c790619242565b80601f01602080910402602001604051908101604052809291908181526020018280546140f390619242565b80156141405780601f1061411557610100808354040283529160200191614140565b820191906000526020600020905b81548152906001019060200180831161412357829003601f168201915b505050918352505060038201546020808301919091526004830154604080840191909152600590930154606092830152928452815180830183526006860154815260078601548185015284840152815180830183526008860154815260098601548185015284830152815160808082018452600a8701548252600b87015482860152600c87015482850152600d87015460ff161515828401528583019190915282518082018452600e870180548252600f8801548287015260108801548286015260118801805486518189028101890190975280875293909701969195909493860193929083018282801561425457602002820191906000526020600020905b815481526020019060010190808311614240575b50505091909252505050815260408051808201825260128401546001600160a01b031681526013840154602082810191909152808401919091526014840180548351818402810184018552818152939094019390918301828280156142e257602002820191906000526020600020905b81546001600160a01b031681526001909101906020018083116142c4575b50505091835250506015820154602082015260169091015460ff161515604090910152608081015151815160e001519192509061431e826177ea565b614328919061943d565b949350505050565b60006301e1338061271062093a80614348858761943d565b614352919061943d565b61435c9190619492565b6112e59190619492565b600080610130838154811061437d5761437d6192a5565b6000918252602090912060408051610220810190915260179092020180546001600160a01b038082166101208501908152600160a01b830460ff16610140860152600160a81b90920461ffff1661016085015260018301541661018084015260028201805484929184916101a0850191906143f790619242565b80601f016020809104026020016040519081016040528092919081815260200182805461442390619242565b80156144705780601f1061444557610100808354040283529160200191614470565b820191906000526020600020905b81548152906001019060200180831161445357829003601f168201915b505050918352505060038201546020808301919091526004830154604080840191909152600590930154606092830152928452815180830183526006860154815260078601548185015284840152815180830183526008860154815260098601548185015284830152815160808082018452600a8701548252600b87015482860152600c87015482850152600d87015460ff161515828401528583019190915282518082018452600e870180548252600f8801548287015260108801548286015260118801805486518189028101890190975280875293909701969195909493860193929083018282801561458457602002820191906000526020600020905b815481526020019060010190808311614570575b50505091909252505050815260408051808201825260128401546001600160a01b0316815260138401546020828101919091528084019190915260148401805483518184028101840185528181529390940193909183018282801561461257602002820191906000526020600020905b81546001600160a01b031681526001909101906020018083116145f4575b50505091835250506015820154602082015260169091015460ff16151560409091015290506127106146466103e882619308565b602083015151835160c0015161465c9190619292565b61435c919061943d565b6000806000806101308681548110614680576146806192a5565b6000918252602090912060408051610220810190915260179092020180546001600160a01b038082166101208501908152600160a01b830460ff16610140860152600160a81b90920461ffff1661016085015260018301541661018084015260028201805484929184916101a0850191906146fa90619242565b80601f016020809104026020016040519081016040528092919081815260200182805461472690619242565b80156147735780601f1061474857610100808354040283529160200191614773565b820191906000526020600020905b81548152906001019060200180831161475657829003601f168201915b505050918352505060038201546020808301919091526004830154604080840191909152600590930154606092830152928452815180830183526006860154815260078601548185015284840152815180830183526008860154815260098601548185015284830152815160808082018452600a8701548252600b87015482860152600c87015482850152600d87015460ff161515828401528583019190915282518082018452600e870180548252600f8801548287015260108801548286015260118801805486518189028101890190975280875293909701969195909493860193929083018282801561488757602002820191906000526020600020905b815481526020019060010190808311614873575b50505091909252505050815260408051808201825260128401546001600160a01b0316815260138401546020828101919091528084019190915260148401805483518184028101840185528181529390940193909183018282801561491557602002820191906000526020600020905b81546001600160a01b031681526001909101906020018083116148f7575b50505091835250506015820154602082015260169091015460ff16151560409091015260a0810151519091506001600160a01b03811661495f578594506000935091506149a09050565b60006127108360a001516020015188614978919061943d565b6149829190619492565b905060006149908289619308565b96509094509092506149a0915050565b9250925092565b600061013082815481106149bd576149bd6192a5565b6000918252602090912060408051610220810190915260179092020180546001600160a01b038082166101208501908152600160a01b830460ff16610140860152600160a81b90920461ffff1661016085015260018301541661018084015260028201805484929184916101a085019190614a3790619242565b80601f0160208091040260200160405190810160405280929190818152602001828054614a6390619242565b8015614ab05780601f10614a8557610100808354040283529160200191614ab0565b820191906000526020600020905b815481529060010190602001808311614a9357829003601f168201915b505050918352505060038201546020808301919091526004830154604080840191909152600590930154606092830152928452815180830183526006860154815260078601548185015284840152815180830183526008860154815260098601548185015284830152815160808082018452600a8701548252600b87015482860152600c87015482850152600d87015460ff161515828401528583019190915282518082018452600e870180548252600f88015482870152601088015482860152601188018054865181890281018901909752808752939097019691959094938601939290830182828015614bc457602002820191906000526020600020905b815481526020019060010190808311614bb0575b50505091909252505050815260408051808201825260128401546001600160a01b03168152601384015460208281019190915280840191909152601484018054835181840281018401855281815293909401939091830182828015614c5257602002820191906000526020600020905b81546001600160a01b03168152600190910190602001808311614c34575b50505091835250506015820154602082015260169091015460ff161515604090910152608081015160600151805191925090801580614c945750826101000151155b15614c9f5750505050565b60005b81811015614cdc57614ccc838281518110614cbf57614cbf6192a5565b602002602001015161783f565b614cd581619331565b9050614ca2565b5060008481526101356020908152604080832080548251818502810185019093528083529192909190830182828015614d3457602002820191906000526020600020905b815481526020019060010190808311614d20575b5050835193945060009250829150505b82811015614db7576000848281518110614d6057614d606192a5565b60209081029190910181015160008181526101349092526040909120805491925090614d8d8b8287612d7b565b60028301556001820154614da19086619292565b945050505080614db090619331565b9050614d44565b50806101308881548110614dcd57614dcd6192a5565b600091825260209091206010601790920201015550505050505050565b606060fe805461111490619242565b6101356020528160005260406000208181548110614e1657600080fd5b90600052602060002001600091509150505481565b6000806101308481548110614e4257614e426192a5565b6000918252602090912060179091020160018101549091506001600160a01b03163314614e815760405162461bcd60e51b815260040161123390619454565b600a81015442118015614e975750600b81015442105b8015614ea85750600d81015460ff16155b8015614eb85750600c8101548311155b8015614ec75750600a81015415155b614ee35760405162461bcd60e51b81526004016112339061954c565b600d8101805460ff191660011790556006810154831115614f0957614f0784617299565b505b6000614f1485611775565b6004830154614f239190619292565b905083826006016000016000828254614f3c9190619308565b909155505060018201548254614f5f916001600160a01b039182169116866173f7565b506000614f6b86611775565b6004840154614f7a9190619292565b60408051848152602081018390529192508791600080516020619897833981519152910160405180910390a250600195945050505050565b6000614fbc61753e565b33614fc6846136fb565b6001600160a01b0316146150125760405162461bcd60e51b815260206004820152601360248201527239b2b73232b91034b9903737ba1037bbb732b960691b6044820152606401611233565b6000838152610133602052604081205461013080549192918390811061503a5761503a6192a5565b906000526020600020906017020190506000610134600087815260200190815260200160002090504281600501541080156150785750428160060154115b6150945760405162461bcd60e51b81526004016112339061954c565b61509e8686617160565b8054600080835560058301819055600683018190556150bc85611775565b60048501546150cb9190619292565b905086156150dc576150dc88617a05565b811561510e5760048401546150f1908361696f565b6004850155835461510c906001600160a01b031633846173f7565b505b604051828152859033907f7fc4727e062e336010f2c282598ef5f14facb3de68cf8195c2f23e1454b2b74e9060200160405180910390a3600061515086611775565b600486015461515f9190619292565b60408051848152602081018390529192508791600080516020619897833981519152910160405180910390a250505060119091018054600181810183556000928352602090922001869055925050506110ff600160ca55565b61013f81815481106151c957600080fd5b6000918252602090912001546001600160a01b0316905081565b336000818152610139602090815260408083206001600160a01b03861680855292528220805490839055919261521a9190836173f7565b5060405181815233907fbf7aaef98dccc47249def450ef0fd30757d553648a28fa7cd56e3b2b052724949060200160405180910390a250600192915050565b612d77338383617a75565b600080610130838154811061527b5761527b6192a5565b6000918252602090912060408051610220810190915260179092020180546001600160a01b038082166101208501908152600160a01b830460ff16610140860152600160a81b90920461ffff1661016085015260018301541661018084015260028201805484929184916101a0850191906152f590619242565b80601f016020809104026020016040519081016040528092919081815260200182805461532190619242565b801561536e5780601f106153435761010080835404028352916020019161536e565b820191906000526020600020905b81548152906001019060200180831161535157829003601f168201915b505050918352505060038201546020808301919091526004830154604080840191909152600590930154606092830152928452815180830183526006860154815260078601548185015284840152815180830183526008860154815260098601548185015284830152815160808082018452600a8701548252600b87015482860152600c87015482850152600d87015460ff161515828401528583019190915282518082018452600e870180548252600f8801548287015260108801548286015260118801805486518189028101890190975280875293909701969195909493860193929083018282801561548257602002820191906000526020600020905b81548152602001906001019080831161546e575b50505091909252505050815260408051808201825260128401546001600160a01b0316815260138401546020828101919091528084019190915260148401805483518184028101840185528181529390940193909183018282801561551057602002820191906000526020600020905b81546001600160a01b031681526001909101906020018083116154f2575b50505091835250506015820154602082015260169091015460ff1615156040918201529051015161ffff169392505050565b600080600080610130858154811061555c5761555c6192a5565b6000918252602090912060408051610220810190915260179092020180546001600160a01b038082166101208501908152600160a01b830460ff16610140860152600160a81b90920461ffff1661016085015260018301541661018084015260028201805484929184916101a0850191906155d690619242565b80601f016020809104026020016040519081016040528092919081815260200182805461560290619242565b801561564f5780601f106156245761010080835404028352916020019161564f565b820191906000526020600020905b81548152906001019060200180831161563257829003601f168201915b505050918352505060038201546020808301919091526004830154604080840191909152600590930154606092830152928452815180830183526006860154815260078601548185015284840152815180830183526008860154815260098601548185015284830152815160808082018452600a8701548252600b87015482860152600c87015482850152600d87015460ff161515828401528583019190915282518082018452600e870180548252600f8801548287015260108801548286015260118801805486518189028101890190975280875293909701969195909493860193929083018282801561576357602002820191906000526020600020905b81548152602001906001019080831161574f575b50505091909252505050815260408051808201825260128401546001600160a01b031681526013840154602082810191909152808401919091526014840180548351818402810184018552818152939094019390918301828280156157f157602002820191906000526020600020905b81546001600160a01b031681526001909101906020018083116157d3575b5050509183525050601582015460208083019190915260169092015460ff1615156040918201526060909201518051918101519201519097919650945092505050565b6000610130848154811061584a5761584a6192a5565b6000918252602090912060179091020160018101549091506001600160a01b031633146158895760405162461bcd60e51b815260040161123390619454565b600061589485611775565b60048301546158a39190619292565b82549091506158bd906001600160a01b031633308761697b565b50838260060160000160008282546158d59190619292565b90915550600090506158e686611775565b60048401546158f59190619292565b9050615902868587616e53565b5060408051838152602081018390528791600080516020619897833981519152910160405180910390a2505050505050565b600080600080610130858154811061594e5761594e6192a5565b6000918252602090912060408051610220810190915260179092020180546001600160a01b038082166101208501908152600160a01b830460ff16610140860152600160a81b90920461ffff1661016085015260018301541661018084015260028201805484929184916101a0850191906159c890619242565b80601f01602080910402602001604051908101604052809291908181526020018280546159f490619242565b8015615a415780601f10615a1657610100808354040283529160200191615a41565b820191906000526020600020905b815481529060010190602001808311615a2457829003601f168201915b505050918352505060038201546020808301919091526004830154604080840191909152600590930154606092830152928452815180830183526006860154815260078601548185015284840152815180830183526008860154815260098601548185015284830152815160808082018452600a8701548252600b87015482860152600c87015482850152600d87015460ff161515828401528583019190915282518082018452600e870180548252600f88015482870152601088015482860152601188018054865181890281018901909752808752939097019691959094938601939290830182828015615b5557602002820191906000526020600020905b815481526020019060010190808311615b41575b50505091909252505050815260408051808201825260128401546001600160a01b03168152601384015460208281019190915280840191909152601484018054835181840281018401855281815293909401939091830182828015615be357602002820191906000526020600020905b81546001600160a01b03168152600190910190602001808311615bc5575b50505091835250506015820154602082015260169091015460ff161515604091820152815160a0810151910151919250615c209161ffff16614330565b60409091015180516020909101519196909550909350915050565b6034546001600160a01b03163314615ca45760405162461bcd60e51b815260206004820152602660248201527f6f6e6c792070656e64696e67206f776e65722063616e2061636365707420747260448201526530b739b332b960d11b6064820152608401611233565b603454615cb9906001600160a01b0316617b44565b565b615cc53383616a3a565b615ce15760405162461bcd60e51b8152600401611233906192bb565b615ced84848484617ba1565b50505050565b6000806101308381548110615d0a57615d0a6192a5565b6000918252602090912060179091020160018101549091506001600160a01b0316331480615d4257506033546001600160a01b031633145b615d5e5760405162461bcd60e51b815260040161123390619454565b601681015460ff16615da45760405162461bcd60e51b815260206004820152600f60248201526e506f6f6c206e6f742061637469766560881b6044820152606401611233565b60168101805460ff1916905542601590910155506001919050565b600054610100900460ff1615808015615ddf5750600054600160ff909116105b80615df95750303b158015615df9575060005460ff166001145b615e5c5760405162461bcd60e51b815260206004820152602e60248201527f496e697469616c697a61626c653a20636f6e747261637420697320616c72656160448201526d191e481a5b9a5d1a585b1a5e995960921b6064820152608401611233565b6000805460ff191660011790558015615e7f576000805461ff0019166101001790555b615e87617bd4565b61013a80546001600160a01b0319166001600160a01b0384161790558015612d77576000805461ff0019169055604051600181527f7f26b83ff96e1f2b6a682f133852f6798a09c465da95921460cefb38474024989060200160405180910390a15050565b6060615ef7826168a1565b6000615f0e60408051602081019091526000815290565b90506000815111615f2e57604051806020016040528060008152506112e5565b80615f3884617c03565b604051602001615f49929190619595565b6040516020818303038152906040529392505050565b6000615f69616c1f565b6000615f7484613acc565b5050506001600160a01b0385166000818152610136602090815260408083208390556101378252808320839055610138909152812055909150615fb89084836173f7565b506001949350505050565b6000806101308381548110615fda57615fda6192a5565b6000918252602090912060408051610220810190915260179092020180546001600160a01b038082166101208501908152600160a01b830460ff16610140860152600160a81b90920461ffff1661016085015260018301541661018084015260028201805484929184916101a08501919061605490619242565b80601f016020809104026020016040519081016040528092919081815260200182805461608090619242565b80156160cd5780601f106160a2576101008083540402835291602001916160cd565b820191906000526020600020905b8154815290600101906020018083116160b057829003601f168201915b505050918352505060038201546020808301919091526004830154604080840191909152600590930154606092830152928452815180830183526006860154815260078601548185015284840152815180830183526008860154815260098601548185015284830152815160808082018452600a8701548252600b87015482860152600c87015482850152600d87015460ff161515828401528583019190915282518082018452600e870180548252600f880154828701526010880154828601526011880180548651818902810189019097528087529390970196919590949386019392908301828280156161e157602002820191906000526020600020905b8154815260200190600101908083116161cd575b50505091909252505050815260408051808201825260128401546001600160a01b0316815260138401546020828101919091528084019190915260148401805483518184028101840185528181529390940193909183018282801561626f57602002820191906000526020600020905b81546001600160a01b03168152600190910190602001808311616251575b50505091835250506015820154602082015260169091015460ff1615156040909101525160c001519392505050565b600081815261013c602090815260408083205461013b83528184208185528352818420548251637b4f102360e11b8152925191946001600160a01b0390911693849363f69e204693600480830194919283900301908290875af1158015616309573d6000803e3d6000fd5b505050506040513d601f19601f82011682018060405250810190615ced91906195c4565b6000616337616c1f565b61013f5460005b81811015611cd757600061013f828154811061635c5761635c6192a5565b6000918252602090912001546001600160a01b0316905061637d8186615f5f565b50508061638990619331565b905061633e565b616398616c1f565b6001600160a01b0381166163fd5760405162461bcd60e51b815260206004820152602660248201527f4f776e61626c653a206e6577206f776e657220697320746865207a65726f206160448201526564647265737360d01b6064820152608401611233565b603480546001600160a01b0319166001600160a01b0392909216919091179055565b61642761753e565b616432816001617160565b61208c600160ca55565b6101305460005b81811015612d77576164548161629e565b61645d81619331565b9050616443565b600061646e616c1f565b6001600160a01b038616600090815261013e602052604090205460ff166164cf5760405162461bcd60e51b81526020600482015260156024820152741d1bdad95b881b9bdd081dda1a5d195b1a5cdd1959605a1b6044820152606401611233565b6127108211156165195760405162461bcd60e51b81526020600482015260156024820152740e4cacccae4e4c2d840cccaca40e8dede40d0d2ced605b1b6044820152606401611233565b60408051600481526024810182526020810180516001600160e01b031663313ce56760e01b17905290516000916001600160a01b0389169161655b91906195dd565b600060405180830381855afa9150503d8060008114616596576040519150601f19603f3d011682016040523d82523d6000602084013e61659b565b606091505b509150506000818060200190518101906165b591906195f9565b905060068160ff1610156166045760405162461bcd60e51b815260206004820152601660248201527524b73b30b634b2103232b1b4b6b0b6103932ba3ab93760511b6044820152606401611233565b61660c618996565b80516001600160a01b03808b16909152815160ff80851660209283015283518b8416606091820152845160809081018c905260a0860180518c871690525184018a905261013080546001810182556000919091528651805160179092027f2f605e086faac1d93117bbfbc18835d434e9405fadc1ca66faf4b864746daf348101805497830151604084015161ffff16600160a81b0261ffff60a81b1991909816600160a01b026001600160a81b0319909916948a16949094179790971792909216949094178555918301517f2f605e086faac1d93117bbfbc18835d434e9405fadc1ca66faf4b864746daf3583018054919096166001600160a01b0319919091161790945592810151849383917f2f605e086faac1d93117bbfbc18835d434e9405fadc1ca66faf4b864746daf3690910190616748908261966a565b5060a0820151600382015560c0820151600482015560e0909101516005909101556020828101518051600684015581015160078301556040808401518051600885015582015160098401556060808501518051600a86015580840151600b86015580830151600c860155810151600d8501805460ff191691151591909117905560808501518051600e860190815581850151600f870155928101516010860155908101518051919361680292601187019290910190618ad2565b50505060a082015180516012830180546001600160a01b0319166001600160a01b03909216919091179055602090810151601383015560c0830151805161684f9260148501920190618b1d565b5060e08201516015820155610100909101516016909101805460ff19169115159190911790556101305461688590600190619308565b9998505050505050505050565b6001600160a01b03163b151590565b600081815260ff60205260409020546001600160a01b031661208c5760405162461bcd60e51b8152602060048201526018602482015277115490cdcc8c4e881a5b9d985b1a59081d1bdad95b88125160421b6044820152606401611233565b60008181526101016020526040902080546001600160a01b0319166001600160a01b0384169081179091558190616936826136fb565b6001600160a01b03167f8c5be1e5ebec7d5bd14f71427d1e84f3dd0314c0f7b2291e5b200ac8c7c3b92560405160405180910390a45050565b60006112e58284619308565b6040516001600160a01b0380851660248301528316604482015260648101829052600090615fb89086906323b872dd60e01b906084015b60408051601f198184030181529190526020810180516001600160e01b03166001600160e01b031990931692909217909152617c94565b6001600160a01b038316156112d4576001600160a01b0380841660009081526101396020908152604080832093861683529290529081208054839290616a30908490619292565b9091555050505050565b600080616a46836136fb565b9050806001600160a01b0316846001600160a01b03161480616a8e57506001600160a01b038082166000908152610102602090815260408083209388168352929052205460ff165b806143285750836001600160a01b0316616aa784611197565b6001600160a01b031614949350505050565b826001600160a01b0316616acc826136fb565b6001600160a01b031614616af25760405162461bcd60e51b81526004016112339061972a565b6001600160a01b038216616b545760405162461bcd60e51b8152602060048201526024808201527f4552433732313a207472616e7366657220746f20746865207a65726f206164646044820152637265737360e01b6064820152608401611233565b826001600160a01b0316616b67826136fb565b6001600160a01b031614616b8d5760405162461bcd60e51b81526004016112339061972a565b60008181526101016020908152604080832080546001600160a01b03199081169091556001600160a01b03878116808652610100855283862080546000190190559087168086528386208054600101905586865260ff90945282852080549092168417909155905184937fddf252ad1be2c89b69c2b068fc378daa952ba7f163c4a11628f55a4df523b3ef91a4505050565b6033546001600160a01b03163314615cb95760405162461bcd60e51b815260206004820181905260248201527f4f776e61626c653a2063616c6c6572206973206e6f7420746865206f776e65726044820152606401611233565b60006101308381548110616c8f57616c8f6192a5565b600091825260208220601791909102016008810154600382015482549294508592616cc59190600160a81b900461ffff16614330565b616ccf9190619308565b616cd99190619292565b60018301548354919250616cfb916001600160a01b039081169116308461697b565b506000612710616d0d6103e88461943d565b616d179190619492565b905081836008016000016000828254616d309190619292565b90915550600090508080616d448885614666565b885492955090935091506001600160a01b0316616d628282856169e9565b6001600160a01b0381166000908152610137602052604081208054869290616d8b908490619292565b9091555060009050616d9d8688619308565b905080886008016001016000828254616db69190619292565b90915550506040518781528a907fadb049ad2d09be3db90459a16aef1ad0a4d89e8fdcc1ade9429d6cc55abbcd2b9060200160405180910390a250505050505050505050565b6000670eb5e06245ea0000616e19670de0b6b3a76400008461943d565b616e239190619492565b9050806101308481548110616e3a57616e3a6192a5565b6000918252602090912060056017909202010155505050565b6000806101308581548110616e6a57616e6a6192a5565b90600052602060002090601702019050600084604051602001616e8d9190618c58565b60408051601f198184030181529181528151602092830120600089815261013c909352912054909150808214616fe3576000616ec888617299565b90506000616ed68989617d66565b90506001600160a01b03811615616fc35780616ef28389619292565b600687018054600090616f06908490619308565b90915550616f1690508389619292565b600787018054600090616f2a908490619292565b90915550616f50905082616f3e858b619292565b88546001600160a01b031691906173f7565b5060405163d33b0aa760e01b8152600160048201526001600160a01b0382169063d33b0aa7906024016020604051808303816000875af1158015616f98573d6000803e3d6000fd5b505050506040513d601f19601f82011682018060405250810190616fbc91906195c4565b5050616fe0565b86856006016000016000828254616fda9190619292565b90915550505b50505b5050509392505050565b61208c616c1f565b7f4910fdfa16fed3260ed0e7147f7cc6da11a60208b5b9406d12a635614ffd91435460ff1615617028576112d483617eb4565b826001600160a01b03166352d1902d6040518163ffffffff1660e01b8152600401602060405180830381865afa925050508015617082575060408051601f3d908101601f1916820190925261707f918101906195c4565b60015b6170e55760405162461bcd60e51b815260206004820152602e60248201527f45524331393637557067726164653a206e657720696d706c656d656e7461746960448201526d6f6e206973206e6f74205555505360901b6064820152608401611233565b6000805160206198b783398151915281146171545760405162461bcd60e51b815260206004820152602960248201527f45524331393637557067726164653a20756e737570706f727465642070726f786044820152681a58589b195555525160ba1b6064820152608401611233565b506112d4838383617f50565b60008281526101336020526040812054610130805491929183908110617188576171886192a5565b600091825260208083208784526101349091526040832060179092020192509080806171b388612866565b925092509250866172015784601501546000036171d057426171d6565b84601501545b8460040181905550808460030160008282546171f29190619292565b90915550505050505050505050565b6008850154831115617217576172178684616c79565b8215611f7b5760006003850181905560158601549003617237574261723d565b84601501545b6004850155600885018054849190600090617259908490619308565b9091555050600985018054839190600090617275908490619308565b90915550611f799050617287896136fb565b86546001600160a01b031690846173f7565b60008061013083815481106172b0576172b06192a5565b6000918252602080832086845261013c9091526040832054601790920201925080156173ef57600085815261013b602090815260408083208484528252808320548151637f1f087360e01b815291516001600160a01b0390911693928492637f1f08739260048083019392829003018187875af1158015617335573d6000803e3d6000fd5b505050506040513d601f19601f8201168201806040525081019061735991906195c4565b60405163f840cb8360e01b815260016004820152602481018290529091506001600160a01b0383169063f840cb83906044016020604051808303816000875af11580156173aa573d6000803e3d6000fd5b505050506040513d601f19601f820116820180604052508101906173ce91906195c4565b9350838560060160000160008282546173e79190619292565b909155505050505b509392505050565b6040516001600160a01b038316602482015260448101829052600090611cd790859063a9059cbb60e01b906064016169b2565b6000806101308481548110617441576174416192a5565b6000918252602090912060036017909202010154617467670de0b6b3a76400008561943d565b6174719190619492565b905061747e81600561943d565b91509250929050565b600061749d670de0b6b3a7640000600019619492565b8211156174c0576040516322630c4560e01b815260048101839052602401611233565b670de0b6b3a764000082026110ff565b60006110ff6714057b7ef767814f670de0b6b3a76400006174f66174f386617f75565b90565b02816175045761750461947c565b0490565b60006112e56174f38385619308565b60006112e56174f384846180ad565b60006112e56174f384670de0b6b3a764000085618161565b600260ca54036175905760405162461bcd60e51b815260206004820152601f60248201527f5265656e7472616e637947756172643a207265656e7472616e742063616c6c006044820152606401611233565b600260ca55565b60006001600160a01b0383166175ef5760405162461bcd60e51b815260206004820152601f60248201527f45524332303a206d696e7420746f20746865207a65726f2061646472657373006044820152606401611233565b60006175fb8584613342565b9050600061760885618235565b905061764a6040518060e00160405280600081526020016000815260200160008152602001600081526020016000815260200160008152602001600081525090565b8481526000617659888761742a565b509050674563918244f40000816101308a8154811061767a5761767a6192a5565b9060005260206000209060170201600e01600201546176999190619292565b11156176dd5760405162461bcd60e51b81526020600482015260136024820152721608189bdd5b99185c9e481d9a5bdb185d1959606a1b6044820152606401611233565b6020808301828152604080850187815242608087019081526000888152610134865283812088518155945160018087019190915592516002860155606088015160038601559051600485015560a0870151600585015560c08701516006909401939093558b83526101358452818320805491820181558352838320018690558582526101339092522088905561013080548291908a908110617781576177816192a5565b9060005260206000209060170201600e0160020160008282546177a49190619292565b925050819055506177dd886101308a815481106177c3576177c36192a5565b9060005260206000209060170201600e01600201546183dc565b5091979650505050505050565b600080670de0b6b3a764000061780884670928ca80cfc2000061943d565b6178129190619492565b6178249067016345785d8a0000619292565b90506112e5816ec097ce7bc90715b34b9f1000000000619492565b60008181526101336020908152604080832054808452610135835281842080548351818602810186019094528084529194939091908301828280156178a357602002820191906000526020600020905b81548152602001906001019080831161788f575b5050835193945060009250829150505b828110156178f357858482815181106178ce576178ce6192a5565b6020026020010151036178e3578091506178f3565b6178ec81619331565b90506178b3565b508181106179435760405162461bcd60e51b815260206004820152601860248201527f546f6b656e206e6f7420666f756e6420696e20617272617900000000000000006044820152606401611233565b805b617950600184619308565b8110156179a85783617963826001619292565b81518110617973576179736192a5565b602002602001015184828151811061798d5761798d6192a5565b60209081029190910101526179a181619331565b9050617945565b5060008481526101356020908152604090912084516179c992860190618ad2565b506000848152610135602052604090208054806179e8576179e861931b565b600190038181906000526020600020016000905590555050505050565b60008181526101336020908152604080832054610134835292819020815160e081018352815481526001820154938101939093526002810154918301919091526003810154606083015260048101546080830152600581015460a08301526006015460c08201526112d483618410565b816001600160a01b0316836001600160a01b031603617ad65760405162461bcd60e51b815260206004820152601960248201527f4552433732313a20617070726f766520746f2063616c6c6572000000000000006044820152606401611233565b6001600160a01b0383811660008181526101026020908152604080832094871680845294825291829020805460ff191686151590811790915591519182527f17307eab39ab6107e8899845ad3d59bd9653f200f220920489ca2b5937696c31910160405180910390a3505050565b603380546001600160a01b038381166001600160a01b03198084168217909455603480549094169093556040519116919082907f8be0079c531659141344cd1fd0a4f28419497f9722a3daafe3b4186f6b6457e090600090a35050565b617bac848484616ab9565b617bb8848484846184a7565b615ced5760405162461bcd60e51b81526004016112339061976f565b600054610100900460ff16617bfb5760405162461bcd60e51b8152600401611233906197c1565b615cb96185a5565b60606000617c10836185d5565b600101905060008167ffffffffffffffff811115617c3057617c30618edf565b6040519080825280601f01601f191660200182016040528015617c5a576020820181803683370190505b5090508181016020015b600019016f181899199a1a9b1b9c1cb0b131b232b360811b600a86061a8153600a8504945084156173ef57617c64565b6000617ce9826040518060400160405280602081526020017f5361666545524332303a206c6f772d6c6576656c2063616c6c206661696c6564815250856001600160a01b03166186ad9092919063ffffffff16565b8051909150156112d45780806020019051810190617d07919061980c565b6112d45760405162461bcd60e51b815260206004820152602a60248201527f5361666545524332303a204552433230206f7065726174696f6e20646964206e6044820152691bdd081cdd58d8d9595960b21b6064820152608401611233565b600080600083604051602001617d7c9190618c58565b60408051601f198184030181529181528151602092830120600088815261013b84528281208282529093529120549091506001600160a01b031680617e365761013a54604051632f3802cf60e11b81526001600160a01b0390911690635e70059e90617dec908890600401618c58565b6020604051808303816000875af1158015617e0b573d6000803e3d6000fd5b505050506040513d601f19601f82011682018060405250810190617e2f9190619829565b9250617e40565b92506110ff915050565b6001600160a01b038316617e5a57600093505050506110ff565b50600085815261013b60209081526040808320848452825280832080546001600160a01b0319166001600160a01b03871690811790915588845261013c83528184209490945592825261013d905220939093555090919050565b6001600160a01b0381163b617f215760405162461bcd60e51b815260206004820152602d60248201527f455243313936373a206e657720696d706c656d656e746174696f6e206973206e60448201526c1bdd08184818dbdb9d1c9858dd609a1b6064820152608401611233565b6000805160206198b783398151915280546001600160a01b0319166001600160a01b0392909216919091179055565b617f59836186bc565b600082511180617f665750805b156112d457615ced83836186fc565b600081670de0b6b3a7640000811015617fa457604051633621413760e21b815260048101849052602401611233565b6000618030670de0b6b3a7640000830460016fffffffffffffffffffffffffffffffff821160071b91821c67ffffffffffffffff811160061b90811c63ffffffff811160051b90811c61ffff811160041b90811c60ff8111600390811b91821c600f811160021b90811c918211871b91821c969096119490961792909217171791909117919091171790565b9050670de0b6b3a7640000810282821c670de0b6b3a763ffff19810161805c57815b9695505050505050565b671bc16d674ec800006706f05b59d3b200005b801561809f57670de0b6b3a7640000838002049250818310618097579283019260019290921c915b60011c61806f565b50825b979650505050505050565b60008080600019848609848602925082811083820303915050670de0b6b3a764000081106180f85760405163090638d560e41b81526004810186905260248101859052604401611233565b6000670de0b6b3a7640000858709905081600003618124575050670de0b6b3a7640000900490506110ff565b620400008184030492109003600160ee1b02177faccb18165bd6fe31ae1cf318dc5b51eee0e1ba569b88cd74c1773b91fac1066902905092915050565b600080806000198587098587029250828110838203039150508060000361819b578382816181915761819161947c565b04925050506112e5565b8381106181cc576040516307639aaf60e41b8152600481018790526024810186905260448101859052606401611233565b60008486880960026001871981018816978890046003810283188082028403028082028403028082028403028082028403028082028403029081029092039091026000889003889004909101858311909403939093029303949094049190911702949350505050565b6000806101036000815461824890619331565b918290555090506001600160a01b0383166182a55760405162461bcd60e51b815260206004820181905260248201527f4552433732313a206d696e7420746f20746865207a65726f20616464726573736044820152606401611233565b600081815260ff60205260409020546001600160a01b03161561830a5760405162461bcd60e51b815260206004820152601c60248201527f4552433732313a20746f6b656e20616c7265616479206d696e746564000000006044820152606401611233565b600081815260ff60205260409020546001600160a01b03161561836f5760405162461bcd60e51b815260206004820152601c60248201527f4552433732313a20746f6b656e20616c7265616479206d696e746564000000006044820152606401611233565b6001600160a01b0383166000818152610100602090815260408083208054600101905584835260ff90915280822080546001600160a01b0319168417905551839291907fddf252ad1be2c89b69c2b068fc378daa952ba7f163c4a11628f55a4df523b3ef908290a46110ff565b60008161013084815481106183f3576183f36192a5565b60009182526020909120600e601790920201015550600192915050565b600061841b826136fb565b9050618426826136fb565b60008381526101016020908152604080832080546001600160a01b03199081169091556001600160a01b0385168085526101008452828520805460001901905587855260ff909352818420805490911690555192935084927fddf252ad1be2c89b69c2b068fc378daa952ba7f163c4a11628f55a4df523b3ef908390a45050565b60006001600160a01b0384163b1561859d57604051630a85bd0160e11b81526001600160a01b0385169063150b7a02906184eb903390899088908890600401619846565b6020604051808303816000875af1925050508015618526575060408051601f3d908101601f1916820190925261852391810190619879565b60015b618583573d808015618554576040519150601f19603f3d011682016040523d82523d6000602084013e618559565b606091505b50805160000361857b5760405162461bcd60e51b81526004016112339061976f565b805181602001fd5b6001600160e01b031916630a85bd0160e11b149050614328565b506001614328565b600054610100900460ff166185cc5760405162461bcd60e51b8152600401611233906197c1565b615cb933617b44565b60008072184f03e93ff9f4daa797ed6e38ed64bf6a1f0160401b83106186145772184f03e93ff9f4daa797ed6e38ed64bf6a1f0160401b830492506040015b6d04ee2d6d415b85acef81000000008310618640576d04ee2d6d415b85acef8100000000830492506020015b662386f26fc10000831061865e57662386f26fc10000830492506010015b6305f5e1008310618676576305f5e100830492506008015b612710831061868a57612710830492506004015b6064831061869c576064830492506002015b600a83106110ff5760010192915050565b606061432884846000856187f0565b6186c581617eb4565b6040516001600160a01b038216907fbc7cd75a20ee27fd9adebab32041f755214dbc6bffa90cc0225b39da2e5c2d3b90600090a250565b60606001600160a01b0383163b6187645760405162461bcd60e51b815260206004820152602660248201527f416464726573733a2064656c65676174652063616c6c20746f206e6f6e2d636f6044820152651b9d1c9858dd60d21b6064820152608401611233565b600080846001600160a01b03168460405161877f91906195dd565b600060405180830381855af49150503d80600081146187ba576040519150601f19603f3d011682016040523d82523d6000602084013e6187bf565b606091505b50915091506187e782826040518060600160405280602781526020016198d7602791396188c0565b95945050505050565b6060824710156188515760405162461bcd60e51b815260206004820152602660248201527f416464726573733a20696e73756666696369656e742062616c616e636520666f6044820152651c8818d85b1b60d21b6064820152608401611233565b600080866001600160a01b0316858760405161886d91906195dd565b60006040518083038185875af1925050503d80600081146188aa576040519150601f19603f3d011682016040523d82523d6000602084013e6188af565b606091505b50915091506180a2878383876188d9565b606083156188cf5750816112e5565b6112e5838361894e565b60608315618948578251600003618941576001600160a01b0385163b6189415760405162461bcd60e51b815260206004820152601d60248201527f416464726573733a2063616c6c20746f206e6f6e2d636f6e74726163740000006044820152606401611233565b5081614328565b61432883835b81511561895e5781518083602001fd5b8060405162461bcd60e51b81526004016112339190618c58565b508054600082559060005260206000209081019061208c9190618b72565b6040805161022081019091526000610120820181815261014083018290526101608301829052610180830182905260606101a08401526101c083018290526101e0830182905261020083019190915281908152602001618a09604051806040016040528060008152602001600081525090565b8152602001618a2b604051806040016040528060008152602001600081525090565b8152602001618a5d60405180608001604052806000815260200160008152602001600081526020016000151581525090565b8152602001618a8d6040518060800160405280600081526020016000815260200160008152602001606081525090565b8152602001618ab8604051806040016040528060006001600160a01b03168152602001600081525090565b815260606020820181905260006040830181905291015290565b828054828255906000526020600020908101928215618b0d579160200282015b82811115618b0d578251825591602001919060010190618af2565b50618b19929150618b72565b5090565b828054828255906000526020600020908101928215618b0d579160200282015b82811115618b0d57825182546001600160a01b0319166001600160a01b03909116178255602090920191600190910190618b3d565b5b80821115618b195760008155600101618b73565b6001600160a01b038116811461208c57600080fd5b60008060408385031215618baf57600080fd5b8235618bba81618b87565b91506020830135618bca81618b87565b809150509250929050565b6001600160e01b03198116811461208c57600080fd5b600060208284031215618bfd57600080fd5b81356112e581618bd5565b60005b83811015618c23578181015183820152602001618c0b565b50506000910152565b60008151808452618c44816020860160208601618c08565b601f01601f19169290920160200192915050565b6020815260006112e56020830184618c2c565b60008060408385031215618c7e57600080fd5b50508035926020909101359150565b600060208284031215618c9f57600080fd5b5035919050565b60008060408385031215618cb957600080fd5b8235618cc481618b87565b946020939093013593505050565b60006080830182518452602080840151818601526040840151604086015260608401516080606087015282815180855260a0880191508383019450600092505b80831015618d325784518252938301936001929092019190830190618d12565b509695505050505050565b6101c080825289516001600160a01b039081169183019190915260208a015160ff166101e083015260408a015161ffff1661020083015260608a0151166102208201526080890151610100610240830152600090618d9f6102c0840182618c2c565b905060a08b015161026084015260c08b015161028084015260e08b01516102a0840152618dd9602084018b80518252602090810151910152565b8851606084015260208901516080840152875160a0840152602088015160c0840152604088015160e084015260608801511515610100840152828103610120840152618e258188618cd2565b86516001600160a01b031661014085015260208701516101608501529150618e4a9050565b836101808301526168856101a083018415159052565b600080600060608486031215618e7557600080fd5b8335618e8081618b87565b92506020840135618e9081618b87565b929592945050506040919091013590565b801515811461208c57600080fd5b600080600060608486031215618ec457600080fd5b8335618ecf81618b87565b92506020840135618e9081618ea1565b634e487b7160e01b600052604160045260246000fd5b600082601f830112618f0657600080fd5b813567ffffffffffffffff80821115618f2157618f21618edf565b604051601f8301601f19908116603f01168101908282118183101715618f4957618f49618edf565b81604052838152866020858801011115618f6257600080fd5b836020870160208301376000602085830101528094505050505092915050565b600080600080600060a08688031215618f9a57600080fd5b8535945060208601359350604086013561ffff81168114618fba57600080fd5b925060608601359150608086013567ffffffffffffffff811115618fdd57600080fd5b618fe988828901618ef5565b9150509295509295909350565b60006020828403121561900857600080fd5b81356112e581618b87565b60008060006060848603121561902857600080fd5b833592506020840135618e9081618b87565b6000806040838503121561904d57600080fd5b823561905881618b87565b9150602083013567ffffffffffffffff81111561907457600080fd5b61908085828601618ef5565b9150509250929050565b60008060006060848603121561909f57600080fd5b505081359360208301359350604090920135919050565b600080604083850312156190c957600080fd5b823591506020830135618bca81618ea1565b600080604083850312156190ee57600080fd5b82356190f981618b87565b91506020830135618bca81618ea1565b60008060006060848603121561911e57600080fd5b8335925060208401359150604084013567ffffffffffffffff81111561914357600080fd5b61914f86828701618ef5565b9150509250925092565b6000806000806080858703121561916f57600080fd5b843561917a81618b87565b9350602085013561918a81618b87565b925060408501359150606085013567ffffffffffffffff8111156191ad57600080fd5b6191b987828801618ef5565b91505092959194509250565b600080600080600060a086880312156191dd57600080fd5b85356191e881618b87565b945060208601356191f881618b87565b9350604086013567ffffffffffffffff81111561921457600080fd5b61922088828901618ef5565b935050606086013561923181618b87565b949793965091946080013592915050565b600181811c9082168061925657607f821691505b60208210810361927657634e487b7160e01b600052602260045260246000fd5b50919050565b634e487b7160e01b600052601160045260246000fd5b808201808211156110ff576110ff61927c565b634e487b7160e01b600052603260045260246000fd5b6020808252602d908201527f4552433732313a2063616c6c6572206973206e6f7420746f6b656e206f776e6560408201526c1c881bdc88185c1c1c9bdd9959609a1b606082015260800190565b818103818111156110ff576110ff61927c565b634e487b7160e01b600052603160045260246000fd5b6000600182016193435761934361927c565b5060010190565b600181815b8085111561938557816000190482111561936b5761936b61927c565b8085161561937857918102915b93841c939080029061934f565b509250929050565b60008261939c575060016110ff565b816193a9575060006110ff565b81600181146193bf57600281146193c9576193e5565b60019150506110ff565b60ff8411156193da576193da61927c565b50506001821b6110ff565b5060208310610133831016604e8410600b8410161715619408575081810a6110ff565b619412838361934a565b80600019048211156194265761942661927c565b029392505050565b60006112e560ff84168361938d565b80820281158282048414176110ff576110ff61927c565b6020808252600e908201526d139bdd08185d5d1a1bdc9a5e995960921b604082015260600190565b634e487b7160e01b600052601260045260246000fd5b6000826194af57634e487b7160e01b600052601260045260246000fd5b500490565b6020808252602c908201527f46756e6374696f6e206d7573742062652063616c6c6564207468726f7567682060408201526b19195b1959d85d1958d85b1b60a21b606082015260800190565b6020808252602c908201527f46756e6374696f6e206d7573742062652063616c6c6564207468726f7567682060408201526b6163746976652070726f787960a01b606082015260800190565b60208082526029908201527f54696d656c6f636b206e6f7420736574206f72206e6f7420636f6d706c6574656040820152686420696e2074696d6560b81b606082015260800190565b600083516195a7818460208801618c08565b8351908301906195bb818360208801618c08565b01949350505050565b6000602082840312156195d657600080fd5b5051919050565b600082516195ef818460208701618c08565b9190910192915050565b60006020828403121561960b57600080fd5b815160ff811681146112e557600080fd5b601f8211156112d457600081815260208120601f850160051c810160208610156196435750805b601f850160051c820191505b818110156196625782815560010161964f565b505050505050565b815167ffffffffffffffff81111561968457619684618edf565b619698816196928454619242565b8461961c565b602080601f8311600181146196cd57600084156196b55750858301515b600019600386901b1c1916600185901b178555619662565b600085815260208120601f198616915b828110156196fc578886015182559484019460019091019084016196dd565b508582101561971a5787850151600019600388901b60f8161c191681555b5050505050600190811b01905550565b60208082526025908201527f4552433732313a207472616e736665722066726f6d20696e636f72726563742060408201526437bbb732b960d91b606082015260800190565b60208082526032908201527f4552433732313a207472616e7366657220746f206e6f6e20455243373231526560408201527131b2b4bb32b91034b6b83632b6b2b73a32b960711b606082015260800190565b6020808252602b908201527f496e697469616c697a61626c653a20636f6e7472616374206973206e6f74206960408201526a6e697469616c697a696e6760a81b606082015260800190565b60006020828403121561981e57600080fd5b81516112e581618ea1565b60006020828403121561983b57600080fd5b81516112e581618b87565b6001600160a01b038581168252841660208201526040810183905260806060820181905260009061805290830184618c2c565b60006020828403121561988b57600080fd5b81516112e581618bd556fea3ea4fb8dee4d414198cb197af6eae4fe483c1a0b849dc50e53b9bf1a60e2166360894a13ba1a3210667c828492db98dca3e2076cc3735a920a3ca505d382bbc416464726573733a206c6f772d6c6576656c2064656c65676174652063616c6c206661696c6564a26469706673582212207870dbf2aa46fa9801721a5f1cf24666012729d3a44e693b99087ce2be0bd01264736f6c63430008110033496e697469616c697a61626c653a20636f6e7472616374206973206e6f742069",
    "linkReferences": {}
  },
  "methodIdentifiers": {
    "acceptOwnershipTransfer()": "b842e87f",
    "activeStrategies(uint256)": "b20b2429",
    "activeTokens(uint256)": "9f224f35",
    "addNewBountyPool(address,address,string,address,uint256)": "fb992073",
    "approve(address,uint256)": "095ea7b3",
    "balanceOf(address)": "70a08231",
    "billPremium(uint256)": "2dbe051e",
    "calcReferralSplit(uint256,uint256)": "928dc6a9",
    "calcRequiredPremiumBalancePerPeriod(uint256,uint256)": "836ef1fa",
    "calculateArbitraryEffectiveAPY(uint256,uint256,uint256)": "4f3214cc",
    "calculateEffectiveAPY(uint256,uint256)": "5c46f7b1",
    "claimPremium(uint256)": "f47ec3be",
    "collectAllReferralProfits()": "3e8888d9",
    "collectAllSaloonProfits(address)": "ecd7fbed",
    "collectReferralProfit(address)": "a089a520",
    "collectSaloonProfits(address,address)": "cf9564b9",
    "compoundYieldForAll()": "f68ce499",
    "compoundYieldForPid(uint256)": "e78ea3df",
    "consolidate(uint256)": "949a4a4a",
    "consolidateAll()": "75bfd63d",
    "getApproved(uint256)": "081812fc",
    "getCurrentAPY(uint256)": "7fbf3853",
    "getSecondsPassed(uint256,uint256)": "0a015ab1",
    "index()": "2986c0e5",
    "initialize(address)": "c4d66de8",
    "isApprovedForAll(address,address)": "e985e9c5",
    "makeProjectDeposit(uint256,uint256,string)": "ae07f948",
    "minTokenStakeAmount(address)": "39458723",
    "name()": "06fdde03",
    "nftAPY(uint256)": "1df56622",
    "nftBalance(uint256)": "e63d6ee4",
    "nftInfo(uint256)": "1f8bc790",
    "nftToPid(uint256)": "612afc0c",
    "owner()": "8da5cb5b",
    "ownerOf(uint256)": "6352211e",
    "payBounty(uint256,address,uint256)": "3ac6ad7b",
    "pendingPremium(uint256)": "40bd1d00",
    "pidNFTList(uint256,uint256)": "96ea48e8",
    "pidStrategies(uint256,bytes32)": "074ecf03",
    "poolInfo(uint256)": "1526fe27",
    "poolLength()": "081e3eda",
    "projectDepositWithdrawal(uint256,uint256)": "983c1ce0",
    "proxiableUUID()": "52d1902d",
    "receiveStrategyYield(address,uint256)": "1aebcecb",
    "referralBalances(address,address)": "011b408b",
    "safeTransferFrom(address,address,uint256)": "42842e0e",
    "safeTransferFrom(address,address,uint256,bytes)": "b88d4fde",
    "saloonBountyProfit(address)": "e45abd0f",
    "saloonPremiumProfit(address)": "ca006148",
    "saloonStrategyProfit(address)": "598d17bf",
    "scheduleProjectDepositWithdrawal(uint256,uint256)": "5669cbef",
    "scheduleUnstake(uint256)": "106d08df",
    "setAPYandPoolCapAndDeposit(uint256,uint256,uint16,uint256,string)": "30ca0794",
    "setApprovalForAll(address,bool)": "a22cb465",
    "stake(uint256,uint256)": "7b0472f0",
    "strategyAddressToPid(address)": "957deecc",
    "supportsInterface(bytes4)": "01ffc9a7",
    "symbol()": "95d89b41",
    "tokenURI(uint256)": "c87b56dd",
    "tokenWhitelist(address)": "753d7563",
    "transferFrom(address,address,uint256)": "23b872dd",
    "transferOwnership(address)": "f2fde38b",
    "unstake(uint256,bool)": "9ebea88c",
    "updateStrategyFactoryAddress(address)": "3538fda0",
    "updateTokenWhitelist(address,bool,uint256)": "2cb0dfcc",
    "upgradeTo(address)": "3659cfe6",
    "upgradeToAndCall(address,bytes)": "4f1ef286",
    "viewBountyBalance(uint256)": "6ac6d812",
    "viewBountyInfo(uint256)": "40ef2868",
    "viewHackerPayout(uint256)": "861e5f66",
    "viewMinProjectDeposit(uint256)": "1c6b323f",
    "viewPoolAPY(uint256)": "a27f9213",
    "viewPoolCap(uint256)": "39679ff4",
    "viewPoolPremiumInfo(uint256)": "b1a2d16f",
    "viewPoolTimelockInfo(uint256)": "ac30b856",
    "viewReferralBalance(address,address)": "0ed7610c",
    "viewSaloonProfitBalance(address)": "718c7eef",
    "viewTokenInfo(uint256)": "10725852",
    "viewTotalStaked(uint256)": "dbdd6957",
    "viewUserUnclaimed(uint256)": "19693071",
    "windDownBounty(uint256)": "bb7019c1"
  },
  "id": 43
}