{
  "abi": [
    {
      "anonymous": false,
      "inputs": [
        {
          "indexed": false,
          "internalType": "address",
          "name": "previousAdmin",
          "type": "address"
        },
        {
          "indexed": false,
          "internalType": "address",
          "name": "newAdmin",
          "type": "address"
        }
      ],
      "name": "AdminChanged",
      "type": "event"
    },
    {
      "anonymous": false,
      "inputs": [
        {
          "indexed": true,
          "internalType": "address",
          "name": "beacon",
          "type": "address"
        }
      ],
      "name": "BeaconUpgraded",
      "type": "event"
    },
    {
      "anonymous": false,
      "inputs": [
        {
          "indexed": true,
          "internalType": "uint256",
          "name": "pid",
          "type": "uint256"
        },
        {
          "indexed": true,
          "internalType": "uint256",
          "name": "oldAmount",
          "type": "uint256"
        },
        {
          "indexed": true,
          "internalType": "uint256",
          "name": "newAmount",
          "type": "uint256"
        }
      ],
      "name": "BountyBalanceChanged",
      "type": "event"
    },
    {
      "anonymous": false,
      "inputs": [
        {
          "indexed": true,
          "internalType": "uint256",
          "name": "time",
          "type": "uint256"
        },
        {
          "indexed": true,
          "internalType": "address",
          "name": "hunter",
          "type": "address"
        },
        {
          "indexed": true,
          "internalType": "address",
          "name": "token",
          "type": "address"
        },
        {
          "indexed": false,
          "internalType": "uint256",
          "name": "amount",
          "type": "uint256"
        }
      ],
      "name": "BountyPaid",
      "type": "event"
    },
    {
      "anonymous": false,
      "inputs": [
        {
          "indexed": false,
          "internalType": "uint8",
          "name": "version",
          "type": "uint8"
        }
      ],
      "name": "Initialized",
      "type": "event"
    },
    {
      "anonymous": false,
      "inputs": [
        {
          "indexed": true,
          "internalType": "uint256",
          "name": "pid",
          "type": "uint256"
        },
        {
          "indexed": true,
          "internalType": "address",
          "name": "token",
          "type": "address"
        },
        {
          "indexed": true,
          "internalType": "uint256",
          "name": "tokenDecimals",
          "type": "uint256"
        }
      ],
      "name": "NewBountyDeployed",
      "type": "event"
    },
    {
      "anonymous": false,
      "inputs": [
        {
          "indexed": true,
          "internalType": "address",
          "name": "previousOwner",
          "type": "address"
        },
        {
          "indexed": true,
          "internalType": "address",
          "name": "newOwner",
          "type": "address"
        }
      ],
      "name": "OwnershipTransferred",
      "type": "event"
    },
    {
      "anonymous": false,
      "inputs": [
        {
          "indexed": true,
          "internalType": "uint256",
          "name": "pid",
          "type": "uint256"
        },
        {
          "indexed": true,
          "internalType": "uint256",
          "name": "amount",
          "type": "uint256"
        }
      ],
      "name": "PremiumBilled",
      "type": "event"
    },
    {
      "anonymous": false,
      "inputs": [
        {
          "indexed": true,
          "internalType": "address",
          "name": "user",
          "type": "address"
        },
        {
          "indexed": true,
          "internalType": "uint256",
          "name": "pid",
          "type": "uint256"
        },
        {
          "indexed": false,
          "internalType": "uint256",
          "name": "amount",
          "type": "uint256"
        }
      ],
      "name": "Staked",
      "type": "event"
    },
    {
      "anonymous": false,
      "inputs": [
        {
          "indexed": true,
          "internalType": "address",
          "name": "user",
          "type": "address"
        },
        {
          "indexed": true,
          "internalType": "uint256",
          "name": "pid",
          "type": "uint256"
        },
        {
          "indexed": false,
          "internalType": "uint256",
          "name": "amount",
          "type": "uint256"
        }
      ],
      "name": "Unstaked",
      "type": "event"
    },
    {
      "anonymous": false,
      "inputs": [
        {
          "indexed": true,
          "internalType": "address",
          "name": "implementation",
          "type": "address"
        }
      ],
      "name": "Upgraded",
      "type": "event"
    },
    {
      "anonymous": false,
      "inputs": [
        {
          "indexed": true,
          "internalType": "uint256",
          "name": "pid",
          "type": "uint256"
        },
        {
          "indexed": true,
          "internalType": "uint256",
          "name": "amount",
          "type": "uint256"
        }
      ],
      "name": "WithdrawalOrUnstakeScheduled",
      "type": "event"
    },
    {
      "anonymous": false,
      "inputs": [
        {
          "indexed": true,
          "internalType": "address",
          "name": "token",
          "type": "address"
        },
        {
          "indexed": true,
          "internalType": "bool",
          "name": "whitelisted",
          "type": "bool"
        }
      ],
      "name": "tokenWhitelistUpdated",
      "type": "event"
    },
    {
      "inputs": [],
      "name": "acceptOwnershipTransfer",
      "outputs": [],
      "stateMutability": "nonpayable",
      "type": "function"
    },
    {
      "inputs": [
        {
          "internalType": "uint256",
          "name": "",
          "type": "uint256"
        }
      ],
      "name": "activeStrategy",
      "outputs": [
        {
          "internalType": "bytes32",
          "name": "",
          "type": "bytes32"
        }
      ],
      "stateMutability": "view",
      "type": "function"
    },
    {
      "inputs": [
        {
          "internalType": "uint256",
          "name": "",
          "type": "uint256"
        }
      ],
      "name": "activeTokens",
      "outputs": [
        {
          "internalType": "address",
          "name": "",
          "type": "address"
        }
      ],
      "stateMutability": "view",
      "type": "function"
    },
    {
      "inputs": [
        {
          "internalType": "address",
          "name": "_token",
          "type": "address"
        },
        {
          "internalType": "address",
          "name": "_projectWallet",
          "type": "address"
        },
        {
          "internalType": "string",
          "name": "_projectName",
          "type": "string"
        }
      ],
      "name": "addNewBountyPool",
      "outputs": [
        {
          "internalType": "uint256",
          "name": "",
          "type": "uint256"
        }
      ],
      "stateMutability": "nonpayable",
      "type": "function"
    },
    {
      "inputs": [
        {
          "internalType": "uint256",
          "name": "_pid",
          "type": "uint256"
        }
      ],
      "name": "billPremium",
      "outputs": [
        {
          "internalType": "bool",
          "name": "",
          "type": "bool"
        }
      ],
      "stateMutability": "nonpayable",
      "type": "function"
    },
    {
      "inputs": [
        {
          "internalType": "uint256",
          "name": "_pid",
          "type": "uint256"
        }
      ],
      "name": "claimPremium",
      "outputs": [],
      "stateMutability": "nonpayable",
      "type": "function"
    },
    {
      "inputs": [
        {
          "internalType": "address",
          "name": "_saloonWallet",
          "type": "address"
        }
      ],
      "name": "collectAllSaloonProfits",
      "outputs": [
        {
          "internalType": "bool",
          "name": "",
          "type": "bool"
        }
      ],
      "stateMutability": "nonpayable",
      "type": "function"
    },
    {
      "inputs": [
        {
          "internalType": "address",
          "name": "_token",
          "type": "address"
        },
        {
          "internalType": "address",
          "name": "_saloonWallet",
          "type": "address"
        }
      ],
      "name": "collectSaloonProfits",
      "outputs": [
        {
          "internalType": "bool",
          "name": "",
          "type": "bool"
        }
      ],
      "stateMutability": "nonpayable",
      "type": "function"
    },
    {
      "inputs": [
        {
          "internalType": "uint256",
          "name": "_pid",
          "type": "uint256"
        },
        {
          "internalType": "string",
          "name": "_strategyName",
          "type": "string"
        }
      ],
      "name": "deployStrategyIfNeeded",
      "outputs": [
        {
          "internalType": "address",
          "name": "",
          "type": "address"
        }
      ],
      "stateMutability": "nonpayable",
      "type": "function"
    },
    {
      "inputs": [
        {
          "internalType": "uint256",
          "name": "_from",
          "type": "uint256"
        },
        {
          "internalType": "uint256",
          "name": "_to",
          "type": "uint256"
        }
      ],
      "name": "getMultiplier",
      "outputs": [
        {
          "internalType": "uint256",
          "name": "",
          "type": "uint256"
        }
      ],
      "stateMutability": "pure",
      "type": "function"
    },
    {
      "inputs": [
        {
          "internalType": "address",
          "name": "_strategyFactory",
          "type": "address"
        }
      ],
      "name": "initialize",
      "outputs": [],
      "stateMutability": "nonpayable",
      "type": "function"
    },
    {
      "inputs": [
        {
          "internalType": "uint256",
          "name": "_pid",
          "type": "uint256"
        },
        {
          "internalType": "uint256",
          "name": "_deposit",
          "type": "uint256"
        }
      ],
      "name": "makeProjectDeposit",
      "outputs": [],
      "stateMutability": "nonpayable",
      "type": "function"
    },
    {
      "inputs": [],
      "name": "owner",
      "outputs": [
        {
          "internalType": "address",
          "name": "",
          "type": "address"
        }
      ],
      "stateMutability": "view",
      "type": "function"
    },
    {
      "inputs": [
        {
          "internalType": "uint256",
          "name": "_pid",
          "type": "uint256"
        },
        {
          "internalType": "address",
          "name": "_hunter",
          "type": "address"
        },
        {
          "internalType": "uint256",
          "name": "_amount",
          "type": "uint256"
        }
      ],
      "name": "payBounty",
      "outputs": [
        {
          "internalType": "bool",
          "name": "",
          "type": "bool"
        }
      ],
      "stateMutability": "nonpayable",
      "type": "function"
    },
    {
      "inputs": [
        {
          "internalType": "uint256",
          "name": "_pid",
          "type": "uint256"
        },
        {
          "internalType": "address",
          "name": "_user",
          "type": "address"
        }
      ],
      "name": "pendingToken",
      "outputs": [
        {
          "internalType": "uint256",
          "name": "totalPending",
          "type": "uint256"
        },
        {
          "internalType": "uint256",
          "name": "actualPending",
          "type": "uint256"
        },
        {
          "internalType": "uint256",
          "name": "newPending",
          "type": "uint256"
        }
      ],
      "stateMutability": "view",
      "type": "function"
    },
    {
      "inputs": [
        {
          "internalType": "uint256",
          "name": "",
          "type": "uint256"
        },
        {
          "internalType": "bytes32",
          "name": "",
          "type": "bytes32"
        }
      ],
      "name": "pidStrategies",
      "outputs": [
        {
          "internalType": "address",
          "name": "",
          "type": "address"
        }
      ],
      "stateMutability": "view",
      "type": "function"
    },
    {
      "inputs": [
        {
          "internalType": "uint256",
          "name": "",
          "type": "uint256"
        }
      ],
      "name": "poolInfo",
      "outputs": [
        {
          "internalType": "contract IERC20",
          "name": "token",
          "type": "address"
        },
        {
          "internalType": "uint8",
          "name": "tokenDecimals",
          "type": "uint8"
        },
        {
          "internalType": "uint16",
          "name": "apy",
          "type": "uint16"
        },
        {
          "internalType": "address",
          "name": "projectWallet",
          "type": "address"
        },
        {
          "internalType": "string",
          "name": "projectName",
          "type": "string"
        },
        {
          "internalType": "uint256",
          "name": "projectDeposit",
          "type": "uint256"
        },
        {
          "internalType": "uint256",
          "name": "poolCap",
          "type": "uint256"
        },
        {
          "internalType": "uint256",
          "name": "totalStaked",
          "type": "uint256"
        },
        {
          "internalType": "uint256",
          "name": "requiredPremiumBalancePerPeriod",
          "type": "uint256"
        },
        {
          "internalType": "uint256",
          "name": "premiumBalance",
          "type": "uint256"
        },
        {
          "internalType": "uint256",
          "name": "premiumAvailable",
          "type": "uint256"
        },
        {
          "components": [
            {
              "internalType": "uint256",
              "name": "timelock",
              "type": "uint256"
            },
            {
              "internalType": "uint256",
              "name": "timeLimit",
              "type": "uint256"
            },
            {
              "internalType": "uint256",
              "name": "withdrawalScheduledAmount",
              "type": "uint256"
            },
            {
              "internalType": "bool",
              "name": "withdrawalExecuted",
              "type": "bool"
            }
          ],
          "internalType": "struct ISaloon.TimelockInfo",
          "name": "poolTimelock",
          "type": "tuple"
        },
        {
          "internalType": "bool",
          "name": "isActive",
          "type": "bool"
        },
        {
          "internalType": "uint256",
          "name": "freezeTime",
          "type": "uint256"
        }
      ],
      "stateMutability": "view",
      "type": "function"
    },
    {
      "inputs": [],
      "name": "poolLength",
      "outputs": [
        {
          "internalType": "uint256",
          "name": "",
          "type": "uint256"
        }
      ],
      "stateMutability": "view",
      "type": "function"
    },
    {
      "inputs": [
        {
          "internalType": "uint256",
          "name": "_pid",
          "type": "uint256"
        },
        {
          "internalType": "uint256",
          "name": "_amount",
          "type": "uint256"
        }
      ],
      "name": "projectDepositWithdrawal",
      "outputs": [
        {
          "internalType": "bool",
          "name": "",
          "type": "bool"
        }
      ],
      "stateMutability": "nonpayable",
      "type": "function"
    },
    {
      "inputs": [],
      "name": "proxiableUUID",
      "outputs": [
        {
          "internalType": "bytes32",
          "name": "",
          "type": "bytes32"
        }
      ],
      "stateMutability": "view",
      "type": "function"
    },
    {
      "inputs": [
        {
          "internalType": "address",
          "name": "",
          "type": "address"
        }
      ],
      "name": "saloonBountyProfit",
      "outputs": [
        {
          "internalType": "uint256",
          "name": "",
          "type": "uint256"
        }
      ],
      "stateMutability": "view",
      "type": "function"
    },
    {
      "inputs": [
        {
          "internalType": "address",
          "name": "",
          "type": "address"
        }
      ],
      "name": "saloonPremiumProfit",
      "outputs": [
        {
          "internalType": "uint256",
          "name": "",
          "type": "uint256"
        }
      ],
      "stateMutability": "view",
      "type": "function"
    },
    {
      "inputs": [
        {
          "internalType": "uint256",
          "name": "_pid",
          "type": "uint256"
        },
        {
          "internalType": "uint256",
          "name": "_amount",
          "type": "uint256"
        }
      ],
      "name": "scheduleProjectDepositWithdrawal",
      "outputs": [
        {
          "internalType": "bool",
          "name": "",
          "type": "bool"
        }
      ],
      "stateMutability": "nonpayable",
      "type": "function"
    },
    {
      "inputs": [
        {
          "internalType": "uint256",
          "name": "_pid",
          "type": "uint256"
        },
        {
          "internalType": "uint256",
          "name": "_amount",
          "type": "uint256"
        }
      ],
      "name": "scheduleUnstake",
      "outputs": [
        {
          "internalType": "bool",
          "name": "",
          "type": "bool"
        }
      ],
      "stateMutability": "nonpayable",
      "type": "function"
    },
    {
      "inputs": [
        {
          "internalType": "uint256",
          "name": "_pid",
          "type": "uint256"
        },
        {
          "internalType": "uint256",
          "name": "_poolCap",
          "type": "uint256"
        },
        {
          "internalType": "uint16",
          "name": "_apy",
          "type": "uint16"
        },
        {
          "internalType": "uint256",
          "name": "_deposit",
          "type": "uint256"
        }
      ],
      "name": "setAPYandPoolCapAndDeposit",
      "outputs": [],
      "stateMutability": "nonpayable",
      "type": "function"
    },
    {
      "inputs": [
        {
          "internalType": "uint256",
          "name": "_pid",
          "type": "uint256"
        },
        {
          "internalType": "address",
          "name": "_user",
          "type": "address"
        },
        {
          "internalType": "uint256",
          "name": "_amount",
          "type": "uint256"
        }
      ],
      "name": "stake",
      "outputs": [
        {
          "internalType": "bool",
          "name": "",
          "type": "bool"
        }
      ],
      "stateMutability": "nonpayable",
      "type": "function"
    },
    {
      "inputs": [
        {
          "internalType": "address",
          "name": "",
          "type": "address"
        }
      ],
      "name": "tokenWhitelist",
      "outputs": [
        {
          "internalType": "bool",
          "name": "",
          "type": "bool"
        }
      ],
      "stateMutability": "view",
      "type": "function"
    },
    {
      "inputs": [
        {
          "internalType": "address",
          "name": "newOwner",
          "type": "address"
        }
      ],
      "name": "transferOwnership",
      "outputs": [],
      "stateMutability": "nonpayable",
      "type": "function"
    },
    {
      "inputs": [
        {
          "internalType": "uint256",
          "name": "_pid",
          "type": "uint256"
        },
        {
          "internalType": "uint256",
          "name": "_amount",
          "type": "uint256"
        },
        {
          "internalType": "bool",
          "name": "_shouldHarvest",
          "type": "bool"
        }
      ],
      "name": "unstake",
      "outputs": [
        {
          "internalType": "bool",
          "name": "",
          "type": "bool"
        }
      ],
      "stateMutability": "nonpayable",
      "type": "function"
    },
    {
      "inputs": [
        {
          "internalType": "address",
          "name": "_strategyFactory",
          "type": "address"
        }
      ],
      "name": "updateStrategyFactoryAddress",
      "outputs": [],
      "stateMutability": "nonpayable",
      "type": "function"
    },
    {
      "inputs": [
        {
          "internalType": "address",
          "name": "_token",
          "type": "address"
        },
        {
          "internalType": "bool",
          "name": "_whitelisted",
          "type": "bool"
        }
      ],
      "name": "updateTokenWhitelist",
      "outputs": [
        {
          "internalType": "bool",
          "name": "",
          "type": "bool"
        }
      ],
      "stateMutability": "nonpayable",
      "type": "function"
    },
    {
      "inputs": [
        {
          "internalType": "address",
          "name": "newImplementation",
          "type": "address"
        }
      ],
      "name": "upgradeTo",
      "outputs": [],
      "stateMutability": "nonpayable",
      "type": "function"
    },
    {
      "inputs": [
        {
          "internalType": "address",
          "name": "newImplementation",
          "type": "address"
        },
        {
          "internalType": "bytes",
          "name": "data",
          "type": "bytes"
        }
      ],
      "name": "upgradeToAndCall",
      "outputs": [],
      "stateMutability": "payable",
      "type": "function"
    },
    {
      "inputs": [
        {
          "internalType": "uint256",
          "name": "",
          "type": "uint256"
        },
        {
          "internalType": "address",
          "name": "",
          "type": "address"
        }
      ],
      "name": "userInfo",
      "outputs": [
        {
          "internalType": "uint256",
          "name": "amount",
          "type": "uint256"
        },
        {
          "internalType": "uint256",
          "name": "unclaimed",
          "type": "uint256"
        },
        {
          "internalType": "uint256",
          "name": "lastRewardTime",
          "type": "uint256"
        },
        {
          "internalType": "uint256",
          "name": "timelock",
          "type": "uint256"
        },
        {
          "internalType": "uint256",
          "name": "timeLimit",
          "type": "uint256"
        },
        {
          "internalType": "uint256",
          "name": "unstakeScheduledAmount",
          "type": "uint256"
        }
      ],
      "stateMutability": "view",
      "type": "function"
    },
    {
      "inputs": [
        {
          "internalType": "uint256",
          "name": "_pid",
          "type": "uint256"
        }
      ],
      "name": "viewBountyBalance",
      "outputs": [
        {
          "internalType": "uint256",
          "name": "",
          "type": "uint256"
        }
      ],
      "stateMutability": "view",
      "type": "function"
    },
    {
      "inputs": [
        {
          "internalType": "uint256",
          "name": "_pid",
          "type": "uint256"
        }
      ],
      "name": "viewBountyInfo",
      "outputs": [
        {
          "internalType": "uint256",
          "name": "payout",
          "type": "uint256"
        },
        {
          "internalType": "uint256",
          "name": "apy",
          "type": "uint256"
        },
        {
          "internalType": "uint256",
          "name": "staked",
          "type": "uint256"
        },
        {
          "internalType": "uint256",
          "name": "poolCap",
          "type": "uint256"
        }
      ],
      "stateMutability": "view",
      "type": "function"
    },
    {
      "inputs": [
        {
          "internalType": "uint256",
          "name": "_pid",
          "type": "uint256"
        }
      ],
      "name": "viewHackerPayout",
      "outputs": [
        {
          "internalType": "uint256",
          "name": "",
          "type": "uint256"
        }
      ],
      "stateMutability": "view",
      "type": "function"
    },
    {
      "inputs": [
        {
          "internalType": "uint256",
          "name": "_pid",
          "type": "uint256"
        }
      ],
      "name": "viewPoolAPY",
      "outputs": [
        {
          "internalType": "uint256",
          "name": "",
          "type": "uint256"
        }
      ],
      "stateMutability": "view",
      "type": "function"
    },
    {
      "inputs": [
        {
          "internalType": "uint256",
          "name": "_pid",
          "type": "uint256"
        }
      ],
      "name": "viewPoolCap",
      "outputs": [
        {
          "internalType": "uint256",
          "name": "",
          "type": "uint256"
        }
      ],
      "stateMutability": "view",
      "type": "function"
    },
    {
      "inputs": [
        {
          "internalType": "uint256",
          "name": "_pid",
          "type": "uint256"
        }
      ],
      "name": "viewPoolPremiumInfo",
      "outputs": [
        {
          "internalType": "uint256",
          "name": "requiredPremiumBalancePerPeriod",
          "type": "uint256"
        },
        {
          "internalType": "uint256",
          "name": "premiumBalance",
          "type": "uint256"
        },
        {
          "internalType": "uint256",
          "name": "premiumAvailable",
          "type": "uint256"
        }
      ],
      "stateMutability": "view",
      "type": "function"
    },
    {
      "inputs": [
        {
          "internalType": "uint256",
          "name": "_pid",
          "type": "uint256"
        }
      ],
      "name": "viewPoolTimelockInfo",
      "outputs": [
        {
          "internalType": "uint256",
          "name": "timelock",
          "type": "uint256"
        },
        {
          "internalType": "uint256",
          "name": "timeLimit",
          "type": "uint256"
        },
        {
          "internalType": "uint256",
          "name": "withdrawalScheduledAmount",
          "type": "uint256"
        }
      ],
      "stateMutability": "view",
      "type": "function"
    },
    {
      "inputs": [
        {
          "internalType": "address",
          "name": "_token",
          "type": "address"
        }
      ],
      "name": "viewSaloonProfitBalance",
      "outputs": [
        {
          "internalType": "uint256",
          "name": "totalProfit",
          "type": "uint256"
        },
        {
          "internalType": "uint256",
          "name": "bountyProfit",
          "type": "uint256"
        },
        {
          "internalType": "uint256",
          "name": "premiumProfit",
          "type": "uint256"
        }
      ],
      "stateMutability": "view",
      "type": "function"
    },
    {
      "inputs": [
        {
          "internalType": "uint256",
          "name": "_pid",
          "type": "uint256"
        }
      ],
      "name": "viewTotalStaked",
      "outputs": [
        {
          "internalType": "uint256",
          "name": "",
          "type": "uint256"
        }
      ],
      "stateMutability": "view",
      "type": "function"
    },
    {
      "inputs": [
        {
          "internalType": "uint256",
          "name": "_pid",
          "type": "uint256"
        },
        {
          "internalType": "address",
          "name": "_user",
          "type": "address"
        }
      ],
      "name": "viewUserInfo",
      "outputs": [
        {
          "internalType": "uint256",
          "name": "amount",
          "type": "uint256"
        },
        {
          "internalType": "uint256",
          "name": "actualPending",
          "type": "uint256"
        },
        {
          "internalType": "uint256",
          "name": "unstakeScheduledAmount",
          "type": "uint256"
        },
        {
          "internalType": "uint256",
          "name": "timelock",
          "type": "uint256"
        }
      ],
      "stateMutability": "view",
      "type": "function"
    },
    {
      "inputs": [
        {
          "internalType": "uint256",
          "name": "_pid",
          "type": "uint256"
        },
        {
          "internalType": "address",
          "name": "_user",
          "type": "address"
        }
      ],
      "name": "viewUserUnclaimed",
      "outputs": [
        {
          "internalType": "uint256",
          "name": "unclaimed",
          "type": "uint256"
        }
      ],
      "stateMutability": "view",
      "type": "function"
    },
    {
      "inputs": [
        {
          "internalType": "uint256",
          "name": "_pid",
          "type": "uint256"
        }
      ],
      "name": "windDownBounty",
      "outputs": [
        {
          "internalType": "bool",
          "name": "",
          "type": "bool"
        }
      ],
      "stateMutability": "nonpayable",
      "type": "function"
    }
  ],
  "bytecode": {
    "object": "0x60a06040523060805234801561001457600080fd5b50600160ca556080516151b861005160003960008181610b2801528181610b71015281816114050152818161144501526114d801526151b86000f3fe60806040526004361061027d5760003560e01c80638dbb1e3a1161014f578063b842e87f116100c1578063dbdd69571161007a578063dbdd6957146108b8578063e45abd0f146108d8578063e5e97c6514610905578063ecd7fbed14610925578063f2fde38b14610945578063f47ec3be1461096557600080fd5b8063b842e87f146107f6578063bb7019c11461080b578063c4d66de81461082b578063ca0061481461084b578063cee6b06914610878578063cf9564b91461089857600080fd5b80639f224f35116101135780639f224f35146107365780639f6f5b7c14610756578063a27f921314610776578063a754ecb014610796578063ac30b856146107b6578063b1a2d16f146107d657600080fd5b80638dbb1e3a1461062157806391635b4e1461064157806393f1a40b1461066157806394254ccb146106e9578063983c1ce01461071657600080fd5b806352d1902d116101f3578063718c7eef116101ac578063718c7eef14610553578063753d75631461057357806379b91d69146105a3578063804fd590146105c3578063861e5f66146105e35780638da5cb5b1461060357600080fd5b806352d1902d146104795780635669cbef1461048e57806357a86d3a146104ae5780635e3b748b146104ce5780636ac6d812146105135780636e9c931c1461053357600080fd5b80633659cfe6116102455780633659cfe61461038b57806339679ff4146103ab5780633ac6ad7b146103cb57806340ef2868146103eb57806348e43af41461042b5780634f1ef2861461046657600080fd5b8063074ecf0314610282578063081e3eda146102e05780631526fe27146102ff5780632dbe051e146103395780633538fda014610369575b600080fd5b34801561028e57600080fd5b506102c361029d366004614790565b60d06020908152600092835260408084209091529082529020546001600160a01b031681565b6040516001600160a01b0390911681526020015b60405180910390f35b3480156102ec57600080fd5b5060ce545b6040519081526020016102d7565b34801561030b57600080fd5b5061031f61031a3660046147b2565b610985565b6040516102d79e9d9c9b9a9998979695949392919061481b565b34801561034557600080fd5b506103596103543660046147b2565b610ada565b60405190151581526020016102d7565b34801561037557600080fd5b506103896103843660046148ee565b610af4565b005b34801561039757600080fd5b506103896103a63660046148ee565b610b1e565b3480156103b757600080fd5b506102f16103c63660046147b2565b610c06565b3480156103d757600080fd5b506103596103e636600461490b565b610e24565b3480156103f757600080fd5b5061040b6104063660046147b2565b6112b7565b6040805194855260208501939093529183015260608201526080016102d7565b34801561043757600080fd5b5061044b610446366004614943565b6112f0565b604080519384526020840192909252908201526060016102d7565b6103896104743660046149ff565b6113fb565b34801561048557600080fd5b506102f16114cb565b34801561049a57600080fd5b506103596104a9366004614790565b61157e565b3480156104ba57600080fd5b506103896104c9366004614790565b6116a1565b3480156104da57600080fd5b506102f16104e9366004614943565b600091825260cf602090815260408084206001600160a01b03909316845291905290206001015490565b34801561051f57600080fd5b506102f161052e3660046147b2565b61177b565b34801561053f57600080fd5b5061035961054e36600461490b565b6119a4565b34801561055f57600080fd5b5061044b61056e3660046148ee565b611df0565b34801561057f57600080fd5b5061035961058e3660046148ee565b60d26020526000908152604090205460ff1681565b3480156105af57600080fd5b506103596105be366004614a71565b611e26565b3480156105cf57600080fd5b506102f16105de366004614aca565b612103565b3480156105ef57600080fd5b506102f16105fe3660046147b2565b612448565b34801561060f57600080fd5b506033546001600160a01b03166102c3565b34801561062d57600080fd5b506102f161063c366004614790565b612698565b34801561064d57600080fd5b5061035961065c366004614790565b6126a4565b34801561066d57600080fd5b506106bc61067c366004614943565b60cf602090815260009283526040808420909152908252902080546001820154600283015460038401546004850154600590950154939492939192909186565b604080519687526020870195909552938501929092526060840152608083015260a082015260c0016102d7565b3480156106f557600080fd5b506102f16107043660046147b2565b60d16020526000908152604090205481565b34801561072257600080fd5b50610359610731366004614790565b61277d565b34801561074257600080fd5b506102c36107513660046147b2565b6128d4565b34801561076257600080fd5b506102c3610771366004614b2c565b6128fe565b34801561078257600080fd5b506102f16107913660046147b2565b6129da565b3480156107a257600080fd5b5061040b6107b1366004614943565b612bfa565b3480156107c257600080fd5b5061044b6107d13660046147b2565b612c4a565b3480156107e257600080fd5b5061044b6107f13660046147b2565b612e81565b34801561080257600080fd5b506103896130b7565b34801561081757600080fd5b506103596108263660046147b2565b613137565b34801561083757600080fd5b506103896108463660046148ee565b6131bc565b34801561085757600080fd5b506102f16108663660046148ee565b60cc6020526000908152604090205481565b34801561088457600080fd5b50610389610893366004614b69565b6132e8565b3480156108a457600080fd5b506103596108b3366004614baf565b61357c565b3480156108c457600080fd5b506102f16108d33660046147b2565b6135f3565b3480156108e457600080fd5b506102f16108f33660046148ee565b60cb6020526000908152604090205481565b34801561091157600080fd5b50610359610920366004614bdd565b613811565b34801561093157600080fd5b506103596109403660046148ee565b613a3e565b34801561095157600080fd5b506103896109603660046148ee565b613b04565b34801561097157600080fd5b506103896109803660046147b2565b613b93565b60ce818154811061099557600080fd5b60009182526020909120601090910201805460018201546002830180546001600160a01b038085169650600160a01b850460ff1695600160a81b90950461ffff169493169291906109e590614c0b565b80601f0160208091040260200160405190810160405280929190818152602001828054610a1190614c0b565b8015610a5e5780601f10610a3357610100808354040283529160200191610a5e565b820191906000526020600020905b815481529060010190602001808311610a4157829003601f168201915b5050506003840154600485015460058601546006870154600788015460088901546040805160808101825260098c01548152600a8c01546020820152600b8c015491810191909152600c8b015460ff90811615156060830152600e8c0154600f909c01549a9b979a96995094975092959194909391909116908e565b6000610ae4613bb1565b610aef826000613c0b565b919050565b610afc613bb1565b60cd80546001600160a01b0319166001600160a01b0392909216919091179055565b6001600160a01b037f0000000000000000000000000000000000000000000000000000000000000000163003610b6f5760405162461bcd60e51b8152600401610b6690614c45565b60405180910390fd5b7f00000000000000000000000000000000000000000000000000000000000000006001600160a01b0316610bb860008051602061513c833981519152546001600160a01b031690565b6001600160a01b031614610bde5760405162461bcd60e51b8152600401610b6690614c91565b610be781613d35565b60408051600080825260208201909252610c0391839190613d3d565b50565b60008060ce8381548110610c1c57610c1c614cdd565b6000918252602091829020604080516101e081018252601090930290910180546001600160a01b03808216855260ff600160a01b8304169585019590955261ffff600160a81b909104169183019190915260018101549092166060820152600282018054919291608084019190610c9290614c0b565b80601f0160208091040260200160405190810160405280929190818152602001828054610cbe90614c0b565b8015610d0b5780601f10610ce057610100808354040283529160200191610d0b565b820191906000526020600020905b815481529060010190602001808311610cee57829003601f168201915b50505050508152602001600382015481526020016004820154815260200160058201548152602001600682015481526020016007820154815260200160088201548152602001600982016040518060800160405290816000820154815260200160018201548152602001600282015481526020016003820160009054906101000a900460ff1615151515815250508152602001600d8201805480602002602001604051908101604052809291908181526020018280548015610df657602002820191906000526020600020905b81546001600160a01b03168152600190910190602001808311610dd8575b5050509183525050600e82015460ff1615156020820152600f9091015460409091015260c001519392505050565b6000610e2e613bb1565b600060ce8581548110610e4357610e43614cdd565b906000526020600020906010020190506000816005015490506000826003015482610e6e9190614d09565b90508082861161100c57828603610f1157600d84015460005b81811015610ef357600086600d018281548110610ea657610ea6614cdd565b60009182526020808320909101548d835260cf825260408084206001600160a01b039092168085529190925290822090925090610ee6908d908490613ead565b6000905550600101610e87565b50600060058601819055610f0b90600d87019061463f565b506111b4565b600083610f26670de0b6b3a764000089614d1c565b610f309190614d33565b600d86015490915060005b8181101561100457600087600d018281548110610f5a57610f5a614cdd565b60009182526020808320909101548e835260cf825260408084206001600160a01b039092168085529190925290822090925090610f9a908e908490613ead565b6000670de0b6b3a7640000868360000154610fb59190614d1c565b610fbf9190614d33565b905080826000016000828254610fd59190614d55565b92505081905550808a6005016000828254610ff09190614d55565b909155505060019093019250610f3b915050565b5050506111b4565b828611801561101a57508186105b156110da57600d84015460005b8181101561109357600086600d01828154811061104657611046614cdd565b60009182526020808320909101548d835260cf825260408084206001600160a01b039092168085529190925290822090925090611086908d908490613ead565b6000905550600101611027565b506000600586018190556110ab90600d87019061463f565b60006110b78585614d55565b9050808660030160008282546110cd9190614d55565b909155506111b492505050565b81860361117a57600d84015460005b8181101561115557600086600d01828154811061110857611108614cdd565b60009182526020808320909101548d835260cf825260408084206001600160a01b039092168085529190925290822090925090611148908d908490613ead565b60009055506001016110e9565b5060006005860181905561116d90600d87019061463f565b50600060038501556111b4565b60405162461bcd60e51b815260206004820152600f60248201526e082dadeeadce840e8dede40d0d2ced608b1b6044820152606401610b66565b60006127106111c56103e889614d1c565b6111cf9190614d33565b905060006111dd8289614d55565b86546001600160a01b0316600090815260cb602052604081208054929350849290919061120b908490614d09565b90915550508554611226906001600160a01b03168a8361400d565b5060008660030154876005015461123d9190614d09565b87546040518b81529192506001600160a01b0390811691908c169042907fc351e6e0f377ec1a399ec84224a83d6a4b9f3cd9a5530e5c652d0b11c2f8dae29060200160405180910390a480848c60008051602061511c83398151915260405160405180910390a460019750505050505050505b9392505050565b6000806000806112c685612448565b93506112d1856135f3565b91506112dc856129da565b92506112e785610c06565b90509193509193565b60008060008060ce868154811061130957611309614cdd565b6000918252602080832089845260cf825260408085206001600160a01b038b168652909252908320601092909202016005810154600f8201549194509192908103611354574261135a565b83600f01545b9050600061136c846002015483612698565b855485549192506301e133809183916127109161139491600160a81b900461ffff1690614d1c565b61139e9190614d33565b6113a89190614d1c565b6113b29190614d33565b95508360010154866113c49190614d09565b97506127106113d56103e882614d68565b6113e39061ffff168a614d1c565b6113ed9190614d33565b965050505050509250925092565b6001600160a01b037f00000000000000000000000000000000000000000000000000000000000000001630036114435760405162461bcd60e51b8152600401610b6690614c45565b7f00000000000000000000000000000000000000000000000000000000000000006001600160a01b031661148c60008051602061513c833981519152546001600160a01b031690565b6001600160a01b0316146114b25760405162461bcd60e51b8152600401610b6690614c91565b6114bb82613d35565b6114c782826001613d3d565b5050565b6000306001600160a01b037f0000000000000000000000000000000000000000000000000000000000000000161461156b5760405162461bcd60e51b815260206004820152603860248201527f555550535570677261646561626c653a206d757374206e6f742062652063616c60448201527f6c6564207468726f7567682064656c656761746563616c6c00000000000000006064820152608401610b66565b5060008051602061513c83398151915290565b60008060ce848154811061159457611594614cdd565b9060005260206000209060100201905082816003015410156115f85760405162461bcd60e51b815260206004820152601a60248201527f416d6f756e7420626967676572207468616e206465706f7369740000000000006044820152606401610b66565b60018101546001600160a01b031633146116245760405162461bcd60e51b8152600401610b6690614d8a565b61163162093a8042614d09565b600982015561164362093a8042614d09565b611650906203f480614d09565b600a820155600b8101839055600c8101805460ff19169055604051839085907fb3b9c925de3673837b40c6b4d4463a8f88dc821cd27e07f1ff6bf6abf96413a590600090a360019150505b92915050565b600060ce83815481106116b6576116b6614cdd565b6000918252602090912060109091020160018101549091506001600160a01b031633146116f55760405162461bcd60e51b8152600401610b6690614d8a565b60008160030154826005015461170b9190614d09565b8254909150611725906001600160a01b0316333086614073565b508282600301600082825461173a9190614d09565b90915550506003820154600583015460009161175591614d09565b905080828660008051602061511c83398151915260405160405180910390a45050505050565b60008060ce838154811061179157611791614cdd565b6000918252602091829020604080516101e081018252601090930290910180546001600160a01b03808216855260ff600160a01b8304169585019590955261ffff600160a81b90910416918301919091526001810154909216606082015260028201805491929160808401919061180790614c0b565b80601f016020809104026020016040519081016040528092919081815260200182805461183390614c0b565b80156118805780601f1061185557610100808354040283529160200191611880565b820191906000526020600020905b81548152906001019060200180831161186357829003601f168201915b50505050508152602001600382015481526020016004820154815260200160058201548152602001600682015481526020016007820154815260200160088201548152602001600982016040518060800160405290816000820154815260200160018201548152602001600282015481526020016003820160009054906101000a900460ff1615151515815250508152602001600d820180548060200260200160405190810160405280929190818152602001828054801561196b57602002820191906000526020600020905b81546001600160a01b0316815260019091019060200180831161194d575b5050509183525050600e82015460ff1615156020820152600f9091015460409091015260a081015160e08201519192506112b091614d09565b60006119ae6140b6565b83600060ce82815481106119c4576119c4614cdd565b6000918252602091829020604080516101e081018252601090930290910180546001600160a01b03808216855260ff600160a01b8304169585019590955261ffff600160a81b909104169183019190915260018101549092166060820152600282018054919291608084019190611a3a90614c0b565b80601f0160208091040260200160405190810160405280929190818152602001828054611a6690614c0b565b8015611ab35780601f10611a8857610100808354040283529160200191611ab3565b820191906000526020600020905b815481529060010190602001808311611a9657829003601f168201915b50505050508152602001600382015481526020016004820154815260200160058201548152602001600682015481526020016007820154815260200160088201548152602001600982016040518060800160405290816000820154815260200160018201548152602001600282015481526020016003820160009054906101000a900460ff1615151515815250508152602001600d8201805480602002602001604051908101604052809291908181526020018280548015611b9e57602002820191906000526020600020905b81546001600160a01b03168152600190910190602001808311611b80575b5050509183525050600e82015460ff1615156020820152600f909101546040909101526101a0810151909150611c085760405162461bcd60e51b815260206004820152600f60248201526e706f6f6c206e6f742061637469766560881b6044820152606401610b66565b60008411611c1557600080fd5b600060ce8781548110611c2a57611c2a614cdd565b600091825260208083208a845260cf825260408085206001600160a01b038c1686529092529083206010929092020160038101546005820154919450919291611c7291614d09565b9050611c8089896001613ead565b8154600003611cba57600d83018054600181018255600091825260209091200180546001600160a01b0319166001600160a01b038a161790555b8254611cd1906001600160a01b031633308a614073565b5086826000016000828254611ce69190614d09565b9250508190555086836005016000828254611d019190614d09565b9091555050600483015415801590611d2157508260040154836005015411155b611d635760405162461bcd60e51b8152602060048201526013602482015272115e18d959591959081c1bdbdb081b1a5b5a5d606a1b6044820152606401610b66565b88886001600160a01b03167f1449c6dd7851abc30abf37f57715f492010519147cc2652fbc38202c18a6ee9089604051611d9f91815260200190565b60405180910390a3600083600301548460050154611dbd9190614d09565b905080828b60008051602061511c83398151915260405160405180910390a4600196505050505050506112b0600160ca55565b6001600160a01b038116600090815260cb602090815260408083205460cc909252822054611e1e8282614d09565b949193509150565b6000611e306140b6565b600060ce8581548110611e4557611e45614cdd565b6000918252602080832088845260cf825260408085203386529092529220805460109092029092019250851115611eb35760405162461bcd60e51b81526020600482015260126024820152711dda5d1a191c985dce881b9bdd0819dbdbd960721b6044820152606401610b66565b428160030154108015611ec95750428160040154115b8015611ed9575084816005015410155b8015611ee85750600381015415155b611f045760405162461bcd60e51b8152600401610b6690614db2565b600060038083018290558301546005840154611f209190614d09565b9050611f2d873387613ead565b8515611f6d578154611f3f908761410f565b82556005830154611f50908761410f565b60058401558254611f6b906001600160a01b0316338861400d565b505b815460000361208557600d83015460005b8181101561208257336001600160a01b031685600d018281548110611fa557611fa5614cdd565b6000918252602090912001546001600160a01b03160361207a576000600d8601611fd0600185614d55565b81548110611fe057611fe0614cdd565b600091825260209091200154600d870180546001600160a01b03909216925082918490811061201157612011614cdd565b9060005260206000200160006101000a8154816001600160a01b0302191690836001600160a01b0316021790555085600d0180548061205257612052614dfb565b600082815260209020810160001990810180546001600160a01b031916905501905550612082565b600101611f7e565b50505b604051868152879033907f7fc4727e062e336010f2c282598ef5f14facb3de68cf8195c2f23e1454b2b74e9060200160405180910390a36000836003015484600501546120d29190614d09565b905080828960008051602061511c83398151915260405160405180910390a460019450505050506112b0600160ca55565b600061210d613bb1565b6001600160a01b038416600090815260d2602052604090205460ff1661216d5760405162461bcd60e51b81526020600482015260156024820152741d1bdad95b881b9bdd081dda1a5d195b1a5cdd1959605a1b6044820152606401610b66565b60408051600481526024810182526020810180516001600160e01b031663313ce56760e01b17905290516000916001600160a01b038716916121af9190614e11565b600060405180830381855afa9150503d80600081146121ea576040519150601f19603f3d011682016040523d82523d6000602084013e6121ef565b606091505b509150506000818060200190518101906122099190614e2d565b905061221361465d565b6001600160a01b03808816825260ff80841660208085019182528984166060808701918252608087018b8152600060a089018190526040808a0182815260c08b0183905260e08b018390526101608b0180518490528051909701839052865190910182905294519092018290526101a088018290526101c0880182905260ce80546001810182559252875160109092027fd36cd1c74ef8d7326d8021b776c18fb5a5724b7f7bc93c2f42e43e10ef27d12a810180549651955161ffff16600160a81b0261ffff60a81b1996909816600160a01b026001600160a81b0319909716938916939093179590951793909316949094178455517fd36cd1c74ef8d7326d8021b776c18fb5a5724b7f7bc93c2f42e43e10ef27d12b83018054919095166001600160a01b03199190911617909355915183927fd36cd1c74ef8d7326d8021b776c18fb5a5724b7f7bc93c2f42e43e10ef27d12c01906123749082614e9e565b5060a0820151600382015560c0820151600482015560e0820151600582015561010082015160068201556101208201516007820155610140820151600882015561016082015180516009830155602080820151600a8401556040820151600b840155606090910151600c8301805460ff1916911515919091179055610180830151805161240792600d8501920190614716565b506101a0820151600e8201805460ff19169115159190911790556101c090910151600f9091015560ce5461243d90600190614d55565b979650505050505050565b60008060ce838154811061245e5761245e614cdd565b6000918252602091829020604080516101e081018252601090930290910180546001600160a01b03808216855260ff600160a01b8304169585019590955261ffff600160a81b9091041691830191909152600181015490921660608201526002820180549192916080840191906124d490614c0b565b80601f016020809104026020016040519081016040528092919081815260200182805461250090614c0b565b801561254d5780601f106125225761010080835404028352916020019161254d565b820191906000526020600020905b81548152906001019060200180831161253057829003601f168201915b50505050508152602001600382015481526020016004820154815260200160058201548152602001600682015481526020016007820154815260200160088201548152602001600982016040518060800160405290816000820154815260200160018201548152602001600282015481526020016003820160009054906101000a900460ff1615151515815250508152602001600d820180548060200260200160405190810160405280929190818152602001828054801561263857602002820191906000526020600020905b81546001600160a01b0316815260019091019060200180831161261a575b5050509183525050600e82015460ff1615156020820152600f90910154604090910152905061271061266c6103e882614d68565b61ffff168260a001518360e001516126849190614d09565b61268e9190614d1c565b6112b09190614d33565b60006112b0828461410f565b600082815260cf602090815260408083203384529091528120805483111561270e5760405162461bcd60e51b815260206004820152601a60248201527f416d6f756e7420626967676572207468616e206465706f7369740000000000006044820152606401610b66565b61271b62093a8042614d09565b600382015561272d62093a8042614d09565b61273a906203f480614d09565b600482015560058101839055604051839085907fb3b9c925de3673837b40c6b4d4463a8f88dc821cd27e07f1ff6bf6abf96413a590600090a35060019392505050565b60008060ce848154811061279357612793614cdd565b6000918252602090912060109091020160018101549091506001600160a01b031633146127d25760405162461bcd60e51b8152600401610b6690614d8a565b6009810154421180156127e85750600a81015442105b80156127f95750600c81015460ff16155b80156128095750600b8101548311155b80156128185750600981015415155b6128345760405162461bcd60e51b8152600401610b6690614db2565b600c8101805460ff191660011790556003810154600582015460009161285991614d09565b90508382600301600082825461286f9190614d55565b909155505060018201548254612892916001600160a01b0391821691168661400d565b506000826003015483600501546128a99190614d09565b905080828760008051602061511c83398151915260405160405180910390a450600195945050505050565b60d381815481106128e457600080fd5b6000918252602090912001546001600160a01b0316905081565b6000612908613bb1565b6000808360405160200161291c9190614f5e565b60408051601f198184030181529181528151602092830120600088815260d084528281208282529093529120549091506001600160a01b0316806129d05760cd54604051632f3802cf60e11b81526001600160a01b0390911690635e70059e9061298a908890600401614f5e565b6020604051808303816000875af11580156129a9573d6000803e3d6000fd5b505050506040513d601f19601f820116820180604052508101906129cd9190614f71565b92505b5090949350505050565b60008060ce83815481106129f0576129f0614cdd565b6000918252602091829020604080516101e081018252601090930290910180546001600160a01b03808216855260ff600160a01b8304169585019590955261ffff600160a81b909104169183019190915260018101549092166060820152600282018054919291608084019190612a6690614c0b565b80601f0160208091040260200160405190810160405280929190818152602001828054612a9290614c0b565b8015612adf5780601f10612ab457610100808354040283529160200191612adf565b820191906000526020600020905b815481529060010190602001808311612ac257829003601f168201915b50505050508152602001600382015481526020016004820154815260200160058201548152602001600682015481526020016007820154815260200160088201548152602001600982016040518060800160405290816000820154815260200160018201548152602001600282015481526020016003820160009054906101000a900460ff1615151515815250508152602001600d8201805480602002602001604051908101604052809291908181526020018280548015612bca57602002820191906000526020600020905b81546001600160a01b03168152600190910190602001808311612bac575b5050509183525050600e82015460ff1615156020820152600f90910154604091820152015161ffff169392505050565b600082815260cf602090815260408083206001600160a01b038516845290915281208054919081908190612c2e87876112f0565b5060058301546003909301549699909850919650909350505050565b60008060008060ce8581548110612c6357612c63614cdd565b6000918252602091829020604080516101e081018252601090930290910180546001600160a01b03808216855260ff600160a01b8304169585019590955261ffff600160a81b909104169183019190915260018101549092166060820152600282018054919291608084019190612cd990614c0b565b80601f0160208091040260200160405190810160405280929190818152602001828054612d0590614c0b565b8015612d525780601f10612d2757610100808354040283529160200191612d52565b820191906000526020600020905b815481529060010190602001808311612d3557829003601f168201915b50505050508152602001600382015481526020016004820154815260200160058201548152602001600682015481526020016007820154815260200160088201548152602001600982016040518060800160405290816000820154815260200160018201548152602001600282015481526020016003820160009054906101000a900460ff1615151515815250508152602001600d8201805480602002602001604051908101604052809291908181526020018280548015612e3d57602002820191906000526020600020905b81546001600160a01b03168152600190910190602001808311612e1f575b5050509183525050600e82015460ff161515602080830191909152600f90920154604091820152610160909201518051918101519201519097919650945092505050565b60008060008060ce8581548110612e9a57612e9a614cdd565b6000918252602091829020604080516101e081018252601090930290910180546001600160a01b03808216855260ff600160a01b8304169585019590955261ffff600160a81b909104169183019190915260018101549092166060820152600282018054919291608084019190612f1090614c0b565b80601f0160208091040260200160405190810160405280929190818152602001828054612f3c90614c0b565b8015612f895780601f10612f5e57610100808354040283529160200191612f89565b820191906000526020600020905b815481529060010190602001808311612f6c57829003601f168201915b50505050508152602001600382015481526020016004820154815260200160058201548152602001600682015481526020016007820154815260200160088201548152602001600982016040518060800160405290816000820154815260200160018201548152602001600282015481526020016003820160009054906101000a900460ff1615151515815250508152602001600d820180548060200260200160405190810160405280929190818152602001828054801561307457602002820191906000526020600020905b81546001600160a01b03168152600190910190602001808311613056575b5050509183525050600e82015460ff1615156020820152600f90910154604090910152610100810151610120820151610140909201519097919650945092505050565b6034546001600160a01b031633146131205760405162461bcd60e51b815260206004820152602660248201527f6f6e6c792070656e64696e67206f776e65722063616e2061636365707420747260448201526530b739b332b960d11b6064820152608401610b66565b603454613135906001600160a01b031661411b565b565b60008060ce838154811061314d5761314d614cdd565b6000918252602090912060109091020160018101549091506001600160a01b031633148061318557506033546001600160a01b031633145b6131a15760405162461bcd60e51b8152600401610b6690614d8a565b600e8101805460ff1916905542600f90910155506001919050565b600054610100900460ff16158080156131dc5750600054600160ff909116105b806131f65750303b1580156131f6575060005460ff166001145b6132595760405162461bcd60e51b815260206004820152602e60248201527f496e697469616c697a61626c653a20636f6e747261637420697320616c72656160448201526d191e481a5b9a5d1a585b1a5e995960921b6064820152608401610b66565b6000805460ff19166001179055801561327c576000805461ff0019166101001790555b613284614178565b60cd80546001600160a01b0319166001600160a01b03841617905580156114c7576000805461ff0019169055604051600181527f7f26b83ff96e1f2b6a682f133852f6798a09c465da95921460cefb38474024989060200160405180910390a15050565b600060ce85815481106132fd576132fd614cdd565b60009182526020909120601090910201600e81015490915060ff1615801561332757506004810154155b6133735760405162461bcd60e51b815260206004820152601860248201527f506f6f6c20616c726561647920696e697469616c697a656400000000000000006044820152606401610b66565b60008361ffff1611801561338d57506127108361ffff1611155b6133cc5760405162461bcd60e51b815260206004820152601060248201526f415059206f7574206f662072616e676560801b6044820152606401610b66565b80546133e390600160a01b900460ff16600a615072565b6133ee906064614d1c565b84101580156134205750805461340f90600160a01b900460ff16600a615072565b61341c9062989680614d1c565b8411155b6134645760405162461bcd60e51b8152602060048201526015602482015274506f6f6c20636170206f7574206f662072616e676560581b6044820152606401610b66565b60018101546001600160a01b031633146134905760405162461bcd60e51b8152600401610b6690614d8a565b60006301e1338061271062093a806134ac61ffff881689614d1c565b6134b69190614d1c565b6134c09190614d33565b6134ca9190614d33565b905060006127106134dd6103e884614d1c565b6134e79190614d33565b905061350b33306134f88588614d09565b86546001600160a01b0316929190614073565b50838360030160008282546135209190614d09565b909155505060048301869055825461ffff60a81b1916600160a81b61ffff871602178355600e8301805460ff19166001179055600783018290556006830182905561356b8183614d55565b836008018190555050505050505050565b6000613586613bb1565b6001600160a01b038316600090815260cc602090815260408083205460cb9092528220546135b49190614d09565b6001600160a01b038516600081815260cb6020908152604080832083905560cc9091528120559091506135e890848361400d565b506001949350505050565b60008060ce838154811061360957613609614cdd565b6000918252602091829020604080516101e081018252601090930290910180546001600160a01b03808216855260ff600160a01b8304169585019590955261ffff600160a81b90910416918301919091526001810154909216606082015260028201805491929160808401919061367f90614c0b565b80601f01602080910402602001604051908101604052809291908181526020018280546136ab90614c0b565b80156136f85780601f106136cd576101008083540402835291602001916136f8565b820191906000526020600020905b8154815290600101906020018083116136db57829003601f168201915b50505050508152602001600382015481526020016004820154815260200160058201548152602001600682015481526020016007820154815260200160088201548152602001600982016040518060800160405290816000820154815260200160018201548152602001600282015481526020016003820160009054906101000a900460ff1615151515815250508152602001600d82018054806020026020016040519081016040528092919081815260200182805480156137e357602002820191906000526020600020905b81546001600160a01b031681526001909101906020018083116137c5575b5050509183525050600e82015460ff1615156020820152600f9091015460409091015260e001519392505050565b600061381b613bb1565b6001600160a01b038316600090815260d2602052604090205460ff1615158215146138805760405162461bcd60e51b81526020600482015260156024820152741dda1a5d195b1a5cdd08185b1c9958591e481cd95d605a1b6044820152606401610b66565b6001600160a01b038316600081815260d26020526040808220805460ff191686151590811790915590519092917f99795d51e5a8804307721456a7a9c2f0d7421f719d46a46d36e91fee7c85aa7691a381156139265760d380546001810182556000919091527f915c3eb987b20e1af620c1403197bf687fb7f18513b3a73fde6e78c7072c41a60180546001600160a01b0319166001600160a01b038516179055613a35565b60d35460005b81811015613a3257600060d3828154811061394957613949614cdd565b6000918252602090912001546001600160a01b03908116915086168103613a215760d3613977600185614d55565b8154811061398757613987614cdd565b60009182526020909120015460d380546001600160a01b0390921691849081106139b3576139b3614cdd565b9060005260206000200160006101000a8154816001600160a01b0302191690836001600160a01b0316021790555060d38054806139f2576139f2614dfb565b600082815260209020810160001990810180546001600160a01b0319169055019055506001925061169b915050565b50613a2b81615081565b905061392c565b50505b50600192915050565b6000613a48613bb1565b60d35460005b81811015613afa57600060d38281548110613a6b57613a6b614cdd565b60009182526020808320909101546001600160a01b031680835260cc825260408084205460cb909352832054909350613aa49190614d09565b905080600003613ab5575050613aea565b6001600160a01b038216600081815260cb6020908152604080832083905560cc909152812055613ae690878361400d565b5050505b613af381615081565b9050613a4e565b5060019392505050565b613b0c613bb1565b6001600160a01b038116613b715760405162461bcd60e51b815260206004820152602660248201527f4f776e61626c653a206e6577206f776e657220697320746865207a65726f206160448201526564647265737360d01b6064820152608401610b66565b603480546001600160a01b0319166001600160a01b0392909216919091179055565b613b9b6140b6565b613ba781336001613ead565b610c03600160ca55565b6033546001600160a01b031633146131355760405162461bcd60e51b815260206004820181905260248201527f4f776e61626c653a2063616c6c6572206973206e6f7420746865206f776e65726044820152606401610b66565b600060ce8381548110613c2057613c20614cdd565b9060005260206000209060100201905060008282600701548360060154613c479190614d55565b613c519190614d09565b60018301548354919250613c73916001600160a01b0390811691163084614073565b506000612710613c856103e884614d1c565b613c8f9190614d33565b905081836007016000828254613ca59190614d09565b909155505082546001600160a01b0316600090815260cc602052604081208054839290613cd3908490614d09565b9091555060009050613ce58284614d55565b905080846008016000828254613cfb9190614d09565b9091555050604051839087907fadb049ad2d09be3db90459a16aef1ad0a4d89e8fdcc1ade9429d6cc55abbcd2b90600090a3505050505050565b610c03613bb1565b7f4910fdfa16fed3260ed0e7147f7cc6da11a60208b5b9406d12a635614ffd91435460ff1615613d7557613d70836141a7565b505050565b826001600160a01b03166352d1902d6040518163ffffffff1660e01b8152600401602060405180830381865afa925050508015613dcf575060408051601f3d908101601f19168201909252613dcc9181019061509a565b60015b613e325760405162461bcd60e51b815260206004820152602e60248201527f45524331393637557067726164653a206e657720696d706c656d656e7461746960448201526d6f6e206973206e6f74205555505360901b6064820152608401610b66565b60008051602061513c8339815191528114613ea15760405162461bcd60e51b815260206004820152602960248201527f45524331393637557067726164653a20756e737570706f727465642070726f786044820152681a58589b195555525160ba1b6064820152608401610b66565b50613d70838383614243565b600060ce8481548110613ec257613ec2614cdd565b6000918252602080832087845260cf825260408085206001600160a01b03891686529092529220805460109092029092019250158015613f0457506001810154155b15613f16574260029091015550505050565b6000806000613f2588886112f0565b92509250925085613f735780846001016000828254613f449190614d09565b9091555050600f850154600003613f5b5742613f61565b84600f01545b84600201819055505050505050505050565b8460070154831115613f8957613f898884613c0b565b821561400357600060018501819055600f8601549003613fa95742613faf565b84600f01545b846002018190555082856007016000828254613fcb9190614d55565b9250508190555081856008016000828254613fe69190614d55565b90915550508454614001906001600160a01b0316888461400d565b505b5050505050505050565b6040516001600160a01b038316602482015260448101829052600090613afa90859063a9059cbb60e01b906064015b60408051601f198184030181529190526020810180516001600160e01b03166001600160e01b03199093169290921790915261426e565b6040516001600160a01b03808516602483015283166044820152606481018290526000906135e89086906323b872dd60e01b9060840161403c565b949350505050565b600260ca54036141085760405162461bcd60e51b815260206004820152601f60248201527f5265656e7472616e637947756172643a207265656e7472616e742063616c6c006044820152606401610b66565b600260ca55565b60006112b08284614d55565b603380546001600160a01b038381166001600160a01b03198084168217909455603480549094169093556040519116919082907f8be0079c531659141344cd1fd0a4f28419497f9722a3daafe3b4186f6b6457e090600090a35050565b600054610100900460ff1661419f5760405162461bcd60e51b8152600401610b66906150b3565b613135614340565b6001600160a01b0381163b6142145760405162461bcd60e51b815260206004820152602d60248201527f455243313936373a206e657720696d706c656d656e746174696f6e206973206e60448201526c1bdd08184818dbdb9d1c9858dd609a1b6064820152608401610b66565b60008051602061513c83398151915280546001600160a01b0319166001600160a01b0392909216919091179055565b61424c83614370565b6000825111806142595750805b15613d705761426883836143b0565b50505050565b60006142c3826040518060400160405280602081526020017f5361666545524332303a206c6f772d6c6576656c2063616c6c206661696c6564815250856001600160a01b03166144a49092919063ffffffff16565b805190915015613d7057808060200190518101906142e191906150fe565b613d705760405162461bcd60e51b815260206004820152602a60248201527f5361666545524332303a204552433230206f7065726174696f6e20646964206e6044820152691bdd081cdd58d8d9595960b21b6064820152608401610b66565b600054610100900460ff166143675760405162461bcd60e51b8152600401610b66906150b3565b6131353361411b565b614379816141a7565b6040516001600160a01b038216907fbc7cd75a20ee27fd9adebab32041f755214dbc6bffa90cc0225b39da2e5c2d3b90600090a250565b60606001600160a01b0383163b6144185760405162461bcd60e51b815260206004820152602660248201527f416464726573733a2064656c65676174652063616c6c20746f206e6f6e2d636f6044820152651b9d1c9858dd60d21b6064820152608401610b66565b600080846001600160a01b0316846040516144339190614e11565b600060405180830381855af49150503d806000811461446e576040519150601f19603f3d011682016040523d82523d6000602084013e614473565b606091505b509150915061449b828260405180606001604052806027815260200161515c602791396144b3565b95945050505050565b60606140ae84846000856144cc565b606083156144c25750816112b0565b6112b0838361459c565b60608247101561452d5760405162461bcd60e51b815260206004820152602660248201527f416464726573733a20696e73756666696369656e742062616c616e636520666f6044820152651c8818d85b1b60d21b6064820152608401610b66565b600080866001600160a01b031685876040516145499190614e11565b60006040518083038185875af1925050503d8060008114614586576040519150601f19603f3d011682016040523d82523d6000602084013e61458b565b606091505b509150915061243d878383876145c6565b8151156145ac5781518083602001fd5b8060405162461bcd60e51b8152600401610b669190614f5e565b6060831561463557825160000361462e576001600160a01b0385163b61462e5760405162461bcd60e51b815260206004820152601d60248201527f416464726573733a2063616c6c20746f206e6f6e2d636f6e74726163740000006044820152606401610b66565b50816140ae565b6140ae838361459c565b5080546000825590600052602060002090810190610c03919061477b565b604051806101e0016040528060006001600160a01b03168152602001600060ff168152602001600061ffff16815260200160006001600160a01b03168152602001606081526020016000815260200160008152602001600081526020016000815260200160008152602001600081526020016146fc60405180608001604052806000815260200160008152602001600081526020016000151581525090565b815260606020820181905260006040830181905291015290565b82805482825590600052602060002090810192821561476b579160200282015b8281111561476b57825182546001600160a01b0319166001600160a01b03909116178255602090920191600190910190614736565b5061477792915061477b565b5090565b5b80821115614777576000815560010161477c565b600080604083850312156147a357600080fd5b50508035926020909101359150565b6000602082840312156147c457600080fd5b5035919050565b60005b838110156147e65781810151838201526020016147ce565b50506000910152565b600081518084526148078160208601602086016147cb565b601f01601f19169290920160200192915050565b6001600160a01b038f16815260ff8e16602082015261ffff8d1660408201526001600160a01b038c1660608201526102206080820152600061486161022083018d6147ef565b90508a60a08301528960c08301528860e08301528761010083015286610120830152856101408301526148bb6101608301868051825260208101516020830152604081015160408301526060810151151560608301525050565b9215156101e082015261020001529c9b505050505050505050505050565b6001600160a01b0381168114610c0357600080fd5b60006020828403121561490057600080fd5b81356112b0816148d9565b60008060006060848603121561492057600080fd5b833592506020840135614932816148d9565b929592945050506040919091013590565b6000806040838503121561495657600080fd5b823591506020830135614968816148d9565b809150509250929050565b634e487b7160e01b600052604160045260246000fd5b600067ffffffffffffffff808411156149a4576149a4614973565b604051601f8501601f19908116603f011681019082821181831017156149cc576149cc614973565b816040528093508581528686860111156149e557600080fd5b858560208301376000602087830101525050509392505050565b60008060408385031215614a1257600080fd5b8235614a1d816148d9565b9150602083013567ffffffffffffffff811115614a3957600080fd5b8301601f81018513614a4a57600080fd5b614a5985823560208401614989565b9150509250929050565b8015158114610c0357600080fd5b600080600060608486031215614a8657600080fd5b83359250602084013591506040840135614a9f81614a63565b809150509250925092565b600082601f830112614abb57600080fd5b6112b083833560208501614989565b600080600060608486031215614adf57600080fd5b8335614aea816148d9565b92506020840135614afa816148d9565b9150604084013567ffffffffffffffff811115614b1657600080fd5b614b2286828701614aaa565b9150509250925092565b60008060408385031215614b3f57600080fd5b82359150602083013567ffffffffffffffff811115614b5d57600080fd5b614a5985828601614aaa565b60008060008060808587031215614b7f57600080fd5b8435935060208501359250604085013561ffff81168114614b9f57600080fd5b9396929550929360600135925050565b60008060408385031215614bc257600080fd5b8235614bcd816148d9565b91506020830135614968816148d9565b60008060408385031215614bf057600080fd5b8235614bfb816148d9565b9150602083013561496881614a63565b600181811c90821680614c1f57607f821691505b602082108103614c3f57634e487b7160e01b600052602260045260246000fd5b50919050565b6020808252602c908201527f46756e6374696f6e206d7573742062652063616c6c6564207468726f7567682060408201526b19195b1959d85d1958d85b1b60a21b606082015260800190565b6020808252602c908201527f46756e6374696f6e206d7573742062652063616c6c6564207468726f7567682060408201526b6163746976652070726f787960a01b606082015260800190565b634e487b7160e01b600052603260045260246000fd5b634e487b7160e01b600052601160045260246000fd5b8082018082111561169b5761169b614cf3565b808202811582820484141761169b5761169b614cf3565b600082614d5057634e487b7160e01b600052601260045260246000fd5b500490565b8181038181111561169b5761169b614cf3565b61ffff828116828216039080821115614d8357614d83614cf3565b5092915050565b6020808252600e908201526d139bdd08185d5d1a1bdc9a5e995960921b604082015260600190565b60208082526029908201527f54696d656c6f636b206e6f7420736574206f72206e6f7420636f6d706c6574656040820152686420696e2074696d6560b81b606082015260800190565b634e487b7160e01b600052603160045260246000fd5b60008251614e238184602087016147cb565b9190910192915050565b600060208284031215614e3f57600080fd5b815160ff811681146112b057600080fd5b601f821115613d7057600081815260208120601f850160051c81016020861015614e775750805b601f850160051c820191505b81811015614e9657828155600101614e83565b505050505050565b815167ffffffffffffffff811115614eb857614eb8614973565b614ecc81614ec68454614c0b565b84614e50565b602080601f831160018114614f015760008415614ee95750858301515b600019600386901b1c1916600185901b178555614e96565b600085815260208120601f198616915b82811015614f3057888601518255948401946001909101908401614f11565b5085821015614f4e5787850151600019600388901b60f8161c191681555b5050505050600190811b01905550565b6020815260006112b060208301846147ef565b600060208284031215614f8357600080fd5b81516112b0816148d9565b600181815b80851115614fc9578160001904821115614faf57614faf614cf3565b80851615614fbc57918102915b93841c9390800290614f93565b509250929050565b600082614fe05750600161169b565b81614fed5750600061169b565b8160018114615003576002811461500d57615029565b600191505061169b565b60ff84111561501e5761501e614cf3565b50506001821b61169b565b5060208310610133831016604e8410600b841016171561504c575081810a61169b565b6150568383614f8e565b806000190482111561506a5761506a614cf3565b029392505050565b60006112b060ff841683614fd1565b60006001820161509357615093614cf3565b5060010190565b6000602082840312156150ac57600080fd5b5051919050565b6020808252602b908201527f496e697469616c697a61626c653a20636f6e7472616374206973206e6f74206960408201526a6e697469616c697a696e6760a81b606082015260800190565b60006020828403121561511057600080fd5b81516112b081614a6356fea3ea4fb8dee4d414198cb197af6eae4fe483c1a0b849dc50e53b9bf1a60e2166360894a13ba1a3210667c828492db98dca3e2076cc3735a920a3ca505d382bbc416464726573733a206c6f772d6c6576656c2064656c65676174652063616c6c206661696c6564a264697066735822122074f3c2bea0006bb34476a39f1f8574a7408a21a375b2f1edc50d9ee74a113e8664736f6c63430008110033",
    "linkReferences": {}
  },
  "methodIdentifiers": {
    "acceptOwnershipTransfer()": "b842e87f",
    "activeStrategy(uint256)": "94254ccb",
    "activeTokens(uint256)": "9f224f35",
    "addNewBountyPool(address,address,string)": "804fd590",
    "billPremium(uint256)": "2dbe051e",
    "claimPremium(uint256)": "f47ec3be",
    "collectAllSaloonProfits(address)": "ecd7fbed",
    "collectSaloonProfits(address,address)": "cf9564b9",
    "deployStrategyIfNeeded(uint256,string)": "9f6f5b7c",
    "getMultiplier(uint256,uint256)": "8dbb1e3a",
    "initialize(address)": "c4d66de8",
    "makeProjectDeposit(uint256,uint256)": "57a86d3a",
    "owner()": "8da5cb5b",
    "payBounty(uint256,address,uint256)": "3ac6ad7b",
    "pendingToken(uint256,address)": "48e43af4",
    "pidStrategies(uint256,bytes32)": "074ecf03",
    "poolInfo(uint256)": "1526fe27",
    "poolLength()": "081e3eda",
    "projectDepositWithdrawal(uint256,uint256)": "983c1ce0",
    "proxiableUUID()": "52d1902d",
    "saloonBountyProfit(address)": "e45abd0f",
    "saloonPremiumProfit(address)": "ca006148",
    "scheduleProjectDepositWithdrawal(uint256,uint256)": "5669cbef",
    "scheduleUnstake(uint256,uint256)": "91635b4e",
    "setAPYandPoolCapAndDeposit(uint256,uint256,uint16,uint256)": "cee6b069",
    "stake(uint256,address,uint256)": "6e9c931c",
    "tokenWhitelist(address)": "753d7563",
    "transferOwnership(address)": "f2fde38b",
    "unstake(uint256,uint256,bool)": "79b91d69",
    "updateStrategyFactoryAddress(address)": "3538fda0",
    "updateTokenWhitelist(address,bool)": "e5e97c65",
    "upgradeTo(address)": "3659cfe6",
    "upgradeToAndCall(address,bytes)": "4f1ef286",
    "userInfo(uint256,address)": "93f1a40b",
    "viewBountyBalance(uint256)": "6ac6d812",
    "viewBountyInfo(uint256)": "40ef2868",
    "viewHackerPayout(uint256)": "861e5f66",
    "viewPoolAPY(uint256)": "a27f9213",
    "viewPoolCap(uint256)": "39679ff4",
    "viewPoolPremiumInfo(uint256)": "b1a2d16f",
    "viewPoolTimelockInfo(uint256)": "ac30b856",
    "viewSaloonProfitBalance(address)": "718c7eef",
    "viewTotalStaked(uint256)": "dbdd6957",
    "viewUserInfo(uint256,address)": "a754ecb0",
    "viewUserUnclaimed(uint256,address)": "5e3b748b",
    "windDownBounty(uint256)": "bb7019c1"
  },
  "id": 32
}