{
  "abi": [
    {
      "anonymous": false,
      "inputs": [
        {
          "indexed": false,
          "internalType": "address",
          "name": "previousAdmin",
          "type": "address"
        },
        {
          "indexed": false,
          "internalType": "address",
          "name": "newAdmin",
          "type": "address"
        }
      ],
      "name": "AdminChanged",
      "type": "event"
    },
    {
      "anonymous": false,
      "inputs": [
        {
          "indexed": true,
          "internalType": "address",
          "name": "beacon",
          "type": "address"
        }
      ],
      "name": "BeaconUpgraded",
      "type": "event"
    },
    {
      "anonymous": false,
      "inputs": [
        {
          "indexed": true,
          "internalType": "uint256",
          "name": "pid",
          "type": "uint256"
        },
        {
          "indexed": true,
          "internalType": "uint256",
          "name": "oldAmount",
          "type": "uint256"
        },
        {
          "indexed": true,
          "internalType": "uint256",
          "name": "newAmount",
          "type": "uint256"
        }
      ],
      "name": "BountyBalanceChanged",
      "type": "event"
    },
    {
      "anonymous": false,
      "inputs": [
        {
          "indexed": true,
          "internalType": "uint256",
          "name": "time",
          "type": "uint256"
        },
        {
          "indexed": true,
          "internalType": "address",
          "name": "hunter",
          "type": "address"
        },
        {
          "indexed": true,
          "internalType": "address",
          "name": "token",
          "type": "address"
        },
        {
          "indexed": false,
          "internalType": "uint256",
          "name": "amount",
          "type": "uint256"
        }
      ],
      "name": "BountyPaid",
      "type": "event"
    },
    {
      "anonymous": false,
      "inputs": [
        {
          "indexed": false,
          "internalType": "uint8",
          "name": "version",
          "type": "uint8"
        }
      ],
      "name": "Initialized",
      "type": "event"
    },
    {
      "anonymous": false,
      "inputs": [
        {
          "indexed": true,
          "internalType": "uint256",
          "name": "pid",
          "type": "uint256"
        },
        {
          "indexed": true,
          "internalType": "address",
          "name": "token",
          "type": "address"
        },
        {
          "indexed": true,
          "internalType": "uint256",
          "name": "tokenDecimals",
          "type": "uint256"
        }
      ],
      "name": "NewBountyDeployed",
      "type": "event"
    },
    {
      "anonymous": false,
      "inputs": [
        {
          "indexed": true,
          "internalType": "address",
          "name": "previousOwner",
          "type": "address"
        },
        {
          "indexed": true,
          "internalType": "address",
          "name": "newOwner",
          "type": "address"
        }
      ],
      "name": "OwnershipTransferred",
      "type": "event"
    },
    {
      "anonymous": false,
      "inputs": [
        {
          "indexed": true,
          "internalType": "uint256",
          "name": "pid",
          "type": "uint256"
        },
        {
          "indexed": true,
          "internalType": "uint256",
          "name": "amount",
          "type": "uint256"
        }
      ],
      "name": "PremiumBilled",
      "type": "event"
    },
    {
      "anonymous": false,
      "inputs": [
        {
          "indexed": true,
          "internalType": "address",
          "name": "user",
          "type": "address"
        },
        {
          "indexed": true,
          "internalType": "uint256",
          "name": "pid",
          "type": "uint256"
        },
        {
          "indexed": false,
          "internalType": "uint256",
          "name": "amount",
          "type": "uint256"
        }
      ],
      "name": "Staked",
      "type": "event"
    },
    {
      "anonymous": false,
      "inputs": [
        {
          "indexed": true,
          "internalType": "address",
          "name": "user",
          "type": "address"
        },
        {
          "indexed": true,
          "internalType": "uint256",
          "name": "pid",
          "type": "uint256"
        },
        {
          "indexed": false,
          "internalType": "uint256",
          "name": "amount",
          "type": "uint256"
        }
      ],
      "name": "Unstaked",
      "type": "event"
    },
    {
      "anonymous": false,
      "inputs": [
        {
          "indexed": true,
          "internalType": "address",
          "name": "implementation",
          "type": "address"
        }
      ],
      "name": "Upgraded",
      "type": "event"
    },
    {
      "anonymous": false,
      "inputs": [
        {
          "indexed": true,
          "internalType": "uint256",
          "name": "pid",
          "type": "uint256"
        },
        {
          "indexed": true,
          "internalType": "uint256",
          "name": "amount",
          "type": "uint256"
        }
      ],
      "name": "WithdrawalOrUnstakeScheduled",
      "type": "event"
    },
    {
      "anonymous": false,
      "inputs": [
        {
          "indexed": true,
          "internalType": "address",
          "name": "token",
          "type": "address"
        },
        {
          "indexed": true,
          "internalType": "bool",
          "name": "whitelisted",
          "type": "bool"
        }
      ],
      "name": "tokenWhitelistUpdated",
      "type": "event"
    },
    {
      "inputs": [],
      "name": "acceptOwnershipTransfer",
      "outputs": [],
      "stateMutability": "nonpayable",
      "type": "function"
    },
    {
      "inputs": [
        {
          "internalType": "uint256",
          "name": "",
          "type": "uint256"
        }
      ],
      "name": "activeTokens",
      "outputs": [
        {
          "internalType": "address",
          "name": "",
          "type": "address"
        }
      ],
      "stateMutability": "view",
      "type": "function"
    },
    {
      "inputs": [
        {
          "internalType": "address",
          "name": "_token",
          "type": "address"
        },
        {
          "internalType": "address",
          "name": "_projectWallet",
          "type": "address"
        },
        {
          "internalType": "string",
          "name": "_projectName",
          "type": "string"
        }
      ],
      "name": "addNewBountyPool",
      "outputs": [
        {
          "internalType": "uint256",
          "name": "",
          "type": "uint256"
        }
      ],
      "stateMutability": "nonpayable",
      "type": "function"
    },
    {
      "inputs": [
        {
          "internalType": "uint256",
          "name": "_pid",
          "type": "uint256"
        }
      ],
      "name": "billPremium",
      "outputs": [
        {
          "internalType": "bool",
          "name": "",
          "type": "bool"
        }
      ],
      "stateMutability": "nonpayable",
      "type": "function"
    },
    {
      "inputs": [
        {
          "internalType": "uint256",
          "name": "_pid",
          "type": "uint256"
        }
      ],
      "name": "claimPremium",
      "outputs": [],
      "stateMutability": "nonpayable",
      "type": "function"
    },
    {
      "inputs": [
        {
          "internalType": "address",
          "name": "_saloonWallet",
          "type": "address"
        }
      ],
      "name": "collectAllSaloonProfits",
      "outputs": [
        {
          "internalType": "bool",
          "name": "",
          "type": "bool"
        }
      ],
      "stateMutability": "nonpayable",
      "type": "function"
    },
    {
      "inputs": [
        {
          "internalType": "address",
          "name": "_token",
          "type": "address"
        },
        {
          "internalType": "address",
          "name": "_saloonWallet",
          "type": "address"
        }
      ],
      "name": "collectSaloonProfits",
      "outputs": [
        {
          "internalType": "bool",
          "name": "",
          "type": "bool"
        }
      ],
      "stateMutability": "nonpayable",
      "type": "function"
    },
    {
      "inputs": [
        {
          "internalType": "uint256",
          "name": "_from",
          "type": "uint256"
        },
        {
          "internalType": "uint256",
          "name": "_to",
          "type": "uint256"
        }
      ],
      "name": "getMultiplier",
      "outputs": [
        {
          "internalType": "uint256",
          "name": "",
          "type": "uint256"
        }
      ],
      "stateMutability": "pure",
      "type": "function"
    },
    {
      "inputs": [],
      "name": "initialize",
      "outputs": [],
      "stateMutability": "nonpayable",
      "type": "function"
    },
    {
      "inputs": [
        {
          "internalType": "uint256",
          "name": "_pid",
          "type": "uint256"
        },
        {
          "internalType": "uint256",
          "name": "_deposit",
          "type": "uint256"
        }
      ],
      "name": "makeProjectDeposit",
      "outputs": [],
      "stateMutability": "nonpayable",
      "type": "function"
    },
    {
      "inputs": [],
      "name": "owner",
      "outputs": [
        {
          "internalType": "address",
          "name": "",
          "type": "address"
        }
      ],
      "stateMutability": "view",
      "type": "function"
    },
    {
      "inputs": [
        {
          "internalType": "uint256",
          "name": "_pid",
          "type": "uint256"
        },
        {
          "internalType": "address",
          "name": "_hunter",
          "type": "address"
        },
        {
          "internalType": "uint256",
          "name": "_amount",
          "type": "uint256"
        }
      ],
      "name": "payBounty",
      "outputs": [
        {
          "internalType": "bool",
          "name": "",
          "type": "bool"
        }
      ],
      "stateMutability": "nonpayable",
      "type": "function"
    },
    {
      "inputs": [
        {
          "internalType": "uint256",
          "name": "_pid",
          "type": "uint256"
        },
        {
          "internalType": "address",
          "name": "_user",
          "type": "address"
        }
      ],
      "name": "pendingToken",
      "outputs": [
        {
          "internalType": "uint256",
          "name": "",
          "type": "uint256"
        }
      ],
      "stateMutability": "view",
      "type": "function"
    },
    {
      "inputs": [
        {
          "internalType": "uint256",
          "name": "",
          "type": "uint256"
        }
      ],
      "name": "poolInfo",
      "outputs": [
        {
          "internalType": "contract IERC20",
          "name": "token",
          "type": "address"
        },
        {
          "internalType": "uint8",
          "name": "tokenDecimals",
          "type": "uint8"
        },
        {
          "internalType": "uint16",
          "name": "apy",
          "type": "uint16"
        },
        {
          "internalType": "address",
          "name": "projectWallet",
          "type": "address"
        },
        {
          "internalType": "string",
          "name": "projectName",
          "type": "string"
        },
        {
          "internalType": "uint256",
          "name": "projectDeposit",
          "type": "uint256"
        },
        {
          "internalType": "uint256",
          "name": "poolCap",
          "type": "uint256"
        },
        {
          "internalType": "uint256",
          "name": "totalStaked",
          "type": "uint256"
        },
        {
          "internalType": "uint256",
          "name": "requiredPremiumBalancePerPeriod",
          "type": "uint256"
        },
        {
          "internalType": "uint256",
          "name": "premiumBalance",
          "type": "uint256"
        },
        {
          "internalType": "uint256",
          "name": "premiumAvailable",
          "type": "uint256"
        },
        {
          "components": [
            {
              "internalType": "uint256",
              "name": "timelock",
              "type": "uint256"
            },
            {
              "internalType": "uint256",
              "name": "timeLimit",
              "type": "uint256"
            },
            {
              "internalType": "uint256",
              "name": "withdrawalScheduledAmount",
              "type": "uint256"
            },
            {
              "internalType": "bool",
              "name": "withdrawalExecuted",
              "type": "bool"
            }
          ],
          "internalType": "struct ISaloon.TimelockInfo",
          "name": "poolTimelock",
          "type": "tuple"
        },
        {
          "internalType": "bool",
          "name": "isActive",
          "type": "bool"
        },
        {
          "internalType": "uint256",
          "name": "freezeTime",
          "type": "uint256"
        }
      ],
      "stateMutability": "view",
      "type": "function"
    },
    {
      "inputs": [],
      "name": "poolLength",
      "outputs": [
        {
          "internalType": "uint256",
          "name": "",
          "type": "uint256"
        }
      ],
      "stateMutability": "view",
      "type": "function"
    },
    {
      "inputs": [
        {
          "internalType": "uint256",
          "name": "_pid",
          "type": "uint256"
        },
        {
          "internalType": "uint256",
          "name": "_amount",
          "type": "uint256"
        }
      ],
      "name": "projectDepositWithdrawal",
      "outputs": [
        {
          "internalType": "bool",
          "name": "",
          "type": "bool"
        }
      ],
      "stateMutability": "nonpayable",
      "type": "function"
    },
    {
      "inputs": [],
      "name": "proxiableUUID",
      "outputs": [
        {
          "internalType": "bytes32",
          "name": "",
          "type": "bytes32"
        }
      ],
      "stateMutability": "view",
      "type": "function"
    },
    {
      "inputs": [],
      "name": "renounceOwnership",
      "outputs": [],
      "stateMutability": "view",
      "type": "function"
    },
    {
      "inputs": [
        {
          "internalType": "address",
          "name": "",
          "type": "address"
        }
      ],
      "name": "saloonBountyProfit",
      "outputs": [
        {
          "internalType": "uint256",
          "name": "",
          "type": "uint256"
        }
      ],
      "stateMutability": "view",
      "type": "function"
    },
    {
      "inputs": [
        {
          "internalType": "address",
          "name": "",
          "type": "address"
        }
      ],
      "name": "saloonPremiumProfit",
      "outputs": [
        {
          "internalType": "uint256",
          "name": "",
          "type": "uint256"
        }
      ],
      "stateMutability": "view",
      "type": "function"
    },
    {
      "inputs": [
        {
          "internalType": "uint256",
          "name": "_pid",
          "type": "uint256"
        },
        {
          "internalType": "uint256",
          "name": "_amount",
          "type": "uint256"
        }
      ],
      "name": "scheduleProjectDepositWithdrawal",
      "outputs": [
        {
          "internalType": "bool",
          "name": "",
          "type": "bool"
        }
      ],
      "stateMutability": "nonpayable",
      "type": "function"
    },
    {
      "inputs": [
        {
          "internalType": "uint256",
          "name": "_pid",
          "type": "uint256"
        },
        {
          "internalType": "uint256",
          "name": "_amount",
          "type": "uint256"
        }
      ],
      "name": "scheduleUnstake",
      "outputs": [
        {
          "internalType": "bool",
          "name": "",
          "type": "bool"
        }
      ],
      "stateMutability": "nonpayable",
      "type": "function"
    },
    {
      "inputs": [
        {
          "internalType": "uint256",
          "name": "_pid",
          "type": "uint256"
        },
        {
          "internalType": "uint256",
          "name": "_poolCap",
          "type": "uint256"
        },
        {
          "internalType": "uint16",
          "name": "_apy",
          "type": "uint16"
        },
        {
          "internalType": "uint256",
          "name": "_deposit",
          "type": "uint256"
        }
      ],
      "name": "setAPYandPoolCapAndDeposit",
      "outputs": [],
      "stateMutability": "nonpayable",
      "type": "function"
    },
    {
      "inputs": [
        {
          "internalType": "uint256",
          "name": "_pid",
          "type": "uint256"
        },
        {
          "internalType": "address",
          "name": "_user",
          "type": "address"
        },
        {
          "internalType": "uint256",
          "name": "_amount",
          "type": "uint256"
        }
      ],
      "name": "stake",
      "outputs": [
        {
          "internalType": "bool",
          "name": "",
          "type": "bool"
        }
      ],
      "stateMutability": "nonpayable",
      "type": "function"
    },
    {
      "inputs": [
        {
          "internalType": "address",
          "name": "",
          "type": "address"
        }
      ],
      "name": "tokenWhitelist",
      "outputs": [
        {
          "internalType": "bool",
          "name": "",
          "type": "bool"
        }
      ],
      "stateMutability": "view",
      "type": "function"
    },
    {
      "inputs": [
        {
          "internalType": "address",
          "name": "newOwner",
          "type": "address"
        }
      ],
      "name": "transferOwnership",
      "outputs": [],
      "stateMutability": "nonpayable",
      "type": "function"
    },
    {
      "inputs": [
        {
          "internalType": "uint256",
          "name": "_pid",
          "type": "uint256"
        },
        {
          "internalType": "uint256",
          "name": "_amount",
          "type": "uint256"
        }
      ],
      "name": "unstake",
      "outputs": [
        {
          "internalType": "bool",
          "name": "",
          "type": "bool"
        }
      ],
      "stateMutability": "nonpayable",
      "type": "function"
    },
    {
      "inputs": [
        {
          "internalType": "address",
          "name": "_token",
          "type": "address"
        },
        {
          "internalType": "bool",
          "name": "_whitelisted",
          "type": "bool"
        }
      ],
      "name": "updateTokenWhitelist",
      "outputs": [
        {
          "internalType": "bool",
          "name": "",
          "type": "bool"
        }
      ],
      "stateMutability": "nonpayable",
      "type": "function"
    },
    {
      "inputs": [
        {
          "internalType": "address",
          "name": "newImplementation",
          "type": "address"
        }
      ],
      "name": "upgradeTo",
      "outputs": [],
      "stateMutability": "nonpayable",
      "type": "function"
    },
    {
      "inputs": [
        {
          "internalType": "address",
          "name": "newImplementation",
          "type": "address"
        },
        {
          "internalType": "bytes",
          "name": "data",
          "type": "bytes"
        }
      ],
      "name": "upgradeToAndCall",
      "outputs": [],
      "stateMutability": "payable",
      "type": "function"
    },
    {
      "inputs": [
        {
          "internalType": "uint256",
          "name": "",
          "type": "uint256"
        },
        {
          "internalType": "address",
          "name": "",
          "type": "address"
        }
      ],
      "name": "userInfo",
      "outputs": [
        {
          "internalType": "uint256",
          "name": "amount",
          "type": "uint256"
        },
        {
          "internalType": "uint256",
          "name": "unclaimed",
          "type": "uint256"
        },
        {
          "internalType": "uint256",
          "name": "lastRewardTime",
          "type": "uint256"
        },
        {
          "internalType": "uint256",
          "name": "timelock",
          "type": "uint256"
        },
        {
          "internalType": "uint256",
          "name": "timeLimit",
          "type": "uint256"
        },
        {
          "internalType": "uint256",
          "name": "unstakeScheduledAmount",
          "type": "uint256"
        },
        {
          "internalType": "bool",
          "name": "unstakeExecuted",
          "type": "bool"
        }
      ],
      "stateMutability": "view",
      "type": "function"
    },
    {
      "inputs": [
        {
          "internalType": "uint256",
          "name": "_pid",
          "type": "uint256"
        }
      ],
      "name": "viewBountyBalance",
      "outputs": [
        {
          "internalType": "uint256",
          "name": "",
          "type": "uint256"
        }
      ],
      "stateMutability": "view",
      "type": "function"
    },
    {
      "inputs": [
        {
          "internalType": "uint256",
          "name": "_pid",
          "type": "uint256"
        }
      ],
      "name": "viewBountyInfo",
      "outputs": [
        {
          "internalType": "uint256",
          "name": "payout",
          "type": "uint256"
        },
        {
          "internalType": "uint256",
          "name": "apy",
          "type": "uint256"
        },
        {
          "internalType": "uint256",
          "name": "staked",
          "type": "uint256"
        },
        {
          "internalType": "uint256",
          "name": "poolCap",
          "type": "uint256"
        }
      ],
      "stateMutability": "view",
      "type": "function"
    },
    {
      "inputs": [
        {
          "internalType": "uint256",
          "name": "_pid",
          "type": "uint256"
        }
      ],
      "name": "viewHackerPayout",
      "outputs": [
        {
          "internalType": "uint256",
          "name": "",
          "type": "uint256"
        }
      ],
      "stateMutability": "view",
      "type": "function"
    },
    {
      "inputs": [
        {
          "internalType": "uint256",
          "name": "_pid",
          "type": "uint256"
        }
      ],
      "name": "viewPoolAPY",
      "outputs": [
        {
          "internalType": "uint256",
          "name": "",
          "type": "uint256"
        }
      ],
      "stateMutability": "view",
      "type": "function"
    },
    {
      "inputs": [
        {
          "internalType": "uint256",
          "name": "_pid",
          "type": "uint256"
        }
      ],
      "name": "viewPoolCap",
      "outputs": [
        {
          "internalType": "uint256",
          "name": "",
          "type": "uint256"
        }
      ],
      "stateMutability": "view",
      "type": "function"
    },
    {
      "inputs": [
        {
          "internalType": "uint256",
          "name": "_pid",
          "type": "uint256"
        }
      ],
      "name": "viewPoolPremiumInfo",
      "outputs": [
        {
          "internalType": "uint256",
          "name": "requiredPremiumBalancePerPeriod",
          "type": "uint256"
        },
        {
          "internalType": "uint256",
          "name": "premiumBalance",
          "type": "uint256"
        }
      ],
      "stateMutability": "view",
      "type": "function"
    },
    {
      "inputs": [
        {
          "internalType": "uint256",
          "name": "_pid",
          "type": "uint256"
        }
      ],
      "name": "viewPoolTimelockInfo",
      "outputs": [
        {
          "internalType": "uint256",
          "name": "timelock",
          "type": "uint256"
        },
        {
          "internalType": "uint256",
          "name": "timeLimit",
          "type": "uint256"
        },
        {
          "internalType": "uint256",
          "name": "withdrawalScheduledAmount",
          "type": "uint256"
        }
      ],
      "stateMutability": "view",
      "type": "function"
    },
    {
      "inputs": [
        {
          "internalType": "address",
          "name": "_token",
          "type": "address"
        }
      ],
      "name": "viewSaloonProfitBalance",
      "outputs": [
        {
          "internalType": "uint256",
          "name": "totalProfit",
          "type": "uint256"
        },
        {
          "internalType": "uint256",
          "name": "bountyProfit",
          "type": "uint256"
        },
        {
          "internalType": "uint256",
          "name": "premiumProfit",
          "type": "uint256"
        }
      ],
      "stateMutability": "view",
      "type": "function"
    },
    {
      "inputs": [
        {
          "internalType": "uint256",
          "name": "_pid",
          "type": "uint256"
        },
        {
          "internalType": "address",
          "name": "_user",
          "type": "address"
        }
      ],
      "name": "viewStake",
      "outputs": [
        {
          "internalType": "uint256",
          "name": "",
          "type": "uint256"
        }
      ],
      "stateMutability": "view",
      "type": "function"
    },
    {
      "inputs": [
        {
          "internalType": "uint256",
          "name": "_pid",
          "type": "uint256"
        }
      ],
      "name": "viewTotalStaked",
      "outputs": [
        {
          "internalType": "uint256",
          "name": "",
          "type": "uint256"
        }
      ],
      "stateMutability": "view",
      "type": "function"
    },
    {
      "inputs": [
        {
          "internalType": "uint256",
          "name": "_pid",
          "type": "uint256"
        },
        {
          "internalType": "address",
          "name": "_user",
          "type": "address"
        }
      ],
      "name": "viewUserInfo",
      "outputs": [
        {
          "internalType": "uint256",
          "name": "amount",
          "type": "uint256"
        },
        {
          "internalType": "uint256",
          "name": "unclaimed",
          "type": "uint256"
        }
      ],
      "stateMutability": "view",
      "type": "function"
    },
    {
      "inputs": [
        {
          "internalType": "uint256",
          "name": "_pid",
          "type": "uint256"
        }
      ],
      "name": "windDownBounty",
      "outputs": [
        {
          "internalType": "bool",
          "name": "",
          "type": "bool"
        }
      ],
      "stateMutability": "nonpayable",
      "type": "function"
    }
  ],
  "bytecode": {
    "object": "0x60a06040523060805234801561001457600080fd5b50600160c955608051614e3f61005160003960008181610a9101528181610ada015281816112f80152818161133801526113cb0152614e3f6000f3fe60806040526004361061025c5760003560e01c80638da5cb5b11610144578063b842e87f116100b6578063dbdd69571161007a578063dbdd69571461081e578063e45abd0f1461083e578063e5e97c651461086b578063ecd7fbed1461088b578063f2fde38b146108ab578063f47ec3be146108cb57600080fd5b8063b842e87f1461077c578063bb7019c114610791578063ca006148146107b1578063cee6b069146107de578063cf9564b9146107fe57600080fd5b80639e2c8a5b116101085780639e2c8a5b1461067d5780639f224f351461069d578063a27f9213146106bd578063a754ecb0146106dd578063ac30b8561461073c578063b1a2d16f1461075c57600080fd5b80638da5cb5b1461054e5780638dbb1e3a1461058057806391635b4e146105a057806393f1a40b146105c0578063983c1ce01461065d57600080fd5b806352d1902d116101dd578063715018a6116101a1578063715018a614610479578063718c7eef1461048e578063753d7563146104c9578063804fd590146104f95780638129fc1c14610519578063861e5f661461052e57600080fd5b806352d1902d146103e45780635669cbef146103f957806357a86d3a146104195780636ac6d812146104395780636e9c931c1461045957600080fd5b806339679ff41161022457806339679ff4146103315780633ac6ad7b1461035157806340ef28681461037157806348e43af4146103b15780634f1ef286146103d157600080fd5b8063081e3eda1461026157806313c6f76d146102855780631526fe27146102a55780632dbe051e146102df5780633659cfe61461030f575b600080fd5b34801561026d57600080fd5b5060cd545b6040519081526020015b60405180910390f35b34801561029157600080fd5b506102726102a036600461451a565b6108eb565b3480156102b157600080fd5b506102c56102c0366004614546565b610915565b60405161027c9e9d9c9b9a999897969594939291906145af565b3480156102eb57600080fd5b506102ff6102fa366004614546565b610a6a565b604051901515815260200161027c565b34801561031b57600080fd5b5061032f61032a36600461466d565b610a87565b005b34801561033d57600080fd5b5061027261034c366004614546565b610b6f565b34801561035d57600080fd5b506102ff61036c366004614688565b610d8d565b34801561037d57600080fd5b5061039161038c366004614546565b6111c9565b60408051948552602085019390935291830152606082015260800161027c565b3480156103bd57600080fd5b506102726103cc36600461451a565b611202565b61032f6103df366004614749565b6112ee565b3480156103f057600080fd5b506102726113be565b34801561040557600080fd5b506102ff6104143660046147ab565b611471565b34801561042557600080fd5b5061032f6104343660046147ab565b611592565b34801561044557600080fd5b50610272610454366004614546565b61166c565b34801561046557600080fd5b506102ff610474366004614688565b611895565b34801561048557600080fd5b5061032f611cdf565b34801561049a57600080fd5b506104ae6104a936600461466d565b611d1d565b6040805193845260208401929092529082015260600161027c565b3480156104d557600080fd5b506102ff6104e436600461466d565b60cf6020526000908152604090205460ff1681565b34801561050557600080fd5b506102726105143660046147cd565b611d53565b34801561052557600080fd5b5061032f611ff8565b34801561053a57600080fd5b50610272610549366004614546565b612108565b34801561055a57600080fd5b506033546001600160a01b03165b6040516001600160a01b03909116815260200161027c565b34801561058c57600080fd5b5061027261059b3660046147ab565b61234d565b3480156105ac57600080fd5b506102ff6105bb3660046147ab565b612359565b3480156105cc57600080fd5b506106266105db36600461451a565b60ce6020908152600092835260408084209091529082529020805460018201546002830154600384015460048501546005860154600690960154949593949293919290919060ff1687565b604080519788526020880196909652948601939093526060850191909152608084015260a0830152151560c082015260e00161027c565b34801561066957600080fd5b506102ff6106783660046147ab565b61243e565b34801561068957600080fd5b506102ff6106983660046147ab565b612595565b3480156106a957600080fd5b506105686106b8366004614546565b61288b565b3480156106c957600080fd5b506102726106d8366004614546565b6128b5565b3480156106e957600080fd5b506107276106f836600461451a565b600091825260ce602090815260408084206001600160a01b039093168452919052902080546001909101549091565b6040805192835260208301919091520161027c565b34801561074857600080fd5b506104ae610757366004614546565b612ad5565b34801561076857600080fd5b50610727610777366004614546565b612d0c565b34801561078857600080fd5b5061032f612f39565b34801561079d57600080fd5b506102ff6107ac366004614546565b612fc6565b3480156107bd57600080fd5b506102726107cc36600461466d565b60cc6020526000908152604090205481565b3480156107ea57600080fd5b5061032f6107f936600461483f565b61304b565b34801561080a57600080fd5b506102ff610819366004614885565b6132d1565b34801561082a57600080fd5b50610272610839366004614546565b613348565b34801561084a57600080fd5b5061027261085936600461466d565b60cb6020526000908152604090205481565b34801561087757600080fd5b506102ff6108863660046148bd565b613566565b34801561089757600080fd5b506102ff6108a636600461466d565b613793565b3480156108b757600080fd5b5061032f6108c636600461466d565b61385b565b3480156108d757600080fd5b5061032f6108e6366004614546565b6138ea565b600082815260ce602090815260408083206001600160a01b03851684529091529020545b92915050565b60cd818154811061092557600080fd5b60009182526020909120601090910201805460018201546002830180546001600160a01b038085169650600160a01b850460ff1695600160a81b90950461ffff16949316929190610975906148f4565b80601f01602080910402602001604051908101604052809291908181526020018280546109a1906148f4565b80156109ee5780601f106109c3576101008083540402835291602001916109ee565b820191906000526020600020905b8154815290600101906020018083116109d157829003601f168201915b5050506003840154600485015460058601546006870154600788015460088901546040805160808101825260098c01548152600a8c01546020820152600b8c015491810191909152600c8b015460ff90811615156060830152600e8c0154600f909c01549a9b979a96995094975092959194909391909116908e565b6000610a74613906565b610a7f826000613962565b505050919050565b6001600160a01b037f0000000000000000000000000000000000000000000000000000000000000000163003610ad85760405162461bcd60e51b8152600401610acf9061492e565b60405180910390fd5b7f00000000000000000000000000000000000000000000000000000000000000006001600160a01b0316610b21600080516020614dc3833981519152546001600160a01b031690565b6001600160a01b031614610b475760405162461bcd60e51b8152600401610acf9061497a565b610b5081613a99565b60408051600080825260208201909252610b6c91839190613aa1565b50565b60008060cd8381548110610b8557610b856149c6565b6000918252602091829020604080516101e081018252601090930290910180546001600160a01b03808216855260ff600160a01b8304169585019590955261ffff600160a81b909104169183019190915260018101549092166060820152600282018054919291608084019190610bfb906148f4565b80601f0160208091040260200160405190810160405280929190818152602001828054610c27906148f4565b8015610c745780601f10610c4957610100808354040283529160200191610c74565b820191906000526020600020905b815481529060010190602001808311610c5757829003601f168201915b50505050508152602001600382015481526020016004820154815260200160058201548152602001600682015481526020016007820154815260200160088201548152602001600982016040518060800160405290816000820154815260200160018201548152602001600282015481526020016003820160009054906101000a900460ff1615151515815250508152602001600d8201805480602002602001604051908101604052809291908181526020018280548015610d5f57602002820191906000526020600020905b81546001600160a01b03168152600190910190602001808311610d41575b5050509183525050600e82015460ff1615156020820152600f9091015460409091015260c001519392505050565b6000610d97613906565b600060cd8581548110610dac57610dac6149c6565b906000526020600020906010020190506000816005015490506000826003015482610dd791906149f2565b9050818511610f5d57818503610e7457600d83015460005b81811015610e5657600085600d018281548110610e0e57610e0e6149c6565b60009182526020808320909101548c835260ce825260408084206001600160a01b03909216808552919092529120909150610e498b83613c11565b6000905550600101610def565b50600060058501819055610e6e90600d8601906143b2565b506110ff565b600082610e836103e888614a05565b610e8d9190614a1c565b600d85015490915060005b81811015610f5557600086600d018281548110610eb757610eb76149c6565b60009182526020808320909101548d835260ce825260408084206001600160a01b03909216808552919092529120909150610ef28c83613c11565b80546000906103e890610f06908890614a05565b610f109190614a1c565b905080826000016000828254610f269190614a3e565b9250508190555080896005016000828254610f419190614a3e565b909155505060019093019250610e98915050565b5050506110ff565b8185118015610f6f5750826003015485105b1561102a57600d83015460005b81811015610fe357600085600d018281548110610f9b57610f9b6149c6565b60009182526020808320909101548c835260ce825260408084206001600160a01b03909216808552919092529120909150610fd68b83613c11565b6000905550600101610f7c565b50600060058501819055610ffb90600d8601906143b2565b60006110078484614a3e565b90508085600301600082825461101d9190614a3e565b909155506110ff92505050565b8085036110c557600d83015460005b818110156110a057600085600d018281548110611058576110586149c6565b60009182526020808320909101548c835260ce825260408084206001600160a01b039092168085529190925291209091506110938b83613c11565b6000905550600101611039565b506000600585018190556110b890600d8601906143b2565b50600060038401556110ff565b60405162461bcd60e51b815260206004820152600f60248201526e082dadeeadce840e8dede40d0d2ced608b1b6044820152606401610acf565b60006127106111106103e888614a05565b61111a9190614a1c565b905060006111288288614a3e565b85546001600160a01b0316600090815260cb60205260408120805492935084929091906111569084906149f2565b90915550508454611171906001600160a01b03168983613d7f565b5084546040518881526001600160a01b03918216918a169042907fc351e6e0f377ec1a399ec84224a83d6a4b9f3cd9a5530e5c652d0b11c2f8dae29060200160405180910390a46001955050505050505b9392505050565b6000806000806111d885612108565b93506111e385613348565b91506111ee856128b5565b92506111f985610b6f565b90509193509193565b60008060cd8481548110611218576112186149c6565b6000918252602080832087845260ce825260408085206001600160a01b0389168652909252908320601092909202016005810154600f82015491945091929081908103611265574261126b565b84600f01545b905083600201548111801561127f57508215155b156112e357600061129485600201548361234d565b865486549192506000916301e13380918491612710916112c091600160a81b90910461ffff1690614a05565b6112ca9190614a1c565b6112d49190614a05565b6112de9190614a1c565b935050505b509695505050505050565b6001600160a01b037f00000000000000000000000000000000000000000000000000000000000000001630036113365760405162461bcd60e51b8152600401610acf9061492e565b7f00000000000000000000000000000000000000000000000000000000000000006001600160a01b031661137f600080516020614dc3833981519152546001600160a01b031690565b6001600160a01b0316146113a55760405162461bcd60e51b8152600401610acf9061497a565b6113ae82613a99565b6113ba82826001613aa1565b5050565b6000306001600160a01b037f0000000000000000000000000000000000000000000000000000000000000000161461145e5760405162461bcd60e51b815260206004820152603860248201527f555550535570677261646561626c653a206d757374206e6f742062652063616c60448201527f6c6564207468726f7567682064656c656761746563616c6c00000000000000006064820152608401610acf565b50600080516020614dc383398151915290565b60008060cd8481548110611487576114876149c6565b9060005260206000209060100201905082816003015410156114eb5760405162461bcd60e51b815260206004820152601a60248201527f416d6f756e7420626967676572207468616e206465706f7369740000000000006044820152606401610acf565b60018101546001600160a01b031633146115175760405162461bcd60e51b8152600401610acf90614a51565b61152462093a80426149f2565b600982015561153662093a80426149f2565b611543906203f4806149f2565b600a820155600b8101839055600c8101805460ff19169055604051839085907fb3b9c925de3673837b40c6b4d4463a8f88dc821cd27e07f1ff6bf6abf96413a590600090a35060019392505050565b600060cd83815481106115a7576115a76149c6565b6000918252602090912060109091020160018101549091506001600160a01b031633146115e65760405162461bcd60e51b8152600401610acf90614a51565b6000816003015482600501546115fc91906149f2565b8254909150611616906001600160a01b0316333086613def565b508282600301600082825461162b91906149f2565b909155505060038201546005830154600091611646916149f2565b9050808286600080516020614da383398151915260405160405180910390a45050505050565b60008060cd8381548110611682576116826149c6565b6000918252602091829020604080516101e081018252601090930290910180546001600160a01b03808216855260ff600160a01b8304169585019590955261ffff600160a81b9091041691830191909152600181015490921660608201526002820180549192916080840191906116f8906148f4565b80601f0160208091040260200160405190810160405280929190818152602001828054611724906148f4565b80156117715780601f1061174657610100808354040283529160200191611771565b820191906000526020600020905b81548152906001019060200180831161175457829003601f168201915b50505050508152602001600382015481526020016004820154815260200160058201548152602001600682015481526020016007820154815260200160088201548152602001600982016040518060800160405290816000820154815260200160018201548152602001600282015481526020016003820160009054906101000a900460ff1615151515815250508152602001600d820180548060200260200160405190810160405280929190818152602001828054801561185c57602002820191906000526020600020905b81546001600160a01b0316815260019091019060200180831161183e575b5050509183525050600e82015460ff1615156020820152600f9091015460409091015260a081015160e08201519192506111c2916149f2565b600061189f613e32565b83600060cd82815481106118b5576118b56149c6565b6000918252602091829020604080516101e081018252601090930290910180546001600160a01b03808216855260ff600160a01b8304169585019590955261ffff600160a81b90910416918301919091526001810154909216606082015260028201805491929160808401919061192b906148f4565b80601f0160208091040260200160405190810160405280929190818152602001828054611957906148f4565b80156119a45780601f10611979576101008083540402835291602001916119a4565b820191906000526020600020905b81548152906001019060200180831161198757829003601f168201915b50505050508152602001600382015481526020016004820154815260200160058201548152602001600682015481526020016007820154815260200160088201548152602001600982016040518060800160405290816000820154815260200160018201548152602001600282015481526020016003820160009054906101000a900460ff1615151515815250508152602001600d8201805480602002602001604051908101604052809291908181526020018280548015611a8f57602002820191906000526020600020905b81546001600160a01b03168152600190910190602001808311611a71575b5050509183525050600e82015460ff1615156020820152600f909101546040909101526101a0810151909150611af95760405162461bcd60e51b815260206004820152600f60248201526e706f6f6c206e6f742061637469766560881b6044820152606401610acf565b60008411611b0657600080fd5b600060cd8781548110611b1b57611b1b6149c6565b600091825260208083208a845260ce825260408085206001600160a01b038c1686529092529083206010929092020160038101546005820154919450919291611b63916149f2565b9050611b6f8989613c11565b8154600003611ba957600d83018054600181018255600091825260209091200180546001600160a01b0319166001600160a01b038a161790555b8254611bc0906001600160a01b031633308a613def565b5086826000016000828254611bd591906149f2565b9250508190555086836005016000828254611bf091906149f2565b9091555050600483015415801590611c1057508260040154836005015411155b611c525760405162461bcd60e51b8152602060048201526013602482015272115e18d959591959081c1bdbdb081b1a5b5a5d606a1b6044820152606401610acf565b88886001600160a01b03167f1449c6dd7851abc30abf37f57715f492010519147cc2652fbc38202c18a6ee9089604051611c8e91815260200190565b60405180910390a3600083600301548460050154611cac91906149f2565b905080828b600080516020614da383398151915260405160405180910390a4600196505050505050506111c2600160c955565b611ce7613906565b60405162461bcd60e51b815260206004820152600b60248201526a1b9bdd08185b1b1bddd95960aa1b6044820152606401610acf565b6001600160a01b038116600090815260cb602090815260408083205460cc909252822054611d4b82826149f2565b949193509150565b6000611d5d613906565b6001600160a01b038416600090815260cf602052604090205460ff16611dbd5760405162461bcd60e51b81526020600482015260156024820152741d1bdad95b881b9bdd081dda1a5d195b1a5cdd1959605a1b6044820152606401610acf565b611dc56143d0565b6001600160a01b03808616825260126020808401918252868316606080860191825260808601888152600060a08801819052604080890182815260c08a0183905260e08a018390526101608a0180518490528051909701839052865190910182905294519092018290526101a087018290526101c0870182905260cd80546001810182559252865160109092027f83978b4c69c48dd978ab43fe30f077615294f938fb7f936d9eb340e51ea7db2e810180549651955161ffff16600160a81b0261ffff60a81b1960ff97909716600160a01b026001600160a81b031990981694891694909417969096179490941691909117845590517f83978b4c69c48dd978ab43fe30f077615294f938fb7f936d9eb340e51ea7db2f83018054919095166001600160a01b03199190911617909355915183927f83978b4c69c48dd978ab43fe30f077615294f938fb7f936d9eb340e51ea7db300190611f269082614ac7565b5060a0820151600382015560c0820151600482015560e0820151600582015561010082015160068201556101208201516007820155610140820151600882015561016082015180516009830155602080820151600a8401556040820151600b840155606090910151600c8301805460ff19169115159190911790556101808301518051611fb992600d8501920190614489565b506101a0820151600e8201805460ff19169115159190911790556101c090910151600f9091015560cd54611fef90600190614a3e565b95945050505050565b600054610100900460ff16158080156120185750600054600160ff909116105b806120325750303b158015612032575060005460ff166001145b6120955760405162461bcd60e51b815260206004820152602e60248201527f496e697469616c697a61626c653a20636f6e747261637420697320616c72656160448201526d191e481a5b9a5d1a585b1a5e995960921b6064820152608401610acf565b6000805460ff1916600117905580156120b8576000805461ff0019166101001790555b6120c0613e8b565b8015610b6c576000805461ff0019169055604051600181527f7f26b83ff96e1f2b6a682f133852f6798a09c465da95921460cefb38474024989060200160405180910390a150565b60008060cd838154811061211e5761211e6149c6565b6000918252602091829020604080516101e081018252601090930290910180546001600160a01b03808216855260ff600160a01b8304169585019590955261ffff600160a81b909104169183019190915260018101549092166060820152600282018054919291608084019190612194906148f4565b80601f01602080910402602001604051908101604052809291908181526020018280546121c0906148f4565b801561220d5780601f106121e25761010080835404028352916020019161220d565b820191906000526020600020905b8154815290600101906020018083116121f057829003601f168201915b50505050508152602001600382015481526020016004820154815260200160058201548152602001600682015481526020016007820154815260200160088201548152602001600982016040518060800160405290816000820154815260200160018201548152602001600282015481526020016003820160009054906101000a900460ff1615151515815250508152602001600d82018054806020026020016040519081016040528092919081815260200182805480156122f857602002820191906000526020600020905b81546001600160a01b031681526001909101906020018083116122da575b5050509183525050600e82015460ff1615156020820152600f9091015460409091015260a081015160e0820151919250612710916103e891612339916149f2565b6123439190614a05565b6111c29190614a1c565b60006111c28284613eba565b600082815260ce60209081526040808320338452909152812080548311156123c35760405162461bcd60e51b815260206004820152601a60248201527f416d6f756e7420626967676572207468616e206465706f7369740000000000006044820152606401610acf565b6123d062093a80426149f2565b60038201556123e262093a80426149f2565b6123ef906203f4806149f2565b60048201556005810183905560068101805460ff19169055604051839085907fb3b9c925de3673837b40c6b4d4463a8f88dc821cd27e07f1ff6bf6abf96413a590600090a35060019392505050565b60008060cd8481548110612454576124546149c6565b6000918252602090912060109091020160018101549091506001600160a01b031633146124935760405162461bcd60e51b8152600401610acf90614a51565b6009810154421180156124a95750600a81015442105b80156124ba5750600c81015460ff16155b80156124ca5750600b8101548311155b80156124d95750600981015415155b6124f55760405162461bcd60e51b8152600401610acf90614b87565b600c8101805460ff191660011790556003810154600582015460009161251a916149f2565b9050838260030160008282546125309190614a3e565b909155505060018201548254612553916001600160a01b03918216911686613d7f565b5060008260030154836005015461256a91906149f2565b9050808287600080516020614da383398151915260405160405180910390a450600195945050505050565b600061259f613e32565b600060cd84815481106125b4576125b46149c6565b6000918252602080832087845260ce8252604080852033865290925292208054601090920290920192508411156126225760405162461bcd60e51b81526020600482015260126024820152711dda5d1a191c985dce881b9bdd0819dbdbd960721b6044820152606401610acf565b4281600301541080156126385750428160040154115b80156126495750600681015460ff16155b8015612659575083816005015410155b80156126685750600381015415155b6126845760405162461bcd60e51b8152600401610acf90614b87565b60068101805460ff19166001179055600382015460058301546000916126a9916149f2565b90506126b58633613c11565b84156126f55781546126c79086613eba565b825560058301546126d89086613eba565b600584015582546126f3906001600160a01b03163387613d7f565b505b815460000361280d57600d83015460005b8181101561280a57336001600160a01b031685600d01828154811061272d5761272d6149c6565b6000918252602090912001546001600160a01b031603612802576000600d8601612758600185614a3e565b81548110612768576127686149c6565b600091825260209091200154600d870180546001600160a01b039092169250829184908110612799576127996149c6565b9060005260206000200160006101000a8154816001600160a01b0302191690836001600160a01b0316021790555085600d018054806127da576127da614bd0565b600082815260209020810160001990810180546001600160a01b03191690550190555061280a565b600101612706565b50505b604051858152869033907f7fc4727e062e336010f2c282598ef5f14facb3de68cf8195c2f23e1454b2b74e9060200160405180910390a360008360030154846005015461285a91906149f2565b9050808288600080516020614da383398151915260405160405180910390a4600194505050505061090f600160c955565b60d0818154811061289b57600080fd5b6000918252602090912001546001600160a01b0316905081565b60008060cd83815481106128cb576128cb6149c6565b6000918252602091829020604080516101e081018252601090930290910180546001600160a01b03808216855260ff600160a01b8304169585019590955261ffff600160a81b909104169183019190915260018101549092166060820152600282018054919291608084019190612941906148f4565b80601f016020809104026020016040519081016040528092919081815260200182805461296d906148f4565b80156129ba5780601f1061298f576101008083540402835291602001916129ba565b820191906000526020600020905b81548152906001019060200180831161299d57829003601f168201915b50505050508152602001600382015481526020016004820154815260200160058201548152602001600682015481526020016007820154815260200160088201548152602001600982016040518060800160405290816000820154815260200160018201548152602001600282015481526020016003820160009054906101000a900460ff1615151515815250508152602001600d8201805480602002602001604051908101604052809291908181526020018280548015612aa557602002820191906000526020600020905b81546001600160a01b03168152600190910190602001808311612a87575b5050509183525050600e82015460ff1615156020820152600f90910154604091820152015161ffff169392505050565b60008060008060cd8581548110612aee57612aee6149c6565b6000918252602091829020604080516101e081018252601090930290910180546001600160a01b03808216855260ff600160a01b8304169585019590955261ffff600160a81b909104169183019190915260018101549092166060820152600282018054919291608084019190612b64906148f4565b80601f0160208091040260200160405190810160405280929190818152602001828054612b90906148f4565b8015612bdd5780601f10612bb257610100808354040283529160200191612bdd565b820191906000526020600020905b815481529060010190602001808311612bc057829003601f168201915b50505050508152602001600382015481526020016004820154815260200160058201548152602001600682015481526020016007820154815260200160088201548152602001600982016040518060800160405290816000820154815260200160018201548152602001600282015481526020016003820160009054906101000a900460ff1615151515815250508152602001600d8201805480602002602001604051908101604052809291908181526020018280548015612cc857602002820191906000526020600020905b81546001600160a01b03168152600190910190602001808311612caa575b5050509183525050600e82015460ff161515602080830191909152600f90920154604091820152610160909201518051918101519201519097919650945092505050565b600080600060cd8481548110612d2457612d246149c6565b6000918252602091829020604080516101e081018252601090930290910180546001600160a01b03808216855260ff600160a01b8304169585019590955261ffff600160a81b909104169183019190915260018101549092166060820152600282018054919291608084019190612d9a906148f4565b80601f0160208091040260200160405190810160405280929190818152602001828054612dc6906148f4565b8015612e135780601f10612de857610100808354040283529160200191612e13565b820191906000526020600020905b815481529060010190602001808311612df657829003601f168201915b50505050508152602001600382015481526020016004820154815260200160058201548152602001600682015481526020016007820154815260200160088201548152602001600982016040518060800160405290816000820154815260200160018201548152602001600282015481526020016003820160009054906101000a900460ff1615151515815250508152602001600d8201805480602002602001604051908101604052809291908181526020018280548015612efe57602002820191906000526020600020905b81546001600160a01b03168152600190910190602001808311612ee0575b5050509183525050600e82015460ff1615156020820152600f9091015460409091015261010081015161012090910151909590945092505050565b60ca546001600160a01b03163314612fa25760405162461bcd60e51b815260206004820152602660248201527f6f6e6c792070656e64696e67206f776e65722063616e2061636365707420747260448201526530b739b332b960d11b6064820152608401610acf565b60ca54603380546001600160a01b0319166001600160a01b03909216919091179055565b60008060cd8381548110612fdc57612fdc6149c6565b6000918252602090912060109091020160018101549091506001600160a01b031633148061301457506033546001600160a01b031633145b6130305760405162461bcd60e51b8152600401610acf90614a51565b600e8101805460ff1916905542600f90910155506001919050565b600060cd8581548110613060576130606149c6565b60009182526020909120601090910201600e81015490915060ff16156130c85760405162461bcd60e51b815260206004820152601860248201527f506f6f6c20616c726561647920696e697469616c697a656400000000000000006044820152606401610acf565b60008361ffff161180156130e257506127108361ffff1611155b6131215760405162461bcd60e51b815260206004820152601060248201526f415059206f7574206f662072616e676560801b6044820152606401610acf565b805461313890600160a01b900460ff16600a614cca565b613143906064614a05565b84101580156131755750805461316490600160a01b900460ff16600a614cca565b6131719062989680614a05565b8411155b6131b95760405162461bcd60e51b8152602060048201526015602482015274506f6f6c20636170206f7574206f662072616e676560581b6044820152606401610acf565b60018101546001600160a01b031633146131e55760405162461bcd60e51b8152600401610acf90614a51565b60006301e1338061271062093a8061320161ffff881689614a05565b61320b9190614a05565b6132159190614a1c565b61321f9190614a1c565b905060006127106132326103e884614a05565b61323c9190614a1c565b9050613260333061324d85886149f2565b86546001600160a01b0316929190613def565b508383600301600082825461327591906149f2565b909155505060048301869055825461ffff60a81b1916600160a81b61ffff871602178355600e8301805460ff1916600117905560078301829055600683018290556132c08183614a3e565b836008018190555050505050505050565b60006132db613906565b6001600160a01b038316600090815260cc602090815260408083205460cb90925282205461330991906149f2565b6001600160a01b038516600081815260cb6020908152604080832083905560cc90915281205590915061333d908483613d7f565b506001949350505050565b60008060cd838154811061335e5761335e6149c6565b6000918252602091829020604080516101e081018252601090930290910180546001600160a01b03808216855260ff600160a01b8304169585019590955261ffff600160a81b9091041691830191909152600181015490921660608201526002820180549192916080840191906133d4906148f4565b80601f0160208091040260200160405190810160405280929190818152602001828054613400906148f4565b801561344d5780601f106134225761010080835404028352916020019161344d565b820191906000526020600020905b81548152906001019060200180831161343057829003601f168201915b50505050508152602001600382015481526020016004820154815260200160058201548152602001600682015481526020016007820154815260200160088201548152602001600982016040518060800160405290816000820154815260200160018201548152602001600282015481526020016003820160009054906101000a900460ff1615151515815250508152602001600d820180548060200260200160405190810160405280929190818152602001828054801561353857602002820191906000526020600020905b81546001600160a01b0316815260019091019060200180831161351a575b5050509183525050600e82015460ff1615156020820152600f9091015460409091015260e001519392505050565b6000613570613906565b6001600160a01b038316600090815260cf602052604090205460ff1615158215146135d55760405162461bcd60e51b81526020600482015260156024820152741dda1a5d195b1a5cdd08185b1c9958591e481cd95d605a1b6044820152606401610acf565b6001600160a01b038316600081815260cf6020526040808220805460ff191686151590811790915590519092917f99795d51e5a8804307721456a7a9c2f0d7421f719d46a46d36e91fee7c85aa7691a3811561367b5760d080546001810182556000919091527fe89d44c8fd6a9bac8af33ce47f56337617d449bf7ff3956b618c646de829cbcb0180546001600160a01b0319166001600160a01b03851617905561378a565b60d05460005b8181101561378757600060d0828154811061369e5761369e6149c6565b6000918252602090912001546001600160a01b039081169150861681036137765760d06136cc600185614a3e565b815481106136dc576136dc6149c6565b60009182526020909120015460d080546001600160a01b039092169184908110613708576137086149c6565b9060005260206000200160006101000a8154816001600160a01b0302191690836001600160a01b0316021790555060d080548061374757613747614bd0565b600082815260209020810160001990810180546001600160a01b0319169055019055506001925061090f915050565b5061378081614cd9565b9050613681565b50505b50600192915050565b600061379d613906565b60d05460005b8181101561384f57600060d082815481106137c0576137c06149c6565b60009182526020808320909101546001600160a01b031680835260cc825260408084205460cb9093528320549093506137f991906149f2565b90508060000361380a57505061383f565b6001600160a01b038216600081815260cb6020908152604080832083905560cc90915281205561383b908783613d7f565b5050505b61384881614cd9565b90506137a3565b5060019150505b919050565b613863613906565b6001600160a01b0381166138c85760405162461bcd60e51b815260206004820152602660248201527f4f776e61626c653a206e6577206f776e657220697320746865207a65726f206160448201526564647265737360d01b6064820152608401610acf565b60ca80546001600160a01b0319166001600160a01b0392909216919091179055565b6138f2613e32565b6138fc8133613c11565b610b6c600160c955565b6033546001600160a01b031633146139605760405162461bcd60e51b815260206004820181905260248201527f4f776e61626c653a2063616c6c6572206973206e6f7420746865206f776e65726044820152606401610acf565b565b60008060008060cd868154811061397b5761397b6149c6565b90600052602060002090601002019050600085826007015483600601546139a29190614a3e565b6139ac91906149f2565b600183015483549192506139ce916001600160a01b0390811691163084613def565b5060006127106139e06103e884614a05565b6139ea9190614a1c565b905081836007016000828254613a0091906149f2565b909155505082546001600160a01b0316600090815260cc602052604081208054839290613a2e9084906149f2565b9091555060009050613a408284614a3e565b905080846008016000828254613a5691906149f2565b909155505060405183908a907fadb049ad2d09be3db90459a16aef1ad0a4d89e8fdcc1ade9429d6cc55abbcd2b90600090a3600199929850965090945050505050565b610b6c613906565b7f4910fdfa16fed3260ed0e7147f7cc6da11a60208b5b9406d12a635614ffd91435460ff1615613ad957613ad483613ec6565b505050565b826001600160a01b03166352d1902d6040518163ffffffff1660e01b8152600401602060405180830381865afa925050508015613b33575060408051601f3d908101601f19168201909252613b3091810190614cf2565b60015b613b965760405162461bcd60e51b815260206004820152602e60248201527f45524331393637557067726164653a206e657720696d706c656d656e7461746960448201526d6f6e206973206e6f74205555505360901b6064820152608401610acf565b600080516020614dc38339815191528114613c055760405162461bcd60e51b815260206004820152602960248201527f45524331393637557067726164653a20756e737570706f727465642070726f786044820152681a58589b195555525160ba1b6064820152608401610acf565b50613ad4838383613f62565b600060cd8381548110613c2657613c266149c6565b6000918252602080832086845260ce825260408085206001600160a01b03881686529092529083208054601090930290910193509103613c6c5742600290910155505050565b6000613c788585611202565b90508260080154811115613cf6576000613c928683613962565b9093509150508115613cf0578354613cb4906001600160a01b03168683613d7f565b5081846007016000828254613cc99190614a3e565b9250508190555080846008016000828254613ce49190614a3e565b90915550504260028401555b50613d78565b8015613d785780836007016000828254613d109190614a3e565b9091555060009050612710613d276103e884614a05565b613d319190614a1c565b9050613d3d8183614a3e565b8454909250613d56906001600160a01b03168684613d7f565b5081846008016000828254613d6b9190614a3e565b9091555050426002840155505b5050505050565b6040516001600160a01b038316602482015260448101829052600090613de590859063a9059cbb60e01b906064015b60408051601f198184030181529190526020810180516001600160e01b03166001600160e01b031990931692909217909152613f8d565b5060019392505050565b6040516001600160a01b038085166024830152831660448201526064810182905260009061333d9086906323b872dd60e01b90608401613dae565b949350505050565b600260c95403613e845760405162461bcd60e51b815260206004820152601f60248201527f5265656e7472616e637947756172643a207265656e7472616e742063616c6c006044820152606401610acf565b600260c955565b600054610100900460ff16613eb25760405162461bcd60e51b8152600401610acf90614d0b565b61396061405f565b60006111c28284614a3e565b6001600160a01b0381163b613f335760405162461bcd60e51b815260206004820152602d60248201527f455243313936373a206e657720696d706c656d656e746174696f6e206973206e60448201526c1bdd08184818dbdb9d1c9858dd609a1b6064820152608401610acf565b600080516020614dc383398151915280546001600160a01b0319166001600160a01b0392909216919091179055565b613f6b8361408f565b600082511180613f785750805b15613ad457613f8783836140cf565b50505050565b6000613fe2826040518060400160405280602081526020017f5361666545524332303a206c6f772d6c6576656c2063616c6c206661696c6564815250856001600160a01b03166141ba9092919063ffffffff16565b805190915015613ad457808060200190518101906140009190614d56565b613ad45760405162461bcd60e51b815260206004820152602a60248201527f5361666545524332303a204552433230206f7065726174696f6e20646964206e6044820152691bdd081cdd58d8d9595960b21b6064820152608401610acf565b600054610100900460ff166140865760405162461bcd60e51b8152600401610acf90614d0b565b613960336141c9565b61409881613ec6565b6040516001600160a01b038216907fbc7cd75a20ee27fd9adebab32041f755214dbc6bffa90cc0225b39da2e5c2d3b90600090a250565b60606001600160a01b0383163b6141375760405162461bcd60e51b815260206004820152602660248201527f416464726573733a2064656c65676174652063616c6c20746f206e6f6e2d636f6044820152651b9d1c9858dd60d21b6064820152608401610acf565b600080846001600160a01b0316846040516141529190614d73565b600060405180830381855af49150503d806000811461418d576040519150601f19603f3d011682016040523d82523d6000602084013e614192565b606091505b5091509150611fef8282604051806060016040528060278152602001614de36027913961421b565b6060613e2a8484600085614234565b603380546001600160a01b038381166001600160a01b0319831681179093556040519116919082907f8be0079c531659141344cd1fd0a4f28419497f9722a3daafe3b4186f6b6457e090600090a35050565b6060831561422a5750816111c2565b6111c2838361430f565b6060824710156142955760405162461bcd60e51b815260206004820152602660248201527f416464726573733a20696e73756666696369656e742062616c616e636520666f6044820152651c8818d85b1b60d21b6064820152608401610acf565b600080866001600160a01b031685876040516142b19190614d73565b60006040518083038185875af1925050503d80600081146142ee576040519150601f19603f3d011682016040523d82523d6000602084013e6142f3565b606091505b509150915061430487838387614339565b979650505050505050565b81511561431f5781518083602001fd5b8060405162461bcd60e51b8152600401610acf9190614d8f565b606083156143a85782516000036143a1576001600160a01b0385163b6143a15760405162461bcd60e51b815260206004820152601d60248201527f416464726573733a2063616c6c20746f206e6f6e2d636f6e74726163740000006044820152606401610acf565b5081613e2a565b613e2a838361430f565b5080546000825590600052602060002090810190610b6c91906144ee565b604051806101e0016040528060006001600160a01b03168152602001600060ff168152602001600061ffff16815260200160006001600160a01b031681526020016060815260200160008152602001600081526020016000815260200160008152602001600081526020016000815260200161446f60405180608001604052806000815260200160008152602001600081526020016000151581525090565b815260606020820181905260006040830181905291015290565b8280548282559060005260206000209081019282156144de579160200282015b828111156144de57825182546001600160a01b0319166001600160a01b039091161782556020909201916001909101906144a9565b506144ea9291506144ee565b5090565b5b808211156144ea57600081556001016144ef565b80356001600160a01b038116811461385657600080fd5b6000806040838503121561452d57600080fd5b8235915061453d60208401614503565b90509250929050565b60006020828403121561455857600080fd5b5035919050565b60005b8381101561457a578181015183820152602001614562565b50506000910152565b6000815180845261459b81602086016020860161455f565b601f01601f19169290920160200192915050565b6001600160a01b038f16815260ff8e16602082015261ffff8d1660408201526001600160a01b038c166060820152610220608082015260006145f561022083018d614583565b90508a60a08301528960c08301528860e083015287610100830152866101208301528561014083015261464f6101608301868051825260208101516020830152604081015160408301526060810151151560608301525050565b9215156101e082015261020001529c9b505050505050505050505050565b60006020828403121561467f57600080fd5b6111c282614503565b60008060006060848603121561469d57600080fd5b833592506146ad60208501614503565b9150604084013590509250925092565b634e487b7160e01b600052604160045260246000fd5b600067ffffffffffffffff808411156146ee576146ee6146bd565b604051601f8501601f19908116603f01168101908282118183101715614716576147166146bd565b8160405280935085815286868601111561472f57600080fd5b858560208301376000602087830101525050509392505050565b6000806040838503121561475c57600080fd5b61476583614503565b9150602083013567ffffffffffffffff81111561478157600080fd5b8301601f8101851361479257600080fd5b6147a1858235602084016146d3565b9150509250929050565b600080604083850312156147be57600080fd5b50508035926020909101359150565b6000806000606084860312156147e257600080fd5b6147eb84614503565b92506147f960208501614503565b9150604084013567ffffffffffffffff81111561481557600080fd5b8401601f8101861361482657600080fd5b614835868235602084016146d3565b9150509250925092565b6000806000806080858703121561485557600080fd5b8435935060208501359250604085013561ffff8116811461487557600080fd5b9396929550929360600135925050565b6000806040838503121561489857600080fd5b6148a183614503565b915061453d60208401614503565b8015158114610b6c57600080fd5b600080604083850312156148d057600080fd5b6148d983614503565b915060208301356148e9816148af565b809150509250929050565b600181811c9082168061490857607f821691505b60208210810361492857634e487b7160e01b600052602260045260246000fd5b50919050565b6020808252602c908201527f46756e6374696f6e206d7573742062652063616c6c6564207468726f7567682060408201526b19195b1959d85d1958d85b1b60a21b606082015260800190565b6020808252602c908201527f46756e6374696f6e206d7573742062652063616c6c6564207468726f7567682060408201526b6163746976652070726f787960a01b606082015260800190565b634e487b7160e01b600052603260045260246000fd5b634e487b7160e01b600052601160045260246000fd5b8082018082111561090f5761090f6149dc565b808202811582820484141761090f5761090f6149dc565b600082614a3957634e487b7160e01b600052601260045260246000fd5b500490565b8181038181111561090f5761090f6149dc565b6020808252600e908201526d139bdd08185d5d1a1bdc9a5e995960921b604082015260600190565b601f821115613ad457600081815260208120601f850160051c81016020861015614aa05750805b601f850160051c820191505b81811015614abf57828155600101614aac565b505050505050565b815167ffffffffffffffff811115614ae157614ae16146bd565b614af581614aef84546148f4565b84614a79565b602080601f831160018114614b2a5760008415614b125750858301515b600019600386901b1c1916600185901b178555614abf565b600085815260208120601f198616915b82811015614b5957888601518255948401946001909101908401614b3a565b5085821015614b775787850151600019600388901b60f8161c191681555b5050505050600190811b01905550565b60208082526029908201527f54696d656c6f636b206e6f7420736574206f72206e6f7420636f6d706c6574656040820152686420696e2074696d6560b81b606082015260800190565b634e487b7160e01b600052603160045260246000fd5b600181815b80851115614c21578160001904821115614c0757614c076149dc565b80851615614c1457918102915b93841c9390800290614beb565b509250929050565b600082614c385750600161090f565b81614c455750600061090f565b8160018114614c5b5760028114614c6557614c81565b600191505061090f565b60ff841115614c7657614c766149dc565b50506001821b61090f565b5060208310610133831016604e8410600b8410161715614ca4575081810a61090f565b614cae8383614be6565b8060001904821115614cc257614cc26149dc565b029392505050565b60006111c260ff841683614c29565b600060018201614ceb57614ceb6149dc565b5060010190565b600060208284031215614d0457600080fd5b5051919050565b6020808252602b908201527f496e697469616c697a61626c653a20636f6e7472616374206973206e6f74206960408201526a6e697469616c697a696e6760a81b606082015260800190565b600060208284031215614d6857600080fd5b81516111c2816148af565b60008251614d8581846020870161455f565b9190910192915050565b6020815260006111c2602083018461458356fea3ea4fb8dee4d414198cb197af6eae4fe483c1a0b849dc50e53b9bf1a60e2166360894a13ba1a3210667c828492db98dca3e2076cc3735a920a3ca505d382bbc416464726573733a206c6f772d6c6576656c2064656c65676174652063616c6c206661696c6564a264697066735822122052263bb3d54dd896a08029d3de2ec17381082a59be1c5190952397b5e73b4cfc64736f6c63430008110033",
    "linkReferences": {}
  },
  "methodIdentifiers": {
    "acceptOwnershipTransfer()": "b842e87f",
    "activeTokens(uint256)": "9f224f35",
    "addNewBountyPool(address,address,string)": "804fd590",
    "billPremium(uint256)": "2dbe051e",
    "claimPremium(uint256)": "f47ec3be",
    "collectAllSaloonProfits(address)": "ecd7fbed",
    "collectSaloonProfits(address,address)": "cf9564b9",
    "getMultiplier(uint256,uint256)": "8dbb1e3a",
    "initialize()": "8129fc1c",
    "makeProjectDeposit(uint256,uint256)": "57a86d3a",
    "owner()": "8da5cb5b",
    "payBounty(uint256,address,uint256)": "3ac6ad7b",
    "pendingToken(uint256,address)": "48e43af4",
    "poolInfo(uint256)": "1526fe27",
    "poolLength()": "081e3eda",
    "projectDepositWithdrawal(uint256,uint256)": "983c1ce0",
    "proxiableUUID()": "52d1902d",
    "renounceOwnership()": "715018a6",
    "saloonBountyProfit(address)": "e45abd0f",
    "saloonPremiumProfit(address)": "ca006148",
    "scheduleProjectDepositWithdrawal(uint256,uint256)": "5669cbef",
    "scheduleUnstake(uint256,uint256)": "91635b4e",
    "setAPYandPoolCapAndDeposit(uint256,uint256,uint16,uint256)": "cee6b069",
    "stake(uint256,address,uint256)": "6e9c931c",
    "tokenWhitelist(address)": "753d7563",
    "transferOwnership(address)": "f2fde38b",
    "unstake(uint256,uint256)": "9e2c8a5b",
    "updateTokenWhitelist(address,bool)": "e5e97c65",
    "upgradeTo(address)": "3659cfe6",
    "upgradeToAndCall(address,bytes)": "4f1ef286",
    "userInfo(uint256,address)": "93f1a40b",
    "viewBountyBalance(uint256)": "6ac6d812",
    "viewBountyInfo(uint256)": "40ef2868",
    "viewHackerPayout(uint256)": "861e5f66",
    "viewPoolAPY(uint256)": "a27f9213",
    "viewPoolCap(uint256)": "39679ff4",
    "viewPoolPremiumInfo(uint256)": "b1a2d16f",
    "viewPoolTimelockInfo(uint256)": "ac30b856",
    "viewSaloonProfitBalance(address)": "718c7eef",
    "viewStake(uint256,address)": "13c6f76d",
    "viewTotalStaked(uint256)": "dbdd6957",
    "viewUserInfo(uint256,address)": "a754ecb0",
    "windDownBounty(uint256)": "bb7019c1"
  },
  "id": 29
}