{
  "abi": [
    {
      "inputs": [
        {
          "internalType": "UD60x18",
          "name": "x",
          "type": "uint256"
        }
      ],
      "name": "PRBMathUD60x18__LogInputTooSmall",
      "type": "error"
    },
    {
      "inputs": [
        {
          "internalType": "uint256",
          "name": "x",
          "type": "uint256"
        }
      ],
      "name": "PRBMathUD60x18__ToUD60x18Overflow",
      "type": "error"
    },
    {
      "inputs": [
        {
          "internalType": "uint256",
          "name": "x",
          "type": "uint256"
        },
        {
          "internalType": "uint256",
          "name": "y",
          "type": "uint256"
        }
      ],
      "name": "PRBMath__MulDiv18Overflow",
      "type": "error"
    },
    {
      "inputs": [
        {
          "internalType": "uint256",
          "name": "x",
          "type": "uint256"
        },
        {
          "internalType": "uint256",
          "name": "y",
          "type": "uint256"
        },
        {
          "internalType": "uint256",
          "name": "denominator",
          "type": "uint256"
        }
      ],
      "name": "PRBMath__MulDivOverflow",
      "type": "error"
    },
    {
      "anonymous": false,
      "inputs": [
        {
          "indexed": false,
          "internalType": "address",
          "name": "previousAdmin",
          "type": "address"
        },
        {
          "indexed": false,
          "internalType": "address",
          "name": "newAdmin",
          "type": "address"
        }
      ],
      "name": "AdminChanged",
      "type": "event"
    },
    {
      "anonymous": false,
      "inputs": [
        {
          "indexed": true,
          "internalType": "address",
          "name": "owner",
          "type": "address"
        },
        {
          "indexed": true,
          "internalType": "address",
          "name": "approved",
          "type": "address"
        },
        {
          "indexed": true,
          "internalType": "uint256",
          "name": "tokenId",
          "type": "uint256"
        }
      ],
      "name": "Approval",
      "type": "event"
    },
    {
      "anonymous": false,
      "inputs": [
        {
          "indexed": true,
          "internalType": "address",
          "name": "owner",
          "type": "address"
        },
        {
          "indexed": true,
          "internalType": "address",
          "name": "operator",
          "type": "address"
        },
        {
          "indexed": false,
          "internalType": "bool",
          "name": "approved",
          "type": "bool"
        }
      ],
      "name": "ApprovalForAll",
      "type": "event"
    },
    {
      "anonymous": false,
      "inputs": [
        {
          "indexed": true,
          "internalType": "address",
          "name": "beacon",
          "type": "address"
        }
      ],
      "name": "BeaconUpgraded",
      "type": "event"
    },
    {
      "anonymous": false,
      "inputs": [
        {
          "indexed": true,
          "internalType": "uint256",
          "name": "pid",
          "type": "uint256"
        },
        {
          "indexed": true,
          "internalType": "uint256",
          "name": "oldAmount",
          "type": "uint256"
        },
        {
          "indexed": true,
          "internalType": "uint256",
          "name": "newAmount",
          "type": "uint256"
        }
      ],
      "name": "BountyBalanceChanged",
      "type": "event"
    },
    {
      "anonymous": false,
      "inputs": [
        {
          "indexed": true,
          "internalType": "uint256",
          "name": "time",
          "type": "uint256"
        },
        {
          "indexed": true,
          "internalType": "address",
          "name": "hunter",
          "type": "address"
        },
        {
          "indexed": true,
          "internalType": "address",
          "name": "token",
          "type": "address"
        },
        {
          "indexed": false,
          "internalType": "uint256",
          "name": "amount",
          "type": "uint256"
        }
      ],
      "name": "BountyPaid",
      "type": "event"
    },
    {
      "anonymous": false,
      "inputs": [
        {
          "indexed": false,
          "internalType": "uint8",
          "name": "version",
          "type": "uint8"
        }
      ],
      "name": "Initialized",
      "type": "event"
    },
    {
      "anonymous": false,
      "inputs": [
        {
          "indexed": true,
          "internalType": "uint256",
          "name": "pid",
          "type": "uint256"
        },
        {
          "indexed": true,
          "internalType": "address",
          "name": "token",
          "type": "address"
        },
        {
          "indexed": true,
          "internalType": "uint256",
          "name": "tokenDecimals",
          "type": "uint256"
        }
      ],
      "name": "NewBountyDeployed",
      "type": "event"
    },
    {
      "anonymous": false,
      "inputs": [
        {
          "indexed": true,
          "internalType": "address",
          "name": "previousOwner",
          "type": "address"
        },
        {
          "indexed": true,
          "internalType": "address",
          "name": "newOwner",
          "type": "address"
        }
      ],
      "name": "OwnershipTransferred",
      "type": "event"
    },
    {
      "anonymous": false,
      "inputs": [
        {
          "indexed": true,
          "internalType": "uint256",
          "name": "pid",
          "type": "uint256"
        },
        {
          "indexed": true,
          "internalType": "uint256",
          "name": "amount",
          "type": "uint256"
        }
      ],
      "name": "PremiumBilled",
      "type": "event"
    },
    {
      "anonymous": false,
      "inputs": [
        {
          "indexed": true,
          "internalType": "address",
          "name": "user",
          "type": "address"
        },
        {
          "indexed": true,
          "internalType": "uint256",
          "name": "pid",
          "type": "uint256"
        },
        {
          "indexed": false,
          "internalType": "uint256",
          "name": "amount",
          "type": "uint256"
        }
      ],
      "name": "Staked",
      "type": "event"
    },
    {
      "anonymous": false,
      "inputs": [
        {
          "indexed": true,
          "internalType": "address",
          "name": "from",
          "type": "address"
        },
        {
          "indexed": true,
          "internalType": "address",
          "name": "to",
          "type": "address"
        },
        {
          "indexed": true,
          "internalType": "uint256",
          "name": "tokenId",
          "type": "uint256"
        }
      ],
      "name": "Transfer",
      "type": "event"
    },
    {
      "anonymous": false,
      "inputs": [
        {
          "indexed": true,
          "internalType": "address",
          "name": "user",
          "type": "address"
        },
        {
          "indexed": true,
          "internalType": "uint256",
          "name": "pid",
          "type": "uint256"
        },
        {
          "indexed": false,
          "internalType": "uint256",
          "name": "amount",
          "type": "uint256"
        }
      ],
      "name": "Unstaked",
      "type": "event"
    },
    {
      "anonymous": false,
      "inputs": [
        {
          "indexed": true,
          "internalType": "address",
          "name": "implementation",
          "type": "address"
        }
      ],
      "name": "Upgraded",
      "type": "event"
    },
    {
      "anonymous": false,
      "inputs": [
        {
          "indexed": true,
          "internalType": "uint256",
          "name": "pid",
          "type": "uint256"
        },
        {
          "indexed": true,
          "internalType": "uint256",
          "name": "amount",
          "type": "uint256"
        }
      ],
      "name": "WithdrawalOrUnstakeScheduled",
      "type": "event"
    },
    {
      "anonymous": false,
      "inputs": [
        {
          "indexed": true,
          "internalType": "address",
          "name": "token",
          "type": "address"
        },
        {
          "indexed": true,
          "internalType": "bool",
          "name": "whitelisted",
          "type": "bool"
        }
      ],
      "name": "tokenWhitelistUpdated",
      "type": "event"
    },
    {
      "inputs": [],
      "name": "acceptOwnershipTransfer",
      "outputs": [],
      "stateMutability": "nonpayable",
      "type": "function"
    },
    {
      "inputs": [
        {
          "internalType": "uint256",
          "name": "",
          "type": "uint256"
        }
      ],
      "name": "activeStrategies",
      "outputs": [
        {
          "internalType": "bytes32",
          "name": "",
          "type": "bytes32"
        }
      ],
      "stateMutability": "view",
      "type": "function"
    },
    {
      "inputs": [
        {
          "internalType": "uint256",
          "name": "",
          "type": "uint256"
        }
      ],
      "name": "activeTokens",
      "outputs": [
        {
          "internalType": "address",
          "name": "",
          "type": "address"
        }
      ],
      "stateMutability": "view",
      "type": "function"
    },
    {
      "inputs": [
        {
          "internalType": "address",
          "name": "_token",
          "type": "address"
        },
        {
          "internalType": "address",
          "name": "_projectWallet",
          "type": "address"
        },
        {
          "internalType": "string",
          "name": "_projectName",
          "type": "string"
        }
      ],
      "name": "addNewBountyPool",
      "outputs": [
        {
          "internalType": "uint256",
          "name": "",
          "type": "uint256"
        }
      ],
      "stateMutability": "nonpayable",
      "type": "function"
    },
    {
      "inputs": [
        {
          "internalType": "address",
          "name": "to",
          "type": "address"
        },
        {
          "internalType": "uint256",
          "name": "tokenId",
          "type": "uint256"
        }
      ],
      "name": "approve",
      "outputs": [],
      "stateMutability": "nonpayable",
      "type": "function"
    },
    {
      "inputs": [
        {
          "internalType": "address",
          "name": "owner",
          "type": "address"
        }
      ],
      "name": "balanceOf",
      "outputs": [
        {
          "internalType": "uint256",
          "name": "",
          "type": "uint256"
        }
      ],
      "stateMutability": "view",
      "type": "function"
    },
    {
      "inputs": [
        {
          "internalType": "uint256",
          "name": "_pid",
          "type": "uint256"
        }
      ],
      "name": "billPremium",
      "outputs": [
        {
          "internalType": "bool",
          "name": "",
          "type": "bool"
        }
      ],
      "stateMutability": "nonpayable",
      "type": "function"
    },
    {
      "inputs": [
        {
          "internalType": "uint256",
          "name": "_poolCap",
          "type": "uint256"
        },
        {
          "internalType": "uint256",
          "name": "_apy",
          "type": "uint256"
        }
      ],
      "name": "calcRequiredPremiumBalancePerPeriod",
      "outputs": [
        {
          "internalType": "uint256",
          "name": "requiredPremiumBalance",
          "type": "uint256"
        }
      ],
      "stateMutability": "pure",
      "type": "function"
    },
    {
      "inputs": [
        {
          "internalType": "uint256",
          "name": "_stake",
          "type": "uint256"
        },
        {
          "internalType": "uint256",
          "name": "_poolID",
          "type": "uint256"
        }
      ],
      "name": "calculateEffectiveAPY",
      "outputs": [
        {
          "internalType": "uint256",
          "name": "toBeMinted",
          "type": "uint256"
        }
      ],
      "stateMutability": "view",
      "type": "function"
    },
    {
      "inputs": [
        {
          "internalType": "uint256",
          "name": "_tokenId",
          "type": "uint256"
        }
      ],
      "name": "claimPremium",
      "outputs": [],
      "stateMutability": "nonpayable",
      "type": "function"
    },
    {
      "inputs": [
        {
          "internalType": "address",
          "name": "_saloonWallet",
          "type": "address"
        }
      ],
      "name": "collectAllSaloonProfits",
      "outputs": [
        {
          "internalType": "bool",
          "name": "",
          "type": "bool"
        }
      ],
      "stateMutability": "nonpayable",
      "type": "function"
    },
    {
      "inputs": [
        {
          "internalType": "address",
          "name": "_token",
          "type": "address"
        },
        {
          "internalType": "address",
          "name": "_saloonWallet",
          "type": "address"
        }
      ],
      "name": "collectSaloonProfits",
      "outputs": [
        {
          "internalType": "bool",
          "name": "",
          "type": "bool"
        }
      ],
      "stateMutability": "nonpayable",
      "type": "function"
    },
    {
      "inputs": [
        {
          "internalType": "uint256",
          "name": "tokenId",
          "type": "uint256"
        }
      ],
      "name": "getApproved",
      "outputs": [
        {
          "internalType": "address",
          "name": "",
          "type": "address"
        }
      ],
      "stateMutability": "view",
      "type": "function"
    },
    {
      "inputs": [
        {
          "internalType": "uint256",
          "name": "_poolID",
          "type": "uint256"
        }
      ],
      "name": "getCurrentAPY",
      "outputs": [
        {
          "internalType": "uint256",
          "name": "currentAPY",
          "type": "uint256"
        }
      ],
      "stateMutability": "nonpayable",
      "type": "function"
    },
    {
      "inputs": [
        {
          "internalType": "uint256",
          "name": "_from",
          "type": "uint256"
        },
        {
          "internalType": "uint256",
          "name": "_to",
          "type": "uint256"
        }
      ],
      "name": "getMultiplier",
      "outputs": [
        {
          "internalType": "uint256",
          "name": "",
          "type": "uint256"
        }
      ],
      "stateMutability": "pure",
      "type": "function"
    },
    {
      "inputs": [],
      "name": "index",
      "outputs": [
        {
          "internalType": "uint256",
          "name": "",
          "type": "uint256"
        }
      ],
      "stateMutability": "view",
      "type": "function"
    },
    {
      "inputs": [
        {
          "internalType": "address",
          "name": "_strategyFactory",
          "type": "address"
        }
      ],
      "name": "initialize",
      "outputs": [],
      "stateMutability": "nonpayable",
      "type": "function"
    },
    {
      "inputs": [
        {
          "internalType": "address",
          "name": "owner",
          "type": "address"
        },
        {
          "internalType": "address",
          "name": "operator",
          "type": "address"
        }
      ],
      "name": "isApprovedForAll",
      "outputs": [
        {
          "internalType": "bool",
          "name": "",
          "type": "bool"
        }
      ],
      "stateMutability": "view",
      "type": "function"
    },
    {
      "inputs": [
        {
          "internalType": "uint256",
          "name": "_pid",
          "type": "uint256"
        },
        {
          "internalType": "uint256",
          "name": "_deposit",
          "type": "uint256"
        },
        {
          "internalType": "string",
          "name": "_strategyName",
          "type": "string"
        }
      ],
      "name": "makeProjectDeposit",
      "outputs": [],
      "stateMutability": "nonpayable",
      "type": "function"
    },
    {
      "inputs": [
        {
          "internalType": "uint256",
          "name": "",
          "type": "uint256"
        },
        {
          "internalType": "address",
          "name": "",
          "type": "address"
        }
      ],
      "name": "nFTInfo",
      "outputs": [
        {
          "internalType": "uint256",
          "name": "amount",
          "type": "uint256"
        },
        {
          "internalType": "uint256",
          "name": "apy",
          "type": "uint256"
        },
        {
          "internalType": "uint256",
          "name": "unclaimed",
          "type": "uint256"
        },
        {
          "internalType": "uint256",
          "name": "lastClaimedTime",
          "type": "uint256"
        },
        {
          "internalType": "uint256",
          "name": "timelock",
          "type": "uint256"
        },
        {
          "internalType": "uint256",
          "name": "timelimit",
          "type": "uint256"
        }
      ],
      "stateMutability": "view",
      "type": "function"
    },
    {
      "inputs": [],
      "name": "name",
      "outputs": [
        {
          "internalType": "string",
          "name": "",
          "type": "string"
        }
      ],
      "stateMutability": "view",
      "type": "function"
    },
    {
      "inputs": [
        {
          "internalType": "uint256",
          "name": "",
          "type": "uint256"
        }
      ],
      "name": "nftAPY",
      "outputs": [
        {
          "internalType": "uint256",
          "name": "",
          "type": "uint256"
        }
      ],
      "stateMutability": "view",
      "type": "function"
    },
    {
      "inputs": [
        {
          "internalType": "uint256",
          "name": "",
          "type": "uint256"
        }
      ],
      "name": "nftBalance",
      "outputs": [
        {
          "internalType": "uint256",
          "name": "",
          "type": "uint256"
        }
      ],
      "stateMutability": "view",
      "type": "function"
    },
    {
      "inputs": [
        {
          "internalType": "uint256",
          "name": "",
          "type": "uint256"
        }
      ],
      "name": "nftInfo",
      "outputs": [
        {
          "internalType": "uint256",
          "name": "amount",
          "type": "uint256"
        },
        {
          "internalType": "uint256",
          "name": "apy",
          "type": "uint256"
        },
        {
          "internalType": "uint256",
          "name": "unclaimed",
          "type": "uint256"
        },
        {
          "internalType": "uint256",
          "name": "lastClaimedTime",
          "type": "uint256"
        },
        {
          "internalType": "uint256",
          "name": "timelock",
          "type": "uint256"
        },
        {
          "internalType": "uint256",
          "name": "timelimit",
          "type": "uint256"
        }
      ],
      "stateMutability": "view",
      "type": "function"
    },
    {
      "inputs": [
        {
          "internalType": "uint256",
          "name": "",
          "type": "uint256"
        }
      ],
      "name": "nftToPid",
      "outputs": [
        {
          "internalType": "uint256",
          "name": "",
          "type": "uint256"
        }
      ],
      "stateMutability": "view",
      "type": "function"
    },
    {
      "inputs": [],
      "name": "owner",
      "outputs": [
        {
          "internalType": "address",
          "name": "",
          "type": "address"
        }
      ],
      "stateMutability": "view",
      "type": "function"
    },
    {
      "inputs": [
        {
          "internalType": "uint256",
          "name": "tokenId",
          "type": "uint256"
        }
      ],
      "name": "ownerOf",
      "outputs": [
        {
          "internalType": "address",
          "name": "",
          "type": "address"
        }
      ],
      "stateMutability": "view",
      "type": "function"
    },
    {
      "inputs": [
        {
          "internalType": "uint256",
          "name": "_pid",
          "type": "uint256"
        },
        {
          "internalType": "address",
          "name": "_hunter",
          "type": "address"
        },
        {
          "internalType": "uint256",
          "name": "_amount",
          "type": "uint256"
        }
      ],
      "name": "payBounty",
      "outputs": [
        {
          "internalType": "bool",
          "name": "",
          "type": "bool"
        }
      ],
      "stateMutability": "nonpayable",
      "type": "function"
    },
    {
      "inputs": [
        {
          "internalType": "uint256",
          "name": "_tokenId",
          "type": "uint256"
        }
      ],
      "name": "pendingPremium",
      "outputs": [
        {
          "internalType": "uint256",
          "name": "totalPending",
          "type": "uint256"
        },
        {
          "internalType": "uint256",
          "name": "actualPending",
          "type": "uint256"
        },
        {
          "internalType": "uint256",
          "name": "newPending",
          "type": "uint256"
        }
      ],
      "stateMutability": "view",
      "type": "function"
    },
    {
      "inputs": [
        {
          "internalType": "uint256",
          "name": "",
          "type": "uint256"
        },
        {
          "internalType": "uint256",
          "name": "",
          "type": "uint256"
        }
      ],
      "name": "pidNFTList",
      "outputs": [
        {
          "internalType": "uint256",
          "name": "",
          "type": "uint256"
        }
      ],
      "stateMutability": "view",
      "type": "function"
    },
    {
      "inputs": [
        {
          "internalType": "uint256",
          "name": "",
          "type": "uint256"
        },
        {
          "internalType": "bytes32",
          "name": "",
          "type": "bytes32"
        }
      ],
      "name": "pidStrategies",
      "outputs": [
        {
          "internalType": "address",
          "name": "",
          "type": "address"
        }
      ],
      "stateMutability": "view",
      "type": "function"
    },
    {
      "inputs": [
        {
          "internalType": "uint256",
          "name": "",
          "type": "uint256"
        }
      ],
      "name": "poolInfo",
      "outputs": [
        {
          "components": [
            {
              "internalType": "contract IERC20",
              "name": "token",
              "type": "address"
            },
            {
              "internalType": "uint8",
              "name": "tokenDecimals",
              "type": "uint8"
            },
            {
              "internalType": "uint16",
              "name": "apy",
              "type": "uint16"
            },
            {
              "internalType": "address",
              "name": "projectWallet",
              "type": "address"
            },
            {
              "internalType": "string",
              "name": "projectName",
              "type": "string"
            },
            {
              "internalType": "uint256",
              "name": "poolCap",
              "type": "uint256"
            },
            {
              "internalType": "uint256",
              "name": "totalStaked",
              "type": "uint256"
            },
            {
              "internalType": "uint256",
              "name": "multiplier",
              "type": "uint256"
            }
          ],
          "internalType": "struct ISaloon.GeneralInfo",
          "name": "generalInfo",
          "type": "tuple"
        },
        {
          "components": [
            {
              "internalType": "uint256",
              "name": "projectDepositHeld",
              "type": "uint256"
            },
            {
              "internalType": "uint256",
              "name": "projectDepositInStrategy",
              "type": "uint256"
            }
          ],
          "internalType": "struct ISaloon.DepositInfo",
          "name": "depositInfo",
          "type": "tuple"
        },
        {
          "components": [
            {
              "internalType": "uint256",
              "name": "premiumBalance",
              "type": "uint256"
            },
            {
              "internalType": "uint256",
              "name": "premiumAvailable",
              "type": "uint256"
            }
          ],
          "internalType": "struct ISaloon.PremiumInfo",
          "name": "premiumInfo",
          "type": "tuple"
        },
        {
          "components": [
            {
              "internalType": "uint256",
              "name": "timelock",
              "type": "uint256"
            },
            {
              "internalType": "uint256",
              "name": "timeLimit",
              "type": "uint256"
            },
            {
              "internalType": "uint256",
              "name": "withdrawalScheduledAmount",
              "type": "uint256"
            },
            {
              "internalType": "bool",
              "name": "withdrawalExecuted",
              "type": "bool"
            }
          ],
          "internalType": "struct ISaloon.TimelockInfo",
          "name": "poolTimelock",
          "type": "tuple"
        },
        {
          "components": [
            {
              "internalType": "uint256",
              "name": "currentX",
              "type": "uint256"
            },
            {
              "internalType": "uint256",
              "name": "currentY",
              "type": "uint256"
            },
            {
              "internalType": "uint256",
              "name": "totalSupply",
              "type": "uint256"
            }
          ],
          "internalType": "struct ISaloon.TokenInfo",
          "name": "tokenInfo",
          "type": "tuple"
        },
        {
          "internalType": "uint256",
          "name": "freezeTime",
          "type": "uint256"
        },
        {
          "internalType": "bool",
          "name": "isActive",
          "type": "bool"
        }
      ],
      "stateMutability": "view",
      "type": "function"
    },
    {
      "inputs": [],
      "name": "poolLength",
      "outputs": [
        {
          "internalType": "uint256",
          "name": "",
          "type": "uint256"
        }
      ],
      "stateMutability": "view",
      "type": "function"
    },
    {
      "inputs": [
        {
          "internalType": "uint256",
          "name": "_pid",
          "type": "uint256"
        },
        {
          "internalType": "uint256",
          "name": "_amount",
          "type": "uint256"
        }
      ],
      "name": "projectDepositWithdrawal",
      "outputs": [
        {
          "internalType": "bool",
          "name": "",
          "type": "bool"
        }
      ],
      "stateMutability": "nonpayable",
      "type": "function"
    },
    {
      "inputs": [],
      "name": "proxiableUUID",
      "outputs": [
        {
          "internalType": "bytes32",
          "name": "",
          "type": "bytes32"
        }
      ],
      "stateMutability": "view",
      "type": "function"
    },
    {
      "inputs": [
        {
          "internalType": "address",
          "name": "from",
          "type": "address"
        },
        {
          "internalType": "address",
          "name": "to",
          "type": "address"
        },
        {
          "internalType": "uint256",
          "name": "tokenId",
          "type": "uint256"
        }
      ],
      "name": "safeTransferFrom",
      "outputs": [],
      "stateMutability": "nonpayable",
      "type": "function"
    },
    {
      "inputs": [
        {
          "internalType": "address",
          "name": "from",
          "type": "address"
        },
        {
          "internalType": "address",
          "name": "to",
          "type": "address"
        },
        {
          "internalType": "uint256",
          "name": "tokenId",
          "type": "uint256"
        },
        {
          "internalType": "bytes",
          "name": "data",
          "type": "bytes"
        }
      ],
      "name": "safeTransferFrom",
      "outputs": [],
      "stateMutability": "nonpayable",
      "type": "function"
    },
    {
      "inputs": [
        {
          "internalType": "address",
          "name": "",
          "type": "address"
        }
      ],
      "name": "saloonBountyProfit",
      "outputs": [
        {
          "internalType": "uint256",
          "name": "",
          "type": "uint256"
        }
      ],
      "stateMutability": "view",
      "type": "function"
    },
    {
      "inputs": [
        {
          "internalType": "address",
          "name": "",
          "type": "address"
        }
      ],
      "name": "saloonPremiumProfit",
      "outputs": [
        {
          "internalType": "uint256",
          "name": "",
          "type": "uint256"
        }
      ],
      "stateMutability": "view",
      "type": "function"
    },
    {
      "inputs": [
        {
          "internalType": "uint256",
          "name": "_pid",
          "type": "uint256"
        },
        {
          "internalType": "uint256",
          "name": "_amount",
          "type": "uint256"
        }
      ],
      "name": "scheduleProjectDepositWithdrawal",
      "outputs": [
        {
          "internalType": "bool",
          "name": "",
          "type": "bool"
        }
      ],
      "stateMutability": "nonpayable",
      "type": "function"
    },
    {
      "inputs": [
        {
          "internalType": "uint256",
          "name": "_tokenId",
          "type": "uint256"
        }
      ],
      "name": "scheduleUnstake",
      "outputs": [
        {
          "internalType": "bool",
          "name": "",
          "type": "bool"
        }
      ],
      "stateMutability": "nonpayable",
      "type": "function"
    },
    {
      "inputs": [
        {
          "internalType": "uint256",
          "name": "_pid",
          "type": "uint256"
        },
        {
          "internalType": "uint256",
          "name": "_poolCap",
          "type": "uint256"
        },
        {
          "internalType": "uint16",
          "name": "_apy",
          "type": "uint16"
        },
        {
          "internalType": "uint256",
          "name": "_deposit",
          "type": "uint256"
        },
        {
          "internalType": "string",
          "name": "_strategyName",
          "type": "string"
        }
      ],
      "name": "setAPYandPoolCapAndDeposit",
      "outputs": [],
      "stateMutability": "nonpayable",
      "type": "function"
    },
    {
      "inputs": [
        {
          "internalType": "address",
          "name": "operator",
          "type": "address"
        },
        {
          "internalType": "bool",
          "name": "approved",
          "type": "bool"
        }
      ],
      "name": "setApprovalForAll",
      "outputs": [],
      "stateMutability": "nonpayable",
      "type": "function"
    },
    {
      "inputs": [
        {
          "internalType": "uint256",
          "name": "_pid",
          "type": "uint256"
        },
        {
          "internalType": "uint256",
          "name": "_amount",
          "type": "uint256"
        }
      ],
      "name": "stake",
      "outputs": [
        {
          "internalType": "uint256",
          "name": "",
          "type": "uint256"
        }
      ],
      "stateMutability": "nonpayable",
      "type": "function"
    },
    {
      "inputs": [
        {
          "internalType": "bytes4",
          "name": "interfaceId",
          "type": "bytes4"
        }
      ],
      "name": "supportsInterface",
      "outputs": [
        {
          "internalType": "bool",
          "name": "",
          "type": "bool"
        }
      ],
      "stateMutability": "view",
      "type": "function"
    },
    {
      "inputs": [],
      "name": "symbol",
      "outputs": [
        {
          "internalType": "string",
          "name": "",
          "type": "string"
        }
      ],
      "stateMutability": "view",
      "type": "function"
    },
    {
      "inputs": [
        {
          "internalType": "uint256",
          "name": "tokenId",
          "type": "uint256"
        }
      ],
      "name": "tokenURI",
      "outputs": [
        {
          "internalType": "string",
          "name": "",
          "type": "string"
        }
      ],
      "stateMutability": "view",
      "type": "function"
    },
    {
      "inputs": [
        {
          "internalType": "address",
          "name": "",
          "type": "address"
        }
      ],
      "name": "tokenWhitelist",
      "outputs": [
        {
          "internalType": "bool",
          "name": "",
          "type": "bool"
        }
      ],
      "stateMutability": "view",
      "type": "function"
    },
    {
      "inputs": [
        {
          "internalType": "address",
          "name": "from",
          "type": "address"
        },
        {
          "internalType": "address",
          "name": "to",
          "type": "address"
        },
        {
          "internalType": "uint256",
          "name": "tokenId",
          "type": "uint256"
        }
      ],
      "name": "transferFrom",
      "outputs": [],
      "stateMutability": "nonpayable",
      "type": "function"
    },
    {
      "inputs": [
        {
          "internalType": "address",
          "name": "newOwner",
          "type": "address"
        }
      ],
      "name": "transferOwnership",
      "outputs": [],
      "stateMutability": "nonpayable",
      "type": "function"
    },
    {
      "inputs": [
        {
          "internalType": "uint256",
          "name": "_tokenId",
          "type": "uint256"
        },
        {
          "internalType": "bool",
          "name": "_shouldHarvest",
          "type": "bool"
        }
      ],
      "name": "unstake",
      "outputs": [
        {
          "internalType": "bool",
          "name": "",
          "type": "bool"
        }
      ],
      "stateMutability": "nonpayable",
      "type": "function"
    },
    {
      "inputs": [
        {
          "internalType": "address",
          "name": "_strategyFactory",
          "type": "address"
        }
      ],
      "name": "updateStrategyFactoryAddress",
      "outputs": [],
      "stateMutability": "nonpayable",
      "type": "function"
    },
    {
      "inputs": [
        {
          "internalType": "address",
          "name": "_token",
          "type": "address"
        },
        {
          "internalType": "bool",
          "name": "_whitelisted",
          "type": "bool"
        }
      ],
      "name": "updateTokenWhitelist",
      "outputs": [
        {
          "internalType": "bool",
          "name": "",
          "type": "bool"
        }
      ],
      "stateMutability": "nonpayable",
      "type": "function"
    },
    {
      "inputs": [
        {
          "internalType": "address",
          "name": "newImplementation",
          "type": "address"
        }
      ],
      "name": "upgradeTo",
      "outputs": [],
      "stateMutability": "nonpayable",
      "type": "function"
    },
    {
      "inputs": [
        {
          "internalType": "address",
          "name": "newImplementation",
          "type": "address"
        },
        {
          "internalType": "bytes",
          "name": "data",
          "type": "bytes"
        }
      ],
      "name": "upgradeToAndCall",
      "outputs": [],
      "stateMutability": "payable",
      "type": "function"
    },
    {
      "inputs": [
        {
          "internalType": "uint256",
          "name": "_pid",
          "type": "uint256"
        }
      ],
      "name": "viewBountyBalance",
      "outputs": [
        {
          "internalType": "uint256",
          "name": "",
          "type": "uint256"
        }
      ],
      "stateMutability": "view",
      "type": "function"
    },
    {
      "inputs": [
        {
          "internalType": "uint256",
          "name": "_pid",
          "type": "uint256"
        }
      ],
      "name": "viewBountyInfo",
      "outputs": [
        {
          "internalType": "uint256",
          "name": "payout",
          "type": "uint256"
        },
        {
          "internalType": "uint256",
          "name": "apy",
          "type": "uint256"
        },
        {
          "internalType": "uint256",
          "name": "staked",
          "type": "uint256"
        },
        {
          "internalType": "uint256",
          "name": "poolCap",
          "type": "uint256"
        }
      ],
      "stateMutability": "view",
      "type": "function"
    },
    {
      "inputs": [
        {
          "internalType": "uint256",
          "name": "_pid",
          "type": "uint256"
        }
      ],
      "name": "viewHackerPayout",
      "outputs": [
        {
          "internalType": "uint256",
          "name": "",
          "type": "uint256"
        }
      ],
      "stateMutability": "view",
      "type": "function"
    },
    {
      "inputs": [
        {
          "internalType": "uint256",
          "name": "_pid",
          "type": "uint256"
        }
      ],
      "name": "viewMinProjectDeposit",
      "outputs": [
        {
          "internalType": "uint256",
          "name": "",
          "type": "uint256"
        }
      ],
      "stateMutability": "view",
      "type": "function"
    },
    {
      "inputs": [
        {
          "internalType": "uint256",
          "name": "_pid",
          "type": "uint256"
        }
      ],
      "name": "viewPoolAPY",
      "outputs": [
        {
          "internalType": "uint256",
          "name": "",
          "type": "uint256"
        }
      ],
      "stateMutability": "view",
      "type": "function"
    },
    {
      "inputs": [
        {
          "internalType": "uint256",
          "name": "_pid",
          "type": "uint256"
        }
      ],
      "name": "viewPoolCap",
      "outputs": [
        {
          "internalType": "uint256",
          "name": "",
          "type": "uint256"
        }
      ],
      "stateMutability": "view",
      "type": "function"
    },
    {
      "inputs": [
        {
          "internalType": "uint256",
          "name": "_pid",
          "type": "uint256"
        }
      ],
      "name": "viewPoolPremiumInfo",
      "outputs": [
        {
          "internalType": "uint256",
          "name": "requiredPremiumBalancePerPeriod",
          "type": "uint256"
        },
        {
          "internalType": "uint256",
          "name": "premiumBalance",
          "type": "uint256"
        },
        {
          "internalType": "uint256",
          "name": "premiumAvailable",
          "type": "uint256"
        }
      ],
      "stateMutability": "view",
      "type": "function"
    },
    {
      "inputs": [
        {
          "internalType": "uint256",
          "name": "_pid",
          "type": "uint256"
        }
      ],
      "name": "viewPoolTimelockInfo",
      "outputs": [
        {
          "internalType": "uint256",
          "name": "timelock",
          "type": "uint256"
        },
        {
          "internalType": "uint256",
          "name": "timeLimit",
          "type": "uint256"
        },
        {
          "internalType": "uint256",
          "name": "withdrawalScheduledAmount",
          "type": "uint256"
        }
      ],
      "stateMutability": "view",
      "type": "function"
    },
    {
      "inputs": [
        {
          "internalType": "address",
          "name": "_token",
          "type": "address"
        }
      ],
      "name": "viewSaloonProfitBalance",
      "outputs": [
        {
          "internalType": "uint256",
          "name": "totalProfit",
          "type": "uint256"
        },
        {
          "internalType": "uint256",
          "name": "bountyProfit",
          "type": "uint256"
        },
        {
          "internalType": "uint256",
          "name": "premiumProfit",
          "type": "uint256"
        }
      ],
      "stateMutability": "view",
      "type": "function"
    },
    {
      "inputs": [
        {
          "internalType": "uint256",
          "name": "_tokenId",
          "type": "uint256"
        }
      ],
      "name": "viewTokenInfo",
      "outputs": [
        {
          "internalType": "uint256",
          "name": "amount",
          "type": "uint256"
        },
        {
          "internalType": "uint256",
          "name": "apy",
          "type": "uint256"
        },
        {
          "internalType": "uint256",
          "name": "actualPending",
          "type": "uint256"
        },
        {
          "internalType": "uint256",
          "name": "unclaimed",
          "type": "uint256"
        },
        {
          "internalType": "uint256",
          "name": "timelock",
          "type": "uint256"
        }
      ],
      "stateMutability": "view",
      "type": "function"
    },
    {
      "inputs": [
        {
          "internalType": "uint256",
          "name": "_pid",
          "type": "uint256"
        }
      ],
      "name": "viewTotalStaked",
      "outputs": [
        {
          "internalType": "uint256",
          "name": "",
          "type": "uint256"
        }
      ],
      "stateMutability": "view",
      "type": "function"
    },
    {
      "inputs": [
        {
          "internalType": "uint256",
          "name": "_tokenId",
          "type": "uint256"
        }
      ],
      "name": "viewUserUnclaimed",
      "outputs": [
        {
          "internalType": "uint256",
          "name": "unclaimed",
          "type": "uint256"
        }
      ],
      "stateMutability": "view",
      "type": "function"
    },
    {
      "inputs": [
        {
          "internalType": "uint256",
          "name": "_pid",
          "type": "uint256"
        }
      ],
      "name": "windDownBounty",
      "outputs": [
        {
          "internalType": "bool",
          "name": "",
          "type": "bool"
        }
      ],
      "stateMutability": "nonpayable",
      "type": "function"
    }
  ],
  "bytecode": {
    "object": "0x60a0604052306080523480156200001557600080fd5b50600160ca55600054610100900460ff16158080156200003c5750600054600160ff909116105b806200006c575062000059306200019760201b62004fc41760201c565b1580156200006c575060005460ff166001145b620000d55760405162461bcd60e51b815260206004820152602e60248201527f496e697469616c697a61626c653a20636f6e747261637420697320616c72656160448201526d191e481a5b9a5d1a585b1a5e995960921b60648201526084015b60405180910390fd5b6000805460ff191660011790558015620000f9576000805461ff0019166101001790555b620001496040518060400160405280600b81526020016a2137bab73a3caa37b5b2b760a91b8152506040518060400160405280600381526020016210951560ea1b815250620001a660201b60201c565b801562000190576000805461ff0019169055604051600181527f7f26b83ff96e1f2b6a682f133852f6798a09c465da95921460cefb38474024989060200160405180910390a15b5062000400565b6001600160a01b03163b151590565b600054610100900460ff16620002025760405162461bcd60e51b815260206004820152602b60248201526000805160206200825f83398151915260448201526a6e697469616c697a696e6760a81b6064820152608401620000cc565b6200020e828262000212565b5050565b600054610100900460ff166200026e5760405162461bcd60e51b815260206004820152602b60248201526000805160206200825f83398151915260448201526a6e697469616c697a696e6760a81b6064820152608401620000cc565b60fd6200027c838262000334565b5060fe6200028b828262000334565b505050565b634e487b7160e01b600052604160045260246000fd5b600181811c90821680620002bb57607f821691505b602082108103620002dc57634e487b7160e01b600052602260045260246000fd5b50919050565b601f8211156200028b57600081815260208120601f850160051c810160208610156200030b5750805b601f850160051c820191505b818110156200032c5782815560010162000317565b505050505050565b81516001600160401b0381111562000350576200035062000290565b6200036881620003618454620002a6565b84620002e2565b602080601f831160018114620003a05760008415620003875750858301515b600019600386901b1c1916600185901b1785556200032c565b600085815260208120601f198616915b82811015620003d157888601518255948401946001909101908401620003b0565b5085821015620003f05787850151600019600388901b60f8161c191681555b5050505050600190811b01905550565b608051617e27620004386000396000818161190201528181611942015281816124050152818161244501526124d80152617e276000f3fe6080604052600436106103ef5760003560e01c80637b0472f011610208578063b20b242911610118578063cf9564b9116100ab578063e63d6ee41161007a578063e63d6ee414610d66578063e985e9c514610d94578063ecd7fbed14610dde578063f2fde38b14610dfe578063f47ec3be14610e1e57600080fd5b8063cf9564b914610cd8578063dbdd695714610cf8578063e45abd0f14610d18578063e5e97c6514610d4657600080fd5b8063c4d66de8116100e7578063c4d66de814610c0e578063c87b56dd14610c2e578063ca00614814610c4e578063cc6f6b5b14610c7c57600080fd5b8063b20b242914610b8b578063b842e87f14610bb9578063b88d4fde14610bce578063bb7019c114610bee57600080fd5b806396ea48e81161019b578063a22cb4651161016a578063a22cb46514610aeb578063a27f921314610b0b578063ac30b85614610b2b578063ae07f94814610b4b578063b1a2d16f14610b6b57600080fd5b806396ea48e814610a6b578063983c1ce014610a8b5780639ebea88c14610aab5780639f224f3514610acb57600080fd5b8063861e5f66116101d7578063861e5f66146109f85780638da5cb5b14610a185780638dbb1e3a14610a3657806395d89b4114610a5657600080fd5b80637b0472f0146109785780637fbf385314610998578063804fd590146109b8578063836ef1fa146109d857600080fd5b80633538fda01161030357806352d1902d116102965780636352211e116102655780636352211e146108c75780636ac6d812146108e757806370a0823114610907578063718c7eef14610927578063753d75631461094757600080fd5b806352d1902d146108445780635669cbef146108595780635c46f7b114610879578063612afc0c1461089957600080fd5b806340bd1d00116102d257806340bd1d001461079657806340ef2868146107d157806342842e0e146108115780634f1ef2861461083157600080fd5b80633538fda0146107165780633659cfe61461073657806339679ff4146107565780633ac6ad7b1461077657600080fd5b80631526fe27116103865780631f8bc790116103555780631f8bc7901461062157806323b872dd1461069f5780632986c0e5146106bf5780632dbe051e146106d657806330ca0794146106f657600080fd5b80631526fe271461056f57806319693071146105a25780631c6b323f146105d35780631df56622146105f357600080fd5b8063081e3eda116103c2578063081e3eda146104c5578063095ea7b3146104e5578063106d08df14610507578063107258521461052757600080fd5b806301ffc9a7146103f457806306fdde0314610429578063074ecf031461044b578063081812fc146104a5575b600080fd5b34801561040057600080fd5b5061041461040f366004617170565b610e3e565b60405190151581526020015b60405180910390f35b34801561043557600080fd5b5061043e610e90565b60405161042091906171dd565b34801561045757600080fd5b5061048d6104663660046171f0565b61013a6020908152600092835260408084209091529082529020546001600160a01b031681565b6040516001600160a01b039091168152602001610420565b3480156104b157600080fd5b5061048d6104c0366004617212565b610f22565b3480156104d157600080fd5b50610130545b604051908152602001610420565b3480156104f157600080fd5b50610505610500366004617240565b610f4a565b005b34801561051357600080fd5b50610414610522366004617212565b611064565b34801561053357600080fd5b50610547610542366004617212565b611143565b604080519586526020860194909452928401919091526060830152608082015260a001610420565b34801561057b57600080fd5b5061058f61058a366004617212565b6111d0565b604051610420979695949392919061726c565b3480156105ae57600080fd5b506104d76105bd366004617212565b6000908152610134602052604090206002015490565b3480156105df57600080fd5b506104d76105ee366004617212565b61139f565b3480156105ff57600080fd5b506104d761060e366004617212565b6101326020526000908152604090205481565b34801561062d57600080fd5b5061067261063c366004617212565b61013460205260009081526040902080546001820154600283015460038401546004850154600590950154939492939192909186565b604080519687526020870195909552938501929092526060840152608083015260a082015260c001610420565b3480156106ab57600080fd5b506105056106ba366004617383565b611609565b3480156106cb57600080fd5b506104d76101035481565b3480156106e257600080fd5b506104146106f1366004617212565b61163a565b34801561070257600080fd5b50610505610711366004617467565b611654565b34801561072257600080fd5b506105056107313660046174db565b6118cd565b34801561074257600080fd5b506105056107513660046174db565b6118f8565b34801561076257600080fd5b506104d7610771366004617212565b6119d7565b34801561078257600080fd5b506104146107913660046174f8565b611c2c565b3480156107a257600080fd5b506107b66107b1366004617212565b61203e565b60408051938452602084019290925290820152606001610420565b3480156107dd57600080fd5b506107f16107ec366004617212565b6123a7565b604080519485526020850193909352918301526060820152608001610420565b34801561081d57600080fd5b5061050561082c366004617383565b6123e0565b61050561083f36600461751f565b6123fb565b34801561085057600080fd5b506104d76124cb565b34801561086557600080fd5b506104146108743660046171f0565b61257e565b34801561088557600080fd5b506104d76108943660046171f0565b6126a4565b3480156108a557600080fd5b506104d76108b4366004617212565b6101336020526000908152604090205481565b3480156108d357600080fd5b5061048d6108e2366004617212565b612a09565b3480156108f357600080fd5b506104d7610902366004617212565b612a69565b34801561091357600080fd5b506104d76109223660046174db565b612ccd565b34801561093357600080fd5b506107b66109423660046174db565b612d54565b34801561095357600080fd5b506104146109623660046174db565b61013c6020526000908152604090205460ff1681565b34801561098457600080fd5b506104d76109933660046171f0565b612d8c565b3480156109a457600080fd5b506104d76109b3366004617212565b61318e565b3480156109c457600080fd5b506104d76109d336600461756f565b613402565b3480156109e457600080fd5b506104d76109f33660046171f0565b613783565b348015610a0457600080fd5b506104d7610a13366004617212565b6137b9565b348015610a2457600080fd5b506033546001600160a01b031661048d565b348015610a4257600080fd5b506104d7610a513660046171f0565b613a33565b348015610a6257600080fd5b5061043e613a3f565b348015610a7757600080fd5b506104d7610a863660046171f0565b613a4e565b348015610a9757600080fd5b50610414610aa63660046171f0565b613a80565b348015610ab757600080fd5b50610414610ac63660046175df565b613bfa565b348015610ad757600080fd5b5061048d610ae6366004617212565b613dda565b348015610af757600080fd5b50610505610b0636600461760f565b613e05565b348015610b1757600080fd5b506104d7610b26366004617212565b613e10565b348015610b3757600080fd5b506107b6610b46366004617212565b614068565b348015610b5757600080fd5b50610505610b6636600461763d565b6142d4565b348015610b7757600080fd5b506107b6610b86366004617212565b6143a2565b348015610b9757600080fd5b506104d7610ba6366004617212565b61013b6020526000908152604090205481565b348015610bc557600080fd5b50610505614623565b348015610bda57600080fd5b50610505610be9366004617677565b6146a3565b348015610bfa57600080fd5b50610414610c09366004617212565b6146db565b348015610c1a57600080fd5b50610505610c293660046174db565b6147a7565b348015610c3a57600080fd5b5061043e610c49366004617212565b6148d4565b348015610c5a57600080fd5b506104d7610c693660046174db565b6101376020526000908152604090205481565b348015610c8857600080fd5b50610672610c973660046176e3565b610138602090815260009283526040808420909152908252902080546001820154600283015460038401546004850154600590950154939492939192909186565b348015610ce457600080fd5b50610414610cf3366004617708565b614947565b348015610d0457600080fd5b506104d7610d13366004617212565b6149c2565b348015610d2457600080fd5b506104d7610d333660046174db565b6101366020526000908152604090205481565b348015610d5257600080fd5b50610414610d6136600461760f565b614c17565b348015610d7257600080fd5b506104d7610d81366004617212565b6101316020526000908152604090205481565b348015610da057600080fd5b50610414610daf366004617708565b6001600160a01b0391821660009081526101026020908152604080832093909416825291909152205460ff1690565b348015610dea57600080fd5b50610414610df93660046174db565b614e4c565b348015610e0a57600080fd5b50610505610e193660046174db565b614f18565b348015610e2a57600080fd5b50610505610e39366004617212565b614fa7565b60006001600160e01b031982166380ac58cd60e01b1480610e6f57506001600160e01b03198216635b5e139f60e01b145b80610e8a57506301ffc9a760e01b6001600160e01b03198316145b92915050565b606060fd8054610e9f90617736565b80601f0160208091040260200160405190810160405280929190818152602001828054610ecb90617736565b8015610f185780601f10610eed57610100808354040283529160200191610f18565b820191906000526020600020905b815481529060010190602001808311610efb57829003601f168201915b5050505050905090565b6000610f2d82614fd3565b50600090815261010160205260409020546001600160a01b031690565b6000610f5582612a09565b9050806001600160a01b0316836001600160a01b031603610fc75760405162461bcd60e51b815260206004820152602160248201527f4552433732313a20617070726f76616c20746f2063757272656e74206f776e656044820152603960f91b60648201526084015b60405180910390fd5b336001600160a01b0382161480610fe35750610fe38133610daf565b6110555760405162461bcd60e51b815260206004820152603d60248201527f4552433732313a20617070726f76652063616c6c6572206973206e6f7420746f60448201527f6b656e206f776e6572206f7220617070726f76656420666f7220616c6c0000006064820152608401610fbe565b61105f8383615032565b505050565b60003361107083612a09565b6001600160a01b0316146110bc5760405162461bcd60e51b815260206004820152601360248201527239b2b73232b91034b9903737ba1037bbb732b960691b6044820152606401610fbe565b600082815261013360209081526040808320546101349092529091206110e562093a8042617786565b60048201556110f762093a8042617786565b611104906203f480617786565b60058201558054604051819084907fb3b9c925de3673837b40c6b4d4463a8f88dc821cd27e07f1ff6bf6abf96413a590600090a3506001949350505050565b600081815261013360209081526040808320546101348352818420825160c08101845281548082526001830154958201869052600283015494820194909452600382015460608201526004820154608082015260059091015460a0820152919391829182916111b18861203e565b506040830151608090930151989a979950979196919550909350505050565b61013081815481106111e157600080fd5b60009182526020918290206040805161010081018252601490930290910180546001600160a01b03808216855260ff600160a01b8304169585019590955261ffff600160a81b90910416918301919091526001810154909216606082015260028201805492935090918391608084019161125a90617736565b80601f016020809104026020016040519081016040528092919081815260200182805461128690617736565b80156112d35780601f106112a8576101008083540402835291602001916112d3565b820191906000526020600020905b8154815290600101906020018083116112b657829003601f168201915b505050918352505060038201546020808301919091526004830154604080840191909152600590930154606092830152825180840184526006860154815260078601548183015283518085018552600887015481526009870154818401528451608081018652600a8801548152600b88015481850152600c88015481870152600d88015460ff90811615158287015286519586018752600e8901548652600f89015494860194909452601088015495850195909552601287015460139097015495969195909493921687565b60008061013083815481106113b6576113b6617799565b6000918252602090912060408051610200810190915260149092020180546001600160a01b038082166101008501908152600160a01b830460ff16610120860152600160a81b90920461ffff1661014085015260018301541661016084015260028201805484929184916101808501919061143090617736565b80601f016020809104026020016040519081016040528092919081815260200182805461145c90617736565b80156114a95780601f1061147e576101008083540402835291602001916114a9565b820191906000526020600020905b81548152906001019060200180831161148c57829003601f168201915b505050918352505060038201546020808301919091526004830154604080840191909152600590930154606092830152928452815180830183526006860154815260078601548185015284840152815180830183526008860154815260098601548185015284830152815160808082018452600a8701548252600b87015482860152600c87015482850152600d87015460ff161515828401528583019190915282519182018352600e8601548252600f8601548285015260108601548284015284015260118401805482518185028101850190935280835260a09094019391929091908301828280156115c557602002820191906000526020600020905b81546001600160a01b031681526001909101906020018083116115a7575b5050509183525050601282015460208083019190915260139092015460ff1615156040909101528181015190810151905191925061160291617786565b9392505050565b61161333826150a1565b61162f5760405162461bcd60e51b8152600401610fbe906177af565b61105f838383615120565b6000611644615286565b61164f8260006152e0565b919050565b6000610130868154811061166a5761166a617799565b60009182526020909120601490910201601381015490915060ff1615801561169457506003810154155b6116e05760405162461bcd60e51b815260206004820152601860248201527f506f6f6c20616c726561647920696e697469616c697a656400000000000000006044820152606401610fbe565b60008461ffff161180156116fa57506127108461ffff1611155b6117395760405162461bcd60e51b815260206004820152601060248201526f415059206f7574206f662072616e676560801b6044820152606401610fbe565b805461175090600160a01b900460ff16600a6178e0565b61175b9060646178ef565b851015801561178d5750805461177c90600160a01b900460ff16600a6178e0565b61178990629896806178ef565b8511155b6117d15760405162461bcd60e51b8152602060048201526015602482015274506f6f6c20636170206f7574206f662072616e676560581b6044820152606401610fbe565b60018101546001600160a01b031633146117fd5760405162461bcd60e51b8152600401610fbe90617906565b600061180d868661ffff16613783565b905060006127106118206103e8846178ef565b61182a9190617944565b905061184e333061183b8589617786565b86546001600160a01b031692919061542b565b50848360060160000160008282546118669190617786565b909155505060038301879055825461ffff60a81b1916600160a81b61ffff88160217835560138301805460ff19166001179055600883018290556118aa8183617966565b60098401558351156118c3576118c1888587615499565b505b5050505050505050565b6118d5615286565b61013980546001600160a01b0319166001600160a01b0392909216919091179055565b6001600160a01b037f00000000000000000000000000000000000000000000000000000000000000001630036119405760405162461bcd60e51b8152600401610fbe90617979565b7f00000000000000000000000000000000000000000000000000000000000000006001600160a01b0316611989600080516020617dab833981519152546001600160a01b031690565b6001600160a01b0316146119af5760405162461bcd60e51b8152600401610fbe906179c5565b6119b881615633565b604080516000808252602082019092526119d49183919061563b565b50565b60008061013083815481106119ee576119ee617799565b6000918252602090912060408051610200810190915260149092020180546001600160a01b038082166101008501908152600160a01b830460ff16610120860152600160a81b90920461ffff16610140850152600183015416610160840152600282018054849291849161018085019190611a6890617736565b80601f0160208091040260200160405190810160405280929190818152602001828054611a9490617736565b8015611ae15780601f10611ab657610100808354040283529160200191611ae1565b820191906000526020600020905b815481529060010190602001808311611ac457829003601f168201915b505050918352505060038201546020808301919091526004830154604080840191909152600590930154606092830152928452815180830183526006860154815260078601548185015284840152815180830183526008860154815260098601548185015284830152815160808082018452600a8701548252600b87015482860152600c87015482850152600d87015460ff161515828401528583019190915282519182018352600e8601548252600f8601548285015260108601548284015284015260118401805482518185028101850190935280835260a0909401939192909190830182828015611bfd57602002820191906000526020600020905b81546001600160a01b03168152600190910190602001808311611bdf575b50505091835250506012820154602082015260139091015460ff1615156040909101525160a001519392505050565b6000611c36615286565b60006101308581548110611c4c57611c4c617799565b60009182526020822060046014909202019081015490925090611c6e8761139f565b611c789083617786565b905080828611611e1e57828603611d1f5760008881526101356020526040812054905b81811015611d015760008a815261013560205260408120805483908110611cc457611cc4617799565b90600052602060002001549050600061013460008381526020019081526020016000209050611cf48260006157a6565b6000905550600101611c9b565b50600060048601819055611d19906011870190616f7d565b50611f38565b600083611d34670de0b6b3a7640000896178ef565b611d3e9190617944565b60008a815261013560205260408120549192505b81811015611e165760008b815261013560205260408120805483908110611d7b57611d7b617799565b90600052602060002001549050600061013460008381526020019081526020016000209050611dab8260006157a6565b6000670de0b6b3a7640000868360000154611dc691906178ef565b611dd09190617944565b905080826000016000828254611de69190617966565b909155505060048a018054829190600090611e02908490617966565b909155505060019093019250611d52915050565b505050611f38565b8286118015611e2d5750818611155b15611efe5760008881526101356020526040812054905b81811015611eaa5760008a815261013560205260408120805483908110611e6d57611e6d617799565b90600052602060002001549050600061013460008381526020019081526020016000209050611e9d8260006157a6565b6000905550600101611e44565b50600060048601819055611ec2906011870190616f7d565b611ecb896158df565b506000611ed88589617966565b905080866006016000016000828254611ef19190617966565b90915550611f3892505050565b60405162461bcd60e51b815260206004820152600f60248201526e082dadeeadce840e8dede40d0d2ced608b1b6044820152606401610fbe565b6000612710611f496103e8896178ef565b611f539190617944565b90506000611f618289617966565b86546001600160a01b031660009081526101366020526040812080549293508492909190611f90908490617786565b90915550508554611fab906001600160a01b03168a83615a3d565b506000611fb78b61139f565b6004880154611fc69190617786565b87546040518b81529192506001600160a01b0390811691908c169042907fc351e6e0f377ec1a399ec84224a83d6a4b9f3cd9a5530e5c652d0b11c2f8dae29060200160405180910390a480848c600080516020617d8b83398151915260405160405180910390a45060019a9950505050505050505050565b6000818152610133602052604081205461013080548392839290918391908390811061206c5761206c617799565b6000918252602090912060408051610200810190915260149092020180546001600160a01b038082166101008501908152600160a01b830460ff16610120860152600160a81b90920461ffff166101408501526001830154166101608401526002820180548492918491610180850191906120e690617736565b80601f016020809104026020016040519081016040528092919081815260200182805461211290617736565b801561215f5780601f106121345761010080835404028352916020019161215f565b820191906000526020600020905b81548152906001019060200180831161214257829003601f168201915b505050918352505060038201546020808301919091526004830154604080840191909152600590930154606092830152928452815180830183526006860154815260078601548185015284840152815180830183526008860154815260098601548185015284830152815160808082018452600a8701548252600b87015482860152600c87015482850152600d87015460ff161515828401528583019190915282519182018352600e8601548252600f8601548285015260108601548284015284015260118401805482518185028101850190935280835260a090940193919290919083018282801561227b57602002820191906000526020600020905b81546001600160a01b0316815260019091019060200180831161225d575b5050509183525050601282015460208083019190915260139092015460ff16151560409182015260008981526101348352818120825160c080820185528254825260018301549582019590955260028201549381019390935260038101546060840152600481015460808401526005015460a083015291830151929350918103612305574261230b565b8260c001515b9050600061231d836060015183613a33565b90506301e133808161271086600001516040015161ffff16866000015161234491906178ef565b61234e9190617944565b61235891906178ef565b6123629190617944565b95508260400151866123749190617786565b97506127106123856103e882617966565b61238f908a6178ef565b6123999190617944565b965050505050509193909250565b6000806000806123b6856137b9565b93506123c1856149c2565b91506123cc85613e10565b92506123d7856119d7565b90509193509193565b61105f838383604051806020016040528060008152506146a3565b6001600160a01b037f00000000000000000000000000000000000000000000000000000000000000001630036124435760405162461bcd60e51b8152600401610fbe90617979565b7f00000000000000000000000000000000000000000000000000000000000000006001600160a01b031661248c600080516020617dab833981519152546001600160a01b031690565b6001600160a01b0316146124b25760405162461bcd60e51b8152600401610fbe906179c5565b6124bb82615633565b6124c78282600161563b565b5050565b6000306001600160a01b037f0000000000000000000000000000000000000000000000000000000000000000161461256b5760405162461bcd60e51b815260206004820152603860248201527f555550535570677261646561626c653a206d757374206e6f742062652063616c60448201527f6c6564207468726f7567682064656c656761746563616c6c00000000000000006064820152608401610fbe565b50600080516020617dab83398151915290565b600080610130848154811061259557612595617799565b90600052602060002090601402019050826125af8561139f565b10156125fd5760405162461bcd60e51b815260206004820152601a60248201527f416d6f756e7420626967676572207468616e206465706f7369740000000000006044820152606401610fbe565b60018101546001600160a01b031633146126295760405162461bcd60e51b8152600401610fbe90617906565b61263662093a8042617786565b600a82015561264862093a8042617786565b612655906203f480617786565b600b820155600c8101839055600d8101805460ff19169055604051839085907fb3b9c925de3673837b40c6b4d4463a8f88dc821cd27e07f1ff6bf6abf96413a590600090a35060019392505050565b60008061013083815481106126bb576126bb617799565b6000918252602090912060408051610200810190915260149092020180546001600160a01b038082166101008501908152600160a01b830460ff16610120860152600160a81b90920461ffff1661014085015260018301541661016084015260028201805484929184916101808501919061273590617736565b80601f016020809104026020016040519081016040528092919081815260200182805461276190617736565b80156127ae5780601f10612783576101008083540402835291602001916127ae565b820191906000526020600020905b81548152906001019060200180831161279157829003601f168201915b505050918352505060038201546020808301919091526004830154604080840191909152600590930154606092830152928452815180830183526006860154815260078601548185015284840152815180830183526008860154815260098601548185015284830152815160808082018452600a8701548252600b87015482860152600c87015482850152600d87015460ff161515828401528583019190915282519182018352600e8601548252600f8601548285015260108601548284015284015260118401805482518185028101850190935280835260a09094019391929091908301828280156128ca57602002820191906000526020600020905b81546001600160a01b031681526001909101906020018083116128ac575b50505091835250506012820154602082015260139091015460ff16151560409091015260808101515190915060006129028686615a70565b50905060006129118383617786565b905060006129208260216178ef565b61293290674563918244f40000617786565b905060006129418560216178ef565b61295390674563918244f40000617786565b9050600061296861296384615acd565b615b16565b9050600061297861296384615acd565b905060006129b66129896021615acd565b6129b06129968686615b4e565b6129aa6a295be96e64066972000000615acd565b90615b5d565b90615b6c565b905060006129c788620f42406178ef565b6129d19083617944565b8a5160e00151909150670de0b6b3a76400006129ed82846178ef565b6129f79190617944565b9e9d5050505050505050505050505050565b600081815260ff60205260408120546001600160a01b031680610e8a5760405162461bcd60e51b8152602060048201526018602482015277115490cdcc8c4e881a5b9d985b1a59081d1bdad95b88125160421b6044820152606401610fbe565b6000806101308381548110612a8057612a80617799565b6000918252602090912060408051610200810190915260149092020180546001600160a01b038082166101008501908152600160a01b830460ff16610120860152600160a81b90920461ffff16610140850152600183015416610160840152600282018054849291849161018085019190612afa90617736565b80601f0160208091040260200160405190810160405280929190818152602001828054612b2690617736565b8015612b735780601f10612b4857610100808354040283529160200191612b73565b820191906000526020600020905b815481529060010190602001808311612b5657829003601f168201915b505050918352505060038201546020808301919091526004830154604080840191909152600590930154606092830152928452815180830183526006860154815260078601548185015284840152815180830183526008860154815260098601548185015284830152815160808082018452600a8701548252600b87015482860152600c87015482850152600d87015460ff161515828401528583019190915282519182018352600e8601548252600f8601548285015260108601548284015284015260118401805482518185028101850190935280835260a0909401939192909190830182828015612c8f57602002820191906000526020600020905b81546001600160a01b03168152600190910190602001808311612c71575b50505091835250506012820154602082015260139091015460ff1615156040909101529050612cbd8361139f565b815160c001516116029190617786565b60006001600160a01b038216612d375760405162461bcd60e51b815260206004820152602960248201527f4552433732313a2061646472657373207a65726f206973206e6f7420612076616044820152683634b21037bbb732b960b91b6064820152608401610fbe565b506001600160a01b03166000908152610100602052604090205490565b6001600160a01b03811660009081526101366020908152604080832054610137909252822054612d848282617786565b949193509150565b6000612d96615b84565b8260006101308281548110612dad57612dad617799565b6000918252602090912060408051610200810190915260149092020180546001600160a01b038082166101008501908152600160a01b830460ff16610120860152600160a81b90920461ffff16610140850152600183015416610160840152600282018054849291849161018085019190612e2790617736565b80601f0160208091040260200160405190810160405280929190818152602001828054612e5390617736565b8015612ea05780601f10612e7557610100808354040283529160200191612ea0565b820191906000526020600020905b815481529060010190602001808311612e8357829003601f168201915b505050918352505060038201546020808301919091526004830154604080840191909152600590930154606092830152928452815180830183526006860154815260078601548185015284840152815180830183526008860154815260098601548185015284830152815160808082018452600a8701548252600b87015482860152600c87015482850152600d87015460ff161515828401528583019190915282519182018352600e8601548252600f8601548285015260108601548284015284015260118401805482518185028101850190935280835260a0909401939192909190830182828015612fbc57602002820191906000526020600020905b81546001600160a01b03168152600190910190602001808311612f9e575b50505091835250506012820154602082015260139091015460ff16151560409091015260e08101519091506130255760405162461bcd60e51b815260206004820152600f60248201526e706f6f6c206e6f742061637469766560881b6044820152606401610fbe565b6000841161303257600080fd5b6000610130868154811061304857613048617799565b600091825260208220600660149092020190810154600482015491935061306e91617786565b8254909150613088906001600160a01b031633308961542b565b506000613096883389615bdd565b9050868360000160040160008282546130af9190617786565b90915550506003830154158015906130cf57506003830154600484015411155b6131115760405162461bcd60e51b8152602060048201526013602482015272115e18d959591959081c1bdbdb081b1a5b5a5d606a1b6044820152606401610fbe565b604051878152889033907f1449c6dd7851abc30abf37f57715f492010519147cc2652fbc38202c18a6ee909060200160405180910390a36006830154600484015460009161315e91617786565b905080838a600080516020617d8b83398151915260405160405180910390a450945050505050610e8a600160ca55565b60008061013083815481106131a5576131a5617799565b6000918252602090912060408051610200810190915260149092020180546001600160a01b038082166101008501908152600160a01b830460ff16610120860152600160a81b90920461ffff1661014085015260018301541661016084015260028201805484929184916101808501919061321f90617736565b80601f016020809104026020016040519081016040528092919081815260200182805461324b90617736565b80156132985780601f1061326d57610100808354040283529160200191613298565b820191906000526020600020905b81548152906001019060200180831161327b57829003601f168201915b505050918352505060038201546020808301919091526004830154604080840191909152600590930154606092830152928452815180830183526006860154815260078601548185015284840152815180830183526008860154815260098601548185015284830152815160808082018452600a8701548252600b87015482860152600c87015482850152600d87015460ff161515828401528583019190915282519182018352600e8601548252600f8601548285015260108601548284015284015260118401805482518185028101850190935280835260a09094019391929091908301828280156133b457602002820191906000526020600020905b81546001600160a01b03168152600190910190602001808311613396575b50505091835250506012820154602082015260139091015460ff161515604090910152608081015151815160e00151919250906133f082615db1565b6133fa91906178ef565b949350505050565b600061340c615286565b6001600160a01b038416600090815261013c602052604090205460ff1661346d5760405162461bcd60e51b81526020600482015260156024820152741d1bdad95b881b9bdd081dda1a5d195b1a5cdd1959605a1b6044820152606401610fbe565b60408051600481526024810182526020810180516001600160e01b031663313ce56760e01b17905290516000916001600160a01b038716916134af9190617a11565b600060405180830381855afa9150503d80600081146134ea576040519150601f19603f3d011682016040523d82523d6000602084013e6134ef565b606091505b509150506000818060200190518101906135099190617a2d565b9050613513616f9b565b80516001600160a01b03808916909152815160ff8085166020928301528351898416606091820152845160809081018a9052855160006040918201819052875160a001819052875160e0908101829052885160c0908101839052878a0151839052858a01805184905280518901849052805185018490525186018390529089018290528801819052610130805460018101825591528751805160149092027f2f605e086faac1d93117bbfbc18835d434e9405fadc1ca66faf4b864746daf3481018054988301519483015161ffff16600160a81b0261ffff60a81b1995909816600160a01b026001600160a81b0319909916938a16939093179790971792909216949094178455918201517f2f605e086faac1d93117bbfbc18835d434e9405fadc1ca66faf4b864746daf3585018054919096166001600160a01b03199190911617909455928301518493919283917f2f605e086faac1d93117bbfbc18835d434e9405fadc1ca66faf4b864746daf36909101906136919082617a9e565b5060a082810151600383015560c0830151600483015560e0909201516005909101556020838101518051600685015581015160078401556040808501518051600886015582015160098501556060808601518051600a87015580840151600b87015580830151600c8701550151600d8501805460ff191691151591909117905560808501518051600e86015580830151600f8601550151601084015590830151805161374392601185019201906170a5565b5060c0820151601282015560e0909101516013909101805460ff19169115159190911790556101305461377890600190617966565b979650505050505050565b60006301e1338061271062093a8061379b85876178ef565b6137a591906178ef565b6137af9190617944565b6116029190617944565b60008061013083815481106137d0576137d0617799565b6000918252602090912060408051610200810190915260149092020180546001600160a01b038082166101008501908152600160a01b830460ff16610120860152600160a81b90920461ffff1661014085015260018301541661016084015260028201805484929184916101808501919061384a90617736565b80601f016020809104026020016040519081016040528092919081815260200182805461387690617736565b80156138c35780601f10613898576101008083540402835291602001916138c3565b820191906000526020600020905b8154815290600101906020018083116138a657829003601f168201915b505050918352505060038201546020808301919091526004830154604080840191909152600590930154606092830152928452815180830183526006860154815260078601548185015284840152815180830183526008860154815260098601548185015284830152815160808082018452600a8701548252600b87015482860152600c87015482850152600d87015460ff161515828401528583019190915282519182018352600e8601548252600f8601548285015260108601548284015284015260118401805482518185028101850190935280835260a09094019391929091908301828280156139df57602002820191906000526020600020905b81546001600160a01b031681526001909101906020018083116139c1575b50505091835250506012820154602082015260139091015460ff1615156040909101529050612710613a136103e882617966565b602083015151835160c00151613a299190617786565b6137af91906178ef565b60006116028284615e06565b606060fe8054610e9f90617736565b6101356020528160005260406000208181548110613a6b57600080fd5b90600052602060002001600091509150505481565b6000806101308481548110613a9757613a97617799565b6000918252602090912060149091020160018101549091506001600160a01b03163314613ad65760405162461bcd60e51b8152600401610fbe90617906565b600a81015442118015613aec5750600b81015442105b8015613afd5750600d81015460ff16155b8015613b0d5750600c8101548311155b8015613b1c5750600a81015415155b613b385760405162461bcd60e51b8152600401610fbe90617b5e565b600d8101805460ff191660011790556006810154831115613b5e57613b5c846158df565b505b6000613b698561139f565b6004830154613b789190617786565b905083826006016000016000828254613b919190617966565b909155505060018201548254613bb4916001600160a01b03918216911686615a3d565b506000613bc08661139f565b6004840154613bcf9190617786565b9050808287600080516020617d8b83398151915260405160405180910390a450600195945050505050565b6000613c04615b84565b33613c0e84612a09565b6001600160a01b031614613c5a5760405162461bcd60e51b815260206004820152601360248201527239b2b73232b91034b9903737ba1037bbb732b960691b6044820152606401610fbe565b60008381526101336020526040812054610130805491929183908110613c8257613c82617799565b90600052602060002090601402019050600061013460008781526020019081526020016000209050428160040154108015613cc05750428160050154115b613cdc5760405162461bcd60e51b8152600401610fbe90617b5e565b613ce686866157a6565b805460008083556004830181905560058301819055613d048561139f565b6004850154613d139190617786565b90508615613d2457613d2488615e12565b8115613d56576004840154613d399083615e06565b60048501558354613d54906001600160a01b03163384615a3d565b505b604051828152859033907f7fc4727e062e336010f2c282598ef5f14facb3de68cf8195c2f23e1454b2b74e9060200160405180910390a36000613d988661139f565b6004860154613da79190617786565b9050808287600080516020617d8b83398151915260405160405180910390a460019650505050505050610e8a600160ca55565b61013d8181548110613deb57600080fd5b6000918252602090912001546001600160a01b0316905081565b6124c7338383615ec5565b6000806101308381548110613e2757613e27617799565b6000918252602090912060408051610200810190915260149092020180546001600160a01b038082166101008501908152600160a01b830460ff16610120860152600160a81b90920461ffff16610140850152600183015416610160840152600282018054849291849161018085019190613ea190617736565b80601f0160208091040260200160405190810160405280929190818152602001828054613ecd90617736565b8015613f1a5780601f10613eef57610100808354040283529160200191613f1a565b820191906000526020600020905b815481529060010190602001808311613efd57829003601f168201915b505050918352505060038201546020808301919091526004830154604080840191909152600590930154606092830152928452815180830183526006860154815260078601548185015284840152815180830183526008860154815260098601548185015284830152815160808082018452600a8701548252600b87015482860152600c87015482850152600d87015460ff161515828401528583019190915282519182018352600e8601548252600f8601548285015260108601548284015284015260118401805482518185028101850190935280835260a090940193919290919083018282801561403657602002820191906000526020600020905b81546001600160a01b03168152600190910190602001808311614018575b50505091835250506012820154602082015260139091015460ff1615156040918201529051015161ffff169392505050565b600080600080610130858154811061408257614082617799565b6000918252602090912060408051610200810190915260149092020180546001600160a01b038082166101008501908152600160a01b830460ff16610120860152600160a81b90920461ffff166101408501526001830154166101608401526002820180548492918491610180850191906140fc90617736565b80601f016020809104026020016040519081016040528092919081815260200182805461412890617736565b80156141755780601f1061414a57610100808354040283529160200191614175565b820191906000526020600020905b81548152906001019060200180831161415857829003601f168201915b505050918352505060038201546020808301919091526004830154604080840191909152600590930154606092830152928452815180830183526006860154815260078601548185015284840152815180830183526008860154815260098601548185015284830152815160808082018452600a8701548252600b87015482860152600c87015482850152600d87015460ff161515828401528583019190915282519182018352600e8601548252600f8601548285015260108601548284015284015260118401805482518185028101850190935280835260a090940193919290919083018282801561429157602002820191906000526020600020905b81546001600160a01b03168152600190910190602001808311614273575b5050509183525050601282015460208083019190915260139092015460ff1615156040918201526060909201518051918101519201519097919650945092505050565b600061013084815481106142ea576142ea617799565b6000918252602090912060149091020160018101549091506001600160a01b031633146143295760405162461bcd60e51b8152600401610fbe90617906565b6006810154600482015460009161433f91617786565b8254909150614359906001600160a01b031633308761542b565b50838260060160000160008282546143719190617786565b90915550506006820154600483015460009161438c91617786565b9050614399868587615499565b50505050505050565b60008060008061013085815481106143bc576143bc617799565b6000918252602090912060408051610200810190915260149092020180546001600160a01b038082166101008501908152600160a01b830460ff16610120860152600160a81b90920461ffff1661014085015260018301541661016084015260028201805484929184916101808501919061443690617736565b80601f016020809104026020016040519081016040528092919081815260200182805461446290617736565b80156144af5780601f10614484576101008083540402835291602001916144af565b820191906000526020600020905b81548152906001019060200180831161449257829003601f168201915b505050918352505060038201546020808301919091526004830154604080840191909152600590930154606092830152928452815180830183526006860154815260078601548185015284840152815180830183526008860154815260098601548185015284830152815160808082018452600a8701548252600b87015482860152600c87015482850152600d87015460ff161515828401528583019190915282519182018352600e8601548252600f8601548285015260108601548284015284015260118401805482518185028101850190935280835260a09094019391929091908301828280156145cb57602002820191906000526020600020905b81546001600160a01b031681526001909101906020018083116145ad575b50505091835250506012820154602082015260139091015460ff161515604091820152815160a08101519101519192506146089161ffff16613783565b60409091015180516020909101519196909550909350915050565b6034546001600160a01b0316331461468c5760405162461bcd60e51b815260206004820152602660248201527f6f6e6c792070656e64696e67206f776e65722063616e2061636365707420747260448201526530b739b332b960d11b6064820152608401610fbe565b6034546146a1906001600160a01b0316615f94565b565b6146ad33836150a1565b6146c95760405162461bcd60e51b8152600401610fbe906177af565b6146d584848484615ff1565b50505050565b60008061013083815481106146f2576146f2617799565b6000918252602090912060149091020160018101549091506001600160a01b031633148061472a57506033546001600160a01b031633145b6147465760405162461bcd60e51b8152600401610fbe90617906565b601381015460ff1661478c5760405162461bcd60e51b815260206004820152600f60248201526e506f6f6c206e6f742061637469766560881b6044820152606401610fbe565b60138101805460ff1916905542601290910155506001919050565b600054610100900460ff16158080156147c75750600054600160ff909116105b806147e15750303b1580156147e1575060005460ff166001145b6148445760405162461bcd60e51b815260206004820152602e60248201527f496e697469616c697a61626c653a20636f6e747261637420697320616c72656160448201526d191e481a5b9a5d1a585b1a5e995960921b6064820152608401610fbe565b6000805460ff191660011790558015614867576000805461ff0019166101001790555b61486f616024565b61013980546001600160a01b0319166001600160a01b03841617905580156124c7576000805461ff0019169055604051600181527f7f26b83ff96e1f2b6a682f133852f6798a09c465da95921460cefb38474024989060200160405180910390a15050565b60606148df82614fd3565b60006148f660408051602081019091526000815290565b905060008151116149165760405180602001604052806000815250611602565b8061492084616053565b604051602001614931929190617ba7565b6040516020818303038152906040529392505050565b6000614951615286565b6001600160a01b038316600090815261013760209081526040808320546101369092528220546149819190617786565b6001600160a01b0385166000818152610136602090815260408083208390556101379091528120559091506149b7908483615a3d565b506001949350505050565b60008061013083815481106149d9576149d9617799565b6000918252602090912060408051610200810190915260149092020180546001600160a01b038082166101008501908152600160a01b830460ff16610120860152600160a81b90920461ffff16610140850152600183015416610160840152600282018054849291849161018085019190614a5390617736565b80601f0160208091040260200160405190810160405280929190818152602001828054614a7f90617736565b8015614acc5780601f10614aa157610100808354040283529160200191614acc565b820191906000526020600020905b815481529060010190602001808311614aaf57829003601f168201915b505050918352505060038201546020808301919091526004830154604080840191909152600590930154606092830152928452815180830183526006860154815260078601548185015284840152815180830183526008860154815260098601548185015284830152815160808082018452600a8701548252600b87015482860152600c87015482850152600d87015460ff161515828401528583019190915282519182018352600e8601548252600f8601548285015260108601548284015284015260118401805482518185028101850190935280835260a0909401939192909190830182828015614be857602002820191906000526020600020905b81546001600160a01b03168152600190910190602001808311614bca575b50505091835250506012820154602082015260139091015460ff1615156040909101525160c001519392505050565b6000614c21615286565b6001600160a01b038316600090815261013c602052604090205460ff161515821514614c875760405162461bcd60e51b81526020600482015260156024820152741dda1a5d195b1a5cdd08185b1c9958591e481cd95d605a1b6044820152606401610fbe565b6001600160a01b038316600081815261013c6020526040808220805460ff191686151590811790915590519092917f99795d51e5a8804307721456a7a9c2f0d7421f719d46a46d36e91fee7c85aa7691a38115614d2f5761013d80546001810182556000919091527f311617e6f2abe00ca92b0da56c014828817049e78441cf034e4dd4feba5296250180546001600160a01b0319166001600160a01b038516179055614e43565b61013d5460005b81811015614e4057600061013d8281548110614d5457614d54617799565b6000918252602090912001546001600160a01b03908116915086168103614e2f5761013d614d83600185617966565b81548110614d9357614d93617799565b60009182526020909120015461013d80546001600160a01b039092169184908110614dc057614dc0617799565b9060005260206000200160006101000a8154816001600160a01b0302191690836001600160a01b0316021790555061013d805480614e0057614e00617bd6565b600082815260209020810160001990810180546001600160a01b03191690550190555060019250610e8a915050565b50614e3981617bec565b9050614d36565b50505b50600192915050565b6000614e56615286565b61013d5460005b81811015614f0e57600061013d8281548110614e7b57614e7b617799565b60009182526020808320909101546001600160a01b03168083526101378252604080842054610136909352832054909350614eb69190617786565b905080600003614ec7575050614efe565b6001600160a01b038216600081815261013660209081526040808320839055610137909152812055614efa908783615a3d565b5050505b614f0781617bec565b9050614e5d565b5060019392505050565b614f20615286565b6001600160a01b038116614f855760405162461bcd60e51b815260206004820152602660248201527f4f776e61626c653a206e6577206f776e657220697320746865207a65726f206160448201526564647265737360d01b6064820152608401610fbe565b603480546001600160a01b0319166001600160a01b0392909216919091179055565b614faf615b84565b614fba8160016157a6565b6119d4600160ca55565b6001600160a01b03163b151590565b600081815260ff60205260409020546001600160a01b03166119d45760405162461bcd60e51b8152602060048201526018602482015277115490cdcc8c4e881a5b9d985b1a59081d1bdad95b88125160421b6044820152606401610fbe565b60008181526101016020526040902080546001600160a01b0319166001600160a01b038416908117909155819061506882612a09565b6001600160a01b03167f8c5be1e5ebec7d5bd14f71427d1e84f3dd0314c0f7b2291e5b200ac8c7c3b92560405160405180910390a45050565b6000806150ad83612a09565b9050806001600160a01b0316846001600160a01b031614806150f557506001600160a01b038082166000908152610102602090815260408083209388168352929052205460ff165b806133fa5750836001600160a01b031661510e84610f22565b6001600160a01b031614949350505050565b826001600160a01b031661513382612a09565b6001600160a01b0316146151595760405162461bcd60e51b8152600401610fbe90617c05565b6001600160a01b0382166151bb5760405162461bcd60e51b8152602060048201526024808201527f4552433732313a207472616e7366657220746f20746865207a65726f206164646044820152637265737360e01b6064820152608401610fbe565b826001600160a01b03166151ce82612a09565b6001600160a01b0316146151f45760405162461bcd60e51b8152600401610fbe90617c05565b60008181526101016020908152604080832080546001600160a01b03199081169091556001600160a01b03878116808652610100855283862080546000190190559087168086528386208054600101905586865260ff90945282852080549092168417909155905184937fddf252ad1be2c89b69c2b068fc378daa952ba7f163c4a11628f55a4df523b3ef91a4505050565b6033546001600160a01b031633146146a15760405162461bcd60e51b815260206004820181905260248201527f4f776e61626c653a2063616c6c6572206973206e6f7420746865206f776e65726044820152606401610fbe565b600061013083815481106152f6576152f6617799565b60009182526020822060149190910201600881015460038201548254929450859261532c9190600160a81b900461ffff16613783565b6153369190617966565b6153409190617786565b60018301548354919250615362916001600160a01b039081169116308461542b565b5060006127106153746103e8846178ef565b61537e9190617944565b9050818360080160000160008282546153979190617786565b909155505082546001600160a01b031660009081526101376020526040812080548392906153c6908490617786565b90915550600090506153d88284617966565b9050808460080160010160008282546153f19190617786565b9091555050604051839087907fadb049ad2d09be3db90459a16aef1ad0a4d89e8fdcc1ade9429d6cc55abbcd2b90600090a3505050505050565b6040516001600160a01b03808516602483015283166044820152606481018290526000906149b79086906323b872dd60e01b906084015b60408051601f198184030181529190526020810180516001600160e01b03166001600160e01b0319909316929092179091526160e4565b60008061013085815481106154b0576154b0617799565b906000526020600020906014020190506000846040516020016154d391906171dd565b60408051601f198184030181529181528151602092830120600089815261013b90935291205490915080821461562957600061550e886158df565b9050600061551c89896161b6565b90506001600160a01b0381161561560957806155388389617786565b60068701805460009061554c908490617966565b9091555061555c90508389617786565b600787018054600090615570908490617786565b90915550615596905082615584858b617786565b88546001600160a01b03169190615a3d565b5060405163d33b0aa760e01b8152600160048201526001600160a01b0382169063d33b0aa7906024016020604051808303816000875af11580156155de573d6000803e3d6000fd5b505050506040513d601f19601f820116820180604052508101906156029190617c4a565b5050615626565b868560060160000160008282546156209190617786565b90915550505b50505b5050509392505050565b6119d4615286565b7f4910fdfa16fed3260ed0e7147f7cc6da11a60208b5b9406d12a635614ffd91435460ff161561566e5761105f836162f5565b826001600160a01b03166352d1902d6040518163ffffffff1660e01b8152600401602060405180830381865afa9250505080156156c8575060408051601f3d908101601f191682019092526156c591810190617c4a565b60015b61572b5760405162461bcd60e51b815260206004820152602e60248201527f45524331393637557067726164653a206e657720696d706c656d656e7461746960448201526d6f6e206973206e6f74205555505360901b6064820152608401610fbe565b600080516020617dab833981519152811461579a5760405162461bcd60e51b815260206004820152602960248201527f45524331393637557067726164653a20756e737570706f727465642070726f786044820152681a58589b195555525160ba1b6064820152608401610fbe565b5061105f838383616391565b600082815261013360205260408120546101308054919291839081106157ce576157ce617799565b600091825260208083208784526101349091526040832060149092020192509080806157f98861203e565b92509250925086615847578460120154600003615816574261581c565b84601201545b8460030181905550808460020160008282546158389190617786565b90915550505050505050505050565b600885015483111561585d5761585d86846152e0565b82156118c3576000600285018190556012860154900361587d5742615883565b84601201545b600385015560088501805484919060009061589f908490617966565b90915550506009850180548391906000906158bb908490617966565b909155506118c190506158cd89612a09565b86546001600160a01b03169084615a3d565b60008061013083815481106158f6576158f6617799565b6000918252602080832086845261013b909152604083205460149092020192508015615a3557600085815261013a602090815260408083208484528252808320548151637f1f087360e01b815291516001600160a01b0390911693928492637f1f08739260048083019392829003018187875af115801561597b573d6000803e3d6000fd5b505050506040513d601f19601f8201168201806040525081019061599f9190617c4a565b60405163f840cb8360e01b815260016004820152602481018290529091506001600160a01b0383169063f840cb83906044016020604051808303816000875af11580156159f0573d6000803e3d6000fd5b505050506040513d601f19601f82011682018060405250810190615a149190617c4a565b935083856006016000016000828254615a2d9190617786565b909155505050505b509392505050565b6040516001600160a01b038316602482015260448101829052600090614f0e90859063a9059cbb60e01b90606401615462565b6000806101308381548110615a8757615a87617799565b6000918252602090912060036014909202010154615aad670de0b6b3a7640000866178ef565b615ab79190617944565b9050615ac48160056178ef565b91509250929050565b6000615ae3670de0b6b3a7640000600019617944565b821115615b06576040516322630c4560e01b815260048101839052602401610fbe565b670de0b6b3a76400008202610e8a565b6000610e8a6714057b7ef767814f670de0b6b3a7640000615b3c615b39866163b6565b90565b0281615b4a57615b4a61792e565b0490565b6000611602615b398385617966565b6000611602615b3984846164ec565b6000611602615b3984670de0b6b3a7640000856165a0565b600260ca5403615bd65760405162461bcd60e51b815260206004820152601f60248201527f5265656e7472616e637947756172643a207265656e7472616e742063616c6c006044820152606401610fbe565b600260ca55565b60006001600160a01b038316615c355760405162461bcd60e51b815260206004820152601f60248201527f45524332303a206d696e7420746f20746865207a65726f2061646472657373006044820152606401610fbe565b60006101308581548110615c4b57615c4b617799565b6000918252602082206014909102015461ffff600160a81b909104169150615c7285616674565b9050615cad6040518060c001604052806000815260200160008152602001600081526020016000815260200160008152602001600081525090565b84815260208082018481524260608401908152600085815261013484526040808220865181559351600180860191909155818701516002860155925160038501556080860151600485015560a08601516005909401939093558a815261013584528281208054928301815581528381209091018590558481526101339092529020879055610130805486919089908110615d4957615d49617799565b9060005260206000209060140201600e016002016000828254615d6c9190617786565b92505081905550615da56101308881548110615d8a57615d8a617799565b9060005260206000209060140201600e01600201548861681b565b50909695505050505050565b600080670de0b6b3a7640000615dcf84670928ca80cfc200006178ef565b615dd99190617944565b615deb9067016345785d8a0000617786565b9050611602816ec097ce7bc90715b34b9f1000000000617944565b60006116028284617966565b60008181526101336020908152604080832054610134835292819020815160c0810183528154815260018201549381019390935260028101549183019190915260038101546060830152600481015460808301526005015460a0820152615e788361684f565b615e81836168e6565b8051610130805484908110615e9857615e98617799565b9060005260206000209060140201600e016002016000828254615ebb9190617966565b9091555050505050565b816001600160a01b0316836001600160a01b031603615f265760405162461bcd60e51b815260206004820152601960248201527f4552433732313a20617070726f766520746f2063616c6c6572000000000000006044820152606401610fbe565b6001600160a01b0383811660008181526101026020908152604080832094871680845294825291829020805460ff191686151590811790915591519182527f17307eab39ab6107e8899845ad3d59bd9653f200f220920489ca2b5937696c31910160405180910390a3505050565b603380546001600160a01b038381166001600160a01b03198084168217909455603480549094169093556040519116919082907f8be0079c531659141344cd1fd0a4f28419497f9722a3daafe3b4186f6b6457e090600090a35050565b615ffc848484615120565b61600884848484616aac565b6146d55760405162461bcd60e51b8152600401610fbe90617c63565b600054610100900460ff1661604b5760405162461bcd60e51b8152600401610fbe90617cb5565b6146a1616baa565b6060600061606083616bda565b600101905060008167ffffffffffffffff811115616080576160806173c4565b6040519080825280601f01601f1916602001820160405280156160aa576020820181803683370190505b5090508181016020015b600019016f181899199a1a9b1b9c1cb0b131b232b360811b600a86061a8153600a850494508415615a35576160b4565b6000616139826040518060400160405280602081526020017f5361666545524332303a206c6f772d6c6576656c2063616c6c206661696c6564815250856001600160a01b0316616cb29092919063ffffffff16565b80519091501561105f57808060200190518101906161579190617d00565b61105f5760405162461bcd60e51b815260206004820152602a60248201527f5361666545524332303a204552433230206f7065726174696f6e20646964206e6044820152691bdd081cdd58d8d9595960b21b6064820152608401610fbe565b6000806000836040516020016161cc91906171dd565b60408051601f198184030181529181528151602092830120600088815261013a84528281208282529093529120549091506001600160a01b0316806162865761013954604051632f3802cf60e11b81526001600160a01b0390911690635e70059e9061623c9088906004016171dd565b6020604051808303816000875af115801561625b573d6000803e3d6000fd5b505050506040513d601f19601f8201168201806040525081019061627f9190617d1d565b9250616290565b9250610e8a915050565b6001600160a01b0383166162aa5760009350505050610e8a565b50600085815261013a60209081526040808320848452825280832080546001600160a01b0319166001600160a01b03871617905596825261013b905294909420939093555090919050565b6001600160a01b0381163b6163625760405162461bcd60e51b815260206004820152602d60248201527f455243313936373a206e657720696d706c656d656e746174696f6e206973206e60448201526c1bdd08184818dbdb9d1c9858dd609a1b6064820152608401610fbe565b600080516020617dab83398151915280546001600160a01b0319166001600160a01b0392909216919091179055565b61639a83616cc1565b6000825111806163a75750805b1561105f576146d58383616d01565b600081670de0b6b3a76400008110156163e557604051633621413760e21b815260048101849052602401610fbe565b6000616471670de0b6b3a7640000830460016fffffffffffffffffffffffffffffffff821160071b91821c67ffffffffffffffff811160061b90811c63ffffffff811160051b90811c61ffff811160041b90811c60ff8111600390811b91821c600f811160021b90811c918211871b91821c969096119490961792909217171791909117919091171790565b9050670de0b6b3a7640000810282821c670de0b6b3a763ffff19810161649d57815b9695505050505050565b671bc16d674ec800006706f05b59d3b200005b80156164e057670de0b6b3a76400008380020492508183106164d8579283019260019290921c915b60011c6164b0565b50919695505050505050565b60008080600019848609848602925082811083820303915050670de0b6b3a764000081106165375760405163090638d560e41b81526004810186905260248101859052604401610fbe565b6000670de0b6b3a7640000858709905081600003616563575050670de0b6b3a764000090049050610e8a565b620400008184030492109003600160ee1b02177faccb18165bd6fe31ae1cf318dc5b51eee0e1ba569b88cd74c1773b91fac1066902905092915050565b60008080600019858709858702925082811083820303915050806000036165da578382816165d0576165d061792e565b0492505050611602565b83811061660b576040516307639aaf60e41b8152600481018790526024810186905260448101859052606401610fbe565b60008486880960026001871981018816978890046003810283188082028403028082028403028082028403028082028403028082028403029081029092039091026000889003889004909101858311909403939093029303949094049190911702949350505050565b6000806101036000815461668790617bec565b918290555090506001600160a01b0383166166e45760405162461bcd60e51b815260206004820181905260248201527f4552433732313a206d696e7420746f20746865207a65726f20616464726573736044820152606401610fbe565b600081815260ff60205260409020546001600160a01b0316156167495760405162461bcd60e51b815260206004820152601c60248201527f4552433732313a20746f6b656e20616c7265616479206d696e746564000000006044820152606401610fbe565b600081815260ff60205260409020546001600160a01b0316156167ae5760405162461bcd60e51b815260206004820152601c60248201527f4552433732313a20746f6b656e20616c7265616479206d696e746564000000006044820152606401610fbe565b6001600160a01b0383166000818152610100602090815260408083208054600101905584835260ff90915280822080546001600160a01b0319168417905551839291907fddf252ad1be2c89b69c2b068fc378daa952ba7f163c4a11628f55a4df523b3ef908290a4610e8a565b600082610130838154811061683257616832617799565b60009182526020909120600e601490920201015550600192915050565b600061685a82612a09565b905061686582612a09565b60008381526101016020908152604080832080546001600160a01b03199081169091556001600160a01b0385168085526101008452828520805460001901905587855260ff909352818420805490911690555192935084927fddf252ad1be2c89b69c2b068fc378daa952ba7f163c4a11628f55a4df523b3ef908390a45050565b600081815261013360209081526040808320548084526101358352818420805483518186028101860190945280845291949390919083018282801561694a57602002820191906000526020600020905b815481526020019060010190808311616936575b5050835193945060009250829150505b8281101561699a578584828151811061697557616975617799565b60200260200101510361698a5780915061699a565b61699381617bec565b905061695a565b508181106169ea5760405162461bcd60e51b815260206004820152601860248201527f546f6b656e206e6f7420666f756e6420696e20617272617900000000000000006044820152606401610fbe565b805b6169f7600184617966565b811015616a4f5783616a0a826001617786565b81518110616a1a57616a1a617799565b6020026020010151848281518110616a3457616a34617799565b6020908102919091010152616a4881617bec565b90506169ec565b506000848152610135602090815260409091208451616a709286019061710a565b50600084815261013560205260409020805480616a8f57616a8f617bd6565b600190038181906000526020600020016000905590555050505050565b60006001600160a01b0384163b15616ba257604051630a85bd0160e11b81526001600160a01b0385169063150b7a0290616af0903390899088908890600401617d3a565b6020604051808303816000875af1925050508015616b2b575060408051601f3d908101601f19168201909252616b2891810190617d6d565b60015b616b88573d808015616b59576040519150601f19603f3d011682016040523d82523d6000602084013e616b5e565b606091505b508051600003616b805760405162461bcd60e51b8152600401610fbe90617c63565b805181602001fd5b6001600160e01b031916630a85bd0160e11b1490506133fa565b5060016133fa565b600054610100900460ff16616bd15760405162461bcd60e51b8152600401610fbe90617cb5565b6146a133615f94565b60008072184f03e93ff9f4daa797ed6e38ed64bf6a1f0160401b8310616c195772184f03e93ff9f4daa797ed6e38ed64bf6a1f0160401b830492506040015b6d04ee2d6d415b85acef81000000008310616c45576d04ee2d6d415b85acef8100000000830492506020015b662386f26fc100008310616c6357662386f26fc10000830492506010015b6305f5e1008310616c7b576305f5e100830492506008015b6127108310616c8f57612710830492506004015b60648310616ca1576064830492506002015b600a8310610e8a5760010192915050565b60606133fa8484600085616df5565b616cca816162f5565b6040516001600160a01b038216907fbc7cd75a20ee27fd9adebab32041f755214dbc6bffa90cc0225b39da2e5c2d3b90600090a250565b60606001600160a01b0383163b616d695760405162461bcd60e51b815260206004820152602660248201527f416464726573733a2064656c65676174652063616c6c20746f206e6f6e2d636f6044820152651b9d1c9858dd60d21b6064820152608401610fbe565b600080846001600160a01b031684604051616d849190617a11565b600060405180830381855af49150503d8060008114616dbf576040519150601f19603f3d011682016040523d82523d6000602084013e616dc4565b606091505b5091509150616dec8282604051806060016040528060278152602001617dcb60279139616ec5565b95945050505050565b606082471015616e565760405162461bcd60e51b815260206004820152602660248201527f416464726573733a20696e73756666696369656e742062616c616e636520666f6044820152651c8818d85b1b60d21b6064820152608401610fbe565b600080866001600160a01b03168587604051616e729190617a11565b60006040518083038185875af1925050503d8060008114616eaf576040519150601f19603f3d011682016040523d82523d6000602084013e616eb4565b606091505b509150915061377887838387616ede565b60608315616ed4575081611602565b6116028383616f53565b60608315616f4d578251600003616f46576001600160a01b0385163b616f465760405162461bcd60e51b815260206004820152601d60248201527f416464726573733a2063616c6c20746f206e6f6e2d636f6e74726163740000006044820152606401610fbe565b50816133fa565b6133fa83835b815115616f635781518083602001fd5b8060405162461bcd60e51b8152600401610fbe91906171dd565b50805460008255906000526020600020908101906119d49190617145565b6040805161020081019091526000610100820181815261012083018290526101408301829052610160830182905260606101808401526101a083018290526101c083018290526101e08301919091528190815260200161700e604051806040016040528060008152602001600081525090565b8152602001617030604051806040016040528060008152602001600081525090565b815260200161706260405180608001604052806000815260200160008152602001600081526020016000151581525090565b815260200161708b60405180606001604052806000815260200160008152602001600081525090565b815260606020820181905260006040830181905291015290565b8280548282559060005260206000209081019282156170fa579160200282015b828111156170fa57825182546001600160a01b0319166001600160a01b039091161782556020909201916001909101906170c5565b50617106929150617145565b5090565b8280548282559060005260206000209081019282156170fa579160200282015b828111156170fa57825182559160200191906001019061712a565b5b808211156171065760008155600101617146565b6001600160e01b0319811681146119d457600080fd5b60006020828403121561718257600080fd5b81356116028161715a565b60005b838110156171a8578181015183820152602001617190565b50506000910152565b600081518084526171c981602086016020860161718d565b601f01601f19169290920160200192915050565b60208152600061160260208301846171b1565b6000806040838503121561720357600080fd5b50508035926020909101359150565b60006020828403121561722457600080fd5b5035919050565b6001600160a01b03811681146119d457600080fd5b6000806040838503121561725357600080fd5b823561725e8161722b565b946020939093013593505050565b6101c080825288516001600160a01b0390811691830191909152602089015160ff166101e0830152604089015161ffff1661020083015260608901511661022082015260808801516101006102408301526000906172ce6102c08401826171b1565b60a08b015161026085015260c08b015161028085015260e08b01516102a0850152915061730a9050602083018980518252602090810151910152565b8651606083015260208701516080830152855160a0830152602086015160c0830152604086015160e083015260608601511515610100830152845161012083015260208501516101408301526040850151610160830152836101808301526173776101a083018415159052565b98975050505050505050565b60008060006060848603121561739857600080fd5b83356173a38161722b565b925060208401356173b38161722b565b929592945050506040919091013590565b634e487b7160e01b600052604160045260246000fd5b600082601f8301126173eb57600080fd5b813567ffffffffffffffff80821115617406576174066173c4565b604051601f8301601f19908116603f0116810190828211818310171561742e5761742e6173c4565b8160405283815286602085880101111561744757600080fd5b836020870160208301376000602085830101528094505050505092915050565b600080600080600060a0868803121561747f57600080fd5b8535945060208601359350604086013561ffff8116811461749f57600080fd5b925060608601359150608086013567ffffffffffffffff8111156174c257600080fd5b6174ce888289016173da565b9150509295509295909350565b6000602082840312156174ed57600080fd5b81356116028161722b565b60008060006060848603121561750d57600080fd5b8335925060208401356173b38161722b565b6000806040838503121561753257600080fd5b823561753d8161722b565b9150602083013567ffffffffffffffff81111561755957600080fd5b617565858286016173da565b9150509250929050565b60008060006060848603121561758457600080fd5b833561758f8161722b565b9250602084013561759f8161722b565b9150604084013567ffffffffffffffff8111156175bb57600080fd5b6175c7868287016173da565b9150509250925092565b80151581146119d457600080fd5b600080604083850312156175f257600080fd5b823591506020830135617604816175d1565b809150509250929050565b6000806040838503121561762257600080fd5b823561762d8161722b565b91506020830135617604816175d1565b60008060006060848603121561765257600080fd5b8335925060208401359150604084013567ffffffffffffffff8111156175bb57600080fd5b6000806000806080858703121561768d57600080fd5b84356176988161722b565b935060208501356176a88161722b565b925060408501359150606085013567ffffffffffffffff8111156176cb57600080fd5b6176d7878288016173da565b91505092959194509250565b600080604083850312156176f657600080fd5b8235915060208301356176048161722b565b6000806040838503121561771b57600080fd5b82356177268161722b565b915060208301356176048161722b565b600181811c9082168061774a57607f821691505b60208210810361776a57634e487b7160e01b600052602260045260246000fd5b50919050565b634e487b7160e01b600052601160045260246000fd5b80820180821115610e8a57610e8a617770565b634e487b7160e01b600052603260045260246000fd5b6020808252602d908201527f4552433732313a2063616c6c6572206973206e6f7420746f6b656e206f776e6560408201526c1c881bdc88185c1c1c9bdd9959609a1b606082015260800190565b600181815b8085111561783757816000190482111561781d5761781d617770565b8085161561782a57918102915b93841c9390800290617801565b509250929050565b60008261784e57506001610e8a565b8161785b57506000610e8a565b8160018114617871576002811461787b57617897565b6001915050610e8a565b60ff84111561788c5761788c617770565b50506001821b610e8a565b5060208310610133831016604e8410600b84101617156178ba575081810a610e8a565b6178c483836177fc565b80600019048211156178d8576178d8617770565b029392505050565b600061160260ff84168361783f565b8082028115828204841417610e8a57610e8a617770565b6020808252600e908201526d139bdd08185d5d1a1bdc9a5e995960921b604082015260600190565b634e487b7160e01b600052601260045260246000fd5b60008261796157634e487b7160e01b600052601260045260246000fd5b500490565b81810381811115610e8a57610e8a617770565b6020808252602c908201527f46756e6374696f6e206d7573742062652063616c6c6564207468726f7567682060408201526b19195b1959d85d1958d85b1b60a21b606082015260800190565b6020808252602c908201527f46756e6374696f6e206d7573742062652063616c6c6564207468726f7567682060408201526b6163746976652070726f787960a01b606082015260800190565b60008251617a2381846020870161718d565b9190910192915050565b600060208284031215617a3f57600080fd5b815160ff8116811461160257600080fd5b601f82111561105f57600081815260208120601f850160051c81016020861015617a775750805b601f850160051c820191505b81811015617a9657828155600101617a83565b505050505050565b815167ffffffffffffffff811115617ab857617ab86173c4565b617acc81617ac68454617736565b84617a50565b602080601f831160018114617b015760008415617ae95750858301515b600019600386901b1c1916600185901b178555617a96565b600085815260208120601f198616915b82811015617b3057888601518255948401946001909101908401617b11565b5085821015617b4e5787850151600019600388901b60f8161c191681555b5050505050600190811b01905550565b60208082526029908201527f54696d656c6f636b206e6f7420736574206f72206e6f7420636f6d706c6574656040820152686420696e2074696d6560b81b606082015260800190565b60008351617bb981846020880161718d565b835190830190617bcd81836020880161718d565b01949350505050565b634e487b7160e01b600052603160045260246000fd5b600060018201617bfe57617bfe617770565b5060010190565b60208082526025908201527f4552433732313a207472616e736665722066726f6d20696e636f72726563742060408201526437bbb732b960d91b606082015260800190565b600060208284031215617c5c57600080fd5b5051919050565b60208082526032908201527f4552433732313a207472616e7366657220746f206e6f6e20455243373231526560408201527131b2b4bb32b91034b6b83632b6b2b73a32b960711b606082015260800190565b6020808252602b908201527f496e697469616c697a61626c653a20636f6e7472616374206973206e6f74206960408201526a6e697469616c697a696e6760a81b606082015260800190565b600060208284031215617d1257600080fd5b8151611602816175d1565b600060208284031215617d2f57600080fd5b81516116028161722b565b6001600160a01b0385811682528416602082015260408101839052608060608201819052600090616493908301846171b1565b600060208284031215617d7f57600080fd5b81516116028161715a56fea3ea4fb8dee4d414198cb197af6eae4fe483c1a0b849dc50e53b9bf1a60e2166360894a13ba1a3210667c828492db98dca3e2076cc3735a920a3ca505d382bbc416464726573733a206c6f772d6c6576656c2064656c65676174652063616c6c206661696c6564a26469706673582212204b3e844f98f22067b4838e91cc88ab4fd4602b7809c9ac3d2ee4148abca02e6364736f6c63430008110033496e697469616c697a61626c653a20636f6e7472616374206973206e6f742069",
    "linkReferences": {}
  },
  "methodIdentifiers": {
    "acceptOwnershipTransfer()": "b842e87f",
    "activeStrategies(uint256)": "b20b2429",
    "activeTokens(uint256)": "9f224f35",
    "addNewBountyPool(address,address,string)": "804fd590",
    "approve(address,uint256)": "095ea7b3",
    "balanceOf(address)": "70a08231",
    "billPremium(uint256)": "2dbe051e",
    "calcRequiredPremiumBalancePerPeriod(uint256,uint256)": "836ef1fa",
    "calculateEffectiveAPY(uint256,uint256)": "5c46f7b1",
    "claimPremium(uint256)": "f47ec3be",
    "collectAllSaloonProfits(address)": "ecd7fbed",
    "collectSaloonProfits(address,address)": "cf9564b9",
    "getApproved(uint256)": "081812fc",
    "getCurrentAPY(uint256)": "7fbf3853",
    "getMultiplier(uint256,uint256)": "8dbb1e3a",
    "index()": "2986c0e5",
    "initialize(address)": "c4d66de8",
    "isApprovedForAll(address,address)": "e985e9c5",
    "makeProjectDeposit(uint256,uint256,string)": "ae07f948",
    "nFTInfo(uint256,address)": "cc6f6b5b",
    "name()": "06fdde03",
    "nftAPY(uint256)": "1df56622",
    "nftBalance(uint256)": "e63d6ee4",
    "nftInfo(uint256)": "1f8bc790",
    "nftToPid(uint256)": "612afc0c",
    "owner()": "8da5cb5b",
    "ownerOf(uint256)": "6352211e",
    "payBounty(uint256,address,uint256)": "3ac6ad7b",
    "pendingPremium(uint256)": "40bd1d00",
    "pidNFTList(uint256,uint256)": "96ea48e8",
    "pidStrategies(uint256,bytes32)": "074ecf03",
    "poolInfo(uint256)": "1526fe27",
    "poolLength()": "081e3eda",
    "projectDepositWithdrawal(uint256,uint256)": "983c1ce0",
    "proxiableUUID()": "52d1902d",
    "safeTransferFrom(address,address,uint256)": "42842e0e",
    "safeTransferFrom(address,address,uint256,bytes)": "b88d4fde",
    "saloonBountyProfit(address)": "e45abd0f",
    "saloonPremiumProfit(address)": "ca006148",
    "scheduleProjectDepositWithdrawal(uint256,uint256)": "5669cbef",
    "scheduleUnstake(uint256)": "106d08df",
    "setAPYandPoolCapAndDeposit(uint256,uint256,uint16,uint256,string)": "30ca0794",
    "setApprovalForAll(address,bool)": "a22cb465",
    "stake(uint256,uint256)": "7b0472f0",
    "supportsInterface(bytes4)": "01ffc9a7",
    "symbol()": "95d89b41",
    "tokenURI(uint256)": "c87b56dd",
    "tokenWhitelist(address)": "753d7563",
    "transferFrom(address,address,uint256)": "23b872dd",
    "transferOwnership(address)": "f2fde38b",
    "unstake(uint256,bool)": "9ebea88c",
    "updateStrategyFactoryAddress(address)": "3538fda0",
    "updateTokenWhitelist(address,bool)": "e5e97c65",
    "upgradeTo(address)": "3659cfe6",
    "upgradeToAndCall(address,bytes)": "4f1ef286",
    "viewBountyBalance(uint256)": "6ac6d812",
    "viewBountyInfo(uint256)": "40ef2868",
    "viewHackerPayout(uint256)": "861e5f66",
    "viewMinProjectDeposit(uint256)": "1c6b323f",
    "viewPoolAPY(uint256)": "a27f9213",
    "viewPoolCap(uint256)": "39679ff4",
    "viewPoolPremiumInfo(uint256)": "b1a2d16f",
    "viewPoolTimelockInfo(uint256)": "ac30b856",
    "viewSaloonProfitBalance(address)": "718c7eef",
    "viewTokenInfo(uint256)": "10725852",
    "viewTotalStaked(uint256)": "dbdd6957",
    "viewUserUnclaimed(uint256)": "19693071",
    "windDownBounty(uint256)": "bb7019c1"
  },
  "id": 46
}