{
  "abi": [
    {
      "anonymous": false,
      "inputs": [
        {
          "indexed": false,
          "internalType": "address",
          "name": "previousAdmin",
          "type": "address"
        },
        {
          "indexed": false,
          "internalType": "address",
          "name": "newAdmin",
          "type": "address"
        }
      ],
      "name": "AdminChanged",
      "type": "event"
    },
    {
      "anonymous": false,
      "inputs": [
        {
          "indexed": true,
          "internalType": "address",
          "name": "owner",
          "type": "address"
        },
        {
          "indexed": true,
          "internalType": "address",
          "name": "approved",
          "type": "address"
        },
        {
          "indexed": true,
          "internalType": "uint256",
          "name": "tokenId",
          "type": "uint256"
        }
      ],
      "name": "Approval",
      "type": "event"
    },
    {
      "anonymous": false,
      "inputs": [
        {
          "indexed": true,
          "internalType": "address",
          "name": "owner",
          "type": "address"
        },
        {
          "indexed": true,
          "internalType": "address",
          "name": "operator",
          "type": "address"
        },
        {
          "indexed": false,
          "internalType": "bool",
          "name": "approved",
          "type": "bool"
        }
      ],
      "name": "ApprovalForAll",
      "type": "event"
    },
    {
      "anonymous": false,
      "inputs": [
        {
          "indexed": true,
          "internalType": "address",
          "name": "beacon",
          "type": "address"
        }
      ],
      "name": "BeaconUpgraded",
      "type": "event"
    },
    {
      "anonymous": false,
      "inputs": [
        {
          "indexed": true,
          "internalType": "uint256",
          "name": "pid",
          "type": "uint256"
        },
        {
          "indexed": false,
          "internalType": "uint256",
          "name": "oldAmount",
          "type": "uint256"
        },
        {
          "indexed": false,
          "internalType": "uint256",
          "name": "newAmount",
          "type": "uint256"
        }
      ],
      "name": "BountyBalanceChanged",
      "type": "event"
    },
    {
      "anonymous": false,
      "inputs": [
        {
          "indexed": true,
          "internalType": "address",
          "name": "hunter",
          "type": "address"
        },
        {
          "indexed": true,
          "internalType": "address",
          "name": "token",
          "type": "address"
        },
        {
          "indexed": false,
          "internalType": "uint256",
          "name": "amount",
          "type": "uint256"
        }
      ],
      "name": "BountyPaid",
      "type": "event"
    },
    {
      "anonymous": false,
      "inputs": [
        {
          "indexed": false,
          "internalType": "uint8",
          "name": "version",
          "type": "uint8"
        }
      ],
      "name": "Initialized",
      "type": "event"
    },
    {
      "anonymous": false,
      "inputs": [
        {
          "indexed": true,
          "internalType": "uint256",
          "name": "pid",
          "type": "uint256"
        },
        {
          "indexed": true,
          "internalType": "address",
          "name": "token",
          "type": "address"
        },
        {
          "indexed": false,
          "internalType": "uint256",
          "name": "tokenDecimals",
          "type": "uint256"
        }
      ],
      "name": "NewBountyDeployed",
      "type": "event"
    },
    {
      "anonymous": false,
      "inputs": [
        {
          "indexed": true,
          "internalType": "address",
          "name": "previousOwner",
          "type": "address"
        },
        {
          "indexed": true,
          "internalType": "address",
          "name": "newOwner",
          "type": "address"
        }
      ],
      "name": "OwnershipTransferred",
      "type": "event"
    },
    {
      "anonymous": false,
      "inputs": [
        {
          "indexed": true,
          "internalType": "uint256",
          "name": "pid",
          "type": "uint256"
        },
        {
          "indexed": false,
          "internalType": "uint256",
          "name": "amount",
          "type": "uint256"
        }
      ],
      "name": "PremiumBilled",
      "type": "event"
    },
    {
      "anonymous": false,
      "inputs": [
        {
          "indexed": true,
          "internalType": "address",
          "name": "user",
          "type": "address"
        },
        {
          "indexed": true,
          "internalType": "uint256",
          "name": "pid",
          "type": "uint256"
        },
        {
          "indexed": false,
          "internalType": "uint256",
          "name": "amount",
          "type": "uint256"
        }
      ],
      "name": "Staked",
      "type": "event"
    },
    {
      "anonymous": false,
      "inputs": [
        {
          "indexed": true,
          "internalType": "address",
          "name": "from",
          "type": "address"
        },
        {
          "indexed": true,
          "internalType": "address",
          "name": "to",
          "type": "address"
        },
        {
          "indexed": true,
          "internalType": "uint256",
          "name": "tokenId",
          "type": "uint256"
        }
      ],
      "name": "Transfer",
      "type": "event"
    },
    {
      "anonymous": false,
      "inputs": [
        {
          "indexed": true,
          "internalType": "address",
          "name": "user",
          "type": "address"
        },
        {
          "indexed": true,
          "internalType": "uint256",
          "name": "pid",
          "type": "uint256"
        },
        {
          "indexed": false,
          "internalType": "uint256",
          "name": "amount",
          "type": "uint256"
        }
      ],
      "name": "Unstaked",
      "type": "event"
    },
    {
      "anonymous": false,
      "inputs": [
        {
          "indexed": true,
          "internalType": "address",
          "name": "implementation",
          "type": "address"
        }
      ],
      "name": "Upgraded",
      "type": "event"
    },
    {
      "anonymous": false,
      "inputs": [
        {
          "indexed": true,
          "internalType": "uint256",
          "name": "pid",
          "type": "uint256"
        },
        {
          "indexed": false,
          "internalType": "uint256",
          "name": "amount",
          "type": "uint256"
        }
      ],
      "name": "WithdrawalOrUnstakeScheduled",
      "type": "event"
    },
    {
      "anonymous": false,
      "inputs": [
        {
          "indexed": true,
          "internalType": "address",
          "name": "referrer",
          "type": "address"
        },
        {
          "indexed": false,
          "internalType": "uint256",
          "name": "amount",
          "type": "uint256"
        }
      ],
      "name": "referralPaid",
      "type": "event"
    },
    {
      "anonymous": false,
      "inputs": [
        {
          "indexed": true,
          "internalType": "address",
          "name": "token",
          "type": "address"
        },
        {
          "indexed": true,
          "internalType": "bool",
          "name": "whitelisted",
          "type": "bool"
        }
      ],
      "name": "tokenWhitelistUpdated",
      "type": "event"
    },
    {
      "inputs": [],
      "name": "acceptOwnershipTransfer",
      "outputs": [],
      "stateMutability": "nonpayable",
      "type": "function"
    },
    {
      "inputs": [
        {
          "internalType": "uint256",
          "name": "",
          "type": "uint256"
        }
      ],
      "name": "activeStrategies",
      "outputs": [
        {
          "internalType": "bytes32",
          "name": "",
          "type": "bytes32"
        }
      ],
      "stateMutability": "view",
      "type": "function"
    },
    {
      "inputs": [
        {
          "internalType": "uint256",
          "name": "",
          "type": "uint256"
        }
      ],
      "name": "activeTokens",
      "outputs": [
        {
          "internalType": "address",
          "name": "",
          "type": "address"
        }
      ],
      "stateMutability": "view",
      "type": "function"
    },
    {
      "inputs": [
        {
          "internalType": "address",
          "name": "_token",
          "type": "address"
        },
        {
          "internalType": "address",
          "name": "_projectWallet",
          "type": "address"
        },
        {
          "internalType": "string",
          "name": "_projectName",
          "type": "string"
        },
        {
          "internalType": "address",
          "name": "_referrer",
          "type": "address"
        },
        {
          "internalType": "uint256",
          "name": "_referralFee",
          "type": "uint256"
        },
        {
          "internalType": "uint256",
          "name": "_referralEndTime",
          "type": "uint256"
        }
      ],
      "name": "addNewBountyPool",
      "outputs": [
        {
          "internalType": "uint256",
          "name": "",
          "type": "uint256"
        }
      ],
      "stateMutability": "nonpayable",
      "type": "function"
    },
    {
      "inputs": [
        {
          "internalType": "address",
          "name": "to",
          "type": "address"
        },
        {
          "internalType": "uint256",
          "name": "tokenId",
          "type": "uint256"
        }
      ],
      "name": "approve",
      "outputs": [],
      "stateMutability": "nonpayable",
      "type": "function"
    },
    {
      "inputs": [
        {
          "internalType": "address",
          "name": "owner",
          "type": "address"
        }
      ],
      "name": "balanceOf",
      "outputs": [
        {
          "internalType": "uint256",
          "name": "",
          "type": "uint256"
        }
      ],
      "stateMutability": "view",
      "type": "function"
    },
    {
      "inputs": [
        {
          "internalType": "uint256",
          "name": "_pid",
          "type": "uint256"
        }
      ],
      "name": "billPremium",
      "outputs": [
        {
          "internalType": "bool",
          "name": "",
          "type": "bool"
        }
      ],
      "stateMutability": "nonpayable",
      "type": "function"
    },
    {
      "inputs": [
        {
          "internalType": "uint256",
          "name": "_poolCap",
          "type": "uint256"
        },
        {
          "internalType": "uint256",
          "name": "_apy",
          "type": "uint256"
        }
      ],
      "name": "calcRequiredPremiumBalancePerPeriod",
      "outputs": [
        {
          "internalType": "uint256",
          "name": "requiredPremiumBalance",
          "type": "uint256"
        }
      ],
      "stateMutability": "pure",
      "type": "function"
    },
    {
      "inputs": [
        {
          "internalType": "uint256",
          "name": "_pid",
          "type": "uint256"
        },
        {
          "internalType": "uint256",
          "name": "_stake",
          "type": "uint256"
        },
        {
          "internalType": "uint256",
          "name": "_x",
          "type": "uint256"
        }
      ],
      "name": "calculateEffectiveAPY",
      "outputs": [
        {
          "internalType": "uint256",
          "name": "scaledAPY",
          "type": "uint256"
        }
      ],
      "stateMutability": "view",
      "type": "function"
    },
    {
      "inputs": [
        {
          "internalType": "uint256",
          "name": "_tokenId",
          "type": "uint256"
        }
      ],
      "name": "claimPremium",
      "outputs": [],
      "stateMutability": "nonpayable",
      "type": "function"
    },
    {
      "inputs": [],
      "name": "collectAllReferralProfits",
      "outputs": [
        {
          "internalType": "bool",
          "name": "",
          "type": "bool"
        }
      ],
      "stateMutability": "nonpayable",
      "type": "function"
    },
    {
      "inputs": [
        {
          "internalType": "address",
          "name": "_saloonWallet",
          "type": "address"
        }
      ],
      "name": "collectAllSaloonProfits",
      "outputs": [
        {
          "internalType": "bool",
          "name": "",
          "type": "bool"
        }
      ],
      "stateMutability": "nonpayable",
      "type": "function"
    },
    {
      "inputs": [
        {
          "internalType": "address",
          "name": "_token",
          "type": "address"
        }
      ],
      "name": "collectReferralProfit",
      "outputs": [
        {
          "internalType": "bool",
          "name": "",
          "type": "bool"
        }
      ],
      "stateMutability": "nonpayable",
      "type": "function"
    },
    {
      "inputs": [
        {
          "internalType": "address",
          "name": "_token",
          "type": "address"
        },
        {
          "internalType": "address",
          "name": "_saloonWallet",
          "type": "address"
        }
      ],
      "name": "collectSaloonProfits",
      "outputs": [
        {
          "internalType": "bool",
          "name": "",
          "type": "bool"
        }
      ],
      "stateMutability": "nonpayable",
      "type": "function"
    },
    {
      "inputs": [],
      "name": "compoundYieldForAll",
      "outputs": [],
      "stateMutability": "nonpayable",
      "type": "function"
    },
    {
      "inputs": [
        {
          "internalType": "uint256",
          "name": "_pid",
          "type": "uint256"
        }
      ],
      "name": "compoundYieldForPid",
      "outputs": [],
      "stateMutability": "nonpayable",
      "type": "function"
    },
    {
      "inputs": [
        {
          "internalType": "uint256",
          "name": "_pid",
          "type": "uint256"
        }
      ],
      "name": "consolidate",
      "outputs": [],
      "stateMutability": "nonpayable",
      "type": "function"
    },
    {
      "inputs": [],
      "name": "consolidateAll",
      "outputs": [],
      "stateMutability": "nonpayable",
      "type": "function"
    },
    {
      "inputs": [
        {
          "internalType": "uint256",
          "name": "_pid",
          "type": "uint256"
        },
        {
          "internalType": "uint256",
          "name": "_endTime",
          "type": "uint256"
        }
      ],
      "name": "extendReferralPeriod",
      "outputs": [],
      "stateMutability": "nonpayable",
      "type": "function"
    },
    {
      "inputs": [
        {
          "internalType": "address",
          "name": "_owner",
          "type": "address"
        }
      ],
      "name": "getAllTokensByOwner",
      "outputs": [
        {
          "components": [
            {
              "internalType": "uint256",
              "name": "pid",
              "type": "uint256"
            },
            {
              "internalType": "uint256",
              "name": "amount",
              "type": "uint256"
            },
            {
              "internalType": "uint256",
              "name": "xDelta",
              "type": "uint256"
            },
            {
              "internalType": "uint256",
              "name": "apy",
              "type": "uint256"
            },
            {
              "internalType": "uint256",
              "name": "unclaimed",
              "type": "uint256"
            },
            {
              "internalType": "uint256",
              "name": "lastClaimedTime",
              "type": "uint256"
            },
            {
              "internalType": "uint256",
              "name": "timelock",
              "type": "uint256"
            },
            {
              "internalType": "uint256",
              "name": "timelimit",
              "type": "uint256"
            }
          ],
          "internalType": "struct ISaloon.NFTInfo[]",
          "name": "userTokens",
          "type": "tuple[]"
        }
      ],
      "stateMutability": "view",
      "type": "function"
    },
    {
      "inputs": [
        {
          "internalType": "uint256",
          "name": "tokenId",
          "type": "uint256"
        }
      ],
      "name": "getApproved",
      "outputs": [
        {
          "internalType": "address",
          "name": "",
          "type": "address"
        }
      ],
      "stateMutability": "view",
      "type": "function"
    },
    {
      "inputs": [
        {
          "internalType": "uint256",
          "name": "_pid",
          "type": "uint256"
        }
      ],
      "name": "getCurrentAPY",
      "outputs": [
        {
          "internalType": "uint256",
          "name": "currentAPY",
          "type": "uint256"
        }
      ],
      "stateMutability": "view",
      "type": "function"
    },
    {
      "inputs": [],
      "name": "index",
      "outputs": [
        {
          "internalType": "uint256",
          "name": "",
          "type": "uint256"
        }
      ],
      "stateMutability": "view",
      "type": "function"
    },
    {
      "inputs": [
        {
          "internalType": "address",
          "name": "_strategyFactory",
          "type": "address"
        }
      ],
      "name": "initialize",
      "outputs": [],
      "stateMutability": "nonpayable",
      "type": "function"
    },
    {
      "inputs": [
        {
          "internalType": "address",
          "name": "owner",
          "type": "address"
        },
        {
          "internalType": "address",
          "name": "operator",
          "type": "address"
        }
      ],
      "name": "isApprovedForAll",
      "outputs": [
        {
          "internalType": "bool",
          "name": "",
          "type": "bool"
        }
      ],
      "stateMutability": "view",
      "type": "function"
    },
    {
      "inputs": [
        {
          "internalType": "uint256",
          "name": "_pid",
          "type": "uint256"
        },
        {
          "internalType": "uint256",
          "name": "_deposit",
          "type": "uint256"
        },
        {
          "internalType": "string",
          "name": "_strategyName",
          "type": "string"
        }
      ],
      "name": "makeProjectDeposit",
      "outputs": [],
      "stateMutability": "nonpayable",
      "type": "function"
    },
    {
      "inputs": [
        {
          "internalType": "address",
          "name": "",
          "type": "address"
        }
      ],
      "name": "minTokenStakeAmount",
      "outputs": [
        {
          "internalType": "uint256",
          "name": "",
          "type": "uint256"
        }
      ],
      "stateMutability": "view",
      "type": "function"
    },
    {
      "inputs": [],
      "name": "name",
      "outputs": [
        {
          "internalType": "string",
          "name": "",
          "type": "string"
        }
      ],
      "stateMutability": "view",
      "type": "function"
    },
    {
      "inputs": [
        {
          "internalType": "uint256",
          "name": "",
          "type": "uint256"
        }
      ],
      "name": "nftInfo",
      "outputs": [
        {
          "internalType": "uint256",
          "name": "pid",
          "type": "uint256"
        },
        {
          "internalType": "uint256",
          "name": "amount",
          "type": "uint256"
        },
        {
          "internalType": "uint256",
          "name": "xDelta",
          "type": "uint256"
        },
        {
          "internalType": "uint256",
          "name": "apy",
          "type": "uint256"
        },
        {
          "internalType": "uint256",
          "name": "unclaimed",
          "type": "uint256"
        },
        {
          "internalType": "uint256",
          "name": "lastClaimedTime",
          "type": "uint256"
        },
        {
          "internalType": "uint256",
          "name": "timelock",
          "type": "uint256"
        },
        {
          "internalType": "uint256",
          "name": "timelimit",
          "type": "uint256"
        }
      ],
      "stateMutability": "view",
      "type": "function"
    },
    {
      "inputs": [],
      "name": "owner",
      "outputs": [
        {
          "internalType": "address",
          "name": "",
          "type": "address"
        }
      ],
      "stateMutability": "view",
      "type": "function"
    },
    {
      "inputs": [
        {
          "internalType": "uint256",
          "name": "tokenId",
          "type": "uint256"
        }
      ],
      "name": "ownerOf",
      "outputs": [
        {
          "internalType": "address",
          "name": "",
          "type": "address"
        }
      ],
      "stateMutability": "view",
      "type": "function"
    },
    {
      "inputs": [
        {
          "internalType": "uint256",
          "name": "__pid",
          "type": "uint256"
        },
        {
          "internalType": "address",
          "name": "_hunter",
          "type": "address"
        },
        {
          "internalType": "uint16",
          "name": "_payoutBPS",
          "type": "uint16"
        },
        {
          "internalType": "uint16",
          "name": "_hunterBonusBPS",
          "type": "uint16"
        }
      ],
      "name": "payBounty",
      "outputs": [],
      "stateMutability": "nonpayable",
      "type": "function"
    },
    {
      "inputs": [
        {
          "internalType": "uint256",
          "name": "",
          "type": "uint256"
        },
        {
          "internalType": "uint256",
          "name": "",
          "type": "uint256"
        }
      ],
      "name": "pidNFTList",
      "outputs": [
        {
          "internalType": "uint256",
          "name": "",
          "type": "uint256"
        }
      ],
      "stateMutability": "view",
      "type": "function"
    },
    {
      "inputs": [
        {
          "internalType": "uint256",
          "name": "",
          "type": "uint256"
        },
        {
          "internalType": "bytes32",
          "name": "",
          "type": "bytes32"
        }
      ],
      "name": "pidStrategies",
      "outputs": [
        {
          "internalType": "address",
          "name": "",
          "type": "address"
        }
      ],
      "stateMutability": "view",
      "type": "function"
    },
    {
      "inputs": [
        {
          "internalType": "uint256",
          "name": "",
          "type": "uint256"
        }
      ],
      "name": "poolInfo",
      "outputs": [
        {
          "components": [
            {
              "internalType": "contract IERC20",
              "name": "token",
              "type": "address"
            },
            {
              "internalType": "uint8",
              "name": "tokenDecimals",
              "type": "uint8"
            },
            {
              "internalType": "uint16",
              "name": "apy",
              "type": "uint16"
            },
            {
              "internalType": "address",
              "name": "projectWallet",
              "type": "address"
            },
            {
              "internalType": "string",
              "name": "projectName",
              "type": "string"
            },
            {
              "internalType": "uint256",
              "name": "poolCap",
              "type": "uint256"
            },
            {
              "internalType": "uint256",
              "name": "totalStaked",
              "type": "uint256"
            },
            {
              "internalType": "uint256",
              "name": "scalingMultiplier",
              "type": "uint256"
            }
          ],
          "internalType": "struct ISaloon.GeneralInfo",
          "name": "generalInfo",
          "type": "tuple"
        },
        {
          "components": [
            {
              "internalType": "uint256",
              "name": "projectDepositHeld",
              "type": "uint256"
            },
            {
              "internalType": "uint256",
              "name": "projectDepositInStrategy",
              "type": "uint256"
            }
          ],
          "internalType": "struct ISaloon.DepositInfo",
          "name": "depositInfo",
          "type": "tuple"
        },
        {
          "components": [
            {
              "internalType": "uint256",
              "name": "premiumBalance",
              "type": "uint256"
            },
            {
              "internalType": "uint256",
              "name": "premiumAvailable",
              "type": "uint256"
            }
          ],
          "internalType": "struct ISaloon.PremiumInfo",
          "name": "premiumInfo",
          "type": "tuple"
        },
        {
          "components": [
            {
              "internalType": "uint256",
              "name": "timelock",
              "type": "uint256"
            },
            {
              "internalType": "uint256",
              "name": "timeLimit",
              "type": "uint256"
            },
            {
              "internalType": "uint256",
              "name": "withdrawalScheduledAmount",
              "type": "uint256"
            },
            {
              "internalType": "bool",
              "name": "withdrawalExecuted",
              "type": "bool"
            }
          ],
          "internalType": "struct ISaloon.TimelockInfo",
          "name": "poolTimelock",
          "type": "tuple"
        },
        {
          "components": [
            {
              "internalType": "uint256",
              "name": "currentX",
              "type": "uint256"
            },
            {
              "internalType": "uint256",
              "name": "currentY",
              "type": "uint256"
            },
            {
              "internalType": "uint256",
              "name": "totalSupply",
              "type": "uint256"
            },
            {
              "internalType": "uint256[]",
              "name": "unstakedTokens",
              "type": "uint256[]"
            }
          ],
          "internalType": "struct ISaloon.CurveInfo",
          "name": "curveInfo",
          "type": "tuple"
        },
        {
          "components": [
            {
              "internalType": "address",
              "name": "referrer",
              "type": "address"
            },
            {
              "internalType": "uint256",
              "name": "referralFee",
              "type": "uint256"
            },
            {
              "internalType": "uint256",
              "name": "endTime",
              "type": "uint256"
            }
          ],
          "internalType": "struct ISaloon.ReferralInfo",
          "name": "referralInfo",
          "type": "tuple"
        },
        {
          "internalType": "uint256",
          "name": "freezeTime",
          "type": "uint256"
        },
        {
          "internalType": "bool",
          "name": "isActive",
          "type": "bool"
        }
      ],
      "stateMutability": "view",
      "type": "function"
    },
    {
      "inputs": [
        {
          "internalType": "uint256",
          "name": "_pid",
          "type": "uint256"
        },
        {
          "internalType": "uint256",
          "name": "_amount",
          "type": "uint256"
        }
      ],
      "name": "projectDepositWithdrawal",
      "outputs": [
        {
          "internalType": "bool",
          "name": "",
          "type": "bool"
        }
      ],
      "stateMutability": "nonpayable",
      "type": "function"
    },
    {
      "inputs": [],
      "name": "proxiableUUID",
      "outputs": [
        {
          "internalType": "bytes32",
          "name": "",
          "type": "bytes32"
        }
      ],
      "stateMutability": "view",
      "type": "function"
    },
    {
      "inputs": [
        {
          "internalType": "address",
          "name": "_token",
          "type": "address"
        },
        {
          "internalType": "uint256",
          "name": "_amount",
          "type": "uint256"
        }
      ],
      "name": "receiveStrategyYield",
      "outputs": [],
      "stateMutability": "nonpayable",
      "type": "function"
    },
    {
      "inputs": [
        {
          "internalType": "address",
          "name": "",
          "type": "address"
        },
        {
          "internalType": "address",
          "name": "",
          "type": "address"
        }
      ],
      "name": "referralBalances",
      "outputs": [
        {
          "internalType": "uint256",
          "name": "",
          "type": "uint256"
        }
      ],
      "stateMutability": "view",
      "type": "function"
    },
    {
      "inputs": [
        {
          "internalType": "address",
          "name": "from",
          "type": "address"
        },
        {
          "internalType": "address",
          "name": "to",
          "type": "address"
        },
        {
          "internalType": "uint256",
          "name": "tokenId",
          "type": "uint256"
        }
      ],
      "name": "safeTransferFrom",
      "outputs": [],
      "stateMutability": "nonpayable",
      "type": "function"
    },
    {
      "inputs": [
        {
          "internalType": "address",
          "name": "from",
          "type": "address"
        },
        {
          "internalType": "address",
          "name": "to",
          "type": "address"
        },
        {
          "internalType": "uint256",
          "name": "tokenId",
          "type": "uint256"
        },
        {
          "internalType": "bytes",
          "name": "data",
          "type": "bytes"
        }
      ],
      "name": "safeTransferFrom",
      "outputs": [],
      "stateMutability": "nonpayable",
      "type": "function"
    },
    {
      "inputs": [
        {
          "internalType": "address",
          "name": "",
          "type": "address"
        }
      ],
      "name": "saloonBountyProfit",
      "outputs": [
        {
          "internalType": "uint256",
          "name": "",
          "type": "uint256"
        }
      ],
      "stateMutability": "view",
      "type": "function"
    },
    {
      "inputs": [
        {
          "internalType": "address",
          "name": "",
          "type": "address"
        }
      ],
      "name": "saloonPremiumProfit",
      "outputs": [
        {
          "internalType": "uint256",
          "name": "",
          "type": "uint256"
        }
      ],
      "stateMutability": "view",
      "type": "function"
    },
    {
      "inputs": [
        {
          "internalType": "address",
          "name": "",
          "type": "address"
        }
      ],
      "name": "saloonStrategyProfit",
      "outputs": [
        {
          "internalType": "uint256",
          "name": "",
          "type": "uint256"
        }
      ],
      "stateMutability": "view",
      "type": "function"
    },
    {
      "inputs": [
        {
          "internalType": "uint256",
          "name": "_pid",
          "type": "uint256"
        },
        {
          "internalType": "uint256",
          "name": "_amount",
          "type": "uint256"
        }
      ],
      "name": "scheduleProjectDepositWithdrawal",
      "outputs": [
        {
          "internalType": "bool",
          "name": "",
          "type": "bool"
        }
      ],
      "stateMutability": "nonpayable",
      "type": "function"
    },
    {
      "inputs": [
        {
          "internalType": "uint256",
          "name": "_tokenId",
          "type": "uint256"
        }
      ],
      "name": "scheduleUnstake",
      "outputs": [
        {
          "internalType": "bool",
          "name": "",
          "type": "bool"
        }
      ],
      "stateMutability": "nonpayable",
      "type": "function"
    },
    {
      "inputs": [
        {
          "internalType": "uint256",
          "name": "_pid",
          "type": "uint256"
        },
        {
          "internalType": "uint256",
          "name": "_poolCap",
          "type": "uint256"
        },
        {
          "internalType": "uint16",
          "name": "_apy",
          "type": "uint16"
        },
        {
          "internalType": "uint256",
          "name": "_deposit",
          "type": "uint256"
        },
        {
          "internalType": "string",
          "name": "_strategyName",
          "type": "string"
        }
      ],
      "name": "setAPYandPoolCapAndDeposit",
      "outputs": [],
      "stateMutability": "nonpayable",
      "type": "function"
    },
    {
      "inputs": [
        {
          "internalType": "address",
          "name": "operator",
          "type": "address"
        },
        {
          "internalType": "bool",
          "name": "approved",
          "type": "bool"
        }
      ],
      "name": "setApprovalForAll",
      "outputs": [],
      "stateMutability": "nonpayable",
      "type": "function"
    },
    {
      "inputs": [
        {
          "internalType": "uint256",
          "name": "_pid",
          "type": "uint256"
        },
        {
          "internalType": "uint256",
          "name": "_amount",
          "type": "uint256"
        }
      ],
      "name": "stake",
      "outputs": [
        {
          "internalType": "uint256",
          "name": "",
          "type": "uint256"
        }
      ],
      "stateMutability": "nonpayable",
      "type": "function"
    },
    {
      "inputs": [
        {
          "internalType": "address",
          "name": "",
          "type": "address"
        }
      ],
      "name": "strategyAddressToPid",
      "outputs": [
        {
          "internalType": "uint256",
          "name": "",
          "type": "uint256"
        }
      ],
      "stateMutability": "view",
      "type": "function"
    },
    {
      "inputs": [
        {
          "internalType": "bytes4",
          "name": "interfaceId",
          "type": "bytes4"
        }
      ],
      "name": "supportsInterface",
      "outputs": [
        {
          "internalType": "bool",
          "name": "",
          "type": "bool"
        }
      ],
      "stateMutability": "view",
      "type": "function"
    },
    {
      "inputs": [],
      "name": "symbol",
      "outputs": [
        {
          "internalType": "string",
          "name": "",
          "type": "string"
        }
      ],
      "stateMutability": "view",
      "type": "function"
    },
    {
      "inputs": [
        {
          "internalType": "uint256",
          "name": "tokenId",
          "type": "uint256"
        }
      ],
      "name": "tokenURI",
      "outputs": [
        {
          "internalType": "string",
          "name": "",
          "type": "string"
        }
      ],
      "stateMutability": "view",
      "type": "function"
    },
    {
      "inputs": [
        {
          "internalType": "address",
          "name": "",
          "type": "address"
        }
      ],
      "name": "tokenWhitelist",
      "outputs": [
        {
          "internalType": "bool",
          "name": "",
          "type": "bool"
        }
      ],
      "stateMutability": "view",
      "type": "function"
    },
    {
      "inputs": [
        {
          "internalType": "address",
          "name": "from",
          "type": "address"
        },
        {
          "internalType": "address",
          "name": "to",
          "type": "address"
        },
        {
          "internalType": "uint256",
          "name": "tokenId",
          "type": "uint256"
        }
      ],
      "name": "transferFrom",
      "outputs": [],
      "stateMutability": "nonpayable",
      "type": "function"
    },
    {
      "inputs": [
        {
          "internalType": "address",
          "name": "newOwner",
          "type": "address"
        }
      ],
      "name": "transferOwnership",
      "outputs": [],
      "stateMutability": "nonpayable",
      "type": "function"
    },
    {
      "inputs": [
        {
          "internalType": "uint256",
          "name": "_tokenId",
          "type": "uint256"
        },
        {
          "internalType": "bool",
          "name": "_shouldHarvest",
          "type": "bool"
        }
      ],
      "name": "unstake",
      "outputs": [
        {
          "internalType": "bool",
          "name": "",
          "type": "bool"
        }
      ],
      "stateMutability": "nonpayable",
      "type": "function"
    },
    {
      "inputs": [
        {
          "internalType": "uint256",
          "name": "_pid",
          "type": "uint256"
        },
        {
          "internalType": "address",
          "name": "_projectWallet",
          "type": "address"
        }
      ],
      "name": "updateProjectWalletAddress",
      "outputs": [],
      "stateMutability": "nonpayable",
      "type": "function"
    },
    {
      "inputs": [
        {
          "internalType": "address",
          "name": "_strategyFactory",
          "type": "address"
        }
      ],
      "name": "updateStrategyFactoryAddress",
      "outputs": [],
      "stateMutability": "nonpayable",
      "type": "function"
    },
    {
      "inputs": [
        {
          "internalType": "address",
          "name": "_token",
          "type": "address"
        },
        {
          "internalType": "bool",
          "name": "_whitelisted",
          "type": "bool"
        },
        {
          "internalType": "uint256",
          "name": "_minStakeAmount",
          "type": "uint256"
        }
      ],
      "name": "updateTokenWhitelist",
      "outputs": [
        {
          "internalType": "bool",
          "name": "",
          "type": "bool"
        }
      ],
      "stateMutability": "nonpayable",
      "type": "function"
    },
    {
      "inputs": [
        {
          "internalType": "address",
          "name": "newImplementation",
          "type": "address"
        }
      ],
      "name": "upgradeTo",
      "outputs": [],
      "stateMutability": "nonpayable",
      "type": "function"
    },
    {
      "inputs": [
        {
          "internalType": "address",
          "name": "newImplementation",
          "type": "address"
        },
        {
          "internalType": "bytes",
          "name": "data",
          "type": "bytes"
        }
      ],
      "name": "upgradeToAndCall",
      "outputs": [],
      "stateMutability": "payable",
      "type": "function"
    },
    {
      "inputs": [
        {
          "internalType": "uint256",
          "name": "_pid",
          "type": "uint256"
        }
      ],
      "name": "viewBountyBalance",
      "outputs": [
        {
          "internalType": "uint256",
          "name": "",
          "type": "uint256"
        }
      ],
      "stateMutability": "view",
      "type": "function"
    },
    {
      "inputs": [
        {
          "internalType": "uint256",
          "name": "_pid",
          "type": "uint256"
        }
      ],
      "name": "windDownBounty",
      "outputs": [
        {
          "internalType": "bool",
          "name": "",
          "type": "bool"
        }
      ],
      "stateMutability": "nonpayable",
      "type": "function"
    },
    {
      "inputs": [
        {
          "internalType": "uint256",
          "name": "_pid",
          "type": "uint256"
        }
      ],
      "name": "withdrawProjectYield",
      "outputs": [
        {
          "internalType": "uint256",
          "name": "returnedAmount",
          "type": "uint256"
        }
      ],
      "stateMutability": "nonpayable",
      "type": "function"
    }
  ],
  "bytecode": {
    "object": "0x60a0604052306080523480156200001557600080fd5b50600054610100900460ff1615808015620000375750600054600160ff909116105b8062000067575062000054306200019260201b620053fe1760201c565b15801562000067575060005460ff166001145b620000d05760405162461bcd60e51b815260206004820152602e60248201527f496e697469616c697a61626c653a20636f6e747261637420697320616c72656160448201526d191e481a5b9a5d1a585b1a5e995960921b60648201526084015b60405180910390fd5b6000805460ff191660011790558015620000f4576000805461ff0019166101001790555b620001446040518060400160405280600b81526020016a2137bab73a3caa37b5b2b760a91b8152506040518060400160405280600381526020016210951560ea1b815250620001a160201b60201c565b80156200018b576000805461ff0019169055604051600181527f7f26b83ff96e1f2b6a682f133852f6798a09c465da95921460cefb38474024989060200160405180910390a15b50620003fd565b6001600160a01b03163b151590565b600054610100900460ff16620001fd5760405162461bcd60e51b815260206004820152602b60248201526000805160206200899083398151915260448201526a6e697469616c697a696e6760a81b6064820152608401620000c7565b6200020982826200020d565b5050565b600054610100900460ff16620002695760405162461bcd60e51b815260206004820152602b60248201526000805160206200899083398151915260448201526a6e697469616c697a696e6760a81b6064820152608401620000c7565b61012e62000278838262000331565b5061012f62000288828262000331565b505050565b634e487b7160e01b600052604160045260246000fd5b600181811c90821680620002b857607f821691505b602082108103620002d957634e487b7160e01b600052602260045260246000fd5b50919050565b601f8211156200028857600081815260208120601f850160051c81016020861015620003085750805b601f850160051c820191505b81811015620003295782815560010162000314565b505050505050565b81516001600160401b038111156200034d576200034d6200028d565b62000365816200035e8454620002a3565b84620002df565b602080601f8311600181146200039d5760008415620003845750858301515b600019600386901b1c1916600185901b17855562000329565b600085815260208120601f198616915b82811015620003ce57888601518255948401946001909101908401620003ad565b5085821015620003ed5787850151600019600388901b60f8161c191681555b5050505050600190811b01905550565b60805161855b6200043560003960008181611eb901528181611ef9015281816120160152818161205601526120e9015261855b6000f3fe6080604052600436106103ce5760003560e01c80637fbf3853116101fd578063b842e87f11610118578063db53e8b5116100ab578063e9fda7d41161007a578063e9fda7d414610c9b578063ecd7fbed14610cc8578063f2fde38b14610ce8578063f47ec3be14610d08578063f68ce49914610d2857600080fd5b8063db53e8b514610be3578063e45abd0f14610c03578063e78ea3df14610c31578063e985e9c514610c5157600080fd5b8063c87b56dd116100e7578063c87b56dd14610b55578063ca00614814610b75578063cf9564b914610ba3578063d075afac14610bc357600080fd5b8063b842e87f14610ae0578063b88d4fde14610af5578063bb7019c114610b15578063c4d66de814610b3557600080fd5b8063983c1ce011610190578063a089a5201161015f578063a089a52014610a52578063a22cb46514610a72578063ae07f94814610a92578063b20b242914610ab257600080fd5b8063983c1ce0146109d2578063995974c4146109f25780639ebea88c14610a125780639f224f3514610a3257600080fd5b8063949a4a4a116101cc578063949a4a4a1461094f578063957deecc1461096f57806395d89b411461099d57806396ea48e8146109b257600080fd5b80637fbf3853146108d157806381c6f1a7146108f1578063836ef1fa146109115780638da5cb5b1461093157600080fd5b80633538fda0116102ed578063598d17bf1161028057806370a082311161024f57806370a082311461084b578063753d75631461086b57806375bfd63d1461089c5780637b0472f0146108b157600080fd5b8063598d17bf146107bd5780635de406dc146107eb5780636352211e1461080b5780636ac6d8121461082b57600080fd5b806342842e0e116102bc57806342842e0e146107555780634f1ef2861461077557806352d1902d146107885780635669cbef1461079d57600080fd5b80633538fda0146106d25780633659cfe6146106f257806339458723146107125780633e8888d91461074057600080fd5b80631aebcecb116103655780632cb0dfcc116103345780632cb0dfcc146106525780632dbe051e1461067257806330ca07941461069257806332fce602146106b257600080fd5b80631aebcecb146105615780631f8bc7901461058157806323b872dd1461061b5780632986c0e51461063b57600080fd5b8063081812fc116103a1578063081812fc146104cb578063095ea7b3146104eb578063106d08df1461050d5780631526fe271461052d57600080fd5b8063011b408b146103d357806301ffc9a71461041f57806306fdde031461044f578063074ecf0314610471575b600080fd5b3480156103df57600080fd5b5061040c6103ee366004617623565b61016860209081526000928352604080842090915290825290205481565b6040519081526020015b60405180910390f35b34801561042b57600080fd5b5061043f61043a366004617672565b610d3d565b6040519015158152602001610416565b34801561045b57600080fd5b50610464610d8f565b60405161041691906176df565b34801561047d57600080fd5b506104b361048c3660046176f2565b61016a6020908152600092835260408084209091529082529020546001600160a01b031681565b6040516001600160a01b039091168152602001610416565b3480156104d757600080fd5b506104b36104e6366004617714565b610e22565b3480156104f757600080fd5b5061050b61050636600461772d565b610e4a565b005b34801561051957600080fd5b5061043f610528366004617714565b610f64565b34801561053957600080fd5b5061054d610548366004617714565b61104b565b6040516104169897969594939291906177c4565b34801561056d57600080fd5b5061050b61057c36600461772d565b6112a8565b34801561058d57600080fd5b506105e061059c366004617714565b610163602052600090815260409020805460018201546002830154600384015460048501546005860154600687015460079097015495969495939492939192909188565b604080519889526020890197909752958701949094526060860192909252608085015260a084015260c083015260e082015261010001610416565b34801561062757600080fd5b5061050b6106363660046178ff565b611467565b34801561064757600080fd5b5061040c6101345481565b34801561065e57600080fd5b5061043f61066d36600461794e565b611498565b34801561067e57600080fd5b5061043f61068d366004617714565b6116e0565b34801561069e57600080fd5b5061050b6106ad366004617a33565b61170a565b3480156106be57600080fd5b5061040c6106cd366004617a9e565b611a5b565b3480156106de57600080fd5b5061050b6106ed366004617b25565b611e84565b3480156106fe57600080fd5b5061050b61070d366004617b25565b611eaf565b34801561071e57600080fd5b5061040c61072d366004617b25565b61016f6020526000908152604090205481565b34801561074c57600080fd5b5061043f611f8e565b34801561076157600080fd5b5061050b6107703660046178ff565b611ff1565b61050b610783366004617b42565b61200c565b34801561079457600080fd5b5061040c6120dc565b3480156107a957600080fd5b5061043f6107b83660046176f2565b61218f565b3480156107c957600080fd5b5061040c6107d8366004617b25565b6101676020526000908152604090205481565b3480156107f757600080fd5b5061050b6108063660046176f2565b6122ce565b34801561081757600080fd5b506104b3610826366004617714565b612359565b34801561083757600080fd5b5061040c610846366004617714565b6123ba565b34801561085757600080fd5b5061040c610866366004617b25565b61265d565b34801561087757600080fd5b5061043f610886366004617b25565b61016d6020526000908152604090205460ff1681565b3480156108a857600080fd5b5061050b6126e4565b3480156108bd57600080fd5b5061040c6108cc3660046176f2565b61270c565b3480156108dd57600080fd5b5061040c6108ec366004617714565b612b7d565b3480156108fd57600080fd5b5061040c61090c366004617b92565b612e8f565b34801561091d57600080fd5b5061040c61092c3660046176f2565b61316b565b34801561093d57600080fd5b506033546001600160a01b03166104b3565b34801561095b57600080fd5b5061050b61096a366004617714565b6131a1565b34801561097b57600080fd5b5061040c61098a366004617b25565b61016c6020526000908152604090205481565b3480156109a957600080fd5b506104646135c7565b3480156109be57600080fd5b5061040c6109cd3660046176f2565b6135d7565b3480156109de57600080fd5b5061043f6109ed3660046176f2565b613609565b3480156109fe57600080fd5b5061050b610a0d366004617bbe565b613780565b348015610a1e57600080fd5b5061043f610a2d366004617be3565b613ad8565b348015610a3e57600080fd5b506104b3610a4d366004617714565b613cac565b348015610a5e57600080fd5b5061043f610a6d366004617b25565b613cd7565b348015610a7e57600080fd5b5061050b610a8d366004617c08565b613d84565b348015610a9e57600080fd5b5061050b610aad366004617c36565b613d8f565b348015610abe57600080fd5b5061040c610acd366004617714565b61016b6020526000908152604090205481565b348015610aec57600080fd5b5061050b613e86565b348015610b0157600080fd5b5061050b610b10366004617c86565b613f06565b348015610b2157600080fd5b5061043f610b30366004617714565b613f3e565b348015610b4157600080fd5b5061050b610b50366004617b25565b614289565b348015610b6157600080fd5b50610464610b70366004617714565b6143b6565b348015610b8157600080fd5b5061040c610b90366004617b25565b6101666020526000908152604090205481565b348015610baf57600080fd5b5061043f610bbe366004617623565b614429565b348015610bcf57600080fd5b5061050b610bde366004617cf2565b6144c4565b348015610bef57600080fd5b5061040c610bfe366004617714565b6149c4565b348015610c0f57600080fd5b5061040c610c1e366004617b25565b6101656020526000908152604090205481565b348015610c3d57600080fd5b5061050b610c4c366004617714565b614d3f565b348015610c5d57600080fd5b5061043f610c6c366004617623565b6001600160a01b0391821660009081526101336020908152604080832093909416825291909152205460ff1690565b348015610ca757600080fd5b50610cbb610cb6366004617b25565b6150f5565b6040516104169190617d41565b348015610cd457600080fd5b5061043f610ce3366004617b25565b61527f565b348015610cf457600080fd5b5061050b610d03366004617b25565b6152e2565b348015610d1457600080fd5b5061050b610d23366004617714565b615371565b348015610d3457600080fd5b5061050b6153d6565b60006001600160e01b031982166380ac58cd60e01b1480610d6e57506001600160e01b03198216635b5e139f60e01b145b80610d8957506301ffc9a760e01b6001600160e01b03198316145b92915050565b606061012e8054610d9f90617dc1565b80601f0160208091040260200160405190810160405280929190818152602001828054610dcb90617dc1565b8015610e185780601f10610ded57610100808354040283529160200191610e18565b820191906000526020600020905b815481529060010190602001808311610dfb57829003601f168201915b5050505050905090565b6000610e2d8261540d565b50600090815261013260205260409020546001600160a01b031690565b6000610e5582612359565b9050806001600160a01b0316836001600160a01b031603610ec75760405162461bcd60e51b815260206004820152602160248201527f4552433732313a20617070726f76616c20746f2063757272656e74206f776e656044820152603960f91b60648201526084015b60405180910390fd5b336001600160a01b0382161480610ee35750610ee38133610c6c565b610f555760405162461bcd60e51b815260206004820152603d60248201527f4552433732313a20617070726f76652063616c6c6572206973206e6f7420746f60448201527f6b656e206f776e6572206f7220617070726f76656420666f7220616c6c0000006064820152608401610ebe565b610f5f838361546d565b505050565b6000610f6e6154dc565b610f783383615535565b610fba5760405162461bcd60e51b815260206004820152601360248201527239b2b73232b91034b9903737ba1037bbb732b960691b6044820152606401610ebe565b6000828152610163602052604090208054610fd862093a8042617e11565b6006830155610fea62093a8042617e11565b610ff7906203f480617e11565b6007830155600182015460405190815281907fb3b9c925de3673837b40c6b4d4463a8f88dc821cd27e07f1ff6bf6abf96413a59060200160405180910390a2600192505050611046600160ca55565b919050565b610162818154811061105c57600080fd5b60009182526020918290206040805161010081018252601790930290910180546001600160a01b03808216855260ff600160a01b8304169585019590955261ffff600160a81b9091041691830191909152600181015490921660608201526002820180549293509091839160808401916110d590617dc1565b80601f016020809104026020016040519081016040528092919081815260200182805461110190617dc1565b801561114e5780601f106111235761010080835404028352916020019161114e565b820191906000526020600020905b81548152906001019060200180831161113157829003601f168201915b50505091835250506003820154602080830191909152600483015460408084019190915260059093015460609283015282518084018452600686015481526007860154818301528351808501855260088701548152600987015481840152845160808082018752600a8901548252600b89015482860152600c89015482880152600d89015460ff1615158287015286519081018752600e890180548252600f8a01548287015260108a01548289015260118a018054895181890281018901909a52808a52999a959994989397959692959194918601939290919083018282801561125757602002820191906000526020600020905b815481526020019060010190808311611243575b5050509190925250506040805160608101825260128501546001600160a01b031681526013850154602082015260148501549181019190915260158401546016909401549293909290915060ff1688565b6112bd6001600160a01b0383163330846155b5565b5033600090815261016c60205260408120549081900361130b576001600160a01b0383166000908152610167602052604081208054849290611300908490617e11565b90915550610f5f9050565b600080600073__$5895ccd1995f752272f1bd8265a40f7773$__63fc76fff386610162878154811061133f5761133f617e24565b906000526020600020906017020160120160020154610162888154811061136857611368617e24565b906000526020600020906017020160120160010154610162898154811061139157611391617e24565b600091825260209091206017909102016012015460405160e086901b6001600160e01b03191681526004810194909452602484019290925260448301526001600160a01b03166064820152608401606060405180830381865af41580156113fc573d6000803e3d6000fd5b505050506040513d601f19601f820116820180604052508101906114209190617e3a565b925092509250611431818784615623565b6001600160a01b038616600090815261016760205260408120805485929061145a908490617e11565b9091555050505050505050565b6114713382615535565b61148d5760405162461bcd60e51b8152600401610ebe90617e73565b610f5f838383615674565b60006114a26157e6565b6001600160a01b038416600090815261016d602052604090205460ff1615158315146115095760405162461bcd60e51b81526020600482015260166024820152751b9bc818da185b99d9481d1bc81dda1a5d195b1a5cdd60521b6044820152606401610ebe565b6001600160a01b038416600081815261016d6020526040808220805460ff191687151590811790915590519092917f99795d51e5a8804307721456a7a9c2f0d7421f719d46a46d36e91fee7c85aa7691a382156115c15761016e8054600181019091557ff82fbbf6ecba5c6bca8ffdb165c351ca78f1011f756f9b1202212482fd7d83130180546001600160a01b0319166001600160a01b038616908117909155600090815261016f602052604090208290556116d5565b61016e5460005b818110156116d257600061016e82815481106115e6576115e6617e24565b6000918252602090912001546001600160a01b039081169150871681036116c15761016e611615600185617ec0565b8154811061162557611625617e24565b60009182526020909120015461016e80546001600160a01b03909216918490811061165257611652617e24565b9060005260206000200160006101000a8154816001600160a01b0302191690836001600160a01b0316021790555061016e80548061169257611692617ed3565b600082815260209020810160001990810180546001600160a01b031916905501905550600192506116d9915050565b506116cb81617ee9565b90506115c8565b50505b5060015b9392505050565b60006116ea6154dc565b6116f26157e6565b6116fd826000615840565b506001611046600160ca55565b6117126154dc565b6000610162868154811061172857611728617e24565b60009182526020909120601790910201601681015490915060ff1615801561175257506003810154155b61179e5760405162461bcd60e51b815260206004820152601860248201527f506f6f6c20616c726561647920696e697469616c697a656400000000000000006044820152606401610ebe565b60008461ffff161180156117b857506127108461ffff1611155b6117f75760405162461bcd60e51b815260206004820152601060248201526f415059206f7574206f662072616e676560801b6044820152606401610ebe565b805461180e90600160a01b900460ff16600a617fe6565b61181a906103e8617ff5565b851015801561184c5750805461183b90600160a01b900460ff16600a617fe6565b6118489062989680617ff5565b8511155b6118905760405162461bcd60e51b8152602060048201526015602482015274506f6f6c20636170206f7574206f662072616e676560581b6044820152606401610ebe565b60018101546001600160a01b031633146118bc5760405162461bcd60e51b8152600401610ebe9061800c565b60006118cc868661ffff1661316b565b905060006127106118df6103e884617ff5565b6118e99190618034565b905060006118f6896123ba565b905061191a3330611907868a617e11565b87546001600160a01b03169291906155b5565b50858460060160000160008282546119329190617e11565b909155505060038401889055835461ffff60a81b1916600160a81b61ffff89169081029190911785556040516334d5118560e01b8152600481019190915273__$5895ccd1995f752272f1bd8265a40f7773$__906334d5118590602401602060405180830381865af41580156119ac573d6000803e3d6000fd5b505050506040513d601f19601f820116820180604052508101906119d09190618056565b600585015560168401805460ff19166001179055600884018390556119f58284617ec0565b6009850155845115611a0e57611a0c898688615a5e565b505b6000611a198a6123ba565b60408051848152602081018390529192508b916000805160206184bf833981519152910160405180910390a25050505050611a54600160ca55565b5050505050565b6000611a656157e6565b6001600160a01b038716600090815261016d602052604090205460ff16611ac65760405162461bcd60e51b81526020600482015260156024820152741d1bdad95b881b9bdd081dda1a5d195b1a5cdd1959605a1b6044820152606401610ebe565b611388831115611b105760405162461bcd60e51b81526020600482015260156024820152740e4cacccae4e4c2d840cccaca40e8dede40d0d2ced605b1b6044820152606401610ebe565b60408051600481526024810182526020810180516001600160e01b031663313ce56760e01b17905290516000916001600160a01b038a1691611b52919061806f565b600060405180830381855afa9150503d8060008114611b8d576040519150601f19603f3d011682016040523d82523d6000602084013e611b92565b606091505b50915050600081806020019051810190611bac919061808b565b905060068160ff161015611bfb5760405162461bcd60e51b815260206004820152601660248201527524b73b30b634b2103232b1b4b6b0b6103932ba3ab93760511b6044820152606401610ebe565b611c03617420565b80516001600160a01b03808c16909152815160ff80851660209283015283518c8416606091820152845160809081018d905260a0860180518d87169052805185018c90525160409081018b905261016280546001810182556000919091528751805160179092027f29af0939a5988989bfee913a9ad10b9335cb63ebc9fd2b69e5f877d0455ac91981018054988301519483015161ffff16600160a81b0261ffff60a81b1995909816600160a01b026001600160a81b0319909916938a16939093179790971792909216949094178455918201517f29af0939a5988989bfee913a9ad10b9335cb63ebc9fd2b69e5f877d0455ac91a85018054919096166001600160a01b03199190911617909455928301518493919283917f29af0939a5988989bfee913a9ad10b9335cb63ebc9fd2b69e5f877d0455ac91b90910190611d4a90826180fc565b5060a0820151600382015560c0820151600482015560e0909101516005909101556020828101518051600684015581015160078301556040808401518051600885015582015160098401556060808501518051600a86015580840151600b86015580830151600c860155810151600d8501805460ff191691151591909117905560808501518051600e860190815581850151600f8701559281015160108601559081015180519193611e049260118701929091019061754b565b50505060a082015180516012830180546001600160a01b0319166001600160a01b039092169190911790556020810151601383015560400151601482015560c0820151601582015560e0909101516016909101805460ff191691151591909117905561016254611e7690600190617ec0565b9a9950505050505050505050565b611e8c6157e6565b61016980546001600160a01b0319166001600160a01b0392909216919091179055565b6001600160a01b037f0000000000000000000000000000000000000000000000000000000000000000163003611ef75760405162461bcd60e51b8152600401610ebe906181bc565b7f00000000000000000000000000000000000000000000000000000000000000006001600160a01b0316611f406000805160206184df833981519152546001600160a01b031690565b6001600160a01b031614611f665760405162461bcd60e51b8152600401610ebe90618208565b611f6f81615b9b565b60408051600080825260208201909252611f8b91839190615ba3565b50565b61016e54600090815b81811015611fe857600061016e8281548110611fb557611fb5617e24565b6000918252602090912001546001600160a01b03169050611fd581613cd7565b505080611fe190617ee9565b9050611f97565b50600191505090565b610f5f83838360405180602001604052806000815250613f06565b6001600160a01b037f00000000000000000000000000000000000000000000000000000000000000001630036120545760405162461bcd60e51b8152600401610ebe906181bc565b7f00000000000000000000000000000000000000000000000000000000000000006001600160a01b031661209d6000805160206184df833981519152546001600160a01b031690565b6001600160a01b0316146120c35760405162461bcd60e51b8152600401610ebe90618208565b6120cc82615b9b565b6120d882826001615ba3565b5050565b6000306001600160a01b037f0000000000000000000000000000000000000000000000000000000000000000161461217c5760405162461bcd60e51b815260206004820152603860248201527f555550535570677261646561626c653a206d757374206e6f742062652063616c60448201527f6c6564207468726f7567682064656c656761746563616c6c00000000000000006064820152608401610ebe565b506000805160206184df83398151915290565b60008061016284815481106121a6576121a6617e24565b9060005260206000209060170201905082816006016001015482600601600001546121d19190617e11565b101561221f5760405162461bcd60e51b815260206004820152601a60248201527f416d6f756e7420626967676572207468616e206465706f7369740000000000006044820152606401610ebe565b60018101546001600160a01b0316331461224b5760405162461bcd60e51b8152600401610ebe9061800c565b61225862093a8042617e11565b600a82015561226a62093a8042617e11565b612277906203f480617e11565b600b820155600c8101839055600d8101805460ff1916905560405183815284907fb3b9c925de3673837b40c6b4d4463a8f88dc821cd27e07f1ff6bf6abf96413a59060200160405180910390a25060019392505050565b6122d66157e6565b600061016283815481106122ec576122ec617e24565b90600052602060002090601702019050806012016002015482116123525760405162461bcd60e51b815260206004820152601860248201527f63616e206f6e6c7920657874656e6420656e642074696d6500000000000000006044820152606401610ebe565b6014015550565b600081815261013060205260408120546001600160a01b031680610d895760405162461bcd60e51b8152602060048201526018602482015277115490cdcc8c4e881a5b9d985b1a59081d1bdad95b88125160421b6044820152606401610ebe565b60008061016283815481106123d1576123d1617e24565b6000918252602090912060408051610200810190915260179092020180546001600160a01b038082166101008501908152600160a01b830460ff16610120860152600160a81b90920461ffff1661014085015260018301541661016084015260028201805484929184916101808501919061244b90617dc1565b80601f016020809104026020016040519081016040528092919081815260200182805461247790617dc1565b80156124c45780601f10612499576101008083540402835291602001916124c4565b820191906000526020600020905b8154815290600101906020018083116124a757829003601f168201915b505050918352505060038201546020808301919091526004830154604080840191909152600590930154606092830152928452815180830183526006860154815260078601548185015284840152815180830183526008860154815260098601548185015284830152815160808082018452600a8701548252600b87015482860152600c87015482850152600d87015460ff161515828401528583019190915282518082018452600e870180548252600f880154828701526010880154828601526011880180548651818902810189019097528087529390970196919590949386019392908301828280156125d857602002820191906000526020600020905b8154815260200190600101908083116125c4575b505050919092525050508152604080516060808201835260128501546001600160a01b0316825260138501546020838101919091526014860154838501528085019290925260158501549284019290925260169093015460ff1615159101528181015190810151905191925061264d91617e11565b815160c001516116d99190617e11565b60006001600160a01b0382166126c75760405162461bcd60e51b815260206004820152602960248201527f4552433732313a2061646472657373207a65726f206973206e6f7420612076616044820152683634b21037bbb732b960b91b6064820152608401610ebe565b506001600160a01b03166000908152610131602052604090205490565b6101625460005b818110156120d8576126fc816131a1565b61270581617ee9565b90506126eb565b60006127166154dc565b826000610162828154811061272d5761272d617e24565b6000918252602090912060408051610200810190915260179092020180546001600160a01b038082166101008501908152600160a01b830460ff16610120860152600160a81b90920461ffff166101408501526001830154166101608401526002820180548492918491610180850191906127a790617dc1565b80601f01602080910402602001604051908101604052809291908181526020018280546127d390617dc1565b80156128205780601f106127f557610100808354040283529160200191612820565b820191906000526020600020905b81548152906001019060200180831161280357829003601f168201915b505050918352505060038201546020808301919091526004830154604080840191909152600590930154606092830152928452815180830183526006860154815260078601548185015284840152815180830183526008860154815260098601548185015284830152815160808082018452600a8701548252600b87015482860152600c87015482850152600d87015460ff161515828401528583019190915282518082018452600e870180548252600f8801548287015260108801548286015260118801805486518189028101890190975280875293909701969195909493860193929083018282801561293457602002820191906000526020600020905b815481526020019060010190808311612920575b505050919092525050508152604080516060808201835260128501546001600160a01b03168252601385015460208381019190915260148601548385015284019190915260158401549183019190915260169092015460ff16151591015260e08101519091506129d85760405162461bcd60e51b815260206004820152600f60248201526e706f6f6c206e6f742061637469766560881b6044820152606401610ebe565b600061016286815481106129ee576129ee617e24565b60009182526020808320601790920290910180546001600160a01b0316835261016f909152604090912054909150851015612a5f5760405162461bcd60e51b8152602060048201526011602482015270135a5b881cdd185ad9481b9bdd081b595d607a1b6044820152606401610ebe565b6000612a6a876123ba565b8254909150612a84906001600160a01b03163330896155b5565b506000612a92883389615d0e565b905086836000016004016000828254612aab9190617e11565b9091555050600383015460048401541115612afe5760405162461bcd60e51b8152602060048201526013602482015272115e18d959591959081c1bdbdb081b1a5b5a5d606a1b6044820152606401610ebe565b604051878152889033907f1449c6dd7851abc30abf37f57715f492010519147cc2652fbc38202c18a6ee909060200160405180910390a36000612b40896123ba565b60408051858152602081018390529192508a916000805160206184bf833981519152910160405180910390a250945050505050610d89600160ca55565b6000806101628381548110612b9457612b94617e24565b6000918252602090912060408051610200810190915260179092020180546001600160a01b038082166101008501908152600160a01b830460ff16610120860152600160a81b90920461ffff16610140850152600183015416610160840152600282018054849291849161018085019190612c0e90617dc1565b80601f0160208091040260200160405190810160405280929190818152602001828054612c3a90617dc1565b8015612c875780601f10612c5c57610100808354040283529160200191612c87565b820191906000526020600020905b815481529060010190602001808311612c6a57829003601f168201915b505050918352505060038201546020808301919091526004830154604080840191909152600590930154606092830152928452815180830183526006860154815260078601548185015284840152815180830183526008860154815260098601548185015284830152815160808082018452600a8701548252600b87015482860152600c87015482850152600d87015460ff161515828401528583019190915282518082018452600e870180548252600f88015482870152601088015482860152601188018054865181890281018901909752808752939097019691959094938601939290830182828015612d9b57602002820191906000526020600020905b815481526020019060010190808311612d87575b505050919092525050508152604080516060808201835260128501546001600160a01b03168252601385015460208084019190915260148601548385015284019190915260158401548284015260169093015460ff1615159290910191909152608082015151825160e001519151632500225b60e11b815260048101829052602481018390529293509173__$5895ccd1995f752272f1bd8265a40f7773$__90634a0044b6906044015b602060405180830381865af4158015612e62573d6000803e3d6000fd5b505050506040513d601f19601f82011682018060405250810190612e869190618056565b95945050505050565b6000806101628581548110612ea657612ea6617e24565b6000918252602090912060408051610200810190915260179092020180546001600160a01b038082166101008501908152600160a01b830460ff16610120860152600160a81b90920461ffff16610140850152600183015416610160840152600282018054849291849161018085019190612f2090617dc1565b80601f0160208091040260200160405190810160405280929190818152602001828054612f4c90617dc1565b8015612f995780601f10612f6e57610100808354040283529160200191612f99565b820191906000526020600020905b815481529060010190602001808311612f7c57829003601f168201915b505050918352505060038201546020808301919091526004830154604080840191909152600590930154606092830152928452815180830183526006860154815260078601548185015284840152815180830183526008860154815260098601548185015284830152815160808082018452600a8701548252600b87015482860152600c87015482850152600d87015460ff161515828401528583019190915282518082018452600e870180548252600f880154828701526010880154828601526011880180548651818902810189019097528087529390970196919590949386019392908301828280156130ad57602002820191906000526020600020905b815481526020019060010190808311613099575b505050919092525050508152604080516060808201835260128501546001600160a01b03168252601385015460208084019190915260148601548385015284019190915260158401548284015260169093015460ff1615159290910191909152815160a081015160e0909101519151630d17449160e21b815260048101889052602481018790526044810191909152606481019190915290915073__$5895ccd1995f752272f1bd8265a40f7773$__9063345d124490608401612e45565b60006301e1338061271062093a806131838587617ff5565b61318d9190617ff5565b6131979190618034565b6116d99190618034565b600061016282815481106131b7576131b7617e24565b6000918252602090912060408051610200810190915260179092020180546001600160a01b038082166101008501908152600160a01b830460ff16610120860152600160a81b90920461ffff1661014085015260018301541661016084015260028201805484929184916101808501919061323190617dc1565b80601f016020809104026020016040519081016040528092919081815260200182805461325d90617dc1565b80156132aa5780601f1061327f576101008083540402835291602001916132aa565b820191906000526020600020905b81548152906001019060200180831161328d57829003601f168201915b505050918352505060038201546020808301919091526004830154604080840191909152600590930154606092830152928452815180830183526006860154815260078601548185015284840152815180830183526008860154815260098601548185015284830152815160808082018452600a8701548252600b87015482860152600c87015482850152600d87015460ff161515828401528583019190915282518082018452600e870180548252600f880154828701526010880154828601526011880180548651818902810189019097528087529390970196919590949386019392908301828280156133be57602002820191906000526020600020905b8154815260200190600101908083116133aa575b505050919092525050508152604080516060808201835260128501546001600160a01b03168252601385015460208381019190915260148601548385015284019190915260158401549183019190915260169092015460ff161515908201526080820151015180519192509080158061343957508260e00151155b156134445750505050565b60005b818110156134815761347183828151811061346457613464617e24565b6020026020010151615ffd565b61347a81617ee9565b9050613447565b50600084815261016460209081526040808320805482518185028101850190935280835291929091908301828280156134d957602002820191906000526020600020905b8154815260200190600101908083116134c5575b5050835193945060009250829150505b8281101561355f57600084828151811061350557613505617e24565b602090810291909101810151600081815261016390925260409091206001810154919250906135358b8287612e8f565b600383015560028201546135499086617e11565b94505050508061355890617ee9565b90506134e9565b5080610162888154811061357557613575617e24565b600091825260209091206010601790920201015561016280548890811061359e5761359e617e24565b9060005260206000209060170201600e0160030160006135be9190617596565b50505050505050565b606061012f8054610d9f90617dc1565b61016460205281600052604060002081815481106135f457600080fd5b90600052602060002001600091509150505481565b60006136136154dc565b6000610162848154811061362957613629617e24565b6000918252602090912060179091020160018101549091506001600160a01b031633146136685760405162461bcd60e51b8152600401610ebe9061800c565b600a8101544211801561367e5750600b81015442105b801561368f5750600d81015460ff16155b801561369f5750600c8101548311155b80156136ae5750600a81015415155b6136ca5760405162461bcd60e51b8152600401610ebe90618254565b600d8101805460ff1916600117905560068101548311156136f0576136ee8461621a565b505b60006136fb856123ba565b9050838260060160000160008282546137149190617ec0565b909155505060018201548254613737916001600160a01b0391821691168661637f565b506000613743866123ba565b604080518481526020810183905291925087916000805160206184bf833981519152910160405180910390a260019350505050610d89600160ca55565b816000610162828154811061379757613797617e24565b6000918252602090912060408051610200810190915260179092020180546001600160a01b038082166101008501908152600160a01b830460ff16610120860152600160a81b90920461ffff1661014085015260018301541661016084015260028201805484929184916101808501919061381190617dc1565b80601f016020809104026020016040519081016040528092919081815260200182805461383d90617dc1565b801561388a5780601f1061385f5761010080835404028352916020019161388a565b820191906000526020600020905b81548152906001019060200180831161386d57829003601f168201915b505050918352505060038201546020808301919091526004830154604080840191909152600590930154606092830152928452815180830183526006860154815260078601548185015284840152815180830183526008860154815260098601548185015284830152815160808082018452600a8701548252600b87015482860152600c87015482850152600d87015460ff161515828401528583019190915282518082018452600e870180548252600f8801548287015260108801548286015260118801805486518189028101890190975280875293909701969195909493860193929083018282801561399e57602002820191906000526020600020905b81548152602001906001019080831161398a575b505050919092525050508152604080516060808201835260128501546001600160a01b039081168352601386015460208085019190915260148701548486015285019290925260158501549284019290925260169093015460ff161515918101919091528251015191925016331480613a2157506033546001600160a01b031633145b613a3d5760405162461bcd60e51b8152600401610ebe9061800c565b6001600160a01b038316613a8c5760405162461bcd60e51b8152602060048201526016602482015275496e76616c69642077616c6c6574206164647265737360501b6044820152606401610ebe565b826101628581548110613aa157613aa1617e24565b6000918252602090912060179091020160010180546001600160a01b0319166001600160a01b039290921691909117905550505050565b6000613ae26154dc565b613aec3384615535565b613b2e5760405162461bcd60e51b815260206004820152601360248201527239b2b73232b91034b9903737ba1037bbb732b960691b6044820152606401610ebe565b600083815261016360205260408120805461016280549293919283908110613b5857613b58617e24565b90600052602060002090601702019050428360060154108015613b7e5750428360070154115b613b9a5760405162461bcd60e51b8152600401610ebe90618254565b613ba486866163b2565b600183018054600091829055600685018290556007850182905590613bc8846123ba565b90508615613bd957613bd988616595565b8115613c135781836000016004016000828254613bf69190617ec0565b90915550508254613c11906001600160a01b0316338461637f565b505b604051828152849033907f7fc4727e062e336010f2c282598ef5f14facb3de68cf8195c2f23e1454b2b74e9060200160405180910390a36000613c55856123ba565b604080518481526020810183905291925086916000805160206184bf833981519152910160405180910390a2505050601101805460018181018355600092835260209092200186905592505050610d89600160ca55565b61016e8181548110613cbd57600080fd5b6000918252602090912001546001600160a01b0316905081565b6000613ce16154dc565b336000908152610168602090815260408083206001600160a01b03861684529091529020548015613d7557336000818152610168602090815260408083206001600160a01b0388168085529252822091909155613d3e918361637f565b5060405181815233907fbf7aaef98dccc47249def450ef0fd30757d553648a28fa7cd56e3b2b052724949060200160405180910390a25b6001915050611046600160ca55565b6120d8338383616639565b613d976154dc565b60006101628481548110613dad57613dad617e24565b6000918252602090912060179091020160018101549091506001600160a01b03163314613dec5760405162461bcd60e51b8152600401610ebe9061800c565b6000613df7856123ba565b8254909150613e11906001600160a01b03163330876155b5565b5083826006016000016000828254613e299190617e11565b9091555050825115613e4257613e40858486615a5e565b505b6000613e4d866123ba565b604080518481526020810183905291925087916000805160206184bf833981519152910160405180910390a2505050610f5f600160ca55565b6034546001600160a01b03163314613eef5760405162461bcd60e51b815260206004820152602660248201527f6f6e6c792070656e64696e67206f776e65722063616e2061636365707420747260448201526530b739b332b960d11b6064820152608401610ebe565b603454613f04906001600160a01b0316616708565b565b613f103383615535565b613f2c5760405162461bcd60e51b8152600401610ebe90617e73565b613f3884848484616765565b50505050565b60008160006101628281548110613f5757613f57617e24565b6000918252602090912060408051610200810190915260179092020180546001600160a01b038082166101008501908152600160a01b830460ff16610120860152600160a81b90920461ffff16610140850152600183015416610160840152600282018054849291849161018085019190613fd190617dc1565b80601f0160208091040260200160405190810160405280929190818152602001828054613ffd90617dc1565b801561404a5780601f1061401f5761010080835404028352916020019161404a565b820191906000526020600020905b81548152906001019060200180831161402d57829003601f168201915b505050918352505060038201546020808301919091526004830154604080840191909152600590930154606092830152928452815180830183526006860154815260078601548185015284840152815180830183526008860154815260098601548185015284830152815160808082018452600a8701548252600b87015482860152600c87015482850152600d87015460ff161515828401528583019190915282518082018452600e870180548252600f8801548287015260108801548286015260118801805486518189028101890190975280875293909701969195909493860193929083018282801561415e57602002820191906000526020600020905b81548152602001906001019080831161414a575b505050919092525050508152604080516060808201835260128501546001600160a01b039081168352601386015460208085019190915260148701548486015285019290925260158501549284019290925260169093015460ff1615159181019190915282510151919250163314806141e157506033546001600160a01b031633145b6141fd5760405162461bcd60e51b8152600401610ebe9061800c565b6000610162858154811061421357614213617e24565b60009182526020909120601790910201601681015490915060ff1661426c5760405162461bcd60e51b815260206004820152600f60248201526e506f6f6c206e6f742061637469766560881b6044820152606401610ebe565b60168101805460ff19169055426015909101555060019392505050565b600054610100900460ff16158080156142a95750600054600160ff909116105b806142c35750303b1580156142c3575060005460ff166001145b6143265760405162461bcd60e51b815260206004820152602e60248201527f496e697469616c697a61626c653a20636f6e747261637420697320616c72656160448201526d191e481a5b9a5d1a585b1a5e995960921b6064820152608401610ebe565b6000805460ff191660011790558015614349576000805461ff0019166101001790555b614351616798565b61016980546001600160a01b0319166001600160a01b03841617905580156120d8576000805461ff0019169055604051600181527f7f26b83ff96e1f2b6a682f133852f6798a09c465da95921460cefb38474024989060200160405180910390a15050565b60606143c18261540d565b60006143d860408051602081019091526000815290565b905060008151116143f857604051806020016040528060008152506116d9565b80614402846167c7565b60405160200161441392919061829d565b6040516020818303038152906040529392505050565b60006144336157e6565b6001600160a01b0383166000908152610166602090815260408083205461016783528184205461016590935290832054909161446e91617e11565b6144789190617e11565b6001600160a01b03851660008181526101656020908152604080832083905561016682528083208390556101679091528120559091506144b990848361637f565b506001949350505050565b6144cc6157e6565b6127108261ffff1611156145145760405162461bcd60e51b815260206004820152600f60248201526e0a0c2f2deeae840e8dede40d0d2ced608b1b6044820152606401610ebe565b6127108161ffff16111561455b5760405162461bcd60e51b815260206004820152600e60248201526d084dedceae640e8dede40d0d2ced60931b6044820152606401610ebe565b60008490506000610162828154811061457657614576617e24565b60009182526020822060046017909202019081015490925081614598856123ba565b905060006127106145ad61ffff8a1684617ff5565b6145b79190618034565b60008781526101646020526040902054909150838210156146be576000846145e7670de0b6b3a764000085617ff5565b6145f19190618034565b905060005b828110156146b75760008981526101646020526040812080548390811061461f5761461f617e24565b906000526020600020015490506101636000828152602001908152602001600020975061464d8160006163b2565b6000670de0b6b3a7640000848a600101546146689190617ff5565b6146729190618034565b9050808960010160008282546146889190617ec0565b909155505060048a0180548291906000906146a4908490617ec0565b9091555050600190920191506145f69050565b50506147db565b8382101580156146ce5750828211155b156147a15760005b8181101561475e576000888152610164602052604081208054839081106146ff576146ff617e24565b906000526020600020015490506101636000828152602001908152602001600020965061472d8160006163b2565b600060018089018290556003890182905560118a0180548083018255908352602090922090910191909155016146d6565b506000600487015561476f8761621a565b50600061477c8584617ec0565b9050808760060160000160008282546147959190617ec0565b909155506147db915050565b60405162461bcd60e51b815260206004820152600f60248201526e082dadeeadce840e8dede40d0d2ced608b1b6044820152606401610ebe565b60006127106147ee61ffff8b1682617ec0565b6127106147fd6103e887617ff5565b6148079190618034565b6148119190617ff5565b61481b9190618034565b6014880154601389015460128a015460405163fc76fff360e01b815260048101859052602481019390935260448301919091526001600160a01b031660648201529091506000908190819073__$5895ccd1995f752272f1bd8265a40f7773$__9063fc76fff390608401606060405180830381865af41580156148a2573d6000803e3d6000fd5b505050506040513d601f19601f820116820180604052508101906148c69190617e3a565b8c5492955090935091506001600160a01b03166148e4828285615623565b6001600160a01b038116600090815261016560205260408120805486929061490d908490617e11565b9091555061493290508f614921878a617ec0565b6001600160a01b038416919061637f565b50806001600160a01b03168f6001600160a01b03167fbcbf239e05ac65bcc1a5612cd36d392b0a0aa8c93e027bc86e727687483424888960405161497891815260200190565b60405180910390a38b6000805160206184bf8339815191528961499a8f6123ba565b6040805192835260208301919091520160405180910390a250505050505050505050505050505050565b60006149ce6154dc565b600061016283815481106149e4576149e4617e24565b6000918252602090912060408051610200810190915260179092020180546001600160a01b038082166101008501908152600160a01b830460ff16610120860152600160a81b90920461ffff16610140850152600183015416610160840152600282018054849291849161018085019190614a5e90617dc1565b80601f0160208091040260200160405190810160405280929190818152602001828054614a8a90617dc1565b8015614ad75780601f10614aac57610100808354040283529160200191614ad7565b820191906000526020600020905b815481529060010190602001808311614aba57829003601f168201915b505050918352505060038201546020808301919091526004830154604080840191909152600590930154606092830152928452815180830183526006860154815260078601548185015284840152815180830183526008860154815260098601548185015284830152815160808082018452600a8701548252600b87015482860152600c87015482850152600d87015460ff161515828401528583019190915282518082018452600e870180548252600f88015482870152601088015482860152601188018054865181890281018901909752808752939097019691959094938601939290830182828015614beb57602002820191906000526020600020905b815481526020019060010190808311614bd7575b505050919092525050508152604080516060808201835260128501546001600160a01b039081168352601386015460208085019190915260148701548486015285019290925260158501549284019290925260169093015460ff1615159181019190915282510151919250163314614c755760405162461bcd60e51b8152600401610ebe9061800c565b600083815261016b60205260409020548015614d3357600084815261016a602090815260408083208484528252808320548151633941ea2960e21b815291516001600160a01b0390911693849363e507a8a49360048082019492939183900301908290875af1158015614cec573d6000803e3d6000fd5b505050506040513d601f19601f82011682018060405250810190614d109190618056565b835160608101519051919550614d30916001600160a01b0316908661637f565b50505b5050611046600160ca55565b8060006101628281548110614d5657614d56617e24565b6000918252602090912060408051610200810190915260179092020180546001600160a01b038082166101008501908152600160a01b830460ff16610120860152600160a81b90920461ffff16610140850152600183015416610160840152600282018054849291849161018085019190614dd090617dc1565b80601f0160208091040260200160405190810160405280929190818152602001828054614dfc90617dc1565b8015614e495780601f10614e1e57610100808354040283529160200191614e49565b820191906000526020600020905b815481529060010190602001808311614e2c57829003601f168201915b505050918352505060038201546020808301919091526004830154604080840191909152600590930154606092830152928452815180830183526006860154815260078601548185015284840152815180830183526008860154815260098601548185015284830152815160808082018452600a8701548252600b87015482860152600c87015482850152600d87015460ff161515828401528583019190915282518082018452600e870180548252600f88015482870152601088015482860152601188018054865181890281018901909752808752939097019691959094938601939290830182828015614f5d57602002820191906000526020600020905b815481526020019060010190808311614f49575b505050919092525050508152604080516060808201835260128501546001600160a01b039081168352601386015460208085019190915260148701548486015285019290925260158501549284019290925260169093015460ff161515918101919091528251015191925016331480614fe057506033546001600160a01b031633145b614ffc5760405162461bcd60e51b8152600401610ebe9061800c565b6150046154dc565b600083815261016b602090815260408083205461016a8352818420818552909252909120546001600160a01b031680156150e9576000816001600160a01b031663f69e20466040518163ffffffff1660e01b81526004016020604051808303816000875af115801561507a573d6000803e3d6000fd5b505050506040513d601f19601f8201168201806040525081019061509e9190618056565b90506150ab600182617ec0565b61016287815481106150bf576150bf617e24565b906000526020600020906017020160060160010160008282546150e29190617e11565b9091555050505b5050610f5f600160ca55565b6001600160a01b03811660009081526101356020908152604080832080548251818502810185019093528083526060949383018282801561515557602002820191906000526020600020905b815481526020019060010190808311615141575b50508351939450839250505067ffffffffffffffff81111561517957615179617990565b6040519080825280602002602001820160405280156151b257816020015b61519f6175b4565b8152602001906001900390816151975790505b50925060005b818110156152775761016360008483815181106151d7576151d7617e24565b60200260200101518152602001908152602001600020604051806101000160405290816000820154815260200160018201548152602001600282015481526020016003820154815260200160048201548152602001600582015481526020016006820154815260200160078201548152505084828151811061525b5761525b617e24565b60200260200101819052508061527090617ee9565b90506151b8565b505050919050565b60006152896157e6565b61016e5460005b818110156116d557600061016e82815481106152ae576152ae617e24565b6000918252602090912001546001600160a01b031690506152cf8186614429565b5050806152db90617ee9565b9050615290565b6152ea6157e6565b6001600160a01b03811661534f5760405162461bcd60e51b815260206004820152602660248201527f4f776e61626c653a206e6577206f776e657220697320746865207a65726f206160448201526564647265737360d01b6064820152608401610ebe565b603480546001600160a01b0319166001600160a01b0392909216919091179055565b6153796154dc565b6153833382615535565b61539f5760405162461bcd60e51b8152600401610ebe90617e73565b6153aa8160016163b2565b6000818152610163602052604081206001015490036153cc576153cc81616595565b611f8b600160ca55565b6101625460005b818110156120d8576153ee81614d3f565b6153f781617ee9565b90506153dd565b6001600160a01b03163b151590565b600081815261013060205260409020546001600160a01b0316611f8b5760405162461bcd60e51b8152602060048201526018602482015277115490cdcc8c4e881a5b9d985b1a59081d1bdad95b88125160421b6044820152606401610ebe565b60008181526101326020526040902080546001600160a01b0319166001600160a01b03841690811790915581906154a382612359565b6001600160a01b03167f8c5be1e5ebec7d5bd14f71427d1e84f3dd0314c0f7b2291e5b200ac8c7c3b92560405160405180910390a45050565b600260ca540361552e5760405162461bcd60e51b815260206004820152601f60248201527f5265656e7472616e637947756172643a207265656e7472616e742063616c6c006044820152606401610ebe565b600260ca55565b60008061554183612359565b9050806001600160a01b0316846001600160a01b0316148061558957506001600160a01b038082166000908152610133602090815260408083209388168352929052205460ff165b806155ad5750836001600160a01b03166155a284610e22565b6001600160a01b0316145b949350505050565b6040516001600160a01b03808516602483015283166044820152606481018290526000906144b99086906323b872dd60e01b906084015b60408051601f198184030181529190526020810180516001600160e01b03166001600160e01b031990931692909217909152616858565b6001600160a01b03831615610f5f576001600160a01b038084166000908152610168602090815260408083209386168352929052908120805483929061566a908490617e11565b9091555050505050565b826001600160a01b031661568782612359565b6001600160a01b0316146156ad5760405162461bcd60e51b8152600401610ebe906182cc565b6001600160a01b03821661570f5760405162461bcd60e51b8152602060048201526024808201527f4552433732313a207472616e7366657220746f20746865207a65726f206164646044820152637265737360e01b6064820152608401610ebe565b61571a83838361692a565b826001600160a01b031661572d82612359565b6001600160a01b0316146157535760405162461bcd60e51b8152600401610ebe906182cc565b60008181526101326020908152604080832080546001600160a01b03199081169091556001600160a01b03878116808652610131855283862080546000190190559087168086528386208054600101905586865261013090945282852080549092168417909155905184937fddf252ad1be2c89b69c2b068fc378daa952ba7f163c4a11628f55a4df523b3ef91a4505050565b6033546001600160a01b03163314613f045760405162461bcd60e51b815260206004820181905260248201527f4f776e61626c653a2063616c6c6572206973206e6f7420746865206f776e65726044820152606401610ebe565b6000610162838154811061585657615856617e24565b60009182526020822060179190910201600881015460038201548254929450859261588c9190600160a81b900461ffff1661316b565b6158969190617ec0565b6158a09190617e11565b600183015483549192506158c2916001600160a01b03908116911630846155b5565b50808260080160000160008282546158da9190617e11565b90915550600090506127106158f16103e884617ff5565b6158fb9190618034565b60148401546013850154601286015460405163fc76fff360e01b815260048101859052602481019390935260448301919091526001600160a01b031660648201529091506000908190819073__$5895ccd1995f752272f1bd8265a40f7773$__9063fc76fff390608401606060405180830381865af4158015615982573d6000803e3d6000fd5b505050506040513d601f19601f820116820180604052508101906159a69190617e3a565b885492955090935091506001600160a01b03166159c4828285615623565b6001600160a01b03811660009081526101666020526040812080548692906159ed908490617e11565b90915550600090506159ff8688617ec0565b905080886008016001016000828254615a189190617e11565b90915550506040518781528a907fadb049ad2d09be3db90459a16aef1ad0a4d89e8fdcc1ade9429d6cc55abbcd2b9060200160405180910390a250505050505050505050565b6000806101628581548110615a7557615a75617e24565b90600052602060002090601702019050600084604051602001615a9891906176df565b60408051601f198184030181529181528151602092830120600089815261016b909352912054909150808214615b91576000615ad38861621a565b90506000615ae189896169c1565b90506001600160a01b03811615615b8e5760068501805460009091558190615b0a600182617ec0565b60078801558654615b25906001600160a01b0316848361637f565b50816001600160a01b0316630b5090076040518163ffffffff1660e01b81526004016020604051808303816000875af1158015615b66573d6000803e3d6000fd5b505050506040513d601f19601f82011682018060405250810190615b8a9190618056565b5050505b50505b5050509392505050565b611f8b6157e6565b7f4910fdfa16fed3260ed0e7147f7cc6da11a60208b5b9406d12a635614ffd91435460ff1615615bd657610f5f83616b50565b826001600160a01b03166352d1902d6040518163ffffffff1660e01b8152600401602060405180830381865afa925050508015615c30575060408051601f3d908101601f19168201909252615c2d91810190618056565b60015b615c935760405162461bcd60e51b815260206004820152602e60248201527f45524331393637557067726164653a206e657720696d706c656d656e7461746960448201526d6f6e206973206e6f74205555505360901b6064820152608401610ebe565b6000805160206184df8339815191528114615d025760405162461bcd60e51b815260206004820152602960248201527f45524331393637557067726164653a20756e737570706f727465642070726f786044820152681a58589b195555525160ba1b6064820152608401610ebe565b50610f5f838383616bec565b60006001600160a01b038316615d665760405162461bcd60e51b815260206004820152601f60248201527f45524332303a206d696e7420746f20746865207a65726f2061646472657373006044820152606401610ebe565b6000615d9b85846101628881548110615d8157615d81617e24565b9060005260206000209060170201600e0160000154612e8f565b90506000615da885616c11565b9050615db26175b4565b86815260208101859052610162805460009173__$5895ccd1995f752272f1bd8265a40f7773$__9163098952389189918c908110615df257615df2617e24565b9060005260206000209060170201600001600301546040518363ffffffff1660e01b8152600401615e2d929190918252602082015260400190565b6040805180830381865af4158015615e49573d6000803e3d6000fd5b505050506040513d601f19601f82011682018060405250810190615e6d9190618311565b509050674563918244f40000816101628a81548110615e8e57615e8e617e24565b9060005260206000209060170201600e0160020154615ead9190617e11565b1115615ef15760405162461bcd60e51b81526020600482015260136024820152721608189bdd5b99185c9e481d9a5bdb185d1959606a1b6044820152606401610ebe565b6040808301828152606084018681524260a086019081526000878152610163602090815285822088518155818901516001808301919091559551600282015593516003850155608088015160048501559151600584015560c0870151600684015560e08701516007909301929092558b82526101648152928120805492830181558152919091200183905561016280548291908a908110615f9457615f94617e24565b9060005260206000209060170201600e016002016000828254615fb79190617e11565b92505081905550615ff0886101628a81548110615fd657615fd6617e24565b9060005260206000209060170201600e0160020154616dc7565b5091979650505050505050565b60008181526101636020908152604080832081516101008101835281548082526001830154828601526002830154828501526003830154606083015260048301546080830152600583015460a0830152600683015460c083015260079092015460e082015281855261016484528285208054845181870281018701909552808552919592949293929091908301828280156160b757602002820191906000526020600020905b8154815260200190600101908083116160a3575b5050835193945060009250829150505b8281101561610757868482815181106160e2576160e2617e24565b6020026020010151036160f757809150616107565b61610081617ee9565b90506160c7565b508181106161575760405162461bcd60e51b815260206004820152601860248201527f546f6b656e206e6f7420666f756e6420696e20617272617900000000000000006044820152606401610ebe565b805b616164600184617ec0565b8110156161bc5783616177826001617e11565b8151811061618757616187617e24565b60200260200101518482815181106161a1576161a1617e24565b60209081029190910101526161b581617ee9565b9050616159565b5060008481526101646020908152604090912084516161dd9286019061754b565b506000848152610164602052604090208054806161fc576161fc617ed3565b60019003818190600052602060002001600090559055505050505050565b600080610162838154811061623157616231617e24565b6000918252602080832086845261016b909152604083208054908490556017909202019250801561637757600085815261016a602090815260408083208484528252808320548151637f1f087360e01b815291516001600160a01b0390911693928492637f1f08739260048083019392829003018187875af11580156162bb573d6000803e3d6000fd5b505050506040513d601f19601f820116820180604052508101906162df9190618056565b6040516348b1933560e01b8152600481018290529091506001600160a01b038316906348b19335906024016020604051808303816000875af1158015616329573d6000803e3d6000fd5b505050506040513d601f19601f8201168201806040525081019061634d9190618056565b600060078701819055600687018054929650869290919061636f908490617e11565b909155505050505b509392505050565b6040516001600160a01b0383166024820152604481018290526000906116d590859063a9059cbb60e01b906064016155ec565b6000828152610163602052604081208054610162805492939192839081106163dc576163dc617e24565b90600052602060002090601702019050600080600073__$5895ccd1995f752272f1bd8265a40f7773$__63ad6fa2338560150154886005015489600101548a600301548b600401546040518663ffffffff1660e01b8152600401616462959493929190948552602085019390935260408401919091526060830152608082015260a00190565b606060405180830381865af415801561647f573d6000803e3d6000fd5b505050506040513d601f19601f820116820180604052508101906164a39190618335565b925092509250866164f15783601501546000036164c057426164c6565b83601501545b8660050181905550808660040160008282546164e29190617e11565b90915550505050505050505050565b6008840154831115616507576165078584615840565b821561658b5760006004870181905560158501549003616527574261652d565b83601501545b6005870155600884018054849190600090616549908490617ec0565b9091555050600984018054839190600090616565908490617ec0565b90915550616589905061657789612359565b85546001600160a01b0316908461637f565b505b5050505050505050565b60006165a082612359565b90506165ae8160008461692a565b6165b782612359565b60008381526101326020908152604080832080546001600160a01b03199081169091556001600160a01b03851680855261013184528285208054600019019055878552610130909352818420805490911690555192935084927fddf252ad1be2c89b69c2b068fc378daa952ba7f163c4a11628f55a4df523b3ef908390a45050565b816001600160a01b0316836001600160a01b03160361669a5760405162461bcd60e51b815260206004820152601960248201527f4552433732313a20617070726f766520746f2063616c6c6572000000000000006044820152606401610ebe565b6001600160a01b0383811660008181526101336020908152604080832094871680845294825291829020805460ff191686151590811790915591519182527f17307eab39ab6107e8899845ad3d59bd9653f200f220920489ca2b5937696c31910160405180910390a3505050565b603380546001600160a01b038381166001600160a01b03198084168217909455603480549094169093556040519116919082907f8be0079c531659141344cd1fd0a4f28419497f9722a3daafe3b4186f6b6457e090600090a35050565b616770848484615674565b61677c84848484616dfb565b613f385760405162461bcd60e51b8152600401610ebe90618363565b600054610100900460ff166167bf5760405162461bcd60e51b8152600401610ebe906183b5565b613f04616ef9565b606060006167d483616f29565b600101905060008167ffffffffffffffff8111156167f4576167f4617990565b6040519080825280601f01601f19166020018201604052801561681e576020820181803683370190505b5090508181016020015b600019016f181899199a1a9b1b9c1cb0b131b232b360811b600a86061a8153600a85049450841561637757616828565b60006168ad826040518060400160405280602081526020017f5361666545524332303a206c6f772d6c6576656c2063616c6c206661696c6564815250856001600160a01b03166170019092919063ffffffff16565b805190915015610f5f57808060200190518101906168cb9190618400565b610f5f5760405162461bcd60e51b815260206004820152602a60248201527f5361666545524332303a204552433230206f7065726174696f6e20646964206e6044820152691bdd081cdd58d8d9595960b21b6064820152608401610ebe565b816001600160a01b0316836001600160a01b03161415801561695457506001600160a01b03831615155b15616963576169638382617010565b826001600160a01b0316826001600160a01b03161415801561698d57506001600160a01b03821615155b15610f5f576001600160a01b0391909116600090815261013560209081526040822080546001810182559083529120015550565b6000806000836040516020016169d791906176df565b60408051601f198184030181529181528151602092830120600088815261016a84528281208282529093529120549091506001600160a01b031680616ac9576101695461016280546001600160a01b039092169163dff968019188918a908110616a4357616a43617e24565b60009182526020909120601790910201546040516001600160e01b031960e085901b168152616a7f92916001600160a01b03169060040161841d565b6020604051808303816000875af1158015616a9e573d6000803e3d6000fd5b505050506040513d601f19601f82011682018060405250810190616ac29190618447565b9250616ae5565b600086815261016b60205260409020919091559150610d899050565b6001600160a01b03831615616b4657600086815261016a60209081526040808320858452825280832080546001600160a01b0319166001600160a01b038816908117909155835261016c825280832089905588835261016b90915290208290555b5090949350505050565b6001600160a01b0381163b616bbd5760405162461bcd60e51b815260206004820152602d60248201527f455243313936373a206e657720696d706c656d656e746174696f6e206973206e60448201526c1bdd08184818dbdb9d1c9858dd609a1b6064820152608401610ebe565b6000805160206184df83398151915280546001600160a01b0319166001600160a01b0392909216919091179055565b616bf583617162565b600082511180616c025750805b15610f5f57613f3883836171a2565b60008061013460008154616c2490617ee9565b918290555090506001600160a01b038316616c815760405162461bcd60e51b815260206004820181905260248201527f4552433732313a206d696e7420746f20746865207a65726f20616464726573736044820152606401610ebe565b600081815261013060205260409020546001600160a01b031615616ce75760405162461bcd60e51b815260206004820152601c60248201527f4552433732313a20746f6b656e20616c7265616479206d696e746564000000006044820152606401610ebe565b616cf36000848361692a565b600081815261013060205260409020546001600160a01b031615616d595760405162461bcd60e51b815260206004820152601c60248201527f4552433732313a20746f6b656e20616c7265616479206d696e746564000000006044820152606401610ebe565b6001600160a01b0383166000818152610131602090815260408083208054600101905584835261013090915280822080546001600160a01b0319168417905551839291907fddf252ad1be2c89b69c2b068fc378daa952ba7f163c4a11628f55a4df523b3ef908290a4610d89565b6000816101628481548110616dde57616dde617e24565b60009182526020909120600e601790920201015550600192915050565b60006001600160a01b0384163b15616ef157604051630a85bd0160e11b81526001600160a01b0385169063150b7a0290616e3f903390899088908890600401618464565b6020604051808303816000875af1925050508015616e7a575060408051601f3d908101601f19168201909252616e77918101906184a1565b60015b616ed7573d808015616ea8576040519150601f19603f3d011682016040523d82523d6000602084013e616ead565b606091505b508051600003616ecf5760405162461bcd60e51b8152600401610ebe90618363565b805181602001fd5b6001600160e01b031916630a85bd0160e11b1490506155ad565b5060016155ad565b600054610100900460ff16616f205760405162461bcd60e51b8152600401610ebe906183b5565b613f0433616708565b60008072184f03e93ff9f4daa797ed6e38ed64bf6a1f0160401b8310616f685772184f03e93ff9f4daa797ed6e38ed64bf6a1f0160401b830492506040015b6d04ee2d6d415b85acef81000000008310616f94576d04ee2d6d415b85acef8100000000830492506020015b662386f26fc100008310616fb257662386f26fc10000830492506010015b6305f5e1008310616fca576305f5e100830492506008015b6127108310616fde57612710830492506004015b60648310616ff0576064830492506002015b600a8310610d895760010192915050565b60606155ad848460008561728d565b6001600160a01b0382166000908152610135602090815260408083208054825181850281018501909352808352919290919083018282801561707157602002820191906000526020600020905b81548152602001906001019080831161705d575b505083519394506000925050505b81811015611a54578383828151811061709a5761709a617e24565b60200260200101510361715257826170b3600184617ec0565b815181106170c3576170c3617e24565b60200260200101518382815181106170dd576170dd617e24565b6020908102919091018101919091526001600160a01b038616600090815261013582526040902084516171129286019061754b565b506001600160a01b03851660009081526101356020526040902080548061713b5761713b617ed3565b600190038181906000526020600020016000905590555b61715b81617ee9565b905061707f565b61716b81616b50565b6040516001600160a01b038216907fbc7cd75a20ee27fd9adebab32041f755214dbc6bffa90cc0225b39da2e5c2d3b90600090a250565b60606001600160a01b0383163b61720a5760405162461bcd60e51b815260206004820152602660248201527f416464726573733a2064656c65676174652063616c6c20746f206e6f6e2d636f6044820152651b9d1c9858dd60d21b6064820152608401610ebe565b600080846001600160a01b031684604051617225919061806f565b600060405180830381855af49150503d8060008114617260576040519150601f19603f3d011682016040523d82523d6000602084013e617265565b606091505b5091509150612e8682826040518060600160405280602781526020016184ff60279139617368565b6060824710156172ee5760405162461bcd60e51b815260206004820152602660248201527f416464726573733a20696e73756666696369656e742062616c616e636520666f6044820152651c8818d85b1b60d21b6064820152608401610ebe565b600080866001600160a01b0316858760405161730a919061806f565b60006040518083038185875af1925050503d8060008114617347576040519150601f19603f3d011682016040523d82523d6000602084013e61734c565b606091505b509150915061735d87838387617381565b979650505050505050565b606083156173775750816116d9565b6116d983836173f6565b606083156173f05782516000036173e9576001600160a01b0385163b6173e95760405162461bcd60e51b815260206004820152601d60248201527f416464726573733a2063616c6c20746f206e6f6e2d636f6e74726163740000006044820152606401610ebe565b50816155ad565b6155ad83835b8151156174065781518083602001fd5b8060405162461bcd60e51b8152600401610ebe91906176df565b6040805161020081019091526000610100820181815261012083018290526101408301829052610160830182905260606101808401526101a083018290526101c083018290526101e083019190915281908152602001617493604051806040016040528060008152602001600081525090565b81526020016174b5604051806040016040528060008152602001600081525090565b81526020016174e760405180608001604052806000815260200160008152602001600081526020016000151581525090565b81526020016175176040518060800160405280600081526020016000815260200160008152602001606081525090565b8152604080516060810182526000808252602082810182905292820152910190815260006020820181905260409091015290565b828054828255906000526020600020908101928215617586579160200282015b8281111561758657825182559160200191906001019061756b565b506175929291506175f9565b5090565b5080546000825590600052602060002090810190611f8b91906175f9565b60405180610100016040528060008152602001600081526020016000815260200160008152602001600081526020016000815260200160008152602001600081525090565b5b8082111561759257600081556001016175fa565b6001600160a01b0381168114611f8b57600080fd5b6000806040838503121561763657600080fd5b82356176418161760e565b915060208301356176518161760e565b809150509250929050565b6001600160e01b031981168114611f8b57600080fd5b60006020828403121561768457600080fd5b81356116d98161765c565b60005b838110156176aa578181015183820152602001617692565b50506000910152565b600081518084526176cb81602086016020860161768f565b601f01601f19169290920160200192915050565b6020815260006116d960208301846176b3565b6000806040838503121561770557600080fd5b50508035926020909101359150565b60006020828403121561772657600080fd5b5035919050565b6000806040838503121561774057600080fd5b823561774b8161760e565b946020939093013593505050565b60006080830182518452602080840151818601526040840151604086015260608401516080606087015282815180855260a0880191508383019450600092505b808310156177b95784518252938301936001929092019190830190617799565b509695505050505050565b6101e080825289516001600160a01b039081169183019190915260208a015160ff1661020083015260408a015161ffff1661022083015260608a01511661024082015260808901516101006102608301526000906178266102e08401826176b3565b905060a08b015161028084015260c08b01516102a084015260e08b01516102c0840152617860602084018b80518252602090810151910152565b8851606084015260208901516080840152875160a0840152602088015160c0840152604088015160e0840152606088015115156101008401528281036101208401526178ac8188617759565b86516001600160a01b03166101408501526020870151610160850152604087015161018085015291506178dc9050565b836101a08301526178f26101c083018415159052565b9998505050505050505050565b60008060006060848603121561791457600080fd5b833561791f8161760e565b9250602084013561792f8161760e565b929592945050506040919091013590565b8015158114611f8b57600080fd5b60008060006060848603121561796357600080fd5b833561796e8161760e565b9250602084013561792f81617940565b803561ffff8116811461104657600080fd5b634e487b7160e01b600052604160045260246000fd5b600082601f8301126179b757600080fd5b813567ffffffffffffffff808211156179d2576179d2617990565b604051601f8301601f19908116603f011681019082821181831017156179fa576179fa617990565b81604052838152866020858801011115617a1357600080fd5b836020870160208301376000602085830101528094505050505092915050565b600080600080600060a08688031215617a4b57600080fd5b8535945060208601359350617a626040870161797e565b925060608601359150608086013567ffffffffffffffff811115617a8557600080fd5b617a91888289016179a6565b9150509295509295909350565b60008060008060008060c08789031215617ab757600080fd5b8635617ac28161760e565b95506020870135617ad28161760e565b9450604087013567ffffffffffffffff811115617aee57600080fd5b617afa89828a016179a6565b9450506060870135617b0b8161760e565b9598949750929560808101359460a0909101359350915050565b600060208284031215617b3757600080fd5b81356116d98161760e565b60008060408385031215617b5557600080fd5b8235617b608161760e565b9150602083013567ffffffffffffffff811115617b7c57600080fd5b617b88858286016179a6565b9150509250929050565b600080600060608486031215617ba757600080fd5b505081359360208301359350604090920135919050565b60008060408385031215617bd157600080fd5b8235915060208301356176518161760e565b60008060408385031215617bf657600080fd5b82359150602083013561765181617940565b60008060408385031215617c1b57600080fd5b8235617c268161760e565b9150602083013561765181617940565b600080600060608486031215617c4b57600080fd5b8335925060208401359150604084013567ffffffffffffffff811115617c7057600080fd5b617c7c868287016179a6565b9150509250925092565b60008060008060808587031215617c9c57600080fd5b8435617ca78161760e565b93506020850135617cb78161760e565b925060408501359150606085013567ffffffffffffffff811115617cda57600080fd5b617ce6878288016179a6565b91505092959194509250565b60008060008060808587031215617d0857600080fd5b843593506020850135617d1a8161760e565b9250617d286040860161797e565b9150617d366060860161797e565b905092959194509250565b602080825282518282018190526000919060409081850190868401855b82811015615ff05781518051855286810151878601528581015186860152606080820151908601526080808201519086015260a0808201519086015260c0808201519086015260e090810151908501526101009093019290850190600101617d5e565b600181811c90821680617dd557607f821691505b602082108103617df557634e487b7160e01b600052602260045260246000fd5b50919050565b634e487b7160e01b600052601160045260246000fd5b80820180821115610d8957610d89617dfb565b634e487b7160e01b600052603260045260246000fd5b600080600060608486031215617e4f57600080fd5b83519250602084015191506040840151617e688161760e565b809150509250925092565b6020808252602d908201527f4552433732313a2063616c6c6572206973206e6f7420746f6b656e206f776e6560408201526c1c881bdc88185c1c1c9bdd9959609a1b606082015260800190565b81810381811115610d8957610d89617dfb565b634e487b7160e01b600052603160045260246000fd5b600060018201617efb57617efb617dfb565b5060010190565b600181815b80851115617f3d578160001904821115617f2357617f23617dfb565b80851615617f3057918102915b93841c9390800290617f07565b509250929050565b600082617f5457506001610d89565b81617f6157506000610d89565b8160018114617f775760028114617f8157617f9d565b6001915050610d89565b60ff841115617f9257617f92617dfb565b50506001821b610d89565b5060208310610133831016604e8410600b8410161715617fc0575081810a610d89565b617fca8383617f02565b8060001904821115617fde57617fde617dfb565b029392505050565b60006116d960ff841683617f45565b8082028115828204841417610d8957610d89617dfb565b6020808252600e908201526d139bdd08185d5d1a1bdc9a5e995960921b604082015260600190565b60008261805157634e487b7160e01b600052601260045260246000fd5b500490565b60006020828403121561806857600080fd5b5051919050565b6000825161808181846020870161768f565b9190910192915050565b60006020828403121561809d57600080fd5b815160ff811681146116d957600080fd5b601f821115610f5f57600081815260208120601f850160051c810160208610156180d55750805b601f850160051c820191505b818110156180f4578281556001016180e1565b505050505050565b815167ffffffffffffffff81111561811657618116617990565b61812a816181248454617dc1565b846180ae565b602080601f83116001811461815f57600084156181475750858301515b600019600386901b1c1916600185901b1785556180f4565b600085815260208120601f198616915b8281101561818e5788860151825594840194600190910190840161816f565b50858210156181ac5787850151600019600388901b60f8161c191681555b5050505050600190811b01905550565b6020808252602c908201527f46756e6374696f6e206d7573742062652063616c6c6564207468726f7567682060408201526b19195b1959d85d1958d85b1b60a21b606082015260800190565b6020808252602c908201527f46756e6374696f6e206d7573742062652063616c6c6564207468726f7567682060408201526b6163746976652070726f787960a01b606082015260800190565b60208082526029908201527f54696d656c6f636b206e6f7420736574206f72206e6f7420636f6d706c6574656040820152686420696e2074696d6560b81b606082015260800190565b600083516182af81846020880161768f565b8351908301906182c381836020880161768f565b01949350505050565b60208082526025908201527f4552433732313a207472616e736665722066726f6d20696e636f72726563742060408201526437bbb732b960d91b606082015260800190565b6000806040838503121561832457600080fd5b505080516020909101519092909150565b60008060006060848603121561834a57600080fd5b8351925060208401519150604084015190509250925092565b60208082526032908201527f4552433732313a207472616e7366657220746f206e6f6e20455243373231526560408201527131b2b4bb32b91034b6b83632b6b2b73a32b960711b606082015260800190565b6020808252602b908201527f496e697469616c697a61626c653a20636f6e7472616374206973206e6f74206960408201526a6e697469616c697a696e6760a81b606082015260800190565b60006020828403121561841257600080fd5b81516116d981617940565b60408152600061843060408301856176b3565b905060018060a01b03831660208301529392505050565b60006020828403121561845957600080fd5b81516116d98161760e565b6001600160a01b0385811682528416602082015260408101839052608060608201819052600090618497908301846176b3565b9695505050505050565b6000602082840312156184b357600080fd5b81516116d98161765c56fea3ea4fb8dee4d414198cb197af6eae4fe483c1a0b849dc50e53b9bf1a60e2166360894a13ba1a3210667c828492db98dca3e2076cc3735a920a3ca505d382bbc416464726573733a206c6f772d6c6576656c2064656c65676174652063616c6c206661696c6564a26469706673582212200be2c58d4e6468ddf7d76e378af01a48f977ba931db9174a25db62410a97e1d764736f6c63430008110033496e697469616c697a61626c653a20636f6e7472616374206973206e6f742069",
    "linkReferences": {
      "src/SaloonLib.sol": {
        "SaloonLib": [
          {
            "start": 5959,
            "length": 20
          },
          {
            "start": 7591,
            "length": 20
          },
          {
            "start": 12892,
            "length": 20
          },
          {
            "start": 13694,
            "length": 20
          },
          {
            "start": 19613,
            "length": 20
          },
          {
            "start": 23933,
            "length": 20
          },
          {
            "start": 25083,
            "length": 20
          },
          {
            "start": 26664,
            "length": 20
          }
        ]
      }
    }
  },
  "methodIdentifiers": {
    "acceptOwnershipTransfer()": "b842e87f",
    "activeStrategies(uint256)": "b20b2429",
    "activeTokens(uint256)": "9f224f35",
    "addNewBountyPool(address,address,string,address,uint256,uint256)": "32fce602",
    "approve(address,uint256)": "095ea7b3",
    "balanceOf(address)": "70a08231",
    "billPremium(uint256)": "2dbe051e",
    "calcRequiredPremiumBalancePerPeriod(uint256,uint256)": "836ef1fa",
    "calculateEffectiveAPY(uint256,uint256,uint256)": "81c6f1a7",
    "claimPremium(uint256)": "f47ec3be",
    "collectAllReferralProfits()": "3e8888d9",
    "collectAllSaloonProfits(address)": "ecd7fbed",
    "collectReferralProfit(address)": "a089a520",
    "collectSaloonProfits(address,address)": "cf9564b9",
    "compoundYieldForAll()": "f68ce499",
    "compoundYieldForPid(uint256)": "e78ea3df",
    "consolidate(uint256)": "949a4a4a",
    "consolidateAll()": "75bfd63d",
    "extendReferralPeriod(uint256,uint256)": "5de406dc",
    "getAllTokensByOwner(address)": "e9fda7d4",
    "getApproved(uint256)": "081812fc",
    "getCurrentAPY(uint256)": "7fbf3853",
    "index()": "2986c0e5",
    "initialize(address)": "c4d66de8",
    "isApprovedForAll(address,address)": "e985e9c5",
    "makeProjectDeposit(uint256,uint256,string)": "ae07f948",
    "minTokenStakeAmount(address)": "39458723",
    "name()": "06fdde03",
    "nftInfo(uint256)": "1f8bc790",
    "owner()": "8da5cb5b",
    "ownerOf(uint256)": "6352211e",
    "payBounty(uint256,address,uint16,uint16)": "d075afac",
    "pidNFTList(uint256,uint256)": "96ea48e8",
    "pidStrategies(uint256,bytes32)": "074ecf03",
    "poolInfo(uint256)": "1526fe27",
    "projectDepositWithdrawal(uint256,uint256)": "983c1ce0",
    "proxiableUUID()": "52d1902d",
    "receiveStrategyYield(address,uint256)": "1aebcecb",
    "referralBalances(address,address)": "011b408b",
    "safeTransferFrom(address,address,uint256)": "42842e0e",
    "safeTransferFrom(address,address,uint256,bytes)": "b88d4fde",
    "saloonBountyProfit(address)": "e45abd0f",
    "saloonPremiumProfit(address)": "ca006148",
    "saloonStrategyProfit(address)": "598d17bf",
    "scheduleProjectDepositWithdrawal(uint256,uint256)": "5669cbef",
    "scheduleUnstake(uint256)": "106d08df",
    "setAPYandPoolCapAndDeposit(uint256,uint256,uint16,uint256,string)": "30ca0794",
    "setApprovalForAll(address,bool)": "a22cb465",
    "stake(uint256,uint256)": "7b0472f0",
    "strategyAddressToPid(address)": "957deecc",
    "supportsInterface(bytes4)": "01ffc9a7",
    "symbol()": "95d89b41",
    "tokenURI(uint256)": "c87b56dd",
    "tokenWhitelist(address)": "753d7563",
    "transferFrom(address,address,uint256)": "23b872dd",
    "transferOwnership(address)": "f2fde38b",
    "unstake(uint256,bool)": "9ebea88c",
    "updateProjectWalletAddress(uint256,address)": "995974c4",
    "updateStrategyFactoryAddress(address)": "3538fda0",
    "updateTokenWhitelist(address,bool,uint256)": "2cb0dfcc",
    "upgradeTo(address)": "3659cfe6",
    "upgradeToAndCall(address,bytes)": "4f1ef286",
    "viewBountyBalance(uint256)": "6ac6d812",
    "windDownBounty(uint256)": "bb7019c1",
    "withdrawProjectYield(uint256)": "db53e8b5"
  },
  "id": 43
}