{
  "abi": [
    {
      "anonymous": false,
      "inputs": [
        {
          "indexed": false,
          "internalType": "address",
          "name": "previousAdmin",
          "type": "address"
        },
        {
          "indexed": false,
          "internalType": "address",
          "name": "newAdmin",
          "type": "address"
        }
      ],
      "name": "AdminChanged",
      "type": "event"
    },
    {
      "anonymous": false,
      "inputs": [
        {
          "indexed": true,
          "internalType": "address",
          "name": "owner",
          "type": "address"
        },
        {
          "indexed": true,
          "internalType": "address",
          "name": "spender",
          "type": "address"
        },
        {
          "indexed": false,
          "internalType": "uint256",
          "name": "value",
          "type": "uint256"
        }
      ],
      "name": "Approval",
      "type": "event"
    },
    {
      "anonymous": false,
      "inputs": [
        {
          "indexed": true,
          "internalType": "address",
          "name": "beacon",
          "type": "address"
        }
      ],
      "name": "BeaconUpgraded",
      "type": "event"
    },
    {
      "anonymous": false,
      "inputs": [
        {
          "indexed": true,
          "internalType": "uint256",
          "name": "pid",
          "type": "uint256"
        },
        {
          "indexed": true,
          "internalType": "uint256",
          "name": "oldAmount",
          "type": "uint256"
        },
        {
          "indexed": true,
          "internalType": "uint256",
          "name": "newAmount",
          "type": "uint256"
        }
      ],
      "name": "BountyBalanceChanged",
      "type": "event"
    },
    {
      "anonymous": false,
      "inputs": [
        {
          "indexed": true,
          "internalType": "uint256",
          "name": "time",
          "type": "uint256"
        },
        {
          "indexed": true,
          "internalType": "address",
          "name": "hunter",
          "type": "address"
        },
        {
          "indexed": true,
          "internalType": "address",
          "name": "token",
          "type": "address"
        },
        {
          "indexed": false,
          "internalType": "uint256",
          "name": "amount",
          "type": "uint256"
        }
      ],
      "name": "BountyPaid",
      "type": "event"
    },
    {
      "anonymous": false,
      "inputs": [
        {
          "indexed": false,
          "internalType": "uint8",
          "name": "version",
          "type": "uint8"
        }
      ],
      "name": "Initialized",
      "type": "event"
    },
    {
      "anonymous": false,
      "inputs": [
        {
          "indexed": true,
          "internalType": "uint256",
          "name": "pid",
          "type": "uint256"
        },
        {
          "indexed": true,
          "internalType": "address",
          "name": "token",
          "type": "address"
        },
        {
          "indexed": true,
          "internalType": "uint256",
          "name": "tokenDecimals",
          "type": "uint256"
        }
      ],
      "name": "NewBountyDeployed",
      "type": "event"
    },
    {
      "anonymous": false,
      "inputs": [
        {
          "indexed": true,
          "internalType": "address",
          "name": "previousOwner",
          "type": "address"
        },
        {
          "indexed": true,
          "internalType": "address",
          "name": "newOwner",
          "type": "address"
        }
      ],
      "name": "OwnershipTransferred",
      "type": "event"
    },
    {
      "anonymous": false,
      "inputs": [
        {
          "indexed": true,
          "internalType": "uint256",
          "name": "pid",
          "type": "uint256"
        },
        {
          "indexed": true,
          "internalType": "uint256",
          "name": "amount",
          "type": "uint256"
        }
      ],
      "name": "PremiumBilled",
      "type": "event"
    },
    {
      "anonymous": false,
      "inputs": [
        {
          "indexed": true,
          "internalType": "address",
          "name": "user",
          "type": "address"
        },
        {
          "indexed": true,
          "internalType": "uint256",
          "name": "pid",
          "type": "uint256"
        },
        {
          "indexed": false,
          "internalType": "uint256",
          "name": "amount",
          "type": "uint256"
        }
      ],
      "name": "Staked",
      "type": "event"
    },
    {
      "anonymous": false,
      "inputs": [
        {
          "indexed": true,
          "internalType": "address",
          "name": "from",
          "type": "address"
        },
        {
          "indexed": true,
          "internalType": "address",
          "name": "to",
          "type": "address"
        },
        {
          "indexed": false,
          "internalType": "uint256",
          "name": "value",
          "type": "uint256"
        }
      ],
      "name": "Transfer",
      "type": "event"
    },
    {
      "anonymous": false,
      "inputs": [
        {
          "indexed": true,
          "internalType": "address",
          "name": "user",
          "type": "address"
        },
        {
          "indexed": true,
          "internalType": "uint256",
          "name": "pid",
          "type": "uint256"
        },
        {
          "indexed": false,
          "internalType": "uint256",
          "name": "amount",
          "type": "uint256"
        }
      ],
      "name": "Unstaked",
      "type": "event"
    },
    {
      "anonymous": false,
      "inputs": [
        {
          "indexed": true,
          "internalType": "address",
          "name": "implementation",
          "type": "address"
        }
      ],
      "name": "Upgraded",
      "type": "event"
    },
    {
      "anonymous": false,
      "inputs": [
        {
          "indexed": true,
          "internalType": "uint256",
          "name": "pid",
          "type": "uint256"
        },
        {
          "indexed": true,
          "internalType": "uint256",
          "name": "amount",
          "type": "uint256"
        }
      ],
      "name": "WithdrawalOrUnstakeScheduled",
      "type": "event"
    },
    {
      "anonymous": false,
      "inputs": [
        {
          "indexed": true,
          "internalType": "address",
          "name": "token",
          "type": "address"
        },
        {
          "indexed": true,
          "internalType": "bool",
          "name": "whitelisted",
          "type": "bool"
        }
      ],
      "name": "tokenWhitelistUpdated",
      "type": "event"
    },
    {
      "inputs": [],
      "name": "acceptOwnershipTransfer",
      "outputs": [],
      "stateMutability": "nonpayable",
      "type": "function"
    },
    {
      "inputs": [
        {
          "internalType": "uint256",
          "name": "",
          "type": "uint256"
        }
      ],
      "name": "activeTokens",
      "outputs": [
        {
          "internalType": "address",
          "name": "",
          "type": "address"
        }
      ],
      "stateMutability": "view",
      "type": "function"
    },
    {
      "inputs": [
        {
          "internalType": "address",
          "name": "_token",
          "type": "address"
        },
        {
          "internalType": "address",
          "name": "_projectWallet",
          "type": "address"
        },
        {
          "internalType": "string",
          "name": "_projectName",
          "type": "string"
        }
      ],
      "name": "addNewBountyPool",
      "outputs": [
        {
          "internalType": "uint256",
          "name": "",
          "type": "uint256"
        }
      ],
      "stateMutability": "nonpayable",
      "type": "function"
    },
    {
      "inputs": [
        {
          "internalType": "address",
          "name": "owner",
          "type": "address"
        },
        {
          "internalType": "address",
          "name": "spender",
          "type": "address"
        }
      ],
      "name": "allowance",
      "outputs": [
        {
          "internalType": "uint256",
          "name": "",
          "type": "uint256"
        }
      ],
      "stateMutability": "view",
      "type": "function"
    },
    {
      "inputs": [
        {
          "internalType": "address",
          "name": "spender",
          "type": "address"
        },
        {
          "internalType": "uint256",
          "name": "amount",
          "type": "uint256"
        }
      ],
      "name": "approve",
      "outputs": [
        {
          "internalType": "bool",
          "name": "",
          "type": "bool"
        }
      ],
      "stateMutability": "nonpayable",
      "type": "function"
    },
    {
      "inputs": [
        {
          "internalType": "address",
          "name": "account",
          "type": "address"
        }
      ],
      "name": "balanceOf",
      "outputs": [
        {
          "internalType": "uint256",
          "name": "",
          "type": "uint256"
        }
      ],
      "stateMutability": "view",
      "type": "function"
    },
    {
      "inputs": [
        {
          "internalType": "uint256",
          "name": "_pid",
          "type": "uint256"
        }
      ],
      "name": "billPremium",
      "outputs": [
        {
          "internalType": "bool",
          "name": "",
          "type": "bool"
        }
      ],
      "stateMutability": "nonpayable",
      "type": "function"
    },
    {
      "inputs": [
        {
          "internalType": "uint256",
          "name": "_pid",
          "type": "uint256"
        }
      ],
      "name": "claimPremium",
      "outputs": [],
      "stateMutability": "nonpayable",
      "type": "function"
    },
    {
      "inputs": [
        {
          "internalType": "address",
          "name": "_saloonWallet",
          "type": "address"
        }
      ],
      "name": "collectAllSaloonProfits",
      "outputs": [
        {
          "internalType": "bool",
          "name": "",
          "type": "bool"
        }
      ],
      "stateMutability": "nonpayable",
      "type": "function"
    },
    {
      "inputs": [
        {
          "internalType": "address",
          "name": "_token",
          "type": "address"
        },
        {
          "internalType": "address",
          "name": "_saloonWallet",
          "type": "address"
        }
      ],
      "name": "collectSaloonProfits",
      "outputs": [
        {
          "internalType": "bool",
          "name": "",
          "type": "bool"
        }
      ],
      "stateMutability": "nonpayable",
      "type": "function"
    },
    {
      "inputs": [
        {
          "internalType": "uint256",
          "name": "_stake",
          "type": "uint256"
        },
        {
          "internalType": "uint256",
          "name": "_poolID",
          "type": "uint256"
        }
      ],
      "name": "convertStakeToPoolMeasurements",
      "outputs": [
        {
          "internalType": "uint256",
          "name": "x",
          "type": "uint256"
        },
        {
          "internalType": "uint256",
          "name": "poolPercentage",
          "type": "uint256"
        }
      ],
      "stateMutability": "nonpayable",
      "type": "function"
    },
    {
      "inputs": [],
      "name": "decimals",
      "outputs": [
        {
          "internalType": "uint8",
          "name": "",
          "type": "uint8"
        }
      ],
      "stateMutability": "view",
      "type": "function"
    },
    {
      "inputs": [
        {
          "internalType": "address",
          "name": "spender",
          "type": "address"
        },
        {
          "internalType": "uint256",
          "name": "subtractedValue",
          "type": "uint256"
        }
      ],
      "name": "decreaseAllowance",
      "outputs": [
        {
          "internalType": "bool",
          "name": "",
          "type": "bool"
        }
      ],
      "stateMutability": "nonpayable",
      "type": "function"
    },
    {
      "inputs": [],
      "name": "getCurrentAPY",
      "outputs": [
        {
          "internalType": "uint256",
          "name": "result",
          "type": "uint256"
        }
      ],
      "stateMutability": "nonpayable",
      "type": "function"
    },
    {
      "inputs": [
        {
          "internalType": "uint256",
          "name": "_from",
          "type": "uint256"
        },
        {
          "internalType": "uint256",
          "name": "_to",
          "type": "uint256"
        }
      ],
      "name": "getMultiplier",
      "outputs": [
        {
          "internalType": "uint256",
          "name": "",
          "type": "uint256"
        }
      ],
      "stateMutability": "pure",
      "type": "function"
    },
    {
      "inputs": [
        {
          "internalType": "address",
          "name": "spender",
          "type": "address"
        },
        {
          "internalType": "uint256",
          "name": "addedValue",
          "type": "uint256"
        }
      ],
      "name": "increaseAllowance",
      "outputs": [
        {
          "internalType": "bool",
          "name": "",
          "type": "bool"
        }
      ],
      "stateMutability": "nonpayable",
      "type": "function"
    },
    {
      "inputs": [],
      "name": "initialize",
      "outputs": [],
      "stateMutability": "nonpayable",
      "type": "function"
    },
    {
      "inputs": [
        {
          "internalType": "uint256",
          "name": "_pid",
          "type": "uint256"
        },
        {
          "internalType": "uint256",
          "name": "_deposit",
          "type": "uint256"
        }
      ],
      "name": "makeProjectDeposit",
      "outputs": [],
      "stateMutability": "nonpayable",
      "type": "function"
    },
    {
      "inputs": [],
      "name": "name",
      "outputs": [
        {
          "internalType": "string",
          "name": "",
          "type": "string"
        }
      ],
      "stateMutability": "view",
      "type": "function"
    },
    {
      "inputs": [],
      "name": "owner",
      "outputs": [
        {
          "internalType": "address",
          "name": "",
          "type": "address"
        }
      ],
      "stateMutability": "view",
      "type": "function"
    },
    {
      "inputs": [
        {
          "internalType": "uint256",
          "name": "_pid",
          "type": "uint256"
        },
        {
          "internalType": "address",
          "name": "_hunter",
          "type": "address"
        },
        {
          "internalType": "uint256",
          "name": "_amount",
          "type": "uint256"
        }
      ],
      "name": "payBounty",
      "outputs": [
        {
          "internalType": "bool",
          "name": "",
          "type": "bool"
        }
      ],
      "stateMutability": "nonpayable",
      "type": "function"
    },
    {
      "inputs": [
        {
          "internalType": "uint256",
          "name": "_pid",
          "type": "uint256"
        },
        {
          "internalType": "address",
          "name": "_user",
          "type": "address"
        }
      ],
      "name": "pendingToken",
      "outputs": [
        {
          "internalType": "uint256",
          "name": "totalPending",
          "type": "uint256"
        },
        {
          "internalType": "uint256",
          "name": "actualPending",
          "type": "uint256"
        },
        {
          "internalType": "uint256",
          "name": "newPending",
          "type": "uint256"
        }
      ],
      "stateMutability": "view",
      "type": "function"
    },
    {
      "inputs": [
        {
          "internalType": "uint256",
          "name": "",
          "type": "uint256"
        }
      ],
      "name": "poolInfo",
      "outputs": [
        {
          "components": [
            {
              "internalType": "contract IERC20",
              "name": "token",
              "type": "address"
            },
            {
              "internalType": "uint8",
              "name": "tokenDecimals",
              "type": "uint8"
            },
            {
              "internalType": "uint16",
              "name": "apy",
              "type": "uint16"
            },
            {
              "internalType": "address",
              "name": "projectWallet",
              "type": "address"
            },
            {
              "internalType": "string",
              "name": "projectName",
              "type": "string"
            },
            {
              "internalType": "uint256",
              "name": "projectDeposit",
              "type": "uint256"
            },
            {
              "internalType": "uint256",
              "name": "poolCap",
              "type": "uint256"
            },
            {
              "internalType": "uint256",
              "name": "totalStaked",
              "type": "uint256"
            },
            {
              "internalType": "uint256",
              "name": "multiplier",
              "type": "uint256"
            }
          ],
          "internalType": "struct ISaloon.GeneralInfo",
          "name": "generalInfo",
          "type": "tuple"
        },
        {
          "components": [
            {
              "internalType": "uint256",
              "name": "requiredPremiumBalancePerPeriod",
              "type": "uint256"
            },
            {
              "internalType": "uint256",
              "name": "premiumBalance",
              "type": "uint256"
            },
            {
              "internalType": "uint256",
              "name": "premiumAvailable",
              "type": "uint256"
            }
          ],
          "internalType": "struct ISaloon.PremiumInfo",
          "name": "premiumInfo",
          "type": "tuple"
        },
        {
          "components": [
            {
              "internalType": "uint256",
              "name": "timelock",
              "type": "uint256"
            },
            {
              "internalType": "uint256",
              "name": "timeLimit",
              "type": "uint256"
            },
            {
              "internalType": "uint256",
              "name": "withdrawalScheduledAmount",
              "type": "uint256"
            },
            {
              "internalType": "bool",
              "name": "withdrawalExecuted",
              "type": "bool"
            }
          ],
          "internalType": "struct ISaloon.TimelockInfo",
          "name": "poolTimelock",
          "type": "tuple"
        },
        {
          "internalType": "bool",
          "name": "isActive",
          "type": "bool"
        },
        {
          "internalType": "uint256",
          "name": "freezeTime",
          "type": "uint256"
        }
      ],
      "stateMutability": "view",
      "type": "function"
    },
    {
      "inputs": [],
      "name": "poolLength",
      "outputs": [
        {
          "internalType": "uint256",
          "name": "",
          "type": "uint256"
        }
      ],
      "stateMutability": "view",
      "type": "function"
    },
    {
      "inputs": [
        {
          "internalType": "uint256",
          "name": "_pid",
          "type": "uint256"
        },
        {
          "internalType": "uint256",
          "name": "_amount",
          "type": "uint256"
        }
      ],
      "name": "projectDepositWithdrawal",
      "outputs": [
        {
          "internalType": "bool",
          "name": "",
          "type": "bool"
        }
      ],
      "stateMutability": "nonpayable",
      "type": "function"
    },
    {
      "inputs": [],
      "name": "proxiableUUID",
      "outputs": [
        {
          "internalType": "bytes32",
          "name": "",
          "type": "bytes32"
        }
      ],
      "stateMutability": "view",
      "type": "function"
    },
    {
      "inputs": [
        {
          "internalType": "address",
          "name": "",
          "type": "address"
        }
      ],
      "name": "saloonBountyProfit",
      "outputs": [
        {
          "internalType": "uint256",
          "name": "",
          "type": "uint256"
        }
      ],
      "stateMutability": "view",
      "type": "function"
    },
    {
      "inputs": [
        {
          "internalType": "address",
          "name": "",
          "type": "address"
        }
      ],
      "name": "saloonPremiumProfit",
      "outputs": [
        {
          "internalType": "uint256",
          "name": "",
          "type": "uint256"
        }
      ],
      "stateMutability": "view",
      "type": "function"
    },
    {
      "inputs": [
        {
          "internalType": "uint256",
          "name": "_pid",
          "type": "uint256"
        },
        {
          "internalType": "uint256",
          "name": "_amount",
          "type": "uint256"
        }
      ],
      "name": "scheduleProjectDepositWithdrawal",
      "outputs": [
        {
          "internalType": "bool",
          "name": "",
          "type": "bool"
        }
      ],
      "stateMutability": "nonpayable",
      "type": "function"
    },
    {
      "inputs": [
        {
          "internalType": "uint256",
          "name": "_pid",
          "type": "uint256"
        },
        {
          "internalType": "uint256",
          "name": "_amount",
          "type": "uint256"
        }
      ],
      "name": "scheduleUnstake",
      "outputs": [
        {
          "internalType": "bool",
          "name": "",
          "type": "bool"
        }
      ],
      "stateMutability": "nonpayable",
      "type": "function"
    },
    {
      "inputs": [],
      "name": "seeEffectiveStakingAPY",
      "outputs": [],
      "stateMutability": "nonpayable",
      "type": "function"
    },
    {
      "inputs": [
        {
          "internalType": "uint256",
          "name": "_pid",
          "type": "uint256"
        },
        {
          "internalType": "uint256",
          "name": "_poolCap",
          "type": "uint256"
        },
        {
          "internalType": "uint16",
          "name": "_apy",
          "type": "uint16"
        },
        {
          "internalType": "uint256",
          "name": "_deposit",
          "type": "uint256"
        }
      ],
      "name": "setAPYandPoolCapAndDeposit",
      "outputs": [],
      "stateMutability": "nonpayable",
      "type": "function"
    },
    {
      "inputs": [
        {
          "internalType": "uint256",
          "name": "_pid",
          "type": "uint256"
        },
        {
          "internalType": "address",
          "name": "_user",
          "type": "address"
        },
        {
          "internalType": "uint256",
          "name": "_amount",
          "type": "uint256"
        }
      ],
      "name": "stake",
      "outputs": [
        {
          "internalType": "bool",
          "name": "",
          "type": "bool"
        }
      ],
      "stateMutability": "nonpayable",
      "type": "function"
    },
    {
      "inputs": [],
      "name": "symbol",
      "outputs": [
        {
          "internalType": "string",
          "name": "",
          "type": "string"
        }
      ],
      "stateMutability": "view",
      "type": "function"
    },
    {
      "inputs": [
        {
          "internalType": "address",
          "name": "",
          "type": "address"
        }
      ],
      "name": "tokenWhitelist",
      "outputs": [
        {
          "internalType": "bool",
          "name": "",
          "type": "bool"
        }
      ],
      "stateMutability": "view",
      "type": "function"
    },
    {
      "inputs": [],
      "name": "totalSupply",
      "outputs": [
        {
          "internalType": "uint256",
          "name": "",
          "type": "uint256"
        }
      ],
      "stateMutability": "view",
      "type": "function"
    },
    {
      "inputs": [
        {
          "internalType": "address",
          "name": "to",
          "type": "address"
        },
        {
          "internalType": "uint256",
          "name": "amount",
          "type": "uint256"
        }
      ],
      "name": "transfer",
      "outputs": [
        {
          "internalType": "bool",
          "name": "",
          "type": "bool"
        }
      ],
      "stateMutability": "nonpayable",
      "type": "function"
    },
    {
      "inputs": [
        {
          "internalType": "address",
          "name": "from",
          "type": "address"
        },
        {
          "internalType": "address",
          "name": "to",
          "type": "address"
        },
        {
          "internalType": "uint256",
          "name": "amount",
          "type": "uint256"
        }
      ],
      "name": "transferFrom",
      "outputs": [
        {
          "internalType": "bool",
          "name": "",
          "type": "bool"
        }
      ],
      "stateMutability": "nonpayable",
      "type": "function"
    },
    {
      "inputs": [
        {
          "internalType": "address",
          "name": "newOwner",
          "type": "address"
        }
      ],
      "name": "transferOwnership",
      "outputs": [],
      "stateMutability": "nonpayable",
      "type": "function"
    },
    {
      "inputs": [
        {
          "internalType": "uint256",
          "name": "_pid",
          "type": "uint256"
        },
        {
          "internalType": "uint256",
          "name": "_amount",
          "type": "uint256"
        },
        {
          "internalType": "bool",
          "name": "_shouldHarvest",
          "type": "bool"
        }
      ],
      "name": "unstake",
      "outputs": [
        {
          "internalType": "bool",
          "name": "",
          "type": "bool"
        }
      ],
      "stateMutability": "nonpayable",
      "type": "function"
    },
    {
      "inputs": [
        {
          "internalType": "address",
          "name": "_token",
          "type": "address"
        },
        {
          "internalType": "bool",
          "name": "_whitelisted",
          "type": "bool"
        }
      ],
      "name": "updateTokenWhitelist",
      "outputs": [
        {
          "internalType": "bool",
          "name": "",
          "type": "bool"
        }
      ],
      "stateMutability": "nonpayable",
      "type": "function"
    },
    {
      "inputs": [
        {
          "internalType": "address",
          "name": "newImplementation",
          "type": "address"
        }
      ],
      "name": "upgradeTo",
      "outputs": [],
      "stateMutability": "nonpayable",
      "type": "function"
    },
    {
      "inputs": [
        {
          "internalType": "address",
          "name": "newImplementation",
          "type": "address"
        },
        {
          "internalType": "bytes",
          "name": "data",
          "type": "bytes"
        }
      ],
      "name": "upgradeToAndCall",
      "outputs": [],
      "stateMutability": "payable",
      "type": "function"
    },
    {
      "inputs": [
        {
          "internalType": "uint256",
          "name": "",
          "type": "uint256"
        },
        {
          "internalType": "address",
          "name": "",
          "type": "address"
        }
      ],
      "name": "userInfo",
      "outputs": [
        {
          "internalType": "uint256",
          "name": "amount",
          "type": "uint256"
        },
        {
          "internalType": "uint256",
          "name": "unclaimed",
          "type": "uint256"
        },
        {
          "internalType": "uint256",
          "name": "lastRewardTime",
          "type": "uint256"
        },
        {
          "internalType": "uint256",
          "name": "timelock",
          "type": "uint256"
        },
        {
          "internalType": "uint256",
          "name": "timeLimit",
          "type": "uint256"
        },
        {
          "internalType": "uint256",
          "name": "unstakeScheduledAmount",
          "type": "uint256"
        }
      ],
      "stateMutability": "view",
      "type": "function"
    },
    {
      "inputs": [
        {
          "internalType": "uint256",
          "name": "_pid",
          "type": "uint256"
        }
      ],
      "name": "viewBountyBalance",
      "outputs": [
        {
          "internalType": "uint256",
          "name": "",
          "type": "uint256"
        }
      ],
      "stateMutability": "view",
      "type": "function"
    },
    {
      "inputs": [
        {
          "internalType": "uint256",
          "name": "_pid",
          "type": "uint256"
        }
      ],
      "name": "viewBountyInfo",
      "outputs": [
        {
          "internalType": "uint256",
          "name": "payout",
          "type": "uint256"
        },
        {
          "internalType": "uint256",
          "name": "apy",
          "type": "uint256"
        },
        {
          "internalType": "uint256",
          "name": "staked",
          "type": "uint256"
        },
        {
          "internalType": "uint256",
          "name": "poolCap",
          "type": "uint256"
        }
      ],
      "stateMutability": "view",
      "type": "function"
    },
    {
      "inputs": [
        {
          "internalType": "uint256",
          "name": "_pid",
          "type": "uint256"
        }
      ],
      "name": "viewHackerPayout",
      "outputs": [
        {
          "internalType": "uint256",
          "name": "",
          "type": "uint256"
        }
      ],
      "stateMutability": "view",
      "type": "function"
    },
    {
      "inputs": [
        {
          "internalType": "uint256",
          "name": "_pid",
          "type": "uint256"
        }
      ],
      "name": "viewPoolAPY",
      "outputs": [
        {
          "internalType": "uint256",
          "name": "",
          "type": "uint256"
        }
      ],
      "stateMutability": "view",
      "type": "function"
    },
    {
      "inputs": [
        {
          "internalType": "uint256",
          "name": "_pid",
          "type": "uint256"
        }
      ],
      "name": "viewPoolCap",
      "outputs": [
        {
          "internalType": "uint256",
          "name": "",
          "type": "uint256"
        }
      ],
      "stateMutability": "view",
      "type": "function"
    },
    {
      "inputs": [
        {
          "internalType": "uint256",
          "name": "_pid",
          "type": "uint256"
        }
      ],
      "name": "viewPoolPremiumInfo",
      "outputs": [
        {
          "internalType": "uint256",
          "name": "requiredPremiumBalancePerPeriod",
          "type": "uint256"
        },
        {
          "internalType": "uint256",
          "name": "premiumBalance",
          "type": "uint256"
        },
        {
          "internalType": "uint256",
          "name": "premiumAvailable",
          "type": "uint256"
        }
      ],
      "stateMutability": "view",
      "type": "function"
    },
    {
      "inputs": [
        {
          "internalType": "uint256",
          "name": "_pid",
          "type": "uint256"
        }
      ],
      "name": "viewPoolTimelockInfo",
      "outputs": [
        {
          "internalType": "uint256",
          "name": "timelock",
          "type": "uint256"
        },
        {
          "internalType": "uint256",
          "name": "timeLimit",
          "type": "uint256"
        },
        {
          "internalType": "uint256",
          "name": "withdrawalScheduledAmount",
          "type": "uint256"
        }
      ],
      "stateMutability": "view",
      "type": "function"
    },
    {
      "inputs": [
        {
          "internalType": "address",
          "name": "_token",
          "type": "address"
        }
      ],
      "name": "viewSaloonProfitBalance",
      "outputs": [
        {
          "internalType": "uint256",
          "name": "totalProfit",
          "type": "uint256"
        },
        {
          "internalType": "uint256",
          "name": "bountyProfit",
          "type": "uint256"
        },
        {
          "internalType": "uint256",
          "name": "premiumProfit",
          "type": "uint256"
        }
      ],
      "stateMutability": "view",
      "type": "function"
    },
    {
      "inputs": [
        {
          "internalType": "uint256",
          "name": "_pid",
          "type": "uint256"
        }
      ],
      "name": "viewTotalStaked",
      "outputs": [
        {
          "internalType": "uint256",
          "name": "",
          "type": "uint256"
        }
      ],
      "stateMutability": "view",
      "type": "function"
    },
    {
      "inputs": [
        {
          "internalType": "uint256",
          "name": "_pid",
          "type": "uint256"
        },
        {
          "internalType": "address",
          "name": "_user",
          "type": "address"
        }
      ],
      "name": "viewUserInfo",
      "outputs": [
        {
          "internalType": "uint256",
          "name": "amount",
          "type": "uint256"
        },
        {
          "internalType": "uint256",
          "name": "actualPending",
          "type": "uint256"
        },
        {
          "internalType": "uint256",
          "name": "unstakeScheduledAmount",
          "type": "uint256"
        },
        {
          "internalType": "uint256",
          "name": "timelock",
          "type": "uint256"
        }
      ],
      "stateMutability": "view",
      "type": "function"
    },
    {
      "inputs": [
        {
          "internalType": "uint256",
          "name": "_pid",
          "type": "uint256"
        },
        {
          "internalType": "address",
          "name": "_user",
          "type": "address"
        }
      ],
      "name": "viewUserUnclaimed",
      "outputs": [
        {
          "internalType": "uint256",
          "name": "unclaimed",
          "type": "uint256"
        }
      ],
      "stateMutability": "view",
      "type": "function"
    },
    {
      "inputs": [
        {
          "internalType": "uint256",
          "name": "_pid",
          "type": "uint256"
        }
      ],
      "name": "windDownBounty",
      "outputs": [
        {
          "internalType": "bool",
          "name": "",
          "type": "bool"
        }
      ],
      "stateMutability": "nonpayable",
      "type": "function"
    }
  ],
  "bytecode": {
    "object": "0x60a0604052306080523480156200001557600080fd5b50600160ca55600054610100900460ff16158080156200003c5750600054600160ff909116105b806200006c575062000059306200019760201b62003f521760201c565b1580156200006c575060005460ff166001145b620000d55760405162461bcd60e51b815260206004820152602e60248201527f496e697469616c697a61626c653a20636f6e747261637420697320616c72656160448201526d191e481a5b9a5d1a585b1a5e995960921b60648201526084015b60405180910390fd5b6000805460ff191660011790558015620000f9576000805461ff0019166101001790555b620001496040518060400160405280600b81526020016a2137bab73a3caa37b5b2b760a91b8152506040518060400160405280600381526020016210951560ea1b815250620001a660201b60201c565b801562000190576000805461ff0019169055604051600181527f7f26b83ff96e1f2b6a682f133852f6798a09c465da95921460cefb38474024989060200160405180910390a15b5062000400565b6001600160a01b03163b151590565b600054610100900460ff16620002025760405162461bcd60e51b815260206004820152602b602482015260008051602062005d6983398151915260448201526a6e697469616c697a696e6760a81b6064820152608401620000cc565b6200020e828262000212565b5050565b600054610100900460ff166200026e5760405162461bcd60e51b815260206004820152602b602482015260008051602062005d6983398151915260448201526a6e697469616c697a696e6760a81b6064820152608401620000cc565b60ce6200027c838262000334565b5060cf6200028b828262000334565b505050565b634e487b7160e01b600052604160045260246000fd5b600181811c90821680620002bb57607f821691505b602082108103620002dc57634e487b7160e01b600052602260045260246000fd5b50919050565b601f8211156200028b57600081815260208120601f850160051c810160208610156200030b5750805b601f850160051c820191505b818110156200032c5782815560010162000317565b505050505050565b81516001600160401b0381111562000350576200035062000290565b6200036881620003618454620002a6565b84620002e2565b602080601f831160018114620003a05760008415620003875750858301515b600019600386901b1c1916600185901b1785556200032c565b600085815260208120601f198616915b82811015620003d157888601518255948401946001909101908401620003b0565b5085821015620003f05787850151600019600388901b60f8161c191681555b5050505050600190811b01905550565b6080516159316200043860003960008181610e0a01528181610e53015281816117100152818161175001526117e301526159316000f3fe60806040526004361061036b5760003560e01c80638da5cb5b116101c6578063b842e87f116100f7578063de1b75ec11610095578063ecd7fbed1161006f578063ecd7fbed14610afc578063f2fde38b14610b1c578063f47ec3be14610b3c578063fceb3d7614610b5c57600080fd5b8063de1b75ec14610a7a578063e45abd0f14610aaf578063e5e97c6514610adc57600080fd5b8063cee6b069116100d1578063cee6b069146109fa578063cf9564b914610a1a578063dbdd695714610a3a578063dd62ed3e14610a5a57600080fd5b8063b842e87f14610998578063bb7019c1146109ad578063ca006148146109cd57600080fd5b80639f224f3511610164578063a754ecb01161013e578063a754ecb014610918578063a9059cbb14610938578063ac30b85614610958578063b1a2d16f1461097857600080fd5b80639f224f35146108b8578063a27f9213146108d8578063a457c2d7146108f857600080fd5b806393f1a40b116101a057806393f1a40b146107e557806395d89b411461086e578063962ca49614610883578063983c1ce01461089857600080fd5b80638da5cb5b146107735780638dbb1e3a146107a557806391635b4e146107c557600080fd5b80634f1ef286116102a057806370a082311161023e57806379b91d691161021857806379b91d69146106fe578063804fd5901461071e5780638129fc1c1461073e578063861e5f661461075357600080fd5b806370a0823114610677578063718c7eef146106ad578063753d7563146106cd57600080fd5b806357a86d3a1161027a57806357a86d3a146105d15780635e3b748b146105f15780636ac6d812146106375780636e9c931c1461065757600080fd5b80634f1ef2861461058957806352d1902d1461059c5780635669cbef146105b157600080fd5b8063313ce5671161030d57806339679ff4116102e757806339679ff4146104ce5780633ac6ad7b146104ee57806340ef28681461050e57806348e43af41461054e57600080fd5b8063313ce567146104705780633659cfe61461048c57806339509351146104ae57600080fd5b80631526fe27116103495780631526fe27146103ea57806318160ddd1461041b57806323b872dd146104305780632dbe051e1461045057600080fd5b806306fdde0314610370578063081e3eda1461039b578063095ea7b3146103ba575b600080fd5b34801561037c57600080fd5b50610385610b68565b6040516103929190614f54565b60405180910390f35b3480156103a757600080fd5b5060fd545b604051908152602001610392565b3480156103c657600080fd5b506103da6103d5366004614f7e565b610bfa565b6040519015158152602001610392565b3480156103f657600080fd5b5061040a610405366004614fa8565b610c14565b604051610392959493929190614fc1565b34801561042757600080fd5b5060cd546103ac565b34801561043c57600080fd5b506103da61044b3660046150be565b610dc0565b34801561045c57600080fd5b506103da61046b366004614fa8565b610de6565b34801561047c57600080fd5b5060405160128152602001610392565b34801561049857600080fd5b506104ac6104a73660046150fa565b610e00565b005b3480156104ba57600080fd5b506103da6104c9366004614f7e565b610ee8565b3480156104da57600080fd5b506103ac6104e9366004614fa8565b610f0a565b3480156104fa57600080fd5b506103da610509366004615115565b61112e565b34801561051a57600080fd5b5061052e610529366004614fa8565b6115c5565b604080519485526020850193909352918301526060820152608001610392565b34801561055a57600080fd5b5061056e61056936600461513a565b6115fe565b60408051938452602084019290925290820152606001610392565b6104ac6105973660046151f2565b611706565b3480156105a857600080fd5b506103ac6117d6565b3480156105bd57600080fd5b506103da6105cc366004615254565b611889565b3480156105dd57600080fd5b506104ac6105ec366004615254565b6119ad565b3480156105fd57600080fd5b506103ac61060c36600461513a565b6000918252610100602090815260408084206001600160a01b03909316845291905290206001015490565b34801561064357600080fd5b506103ac610652366004614fa8565b611a8a565b34801561066357600080fd5b506103da610672366004615115565b611cbb565b34801561068357600080fd5b506103ac6106923660046150fa565b6001600160a01b0316600090815260cb602052604090205490565b3480156106b957600080fd5b5061056e6106c83660046150fa565b61210d565b3480156106d957600080fd5b506103da6106e83660046150fa565b6101016020526000908152604090205460ff1681565b34801561070a57600080fd5b506103da610719366004615284565b612143565b34801561072a57600080fd5b506103ac6107393660046152bd565b612421565b34801561074a57600080fd5b506104ac612787565b34801561075f57600080fd5b506103ac61076e366004614fa8565b612897565b34801561077f57600080fd5b506033546001600160a01b03165b6040516001600160a01b039091168152602001610392565b3480156107b157600080fd5b506103ac6107c0366004615254565b612aeb565b3480156107d157600080fd5b506103da6107e0366004615254565b612af7565b3480156107f157600080fd5b5061084161080036600461513a565b610100602090815260009283526040808420909152908252902080546001820154600283015460038401546004850154600590950154939492939192909186565b604080519687526020870195909552938501929092526060840152608083015260a082015260c001610392565b34801561087a57600080fd5b50610385612bd1565b34801561088f57600080fd5b506103ac612be0565b3480156108a457600080fd5b506103da6108b3366004615254565b612bf2565b3480156108c457600080fd5b5061078d6108d3366004614fa8565b612d4c565b3480156108e457600080fd5b506103ac6108f3366004614fa8565b612d77565b34801561090457600080fd5b506103da610913366004614f7e565b612f9e565b34801561092457600080fd5b5061052e61093336600461513a565b613024565b34801561094457600080fd5b506103da610953366004614f7e565b613075565b34801561096457600080fd5b5061056e610973366004614fa8565b613083565b34801561098457600080fd5b5061056e610993366004614fa8565b6132bc565b3480156109a457600080fd5b506104ac6134f5565b3480156109b957600080fd5b506103da6109c8366004614fa8565b613575565b3480156109d957600080fd5b506103ac6109e83660046150fa565b60ff6020526000908152604090205481565b348015610a0657600080fd5b506104ac610a1536600461532f565b6135fa565b348015610a2657600080fd5b506103da610a35366004615375565b613891565b348015610a4657600080fd5b506103ac610a55366004614fa8565b6138fd565b348015610a6657600080fd5b506103ac610a75366004615375565b613b21565b348015610a8657600080fd5b50610a9a610a95366004615254565b613b4c565b60408051928352602083019190915201610392565b348015610abb57600080fd5b506103ac610aca3660046150fa565b60fe6020526000908152604090205481565b348015610ae857600080fd5b506103da610af736600461539f565b613ba8565b348015610b0857600080fd5b506103da610b173660046150fa565b613ddd565b348015610b2857600080fd5b506104ac610b373660046150fa565b613ea5565b348015610b4857600080fd5b506104ac610b57366004614fa8565b613f34565b3480156104ac57600080fd5b606060ce8054610b77906153d6565b80601f0160208091040260200160405190810160405280929190818152602001828054610ba3906153d6565b8015610bf05780601f10610bc557610100808354040283529160200191610bf0565b820191906000526020600020905b815481529060010190602001808311610bd357829003601f168201915b5050505050905090565b600033610c08818585613f61565b60019150505b92915050565b60fd8181548110610c2457600080fd5b60009182526020918290206040805161012081018252601190930290910180546001600160a01b03808216855260ff600160a01b8304169585019590955261ffff600160a81b909104169183019190915260018101549092166060820152600282018054929350909183916080840191610c9d906153d6565b80601f0160208091040260200160405190810160405280929190818152602001828054610cc9906153d6565b8015610d165780601f10610ceb57610100808354040283529160200191610d16565b820191906000526020600020905b815481529060010190602001808311610cf957829003601f168201915b5050509183525050600382015460208083019190915260048301546040808401919091526005840154606080850191909152600690940154608093840152805180850182526007870154815260088701548184015260098701548183015281519384018252600a8701548452600b87015492840192909252600c86015490830152600d85015460ff908116151593830193909352600f850154601090950154939490939192169085565b600033610dce858285614085565b610dd98585856140ff565b60019150505b9392505050565b6000610df06142aa565b610dfb826000614304565b919050565b6001600160a01b037f0000000000000000000000000000000000000000000000000000000000000000163003610e515760405162461bcd60e51b8152600401610e4890615410565b60405180910390fd5b7f00000000000000000000000000000000000000000000000000000000000000006001600160a01b0316610e9a6000805160206158b5833981519152546001600160a01b031690565b6001600160a01b031614610ec05760405162461bcd60e51b8152600401610e489061545c565b610ec98161443a565b60408051600080825260208201909252610ee591839190614442565b50565b600033610c08818585610efb8383613b21565b610f0591906154be565b613f61565b60008060fd8381548110610f2057610f206154d1565b60009182526020909120604080516101e0810190915260119092020180546001600160a01b0380821660c08501908152600160a01b830460ff1660e0860152600160a81b90920461ffff16610100850152600183015416610120840152600282018054849291849161014085019190610f98906153d6565b80601f0160208091040260200160405190810160405280929190818152602001828054610fc4906153d6565b80156110115780601f10610fe657610100808354040283529160200191611011565b820191906000526020600020905b815481529060010190602001808311610ff457829003601f168201915b505050918352505060038201546020808301919091526004830154604080840191909152600584015460608085019190915260069094015460809384015293855283518084018552600787015481526008870154818301526009870154818601528582015283519182018452600a8601548252600b86015482820152600c86015482850152600d86015460ff1615158284015284840191909152600e850180548451818402810184019095528085529490920193908301828280156110ff57602002820191906000526020600020905b81546001600160a01b031681526001909101906020018083116110e1575b5050509183525050600f82015460ff16151560208201526010909101546040909101525160c001519392505050565b60006111386142aa565b600060fd858154811061114d5761114d6154d1565b6000918252602082206005601190920201908101546003820154919350919061117690836154be565b9050808286116113175782860361121a57600e84015460005b818110156111fc57600086600e0182815481106111ae576111ae6154d1565b60009182526020808320909101548d8352610100825260408084206001600160a01b0390921680855291909252908220909250906111ef908d9084906145b2565b600090555060010161118f565b5060006005860181905561121490600e870190614da0565b506114c4565b60008361122f670de0b6b3a7640000896154e7565b61123991906154fe565b600e86015490915060005b8181101561130f57600087600e018281548110611263576112636154d1565b60009182526020808320909101548e8352610100825260408084206001600160a01b0390921680855291909252908220909250906112a4908e9084906145b2565b6000670de0b6b3a76400008683600001546112bf91906154e7565b6112c991906154fe565b9050808260000160008282546112df9190615520565b909155505060058a0180548291906000906112fb908490615520565b909155505060019093019250611244915050565b5050506114c4565b828611801561132557508186105b156113e957600e84015460005b8181101561139f57600086600e018281548110611351576113516154d1565b60009182526020808320909101548d8352610100825260408084206001600160a01b039092168085529190925290822090925090611392908d9084906145b2565b6000905550600101611332565b506000600586018190556113b790600e870190614da0565b60006113c38585615520565b9050808660000160030160008282546113dc9190615520565b909155506114c492505050565b81860361148a57600e84015460005b8181101561146557600086600e018281548110611417576114176154d1565b60009182526020808320909101548d8352610100825260408084206001600160a01b039092168085529190925290822090925090611458908d9084906145b2565b60009055506001016113f8565b5060006005860181905561147d90600e870190614da0565b50600060038501556114c4565b60405162461bcd60e51b815260206004820152600f60248201526e082dadeeadce840e8dede40d0d2ced608b1b6044820152606401610e48565b60006127106114d56103e8896154e7565b6114df91906154fe565b905060006114ed8289615520565b86546001600160a01b0316600090815260fe602052604081208054929350849290919061151b9084906154be565b90915550508554611536906001600160a01b03168a83614714565b506003860154600587015460009161154d916154be565b87546040518b81529192506001600160a01b0390811691908c169042907fc351e6e0f377ec1a399ec84224a83d6a4b9f3cd9a5530e5c652d0b11c2f8dae29060200160405180910390a480848c60008051602061589583398151915260405160405180910390a45060019a9950505050505050505050565b6000806000806115d485612897565b93506115df856138fd565b91506115ea85612d77565b92506115f585610f0a565b90509193509193565b60008060008060fd8681548110611617576116176154d1565b60009182526020808320898452610100825260408085206001600160a01b038b168652909252908320601192909202016005810154601082015491945091929081036116635742611669565b83601001545b9050600061167b846002015483612aeb565b855485549192506301e13380918391612710916116a391600160a81b900461ffff16906154e7565b6116ad91906154fe565b6116b791906154e7565b6116c191906154fe565b95508360010154866116d391906154be565b97506127106116e46103e882615520565b6116ee908a6154e7565b6116f891906154fe565b965050505050509250925092565b6001600160a01b037f000000000000000000000000000000000000000000000000000000000000000016300361174e5760405162461bcd60e51b8152600401610e4890615410565b7f00000000000000000000000000000000000000000000000000000000000000006001600160a01b03166117976000805160206158b5833981519152546001600160a01b031690565b6001600160a01b0316146117bd5760405162461bcd60e51b8152600401610e489061545c565b6117c68261443a565b6117d282826001614442565b5050565b6000306001600160a01b037f000000000000000000000000000000000000000000000000000000000000000016146118765760405162461bcd60e51b815260206004820152603860248201527f555550535570677261646561626c653a206d757374206e6f742062652063616c60448201527f6c6564207468726f7567682064656c656761746563616c6c00000000000000006064820152608401610e48565b506000805160206158b583398151915290565b60008060fd848154811061189f5761189f6154d1565b9060005260206000209060110201905082816000016003015410156119065760405162461bcd60e51b815260206004820152601a60248201527f416d6f756e7420626967676572207468616e206465706f7369740000000000006044820152606401610e48565b60018101546001600160a01b031633146119325760405162461bcd60e51b8152600401610e4890615533565b61193f62093a80426154be565b600a82015561195162093a80426154be565b61195e906203f4806154be565b600b820155600c8101839055600d8101805460ff19169055604051839085907fb3b9c925de3673837b40c6b4d4463a8f88dc821cd27e07f1ff6bf6abf96413a590600090a35060019392505050565b600060fd83815481106119c2576119c26154d1565b6000918252602090912060119091020160018101549091506001600160a01b03163314611a015760405162461bcd60e51b8152600401610e4890615533565b60038101546005820154600091611a17916154be565b8254909150611a31906001600160a01b031633308661477a565b5082826000016003016000828254611a4991906154be565b909155505060038201546005830154600091611a64916154be565b905080828660008051602061589583398151915260405160405180910390a45050505050565b60008060fd8381548110611aa057611aa06154d1565b60009182526020909120604080516101e0810190915260119092020180546001600160a01b0380821660c08501908152600160a01b830460ff1660e0860152600160a81b90920461ffff16610100850152600183015416610120840152600282018054849291849161014085019190611b18906153d6565b80601f0160208091040260200160405190810160405280929190818152602001828054611b44906153d6565b8015611b915780601f10611b6657610100808354040283529160200191611b91565b820191906000526020600020905b815481529060010190602001808311611b7457829003601f168201915b505050918352505060038201546020808301919091526004830154604080840191909152600584015460608085019190915260069094015460809384015293855283518084018552600787015481526008870154818301526009870154818601528582015283519182018452600a8601548252600b86015482820152600c86015482850152600d86015460ff1615158284015284840191909152600e85018054845181840281018401909552808552949092019390830182828015611c7f57602002820191906000526020600020905b81546001600160a01b03168152600190910190602001808311611c61575b5050509183525050600f82015460ff1615156020820152601090910154604090910152805160a081015160e090910151919250610ddf916154be565b6000611cc56147bd565b83600060fd8281548110611cdb57611cdb6154d1565b60009182526020909120604080516101e0810190915260119092020180546001600160a01b0380821660c08501908152600160a01b830460ff1660e0860152600160a81b90920461ffff16610100850152600183015416610120840152600282018054849291849161014085019190611d53906153d6565b80601f0160208091040260200160405190810160405280929190818152602001828054611d7f906153d6565b8015611dcc5780601f10611da157610100808354040283529160200191611dcc565b820191906000526020600020905b815481529060010190602001808311611daf57829003601f168201915b505050918352505060038201546020808301919091526004830154604080840191909152600584015460608085019190915260069094015460809384015293855283518084018552600787015481526008870154818301526009870154818601528582015283519182018452600a8601548252600b86015482820152600c86015482850152600d86015460ff1615158284015284840191909152600e85018054845181840281018401909552808552949092019390830182828015611eba57602002820191906000526020600020905b81546001600160a01b03168152600190910190602001808311611e9c575b5050509183525050600f82015460ff16151560208201526010909101546040909101526080810151909150611f235760405162461bcd60e51b815260206004820152600f60248201526e706f6f6c206e6f742061637469766560881b6044820152606401610e48565b60008411611f3057600080fd5b600060fd8781548110611f4557611f456154d1565b600091825260208083208a8452610100825260408085206001600160a01b038c1686529092529083206011929092020160038101546005820154919450919291611f8e916154be565b9050611f9c898960016145b2565b8154600003611fd657600e83018054600181018255600091825260209091200180546001600160a01b0319166001600160a01b038a161790555b8254611fed906001600160a01b031633308a61477a565b508682600001600082825461200291906154be565b909155505060058301805488919060009061201e9084906154be565b909155505060048301541580159061203e57506004830154600584015411155b6120805760405162461bcd60e51b8152602060048201526013602482015272115e18d959591959081c1bdbdb081b1a5b5a5d606a1b6044820152606401610e48565b88886001600160a01b03167f1449c6dd7851abc30abf37f57715f492010519147cc2652fbc38202c18a6ee90896040516120bc91815260200190565b60405180910390a3600383015460058401546000916120da916154be565b905080828b60008051602061589583398151915260405160405180910390a460019650505050505050610ddf600160ca55565b6001600160a01b038116600090815260fe602090815260408083205460ff90925282205461213b82826154be565b949193509150565b600061214d6147bd565b600060fd8581548110612162576121626154d1565b600091825260208083208884526101008252604080852033865290925292208054601190920290920192508511156121d15760405162461bcd60e51b81526020600482015260126024820152711dda5d1a191c985dce881b9bdd0819dbdbd960721b6044820152606401610e48565b4281600301541080156121e75750428160040154115b80156121f7575084816005015410155b80156122065750600381015415155b6122225760405162461bcd60e51b8152600401610e489061555b565b60006003808301829055830154600584015461223e91906154be565b905061224b8733876145b2565b851561228b57815461225d9087614816565b8255600583015461226e9087614816565b60058401558254612289906001600160a01b03163388614714565b505b81546000036123a357600e83015460005b818110156123a057336001600160a01b031685600e0182815481106122c3576122c36154d1565b6000918252602090912001546001600160a01b031603612398576000600e86016122ee600185615520565b815481106122fe576122fe6154d1565b600091825260209091200154600e870180546001600160a01b03909216925082918490811061232f5761232f6154d1565b9060005260206000200160006101000a8154816001600160a01b0302191690836001600160a01b0316021790555085600e01805480612370576123706155a4565b600082815260209020810160001990810180546001600160a01b0319169055019055506123a0565b60010161229c565b50505b604051868152879033907f7fc4727e062e336010f2c282598ef5f14facb3de68cf8195c2f23e1454b2b74e9060200160405180910390a3600383015460058401546000916123f0916154be565b905080828960008051602061589583398151915260405160405180910390a46001945050505050610ddf600160ca55565b600061242b6142aa565b6001600160a01b0384166000908152610101602052604090205460ff1661248c5760405162461bcd60e51b81526020600482015260156024820152741d1bdad95b881b9bdd081dda1a5d195b1a5cdd1959605a1b6044820152606401610e48565b60408051600481526024810182526020810180516001600160e01b031663313ce56760e01b17905290516000916001600160a01b038716916124ce91906155ba565b600060405180830381855afa9150503d8060008114612509576040519150601f19603f3d011682016040523d82523d6000602084013e61250e565b606091505b5091505060008180602001905181019061252891906155d6565b9050612532614dbe565b80516001600160a01b03808916909152815160ff8085166020928301528351898416606091820152845160809081018a90528551600060a091820181905287516040908101829052885160c001829052885161010001829052885160e0018290528089018051839052805188018390528051820183905251850182905283890182905291880181905260fd805460018101825591528751805160119092027f9346ac6dd7de6b96975fec380d4d994c4c12e6a8897544f22915316cc6cca28081018054988301519483015161ffff16600160a81b0261ffff60a81b1995909816600160a01b026001600160a81b0319909916938a16939093179790971792909216949094178455918201517f9346ac6dd7de6b96975fec380d4d994c4c12e6a8897544f22915316cc6cca28185018054919096166001600160a01b03199190911617909455928301518493919283917f9346ac6dd7de6b96975fec380d4d994c4c12e6a8897544f22915316cc6cca282909101906126b09082615647565b5060a0820151600382015560c0820151600482015560e0820151600582015561010090910151600690910155602082810151805160078401558082015160088401556040908101516009840155808401518051600a85015580830151600b85015590810151600c840155606090810151600d8401805460ff1916911515919091179055830151805161274892600e8501920190614e8a565b506080820151600f8201805460ff191691151591909117905560a09091015160109091015560fd5461277c90600190615520565b979650505050505050565b600054610100900460ff16158080156127a75750600054600160ff909116105b806127c15750303b1580156127c1575060005460ff166001145b6128245760405162461bcd60e51b815260206004820152602e60248201527f496e697469616c697a61626c653a20636f6e747261637420697320616c72656160448201526d191e481a5b9a5d1a585b1a5e995960921b6064820152608401610e48565b6000805460ff191660011790558015612847576000805461ff0019166101001790555b61284f614822565b8015610ee5576000805461ff0019169055604051600181527f7f26b83ff96e1f2b6a682f133852f6798a09c465da95921460cefb38474024989060200160405180910390a150565b60008060fd83815481106128ad576128ad6154d1565b60009182526020909120604080516101e0810190915260119092020180546001600160a01b0380821660c08501908152600160a01b830460ff1660e0860152600160a81b90920461ffff16610100850152600183015416610120840152600282018054849291849161014085019190612925906153d6565b80601f0160208091040260200160405190810160405280929190818152602001828054612951906153d6565b801561299e5780601f106129735761010080835404028352916020019161299e565b820191906000526020600020905b81548152906001019060200180831161298157829003601f168201915b505050918352505060038201546020808301919091526004830154604080840191909152600584015460608085019190915260069094015460809384015293855283518084018552600787015481526008870154818301526009870154818601528582015283519182018452600a8601548252600b86015482820152600c86015482850152600d86015460ff1615158284015284840191909152600e85018054845181840281018401909552808552949092019390830182828015612a8c57602002820191906000526020600020905b81546001600160a01b03168152600190910190602001808311612a6e575b5050509183525050600f82015460ff16151560208201526010909101546040909101529050612710612ac06103e882615520565b825160a081015160e090910151612ad791906154be565b612ae191906154e7565b610ddf91906154fe565b6000610ddf8284614816565b60008281526101006020908152604080832033845290915281208054831115612b625760405162461bcd60e51b815260206004820152601a60248201527f416d6f756e7420626967676572207468616e206465706f7369740000000000006044820152606401610e48565b612b6f62093a80426154be565b6003820155612b8162093a80426154be565b612b8e906203f4806154be565b600482015560058101839055604051839085907fb3b9c925de3673837b40c6b4d4463a8f88dc821cd27e07f1ff6bf6abf96413a590600090a35060019392505050565b606060cf8054610b77906153d6565b600080612bec81614851565b91505090565b60008060fd8481548110612c0857612c086154d1565b6000918252602090912060119091020160018101549091506001600160a01b03163314612c475760405162461bcd60e51b8152600401610e4890615533565b600a81015442118015612c5d5750600b81015442105b8015612c6e5750600d81015460ff16155b8015612c7e5750600c8101548311155b8015612c8d5750600a81015415155b612ca95760405162461bcd60e51b8152600401610e489061555b565b600d8101805460ff1916600117905560038101546005820154600091612cce916154be565b905083826000016003016000828254612ce79190615520565b909155505060018201548254612d0a916001600160a01b03918216911686614714565b5060038201546005830154600091612d21916154be565b905080828760008051602061589583398151915260405160405180910390a450600195945050505050565b6101028181548110612d5d57600080fd5b6000918252602090912001546001600160a01b0316905081565b60008060fd8381548110612d8d57612d8d6154d1565b60009182526020909120604080516101e0810190915260119092020180546001600160a01b0380821660c08501908152600160a01b830460ff1660e0860152600160a81b90920461ffff16610100850152600183015416610120840152600282018054849291849161014085019190612e05906153d6565b80601f0160208091040260200160405190810160405280929190818152602001828054612e31906153d6565b8015612e7e5780601f10612e5357610100808354040283529160200191612e7e565b820191906000526020600020905b815481529060010190602001808311612e6157829003601f168201915b505050918352505060038201546020808301919091526004830154604080840191909152600584015460608085019190915260069094015460809384015293855283518084018552600787015481526008870154818301526009870154818601528582015283519182018452600a8601548252600b86015482820152600c86015482850152600d86015460ff1615158284015284840191909152600e85018054845181840281018401909552808552949092019390830182828015612f6c57602002820191906000526020600020905b81546001600160a01b03168152600190910190602001808311612f4e575b5050509183525050600f82015460ff16151560208201526010909101546040918201529051015161ffff169392505050565b60003381612fac8286613b21565b90508381101561300c5760405162461bcd60e51b815260206004820152602560248201527f45524332303a2064656372656173656420616c6c6f77616e63652062656c6f77604482015264207a65726f60d81b6064820152608401610e48565b6130198286868403613f61565b506001949350505050565b6000828152610100602090815260408083206001600160a01b03851684529091528120805491908190819061305987876115fe565b5060058301546003909301549699909850919650909350505050565b600033610c088185856140ff565b60008060008060fd858154811061309c5761309c6154d1565b60009182526020909120604080516101e0810190915260119092020180546001600160a01b0380821660c08501908152600160a01b830460ff1660e0860152600160a81b90920461ffff16610100850152600183015416610120840152600282018054849291849161014085019190613114906153d6565b80601f0160208091040260200160405190810160405280929190818152602001828054613140906153d6565b801561318d5780601f106131625761010080835404028352916020019161318d565b820191906000526020600020905b81548152906001019060200180831161317057829003601f168201915b505050918352505060038201546020808301919091526004830154604080840191909152600584015460608085019190915260069094015460809384015293855283518084018552600787015481526008870154818301526009870154818601528582015283519182018452600a8601548252600b86015482820152600c86015482850152600d86015460ff1615158284015284840191909152600e8501805484518184028101840190955280855294909201939083018282801561327b57602002820191906000526020600020905b81546001600160a01b0316815260019091019060200180831161325d575b5050509183525050600f82015460ff161515602080830191909152601090920154604091820152918201518051918101519201519097919650945092505050565b60008060008060fd85815481106132d5576132d56154d1565b60009182526020909120604080516101e0810190915260119092020180546001600160a01b0380821660c08501908152600160a01b830460ff1660e0860152600160a81b90920461ffff1661010085015260018301541661012084015260028201805484929184916101408501919061334d906153d6565b80601f0160208091040260200160405190810160405280929190818152602001828054613379906153d6565b80156133c65780601f1061339b576101008083540402835291602001916133c6565b820191906000526020600020905b8154815290600101906020018083116133a957829003601f168201915b505050918352505060038201546020808301919091526004830154604080840191909152600584015460608085019190915260069094015460809384015293855283518084018552600787015481526008870154818301526009870154818601528582015283519182018452600a8601548252600b86015482820152600c86015482850152600d86015460ff1615158284015284840191909152600e850180548451818402810184019095528085529490920193908301828280156134b457602002820191906000526020600020905b81546001600160a01b03168152600190910190602001808311613496575b5050509183525050600f82015460ff161515602080830191909152601090920154604091820152918101518051918101519201519097919650945092505050565b6034546001600160a01b0316331461355e5760405162461bcd60e51b815260206004820152602660248201527f6f6e6c792070656e64696e67206f776e65722063616e2061636365707420747260448201526530b739b332b960d11b6064820152608401610e48565b603454613573906001600160a01b03166148b1565b565b60008060fd838154811061358b5761358b6154d1565b6000918252602090912060119091020160018101549091506001600160a01b03163314806135c357506033546001600160a01b031633145b6135df5760405162461bcd60e51b8152600401610e4890615533565b600f8101805460ff1916905542601090910155506001919050565b600060fd858154811061360f5761360f6154d1565b60009182526020909120601190910201600f81015490915060ff1615801561363957506004810154155b6136855760405162461bcd60e51b815260206004820152601860248201527f506f6f6c20616c726561647920696e697469616c697a656400000000000000006044820152606401610e48565b60008361ffff1611801561369f57506127108361ffff1611155b6136de5760405162461bcd60e51b815260206004820152601060248201526f415059206f7574206f662072616e676560801b6044820152606401610e48565b80546136f590600160a01b900460ff16600a6157eb565b6137009060646154e7565b84101580156137325750805461372190600160a01b900460ff16600a6157eb565b61372e90629896806154e7565b8411155b6137765760405162461bcd60e51b8152602060048201526015602482015274506f6f6c20636170206f7574206f662072616e676560581b6044820152606401610e48565b60018101546001600160a01b031633146137a25760405162461bcd60e51b8152600401610e4890615533565b60006301e1338061271062093a806137be61ffff8816896154e7565b6137c891906154e7565b6137d291906154fe565b6137dc91906154fe565b905060006127106137ef6103e8846154e7565b6137f991906154fe565b905061381d333061380a85886154be565b86546001600160a01b031692919061477a565b508383600001600301600082825461383591906154be565b909155505060048301869055825461ffff60a81b1916600160a81b61ffff871602178355600f8301805460ff1916600117905560088301829055600783018290556138808183615520565b600990930192909255505050505050565b600061389b6142aa565b6001600160a01b038316600090815260ff602090815260408083205460fe9092528220546138c991906154be565b6001600160a01b038516600081815260fe6020908152604080832083905560ff909152812055909150613019908483614714565b60008060fd8381548110613913576139136154d1565b60009182526020909120604080516101e0810190915260119092020180546001600160a01b0380821660c08501908152600160a01b830460ff1660e0860152600160a81b90920461ffff1661010085015260018301541661012084015260028201805484929184916101408501919061398b906153d6565b80601f01602080910402602001604051908101604052809291908181526020018280546139b7906153d6565b8015613a045780601f106139d957610100808354040283529160200191613a04565b820191906000526020600020905b8154815290600101906020018083116139e757829003601f168201915b505050918352505060038201546020808301919091526004830154604080840191909152600584015460608085019190915260069094015460809384015293855283518084018552600787015481526008870154818301526009870154818601528582015283519182018452600a8601548252600b86015482820152600c86015482850152600d86015460ff1615158284015284840191909152600e85018054845181840281018401909552808552949092019390830182828015613af257602002820191906000526020600020905b81546001600160a01b03168152600190910190602001808311613ad4575b5050509183525050600f82015460ff16151560208201526010909101546040909101525160e001519392505050565b6001600160a01b03918216600090815260cc6020908152604080832093909416825291909152205490565b60008060fd8381548110613b6257613b626154d1565b6000918252602090912060046011909202010154613b88670de0b6b3a7640000866154e7565b613b9291906154fe565b9050613b9f8160056154e7565b91509250929050565b6000613bb26142aa565b6001600160a01b0383166000908152610101602052604090205460ff161515821514613c185760405162461bcd60e51b81526020600482015260156024820152741dda1a5d195b1a5cdd08185b1c9958591e481cd95d605a1b6044820152606401610e48565b6001600160a01b03831660008181526101016020526040808220805460ff191686151590811790915590519092917f99795d51e5a8804307721456a7a9c2f0d7421f719d46a46d36e91fee7c85aa7691a38115613cc05761010280546001810182556000919091527f93bdaa6a4190909b7c3fbe8d42169ffe1cab19f51dfc8db24c71abf849eced4a0180546001600160a01b0319166001600160a01b038516179055613dd4565b6101025460005b81811015613dd15760006101028281548110613ce557613ce56154d1565b6000918252602090912001546001600160a01b03908116915086168103613dc057610102613d14600185615520565b81548110613d2457613d246154d1565b60009182526020909120015461010280546001600160a01b039092169184908110613d5157613d516154d1565b9060005260206000200160006101000a8154816001600160a01b0302191690836001600160a01b03160217905550610102805480613d9157613d916155a4565b600082815260209020810160001990810180546001600160a01b03191690550190555060019250610c0e915050565b50613dca816157fa565b9050613cc7565b50505b50600192915050565b6000613de76142aa565b6101025460005b81811015613e9b5760006101028281548110613e0c57613e0c6154d1565b60009182526020808320909101546001600160a01b031680835260ff825260408084205460fe909352832054909350613e4591906154be565b905080600003613e56575050613e8b565b6001600160a01b038216600081815260fe6020908152604080832083905560ff909152812055613e87908783614714565b5050505b613e94816157fa565b9050613dee565b5060019392505050565b613ead6142aa565b6001600160a01b038116613f125760405162461bcd60e51b815260206004820152602660248201527f4f776e61626c653a206e6577206f776e657220697320746865207a65726f206160448201526564647265737360d01b6064820152608401610e48565b603480546001600160a01b0319166001600160a01b0392909216919091179055565b613f3c6147bd565b613f48813360016145b2565b610ee5600160ca55565b6001600160a01b03163b151590565b6001600160a01b038316613fc35760405162461bcd60e51b8152602060048201526024808201527f45524332303a20617070726f76652066726f6d20746865207a65726f206164646044820152637265737360e01b6064820152608401610e48565b6001600160a01b0382166140245760405162461bcd60e51b815260206004820152602260248201527f45524332303a20617070726f766520746f20746865207a65726f206164647265604482015261737360f01b6064820152608401610e48565b6001600160a01b03838116600081815260cc602090815260408083209487168084529482529182902085905590518481527f8c5be1e5ebec7d5bd14f71427d1e84f3dd0314c0f7b2291e5b200ac8c7c3b925910160405180910390a3505050565b60006140918484613b21565b905060001981146140f957818110156140ec5760405162461bcd60e51b815260206004820152601d60248201527f45524332303a20696e73756666696369656e7420616c6c6f77616e63650000006044820152606401610e48565b6140f98484848403613f61565b50505050565b6001600160a01b0383166141635760405162461bcd60e51b815260206004820152602560248201527f45524332303a207472616e736665722066726f6d20746865207a65726f206164604482015264647265737360d81b6064820152608401610e48565b6001600160a01b0382166141c55760405162461bcd60e51b815260206004820152602360248201527f45524332303a207472616e7366657220746f20746865207a65726f206164647260448201526265737360e81b6064820152608401610e48565b6001600160a01b038316600090815260cb60205260409020548181101561423d5760405162461bcd60e51b815260206004820152602660248201527f45524332303a207472616e7366657220616d6f756e7420657863656564732062604482015265616c616e636560d01b6064820152608401610e48565b6001600160a01b03808516600081815260cb602052604080822086860390559286168082529083902080548601905591517fddf252ad1be2c89b69c2b068fc378daa952ba7f163c4a11628f55a4df523b3ef9061429d9086815260200190565b60405180910390a36140f9565b6033546001600160a01b031633146135735760405162461bcd60e51b815260206004820181905260248201527f4f776e61626c653a2063616c6c6572206973206e6f7420746865206f776e65726044820152606401610e48565b600060fd8381548110614319576143196154d1565b90600052602060002090601102019050600082826007016001015483600701600001546143469190615520565b61435091906154be565b60018301548354919250614372916001600160a01b039081169116308461477a565b5060006127106143846103e8846154e7565b61438e91906154fe565b9050818360070160010160008282546143a791906154be565b909155505082546001600160a01b0316600090815260ff6020526040812080548392906143d59084906154be565b90915550600090506143e78284615520565b90508084600701600201600082825461440091906154be565b9091555050604051839087907fadb049ad2d09be3db90459a16aef1ad0a4d89e8fdcc1ade9429d6cc55abbcd2b90600090a3505050505050565b610ee56142aa565b7f4910fdfa16fed3260ed0e7147f7cc6da11a60208b5b9406d12a635614ffd91435460ff161561447a576144758361490e565b505050565b826001600160a01b03166352d1902d6040518163ffffffff1660e01b8152600401602060405180830381865afa9250505080156144d4575060408051601f3d908101601f191682019092526144d191810190615813565b60015b6145375760405162461bcd60e51b815260206004820152602e60248201527f45524331393637557067726164653a206e657720696d706c656d656e7461746960448201526d6f6e206973206e6f74205555505360901b6064820152608401610e48565b6000805160206158b583398151915281146145a65760405162461bcd60e51b815260206004820152602960248201527f45524331393637557067726164653a20756e737570706f727465642070726f786044820152681a58589b195555525160ba1b6064820152608401610e48565b506144758383836149aa565b600060fd84815481106145c7576145c76154d1565b60009182526020808320878452610100825260408085206001600160a01b0389168652909252922080546011909202909201925015801561460a57506001810154155b1561461c574260029091015550505050565b600080600061462b88886115fe565b92509250925085614679578084600101600082825461464a91906154be565b909155505060108501546000036146615742614667565b84601001545b84600201819055505050505050505050565b600885015483111561468f5761468f8884614304565b821561470a57600060018501819055601086015490036146af57426146b5565b84601001545b60028501556008850180548491906000906146d1908490615520565b90915550506009850180548391906000906146ed908490615520565b90915550508454614708906001600160a01b03168884614714565b505b5050505050505050565b6040516001600160a01b038316602482015260448101829052600090613e9b90859063a9059cbb60e01b906064015b60408051601f198184030181529190526020810180516001600160e01b03166001600160e01b0319909316929092179091526149cf565b6040516001600160a01b03808516602483015283166044820152606481018290526000906130199086906323b872dd60e01b90608401614743565b949350505050565b600260ca540361480f5760405162461bcd60e51b815260206004820152601f60248201527f5265656e7472616e637947756172643a207265656e7472616e742063616c6c006044820152606401610e48565b600260ca55565b6000610ddf8284615520565b600054610100900460ff166148495760405162461bcd60e51b8152600401610e489061582c565b613573614aa1565b600080670de0b6b3a764000061486f84670928ca80cfc200006154e7565b61487991906154fe565b61488b9067016345785d8a00006154be565b905060006148a8826ec097ce7bc90715b34b9f10000000006154fe565b90505050919050565b603380546001600160a01b038381166001600160a01b03198084168217909455603480549094169093556040519116919082907f8be0079c531659141344cd1fd0a4f28419497f9722a3daafe3b4186f6b6457e090600090a35050565b6001600160a01b0381163b61497b5760405162461bcd60e51b815260206004820152602d60248201527f455243313936373a206e657720696d706c656d656e746174696f6e206973206e60448201526c1bdd08184818dbdb9d1c9858dd609a1b6064820152608401610e48565b6000805160206158b583398151915280546001600160a01b0319166001600160a01b0392909216919091179055565b6149b383614ad1565b6000825111806149c05750805b15614475576140f98383614b11565b6000614a24826040518060400160405280602081526020017f5361666545524332303a206c6f772d6c6576656c2063616c6c206661696c6564815250856001600160a01b0316614c059092919063ffffffff16565b8051909150156144755780806020019051810190614a429190615877565b6144755760405162461bcd60e51b815260206004820152602a60248201527f5361666545524332303a204552433230206f7065726174696f6e20646964206e6044820152691bdd081cdd58d8d9595960b21b6064820152608401610e48565b600054610100900460ff16614ac85760405162461bcd60e51b8152600401610e489061582c565b613573336148b1565b614ada8161490e565b6040516001600160a01b038216907fbc7cd75a20ee27fd9adebab32041f755214dbc6bffa90cc0225b39da2e5c2d3b90600090a250565b60606001600160a01b0383163b614b795760405162461bcd60e51b815260206004820152602660248201527f416464726573733a2064656c65676174652063616c6c20746f206e6f6e2d636f6044820152651b9d1c9858dd60d21b6064820152608401610e48565b600080846001600160a01b031684604051614b9491906155ba565b600060405180830381855af49150503d8060008114614bcf576040519150601f19603f3d011682016040523d82523d6000602084013e614bd4565b606091505b5091509150614bfc82826040518060600160405280602781526020016158d560279139614c14565b95945050505050565b60606147b58484600085614c2d565b60608315614c23575081610ddf565b610ddf8383614cfd565b606082471015614c8e5760405162461bcd60e51b815260206004820152602660248201527f416464726573733a20696e73756666696369656e742062616c616e636520666f6044820152651c8818d85b1b60d21b6064820152608401610e48565b600080866001600160a01b03168587604051614caa91906155ba565b60006040518083038185875af1925050503d8060008114614ce7576040519150601f19603f3d011682016040523d82523d6000602084013e614cec565b606091505b509150915061277c87838387614d27565b815115614d0d5781518083602001fd5b8060405162461bcd60e51b8152600401610e489190614f54565b60608315614d96578251600003614d8f576001600160a01b0385163b614d8f5760405162461bcd60e51b815260206004820152601d60248201527f416464726573733a2063616c6c20746f206e6f6e2d636f6e74726163740000006044820152606401610e48565b50816147b5565b6147b58383614cfd565b5080546000825590600052602060002090810190610ee59190614eef565b604080516101e08101909152600060c0820181815260e08301829052610100830182905261012083018290526060610140840152610160830182905261018083018290526101a083018290526101c083019190915281908152602001614e3e60405180606001604052806000815260200160008152602001600081525090565b8152602001614e7060405180608001604052806000815260200160008152602001600081526020016000151581525090565b815260606020820181905260006040830181905291015290565b828054828255906000526020600020908101928215614edf579160200282015b82811115614edf57825182546001600160a01b0319166001600160a01b03909116178255602090920191600190910190614eaa565b50614eeb929150614eef565b5090565b5b80821115614eeb5760008155600101614ef0565b60005b83811015614f1f578181015183820152602001614f07565b50506000910152565b60008151808452614f40816020860160208601614f04565b601f01601f19169290920160200192915050565b602081526000610ddf6020830184614f28565b80356001600160a01b0381168114610dfb57600080fd5b60008060408385031215614f9157600080fd5b614f9a83614f67565b946020939093013593505050565b600060208284031215614fba57600080fd5b5035919050565b6000610140808352614fde81840189516001600160a01b03169052565b50602087015160ff16610160830152604087015161ffff1661018083015260608701516001600160a01b03166101a083015260808701516101206101c0840181905261502e610260850183614f28565b915060a08901516101e085015260c089015161020085015260e0890151610220850152610100808a0151610240860152829350615082602086018a8051825260208082015190830152604090810151910152565b87516080860152602088015160a0860152604088015160c0860152606090970151151560e0850152941515958301959095529201529392505050565b6000806000606084860312156150d357600080fd5b6150dc84614f67565b92506150ea60208501614f67565b9150604084013590509250925092565b60006020828403121561510c57600080fd5b610ddf82614f67565b60008060006060848603121561512a57600080fd5b833592506150ea60208501614f67565b6000806040838503121561514d57600080fd5b8235915061515d60208401614f67565b90509250929050565b634e487b7160e01b600052604160045260246000fd5b600067ffffffffffffffff8084111561519757615197615166565b604051601f8501601f19908116603f011681019082821181831017156151bf576151bf615166565b816040528093508581528686860111156151d857600080fd5b858560208301376000602087830101525050509392505050565b6000806040838503121561520557600080fd5b61520e83614f67565b9150602083013567ffffffffffffffff81111561522a57600080fd5b8301601f8101851361523b57600080fd5b61524a8582356020840161517c565b9150509250929050565b6000806040838503121561526757600080fd5b50508035926020909101359150565b8015158114610ee557600080fd5b60008060006060848603121561529957600080fd5b833592506020840135915060408401356152b281615276565b809150509250925092565b6000806000606084860312156152d257600080fd5b6152db84614f67565b92506152e960208501614f67565b9150604084013567ffffffffffffffff81111561530557600080fd5b8401601f8101861361531657600080fd5b6153258682356020840161517c565b9150509250925092565b6000806000806080858703121561534557600080fd5b8435935060208501359250604085013561ffff8116811461536557600080fd5b9396929550929360600135925050565b6000806040838503121561538857600080fd5b61539183614f67565b915061515d60208401614f67565b600080604083850312156153b257600080fd5b6153bb83614f67565b915060208301356153cb81615276565b809150509250929050565b600181811c908216806153ea57607f821691505b60208210810361540a57634e487b7160e01b600052602260045260246000fd5b50919050565b6020808252602c908201527f46756e6374696f6e206d7573742062652063616c6c6564207468726f7567682060408201526b19195b1959d85d1958d85b1b60a21b606082015260800190565b6020808252602c908201527f46756e6374696f6e206d7573742062652063616c6c6564207468726f7567682060408201526b6163746976652070726f787960a01b606082015260800190565b634e487b7160e01b600052601160045260246000fd5b80820180821115610c0e57610c0e6154a8565b634e487b7160e01b600052603260045260246000fd5b8082028115828204841417610c0e57610c0e6154a8565b60008261551b57634e487b7160e01b600052601260045260246000fd5b500490565b81810381811115610c0e57610c0e6154a8565b6020808252600e908201526d139bdd08185d5d1a1bdc9a5e995960921b604082015260600190565b60208082526029908201527f54696d656c6f636b206e6f7420736574206f72206e6f7420636f6d706c6574656040820152686420696e2074696d6560b81b606082015260800190565b634e487b7160e01b600052603160045260246000fd5b600082516155cc818460208701614f04565b9190910192915050565b6000602082840312156155e857600080fd5b815160ff81168114610ddf57600080fd5b601f82111561447557600081815260208120601f850160051c810160208610156156205750805b601f850160051c820191505b8181101561563f5782815560010161562c565b505050505050565b815167ffffffffffffffff81111561566157615661615166565b6156758161566f84546153d6565b846155f9565b602080601f8311600181146156aa57600084156156925750858301515b600019600386901b1c1916600185901b17855561563f565b600085815260208120601f198616915b828110156156d9578886015182559484019460019091019084016156ba565b50858210156156f75787850151600019600388901b60f8161c191681555b5050505050600190811b01905550565b600181815b80851115615742578160001904821115615728576157286154a8565b8085161561573557918102915b93841c939080029061570c565b509250929050565b60008261575957506001610c0e565b8161576657506000610c0e565b816001811461577c5760028114615786576157a2565b6001915050610c0e565b60ff841115615797576157976154a8565b50506001821b610c0e565b5060208310610133831016604e8410600b84101617156157c5575081810a610c0e565b6157cf8383615707565b80600019048211156157e3576157e36154a8565b029392505050565b6000610ddf60ff84168361574a565b60006001820161580c5761580c6154a8565b5060010190565b60006020828403121561582557600080fd5b5051919050565b6020808252602b908201527f496e697469616c697a61626c653a20636f6e7472616374206973206e6f74206960408201526a6e697469616c697a696e6760a81b606082015260800190565b60006020828403121561588957600080fd5b8151610ddf8161527656fea3ea4fb8dee4d414198cb197af6eae4fe483c1a0b849dc50e53b9bf1a60e2166360894a13ba1a3210667c828492db98dca3e2076cc3735a920a3ca505d382bbc416464726573733a206c6f772d6c6576656c2064656c65676174652063616c6c206661696c6564a26469706673582212203fb53a455f723a795183c18388c6095a0f3034d7ef2a920690957f45dc05e64a64736f6c63430008110033496e697469616c697a61626c653a20636f6e7472616374206973206e6f742069",
    "linkReferences": {}
  },
  "methodIdentifiers": {
    "acceptOwnershipTransfer()": "b842e87f",
    "activeTokens(uint256)": "9f224f35",
    "addNewBountyPool(address,address,string)": "804fd590",
    "allowance(address,address)": "dd62ed3e",
    "approve(address,uint256)": "095ea7b3",
    "balanceOf(address)": "70a08231",
    "billPremium(uint256)": "2dbe051e",
    "claimPremium(uint256)": "f47ec3be",
    "collectAllSaloonProfits(address)": "ecd7fbed",
    "collectSaloonProfits(address,address)": "cf9564b9",
    "convertStakeToPoolMeasurements(uint256,uint256)": "de1b75ec",
    "decimals()": "313ce567",
    "decreaseAllowance(address,uint256)": "a457c2d7",
    "getCurrentAPY()": "962ca496",
    "getMultiplier(uint256,uint256)": "8dbb1e3a",
    "increaseAllowance(address,uint256)": "39509351",
    "initialize()": "8129fc1c",
    "makeProjectDeposit(uint256,uint256)": "57a86d3a",
    "name()": "06fdde03",
    "owner()": "8da5cb5b",
    "payBounty(uint256,address,uint256)": "3ac6ad7b",
    "pendingToken(uint256,address)": "48e43af4",
    "poolInfo(uint256)": "1526fe27",
    "poolLength()": "081e3eda",
    "projectDepositWithdrawal(uint256,uint256)": "983c1ce0",
    "proxiableUUID()": "52d1902d",
    "saloonBountyProfit(address)": "e45abd0f",
    "saloonPremiumProfit(address)": "ca006148",
    "scheduleProjectDepositWithdrawal(uint256,uint256)": "5669cbef",
    "scheduleUnstake(uint256,uint256)": "91635b4e",
    "seeEffectiveStakingAPY()": "fceb3d76",
    "setAPYandPoolCapAndDeposit(uint256,uint256,uint16,uint256)": "cee6b069",
    "stake(uint256,address,uint256)": "6e9c931c",
    "symbol()": "95d89b41",
    "tokenWhitelist(address)": "753d7563",
    "totalSupply()": "18160ddd",
    "transfer(address,uint256)": "a9059cbb",
    "transferFrom(address,address,uint256)": "23b872dd",
    "transferOwnership(address)": "f2fde38b",
    "unstake(uint256,uint256,bool)": "79b91d69",
    "updateTokenWhitelist(address,bool)": "e5e97c65",
    "upgradeTo(address)": "3659cfe6",
    "upgradeToAndCall(address,bytes)": "4f1ef286",
    "userInfo(uint256,address)": "93f1a40b",
    "viewBountyBalance(uint256)": "6ac6d812",
    "viewBountyInfo(uint256)": "40ef2868",
    "viewHackerPayout(uint256)": "861e5f66",
    "viewPoolAPY(uint256)": "a27f9213",
    "viewPoolCap(uint256)": "39679ff4",
    "viewPoolPremiumInfo(uint256)": "b1a2d16f",
    "viewPoolTimelockInfo(uint256)": "ac30b856",
    "viewSaloonProfitBalance(address)": "718c7eef",
    "viewTotalStaked(uint256)": "dbdd6957",
    "viewUserInfo(uint256,address)": "a754ecb0",
    "viewUserUnclaimed(uint256,address)": "5e3b748b",
    "windDownBounty(uint256)": "bb7019c1"
  },
  "id": 38
}