{
  "abi": [
    {
      "inputs": [
        {
          "internalType": "UD60x18",
          "name": "x",
          "type": "uint256"
        }
      ],
      "name": "PRBMathUD60x18__LogInputTooSmall",
      "type": "error"
    },
    {
      "inputs": [
        {
          "internalType": "uint256",
          "name": "x",
          "type": "uint256"
        }
      ],
      "name": "PRBMathUD60x18__ToUD60x18Overflow",
      "type": "error"
    },
    {
      "inputs": [
        {
          "internalType": "uint256",
          "name": "x",
          "type": "uint256"
        },
        {
          "internalType": "uint256",
          "name": "y",
          "type": "uint256"
        }
      ],
      "name": "PRBMath__MulDiv18Overflow",
      "type": "error"
    },
    {
      "inputs": [
        {
          "internalType": "uint256",
          "name": "x",
          "type": "uint256"
        },
        {
          "internalType": "uint256",
          "name": "y",
          "type": "uint256"
        },
        {
          "internalType": "uint256",
          "name": "denominator",
          "type": "uint256"
        }
      ],
      "name": "PRBMath__MulDivOverflow",
      "type": "error"
    },
    {
      "anonymous": false,
      "inputs": [
        {
          "indexed": false,
          "internalType": "address",
          "name": "previousAdmin",
          "type": "address"
        },
        {
          "indexed": false,
          "internalType": "address",
          "name": "newAdmin",
          "type": "address"
        }
      ],
      "name": "AdminChanged",
      "type": "event"
    },
    {
      "anonymous": false,
      "inputs": [
        {
          "indexed": true,
          "internalType": "address",
          "name": "owner",
          "type": "address"
        },
        {
          "indexed": true,
          "internalType": "address",
          "name": "approved",
          "type": "address"
        },
        {
          "indexed": true,
          "internalType": "uint256",
          "name": "tokenId",
          "type": "uint256"
        }
      ],
      "name": "Approval",
      "type": "event"
    },
    {
      "anonymous": false,
      "inputs": [
        {
          "indexed": true,
          "internalType": "address",
          "name": "owner",
          "type": "address"
        },
        {
          "indexed": true,
          "internalType": "address",
          "name": "operator",
          "type": "address"
        },
        {
          "indexed": false,
          "internalType": "bool",
          "name": "approved",
          "type": "bool"
        }
      ],
      "name": "ApprovalForAll",
      "type": "event"
    },
    {
      "anonymous": false,
      "inputs": [
        {
          "indexed": true,
          "internalType": "address",
          "name": "beacon",
          "type": "address"
        }
      ],
      "name": "BeaconUpgraded",
      "type": "event"
    },
    {
      "anonymous": false,
      "inputs": [
        {
          "indexed": true,
          "internalType": "uint256",
          "name": "pid",
          "type": "uint256"
        },
        {
          "indexed": true,
          "internalType": "uint256",
          "name": "oldAmount",
          "type": "uint256"
        },
        {
          "indexed": true,
          "internalType": "uint256",
          "name": "newAmount",
          "type": "uint256"
        }
      ],
      "name": "BountyBalanceChanged",
      "type": "event"
    },
    {
      "anonymous": false,
      "inputs": [
        {
          "indexed": true,
          "internalType": "uint256",
          "name": "time",
          "type": "uint256"
        },
        {
          "indexed": true,
          "internalType": "address",
          "name": "hunter",
          "type": "address"
        },
        {
          "indexed": true,
          "internalType": "address",
          "name": "token",
          "type": "address"
        },
        {
          "indexed": false,
          "internalType": "uint256",
          "name": "amount",
          "type": "uint256"
        }
      ],
      "name": "BountyPaid",
      "type": "event"
    },
    {
      "anonymous": false,
      "inputs": [
        {
          "indexed": false,
          "internalType": "uint8",
          "name": "version",
          "type": "uint8"
        }
      ],
      "name": "Initialized",
      "type": "event"
    },
    {
      "anonymous": false,
      "inputs": [
        {
          "indexed": true,
          "internalType": "uint256",
          "name": "pid",
          "type": "uint256"
        },
        {
          "indexed": true,
          "internalType": "address",
          "name": "token",
          "type": "address"
        },
        {
          "indexed": true,
          "internalType": "uint256",
          "name": "tokenDecimals",
          "type": "uint256"
        }
      ],
      "name": "NewBountyDeployed",
      "type": "event"
    },
    {
      "anonymous": false,
      "inputs": [
        {
          "indexed": true,
          "internalType": "address",
          "name": "previousOwner",
          "type": "address"
        },
        {
          "indexed": true,
          "internalType": "address",
          "name": "newOwner",
          "type": "address"
        }
      ],
      "name": "OwnershipTransferred",
      "type": "event"
    },
    {
      "anonymous": false,
      "inputs": [
        {
          "indexed": true,
          "internalType": "uint256",
          "name": "pid",
          "type": "uint256"
        },
        {
          "indexed": true,
          "internalType": "uint256",
          "name": "amount",
          "type": "uint256"
        }
      ],
      "name": "PremiumBilled",
      "type": "event"
    },
    {
      "anonymous": false,
      "inputs": [
        {
          "indexed": true,
          "internalType": "address",
          "name": "user",
          "type": "address"
        },
        {
          "indexed": true,
          "internalType": "uint256",
          "name": "pid",
          "type": "uint256"
        },
        {
          "indexed": false,
          "internalType": "uint256",
          "name": "amount",
          "type": "uint256"
        }
      ],
      "name": "Staked",
      "type": "event"
    },
    {
      "anonymous": false,
      "inputs": [
        {
          "indexed": true,
          "internalType": "address",
          "name": "from",
          "type": "address"
        },
        {
          "indexed": true,
          "internalType": "address",
          "name": "to",
          "type": "address"
        },
        {
          "indexed": true,
          "internalType": "uint256",
          "name": "tokenId",
          "type": "uint256"
        }
      ],
      "name": "Transfer",
      "type": "event"
    },
    {
      "anonymous": false,
      "inputs": [
        {
          "indexed": true,
          "internalType": "address",
          "name": "user",
          "type": "address"
        },
        {
          "indexed": true,
          "internalType": "uint256",
          "name": "pid",
          "type": "uint256"
        },
        {
          "indexed": false,
          "internalType": "uint256",
          "name": "amount",
          "type": "uint256"
        }
      ],
      "name": "Unstaked",
      "type": "event"
    },
    {
      "anonymous": false,
      "inputs": [
        {
          "indexed": true,
          "internalType": "address",
          "name": "implementation",
          "type": "address"
        }
      ],
      "name": "Upgraded",
      "type": "event"
    },
    {
      "anonymous": false,
      "inputs": [
        {
          "indexed": true,
          "internalType": "uint256",
          "name": "pid",
          "type": "uint256"
        },
        {
          "indexed": true,
          "internalType": "uint256",
          "name": "amount",
          "type": "uint256"
        }
      ],
      "name": "WithdrawalOrUnstakeScheduled",
      "type": "event"
    },
    {
      "anonymous": false,
      "inputs": [
        {
          "indexed": true,
          "internalType": "address",
          "name": "token",
          "type": "address"
        },
        {
          "indexed": true,
          "internalType": "bool",
          "name": "whitelisted",
          "type": "bool"
        }
      ],
      "name": "tokenWhitelistUpdated",
      "type": "event"
    },
    {
      "inputs": [],
      "name": "acceptOwnershipTransfer",
      "outputs": [],
      "stateMutability": "nonpayable",
      "type": "function"
    },
    {
      "inputs": [
        {
          "internalType": "uint256",
          "name": "",
          "type": "uint256"
        }
      ],
      "name": "activeStrategies",
      "outputs": [
        {
          "internalType": "bytes32",
          "name": "",
          "type": "bytes32"
        }
      ],
      "stateMutability": "view",
      "type": "function"
    },
    {
      "inputs": [
        {
          "internalType": "uint256",
          "name": "",
          "type": "uint256"
        }
      ],
      "name": "activeTokens",
      "outputs": [
        {
          "internalType": "address",
          "name": "",
          "type": "address"
        }
      ],
      "stateMutability": "view",
      "type": "function"
    },
    {
      "inputs": [
        {
          "internalType": "address",
          "name": "_token",
          "type": "address"
        },
        {
          "internalType": "address",
          "name": "_projectWallet",
          "type": "address"
        },
        {
          "internalType": "string",
          "name": "_projectName",
          "type": "string"
        }
      ],
      "name": "addNewBountyPool",
      "outputs": [
        {
          "internalType": "uint256",
          "name": "",
          "type": "uint256"
        }
      ],
      "stateMutability": "nonpayable",
      "type": "function"
    },
    {
      "inputs": [
        {
          "internalType": "address",
          "name": "to",
          "type": "address"
        },
        {
          "internalType": "uint256",
          "name": "tokenId",
          "type": "uint256"
        }
      ],
      "name": "approve",
      "outputs": [],
      "stateMutability": "nonpayable",
      "type": "function"
    },
    {
      "inputs": [
        {
          "internalType": "address",
          "name": "owner",
          "type": "address"
        }
      ],
      "name": "balanceOf",
      "outputs": [
        {
          "internalType": "uint256",
          "name": "",
          "type": "uint256"
        }
      ],
      "stateMutability": "view",
      "type": "function"
    },
    {
      "inputs": [
        {
          "internalType": "uint256",
          "name": "_pid",
          "type": "uint256"
        }
      ],
      "name": "billPremium",
      "outputs": [
        {
          "internalType": "bool",
          "name": "",
          "type": "bool"
        }
      ],
      "stateMutability": "nonpayable",
      "type": "function"
    },
    {
      "inputs": [
        {
          "internalType": "uint256",
          "name": "_poolCap",
          "type": "uint256"
        },
        {
          "internalType": "uint256",
          "name": "_apy",
          "type": "uint256"
        }
      ],
      "name": "calcRequiredPremiumBalancePerPeriod",
      "outputs": [
        {
          "internalType": "uint256",
          "name": "requiredPremiumBalance",
          "type": "uint256"
        }
      ],
      "stateMutability": "pure",
      "type": "function"
    },
    {
      "inputs": [
        {
          "internalType": "uint256",
          "name": "_pid",
          "type": "uint256"
        },
        {
          "internalType": "uint256",
          "name": "_stake",
          "type": "uint256"
        }
      ],
      "name": "calculateEffectiveAPY",
      "outputs": [
        {
          "internalType": "uint256",
          "name": "scaledAPY",
          "type": "uint256"
        }
      ],
      "stateMutability": "view",
      "type": "function"
    },
    {
      "inputs": [
        {
          "internalType": "uint256",
          "name": "_pid",
          "type": "uint256"
        },
        {
          "internalType": "uint256",
          "name": "_stake",
          "type": "uint256"
        },
        {
          "internalType": "uint256",
          "name": "_memX",
          "type": "uint256"
        }
      ],
      "name": "calculateEffectiveAPYConsolidate",
      "outputs": [
        {
          "internalType": "uint256",
          "name": "scaledAPY",
          "type": "uint256"
        }
      ],
      "stateMutability": "view",
      "type": "function"
    },
    {
      "inputs": [
        {
          "internalType": "uint256",
          "name": "_tokenId",
          "type": "uint256"
        }
      ],
      "name": "claimPremium",
      "outputs": [],
      "stateMutability": "nonpayable",
      "type": "function"
    },
    {
      "inputs": [
        {
          "internalType": "address",
          "name": "_saloonWallet",
          "type": "address"
        }
      ],
      "name": "collectAllSaloonProfits",
      "outputs": [
        {
          "internalType": "bool",
          "name": "",
          "type": "bool"
        }
      ],
      "stateMutability": "nonpayable",
      "type": "function"
    },
    {
      "inputs": [
        {
          "internalType": "address",
          "name": "_token",
          "type": "address"
        },
        {
          "internalType": "address",
          "name": "_saloonWallet",
          "type": "address"
        }
      ],
      "name": "collectSaloonProfits",
      "outputs": [
        {
          "internalType": "bool",
          "name": "",
          "type": "bool"
        }
      ],
      "stateMutability": "nonpayable",
      "type": "function"
    },
    {
      "inputs": [],
      "name": "consolidate",
      "outputs": [],
      "stateMutability": "nonpayable",
      "type": "function"
    },
    {
      "inputs": [
        {
          "internalType": "uint256",
          "name": "_pid",
          "type": "uint256"
        }
      ],
      "name": "consolidate",
      "outputs": [],
      "stateMutability": "nonpayable",
      "type": "function"
    },
    {
      "inputs": [],
      "name": "consolidateAll",
      "outputs": [],
      "stateMutability": "nonpayable",
      "type": "function"
    },
    {
      "inputs": [
        {
          "internalType": "uint256",
          "name": "tokenId",
          "type": "uint256"
        }
      ],
      "name": "getApproved",
      "outputs": [
        {
          "internalType": "address",
          "name": "",
          "type": "address"
        }
      ],
      "stateMutability": "view",
      "type": "function"
    },
    {
      "inputs": [
        {
          "internalType": "uint256",
          "name": "_pid",
          "type": "uint256"
        }
      ],
      "name": "getCurrentAPY",
      "outputs": [
        {
          "internalType": "uint256",
          "name": "currentAPY",
          "type": "uint256"
        }
      ],
      "stateMutability": "view",
      "type": "function"
    },
    {
      "inputs": [
        {
          "internalType": "uint256",
          "name": "_from",
          "type": "uint256"
        },
        {
          "internalType": "uint256",
          "name": "_to",
          "type": "uint256"
        }
      ],
      "name": "getMultiplier",
      "outputs": [
        {
          "internalType": "uint256",
          "name": "",
          "type": "uint256"
        }
      ],
      "stateMutability": "pure",
      "type": "function"
    },
    {
      "inputs": [],
      "name": "index",
      "outputs": [
        {
          "internalType": "uint256",
          "name": "",
          "type": "uint256"
        }
      ],
      "stateMutability": "view",
      "type": "function"
    },
    {
      "inputs": [
        {
          "internalType": "address",
          "name": "_strategyFactory",
          "type": "address"
        }
      ],
      "name": "initialize",
      "outputs": [],
      "stateMutability": "nonpayable",
      "type": "function"
    },
    {
      "inputs": [
        {
          "internalType": "address",
          "name": "owner",
          "type": "address"
        },
        {
          "internalType": "address",
          "name": "operator",
          "type": "address"
        }
      ],
      "name": "isApprovedForAll",
      "outputs": [
        {
          "internalType": "bool",
          "name": "",
          "type": "bool"
        }
      ],
      "stateMutability": "view",
      "type": "function"
    },
    {
      "inputs": [
        {
          "internalType": "uint256",
          "name": "_pid",
          "type": "uint256"
        },
        {
          "internalType": "uint256",
          "name": "_deposit",
          "type": "uint256"
        },
        {
          "internalType": "string",
          "name": "_strategyName",
          "type": "string"
        }
      ],
      "name": "makeProjectDeposit",
      "outputs": [],
      "stateMutability": "nonpayable",
      "type": "function"
    },
    {
      "inputs": [
        {
          "internalType": "address",
          "name": "",
          "type": "address"
        }
      ],
      "name": "minTokenStakeAmount",
      "outputs": [
        {
          "internalType": "uint256",
          "name": "",
          "type": "uint256"
        }
      ],
      "stateMutability": "view",
      "type": "function"
    },
    {
      "inputs": [],
      "name": "name",
      "outputs": [
        {
          "internalType": "string",
          "name": "",
          "type": "string"
        }
      ],
      "stateMutability": "view",
      "type": "function"
    },
    {
      "inputs": [
        {
          "internalType": "uint256",
          "name": "",
          "type": "uint256"
        }
      ],
      "name": "nftAPY",
      "outputs": [
        {
          "internalType": "uint256",
          "name": "",
          "type": "uint256"
        }
      ],
      "stateMutability": "view",
      "type": "function"
    },
    {
      "inputs": [
        {
          "internalType": "uint256",
          "name": "",
          "type": "uint256"
        }
      ],
      "name": "nftBalance",
      "outputs": [
        {
          "internalType": "uint256",
          "name": "",
          "type": "uint256"
        }
      ],
      "stateMutability": "view",
      "type": "function"
    },
    {
      "inputs": [
        {
          "internalType": "uint256",
          "name": "",
          "type": "uint256"
        }
      ],
      "name": "nftInfo",
      "outputs": [
        {
          "internalType": "uint256",
          "name": "amount",
          "type": "uint256"
        },
        {
          "internalType": "uint256",
          "name": "xDelta",
          "type": "uint256"
        },
        {
          "internalType": "uint256",
          "name": "apy",
          "type": "uint256"
        },
        {
          "internalType": "uint256",
          "name": "unclaimed",
          "type": "uint256"
        },
        {
          "internalType": "uint256",
          "name": "lastClaimedTime",
          "type": "uint256"
        },
        {
          "internalType": "uint256",
          "name": "timelock",
          "type": "uint256"
        },
        {
          "internalType": "uint256",
          "name": "timelimit",
          "type": "uint256"
        }
      ],
      "stateMutability": "view",
      "type": "function"
    },
    {
      "inputs": [
        {
          "internalType": "uint256",
          "name": "",
          "type": "uint256"
        }
      ],
      "name": "nftToPid",
      "outputs": [
        {
          "internalType": "uint256",
          "name": "",
          "type": "uint256"
        }
      ],
      "stateMutability": "view",
      "type": "function"
    },
    {
      "inputs": [],
      "name": "owner",
      "outputs": [
        {
          "internalType": "address",
          "name": "",
          "type": "address"
        }
      ],
      "stateMutability": "view",
      "type": "function"
    },
    {
      "inputs": [
        {
          "internalType": "uint256",
          "name": "tokenId",
          "type": "uint256"
        }
      ],
      "name": "ownerOf",
      "outputs": [
        {
          "internalType": "address",
          "name": "",
          "type": "address"
        }
      ],
      "stateMutability": "view",
      "type": "function"
    },
    {
      "inputs": [
        {
          "internalType": "uint256",
          "name": "_pid",
          "type": "uint256"
        },
        {
          "internalType": "address",
          "name": "_hunter",
          "type": "address"
        },
        {
          "internalType": "uint256",
          "name": "_amount",
          "type": "uint256"
        }
      ],
      "name": "payBounty",
      "outputs": [
        {
          "internalType": "bool",
          "name": "",
          "type": "bool"
        }
      ],
      "stateMutability": "nonpayable",
      "type": "function"
    },
    {
      "inputs": [
        {
          "internalType": "uint256",
          "name": "_tokenId",
          "type": "uint256"
        }
      ],
      "name": "pendingPremium",
      "outputs": [
        {
          "internalType": "uint256",
          "name": "totalPending",
          "type": "uint256"
        },
        {
          "internalType": "uint256",
          "name": "actualPending",
          "type": "uint256"
        },
        {
          "internalType": "uint256",
          "name": "newPending",
          "type": "uint256"
        }
      ],
      "stateMutability": "view",
      "type": "function"
    },
    {
      "inputs": [
        {
          "internalType": "uint256",
          "name": "",
          "type": "uint256"
        },
        {
          "internalType": "uint256",
          "name": "",
          "type": "uint256"
        }
      ],
      "name": "pidNFTList",
      "outputs": [
        {
          "internalType": "uint256",
          "name": "",
          "type": "uint256"
        }
      ],
      "stateMutability": "view",
      "type": "function"
    },
    {
      "inputs": [
        {
          "internalType": "uint256",
          "name": "",
          "type": "uint256"
        },
        {
          "internalType": "bytes32",
          "name": "",
          "type": "bytes32"
        }
      ],
      "name": "pidStrategies",
      "outputs": [
        {
          "internalType": "address",
          "name": "",
          "type": "address"
        }
      ],
      "stateMutability": "view",
      "type": "function"
    },
    {
      "inputs": [
        {
          "internalType": "uint256",
          "name": "",
          "type": "uint256"
        }
      ],
      "name": "poolInfo",
      "outputs": [
        {
          "components": [
            {
              "internalType": "contract IERC20",
              "name": "token",
              "type": "address"
            },
            {
              "internalType": "uint8",
              "name": "tokenDecimals",
              "type": "uint8"
            },
            {
              "internalType": "uint16",
              "name": "apy",
              "type": "uint16"
            },
            {
              "internalType": "address",
              "name": "projectWallet",
              "type": "address"
            },
            {
              "internalType": "string",
              "name": "projectName",
              "type": "string"
            },
            {
              "internalType": "uint256",
              "name": "poolCap",
              "type": "uint256"
            },
            {
              "internalType": "uint256",
              "name": "totalStaked",
              "type": "uint256"
            },
            {
              "internalType": "uint256",
              "name": "multiplier",
              "type": "uint256"
            }
          ],
          "internalType": "struct ISaloon.GeneralInfo",
          "name": "generalInfo",
          "type": "tuple"
        },
        {
          "components": [
            {
              "internalType": "uint256",
              "name": "projectDepositHeld",
              "type": "uint256"
            },
            {
              "internalType": "uint256",
              "name": "projectDepositInStrategy",
              "type": "uint256"
            }
          ],
          "internalType": "struct ISaloon.DepositInfo",
          "name": "depositInfo",
          "type": "tuple"
        },
        {
          "components": [
            {
              "internalType": "uint256",
              "name": "premiumBalance",
              "type": "uint256"
            },
            {
              "internalType": "uint256",
              "name": "premiumAvailable",
              "type": "uint256"
            }
          ],
          "internalType": "struct ISaloon.PremiumInfo",
          "name": "premiumInfo",
          "type": "tuple"
        },
        {
          "components": [
            {
              "internalType": "uint256",
              "name": "timelock",
              "type": "uint256"
            },
            {
              "internalType": "uint256",
              "name": "timeLimit",
              "type": "uint256"
            },
            {
              "internalType": "uint256",
              "name": "withdrawalScheduledAmount",
              "type": "uint256"
            },
            {
              "internalType": "bool",
              "name": "withdrawalExecuted",
              "type": "bool"
            }
          ],
          "internalType": "struct ISaloon.TimelockInfo",
          "name": "poolTimelock",
          "type": "tuple"
        },
        {
          "components": [
            {
              "internalType": "uint256",
              "name": "currentX",
              "type": "uint256"
            },
            {
              "internalType": "uint256",
              "name": "currentY",
              "type": "uint256"
            },
            {
              "internalType": "uint256",
              "name": "totalSupply",
              "type": "uint256"
            },
            {
              "internalType": "uint256[]",
              "name": "unstakedTokens",
              "type": "uint256[]"
            },
            {
              "internalType": "bool",
              "name": "needsConsolidation",
              "type": "bool"
            }
          ],
          "internalType": "struct ISaloon.TokenInfo",
          "name": "tokenInfo",
          "type": "tuple"
        },
        {
          "internalType": "uint256",
          "name": "freezeTime",
          "type": "uint256"
        },
        {
          "internalType": "bool",
          "name": "isActive",
          "type": "bool"
        }
      ],
      "stateMutability": "view",
      "type": "function"
    },
    {
      "inputs": [],
      "name": "poolLength",
      "outputs": [
        {
          "internalType": "uint256",
          "name": "",
          "type": "uint256"
        }
      ],
      "stateMutability": "view",
      "type": "function"
    },
    {
      "inputs": [
        {
          "internalType": "uint256",
          "name": "_pid",
          "type": "uint256"
        },
        {
          "internalType": "uint256",
          "name": "_amount",
          "type": "uint256"
        }
      ],
      "name": "projectDepositWithdrawal",
      "outputs": [
        {
          "internalType": "bool",
          "name": "",
          "type": "bool"
        }
      ],
      "stateMutability": "nonpayable",
      "type": "function"
    },
    {
      "inputs": [],
      "name": "proxiableUUID",
      "outputs": [
        {
          "internalType": "bytes32",
          "name": "",
          "type": "bytes32"
        }
      ],
      "stateMutability": "view",
      "type": "function"
    },
    {
      "inputs": [
        {
          "internalType": "address",
          "name": "from",
          "type": "address"
        },
        {
          "internalType": "address",
          "name": "to",
          "type": "address"
        },
        {
          "internalType": "uint256",
          "name": "tokenId",
          "type": "uint256"
        }
      ],
      "name": "safeTransferFrom",
      "outputs": [],
      "stateMutability": "nonpayable",
      "type": "function"
    },
    {
      "inputs": [
        {
          "internalType": "address",
          "name": "from",
          "type": "address"
        },
        {
          "internalType": "address",
          "name": "to",
          "type": "address"
        },
        {
          "internalType": "uint256",
          "name": "tokenId",
          "type": "uint256"
        },
        {
          "internalType": "bytes",
          "name": "data",
          "type": "bytes"
        }
      ],
      "name": "safeTransferFrom",
      "outputs": [],
      "stateMutability": "nonpayable",
      "type": "function"
    },
    {
      "inputs": [
        {
          "internalType": "address",
          "name": "",
          "type": "address"
        }
      ],
      "name": "saloonBountyProfit",
      "outputs": [
        {
          "internalType": "uint256",
          "name": "",
          "type": "uint256"
        }
      ],
      "stateMutability": "view",
      "type": "function"
    },
    {
      "inputs": [
        {
          "internalType": "address",
          "name": "",
          "type": "address"
        }
      ],
      "name": "saloonPremiumProfit",
      "outputs": [
        {
          "internalType": "uint256",
          "name": "",
          "type": "uint256"
        }
      ],
      "stateMutability": "view",
      "type": "function"
    },
    {
      "inputs": [
        {
          "internalType": "uint256",
          "name": "_pid",
          "type": "uint256"
        },
        {
          "internalType": "uint256",
          "name": "_amount",
          "type": "uint256"
        }
      ],
      "name": "scheduleProjectDepositWithdrawal",
      "outputs": [
        {
          "internalType": "bool",
          "name": "",
          "type": "bool"
        }
      ],
      "stateMutability": "nonpayable",
      "type": "function"
    },
    {
      "inputs": [
        {
          "internalType": "uint256",
          "name": "_tokenId",
          "type": "uint256"
        }
      ],
      "name": "scheduleUnstake",
      "outputs": [
        {
          "internalType": "bool",
          "name": "",
          "type": "bool"
        }
      ],
      "stateMutability": "nonpayable",
      "type": "function"
    },
    {
      "inputs": [
        {
          "internalType": "uint256",
          "name": "_pid",
          "type": "uint256"
        },
        {
          "internalType": "uint256",
          "name": "_poolCap",
          "type": "uint256"
        },
        {
          "internalType": "uint16",
          "name": "_apy",
          "type": "uint16"
        },
        {
          "internalType": "uint256",
          "name": "_deposit",
          "type": "uint256"
        },
        {
          "internalType": "string",
          "name": "_strategyName",
          "type": "string"
        }
      ],
      "name": "setAPYandPoolCapAndDeposit",
      "outputs": [],
      "stateMutability": "nonpayable",
      "type": "function"
    },
    {
      "inputs": [
        {
          "internalType": "address",
          "name": "operator",
          "type": "address"
        },
        {
          "internalType": "bool",
          "name": "approved",
          "type": "bool"
        }
      ],
      "name": "setApprovalForAll",
      "outputs": [],
      "stateMutability": "nonpayable",
      "type": "function"
    },
    {
      "inputs": [
        {
          "internalType": "uint256",
          "name": "_pid",
          "type": "uint256"
        },
        {
          "internalType": "uint256",
          "name": "_amount",
          "type": "uint256"
        }
      ],
      "name": "stake",
      "outputs": [
        {
          "internalType": "uint256",
          "name": "",
          "type": "uint256"
        }
      ],
      "stateMutability": "nonpayable",
      "type": "function"
    },
    {
      "inputs": [
        {
          "internalType": "bytes4",
          "name": "interfaceId",
          "type": "bytes4"
        }
      ],
      "name": "supportsInterface",
      "outputs": [
        {
          "internalType": "bool",
          "name": "",
          "type": "bool"
        }
      ],
      "stateMutability": "view",
      "type": "function"
    },
    {
      "inputs": [],
      "name": "symbol",
      "outputs": [
        {
          "internalType": "string",
          "name": "",
          "type": "string"
        }
      ],
      "stateMutability": "view",
      "type": "function"
    },
    {
      "inputs": [
        {
          "internalType": "uint256",
          "name": "tokenId",
          "type": "uint256"
        }
      ],
      "name": "tokenURI",
      "outputs": [
        {
          "internalType": "string",
          "name": "",
          "type": "string"
        }
      ],
      "stateMutability": "view",
      "type": "function"
    },
    {
      "inputs": [
        {
          "internalType": "address",
          "name": "",
          "type": "address"
        }
      ],
      "name": "tokenWhitelist",
      "outputs": [
        {
          "internalType": "bool",
          "name": "",
          "type": "bool"
        }
      ],
      "stateMutability": "view",
      "type": "function"
    },
    {
      "inputs": [
        {
          "internalType": "address",
          "name": "from",
          "type": "address"
        },
        {
          "internalType": "address",
          "name": "to",
          "type": "address"
        },
        {
          "internalType": "uint256",
          "name": "tokenId",
          "type": "uint256"
        }
      ],
      "name": "transferFrom",
      "outputs": [],
      "stateMutability": "nonpayable",
      "type": "function"
    },
    {
      "inputs": [
        {
          "internalType": "address",
          "name": "newOwner",
          "type": "address"
        }
      ],
      "name": "transferOwnership",
      "outputs": [],
      "stateMutability": "nonpayable",
      "type": "function"
    },
    {
      "inputs": [
        {
          "internalType": "uint256",
          "name": "_tokenId",
          "type": "uint256"
        },
        {
          "internalType": "bool",
          "name": "_shouldHarvest",
          "type": "bool"
        }
      ],
      "name": "unstake",
      "outputs": [
        {
          "internalType": "bool",
          "name": "",
          "type": "bool"
        }
      ],
      "stateMutability": "nonpayable",
      "type": "function"
    },
    {
      "inputs": [
        {
          "internalType": "address",
          "name": "_strategyFactory",
          "type": "address"
        }
      ],
      "name": "updateStrategyFactoryAddress",
      "outputs": [],
      "stateMutability": "nonpayable",
      "type": "function"
    },
    {
      "inputs": [
        {
          "internalType": "address",
          "name": "_token",
          "type": "address"
        },
        {
          "internalType": "bool",
          "name": "_whitelisted",
          "type": "bool"
        },
        {
          "internalType": "uint256",
          "name": "_minStakeAmount",
          "type": "uint256"
        }
      ],
      "name": "updateTokenWhitelist",
      "outputs": [
        {
          "internalType": "bool",
          "name": "",
          "type": "bool"
        }
      ],
      "stateMutability": "nonpayable",
      "type": "function"
    },
    {
      "inputs": [
        {
          "internalType": "address",
          "name": "newImplementation",
          "type": "address"
        }
      ],
      "name": "upgradeTo",
      "outputs": [],
      "stateMutability": "nonpayable",
      "type": "function"
    },
    {
      "inputs": [
        {
          "internalType": "address",
          "name": "newImplementation",
          "type": "address"
        },
        {
          "internalType": "bytes",
          "name": "data",
          "type": "bytes"
        }
      ],
      "name": "upgradeToAndCall",
      "outputs": [],
      "stateMutability": "payable",
      "type": "function"
    },
    {
      "inputs": [
        {
          "internalType": "uint256",
          "name": "_pid",
          "type": "uint256"
        }
      ],
      "name": "viewBountyBalance",
      "outputs": [
        {
          "internalType": "uint256",
          "name": "",
          "type": "uint256"
        }
      ],
      "stateMutability": "view",
      "type": "function"
    },
    {
      "inputs": [
        {
          "internalType": "uint256",
          "name": "_pid",
          "type": "uint256"
        }
      ],
      "name": "viewBountyInfo",
      "outputs": [
        {
          "internalType": "uint256",
          "name": "payout",
          "type": "uint256"
        },
        {
          "internalType": "uint256",
          "name": "apy",
          "type": "uint256"
        },
        {
          "internalType": "uint256",
          "name": "staked",
          "type": "uint256"
        },
        {
          "internalType": "uint256",
          "name": "poolCap",
          "type": "uint256"
        }
      ],
      "stateMutability": "view",
      "type": "function"
    },
    {
      "inputs": [
        {
          "internalType": "uint256",
          "name": "_pid",
          "type": "uint256"
        }
      ],
      "name": "viewHackerPayout",
      "outputs": [
        {
          "internalType": "uint256",
          "name": "",
          "type": "uint256"
        }
      ],
      "stateMutability": "view",
      "type": "function"
    },
    {
      "inputs": [
        {
          "internalType": "uint256",
          "name": "_pid",
          "type": "uint256"
        }
      ],
      "name": "viewMinProjectDeposit",
      "outputs": [
        {
          "internalType": "uint256",
          "name": "",
          "type": "uint256"
        }
      ],
      "stateMutability": "view",
      "type": "function"
    },
    {
      "inputs": [
        {
          "internalType": "uint256",
          "name": "_pid",
          "type": "uint256"
        }
      ],
      "name": "viewPoolAPY",
      "outputs": [
        {
          "internalType": "uint256",
          "name": "",
          "type": "uint256"
        }
      ],
      "stateMutability": "view",
      "type": "function"
    },
    {
      "inputs": [
        {
          "internalType": "uint256",
          "name": "_pid",
          "type": "uint256"
        }
      ],
      "name": "viewPoolCap",
      "outputs": [
        {
          "internalType": "uint256",
          "name": "",
          "type": "uint256"
        }
      ],
      "stateMutability": "view",
      "type": "function"
    },
    {
      "inputs": [
        {
          "internalType": "uint256",
          "name": "_pid",
          "type": "uint256"
        }
      ],
      "name": "viewPoolPremiumInfo",
      "outputs": [
        {
          "internalType": "uint256",
          "name": "requiredPremiumBalancePerPeriod",
          "type": "uint256"
        },
        {
          "internalType": "uint256",
          "name": "premiumBalance",
          "type": "uint256"
        },
        {
          "internalType": "uint256",
          "name": "premiumAvailable",
          "type": "uint256"
        }
      ],
      "stateMutability": "view",
      "type": "function"
    },
    {
      "inputs": [
        {
          "internalType": "uint256",
          "name": "_pid",
          "type": "uint256"
        }
      ],
      "name": "viewPoolTimelockInfo",
      "outputs": [
        {
          "internalType": "uint256",
          "name": "timelock",
          "type": "uint256"
        },
        {
          "internalType": "uint256",
          "name": "timeLimit",
          "type": "uint256"
        },
        {
          "internalType": "uint256",
          "name": "withdrawalScheduledAmount",
          "type": "uint256"
        }
      ],
      "stateMutability": "view",
      "type": "function"
    },
    {
      "inputs": [
        {
          "internalType": "address",
          "name": "_token",
          "type": "address"
        }
      ],
      "name": "viewSaloonProfitBalance",
      "outputs": [
        {
          "internalType": "uint256",
          "name": "totalProfit",
          "type": "uint256"
        },
        {
          "internalType": "uint256",
          "name": "bountyProfit",
          "type": "uint256"
        },
        {
          "internalType": "uint256",
          "name": "premiumProfit",
          "type": "uint256"
        }
      ],
      "stateMutability": "view",
      "type": "function"
    },
    {
      "inputs": [
        {
          "internalType": "uint256",
          "name": "_tokenId",
          "type": "uint256"
        }
      ],
      "name": "viewTokenInfo",
      "outputs": [
        {
          "internalType": "uint256",
          "name": "amount",
          "type": "uint256"
        },
        {
          "internalType": "uint256",
          "name": "apy",
          "type": "uint256"
        },
        {
          "internalType": "uint256",
          "name": "actualPending",
          "type": "uint256"
        },
        {
          "internalType": "uint256",
          "name": "unclaimed",
          "type": "uint256"
        },
        {
          "internalType": "uint256",
          "name": "timelock",
          "type": "uint256"
        }
      ],
      "stateMutability": "view",
      "type": "function"
    },
    {
      "inputs": [
        {
          "internalType": "uint256",
          "name": "_pid",
          "type": "uint256"
        }
      ],
      "name": "viewTotalStaked",
      "outputs": [
        {
          "internalType": "uint256",
          "name": "",
          "type": "uint256"
        }
      ],
      "stateMutability": "view",
      "type": "function"
    },
    {
      "inputs": [
        {
          "internalType": "uint256",
          "name": "_tokenId",
          "type": "uint256"
        }
      ],
      "name": "viewUserUnclaimed",
      "outputs": [
        {
          "internalType": "uint256",
          "name": "unclaimed",
          "type": "uint256"
        }
      ],
      "stateMutability": "view",
      "type": "function"
    },
    {
      "inputs": [
        {
          "internalType": "uint256",
          "name": "_pid",
          "type": "uint256"
        }
      ],
      "name": "windDownBounty",
      "outputs": [
        {
          "internalType": "bool",
          "name": "",
          "type": "bool"
        }
      ],
      "stateMutability": "nonpayable",
      "type": "function"
    }
  ],
  "bytecode": {
    "object": "0x60a0604052306080523480156200001557600080fd5b50600160ca55600054610100900460ff16158080156200003c5750600054600160ff909116105b806200006c575062000059306200019760201b62005e191760201c565b1580156200006c575060005460ff166001145b620000d55760405162461bcd60e51b815260206004820152602e60248201527f496e697469616c697a61626c653a20636f6e747261637420697320616c72656160448201526d191e481a5b9a5d1a585b1a5e995960921b60648201526084015b60405180910390fd5b6000805460ff191660011790558015620000f9576000805461ff0019166101001790555b620001496040518060400160405280600b81526020016a2137bab73a3caa37b5b2b760a91b8152506040518060400160405280600381526020016210951560ea1b815250620001a660201b60201c565b801562000190576000805461ff0019169055604051600181527f7f26b83ff96e1f2b6a682f133852f6798a09c465da95921460cefb38474024989060200160405180910390a15b5062000400565b6001600160a01b03163b151590565b600054610100900460ff16620002025760405162461bcd60e51b815260206004820152602b60248201526000805160206200924b83398151915260448201526a6e697469616c697a696e6760a81b6064820152608401620000cc565b6200020e828262000212565b5050565b600054610100900460ff166200026e5760405162461bcd60e51b815260206004820152602b60248201526000805160206200924b83398151915260448201526a6e697469616c697a696e6760a81b6064820152608401620000cc565b60fd6200027c838262000334565b5060fe6200028b828262000334565b505050565b634e487b7160e01b600052604160045260246000fd5b600181811c90821680620002bb57607f821691505b602082108103620002dc57634e487b7160e01b600052602260045260246000fd5b50919050565b601f8211156200028b57600081815260208120601f850160051c810160208610156200030b5750805b601f850160051c820191505b818110156200032c5782815560010162000317565b505050505050565b81516001600160401b0381111562000350576200035062000290565b6200036881620003618454620002a6565b84620002e2565b602080601f831160018114620003a05760008415620003875750858301515b600019600386901b1c1916600185901b1785556200032c565b600085815260208120601f198616915b82811015620003d157888601518255948401946001909101908401620003b0565b5085821015620003f05787850151600019600388901b60f8161c191681555b5050505050600190811b01905550565b608051618e136200043860003960008181611cb201528181611cf201528181612892015281816128d201526129650152618e136000f3fe60806040526004361061041b5760003560e01c8063753d75631161021e578063ae07f94811610123578063cf9564b9116100ab578063e985e9c51161007a578063e985e9c514610de3578063ecd7fbed14610e2d578063f2fde38b14610e4d578063f47ec3be14610e6d578063ff5e5b5f14610e8d57600080fd5b8063cf9564b914610d47578063dbdd695714610d67578063e45abd0f14610d87578063e63d6ee414610db557600080fd5b8063b88d4fde116100f2578063b88d4fde14610c99578063bb7019c114610cb9578063c4d66de814610cd9578063c87b56dd14610cf9578063ca00614814610d1957600080fd5b8063ae07f94814610c16578063b1a2d16f14610c36578063b20b242914610c56578063b842e87f14610c8457600080fd5b8063949a4a4a116101a65780639ebea88c116101755780639ebea88c14610b765780639f224f3514610b96578063a22cb46514610bb6578063a27f921314610bd6578063ac30b85614610bf657600080fd5b8063949a4a4a14610b0157806395d89b4114610b2157806396ea48e814610b36578063983c1ce014610b5657600080fd5b8063804fd590116101ed578063804fd59014610a63578063836ef1fa14610a83578063861e5f6614610aa35780638da5cb5b14610ac35780638dbb1e3a14610ae157600080fd5b8063753d7563146109dd57806375bfd63d14610a0e5780637b0472f014610a235780637fbf385314610a4357600080fd5b80633538fda01161032457806352d1902d116102ac5780636352211e1161027b5780636352211e146109515780636ac6d8121461097157806370a0823114610991578063718c7eef146109b1578063724f024b146109d157600080fd5b806352d1902d146108ce5780635669cbef146108e35780635c46f7b114610903578063612afc0c1461092357600080fd5b80633ac6ad7b116102f35780633ac6ad7b1461080057806340bd1d001461082057806340ef28681461085b57806342842e0e1461089b5780634f1ef286146108bb57600080fd5b80633538fda0146107725780633659cfe61461079257806339458723146107b257806339679ff4146107e057600080fd5b806319693071116103a757806323b872dd1161037657806323b872dd146106db5780632986c0e5146106fb5780632cb0dfcc146107125780632dbe051e1461073257806330ca07941461075257600080fd5b806319693071146105ce5780631c6b323f146105ff5780631df566221461061f5780631f8bc7901461064d57600080fd5b8063081e3eda116103ee578063081e3eda146104f1578063095ea7b314610511578063106d08df1461053357806310725852146105535780631526fe271461059b57600080fd5b806301ffc9a71461042057806306fdde0314610455578063074ecf0314610477578063081812fc146104d1575b600080fd5b34801561042c57600080fd5b5061044061043b3660046180b5565b610ead565b60405190151581526020015b60405180910390f35b34801561046157600080fd5b5061046a610eff565b60405161044c9190618122565b34801561048357600080fd5b506104b9610492366004618135565b6101396020908152600092835260408084209091529082529020546001600160a01b031681565b6040516001600160a01b03909116815260200161044c565b3480156104dd57600080fd5b506104b96104ec366004618157565b610f91565b3480156104fd57600080fd5b50610130545b60405190815260200161044c565b34801561051d57600080fd5b5061053161052c366004618185565b610fb9565b005b34801561053f57600080fd5b5061044061054e366004618157565b6110d3565b34801561055f57600080fd5b5061057361056e366004618157565b6111b2565b604080519586526020860194909452928401919091526060830152608082015260a00161044c565b3480156105a757600080fd5b506105bb6105b6366004618157565b61124a565b60405161044c979695949392919061822b565b3480156105da57600080fd5b506105036105e9366004618157565b6000908152610134602052604090206003015490565b34801561060b57600080fd5b5061050361061a366004618157565b611487565b34801561062b57600080fd5b5061050361063a366004618157565b6101326020526000908152604090205481565b34801561065957600080fd5b506106a6610668366004618157565b610134602052600090815260409020805460018201546002830154600384015460048501546005860154600690960154949593949293919290919087565b604080519788526020880196909652948601939093526060850191909152608084015260a083015260c082015260e00161044c565b3480156106e757600080fd5b506105316106f6366004618338565b61175c565b34801561070757600080fd5b506105036101035481565b34801561071e57600080fd5b5061044061072d366004618387565b61178d565b34801561073e57600080fd5b5061044061074d366004618157565b6119dc565b34801561075e57600080fd5b5061053161076d36600461845a565b6119f6565b34801561077e57600080fd5b5061053161078d3660046184ce565b611c7d565b34801561079e57600080fd5b506105316107ad3660046184ce565b611ca8565b3480156107be57600080fd5b506105036107cd3660046184ce565b61013d6020526000908152604090205481565b3480156107ec57600080fd5b506105036107fb366004618157565b611d87565b34801561080c57600080fd5b5061044061081b3660046184eb565b612047565b34801561082c57600080fd5b5061084061083b366004618157565b612459565b6040805193845260208401929092529082015260600161044c565b34801561086757600080fd5b5061087b610876366004618157565b612834565b60408051948552602085019390935291830152606082015260800161044c565b3480156108a757600080fd5b506105316108b6366004618338565b61286d565b6105316108c9366004618512565b612888565b3480156108da57600080fd5b50610503612958565b3480156108ef57600080fd5b506104406108fe366004618135565b612a0b565b34801561090f57600080fd5b5061050361091e366004618135565b612b31565b34801561092f57600080fd5b5061050361093e366004618157565b6101336020526000908152604090205481565b34801561095d57600080fd5b506104b961096c366004618157565b612f01565b34801561097d57600080fd5b5061050361098c366004618157565b612f61565b34801561099d57600080fd5b506105036109ac3660046184ce565b613230565b3480156109bd57600080fd5b506108406109cc3660046184ce565b6132b7565b34801561053157600080fd5b3480156109e957600080fd5b506104406109f83660046184ce565b61013b6020526000908152604090205460ff1681565b348015610a1a57600080fd5b506105316132f1565b348015610a2f57600080fd5b50610503610a3e366004618135565b613319565b348015610a4f57600080fd5b50610503610a5e366004618157565b6137da565b348015610a6f57600080fd5b50610503610a7e366004618562565b613ab9565b348015610a8f57600080fd5b50610503610a9e366004618135565b613e79565b348015610aaf57600080fd5b50610503610abe366004618157565b613eaf565b348015610acf57600080fd5b506033546001600160a01b03166104b9565b348015610aed57600080fd5b50610503610afc366004618135565b614194565b348015610b0d57600080fd5b50610531610b1c366004618157565b6141a0565b348015610b2d57600080fd5b5061046a614580565b348015610b4257600080fd5b50610503610b51366004618135565b61458f565b348015610b6257600080fd5b50610440610b71366004618135565b6145c1565b348015610b8257600080fd5b50610440610b913660046185c4565b61473b565b348015610ba257600080fd5b506104b9610bb1366004618157565b61492b565b348015610bc257600080fd5b50610531610bd13660046185f4565b614956565b348015610be257600080fd5b50610503610bf1366004618157565b614961565b348015610c0257600080fd5b50610840610c11366004618157565b614c24565b348015610c2257600080fd5b50610531610c31366004618622565b614efb565b348015610c4257600080fd5b50610840610c51366004618157565b614fc9565b348015610c6257600080fd5b50610503610c71366004618157565b61013a6020526000908152604090205481565b348015610c9057600080fd5b506105316152b5565b348015610ca557600080fd5b50610531610cb436600461865c565b615333565b348015610cc557600080fd5b50610440610cd4366004618157565b61536b565b348015610ce557600080fd5b50610531610cf43660046184ce565b615437565b348015610d0557600080fd5b5061046a610d14366004618157565b615564565b348015610d2557600080fd5b50610503610d343660046184ce565b6101376020526000908152604090205481565b348015610d5357600080fd5b50610440610d623660046186c8565b6155d7565b348015610d7357600080fd5b50610503610d82366004618157565b615652565b348015610d9357600080fd5b50610503610da23660046184ce565b6101366020526000908152604090205481565b348015610dc157600080fd5b50610503610dd0366004618157565b6101316020526000908152604090205481565b348015610def57600080fd5b50610440610dfe3660046186c8565b6001600160a01b0391821660009081526101026020908152604080832093909416825291909152205460ff1690565b348015610e3957600080fd5b50610440610e483660046184ce565b615912565b348015610e5957600080fd5b50610531610e683660046184ce565b6159d4565b348015610e7957600080fd5b50610531610e88366004618157565b615a63565b348015610e9957600080fd5b50610503610ea83660046186f6565b615a80565b60006001600160e01b031982166380ac58cd60e01b1480610ede57506001600160e01b03198216635b5e139f60e01b145b80610ef957506301ffc9a760e01b6001600160e01b03198316145b92915050565b606060fd8054610f0e90618722565b80601f0160208091040260200160405190810160405280929190818152602001828054610f3a90618722565b8015610f875780601f10610f5c57610100808354040283529160200191610f87565b820191906000526020600020905b815481529060010190602001808311610f6a57829003601f168201915b5050505050905090565b6000610f9c82615e28565b50600090815261010160205260409020546001600160a01b031690565b6000610fc482612f01565b9050806001600160a01b0316836001600160a01b0316036110365760405162461bcd60e51b815260206004820152602160248201527f4552433732313a20617070726f76616c20746f2063757272656e74206f776e656044820152603960f91b60648201526084015b60405180910390fd5b336001600160a01b038216148061105257506110528133610dfe565b6110c45760405162461bcd60e51b815260206004820152603d60248201527f4552433732313a20617070726f76652063616c6c6572206973206e6f7420746f60448201527f6b656e206f776e6572206f7220617070726f76656420666f7220616c6c000000606482015260840161102d565b6110ce8383615e87565b505050565b6000336110df83612f01565b6001600160a01b03161461112b5760405162461bcd60e51b815260206004820152601360248201527239b2b73232b91034b9903737ba1037bbb732b960691b604482015260640161102d565b6000828152610133602090815260408083205461013490925290912061115462093a8042618772565b600582015561116662093a8042618772565b611173906203f480618772565b60068201558054604051819084907fb3b9c925de3673837b40c6b4d4463a8f88dc821cd27e07f1ff6bf6abf96413a590600090a3506001949350505050565b600081815261013360209081526040808320546101348352818420825160e081018452815480825260018301549582019590955260028201549381018490526003820154606082015260048201546080820152600582015460a082015260069091015460c0820152929391928291829161122b88612459565b50606083015160a090930151989a979950979196919550909350505050565b610130818154811061125b57600080fd5b60009182526020918290206040805161010081018252601690930290910180546001600160a01b03808216855260ff600160a01b8304169585019590955261ffff600160a81b9091041691830191909152600181015490921660608201526002820180549293509091839160808401916112d490618722565b80601f016020809104026020016040519081016040528092919081815260200182805461130090618722565b801561134d5780601f106113225761010080835404028352916020019161134d565b820191906000526020600020905b81548152906001019060200180831161133057829003601f168201915b505050918352505060038201546020808301919091526004830154604080840191909152600590930154606092830152825180840184526006860154815260078601548183015283518085018552600887015481526009870154818401528451608081018652600a8801548152600b88015481850152600c88015481870152600d88015460ff16151581860152855160a081018752600e890180548252600f8a01548287015260108a01548289015260118a018054895181890281018901909a52808a52999a959994989397959692959194918601939290919083018282801561145657602002820191906000526020600020905b815481526020019060010190808311611442575b50505091835250506004919091015460ff908116151560209092019190915260148301546015909301549192911687565b600080610130838154811061149e5761149e618785565b6000918252602090912060408051610200810190915260169092020180546001600160a01b038082166101008501908152600160a01b830460ff16610120860152600160a81b90920461ffff1661014085015260018301541661016084015260028201805484929184916101808501919061151890618722565b80601f016020809104026020016040519081016040528092919081815260200182805461154490618722565b80156115915780601f1061156657610100808354040283529160200191611591565b820191906000526020600020905b81548152906001019060200180831161157457829003601f168201915b505050918352505060038201546020808301919091526004830154604080840191909152600590930154606092830152928452815180830183526006860154815260078601548185015284840152815180830183526008860154815260098601548185015284830152815160808082018452600a8701548252600b87015482860152600c87015482850152600d87015460ff1615158284015285830191909152825160a081018452600e870180548252600f880154828701526010880154828601526011880180548651818902810189019097528087529390970196919590949386019392908301828280156116a657602002820191906000526020600020905b815481526020019060010190808311611692575b50505091835250506004919091015460ff1615156020918201529082526013830180546040805182850281018501909152818152938301939283018282801561171857602002820191906000526020600020905b81546001600160a01b031681526001909101906020018083116116fa575b5050509183525050601482015460208083019190915260159092015460ff1615156040909101528181015190810151905191925061175591618772565b9392505050565b6117663382615ef6565b6117825760405162461bcd60e51b815260040161102d9061879b565b6110ce838383615f75565b60006117976160db565b6001600160a01b038416600090815261013b602052604090205460ff161515831514806117c2575082155b6118065760405162461bcd60e51b81526020600482015260156024820152741dda1a5d195b1a5cdd08185b1c9958591e481cd95d605a1b604482015260640161102d565b6001600160a01b038416600081815261013b6020526040808220805460ff191687151590811790915590519092917f99795d51e5a8804307721456a7a9c2f0d7421f719d46a46d36e91fee7c85aa7691a382156118be5761013c8054600181019091557fa55c1639d917d7b7cbf3837f1642937d4507076edbe26b1a6008234bb0c495300180546001600160a01b0319166001600160a01b038616908117909155600090815261013d602052604090208290556119d2565b61013c5460005b818110156119cf57600061013c82815481106118e3576118e3618785565b6000918252602090912001546001600160a01b039081169150871681036119be5761013c6119126001856187e8565b8154811061192257611922618785565b60009182526020909120015461013c80546001600160a01b03909216918490811061194f5761194f618785565b9060005260206000200160006101000a8154816001600160a01b0302191690836001600160a01b0316021790555061013c80548061198f5761198f6187fb565b600082815260209020810160001990810180546001600160a01b03191690550190555060019250611755915050565b506119c881618811565b90506118c5565b50505b5060019392505050565b60006119e66160db565b6119f1826000616135565b919050565b60006101308681548110611a0c57611a0c618785565b60009182526020909120601690910201601581015490915060ff16158015611a3657506003810154155b611a825760405162461bcd60e51b815260206004820152601860248201527f506f6f6c20616c726561647920696e697469616c697a65640000000000000000604482015260640161102d565b60008461ffff16118015611a9c57506127108461ffff1611155b611adb5760405162461bcd60e51b815260206004820152601060248201526f415059206f7574206f662072616e676560801b604482015260640161102d565b8054611af290600160a01b900460ff16600a61890e565b611afd90606461891d565b8510158015611b2f57508054611b1e90600160a01b900460ff16600a61890e565b611b2b906298968061891d565b8511155b611b735760405162461bcd60e51b8152602060048201526015602482015274506f6f6c20636170206f7574206f662072616e676560581b604482015260640161102d565b60018101546001600160a01b03163314611b9f5760405162461bcd60e51b815260040161102d90618934565b6000611baf868661ffff16613e79565b90506000612710611bc26103e88461891d565b611bcc9190618972565b9050611bf03330611bdd8589618772565b86546001600160a01b0316929190616280565b5084836006016000016000828254611c089190618772565b909155505060038301879055825461ffff60a81b1916600160a81b61ffff88160217835560158301805460ff1916600117905560088301829055611c4c81836187e8565b6009840155611c5f8861ffff88166162ee565b835115611c7357611c71888587616345565b505b5050505050505050565b611c856160db565b61013880546001600160a01b0319166001600160a01b0392909216919091179055565b6001600160a01b037f0000000000000000000000000000000000000000000000000000000000000000163003611cf05760405162461bcd60e51b815260040161102d90618994565b7f00000000000000000000000000000000000000000000000000000000000000006001600160a01b0316611d39600080516020618d97833981519152546001600160a01b031690565b6001600160a01b031614611d5f5760405162461bcd60e51b815260040161102d906189e0565b611d68816164df565b60408051600080825260208201909252611d84918391906164e7565b50565b6000806101308381548110611d9e57611d9e618785565b6000918252602090912060408051610200810190915260169092020180546001600160a01b038082166101008501908152600160a01b830460ff16610120860152600160a81b90920461ffff16610140850152600183015416610160840152600282018054849291849161018085019190611e1890618722565b80601f0160208091040260200160405190810160405280929190818152602001828054611e4490618722565b8015611e915780601f10611e6657610100808354040283529160200191611e91565b820191906000526020600020905b815481529060010190602001808311611e7457829003601f168201915b505050918352505060038201546020808301919091526004830154604080840191909152600590930154606092830152928452815180830183526006860154815260078601548185015284840152815180830183526008860154815260098601548185015284830152815160808082018452600a8701548252600b87015482860152600c87015482850152600d87015460ff1615158284015285830191909152825160a081018452600e870180548252600f88015482870152601088015482860152601188018054865181890281018901909752808752939097019691959094938601939290830182828015611fa657602002820191906000526020600020905b815481526020019060010190808311611f92575b50505091835250506004919091015460ff1615156020918201529082526013830180546040805182850281018501909152818152938301939283018282801561201857602002820191906000526020600020905b81546001600160a01b03168152600190910190602001808311611ffa575b50505091835250506014820154602082015260159091015460ff1615156040909101525160a001519392505050565b60006120516160db565b6000610130858154811061206757612067618785565b6000918252602082206004601690920201908101549092509061208987611487565b6120939083618772565b9050808286116122395782860361213a5760008881526101356020526040812054905b8181101561211c5760008a8152610135602052604081208054839081106120df576120df618785565b9060005260206000200154905060006101346000838152602001908152602001600020905061210f826000616652565b60009055506001016120b6565b50600060048601819055612134906013870190617eb2565b50612353565b60008361214f670de0b6b3a76400008961891d565b6121599190618972565b60008a815261013560205260408120549192505b818110156122315760008b81526101356020526040812080548390811061219657612196618785565b906000526020600020015490506000610134600083815260200190815260200160002090506121c6826000616652565b6000670de0b6b3a76400008683600001546121e1919061891d565b6121eb9190618972565b90508082600001600082825461220191906187e8565b909155505060048a01805482919060009061221d9084906187e8565b90915550506001909301925061216d915050565b505050612353565b82861180156122485750818611155b156123195760008881526101356020526040812054905b818110156122c55760008a81526101356020526040812080548390811061228857612288618785565b906000526020600020015490506000610134600083815260200190815260200160002090506122b8826000616652565b600090555060010161225f565b506000600486018190556122dd906013870190617eb2565b6122e68961678b565b5060006122f385896187e8565b90508086600601600001600082825461230c91906187e8565b9091555061235392505050565b60405162461bcd60e51b815260206004820152600f60248201526e082dadeeadce840e8dede40d0d2ced608b1b604482015260640161102d565b60006127106123646103e88961891d565b61236e9190618972565b9050600061237c82896187e8565b86546001600160a01b0316600090815261013660205260408120805492935084929091906123ab908490618772565b909155505085546123c6906001600160a01b03168a836168e9565b5060006123d28b611487565b60048801546123e19190618772565b87546040518b81529192506001600160a01b0390811691908c169042907fc351e6e0f377ec1a399ec84224a83d6a4b9f3cd9a5530e5c652d0b11c2f8dae29060200160405180910390a480848c600080516020618d7783398151915260405160405180910390a45060019a9950505050505050505050565b6000818152610133602052604081205461013080548392839290918391908390811061248757612487618785565b6000918252602090912060408051610200810190915260169092020180546001600160a01b038082166101008501908152600160a01b830460ff16610120860152600160a81b90920461ffff1661014085015260018301541661016084015260028201805484929184916101808501919061250190618722565b80601f016020809104026020016040519081016040528092919081815260200182805461252d90618722565b801561257a5780601f1061254f5761010080835404028352916020019161257a565b820191906000526020600020905b81548152906001019060200180831161255d57829003601f168201915b505050918352505060038201546020808301919091526004830154604080840191909152600590930154606092830152928452815180830183526006860154815260078601548185015284840152815180830183526008860154815260098601548185015284830152815160808082018452600a8701548252600b87015482860152600c87015482850152600d87015460ff1615158284015285830191909152825160a081018452600e870180548252600f8801548287015260108801548286015260118801805486518189028101890190975280875293909701969195909493860193929083018282801561268f57602002820191906000526020600020905b81548152602001906001019080831161267b575b50505091835250506004919091015460ff1615156020918201529082526013830180546040805182850281018501909152818152938301939283018282801561270157602002820191906000526020600020905b81546001600160a01b031681526001909101906020018083116126e3575b5050509183525050601482015460208083019190915260159092015460ff16151560409182015260008981526101348352818120825160e081018452815481526001820154948101949094526002810154928401929092526003820154606084015260048201546080840152600582015460a084015260069091015460c0808401919091528301519293509091810361279a57426127a0565b8260c001515b905060006127b2836080015183614194565b90506301e1338081612710856040015186600001516127d1919061891d565b6127db9190618972565b6127e5919061891d565b6127ef9190618972565b95508260600151866128019190618772565b97506127106128126103e8826187e8565b61281c908a61891d565b6128269190618972565b965050505050509193909250565b60008060008061284385613eaf565b935061284e85615652565b915061285985614961565b925061286485611d87565b90509193509193565b6110ce83838360405180602001604052806000815250615333565b6001600160a01b037f00000000000000000000000000000000000000000000000000000000000000001630036128d05760405162461bcd60e51b815260040161102d90618994565b7f00000000000000000000000000000000000000000000000000000000000000006001600160a01b0316612919600080516020618d97833981519152546001600160a01b031690565b6001600160a01b03161461293f5760405162461bcd60e51b815260040161102d906189e0565b612948826164df565b612954828260016164e7565b5050565b6000306001600160a01b037f000000000000000000000000000000000000000000000000000000000000000016146129f85760405162461bcd60e51b815260206004820152603860248201527f555550535570677261646561626c653a206d757374206e6f742062652063616c60448201527f6c6564207468726f7567682064656c656761746563616c6c0000000000000000606482015260840161102d565b50600080516020618d9783398151915290565b6000806101308481548110612a2257612a22618785565b9060005260206000209060160201905082612a3c85611487565b1015612a8a5760405162461bcd60e51b815260206004820152601a60248201527f416d6f756e7420626967676572207468616e206465706f736974000000000000604482015260640161102d565b60018101546001600160a01b03163314612ab65760405162461bcd60e51b815260040161102d90618934565b612ac362093a8042618772565b600a820155612ad562093a8042618772565b612ae2906203f480618772565b600b820155600c8101839055600d8101805460ff19169055604051839085907fb3b9c925de3673837b40c6b4d4463a8f88dc821cd27e07f1ff6bf6abf96413a590600090a35060019392505050565b6000806101308481548110612b4857612b48618785565b6000918252602090912060408051610200810190915260169092020180546001600160a01b038082166101008501908152600160a01b830460ff16610120860152600160a81b90920461ffff16610140850152600183015416610160840152600282018054849291849161018085019190612bc290618722565b80601f0160208091040260200160405190810160405280929190818152602001828054612bee90618722565b8015612c3b5780601f10612c1057610100808354040283529160200191612c3b565b820191906000526020600020905b815481529060010190602001808311612c1e57829003601f168201915b505050918352505060038201546020808301919091526004830154604080840191909152600590930154606092830152928452815180830183526006860154815260078601548185015284840152815180830183526008860154815260098601548185015284830152815160808082018452600a8701548252600b87015482860152600c87015482850152600d87015460ff1615158284015285830191909152825160a081018452600e870180548252600f88015482870152601088015482860152601188018054865181890281018901909752808752939097019691959094938601939290830182828015612d5057602002820191906000526020600020905b815481526020019060010190808311612d3c575b50505091835250506004919091015460ff16151560209182015290825260138301805460408051828502810185019091528181529383019392830182828015612dc257602002820191906000526020600020905b81546001600160a01b03168152600190910190602001808311612da4575b50505091835250506014820154602082015260159091015460ff1615156040909101526080810151519091506000612dfa868661691c565b5090506000612e098383618772565b90506000612e1882602161891d565b612e2a90674563918244f40000618772565b90506000612e3985602161891d565b612e4b90674563918244f40000618772565b90506000612e60612e5b84616979565b6169c2565b90506000612e70612e5b84616979565b90506000612eae612e816021616979565b612ea8612e8e86866169fa565b612ea26a295be96e64066972000000616979565b90616a09565b90616a18565b90506000612ebf88620f424061891d565b612ec99083618972565b8a5160e00151909150670de0b6b3a7640000612ee5828461891d565b612eef9190618972565b9e9d5050505050505050505050505050565b600081815260ff60205260408120546001600160a01b031680610ef95760405162461bcd60e51b8152602060048201526018602482015277115490cdcc8c4e881a5b9d985b1a59081d1bdad95b88125160421b604482015260640161102d565b6000806101308381548110612f7857612f78618785565b6000918252602090912060408051610200810190915260169092020180546001600160a01b038082166101008501908152600160a01b830460ff16610120860152600160a81b90920461ffff16610140850152600183015416610160840152600282018054849291849161018085019190612ff290618722565b80601f016020809104026020016040519081016040528092919081815260200182805461301e90618722565b801561306b5780601f106130405761010080835404028352916020019161306b565b820191906000526020600020905b81548152906001019060200180831161304e57829003601f168201915b505050918352505060038201546020808301919091526004830154604080840191909152600590930154606092830152928452815180830183526006860154815260078601548185015284840152815180830183526008860154815260098601548185015284830152815160808082018452600a8701548252600b87015482860152600c87015482850152600d87015460ff1615158284015285830191909152825160a081018452600e870180548252600f8801548287015260108801548286015260118801805486518189028101890190975280875293909701969195909493860193929083018282801561318057602002820191906000526020600020905b81548152602001906001019080831161316c575b50505091835250506004919091015460ff161515602091820152908252601383018054604080518285028101850190915281815293830193928301828280156131f257602002820191906000526020600020905b81546001600160a01b031681526001909101906020018083116131d4575b50505091835250506014820154602082015260159091015460ff161515604090910152905061322083611487565b815160c001516117559190618772565b60006001600160a01b03821661329a5760405162461bcd60e51b815260206004820152602960248201527f4552433732313a2061646472657373207a65726f206973206e6f7420612076616044820152683634b21037bbb732b960b91b606482015260840161102d565b506001600160a01b03166000908152610100602052604090205490565b6001600160a01b038116600090815261013660209081526040808320546101379092528220546132e78282618772565b949193509150565b565b6101305460005b8181101561295457613309816141a0565b61331281618811565b90506132f8565b6000613323616a30565b826000610130828154811061333a5761333a618785565b6000918252602090912060408051610200810190915260169092020180546001600160a01b038082166101008501908152600160a01b830460ff16610120860152600160a81b90920461ffff166101408501526001830154166101608401526002820180548492918491610180850191906133b490618722565b80601f01602080910402602001604051908101604052809291908181526020018280546133e090618722565b801561342d5780601f106134025761010080835404028352916020019161342d565b820191906000526020600020905b81548152906001019060200180831161341057829003601f168201915b505050918352505060038201546020808301919091526004830154604080840191909152600590930154606092830152928452815180830183526006860154815260078601548185015284840152815180830183526008860154815260098601548185015284830152815160808082018452600a8701548252600b87015482860152600c87015482850152600d87015460ff1615158284015285830191909152825160a081018452600e870180548252600f8801548287015260108801548286015260118801805486518189028101890190975280875293909701969195909493860193929083018282801561354257602002820191906000526020600020905b81548152602001906001019080831161352e575b50505091835250506004919091015460ff161515602091820152908252601383018054604080518285028101850190915281815293830193928301828280156135b457602002820191906000526020600020905b81546001600160a01b03168152600190910190602001808311613596575b50505091835250506014820154602082015260159091015460ff16151560409091015260e081015190915061361d5760405162461bcd60e51b815260206004820152600f60248201526e706f6f6c206e6f742061637469766560881b604482015260640161102d565b6000610130868154811061363357613633618785565b60009182526020808320601690920290910180546001600160a01b0316835261013d9091526040909120549091508510156136a45760405162461bcd60e51b8152602060048201526011602482015270135a5b881cdd185ad9481b9bdd081b595d607a1b604482015260640161102d565b600681015460048201546000916136ba91618772565b82549091506136d4906001600160a01b0316333089616280565b5060006136e2883389616a89565b9050868360000160040160008282546136fb9190618772565b909155505060038301541580159061371b57506003830154600484015411155b61375d5760405162461bcd60e51b8152602060048201526013602482015272115e18d959591959081c1bdbdb081b1a5b5a5d606a1b604482015260640161102d565b604051878152889033907f1449c6dd7851abc30abf37f57715f492010519147cc2652fbc38202c18a6ee909060200160405180910390a3600683015460048401546000916137aa91618772565b905080838a600080516020618d7783398151915260405160405180910390a450945050505050610ef9600160ca55565b60008061013083815481106137f1576137f1618785565b6000918252602090912060408051610200810190915260169092020180546001600160a01b038082166101008501908152600160a01b830460ff16610120860152600160a81b90920461ffff1661014085015260018301541661016084015260028201805484929184916101808501919061386b90618722565b80601f016020809104026020016040519081016040528092919081815260200182805461389790618722565b80156138e45780601f106138b9576101008083540402835291602001916138e4565b820191906000526020600020905b8154815290600101906020018083116138c757829003601f168201915b505050918352505060038201546020808301919091526004830154604080840191909152600590930154606092830152928452815180830183526006860154815260078601548185015284840152815180830183526008860154815260098601548185015284830152815160808082018452600a8701548252600b87015482860152600c87015482850152600d87015460ff1615158284015285830191909152825160a081018452600e870180548252600f880154828701526010880154828601526011880180548651818902810189019097528087529390970196919590949386019392908301828280156139f957602002820191906000526020600020905b8154815260200190600101908083116139e5575b50505091835250506004919091015460ff16151560209182015290825260138301805460408051828502810185019091528181529383019392830182828015613a6b57602002820191906000526020600020905b81546001600160a01b03168152600190910190602001808311613a4d575b50505091835250506014820154602082015260159091015460ff161515604090910152608081015151815160e0015191925090613aa782616cdc565b613ab1919061891d565b949350505050565b6000613ac36160db565b6001600160a01b038416600090815261013b602052604090205460ff16613b245760405162461bcd60e51b81526020600482015260156024820152741d1bdad95b881b9bdd081dda1a5d195b1a5cdd1959605a1b604482015260640161102d565b60408051600481526024810182526020810180516001600160e01b031663313ce56760e01b17905290516000916001600160a01b03871691613b669190618a2c565b600060405180830381855afa9150503d8060008114613ba1576040519150601f19603f3d011682016040523d82523d6000602084013e613ba6565b606091505b50915050600081806020019051810190613bc09190618a48565b9050613bca617ed0565b80516001600160a01b03808916909152815160ff8085166020928301528351898416606091820152845160809081018a9052855160006040918201819052875160a001819052875160e0908101829052885160c0908101839052878a0151839052858a01805184905280518901849052805185018490525186018390529089018290528801819052610130805460018101825591528751805160169092027f2f605e086faac1d93117bbfbc18835d434e9405fadc1ca66faf4b864746daf3481018054988301519483015161ffff16600160a81b0261ffff60a81b1995909816600160a01b026001600160a81b0319909916938a16939093179790971792909216949094178455918201517f2f605e086faac1d93117bbfbc18835d434e9405fadc1ca66faf4b864746daf3585018054919096166001600160a01b03199190911617909455928301518493919283917f2f605e086faac1d93117bbfbc18835d434e9405fadc1ca66faf4b864746daf3690910190613d489082618ab9565b5060a0820151600382015560c0820151600482015560e0909101516005909101556020828101518051600684015581015160078301556040808401518051600885015582015160098401556060808501518051600a86015580840151600b86015580830151600c860155810151600d8501805460ff191691151591909117905560808501518051600e860190815581850151600f8701559281015160108601559081015180519193613e0292601187019290910190617fea565b50608091909101516004909101805460ff191691151591909117905560a08201518051613e39916013840191602090910190618035565b5060c0820151601482015560e0909101516015909101805460ff191691151591909117905561013054613e6e906001906187e8565b979650505050505050565b60006301e1338061271062093a80613e91858761891d565b613e9b919061891d565b613ea59190618972565b6117559190618972565b6000806101308381548110613ec657613ec6618785565b6000918252602090912060408051610200810190915260169092020180546001600160a01b038082166101008501908152600160a01b830460ff16610120860152600160a81b90920461ffff16610140850152600183015416610160840152600282018054849291849161018085019190613f4090618722565b80601f0160208091040260200160405190810160405280929190818152602001828054613f6c90618722565b8015613fb95780601f10613f8e57610100808354040283529160200191613fb9565b820191906000526020600020905b815481529060010190602001808311613f9c57829003601f168201915b505050918352505060038201546020808301919091526004830154604080840191909152600590930154606092830152928452815180830183526006860154815260078601548185015284840152815180830183526008860154815260098601548185015284830152815160808082018452600a8701548252600b87015482860152600c87015482850152600d87015460ff1615158284015285830191909152825160a081018452600e870180548252600f880154828701526010880154828601526011880180548651818902810189019097528087529390970196919590949386019392908301828280156140ce57602002820191906000526020600020905b8154815260200190600101908083116140ba575b50505091835250506004919091015460ff1615156020918201529082526013830180546040805182850281018501909152818152938301939283018282801561414057602002820191906000526020600020905b81546001600160a01b03168152600190910190602001808311614122575b50505091835250506014820154602082015260159091015460ff16151560409091015290506127106141746103e8826187e8565b602083015151835160c0015161418a9190618772565b613ea5919061891d565b60006117558284616d31565b600061013082815481106141b6576141b6618785565b6000918252602090912060408051610200810190915260169092020180546001600160a01b038082166101008501908152600160a01b830460ff16610120860152600160a81b90920461ffff1661014085015260018301541661016084015260028201805484929184916101808501919061423090618722565b80601f016020809104026020016040519081016040528092919081815260200182805461425c90618722565b80156142a95780601f1061427e576101008083540402835291602001916142a9565b820191906000526020600020905b81548152906001019060200180831161428c57829003601f168201915b505050918352505060038201546020808301919091526004830154604080840191909152600590930154606092830152928452815180830183526006860154815260078601548185015284840152815180830183526008860154815260098601548185015284830152815160808082018452600a8701548252600b87015482860152600c87015482850152600d87015460ff1615158284015285830191909152825160a081018452600e870180548252600f880154828701526010880154828601526011880180548651818902810189019097528087529390970196919590949386019392908301828280156143be57602002820191906000526020600020905b8154815260200190600101908083116143aa575b50505091835250506004919091015460ff1615156020918201529082526013830180546040805182850281018501909152818152938301939283018282801561443057602002820191906000526020600020905b81546001600160a01b03168152600190910190602001808311614412575b50505091835250506014820154602082015260159091015460ff1615156040909101526080808201510151909150158061446c57508060e00151155b15614475575050565b600082815261013560209081526040808320805482518185028101850190935280835291929091908301828280156144cc57602002820191906000526020600020905b8154815260200190600101908083116144b8575b5050835193945060009250829150505b8281101561454f5760008482815181106144f8576144f8618785565b60209081029190910181015160008181526101349092526040909120805491925090614525898287615a80565b600283015560018201546145399086618772565b94505050508061454890618811565b90506144dc565b5080610130868154811061456557614565618785565b60009182526020909120601060169092020101555050505050565b606060fe8054610f0e90618722565b61013560205281600052604060002081815481106145ac57600080fd5b90600052602060002001600091509150505481565b60008061013084815481106145d8576145d8618785565b6000918252602090912060169091020160018101549091506001600160a01b031633146146175760405162461bcd60e51b815260040161102d90618934565b600a8101544211801561462d5750600b81015442105b801561463e5750600d81015460ff16155b801561464e5750600c8101548311155b801561465d5750600a81015415155b6146795760405162461bcd60e51b815260040161102d90618b79565b600d8101805460ff19166001179055600681015483111561469f5761469d8461678b565b505b60006146aa85611487565b60048301546146b99190618772565b9050838260060160000160008282546146d291906187e8565b9091555050600182015482546146f5916001600160a01b039182169116866168e9565b50600061470186611487565b60048401546147109190618772565b9050808287600080516020618d7783398151915260405160405180910390a450600195945050505050565b6000614745616a30565b3361474f84612f01565b6001600160a01b03161461479b5760405162461bcd60e51b815260206004820152601360248201527239b2b73232b91034b9903737ba1037bbb732b960691b604482015260640161102d565b600083815261013360205260408120546101308054919291839081106147c3576147c3618785565b906000526020600020906016020190506000610134600087815260200190815260200160002090504281600501541080156148015750428160060154115b61481d5760405162461bcd60e51b815260040161102d90618b79565b6148278686616652565b80546000808355600583018190556006830181905561484585611487565b60048501546148549190618772565b905086156148655761486588616d3d565b811561489757600484015461487a9083616d31565b60048501558354614895906001600160a01b031633846168e9565b505b604051828152859033907f7fc4727e062e336010f2c282598ef5f14facb3de68cf8195c2f23e1454b2b74e9060200160405180910390a360006148d986611487565b60048601546148e89190618772565b9050808287600080516020618d7783398151915260405160405180910390a45050506012909101805460ff1916600190811790915592505050610ef9600160ca55565b61013c818154811061493c57600080fd5b6000918252602090912001546001600160a01b0316905081565b612954338383616dfa565b600080610130838154811061497857614978618785565b6000918252602090912060408051610200810190915260169092020180546001600160a01b038082166101008501908152600160a01b830460ff16610120860152600160a81b90920461ffff166101408501526001830154166101608401526002820180548492918491610180850191906149f290618722565b80601f0160208091040260200160405190810160405280929190818152602001828054614a1e90618722565b8015614a6b5780601f10614a4057610100808354040283529160200191614a6b565b820191906000526020600020905b815481529060010190602001808311614a4e57829003601f168201915b505050918352505060038201546020808301919091526004830154604080840191909152600590930154606092830152928452815180830183526006860154815260078601548185015284840152815180830183526008860154815260098601548185015284830152815160808082018452600a8701548252600b87015482860152600c87015482850152600d87015460ff1615158284015285830191909152825160a081018452600e870180548252600f88015482870152601088015482860152601188018054865181890281018901909752808752939097019691959094938601939290830182828015614b8057602002820191906000526020600020905b815481526020019060010190808311614b6c575b50505091835250506004919091015460ff16151560209182015290825260138301805460408051828502810185019091528181529383019392830182828015614bf257602002820191906000526020600020905b81546001600160a01b03168152600190910190602001808311614bd4575b50505091835250506014820154602082015260159091015460ff1615156040918201529051015161ffff169392505050565b6000806000806101308581548110614c3e57614c3e618785565b6000918252602090912060408051610200810190915260169092020180546001600160a01b038082166101008501908152600160a01b830460ff16610120860152600160a81b90920461ffff16610140850152600183015416610160840152600282018054849291849161018085019190614cb890618722565b80601f0160208091040260200160405190810160405280929190818152602001828054614ce490618722565b8015614d315780601f10614d0657610100808354040283529160200191614d31565b820191906000526020600020905b815481529060010190602001808311614d1457829003601f168201915b505050918352505060038201546020808301919091526004830154604080840191909152600590930154606092830152928452815180830183526006860154815260078601548185015284840152815180830183526008860154815260098601548185015284830152815160808082018452600a8701548252600b87015482860152600c87015482850152600d87015460ff1615158284015285830191909152825160a081018452600e870180548252600f88015482870152601088015482860152601188018054865181890281018901909752808752939097019691959094938601939290830182828015614e4657602002820191906000526020600020905b815481526020019060010190808311614e32575b50505091835250506004919091015460ff16151560209182015290825260138301805460408051828502810185019091528181529383019392830182828015614eb857602002820191906000526020600020905b81546001600160a01b03168152600190910190602001808311614e9a575b5050509183525050601482015460208083019190915260159092015460ff1615156040918201526060909201518051918101519201519097919650945092505050565b60006101308481548110614f1157614f11618785565b6000918252602090912060169091020160018101549091506001600160a01b03163314614f505760405162461bcd60e51b815260040161102d90618934565b60068101546004820154600091614f6691618772565b8254909150614f80906001600160a01b0316333087616280565b5083826006016000016000828254614f989190618772565b909155505060068201546004830154600091614fb391618772565b9050614fc0868587616345565b50505050505050565b6000806000806101308581548110614fe357614fe3618785565b6000918252602090912060408051610200810190915260169092020180546001600160a01b038082166101008501908152600160a01b830460ff16610120860152600160a81b90920461ffff1661014085015260018301541661016084015260028201805484929184916101808501919061505d90618722565b80601f016020809104026020016040519081016040528092919081815260200182805461508990618722565b80156150d65780601f106150ab576101008083540402835291602001916150d6565b820191906000526020600020905b8154815290600101906020018083116150b957829003601f168201915b505050918352505060038201546020808301919091526004830154604080840191909152600590930154606092830152928452815180830183526006860154815260078601548185015284840152815180830183526008860154815260098601548185015284830152815160808082018452600a8701548252600b87015482860152600c87015482850152600d87015460ff1615158284015285830191909152825160a081018452600e870180548252600f880154828701526010880154828601526011880180548651818902810189019097528087529390970196919590949386019392908301828280156151eb57602002820191906000526020600020905b8154815260200190600101908083116151d7575b50505091835250506004919091015460ff1615156020918201529082526013830180546040805182850281018501909152818152938301939283018282801561525d57602002820191906000526020600020905b81546001600160a01b0316815260019091019060200180831161523f575b50505091835250506014820154602082015260159091015460ff161515604091820152815160a081015191015191925061529a9161ffff16613e79565b60409091015180516020909101519196909550909350915050565b6034546001600160a01b0316331461531e5760405162461bcd60e51b815260206004820152602660248201527f6f6e6c792070656e64696e67206f776e65722063616e2061636365707420747260448201526530b739b332b960d11b606482015260840161102d565b6034546132ef906001600160a01b0316616ec9565b61533d3383615ef6565b6153595760405162461bcd60e51b815260040161102d9061879b565b61536584848484616f26565b50505050565b600080610130838154811061538257615382618785565b6000918252602090912060169091020160018101549091506001600160a01b03163314806153ba57506033546001600160a01b031633145b6153d65760405162461bcd60e51b815260040161102d90618934565b601581015460ff1661541c5760405162461bcd60e51b815260206004820152600f60248201526e506f6f6c206e6f742061637469766560881b604482015260640161102d565b60158101805460ff1916905542601490910155506001919050565b600054610100900460ff16158080156154575750600054600160ff909116105b806154715750303b158015615471575060005460ff166001145b6154d45760405162461bcd60e51b815260206004820152602e60248201527f496e697469616c697a61626c653a20636f6e747261637420697320616c72656160448201526d191e481a5b9a5d1a585b1a5e995960921b606482015260840161102d565b6000805460ff1916600117905580156154f7576000805461ff0019166101001790555b6154ff616f59565b61013880546001600160a01b0319166001600160a01b0384161790558015612954576000805461ff0019169055604051600181527f7f26b83ff96e1f2b6a682f133852f6798a09c465da95921460cefb38474024989060200160405180910390a15050565b606061556f82615e28565b600061558660408051602081019091526000815290565b905060008151116155a65760405180602001604052806000815250611755565b806155b084616f88565b6040516020016155c1929190618bc2565b6040516020818303038152906040529392505050565b60006155e16160db565b6001600160a01b038316600090815261013760209081526040808320546101369092528220546156119190618772565b6001600160a01b0385166000818152610136602090815260408083208390556101379091528120559091506156479084836168e9565b506001949350505050565b600080610130838154811061566957615669618785565b6000918252602090912060408051610200810190915260169092020180546001600160a01b038082166101008501908152600160a01b830460ff16610120860152600160a81b90920461ffff166101408501526001830154166101608401526002820180548492918491610180850191906156e390618722565b80601f016020809104026020016040519081016040528092919081815260200182805461570f90618722565b801561575c5780601f106157315761010080835404028352916020019161575c565b820191906000526020600020905b81548152906001019060200180831161573f57829003601f168201915b505050918352505060038201546020808301919091526004830154604080840191909152600590930154606092830152928452815180830183526006860154815260078601548185015284840152815180830183526008860154815260098601548185015284830152815160808082018452600a8701548252600b87015482860152600c87015482850152600d87015460ff1615158284015285830191909152825160a081018452600e870180548252600f8801548287015260108801548286015260118801805486518189028101890190975280875293909701969195909493860193929083018282801561587157602002820191906000526020600020905b81548152602001906001019080831161585d575b50505091835250506004919091015460ff161515602091820152908252601383018054604080518285028101850190915281815293830193928301828280156158e357602002820191906000526020600020905b81546001600160a01b031681526001909101906020018083116158c5575b50505091835250506014820154602082015260159091015460ff1615156040909101525160c001519392505050565b600061591c6160db565b61013c5460005b818110156119d257600061013c828154811061594157615941618785565b60009182526020808320909101546001600160a01b0316808352610137825260408084205461013690935283205490935061597c9190618772565b90508060000361598d5750506159c4565b6001600160a01b0382166000818152610136602090815260408083208390556101379091528120556159c09087836168e9565b5050505b6159cd81618811565b9050615923565b6159dc6160db565b6001600160a01b038116615a415760405162461bcd60e51b815260206004820152602660248201527f4f776e61626c653a206e6577206f776e657220697320746865207a65726f206160448201526564647265737360d01b606482015260840161102d565b603480546001600160a01b0319166001600160a01b0392909216919091179055565b615a6b616a30565b615a76816001616652565b611d84600160ca55565b6000806101308581548110615a9757615a97618785565b6000918252602090912060408051610200810190915260169092020180546001600160a01b038082166101008501908152600160a01b830460ff16610120860152600160a81b90920461ffff16610140850152600183015416610160840152600282018054849291849161018085019190615b1190618722565b80601f0160208091040260200160405190810160405280929190818152602001828054615b3d90618722565b8015615b8a5780601f10615b5f57610100808354040283529160200191615b8a565b820191906000526020600020905b815481529060010190602001808311615b6d57829003601f168201915b505050918352505060038201546020808301919091526004830154604080840191909152600590930154606092830152928452815180830183526006860154815260078601548185015284840152815180830183526008860154815260098601548185015284830152815160808082018452600a8701548252600b87015482860152600c87015482850152600d87015460ff1615158284015285830191909152825160a081018452600e870180548252600f88015482870152601088015482860152601188018054865181890281018901909752808752939097019691959094938601939290830182828015615c9f57602002820191906000526020600020905b815481526020019060010190808311615c8b575b50505091835250506004919091015460ff16151560209182015290825260138301805460408051828502810185019091528181529383019392830182828015615d1157602002820191906000526020600020905b81546001600160a01b03168152600190910190602001808311615cf3575b50505091835250506014820154602082015260159091015460ff1615156040909101529050826000615d43878761691c565b5090506000615d528383618772565b90506000615d6182602161891d565b615d7390674563918244f40000618772565b90506000615d8285602161891d565b615d9490674563918244f40000618772565b90506000615da4612e5b84616979565b90506000615db4612e5b84616979565b90506000615dc5612e816021616979565b90506000615dd688620f424061891d565b615de09083618972565b8a5160e00151909150670de0b6b3a7640000615dfc828461891d565b615e069190618972565b9f9e505050505050505050505050505050565b6001600160a01b03163b151590565b600081815260ff60205260409020546001600160a01b0316611d845760405162461bcd60e51b8152602060048201526018602482015277115490cdcc8c4e881a5b9d985b1a59081d1bdad95b88125160421b604482015260640161102d565b60008181526101016020526040902080546001600160a01b0319166001600160a01b0384169081179091558190615ebd82612f01565b6001600160a01b03167f8c5be1e5ebec7d5bd14f71427d1e84f3dd0314c0f7b2291e5b200ac8c7c3b92560405160405180910390a45050565b600080615f0283612f01565b9050806001600160a01b0316846001600160a01b03161480615f4a57506001600160a01b038082166000908152610102602090815260408083209388168352929052205460ff165b80613ab15750836001600160a01b0316615f6384610f91565b6001600160a01b031614949350505050565b826001600160a01b0316615f8882612f01565b6001600160a01b031614615fae5760405162461bcd60e51b815260040161102d90618bf1565b6001600160a01b0382166160105760405162461bcd60e51b8152602060048201526024808201527f4552433732313a207472616e7366657220746f20746865207a65726f206164646044820152637265737360e01b606482015260840161102d565b826001600160a01b031661602382612f01565b6001600160a01b0316146160495760405162461bcd60e51b815260040161102d90618bf1565b60008181526101016020908152604080832080546001600160a01b03199081169091556001600160a01b03878116808652610100855283862080546000190190559087168086528386208054600101905586865260ff90945282852080549092168417909155905184937fddf252ad1be2c89b69c2b068fc378daa952ba7f163c4a11628f55a4df523b3ef91a4505050565b6033546001600160a01b031633146132ef5760405162461bcd60e51b815260206004820181905260248201527f4f776e61626c653a2063616c6c6572206973206e6f7420746865206f776e6572604482015260640161102d565b6000610130838154811061614b5761614b618785565b6000918252602082206016919091020160088101546003820154825492945085926161819190600160a81b900461ffff16613e79565b61618b91906187e8565b6161959190618772565b600183015483549192506161b7916001600160a01b0390811691163084616280565b5060006127106161c96103e88461891d565b6161d39190618972565b9050818360080160000160008282546161ec9190618772565b909155505082546001600160a01b0316600090815261013760205260408120805483929061621b908490618772565b909155506000905061622d82846187e8565b9050808460080160010160008282546162469190618772565b9091555050604051839087907fadb049ad2d09be3db90459a16aef1ad0a4d89e8fdcc1ade9429d6cc55abbcd2b90600090a3505050505050565b6040516001600160a01b03808516602483015283166044820152606481018290526000906156479086906323b872dd60e01b906084015b60408051601f198184030181529190526020810180516001600160e01b03166001600160e01b031990931692909217909152617019565b6000670eb5e06245ea000061630b670de0b6b3a76400008461891d565b6163159190618972565b905080610130848154811061632c5761632c618785565b6000918252602090912060056016909202010155505050565b600080610130858154811061635c5761635c618785565b9060005260206000209060160201905060008460405160200161637f9190618122565b60408051601f198184030181529181528151602092830120600089815261013a9093529120549091508082146164d55760006163ba8861678b565b905060006163c889896170eb565b90506001600160a01b038116156164b557806163e48389618772565b6006870180546000906163f89084906187e8565b9091555061640890508389618772565b60078701805460009061641c908490618772565b90915550616442905082616430858b618772565b88546001600160a01b031691906168e9565b5060405163d33b0aa760e01b8152600160048201526001600160a01b0382169063d33b0aa7906024016020604051808303816000875af115801561648a573d6000803e3d6000fd5b505050506040513d601f19601f820116820180604052508101906164ae9190618c36565b50506164d2565b868560060160000160008282546164cc9190618772565b90915550505b50505b5050509392505050565b611d846160db565b7f4910fdfa16fed3260ed0e7147f7cc6da11a60208b5b9406d12a635614ffd91435460ff161561651a576110ce8361722a565b826001600160a01b03166352d1902d6040518163ffffffff1660e01b8152600401602060405180830381865afa925050508015616574575060408051601f3d908101601f1916820190925261657191810190618c36565b60015b6165d75760405162461bcd60e51b815260206004820152602e60248201527f45524331393637557067726164653a206e657720696d706c656d656e7461746960448201526d6f6e206973206e6f74205555505360901b606482015260840161102d565b600080516020618d9783398151915281146166465760405162461bcd60e51b815260206004820152602960248201527f45524331393637557067726164653a20756e737570706f727465642070726f786044820152681a58589b195555525160ba1b606482015260840161102d565b506110ce8383836172c6565b6000828152610133602052604081205461013080549192918390811061667a5761667a618785565b600091825260208083208784526101349091526040832060169092020192509080806166a588612459565b925092509250866166f35784601401546000036166c257426166c8565b84601401545b8460040181905550808460030160008282546166e49190618772565b90915550505050505050505050565b6008850154831115616709576167098684616135565b8215611c735760006003850181905560148601549003616729574261672f565b84601401545b600485015560088501805484919060009061674b9084906187e8565b90915550506009850180548391906000906167679084906187e8565b90915550611c71905061677989612f01565b86546001600160a01b031690846168e9565b60008061013083815481106167a2576167a2618785565b6000918252602080832086845261013a9091526040832054601690920201925080156168e1576000858152610139602090815260408083208484528252808320548151637f1f087360e01b815291516001600160a01b0390911693928492637f1f08739260048083019392829003018187875af1158015616827573d6000803e3d6000fd5b505050506040513d601f19601f8201168201806040525081019061684b9190618c36565b60405163f840cb8360e01b815260016004820152602481018290529091506001600160a01b0383169063f840cb83906044016020604051808303816000875af115801561689c573d6000803e3d6000fd5b505050506040513d601f19601f820116820180604052508101906168c09190618c36565b9350838560060160000160008282546168d99190618772565b909155505050505b509392505050565b6040516001600160a01b0383166024820152604481018290526000906119d290859063a9059cbb60e01b906064016162b7565b600080610130848154811061693357616933618785565b6000918252602090912060036016909202010154616959670de0b6b3a76400008561891d565b6169639190618972565b905061697081600561891d565b91509250929050565b600061698f670de0b6b3a7640000600019618972565b8211156169b2576040516322630c4560e01b81526004810183905260240161102d565b670de0b6b3a76400008202610ef9565b6000610ef96714057b7ef767814f670de0b6b3a76400006169e86169e5866172eb565b90565b02816169f6576169f661895c565b0490565b60006117556169e583856187e8565b60006117556169e58484617421565b60006117556169e584670de0b6b3a7640000856174d5565b600260ca5403616a825760405162461bcd60e51b815260206004820152601f60248201527f5265656e7472616e637947756172643a207265656e7472616e742063616c6c00604482015260640161102d565b600260ca55565b60006001600160a01b038316616ae15760405162461bcd60e51b815260206004820152601f60248201527f45524332303a206d696e7420746f20746865207a65726f206164647265737300604482015260640161102d565b6000616aed8584612b31565b90506000616afa856175a9565b9050616b3c6040518060e00160405280600081526020016000815260200160008152602001600081526020016000815260200160008152602001600081525090565b8481526000616b4b888761691c565b509050674563918244f40000816101308a81548110616b6c57616b6c618785565b9060005260206000209060160201600e0160020154616b8b9190618772565b1115616bcf5760405162461bcd60e51b81526020600482015260136024820152721608189bdd5b99185c9e481d9a5bdb185d1959606a1b604482015260640161102d565b6020808301828152604080850187815242608087019081526000888152610134865283812088518155945160018087019190915592516002860155606088015160038601559051600485015560a0870151600585015560c08701516006909401939093558b83526101358452818320805491820181558352838320018690558582526101339092522088905561013080548291908a908110616c7357616c73618785565b9060005260206000209060160201600e016002016000828254616c969190618772565b92505081905550616ccf886101308a81548110616cb557616cb5618785565b9060005260206000209060160201600e0160020154617750565b5091979650505050505050565b600080670de0b6b3a7640000616cfa84670928ca80cfc2000061891d565b616d049190618972565b616d169067016345785d8a0000618772565b9050611755816ec097ce7bc90715b34b9f1000000000618972565b600061175582846187e8565b60008181526101336020908152604080832054610134835292819020815160e081018352815481526001820154938101939093526002810154918301919091526003810154606083015260048101546080830152600581015460a08301526006015460c0820152616dad83617784565b616db68361781b565b8051610130805484908110616dcd57616dcd618785565b9060005260206000209060160201600e016002016000828254616df091906187e8565b9091555050505050565b816001600160a01b0316836001600160a01b031603616e5b5760405162461bcd60e51b815260206004820152601960248201527f4552433732313a20617070726f766520746f2063616c6c657200000000000000604482015260640161102d565b6001600160a01b0383811660008181526101026020908152604080832094871680845294825291829020805460ff191686151590811790915591519182527f17307eab39ab6107e8899845ad3d59bd9653f200f220920489ca2b5937696c31910160405180910390a3505050565b603380546001600160a01b038381166001600160a01b03198084168217909455603480549094169093556040519116919082907f8be0079c531659141344cd1fd0a4f28419497f9722a3daafe3b4186f6b6457e090600090a35050565b616f31848484615f75565b616f3d848484846179e1565b6153655760405162461bcd60e51b815260040161102d90618c4f565b600054610100900460ff16616f805760405162461bcd60e51b815260040161102d90618ca1565b6132ef617adf565b60606000616f9583617b0f565b600101905060008167ffffffffffffffff811115616fb557616fb56183b7565b6040519080825280601f01601f191660200182016040528015616fdf576020820181803683370190505b5090508181016020015b600019016f181899199a1a9b1b9c1cb0b131b232b360811b600a86061a8153600a8504945084156168e157616fe9565b600061706e826040518060400160405280602081526020017f5361666545524332303a206c6f772d6c6576656c2063616c6c206661696c6564815250856001600160a01b0316617be79092919063ffffffff16565b8051909150156110ce578080602001905181019061708c9190618cec565b6110ce5760405162461bcd60e51b815260206004820152602a60248201527f5361666545524332303a204552433230206f7065726174696f6e20646964206e6044820152691bdd081cdd58d8d9595960b21b606482015260840161102d565b6000806000836040516020016171019190618122565b60408051601f198184030181529181528151602092830120600088815261013984528281208282529093529120549091506001600160a01b0316806171bb5761013854604051632f3802cf60e11b81526001600160a01b0390911690635e70059e90617171908890600401618122565b6020604051808303816000875af1158015617190573d6000803e3d6000fd5b505050506040513d601f19601f820116820180604052508101906171b49190618d09565b92506171c5565b9250610ef9915050565b6001600160a01b0383166171df5760009350505050610ef9565b50600085815261013960209081526040808320848452825280832080546001600160a01b0319166001600160a01b03871617905596825261013a905294909420939093555090919050565b6001600160a01b0381163b6172975760405162461bcd60e51b815260206004820152602d60248201527f455243313936373a206e657720696d706c656d656e746174696f6e206973206e60448201526c1bdd08184818dbdb9d1c9858dd609a1b606482015260840161102d565b600080516020618d9783398151915280546001600160a01b0319166001600160a01b0392909216919091179055565b6172cf83617bf6565b6000825111806172dc5750805b156110ce576153658383617c36565b600081670de0b6b3a764000081101561731a57604051633621413760e21b81526004810184905260240161102d565b60006173a6670de0b6b3a7640000830460016fffffffffffffffffffffffffffffffff821160071b91821c67ffffffffffffffff811160061b90811c63ffffffff811160051b90811c61ffff811160041b90811c60ff8111600390811b91821c600f811160021b90811c918211871b91821c969096119490961792909217171791909117919091171790565b9050670de0b6b3a7640000810282821c670de0b6b3a763ffff1981016173d257815b9695505050505050565b671bc16d674ec800006706f05b59d3b200005b801561741557670de0b6b3a764000083800204925081831061740d579283019260019290921c915b60011c6173e5565b50919695505050505050565b60008080600019848609848602925082811083820303915050670de0b6b3a7640000811061746c5760405163090638d560e41b8152600481018690526024810185905260440161102d565b6000670de0b6b3a7640000858709905081600003617498575050670de0b6b3a764000090049050610ef9565b620400008184030492109003600160ee1b02177faccb18165bd6fe31ae1cf318dc5b51eee0e1ba569b88cd74c1773b91fac1066902905092915050565b600080806000198587098587029250828110838203039150508060000361750f578382816175055761750561895c565b0492505050611755565b838110617540576040516307639aaf60e41b815260048101879052602481018690526044810185905260640161102d565b60008486880960026001871981018816978890046003810283188082028403028082028403028082028403028082028403028082028403029081029092039091026000889003889004909101858311909403939093029303949094049190911702949350505050565b600080610103600081546175bc90618811565b918290555090506001600160a01b0383166176195760405162461bcd60e51b815260206004820181905260248201527f4552433732313a206d696e7420746f20746865207a65726f2061646472657373604482015260640161102d565b600081815260ff60205260409020546001600160a01b03161561767e5760405162461bcd60e51b815260206004820152601c60248201527f4552433732313a20746f6b656e20616c7265616479206d696e74656400000000604482015260640161102d565b600081815260ff60205260409020546001600160a01b0316156176e35760405162461bcd60e51b815260206004820152601c60248201527f4552433732313a20746f6b656e20616c7265616479206d696e74656400000000604482015260640161102d565b6001600160a01b0383166000818152610100602090815260408083208054600101905584835260ff90915280822080546001600160a01b0319168417905551839291907fddf252ad1be2c89b69c2b068fc378daa952ba7f163c4a11628f55a4df523b3ef908290a4610ef9565b600081610130848154811061776757617767618785565b60009182526020909120600e601690920201015550600192915050565b600061778f82612f01565b905061779a82612f01565b60008381526101016020908152604080832080546001600160a01b03199081169091556001600160a01b0385168085526101008452828520805460001901905587855260ff909352818420805490911690555192935084927fddf252ad1be2c89b69c2b068fc378daa952ba7f163c4a11628f55a4df523b3ef908390a45050565b600081815261013360209081526040808320548084526101358352818420805483518186028101860190945280845291949390919083018282801561787f57602002820191906000526020600020905b81548152602001906001019080831161786b575b5050835193945060009250829150505b828110156178cf57858482815181106178aa576178aa618785565b6020026020010151036178bf578091506178cf565b6178c881618811565b905061788f565b5081811061791f5760405162461bcd60e51b815260206004820152601860248201527f546f6b656e206e6f7420666f756e6420696e2061727261790000000000000000604482015260640161102d565b805b61792c6001846187e8565b811015617984578361793f826001618772565b8151811061794f5761794f618785565b602002602001015184828151811061796957617969618785565b602090810291909101015261797d81618811565b9050617921565b5060008481526101356020908152604090912084516179a592860190617fea565b506000848152610135602052604090208054806179c4576179c46187fb565b600190038181906000526020600020016000905590555050505050565b60006001600160a01b0384163b15617ad757604051630a85bd0160e11b81526001600160a01b0385169063150b7a0290617a25903390899088908890600401618d26565b6020604051808303816000875af1925050508015617a60575060408051601f3d908101601f19168201909252617a5d91810190618d59565b60015b617abd573d808015617a8e576040519150601f19603f3d011682016040523d82523d6000602084013e617a93565b606091505b508051600003617ab55760405162461bcd60e51b815260040161102d90618c4f565b805181602001fd5b6001600160e01b031916630a85bd0160e11b149050613ab1565b506001613ab1565b600054610100900460ff16617b065760405162461bcd60e51b815260040161102d90618ca1565b6132ef33616ec9565b60008072184f03e93ff9f4daa797ed6e38ed64bf6a1f0160401b8310617b4e5772184f03e93ff9f4daa797ed6e38ed64bf6a1f0160401b830492506040015b6d04ee2d6d415b85acef81000000008310617b7a576d04ee2d6d415b85acef8100000000830492506020015b662386f26fc100008310617b9857662386f26fc10000830492506010015b6305f5e1008310617bb0576305f5e100830492506008015b6127108310617bc457612710830492506004015b60648310617bd6576064830492506002015b600a8310610ef95760010192915050565b6060613ab18484600085617d2a565b617bff8161722a565b6040516001600160a01b038216907fbc7cd75a20ee27fd9adebab32041f755214dbc6bffa90cc0225b39da2e5c2d3b90600090a250565b60606001600160a01b0383163b617c9e5760405162461bcd60e51b815260206004820152602660248201527f416464726573733a2064656c65676174652063616c6c20746f206e6f6e2d636f6044820152651b9d1c9858dd60d21b606482015260840161102d565b600080846001600160a01b031684604051617cb99190618a2c565b600060405180830381855af49150503d8060008114617cf4576040519150601f19603f3d011682016040523d82523d6000602084013e617cf9565b606091505b5091509150617d218282604051806060016040528060278152602001618db760279139617dfa565b95945050505050565b606082471015617d8b5760405162461bcd60e51b815260206004820152602660248201527f416464726573733a20696e73756666696369656e742062616c616e636520666f6044820152651c8818d85b1b60d21b606482015260840161102d565b600080866001600160a01b03168587604051617da79190618a2c565b60006040518083038185875af1925050503d8060008114617de4576040519150601f19603f3d011682016040523d82523d6000602084013e617de9565b606091505b5091509150613e6e87838387617e13565b60608315617e09575081611755565b6117558383617e88565b60608315617e82578251600003617e7b576001600160a01b0385163b617e7b5760405162461bcd60e51b815260206004820152601d60248201527f416464726573733a2063616c6c20746f206e6f6e2d636f6e7472616374000000604482015260640161102d565b5081613ab1565b613ab183835b815115617e985781518083602001fd5b8060405162461bcd60e51b815260040161102d9190618122565b5080546000825590600052602060002090810190611d84919061808a565b6040805161020081019091526000610100820181815261012083018290526101408301829052610160830182905260606101808401526101a083018290526101c083018290526101e083019190915281908152602001617f43604051806040016040528060008152602001600081525090565b8152602001617f65604051806040016040528060008152602001600081525090565b8152602001617f9760405180608001604052806000815260200160008152602001600081526020016000151581525090565b8152602001617fd06040518060a00160405280600081526020016000815260200160008152602001606081526020016000151581525090565b815260606020820181905260006040830181905291015290565b828054828255906000526020600020908101928215618025579160200282015b8281111561802557825182559160200191906001019061800a565b5061803192915061808a565b5090565b828054828255906000526020600020908101928215618025579160200282015b8281111561802557825182546001600160a01b0319166001600160a01b03909116178255602090920191600190910190618055565b5b80821115618031576000815560010161808b565b6001600160e01b031981168114611d8457600080fd5b6000602082840312156180c757600080fd5b81356117558161809f565b60005b838110156180ed5781810151838201526020016180d5565b50506000910152565b6000815180845261810e8160208601602086016180d2565b601f01601f19169290920160200192915050565b60208152600061175560208301846180f6565b6000806040838503121561814857600080fd5b50508035926020909101359150565b60006020828403121561816957600080fd5b5035919050565b6001600160a01b0381168114611d8457600080fd5b6000806040838503121561819857600080fd5b82356181a381618170565b946020939093013593505050565b600060a08301825184526020808401518186015260408401516040860152606084015160a0606087015282815180855260c0880191508383019450600092505b8083101561821157845182529383019360019290920191908301906181f1565b506080860151151560808801528094505050505092915050565b61018080825288516001600160a01b0390811691830191909152602089015160ff166101a0830152604089015161ffff166101c08301526060890151166101e0820152608088015161010061020083015260009061828d6102808401826180f6565b905060a08a015161022084015260c08a015161024084015260e08a01516102608401526182c7602084018a80518252602090810151910152565b8751606084015260208801516080840152865160a0840152602087015160c0840152604087015160e08401526060870151151561010084015282810361012084015261831381876181b1565b9150508361014083015261832c61016083018415159052565b98975050505050505050565b60008060006060848603121561834d57600080fd5b833561835881618170565b9250602084013561836881618170565b929592945050506040919091013590565b8015158114611d8457600080fd5b60008060006060848603121561839c57600080fd5b83356183a781618170565b9250602084013561836881618379565b634e487b7160e01b600052604160045260246000fd5b600082601f8301126183de57600080fd5b813567ffffffffffffffff808211156183f9576183f96183b7565b604051601f8301601f19908116603f01168101908282118183101715618421576184216183b7565b8160405283815286602085880101111561843a57600080fd5b836020870160208301376000602085830101528094505050505092915050565b600080600080600060a0868803121561847257600080fd5b8535945060208601359350604086013561ffff8116811461849257600080fd5b925060608601359150608086013567ffffffffffffffff8111156184b557600080fd5b6184c1888289016183cd565b9150509295509295909350565b6000602082840312156184e057600080fd5b813561175581618170565b60008060006060848603121561850057600080fd5b83359250602084013561836881618170565b6000806040838503121561852557600080fd5b823561853081618170565b9150602083013567ffffffffffffffff81111561854c57600080fd5b618558858286016183cd565b9150509250929050565b60008060006060848603121561857757600080fd5b833561858281618170565b9250602084013561859281618170565b9150604084013567ffffffffffffffff8111156185ae57600080fd5b6185ba868287016183cd565b9150509250925092565b600080604083850312156185d757600080fd5b8235915060208301356185e981618379565b809150509250929050565b6000806040838503121561860757600080fd5b823561861281618170565b915060208301356185e981618379565b60008060006060848603121561863757600080fd5b8335925060208401359150604084013567ffffffffffffffff8111156185ae57600080fd5b6000806000806080858703121561867257600080fd5b843561867d81618170565b9350602085013561868d81618170565b925060408501359150606085013567ffffffffffffffff8111156186b057600080fd5b6186bc878288016183cd565b91505092959194509250565b600080604083850312156186db57600080fd5b82356186e681618170565b915060208301356185e981618170565b60008060006060848603121561870b57600080fd5b505081359360208301359350604090920135919050565b600181811c9082168061873657607f821691505b60208210810361875657634e487b7160e01b600052602260045260246000fd5b50919050565b634e487b7160e01b600052601160045260246000fd5b80820180821115610ef957610ef961875c565b634e487b7160e01b600052603260045260246000fd5b6020808252602d908201527f4552433732313a2063616c6c6572206973206e6f7420746f6b656e206f776e6560408201526c1c881bdc88185c1c1c9bdd9959609a1b606082015260800190565b81810381811115610ef957610ef961875c565b634e487b7160e01b600052603160045260246000fd5b6000600182016188235761882361875c565b5060010190565b600181815b8085111561886557816000190482111561884b5761884b61875c565b8085161561885857918102915b93841c939080029061882f565b509250929050565b60008261887c57506001610ef9565b8161888957506000610ef9565b816001811461889f57600281146188a9576188c5565b6001915050610ef9565b60ff8411156188ba576188ba61875c565b50506001821b610ef9565b5060208310610133831016604e8410600b84101617156188e8575081810a610ef9565b6188f2838361882a565b80600019048211156189065761890661875c565b029392505050565b600061175560ff84168361886d565b8082028115828204841417610ef957610ef961875c565b6020808252600e908201526d139bdd08185d5d1a1bdc9a5e995960921b604082015260600190565b634e487b7160e01b600052601260045260246000fd5b60008261898f57634e487b7160e01b600052601260045260246000fd5b500490565b6020808252602c908201527f46756e6374696f6e206d7573742062652063616c6c6564207468726f7567682060408201526b19195b1959d85d1958d85b1b60a21b606082015260800190565b6020808252602c908201527f46756e6374696f6e206d7573742062652063616c6c6564207468726f7567682060408201526b6163746976652070726f787960a01b606082015260800190565b60008251618a3e8184602087016180d2565b9190910192915050565b600060208284031215618a5a57600080fd5b815160ff8116811461175557600080fd5b601f8211156110ce57600081815260208120601f850160051c81016020861015618a925750805b601f850160051c820191505b81811015618ab157828155600101618a9e565b505050505050565b815167ffffffffffffffff811115618ad357618ad36183b7565b618ae781618ae18454618722565b84618a6b565b602080601f831160018114618b1c5760008415618b045750858301515b600019600386901b1c1916600185901b178555618ab1565b600085815260208120601f198616915b82811015618b4b57888601518255948401946001909101908401618b2c565b5085821015618b695787850151600019600388901b60f8161c191681555b5050505050600190811b01905550565b60208082526029908201527f54696d656c6f636b206e6f7420736574206f72206e6f7420636f6d706c6574656040820152686420696e2074696d6560b81b606082015260800190565b60008351618bd48184602088016180d2565b835190830190618be88183602088016180d2565b01949350505050565b60208082526025908201527f4552433732313a207472616e736665722066726f6d20696e636f72726563742060408201526437bbb732b960d91b606082015260800190565b600060208284031215618c4857600080fd5b5051919050565b60208082526032908201527f4552433732313a207472616e7366657220746f206e6f6e20455243373231526560408201527131b2b4bb32b91034b6b83632b6b2b73a32b960711b606082015260800190565b6020808252602b908201527f496e697469616c697a61626c653a20636f6e7472616374206973206e6f74206960408201526a6e697469616c697a696e6760a81b606082015260800190565b600060208284031215618cfe57600080fd5b815161175581618379565b600060208284031215618d1b57600080fd5b815161175581618170565b6001600160a01b03858116825284166020820152604081018390526080606082018190526000906173c8908301846180f6565b600060208284031215618d6b57600080fd5b81516117558161809f56fea3ea4fb8dee4d414198cb197af6eae4fe483c1a0b849dc50e53b9bf1a60e2166360894a13ba1a3210667c828492db98dca3e2076cc3735a920a3ca505d382bbc416464726573733a206c6f772d6c6576656c2064656c65676174652063616c6c206661696c6564a2646970667358221220d0438fd4a442c2ef24eb6cb0dfcb116725c948666cc4d6338f57d4837110a86b64736f6c63430008110033496e697469616c697a61626c653a20636f6e7472616374206973206e6f742069",
    "linkReferences": {}
  },
  "methodIdentifiers": {
    "acceptOwnershipTransfer()": "b842e87f",
    "activeStrategies(uint256)": "b20b2429",
    "activeTokens(uint256)": "9f224f35",
    "addNewBountyPool(address,address,string)": "804fd590",
    "approve(address,uint256)": "095ea7b3",
    "balanceOf(address)": "70a08231",
    "billPremium(uint256)": "2dbe051e",
    "calcRequiredPremiumBalancePerPeriod(uint256,uint256)": "836ef1fa",
    "calculateEffectiveAPY(uint256,uint256)": "5c46f7b1",
    "calculateEffectiveAPYConsolidate(uint256,uint256,uint256)": "ff5e5b5f",
    "claimPremium(uint256)": "f47ec3be",
    "collectAllSaloonProfits(address)": "ecd7fbed",
    "collectSaloonProfits(address,address)": "cf9564b9",
    "consolidate()": "724f024b",
    "consolidate(uint256)": "949a4a4a",
    "consolidateAll()": "75bfd63d",
    "getApproved(uint256)": "081812fc",
    "getCurrentAPY(uint256)": "7fbf3853",
    "getMultiplier(uint256,uint256)": "8dbb1e3a",
    "index()": "2986c0e5",
    "initialize(address)": "c4d66de8",
    "isApprovedForAll(address,address)": "e985e9c5",
    "makeProjectDeposit(uint256,uint256,string)": "ae07f948",
    "minTokenStakeAmount(address)": "39458723",
    "name()": "06fdde03",
    "nftAPY(uint256)": "1df56622",
    "nftBalance(uint256)": "e63d6ee4",
    "nftInfo(uint256)": "1f8bc790",
    "nftToPid(uint256)": "612afc0c",
    "owner()": "8da5cb5b",
    "ownerOf(uint256)": "6352211e",
    "payBounty(uint256,address,uint256)": "3ac6ad7b",
    "pendingPremium(uint256)": "40bd1d00",
    "pidNFTList(uint256,uint256)": "96ea48e8",
    "pidStrategies(uint256,bytes32)": "074ecf03",
    "poolInfo(uint256)": "1526fe27",
    "poolLength()": "081e3eda",
    "projectDepositWithdrawal(uint256,uint256)": "983c1ce0",
    "proxiableUUID()": "52d1902d",
    "safeTransferFrom(address,address,uint256)": "42842e0e",
    "safeTransferFrom(address,address,uint256,bytes)": "b88d4fde",
    "saloonBountyProfit(address)": "e45abd0f",
    "saloonPremiumProfit(address)": "ca006148",
    "scheduleProjectDepositWithdrawal(uint256,uint256)": "5669cbef",
    "scheduleUnstake(uint256)": "106d08df",
    "setAPYandPoolCapAndDeposit(uint256,uint256,uint16,uint256,string)": "30ca0794",
    "setApprovalForAll(address,bool)": "a22cb465",
    "stake(uint256,uint256)": "7b0472f0",
    "supportsInterface(bytes4)": "01ffc9a7",
    "symbol()": "95d89b41",
    "tokenURI(uint256)": "c87b56dd",
    "tokenWhitelist(address)": "753d7563",
    "transferFrom(address,address,uint256)": "23b872dd",
    "transferOwnership(address)": "f2fde38b",
    "unstake(uint256,bool)": "9ebea88c",
    "updateStrategyFactoryAddress(address)": "3538fda0",
    "updateTokenWhitelist(address,bool,uint256)": "2cb0dfcc",
    "upgradeTo(address)": "3659cfe6",
    "upgradeToAndCall(address,bytes)": "4f1ef286",
    "viewBountyBalance(uint256)": "6ac6d812",
    "viewBountyInfo(uint256)": "40ef2868",
    "viewHackerPayout(uint256)": "861e5f66",
    "viewMinProjectDeposit(uint256)": "1c6b323f",
    "viewPoolAPY(uint256)": "a27f9213",
    "viewPoolCap(uint256)": "39679ff4",
    "viewPoolPremiumInfo(uint256)": "b1a2d16f",
    "viewPoolTimelockInfo(uint256)": "ac30b856",
    "viewSaloonProfitBalance(address)": "718c7eef",
    "viewTokenInfo(uint256)": "10725852",
    "viewTotalStaked(uint256)": "dbdd6957",
    "viewUserUnclaimed(uint256)": "19693071",
    "windDownBounty(uint256)": "bb7019c1"
  },
  "id": 47
}