{
  "abi": [
    {
      "anonymous": false,
      "inputs": [
        {
          "indexed": false,
          "internalType": "address",
          "name": "previousAdmin",
          "type": "address"
        },
        {
          "indexed": false,
          "internalType": "address",
          "name": "newAdmin",
          "type": "address"
        }
      ],
      "name": "AdminChanged",
      "type": "event"
    },
    {
      "anonymous": false,
      "inputs": [
        {
          "indexed": true,
          "internalType": "address",
          "name": "beacon",
          "type": "address"
        }
      ],
      "name": "BeaconUpgraded",
      "type": "event"
    },
    {
      "anonymous": false,
      "inputs": [
        {
          "indexed": true,
          "internalType": "uint256",
          "name": "pid",
          "type": "uint256"
        },
        {
          "indexed": false,
          "internalType": "uint256",
          "name": "oldAmount",
          "type": "uint256"
        },
        {
          "indexed": false,
          "internalType": "uint256",
          "name": "newAmount",
          "type": "uint256"
        }
      ],
      "name": "BountyBalanceChanged",
      "type": "event"
    },
    {
      "anonymous": false,
      "inputs": [
        {
          "indexed": true,
          "internalType": "address",
          "name": "hunter",
          "type": "address"
        },
        {
          "indexed": true,
          "internalType": "address",
          "name": "token",
          "type": "address"
        },
        {
          "indexed": false,
          "internalType": "uint256",
          "name": "amount",
          "type": "uint256"
        }
      ],
      "name": "BountyPaid",
      "type": "event"
    },
    {
      "anonymous": false,
      "inputs": [
        {
          "indexed": false,
          "internalType": "uint8",
          "name": "version",
          "type": "uint8"
        }
      ],
      "name": "Initialized",
      "type": "event"
    },
    {
      "anonymous": false,
      "inputs": [
        {
          "indexed": true,
          "internalType": "uint256",
          "name": "pid",
          "type": "uint256"
        },
        {
          "indexed": true,
          "internalType": "address",
          "name": "token",
          "type": "address"
        },
        {
          "indexed": false,
          "internalType": "uint256",
          "name": "tokenDecimals",
          "type": "uint256"
        }
      ],
      "name": "NewBountyDeployed",
      "type": "event"
    },
    {
      "anonymous": false,
      "inputs": [
        {
          "indexed": true,
          "internalType": "address",
          "name": "previousOwner",
          "type": "address"
        },
        {
          "indexed": true,
          "internalType": "address",
          "name": "newOwner",
          "type": "address"
        }
      ],
      "name": "OwnershipTransferred",
      "type": "event"
    },
    {
      "anonymous": false,
      "inputs": [
        {
          "indexed": true,
          "internalType": "uint256",
          "name": "pid",
          "type": "uint256"
        },
        {
          "indexed": false,
          "internalType": "uint256",
          "name": "amount",
          "type": "uint256"
        }
      ],
      "name": "PremiumBilled",
      "type": "event"
    },
    {
      "anonymous": false,
      "inputs": [
        {
          "indexed": true,
          "internalType": "address",
          "name": "user",
          "type": "address"
        },
        {
          "indexed": true,
          "internalType": "uint256",
          "name": "pid",
          "type": "uint256"
        },
        {
          "indexed": false,
          "internalType": "uint256",
          "name": "amount",
          "type": "uint256"
        }
      ],
      "name": "Staked",
      "type": "event"
    },
    {
      "anonymous": false,
      "inputs": [
        {
          "indexed": true,
          "internalType": "address",
          "name": "user",
          "type": "address"
        },
        {
          "indexed": true,
          "internalType": "uint256",
          "name": "pid",
          "type": "uint256"
        },
        {
          "indexed": false,
          "internalType": "uint256",
          "name": "amount",
          "type": "uint256"
        }
      ],
      "name": "Unstaked",
      "type": "event"
    },
    {
      "anonymous": false,
      "inputs": [
        {
          "indexed": true,
          "internalType": "address",
          "name": "implementation",
          "type": "address"
        }
      ],
      "name": "Upgraded",
      "type": "event"
    },
    {
      "anonymous": false,
      "inputs": [
        {
          "indexed": true,
          "internalType": "uint256",
          "name": "pid",
          "type": "uint256"
        },
        {
          "indexed": false,
          "internalType": "uint256",
          "name": "amount",
          "type": "uint256"
        }
      ],
      "name": "WithdrawalOrUnstakeScheduled",
      "type": "event"
    },
    {
      "anonymous": false,
      "inputs": [
        {
          "indexed": true,
          "internalType": "address",
          "name": "referrer",
          "type": "address"
        },
        {
          "indexed": false,
          "internalType": "uint256",
          "name": "amount",
          "type": "uint256"
        }
      ],
      "name": "referralPaid",
      "type": "event"
    },
    {
      "anonymous": false,
      "inputs": [
        {
          "indexed": true,
          "internalType": "address",
          "name": "token",
          "type": "address"
        },
        {
          "indexed": true,
          "internalType": "bool",
          "name": "whitelisted",
          "type": "bool"
        }
      ],
      "name": "tokenWhitelistUpdated",
      "type": "event"
    },
    {
      "inputs": [],
      "name": "acceptOwnershipTransfer",
      "outputs": [],
      "stateMutability": "nonpayable",
      "type": "function"
    },
    {
      "inputs": [
        {
          "internalType": "uint256",
          "name": "",
          "type": "uint256"
        }
      ],
      "name": "activeStrategies",
      "outputs": [
        {
          "internalType": "bytes32",
          "name": "",
          "type": "bytes32"
        }
      ],
      "stateMutability": "view",
      "type": "function"
    },
    {
      "inputs": [
        {
          "internalType": "uint256",
          "name": "",
          "type": "uint256"
        }
      ],
      "name": "activeTokens",
      "outputs": [
        {
          "internalType": "address",
          "name": "",
          "type": "address"
        }
      ],
      "stateMutability": "view",
      "type": "function"
    },
    {
      "inputs": [
        {
          "internalType": "address",
          "name": "_token",
          "type": "address"
        },
        {
          "internalType": "address",
          "name": "_projectWallet",
          "type": "address"
        },
        {
          "internalType": "string",
          "name": "_projectName",
          "type": "string"
        },
        {
          "internalType": "address",
          "name": "_referrer",
          "type": "address"
        },
        {
          "internalType": "uint256",
          "name": "_referralFee",
          "type": "uint256"
        },
        {
          "internalType": "uint256",
          "name": "_referralEndTime",
          "type": "uint256"
        }
      ],
      "name": "addNewBountyPool",
      "outputs": [
        {
          "internalType": "uint256",
          "name": "",
          "type": "uint256"
        }
      ],
      "stateMutability": "nonpayable",
      "type": "function"
    },
    {
      "inputs": [
        {
          "internalType": "uint256",
          "name": "_pid",
          "type": "uint256"
        }
      ],
      "name": "billPremium",
      "outputs": [
        {
          "internalType": "bool",
          "name": "",
          "type": "bool"
        }
      ],
      "stateMutability": "nonpayable",
      "type": "function"
    },
    {
      "inputs": [
        {
          "internalType": "uint256",
          "name": "_pid",
          "type": "uint256"
        },
        {
          "internalType": "uint256",
          "name": "_totalAmount",
          "type": "uint256"
        }
      ],
      "name": "calcReferralSplit",
      "outputs": [
        {
          "internalType": "uint256",
          "name": "",
          "type": "uint256"
        },
        {
          "internalType": "uint256",
          "name": "",
          "type": "uint256"
        },
        {
          "internalType": "address",
          "name": "",
          "type": "address"
        }
      ],
      "stateMutability": "view",
      "type": "function"
    },
    {
      "inputs": [
        {
          "internalType": "uint256",
          "name": "_poolCap",
          "type": "uint256"
        },
        {
          "internalType": "uint256",
          "name": "_apy",
          "type": "uint256"
        }
      ],
      "name": "calcRequiredPremiumBalancePerPeriod",
      "outputs": [
        {
          "internalType": "uint256",
          "name": "requiredPremiumBalance",
          "type": "uint256"
        }
      ],
      "stateMutability": "pure",
      "type": "function"
    },
    {
      "inputs": [
        {
          "internalType": "uint256",
          "name": "_tokenId",
          "type": "uint256"
        }
      ],
      "name": "claimPremium",
      "outputs": [],
      "stateMutability": "nonpayable",
      "type": "function"
    },
    {
      "inputs": [],
      "name": "collectAllReferralProfits",
      "outputs": [
        {
          "internalType": "bool",
          "name": "",
          "type": "bool"
        }
      ],
      "stateMutability": "nonpayable",
      "type": "function"
    },
    {
      "inputs": [
        {
          "internalType": "address",
          "name": "_saloonWallet",
          "type": "address"
        }
      ],
      "name": "collectAllSaloonProfits",
      "outputs": [
        {
          "internalType": "bool",
          "name": "",
          "type": "bool"
        }
      ],
      "stateMutability": "nonpayable",
      "type": "function"
    },
    {
      "inputs": [
        {
          "internalType": "address",
          "name": "_token",
          "type": "address"
        }
      ],
      "name": "collectReferralProfit",
      "outputs": [
        {
          "internalType": "bool",
          "name": "",
          "type": "bool"
        }
      ],
      "stateMutability": "nonpayable",
      "type": "function"
    },
    {
      "inputs": [
        {
          "internalType": "address",
          "name": "_token",
          "type": "address"
        },
        {
          "internalType": "address",
          "name": "_saloonWallet",
          "type": "address"
        }
      ],
      "name": "collectSaloonProfits",
      "outputs": [
        {
          "internalType": "bool",
          "name": "",
          "type": "bool"
        }
      ],
      "stateMutability": "nonpayable",
      "type": "function"
    },
    {
      "inputs": [],
      "name": "compoundYieldForAll",
      "outputs": [],
      "stateMutability": "nonpayable",
      "type": "function"
    },
    {
      "inputs": [
        {
          "internalType": "uint256",
          "name": "_pid",
          "type": "uint256"
        }
      ],
      "name": "compoundYieldForPid",
      "outputs": [],
      "stateMutability": "nonpayable",
      "type": "function"
    },
    {
      "inputs": [
        {
          "internalType": "uint256",
          "name": "_pid",
          "type": "uint256"
        },
        {
          "internalType": "uint256",
          "name": "_endTime",
          "type": "uint256"
        }
      ],
      "name": "extendReferralPeriod",
      "outputs": [],
      "stateMutability": "nonpayable",
      "type": "function"
    },
    {
      "inputs": [
        {
          "internalType": "uint256",
          "name": "_pid",
          "type": "uint256"
        },
        {
          "internalType": "uint256",
          "name": "_memX",
          "type": "uint256"
        }
      ],
      "name": "finalizeConsolidation",
      "outputs": [],
      "stateMutability": "nonpayable",
      "type": "function"
    },
    {
      "inputs": [
        {
          "internalType": "uint256",
          "name": "_pid",
          "type": "uint256"
        }
      ],
      "name": "getPoolInfo",
      "outputs": [
        {
          "components": [
            {
              "components": [
                {
                  "internalType": "contract IERC20",
                  "name": "token",
                  "type": "address"
                },
                {
                  "internalType": "uint8",
                  "name": "tokenDecimals",
                  "type": "uint8"
                },
                {
                  "internalType": "uint16",
                  "name": "apy",
                  "type": "uint16"
                },
                {
                  "internalType": "address",
                  "name": "projectWallet",
                  "type": "address"
                },
                {
                  "internalType": "string",
                  "name": "projectName",
                  "type": "string"
                },
                {
                  "internalType": "uint256",
                  "name": "poolCap",
                  "type": "uint256"
                },
                {
                  "internalType": "uint256",
                  "name": "totalStaked",
                  "type": "uint256"
                },
                {
                  "internalType": "uint256",
                  "name": "scalingMultiplier",
                  "type": "uint256"
                }
              ],
              "internalType": "struct ISaloon.GeneralInfo",
              "name": "generalInfo",
              "type": "tuple"
            },
            {
              "components": [
                {
                  "internalType": "uint256",
                  "name": "projectDepositHeld",
                  "type": "uint256"
                },
                {
                  "internalType": "uint256",
                  "name": "projectDepositInStrategy",
                  "type": "uint256"
                }
              ],
              "internalType": "struct ISaloon.DepositInfo",
              "name": "depositInfo",
              "type": "tuple"
            },
            {
              "components": [
                {
                  "internalType": "uint256",
                  "name": "premiumBalance",
                  "type": "uint256"
                },
                {
                  "internalType": "uint256",
                  "name": "premiumAvailable",
                  "type": "uint256"
                }
              ],
              "internalType": "struct ISaloon.PremiumInfo",
              "name": "premiumInfo",
              "type": "tuple"
            },
            {
              "components": [
                {
                  "internalType": "uint256",
                  "name": "timelock",
                  "type": "uint256"
                },
                {
                  "internalType": "uint256",
                  "name": "timeLimit",
                  "type": "uint256"
                },
                {
                  "internalType": "uint256",
                  "name": "withdrawalScheduledAmount",
                  "type": "uint256"
                },
                {
                  "internalType": "bool",
                  "name": "withdrawalExecuted",
                  "type": "bool"
                }
              ],
              "internalType": "struct ISaloon.TimelockInfo",
              "name": "poolTimelock",
              "type": "tuple"
            },
            {
              "components": [
                {
                  "internalType": "uint256",
                  "name": "currentX",
                  "type": "uint256"
                },
                {
                  "internalType": "uint256",
                  "name": "currentY",
                  "type": "uint256"
                },
                {
                  "internalType": "uint256",
                  "name": "totalSupply",
                  "type": "uint256"
                },
                {
                  "internalType": "uint256[]",
                  "name": "unstakedTokens",
                  "type": "uint256[]"
                }
              ],
              "internalType": "struct ISaloon.CurveInfo",
              "name": "curveInfo",
              "type": "tuple"
            },
            {
              "components": [
                {
                  "internalType": "address",
                  "name": "referrer",
                  "type": "address"
                },
                {
                  "internalType": "uint256",
                  "name": "referralFee",
                  "type": "uint256"
                },
                {
                  "internalType": "uint256",
                  "name": "endTime",
                  "type": "uint256"
                }
              ],
              "internalType": "struct ISaloon.ReferralInfo",
              "name": "referralInfo",
              "type": "tuple"
            },
            {
              "internalType": "uint256",
              "name": "freezeTime",
              "type": "uint256"
            },
            {
              "internalType": "bool",
              "name": "isActive",
              "type": "bool"
            }
          ],
          "internalType": "struct ISaloon.PoolInfo",
          "name": "",
          "type": "tuple"
        }
      ],
      "stateMutability": "view",
      "type": "function"
    },
    {
      "inputs": [
        {
          "internalType": "uint256",
          "name": "_pid",
          "type": "uint256"
        },
        {
          "internalType": "uint256",
          "name": "_xDelta",
          "type": "uint256"
        }
      ],
      "name": "increaseTotalSupply",
      "outputs": [],
      "stateMutability": "nonpayable",
      "type": "function"
    },
    {
      "inputs": [
        {
          "internalType": "address",
          "name": "_bountyToken",
          "type": "address"
        },
        {
          "internalType": "address",
          "name": "_strategyFactory",
          "type": "address"
        }
      ],
      "name": "initialize",
      "outputs": [],
      "stateMutability": "nonpayable",
      "type": "function"
    },
    {
      "inputs": [
        {
          "internalType": "uint256",
          "name": "_pid",
          "type": "uint256"
        },
        {
          "internalType": "uint256",
          "name": "_deposit",
          "type": "uint256"
        },
        {
          "internalType": "string",
          "name": "_strategyName",
          "type": "string"
        }
      ],
      "name": "makeProjectDeposit",
      "outputs": [],
      "stateMutability": "nonpayable",
      "type": "function"
    },
    {
      "inputs": [
        {
          "internalType": "address",
          "name": "",
          "type": "address"
        }
      ],
      "name": "minTokenStakeAmount",
      "outputs": [
        {
          "internalType": "uint256",
          "name": "",
          "type": "uint256"
        }
      ],
      "stateMutability": "view",
      "type": "function"
    },
    {
      "inputs": [],
      "name": "owner",
      "outputs": [
        {
          "internalType": "address",
          "name": "",
          "type": "address"
        }
      ],
      "stateMutability": "view",
      "type": "function"
    },
    {
      "inputs": [
        {
          "internalType": "uint256",
          "name": "_pid",
          "type": "uint256"
        },
        {
          "internalType": "address",
          "name": "_hunter",
          "type": "address"
        },
        {
          "internalType": "uint16",
          "name": "_payoutBPS",
          "type": "uint16"
        },
        {
          "internalType": "uint16",
          "name": "_hunterBonusBPS",
          "type": "uint16"
        }
      ],
      "name": "payBounty",
      "outputs": [],
      "stateMutability": "nonpayable",
      "type": "function"
    },
    {
      "inputs": [
        {
          "internalType": "uint256",
          "name": "",
          "type": "uint256"
        },
        {
          "internalType": "bytes32",
          "name": "",
          "type": "bytes32"
        }
      ],
      "name": "pidStrategies",
      "outputs": [
        {
          "internalType": "address",
          "name": "",
          "type": "address"
        }
      ],
      "stateMutability": "view",
      "type": "function"
    },
    {
      "inputs": [
        {
          "internalType": "uint256",
          "name": "",
          "type": "uint256"
        }
      ],
      "name": "poolInfo",
      "outputs": [
        {
          "components": [
            {
              "internalType": "contract IERC20",
              "name": "token",
              "type": "address"
            },
            {
              "internalType": "uint8",
              "name": "tokenDecimals",
              "type": "uint8"
            },
            {
              "internalType": "uint16",
              "name": "apy",
              "type": "uint16"
            },
            {
              "internalType": "address",
              "name": "projectWallet",
              "type": "address"
            },
            {
              "internalType": "string",
              "name": "projectName",
              "type": "string"
            },
            {
              "internalType": "uint256",
              "name": "poolCap",
              "type": "uint256"
            },
            {
              "internalType": "uint256",
              "name": "totalStaked",
              "type": "uint256"
            },
            {
              "internalType": "uint256",
              "name": "scalingMultiplier",
              "type": "uint256"
            }
          ],
          "internalType": "struct ISaloon.GeneralInfo",
          "name": "generalInfo",
          "type": "tuple"
        },
        {
          "components": [
            {
              "internalType": "uint256",
              "name": "projectDepositHeld",
              "type": "uint256"
            },
            {
              "internalType": "uint256",
              "name": "projectDepositInStrategy",
              "type": "uint256"
            }
          ],
          "internalType": "struct ISaloon.DepositInfo",
          "name": "depositInfo",
          "type": "tuple"
        },
        {
          "components": [
            {
              "internalType": "uint256",
              "name": "premiumBalance",
              "type": "uint256"
            },
            {
              "internalType": "uint256",
              "name": "premiumAvailable",
              "type": "uint256"
            }
          ],
          "internalType": "struct ISaloon.PremiumInfo",
          "name": "premiumInfo",
          "type": "tuple"
        },
        {
          "components": [
            {
              "internalType": "uint256",
              "name": "timelock",
              "type": "uint256"
            },
            {
              "internalType": "uint256",
              "name": "timeLimit",
              "type": "uint256"
            },
            {
              "internalType": "uint256",
              "name": "withdrawalScheduledAmount",
              "type": "uint256"
            },
            {
              "internalType": "bool",
              "name": "withdrawalExecuted",
              "type": "bool"
            }
          ],
          "internalType": "struct ISaloon.TimelockInfo",
          "name": "poolTimelock",
          "type": "tuple"
        },
        {
          "components": [
            {
              "internalType": "uint256",
              "name": "currentX",
              "type": "uint256"
            },
            {
              "internalType": "uint256",
              "name": "currentY",
              "type": "uint256"
            },
            {
              "internalType": "uint256",
              "name": "totalSupply",
              "type": "uint256"
            },
            {
              "internalType": "uint256[]",
              "name": "unstakedTokens",
              "type": "uint256[]"
            }
          ],
          "internalType": "struct ISaloon.CurveInfo",
          "name": "curveInfo",
          "type": "tuple"
        },
        {
          "components": [
            {
              "internalType": "address",
              "name": "referrer",
              "type": "address"
            },
            {
              "internalType": "uint256",
              "name": "referralFee",
              "type": "uint256"
            },
            {
              "internalType": "uint256",
              "name": "endTime",
              "type": "uint256"
            }
          ],
          "internalType": "struct ISaloon.ReferralInfo",
          "name": "referralInfo",
          "type": "tuple"
        },
        {
          "internalType": "uint256",
          "name": "freezeTime",
          "type": "uint256"
        },
        {
          "internalType": "bool",
          "name": "isActive",
          "type": "bool"
        }
      ],
      "stateMutability": "view",
      "type": "function"
    },
    {
      "inputs": [],
      "name": "poolLength",
      "outputs": [
        {
          "internalType": "uint256",
          "name": "",
          "type": "uint256"
        }
      ],
      "stateMutability": "view",
      "type": "function"
    },
    {
      "inputs": [
        {
          "internalType": "uint256",
          "name": "_pid",
          "type": "uint256"
        },
        {
          "internalType": "uint256",
          "name": "_amount",
          "type": "uint256"
        }
      ],
      "name": "projectDepositWithdrawal",
      "outputs": [
        {
          "internalType": "bool",
          "name": "",
          "type": "bool"
        }
      ],
      "stateMutability": "nonpayable",
      "type": "function"
    },
    {
      "inputs": [],
      "name": "proxiableUUID",
      "outputs": [
        {
          "internalType": "bytes32",
          "name": "",
          "type": "bytes32"
        }
      ],
      "stateMutability": "view",
      "type": "function"
    },
    {
      "inputs": [
        {
          "internalType": "address",
          "name": "_token",
          "type": "address"
        },
        {
          "internalType": "uint256",
          "name": "_amount",
          "type": "uint256"
        }
      ],
      "name": "receiveStrategyYield",
      "outputs": [],
      "stateMutability": "nonpayable",
      "type": "function"
    },
    {
      "inputs": [
        {
          "internalType": "address",
          "name": "",
          "type": "address"
        },
        {
          "internalType": "address",
          "name": "",
          "type": "address"
        }
      ],
      "name": "referralBalances",
      "outputs": [
        {
          "internalType": "uint256",
          "name": "",
          "type": "uint256"
        }
      ],
      "stateMutability": "view",
      "type": "function"
    },
    {
      "inputs": [
        {
          "internalType": "address",
          "name": "",
          "type": "address"
        }
      ],
      "name": "saloonBountyProfit",
      "outputs": [
        {
          "internalType": "uint256",
          "name": "",
          "type": "uint256"
        }
      ],
      "stateMutability": "view",
      "type": "function"
    },
    {
      "inputs": [
        {
          "internalType": "address",
          "name": "",
          "type": "address"
        }
      ],
      "name": "saloonPremiumProfit",
      "outputs": [
        {
          "internalType": "uint256",
          "name": "",
          "type": "uint256"
        }
      ],
      "stateMutability": "view",
      "type": "function"
    },
    {
      "inputs": [
        {
          "internalType": "address",
          "name": "",
          "type": "address"
        }
      ],
      "name": "saloonStrategyProfit",
      "outputs": [
        {
          "internalType": "uint256",
          "name": "",
          "type": "uint256"
        }
      ],
      "stateMutability": "view",
      "type": "function"
    },
    {
      "inputs": [
        {
          "internalType": "uint256",
          "name": "_pid",
          "type": "uint256"
        },
        {
          "internalType": "uint256",
          "name": "_amount",
          "type": "uint256"
        }
      ],
      "name": "scheduleProjectDepositWithdrawal",
      "outputs": [
        {
          "internalType": "bool",
          "name": "",
          "type": "bool"
        }
      ],
      "stateMutability": "nonpayable",
      "type": "function"
    },
    {
      "inputs": [
        {
          "internalType": "uint256",
          "name": "_tokenId",
          "type": "uint256"
        }
      ],
      "name": "scheduleUnstake",
      "outputs": [
        {
          "internalType": "bool",
          "name": "",
          "type": "bool"
        }
      ],
      "stateMutability": "nonpayable",
      "type": "function"
    },
    {
      "inputs": [
        {
          "internalType": "uint256",
          "name": "_pid",
          "type": "uint256"
        },
        {
          "internalType": "uint256",
          "name": "_poolCap",
          "type": "uint256"
        },
        {
          "internalType": "uint16",
          "name": "_apy",
          "type": "uint16"
        },
        {
          "internalType": "uint256",
          "name": "_deposit",
          "type": "uint256"
        },
        {
          "internalType": "string",
          "name": "_strategyName",
          "type": "string"
        }
      ],
      "name": "setAPYandPoolCapAndDeposit",
      "outputs": [],
      "stateMutability": "nonpayable",
      "type": "function"
    },
    {
      "inputs": [
        {
          "internalType": "uint256",
          "name": "_pid",
          "type": "uint256"
        },
        {
          "internalType": "uint256",
          "name": "_amount",
          "type": "uint256"
        }
      ],
      "name": "stake",
      "outputs": [
        {
          "internalType": "uint256",
          "name": "",
          "type": "uint256"
        }
      ],
      "stateMutability": "nonpayable",
      "type": "function"
    },
    {
      "inputs": [
        {
          "internalType": "address",
          "name": "",
          "type": "address"
        }
      ],
      "name": "strategyAddressToPid",
      "outputs": [
        {
          "internalType": "uint256",
          "name": "",
          "type": "uint256"
        }
      ],
      "stateMutability": "view",
      "type": "function"
    },
    {
      "inputs": [
        {
          "internalType": "address",
          "name": "",
          "type": "address"
        }
      ],
      "name": "tokenWhitelist",
      "outputs": [
        {
          "internalType": "bool",
          "name": "",
          "type": "bool"
        }
      ],
      "stateMutability": "view",
      "type": "function"
    },
    {
      "inputs": [
        {
          "internalType": "address",
          "name": "newOwner",
          "type": "address"
        }
      ],
      "name": "transferOwnership",
      "outputs": [],
      "stateMutability": "nonpayable",
      "type": "function"
    },
    {
      "inputs": [
        {
          "internalType": "uint256",
          "name": "_tokenId",
          "type": "uint256"
        },
        {
          "internalType": "bool",
          "name": "_shouldHarvest",
          "type": "bool"
        }
      ],
      "name": "unstake",
      "outputs": [
        {
          "internalType": "bool",
          "name": "",
          "type": "bool"
        }
      ],
      "stateMutability": "nonpayable",
      "type": "function"
    },
    {
      "inputs": [
        {
          "internalType": "uint256",
          "name": "_pid",
          "type": "uint256"
        },
        {
          "internalType": "uint256",
          "name": "_newX",
          "type": "uint256"
        }
      ],
      "name": "updateCurrentX",
      "outputs": [],
      "stateMutability": "nonpayable",
      "type": "function"
    },
    {
      "inputs": [
        {
          "internalType": "uint256",
          "name": "_pid",
          "type": "uint256"
        },
        {
          "internalType": "address",
          "name": "_projectWallet",
          "type": "address"
        }
      ],
      "name": "updateProjectWalletAddress",
      "outputs": [],
      "stateMutability": "nonpayable",
      "type": "function"
    },
    {
      "inputs": [
        {
          "internalType": "address",
          "name": "_strategyFactory",
          "type": "address"
        }
      ],
      "name": "updateStrategyFactoryAddress",
      "outputs": [],
      "stateMutability": "nonpayable",
      "type": "function"
    },
    {
      "inputs": [
        {
          "internalType": "address",
          "name": "_token",
          "type": "address"
        },
        {
          "internalType": "bool",
          "name": "_whitelisted",
          "type": "bool"
        },
        {
          "internalType": "uint256",
          "name": "_minStakeAmount",
          "type": "uint256"
        }
      ],
      "name": "updateTokenWhitelist",
      "outputs": [
        {
          "internalType": "bool",
          "name": "",
          "type": "bool"
        }
      ],
      "stateMutability": "nonpayable",
      "type": "function"
    },
    {
      "inputs": [
        {
          "internalType": "address",
          "name": "newImplementation",
          "type": "address"
        }
      ],
      "name": "upgradeTo",
      "outputs": [],
      "stateMutability": "nonpayable",
      "type": "function"
    },
    {
      "inputs": [
        {
          "internalType": "address",
          "name": "newImplementation",
          "type": "address"
        },
        {
          "internalType": "bytes",
          "name": "data",
          "type": "bytes"
        }
      ],
      "name": "upgradeToAndCall",
      "outputs": [],
      "stateMutability": "payable",
      "type": "function"
    },
    {
      "inputs": [
        {
          "internalType": "uint256",
          "name": "_pid",
          "type": "uint256"
        }
      ],
      "name": "viewBountyBalance",
      "outputs": [
        {
          "internalType": "uint256",
          "name": "",
          "type": "uint256"
        }
      ],
      "stateMutability": "view",
      "type": "function"
    },
    {
      "inputs": [
        {
          "internalType": "uint256",
          "name": "_pid",
          "type": "uint256"
        }
      ],
      "name": "viewBountyInfo",
      "outputs": [
        {
          "internalType": "uint256",
          "name": "payout",
          "type": "uint256"
        },
        {
          "internalType": "uint256",
          "name": "apy",
          "type": "uint256"
        },
        {
          "internalType": "uint256",
          "name": "staked",
          "type": "uint256"
        },
        {
          "internalType": "uint256",
          "name": "poolCap",
          "type": "uint256"
        }
      ],
      "stateMutability": "view",
      "type": "function"
    },
    {
      "inputs": [
        {
          "internalType": "uint256",
          "name": "_pid",
          "type": "uint256"
        }
      ],
      "name": "viewCurrentAPY",
      "outputs": [
        {
          "internalType": "uint256",
          "name": "currentAPY",
          "type": "uint256"
        }
      ],
      "stateMutability": "view",
      "type": "function"
    },
    {
      "inputs": [
        {
          "internalType": "uint256",
          "name": "_pid",
          "type": "uint256"
        }
      ],
      "name": "viewMinProjectDeposit",
      "outputs": [
        {
          "internalType": "uint256",
          "name": "",
          "type": "uint256"
        }
      ],
      "stateMutability": "view",
      "type": "function"
    },
    {
      "inputs": [
        {
          "internalType": "uint256",
          "name": "_pid",
          "type": "uint256"
        }
      ],
      "name": "viewPoolPremiumInfo",
      "outputs": [
        {
          "internalType": "uint256",
          "name": "requiredPremiumBalancePerPeriod",
          "type": "uint256"
        },
        {
          "internalType": "uint256",
          "name": "premiumBalance",
          "type": "uint256"
        },
        {
          "internalType": "uint256",
          "name": "premiumAvailable",
          "type": "uint256"
        }
      ],
      "stateMutability": "view",
      "type": "function"
    },
    {
      "inputs": [
        {
          "internalType": "uint256",
          "name": "_pid",
          "type": "uint256"
        }
      ],
      "name": "viewPoolTimelockInfo",
      "outputs": [
        {
          "internalType": "uint256",
          "name": "timelock",
          "type": "uint256"
        },
        {
          "internalType": "uint256",
          "name": "timeLimit",
          "type": "uint256"
        },
        {
          "internalType": "uint256",
          "name": "withdrawalScheduledAmount",
          "type": "uint256"
        }
      ],
      "stateMutability": "view",
      "type": "function"
    },
    {
      "inputs": [
        {
          "internalType": "address",
          "name": "_referrer",
          "type": "address"
        },
        {
          "internalType": "address",
          "name": "_token",
          "type": "address"
        }
      ],
      "name": "viewReferralBalance",
      "outputs": [
        {
          "internalType": "uint256",
          "name": "referralBalance",
          "type": "uint256"
        }
      ],
      "stateMutability": "view",
      "type": "function"
    },
    {
      "inputs": [
        {
          "internalType": "address",
          "name": "_token",
          "type": "address"
        }
      ],
      "name": "viewSaloonProfitBalance",
      "outputs": [
        {
          "internalType": "uint256",
          "name": "totalProfit",
          "type": "uint256"
        },
        {
          "internalType": "uint256",
          "name": "bountyProfit",
          "type": "uint256"
        },
        {
          "internalType": "uint256",
          "name": "strategyProfit",
          "type": "uint256"
        },
        {
          "internalType": "uint256",
          "name": "premiumProfit",
          "type": "uint256"
        }
      ],
      "stateMutability": "view",
      "type": "function"
    },
    {
      "inputs": [
        {
          "internalType": "uint256",
          "name": "_tokenId",
          "type": "uint256"
        }
      ],
      "name": "viewTokenInfo",
      "outputs": [
        {
          "internalType": "uint256",
          "name": "amount",
          "type": "uint256"
        },
        {
          "internalType": "uint256",
          "name": "apy",
          "type": "uint256"
        },
        {
          "internalType": "uint256",
          "name": "actualPending",
          "type": "uint256"
        },
        {
          "internalType": "uint256",
          "name": "unclaimed",
          "type": "uint256"
        },
        {
          "internalType": "uint256",
          "name": "timelock",
          "type": "uint256"
        }
      ],
      "stateMutability": "view",
      "type": "function"
    },
    {
      "inputs": [
        {
          "internalType": "uint256",
          "name": "_pid",
          "type": "uint256"
        }
      ],
      "name": "windDownBounty",
      "outputs": [
        {
          "internalType": "bool",
          "name": "",
          "type": "bool"
        }
      ],
      "stateMutability": "nonpayable",
      "type": "function"
    },
    {
      "inputs": [
        {
          "internalType": "uint256",
          "name": "_pid",
          "type": "uint256"
        }
      ],
      "name": "withdrawProjectYield",
      "outputs": [
        {
          "internalType": "uint256",
          "name": "returnedAmount",
          "type": "uint256"
        }
      ],
      "stateMutability": "nonpayable",
      "type": "function"
    }
  ],
  "bytecode": {
    "object": "0x60a06040523060805234801561001457600080fd5b50608051617ef36200004d600039600081816124b9015281816124f901528181612a1301528181612a530152612ae60152617ef36000f3fe6080604052600436106103815760003560e01c8063753d7563116101d1578063b20b242911610102578063db53e8b5116100a0578063f247df091161006f578063f247df0914610bb4578063f2fde38b14610bd4578063f47ec3be14610bf4578063f68ce49914610c1457600080fd5b8063db53e8b514610b27578063e45abd0f14610b47578063e78ea3df14610b74578063ecd7fbed14610b9457600080fd5b8063ca006148116100dc578063ca00614814610a9a578063cf9564b914610ac7578063d075afac14610ae7578063da4ef10714610b0757600080fd5b8063b20b242914610a37578063b842e87f14610a65578063bb7019c114610a7a57600080fd5b8063995974c41161016f578063a089a52011610149578063a089a5201461099c578063ac30b856146109bc578063ae07f948146109f7578063b1a2d16f14610a1757600080fd5b8063995974c41461093c5780639ebea88c1461095c5780639f224f351461097c57600080fd5b80638da5cb5b116101ab5780638da5cb5b1461088c578063928dc6a9146108aa578063957deecc146108ee578063983c1ce01461091c57600080fd5b8063753d75631461081b5780637b0472f01461084c578063836ef1fa1461086c57600080fd5b806332fce602116102b6578063485cc95511610254578063598d17bf11610223578063598d17bf1461078e5780635de406dc146107bb5780636ac6d812146107db578063718c7eef146107fb57600080fd5b8063485cc955146107265780634f1ef2861461074657806352d1902d146107595780635669cbef1461076e57600080fd5b80633659cfe6116102905780633659cfe61461068357806339458723146106a35780633e8888d9146106d157806340ef2868146106e657600080fd5b806332fce60214610623578063339b3776146106435780633538fda01461066357600080fd5b80631aebcecb116103235780632dbe051e116102fd5780632dbe051e146105965780632de16204146105b65780632f380b35146105d657806330ca07941461060357600080fd5b80631aebcecb146105345780631c6b323f146105565780632cb0dfcc1461057657600080fd5b80630ed7610c1161035f5780630ed7610c14610441578063106d08df1461048857806310725852146104b85780631526fe271461050057600080fd5b8063011b408b14610386578063074ecf03146103d2578063081e3eda1461042c575b600080fd5b34801561039257600080fd5b506103bf6103a1366004617038565b61010060209081526000928352604080842090915290825290205481565b6040519081526020015b60405180910390f35b3480156103de57600080fd5b506104146103ed366004617071565b6101036020908152600092835260408084209091529082529020546001600160a01b031681565b6040516001600160a01b0390911681526020016103c9565b34801561043857600080fd5b5060fc546103bf565b34801561044d57600080fd5b506103bf61045c366004617038565b6001600160a01b0391821660009081526101006020908152604080832093909416825291909152205490565b34801561049457600080fd5b506104a86104a3366004617093565b610c29565b60405190151581526020016103c9565b3480156104c457600080fd5b506104d86104d3366004617093565b610e4c565b604080519586526020860194909452928401919091526060830152608082015260a0016103c9565b34801561050c57600080fd5b5061052061051b366004617093565b610f66565b6040516103c99897969594939291906171f0565b34801561054057600080fd5b5061055461054f3660046172b6565b6111c2565b005b34801561056257600080fd5b506103bf610571366004617093565b61127a565b34801561058257600080fd5b506104a86105913660046172f0565b611513565b3480156105a257600080fd5b506104a86105b1366004617093565b61175a565b3480156105c257600080fd5b506103bf6105d1366004617093565b611784565b3480156105e257600080fd5b506105f66105f1366004617093565b611a8d565b6040516103c99190617331565b34801561060f57600080fd5b5061055461061e3660046174ed565b611d13565b34801561062f57600080fd5b506103bf61063e366004617558565b611ff2565b34801561064f57600080fd5b5061055461065e366004617071565b612419565b34801561066f57600080fd5b5061055461067e3660046175df565b612484565b34801561068f57600080fd5b5061055461069e3660046175df565b6124af565b3480156106af57600080fd5b506103bf6106be3660046175df565b6101086020526000908152604090205481565b3480156106dd57600080fd5b506104a861258e565b3480156106f257600080fd5b50610706610701366004617093565b6125f1565b6040805194855260208501939093529183015260608201526080016103c9565b34801561073257600080fd5b50610554610741366004617038565b6128c5565b6105546107543660046175fc565b612a09565b34801561076557600080fd5b506103bf612ad9565b34801561077a57600080fd5b506104a8610789366004617071565b612b8c565b34801561079a57600080fd5b506103bf6107a93660046175df565b60ff6020526000908152604090205481565b3480156107c757600080fd5b506105546107d6366004617071565b612cbb565b3480156107e757600080fd5b506103bf6107f6366004617093565b612d45565b34801561080757600080fd5b506107066108163660046175df565b612fdb565b34801561082757600080fd5b506104a86108363660046175df565b6101066020526000908152604090205460ff1681565b34801561085857600080fd5b506103bf610867366004617071565b613029565b34801561087857600080fd5b506103bf610887366004617071565b613509565b34801561089857600080fd5b506033546001600160a01b0316610414565b3480156108b657600080fd5b506108ca6108c5366004617071565b61353f565b6040805193845260208401929092526001600160a01b0316908201526060016103c9565b3480156108fa57600080fd5b506103bf6109093660046175df565b6101056020526000908152604090205481565b34801561092857600080fd5b506104a8610937366004617071565b61383d565b34801561094857600080fd5b50610554610957366004617660565b6139b3565b34801561096857600080fd5b506104a8610977366004617685565b613d09565b34801561098857600080fd5b50610414610997366004617093565b614063565b3480156109a857600080fd5b506104a86109b73660046175df565b61408e565b3480156109c857600080fd5b506109dc6109d7366004617093565b61413b565b604080519384526020840192909252908201526060016103c9565b348015610a0357600080fd5b50610554610a123660046176aa565b6143d6565b348015610a2357600080fd5b506109dc610a32366004617093565b6144cc565b348015610a4357600080fd5b506103bf610a52366004617093565b6101046020526000908152604090205481565b348015610a7157600080fd5b50610554614781565b348015610a8657600080fd5b506104a8610a95366004617093565b614801565b348015610aa657600080fd5b506103bf610ab53660046175df565b60fe6020526000908152604090205481565b348015610ad357600080fd5b506104a8610ae2366004617038565b614b4a565b348015610af357600080fd5b50610554610b023660046176fa565b614bab565b348015610b1357600080fd5b50610554610b22366004617071565b6151e2565b348015610b3357600080fd5b506103bf610b42366004617093565b615239565b348015610b5357600080fd5b506103bf610b623660046175df565b60fd6020526000908152604090205481565b348015610b8057600080fd5b50610554610b8f366004617093565b6155b3565b348015610ba057600080fd5b506104a8610baf3660046175df565b615967565b348015610bc057600080fd5b50610554610bcf366004617071565b6159ca565b348015610be057600080fd5b50610554610bef3660046175df565b615a31565b348015610c0057600080fd5b50610554610c0f366004617093565b615ac0565b348015610c2057600080fd5b50610554615c8d565b6000610c33615cb4565b6101015460405163430c208160e01b8152336004820152602481018490526001600160a01b039091169063430c208190604401602060405180830381865afa158015610c83573d6000803e3d6000fd5b505050506040513d601f19601f82011682018060405250810190610ca79190617749565b610cee5760405162461bcd60e51b815260206004820152601360248201527239b2b73232b91034b9903737ba1037bbb732b960691b60448201526064015b60405180910390fd5b610101546040516301f8bc7960e41b8152600481018490526000916001600160a01b031690631f8bc7909060240161010060405180830381865afa158015610d3a573d6000803e3d6000fd5b505050506040513d601f19601f82011682018060405250810190610d5e9190617766565b8051909150610d7062093a804261780c565b60c0830152610d8262093a804261780c565b610d8f906203f48061780c565b60e083015261010154604051638622ea5d60e01b81526001600160a01b0390911690638622ea5d90610dc7908790869060040161781f565b600060405180830381600087803b158015610de157600080fd5b505af1158015610df5573d6000803e3d6000fd5b50505050807fb3b9c925de3673837b40c6b4d4463a8f88dc821cd27e07f1ff6bf6abf96413a58360200151604051610e2f91815260200190565b60405180910390a2600192505050610e47600160ca55565b919050565b610101546040516301f8bc7960e41b815260048101839052600091829182918291829182916001600160a01b0390911690631f8bc7909060240161010060405180830381865afa158015610ea4573d6000803e3d6000fd5b505050506040513d601f19601f82011682018060405250810190610ec89190617766565b60208101516060820151610101546040516240bd1d60e81b8152600481018c90529299509097509192506001600160a01b03909116906340bd1d0090602401606060405180830381865afa158015610f24573d6000803e3d6000fd5b505050506040513d601f19601f82011682018060405250810190610f489190617880565b50608083015160c09093015197999698509691959194509092505050565b60fc8181548110610f7657600080fd5b60009182526020918290206040805161010081018252601790930290910180546001600160a01b03808216855260ff600160a01b8304169585019590955261ffff600160a81b909104169183019190915260018101549092166060820152600282018054929350909183916080840191610fef906178ae565b80601f016020809104026020016040519081016040528092919081815260200182805461101b906178ae565b80156110685780601f1061103d57610100808354040283529160200191611068565b820191906000526020600020905b81548152906001019060200180831161104b57829003601f168201915b50505091835250506003820154602080830191909152600483015460408084019190915260059093015460609283015282518084018452600686015481526007860154818301528351808501855260088701548152600987015481840152845160808082018752600a8901548252600b89015482860152600c89015482880152600d89015460ff1615158287015286519081018752600e890180548252600f8a01548287015260108a01548289015260118a018054895181890281018901909a52808a52999a959994989397959692959194918601939290919083018282801561117157602002820191906000526020600020905b81548152602001906001019080831161115d575b5050509190925250506040805160608101825260128501546001600160a01b031681526013850154602082015260148501549181019190915260158401546016909401549293909290915060ff1688565b6111d76001600160a01b038316333084615d0d565b50336000908152610105602052604081205490819003611224576001600160a01b038316600090815260ff60205260408120805484929061121990849061780c565b909155506112759050565b6000806000611233848661353f565b925092509250611244818784615d7b565b6001600160a01b038616600090815260ff60205260408120805485929061126c90849061780c565b90915550505050505b505050565b60008060fc8381548110611290576112906178e8565b6000918252602090912060408051610200810190915260179092020180546001600160a01b038082166101008501908152600160a01b830460ff16610120860152600160a81b90920461ffff1661014085015260018301541661016084015260028201805484929184916101808501919061130a906178ae565b80601f0160208091040260200160405190810160405280929190818152602001828054611336906178ae565b80156113835780601f1061135857610100808354040283529160200191611383565b820191906000526020600020905b81548152906001019060200180831161136657829003601f168201915b505050918352505060038201546020808301919091526004830154604080840191909152600590930154606092830152928452815180830183526006860154815260078601548185015284840152815180830183526008860154815260098601548185015284830152815160808082018452600a8701548252600b87015482860152600c87015482850152600d87015460ff161515828401528583019190915282518082018452600e870180548252600f8801548287015260108801548286015260118801805486518189028101890190975280875293909701969195909493860193929083018282801561149757602002820191906000526020600020905b815481526020019060010190808311611483575b505050919092525050508152604080516060808201835260128501546001600160a01b0316825260138501546020838101919091526014860154838501528085019290925260158501549284019290925260169093015460ff1615159101528181015190810151905191925061150c9161780c565b9392505050565b600061151d615dcc565b6001600160a01b0384166000908152610106602052604090205460ff1615158315146115845760405162461bcd60e51b81526020600482015260166024820152751b9bc818da185b99d9481d1bc81dda1a5d195b1a5cdd60521b6044820152606401610ce5565b6001600160a01b03841660008181526101066020526040808220805460ff191687151590811790915590519092917f99795d51e5a8804307721456a7a9c2f0d7421f719d46a46d36e91fee7c85aa7691a3821561163c576101078054600181019091557f47c4908e245f386bfc1825973249847f4053a761ddb4880ad63c323a7b5a2a250180546001600160a01b0319166001600160a01b038616908117909155600090815261010860205260409020829055611750565b6101075460005b8181101561174d5760006101078281548110611661576116616178e8565b6000918252602090912001546001600160a01b0390811691508716810361173c576101076116906001856178fe565b815481106116a0576116a06178e8565b60009182526020909120015461010780546001600160a01b0390921691849081106116cd576116cd6178e8565b9060005260206000200160006101000a8154816001600160a01b0302191690836001600160a01b0316021790555061010780548061170d5761170d617911565b600082815260209020810160001990810180546001600160a01b0319169055019055506001925061150c915050565b5061174681617927565b9050611643565b50505b5060019392505050565b6000611764615cb4565b61176c615dcc565b611777826000615e26565b506001610e47600160ca55565b60008060fc838154811061179a5761179a6178e8565b6000918252602090912060408051610200810190915260179092020180546001600160a01b038082166101008501908152600160a01b830460ff16610120860152600160a81b90920461ffff16610140850152600183015416610160840152600282018054849291849161018085019190611814906178ae565b80601f0160208091040260200160405190810160405280929190818152602001828054611840906178ae565b801561188d5780601f106118625761010080835404028352916020019161188d565b820191906000526020600020905b81548152906001019060200180831161187057829003601f168201915b505050918352505060038201546020808301919091526004830154604080840191909152600590930154606092830152928452815180830183526006860154815260078601548185015284840152815180830183526008860154815260098601548185015284830152815160808082018452600a8701548252600b87015482860152600c87015482850152600d87015460ff161515828401528583019190915282518082018452600e870180548252600f880154828701526010880154828601526011880180548651818902810189019097528087529390970196919590949386019392908301828280156119a157602002820191906000526020600020905b81548152602001906001019080831161198d575b505050919092525050508152604080516060808201835260128501546001600160a01b039081168352601386015460208085019190915260148701548486015285019290925260158501548385015260169094015460ff1615159390920192909252608083015151835160e0015161010154935163b0af534b60e01b815260048101839052949550909390929091169063b0af534b90602401602060405180830381865afa158015611a57573d6000803e3d6000fd5b505050506040513d601f19601f82011682018060405250810190611a7b9190617940565b611a859190617959565b949350505050565b611a95616e7e565b60fc8281548110611aa857611aa86178e8565b6000918252602090912060408051610200810190915260179092020180546001600160a01b038082166101008501908152600160a01b830460ff16610120860152600160a81b90920461ffff16610140850152600183015416610160840152600282018054849291849161018085019190611b22906178ae565b80601f0160208091040260200160405190810160405280929190818152602001828054611b4e906178ae565b8015611b9b5780601f10611b7057610100808354040283529160200191611b9b565b820191906000526020600020905b815481529060010190602001808311611b7e57829003601f168201915b505050918352505060038201546020808301919091526004830154604080840191909152600590930154606092830152928452815180830183526006860154815260078601548185015284840152815180830183526008860154815260098601548185015284830152815160808082018452600a8701548252600b87015482860152600c87015482850152600d87015460ff161515828401528583019190915282518082018452600e870180548252600f88015482870152601088015482860152601188018054865181890281018901909752808752939097019691959094938601939290830182828015611caf57602002820191906000526020600020905b815481526020019060010190808311611c9b575b505050919092525050508152604080516060808201835260128501546001600160a01b03168252601385015460208381019190915260148601548385015284019190915260158401549183019190915260169092015460ff16151591015292915050565b611d1b615cb4565b600060fc8681548110611d3057611d306178e8565b60009182526020909120601790910201601681015490915060ff16158015611d5a57506003810154155b611da65760405162461bcd60e51b815260206004820152601860248201527f506f6f6c20616c726561647920696e697469616c697a656400000000000000006044820152606401610ce5565b60008461ffff16118015611dc057506127108461ffff1611155b611dff5760405162461bcd60e51b815260206004820152601060248201526f415059206f7574206f662072616e676560801b6044820152606401610ce5565b8054611e1690600160a01b900460ff16600a617a54565b611e22906103e8617959565b8510158015611e5457508054611e4390600160a01b900460ff16600a617a54565b611e509062989680617959565b8511155b611e985760405162461bcd60e51b8152602060048201526015602482015274506f6f6c20636170206f7574206f662072616e676560581b6044820152606401610ce5565b60018101546001600160a01b03163314611ec45760405162461bcd60e51b8152600401610ce590617a63565b6000611ed4868661ffff16613509565b90506000612710611ee76103e884617959565b611ef19190617a8b565b90506000611efe89612d45565b9050611f223330611f0f868a61780c565b87546001600160a01b0316929190615d0d565b5085846006016000016000828254611f3a919061780c565b909155505060038401889055835461ffff60a81b1916600160a81b61ffff89160217845560168401805460ff1916600117905560088401839055611f7e82846178fe565b6009850155611f918961ffff8916615fa8565b845115611fa557611fa3898688616046565b505b6000611fb08a612d45565b60408051848152602081018390529192508b91600080516020617e57833981519152910160405180910390a25050505050611feb600160ca55565b5050505050565b6000611ffc615dcc565b6001600160a01b0387166000908152610106602052604090205460ff1661205d5760405162461bcd60e51b81526020600482015260156024820152741d1bdad95b881b9bdd081dda1a5d195b1a5cdd1959605a1b6044820152606401610ce5565b6113888311156120a75760405162461bcd60e51b81526020600482015260156024820152740e4cacccae4e4c2d840cccaca40e8dede40d0d2ced605b1b6044820152606401610ce5565b60408051600481526024810182526020810180516001600160e01b031663313ce56760e01b17905290516000916001600160a01b038a16916120e99190617aad565b600060405180830381855afa9150503d8060008114612124576040519150601f19603f3d011682016040523d82523d6000602084013e612129565b606091505b509150506000818060200190518101906121439190617ac9565b905060068160ff1610156121925760405162461bcd60e51b815260206004820152601660248201527524b73b30b634b2103232b1b4b6b0b6103932ba3ab93760511b6044820152606401610ce5565b61219a616e7e565b80516001600160a01b03808c16909152815160ff80851660209283015283518c8416606091820152845160809081018d905260a0860180518d87169052805185018c90525160409081018b905260fc80546001810182556000919091528751805160179092027f371f36870d18f32a11fea0f144b021c8b407bb50f8e0267c711123f454b963c081018054988301519483015161ffff16600160a81b0261ffff60a81b1995909816600160a01b026001600160a81b0319909916938a16939093179790971792909216949094178455918201517f371f36870d18f32a11fea0f144b021c8b407bb50f8e0267c711123f454b963c185018054919096166001600160a01b03199190911617909455928301518493919283917f371f36870d18f32a11fea0f144b021c8b407bb50f8e0267c711123f454b963c2909101906122e09082617b3a565b5060a0820151600382015560c0820151600482015560e0909101516005909101556020828101518051600684015581015160078301556040808401518051600885015582015160098401556060808501518051600a86015580840151600b86015580830151600c860155810151600d8501805460ff191691151591909117905560808501518051600e860190815581850151600f870155928101516010860155908101518051919361239a92601187019290910190616fa9565b50505060a082015180516012830180546001600160a01b0319166001600160a01b039092169190911790556020810151601383015560400151601482015560c0820151601582015560e0909101516016909101805460ff191691151591909117905560fc5461240b906001906178fe565b9a9950505050505050505050565b610101546001600160a01b031633146124445760405162461bcd60e51b8152600401610ce590617bfa565b8060fc8381548110612458576124586178e8565b9060005260206000209060170201600e01600201600082825461247b919061780c565b90915550505050565b61248c615dcc565b61010280546001600160a01b0319166001600160a01b0392909216919091179055565b6001600160a01b037f00000000000000000000000000000000000000000000000000000000000000001630036124f75760405162461bcd60e51b8152600401610ce590617c2a565b7f00000000000000000000000000000000000000000000000000000000000000006001600160a01b0316612540600080516020617e77833981519152546001600160a01b031690565b6001600160a01b0316146125665760405162461bcd60e51b8152600401610ce590617c76565b61256f81616182565b6040805160008082526020820190925261258b9183919061618a565b50565b61010754600090815b818110156125e857600061010782815481106125b5576125b56178e8565b6000918252602090912001546001600160a01b031690506125d58161408e565b5050806125e190617927565b9050612597565b50600191505090565b600080600080600060fc868154811061260c5761260c6178e8565b6000918252602090912060408051610200810190915260179092020180546001600160a01b038082166101008501908152600160a01b830460ff16610120860152600160a81b90920461ffff16610140850152600183015416610160840152600282018054849291849161018085019190612686906178ae565b80601f01602080910402602001604051908101604052809291908181526020018280546126b2906178ae565b80156126ff5780601f106126d4576101008083540402835291602001916126ff565b820191906000526020600020905b8154815290600101906020018083116126e257829003601f168201915b505050918352505060038201546020808301919091526004830154604080840191909152600590930154606092830152928452815180830183526006860154815260078601548185015284840152815180830183526008860154815260098601548185015284830152815160808082018452600a8701548252600b87015482860152600c87015482850152600d87015460ff161515828401528583019190915282518082018452600e870180548252600f8801548287015260108801548286015260118801805486518189028101890190975280875293909701969195909493860193929083018282801561281357602002820191906000526020600020905b8154815260200190600101908083116127ff575b505050919092525050508152604080516060808201835260128501546001600160a01b03168252601385015460208381019190915260148601548385015284019190915260158401549183019190915260169092015460ff16151591015290506127106128826103e8826178fe565b61288b88612d45565b6128959190617959565b61289f9190617a8b565b905160c0810151604082015160a090920151929861ffff90921697509550909350915050565b600054610100900460ff16158080156128e55750600054600160ff909116105b806128ff5750303b1580156128ff575060005460ff166001145b6129625760405162461bcd60e51b815260206004820152602e60248201527f496e697469616c697a61626c653a20636f6e747261637420697320616c72656160448201526d191e481a5b9a5d1a585b1a5e995960921b6064820152608401610ce5565b6000805460ff191660011790558015612985576000805461ff0019166101001790555b61298d6162f5565b61010180546001600160a01b038086166001600160a01b0319928316179092556101028054928516929091169190911790558015611275576000805461ff0019169055604051600181527f7f26b83ff96e1f2b6a682f133852f6798a09c465da95921460cefb38474024989060200160405180910390a1505050565b6001600160a01b037f0000000000000000000000000000000000000000000000000000000000000000163003612a515760405162461bcd60e51b8152600401610ce590617c2a565b7f00000000000000000000000000000000000000000000000000000000000000006001600160a01b0316612a9a600080516020617e77833981519152546001600160a01b031690565b6001600160a01b031614612ac05760405162461bcd60e51b8152600401610ce590617c76565b612ac982616182565b612ad58282600161618a565b5050565b6000306001600160a01b037f00000000000000000000000000000000000000000000000000000000000000001614612b795760405162461bcd60e51b815260206004820152603860248201527f555550535570677261646561626c653a206d757374206e6f742062652063616c60448201527f6c6564207468726f7567682064656c656761746563616c6c00000000000000006064820152608401610ce5565b50600080516020617e7783398151915290565b60008060fc8481548110612ba257612ba26178e8565b9060005260206000209060170201905082612bbc8561127a565b1015612c0a5760405162461bcd60e51b815260206004820152601a60248201527f416d6f756e7420626967676572207468616e206465706f7369740000000000006044820152606401610ce5565b60018101546001600160a01b03163314612c365760405162461bcd60e51b8152600401610ce590617a63565b612c4362093a804261780c565b600a820155612c5562093a804261780c565b612c62906203f48061780c565b600b820155600c8101839055600d8101805460ff1916905560405183815284907fb3b9c925de3673837b40c6b4d4463a8f88dc821cd27e07f1ff6bf6abf96413a59060200160405180910390a260019150505b92915050565b612cc3615dcc565b600060fc8381548110612cd857612cd86178e8565b9060005260206000209060170201905080601201600201548211612d3e5760405162461bcd60e51b815260206004820152601860248201527f63616e206f6e6c7920657874656e6420656e642074696d6500000000000000006044820152606401610ce5565b6014015550565b60008060fc8381548110612d5b57612d5b6178e8565b6000918252602090912060408051610200810190915260179092020180546001600160a01b038082166101008501908152600160a01b830460ff16610120860152600160a81b90920461ffff16610140850152600183015416610160840152600282018054849291849161018085019190612dd5906178ae565b80601f0160208091040260200160405190810160405280929190818152602001828054612e01906178ae565b8015612e4e5780601f10612e2357610100808354040283529160200191612e4e565b820191906000526020600020905b815481529060010190602001808311612e3157829003601f168201915b505050918352505060038201546020808301919091526004830154604080840191909152600590930154606092830152928452815180830183526006860154815260078601548185015284840152815180830183526008860154815260098601548185015284830152815160808082018452600a8701548252600b87015482860152600c87015482850152600d87015460ff161515828401528583019190915282518082018452600e870180548252600f88015482870152601088015482860152601188018054865181890281018901909752808752939097019691959094938601939290830182828015612f6257602002820191906000526020600020905b815481526020019060010190808311612f4e575b505050919092525050508152604080516060808201835260128501546001600160a01b03168252601385015460208381019190915260148601548385015284019190915260158401549183019190915260169092015460ff1615159101529050612fcb8361127a565b815160c0015161150c919061780c565b6001600160a01b038116600090815260fd602090815260408083205460ff83528184205460fe9093529083205490919081613016848361780c565b613020919061780c565b93509193509193565b6000613033615cb4565b82600060fc8281548110613049576130496178e8565b6000918252602090912060408051610200810190915260179092020180546001600160a01b038082166101008501908152600160a01b830460ff16610120860152600160a81b90920461ffff166101408501526001830154166101608401526002820180548492918491610180850191906130c3906178ae565b80601f01602080910402602001604051908101604052809291908181526020018280546130ef906178ae565b801561313c5780601f106131115761010080835404028352916020019161313c565b820191906000526020600020905b81548152906001019060200180831161311f57829003601f168201915b505050918352505060038201546020808301919091526004830154604080840191909152600590930154606092830152928452815180830183526006860154815260078601548185015284840152815180830183526008860154815260098601548185015284830152815160808082018452600a8701548252600b87015482860152600c87015482850152600d87015460ff161515828401528583019190915282518082018452600e870180548252600f8801548287015260108801548286015260118801805486518189028101890190975280875293909701969195909493860193929083018282801561325057602002820191906000526020600020905b81548152602001906001019080831161323c575b505050919092525050508152604080516060808201835260128501546001600160a01b03168252601385015460208381019190915260148601548385015284019190915260158401549183019190915260169092015460ff16151591015260e08101519091506132f45760405162461bcd60e51b815260206004820152600f60248201526e706f6f6c206e6f742061637469766560881b6044820152606401610ce5565b600060fc8681548110613309576133096178e8565b60009182526020808320601790920290910180546001600160a01b0316835261010890915260409091205490915085101561337a5760405162461bcd60e51b8152602060048201526011602482015270135a5b881cdd185ad9481b9bdd081b595d607a1b6044820152606401610ce5565b600061338587612d45565b825490915061339f906001600160a01b0316333089615d0d565b506101015460405163020da84160e61b815260048101899052336024820152604481018890526000916001600160a01b03169063836a1040906064016020604051808303816000875af11580156133fa573d6000803e3d6000fd5b505050506040513d601f19601f8201168201806040525081019061341e9190617940565b905086836000016004016000828254613437919061780c565b909155505060038301546004840154111561348a5760405162461bcd60e51b8152602060048201526013602482015272115e18d959591959081c1bdbdb081b1a5b5a5d606a1b6044820152606401610ce5565b604051878152889033907f1449c6dd7851abc30abf37f57715f492010519147cc2652fbc38202c18a6ee909060200160405180910390a360006134cc89612d45565b60408051858152602081018390529192508a91600080516020617e57833981519152910160405180910390a250945050505050612cb5600160ca55565b60006301e1338061271062093a806135218587617959565b61352b9190617959565b6135359190617a8b565b61150c9190617a8b565b60008060008060fc8681548110613558576135586178e8565b6000918252602090912060408051610200810190915260179092020180546001600160a01b038082166101008501908152600160a01b830460ff16610120860152600160a81b90920461ffff166101408501526001830154166101608401526002820180548492918491610180850191906135d2906178ae565b80601f01602080910402602001604051908101604052809291908181526020018280546135fe906178ae565b801561364b5780601f106136205761010080835404028352916020019161364b565b820191906000526020600020905b81548152906001019060200180831161362e57829003601f168201915b505050918352505060038201546020808301919091526004830154604080840191909152600590930154606092830152928452815180830183526006860154815260078601548185015284840152815180830183526008860154815260098601548185015284830152815160808082018452600a8701548252600b87015482860152600c87015482850152600d87015460ff161515828401528583019190915282518082018452600e870180548252600f8801548287015260108801548286015260118801805486518189028101890190975280875293909701969195909493860193929083018282801561375f57602002820191906000526020600020905b81548152602001906001019080831161374b575b505050919092525050508152604080516060808201835260128501546001600160a01b039081168352601386015460208481019190915260148701548486015285019290925260158501548385015260169094015460ff161515939092019290925260a08301518051920151929350909190821615806137de57504281105b156137f457508594506000935091506138369050565b60006127108460a00151602001518961380d9190617959565b6138179190617a8b565b90506000613825828a6178fe565b975090955091935061383692505050565b9250925092565b6000613847615cb4565b600060fc848154811061385c5761385c6178e8565b6000918252602090912060179091020160018101549091506001600160a01b0316331461389b5760405162461bcd60e51b8152600401610ce590617a63565b600a810154421180156138b15750600b81015442105b80156138c25750600d81015460ff16155b80156138d25750600c8101548311155b80156138e15750600a81015415155b6138fd5760405162461bcd60e51b8152600401610ce590617cc2565b600d8101805460ff1916600117905560068101548311156139235761392184616324565b505b600061392e85612d45565b90508382600601600001600082825461394791906178fe565b90915550506001820154825461396a916001600160a01b03918216911686616488565b50600061397686612d45565b60408051848152602081018390529192508791600080516020617e57833981519152910160405180910390a260019350505050612cb5600160ca55565b81600060fc82815481106139c9576139c96178e8565b6000918252602090912060408051610200810190915260179092020180546001600160a01b038082166101008501908152600160a01b830460ff16610120860152600160a81b90920461ffff16610140850152600183015416610160840152600282018054849291849161018085019190613a43906178ae565b80601f0160208091040260200160405190810160405280929190818152602001828054613a6f906178ae565b8015613abc5780601f10613a9157610100808354040283529160200191613abc565b820191906000526020600020905b815481529060010190602001808311613a9f57829003601f168201915b505050918352505060038201546020808301919091526004830154604080840191909152600590930154606092830152928452815180830183526006860154815260078601548185015284840152815180830183526008860154815260098601548185015284830152815160808082018452600a8701548252600b87015482860152600c87015482850152600d87015460ff161515828401528583019190915282518082018452600e870180548252600f88015482870152601088015482860152601188018054865181890281018901909752808752939097019691959094938601939290830182828015613bd057602002820191906000526020600020905b815481526020019060010190808311613bbc575b505050919092525050508152604080516060808201835260128501546001600160a01b039081168352601386015460208085019190915260148701548486015285019290925260158501549284019290925260169093015460ff161515918101919091528251015191925016331480613c5357506033546001600160a01b031633145b613c6f5760405162461bcd60e51b8152600401610ce590617bfa565b6001600160a01b038316613cbe5760405162461bcd60e51b8152602060048201526016602482015275496e76616c69642077616c6c6574206164647265737360501b6044820152606401610ce5565b8260fc8581548110613cd257613cd26178e8565b6000918252602090912060179091020160010180546001600160a01b0319166001600160a01b039290921691909117905550505050565b6000613d13615cb4565b6101015460405163430c208160e01b8152336004820152602481018590526001600160a01b039091169063430c208190604401602060405180830381865afa158015613d63573d6000803e3d6000fd5b505050506040513d601f19601f82011682018060405250810190613d879190617749565b613dc95760405162461bcd60e51b815260206004820152601360248201527239b2b73232b91034b9903737ba1037bbb732b960691b6044820152606401610ce5565b610101546040516301f8bc7960e41b8152600481018590526000916001600160a01b031690631f8bc7909060240161010060405180830381865afa158015613e15573d6000803e3d6000fd5b505050506040513d601f19601f82011682018060405250810190613e399190617766565b9050600081600001519050600060fc8281548110613e5957613e596178e8565b90600052602060002090601702019050428360c00151108015613e7f5750428360e00151115b613e9b5760405162461bcd60e51b8152600401610ce590617cc2565b613ea586866164bb565b60208301805160009182905260c0850182905260e085019190915261010154604051638622ea5d60e01b81526001600160a01b0390911690638622ea5d90613ef3908a90889060040161781f565b600060405180830381600087803b158015613f0d57600080fd5b505af1158015613f21573d6000803e3d6000fd5b505050506000613f3084612d45565b90508615613f985761010154604051630852cd8d60e31b8152600481018a90526001600160a01b03909116906342966c6890602401600060405180830381600087803b158015613f7f57600080fd5b505af1158015613f93573d6000803e3d6000fd5b505050505b8115613fca576004830154613fad90836167e8565b60048401558254613fc8906001600160a01b03163384616488565b505b604051828152849033907f7fc4727e062e336010f2c282598ef5f14facb3de68cf8195c2f23e1454b2b74e9060200160405180910390a3600061400c85612d45565b60408051848152602081018390529192508691600080516020617e57833981519152910160405180910390a2505050601101805460018181018355600092835260209092200186905592505050612cb5600160ca55565b610107818154811061407457600080fd5b6000918252602090912001546001600160a01b0316905081565b6000614098615cb4565b336000908152610100602090815260408083206001600160a01b0386168452909152902054801561412c57336000818152610100602090815260408083206001600160a01b03881680855292528220919091556140f59183616488565b5060405181815233907fbf7aaef98dccc47249def450ef0fd30757d553648a28fa7cd56e3b2b052724949060200160405180910390a25b6001915050610e47600160ca55565b60008060008060fc8581548110614154576141546178e8565b6000918252602090912060408051610200810190915260179092020180546001600160a01b038082166101008501908152600160a01b830460ff16610120860152600160a81b90920461ffff166101408501526001830154166101608401526002820180548492918491610180850191906141ce906178ae565b80601f01602080910402602001604051908101604052809291908181526020018280546141fa906178ae565b80156142475780601f1061421c57610100808354040283529160200191614247565b820191906000526020600020905b81548152906001019060200180831161422a57829003601f168201915b505050918352505060038201546020808301919091526004830154604080840191909152600590930154606092830152928452815180830183526006860154815260078601548185015284840152815180830183526008860154815260098601548185015284830152815160808082018452600a8701548252600b87015482860152600c87015482850152600d87015460ff161515828401528583019190915282518082018452600e870180548252600f8801548287015260108801548286015260118801805486518189028101890190975280875293909701969195909493860193929083018282801561435b57602002820191906000526020600020905b815481526020019060010190808311614347575b505050919092525050508152604080516060808201835260128501546001600160a01b0316825260138501546020838101919091526014860154838501528085019290925260158501548385015260169094015460ff1615159284019290925292909101518051918101519201519097919650945092505050565b6143de615cb4565b600060fc84815481106143f3576143f36178e8565b6000918252602090912060179091020160018101549091506001600160a01b031633146144325760405162461bcd60e51b8152600401610ce590617a63565b600061443d85612d45565b8254909150614457906001600160a01b0316333087615d0d565b508382600601600001600082825461446f919061780c565b909155505082511561448857614486858486616046565b505b600061449386612d45565b60408051848152602081018390529192508791600080516020617e57833981519152910160405180910390a2505050611275600160ca55565b60008060008060fc85815481106144e5576144e56178e8565b6000918252602090912060408051610200810190915260179092020180546001600160a01b038082166101008501908152600160a01b830460ff16610120860152600160a81b90920461ffff1661014085015260018301541661016084015260028201805484929184916101808501919061455f906178ae565b80601f016020809104026020016040519081016040528092919081815260200182805461458b906178ae565b80156145d85780601f106145ad576101008083540402835291602001916145d8565b820191906000526020600020905b8154815290600101906020018083116145bb57829003601f168201915b505050918352505060038201546020808301919091526004830154604080840191909152600590930154606092830152928452815180830183526006860154815260078601548185015284840152815180830183526008860154815260098601548185015284830152815160808082018452600a8701548252600b87015482860152600c87015482850152600d87015460ff161515828401528583019190915282518082018452600e870180548252600f880154828701526010880154828601526011880180548651818902810189019097528087529390970196919590949386019392908301828280156146ec57602002820191906000526020600020905b8154815260200190600101908083116146d8575b505050919092525050508152604080516060808201835260128501546001600160a01b03168252601385015460208381019190915260148601548385015284019190915260158401548284015260169093015460ff1615159290910191909152815160a08101519101519192506147669161ffff16613509565b60409091015180516020909101519196909550909350915050565b6034546001600160a01b031633146147ea5760405162461bcd60e51b815260206004820152602660248201527f6f6e6c792070656e64696e67206f776e65722063616e2061636365707420747260448201526530b739b332b960d11b6064820152608401610ce5565b6034546147ff906001600160a01b03166167f4565b565b600081600060fc8281548110614819576148196178e8565b6000918252602090912060408051610200810190915260179092020180546001600160a01b038082166101008501908152600160a01b830460ff16610120860152600160a81b90920461ffff16610140850152600183015416610160840152600282018054849291849161018085019190614893906178ae565b80601f01602080910402602001604051908101604052809291908181526020018280546148bf906178ae565b801561490c5780601f106148e15761010080835404028352916020019161490c565b820191906000526020600020905b8154815290600101906020018083116148ef57829003601f168201915b505050918352505060038201546020808301919091526004830154604080840191909152600590930154606092830152928452815180830183526006860154815260078601548185015284840152815180830183526008860154815260098601548185015284830152815160808082018452600a8701548252600b87015482860152600c87015482850152600d87015460ff161515828401528583019190915282518082018452600e870180548252600f88015482870152601088015482860152601188018054865181890281018901909752808752939097019691959094938601939290830182828015614a2057602002820191906000526020600020905b815481526020019060010190808311614a0c575b505050919092525050508152604080516060808201835260128501546001600160a01b039081168352601386015460208085019190915260148701548486015285019290925260158501549284019290925260169093015460ff161515918101919091528251015191925016331480614aa357506033546001600160a01b031633145b614abf5760405162461bcd60e51b8152600401610ce590617bfa565b600060fc8581548110614ad457614ad46178e8565b60009182526020909120601790910201601681015490915060ff16614b2d5760405162461bcd60e51b815260206004820152600f60248201526e506f6f6c206e6f742061637469766560881b6044820152606401610ce5565b60168101805460ff19169055426015909101555060019392505050565b6000614b54615dcc565b6000614b5f84612fdb565b5050506001600160a01b038516600081815260fd6020908152604080832083905560fe825280832083905560ff909152812055909150614ba0908483616488565b506001949350505050565b614bb3615dcc565b6127108261ffff161115614bfb5760405162461bcd60e51b815260206004820152600f60248201526e0a0c2f2deeae840e8dede40d0d2ced608b1b6044820152606401610ce5565b6127108161ffff161115614c425760405162461bcd60e51b815260206004820152600e60248201526d084dedceae640e8dede40d0d2ced60931b6044820152606401610ce5565b600060fc8581548110614c5757614c576178e8565b90600052602060002090601702019050614caf60405180610100016040528060008152602001600081526020016000815260200160008152602001600081526020016000815260200160008152602001600081525090565b60048201546000614cbf88612d45565b90506000612710614cd461ffff891684617959565b614cde9190617a8b565b61010154604051631b733d7360e21b8152600481018c90529192506000916001600160a01b0390911690636dccf5cc906024016000604051808303816000875af1158015614d30573d6000803e3d6000fd5b505050506040513d6000823e601f3d908101601f19168201604052614d589190810190617d0b565b805190915084831015614eff57600085614d7a670de0b6b3a764000086617959565b614d849190617a8b565b905060005b82811015614ef8576000848281518110614da557614da56178e8565b6020908102919091010151610101546040516301f8bc7960e41b8152600481018390529192506001600160a01b031690631f8bc7909060240161010060405180830381865afa158015614dfc573d6000803e3d6000fd5b505050506040513d601f19601f82011682018060405250810190614e209190617766565b9850614e2d8160006164bb565b6000670de0b6b3a7640000848b60200151614e489190617959565b614e529190617a8b565b9050808a602001818151614e6691906178fe565b90525061010154604051638622ea5d60e01b81526001600160a01b0390911690638622ea5d90614e9c9085908e9060040161781f565b600060405180830381600087803b158015614eb657600080fd5b505af1158015614eca573d6000803e3d6000fd5b50505050808b6000016004016000828254614ee591906178fe565b909155505060019092019150614d899050565b50506150c6565b848310158015614f0f5750838311155b1561508c5760005b81811015615049576000838281518110614f3357614f336178e8565b6020908102919091010151610101546040516301f8bc7960e41b8152600481018390529192506001600160a01b031690631f8bc7909060240161010060405180830381865afa158015614f8a573d6000803e3d6000fd5b505050506040513d601f19601f82011682018060405250810190614fae9190617766565b9750614fbb8160006164bb565b6000602089015261010154604051638622ea5d60e01b81526001600160a01b0390911690638622ea5d90614ff59084908c9060040161781f565b600060405180830381600087803b15801561500f57600080fd5b505af1158015615023573d6000803e3d6000fd5b50505060118a018054600181810183556000928352602090922001929092555001614f17565b506000600488015561505a8b616324565b50600061506786856178fe565b90508088600601600001600082825461508091906178fe565b909155506150c6915050565b60405162461bcd60e51b815260206004820152600f60248201526e082dadeeadce840e8dede40d0d2ced608b1b6044820152606401610ce5565b60006127106150d961ffff8b16826178fe565b6127106150e86103e888617959565b6150f29190617a8b565b6150fc9190617959565b6151069190617a8b565b905060008060006151178f8561353f565b8d5492955090935091506001600160a01b0316615135828285615d7b565b6001600160a01b038116600090815260fd60205260408120805486929061515d90849061780c565b9091555061518290508f615171878b6178fe565b6001600160a01b0384169190616488565b50806001600160a01b03168f6001600160a01b03167fbcbf239e05ac65bcc1a5612cd36d392b0a0aa8c93e027bc86e727687483424888a6040516151c891815260200190565b60405180910390a350505050505050505050505050505050565b610101546001600160a01b0316331461520d5760405162461bcd60e51b8152600401610ce590617bfa565b8060fc8381548110615221576152216178e8565b60009182526020909120600e60179092020101555050565b6000615243615cb4565b600060fc8381548110615258576152586178e8565b6000918252602090912060408051610200810190915260179092020180546001600160a01b038082166101008501908152600160a01b830460ff16610120860152600160a81b90920461ffff166101408501526001830154166101608401526002820180548492918491610180850191906152d2906178ae565b80601f01602080910402602001604051908101604052809291908181526020018280546152fe906178ae565b801561534b5780601f106153205761010080835404028352916020019161534b565b820191906000526020600020905b81548152906001019060200180831161532e57829003601f168201915b505050918352505060038201546020808301919091526004830154604080840191909152600590930154606092830152928452815180830183526006860154815260078601548185015284840152815180830183526008860154815260098601548185015284830152815160808082018452600a8701548252600b87015482860152600c87015482850152600d87015460ff161515828401528583019190915282518082018452600e870180548252600f8801548287015260108801548286015260118801805486518189028101890190975280875293909701969195909493860193929083018282801561545f57602002820191906000526020600020905b81548152602001906001019080831161544b575b505050919092525050508152604080516060808201835260128501546001600160a01b039081168352601386015460208085019190915260148701548486015285019290925260158501549284019290925260169093015460ff16151591810191909152825101519192501633146154e95760405162461bcd60e51b8152600401610ce590617a63565b6000838152610104602052604090205480156155a7576000848152610103602090815260408083208484528252808320548151633941ea2960e21b815291516001600160a01b0390911693849363e507a8a49360048082019492939183900301908290875af1158015615560573d6000803e3d6000fd5b505050506040513d601f19601f820116820180604052508101906155849190617940565b8351606081015190519195506155a4916001600160a01b03169086616488565b50505b5050610e47600160ca55565b80600060fc82815481106155c9576155c96178e8565b6000918252602090912060408051610200810190915260179092020180546001600160a01b038082166101008501908152600160a01b830460ff16610120860152600160a81b90920461ffff16610140850152600183015416610160840152600282018054849291849161018085019190615643906178ae565b80601f016020809104026020016040519081016040528092919081815260200182805461566f906178ae565b80156156bc5780601f10615691576101008083540402835291602001916156bc565b820191906000526020600020905b81548152906001019060200180831161569f57829003601f168201915b505050918352505060038201546020808301919091526004830154604080840191909152600590930154606092830152928452815180830183526006860154815260078601548185015284840152815180830183526008860154815260098601548185015284830152815160808082018452600a8701548252600b87015482860152600c87015482850152600d87015460ff161515828401528583019190915282518082018452600e870180548252600f880154828701526010880154828601526011880180548651818902810189019097528087529390970196919590949386019392908301828280156157d057602002820191906000526020600020905b8154815260200190600101908083116157bc575b505050919092525050508152604080516060808201835260128501546001600160a01b039081168352601386015460208085019190915260148701548486015285019290925260158501549284019290925260169093015460ff16151591810191909152825101519192501633148061585357506033546001600160a01b031633145b61586f5760405162461bcd60e51b8152600401610ce590617bfa565b615877615cb4565b600083815261010460209081526040808320546101038352818420818552909252909120546001600160a01b0316801561595b576000816001600160a01b031663f69e20466040518163ffffffff1660e01b81526004016020604051808303816000875af11580156158ed573d6000803e3d6000fd5b505050506040513d601f19601f820116820180604052508101906159119190617940565b905061591e6001826178fe565b60fc8781548110615931576159316178e8565b90600052602060002090601702016006016001016000828254615954919061780c565b9091555050505b5050611275600160ca55565b6000615971615dcc565b6101075460005b818110156117505760006101078281548110615996576159966178e8565b6000918252602090912001546001600160a01b031690506159b78186614b4a565b5050806159c390617927565b9050615978565b610101546001600160a01b031633146159f55760405162461bcd60e51b8152600401610ce590617bfa565b600060fc8381548110615a0a57615a0a6178e8565b60009182526020822060106017909202019081018490559150611275906011830190616ff4565b615a39615dcc565b6001600160a01b038116615a9e5760405162461bcd60e51b815260206004820152602660248201527f4f776e61626c653a206e6577206f776e657220697320746865207a65726f206160448201526564647265737360d01b6064820152608401610ce5565b603480546001600160a01b0319166001600160a01b0392909216919091179055565b615ac8615cb4565b6101015460405163430c208160e01b8152336004820152602481018390526001600160a01b039091169063430c208190604401602060405180830381865afa158015615b18573d6000803e3d6000fd5b505050506040513d601f19601f82011682018060405250810190615b3c9190617749565b615b9e5760405162461bcd60e51b815260206004820152602d60248201527f4552433732313a2063616c6c6572206973206e6f7420746f6b656e206f776e6560448201526c1c881bdc88185c1c1c9bdd9959609a1b6064820152608401610ce5565b615ba98160016164bb565b610101546040516301f8bc7960e41b8152600481018390526001600160a01b0390911690631f8bc7909060240161010060405180830381865afa158015615bf4573d6000803e3d6000fd5b505050506040513d601f19601f82011682018060405250810190615c189190617766565b60200151600003615c835761010154604051630852cd8d60e31b8152600481018390526001600160a01b03909116906342966c6890602401600060405180830381600087803b158015615c6a57600080fd5b505af1158015615c7e573d6000803e3d6000fd5b505050505b61258b600160ca55565b60fc5460005b81811015612ad557615ca4816155b3565b615cad81617927565b9050615c93565b600260ca5403615d065760405162461bcd60e51b815260206004820152601f60248201527f5265656e7472616e637947756172643a207265656e7472616e742063616c6c006044820152606401610ce5565b600260ca55565b6040516001600160a01b0380851660248301528316604482015260648101829052600090614ba09086906323b872dd60e01b906084015b60408051601f198184030181529190526020810180516001600160e01b03166001600160e01b031990931692909217909152616851565b6001600160a01b03831615611275576001600160a01b0380841660009081526101006020908152604080832093861683529290529081208054839290615dc290849061780c565b9091555050505050565b6033546001600160a01b031633146147ff5760405162461bcd60e51b815260206004820181905260248201527f4f776e61626c653a2063616c6c6572206973206e6f7420746865206f776e65726044820152606401610ce5565b600060fc8381548110615e3b57615e3b6178e8565b600091825260208220601791909102016008810154600382015482549294508592615e719190600160a81b900461ffff16613509565b615e7b91906178fe565b615e85919061780c565b60018301548354919250615ea7916001600160a01b0390811691163084615d0d565b5080826008016000016000828254615ebf919061780c565b9091555060009050612710615ed66103e884617959565b615ee09190617a8b565b90506000806000615ef1888561353f565b885492955090935091506001600160a01b0316615f0f828285615d7b565b6001600160a01b038116600090815260fe602052604081208054869290615f3790849061780c565b9091555060009050615f4986886178fe565b905080886008016001016000828254615f62919061780c565b90915550506040518781528a907fadb049ad2d09be3db90459a16aef1ad0a4d89e8fdcc1ade9429d6cc55abbcd2b9060200160405180910390a250505050505050505050565b6101015460405163f2eb7c6760e01b8152600481018390526000916001600160a01b03169063f2eb7c6790602401602060405180830381865afa158015615ff3573d6000803e3d6000fd5b505050506040513d601f19601f820116820180604052508101906160179190617940565b90508060fc848154811061602d5761602d6178e8565b6000918252602090912060056017909202010155505050565b60008060fc858154811061605c5761605c6178e8565b9060005260206000209060170201905060008460405160200161607f9190617db1565b60408051601f19818403018152918152815160209283012060008981526101049093529120549091508082146161785760006160ba88616324565b905060006160c88989616923565b90506001600160a01b0381161561617557600685018054600090915581906160f16001826178fe565b6007880155865461610c906001600160a01b03168483616488565b50816001600160a01b0316630b5090076040518163ffffffff1660e01b81526004016020604051808303816000875af115801561614d573d6000803e3d6000fd5b505050506040513d601f19601f820116820180604052508101906161719190617940565b5050505b50505b5050509392505050565b61258b615dcc565b7f4910fdfa16fed3260ed0e7147f7cc6da11a60208b5b9406d12a635614ffd91435460ff16156161bd5761127583616ab1565b826001600160a01b03166352d1902d6040518163ffffffff1660e01b8152600401602060405180830381865afa925050508015616217575060408051601f3d908101601f1916820190925261621491810190617940565b60015b61627a5760405162461bcd60e51b815260206004820152602e60248201527f45524331393637557067726164653a206e657720696d706c656d656e7461746960448201526d6f6e206973206e6f74205555505360901b6064820152608401610ce5565b600080516020617e7783398151915281146162e95760405162461bcd60e51b815260206004820152602960248201527f45524331393637557067726164653a20756e737570706f727465642070726f786044820152681a58589b195555525160ba1b6064820152608401610ce5565b50611275838383616b4d565b600054610100900460ff1661631c5760405162461bcd60e51b8152600401610ce590617dc4565b6147ff616b78565b60008060fc838154811061633a5761633a6178e8565b600091825260208083208684526101049091526040832080549084905560179092020192508015616480576000858152610103602090815260408083208484528252808320548151637f1f087360e01b815291516001600160a01b0390911693928492637f1f08739260048083019392829003018187875af11580156163c4573d6000803e3d6000fd5b505050506040513d601f19601f820116820180604052508101906163e89190617940565b6040516348b1933560e01b8152600481018290529091506001600160a01b038316906348b19335906024016020604051808303816000875af1158015616432573d6000803e3d6000fd5b505050506040513d601f19601f820116820180604052508101906164569190617940565b600060078701819055600687018054929650869290919061647890849061780c565b909155505050505b509392505050565b6040516001600160a01b03831660248201526044810182905260009061175090859063a9059cbb60e01b90606401615d44565b610101546040516301f8bc7960e41b8152600481018490526000916001600160a01b031690631f8bc7909060240161010060405180830381865afa158015616507573d6000803e3d6000fd5b505050506040513d601f19601f8201168201806040525081019061652b9190617766565b9050600081600001519050600060fc828154811061654b5761654b6178e8565b600091825260208220610101546040516240bd1d60e81b8152600481018a90526017939093029091019350829182916001600160a01b0316906340bd1d0090602401606060405180830381865afa1580156165aa573d6000803e3d6000fd5b505050506040513d601f19601f820116820180604052508101906165ce9190617880565b9250925092508661667c5783601501546000036165eb57426165f1565b83601501545b60a087015260808601805182919061660a90839061780c565b90525061010154604051638622ea5d60e01b81526001600160a01b0390911690638622ea5d90616640908b908a9060040161781f565b600060405180830381600087803b15801561665a57600080fd5b505af115801561666e573d6000803e3d6000fd5b505050505050505050505050565b6008840154831115616692576166928584615e26565b82156167de57600060808701819052601585015490036166b257426166b8565b83601501545b60a087015261010154604051638622ea5d60e01b81526001600160a01b0390911690638622ea5d906166f0908b908a9060040161781f565b600060405180830381600087803b15801561670a57600080fd5b505af115801561671e573d6000803e3d6000fd5b505050508284600801600001600082825461673991906178fe565b90915550506009840180548391906000906167559084906178fe565b9091555050610101546040516331a9108f60e11b8152600481018a90526167dc916001600160a01b031690636352211e90602401602060405180830381865afa1580156167a6573d6000803e3d6000fd5b505050506040513d601f19601f820116820180604052508101906167ca9190617e0f565b85546001600160a01b03169084616488565b505b5050505050505050565b600061150c82846178fe565b603380546001600160a01b038381166001600160a01b03198084168217909455603480549094169093556040519116919082907f8be0079c531659141344cd1fd0a4f28419497f9722a3daafe3b4186f6b6457e090600090a35050565b60006168a6826040518060400160405280602081526020017f5361666545524332303a206c6f772d6c6576656c2063616c6c206661696c6564815250856001600160a01b0316616ba89092919063ffffffff16565b80519091501561127557808060200190518101906168c49190617749565b6112755760405162461bcd60e51b815260206004820152602a60248201527f5361666545524332303a204552433230206f7065726174696f6e20646964206e6044820152691bdd081cdd58d8d9595960b21b6064820152608401610ce5565b6000806000836040516020016169399190617db1565b60408051601f198184030181529181528151602092830120600088815261010384528281208282529093529120549091506001600160a01b031680616a2a576101025460fc80546001600160a01b039092169163dff968019188918a9081106169a4576169a46178e8565b60009182526020909120601790910201546040516001600160e01b031960e085901b1681526169e092916001600160a01b031690600401617e2c565b6020604051808303816000875af11580156169ff573d6000803e3d6000fd5b505050506040513d601f19601f82011682018060405250810190616a239190617e0f565b9250616a46565b600086815261010460205260409020919091559150612cb59050565b6001600160a01b03831615616aa757600086815261010360209081526040808320858452825280832080546001600160a01b0319166001600160a01b0388169081179091558352610105825280832089905588835261010490915290208290555b5090949350505050565b6001600160a01b0381163b616b1e5760405162461bcd60e51b815260206004820152602d60248201527f455243313936373a206e657720696d706c656d656e746174696f6e206973206e60448201526c1bdd08184818dbdb9d1c9858dd609a1b6064820152608401610ce5565b600080516020617e7783398151915280546001600160a01b0319166001600160a01b0392909216919091179055565b616b5683616bb7565b600082511180616b635750805b1561127557616b728383616bf7565b50505050565b600054610100900460ff16616b9f5760405162461bcd60e51b8152600401610ce590617dc4565b6147ff336167f4565b6060611a858484600085616ceb565b616bc081616ab1565b6040516001600160a01b038216907fbc7cd75a20ee27fd9adebab32041f755214dbc6bffa90cc0225b39da2e5c2d3b90600090a250565b60606001600160a01b0383163b616c5f5760405162461bcd60e51b815260206004820152602660248201527f416464726573733a2064656c65676174652063616c6c20746f206e6f6e2d636f6044820152651b9d1c9858dd60d21b6064820152608401610ce5565b600080846001600160a01b031684604051616c7a9190617aad565b600060405180830381855af49150503d8060008114616cb5576040519150601f19603f3d011682016040523d82523d6000602084013e616cba565b606091505b5091509150616ce28282604051806060016040528060278152602001617e9760279139616dc6565b95945050505050565b606082471015616d4c5760405162461bcd60e51b815260206004820152602660248201527f416464726573733a20696e73756666696369656e742062616c616e636520666f6044820152651c8818d85b1b60d21b6064820152608401610ce5565b600080866001600160a01b03168587604051616d689190617aad565b60006040518083038185875af1925050503d8060008114616da5576040519150601f19603f3d011682016040523d82523d6000602084013e616daa565b606091505b5091509150616dbb87838387616ddf565b979650505050505050565b60608315616dd557508161150c565b61150c8383616e54565b60608315616e4e578251600003616e47576001600160a01b0385163b616e475760405162461bcd60e51b815260206004820152601d60248201527f416464726573733a2063616c6c20746f206e6f6e2d636f6e74726163740000006044820152606401610ce5565b5081611a85565b611a8583835b815115616e645781518083602001fd5b8060405162461bcd60e51b8152600401610ce59190617db1565b6040805161020081019091526000610100820181815261012083018290526101408301829052610160830182905260606101808401526101a083018290526101c083018290526101e083019190915281908152602001616ef1604051806040016040528060008152602001600081525090565b8152602001616f13604051806040016040528060008152602001600081525090565b8152602001616f4560405180608001604052806000815260200160008152602001600081526020016000151581525090565b8152602001616f756040518060800160405280600081526020016000815260200160008152602001606081525090565b8152604080516060810182526000808252602082810182905292820152910190815260006020820181905260409091015290565b828054828255906000526020600020908101928215616fe4579160200282015b82811115616fe4578251825591602001919060010190616fc9565b50616ff092915061700e565b5090565b508054600082559060005260206000209081019061258b91905b5b80821115616ff0576000815560010161700f565b6001600160a01b038116811461258b57600080fd5b6000806040838503121561704b57600080fd5b823561705681617023565b9150602083013561706681617023565b809150509250929050565b6000806040838503121561708457600080fd5b50508035926020909101359150565b6000602082840312156170a557600080fd5b5035919050565b60005b838110156170c75781810151838201526020016170af565b50506000910152565b600081518084526170e88160208601602086016170ac565b601f01601f19169290920160200192915050565b600061010060018060a01b03835116845260ff602084015116602085015261ffff6040840151166040850152606083015161714260608601826001600160a01b03169052565b50608083015181608086015261715a828601826170d0565b91505060a083015160a085015260c083015160c085015260e083015160e08501528091505092915050565b60006080830182518452602080840151818601526040840151604086015260608401516080606087015282815180855260a0880191508383019450600092505b808310156171e557845182529383019360019290920191908301906171c5565b509695505050505050565b60006101e08083526172048184018c6170fc565b905061721d602084018b80518252602090810151910152565b8851606084015260208901516080840152875160a0840152602088015160c0840152604088015160e0840152606088015115156101008401528281036101208401526172698188617185565b86516001600160a01b03166101408501526020870151610160850152604087015161018085015291506172999050565b836101a08301528215156101c08301529998505050505050505050565b600080604083850312156172c957600080fd5b82356172d481617023565b946020939093013593505050565b801515811461258b57600080fd5b60008060006060848603121561730557600080fd5b833561731081617023565b92506020840135617320816172e2565b929592945050506040919091013590565b60208152600082516101e08060208501526173506102008501836170fc565b9150602085015161736e604086018280518252602090810151910152565b50604085015180516080860152602081015160a086015250606085810151805160c0870152602081015160e08701526040810151610100870152908101511515610120860152506080850151848303601f19016101408601526173d18382617185565b60a087015180516001600160a01b03166101608801526020810151610180880152604001516101a087015260c08701516101c087015260e09096015115159190940152509192915050565b803561ffff81168114610e4757600080fd5b634e487b7160e01b600052604160045260246000fd5b604051601f8201601f1916810167ffffffffffffffff8111828210171561746d5761746d61742e565b604052919050565b600067ffffffffffffffff83111561748f5761748f61742e565b6174a2601f8401601f1916602001617444565b90508281528383830111156174b657600080fd5b828260208301376000602084830101529392505050565b600082601f8301126174de57600080fd5b61150c83833560208501617475565b600080600080600060a0868803121561750557600080fd5b853594506020860135935061751c6040870161741c565b925060608601359150608086013567ffffffffffffffff81111561753f57600080fd5b61754b888289016174cd565b9150509295509295909350565b60008060008060008060c0878903121561757157600080fd5b863561757c81617023565b9550602087013561758c81617023565b9450604087013567ffffffffffffffff8111156175a857600080fd5b6175b489828a016174cd565b94505060608701356175c581617023565b9598949750929560808101359460a0909101359350915050565b6000602082840312156175f157600080fd5b813561150c81617023565b6000806040838503121561760f57600080fd5b823561761a81617023565b9150602083013567ffffffffffffffff81111561763657600080fd5b8301601f8101851361764757600080fd5b61765685823560208401617475565b9150509250929050565b6000806040838503121561767357600080fd5b82359150602083013561706681617023565b6000806040838503121561769857600080fd5b823591506020830135617066816172e2565b6000806000606084860312156176bf57600080fd5b8335925060208401359150604084013567ffffffffffffffff8111156176e457600080fd5b6176f0868287016174cd565b9150509250925092565b6000806000806080858703121561771057600080fd5b84359350602085013561772281617023565b92506177306040860161741c565b915061773e6060860161741c565b905092959194509250565b60006020828403121561775b57600080fd5b815161150c816172e2565b600061010080838503121561777a57600080fd5b6040519081019067ffffffffffffffff8211818310171561779d5761779d61742e565b81604052835181526020840151602082015260408401516040820152606084015160608201526080840151608082015260a084015160a082015260c084015160c082015260e084015160e0820152809250505092915050565b634e487b7160e01b600052601160045260246000fd5b80820180821115612cb557612cb56177f6565b60006101208201905083825282516020830152602083015160408301526040830151606083015260608301516080830152608083015160a083015260a083015160c083015260c083015160e083015260e08301516101008301529392505050565b60008060006060848603121561789557600080fd5b8351925060208401519150604084015190509250925092565b600181811c908216806178c257607f821691505b6020821081036178e257634e487b7160e01b600052602260045260246000fd5b50919050565b634e487b7160e01b600052603260045260246000fd5b81810381811115612cb557612cb56177f6565b634e487b7160e01b600052603160045260246000fd5b600060018201617939576179396177f6565b5060010190565b60006020828403121561795257600080fd5b5051919050565b8082028115828204841417612cb557612cb56177f6565b600181815b808511156179ab578160001904821115617991576179916177f6565b8085161561799e57918102915b93841c9390800290617975565b509250929050565b6000826179c257506001612cb5565b816179cf57506000612cb5565b81600181146179e557600281146179ef57617a0b565b6001915050612cb5565b60ff841115617a0057617a006177f6565b50506001821b612cb5565b5060208310610133831016604e8410600b8410161715617a2e575081810a612cb5565b617a388383617970565b8060001904821115617a4c57617a4c6177f6565b029392505050565b600061150c60ff8416836179b3565b6020808252600e908201526d139bdd08185d5d1a1bdc9a5e995960921b604082015260600190565b600082617aa857634e487b7160e01b600052601260045260246000fd5b500490565b60008251617abf8184602087016170ac565b9190910192915050565b600060208284031215617adb57600080fd5b815160ff8116811461150c57600080fd5b601f82111561127557600081815260208120601f850160051c81016020861015617b135750805b601f850160051c820191505b81811015617b3257828155600101617b1f565b505050505050565b815167ffffffffffffffff811115617b5457617b5461742e565b617b6881617b6284546178ae565b84617aec565b602080601f831160018114617b9d5760008415617b855750858301515b600019600386901b1c1916600185901b178555617b32565b600085815260208120601f198616915b82811015617bcc57888601518255948401946001909101908401617bad565b5085821015617bea5787850151600019600388901b60f8161c191681555b5050505050600190811b01905550565b60208082526016908201527514d85b1bdbdb8e881b9bdd08185d5d1a1bdc9a5e995960521b604082015260600190565b6020808252602c908201527f46756e6374696f6e206d7573742062652063616c6c6564207468726f7567682060408201526b19195b1959d85d1958d85b1b60a21b606082015260800190565b6020808252602c908201527f46756e6374696f6e206d7573742062652063616c6c6564207468726f7567682060408201526b6163746976652070726f787960a01b606082015260800190565b60208082526029908201527f54696d656c6f636b206e6f7420736574206f72206e6f7420636f6d706c6574656040820152686420696e2074696d6560b81b606082015260800190565b60006020808385031215617d1e57600080fd5b825167ffffffffffffffff80821115617d3657600080fd5b818501915085601f830112617d4a57600080fd5b815181811115617d5c57617d5c61742e565b8060051b9150617d6d848301617444565b8181529183018401918481019088841115617d8757600080fd5b938501935b83851015617da557845182529385019390850190617d8c565b98975050505050505050565b60208152600061150c60208301846170d0565b6020808252602b908201527f496e697469616c697a61626c653a20636f6e7472616374206973206e6f74206960408201526a6e697469616c697a696e6760a81b606082015260800190565b600060208284031215617e2157600080fd5b815161150c81617023565b604081526000617e3f60408301856170d0565b905060018060a01b0383166020830152939250505056fea3ea4fb8dee4d414198cb197af6eae4fe483c1a0b849dc50e53b9bf1a60e2166360894a13ba1a3210667c828492db98dca3e2076cc3735a920a3ca505d382bbc416464726573733a206c6f772d6c6576656c2064656c65676174652063616c6c206661696c6564a26469706673582212200b480daa49d3fb7837a12848ab5c4115d271f9315f9c9be91b841203ed2dca8464736f6c63430008110033",
    "linkReferences": {}
  },
  "methodIdentifiers": {
    "acceptOwnershipTransfer()": "b842e87f",
    "activeStrategies(uint256)": "b20b2429",
    "activeTokens(uint256)": "9f224f35",
    "addNewBountyPool(address,address,string,address,uint256,uint256)": "32fce602",
    "billPremium(uint256)": "2dbe051e",
    "calcReferralSplit(uint256,uint256)": "928dc6a9",
    "calcRequiredPremiumBalancePerPeriod(uint256,uint256)": "836ef1fa",
    "claimPremium(uint256)": "f47ec3be",
    "collectAllReferralProfits()": "3e8888d9",
    "collectAllSaloonProfits(address)": "ecd7fbed",
    "collectReferralProfit(address)": "a089a520",
    "collectSaloonProfits(address,address)": "cf9564b9",
    "compoundYieldForAll()": "f68ce499",
    "compoundYieldForPid(uint256)": "e78ea3df",
    "extendReferralPeriod(uint256,uint256)": "5de406dc",
    "finalizeConsolidation(uint256,uint256)": "f247df09",
    "getPoolInfo(uint256)": "2f380b35",
    "increaseTotalSupply(uint256,uint256)": "339b3776",
    "initialize(address,address)": "485cc955",
    "makeProjectDeposit(uint256,uint256,string)": "ae07f948",
    "minTokenStakeAmount(address)": "39458723",
    "owner()": "8da5cb5b",
    "payBounty(uint256,address,uint16,uint16)": "d075afac",
    "pidStrategies(uint256,bytes32)": "074ecf03",
    "poolInfo(uint256)": "1526fe27",
    "poolLength()": "081e3eda",
    "projectDepositWithdrawal(uint256,uint256)": "983c1ce0",
    "proxiableUUID()": "52d1902d",
    "receiveStrategyYield(address,uint256)": "1aebcecb",
    "referralBalances(address,address)": "011b408b",
    "saloonBountyProfit(address)": "e45abd0f",
    "saloonPremiumProfit(address)": "ca006148",
    "saloonStrategyProfit(address)": "598d17bf",
    "scheduleProjectDepositWithdrawal(uint256,uint256)": "5669cbef",
    "scheduleUnstake(uint256)": "106d08df",
    "setAPYandPoolCapAndDeposit(uint256,uint256,uint16,uint256,string)": "30ca0794",
    "stake(uint256,uint256)": "7b0472f0",
    "strategyAddressToPid(address)": "957deecc",
    "tokenWhitelist(address)": "753d7563",
    "transferOwnership(address)": "f2fde38b",
    "unstake(uint256,bool)": "9ebea88c",
    "updateCurrentX(uint256,uint256)": "da4ef107",
    "updateProjectWalletAddress(uint256,address)": "995974c4",
    "updateStrategyFactoryAddress(address)": "3538fda0",
    "updateTokenWhitelist(address,bool,uint256)": "2cb0dfcc",
    "upgradeTo(address)": "3659cfe6",
    "upgradeToAndCall(address,bytes)": "4f1ef286",
    "viewBountyBalance(uint256)": "6ac6d812",
    "viewBountyInfo(uint256)": "40ef2868",
    "viewCurrentAPY(uint256)": "2de16204",
    "viewMinProjectDeposit(uint256)": "1c6b323f",
    "viewPoolPremiumInfo(uint256)": "b1a2d16f",
    "viewPoolTimelockInfo(uint256)": "ac30b856",
    "viewReferralBalance(address,address)": "0ed7610c",
    "viewSaloonProfitBalance(address)": "718c7eef",
    "viewTokenInfo(uint256)": "10725852",
    "windDownBounty(uint256)": "bb7019c1",
    "withdrawProjectYield(uint256)": "db53e8b5"
  },
  "id": 31
}