{
  "abi": [
    {
      "anonymous": false,
      "inputs": [
        {
          "indexed": false,
          "internalType": "address",
          "name": "previousAdmin",
          "type": "address"
        },
        {
          "indexed": false,
          "internalType": "address",
          "name": "newAdmin",
          "type": "address"
        }
      ],
      "name": "AdminChanged",
      "type": "event"
    },
    {
      "anonymous": false,
      "inputs": [
        {
          "indexed": true,
          "internalType": "address",
          "name": "owner",
          "type": "address"
        },
        {
          "indexed": true,
          "internalType": "address",
          "name": "spender",
          "type": "address"
        },
        {
          "indexed": false,
          "internalType": "uint256",
          "name": "value",
          "type": "uint256"
        }
      ],
      "name": "Approval",
      "type": "event"
    },
    {
      "anonymous": false,
      "inputs": [
        {
          "indexed": true,
          "internalType": "address",
          "name": "beacon",
          "type": "address"
        }
      ],
      "name": "BeaconUpgraded",
      "type": "event"
    },
    {
      "anonymous": false,
      "inputs": [
        {
          "indexed": true,
          "internalType": "uint256",
          "name": "pid",
          "type": "uint256"
        },
        {
          "indexed": true,
          "internalType": "uint256",
          "name": "oldAmount",
          "type": "uint256"
        },
        {
          "indexed": true,
          "internalType": "uint256",
          "name": "newAmount",
          "type": "uint256"
        }
      ],
      "name": "BountyBalanceChanged",
      "type": "event"
    },
    {
      "anonymous": false,
      "inputs": [
        {
          "indexed": true,
          "internalType": "uint256",
          "name": "time",
          "type": "uint256"
        },
        {
          "indexed": true,
          "internalType": "address",
          "name": "hunter",
          "type": "address"
        },
        {
          "indexed": true,
          "internalType": "address",
          "name": "token",
          "type": "address"
        },
        {
          "indexed": false,
          "internalType": "uint256",
          "name": "amount",
          "type": "uint256"
        }
      ],
      "name": "BountyPaid",
      "type": "event"
    },
    {
      "anonymous": false,
      "inputs": [
        {
          "indexed": false,
          "internalType": "uint8",
          "name": "version",
          "type": "uint8"
        }
      ],
      "name": "Initialized",
      "type": "event"
    },
    {
      "anonymous": false,
      "inputs": [
        {
          "indexed": true,
          "internalType": "uint256",
          "name": "pid",
          "type": "uint256"
        },
        {
          "indexed": true,
          "internalType": "address",
          "name": "token",
          "type": "address"
        },
        {
          "indexed": true,
          "internalType": "uint256",
          "name": "tokenDecimals",
          "type": "uint256"
        }
      ],
      "name": "NewBountyDeployed",
      "type": "event"
    },
    {
      "anonymous": false,
      "inputs": [
        {
          "indexed": true,
          "internalType": "address",
          "name": "previousOwner",
          "type": "address"
        },
        {
          "indexed": true,
          "internalType": "address",
          "name": "newOwner",
          "type": "address"
        }
      ],
      "name": "OwnershipTransferred",
      "type": "event"
    },
    {
      "anonymous": false,
      "inputs": [
        {
          "indexed": true,
          "internalType": "uint256",
          "name": "pid",
          "type": "uint256"
        },
        {
          "indexed": true,
          "internalType": "uint256",
          "name": "amount",
          "type": "uint256"
        }
      ],
      "name": "PremiumBilled",
      "type": "event"
    },
    {
      "anonymous": false,
      "inputs": [
        {
          "indexed": true,
          "internalType": "address",
          "name": "user",
          "type": "address"
        },
        {
          "indexed": true,
          "internalType": "uint256",
          "name": "pid",
          "type": "uint256"
        },
        {
          "indexed": false,
          "internalType": "uint256",
          "name": "amount",
          "type": "uint256"
        }
      ],
      "name": "Staked",
      "type": "event"
    },
    {
      "anonymous": false,
      "inputs": [
        {
          "indexed": true,
          "internalType": "address",
          "name": "from",
          "type": "address"
        },
        {
          "indexed": true,
          "internalType": "address",
          "name": "to",
          "type": "address"
        },
        {
          "indexed": false,
          "internalType": "uint256",
          "name": "value",
          "type": "uint256"
        }
      ],
      "name": "Transfer",
      "type": "event"
    },
    {
      "anonymous": false,
      "inputs": [
        {
          "indexed": true,
          "internalType": "address",
          "name": "user",
          "type": "address"
        },
        {
          "indexed": true,
          "internalType": "uint256",
          "name": "pid",
          "type": "uint256"
        },
        {
          "indexed": false,
          "internalType": "uint256",
          "name": "amount",
          "type": "uint256"
        }
      ],
      "name": "Unstaked",
      "type": "event"
    },
    {
      "anonymous": false,
      "inputs": [
        {
          "indexed": true,
          "internalType": "address",
          "name": "implementation",
          "type": "address"
        }
      ],
      "name": "Upgraded",
      "type": "event"
    },
    {
      "anonymous": false,
      "inputs": [
        {
          "indexed": true,
          "internalType": "uint256",
          "name": "pid",
          "type": "uint256"
        },
        {
          "indexed": true,
          "internalType": "uint256",
          "name": "amount",
          "type": "uint256"
        }
      ],
      "name": "WithdrawalOrUnstakeScheduled",
      "type": "event"
    },
    {
      "anonymous": false,
      "inputs": [
        {
          "indexed": true,
          "internalType": "address",
          "name": "token",
          "type": "address"
        },
        {
          "indexed": true,
          "internalType": "bool",
          "name": "whitelisted",
          "type": "bool"
        }
      ],
      "name": "tokenWhitelistUpdated",
      "type": "event"
    },
    {
      "inputs": [
        {
          "internalType": "uint256",
          "name": "",
          "type": "uint256"
        }
      ],
      "name": "M",
      "outputs": [
        {
          "internalType": "uint256",
          "name": "",
          "type": "uint256"
        }
      ],
      "stateMutability": "view",
      "type": "function"
    },
    {
      "inputs": [],
      "name": "acceptOwnershipTransfer",
      "outputs": [],
      "stateMutability": "nonpayable",
      "type": "function"
    },
    {
      "inputs": [
        {
          "internalType": "uint256",
          "name": "",
          "type": "uint256"
        }
      ],
      "name": "activeTokens",
      "outputs": [
        {
          "internalType": "address",
          "name": "",
          "type": "address"
        }
      ],
      "stateMutability": "view",
      "type": "function"
    },
    {
      "inputs": [
        {
          "internalType": "address",
          "name": "_token",
          "type": "address"
        },
        {
          "internalType": "address",
          "name": "_projectWallet",
          "type": "address"
        },
        {
          "internalType": "string",
          "name": "_projectName",
          "type": "string"
        }
      ],
      "name": "addNewBountyPool",
      "outputs": [
        {
          "internalType": "uint256",
          "name": "",
          "type": "uint256"
        }
      ],
      "stateMutability": "nonpayable",
      "type": "function"
    },
    {
      "inputs": [
        {
          "internalType": "address",
          "name": "owner",
          "type": "address"
        },
        {
          "internalType": "address",
          "name": "spender",
          "type": "address"
        }
      ],
      "name": "allowance",
      "outputs": [
        {
          "internalType": "uint256",
          "name": "",
          "type": "uint256"
        }
      ],
      "stateMutability": "view",
      "type": "function"
    },
    {
      "inputs": [
        {
          "internalType": "address",
          "name": "spender",
          "type": "address"
        },
        {
          "internalType": "uint256",
          "name": "amount",
          "type": "uint256"
        }
      ],
      "name": "approve",
      "outputs": [
        {
          "internalType": "bool",
          "name": "",
          "type": "bool"
        }
      ],
      "stateMutability": "nonpayable",
      "type": "function"
    },
    {
      "inputs": [
        {
          "internalType": "address",
          "name": "account",
          "type": "address"
        }
      ],
      "name": "balanceOf",
      "outputs": [
        {
          "internalType": "uint256",
          "name": "",
          "type": "uint256"
        }
      ],
      "stateMutability": "view",
      "type": "function"
    },
    {
      "inputs": [
        {
          "internalType": "uint256",
          "name": "_pid",
          "type": "uint256"
        }
      ],
      "name": "billPremium",
      "outputs": [
        {
          "internalType": "bool",
          "name": "",
          "type": "bool"
        }
      ],
      "stateMutability": "nonpayable",
      "type": "function"
    },
    {
      "inputs": [
        {
          "internalType": "uint256",
          "name": "_targetAPY",
          "type": "uint256"
        },
        {
          "internalType": "uint256",
          "name": "_poolID",
          "type": "uint256"
        }
      ],
      "name": "calculateMultiplier",
      "outputs": [],
      "stateMutability": "nonpayable",
      "type": "function"
    },
    {
      "inputs": [
        {
          "internalType": "uint256",
          "name": "_pid",
          "type": "uint256"
        }
      ],
      "name": "claimPremium",
      "outputs": [],
      "stateMutability": "nonpayable",
      "type": "function"
    },
    {
      "inputs": [
        {
          "internalType": "address",
          "name": "_saloonWallet",
          "type": "address"
        }
      ],
      "name": "collectAllSaloonProfits",
      "outputs": [
        {
          "internalType": "bool",
          "name": "",
          "type": "bool"
        }
      ],
      "stateMutability": "nonpayable",
      "type": "function"
    },
    {
      "inputs": [
        {
          "internalType": "address",
          "name": "_token",
          "type": "address"
        },
        {
          "internalType": "address",
          "name": "_saloonWallet",
          "type": "address"
        }
      ],
      "name": "collectSaloonProfits",
      "outputs": [
        {
          "internalType": "bool",
          "name": "",
          "type": "bool"
        }
      ],
      "stateMutability": "nonpayable",
      "type": "function"
    },
    {
      "inputs": [],
      "name": "decimals",
      "outputs": [
        {
          "internalType": "uint8",
          "name": "",
          "type": "uint8"
        }
      ],
      "stateMutability": "view",
      "type": "function"
    },
    {
      "inputs": [
        {
          "internalType": "address",
          "name": "spender",
          "type": "address"
        },
        {
          "internalType": "uint256",
          "name": "subtractedValue",
          "type": "uint256"
        }
      ],
      "name": "decreaseAllowance",
      "outputs": [
        {
          "internalType": "bool",
          "name": "",
          "type": "bool"
        }
      ],
      "stateMutability": "nonpayable",
      "type": "function"
    },
    {
      "inputs": [],
      "name": "getCurrentAPY",
      "outputs": [
        {
          "internalType": "uint256",
          "name": "result",
          "type": "uint256"
        }
      ],
      "stateMutability": "nonpayable",
      "type": "function"
    },
    {
      "inputs": [
        {
          "internalType": "uint256",
          "name": "_from",
          "type": "uint256"
        },
        {
          "internalType": "uint256",
          "name": "_to",
          "type": "uint256"
        }
      ],
      "name": "getMultiplier",
      "outputs": [
        {
          "internalType": "uint256",
          "name": "",
          "type": "uint256"
        }
      ],
      "stateMutability": "pure",
      "type": "function"
    },
    {
      "inputs": [
        {
          "internalType": "address",
          "name": "spender",
          "type": "address"
        },
        {
          "internalType": "uint256",
          "name": "addedValue",
          "type": "uint256"
        }
      ],
      "name": "increaseAllowance",
      "outputs": [
        {
          "internalType": "bool",
          "name": "",
          "type": "bool"
        }
      ],
      "stateMutability": "nonpayable",
      "type": "function"
    },
    {
      "inputs": [],
      "name": "initialize",
      "outputs": [],
      "stateMutability": "nonpayable",
      "type": "function"
    },
    {
      "inputs": [
        {
          "internalType": "uint256",
          "name": "_pid",
          "type": "uint256"
        },
        {
          "internalType": "uint256",
          "name": "_deposit",
          "type": "uint256"
        }
      ],
      "name": "makeProjectDeposit",
      "outputs": [],
      "stateMutability": "nonpayable",
      "type": "function"
    },
    {
      "inputs": [],
      "name": "name",
      "outputs": [
        {
          "internalType": "string",
          "name": "",
          "type": "string"
        }
      ],
      "stateMutability": "view",
      "type": "function"
    },
    {
      "inputs": [],
      "name": "owner",
      "outputs": [
        {
          "internalType": "address",
          "name": "",
          "type": "address"
        }
      ],
      "stateMutability": "view",
      "type": "function"
    },
    {
      "inputs": [
        {
          "internalType": "uint256",
          "name": "_pid",
          "type": "uint256"
        },
        {
          "internalType": "address",
          "name": "_hunter",
          "type": "address"
        },
        {
          "internalType": "uint256",
          "name": "_amount",
          "type": "uint256"
        }
      ],
      "name": "payBounty",
      "outputs": [
        {
          "internalType": "bool",
          "name": "",
          "type": "bool"
        }
      ],
      "stateMutability": "nonpayable",
      "type": "function"
    },
    {
      "inputs": [
        {
          "internalType": "uint256",
          "name": "_pid",
          "type": "uint256"
        },
        {
          "internalType": "address",
          "name": "_user",
          "type": "address"
        }
      ],
      "name": "pendingToken",
      "outputs": [
        {
          "internalType": "uint256",
          "name": "totalPending",
          "type": "uint256"
        },
        {
          "internalType": "uint256",
          "name": "actualPending",
          "type": "uint256"
        },
        {
          "internalType": "uint256",
          "name": "newPending",
          "type": "uint256"
        }
      ],
      "stateMutability": "view",
      "type": "function"
    },
    {
      "inputs": [
        {
          "internalType": "uint256",
          "name": "",
          "type": "uint256"
        }
      ],
      "name": "poolInfo",
      "outputs": [
        {
          "internalType": "contract IERC20",
          "name": "token",
          "type": "address"
        },
        {
          "internalType": "uint8",
          "name": "tokenDecimals",
          "type": "uint8"
        },
        {
          "internalType": "uint16",
          "name": "apy",
          "type": "uint16"
        },
        {
          "internalType": "address",
          "name": "projectWallet",
          "type": "address"
        },
        {
          "internalType": "string",
          "name": "projectName",
          "type": "string"
        },
        {
          "internalType": "uint256",
          "name": "projectDeposit",
          "type": "uint256"
        },
        {
          "internalType": "uint256",
          "name": "poolCap",
          "type": "uint256"
        },
        {
          "internalType": "uint256",
          "name": "totalStaked",
          "type": "uint256"
        },
        {
          "internalType": "uint256",
          "name": "requiredPremiumBalancePerPeriod",
          "type": "uint256"
        },
        {
          "internalType": "uint256",
          "name": "premiumBalance",
          "type": "uint256"
        },
        {
          "internalType": "uint256",
          "name": "premiumAvailable",
          "type": "uint256"
        },
        {
          "components": [
            {
              "internalType": "uint256",
              "name": "timelock",
              "type": "uint256"
            },
            {
              "internalType": "uint256",
              "name": "timeLimit",
              "type": "uint256"
            },
            {
              "internalType": "uint256",
              "name": "withdrawalScheduledAmount",
              "type": "uint256"
            },
            {
              "internalType": "bool",
              "name": "withdrawalExecuted",
              "type": "bool"
            }
          ],
          "internalType": "struct ISaloon.TimelockInfo",
          "name": "poolTimelock",
          "type": "tuple"
        },
        {
          "internalType": "bool",
          "name": "isActive",
          "type": "bool"
        },
        {
          "internalType": "uint256",
          "name": "freezeTime",
          "type": "uint256"
        }
      ],
      "stateMutability": "view",
      "type": "function"
    },
    {
      "inputs": [],
      "name": "poolLength",
      "outputs": [
        {
          "internalType": "uint256",
          "name": "",
          "type": "uint256"
        }
      ],
      "stateMutability": "view",
      "type": "function"
    },
    {
      "inputs": [
        {
          "internalType": "uint256",
          "name": "",
          "type": "uint256"
        }
      ],
      "name": "poolSize",
      "outputs": [
        {
          "internalType": "uint256",
          "name": "",
          "type": "uint256"
        }
      ],
      "stateMutability": "view",
      "type": "function"
    },
    {
      "inputs": [
        {
          "internalType": "uint256",
          "name": "_pid",
          "type": "uint256"
        },
        {
          "internalType": "uint256",
          "name": "_amount",
          "type": "uint256"
        }
      ],
      "name": "projectDepositWithdrawal",
      "outputs": [
        {
          "internalType": "bool",
          "name": "",
          "type": "bool"
        }
      ],
      "stateMutability": "nonpayable",
      "type": "function"
    },
    {
      "inputs": [],
      "name": "proxiableUUID",
      "outputs": [
        {
          "internalType": "bytes32",
          "name": "",
          "type": "bytes32"
        }
      ],
      "stateMutability": "view",
      "type": "function"
    },
    {
      "inputs": [
        {
          "internalType": "address",
          "name": "",
          "type": "address"
        }
      ],
      "name": "saloonBountyProfit",
      "outputs": [
        {
          "internalType": "uint256",
          "name": "",
          "type": "uint256"
        }
      ],
      "stateMutability": "view",
      "type": "function"
    },
    {
      "inputs": [
        {
          "internalType": "address",
          "name": "",
          "type": "address"
        }
      ],
      "name": "saloonPremiumProfit",
      "outputs": [
        {
          "internalType": "uint256",
          "name": "",
          "type": "uint256"
        }
      ],
      "stateMutability": "view",
      "type": "function"
    },
    {
      "inputs": [
        {
          "internalType": "uint256",
          "name": "_pid",
          "type": "uint256"
        },
        {
          "internalType": "uint256",
          "name": "_amount",
          "type": "uint256"
        }
      ],
      "name": "scheduleProjectDepositWithdrawal",
      "outputs": [
        {
          "internalType": "bool",
          "name": "",
          "type": "bool"
        }
      ],
      "stateMutability": "nonpayable",
      "type": "function"
    },
    {
      "inputs": [
        {
          "internalType": "uint256",
          "name": "_pid",
          "type": "uint256"
        },
        {
          "internalType": "uint256",
          "name": "_amount",
          "type": "uint256"
        }
      ],
      "name": "scheduleUnstake",
      "outputs": [
        {
          "internalType": "bool",
          "name": "",
          "type": "bool"
        }
      ],
      "stateMutability": "nonpayable",
      "type": "function"
    },
    {
      "inputs": [],
      "name": "seeEffectiveStakingAPY",
      "outputs": [],
      "stateMutability": "nonpayable",
      "type": "function"
    },
    {
      "inputs": [
        {
          "internalType": "uint256",
          "name": "_pid",
          "type": "uint256"
        },
        {
          "internalType": "uint256",
          "name": "_poolCap",
          "type": "uint256"
        },
        {
          "internalType": "uint16",
          "name": "_apy",
          "type": "uint16"
        },
        {
          "internalType": "uint256",
          "name": "_deposit",
          "type": "uint256"
        }
      ],
      "name": "setAPYandPoolCapAndDeposit",
      "outputs": [],
      "stateMutability": "nonpayable",
      "type": "function"
    },
    {
      "inputs": [
        {
          "internalType": "uint256",
          "name": "_pid",
          "type": "uint256"
        },
        {
          "internalType": "address",
          "name": "_user",
          "type": "address"
        },
        {
          "internalType": "uint256",
          "name": "_amount",
          "type": "uint256"
        }
      ],
      "name": "stake",
      "outputs": [
        {
          "internalType": "bool",
          "name": "",
          "type": "bool"
        }
      ],
      "stateMutability": "nonpayable",
      "type": "function"
    },
    {
      "inputs": [],
      "name": "symbol",
      "outputs": [
        {
          "internalType": "string",
          "name": "",
          "type": "string"
        }
      ],
      "stateMutability": "view",
      "type": "function"
    },
    {
      "inputs": [
        {
          "internalType": "address",
          "name": "",
          "type": "address"
        }
      ],
      "name": "tokenWhitelist",
      "outputs": [
        {
          "internalType": "bool",
          "name": "",
          "type": "bool"
        }
      ],
      "stateMutability": "view",
      "type": "function"
    },
    {
      "inputs": [],
      "name": "totalSupply",
      "outputs": [
        {
          "internalType": "uint256",
          "name": "",
          "type": "uint256"
        }
      ],
      "stateMutability": "view",
      "type": "function"
    },
    {
      "inputs": [
        {
          "internalType": "address",
          "name": "to",
          "type": "address"
        },
        {
          "internalType": "uint256",
          "name": "amount",
          "type": "uint256"
        }
      ],
      "name": "transfer",
      "outputs": [
        {
          "internalType": "bool",
          "name": "",
          "type": "bool"
        }
      ],
      "stateMutability": "nonpayable",
      "type": "function"
    },
    {
      "inputs": [
        {
          "internalType": "address",
          "name": "from",
          "type": "address"
        },
        {
          "internalType": "address",
          "name": "to",
          "type": "address"
        },
        {
          "internalType": "uint256",
          "name": "amount",
          "type": "uint256"
        }
      ],
      "name": "transferFrom",
      "outputs": [
        {
          "internalType": "bool",
          "name": "",
          "type": "bool"
        }
      ],
      "stateMutability": "nonpayable",
      "type": "function"
    },
    {
      "inputs": [
        {
          "internalType": "address",
          "name": "newOwner",
          "type": "address"
        }
      ],
      "name": "transferOwnership",
      "outputs": [],
      "stateMutability": "nonpayable",
      "type": "function"
    },
    {
      "inputs": [
        {
          "internalType": "uint256",
          "name": "_pid",
          "type": "uint256"
        },
        {
          "internalType": "uint256",
          "name": "_amount",
          "type": "uint256"
        },
        {
          "internalType": "bool",
          "name": "_shouldHarvest",
          "type": "bool"
        }
      ],
      "name": "unstake",
      "outputs": [
        {
          "internalType": "bool",
          "name": "",
          "type": "bool"
        }
      ],
      "stateMutability": "nonpayable",
      "type": "function"
    },
    {
      "inputs": [
        {
          "internalType": "address",
          "name": "_token",
          "type": "address"
        },
        {
          "internalType": "bool",
          "name": "_whitelisted",
          "type": "bool"
        }
      ],
      "name": "updateTokenWhitelist",
      "outputs": [
        {
          "internalType": "bool",
          "name": "",
          "type": "bool"
        }
      ],
      "stateMutability": "nonpayable",
      "type": "function"
    },
    {
      "inputs": [
        {
          "internalType": "address",
          "name": "newImplementation",
          "type": "address"
        }
      ],
      "name": "upgradeTo",
      "outputs": [],
      "stateMutability": "nonpayable",
      "type": "function"
    },
    {
      "inputs": [
        {
          "internalType": "address",
          "name": "newImplementation",
          "type": "address"
        },
        {
          "internalType": "bytes",
          "name": "data",
          "type": "bytes"
        }
      ],
      "name": "upgradeToAndCall",
      "outputs": [],
      "stateMutability": "payable",
      "type": "function"
    },
    {
      "inputs": [
        {
          "internalType": "uint256",
          "name": "",
          "type": "uint256"
        },
        {
          "internalType": "address",
          "name": "",
          "type": "address"
        }
      ],
      "name": "userInfo",
      "outputs": [
        {
          "internalType": "uint256",
          "name": "amount",
          "type": "uint256"
        },
        {
          "internalType": "uint256",
          "name": "unclaimed",
          "type": "uint256"
        },
        {
          "internalType": "uint256",
          "name": "lastRewardTime",
          "type": "uint256"
        },
        {
          "internalType": "uint256",
          "name": "timelock",
          "type": "uint256"
        },
        {
          "internalType": "uint256",
          "name": "timeLimit",
          "type": "uint256"
        },
        {
          "internalType": "uint256",
          "name": "unstakeScheduledAmount",
          "type": "uint256"
        }
      ],
      "stateMutability": "view",
      "type": "function"
    },
    {
      "inputs": [
        {
          "internalType": "uint256",
          "name": "_pid",
          "type": "uint256"
        }
      ],
      "name": "viewBountyBalance",
      "outputs": [
        {
          "internalType": "uint256",
          "name": "",
          "type": "uint256"
        }
      ],
      "stateMutability": "view",
      "type": "function"
    },
    {
      "inputs": [
        {
          "internalType": "uint256",
          "name": "_pid",
          "type": "uint256"
        }
      ],
      "name": "viewBountyInfo",
      "outputs": [
        {
          "internalType": "uint256",
          "name": "payout",
          "type": "uint256"
        },
        {
          "internalType": "uint256",
          "name": "apy",
          "type": "uint256"
        },
        {
          "internalType": "uint256",
          "name": "staked",
          "type": "uint256"
        },
        {
          "internalType": "uint256",
          "name": "poolCap",
          "type": "uint256"
        }
      ],
      "stateMutability": "view",
      "type": "function"
    },
    {
      "inputs": [
        {
          "internalType": "uint256",
          "name": "_pid",
          "type": "uint256"
        }
      ],
      "name": "viewHackerPayout",
      "outputs": [
        {
          "internalType": "uint256",
          "name": "",
          "type": "uint256"
        }
      ],
      "stateMutability": "view",
      "type": "function"
    },
    {
      "inputs": [
        {
          "internalType": "uint256",
          "name": "_pid",
          "type": "uint256"
        }
      ],
      "name": "viewPoolAPY",
      "outputs": [
        {
          "internalType": "uint256",
          "name": "",
          "type": "uint256"
        }
      ],
      "stateMutability": "view",
      "type": "function"
    },
    {
      "inputs": [
        {
          "internalType": "uint256",
          "name": "_pid",
          "type": "uint256"
        }
      ],
      "name": "viewPoolCap",
      "outputs": [
        {
          "internalType": "uint256",
          "name": "",
          "type": "uint256"
        }
      ],
      "stateMutability": "view",
      "type": "function"
    },
    {
      "inputs": [
        {
          "internalType": "uint256",
          "name": "_pid",
          "type": "uint256"
        }
      ],
      "name": "viewPoolPremiumInfo",
      "outputs": [
        {
          "internalType": "uint256",
          "name": "requiredPremiumBalancePerPeriod",
          "type": "uint256"
        },
        {
          "internalType": "uint256",
          "name": "premiumBalance",
          "type": "uint256"
        },
        {
          "internalType": "uint256",
          "name": "premiumAvailable",
          "type": "uint256"
        }
      ],
      "stateMutability": "view",
      "type": "function"
    },
    {
      "inputs": [
        {
          "internalType": "uint256",
          "name": "_pid",
          "type": "uint256"
        }
      ],
      "name": "viewPoolTimelockInfo",
      "outputs": [
        {
          "internalType": "uint256",
          "name": "timelock",
          "type": "uint256"
        },
        {
          "internalType": "uint256",
          "name": "timeLimit",
          "type": "uint256"
        },
        {
          "internalType": "uint256",
          "name": "withdrawalScheduledAmount",
          "type": "uint256"
        }
      ],
      "stateMutability": "view",
      "type": "function"
    },
    {
      "inputs": [
        {
          "internalType": "address",
          "name": "_token",
          "type": "address"
        }
      ],
      "name": "viewSaloonProfitBalance",
      "outputs": [
        {
          "internalType": "uint256",
          "name": "totalProfit",
          "type": "uint256"
        },
        {
          "internalType": "uint256",
          "name": "bountyProfit",
          "type": "uint256"
        },
        {
          "internalType": "uint256",
          "name": "premiumProfit",
          "type": "uint256"
        }
      ],
      "stateMutability": "view",
      "type": "function"
    },
    {
      "inputs": [
        {
          "internalType": "uint256",
          "name": "_pid",
          "type": "uint256"
        }
      ],
      "name": "viewTotalStaked",
      "outputs": [
        {
          "internalType": "uint256",
          "name": "",
          "type": "uint256"
        }
      ],
      "stateMutability": "view",
      "type": "function"
    },
    {
      "inputs": [
        {
          "internalType": "uint256",
          "name": "_pid",
          "type": "uint256"
        },
        {
          "internalType": "address",
          "name": "_user",
          "type": "address"
        }
      ],
      "name": "viewUserInfo",
      "outputs": [
        {
          "internalType": "uint256",
          "name": "amount",
          "type": "uint256"
        },
        {
          "internalType": "uint256",
          "name": "actualPending",
          "type": "uint256"
        },
        {
          "internalType": "uint256",
          "name": "unstakeScheduledAmount",
          "type": "uint256"
        },
        {
          "internalType": "uint256",
          "name": "timelock",
          "type": "uint256"
        }
      ],
      "stateMutability": "view",
      "type": "function"
    },
    {
      "inputs": [
        {
          "internalType": "uint256",
          "name": "_pid",
          "type": "uint256"
        },
        {
          "internalType": "address",
          "name": "_user",
          "type": "address"
        }
      ],
      "name": "viewUserUnclaimed",
      "outputs": [
        {
          "internalType": "uint256",
          "name": "unclaimed",
          "type": "uint256"
        }
      ],
      "stateMutability": "view",
      "type": "function"
    },
    {
      "inputs": [
        {
          "internalType": "uint256",
          "name": "_pid",
          "type": "uint256"
        }
      ],
      "name": "windDownBounty",
      "outputs": [
        {
          "internalType": "bool",
          "name": "",
          "type": "bool"
        }
      ],
      "stateMutability": "nonpayable",
      "type": "function"
    }
  ],
  "bytecode": {
    "object": "0x60a0604052306080523480156200001557600080fd5b50600160ca55600054610100900460ff16158080156200003c5750600054600160ff909116105b806200006c575062000059306200019760201b62003f011760201c565b1580156200006c575060005460ff166001145b620000d55760405162461bcd60e51b815260206004820152602e60248201527f496e697469616c697a61626c653a20636f6e747261637420697320616c72656160448201526d191e481a5b9a5d1a585b1a5e995960921b60648201526084015b60405180910390fd5b6000805460ff191660011790558015620000f9576000805461ff0019166101001790555b620001496040518060400160405280600b81526020016a2137bab73a3caa37b5b2b760a91b8152506040518060400160405280600381526020016210951560ea1b815250620001a660201b60201c565b801562000190576000805461ff0019169055604051600181527f7f26b83ff96e1f2b6a682f133852f6798a09c465da95921460cefb38474024989060200160405180910390a15b5062000400565b6001600160a01b03163b151590565b600054610100900460ff16620002025760405162461bcd60e51b815260206004820152602b602482015260008051602062005cbc83398151915260448201526a6e697469616c697a696e6760a81b6064820152608401620000cc565b6200020e828262000212565b5050565b600054610100900460ff166200026e5760405162461bcd60e51b815260206004820152602b602482015260008051602062005cbc83398151915260448201526a6e697469616c697a696e6760a81b6064820152608401620000cc565b60ce6200027c838262000334565b5060cf6200028b828262000334565b505050565b634e487b7160e01b600052604160045260246000fd5b600181811c90821680620002bb57607f821691505b602082108103620002dc57634e487b7160e01b600052602260045260246000fd5b50919050565b601f8211156200028b57600081815260208120601f850160051c810160208610156200030b5750805b601f850160051c820191505b818110156200032c5782815560010162000317565b505050505050565b81516001600160401b0381111562000350576200035062000290565b6200036881620003618454620002a6565b84620002e2565b602080601f831160018114620003a05760008415620003875750858301515b600019600386901b1c1916600185901b1785556200032c565b600085815260208120601f198616915b82811015620003d157888601518255948401946001909101908401620003b0565b5085821015620003f05787850151600019600388901b60f8161c191681555b5050505050600190811b01905550565b6080516158846200043860003960008181610e1a01528181610e630152818161171b0152818161175b01526117ee01526158846000f3fe6080604052600436106103815760003560e01c80638da5cb5b116101d1578063b842e87f11610102578063dd034779116100a0578063ecd7fbed1161006f578063ecd7fbed14610b62578063f2fde38b14610b82578063f47ec3be14610ba2578063fceb3d7614610bc257600080fd5b8063dd03477914610ac8578063dd62ed3e14610af5578063e45abd0f14610b15578063e5e97c6514610b4257600080fd5b8063cee6b069116100dc578063cee6b06914610a3b578063cf9564b914610a5b578063d6c8552914610a7b578063dbdd695714610aa857600080fd5b8063b842e87f146109d8578063bb7019c1146109ed578063ca00614814610a0d57600080fd5b80639f224f351161016f578063a754ecb011610149578063a754ecb014610958578063a9059cbb14610978578063ac30b85614610998578063b1a2d16f146109b857600080fd5b80639f224f35146108f8578063a27f921314610918578063a457c2d71461093857600080fd5b806393f1a40b116101ab57806393f1a40b1461082557806395d89b41146108ae578063962ca496146108c3578063983c1ce0146108d857600080fd5b80638da5cb5b146107b35780638dbb1e3a146107e557806391635b4e1461080557600080fd5b80634f1ef286116102b657806370a0823111610254578063804fd59011610223578063804fd5901461073e5780638129fc1c1461075e578063861e5f661461077357806386ae01431461079357600080fd5b806370a0823114610697578063718c7eef146106cd578063753d7563146106ed57806379b91d691461071e57600080fd5b806357a86d3a1161029057806357a86d3a146105f15780635e3b748b146106115780636ac6d812146106575780636e9c931c1461067757600080fd5b80634f1ef286146105a957806352d1902d146105bc5780635669cbef146105d157600080fd5b8063313ce5671161032357806339679ff4116102fd57806339679ff4146104ee5780633ac6ad7b1461050e57806340ef28681461052e57806348e43af41461056e57600080fd5b8063313ce567146104905780633659cfe6146104ac57806339509351146104ce57600080fd5b80631526fe271161035f5780631526fe271461040157806318160ddd1461043b57806323b872dd146104505780632dbe051e1461047057600080fd5b806306fdde0314610386578063081e3eda146103b1578063095ea7b3146103d1575b600080fd5b34801561039257600080fd5b5061039b610bce565b6040516103a89190614ee6565b60405180910390f35b3480156103bd57600080fd5b50610101545b6040519081526020016103a8565b3480156103dd57600080fd5b506103f16103ec366004614f10565b610c60565b60405190151581526020016103a8565b34801561040d57600080fd5b5061042161041c366004614f3a565b610c7a565b6040516103a89e9d9c9b9a99989796959493929190614f53565b34801561044757600080fd5b5060cd546103c3565b34801561045c57600080fd5b506103f161046b366004615011565b610dd0565b34801561047c57600080fd5b506103f161048b366004614f3a565b610df6565b34801561049c57600080fd5b50604051601281526020016103a8565b3480156104b857600080fd5b506104cc6104c736600461504d565b610e10565b005b3480156104da57600080fd5b506103f16104e9366004614f10565b610ef8565b3480156104fa57600080fd5b506103c3610509366004614f3a565b610f1a565b34801561051a57600080fd5b506103f1610529366004615068565b611139565b34801561053a57600080fd5b5061054e610549366004614f3a565b6115cf565b6040805194855260208501939093529183015260608201526080016103a8565b34801561057a57600080fd5b5061058e61058936600461508d565b611608565b604080519384526020840192909252908201526060016103a8565b6104cc6105b7366004615145565b611711565b3480156105c857600080fd5b506103c36117e1565b3480156105dd57600080fd5b506103f16105ec3660046151a7565b611894565b3480156105fd57600080fd5b506104cc61060c3660046151a7565b6119b6565b34801561061d57600080fd5b506103c361062c36600461508d565b6000918252610102602090815260408084206001600160a01b03909316845291905290206001015490565b34801561066357600080fd5b506103c3610672366004614f3a565b611a91565b34801561068357600080fd5b506103f1610692366004615068565b611cbb565b3480156106a357600080fd5b506103c36106b236600461504d565b6001600160a01b0316600090815260cb602052604090205490565b3480156106d957600080fd5b5061058e6106e836600461504d565b61210a565b3480156106f957600080fd5b506103f161070836600461504d565b6101036020526000908152604090205460ff1681565b34801561072a57600080fd5b506103f16107393660046151d7565b612141565b34801561074a57600080fd5b506103c3610759366004615210565b612420565b34801561076a57600080fd5b506104cc612768565b34801561077f57600080fd5b506103c361078e366004614f3a565b612878565b34801561079f57600080fd5b506104cc6107ae3660046151a7565b612ac5565b3480156107bf57600080fd5b506033546001600160a01b03165b6040516001600160a01b0390911681526020016103a8565b3480156107f157600080fd5b506103c36108003660046151a7565b612b03565b34801561081157600080fd5b506103f16108203660046151a7565b612b0f565b34801561083157600080fd5b5061088161084036600461508d565b610102602090815260009283526040808420909152908252902080546001820154600283015460038401546004850154600590950154939492939192909186565b604080519687526020870195909552938501929092526060840152608083015260a082015260c0016103a8565b3480156108ba57600080fd5b5061039b612be9565b3480156108cf57600080fd5b506103c3612bf8565b3480156108e457600080fd5b506103f16108f33660046151a7565b612c0a565b34801561090457600080fd5b506107cd610913366004614f3a565b612d62565b34801561092457600080fd5b506103c3610933366004614f3a565b612d8d565b34801561094457600080fd5b506103f1610953366004614f10565b612fae565b34801561096457600080fd5b5061054e61097336600461508d565b613034565b34801561098457600080fd5b506103f1610993366004614f10565b613085565b3480156109a457600080fd5b5061058e6109b3366004614f3a565b613093565b3480156109c457600080fd5b5061058e6109d3366004614f3a565b6132cb565b3480156109e457600080fd5b506104cc613502565b3480156109f957600080fd5b506103f1610a08366004614f3a565b613582565b348015610a1957600080fd5b506103c3610a2836600461504d565b6101006020526000908152604090205481565b348015610a4757600080fd5b506104cc610a56366004615282565b613608565b348015610a6757600080fd5b506103f1610a763660046152c8565b61389d565b348015610a8757600080fd5b506103c3610a96366004614f3a565b60fd6020526000908152604090205481565b348015610ab457600080fd5b506103c3610ac3366004614f3a565b61390b565b348015610ad457600080fd5b506103c3610ae3366004614f3a565b60fe6020526000908152604090205481565b348015610b0157600080fd5b506103c3610b103660046152c8565b613b2a565b348015610b2157600080fd5b506103c3610b3036600461504d565b60ff6020526000908152604090205481565b348015610b4e57600080fd5b506103f1610b5d3660046152f2565b613b55565b348015610b6e57600080fd5b506103f1610b7d36600461504d565b613d8a565b348015610b8e57600080fd5b506104cc610b9d36600461504d565b613e54565b348015610bae57600080fd5b506104cc610bbd366004614f3a565b613ee3565b3480156104cc57600080fd5b606060ce8054610bdd90615329565b80601f0160208091040260200160405190810160405280929190818152602001828054610c0990615329565b8015610c565780601f10610c2b57610100808354040283529160200191610c56565b820191906000526020600020905b815481529060010190602001808311610c3957829003601f168201915b5050505050905090565b600033610c6e818585613f10565b60019150505b92915050565b6101018181548110610c8b57600080fd5b60009182526020909120601090910201805460018201546002830180546001600160a01b038085169650600160a01b850460ff1695600160a81b90950461ffff16949316929190610cdb90615329565b80601f0160208091040260200160405190810160405280929190818152602001828054610d0790615329565b8015610d545780601f10610d2957610100808354040283529160200191610d54565b820191906000526020600020905b815481529060010190602001808311610d3757829003601f168201915b5050506003840154600485015460058601546006870154600788015460088901546040805160808101825260098c01548152600a8c01546020820152600b8c015491810191909152600c8b015460ff90811615156060830152600e8c0154600f909c01549a9b979a96995094975092959194909391909116908e565b600033610dde858285614034565b610de98585856140ae565b60019150505b9392505050565b6000610e00614259565b610e0b8260006142b3565b919050565b6001600160a01b037f0000000000000000000000000000000000000000000000000000000000000000163003610e615760405162461bcd60e51b8152600401610e5890615363565b60405180910390fd5b7f00000000000000000000000000000000000000000000000000000000000000006001600160a01b0316610eaa600080516020615808833981519152546001600160a01b031690565b6001600160a01b031614610ed05760405162461bcd60e51b8152600401610e58906153af565b610ed9816143df565b60408051600080825260208201909252610ef5918391906143e7565b50565b600033610c6e818585610f0b8383613b2a565b610f159190615411565b613f10565b6000806101018381548110610f3157610f31615424565b6000918252602091829020604080516101e081018252601090930290910180546001600160a01b03808216855260ff600160a01b8304169585019590955261ffff600160a81b909104169183019190915260018101549092166060820152600282018054919291608084019190610fa790615329565b80601f0160208091040260200160405190810160405280929190818152602001828054610fd390615329565b80156110205780601f10610ff557610100808354040283529160200191611020565b820191906000526020600020905b81548152906001019060200180831161100357829003601f168201915b50505050508152602001600382015481526020016004820154815260200160058201548152602001600682015481526020016007820154815260200160088201548152602001600982016040518060800160405290816000820154815260200160018201548152602001600282015481526020016003820160009054906101000a900460ff1615151515815250508152602001600d820180548060200260200160405190810160405280929190818152602001828054801561110b57602002820191906000526020600020905b81546001600160a01b031681526001909101906020018083116110ed575b5050509183525050600e82015460ff1615156020820152600f9091015460409091015260c001519392505050565b6000611143614259565b6000610101858154811061115957611159615424565b9060005260206000209060100201905060008160050154905060008260030154826111849190615411565b9050808286116113245782860361122857600d84015460005b8181101561120a57600086600d0182815481106111bc576111bc615424565b60009182526020808320909101548d8352610102825260408084206001600160a01b0390921680855291909252908220909250906111fd908d908490614557565b600090555060010161119d565b5060006005860181905561122290600d870190614d45565b506114ce565b60008361123d670de0b6b3a76400008961543a565b6112479190615451565b600d86015490915060005b8181101561131c57600087600d01828154811061127157611271615424565b60009182526020808320909101548e8352610102825260408084206001600160a01b0390921680855291909252908220909250906112b2908e908490614557565b6000670de0b6b3a76400008683600001546112cd919061543a565b6112d79190615451565b9050808260000160008282546112ed9190615473565b92505081905550808a60050160008282546113089190615473565b909155505060019093019250611252915050565b5050506114ce565b828611801561133257508186105b156113f357600d84015460005b818110156113ac57600086600d01828154811061135e5761135e615424565b60009182526020808320909101548d8352610102825260408084206001600160a01b03909216808552919092529082209092509061139f908d908490614557565b600090555060010161133f565b506000600586018190556113c490600d870190614d45565b60006113d08585615473565b9050808660030160008282546113e69190615473565b909155506114ce92505050565b81860361149457600d84015460005b8181101561146f57600086600d01828154811061142157611421615424565b60009182526020808320909101548d8352610102825260408084206001600160a01b039092168085529190925290822090925090611462908d908490614557565b6000905550600101611402565b5060006005860181905561148790600d870190614d45565b50600060038501556114ce565b60405162461bcd60e51b815260206004820152600f60248201526e082dadeeadce840e8dede40d0d2ced608b1b6044820152606401610e58565b60006127106114df6103e88961543a565b6114e99190615451565b905060006114f78289615473565b86546001600160a01b0316600090815260ff6020526040812080549293508492909190611525908490615411565b90915550508554611540906001600160a01b03168a836146b9565b506000866003015487600501546115579190615411565b87546040518b81529192506001600160a01b0390811691908c169042907fc351e6e0f377ec1a399ec84224a83d6a4b9f3cd9a5530e5c652d0b11c2f8dae29060200160405180910390a480848c6000805160206157e883398151915260405160405180910390a45060019a9950505050505050505050565b6000806000806115de85612878565b93506115e98561390b565b91506115f485612d8d565b92506115ff85610f1a565b90509193509193565b600080600080610101868154811061162257611622615424565b60009182526020808320898452610102825260408085206001600160a01b038b168652909252908320601092909202016005810154600f820154919450919290810361166e5742611674565b83600f01545b90506000611686846002015483612b03565b855485549192506301e13380918391612710916116ae91600160a81b900461ffff169061543a565b6116b89190615451565b6116c2919061543a565b6116cc9190615451565b95508360010154866116de9190615411565b97506127106116ef6103e882615473565b6116f9908a61543a565b6117039190615451565b965050505050509250925092565b6001600160a01b037f00000000000000000000000000000000000000000000000000000000000000001630036117595760405162461bcd60e51b8152600401610e5890615363565b7f00000000000000000000000000000000000000000000000000000000000000006001600160a01b03166117a2600080516020615808833981519152546001600160a01b031690565b6001600160a01b0316146117c85760405162461bcd60e51b8152600401610e58906153af565b6117d1826143df565b6117dd828260016143e7565b5050565b6000306001600160a01b037f000000000000000000000000000000000000000000000000000000000000000016146118815760405162461bcd60e51b815260206004820152603860248201527f555550535570677261646561626c653a206d757374206e6f742062652063616c60448201527f6c6564207468726f7567682064656c656761746563616c6c00000000000000006064820152608401610e58565b5060008051602061580883398151915290565b60008061010184815481106118ab576118ab615424565b90600052602060002090601002019050828160030154101561190f5760405162461bcd60e51b815260206004820152601a60248201527f416d6f756e7420626967676572207468616e206465706f7369740000000000006044820152606401610e58565b60018101546001600160a01b0316331461193b5760405162461bcd60e51b8152600401610e5890615486565b61194862093a8042615411565b600982015561195a62093a8042615411565b611967906203f480615411565b600a820155600b8101839055600c8101805460ff19169055604051839085907fb3b9c925de3673837b40c6b4d4463a8f88dc821cd27e07f1ff6bf6abf96413a590600090a35060019392505050565b600061010183815481106119cc576119cc615424565b6000918252602090912060109091020160018101549091506001600160a01b03163314611a0b5760405162461bcd60e51b8152600401610e5890615486565b600081600301548260050154611a219190615411565b8254909150611a3b906001600160a01b031633308661471f565b5082826003016000828254611a509190615411565b909155505060038201546005830154600091611a6b91615411565b90508082866000805160206157e883398151915260405160405180910390a45050505050565b6000806101018381548110611aa857611aa8615424565b6000918252602091829020604080516101e081018252601090930290910180546001600160a01b03808216855260ff600160a01b8304169585019590955261ffff600160a81b909104169183019190915260018101549092166060820152600282018054919291608084019190611b1e90615329565b80601f0160208091040260200160405190810160405280929190818152602001828054611b4a90615329565b8015611b975780601f10611b6c57610100808354040283529160200191611b97565b820191906000526020600020905b815481529060010190602001808311611b7a57829003601f168201915b50505050508152602001600382015481526020016004820154815260200160058201548152602001600682015481526020016007820154815260200160088201548152602001600982016040518060800160405290816000820154815260200160018201548152602001600282015481526020016003820160009054906101000a900460ff1615151515815250508152602001600d8201805480602002602001604051908101604052809291908181526020018280548015611c8257602002820191906000526020600020905b81546001600160a01b03168152600190910190602001808311611c64575b5050509183525050600e82015460ff1615156020820152600f9091015460409091015260a081015160e0820151919250610def91615411565b6000611cc5614762565b8360006101018281548110611cdc57611cdc615424565b6000918252602091829020604080516101e081018252601090930290910180546001600160a01b03808216855260ff600160a01b8304169585019590955261ffff600160a81b909104169183019190915260018101549092166060820152600282018054919291608084019190611d5290615329565b80601f0160208091040260200160405190810160405280929190818152602001828054611d7e90615329565b8015611dcb5780601f10611da057610100808354040283529160200191611dcb565b820191906000526020600020905b815481529060010190602001808311611dae57829003601f168201915b50505050508152602001600382015481526020016004820154815260200160058201548152602001600682015481526020016007820154815260200160088201548152602001600982016040518060800160405290816000820154815260200160018201548152602001600282015481526020016003820160009054906101000a900460ff1615151515815250508152602001600d8201805480602002602001604051908101604052809291908181526020018280548015611eb657602002820191906000526020600020905b81546001600160a01b03168152600190910190602001808311611e98575b5050509183525050600e82015460ff1615156020820152600f909101546040909101526101a0810151909150611f205760405162461bcd60e51b815260206004820152600f60248201526e706f6f6c206e6f742061637469766560881b6044820152606401610e58565b60008411611f2d57600080fd5b60006101018781548110611f4357611f43615424565b600091825260208083208a8452610102825260408085206001600160a01b038c1686529092529083206010929092020160038101546005820154919450919291611f8c91615411565b9050611f9a89896001614557565b8154600003611fd457600d83018054600181018255600091825260209091200180546001600160a01b0319166001600160a01b038a161790555b8254611feb906001600160a01b031633308a61471f565b50868260000160008282546120009190615411565b925050819055508683600501600082825461201b9190615411565b909155505060048301541580159061203b57508260040154836005015411155b61207d5760405162461bcd60e51b8152602060048201526013602482015272115e18d959591959081c1bdbdb081b1a5b5a5d606a1b6044820152606401610e58565b88886001600160a01b03167f1449c6dd7851abc30abf37f57715f492010519147cc2652fbc38202c18a6ee90896040516120b991815260200190565b60405180910390a36000836003015484600501546120d79190615411565b905080828b6000805160206157e883398151915260405160405180910390a460019650505050505050610def600160ca55565b6001600160a01b038116600090815260ff60209081526040808320546101009092528220546121398282615411565b949193509150565b600061214b614762565b6000610101858154811061216157612161615424565b600091825260208083208884526101028252604080852033865290925292208054601090920290920192508511156121d05760405162461bcd60e51b81526020600482015260126024820152711dda5d1a191c985dce881b9bdd0819dbdbd960721b6044820152606401610e58565b4281600301541080156121e65750428160040154115b80156121f6575084816005015410155b80156122055750600381015415155b6122215760405162461bcd60e51b8152600401610e58906154ae565b60006003808301829055830154600584015461223d9190615411565b905061224a873387614557565b851561228a57815461225c90876147bb565b8255600583015461226d90876147bb565b60058401558254612288906001600160a01b031633886146b9565b505b81546000036123a257600d83015460005b8181101561239f57336001600160a01b031685600d0182815481106122c2576122c2615424565b6000918252602090912001546001600160a01b031603612397576000600d86016122ed600185615473565b815481106122fd576122fd615424565b600091825260209091200154600d870180546001600160a01b03909216925082918490811061232e5761232e615424565b9060005260206000200160006101000a8154816001600160a01b0302191690836001600160a01b0316021790555085600d0180548061236f5761236f6154f7565b600082815260209020810160001990810180546001600160a01b03191690550190555061239f565b60010161229b565b50505b604051868152879033907f7fc4727e062e336010f2c282598ef5f14facb3de68cf8195c2f23e1454b2b74e9060200160405180910390a36000836003015484600501546123ef9190615411565b90508082896000805160206157e883398151915260405160405180910390a46001945050505050610def600160ca55565b600061242a614259565b6001600160a01b0384166000908152610103602052604090205460ff1661248b5760405162461bcd60e51b81526020600482015260156024820152741d1bdad95b881b9bdd081dda1a5d195b1a5cdd1959605a1b6044820152606401610e58565b60408051600481526024810182526020810180516001600160e01b031663313ce56760e01b17905290516000916001600160a01b038716916124cd919061550d565b600060405180830381855afa9150503d8060008114612508576040519150601f19603f3d011682016040523d82523d6000602084013e61250d565b606091505b509150506000818060200190518101906125279190615529565b9050612531614d63565b6001600160a01b03808816825260ff80841660208085019182528984166060808701918252608087018b8152600060a089018190526040808a0182815260c08b0183905260e08b018390526101608b0180518490528051909701839052865190910182905294519092018290526101a088018290526101c0880182905261010180546001810182559252875160109092027f109ea3cebb188b9c1b9fc5bb3920be60dfdc8699098dff92f3d80daaca747689810180549651955161ffff16600160a81b0261ffff60a81b1996909816600160a01b026001600160a81b0319909716938916939093179590951793909316949094178455517f109ea3cebb188b9c1b9fc5bb3920be60dfdc8699098dff92f3d80daaca74768a83018054919095166001600160a01b03199190911617909355915183927f109ea3cebb188b9c1b9fc5bb3920be60dfdc8699098dff92f3d80daaca74768b0190612693908261559a565b5060a0820151600382015560c0820151600482015560e0820151600582015561010082015160068201556101208201516007820155610140820151600882015561016082015180516009830155602080820151600a8401556040820151600b840155606090910151600c8301805460ff1916911515919091179055610180830151805161272692600d8501920190614e1c565b506101a0820151600e8201805460ff19169115159190911790556101c090910151600f909101556101015461275d90600190615473565b979650505050505050565b600054610100900460ff16158080156127885750600054600160ff909116105b806127a25750303b1580156127a2575060005460ff166001145b6128055760405162461bcd60e51b815260206004820152602e60248201527f496e697469616c697a61626c653a20636f6e747261637420697320616c72656160448201526d191e481a5b9a5d1a585b1a5e995960921b6064820152608401610e58565b6000805460ff191660011790558015612828576000805461ff0019166101001790555b6128306147c7565b8015610ef5576000805461ff0019169055604051600181527f7f26b83ff96e1f2b6a682f133852f6798a09c465da95921460cefb38474024989060200160405180910390a150565b600080610101838154811061288f5761288f615424565b6000918252602091829020604080516101e081018252601090930290910180546001600160a01b03808216855260ff600160a01b8304169585019590955261ffff600160a81b90910416918301919091526001810154909216606082015260028201805491929160808401919061290590615329565b80601f016020809104026020016040519081016040528092919081815260200182805461293190615329565b801561297e5780601f106129535761010080835404028352916020019161297e565b820191906000526020600020905b81548152906001019060200180831161296157829003601f168201915b50505050508152602001600382015481526020016004820154815260200160058201548152602001600682015481526020016007820154815260200160088201548152602001600982016040518060800160405290816000820154815260200160018201548152602001600282015481526020016003820160009054906101000a900460ff1615151515815250508152602001600d8201805480602002602001604051908101604052809291908181526020018280548015612a6957602002820191906000526020600020905b81546001600160a01b03168152600190910190602001808311612a4b575b5050509183525050600e82015460ff1615156020820152600f909101546040909101529050612710612a9d6103e882615473565b8260a001518360e00151612ab19190615411565b612abb919061543a565b610def9190615451565b6000670eb5e06245ea0000612ae2670de0b6b3a76400008561543a565b612aec9190615451565b600092835260fd6020526040909220919091555050565b6000610def82846147bb565b60008281526101026020908152604080832033845290915281208054831115612b7a5760405162461bcd60e51b815260206004820152601a60248201527f416d6f756e7420626967676572207468616e206465706f7369740000000000006044820152606401610e58565b612b8762093a8042615411565b6003820155612b9962093a8042615411565b612ba6906203f480615411565b600482015560058101839055604051839085907fb3b9c925de3673837b40c6b4d4463a8f88dc821cd27e07f1ff6bf6abf96413a590600090a35060019392505050565b606060cf8054610bdd90615329565b600080612c04816147f6565b91505090565b6000806101018481548110612c2157612c21615424565b6000918252602090912060109091020160018101549091506001600160a01b03163314612c605760405162461bcd60e51b8152600401610e5890615486565b600981015442118015612c765750600a81015442105b8015612c875750600c81015460ff16155b8015612c975750600b8101548311155b8015612ca65750600981015415155b612cc25760405162461bcd60e51b8152600401610e58906154ae565b600c8101805460ff1916600117905560038101546005820154600091612ce791615411565b905083826003016000828254612cfd9190615473565b909155505060018201548254612d20916001600160a01b039182169116866146b9565b50600082600301548360050154612d379190615411565b90508082876000805160206157e883398151915260405160405180910390a450600195945050505050565b6101048181548110612d7357600080fd5b6000918252602090912001546001600160a01b0316905081565b6000806101018381548110612da457612da4615424565b6000918252602091829020604080516101e081018252601090930290910180546001600160a01b03808216855260ff600160a01b8304169585019590955261ffff600160a81b909104169183019190915260018101549092166060820152600282018054919291608084019190612e1a90615329565b80601f0160208091040260200160405190810160405280929190818152602001828054612e4690615329565b8015612e935780601f10612e6857610100808354040283529160200191612e93565b820191906000526020600020905b815481529060010190602001808311612e7657829003601f168201915b50505050508152602001600382015481526020016004820154815260200160058201548152602001600682015481526020016007820154815260200160088201548152602001600982016040518060800160405290816000820154815260200160018201548152602001600282015481526020016003820160009054906101000a900460ff1615151515815250508152602001600d8201805480602002602001604051908101604052809291908181526020018280548015612f7e57602002820191906000526020600020905b81546001600160a01b03168152600190910190602001808311612f60575b5050509183525050600e82015460ff1615156020820152600f90910154604091820152015161ffff169392505050565b60003381612fbc8286613b2a565b90508381101561301c5760405162461bcd60e51b815260206004820152602560248201527f45524332303a2064656372656173656420616c6c6f77616e63652062656c6f77604482015264207a65726f60d81b6064820152608401610e58565b6130298286868403613f10565b506001949350505050565b6000828152610102602090815260408083206001600160a01b0385168452909152812080549190819081906130698787611608565b5060058301546003909301549699909850919650909350505050565b600033610c6e8185856140ae565b60008060008061010185815481106130ad576130ad615424565b6000918252602091829020604080516101e081018252601090930290910180546001600160a01b03808216855260ff600160a01b8304169585019590955261ffff600160a81b90910416918301919091526001810154909216606082015260028201805491929160808401919061312390615329565b80601f016020809104026020016040519081016040528092919081815260200182805461314f90615329565b801561319c5780601f106131715761010080835404028352916020019161319c565b820191906000526020600020905b81548152906001019060200180831161317f57829003601f168201915b50505050508152602001600382015481526020016004820154815260200160058201548152602001600682015481526020016007820154815260200160088201548152602001600982016040518060800160405290816000820154815260200160018201548152602001600282015481526020016003820160009054906101000a900460ff1615151515815250508152602001600d820180548060200260200160405190810160405280929190818152602001828054801561328757602002820191906000526020600020905b81546001600160a01b03168152600190910190602001808311613269575b5050509183525050600e82015460ff161515602080830191909152600f90920154604091820152610160909201518051918101519201519097919650945092505050565b60008060008061010185815481106132e5576132e5615424565b6000918252602091829020604080516101e081018252601090930290910180546001600160a01b03808216855260ff600160a01b8304169585019590955261ffff600160a81b90910416918301919091526001810154909216606082015260028201805491929160808401919061335b90615329565b80601f016020809104026020016040519081016040528092919081815260200182805461338790615329565b80156133d45780601f106133a9576101008083540402835291602001916133d4565b820191906000526020600020905b8154815290600101906020018083116133b757829003601f168201915b50505050508152602001600382015481526020016004820154815260200160058201548152602001600682015481526020016007820154815260200160088201548152602001600982016040518060800160405290816000820154815260200160018201548152602001600282015481526020016003820160009054906101000a900460ff1615151515815250508152602001600d82018054806020026020016040519081016040528092919081815260200182805480156134bf57602002820191906000526020600020905b81546001600160a01b031681526001909101906020018083116134a1575b5050509183525050600e82015460ff1615156020820152600f90910154604090910152610100810151610120820151610140909201519097919650945092505050565b6034546001600160a01b0316331461356b5760405162461bcd60e51b815260206004820152602660248201527f6f6e6c792070656e64696e67206f776e65722063616e2061636365707420747260448201526530b739b332b960d11b6064820152608401610e58565b603454613580906001600160a01b0316614856565b565b600080610101838154811061359957613599615424565b6000918252602090912060109091020160018101549091506001600160a01b03163314806135d157506033546001600160a01b031633145b6135ed5760405162461bcd60e51b8152600401610e5890615486565b600e8101805460ff1916905542600f90910155506001919050565b6000610101858154811061361e5761361e615424565b60009182526020909120601090910201600e81015490915060ff1615801561364857506004810154155b6136945760405162461bcd60e51b815260206004820152601860248201527f506f6f6c20616c726561647920696e697469616c697a656400000000000000006044820152606401610e58565b60008361ffff161180156136ae57506127108361ffff1611155b6136ed5760405162461bcd60e51b815260206004820152601060248201526f415059206f7574206f662072616e676560801b6044820152606401610e58565b805461370490600160a01b900460ff16600a61573e565b61370f90606461543a565b84101580156137415750805461373090600160a01b900460ff16600a61573e565b61373d906298968061543a565b8411155b6137855760405162461bcd60e51b8152602060048201526015602482015274506f6f6c20636170206f7574206f662072616e676560581b6044820152606401610e58565b60018101546001600160a01b031633146137b15760405162461bcd60e51b8152600401610e5890615486565b60006301e1338061271062093a806137cd61ffff88168961543a565b6137d7919061543a565b6137e19190615451565b6137eb9190615451565b905060006127106137fe6103e88461543a565b6138089190615451565b905061382c33306138198588615411565b86546001600160a01b031692919061471f565b50838360030160008282546138419190615411565b909155505060048301869055825461ffff60a81b1916600160a81b61ffff871602178355600e8301805460ff19166001179055600783018290556006830182905561388c8183615473565b836008018190555050505050505050565b60006138a7614259565b6001600160a01b0383166000908152610100602090815260408083205460ff9092528220546138d69190615411565b6001600160a01b038516600081815260ff602090815260408083208390556101009091528120559091506130299084836146b9565b600080610101838154811061392257613922615424565b6000918252602091829020604080516101e081018252601090930290910180546001600160a01b03808216855260ff600160a01b8304169585019590955261ffff600160a81b90910416918301919091526001810154909216606082015260028201805491929160808401919061399890615329565b80601f01602080910402602001604051908101604052809291908181526020018280546139c490615329565b8015613a115780601f106139e657610100808354040283529160200191613a11565b820191906000526020600020905b8154815290600101906020018083116139f457829003601f168201915b50505050508152602001600382015481526020016004820154815260200160058201548152602001600682015481526020016007820154815260200160088201548152602001600982016040518060800160405290816000820154815260200160018201548152602001600282015481526020016003820160009054906101000a900460ff1615151515815250508152602001600d8201805480602002602001604051908101604052809291908181526020018280548015613afc57602002820191906000526020600020905b81546001600160a01b03168152600190910190602001808311613ade575b5050509183525050600e82015460ff1615156020820152600f9091015460409091015260e001519392505050565b6001600160a01b03918216600090815260cc6020908152604080832093909416825291909152205490565b6000613b5f614259565b6001600160a01b0383166000908152610103602052604090205460ff161515821514613bc55760405162461bcd60e51b81526020600482015260156024820152741dda1a5d195b1a5cdd08185b1c9958591e481cd95d605a1b6044820152606401610e58565b6001600160a01b03831660008181526101036020526040808220805460ff191686151590811790915590519092917f99795d51e5a8804307721456a7a9c2f0d7421f719d46a46d36e91fee7c85aa7691a38115613c6d5761010480546001810182556000919091527f4c0be60200faa20559308cb7b5a1bb3255c16cb1cab91f525b5ae7a03d02fabe0180546001600160a01b0319166001600160a01b038516179055613d81565b6101045460005b81811015613d7e5760006101048281548110613c9257613c92615424565b6000918252602090912001546001600160a01b03908116915086168103613d6d57610104613cc1600185615473565b81548110613cd157613cd1615424565b60009182526020909120015461010480546001600160a01b039092169184908110613cfe57613cfe615424565b9060005260206000200160006101000a8154816001600160a01b0302191690836001600160a01b03160217905550610104805480613d3e57613d3e6154f7565b600082815260209020810160001990810180546001600160a01b03191690550190555060019250610c74915050565b50613d778161574d565b9050613c74565b50505b50600192915050565b6000613d94614259565b6101045460005b81811015613e4a5760006101048281548110613db957613db9615424565b60009182526020808320909101546001600160a01b0316808352610100825260408084205460ff909352832054909350613df39190615411565b905080600003613e04575050613e3a565b6001600160a01b038216600081815260ff60209081526040808320839055610100909152812055613e369087836146b9565b5050505b613e438161574d565b9050613d9b565b5060019392505050565b613e5c614259565b6001600160a01b038116613ec15760405162461bcd60e51b815260206004820152602660248201527f4f776e61626c653a206e6577206f776e657220697320746865207a65726f206160448201526564647265737360d01b6064820152608401610e58565b603480546001600160a01b0319166001600160a01b0392909216919091179055565b613eeb614762565b613ef781336001614557565b610ef5600160ca55565b6001600160a01b03163b151590565b6001600160a01b038316613f725760405162461bcd60e51b8152602060048201526024808201527f45524332303a20617070726f76652066726f6d20746865207a65726f206164646044820152637265737360e01b6064820152608401610e58565b6001600160a01b038216613fd35760405162461bcd60e51b815260206004820152602260248201527f45524332303a20617070726f766520746f20746865207a65726f206164647265604482015261737360f01b6064820152608401610e58565b6001600160a01b03838116600081815260cc602090815260408083209487168084529482529182902085905590518481527f8c5be1e5ebec7d5bd14f71427d1e84f3dd0314c0f7b2291e5b200ac8c7c3b925910160405180910390a3505050565b60006140408484613b2a565b905060001981146140a8578181101561409b5760405162461bcd60e51b815260206004820152601d60248201527f45524332303a20696e73756666696369656e7420616c6c6f77616e63650000006044820152606401610e58565b6140a88484848403613f10565b50505050565b6001600160a01b0383166141125760405162461bcd60e51b815260206004820152602560248201527f45524332303a207472616e736665722066726f6d20746865207a65726f206164604482015264647265737360d81b6064820152608401610e58565b6001600160a01b0382166141745760405162461bcd60e51b815260206004820152602360248201527f45524332303a207472616e7366657220746f20746865207a65726f206164647260448201526265737360e81b6064820152608401610e58565b6001600160a01b038316600090815260cb6020526040902054818110156141ec5760405162461bcd60e51b815260206004820152602660248201527f45524332303a207472616e7366657220616d6f756e7420657863656564732062604482015265616c616e636560d01b6064820152608401610e58565b6001600160a01b03808516600081815260cb602052604080822086860390559286168082529083902080548601905591517fddf252ad1be2c89b69c2b068fc378daa952ba7f163c4a11628f55a4df523b3ef9061424c9086815260200190565b60405180910390a36140a8565b6033546001600160a01b031633146135805760405162461bcd60e51b815260206004820181905260248201527f4f776e61626c653a2063616c6c6572206973206e6f7420746865206f776e65726044820152606401610e58565b600061010183815481106142c9576142c9615424565b90600052602060002090601002019050600082826007015483600601546142f09190615473565b6142fa9190615411565b6001830154835491925061431c916001600160a01b039081169116308461471f565b50600061271061432e6103e88461543a565b6143389190615451565b90508183600701600082825461434e9190615411565b909155505082546001600160a01b0316600090815261010060205260408120805483929061437d908490615411565b909155506000905061438f8284615473565b9050808460080160008282546143a59190615411565b9091555050604051839087907fadb049ad2d09be3db90459a16aef1ad0a4d89e8fdcc1ade9429d6cc55abbcd2b90600090a3505050505050565b610ef5614259565b7f4910fdfa16fed3260ed0e7147f7cc6da11a60208b5b9406d12a635614ffd91435460ff161561441f5761441a836148b3565b505050565b826001600160a01b03166352d1902d6040518163ffffffff1660e01b8152600401602060405180830381865afa925050508015614479575060408051601f3d908101601f1916820190925261447691810190615766565b60015b6144dc5760405162461bcd60e51b815260206004820152602e60248201527f45524331393637557067726164653a206e657720696d706c656d656e7461746960448201526d6f6e206973206e6f74205555505360901b6064820152608401610e58565b600080516020615808833981519152811461454b5760405162461bcd60e51b815260206004820152602960248201527f45524331393637557067726164653a20756e737570706f727465642070726f786044820152681a58589b195555525160ba1b6064820152608401610e58565b5061441a83838361494f565b6000610101848154811061456d5761456d615424565b60009182526020808320878452610102825260408085206001600160a01b038916865290925292208054601090920290920192501580156145b057506001810154155b156145c2574260029091015550505050565b60008060006145d18888611608565b9250925092508561461f57808460010160008282546145f09190615411565b9091555050600f850154600003614607574261460d565b84600f01545b84600201819055505050505050505050565b84600701548311156146355761463588846142b3565b82156146af57600060018501819055600f8601549003614655574261465b565b84600f01545b8460020181905550828560070160008282546146779190615473565b92505081905550818560080160008282546146929190615473565b909155505084546146ad906001600160a01b031688846146b9565b505b5050505050505050565b6040516001600160a01b038316602482015260448101829052600090613e4a90859063a9059cbb60e01b906064015b60408051601f198184030181529190526020810180516001600160e01b03166001600160e01b031990931692909217909152614974565b6040516001600160a01b03808516602483015283166044820152606481018290526000906130299086906323b872dd60e01b906084016146e8565b949350505050565b600260ca54036147b45760405162461bcd60e51b815260206004820152601f60248201527f5265656e7472616e637947756172643a207265656e7472616e742063616c6c006044820152606401610e58565b600260ca55565b6000610def8284615473565b600054610100900460ff166147ee5760405162461bcd60e51b8152600401610e589061577f565b613580614a46565b600080670de0b6b3a764000061481484670928ca80cfc2000061543a565b61481e9190615451565b6148309067016345785d8a0000615411565b9050600061484d826ec097ce7bc90715b34b9f1000000000615451565b90505050919050565b603380546001600160a01b038381166001600160a01b03198084168217909455603480549094169093556040519116919082907f8be0079c531659141344cd1fd0a4f28419497f9722a3daafe3b4186f6b6457e090600090a35050565b6001600160a01b0381163b6149205760405162461bcd60e51b815260206004820152602d60248201527f455243313936373a206e657720696d706c656d656e746174696f6e206973206e60448201526c1bdd08184818dbdb9d1c9858dd609a1b6064820152608401610e58565b60008051602061580883398151915280546001600160a01b0319166001600160a01b0392909216919091179055565b61495883614a76565b6000825111806149655750805b1561441a576140a88383614ab6565b60006149c9826040518060400160405280602081526020017f5361666545524332303a206c6f772d6c6576656c2063616c6c206661696c6564815250856001600160a01b0316614baa9092919063ffffffff16565b80519091501561441a57808060200190518101906149e791906157ca565b61441a5760405162461bcd60e51b815260206004820152602a60248201527f5361666545524332303a204552433230206f7065726174696f6e20646964206e6044820152691bdd081cdd58d8d9595960b21b6064820152608401610e58565b600054610100900460ff16614a6d5760405162461bcd60e51b8152600401610e589061577f565b61358033614856565b614a7f816148b3565b6040516001600160a01b038216907fbc7cd75a20ee27fd9adebab32041f755214dbc6bffa90cc0225b39da2e5c2d3b90600090a250565b60606001600160a01b0383163b614b1e5760405162461bcd60e51b815260206004820152602660248201527f416464726573733a2064656c65676174652063616c6c20746f206e6f6e2d636f6044820152651b9d1c9858dd60d21b6064820152608401610e58565b600080846001600160a01b031684604051614b39919061550d565b600060405180830381855af49150503d8060008114614b74576040519150601f19603f3d011682016040523d82523d6000602084013e614b79565b606091505b5091509150614ba1828260405180606001604052806027815260200161582860279139614bb9565b95945050505050565b606061475a8484600085614bd2565b60608315614bc8575081610def565b610def8383614ca2565b606082471015614c335760405162461bcd60e51b815260206004820152602660248201527f416464726573733a20696e73756666696369656e742062616c616e636520666f6044820152651c8818d85b1b60d21b6064820152608401610e58565b600080866001600160a01b03168587604051614c4f919061550d565b60006040518083038185875af1925050503d8060008114614c8c576040519150601f19603f3d011682016040523d82523d6000602084013e614c91565b606091505b509150915061275d87838387614ccc565b815115614cb25781518083602001fd5b8060405162461bcd60e51b8152600401610e589190614ee6565b60608315614d3b578251600003614d34576001600160a01b0385163b614d345760405162461bcd60e51b815260206004820152601d60248201527f416464726573733a2063616c6c20746f206e6f6e2d636f6e74726163740000006044820152606401610e58565b508161475a565b61475a8383614ca2565b5080546000825590600052602060002090810190610ef59190614e81565b604051806101e0016040528060006001600160a01b03168152602001600060ff168152602001600061ffff16815260200160006001600160a01b0316815260200160608152602001600081526020016000815260200160008152602001600081526020016000815260200160008152602001614e0260405180608001604052806000815260200160008152602001600081526020016000151581525090565b815260606020820181905260006040830181905291015290565b828054828255906000526020600020908101928215614e71579160200282015b82811115614e7157825182546001600160a01b0319166001600160a01b03909116178255602090920191600190910190614e3c565b50614e7d929150614e81565b5090565b5b80821115614e7d5760008155600101614e82565b60005b83811015614eb1578181015183820152602001614e99565b50506000910152565b60008151808452614ed2816020860160208601614e96565b601f01601f19169290920160200192915050565b602081526000610def6020830184614eba565b80356001600160a01b0381168114610e0b57600080fd5b60008060408385031215614f2357600080fd5b614f2c83614ef9565b946020939093013593505050565b600060208284031215614f4c57600080fd5b5035919050565b6001600160a01b038f16815260ff8e16602082015261ffff8d1660408201526001600160a01b038c16606082015261022060808201526000614f9961022083018d614eba565b90508a60a08301528960c08301528860e0830152876101008301528661012083015285610140830152614ff36101608301868051825260208101516020830152604081015160408301526060810151151560608301525050565b9215156101e082015261020001529c9b505050505050505050505050565b60008060006060848603121561502657600080fd5b61502f84614ef9565b925061503d60208501614ef9565b9150604084013590509250925092565b60006020828403121561505f57600080fd5b610def82614ef9565b60008060006060848603121561507d57600080fd5b8335925061503d60208501614ef9565b600080604083850312156150a057600080fd5b823591506150b060208401614ef9565b90509250929050565b634e487b7160e01b600052604160045260246000fd5b600067ffffffffffffffff808411156150ea576150ea6150b9565b604051601f8501601f19908116603f01168101908282118183101715615112576151126150b9565b8160405280935085815286868601111561512b57600080fd5b858560208301376000602087830101525050509392505050565b6000806040838503121561515857600080fd5b61516183614ef9565b9150602083013567ffffffffffffffff81111561517d57600080fd5b8301601f8101851361518e57600080fd5b61519d858235602084016150cf565b9150509250929050565b600080604083850312156151ba57600080fd5b50508035926020909101359150565b8015158114610ef557600080fd5b6000806000606084860312156151ec57600080fd5b83359250602084013591506040840135615205816151c9565b809150509250925092565b60008060006060848603121561522557600080fd5b61522e84614ef9565b925061523c60208501614ef9565b9150604084013567ffffffffffffffff81111561525857600080fd5b8401601f8101861361526957600080fd5b615278868235602084016150cf565b9150509250925092565b6000806000806080858703121561529857600080fd5b8435935060208501359250604085013561ffff811681146152b857600080fd5b9396929550929360600135925050565b600080604083850312156152db57600080fd5b6152e483614ef9565b91506150b060208401614ef9565b6000806040838503121561530557600080fd5b61530e83614ef9565b9150602083013561531e816151c9565b809150509250929050565b600181811c9082168061533d57607f821691505b60208210810361535d57634e487b7160e01b600052602260045260246000fd5b50919050565b6020808252602c908201527f46756e6374696f6e206d7573742062652063616c6c6564207468726f7567682060408201526b19195b1959d85d1958d85b1b60a21b606082015260800190565b6020808252602c908201527f46756e6374696f6e206d7573742062652063616c6c6564207468726f7567682060408201526b6163746976652070726f787960a01b606082015260800190565b634e487b7160e01b600052601160045260246000fd5b80820180821115610c7457610c746153fb565b634e487b7160e01b600052603260045260246000fd5b8082028115828204841417610c7457610c746153fb565b60008261546e57634e487b7160e01b600052601260045260246000fd5b500490565b81810381811115610c7457610c746153fb565b6020808252600e908201526d139bdd08185d5d1a1bdc9a5e995960921b604082015260600190565b60208082526029908201527f54696d656c6f636b206e6f7420736574206f72206e6f7420636f6d706c6574656040820152686420696e2074696d6560b81b606082015260800190565b634e487b7160e01b600052603160045260246000fd5b6000825161551f818460208701614e96565b9190910192915050565b60006020828403121561553b57600080fd5b815160ff81168114610def57600080fd5b601f82111561441a57600081815260208120601f850160051c810160208610156155735750805b601f850160051c820191505b818110156155925782815560010161557f565b505050505050565b815167ffffffffffffffff8111156155b4576155b46150b9565b6155c8816155c28454615329565b8461554c565b602080601f8311600181146155fd57600084156155e55750858301515b600019600386901b1c1916600185901b178555615592565b600085815260208120601f198616915b8281101561562c5788860151825594840194600190910190840161560d565b508582101561564a5787850151600019600388901b60f8161c191681555b5050505050600190811b01905550565b600181815b8085111561569557816000190482111561567b5761567b6153fb565b8085161561568857918102915b93841c939080029061565f565b509250929050565b6000826156ac57506001610c74565b816156b957506000610c74565b81600181146156cf57600281146156d9576156f5565b6001915050610c74565b60ff8411156156ea576156ea6153fb565b50506001821b610c74565b5060208310610133831016604e8410600b8410161715615718575081810a610c74565b615722838361565a565b8060001904821115615736576157366153fb565b029392505050565b6000610def60ff84168361569d565b60006001820161575f5761575f6153fb565b5060010190565b60006020828403121561577857600080fd5b5051919050565b6020808252602b908201527f496e697469616c697a61626c653a20636f6e7472616374206973206e6f74206960408201526a6e697469616c697a696e6760a81b606082015260800190565b6000602082840312156157dc57600080fd5b8151610def816151c956fea3ea4fb8dee4d414198cb197af6eae4fe483c1a0b849dc50e53b9bf1a60e2166360894a13ba1a3210667c828492db98dca3e2076cc3735a920a3ca505d382bbc416464726573733a206c6f772d6c6576656c2064656c65676174652063616c6c206661696c6564a2646970667358221220105e2fe091c6017e50022da558710e613ef3d93fa2440a347c32856f2439da7964736f6c63430008110033496e697469616c697a61626c653a20636f6e7472616374206973206e6f742069",
    "linkReferences": {}
  },
  "methodIdentifiers": {
    "M(uint256)": "d6c85529",
    "acceptOwnershipTransfer()": "b842e87f",
    "activeTokens(uint256)": "9f224f35",
    "addNewBountyPool(address,address,string)": "804fd590",
    "allowance(address,address)": "dd62ed3e",
    "approve(address,uint256)": "095ea7b3",
    "balanceOf(address)": "70a08231",
    "billPremium(uint256)": "2dbe051e",
    "calculateMultiplier(uint256,uint256)": "86ae0143",
    "claimPremium(uint256)": "f47ec3be",
    "collectAllSaloonProfits(address)": "ecd7fbed",
    "collectSaloonProfits(address,address)": "cf9564b9",
    "decimals()": "313ce567",
    "decreaseAllowance(address,uint256)": "a457c2d7",
    "getCurrentAPY()": "962ca496",
    "getMultiplier(uint256,uint256)": "8dbb1e3a",
    "increaseAllowance(address,uint256)": "39509351",
    "initialize()": "8129fc1c",
    "makeProjectDeposit(uint256,uint256)": "57a86d3a",
    "name()": "06fdde03",
    "owner()": "8da5cb5b",
    "payBounty(uint256,address,uint256)": "3ac6ad7b",
    "pendingToken(uint256,address)": "48e43af4",
    "poolInfo(uint256)": "1526fe27",
    "poolLength()": "081e3eda",
    "poolSize(uint256)": "dd034779",
    "projectDepositWithdrawal(uint256,uint256)": "983c1ce0",
    "proxiableUUID()": "52d1902d",
    "saloonBountyProfit(address)": "e45abd0f",
    "saloonPremiumProfit(address)": "ca006148",
    "scheduleProjectDepositWithdrawal(uint256,uint256)": "5669cbef",
    "scheduleUnstake(uint256,uint256)": "91635b4e",
    "seeEffectiveStakingAPY()": "fceb3d76",
    "setAPYandPoolCapAndDeposit(uint256,uint256,uint16,uint256)": "cee6b069",
    "stake(uint256,address,uint256)": "6e9c931c",
    "symbol()": "95d89b41",
    "tokenWhitelist(address)": "753d7563",
    "totalSupply()": "18160ddd",
    "transfer(address,uint256)": "a9059cbb",
    "transferFrom(address,address,uint256)": "23b872dd",
    "transferOwnership(address)": "f2fde38b",
    "unstake(uint256,uint256,bool)": "79b91d69",
    "updateTokenWhitelist(address,bool)": "e5e97c65",
    "upgradeTo(address)": "3659cfe6",
    "upgradeToAndCall(address,bytes)": "4f1ef286",
    "userInfo(uint256,address)": "93f1a40b",
    "viewBountyBalance(uint256)": "6ac6d812",
    "viewBountyInfo(uint256)": "40ef2868",
    "viewHackerPayout(uint256)": "861e5f66",
    "viewPoolAPY(uint256)": "a27f9213",
    "viewPoolCap(uint256)": "39679ff4",
    "viewPoolPremiumInfo(uint256)": "b1a2d16f",
    "viewPoolTimelockInfo(uint256)": "ac30b856",
    "viewSaloonProfitBalance(address)": "718c7eef",
    "viewTotalStaked(uint256)": "dbdd6957",
    "viewUserInfo(uint256,address)": "a754ecb0",
    "viewUserUnclaimed(uint256,address)": "5e3b748b",
    "windDownBounty(uint256)": "bb7019c1"
  },
  "id": 40
}