{
  "abi": [
    {
      "anonymous": false,
      "inputs": [
        {
          "indexed": false,
          "internalType": "address",
          "name": "previousAdmin",
          "type": "address"
        },
        {
          "indexed": false,
          "internalType": "address",
          "name": "newAdmin",
          "type": "address"
        }
      ],
      "name": "AdminChanged",
      "type": "event"
    },
    {
      "anonymous": false,
      "inputs": [
        {
          "indexed": true,
          "internalType": "address",
          "name": "beacon",
          "type": "address"
        }
      ],
      "name": "BeaconUpgraded",
      "type": "event"
    },
    {
      "anonymous": false,
      "inputs": [
        {
          "indexed": false,
          "internalType": "uint8",
          "name": "version",
          "type": "uint8"
        }
      ],
      "name": "Initialized",
      "type": "event"
    },
    {
      "anonymous": false,
      "inputs": [
        {
          "indexed": true,
          "internalType": "address",
          "name": "previousOwner",
          "type": "address"
        },
        {
          "indexed": true,
          "internalType": "address",
          "name": "newOwner",
          "type": "address"
        }
      ],
      "name": "OwnershipTransferred",
      "type": "event"
    },
    {
      "anonymous": false,
      "inputs": [
        {
          "indexed": true,
          "internalType": "address",
          "name": "user",
          "type": "address"
        },
        {
          "indexed": true,
          "internalType": "uint256",
          "name": "pid",
          "type": "uint256"
        },
        {
          "indexed": false,
          "internalType": "uint256",
          "name": "amount",
          "type": "uint256"
        }
      ],
      "name": "Staked",
      "type": "event"
    },
    {
      "anonymous": false,
      "inputs": [
        {
          "indexed": true,
          "internalType": "address",
          "name": "user",
          "type": "address"
        },
        {
          "indexed": true,
          "internalType": "uint256",
          "name": "pid",
          "type": "uint256"
        },
        {
          "indexed": false,
          "internalType": "uint256",
          "name": "amount",
          "type": "uint256"
        }
      ],
      "name": "Unstaked",
      "type": "event"
    },
    {
      "anonymous": false,
      "inputs": [
        {
          "indexed": true,
          "internalType": "address",
          "name": "implementation",
          "type": "address"
        }
      ],
      "name": "Upgraded",
      "type": "event"
    },
    {
      "inputs": [
        {
          "internalType": "address",
          "name": "_token",
          "type": "address"
        },
        {
          "internalType": "uint8",
          "name": "_tokenDecimals",
          "type": "uint8"
        },
        {
          "internalType": "address",
          "name": "_projectWallet",
          "type": "address"
        }
      ],
      "name": "addNewBountyPool",
      "outputs": [
        {
          "internalType": "uint256",
          "name": "",
          "type": "uint256"
        }
      ],
      "stateMutability": "nonpayable",
      "type": "function"
    },
    {
      "inputs": [
        {
          "internalType": "uint256",
          "name": "_pid",
          "type": "uint256"
        }
      ],
      "name": "billPremium",
      "outputs": [
        {
          "internalType": "bool",
          "name": "",
          "type": "bool"
        }
      ],
      "stateMutability": "nonpayable",
      "type": "function"
    },
    {
      "inputs": [
        {
          "internalType": "uint256",
          "name": "_pid",
          "type": "uint256"
        }
      ],
      "name": "claimPremium",
      "outputs": [],
      "stateMutability": "nonpayable",
      "type": "function"
    },
    {
      "inputs": [
        {
          "internalType": "address",
          "name": "_token",
          "type": "address"
        },
        {
          "internalType": "address",
          "name": "_saloonWallet",
          "type": "address"
        }
      ],
      "name": "collectSaloonProfits",
      "outputs": [
        {
          "internalType": "bool",
          "name": "",
          "type": "bool"
        }
      ],
      "stateMutability": "nonpayable",
      "type": "function"
    },
    {
      "inputs": [
        {
          "internalType": "uint256",
          "name": "_from",
          "type": "uint256"
        },
        {
          "internalType": "uint256",
          "name": "_to",
          "type": "uint256"
        }
      ],
      "name": "getMultiplier",
      "outputs": [
        {
          "internalType": "uint256",
          "name": "",
          "type": "uint256"
        }
      ],
      "stateMutability": "pure",
      "type": "function"
    },
    {
      "inputs": [],
      "name": "initialize",
      "outputs": [],
      "stateMutability": "nonpayable",
      "type": "function"
    },
    {
      "inputs": [
        {
          "internalType": "uint256",
          "name": "_pid",
          "type": "uint256"
        },
        {
          "internalType": "uint256",
          "name": "_deposit",
          "type": "uint256"
        }
      ],
      "name": "makeProjectDeposit",
      "outputs": [],
      "stateMutability": "nonpayable",
      "type": "function"
    },
    {
      "inputs": [],
      "name": "owner",
      "outputs": [
        {
          "internalType": "address",
          "name": "",
          "type": "address"
        }
      ],
      "stateMutability": "view",
      "type": "function"
    },
    {
      "inputs": [
        {
          "internalType": "uint256",
          "name": "_pid",
          "type": "uint256"
        },
        {
          "internalType": "address",
          "name": "_hunter",
          "type": "address"
        },
        {
          "internalType": "uint256",
          "name": "_amount",
          "type": "uint256"
        }
      ],
      "name": "payBounty",
      "outputs": [
        {
          "internalType": "bool",
          "name": "",
          "type": "bool"
        }
      ],
      "stateMutability": "nonpayable",
      "type": "function"
    },
    {
      "inputs": [
        {
          "internalType": "uint256",
          "name": "_pid",
          "type": "uint256"
        },
        {
          "internalType": "address",
          "name": "_user",
          "type": "address"
        }
      ],
      "name": "pendingToken",
      "outputs": [
        {
          "internalType": "uint256",
          "name": "",
          "type": "uint256"
        }
      ],
      "stateMutability": "view",
      "type": "function"
    },
    {
      "inputs": [
        {
          "internalType": "uint256",
          "name": "",
          "type": "uint256"
        }
      ],
      "name": "poolInfo",
      "outputs": [
        {
          "internalType": "contract IERC20",
          "name": "token",
          "type": "address"
        },
        {
          "internalType": "uint8",
          "name": "tokenDecimals",
          "type": "uint8"
        },
        {
          "internalType": "address",
          "name": "projectWallet",
          "type": "address"
        },
        {
          "internalType": "uint256",
          "name": "projectDeposit",
          "type": "uint256"
        },
        {
          "internalType": "uint16",
          "name": "apy",
          "type": "uint16"
        },
        {
          "internalType": "uint256",
          "name": "poolCap",
          "type": "uint256"
        },
        {
          "internalType": "uint256",
          "name": "totalStaked",
          "type": "uint256"
        },
        {
          "internalType": "uint256",
          "name": "lastBilledTime",
          "type": "uint256"
        },
        {
          "internalType": "uint256",
          "name": "timelock",
          "type": "uint256"
        },
        {
          "internalType": "uint256",
          "name": "timeLimit",
          "type": "uint256"
        },
        {
          "internalType": "uint256",
          "name": "withdrawalScheduledAmount",
          "type": "uint256"
        },
        {
          "internalType": "bool",
          "name": "withdrawalExecuted",
          "type": "bool"
        },
        {
          "internalType": "bool",
          "name": "initialized",
          "type": "bool"
        }
      ],
      "stateMutability": "view",
      "type": "function"
    },
    {
      "inputs": [],
      "name": "poolLength",
      "outputs": [
        {
          "internalType": "uint256",
          "name": "",
          "type": "uint256"
        }
      ],
      "stateMutability": "view",
      "type": "function"
    },
    {
      "inputs": [],
      "name": "premiumBalance",
      "outputs": [
        {
          "internalType": "uint256",
          "name": "",
          "type": "uint256"
        }
      ],
      "stateMutability": "view",
      "type": "function"
    },
    {
      "inputs": [
        {
          "internalType": "uint256",
          "name": "_pid",
          "type": "uint256"
        },
        {
          "internalType": "uint256",
          "name": "_amount",
          "type": "uint256"
        }
      ],
      "name": "projectDepositWithdrawal",
      "outputs": [
        {
          "internalType": "bool",
          "name": "",
          "type": "bool"
        }
      ],
      "stateMutability": "nonpayable",
      "type": "function"
    },
    {
      "inputs": [],
      "name": "proxiableUUID",
      "outputs": [
        {
          "internalType": "bytes32",
          "name": "",
          "type": "bytes32"
        }
      ],
      "stateMutability": "view",
      "type": "function"
    },
    {
      "inputs": [],
      "name": "renounceOwnership",
      "outputs": [],
      "stateMutability": "nonpayable",
      "type": "function"
    },
    {
      "inputs": [],
      "name": "requiredPremiumBalancePerPeriod",
      "outputs": [
        {
          "internalType": "uint256",
          "name": "",
          "type": "uint256"
        }
      ],
      "stateMutability": "view",
      "type": "function"
    },
    {
      "inputs": [
        {
          "internalType": "address",
          "name": "",
          "type": "address"
        }
      ],
      "name": "saloonBountyProfit",
      "outputs": [
        {
          "internalType": "uint256",
          "name": "",
          "type": "uint256"
        }
      ],
      "stateMutability": "view",
      "type": "function"
    },
    {
      "inputs": [
        {
          "internalType": "address",
          "name": "",
          "type": "address"
        }
      ],
      "name": "saloonPremiumProfit",
      "outputs": [
        {
          "internalType": "uint256",
          "name": "",
          "type": "uint256"
        }
      ],
      "stateMutability": "view",
      "type": "function"
    },
    {
      "inputs": [
        {
          "internalType": "uint256",
          "name": "_pid",
          "type": "uint256"
        },
        {
          "internalType": "uint256",
          "name": "_amount",
          "type": "uint256"
        }
      ],
      "name": "scheduleProjectDepositWithdrawal",
      "outputs": [
        {
          "internalType": "bool",
          "name": "",
          "type": "bool"
        }
      ],
      "stateMutability": "nonpayable",
      "type": "function"
    },
    {
      "inputs": [
        {
          "internalType": "uint256",
          "name": "_pid",
          "type": "uint256"
        },
        {
          "internalType": "uint256",
          "name": "_amount",
          "type": "uint256"
        }
      ],
      "name": "scheduleUnstake",
      "outputs": [
        {
          "internalType": "bool",
          "name": "",
          "type": "bool"
        }
      ],
      "stateMutability": "nonpayable",
      "type": "function"
    },
    {
      "inputs": [
        {
          "internalType": "uint256",
          "name": "_pid",
          "type": "uint256"
        },
        {
          "internalType": "uint256",
          "name": "_poolCap",
          "type": "uint256"
        },
        {
          "internalType": "uint16",
          "name": "_apy",
          "type": "uint16"
        },
        {
          "internalType": "uint256",
          "name": "_deposit",
          "type": "uint256"
        }
      ],
      "name": "setAPYandPoolCapAndDeposit",
      "outputs": [],
      "stateMutability": "nonpayable",
      "type": "function"
    },
    {
      "inputs": [
        {
          "internalType": "uint256",
          "name": "_pid",
          "type": "uint256"
        },
        {
          "internalType": "address",
          "name": "_user",
          "type": "address"
        },
        {
          "internalType": "uint256",
          "name": "_amount",
          "type": "uint256"
        }
      ],
      "name": "stake",
      "outputs": [
        {
          "internalType": "bool",
          "name": "",
          "type": "bool"
        }
      ],
      "stateMutability": "nonpayable",
      "type": "function"
    },
    {
      "inputs": [],
      "name": "startTime",
      "outputs": [
        {
          "internalType": "uint256",
          "name": "",
          "type": "uint256"
        }
      ],
      "stateMutability": "view",
      "type": "function"
    },
    {
      "inputs": [
        {
          "internalType": "address",
          "name": "newOwner",
          "type": "address"
        }
      ],
      "name": "transferOwnership",
      "outputs": [],
      "stateMutability": "nonpayable",
      "type": "function"
    },
    {
      "inputs": [
        {
          "internalType": "uint256",
          "name": "_pid",
          "type": "uint256"
        },
        {
          "internalType": "uint256",
          "name": "_amount",
          "type": "uint256"
        }
      ],
      "name": "unstake",
      "outputs": [
        {
          "internalType": "bool",
          "name": "",
          "type": "bool"
        }
      ],
      "stateMutability": "nonpayable",
      "type": "function"
    },
    {
      "inputs": [
        {
          "internalType": "address",
          "name": "newImplementation",
          "type": "address"
        }
      ],
      "name": "upgradeTo",
      "outputs": [],
      "stateMutability": "nonpayable",
      "type": "function"
    },
    {
      "inputs": [
        {
          "internalType": "address",
          "name": "newImplementation",
          "type": "address"
        },
        {
          "internalType": "bytes",
          "name": "data",
          "type": "bytes"
        }
      ],
      "name": "upgradeToAndCall",
      "outputs": [],
      "stateMutability": "payable",
      "type": "function"
    },
    {
      "inputs": [
        {
          "internalType": "uint256",
          "name": "",
          "type": "uint256"
        },
        {
          "internalType": "address",
          "name": "",
          "type": "address"
        }
      ],
      "name": "userInfo",
      "outputs": [
        {
          "internalType": "uint256",
          "name": "amount",
          "type": "uint256"
        },
        {
          "internalType": "uint256",
          "name": "unclaimed",
          "type": "uint256"
        },
        {
          "internalType": "uint256",
          "name": "lastRewardTime",
          "type": "uint256"
        },
        {
          "internalType": "uint256",
          "name": "timelock",
          "type": "uint256"
        },
        {
          "internalType": "uint256",
          "name": "timeLimit",
          "type": "uint256"
        },
        {
          "internalType": "uint256",
          "name": "unstakeScheduledAmount",
          "type": "uint256"
        },
        {
          "internalType": "bool",
          "name": "unstakeExecuted",
          "type": "bool"
        }
      ],
      "stateMutability": "view",
      "type": "function"
    },
    {
      "inputs": [
        {
          "internalType": "uint256",
          "name": "_pid",
          "type": "uint256"
        }
      ],
      "name": "viewBountyBalance",
      "outputs": [
        {
          "internalType": "uint256",
          "name": "",
          "type": "uint256"
        }
      ],
      "stateMutability": "view",
      "type": "function"
    },
    {
      "inputs": [
        {
          "internalType": "uint256",
          "name": "_pid",
          "type": "uint256"
        }
      ],
      "name": "viewPoolCap",
      "outputs": [
        {
          "internalType": "uint256",
          "name": "",
          "type": "uint256"
        }
      ],
      "stateMutability": "view",
      "type": "function"
    },
    {
      "inputs": [
        {
          "internalType": "uint256",
          "name": "_pid",
          "type": "uint256"
        }
      ],
      "name": "viewStake",
      "outputs": [
        {
          "internalType": "uint256",
          "name": "",
          "type": "uint256"
        }
      ],
      "stateMutability": "view",
      "type": "function"
    },
    {
      "inputs": [
        {
          "internalType": "uint256",
          "name": "_pid",
          "type": "uint256"
        }
      ],
      "name": "viewTotalStaked",
      "outputs": [
        {
          "internalType": "uint256",
          "name": "",
          "type": "uint256"
        }
      ],
      "stateMutability": "view",
      "type": "function"
    }
  ],
  "bytecode": {
    "object": "0x60a06040523060805234801561001457600080fd5b50600160c95560805161314c610051600039600081816107c50152818161080e015281816110290152818161106901526110fc015261314c6000f3fe6080604052600436106101ee5760003560e01c80636e9c931c1161010d578063983c1ce0116100a0578063cf9564b91161006f578063cf9564b914610662578063dbdd695714610682578063e45abd0f146106a2578063f2fde38b146106cf578063f47ec3be146106ef57600080fd5b8063983c1ce0146105d55780639e2c8a5b146105f5578063ca00614814610615578063cee6b0691461064257600080fd5b80638da5cb5b116100dc5780638da5cb5b146104d05780638dbb1e3a146104f857806391635b4e1461051857806393f1a40b1461053857600080fd5b80636e9c931c14610470578063715018a61461049057806378e97925146104a55780638129fc1c146104bb57600080fd5b806344ebc03d1161018557806352d1902d1161015457806352d1902d146103fb5780635669cbef1461041057806357a86d3a146104305780636ac6d8121461045057600080fd5b806344ebc03d1461039c57806348e43af4146103b25780634c3bdee0146103d25780634f1ef286146103e857600080fd5b80633659cfe6116101c15780633659cfe61461031a57806339679ff41461033c578063399eadb81461035c5780633ac6ad7b1461037c57600080fd5b8063081e3eda146101f35780631526fe271461021757806323691677146102b25780632dbe051e146102ea575b600080fd5b3480156101ff57600080fd5b5060ce545b6040519081526020015b60405180910390f35b34801561022357600080fd5b50610237610232366004612ad3565b61070f565b604080516001600160a01b039e8f16815260ff909d1660208e01529c909a169b8b019b909b5260608a019790975261ffff909516608089015260a088019390935260c087019190915260e08601526101008501526101208401526101408301529115156101608201529015156101808201526101a00161020e565b3480156102be57600080fd5b506102046102cd366004612ad3565b600090815260cf6020908152604080832033845290915290205490565b3480156102f657600080fd5b5061030a610305366004612ad3565b6107a2565b604051901515815260200161020e565b34801561032657600080fd5b5061033a610335366004612b08565b6107bb565b005b34801561034857600080fd5b50610204610357366004612ad3565b6108a3565b34801561036857600080fd5b50610204610377366004612b23565b6109e3565b34801561038857600080fd5b5061030a610397366004612b6e565b610ce9565b3480156103a857600080fd5b5061020460cc5481565b3480156103be57600080fd5b506102046103cd366004612ba3565b610f25565b3480156103de57600080fd5b5061020460cd5481565b61033a6103f6366004612be5565b61101f565b34801561040757600080fd5b506102046110ef565b34801561041c57600080fd5b5061030a61042b366004612ca7565b6111a2565b34801561043c57600080fd5b5061033a61044b366004612ca7565b611293565b34801561045c57600080fd5b5061020461046b366004612ad3565b61131d565b34801561047c57600080fd5b5061030a61048b366004612b6e565b611467565b34801561049c57600080fd5b5061033a6115fe565b3480156104b157600080fd5b5061020460d05481565b3480156104c757600080fd5b5061033a611612565b3480156104dc57600080fd5b506033546040516001600160a01b03909116815260200161020e565b34801561050457600080fd5b50610204610513366004612ca7565b611722565b34801561052457600080fd5b5061030a610533366004612ca7565b61172e565b34801561054457600080fd5b5061059e610553366004612ba3565b60cf6020908152600092835260408084209091529082529020805460018201546002830154600384015460048501546005860154600690960154949593949293919290919060ff1687565b604080519788526020880196909652948601939093526060850191909152608084015260a0830152151560c082015260e00161020e565b3480156105e157600080fd5b5061030a6105f0366004612ca7565b6117e3565b34801561060157600080fd5b5061030a610610366004612ca7565b6118ee565b34801561062157600080fd5b50610204610630366004612b08565b60cb6020526000908152604090205481565b34801561064e57600080fd5b5061033a61065d366004612cc9565b611b95565b34801561066e57600080fd5b5061030a61067d366004612d0f565b611dda565b34801561068e57600080fd5b5061020461069d366004612ad3565b611e46565b3480156106ae57600080fd5b506102046106bd366004612b08565b60ca6020526000908152604090205481565b3480156106db57600080fd5b5061033a6106ea366004612b08565b611f86565b3480156106fb57600080fd5b5061033a61070a366004612ad3565b611ffc565b60ce818154811061071f57600080fd5b60009182526020909120600c9091020180546001820154600283015460038401546004850154600586015460068701546007880154600889015460098a0154600a909a01546001600160a01b03808b169c5060ff600160a01b909b048b169b991699979861ffff909716979596949593949293919291818116916101009004168d565b60006107ac612018565b6107b582612072565b50919050565b6001600160a01b037f000000000000000000000000000000000000000000000000000000000000000016300361080c5760405162461bcd60e51b815260040161080390612d39565b60405180910390fd5b7f00000000000000000000000000000000000000000000000000000000000000006001600160a01b03166108556000805160206130d0833981519152546001600160a01b031690565b6001600160a01b03161461087b5760405162461bcd60e51b815260040161080390612d85565b61088481612148565b604080516000808252602082019092526108a091839190612150565b50565b60008060ce83815481106108b9576108b9612dd1565b6000918252602091829020604080516101c081018252600c90930290910180546001600160a01b03808216855260ff600160a01b9092048216858701526001830154168484015260028201546060850152600382015461ffff166080850152600482015460a0850152600582015460c0850152600682015460e085015260078201546101008086019190915260088301546101208601526009830154610140860152600a830154808316151561016087015204161515610180840152600b81018054835181870281018701909452808452939491936101a0860193928301828280156109ce57602002820191906000526020600020905b81546001600160a01b031681526001909101906020018083116109b0575b5050509190925250505060a001519392505050565b60006109ed612018565b610a7c604051806101c0016040528060006001600160a01b03168152602001600060ff16815260200160006001600160a01b0316815260200160008152602001600061ffff168152602001600081526020016000815260200160008152602001600081526020016000815260200160008152602001600015158152602001600015158152602001606081525090565b8481600001906001600160a01b031690816001600160a01b03168152505083816020019060ff16908160ff16815250508281604001906001600160a01b031690816001600160a01b03168152505060008160600181815250506000816080019061ffff16908161ffff168152505060008160a001818152505060008160c001818152505060008161018001901515908115158152505060008160e0018181525050600081610100018181525050600081610120018181525050600081610140018181525050600081610160019015159081151581525050806101a001515060ce8190806001815401808255809150506001900390600052602060002090600c020160009091909190915060008201518160000160006101000a8154816001600160a01b0302191690836001600160a01b0316021790555060208201518160000160146101000a81548160ff021916908360ff16021790555060408201518160010160006101000a8154816001600160a01b0302191690836001600160a01b031602179055506060820151816002015560808201518160030160006101000a81548161ffff021916908361ffff16021790555060a0820151816004015560c0820151816005015560e0820151816006015561010082015181600701556101208201518160080155610140820151816009015561016082015181600a0160006101000a81548160ff02191690831515021790555061018082015181600a0160016101000a81548160ff0219169083151502179055506101a082015181600b019080519060200190610ccc929190612a3f565b505060ce54610cde9150600190612dfd565b9150505b9392505050565b6000610cf3612018565b600060ce8581548110610d0857610d08612dd1565b90600052602060002090600c020190506000816005015490506000826002015482610d339190612e10565b9050600081861015610d975781610d4c61271088612e23565b610d569190612e3a565b905061271061ffff16818560020154610d6f9190612e23565b610d799190612e3a565b846002016000828254610d8c9190612dfd565b90915550610de89050565b818603610dae575060006002840155612710610de8565b60405162461bcd60e51b815260206004820152600f60248201526e082dadeeadce840e8dede40d0d2ced608b1b6044820152606401610803565b600b84015460005b81811015610e8b57600086600b018281548110610e0f57610e0f612dd1565b60009182526020808320909101548d835260cf825260408084206001600160a01b03909216808552919092529120909150610e4a8c836122c0565b805461271090610e5b908790612e23565b610e659190612e3a565b816000016000828254610e789190612dfd565b909155505060019092019150610df09050565b50828703610ea157610ea1600b86016000612aa4565b6000612710610eb26103e88a612e23565b610ebc9190612e3a565b90506000610eca828a612dfd565b87546001600160a01b0316600090815260ca6020526040812080549293508492909190610ef8908490612e10565b90915550508654610f13906001600160a01b03168b836123eb565b5060019b9a5050505050505050505050565b60008060ce8481548110610f3b57610f3b612dd1565b6000918252602080832087845260cf825260408085206001600160a01b0389168652909252908320600c92909202016005810154600283015491945091929042118015610f8757508115155b15611013576000610f9c846002015442611722565b600386015485549192506000916301e133809161271091610fc19161ffff1690612e23565b610fcb9190612e3a565b610fd59190612e3a565b90506000610fe3838361245b565b90506000612710610ff66103e884612e23565b6110009190612e3a565b905061100c8183612dfd565b9450505050505b93505050505b92915050565b6001600160a01b037f00000000000000000000000000000000000000000000000000000000000000001630036110675760405162461bcd60e51b815260040161080390612d39565b7f00000000000000000000000000000000000000000000000000000000000000006001600160a01b03166110b06000805160206130d0833981519152546001600160a01b031690565b6001600160a01b0316146110d65760405162461bcd60e51b815260040161080390612d85565b6110df82612148565b6110eb82826001612150565b5050565b6000306001600160a01b037f0000000000000000000000000000000000000000000000000000000000000000161461118f5760405162461bcd60e51b815260206004820152603860248201527f555550535570677261646561626c653a206d757374206e6f742062652063616c60448201527f6c6564207468726f7567682064656c656761746563616c6c00000000000000006064820152608401610803565b506000805160206130d083398151915290565b60008060ce84815481106111b8576111b8612dd1565b90600052602060002090600c02019050828160020154101561121c5760405162461bcd60e51b815260206004820152601a60248201527f416d6f756e7420626967676572207468616e206465706f7369740000000000006044820152606401610803565b60018101546001600160a01b031633146112485760405162461bcd60e51b815260040161080390612e5c565b61125562093a8042612e10565b600782015561126762093a8042612e10565b611274906203f480612e10565b6008820155600981019290925550600a01805460ff1916905550600190565b600060ce83815481106112a8576112a8612dd1565b60009182526020909120600c9091020160018101549091506001600160a01b031633146112e75760405162461bcd60e51b815260040161080390612e5c565b80546112fe906001600160a01b0316333085612467565b50818160020160008282546113139190612e10565b9091555050505050565b60008060ce838154811061133357611333612dd1565b6000918252602091829020604080516101c081018252600c90930290910180546001600160a01b03808216855260ff600160a01b9092048216858701526001830154168484015260028201546060850152600382015461ffff166080850152600482015460a0850152600582015460c0850152600682015460e085015260078201546101008086019190915260088301546101208601526009830154610140860152600a830154808316151561016087015204161515610180840152600b81018054835181870281018701909452808452939491936101a08601939283018282801561144857602002820191906000526020600020905b81546001600160a01b0316815260019091019060200180831161142a575b505050505081525050905080606001518160c00151610ce29190612e10565b60006114716124aa565b6000821161147e57600080fd5b600060ce858154811061149357611493612dd1565b6000918252602080832088845260cf825260408085206001600160a01b038a1686529092529220600c90910290910191506114ce86866122c0565b805460000361150857600b82018054600181018255600091825260209091200180546001600160a01b0319166001600160a01b0387161790555b815461151f906001600160a01b0316333087612467565b50838160000160008282546115349190612e10565b909155505060058201546115489085612503565b600583015560048201541580159061156857508160040154826005015411155b6115aa5760405162461bcd60e51b8152602060048201526013602482015272115e18d959591959081c1bdbdb081b1a5b5a5d606a1b6044820152606401610803565b85856001600160a01b03167f1449c6dd7851abc30abf37f57715f492010519147cc2652fbc38202c18a6ee90866040516115e691815260200190565b60405180910390a3600192505050610ce2600160c955565b611606612018565b611610600061250f565b565b600054610100900460ff16158080156116325750600054600160ff909116105b8061164c5750303b15801561164c575060005460ff166001145b6116af5760405162461bcd60e51b815260206004820152602e60248201527f496e697469616c697a61626c653a20636f6e747261637420697320616c72656160448201526d191e481a5b9a5d1a585b1a5e995960921b6064820152608401610803565b6000805460ff1916600117905580156116d2576000805461ff0019166101001790555b6116da612561565b80156108a0576000805461ff0019169055604051600181527f7f26b83ff96e1f2b6a682f133852f6798a09c465da95921460cefb38474024989060200160405180910390a150565b6000610ce28284612590565b600082815260cf60209081526040808320338452909152812080548311156117985760405162461bcd60e51b815260206004820152601a60248201527f416d6f756e7420626967676572207468616e206465706f7369740000000000006044820152606401610803565b6117a562093a8042612e10565b60038201556117b762093a8042612e10565b6117c4906203f480612e10565b6004820155600581019290925550600601805460ff1916905550600190565b60008060ce84815481106117f9576117f9612dd1565b60009182526020909120600c9091020160018101549091506001600160a01b031633146118385760405162461bcd60e51b815260040161080390612e5c565b42816007015410801561184e5750428160080154115b801561185f5750600a81015460ff16155b801561186f575082816009015410155b801561187e5750600781015415155b61189a5760405162461bcd60e51b815260040161080390612e84565b600a8101805460ff191660011790556002810180548491906000906118c0908490612dfd565b9091555050600181015481546118e3916001600160a01b039182169116856123eb565b506001949350505050565b60006118f86124aa565b600060ce848154811061190d5761190d612dd1565b6000918252602080832087845260cf8252604080852033865290925292208054600c909202909201925084111561197b5760405162461bcd60e51b81526020600482015260126024820152711dda5d1a191c985dce881b9bdd0819dbdbd960721b6044820152606401610803565b4281600301541080156119915750428160040154115b80156119a25750600681015460ff16155b80156119b2575083816005015410155b80156119c15750600381015415155b6119dd5760405162461bcd60e51b815260040161080390612e84565b60068101805460ff191660011790556119f685336122c0565b8315611a36578054611a089085612590565b81556005820154611a199085612590565b60058301558154611a34906001600160a01b031633866123eb565b505b8054600003611b4e57600b82015460005b81811015611b4b57336001600160a01b031684600b018281548110611a6e57611a6e612dd1565b6000918252602090912001546001600160a01b031603611b43576000600b8501611a99600185612dfd565b81548110611aa957611aa9612dd1565b600091825260209091200154600b860180546001600160a01b039092169250829184908110611ada57611ada612dd1565b9060005260206000200160006101000a8154816001600160a01b0302191690836001600160a01b0316021790555084600b01805480611b1b57611b1b612ecd565b600082815260209020810160001990810180546001600160a01b031916905501905550611b4b565b600101611a47565b50505b604051848152859033907f7fc4727e062e336010f2c282598ef5f14facb3de68cf8195c2f23e1454b2b74e9060200160405180910390a3600192505050611019600160c955565b600060ce8581548110611baa57611baa612dd1565b90600052602060002090600c0201905080600a0160019054906101000a900460ff1615611c195760405162461bcd60e51b815260206004820152601860248201527f506f6f6c20616c726561647920696e697469616c697a656400000000000000006044820152606401610803565b60008361ffff16118015611c3357506127108361ffff1611155b611c725760405162461bcd60e51b815260206004820152601060248201526f415059206f7574206f662072616e676560801b6044820152606401610803565b8054611c8990600160a01b900460ff16600a612fc7565b611c94906064612e23565b8410158015611cc657508054611cb590600160a01b900460ff16600a612fc7565b611cc29062989680612e23565b8411155b611d0a5760405162461bcd60e51b8152602060048201526015602482015274506f6f6c20636170206f7574206f662072616e676560581b6044820152606401610803565b60018101546001600160a01b03163314611d365760405162461bcd60e51b815260040161080390612e5c565b8054611d4d906001600160a01b0316333085612467565b506301e1338061271062093a80611d6861ffff871688612e23565b611d729190612e23565b611d7c9190612e3a565b611d869190612e3a565b60cd8190555081816002016000828254611da09190612e10565b909155505060048101939093555060038201805461ffff90921661ffff19909216919091179055600a01805461ff00191661010017905550565b6000611de4612018565b6001600160a01b038316600090815260cb602090815260408083205460ca909252822054611e129190612e10565b6001600160a01b038516600081815260ca6020908152604080832083905560cb9091528120559091506118e39084836123eb565b60008060ce8381548110611e5c57611e5c612dd1565b6000918252602091829020604080516101c081018252600c90930290910180546001600160a01b03808216855260ff600160a01b9092048216858701526001830154168484015260028201546060850152600382015461ffff166080850152600482015460a0850152600582015460c0850152600682015460e085015260078201546101008086019190915260088301546101208601526009830154610140860152600a830154808316151561016087015204161515610180840152600b81018054835181870281018701909452808452939491936101a086019392830182828015611f7157602002820191906000526020600020905b81546001600160a01b03168152600190910190602001808311611f53575b5050509190925250505060c001519392505050565b611f8e612018565b6001600160a01b038116611ff35760405162461bcd60e51b815260206004820152602660248201527f4f776e61626c653a206e6577206f776e657220697320746865207a65726f206160448201526564647265737360d01b6064820152608401610803565b6108a08161250f565b6120046124aa565b61200e81336122c0565b6108a0600160c955565b6033546001600160a01b031633146116105760405162461bcd60e51b815260206004820181905260248201527f4f776e61626c653a2063616c6c6572206973206e6f7420746865206f776e65726044820152606401610803565b60008060ce838154811061208857612088612dd1565b90600052602060002090600c02019050600060cc5460cd546120aa9190612dfd565b600183015483549192506120cc916001600160a01b0390811691163084612467565b5060006127106120de6103e884612e23565b6120e89190612e3a565b83546001600160a01b0316600090815260cb6020526040812080549293508392909190612116908490612e10565b925050819055508160cc600082825461212f9190612e10565b9091555050426006909301929092555060019392505050565b6108a0612018565b7f4910fdfa16fed3260ed0e7147f7cc6da11a60208b5b9406d12a635614ffd91435460ff1615612188576121838361259c565b505050565b826001600160a01b03166352d1902d6040518163ffffffff1660e01b8152600401602060405180830381865afa9250505080156121e2575060408051601f3d908101601f191682019092526121df91810190612fd6565b60015b6122455760405162461bcd60e51b815260206004820152602e60248201527f45524331393637557067726164653a206e657720696d706c656d656e7461746960448201526d6f6e206973206e6f74205555505360901b6064820152608401610803565b6000805160206130d083398151915281146122b45760405162461bcd60e51b815260206004820152602960248201527f45524331393637557067726164653a20756e737570706f727465642070726f786044820152681a58589b195555525160ba1b6064820152608401610803565b50612183838383612638565b600060ce83815481106122d5576122d5612dd1565b6000918252602080832086845260cf825260408085206001600160a01b03881686529092529083208054600c9093029091019350910361231b5742600290910155505050565b60006123278585610f25565b905060cc5481111561233e5761233c85612072565b505b60006001600160a01b038516331461235757600061235a565b60015b90508061238b57818360010160008282546123759190612e10565b9091555050426002909301929092555050505050565b600083600101548361239d9190612e10565b905080156123c45784546123bb906001600160a01b031687836123eb565b50600060018501555b428460020181905560cc60008282546123dd9190612dfd565b909155505050505050505050565b6040516001600160a01b03831660248201526044810182905260009061245190859063a9059cbb60e01b906064015b60408051601f198184030181529190526020810180516001600160e01b03166001600160e01b031990931692909217909152612663565b5060019392505050565b6000610ce28284612e23565b6040516001600160a01b03808516602483015283166044820152606481018290526000906118e39086906323b872dd60e01b9060840161241a565b949350505050565b600260c954036124fc5760405162461bcd60e51b815260206004820152601f60248201527f5265656e7472616e637947756172643a207265656e7472616e742063616c6c006044820152606401610803565b600260c955565b6000610ce28284612e10565b603380546001600160a01b038381166001600160a01b0319831681179093556040519116919082907f8be0079c531659141344cd1fd0a4f28419497f9722a3daafe3b4186f6b6457e090600090a35050565b600054610100900460ff166125885760405162461bcd60e51b815260040161080390612fef565b611610612735565b6000610ce28284612dfd565b6001600160a01b0381163b6126095760405162461bcd60e51b815260206004820152602d60248201527f455243313936373a206e657720696d706c656d656e746174696f6e206973206e60448201526c1bdd08184818dbdb9d1c9858dd609a1b6064820152608401610803565b6000805160206130d083398151915280546001600160a01b0319166001600160a01b0392909216919091179055565b61264183612765565b60008251118061264e5750805b156121835761265d83836127a5565b50505050565b60006126b8826040518060400160405280602081526020017f5361666545524332303a206c6f772d6c6576656c2063616c6c206661696c6564815250856001600160a01b03166128999092919063ffffffff16565b80519091501561218357808060200190518101906126d6919061303a565b6121835760405162461bcd60e51b815260206004820152602a60248201527f5361666545524332303a204552433230206f7065726174696f6e20646964206e6044820152691bdd081cdd58d8d9595960b21b6064820152608401610803565b600054610100900460ff1661275c5760405162461bcd60e51b815260040161080390612fef565b6116103361250f565b61276e8161259c565b6040516001600160a01b038216907fbc7cd75a20ee27fd9adebab32041f755214dbc6bffa90cc0225b39da2e5c2d3b90600090a250565b60606001600160a01b0383163b61280d5760405162461bcd60e51b815260206004820152602660248201527f416464726573733a2064656c65676174652063616c6c20746f206e6f6e2d636f6044820152651b9d1c9858dd60d21b6064820152608401610803565b600080846001600160a01b0316846040516128289190613080565b600060405180830381855af49150503d8060008114612863576040519150601f19603f3d011682016040523d82523d6000602084013e612868565b606091505b509150915061289082826040518060600160405280602781526020016130f0602791396128a8565b95945050505050565b60606124a284846000856128c1565b606083156128b7575081610ce2565b610ce2838361299c565b6060824710156129225760405162461bcd60e51b815260206004820152602660248201527f416464726573733a20696e73756666696369656e742062616c616e636520666f6044820152651c8818d85b1b60d21b6064820152608401610803565b600080866001600160a01b0316858760405161293e9190613080565b60006040518083038185875af1925050503d806000811461297b576040519150601f19603f3d011682016040523d82523d6000602084013e612980565b606091505b5091509150612991878383876129c6565b979650505050505050565b8151156129ac5781518083602001fd5b8060405162461bcd60e51b8152600401610803919061309c565b60608315612a35578251600003612a2e576001600160a01b0385163b612a2e5760405162461bcd60e51b815260206004820152601d60248201527f416464726573733a2063616c6c20746f206e6f6e2d636f6e74726163740000006044820152606401610803565b50816124a2565b6124a2838361299c565b828054828255906000526020600020908101928215612a94579160200282015b82811115612a9457825182546001600160a01b0319166001600160a01b03909116178255602090920191600190910190612a5f565b50612aa0929150612abe565b5090565b50805460008255906000526020600020908101906108a091905b5b80821115612aa05760008155600101612abf565b600060208284031215612ae557600080fd5b5035919050565b80356001600160a01b0381168114612b0357600080fd5b919050565b600060208284031215612b1a57600080fd5b610ce282612aec565b600080600060608486031215612b3857600080fd5b612b4184612aec565b9250602084013560ff81168114612b5757600080fd5b9150612b6560408501612aec565b90509250925092565b600080600060608486031215612b8357600080fd5b83359250612b9360208501612aec565b9150604084013590509250925092565b60008060408385031215612bb657600080fd5b82359150612bc660208401612aec565b90509250929050565b634e487b7160e01b600052604160045260246000fd5b60008060408385031215612bf857600080fd5b612c0183612aec565b9150602083013567ffffffffffffffff80821115612c1e57600080fd5b818501915085601f830112612c3257600080fd5b813581811115612c4457612c44612bcf565b604051601f8201601f19908116603f01168101908382118183101715612c6c57612c6c612bcf565b81604052828152886020848701011115612c8557600080fd5b8260208601602083013760006020848301015280955050505050509250929050565b60008060408385031215612cba57600080fd5b50508035926020909101359150565b60008060008060808587031215612cdf57600080fd5b8435935060208501359250604085013561ffff81168114612cff57600080fd5b9396929550929360600135925050565b60008060408385031215612d2257600080fd5b612d2b83612aec565b9150612bc660208401612aec565b6020808252602c908201527f46756e6374696f6e206d7573742062652063616c6c6564207468726f7567682060408201526b19195b1959d85d1958d85b1b60a21b606082015260800190565b6020808252602c908201527f46756e6374696f6e206d7573742062652063616c6c6564207468726f7567682060408201526b6163746976652070726f787960a01b606082015260800190565b634e487b7160e01b600052603260045260246000fd5b634e487b7160e01b600052601160045260246000fd5b8181038181111561101957611019612de7565b8082018082111561101957611019612de7565b808202811582820484141761101957611019612de7565b600082612e5757634e487b7160e01b600052601260045260246000fd5b500490565b6020808252600e908201526d139bdd08185d5d1a1bdc9a5e995960921b604082015260600190565b60208082526029908201527f54696d656c6f636b206e6f7420736574206f72206e6f7420636f6d706c6574656040820152686420696e2074696d6560b81b606082015260800190565b634e487b7160e01b600052603160045260246000fd5b600181815b80851115612f1e578160001904821115612f0457612f04612de7565b80851615612f1157918102915b93841c9390800290612ee8565b509250929050565b600082612f3557506001611019565b81612f4257506000611019565b8160018114612f585760028114612f6257612f7e565b6001915050611019565b60ff841115612f7357612f73612de7565b50506001821b611019565b5060208310610133831016604e8410600b8410161715612fa1575081810a611019565b612fab8383612ee3565b8060001904821115612fbf57612fbf612de7565b029392505050565b6000610ce260ff841683612f26565b600060208284031215612fe857600080fd5b5051919050565b6020808252602b908201527f496e697469616c697a61626c653a20636f6e7472616374206973206e6f74206960408201526a6e697469616c697a696e6760a81b606082015260800190565b60006020828403121561304c57600080fd5b81518015158114610ce257600080fd5b60005b8381101561307757818101518382015260200161305f565b50506000910152565b6000825161309281846020870161305c565b9190910192915050565b60208152600082518060208401526130bb81604085016020870161305c565b601f01601f1916919091016040019291505056fe360894a13ba1a3210667c828492db98dca3e2076cc3735a920a3ca505d382bbc416464726573733a206c6f772d6c6576656c2064656c65676174652063616c6c206661696c6564a2646970667358221220b2482b445fe6be727c267214bd57f367c3dc3bf82dbb083216f1aa1fc8f92c6464736f6c63430008110033",
    "linkReferences": {}
  },
  "methodIdentifiers": {
    "addNewBountyPool(address,uint8,address)": "399eadb8",
    "billPremium(uint256)": "2dbe051e",
    "claimPremium(uint256)": "f47ec3be",
    "collectSaloonProfits(address,address)": "cf9564b9",
    "getMultiplier(uint256,uint256)": "8dbb1e3a",
    "initialize()": "8129fc1c",
    "makeProjectDeposit(uint256,uint256)": "57a86d3a",
    "owner()": "8da5cb5b",
    "payBounty(uint256,address,uint256)": "3ac6ad7b",
    "pendingToken(uint256,address)": "48e43af4",
    "poolInfo(uint256)": "1526fe27",
    "poolLength()": "081e3eda",
    "premiumBalance()": "44ebc03d",
    "projectDepositWithdrawal(uint256,uint256)": "983c1ce0",
    "proxiableUUID()": "52d1902d",
    "renounceOwnership()": "715018a6",
    "requiredPremiumBalancePerPeriod()": "4c3bdee0",
    "saloonBountyProfit(address)": "e45abd0f",
    "saloonPremiumProfit(address)": "ca006148",
    "scheduleProjectDepositWithdrawal(uint256,uint256)": "5669cbef",
    "scheduleUnstake(uint256,uint256)": "91635b4e",
    "setAPYandPoolCapAndDeposit(uint256,uint256,uint16,uint256)": "cee6b069",
    "stake(uint256,address,uint256)": "6e9c931c",
    "startTime()": "78e97925",
    "transferOwnership(address)": "f2fde38b",
    "unstake(uint256,uint256)": "9e2c8a5b",
    "upgradeTo(address)": "3659cfe6",
    "upgradeToAndCall(address,bytes)": "4f1ef286",
    "userInfo(uint256,address)": "93f1a40b",
    "viewBountyBalance(uint256)": "6ac6d812",
    "viewPoolCap(uint256)": "39679ff4",
    "viewStake(uint256)": "23691677",
    "viewTotalStaked(uint256)": "dbdd6957"
  },
  "id": 28
}