{
  "abi": [
    {
      "inputs": [
        {
          "internalType": "UD60x18",
          "name": "x",
          "type": "uint256"
        }
      ],
      "name": "PRBMathUD60x18__LogInputTooSmall",
      "type": "error"
    },
    {
      "inputs": [
        {
          "internalType": "uint256",
          "name": "x",
          "type": "uint256"
        }
      ],
      "name": "PRBMathUD60x18__ToUD60x18Overflow",
      "type": "error"
    },
    {
      "inputs": [
        {
          "internalType": "uint256",
          "name": "x",
          "type": "uint256"
        },
        {
          "internalType": "uint256",
          "name": "y",
          "type": "uint256"
        }
      ],
      "name": "PRBMath__MulDiv18Overflow",
      "type": "error"
    },
    {
      "inputs": [
        {
          "internalType": "uint256",
          "name": "x",
          "type": "uint256"
        },
        {
          "internalType": "uint256",
          "name": "y",
          "type": "uint256"
        },
        {
          "internalType": "uint256",
          "name": "denominator",
          "type": "uint256"
        }
      ],
      "name": "PRBMath__MulDivOverflow",
      "type": "error"
    },
    {
      "anonymous": false,
      "inputs": [
        {
          "indexed": false,
          "internalType": "address",
          "name": "previousAdmin",
          "type": "address"
        },
        {
          "indexed": false,
          "internalType": "address",
          "name": "newAdmin",
          "type": "address"
        }
      ],
      "name": "AdminChanged",
      "type": "event"
    },
    {
      "anonymous": false,
      "inputs": [
        {
          "indexed": true,
          "internalType": "address",
          "name": "owner",
          "type": "address"
        },
        {
          "indexed": true,
          "internalType": "address",
          "name": "approved",
          "type": "address"
        },
        {
          "indexed": true,
          "internalType": "uint256",
          "name": "tokenId",
          "type": "uint256"
        }
      ],
      "name": "Approval",
      "type": "event"
    },
    {
      "anonymous": false,
      "inputs": [
        {
          "indexed": true,
          "internalType": "address",
          "name": "owner",
          "type": "address"
        },
        {
          "indexed": true,
          "internalType": "address",
          "name": "operator",
          "type": "address"
        },
        {
          "indexed": false,
          "internalType": "bool",
          "name": "approved",
          "type": "bool"
        }
      ],
      "name": "ApprovalForAll",
      "type": "event"
    },
    {
      "anonymous": false,
      "inputs": [
        {
          "indexed": true,
          "internalType": "address",
          "name": "beacon",
          "type": "address"
        }
      ],
      "name": "BeaconUpgraded",
      "type": "event"
    },
    {
      "anonymous": false,
      "inputs": [
        {
          "indexed": true,
          "internalType": "uint256",
          "name": "pid",
          "type": "uint256"
        },
        {
          "indexed": false,
          "internalType": "uint256",
          "name": "oldAmount",
          "type": "uint256"
        },
        {
          "indexed": false,
          "internalType": "uint256",
          "name": "newAmount",
          "type": "uint256"
        }
      ],
      "name": "BountyBalanceChanged",
      "type": "event"
    },
    {
      "anonymous": false,
      "inputs": [
        {
          "indexed": true,
          "internalType": "address",
          "name": "hunter",
          "type": "address"
        },
        {
          "indexed": true,
          "internalType": "address",
          "name": "token",
          "type": "address"
        },
        {
          "indexed": false,
          "internalType": "uint256",
          "name": "amount",
          "type": "uint256"
        }
      ],
      "name": "BountyPaid",
      "type": "event"
    },
    {
      "anonymous": false,
      "inputs": [
        {
          "indexed": false,
          "internalType": "uint8",
          "name": "version",
          "type": "uint8"
        }
      ],
      "name": "Initialized",
      "type": "event"
    },
    {
      "anonymous": false,
      "inputs": [
        {
          "indexed": true,
          "internalType": "uint256",
          "name": "pid",
          "type": "uint256"
        },
        {
          "indexed": true,
          "internalType": "address",
          "name": "token",
          "type": "address"
        },
        {
          "indexed": false,
          "internalType": "uint256",
          "name": "tokenDecimals",
          "type": "uint256"
        }
      ],
      "name": "NewBountyDeployed",
      "type": "event"
    },
    {
      "anonymous": false,
      "inputs": [
        {
          "indexed": true,
          "internalType": "address",
          "name": "previousOwner",
          "type": "address"
        },
        {
          "indexed": true,
          "internalType": "address",
          "name": "newOwner",
          "type": "address"
        }
      ],
      "name": "OwnershipTransferred",
      "type": "event"
    },
    {
      "anonymous": false,
      "inputs": [
        {
          "indexed": true,
          "internalType": "uint256",
          "name": "pid",
          "type": "uint256"
        },
        {
          "indexed": false,
          "internalType": "uint256",
          "name": "amount",
          "type": "uint256"
        }
      ],
      "name": "PremiumBilled",
      "type": "event"
    },
    {
      "anonymous": false,
      "inputs": [
        {
          "indexed": true,
          "internalType": "address",
          "name": "user",
          "type": "address"
        },
        {
          "indexed": true,
          "internalType": "uint256",
          "name": "pid",
          "type": "uint256"
        },
        {
          "indexed": false,
          "internalType": "uint256",
          "name": "amount",
          "type": "uint256"
        }
      ],
      "name": "Staked",
      "type": "event"
    },
    {
      "anonymous": false,
      "inputs": [
        {
          "indexed": true,
          "internalType": "address",
          "name": "from",
          "type": "address"
        },
        {
          "indexed": true,
          "internalType": "address",
          "name": "to",
          "type": "address"
        },
        {
          "indexed": true,
          "internalType": "uint256",
          "name": "tokenId",
          "type": "uint256"
        }
      ],
      "name": "Transfer",
      "type": "event"
    },
    {
      "anonymous": false,
      "inputs": [
        {
          "indexed": true,
          "internalType": "address",
          "name": "user",
          "type": "address"
        },
        {
          "indexed": true,
          "internalType": "uint256",
          "name": "pid",
          "type": "uint256"
        },
        {
          "indexed": false,
          "internalType": "uint256",
          "name": "amount",
          "type": "uint256"
        }
      ],
      "name": "Unstaked",
      "type": "event"
    },
    {
      "anonymous": false,
      "inputs": [
        {
          "indexed": true,
          "internalType": "address",
          "name": "implementation",
          "type": "address"
        }
      ],
      "name": "Upgraded",
      "type": "event"
    },
    {
      "anonymous": false,
      "inputs": [
        {
          "indexed": true,
          "internalType": "uint256",
          "name": "pid",
          "type": "uint256"
        },
        {
          "indexed": false,
          "internalType": "uint256",
          "name": "amount",
          "type": "uint256"
        }
      ],
      "name": "WithdrawalOrUnstakeScheduled",
      "type": "event"
    },
    {
      "anonymous": false,
      "inputs": [
        {
          "indexed": true,
          "internalType": "address",
          "name": "referrer",
          "type": "address"
        },
        {
          "indexed": false,
          "internalType": "uint256",
          "name": "amount",
          "type": "uint256"
        }
      ],
      "name": "referralPaid",
      "type": "event"
    },
    {
      "anonymous": false,
      "inputs": [
        {
          "indexed": true,
          "internalType": "address",
          "name": "token",
          "type": "address"
        },
        {
          "indexed": true,
          "internalType": "bool",
          "name": "whitelisted",
          "type": "bool"
        }
      ],
      "name": "tokenWhitelistUpdated",
      "type": "event"
    },
    {
      "inputs": [],
      "name": "acceptOwnershipTransfer",
      "outputs": [],
      "stateMutability": "nonpayable",
      "type": "function"
    },
    {
      "inputs": [
        {
          "internalType": "uint256",
          "name": "",
          "type": "uint256"
        }
      ],
      "name": "activeStrategies",
      "outputs": [
        {
          "internalType": "bytes32",
          "name": "",
          "type": "bytes32"
        }
      ],
      "stateMutability": "view",
      "type": "function"
    },
    {
      "inputs": [
        {
          "internalType": "uint256",
          "name": "",
          "type": "uint256"
        }
      ],
      "name": "activeTokens",
      "outputs": [
        {
          "internalType": "address",
          "name": "",
          "type": "address"
        }
      ],
      "stateMutability": "view",
      "type": "function"
    },
    {
      "inputs": [
        {
          "internalType": "address",
          "name": "_token",
          "type": "address"
        },
        {
          "internalType": "address",
          "name": "_projectWallet",
          "type": "address"
        },
        {
          "internalType": "string",
          "name": "_projectName",
          "type": "string"
        },
        {
          "internalType": "address",
          "name": "_referrer",
          "type": "address"
        },
        {
          "internalType": "uint256",
          "name": "_referralFee",
          "type": "uint256"
        },
        {
          "internalType": "uint256",
          "name": "_referralEndTime",
          "type": "uint256"
        }
      ],
      "name": "addNewBountyPool",
      "outputs": [
        {
          "internalType": "uint256",
          "name": "",
          "type": "uint256"
        }
      ],
      "stateMutability": "nonpayable",
      "type": "function"
    },
    {
      "inputs": [
        {
          "internalType": "address",
          "name": "to",
          "type": "address"
        },
        {
          "internalType": "uint256",
          "name": "tokenId",
          "type": "uint256"
        }
      ],
      "name": "approve",
      "outputs": [],
      "stateMutability": "nonpayable",
      "type": "function"
    },
    {
      "inputs": [
        {
          "internalType": "address",
          "name": "owner",
          "type": "address"
        }
      ],
      "name": "balanceOf",
      "outputs": [
        {
          "internalType": "uint256",
          "name": "",
          "type": "uint256"
        }
      ],
      "stateMutability": "view",
      "type": "function"
    },
    {
      "inputs": [
        {
          "internalType": "uint256",
          "name": "_pid",
          "type": "uint256"
        }
      ],
      "name": "billPremium",
      "outputs": [
        {
          "internalType": "bool",
          "name": "",
          "type": "bool"
        }
      ],
      "stateMutability": "nonpayable",
      "type": "function"
    },
    {
      "inputs": [
        {
          "internalType": "uint256",
          "name": "_pid",
          "type": "uint256"
        },
        {
          "internalType": "uint256",
          "name": "_totalAmount",
          "type": "uint256"
        }
      ],
      "name": "calcReferralSplit",
      "outputs": [
        {
          "internalType": "uint256",
          "name": "",
          "type": "uint256"
        },
        {
          "internalType": "uint256",
          "name": "",
          "type": "uint256"
        },
        {
          "internalType": "address",
          "name": "",
          "type": "address"
        }
      ],
      "stateMutability": "view",
      "type": "function"
    },
    {
      "inputs": [
        {
          "internalType": "uint256",
          "name": "_poolCap",
          "type": "uint256"
        },
        {
          "internalType": "uint256",
          "name": "_apy",
          "type": "uint256"
        }
      ],
      "name": "calcRequiredPremiumBalancePerPeriod",
      "outputs": [
        {
          "internalType": "uint256",
          "name": "requiredPremiumBalance",
          "type": "uint256"
        }
      ],
      "stateMutability": "pure",
      "type": "function"
    },
    {
      "inputs": [
        {
          "internalType": "uint256",
          "name": "_pid",
          "type": "uint256"
        },
        {
          "internalType": "uint256",
          "name": "_stake",
          "type": "uint256"
        },
        {
          "internalType": "uint256",
          "name": "_memX",
          "type": "uint256"
        }
      ],
      "name": "calculateArbitraryEffectiveAPY",
      "outputs": [
        {
          "internalType": "uint256",
          "name": "scaledAPY",
          "type": "uint256"
        }
      ],
      "stateMutability": "view",
      "type": "function"
    },
    {
      "inputs": [
        {
          "internalType": "uint256",
          "name": "_pid",
          "type": "uint256"
        },
        {
          "internalType": "uint256",
          "name": "_stake",
          "type": "uint256"
        }
      ],
      "name": "calculateEffectiveAPY",
      "outputs": [
        {
          "internalType": "uint256",
          "name": "scaledAPY",
          "type": "uint256"
        }
      ],
      "stateMutability": "view",
      "type": "function"
    },
    {
      "inputs": [
        {
          "internalType": "uint256",
          "name": "_tokenId",
          "type": "uint256"
        }
      ],
      "name": "claimPremium",
      "outputs": [],
      "stateMutability": "nonpayable",
      "type": "function"
    },
    {
      "inputs": [],
      "name": "collectAllReferralProfits",
      "outputs": [
        {
          "internalType": "bool",
          "name": "",
          "type": "bool"
        }
      ],
      "stateMutability": "nonpayable",
      "type": "function"
    },
    {
      "inputs": [
        {
          "internalType": "address",
          "name": "_saloonWallet",
          "type": "address"
        }
      ],
      "name": "collectAllSaloonProfits",
      "outputs": [
        {
          "internalType": "bool",
          "name": "",
          "type": "bool"
        }
      ],
      "stateMutability": "nonpayable",
      "type": "function"
    },
    {
      "inputs": [
        {
          "internalType": "address",
          "name": "_token",
          "type": "address"
        }
      ],
      "name": "collectReferralProfit",
      "outputs": [
        {
          "internalType": "bool",
          "name": "",
          "type": "bool"
        }
      ],
      "stateMutability": "nonpayable",
      "type": "function"
    },
    {
      "inputs": [
        {
          "internalType": "address",
          "name": "_token",
          "type": "address"
        },
        {
          "internalType": "address",
          "name": "_saloonWallet",
          "type": "address"
        }
      ],
      "name": "collectSaloonProfits",
      "outputs": [
        {
          "internalType": "bool",
          "name": "",
          "type": "bool"
        }
      ],
      "stateMutability": "nonpayable",
      "type": "function"
    },
    {
      "inputs": [],
      "name": "compoundYieldForAll",
      "outputs": [],
      "stateMutability": "nonpayable",
      "type": "function"
    },
    {
      "inputs": [
        {
          "internalType": "uint256",
          "name": "_pid",
          "type": "uint256"
        }
      ],
      "name": "compoundYieldForPid",
      "outputs": [],
      "stateMutability": "nonpayable",
      "type": "function"
    },
    {
      "inputs": [
        {
          "internalType": "uint256",
          "name": "_pid",
          "type": "uint256"
        }
      ],
      "name": "consolidate",
      "outputs": [],
      "stateMutability": "nonpayable",
      "type": "function"
    },
    {
      "inputs": [],
      "name": "consolidateAll",
      "outputs": [],
      "stateMutability": "nonpayable",
      "type": "function"
    },
    {
      "inputs": [
        {
          "internalType": "uint256",
          "name": "_pid",
          "type": "uint256"
        },
        {
          "internalType": "uint256",
          "name": "_endTime",
          "type": "uint256"
        }
      ],
      "name": "extendReferralPeriod",
      "outputs": [],
      "stateMutability": "nonpayable",
      "type": "function"
    },
    {
      "inputs": [
        {
          "internalType": "address",
          "name": "_owner",
          "type": "address"
        }
      ],
      "name": "getAllTokensByOwner",
      "outputs": [
        {
          "components": [
            {
              "internalType": "uint256",
              "name": "pid",
              "type": "uint256"
            },
            {
              "internalType": "uint256",
              "name": "amount",
              "type": "uint256"
            },
            {
              "internalType": "uint256",
              "name": "xDelta",
              "type": "uint256"
            },
            {
              "internalType": "uint256",
              "name": "apy",
              "type": "uint256"
            },
            {
              "internalType": "uint256",
              "name": "unclaimed",
              "type": "uint256"
            },
            {
              "internalType": "uint256",
              "name": "lastClaimedTime",
              "type": "uint256"
            },
            {
              "internalType": "uint256",
              "name": "timelock",
              "type": "uint256"
            },
            {
              "internalType": "uint256",
              "name": "timelimit",
              "type": "uint256"
            }
          ],
          "internalType": "struct BountyTokenNFT.NFTInfo[]",
          "name": "userTokens",
          "type": "tuple[]"
        }
      ],
      "stateMutability": "view",
      "type": "function"
    },
    {
      "inputs": [
        {
          "internalType": "uint256",
          "name": "tokenId",
          "type": "uint256"
        }
      ],
      "name": "getApproved",
      "outputs": [
        {
          "internalType": "address",
          "name": "",
          "type": "address"
        }
      ],
      "stateMutability": "view",
      "type": "function"
    },
    {
      "inputs": [
        {
          "internalType": "uint256",
          "name": "_pid",
          "type": "uint256"
        }
      ],
      "name": "getCurrentAPY",
      "outputs": [
        {
          "internalType": "uint256",
          "name": "currentAPY",
          "type": "uint256"
        }
      ],
      "stateMutability": "view",
      "type": "function"
    },
    {
      "inputs": [
        {
          "internalType": "uint256",
          "name": "_from",
          "type": "uint256"
        },
        {
          "internalType": "uint256",
          "name": "_to",
          "type": "uint256"
        }
      ],
      "name": "getSecondsPassed",
      "outputs": [
        {
          "internalType": "uint256",
          "name": "",
          "type": "uint256"
        }
      ],
      "stateMutability": "pure",
      "type": "function"
    },
    {
      "inputs": [],
      "name": "index",
      "outputs": [
        {
          "internalType": "uint256",
          "name": "",
          "type": "uint256"
        }
      ],
      "stateMutability": "view",
      "type": "function"
    },
    {
      "inputs": [
        {
          "internalType": "address",
          "name": "_strategyFactory",
          "type": "address"
        }
      ],
      "name": "initialize",
      "outputs": [],
      "stateMutability": "nonpayable",
      "type": "function"
    },
    {
      "inputs": [
        {
          "internalType": "address",
          "name": "owner",
          "type": "address"
        },
        {
          "internalType": "address",
          "name": "operator",
          "type": "address"
        }
      ],
      "name": "isApprovedForAll",
      "outputs": [
        {
          "internalType": "bool",
          "name": "",
          "type": "bool"
        }
      ],
      "stateMutability": "view",
      "type": "function"
    },
    {
      "inputs": [
        {
          "internalType": "uint256",
          "name": "_pid",
          "type": "uint256"
        },
        {
          "internalType": "uint256",
          "name": "_deposit",
          "type": "uint256"
        },
        {
          "internalType": "string",
          "name": "_strategyName",
          "type": "string"
        }
      ],
      "name": "makeProjectDeposit",
      "outputs": [],
      "stateMutability": "nonpayable",
      "type": "function"
    },
    {
      "inputs": [
        {
          "internalType": "address",
          "name": "",
          "type": "address"
        }
      ],
      "name": "minTokenStakeAmount",
      "outputs": [
        {
          "internalType": "uint256",
          "name": "",
          "type": "uint256"
        }
      ],
      "stateMutability": "view",
      "type": "function"
    },
    {
      "inputs": [],
      "name": "name",
      "outputs": [
        {
          "internalType": "string",
          "name": "",
          "type": "string"
        }
      ],
      "stateMutability": "view",
      "type": "function"
    },
    {
      "inputs": [
        {
          "internalType": "uint256",
          "name": "",
          "type": "uint256"
        }
      ],
      "name": "nftInfo",
      "outputs": [
        {
          "internalType": "uint256",
          "name": "pid",
          "type": "uint256"
        },
        {
          "internalType": "uint256",
          "name": "amount",
          "type": "uint256"
        },
        {
          "internalType": "uint256",
          "name": "xDelta",
          "type": "uint256"
        },
        {
          "internalType": "uint256",
          "name": "apy",
          "type": "uint256"
        },
        {
          "internalType": "uint256",
          "name": "unclaimed",
          "type": "uint256"
        },
        {
          "internalType": "uint256",
          "name": "lastClaimedTime",
          "type": "uint256"
        },
        {
          "internalType": "uint256",
          "name": "timelock",
          "type": "uint256"
        },
        {
          "internalType": "uint256",
          "name": "timelimit",
          "type": "uint256"
        }
      ],
      "stateMutability": "view",
      "type": "function"
    },
    {
      "inputs": [],
      "name": "owner",
      "outputs": [
        {
          "internalType": "address",
          "name": "",
          "type": "address"
        }
      ],
      "stateMutability": "view",
      "type": "function"
    },
    {
      "inputs": [
        {
          "internalType": "uint256",
          "name": "tokenId",
          "type": "uint256"
        }
      ],
      "name": "ownerOf",
      "outputs": [
        {
          "internalType": "address",
          "name": "",
          "type": "address"
        }
      ],
      "stateMutability": "view",
      "type": "function"
    },
    {
      "inputs": [
        {
          "internalType": "uint256",
          "name": "_pid",
          "type": "uint256"
        },
        {
          "internalType": "address",
          "name": "_hunter",
          "type": "address"
        },
        {
          "internalType": "uint16",
          "name": "_payoutBPS",
          "type": "uint16"
        },
        {
          "internalType": "uint16",
          "name": "_hunterBonusBPS",
          "type": "uint16"
        }
      ],
      "name": "payBounty",
      "outputs": [],
      "stateMutability": "nonpayable",
      "type": "function"
    },
    {
      "inputs": [
        {
          "internalType": "uint256",
          "name": "_tokenId",
          "type": "uint256"
        }
      ],
      "name": "pendingPremium",
      "outputs": [
        {
          "internalType": "uint256",
          "name": "totalPending",
          "type": "uint256"
        },
        {
          "internalType": "uint256",
          "name": "actualPending",
          "type": "uint256"
        },
        {
          "internalType": "uint256",
          "name": "newPending",
          "type": "uint256"
        }
      ],
      "stateMutability": "view",
      "type": "function"
    },
    {
      "inputs": [
        {
          "internalType": "uint256",
          "name": "",
          "type": "uint256"
        },
        {
          "internalType": "uint256",
          "name": "",
          "type": "uint256"
        }
      ],
      "name": "pidNFTList",
      "outputs": [
        {
          "internalType": "uint256",
          "name": "",
          "type": "uint256"
        }
      ],
      "stateMutability": "view",
      "type": "function"
    },
    {
      "inputs": [
        {
          "internalType": "uint256",
          "name": "",
          "type": "uint256"
        },
        {
          "internalType": "bytes32",
          "name": "",
          "type": "bytes32"
        }
      ],
      "name": "pidStrategies",
      "outputs": [
        {
          "internalType": "address",
          "name": "",
          "type": "address"
        }
      ],
      "stateMutability": "view",
      "type": "function"
    },
    {
      "inputs": [
        {
          "internalType": "uint256",
          "name": "",
          "type": "uint256"
        }
      ],
      "name": "poolInfo",
      "outputs": [
        {
          "components": [
            {
              "internalType": "contract IERC20",
              "name": "token",
              "type": "address"
            },
            {
              "internalType": "uint8",
              "name": "tokenDecimals",
              "type": "uint8"
            },
            {
              "internalType": "uint16",
              "name": "apy",
              "type": "uint16"
            },
            {
              "internalType": "address",
              "name": "projectWallet",
              "type": "address"
            },
            {
              "internalType": "string",
              "name": "projectName",
              "type": "string"
            },
            {
              "internalType": "uint256",
              "name": "poolCap",
              "type": "uint256"
            },
            {
              "internalType": "uint256",
              "name": "totalStaked",
              "type": "uint256"
            },
            {
              "internalType": "uint256",
              "name": "scalingMultiplier",
              "type": "uint256"
            }
          ],
          "internalType": "struct ISaloon.GeneralInfo",
          "name": "generalInfo",
          "type": "tuple"
        },
        {
          "components": [
            {
              "internalType": "uint256",
              "name": "projectDepositHeld",
              "type": "uint256"
            },
            {
              "internalType": "uint256",
              "name": "projectDepositInStrategy",
              "type": "uint256"
            }
          ],
          "internalType": "struct ISaloon.DepositInfo",
          "name": "depositInfo",
          "type": "tuple"
        },
        {
          "components": [
            {
              "internalType": "uint256",
              "name": "premiumBalance",
              "type": "uint256"
            },
            {
              "internalType": "uint256",
              "name": "premiumAvailable",
              "type": "uint256"
            }
          ],
          "internalType": "struct ISaloon.PremiumInfo",
          "name": "premiumInfo",
          "type": "tuple"
        },
        {
          "components": [
            {
              "internalType": "uint256",
              "name": "timelock",
              "type": "uint256"
            },
            {
              "internalType": "uint256",
              "name": "timeLimit",
              "type": "uint256"
            },
            {
              "internalType": "uint256",
              "name": "withdrawalScheduledAmount",
              "type": "uint256"
            },
            {
              "internalType": "bool",
              "name": "withdrawalExecuted",
              "type": "bool"
            }
          ],
          "internalType": "struct ISaloon.TimelockInfo",
          "name": "poolTimelock",
          "type": "tuple"
        },
        {
          "components": [
            {
              "internalType": "uint256",
              "name": "currentX",
              "type": "uint256"
            },
            {
              "internalType": "uint256",
              "name": "currentY",
              "type": "uint256"
            },
            {
              "internalType": "uint256",
              "name": "totalSupply",
              "type": "uint256"
            },
            {
              "internalType": "uint256[]",
              "name": "unstakedTokens",
              "type": "uint256[]"
            }
          ],
          "internalType": "struct ISaloon.CurveInfo",
          "name": "curveInfo",
          "type": "tuple"
        },
        {
          "components": [
            {
              "internalType": "address",
              "name": "referrer",
              "type": "address"
            },
            {
              "internalType": "uint256",
              "name": "referralFee",
              "type": "uint256"
            },
            {
              "internalType": "uint256",
              "name": "endTime",
              "type": "uint256"
            }
          ],
          "internalType": "struct ISaloon.ReferralInfo",
          "name": "referralInfo",
          "type": "tuple"
        },
        {
          "internalType": "uint256",
          "name": "freezeTime",
          "type": "uint256"
        },
        {
          "internalType": "bool",
          "name": "isActive",
          "type": "bool"
        }
      ],
      "stateMutability": "view",
      "type": "function"
    },
    {
      "inputs": [
        {
          "internalType": "uint256",
          "name": "_pid",
          "type": "uint256"
        },
        {
          "internalType": "uint256",
          "name": "_amount",
          "type": "uint256"
        }
      ],
      "name": "projectDepositWithdrawal",
      "outputs": [
        {
          "internalType": "bool",
          "name": "",
          "type": "bool"
        }
      ],
      "stateMutability": "nonpayable",
      "type": "function"
    },
    {
      "inputs": [],
      "name": "proxiableUUID",
      "outputs": [
        {
          "internalType": "bytes32",
          "name": "",
          "type": "bytes32"
        }
      ],
      "stateMutability": "view",
      "type": "function"
    },
    {
      "inputs": [
        {
          "internalType": "address",
          "name": "_token",
          "type": "address"
        },
        {
          "internalType": "uint256",
          "name": "_amount",
          "type": "uint256"
        }
      ],
      "name": "receiveStrategyYield",
      "outputs": [],
      "stateMutability": "nonpayable",
      "type": "function"
    },
    {
      "inputs": [
        {
          "internalType": "address",
          "name": "",
          "type": "address"
        },
        {
          "internalType": "address",
          "name": "",
          "type": "address"
        }
      ],
      "name": "referralBalances",
      "outputs": [
        {
          "internalType": "uint256",
          "name": "",
          "type": "uint256"
        }
      ],
      "stateMutability": "view",
      "type": "function"
    },
    {
      "inputs": [
        {
          "internalType": "address",
          "name": "from",
          "type": "address"
        },
        {
          "internalType": "address",
          "name": "to",
          "type": "address"
        },
        {
          "internalType": "uint256",
          "name": "tokenId",
          "type": "uint256"
        }
      ],
      "name": "safeTransferFrom",
      "outputs": [],
      "stateMutability": "nonpayable",
      "type": "function"
    },
    {
      "inputs": [
        {
          "internalType": "address",
          "name": "from",
          "type": "address"
        },
        {
          "internalType": "address",
          "name": "to",
          "type": "address"
        },
        {
          "internalType": "uint256",
          "name": "tokenId",
          "type": "uint256"
        },
        {
          "internalType": "bytes",
          "name": "data",
          "type": "bytes"
        }
      ],
      "name": "safeTransferFrom",
      "outputs": [],
      "stateMutability": "nonpayable",
      "type": "function"
    },
    {
      "inputs": [
        {
          "internalType": "address",
          "name": "",
          "type": "address"
        }
      ],
      "name": "saloonBountyProfit",
      "outputs": [
        {
          "internalType": "uint256",
          "name": "",
          "type": "uint256"
        }
      ],
      "stateMutability": "view",
      "type": "function"
    },
    {
      "inputs": [
        {
          "internalType": "address",
          "name": "",
          "type": "address"
        }
      ],
      "name": "saloonPremiumProfit",
      "outputs": [
        {
          "internalType": "uint256",
          "name": "",
          "type": "uint256"
        }
      ],
      "stateMutability": "view",
      "type": "function"
    },
    {
      "inputs": [
        {
          "internalType": "address",
          "name": "",
          "type": "address"
        }
      ],
      "name": "saloonStrategyProfit",
      "outputs": [
        {
          "internalType": "uint256",
          "name": "",
          "type": "uint256"
        }
      ],
      "stateMutability": "view",
      "type": "function"
    },
    {
      "inputs": [
        {
          "internalType": "uint256",
          "name": "_pid",
          "type": "uint256"
        },
        {
          "internalType": "uint256",
          "name": "_amount",
          "type": "uint256"
        }
      ],
      "name": "scheduleProjectDepositWithdrawal",
      "outputs": [
        {
          "internalType": "bool",
          "name": "",
          "type": "bool"
        }
      ],
      "stateMutability": "nonpayable",
      "type": "function"
    },
    {
      "inputs": [
        {
          "internalType": "uint256",
          "name": "_tokenId",
          "type": "uint256"
        }
      ],
      "name": "scheduleUnstake",
      "outputs": [
        {
          "internalType": "bool",
          "name": "",
          "type": "bool"
        }
      ],
      "stateMutability": "nonpayable",
      "type": "function"
    },
    {
      "inputs": [
        {
          "internalType": "uint256",
          "name": "_pid",
          "type": "uint256"
        },
        {
          "internalType": "uint256",
          "name": "_poolCap",
          "type": "uint256"
        },
        {
          "internalType": "uint16",
          "name": "_apy",
          "type": "uint16"
        },
        {
          "internalType": "uint256",
          "name": "_deposit",
          "type": "uint256"
        },
        {
          "internalType": "string",
          "name": "_strategyName",
          "type": "string"
        }
      ],
      "name": "setAPYandPoolCapAndDeposit",
      "outputs": [],
      "stateMutability": "nonpayable",
      "type": "function"
    },
    {
      "inputs": [
        {
          "internalType": "address",
          "name": "operator",
          "type": "address"
        },
        {
          "internalType": "bool",
          "name": "approved",
          "type": "bool"
        }
      ],
      "name": "setApprovalForAll",
      "outputs": [],
      "stateMutability": "nonpayable",
      "type": "function"
    },
    {
      "inputs": [
        {
          "internalType": "uint256",
          "name": "_pid",
          "type": "uint256"
        },
        {
          "internalType": "uint256",
          "name": "_amount",
          "type": "uint256"
        }
      ],
      "name": "stake",
      "outputs": [
        {
          "internalType": "uint256",
          "name": "",
          "type": "uint256"
        }
      ],
      "stateMutability": "nonpayable",
      "type": "function"
    },
    {
      "inputs": [
        {
          "internalType": "address",
          "name": "",
          "type": "address"
        }
      ],
      "name": "strategyAddressToPid",
      "outputs": [
        {
          "internalType": "uint256",
          "name": "",
          "type": "uint256"
        }
      ],
      "stateMutability": "view",
      "type": "function"
    },
    {
      "inputs": [
        {
          "internalType": "bytes4",
          "name": "interfaceId",
          "type": "bytes4"
        }
      ],
      "name": "supportsInterface",
      "outputs": [
        {
          "internalType": "bool",
          "name": "",
          "type": "bool"
        }
      ],
      "stateMutability": "view",
      "type": "function"
    },
    {
      "inputs": [],
      "name": "symbol",
      "outputs": [
        {
          "internalType": "string",
          "name": "",
          "type": "string"
        }
      ],
      "stateMutability": "view",
      "type": "function"
    },
    {
      "inputs": [
        {
          "internalType": "uint256",
          "name": "tokenId",
          "type": "uint256"
        }
      ],
      "name": "tokenURI",
      "outputs": [
        {
          "internalType": "string",
          "name": "",
          "type": "string"
        }
      ],
      "stateMutability": "view",
      "type": "function"
    },
    {
      "inputs": [
        {
          "internalType": "address",
          "name": "",
          "type": "address"
        }
      ],
      "name": "tokenWhitelist",
      "outputs": [
        {
          "internalType": "bool",
          "name": "",
          "type": "bool"
        }
      ],
      "stateMutability": "view",
      "type": "function"
    },
    {
      "inputs": [
        {
          "internalType": "address",
          "name": "from",
          "type": "address"
        },
        {
          "internalType": "address",
          "name": "to",
          "type": "address"
        },
        {
          "internalType": "uint256",
          "name": "tokenId",
          "type": "uint256"
        }
      ],
      "name": "transferFrom",
      "outputs": [],
      "stateMutability": "nonpayable",
      "type": "function"
    },
    {
      "inputs": [
        {
          "internalType": "address",
          "name": "newOwner",
          "type": "address"
        }
      ],
      "name": "transferOwnership",
      "outputs": [],
      "stateMutability": "nonpayable",
      "type": "function"
    },
    {
      "inputs": [
        {
          "internalType": "uint256",
          "name": "_tokenId",
          "type": "uint256"
        },
        {
          "internalType": "bool",
          "name": "_shouldHarvest",
          "type": "bool"
        }
      ],
      "name": "unstake",
      "outputs": [
        {
          "internalType": "bool",
          "name": "",
          "type": "bool"
        }
      ],
      "stateMutability": "nonpayable",
      "type": "function"
    },
    {
      "inputs": [
        {
          "internalType": "uint256",
          "name": "_pid",
          "type": "uint256"
        },
        {
          "internalType": "address",
          "name": "_projectWallet",
          "type": "address"
        }
      ],
      "name": "updateProjectWalletAddress",
      "outputs": [],
      "stateMutability": "nonpayable",
      "type": "function"
    },
    {
      "inputs": [
        {
          "internalType": "address",
          "name": "_strategyFactory",
          "type": "address"
        }
      ],
      "name": "updateStrategyFactoryAddress",
      "outputs": [],
      "stateMutability": "nonpayable",
      "type": "function"
    },
    {
      "inputs": [
        {
          "internalType": "address",
          "name": "_token",
          "type": "address"
        },
        {
          "internalType": "bool",
          "name": "_whitelisted",
          "type": "bool"
        },
        {
          "internalType": "uint256",
          "name": "_minStakeAmount",
          "type": "uint256"
        }
      ],
      "name": "updateTokenWhitelist",
      "outputs": [
        {
          "internalType": "bool",
          "name": "",
          "type": "bool"
        }
      ],
      "stateMutability": "nonpayable",
      "type": "function"
    },
    {
      "inputs": [
        {
          "internalType": "address",
          "name": "newImplementation",
          "type": "address"
        }
      ],
      "name": "upgradeTo",
      "outputs": [],
      "stateMutability": "nonpayable",
      "type": "function"
    },
    {
      "inputs": [
        {
          "internalType": "address",
          "name": "newImplementation",
          "type": "address"
        },
        {
          "internalType": "bytes",
          "name": "data",
          "type": "bytes"
        }
      ],
      "name": "upgradeToAndCall",
      "outputs": [],
      "stateMutability": "payable",
      "type": "function"
    },
    {
      "inputs": [
        {
          "internalType": "uint256",
          "name": "_pid",
          "type": "uint256"
        }
      ],
      "name": "viewBountyBalance",
      "outputs": [
        {
          "internalType": "uint256",
          "name": "",
          "type": "uint256"
        }
      ],
      "stateMutability": "view",
      "type": "function"
    },
    {
      "inputs": [
        {
          "internalType": "uint256",
          "name": "_pid",
          "type": "uint256"
        }
      ],
      "name": "viewBountyInfo",
      "outputs": [
        {
          "internalType": "uint256",
          "name": "payout",
          "type": "uint256"
        },
        {
          "internalType": "uint256",
          "name": "apy",
          "type": "uint256"
        },
        {
          "internalType": "uint256",
          "name": "staked",
          "type": "uint256"
        },
        {
          "internalType": "uint256",
          "name": "poolCap",
          "type": "uint256"
        }
      ],
      "stateMutability": "view",
      "type": "function"
    },
    {
      "inputs": [
        {
          "internalType": "uint256",
          "name": "_pid",
          "type": "uint256"
        }
      ],
      "name": "viewHackerPayout",
      "outputs": [
        {
          "internalType": "uint256",
          "name": "",
          "type": "uint256"
        }
      ],
      "stateMutability": "view",
      "type": "function"
    },
    {
      "inputs": [
        {
          "internalType": "uint256",
          "name": "_pid",
          "type": "uint256"
        }
      ],
      "name": "viewMinProjectDeposit",
      "outputs": [
        {
          "internalType": "uint256",
          "name": "",
          "type": "uint256"
        }
      ],
      "stateMutability": "view",
      "type": "function"
    },
    {
      "inputs": [
        {
          "internalType": "uint256",
          "name": "_pid",
          "type": "uint256"
        }
      ],
      "name": "viewPoolAPY",
      "outputs": [
        {
          "internalType": "uint256",
          "name": "",
          "type": "uint256"
        }
      ],
      "stateMutability": "view",
      "type": "function"
    },
    {
      "inputs": [
        {
          "internalType": "uint256",
          "name": "_pid",
          "type": "uint256"
        }
      ],
      "name": "viewPoolCap",
      "outputs": [
        {
          "internalType": "uint256",
          "name": "",
          "type": "uint256"
        }
      ],
      "stateMutability": "view",
      "type": "function"
    },
    {
      "inputs": [
        {
          "internalType": "uint256",
          "name": "_pid",
          "type": "uint256"
        }
      ],
      "name": "viewPoolPremiumInfo",
      "outputs": [
        {
          "internalType": "uint256",
          "name": "requiredPremiumBalancePerPeriod",
          "type": "uint256"
        },
        {
          "internalType": "uint256",
          "name": "premiumBalance",
          "type": "uint256"
        },
        {
          "internalType": "uint256",
          "name": "premiumAvailable",
          "type": "uint256"
        }
      ],
      "stateMutability": "view",
      "type": "function"
    },
    {
      "inputs": [
        {
          "internalType": "uint256",
          "name": "_pid",
          "type": "uint256"
        }
      ],
      "name": "viewPoolTimelockInfo",
      "outputs": [
        {
          "internalType": "uint256",
          "name": "timelock",
          "type": "uint256"
        },
        {
          "internalType": "uint256",
          "name": "timeLimit",
          "type": "uint256"
        },
        {
          "internalType": "uint256",
          "name": "withdrawalScheduledAmount",
          "type": "uint256"
        }
      ],
      "stateMutability": "view",
      "type": "function"
    },
    {
      "inputs": [
        {
          "internalType": "address",
          "name": "_referrer",
          "type": "address"
        },
        {
          "internalType": "address",
          "name": "_token",
          "type": "address"
        }
      ],
      "name": "viewReferralBalance",
      "outputs": [
        {
          "internalType": "uint256",
          "name": "referralBalance",
          "type": "uint256"
        }
      ],
      "stateMutability": "view",
      "type": "function"
    },
    {
      "inputs": [
        {
          "internalType": "address",
          "name": "_token",
          "type": "address"
        }
      ],
      "name": "viewSaloonProfitBalance",
      "outputs": [
        {
          "internalType": "uint256",
          "name": "totalProfit",
          "type": "uint256"
        },
        {
          "internalType": "uint256",
          "name": "bountyProfit",
          "type": "uint256"
        },
        {
          "internalType": "uint256",
          "name": "strategyProfit",
          "type": "uint256"
        },
        {
          "internalType": "uint256",
          "name": "premiumProfit",
          "type": "uint256"
        }
      ],
      "stateMutability": "view",
      "type": "function"
    },
    {
      "inputs": [
        {
          "internalType": "uint256",
          "name": "_tokenId",
          "type": "uint256"
        }
      ],
      "name": "viewTokenInfo",
      "outputs": [
        {
          "internalType": "uint256",
          "name": "amount",
          "type": "uint256"
        },
        {
          "internalType": "uint256",
          "name": "apy",
          "type": "uint256"
        },
        {
          "internalType": "uint256",
          "name": "actualPending",
          "type": "uint256"
        },
        {
          "internalType": "uint256",
          "name": "unclaimed",
          "type": "uint256"
        },
        {
          "internalType": "uint256",
          "name": "timelock",
          "type": "uint256"
        }
      ],
      "stateMutability": "view",
      "type": "function"
    },
    {
      "inputs": [
        {
          "internalType": "uint256",
          "name": "_pid",
          "type": "uint256"
        }
      ],
      "name": "viewTotalStaked",
      "outputs": [
        {
          "internalType": "uint256",
          "name": "",
          "type": "uint256"
        }
      ],
      "stateMutability": "view",
      "type": "function"
    },
    {
      "inputs": [
        {
          "internalType": "uint256",
          "name": "_pid",
          "type": "uint256"
        }
      ],
      "name": "windDownBounty",
      "outputs": [
        {
          "internalType": "bool",
          "name": "",
          "type": "bool"
        }
      ],
      "stateMutability": "nonpayable",
      "type": "function"
    },
    {
      "inputs": [
        {
          "internalType": "uint256",
          "name": "_pid",
          "type": "uint256"
        }
      ],
      "name": "withdrawProjectYield",
      "outputs": [
        {
          "internalType": "uint256",
          "name": "returnedAmount",
          "type": "uint256"
        }
      ],
      "stateMutability": "nonpayable",
      "type": "function"
    }
  ],
  "bytecode": {
    "object": "0x60a0604052306080523480156200001557600080fd5b50600054610100900460ff1615808015620000375750600054600160ff909116105b8062000067575062000054306200019260201b62006f7d1760201c565b15801562000067575060005460ff166001145b620000d05760405162461bcd60e51b815260206004820152602e60248201527f496e697469616c697a61626c653a20636f6e747261637420697320616c72656160448201526d191e481a5b9a5d1a585b1a5e995960921b60648201526084015b60405180910390fd5b6000805460ff191660011790558015620000f4576000805461ff0019166101001790555b620001446040518060400160405280600b81526020016a2137bab73a3caa37b5b2b760a91b8152506040518060400160405280600381526020016210951560ea1b815250620001a160201b60201c565b80156200018b576000805461ff0019169055604051600181527f7f26b83ff96e1f2b6a682f133852f6798a09c465da95921460cefb38474024989060200160405180910390a15b50620003fd565b6001600160a01b03163b151590565b600054610100900460ff16620001fd5760405162461bcd60e51b815260206004820152602b60248201526000805160206200a70883398151915260448201526a6e697469616c697a696e6760a81b6064820152608401620000c7565b6200020982826200020d565b5050565b600054610100900460ff16620002695760405162461bcd60e51b815260206004820152602b60248201526000805160206200a70883398151915260448201526a6e697469616c697a696e6760a81b6064820152608401620000c7565b61012e62000278838262000331565b5061012f62000288828262000331565b505050565b634e487b7160e01b600052604160045260246000fd5b600181811c90821680620002b857607f821691505b602082108103620002d957634e487b7160e01b600052602260045260246000fd5b50919050565b601f8211156200028857600081815260208120601f850160051c81016020861015620003085750805b601f850160051c820191505b81811015620003295782815560010162000314565b505050505050565b81516001600160401b038111156200034d576200034d6200028d565b62000365816200035e8454620002a3565b84620002df565b602080601f8311600181146200039d5760008415620003845750858301515b600019600386901b1c1916600185901b17855562000329565b600085815260208120601f198616915b82811015620003ce57888601518255948401946001909101908401620003ad565b5085821015620003ed5787850151600019600388901b60f8161c191681555b5050505050600190811b01905550565b60805161a2d362000435600039600081816123b3015281816123f301528181612b6f01528181612baf0152612fd5015261a2d36000f3fe6080604052600436106104735760003560e01c806375bfd63d1161024a578063b1a2d16f11610139578063db53e8b5116100b6578063e9fda7d41161007a578063e9fda7d414610fce578063ecd7fbed14610ffb578063f2fde38b1461101b578063f47ec3be1461103b578063f68ce4991461105b57600080fd5b8063db53e8b514610ef6578063dbdd695714610f16578063e45abd0f14610f36578063e78ea3df14610f64578063e985e9c514610f8457600080fd5b8063c4d66de8116100fd578063c4d66de814610e48578063c87b56dd14610e68578063ca00614814610e88578063cf9564b914610eb6578063d075afac14610ed657600080fd5b8063b1a2d16f14610da5578063b20b242914610dc5578063b842e87f14610df3578063b88d4fde14610e08578063bb7019c114610e2857600080fd5b806396ea48e8116101c7578063a089a5201161018b578063a089a52014610d05578063a22cb46514610d25578063a27f921314610d45578063ac30b85614610d65578063ae07f94814610d8557600080fd5b806396ea48e814610c65578063983c1ce014610c85578063995974c414610ca55780639ebea88c14610cc55780639f224f3514610ce557600080fd5b80638da5cb5b1161020e5780638da5cb5b14610ba0578063928dc6a914610bbe578063949a4a4a14610c02578063957deecc14610c2257806395d89b4114610c5057600080fd5b806375bfd63d14610b0b5780637b0472f014610b205780637fbf385314610b40578063836ef1fa14610b60578063861e5f6614610b8057600080fd5b80633538fda01161036657806352d1902d116102e35780636352211e116102a75780636352211e14610a5a5780636ac6d81214610a7a57806370a0823114610a9a578063718c7eef14610aba578063753d756314610ada57600080fd5b806352d1902d146109b75780635669cbef146109cc578063598d17bf146109ec5780635c46f7b114610a1a5780635de406dc14610a3a57600080fd5b806340bd1d001161032a57806340bd1d00146108e957806340ef28681461092457806342842e0e146109645780634f1ef286146109845780634f3214cc1461099757600080fd5b80633538fda0146108465780633659cfe614610866578063394587231461088657806339679ff4146108b45780633e8888d9146108d457600080fd5b80631526fe27116103f45780632986c0e5116103b85780632986c0e5146107af5780632cb0dfcc146107c65780632dbe051e146107e657806330ca07941461080657806332fce6021461082657600080fd5b80631526fe27146106815780631aebcecb146106b55780631c6b323f146106d55780631f8bc790146106f557806323b872dd1461078f57600080fd5b8063095ea7b31161043b578063095ea7b3146105905780630a015ab1146105b25780630ed7610c146105d2578063106d08df14610619578063107258521461063957600080fd5b8063011b408b1461047857806301ffc9a7146104c457806306fdde03146104f4578063074ecf0314610516578063081812fc14610570575b600080fd5b34801561048457600080fd5b506104b161049336600461941a565b61016860209081526000928352604080842090915290825290205481565b6040519081526020015b60405180910390f35b3480156104d057600080fd5b506104e46104df366004619469565b611070565b60405190151581526020016104bb565b34801561050057600080fd5b506105096110c2565b6040516104bb91906194d6565b34801561052257600080fd5b506105586105313660046194e9565b61016a6020908152600092835260408084209091529082529020546001600160a01b031681565b6040516001600160a01b0390911681526020016104bb565b34801561057c57600080fd5b5061055861058b36600461950b565b611155565b34801561059c57600080fd5b506105b06105ab366004619524565b61117d565b005b3480156105be57600080fd5b506104b16105cd3660046194e9565b611297565b3480156105de57600080fd5b506104b16105ed36600461941a565b6001600160a01b0391821660009081526101686020908152604080832093909416825291909152205490565b34801561062557600080fd5b506104e461063436600461950b565b6112aa565b34801561064557600080fd5b5061065961065436600461950b565b611391565b604080519586526020860194909452928401919091526060830152608082015260a0016104bb565b34801561068d57600080fd5b506106a161069c36600461950b565b61142a565b6040516104bb9897969594939291906195bb565b3480156106c157600080fd5b506105b06106d0366004619524565b611687565b3480156106e157600080fd5b506104b16106f036600461950b565b611740565b34801561070157600080fd5b5061075461071036600461950b565b610163602052600090815260409020805460018201546002830154600384015460048501546005860154600687015460079097015495969495939492939192909188565b604080519889526020890197909752958701949094526060860192909252608085015260a084015260c083015260e0820152610100016104bb565b34801561079b57600080fd5b506105b06107aa3660046196f6565b6119d3565b3480156107bb57600080fd5b506104b16101345481565b3480156107d257600080fd5b506104e46107e1366004619745565b611a04565b3480156107f257600080fd5b506104e461080136600461950b565b611c4b565b34801561081257600080fd5b506105b061082136600461982a565b611c75565b34801561083257600080fd5b506104b1610841366004619895565b611f55565b34801561085257600080fd5b506105b061086136600461991c565b61237e565b34801561087257600080fd5b506105b061088136600461991c565b6123a9565b34801561089257600080fd5b506104b16108a136600461991c565b61016f6020526000908152604090205481565b3480156108c057600080fd5b506104b16108cf36600461950b565b612488565b3480156108e057600080fd5b506104e4612710565b3480156108f557600080fd5b5061090961090436600461950b565b612773565b604080519384526020840192909252908201526060016104bb565b34801561093057600080fd5b5061094461093f36600461950b565b612b11565b6040805194855260208501939093529183015260608201526080016104bb565b34801561097057600080fd5b506105b061097f3660046196f6565b612b4a565b6105b0610992366004619939565b612b65565b3480156109a357600080fd5b506104b16109b2366004619989565b612c35565b3480156109c357600080fd5b506104b1612fc8565b3480156109d857600080fd5b506104e46109e73660046194e9565b61307b565b3480156109f857600080fd5b506104b1610a0736600461991c565b6101676020526000908152604090205481565b348015610a2657600080fd5b506104b1610a353660046194e9565b6131a9565b348015610a4657600080fd5b506105b0610a553660046194e9565b61350f565b348015610a6657600080fd5b50610558610a7536600461950b565b61359a565b348015610a8657600080fd5b506104b1610a9536600461950b565b6135fb565b348015610aa657600080fd5b506104b1610ab536600461991c565b613892565b348015610ac657600080fd5b50610944610ad536600461991c565b613919565b348015610ae657600080fd5b506104e4610af536600461991c565b61016d6020526000908152604090205460ff1681565b348015610b1757600080fd5b506105b061396a565b348015610b2c57600080fd5b506104b1610b3b3660046194e9565b613992565b348015610b4c57600080fd5b506104b1610b5b36600461950b565b613e03565b348015610b6c57600080fd5b506104b1610b7b3660046194e9565b6140aa565b348015610b8c57600080fd5b506104b1610b9b36600461950b565b6140e0565b348015610bac57600080fd5b506033546001600160a01b0316610558565b348015610bca57600080fd5b50610bde610bd93660046194e9565b61410e565b6040805193845260208401929092526001600160a01b0316908201526060016104bb565b348015610c0e57600080fd5b506105b0610c1d36600461950b565b61440d565b348015610c2e57600080fd5b506104b1610c3d36600461991c565b61016c6020526000908152604090205481565b348015610c5c57600080fd5b50610509614833565b348015610c7157600080fd5b506104b1610c803660046194e9565b614843565b348015610c9157600080fd5b506104e4610ca03660046194e9565b614875565b348015610cb157600080fd5b506105b0610cc03660046199b5565b6149ec565b348015610cd157600080fd5b506104e4610ce03660046199da565b614d44565b348015610cf157600080fd5b50610558610d0036600461950b565b614f10565b348015610d1157600080fd5b506104e4610d2036600461991c565b614f3b565b348015610d3157600080fd5b506105b0610d403660046199ff565b614fe8565b348015610d5157600080fd5b506104b1610d6036600461950b565b614ff3565b348015610d7157600080fd5b50610909610d8036600461950b565b615280565b348015610d9157600080fd5b506105b0610da0366004619a2d565b61551c565b348015610db157600080fd5b50610909610dc036600461950b565b615613565b348015610dd157600080fd5b506104b1610de036600461950b565b61016b6020526000908152604090205481565b348015610dff57600080fd5b506105b06158c9565b348015610e1457600080fd5b506105b0610e23366004619a7d565b615949565b348015610e3457600080fd5b506104e4610e4336600461950b565b615981565b348015610e5457600080fd5b506105b0610e6336600461991c565b615ccc565b348015610e7457600080fd5b50610509610e8336600461950b565b615df9565b348015610e9457600080fd5b506104b1610ea336600461991c565b6101666020526000908152604090205481565b348015610ec257600080fd5b506104e4610ed136600461941a565b615e6c565b348015610ee257600080fd5b506105b0610ef1366004619ae9565b615ed0565b348015610f0257600080fd5b506104b1610f1136600461950b565b6162dd565b348015610f2257600080fd5b506104b1610f3136600461950b565b616658565b348015610f4257600080fd5b506104b1610f5136600461991c565b6101656020526000908152604090205481565b348015610f7057600080fd5b506105b0610f7f36600461950b565b6168e0565b348015610f9057600080fd5b506104e4610f9f36600461941a565b6001600160a01b0391821660009081526101336020908152604080832093909416825291909152205460ff1690565b348015610fda57600080fd5b50610fee610fe936600461991c565b616c96565b6040516104bb9190619b38565b34801561100757600080fd5b506104e461101636600461991c565b616e20565b34801561102757600080fd5b506105b061103636600461991c565b616e83565b34801561104757600080fd5b506105b061105636600461950b565b616f12565b34801561106757600080fd5b506105b0616f55565b60006001600160e01b031982166380ac58cd60e01b14806110a157506001600160e01b03198216635b5e139f60e01b145b806110bc57506301ffc9a760e01b6001600160e01b03198316145b92915050565b606061012e80546110d290619bb8565b80601f01602080910402602001604051908101604052809291908181526020018280546110fe90619bb8565b801561114b5780601f106111205761010080835404028352916020019161114b565b820191906000526020600020905b81548152906001019060200180831161112e57829003601f168201915b5050505050905090565b600061116082616f8c565b50600090815261013260205260409020546001600160a01b031690565b60006111888261359a565b9050806001600160a01b0316836001600160a01b0316036111fa5760405162461bcd60e51b815260206004820152602160248201527f4552433732313a20617070726f76616c20746f2063757272656e74206f776e656044820152603960f91b60648201526084015b60405180910390fd5b336001600160a01b038216148061121657506112168133610f9f565b6112885760405162461bcd60e51b815260206004820152603d60248201527f4552433732313a20617070726f76652063616c6c6572206973206e6f7420746f60448201527f6b656e206f776e6572206f7220617070726f76656420666f7220616c6c00000060648201526084016111f1565b6112928383616fec565b505050565b60006112a3828461705b565b9392505050565b60006112b4617067565b6112be33836170c0565b6113005760405162461bcd60e51b815260206004820152601360248201527239b2b73232b91034b9903737ba1037bbb732b960691b60448201526064016111f1565b600082815261016360205260409020805461131e62093a8042619c08565b600683015561133062093a8042619c08565b61133d906203f480619c08565b6007830155600182015460405190815281907fb3b9c925de3673837b40c6b4d4463a8f88dc821cd27e07f1ff6bf6abf96413a59060200160405180910390a260019250505061138c600160ca55565b919050565b60008181526101636020908152604080832081516101008101835281548152600182015493810184905260028201549281019290925260038101546060830181905260048201546080840152600582015460a0840152600682015460c084015260079091015460e08301529192908190819061140c87612773565b50608083015160c09093015197999698509691959194509092505050565b610162818154811061143b57600080fd5b60009182526020918290206040805161010081018252601790930290910180546001600160a01b03808216855260ff600160a01b8304169585019590955261ffff600160a81b9091041691830191909152600181015490921660608201526002820180549293509091839160808401916114b490619bb8565b80601f01602080910402602001604051908101604052809291908181526020018280546114e090619bb8565b801561152d5780601f106115025761010080835404028352916020019161152d565b820191906000526020600020905b81548152906001019060200180831161151057829003601f168201915b50505091835250506003820154602080830191909152600483015460408084019190915260059093015460609283015282518084018452600686015481526007860154818301528351808501855260088701548152600987015481840152845160808082018752600a8901548252600b89015482860152600c89015482880152600d89015460ff1615158287015286519081018752600e890180548252600f8a01548287015260108a01548289015260118a018054895181890281018901909a52808a52999a959994989397959692959194918601939290919083018282801561163657602002820191906000526020600020905b815481526020019060010190808311611622575b5050509190925250506040805160608101825260128501546001600160a01b031681526013850154602082015260148501549181019190915260158401546016909401549293909290915060ff1688565b61169c6001600160a01b03831633308461713f565b5033600090815261016c6020526040812054908190036116ea576001600160a01b03831660009081526101676020526040812080548492906116df908490619c08565b909155506112929050565b60008060006116f9848661410e565b92509250925061170a8187846171ad565b6001600160a01b0386166000908152610167602052604081208054859290611733908490619c08565b9091555050505050505050565b600080610162838154811061175757611757619c1b565b6000918252602090912060408051610200810190915260179092020180546001600160a01b038082166101008501908152600160a01b830460ff16610120860152600160a81b90920461ffff166101408501526001830154166101608401526002820180548492918491610180850191906117d190619bb8565b80601f01602080910402602001604051908101604052809291908181526020018280546117fd90619bb8565b801561184a5780601f1061181f5761010080835404028352916020019161184a565b820191906000526020600020905b81548152906001019060200180831161182d57829003601f168201915b505050918352505060038201546020808301919091526004830154604080840191909152600590930154606092830152928452815180830183526006860154815260078601548185015284840152815180830183526008860154815260098601548185015284830152815160808082018452600a8701548252600b87015482860152600c87015482850152600d87015460ff161515828401528583019190915282518082018452600e870180548252600f8801548287015260108801548286015260118801805486518189028101890190975280875293909701969195909493860193929083018282801561195e57602002820191906000526020600020905b81548152602001906001019080831161194a575b505050919092525050508152604080516060808201835260128501546001600160a01b0316825260138501546020838101919091526014860154838501528085019290925260158501549284019290925260169093015460ff161515910152818101519081015190519192506112a391619c08565b6119dd33826170c0565b6119f95760405162461bcd60e51b81526004016111f190619c31565b6112928383836171fe565b6000611a0e617370565b6001600160a01b038416600090815261016d602052604090205460ff161515831514611a755760405162461bcd60e51b81526020600482015260166024820152751b9bc818da185b99d9481d1bc81dda1a5d195b1a5cdd60521b60448201526064016111f1565b6001600160a01b038416600081815261016d6020526040808220805460ff191687151590811790915590519092917f99795d51e5a8804307721456a7a9c2f0d7421f719d46a46d36e91fee7c85aa7691a38215611b2d5761016e8054600181019091557ff82fbbf6ecba5c6bca8ffdb165c351ca78f1011f756f9b1202212482fd7d83130180546001600160a01b0319166001600160a01b038616908117909155600090815261016f60205260409020829055611c41565b61016e5460005b81811015611c3e57600061016e8281548110611b5257611b52619c1b565b6000918252602090912001546001600160a01b03908116915087168103611c2d5761016e611b81600185619c7e565b81548110611b9157611b91619c1b565b60009182526020909120015461016e80546001600160a01b039092169184908110611bbe57611bbe619c1b565b9060005260206000200160006101000a8154816001600160a01b0302191690836001600160a01b0316021790555061016e805480611bfe57611bfe619c91565b600082815260209020810160001990810180546001600160a01b031916905501905550600192506112a3915050565b50611c3781619ca7565b9050611b34565b50505b5060019392505050565b6000611c55617067565b611c5d617370565b611c688260006173ca565b50600161138c600160ca55565b611c7d617067565b60006101628681548110611c9357611c93619c1b565b60009182526020909120601790910201601681015490915060ff16158015611cbd57506003810154155b611d095760405162461bcd60e51b815260206004820152601860248201527f506f6f6c20616c726561647920696e697469616c697a6564000000000000000060448201526064016111f1565b60008461ffff16118015611d2357506127108461ffff1611155b611d625760405162461bcd60e51b815260206004820152601060248201526f415059206f7574206f662072616e676560801b60448201526064016111f1565b8054611d7990600160a01b900460ff16600a619da4565b611d85906103e8619db3565b8510158015611db757508054611da690600160a01b900460ff16600a619da4565b611db39062989680619db3565b8511155b611dfb5760405162461bcd60e51b8152602060048201526015602482015274506f6f6c20636170206f7574206f662072616e676560581b60448201526064016111f1565b60018101546001600160a01b03163314611e275760405162461bcd60e51b81526004016111f190619dca565b6000611e37868661ffff166140aa565b90506000612710611e4a6103e884619db3565b611e549190619e08565b90506000611e61896135fb565b9050611e853330611e72868a619c08565b87546001600160a01b031692919061713f565b5085846006016000016000828254611e9d9190619c08565b909155505060038401889055835461ffff60a81b1916600160a81b61ffff89160217845560168401805460ff1916600117905560088401839055611ee18284619c7e565b6009850155611ef48961ffff891661754e565b845115611f0857611f068986886175a5565b505b6000611f138a6135fb565b60408051848152602081018390529192508b9160008051602061a237833981519152910160405180910390a25050505050611f4e600160ca55565b5050505050565b6000611f5f617370565b6001600160a01b038716600090815261016d602052604090205460ff16611fc05760405162461bcd60e51b81526020600482015260156024820152741d1bdad95b881b9bdd081dda1a5d195b1a5cdd1959605a1b60448201526064016111f1565b61138883111561200a5760405162461bcd60e51b81526020600482015260156024820152740e4cacccae4e4c2d840cccaca40e8dede40d0d2ced605b1b60448201526064016111f1565b60408051600481526024810182526020810180516001600160e01b031663313ce56760e01b17905290516000916001600160a01b038a169161204c9190619e2a565b600060405180830381855afa9150503d8060008114612087576040519150601f19603f3d011682016040523d82523d6000602084013e61208c565b606091505b509150506000818060200190518101906120a69190619e46565b905060068160ff1610156120f55760405162461bcd60e51b815260206004820152601660248201527524b73b30b634b2103232b1b4b6b0b6103932ba3ab93760511b60448201526064016111f1565b6120fd619217565b80516001600160a01b03808c16909152815160ff80851660209283015283518c8416606091820152845160809081018d905260a0860180518d87169052805185018c90525160409081018b905261016280546001810182556000919091528751805160179092027f29af0939a5988989bfee913a9ad10b9335cb63ebc9fd2b69e5f877d0455ac91981018054988301519483015161ffff16600160a81b0261ffff60a81b1995909816600160a01b026001600160a81b0319909916938a16939093179790971792909216949094178455918201517f29af0939a5988989bfee913a9ad10b9335cb63ebc9fd2b69e5f877d0455ac91a85018054919096166001600160a01b03199190911617909455928301518493919283917f29af0939a5988989bfee913a9ad10b9335cb63ebc9fd2b69e5f877d0455ac91b909101906122449082619eb7565b5060a0820151600382015560c0820151600482015560e0909101516005909101556020828101518051600684015581015160078301556040808401518051600885015582015160098401556060808501518051600a86015580840151600b86015580830151600c860155810151600d8501805460ff191691151591909117905560808501518051600e860190815581850151600f87015592810151601086015590810151805191936122fe92601187019290910190619342565b50505060a082015180516012830180546001600160a01b0319166001600160a01b039092169190911790556020810151601383015560400151601482015560c0820151601582015560e0909101516016909101805460ff19169115159190911790556101625461237090600190619c7e565b9a9950505050505050505050565b612386617370565b61016980546001600160a01b0319166001600160a01b0392909216919091179055565b6001600160a01b037f00000000000000000000000000000000000000000000000000000000000000001630036123f15760405162461bcd60e51b81526004016111f190619f77565b7f00000000000000000000000000000000000000000000000000000000000000006001600160a01b031661243a60008051602061a257833981519152546001600160a01b031690565b6001600160a01b0316146124605760405162461bcd60e51b81526004016111f190619fc3565b612469816176e2565b60408051600080825260208201909252612485918391906176ea565b50565b600080610162838154811061249f5761249f619c1b565b6000918252602090912060408051610200810190915260179092020180546001600160a01b038082166101008501908152600160a01b830460ff16610120860152600160a81b90920461ffff1661014085015260018301541661016084015260028201805484929184916101808501919061251990619bb8565b80601f016020809104026020016040519081016040528092919081815260200182805461254590619bb8565b80156125925780601f1061256757610100808354040283529160200191612592565b820191906000526020600020905b81548152906001019060200180831161257557829003601f168201915b505050918352505060038201546020808301919091526004830154604080840191909152600590930154606092830152928452815180830183526006860154815260078601548185015284840152815180830183526008860154815260098601548185015284830152815160808082018452600a8701548252600b87015482860152600c87015482850152600d87015460ff161515828401528583019190915282518082018452600e870180548252600f880154828701526010880154828601526011880180548651818902810189019097528087529390970196919590949386019392908301828280156126a657602002820191906000526020600020905b815481526020019060010190808311612692575b505050919092525050508152604080516060808201835260128501546001600160a01b03168252601385015460208381019190915260148601548385015284019190915260158401549183019190915260169092015460ff1615159101525160a001519392505050565b61016e54600090815b8181101561276a57600061016e828154811061273757612737619c1b565b6000918252602090912001546001600160a01b0316905061275781614f3b565b50508061276390619ca7565b9050612719565b50600191505090565b60008181526101636020908152604080832081516101008101835281548082526001830154948201949094526002820154928101929092526003810154606083015260048101546080830152600581015460a0830152600681015460c08301526007015460e0820152610162805484938493929091849190839081106127fb576127fb619c1b565b6000918252602090912060408051610200810190915260179092020180546001600160a01b038082166101008501908152600160a01b830460ff16610120860152600160a81b90920461ffff1661014085015260018301541661016084015260028201805484929184916101808501919061287590619bb8565b80601f01602080910402602001604051908101604052809291908181526020018280546128a190619bb8565b80156128ee5780601f106128c3576101008083540402835291602001916128ee565b820191906000526020600020905b8154815290600101906020018083116128d157829003601f168201915b505050918352505060038201546020808301919091526004830154604080840191909152600590930154606092830152928452815180830183526006860154815260078601548185015284840152815180830183526008860154815260098601548185015284830152815160808082018452600a8701548252600b87015482860152600c87015482850152600d87015460ff161515828401528583019190915282518082018452600e870180548252600f88015482870152601088015482860152601188018054865181890281018901909752808752939097019691959094938601939290830182828015612a0257602002820191906000526020600020905b8154815260200190600101908083116129ee575b505050919092525050508152604080516060808201835260128501546001600160a01b03168252601385015460208381019190915260148601548385015284019190915260158401549183019190915260169092015460ff16151591015260c08101519091506000908103612a775742612a7d565b8160c001515b90506000612a8f8560a0015183611297565b90506301e133808161271087606001518860200151612aae9190619db3565b612ab89190619e08565b612ac29190619db3565b612acc9190619e08565b9550846080015186612ade9190619c08565b9750612710612aef6103e882619c7e565b612af9908a619db3565b612b039190619e08565b965050505050509193909250565b600080600080612b20856140e0565b9350612b2b85616658565b9150612b3685614ff3565b9250612b4185612488565b90509193509193565b61129283838360405180602001604052806000815250615949565b6001600160a01b037f0000000000000000000000000000000000000000000000000000000000000000163003612bad5760405162461bcd60e51b81526004016111f190619f77565b7f00000000000000000000000000000000000000000000000000000000000000006001600160a01b0316612bf660008051602061a257833981519152546001600160a01b031690565b6001600160a01b031614612c1c5760405162461bcd60e51b81526004016111f190619fc3565b612c25826176e2565b612c31828260016176ea565b5050565b6000806101628581548110612c4c57612c4c619c1b565b6000918252602090912060408051610200810190915260179092020180546001600160a01b038082166101008501908152600160a01b830460ff16610120860152600160a81b90920461ffff16610140850152600183015416610160840152600282018054849291849161018085019190612cc690619bb8565b80601f0160208091040260200160405190810160405280929190818152602001828054612cf290619bb8565b8015612d3f5780601f10612d1457610100808354040283529160200191612d3f565b820191906000526020600020905b815481529060010190602001808311612d2257829003601f168201915b505050918352505060038201546020808301919091526004830154604080840191909152600590930154606092830152928452815180830183526006860154815260078601548185015284840152815180830183526008860154815260098601548185015284830152815160808082018452600a8701548252600b87015482860152600c87015482850152600d87015460ff161515828401528583019190915282518082018452600e870180548252600f88015482870152601088015482860152601188018054865181890281018901909752808752939097019691959094938601939290830182828015612e5357602002820191906000526020600020905b815481526020019060010190808311612e3f575b505050919092525050508152604080516060808201835260128501546001600160a01b03168252601385015460208381019190915260148601548385015284019190915260158401549183019190915260169092015460ff1615159101529050826000612ec08787617855565b5090506000612ecf8383619c08565b90506000612ede826021619db3565b612ef090674563918244f40000619c08565b90506000612eff856021619db3565b612f1190674563918244f40000619c08565b90506000612f26612f21846178b2565b6178fb565b90506000612f36612f21846178b2565b90506000612f74612f4760216178b2565b612f6e612f548686617933565b612f686a295be96e640669720000006178b2565b90617942565b90617951565b90506000612f8588620f4240619db3565b612f8f9083619e08565b8a5160e00151909150670de0b6b3a7640000612fab8284619db3565b612fb59190619e08565b9f9e505050505050505050505050505050565b6000306001600160a01b037f000000000000000000000000000000000000000000000000000000000000000016146130685760405162461bcd60e51b815260206004820152603860248201527f555550535570677261646561626c653a206d757374206e6f742062652063616c60448201527f6c6564207468726f7567682064656c656761746563616c6c000000000000000060648201526084016111f1565b5060008051602061a25783398151915290565b600080610162848154811061309257613092619c1b565b90600052602060002090601702019050826130ac85611740565b10156130fa5760405162461bcd60e51b815260206004820152601a60248201527f416d6f756e7420626967676572207468616e206465706f73697400000000000060448201526064016111f1565b60018101546001600160a01b031633146131265760405162461bcd60e51b81526004016111f190619dca565b61313362093a8042619c08565b600a82015561314562093a8042619c08565b613152906203f480619c08565b600b820155600c8101839055600d8101805460ff1916905560405183815284907fb3b9c925de3673837b40c6b4d4463a8f88dc821cd27e07f1ff6bf6abf96413a59060200160405180910390a25060019392505050565b60008061016284815481106131c0576131c0619c1b565b6000918252602090912060408051610200810190915260179092020180546001600160a01b038082166101008501908152600160a01b830460ff16610120860152600160a81b90920461ffff1661014085015260018301541661016084015260028201805484929184916101808501919061323a90619bb8565b80601f016020809104026020016040519081016040528092919081815260200182805461326690619bb8565b80156132b35780601f10613288576101008083540402835291602001916132b3565b820191906000526020600020905b81548152906001019060200180831161329657829003601f168201915b505050918352505060038201546020808301919091526004830154604080840191909152600590930154606092830152928452815180830183526006860154815260078601548185015284840152815180830183526008860154815260098601548185015284830152815160808082018452600a8701548252600b87015482860152600c87015482850152600d87015460ff161515828401528583019190915282518082018452600e870180548252600f880154828701526010880154828601526011880180548651818902810189019097528087529390970196919590949386019392908301828280156133c757602002820191906000526020600020905b8154815260200190600101908083116133b3575b505050919092525050508152604080516060808201835260128501546001600160a01b03168252601385015460208381019190915260148601548385015284019190915260158401549183019190915260169092015460ff161515910152608081015151909150600061343a8686617855565b50905060006134498383619c08565b90506000613458826021619db3565b61346a90674563918244f40000619c08565b90506000613479856021619db3565b61348b90674563918244f40000619c08565b9050600061349b612f21846178b2565b905060006134ab612f21846178b2565b905060006134bc612f4760216178b2565b905060006134cd88620f4240619db3565b6134d79083619e08565b8a5160e00151909150670de0b6b3a76400006134f38284619db3565b6134fd9190619e08565b9e9d5050505050505050505050505050565b613517617370565b6000610162838154811061352d5761352d619c1b565b90600052602060002090601702019050806012016002015482116135935760405162461bcd60e51b815260206004820152601860248201527f63616e206f6e6c7920657874656e6420656e642074696d65000000000000000060448201526064016111f1565b6014015550565b600081815261013060205260408120546001600160a01b0316806110bc5760405162461bcd60e51b8152602060048201526018602482015277115490cdcc8c4e881a5b9d985b1a59081d1bdad95b88125160421b60448201526064016111f1565b600080610162838154811061361257613612619c1b565b6000918252602090912060408051610200810190915260179092020180546001600160a01b038082166101008501908152600160a01b830460ff16610120860152600160a81b90920461ffff1661014085015260018301541661016084015260028201805484929184916101808501919061368c90619bb8565b80601f01602080910402602001604051908101604052809291908181526020018280546136b890619bb8565b80156137055780601f106136da57610100808354040283529160200191613705565b820191906000526020600020905b8154815290600101906020018083116136e857829003601f168201915b505050918352505060038201546020808301919091526004830154604080840191909152600590930154606092830152928452815180830183526006860154815260078601548185015284840152815180830183526008860154815260098601548185015284830152815160808082018452600a8701548252600b87015482860152600c87015482850152600d87015460ff161515828401528583019190915282518082018452600e870180548252600f8801548287015260108801548286015260118801805486518189028101890190975280875293909701969195909493860193929083018282801561381957602002820191906000526020600020905b815481526020019060010190808311613805575b505050919092525050508152604080516060808201835260128501546001600160a01b03168252601385015460208381019190915260148601548385015284019190915260158401549183019190915260169092015460ff161515910152905061388283611740565b815160c001516112a39190619c08565b60006001600160a01b0382166138fc5760405162461bcd60e51b815260206004820152602960248201527f4552433732313a2061646472657373207a65726f206973206e6f7420612076616044820152683634b21037bbb732b960b91b60648201526084016111f1565b506001600160a01b03166000908152610131602052604090205490565b6001600160a01b0381166000908152610165602090815260408083205461016783528184205461016690935290832054909190816139578483619c08565b6139619190619c08565b93509193509193565b6101625460005b81811015612c31576139828161440d565b61398b81619ca7565b9050613971565b600061399c617067565b82600061016282815481106139b3576139b3619c1b565b6000918252602090912060408051610200810190915260179092020180546001600160a01b038082166101008501908152600160a01b830460ff16610120860152600160a81b90920461ffff16610140850152600183015416610160840152600282018054849291849161018085019190613a2d90619bb8565b80601f0160208091040260200160405190810160405280929190818152602001828054613a5990619bb8565b8015613aa65780601f10613a7b57610100808354040283529160200191613aa6565b820191906000526020600020905b815481529060010190602001808311613a8957829003601f168201915b505050918352505060038201546020808301919091526004830154604080840191909152600590930154606092830152928452815180830183526006860154815260078601548185015284840152815180830183526008860154815260098601548185015284830152815160808082018452600a8701548252600b87015482860152600c87015482850152600d87015460ff161515828401528583019190915282518082018452600e870180548252600f88015482870152601088015482860152601188018054865181890281018901909752808752939097019691959094938601939290830182828015613bba57602002820191906000526020600020905b815481526020019060010190808311613ba6575b505050919092525050508152604080516060808201835260128501546001600160a01b03168252601385015460208381019190915260148601548385015284019190915260158401549183019190915260169092015460ff16151591015260e0810151909150613c5e5760405162461bcd60e51b815260206004820152600f60248201526e706f6f6c206e6f742061637469766560881b60448201526064016111f1565b60006101628681548110613c7457613c74619c1b565b60009182526020808320601790920290910180546001600160a01b0316835261016f909152604090912054909150851015613ce55760405162461bcd60e51b8152602060048201526011602482015270135a5b881cdd185ad9481b9bdd081b595d607a1b60448201526064016111f1565b6000613cf0876135fb565b8254909150613d0a906001600160a01b031633308961713f565b506000613d18883389617969565b905086836000016004016000828254613d319190619c08565b9091555050600383015460048401541115613d845760405162461bcd60e51b8152602060048201526013602482015272115e18d959591959081c1bdbdb081b1a5b5a5d606a1b60448201526064016111f1565b604051878152889033907f1449c6dd7851abc30abf37f57715f492010519147cc2652fbc38202c18a6ee909060200160405180910390a36000613dc6896135fb565b60408051858152602081018390529192508a9160008051602061a237833981519152910160405180910390a2509450505050506110bc600160ca55565b6000806101628381548110613e1a57613e1a619c1b565b6000918252602090912060408051610200810190915260179092020180546001600160a01b038082166101008501908152600160a01b830460ff16610120860152600160a81b90920461ffff16610140850152600183015416610160840152600282018054849291849161018085019190613e9490619bb8565b80601f0160208091040260200160405190810160405280929190818152602001828054613ec090619bb8565b8015613f0d5780601f10613ee257610100808354040283529160200191613f0d565b820191906000526020600020905b815481529060010190602001808311613ef057829003601f168201915b505050918352505060038201546020808301919091526004830154604080840191909152600590930154606092830152928452815180830183526006860154815260078601548185015284840152815180830183526008860154815260098601548185015284830152815160808082018452600a8701548252600b87015482860152600c87015482850152600d87015460ff161515828401528583019190915282518082018452600e870180548252600f8801548287015260108801548286015260118801805486518189028101890190975280875293909701969195909493860193929083018282801561402157602002820191906000526020600020905b81548152602001906001019080831161400d575b505050919092525050508152604080516060808201835260128501546001600160a01b03168252601385015460208381019190915260148601548385015284019190915260158401549183019190915260169092015460ff161515910152608081015151815160e001519192509061409882617b8a565b6140a29190619db3565b949350505050565b60006301e1338061271062093a806140c28587619db3565b6140cc9190619db3565b6140d69190619e08565b6112a39190619e08565b60006127106140f16103e882619c7e565b6140fa846135fb565b6141049190619db3565b6110bc9190619e08565b600080600080610162868154811061412857614128619c1b565b6000918252602090912060408051610200810190915260179092020180546001600160a01b038082166101008501908152600160a01b830460ff16610120860152600160a81b90920461ffff166101408501526001830154166101608401526002820180548492918491610180850191906141a290619bb8565b80601f01602080910402602001604051908101604052809291908181526020018280546141ce90619bb8565b801561421b5780601f106141f05761010080835404028352916020019161421b565b820191906000526020600020905b8154815290600101906020018083116141fe57829003601f168201915b505050918352505060038201546020808301919091526004830154604080840191909152600590930154606092830152928452815180830183526006860154815260078601548185015284840152815180830183526008860154815260098601548185015284830152815160808082018452600a8701548252600b87015482860152600c87015482850152600d87015460ff161515828401528583019190915282518082018452600e870180548252600f8801548287015260108801548286015260118801805486518189028101890190975280875293909701969195909493860193929083018282801561432f57602002820191906000526020600020905b81548152602001906001019080831161431b575b505050919092525050508152604080516060808201835260128501546001600160a01b039081168352601386015460208481019190915260148701548486015285019290925260158501548385015260169094015460ff161515939092019290925260a08301518051920151929350909190821615806143ae57504281105b156143c457508594506000935091506144069050565b60006127108460a0015160200151896143dd9190619db3565b6143e79190619e08565b905060006143f5828a619c7e565b975090955091935061440692505050565b9250925092565b6000610162828154811061442357614423619c1b565b6000918252602090912060408051610200810190915260179092020180546001600160a01b038082166101008501908152600160a01b830460ff16610120860152600160a81b90920461ffff1661014085015260018301541661016084015260028201805484929184916101808501919061449d90619bb8565b80601f01602080910402602001604051908101604052809291908181526020018280546144c990619bb8565b80156145165780601f106144eb57610100808354040283529160200191614516565b820191906000526020600020905b8154815290600101906020018083116144f957829003601f168201915b505050918352505060038201546020808301919091526004830154604080840191909152600590930154606092830152928452815180830183526006860154815260078601548185015284840152815180830183526008860154815260098601548185015284830152815160808082018452600a8701548252600b87015482860152600c87015482850152600d87015460ff161515828401528583019190915282518082018452600e870180548252600f8801548287015260108801548286015260118801805486518189028101890190975280875293909701969195909493860193929083018282801561462a57602002820191906000526020600020905b815481526020019060010190808311614616575b505050919092525050508152604080516060808201835260128501546001600160a01b03168252601385015460208381019190915260148601548385015284019190915260158401549183019190915260169092015460ff16151590820152608082015101518051919250908015806146a557508260e00151155b156146b05750505050565b60005b818110156146ed576146dd8382815181106146d0576146d0619c1b565b6020026020010151617bdf565b6146e681619ca7565b90506146b3565b506000848152610164602090815260408083208054825181850281018501909352808352919290919083018282801561474557602002820191906000526020600020905b815481526020019060010190808311614731575b5050835193945060009250829150505b828110156147cb57600084828151811061477157614771619c1b565b602090810291909101810151600081815261016390925260409091206001810154919250906147a18b8287612c35565b600383015560028201546147b59086619c08565b9450505050806147c490619ca7565b9050614755565b508061016288815481106147e1576147e1619c1b565b600091825260209091206010601790920201015561016280548890811061480a5761480a619c1b565b9060005260206000209060170201600e01600301600061482a919061938d565b50505050505050565b606061012f80546110d290619bb8565b610164602052816000526040600020818154811061486057600080fd5b90600052602060002001600091509150505481565b600061487f617067565b6000610162848154811061489557614895619c1b565b6000918252602090912060179091020160018101549091506001600160a01b031633146148d45760405162461bcd60e51b81526004016111f190619dca565b600a810154421180156148ea5750600b81015442105b80156148fb5750600d81015460ff16155b801561490b5750600c8101548311155b801561491a5750600a81015415155b6149365760405162461bcd60e51b81526004016111f19061a00f565b600d8101805460ff19166001179055600681015483111561495c5761495a84617dfc565b505b6000614967856135fb565b9050838260060160000160008282546149809190619c7e565b9091555050600182015482546149a3916001600160a01b03918216911686617f61565b5060006149af866135fb565b6040805184815260208101839052919250879160008051602061a237833981519152910160405180910390a2600193505050506110bc600160ca55565b8160006101628281548110614a0357614a03619c1b565b6000918252602090912060408051610200810190915260179092020180546001600160a01b038082166101008501908152600160a01b830460ff16610120860152600160a81b90920461ffff16610140850152600183015416610160840152600282018054849291849161018085019190614a7d90619bb8565b80601f0160208091040260200160405190810160405280929190818152602001828054614aa990619bb8565b8015614af65780601f10614acb57610100808354040283529160200191614af6565b820191906000526020600020905b815481529060010190602001808311614ad957829003601f168201915b505050918352505060038201546020808301919091526004830154604080840191909152600590930154606092830152928452815180830183526006860154815260078601548185015284840152815180830183526008860154815260098601548185015284830152815160808082018452600a8701548252600b87015482860152600c87015482850152600d87015460ff161515828401528583019190915282518082018452600e870180548252600f88015482870152601088015482860152601188018054865181890281018901909752808752939097019691959094938601939290830182828015614c0a57602002820191906000526020600020905b815481526020019060010190808311614bf6575b505050919092525050508152604080516060808201835260128501546001600160a01b039081168352601386015460208085019190915260148701548486015285019290925260158501549284019290925260169093015460ff161515918101919091528251015191925016331480614c8d57506033546001600160a01b031633145b614ca95760405162461bcd60e51b81526004016111f190619dca565b6001600160a01b038316614cf85760405162461bcd60e51b8152602060048201526016602482015275496e76616c69642077616c6c6574206164647265737360501b60448201526064016111f1565b826101628581548110614d0d57614d0d619c1b565b6000918252602090912060179091020160010180546001600160a01b0319166001600160a01b039290921691909117905550505050565b6000614d4e617067565b614d5833846170c0565b614d9a5760405162461bcd60e51b815260206004820152601360248201527239b2b73232b91034b9903737ba1037bbb732b960691b60448201526064016111f1565b600083815261016360205260408120805461016280549293919283908110614dc457614dc4619c1b565b90600052602060002090601702019050428360060154108015614dea5750428360070154115b614e065760405162461bcd60e51b81526004016111f19061a00f565b614e108686617f94565b600183018054600091829055600685018290556007850182905590614e34846135fb565b90508615614e4557614e45886180ce565b8115614e77576004830154614e5a908361705b565b60048401558254614e75906001600160a01b03163384617f61565b505b604051828152849033907f7fc4727e062e336010f2c282598ef5f14facb3de68cf8195c2f23e1454b2b74e9060200160405180910390a36000614eb9856135fb565b6040805184815260208101839052919250869160008051602061a237833981519152910160405180910390a25050506011018054600181810183556000928352602090922001869055925050506110bc600160ca55565b61016e8181548110614f2157600080fd5b6000918252602090912001546001600160a01b0316905081565b6000614f45617067565b336000908152610168602090815260408083206001600160a01b03861684529091529020548015614fd957336000818152610168602090815260408083206001600160a01b0388168085529252822091909155614fa29183617f61565b5060405181815233907fbf7aaef98dccc47249def450ef0fd30757d553648a28fa7cd56e3b2b052724949060200160405180910390a25b600191505061138c600160ca55565b612c31338383618172565b600080610162838154811061500a5761500a619c1b565b6000918252602090912060408051610200810190915260179092020180546001600160a01b038082166101008501908152600160a01b830460ff16610120860152600160a81b90920461ffff1661014085015260018301541661016084015260028201805484929184916101808501919061508490619bb8565b80601f01602080910402602001604051908101604052809291908181526020018280546150b090619bb8565b80156150fd5780601f106150d2576101008083540402835291602001916150fd565b820191906000526020600020905b8154815290600101906020018083116150e057829003601f168201915b505050918352505060038201546020808301919091526004830154604080840191909152600590930154606092830152928452815180830183526006860154815260078601548185015284840152815180830183526008860154815260098601548185015284830152815160808082018452600a8701548252600b87015482860152600c87015482850152600d87015460ff161515828401528583019190915282518082018452600e870180548252600f8801548287015260108801548286015260118801805486518189028101890190975280875293909701969195909493860193929083018282801561521157602002820191906000526020600020905b8154815260200190600101908083116151fd575b505050919092525050508152604080516060808201835260128501546001600160a01b03168252601385015460208381019190915260148601548385015284019190915260158401548284015260169093015460ff16151592909101919091529051015161ffff169392505050565b600080600080610162858154811061529a5761529a619c1b565b6000918252602090912060408051610200810190915260179092020180546001600160a01b038082166101008501908152600160a01b830460ff16610120860152600160a81b90920461ffff1661014085015260018301541661016084015260028201805484929184916101808501919061531490619bb8565b80601f016020809104026020016040519081016040528092919081815260200182805461534090619bb8565b801561538d5780601f106153625761010080835404028352916020019161538d565b820191906000526020600020905b81548152906001019060200180831161537057829003601f168201915b505050918352505060038201546020808301919091526004830154604080840191909152600590930154606092830152928452815180830183526006860154815260078601548185015284840152815180830183526008860154815260098601548185015284830152815160808082018452600a8701548252600b87015482860152600c87015482850152600d87015460ff161515828401528583019190915282518082018452600e870180548252600f880154828701526010880154828601526011880180548651818902810189019097528087529390970196919590949386019392908301828280156154a157602002820191906000526020600020905b81548152602001906001019080831161548d575b505050919092525050508152604080516060808201835260128501546001600160a01b0316825260138501546020838101919091526014860154838501528085019290925260158501548385015260169094015460ff1615159284019290925292909101518051918101519201519097919650945092505050565b615524617067565b6000610162848154811061553a5761553a619c1b565b6000918252602090912060179091020160018101549091506001600160a01b031633146155795760405162461bcd60e51b81526004016111f190619dca565b6000615584856135fb565b825490915061559e906001600160a01b031633308761713f565b50838260060160000160008282546155b69190619c08565b90915550508251156155cf576155cd8584866175a5565b505b60006155da866135fb565b6040805184815260208101839052919250879160008051602061a237833981519152910160405180910390a2505050611292600160ca55565b600080600080610162858154811061562d5761562d619c1b565b6000918252602090912060408051610200810190915260179092020180546001600160a01b038082166101008501908152600160a01b830460ff16610120860152600160a81b90920461ffff166101408501526001830154166101608401526002820180548492918491610180850191906156a790619bb8565b80601f01602080910402602001604051908101604052809291908181526020018280546156d390619bb8565b80156157205780601f106156f557610100808354040283529160200191615720565b820191906000526020600020905b81548152906001019060200180831161570357829003601f168201915b505050918352505060038201546020808301919091526004830154604080840191909152600590930154606092830152928452815180830183526006860154815260078601548185015284840152815180830183526008860154815260098601548185015284830152815160808082018452600a8701548252600b87015482860152600c87015482850152600d87015460ff161515828401528583019190915282518082018452600e870180548252600f8801548287015260108801548286015260118801805486518189028101890190975280875293909701969195909493860193929083018282801561583457602002820191906000526020600020905b815481526020019060010190808311615820575b505050919092525050508152604080516060808201835260128501546001600160a01b03168252601385015460208381019190915260148601548385015284019190915260158401548284015260169093015460ff1615159290910191909152815160a08101519101519192506158ae9161ffff166140aa565b60409091015180516020909101519196909550909350915050565b6034546001600160a01b031633146159325760405162461bcd60e51b815260206004820152602660248201527f6f6e6c792070656e64696e67206f776e65722063616e2061636365707420747260448201526530b739b332b960d11b60648201526084016111f1565b603454615947906001600160a01b0316618241565b565b61595333836170c0565b61596f5760405162461bcd60e51b81526004016111f190619c31565b61597b8484848461829e565b50505050565b6000816000610162828154811061599a5761599a619c1b565b6000918252602090912060408051610200810190915260179092020180546001600160a01b038082166101008501908152600160a01b830460ff16610120860152600160a81b90920461ffff16610140850152600183015416610160840152600282018054849291849161018085019190615a1490619bb8565b80601f0160208091040260200160405190810160405280929190818152602001828054615a4090619bb8565b8015615a8d5780601f10615a6257610100808354040283529160200191615a8d565b820191906000526020600020905b815481529060010190602001808311615a7057829003601f168201915b505050918352505060038201546020808301919091526004830154604080840191909152600590930154606092830152928452815180830183526006860154815260078601548185015284840152815180830183526008860154815260098601548185015284830152815160808082018452600a8701548252600b87015482860152600c87015482850152600d87015460ff161515828401528583019190915282518082018452600e870180548252600f88015482870152601088015482860152601188018054865181890281018901909752808752939097019691959094938601939290830182828015615ba157602002820191906000526020600020905b815481526020019060010190808311615b8d575b505050919092525050508152604080516060808201835260128501546001600160a01b039081168352601386015460208085019190915260148701548486015285019290925260158501549284019290925260169093015460ff161515918101919091528251015191925016331480615c2457506033546001600160a01b031633145b615c405760405162461bcd60e51b81526004016111f190619dca565b60006101628581548110615c5657615c56619c1b565b60009182526020909120601790910201601681015490915060ff16615caf5760405162461bcd60e51b815260206004820152600f60248201526e506f6f6c206e6f742061637469766560881b60448201526064016111f1565b60168101805460ff19169055426015909101555060019392505050565b600054610100900460ff1615808015615cec5750600054600160ff909116105b80615d065750303b158015615d06575060005460ff166001145b615d695760405162461bcd60e51b815260206004820152602e60248201527f496e697469616c697a61626c653a20636f6e747261637420697320616c72656160448201526d191e481a5b9a5d1a585b1a5e995960921b60648201526084016111f1565b6000805460ff191660011790558015615d8c576000805461ff0019166101001790555b615d946182d1565b61016980546001600160a01b0319166001600160a01b0384161790558015612c31576000805461ff0019169055604051600181527f7f26b83ff96e1f2b6a682f133852f6798a09c465da95921460cefb38474024989060200160405180910390a15050565b6060615e0482616f8c565b6000615e1b60408051602081019091526000815290565b90506000815111615e3b57604051806020016040528060008152506112a3565b80615e4584618300565b604051602001615e5692919061a058565b6040516020818303038152906040529392505050565b6000615e76617370565b6000615e8184613919565b5050506001600160a01b0385166000818152610165602090815260408083208390556101668252808320839055610167909152812055909150615ec5908483617f61565b506001949350505050565b615ed8617370565b6127108261ffff161115615f205760405162461bcd60e51b815260206004820152600f60248201526e0a0c2f2deeae840e8dede40d0d2ced608b1b60448201526064016111f1565b6127108161ffff161115615f675760405162461bcd60e51b815260206004820152600e60248201526d084dedceae640e8dede40d0d2ced60931b60448201526064016111f1565b60006101628581548110615f7d57615f7d619c1b565b60009182526020822060046017909202019081015490925081615f9f886135fb565b90506000612710615fb461ffff891684619db3565b615fbe9190619e08565b60008a815261016460205260409020549091508382116160c457600084615fed670de0b6b3a764000085619db3565b615ff79190619e08565b905060005b828110156160bd5760008c81526101646020526040812080548390811061602557616025619c1b565b9060005260206000200154905061016360008281526020019081526020016000209750616053816000617f94565b6000670de0b6b3a7640000848a6001015461606e9190619db3565b6160789190619e08565b90508089600101600082825461608e9190619c7e565b909155505060048a0180548291906000906160aa908490619c7e565b909155505060019092019150615ffc9050565b50506161c1565b83821180156160d35750828211155b156161875760005b818110156161445760008b81526101646020526040812080548390811061610457616104619c1b565b9060005260206000200154905061016360008281526020019081526020016000209650616132816000617f94565b506000600180880191909155016160db565b50600060048701556161558a617dfc565b5060006161628584619c7e565b90508087600601600001600082825461617b9190619c7e565b909155506161c1915050565b60405162461bcd60e51b815260206004820152600f60248201526e082dadeeadce840e8dede40d0d2ced608b1b60448201526064016111f1565b60006127106161d461ffff8a1682619c7e565b6127106161e36103e887619db3565b6161ed9190619e08565b6161f79190619db3565b6162019190619e08565b905060008060006162128e8561410e565b8c5492955090935091506001600160a01b03166162308282856171ad565b6001600160a01b0381166000908152610165602052604081208054869290616259908490619c08565b9091555061627e90508e61626d878a619c7e565b6001600160a01b0384169190617f61565b50806001600160a01b03168e6001600160a01b03167fbcbf239e05ac65bcc1a5612cd36d392b0a0aa8c93e027bc86e72768748342488896040516162c491815260200190565b60405180910390a3505050505050505050505050505050565b60006162e7617067565b600061016283815481106162fd576162fd619c1b565b6000918252602090912060408051610200810190915260179092020180546001600160a01b038082166101008501908152600160a01b830460ff16610120860152600160a81b90920461ffff1661014085015260018301541661016084015260028201805484929184916101808501919061637790619bb8565b80601f01602080910402602001604051908101604052809291908181526020018280546163a390619bb8565b80156163f05780601f106163c5576101008083540402835291602001916163f0565b820191906000526020600020905b8154815290600101906020018083116163d357829003601f168201915b505050918352505060038201546020808301919091526004830154604080840191909152600590930154606092830152928452815180830183526006860154815260078601548185015284840152815180830183526008860154815260098601548185015284830152815160808082018452600a8701548252600b87015482860152600c87015482850152600d87015460ff161515828401528583019190915282518082018452600e870180548252600f8801548287015260108801548286015260118801805486518189028101890190975280875293909701969195909493860193929083018282801561650457602002820191906000526020600020905b8154815260200190600101908083116164f0575b505050919092525050508152604080516060808201835260128501546001600160a01b039081168352601386015460208085019190915260148701548486015285019290925260158501549284019290925260169093015460ff161515918101919091528251015191925016331461658e5760405162461bcd60e51b81526004016111f190619dca565b600083815261016b6020526040902054801561664c57600084815261016a602090815260408083208484528252808320548151633941ea2960e21b815291516001600160a01b0390911693849363e507a8a49360048082019492939183900301908290875af1158015616605573d6000803e3d6000fd5b505050506040513d601f19601f82011682018060405250810190616629919061a087565b835160608101519051919550616649916001600160a01b03169086617f61565b50505b505061138c600160ca55565b600080610162838154811061666f5761666f619c1b565b6000918252602090912060408051610200810190915260179092020180546001600160a01b038082166101008501908152600160a01b830460ff16610120860152600160a81b90920461ffff166101408501526001830154166101608401526002820180548492918491610180850191906166e990619bb8565b80601f016020809104026020016040519081016040528092919081815260200182805461671590619bb8565b80156167625780601f1061673757610100808354040283529160200191616762565b820191906000526020600020905b81548152906001019060200180831161674557829003601f168201915b505050918352505060038201546020808301919091526004830154604080840191909152600590930154606092830152928452815180830183526006860154815260078601548185015284840152815180830183526008860154815260098601548185015284830152815160808082018452600a8701548252600b87015482860152600c87015482850152600d87015460ff161515828401528583019190915282518082018452600e870180548252600f8801548287015260108801548286015260118801805486518189028101890190975280875293909701969195909493860193929083018282801561687657602002820191906000526020600020905b815481526020019060010190808311616862575b505050919092525050508152604080516060808201835260128501546001600160a01b03168252601385015460208381019190915260148601548385015284019190915260158401549183019190915260169092015460ff1615159101525160c001519392505050565b80600061016282815481106168f7576168f7619c1b565b6000918252602090912060408051610200810190915260179092020180546001600160a01b038082166101008501908152600160a01b830460ff16610120860152600160a81b90920461ffff1661014085015260018301541661016084015260028201805484929184916101808501919061697190619bb8565b80601f016020809104026020016040519081016040528092919081815260200182805461699d90619bb8565b80156169ea5780601f106169bf576101008083540402835291602001916169ea565b820191906000526020600020905b8154815290600101906020018083116169cd57829003601f168201915b505050918352505060038201546020808301919091526004830154604080840191909152600590930154606092830152928452815180830183526006860154815260078601548185015284840152815180830183526008860154815260098601548185015284830152815160808082018452600a8701548252600b87015482860152600c87015482850152600d87015460ff161515828401528583019190915282518082018452600e870180548252600f88015482870152601088015482860152601188018054865181890281018901909752808752939097019691959094938601939290830182828015616afe57602002820191906000526020600020905b815481526020019060010190808311616aea575b505050919092525050508152604080516060808201835260128501546001600160a01b039081168352601386015460208085019190915260148701548486015285019290925260158501549284019290925260169093015460ff161515918101919091528251015191925016331480616b8157506033546001600160a01b031633145b616b9d5760405162461bcd60e51b81526004016111f190619dca565b616ba5617067565b600083815261016b602090815260408083205461016a8352818420818552909252909120546001600160a01b03168015616c8a576000816001600160a01b031663f69e20466040518163ffffffff1660e01b81526004016020604051808303816000875af1158015616c1b573d6000803e3d6000fd5b505050506040513d601f19601f82011682018060405250810190616c3f919061a087565b9050616c4c600182619c7e565b6101628781548110616c6057616c60619c1b565b90600052602060002090601702016006016001016000828254616c839190619c08565b9091555050505b5050611292600160ca55565b6001600160a01b038116600090815261013560209081526040808320805482518185028101850190935280835260609493830182828015616cf657602002820191906000526020600020905b815481526020019060010190808311616ce2575b50508351939450839250505067ffffffffffffffff811115616d1a57616d1a619787565b604051908082528060200260200182016040528015616d5357816020015b616d406193ab565b815260200190600190039081616d385790505b50925060005b81811015616e18576101636000848381518110616d7857616d78619c1b565b602002602001015181526020019081526020016000206040518061010001604052908160008201548152602001600182015481526020016002820154815260200160038201548152602001600482015481526020016005820154815260200160068201548152602001600782015481525050848281518110616dfc57616dfc619c1b565b602002602001018190525080616e1190619ca7565b9050616d59565b505050919050565b6000616e2a617370565b61016e5460005b81811015611c4157600061016e8281548110616e4f57616e4f619c1b565b6000918252602090912001546001600160a01b03169050616e708186615e6c565b505080616e7c90619ca7565b9050616e31565b616e8b617370565b6001600160a01b038116616ef05760405162461bcd60e51b815260206004820152602660248201527f4f776e61626c653a206e6577206f776e657220697320746865207a65726f206160448201526564647265737360d01b60648201526084016111f1565b603480546001600160a01b0319166001600160a01b0392909216919091179055565b616f1a617067565b616f2433826170c0565b616f405760405162461bcd60e51b81526004016111f190619c31565b616f4b816001617f94565b612485600160ca55565b6101625460005b81811015612c3157616f6d816168e0565b616f7681619ca7565b9050616f5c565b6001600160a01b03163b151590565b600081815261013060205260409020546001600160a01b03166124855760405162461bcd60e51b8152602060048201526018602482015277115490cdcc8c4e881a5b9d985b1a59081d1bdad95b88125160421b60448201526064016111f1565b60008181526101326020526040902080546001600160a01b0319166001600160a01b03841690811790915581906170228261359a565b6001600160a01b03167f8c5be1e5ebec7d5bd14f71427d1e84f3dd0314c0f7b2291e5b200ac8c7c3b92560405160405180910390a45050565b60006112a38284619c7e565b600260ca54036170b95760405162461bcd60e51b815260206004820152601f60248201527f5265656e7472616e637947756172643a207265656e7472616e742063616c6c0060448201526064016111f1565b600260ca55565b6000806170cc8361359a565b9050806001600160a01b0316846001600160a01b0316148061711457506001600160a01b038082166000908152610133602090815260408083209388168352929052205460ff165b806140a25750836001600160a01b031661712d84611155565b6001600160a01b031614949350505050565b6040516001600160a01b0380851660248301528316604482015260648101829052600090615ec59086906323b872dd60e01b906084015b60408051601f198184030181529190526020810180516001600160e01b03166001600160e01b031990931692909217909152618391565b6001600160a01b03831615611292576001600160a01b03808416600090815261016860209081526040808320938616835292905290812080548392906171f4908490619c08565b9091555050505050565b826001600160a01b03166172118261359a565b6001600160a01b0316146172375760405162461bcd60e51b81526004016111f19061a0a0565b6001600160a01b0382166172995760405162461bcd60e51b8152602060048201526024808201527f4552433732313a207472616e7366657220746f20746865207a65726f206164646044820152637265737360e01b60648201526084016111f1565b6172a4838383618463565b826001600160a01b03166172b78261359a565b6001600160a01b0316146172dd5760405162461bcd60e51b81526004016111f19061a0a0565b60008181526101326020908152604080832080546001600160a01b03199081169091556001600160a01b03878116808652610131855283862080546000190190559087168086528386208054600101905586865261013090945282852080549092168417909155905184937fddf252ad1be2c89b69c2b068fc378daa952ba7f163c4a11628f55a4df523b3ef91a4505050565b6033546001600160a01b031633146159475760405162461bcd60e51b815260206004820181905260248201527f4f776e61626c653a2063616c6c6572206973206e6f7420746865206f776e657260448201526064016111f1565b600061016283815481106173e0576173e0619c1b565b6000918252602082206017919091020160088101546003820154825492945085926174169190600160a81b900461ffff166140aa565b6174209190619c7e565b61742a9190619c08565b6001830154835491925061744c916001600160a01b039081169116308461713f565b50808260080160000160008282546174649190619c08565b909155506000905061271061747b6103e884619db3565b6174859190619e08565b90506000806000617496888561410e565b885492955090935091506001600160a01b03166174b48282856171ad565b6001600160a01b03811660009081526101666020526040812080548692906174dd908490619c08565b90915550600090506174ef8688619c7e565b9050808860080160010160008282546175089190619c08565b90915550506040518781528a907fadb049ad2d09be3db90459a16aef1ad0a4d89e8fdcc1ade9429d6cc55abbcd2b9060200160405180910390a250505050505050505050565b6000670eb5e06245ea000061756b670de0b6b3a764000084619db3565b6175759190619e08565b905080610162848154811061758c5761758c619c1b565b6000918252602090912060056017909202010155505050565b60008061016285815481106175bc576175bc619c1b565b906000526020600020906017020190506000846040516020016175df91906194d6565b60408051601f198184030181529181528151602092830120600089815261016b9093529120549091508082146176d857600061761a88617dfc565b9050600061762889896184fa565b90506001600160a01b038116156176d55760068501805460009091558190617651600182619c7e565b6007880155865461766c906001600160a01b03168483617f61565b50816001600160a01b0316630b5090076040518163ffffffff1660e01b81526004016020604051808303816000875af11580156176ad573d6000803e3d6000fd5b505050506040513d601f19601f820116820180604052508101906176d1919061a087565b5050505b50505b5050509392505050565b612485617370565b7f4910fdfa16fed3260ed0e7147f7cc6da11a60208b5b9406d12a635614ffd91435460ff161561771d5761129283618689565b826001600160a01b03166352d1902d6040518163ffffffff1660e01b8152600401602060405180830381865afa925050508015617777575060408051601f3d908101601f191682019092526177749181019061a087565b60015b6177da5760405162461bcd60e51b815260206004820152602e60248201527f45524331393637557067726164653a206e657720696d706c656d656e7461746960448201526d6f6e206973206e6f74205555505360901b60648201526084016111f1565b60008051602061a25783398151915281146178495760405162461bcd60e51b815260206004820152602960248201527f45524331393637557067726164653a20756e737570706f727465642070726f786044820152681a58589b195555525160ba1b60648201526084016111f1565b50611292838383618725565b600080610162848154811061786c5761786c619c1b565b6000918252602090912060036017909202010154617892670de0b6b3a764000085619db3565b61789c9190619e08565b90506178a9816005619db3565b91509250929050565b60006178c8670de0b6b3a7640000600019619e08565b8211156178eb576040516322630c4560e01b8152600481018390526024016111f1565b670de0b6b3a764000082026110bc565b60006110bc6714057b7ef767814f670de0b6b3a764000061792161791e8661874a565b90565b028161792f5761792f619df2565b0490565b60006112a361791e8385619c7e565b60006112a361791e8484618882565b60006112a361791e84670de0b6b3a764000085618936565b60006001600160a01b0383166179c15760405162461bcd60e51b815260206004820152601f60248201527f45524332303a206d696e7420746f20746865207a65726f20616464726573730060448201526064016111f1565b60006179cd85846131a9565b905060006179da85618a0a565b90506179e46193ab565b8681526020810185905260006179fa8887617855565b509050674563918244f40000816101628a81548110617a1b57617a1b619c1b565b9060005260206000209060170201600e0160020154617a3a9190619c08565b1115617a7e5760405162461bcd60e51b81526020600482015260136024820152721608189bdd5b99185c9e481d9a5bdb185d1959606a1b60448201526064016111f1565b6040808301828152606084018681524260a086019081526000878152610163602090815285822088518155818901516001808301919091559551600282015593516003850155608088015160048501559151600584015560c0870151600684015560e08701516007909301929092558b82526101648152928120805492830181558152919091200183905561016280548291908a908110617b2157617b21619c1b565b9060005260206000209060170201600e016002016000828254617b449190619c08565b92505081905550617b7d886101628a81548110617b6357617b63619c1b565b9060005260206000209060170201600e0160020154618bc0565b5091979650505050505050565b600080670de0b6b3a7640000617ba884670928ca80cfc20000619db3565b617bb29190619e08565b617bc49067016345785d8a0000619c08565b90506112a3816ec097ce7bc90715b34b9f1000000000619e08565b60008181526101636020908152604080832081516101008101835281548082526001830154828601526002830154828501526003830154606083015260048301546080830152600583015460a0830152600683015460c083015260079092015460e08201528185526101648452828520805484518187028101870190955280855291959294929392909190830182828015617c9957602002820191906000526020600020905b815481526020019060010190808311617c85575b5050835193945060009250829150505b82811015617ce95786848281518110617cc457617cc4619c1b565b602002602001015103617cd957809150617ce9565b617ce281619ca7565b9050617ca9565b50818110617d395760405162461bcd60e51b815260206004820152601860248201527f546f6b656e206e6f7420666f756e6420696e206172726179000000000000000060448201526064016111f1565b805b617d46600184619c7e565b811015617d9e5783617d59826001619c08565b81518110617d6957617d69619c1b565b6020026020010151848281518110617d8357617d83619c1b565b6020908102919091010152617d9781619ca7565b9050617d3b565b506000848152610164602090815260409091208451617dbf92860190619342565b50600084815261016460205260409020805480617dde57617dde619c91565b60019003818190600052602060002001600090559055505050505050565b6000806101628381548110617e1357617e13619c1b565b6000918252602080832086845261016b9091526040832080549084905560179092020192508015617f5957600085815261016a602090815260408083208484528252808320548151637f1f087360e01b815291516001600160a01b0390911693928492637f1f08739260048083019392829003018187875af1158015617e9d573d6000803e3d6000fd5b505050506040513d601f19601f82011682018060405250810190617ec1919061a087565b6040516348b1933560e01b8152600481018290529091506001600160a01b038316906348b19335906024016020604051808303816000875af1158015617f0b573d6000803e3d6000fd5b505050506040513d601f19601f82011682018060405250810190617f2f919061a087565b6000600787018190556006870180549296508692909190617f51908490619c08565b909155505050505b509392505050565b6040516001600160a01b038316602482015260448101829052600090611c4190859063a9059cbb60e01b90606401617176565b600082815261016360205260408120805461016280549293919283908110617fbe57617fbe619c1b565b906000526020600020906017020190506000806000617fdc88612773565b9250925092508661802a578360150154600003617ff95742617fff565b83601501545b86600501819055508086600401600082825461801b9190619c08565b90915550505050505050505050565b60088401548311156180405761804085846173ca565b82156180c457600060048701819055601585015490036180605742618066565b83601501545b6005870155600884018054849190600090618082908490619c7e565b909155505060098401805483919060009061809e908490619c7e565b909155506180c290506180b08961359a565b85546001600160a01b03169084617f61565b505b5050505050505050565b60006180d98261359a565b90506180e781600084618463565b6180f08261359a565b60008381526101326020908152604080832080546001600160a01b03199081169091556001600160a01b03851680855261013184528285208054600019019055878552610130909352818420805490911690555192935084927fddf252ad1be2c89b69c2b068fc378daa952ba7f163c4a11628f55a4df523b3ef908390a45050565b816001600160a01b0316836001600160a01b0316036181d35760405162461bcd60e51b815260206004820152601960248201527f4552433732313a20617070726f766520746f2063616c6c65720000000000000060448201526064016111f1565b6001600160a01b0383811660008181526101336020908152604080832094871680845294825291829020805460ff191686151590811790915591519182527f17307eab39ab6107e8899845ad3d59bd9653f200f220920489ca2b5937696c31910160405180910390a3505050565b603380546001600160a01b038381166001600160a01b03198084168217909455603480549094169093556040519116919082907f8be0079c531659141344cd1fd0a4f28419497f9722a3daafe3b4186f6b6457e090600090a35050565b6182a98484846171fe565b6182b584848484618bf4565b61597b5760405162461bcd60e51b81526004016111f19061a0e5565b600054610100900460ff166182f85760405162461bcd60e51b81526004016111f19061a137565b615947618cf2565b6060600061830d83618d22565b600101905060008167ffffffffffffffff81111561832d5761832d619787565b6040519080825280601f01601f191660200182016040528015618357576020820181803683370190505b5090508181016020015b600019016f181899199a1a9b1b9c1cb0b131b232b360811b600a86061a8153600a850494508415617f5957618361565b60006183e6826040518060400160405280602081526020017f5361666545524332303a206c6f772d6c6576656c2063616c6c206661696c6564815250856001600160a01b0316618dfa9092919063ffffffff16565b8051909150156112925780806020019051810190618404919061a182565b6112925760405162461bcd60e51b815260206004820152602a60248201527f5361666545524332303a204552433230206f7065726174696f6e20646964206e6044820152691bdd081cdd58d8d9595960b21b60648201526084016111f1565b816001600160a01b0316836001600160a01b03161415801561848d57506001600160a01b03831615155b1561849c5761849c8382618e09565b826001600160a01b0316826001600160a01b0316141580156184c657506001600160a01b03821615155b15611292576001600160a01b0391909116600090815261013560209081526040822080546001810182559083529120015550565b60008060008360405160200161851091906194d6565b60408051601f198184030181529181528151602092830120600088815261016a84528281208282529093529120549091506001600160a01b031680618602576101695461016280546001600160a01b039092169163dff968019188918a90811061857c5761857c619c1b565b60009182526020909120601790910201546040516001600160e01b031960e085901b1681526185b892916001600160a01b03169060040161a19f565b6020604051808303816000875af11580156185d7573d6000803e3d6000fd5b505050506040513d601f19601f820116820180604052508101906185fb919061a1c9565b925061861e565b600086815261016b602052604090209190915591506110bc9050565b6001600160a01b0383161561867f57600086815261016a60209081526040808320858452825280832080546001600160a01b0319166001600160a01b038816908117909155835261016c825280832089905588835261016b90915290208290555b5090949350505050565b6001600160a01b0381163b6186f65760405162461bcd60e51b815260206004820152602d60248201527f455243313936373a206e657720696d706c656d656e746174696f6e206973206e60448201526c1bdd08184818dbdb9d1c9858dd609a1b60648201526084016111f1565b60008051602061a25783398151915280546001600160a01b0319166001600160a01b0392909216919091179055565b61872e83618f5b565b60008251118061873b5750805b156112925761597b8383618f9b565b600081670de0b6b3a764000081101561877957604051633621413760e21b8152600481018490526024016111f1565b6000618805670de0b6b3a7640000830460016fffffffffffffffffffffffffffffffff821160071b91821c67ffffffffffffffff811160061b90811c63ffffffff811160051b90811c61ffff811160041b90811c60ff8111600390811b91821c600f811160021b90811c918211871b91821c969096119490961792909217171791909117919091171790565b9050670de0b6b3a7640000810282821c670de0b6b3a763ffff19810161883157815b9695505050505050565b671bc16d674ec800006706f05b59d3b200005b801561887457670de0b6b3a764000083800204925081831061886c579283019260019290921c915b60011c618844565b50825b979650505050505050565b60008080600019848609848602925082811083820303915050670de0b6b3a764000081106188cd5760405163090638d560e41b815260048101869052602481018590526044016111f1565b6000670de0b6b3a76400008587099050816000036188f9575050670de0b6b3a7640000900490506110bc565b620400008184030492109003600160ee1b02177faccb18165bd6fe31ae1cf318dc5b51eee0e1ba569b88cd74c1773b91fac1066902905092915050565b60008080600019858709858702925082811083820303915050806000036189705783828161896657618966619df2565b04925050506112a3565b8381106189a1576040516307639aaf60e41b81526004810187905260248101869052604481018590526064016111f1565b60008486880960026001871981018816978890046003810283188082028403028082028403028082028403028082028403028082028403029081029092039091026000889003889004909101858311909403939093029303949094049190911702949350505050565b60008061013460008154618a1d90619ca7565b918290555090506001600160a01b038316618a7a5760405162461bcd60e51b815260206004820181905260248201527f4552433732313a206d696e7420746f20746865207a65726f206164647265737360448201526064016111f1565b600081815261013060205260409020546001600160a01b031615618ae05760405162461bcd60e51b815260206004820152601c60248201527f4552433732313a20746f6b656e20616c7265616479206d696e7465640000000060448201526064016111f1565b618aec60008483618463565b600081815261013060205260409020546001600160a01b031615618b525760405162461bcd60e51b815260206004820152601c60248201527f4552433732313a20746f6b656e20616c7265616479206d696e7465640000000060448201526064016111f1565b6001600160a01b0383166000818152610131602090815260408083208054600101905584835261013090915280822080546001600160a01b0319168417905551839291907fddf252ad1be2c89b69c2b068fc378daa952ba7f163c4a11628f55a4df523b3ef908290a46110bc565b6000816101628481548110618bd757618bd7619c1b565b60009182526020909120600e601790920201015550600192915050565b60006001600160a01b0384163b15618cea57604051630a85bd0160e11b81526001600160a01b0385169063150b7a0290618c3890339089908890889060040161a1e6565b6020604051808303816000875af1925050508015618c73575060408051601f3d908101601f19168201909252618c709181019061a219565b60015b618cd0573d808015618ca1576040519150601f19603f3d011682016040523d82523d6000602084013e618ca6565b606091505b508051600003618cc85760405162461bcd60e51b81526004016111f19061a0e5565b805181602001fd5b6001600160e01b031916630a85bd0160e11b1490506140a2565b5060016140a2565b600054610100900460ff16618d195760405162461bcd60e51b81526004016111f19061a137565b61594733618241565b60008072184f03e93ff9f4daa797ed6e38ed64bf6a1f0160401b8310618d615772184f03e93ff9f4daa797ed6e38ed64bf6a1f0160401b830492506040015b6d04ee2d6d415b85acef81000000008310618d8d576d04ee2d6d415b85acef8100000000830492506020015b662386f26fc100008310618dab57662386f26fc10000830492506010015b6305f5e1008310618dc3576305f5e100830492506008015b6127108310618dd757612710830492506004015b60648310618de9576064830492506002015b600a83106110bc5760010192915050565b60606140a2848460008561908f565b6001600160a01b03821660009081526101356020908152604080832080548251818502810185019093528083529192909190830182828015618e6a57602002820191906000526020600020905b815481526020019060010190808311618e56575b505083519394506000925050505b81811015611f4e5783838281518110618e9357618e93619c1b565b602002602001015103618f4b5782618eac600184619c7e565b81518110618ebc57618ebc619c1b565b6020026020010151838281518110618ed657618ed6619c1b565b6020908102919091018101919091526001600160a01b03861660009081526101358252604090208451618f0b92860190619342565b506001600160a01b038516600090815261013560205260409020805480618f3457618f34619c91565b600190038181906000526020600020016000905590555b618f5481619ca7565b9050618e78565b618f6481618689565b6040516001600160a01b038216907fbc7cd75a20ee27fd9adebab32041f755214dbc6bffa90cc0225b39da2e5c2d3b90600090a250565b60606001600160a01b0383163b6190035760405162461bcd60e51b815260206004820152602660248201527f416464726573733a2064656c65676174652063616c6c20746f206e6f6e2d636f6044820152651b9d1c9858dd60d21b60648201526084016111f1565b600080846001600160a01b03168460405161901e9190619e2a565b600060405180830381855af49150503d8060008114619059576040519150601f19603f3d011682016040523d82523d6000602084013e61905e565b606091505b5091509150619086828260405180606001604052806027815260200161a2776027913961915f565b95945050505050565b6060824710156190f05760405162461bcd60e51b815260206004820152602660248201527f416464726573733a20696e73756666696369656e742062616c616e636520666f6044820152651c8818d85b1b60d21b60648201526084016111f1565b600080866001600160a01b0316858760405161910c9190619e2a565b60006040518083038185875af1925050503d8060008114619149576040519150601f19603f3d011682016040523d82523d6000602084013e61914e565b606091505b509150915061887787838387619178565b6060831561916e5750816112a3565b6112a383836191ed565b606083156191e75782516000036191e0576001600160a01b0385163b6191e05760405162461bcd60e51b815260206004820152601d60248201527f416464726573733a2063616c6c20746f206e6f6e2d636f6e747261637400000060448201526064016111f1565b50816140a2565b6140a283835b8151156191fd5781518083602001fd5b8060405162461bcd60e51b81526004016111f191906194d6565b6040805161020081019091526000610100820181815261012083018290526101408301829052610160830182905260606101808401526101a083018290526101c083018290526101e08301919091528190815260200161928a604051806040016040528060008152602001600081525090565b81526020016192ac604051806040016040528060008152602001600081525090565b81526020016192de60405180608001604052806000815260200160008152602001600081526020016000151581525090565b815260200161930e6040518060800160405280600081526020016000815260200160008152602001606081525090565b8152604080516060810182526000808252602082810182905292820152910190815260006020820181905260409091015290565b82805482825590600052602060002090810192821561937d579160200282015b8281111561937d578251825591602001919060010190619362565b506193899291506193f0565b5090565b508054600082559060005260206000209081019061248591906193f0565b60405180610100016040528060008152602001600081526020016000815260200160008152602001600081526020016000815260200160008152602001600081525090565b5b8082111561938957600081556001016193f1565b6001600160a01b038116811461248557600080fd5b6000806040838503121561942d57600080fd5b823561943881619405565b9150602083013561944881619405565b809150509250929050565b6001600160e01b03198116811461248557600080fd5b60006020828403121561947b57600080fd5b81356112a381619453565b60005b838110156194a1578181015183820152602001619489565b50506000910152565b600081518084526194c2816020860160208601619486565b601f01601f19169290920160200192915050565b6020815260006112a360208301846194aa565b600080604083850312156194fc57600080fd5b50508035926020909101359150565b60006020828403121561951d57600080fd5b5035919050565b6000806040838503121561953757600080fd5b823561954281619405565b946020939093013593505050565b60006080830182518452602080840151818601526040840151604086015260608401516080606087015282815180855260a0880191508383019450600092505b808310156195b05784518252938301936001929092019190830190619590565b509695505050505050565b6101e080825289516001600160a01b039081169183019190915260208a015160ff1661020083015260408a015161ffff1661022083015260608a015116610240820152608089015161010061026083015260009061961d6102e08401826194aa565b905060a08b015161028084015260c08b01516102a084015260e08b01516102c0840152619657602084018b80518252602090810151910152565b8851606084015260208901516080840152875160a0840152602088015160c0840152604088015160e0840152606088015115156101008401528281036101208401526196a38188619550565b86516001600160a01b03166101408501526020870151610160850152604087015161018085015291506196d39050565b836101a08301526196e96101c083018415159052565b9998505050505050505050565b60008060006060848603121561970b57600080fd5b833561971681619405565b9250602084013561972681619405565b929592945050506040919091013590565b801515811461248557600080fd5b60008060006060848603121561975a57600080fd5b833561976581619405565b9250602084013561972681619737565b803561ffff8116811461138c57600080fd5b634e487b7160e01b600052604160045260246000fd5b600082601f8301126197ae57600080fd5b813567ffffffffffffffff808211156197c9576197c9619787565b604051601f8301601f19908116603f011681019082821181831017156197f1576197f1619787565b8160405283815286602085880101111561980a57600080fd5b836020870160208301376000602085830101528094505050505092915050565b600080600080600060a0868803121561984257600080fd5b853594506020860135935061985960408701619775565b925060608601359150608086013567ffffffffffffffff81111561987c57600080fd5b6198888882890161979d565b9150509295509295909350565b60008060008060008060c087890312156198ae57600080fd5b86356198b981619405565b955060208701356198c981619405565b9450604087013567ffffffffffffffff8111156198e557600080fd5b6198f189828a0161979d565b945050606087013561990281619405565b9598949750929560808101359460a0909101359350915050565b60006020828403121561992e57600080fd5b81356112a381619405565b6000806040838503121561994c57600080fd5b823561995781619405565b9150602083013567ffffffffffffffff81111561997357600080fd5b61997f8582860161979d565b9150509250929050565b60008060006060848603121561999e57600080fd5b505081359360208301359350604090920135919050565b600080604083850312156199c857600080fd5b82359150602083013561944881619405565b600080604083850312156199ed57600080fd5b82359150602083013561944881619737565b60008060408385031215619a1257600080fd5b8235619a1d81619405565b9150602083013561944881619737565b600080600060608486031215619a4257600080fd5b8335925060208401359150604084013567ffffffffffffffff811115619a6757600080fd5b619a738682870161979d565b9150509250925092565b60008060008060808587031215619a9357600080fd5b8435619a9e81619405565b93506020850135619aae81619405565b925060408501359150606085013567ffffffffffffffff811115619ad157600080fd5b619add8782880161979d565b91505092959194509250565b60008060008060808587031215619aff57600080fd5b843593506020850135619b1181619405565b9250619b1f60408601619775565b9150619b2d60608601619775565b905092959194509250565b602080825282518282018190526000919060409081850190868401855b82811015617b7d5781518051855286810151878601528581015186860152606080820151908601526080808201519086015260a0808201519086015260c0808201519086015260e090810151908501526101009093019290850190600101619b55565b600181811c90821680619bcc57607f821691505b602082108103619bec57634e487b7160e01b600052602260045260246000fd5b50919050565b634e487b7160e01b600052601160045260246000fd5b808201808211156110bc576110bc619bf2565b634e487b7160e01b600052603260045260246000fd5b6020808252602d908201527f4552433732313a2063616c6c6572206973206e6f7420746f6b656e206f776e6560408201526c1c881bdc88185c1c1c9bdd9959609a1b606082015260800190565b818103818111156110bc576110bc619bf2565b634e487b7160e01b600052603160045260246000fd5b600060018201619cb957619cb9619bf2565b5060010190565b600181815b80851115619cfb578160001904821115619ce157619ce1619bf2565b80851615619cee57918102915b93841c9390800290619cc5565b509250929050565b600082619d12575060016110bc565b81619d1f575060006110bc565b8160018114619d355760028114619d3f57619d5b565b60019150506110bc565b60ff841115619d5057619d50619bf2565b50506001821b6110bc565b5060208310610133831016604e8410600b8410161715619d7e575081810a6110bc565b619d888383619cc0565b8060001904821115619d9c57619d9c619bf2565b029392505050565b60006112a360ff841683619d03565b80820281158282048414176110bc576110bc619bf2565b6020808252600e908201526d139bdd08185d5d1a1bdc9a5e995960921b604082015260600190565b634e487b7160e01b600052601260045260246000fd5b600082619e2557634e487b7160e01b600052601260045260246000fd5b500490565b60008251619e3c818460208701619486565b9190910192915050565b600060208284031215619e5857600080fd5b815160ff811681146112a357600080fd5b601f82111561129257600081815260208120601f850160051c81016020861015619e905750805b601f850160051c820191505b81811015619eaf57828155600101619e9c565b505050505050565b815167ffffffffffffffff811115619ed157619ed1619787565b619ee581619edf8454619bb8565b84619e69565b602080601f831160018114619f1a5760008415619f025750858301515b600019600386901b1c1916600185901b178555619eaf565b600085815260208120601f198616915b82811015619f4957888601518255948401946001909101908401619f2a565b5085821015619f675787850151600019600388901b60f8161c191681555b5050505050600190811b01905550565b6020808252602c908201527f46756e6374696f6e206d7573742062652063616c6c6564207468726f7567682060408201526b19195b1959d85d1958d85b1b60a21b606082015260800190565b6020808252602c908201527f46756e6374696f6e206d7573742062652063616c6c6564207468726f7567682060408201526b6163746976652070726f787960a01b606082015260800190565b60208082526029908201527f54696d656c6f636b206e6f7420736574206f72206e6f7420636f6d706c6574656040820152686420696e2074696d6560b81b606082015260800190565b6000835161a06a818460208801619486565b83519083019061a07e818360208801619486565b01949350505050565b60006020828403121561a09957600080fd5b5051919050565b60208082526025908201527f4552433732313a207472616e736665722066726f6d20696e636f72726563742060408201526437bbb732b960d91b606082015260800190565b60208082526032908201527f4552433732313a207472616e7366657220746f206e6f6e20455243373231526560408201527131b2b4bb32b91034b6b83632b6b2b73a32b960711b606082015260800190565b6020808252602b908201527f496e697469616c697a61626c653a20636f6e7472616374206973206e6f74206960408201526a6e697469616c697a696e6760a81b606082015260800190565b60006020828403121561a19457600080fd5b81516112a381619737565b60408152600061a1b260408301856194aa565b905060018060a01b03831660208301529392505050565b60006020828403121561a1db57600080fd5b81516112a381619405565b6001600160a01b0385811682528416602082015260408101839052608060608201819052600090618827908301846194aa565b60006020828403121561a22b57600080fd5b81516112a38161945356fea3ea4fb8dee4d414198cb197af6eae4fe483c1a0b849dc50e53b9bf1a60e2166360894a13ba1a3210667c828492db98dca3e2076cc3735a920a3ca505d382bbc416464726573733a206c6f772d6c6576656c2064656c65676174652063616c6c206661696c6564a2646970667358221220c81c029beb975ab89c9f1589ee5f847296cb1dbda09960f1da7767630244033264736f6c63430008110033496e697469616c697a61626c653a20636f6e7472616374206973206e6f742069",
    "linkReferences": {}
  },
  "methodIdentifiers": {
    "acceptOwnershipTransfer()": "b842e87f",
    "activeStrategies(uint256)": "b20b2429",
    "activeTokens(uint256)": "9f224f35",
    "addNewBountyPool(address,address,string,address,uint256,uint256)": "32fce602",
    "approve(address,uint256)": "095ea7b3",
    "balanceOf(address)": "70a08231",
    "billPremium(uint256)": "2dbe051e",
    "calcReferralSplit(uint256,uint256)": "928dc6a9",
    "calcRequiredPremiumBalancePerPeriod(uint256,uint256)": "836ef1fa",
    "calculateArbitraryEffectiveAPY(uint256,uint256,uint256)": "4f3214cc",
    "calculateEffectiveAPY(uint256,uint256)": "5c46f7b1",
    "claimPremium(uint256)": "f47ec3be",
    "collectAllReferralProfits()": "3e8888d9",
    "collectAllSaloonProfits(address)": "ecd7fbed",
    "collectReferralProfit(address)": "a089a520",
    "collectSaloonProfits(address,address)": "cf9564b9",
    "compoundYieldForAll()": "f68ce499",
    "compoundYieldForPid(uint256)": "e78ea3df",
    "consolidate(uint256)": "949a4a4a",
    "consolidateAll()": "75bfd63d",
    "extendReferralPeriod(uint256,uint256)": "5de406dc",
    "getAllTokensByOwner(address)": "e9fda7d4",
    "getApproved(uint256)": "081812fc",
    "getCurrentAPY(uint256)": "7fbf3853",
    "getSecondsPassed(uint256,uint256)": "0a015ab1",
    "index()": "2986c0e5",
    "initialize(address)": "c4d66de8",
    "isApprovedForAll(address,address)": "e985e9c5",
    "makeProjectDeposit(uint256,uint256,string)": "ae07f948",
    "minTokenStakeAmount(address)": "39458723",
    "name()": "06fdde03",
    "nftInfo(uint256)": "1f8bc790",
    "owner()": "8da5cb5b",
    "ownerOf(uint256)": "6352211e",
    "payBounty(uint256,address,uint16,uint16)": "d075afac",
    "pendingPremium(uint256)": "40bd1d00",
    "pidNFTList(uint256,uint256)": "96ea48e8",
    "pidStrategies(uint256,bytes32)": "074ecf03",
    "poolInfo(uint256)": "1526fe27",
    "projectDepositWithdrawal(uint256,uint256)": "983c1ce0",
    "proxiableUUID()": "52d1902d",
    "receiveStrategyYield(address,uint256)": "1aebcecb",
    "referralBalances(address,address)": "011b408b",
    "safeTransferFrom(address,address,uint256)": "42842e0e",
    "safeTransferFrom(address,address,uint256,bytes)": "b88d4fde",
    "saloonBountyProfit(address)": "e45abd0f",
    "saloonPremiumProfit(address)": "ca006148",
    "saloonStrategyProfit(address)": "598d17bf",
    "scheduleProjectDepositWithdrawal(uint256,uint256)": "5669cbef",
    "scheduleUnstake(uint256)": "106d08df",
    "setAPYandPoolCapAndDeposit(uint256,uint256,uint16,uint256,string)": "30ca0794",
    "setApprovalForAll(address,bool)": "a22cb465",
    "stake(uint256,uint256)": "7b0472f0",
    "strategyAddressToPid(address)": "957deecc",
    "supportsInterface(bytes4)": "01ffc9a7",
    "symbol()": "95d89b41",
    "tokenURI(uint256)": "c87b56dd",
    "tokenWhitelist(address)": "753d7563",
    "transferFrom(address,address,uint256)": "23b872dd",
    "transferOwnership(address)": "f2fde38b",
    "unstake(uint256,bool)": "9ebea88c",
    "updateProjectWalletAddress(uint256,address)": "995974c4",
    "updateStrategyFactoryAddress(address)": "3538fda0",
    "updateTokenWhitelist(address,bool,uint256)": "2cb0dfcc",
    "upgradeTo(address)": "3659cfe6",
    "upgradeToAndCall(address,bytes)": "4f1ef286",
    "viewBountyBalance(uint256)": "6ac6d812",
    "viewBountyInfo(uint256)": "40ef2868",
    "viewHackerPayout(uint256)": "861e5f66",
    "viewMinProjectDeposit(uint256)": "1c6b323f",
    "viewPoolAPY(uint256)": "a27f9213",
    "viewPoolCap(uint256)": "39679ff4",
    "viewPoolPremiumInfo(uint256)": "b1a2d16f",
    "viewPoolTimelockInfo(uint256)": "ac30b856",
    "viewReferralBalance(address,address)": "0ed7610c",
    "viewSaloonProfitBalance(address)": "718c7eef",
    "viewTokenInfo(uint256)": "10725852",
    "viewTotalStaked(uint256)": "dbdd6957",
    "windDownBounty(uint256)": "bb7019c1",
    "withdrawProjectYield(uint256)": "db53e8b5"
  },
  "id": 43
}