{
  "abi": [
    {
      "inputs": [
        {
          "internalType": "UD60x18",
          "name": "x",
          "type": "uint256"
        }
      ],
      "name": "PRBMathUD60x18__LogInputTooSmall",
      "type": "error"
    },
    {
      "inputs": [
        {
          "internalType": "uint256",
          "name": "x",
          "type": "uint256"
        }
      ],
      "name": "PRBMathUD60x18__ToUD60x18Overflow",
      "type": "error"
    },
    {
      "inputs": [
        {
          "internalType": "uint256",
          "name": "x",
          "type": "uint256"
        },
        {
          "internalType": "uint256",
          "name": "y",
          "type": "uint256"
        }
      ],
      "name": "PRBMath__MulDiv18Overflow",
      "type": "error"
    },
    {
      "inputs": [
        {
          "internalType": "uint256",
          "name": "x",
          "type": "uint256"
        },
        {
          "internalType": "uint256",
          "name": "y",
          "type": "uint256"
        },
        {
          "internalType": "uint256",
          "name": "denominator",
          "type": "uint256"
        }
      ],
      "name": "PRBMath__MulDivOverflow",
      "type": "error"
    },
    {
      "anonymous": false,
      "inputs": [
        {
          "indexed": false,
          "internalType": "address",
          "name": "previousAdmin",
          "type": "address"
        },
        {
          "indexed": false,
          "internalType": "address",
          "name": "newAdmin",
          "type": "address"
        }
      ],
      "name": "AdminChanged",
      "type": "event"
    },
    {
      "anonymous": false,
      "inputs": [
        {
          "indexed": true,
          "internalType": "address",
          "name": "owner",
          "type": "address"
        },
        {
          "indexed": true,
          "internalType": "address",
          "name": "spender",
          "type": "address"
        },
        {
          "indexed": false,
          "internalType": "uint256",
          "name": "value",
          "type": "uint256"
        }
      ],
      "name": "Approval",
      "type": "event"
    },
    {
      "anonymous": false,
      "inputs": [
        {
          "indexed": true,
          "internalType": "address",
          "name": "beacon",
          "type": "address"
        }
      ],
      "name": "BeaconUpgraded",
      "type": "event"
    },
    {
      "anonymous": false,
      "inputs": [
        {
          "indexed": true,
          "internalType": "uint256",
          "name": "pid",
          "type": "uint256"
        },
        {
          "indexed": true,
          "internalType": "uint256",
          "name": "oldAmount",
          "type": "uint256"
        },
        {
          "indexed": true,
          "internalType": "uint256",
          "name": "newAmount",
          "type": "uint256"
        }
      ],
      "name": "BountyBalanceChanged",
      "type": "event"
    },
    {
      "anonymous": false,
      "inputs": [
        {
          "indexed": true,
          "internalType": "uint256",
          "name": "time",
          "type": "uint256"
        },
        {
          "indexed": true,
          "internalType": "address",
          "name": "hunter",
          "type": "address"
        },
        {
          "indexed": true,
          "internalType": "address",
          "name": "token",
          "type": "address"
        },
        {
          "indexed": false,
          "internalType": "uint256",
          "name": "amount",
          "type": "uint256"
        }
      ],
      "name": "BountyPaid",
      "type": "event"
    },
    {
      "anonymous": false,
      "inputs": [
        {
          "indexed": false,
          "internalType": "uint8",
          "name": "version",
          "type": "uint8"
        }
      ],
      "name": "Initialized",
      "type": "event"
    },
    {
      "anonymous": false,
      "inputs": [
        {
          "indexed": true,
          "internalType": "uint256",
          "name": "pid",
          "type": "uint256"
        },
        {
          "indexed": true,
          "internalType": "address",
          "name": "token",
          "type": "address"
        },
        {
          "indexed": true,
          "internalType": "uint256",
          "name": "tokenDecimals",
          "type": "uint256"
        }
      ],
      "name": "NewBountyDeployed",
      "type": "event"
    },
    {
      "anonymous": false,
      "inputs": [
        {
          "indexed": true,
          "internalType": "address",
          "name": "previousOwner",
          "type": "address"
        },
        {
          "indexed": true,
          "internalType": "address",
          "name": "newOwner",
          "type": "address"
        }
      ],
      "name": "OwnershipTransferred",
      "type": "event"
    },
    {
      "anonymous": false,
      "inputs": [
        {
          "indexed": true,
          "internalType": "uint256",
          "name": "pid",
          "type": "uint256"
        },
        {
          "indexed": true,
          "internalType": "uint256",
          "name": "amount",
          "type": "uint256"
        }
      ],
      "name": "PremiumBilled",
      "type": "event"
    },
    {
      "anonymous": false,
      "inputs": [
        {
          "indexed": true,
          "internalType": "address",
          "name": "user",
          "type": "address"
        },
        {
          "indexed": true,
          "internalType": "uint256",
          "name": "pid",
          "type": "uint256"
        },
        {
          "indexed": false,
          "internalType": "uint256",
          "name": "amount",
          "type": "uint256"
        }
      ],
      "name": "Staked",
      "type": "event"
    },
    {
      "anonymous": false,
      "inputs": [
        {
          "indexed": true,
          "internalType": "address",
          "name": "from",
          "type": "address"
        },
        {
          "indexed": true,
          "internalType": "address",
          "name": "to",
          "type": "address"
        },
        {
          "indexed": false,
          "internalType": "uint256",
          "name": "value",
          "type": "uint256"
        }
      ],
      "name": "Transfer",
      "type": "event"
    },
    {
      "anonymous": false,
      "inputs": [
        {
          "indexed": true,
          "internalType": "address",
          "name": "user",
          "type": "address"
        },
        {
          "indexed": true,
          "internalType": "uint256",
          "name": "pid",
          "type": "uint256"
        },
        {
          "indexed": false,
          "internalType": "uint256",
          "name": "amount",
          "type": "uint256"
        }
      ],
      "name": "Unstaked",
      "type": "event"
    },
    {
      "anonymous": false,
      "inputs": [
        {
          "indexed": true,
          "internalType": "address",
          "name": "implementation",
          "type": "address"
        }
      ],
      "name": "Upgraded",
      "type": "event"
    },
    {
      "anonymous": false,
      "inputs": [
        {
          "indexed": true,
          "internalType": "uint256",
          "name": "pid",
          "type": "uint256"
        },
        {
          "indexed": true,
          "internalType": "uint256",
          "name": "amount",
          "type": "uint256"
        }
      ],
      "name": "WithdrawalOrUnstakeScheduled",
      "type": "event"
    },
    {
      "anonymous": false,
      "inputs": [
        {
          "indexed": true,
          "internalType": "address",
          "name": "token",
          "type": "address"
        },
        {
          "indexed": true,
          "internalType": "bool",
          "name": "whitelisted",
          "type": "bool"
        }
      ],
      "name": "tokenWhitelistUpdated",
      "type": "event"
    },
    {
      "inputs": [],
      "name": "acceptOwnershipTransfer",
      "outputs": [],
      "stateMutability": "nonpayable",
      "type": "function"
    },
    {
      "inputs": [
        {
          "internalType": "uint256",
          "name": "",
          "type": "uint256"
        }
      ],
      "name": "activeTokens",
      "outputs": [
        {
          "internalType": "address",
          "name": "",
          "type": "address"
        }
      ],
      "stateMutability": "view",
      "type": "function"
    },
    {
      "inputs": [
        {
          "internalType": "address",
          "name": "_token",
          "type": "address"
        },
        {
          "internalType": "address",
          "name": "_projectWallet",
          "type": "address"
        },
        {
          "internalType": "string",
          "name": "_projectName",
          "type": "string"
        }
      ],
      "name": "addNewBountyPool",
      "outputs": [
        {
          "internalType": "uint256",
          "name": "",
          "type": "uint256"
        }
      ],
      "stateMutability": "nonpayable",
      "type": "function"
    },
    {
      "inputs": [
        {
          "internalType": "address",
          "name": "owner",
          "type": "address"
        },
        {
          "internalType": "address",
          "name": "spender",
          "type": "address"
        }
      ],
      "name": "allowance",
      "outputs": [
        {
          "internalType": "uint256",
          "name": "",
          "type": "uint256"
        }
      ],
      "stateMutability": "view",
      "type": "function"
    },
    {
      "inputs": [
        {
          "internalType": "address",
          "name": "spender",
          "type": "address"
        },
        {
          "internalType": "uint256",
          "name": "amount",
          "type": "uint256"
        }
      ],
      "name": "approve",
      "outputs": [
        {
          "internalType": "bool",
          "name": "",
          "type": "bool"
        }
      ],
      "stateMutability": "nonpayable",
      "type": "function"
    },
    {
      "inputs": [
        {
          "internalType": "address",
          "name": "account",
          "type": "address"
        }
      ],
      "name": "balanceOf",
      "outputs": [
        {
          "internalType": "uint256",
          "name": "",
          "type": "uint256"
        }
      ],
      "stateMutability": "view",
      "type": "function"
    },
    {
      "inputs": [
        {
          "internalType": "uint256",
          "name": "_pid",
          "type": "uint256"
        }
      ],
      "name": "billPremium",
      "outputs": [
        {
          "internalType": "bool",
          "name": "",
          "type": "bool"
        }
      ],
      "stateMutability": "nonpayable",
      "type": "function"
    },
    {
      "inputs": [
        {
          "internalType": "uint256",
          "name": "_stake",
          "type": "uint256"
        },
        {
          "internalType": "uint256",
          "name": "_poolID",
          "type": "uint256"
        }
      ],
      "name": "calculateEffectiveAPY",
      "outputs": [
        {
          "internalType": "uint256",
          "name": "toBeMinted",
          "type": "uint256"
        }
      ],
      "stateMutability": "view",
      "type": "function"
    },
    {
      "inputs": [
        {
          "internalType": "uint256",
          "name": "_pid",
          "type": "uint256"
        }
      ],
      "name": "claimPremium",
      "outputs": [],
      "stateMutability": "nonpayable",
      "type": "function"
    },
    {
      "inputs": [
        {
          "internalType": "address",
          "name": "_saloonWallet",
          "type": "address"
        }
      ],
      "name": "collectAllSaloonProfits",
      "outputs": [
        {
          "internalType": "bool",
          "name": "",
          "type": "bool"
        }
      ],
      "stateMutability": "nonpayable",
      "type": "function"
    },
    {
      "inputs": [
        {
          "internalType": "address",
          "name": "_token",
          "type": "address"
        },
        {
          "internalType": "address",
          "name": "_saloonWallet",
          "type": "address"
        }
      ],
      "name": "collectSaloonProfits",
      "outputs": [
        {
          "internalType": "bool",
          "name": "",
          "type": "bool"
        }
      ],
      "stateMutability": "nonpayable",
      "type": "function"
    },
    {
      "inputs": [],
      "name": "decimals",
      "outputs": [
        {
          "internalType": "uint8",
          "name": "",
          "type": "uint8"
        }
      ],
      "stateMutability": "view",
      "type": "function"
    },
    {
      "inputs": [
        {
          "internalType": "address",
          "name": "spender",
          "type": "address"
        },
        {
          "internalType": "uint256",
          "name": "subtractedValue",
          "type": "uint256"
        }
      ],
      "name": "decreaseAllowance",
      "outputs": [
        {
          "internalType": "bool",
          "name": "",
          "type": "bool"
        }
      ],
      "stateMutability": "nonpayable",
      "type": "function"
    },
    {
      "inputs": [],
      "name": "getCurrentAPY",
      "outputs": [
        {
          "internalType": "uint256",
          "name": "result",
          "type": "uint256"
        }
      ],
      "stateMutability": "nonpayable",
      "type": "function"
    },
    {
      "inputs": [
        {
          "internalType": "uint256",
          "name": "_from",
          "type": "uint256"
        },
        {
          "internalType": "uint256",
          "name": "_to",
          "type": "uint256"
        }
      ],
      "name": "getMultiplier",
      "outputs": [
        {
          "internalType": "uint256",
          "name": "",
          "type": "uint256"
        }
      ],
      "stateMutability": "pure",
      "type": "function"
    },
    {
      "inputs": [
        {
          "internalType": "address",
          "name": "spender",
          "type": "address"
        },
        {
          "internalType": "uint256",
          "name": "addedValue",
          "type": "uint256"
        }
      ],
      "name": "increaseAllowance",
      "outputs": [
        {
          "internalType": "bool",
          "name": "",
          "type": "bool"
        }
      ],
      "stateMutability": "nonpayable",
      "type": "function"
    },
    {
      "inputs": [],
      "name": "initialize",
      "outputs": [],
      "stateMutability": "nonpayable",
      "type": "function"
    },
    {
      "inputs": [
        {
          "internalType": "uint256",
          "name": "_pid",
          "type": "uint256"
        },
        {
          "internalType": "uint256",
          "name": "_deposit",
          "type": "uint256"
        }
      ],
      "name": "makeProjectDeposit",
      "outputs": [],
      "stateMutability": "nonpayable",
      "type": "function"
    },
    {
      "inputs": [],
      "name": "name",
      "outputs": [
        {
          "internalType": "string",
          "name": "",
          "type": "string"
        }
      ],
      "stateMutability": "view",
      "type": "function"
    },
    {
      "inputs": [],
      "name": "owner",
      "outputs": [
        {
          "internalType": "address",
          "name": "",
          "type": "address"
        }
      ],
      "stateMutability": "view",
      "type": "function"
    },
    {
      "inputs": [
        {
          "internalType": "uint256",
          "name": "_pid",
          "type": "uint256"
        },
        {
          "internalType": "address",
          "name": "_hunter",
          "type": "address"
        },
        {
          "internalType": "uint256",
          "name": "_amount",
          "type": "uint256"
        }
      ],
      "name": "payBounty",
      "outputs": [
        {
          "internalType": "bool",
          "name": "",
          "type": "bool"
        }
      ],
      "stateMutability": "nonpayable",
      "type": "function"
    },
    {
      "inputs": [
        {
          "internalType": "uint256",
          "name": "_pid",
          "type": "uint256"
        },
        {
          "internalType": "address",
          "name": "_user",
          "type": "address"
        }
      ],
      "name": "pendingToken",
      "outputs": [
        {
          "internalType": "uint256",
          "name": "totalPending",
          "type": "uint256"
        },
        {
          "internalType": "uint256",
          "name": "actualPending",
          "type": "uint256"
        },
        {
          "internalType": "uint256",
          "name": "newPending",
          "type": "uint256"
        }
      ],
      "stateMutability": "view",
      "type": "function"
    },
    {
      "inputs": [
        {
          "internalType": "uint256",
          "name": "",
          "type": "uint256"
        }
      ],
      "name": "poolInfo",
      "outputs": [
        {
          "components": [
            {
              "internalType": "contract IERC20",
              "name": "token",
              "type": "address"
            },
            {
              "internalType": "uint8",
              "name": "tokenDecimals",
              "type": "uint8"
            },
            {
              "internalType": "uint16",
              "name": "apy",
              "type": "uint16"
            },
            {
              "internalType": "address",
              "name": "projectWallet",
              "type": "address"
            },
            {
              "internalType": "string",
              "name": "projectName",
              "type": "string"
            },
            {
              "internalType": "uint256",
              "name": "projectDeposit",
              "type": "uint256"
            },
            {
              "internalType": "uint256",
              "name": "poolCap",
              "type": "uint256"
            },
            {
              "internalType": "uint256",
              "name": "totalStaked",
              "type": "uint256"
            },
            {
              "internalType": "uint256",
              "name": "multiplier",
              "type": "uint256"
            }
          ],
          "internalType": "struct ISaloon.GeneralInfo",
          "name": "generalInfo",
          "type": "tuple"
        },
        {
          "components": [
            {
              "internalType": "uint256",
              "name": "requiredPremiumBalancePerPeriod",
              "type": "uint256"
            },
            {
              "internalType": "uint256",
              "name": "premiumBalance",
              "type": "uint256"
            },
            {
              "internalType": "uint256",
              "name": "premiumAvailable",
              "type": "uint256"
            }
          ],
          "internalType": "struct ISaloon.PremiumInfo",
          "name": "premiumInfo",
          "type": "tuple"
        },
        {
          "components": [
            {
              "internalType": "uint256",
              "name": "timelock",
              "type": "uint256"
            },
            {
              "internalType": "uint256",
              "name": "timeLimit",
              "type": "uint256"
            },
            {
              "internalType": "uint256",
              "name": "withdrawalScheduledAmount",
              "type": "uint256"
            },
            {
              "internalType": "bool",
              "name": "withdrawalExecuted",
              "type": "bool"
            }
          ],
          "internalType": "struct ISaloon.TimelockInfo",
          "name": "poolTimelock",
          "type": "tuple"
        },
        {
          "components": [
            {
              "internalType": "uint256",
              "name": "currentX",
              "type": "uint256"
            },
            {
              "internalType": "uint256",
              "name": "currentY",
              "type": "uint256"
            }
          ],
          "internalType": "struct ISaloon.TokenInfo",
          "name": "tokenInfo",
          "type": "tuple"
        },
        {
          "internalType": "uint256",
          "name": "freezeTime",
          "type": "uint256"
        },
        {
          "internalType": "bool",
          "name": "isActive",
          "type": "bool"
        }
      ],
      "stateMutability": "view",
      "type": "function"
    },
    {
      "inputs": [],
      "name": "poolLength",
      "outputs": [
        {
          "internalType": "uint256",
          "name": "",
          "type": "uint256"
        }
      ],
      "stateMutability": "view",
      "type": "function"
    },
    {
      "inputs": [
        {
          "internalType": "uint256",
          "name": "_pid",
          "type": "uint256"
        },
        {
          "internalType": "uint256",
          "name": "_amount",
          "type": "uint256"
        }
      ],
      "name": "projectDepositWithdrawal",
      "outputs": [
        {
          "internalType": "bool",
          "name": "",
          "type": "bool"
        }
      ],
      "stateMutability": "nonpayable",
      "type": "function"
    },
    {
      "inputs": [],
      "name": "proxiableUUID",
      "outputs": [
        {
          "internalType": "bytes32",
          "name": "",
          "type": "bytes32"
        }
      ],
      "stateMutability": "view",
      "type": "function"
    },
    {
      "inputs": [
        {
          "internalType": "address",
          "name": "",
          "type": "address"
        }
      ],
      "name": "saloonBountyProfit",
      "outputs": [
        {
          "internalType": "uint256",
          "name": "",
          "type": "uint256"
        }
      ],
      "stateMutability": "view",
      "type": "function"
    },
    {
      "inputs": [
        {
          "internalType": "address",
          "name": "",
          "type": "address"
        }
      ],
      "name": "saloonPremiumProfit",
      "outputs": [
        {
          "internalType": "uint256",
          "name": "",
          "type": "uint256"
        }
      ],
      "stateMutability": "view",
      "type": "function"
    },
    {
      "inputs": [
        {
          "internalType": "uint256",
          "name": "_pid",
          "type": "uint256"
        },
        {
          "internalType": "uint256",
          "name": "_amount",
          "type": "uint256"
        }
      ],
      "name": "scheduleProjectDepositWithdrawal",
      "outputs": [
        {
          "internalType": "bool",
          "name": "",
          "type": "bool"
        }
      ],
      "stateMutability": "nonpayable",
      "type": "function"
    },
    {
      "inputs": [
        {
          "internalType": "uint256",
          "name": "_pid",
          "type": "uint256"
        },
        {
          "internalType": "uint256",
          "name": "_amount",
          "type": "uint256"
        }
      ],
      "name": "scheduleUnstake",
      "outputs": [
        {
          "internalType": "bool",
          "name": "",
          "type": "bool"
        }
      ],
      "stateMutability": "nonpayable",
      "type": "function"
    },
    {
      "inputs": [
        {
          "internalType": "uint256",
          "name": "_pid",
          "type": "uint256"
        },
        {
          "internalType": "uint256",
          "name": "_poolCap",
          "type": "uint256"
        },
        {
          "internalType": "uint16",
          "name": "_apy",
          "type": "uint16"
        },
        {
          "internalType": "uint256",
          "name": "_deposit",
          "type": "uint256"
        }
      ],
      "name": "setAPYandPoolCapAndDeposit",
      "outputs": [],
      "stateMutability": "nonpayable",
      "type": "function"
    },
    {
      "inputs": [
        {
          "internalType": "uint256",
          "name": "_pid",
          "type": "uint256"
        },
        {
          "internalType": "address",
          "name": "_user",
          "type": "address"
        },
        {
          "internalType": "uint256",
          "name": "_amount",
          "type": "uint256"
        }
      ],
      "name": "stake",
      "outputs": [
        {
          "internalType": "bool",
          "name": "",
          "type": "bool"
        }
      ],
      "stateMutability": "nonpayable",
      "type": "function"
    },
    {
      "inputs": [],
      "name": "symbol",
      "outputs": [
        {
          "internalType": "string",
          "name": "",
          "type": "string"
        }
      ],
      "stateMutability": "view",
      "type": "function"
    },
    {
      "inputs": [
        {
          "internalType": "address",
          "name": "",
          "type": "address"
        }
      ],
      "name": "tokenWhitelist",
      "outputs": [
        {
          "internalType": "bool",
          "name": "",
          "type": "bool"
        }
      ],
      "stateMutability": "view",
      "type": "function"
    },
    {
      "inputs": [],
      "name": "totalSupply",
      "outputs": [
        {
          "internalType": "uint256",
          "name": "",
          "type": "uint256"
        }
      ],
      "stateMutability": "view",
      "type": "function"
    },
    {
      "inputs": [
        {
          "internalType": "address",
          "name": "to",
          "type": "address"
        },
        {
          "internalType": "uint256",
          "name": "amount",
          "type": "uint256"
        }
      ],
      "name": "transfer",
      "outputs": [
        {
          "internalType": "bool",
          "name": "",
          "type": "bool"
        }
      ],
      "stateMutability": "nonpayable",
      "type": "function"
    },
    {
      "inputs": [
        {
          "internalType": "address",
          "name": "from",
          "type": "address"
        },
        {
          "internalType": "address",
          "name": "to",
          "type": "address"
        },
        {
          "internalType": "uint256",
          "name": "amount",
          "type": "uint256"
        }
      ],
      "name": "transferFrom",
      "outputs": [
        {
          "internalType": "bool",
          "name": "",
          "type": "bool"
        }
      ],
      "stateMutability": "nonpayable",
      "type": "function"
    },
    {
      "inputs": [
        {
          "internalType": "address",
          "name": "newOwner",
          "type": "address"
        }
      ],
      "name": "transferOwnership",
      "outputs": [],
      "stateMutability": "nonpayable",
      "type": "function"
    },
    {
      "inputs": [
        {
          "internalType": "uint256",
          "name": "_pid",
          "type": "uint256"
        },
        {
          "internalType": "uint256",
          "name": "_amount",
          "type": "uint256"
        },
        {
          "internalType": "bool",
          "name": "_shouldHarvest",
          "type": "bool"
        }
      ],
      "name": "unstake",
      "outputs": [
        {
          "internalType": "bool",
          "name": "",
          "type": "bool"
        }
      ],
      "stateMutability": "nonpayable",
      "type": "function"
    },
    {
      "inputs": [
        {
          "internalType": "address",
          "name": "_token",
          "type": "address"
        },
        {
          "internalType": "bool",
          "name": "_whitelisted",
          "type": "bool"
        }
      ],
      "name": "updateTokenWhitelist",
      "outputs": [
        {
          "internalType": "bool",
          "name": "",
          "type": "bool"
        }
      ],
      "stateMutability": "nonpayable",
      "type": "function"
    },
    {
      "inputs": [
        {
          "internalType": "address",
          "name": "newImplementation",
          "type": "address"
        }
      ],
      "name": "upgradeTo",
      "outputs": [],
      "stateMutability": "nonpayable",
      "type": "function"
    },
    {
      "inputs": [
        {
          "internalType": "address",
          "name": "newImplementation",
          "type": "address"
        },
        {
          "internalType": "bytes",
          "name": "data",
          "type": "bytes"
        }
      ],
      "name": "upgradeToAndCall",
      "outputs": [],
      "stateMutability": "payable",
      "type": "function"
    },
    {
      "inputs": [
        {
          "internalType": "uint256",
          "name": "",
          "type": "uint256"
        },
        {
          "internalType": "address",
          "name": "",
          "type": "address"
        }
      ],
      "name": "userInfo",
      "outputs": [
        {
          "internalType": "uint256",
          "name": "amount",
          "type": "uint256"
        },
        {
          "internalType": "uint256",
          "name": "unclaimed",
          "type": "uint256"
        },
        {
          "internalType": "uint256",
          "name": "lastRewardTime",
          "type": "uint256"
        },
        {
          "internalType": "uint256",
          "name": "timelock",
          "type": "uint256"
        },
        {
          "internalType": "uint256",
          "name": "timeLimit",
          "type": "uint256"
        },
        {
          "internalType": "uint256",
          "name": "unstakeScheduledAmount",
          "type": "uint256"
        }
      ],
      "stateMutability": "view",
      "type": "function"
    },
    {
      "inputs": [
        {
          "internalType": "uint256",
          "name": "_pid",
          "type": "uint256"
        }
      ],
      "name": "viewBountyBalance",
      "outputs": [
        {
          "internalType": "uint256",
          "name": "",
          "type": "uint256"
        }
      ],
      "stateMutability": "view",
      "type": "function"
    },
    {
      "inputs": [
        {
          "internalType": "uint256",
          "name": "_pid",
          "type": "uint256"
        }
      ],
      "name": "viewBountyInfo",
      "outputs": [
        {
          "internalType": "uint256",
          "name": "payout",
          "type": "uint256"
        },
        {
          "internalType": "uint256",
          "name": "apy",
          "type": "uint256"
        },
        {
          "internalType": "uint256",
          "name": "staked",
          "type": "uint256"
        },
        {
          "internalType": "uint256",
          "name": "poolCap",
          "type": "uint256"
        }
      ],
      "stateMutability": "view",
      "type": "function"
    },
    {
      "inputs": [
        {
          "internalType": "uint256",
          "name": "_pid",
          "type": "uint256"
        }
      ],
      "name": "viewHackerPayout",
      "outputs": [
        {
          "internalType": "uint256",
          "name": "",
          "type": "uint256"
        }
      ],
      "stateMutability": "view",
      "type": "function"
    },
    {
      "inputs": [
        {
          "internalType": "uint256",
          "name": "_pid",
          "type": "uint256"
        }
      ],
      "name": "viewPoolAPY",
      "outputs": [
        {
          "internalType": "uint256",
          "name": "",
          "type": "uint256"
        }
      ],
      "stateMutability": "view",
      "type": "function"
    },
    {
      "inputs": [
        {
          "internalType": "uint256",
          "name": "_pid",
          "type": "uint256"
        }
      ],
      "name": "viewPoolCap",
      "outputs": [
        {
          "internalType": "uint256",
          "name": "",
          "type": "uint256"
        }
      ],
      "stateMutability": "view",
      "type": "function"
    },
    {
      "inputs": [
        {
          "internalType": "uint256",
          "name": "_pid",
          "type": "uint256"
        }
      ],
      "name": "viewPoolPremiumInfo",
      "outputs": [
        {
          "internalType": "uint256",
          "name": "requiredPremiumBalancePerPeriod",
          "type": "uint256"
        },
        {
          "internalType": "uint256",
          "name": "premiumBalance",
          "type": "uint256"
        },
        {
          "internalType": "uint256",
          "name": "premiumAvailable",
          "type": "uint256"
        }
      ],
      "stateMutability": "view",
      "type": "function"
    },
    {
      "inputs": [
        {
          "internalType": "uint256",
          "name": "_pid",
          "type": "uint256"
        }
      ],
      "name": "viewPoolTimelockInfo",
      "outputs": [
        {
          "internalType": "uint256",
          "name": "timelock",
          "type": "uint256"
        },
        {
          "internalType": "uint256",
          "name": "timeLimit",
          "type": "uint256"
        },
        {
          "internalType": "uint256",
          "name": "withdrawalScheduledAmount",
          "type": "uint256"
        }
      ],
      "stateMutability": "view",
      "type": "function"
    },
    {
      "inputs": [
        {
          "internalType": "address",
          "name": "_token",
          "type": "address"
        }
      ],
      "name": "viewSaloonProfitBalance",
      "outputs": [
        {
          "internalType": "uint256",
          "name": "totalProfit",
          "type": "uint256"
        },
        {
          "internalType": "uint256",
          "name": "bountyProfit",
          "type": "uint256"
        },
        {
          "internalType": "uint256",
          "name": "premiumProfit",
          "type": "uint256"
        }
      ],
      "stateMutability": "view",
      "type": "function"
    },
    {
      "inputs": [
        {
          "internalType": "uint256",
          "name": "_pid",
          "type": "uint256"
        }
      ],
      "name": "viewTotalStaked",
      "outputs": [
        {
          "internalType": "uint256",
          "name": "",
          "type": "uint256"
        }
      ],
      "stateMutability": "view",
      "type": "function"
    },
    {
      "inputs": [
        {
          "internalType": "uint256",
          "name": "_pid",
          "type": "uint256"
        },
        {
          "internalType": "address",
          "name": "_user",
          "type": "address"
        }
      ],
      "name": "viewUserInfo",
      "outputs": [
        {
          "internalType": "uint256",
          "name": "amount",
          "type": "uint256"
        },
        {
          "internalType": "uint256",
          "name": "actualPending",
          "type": "uint256"
        },
        {
          "internalType": "uint256",
          "name": "unstakeScheduledAmount",
          "type": "uint256"
        },
        {
          "internalType": "uint256",
          "name": "timelock",
          "type": "uint256"
        }
      ],
      "stateMutability": "view",
      "type": "function"
    },
    {
      "inputs": [
        {
          "internalType": "uint256",
          "name": "_pid",
          "type": "uint256"
        },
        {
          "internalType": "address",
          "name": "_user",
          "type": "address"
        }
      ],
      "name": "viewUserUnclaimed",
      "outputs": [
        {
          "internalType": "uint256",
          "name": "unclaimed",
          "type": "uint256"
        }
      ],
      "stateMutability": "view",
      "type": "function"
    },
    {
      "inputs": [
        {
          "internalType": "uint256",
          "name": "_pid",
          "type": "uint256"
        }
      ],
      "name": "windDownBounty",
      "outputs": [
        {
          "internalType": "bool",
          "name": "",
          "type": "bool"
        }
      ],
      "stateMutability": "nonpayable",
      "type": "function"
    }
  ],
  "bytecode": {
    "object": "0x60a0604052306080523480156200001557600080fd5b50600160ca55600054610100900460ff16158080156200003c5750600054600160ff909116105b806200006c575062000059306200019760201b620043231760201c565b1580156200006c575060005460ff166001145b620000d55760405162461bcd60e51b815260206004820152602e60248201527f496e697469616c697a61626c653a20636f6e747261637420697320616c72656160448201526d191e481a5b9a5d1a585b1a5e995960921b60648201526084015b60405180910390fd5b6000805460ff191660011790558015620000f9576000805461ff0019166101001790555b620001496040518060400160405280600b81526020016a2137bab73a3caa37b5b2b760a91b8152506040518060400160405280600381526020016210951560ea1b815250620001a660201b60201c565b801562000190576000805461ff0019169055604051600181527f7f26b83ff96e1f2b6a682f133852f6798a09c465da95921460cefb38474024989060200160405180910390a15b5062000400565b6001600160a01b03163b151590565b600054610100900460ff16620002025760405162461bcd60e51b815260206004820152602b60248201526000805160206200655883398151915260448201526a6e697469616c697a696e6760a81b6064820152608401620000cc565b6200020e828262000212565b5050565b600054610100900460ff166200026e5760405162461bcd60e51b815260206004820152602b60248201526000805160206200655883398151915260448201526a6e697469616c697a696e6760a81b6064820152608401620000cc565b60ce6200027c838262000334565b5060cf6200028b828262000334565b505050565b634e487b7160e01b600052604160045260246000fd5b600181811c90821680620002bb57607f821691505b602082108103620002dc57634e487b7160e01b600052602260045260246000fd5b50919050565b601f8211156200028b57600081815260208120601f850160051c810160208610156200030b5750805b601f850160051c820191505b818110156200032c5782815560010162000317565b505050505050565b81516001600160401b0381111562000350576200035062000290565b6200036881620003618454620002a6565b84620002e2565b602080601f831160018114620003a05760008415620003875750858301515b600019600386901b1c1916600185901b1785556200032c565b600085815260208120601f198616915b82811015620003d157888601518255948401946001909101908401620003b0565b5085821015620003f05787850151600019600388901b60f8161c191681555b5050505050600190811b01905550565b6080516161206200043860003960008181610de801528181610e310152818161170b0152818161174b01526117de01526161206000f3fe6080604052600436106103505760003560e01c80638129fc1c116101c6578063ac30b856116100f7578063dbdd695711610095578063e5e97c651161006f578063e5e97c6514610aad578063ecd7fbed14610acd578063f2fde38b14610aed578063f47ec3be14610b0d57600080fd5b8063dbdd695714610a40578063dd62ed3e14610a60578063e45abd0f14610a8057600080fd5b8063bb7019c1116100d1578063bb7019c1146109b3578063ca006148146109d3578063cee6b06914610a00578063cf9564b914610a2057600080fd5b8063ac30b8561461095e578063b1a2d16f1461097e578063b842e87f1461099e57600080fd5b8063962ca49611610164578063a27f92131161013e578063a27f9213146108de578063a457c2d7146108fe578063a754ecb01461091e578063a9059cbb1461093e57600080fd5b8063962ca49614610889578063983c1ce01461089e5780639f224f35146108be57600080fd5b80638dbb1e3a116101a05780638dbb1e3a146107ab57806391635b4e146107cb57806393f1a40b146107eb57806395d89b411461087457600080fd5b80638129fc1c14610744578063861e5f66146107595780638da5cb5b1461077957600080fd5b806348e43af4116102a05780636ac6d8121161023e578063718c7eef11610218578063718c7eef146106b3578063753d7563146106d357806379b91d6914610704578063804fd5901461072457600080fd5b80636ac6d8121461063d5780636e9c931c1461065d57806370a082311461067d57600080fd5b80635669cbef1161027a5780635669cbef1461059757806357a86d3a146105b75780635c46f7b1146105d75780635e3b748b146105f757600080fd5b806348e43af4146105345780634f1ef2861461056f57806352d1902d1461058257600080fd5b80632dbe051e1161030d57806339509351116102e7578063395093511461049457806339679ff4146104b45780633ac6ad7b146104d457806340ef2868146104f457600080fd5b80632dbe051e14610436578063313ce567146104565780633659cfe61461047257600080fd5b806306fdde0314610355578063081e3eda14610380578063095ea7b31461039f5780631526fe27146103cf57806318160ddd1461040157806323b872dd14610416575b600080fd5b34801561036157600080fd5b5061036a610b2d565b6040516103779190615716565b60405180910390f35b34801561038c57600080fd5b5060fd545b604051908152602001610377565b3480156103ab57600080fd5b506103bf6103ba366004615740565b610bbf565b6040519015158152602001610377565b3480156103db57600080fd5b506103ef6103ea36600461576a565b610bd9565b60405161037796959493929190615783565b34801561040d57600080fd5b5060cd54610391565b34801561042257600080fd5b506103bf610431366004615897565b610d9e565b34801561044257600080fd5b506103bf61045136600461576a565b610dc4565b34801561046257600080fd5b5060405160128152602001610377565b34801561047e57600080fd5b5061049261048d3660046158d3565b610dde565b005b3480156104a057600080fd5b506103bf6104af366004615740565b610ec6565b3480156104c057600080fd5b506103916104cf36600461576a565b610ee8565b3480156104e057600080fd5b506103bf6104ef3660046158ee565b611129565b34801561050057600080fd5b5061051461050f36600461576a565b6115c0565b604080519485526020850193909352918301526060820152608001610377565b34801561054057600080fd5b5061055461054f366004615913565b6115f9565b60408051938452602084019290925290820152606001610377565b61049261057d3660046159cb565b611701565b34801561058e57600080fd5b506103916117d1565b3480156105a357600080fd5b506103bf6105b2366004615a2d565b611884565b3480156105c357600080fd5b506104926105d2366004615a2d565b6119a8565b3480156105e357600080fd5b506103916105f2366004615a2d565b611a85565b34801561060357600080fd5b50610391610612366004615913565b6000918252610100602090815260408084206001600160a01b03909316845291905290206001015490565b34801561064957600080fd5b5061039161065836600461576a565b611dd7565b34801561066957600080fd5b506103bf6106783660046158ee565b612025565b34801561068957600080fd5b506103916106983660046158d3565b6001600160a01b0316600090815260cb602052604090205490565b3480156106bf57600080fd5b506105546106ce3660046158d3565b612494565b3480156106df57600080fd5b506103bf6106ee3660046158d3565b6101016020526000908152604090205460ff1681565b34801561071057600080fd5b506103bf61071f366004615a5d565b6124ca565b34801561073057600080fd5b5061039161073f366004615a96565b6127a8565b34801561075057600080fd5b50610492612b23565b34801561076557600080fd5b5061039161077436600461576a565b612c33565b34801561078557600080fd5b506033546001600160a01b03165b6040516001600160a01b039091168152602001610377565b3480156107b757600080fd5b506103916107c6366004615a2d565b612ea4565b3480156107d757600080fd5b506103bf6107e6366004615a2d565b612eb0565b3480156107f757600080fd5b50610847610806366004615913565b610100602090815260009283526040808420909152908252902080546001820154600283015460038401546004850154600590950154939492939192909186565b604080519687526020870195909552938501929092526060840152608083015260a082015260c001610377565b34801561088057600080fd5b5061036a612f8a565b34801561089557600080fd5b50610391612f99565b3480156108aa57600080fd5b506103bf6108b9366004615a2d565b612fab565b3480156108ca57600080fd5b506107936108d936600461576a565b613105565b3480156108ea57600080fd5b506103916108f936600461576a565b613130565b34801561090a57600080fd5b506103bf610919366004615740565b613374565b34801561092a57600080fd5b50610514610939366004615913565b6133fa565b34801561094a57600080fd5b506103bf610959366004615740565b61344b565b34801561096a57600080fd5b5061055461097936600461576a565b613459565b34801561098a57600080fd5b5061055461099936600461576a565b6136af565b3480156109aa57600080fd5b50610492613905565b3480156109bf57600080fd5b506103bf6109ce36600461576a565b613985565b3480156109df57600080fd5b506103916109ee3660046158d3565b60ff6020526000908152604090205481565b348015610a0c57600080fd5b50610492610a1b366004615b08565b613a0a565b348015610a2c57600080fd5b506103bf610a3b366004615b4e565b613ca1565b348015610a4c57600080fd5b50610391610a5b36600461576a565b613d0d565b348015610a6c57600080fd5b50610391610a7b366004615b4e565b613f4e565b348015610a8c57600080fd5b50610391610a9b3660046158d3565b60fe6020526000908152604090205481565b348015610ab957600080fd5b506103bf610ac8366004615b78565b613f79565b348015610ad957600080fd5b506103bf610ae83660046158d3565b6141ae565b348015610af957600080fd5b50610492610b083660046158d3565b614276565b348015610b1957600080fd5b50610492610b2836600461576a565b614305565b606060ce8054610b3c90615baf565b80601f0160208091040260200160405190810160405280929190818152602001828054610b6890615baf565b8015610bb55780601f10610b8a57610100808354040283529160200191610bb5565b820191906000526020600020905b815481529060010190602001808311610b9857829003601f168201915b5050505050905090565b600033610bcd818585614332565b60019150505b92915050565b60fd8181548110610be957600080fd5b60009182526020918290206040805161012081018252601390930290910180546001600160a01b03808216855260ff600160a01b8304169585019590955261ffff600160a81b909104169183019190915260018101549092166060820152600282018054929350909183916080840191610c6290615baf565b80601f0160208091040260200160405190810160405280929190818152602001828054610c8e90615baf565b8015610cdb5780601f10610cb057610100808354040283529160200191610cdb565b820191906000526020600020905b815481529060010190602001808311610cbe57829003601f168201915b5050509183525050600382015460208083019190915260048301546040808401919091526005840154606080850191909152600690940154608093840152805180850182526007870154815260088701548184015260098701548183015281519384018252600a8701548452600b87015484840152600c87015484830152600d87015460ff9081161515958501959095528151808301909252600e8701548252600f87015492820192909252601186015460129096015494959194929390921686565b600033610dac858285614456565b610db78585856144d0565b60019150505b9392505050565b6000610dce61467b565b610dd98260006146d5565b919050565b6001600160a01b037f0000000000000000000000000000000000000000000000000000000000000000163003610e2f5760405162461bcd60e51b8152600401610e2690615be9565b60405180910390fd5b7f00000000000000000000000000000000000000000000000000000000000000006001600160a01b0316610e786000805160206160a4833981519152546001600160a01b031690565b6001600160a01b031614610e9e5760405162461bcd60e51b8152600401610e2690615c35565b610ea78161480b565b60408051600080825260208201909252610ec391839190614813565b50565b600033610bcd818585610ed98383613f4e565b610ee39190615c97565b614332565b60008060fd8381548110610efe57610efe615caa565b6000918252602090912060408051610200810190915260139092020180546001600160a01b0380821660e08501908152600160a01b830460ff16610100860152600160a81b90920461ffff16610120850152600183015416610140840152600282018054849291849161016085019190610f7790615baf565b80601f0160208091040260200160405190810160405280929190818152602001828054610fa390615baf565b8015610ff05780601f10610fc557610100808354040283529160200191610ff0565b820191906000526020600020905b815481529060010190602001808311610fd357829003601f168201915b505050918352505060038201546020808301919091526004830154604080840191909152600584015460608085019190915260069094015460809384015293855283518084018552600787015481526008870154818301526009870154818601528582015283518083018552600a8701548152600b87015481830152600c87015481860152600d87015460ff161515818501528585015283518085018552600e8701548152600f8701548183015292850192909252601085018054845181850281018501909552808552949091019390918301828280156110fa57602002820191906000526020600020905b81546001600160a01b031681526001909101906020018083116110dc575b50505091835250506011820154602082015260129091015460ff1615156040909101525160c001519392505050565b600061113361467b565b600060fd858154811061114857611148615caa565b600091825260208220600560139092020190810154600382015491935091906111719083615c97565b9050808286116113125782860361121557601084015460005b818110156111f75760008660100182815481106111a9576111a9615caa565b60009182526020808320909101548d8352610100825260408084206001600160a01b0390921680855291909252908220909250906111ea908d908490614983565b600090555060010161118a565b5060006005860181905561120f90601087019061553f565b506114bf565b60008361122a670de0b6b3a764000089615cc0565b6112349190615ced565b601086015490915060005b8181101561130a57600087601001828154811061125e5761125e615caa565b60009182526020808320909101548e8352610100825260408084206001600160a01b03909216808552919092529082209092509061129f908e908490614983565b6000670de0b6b3a76400008683600001546112ba9190615cc0565b6112c49190615ced565b9050808260000160008282546112da9190615d0f565b909155505060058a0180548291906000906112f6908490615d0f565b90915550506001909301925061123f915050565b5050506114bf565b828611801561132057508186105b156113e457601084015460005b8181101561139a57600086601001828154811061134c5761134c615caa565b60009182526020808320909101548d8352610100825260408084206001600160a01b03909216808552919092529082209092509061138d908d908490614983565b600090555060010161132d565b506000600586018190556113b290601087019061553f565b60006113be8585615d0f565b9050808660000160030160008282546113d79190615d0f565b909155506114bf92505050565b81860361148557601084015460005b8181101561146057600086601001828154811061141257611412615caa565b60009182526020808320909101548d8352610100825260408084206001600160a01b039092168085529190925290822090925090611453908d908490614983565b60009055506001016113f3565b5060006005860181905561147890601087019061553f565b50600060038501556114bf565b60405162461bcd60e51b815260206004820152600f60248201526e082dadeeadce840e8dede40d0d2ced608b1b6044820152606401610e26565b60006127106114d06103e889615cc0565b6114da9190615ced565b905060006114e88289615d0f565b86546001600160a01b0316600090815260fe6020526040812080549293508492909190611516908490615c97565b90915550508554611531906001600160a01b03168a83614ae5565b506003860154600587015460009161154891615c97565b87546040518b81529192506001600160a01b0390811691908c169042907fc351e6e0f377ec1a399ec84224a83d6a4b9f3cd9a5530e5c652d0b11c2f8dae29060200160405180910390a480848c60008051602061608483398151915260405160405180910390a45060019a9950505050505050505050565b6000806000806115cf85612c33565b93506115da85613d0d565b91506115e585613130565b92506115f085610ee8565b90509193509193565b60008060008060fd868154811061161257611612615caa565b60009182526020808320898452610100825260408085206001600160a01b038b1686529092529083206013929092020160058101546011820154919450919290810361165e5742611664565b83601101545b90506000611676846002015483612ea4565b855485549192506301e133809183916127109161169e91600160a81b900461ffff1690615cc0565b6116a89190615ced565b6116b29190615cc0565b6116bc9190615ced565b95508360010154866116ce9190615c97565b97506127106116df6103e882615d0f565b6116e9908a615cc0565b6116f39190615ced565b965050505050509250925092565b6001600160a01b037f00000000000000000000000000000000000000000000000000000000000000001630036117495760405162461bcd60e51b8152600401610e2690615be9565b7f00000000000000000000000000000000000000000000000000000000000000006001600160a01b03166117926000805160206160a4833981519152546001600160a01b031690565b6001600160a01b0316146117b85760405162461bcd60e51b8152600401610e2690615c35565b6117c18261480b565b6117cd82826001614813565b5050565b6000306001600160a01b037f000000000000000000000000000000000000000000000000000000000000000016146118715760405162461bcd60e51b815260206004820152603860248201527f555550535570677261646561626c653a206d757374206e6f742062652063616c60448201527f6c6564207468726f7567682064656c656761746563616c6c00000000000000006064820152608401610e26565b506000805160206160a483398151915290565b60008060fd848154811061189a5761189a615caa565b9060005260206000209060130201905082816000016003015410156119015760405162461bcd60e51b815260206004820152601a60248201527f416d6f756e7420626967676572207468616e206465706f7369740000000000006044820152606401610e26565b60018101546001600160a01b0316331461192d5760405162461bcd60e51b8152600401610e2690615d22565b61193a62093a8042615c97565b600a82015561194c62093a8042615c97565b611959906203f480615c97565b600b820155600c8101839055600d8101805460ff19169055604051839085907fb3b9c925de3673837b40c6b4d4463a8f88dc821cd27e07f1ff6bf6abf96413a590600090a35060019392505050565b600060fd83815481106119bd576119bd615caa565b6000918252602090912060139091020160018101549091506001600160a01b031633146119fc5760405162461bcd60e51b8152600401610e2690615d22565b60038101546005820154600091611a1291615c97565b8254909150611a2c906001600160a01b0316333086614b4b565b5082826000016003016000828254611a449190615c97565b909155505060038201546005830154600091611a5f91615c97565b905080828660008051602061608483398151915260405160405180910390a45050505050565b60008060fd8381548110611a9b57611a9b615caa565b6000918252602090912060408051610200810190915260139092020180546001600160a01b0380821660e08501908152600160a01b830460ff16610100860152600160a81b90920461ffff16610120850152600183015416610140840152600282018054849291849161016085019190611b1490615baf565b80601f0160208091040260200160405190810160405280929190818152602001828054611b4090615baf565b8015611b8d5780601f10611b6257610100808354040283529160200191611b8d565b820191906000526020600020905b815481529060010190602001808311611b7057829003601f168201915b505050918352505060038201546020808301919091526004830154604080840191909152600584015460608085019190915260069094015460809384015293855283518084018552600787015481526008870154818301526009870154818601528582015283518083018552600a8701548152600b87015481830152600c87015481860152600d87015460ff161515818501528585015283518085018552600e8701548152600f870154818301529285019290925260108501805484518185028101850190955280855294909101939091830182828015611c9757602002820191906000526020600020905b81546001600160a01b03168152600190910190602001808311611c79575b50505091835250506011820154602082015260129091015460ff1615156040909101526060810151519091506000611ccf8686614b8e565b5090506000611cde8383615c97565b90506000611ced826021615cc0565b611cff90674563918244f40000615c97565b90506000611d0e856021615cc0565b611d2090674563918244f40000615c97565b90506000611d35611d3084614bea565b614c33565b90506000611d45611d3084614bea565b90506000611d83611d566021614bea565b611d7d611d638686614c6b565b611d776a295be96e64066972000000614bea565b90614c7a565b90614c89565b90506000611d9488620f4240615cc0565b611d9e9083615ced565b8a516101000151909150670de0b6b3a7640000611dbb8284615cc0565b611dc59190615ced565b9e9d5050505050505050505050505050565b60008060fd8381548110611ded57611ded615caa565b6000918252602090912060408051610200810190915260139092020180546001600160a01b0380821660e08501908152600160a01b830460ff16610100860152600160a81b90920461ffff16610120850152600183015416610140840152600282018054849291849161016085019190611e6690615baf565b80601f0160208091040260200160405190810160405280929190818152602001828054611e9290615baf565b8015611edf5780601f10611eb457610100808354040283529160200191611edf565b820191906000526020600020905b815481529060010190602001808311611ec257829003601f168201915b505050918352505060038201546020808301919091526004830154604080840191909152600584015460608085019190915260069094015460809384015293855283518084018552600787015481526008870154818301526009870154818601528582015283518083018552600a8701548152600b87015481830152600c87015481860152600d87015460ff161515818501528585015283518085018552600e8701548152600f870154818301529285019290925260108501805484518185028101850190955280855294909101939091830182828015611fe957602002820191906000526020600020905b81546001600160a01b03168152600190910190602001808311611fcb575b50505091835250506011820154602082015260129091015460ff161515604090910152805160a081015160e090910151919250610dbd91615c97565b600061202f614ca1565b83600060fd828154811061204557612045615caa565b6000918252602090912060408051610200810190915260139092020180546001600160a01b0380821660e08501908152600160a01b830460ff16610100860152600160a81b90920461ffff166101208501526001830154166101408401526002820180548492918491610160850191906120be90615baf565b80601f01602080910402602001604051908101604052809291908181526020018280546120ea90615baf565b80156121375780601f1061210c57610100808354040283529160200191612137565b820191906000526020600020905b81548152906001019060200180831161211a57829003601f168201915b505050918352505060038201546020808301919091526004830154604080840191909152600584015460608085019190915260069094015460809384015293855283518084018552600787015481526008870154818301526009870154818601528582015283518083018552600a8701548152600b87015481830152600c87015481860152600d87015460ff161515818501528585015283518085018552600e8701548152600f87015481830152928501929092526010850180548451818502810185019095528085529490910193909183018282801561224157602002820191906000526020600020905b81546001600160a01b03168152600190910190602001808311612223575b50505091835250506011820154602082015260129091015460ff16151560409091015260c08101519091506122aa5760405162461bcd60e51b815260206004820152600f60248201526e706f6f6c206e6f742061637469766560881b6044820152606401610e26565b600084116122b757600080fd5b600060fd87815481106122cc576122cc615caa565b600091825260208083208a8452610100825260408085206001600160a01b038c168652909252908320601392909202016003810154600582015491945091929161231591615c97565b905061232389896001614983565b815460000361235d57601083018054600181018255600091825260209091200180546001600160a01b0319166001600160a01b038a161790555b8254612374906001600160a01b031633308a614b4b565b50868260000160008282546123899190615c97565b90915550506005830180548891906000906123a5908490615c97565b90915550506004830154158015906123c557506004830154600584015411155b6124075760405162461bcd60e51b8152602060048201526013602482015272115e18d959591959081c1bdbdb081b1a5b5a5d606a1b6044820152606401610e26565b88886001600160a01b03167f1449c6dd7851abc30abf37f57715f492010519147cc2652fbc38202c18a6ee908960405161244391815260200190565b60405180910390a36003830154600584015460009161246191615c97565b905080828b60008051602061608483398151915260405160405180910390a460019650505050505050610dbd600160ca55565b6001600160a01b038116600090815260fe602090815260408083205460ff9092528220546124c28282615c97565b949193509150565b60006124d4614ca1565b600060fd85815481106124e9576124e9615caa565b600091825260208083208884526101008252604080852033865290925292208054601390920290920192508511156125585760405162461bcd60e51b81526020600482015260126024820152711dda5d1a191c985dce881b9bdd0819dbdbd960721b6044820152606401610e26565b42816003015410801561256e5750428160040154115b801561257e575084816005015410155b801561258d5750600381015415155b6125a95760405162461bcd60e51b8152600401610e2690615d4a565b6000600380830182905583015460058401546125c59190615c97565b90506125d2873387614983565b85156126125781546125e49087614cfa565b825560058301546125f59087614cfa565b60058401558254612610906001600160a01b03163388614ae5565b505b815460000361272a57601083015460005b8181101561272757336001600160a01b031685601001828154811061264a5761264a615caa565b6000918252602090912001546001600160a01b03160361271f57600060108601612675600185615d0f565b8154811061268557612685615caa565b6000918252602090912001546010870180546001600160a01b0390921692508291849081106126b6576126b6615caa565b9060005260206000200160006101000a8154816001600160a01b0302191690836001600160a01b03160217905550856010018054806126f7576126f7615d93565b600082815260209020810160001990810180546001600160a01b031916905501905550612727565b600101612623565b50505b604051868152879033907f7fc4727e062e336010f2c282598ef5f14facb3de68cf8195c2f23e1454b2b74e9060200160405180910390a36003830154600584015460009161277791615c97565b905080828960008051602061608483398151915260405160405180910390a46001945050505050610dbd600160ca55565b60006127b261467b565b6001600160a01b0384166000908152610101602052604090205460ff166128135760405162461bcd60e51b81526020600482015260156024820152741d1bdad95b881b9bdd081dda1a5d195b1a5cdd1959605a1b6044820152606401610e26565b60408051600481526024810182526020810180516001600160e01b031663313ce56760e01b17905290516000916001600160a01b038716916128559190615da9565b600060405180830381855afa9150503d8060008114612890576040519150601f19603f3d011682016040523d82523d6000602084013e612895565b606091505b509150506000818060200190518101906128af9190615dc5565b90506128b961555d565b80516001600160a01b03808916909152815160ff8085166020928301528351898416606091820152845160809081018a90528551600060a091820181905287516040908101829052885160c0908101839052895161010001839052895160e001839052818a0180518490528051890184905280518301849052518601839052890182905291880181905260fd805460018101825591528751805160139092027f9346ac6dd7de6b96975fec380d4d994c4c12e6a8897544f22915316cc6cca28081018054988301519483015161ffff16600160a81b0261ffff60a81b1995909816600160a01b026001600160a81b0319909916938a16939093179790971792909216949094178455918201517f9346ac6dd7de6b96975fec380d4d994c4c12e6a8897544f22915316cc6cca28185018054919096166001600160a01b03199190911617909455928301518493919283917f9346ac6dd7de6b96975fec380d4d994c4c12e6a8897544f22915316cc6cca28290910190612a389082615e36565b5060a0820151600382015560c0820151600482015560e0820151600582015561010090910151600690910155602082810151805160078401558082015160088401556040908101516009840155808401518051600a85015580830151600b85015590810151600c840155606090810151600d8401805460ff19169115159190911790558301518051600e840155810151600f83015560808301518051612ae4926010850192019061564c565b5060a0820151601182015560c0909101516012909101805460ff191691151591909117905560fd54612b1890600190615d0f565b979650505050505050565b600054610100900460ff1615808015612b435750600054600160ff909116105b80612b5d5750303b158015612b5d575060005460ff166001145b612bc05760405162461bcd60e51b815260206004820152602e60248201527f496e697469616c697a61626c653a20636f6e747261637420697320616c72656160448201526d191e481a5b9a5d1a585b1a5e995960921b6064820152608401610e26565b6000805460ff191660011790558015612be3576000805461ff0019166101001790555b612beb614d06565b8015610ec3576000805461ff0019169055604051600181527f7f26b83ff96e1f2b6a682f133852f6798a09c465da95921460cefb38474024989060200160405180910390a150565b60008060fd8381548110612c4957612c49615caa565b6000918252602090912060408051610200810190915260139092020180546001600160a01b0380821660e08501908152600160a01b830460ff16610100860152600160a81b90920461ffff16610120850152600183015416610140840152600282018054849291849161016085019190612cc290615baf565b80601f0160208091040260200160405190810160405280929190818152602001828054612cee90615baf565b8015612d3b5780601f10612d1057610100808354040283529160200191612d3b565b820191906000526020600020905b815481529060010190602001808311612d1e57829003601f168201915b505050918352505060038201546020808301919091526004830154604080840191909152600584015460608085019190915260069094015460809384015293855283518084018552600787015481526008870154818301526009870154818601528582015283518083018552600a8701548152600b87015481830152600c87015481860152600d87015460ff161515818501528585015283518085018552600e8701548152600f870154818301529285019290925260108501805484518185028101850190955280855294909101939091830182828015612e4557602002820191906000526020600020905b81546001600160a01b03168152600190910190602001808311612e27575b50505091835250506011820154602082015260129091015460ff1615156040909101529050612710612e796103e882615d0f565b825160a081015160e090910151612e909190615c97565b612e9a9190615cc0565b610dbd9190615ced565b6000610dbd8284614cfa565b60008281526101006020908152604080832033845290915281208054831115612f1b5760405162461bcd60e51b815260206004820152601a60248201527f416d6f756e7420626967676572207468616e206465706f7369740000000000006044820152606401610e26565b612f2862093a8042615c97565b6003820155612f3a62093a8042615c97565b612f47906203f480615c97565b600482015560058101839055604051839085907fb3b9c925de3673837b40c6b4d4463a8f88dc821cd27e07f1ff6bf6abf96413a590600090a35060019392505050565b606060cf8054610b3c90615baf565b600080612fa581614d35565b91505090565b60008060fd8481548110612fc157612fc1615caa565b6000918252602090912060139091020160018101549091506001600160a01b031633146130005760405162461bcd60e51b8152600401610e2690615d22565b600a810154421180156130165750600b81015442105b80156130275750600d81015460ff16155b80156130375750600c8101548311155b80156130465750600a81015415155b6130625760405162461bcd60e51b8152600401610e2690615d4a565b600d8101805460ff191660011790556003810154600582015460009161308791615c97565b9050838260000160030160008282546130a09190615d0f565b9091555050600182015482546130c3916001600160a01b03918216911686614ae5565b50600382015460058301546000916130da91615c97565b905080828760008051602061608483398151915260405160405180910390a450600195945050505050565b610102818154811061311657600080fd5b6000918252602090912001546001600160a01b0316905081565b60008060fd838154811061314657613146615caa565b6000918252602090912060408051610200810190915260139092020180546001600160a01b0380821660e08501908152600160a01b830460ff16610100860152600160a81b90920461ffff166101208501526001830154166101408401526002820180548492918491610160850191906131bf90615baf565b80601f01602080910402602001604051908101604052809291908181526020018280546131eb90615baf565b80156132385780601f1061320d57610100808354040283529160200191613238565b820191906000526020600020905b81548152906001019060200180831161321b57829003601f168201915b505050918352505060038201546020808301919091526004830154604080840191909152600584015460608085019190915260069094015460809384015293855283518084018552600787015481526008870154818301526009870154818601528582015283518083018552600a8701548152600b87015481830152600c87015481860152600d87015460ff161515818501528585015283518085018552600e8701548152600f87015481830152928501929092526010850180548451818502810185019095528085529490910193909183018282801561334257602002820191906000526020600020905b81546001600160a01b03168152600190910190602001808311613324575b50505091835250506011820154602082015260129091015460ff1615156040918201529051015161ffff169392505050565b600033816133828286613f4e565b9050838110156133e25760405162461bcd60e51b815260206004820152602560248201527f45524332303a2064656372656173656420616c6c6f77616e63652062656c6f77604482015264207a65726f60d81b6064820152608401610e26565b6133ef8286868403614332565b506001949350505050565b6000828152610100602090815260408083206001600160a01b03851684529091528120805491908190819061342f87876115f9565b5060058301546003909301549699909850919650909350505050565b600033610bcd8185856144d0565b60008060008060fd858154811061347257613472615caa565b6000918252602090912060408051610200810190915260139092020180546001600160a01b0380821660e08501908152600160a01b830460ff16610100860152600160a81b90920461ffff166101208501526001830154166101408401526002820180548492918491610160850191906134eb90615baf565b80601f016020809104026020016040519081016040528092919081815260200182805461351790615baf565b80156135645780601f1061353957610100808354040283529160200191613564565b820191906000526020600020905b81548152906001019060200180831161354757829003601f168201915b505050918352505060038201546020808301919091526004830154604080840191909152600584015460608085019190915260069094015460809384015293855283518084018552600787015481526008870154818301526009870154818601528582015283518083018552600a8701548152600b87015481830152600c87015481860152600d87015460ff161515818501528585015283518085018552600e8701548152600f87015481830152928501929092526010850180548451818502810185019095528085529490910193909183018282801561366e57602002820191906000526020600020905b81546001600160a01b03168152600190910190602001808311613650575b5050509183525050601182015460208083019190915260129092015460ff161515604091820152918201518051918101519201519097919650945092505050565b60008060008060fd85815481106136c8576136c8615caa565b6000918252602090912060408051610200810190915260139092020180546001600160a01b0380821660e08501908152600160a01b830460ff16610100860152600160a81b90920461ffff1661012085015260018301541661014084015260028201805484929184916101608501919061374190615baf565b80601f016020809104026020016040519081016040528092919081815260200182805461376d90615baf565b80156137ba5780601f1061378f576101008083540402835291602001916137ba565b820191906000526020600020905b81548152906001019060200180831161379d57829003601f168201915b505050918352505060038201546020808301919091526004830154604080840191909152600584015460608085019190915260069094015460809384015293855283518084018552600787015481526008870154818301526009870154818601528582015283518083018552600a8701548152600b87015481830152600c87015481860152600d87015460ff161515818501528585015283518085018552600e8701548152600f8701548183015292850192909252601085018054845181850281018501909552808552949091019390918301828280156138c457602002820191906000526020600020905b81546001600160a01b031681526001909101906020018083116138a6575b5050509183525050601182015460208083019190915260129092015460ff161515604091820152918101518051918101519201519097919650945092505050565b6034546001600160a01b0316331461396e5760405162461bcd60e51b815260206004820152602660248201527f6f6e6c792070656e64696e67206f776e65722063616e2061636365707420747260448201526530b739b332b960d11b6064820152608401610e26565b603454613983906001600160a01b0316614d95565b565b60008060fd838154811061399b5761399b615caa565b6000918252602090912060139091020160018101549091506001600160a01b03163314806139d357506033546001600160a01b031633145b6139ef5760405162461bcd60e51b8152600401610e2690615d22565b60128101805460ff1916905542601190910155506001919050565b600060fd8581548110613a1f57613a1f615caa565b60009182526020909120601390910201601281015490915060ff16158015613a4957506004810154155b613a955760405162461bcd60e51b815260206004820152601860248201527f506f6f6c20616c726561647920696e697469616c697a656400000000000000006044820152606401610e26565b60008361ffff16118015613aaf57506127108361ffff1611155b613aee5760405162461bcd60e51b815260206004820152601060248201526f415059206f7574206f662072616e676560801b6044820152606401610e26565b8054613b0590600160a01b900460ff16600a615fda565b613b10906064615cc0565b8410158015613b4257508054613b3190600160a01b900460ff16600a615fda565b613b3e9062989680615cc0565b8411155b613b865760405162461bcd60e51b8152602060048201526015602482015274506f6f6c20636170206f7574206f662072616e676560581b6044820152606401610e26565b60018101546001600160a01b03163314613bb25760405162461bcd60e51b8152600401610e2690615d22565b60006301e1338061271062093a80613bce61ffff881689615cc0565b613bd89190615cc0565b613be29190615ced565b613bec9190615ced565b90506000612710613bff6103e884615cc0565b613c099190615ced565b9050613c2d3330613c1a8588615c97565b86546001600160a01b0316929190614b4b565b5083836000016003016000828254613c459190615c97565b909155505060048301869055825461ffff60a81b1916600160a81b61ffff87160217835560128301805460ff191660011790556008830182905560078301829055613c908183615d0f565b600990930192909255505050505050565b6000613cab61467b565b6001600160a01b038316600090815260ff602090815260408083205460fe909252822054613cd99190615c97565b6001600160a01b038516600081815260fe6020908152604080832083905560ff9091528120559091506133ef908483614ae5565b60008060fd8381548110613d2357613d23615caa565b6000918252602090912060408051610200810190915260139092020180546001600160a01b0380821660e08501908152600160a01b830460ff16610100860152600160a81b90920461ffff16610120850152600183015416610140840152600282018054849291849161016085019190613d9c90615baf565b80601f0160208091040260200160405190810160405280929190818152602001828054613dc890615baf565b8015613e155780601f10613dea57610100808354040283529160200191613e15565b820191906000526020600020905b815481529060010190602001808311613df857829003601f168201915b505050918352505060038201546020808301919091526004830154604080840191909152600584015460608085019190915260069094015460809384015293855283518084018552600787015481526008870154818301526009870154818601528582015283518083018552600a8701548152600b87015481830152600c87015481860152600d87015460ff161515818501528585015283518085018552600e8701548152600f870154818301529285019290925260108501805484518185028101850190955280855294909101939091830182828015613f1f57602002820191906000526020600020905b81546001600160a01b03168152600190910190602001808311613f01575b50505091835250506011820154602082015260129091015460ff1615156040909101525160e001519392505050565b6001600160a01b03918216600090815260cc6020908152604080832093909416825291909152205490565b6000613f8361467b565b6001600160a01b0383166000908152610101602052604090205460ff161515821514613fe95760405162461bcd60e51b81526020600482015260156024820152741dda1a5d195b1a5cdd08185b1c9958591e481cd95d605a1b6044820152606401610e26565b6001600160a01b03831660008181526101016020526040808220805460ff191686151590811790915590519092917f99795d51e5a8804307721456a7a9c2f0d7421f719d46a46d36e91fee7c85aa7691a381156140915761010280546001810182556000919091527f93bdaa6a4190909b7c3fbe8d42169ffe1cab19f51dfc8db24c71abf849eced4a0180546001600160a01b0319166001600160a01b0385161790556141a5565b6101025460005b818110156141a257600061010282815481106140b6576140b6615caa565b6000918252602090912001546001600160a01b03908116915086168103614191576101026140e5600185615d0f565b815481106140f5576140f5615caa565b60009182526020909120015461010280546001600160a01b03909216918490811061412257614122615caa565b9060005260206000200160006101000a8154816001600160a01b0302191690836001600160a01b0316021790555061010280548061416257614162615d93565b600082815260209020810160001990810180546001600160a01b03191690550190555060019250610bd3915050565b5061419b81615fe9565b9050614098565b50505b50600192915050565b60006141b861467b565b6101025460005b8181101561426c57600061010282815481106141dd576141dd615caa565b60009182526020808320909101546001600160a01b031680835260ff825260408084205460fe9093528320549093506142169190615c97565b90508060000361422757505061425c565b6001600160a01b038216600081815260fe6020908152604080832083905560ff909152812055614258908783614ae5565b5050505b61426581615fe9565b90506141bf565b5060019392505050565b61427e61467b565b6001600160a01b0381166142e35760405162461bcd60e51b815260206004820152602660248201527f4f776e61626c653a206e6577206f776e657220697320746865207a65726f206160448201526564647265737360d01b6064820152608401610e26565b603480546001600160a01b0319166001600160a01b0392909216919091179055565b61430d614ca1565b61431981336001614983565b610ec3600160ca55565b6001600160a01b03163b151590565b6001600160a01b0383166143945760405162461bcd60e51b8152602060048201526024808201527f45524332303a20617070726f76652066726f6d20746865207a65726f206164646044820152637265737360e01b6064820152608401610e26565b6001600160a01b0382166143f55760405162461bcd60e51b815260206004820152602260248201527f45524332303a20617070726f766520746f20746865207a65726f206164647265604482015261737360f01b6064820152608401610e26565b6001600160a01b03838116600081815260cc602090815260408083209487168084529482529182902085905590518481527f8c5be1e5ebec7d5bd14f71427d1e84f3dd0314c0f7b2291e5b200ac8c7c3b925910160405180910390a3505050565b60006144628484613f4e565b905060001981146144ca57818110156144bd5760405162461bcd60e51b815260206004820152601d60248201527f45524332303a20696e73756666696369656e7420616c6c6f77616e63650000006044820152606401610e26565b6144ca8484848403614332565b50505050565b6001600160a01b0383166145345760405162461bcd60e51b815260206004820152602560248201527f45524332303a207472616e736665722066726f6d20746865207a65726f206164604482015264647265737360d81b6064820152608401610e26565b6001600160a01b0382166145965760405162461bcd60e51b815260206004820152602360248201527f45524332303a207472616e7366657220746f20746865207a65726f206164647260448201526265737360e81b6064820152608401610e26565b6001600160a01b038316600090815260cb60205260409020548181101561460e5760405162461bcd60e51b815260206004820152602660248201527f45524332303a207472616e7366657220616d6f756e7420657863656564732062604482015265616c616e636560d01b6064820152608401610e26565b6001600160a01b03808516600081815260cb602052604080822086860390559286168082529083902080548601905591517fddf252ad1be2c89b69c2b068fc378daa952ba7f163c4a11628f55a4df523b3ef9061466e9086815260200190565b60405180910390a36144ca565b6033546001600160a01b031633146139835760405162461bcd60e51b815260206004820181905260248201527f4f776e61626c653a2063616c6c6572206973206e6f7420746865206f776e65726044820152606401610e26565b600060fd83815481106146ea576146ea615caa565b90600052602060002090601302019050600082826007016001015483600701600001546147179190615d0f565b6147219190615c97565b60018301548354919250614743916001600160a01b0390811691163084614b4b565b5060006127106147556103e884615cc0565b61475f9190615ced565b9050818360070160010160008282546147789190615c97565b909155505082546001600160a01b0316600090815260ff6020526040812080548392906147a6908490615c97565b90915550600090506147b88284615d0f565b9050808460070160020160008282546147d19190615c97565b9091555050604051839087907fadb049ad2d09be3db90459a16aef1ad0a4d89e8fdcc1ade9429d6cc55abbcd2b90600090a3505050505050565b610ec361467b565b7f4910fdfa16fed3260ed0e7147f7cc6da11a60208b5b9406d12a635614ffd91435460ff161561484b5761484683614df2565b505050565b826001600160a01b03166352d1902d6040518163ffffffff1660e01b8152600401602060405180830381865afa9250505080156148a5575060408051601f3d908101601f191682019092526148a291810190616002565b60015b6149085760405162461bcd60e51b815260206004820152602e60248201527f45524331393637557067726164653a206e657720696d706c656d656e7461746960448201526d6f6e206973206e6f74205555505360901b6064820152608401610e26565b6000805160206160a483398151915281146149775760405162461bcd60e51b815260206004820152602960248201527f45524331393637557067726164653a20756e737570706f727465642070726f786044820152681a58589b195555525160ba1b6064820152608401610e26565b50614846838383614e8e565b600060fd848154811061499857614998615caa565b60009182526020808320878452610100825260408085206001600160a01b038916865290925292208054601390920290920192501580156149db57506001810154155b156149ed574260029091015550505050565b60008060006149fc88886115f9565b92509250925085614a4a5780846001016000828254614a1b9190615c97565b90915550506011850154600003614a325742614a38565b84601101545b84600201819055505050505050505050565b6008850154831115614a6057614a6088846146d5565b8215614adb5760006001850181905560118601549003614a805742614a86565b84601101545b6002850155600885018054849190600090614aa2908490615d0f565b9091555050600985018054839190600090614abe908490615d0f565b90915550508454614ad9906001600160a01b03168884614ae5565b505b5050505050505050565b6040516001600160a01b03831660248201526044810182905260009061426c90859063a9059cbb60e01b906064015b60408051601f198184030181529190526020810180516001600160e01b03166001600160e01b031990931692909217909152614eb3565b6040516001600160a01b03808516602483015283166044820152606481018290526000906133ef9086906323b872dd60e01b90608401614b14565b949350505050565b60008060fd8381548110614ba457614ba4615caa565b6000918252602090912060046013909202010154614bca670de0b6b3a764000086615cc0565b614bd49190615ced565b9050614be1816005615cc0565b91509250929050565b6000614c00670de0b6b3a7640000600019615ced565b821115614c23576040516322630c4560e01b815260048101839052602401610e26565b670de0b6b3a76400008202610bd3565b6000610bd36714057b7ef767814f670de0b6b3a7640000614c59614c5686614f85565b90565b0281614c6757614c67615cd7565b0490565b6000610dbd614c568385615d0f565b6000610dbd614c5684846150b8565b6000610dbd614c5684670de0b6b3a76400008561516c565b600260ca5403614cf35760405162461bcd60e51b815260206004820152601f60248201527f5265656e7472616e637947756172643a207265656e7472616e742063616c6c006044820152606401610e26565b600260ca55565b6000610dbd8284615d0f565b600054610100900460ff16614d2d5760405162461bcd60e51b8152600401610e269061601b565b613983615240565b600080670de0b6b3a7640000614d5384670928ca80cfc20000615cc0565b614d5d9190615ced565b614d6f9067016345785d8a0000615c97565b90506000614d8c826ec097ce7bc90715b34b9f1000000000615ced565b90505050919050565b603380546001600160a01b038381166001600160a01b03198084168217909455603480549094169093556040519116919082907f8be0079c531659141344cd1fd0a4f28419497f9722a3daafe3b4186f6b6457e090600090a35050565b6001600160a01b0381163b614e5f5760405162461bcd60e51b815260206004820152602d60248201527f455243313936373a206e657720696d706c656d656e746174696f6e206973206e60448201526c1bdd08184818dbdb9d1c9858dd609a1b6064820152608401610e26565b6000805160206160a483398151915280546001600160a01b0319166001600160a01b0392909216919091179055565b614e9783615270565b600082511180614ea45750805b15614846576144ca83836152b0565b6000614f08826040518060400160405280602081526020017f5361666545524332303a206c6f772d6c6576656c2063616c6c206661696c6564815250856001600160a01b03166153a49092919063ffffffff16565b8051909150156148465780806020019051810190614f269190616066565b6148465760405162461bcd60e51b815260206004820152602a60248201527f5361666545524332303a204552433230206f7065726174696f6e20646964206e6044820152691bdd081cdd58d8d9595960b21b6064820152608401610e26565b600081670de0b6b3a7640000811015614fb457604051633621413760e21b815260048101849052602401610e26565b6000615040670de0b6b3a7640000830460016fffffffffffffffffffffffffffffffff821160071b91821c67ffffffffffffffff811160061b90811c63ffffffff811160051b90811c61ffff811160041b90811c60ff8111600390811b91821c600f811160021b90811c918211871b91821c969096119490961792909217171791909117919091171790565b9050670de0b6b3a7640000810282821c670de0b6b3a763ffff1981016150695750949350505050565b671bc16d674ec800006706f05b59d3b200005b80156150ac57670de0b6b3a76400008380020492508183106150a4579283019260019290921c915b60011c61507c565b50919695505050505050565b60008080600019848609848602925082811083820303915050670de0b6b3a764000081106151035760405163090638d560e41b81526004810186905260248101859052604401610e26565b6000670de0b6b3a764000085870990508160000361512f575050670de0b6b3a764000090049050610bd3565b620400008184030492109003600160ee1b02177faccb18165bd6fe31ae1cf318dc5b51eee0e1ba569b88cd74c1773b91fac1066902905092915050565b60008080600019858709858702925082811083820303915050806000036151a65783828161519c5761519c615cd7565b0492505050610dbd565b8381106151d7576040516307639aaf60e41b8152600481018790526024810186905260448101859052606401610e26565b60008486880960026001871981018816978890046003810283188082028403028082028403028082028403028082028403028082028403029081029092039091026000889003889004909101858311909403939093029303949094049190911702949350505050565b600054610100900460ff166152675760405162461bcd60e51b8152600401610e269061601b565b61398333614d95565b61527981614df2565b6040516001600160a01b038216907fbc7cd75a20ee27fd9adebab32041f755214dbc6bffa90cc0225b39da2e5c2d3b90600090a250565b60606001600160a01b0383163b6153185760405162461bcd60e51b815260206004820152602660248201527f416464726573733a2064656c65676174652063616c6c20746f206e6f6e2d636f6044820152651b9d1c9858dd60d21b6064820152608401610e26565b600080846001600160a01b0316846040516153339190615da9565b600060405180830381855af49150503d806000811461536e576040519150601f19603f3d011682016040523d82523d6000602084013e615373565b606091505b509150915061539b82826040518060600160405280602781526020016160c4602791396153b3565b95945050505050565b6060614b8684846000856153cc565b606083156153c2575081610dbd565b610dbd838361549c565b60608247101561542d5760405162461bcd60e51b815260206004820152602660248201527f416464726573733a20696e73756666696369656e742062616c616e636520666f6044820152651c8818d85b1b60d21b6064820152608401610e26565b600080866001600160a01b031685876040516154499190615da9565b60006040518083038185875af1925050503d8060008114615486576040519150601f19603f3d011682016040523d82523d6000602084013e61548b565b606091505b5091509150612b18878383876154c6565b8151156154ac5781518083602001fd5b8060405162461bcd60e51b8152600401610e269190615716565b6060831561553557825160000361552e576001600160a01b0385163b61552e5760405162461bcd60e51b815260206004820152601d60248201527f416464726573733a2063616c6c20746f206e6f6e2d636f6e74726163740000006044820152606401610e26565b5081614b86565b614b86838361549c565b5080546000825590600052602060002090810190610ec391906156b1565b604080516102008101909152600060e08201818152610100830182905261012083018290526101408301829052606061016084015261018083018290526101a083018290526101c083018290526101e0830191909152819081526020016155de60405180606001604052806000815260200160008152602001600081525090565b815260200161561060405180608001604052806000815260200160008152602001600081526020016000151581525090565b8152602001615632604051806040016040528060008152602001600081525090565b815260606020820181905260006040830181905291015290565b8280548282559060005260206000209081019282156156a1579160200282015b828111156156a157825182546001600160a01b0319166001600160a01b0390911617825560209092019160019091019061566c565b506156ad9291506156b1565b5090565b5b808211156156ad57600081556001016156b2565b60005b838110156156e15781810151838201526020016156c9565b50506000910152565b600081518084526157028160208601602086016156c6565b601f01601f19169290920160200192915050565b602081526000610dbd60208301846156ea565b80356001600160a01b0381168114610dd957600080fd5b6000806040838503121561575357600080fd5b61575c83615729565b946020939093013593505050565b60006020828403121561577c57600080fd5b5035919050565b60006101808083526157a08184018a516001600160a01b03169052565b50602088015160ff166101a0830152604088015161ffff166101c083015260608801516001600160a01b03166101e083015260808801516101206102008401526157ee6102a08401826156ea565b905060a089015161022084015260c089015161024084015260e0890151610260840152610100808a0151610280850152819250615842602085018a8051825260208082015190830152604090810151910152565b87516080850152602088015160a0850152604088015160c08501526060880151151560e085015261587f8185018880518252602090810151910152565b505083610140830152612b1861016083018415159052565b6000806000606084860312156158ac57600080fd5b6158b584615729565b92506158c360208501615729565b9150604084013590509250925092565b6000602082840312156158e557600080fd5b610dbd82615729565b60008060006060848603121561590357600080fd5b833592506158c360208501615729565b6000806040838503121561592657600080fd5b8235915061593660208401615729565b90509250929050565b634e487b7160e01b600052604160045260246000fd5b600067ffffffffffffffff808411156159705761597061593f565b604051601f8501601f19908116603f011681019082821181831017156159985761599861593f565b816040528093508581528686860111156159b157600080fd5b858560208301376000602087830101525050509392505050565b600080604083850312156159de57600080fd5b6159e783615729565b9150602083013567ffffffffffffffff811115615a0357600080fd5b8301601f81018513615a1457600080fd5b615a2385823560208401615955565b9150509250929050565b60008060408385031215615a4057600080fd5b50508035926020909101359150565b8015158114610ec357600080fd5b600080600060608486031215615a7257600080fd5b83359250602084013591506040840135615a8b81615a4f565b809150509250925092565b600080600060608486031215615aab57600080fd5b615ab484615729565b9250615ac260208501615729565b9150604084013567ffffffffffffffff811115615ade57600080fd5b8401601f81018613615aef57600080fd5b615afe86823560208401615955565b9150509250925092565b60008060008060808587031215615b1e57600080fd5b8435935060208501359250604085013561ffff81168114615b3e57600080fd5b9396929550929360600135925050565b60008060408385031215615b6157600080fd5b615b6a83615729565b915061593660208401615729565b60008060408385031215615b8b57600080fd5b615b9483615729565b91506020830135615ba481615a4f565b809150509250929050565b600181811c90821680615bc357607f821691505b602082108103615be357634e487b7160e01b600052602260045260246000fd5b50919050565b6020808252602c908201527f46756e6374696f6e206d7573742062652063616c6c6564207468726f7567682060408201526b19195b1959d85d1958d85b1b60a21b606082015260800190565b6020808252602c908201527f46756e6374696f6e206d7573742062652063616c6c6564207468726f7567682060408201526b6163746976652070726f787960a01b606082015260800190565b634e487b7160e01b600052601160045260246000fd5b80820180821115610bd357610bd3615c81565b634e487b7160e01b600052603260045260246000fd5b8082028115828204841417610bd357610bd3615c81565b634e487b7160e01b600052601260045260246000fd5b600082615d0a57634e487b7160e01b600052601260045260246000fd5b500490565b81810381811115610bd357610bd3615c81565b6020808252600e908201526d139bdd08185d5d1a1bdc9a5e995960921b604082015260600190565b60208082526029908201527f54696d656c6f636b206e6f7420736574206f72206e6f7420636f6d706c6574656040820152686420696e2074696d6560b81b606082015260800190565b634e487b7160e01b600052603160045260246000fd5b60008251615dbb8184602087016156c6565b9190910192915050565b600060208284031215615dd757600080fd5b815160ff81168114610dbd57600080fd5b601f82111561484657600081815260208120601f850160051c81016020861015615e0f5750805b601f850160051c820191505b81811015615e2e57828155600101615e1b565b505050505050565b815167ffffffffffffffff811115615e5057615e5061593f565b615e6481615e5e8454615baf565b84615de8565b602080601f831160018114615e995760008415615e815750858301515b600019600386901b1c1916600185901b178555615e2e565b600085815260208120601f198616915b82811015615ec857888601518255948401946001909101908401615ea9565b5085821015615ee65787850151600019600388901b60f8161c191681555b5050505050600190811b01905550565b600181815b80851115615f31578160001904821115615f1757615f17615c81565b80851615615f2457918102915b93841c9390800290615efb565b509250929050565b600082615f4857506001610bd3565b81615f5557506000610bd3565b8160018114615f6b5760028114615f7557615f91565b6001915050610bd3565b60ff841115615f8657615f86615c81565b50506001821b610bd3565b5060208310610133831016604e8410600b8410161715615fb4575081810a610bd3565b615fbe8383615ef6565b8060001904821115615fd257615fd2615c81565b029392505050565b6000610dbd60ff841683615f39565b600060018201615ffb57615ffb615c81565b5060010190565b60006020828403121561601457600080fd5b5051919050565b6020808252602b908201527f496e697469616c697a61626c653a20636f6e7472616374206973206e6f74206960408201526a6e697469616c697a696e6760a81b606082015260800190565b60006020828403121561607857600080fd5b8151610dbd81615a4f56fea3ea4fb8dee4d414198cb197af6eae4fe483c1a0b849dc50e53b9bf1a60e2166360894a13ba1a3210667c828492db98dca3e2076cc3735a920a3ca505d382bbc416464726573733a206c6f772d6c6576656c2064656c65676174652063616c6c206661696c6564a26469706673582212203faf6e4740b31872a31d9abc8533a7db2196e4a4ce1ba9125503417269eaa18764736f6c63430008110033496e697469616c697a61626c653a20636f6e7472616374206973206e6f742069",
    "linkReferences": {}
  },
  "methodIdentifiers": {
    "acceptOwnershipTransfer()": "b842e87f",
    "activeTokens(uint256)": "9f224f35",
    "addNewBountyPool(address,address,string)": "804fd590",
    "allowance(address,address)": "dd62ed3e",
    "approve(address,uint256)": "095ea7b3",
    "balanceOf(address)": "70a08231",
    "billPremium(uint256)": "2dbe051e",
    "calculateEffectiveAPY(uint256,uint256)": "5c46f7b1",
    "claimPremium(uint256)": "f47ec3be",
    "collectAllSaloonProfits(address)": "ecd7fbed",
    "collectSaloonProfits(address,address)": "cf9564b9",
    "decimals()": "313ce567",
    "decreaseAllowance(address,uint256)": "a457c2d7",
    "getCurrentAPY()": "962ca496",
    "getMultiplier(uint256,uint256)": "8dbb1e3a",
    "increaseAllowance(address,uint256)": "39509351",
    "initialize()": "8129fc1c",
    "makeProjectDeposit(uint256,uint256)": "57a86d3a",
    "name()": "06fdde03",
    "owner()": "8da5cb5b",
    "payBounty(uint256,address,uint256)": "3ac6ad7b",
    "pendingToken(uint256,address)": "48e43af4",
    "poolInfo(uint256)": "1526fe27",
    "poolLength()": "081e3eda",
    "projectDepositWithdrawal(uint256,uint256)": "983c1ce0",
    "proxiableUUID()": "52d1902d",
    "saloonBountyProfit(address)": "e45abd0f",
    "saloonPremiumProfit(address)": "ca006148",
    "scheduleProjectDepositWithdrawal(uint256,uint256)": "5669cbef",
    "scheduleUnstake(uint256,uint256)": "91635b4e",
    "setAPYandPoolCapAndDeposit(uint256,uint256,uint16,uint256)": "cee6b069",
    "stake(uint256,address,uint256)": "6e9c931c",
    "symbol()": "95d89b41",
    "tokenWhitelist(address)": "753d7563",
    "totalSupply()": "18160ddd",
    "transfer(address,uint256)": "a9059cbb",
    "transferFrom(address,address,uint256)": "23b872dd",
    "transferOwnership(address)": "f2fde38b",
    "unstake(uint256,uint256,bool)": "79b91d69",
    "updateTokenWhitelist(address,bool)": "e5e97c65",
    "upgradeTo(address)": "3659cfe6",
    "upgradeToAndCall(address,bytes)": "4f1ef286",
    "userInfo(uint256,address)": "93f1a40b",
    "viewBountyBalance(uint256)": "6ac6d812",
    "viewBountyInfo(uint256)": "40ef2868",
    "viewHackerPayout(uint256)": "861e5f66",
    "viewPoolAPY(uint256)": "a27f9213",
    "viewPoolCap(uint256)": "39679ff4",
    "viewPoolPremiumInfo(uint256)": "b1a2d16f",
    "viewPoolTimelockInfo(uint256)": "ac30b856",
    "viewSaloonProfitBalance(address)": "718c7eef",
    "viewTotalStaked(uint256)": "dbdd6957",
    "viewUserInfo(uint256,address)": "a754ecb0",
    "viewUserUnclaimed(uint256,address)": "5e3b748b",
    "windDownBounty(uint256)": "bb7019c1"
  },
  "id": 38
}