{
  "abi": [
    {
      "anonymous": false,
      "inputs": [
        {
          "indexed": false,
          "internalType": "address",
          "name": "previousAdmin",
          "type": "address"
        },
        {
          "indexed": false,
          "internalType": "address",
          "name": "newAdmin",
          "type": "address"
        }
      ],
      "name": "AdminChanged",
      "type": "event"
    },
    {
      "anonymous": false,
      "inputs": [
        {
          "indexed": true,
          "internalType": "address",
          "name": "beacon",
          "type": "address"
        }
      ],
      "name": "BeaconUpgraded",
      "type": "event"
    },
    {
      "anonymous": false,
      "inputs": [
        {
          "indexed": true,
          "internalType": "uint256",
          "name": "pid",
          "type": "uint256"
        },
        {
          "indexed": true,
          "internalType": "uint256",
          "name": "oldAmount",
          "type": "uint256"
        },
        {
          "indexed": true,
          "internalType": "uint256",
          "name": "newAmount",
          "type": "uint256"
        }
      ],
      "name": "BountyBalanceChanged",
      "type": "event"
    },
    {
      "anonymous": false,
      "inputs": [
        {
          "indexed": true,
          "internalType": "uint256",
          "name": "time",
          "type": "uint256"
        },
        {
          "indexed": true,
          "internalType": "address",
          "name": "hunter",
          "type": "address"
        },
        {
          "indexed": true,
          "internalType": "address",
          "name": "token",
          "type": "address"
        },
        {
          "indexed": false,
          "internalType": "uint256",
          "name": "amount",
          "type": "uint256"
        }
      ],
      "name": "BountyPaid",
      "type": "event"
    },
    {
      "anonymous": false,
      "inputs": [
        {
          "indexed": false,
          "internalType": "uint8",
          "name": "version",
          "type": "uint8"
        }
      ],
      "name": "Initialized",
      "type": "event"
    },
    {
      "anonymous": false,
      "inputs": [
        {
          "indexed": true,
          "internalType": "uint256",
          "name": "pid",
          "type": "uint256"
        },
        {
          "indexed": true,
          "internalType": "address",
          "name": "token",
          "type": "address"
        },
        {
          "indexed": true,
          "internalType": "uint256",
          "name": "tokenDecimals",
          "type": "uint256"
        }
      ],
      "name": "NewBountyDeployed",
      "type": "event"
    },
    {
      "anonymous": false,
      "inputs": [
        {
          "indexed": true,
          "internalType": "address",
          "name": "previousOwner",
          "type": "address"
        },
        {
          "indexed": true,
          "internalType": "address",
          "name": "newOwner",
          "type": "address"
        }
      ],
      "name": "OwnershipTransferred",
      "type": "event"
    },
    {
      "anonymous": false,
      "inputs": [
        {
          "indexed": true,
          "internalType": "uint256",
          "name": "pid",
          "type": "uint256"
        },
        {
          "indexed": true,
          "internalType": "uint256",
          "name": "amount",
          "type": "uint256"
        }
      ],
      "name": "PremiumBilled",
      "type": "event"
    },
    {
      "anonymous": false,
      "inputs": [
        {
          "indexed": true,
          "internalType": "address",
          "name": "user",
          "type": "address"
        },
        {
          "indexed": true,
          "internalType": "uint256",
          "name": "pid",
          "type": "uint256"
        },
        {
          "indexed": false,
          "internalType": "uint256",
          "name": "amount",
          "type": "uint256"
        }
      ],
      "name": "Staked",
      "type": "event"
    },
    {
      "anonymous": false,
      "inputs": [
        {
          "indexed": true,
          "internalType": "address",
          "name": "user",
          "type": "address"
        },
        {
          "indexed": true,
          "internalType": "uint256",
          "name": "pid",
          "type": "uint256"
        },
        {
          "indexed": false,
          "internalType": "uint256",
          "name": "amount",
          "type": "uint256"
        }
      ],
      "name": "Unstaked",
      "type": "event"
    },
    {
      "anonymous": false,
      "inputs": [
        {
          "indexed": true,
          "internalType": "address",
          "name": "implementation",
          "type": "address"
        }
      ],
      "name": "Upgraded",
      "type": "event"
    },
    {
      "anonymous": false,
      "inputs": [
        {
          "indexed": true,
          "internalType": "uint256",
          "name": "pid",
          "type": "uint256"
        },
        {
          "indexed": true,
          "internalType": "uint256",
          "name": "amount",
          "type": "uint256"
        }
      ],
      "name": "WithdrawalOrUnstakeScheduled",
      "type": "event"
    },
    {
      "anonymous": false,
      "inputs": [
        {
          "indexed": true,
          "internalType": "address",
          "name": "token",
          "type": "address"
        },
        {
          "indexed": true,
          "internalType": "bool",
          "name": "whitelisted",
          "type": "bool"
        }
      ],
      "name": "tokenWhitelistUpdated",
      "type": "event"
    },
    {
      "inputs": [],
      "name": "acceptOwnershipTransfer",
      "outputs": [],
      "stateMutability": "nonpayable",
      "type": "function"
    },
    {
      "inputs": [
        {
          "internalType": "uint256",
          "name": "",
          "type": "uint256"
        }
      ],
      "name": "activeTokens",
      "outputs": [
        {
          "internalType": "address",
          "name": "",
          "type": "address"
        }
      ],
      "stateMutability": "view",
      "type": "function"
    },
    {
      "inputs": [
        {
          "internalType": "address",
          "name": "_token",
          "type": "address"
        },
        {
          "internalType": "address",
          "name": "_projectWallet",
          "type": "address"
        },
        {
          "internalType": "string",
          "name": "_projectName",
          "type": "string"
        }
      ],
      "name": "addNewBountyPool",
      "outputs": [
        {
          "internalType": "uint256",
          "name": "",
          "type": "uint256"
        }
      ],
      "stateMutability": "nonpayable",
      "type": "function"
    },
    {
      "inputs": [
        {
          "internalType": "uint256",
          "name": "_pid",
          "type": "uint256"
        }
      ],
      "name": "billPremium",
      "outputs": [
        {
          "internalType": "bool",
          "name": "",
          "type": "bool"
        }
      ],
      "stateMutability": "nonpayable",
      "type": "function"
    },
    {
      "inputs": [
        {
          "internalType": "uint256",
          "name": "_pid",
          "type": "uint256"
        }
      ],
      "name": "claimPremium",
      "outputs": [],
      "stateMutability": "nonpayable",
      "type": "function"
    },
    {
      "inputs": [
        {
          "internalType": "address",
          "name": "_saloonWallet",
          "type": "address"
        }
      ],
      "name": "collectAllSaloonProfits",
      "outputs": [
        {
          "internalType": "bool",
          "name": "",
          "type": "bool"
        }
      ],
      "stateMutability": "nonpayable",
      "type": "function"
    },
    {
      "inputs": [
        {
          "internalType": "address",
          "name": "_token",
          "type": "address"
        },
        {
          "internalType": "address",
          "name": "_saloonWallet",
          "type": "address"
        }
      ],
      "name": "collectSaloonProfits",
      "outputs": [
        {
          "internalType": "bool",
          "name": "",
          "type": "bool"
        }
      ],
      "stateMutability": "nonpayable",
      "type": "function"
    },
    {
      "inputs": [
        {
          "internalType": "uint256",
          "name": "_from",
          "type": "uint256"
        },
        {
          "internalType": "uint256",
          "name": "_to",
          "type": "uint256"
        }
      ],
      "name": "getMultiplier",
      "outputs": [
        {
          "internalType": "uint256",
          "name": "",
          "type": "uint256"
        }
      ],
      "stateMutability": "pure",
      "type": "function"
    },
    {
      "inputs": [],
      "name": "initialize",
      "outputs": [],
      "stateMutability": "nonpayable",
      "type": "function"
    },
    {
      "inputs": [
        {
          "internalType": "uint256",
          "name": "_pid",
          "type": "uint256"
        },
        {
          "internalType": "uint256",
          "name": "_deposit",
          "type": "uint256"
        }
      ],
      "name": "makeProjectDeposit",
      "outputs": [],
      "stateMutability": "nonpayable",
      "type": "function"
    },
    {
      "inputs": [],
      "name": "owner",
      "outputs": [
        {
          "internalType": "address",
          "name": "",
          "type": "address"
        }
      ],
      "stateMutability": "view",
      "type": "function"
    },
    {
      "inputs": [
        {
          "internalType": "uint256",
          "name": "_pid",
          "type": "uint256"
        },
        {
          "internalType": "address",
          "name": "_hunter",
          "type": "address"
        },
        {
          "internalType": "uint256",
          "name": "_amount",
          "type": "uint256"
        }
      ],
      "name": "payBounty",
      "outputs": [
        {
          "internalType": "bool",
          "name": "",
          "type": "bool"
        }
      ],
      "stateMutability": "nonpayable",
      "type": "function"
    },
    {
      "inputs": [
        {
          "internalType": "uint256",
          "name": "_pid",
          "type": "uint256"
        },
        {
          "internalType": "address",
          "name": "_user",
          "type": "address"
        }
      ],
      "name": "pendingToken",
      "outputs": [
        {
          "internalType": "uint256",
          "name": "totalPending",
          "type": "uint256"
        },
        {
          "internalType": "uint256",
          "name": "actualPending",
          "type": "uint256"
        },
        {
          "internalType": "uint256",
          "name": "newPending",
          "type": "uint256"
        }
      ],
      "stateMutability": "view",
      "type": "function"
    },
    {
      "inputs": [
        {
          "internalType": "uint256",
          "name": "",
          "type": "uint256"
        }
      ],
      "name": "poolInfo",
      "outputs": [
        {
          "internalType": "contract IERC20",
          "name": "token",
          "type": "address"
        },
        {
          "internalType": "uint8",
          "name": "tokenDecimals",
          "type": "uint8"
        },
        {
          "internalType": "uint16",
          "name": "apy",
          "type": "uint16"
        },
        {
          "internalType": "address",
          "name": "projectWallet",
          "type": "address"
        },
        {
          "internalType": "string",
          "name": "projectName",
          "type": "string"
        },
        {
          "internalType": "uint256",
          "name": "projectDeposit",
          "type": "uint256"
        },
        {
          "internalType": "uint256",
          "name": "poolCap",
          "type": "uint256"
        },
        {
          "internalType": "uint256",
          "name": "totalStaked",
          "type": "uint256"
        },
        {
          "internalType": "uint256",
          "name": "requiredPremiumBalancePerPeriod",
          "type": "uint256"
        },
        {
          "internalType": "uint256",
          "name": "premiumBalance",
          "type": "uint256"
        },
        {
          "internalType": "uint256",
          "name": "premiumAvailable",
          "type": "uint256"
        },
        {
          "components": [
            {
              "internalType": "uint256",
              "name": "timelock",
              "type": "uint256"
            },
            {
              "internalType": "uint256",
              "name": "timeLimit",
              "type": "uint256"
            },
            {
              "internalType": "uint256",
              "name": "withdrawalScheduledAmount",
              "type": "uint256"
            },
            {
              "internalType": "bool",
              "name": "withdrawalExecuted",
              "type": "bool"
            }
          ],
          "internalType": "struct ISaloon.TimelockInfo",
          "name": "poolTimelock",
          "type": "tuple"
        },
        {
          "internalType": "bool",
          "name": "isActive",
          "type": "bool"
        },
        {
          "internalType": "uint256",
          "name": "freezeTime",
          "type": "uint256"
        }
      ],
      "stateMutability": "view",
      "type": "function"
    },
    {
      "inputs": [],
      "name": "poolLength",
      "outputs": [
        {
          "internalType": "uint256",
          "name": "",
          "type": "uint256"
        }
      ],
      "stateMutability": "view",
      "type": "function"
    },
    {
      "inputs": [
        {
          "internalType": "uint256",
          "name": "_pid",
          "type": "uint256"
        },
        {
          "internalType": "uint256",
          "name": "_amount",
          "type": "uint256"
        }
      ],
      "name": "projectDepositWithdrawal",
      "outputs": [
        {
          "internalType": "bool",
          "name": "",
          "type": "bool"
        }
      ],
      "stateMutability": "nonpayable",
      "type": "function"
    },
    {
      "inputs": [],
      "name": "proxiableUUID",
      "outputs": [
        {
          "internalType": "bytes32",
          "name": "",
          "type": "bytes32"
        }
      ],
      "stateMutability": "view",
      "type": "function"
    },
    {
      "inputs": [
        {
          "internalType": "address",
          "name": "",
          "type": "address"
        }
      ],
      "name": "saloonBountyProfit",
      "outputs": [
        {
          "internalType": "uint256",
          "name": "",
          "type": "uint256"
        }
      ],
      "stateMutability": "view",
      "type": "function"
    },
    {
      "inputs": [
        {
          "internalType": "address",
          "name": "",
          "type": "address"
        }
      ],
      "name": "saloonPremiumProfit",
      "outputs": [
        {
          "internalType": "uint256",
          "name": "",
          "type": "uint256"
        }
      ],
      "stateMutability": "view",
      "type": "function"
    },
    {
      "inputs": [
        {
          "internalType": "uint256",
          "name": "_pid",
          "type": "uint256"
        },
        {
          "internalType": "uint256",
          "name": "_amount",
          "type": "uint256"
        }
      ],
      "name": "scheduleProjectDepositWithdrawal",
      "outputs": [
        {
          "internalType": "bool",
          "name": "",
          "type": "bool"
        }
      ],
      "stateMutability": "nonpayable",
      "type": "function"
    },
    {
      "inputs": [
        {
          "internalType": "uint256",
          "name": "_pid",
          "type": "uint256"
        },
        {
          "internalType": "uint256",
          "name": "_amount",
          "type": "uint256"
        }
      ],
      "name": "scheduleUnstake",
      "outputs": [
        {
          "internalType": "bool",
          "name": "",
          "type": "bool"
        }
      ],
      "stateMutability": "nonpayable",
      "type": "function"
    },
    {
      "inputs": [
        {
          "internalType": "uint256",
          "name": "_pid",
          "type": "uint256"
        },
        {
          "internalType": "uint256",
          "name": "_poolCap",
          "type": "uint256"
        },
        {
          "internalType": "uint16",
          "name": "_apy",
          "type": "uint16"
        },
        {
          "internalType": "uint256",
          "name": "_deposit",
          "type": "uint256"
        }
      ],
      "name": "setAPYandPoolCapAndDeposit",
      "outputs": [],
      "stateMutability": "nonpayable",
      "type": "function"
    },
    {
      "inputs": [
        {
          "internalType": "uint256",
          "name": "_pid",
          "type": "uint256"
        },
        {
          "internalType": "address",
          "name": "_user",
          "type": "address"
        },
        {
          "internalType": "uint256",
          "name": "_amount",
          "type": "uint256"
        }
      ],
      "name": "stake",
      "outputs": [
        {
          "internalType": "bool",
          "name": "",
          "type": "bool"
        }
      ],
      "stateMutability": "nonpayable",
      "type": "function"
    },
    {
      "inputs": [
        {
          "internalType": "address",
          "name": "",
          "type": "address"
        }
      ],
      "name": "tokenWhitelist",
      "outputs": [
        {
          "internalType": "bool",
          "name": "",
          "type": "bool"
        }
      ],
      "stateMutability": "view",
      "type": "function"
    },
    {
      "inputs": [
        {
          "internalType": "address",
          "name": "newOwner",
          "type": "address"
        }
      ],
      "name": "transferOwnership",
      "outputs": [],
      "stateMutability": "nonpayable",
      "type": "function"
    },
    {
      "inputs": [
        {
          "internalType": "uint256",
          "name": "_pid",
          "type": "uint256"
        },
        {
          "internalType": "uint256",
          "name": "_amount",
          "type": "uint256"
        },
        {
          "internalType": "bool",
          "name": "_shouldHarvest",
          "type": "bool"
        }
      ],
      "name": "unstake",
      "outputs": [
        {
          "internalType": "bool",
          "name": "",
          "type": "bool"
        }
      ],
      "stateMutability": "nonpayable",
      "type": "function"
    },
    {
      "inputs": [
        {
          "internalType": "address",
          "name": "_token",
          "type": "address"
        },
        {
          "internalType": "bool",
          "name": "_whitelisted",
          "type": "bool"
        }
      ],
      "name": "updateTokenWhitelist",
      "outputs": [
        {
          "internalType": "bool",
          "name": "",
          "type": "bool"
        }
      ],
      "stateMutability": "nonpayable",
      "type": "function"
    },
    {
      "inputs": [
        {
          "internalType": "address",
          "name": "newImplementation",
          "type": "address"
        }
      ],
      "name": "upgradeTo",
      "outputs": [],
      "stateMutability": "nonpayable",
      "type": "function"
    },
    {
      "inputs": [
        {
          "internalType": "address",
          "name": "newImplementation",
          "type": "address"
        },
        {
          "internalType": "bytes",
          "name": "data",
          "type": "bytes"
        }
      ],
      "name": "upgradeToAndCall",
      "outputs": [],
      "stateMutability": "payable",
      "type": "function"
    },
    {
      "inputs": [
        {
          "internalType": "uint256",
          "name": "",
          "type": "uint256"
        },
        {
          "internalType": "address",
          "name": "",
          "type": "address"
        }
      ],
      "name": "userInfo",
      "outputs": [
        {
          "internalType": "uint256",
          "name": "amount",
          "type": "uint256"
        },
        {
          "internalType": "uint256",
          "name": "unclaimed",
          "type": "uint256"
        },
        {
          "internalType": "uint256",
          "name": "lastRewardTime",
          "type": "uint256"
        },
        {
          "internalType": "uint256",
          "name": "timelock",
          "type": "uint256"
        },
        {
          "internalType": "uint256",
          "name": "timeLimit",
          "type": "uint256"
        },
        {
          "internalType": "uint256",
          "name": "unstakeScheduledAmount",
          "type": "uint256"
        }
      ],
      "stateMutability": "view",
      "type": "function"
    },
    {
      "inputs": [
        {
          "internalType": "uint256",
          "name": "_pid",
          "type": "uint256"
        }
      ],
      "name": "viewBountyBalance",
      "outputs": [
        {
          "internalType": "uint256",
          "name": "",
          "type": "uint256"
        }
      ],
      "stateMutability": "view",
      "type": "function"
    },
    {
      "inputs": [
        {
          "internalType": "uint256",
          "name": "_pid",
          "type": "uint256"
        }
      ],
      "name": "viewBountyInfo",
      "outputs": [
        {
          "internalType": "uint256",
          "name": "payout",
          "type": "uint256"
        },
        {
          "internalType": "uint256",
          "name": "apy",
          "type": "uint256"
        },
        {
          "internalType": "uint256",
          "name": "staked",
          "type": "uint256"
        },
        {
          "internalType": "uint256",
          "name": "poolCap",
          "type": "uint256"
        }
      ],
      "stateMutability": "view",
      "type": "function"
    },
    {
      "inputs": [
        {
          "internalType": "uint256",
          "name": "_pid",
          "type": "uint256"
        }
      ],
      "name": "viewHackerPayout",
      "outputs": [
        {
          "internalType": "uint256",
          "name": "",
          "type": "uint256"
        }
      ],
      "stateMutability": "view",
      "type": "function"
    },
    {
      "inputs": [
        {
          "internalType": "uint256",
          "name": "_pid",
          "type": "uint256"
        }
      ],
      "name": "viewPoolAPY",
      "outputs": [
        {
          "internalType": "uint256",
          "name": "",
          "type": "uint256"
        }
      ],
      "stateMutability": "view",
      "type": "function"
    },
    {
      "inputs": [
        {
          "internalType": "uint256",
          "name": "_pid",
          "type": "uint256"
        }
      ],
      "name": "viewPoolCap",
      "outputs": [
        {
          "internalType": "uint256",
          "name": "",
          "type": "uint256"
        }
      ],
      "stateMutability": "view",
      "type": "function"
    },
    {
      "inputs": [
        {
          "internalType": "uint256",
          "name": "_pid",
          "type": "uint256"
        }
      ],
      "name": "viewPoolPremiumInfo",
      "outputs": [
        {
          "internalType": "uint256",
          "name": "requiredPremiumBalancePerPeriod",
          "type": "uint256"
        },
        {
          "internalType": "uint256",
          "name": "premiumBalance",
          "type": "uint256"
        },
        {
          "internalType": "uint256",
          "name": "premiumAvailable",
          "type": "uint256"
        }
      ],
      "stateMutability": "view",
      "type": "function"
    },
    {
      "inputs": [
        {
          "internalType": "uint256",
          "name": "_pid",
          "type": "uint256"
        }
      ],
      "name": "viewPoolTimelockInfo",
      "outputs": [
        {
          "internalType": "uint256",
          "name": "timelock",
          "type": "uint256"
        },
        {
          "internalType": "uint256",
          "name": "timeLimit",
          "type": "uint256"
        },
        {
          "internalType": "uint256",
          "name": "withdrawalScheduledAmount",
          "type": "uint256"
        }
      ],
      "stateMutability": "view",
      "type": "function"
    },
    {
      "inputs": [
        {
          "internalType": "address",
          "name": "_token",
          "type": "address"
        }
      ],
      "name": "viewSaloonProfitBalance",
      "outputs": [
        {
          "internalType": "uint256",
          "name": "totalProfit",
          "type": "uint256"
        },
        {
          "internalType": "uint256",
          "name": "bountyProfit",
          "type": "uint256"
        },
        {
          "internalType": "uint256",
          "name": "premiumProfit",
          "type": "uint256"
        }
      ],
      "stateMutability": "view",
      "type": "function"
    },
    {
      "inputs": [
        {
          "internalType": "uint256",
          "name": "_pid",
          "type": "uint256"
        }
      ],
      "name": "viewTotalStaked",
      "outputs": [
        {
          "internalType": "uint256",
          "name": "",
          "type": "uint256"
        }
      ],
      "stateMutability": "view",
      "type": "function"
    },
    {
      "inputs": [
        {
          "internalType": "uint256",
          "name": "_pid",
          "type": "uint256"
        },
        {
          "internalType": "address",
          "name": "_user",
          "type": "address"
        }
      ],
      "name": "viewUserInfo",
      "outputs": [
        {
          "internalType": "uint256",
          "name": "amount",
          "type": "uint256"
        },
        {
          "internalType": "uint256",
          "name": "actualPending",
          "type": "uint256"
        },
        {
          "internalType": "uint256",
          "name": "unstakeScheduledAmount",
          "type": "uint256"
        },
        {
          "internalType": "uint256",
          "name": "timelock",
          "type": "uint256"
        }
      ],
      "stateMutability": "view",
      "type": "function"
    },
    {
      "inputs": [
        {
          "internalType": "uint256",
          "name": "_pid",
          "type": "uint256"
        },
        {
          "internalType": "address",
          "name": "_user",
          "type": "address"
        }
      ],
      "name": "viewUserUnclaimed",
      "outputs": [
        {
          "internalType": "uint256",
          "name": "unclaimed",
          "type": "uint256"
        }
      ],
      "stateMutability": "view",
      "type": "function"
    },
    {
      "inputs": [
        {
          "internalType": "uint256",
          "name": "_pid",
          "type": "uint256"
        }
      ],
      "name": "windDownBounty",
      "outputs": [
        {
          "internalType": "bool",
          "name": "",
          "type": "bool"
        }
      ],
      "stateMutability": "nonpayable",
      "type": "function"
    }
  ],
  "bytecode": {
    "object": "0x60a06040523060805234801561001457600080fd5b50600160ca55608051614f3161005160003960008181610a1501528181610a5e015281816112f20152818161133201526113c50152614f316000f3fe6080604052600436106102515760003560e01c80638da5cb5b11610139578063b842e87f116100b6578063dbdd69571161007a578063dbdd6957146107cf578063e45abd0f146107ef578063e5e97c651461081c578063ecd7fbed1461083c578063f2fde38b1461085c578063f47ec3be1461087c57600080fd5b8063b842e87f1461072d578063bb7019c114610742578063ca00614814610762578063cee6b0691461078f578063cf9564b9146107af57600080fd5b80639f224f35116100fd5780639f224f351461068d578063a27f9213146106ad578063a754ecb0146106cd578063ac30b856146106ed578063b1a2d16f1461070d57600080fd5b80638da5cb5b146105735780638dbb1e3a146105a557806391635b4e146105c557806393f1a40b146105e5578063983c1ce01461066d57600080fd5b80635669cbef116101d2578063718c7eef11610196578063718c7eef146104ae578063753d7563146104ce57806379b91d69146104fe578063804fd5901461051e5780638129fc1c1461053e578063861e5f661461055357600080fd5b80635669cbef146103e957806357a86d3a146104095780635e3b748b146104295780636ac6d8121461046e5780636e9c931c1461048e57600080fd5b80633ac6ad7b116102195780633ac6ad7b1461032657806340ef28681461034657806348e43af4146103865780634f1ef286146103c157806352d1902d146103d457600080fd5b8063081e3eda146102565780631526fe271461027a5780632dbe051e146102b45780633659cfe6146102e457806339679ff414610306575b600080fd5b34801561026257600080fd5b5060cd545b6040519081526020015b60405180910390f35b34801561028657600080fd5b5061029a610295366004614577565b61089c565b6040516102719e9d9c9b9a999897969594939291906145e0565b3480156102c057600080fd5b506102d46102cf366004614577565b6109f1565b6040519015158152602001610271565b3480156102f057600080fd5b506103046102ff3660046146b5565b610a0b565b005b34801561031257600080fd5b50610267610321366004614577565b610af3565b34801561033257600080fd5b506102d46103413660046146d0565b610d11565b34801561035257600080fd5b50610366610361366004614577565b6111a4565b604080519485526020850193909352918301526060820152608001610271565b34801561039257600080fd5b506103a66103a1366004614705565b6111dd565b60408051938452602084019290925290820152606001610271565b6103046103cf3660046147bd565b6112e8565b3480156103e057600080fd5b506102676113b8565b3480156103f557600080fd5b506102d461040436600461481f565b61146b565b34801561041557600080fd5b5061030461042436600461481f565b61158e565b34801561043557600080fd5b50610267610444366004614705565b600091825260ce602090815260408084206001600160a01b03909316845291905290206001015490565b34801561047a57600080fd5b50610267610489366004614577565b611668565b34801561049a57600080fd5b506102d46104a93660046146d0565b611891565b3480156104ba57600080fd5b506103a66104c93660046146b5565b611cdd565b3480156104da57600080fd5b506102d46104e93660046146b5565b60cf6020526000908152604090205460ff1681565b34801561050a57600080fd5b506102d461051936600461484f565b611d13565b34801561052a57600080fd5b50610267610539366004614888565b611ff0565b34801561054a57600080fd5b50610304612335565b34801561055f57600080fd5b5061026761056e366004614577565b612445565b34801561057f57600080fd5b506033546001600160a01b03165b6040516001600160a01b039091168152602001610271565b3480156105b157600080fd5b506102676105c036600461481f565b612695565b3480156105d157600080fd5b506102d46105e036600461481f565b6126a1565b3480156105f157600080fd5b50610640610600366004614705565b60ce602090815260009283526040808420909152908252902080546001820154600283015460038401546004850154600590950154939492939192909186565b604080519687526020870195909552938501929092526060840152608083015260a082015260c001610271565b34801561067957600080fd5b506102d461068836600461481f565b61277a565b34801561069957600080fd5b5061058d6106a8366004614577565b6128d1565b3480156106b957600080fd5b506102676106c8366004614577565b6128fb565b3480156106d957600080fd5b506103666106e8366004614705565b612b1b565b3480156106f957600080fd5b506103a6610708366004614577565b612b6b565b34801561071957600080fd5b506103a6610728366004614577565b612da2565b34801561073957600080fd5b50610304612fd8565b34801561074e57600080fd5b506102d461075d366004614577565b613058565b34801561076e57600080fd5b5061026761077d3660046146b5565b60cc6020526000908152604090205481565b34801561079b57600080fd5b506103046107aa3660046148fa565b6130dd565b3480156107bb57600080fd5b506102d46107ca366004614940565b613363565b3480156107db57600080fd5b506102676107ea366004614577565b6133da565b3480156107fb57600080fd5b5061026761080a3660046146b5565b60cb6020526000908152604090205481565b34801561082857600080fd5b506102d461083736600461496a565b6135f8565b34801561084857600080fd5b506102d46108573660046146b5565b613825565b34801561086857600080fd5b506103046108773660046146b5565b6138eb565b34801561088857600080fd5b50610304610897366004614577565b61397a565b60cd81815481106108ac57600080fd5b60009182526020909120601090910201805460018201546002830180546001600160a01b038085169650600160a01b850460ff1695600160a81b90950461ffff169493169291906108fc906149a1565b80601f0160208091040260200160405190810160405280929190818152602001828054610928906149a1565b80156109755780601f1061094a57610100808354040283529160200191610975565b820191906000526020600020905b81548152906001019060200180831161095857829003601f168201915b5050506003840154600485015460058601546006870154600788015460088901546040805160808101825260098c01548152600a8c01546020820152600b8c015491810191909152600c8b015460ff90811615156060830152600e8c0154600f909c01549a9b979a96995094975092959194909391909116908e565b60006109fb613998565b610a068260006139f2565b919050565b6001600160a01b037f0000000000000000000000000000000000000000000000000000000000000000163003610a5c5760405162461bcd60e51b8152600401610a53906149db565b60405180910390fd5b7f00000000000000000000000000000000000000000000000000000000000000006001600160a01b0316610aa5600080516020614eb5833981519152546001600160a01b031690565b6001600160a01b031614610acb5760405162461bcd60e51b8152600401610a5390614a27565b610ad481613b1c565b60408051600080825260208201909252610af091839190613b24565b50565b60008060cd8381548110610b0957610b09614a73565b6000918252602091829020604080516101e081018252601090930290910180546001600160a01b03808216855260ff600160a01b8304169585019590955261ffff600160a81b909104169183019190915260018101549092166060820152600282018054919291608084019190610b7f906149a1565b80601f0160208091040260200160405190810160405280929190818152602001828054610bab906149a1565b8015610bf85780601f10610bcd57610100808354040283529160200191610bf8565b820191906000526020600020905b815481529060010190602001808311610bdb57829003601f168201915b50505050508152602001600382015481526020016004820154815260200160058201548152602001600682015481526020016007820154815260200160088201548152602001600982016040518060800160405290816000820154815260200160018201548152602001600282015481526020016003820160009054906101000a900460ff1615151515815250508152602001600d8201805480602002602001604051908101604052809291908181526020018280548015610ce357602002820191906000526020600020905b81546001600160a01b03168152600190910190602001808311610cc5575b5050509183525050600e82015460ff1615156020820152600f9091015460409091015260c001519392505050565b6000610d1b613998565b600060cd8581548110610d3057610d30614a73565b906000526020600020906010020190506000816005015490506000826003015482610d5b9190614a9f565b905080828611610ef957828603610dfe57600d84015460005b81811015610de057600086600d018281548110610d9357610d93614a73565b60009182526020808320909101548d835260ce825260408084206001600160a01b039092168085529190925290822090925090610dd3908d908490613c94565b6000905550600101610d74565b50600060058601819055610df890600d870190614426565b506110a1565b600083610e13670de0b6b3a764000089614ab2565b610e1d9190614ac9565b600d86015490915060005b81811015610ef157600087600d018281548110610e4757610e47614a73565b60009182526020808320909101548e835260ce825260408084206001600160a01b039092168085529190925290822090925090610e87908e908490613c94565b6000670de0b6b3a7640000868360000154610ea29190614ab2565b610eac9190614ac9565b905080826000016000828254610ec29190614aeb565b92505081905550808a6005016000828254610edd9190614aeb565b909155505060019093019250610e28915050565b5050506110a1565b8286118015610f0757508186105b15610fc757600d84015460005b81811015610f8057600086600d018281548110610f3357610f33614a73565b60009182526020808320909101548d835260ce825260408084206001600160a01b039092168085529190925290822090925090610f73908d908490613c94565b6000905550600101610f14565b50600060058601819055610f9890600d870190614426565b6000610fa48585614aeb565b905080866003016000828254610fba9190614aeb565b909155506110a192505050565b81860361106757600d84015460005b8181101561104257600086600d018281548110610ff557610ff5614a73565b60009182526020808320909101548d835260ce825260408084206001600160a01b039092168085529190925290822090925090611035908d908490613c94565b6000905550600101610fd6565b5060006005860181905561105a90600d870190614426565b50600060038501556110a1565b60405162461bcd60e51b815260206004820152600f60248201526e082dadeeadce840e8dede40d0d2ced608b1b6044820152606401610a53565b60006127106110b26103e889614ab2565b6110bc9190614ac9565b905060006110ca8289614aeb565b86546001600160a01b0316600090815260cb60205260408120805492935084929091906110f8908490614a9f565b90915550508554611113906001600160a01b03168a83613df4565b5060008660030154876005015461112a9190614a9f565b87546040518b81529192506001600160a01b0390811691908c169042907fc351e6e0f377ec1a399ec84224a83d6a4b9f3cd9a5530e5c652d0b11c2f8dae29060200160405180910390a480848c600080516020614e9583398151915260405160405180910390a460019750505050505050505b9392505050565b6000806000806111b385612445565b93506111be856133da565b91506111c9856128fb565b92506111d485610af3565b90509193509193565b60008060008060cd86815481106111f6576111f6614a73565b6000918252602080832089845260ce825260408085206001600160a01b038b168652909252908320601092909202016005810154600f82015491945091929081036112415742611247565b83600f01545b90506000611259846002015483612695565b855485549192506301e133809183916127109161128191600160a81b900461ffff1690614ab2565b61128b9190614ac9565b6112959190614ab2565b61129f9190614ac9565b95508360010154866112b19190614a9f565b97506127106112c26103e882614afe565b6112d09061ffff168a614ab2565b6112da9190614ac9565b965050505050509250925092565b6001600160a01b037f00000000000000000000000000000000000000000000000000000000000000001630036113305760405162461bcd60e51b8152600401610a53906149db565b7f00000000000000000000000000000000000000000000000000000000000000006001600160a01b0316611379600080516020614eb5833981519152546001600160a01b031690565b6001600160a01b03161461139f5760405162461bcd60e51b8152600401610a5390614a27565b6113a882613b1c565b6113b482826001613b24565b5050565b6000306001600160a01b037f000000000000000000000000000000000000000000000000000000000000000016146114585760405162461bcd60e51b815260206004820152603860248201527f555550535570677261646561626c653a206d757374206e6f742062652063616c60448201527f6c6564207468726f7567682064656c656761746563616c6c00000000000000006064820152608401610a53565b50600080516020614eb583398151915290565b60008060cd848154811061148157611481614a73565b9060005260206000209060100201905082816003015410156114e55760405162461bcd60e51b815260206004820152601a60248201527f416d6f756e7420626967676572207468616e206465706f7369740000000000006044820152606401610a53565b60018101546001600160a01b031633146115115760405162461bcd60e51b8152600401610a5390614b20565b61151e62093a8042614a9f565b600982015561153062093a8042614a9f565b61153d906203f480614a9f565b600a820155600b8101839055600c8101805460ff19169055604051839085907fb3b9c925de3673837b40c6b4d4463a8f88dc821cd27e07f1ff6bf6abf96413a590600090a360019150505b92915050565b600060cd83815481106115a3576115a3614a73565b6000918252602090912060109091020160018101549091506001600160a01b031633146115e25760405162461bcd60e51b8152600401610a5390614b20565b6000816003015482600501546115f89190614a9f565b8254909150611612906001600160a01b0316333086613e5a565b50828260030160008282546116279190614a9f565b90915550506003820154600583015460009161164291614a9f565b9050808286600080516020614e9583398151915260405160405180910390a45050505050565b60008060cd838154811061167e5761167e614a73565b6000918252602091829020604080516101e081018252601090930290910180546001600160a01b03808216855260ff600160a01b8304169585019590955261ffff600160a81b9091041691830191909152600181015490921660608201526002820180549192916080840191906116f4906149a1565b80601f0160208091040260200160405190810160405280929190818152602001828054611720906149a1565b801561176d5780601f106117425761010080835404028352916020019161176d565b820191906000526020600020905b81548152906001019060200180831161175057829003601f168201915b50505050508152602001600382015481526020016004820154815260200160058201548152602001600682015481526020016007820154815260200160088201548152602001600982016040518060800160405290816000820154815260200160018201548152602001600282015481526020016003820160009054906101000a900460ff1615151515815250508152602001600d820180548060200260200160405190810160405280929190818152602001828054801561185857602002820191906000526020600020905b81546001600160a01b0316815260019091019060200180831161183a575b5050509183525050600e82015460ff1615156020820152600f9091015460409091015260a081015160e082015191925061119d91614a9f565b600061189b613e9d565b83600060cd82815481106118b1576118b1614a73565b6000918252602091829020604080516101e081018252601090930290910180546001600160a01b03808216855260ff600160a01b8304169585019590955261ffff600160a81b909104169183019190915260018101549092166060820152600282018054919291608084019190611927906149a1565b80601f0160208091040260200160405190810160405280929190818152602001828054611953906149a1565b80156119a05780601f10611975576101008083540402835291602001916119a0565b820191906000526020600020905b81548152906001019060200180831161198357829003601f168201915b50505050508152602001600382015481526020016004820154815260200160058201548152602001600682015481526020016007820154815260200160088201548152602001600982016040518060800160405290816000820154815260200160018201548152602001600282015481526020016003820160009054906101000a900460ff1615151515815250508152602001600d8201805480602002602001604051908101604052809291908181526020018280548015611a8b57602002820191906000526020600020905b81546001600160a01b03168152600190910190602001808311611a6d575b5050509183525050600e82015460ff1615156020820152600f909101546040909101526101a0810151909150611af55760405162461bcd60e51b815260206004820152600f60248201526e706f6f6c206e6f742061637469766560881b6044820152606401610a53565b60008411611b0257600080fd5b600060cd8781548110611b1757611b17614a73565b600091825260208083208a845260ce825260408085206001600160a01b038c1686529092529083206010929092020160038101546005820154919450919291611b5f91614a9f565b9050611b6d89896001613c94565b8154600003611ba757600d83018054600181018255600091825260209091200180546001600160a01b0319166001600160a01b038a161790555b8254611bbe906001600160a01b031633308a613e5a565b5086826000016000828254611bd39190614a9f565b9250508190555086836005016000828254611bee9190614a9f565b9091555050600483015415801590611c0e57508260040154836005015411155b611c505760405162461bcd60e51b8152602060048201526013602482015272115e18d959591959081c1bdbdb081b1a5b5a5d606a1b6044820152606401610a53565b88886001600160a01b03167f1449c6dd7851abc30abf37f57715f492010519147cc2652fbc38202c18a6ee9089604051611c8c91815260200190565b60405180910390a3600083600301548460050154611caa9190614a9f565b905080828b600080516020614e9583398151915260405160405180910390a46001965050505050505061119d600160ca55565b6001600160a01b038116600090815260cb602090815260408083205460cc909252822054611d0b8282614a9f565b949193509150565b6000611d1d613e9d565b600060cd8581548110611d3257611d32614a73565b6000918252602080832088845260ce825260408085203386529092529220805460109092029092019250851115611da05760405162461bcd60e51b81526020600482015260126024820152711dda5d1a191c985dce881b9bdd0819dbdbd960721b6044820152606401610a53565b428160030154108015611db65750428160040154115b8015611dc6575084816005015410155b8015611dd55750600381015415155b611df15760405162461bcd60e51b8152600401610a5390614b48565b600060038083018290558301546005840154611e0d9190614a9f565b9050611e1a873387613c94565b8515611e5a578154611e2c9087613ef6565b82556005830154611e3d9087613ef6565b60058401558254611e58906001600160a01b03163388613df4565b505b8154600003611f7257600d83015460005b81811015611f6f57336001600160a01b031685600d018281548110611e9257611e92614a73565b6000918252602090912001546001600160a01b031603611f67576000600d8601611ebd600185614aeb565b81548110611ecd57611ecd614a73565b600091825260209091200154600d870180546001600160a01b039092169250829184908110611efe57611efe614a73565b9060005260206000200160006101000a8154816001600160a01b0302191690836001600160a01b0316021790555085600d01805480611f3f57611f3f614b91565b600082815260209020810160001990810180546001600160a01b031916905501905550611f6f565b600101611e6b565b50505b604051868152879033907f7fc4727e062e336010f2c282598ef5f14facb3de68cf8195c2f23e1454b2b74e9060200160405180910390a3600083600301548460050154611fbf9190614a9f565b9050808289600080516020614e9583398151915260405160405180910390a4600194505050505061119d600160ca55565b6000611ffa613998565b6001600160a01b038416600090815260cf602052604090205460ff1661205a5760405162461bcd60e51b81526020600482015260156024820152741d1bdad95b881b9bdd081dda1a5d195b1a5cdd1959605a1b6044820152606401610a53565b60408051600481526024810182526020810180516001600160e01b031663313ce56760e01b17905290516000916001600160a01b0387169161209c9190614ba7565b600060405180830381855afa9150503d80600081146120d7576040519150601f19603f3d011682016040523d82523d6000602084013e6120dc565b606091505b509150506000818060200190518101906120f69190614bc3565b9050612100614444565b6001600160a01b03808816825260ff80841660208085019182528984166060808701918252608087018b8152600060a089018190526040808a0182815260c08b0183905260e08b018390526101608b0180518490528051909701839052865190910182905294519092018290526101a088018290526101c0880182905260cd80546001810182559252875160109092027f83978b4c69c48dd978ab43fe30f077615294f938fb7f936d9eb340e51ea7db2e810180549651955161ffff16600160a81b0261ffff60a81b1996909816600160a01b026001600160a81b0319909716938916939093179590951793909316949094178455517f83978b4c69c48dd978ab43fe30f077615294f938fb7f936d9eb340e51ea7db2f83018054919095166001600160a01b03199190911617909355915183927f83978b4c69c48dd978ab43fe30f077615294f938fb7f936d9eb340e51ea7db3001906122619082614c34565b5060a0820151600382015560c0820151600482015560e0820151600582015561010082015160068201556101208201516007820155610140820151600882015561016082015180516009830155602080820151600a8401556040820151600b840155606090910151600c8301805460ff191691151591909117905561018083015180516122f492600d85019201906144fd565b506101a0820151600e8201805460ff19169115159190911790556101c090910151600f9091015560cd5461232a90600190614aeb565b979650505050505050565b600054610100900460ff16158080156123555750600054600160ff909116105b8061236f5750303b15801561236f575060005460ff166001145b6123d25760405162461bcd60e51b815260206004820152602e60248201527f496e697469616c697a61626c653a20636f6e747261637420697320616c72656160448201526d191e481a5b9a5d1a585b1a5e995960921b6064820152608401610a53565b6000805460ff1916600117905580156123f5576000805461ff0019166101001790555b6123fd613f02565b8015610af0576000805461ff0019169055604051600181527f7f26b83ff96e1f2b6a682f133852f6798a09c465da95921460cefb38474024989060200160405180910390a150565b60008060cd838154811061245b5761245b614a73565b6000918252602091829020604080516101e081018252601090930290910180546001600160a01b03808216855260ff600160a01b8304169585019590955261ffff600160a81b9091041691830191909152600181015490921660608201526002820180549192916080840191906124d1906149a1565b80601f01602080910402602001604051908101604052809291908181526020018280546124fd906149a1565b801561254a5780601f1061251f5761010080835404028352916020019161254a565b820191906000526020600020905b81548152906001019060200180831161252d57829003601f168201915b50505050508152602001600382015481526020016004820154815260200160058201548152602001600682015481526020016007820154815260200160088201548152602001600982016040518060800160405290816000820154815260200160018201548152602001600282015481526020016003820160009054906101000a900460ff1615151515815250508152602001600d820180548060200260200160405190810160405280929190818152602001828054801561263557602002820191906000526020600020905b81546001600160a01b03168152600190910190602001808311612617575b5050509183525050600e82015460ff1615156020820152600f9091015460409091015290506127106126696103e882614afe565b61ffff168260a001518360e001516126819190614a9f565b61268b9190614ab2565b61119d9190614ac9565b600061119d8284613ef6565b600082815260ce602090815260408083203384529091528120805483111561270b5760405162461bcd60e51b815260206004820152601a60248201527f416d6f756e7420626967676572207468616e206465706f7369740000000000006044820152606401610a53565b61271862093a8042614a9f565b600382015561272a62093a8042614a9f565b612737906203f480614a9f565b600482015560058101839055604051839085907fb3b9c925de3673837b40c6b4d4463a8f88dc821cd27e07f1ff6bf6abf96413a590600090a35060019392505050565b60008060cd848154811061279057612790614a73565b6000918252602090912060109091020160018101549091506001600160a01b031633146127cf5760405162461bcd60e51b8152600401610a5390614b20565b6009810154421180156127e55750600a81015442105b80156127f65750600c81015460ff16155b80156128065750600b8101548311155b80156128155750600981015415155b6128315760405162461bcd60e51b8152600401610a5390614b48565b600c8101805460ff191660011790556003810154600582015460009161285691614a9f565b90508382600301600082825461286c9190614aeb565b90915550506001820154825461288f916001600160a01b03918216911686613df4565b506000826003015483600501546128a69190614a9f565b9050808287600080516020614e9583398151915260405160405180910390a450600195945050505050565b60d081815481106128e157600080fd5b6000918252602090912001546001600160a01b0316905081565b60008060cd838154811061291157612911614a73565b6000918252602091829020604080516101e081018252601090930290910180546001600160a01b03808216855260ff600160a01b8304169585019590955261ffff600160a81b909104169183019190915260018101549092166060820152600282018054919291608084019190612987906149a1565b80601f01602080910402602001604051908101604052809291908181526020018280546129b3906149a1565b8015612a005780601f106129d557610100808354040283529160200191612a00565b820191906000526020600020905b8154815290600101906020018083116129e357829003601f168201915b50505050508152602001600382015481526020016004820154815260200160058201548152602001600682015481526020016007820154815260200160088201548152602001600982016040518060800160405290816000820154815260200160018201548152602001600282015481526020016003820160009054906101000a900460ff1615151515815250508152602001600d8201805480602002602001604051908101604052809291908181526020018280548015612aeb57602002820191906000526020600020905b81546001600160a01b03168152600190910190602001808311612acd575b5050509183525050600e82015460ff1615156020820152600f90910154604091820152015161ffff169392505050565b600082815260ce602090815260408083206001600160a01b038516845290915281208054919081908190612b4f87876111dd565b5060058301546003909301549699909850919650909350505050565b60008060008060cd8581548110612b8457612b84614a73565b6000918252602091829020604080516101e081018252601090930290910180546001600160a01b03808216855260ff600160a01b8304169585019590955261ffff600160a81b909104169183019190915260018101549092166060820152600282018054919291608084019190612bfa906149a1565b80601f0160208091040260200160405190810160405280929190818152602001828054612c26906149a1565b8015612c735780601f10612c4857610100808354040283529160200191612c73565b820191906000526020600020905b815481529060010190602001808311612c5657829003601f168201915b50505050508152602001600382015481526020016004820154815260200160058201548152602001600682015481526020016007820154815260200160088201548152602001600982016040518060800160405290816000820154815260200160018201548152602001600282015481526020016003820160009054906101000a900460ff1615151515815250508152602001600d8201805480602002602001604051908101604052809291908181526020018280548015612d5e57602002820191906000526020600020905b81546001600160a01b03168152600190910190602001808311612d40575b5050509183525050600e82015460ff161515602080830191909152600f90920154604091820152610160909201518051918101519201519097919650945092505050565b60008060008060cd8581548110612dbb57612dbb614a73565b6000918252602091829020604080516101e081018252601090930290910180546001600160a01b03808216855260ff600160a01b8304169585019590955261ffff600160a81b909104169183019190915260018101549092166060820152600282018054919291608084019190612e31906149a1565b80601f0160208091040260200160405190810160405280929190818152602001828054612e5d906149a1565b8015612eaa5780601f10612e7f57610100808354040283529160200191612eaa565b820191906000526020600020905b815481529060010190602001808311612e8d57829003601f168201915b50505050508152602001600382015481526020016004820154815260200160058201548152602001600682015481526020016007820154815260200160088201548152602001600982016040518060800160405290816000820154815260200160018201548152602001600282015481526020016003820160009054906101000a900460ff1615151515815250508152602001600d8201805480602002602001604051908101604052809291908181526020018280548015612f9557602002820191906000526020600020905b81546001600160a01b03168152600190910190602001808311612f77575b5050509183525050600e82015460ff1615156020820152600f90910154604090910152610100810151610120820151610140909201519097919650945092505050565b6034546001600160a01b031633146130415760405162461bcd60e51b815260206004820152602660248201527f6f6e6c792070656e64696e67206f776e65722063616e2061636365707420747260448201526530b739b332b960d11b6064820152608401610a53565b603454613056906001600160a01b0316613f31565b565b60008060cd838154811061306e5761306e614a73565b6000918252602090912060109091020160018101549091506001600160a01b03163314806130a657506033546001600160a01b031633145b6130c25760405162461bcd60e51b8152600401610a5390614b20565b600e8101805460ff1916905542600f90910155506001919050565b600060cd85815481106130f2576130f2614a73565b60009182526020909120601090910201600e81015490915060ff161561315a5760405162461bcd60e51b815260206004820152601860248201527f506f6f6c20616c726561647920696e697469616c697a656400000000000000006044820152606401610a53565b60008361ffff1611801561317457506127108361ffff1611155b6131b35760405162461bcd60e51b815260206004820152601060248201526f415059206f7574206f662072616e676560801b6044820152606401610a53565b80546131ca90600160a01b900460ff16600a614dd8565b6131d5906064614ab2565b8410158015613207575080546131f690600160a01b900460ff16600a614dd8565b6132039062989680614ab2565b8411155b61324b5760405162461bcd60e51b8152602060048201526015602482015274506f6f6c20636170206f7574206f662072616e676560581b6044820152606401610a53565b60018101546001600160a01b031633146132775760405162461bcd60e51b8152600401610a5390614b20565b60006301e1338061271062093a8061329361ffff881689614ab2565b61329d9190614ab2565b6132a79190614ac9565b6132b19190614ac9565b905060006127106132c46103e884614ab2565b6132ce9190614ac9565b90506132f233306132df8588614a9f565b86546001600160a01b0316929190613e5a565b50838360030160008282546133079190614a9f565b909155505060048301869055825461ffff60a81b1916600160a81b61ffff871602178355600e8301805460ff1916600117905560078301829055600683018290556133528183614aeb565b836008018190555050505050505050565b600061336d613998565b6001600160a01b038316600090815260cc602090815260408083205460cb90925282205461339b9190614a9f565b6001600160a01b038516600081815260cb6020908152604080832083905560cc9091528120559091506133cf908483613df4565b506001949350505050565b60008060cd83815481106133f0576133f0614a73565b6000918252602091829020604080516101e081018252601090930290910180546001600160a01b03808216855260ff600160a01b8304169585019590955261ffff600160a81b909104169183019190915260018101549092166060820152600282018054919291608084019190613466906149a1565b80601f0160208091040260200160405190810160405280929190818152602001828054613492906149a1565b80156134df5780601f106134b4576101008083540402835291602001916134df565b820191906000526020600020905b8154815290600101906020018083116134c257829003601f168201915b50505050508152602001600382015481526020016004820154815260200160058201548152602001600682015481526020016007820154815260200160088201548152602001600982016040518060800160405290816000820154815260200160018201548152602001600282015481526020016003820160009054906101000a900460ff1615151515815250508152602001600d82018054806020026020016040519081016040528092919081815260200182805480156135ca57602002820191906000526020600020905b81546001600160a01b031681526001909101906020018083116135ac575b5050509183525050600e82015460ff1615156020820152600f9091015460409091015260e001519392505050565b6000613602613998565b6001600160a01b038316600090815260cf602052604090205460ff1615158215146136675760405162461bcd60e51b81526020600482015260156024820152741dda1a5d195b1a5cdd08185b1c9958591e481cd95d605a1b6044820152606401610a53565b6001600160a01b038316600081815260cf6020526040808220805460ff191686151590811790915590519092917f99795d51e5a8804307721456a7a9c2f0d7421f719d46a46d36e91fee7c85aa7691a3811561370d5760d080546001810182556000919091527fe89d44c8fd6a9bac8af33ce47f56337617d449bf7ff3956b618c646de829cbcb0180546001600160a01b0319166001600160a01b03851617905561381c565b60d05460005b8181101561381957600060d0828154811061373057613730614a73565b6000918252602090912001546001600160a01b039081169150861681036138085760d061375e600185614aeb565b8154811061376e5761376e614a73565b60009182526020909120015460d080546001600160a01b03909216918490811061379a5761379a614a73565b9060005260206000200160006101000a8154816001600160a01b0302191690836001600160a01b0316021790555060d08054806137d9576137d9614b91565b600082815260209020810160001990810180546001600160a01b03191690550190555060019250611588915050565b5061381281614de7565b9050613713565b50505b50600192915050565b600061382f613998565b60d05460005b818110156138e157600060d0828154811061385257613852614a73565b60009182526020808320909101546001600160a01b031680835260cc825260408084205460cb90935283205490935061388b9190614a9f565b90508060000361389c5750506138d1565b6001600160a01b038216600081815260cb6020908152604080832083905560cc9091528120556138cd908783613df4565b5050505b6138da81614de7565b9050613835565b5060019392505050565b6138f3613998565b6001600160a01b0381166139585760405162461bcd60e51b815260206004820152602660248201527f4f776e61626c653a206e6577206f776e657220697320746865207a65726f206160448201526564647265737360d01b6064820152608401610a53565b603480546001600160a01b0319166001600160a01b0392909216919091179055565b613982613e9d565b61398e81336001613c94565b610af0600160ca55565b6033546001600160a01b031633146130565760405162461bcd60e51b815260206004820181905260248201527f4f776e61626c653a2063616c6c6572206973206e6f7420746865206f776e65726044820152606401610a53565b600060cd8381548110613a0757613a07614a73565b9060005260206000209060100201905060008282600701548360060154613a2e9190614aeb565b613a389190614a9f565b60018301548354919250613a5a916001600160a01b0390811691163084613e5a565b506000612710613a6c6103e884614ab2565b613a769190614ac9565b905081836007016000828254613a8c9190614a9f565b909155505082546001600160a01b0316600090815260cc602052604081208054839290613aba908490614a9f565b9091555060009050613acc8284614aeb565b905080846008016000828254613ae29190614a9f565b9091555050604051839087907fadb049ad2d09be3db90459a16aef1ad0a4d89e8fdcc1ade9429d6cc55abbcd2b90600090a3505050505050565b610af0613998565b7f4910fdfa16fed3260ed0e7147f7cc6da11a60208b5b9406d12a635614ffd91435460ff1615613b5c57613b5783613f8e565b505050565b826001600160a01b03166352d1902d6040518163ffffffff1660e01b8152600401602060405180830381865afa925050508015613bb6575060408051601f3d908101601f19168201909252613bb391810190614e00565b60015b613c195760405162461bcd60e51b815260206004820152602e60248201527f45524331393637557067726164653a206e657720696d706c656d656e7461746960448201526d6f6e206973206e6f74205555505360901b6064820152608401610a53565b600080516020614eb58339815191528114613c885760405162461bcd60e51b815260206004820152602960248201527f45524331393637557067726164653a20756e737570706f727465642070726f786044820152681a58589b195555525160ba1b6064820152608401610a53565b50613b5783838361402a565b600060cd8481548110613ca957613ca9614a73565b6000918252602080832087845260ce825260408085206001600160a01b03891686529092529220805460109092029092019250158015613ceb57506001810154155b15613cfd574260029091015550505050565b6000806000613d0c88886111dd565b92509250925085613d5a5780846001016000828254613d2b9190614a9f565b9091555050600f850154600003613d425742613d48565b84600f01545b84600201819055505050505050505050565b8460070154831115613d7057613d7088846139f2565b8215613dea57600060018501819055600f8601549003613d905742613d96565b84600f01545b846002018190555082856007016000828254613db29190614aeb565b9250508190555081856008016000828254613dcd9190614aeb565b90915550508454613de8906001600160a01b03168884613df4565b505b5050505050505050565b6040516001600160a01b0383166024820152604481018290526000906138e190859063a9059cbb60e01b906064015b60408051601f198184030181529190526020810180516001600160e01b03166001600160e01b031990931692909217909152614055565b6040516001600160a01b03808516602483015283166044820152606481018290526000906133cf9086906323b872dd60e01b90608401613e23565b949350505050565b600260ca5403613eef5760405162461bcd60e51b815260206004820152601f60248201527f5265656e7472616e637947756172643a207265656e7472616e742063616c6c006044820152606401610a53565b600260ca55565b600061119d8284614aeb565b600054610100900460ff16613f295760405162461bcd60e51b8152600401610a5390614e19565b613056614127565b603380546001600160a01b038381166001600160a01b03198084168217909455603480549094169093556040519116919082907f8be0079c531659141344cd1fd0a4f28419497f9722a3daafe3b4186f6b6457e090600090a35050565b6001600160a01b0381163b613ffb5760405162461bcd60e51b815260206004820152602d60248201527f455243313936373a206e657720696d706c656d656e746174696f6e206973206e60448201526c1bdd08184818dbdb9d1c9858dd609a1b6064820152608401610a53565b600080516020614eb583398151915280546001600160a01b0319166001600160a01b0392909216919091179055565b61403383614157565b6000825111806140405750805b15613b575761404f8383614197565b50505050565b60006140aa826040518060400160405280602081526020017f5361666545524332303a206c6f772d6c6576656c2063616c6c206661696c6564815250856001600160a01b031661428b9092919063ffffffff16565b805190915015613b5757808060200190518101906140c89190614e64565b613b575760405162461bcd60e51b815260206004820152602a60248201527f5361666545524332303a204552433230206f7065726174696f6e20646964206e6044820152691bdd081cdd58d8d9595960b21b6064820152608401610a53565b600054610100900460ff1661414e5760405162461bcd60e51b8152600401610a5390614e19565b61305633613f31565b61416081613f8e565b6040516001600160a01b038216907fbc7cd75a20ee27fd9adebab32041f755214dbc6bffa90cc0225b39da2e5c2d3b90600090a250565b60606001600160a01b0383163b6141ff5760405162461bcd60e51b815260206004820152602660248201527f416464726573733a2064656c65676174652063616c6c20746f206e6f6e2d636f6044820152651b9d1c9858dd60d21b6064820152608401610a53565b600080846001600160a01b03168460405161421a9190614ba7565b600060405180830381855af49150503d8060008114614255576040519150601f19603f3d011682016040523d82523d6000602084013e61425a565b606091505b50915091506142828282604051806060016040528060278152602001614ed56027913961429a565b95945050505050565b6060613e9584846000856142b3565b606083156142a957508161119d565b61119d8383614383565b6060824710156143145760405162461bcd60e51b815260206004820152602660248201527f416464726573733a20696e73756666696369656e742062616c616e636520666f6044820152651c8818d85b1b60d21b6064820152608401610a53565b600080866001600160a01b031685876040516143309190614ba7565b60006040518083038185875af1925050503d806000811461436d576040519150601f19603f3d011682016040523d82523d6000602084013e614372565b606091505b509150915061232a878383876143ad565b8151156143935781518083602001fd5b8060405162461bcd60e51b8152600401610a539190614e81565b6060831561441c578251600003614415576001600160a01b0385163b6144155760405162461bcd60e51b815260206004820152601d60248201527f416464726573733a2063616c6c20746f206e6f6e2d636f6e74726163740000006044820152606401610a53565b5081613e95565b613e958383614383565b5080546000825590600052602060002090810190610af09190614562565b604051806101e0016040528060006001600160a01b03168152602001600060ff168152602001600061ffff16815260200160006001600160a01b03168152602001606081526020016000815260200160008152602001600081526020016000815260200160008152602001600081526020016144e360405180608001604052806000815260200160008152602001600081526020016000151581525090565b815260606020820181905260006040830181905291015290565b828054828255906000526020600020908101928215614552579160200282015b8281111561455257825182546001600160a01b0319166001600160a01b0390911617825560209092019160019091019061451d565b5061455e929150614562565b5090565b5b8082111561455e5760008155600101614563565b60006020828403121561458957600080fd5b5035919050565b60005b838110156145ab578181015183820152602001614593565b50506000910152565b600081518084526145cc816020860160208601614590565b601f01601f19169290920160200192915050565b6001600160a01b038f16815260ff8e16602082015261ffff8d1660408201526001600160a01b038c1660608201526102206080820152600061462661022083018d6145b4565b90508a60a08301528960c08301528860e08301528761010083015286610120830152856101408301526146806101608301868051825260208101516020830152604081015160408301526060810151151560608301525050565b9215156101e082015261020001529c9b505050505050505050505050565b80356001600160a01b0381168114610a0657600080fd5b6000602082840312156146c757600080fd5b61119d8261469e565b6000806000606084860312156146e557600080fd5b833592506146f56020850161469e565b9150604084013590509250925092565b6000806040838503121561471857600080fd5b823591506147286020840161469e565b90509250929050565b634e487b7160e01b600052604160045260246000fd5b600067ffffffffffffffff8084111561476257614762614731565b604051601f8501601f19908116603f0116810190828211818310171561478a5761478a614731565b816040528093508581528686860111156147a357600080fd5b858560208301376000602087830101525050509392505050565b600080604083850312156147d057600080fd5b6147d98361469e565b9150602083013567ffffffffffffffff8111156147f557600080fd5b8301601f8101851361480657600080fd5b61481585823560208401614747565b9150509250929050565b6000806040838503121561483257600080fd5b50508035926020909101359150565b8015158114610af057600080fd5b60008060006060848603121561486457600080fd5b8335925060208401359150604084013561487d81614841565b809150509250925092565b60008060006060848603121561489d57600080fd5b6148a68461469e565b92506148b46020850161469e565b9150604084013567ffffffffffffffff8111156148d057600080fd5b8401601f810186136148e157600080fd5b6148f086823560208401614747565b9150509250925092565b6000806000806080858703121561491057600080fd5b8435935060208501359250604085013561ffff8116811461493057600080fd5b9396929550929360600135925050565b6000806040838503121561495357600080fd5b61495c8361469e565b91506147286020840161469e565b6000806040838503121561497d57600080fd5b6149868361469e565b9150602083013561499681614841565b809150509250929050565b600181811c908216806149b557607f821691505b6020821081036149d557634e487b7160e01b600052602260045260246000fd5b50919050565b6020808252602c908201527f46756e6374696f6e206d7573742062652063616c6c6564207468726f7567682060408201526b19195b1959d85d1958d85b1b60a21b606082015260800190565b6020808252602c908201527f46756e6374696f6e206d7573742062652063616c6c6564207468726f7567682060408201526b6163746976652070726f787960a01b606082015260800190565b634e487b7160e01b600052603260045260246000fd5b634e487b7160e01b600052601160045260246000fd5b8082018082111561158857611588614a89565b808202811582820484141761158857611588614a89565b600082614ae657634e487b7160e01b600052601260045260246000fd5b500490565b8181038181111561158857611588614a89565b61ffff828116828216039080821115614b1957614b19614a89565b5092915050565b6020808252600e908201526d139bdd08185d5d1a1bdc9a5e995960921b604082015260600190565b60208082526029908201527f54696d656c6f636b206e6f7420736574206f72206e6f7420636f6d706c6574656040820152686420696e2074696d6560b81b606082015260800190565b634e487b7160e01b600052603160045260246000fd5b60008251614bb9818460208701614590565b9190910192915050565b600060208284031215614bd557600080fd5b815160ff8116811461119d57600080fd5b601f821115613b5757600081815260208120601f850160051c81016020861015614c0d5750805b601f850160051c820191505b81811015614c2c57828155600101614c19565b505050505050565b815167ffffffffffffffff811115614c4e57614c4e614731565b614c6281614c5c84546149a1565b84614be6565b602080601f831160018114614c975760008415614c7f5750858301515b600019600386901b1c1916600185901b178555614c2c565b600085815260208120601f198616915b82811015614cc657888601518255948401946001909101908401614ca7565b5085821015614ce45787850151600019600388901b60f8161c191681555b5050505050600190811b01905550565b600181815b80851115614d2f578160001904821115614d1557614d15614a89565b80851615614d2257918102915b93841c9390800290614cf9565b509250929050565b600082614d4657506001611588565b81614d5357506000611588565b8160018114614d695760028114614d7357614d8f565b6001915050611588565b60ff841115614d8457614d84614a89565b50506001821b611588565b5060208310610133831016604e8410600b8410161715614db2575081810a611588565b614dbc8383614cf4565b8060001904821115614dd057614dd0614a89565b029392505050565b600061119d60ff841683614d37565b600060018201614df957614df9614a89565b5060010190565b600060208284031215614e1257600080fd5b5051919050565b6020808252602b908201527f496e697469616c697a61626c653a20636f6e7472616374206973206e6f74206960408201526a6e697469616c697a696e6760a81b606082015260800190565b600060208284031215614e7657600080fd5b815161119d81614841565b60208152600061119d60208301846145b456fea3ea4fb8dee4d414198cb197af6eae4fe483c1a0b849dc50e53b9bf1a60e2166360894a13ba1a3210667c828492db98dca3e2076cc3735a920a3ca505d382bbc416464726573733a206c6f772d6c6576656c2064656c65676174652063616c6c206661696c6564a26469706673582212202712d2dafbb082bd6dee18d5fcbd4ef27789f40aba962ff916e82026a7b983e864736f6c63430008110033",
    "linkReferences": {}
  },
  "methodIdentifiers": {
    "acceptOwnershipTransfer()": "b842e87f",
    "activeTokens(uint256)": "9f224f35",
    "addNewBountyPool(address,address,string)": "804fd590",
    "billPremium(uint256)": "2dbe051e",
    "claimPremium(uint256)": "f47ec3be",
    "collectAllSaloonProfits(address)": "ecd7fbed",
    "collectSaloonProfits(address,address)": "cf9564b9",
    "getMultiplier(uint256,uint256)": "8dbb1e3a",
    "initialize()": "8129fc1c",
    "makeProjectDeposit(uint256,uint256)": "57a86d3a",
    "owner()": "8da5cb5b",
    "payBounty(uint256,address,uint256)": "3ac6ad7b",
    "pendingToken(uint256,address)": "48e43af4",
    "poolInfo(uint256)": "1526fe27",
    "poolLength()": "081e3eda",
    "projectDepositWithdrawal(uint256,uint256)": "983c1ce0",
    "proxiableUUID()": "52d1902d",
    "saloonBountyProfit(address)": "e45abd0f",
    "saloonPremiumProfit(address)": "ca006148",
    "scheduleProjectDepositWithdrawal(uint256,uint256)": "5669cbef",
    "scheduleUnstake(uint256,uint256)": "91635b4e",
    "setAPYandPoolCapAndDeposit(uint256,uint256,uint16,uint256)": "cee6b069",
    "stake(uint256,address,uint256)": "6e9c931c",
    "tokenWhitelist(address)": "753d7563",
    "transferOwnership(address)": "f2fde38b",
    "unstake(uint256,uint256,bool)": "79b91d69",
    "updateTokenWhitelist(address,bool)": "e5e97c65",
    "upgradeTo(address)": "3659cfe6",
    "upgradeToAndCall(address,bytes)": "4f1ef286",
    "userInfo(uint256,address)": "93f1a40b",
    "viewBountyBalance(uint256)": "6ac6d812",
    "viewBountyInfo(uint256)": "40ef2868",
    "viewHackerPayout(uint256)": "861e5f66",
    "viewPoolAPY(uint256)": "a27f9213",
    "viewPoolCap(uint256)": "39679ff4",
    "viewPoolPremiumInfo(uint256)": "b1a2d16f",
    "viewPoolTimelockInfo(uint256)": "ac30b856",
    "viewSaloonProfitBalance(address)": "718c7eef",
    "viewTotalStaked(uint256)": "dbdd6957",
    "viewUserInfo(uint256,address)": "a754ecb0",
    "viewUserUnclaimed(uint256,address)": "5e3b748b",
    "windDownBounty(uint256)": "bb7019c1"
  },
  "id": 32
}