{
  "abi": [
    {
      "inputs": [
        {
          "internalType": "UD60x18",
          "name": "x",
          "type": "uint256"
        }
      ],
      "name": "PRBMathUD60x18__LogInputTooSmall",
      "type": "error"
    },
    {
      "inputs": [
        {
          "internalType": "uint256",
          "name": "x",
          "type": "uint256"
        }
      ],
      "name": "PRBMathUD60x18__ToUD60x18Overflow",
      "type": "error"
    },
    {
      "inputs": [
        {
          "internalType": "uint256",
          "name": "x",
          "type": "uint256"
        },
        {
          "internalType": "uint256",
          "name": "y",
          "type": "uint256"
        }
      ],
      "name": "PRBMath__MulDiv18Overflow",
      "type": "error"
    },
    {
      "inputs": [
        {
          "internalType": "uint256",
          "name": "x",
          "type": "uint256"
        },
        {
          "internalType": "uint256",
          "name": "y",
          "type": "uint256"
        },
        {
          "internalType": "uint256",
          "name": "denominator",
          "type": "uint256"
        }
      ],
      "name": "PRBMath__MulDivOverflow",
      "type": "error"
    },
    {
      "anonymous": false,
      "inputs": [
        {
          "indexed": false,
          "internalType": "address",
          "name": "previousAdmin",
          "type": "address"
        },
        {
          "indexed": false,
          "internalType": "address",
          "name": "newAdmin",
          "type": "address"
        }
      ],
      "name": "AdminChanged",
      "type": "event"
    },
    {
      "anonymous": false,
      "inputs": [
        {
          "indexed": true,
          "internalType": "address",
          "name": "owner",
          "type": "address"
        },
        {
          "indexed": true,
          "internalType": "address",
          "name": "approved",
          "type": "address"
        },
        {
          "indexed": true,
          "internalType": "uint256",
          "name": "tokenId",
          "type": "uint256"
        }
      ],
      "name": "Approval",
      "type": "event"
    },
    {
      "anonymous": false,
      "inputs": [
        {
          "indexed": true,
          "internalType": "address",
          "name": "owner",
          "type": "address"
        },
        {
          "indexed": true,
          "internalType": "address",
          "name": "operator",
          "type": "address"
        },
        {
          "indexed": false,
          "internalType": "bool",
          "name": "approved",
          "type": "bool"
        }
      ],
      "name": "ApprovalForAll",
      "type": "event"
    },
    {
      "anonymous": false,
      "inputs": [
        {
          "indexed": true,
          "internalType": "address",
          "name": "beacon",
          "type": "address"
        }
      ],
      "name": "BeaconUpgraded",
      "type": "event"
    },
    {
      "anonymous": false,
      "inputs": [
        {
          "indexed": true,
          "internalType": "uint256",
          "name": "pid",
          "type": "uint256"
        },
        {
          "indexed": true,
          "internalType": "uint256",
          "name": "oldAmount",
          "type": "uint256"
        },
        {
          "indexed": true,
          "internalType": "uint256",
          "name": "newAmount",
          "type": "uint256"
        }
      ],
      "name": "BountyBalanceChanged",
      "type": "event"
    },
    {
      "anonymous": false,
      "inputs": [
        {
          "indexed": true,
          "internalType": "uint256",
          "name": "time",
          "type": "uint256"
        },
        {
          "indexed": true,
          "internalType": "address",
          "name": "hunter",
          "type": "address"
        },
        {
          "indexed": true,
          "internalType": "address",
          "name": "token",
          "type": "address"
        },
        {
          "indexed": false,
          "internalType": "uint256",
          "name": "amount",
          "type": "uint256"
        }
      ],
      "name": "BountyPaid",
      "type": "event"
    },
    {
      "anonymous": false,
      "inputs": [
        {
          "indexed": false,
          "internalType": "uint8",
          "name": "version",
          "type": "uint8"
        }
      ],
      "name": "Initialized",
      "type": "event"
    },
    {
      "anonymous": false,
      "inputs": [
        {
          "indexed": true,
          "internalType": "uint256",
          "name": "pid",
          "type": "uint256"
        },
        {
          "indexed": true,
          "internalType": "address",
          "name": "token",
          "type": "address"
        },
        {
          "indexed": true,
          "internalType": "uint256",
          "name": "tokenDecimals",
          "type": "uint256"
        }
      ],
      "name": "NewBountyDeployed",
      "type": "event"
    },
    {
      "anonymous": false,
      "inputs": [
        {
          "indexed": true,
          "internalType": "address",
          "name": "previousOwner",
          "type": "address"
        },
        {
          "indexed": true,
          "internalType": "address",
          "name": "newOwner",
          "type": "address"
        }
      ],
      "name": "OwnershipTransferred",
      "type": "event"
    },
    {
      "anonymous": false,
      "inputs": [
        {
          "indexed": true,
          "internalType": "uint256",
          "name": "pid",
          "type": "uint256"
        },
        {
          "indexed": true,
          "internalType": "uint256",
          "name": "amount",
          "type": "uint256"
        }
      ],
      "name": "PremiumBilled",
      "type": "event"
    },
    {
      "anonymous": false,
      "inputs": [
        {
          "indexed": true,
          "internalType": "address",
          "name": "user",
          "type": "address"
        },
        {
          "indexed": true,
          "internalType": "uint256",
          "name": "pid",
          "type": "uint256"
        },
        {
          "indexed": false,
          "internalType": "uint256",
          "name": "amount",
          "type": "uint256"
        }
      ],
      "name": "Staked",
      "type": "event"
    },
    {
      "anonymous": false,
      "inputs": [
        {
          "indexed": true,
          "internalType": "address",
          "name": "from",
          "type": "address"
        },
        {
          "indexed": true,
          "internalType": "address",
          "name": "to",
          "type": "address"
        },
        {
          "indexed": true,
          "internalType": "uint256",
          "name": "tokenId",
          "type": "uint256"
        }
      ],
      "name": "Transfer",
      "type": "event"
    },
    {
      "anonymous": false,
      "inputs": [
        {
          "indexed": true,
          "internalType": "address",
          "name": "user",
          "type": "address"
        },
        {
          "indexed": true,
          "internalType": "uint256",
          "name": "pid",
          "type": "uint256"
        },
        {
          "indexed": false,
          "internalType": "uint256",
          "name": "amount",
          "type": "uint256"
        }
      ],
      "name": "Unstaked",
      "type": "event"
    },
    {
      "anonymous": false,
      "inputs": [
        {
          "indexed": true,
          "internalType": "address",
          "name": "implementation",
          "type": "address"
        }
      ],
      "name": "Upgraded",
      "type": "event"
    },
    {
      "anonymous": false,
      "inputs": [
        {
          "indexed": true,
          "internalType": "uint256",
          "name": "pid",
          "type": "uint256"
        },
        {
          "indexed": true,
          "internalType": "uint256",
          "name": "amount",
          "type": "uint256"
        }
      ],
      "name": "WithdrawalOrUnstakeScheduled",
      "type": "event"
    },
    {
      "anonymous": false,
      "inputs": [
        {
          "indexed": true,
          "internalType": "address",
          "name": "token",
          "type": "address"
        },
        {
          "indexed": true,
          "internalType": "bool",
          "name": "whitelisted",
          "type": "bool"
        }
      ],
      "name": "tokenWhitelistUpdated",
      "type": "event"
    },
    {
      "inputs": [],
      "name": "acceptOwnershipTransfer",
      "outputs": [],
      "stateMutability": "nonpayable",
      "type": "function"
    },
    {
      "inputs": [
        {
          "internalType": "uint256",
          "name": "",
          "type": "uint256"
        }
      ],
      "name": "activeStrategies",
      "outputs": [
        {
          "internalType": "bytes32",
          "name": "",
          "type": "bytes32"
        }
      ],
      "stateMutability": "view",
      "type": "function"
    },
    {
      "inputs": [
        {
          "internalType": "uint256",
          "name": "",
          "type": "uint256"
        }
      ],
      "name": "activeTokens",
      "outputs": [
        {
          "internalType": "address",
          "name": "",
          "type": "address"
        }
      ],
      "stateMutability": "view",
      "type": "function"
    },
    {
      "inputs": [
        {
          "internalType": "address",
          "name": "_token",
          "type": "address"
        },
        {
          "internalType": "address",
          "name": "_projectWallet",
          "type": "address"
        },
        {
          "internalType": "string",
          "name": "_projectName",
          "type": "string"
        }
      ],
      "name": "addNewBountyPool",
      "outputs": [
        {
          "internalType": "uint256",
          "name": "",
          "type": "uint256"
        }
      ],
      "stateMutability": "nonpayable",
      "type": "function"
    },
    {
      "inputs": [
        {
          "internalType": "address",
          "name": "to",
          "type": "address"
        },
        {
          "internalType": "uint256",
          "name": "tokenId",
          "type": "uint256"
        }
      ],
      "name": "approve",
      "outputs": [],
      "stateMutability": "nonpayable",
      "type": "function"
    },
    {
      "inputs": [
        {
          "internalType": "address",
          "name": "owner",
          "type": "address"
        }
      ],
      "name": "balanceOf",
      "outputs": [
        {
          "internalType": "uint256",
          "name": "",
          "type": "uint256"
        }
      ],
      "stateMutability": "view",
      "type": "function"
    },
    {
      "inputs": [
        {
          "internalType": "uint256",
          "name": "_pid",
          "type": "uint256"
        }
      ],
      "name": "billPremium",
      "outputs": [
        {
          "internalType": "bool",
          "name": "",
          "type": "bool"
        }
      ],
      "stateMutability": "nonpayable",
      "type": "function"
    },
    {
      "inputs": [
        {
          "internalType": "uint256",
          "name": "_poolCap",
          "type": "uint256"
        },
        {
          "internalType": "uint256",
          "name": "_apy",
          "type": "uint256"
        }
      ],
      "name": "calcRequiredPremiumBalancePerPeriod",
      "outputs": [
        {
          "internalType": "uint256",
          "name": "requiredPremiumBalance",
          "type": "uint256"
        }
      ],
      "stateMutability": "pure",
      "type": "function"
    },
    {
      "inputs": [
        {
          "internalType": "uint256",
          "name": "_pid",
          "type": "uint256"
        },
        {
          "internalType": "uint256",
          "name": "_stake",
          "type": "uint256"
        }
      ],
      "name": "calculateEffectiveAPY",
      "outputs": [
        {
          "internalType": "uint256",
          "name": "scaledAPY",
          "type": "uint256"
        }
      ],
      "stateMutability": "view",
      "type": "function"
    },
    {
      "inputs": [
        {
          "internalType": "uint256",
          "name": "_pid",
          "type": "uint256"
        },
        {
          "internalType": "uint256",
          "name": "_stake",
          "type": "uint256"
        },
        {
          "internalType": "uint256",
          "name": "_memX",
          "type": "uint256"
        }
      ],
      "name": "calculateEffectiveAPYConsolidate",
      "outputs": [
        {
          "internalType": "uint256",
          "name": "scaledAPY",
          "type": "uint256"
        }
      ],
      "stateMutability": "view",
      "type": "function"
    },
    {
      "inputs": [
        {
          "internalType": "uint256",
          "name": "_tokenId",
          "type": "uint256"
        }
      ],
      "name": "claimPremium",
      "outputs": [],
      "stateMutability": "nonpayable",
      "type": "function"
    },
    {
      "inputs": [
        {
          "internalType": "address",
          "name": "_saloonWallet",
          "type": "address"
        }
      ],
      "name": "collectAllSaloonProfits",
      "outputs": [
        {
          "internalType": "bool",
          "name": "",
          "type": "bool"
        }
      ],
      "stateMutability": "nonpayable",
      "type": "function"
    },
    {
      "inputs": [
        {
          "internalType": "address",
          "name": "_token",
          "type": "address"
        },
        {
          "internalType": "address",
          "name": "_saloonWallet",
          "type": "address"
        }
      ],
      "name": "collectSaloonProfits",
      "outputs": [
        {
          "internalType": "bool",
          "name": "",
          "type": "bool"
        }
      ],
      "stateMutability": "nonpayable",
      "type": "function"
    },
    {
      "inputs": [],
      "name": "consolidate",
      "outputs": [],
      "stateMutability": "nonpayable",
      "type": "function"
    },
    {
      "inputs": [
        {
          "internalType": "uint256",
          "name": "_pid",
          "type": "uint256"
        }
      ],
      "name": "consolidate",
      "outputs": [],
      "stateMutability": "nonpayable",
      "type": "function"
    },
    {
      "inputs": [],
      "name": "consolidateAll",
      "outputs": [],
      "stateMutability": "nonpayable",
      "type": "function"
    },
    {
      "inputs": [
        {
          "internalType": "uint256",
          "name": "tokenId",
          "type": "uint256"
        }
      ],
      "name": "getApproved",
      "outputs": [
        {
          "internalType": "address",
          "name": "",
          "type": "address"
        }
      ],
      "stateMutability": "view",
      "type": "function"
    },
    {
      "inputs": [
        {
          "internalType": "uint256",
          "name": "_pid",
          "type": "uint256"
        }
      ],
      "name": "getCurrentAPY",
      "outputs": [
        {
          "internalType": "uint256",
          "name": "currentAPY",
          "type": "uint256"
        }
      ],
      "stateMutability": "view",
      "type": "function"
    },
    {
      "inputs": [
        {
          "internalType": "uint256",
          "name": "_from",
          "type": "uint256"
        },
        {
          "internalType": "uint256",
          "name": "_to",
          "type": "uint256"
        }
      ],
      "name": "getMultiplier",
      "outputs": [
        {
          "internalType": "uint256",
          "name": "",
          "type": "uint256"
        }
      ],
      "stateMutability": "pure",
      "type": "function"
    },
    {
      "inputs": [],
      "name": "index",
      "outputs": [
        {
          "internalType": "uint256",
          "name": "",
          "type": "uint256"
        }
      ],
      "stateMutability": "view",
      "type": "function"
    },
    {
      "inputs": [
        {
          "internalType": "address",
          "name": "_strategyFactory",
          "type": "address"
        }
      ],
      "name": "initialize",
      "outputs": [],
      "stateMutability": "nonpayable",
      "type": "function"
    },
    {
      "inputs": [
        {
          "internalType": "address",
          "name": "owner",
          "type": "address"
        },
        {
          "internalType": "address",
          "name": "operator",
          "type": "address"
        }
      ],
      "name": "isApprovedForAll",
      "outputs": [
        {
          "internalType": "bool",
          "name": "",
          "type": "bool"
        }
      ],
      "stateMutability": "view",
      "type": "function"
    },
    {
      "inputs": [
        {
          "internalType": "uint256",
          "name": "_pid",
          "type": "uint256"
        },
        {
          "internalType": "uint256",
          "name": "_deposit",
          "type": "uint256"
        },
        {
          "internalType": "string",
          "name": "_strategyName",
          "type": "string"
        }
      ],
      "name": "makeProjectDeposit",
      "outputs": [],
      "stateMutability": "nonpayable",
      "type": "function"
    },
    {
      "inputs": [
        {
          "internalType": "address",
          "name": "",
          "type": "address"
        }
      ],
      "name": "minTokenStakeAmount",
      "outputs": [
        {
          "internalType": "uint256",
          "name": "",
          "type": "uint256"
        }
      ],
      "stateMutability": "view",
      "type": "function"
    },
    {
      "inputs": [],
      "name": "name",
      "outputs": [
        {
          "internalType": "string",
          "name": "",
          "type": "string"
        }
      ],
      "stateMutability": "view",
      "type": "function"
    },
    {
      "inputs": [
        {
          "internalType": "uint256",
          "name": "",
          "type": "uint256"
        }
      ],
      "name": "nftAPY",
      "outputs": [
        {
          "internalType": "uint256",
          "name": "",
          "type": "uint256"
        }
      ],
      "stateMutability": "view",
      "type": "function"
    },
    {
      "inputs": [
        {
          "internalType": "uint256",
          "name": "",
          "type": "uint256"
        }
      ],
      "name": "nftBalance",
      "outputs": [
        {
          "internalType": "uint256",
          "name": "",
          "type": "uint256"
        }
      ],
      "stateMutability": "view",
      "type": "function"
    },
    {
      "inputs": [
        {
          "internalType": "uint256",
          "name": "",
          "type": "uint256"
        }
      ],
      "name": "nftInfo",
      "outputs": [
        {
          "internalType": "uint256",
          "name": "amount",
          "type": "uint256"
        },
        {
          "internalType": "uint256",
          "name": "xDelta",
          "type": "uint256"
        },
        {
          "internalType": "uint256",
          "name": "apy",
          "type": "uint256"
        },
        {
          "internalType": "uint256",
          "name": "unclaimed",
          "type": "uint256"
        },
        {
          "internalType": "uint256",
          "name": "lastClaimedTime",
          "type": "uint256"
        },
        {
          "internalType": "uint256",
          "name": "timelock",
          "type": "uint256"
        },
        {
          "internalType": "uint256",
          "name": "timelimit",
          "type": "uint256"
        }
      ],
      "stateMutability": "view",
      "type": "function"
    },
    {
      "inputs": [
        {
          "internalType": "uint256",
          "name": "",
          "type": "uint256"
        }
      ],
      "name": "nftToPid",
      "outputs": [
        {
          "internalType": "uint256",
          "name": "",
          "type": "uint256"
        }
      ],
      "stateMutability": "view",
      "type": "function"
    },
    {
      "inputs": [],
      "name": "owner",
      "outputs": [
        {
          "internalType": "address",
          "name": "",
          "type": "address"
        }
      ],
      "stateMutability": "view",
      "type": "function"
    },
    {
      "inputs": [
        {
          "internalType": "uint256",
          "name": "tokenId",
          "type": "uint256"
        }
      ],
      "name": "ownerOf",
      "outputs": [
        {
          "internalType": "address",
          "name": "",
          "type": "address"
        }
      ],
      "stateMutability": "view",
      "type": "function"
    },
    {
      "inputs": [
        {
          "internalType": "uint256",
          "name": "_pid",
          "type": "uint256"
        },
        {
          "internalType": "address",
          "name": "_hunter",
          "type": "address"
        },
        {
          "internalType": "uint256",
          "name": "_amount",
          "type": "uint256"
        }
      ],
      "name": "payBounty",
      "outputs": [
        {
          "internalType": "bool",
          "name": "",
          "type": "bool"
        }
      ],
      "stateMutability": "nonpayable",
      "type": "function"
    },
    {
      "inputs": [
        {
          "internalType": "uint256",
          "name": "_tokenId",
          "type": "uint256"
        }
      ],
      "name": "pendingPremium",
      "outputs": [
        {
          "internalType": "uint256",
          "name": "totalPending",
          "type": "uint256"
        },
        {
          "internalType": "uint256",
          "name": "actualPending",
          "type": "uint256"
        },
        {
          "internalType": "uint256",
          "name": "newPending",
          "type": "uint256"
        }
      ],
      "stateMutability": "view",
      "type": "function"
    },
    {
      "inputs": [
        {
          "internalType": "uint256",
          "name": "",
          "type": "uint256"
        },
        {
          "internalType": "uint256",
          "name": "",
          "type": "uint256"
        }
      ],
      "name": "pidNFTList",
      "outputs": [
        {
          "internalType": "uint256",
          "name": "",
          "type": "uint256"
        }
      ],
      "stateMutability": "view",
      "type": "function"
    },
    {
      "inputs": [
        {
          "internalType": "uint256",
          "name": "",
          "type": "uint256"
        },
        {
          "internalType": "bytes32",
          "name": "",
          "type": "bytes32"
        }
      ],
      "name": "pidStrategies",
      "outputs": [
        {
          "internalType": "address",
          "name": "",
          "type": "address"
        }
      ],
      "stateMutability": "view",
      "type": "function"
    },
    {
      "inputs": [
        {
          "internalType": "uint256",
          "name": "",
          "type": "uint256"
        }
      ],
      "name": "poolInfo",
      "outputs": [
        {
          "components": [
            {
              "internalType": "contract IERC20",
              "name": "token",
              "type": "address"
            },
            {
              "internalType": "uint8",
              "name": "tokenDecimals",
              "type": "uint8"
            },
            {
              "internalType": "uint16",
              "name": "apy",
              "type": "uint16"
            },
            {
              "internalType": "address",
              "name": "projectWallet",
              "type": "address"
            },
            {
              "internalType": "string",
              "name": "projectName",
              "type": "string"
            },
            {
              "internalType": "uint256",
              "name": "poolCap",
              "type": "uint256"
            },
            {
              "internalType": "uint256",
              "name": "totalStaked",
              "type": "uint256"
            },
            {
              "internalType": "uint256",
              "name": "multiplier",
              "type": "uint256"
            }
          ],
          "internalType": "struct ISaloon.GeneralInfo",
          "name": "generalInfo",
          "type": "tuple"
        },
        {
          "components": [
            {
              "internalType": "uint256",
              "name": "projectDepositHeld",
              "type": "uint256"
            },
            {
              "internalType": "uint256",
              "name": "projectDepositInStrategy",
              "type": "uint256"
            }
          ],
          "internalType": "struct ISaloon.DepositInfo",
          "name": "depositInfo",
          "type": "tuple"
        },
        {
          "components": [
            {
              "internalType": "uint256",
              "name": "premiumBalance",
              "type": "uint256"
            },
            {
              "internalType": "uint256",
              "name": "premiumAvailable",
              "type": "uint256"
            }
          ],
          "internalType": "struct ISaloon.PremiumInfo",
          "name": "premiumInfo",
          "type": "tuple"
        },
        {
          "components": [
            {
              "internalType": "uint256",
              "name": "timelock",
              "type": "uint256"
            },
            {
              "internalType": "uint256",
              "name": "timeLimit",
              "type": "uint256"
            },
            {
              "internalType": "uint256",
              "name": "withdrawalScheduledAmount",
              "type": "uint256"
            },
            {
              "internalType": "bool",
              "name": "withdrawalExecuted",
              "type": "bool"
            }
          ],
          "internalType": "struct ISaloon.TimelockInfo",
          "name": "poolTimelock",
          "type": "tuple"
        },
        {
          "components": [
            {
              "internalType": "uint256",
              "name": "currentX",
              "type": "uint256"
            },
            {
              "internalType": "uint256",
              "name": "currentY",
              "type": "uint256"
            },
            {
              "internalType": "uint256",
              "name": "totalSupply",
              "type": "uint256"
            },
            {
              "internalType": "uint256[]",
              "name": "unstakedTokens",
              "type": "uint256[]"
            }
          ],
          "internalType": "struct ISaloon.TokenInfo",
          "name": "tokenInfo",
          "type": "tuple"
        },
        {
          "internalType": "uint256",
          "name": "freezeTime",
          "type": "uint256"
        },
        {
          "internalType": "bool",
          "name": "isActive",
          "type": "bool"
        }
      ],
      "stateMutability": "view",
      "type": "function"
    },
    {
      "inputs": [],
      "name": "poolLength",
      "outputs": [
        {
          "internalType": "uint256",
          "name": "",
          "type": "uint256"
        }
      ],
      "stateMutability": "view",
      "type": "function"
    },
    {
      "inputs": [
        {
          "internalType": "uint256",
          "name": "_pid",
          "type": "uint256"
        },
        {
          "internalType": "uint256",
          "name": "_amount",
          "type": "uint256"
        }
      ],
      "name": "projectDepositWithdrawal",
      "outputs": [
        {
          "internalType": "bool",
          "name": "",
          "type": "bool"
        }
      ],
      "stateMutability": "nonpayable",
      "type": "function"
    },
    {
      "inputs": [],
      "name": "proxiableUUID",
      "outputs": [
        {
          "internalType": "bytes32",
          "name": "",
          "type": "bytes32"
        }
      ],
      "stateMutability": "view",
      "type": "function"
    },
    {
      "inputs": [
        {
          "internalType": "address",
          "name": "from",
          "type": "address"
        },
        {
          "internalType": "address",
          "name": "to",
          "type": "address"
        },
        {
          "internalType": "uint256",
          "name": "tokenId",
          "type": "uint256"
        }
      ],
      "name": "safeTransferFrom",
      "outputs": [],
      "stateMutability": "nonpayable",
      "type": "function"
    },
    {
      "inputs": [
        {
          "internalType": "address",
          "name": "from",
          "type": "address"
        },
        {
          "internalType": "address",
          "name": "to",
          "type": "address"
        },
        {
          "internalType": "uint256",
          "name": "tokenId",
          "type": "uint256"
        },
        {
          "internalType": "bytes",
          "name": "data",
          "type": "bytes"
        }
      ],
      "name": "safeTransferFrom",
      "outputs": [],
      "stateMutability": "nonpayable",
      "type": "function"
    },
    {
      "inputs": [
        {
          "internalType": "address",
          "name": "",
          "type": "address"
        }
      ],
      "name": "saloonBountyProfit",
      "outputs": [
        {
          "internalType": "uint256",
          "name": "",
          "type": "uint256"
        }
      ],
      "stateMutability": "view",
      "type": "function"
    },
    {
      "inputs": [
        {
          "internalType": "address",
          "name": "",
          "type": "address"
        }
      ],
      "name": "saloonPremiumProfit",
      "outputs": [
        {
          "internalType": "uint256",
          "name": "",
          "type": "uint256"
        }
      ],
      "stateMutability": "view",
      "type": "function"
    },
    {
      "inputs": [
        {
          "internalType": "uint256",
          "name": "_pid",
          "type": "uint256"
        },
        {
          "internalType": "uint256",
          "name": "_amount",
          "type": "uint256"
        }
      ],
      "name": "scheduleProjectDepositWithdrawal",
      "outputs": [
        {
          "internalType": "bool",
          "name": "",
          "type": "bool"
        }
      ],
      "stateMutability": "nonpayable",
      "type": "function"
    },
    {
      "inputs": [
        {
          "internalType": "uint256",
          "name": "_tokenId",
          "type": "uint256"
        }
      ],
      "name": "scheduleUnstake",
      "outputs": [
        {
          "internalType": "bool",
          "name": "",
          "type": "bool"
        }
      ],
      "stateMutability": "nonpayable",
      "type": "function"
    },
    {
      "inputs": [
        {
          "internalType": "uint256",
          "name": "_pid",
          "type": "uint256"
        },
        {
          "internalType": "uint256",
          "name": "_poolCap",
          "type": "uint256"
        },
        {
          "internalType": "uint16",
          "name": "_apy",
          "type": "uint16"
        },
        {
          "internalType": "uint256",
          "name": "_deposit",
          "type": "uint256"
        },
        {
          "internalType": "string",
          "name": "_strategyName",
          "type": "string"
        }
      ],
      "name": "setAPYandPoolCapAndDeposit",
      "outputs": [],
      "stateMutability": "nonpayable",
      "type": "function"
    },
    {
      "inputs": [
        {
          "internalType": "address",
          "name": "operator",
          "type": "address"
        },
        {
          "internalType": "bool",
          "name": "approved",
          "type": "bool"
        }
      ],
      "name": "setApprovalForAll",
      "outputs": [],
      "stateMutability": "nonpayable",
      "type": "function"
    },
    {
      "inputs": [
        {
          "internalType": "uint256",
          "name": "_pid",
          "type": "uint256"
        },
        {
          "internalType": "uint256",
          "name": "_amount",
          "type": "uint256"
        }
      ],
      "name": "stake",
      "outputs": [
        {
          "internalType": "uint256",
          "name": "",
          "type": "uint256"
        }
      ],
      "stateMutability": "nonpayable",
      "type": "function"
    },
    {
      "inputs": [
        {
          "internalType": "bytes4",
          "name": "interfaceId",
          "type": "bytes4"
        }
      ],
      "name": "supportsInterface",
      "outputs": [
        {
          "internalType": "bool",
          "name": "",
          "type": "bool"
        }
      ],
      "stateMutability": "view",
      "type": "function"
    },
    {
      "inputs": [],
      "name": "symbol",
      "outputs": [
        {
          "internalType": "string",
          "name": "",
          "type": "string"
        }
      ],
      "stateMutability": "view",
      "type": "function"
    },
    {
      "inputs": [
        {
          "internalType": "uint256",
          "name": "tokenId",
          "type": "uint256"
        }
      ],
      "name": "tokenURI",
      "outputs": [
        {
          "internalType": "string",
          "name": "",
          "type": "string"
        }
      ],
      "stateMutability": "view",
      "type": "function"
    },
    {
      "inputs": [
        {
          "internalType": "address",
          "name": "",
          "type": "address"
        }
      ],
      "name": "tokenWhitelist",
      "outputs": [
        {
          "internalType": "bool",
          "name": "",
          "type": "bool"
        }
      ],
      "stateMutability": "view",
      "type": "function"
    },
    {
      "inputs": [
        {
          "internalType": "address",
          "name": "from",
          "type": "address"
        },
        {
          "internalType": "address",
          "name": "to",
          "type": "address"
        },
        {
          "internalType": "uint256",
          "name": "tokenId",
          "type": "uint256"
        }
      ],
      "name": "transferFrom",
      "outputs": [],
      "stateMutability": "nonpayable",
      "type": "function"
    },
    {
      "inputs": [
        {
          "internalType": "address",
          "name": "newOwner",
          "type": "address"
        }
      ],
      "name": "transferOwnership",
      "outputs": [],
      "stateMutability": "nonpayable",
      "type": "function"
    },
    {
      "inputs": [
        {
          "internalType": "uint256",
          "name": "_tokenId",
          "type": "uint256"
        },
        {
          "internalType": "bool",
          "name": "_shouldHarvest",
          "type": "bool"
        }
      ],
      "name": "unstake",
      "outputs": [
        {
          "internalType": "bool",
          "name": "",
          "type": "bool"
        }
      ],
      "stateMutability": "nonpayable",
      "type": "function"
    },
    {
      "inputs": [
        {
          "internalType": "address",
          "name": "_strategyFactory",
          "type": "address"
        }
      ],
      "name": "updateStrategyFactoryAddress",
      "outputs": [],
      "stateMutability": "nonpayable",
      "type": "function"
    },
    {
      "inputs": [
        {
          "internalType": "address",
          "name": "_token",
          "type": "address"
        },
        {
          "internalType": "bool",
          "name": "_whitelisted",
          "type": "bool"
        },
        {
          "internalType": "uint256",
          "name": "_minStakeAmount",
          "type": "uint256"
        }
      ],
      "name": "updateTokenWhitelist",
      "outputs": [
        {
          "internalType": "bool",
          "name": "",
          "type": "bool"
        }
      ],
      "stateMutability": "nonpayable",
      "type": "function"
    },
    {
      "inputs": [
        {
          "internalType": "address",
          "name": "newImplementation",
          "type": "address"
        }
      ],
      "name": "upgradeTo",
      "outputs": [],
      "stateMutability": "nonpayable",
      "type": "function"
    },
    {
      "inputs": [
        {
          "internalType": "address",
          "name": "newImplementation",
          "type": "address"
        },
        {
          "internalType": "bytes",
          "name": "data",
          "type": "bytes"
        }
      ],
      "name": "upgradeToAndCall",
      "outputs": [],
      "stateMutability": "payable",
      "type": "function"
    },
    {
      "inputs": [
        {
          "internalType": "uint256",
          "name": "_pid",
          "type": "uint256"
        }
      ],
      "name": "viewBountyBalance",
      "outputs": [
        {
          "internalType": "uint256",
          "name": "",
          "type": "uint256"
        }
      ],
      "stateMutability": "view",
      "type": "function"
    },
    {
      "inputs": [
        {
          "internalType": "uint256",
          "name": "_pid",
          "type": "uint256"
        }
      ],
      "name": "viewBountyInfo",
      "outputs": [
        {
          "internalType": "uint256",
          "name": "payout",
          "type": "uint256"
        },
        {
          "internalType": "uint256",
          "name": "apy",
          "type": "uint256"
        },
        {
          "internalType": "uint256",
          "name": "staked",
          "type": "uint256"
        },
        {
          "internalType": "uint256",
          "name": "poolCap",
          "type": "uint256"
        }
      ],
      "stateMutability": "view",
      "type": "function"
    },
    {
      "inputs": [
        {
          "internalType": "uint256",
          "name": "_pid",
          "type": "uint256"
        }
      ],
      "name": "viewHackerPayout",
      "outputs": [
        {
          "internalType": "uint256",
          "name": "",
          "type": "uint256"
        }
      ],
      "stateMutability": "view",
      "type": "function"
    },
    {
      "inputs": [
        {
          "internalType": "uint256",
          "name": "_pid",
          "type": "uint256"
        }
      ],
      "name": "viewMinProjectDeposit",
      "outputs": [
        {
          "internalType": "uint256",
          "name": "",
          "type": "uint256"
        }
      ],
      "stateMutability": "view",
      "type": "function"
    },
    {
      "inputs": [
        {
          "internalType": "uint256",
          "name": "_pid",
          "type": "uint256"
        }
      ],
      "name": "viewPoolAPY",
      "outputs": [
        {
          "internalType": "uint256",
          "name": "",
          "type": "uint256"
        }
      ],
      "stateMutability": "view",
      "type": "function"
    },
    {
      "inputs": [
        {
          "internalType": "uint256",
          "name": "_pid",
          "type": "uint256"
        }
      ],
      "name": "viewPoolCap",
      "outputs": [
        {
          "internalType": "uint256",
          "name": "",
          "type": "uint256"
        }
      ],
      "stateMutability": "view",
      "type": "function"
    },
    {
      "inputs": [
        {
          "internalType": "uint256",
          "name": "_pid",
          "type": "uint256"
        }
      ],
      "name": "viewPoolPremiumInfo",
      "outputs": [
        {
          "internalType": "uint256",
          "name": "requiredPremiumBalancePerPeriod",
          "type": "uint256"
        },
        {
          "internalType": "uint256",
          "name": "premiumBalance",
          "type": "uint256"
        },
        {
          "internalType": "uint256",
          "name": "premiumAvailable",
          "type": "uint256"
        }
      ],
      "stateMutability": "view",
      "type": "function"
    },
    {
      "inputs": [
        {
          "internalType": "uint256",
          "name": "_pid",
          "type": "uint256"
        }
      ],
      "name": "viewPoolTimelockInfo",
      "outputs": [
        {
          "internalType": "uint256",
          "name": "timelock",
          "type": "uint256"
        },
        {
          "internalType": "uint256",
          "name": "timeLimit",
          "type": "uint256"
        },
        {
          "internalType": "uint256",
          "name": "withdrawalScheduledAmount",
          "type": "uint256"
        }
      ],
      "stateMutability": "view",
      "type": "function"
    },
    {
      "inputs": [
        {
          "internalType": "address",
          "name": "_token",
          "type": "address"
        }
      ],
      "name": "viewSaloonProfitBalance",
      "outputs": [
        {
          "internalType": "uint256",
          "name": "totalProfit",
          "type": "uint256"
        },
        {
          "internalType": "uint256",
          "name": "bountyProfit",
          "type": "uint256"
        },
        {
          "internalType": "uint256",
          "name": "premiumProfit",
          "type": "uint256"
        }
      ],
      "stateMutability": "view",
      "type": "function"
    },
    {
      "inputs": [
        {
          "internalType": "uint256",
          "name": "_tokenId",
          "type": "uint256"
        }
      ],
      "name": "viewTokenInfo",
      "outputs": [
        {
          "internalType": "uint256",
          "name": "amount",
          "type": "uint256"
        },
        {
          "internalType": "uint256",
          "name": "apy",
          "type": "uint256"
        },
        {
          "internalType": "uint256",
          "name": "actualPending",
          "type": "uint256"
        },
        {
          "internalType": "uint256",
          "name": "unclaimed",
          "type": "uint256"
        },
        {
          "internalType": "uint256",
          "name": "timelock",
          "type": "uint256"
        }
      ],
      "stateMutability": "view",
      "type": "function"
    },
    {
      "inputs": [
        {
          "internalType": "uint256",
          "name": "_pid",
          "type": "uint256"
        }
      ],
      "name": "viewTotalStaked",
      "outputs": [
        {
          "internalType": "uint256",
          "name": "",
          "type": "uint256"
        }
      ],
      "stateMutability": "view",
      "type": "function"
    },
    {
      "inputs": [
        {
          "internalType": "uint256",
          "name": "_tokenId",
          "type": "uint256"
        }
      ],
      "name": "viewUserUnclaimed",
      "outputs": [
        {
          "internalType": "uint256",
          "name": "unclaimed",
          "type": "uint256"
        }
      ],
      "stateMutability": "view",
      "type": "function"
    },
    {
      "inputs": [
        {
          "internalType": "uint256",
          "name": "_pid",
          "type": "uint256"
        }
      ],
      "name": "windDownBounty",
      "outputs": [
        {
          "internalType": "bool",
          "name": "",
          "type": "bool"
        }
      ],
      "stateMutability": "nonpayable",
      "type": "function"
    }
  ],
  "bytecode": {
    "object": "0x60a0604052306080523480156200001557600080fd5b50600160ca55600054610100900460ff16158080156200003c5750600054600160ff909116105b806200006c575062000059306200019760201b62005d871760201c565b1580156200006c575060005460ff166001145b620000d55760405162461bcd60e51b815260206004820152602e60248201527f496e697469616c697a61626c653a20636f6e747261637420697320616c72656160448201526d191e481a5b9a5d1a585b1a5e995960921b60648201526084015b60405180910390fd5b6000805460ff191660011790558015620000f9576000805461ff0019166101001790555b620001496040518060400160405280600b81526020016a2137bab73a3caa37b5b2b760a91b8152506040518060400160405280600381526020016210951560ea1b815250620001a660201b60201c565b801562000190576000805461ff0019169055604051600181527f7f26b83ff96e1f2b6a682f133852f6798a09c465da95921460cefb38474024989060200160405180910390a15b5062000400565b6001600160a01b03163b151590565b600054610100900460ff16620002025760405162461bcd60e51b815260206004820152602b60248201526000805160206200915483398151915260448201526a6e697469616c697a696e6760a81b6064820152608401620000cc565b6200020e828262000212565b5050565b600054610100900460ff166200026e5760405162461bcd60e51b815260206004820152602b60248201526000805160206200915483398151915260448201526a6e697469616c697a696e6760a81b6064820152608401620000cc565b60fd6200027c838262000334565b5060fe6200028b828262000334565b505050565b634e487b7160e01b600052604160045260246000fd5b600181811c90821680620002bb57607f821691505b602082108103620002dc57634e487b7160e01b600052602260045260246000fd5b50919050565b601f8211156200028b57600081815260208120601f850160051c810160208610156200030b5750805b601f850160051c820191505b818110156200032c5782815560010162000317565b505050505050565b81516001600160401b0381111562000350576200035062000290565b6200036881620003618454620002a6565b84620002e2565b602080601f831160018114620003a05760008415620003875750858301515b600019600386901b1c1916600185901b1785556200032c565b600085815260208120601f198616915b82811015620003d157888601518255948401946001909101908401620003b0565b5085821015620003f05787850151600019600388901b60f8161c191681555b5050505050600190811b01905550565b608051618d1c6200043860003960008181611c9201528181611cd20152818161285801528181612898015261292b0152618d1c6000f3fe60806040526004361061041b5760003560e01c8063753d75631161021e578063ae07f94811610123578063cf9564b9116100ab578063e985e9c51161007a578063e985e9c514610de3578063ecd7fbed14610e2d578063f2fde38b14610e4d578063f47ec3be14610e6d578063ff5e5b5f14610e8d57600080fd5b8063cf9564b914610d47578063dbdd695714610d67578063e45abd0f14610d87578063e63d6ee414610db557600080fd5b8063b88d4fde116100f2578063b88d4fde14610c99578063bb7019c114610cb9578063c4d66de814610cd9578063c87b56dd14610cf9578063ca00614814610d1957600080fd5b8063ae07f94814610c16578063b1a2d16f14610c36578063b20b242914610c56578063b842e87f14610c8457600080fd5b8063949a4a4a116101a65780639ebea88c116101755780639ebea88c14610b765780639f224f3514610b96578063a22cb46514610bb6578063a27f921314610bd6578063ac30b85614610bf657600080fd5b8063949a4a4a14610b0157806395d89b4114610b2157806396ea48e814610b36578063983c1ce014610b5657600080fd5b8063804fd590116101ed578063804fd59014610a63578063836ef1fa14610a83578063861e5f6614610aa35780638da5cb5b14610ac35780638dbb1e3a14610ae157600080fd5b8063753d7563146109dd57806375bfd63d14610a0e5780637b0472f014610a235780637fbf385314610a4357600080fd5b80633538fda01161032457806352d1902d116102ac5780636352211e1161027b5780636352211e146109515780636ac6d8121461097157806370a0823114610991578063718c7eef146109b1578063724f024b146109d157600080fd5b806352d1902d146108ce5780635669cbef146108e35780635c46f7b114610903578063612afc0c1461092357600080fd5b80633ac6ad7b116102f35780633ac6ad7b1461080057806340bd1d001461082057806340ef28681461085b57806342842e0e1461089b5780634f1ef286146108bb57600080fd5b80633538fda0146107725780633659cfe61461079257806339458723146107b257806339679ff4146107e057600080fd5b806319693071116103a757806323b872dd1161037657806323b872dd146106db5780632986c0e5146106fb5780632cb0dfcc146107125780632dbe051e1461073257806330ca07941461075257600080fd5b806319693071146105ce5780631c6b323f146105ff5780631df566221461061f5780631f8bc7901461064d57600080fd5b8063081e3eda116103ee578063081e3eda146104f1578063095ea7b314610511578063106d08df1461053357806310725852146105535780631526fe271461059b57600080fd5b806301ffc9a71461042057806306fdde0314610455578063074ecf0314610477578063081812fc146104d1575b600080fd5b34801561042c57600080fd5b5061044061043b366004617fcd565b610ead565b60405190151581526020015b60405180910390f35b34801561046157600080fd5b5061046a610eff565b60405161044c919061803a565b34801561048357600080fd5b506104b961049236600461804d565b6101396020908152600092835260408084209091529082529020546001600160a01b031681565b6040516001600160a01b03909116815260200161044c565b3480156104dd57600080fd5b506104b96104ec36600461806f565b610f91565b3480156104fd57600080fd5b50610130545b60405190815260200161044c565b34801561051d57600080fd5b5061053161052c36600461809d565b610fb9565b005b34801561053f57600080fd5b5061044061054e36600461806f565b6110d3565b34801561055f57600080fd5b5061057361056e36600461806f565b6111b2565b604080519586526020860194909452928401919091526060830152608082015260a00161044c565b3480156105a757600080fd5b506105bb6105b636600461806f565b61124a565b60405161044c9796959493929190618134565b3480156105da57600080fd5b506105036105e936600461806f565b6000908152610134602052604090206003015490565b34801561060b57600080fd5b5061050361061a36600461806f565b611474565b34801561062b57600080fd5b5061050361063a36600461806f565b6101326020526000908152604090205481565b34801561065957600080fd5b506106a661066836600461806f565b610134602052600090815260409020805460018201546002830154600384015460048501546005860154600690960154949593949293919290919087565b604080519788526020880196909652948601939093526060850191909152608084015260a083015260c082015260e00161044c565b3480156106e757600080fd5b506105316106f6366004618241565b61173c565b34801561070757600080fd5b506105036101035481565b34801561071e57600080fd5b5061044061072d366004618290565b61176d565b34801561073e57600080fd5b5061044061074d36600461806f565b6119bc565b34801561075e57600080fd5b5061053161076d366004618363565b6119d6565b34801561077e57600080fd5b5061053161078d3660046183d7565b611c5d565b34801561079e57600080fd5b506105316107ad3660046183d7565b611c88565b3480156107be57600080fd5b506105036107cd3660046183d7565b61013d6020526000908152604090205481565b3480156107ec57600080fd5b506105036107fb36600461806f565b611d67565b34801561080c57600080fd5b5061044061081b3660046183f4565b61201a565b34801561082c57600080fd5b5061084061083b36600461806f565b61242c565b6040805193845260208401929092529082015260600161044c565b34801561086757600080fd5b5061087b61087636600461806f565b6127fa565b60408051948552602085019390935291830152606082015260800161044c565b3480156108a757600080fd5b506105316108b6366004618241565b612833565b6105316108c936600461841b565b61284e565b3480156108da57600080fd5b5061050361291e565b3480156108ef57600080fd5b506104406108fe36600461804d565b6129d1565b34801561090f57600080fd5b5061050361091e36600461804d565b612af7565b34801561092f57600080fd5b5061050361093e36600461806f565b6101336020526000908152604090205481565b34801561095d57600080fd5b506104b961096c36600461806f565b612eba565b34801561097d57600080fd5b5061050361098c36600461806f565b612f1a565b34801561099d57600080fd5b506105036109ac3660046183d7565b6131dc565b3480156109bd57600080fd5b506108406109cc3660046183d7565b613263565b34801561053157600080fd5b3480156109e957600080fd5b506104406109f83660046183d7565b61013b6020526000908152604090205460ff1681565b348015610a1a57600080fd5b5061053161329d565b348015610a2f57600080fd5b50610503610a3e36600461804d565b6132c5565b348015610a4f57600080fd5b50610503610a5e36600461806f565b613779565b348015610a6f57600080fd5b50610503610a7e36600461846b565b613a4b565b348015610a8f57600080fd5b50610503610a9e36600461804d565b613df2565b348015610aaf57600080fd5b50610503610abe36600461806f565b613e28565b348015610acf57600080fd5b506033546001600160a01b03166104b9565b348015610aed57600080fd5b50610503610afc36600461804d565b614100565b348015610b0d57600080fd5b50610531610b1c36600461806f565b61410c565b348015610b2d57600080fd5b5061046a614526565b348015610b4257600080fd5b50610503610b5136600461804d565b614535565b348015610b6257600080fd5b50610440610b7136600461804d565b614567565b348015610b8257600080fd5b50610440610b913660046184cd565b6146e1565b348015610ba257600080fd5b506104b9610bb136600461806f565b6148da565b348015610bc257600080fd5b50610531610bd13660046184fd565b614905565b348015610be257600080fd5b50610503610bf136600461806f565b614910565b348015610c0257600080fd5b50610840610c1136600461806f565b614bc6565b348015610c2257600080fd5b50610531610c3136600461852b565b614e90565b348015610c4257600080fd5b50610840610c5136600461806f565b614f5e565b348015610c6257600080fd5b50610503610c7136600461806f565b61013a6020526000908152604090205481565b348015610c9057600080fd5b5061053161523d565b348015610ca557600080fd5b50610531610cb4366004618565565b6152bb565b348015610cc557600080fd5b50610440610cd436600461806f565b6152f3565b348015610ce557600080fd5b50610531610cf43660046183d7565b6153bf565b348015610d0557600080fd5b5061046a610d1436600461806f565b6154ec565b348015610d2557600080fd5b50610503610d343660046183d7565b6101376020526000908152604090205481565b348015610d5357600080fd5b50610440610d623660046185d1565b61555f565b348015610d7357600080fd5b50610503610d8236600461806f565b6155da565b348015610d9357600080fd5b50610503610da23660046183d7565b6101366020526000908152604090205481565b348015610dc157600080fd5b50610503610dd036600461806f565b6101316020526000908152604090205481565b348015610def57600080fd5b50610440610dfe3660046185d1565b6001600160a01b0391821660009081526101026020908152604080832093909416825291909152205460ff1690565b348015610e3957600080fd5b50610440610e483660046183d7565b61588d565b348015610e5957600080fd5b50610531610e683660046183d7565b61594f565b348015610e7957600080fd5b50610531610e8836600461806f565b6159de565b348015610e9957600080fd5b50610503610ea83660046185ff565b6159fb565b60006001600160e01b031982166380ac58cd60e01b1480610ede57506001600160e01b03198216635b5e139f60e01b145b80610ef957506301ffc9a760e01b6001600160e01b03198316145b92915050565b606060fd8054610f0e9061862b565b80601f0160208091040260200160405190810160405280929190818152602001828054610f3a9061862b565b8015610f875780601f10610f5c57610100808354040283529160200191610f87565b820191906000526020600020905b815481529060010190602001808311610f6a57829003601f168201915b5050505050905090565b6000610f9c82615d96565b50600090815261010160205260409020546001600160a01b031690565b6000610fc482612eba565b9050806001600160a01b0316836001600160a01b0316036110365760405162461bcd60e51b815260206004820152602160248201527f4552433732313a20617070726f76616c20746f2063757272656e74206f776e656044820152603960f91b60648201526084015b60405180910390fd5b336001600160a01b038216148061105257506110528133610dfe565b6110c45760405162461bcd60e51b815260206004820152603d60248201527f4552433732313a20617070726f76652063616c6c6572206973206e6f7420746f60448201527f6b656e206f776e6572206f7220617070726f76656420666f7220616c6c000000606482015260840161102d565b6110ce8383615df5565b505050565b6000336110df83612eba565b6001600160a01b03161461112b5760405162461bcd60e51b815260206004820152601360248201527239b2b73232b91034b9903737ba1037bbb732b960691b604482015260640161102d565b6000828152610133602090815260408083205461013490925290912061115462093a804261867b565b600582015561116662093a804261867b565b611173906203f48061867b565b60068201558054604051819084907fb3b9c925de3673837b40c6b4d4463a8f88dc821cd27e07f1ff6bf6abf96413a590600090a3506001949350505050565b600081815261013360209081526040808320546101348352818420825160e081018452815480825260018301549582019590955260028201549381018490526003820154606082015260048201546080820152600582015460a082015260069091015460c0820152929391928291829161122b8861242c565b50606083015160a090930151989a979950979196919550909350505050565b610130818154811061125b57600080fd5b60009182526020918290206040805161010081018252601590930290910180546001600160a01b03808216855260ff600160a01b8304169585019590955261ffff600160a81b9091041691830191909152600181015490921660608201526002820180549293509091839160808401916112d49061862b565b80601f01602080910402602001604051908101604052809291908181526020018280546113009061862b565b801561134d5780601f106113225761010080835404028352916020019161134d565b820191906000526020600020905b81548152906001019060200180831161133057829003601f168201915b50505091835250506003820154602080830191909152600483015460408084019190915260059093015460609283015282518084018452600686015481526007860154818301528351808501855260088701548152600987015481840152845160808082018752600a8901548252600b89015482860152600c89015482880152600d89015460ff1615158287015286519081018752600e890180548252600f8a01548287015260108a01548289015260118a018054895181890281018901909a52808a52999a959994989397959692959194918601939290919083018282801561145657602002820191906000526020600020905b815481526020019060010190808311611442575b50505091909252505050601382015460149092015490919060ff1687565b600080610130838154811061148b5761148b61868e565b6000918252602090912060408051610200810190915260159092020180546001600160a01b038082166101008501908152600160a01b830460ff16610120860152600160a81b90920461ffff166101408501526001830154166101608401526002820180548492918491610180850191906115059061862b565b80601f01602080910402602001604051908101604052809291908181526020018280546115319061862b565b801561157e5780601f106115535761010080835404028352916020019161157e565b820191906000526020600020905b81548152906001019060200180831161156157829003601f168201915b505050918352505060038201546020808301919091526004830154604080840191909152600590930154606092830152928452815180830183526006860154815260078601548185015284840152815180830183526008860154815260098601548185015284830152815160808082018452600a8701548252600b87015482860152600c87015482850152600d87015460ff161515828401528583019190915282518082018452600e870180548252600f8801548287015260108801548286015260118801805486518189028101890190975280875293909701969195909493860193929083018282801561169257602002820191906000526020600020905b81548152602001906001019080831161167e575b5050505050815250508152602001601282018054806020026020016040519081016040528092919081815260200182805480156116f857602002820191906000526020600020905b81546001600160a01b031681526001909101906020018083116116da575b5050509183525050601382015460208083019190915260149092015460ff161515604090910152818101519081015190519192506117359161867b565b9392505050565b6117463382615e64565b6117625760405162461bcd60e51b815260040161102d906186a4565b6110ce838383615ee3565b6000611777616049565b6001600160a01b038416600090815261013b602052604090205460ff161515831514806117a2575082155b6117e65760405162461bcd60e51b81526020600482015260156024820152741dda1a5d195b1a5cdd08185b1c9958591e481cd95d605a1b604482015260640161102d565b6001600160a01b038416600081815261013b6020526040808220805460ff191687151590811790915590519092917f99795d51e5a8804307721456a7a9c2f0d7421f719d46a46d36e91fee7c85aa7691a3821561189e5761013c8054600181019091557fa55c1639d917d7b7cbf3837f1642937d4507076edbe26b1a6008234bb0c495300180546001600160a01b0319166001600160a01b038616908117909155600090815261013d602052604090208290556119b2565b61013c5460005b818110156119af57600061013c82815481106118c3576118c361868e565b6000918252602090912001546001600160a01b0390811691508716810361199e5761013c6118f26001856186f1565b815481106119025761190261868e565b60009182526020909120015461013c80546001600160a01b03909216918490811061192f5761192f61868e565b9060005260206000200160006101000a8154816001600160a01b0302191690836001600160a01b0316021790555061013c80548061196f5761196f618704565b600082815260209020810160001990810180546001600160a01b03191690550190555060019250611735915050565b506119a88161871a565b90506118a5565b50505b5060019392505050565b60006119c6616049565b6119d18260006160a3565b919050565b600061013086815481106119ec576119ec61868e565b60009182526020909120601590910201601481015490915060ff16158015611a1657506003810154155b611a625760405162461bcd60e51b815260206004820152601860248201527f506f6f6c20616c726561647920696e697469616c697a65640000000000000000604482015260640161102d565b60008461ffff16118015611a7c57506127108461ffff1611155b611abb5760405162461bcd60e51b815260206004820152601060248201526f415059206f7574206f662072616e676560801b604482015260640161102d565b8054611ad290600160a01b900460ff16600a618817565b611add906064618826565b8510158015611b0f57508054611afe90600160a01b900460ff16600a618817565b611b0b9062989680618826565b8511155b611b535760405162461bcd60e51b8152602060048201526015602482015274506f6f6c20636170206f7574206f662072616e676560581b604482015260640161102d565b60018101546001600160a01b03163314611b7f5760405162461bcd60e51b815260040161102d9061883d565b6000611b8f868661ffff16613df2565b90506000612710611ba26103e884618826565b611bac919061887b565b9050611bd03330611bbd858961867b565b86546001600160a01b03169291906161ee565b5084836006016000016000828254611be8919061867b565b909155505060038301879055825461ffff60a81b1916600160a81b61ffff88160217835560148301805460ff1916600117905560088301829055611c2c81836186f1565b6009840155611c3f8861ffff881661625c565b835115611c5357611c518885876162b3565b505b5050505050505050565b611c65616049565b61013880546001600160a01b0319166001600160a01b0392909216919091179055565b6001600160a01b037f0000000000000000000000000000000000000000000000000000000000000000163003611cd05760405162461bcd60e51b815260040161102d9061889d565b7f00000000000000000000000000000000000000000000000000000000000000006001600160a01b0316611d19600080516020618ca0833981519152546001600160a01b031690565b6001600160a01b031614611d3f5760405162461bcd60e51b815260040161102d906188e9565b611d488161644d565b60408051600080825260208201909252611d6491839190616455565b50565b6000806101308381548110611d7e57611d7e61868e565b6000918252602090912060408051610200810190915260159092020180546001600160a01b038082166101008501908152600160a01b830460ff16610120860152600160a81b90920461ffff16610140850152600183015416610160840152600282018054849291849161018085019190611df89061862b565b80601f0160208091040260200160405190810160405280929190818152602001828054611e249061862b565b8015611e715780601f10611e4657610100808354040283529160200191611e71565b820191906000526020600020905b815481529060010190602001808311611e5457829003601f168201915b505050918352505060038201546020808301919091526004830154604080840191909152600590930154606092830152928452815180830183526006860154815260078601548185015284840152815180830183526008860154815260098601548185015284830152815160808082018452600a8701548252600b87015482860152600c87015482850152600d87015460ff161515828401528583019190915282518082018452600e870180548252600f88015482870152601088015482860152601188018054865181890281018901909752808752939097019691959094938601939290830182828015611f8557602002820191906000526020600020905b815481526020019060010190808311611f71575b505050505081525050815260200160128201805480602002602001604051908101604052809291908181526020018280548015611feb57602002820191906000526020600020905b81546001600160a01b03168152600190910190602001808311611fcd575b50505091835250506013820154602082015260149091015460ff1615156040909101525160a001519392505050565b6000612024616049565b6000610130858154811061203a5761203a61868e565b6000918252602082206004601590920201908101549092509061205c87611474565b612066908361867b565b90508082861161220c5782860361210d5760008881526101356020526040812054905b818110156120ef5760008a8152610135602052604081208054839081106120b2576120b261868e565b906000526020600020015490506000610134600083815260200190815260200160002090506120e28260006165c0565b6000905550600101612089565b50600060048601819055612107906012870190617dd3565b50612326565b600083612122670de0b6b3a764000089618826565b61212c919061887b565b60008a815261013560205260408120549192505b818110156122045760008b8152610135602052604081208054839081106121695761216961868e565b906000526020600020015490506000610134600083815260200190815260200160002090506121998260006165c0565b6000670de0b6b3a76400008683600001546121b49190618826565b6121be919061887b565b9050808260000160008282546121d491906186f1565b909155505060048a0180548291906000906121f09084906186f1565b909155505060019093019250612140915050565b505050612326565b828611801561221b5750818611155b156122ec5760008881526101356020526040812054905b818110156122985760008a81526101356020526040812080548390811061225b5761225b61868e565b9060005260206000200154905060006101346000838152602001908152602001600020905061228b8260006165c0565b6000905550600101612232565b506000600486018190556122b0906012870190617dd3565b6122b9896166f9565b5060006122c685896186f1565b9050808660060160000160008282546122df91906186f1565b9091555061232692505050565b60405162461bcd60e51b815260206004820152600f60248201526e082dadeeadce840e8dede40d0d2ced608b1b604482015260640161102d565b60006127106123376103e889618826565b612341919061887b565b9050600061234f82896186f1565b86546001600160a01b03166000908152610136602052604081208054929350849290919061237e90849061867b565b90915550508554612399906001600160a01b03168a83616857565b5060006123a58b611474565b60048801546123b4919061867b565b87546040518b81529192506001600160a01b0390811691908c169042907fc351e6e0f377ec1a399ec84224a83d6a4b9f3cd9a5530e5c652d0b11c2f8dae29060200160405180910390a480848c600080516020618c8083398151915260405160405180910390a45060019a9950505050505050505050565b6000818152610133602052604081205461013080548392839290918391908390811061245a5761245a61868e565b6000918252602090912060408051610200810190915260159092020180546001600160a01b038082166101008501908152600160a01b830460ff16610120860152600160a81b90920461ffff166101408501526001830154166101608401526002820180548492918491610180850191906124d49061862b565b80601f01602080910402602001604051908101604052809291908181526020018280546125009061862b565b801561254d5780601f106125225761010080835404028352916020019161254d565b820191906000526020600020905b81548152906001019060200180831161253057829003601f168201915b505050918352505060038201546020808301919091526004830154604080840191909152600590930154606092830152928452815180830183526006860154815260078601548185015284840152815180830183526008860154815260098601548185015284830152815160808082018452600a8701548252600b87015482860152600c87015482850152600d87015460ff161515828401528583019190915282518082018452600e870180548252600f8801548287015260108801548286015260118801805486518189028101890190975280875293909701969195909493860193929083018282801561266157602002820191906000526020600020905b81548152602001906001019080831161264d575b5050505050815250508152602001601282018054806020026020016040519081016040528092919081815260200182805480156126c757602002820191906000526020600020905b81546001600160a01b031681526001909101906020018083116126a9575b5050509183525050601382015460208083019190915260149092015460ff16151560409182015260008981526101348352818120825160e081018452815481526001820154948101949094526002810154928401929092526003820154606084015260048201546080840152600582015460a084015260069091015460c080840191909152830151929350909181036127605742612766565b8260c001515b90506000612778836080015183614100565b90506301e1338081612710856040015186600001516127979190618826565b6127a1919061887b565b6127ab9190618826565b6127b5919061887b565b95508260600151866127c7919061867b565b97506127106127d86103e8826186f1565b6127e2908a618826565b6127ec919061887b565b965050505050509193909250565b60008060008061280985613e28565b9350612814856155da565b915061281f85614910565b925061282a85611d67565b90509193509193565b6110ce838383604051806020016040528060008152506152bb565b6001600160a01b037f00000000000000000000000000000000000000000000000000000000000000001630036128965760405162461bcd60e51b815260040161102d9061889d565b7f00000000000000000000000000000000000000000000000000000000000000006001600160a01b03166128df600080516020618ca0833981519152546001600160a01b031690565b6001600160a01b0316146129055760405162461bcd60e51b815260040161102d906188e9565b61290e8261644d565b61291a82826001616455565b5050565b6000306001600160a01b037f000000000000000000000000000000000000000000000000000000000000000016146129be5760405162461bcd60e51b815260206004820152603860248201527f555550535570677261646561626c653a206d757374206e6f742062652063616c60448201527f6c6564207468726f7567682064656c656761746563616c6c0000000000000000606482015260840161102d565b50600080516020618ca083398151915290565b60008061013084815481106129e8576129e861868e565b9060005260206000209060150201905082612a0285611474565b1015612a505760405162461bcd60e51b815260206004820152601a60248201527f416d6f756e7420626967676572207468616e206465706f736974000000000000604482015260640161102d565b60018101546001600160a01b03163314612a7c5760405162461bcd60e51b815260040161102d9061883d565b612a8962093a804261867b565b600a820155612a9b62093a804261867b565b612aa8906203f48061867b565b600b820155600c8101839055600d8101805460ff19169055604051839085907fb3b9c925de3673837b40c6b4d4463a8f88dc821cd27e07f1ff6bf6abf96413a590600090a35060019392505050565b6000806101308481548110612b0e57612b0e61868e565b6000918252602090912060408051610200810190915260159092020180546001600160a01b038082166101008501908152600160a01b830460ff16610120860152600160a81b90920461ffff16610140850152600183015416610160840152600282018054849291849161018085019190612b889061862b565b80601f0160208091040260200160405190810160405280929190818152602001828054612bb49061862b565b8015612c015780601f10612bd657610100808354040283529160200191612c01565b820191906000526020600020905b815481529060010190602001808311612be457829003601f168201915b505050918352505060038201546020808301919091526004830154604080840191909152600590930154606092830152928452815180830183526006860154815260078601548185015284840152815180830183526008860154815260098601548185015284830152815160808082018452600a8701548252600b87015482860152600c87015482850152600d87015460ff161515828401528583019190915282518082018452600e870180548252600f88015482870152601088015482860152601188018054865181890281018901909752808752939097019691959094938601939290830182828015612d1557602002820191906000526020600020905b815481526020019060010190808311612d01575b505050505081525050815260200160128201805480602002602001604051908101604052809291908181526020018280548015612d7b57602002820191906000526020600020905b81546001600160a01b03168152600190910190602001808311612d5d575b50505091835250506013820154602082015260149091015460ff1615156040909101526080810151519091506000612db3868661688a565b5090506000612dc2838361867b565b90506000612dd1826021618826565b612de390674563918244f4000061867b565b90506000612df2856021618826565b612e0490674563918244f4000061867b565b90506000612e19612e14846168e7565b616930565b90506000612e29612e14846168e7565b90506000612e67612e3a60216168e7565b612e61612e478686616968565b612e5b6a295be96e640669720000006168e7565b90616977565b90616986565b90506000612e7888620f4240618826565b612e82908361887b565b8a5160e00151909150670de0b6b3a7640000612e9e8284618826565b612ea8919061887b565b9e9d5050505050505050505050505050565b600081815260ff60205260408120546001600160a01b031680610ef95760405162461bcd60e51b8152602060048201526018602482015277115490cdcc8c4e881a5b9d985b1a59081d1bdad95b88125160421b604482015260640161102d565b6000806101308381548110612f3157612f3161868e565b6000918252602090912060408051610200810190915260159092020180546001600160a01b038082166101008501908152600160a01b830460ff16610120860152600160a81b90920461ffff16610140850152600183015416610160840152600282018054849291849161018085019190612fab9061862b565b80601f0160208091040260200160405190810160405280929190818152602001828054612fd79061862b565b80156130245780601f10612ff957610100808354040283529160200191613024565b820191906000526020600020905b81548152906001019060200180831161300757829003601f168201915b505050918352505060038201546020808301919091526004830154604080840191909152600590930154606092830152928452815180830183526006860154815260078601548185015284840152815180830183526008860154815260098601548185015284830152815160808082018452600a8701548252600b87015482860152600c87015482850152600d87015460ff161515828401528583019190915282518082018452600e870180548252600f8801548287015260108801548286015260118801805486518189028101890190975280875293909701969195909493860193929083018282801561313857602002820191906000526020600020905b815481526020019060010190808311613124575b50505050508152505081526020016012820180548060200260200160405190810160405280929190818152602001828054801561319e57602002820191906000526020600020905b81546001600160a01b03168152600190910190602001808311613180575b50505091835250506013820154602082015260149091015460ff16151560409091015290506131cc83611474565b815160c00151611735919061867b565b60006001600160a01b0382166132465760405162461bcd60e51b815260206004820152602960248201527f4552433732313a2061646472657373207a65726f206973206e6f7420612076616044820152683634b21037bbb732b960b91b606482015260840161102d565b506001600160a01b03166000908152610100602052604090205490565b6001600160a01b03811660009081526101366020908152604080832054610137909252822054613293828261867b565b949193509150565b565b6101305460005b8181101561291a576132b58161410c565b6132be8161871a565b90506132a4565b60006132cf61699e565b82600061013082815481106132e6576132e661868e565b6000918252602090912060408051610200810190915260159092020180546001600160a01b038082166101008501908152600160a01b830460ff16610120860152600160a81b90920461ffff166101408501526001830154166101608401526002820180548492918491610180850191906133609061862b565b80601f016020809104026020016040519081016040528092919081815260200182805461338c9061862b565b80156133d95780601f106133ae576101008083540402835291602001916133d9565b820191906000526020600020905b8154815290600101906020018083116133bc57829003601f168201915b505050918352505060038201546020808301919091526004830154604080840191909152600590930154606092830152928452815180830183526006860154815260078601548185015284840152815180830183526008860154815260098601548185015284830152815160808082018452600a8701548252600b87015482860152600c87015482850152600d87015460ff161515828401528583019190915282518082018452600e870180548252600f880154828701526010880154828601526011880180548651818902810189019097528087529390970196919590949386019392908301828280156134ed57602002820191906000526020600020905b8154815260200190600101908083116134d9575b50505050508152505081526020016012820180548060200260200160405190810160405280929190818152602001828054801561355357602002820191906000526020600020905b81546001600160a01b03168152600190910190602001808311613535575b50505091835250506013820154602082015260149091015460ff16151560409091015260e08101519091506135bc5760405162461bcd60e51b815260206004820152600f60248201526e706f6f6c206e6f742061637469766560881b604482015260640161102d565b600061013086815481106135d2576135d261868e565b60009182526020808320601590920290910180546001600160a01b0316835261013d9091526040909120549091508510156136435760405162461bcd60e51b8152602060048201526011602482015270135a5b881cdd185ad9481b9bdd081b595d607a1b604482015260640161102d565b600681015460048201546000916136599161867b565b8254909150613673906001600160a01b03163330896161ee565b5060006136818833896169f7565b90508683600001600401600082825461369a919061867b565b90915550506003830154158015906136ba57506003830154600484015411155b6136fc5760405162461bcd60e51b8152602060048201526013602482015272115e18d959591959081c1bdbdb081b1a5b5a5d606a1b604482015260640161102d565b604051878152889033907f1449c6dd7851abc30abf37f57715f492010519147cc2652fbc38202c18a6ee909060200160405180910390a3600683015460048401546000916137499161867b565b905080838a600080516020618c8083398151915260405160405180910390a450945050505050610ef9600160ca55565b60008061013083815481106137905761379061868e565b6000918252602090912060408051610200810190915260159092020180546001600160a01b038082166101008501908152600160a01b830460ff16610120860152600160a81b90920461ffff1661014085015260018301541661016084015260028201805484929184916101808501919061380a9061862b565b80601f01602080910402602001604051908101604052809291908181526020018280546138369061862b565b80156138835780601f1061385857610100808354040283529160200191613883565b820191906000526020600020905b81548152906001019060200180831161386657829003601f168201915b505050918352505060038201546020808301919091526004830154604080840191909152600590930154606092830152928452815180830183526006860154815260078601548185015284840152815180830183526008860154815260098601548185015284830152815160808082018452600a8701548252600b87015482860152600c87015482850152600d87015460ff161515828401528583019190915282518082018452600e870180548252600f8801548287015260108801548286015260118801805486518189028101890190975280875293909701969195909493860193929083018282801561399757602002820191906000526020600020905b815481526020019060010190808311613983575b5050505050815250508152602001601282018054806020026020016040519081016040528092919081815260200182805480156139fd57602002820191906000526020600020905b81546001600160a01b031681526001909101906020018083116139df575b50505091835250506013820154602082015260149091015460ff161515604090910152608081015151815160e0015191925090613a3982616c4a565b613a439190618826565b949350505050565b6000613a55616049565b6001600160a01b038416600090815261013b602052604090205460ff16613ab65760405162461bcd60e51b81526020600482015260156024820152741d1bdad95b881b9bdd081dda1a5d195b1a5cdd1959605a1b604482015260640161102d565b60408051600481526024810182526020810180516001600160e01b031663313ce56760e01b17905290516000916001600160a01b03871691613af89190618935565b600060405180830381855afa9150503d8060008114613b33576040519150601f19603f3d011682016040523d82523d6000602084013e613b38565b606091505b50915050600081806020019051810190613b529190618951565b9050613b5c617df1565b80516001600160a01b03808916909152815160ff8085166020928301528351898416606091820152845160809081018a9052855160006040918201819052875160a001819052875160e0908101829052885160c0908101839052878a0151839052858a01805184905280518901849052805185018490525186018390529089018290528801819052610130805460018101825591528751805160159092027f2f605e086faac1d93117bbfbc18835d434e9405fadc1ca66faf4b864746daf3481018054988301519483015161ffff16600160a81b0261ffff60a81b1995909816600160a01b026001600160a81b0319909916938a16939093179790971792909216949094178455918201517f2f605e086faac1d93117bbfbc18835d434e9405fadc1ca66faf4b864746daf3585018054919096166001600160a01b03199190911617909455928301518493919283917f2f605e086faac1d93117bbfbc18835d434e9405fadc1ca66faf4b864746daf3690910190613cda90826189c2565b5060a0820151600382015560c0820151600482015560e0909101516005909101556020828101518051600684015581015160078301556040808401518051600885015582015160098401556060808501518051600a86015580840151600b86015580830151600c860155810151600d8501805460ff191691151591909117905560808501518051600e860190815581850151600f8701559281015160108601559081015180519193613d9492601187019290910190617f02565b50505060a08201518051613db2916012840191602090910190617f4d565b5060c0820151601382015560e0909101516014909101805460ff191691151591909117905561013054613de7906001906186f1565b979650505050505050565b60006301e1338061271062093a80613e0a8587618826565b613e149190618826565b613e1e919061887b565b611735919061887b565b6000806101308381548110613e3f57613e3f61868e565b6000918252602090912060408051610200810190915260159092020180546001600160a01b038082166101008501908152600160a01b830460ff16610120860152600160a81b90920461ffff16610140850152600183015416610160840152600282018054849291849161018085019190613eb99061862b565b80601f0160208091040260200160405190810160405280929190818152602001828054613ee59061862b565b8015613f325780601f10613f0757610100808354040283529160200191613f32565b820191906000526020600020905b815481529060010190602001808311613f1557829003601f168201915b505050918352505060038201546020808301919091526004830154604080840191909152600590930154606092830152928452815180830183526006860154815260078601548185015284840152815180830183526008860154815260098601548185015284830152815160808082018452600a8701548252600b87015482860152600c87015482850152600d87015460ff161515828401528583019190915282518082018452600e870180548252600f8801548287015260108801548286015260118801805486518189028101890190975280875293909701969195909493860193929083018282801561404657602002820191906000526020600020905b815481526020019060010190808311614032575b5050505050815250508152602001601282018054806020026020016040519081016040528092919081815260200182805480156140ac57602002820191906000526020600020905b81546001600160a01b0316815260019091019060200180831161408e575b50505091835250506013820154602082015260149091015460ff16151560409091015290506127106140e06103e8826186f1565b602083015151835160c001516140f6919061867b565b613e1e9190618826565b60006117358284616c9f565b600061013082815481106141225761412261868e565b6000918252602090912060408051610200810190915260159092020180546001600160a01b038082166101008501908152600160a01b830460ff16610120860152600160a81b90920461ffff1661014085015260018301541661016084015260028201805484929184916101808501919061419c9061862b565b80601f01602080910402602001604051908101604052809291908181526020018280546141c89061862b565b80156142155780601f106141ea57610100808354040283529160200191614215565b820191906000526020600020905b8154815290600101906020018083116141f857829003601f168201915b505050918352505060038201546020808301919091526004830154604080840191909152600590930154606092830152928452815180830183526006860154815260078601548185015284840152815180830183526008860154815260098601548185015284830152815160808082018452600a8701548252600b87015482860152600c87015482850152600d87015460ff161515828401528583019190915282518082018452600e870180548252600f8801548287015260108801548286015260118801805486518189028101890190975280875293909701969195909493860193929083018282801561432957602002820191906000526020600020905b815481526020019060010190808311614315575b50505050508152505081526020016012820180548060200260200160405190810160405280929190818152602001828054801561438f57602002820191906000526020600020905b81546001600160a01b03168152600190910190602001808311614371575b50505091835250506013820154602082015260149091015460ff1615156040909101526080810151606001518051919250908015806143d057508260e00151155b156143db5750505050565b60005b81811015614418576144088382815181106143fb576143fb61868e565b6020026020010151616cab565b6144118161871a565b90506143de565b506000848152610135602090815260408083208054825181850281018501909352808352919290919083018282801561447057602002820191906000526020600020905b81548152602001906001019080831161445c575b5050835193945060009250829150505b828110156144f357600084828151811061449c5761449c61868e565b602090810291909101810151600081815261013490925260409091208054919250906144c98b82876159fb565b600283015560018201546144dd908661867b565b9450505050806144ec9061871a565b9050614480565b508061013088815481106145095761450961868e565b600091825260209091206010601590920201015550505050505050565b606060fe8054610f0e9061862b565b610135602052816000526040600020818154811061455257600080fd5b90600052602060002001600091509150505481565b600080610130848154811061457e5761457e61868e565b6000918252602090912060159091020160018101549091506001600160a01b031633146145bd5760405162461bcd60e51b815260040161102d9061883d565b600a810154421180156145d35750600b81015442105b80156145e45750600d81015460ff16155b80156145f45750600c8101548311155b80156146035750600a81015415155b61461f5760405162461bcd60e51b815260040161102d90618a82565b600d8101805460ff19166001179055600681015483111561464557614643846166f9565b505b600061465085611474565b600483015461465f919061867b565b90508382600601600001600082825461467891906186f1565b90915550506001820154825461469b916001600160a01b03918216911686616857565b5060006146a786611474565b60048401546146b6919061867b565b9050808287600080516020618c8083398151915260405160405180910390a450600195945050505050565b60006146eb61699e565b336146f584612eba565b6001600160a01b0316146147415760405162461bcd60e51b815260206004820152601360248201527239b2b73232b91034b9903737ba1037bbb732b960691b604482015260640161102d565b600083815261013360205260408120546101308054919291839081106147695761476961868e565b906000526020600020906015020190506000610134600087815260200190815260200160002090504281600501541080156147a75750428160060154115b6147c35760405162461bcd60e51b815260040161102d90618a82565b6147cd86866165c0565b8054600080835560058301819055600683018190556147eb85611474565b60048501546147fa919061867b565b9050861561480b5761480b88616e71565b811561483d5760048401546148209083616c9f565b6004850155835461483b906001600160a01b03163384616857565b505b604051828152859033907f7fc4727e062e336010f2c282598ef5f14facb3de68cf8195c2f23e1454b2b74e9060200160405180910390a3600061487f86611474565b600486015461488e919061867b565b9050808287600080516020618c8083398151915260405160405180910390a45050506011909101805460018181018355600092835260209092200186905592505050610ef9600160ca55565b61013c81815481106148eb57600080fd5b6000918252602090912001546001600160a01b0316905081565b61291a338383616ee1565b60008061013083815481106149275761492761868e565b6000918252602090912060408051610200810190915260159092020180546001600160a01b038082166101008501908152600160a01b830460ff16610120860152600160a81b90920461ffff166101408501526001830154166101608401526002820180548492918491610180850191906149a19061862b565b80601f01602080910402602001604051908101604052809291908181526020018280546149cd9061862b565b8015614a1a5780601f106149ef57610100808354040283529160200191614a1a565b820191906000526020600020905b8154815290600101906020018083116149fd57829003601f168201915b505050918352505060038201546020808301919091526004830154604080840191909152600590930154606092830152928452815180830183526006860154815260078601548185015284840152815180830183526008860154815260098601548185015284830152815160808082018452600a8701548252600b87015482860152600c87015482850152600d87015460ff161515828401528583019190915282518082018452600e870180548252600f88015482870152601088015482860152601188018054865181890281018901909752808752939097019691959094938601939290830182828015614b2e57602002820191906000526020600020905b815481526020019060010190808311614b1a575b505050505081525050815260200160128201805480602002602001604051908101604052809291908181526020018280548015614b9457602002820191906000526020600020905b81546001600160a01b03168152600190910190602001808311614b76575b50505091835250506013820154602082015260149091015460ff1615156040918201529051015161ffff169392505050565b6000806000806101308581548110614be057614be061868e565b6000918252602090912060408051610200810190915260159092020180546001600160a01b038082166101008501908152600160a01b830460ff16610120860152600160a81b90920461ffff16610140850152600183015416610160840152600282018054849291849161018085019190614c5a9061862b565b80601f0160208091040260200160405190810160405280929190818152602001828054614c869061862b565b8015614cd35780601f10614ca857610100808354040283529160200191614cd3565b820191906000526020600020905b815481529060010190602001808311614cb657829003601f168201915b505050918352505060038201546020808301919091526004830154604080840191909152600590930154606092830152928452815180830183526006860154815260078601548185015284840152815180830183526008860154815260098601548185015284830152815160808082018452600a8701548252600b87015482860152600c87015482850152600d87015460ff161515828401528583019190915282518082018452600e870180548252600f88015482870152601088015482860152601188018054865181890281018901909752808752939097019691959094938601939290830182828015614de757602002820191906000526020600020905b815481526020019060010190808311614dd3575b505050505081525050815260200160128201805480602002602001604051908101604052809291908181526020018280548015614e4d57602002820191906000526020600020905b81546001600160a01b03168152600190910190602001808311614e2f575b5050509183525050601382015460208083019190915260149092015460ff1615156040918201526060909201518051918101519201519097919650945092505050565b60006101308481548110614ea657614ea661868e565b6000918252602090912060159091020160018101549091506001600160a01b03163314614ee55760405162461bcd60e51b815260040161102d9061883d565b60068101546004820154600091614efb9161867b565b8254909150614f15906001600160a01b03163330876161ee565b5083826006016000016000828254614f2d919061867b565b909155505060068201546004830154600091614f489161867b565b9050614f558685876162b3565b50505050505050565b6000806000806101308581548110614f7857614f7861868e565b6000918252602090912060408051610200810190915260159092020180546001600160a01b038082166101008501908152600160a01b830460ff16610120860152600160a81b90920461ffff16610140850152600183015416610160840152600282018054849291849161018085019190614ff29061862b565b80601f016020809104026020016040519081016040528092919081815260200182805461501e9061862b565b801561506b5780601f106150405761010080835404028352916020019161506b565b820191906000526020600020905b81548152906001019060200180831161504e57829003601f168201915b505050918352505060038201546020808301919091526004830154604080840191909152600590930154606092830152928452815180830183526006860154815260078601548185015284840152815180830183526008860154815260098601548185015284830152815160808082018452600a8701548252600b87015482860152600c87015482850152600d87015460ff161515828401528583019190915282518082018452600e870180548252600f8801548287015260108801548286015260118801805486518189028101890190975280875293909701969195909493860193929083018282801561517f57602002820191906000526020600020905b81548152602001906001019080831161516b575b5050505050815250508152602001601282018054806020026020016040519081016040528092919081815260200182805480156151e557602002820191906000526020600020905b81546001600160a01b031681526001909101906020018083116151c7575b50505091835250506013820154602082015260149091015460ff161515604091820152815160a08101519101519192506152229161ffff16613df2565b60409091015180516020909101519196909550909350915050565b6034546001600160a01b031633146152a65760405162461bcd60e51b815260206004820152602660248201527f6f6e6c792070656e64696e67206f776e65722063616e2061636365707420747260448201526530b739b332b960d11b606482015260840161102d565b60345461329b906001600160a01b0316616fb0565b6152c53383615e64565b6152e15760405162461bcd60e51b815260040161102d906186a4565b6152ed8484848461700d565b50505050565b600080610130838154811061530a5761530a61868e565b6000918252602090912060159091020160018101549091506001600160a01b031633148061534257506033546001600160a01b031633145b61535e5760405162461bcd60e51b815260040161102d9061883d565b601481015460ff166153a45760405162461bcd60e51b815260206004820152600f60248201526e506f6f6c206e6f742061637469766560881b604482015260640161102d565b60148101805460ff1916905542601390910155506001919050565b600054610100900460ff16158080156153df5750600054600160ff909116105b806153f95750303b1580156153f9575060005460ff166001145b61545c5760405162461bcd60e51b815260206004820152602e60248201527f496e697469616c697a61626c653a20636f6e747261637420697320616c72656160448201526d191e481a5b9a5d1a585b1a5e995960921b606482015260840161102d565b6000805460ff19166001179055801561547f576000805461ff0019166101001790555b615487617040565b61013880546001600160a01b0319166001600160a01b038416179055801561291a576000805461ff0019169055604051600181527f7f26b83ff96e1f2b6a682f133852f6798a09c465da95921460cefb38474024989060200160405180910390a15050565b60606154f782615d96565b600061550e60408051602081019091526000815290565b9050600081511161552e5760405180602001604052806000815250611735565b806155388461706f565b604051602001615549929190618acb565b6040516020818303038152906040529392505050565b6000615569616049565b6001600160a01b03831660009081526101376020908152604080832054610136909252822054615599919061867b565b6001600160a01b0385166000818152610136602090815260408083208390556101379091528120559091506155cf908483616857565b506001949350505050565b60008061013083815481106155f1576155f161868e565b6000918252602090912060408051610200810190915260159092020180546001600160a01b038082166101008501908152600160a01b830460ff16610120860152600160a81b90920461ffff1661014085015260018301541661016084015260028201805484929184916101808501919061566b9061862b565b80601f01602080910402602001604051908101604052809291908181526020018280546156979061862b565b80156156e45780601f106156b9576101008083540402835291602001916156e4565b820191906000526020600020905b8154815290600101906020018083116156c757829003601f168201915b505050918352505060038201546020808301919091526004830154604080840191909152600590930154606092830152928452815180830183526006860154815260078601548185015284840152815180830183526008860154815260098601548185015284830152815160808082018452600a8701548252600b87015482860152600c87015482850152600d87015460ff161515828401528583019190915282518082018452600e870180548252600f880154828701526010880154828601526011880180548651818902810189019097528087529390970196919590949386019392908301828280156157f857602002820191906000526020600020905b8154815260200190600101908083116157e4575b50505050508152505081526020016012820180548060200260200160405190810160405280929190818152602001828054801561585e57602002820191906000526020600020905b81546001600160a01b03168152600190910190602001808311615840575b50505091835250506013820154602082015260149091015460ff1615156040909101525160c001519392505050565b6000615897616049565b61013c5460005b818110156119b257600061013c82815481106158bc576158bc61868e565b60009182526020808320909101546001600160a01b031680835261013782526040808420546101369093528320549093506158f7919061867b565b90508060000361590857505061593f565b6001600160a01b03821660008181526101366020908152604080832083905561013790915281205561593b908783616857565b5050505b6159488161871a565b905061589e565b615957616049565b6001600160a01b0381166159bc5760405162461bcd60e51b815260206004820152602660248201527f4f776e61626c653a206e6577206f776e657220697320746865207a65726f206160448201526564647265737360d01b606482015260840161102d565b603480546001600160a01b0319166001600160a01b0392909216919091179055565b6159e661699e565b6159f18160016165c0565b611d64600160ca55565b6000806101308581548110615a1257615a1261868e565b6000918252602090912060408051610200810190915260159092020180546001600160a01b038082166101008501908152600160a01b830460ff16610120860152600160a81b90920461ffff16610140850152600183015416610160840152600282018054849291849161018085019190615a8c9061862b565b80601f0160208091040260200160405190810160405280929190818152602001828054615ab89061862b565b8015615b055780601f10615ada57610100808354040283529160200191615b05565b820191906000526020600020905b815481529060010190602001808311615ae857829003601f168201915b505050918352505060038201546020808301919091526004830154604080840191909152600590930154606092830152928452815180830183526006860154815260078601548185015284840152815180830183526008860154815260098601548185015284830152815160808082018452600a8701548252600b87015482860152600c87015482850152600d87015460ff161515828401528583019190915282518082018452600e870180548252600f88015482870152601088015482860152601188018054865181890281018901909752808752939097019691959094938601939290830182828015615c1957602002820191906000526020600020905b815481526020019060010190808311615c05575b505050505081525050815260200160128201805480602002602001604051908101604052809291908181526020018280548015615c7f57602002820191906000526020600020905b81546001600160a01b03168152600190910190602001808311615c61575b50505091835250506013820154602082015260149091015460ff1615156040909101529050826000615cb1878761688a565b5090506000615cc0838361867b565b90506000615ccf826021618826565b615ce190674563918244f4000061867b565b90506000615cf0856021618826565b615d0290674563918244f4000061867b565b90506000615d12612e14846168e7565b90506000615d22612e14846168e7565b90506000615d33612e3a60216168e7565b90506000615d4488620f4240618826565b615d4e908361887b565b8a5160e00151909150670de0b6b3a7640000615d6a8284618826565b615d74919061887b565b9f9e505050505050505050505050505050565b6001600160a01b03163b151590565b600081815260ff60205260409020546001600160a01b0316611d645760405162461bcd60e51b8152602060048201526018602482015277115490cdcc8c4e881a5b9d985b1a59081d1bdad95b88125160421b604482015260640161102d565b60008181526101016020526040902080546001600160a01b0319166001600160a01b0384169081179091558190615e2b82612eba565b6001600160a01b03167f8c5be1e5ebec7d5bd14f71427d1e84f3dd0314c0f7b2291e5b200ac8c7c3b92560405160405180910390a45050565b600080615e7083612eba565b9050806001600160a01b0316846001600160a01b03161480615eb857506001600160a01b038082166000908152610102602090815260408083209388168352929052205460ff165b80613a435750836001600160a01b0316615ed184610f91565b6001600160a01b031614949350505050565b826001600160a01b0316615ef682612eba565b6001600160a01b031614615f1c5760405162461bcd60e51b815260040161102d90618afa565b6001600160a01b038216615f7e5760405162461bcd60e51b8152602060048201526024808201527f4552433732313a207472616e7366657220746f20746865207a65726f206164646044820152637265737360e01b606482015260840161102d565b826001600160a01b0316615f9182612eba565b6001600160a01b031614615fb75760405162461bcd60e51b815260040161102d90618afa565b60008181526101016020908152604080832080546001600160a01b03199081169091556001600160a01b03878116808652610100855283862080546000190190559087168086528386208054600101905586865260ff90945282852080549092168417909155905184937fddf252ad1be2c89b69c2b068fc378daa952ba7f163c4a11628f55a4df523b3ef91a4505050565b6033546001600160a01b0316331461329b5760405162461bcd60e51b815260206004820181905260248201527f4f776e61626c653a2063616c6c6572206973206e6f7420746865206f776e6572604482015260640161102d565b600061013083815481106160b9576160b961868e565b6000918252602082206015919091020160088101546003820154825492945085926160ef9190600160a81b900461ffff16613df2565b6160f991906186f1565b616103919061867b565b60018301548354919250616125916001600160a01b03908116911630846161ee565b5060006127106161376103e884618826565b616141919061887b565b90508183600801600001600082825461615a919061867b565b909155505082546001600160a01b0316600090815261013760205260408120805483929061618990849061867b565b909155506000905061619b82846186f1565b9050808460080160010160008282546161b4919061867b565b9091555050604051839087907fadb049ad2d09be3db90459a16aef1ad0a4d89e8fdcc1ade9429d6cc55abbcd2b90600090a3505050505050565b6040516001600160a01b03808516602483015283166044820152606481018290526000906155cf9086906323b872dd60e01b906084015b60408051601f198184030181529190526020810180516001600160e01b03166001600160e01b031990931692909217909152617100565b6000670eb5e06245ea0000616279670de0b6b3a764000084618826565b616283919061887b565b905080610130848154811061629a5761629a61868e565b6000918252602090912060056015909202010155505050565b60008061013085815481106162ca576162ca61868e565b906000526020600020906015020190506000846040516020016162ed919061803a565b60408051601f198184030181529181528151602092830120600089815261013a909352912054909150808214616443576000616328886166f9565b9050600061633689896171d2565b90506001600160a01b038116156164235780616352838961867b565b6006870180546000906163669084906186f1565b909155506163769050838961867b565b60078701805460009061638a90849061867b565b909155506163b090508261639e858b61867b565b88546001600160a01b03169190616857565b5060405163d33b0aa760e01b8152600160048201526001600160a01b0382169063d33b0aa7906024016020604051808303816000875af11580156163f8573d6000803e3d6000fd5b505050506040513d601f19601f8201168201806040525081019061641c9190618b3f565b5050616440565b8685600601600001600082825461643a919061867b565b90915550505b50505b5050509392505050565b611d64616049565b7f4910fdfa16fed3260ed0e7147f7cc6da11a60208b5b9406d12a635614ffd91435460ff1615616488576110ce83617311565b826001600160a01b03166352d1902d6040518163ffffffff1660e01b8152600401602060405180830381865afa9250505080156164e2575060408051601f3d908101601f191682019092526164df91810190618b3f565b60015b6165455760405162461bcd60e51b815260206004820152602e60248201527f45524331393637557067726164653a206e657720696d706c656d656e7461746960448201526d6f6e206973206e6f74205555505360901b606482015260840161102d565b600080516020618ca083398151915281146165b45760405162461bcd60e51b815260206004820152602960248201527f45524331393637557067726164653a20756e737570706f727465642070726f786044820152681a58589b195555525160ba1b606482015260840161102d565b506110ce8383836173ad565b600082815261013360205260408120546101308054919291839081106165e8576165e861868e565b600091825260208083208784526101349091526040832060159092020192509080806166138861242c565b925092509250866166615784601301546000036166305742616636565b84601301545b846004018190555080846003016000828254616652919061867b565b90915550505050505050505050565b60088501548311156166775761667786846160a3565b8215611c535760006003850181905560138601549003616697574261669d565b84601301545b60048501556008850180548491906000906166b99084906186f1565b90915550506009850180548391906000906166d59084906186f1565b90915550611c5190506166e789612eba565b86546001600160a01b03169084616857565b60008061013083815481106167105761671061868e565b6000918252602080832086845261013a90915260408320546015909202019250801561684f576000858152610139602090815260408083208484528252808320548151637f1f087360e01b815291516001600160a01b0390911693928492637f1f08739260048083019392829003018187875af1158015616795573d6000803e3d6000fd5b505050506040513d601f19601f820116820180604052508101906167b99190618b3f565b60405163f840cb8360e01b815260016004820152602481018290529091506001600160a01b0383169063f840cb83906044016020604051808303816000875af115801561680a573d6000803e3d6000fd5b505050506040513d601f19601f8201168201806040525081019061682e9190618b3f565b935083856006016000016000828254616847919061867b565b909155505050505b509392505050565b6040516001600160a01b0383166024820152604481018290526000906119b290859063a9059cbb60e01b90606401616225565b60008061013084815481106168a1576168a161868e565b60009182526020909120600360159092020101546168c7670de0b6b3a764000085618826565b6168d1919061887b565b90506168de816005618826565b91509250929050565b60006168fd670de0b6b3a764000060001961887b565b821115616920576040516322630c4560e01b81526004810183905260240161102d565b670de0b6b3a76400008202610ef9565b6000610ef96714057b7ef767814f670de0b6b3a7640000616956616953866173d2565b90565b028161696457616964618865565b0490565b600061173561695383856186f1565b60006117356169538484617508565b600061173561695384670de0b6b3a7640000856175bc565b600260ca54036169f05760405162461bcd60e51b815260206004820152601f60248201527f5265656e7472616e637947756172643a207265656e7472616e742063616c6c00604482015260640161102d565b600260ca55565b60006001600160a01b038316616a4f5760405162461bcd60e51b815260206004820152601f60248201527f45524332303a206d696e7420746f20746865207a65726f206164647265737300604482015260640161102d565b6000616a5b8584612af7565b90506000616a6885617690565b9050616aaa6040518060e00160405280600081526020016000815260200160008152602001600081526020016000815260200160008152602001600081525090565b8481526000616ab9888761688a565b509050674563918244f40000816101308a81548110616ada57616ada61868e565b9060005260206000209060150201600e0160020154616af9919061867b565b1115616b3d5760405162461bcd60e51b81526020600482015260136024820152721608189bdd5b99185c9e481d9a5bdb185d1959606a1b604482015260640161102d565b6020808301828152604080850187815242608087019081526000888152610134865283812088518155945160018087019190915592516002860155606088015160038601559051600485015560a0870151600585015560c08701516006909401939093558b83526101358452818320805491820181558352838320018690558582526101339092522088905561013080548291908a908110616be157616be161868e565b9060005260206000209060150201600e016002016000828254616c04919061867b565b92505081905550616c3d886101308a81548110616c2357616c2361868e565b9060005260206000209060150201600e0160020154617837565b5091979650505050505050565b600080670de0b6b3a7640000616c6884670928ca80cfc20000618826565b616c72919061887b565b616c849067016345785d8a000061867b565b9050611735816ec097ce7bc90715b34b9f100000000061887b565b600061173582846186f1565b6000818152610133602090815260408083205480845261013583528184208054835181860281018601909452808452919493909190830182828015616d0f57602002820191906000526020600020905b815481526020019060010190808311616cfb575b5050835193945060009250829150505b82811015616d5f5785848281518110616d3a57616d3a61868e565b602002602001015103616d4f57809150616d5f565b616d588161871a565b9050616d1f565b50818110616daf5760405162461bcd60e51b815260206004820152601860248201527f546f6b656e206e6f7420666f756e6420696e2061727261790000000000000000604482015260640161102d565b805b616dbc6001846186f1565b811015616e145783616dcf82600161867b565b81518110616ddf57616ddf61868e565b6020026020010151848281518110616df957616df961868e565b6020908102919091010152616e0d8161871a565b9050616db1565b506000848152610135602090815260409091208451616e3592860190617f02565b50600084815261013560205260409020805480616e5457616e54618704565b600190038181906000526020600020016000905590555050505050565b60008181526101336020908152604080832054610134835292819020815160e081018352815481526001820154938101939093526002810154918301919091526003810154606083015260048101546080830152600581015460a08301526006015460c08201526110ce8361786b565b816001600160a01b0316836001600160a01b031603616f425760405162461bcd60e51b815260206004820152601960248201527f4552433732313a20617070726f766520746f2063616c6c657200000000000000604482015260640161102d565b6001600160a01b0383811660008181526101026020908152604080832094871680845294825291829020805460ff191686151590811790915591519182527f17307eab39ab6107e8899845ad3d59bd9653f200f220920489ca2b5937696c31910160405180910390a3505050565b603380546001600160a01b038381166001600160a01b03198084168217909455603480549094169093556040519116919082907f8be0079c531659141344cd1fd0a4f28419497f9722a3daafe3b4186f6b6457e090600090a35050565b617018848484615ee3565b61702484848484617902565b6152ed5760405162461bcd60e51b815260040161102d90618b58565b600054610100900460ff166170675760405162461bcd60e51b815260040161102d90618baa565b61329b617a00565b6060600061707c83617a30565b600101905060008167ffffffffffffffff81111561709c5761709c6182c0565b6040519080825280601f01601f1916602001820160405280156170c6576020820181803683370190505b5090508181016020015b600019016f181899199a1a9b1b9c1cb0b131b232b360811b600a86061a8153600a85049450841561684f576170d0565b6000617155826040518060400160405280602081526020017f5361666545524332303a206c6f772d6c6576656c2063616c6c206661696c6564815250856001600160a01b0316617b089092919063ffffffff16565b8051909150156110ce57808060200190518101906171739190618bf5565b6110ce5760405162461bcd60e51b815260206004820152602a60248201527f5361666545524332303a204552433230206f7065726174696f6e20646964206e6044820152691bdd081cdd58d8d9595960b21b606482015260840161102d565b6000806000836040516020016171e8919061803a565b60408051601f198184030181529181528151602092830120600088815261013984528281208282529093529120549091506001600160a01b0316806172a25761013854604051632f3802cf60e11b81526001600160a01b0390911690635e70059e9061725890889060040161803a565b6020604051808303816000875af1158015617277573d6000803e3d6000fd5b505050506040513d601f19601f8201168201806040525081019061729b9190618c12565b92506172ac565b9250610ef9915050565b6001600160a01b0383166172c65760009350505050610ef9565b50600085815261013960209081526040808320848452825280832080546001600160a01b0319166001600160a01b03871617905596825261013a905294909420939093555090919050565b6001600160a01b0381163b61737e5760405162461bcd60e51b815260206004820152602d60248201527f455243313936373a206e657720696d706c656d656e746174696f6e206973206e60448201526c1bdd08184818dbdb9d1c9858dd609a1b606482015260840161102d565b600080516020618ca083398151915280546001600160a01b0319166001600160a01b0392909216919091179055565b6173b683617b17565b6000825111806173c35750805b156110ce576152ed8383617b57565b600081670de0b6b3a764000081101561740157604051633621413760e21b81526004810184905260240161102d565b600061748d670de0b6b3a7640000830460016fffffffffffffffffffffffffffffffff821160071b91821c67ffffffffffffffff811160061b90811c63ffffffff811160051b90811c61ffff811160041b90811c60ff8111600390811b91821c600f811160021b90811c918211871b91821c969096119490961792909217171791909117919091171790565b9050670de0b6b3a7640000810282821c670de0b6b3a763ffff1981016174b957815b9695505050505050565b671bc16d674ec800006706f05b59d3b200005b80156174fc57670de0b6b3a76400008380020492508183106174f4579283019260019290921c915b60011c6174cc565b50919695505050505050565b60008080600019848609848602925082811083820303915050670de0b6b3a764000081106175535760405163090638d560e41b8152600481018690526024810185905260440161102d565b6000670de0b6b3a764000085870990508160000361757f575050670de0b6b3a764000090049050610ef9565b620400008184030492109003600160ee1b02177faccb18165bd6fe31ae1cf318dc5b51eee0e1ba569b88cd74c1773b91fac1066902905092915050565b60008080600019858709858702925082811083820303915050806000036175f6578382816175ec576175ec618865565b0492505050611735565b838110617627576040516307639aaf60e41b815260048101879052602481018690526044810185905260640161102d565b60008486880960026001871981018816978890046003810283188082028403028082028403028082028403028082028403028082028403029081029092039091026000889003889004909101858311909403939093029303949094049190911702949350505050565b600080610103600081546176a39061871a565b918290555090506001600160a01b0383166177005760405162461bcd60e51b815260206004820181905260248201527f4552433732313a206d696e7420746f20746865207a65726f2061646472657373604482015260640161102d565b600081815260ff60205260409020546001600160a01b0316156177655760405162461bcd60e51b815260206004820152601c60248201527f4552433732313a20746f6b656e20616c7265616479206d696e74656400000000604482015260640161102d565b600081815260ff60205260409020546001600160a01b0316156177ca5760405162461bcd60e51b815260206004820152601c60248201527f4552433732313a20746f6b656e20616c7265616479206d696e74656400000000604482015260640161102d565b6001600160a01b0383166000818152610100602090815260408083208054600101905584835260ff90915280822080546001600160a01b0319168417905551839291907fddf252ad1be2c89b69c2b068fc378daa952ba7f163c4a11628f55a4df523b3ef908290a4610ef9565b600081610130848154811061784e5761784e61868e565b60009182526020909120600e601590920201015550600192915050565b600061787682612eba565b905061788182612eba565b60008381526101016020908152604080832080546001600160a01b03199081169091556001600160a01b0385168085526101008452828520805460001901905587855260ff909352818420805490911690555192935084927fddf252ad1be2c89b69c2b068fc378daa952ba7f163c4a11628f55a4df523b3ef908390a45050565b60006001600160a01b0384163b156179f857604051630a85bd0160e11b81526001600160a01b0385169063150b7a0290617946903390899088908890600401618c2f565b6020604051808303816000875af1925050508015617981575060408051601f3d908101601f1916820190925261797e91810190618c62565b60015b6179de573d8080156179af576040519150601f19603f3d011682016040523d82523d6000602084013e6179b4565b606091505b5080516000036179d65760405162461bcd60e51b815260040161102d90618b58565b805181602001fd5b6001600160e01b031916630a85bd0160e11b149050613a43565b506001613a43565b600054610100900460ff16617a275760405162461bcd60e51b815260040161102d90618baa565b61329b33616fb0565b60008072184f03e93ff9f4daa797ed6e38ed64bf6a1f0160401b8310617a6f5772184f03e93ff9f4daa797ed6e38ed64bf6a1f0160401b830492506040015b6d04ee2d6d415b85acef81000000008310617a9b576d04ee2d6d415b85acef8100000000830492506020015b662386f26fc100008310617ab957662386f26fc10000830492506010015b6305f5e1008310617ad1576305f5e100830492506008015b6127108310617ae557612710830492506004015b60648310617af7576064830492506002015b600a8310610ef95760010192915050565b6060613a438484600085617c4b565b617b2081617311565b6040516001600160a01b038216907fbc7cd75a20ee27fd9adebab32041f755214dbc6bffa90cc0225b39da2e5c2d3b90600090a250565b60606001600160a01b0383163b617bbf5760405162461bcd60e51b815260206004820152602660248201527f416464726573733a2064656c65676174652063616c6c20746f206e6f6e2d636f6044820152651b9d1c9858dd60d21b606482015260840161102d565b600080846001600160a01b031684604051617bda9190618935565b600060405180830381855af49150503d8060008114617c15576040519150601f19603f3d011682016040523d82523d6000602084013e617c1a565b606091505b5091509150617c428282604051806060016040528060278152602001618cc060279139617d1b565b95945050505050565b606082471015617cac5760405162461bcd60e51b815260206004820152602660248201527f416464726573733a20696e73756666696369656e742062616c616e636520666f6044820152651c8818d85b1b60d21b606482015260840161102d565b600080866001600160a01b03168587604051617cc89190618935565b60006040518083038185875af1925050503d8060008114617d05576040519150601f19603f3d011682016040523d82523d6000602084013e617d0a565b606091505b5091509150613de787838387617d34565b60608315617d2a575081611735565b6117358383617da9565b60608315617da3578251600003617d9c576001600160a01b0385163b617d9c5760405162461bcd60e51b815260206004820152601d60248201527f416464726573733a2063616c6c20746f206e6f6e2d636f6e7472616374000000604482015260640161102d565b5081613a43565b613a4383835b815115617db95781518083602001fd5b8060405162461bcd60e51b815260040161102d919061803a565b5080546000825590600052602060002090810190611d649190617fa2565b6040805161020081019091526000610100820181815261012083018290526101408301829052610160830182905260606101808401526101a083018290526101c083018290526101e083019190915281908152602001617e64604051806040016040528060008152602001600081525090565b8152602001617e86604051806040016040528060008152602001600081525090565b8152602001617eb860405180608001604052806000815260200160008152602001600081526020016000151581525090565b8152602001617ee86040518060800160405280600081526020016000815260200160008152602001606081525090565b815260606020820181905260006040830181905291015290565b828054828255906000526020600020908101928215617f3d579160200282015b82811115617f3d578251825591602001919060010190617f22565b50617f49929150617fa2565b5090565b828054828255906000526020600020908101928215617f3d579160200282015b82811115617f3d57825182546001600160a01b0319166001600160a01b03909116178255602090920191600190910190617f6d565b5b80821115617f495760008155600101617fa3565b6001600160e01b031981168114611d6457600080fd5b600060208284031215617fdf57600080fd5b813561173581617fb7565b60005b83811015618005578181015183820152602001617fed565b50506000910152565b60008151808452618026816020860160208601617fea565b601f01601f19169290920160200192915050565b602081526000611735602083018461800e565b6000806040838503121561806057600080fd5b50508035926020909101359150565b60006020828403121561808157600080fd5b5035919050565b6001600160a01b0381168114611d6457600080fd5b600080604083850312156180b057600080fd5b82356180bb81618088565b946020939093013593505050565b60006080830182518452602080840151818601526040840151604086015260608401516080606087015282815180855260a0880191508383019450600092505b808310156181295784518252938301936001929092019190830190618109565b509695505050505050565b61018080825288516001600160a01b0390811691830191909152602089015160ff166101a0830152604089015161ffff166101c08301526060890151166101e0820152608088015161010061020083015260009061819661028084018261800e565b905060a08a015161022084015260c08a015161024084015260e08a01516102608401526181d0602084018a80518252602090810151910152565b8751606084015260208801516080840152865160a0840152602087015160c0840152604087015160e08401526060870151151561010084015282810361012084015261821c81876180c9565b9150508361014083015261823561016083018415159052565b98975050505050505050565b60008060006060848603121561825657600080fd5b833561826181618088565b9250602084013561827181618088565b929592945050506040919091013590565b8015158114611d6457600080fd5b6000806000606084860312156182a557600080fd5b83356182b081618088565b9250602084013561827181618282565b634e487b7160e01b600052604160045260246000fd5b600082601f8301126182e757600080fd5b813567ffffffffffffffff80821115618302576183026182c0565b604051601f8301601f19908116603f0116810190828211818310171561832a5761832a6182c0565b8160405283815286602085880101111561834357600080fd5b836020870160208301376000602085830101528094505050505092915050565b600080600080600060a0868803121561837b57600080fd5b8535945060208601359350604086013561ffff8116811461839b57600080fd5b925060608601359150608086013567ffffffffffffffff8111156183be57600080fd5b6183ca888289016182d6565b9150509295509295909350565b6000602082840312156183e957600080fd5b813561173581618088565b60008060006060848603121561840957600080fd5b83359250602084013561827181618088565b6000806040838503121561842e57600080fd5b823561843981618088565b9150602083013567ffffffffffffffff81111561845557600080fd5b618461858286016182d6565b9150509250929050565b60008060006060848603121561848057600080fd5b833561848b81618088565b9250602084013561849b81618088565b9150604084013567ffffffffffffffff8111156184b757600080fd5b6184c3868287016182d6565b9150509250925092565b600080604083850312156184e057600080fd5b8235915060208301356184f281618282565b809150509250929050565b6000806040838503121561851057600080fd5b823561851b81618088565b915060208301356184f281618282565b60008060006060848603121561854057600080fd5b8335925060208401359150604084013567ffffffffffffffff8111156184b757600080fd5b6000806000806080858703121561857b57600080fd5b843561858681618088565b9350602085013561859681618088565b925060408501359150606085013567ffffffffffffffff8111156185b957600080fd5b6185c5878288016182d6565b91505092959194509250565b600080604083850312156185e457600080fd5b82356185ef81618088565b915060208301356184f281618088565b60008060006060848603121561861457600080fd5b505081359360208301359350604090920135919050565b600181811c9082168061863f57607f821691505b60208210810361865f57634e487b7160e01b600052602260045260246000fd5b50919050565b634e487b7160e01b600052601160045260246000fd5b80820180821115610ef957610ef9618665565b634e487b7160e01b600052603260045260246000fd5b6020808252602d908201527f4552433732313a2063616c6c6572206973206e6f7420746f6b656e206f776e6560408201526c1c881bdc88185c1c1c9bdd9959609a1b606082015260800190565b81810381811115610ef957610ef9618665565b634e487b7160e01b600052603160045260246000fd5b60006001820161872c5761872c618665565b5060010190565b600181815b8085111561876e57816000190482111561875457618754618665565b8085161561876157918102915b93841c9390800290618738565b509250929050565b60008261878557506001610ef9565b8161879257506000610ef9565b81600181146187a857600281146187b2576187ce565b6001915050610ef9565b60ff8411156187c3576187c3618665565b50506001821b610ef9565b5060208310610133831016604e8410600b84101617156187f1575081810a610ef9565b6187fb8383618733565b806000190482111561880f5761880f618665565b029392505050565b600061173560ff841683618776565b8082028115828204841417610ef957610ef9618665565b6020808252600e908201526d139bdd08185d5d1a1bdc9a5e995960921b604082015260600190565b634e487b7160e01b600052601260045260246000fd5b60008261889857634e487b7160e01b600052601260045260246000fd5b500490565b6020808252602c908201527f46756e6374696f6e206d7573742062652063616c6c6564207468726f7567682060408201526b19195b1959d85d1958d85b1b60a21b606082015260800190565b6020808252602c908201527f46756e6374696f6e206d7573742062652063616c6c6564207468726f7567682060408201526b6163746976652070726f787960a01b606082015260800190565b60008251618947818460208701617fea565b9190910192915050565b60006020828403121561896357600080fd5b815160ff8116811461173557600080fd5b601f8211156110ce57600081815260208120601f850160051c8101602086101561899b5750805b601f850160051c820191505b818110156189ba578281556001016189a7565b505050505050565b815167ffffffffffffffff8111156189dc576189dc6182c0565b6189f0816189ea845461862b565b84618974565b602080601f831160018114618a255760008415618a0d5750858301515b600019600386901b1c1916600185901b1785556189ba565b600085815260208120601f198616915b82811015618a5457888601518255948401946001909101908401618a35565b5085821015618a725787850151600019600388901b60f8161c191681555b5050505050600190811b01905550565b60208082526029908201527f54696d656c6f636b206e6f7420736574206f72206e6f7420636f6d706c6574656040820152686420696e2074696d6560b81b606082015260800190565b60008351618add818460208801617fea565b835190830190618af1818360208801617fea565b01949350505050565b60208082526025908201527f4552433732313a207472616e736665722066726f6d20696e636f72726563742060408201526437bbb732b960d91b606082015260800190565b600060208284031215618b5157600080fd5b5051919050565b60208082526032908201527f4552433732313a207472616e7366657220746f206e6f6e20455243373231526560408201527131b2b4bb32b91034b6b83632b6b2b73a32b960711b606082015260800190565b6020808252602b908201527f496e697469616c697a61626c653a20636f6e7472616374206973206e6f74206960408201526a6e697469616c697a696e6760a81b606082015260800190565b600060208284031215618c0757600080fd5b815161173581618282565b600060208284031215618c2457600080fd5b815161173581618088565b6001600160a01b03858116825284166020820152604081018390526080606082018190526000906174af9083018461800e565b600060208284031215618c7457600080fd5b815161173581617fb756fea3ea4fb8dee4d414198cb197af6eae4fe483c1a0b849dc50e53b9bf1a60e2166360894a13ba1a3210667c828492db98dca3e2076cc3735a920a3ca505d382bbc416464726573733a206c6f772d6c6576656c2064656c65676174652063616c6c206661696c6564a2646970667358221220314f14f834c73286e97cc318bd45e94dc6dc419089c1412509aaa8a3953f4d2964736f6c63430008110033496e697469616c697a61626c653a20636f6e7472616374206973206e6f742069",
    "linkReferences": {}
  },
  "methodIdentifiers": {
    "acceptOwnershipTransfer()": "b842e87f",
    "activeStrategies(uint256)": "b20b2429",
    "activeTokens(uint256)": "9f224f35",
    "addNewBountyPool(address,address,string)": "804fd590",
    "approve(address,uint256)": "095ea7b3",
    "balanceOf(address)": "70a08231",
    "billPremium(uint256)": "2dbe051e",
    "calcRequiredPremiumBalancePerPeriod(uint256,uint256)": "836ef1fa",
    "calculateEffectiveAPY(uint256,uint256)": "5c46f7b1",
    "calculateEffectiveAPYConsolidate(uint256,uint256,uint256)": "ff5e5b5f",
    "claimPremium(uint256)": "f47ec3be",
    "collectAllSaloonProfits(address)": "ecd7fbed",
    "collectSaloonProfits(address,address)": "cf9564b9",
    "consolidate()": "724f024b",
    "consolidate(uint256)": "949a4a4a",
    "consolidateAll()": "75bfd63d",
    "getApproved(uint256)": "081812fc",
    "getCurrentAPY(uint256)": "7fbf3853",
    "getMultiplier(uint256,uint256)": "8dbb1e3a",
    "index()": "2986c0e5",
    "initialize(address)": "c4d66de8",
    "isApprovedForAll(address,address)": "e985e9c5",
    "makeProjectDeposit(uint256,uint256,string)": "ae07f948",
    "minTokenStakeAmount(address)": "39458723",
    "name()": "06fdde03",
    "nftAPY(uint256)": "1df56622",
    "nftBalance(uint256)": "e63d6ee4",
    "nftInfo(uint256)": "1f8bc790",
    "nftToPid(uint256)": "612afc0c",
    "owner()": "8da5cb5b",
    "ownerOf(uint256)": "6352211e",
    "payBounty(uint256,address,uint256)": "3ac6ad7b",
    "pendingPremium(uint256)": "40bd1d00",
    "pidNFTList(uint256,uint256)": "96ea48e8",
    "pidStrategies(uint256,bytes32)": "074ecf03",
    "poolInfo(uint256)": "1526fe27",
    "poolLength()": "081e3eda",
    "projectDepositWithdrawal(uint256,uint256)": "983c1ce0",
    "proxiableUUID()": "52d1902d",
    "safeTransferFrom(address,address,uint256)": "42842e0e",
    "safeTransferFrom(address,address,uint256,bytes)": "b88d4fde",
    "saloonBountyProfit(address)": "e45abd0f",
    "saloonPremiumProfit(address)": "ca006148",
    "scheduleProjectDepositWithdrawal(uint256,uint256)": "5669cbef",
    "scheduleUnstake(uint256)": "106d08df",
    "setAPYandPoolCapAndDeposit(uint256,uint256,uint16,uint256,string)": "30ca0794",
    "setApprovalForAll(address,bool)": "a22cb465",
    "stake(uint256,uint256)": "7b0472f0",
    "supportsInterface(bytes4)": "01ffc9a7",
    "symbol()": "95d89b41",
    "tokenURI(uint256)": "c87b56dd",
    "tokenWhitelist(address)": "753d7563",
    "transferFrom(address,address,uint256)": "23b872dd",
    "transferOwnership(address)": "f2fde38b",
    "unstake(uint256,bool)": "9ebea88c",
    "updateStrategyFactoryAddress(address)": "3538fda0",
    "updateTokenWhitelist(address,bool,uint256)": "2cb0dfcc",
    "upgradeTo(address)": "3659cfe6",
    "upgradeToAndCall(address,bytes)": "4f1ef286",
    "viewBountyBalance(uint256)": "6ac6d812",
    "viewBountyInfo(uint256)": "40ef2868",
    "viewHackerPayout(uint256)": "861e5f66",
    "viewMinProjectDeposit(uint256)": "1c6b323f",
    "viewPoolAPY(uint256)": "a27f9213",
    "viewPoolCap(uint256)": "39679ff4",
    "viewPoolPremiumInfo(uint256)": "b1a2d16f",
    "viewPoolTimelockInfo(uint256)": "ac30b856",
    "viewSaloonProfitBalance(address)": "718c7eef",
    "viewTokenInfo(uint256)": "10725852",
    "viewTotalStaked(uint256)": "dbdd6957",
    "viewUserUnclaimed(uint256)": "19693071",
    "windDownBounty(uint256)": "bb7019c1"
  },
  "id": 47
}