{
  "abi": [
    {
      "inputs": [
        {
          "internalType": "UD60x18",
          "name": "x",
          "type": "uint256"
        }
      ],
      "name": "PRBMathUD60x18__LogInputTooSmall",
      "type": "error"
    },
    {
      "inputs": [
        {
          "internalType": "uint256",
          "name": "x",
          "type": "uint256"
        }
      ],
      "name": "PRBMathUD60x18__ToUD60x18Overflow",
      "type": "error"
    },
    {
      "inputs": [
        {
          "internalType": "uint256",
          "name": "x",
          "type": "uint256"
        },
        {
          "internalType": "uint256",
          "name": "y",
          "type": "uint256"
        }
      ],
      "name": "PRBMath__MulDiv18Overflow",
      "type": "error"
    },
    {
      "inputs": [
        {
          "internalType": "uint256",
          "name": "x",
          "type": "uint256"
        },
        {
          "internalType": "uint256",
          "name": "y",
          "type": "uint256"
        },
        {
          "internalType": "uint256",
          "name": "denominator",
          "type": "uint256"
        }
      ],
      "name": "PRBMath__MulDivOverflow",
      "type": "error"
    },
    {
      "anonymous": false,
      "inputs": [
        {
          "indexed": false,
          "internalType": "address",
          "name": "previousAdmin",
          "type": "address"
        },
        {
          "indexed": false,
          "internalType": "address",
          "name": "newAdmin",
          "type": "address"
        }
      ],
      "name": "AdminChanged",
      "type": "event"
    },
    {
      "anonymous": false,
      "inputs": [
        {
          "indexed": true,
          "internalType": "address",
          "name": "owner",
          "type": "address"
        },
        {
          "indexed": true,
          "internalType": "address",
          "name": "spender",
          "type": "address"
        },
        {
          "indexed": false,
          "internalType": "uint256",
          "name": "value",
          "type": "uint256"
        }
      ],
      "name": "Approval",
      "type": "event"
    },
    {
      "anonymous": false,
      "inputs": [
        {
          "indexed": true,
          "internalType": "address",
          "name": "beacon",
          "type": "address"
        }
      ],
      "name": "BeaconUpgraded",
      "type": "event"
    },
    {
      "anonymous": false,
      "inputs": [
        {
          "indexed": true,
          "internalType": "uint256",
          "name": "pid",
          "type": "uint256"
        },
        {
          "indexed": true,
          "internalType": "uint256",
          "name": "oldAmount",
          "type": "uint256"
        },
        {
          "indexed": true,
          "internalType": "uint256",
          "name": "newAmount",
          "type": "uint256"
        }
      ],
      "name": "BountyBalanceChanged",
      "type": "event"
    },
    {
      "anonymous": false,
      "inputs": [
        {
          "indexed": true,
          "internalType": "uint256",
          "name": "time",
          "type": "uint256"
        },
        {
          "indexed": true,
          "internalType": "address",
          "name": "hunter",
          "type": "address"
        },
        {
          "indexed": true,
          "internalType": "address",
          "name": "token",
          "type": "address"
        },
        {
          "indexed": false,
          "internalType": "uint256",
          "name": "amount",
          "type": "uint256"
        }
      ],
      "name": "BountyPaid",
      "type": "event"
    },
    {
      "anonymous": false,
      "inputs": [
        {
          "indexed": false,
          "internalType": "uint8",
          "name": "version",
          "type": "uint8"
        }
      ],
      "name": "Initialized",
      "type": "event"
    },
    {
      "anonymous": false,
      "inputs": [
        {
          "indexed": true,
          "internalType": "uint256",
          "name": "pid",
          "type": "uint256"
        },
        {
          "indexed": true,
          "internalType": "address",
          "name": "token",
          "type": "address"
        },
        {
          "indexed": true,
          "internalType": "uint256",
          "name": "tokenDecimals",
          "type": "uint256"
        }
      ],
      "name": "NewBountyDeployed",
      "type": "event"
    },
    {
      "anonymous": false,
      "inputs": [
        {
          "indexed": true,
          "internalType": "address",
          "name": "previousOwner",
          "type": "address"
        },
        {
          "indexed": true,
          "internalType": "address",
          "name": "newOwner",
          "type": "address"
        }
      ],
      "name": "OwnershipTransferred",
      "type": "event"
    },
    {
      "anonymous": false,
      "inputs": [
        {
          "indexed": true,
          "internalType": "uint256",
          "name": "pid",
          "type": "uint256"
        },
        {
          "indexed": true,
          "internalType": "uint256",
          "name": "amount",
          "type": "uint256"
        }
      ],
      "name": "PremiumBilled",
      "type": "event"
    },
    {
      "anonymous": false,
      "inputs": [
        {
          "indexed": true,
          "internalType": "address",
          "name": "user",
          "type": "address"
        },
        {
          "indexed": true,
          "internalType": "uint256",
          "name": "pid",
          "type": "uint256"
        },
        {
          "indexed": false,
          "internalType": "uint256",
          "name": "amount",
          "type": "uint256"
        }
      ],
      "name": "Staked",
      "type": "event"
    },
    {
      "anonymous": false,
      "inputs": [
        {
          "indexed": true,
          "internalType": "address",
          "name": "from",
          "type": "address"
        },
        {
          "indexed": true,
          "internalType": "address",
          "name": "to",
          "type": "address"
        },
        {
          "indexed": false,
          "internalType": "uint256",
          "name": "value",
          "type": "uint256"
        }
      ],
      "name": "Transfer",
      "type": "event"
    },
    {
      "anonymous": false,
      "inputs": [
        {
          "indexed": true,
          "internalType": "address",
          "name": "user",
          "type": "address"
        },
        {
          "indexed": true,
          "internalType": "uint256",
          "name": "pid",
          "type": "uint256"
        },
        {
          "indexed": false,
          "internalType": "uint256",
          "name": "amount",
          "type": "uint256"
        }
      ],
      "name": "Unstaked",
      "type": "event"
    },
    {
      "anonymous": false,
      "inputs": [
        {
          "indexed": true,
          "internalType": "address",
          "name": "implementation",
          "type": "address"
        }
      ],
      "name": "Upgraded",
      "type": "event"
    },
    {
      "anonymous": false,
      "inputs": [
        {
          "indexed": true,
          "internalType": "uint256",
          "name": "pid",
          "type": "uint256"
        },
        {
          "indexed": true,
          "internalType": "uint256",
          "name": "amount",
          "type": "uint256"
        }
      ],
      "name": "WithdrawalOrUnstakeScheduled",
      "type": "event"
    },
    {
      "anonymous": false,
      "inputs": [
        {
          "indexed": true,
          "internalType": "address",
          "name": "token",
          "type": "address"
        },
        {
          "indexed": true,
          "internalType": "bool",
          "name": "whitelisted",
          "type": "bool"
        }
      ],
      "name": "tokenWhitelistUpdated",
      "type": "event"
    },
    {
      "inputs": [],
      "name": "acceptOwnershipTransfer",
      "outputs": [],
      "stateMutability": "nonpayable",
      "type": "function"
    },
    {
      "inputs": [
        {
          "internalType": "uint256",
          "name": "",
          "type": "uint256"
        }
      ],
      "name": "activeTokens",
      "outputs": [
        {
          "internalType": "address",
          "name": "",
          "type": "address"
        }
      ],
      "stateMutability": "view",
      "type": "function"
    },
    {
      "inputs": [
        {
          "internalType": "address",
          "name": "_token",
          "type": "address"
        },
        {
          "internalType": "address",
          "name": "_projectWallet",
          "type": "address"
        },
        {
          "internalType": "string",
          "name": "_projectName",
          "type": "string"
        }
      ],
      "name": "addNewBountyPool",
      "outputs": [
        {
          "internalType": "uint256",
          "name": "",
          "type": "uint256"
        }
      ],
      "stateMutability": "nonpayable",
      "type": "function"
    },
    {
      "inputs": [
        {
          "internalType": "address",
          "name": "owner",
          "type": "address"
        },
        {
          "internalType": "address",
          "name": "spender",
          "type": "address"
        }
      ],
      "name": "allowance",
      "outputs": [
        {
          "internalType": "uint256",
          "name": "",
          "type": "uint256"
        }
      ],
      "stateMutability": "view",
      "type": "function"
    },
    {
      "inputs": [
        {
          "internalType": "address",
          "name": "spender",
          "type": "address"
        },
        {
          "internalType": "uint256",
          "name": "amount",
          "type": "uint256"
        }
      ],
      "name": "approve",
      "outputs": [
        {
          "internalType": "bool",
          "name": "",
          "type": "bool"
        }
      ],
      "stateMutability": "nonpayable",
      "type": "function"
    },
    {
      "inputs": [
        {
          "internalType": "address",
          "name": "account",
          "type": "address"
        }
      ],
      "name": "balanceOf",
      "outputs": [
        {
          "internalType": "uint256",
          "name": "",
          "type": "uint256"
        }
      ],
      "stateMutability": "view",
      "type": "function"
    },
    {
      "inputs": [
        {
          "internalType": "uint256",
          "name": "_pid",
          "type": "uint256"
        }
      ],
      "name": "billPremium",
      "outputs": [
        {
          "internalType": "bool",
          "name": "",
          "type": "bool"
        }
      ],
      "stateMutability": "nonpayable",
      "type": "function"
    },
    {
      "inputs": [
        {
          "internalType": "uint256",
          "name": "_stake",
          "type": "uint256"
        },
        {
          "internalType": "uint256",
          "name": "_poolID",
          "type": "uint256"
        }
      ],
      "name": "calculateEffectivePrice",
      "outputs": [
        {
          "internalType": "uint256",
          "name": "toBeMinted",
          "type": "uint256"
        }
      ],
      "stateMutability": "nonpayable",
      "type": "function"
    },
    {
      "inputs": [
        {
          "internalType": "uint256",
          "name": "_pid",
          "type": "uint256"
        }
      ],
      "name": "claimPremium",
      "outputs": [],
      "stateMutability": "nonpayable",
      "type": "function"
    },
    {
      "inputs": [
        {
          "internalType": "address",
          "name": "_saloonWallet",
          "type": "address"
        }
      ],
      "name": "collectAllSaloonProfits",
      "outputs": [
        {
          "internalType": "bool",
          "name": "",
          "type": "bool"
        }
      ],
      "stateMutability": "nonpayable",
      "type": "function"
    },
    {
      "inputs": [
        {
          "internalType": "address",
          "name": "_token",
          "type": "address"
        },
        {
          "internalType": "address",
          "name": "_saloonWallet",
          "type": "address"
        }
      ],
      "name": "collectSaloonProfits",
      "outputs": [
        {
          "internalType": "bool",
          "name": "",
          "type": "bool"
        }
      ],
      "stateMutability": "nonpayable",
      "type": "function"
    },
    {
      "inputs": [
        {
          "internalType": "uint256",
          "name": "_stake",
          "type": "uint256"
        },
        {
          "internalType": "uint256",
          "name": "_poolID",
          "type": "uint256"
        }
      ],
      "name": "convertStakeToPoolMeasurements",
      "outputs": [
        {
          "internalType": "uint256",
          "name": "x",
          "type": "uint256"
        },
        {
          "internalType": "uint256",
          "name": "poolPercentage",
          "type": "uint256"
        }
      ],
      "stateMutability": "nonpayable",
      "type": "function"
    },
    {
      "inputs": [],
      "name": "decimals",
      "outputs": [
        {
          "internalType": "uint8",
          "name": "",
          "type": "uint8"
        }
      ],
      "stateMutability": "view",
      "type": "function"
    },
    {
      "inputs": [
        {
          "internalType": "address",
          "name": "spender",
          "type": "address"
        },
        {
          "internalType": "uint256",
          "name": "subtractedValue",
          "type": "uint256"
        }
      ],
      "name": "decreaseAllowance",
      "outputs": [
        {
          "internalType": "bool",
          "name": "",
          "type": "bool"
        }
      ],
      "stateMutability": "nonpayable",
      "type": "function"
    },
    {
      "inputs": [],
      "name": "getCurrentAPY",
      "outputs": [
        {
          "internalType": "uint256",
          "name": "result",
          "type": "uint256"
        }
      ],
      "stateMutability": "nonpayable",
      "type": "function"
    },
    {
      "inputs": [
        {
          "internalType": "uint256",
          "name": "_from",
          "type": "uint256"
        },
        {
          "internalType": "uint256",
          "name": "_to",
          "type": "uint256"
        }
      ],
      "name": "getMultiplier",
      "outputs": [
        {
          "internalType": "uint256",
          "name": "",
          "type": "uint256"
        }
      ],
      "stateMutability": "pure",
      "type": "function"
    },
    {
      "inputs": [
        {
          "internalType": "address",
          "name": "spender",
          "type": "address"
        },
        {
          "internalType": "uint256",
          "name": "addedValue",
          "type": "uint256"
        }
      ],
      "name": "increaseAllowance",
      "outputs": [
        {
          "internalType": "bool",
          "name": "",
          "type": "bool"
        }
      ],
      "stateMutability": "nonpayable",
      "type": "function"
    },
    {
      "inputs": [],
      "name": "initialize",
      "outputs": [],
      "stateMutability": "nonpayable",
      "type": "function"
    },
    {
      "inputs": [
        {
          "internalType": "uint256",
          "name": "_pid",
          "type": "uint256"
        },
        {
          "internalType": "uint256",
          "name": "_deposit",
          "type": "uint256"
        }
      ],
      "name": "makeProjectDeposit",
      "outputs": [],
      "stateMutability": "nonpayable",
      "type": "function"
    },
    {
      "inputs": [],
      "name": "name",
      "outputs": [
        {
          "internalType": "string",
          "name": "",
          "type": "string"
        }
      ],
      "stateMutability": "view",
      "type": "function"
    },
    {
      "inputs": [],
      "name": "owner",
      "outputs": [
        {
          "internalType": "address",
          "name": "",
          "type": "address"
        }
      ],
      "stateMutability": "view",
      "type": "function"
    },
    {
      "inputs": [
        {
          "internalType": "uint256",
          "name": "_pid",
          "type": "uint256"
        },
        {
          "internalType": "address",
          "name": "_hunter",
          "type": "address"
        },
        {
          "internalType": "uint256",
          "name": "_amount",
          "type": "uint256"
        }
      ],
      "name": "payBounty",
      "outputs": [
        {
          "internalType": "bool",
          "name": "",
          "type": "bool"
        }
      ],
      "stateMutability": "nonpayable",
      "type": "function"
    },
    {
      "inputs": [
        {
          "internalType": "uint256",
          "name": "_pid",
          "type": "uint256"
        },
        {
          "internalType": "address",
          "name": "_user",
          "type": "address"
        }
      ],
      "name": "pendingToken",
      "outputs": [
        {
          "internalType": "uint256",
          "name": "totalPending",
          "type": "uint256"
        },
        {
          "internalType": "uint256",
          "name": "actualPending",
          "type": "uint256"
        },
        {
          "internalType": "uint256",
          "name": "newPending",
          "type": "uint256"
        }
      ],
      "stateMutability": "view",
      "type": "function"
    },
    {
      "inputs": [
        {
          "internalType": "uint256",
          "name": "",
          "type": "uint256"
        }
      ],
      "name": "poolInfo",
      "outputs": [
        {
          "components": [
            {
              "internalType": "contract IERC20",
              "name": "token",
              "type": "address"
            },
            {
              "internalType": "uint8",
              "name": "tokenDecimals",
              "type": "uint8"
            },
            {
              "internalType": "uint16",
              "name": "apy",
              "type": "uint16"
            },
            {
              "internalType": "address",
              "name": "projectWallet",
              "type": "address"
            },
            {
              "internalType": "string",
              "name": "projectName",
              "type": "string"
            },
            {
              "internalType": "uint256",
              "name": "projectDeposit",
              "type": "uint256"
            },
            {
              "internalType": "uint256",
              "name": "poolCap",
              "type": "uint256"
            },
            {
              "internalType": "uint256",
              "name": "totalStaked",
              "type": "uint256"
            },
            {
              "internalType": "uint256",
              "name": "multiplier",
              "type": "uint256"
            }
          ],
          "internalType": "struct ISaloon.GeneralInfo",
          "name": "generalInfo",
          "type": "tuple"
        },
        {
          "components": [
            {
              "internalType": "uint256",
              "name": "requiredPremiumBalancePerPeriod",
              "type": "uint256"
            },
            {
              "internalType": "uint256",
              "name": "premiumBalance",
              "type": "uint256"
            },
            {
              "internalType": "uint256",
              "name": "premiumAvailable",
              "type": "uint256"
            }
          ],
          "internalType": "struct ISaloon.PremiumInfo",
          "name": "premiumInfo",
          "type": "tuple"
        },
        {
          "components": [
            {
              "internalType": "uint256",
              "name": "timelock",
              "type": "uint256"
            },
            {
              "internalType": "uint256",
              "name": "timeLimit",
              "type": "uint256"
            },
            {
              "internalType": "uint256",
              "name": "withdrawalScheduledAmount",
              "type": "uint256"
            },
            {
              "internalType": "bool",
              "name": "withdrawalExecuted",
              "type": "bool"
            }
          ],
          "internalType": "struct ISaloon.TimelockInfo",
          "name": "poolTimelock",
          "type": "tuple"
        },
        {
          "components": [
            {
              "internalType": "uint256",
              "name": "currentX",
              "type": "uint256"
            },
            {
              "internalType": "uint256",
              "name": "currentY",
              "type": "uint256"
            }
          ],
          "internalType": "struct ISaloon.TokenInfo",
          "name": "tokenInfo",
          "type": "tuple"
        },
        {
          "internalType": "uint256",
          "name": "freezeTime",
          "type": "uint256"
        },
        {
          "internalType": "bool",
          "name": "isActive",
          "type": "bool"
        }
      ],
      "stateMutability": "view",
      "type": "function"
    },
    {
      "inputs": [],
      "name": "poolLength",
      "outputs": [
        {
          "internalType": "uint256",
          "name": "",
          "type": "uint256"
        }
      ],
      "stateMutability": "view",
      "type": "function"
    },
    {
      "inputs": [
        {
          "internalType": "uint256",
          "name": "_pid",
          "type": "uint256"
        },
        {
          "internalType": "uint256",
          "name": "_amount",
          "type": "uint256"
        }
      ],
      "name": "projectDepositWithdrawal",
      "outputs": [
        {
          "internalType": "bool",
          "name": "",
          "type": "bool"
        }
      ],
      "stateMutability": "nonpayable",
      "type": "function"
    },
    {
      "inputs": [],
      "name": "proxiableUUID",
      "outputs": [
        {
          "internalType": "bytes32",
          "name": "",
          "type": "bytes32"
        }
      ],
      "stateMutability": "view",
      "type": "function"
    },
    {
      "inputs": [
        {
          "internalType": "address",
          "name": "",
          "type": "address"
        }
      ],
      "name": "saloonBountyProfit",
      "outputs": [
        {
          "internalType": "uint256",
          "name": "",
          "type": "uint256"
        }
      ],
      "stateMutability": "view",
      "type": "function"
    },
    {
      "inputs": [
        {
          "internalType": "address",
          "name": "",
          "type": "address"
        }
      ],
      "name": "saloonPremiumProfit",
      "outputs": [
        {
          "internalType": "uint256",
          "name": "",
          "type": "uint256"
        }
      ],
      "stateMutability": "view",
      "type": "function"
    },
    {
      "inputs": [
        {
          "internalType": "uint256",
          "name": "_pid",
          "type": "uint256"
        },
        {
          "internalType": "uint256",
          "name": "_amount",
          "type": "uint256"
        }
      ],
      "name": "scheduleProjectDepositWithdrawal",
      "outputs": [
        {
          "internalType": "bool",
          "name": "",
          "type": "bool"
        }
      ],
      "stateMutability": "nonpayable",
      "type": "function"
    },
    {
      "inputs": [
        {
          "internalType": "uint256",
          "name": "_pid",
          "type": "uint256"
        },
        {
          "internalType": "uint256",
          "name": "_amount",
          "type": "uint256"
        }
      ],
      "name": "scheduleUnstake",
      "outputs": [
        {
          "internalType": "bool",
          "name": "",
          "type": "bool"
        }
      ],
      "stateMutability": "nonpayable",
      "type": "function"
    },
    {
      "inputs": [
        {
          "internalType": "uint256",
          "name": "_stake",
          "type": "uint256"
        },
        {
          "internalType": "uint256",
          "name": "_poolID",
          "type": "uint256"
        }
      ],
      "name": "seeEffectiveStakingAPY",
      "outputs": [],
      "stateMutability": "view",
      "type": "function"
    },
    {
      "inputs": [
        {
          "internalType": "uint256",
          "name": "_pid",
          "type": "uint256"
        },
        {
          "internalType": "uint256",
          "name": "_poolCap",
          "type": "uint256"
        },
        {
          "internalType": "uint16",
          "name": "_apy",
          "type": "uint16"
        },
        {
          "internalType": "uint256",
          "name": "_deposit",
          "type": "uint256"
        }
      ],
      "name": "setAPYandPoolCapAndDeposit",
      "outputs": [],
      "stateMutability": "nonpayable",
      "type": "function"
    },
    {
      "inputs": [
        {
          "internalType": "uint256",
          "name": "_pid",
          "type": "uint256"
        },
        {
          "internalType": "address",
          "name": "_user",
          "type": "address"
        },
        {
          "internalType": "uint256",
          "name": "_amount",
          "type": "uint256"
        }
      ],
      "name": "stake",
      "outputs": [
        {
          "internalType": "bool",
          "name": "",
          "type": "bool"
        }
      ],
      "stateMutability": "nonpayable",
      "type": "function"
    },
    {
      "inputs": [],
      "name": "symbol",
      "outputs": [
        {
          "internalType": "string",
          "name": "",
          "type": "string"
        }
      ],
      "stateMutability": "view",
      "type": "function"
    },
    {
      "inputs": [
        {
          "internalType": "address",
          "name": "",
          "type": "address"
        }
      ],
      "name": "tokenWhitelist",
      "outputs": [
        {
          "internalType": "bool",
          "name": "",
          "type": "bool"
        }
      ],
      "stateMutability": "view",
      "type": "function"
    },
    {
      "inputs": [],
      "name": "totalSupply",
      "outputs": [
        {
          "internalType": "uint256",
          "name": "",
          "type": "uint256"
        }
      ],
      "stateMutability": "view",
      "type": "function"
    },
    {
      "inputs": [
        {
          "internalType": "address",
          "name": "to",
          "type": "address"
        },
        {
          "internalType": "uint256",
          "name": "amount",
          "type": "uint256"
        }
      ],
      "name": "transfer",
      "outputs": [
        {
          "internalType": "bool",
          "name": "",
          "type": "bool"
        }
      ],
      "stateMutability": "nonpayable",
      "type": "function"
    },
    {
      "inputs": [
        {
          "internalType": "address",
          "name": "from",
          "type": "address"
        },
        {
          "internalType": "address",
          "name": "to",
          "type": "address"
        },
        {
          "internalType": "uint256",
          "name": "amount",
          "type": "uint256"
        }
      ],
      "name": "transferFrom",
      "outputs": [
        {
          "internalType": "bool",
          "name": "",
          "type": "bool"
        }
      ],
      "stateMutability": "nonpayable",
      "type": "function"
    },
    {
      "inputs": [
        {
          "internalType": "address",
          "name": "newOwner",
          "type": "address"
        }
      ],
      "name": "transferOwnership",
      "outputs": [],
      "stateMutability": "nonpayable",
      "type": "function"
    },
    {
      "inputs": [
        {
          "internalType": "uint256",
          "name": "_pid",
          "type": "uint256"
        },
        {
          "internalType": "uint256",
          "name": "_amount",
          "type": "uint256"
        },
        {
          "internalType": "bool",
          "name": "_shouldHarvest",
          "type": "bool"
        }
      ],
      "name": "unstake",
      "outputs": [
        {
          "internalType": "bool",
          "name": "",
          "type": "bool"
        }
      ],
      "stateMutability": "nonpayable",
      "type": "function"
    },
    {
      "inputs": [
        {
          "internalType": "address",
          "name": "_token",
          "type": "address"
        },
        {
          "internalType": "bool",
          "name": "_whitelisted",
          "type": "bool"
        }
      ],
      "name": "updateTokenWhitelist",
      "outputs": [
        {
          "internalType": "bool",
          "name": "",
          "type": "bool"
        }
      ],
      "stateMutability": "nonpayable",
      "type": "function"
    },
    {
      "inputs": [
        {
          "internalType": "address",
          "name": "newImplementation",
          "type": "address"
        }
      ],
      "name": "upgradeTo",
      "outputs": [],
      "stateMutability": "nonpayable",
      "type": "function"
    },
    {
      "inputs": [
        {
          "internalType": "address",
          "name": "newImplementation",
          "type": "address"
        },
        {
          "internalType": "bytes",
          "name": "data",
          "type": "bytes"
        }
      ],
      "name": "upgradeToAndCall",
      "outputs": [],
      "stateMutability": "payable",
      "type": "function"
    },
    {
      "inputs": [
        {
          "internalType": "uint256",
          "name": "",
          "type": "uint256"
        },
        {
          "internalType": "address",
          "name": "",
          "type": "address"
        }
      ],
      "name": "userInfo",
      "outputs": [
        {
          "internalType": "uint256",
          "name": "amount",
          "type": "uint256"
        },
        {
          "internalType": "uint256",
          "name": "unclaimed",
          "type": "uint256"
        },
        {
          "internalType": "uint256",
          "name": "lastRewardTime",
          "type": "uint256"
        },
        {
          "internalType": "uint256",
          "name": "timelock",
          "type": "uint256"
        },
        {
          "internalType": "uint256",
          "name": "timeLimit",
          "type": "uint256"
        },
        {
          "internalType": "uint256",
          "name": "unstakeScheduledAmount",
          "type": "uint256"
        }
      ],
      "stateMutability": "view",
      "type": "function"
    },
    {
      "inputs": [
        {
          "internalType": "uint256",
          "name": "_pid",
          "type": "uint256"
        }
      ],
      "name": "viewBountyBalance",
      "outputs": [
        {
          "internalType": "uint256",
          "name": "",
          "type": "uint256"
        }
      ],
      "stateMutability": "view",
      "type": "function"
    },
    {
      "inputs": [
        {
          "internalType": "uint256",
          "name": "_pid",
          "type": "uint256"
        }
      ],
      "name": "viewBountyInfo",
      "outputs": [
        {
          "internalType": "uint256",
          "name": "payout",
          "type": "uint256"
        },
        {
          "internalType": "uint256",
          "name": "apy",
          "type": "uint256"
        },
        {
          "internalType": "uint256",
          "name": "staked",
          "type": "uint256"
        },
        {
          "internalType": "uint256",
          "name": "poolCap",
          "type": "uint256"
        }
      ],
      "stateMutability": "view",
      "type": "function"
    },
    {
      "inputs": [
        {
          "internalType": "uint256",
          "name": "_pid",
          "type": "uint256"
        }
      ],
      "name": "viewHackerPayout",
      "outputs": [
        {
          "internalType": "uint256",
          "name": "",
          "type": "uint256"
        }
      ],
      "stateMutability": "view",
      "type": "function"
    },
    {
      "inputs": [
        {
          "internalType": "uint256",
          "name": "_pid",
          "type": "uint256"
        }
      ],
      "name": "viewPoolAPY",
      "outputs": [
        {
          "internalType": "uint256",
          "name": "",
          "type": "uint256"
        }
      ],
      "stateMutability": "view",
      "type": "function"
    },
    {
      "inputs": [
        {
          "internalType": "uint256",
          "name": "_pid",
          "type": "uint256"
        }
      ],
      "name": "viewPoolCap",
      "outputs": [
        {
          "internalType": "uint256",
          "name": "",
          "type": "uint256"
        }
      ],
      "stateMutability": "view",
      "type": "function"
    },
    {
      "inputs": [
        {
          "internalType": "uint256",
          "name": "_pid",
          "type": "uint256"
        }
      ],
      "name": "viewPoolPremiumInfo",
      "outputs": [
        {
          "internalType": "uint256",
          "name": "requiredPremiumBalancePerPeriod",
          "type": "uint256"
        },
        {
          "internalType": "uint256",
          "name": "premiumBalance",
          "type": "uint256"
        },
        {
          "internalType": "uint256",
          "name": "premiumAvailable",
          "type": "uint256"
        }
      ],
      "stateMutability": "view",
      "type": "function"
    },
    {
      "inputs": [
        {
          "internalType": "uint256",
          "name": "_pid",
          "type": "uint256"
        }
      ],
      "name": "viewPoolTimelockInfo",
      "outputs": [
        {
          "internalType": "uint256",
          "name": "timelock",
          "type": "uint256"
        },
        {
          "internalType": "uint256",
          "name": "timeLimit",
          "type": "uint256"
        },
        {
          "internalType": "uint256",
          "name": "withdrawalScheduledAmount",
          "type": "uint256"
        }
      ],
      "stateMutability": "view",
      "type": "function"
    },
    {
      "inputs": [
        {
          "internalType": "address",
          "name": "_token",
          "type": "address"
        }
      ],
      "name": "viewSaloonProfitBalance",
      "outputs": [
        {
          "internalType": "uint256",
          "name": "totalProfit",
          "type": "uint256"
        },
        {
          "internalType": "uint256",
          "name": "bountyProfit",
          "type": "uint256"
        },
        {
          "internalType": "uint256",
          "name": "premiumProfit",
          "type": "uint256"
        }
      ],
      "stateMutability": "view",
      "type": "function"
    },
    {
      "inputs": [
        {
          "internalType": "uint256",
          "name": "_pid",
          "type": "uint256"
        }
      ],
      "name": "viewTotalStaked",
      "outputs": [
        {
          "internalType": "uint256",
          "name": "",
          "type": "uint256"
        }
      ],
      "stateMutability": "view",
      "type": "function"
    },
    {
      "inputs": [
        {
          "internalType": "uint256",
          "name": "_pid",
          "type": "uint256"
        },
        {
          "internalType": "address",
          "name": "_user",
          "type": "address"
        }
      ],
      "name": "viewUserInfo",
      "outputs": [
        {
          "internalType": "uint256",
          "name": "amount",
          "type": "uint256"
        },
        {
          "internalType": "uint256",
          "name": "actualPending",
          "type": "uint256"
        },
        {
          "internalType": "uint256",
          "name": "unstakeScheduledAmount",
          "type": "uint256"
        },
        {
          "internalType": "uint256",
          "name": "timelock",
          "type": "uint256"
        }
      ],
      "stateMutability": "view",
      "type": "function"
    },
    {
      "inputs": [
        {
          "internalType": "uint256",
          "name": "_pid",
          "type": "uint256"
        },
        {
          "internalType": "address",
          "name": "_user",
          "type": "address"
        }
      ],
      "name": "viewUserUnclaimed",
      "outputs": [
        {
          "internalType": "uint256",
          "name": "unclaimed",
          "type": "uint256"
        }
      ],
      "stateMutability": "view",
      "type": "function"
    },
    {
      "inputs": [
        {
          "internalType": "uint256",
          "name": "_pid",
          "type": "uint256"
        }
      ],
      "name": "windDownBounty",
      "outputs": [
        {
          "internalType": "bool",
          "name": "",
          "type": "bool"
        }
      ],
      "stateMutability": "nonpayable",
      "type": "function"
    }
  ],
  "bytecode": {
    "object": "0x60a0604052306080523480156200001557600080fd5b50600160ca55600054610100900460ff16158080156200003c5750600054600160ff909116105b806200006c575062000059306200019760201b6200418b1760201c565b1580156200006c575060005460ff166001145b620000d55760405162461bcd60e51b815260206004820152602e60248201527f496e697469616c697a61626c653a20636f6e747261637420697320616c72656160448201526d191e481a5b9a5d1a585b1a5e995960921b60648201526084015b60405180910390fd5b6000805460ff191660011790558015620000f9576000805461ff0019166101001790555b620001496040518060400160405280600b81526020016a2137bab73a3caa37b5b2b760a91b8152506040518060400160405280600381526020016210951560ea1b815250620001a660201b60201c565b801562000190576000805461ff0019169055604051600181527f7f26b83ff96e1f2b6a682f133852f6798a09c465da95921460cefb38474024989060200160405180910390a15b5062000400565b6001600160a01b03163b151590565b600054610100900460ff16620002025760405162461bcd60e51b815260206004820152602b60248201526000805160206200636483398151915260448201526a6e697469616c697a696e6760a81b6064820152608401620000cc565b6200020e828262000212565b5050565b600054610100900460ff166200026e5760405162461bcd60e51b815260206004820152602b60248201526000805160206200636483398151915260448201526a6e697469616c697a696e6760a81b6064820152608401620000cc565b60ce6200027c838262000334565b5060cf6200028b828262000334565b505050565b634e487b7160e01b600052604160045260246000fd5b600181811c90821680620002bb57607f821691505b602082108103620002dc57634e487b7160e01b600052602260045260246000fd5b50919050565b601f8211156200028b57600081815260208120601f850160051c810160208610156200030b5750805b601f850160051c820191505b818110156200032c5782815560010162000317565b505050505050565b81516001600160401b0381111562000350576200035062000290565b6200036881620003618454620002a6565b84620002e2565b602080601f831160018114620003a05760008415620003875750858301515b600019600386901b1c1916600185901b1785556200032c565b600085815260208120601f198616915b82811015620003d157888601518255948401946001909101908401620003b0565b5085821015620003f05787850151600019600388901b60f8161c191681555b5050505050600190811b01905550565b608051615f2c6200043860003960008181610f4a01528181610f930152818161186d015281816118ad015261193c0152615f2c6000f3fe6080604052600436106103765760003560e01c80638129fc1c116101d1578063ac30b85611610102578063dbdd6957116100a0578063e5e97c651161006f578063e5e97c6514610b27578063ecd7fbed14610b47578063f2fde38b14610b67578063f47ec3be14610b8757600080fd5b8063dbdd695714610a85578063dd62ed3e14610aa5578063de1b75ec14610ac5578063e45abd0f14610afa57600080fd5b8063bb7019c1116100dc578063bb7019c1146109f8578063ca00614814610a18578063cee6b06914610a45578063cf9564b914610a6557600080fd5b8063ac30b856146109a3578063b1a2d16f146109c3578063b842e87f146109e357600080fd5b8063962ca4961161016f578063a27f921311610149578063a27f921314610923578063a457c2d714610943578063a754ecb014610963578063a9059cbb1461098357600080fd5b8063962ca496146108ce578063983c1ce0146108e35780639f224f351461090357600080fd5b80638dbb1e3a116101ab5780638dbb1e3a146107f057806391635b4e1461081057806393f1a40b1461083057806395d89b41146108b957600080fd5b80638129fc1c14610789578063861e5f661461079e5780638da5cb5b146107be57600080fd5b806348e43af4116102ab5780636ac6d81211610249578063718c7eef11610223578063718c7eef146106f8578063753d75631461071857806379b91d6914610749578063804fd5901461076957600080fd5b80636ac6d812146106825780636e9c931c146106a257806370a08231146106c257600080fd5b806352d1902d1161028557806352d1902d146105e75780635669cbef146105fc57806357a86d3a1461061c5780635e3b748b1461063c57600080fd5b806348e43af41461057a578063492849fe146105b55780634f1ef286146105d457600080fd5b80632dbe051e1161031857806339509351116102f257806339509351146104da57806339679ff4146104fa5780633ac6ad7b1461051a57806340ef28681461053a57600080fd5b80632dbe051e1461047c578063313ce5671461049c5780633659cfe6146104b857600080fd5b80631526fe27116103545780631526fe27146103f557806318160ddd1461042757806323b872dd1461043c578063258d6d4a1461045c57600080fd5b806306fdde031461037b578063081e3eda146103a6578063095ea7b3146103c5575b600080fd5b34801561038757600080fd5b50610390610ba7565b60405161039d9190615522565b60405180910390f35b3480156103b257600080fd5b5060fd545b60405190815260200161039d565b3480156103d157600080fd5b506103e56103e036600461554c565b610c39565b604051901515815260200161039d565b34801561040157600080fd5b50610415610410366004615576565b610c53565b60405161039d9695949392919061558f565b34801561043357600080fd5b5060cd546103b7565b34801561044857600080fd5b506103e56104573660046156a3565b610e18565b34801561046857600080fd5b506103b76104773660046156df565b610e3e565b34801561048857600080fd5b506103e5610497366004615576565b610f26565b3480156104a857600080fd5b506040516012815260200161039d565b3480156104c457600080fd5b506104d86104d3366004615701565b610f40565b005b3480156104e657600080fd5b506103e56104f536600461554c565b611028565b34801561050657600080fd5b506103b7610515366004615576565b61104a565b34801561052657600080fd5b506103e561053536600461571c565b61128b565b34801561054657600080fd5b5061055a610555366004615576565b611722565b60408051948552602085019390935291830152606082015260800161039d565b34801561058657600080fd5b5061059a610595366004615741565b61175b565b6040805193845260208401929092529082015260600161039d565b3480156105c157600080fd5b506104d86105d03660046156df565b5050565b6104d86105e23660046157f9565b611863565b3480156105f357600080fd5b506103b761192f565b34801561060857600080fd5b506103e56106173660046156df565b6119e2565b34801561062857600080fd5b506104d86106373660046156df565b611b06565b34801561064857600080fd5b506103b7610657366004615741565b6000918252610100602090815260408084206001600160a01b03909316845291905290206001015490565b34801561068e57600080fd5b506103b761069d366004615576565b611be3565b3480156106ae57600080fd5b506103e56106bd36600461571c565b611e31565b3480156106ce57600080fd5b506103b76106dd366004615701565b6001600160a01b0316600090815260cb602052604090205490565b34801561070457600080fd5b5061059a610713366004615701565b6122a0565b34801561072457600080fd5b506103e5610733366004615701565b6101016020526000908152604090205460ff1681565b34801561075557600080fd5b506103e5610764366004615869565b6122d6565b34801561077557600080fd5b506103b76107843660046158a2565b6125b4565b34801561079557600080fd5b506104d861292f565b3480156107aa57600080fd5b506103b76107b9366004615576565b612a3f565b3480156107ca57600080fd5b506033546001600160a01b03165b6040516001600160a01b03909116815260200161039d565b3480156107fc57600080fd5b506103b761080b3660046156df565b612cb0565b34801561081c57600080fd5b506103e561082b3660046156df565b612cbc565b34801561083c57600080fd5b5061088c61084b366004615741565b610100602090815260009283526040808420909152908252902080546001820154600283015460038401546004850154600590950154939492939192909186565b604080519687526020870195909552938501929092526060840152608083015260a082015260c00161039d565b3480156108c557600080fd5b50610390612d96565b3480156108da57600080fd5b506103b7612da5565b3480156108ef57600080fd5b506103e56108fe3660046156df565b612db7565b34801561090f57600080fd5b506107d861091e366004615576565b612f11565b34801561092f57600080fd5b506103b761093e366004615576565b612f3c565b34801561094f57600080fd5b506103e561095e36600461554c565b613180565b34801561096f57600080fd5b5061055a61097e366004615741565b613206565b34801561098f57600080fd5b506103e561099e36600461554c565b613257565b3480156109af57600080fd5b5061059a6109be366004615576565b613265565b3480156109cf57600080fd5b5061059a6109de366004615576565b6134bb565b3480156109ef57600080fd5b506104d8613711565b348015610a0457600080fd5b506103e5610a13366004615576565b613791565b348015610a2457600080fd5b506103b7610a33366004615701565b60ff6020526000908152604090205481565b348015610a5157600080fd5b506104d8610a60366004615914565b613816565b348015610a7157600080fd5b506103e5610a8036600461595a565b613aad565b348015610a9157600080fd5b506103b7610aa0366004615576565b613b19565b348015610ab157600080fd5b506103b7610ac036600461595a565b613d5a565b348015610ad157600080fd5b50610ae5610ae03660046156df565b613d85565b6040805192835260208301919091520161039d565b348015610b0657600080fd5b506103b7610b15366004615701565b60fe6020526000908152604090205481565b348015610b3357600080fd5b506103e5610b42366004615984565b613de1565b348015610b5357600080fd5b506103e5610b62366004615701565b614016565b348015610b7357600080fd5b506104d8610b82366004615701565b6140de565b348015610b9357600080fd5b506104d8610ba2366004615576565b61416d565b606060ce8054610bb6906159bb565b80601f0160208091040260200160405190810160405280929190818152602001828054610be2906159bb565b8015610c2f5780601f10610c0457610100808354040283529160200191610c2f565b820191906000526020600020905b815481529060010190602001808311610c1257829003601f168201915b5050505050905090565b600033610c4781858561419a565b60019150505b92915050565b60fd8181548110610c6357600080fd5b60009182526020918290206040805161012081018252601390930290910180546001600160a01b03808216855260ff600160a01b8304169585019590955261ffff600160a81b909104169183019190915260018101549092166060820152600282018054929350909183916080840191610cdc906159bb565b80601f0160208091040260200160405190810160405280929190818152602001828054610d08906159bb565b8015610d555780601f10610d2a57610100808354040283529160200191610d55565b820191906000526020600020905b815481529060010190602001808311610d3857829003601f168201915b5050509183525050600382015460208083019190915260048301546040808401919091526005840154606080850191909152600690940154608093840152805180850182526007870154815260088701548184015260098701548183015281519384018252600a8701548452600b87015484840152600c87015484830152600d87015460ff9081161515958501959095528151808301909252600e8701548252600f87015492820192909252601186015460129096015494959194929390921686565b600033610e268582856142be565b610e31858585614338565b60019150505b9392505050565b60008060fd8381548110610e5457610e546159f5565b600091825260208220600e60139092020101549150610e738486615a21565b90506000610e82826021615a34565b610e9490674563918244f40000615a21565b90506000610ea3846021615a34565b610eb590674563918244f40000615a21565b90506000610eca610ec5846144e3565b61452c565b90506000610eda610ec5846144e3565b90506000610f18610eeb60216144e3565b610f12610ef88686614564565b610f0c6a295be96e640669720000006144e3565b90614573565b90614582565b9a9950505050505050505050565b6000610f3061459a565b610f3b8260006145f4565b919050565b6001600160a01b037f0000000000000000000000000000000000000000000000000000000000000000163003610f915760405162461bcd60e51b8152600401610f8890615a4b565b60405180910390fd5b7f00000000000000000000000000000000000000000000000000000000000000006001600160a01b0316610fda600080516020615eb0833981519152546001600160a01b031690565b6001600160a01b0316146110005760405162461bcd60e51b8152600401610f8890615a97565b6110098161472a565b6040805160008082526020820190925261102591839190614732565b50565b600033610c4781858561103b8383613d5a565b6110459190615a21565b61419a565b60008060fd8381548110611060576110606159f5565b6000918252602090912060408051610200810190915260139092020180546001600160a01b0380821660e08501908152600160a01b830460ff16610100860152600160a81b90920461ffff166101208501526001830154166101408401526002820180548492918491610160850191906110d9906159bb565b80601f0160208091040260200160405190810160405280929190818152602001828054611105906159bb565b80156111525780601f1061112757610100808354040283529160200191611152565b820191906000526020600020905b81548152906001019060200180831161113557829003601f168201915b505050918352505060038201546020808301919091526004830154604080840191909152600584015460608085019190915260069094015460809384015293855283518084018552600787015481526008870154818301526009870154818601528582015283518083018552600a8701548152600b87015481830152600c87015481860152600d87015460ff161515818501528585015283518085018552600e8701548152600f87015481830152928501929092526010850180548451818502810185019095528085529490910193909183018282801561125c57602002820191906000526020600020905b81546001600160a01b0316815260019091019060200180831161123e575b50505091835250506011820154602082015260129091015460ff1615156040909101525160c001519392505050565b600061129561459a565b600060fd85815481106112aa576112aa6159f5565b600091825260208220600560139092020190810154600382015491935091906112d39083615a21565b9050808286116114745782860361137757601084015460005b8181101561135957600086601001828154811061130b5761130b6159f5565b60009182526020808320909101548d8352610100825260408084206001600160a01b03909216808552919092529082209092509061134c908d9084906148a2565b60009055506001016112ec565b5060006005860181905561137190601087019061534b565b50611621565b60008361138c670de0b6b3a764000089615a34565b6113969190615af9565b601086015490915060005b8181101561146c5760008760100182815481106113c0576113c06159f5565b60009182526020808320909101548e8352610100825260408084206001600160a01b039092168085529190925290822090925090611401908e9084906148a2565b6000670de0b6b3a764000086836000015461141c9190615a34565b6114269190615af9565b90508082600001600082825461143c9190615b1b565b909155505060058a018054829190600090611458908490615b1b565b9091555050600190930192506113a1915050565b505050611621565b828611801561148257508186105b1561154657601084015460005b818110156114fc5760008660100182815481106114ae576114ae6159f5565b60009182526020808320909101548d8352610100825260408084206001600160a01b0390921680855291909252908220909250906114ef908d9084906148a2565b600090555060010161148f565b5060006005860181905561151490601087019061534b565b60006115208585615b1b565b9050808660000160030160008282546115399190615b1b565b9091555061162192505050565b8186036115e757601084015460005b818110156115c2576000866010018281548110611574576115746159f5565b60009182526020808320909101548d8352610100825260408084206001600160a01b0390921680855291909252908220909250906115b5908d9084906148a2565b6000905550600101611555565b506000600586018190556115da90601087019061534b565b5060006003850155611621565b60405162461bcd60e51b815260206004820152600f60248201526e082dadeeadce840e8dede40d0d2ced608b1b6044820152606401610f88565b60006127106116326103e889615a34565b61163c9190615af9565b9050600061164a8289615b1b565b86546001600160a01b0316600090815260fe6020526040812080549293508492909190611678908490615a21565b90915550508554611693906001600160a01b03168a83614a04565b50600386015460058701546000916116aa91615a21565b87546040518b81529192506001600160a01b0390811691908c169042907fc351e6e0f377ec1a399ec84224a83d6a4b9f3cd9a5530e5c652d0b11c2f8dae29060200160405180910390a480848c600080516020615e9083398151915260405160405180910390a45060019a9950505050505050505050565b60008060008061173185612a3f565b935061173c85613b19565b915061174785612f3c565b92506117528561104a565b90509193509193565b60008060008060fd8681548110611774576117746159f5565b60009182526020808320898452610100825260408085206001600160a01b038b168652909252908320601392909202016005810154601182015491945091929081036117c057426117c6565b83601101545b905060006117d8846002015483612cb0565b855485549192506301e133809183916127109161180091600160a81b900461ffff1690615a34565b61180a9190615af9565b6118149190615a34565b61181e9190615af9565b95508360010154866118309190615a21565b97506127106118416103e882615b1b565b61184b908a615a34565b6118559190615af9565b965050505050509250925092565b6001600160a01b037f00000000000000000000000000000000000000000000000000000000000000001630036118ab5760405162461bcd60e51b8152600401610f8890615a4b565b7f00000000000000000000000000000000000000000000000000000000000000006001600160a01b03166118f4600080516020615eb0833981519152546001600160a01b031690565b6001600160a01b03161461191a5760405162461bcd60e51b8152600401610f8890615a97565b6119238261472a565b6105d082826001614732565b6000306001600160a01b037f000000000000000000000000000000000000000000000000000000000000000016146119cf5760405162461bcd60e51b815260206004820152603860248201527f555550535570677261646561626c653a206d757374206e6f742062652063616c60448201527f6c6564207468726f7567682064656c656761746563616c6c00000000000000006064820152608401610f88565b50600080516020615eb083398151915290565b60008060fd84815481106119f8576119f86159f5565b906000526020600020906013020190508281600001600301541015611a5f5760405162461bcd60e51b815260206004820152601a60248201527f416d6f756e7420626967676572207468616e206465706f7369740000000000006044820152606401610f88565b60018101546001600160a01b03163314611a8b5760405162461bcd60e51b8152600401610f8890615b2e565b611a9862093a8042615a21565b600a820155611aaa62093a8042615a21565b611ab7906203f480615a21565b600b820155600c8101839055600d8101805460ff19169055604051839085907fb3b9c925de3673837b40c6b4d4463a8f88dc821cd27e07f1ff6bf6abf96413a590600090a35060019392505050565b600060fd8381548110611b1b57611b1b6159f5565b6000918252602090912060139091020160018101549091506001600160a01b03163314611b5a5760405162461bcd60e51b8152600401610f8890615b2e565b60038101546005820154600091611b7091615a21565b8254909150611b8a906001600160a01b0316333086614a6a565b5082826000016003016000828254611ba29190615a21565b909155505060038201546005830154600091611bbd91615a21565b9050808286600080516020615e9083398151915260405160405180910390a45050505050565b60008060fd8381548110611bf957611bf96159f5565b6000918252602090912060408051610200810190915260139092020180546001600160a01b0380821660e08501908152600160a01b830460ff16610100860152600160a81b90920461ffff16610120850152600183015416610140840152600282018054849291849161016085019190611c72906159bb565b80601f0160208091040260200160405190810160405280929190818152602001828054611c9e906159bb565b8015611ceb5780601f10611cc057610100808354040283529160200191611ceb565b820191906000526020600020905b815481529060010190602001808311611cce57829003601f168201915b505050918352505060038201546020808301919091526004830154604080840191909152600584015460608085019190915260069094015460809384015293855283518084018552600787015481526008870154818301526009870154818601528582015283518083018552600a8701548152600b87015481830152600c87015481860152600d87015460ff161515818501528585015283518085018552600e8701548152600f870154818301529285019290925260108501805484518185028101850190955280855294909101939091830182828015611df557602002820191906000526020600020905b81546001600160a01b03168152600190910190602001808311611dd7575b50505091835250506011820154602082015260129091015460ff161515604090910152805160a081015160e090910151919250610e3791615a21565b6000611e3b614aad565b83600060fd8281548110611e5157611e516159f5565b6000918252602090912060408051610200810190915260139092020180546001600160a01b0380821660e08501908152600160a01b830460ff16610100860152600160a81b90920461ffff16610120850152600183015416610140840152600282018054849291849161016085019190611eca906159bb565b80601f0160208091040260200160405190810160405280929190818152602001828054611ef6906159bb565b8015611f435780601f10611f1857610100808354040283529160200191611f43565b820191906000526020600020905b815481529060010190602001808311611f2657829003601f168201915b505050918352505060038201546020808301919091526004830154604080840191909152600584015460608085019190915260069094015460809384015293855283518084018552600787015481526008870154818301526009870154818601528582015283518083018552600a8701548152600b87015481830152600c87015481860152600d87015460ff161515818501528585015283518085018552600e8701548152600f87015481830152928501929092526010850180548451818502810185019095528085529490910193909183018282801561204d57602002820191906000526020600020905b81546001600160a01b0316815260019091019060200180831161202f575b50505091835250506011820154602082015260129091015460ff16151560409091015260c08101519091506120b65760405162461bcd60e51b815260206004820152600f60248201526e706f6f6c206e6f742061637469766560881b6044820152606401610f88565b600084116120c357600080fd5b600060fd87815481106120d8576120d86159f5565b600091825260208083208a8452610100825260408085206001600160a01b038c168652909252908320601392909202016003810154600582015491945091929161212191615a21565b905061212f898960016148a2565b815460000361216957601083018054600181018255600091825260209091200180546001600160a01b0319166001600160a01b038a161790555b8254612180906001600160a01b031633308a614a6a565b50868260000160008282546121959190615a21565b90915550506005830180548891906000906121b1908490615a21565b90915550506004830154158015906121d157506004830154600584015411155b6122135760405162461bcd60e51b8152602060048201526013602482015272115e18d959591959081c1bdbdb081b1a5b5a5d606a1b6044820152606401610f88565b88886001600160a01b03167f1449c6dd7851abc30abf37f57715f492010519147cc2652fbc38202c18a6ee908960405161224f91815260200190565b60405180910390a36003830154600584015460009161226d91615a21565b905080828b600080516020615e9083398151915260405160405180910390a460019650505050505050610e37600160ca55565b6001600160a01b038116600090815260fe602090815260408083205460ff9092528220546122ce8282615a21565b949193509150565b60006122e0614aad565b600060fd85815481106122f5576122f56159f5565b600091825260208083208884526101008252604080852033865290925292208054601390920290920192508511156123645760405162461bcd60e51b81526020600482015260126024820152711dda5d1a191c985dce881b9bdd0819dbdbd960721b6044820152606401610f88565b42816003015410801561237a5750428160040154115b801561238a575084816005015410155b80156123995750600381015415155b6123b55760405162461bcd60e51b8152600401610f8890615b56565b6000600380830182905583015460058401546123d19190615a21565b90506123de8733876148a2565b851561241e5781546123f09087614b06565b825560058301546124019087614b06565b6005840155825461241c906001600160a01b03163388614a04565b505b815460000361253657601083015460005b8181101561253357336001600160a01b0316856010018281548110612456576124566159f5565b6000918252602090912001546001600160a01b03160361252b57600060108601612481600185615b1b565b81548110612491576124916159f5565b6000918252602090912001546010870180546001600160a01b0390921692508291849081106124c2576124c26159f5565b9060005260206000200160006101000a8154816001600160a01b0302191690836001600160a01b031602179055508560100180548061250357612503615b9f565b600082815260209020810160001990810180546001600160a01b031916905501905550612533565b60010161242f565b50505b604051868152879033907f7fc4727e062e336010f2c282598ef5f14facb3de68cf8195c2f23e1454b2b74e9060200160405180910390a36003830154600584015460009161258391615a21565b9050808289600080516020615e9083398151915260405160405180910390a46001945050505050610e37600160ca55565b60006125be61459a565b6001600160a01b0384166000908152610101602052604090205460ff1661261f5760405162461bcd60e51b81526020600482015260156024820152741d1bdad95b881b9bdd081dda1a5d195b1a5cdd1959605a1b6044820152606401610f88565b60408051600481526024810182526020810180516001600160e01b031663313ce56760e01b17905290516000916001600160a01b038716916126619190615bb5565b600060405180830381855afa9150503d806000811461269c576040519150601f19603f3d011682016040523d82523d6000602084013e6126a1565b606091505b509150506000818060200190518101906126bb9190615bd1565b90506126c5615369565b80516001600160a01b03808916909152815160ff8085166020928301528351898416606091820152845160809081018a90528551600060a091820181905287516040908101829052885160c0908101839052895161010001839052895160e001839052818a0180518490528051890184905280518301849052518601839052890182905291880181905260fd805460018101825591528751805160139092027f9346ac6dd7de6b96975fec380d4d994c4c12e6a8897544f22915316cc6cca28081018054988301519483015161ffff16600160a81b0261ffff60a81b1995909816600160a01b026001600160a81b0319909916938a16939093179790971792909216949094178455918201517f9346ac6dd7de6b96975fec380d4d994c4c12e6a8897544f22915316cc6cca28185018054919096166001600160a01b03199190911617909455928301518493919283917f9346ac6dd7de6b96975fec380d4d994c4c12e6a8897544f22915316cc6cca282909101906128449082615c42565b5060a0820151600382015560c0820151600482015560e0820151600582015561010090910151600690910155602082810151805160078401558082015160088401556040908101516009840155808401518051600a85015580830151600b85015590810151600c840155606090810151600d8401805460ff19169115159190911790558301518051600e840155810151600f830155608083015180516128f09260108501920190615458565b5060a0820151601182015560c0909101516012909101805460ff191691151591909117905560fd5461292490600190615b1b565b979650505050505050565b600054610100900460ff161580801561294f5750600054600160ff909116105b806129695750303b158015612969575060005460ff166001145b6129cc5760405162461bcd60e51b815260206004820152602e60248201527f496e697469616c697a61626c653a20636f6e747261637420697320616c72656160448201526d191e481a5b9a5d1a585b1a5e995960921b6064820152608401610f88565b6000805460ff1916600117905580156129ef576000805461ff0019166101001790555b6129f7614b12565b8015611025576000805461ff0019169055604051600181527f7f26b83ff96e1f2b6a682f133852f6798a09c465da95921460cefb38474024989060200160405180910390a150565b60008060fd8381548110612a5557612a556159f5565b6000918252602090912060408051610200810190915260139092020180546001600160a01b0380821660e08501908152600160a01b830460ff16610100860152600160a81b90920461ffff16610120850152600183015416610140840152600282018054849291849161016085019190612ace906159bb565b80601f0160208091040260200160405190810160405280929190818152602001828054612afa906159bb565b8015612b475780601f10612b1c57610100808354040283529160200191612b47565b820191906000526020600020905b815481529060010190602001808311612b2a57829003601f168201915b505050918352505060038201546020808301919091526004830154604080840191909152600584015460608085019190915260069094015460809384015293855283518084018552600787015481526008870154818301526009870154818601528582015283518083018552600a8701548152600b87015481830152600c87015481860152600d87015460ff161515818501528585015283518085018552600e8701548152600f870154818301529285019290925260108501805484518185028101850190955280855294909101939091830182828015612c5157602002820191906000526020600020905b81546001600160a01b03168152600190910190602001808311612c33575b50505091835250506011820154602082015260129091015460ff1615156040909101529050612710612c856103e882615b1b565b825160a081015160e090910151612c9c9190615a21565b612ca69190615a34565b610e379190615af9565b6000610e378284614b06565b60008281526101006020908152604080832033845290915281208054831115612d275760405162461bcd60e51b815260206004820152601a60248201527f416d6f756e7420626967676572207468616e206465706f7369740000000000006044820152606401610f88565b612d3462093a8042615a21565b6003820155612d4662093a8042615a21565b612d53906203f480615a21565b600482015560058101839055604051839085907fb3b9c925de3673837b40c6b4d4463a8f88dc821cd27e07f1ff6bf6abf96413a590600090a35060019392505050565b606060cf8054610bb6906159bb565b600080612db181614b41565b91505090565b60008060fd8481548110612dcd57612dcd6159f5565b6000918252602090912060139091020160018101549091506001600160a01b03163314612e0c5760405162461bcd60e51b8152600401610f8890615b2e565b600a81015442118015612e225750600b81015442105b8015612e335750600d81015460ff16155b8015612e435750600c8101548311155b8015612e525750600a81015415155b612e6e5760405162461bcd60e51b8152600401610f8890615b56565b600d8101805460ff1916600117905560038101546005820154600091612e9391615a21565b905083826000016003016000828254612eac9190615b1b565b909155505060018201548254612ecf916001600160a01b03918216911686614a04565b5060038201546005830154600091612ee691615a21565b9050808287600080516020615e9083398151915260405160405180910390a450600195945050505050565b6101028181548110612f2257600080fd5b6000918252602090912001546001600160a01b0316905081565b60008060fd8381548110612f5257612f526159f5565b6000918252602090912060408051610200810190915260139092020180546001600160a01b0380821660e08501908152600160a01b830460ff16610100860152600160a81b90920461ffff16610120850152600183015416610140840152600282018054849291849161016085019190612fcb906159bb565b80601f0160208091040260200160405190810160405280929190818152602001828054612ff7906159bb565b80156130445780601f1061301957610100808354040283529160200191613044565b820191906000526020600020905b81548152906001019060200180831161302757829003601f168201915b505050918352505060038201546020808301919091526004830154604080840191909152600584015460608085019190915260069094015460809384015293855283518084018552600787015481526008870154818301526009870154818601528582015283518083018552600a8701548152600b87015481830152600c87015481860152600d87015460ff161515818501528585015283518085018552600e8701548152600f87015481830152928501929092526010850180548451818502810185019095528085529490910193909183018282801561314e57602002820191906000526020600020905b81546001600160a01b03168152600190910190602001808311613130575b50505091835250506011820154602082015260129091015460ff1615156040918201529051015161ffff169392505050565b6000338161318e8286613d5a565b9050838110156131ee5760405162461bcd60e51b815260206004820152602560248201527f45524332303a2064656372656173656420616c6c6f77616e63652062656c6f77604482015264207a65726f60d81b6064820152608401610f88565b6131fb828686840361419a565b506001949350505050565b6000828152610100602090815260408083206001600160a01b03851684529091528120805491908190819061323b878761175b565b5060058301546003909301549699909850919650909350505050565b600033610c47818585614338565b60008060008060fd858154811061327e5761327e6159f5565b6000918252602090912060408051610200810190915260139092020180546001600160a01b0380821660e08501908152600160a01b830460ff16610100860152600160a81b90920461ffff166101208501526001830154166101408401526002820180548492918491610160850191906132f7906159bb565b80601f0160208091040260200160405190810160405280929190818152602001828054613323906159bb565b80156133705780601f1061334557610100808354040283529160200191613370565b820191906000526020600020905b81548152906001019060200180831161335357829003601f168201915b505050918352505060038201546020808301919091526004830154604080840191909152600584015460608085019190915260069094015460809384015293855283518084018552600787015481526008870154818301526009870154818601528582015283518083018552600a8701548152600b87015481830152600c87015481860152600d87015460ff161515818501528585015283518085018552600e8701548152600f87015481830152928501929092526010850180548451818502810185019095528085529490910193909183018282801561347a57602002820191906000526020600020905b81546001600160a01b0316815260019091019060200180831161345c575b5050509183525050601182015460208083019190915260129092015460ff161515604091820152918201518051918101519201519097919650945092505050565b60008060008060fd85815481106134d4576134d46159f5565b6000918252602090912060408051610200810190915260139092020180546001600160a01b0380821660e08501908152600160a01b830460ff16610100860152600160a81b90920461ffff1661012085015260018301541661014084015260028201805484929184916101608501919061354d906159bb565b80601f0160208091040260200160405190810160405280929190818152602001828054613579906159bb565b80156135c65780601f1061359b576101008083540402835291602001916135c6565b820191906000526020600020905b8154815290600101906020018083116135a957829003601f168201915b505050918352505060038201546020808301919091526004830154604080840191909152600584015460608085019190915260069094015460809384015293855283518084018552600787015481526008870154818301526009870154818601528582015283518083018552600a8701548152600b87015481830152600c87015481860152600d87015460ff161515818501528585015283518085018552600e8701548152600f8701548183015292850192909252601085018054845181850281018501909552808552949091019390918301828280156136d057602002820191906000526020600020905b81546001600160a01b031681526001909101906020018083116136b2575b5050509183525050601182015460208083019190915260129092015460ff161515604091820152918101518051918101519201519097919650945092505050565b6034546001600160a01b0316331461377a5760405162461bcd60e51b815260206004820152602660248201527f6f6e6c792070656e64696e67206f776e65722063616e2061636365707420747260448201526530b739b332b960d11b6064820152608401610f88565b60345461378f906001600160a01b0316614ba1565b565b60008060fd83815481106137a7576137a76159f5565b6000918252602090912060139091020160018101549091506001600160a01b03163314806137df57506033546001600160a01b031633145b6137fb5760405162461bcd60e51b8152600401610f8890615b2e565b60128101805460ff1916905542601190910155506001919050565b600060fd858154811061382b5761382b6159f5565b60009182526020909120601390910201601281015490915060ff1615801561385557506004810154155b6138a15760405162461bcd60e51b815260206004820152601860248201527f506f6f6c20616c726561647920696e697469616c697a656400000000000000006044820152606401610f88565b60008361ffff161180156138bb57506127108361ffff1611155b6138fa5760405162461bcd60e51b815260206004820152601060248201526f415059206f7574206f662072616e676560801b6044820152606401610f88565b805461391190600160a01b900460ff16600a615de6565b61391c906064615a34565b841015801561394e5750805461393d90600160a01b900460ff16600a615de6565b61394a9062989680615a34565b8411155b6139925760405162461bcd60e51b8152602060048201526015602482015274506f6f6c20636170206f7574206f662072616e676560581b6044820152606401610f88565b60018101546001600160a01b031633146139be5760405162461bcd60e51b8152600401610f8890615b2e565b60006301e1338061271062093a806139da61ffff881689615a34565b6139e49190615a34565b6139ee9190615af9565b6139f89190615af9565b90506000612710613a0b6103e884615a34565b613a159190615af9565b9050613a393330613a268588615a21565b86546001600160a01b0316929190614a6a565b5083836000016003016000828254613a519190615a21565b909155505060048301869055825461ffff60a81b1916600160a81b61ffff87160217835560128301805460ff191660011790556008830182905560078301829055613a9c8183615b1b565b600990930192909255505050505050565b6000613ab761459a565b6001600160a01b038316600090815260ff602090815260408083205460fe909252822054613ae59190615a21565b6001600160a01b038516600081815260fe6020908152604080832083905560ff9091528120559091506131fb908483614a04565b60008060fd8381548110613b2f57613b2f6159f5565b6000918252602090912060408051610200810190915260139092020180546001600160a01b0380821660e08501908152600160a01b830460ff16610100860152600160a81b90920461ffff16610120850152600183015416610140840152600282018054849291849161016085019190613ba8906159bb565b80601f0160208091040260200160405190810160405280929190818152602001828054613bd4906159bb565b8015613c215780601f10613bf657610100808354040283529160200191613c21565b820191906000526020600020905b815481529060010190602001808311613c0457829003601f168201915b505050918352505060038201546020808301919091526004830154604080840191909152600584015460608085019190915260069094015460809384015293855283518084018552600787015481526008870154818301526009870154818601528582015283518083018552600a8701548152600b87015481830152600c87015481860152600d87015460ff161515818501528585015283518085018552600e8701548152600f870154818301529285019290925260108501805484518185028101850190955280855294909101939091830182828015613d2b57602002820191906000526020600020905b81546001600160a01b03168152600190910190602001808311613d0d575b50505091835250506011820154602082015260129091015460ff1615156040909101525160e001519392505050565b6001600160a01b03918216600090815260cc6020908152604080832093909416825291909152205490565b60008060fd8381548110613d9b57613d9b6159f5565b6000918252602090912060046013909202010154613dc1670de0b6b3a764000086615a34565b613dcb9190615af9565b9050613dd8816005615a34565b91509250929050565b6000613deb61459a565b6001600160a01b0383166000908152610101602052604090205460ff161515821514613e515760405162461bcd60e51b81526020600482015260156024820152741dda1a5d195b1a5cdd08185b1c9958591e481cd95d605a1b6044820152606401610f88565b6001600160a01b03831660008181526101016020526040808220805460ff191686151590811790915590519092917f99795d51e5a8804307721456a7a9c2f0d7421f719d46a46d36e91fee7c85aa7691a38115613ef95761010280546001810182556000919091527f93bdaa6a4190909b7c3fbe8d42169ffe1cab19f51dfc8db24c71abf849eced4a0180546001600160a01b0319166001600160a01b03851617905561400d565b6101025460005b8181101561400a5760006101028281548110613f1e57613f1e6159f5565b6000918252602090912001546001600160a01b03908116915086168103613ff957610102613f4d600185615b1b565b81548110613f5d57613f5d6159f5565b60009182526020909120015461010280546001600160a01b039092169184908110613f8a57613f8a6159f5565b9060005260206000200160006101000a8154816001600160a01b0302191690836001600160a01b03160217905550610102805480613fca57613fca615b9f565b600082815260209020810160001990810180546001600160a01b03191690550190555060019250610c4d915050565b5061400381615df5565b9050613f00565b50505b50600192915050565b600061402061459a565b6101025460005b818110156140d45760006101028281548110614045576140456159f5565b60009182526020808320909101546001600160a01b031680835260ff825260408084205460fe90935283205490935061407e9190615a21565b90508060000361408f5750506140c4565b6001600160a01b038216600081815260fe6020908152604080832083905560ff9091528120556140c0908783614a04565b5050505b6140cd81615df5565b9050614027565b5060019392505050565b6140e661459a565b6001600160a01b03811661414b5760405162461bcd60e51b815260206004820152602660248201527f4f776e61626c653a206e6577206f776e657220697320746865207a65726f206160448201526564647265737360d01b6064820152608401610f88565b603480546001600160a01b0319166001600160a01b0392909216919091179055565b614175614aad565b614181813360016148a2565b611025600160ca55565b6001600160a01b03163b151590565b6001600160a01b0383166141fc5760405162461bcd60e51b8152602060048201526024808201527f45524332303a20617070726f76652066726f6d20746865207a65726f206164646044820152637265737360e01b6064820152608401610f88565b6001600160a01b03821661425d5760405162461bcd60e51b815260206004820152602260248201527f45524332303a20617070726f766520746f20746865207a65726f206164647265604482015261737360f01b6064820152608401610f88565b6001600160a01b03838116600081815260cc602090815260408083209487168084529482529182902085905590518481527f8c5be1e5ebec7d5bd14f71427d1e84f3dd0314c0f7b2291e5b200ac8c7c3b925910160405180910390a3505050565b60006142ca8484613d5a565b9050600019811461433257818110156143255760405162461bcd60e51b815260206004820152601d60248201527f45524332303a20696e73756666696369656e7420616c6c6f77616e63650000006044820152606401610f88565b614332848484840361419a565b50505050565b6001600160a01b03831661439c5760405162461bcd60e51b815260206004820152602560248201527f45524332303a207472616e736665722066726f6d20746865207a65726f206164604482015264647265737360d81b6064820152608401610f88565b6001600160a01b0382166143fe5760405162461bcd60e51b815260206004820152602360248201527f45524332303a207472616e7366657220746f20746865207a65726f206164647260448201526265737360e81b6064820152608401610f88565b6001600160a01b038316600090815260cb6020526040902054818110156144765760405162461bcd60e51b815260206004820152602660248201527f45524332303a207472616e7366657220616d6f756e7420657863656564732062604482015265616c616e636560d01b6064820152608401610f88565b6001600160a01b03808516600081815260cb602052604080822086860390559286168082529083902080548601905591517fddf252ad1be2c89b69c2b068fc378daa952ba7f163c4a11628f55a4df523b3ef906144d69086815260200190565b60405180910390a3614332565b60006144f9670de0b6b3a7640000600019615af9565b82111561451c576040516322630c4560e01b815260048101839052602401610f88565b670de0b6b3a76400008202610c4d565b6000610c4d6714057b7ef767814f670de0b6b3a764000061455261454f86614bfe565b90565b028161456057614560615ae3565b0490565b6000610e3761454f8385615b1b565b6000610e3761454f8484614d31565b6000610e3761454f84670de0b6b3a764000085614de5565b6033546001600160a01b0316331461378f5760405162461bcd60e51b815260206004820181905260248201527f4f776e61626c653a2063616c6c6572206973206e6f7420746865206f776e65726044820152606401610f88565b600060fd8381548110614609576146096159f5565b90600052602060002090601302019050600082826007016001015483600701600001546146369190615b1b565b6146409190615a21565b60018301548354919250614662916001600160a01b0390811691163084614a6a565b5060006127106146746103e884615a34565b61467e9190615af9565b9050818360070160010160008282546146979190615a21565b909155505082546001600160a01b0316600090815260ff6020526040812080548392906146c5908490615a21565b90915550600090506146d78284615b1b565b9050808460070160020160008282546146f09190615a21565b9091555050604051839087907fadb049ad2d09be3db90459a16aef1ad0a4d89e8fdcc1ade9429d6cc55abbcd2b90600090a3505050505050565b61102561459a565b7f4910fdfa16fed3260ed0e7147f7cc6da11a60208b5b9406d12a635614ffd91435460ff161561476a5761476583614eb9565b505050565b826001600160a01b03166352d1902d6040518163ffffffff1660e01b8152600401602060405180830381865afa9250505080156147c4575060408051601f3d908101601f191682019092526147c191810190615e0e565b60015b6148275760405162461bcd60e51b815260206004820152602e60248201527f45524331393637557067726164653a206e657720696d706c656d656e7461746960448201526d6f6e206973206e6f74205555505360901b6064820152608401610f88565b600080516020615eb083398151915281146148965760405162461bcd60e51b815260206004820152602960248201527f45524331393637557067726164653a20756e737570706f727465642070726f786044820152681a58589b195555525160ba1b6064820152608401610f88565b50614765838383614f55565b600060fd84815481106148b7576148b76159f5565b60009182526020808320878452610100825260408085206001600160a01b038916865290925292208054601390920290920192501580156148fa57506001810154155b1561490c574260029091015550505050565b600080600061491b888861175b565b92509250925085614969578084600101600082825461493a9190615a21565b909155505060118501546000036149515742614957565b84601101545b84600201819055505050505050505050565b600885015483111561497f5761497f88846145f4565b82156149fa576000600185018190556011860154900361499f57426149a5565b84601101545b60028501556008850180548491906000906149c1908490615b1b565b90915550506009850180548391906000906149dd908490615b1b565b909155505084546149f8906001600160a01b03168884614a04565b505b5050505050505050565b6040516001600160a01b0383166024820152604481018290526000906140d490859063a9059cbb60e01b906064015b60408051601f198184030181529190526020810180516001600160e01b03166001600160e01b031990931692909217909152614f7a565b6040516001600160a01b03808516602483015283166044820152606481018290526000906131fb9086906323b872dd60e01b90608401614a33565b949350505050565b600260ca5403614aff5760405162461bcd60e51b815260206004820152601f60248201527f5265656e7472616e637947756172643a207265656e7472616e742063616c6c006044820152606401610f88565b600260ca55565b6000610e378284615b1b565b600054610100900460ff16614b395760405162461bcd60e51b8152600401610f8890615e27565b61378f61504c565b600080670de0b6b3a7640000614b5f84670928ca80cfc20000615a34565b614b699190615af9565b614b7b9067016345785d8a0000615a21565b90506000614b98826ec097ce7bc90715b34b9f1000000000615af9565b90505050919050565b603380546001600160a01b038381166001600160a01b03198084168217909455603480549094169093556040519116919082907f8be0079c531659141344cd1fd0a4f28419497f9722a3daafe3b4186f6b6457e090600090a35050565b600081670de0b6b3a7640000811015614c2d57604051633621413760e21b815260048101849052602401610f88565b6000614cb9670de0b6b3a7640000830460016fffffffffffffffffffffffffffffffff821160071b91821c67ffffffffffffffff811160061b90811c63ffffffff811160051b90811c61ffff811160041b90811c60ff8111600390811b91821c600f811160021b90811c918211871b91821c969096119490961792909217171791909117919091171790565b9050670de0b6b3a7640000810282821c670de0b6b3a763ffff198101614ce25750949350505050565b671bc16d674ec800006706f05b59d3b200005b8015614d2557670de0b6b3a7640000838002049250818310614d1d579283019260019290921c915b60011c614cf5565b50919695505050505050565b60008080600019848609848602925082811083820303915050670de0b6b3a76400008110614d7c5760405163090638d560e41b81526004810186905260248101859052604401610f88565b6000670de0b6b3a7640000858709905081600003614da8575050670de0b6b3a764000090049050610c4d565b620400008184030492109003600160ee1b02177faccb18165bd6fe31ae1cf318dc5b51eee0e1ba569b88cd74c1773b91fac1066902905092915050565b6000808060001985870985870292508281108382030391505080600003614e1f57838281614e1557614e15615ae3565b0492505050610e37565b838110614e50576040516307639aaf60e41b8152600481018790526024810186905260448101859052606401610f88565b60008486880960026001871981018816978890046003810283188082028403028082028403028082028403028082028403028082028403029081029092039091026000889003889004909101858311909403939093029303949094049190911702949350505050565b6001600160a01b0381163b614f265760405162461bcd60e51b815260206004820152602d60248201527f455243313936373a206e657720696d706c656d656e746174696f6e206973206e60448201526c1bdd08184818dbdb9d1c9858dd609a1b6064820152608401610f88565b600080516020615eb083398151915280546001600160a01b0319166001600160a01b0392909216919091179055565b614f5e8361507c565b600082511180614f6b5750805b156147655761433283836150bc565b6000614fcf826040518060400160405280602081526020017f5361666545524332303a206c6f772d6c6576656c2063616c6c206661696c6564815250856001600160a01b03166151b09092919063ffffffff16565b8051909150156147655780806020019051810190614fed9190615e72565b6147655760405162461bcd60e51b815260206004820152602a60248201527f5361666545524332303a204552433230206f7065726174696f6e20646964206e6044820152691bdd081cdd58d8d9595960b21b6064820152608401610f88565b600054610100900460ff166150735760405162461bcd60e51b8152600401610f8890615e27565b61378f33614ba1565b61508581614eb9565b6040516001600160a01b038216907fbc7cd75a20ee27fd9adebab32041f755214dbc6bffa90cc0225b39da2e5c2d3b90600090a250565b60606001600160a01b0383163b6151245760405162461bcd60e51b815260206004820152602660248201527f416464726573733a2064656c65676174652063616c6c20746f206e6f6e2d636f6044820152651b9d1c9858dd60d21b6064820152608401610f88565b600080846001600160a01b03168460405161513f9190615bb5565b600060405180830381855af49150503d806000811461517a576040519150601f19603f3d011682016040523d82523d6000602084013e61517f565b606091505b50915091506151a78282604051806060016040528060278152602001615ed0602791396151bf565b95945050505050565b6060614aa584846000856151d8565b606083156151ce575081610e37565b610e3783836152a8565b6060824710156152395760405162461bcd60e51b815260206004820152602660248201527f416464726573733a20696e73756666696369656e742062616c616e636520666f6044820152651c8818d85b1b60d21b6064820152608401610f88565b600080866001600160a01b031685876040516152559190615bb5565b60006040518083038185875af1925050503d8060008114615292576040519150601f19603f3d011682016040523d82523d6000602084013e615297565b606091505b5091509150612924878383876152d2565b8151156152b85781518083602001fd5b8060405162461bcd60e51b8152600401610f889190615522565b6060831561534157825160000361533a576001600160a01b0385163b61533a5760405162461bcd60e51b815260206004820152601d60248201527f416464726573733a2063616c6c20746f206e6f6e2d636f6e74726163740000006044820152606401610f88565b5081614aa5565b614aa583836152a8565b508054600082559060005260206000209081019061102591906154bd565b604080516102008101909152600060e08201818152610100830182905261012083018290526101408301829052606061016084015261018083018290526101a083018290526101c083018290526101e0830191909152819081526020016153ea60405180606001604052806000815260200160008152602001600081525090565b815260200161541c60405180608001604052806000815260200160008152602001600081526020016000151581525090565b815260200161543e604051806040016040528060008152602001600081525090565b815260606020820181905260006040830181905291015290565b8280548282559060005260206000209081019282156154ad579160200282015b828111156154ad57825182546001600160a01b0319166001600160a01b03909116178255602090920191600190910190615478565b506154b99291506154bd565b5090565b5b808211156154b957600081556001016154be565b60005b838110156154ed5781810151838201526020016154d5565b50506000910152565b6000815180845261550e8160208601602086016154d2565b601f01601f19169290920160200192915050565b602081526000610e3760208301846154f6565b80356001600160a01b0381168114610f3b57600080fd5b6000806040838503121561555f57600080fd5b61556883615535565b946020939093013593505050565b60006020828403121561558857600080fd5b5035919050565b60006101808083526155ac8184018a516001600160a01b03169052565b50602088015160ff166101a0830152604088015161ffff166101c083015260608801516001600160a01b03166101e083015260808801516101206102008401526155fa6102a08401826154f6565b905060a089015161022084015260c089015161024084015260e0890151610260840152610100808a015161028085015281925061564e602085018a8051825260208082015190830152604090810151910152565b87516080850152602088015160a0850152604088015160c08501526060880151151560e085015261568b8185018880518252602090810151910152565b50508361014083015261292461016083018415159052565b6000806000606084860312156156b857600080fd5b6156c184615535565b92506156cf60208501615535565b9150604084013590509250925092565b600080604083850312156156f257600080fd5b50508035926020909101359150565b60006020828403121561571357600080fd5b610e3782615535565b60008060006060848603121561573157600080fd5b833592506156cf60208501615535565b6000806040838503121561575457600080fd5b8235915061576460208401615535565b90509250929050565b634e487b7160e01b600052604160045260246000fd5b600067ffffffffffffffff8084111561579e5761579e61576d565b604051601f8501601f19908116603f011681019082821181831017156157c6576157c661576d565b816040528093508581528686860111156157df57600080fd5b858560208301376000602087830101525050509392505050565b6000806040838503121561580c57600080fd5b61581583615535565b9150602083013567ffffffffffffffff81111561583157600080fd5b8301601f8101851361584257600080fd5b61585185823560208401615783565b9150509250929050565b801515811461102557600080fd5b60008060006060848603121561587e57600080fd5b833592506020840135915060408401356158978161585b565b809150509250925092565b6000806000606084860312156158b757600080fd5b6158c084615535565b92506158ce60208501615535565b9150604084013567ffffffffffffffff8111156158ea57600080fd5b8401601f810186136158fb57600080fd5b61590a86823560208401615783565b9150509250925092565b6000806000806080858703121561592a57600080fd5b8435935060208501359250604085013561ffff8116811461594a57600080fd5b9396929550929360600135925050565b6000806040838503121561596d57600080fd5b61597683615535565b915061576460208401615535565b6000806040838503121561599757600080fd5b6159a083615535565b915060208301356159b08161585b565b809150509250929050565b600181811c908216806159cf57607f821691505b6020821081036159ef57634e487b7160e01b600052602260045260246000fd5b50919050565b634e487b7160e01b600052603260045260246000fd5b634e487b7160e01b600052601160045260246000fd5b80820180821115610c4d57610c4d615a0b565b8082028115828204841417610c4d57610c4d615a0b565b6020808252602c908201527f46756e6374696f6e206d7573742062652063616c6c6564207468726f7567682060408201526b19195b1959d85d1958d85b1b60a21b606082015260800190565b6020808252602c908201527f46756e6374696f6e206d7573742062652063616c6c6564207468726f7567682060408201526b6163746976652070726f787960a01b606082015260800190565b634e487b7160e01b600052601260045260246000fd5b600082615b1657634e487b7160e01b600052601260045260246000fd5b500490565b81810381811115610c4d57610c4d615a0b565b6020808252600e908201526d139bdd08185d5d1a1bdc9a5e995960921b604082015260600190565b60208082526029908201527f54696d656c6f636b206e6f7420736574206f72206e6f7420636f6d706c6574656040820152686420696e2074696d6560b81b606082015260800190565b634e487b7160e01b600052603160045260246000fd5b60008251615bc78184602087016154d2565b9190910192915050565b600060208284031215615be357600080fd5b815160ff81168114610e3757600080fd5b601f82111561476557600081815260208120601f850160051c81016020861015615c1b5750805b601f850160051c820191505b81811015615c3a57828155600101615c27565b505050505050565b815167ffffffffffffffff811115615c5c57615c5c61576d565b615c7081615c6a84546159bb565b84615bf4565b602080601f831160018114615ca55760008415615c8d5750858301515b600019600386901b1c1916600185901b178555615c3a565b600085815260208120601f198616915b82811015615cd457888601518255948401946001909101908401615cb5565b5085821015615cf25787850151600019600388901b60f8161c191681555b5050505050600190811b01905550565b600181815b80851115615d3d578160001904821115615d2357615d23615a0b565b80851615615d3057918102915b93841c9390800290615d07565b509250929050565b600082615d5457506001610c4d565b81615d6157506000610c4d565b8160018114615d775760028114615d8157615d9d565b6001915050610c4d565b60ff841115615d9257615d92615a0b565b50506001821b610c4d565b5060208310610133831016604e8410600b8410161715615dc0575081810a610c4d565b615dca8383615d02565b8060001904821115615dde57615dde615a0b565b029392505050565b6000610e3760ff841683615d45565b600060018201615e0757615e07615a0b565b5060010190565b600060208284031215615e2057600080fd5b5051919050565b6020808252602b908201527f496e697469616c697a61626c653a20636f6e7472616374206973206e6f74206960408201526a6e697469616c697a696e6760a81b606082015260800190565b600060208284031215615e8457600080fd5b8151610e378161585b56fea3ea4fb8dee4d414198cb197af6eae4fe483c1a0b849dc50e53b9bf1a60e2166360894a13ba1a3210667c828492db98dca3e2076cc3735a920a3ca505d382bbc416464726573733a206c6f772d6c6576656c2064656c65676174652063616c6c206661696c6564a26469706673582212207e868b640b254572b662dafe02d769a5ee852222d730b528b521b02f967d66be64736f6c63430008110033496e697469616c697a61626c653a20636f6e7472616374206973206e6f742069",
    "linkReferences": {}
  },
  "methodIdentifiers": {
    "acceptOwnershipTransfer()": "b842e87f",
    "activeTokens(uint256)": "9f224f35",
    "addNewBountyPool(address,address,string)": "804fd590",
    "allowance(address,address)": "dd62ed3e",
    "approve(address,uint256)": "095ea7b3",
    "balanceOf(address)": "70a08231",
    "billPremium(uint256)": "2dbe051e",
    "calculateEffectivePrice(uint256,uint256)": "258d6d4a",
    "claimPremium(uint256)": "f47ec3be",
    "collectAllSaloonProfits(address)": "ecd7fbed",
    "collectSaloonProfits(address,address)": "cf9564b9",
    "convertStakeToPoolMeasurements(uint256,uint256)": "de1b75ec",
    "decimals()": "313ce567",
    "decreaseAllowance(address,uint256)": "a457c2d7",
    "getCurrentAPY()": "962ca496",
    "getMultiplier(uint256,uint256)": "8dbb1e3a",
    "increaseAllowance(address,uint256)": "39509351",
    "initialize()": "8129fc1c",
    "makeProjectDeposit(uint256,uint256)": "57a86d3a",
    "name()": "06fdde03",
    "owner()": "8da5cb5b",
    "payBounty(uint256,address,uint256)": "3ac6ad7b",
    "pendingToken(uint256,address)": "48e43af4",
    "poolInfo(uint256)": "1526fe27",
    "poolLength()": "081e3eda",
    "projectDepositWithdrawal(uint256,uint256)": "983c1ce0",
    "proxiableUUID()": "52d1902d",
    "saloonBountyProfit(address)": "e45abd0f",
    "saloonPremiumProfit(address)": "ca006148",
    "scheduleProjectDepositWithdrawal(uint256,uint256)": "5669cbef",
    "scheduleUnstake(uint256,uint256)": "91635b4e",
    "seeEffectiveStakingAPY(uint256,uint256)": "492849fe",
    "setAPYandPoolCapAndDeposit(uint256,uint256,uint16,uint256)": "cee6b069",
    "stake(uint256,address,uint256)": "6e9c931c",
    "symbol()": "95d89b41",
    "tokenWhitelist(address)": "753d7563",
    "totalSupply()": "18160ddd",
    "transfer(address,uint256)": "a9059cbb",
    "transferFrom(address,address,uint256)": "23b872dd",
    "transferOwnership(address)": "f2fde38b",
    "unstake(uint256,uint256,bool)": "79b91d69",
    "updateTokenWhitelist(address,bool)": "e5e97c65",
    "upgradeTo(address)": "3659cfe6",
    "upgradeToAndCall(address,bytes)": "4f1ef286",
    "userInfo(uint256,address)": "93f1a40b",
    "viewBountyBalance(uint256)": "6ac6d812",
    "viewBountyInfo(uint256)": "40ef2868",
    "viewHackerPayout(uint256)": "861e5f66",
    "viewPoolAPY(uint256)": "a27f9213",
    "viewPoolCap(uint256)": "39679ff4",
    "viewPoolPremiumInfo(uint256)": "b1a2d16f",
    "viewPoolTimelockInfo(uint256)": "ac30b856",
    "viewSaloonProfitBalance(address)": "718c7eef",
    "viewTotalStaked(uint256)": "dbdd6957",
    "viewUserInfo(uint256,address)": "a754ecb0",
    "viewUserUnclaimed(uint256,address)": "5e3b748b",
    "windDownBounty(uint256)": "bb7019c1"
  },
  "id": 38
}