{
  "abi": [
    {
      "inputs": [
        {
          "internalType": "UD60x18",
          "name": "x",
          "type": "uint256"
        }
      ],
      "name": "PRBMathUD60x18__LogInputTooSmall",
      "type": "error"
    },
    {
      "inputs": [
        {
          "internalType": "uint256",
          "name": "x",
          "type": "uint256"
        }
      ],
      "name": "PRBMathUD60x18__ToUD60x18Overflow",
      "type": "error"
    },
    {
      "inputs": [
        {
          "internalType": "uint256",
          "name": "x",
          "type": "uint256"
        },
        {
          "internalType": "uint256",
          "name": "y",
          "type": "uint256"
        }
      ],
      "name": "PRBMath__MulDiv18Overflow",
      "type": "error"
    },
    {
      "inputs": [
        {
          "internalType": "uint256",
          "name": "x",
          "type": "uint256"
        },
        {
          "internalType": "uint256",
          "name": "y",
          "type": "uint256"
        },
        {
          "internalType": "uint256",
          "name": "denominator",
          "type": "uint256"
        }
      ],
      "name": "PRBMath__MulDivOverflow",
      "type": "error"
    },
    {
      "anonymous": false,
      "inputs": [
        {
          "indexed": false,
          "internalType": "address",
          "name": "previousAdmin",
          "type": "address"
        },
        {
          "indexed": false,
          "internalType": "address",
          "name": "newAdmin",
          "type": "address"
        }
      ],
      "name": "AdminChanged",
      "type": "event"
    },
    {
      "anonymous": false,
      "inputs": [
        {
          "indexed": true,
          "internalType": "address",
          "name": "owner",
          "type": "address"
        },
        {
          "indexed": true,
          "internalType": "address",
          "name": "approved",
          "type": "address"
        },
        {
          "indexed": true,
          "internalType": "uint256",
          "name": "tokenId",
          "type": "uint256"
        }
      ],
      "name": "Approval",
      "type": "event"
    },
    {
      "anonymous": false,
      "inputs": [
        {
          "indexed": true,
          "internalType": "address",
          "name": "owner",
          "type": "address"
        },
        {
          "indexed": true,
          "internalType": "address",
          "name": "operator",
          "type": "address"
        },
        {
          "indexed": false,
          "internalType": "bool",
          "name": "approved",
          "type": "bool"
        }
      ],
      "name": "ApprovalForAll",
      "type": "event"
    },
    {
      "anonymous": false,
      "inputs": [
        {
          "indexed": true,
          "internalType": "address",
          "name": "beacon",
          "type": "address"
        }
      ],
      "name": "BeaconUpgraded",
      "type": "event"
    },
    {
      "anonymous": false,
      "inputs": [
        {
          "indexed": true,
          "internalType": "uint256",
          "name": "pid",
          "type": "uint256"
        },
        {
          "indexed": false,
          "internalType": "uint256",
          "name": "oldAmount",
          "type": "uint256"
        },
        {
          "indexed": false,
          "internalType": "uint256",
          "name": "newAmount",
          "type": "uint256"
        }
      ],
      "name": "BountyBalanceChanged",
      "type": "event"
    },
    {
      "anonymous": false,
      "inputs": [
        {
          "indexed": true,
          "internalType": "address",
          "name": "hunter",
          "type": "address"
        },
        {
          "indexed": true,
          "internalType": "address",
          "name": "token",
          "type": "address"
        },
        {
          "indexed": false,
          "internalType": "uint256",
          "name": "amount",
          "type": "uint256"
        }
      ],
      "name": "BountyPaid",
      "type": "event"
    },
    {
      "anonymous": false,
      "inputs": [
        {
          "indexed": false,
          "internalType": "uint8",
          "name": "version",
          "type": "uint8"
        }
      ],
      "name": "Initialized",
      "type": "event"
    },
    {
      "anonymous": false,
      "inputs": [
        {
          "indexed": true,
          "internalType": "uint256",
          "name": "pid",
          "type": "uint256"
        },
        {
          "indexed": true,
          "internalType": "address",
          "name": "token",
          "type": "address"
        },
        {
          "indexed": false,
          "internalType": "uint256",
          "name": "tokenDecimals",
          "type": "uint256"
        }
      ],
      "name": "NewBountyDeployed",
      "type": "event"
    },
    {
      "anonymous": false,
      "inputs": [
        {
          "indexed": true,
          "internalType": "address",
          "name": "previousOwner",
          "type": "address"
        },
        {
          "indexed": true,
          "internalType": "address",
          "name": "newOwner",
          "type": "address"
        }
      ],
      "name": "OwnershipTransferred",
      "type": "event"
    },
    {
      "anonymous": false,
      "inputs": [
        {
          "indexed": true,
          "internalType": "uint256",
          "name": "pid",
          "type": "uint256"
        },
        {
          "indexed": false,
          "internalType": "uint256",
          "name": "amount",
          "type": "uint256"
        }
      ],
      "name": "PremiumBilled",
      "type": "event"
    },
    {
      "anonymous": false,
      "inputs": [
        {
          "indexed": true,
          "internalType": "address",
          "name": "user",
          "type": "address"
        },
        {
          "indexed": true,
          "internalType": "uint256",
          "name": "pid",
          "type": "uint256"
        },
        {
          "indexed": false,
          "internalType": "uint256",
          "name": "amount",
          "type": "uint256"
        }
      ],
      "name": "Staked",
      "type": "event"
    },
    {
      "anonymous": false,
      "inputs": [
        {
          "indexed": true,
          "internalType": "address",
          "name": "from",
          "type": "address"
        },
        {
          "indexed": true,
          "internalType": "address",
          "name": "to",
          "type": "address"
        },
        {
          "indexed": true,
          "internalType": "uint256",
          "name": "tokenId",
          "type": "uint256"
        }
      ],
      "name": "Transfer",
      "type": "event"
    },
    {
      "anonymous": false,
      "inputs": [
        {
          "indexed": true,
          "internalType": "address",
          "name": "user",
          "type": "address"
        },
        {
          "indexed": true,
          "internalType": "uint256",
          "name": "pid",
          "type": "uint256"
        },
        {
          "indexed": false,
          "internalType": "uint256",
          "name": "amount",
          "type": "uint256"
        }
      ],
      "name": "Unstaked",
      "type": "event"
    },
    {
      "anonymous": false,
      "inputs": [
        {
          "indexed": true,
          "internalType": "address",
          "name": "implementation",
          "type": "address"
        }
      ],
      "name": "Upgraded",
      "type": "event"
    },
    {
      "anonymous": false,
      "inputs": [
        {
          "indexed": true,
          "internalType": "uint256",
          "name": "pid",
          "type": "uint256"
        },
        {
          "indexed": false,
          "internalType": "uint256",
          "name": "amount",
          "type": "uint256"
        }
      ],
      "name": "WithdrawalOrUnstakeScheduled",
      "type": "event"
    },
    {
      "anonymous": false,
      "inputs": [
        {
          "indexed": true,
          "internalType": "address",
          "name": "referrer",
          "type": "address"
        },
        {
          "indexed": false,
          "internalType": "uint256",
          "name": "amount",
          "type": "uint256"
        }
      ],
      "name": "referralPaid",
      "type": "event"
    },
    {
      "anonymous": false,
      "inputs": [
        {
          "indexed": true,
          "internalType": "address",
          "name": "token",
          "type": "address"
        },
        {
          "indexed": true,
          "internalType": "bool",
          "name": "whitelisted",
          "type": "bool"
        }
      ],
      "name": "tokenWhitelistUpdated",
      "type": "event"
    },
    {
      "inputs": [],
      "name": "acceptOwnershipTransfer",
      "outputs": [],
      "stateMutability": "nonpayable",
      "type": "function"
    },
    {
      "inputs": [
        {
          "internalType": "uint256",
          "name": "",
          "type": "uint256"
        }
      ],
      "name": "activeStrategies",
      "outputs": [
        {
          "internalType": "bytes32",
          "name": "",
          "type": "bytes32"
        }
      ],
      "stateMutability": "view",
      "type": "function"
    },
    {
      "inputs": [
        {
          "internalType": "uint256",
          "name": "",
          "type": "uint256"
        }
      ],
      "name": "activeTokens",
      "outputs": [
        {
          "internalType": "address",
          "name": "",
          "type": "address"
        }
      ],
      "stateMutability": "view",
      "type": "function"
    },
    {
      "inputs": [
        {
          "internalType": "address",
          "name": "_token",
          "type": "address"
        },
        {
          "internalType": "address",
          "name": "_projectWallet",
          "type": "address"
        },
        {
          "internalType": "string",
          "name": "_projectName",
          "type": "string"
        },
        {
          "internalType": "address",
          "name": "_referrer",
          "type": "address"
        },
        {
          "internalType": "uint256",
          "name": "_referralFee",
          "type": "uint256"
        },
        {
          "internalType": "uint256",
          "name": "_referralEndTime",
          "type": "uint256"
        }
      ],
      "name": "addNewBountyPool",
      "outputs": [
        {
          "internalType": "uint256",
          "name": "",
          "type": "uint256"
        }
      ],
      "stateMutability": "nonpayable",
      "type": "function"
    },
    {
      "inputs": [
        {
          "internalType": "address",
          "name": "to",
          "type": "address"
        },
        {
          "internalType": "uint256",
          "name": "tokenId",
          "type": "uint256"
        }
      ],
      "name": "approve",
      "outputs": [],
      "stateMutability": "nonpayable",
      "type": "function"
    },
    {
      "inputs": [
        {
          "internalType": "address",
          "name": "owner",
          "type": "address"
        }
      ],
      "name": "balanceOf",
      "outputs": [
        {
          "internalType": "uint256",
          "name": "",
          "type": "uint256"
        }
      ],
      "stateMutability": "view",
      "type": "function"
    },
    {
      "inputs": [
        {
          "internalType": "uint256",
          "name": "_pid",
          "type": "uint256"
        }
      ],
      "name": "billPremium",
      "outputs": [
        {
          "internalType": "bool",
          "name": "",
          "type": "bool"
        }
      ],
      "stateMutability": "nonpayable",
      "type": "function"
    },
    {
      "inputs": [
        {
          "internalType": "uint256",
          "name": "_pid",
          "type": "uint256"
        },
        {
          "internalType": "uint256",
          "name": "_totalAmount",
          "type": "uint256"
        }
      ],
      "name": "calcReferralSplit",
      "outputs": [
        {
          "internalType": "uint256",
          "name": "",
          "type": "uint256"
        },
        {
          "internalType": "uint256",
          "name": "",
          "type": "uint256"
        },
        {
          "internalType": "address",
          "name": "",
          "type": "address"
        }
      ],
      "stateMutability": "view",
      "type": "function"
    },
    {
      "inputs": [
        {
          "internalType": "uint256",
          "name": "_poolCap",
          "type": "uint256"
        },
        {
          "internalType": "uint256",
          "name": "_apy",
          "type": "uint256"
        }
      ],
      "name": "calcRequiredPremiumBalancePerPeriod",
      "outputs": [
        {
          "internalType": "uint256",
          "name": "requiredPremiumBalance",
          "type": "uint256"
        }
      ],
      "stateMutability": "pure",
      "type": "function"
    },
    {
      "inputs": [
        {
          "internalType": "uint256",
          "name": "_pid",
          "type": "uint256"
        },
        {
          "internalType": "uint256",
          "name": "_stake",
          "type": "uint256"
        },
        {
          "internalType": "uint256",
          "name": "_memX",
          "type": "uint256"
        }
      ],
      "name": "calculateArbitraryEffectiveAPY",
      "outputs": [
        {
          "internalType": "uint256",
          "name": "scaledAPY",
          "type": "uint256"
        }
      ],
      "stateMutability": "view",
      "type": "function"
    },
    {
      "inputs": [
        {
          "internalType": "uint256",
          "name": "_pid",
          "type": "uint256"
        },
        {
          "internalType": "uint256",
          "name": "_stake",
          "type": "uint256"
        }
      ],
      "name": "calculateEffectiveAPY",
      "outputs": [
        {
          "internalType": "uint256",
          "name": "scaledAPY",
          "type": "uint256"
        }
      ],
      "stateMutability": "view",
      "type": "function"
    },
    {
      "inputs": [
        {
          "internalType": "uint256",
          "name": "_tokenId",
          "type": "uint256"
        }
      ],
      "name": "claimPremium",
      "outputs": [],
      "stateMutability": "nonpayable",
      "type": "function"
    },
    {
      "inputs": [],
      "name": "collectAllReferralProfits",
      "outputs": [
        {
          "internalType": "bool",
          "name": "",
          "type": "bool"
        }
      ],
      "stateMutability": "nonpayable",
      "type": "function"
    },
    {
      "inputs": [
        {
          "internalType": "address",
          "name": "_saloonWallet",
          "type": "address"
        }
      ],
      "name": "collectAllSaloonProfits",
      "outputs": [
        {
          "internalType": "bool",
          "name": "",
          "type": "bool"
        }
      ],
      "stateMutability": "nonpayable",
      "type": "function"
    },
    {
      "inputs": [
        {
          "internalType": "address",
          "name": "_token",
          "type": "address"
        }
      ],
      "name": "collectReferralProfit",
      "outputs": [
        {
          "internalType": "bool",
          "name": "",
          "type": "bool"
        }
      ],
      "stateMutability": "nonpayable",
      "type": "function"
    },
    {
      "inputs": [
        {
          "internalType": "address",
          "name": "_token",
          "type": "address"
        },
        {
          "internalType": "address",
          "name": "_saloonWallet",
          "type": "address"
        }
      ],
      "name": "collectSaloonProfits",
      "outputs": [
        {
          "internalType": "bool",
          "name": "",
          "type": "bool"
        }
      ],
      "stateMutability": "nonpayable",
      "type": "function"
    },
    {
      "inputs": [],
      "name": "compoundYieldForAll",
      "outputs": [],
      "stateMutability": "nonpayable",
      "type": "function"
    },
    {
      "inputs": [
        {
          "internalType": "uint256",
          "name": "_pid",
          "type": "uint256"
        }
      ],
      "name": "compoundYieldForPid",
      "outputs": [],
      "stateMutability": "nonpayable",
      "type": "function"
    },
    {
      "inputs": [
        {
          "internalType": "uint256",
          "name": "_pid",
          "type": "uint256"
        }
      ],
      "name": "consolidate",
      "outputs": [],
      "stateMutability": "nonpayable",
      "type": "function"
    },
    {
      "inputs": [],
      "name": "consolidateAll",
      "outputs": [],
      "stateMutability": "nonpayable",
      "type": "function"
    },
    {
      "inputs": [
        {
          "internalType": "uint256",
          "name": "_pid",
          "type": "uint256"
        },
        {
          "internalType": "uint256",
          "name": "_endTime",
          "type": "uint256"
        }
      ],
      "name": "extendReferralPeriod",
      "outputs": [],
      "stateMutability": "nonpayable",
      "type": "function"
    },
    {
      "inputs": [
        {
          "internalType": "address",
          "name": "owner",
          "type": "address"
        }
      ],
      "name": "getAllTokensByOwner",
      "outputs": [
        {
          "components": [
            {
              "internalType": "uint256",
              "name": "pid",
              "type": "uint256"
            },
            {
              "internalType": "uint256",
              "name": "amount",
              "type": "uint256"
            },
            {
              "internalType": "uint256",
              "name": "xDelta",
              "type": "uint256"
            },
            {
              "internalType": "uint256",
              "name": "apy",
              "type": "uint256"
            },
            {
              "internalType": "uint256",
              "name": "unclaimed",
              "type": "uint256"
            },
            {
              "internalType": "uint256",
              "name": "lastClaimedTime",
              "type": "uint256"
            },
            {
              "internalType": "uint256",
              "name": "timelock",
              "type": "uint256"
            },
            {
              "internalType": "uint256",
              "name": "timelimit",
              "type": "uint256"
            }
          ],
          "internalType": "struct BountyTokenNFT.NFTInfo[]",
          "name": "userTokens",
          "type": "tuple[]"
        }
      ],
      "stateMutability": "view",
      "type": "function"
    },
    {
      "inputs": [
        {
          "internalType": "uint256",
          "name": "tokenId",
          "type": "uint256"
        }
      ],
      "name": "getApproved",
      "outputs": [
        {
          "internalType": "address",
          "name": "",
          "type": "address"
        }
      ],
      "stateMutability": "view",
      "type": "function"
    },
    {
      "inputs": [
        {
          "internalType": "uint256",
          "name": "_pid",
          "type": "uint256"
        }
      ],
      "name": "getCurrentAPY",
      "outputs": [
        {
          "internalType": "uint256",
          "name": "currentAPY",
          "type": "uint256"
        }
      ],
      "stateMutability": "view",
      "type": "function"
    },
    {
      "inputs": [
        {
          "internalType": "uint256",
          "name": "_from",
          "type": "uint256"
        },
        {
          "internalType": "uint256",
          "name": "_to",
          "type": "uint256"
        }
      ],
      "name": "getSecondsPassed",
      "outputs": [
        {
          "internalType": "uint256",
          "name": "",
          "type": "uint256"
        }
      ],
      "stateMutability": "pure",
      "type": "function"
    },
    {
      "inputs": [],
      "name": "index",
      "outputs": [
        {
          "internalType": "uint256",
          "name": "",
          "type": "uint256"
        }
      ],
      "stateMutability": "view",
      "type": "function"
    },
    {
      "inputs": [
        {
          "internalType": "address",
          "name": "_strategyFactory",
          "type": "address"
        }
      ],
      "name": "initialize",
      "outputs": [],
      "stateMutability": "nonpayable",
      "type": "function"
    },
    {
      "inputs": [
        {
          "internalType": "address",
          "name": "owner",
          "type": "address"
        },
        {
          "internalType": "address",
          "name": "operator",
          "type": "address"
        }
      ],
      "name": "isApprovedForAll",
      "outputs": [
        {
          "internalType": "bool",
          "name": "",
          "type": "bool"
        }
      ],
      "stateMutability": "view",
      "type": "function"
    },
    {
      "inputs": [
        {
          "internalType": "uint256",
          "name": "_pid",
          "type": "uint256"
        },
        {
          "internalType": "uint256",
          "name": "_deposit",
          "type": "uint256"
        },
        {
          "internalType": "string",
          "name": "_strategyName",
          "type": "string"
        }
      ],
      "name": "makeProjectDeposit",
      "outputs": [],
      "stateMutability": "nonpayable",
      "type": "function"
    },
    {
      "inputs": [
        {
          "internalType": "address",
          "name": "",
          "type": "address"
        }
      ],
      "name": "minTokenStakeAmount",
      "outputs": [
        {
          "internalType": "uint256",
          "name": "",
          "type": "uint256"
        }
      ],
      "stateMutability": "view",
      "type": "function"
    },
    {
      "inputs": [],
      "name": "name",
      "outputs": [
        {
          "internalType": "string",
          "name": "",
          "type": "string"
        }
      ],
      "stateMutability": "view",
      "type": "function"
    },
    {
      "inputs": [
        {
          "internalType": "uint256",
          "name": "",
          "type": "uint256"
        }
      ],
      "name": "nftInfo",
      "outputs": [
        {
          "internalType": "uint256",
          "name": "pid",
          "type": "uint256"
        },
        {
          "internalType": "uint256",
          "name": "amount",
          "type": "uint256"
        },
        {
          "internalType": "uint256",
          "name": "xDelta",
          "type": "uint256"
        },
        {
          "internalType": "uint256",
          "name": "apy",
          "type": "uint256"
        },
        {
          "internalType": "uint256",
          "name": "unclaimed",
          "type": "uint256"
        },
        {
          "internalType": "uint256",
          "name": "lastClaimedTime",
          "type": "uint256"
        },
        {
          "internalType": "uint256",
          "name": "timelock",
          "type": "uint256"
        },
        {
          "internalType": "uint256",
          "name": "timelimit",
          "type": "uint256"
        }
      ],
      "stateMutability": "view",
      "type": "function"
    },
    {
      "inputs": [
        {
          "internalType": "uint256",
          "name": "",
          "type": "uint256"
        }
      ],
      "name": "nftToPid",
      "outputs": [
        {
          "internalType": "uint256",
          "name": "",
          "type": "uint256"
        }
      ],
      "stateMutability": "view",
      "type": "function"
    },
    {
      "inputs": [],
      "name": "owner",
      "outputs": [
        {
          "internalType": "address",
          "name": "",
          "type": "address"
        }
      ],
      "stateMutability": "view",
      "type": "function"
    },
    {
      "inputs": [
        {
          "internalType": "uint256",
          "name": "tokenId",
          "type": "uint256"
        }
      ],
      "name": "ownerOf",
      "outputs": [
        {
          "internalType": "address",
          "name": "",
          "type": "address"
        }
      ],
      "stateMutability": "view",
      "type": "function"
    },
    {
      "inputs": [
        {
          "internalType": "uint256",
          "name": "_pid",
          "type": "uint256"
        },
        {
          "internalType": "address",
          "name": "_hunter",
          "type": "address"
        },
        {
          "internalType": "uint256",
          "name": "_payoutBPS",
          "type": "uint256"
        }
      ],
      "name": "payBounty",
      "outputs": [
        {
          "internalType": "bool",
          "name": "",
          "type": "bool"
        }
      ],
      "stateMutability": "nonpayable",
      "type": "function"
    },
    {
      "inputs": [
        {
          "internalType": "uint256",
          "name": "_tokenId",
          "type": "uint256"
        }
      ],
      "name": "pendingPremium",
      "outputs": [
        {
          "internalType": "uint256",
          "name": "totalPending",
          "type": "uint256"
        },
        {
          "internalType": "uint256",
          "name": "actualPending",
          "type": "uint256"
        },
        {
          "internalType": "uint256",
          "name": "newPending",
          "type": "uint256"
        }
      ],
      "stateMutability": "view",
      "type": "function"
    },
    {
      "inputs": [
        {
          "internalType": "uint256",
          "name": "",
          "type": "uint256"
        },
        {
          "internalType": "uint256",
          "name": "",
          "type": "uint256"
        }
      ],
      "name": "pidNFTList",
      "outputs": [
        {
          "internalType": "uint256",
          "name": "",
          "type": "uint256"
        }
      ],
      "stateMutability": "view",
      "type": "function"
    },
    {
      "inputs": [
        {
          "internalType": "uint256",
          "name": "",
          "type": "uint256"
        },
        {
          "internalType": "bytes32",
          "name": "",
          "type": "bytes32"
        }
      ],
      "name": "pidStrategies",
      "outputs": [
        {
          "internalType": "address",
          "name": "",
          "type": "address"
        }
      ],
      "stateMutability": "view",
      "type": "function"
    },
    {
      "inputs": [
        {
          "internalType": "uint256",
          "name": "",
          "type": "uint256"
        }
      ],
      "name": "poolInfo",
      "outputs": [
        {
          "components": [
            {
              "internalType": "contract IERC20",
              "name": "token",
              "type": "address"
            },
            {
              "internalType": "uint8",
              "name": "tokenDecimals",
              "type": "uint8"
            },
            {
              "internalType": "uint16",
              "name": "apy",
              "type": "uint16"
            },
            {
              "internalType": "address",
              "name": "projectWallet",
              "type": "address"
            },
            {
              "internalType": "string",
              "name": "projectName",
              "type": "string"
            },
            {
              "internalType": "uint256",
              "name": "poolCap",
              "type": "uint256"
            },
            {
              "internalType": "uint256",
              "name": "totalStaked",
              "type": "uint256"
            },
            {
              "internalType": "uint256",
              "name": "scalingMultiplier",
              "type": "uint256"
            }
          ],
          "internalType": "struct ISaloon.GeneralInfo",
          "name": "generalInfo",
          "type": "tuple"
        },
        {
          "components": [
            {
              "internalType": "uint256",
              "name": "projectDepositHeld",
              "type": "uint256"
            },
            {
              "internalType": "uint256",
              "name": "projectDepositInStrategy",
              "type": "uint256"
            }
          ],
          "internalType": "struct ISaloon.DepositInfo",
          "name": "depositInfo",
          "type": "tuple"
        },
        {
          "components": [
            {
              "internalType": "uint256",
              "name": "premiumBalance",
              "type": "uint256"
            },
            {
              "internalType": "uint256",
              "name": "premiumAvailable",
              "type": "uint256"
            }
          ],
          "internalType": "struct ISaloon.PremiumInfo",
          "name": "premiumInfo",
          "type": "tuple"
        },
        {
          "components": [
            {
              "internalType": "uint256",
              "name": "timelock",
              "type": "uint256"
            },
            {
              "internalType": "uint256",
              "name": "timeLimit",
              "type": "uint256"
            },
            {
              "internalType": "uint256",
              "name": "withdrawalScheduledAmount",
              "type": "uint256"
            },
            {
              "internalType": "bool",
              "name": "withdrawalExecuted",
              "type": "bool"
            }
          ],
          "internalType": "struct ISaloon.TimelockInfo",
          "name": "poolTimelock",
          "type": "tuple"
        },
        {
          "components": [
            {
              "internalType": "uint256",
              "name": "currentX",
              "type": "uint256"
            },
            {
              "internalType": "uint256",
              "name": "currentY",
              "type": "uint256"
            },
            {
              "internalType": "uint256",
              "name": "totalSupply",
              "type": "uint256"
            },
            {
              "internalType": "uint256[]",
              "name": "unstakedTokens",
              "type": "uint256[]"
            }
          ],
          "internalType": "struct ISaloon.CurveInfo",
          "name": "curveInfo",
          "type": "tuple"
        },
        {
          "components": [
            {
              "internalType": "address",
              "name": "referrer",
              "type": "address"
            },
            {
              "internalType": "uint256",
              "name": "referralFee",
              "type": "uint256"
            },
            {
              "internalType": "uint256",
              "name": "endTime",
              "type": "uint256"
            }
          ],
          "internalType": "struct ISaloon.ReferralInfo",
          "name": "referralInfo",
          "type": "tuple"
        },
        {
          "internalType": "uint256",
          "name": "freezeTime",
          "type": "uint256"
        },
        {
          "internalType": "bool",
          "name": "isActive",
          "type": "bool"
        }
      ],
      "stateMutability": "view",
      "type": "function"
    },
    {
      "inputs": [],
      "name": "poolLength",
      "outputs": [
        {
          "internalType": "uint256",
          "name": "",
          "type": "uint256"
        }
      ],
      "stateMutability": "view",
      "type": "function"
    },
    {
      "inputs": [
        {
          "internalType": "uint256",
          "name": "_pid",
          "type": "uint256"
        },
        {
          "internalType": "uint256",
          "name": "_amount",
          "type": "uint256"
        }
      ],
      "name": "projectDepositWithdrawal",
      "outputs": [
        {
          "internalType": "bool",
          "name": "",
          "type": "bool"
        }
      ],
      "stateMutability": "nonpayable",
      "type": "function"
    },
    {
      "inputs": [],
      "name": "proxiableUUID",
      "outputs": [
        {
          "internalType": "bytes32",
          "name": "",
          "type": "bytes32"
        }
      ],
      "stateMutability": "view",
      "type": "function"
    },
    {
      "inputs": [
        {
          "internalType": "address",
          "name": "_token",
          "type": "address"
        },
        {
          "internalType": "uint256",
          "name": "_amount",
          "type": "uint256"
        }
      ],
      "name": "receiveStrategyYield",
      "outputs": [],
      "stateMutability": "nonpayable",
      "type": "function"
    },
    {
      "inputs": [
        {
          "internalType": "address",
          "name": "",
          "type": "address"
        },
        {
          "internalType": "address",
          "name": "",
          "type": "address"
        }
      ],
      "name": "referralBalances",
      "outputs": [
        {
          "internalType": "uint256",
          "name": "",
          "type": "uint256"
        }
      ],
      "stateMutability": "view",
      "type": "function"
    },
    {
      "inputs": [
        {
          "internalType": "address",
          "name": "from",
          "type": "address"
        },
        {
          "internalType": "address",
          "name": "to",
          "type": "address"
        },
        {
          "internalType": "uint256",
          "name": "tokenId",
          "type": "uint256"
        }
      ],
      "name": "safeTransferFrom",
      "outputs": [],
      "stateMutability": "nonpayable",
      "type": "function"
    },
    {
      "inputs": [
        {
          "internalType": "address",
          "name": "from",
          "type": "address"
        },
        {
          "internalType": "address",
          "name": "to",
          "type": "address"
        },
        {
          "internalType": "uint256",
          "name": "tokenId",
          "type": "uint256"
        },
        {
          "internalType": "bytes",
          "name": "data",
          "type": "bytes"
        }
      ],
      "name": "safeTransferFrom",
      "outputs": [],
      "stateMutability": "nonpayable",
      "type": "function"
    },
    {
      "inputs": [
        {
          "internalType": "address",
          "name": "",
          "type": "address"
        }
      ],
      "name": "saloonBountyProfit",
      "outputs": [
        {
          "internalType": "uint256",
          "name": "",
          "type": "uint256"
        }
      ],
      "stateMutability": "view",
      "type": "function"
    },
    {
      "inputs": [
        {
          "internalType": "address",
          "name": "",
          "type": "address"
        }
      ],
      "name": "saloonPremiumProfit",
      "outputs": [
        {
          "internalType": "uint256",
          "name": "",
          "type": "uint256"
        }
      ],
      "stateMutability": "view",
      "type": "function"
    },
    {
      "inputs": [
        {
          "internalType": "address",
          "name": "",
          "type": "address"
        }
      ],
      "name": "saloonStrategyProfit",
      "outputs": [
        {
          "internalType": "uint256",
          "name": "",
          "type": "uint256"
        }
      ],
      "stateMutability": "view",
      "type": "function"
    },
    {
      "inputs": [
        {
          "internalType": "uint256",
          "name": "_pid",
          "type": "uint256"
        },
        {
          "internalType": "uint256",
          "name": "_amount",
          "type": "uint256"
        }
      ],
      "name": "scheduleProjectDepositWithdrawal",
      "outputs": [
        {
          "internalType": "bool",
          "name": "",
          "type": "bool"
        }
      ],
      "stateMutability": "nonpayable",
      "type": "function"
    },
    {
      "inputs": [
        {
          "internalType": "uint256",
          "name": "_tokenId",
          "type": "uint256"
        }
      ],
      "name": "scheduleUnstake",
      "outputs": [
        {
          "internalType": "bool",
          "name": "",
          "type": "bool"
        }
      ],
      "stateMutability": "nonpayable",
      "type": "function"
    },
    {
      "inputs": [
        {
          "internalType": "uint256",
          "name": "_pid",
          "type": "uint256"
        },
        {
          "internalType": "uint256",
          "name": "_poolCap",
          "type": "uint256"
        },
        {
          "internalType": "uint16",
          "name": "_apy",
          "type": "uint16"
        },
        {
          "internalType": "uint256",
          "name": "_deposit",
          "type": "uint256"
        },
        {
          "internalType": "string",
          "name": "_strategyName",
          "type": "string"
        }
      ],
      "name": "setAPYandPoolCapAndDeposit",
      "outputs": [],
      "stateMutability": "nonpayable",
      "type": "function"
    },
    {
      "inputs": [
        {
          "internalType": "address",
          "name": "operator",
          "type": "address"
        },
        {
          "internalType": "bool",
          "name": "approved",
          "type": "bool"
        }
      ],
      "name": "setApprovalForAll",
      "outputs": [],
      "stateMutability": "nonpayable",
      "type": "function"
    },
    {
      "inputs": [
        {
          "internalType": "uint256",
          "name": "_pid",
          "type": "uint256"
        },
        {
          "internalType": "uint256",
          "name": "_amount",
          "type": "uint256"
        }
      ],
      "name": "stake",
      "outputs": [
        {
          "internalType": "uint256",
          "name": "",
          "type": "uint256"
        }
      ],
      "stateMutability": "nonpayable",
      "type": "function"
    },
    {
      "inputs": [
        {
          "internalType": "address",
          "name": "",
          "type": "address"
        }
      ],
      "name": "strategyAddressToPid",
      "outputs": [
        {
          "internalType": "uint256",
          "name": "",
          "type": "uint256"
        }
      ],
      "stateMutability": "view",
      "type": "function"
    },
    {
      "inputs": [
        {
          "internalType": "bytes4",
          "name": "interfaceId",
          "type": "bytes4"
        }
      ],
      "name": "supportsInterface",
      "outputs": [
        {
          "internalType": "bool",
          "name": "",
          "type": "bool"
        }
      ],
      "stateMutability": "view",
      "type": "function"
    },
    {
      "inputs": [],
      "name": "symbol",
      "outputs": [
        {
          "internalType": "string",
          "name": "",
          "type": "string"
        }
      ],
      "stateMutability": "view",
      "type": "function"
    },
    {
      "inputs": [
        {
          "internalType": "uint256",
          "name": "tokenId",
          "type": "uint256"
        }
      ],
      "name": "tokenURI",
      "outputs": [
        {
          "internalType": "string",
          "name": "",
          "type": "string"
        }
      ],
      "stateMutability": "view",
      "type": "function"
    },
    {
      "inputs": [
        {
          "internalType": "address",
          "name": "",
          "type": "address"
        }
      ],
      "name": "tokenWhitelist",
      "outputs": [
        {
          "internalType": "bool",
          "name": "",
          "type": "bool"
        }
      ],
      "stateMutability": "view",
      "type": "function"
    },
    {
      "inputs": [
        {
          "internalType": "address",
          "name": "from",
          "type": "address"
        },
        {
          "internalType": "address",
          "name": "to",
          "type": "address"
        },
        {
          "internalType": "uint256",
          "name": "tokenId",
          "type": "uint256"
        }
      ],
      "name": "transferFrom",
      "outputs": [],
      "stateMutability": "nonpayable",
      "type": "function"
    },
    {
      "inputs": [
        {
          "internalType": "address",
          "name": "newOwner",
          "type": "address"
        }
      ],
      "name": "transferOwnership",
      "outputs": [],
      "stateMutability": "nonpayable",
      "type": "function"
    },
    {
      "inputs": [
        {
          "internalType": "uint256",
          "name": "_tokenId",
          "type": "uint256"
        },
        {
          "internalType": "bool",
          "name": "_shouldHarvest",
          "type": "bool"
        }
      ],
      "name": "unstake",
      "outputs": [
        {
          "internalType": "bool",
          "name": "",
          "type": "bool"
        }
      ],
      "stateMutability": "nonpayable",
      "type": "function"
    },
    {
      "inputs": [
        {
          "internalType": "address",
          "name": "_strategyFactory",
          "type": "address"
        }
      ],
      "name": "updateStrategyFactoryAddress",
      "outputs": [],
      "stateMutability": "nonpayable",
      "type": "function"
    },
    {
      "inputs": [
        {
          "internalType": "address",
          "name": "_token",
          "type": "address"
        },
        {
          "internalType": "bool",
          "name": "_whitelisted",
          "type": "bool"
        },
        {
          "internalType": "uint256",
          "name": "_minStakeAmount",
          "type": "uint256"
        }
      ],
      "name": "updateTokenWhitelist",
      "outputs": [
        {
          "internalType": "bool",
          "name": "",
          "type": "bool"
        }
      ],
      "stateMutability": "nonpayable",
      "type": "function"
    },
    {
      "inputs": [
        {
          "internalType": "address",
          "name": "newImplementation",
          "type": "address"
        }
      ],
      "name": "upgradeTo",
      "outputs": [],
      "stateMutability": "nonpayable",
      "type": "function"
    },
    {
      "inputs": [
        {
          "internalType": "address",
          "name": "newImplementation",
          "type": "address"
        },
        {
          "internalType": "bytes",
          "name": "data",
          "type": "bytes"
        }
      ],
      "name": "upgradeToAndCall",
      "outputs": [],
      "stateMutability": "payable",
      "type": "function"
    },
    {
      "inputs": [
        {
          "internalType": "uint256",
          "name": "_pid",
          "type": "uint256"
        }
      ],
      "name": "viewBountyBalance",
      "outputs": [
        {
          "internalType": "uint256",
          "name": "",
          "type": "uint256"
        }
      ],
      "stateMutability": "view",
      "type": "function"
    },
    {
      "inputs": [
        {
          "internalType": "uint256",
          "name": "_pid",
          "type": "uint256"
        }
      ],
      "name": "viewBountyInfo",
      "outputs": [
        {
          "internalType": "uint256",
          "name": "payout",
          "type": "uint256"
        },
        {
          "internalType": "uint256",
          "name": "apy",
          "type": "uint256"
        },
        {
          "internalType": "uint256",
          "name": "staked",
          "type": "uint256"
        },
        {
          "internalType": "uint256",
          "name": "poolCap",
          "type": "uint256"
        }
      ],
      "stateMutability": "view",
      "type": "function"
    },
    {
      "inputs": [
        {
          "internalType": "uint256",
          "name": "_pid",
          "type": "uint256"
        }
      ],
      "name": "viewHackerPayout",
      "outputs": [
        {
          "internalType": "uint256",
          "name": "",
          "type": "uint256"
        }
      ],
      "stateMutability": "view",
      "type": "function"
    },
    {
      "inputs": [
        {
          "internalType": "uint256",
          "name": "_pid",
          "type": "uint256"
        }
      ],
      "name": "viewMinProjectDeposit",
      "outputs": [
        {
          "internalType": "uint256",
          "name": "",
          "type": "uint256"
        }
      ],
      "stateMutability": "view",
      "type": "function"
    },
    {
      "inputs": [
        {
          "internalType": "uint256",
          "name": "_pid",
          "type": "uint256"
        }
      ],
      "name": "viewPoolAPY",
      "outputs": [
        {
          "internalType": "uint256",
          "name": "",
          "type": "uint256"
        }
      ],
      "stateMutability": "view",
      "type": "function"
    },
    {
      "inputs": [
        {
          "internalType": "uint256",
          "name": "_pid",
          "type": "uint256"
        }
      ],
      "name": "viewPoolCap",
      "outputs": [
        {
          "internalType": "uint256",
          "name": "",
          "type": "uint256"
        }
      ],
      "stateMutability": "view",
      "type": "function"
    },
    {
      "inputs": [
        {
          "internalType": "uint256",
          "name": "_pid",
          "type": "uint256"
        }
      ],
      "name": "viewPoolPremiumInfo",
      "outputs": [
        {
          "internalType": "uint256",
          "name": "requiredPremiumBalancePerPeriod",
          "type": "uint256"
        },
        {
          "internalType": "uint256",
          "name": "premiumBalance",
          "type": "uint256"
        },
        {
          "internalType": "uint256",
          "name": "premiumAvailable",
          "type": "uint256"
        }
      ],
      "stateMutability": "view",
      "type": "function"
    },
    {
      "inputs": [
        {
          "internalType": "uint256",
          "name": "_pid",
          "type": "uint256"
        }
      ],
      "name": "viewPoolTimelockInfo",
      "outputs": [
        {
          "internalType": "uint256",
          "name": "timelock",
          "type": "uint256"
        },
        {
          "internalType": "uint256",
          "name": "timeLimit",
          "type": "uint256"
        },
        {
          "internalType": "uint256",
          "name": "withdrawalScheduledAmount",
          "type": "uint256"
        }
      ],
      "stateMutability": "view",
      "type": "function"
    },
    {
      "inputs": [
        {
          "internalType": "address",
          "name": "_referrer",
          "type": "address"
        },
        {
          "internalType": "address",
          "name": "_token",
          "type": "address"
        }
      ],
      "name": "viewReferralBalance",
      "outputs": [
        {
          "internalType": "uint256",
          "name": "referralBalance",
          "type": "uint256"
        }
      ],
      "stateMutability": "view",
      "type": "function"
    },
    {
      "inputs": [
        {
          "internalType": "address",
          "name": "_token",
          "type": "address"
        }
      ],
      "name": "viewSaloonProfitBalance",
      "outputs": [
        {
          "internalType": "uint256",
          "name": "totalProfit",
          "type": "uint256"
        },
        {
          "internalType": "uint256",
          "name": "bountyProfit",
          "type": "uint256"
        },
        {
          "internalType": "uint256",
          "name": "strategyProfit",
          "type": "uint256"
        },
        {
          "internalType": "uint256",
          "name": "premiumProfit",
          "type": "uint256"
        }
      ],
      "stateMutability": "view",
      "type": "function"
    },
    {
      "inputs": [
        {
          "internalType": "uint256",
          "name": "_tokenId",
          "type": "uint256"
        }
      ],
      "name": "viewTokenInfo",
      "outputs": [
        {
          "internalType": "uint256",
          "name": "amount",
          "type": "uint256"
        },
        {
          "internalType": "uint256",
          "name": "apy",
          "type": "uint256"
        },
        {
          "internalType": "uint256",
          "name": "actualPending",
          "type": "uint256"
        },
        {
          "internalType": "uint256",
          "name": "unclaimed",
          "type": "uint256"
        },
        {
          "internalType": "uint256",
          "name": "timelock",
          "type": "uint256"
        }
      ],
      "stateMutability": "view",
      "type": "function"
    },
    {
      "inputs": [
        {
          "internalType": "uint256",
          "name": "_pid",
          "type": "uint256"
        }
      ],
      "name": "viewTotalStaked",
      "outputs": [
        {
          "internalType": "uint256",
          "name": "",
          "type": "uint256"
        }
      ],
      "stateMutability": "view",
      "type": "function"
    },
    {
      "inputs": [
        {
          "internalType": "uint256",
          "name": "_tokenId",
          "type": "uint256"
        }
      ],
      "name": "viewUserUnclaimed",
      "outputs": [
        {
          "internalType": "uint256",
          "name": "unclaimed",
          "type": "uint256"
        }
      ],
      "stateMutability": "view",
      "type": "function"
    },
    {
      "inputs": [
        {
          "internalType": "uint256",
          "name": "_pid",
          "type": "uint256"
        }
      ],
      "name": "windDownBounty",
      "outputs": [
        {
          "internalType": "bool",
          "name": "",
          "type": "bool"
        }
      ],
      "stateMutability": "nonpayable",
      "type": "function"
    }
  ],
  "bytecode": {
    "object": "0x60a0604052306080523480156200001557600080fd5b50600160ca55600054610100900460ff16158080156200003c5750600054600160ff909116105b806200006c575062000059306200019760201b62006be51760201c565b1580156200006c575060005460ff166001145b620000d55760405162461bcd60e51b815260206004820152602e60248201527f496e697469616c697a61626c653a20636f6e747261637420697320616c72656160448201526d191e481a5b9a5d1a585b1a5e995960921b60648201526084015b60405180910390fd5b6000805460ff191660011790558015620000f9576000805461ff0019166101001790555b620001496040518060400160405280600b81526020016a2137bab73a3caa37b5b2b760a91b8152506040518060400160405280600381526020016210951560ea1b815250620001a660201b60201c565b801562000190576000805461ff0019169055604051600181527f7f26b83ff96e1f2b6a682f133852f6798a09c465da95921460cefb38474024989060200160405180910390a15b5062000400565b6001600160a01b03163b151590565b600054610100900460ff16620002025760405162461bcd60e51b815260206004820152602b60248201526000805160206200a38283398151915260448201526a6e697469616c697a696e6760a81b6064820152608401620000cc565b6200020e828262000212565b5050565b600054610100900460ff166200026e5760405162461bcd60e51b815260206004820152602b60248201526000805160206200a38283398151915260448201526a6e697469616c697a696e6760a81b6064820152608401620000cc565b60fd6200027c838262000334565b5060fe6200028b828262000334565b505050565b634e487b7160e01b600052604160045260246000fd5b600181811c90821680620002bb57607f821691505b602082108103620002dc57634e487b7160e01b600052602260045260246000fd5b50919050565b601f8211156200028b57600081815260208120601f850160051c810160208610156200030b5750805b601f850160051c820191505b818110156200032c5782815560010162000317565b505050505050565b81516001600160401b0381111562000350576200035062000290565b6200036881620003618454620002a6565b84620002e2565b602080601f831160018114620003a05760008415620003875750858301515b600019600386901b1c1916600185901b1785556200032c565b600085815260208120601f198616915b82811015620003d157888601518255948401946001909101908401620003b0565b5085821015620003f05787850151600019600388901b60f8161c191681555b5050505050600190811b01905550565b608051619f4a6200043860003960008181612420015281816124600152818161313f0152818161317f01526136020152619f4a6000f3fe60806040526004361061047e5760003560e01c80636ac6d81211610255578063a27f921311610144578063ca006148116100c1578063e985e9c511610085578063e985e9c514610fc4578063e9fda7d41461100e578063ecd7fbed1461103b578063f2fde38b1461105b578063f47ec3be1461107b578063f68ce4991461109b57600080fd5b8063ca00614814610f08578063cf9564b914610f36578063dbdd695714610f56578063e45abd0f14610f76578063e78ea3df14610fa457600080fd5b8063b842e87f11610108578063b842e87f14610e73578063b88d4fde14610e88578063bb7019c114610ea8578063c4d66de814610ec8578063c87b56dd14610ee857600080fd5b8063a27f921314610dc5578063ac30b85614610de5578063ae07f94814610e05578063b1a2d16f14610e25578063b20b242914610e4557600080fd5b8063928dc6a9116101d2578063983c1ce011610196578063983c1ce014610d255780639ebea88c14610d455780639f224f3514610d65578063a089a52014610d85578063a22cb46514610da557600080fd5b8063928dc6a914610c5e578063949a4a4a14610ca2578063957deecc14610cc257806395d89b4114610cf057806396ea48e814610d0557600080fd5b80637b0472f0116102195780637b0472f014610bc05780637fbf385314610be0578063836ef1fa14610c00578063861e5f6614610c205780638da5cb5b14610c4057600080fd5b80636ac6d81214610b1a57806370a0823114610b3a578063718c7eef14610b5a578063753d756314610b7a57806375bfd63d14610bab57600080fd5b806330ca07941161037157806342842e0e116102ee578063598d17bf116102b2578063598d17bf14610a5e5780635c46f7b114610a8c5780635de406dc14610aac578063612afc0c14610acc5780636352211e14610afa57600080fd5b806342842e0e146109d65780634f1ef286146109f65780634f3214cc14610a0957806352d1902d14610a295780635669cbef14610a3e57600080fd5b806339679ff41161033557806339679ff4146109065780633ac6ad7b146109265780633e8888d91461094657806340bd1d001461095b57806340ef28681461099657600080fd5b806330ca07941461085857806332fce602146108785780633538fda0146108985780633659cfe6146108b857806339458723146108d857600080fd5b806310725852116103ff5780631f8bc790116103c35780631f8bc7901461074757806323b872dd146107e15780632986c0e5146108015780632cb0dfcc146108185780632dbe051e1461083857600080fd5b8063107258521461065a5780631526fe27146106a257806319693071146106d65780631aebcecb146107075780631c6b323f1461072757600080fd5b8063081e3eda11610446578063081e3eda1461059b578063095ea7b3146105b15780630a015ab1146105d35780630ed7610c146105f3578063106d08df1461063a57600080fd5b8063011b408b1461048357806301ffc9a7146104cf57806306fdde03146104ff578063074ecf0314610521578063081812fc1461057b575b600080fd5b34801561048f57600080fd5b506104bc61049e3660046190e7565b61013860209081526000928352604080842090915290825290205481565b6040519081526020015b60405180910390f35b3480156104db57600080fd5b506104ef6104ea366004619136565b6110b0565b60405190151581526020016104c6565b34801561050b57600080fd5b50610514611102565b6040516104c691906191a3565b34801561052d57600080fd5b5061056361053c3660046191b6565b61013a6020908152600092835260408084209091529082529020546001600160a01b031681565b6040516001600160a01b0390911681526020016104c6565b34801561058757600080fd5b506105636105963660046191d8565b611194565b3480156105a757600080fd5b50610131546104bc565b3480156105bd57600080fd5b506105d16105cc3660046191f1565b6111bc565b005b3480156105df57600080fd5b506104bc6105ee3660046191b6565b6112d6565b3480156105ff57600080fd5b506104bc61060e3660046190e7565b6001600160a01b0391821660009081526101386020908152604080832093909416825291909152205490565b34801561064657600080fd5b506104ef6106553660046191d8565b6112e9565b34801561066657600080fd5b5061067a6106753660046191d8565b6113d3565b604080519586526020860194909452928401919091526060830152608082015260a0016104c6565b3480156106ae57600080fd5b506106c26106bd3660046191d8565b611476565b6040516104c6989796959493929190619288565b3480156106e257600080fd5b506104bc6106f13660046191d8565b6000908152610133602052604090206004015490565b34801561071357600080fd5b506105d16107223660046191f1565b6116d3565b34801561073357600080fd5b506104bc6107423660046191d8565b61178c565b34801561075357600080fd5b506107a66107623660046191d8565b610133602052600090815260409020805460018201546002830154600384015460048501546005860154600687015460079097015495969495939492939192909188565b604080519889526020890197909752958701949094526060860192909252608085015260a084015260c083015260e0820152610100016104c6565b3480156107ed57600080fd5b506105d16107fc3660046193c3565b611a7f565b34801561080d57600080fd5b506104bc6101035481565b34801561082457600080fd5b506104ef610833366004619412565b611ab0565b34801561084457600080fd5b506104ef6108533660046191d8565b611d02565b34801561086457600080fd5b506105d16108733660046194e5565b611d1f565b34801561088457600080fd5b506104bc610893366004619559565b611fa6565b3480156108a457600080fd5b506105d16108b33660046195e0565b6123eb565b3480156108c457600080fd5b506105d16108d33660046195e0565b612416565b3480156108e457600080fd5b506104bc6108f33660046195e0565b61013f6020526000908152604090205481565b34801561091257600080fd5b506104bc6109213660046191d8565b6124f5565b34801561093257600080fd5b506104ef6109413660046195fd565b6127da565b34801561095257600080fd5b506104ef612c73565b34801561096757600080fd5b5061097b6109763660046191d8565b612cd6565b604080519384526020840192909252908201526060016104c6565b3480156109a257600080fd5b506109b66109b13660046191d8565b6130e1565b6040805194855260208501939093529183015260608201526080016104c6565b3480156109e257600080fd5b506105d16109f13660046193c3565b61311a565b6105d1610a04366004619624565b613135565b348015610a1557600080fd5b506104bc610a24366004619674565b613205565b348015610a3557600080fd5b506104bc6135f5565b348015610a4a57600080fd5b506104ef610a593660046191b6565b6136a8565b348015610a6a57600080fd5b506104bc610a793660046195e0565b6101376020526000908152604090205481565b348015610a9857600080fd5b506104bc610aa73660046191b6565b6137d6565b348015610ab857600080fd5b506105d1610ac73660046191b6565b613b99565b348015610ad857600080fd5b506104bc610ae73660046191d8565b6101326020526000908152604090205481565b348015610b0657600080fd5b50610563610b153660046191d8565b613c24565b348015610b2657600080fd5b506104bc610b353660046191d8565b613c84565b348015610b4657600080fd5b506104bc610b553660046195e0565b613f78565b348015610b6657600080fd5b506109b6610b753660046195e0565b613fff565b348015610b8657600080fd5b506104ef610b953660046195e0565b61013d6020526000908152604090205460ff1681565b348015610bb757600080fd5b506105d161404f565b348015610bcc57600080fd5b506104bc610bdb3660046191b6565b614077565b348015610bec57600080fd5b506104bc610bfb3660046191d8565b614573565b348015610c0c57600080fd5b506104bc610c1b3660046191b6565b614877565b348015610c2c57600080fd5b506104bc610c3b3660046191d8565b6148ad565b348015610c4c57600080fd5b506033546001600160a01b0316610563565b348015610c6a57600080fd5b50610c7e610c793660046191b6565b614bb7565b6040805193845260208401929092526001600160a01b0316908201526060016104c6565b348015610cae57600080fd5b506105d1610cbd3660046191d8565b614f15565b348015610cce57600080fd5b506104bc610cdd3660046195e0565b61013c6020526000908152604090205481565b348015610cfc57600080fd5b5061051461539a565b348015610d1157600080fd5b506104bc610d203660046191b6565b6153a9565b348015610d3157600080fd5b506104ef610d403660046191b6565b6153db565b348015610d5157600080fd5b506104ef610d603660046196a0565b615562565b348015610d7157600080fd5b50610563610d803660046191d8565b61576e565b348015610d9157600080fd5b506104ef610da03660046195e0565b615799565b348015610db157600080fd5b506105d1610dc03660046196c5565b61580f565b348015610dd157600080fd5b506104bc610de03660046191d8565b61581a565b348015610df157600080fd5b5061097b610e003660046191d8565b615b02565b348015610e1157600080fd5b506105d1610e203660046196f3565b615dfe565b348015610e3157600080fd5b5061097b610e403660046191d8565b615efe565b348015610e5157600080fd5b506104bc610e603660046191d8565b61013b6020526000908152604090205481565b348015610e7f57600080fd5b506105d161620f565b348015610e9457600080fd5b506105d1610ea3366004619743565b61628f565b348015610eb457600080fd5b506104ef610ec33660046191d8565b6162c7565b348015610ed457600080fd5b506105d1610ee33660046195e0565b616393565b348015610ef457600080fd5b50610514610f033660046191d8565b6164c0565b348015610f1457600080fd5b506104bc610f233660046195e0565b6101366020526000908152604090205481565b348015610f4257600080fd5b506104ef610f513660046190e7565b616533565b348015610f6257600080fd5b506104bc610f713660046191d8565b616597565b348015610f8257600080fd5b506104bc610f913660046195e0565b6101356020526000908152604090205481565b348015610fb057600080fd5b506105d1610fbf3660046191d8565b61687c565b348015610fd057600080fd5b506104ef610fdf3660046190e7565b6001600160a01b0391821660009081526101026020908152604080832093909416825291909152205460ff1690565b34801561101a57600080fd5b5061102e6110293660046195e0565b616914565b6040516104c691906197af565b34801561104757600080fd5b506104ef6110563660046195e0565b616aae565b34801561106757600080fd5b506105d16110763660046195e0565b616b11565b34801561108757600080fd5b506105d16110963660046191d8565b616ba0565b3480156110a757600080fd5b506105d1616bbd565b60006001600160e01b031982166380ac58cd60e01b14806110e157506001600160e01b03198216635b5e139f60e01b145b806110fc57506301ffc9a760e01b6001600160e01b03198316145b92915050565b606060fd80546111119061982f565b80601f016020809104026020016040519081016040528092919081815260200182805461113d9061982f565b801561118a5780601f1061115f5761010080835404028352916020019161118a565b820191906000526020600020905b81548152906001019060200180831161116d57829003601f168201915b5050505050905090565b600061119f82616bf4565b50600090815261010160205260409020546001600160a01b031690565b60006111c782613c24565b9050806001600160a01b0316836001600160a01b0316036112395760405162461bcd60e51b815260206004820152602160248201527f4552433732313a20617070726f76616c20746f2063757272656e74206f776e656044820152603960f91b60648201526084015b60405180910390fd5b336001600160a01b038216148061125557506112558133610fdf565b6112c75760405162461bcd60e51b815260206004820152603d60248201527f4552433732313a20617070726f76652063616c6c6572206973206e6f7420746f60448201527f6b656e206f776e6572206f7220617070726f76656420666f7220616c6c0000006064820152608401611230565b6112d18383616c53565b505050565b60006112e28284616cc2565b9392505050565b6000336112f583613c24565b6001600160a01b0316146113415760405162461bcd60e51b815260206004820152601360248201527239b2b73232b91034b9903737ba1037bbb732b960691b6044820152606401611230565b6000828152610132602090815260408083205461013390925290912061136a62093a804261987f565b600682015561137c62093a804261987f565b611389906203f48061987f565b6007820155600181015460405181815283907fb3b9c925de3673837b40c6b4d4463a8f88dc821cd27e07f1ff6bf6abf96413a59060200160405180910390a2506001949350505050565b60008181526101326020908152604080832054610133835281842082516101008101845281548152600182015494810185905260028201549381019390935260038101546060840181905260048201546080850152600582015460a0850152600682015460c085015260079091015460e08401529293918291829161145788612cd6565b50608083015160c090930151989a979950979196919550909350505050565b610131818154811061148757600080fd5b60009182526020918290206040805161010081018252601890930290910180546001600160a01b03808216855260ff600160a01b8304169585019590955261ffff600160a81b9091041691830191909152600181015490921660608201526002820180549293509091839160808401916115009061982f565b80601f016020809104026020016040519081016040528092919081815260200182805461152c9061982f565b80156115795780601f1061154e57610100808354040283529160200191611579565b820191906000526020600020905b81548152906001019060200180831161155c57829003601f168201915b50505091835250506003820154602080830191909152600483015460408084019190915260059093015460609283015282518084018452600686015481526007860154818301528351808501855260088701548152600987015481840152845160808082018752600a8901548252600b89015482860152600c89015482880152600d89015460ff1615158287015286519081018752600e890180548252600f8a01548287015260108a01548289015260118a018054895181890281018901909a52808a52999a959994989397959692959194918601939290919083018282801561168257602002820191906000526020600020905b81548152602001906001019080831161166e575b5050509190925250506040805160608101825260128501546001600160a01b031681526013850154602082015260148501549181019190915260168401546017909401549293909290915060ff1688565b6116e86001600160a01b038316333084616cce565b5033600090815261013c602052604081205490819003611736576001600160a01b038316600090815261013760205260408120805484929061172b90849061987f565b909155506112d19050565b60008060006117458486614bb7565b925092509250611756818784616d3c565b6001600160a01b038616600090815261013760205260408120805485929061177f90849061987f565b9091555050505050505050565b60008061013183815481106117a3576117a3619892565b6000918252602090912060408051610220810190915260189092020180546001600160a01b038082166101208501908152600160a01b830460ff16610140860152600160a81b90920461ffff1661016085015260018301541661018084015260028201805484929184916101a08501919061181d9061982f565b80601f01602080910402602001604051908101604052809291908181526020018280546118499061982f565b80156118965780601f1061186b57610100808354040283529160200191611896565b820191906000526020600020905b81548152906001019060200180831161187957829003601f168201915b505050918352505060038201546020808301919091526004830154604080840191909152600590930154606092830152928452815180830183526006860154815260078601548185015284840152815180830183526008860154815260098601548185015284830152815160808082018452600a8701548252600b87015482860152600c87015482850152600d87015460ff161515828401528583019190915282518082018452600e870180548252600f880154828701526010880154828601526011880180548651818902810189019097528087529390970196919590949386019392908301828280156119aa57602002820191906000526020600020905b815481526020019060010190808311611996575b5050509190925250505081526040805160608101825260128401546001600160a01b03168152601384015460208281019190915260148501548284015280840191909152601584018054835181840281018401855281815293909401939091830182828015611a4257602002820191906000526020600020905b81546001600160a01b03168152600190910190602001808311611a24575b5050509183525050601682015460208083019190915260179092015460ff161515604090910152818101519081015190519192506112e29161987f565b611a893382616d8d565b611aa55760405162461bcd60e51b8152600401611230906198a8565b6112d1838383616e0c565b6000611aba616f7d565b6001600160a01b038416600090815261013d602052604090205460ff16151583151480611ae75750600082115b611b2c5760405162461bcd60e51b81526020600482015260166024820152751b9bc818da185b99d9481d1bc81dda1a5d195b1a5cdd60521b6044820152606401611230565b6001600160a01b038416600081815261013d6020526040808220805460ff191687151590811790915590519092917f99795d51e5a8804307721456a7a9c2f0d7421f719d46a46d36e91fee7c85aa7691a38215611be45761013e8054600181019091557f3096b0ff83c28e07db9b87f650bc5521a4928b98f2734605e31b316abbb272350180546001600160a01b0319166001600160a01b038616908117909155600090815261013f60205260409020829055611cf8565b61013e5460005b81811015611cf557600061013e8281548110611c0957611c09619892565b6000918252602090912001546001600160a01b03908116915087168103611ce45761013e611c386001856198f5565b81548110611c4857611c48619892565b60009182526020909120015461013e80546001600160a01b039092169184908110611c7557611c75619892565b9060005260206000200160006101000a8154816001600160a01b0302191690836001600160a01b0316021790555061013e805480611cb557611cb5619908565b600082815260209020810160001990810180546001600160a01b031916905501905550600192506112e2915050565b50611cee8161991e565b9050611beb565b50505b5060019392505050565b6000611d0c616f7d565b611d17826000616fd7565b506001919050565b60006101318681548110611d3557611d35619892565b60009182526020909120601890910201601781015490915060ff16158015611d5f57506003810154155b611dab5760405162461bcd60e51b815260206004820152601860248201527f506f6f6c20616c726561647920696e697469616c697a656400000000000000006044820152606401611230565b60008461ffff16118015611dc557506127108461ffff1611155b611e045760405162461bcd60e51b815260206004820152601060248201526f415059206f7574206f662072616e676560801b6044820152606401611230565b8054611e1b90600160a01b900460ff16600a619a1b565b611e26906064619a2a565b8510158015611e5857508054611e4790600160a01b900460ff16600a619a1b565b611e549062989680619a2a565b8511155b611e9c5760405162461bcd60e51b8152602060048201526015602482015274506f6f6c20636170206f7574206f662072616e676560581b6044820152606401611230565b60018101546001600160a01b03163314611ec85760405162461bcd60e51b815260040161123090619a41565b6000611ed8868661ffff16614877565b90506000612710611eeb6103e884619a2a565b611ef59190619a7f565b9050611f193330611f06858961987f565b86546001600160a01b0316929190616cce565b5084836006016000016000828254611f31919061987f565b909155505060038301879055825461ffff60a81b1916600160a81b61ffff88160217835560178301805460ff1916600117905560088301829055611f7581836198f5565b6009840155611f888861ffff881661715a565b835115611f9c57611f9a8885876171b1565b505b5050505050505050565b6000611fb0616f7d565b6001600160a01b038716600090815261013d602052604090205460ff166120115760405162461bcd60e51b81526020600482015260156024820152741d1bdad95b881b9bdd081dda1a5d195b1a5cdd1959605a1b6044820152606401611230565b61138883111561205b5760405162461bcd60e51b81526020600482015260156024820152740e4cacccae4e4c2d840cccaca40e8dede40d0d2ced605b1b6044820152606401611230565b60408051600481526024810182526020810180516001600160e01b031663313ce56760e01b17905290516000916001600160a01b038a169161209d9190619aa1565b600060405180830381855afa9150503d80600081146120d8576040519150601f19603f3d011682016040523d82523d6000602084013e6120dd565b606091505b509150506000818060200190518101906120f79190619abd565b905060068160ff1610156121465760405162461bcd60e51b815260206004820152601660248201527524b73b30b634b2103232b1b4b6b0b6103932ba3ab93760511b6044820152606401611230565b61214e618e89565b80516001600160a01b03808c16909152815160ff80851660209283015283518c8416606091820152845160809081018d905260a0860180518d87169052805185018c90525160409081018b905261013180546001810182556000919091528751805160189092027fbd987ad6ccdb7c7567f7335ea839f95dc944431abcf935b6924f70215963db7381018054988301519483015161ffff16600160a81b0261ffff60a81b1995909816600160a01b026001600160a81b0319909916938a16939093179790971792909216949094178455918201517fbd987ad6ccdb7c7567f7335ea839f95dc944431abcf935b6924f70215963db7485018054919096166001600160a01b03199190911617909455928301518493919283917fbd987ad6ccdb7c7567f7335ea839f95dc944431abcf935b6924f70215963db75909101906122959082619b2e565b5060a0820151600382015560c0820151600482015560e0909101516005909101556020828101518051600684015581015160078301556040808401518051600885015582015160098401556060808501518051600a86015580840151600b86015580830151600c860155810151600d8501805460ff191691151591909117905560808501518051600e860190815581850151600f870155928101516010860155908101518051919361234f92601187019290910190618fba565b50505060a082015180516012830180546001600160a01b0319166001600160a01b039092169190911790556020808201516013840155604090910151601483015560c083015180516123a79260158501920190619005565b5060e08201516016820155610100909101516017909101805460ff1916911515919091179055610131546123dd906001906198f5565b9a9950505050505050505050565b6123f3616f7d565b61013980546001600160a01b0319166001600160a01b0392909216919091179055565b6001600160a01b037f000000000000000000000000000000000000000000000000000000000000000016300361245e5760405162461bcd60e51b815260040161123090619bee565b7f00000000000000000000000000000000000000000000000000000000000000006001600160a01b03166124a7600080516020619ece833981519152546001600160a01b031690565b6001600160a01b0316146124cd5760405162461bcd60e51b815260040161123090619c3a565b6124d681617350565b604080516000808252602082019092526124f291839190617358565b50565b600080610131838154811061250c5761250c619892565b6000918252602090912060408051610220810190915260189092020180546001600160a01b038082166101208501908152600160a01b830460ff16610140860152600160a81b90920461ffff1661016085015260018301541661018084015260028201805484929184916101a0850191906125869061982f565b80601f01602080910402602001604051908101604052809291908181526020018280546125b29061982f565b80156125ff5780601f106125d4576101008083540402835291602001916125ff565b820191906000526020600020905b8154815290600101906020018083116125e257829003601f168201915b505050918352505060038201546020808301919091526004830154604080840191909152600590930154606092830152928452815180830183526006860154815260078601548185015284840152815180830183526008860154815260098601548185015284830152815160808082018452600a8701548252600b87015482860152600c87015482850152600d87015460ff161515828401528583019190915282518082018452600e870180548252600f8801548287015260108801548286015260118801805486518189028101890190975280875293909701969195909493860193929083018282801561271357602002820191906000526020600020905b8154815260200190600101908083116126ff575b5050509190925250505081526040805160608101825260128401546001600160a01b031681526013840154602082810191909152601485015482840152808401919091526015840180548351818402810184018552818152939094019390918301828280156127ab57602002820191906000526020600020905b81546001600160a01b0316815260019091019060200180831161278d575b50505091835250506016820154602082015260179091015460ff1615156040909101525160a001519392505050565b60006127e4616f7d565b600061013185815481106127fa576127fa619892565b6000918252602082206004601890920201908101549092509061281c8761178c565b612826908361987f565b905060006127106128378784619a2a565b6128419190619a7f565b90508281036128e65760008881526101346020526040812054905b818110156128c85760008a81526101346020526040812080548390811061288557612885619892565b906000526020600020015490506000610133600083815260200190815260200160002090506128b58260006174c3565b600060019182015591909101905061285c565b506000600486018190556128e090601587019061905a565b50612b0d565b828110156129ed57600083612903670de0b6b3a764000084619a2a565b61290d9190619a7f565b60008a815261013460205260408120549192505b818110156129e55760008b81526101346020526040812080548390811061294a5761294a619892565b9060005260206000200154905060006101336000838152602001908152602001600020905061297a8260006174c3565b6000670de0b6b3a76400008683600101546129959190619a2a565b61299f9190619a7f565b9050808260010160008282546129b591906198f5565b909155505060048a0180548291906000906129d19084906198f5565b909155505060019093019250612921915050565b505050612b0d565b82811180156129fc5750818111155b15612ad35760008881526101346020526040812054905b81811015612a7f5760008a815261013460205260408120805483908110612a3c57612a3c619892565b90600052602060002001549050600061013360008381526020019081526020016000209050612a6c8260006174c3565b6000600191820155919091019050612a13565b50600060048601819055612a9790601587019061905a565b612aa0896175fc565b506000612aad85846198f5565b905080866006016000016000828254612ac691906198f5565b90915550612b0d92505050565b60405162461bcd60e51b815260206004820152600f60248201526e082dadeeadce840e8dede40d0d2ced608b1b6044820152606401611230565b6000612710612b1e6103e884619a2a565b612b289190619a7f565b90506000612b3682846198f5565b90506000806000612b478d86614bb7565b8b5492955090935091506001600160a01b0316612b65828285616d3c565b6001600160a01b0381166000908152610135602052604081208054869290612b8e90849061987f565b90915550508954612ba9906001600160a01b03168e8761775c565b506000612bb58f61178c565b60048c0154612bc4919061987f565b90508a60000160000160009054906101000a90046001600160a01b03166001600160a01b03168e6001600160a01b03167fbcbf239e05ac65bcc1a5612cd36d392b0a0aa8c93e027bc86e727687483424888a604051612c2591815260200190565b60405180910390a38e600080516020619eae8339815191528a83604051612c56929190918252602082015260400190565b60405180910390a25060019e9d5050505050505050505050505050565b61013e54600090815b81811015612ccd57600061013e8281548110612c9a57612c9a619892565b6000918252602090912001546001600160a01b03169050612cba81615799565b505080612cc69061991e565b9050612c7c565b50600191505090565b60008181526101326020526040812054610131805483928392909183919083908110612d0457612d04619892565b6000918252602090912060408051610220810190915260189092020180546001600160a01b038082166101208501908152600160a01b830460ff16610140860152600160a81b90920461ffff1661016085015260018301541661018084015260028201805484929184916101a085019190612d7e9061982f565b80601f0160208091040260200160405190810160405280929190818152602001828054612daa9061982f565b8015612df75780601f10612dcc57610100808354040283529160200191612df7565b820191906000526020600020905b815481529060010190602001808311612dda57829003601f168201915b505050918352505060038201546020808301919091526004830154604080840191909152600590930154606092830152928452815180830183526006860154815260078601548185015284840152815180830183526008860154815260098601548185015284830152815160808082018452600a8701548252600b87015482860152600c87015482850152600d87015460ff161515828401528583019190915282518082018452600e870180548252600f88015482870152601088015482860152601188018054865181890281018901909752808752939097019691959094938601939290830182828015612f0b57602002820191906000526020600020905b815481526020019060010190808311612ef7575b5050509190925250505081526040805160608101825260128401546001600160a01b03168152601384015460208281019190915260148501548284015280840191909152601584018054835181840281018401855281815293909401939091830182828015612fa357602002820191906000526020600020905b81546001600160a01b03168152600190910190602001808311612f85575b5050509183525050601682015460208083019190915260179092015460ff16151560409182015260008981526101338352818120825161010081018452815481526001820154948101949094526002810154928401929092526003820154606084015260048201546080840152600582015460a0840152600682015460c084015260079091015460e08084019190915283015192935090918103613047574261304d565b8260e001515b9050600061305f8360a00151836112d6565b90506301e13380816127108560600151866020015161307e9190619a2a565b6130889190619a7f565b6130929190619a2a565b61309c9190619a7f565b95508260800151866130ae919061987f565b97506127106130bf6103e8826198f5565b6130c9908a619a2a565b6130d39190619a7f565b965050505050509193909250565b6000806000806130f0856148ad565b93506130fb85616597565b91506131068561581a565b9250613111856124f5565b90509193509193565b6112d18383836040518060200160405280600081525061628f565b6001600160a01b037f000000000000000000000000000000000000000000000000000000000000000016300361317d5760405162461bcd60e51b815260040161123090619bee565b7f00000000000000000000000000000000000000000000000000000000000000006001600160a01b03166131c6600080516020619ece833981519152546001600160a01b031690565b6001600160a01b0316146131ec5760405162461bcd60e51b815260040161123090619c3a565b6131f582617350565b61320182826001617358565b5050565b600080610131858154811061321c5761321c619892565b6000918252602090912060408051610220810190915260189092020180546001600160a01b038082166101208501908152600160a01b830460ff16610140860152600160a81b90920461ffff1661016085015260018301541661018084015260028201805484929184916101a0850191906132969061982f565b80601f01602080910402602001604051908101604052809291908181526020018280546132c29061982f565b801561330f5780601f106132e45761010080835404028352916020019161330f565b820191906000526020600020905b8154815290600101906020018083116132f257829003601f168201915b505050918352505060038201546020808301919091526004830154604080840191909152600590930154606092830152928452815180830183526006860154815260078601548185015284840152815180830183526008860154815260098601548185015284830152815160808082018452600a8701548252600b87015482860152600c87015482850152600d87015460ff161515828401528583019190915282518082018452600e870180548252600f8801548287015260108801548286015260118801805486518189028101890190975280875293909701969195909493860193929083018282801561342357602002820191906000526020600020905b81548152602001906001019080831161340f575b5050509190925250505081526040805160608101825260128401546001600160a01b031681526013840154602082810191909152601485015482840152808401919091526015840180548351818402810184018552818152939094019390918301828280156134bb57602002820191906000526020600020905b81546001600160a01b0316815260019091019060200180831161349d575b50505091835250506016820154602082015260179091015460ff16151560409091015290508260006134ed878761778f565b50905060006134fc838361987f565b9050600061350b826021619a2a565b61351d90674563918244f4000061987f565b9050600061352c856021619a2a565b61353e90674563918244f4000061987f565b9050600061355361354e846177ec565b617835565b9050600061356361354e846177ec565b905060006135a161357460216177ec565b61359b613581868661786d565b6135956a295be96e640669720000006177ec565b9061787c565b9061788b565b905060006135b288620f4240619a2a565b6135bc9083619a7f565b8a5160e00151909150670de0b6b3a76400006135d88284619a2a565b6135e29190619a7f565b9f9e505050505050505050505050505050565b6000306001600160a01b037f000000000000000000000000000000000000000000000000000000000000000016146136955760405162461bcd60e51b815260206004820152603860248201527f555550535570677261646561626c653a206d757374206e6f742062652063616c60448201527f6c6564207468726f7567682064656c656761746563616c6c00000000000000006064820152608401611230565b50600080516020619ece83398151915290565b60008061013184815481106136bf576136bf619892565b90600052602060002090601802019050826136d98561178c565b10156137275760405162461bcd60e51b815260206004820152601a60248201527f416d6f756e7420626967676572207468616e206465706f7369740000000000006044820152606401611230565b60018101546001600160a01b031633146137535760405162461bcd60e51b815260040161123090619a41565b61376062093a804261987f565b600a82015561377262093a804261987f565b61377f906203f48061987f565b600b820155600c8101839055600d8101805460ff1916905560405183815284907fb3b9c925de3673837b40c6b4d4463a8f88dc821cd27e07f1ff6bf6abf96413a59060200160405180910390a25060019392505050565b60008061013184815481106137ed576137ed619892565b6000918252602090912060408051610220810190915260189092020180546001600160a01b038082166101208501908152600160a01b830460ff16610140860152600160a81b90920461ffff1661016085015260018301541661018084015260028201805484929184916101a0850191906138679061982f565b80601f01602080910402602001604051908101604052809291908181526020018280546138939061982f565b80156138e05780601f106138b5576101008083540402835291602001916138e0565b820191906000526020600020905b8154815290600101906020018083116138c357829003601f168201915b505050918352505060038201546020808301919091526004830154604080840191909152600590930154606092830152928452815180830183526006860154815260078601548185015284840152815180830183526008860154815260098601548185015284830152815160808082018452600a8701548252600b87015482860152600c87015482850152600d87015460ff161515828401528583019190915282518082018452600e870180548252600f880154828701526010880154828601526011880180548651818902810189019097528087529390970196919590949386019392908301828280156139f457602002820191906000526020600020905b8154815260200190600101908083116139e0575b5050509190925250505081526040805160608101825260128401546001600160a01b03168152601384015460208281019190915260148501548284015280840191909152601584018054835181840281018401855281815293909401939091830182828015613a8c57602002820191906000526020600020905b81546001600160a01b03168152600190910190602001808311613a6e575b50505091835250506016820154602082015260179091015460ff1615156040909101526080810151519091506000613ac4868661778f565b5090506000613ad3838361987f565b90506000613ae2826021619a2a565b613af490674563918244f4000061987f565b90506000613b03856021619a2a565b613b1590674563918244f4000061987f565b90506000613b2561354e846177ec565b90506000613b3561354e846177ec565b90506000613b4661357460216177ec565b90506000613b5788620f4240619a2a565b613b619083619a7f565b8a5160e00151909150670de0b6b3a7640000613b7d8284619a2a565b613b879190619a7f565b9e9d5050505050505050505050505050565b613ba1616f7d565b60006101318381548110613bb757613bb7619892565b9060005260206000209060180201905080601201600201548211613c1d5760405162461bcd60e51b815260206004820152601860248201527f63616e206f6e6c7920657874656e6420656e642074696d6500000000000000006044820152606401611230565b6014015550565b600081815260ff60205260408120546001600160a01b0316806110fc5760405162461bcd60e51b8152602060048201526018602482015277115490cdcc8c4e881a5b9d985b1a59081d1bdad95b88125160421b6044820152606401611230565b6000806101318381548110613c9b57613c9b619892565b6000918252602090912060408051610220810190915260189092020180546001600160a01b038082166101208501908152600160a01b830460ff16610140860152600160a81b90920461ffff1661016085015260018301541661018084015260028201805484929184916101a085019190613d159061982f565b80601f0160208091040260200160405190810160405280929190818152602001828054613d419061982f565b8015613d8e5780601f10613d6357610100808354040283529160200191613d8e565b820191906000526020600020905b815481529060010190602001808311613d7157829003601f168201915b505050918352505060038201546020808301919091526004830154604080840191909152600590930154606092830152928452815180830183526006860154815260078601548185015284840152815180830183526008860154815260098601548185015284830152815160808082018452600a8701548252600b87015482860152600c87015482850152600d87015460ff161515828401528583019190915282518082018452600e870180548252600f88015482870152601088015482860152601188018054865181890281018901909752808752939097019691959094938601939290830182828015613ea257602002820191906000526020600020905b815481526020019060010190808311613e8e575b5050509190925250505081526040805160608101825260128401546001600160a01b03168152601384015460208281019190915260148501548284015280840191909152601584018054835181840281018401855281815293909401939091830182828015613f3a57602002820191906000526020600020905b81546001600160a01b03168152600190910190602001808311613f1c575b50505091835250506016820154602082015260179091015460ff1615156040909101529050613f688361178c565b815160c001516112e2919061987f565b60006001600160a01b038216613fe25760405162461bcd60e51b815260206004820152602960248201527f4552433732313a2061646472657373207a65726f206973206e6f7420612076616044820152683634b21037bbb732b960b91b6064820152608401611230565b506001600160a01b03166000908152610100602052604090205490565b6001600160a01b038116600090815261013560209081526040808320546101368352818420546101379093529083205490918161403c848361987f565b614046919061987f565b93509193509193565b6101315460005b818110156132015761406781614f15565b6140708161991e565b9050614056565b60006140816178a3565b826000610131828154811061409857614098619892565b6000918252602090912060408051610220810190915260189092020180546001600160a01b038082166101208501908152600160a01b830460ff16610140860152600160a81b90920461ffff1661016085015260018301541661018084015260028201805484929184916101a0850191906141129061982f565b80601f016020809104026020016040519081016040528092919081815260200182805461413e9061982f565b801561418b5780601f106141605761010080835404028352916020019161418b565b820191906000526020600020905b81548152906001019060200180831161416e57829003601f168201915b505050918352505060038201546020808301919091526004830154604080840191909152600590930154606092830152928452815180830183526006860154815260078601548185015284840152815180830183526008860154815260098601548185015284830152815160808082018452600a8701548252600b87015482860152600c87015482850152600d87015460ff161515828401528583019190915282518082018452600e870180548252600f8801548287015260108801548286015260118801805486518189028101890190975280875293909701969195909493860193929083018282801561429f57602002820191906000526020600020905b81548152602001906001019080831161428b575b5050509190925250505081526040805160608101825260128401546001600160a01b0316815260138401546020828101919091526014850154828401528084019190915260158401805483518184028101840185528181529390940193909183018282801561433757602002820191906000526020600020905b81546001600160a01b03168152600190910190602001808311614319575b50505091835250506016820154602082015260179091015460ff1615156040909101526101008101519091506143a15760405162461bcd60e51b815260206004820152600f60248201526e706f6f6c206e6f742061637469766560881b6044820152606401611230565b600061013186815481106143b7576143b7619892565b60009182526020808320601890920290910180546001600160a01b0316835261013f9091526040909120549091508510156144285760405162461bcd60e51b8152602060048201526011602482015270135a5b881cdd185ad9481b9bdd081b595d607a1b6044820152606401611230565b60006144338761178c565b6004830154614442919061987f565b825490915061445c906001600160a01b0316333089616cce565b50600061446a8833896178fc565b905086836000016004016000828254614483919061987f565b90915550506003830154158015906144a357506003830154600484015411155b6144e55760405162461bcd60e51b8152602060048201526013602482015272115e18d959591959081c1bdbdb081b1a5b5a5d606a1b6044820152606401611230565b604051878152889033907f1449c6dd7851abc30abf37f57715f492010519147cc2652fbc38202c18a6ee909060200160405180910390a360006145278961178c565b6004850154614536919061987f565b60408051858152602081018390529192508a91600080516020619eae833981519152910160405180910390a2509450505050506110fc600160ca55565b600080610131838154811061458a5761458a619892565b6000918252602090912060408051610220810190915260189092020180546001600160a01b038082166101208501908152600160a01b830460ff16610140860152600160a81b90920461ffff1661016085015260018301541661018084015260028201805484929184916101a0850191906146049061982f565b80601f01602080910402602001604051908101604052809291908181526020018280546146309061982f565b801561467d5780601f106146525761010080835404028352916020019161467d565b820191906000526020600020905b81548152906001019060200180831161466057829003601f168201915b505050918352505060038201546020808301919091526004830154604080840191909152600590930154606092830152928452815180830183526006860154815260078601548185015284840152815180830183526008860154815260098601548185015284830152815160808082018452600a8701548252600b87015482860152600c87015482850152600d87015460ff161515828401528583019190915282518082018452600e870180548252600f8801548287015260108801548286015260118801805486518189028101890190975280875293909701969195909493860193929083018282801561479157602002820191906000526020600020905b81548152602001906001019080831161477d575b5050509190925250505081526040805160608101825260128401546001600160a01b0316815260138401546020828101919091526014850154828401528084019190915260158401805483518184028101840185528181529390940193909183018282801561482957602002820191906000526020600020905b81546001600160a01b0316815260019091019060200180831161480b575b50505091835250506016820154602082015260179091015460ff161515604090910152608081015151815160e001519192509061486582617b2b565b61486f9190619a2a565b949350505050565b60006301e1338061271062093a8061488f8587619a2a565b6148999190619a2a565b6148a39190619a7f565b6112e29190619a7f565b60008061013183815481106148c4576148c4619892565b6000918252602090912060408051610220810190915260189092020180546001600160a01b038082166101208501908152600160a01b830460ff16610140860152600160a81b90920461ffff1661016085015260018301541661018084015260028201805484929184916101a08501919061493e9061982f565b80601f016020809104026020016040519081016040528092919081815260200182805461496a9061982f565b80156149b75780601f1061498c576101008083540402835291602001916149b7565b820191906000526020600020905b81548152906001019060200180831161499a57829003601f168201915b505050918352505060038201546020808301919091526004830154604080840191909152600590930154606092830152928452815180830183526006860154815260078601548185015284840152815180830183526008860154815260098601548185015284830152815160808082018452600a8701548252600b87015482860152600c87015482850152600d87015460ff161515828401528583019190915282518082018452600e870180548252600f88015482870152601088015482860152601188018054865181890281018901909752808752939097019691959094938601939290830182828015614acb57602002820191906000526020600020905b815481526020019060010190808311614ab7575b5050509190925250505081526040805160608101825260128401546001600160a01b03168152601384015460208281019190915260148501548284015280840191909152601584018054835181840281018401855281815293909401939091830182828015614b6357602002820191906000526020600020905b81546001600160a01b03168152600190910190602001808311614b45575b50505091835250506016820154602082015260179091015460ff1615156040909101529050612710614b976103e8826198f5565b602083015151835160c00151614bad919061987f565b6148a39190619a2a565b6000806000806101318681548110614bd157614bd1619892565b6000918252602090912060408051610220810190915260189092020180546001600160a01b038082166101208501908152600160a01b830460ff16610140860152600160a81b90920461ffff1661016085015260018301541661018084015260028201805484929184916101a085019190614c4b9061982f565b80601f0160208091040260200160405190810160405280929190818152602001828054614c779061982f565b8015614cc45780601f10614c9957610100808354040283529160200191614cc4565b820191906000526020600020905b815481529060010190602001808311614ca757829003601f168201915b505050918352505060038201546020808301919091526004830154604080840191909152600590930154606092830152928452815180830183526006860154815260078601548185015284840152815180830183526008860154815260098601548185015284830152815160808082018452600a8701548252600b87015482860152600c87015482850152600d87015460ff161515828401528583019190915282518082018452600e870180548252600f88015482870152601088015482860152601188018054865181890281018901909752808752939097019691959094938601939290830182828015614dd857602002820191906000526020600020905b815481526020019060010190808311614dc4575b5050509190925250505081526040805160608101825260128401546001600160a01b03168152601384015460208281019190915260148501548284015280840191909152601584018054835181840281018401855281815293909401939091830182828015614e7057602002820191906000526020600020905b81546001600160a01b03168152600190910190602001808311614e52575b50505091835250506016820154602082015260179091015460ff16151560409182015260a08201518051910151919250906001600160a01b0382161580614eb657504281105b15614ecc5750859450600093509150614f0e9050565b60006127108460a001516020015189614ee59190619a2a565b614eef9190619a7f565b90506000614efd828a6198f5565b9750909550919350614f0e92505050565b9250925092565b60006101318281548110614f2b57614f2b619892565b6000918252602090912060408051610220810190915260189092020180546001600160a01b038082166101208501908152600160a01b830460ff16610140860152600160a81b90920461ffff1661016085015260018301541661018084015260028201805484929184916101a085019190614fa59061982f565b80601f0160208091040260200160405190810160405280929190818152602001828054614fd19061982f565b801561501e5780601f10614ff35761010080835404028352916020019161501e565b820191906000526020600020905b81548152906001019060200180831161500157829003601f168201915b505050918352505060038201546020808301919091526004830154604080840191909152600590930154606092830152928452815180830183526006860154815260078601548185015284840152815180830183526008860154815260098601548185015284830152815160808082018452600a8701548252600b87015482860152600c87015482850152600d87015460ff161515828401528583019190915282518082018452600e870180548252600f8801548287015260108801548286015260118801805486518189028101890190975280875293909701969195909493860193929083018282801561513257602002820191906000526020600020905b81548152602001906001019080831161511e575b5050509190925250505081526040805160608101825260128401546001600160a01b031681526013840154602082810191909152601485015482840152808401919091526015840180548351818402810184018552818152939094019390918301828280156151ca57602002820191906000526020600020905b81546001600160a01b031681526001909101906020018083116151ac575b50505091835250506016820154602082015260179091015460ff16151560409091015260808101516060015180519192509080158061520c5750826101000151155b156152175750505050565b60005b818110156152545761524483828151811061523757615237619892565b6020026020010151617b80565b61524d8161991e565b905061521a565b50600084815261013460209081526040808320805482518185028101850190935280835291929091908301828280156152ac57602002820191906000526020600020905b815481526020019060010190808311615298575b5050835193945060009250829150505b828110156153325760008482815181106152d8576152d8619892565b602090810291909101810151600081815261013390925260409091206001810154919250906153088b8287613205565b6003830155600282015461531c908661987f565b94505050508061532b9061991e565b90506152bc565b5080610131888154811061534857615348619892565b600091825260209091206010601890920201015561013180548890811061537157615371619892565b9060005260206000209060180201600e016003016000615391919061905a565b50505050505050565b606060fe80546111119061982f565b61013460205281600052604060002081815481106153c657600080fd5b90600052602060002001600091509150505481565b60008061013184815481106153f2576153f2619892565b6000918252602090912060189091020160018101549091506001600160a01b031633146154315760405162461bcd60e51b815260040161123090619a41565b600a810154421180156154475750600b81015442105b80156154585750600d81015460ff16155b80156154685750600c8101548311155b80156154775750600a81015415155b6154935760405162461bcd60e51b815260040161123090619c86565b600d8101805460ff1916600117905560068101548311156154b9576154b7846175fc565b505b60006154c48561178c565b60048301546154d3919061987f565b9050838260060160000160008282546154ec91906198f5565b90915550506001820154825461550f916001600160a01b0391821691168661775c565b50600061551b8661178c565b600484015461552a919061987f565b60408051848152602081018390529192508791600080516020619eae833981519152910160405180910390a250600195945050505050565b600061556c6178a3565b3361557684613c24565b6001600160a01b0316146155c25760405162461bcd60e51b815260206004820152601360248201527239b2b73232b91034b9903737ba1037bbb732b960691b6044820152606401611230565b600083815261013260205260408120546101318054919291839081106155ea576155ea619892565b906000526020600020906018020190506000610133600087815260200190815260200160002090504281600601541080156156285750428160070154115b6156445760405162461bcd60e51b815260040161123090619c86565b61564e86866174c3565b6001810180546000918290556006830182905560078301829055906156728561178c565b6004850154615681919061987f565b905086156156925761569288617d46565b81156156c45760048401546156a79083616cc2565b600485015583546156c2906001600160a01b0316338461775c565b505b604051828152859033907f7fc4727e062e336010f2c282598ef5f14facb3de68cf8195c2f23e1454b2b74e9060200160405180910390a360006157068661178c565b6004860154615715919061987f565b60408051848152602081018390529192508791600080516020619eae833981519152910160405180910390a250505060119091018054600181810183556000928352602090922001869055925050506110fc600160ca55565b61013e818154811061577f57600080fd5b6000918252602090912001546001600160a01b0316905081565b336000818152610138602090815260408083206001600160a01b0386168085529252822080549083905591926157d091908361775c565b5060405181815233907fbf7aaef98dccc47249def450ef0fd30757d553648a28fa7cd56e3b2b052724949060200160405180910390a250600192915050565b613201338383617de9565b600080610131838154811061583157615831619892565b6000918252602090912060408051610220810190915260189092020180546001600160a01b038082166101208501908152600160a01b830460ff16610140860152600160a81b90920461ffff1661016085015260018301541661018084015260028201805484929184916101a0850191906158ab9061982f565b80601f01602080910402602001604051908101604052809291908181526020018280546158d79061982f565b80156159245780601f106158f957610100808354040283529160200191615924565b820191906000526020600020905b81548152906001019060200180831161590757829003601f168201915b505050918352505060038201546020808301919091526004830154604080840191909152600590930154606092830152928452815180830183526006860154815260078601548185015284840152815180830183526008860154815260098601548185015284830152815160808082018452600a8701548252600b87015482860152600c87015482850152600d87015460ff161515828401528583019190915282518082018452600e870180548252600f88015482870152601088015482860152601188018054865181890281018901909752808752939097019691959094938601939290830182828015615a3857602002820191906000526020600020905b815481526020019060010190808311615a24575b5050509190925250505081526040805160608101825260128401546001600160a01b03168152601384015460208281019190915260148501548284015280840191909152601584018054835181840281018401855281815293909401939091830182828015615ad057602002820191906000526020600020905b81546001600160a01b03168152600190910190602001808311615ab2575b50505091835250506016820154602082015260179091015460ff1615156040918201529051015161ffff169392505050565b6000806000806101318581548110615b1c57615b1c619892565b6000918252602090912060408051610220810190915260189092020180546001600160a01b038082166101208501908152600160a01b830460ff16610140860152600160a81b90920461ffff1661016085015260018301541661018084015260028201805484929184916101a085019190615b969061982f565b80601f0160208091040260200160405190810160405280929190818152602001828054615bc29061982f565b8015615c0f5780601f10615be457610100808354040283529160200191615c0f565b820191906000526020600020905b815481529060010190602001808311615bf257829003601f168201915b505050918352505060038201546020808301919091526004830154604080840191909152600590930154606092830152928452815180830183526006860154815260078601548185015284840152815180830183526008860154815260098601548185015284830152815160808082018452600a8701548252600b87015482860152600c87015482850152600d87015460ff161515828401528583019190915282518082018452600e870180548252600f88015482870152601088015482860152601188018054865181890281018901909752808752939097019691959094938601939290830182828015615d2357602002820191906000526020600020905b815481526020019060010190808311615d0f575b5050509190925250505081526040805160608101825260128401546001600160a01b03168152601384015460208281019190915260148501548284015280840191909152601584018054835181840281018401855281815293909401939091830182828015615dbb57602002820191906000526020600020905b81546001600160a01b03168152600190910190602001808311615d9d575b5050509183525050601682015460208083019190915260179092015460ff1615156040918201526060909201518051918101519201519097919650945092505050565b60006101318481548110615e1457615e14619892565b6000918252602090912060189091020160018101549091506001600160a01b03163314615e535760405162461bcd60e51b815260040161123090619a41565b6000615e5e8561178c565b6004830154615e6d919061987f565b8254909150615e87906001600160a01b0316333087616cce565b5083826006016000016000828254615e9f919061987f565b9091555060009050615eb08661178c565b6004840154615ebf919061987f565b9050615ecc8685876171b1565b5060408051838152602081018390528791600080516020619eae833981519152910160405180910390a2505050505050565b6000806000806101318581548110615f1857615f18619892565b6000918252602090912060408051610220810190915260189092020180546001600160a01b038082166101208501908152600160a01b830460ff16610140860152600160a81b90920461ffff1661016085015260018301541661018084015260028201805484929184916101a085019190615f929061982f565b80601f0160208091040260200160405190810160405280929190818152602001828054615fbe9061982f565b801561600b5780601f10615fe05761010080835404028352916020019161600b565b820191906000526020600020905b815481529060010190602001808311615fee57829003601f168201915b505050918352505060038201546020808301919091526004830154604080840191909152600590930154606092830152928452815180830183526006860154815260078601548185015284840152815180830183526008860154815260098601548185015284830152815160808082018452600a8701548252600b87015482860152600c87015482850152600d87015460ff161515828401528583019190915282518082018452600e870180548252600f8801548287015260108801548286015260118801805486518189028101890190975280875293909701969195909493860193929083018282801561611f57602002820191906000526020600020905b81548152602001906001019080831161610b575b5050509190925250505081526040805160608101825260128401546001600160a01b031681526013840154602082810191909152601485015482840152808401919091526015840180548351818402810184018552818152939094019390918301828280156161b757602002820191906000526020600020905b81546001600160a01b03168152600190910190602001808311616199575b50505091835250506016820154602082015260179091015460ff161515604091820152815160a08101519101519192506161f49161ffff16614877565b60409091015180516020909101519196909550909350915050565b6034546001600160a01b031633146162785760405162461bcd60e51b815260206004820152602660248201527f6f6e6c792070656e64696e67206f776e65722063616e2061636365707420747260448201526530b739b332b960d11b6064820152608401611230565b60345461628d906001600160a01b0316617eb8565b565b6162993383616d8d565b6162b55760405162461bcd60e51b8152600401611230906198a8565b6162c184848484617f15565b50505050565b60008061013183815481106162de576162de619892565b6000918252602090912060189091020160018101549091506001600160a01b031633148061631657506033546001600160a01b031633145b6163325760405162461bcd60e51b815260040161123090619a41565b601781015460ff166163785760405162461bcd60e51b815260206004820152600f60248201526e506f6f6c206e6f742061637469766560881b6044820152606401611230565b60178101805460ff1916905542601690910155506001919050565b600054610100900460ff16158080156163b35750600054600160ff909116105b806163cd5750303b1580156163cd575060005460ff166001145b6164305760405162461bcd60e51b815260206004820152602e60248201527f496e697469616c697a61626c653a20636f6e747261637420697320616c72656160448201526d191e481a5b9a5d1a585b1a5e995960921b6064820152608401611230565b6000805460ff191660011790558015616453576000805461ff0019166101001790555b61645b617f48565b61013980546001600160a01b0319166001600160a01b0384161790558015613201576000805461ff0019169055604051600181527f7f26b83ff96e1f2b6a682f133852f6798a09c465da95921460cefb38474024989060200160405180910390a15050565b60606164cb82616bf4565b60006164e260408051602081019091526000815290565b9050600081511161650257604051806020016040528060008152506112e2565b8061650c84617f77565b60405160200161651d929190619ccf565b6040516020818303038152906040529392505050565b600061653d616f7d565b600061654884613fff565b5050506001600160a01b038516600081815261013560209081526040808320839055610136825280832083905561013790915281205590915061658c90848361775c565b506001949350505050565b60008061013183815481106165ae576165ae619892565b6000918252602090912060408051610220810190915260189092020180546001600160a01b038082166101208501908152600160a01b830460ff16610140860152600160a81b90920461ffff1661016085015260018301541661018084015260028201805484929184916101a0850191906166289061982f565b80601f01602080910402602001604051908101604052809291908181526020018280546166549061982f565b80156166a15780601f10616676576101008083540402835291602001916166a1565b820191906000526020600020905b81548152906001019060200180831161668457829003601f168201915b505050918352505060038201546020808301919091526004830154604080840191909152600590930154606092830152928452815180830183526006860154815260078601548185015284840152815180830183526008860154815260098601548185015284830152815160808082018452600a8701548252600b87015482860152600c87015482850152600d87015460ff161515828401528583019190915282518082018452600e870180548252600f880154828701526010880154828601526011880180548651818902810189019097528087529390970196919590949386019392908301828280156167b557602002820191906000526020600020905b8154815260200190600101908083116167a1575b5050509190925250505081526040805160608101825260128401546001600160a01b0316815260138401546020828101919091526014850154828401528084019190915260158401805483518184028101840185528181529390940193909183018282801561684d57602002820191906000526020600020905b81546001600160a01b0316815260019091019060200180831161682f575b50505091835250506016820154602082015260179091015460ff1615156040909101525160c001519392505050565b600081815261013b602090815260408083205461013a8352818420818552909252909120546001600160a01b031680156112d157806001600160a01b031663f69e20466040518163ffffffff1660e01b81526004016020604051808303816000875af11580156168f0573d6000803e3d6000fd5b505050506040513d601f19601f820116820180604052508101906162c19190619cfe565b6001600160a01b03811660009081526101046020908152604080832080548251818502810185019093528083526060949383018282801561697457602002820191906000526020600020905b815481526020019060010190808311616960575b50508351939450839250505067ffffffffffffffff81111561699857616998619442565b6040519080825280602002602001820160405280156169d157816020015b6169be619078565b8152602001906001900390816169b65790505b5092506000805b82811015616aa55761013360008583815181106169f7576169f7619892565b602002602001015181526020019081526020016000206040518061010001604052908160008201548152602001600182015481526020016002820154815260200160038201548152602001600482015481526020016005820154815260200160068201548152602001600782015481525050858381518110616a7b57616a7b619892565b60200260200101819052508180616a919061991e565b92505080616a9e9061991e565b90506169d8565b50505050919050565b6000616ab8616f7d565b61013e5460005b81811015611cf857600061013e8281548110616add57616add619892565b6000918252602090912001546001600160a01b03169050616afe8186616533565b505080616b0a9061991e565b9050616abf565b616b19616f7d565b6001600160a01b038116616b7e5760405162461bcd60e51b815260206004820152602660248201527f4f776e61626c653a206e6577206f776e657220697320746865207a65726f206160448201526564647265737360d01b6064820152608401611230565b603480546001600160a01b0319166001600160a01b0392909216919091179055565b616ba86178a3565b616bb38160016174c3565b6124f2600160ca55565b6101315460005b8181101561320157616bd58161687c565b616bde8161991e565b9050616bc4565b6001600160a01b03163b151590565b600081815260ff60205260409020546001600160a01b03166124f25760405162461bcd60e51b8152602060048201526018602482015277115490cdcc8c4e881a5b9d985b1a59081d1bdad95b88125160421b6044820152606401611230565b60008181526101016020526040902080546001600160a01b0319166001600160a01b0384169081179091558190616c8982613c24565b6001600160a01b03167f8c5be1e5ebec7d5bd14f71427d1e84f3dd0314c0f7b2291e5b200ac8c7c3b92560405160405180910390a45050565b60006112e282846198f5565b6040516001600160a01b038085166024830152831660448201526064810182905260009061658c9086906323b872dd60e01b906084015b60408051601f198184030181529190526020810180516001600160e01b03166001600160e01b031990931692909217909152618008565b6001600160a01b038316156112d1576001600160a01b0380841660009081526101386020908152604080832093861683529290529081208054839290616d8390849061987f565b9091555050505050565b600080616d9983613c24565b9050806001600160a01b0316846001600160a01b03161480616de157506001600160a01b038082166000908152610102602090815260408083209388168352929052205460ff165b8061486f5750836001600160a01b0316616dfa84611194565b6001600160a01b031614949350505050565b826001600160a01b0316616e1f82613c24565b6001600160a01b031614616e455760405162461bcd60e51b815260040161123090619d17565b6001600160a01b038216616ea75760405162461bcd60e51b8152602060048201526024808201527f4552433732313a207472616e7366657220746f20746865207a65726f206164646044820152637265737360e01b6064820152608401611230565b616eb28383836180da565b826001600160a01b0316616ec582613c24565b6001600160a01b031614616eeb5760405162461bcd60e51b815260040161123090619d17565b60008181526101016020908152604080832080546001600160a01b03199081169091556001600160a01b03878116808652610100855283862080546000190190559087168086528386208054600101905586865260ff90945282852080549092168417909155905184937fddf252ad1be2c89b69c2b068fc378daa952ba7f163c4a11628f55a4df523b3ef91a4505050565b6033546001600160a01b0316331461628d5760405162461bcd60e51b815260206004820181905260248201527f4f776e61626c653a2063616c6c6572206973206e6f7420746865206f776e65726044820152606401611230565b60006101318381548110616fed57616fed619892565b6000918252602082206018919091020160088101546003820154825492945085926170239190600160a81b900461ffff16614877565b61702d91906198f5565b617037919061987f565b60018301548354919250617059916001600160a01b0390811691163084616cce565b50600061271061706b6103e884619a2a565b6170759190619a7f565b90508183600801600001600082825461708e919061987f565b909155506000905080806170a28885614bb7565b885492955090935091506001600160a01b03166170c0828285616d3c565b6001600160a01b03811660009081526101366020526040812080548692906170e990849061987f565b90915550600090506170fb86886198f5565b905080886008016001016000828254617114919061987f565b90915550506040518781528a907fadb049ad2d09be3db90459a16aef1ad0a4d89e8fdcc1ade9429d6cc55abbcd2b9060200160405180910390a250505050505050505050565b6000670eb5e06245ea0000617177670de0b6b3a764000084619a2a565b6171819190619a7f565b905080610131848154811061719857617198619892565b6000918252602090912060056018909202010155505050565b60008061013185815481106171c8576171c8619892565b906000526020600020906018020190506000846040516020016171eb91906191a3565b60408051601f198184030181529181528151602092830120600089815261013b909352912054909150808214617346576000617226886175fc565b905060006172348989618171565b90506001600160a01b038116156173265780617250838961987f565b6006870180546000906172649084906198f5565b9091555060019050617276848a61987f565b61728091906198f5565b60078701805460009061729490849061987f565b909155506172ba9050826172a8858b61987f565b88546001600160a01b0316919061775c565b50806001600160a01b0316630b5090076040518163ffffffff1660e01b81526004016020604051808303816000875af11580156172fb573d6000803e3d6000fd5b505050506040513d601f19601f8201168201806040525081019061731f9190619cfe565b5050617343565b8685600601600001600082825461733d919061987f565b90915550505b50505b5050509392505050565b6124f2616f7d565b7f4910fdfa16fed3260ed0e7147f7cc6da11a60208b5b9406d12a635614ffd91435460ff161561738b576112d1836182f7565b826001600160a01b03166352d1902d6040518163ffffffff1660e01b8152600401602060405180830381865afa9250505080156173e5575060408051601f3d908101601f191682019092526173e291810190619cfe565b60015b6174485760405162461bcd60e51b815260206004820152602e60248201527f45524331393637557067726164653a206e657720696d706c656d656e7461746960448201526d6f6e206973206e6f74205555505360901b6064820152608401611230565b600080516020619ece83398151915281146174b75760405162461bcd60e51b815260206004820152602960248201527f45524331393637557067726164653a20756e737570706f727465642070726f786044820152681a58589b195555525160ba1b6064820152608401611230565b506112d1838383618393565b600082815261013260205260408120546101318054919291839081106174eb576174eb619892565b6000918252602080832087845261013390915260408320601890920201925090808061751688612cd6565b925092509250866175645784601601546000036175335742617539565b84601601545b846005018190555080846004016000828254617555919061987f565b90915550505050505050505050565b600885015483111561757a5761757a8684616fd7565b8215611f9c576000600485018190556016860154900361759a57426175a0565b84601601545b60058501556008850180548491906000906175bc9084906198f5565b90915550506009850180548391906000906175d89084906198f5565b90915550611f9a90506175ea89613c24565b86546001600160a01b0316908461775c565b600080610131838154811061761357617613619892565b6000918252602080832086845261013b90915260408320546018909202019250801561775457600085815261013a602090815260408083208484528252808320548151637f1f087360e01b815291516001600160a01b0390911693928492637f1f08739260048083019392829003018187875af1158015617698573d6000803e3d6000fd5b505050506040513d601f19601f820116820180604052508101906176bc9190619cfe565b6040516348b1933560e01b8152600481018290529091506001600160a01b038316906348b19335906024016020604051808303816000875af1158015617706573d6000803e3d6000fd5b505050506040513d601f19601f8201168201806040525081019061772a9190619cfe565b600060078701819055600687018054929650869290919061774c90849061987f565b909155505050505b509392505050565b6040516001600160a01b038316602482015260448101829052600090611cf890859063a9059cbb60e01b90606401616d05565b60008061013184815481106177a6576177a6619892565b60009182526020909120600360189092020101546177cc670de0b6b3a764000085619a2a565b6177d69190619a7f565b90506177e3816005619a2a565b91509250929050565b6000617802670de0b6b3a7640000600019619a7f565b821115617825576040516322630c4560e01b815260048101839052602401611230565b670de0b6b3a764000082026110fc565b60006110fc6714057b7ef767814f670de0b6b3a764000061785b617858866183b8565b90565b028161786957617869619a69565b0490565b60006112e261785883856198f5565b60006112e261785884846184f0565b60006112e261785884670de0b6b3a7640000856185a4565b600260ca54036178f55760405162461bcd60e51b815260206004820152601f60248201527f5265656e7472616e637947756172643a207265656e7472616e742063616c6c006044820152606401611230565b600260ca55565b60006001600160a01b0383166179545760405162461bcd60e51b815260206004820152601f60248201527f45524332303a206d696e7420746f20746865207a65726f2061646472657373006044820152606401611230565b600061796085846137d6565b9050600061796d85618678565b9050617977619078565b86815260208101859052600061798d888761778f565b509050674563918244f40000816101318a815481106179ae576179ae619892565b9060005260206000209060180201600e01600201546179cd919061987f565b1115617a115760405162461bcd60e51b81526020600482015260136024820152721608189bdd5b99185c9e481d9a5bdb185d1959606a1b6044820152606401611230565b6040808301828152606084018681524260a086019081526000878152610133602090815285822088518155818901516001808301919091559551600282015593516003850155608088015160048501559151600584015560c0870151600684015560e08701516007909301929092558b825261013481528382208054938401815582528082209092018690558581526101329091522088905561013180548291908a908110617ac257617ac2619892565b9060005260206000209060180201600e016002016000828254617ae5919061987f565b92505081905550617b1e886101318a81548110617b0457617b04619892565b9060005260206000209060180201600e016002015461882b565b5091979650505050505050565b600080670de0b6b3a7640000617b4984670928ca80cfc20000619a2a565b617b539190619a7f565b617b659067016345785d8a000061987f565b90506112e2816ec097ce7bc90715b34b9f1000000000619a7f565b6000818152610132602090815260408083205480845261013483528184208054835181860281018601909452808452919493909190830182828015617be457602002820191906000526020600020905b815481526020019060010190808311617bd0575b5050835193945060009250829150505b82811015617c345785848281518110617c0f57617c0f619892565b602002602001015103617c2457809150617c34565b617c2d8161991e565b9050617bf4565b50818110617c845760405162461bcd60e51b815260206004820152601860248201527f546f6b656e206e6f7420666f756e6420696e20617272617900000000000000006044820152606401611230565b805b617c916001846198f5565b811015617ce95783617ca482600161987f565b81518110617cb457617cb4619892565b6020026020010151848281518110617cce57617cce619892565b6020908102919091010152617ce28161991e565b9050617c86565b506000848152610134602090815260409091208451617d0a92860190618fba565b50600084815261013460205260409020805480617d2957617d29619908565b600190038181906000526020600020016000905590555050505050565b6000617d5182613c24565b9050617d5f816000846180da565b617d6882613c24565b60008381526101016020908152604080832080546001600160a01b03199081169091556001600160a01b0385168085526101008452828520805460001901905587855260ff909352818420805490911690555192935084927fddf252ad1be2c89b69c2b068fc378daa952ba7f163c4a11628f55a4df523b3ef908390a45050565b816001600160a01b0316836001600160a01b031603617e4a5760405162461bcd60e51b815260206004820152601960248201527f4552433732313a20617070726f766520746f2063616c6c6572000000000000006044820152606401611230565b6001600160a01b0383811660008181526101026020908152604080832094871680845294825291829020805460ff191686151590811790915591519182527f17307eab39ab6107e8899845ad3d59bd9653f200f220920489ca2b5937696c31910160405180910390a3505050565b603380546001600160a01b038381166001600160a01b03198084168217909455603480549094169093556040519116919082907f8be0079c531659141344cd1fd0a4f28419497f9722a3daafe3b4186f6b6457e090600090a35050565b617f20848484616e0c565b617f2c8484848461885f565b6162c15760405162461bcd60e51b815260040161123090619d5c565b600054610100900460ff16617f6f5760405162461bcd60e51b815260040161123090619dae565b61628d61895d565b60606000617f848361898d565b600101905060008167ffffffffffffffff811115617fa457617fa4619442565b6040519080825280601f01601f191660200182016040528015617fce576020820181803683370190505b5090508181016020015b600019016f181899199a1a9b1b9c1cb0b131b232b360811b600a86061a8153600a85049450841561775457617fd8565b600061805d826040518060400160405280602081526020017f5361666545524332303a206c6f772d6c6576656c2063616c6c206661696c6564815250856001600160a01b0316618a659092919063ffffffff16565b8051909150156112d1578080602001905181019061807b9190619df9565b6112d15760405162461bcd60e51b815260206004820152602a60248201527f5361666545524332303a204552433230206f7065726174696f6e20646964206e6044820152691bdd081cdd58d8d9595960b21b6064820152608401611230565b816001600160a01b0316836001600160a01b03161415801561810457506001600160a01b03831615155b15618113576181138382618a74565b826001600160a01b0316826001600160a01b03161415801561813d57506001600160a01b03821615155b156112d1576001600160a01b0391909116600090815261010460209081526040822080546001810182559083529120015550565b60008060008360405160200161818791906191a3565b60408051601f198184030181529181528151602092830120600088815261013a84528281208282529093529120549091506001600160a01b031680618279576101395461013180546001600160a01b039092169163dff968019188918a9081106181f3576181f3619892565b60009182526020909120601890910201546040516001600160e01b031960e085901b16815261822f92916001600160a01b031690600401619e16565b6020604051808303816000875af115801561824e573d6000803e3d6000fd5b505050506040513d601f19601f820116820180604052508101906182729190619e40565b9250618283565b92506110fc915050565b6001600160a01b03831661829d57600093505050506110fc565b50600085815261013a60209081526040808320848452825280832080546001600160a01b0319166001600160a01b03871690811790915588845261013b83528184209490945592825261013c905220939093555090919050565b6001600160a01b0381163b6183645760405162461bcd60e51b815260206004820152602d60248201527f455243313936373a206e657720696d706c656d656e746174696f6e206973206e60448201526c1bdd08184818dbdb9d1c9858dd609a1b6064820152608401611230565b600080516020619ece83398151915280546001600160a01b0319166001600160a01b0392909216919091179055565b61839c83618bcd565b6000825111806183a95750805b156112d1576162c18383618c0d565b600081670de0b6b3a76400008110156183e757604051633621413760e21b815260048101849052602401611230565b6000618473670de0b6b3a7640000830460016fffffffffffffffffffffffffffffffff821160071b91821c67ffffffffffffffff811160061b90811c63ffffffff811160051b90811c61ffff811160041b90811c60ff8111600390811b91821c600f811160021b90811c918211871b91821c969096119490961792909217171791909117919091171790565b9050670de0b6b3a7640000810282821c670de0b6b3a763ffff19810161849f57815b9695505050505050565b671bc16d674ec800006706f05b59d3b200005b80156184e257670de0b6b3a76400008380020492508183106184da579283019260019290921c915b60011c6184b2565b50825b979650505050505050565b60008080600019848609848602925082811083820303915050670de0b6b3a7640000811061853b5760405163090638d560e41b81526004810186905260248101859052604401611230565b6000670de0b6b3a7640000858709905081600003618567575050670de0b6b3a7640000900490506110fc565b620400008184030492109003600160ee1b02177faccb18165bd6fe31ae1cf318dc5b51eee0e1ba569b88cd74c1773b91fac1066902905092915050565b60008080600019858709858702925082811083820303915050806000036185de578382816185d4576185d4619a69565b04925050506112e2565b83811061860f576040516307639aaf60e41b8152600481018790526024810186905260448101859052606401611230565b60008486880960026001871981018816978890046003810283188082028403028082028403028082028403028082028403028082028403029081029092039091026000889003889004909101858311909403939093029303949094049190911702949350505050565b6000806101036000815461868b9061991e565b918290555090506001600160a01b0383166186e85760405162461bcd60e51b815260206004820181905260248201527f4552433732313a206d696e7420746f20746865207a65726f20616464726573736044820152606401611230565b600081815260ff60205260409020546001600160a01b03161561874d5760405162461bcd60e51b815260206004820152601c60248201527f4552433732313a20746f6b656e20616c7265616479206d696e746564000000006044820152606401611230565b618759600084836180da565b600081815260ff60205260409020546001600160a01b0316156187be5760405162461bcd60e51b815260206004820152601c60248201527f4552433732313a20746f6b656e20616c7265616479206d696e746564000000006044820152606401611230565b6001600160a01b0383166000818152610100602090815260408083208054600101905584835260ff90915280822080546001600160a01b0319168417905551839291907fddf252ad1be2c89b69c2b068fc378daa952ba7f163c4a11628f55a4df523b3ef908290a46110fc565b600081610131848154811061884257618842619892565b60009182526020909120600e601890920201015550600192915050565b60006001600160a01b0384163b1561895557604051630a85bd0160e11b81526001600160a01b0385169063150b7a02906188a3903390899088908890600401619e5d565b6020604051808303816000875af19250505080156188de575060408051601f3d908101601f191682019092526188db91810190619e90565b60015b61893b573d80801561890c576040519150601f19603f3d011682016040523d82523d6000602084013e618911565b606091505b5080516000036189335760405162461bcd60e51b815260040161123090619d5c565b805181602001fd5b6001600160e01b031916630a85bd0160e11b14905061486f565b50600161486f565b600054610100900460ff166189845760405162461bcd60e51b815260040161123090619dae565b61628d33617eb8565b60008072184f03e93ff9f4daa797ed6e38ed64bf6a1f0160401b83106189cc5772184f03e93ff9f4daa797ed6e38ed64bf6a1f0160401b830492506040015b6d04ee2d6d415b85acef810000000083106189f8576d04ee2d6d415b85acef8100000000830492506020015b662386f26fc100008310618a1657662386f26fc10000830492506010015b6305f5e1008310618a2e576305f5e100830492506008015b6127108310618a4257612710830492506004015b60648310618a54576064830492506002015b600a83106110fc5760010192915050565b606061486f8484600085618d01565b6001600160a01b03821660009081526101046020908152604080832080548251818502810185019093528083529192909190830182828015618ad557602002820191906000526020600020905b815481526020019060010190808311618ac1575b505083519394506000925050505b81811015618bc65783838281518110618afe57618afe619892565b602002602001015103618bb65782618b176001846198f5565b81518110618b2757618b27619892565b6020026020010151838281518110618b4157618b41619892565b6020908102919091018101919091526001600160a01b03861660009081526101048252604090208451618b7692860190618fba565b506001600160a01b038516600090815261010460205260409020805480618b9f57618b9f619908565b600190038181906000526020600020016000905590555b618bbf8161991e565b9050618ae3565b5050505050565b618bd6816182f7565b6040516001600160a01b038216907fbc7cd75a20ee27fd9adebab32041f755214dbc6bffa90cc0225b39da2e5c2d3b90600090a250565b60606001600160a01b0383163b618c755760405162461bcd60e51b815260206004820152602660248201527f416464726573733a2064656c65676174652063616c6c20746f206e6f6e2d636f6044820152651b9d1c9858dd60d21b6064820152608401611230565b600080846001600160a01b031684604051618c909190619aa1565b600060405180830381855af49150503d8060008114618ccb576040519150601f19603f3d011682016040523d82523d6000602084013e618cd0565b606091505b5091509150618cf88282604051806060016040528060278152602001619eee60279139618dd1565b95945050505050565b606082471015618d625760405162461bcd60e51b815260206004820152602660248201527f416464726573733a20696e73756666696369656e742062616c616e636520666f6044820152651c8818d85b1b60d21b6064820152608401611230565b600080866001600160a01b03168587604051618d7e9190619aa1565b60006040518083038185875af1925050503d8060008114618dbb576040519150601f19603f3d011682016040523d82523d6000602084013e618dc0565b606091505b50915091506184e587838387618dea565b60608315618de05750816112e2565b6112e28383618e5f565b60608315618e59578251600003618e52576001600160a01b0385163b618e525760405162461bcd60e51b815260206004820152601d60248201527f416464726573733a2063616c6c20746f206e6f6e2d636f6e74726163740000006044820152606401611230565b508161486f565b61486f83835b815115618e6f5781518083602001fd5b8060405162461bcd60e51b815260040161123091906191a3565b6040805161022081019091526000610120820181815261014083018290526101608301829052610180830182905260606101a08401526101c083018290526101e0830182905261020083019190915281908152602001618efc604051806040016040528060008152602001600081525090565b8152602001618f1e604051806040016040528060008152602001600081525090565b8152602001618f5060405180608001604052806000815260200160008152602001600081526020016000151581525090565b8152602001618f806040518060800160405280600081526020016000815260200160008152602001606081525090565b8152604080516060810182526000808252602082810182905292820152910190815260606020820181905260006040830181905291015290565b828054828255906000526020600020908101928215618ff5579160200282015b82811115618ff5578251825591602001919060010190618fda565b506190019291506190bd565b5090565b828054828255906000526020600020908101928215618ff5579160200282015b82811115618ff557825182546001600160a01b0319166001600160a01b03909116178255602090920191600190910190619025565b50805460008255906000526020600020908101906124f291906190bd565b60405180610100016040528060008152602001600081526020016000815260200160008152602001600081526020016000815260200160008152602001600081525090565b5b8082111561900157600081556001016190be565b6001600160a01b03811681146124f257600080fd5b600080604083850312156190fa57600080fd5b8235619105816190d2565b91506020830135619115816190d2565b809150509250929050565b6001600160e01b0319811681146124f257600080fd5b60006020828403121561914857600080fd5b81356112e281619120565b60005b8381101561916e578181015183820152602001619156565b50506000910152565b6000815180845261918f816020860160208601619153565b601f01601f19169290920160200192915050565b6020815260006112e26020830184619177565b600080604083850312156191c957600080fd5b50508035926020909101359150565b6000602082840312156191ea57600080fd5b5035919050565b6000806040838503121561920457600080fd5b823561920f816190d2565b946020939093013593505050565b60006080830182518452602080840151818601526040840151604086015260608401516080606087015282815180855260a0880191508383019450600092505b8083101561927d578451825293830193600192909201919083019061925d565b509695505050505050565b6101e080825289516001600160a01b039081169183019190915260208a015160ff1661020083015260408a015161ffff1661022083015260608a01511661024082015260808901516101006102608301526000906192ea6102e0840182619177565b905060a08b015161028084015260c08b01516102a084015260e08b01516102c0840152619324602084018b80518252602090810151910152565b8851606084015260208901516080840152875160a0840152602088015160c0840152604088015160e084015260608801511515610100840152828103610120840152619370818861921d565b86516001600160a01b03166101408501526020870151610160850152604087015161018085015291506193a09050565b836101a08301526193b66101c083018415159052565b9998505050505050505050565b6000806000606084860312156193d857600080fd5b83356193e3816190d2565b925060208401356193f3816190d2565b929592945050506040919091013590565b80151581146124f257600080fd5b60008060006060848603121561942757600080fd5b8335619432816190d2565b925060208401356193f381619404565b634e487b7160e01b600052604160045260246000fd5b600082601f83011261946957600080fd5b813567ffffffffffffffff8082111561948457619484619442565b604051601f8301601f19908116603f011681019082821181831017156194ac576194ac619442565b816040528381528660208588010111156194c557600080fd5b836020870160208301376000602085830101528094505050505092915050565b600080600080600060a086880312156194fd57600080fd5b8535945060208601359350604086013561ffff8116811461951d57600080fd5b925060608601359150608086013567ffffffffffffffff81111561954057600080fd5b61954c88828901619458565b9150509295509295909350565b60008060008060008060c0878903121561957257600080fd5b863561957d816190d2565b9550602087013561958d816190d2565b9450604087013567ffffffffffffffff8111156195a957600080fd5b6195b589828a01619458565b94505060608701356195c6816190d2565b9598949750929560808101359460a0909101359350915050565b6000602082840312156195f257600080fd5b81356112e2816190d2565b60008060006060848603121561961257600080fd5b8335925060208401356193f3816190d2565b6000806040838503121561963757600080fd5b8235619642816190d2565b9150602083013567ffffffffffffffff81111561965e57600080fd5b61966a85828601619458565b9150509250929050565b60008060006060848603121561968957600080fd5b505081359360208301359350604090920135919050565b600080604083850312156196b357600080fd5b82359150602083013561911581619404565b600080604083850312156196d857600080fd5b82356196e3816190d2565b9150602083013561911581619404565b60008060006060848603121561970857600080fd5b8335925060208401359150604084013567ffffffffffffffff81111561972d57600080fd5b61973986828701619458565b9150509250925092565b6000806000806080858703121561975957600080fd5b8435619764816190d2565b93506020850135619774816190d2565b925060408501359150606085013567ffffffffffffffff81111561979757600080fd5b6197a387828801619458565b91505092959194509250565b602080825282518282018190526000919060409081850190868401855b82811015617b1e5781518051855286810151878601528581015186860152606080820151908601526080808201519086015260a0808201519086015260c0808201519086015260e0908101519085015261010090930192908501906001016197cc565b600181811c9082168061984357607f821691505b60208210810361986357634e487b7160e01b600052602260045260246000fd5b50919050565b634e487b7160e01b600052601160045260246000fd5b808201808211156110fc576110fc619869565b634e487b7160e01b600052603260045260246000fd5b6020808252602d908201527f4552433732313a2063616c6c6572206973206e6f7420746f6b656e206f776e6560408201526c1c881bdc88185c1c1c9bdd9959609a1b606082015260800190565b818103818111156110fc576110fc619869565b634e487b7160e01b600052603160045260246000fd5b60006001820161993057619930619869565b5060010190565b600181815b8085111561997257816000190482111561995857619958619869565b8085161561996557918102915b93841c939080029061993c565b509250929050565b600082619989575060016110fc565b81619996575060006110fc565b81600181146199ac57600281146199b6576199d2565b60019150506110fc565b60ff8411156199c7576199c7619869565b50506001821b6110fc565b5060208310610133831016604e8410600b84101617156199f5575081810a6110fc565b6199ff8383619937565b8060001904821115619a1357619a13619869565b029392505050565b60006112e260ff84168361997a565b80820281158282048414176110fc576110fc619869565b6020808252600e908201526d139bdd08185d5d1a1bdc9a5e995960921b604082015260600190565b634e487b7160e01b600052601260045260246000fd5b600082619a9c57634e487b7160e01b600052601260045260246000fd5b500490565b60008251619ab3818460208701619153565b9190910192915050565b600060208284031215619acf57600080fd5b815160ff811681146112e257600080fd5b601f8211156112d157600081815260208120601f850160051c81016020861015619b075750805b601f850160051c820191505b81811015619b2657828155600101619b13565b505050505050565b815167ffffffffffffffff811115619b4857619b48619442565b619b5c81619b56845461982f565b84619ae0565b602080601f831160018114619b915760008415619b795750858301515b600019600386901b1c1916600185901b178555619b26565b600085815260208120601f198616915b82811015619bc057888601518255948401946001909101908401619ba1565b5085821015619bde5787850151600019600388901b60f8161c191681555b5050505050600190811b01905550565b6020808252602c908201527f46756e6374696f6e206d7573742062652063616c6c6564207468726f7567682060408201526b19195b1959d85d1958d85b1b60a21b606082015260800190565b6020808252602c908201527f46756e6374696f6e206d7573742062652063616c6c6564207468726f7567682060408201526b6163746976652070726f787960a01b606082015260800190565b60208082526029908201527f54696d656c6f636b206e6f7420736574206f72206e6f7420636f6d706c6574656040820152686420696e2074696d6560b81b606082015260800190565b60008351619ce1818460208801619153565b835190830190619cf5818360208801619153565b01949350505050565b600060208284031215619d1057600080fd5b5051919050565b60208082526025908201527f4552433732313a207472616e736665722066726f6d20696e636f72726563742060408201526437bbb732b960d91b606082015260800190565b60208082526032908201527f4552433732313a207472616e7366657220746f206e6f6e20455243373231526560408201527131b2b4bb32b91034b6b83632b6b2b73a32b960711b606082015260800190565b6020808252602b908201527f496e697469616c697a61626c653a20636f6e7472616374206973206e6f74206960408201526a6e697469616c697a696e6760a81b606082015260800190565b600060208284031215619e0b57600080fd5b81516112e281619404565b604081526000619e296040830185619177565b905060018060a01b03831660208301529392505050565b600060208284031215619e5257600080fd5b81516112e2816190d2565b6001600160a01b038581168252841660208201526040810183905260806060820181905260009061849590830184619177565b600060208284031215619ea257600080fd5b81516112e28161912056fea3ea4fb8dee4d414198cb197af6eae4fe483c1a0b849dc50e53b9bf1a60e2166360894a13ba1a3210667c828492db98dca3e2076cc3735a920a3ca505d382bbc416464726573733a206c6f772d6c6576656c2064656c65676174652063616c6c206661696c6564a26469706673582212209316d99b970db73a568a0f26c477c7381fa696f52de5e24137c8ee4f7c58bb7864736f6c63430008110033496e697469616c697a61626c653a20636f6e7472616374206973206e6f742069",
    "linkReferences": {}
  },
  "methodIdentifiers": {
    "acceptOwnershipTransfer()": "b842e87f",
    "activeStrategies(uint256)": "b20b2429",
    "activeTokens(uint256)": "9f224f35",
    "addNewBountyPool(address,address,string,address,uint256,uint256)": "32fce602",
    "approve(address,uint256)": "095ea7b3",
    "balanceOf(address)": "70a08231",
    "billPremium(uint256)": "2dbe051e",
    "calcReferralSplit(uint256,uint256)": "928dc6a9",
    "calcRequiredPremiumBalancePerPeriod(uint256,uint256)": "836ef1fa",
    "calculateArbitraryEffectiveAPY(uint256,uint256,uint256)": "4f3214cc",
    "calculateEffectiveAPY(uint256,uint256)": "5c46f7b1",
    "claimPremium(uint256)": "f47ec3be",
    "collectAllReferralProfits()": "3e8888d9",
    "collectAllSaloonProfits(address)": "ecd7fbed",
    "collectReferralProfit(address)": "a089a520",
    "collectSaloonProfits(address,address)": "cf9564b9",
    "compoundYieldForAll()": "f68ce499",
    "compoundYieldForPid(uint256)": "e78ea3df",
    "consolidate(uint256)": "949a4a4a",
    "consolidateAll()": "75bfd63d",
    "extendReferralPeriod(uint256,uint256)": "5de406dc",
    "getAllTokensByOwner(address)": "e9fda7d4",
    "getApproved(uint256)": "081812fc",
    "getCurrentAPY(uint256)": "7fbf3853",
    "getSecondsPassed(uint256,uint256)": "0a015ab1",
    "index()": "2986c0e5",
    "initialize(address)": "c4d66de8",
    "isApprovedForAll(address,address)": "e985e9c5",
    "makeProjectDeposit(uint256,uint256,string)": "ae07f948",
    "minTokenStakeAmount(address)": "39458723",
    "name()": "06fdde03",
    "nftInfo(uint256)": "1f8bc790",
    "nftToPid(uint256)": "612afc0c",
    "owner()": "8da5cb5b",
    "ownerOf(uint256)": "6352211e",
    "payBounty(uint256,address,uint256)": "3ac6ad7b",
    "pendingPremium(uint256)": "40bd1d00",
    "pidNFTList(uint256,uint256)": "96ea48e8",
    "pidStrategies(uint256,bytes32)": "074ecf03",
    "poolInfo(uint256)": "1526fe27",
    "poolLength()": "081e3eda",
    "projectDepositWithdrawal(uint256,uint256)": "983c1ce0",
    "proxiableUUID()": "52d1902d",
    "receiveStrategyYield(address,uint256)": "1aebcecb",
    "referralBalances(address,address)": "011b408b",
    "safeTransferFrom(address,address,uint256)": "42842e0e",
    "safeTransferFrom(address,address,uint256,bytes)": "b88d4fde",
    "saloonBountyProfit(address)": "e45abd0f",
    "saloonPremiumProfit(address)": "ca006148",
    "saloonStrategyProfit(address)": "598d17bf",
    "scheduleProjectDepositWithdrawal(uint256,uint256)": "5669cbef",
    "scheduleUnstake(uint256)": "106d08df",
    "setAPYandPoolCapAndDeposit(uint256,uint256,uint16,uint256,string)": "30ca0794",
    "setApprovalForAll(address,bool)": "a22cb465",
    "stake(uint256,uint256)": "7b0472f0",
    "strategyAddressToPid(address)": "957deecc",
    "supportsInterface(bytes4)": "01ffc9a7",
    "symbol()": "95d89b41",
    "tokenURI(uint256)": "c87b56dd",
    "tokenWhitelist(address)": "753d7563",
    "transferFrom(address,address,uint256)": "23b872dd",
    "transferOwnership(address)": "f2fde38b",
    "unstake(uint256,bool)": "9ebea88c",
    "updateStrategyFactoryAddress(address)": "3538fda0",
    "updateTokenWhitelist(address,bool,uint256)": "2cb0dfcc",
    "upgradeTo(address)": "3659cfe6",
    "upgradeToAndCall(address,bytes)": "4f1ef286",
    "viewBountyBalance(uint256)": "6ac6d812",
    "viewBountyInfo(uint256)": "40ef2868",
    "viewHackerPayout(uint256)": "861e5f66",
    "viewMinProjectDeposit(uint256)": "1c6b323f",
    "viewPoolAPY(uint256)": "a27f9213",
    "viewPoolCap(uint256)": "39679ff4",
    "viewPoolPremiumInfo(uint256)": "b1a2d16f",
    "viewPoolTimelockInfo(uint256)": "ac30b856",
    "viewReferralBalance(address,address)": "0ed7610c",
    "viewSaloonProfitBalance(address)": "718c7eef",
    "viewTokenInfo(uint256)": "10725852",
    "viewTotalStaked(uint256)": "dbdd6957",
    "viewUserUnclaimed(uint256)": "19693071",
    "windDownBounty(uint256)": "bb7019c1"
  },
  "id": 43
}