{
  "abi": [
    {
      "anonymous": false,
      "inputs": [
        {
          "indexed": false,
          "internalType": "address",
          "name": "previousAdmin",
          "type": "address"
        },
        {
          "indexed": false,
          "internalType": "address",
          "name": "newAdmin",
          "type": "address"
        }
      ],
      "name": "AdminChanged",
      "type": "event"
    },
    {
      "anonymous": false,
      "inputs": [
        {
          "indexed": true,
          "internalType": "address",
          "name": "beacon",
          "type": "address"
        }
      ],
      "name": "BeaconUpgraded",
      "type": "event"
    },
    {
      "anonymous": false,
      "inputs": [
        {
          "indexed": false,
          "internalType": "uint8",
          "name": "version",
          "type": "uint8"
        }
      ],
      "name": "Initialized",
      "type": "event"
    },
    {
      "anonymous": false,
      "inputs": [
        {
          "indexed": true,
          "internalType": "address",
          "name": "previousOwner",
          "type": "address"
        },
        {
          "indexed": true,
          "internalType": "address",
          "name": "newOwner",
          "type": "address"
        }
      ],
      "name": "OwnershipTransferred",
      "type": "event"
    },
    {
      "anonymous": false,
      "inputs": [
        {
          "indexed": true,
          "internalType": "address",
          "name": "user",
          "type": "address"
        },
        {
          "indexed": true,
          "internalType": "uint256",
          "name": "pid",
          "type": "uint256"
        },
        {
          "indexed": false,
          "internalType": "uint256",
          "name": "amount",
          "type": "uint256"
        }
      ],
      "name": "Staked",
      "type": "event"
    },
    {
      "anonymous": false,
      "inputs": [
        {
          "indexed": true,
          "internalType": "address",
          "name": "user",
          "type": "address"
        },
        {
          "indexed": true,
          "internalType": "uint256",
          "name": "pid",
          "type": "uint256"
        },
        {
          "indexed": false,
          "internalType": "uint256",
          "name": "amount",
          "type": "uint256"
        }
      ],
      "name": "Unstaked",
      "type": "event"
    },
    {
      "anonymous": false,
      "inputs": [
        {
          "indexed": true,
          "internalType": "address",
          "name": "implementation",
          "type": "address"
        }
      ],
      "name": "Upgraded",
      "type": "event"
    },
    {
      "inputs": [
        {
          "internalType": "address",
          "name": "_token",
          "type": "address"
        },
        {
          "internalType": "uint8",
          "name": "_tokenDecimals",
          "type": "uint8"
        },
        {
          "internalType": "address",
          "name": "_projectWallet",
          "type": "address"
        }
      ],
      "name": "addNewBountyPool",
      "outputs": [],
      "stateMutability": "nonpayable",
      "type": "function"
    },
    {
      "inputs": [
        {
          "internalType": "uint256",
          "name": "_pid",
          "type": "uint256"
        }
      ],
      "name": "billPremium",
      "outputs": [
        {
          "internalType": "bool",
          "name": "",
          "type": "bool"
        }
      ],
      "stateMutability": "nonpayable",
      "type": "function"
    },
    {
      "inputs": [
        {
          "internalType": "uint256",
          "name": "_pid",
          "type": "uint256"
        }
      ],
      "name": "claimPremium",
      "outputs": [],
      "stateMutability": "nonpayable",
      "type": "function"
    },
    {
      "inputs": [
        {
          "internalType": "address",
          "name": "_token",
          "type": "address"
        },
        {
          "internalType": "address",
          "name": "_saloonWallet",
          "type": "address"
        }
      ],
      "name": "collectSaloonProfits",
      "outputs": [
        {
          "internalType": "bool",
          "name": "",
          "type": "bool"
        }
      ],
      "stateMutability": "nonpayable",
      "type": "function"
    },
    {
      "inputs": [],
      "name": "denominator",
      "outputs": [
        {
          "internalType": "uint256",
          "name": "",
          "type": "uint256"
        }
      ],
      "stateMutability": "view",
      "type": "function"
    },
    {
      "inputs": [
        {
          "internalType": "uint256",
          "name": "_from",
          "type": "uint256"
        },
        {
          "internalType": "uint256",
          "name": "_to",
          "type": "uint256"
        }
      ],
      "name": "getMultiplier",
      "outputs": [
        {
          "internalType": "uint256",
          "name": "",
          "type": "uint256"
        }
      ],
      "stateMutability": "pure",
      "type": "function"
    },
    {
      "inputs": [],
      "name": "initialize",
      "outputs": [],
      "stateMutability": "nonpayable",
      "type": "function"
    },
    {
      "inputs": [
        {
          "internalType": "uint256",
          "name": "_pid",
          "type": "uint256"
        },
        {
          "internalType": "uint256",
          "name": "_deposit",
          "type": "uint256"
        }
      ],
      "name": "makeProjectDeposit",
      "outputs": [],
      "stateMutability": "nonpayable",
      "type": "function"
    },
    {
      "inputs": [],
      "name": "owner",
      "outputs": [
        {
          "internalType": "address",
          "name": "",
          "type": "address"
        }
      ],
      "stateMutability": "view",
      "type": "function"
    },
    {
      "inputs": [
        {
          "internalType": "uint256",
          "name": "_pid",
          "type": "uint256"
        },
        {
          "internalType": "address",
          "name": "_hunter",
          "type": "address"
        },
        {
          "internalType": "uint256",
          "name": "_amount",
          "type": "uint256"
        }
      ],
      "name": "payBounty",
      "outputs": [
        {
          "internalType": "bool",
          "name": "",
          "type": "bool"
        }
      ],
      "stateMutability": "nonpayable",
      "type": "function"
    },
    {
      "inputs": [
        {
          "internalType": "uint256",
          "name": "_pid",
          "type": "uint256"
        },
        {
          "internalType": "address",
          "name": "_user",
          "type": "address"
        }
      ],
      "name": "pendingToken",
      "outputs": [
        {
          "internalType": "uint256",
          "name": "",
          "type": "uint256"
        }
      ],
      "stateMutability": "view",
      "type": "function"
    },
    {
      "inputs": [
        {
          "internalType": "uint256",
          "name": "",
          "type": "uint256"
        }
      ],
      "name": "poolInfo",
      "outputs": [
        {
          "internalType": "contract IERC20",
          "name": "token",
          "type": "address"
        },
        {
          "internalType": "uint8",
          "name": "tokenDecimals",
          "type": "uint8"
        },
        {
          "internalType": "address",
          "name": "projectWallet",
          "type": "address"
        },
        {
          "internalType": "uint256",
          "name": "projectDeposit",
          "type": "uint256"
        },
        {
          "internalType": "uint16",
          "name": "apy",
          "type": "uint16"
        },
        {
          "internalType": "uint256",
          "name": "poolCap",
          "type": "uint256"
        },
        {
          "internalType": "uint256",
          "name": "totalStaked",
          "type": "uint256"
        },
        {
          "internalType": "uint256",
          "name": "lastBilledTime",
          "type": "uint256"
        },
        {
          "internalType": "uint256",
          "name": "timelock",
          "type": "uint256"
        },
        {
          "internalType": "uint256",
          "name": "timeLimit",
          "type": "uint256"
        },
        {
          "internalType": "uint256",
          "name": "withdrawalScheduledAmount",
          "type": "uint256"
        },
        {
          "internalType": "bool",
          "name": "withdrawalExecuted",
          "type": "bool"
        },
        {
          "internalType": "bool",
          "name": "initialized",
          "type": "bool"
        }
      ],
      "stateMutability": "view",
      "type": "function"
    },
    {
      "inputs": [],
      "name": "poolLength",
      "outputs": [
        {
          "internalType": "uint256",
          "name": "",
          "type": "uint256"
        }
      ],
      "stateMutability": "view",
      "type": "function"
    },
    {
      "inputs": [],
      "name": "premiumBalance",
      "outputs": [
        {
          "internalType": "uint256",
          "name": "",
          "type": "uint256"
        }
      ],
      "stateMutability": "view",
      "type": "function"
    },
    {
      "inputs": [
        {
          "internalType": "uint256",
          "name": "_pid",
          "type": "uint256"
        },
        {
          "internalType": "uint256",
          "name": "_amount",
          "type": "uint256"
        }
      ],
      "name": "projectDepositWithdrawal",
      "outputs": [
        {
          "internalType": "bool",
          "name": "",
          "type": "bool"
        }
      ],
      "stateMutability": "nonpayable",
      "type": "function"
    },
    {
      "inputs": [],
      "name": "proxiableUUID",
      "outputs": [
        {
          "internalType": "bytes32",
          "name": "",
          "type": "bytes32"
        }
      ],
      "stateMutability": "view",
      "type": "function"
    },
    {
      "inputs": [],
      "name": "renounceOwnership",
      "outputs": [],
      "stateMutability": "nonpayable",
      "type": "function"
    },
    {
      "inputs": [],
      "name": "requiredPremiumBalancePerPeriod",
      "outputs": [
        {
          "internalType": "uint256",
          "name": "",
          "type": "uint256"
        }
      ],
      "stateMutability": "view",
      "type": "function"
    },
    {
      "inputs": [
        {
          "internalType": "address",
          "name": "",
          "type": "address"
        }
      ],
      "name": "saloonBountyProfit",
      "outputs": [
        {
          "internalType": "uint256",
          "name": "",
          "type": "uint256"
        }
      ],
      "stateMutability": "view",
      "type": "function"
    },
    {
      "inputs": [
        {
          "internalType": "address",
          "name": "",
          "type": "address"
        }
      ],
      "name": "saloonPremiumProfit",
      "outputs": [
        {
          "internalType": "uint256",
          "name": "",
          "type": "uint256"
        }
      ],
      "stateMutability": "view",
      "type": "function"
    },
    {
      "inputs": [
        {
          "internalType": "uint256",
          "name": "_pid",
          "type": "uint256"
        },
        {
          "internalType": "uint256",
          "name": "_amount",
          "type": "uint256"
        }
      ],
      "name": "scheduleProjectDepositWithdrawal",
      "outputs": [
        {
          "internalType": "bool",
          "name": "",
          "type": "bool"
        }
      ],
      "stateMutability": "nonpayable",
      "type": "function"
    },
    {
      "inputs": [
        {
          "internalType": "uint256",
          "name": "_pid",
          "type": "uint256"
        },
        {
          "internalType": "uint256",
          "name": "_amount",
          "type": "uint256"
        }
      ],
      "name": "scheduleUnstake",
      "outputs": [
        {
          "internalType": "bool",
          "name": "",
          "type": "bool"
        }
      ],
      "stateMutability": "nonpayable",
      "type": "function"
    },
    {
      "inputs": [
        {
          "internalType": "uint256",
          "name": "_pid",
          "type": "uint256"
        },
        {
          "internalType": "uint256",
          "name": "_poolCap",
          "type": "uint256"
        },
        {
          "internalType": "uint16",
          "name": "_apy",
          "type": "uint16"
        },
        {
          "internalType": "uint256",
          "name": "_deposit",
          "type": "uint256"
        }
      ],
      "name": "setAPYandPoolCapAndDeposit",
      "outputs": [],
      "stateMutability": "nonpayable",
      "type": "function"
    },
    {
      "inputs": [
        {
          "internalType": "uint256",
          "name": "_pid",
          "type": "uint256"
        },
        {
          "internalType": "address",
          "name": "_user",
          "type": "address"
        },
        {
          "internalType": "uint256",
          "name": "_amount",
          "type": "uint256"
        }
      ],
      "name": "stake",
      "outputs": [
        {
          "internalType": "bool",
          "name": "",
          "type": "bool"
        }
      ],
      "stateMutability": "nonpayable",
      "type": "function"
    },
    {
      "inputs": [],
      "name": "startTime",
      "outputs": [
        {
          "internalType": "uint256",
          "name": "",
          "type": "uint256"
        }
      ],
      "stateMutability": "view",
      "type": "function"
    },
    {
      "inputs": [
        {
          "internalType": "address",
          "name": "newOwner",
          "type": "address"
        }
      ],
      "name": "transferOwnership",
      "outputs": [],
      "stateMutability": "nonpayable",
      "type": "function"
    },
    {
      "inputs": [
        {
          "internalType": "uint256",
          "name": "_pid",
          "type": "uint256"
        },
        {
          "internalType": "uint256",
          "name": "_amount",
          "type": "uint256"
        }
      ],
      "name": "unstake",
      "outputs": [
        {
          "internalType": "bool",
          "name": "",
          "type": "bool"
        }
      ],
      "stateMutability": "nonpayable",
      "type": "function"
    },
    {
      "inputs": [
        {
          "internalType": "address",
          "name": "newImplementation",
          "type": "address"
        }
      ],
      "name": "upgradeTo",
      "outputs": [],
      "stateMutability": "nonpayable",
      "type": "function"
    },
    {
      "inputs": [
        {
          "internalType": "address",
          "name": "newImplementation",
          "type": "address"
        },
        {
          "internalType": "bytes",
          "name": "data",
          "type": "bytes"
        }
      ],
      "name": "upgradeToAndCall",
      "outputs": [],
      "stateMutability": "payable",
      "type": "function"
    },
    {
      "inputs": [
        {
          "internalType": "uint256",
          "name": "",
          "type": "uint256"
        },
        {
          "internalType": "address",
          "name": "",
          "type": "address"
        }
      ],
      "name": "userInfo",
      "outputs": [
        {
          "internalType": "uint256",
          "name": "amount",
          "type": "uint256"
        },
        {
          "internalType": "uint256",
          "name": "unclaimed",
          "type": "uint256"
        },
        {
          "internalType": "uint256",
          "name": "lastRewardTime",
          "type": "uint256"
        },
        {
          "internalType": "uint256",
          "name": "timelock",
          "type": "uint256"
        },
        {
          "internalType": "uint256",
          "name": "timeLimit",
          "type": "uint256"
        },
        {
          "internalType": "uint256",
          "name": "unstakeScheduledAmount",
          "type": "uint256"
        },
        {
          "internalType": "bool",
          "name": "unstakeExecuted",
          "type": "bool"
        }
      ],
      "stateMutability": "view",
      "type": "function"
    },
    {
      "inputs": [
        {
          "internalType": "uint256",
          "name": "_pid",
          "type": "uint256"
        }
      ],
      "name": "viewBountyBalance",
      "outputs": [
        {
          "internalType": "uint256",
          "name": "",
          "type": "uint256"
        }
      ],
      "stateMutability": "view",
      "type": "function"
    },
    {
      "inputs": [
        {
          "internalType": "uint256",
          "name": "_pid",
          "type": "uint256"
        }
      ],
      "name": "viewPoolCap",
      "outputs": [
        {
          "internalType": "uint256",
          "name": "",
          "type": "uint256"
        }
      ],
      "stateMutability": "view",
      "type": "function"
    },
    {
      "inputs": [
        {
          "internalType": "uint256",
          "name": "_pid",
          "type": "uint256"
        }
      ],
      "name": "viewStake",
      "outputs": [
        {
          "internalType": "uint256",
          "name": "",
          "type": "uint256"
        }
      ],
      "stateMutability": "view",
      "type": "function"
    },
    {
      "inputs": [
        {
          "internalType": "uint256",
          "name": "_pid",
          "type": "uint256"
        }
      ],
      "name": "viewTotalStaked",
      "outputs": [
        {
          "internalType": "uint256",
          "name": "",
          "type": "uint256"
        }
      ],
      "stateMutability": "view",
      "type": "function"
    }
  ],
  "bytecode": {
    "object": "0x60a06040523060805268056bc75e2d6310000060ca5534801561002157600080fd5b50600160c95560805161316c61005e600039600081816107e60152818161082f01528181611055015281816110950152611128015261316c6000f3fe6080604052600436106101f95760003560e01c8063715018a61161010d578063983c1ce0116100a0578063cf9564b91161006f578063cf9564b914610683578063dbdd6957146106a3578063e45abd0f146106c3578063f2fde38b146106f0578063f47ec3be1461071057600080fd5b8063983c1ce0146105f65780639e2c8a5b14610616578063ca00614814610636578063cee6b0691461066357600080fd5b80638dbb1e3a116100dc5780638dbb1e3a1461050357806391635b4e1461052357806393f1a40b1461054357806396ce0795146105e057600080fd5b8063715018a61461049b57806378e97925146104b05780638129fc1c146104c65780638da5cb5b146104db57600080fd5b806344ebc03d1161019057806352d1902d1161015f57806352d1902d146104065780635669cbef1461041b57806357a86d3a1461043b5780636ac6d8121461045b5780636e9c931c1461047b57600080fd5b806344ebc03d146103a757806348e43af4146103bd5780634c3bdee0146103dd5780634f1ef286146103f357600080fd5b80633659cfe6116101cc5780633659cfe61461032557806339679ff414610347578063399eadb8146103675780633ac6ad7b1461038757600080fd5b8063081e3eda146101fe5780631526fe271461022257806323691677146102bd5780632dbe051e146102f5575b600080fd5b34801561020a57600080fd5b5060cf545b6040519081526020015b60405180910390f35b34801561022e57600080fd5b5061024261023d366004612af3565b610730565b604080516001600160a01b039e8f16815260ff909d1660208e01529c909a169b8b019b909b5260608a019790975261ffff909516608089015260a088019390935260c087019190915260e08601526101008501526101208401526101408301529115156101608201529015156101808201526101a001610219565b3480156102c957600080fd5b5061020f6102d8366004612af3565b600090815260d06020908152604080832033845290915290205490565b34801561030157600080fd5b50610315610310366004612af3565b6107c3565b6040519015158152602001610219565b34801561033157600080fd5b50610345610340366004612b28565b6107dc565b005b34801561035357600080fd5b5061020f610362366004612af3565b6108c4565b34801561037357600080fd5b50610345610382366004612b43565b610a04565b34801561039357600080fd5b506103156103a2366004612b8e565b610cf4565b3480156103b357600080fd5b5061020f60cd5481565b3480156103c957600080fd5b5061020f6103d8366004612bc3565b610f32565b3480156103e957600080fd5b5061020f60ce5481565b610345610401366004612c05565b61104b565b34801561041257600080fd5b5061020f61111b565b34801561042757600080fd5b50610315610436366004612cc7565b6111ce565b34801561044757600080fd5b50610345610456366004612cc7565b6112bf565b34801561046757600080fd5b5061020f610476366004612af3565b611349565b34801561048757600080fd5b50610315610496366004612b8e565b611493565b3480156104a757600080fd5b5061034561161f565b3480156104bc57600080fd5b5061020f60d15481565b3480156104d257600080fd5b50610345611633565b3480156104e757600080fd5b506033546040516001600160a01b039091168152602001610219565b34801561050f57600080fd5b5061020f61051e366004612cc7565b611743565b34801561052f57600080fd5b5061031561053e366004612cc7565b61174f565b34801561054f57600080fd5b506105a961055e366004612bc3565b60d06020908152600092835260408084209091529082529020805460018201546002830154600384015460048501546005860154600690960154949593949293919290919060ff1687565b604080519788526020880196909652948601939093526060850191909152608084015260a0830152151560c082015260e001610219565b3480156105ec57600080fd5b5061020f60ca5481565b34801561060257600080fd5b50610315610611366004612cc7565b611804565b34801561062257600080fd5b50610315610631366004612cc7565b61190f565b34801561064257600080fd5b5061020f610651366004612b28565b60cc6020526000908152604090205481565b34801561066f57600080fd5b5061034561067e366004612ce9565b611bb6565b34801561068f57600080fd5b5061031561069e366004612d2f565b611dfa565b3480156106af57600080fd5b5061020f6106be366004612af3565b611e66565b3480156106cf57600080fd5b5061020f6106de366004612b28565b60cb6020526000908152604090205481565b3480156106fc57600080fd5b5061034561070b366004612b28565b611fa6565b34801561071c57600080fd5b5061034561072b366004612af3565b61201c565b60cf818154811061074057600080fd5b60009182526020909120600c9091020180546001820154600283015460038401546004850154600586015460068701546007880154600889015460098a0154600a909a01546001600160a01b03808b169c5060ff600160a01b909b048b169b991699979861ffff909716979596949593949293919291818116916101009004168d565b60006107cd612038565b6107d682612092565b50919050565b6001600160a01b037f000000000000000000000000000000000000000000000000000000000000000016300361082d5760405162461bcd60e51b815260040161082490612d59565b60405180910390fd5b7f00000000000000000000000000000000000000000000000000000000000000006001600160a01b03166108766000805160206130f0833981519152546001600160a01b031690565b6001600160a01b03161461089c5760405162461bcd60e51b815260040161082490612da5565b6108a581612168565b604080516000808252602082019092526108c191839190612170565b50565b60008060cf83815481106108da576108da612df1565b6000918252602091829020604080516101c081018252600c90930290910180546001600160a01b03808216855260ff600160a01b9092048216858701526001830154168484015260028201546060850152600382015461ffff166080850152600482015460a0850152600582015460c0850152600682015460e085015260078201546101008086019190915260088301546101208601526009830154610140860152600a830154808316151561016087015204161515610180840152600b81018054835181870281018701909452808452939491936101a0860193928301828280156109ef57602002820191906000526020600020905b81546001600160a01b031681526001909101906020018083116109d1575b5050509190925250505060a001519392505050565b610a0c612038565b610a9b604051806101c0016040528060006001600160a01b03168152602001600060ff16815260200160006001600160a01b0316815260200160008152602001600061ffff168152602001600081526020016000815260200160008152602001600081526020016000815260200160008152602001600015158152602001600015158152602001606081525090565b8381600001906001600160a01b031690816001600160a01b03168152505082816020019060ff16908160ff16815250508181604001906001600160a01b031690816001600160a01b03168152505060008160600181815250506000816080019061ffff16908161ffff168152505060008160a001818152505060008160c001818152505060008161018001901515908115158152505060008160e0018181525050600081610100018181525050600081610120018181525050600081610140018181525050600081610160019015159081151581525050806101a001515060cf8190806001815401808255809150506001900390600052602060002090600c020160009091909190915060008201518160000160006101000a8154816001600160a01b0302191690836001600160a01b0316021790555060208201518160000160146101000a81548160ff021916908360ff16021790555060408201518160010160006101000a8154816001600160a01b0302191690836001600160a01b031602179055506060820151816002015560808201518160030160006101000a81548161ffff021916908361ffff16021790555060a0820151816004015560c0820151816005015560e0820151816006015561010082015181600701556101208201518160080155610140820151816009015561016082015181600a0160006101000a81548160ff02191690831515021790555061018082015181600a0160016101000a81548160ff0219169083151502179055506101a082015181600b019080519060200190610ceb929190612a5f565b50505050505050565b6000610cfe612038565b600060cf8581548110610d1357610d13612df1565b90600052602060002090600c020190506000816005015490506000826002015482610d3e9190612e1d565b9050600081861015610da25781610d5761271088612e30565b610d619190612e47565b905061271061ffff16818560020154610d7a9190612e30565b610d849190612e47565b846002016000828254610d979190612e69565b90915550610df39050565b818603610db9575060006002840155612710610df3565b60405162461bcd60e51b815260206004820152600f60248201526e082dadeeadce840e8dede40d0d2ced608b1b6044820152606401610824565b600b84015460005b81811015610e9657600086600b018281548110610e1a57610e1a612df1565b60009182526020808320909101548d835260d0825260408084206001600160a01b03909216808552919092529120909150610e558c836122e0565b805461271090610e66908790612e30565b610e709190612e47565b816000016000828254610e839190612e69565b909155505060019092019150610dfb9050565b50828703610eac57610eac600b86016000612ac4565b6000612710610ebd6103e88a612e30565b610ec79190612e47565b90506000610ed5828a612e69565b87546001600160a01b0316600090815260cb6020526040812080549293508492909190610f03908490612e1d565b90915550508654610f1e906001600160a01b03168b8361240b565b5060019750505050505050505b9392505050565b60008060cf8481548110610f4857610f48612df1565b6000918252602080832087845260d0825260408085206001600160a01b0389168652909252908320600c92909202016005810154600283015491945091929042118015610f9457508115155b1561103f576000610fa9846002015442611743565b600386015460ca5486549293506000926301e13380926127109261ffff90911691610fd49190612e30565b610fde9190612e30565b610fe89190612e47565b610ff29190612e47565b60ca54909150600090611005848461247b565b61100f9190612e47565b905060006127106110226103e884612e30565b61102c9190612e47565b90506110388183612e69565b9450505050505b93505050505b92915050565b6001600160a01b037f00000000000000000000000000000000000000000000000000000000000000001630036110935760405162461bcd60e51b815260040161082490612d59565b7f00000000000000000000000000000000000000000000000000000000000000006001600160a01b03166110dc6000805160206130f0833981519152546001600160a01b031690565b6001600160a01b0316146111025760405162461bcd60e51b815260040161082490612da5565b61110b82612168565b61111782826001612170565b5050565b6000306001600160a01b037f000000000000000000000000000000000000000000000000000000000000000016146111bb5760405162461bcd60e51b815260206004820152603860248201527f555550535570677261646561626c653a206d757374206e6f742062652063616c60448201527f6c6564207468726f7567682064656c656761746563616c6c00000000000000006064820152608401610824565b506000805160206130f083398151915290565b60008060cf84815481106111e4576111e4612df1565b90600052602060002090600c0201905082816002015410156112485760405162461bcd60e51b815260206004820152601a60248201527f416d6f756e7420626967676572207468616e206465706f7369740000000000006044820152606401610824565b60018101546001600160a01b031633146112745760405162461bcd60e51b815260040161082490612e7c565b61128162093a8042612e1d565b600782015561129362093a8042612e1d565b6112a0906203f480612e1d565b6008820155600981019290925550600a01805460ff1916905550600190565b600060cf83815481106112d4576112d4612df1565b60009182526020909120600c9091020160018101549091506001600160a01b031633146113135760405162461bcd60e51b815260040161082490612e7c565b805461132a906001600160a01b0316333085612487565b508181600201600082825461133f9190612e1d565b9091555050505050565b60008060cf838154811061135f5761135f612df1565b6000918252602091829020604080516101c081018252600c90930290910180546001600160a01b03808216855260ff600160a01b9092048216858701526001830154168484015260028201546060850152600382015461ffff166080850152600482015460a0850152600582015460c0850152600682015460e085015260078201546101008086019190915260088301546101208601526009830154610140860152600a830154808316151561016087015204161515610180840152600b81018054835181870281018701909452808452939491936101a08601939283018282801561147457602002820191906000526020600020905b81546001600160a01b03168152600190910190602001808311611456575b505050505081525050905080606001518160c00151610f2b9190612e1d565b600061149d6124ca565b600082116114aa57600080fd5b600060cf85815481106114bf576114bf612df1565b6000918252602080832088845260d0825260408085206001600160a01b038a1686529092529220600c90910290910191506114fa86866122e0565b805460000361153457600b82018054600181018255600091825260209091200180546001600160a01b0319166001600160a01b0387161790555b815461154b906001600160a01b0316333087612487565b5080546115589085612523565b815560058201546115699085612523565b600583015560048201541580159061158957508160040154826005015411155b6115cb5760405162461bcd60e51b8152602060048201526013602482015272115e18d959591959081c1bdbdb081b1a5b5a5d606a1b6044820152606401610824565b85856001600160a01b03167f1449c6dd7851abc30abf37f57715f492010519147cc2652fbc38202c18a6ee908660405161160791815260200190565b60405180910390a3600192505050610f2b600160c955565b611627612038565b611631600061252f565b565b600054610100900460ff16158080156116535750600054600160ff909116105b8061166d5750303b15801561166d575060005460ff166001145b6116d05760405162461bcd60e51b815260206004820152602e60248201527f496e697469616c697a61626c653a20636f6e747261637420697320616c72656160448201526d191e481a5b9a5d1a585b1a5e995960921b6064820152608401610824565b6000805460ff1916600117905580156116f3576000805461ff0019166101001790555b6116fb612581565b80156108c1576000805461ff0019169055604051600181527f7f26b83ff96e1f2b6a682f133852f6798a09c465da95921460cefb38474024989060200160405180910390a150565b6000610f2b82846125b0565b600082815260d060209081526040808320338452909152812080548311156117b95760405162461bcd60e51b815260206004820152601a60248201527f416d6f756e7420626967676572207468616e206465706f7369740000000000006044820152606401610824565b6117c662093a8042612e1d565b60038201556117d862093a8042612e1d565b6117e5906203f480612e1d565b6004820155600581019290925550600601805460ff1916905550600190565b60008060cf848154811061181a5761181a612df1565b60009182526020909120600c9091020160018101549091506001600160a01b031633146118595760405162461bcd60e51b815260040161082490612e7c565b42816007015410801561186f5750428160080154115b80156118805750600a81015460ff16155b8015611890575082816009015410155b801561189f5750600781015415155b6118bb5760405162461bcd60e51b815260040161082490612ea4565b600a8101805460ff191660011790556002810180548491906000906118e1908490612e69565b909155505060018101548154611904916001600160a01b0391821691168561240b565b506001949350505050565b60006119196124ca565b600060cf848154811061192e5761192e612df1565b6000918252602080832087845260d08252604080852033865290925292208054600c909202909201925084111561199c5760405162461bcd60e51b81526020600482015260126024820152711dda5d1a191c985dce881b9bdd0819dbdbd960721b6044820152606401610824565b4281600301541080156119b25750428160040154115b80156119c35750600681015460ff16155b80156119d3575083816005015410155b80156119e25750600381015415155b6119fe5760405162461bcd60e51b815260040161082490612ea4565b60068101805460ff19166001179055611a1785336122e0565b8315611a57578054611a2990856125b0565b81556005820154611a3a90856125b0565b60058301558154611a55906001600160a01b0316338661240b565b505b8054600003611b6f57600b82015460005b81811015611b6c57336001600160a01b031684600b018281548110611a8f57611a8f612df1565b6000918252602090912001546001600160a01b031603611b64576000600b8501611aba600185612e69565b81548110611aca57611aca612df1565b600091825260209091200154600b860180546001600160a01b039092169250829184908110611afb57611afb612df1565b9060005260206000200160006101000a8154816001600160a01b0302191690836001600160a01b0316021790555084600b01805480611b3c57611b3c612eed565b600082815260209020810160001990810180546001600160a01b031916905501905550611b6c565b600101611a68565b50505b604051848152859033907f7fc4727e062e336010f2c282598ef5f14facb3de68cf8195c2f23e1454b2b74e9060200160405180910390a3600192505050611045600160c955565b600060cf8581548110611bcb57611bcb612df1565b90600052602060002090600c0201905080600a0160019054906101000a900460ff1615611c3a5760405162461bcd60e51b815260206004820152601860248201527f506f6f6c20616c726561647920696e697469616c697a656400000000000000006044820152606401610824565b60008361ffff16118015611c5457506127108361ffff1611155b611c935760405162461bcd60e51b815260206004820152601060248201526f415059206f7574206f662072616e676560801b6044820152606401610824565b8054611caa90600160a01b900460ff16600a612fe7565b611cb5906064612e30565b84118015611ce657508054611cd590600160a01b900460ff16600a612fe7565b611ce29062989680612e30565b8411155b611d2a5760405162461bcd60e51b8152602060048201526015602482015274506f6f6c20636170206f7574206f662072616e676560581b6044820152606401610824565b60018101546001600160a01b03163314611d565760405162461bcd60e51b815260040161082490612e7c565b8054611d6d906001600160a01b0316333085612487565b506301e1338061271062093a80611d8861ffff871688612e30565b611d929190612e30565b611d9c9190612e47565b611da69190612e47565b60ce8190555081816002016000828254611dc09190612e1d565b909155505060048101939093555060038201805461ffff90921661ffff19909216919091179055600a01805461ff00191661010017905550565b6000611e04612038565b6001600160a01b038316600090815260cc602090815260408083205460cb909252822054611e329190612e1d565b6001600160a01b038516600081815260cb6020908152604080832083905560cc90915281205590915061190490848361240b565b60008060cf8381548110611e7c57611e7c612df1565b6000918252602091829020604080516101c081018252600c90930290910180546001600160a01b03808216855260ff600160a01b9092048216858701526001830154168484015260028201546060850152600382015461ffff166080850152600482015460a0850152600582015460c0850152600682015460e085015260078201546101008086019190915260088301546101208601526009830154610140860152600a830154808316151561016087015204161515610180840152600b81018054835181870281018701909452808452939491936101a086019392830182828015611f9157602002820191906000526020600020905b81546001600160a01b03168152600190910190602001808311611f73575b5050509190925250505060c001519392505050565b611fae612038565b6001600160a01b0381166120135760405162461bcd60e51b815260206004820152602660248201527f4f776e61626c653a206e6577206f776e657220697320746865207a65726f206160448201526564647265737360d01b6064820152608401610824565b6108c18161252f565b6120246124ca565b61202e81336122e0565b6108c1600160c955565b6033546001600160a01b031633146116315760405162461bcd60e51b815260206004820181905260248201527f4f776e61626c653a2063616c6c6572206973206e6f7420746865206f776e65726044820152606401610824565b60008060cf83815481106120a8576120a8612df1565b90600052602060002090600c02019050600060cd5460ce546120ca9190612e69565b600183015483549192506120ec916001600160a01b0390811691163084612487565b5060006127106120fe6103e884612e30565b6121089190612e47565b83546001600160a01b0316600090815260cc6020526040812080549293508392909190612136908490612e1d565b925050819055508160cd600082825461214f9190612e1d565b9091555050426006909301929092555060019392505050565b6108c1612038565b7f4910fdfa16fed3260ed0e7147f7cc6da11a60208b5b9406d12a635614ffd91435460ff16156121a8576121a3836125bc565b505050565b826001600160a01b03166352d1902d6040518163ffffffff1660e01b8152600401602060405180830381865afa925050508015612202575060408051601f3d908101601f191682019092526121ff91810190612ff6565b60015b6122655760405162461bcd60e51b815260206004820152602e60248201527f45524331393637557067726164653a206e657720696d706c656d656e7461746960448201526d6f6e206973206e6f74205555505360901b6064820152608401610824565b6000805160206130f083398151915281146122d45760405162461bcd60e51b815260206004820152602960248201527f45524331393637557067726164653a20756e737570706f727465642070726f786044820152681a58589b195555525160ba1b6064820152608401610824565b506121a3838383612658565b600060cf83815481106122f5576122f5612df1565b6000918252602080832086845260d0825260408085206001600160a01b03881686529092529083208054600c9093029091019350910361233b5742600290910155505050565b60006123478585610f32565b905060cd5481111561235e5761235c85612092565b505b60006001600160a01b038516331461237757600061237a565b60015b9050806123ab57818360010160008282546123959190612e1d565b9091555050426002909301929092555050505050565b60008360010154836123bd9190612e1d565b905080156123e45784546123db906001600160a01b0316878361240b565b50600060018501555b428460020181905560cd60008282546123fd9190612e69565b909155505050505050505050565b6040516001600160a01b03831660248201526044810182905260009061247190859063a9059cbb60e01b906064015b60408051601f198184030181529190526020810180516001600160e01b03166001600160e01b031990931692909217909152612683565b5060019392505050565b6000610f2b8284612e30565b6040516001600160a01b03808516602483015283166044820152606481018290526000906119049086906323b872dd60e01b9060840161243a565b949350505050565b600260c9540361251c5760405162461bcd60e51b815260206004820152601f60248201527f5265656e7472616e637947756172643a207265656e7472616e742063616c6c006044820152606401610824565b600260c955565b6000610f2b8284612e1d565b603380546001600160a01b038381166001600160a01b0319831681179093556040519116919082907f8be0079c531659141344cd1fd0a4f28419497f9722a3daafe3b4186f6b6457e090600090a35050565b600054610100900460ff166125a85760405162461bcd60e51b81526004016108249061300f565b611631612755565b6000610f2b8284612e69565b6001600160a01b0381163b6126295760405162461bcd60e51b815260206004820152602d60248201527f455243313936373a206e657720696d706c656d656e746174696f6e206973206e60448201526c1bdd08184818dbdb9d1c9858dd609a1b6064820152608401610824565b6000805160206130f083398151915280546001600160a01b0319166001600160a01b0392909216919091179055565b61266183612785565b60008251118061266e5750805b156121a35761267d83836127c5565b50505050565b60006126d8826040518060400160405280602081526020017f5361666545524332303a206c6f772d6c6576656c2063616c6c206661696c6564815250856001600160a01b03166128b99092919063ffffffff16565b8051909150156121a357808060200190518101906126f6919061305a565b6121a35760405162461bcd60e51b815260206004820152602a60248201527f5361666545524332303a204552433230206f7065726174696f6e20646964206e6044820152691bdd081cdd58d8d9595960b21b6064820152608401610824565b600054610100900460ff1661277c5760405162461bcd60e51b81526004016108249061300f565b6116313361252f565b61278e816125bc565b6040516001600160a01b038216907fbc7cd75a20ee27fd9adebab32041f755214dbc6bffa90cc0225b39da2e5c2d3b90600090a250565b60606001600160a01b0383163b61282d5760405162461bcd60e51b815260206004820152602660248201527f416464726573733a2064656c65676174652063616c6c20746f206e6f6e2d636f6044820152651b9d1c9858dd60d21b6064820152608401610824565b600080846001600160a01b03168460405161284891906130a0565b600060405180830381855af49150503d8060008114612883576040519150601f19603f3d011682016040523d82523d6000602084013e612888565b606091505b50915091506128b08282604051806060016040528060278152602001613110602791396128c8565b95945050505050565b60606124c284846000856128e1565b606083156128d7575081610f2b565b610f2b83836129bc565b6060824710156129425760405162461bcd60e51b815260206004820152602660248201527f416464726573733a20696e73756666696369656e742062616c616e636520666f6044820152651c8818d85b1b60d21b6064820152608401610824565b600080866001600160a01b0316858760405161295e91906130a0565b60006040518083038185875af1925050503d806000811461299b576040519150601f19603f3d011682016040523d82523d6000602084013e6129a0565b606091505b50915091506129b1878383876129e6565b979650505050505050565b8151156129cc5781518083602001fd5b8060405162461bcd60e51b815260040161082491906130bc565b60608315612a55578251600003612a4e576001600160a01b0385163b612a4e5760405162461bcd60e51b815260206004820152601d60248201527f416464726573733a2063616c6c20746f206e6f6e2d636f6e74726163740000006044820152606401610824565b50816124c2565b6124c283836129bc565b828054828255906000526020600020908101928215612ab4579160200282015b82811115612ab457825182546001600160a01b0319166001600160a01b03909116178255602090920191600190910190612a7f565b50612ac0929150612ade565b5090565b50805460008255906000526020600020908101906108c191905b5b80821115612ac05760008155600101612adf565b600060208284031215612b0557600080fd5b5035919050565b80356001600160a01b0381168114612b2357600080fd5b919050565b600060208284031215612b3a57600080fd5b610f2b82612b0c565b600080600060608486031215612b5857600080fd5b612b6184612b0c565b9250602084013560ff81168114612b7757600080fd5b9150612b8560408501612b0c565b90509250925092565b600080600060608486031215612ba357600080fd5b83359250612bb360208501612b0c565b9150604084013590509250925092565b60008060408385031215612bd657600080fd5b82359150612be660208401612b0c565b90509250929050565b634e487b7160e01b600052604160045260246000fd5b60008060408385031215612c1857600080fd5b612c2183612b0c565b9150602083013567ffffffffffffffff80821115612c3e57600080fd5b818501915085601f830112612c5257600080fd5b813581811115612c6457612c64612bef565b604051601f8201601f19908116603f01168101908382118183101715612c8c57612c8c612bef565b81604052828152886020848701011115612ca557600080fd5b8260208601602083013760006020848301015280955050505050509250929050565b60008060408385031215612cda57600080fd5b50508035926020909101359150565b60008060008060808587031215612cff57600080fd5b8435935060208501359250604085013561ffff81168114612d1f57600080fd5b9396929550929360600135925050565b60008060408385031215612d4257600080fd5b612d4b83612b0c565b9150612be660208401612b0c565b6020808252602c908201527f46756e6374696f6e206d7573742062652063616c6c6564207468726f7567682060408201526b19195b1959d85d1958d85b1b60a21b606082015260800190565b6020808252602c908201527f46756e6374696f6e206d7573742062652063616c6c6564207468726f7567682060408201526b6163746976652070726f787960a01b606082015260800190565b634e487b7160e01b600052603260045260246000fd5b634e487b7160e01b600052601160045260246000fd5b8082018082111561104557611045612e07565b808202811582820484141761104557611045612e07565b600082612e6457634e487b7160e01b600052601260045260246000fd5b500490565b8181038181111561104557611045612e07565b6020808252600e908201526d139bdd08185d5d1a1bdc9a5e995960921b604082015260600190565b60208082526029908201527f54696d656c6f636b206e6f7420736574206f72206e6f7420636f6d706c6574656040820152686420696e2074696d6560b81b606082015260800190565b634e487b7160e01b600052603160045260246000fd5b600181815b80851115612f3e578160001904821115612f2457612f24612e07565b80851615612f3157918102915b93841c9390800290612f08565b509250929050565b600082612f5557506001611045565b81612f6257506000611045565b8160018114612f785760028114612f8257612f9e565b6001915050611045565b60ff841115612f9357612f93612e07565b50506001821b611045565b5060208310610133831016604e8410600b8410161715612fc1575081810a611045565b612fcb8383612f03565b8060001904821115612fdf57612fdf612e07565b029392505050565b6000610f2b60ff841683612f46565b60006020828403121561300857600080fd5b5051919050565b6020808252602b908201527f496e697469616c697a61626c653a20636f6e7472616374206973206e6f74206960408201526a6e697469616c697a696e6760a81b606082015260800190565b60006020828403121561306c57600080fd5b81518015158114610f2b57600080fd5b60005b8381101561309757818101518382015260200161307f565b50506000910152565b600082516130b281846020870161307c565b9190910192915050565b60208152600082518060208401526130db81604085016020870161307c565b601f01601f1916919091016040019291505056fe360894a13ba1a3210667c828492db98dca3e2076cc3735a920a3ca505d382bbc416464726573733a206c6f772d6c6576656c2064656c65676174652063616c6c206661696c6564a2646970667358221220a23de668e131db9a4da28b0294db5035f6af5f118d5141c4a0e5d60e7a1e79b864736f6c63430008110033",
    "linkReferences": {}
  },
  "methodIdentifiers": {
    "addNewBountyPool(address,uint8,address)": "399eadb8",
    "billPremium(uint256)": "2dbe051e",
    "claimPremium(uint256)": "f47ec3be",
    "collectSaloonProfits(address,address)": "cf9564b9",
    "denominator()": "96ce0795",
    "getMultiplier(uint256,uint256)": "8dbb1e3a",
    "initialize()": "8129fc1c",
    "makeProjectDeposit(uint256,uint256)": "57a86d3a",
    "owner()": "8da5cb5b",
    "payBounty(uint256,address,uint256)": "3ac6ad7b",
    "pendingToken(uint256,address)": "48e43af4",
    "poolInfo(uint256)": "1526fe27",
    "poolLength()": "081e3eda",
    "premiumBalance()": "44ebc03d",
    "projectDepositWithdrawal(uint256,uint256)": "983c1ce0",
    "proxiableUUID()": "52d1902d",
    "renounceOwnership()": "715018a6",
    "requiredPremiumBalancePerPeriod()": "4c3bdee0",
    "saloonBountyProfit(address)": "e45abd0f",
    "saloonPremiumProfit(address)": "ca006148",
    "scheduleProjectDepositWithdrawal(uint256,uint256)": "5669cbef",
    "scheduleUnstake(uint256,uint256)": "91635b4e",
    "setAPYandPoolCapAndDeposit(uint256,uint256,uint16,uint256)": "cee6b069",
    "stake(uint256,address,uint256)": "6e9c931c",
    "startTime()": "78e97925",
    "transferOwnership(address)": "f2fde38b",
    "unstake(uint256,uint256)": "9e2c8a5b",
    "upgradeTo(address)": "3659cfe6",
    "upgradeToAndCall(address,bytes)": "4f1ef286",
    "userInfo(uint256,address)": "93f1a40b",
    "viewBountyBalance(uint256)": "6ac6d812",
    "viewPoolCap(uint256)": "39679ff4",
    "viewStake(uint256)": "23691677",
    "viewTotalStaked(uint256)": "dbdd6957"
  },
  "id": 26
}