{
  "abi": [
    {
      "inputs": [
        {
          "internalType": "UD60x18",
          "name": "x",
          "type": "uint256"
        }
      ],
      "name": "PRBMathUD60x18__LogInputTooSmall",
      "type": "error"
    },
    {
      "inputs": [
        {
          "internalType": "uint256",
          "name": "x",
          "type": "uint256"
        }
      ],
      "name": "PRBMathUD60x18__ToUD60x18Overflow",
      "type": "error"
    },
    {
      "inputs": [
        {
          "internalType": "uint256",
          "name": "x",
          "type": "uint256"
        },
        {
          "internalType": "uint256",
          "name": "y",
          "type": "uint256"
        }
      ],
      "name": "PRBMath__MulDiv18Overflow",
      "type": "error"
    },
    {
      "inputs": [
        {
          "internalType": "uint256",
          "name": "x",
          "type": "uint256"
        },
        {
          "internalType": "uint256",
          "name": "y",
          "type": "uint256"
        },
        {
          "internalType": "uint256",
          "name": "denominator",
          "type": "uint256"
        }
      ],
      "name": "PRBMath__MulDivOverflow",
      "type": "error"
    },
    {
      "anonymous": false,
      "inputs": [
        {
          "indexed": false,
          "internalType": "address",
          "name": "previousAdmin",
          "type": "address"
        },
        {
          "indexed": false,
          "internalType": "address",
          "name": "newAdmin",
          "type": "address"
        }
      ],
      "name": "AdminChanged",
      "type": "event"
    },
    {
      "anonymous": false,
      "inputs": [
        {
          "indexed": true,
          "internalType": "address",
          "name": "owner",
          "type": "address"
        },
        {
          "indexed": true,
          "internalType": "address",
          "name": "approved",
          "type": "address"
        },
        {
          "indexed": true,
          "internalType": "uint256",
          "name": "tokenId",
          "type": "uint256"
        }
      ],
      "name": "Approval",
      "type": "event"
    },
    {
      "anonymous": false,
      "inputs": [
        {
          "indexed": true,
          "internalType": "address",
          "name": "owner",
          "type": "address"
        },
        {
          "indexed": true,
          "internalType": "address",
          "name": "operator",
          "type": "address"
        },
        {
          "indexed": false,
          "internalType": "bool",
          "name": "approved",
          "type": "bool"
        }
      ],
      "name": "ApprovalForAll",
      "type": "event"
    },
    {
      "anonymous": false,
      "inputs": [
        {
          "indexed": true,
          "internalType": "address",
          "name": "beacon",
          "type": "address"
        }
      ],
      "name": "BeaconUpgraded",
      "type": "event"
    },
    {
      "anonymous": false,
      "inputs": [
        {
          "indexed": true,
          "internalType": "uint256",
          "name": "pid",
          "type": "uint256"
        },
        {
          "indexed": true,
          "internalType": "uint256",
          "name": "oldAmount",
          "type": "uint256"
        },
        {
          "indexed": true,
          "internalType": "uint256",
          "name": "newAmount",
          "type": "uint256"
        }
      ],
      "name": "BountyBalanceChanged",
      "type": "event"
    },
    {
      "anonymous": false,
      "inputs": [
        {
          "indexed": true,
          "internalType": "uint256",
          "name": "time",
          "type": "uint256"
        },
        {
          "indexed": true,
          "internalType": "address",
          "name": "hunter",
          "type": "address"
        },
        {
          "indexed": true,
          "internalType": "address",
          "name": "token",
          "type": "address"
        },
        {
          "indexed": false,
          "internalType": "uint256",
          "name": "amount",
          "type": "uint256"
        }
      ],
      "name": "BountyPaid",
      "type": "event"
    },
    {
      "anonymous": false,
      "inputs": [
        {
          "indexed": false,
          "internalType": "uint8",
          "name": "version",
          "type": "uint8"
        }
      ],
      "name": "Initialized",
      "type": "event"
    },
    {
      "anonymous": false,
      "inputs": [
        {
          "indexed": true,
          "internalType": "uint256",
          "name": "pid",
          "type": "uint256"
        },
        {
          "indexed": true,
          "internalType": "address",
          "name": "token",
          "type": "address"
        },
        {
          "indexed": true,
          "internalType": "uint256",
          "name": "tokenDecimals",
          "type": "uint256"
        }
      ],
      "name": "NewBountyDeployed",
      "type": "event"
    },
    {
      "anonymous": false,
      "inputs": [
        {
          "indexed": true,
          "internalType": "address",
          "name": "previousOwner",
          "type": "address"
        },
        {
          "indexed": true,
          "internalType": "address",
          "name": "newOwner",
          "type": "address"
        }
      ],
      "name": "OwnershipTransferred",
      "type": "event"
    },
    {
      "anonymous": false,
      "inputs": [
        {
          "indexed": true,
          "internalType": "uint256",
          "name": "pid",
          "type": "uint256"
        },
        {
          "indexed": true,
          "internalType": "uint256",
          "name": "amount",
          "type": "uint256"
        }
      ],
      "name": "PremiumBilled",
      "type": "event"
    },
    {
      "anonymous": false,
      "inputs": [
        {
          "indexed": true,
          "internalType": "address",
          "name": "user",
          "type": "address"
        },
        {
          "indexed": true,
          "internalType": "uint256",
          "name": "pid",
          "type": "uint256"
        },
        {
          "indexed": false,
          "internalType": "uint256",
          "name": "amount",
          "type": "uint256"
        }
      ],
      "name": "Staked",
      "type": "event"
    },
    {
      "anonymous": false,
      "inputs": [
        {
          "indexed": true,
          "internalType": "address",
          "name": "from",
          "type": "address"
        },
        {
          "indexed": true,
          "internalType": "address",
          "name": "to",
          "type": "address"
        },
        {
          "indexed": true,
          "internalType": "uint256",
          "name": "tokenId",
          "type": "uint256"
        }
      ],
      "name": "Transfer",
      "type": "event"
    },
    {
      "anonymous": false,
      "inputs": [
        {
          "indexed": true,
          "internalType": "address",
          "name": "user",
          "type": "address"
        },
        {
          "indexed": true,
          "internalType": "uint256",
          "name": "pid",
          "type": "uint256"
        },
        {
          "indexed": false,
          "internalType": "uint256",
          "name": "amount",
          "type": "uint256"
        }
      ],
      "name": "Unstaked",
      "type": "event"
    },
    {
      "anonymous": false,
      "inputs": [
        {
          "indexed": true,
          "internalType": "address",
          "name": "implementation",
          "type": "address"
        }
      ],
      "name": "Upgraded",
      "type": "event"
    },
    {
      "anonymous": false,
      "inputs": [
        {
          "indexed": true,
          "internalType": "uint256",
          "name": "pid",
          "type": "uint256"
        },
        {
          "indexed": true,
          "internalType": "uint256",
          "name": "amount",
          "type": "uint256"
        }
      ],
      "name": "WithdrawalOrUnstakeScheduled",
      "type": "event"
    },
    {
      "anonymous": false,
      "inputs": [
        {
          "indexed": true,
          "internalType": "address",
          "name": "token",
          "type": "address"
        },
        {
          "indexed": true,
          "internalType": "bool",
          "name": "whitelisted",
          "type": "bool"
        }
      ],
      "name": "tokenWhitelistUpdated",
      "type": "event"
    },
    {
      "inputs": [],
      "name": "acceptOwnershipTransfer",
      "outputs": [],
      "stateMutability": "nonpayable",
      "type": "function"
    },
    {
      "inputs": [
        {
          "internalType": "uint256",
          "name": "",
          "type": "uint256"
        }
      ],
      "name": "activeStrategies",
      "outputs": [
        {
          "internalType": "bytes32",
          "name": "",
          "type": "bytes32"
        }
      ],
      "stateMutability": "view",
      "type": "function"
    },
    {
      "inputs": [
        {
          "internalType": "uint256",
          "name": "",
          "type": "uint256"
        }
      ],
      "name": "activeTokens",
      "outputs": [
        {
          "internalType": "address",
          "name": "",
          "type": "address"
        }
      ],
      "stateMutability": "view",
      "type": "function"
    },
    {
      "inputs": [
        {
          "internalType": "address",
          "name": "_token",
          "type": "address"
        },
        {
          "internalType": "address",
          "name": "_projectWallet",
          "type": "address"
        },
        {
          "internalType": "string",
          "name": "_projectName",
          "type": "string"
        }
      ],
      "name": "addNewBountyPool",
      "outputs": [
        {
          "internalType": "uint256",
          "name": "",
          "type": "uint256"
        }
      ],
      "stateMutability": "nonpayable",
      "type": "function"
    },
    {
      "inputs": [
        {
          "internalType": "address",
          "name": "to",
          "type": "address"
        },
        {
          "internalType": "uint256",
          "name": "tokenId",
          "type": "uint256"
        }
      ],
      "name": "approve",
      "outputs": [],
      "stateMutability": "nonpayable",
      "type": "function"
    },
    {
      "inputs": [
        {
          "internalType": "address",
          "name": "owner",
          "type": "address"
        }
      ],
      "name": "balanceOf",
      "outputs": [
        {
          "internalType": "uint256",
          "name": "",
          "type": "uint256"
        }
      ],
      "stateMutability": "view",
      "type": "function"
    },
    {
      "inputs": [
        {
          "internalType": "uint256",
          "name": "_pid",
          "type": "uint256"
        }
      ],
      "name": "billPremium",
      "outputs": [
        {
          "internalType": "bool",
          "name": "",
          "type": "bool"
        }
      ],
      "stateMutability": "nonpayable",
      "type": "function"
    },
    {
      "inputs": [
        {
          "internalType": "uint256",
          "name": "_poolCap",
          "type": "uint256"
        },
        {
          "internalType": "uint256",
          "name": "_apy",
          "type": "uint256"
        }
      ],
      "name": "calcRequiredPremiumBalancePerPeriod",
      "outputs": [
        {
          "internalType": "uint256",
          "name": "requiredPremiumBalance",
          "type": "uint256"
        }
      ],
      "stateMutability": "pure",
      "type": "function"
    },
    {
      "inputs": [
        {
          "internalType": "uint256",
          "name": "_pid",
          "type": "uint256"
        },
        {
          "internalType": "uint256",
          "name": "_stake",
          "type": "uint256"
        }
      ],
      "name": "calculateEffectiveAPY",
      "outputs": [
        {
          "internalType": "uint256",
          "name": "scaledAPY",
          "type": "uint256"
        }
      ],
      "stateMutability": "view",
      "type": "function"
    },
    {
      "inputs": [
        {
          "internalType": "uint256",
          "name": "_pid",
          "type": "uint256"
        },
        {
          "internalType": "uint256",
          "name": "_stake",
          "type": "uint256"
        },
        {
          "internalType": "uint256",
          "name": "_memX",
          "type": "uint256"
        }
      ],
      "name": "calculateEffectiveAPYConsolidate",
      "outputs": [
        {
          "internalType": "uint256",
          "name": "scaledAPY",
          "type": "uint256"
        }
      ],
      "stateMutability": "view",
      "type": "function"
    },
    {
      "inputs": [
        {
          "internalType": "uint256",
          "name": "_tokenId",
          "type": "uint256"
        }
      ],
      "name": "claimPremium",
      "outputs": [],
      "stateMutability": "nonpayable",
      "type": "function"
    },
    {
      "inputs": [
        {
          "internalType": "address",
          "name": "_saloonWallet",
          "type": "address"
        }
      ],
      "name": "collectAllSaloonProfits",
      "outputs": [
        {
          "internalType": "bool",
          "name": "",
          "type": "bool"
        }
      ],
      "stateMutability": "nonpayable",
      "type": "function"
    },
    {
      "inputs": [
        {
          "internalType": "address",
          "name": "_token",
          "type": "address"
        },
        {
          "internalType": "address",
          "name": "_saloonWallet",
          "type": "address"
        }
      ],
      "name": "collectSaloonProfits",
      "outputs": [
        {
          "internalType": "bool",
          "name": "",
          "type": "bool"
        }
      ],
      "stateMutability": "nonpayable",
      "type": "function"
    },
    {
      "inputs": [],
      "name": "compoundYieldForAll",
      "outputs": [],
      "stateMutability": "nonpayable",
      "type": "function"
    },
    {
      "inputs": [
        {
          "internalType": "uint256",
          "name": "_pid",
          "type": "uint256"
        }
      ],
      "name": "compoundYieldForPid",
      "outputs": [],
      "stateMutability": "nonpayable",
      "type": "function"
    },
    {
      "inputs": [
        {
          "internalType": "uint256",
          "name": "_pid",
          "type": "uint256"
        }
      ],
      "name": "consolidate",
      "outputs": [],
      "stateMutability": "nonpayable",
      "type": "function"
    },
    {
      "inputs": [],
      "name": "consolidateAll",
      "outputs": [],
      "stateMutability": "nonpayable",
      "type": "function"
    },
    {
      "inputs": [
        {
          "internalType": "uint256",
          "name": "tokenId",
          "type": "uint256"
        }
      ],
      "name": "getApproved",
      "outputs": [
        {
          "internalType": "address",
          "name": "",
          "type": "address"
        }
      ],
      "stateMutability": "view",
      "type": "function"
    },
    {
      "inputs": [
        {
          "internalType": "uint256",
          "name": "_pid",
          "type": "uint256"
        }
      ],
      "name": "getCurrentAPY",
      "outputs": [
        {
          "internalType": "uint256",
          "name": "currentAPY",
          "type": "uint256"
        }
      ],
      "stateMutability": "view",
      "type": "function"
    },
    {
      "inputs": [
        {
          "internalType": "uint256",
          "name": "_from",
          "type": "uint256"
        },
        {
          "internalType": "uint256",
          "name": "_to",
          "type": "uint256"
        }
      ],
      "name": "getMultiplier",
      "outputs": [
        {
          "internalType": "uint256",
          "name": "",
          "type": "uint256"
        }
      ],
      "stateMutability": "pure",
      "type": "function"
    },
    {
      "inputs": [],
      "name": "index",
      "outputs": [
        {
          "internalType": "uint256",
          "name": "",
          "type": "uint256"
        }
      ],
      "stateMutability": "view",
      "type": "function"
    },
    {
      "inputs": [
        {
          "internalType": "address",
          "name": "_strategyFactory",
          "type": "address"
        }
      ],
      "name": "initialize",
      "outputs": [],
      "stateMutability": "nonpayable",
      "type": "function"
    },
    {
      "inputs": [
        {
          "internalType": "address",
          "name": "owner",
          "type": "address"
        },
        {
          "internalType": "address",
          "name": "operator",
          "type": "address"
        }
      ],
      "name": "isApprovedForAll",
      "outputs": [
        {
          "internalType": "bool",
          "name": "",
          "type": "bool"
        }
      ],
      "stateMutability": "view",
      "type": "function"
    },
    {
      "inputs": [
        {
          "internalType": "uint256",
          "name": "_pid",
          "type": "uint256"
        },
        {
          "internalType": "uint256",
          "name": "_deposit",
          "type": "uint256"
        },
        {
          "internalType": "string",
          "name": "_strategyName",
          "type": "string"
        }
      ],
      "name": "makeProjectDeposit",
      "outputs": [],
      "stateMutability": "nonpayable",
      "type": "function"
    },
    {
      "inputs": [
        {
          "internalType": "address",
          "name": "",
          "type": "address"
        }
      ],
      "name": "minTokenStakeAmount",
      "outputs": [
        {
          "internalType": "uint256",
          "name": "",
          "type": "uint256"
        }
      ],
      "stateMutability": "view",
      "type": "function"
    },
    {
      "inputs": [],
      "name": "name",
      "outputs": [
        {
          "internalType": "string",
          "name": "",
          "type": "string"
        }
      ],
      "stateMutability": "view",
      "type": "function"
    },
    {
      "inputs": [
        {
          "internalType": "uint256",
          "name": "",
          "type": "uint256"
        }
      ],
      "name": "nftAPY",
      "outputs": [
        {
          "internalType": "uint256",
          "name": "",
          "type": "uint256"
        }
      ],
      "stateMutability": "view",
      "type": "function"
    },
    {
      "inputs": [
        {
          "internalType": "uint256",
          "name": "",
          "type": "uint256"
        }
      ],
      "name": "nftBalance",
      "outputs": [
        {
          "internalType": "uint256",
          "name": "",
          "type": "uint256"
        }
      ],
      "stateMutability": "view",
      "type": "function"
    },
    {
      "inputs": [
        {
          "internalType": "uint256",
          "name": "",
          "type": "uint256"
        }
      ],
      "name": "nftInfo",
      "outputs": [
        {
          "internalType": "uint256",
          "name": "amount",
          "type": "uint256"
        },
        {
          "internalType": "uint256",
          "name": "xDelta",
          "type": "uint256"
        },
        {
          "internalType": "uint256",
          "name": "apy",
          "type": "uint256"
        },
        {
          "internalType": "uint256",
          "name": "unclaimed",
          "type": "uint256"
        },
        {
          "internalType": "uint256",
          "name": "lastClaimedTime",
          "type": "uint256"
        },
        {
          "internalType": "uint256",
          "name": "timelock",
          "type": "uint256"
        },
        {
          "internalType": "uint256",
          "name": "timelimit",
          "type": "uint256"
        }
      ],
      "stateMutability": "view",
      "type": "function"
    },
    {
      "inputs": [
        {
          "internalType": "uint256",
          "name": "",
          "type": "uint256"
        }
      ],
      "name": "nftToPid",
      "outputs": [
        {
          "internalType": "uint256",
          "name": "",
          "type": "uint256"
        }
      ],
      "stateMutability": "view",
      "type": "function"
    },
    {
      "inputs": [],
      "name": "owner",
      "outputs": [
        {
          "internalType": "address",
          "name": "",
          "type": "address"
        }
      ],
      "stateMutability": "view",
      "type": "function"
    },
    {
      "inputs": [
        {
          "internalType": "uint256",
          "name": "tokenId",
          "type": "uint256"
        }
      ],
      "name": "ownerOf",
      "outputs": [
        {
          "internalType": "address",
          "name": "",
          "type": "address"
        }
      ],
      "stateMutability": "view",
      "type": "function"
    },
    {
      "inputs": [
        {
          "internalType": "uint256",
          "name": "_pid",
          "type": "uint256"
        },
        {
          "internalType": "address",
          "name": "_hunter",
          "type": "address"
        },
        {
          "internalType": "uint256",
          "name": "_amount",
          "type": "uint256"
        }
      ],
      "name": "payBounty",
      "outputs": [
        {
          "internalType": "bool",
          "name": "",
          "type": "bool"
        }
      ],
      "stateMutability": "nonpayable",
      "type": "function"
    },
    {
      "inputs": [
        {
          "internalType": "uint256",
          "name": "_tokenId",
          "type": "uint256"
        }
      ],
      "name": "pendingPremium",
      "outputs": [
        {
          "internalType": "uint256",
          "name": "totalPending",
          "type": "uint256"
        },
        {
          "internalType": "uint256",
          "name": "actualPending",
          "type": "uint256"
        },
        {
          "internalType": "uint256",
          "name": "newPending",
          "type": "uint256"
        }
      ],
      "stateMutability": "view",
      "type": "function"
    },
    {
      "inputs": [
        {
          "internalType": "uint256",
          "name": "",
          "type": "uint256"
        },
        {
          "internalType": "uint256",
          "name": "",
          "type": "uint256"
        }
      ],
      "name": "pidNFTList",
      "outputs": [
        {
          "internalType": "uint256",
          "name": "",
          "type": "uint256"
        }
      ],
      "stateMutability": "view",
      "type": "function"
    },
    {
      "inputs": [
        {
          "internalType": "uint256",
          "name": "",
          "type": "uint256"
        },
        {
          "internalType": "bytes32",
          "name": "",
          "type": "bytes32"
        }
      ],
      "name": "pidStrategies",
      "outputs": [
        {
          "internalType": "address",
          "name": "",
          "type": "address"
        }
      ],
      "stateMutability": "view",
      "type": "function"
    },
    {
      "inputs": [
        {
          "internalType": "uint256",
          "name": "",
          "type": "uint256"
        }
      ],
      "name": "poolInfo",
      "outputs": [
        {
          "components": [
            {
              "internalType": "contract IERC20",
              "name": "token",
              "type": "address"
            },
            {
              "internalType": "uint8",
              "name": "tokenDecimals",
              "type": "uint8"
            },
            {
              "internalType": "uint16",
              "name": "apy",
              "type": "uint16"
            },
            {
              "internalType": "address",
              "name": "projectWallet",
              "type": "address"
            },
            {
              "internalType": "string",
              "name": "projectName",
              "type": "string"
            },
            {
              "internalType": "uint256",
              "name": "poolCap",
              "type": "uint256"
            },
            {
              "internalType": "uint256",
              "name": "totalStaked",
              "type": "uint256"
            },
            {
              "internalType": "uint256",
              "name": "multiplier",
              "type": "uint256"
            }
          ],
          "internalType": "struct ISaloon.GeneralInfo",
          "name": "generalInfo",
          "type": "tuple"
        },
        {
          "components": [
            {
              "internalType": "uint256",
              "name": "projectDepositHeld",
              "type": "uint256"
            },
            {
              "internalType": "uint256",
              "name": "projectDepositInStrategy",
              "type": "uint256"
            }
          ],
          "internalType": "struct ISaloon.DepositInfo",
          "name": "depositInfo",
          "type": "tuple"
        },
        {
          "components": [
            {
              "internalType": "uint256",
              "name": "premiumBalance",
              "type": "uint256"
            },
            {
              "internalType": "uint256",
              "name": "premiumAvailable",
              "type": "uint256"
            }
          ],
          "internalType": "struct ISaloon.PremiumInfo",
          "name": "premiumInfo",
          "type": "tuple"
        },
        {
          "components": [
            {
              "internalType": "uint256",
              "name": "timelock",
              "type": "uint256"
            },
            {
              "internalType": "uint256",
              "name": "timeLimit",
              "type": "uint256"
            },
            {
              "internalType": "uint256",
              "name": "withdrawalScheduledAmount",
              "type": "uint256"
            },
            {
              "internalType": "bool",
              "name": "withdrawalExecuted",
              "type": "bool"
            }
          ],
          "internalType": "struct ISaloon.TimelockInfo",
          "name": "poolTimelock",
          "type": "tuple"
        },
        {
          "components": [
            {
              "internalType": "uint256",
              "name": "currentX",
              "type": "uint256"
            },
            {
              "internalType": "uint256",
              "name": "currentY",
              "type": "uint256"
            },
            {
              "internalType": "uint256",
              "name": "totalSupply",
              "type": "uint256"
            },
            {
              "internalType": "uint256[]",
              "name": "unstakedTokens",
              "type": "uint256[]"
            }
          ],
          "internalType": "struct ISaloon.TokenInfo",
          "name": "tokenInfo",
          "type": "tuple"
        },
        {
          "internalType": "uint256",
          "name": "freezeTime",
          "type": "uint256"
        },
        {
          "internalType": "bool",
          "name": "isActive",
          "type": "bool"
        }
      ],
      "stateMutability": "view",
      "type": "function"
    },
    {
      "inputs": [],
      "name": "poolLength",
      "outputs": [
        {
          "internalType": "uint256",
          "name": "",
          "type": "uint256"
        }
      ],
      "stateMutability": "view",
      "type": "function"
    },
    {
      "inputs": [
        {
          "internalType": "uint256",
          "name": "_pid",
          "type": "uint256"
        },
        {
          "internalType": "uint256",
          "name": "_amount",
          "type": "uint256"
        }
      ],
      "name": "projectDepositWithdrawal",
      "outputs": [
        {
          "internalType": "bool",
          "name": "",
          "type": "bool"
        }
      ],
      "stateMutability": "nonpayable",
      "type": "function"
    },
    {
      "inputs": [],
      "name": "proxiableUUID",
      "outputs": [
        {
          "internalType": "bytes32",
          "name": "",
          "type": "bytes32"
        }
      ],
      "stateMutability": "view",
      "type": "function"
    },
    {
      "inputs": [
        {
          "internalType": "address",
          "name": "_token",
          "type": "address"
        },
        {
          "internalType": "uint256",
          "name": "_amount",
          "type": "uint256"
        }
      ],
      "name": "receiveStrategyYield",
      "outputs": [],
      "stateMutability": "nonpayable",
      "type": "function"
    },
    {
      "inputs": [
        {
          "internalType": "address",
          "name": "from",
          "type": "address"
        },
        {
          "internalType": "address",
          "name": "to",
          "type": "address"
        },
        {
          "internalType": "uint256",
          "name": "tokenId",
          "type": "uint256"
        }
      ],
      "name": "safeTransferFrom",
      "outputs": [],
      "stateMutability": "nonpayable",
      "type": "function"
    },
    {
      "inputs": [
        {
          "internalType": "address",
          "name": "from",
          "type": "address"
        },
        {
          "internalType": "address",
          "name": "to",
          "type": "address"
        },
        {
          "internalType": "uint256",
          "name": "tokenId",
          "type": "uint256"
        },
        {
          "internalType": "bytes",
          "name": "data",
          "type": "bytes"
        }
      ],
      "name": "safeTransferFrom",
      "outputs": [],
      "stateMutability": "nonpayable",
      "type": "function"
    },
    {
      "inputs": [
        {
          "internalType": "address",
          "name": "",
          "type": "address"
        }
      ],
      "name": "saloonBountyProfit",
      "outputs": [
        {
          "internalType": "uint256",
          "name": "",
          "type": "uint256"
        }
      ],
      "stateMutability": "view",
      "type": "function"
    },
    {
      "inputs": [
        {
          "internalType": "address",
          "name": "",
          "type": "address"
        }
      ],
      "name": "saloonPremiumProfit",
      "outputs": [
        {
          "internalType": "uint256",
          "name": "",
          "type": "uint256"
        }
      ],
      "stateMutability": "view",
      "type": "function"
    },
    {
      "inputs": [
        {
          "internalType": "address",
          "name": "",
          "type": "address"
        }
      ],
      "name": "saloonStrategyProfit",
      "outputs": [
        {
          "internalType": "uint256",
          "name": "",
          "type": "uint256"
        }
      ],
      "stateMutability": "view",
      "type": "function"
    },
    {
      "inputs": [
        {
          "internalType": "uint256",
          "name": "_pid",
          "type": "uint256"
        },
        {
          "internalType": "uint256",
          "name": "_amount",
          "type": "uint256"
        }
      ],
      "name": "scheduleProjectDepositWithdrawal",
      "outputs": [
        {
          "internalType": "bool",
          "name": "",
          "type": "bool"
        }
      ],
      "stateMutability": "nonpayable",
      "type": "function"
    },
    {
      "inputs": [
        {
          "internalType": "uint256",
          "name": "_tokenId",
          "type": "uint256"
        }
      ],
      "name": "scheduleUnstake",
      "outputs": [
        {
          "internalType": "bool",
          "name": "",
          "type": "bool"
        }
      ],
      "stateMutability": "nonpayable",
      "type": "function"
    },
    {
      "inputs": [
        {
          "internalType": "uint256",
          "name": "_pid",
          "type": "uint256"
        },
        {
          "internalType": "uint256",
          "name": "_poolCap",
          "type": "uint256"
        },
        {
          "internalType": "uint16",
          "name": "_apy",
          "type": "uint16"
        },
        {
          "internalType": "uint256",
          "name": "_deposit",
          "type": "uint256"
        },
        {
          "internalType": "string",
          "name": "_strategyName",
          "type": "string"
        }
      ],
      "name": "setAPYandPoolCapAndDeposit",
      "outputs": [],
      "stateMutability": "nonpayable",
      "type": "function"
    },
    {
      "inputs": [
        {
          "internalType": "address",
          "name": "operator",
          "type": "address"
        },
        {
          "internalType": "bool",
          "name": "approved",
          "type": "bool"
        }
      ],
      "name": "setApprovalForAll",
      "outputs": [],
      "stateMutability": "nonpayable",
      "type": "function"
    },
    {
      "inputs": [
        {
          "internalType": "uint256",
          "name": "_pid",
          "type": "uint256"
        },
        {
          "internalType": "uint256",
          "name": "_amount",
          "type": "uint256"
        }
      ],
      "name": "stake",
      "outputs": [
        {
          "internalType": "uint256",
          "name": "",
          "type": "uint256"
        }
      ],
      "stateMutability": "nonpayable",
      "type": "function"
    },
    {
      "inputs": [
        {
          "internalType": "bytes4",
          "name": "interfaceId",
          "type": "bytes4"
        }
      ],
      "name": "supportsInterface",
      "outputs": [
        {
          "internalType": "bool",
          "name": "",
          "type": "bool"
        }
      ],
      "stateMutability": "view",
      "type": "function"
    },
    {
      "inputs": [],
      "name": "symbol",
      "outputs": [
        {
          "internalType": "string",
          "name": "",
          "type": "string"
        }
      ],
      "stateMutability": "view",
      "type": "function"
    },
    {
      "inputs": [
        {
          "internalType": "uint256",
          "name": "tokenId",
          "type": "uint256"
        }
      ],
      "name": "tokenURI",
      "outputs": [
        {
          "internalType": "string",
          "name": "",
          "type": "string"
        }
      ],
      "stateMutability": "view",
      "type": "function"
    },
    {
      "inputs": [
        {
          "internalType": "address",
          "name": "",
          "type": "address"
        }
      ],
      "name": "tokenWhitelist",
      "outputs": [
        {
          "internalType": "bool",
          "name": "",
          "type": "bool"
        }
      ],
      "stateMutability": "view",
      "type": "function"
    },
    {
      "inputs": [
        {
          "internalType": "address",
          "name": "from",
          "type": "address"
        },
        {
          "internalType": "address",
          "name": "to",
          "type": "address"
        },
        {
          "internalType": "uint256",
          "name": "tokenId",
          "type": "uint256"
        }
      ],
      "name": "transferFrom",
      "outputs": [],
      "stateMutability": "nonpayable",
      "type": "function"
    },
    {
      "inputs": [
        {
          "internalType": "address",
          "name": "newOwner",
          "type": "address"
        }
      ],
      "name": "transferOwnership",
      "outputs": [],
      "stateMutability": "nonpayable",
      "type": "function"
    },
    {
      "inputs": [
        {
          "internalType": "uint256",
          "name": "_tokenId",
          "type": "uint256"
        },
        {
          "internalType": "bool",
          "name": "_shouldHarvest",
          "type": "bool"
        }
      ],
      "name": "unstake",
      "outputs": [
        {
          "internalType": "bool",
          "name": "",
          "type": "bool"
        }
      ],
      "stateMutability": "nonpayable",
      "type": "function"
    },
    {
      "inputs": [
        {
          "internalType": "address",
          "name": "_strategyFactory",
          "type": "address"
        }
      ],
      "name": "updateStrategyFactoryAddress",
      "outputs": [],
      "stateMutability": "nonpayable",
      "type": "function"
    },
    {
      "inputs": [
        {
          "internalType": "address",
          "name": "_token",
          "type": "address"
        },
        {
          "internalType": "bool",
          "name": "_whitelisted",
          "type": "bool"
        },
        {
          "internalType": "uint256",
          "name": "_minStakeAmount",
          "type": "uint256"
        }
      ],
      "name": "updateTokenWhitelist",
      "outputs": [
        {
          "internalType": "bool",
          "name": "",
          "type": "bool"
        }
      ],
      "stateMutability": "nonpayable",
      "type": "function"
    },
    {
      "inputs": [
        {
          "internalType": "address",
          "name": "newImplementation",
          "type": "address"
        }
      ],
      "name": "upgradeTo",
      "outputs": [],
      "stateMutability": "nonpayable",
      "type": "function"
    },
    {
      "inputs": [
        {
          "internalType": "address",
          "name": "newImplementation",
          "type": "address"
        },
        {
          "internalType": "bytes",
          "name": "data",
          "type": "bytes"
        }
      ],
      "name": "upgradeToAndCall",
      "outputs": [],
      "stateMutability": "payable",
      "type": "function"
    },
    {
      "inputs": [
        {
          "internalType": "uint256",
          "name": "_pid",
          "type": "uint256"
        }
      ],
      "name": "viewBountyBalance",
      "outputs": [
        {
          "internalType": "uint256",
          "name": "",
          "type": "uint256"
        }
      ],
      "stateMutability": "view",
      "type": "function"
    },
    {
      "inputs": [
        {
          "internalType": "uint256",
          "name": "_pid",
          "type": "uint256"
        }
      ],
      "name": "viewBountyInfo",
      "outputs": [
        {
          "internalType": "uint256",
          "name": "payout",
          "type": "uint256"
        },
        {
          "internalType": "uint256",
          "name": "apy",
          "type": "uint256"
        },
        {
          "internalType": "uint256",
          "name": "staked",
          "type": "uint256"
        },
        {
          "internalType": "uint256",
          "name": "poolCap",
          "type": "uint256"
        }
      ],
      "stateMutability": "view",
      "type": "function"
    },
    {
      "inputs": [
        {
          "internalType": "uint256",
          "name": "_pid",
          "type": "uint256"
        }
      ],
      "name": "viewHackerPayout",
      "outputs": [
        {
          "internalType": "uint256",
          "name": "",
          "type": "uint256"
        }
      ],
      "stateMutability": "view",
      "type": "function"
    },
    {
      "inputs": [
        {
          "internalType": "uint256",
          "name": "_pid",
          "type": "uint256"
        }
      ],
      "name": "viewMinProjectDeposit",
      "outputs": [
        {
          "internalType": "uint256",
          "name": "",
          "type": "uint256"
        }
      ],
      "stateMutability": "view",
      "type": "function"
    },
    {
      "inputs": [
        {
          "internalType": "uint256",
          "name": "_pid",
          "type": "uint256"
        }
      ],
      "name": "viewPoolAPY",
      "outputs": [
        {
          "internalType": "uint256",
          "name": "",
          "type": "uint256"
        }
      ],
      "stateMutability": "view",
      "type": "function"
    },
    {
      "inputs": [
        {
          "internalType": "uint256",
          "name": "_pid",
          "type": "uint256"
        }
      ],
      "name": "viewPoolCap",
      "outputs": [
        {
          "internalType": "uint256",
          "name": "",
          "type": "uint256"
        }
      ],
      "stateMutability": "view",
      "type": "function"
    },
    {
      "inputs": [
        {
          "internalType": "uint256",
          "name": "_pid",
          "type": "uint256"
        }
      ],
      "name": "viewPoolPremiumInfo",
      "outputs": [
        {
          "internalType": "uint256",
          "name": "requiredPremiumBalancePerPeriod",
          "type": "uint256"
        },
        {
          "internalType": "uint256",
          "name": "premiumBalance",
          "type": "uint256"
        },
        {
          "internalType": "uint256",
          "name": "premiumAvailable",
          "type": "uint256"
        }
      ],
      "stateMutability": "view",
      "type": "function"
    },
    {
      "inputs": [
        {
          "internalType": "uint256",
          "name": "_pid",
          "type": "uint256"
        }
      ],
      "name": "viewPoolTimelockInfo",
      "outputs": [
        {
          "internalType": "uint256",
          "name": "timelock",
          "type": "uint256"
        },
        {
          "internalType": "uint256",
          "name": "timeLimit",
          "type": "uint256"
        },
        {
          "internalType": "uint256",
          "name": "withdrawalScheduledAmount",
          "type": "uint256"
        }
      ],
      "stateMutability": "view",
      "type": "function"
    },
    {
      "inputs": [
        {
          "internalType": "address",
          "name": "_token",
          "type": "address"
        }
      ],
      "name": "viewSaloonProfitBalance",
      "outputs": [
        {
          "internalType": "uint256",
          "name": "totalProfit",
          "type": "uint256"
        },
        {
          "internalType": "uint256",
          "name": "bountyProfit",
          "type": "uint256"
        },
        {
          "internalType": "uint256",
          "name": "strategyProfit",
          "type": "uint256"
        },
        {
          "internalType": "uint256",
          "name": "premiumProfit",
          "type": "uint256"
        }
      ],
      "stateMutability": "view",
      "type": "function"
    },
    {
      "inputs": [
        {
          "internalType": "uint256",
          "name": "_tokenId",
          "type": "uint256"
        }
      ],
      "name": "viewTokenInfo",
      "outputs": [
        {
          "internalType": "uint256",
          "name": "amount",
          "type": "uint256"
        },
        {
          "internalType": "uint256",
          "name": "apy",
          "type": "uint256"
        },
        {
          "internalType": "uint256",
          "name": "actualPending",
          "type": "uint256"
        },
        {
          "internalType": "uint256",
          "name": "unclaimed",
          "type": "uint256"
        },
        {
          "internalType": "uint256",
          "name": "timelock",
          "type": "uint256"
        }
      ],
      "stateMutability": "view",
      "type": "function"
    },
    {
      "inputs": [
        {
          "internalType": "uint256",
          "name": "_pid",
          "type": "uint256"
        }
      ],
      "name": "viewTotalStaked",
      "outputs": [
        {
          "internalType": "uint256",
          "name": "",
          "type": "uint256"
        }
      ],
      "stateMutability": "view",
      "type": "function"
    },
    {
      "inputs": [
        {
          "internalType": "uint256",
          "name": "_tokenId",
          "type": "uint256"
        }
      ],
      "name": "viewUserUnclaimed",
      "outputs": [
        {
          "internalType": "uint256",
          "name": "unclaimed",
          "type": "uint256"
        }
      ],
      "stateMutability": "view",
      "type": "function"
    },
    {
      "inputs": [
        {
          "internalType": "uint256",
          "name": "_pid",
          "type": "uint256"
        }
      ],
      "name": "windDownBounty",
      "outputs": [
        {
          "internalType": "bool",
          "name": "",
          "type": "bool"
        }
      ],
      "stateMutability": "nonpayable",
      "type": "function"
    }
  ],
  "bytecode": {
    "object": "0x60a0604052306080523480156200001557600080fd5b50600160ca55600054610100900460ff16158080156200003c5750600054600160ff909116105b806200006c575062000059306200019760201b62005f251760201c565b1580156200006c575060005460ff166001145b620000d55760405162461bcd60e51b815260206004820152602e60248201527f496e697469616c697a61626c653a20636f6e747261637420697320616c72656160448201526d191e481a5b9a5d1a585b1a5e995960921b60648201526084015b60405180910390fd5b6000805460ff191660011790558015620000f9576000805461ff0019166101001790555b620001496040518060400160405280600b81526020016a2137bab73a3caa37b5b2b760a91b8152506040518060400160405280600381526020016210951560ea1b815250620001a660201b60201c565b801562000190576000805461ff0019169055604051600181527f7f26b83ff96e1f2b6a682f133852f6798a09c465da95921460cefb38474024989060200160405180910390a15b5062000400565b6001600160a01b03163b151590565b600054610100900460ff16620002025760405162461bcd60e51b815260206004820152602b6024820152600080516020620092f283398151915260448201526a6e697469616c697a696e6760a81b6064820152608401620000cc565b6200020e828262000212565b5050565b600054610100900460ff166200026e5760405162461bcd60e51b815260206004820152602b6024820152600080516020620092f283398151915260448201526a6e697469616c697a696e6760a81b6064820152608401620000cc565b60fd6200027c838262000334565b5060fe6200028b828262000334565b505050565b634e487b7160e01b600052604160045260246000fd5b600181811c90821680620002bb57607f821691505b602082108103620002dc57634e487b7160e01b600052602260045260246000fd5b50919050565b601f8211156200028b57600081815260208120601f850160051c810160208610156200030b5750805b601f850160051c820191505b818110156200032c5782815560010162000317565b505050505050565b81516001600160401b0381111562000350576200035062000290565b6200036881620003618454620002a6565b84620002e2565b602080601f831160018114620003a05760008415620003875750858301515b600019600386901b1c1916600185901b1785556200032c565b600085815260208120601f198616915b82811015620003d157888601518255948401946001909101908401620003b0565b5085821015620003f05787850151600019600388901b60f8161c191681555b5050505050600190811b01905550565b608051618eba6200043860003960008181611d7801528181611db80152818161293e0152818161297e0152612a110152618eba6000f3fe60806040526004361061043c5760003560e01c8063753d756311610234578063b1a2d16f1161012e578063dbdd6957116100b6578063ecd7fbed1161007a578063ecd7fbed14610eb0578063f2fde38b14610ed0578063f47ec3be14610ef0578063f68ce49914610f10578063ff5e5b5f14610f2557600080fd5b8063dbdd695714610dca578063e45abd0f14610dea578063e63d6ee414610e18578063e78ea3df14610e46578063e985e9c514610e6657600080fd5b8063bb7019c1116100fd578063bb7019c114610d1c578063c4d66de814610d3c578063c87b56dd14610d5c578063ca00614814610d7c578063cf9564b914610daa57600080fd5b8063b1a2d16f14610c99578063b20b242914610cb9578063b842e87f14610ce7578063b88d4fde14610cfc57600080fd5b8063949a4a4a116101bc5780639f224f35116101805780639f224f3514610bf9578063a22cb46514610c19578063a27f921314610c39578063ac30b85614610c59578063ae07f94814610c7957600080fd5b8063949a4a4a14610b6457806395d89b4114610b8457806396ea48e814610b99578063983c1ce014610bb95780639ebea88c14610bd957600080fd5b8063804fd59011610203578063804fd59014610ac6578063836ef1fa14610ae6578063861e5f6614610b065780638da5cb5b14610b265780638dbb1e3a14610b4457600080fd5b8063753d756314610a4057806375bfd63d14610a715780637b0472f014610a865780637fbf385314610aa657600080fd5b806330ca0794116103455780634f1ef286116102cd578063612afc0c11610291578063612afc0c146109925780636352211e146109c05780636ac6d812146109e057806370a0823114610a00578063718c7eef14610a2057600080fd5b80634f1ef286146108fc57806352d1902d1461090f5780635669cbef14610924578063598d17bf146109445780635c46f7b11461097257600080fd5b806339679ff41161031457806339679ff4146108215780633ac6ad7b1461084157806340bd1d001461086157806340ef28681461089c57806342842e0e146108dc57600080fd5b806330ca0794146107935780633538fda0146107b35780633659cfe6146107d357806339458723146107f357600080fd5b806319693071116103c85780631f8bc790116103975780631f8bc7901461068e57806323b872dd1461071c5780632986c0e51461073c5780632cb0dfcc146107535780632dbe051e1461077357600080fd5b806319693071146105ef5780631aebcecb146106205780631c6b323f146106405780631df566221461066057600080fd5b8063081e3eda1161040f578063081e3eda14610512578063095ea7b314610532578063106d08df1461055457806310725852146105745780631526fe27146105bc57600080fd5b806301ffc9a71461044157806306fdde0314610476578063074ecf0314610498578063081812fc146104f2575b600080fd5b34801561044d57600080fd5b5061046161045c36600461816b565b610f45565b60405190151581526020015b60405180910390f35b34801561048257600080fd5b5061048b610f97565b60405161046d91906181d8565b3480156104a457600080fd5b506104da6104b33660046181eb565b61013a6020908152600092835260408084209091529082529020546001600160a01b031681565b6040516001600160a01b03909116815260200161046d565b3480156104fe57600080fd5b506104da61050d36600461820d565b611029565b34801561051e57600080fd5b50610130545b60405190815260200161046d565b34801561053e57600080fd5b5061055261054d36600461823b565b611051565b005b34801561056057600080fd5b5061046161056f36600461820d565b61116b565b34801561058057600080fd5b5061059461058f36600461820d565b61124a565b604080519586526020860194909452928401919091526060830152608082015260a00161046d565b3480156105c857600080fd5b506105dc6105d736600461820d565b6112e2565b60405161046d97969594939291906182d2565b3480156105fb57600080fd5b5061052461060a36600461820d565b6000908152610134602052604090206003015490565b34801561062c57600080fd5b5061055261063b36600461823b565b61150c565b34801561064c57600080fd5b5061052461065b36600461820d565b611554565b34801561066c57600080fd5b5061052461067b36600461820d565b6101326020526000908152604090205481565b34801561069a57600080fd5b506106e76106a936600461820d565b610134602052600090815260409020805460018201546002830154600384015460048501546005860154600690960154949593949293919290919087565b604080519788526020880196909652948601939093526060850191909152608084015260a083015260c082015260e00161046d565b34801561072857600080fd5b506105526107373660046183df565b61181c565b34801561074857600080fd5b506105246101035481565b34801561075f57600080fd5b5061046161076e36600461842e565b61184d565b34801561077f57600080fd5b5061046161078e36600461820d565b611a9f565b34801561079f57600080fd5b506105526107ae366004618501565b611abc565b3480156107bf57600080fd5b506105526107ce366004618575565b611d43565b3480156107df57600080fd5b506105526107ee366004618575565b611d6e565b3480156107ff57600080fd5b5061052461080e366004618575565b61013e6020526000908152604090205481565b34801561082d57600080fd5b5061052461083c36600461820d565b611e4d565b34801561084d57600080fd5b5061046161085c366004618592565b612100565b34801561086d57600080fd5b5061088161087c36600461820d565b612512565b6040805193845260208401929092529082015260600161046d565b3480156108a857600080fd5b506108bc6108b736600461820d565b6128e0565b60408051948552602085019390935291830152606082015260800161046d565b3480156108e857600080fd5b506105526108f73660046183df565b612919565b61055261090a3660046185b9565b612934565b34801561091b57600080fd5b50610524612a04565b34801561093057600080fd5b5061046161093f3660046181eb565b612ab7565b34801561095057600080fd5b5061052461095f366004618575565b6101386020526000908152604090205481565b34801561097e57600080fd5b5061052461098d3660046181eb565b612bdd565b34801561099e57600080fd5b506105246109ad36600461820d565b6101336020526000908152604090205481565b3480156109cc57600080fd5b506104da6109db36600461820d565b612fa0565b3480156109ec57600080fd5b506105246109fb36600461820d565b613000565b348015610a0c57600080fd5b50610524610a1b366004618575565b6132c2565b348015610a2c57600080fd5b506108bc610a3b366004618575565b613349565b348015610a4c57600080fd5b50610461610a5b366004618575565b61013c6020526000908152604090205460ff1681565b348015610a7d57600080fd5b50610552613399565b348015610a9257600080fd5b50610524610aa13660046181eb565b6133c1565b348015610ab257600080fd5b50610524610ac136600461820d565b61387d565b348015610ad257600080fd5b50610524610ae1366004618609565b613b4f565b348015610af257600080fd5b50610524610b013660046181eb565b613ef0565b348015610b1257600080fd5b50610524610b2136600461820d565b613f26565b348015610b3257600080fd5b506033546001600160a01b03166104da565b348015610b5057600080fd5b50610524610b5f3660046181eb565b6141fe565b348015610b7057600080fd5b50610552610b7f36600461820d565b61420a565b348015610b9057600080fd5b5061048b614624565b348015610ba557600080fd5b50610524610bb43660046181eb565b614633565b348015610bc557600080fd5b50610461610bd43660046181eb565b614665565b348015610be557600080fd5b50610461610bf436600461866b565b6147df565b348015610c0557600080fd5b506104da610c1436600461820d565b6149d8565b348015610c2557600080fd5b50610552610c3436600461869b565b614a03565b348015610c4557600080fd5b50610524610c5436600461820d565b614a0e565b348015610c6557600080fd5b50610881610c7436600461820d565b614cc4565b348015610c8557600080fd5b50610552610c943660046186c9565b614f8e565b348015610ca557600080fd5b50610881610cb436600461820d565b615082565b348015610cc557600080fd5b50610524610cd436600461820d565b61013b6020526000908152604090205481565b348015610cf357600080fd5b50610552615361565b348015610d0857600080fd5b50610552610d17366004618703565b6153e1565b348015610d2857600080fd5b50610461610d3736600461820d565b615419565b348015610d4857600080fd5b50610552610d57366004618575565b6154e5565b348015610d6857600080fd5b5061048b610d7736600461820d565b615612565b348015610d8857600080fd5b50610524610d97366004618575565b6101376020526000908152604090205481565b348015610db657600080fd5b50610461610dc536600461876f565b615685565b348015610dd657600080fd5b50610524610de536600461820d565b615720565b348015610df657600080fd5b50610524610e05366004618575565b6101366020526000908152604090205481565b348015610e2457600080fd5b50610524610e3336600461820d565b6101316020526000908152604090205481565b348015610e5257600080fd5b50610552610e6136600461820d565b6159d3565b348015610e7257600080fd5b50610461610e8136600461876f565b6001600160a01b0391821660009081526101026020908152604080832093909416825291909152205460ff1690565b348015610ebc57600080fd5b50610461610ecb366004618575565b615a62565b348015610edc57600080fd5b50610552610eeb366004618575565b615ac5565b348015610efc57600080fd5b50610552610f0b36600461820d565b615b54565b348015610f1c57600080fd5b50610552615b71565b348015610f3157600080fd5b50610524610f4036600461879d565b615b99565b60006001600160e01b031982166380ac58cd60e01b1480610f7657506001600160e01b03198216635b5e139f60e01b145b80610f9157506301ffc9a760e01b6001600160e01b03198316145b92915050565b606060fd8054610fa6906187c9565b80601f0160208091040260200160405190810160405280929190818152602001828054610fd2906187c9565b801561101f5780601f10610ff45761010080835404028352916020019161101f565b820191906000526020600020905b81548152906001019060200180831161100257829003601f168201915b5050505050905090565b600061103482615f34565b50600090815261010160205260409020546001600160a01b031690565b600061105c82612fa0565b9050806001600160a01b0316836001600160a01b0316036110ce5760405162461bcd60e51b815260206004820152602160248201527f4552433732313a20617070726f76616c20746f2063757272656e74206f776e656044820152603960f91b60648201526084015b60405180910390fd5b336001600160a01b03821614806110ea57506110ea8133610e81565b61115c5760405162461bcd60e51b815260206004820152603d60248201527f4552433732313a20617070726f76652063616c6c6572206973206e6f7420746f60448201527f6b656e206f776e6572206f7220617070726f76656420666f7220616c6c00000060648201526084016110c5565b6111668383615f93565b505050565b60003361117783612fa0565b6001600160a01b0316146111c35760405162461bcd60e51b815260206004820152601360248201527239b2b73232b91034b9903737ba1037bbb732b960691b60448201526064016110c5565b600082815261013360209081526040808320546101349092529091206111ec62093a8042618819565b60058201556111fe62093a8042618819565b61120b906203f480618819565b60068201558054604051819084907fb3b9c925de3673837b40c6b4d4463a8f88dc821cd27e07f1ff6bf6abf96413a590600090a3506001949350505050565b600081815261013360209081526040808320546101348352818420825160e081018452815480825260018301549582019590955260028201549381018490526003820154606082015260048201546080820152600582015460a082015260069091015460c082015292939192829182916112c388612512565b50606083015160a090930151989a979950979196919550909350505050565b61013081815481106112f357600080fd5b60009182526020918290206040805161010081018252601590930290910180546001600160a01b03808216855260ff600160a01b8304169585019590955261ffff600160a81b90910416918301919091526001810154909216606082015260028201805492935090918391608084019161136c906187c9565b80601f0160208091040260200160405190810160405280929190818152602001828054611398906187c9565b80156113e55780601f106113ba576101008083540402835291602001916113e5565b820191906000526020600020905b8154815290600101906020018083116113c857829003601f168201915b50505091835250506003820154602080830191909152600483015460408084019190915260059093015460609283015282518084018452600686015481526007860154818301528351808501855260088701548152600987015481840152845160808082018752600a8901548252600b89015482860152600c89015482880152600d89015460ff1615158287015286519081018752600e890180548252600f8a01548287015260108a01548289015260118a018054895181890281018901909a52808a52999a95999498939795969295919491860193929091908301828280156114ee57602002820191906000526020600020905b8154815260200190600101908083116114da575b50505091909252505050601382015460149092015490919060ff1687565b6115216001600160a01b038316333084616002565b506001600160a01b038216600090815261013860205260408120805483929061154b908490618819565b90915550505050565b600080610130838154811061156b5761156b61882c565b6000918252602090912060408051610200810190915260159092020180546001600160a01b038082166101008501908152600160a01b830460ff16610120860152600160a81b90920461ffff166101408501526001830154166101608401526002820180548492918491610180850191906115e5906187c9565b80601f0160208091040260200160405190810160405280929190818152602001828054611611906187c9565b801561165e5780601f106116335761010080835404028352916020019161165e565b820191906000526020600020905b81548152906001019060200180831161164157829003601f168201915b505050918352505060038201546020808301919091526004830154604080840191909152600590930154606092830152928452815180830183526006860154815260078601548185015284840152815180830183526008860154815260098601548185015284830152815160808082018452600a8701548252600b87015482860152600c87015482850152600d87015460ff161515828401528583019190915282518082018452600e870180548252600f8801548287015260108801548286015260118801805486518189028101890190975280875293909701969195909493860193929083018282801561177257602002820191906000526020600020905b81548152602001906001019080831161175e575b5050505050815250508152602001601282018054806020026020016040519081016040528092919081815260200182805480156117d857602002820191906000526020600020905b81546001600160a01b031681526001909101906020018083116117ba575b5050509183525050601382015460208083019190915260149092015460ff1615156040909101528181015190810151905191925061181591618819565b9392505050565b6118263382616070565b6118425760405162461bcd60e51b81526004016110c590618842565b6111668383836160ef565b6000611857616255565b6001600160a01b038416600090815261013c602052604090205460ff161515831514806118845750600082115b6118c95760405162461bcd60e51b81526020600482015260166024820152751b9bc818da185b99d9481d1bc81dda1a5d195b1a5cdd60521b60448201526064016110c5565b6001600160a01b038416600081815261013c6020526040808220805460ff191687151590811790915590519092917f99795d51e5a8804307721456a7a9c2f0d7421f719d46a46d36e91fee7c85aa7691a382156119815761013d8054600181019091557f311617e6f2abe00ca92b0da56c014828817049e78441cf034e4dd4feba5296250180546001600160a01b0319166001600160a01b038616908117909155600090815261013e60205260409020829055611a95565b61013d5460005b81811015611a9257600061013d82815481106119a6576119a661882c565b6000918252602090912001546001600160a01b03908116915087168103611a815761013d6119d560018561888f565b815481106119e5576119e561882c565b60009182526020909120015461013d80546001600160a01b039092169184908110611a1257611a1261882c565b9060005260206000200160006101000a8154816001600160a01b0302191690836001600160a01b0316021790555061013d805480611a5257611a526188a2565b600082815260209020810160001990810180546001600160a01b03191690550190555060019250611815915050565b50611a8b816188b8565b9050611988565b50505b5060019392505050565b6000611aa9616255565b611ab48260006162af565b506001919050565b60006101308681548110611ad257611ad261882c565b60009182526020909120601590910201601481015490915060ff16158015611afc57506003810154155b611b485760405162461bcd60e51b815260206004820152601860248201527f506f6f6c20616c726561647920696e697469616c697a6564000000000000000060448201526064016110c5565b60008461ffff16118015611b6257506127108461ffff1611155b611ba15760405162461bcd60e51b815260206004820152601060248201526f415059206f7574206f662072616e676560801b60448201526064016110c5565b8054611bb890600160a01b900460ff16600a6189b5565b611bc39060646189c4565b8510158015611bf557508054611be490600160a01b900460ff16600a6189b5565b611bf190629896806189c4565b8511155b611c395760405162461bcd60e51b8152602060048201526015602482015274506f6f6c20636170206f7574206f662072616e676560581b60448201526064016110c5565b60018101546001600160a01b03163314611c655760405162461bcd60e51b81526004016110c5906189db565b6000611c75868661ffff16613ef0565b90506000612710611c886103e8846189c4565b611c929190618a19565b9050611cb63330611ca38589618819565b86546001600160a01b0316929190616002565b5084836006016000016000828254611cce9190618819565b909155505060038301879055825461ffff60a81b1916600160a81b61ffff88160217835560148301805460ff1916600117905560088301829055611d12818361888f565b6009840155611d258861ffff88166163fa565b835115611d3957611d37888587616451565b505b5050505050505050565b611d4b616255565b61013980546001600160a01b0319166001600160a01b0392909216919091179055565b6001600160a01b037f0000000000000000000000000000000000000000000000000000000000000000163003611db65760405162461bcd60e51b81526004016110c590618a3b565b7f00000000000000000000000000000000000000000000000000000000000000006001600160a01b0316611dff600080516020618e3e833981519152546001600160a01b031690565b6001600160a01b031614611e255760405162461bcd60e51b81526004016110c590618a87565b611e2e816165eb565b60408051600080825260208201909252611e4a918391906165f3565b50565b6000806101308381548110611e6457611e6461882c565b6000918252602090912060408051610200810190915260159092020180546001600160a01b038082166101008501908152600160a01b830460ff16610120860152600160a81b90920461ffff16610140850152600183015416610160840152600282018054849291849161018085019190611ede906187c9565b80601f0160208091040260200160405190810160405280929190818152602001828054611f0a906187c9565b8015611f575780601f10611f2c57610100808354040283529160200191611f57565b820191906000526020600020905b815481529060010190602001808311611f3a57829003601f168201915b505050918352505060038201546020808301919091526004830154604080840191909152600590930154606092830152928452815180830183526006860154815260078601548185015284840152815180830183526008860154815260098601548185015284830152815160808082018452600a8701548252600b87015482860152600c87015482850152600d87015460ff161515828401528583019190915282518082018452600e870180548252600f8801548287015260108801548286015260118801805486518189028101890190975280875293909701969195909493860193929083018282801561206b57602002820191906000526020600020905b815481526020019060010190808311612057575b5050505050815250508152602001601282018054806020026020016040519081016040528092919081815260200182805480156120d157602002820191906000526020600020905b81546001600160a01b031681526001909101906020018083116120b3575b50505091835250506013820154602082015260149091015460ff1615156040909101525160a001519392505050565b600061210a616255565b600061013085815481106121205761212061882c565b6000918252602082206004601590920201908101549092509061214287611554565b61214c9083618819565b9050808286116122f2578286036121f35760008881526101356020526040812054905b818110156121d55760008a8152610135602052604081208054839081106121985761219861882c565b906000526020600020015490506000610134600083815260200190815260200160002090506121c882600061675e565b600090555060010161216f565b506000600486018190556121ed906012870190617f71565b5061240c565b600083612208670de0b6b3a7640000896189c4565b6122129190618a19565b60008a815261013560205260408120549192505b818110156122ea5760008b81526101356020526040812080548390811061224f5761224f61882c565b9060005260206000200154905060006101346000838152602001908152602001600020905061227f82600061675e565b6000670de0b6b3a764000086836000015461229a91906189c4565b6122a49190618a19565b9050808260000160008282546122ba919061888f565b909155505060048a0180548291906000906122d690849061888f565b909155505060019093019250612226915050565b50505061240c565b82861180156123015750818611155b156123d25760008881526101356020526040812054905b8181101561237e5760008a8152610135602052604081208054839081106123415761234161882c565b9060005260206000200154905060006101346000838152602001908152602001600020905061237182600061675e565b6000905550600101612318565b50600060048601819055612396906012870190617f71565b61239f89616897565b5060006123ac858961888f565b9050808660060160000160008282546123c5919061888f565b9091555061240c92505050565b60405162461bcd60e51b815260206004820152600f60248201526e082dadeeadce840e8dede40d0d2ced608b1b60448201526064016110c5565b600061271061241d6103e8896189c4565b6124279190618a19565b90506000612435828961888f565b86546001600160a01b031660009081526101366020526040812080549293508492909190612464908490618819565b9091555050855461247f906001600160a01b03168a836169f5565b50600061248b8b611554565b600488015461249a9190618819565b87546040518b81529192506001600160a01b0390811691908c169042907fc351e6e0f377ec1a399ec84224a83d6a4b9f3cd9a5530e5c652d0b11c2f8dae29060200160405180910390a480848c600080516020618e1e83398151915260405160405180910390a45060019a9950505050505050505050565b600081815261013360205260408120546101308054839283929091839190839081106125405761254061882c565b6000918252602090912060408051610200810190915260159092020180546001600160a01b038082166101008501908152600160a01b830460ff16610120860152600160a81b90920461ffff166101408501526001830154166101608401526002820180548492918491610180850191906125ba906187c9565b80601f01602080910402602001604051908101604052809291908181526020018280546125e6906187c9565b80156126335780601f1061260857610100808354040283529160200191612633565b820191906000526020600020905b81548152906001019060200180831161261657829003601f168201915b505050918352505060038201546020808301919091526004830154604080840191909152600590930154606092830152928452815180830183526006860154815260078601548185015284840152815180830183526008860154815260098601548185015284830152815160808082018452600a8701548252600b87015482860152600c87015482850152600d87015460ff161515828401528583019190915282518082018452600e870180548252600f8801548287015260108801548286015260118801805486518189028101890190975280875293909701969195909493860193929083018282801561274757602002820191906000526020600020905b815481526020019060010190808311612733575b5050505050815250508152602001601282018054806020026020016040519081016040528092919081815260200182805480156127ad57602002820191906000526020600020905b81546001600160a01b0316815260019091019060200180831161278f575b5050509183525050601382015460208083019190915260149092015460ff16151560409182015260008981526101348352818120825160e081018452815481526001820154948101949094526002810154928401929092526003820154606084015260048201546080840152600582015460a084015260069091015460c08084019190915283015192935090918103612846574261284c565b8260c001515b9050600061285e8360800151836141fe565b90506301e13380816127108560400151866000015161287d91906189c4565b6128879190618a19565b61289191906189c4565b61289b9190618a19565b95508260600151866128ad9190618819565b97506127106128be6103e88261888f565b6128c8908a6189c4565b6128d29190618a19565b965050505050509193909250565b6000806000806128ef85613f26565b93506128fa85615720565b915061290585614a0e565b925061291085611e4d565b90509193509193565b611166838383604051806020016040528060008152506153e1565b6001600160a01b037f000000000000000000000000000000000000000000000000000000000000000016300361297c5760405162461bcd60e51b81526004016110c590618a3b565b7f00000000000000000000000000000000000000000000000000000000000000006001600160a01b03166129c5600080516020618e3e833981519152546001600160a01b031690565b6001600160a01b0316146129eb5760405162461bcd60e51b81526004016110c590618a87565b6129f4826165eb565b612a00828260016165f3565b5050565b6000306001600160a01b037f00000000000000000000000000000000000000000000000000000000000000001614612aa45760405162461bcd60e51b815260206004820152603860248201527f555550535570677261646561626c653a206d757374206e6f742062652063616c60448201527f6c6564207468726f7567682064656c656761746563616c6c000000000000000060648201526084016110c5565b50600080516020618e3e83398151915290565b6000806101308481548110612ace57612ace61882c565b9060005260206000209060150201905082612ae885611554565b1015612b365760405162461bcd60e51b815260206004820152601a60248201527f416d6f756e7420626967676572207468616e206465706f73697400000000000060448201526064016110c5565b60018101546001600160a01b03163314612b625760405162461bcd60e51b81526004016110c5906189db565b612b6f62093a8042618819565b600a820155612b8162093a8042618819565b612b8e906203f480618819565b600b820155600c8101839055600d8101805460ff19169055604051839085907fb3b9c925de3673837b40c6b4d4463a8f88dc821cd27e07f1ff6bf6abf96413a590600090a35060019392505050565b6000806101308481548110612bf457612bf461882c565b6000918252602090912060408051610200810190915260159092020180546001600160a01b038082166101008501908152600160a01b830460ff16610120860152600160a81b90920461ffff16610140850152600183015416610160840152600282018054849291849161018085019190612c6e906187c9565b80601f0160208091040260200160405190810160405280929190818152602001828054612c9a906187c9565b8015612ce75780601f10612cbc57610100808354040283529160200191612ce7565b820191906000526020600020905b815481529060010190602001808311612cca57829003601f168201915b505050918352505060038201546020808301919091526004830154604080840191909152600590930154606092830152928452815180830183526006860154815260078601548185015284840152815180830183526008860154815260098601548185015284830152815160808082018452600a8701548252600b87015482860152600c87015482850152600d87015460ff161515828401528583019190915282518082018452600e870180548252600f88015482870152601088015482860152601188018054865181890281018901909752808752939097019691959094938601939290830182828015612dfb57602002820191906000526020600020905b815481526020019060010190808311612de7575b505050505081525050815260200160128201805480602002602001604051908101604052809291908181526020018280548015612e6157602002820191906000526020600020905b81546001600160a01b03168152600190910190602001808311612e43575b50505091835250506013820154602082015260149091015460ff1615156040909101526080810151519091506000612e998686616a28565b5090506000612ea88383618819565b90506000612eb78260216189c4565b612ec990674563918244f40000618819565b90506000612ed88560216189c4565b612eea90674563918244f40000618819565b90506000612eff612efa84616a85565b616ace565b90506000612f0f612efa84616a85565b90506000612f4d612f206021616a85565b612f47612f2d8686616b06565b612f416a295be96e64066972000000616a85565b90616b15565b90616b24565b90506000612f5e88620f42406189c4565b612f689083618a19565b8a5160e00151909150670de0b6b3a7640000612f8482846189c4565b612f8e9190618a19565b9e9d5050505050505050505050505050565b600081815260ff60205260408120546001600160a01b031680610f915760405162461bcd60e51b8152602060048201526018602482015277115490cdcc8c4e881a5b9d985b1a59081d1bdad95b88125160421b60448201526064016110c5565b60008061013083815481106130175761301761882c565b6000918252602090912060408051610200810190915260159092020180546001600160a01b038082166101008501908152600160a01b830460ff16610120860152600160a81b90920461ffff16610140850152600183015416610160840152600282018054849291849161018085019190613091906187c9565b80601f01602080910402602001604051908101604052809291908181526020018280546130bd906187c9565b801561310a5780601f106130df5761010080835404028352916020019161310a565b820191906000526020600020905b8154815290600101906020018083116130ed57829003601f168201915b505050918352505060038201546020808301919091526004830154604080840191909152600590930154606092830152928452815180830183526006860154815260078601548185015284840152815180830183526008860154815260098601548185015284830152815160808082018452600a8701548252600b87015482860152600c87015482850152600d87015460ff161515828401528583019190915282518082018452600e870180548252600f8801548287015260108801548286015260118801805486518189028101890190975280875293909701969195909493860193929083018282801561321e57602002820191906000526020600020905b81548152602001906001019080831161320a575b50505050508152505081526020016012820180548060200260200160405190810160405280929190818152602001828054801561328457602002820191906000526020600020905b81546001600160a01b03168152600190910190602001808311613266575b50505091835250506013820154602082015260149091015460ff16151560409091015290506132b283611554565b815160c001516118159190618819565b60006001600160a01b03821661332c5760405162461bcd60e51b815260206004820152602960248201527f4552433732313a2061646472657373207a65726f206973206e6f7420612076616044820152683634b21037bbb732b960b91b60648201526084016110c5565b506001600160a01b03166000908152610100602052604090205490565b6001600160a01b03811660009081526101366020908152604080832054610137835281842054610138909352908320549091816133868483618819565b6133909190618819565b93509193509193565b6101305460005b81811015612a00576133b18161420a565b6133ba816188b8565b90506133a0565b60006133cb616b3c565b82600061013082815481106133e2576133e261882c565b6000918252602090912060408051610200810190915260159092020180546001600160a01b038082166101008501908152600160a01b830460ff16610120860152600160a81b90920461ffff1661014085015260018301541661016084015260028201805484929184916101808501919061345c906187c9565b80601f0160208091040260200160405190810160405280929190818152602001828054613488906187c9565b80156134d55780601f106134aa576101008083540402835291602001916134d5565b820191906000526020600020905b8154815290600101906020018083116134b857829003601f168201915b505050918352505060038201546020808301919091526004830154604080840191909152600590930154606092830152928452815180830183526006860154815260078601548185015284840152815180830183526008860154815260098601548185015284830152815160808082018452600a8701548252600b87015482860152600c87015482850152600d87015460ff161515828401528583019190915282518082018452600e870180548252600f880154828701526010880154828601526011880180548651818902810189019097528087529390970196919590949386019392908301828280156135e957602002820191906000526020600020905b8154815260200190600101908083116135d5575b50505050508152505081526020016012820180548060200260200160405190810160405280929190818152602001828054801561364f57602002820191906000526020600020905b81546001600160a01b03168152600190910190602001808311613631575b50505091835250506013820154602082015260149091015460ff16151560409091015260e08101519091506136b85760405162461bcd60e51b815260206004820152600f60248201526e706f6f6c206e6f742061637469766560881b60448201526064016110c5565b600061013086815481106136ce576136ce61882c565b60009182526020808320601590920290910180546001600160a01b0316835261013e90915260409091205490915085101561373f5760405162461bcd60e51b8152602060048201526011602482015270135a5b881cdd185ad9481b9bdd081b595d607a1b60448201526064016110c5565b600061374a87611554565b60048301546137599190618819565b8254909150613773906001600160a01b0316333089616002565b506000613781883389616b95565b90508683600001600401600082825461379a9190618819565b90915550506003830154158015906137ba57506003830154600484015411155b6137fc5760405162461bcd60e51b8152602060048201526013602482015272115e18d959591959081c1bdbdb081b1a5b5a5d606a1b60448201526064016110c5565b604051878152889033907f1449c6dd7851abc30abf37f57715f492010519147cc2652fbc38202c18a6ee909060200160405180910390a3600061383e89611554565b600485015461384d9190618819565b905080838a600080516020618e1e83398151915260405160405180910390a450945050505050610f91600160ca55565b60008061013083815481106138945761389461882c565b6000918252602090912060408051610200810190915260159092020180546001600160a01b038082166101008501908152600160a01b830460ff16610120860152600160a81b90920461ffff1661014085015260018301541661016084015260028201805484929184916101808501919061390e906187c9565b80601f016020809104026020016040519081016040528092919081815260200182805461393a906187c9565b80156139875780601f1061395c57610100808354040283529160200191613987565b820191906000526020600020905b81548152906001019060200180831161396a57829003601f168201915b505050918352505060038201546020808301919091526004830154604080840191909152600590930154606092830152928452815180830183526006860154815260078601548185015284840152815180830183526008860154815260098601548185015284830152815160808082018452600a8701548252600b87015482860152600c87015482850152600d87015460ff161515828401528583019190915282518082018452600e870180548252600f88015482870152601088015482860152601188018054865181890281018901909752808752939097019691959094938601939290830182828015613a9b57602002820191906000526020600020905b815481526020019060010190808311613a87575b505050505081525050815260200160128201805480602002602001604051908101604052809291908181526020018280548015613b0157602002820191906000526020600020905b81546001600160a01b03168152600190910190602001808311613ae3575b50505091835250506013820154602082015260149091015460ff161515604090910152608081015151815160e0015191925090613b3d82616de8565b613b4791906189c4565b949350505050565b6000613b59616255565b6001600160a01b038416600090815261013c602052604090205460ff16613bba5760405162461bcd60e51b81526020600482015260156024820152741d1bdad95b881b9bdd081dda1a5d195b1a5cdd1959605a1b60448201526064016110c5565b60408051600481526024810182526020810180516001600160e01b031663313ce56760e01b17905290516000916001600160a01b03871691613bfc9190618ad3565b600060405180830381855afa9150503d8060008114613c37576040519150601f19603f3d011682016040523d82523d6000602084013e613c3c565b606091505b50915050600081806020019051810190613c569190618aef565b905060068160ff161015613ca55760405162461bcd60e51b815260206004820152601660248201527524b73b30b634b2103232b1b4b6b0b6103932ba3ab93760511b60448201526064016110c5565b613cad617f8f565b80516001600160a01b03808916909152815160ff8085166020928301528351898416606091820152845160809081018a905261013080546001810182556000919091528651805160159092027f2f605e086faac1d93117bbfbc18835d434e9405fadc1ca66faf4b864746daf348101805497830151604084015161ffff16600160a81b0261ffff60a81b1991909816600160a01b026001600160a81b0319909916948a16949094179790971792909216949094178555918301517f2f605e086faac1d93117bbfbc18835d434e9405fadc1ca66faf4b864746daf3583018054919096166001600160a01b0319919091161790945592810151849383917f2f605e086faac1d93117bbfbc18835d434e9405fadc1ca66faf4b864746daf3690910190613dd89082618b60565b5060a0820151600382015560c0820151600482015560e0909101516005909101556020828101518051600684015581015160078301556040808401518051600885015582015160098401556060808501518051600a86015580840151600b86015580830151600c860155810151600d8501805460ff191691151591909117905560808501518051600e860190815581850151600f8701559281015160108601559081015180519193613e92926011870192909101906180a0565b50505060a08201518051613eb09160128401916020909101906180eb565b5060c0820151601382015560e0909101516014909101805460ff191691151591909117905561013054613ee59060019061888f565b979650505050505050565b60006301e1338061271062093a80613f0885876189c4565b613f1291906189c4565b613f1c9190618a19565b6118159190618a19565b6000806101308381548110613f3d57613f3d61882c565b6000918252602090912060408051610200810190915260159092020180546001600160a01b038082166101008501908152600160a01b830460ff16610120860152600160a81b90920461ffff16610140850152600183015416610160840152600282018054849291849161018085019190613fb7906187c9565b80601f0160208091040260200160405190810160405280929190818152602001828054613fe3906187c9565b80156140305780601f1061400557610100808354040283529160200191614030565b820191906000526020600020905b81548152906001019060200180831161401357829003601f168201915b505050918352505060038201546020808301919091526004830154604080840191909152600590930154606092830152928452815180830183526006860154815260078601548185015284840152815180830183526008860154815260098601548185015284830152815160808082018452600a8701548252600b87015482860152600c87015482850152600d87015460ff161515828401528583019190915282518082018452600e870180548252600f8801548287015260108801548286015260118801805486518189028101890190975280875293909701969195909493860193929083018282801561414457602002820191906000526020600020905b815481526020019060010190808311614130575b5050505050815250508152602001601282018054806020026020016040519081016040528092919081815260200182805480156141aa57602002820191906000526020600020905b81546001600160a01b0316815260019091019060200180831161418c575b50505091835250506013820154602082015260149091015460ff16151560409091015290506127106141de6103e88261888f565b602083015151835160c001516141f49190618819565b613f1c91906189c4565b60006118158284616e3d565b600061013082815481106142205761422061882c565b6000918252602090912060408051610200810190915260159092020180546001600160a01b038082166101008501908152600160a01b830460ff16610120860152600160a81b90920461ffff1661014085015260018301541661016084015260028201805484929184916101808501919061429a906187c9565b80601f01602080910402602001604051908101604052809291908181526020018280546142c6906187c9565b80156143135780601f106142e857610100808354040283529160200191614313565b820191906000526020600020905b8154815290600101906020018083116142f657829003601f168201915b505050918352505060038201546020808301919091526004830154604080840191909152600590930154606092830152928452815180830183526006860154815260078601548185015284840152815180830183526008860154815260098601548185015284830152815160808082018452600a8701548252600b87015482860152600c87015482850152600d87015460ff161515828401528583019190915282518082018452600e870180548252600f8801548287015260108801548286015260118801805486518189028101890190975280875293909701969195909493860193929083018282801561442757602002820191906000526020600020905b815481526020019060010190808311614413575b50505050508152505081526020016012820180548060200260200160405190810160405280929190818152602001828054801561448d57602002820191906000526020600020905b81546001600160a01b0316815260019091019060200180831161446f575b50505091835250506013820154602082015260149091015460ff1615156040909101526080810151606001518051919250908015806144ce57508260e00151155b156144d95750505050565b60005b81811015614516576145068382815181106144f9576144f961882c565b6020026020010151616e49565b61450f816188b8565b90506144dc565b506000848152610135602090815260408083208054825181850281018501909352808352919290919083018282801561456e57602002820191906000526020600020905b81548152602001906001019080831161455a575b5050835193945060009250829150505b828110156145f157600084828151811061459a5761459a61882c565b602090810291909101810151600081815261013490925260409091208054919250906145c78b8287615b99565b600283015560018201546145db9086618819565b9450505050806145ea906188b8565b905061457e565b508061013088815481106146075761460761882c565b600091825260209091206010601590920201015550505050505050565b606060fe8054610fa6906187c9565b610135602052816000526040600020818154811061465057600080fd5b90600052602060002001600091509150505481565b600080610130848154811061467c5761467c61882c565b6000918252602090912060159091020160018101549091506001600160a01b031633146146bb5760405162461bcd60e51b81526004016110c5906189db565b600a810154421180156146d15750600b81015442105b80156146e25750600d81015460ff16155b80156146f25750600c8101548311155b80156147015750600a81015415155b61471d5760405162461bcd60e51b81526004016110c590618c20565b600d8101805460ff1916600117905560068101548311156147435761474184616897565b505b600061474e85611554565b600483015461475d9190618819565b905083826006016000016000828254614776919061888f565b909155505060018201548254614799916001600160a01b039182169116866169f5565b5060006147a586611554565b60048401546147b49190618819565b9050808287600080516020618e1e83398151915260405160405180910390a450600195945050505050565b60006147e9616b3c565b336147f384612fa0565b6001600160a01b03161461483f5760405162461bcd60e51b815260206004820152601360248201527239b2b73232b91034b9903737ba1037bbb732b960691b60448201526064016110c5565b600083815261013360205260408120546101308054919291839081106148675761486761882c565b906000526020600020906015020190506000610134600087815260200190815260200160002090504281600501541080156148a55750428160060154115b6148c15760405162461bcd60e51b81526004016110c590618c20565b6148cb868661675e565b8054600080835560058301819055600683018190556148e985611554565b60048501546148f89190618819565b90508615614909576149098861700f565b811561493b57600484015461491e9083616e3d565b60048501558354614939906001600160a01b031633846169f5565b505b604051828152859033907f7fc4727e062e336010f2c282598ef5f14facb3de68cf8195c2f23e1454b2b74e9060200160405180910390a3600061497d86611554565b600486015461498c9190618819565b9050808287600080516020618e1e83398151915260405160405180910390a45050506011909101805460018181018355600092835260209092200186905592505050610f91600160ca55565b61013d81815481106149e957600080fd5b6000918252602090912001546001600160a01b0316905081565b612a0033838361707f565b6000806101308381548110614a2557614a2561882c565b6000918252602090912060408051610200810190915260159092020180546001600160a01b038082166101008501908152600160a01b830460ff16610120860152600160a81b90920461ffff16610140850152600183015416610160840152600282018054849291849161018085019190614a9f906187c9565b80601f0160208091040260200160405190810160405280929190818152602001828054614acb906187c9565b8015614b185780601f10614aed57610100808354040283529160200191614b18565b820191906000526020600020905b815481529060010190602001808311614afb57829003601f168201915b505050918352505060038201546020808301919091526004830154604080840191909152600590930154606092830152928452815180830183526006860154815260078601548185015284840152815180830183526008860154815260098601548185015284830152815160808082018452600a8701548252600b87015482860152600c87015482850152600d87015460ff161515828401528583019190915282518082018452600e870180548252600f88015482870152601088015482860152601188018054865181890281018901909752808752939097019691959094938601939290830182828015614c2c57602002820191906000526020600020905b815481526020019060010190808311614c18575b505050505081525050815260200160128201805480602002602001604051908101604052809291908181526020018280548015614c9257602002820191906000526020600020905b81546001600160a01b03168152600190910190602001808311614c74575b50505091835250506013820154602082015260149091015460ff1615156040918201529051015161ffff169392505050565b6000806000806101308581548110614cde57614cde61882c565b6000918252602090912060408051610200810190915260159092020180546001600160a01b038082166101008501908152600160a01b830460ff16610120860152600160a81b90920461ffff16610140850152600183015416610160840152600282018054849291849161018085019190614d58906187c9565b80601f0160208091040260200160405190810160405280929190818152602001828054614d84906187c9565b8015614dd15780601f10614da657610100808354040283529160200191614dd1565b820191906000526020600020905b815481529060010190602001808311614db457829003601f168201915b505050918352505060038201546020808301919091526004830154604080840191909152600590930154606092830152928452815180830183526006860154815260078601548185015284840152815180830183526008860154815260098601548185015284830152815160808082018452600a8701548252600b87015482860152600c87015482850152600d87015460ff161515828401528583019190915282518082018452600e870180548252600f88015482870152601088015482860152601188018054865181890281018901909752808752939097019691959094938601939290830182828015614ee557602002820191906000526020600020905b815481526020019060010190808311614ed1575b505050505081525050815260200160128201805480602002602001604051908101604052809291908181526020018280548015614f4b57602002820191906000526020600020905b81546001600160a01b03168152600190910190602001808311614f2d575b5050509183525050601382015460208083019190915260149092015460ff1615156040918201526060909201518051918101519201519097919650945092505050565b60006101308481548110614fa457614fa461882c565b6000918252602090912060159091020160018101549091506001600160a01b03163314614fe35760405162461bcd60e51b81526004016110c5906189db565b6000614fee85611554565b6004830154614ffd9190618819565b8254909150615017906001600160a01b0316333087616002565b508382600601600001600082825461502f9190618819565b909155506000905061504086611554565b600484015461504f9190618819565b905061505c868587616451565b50808287600080516020618e1e83398151915260405160405180910390a4505050505050565b600080600080610130858154811061509c5761509c61882c565b6000918252602090912060408051610200810190915260159092020180546001600160a01b038082166101008501908152600160a01b830460ff16610120860152600160a81b90920461ffff16610140850152600183015416610160840152600282018054849291849161018085019190615116906187c9565b80601f0160208091040260200160405190810160405280929190818152602001828054615142906187c9565b801561518f5780601f106151645761010080835404028352916020019161518f565b820191906000526020600020905b81548152906001019060200180831161517257829003601f168201915b505050918352505060038201546020808301919091526004830154604080840191909152600590930154606092830152928452815180830183526006860154815260078601548185015284840152815180830183526008860154815260098601548185015284830152815160808082018452600a8701548252600b87015482860152600c87015482850152600d87015460ff161515828401528583019190915282518082018452600e870180548252600f880154828701526010880154828601526011880180548651818902810189019097528087529390970196919590949386019392908301828280156152a357602002820191906000526020600020905b81548152602001906001019080831161528f575b50505050508152505081526020016012820180548060200260200160405190810160405280929190818152602001828054801561530957602002820191906000526020600020905b81546001600160a01b031681526001909101906020018083116152eb575b50505091835250506013820154602082015260149091015460ff161515604091820152815160a08101519101519192506153469161ffff16613ef0565b60409091015180516020909101519196909550909350915050565b6034546001600160a01b031633146153ca5760405162461bcd60e51b815260206004820152602660248201527f6f6e6c792070656e64696e67206f776e65722063616e2061636365707420747260448201526530b739b332b960d11b60648201526084016110c5565b6034546153df906001600160a01b031661714e565b565b6153eb3383616070565b6154075760405162461bcd60e51b81526004016110c590618842565b615413848484846171ab565b50505050565b60008061013083815481106154305761543061882c565b6000918252602090912060159091020160018101549091506001600160a01b031633148061546857506033546001600160a01b031633145b6154845760405162461bcd60e51b81526004016110c5906189db565b601481015460ff166154ca5760405162461bcd60e51b815260206004820152600f60248201526e506f6f6c206e6f742061637469766560881b60448201526064016110c5565b60148101805460ff1916905542601390910155506001919050565b600054610100900460ff16158080156155055750600054600160ff909116105b8061551f5750303b15801561551f575060005460ff166001145b6155825760405162461bcd60e51b815260206004820152602e60248201527f496e697469616c697a61626c653a20636f6e747261637420697320616c72656160448201526d191e481a5b9a5d1a585b1a5e995960921b60648201526084016110c5565b6000805460ff1916600117905580156155a5576000805461ff0019166101001790555b6155ad6171de565b61013980546001600160a01b0319166001600160a01b0384161790558015612a00576000805461ff0019169055604051600181527f7f26b83ff96e1f2b6a682f133852f6798a09c465da95921460cefb38474024989060200160405180910390a15050565b606061561d82615f34565b600061563460408051602081019091526000815290565b905060008151116156545760405180602001604052806000815250611815565b8061565e8461720d565b60405160200161566f929190618c69565b6040516020818303038152906040529392505050565b600061568f616255565b6001600160a01b038316600090815261013860209081526040808320546101378352818420546101369093529083205490916156ca91618819565b6156d49190618819565b6001600160a01b03851660008181526101366020908152604080832083905561013782528083208390556101389091528120559091506157159084836169f5565b506001949350505050565b60008061013083815481106157375761573761882c565b6000918252602090912060408051610200810190915260159092020180546001600160a01b038082166101008501908152600160a01b830460ff16610120860152600160a81b90920461ffff166101408501526001830154166101608401526002820180548492918491610180850191906157b1906187c9565b80601f01602080910402602001604051908101604052809291908181526020018280546157dd906187c9565b801561582a5780601f106157ff5761010080835404028352916020019161582a565b820191906000526020600020905b81548152906001019060200180831161580d57829003601f168201915b505050918352505060038201546020808301919091526004830154604080840191909152600590930154606092830152928452815180830183526006860154815260078601548185015284840152815180830183526008860154815260098601548185015284830152815160808082018452600a8701548252600b87015482860152600c87015482850152600d87015460ff161515828401528583019190915282518082018452600e870180548252600f8801548287015260108801548286015260118801805486518189028101890190975280875293909701969195909493860193929083018282801561593e57602002820191906000526020600020905b81548152602001906001019080831161592a575b5050505050815250508152602001601282018054806020026020016040519081016040528092919081815260200182805480156159a457602002820191906000526020600020905b81546001600160a01b03168152600190910190602001808311615986575b50505091835250506013820154602082015260149091015460ff1615156040909101525160c001519392505050565b600081815261013b602090815260408083205461013a83528184208185528352818420548251637b4f102360e11b8152925191946001600160a01b0390911693849363f69e204693600480830194919283900301908290875af1158015615a3e573d6000803e3d6000fd5b505050506040513d601f19601f820116820180604052508101906154139190618c98565b6000615a6c616255565b61013d5460005b81811015611a9557600061013d8281548110615a9157615a9161882c565b6000918252602090912001546001600160a01b03169050615ab28186615685565b505080615abe906188b8565b9050615a73565b615acd616255565b6001600160a01b038116615b325760405162461bcd60e51b815260206004820152602660248201527f4f776e61626c653a206e6577206f776e657220697320746865207a65726f206160448201526564647265737360d01b60648201526084016110c5565b603480546001600160a01b0319166001600160a01b0392909216919091179055565b615b5c616b3c565b615b6781600161675e565b611e4a600160ca55565b6101305460005b81811015612a0057615b89816159d3565b615b92816188b8565b9050615b78565b6000806101308581548110615bb057615bb061882c565b6000918252602090912060408051610200810190915260159092020180546001600160a01b038082166101008501908152600160a01b830460ff16610120860152600160a81b90920461ffff16610140850152600183015416610160840152600282018054849291849161018085019190615c2a906187c9565b80601f0160208091040260200160405190810160405280929190818152602001828054615c56906187c9565b8015615ca35780601f10615c7857610100808354040283529160200191615ca3565b820191906000526020600020905b815481529060010190602001808311615c8657829003601f168201915b505050918352505060038201546020808301919091526004830154604080840191909152600590930154606092830152928452815180830183526006860154815260078601548185015284840152815180830183526008860154815260098601548185015284830152815160808082018452600a8701548252600b87015482860152600c87015482850152600d87015460ff161515828401528583019190915282518082018452600e870180548252600f88015482870152601088015482860152601188018054865181890281018901909752808752939097019691959094938601939290830182828015615db757602002820191906000526020600020905b815481526020019060010190808311615da3575b505050505081525050815260200160128201805480602002602001604051908101604052809291908181526020018280548015615e1d57602002820191906000526020600020905b81546001600160a01b03168152600190910190602001808311615dff575b50505091835250506013820154602082015260149091015460ff1615156040909101529050826000615e4f8787616a28565b5090506000615e5e8383618819565b90506000615e6d8260216189c4565b615e7f90674563918244f40000618819565b90506000615e8e8560216189c4565b615ea090674563918244f40000618819565b90506000615eb0612efa84616a85565b90506000615ec0612efa84616a85565b90506000615ed1612f206021616a85565b90506000615ee288620f42406189c4565b615eec9083618a19565b8a5160e00151909150670de0b6b3a7640000615f0882846189c4565b615f129190618a19565b9f9e505050505050505050505050505050565b6001600160a01b03163b151590565b600081815260ff60205260409020546001600160a01b0316611e4a5760405162461bcd60e51b8152602060048201526018602482015277115490cdcc8c4e881a5b9d985b1a59081d1bdad95b88125160421b60448201526064016110c5565b60008181526101016020526040902080546001600160a01b0319166001600160a01b0384169081179091558190615fc982612fa0565b6001600160a01b03167f8c5be1e5ebec7d5bd14f71427d1e84f3dd0314c0f7b2291e5b200ac8c7c3b92560405160405180910390a45050565b6040516001600160a01b03808516602483015283166044820152606481018290526000906157159086906323b872dd60e01b906084015b60408051601f198184030181529190526020810180516001600160e01b03166001600160e01b03199093169290921790915261729e565b60008061607c83612fa0565b9050806001600160a01b0316846001600160a01b031614806160c457506001600160a01b038082166000908152610102602090815260408083209388168352929052205460ff165b80613b475750836001600160a01b03166160dd84611029565b6001600160a01b031614949350505050565b826001600160a01b031661610282612fa0565b6001600160a01b0316146161285760405162461bcd60e51b81526004016110c590618cb1565b6001600160a01b03821661618a5760405162461bcd60e51b8152602060048201526024808201527f4552433732313a207472616e7366657220746f20746865207a65726f206164646044820152637265737360e01b60648201526084016110c5565b826001600160a01b031661619d82612fa0565b6001600160a01b0316146161c35760405162461bcd60e51b81526004016110c590618cb1565b60008181526101016020908152604080832080546001600160a01b03199081169091556001600160a01b03878116808652610100855283862080546000190190559087168086528386208054600101905586865260ff90945282852080549092168417909155905184937fddf252ad1be2c89b69c2b068fc378daa952ba7f163c4a11628f55a4df523b3ef91a4505050565b6033546001600160a01b031633146153df5760405162461bcd60e51b815260206004820181905260248201527f4f776e61626c653a2063616c6c6572206973206e6f7420746865206f776e657260448201526064016110c5565b600061013083815481106162c5576162c561882c565b6000918252602082206015919091020160088101546003820154825492945085926162fb9190600160a81b900461ffff16613ef0565b616305919061888f565b61630f9190618819565b60018301548354919250616331916001600160a01b0390811691163084616002565b5060006127106163436103e8846189c4565b61634d9190618a19565b9050818360080160000160008282546163669190618819565b909155505082546001600160a01b03166000908152610137602052604081208054839290616395908490618819565b90915550600090506163a7828461888f565b9050808460080160010160008282546163c09190618819565b9091555050604051839087907fadb049ad2d09be3db90459a16aef1ad0a4d89e8fdcc1ade9429d6cc55abbcd2b90600090a3505050505050565b6000670eb5e06245ea0000616417670de0b6b3a7640000846189c4565b6164219190618a19565b90508061013084815481106164385761643861882c565b6000918252602090912060056015909202010155505050565b60008061013085815481106164685761646861882c565b9060005260206000209060150201905060008460405160200161648b91906181d8565b60408051601f198184030181529181528151602092830120600089815261013b9093529120549091508082146165e15760006164c688616897565b905060006164d48989617370565b90506001600160a01b038116156165c157806164f08389618819565b60068701805460009061650490849061888f565b9091555061651490508389618819565b600787018054600090616528908490618819565b9091555061654e90508261653c858b618819565b88546001600160a01b031691906169f5565b5060405163d33b0aa760e01b8152600160048201526001600160a01b0382169063d33b0aa7906024016020604051808303816000875af1158015616596573d6000803e3d6000fd5b505050506040513d601f19601f820116820180604052508101906165ba9190618c98565b50506165de565b868560060160000160008282546165d89190618819565b90915550505b50505b5050509392505050565b611e4a616255565b7f4910fdfa16fed3260ed0e7147f7cc6da11a60208b5b9406d12a635614ffd91435460ff161561662657611166836174af565b826001600160a01b03166352d1902d6040518163ffffffff1660e01b8152600401602060405180830381865afa925050508015616680575060408051601f3d908101601f1916820190925261667d91810190618c98565b60015b6166e35760405162461bcd60e51b815260206004820152602e60248201527f45524331393637557067726164653a206e657720696d706c656d656e7461746960448201526d6f6e206973206e6f74205555505360901b60648201526084016110c5565b600080516020618e3e83398151915281146167525760405162461bcd60e51b815260206004820152602960248201527f45524331393637557067726164653a20756e737570706f727465642070726f786044820152681a58589b195555525160ba1b60648201526084016110c5565b5061116683838361754b565b600082815261013360205260408120546101308054919291839081106167865761678661882c565b600091825260208083208784526101349091526040832060159092020192509080806167b188612512565b925092509250866167ff5784601301546000036167ce57426167d4565b84601301545b8460040181905550808460030160008282546167f09190618819565b90915550505050505050505050565b60088501548311156168155761681586846162af565b8215611d395760006003850181905560138601549003616835574261683b565b84601301545b600485015560088501805484919060009061685790849061888f565b909155505060098501805483919060009061687390849061888f565b90915550611d37905061688589612fa0565b86546001600160a01b031690846169f5565b60008061013083815481106168ae576168ae61882c565b6000918252602080832086845261013b9091526040832054601590920201925080156169ed57600085815261013a602090815260408083208484528252808320548151637f1f087360e01b815291516001600160a01b0390911693928492637f1f08739260048083019392829003018187875af1158015616933573d6000803e3d6000fd5b505050506040513d601f19601f820116820180604052508101906169579190618c98565b60405163f840cb8360e01b815260016004820152602481018290529091506001600160a01b0383169063f840cb83906044016020604051808303816000875af11580156169a8573d6000803e3d6000fd5b505050506040513d601f19601f820116820180604052508101906169cc9190618c98565b9350838560060160000160008282546169e59190618819565b909155505050505b509392505050565b6040516001600160a01b038316602482015260448101829052600090611a9590859063a9059cbb60e01b90606401616039565b6000806101308481548110616a3f57616a3f61882c565b6000918252602090912060036015909202010154616a65670de0b6b3a7640000856189c4565b616a6f9190618a19565b9050616a7c8160056189c4565b91509250929050565b6000616a9b670de0b6b3a7640000600019618a19565b821115616abe576040516322630c4560e01b8152600481018390526024016110c5565b670de0b6b3a76400008202610f91565b6000610f916714057b7ef767814f670de0b6b3a7640000616af4616af186617570565b90565b0281616b0257616b02618a03565b0490565b6000611815616af1838561888f565b6000611815616af184846176a6565b6000611815616af184670de0b6b3a76400008561775a565b600260ca5403616b8e5760405162461bcd60e51b815260206004820152601f60248201527f5265656e7472616e637947756172643a207265656e7472616e742063616c6c0060448201526064016110c5565b600260ca55565b60006001600160a01b038316616bed5760405162461bcd60e51b815260206004820152601f60248201527f45524332303a206d696e7420746f20746865207a65726f20616464726573730060448201526064016110c5565b6000616bf98584612bdd565b90506000616c068561782e565b9050616c486040518060e00160405280600081526020016000815260200160008152602001600081526020016000815260200160008152602001600081525090565b8481526000616c578887616a28565b509050674563918244f40000816101308a81548110616c7857616c7861882c565b9060005260206000209060150201600e0160020154616c979190618819565b1115616cdb5760405162461bcd60e51b81526020600482015260136024820152721608189bdd5b99185c9e481d9a5bdb185d1959606a1b60448201526064016110c5565b6020808301828152604080850187815242608087019081526000888152610134865283812088518155945160018087019190915592516002860155606088015160038601559051600485015560a0870151600585015560c08701516006909401939093558b83526101358452818320805491820181558352838320018690558582526101339092522088905561013080548291908a908110616d7f57616d7f61882c565b9060005260206000209060150201600e016002016000828254616da29190618819565b92505081905550616ddb886101308a81548110616dc157616dc161882c565b9060005260206000209060150201600e01600201546179d5565b5091979650505050505050565b600080670de0b6b3a7640000616e0684670928ca80cfc200006189c4565b616e109190618a19565b616e229067016345785d8a0000618819565b9050611815816ec097ce7bc90715b34b9f1000000000618a19565b6000611815828461888f565b6000818152610133602090815260408083205480845261013583528184208054835181860281018601909452808452919493909190830182828015616ead57602002820191906000526020600020905b815481526020019060010190808311616e99575b5050835193945060009250829150505b82811015616efd5785848281518110616ed857616ed861882c565b602002602001015103616eed57809150616efd565b616ef6816188b8565b9050616ebd565b50818110616f4d5760405162461bcd60e51b815260206004820152601860248201527f546f6b656e206e6f7420666f756e6420696e206172726179000000000000000060448201526064016110c5565b805b616f5a60018461888f565b811015616fb25783616f6d826001618819565b81518110616f7d57616f7d61882c565b6020026020010151848281518110616f9757616f9761882c565b6020908102919091010152616fab816188b8565b9050616f4f565b506000848152610135602090815260409091208451616fd3928601906180a0565b50600084815261013560205260409020805480616ff257616ff26188a2565b600190038181906000526020600020016000905590555050505050565b60008181526101336020908152604080832054610134835292819020815160e081018352815481526001820154938101939093526002810154918301919091526003810154606083015260048101546080830152600581015460a08301526006015460c082015261116683617a09565b816001600160a01b0316836001600160a01b0316036170e05760405162461bcd60e51b815260206004820152601960248201527f4552433732313a20617070726f766520746f2063616c6c65720000000000000060448201526064016110c5565b6001600160a01b0383811660008181526101026020908152604080832094871680845294825291829020805460ff191686151590811790915591519182527f17307eab39ab6107e8899845ad3d59bd9653f200f220920489ca2b5937696c31910160405180910390a3505050565b603380546001600160a01b038381166001600160a01b03198084168217909455603480549094169093556040519116919082907f8be0079c531659141344cd1fd0a4f28419497f9722a3daafe3b4186f6b6457e090600090a35050565b6171b68484846160ef565b6171c284848484617aa0565b6154135760405162461bcd60e51b81526004016110c590618cf6565b600054610100900460ff166172055760405162461bcd60e51b81526004016110c590618d48565b6153df617b9e565b6060600061721a83617bce565b600101905060008167ffffffffffffffff81111561723a5761723a61845e565b6040519080825280601f01601f191660200182016040528015617264576020820181803683370190505b5090508181016020015b600019016f181899199a1a9b1b9c1cb0b131b232b360811b600a86061a8153600a8504945084156169ed5761726e565b60006172f3826040518060400160405280602081526020017f5361666545524332303a206c6f772d6c6576656c2063616c6c206661696c6564815250856001600160a01b0316617ca69092919063ffffffff16565b80519091501561116657808060200190518101906173119190618d93565b6111665760405162461bcd60e51b815260206004820152602a60248201527f5361666545524332303a204552433230206f7065726174696f6e20646964206e6044820152691bdd081cdd58d8d9595960b21b60648201526084016110c5565b60008060008360405160200161738691906181d8565b60408051601f198184030181529181528151602092830120600088815261013a84528281208282529093529120549091506001600160a01b0316806174405761013954604051632f3802cf60e11b81526001600160a01b0390911690635e70059e906173f69088906004016181d8565b6020604051808303816000875af1158015617415573d6000803e3d6000fd5b505050506040513d601f19601f820116820180604052508101906174399190618db0565b925061744a565b9250610f91915050565b6001600160a01b0383166174645760009350505050610f91565b50600085815261013a60209081526040808320848452825280832080546001600160a01b0319166001600160a01b03871617905596825261013b905294909420939093555090919050565b6001600160a01b0381163b61751c5760405162461bcd60e51b815260206004820152602d60248201527f455243313936373a206e657720696d706c656d656e746174696f6e206973206e60448201526c1bdd08184818dbdb9d1c9858dd609a1b60648201526084016110c5565b600080516020618e3e83398151915280546001600160a01b0319166001600160a01b0392909216919091179055565b61755483617cb5565b6000825111806175615750805b15611166576154138383617cf5565b600081670de0b6b3a764000081101561759f57604051633621413760e21b8152600481018490526024016110c5565b600061762b670de0b6b3a7640000830460016fffffffffffffffffffffffffffffffff821160071b91821c67ffffffffffffffff811160061b90811c63ffffffff811160051b90811c61ffff811160041b90811c60ff8111600390811b91821c600f811160021b90811c918211871b91821c969096119490961792909217171791909117919091171790565b9050670de0b6b3a7640000810282821c670de0b6b3a763ffff19810161765757815b9695505050505050565b671bc16d674ec800006706f05b59d3b200005b801561769a57670de0b6b3a7640000838002049250818310617692579283019260019290921c915b60011c61766a565b50919695505050505050565b60008080600019848609848602925082811083820303915050670de0b6b3a764000081106176f15760405163090638d560e41b815260048101869052602481018590526044016110c5565b6000670de0b6b3a764000085870990508160000361771d575050670de0b6b3a764000090049050610f91565b620400008184030492109003600160ee1b02177faccb18165bd6fe31ae1cf318dc5b51eee0e1ba569b88cd74c1773b91fac1066902905092915050565b60008080600019858709858702925082811083820303915050806000036177945783828161778a5761778a618a03565b0492505050611815565b8381106177c5576040516307639aaf60e41b81526004810187905260248101869052604481018590526064016110c5565b60008486880960026001871981018816978890046003810283188082028403028082028403028082028403028082028403028082028403029081029092039091026000889003889004909101858311909403939093029303949094049190911702949350505050565b60008061010360008154617841906188b8565b918290555090506001600160a01b03831661789e5760405162461bcd60e51b815260206004820181905260248201527f4552433732313a206d696e7420746f20746865207a65726f206164647265737360448201526064016110c5565b600081815260ff60205260409020546001600160a01b0316156179035760405162461bcd60e51b815260206004820152601c60248201527f4552433732313a20746f6b656e20616c7265616479206d696e7465640000000060448201526064016110c5565b600081815260ff60205260409020546001600160a01b0316156179685760405162461bcd60e51b815260206004820152601c60248201527f4552433732313a20746f6b656e20616c7265616479206d696e7465640000000060448201526064016110c5565b6001600160a01b0383166000818152610100602090815260408083208054600101905584835260ff90915280822080546001600160a01b0319168417905551839291907fddf252ad1be2c89b69c2b068fc378daa952ba7f163c4a11628f55a4df523b3ef908290a4610f91565b60008161013084815481106179ec576179ec61882c565b60009182526020909120600e601590920201015550600192915050565b6000617a1482612fa0565b9050617a1f82612fa0565b60008381526101016020908152604080832080546001600160a01b03199081169091556001600160a01b0385168085526101008452828520805460001901905587855260ff909352818420805490911690555192935084927fddf252ad1be2c89b69c2b068fc378daa952ba7f163c4a11628f55a4df523b3ef908390a45050565b60006001600160a01b0384163b15617b9657604051630a85bd0160e11b81526001600160a01b0385169063150b7a0290617ae4903390899088908890600401618dcd565b6020604051808303816000875af1925050508015617b1f575060408051601f3d908101601f19168201909252617b1c91810190618e00565b60015b617b7c573d808015617b4d576040519150601f19603f3d011682016040523d82523d6000602084013e617b52565b606091505b508051600003617b745760405162461bcd60e51b81526004016110c590618cf6565b805181602001fd5b6001600160e01b031916630a85bd0160e11b149050613b47565b506001613b47565b600054610100900460ff16617bc55760405162461bcd60e51b81526004016110c590618d48565b6153df3361714e565b60008072184f03e93ff9f4daa797ed6e38ed64bf6a1f0160401b8310617c0d5772184f03e93ff9f4daa797ed6e38ed64bf6a1f0160401b830492506040015b6d04ee2d6d415b85acef81000000008310617c39576d04ee2d6d415b85acef8100000000830492506020015b662386f26fc100008310617c5757662386f26fc10000830492506010015b6305f5e1008310617c6f576305f5e100830492506008015b6127108310617c8357612710830492506004015b60648310617c95576064830492506002015b600a8310610f915760010192915050565b6060613b478484600085617de9565b617cbe816174af565b6040516001600160a01b038216907fbc7cd75a20ee27fd9adebab32041f755214dbc6bffa90cc0225b39da2e5c2d3b90600090a250565b60606001600160a01b0383163b617d5d5760405162461bcd60e51b815260206004820152602660248201527f416464726573733a2064656c65676174652063616c6c20746f206e6f6e2d636f6044820152651b9d1c9858dd60d21b60648201526084016110c5565b600080846001600160a01b031684604051617d789190618ad3565b600060405180830381855af49150503d8060008114617db3576040519150601f19603f3d011682016040523d82523d6000602084013e617db8565b606091505b5091509150617de08282604051806060016040528060278152602001618e5e60279139617eb9565b95945050505050565b606082471015617e4a5760405162461bcd60e51b815260206004820152602660248201527f416464726573733a20696e73756666696369656e742062616c616e636520666f6044820152651c8818d85b1b60d21b60648201526084016110c5565b600080866001600160a01b03168587604051617e669190618ad3565b60006040518083038185875af1925050503d8060008114617ea3576040519150601f19603f3d011682016040523d82523d6000602084013e617ea8565b606091505b5091509150613ee587838387617ed2565b60608315617ec8575081611815565b6118158383617f47565b60608315617f41578251600003617f3a576001600160a01b0385163b617f3a5760405162461bcd60e51b815260206004820152601d60248201527f416464726573733a2063616c6c20746f206e6f6e2d636f6e747261637400000060448201526064016110c5565b5081613b47565b613b4783835b815115617f575781518083602001fd5b8060405162461bcd60e51b81526004016110c591906181d8565b5080546000825590600052602060002090810190611e4a9190618140565b6040805161020081019091526000610100820181815261012083018290526101408301829052610160830182905260606101808401526101a083018290526101c083018290526101e083019190915281908152602001618002604051806040016040528060008152602001600081525090565b8152602001618024604051806040016040528060008152602001600081525090565b815260200161805660405180608001604052806000815260200160008152602001600081526020016000151581525090565b81526020016180866040518060800160405280600081526020016000815260200160008152602001606081525090565b815260606020820181905260006040830181905291015290565b8280548282559060005260206000209081019282156180db579160200282015b828111156180db5782518255916020019190600101906180c0565b506180e7929150618140565b5090565b8280548282559060005260206000209081019282156180db579160200282015b828111156180db57825182546001600160a01b0319166001600160a01b0390911617825560209092019160019091019061810b565b5b808211156180e75760008155600101618141565b6001600160e01b031981168114611e4a57600080fd5b60006020828403121561817d57600080fd5b813561181581618155565b60005b838110156181a357818101518382015260200161818b565b50506000910152565b600081518084526181c4816020860160208601618188565b601f01601f19169290920160200192915050565b60208152600061181560208301846181ac565b600080604083850312156181fe57600080fd5b50508035926020909101359150565b60006020828403121561821f57600080fd5b5035919050565b6001600160a01b0381168114611e4a57600080fd5b6000806040838503121561824e57600080fd5b823561825981618226565b946020939093013593505050565b60006080830182518452602080840151818601526040840151604086015260608401516080606087015282815180855260a0880191508383019450600092505b808310156182c757845182529383019360019290920191908301906182a7565b509695505050505050565b61018080825288516001600160a01b0390811691830191909152602089015160ff166101a0830152604089015161ffff166101c08301526060890151166101e082015260808801516101006102008301526000906183346102808401826181ac565b905060a08a015161022084015260c08a015161024084015260e08a015161026084015261836e602084018a80518252602090810151910152565b8751606084015260208801516080840152865160a0840152602087015160c0840152604087015160e0840152606087015115156101008401528281036101208401526183ba8187618267565b915050836101408301526183d361016083018415159052565b98975050505050505050565b6000806000606084860312156183f457600080fd5b83356183ff81618226565b9250602084013561840f81618226565b929592945050506040919091013590565b8015158114611e4a57600080fd5b60008060006060848603121561844357600080fd5b833561844e81618226565b9250602084013561840f81618420565b634e487b7160e01b600052604160045260246000fd5b600082601f83011261848557600080fd5b813567ffffffffffffffff808211156184a0576184a061845e565b604051601f8301601f19908116603f011681019082821181831017156184c8576184c861845e565b816040528381528660208588010111156184e157600080fd5b836020870160208301376000602085830101528094505050505092915050565b600080600080600060a0868803121561851957600080fd5b8535945060208601359350604086013561ffff8116811461853957600080fd5b925060608601359150608086013567ffffffffffffffff81111561855c57600080fd5b61856888828901618474565b9150509295509295909350565b60006020828403121561858757600080fd5b813561181581618226565b6000806000606084860312156185a757600080fd5b83359250602084013561840f81618226565b600080604083850312156185cc57600080fd5b82356185d781618226565b9150602083013567ffffffffffffffff8111156185f357600080fd5b6185ff85828601618474565b9150509250929050565b60008060006060848603121561861e57600080fd5b833561862981618226565b9250602084013561863981618226565b9150604084013567ffffffffffffffff81111561865557600080fd5b61866186828701618474565b9150509250925092565b6000806040838503121561867e57600080fd5b82359150602083013561869081618420565b809150509250929050565b600080604083850312156186ae57600080fd5b82356186b981618226565b9150602083013561869081618420565b6000806000606084860312156186de57600080fd5b8335925060208401359150604084013567ffffffffffffffff81111561865557600080fd5b6000806000806080858703121561871957600080fd5b843561872481618226565b9350602085013561873481618226565b925060408501359150606085013567ffffffffffffffff81111561875757600080fd5b61876387828801618474565b91505092959194509250565b6000806040838503121561878257600080fd5b823561878d81618226565b9150602083013561869081618226565b6000806000606084860312156187b257600080fd5b505081359360208301359350604090920135919050565b600181811c908216806187dd57607f821691505b6020821081036187fd57634e487b7160e01b600052602260045260246000fd5b50919050565b634e487b7160e01b600052601160045260246000fd5b80820180821115610f9157610f91618803565b634e487b7160e01b600052603260045260246000fd5b6020808252602d908201527f4552433732313a2063616c6c6572206973206e6f7420746f6b656e206f776e6560408201526c1c881bdc88185c1c1c9bdd9959609a1b606082015260800190565b81810381811115610f9157610f91618803565b634e487b7160e01b600052603160045260246000fd5b6000600182016188ca576188ca618803565b5060010190565b600181815b8085111561890c5781600019048211156188f2576188f2618803565b808516156188ff57918102915b93841c93908002906188d6565b509250929050565b60008261892357506001610f91565b8161893057506000610f91565b816001811461894657600281146189505761896c565b6001915050610f91565b60ff84111561896157618961618803565b50506001821b610f91565b5060208310610133831016604e8410600b841016171561898f575081810a610f91565b61899983836188d1565b80600019048211156189ad576189ad618803565b029392505050565b600061181560ff841683618914565b8082028115828204841417610f9157610f91618803565b6020808252600e908201526d139bdd08185d5d1a1bdc9a5e995960921b604082015260600190565b634e487b7160e01b600052601260045260246000fd5b600082618a3657634e487b7160e01b600052601260045260246000fd5b500490565b6020808252602c908201527f46756e6374696f6e206d7573742062652063616c6c6564207468726f7567682060408201526b19195b1959d85d1958d85b1b60a21b606082015260800190565b6020808252602c908201527f46756e6374696f6e206d7573742062652063616c6c6564207468726f7567682060408201526b6163746976652070726f787960a01b606082015260800190565b60008251618ae5818460208701618188565b9190910192915050565b600060208284031215618b0157600080fd5b815160ff8116811461181557600080fd5b601f82111561116657600081815260208120601f850160051c81016020861015618b395750805b601f850160051c820191505b81811015618b5857828155600101618b45565b505050505050565b815167ffffffffffffffff811115618b7a57618b7a61845e565b618b8e81618b8884546187c9565b84618b12565b602080601f831160018114618bc35760008415618bab5750858301515b600019600386901b1c1916600185901b178555618b58565b600085815260208120601f198616915b82811015618bf257888601518255948401946001909101908401618bd3565b5085821015618c105787850151600019600388901b60f8161c191681555b5050505050600190811b01905550565b60208082526029908201527f54696d656c6f636b206e6f7420736574206f72206e6f7420636f6d706c6574656040820152686420696e2074696d6560b81b606082015260800190565b60008351618c7b818460208801618188565b835190830190618c8f818360208801618188565b01949350505050565b600060208284031215618caa57600080fd5b5051919050565b60208082526025908201527f4552433732313a207472616e736665722066726f6d20696e636f72726563742060408201526437bbb732b960d91b606082015260800190565b60208082526032908201527f4552433732313a207472616e7366657220746f206e6f6e20455243373231526560408201527131b2b4bb32b91034b6b83632b6b2b73a32b960711b606082015260800190565b6020808252602b908201527f496e697469616c697a61626c653a20636f6e7472616374206973206e6f74206960408201526a6e697469616c697a696e6760a81b606082015260800190565b600060208284031215618da557600080fd5b815161181581618420565b600060208284031215618dc257600080fd5b815161181581618226565b6001600160a01b038581168252841660208201526040810183905260806060820181905260009061764d908301846181ac565b600060208284031215618e1257600080fd5b81516118158161815556fea3ea4fb8dee4d414198cb197af6eae4fe483c1a0b849dc50e53b9bf1a60e2166360894a13ba1a3210667c828492db98dca3e2076cc3735a920a3ca505d382bbc416464726573733a206c6f772d6c6576656c2064656c65676174652063616c6c206661696c6564a26469706673582212205c7aa6b9613267280fe54afc677f44418a194349cd96bac4b00a058f98a1de5c64736f6c63430008110033496e697469616c697a61626c653a20636f6e7472616374206973206e6f742069",
    "linkReferences": {}
  },
  "methodIdentifiers": {
    "acceptOwnershipTransfer()": "b842e87f",
    "activeStrategies(uint256)": "b20b2429",
    "activeTokens(uint256)": "9f224f35",
    "addNewBountyPool(address,address,string)": "804fd590",
    "approve(address,uint256)": "095ea7b3",
    "balanceOf(address)": "70a08231",
    "billPremium(uint256)": "2dbe051e",
    "calcRequiredPremiumBalancePerPeriod(uint256,uint256)": "836ef1fa",
    "calculateEffectiveAPY(uint256,uint256)": "5c46f7b1",
    "calculateEffectiveAPYConsolidate(uint256,uint256,uint256)": "ff5e5b5f",
    "claimPremium(uint256)": "f47ec3be",
    "collectAllSaloonProfits(address)": "ecd7fbed",
    "collectSaloonProfits(address,address)": "cf9564b9",
    "compoundYieldForAll()": "f68ce499",
    "compoundYieldForPid(uint256)": "e78ea3df",
    "consolidate(uint256)": "949a4a4a",
    "consolidateAll()": "75bfd63d",
    "getApproved(uint256)": "081812fc",
    "getCurrentAPY(uint256)": "7fbf3853",
    "getMultiplier(uint256,uint256)": "8dbb1e3a",
    "index()": "2986c0e5",
    "initialize(address)": "c4d66de8",
    "isApprovedForAll(address,address)": "e985e9c5",
    "makeProjectDeposit(uint256,uint256,string)": "ae07f948",
    "minTokenStakeAmount(address)": "39458723",
    "name()": "06fdde03",
    "nftAPY(uint256)": "1df56622",
    "nftBalance(uint256)": "e63d6ee4",
    "nftInfo(uint256)": "1f8bc790",
    "nftToPid(uint256)": "612afc0c",
    "owner()": "8da5cb5b",
    "ownerOf(uint256)": "6352211e",
    "payBounty(uint256,address,uint256)": "3ac6ad7b",
    "pendingPremium(uint256)": "40bd1d00",
    "pidNFTList(uint256,uint256)": "96ea48e8",
    "pidStrategies(uint256,bytes32)": "074ecf03",
    "poolInfo(uint256)": "1526fe27",
    "poolLength()": "081e3eda",
    "projectDepositWithdrawal(uint256,uint256)": "983c1ce0",
    "proxiableUUID()": "52d1902d",
    "receiveStrategyYield(address,uint256)": "1aebcecb",
    "safeTransferFrom(address,address,uint256)": "42842e0e",
    "safeTransferFrom(address,address,uint256,bytes)": "b88d4fde",
    "saloonBountyProfit(address)": "e45abd0f",
    "saloonPremiumProfit(address)": "ca006148",
    "saloonStrategyProfit(address)": "598d17bf",
    "scheduleProjectDepositWithdrawal(uint256,uint256)": "5669cbef",
    "scheduleUnstake(uint256)": "106d08df",
    "setAPYandPoolCapAndDeposit(uint256,uint256,uint16,uint256,string)": "30ca0794",
    "setApprovalForAll(address,bool)": "a22cb465",
    "stake(uint256,uint256)": "7b0472f0",
    "supportsInterface(bytes4)": "01ffc9a7",
    "symbol()": "95d89b41",
    "tokenURI(uint256)": "c87b56dd",
    "tokenWhitelist(address)": "753d7563",
    "transferFrom(address,address,uint256)": "23b872dd",
    "transferOwnership(address)": "f2fde38b",
    "unstake(uint256,bool)": "9ebea88c",
    "updateStrategyFactoryAddress(address)": "3538fda0",
    "updateTokenWhitelist(address,bool,uint256)": "2cb0dfcc",
    "upgradeTo(address)": "3659cfe6",
    "upgradeToAndCall(address,bytes)": "4f1ef286",
    "viewBountyBalance(uint256)": "6ac6d812",
    "viewBountyInfo(uint256)": "40ef2868",
    "viewHackerPayout(uint256)": "861e5f66",
    "viewMinProjectDeposit(uint256)": "1c6b323f",
    "viewPoolAPY(uint256)": "a27f9213",
    "viewPoolCap(uint256)": "39679ff4",
    "viewPoolPremiumInfo(uint256)": "b1a2d16f",
    "viewPoolTimelockInfo(uint256)": "ac30b856",
    "viewSaloonProfitBalance(address)": "718c7eef",
    "viewTokenInfo(uint256)": "10725852",
    "viewTotalStaked(uint256)": "dbdd6957",
    "viewUserUnclaimed(uint256)": "19693071",
    "windDownBounty(uint256)": "bb7019c1"
  },
  "id": 47
}