{
  "abi": [
    {
      "anonymous": false,
      "inputs": [
        {
          "indexed": false,
          "internalType": "address",
          "name": "previousAdmin",
          "type": "address"
        },
        {
          "indexed": false,
          "internalType": "address",
          "name": "newAdmin",
          "type": "address"
        }
      ],
      "name": "AdminChanged",
      "type": "event"
    },
    {
      "anonymous": false,
      "inputs": [
        {
          "indexed": true,
          "internalType": "address",
          "name": "owner",
          "type": "address"
        },
        {
          "indexed": true,
          "internalType": "address",
          "name": "spender",
          "type": "address"
        },
        {
          "indexed": false,
          "internalType": "uint256",
          "name": "value",
          "type": "uint256"
        }
      ],
      "name": "Approval",
      "type": "event"
    },
    {
      "anonymous": false,
      "inputs": [
        {
          "indexed": true,
          "internalType": "address",
          "name": "beacon",
          "type": "address"
        }
      ],
      "name": "BeaconUpgraded",
      "type": "event"
    },
    {
      "anonymous": false,
      "inputs": [
        {
          "indexed": true,
          "internalType": "uint256",
          "name": "pid",
          "type": "uint256"
        },
        {
          "indexed": true,
          "internalType": "uint256",
          "name": "oldAmount",
          "type": "uint256"
        },
        {
          "indexed": true,
          "internalType": "uint256",
          "name": "newAmount",
          "type": "uint256"
        }
      ],
      "name": "BountyBalanceChanged",
      "type": "event"
    },
    {
      "anonymous": false,
      "inputs": [
        {
          "indexed": true,
          "internalType": "uint256",
          "name": "time",
          "type": "uint256"
        },
        {
          "indexed": true,
          "internalType": "address",
          "name": "hunter",
          "type": "address"
        },
        {
          "indexed": true,
          "internalType": "address",
          "name": "token",
          "type": "address"
        },
        {
          "indexed": false,
          "internalType": "uint256",
          "name": "amount",
          "type": "uint256"
        }
      ],
      "name": "BountyPaid",
      "type": "event"
    },
    {
      "anonymous": false,
      "inputs": [
        {
          "indexed": false,
          "internalType": "uint8",
          "name": "version",
          "type": "uint8"
        }
      ],
      "name": "Initialized",
      "type": "event"
    },
    {
      "anonymous": false,
      "inputs": [
        {
          "indexed": true,
          "internalType": "uint256",
          "name": "pid",
          "type": "uint256"
        },
        {
          "indexed": true,
          "internalType": "address",
          "name": "token",
          "type": "address"
        },
        {
          "indexed": true,
          "internalType": "uint256",
          "name": "tokenDecimals",
          "type": "uint256"
        }
      ],
      "name": "NewBountyDeployed",
      "type": "event"
    },
    {
      "anonymous": false,
      "inputs": [
        {
          "indexed": true,
          "internalType": "address",
          "name": "previousOwner",
          "type": "address"
        },
        {
          "indexed": true,
          "internalType": "address",
          "name": "newOwner",
          "type": "address"
        }
      ],
      "name": "OwnershipTransferred",
      "type": "event"
    },
    {
      "anonymous": false,
      "inputs": [
        {
          "indexed": true,
          "internalType": "uint256",
          "name": "pid",
          "type": "uint256"
        },
        {
          "indexed": true,
          "internalType": "uint256",
          "name": "amount",
          "type": "uint256"
        }
      ],
      "name": "PremiumBilled",
      "type": "event"
    },
    {
      "anonymous": false,
      "inputs": [
        {
          "indexed": true,
          "internalType": "address",
          "name": "user",
          "type": "address"
        },
        {
          "indexed": true,
          "internalType": "uint256",
          "name": "pid",
          "type": "uint256"
        },
        {
          "indexed": false,
          "internalType": "uint256",
          "name": "amount",
          "type": "uint256"
        }
      ],
      "name": "Staked",
      "type": "event"
    },
    {
      "anonymous": false,
      "inputs": [
        {
          "indexed": true,
          "internalType": "address",
          "name": "from",
          "type": "address"
        },
        {
          "indexed": true,
          "internalType": "address",
          "name": "to",
          "type": "address"
        },
        {
          "indexed": false,
          "internalType": "uint256",
          "name": "value",
          "type": "uint256"
        }
      ],
      "name": "Transfer",
      "type": "event"
    },
    {
      "anonymous": false,
      "inputs": [
        {
          "indexed": true,
          "internalType": "address",
          "name": "user",
          "type": "address"
        },
        {
          "indexed": true,
          "internalType": "uint256",
          "name": "pid",
          "type": "uint256"
        },
        {
          "indexed": false,
          "internalType": "uint256",
          "name": "amount",
          "type": "uint256"
        }
      ],
      "name": "Unstaked",
      "type": "event"
    },
    {
      "anonymous": false,
      "inputs": [
        {
          "indexed": true,
          "internalType": "address",
          "name": "implementation",
          "type": "address"
        }
      ],
      "name": "Upgraded",
      "type": "event"
    },
    {
      "anonymous": false,
      "inputs": [
        {
          "indexed": true,
          "internalType": "uint256",
          "name": "pid",
          "type": "uint256"
        },
        {
          "indexed": true,
          "internalType": "uint256",
          "name": "amount",
          "type": "uint256"
        }
      ],
      "name": "WithdrawalOrUnstakeScheduled",
      "type": "event"
    },
    {
      "anonymous": false,
      "inputs": [
        {
          "indexed": true,
          "internalType": "address",
          "name": "token",
          "type": "address"
        },
        {
          "indexed": true,
          "internalType": "bool",
          "name": "whitelisted",
          "type": "bool"
        }
      ],
      "name": "tokenWhitelistUpdated",
      "type": "event"
    },
    {
      "inputs": [
        {
          "internalType": "uint256",
          "name": "",
          "type": "uint256"
        }
      ],
      "name": "M",
      "outputs": [
        {
          "internalType": "uint256",
          "name": "",
          "type": "uint256"
        }
      ],
      "stateMutability": "view",
      "type": "function"
    },
    {
      "inputs": [],
      "name": "acceptOwnershipTransfer",
      "outputs": [],
      "stateMutability": "nonpayable",
      "type": "function"
    },
    {
      "inputs": [
        {
          "internalType": "uint256",
          "name": "",
          "type": "uint256"
        }
      ],
      "name": "activeTokens",
      "outputs": [
        {
          "internalType": "address",
          "name": "",
          "type": "address"
        }
      ],
      "stateMutability": "view",
      "type": "function"
    },
    {
      "inputs": [
        {
          "internalType": "address",
          "name": "_token",
          "type": "address"
        },
        {
          "internalType": "address",
          "name": "_projectWallet",
          "type": "address"
        },
        {
          "internalType": "string",
          "name": "_projectName",
          "type": "string"
        }
      ],
      "name": "addNewBountyPool",
      "outputs": [
        {
          "internalType": "uint256",
          "name": "",
          "type": "uint256"
        }
      ],
      "stateMutability": "nonpayable",
      "type": "function"
    },
    {
      "inputs": [
        {
          "internalType": "address",
          "name": "owner",
          "type": "address"
        },
        {
          "internalType": "address",
          "name": "spender",
          "type": "address"
        }
      ],
      "name": "allowance",
      "outputs": [
        {
          "internalType": "uint256",
          "name": "",
          "type": "uint256"
        }
      ],
      "stateMutability": "view",
      "type": "function"
    },
    {
      "inputs": [
        {
          "internalType": "address",
          "name": "spender",
          "type": "address"
        },
        {
          "internalType": "uint256",
          "name": "amount",
          "type": "uint256"
        }
      ],
      "name": "approve",
      "outputs": [
        {
          "internalType": "bool",
          "name": "",
          "type": "bool"
        }
      ],
      "stateMutability": "nonpayable",
      "type": "function"
    },
    {
      "inputs": [
        {
          "internalType": "address",
          "name": "account",
          "type": "address"
        }
      ],
      "name": "balanceOf",
      "outputs": [
        {
          "internalType": "uint256",
          "name": "",
          "type": "uint256"
        }
      ],
      "stateMutability": "view",
      "type": "function"
    },
    {
      "inputs": [
        {
          "internalType": "uint256",
          "name": "_pid",
          "type": "uint256"
        }
      ],
      "name": "billPremium",
      "outputs": [
        {
          "internalType": "bool",
          "name": "",
          "type": "bool"
        }
      ],
      "stateMutability": "nonpayable",
      "type": "function"
    },
    {
      "inputs": [
        {
          "internalType": "uint256",
          "name": "_targetAPY",
          "type": "uint256"
        },
        {
          "internalType": "uint256",
          "name": "_poolID",
          "type": "uint256"
        }
      ],
      "name": "calculateMultiplier",
      "outputs": [],
      "stateMutability": "nonpayable",
      "type": "function"
    },
    {
      "inputs": [
        {
          "internalType": "uint256",
          "name": "_pid",
          "type": "uint256"
        }
      ],
      "name": "claimPremium",
      "outputs": [],
      "stateMutability": "nonpayable",
      "type": "function"
    },
    {
      "inputs": [
        {
          "internalType": "address",
          "name": "_saloonWallet",
          "type": "address"
        }
      ],
      "name": "collectAllSaloonProfits",
      "outputs": [
        {
          "internalType": "bool",
          "name": "",
          "type": "bool"
        }
      ],
      "stateMutability": "nonpayable",
      "type": "function"
    },
    {
      "inputs": [
        {
          "internalType": "address",
          "name": "_token",
          "type": "address"
        },
        {
          "internalType": "address",
          "name": "_saloonWallet",
          "type": "address"
        }
      ],
      "name": "collectSaloonProfits",
      "outputs": [
        {
          "internalType": "bool",
          "name": "",
          "type": "bool"
        }
      ],
      "stateMutability": "nonpayable",
      "type": "function"
    },
    {
      "inputs": [
        {
          "internalType": "uint256",
          "name": "_stake",
          "type": "uint256"
        },
        {
          "internalType": "uint256",
          "name": "_poolID",
          "type": "uint256"
        }
      ],
      "name": "convertStakeToPoolMeasurements",
      "outputs": [
        {
          "internalType": "uint256",
          "name": "x",
          "type": "uint256"
        },
        {
          "internalType": "uint256",
          "name": "poolPercentage",
          "type": "uint256"
        }
      ],
      "stateMutability": "nonpayable",
      "type": "function"
    },
    {
      "inputs": [],
      "name": "decimals",
      "outputs": [
        {
          "internalType": "uint8",
          "name": "",
          "type": "uint8"
        }
      ],
      "stateMutability": "view",
      "type": "function"
    },
    {
      "inputs": [
        {
          "internalType": "address",
          "name": "spender",
          "type": "address"
        },
        {
          "internalType": "uint256",
          "name": "subtractedValue",
          "type": "uint256"
        }
      ],
      "name": "decreaseAllowance",
      "outputs": [
        {
          "internalType": "bool",
          "name": "",
          "type": "bool"
        }
      ],
      "stateMutability": "nonpayable",
      "type": "function"
    },
    {
      "inputs": [],
      "name": "getCurrentAPY",
      "outputs": [
        {
          "internalType": "uint256",
          "name": "result",
          "type": "uint256"
        }
      ],
      "stateMutability": "nonpayable",
      "type": "function"
    },
    {
      "inputs": [
        {
          "internalType": "uint256",
          "name": "_from",
          "type": "uint256"
        },
        {
          "internalType": "uint256",
          "name": "_to",
          "type": "uint256"
        }
      ],
      "name": "getMultiplier",
      "outputs": [
        {
          "internalType": "uint256",
          "name": "",
          "type": "uint256"
        }
      ],
      "stateMutability": "pure",
      "type": "function"
    },
    {
      "inputs": [
        {
          "internalType": "address",
          "name": "spender",
          "type": "address"
        },
        {
          "internalType": "uint256",
          "name": "addedValue",
          "type": "uint256"
        }
      ],
      "name": "increaseAllowance",
      "outputs": [
        {
          "internalType": "bool",
          "name": "",
          "type": "bool"
        }
      ],
      "stateMutability": "nonpayable",
      "type": "function"
    },
    {
      "inputs": [],
      "name": "initialize",
      "outputs": [],
      "stateMutability": "nonpayable",
      "type": "function"
    },
    {
      "inputs": [
        {
          "internalType": "uint256",
          "name": "_pid",
          "type": "uint256"
        },
        {
          "internalType": "uint256",
          "name": "_deposit",
          "type": "uint256"
        }
      ],
      "name": "makeProjectDeposit",
      "outputs": [],
      "stateMutability": "nonpayable",
      "type": "function"
    },
    {
      "inputs": [],
      "name": "name",
      "outputs": [
        {
          "internalType": "string",
          "name": "",
          "type": "string"
        }
      ],
      "stateMutability": "view",
      "type": "function"
    },
    {
      "inputs": [],
      "name": "owner",
      "outputs": [
        {
          "internalType": "address",
          "name": "",
          "type": "address"
        }
      ],
      "stateMutability": "view",
      "type": "function"
    },
    {
      "inputs": [
        {
          "internalType": "uint256",
          "name": "_pid",
          "type": "uint256"
        },
        {
          "internalType": "address",
          "name": "_hunter",
          "type": "address"
        },
        {
          "internalType": "uint256",
          "name": "_amount",
          "type": "uint256"
        }
      ],
      "name": "payBounty",
      "outputs": [
        {
          "internalType": "bool",
          "name": "",
          "type": "bool"
        }
      ],
      "stateMutability": "nonpayable",
      "type": "function"
    },
    {
      "inputs": [
        {
          "internalType": "uint256",
          "name": "_pid",
          "type": "uint256"
        },
        {
          "internalType": "address",
          "name": "_user",
          "type": "address"
        }
      ],
      "name": "pendingToken",
      "outputs": [
        {
          "internalType": "uint256",
          "name": "totalPending",
          "type": "uint256"
        },
        {
          "internalType": "uint256",
          "name": "actualPending",
          "type": "uint256"
        },
        {
          "internalType": "uint256",
          "name": "newPending",
          "type": "uint256"
        }
      ],
      "stateMutability": "view",
      "type": "function"
    },
    {
      "inputs": [
        {
          "internalType": "uint256",
          "name": "",
          "type": "uint256"
        }
      ],
      "name": "poolInfo",
      "outputs": [
        {
          "components": [
            {
              "internalType": "contract IERC20",
              "name": "token",
              "type": "address"
            },
            {
              "internalType": "uint8",
              "name": "tokenDecimals",
              "type": "uint8"
            },
            {
              "internalType": "uint16",
              "name": "apy",
              "type": "uint16"
            },
            {
              "internalType": "address",
              "name": "projectWallet",
              "type": "address"
            },
            {
              "internalType": "string",
              "name": "projectName",
              "type": "string"
            },
            {
              "internalType": "uint256",
              "name": "projectDeposit",
              "type": "uint256"
            },
            {
              "internalType": "uint256",
              "name": "poolCap",
              "type": "uint256"
            },
            {
              "internalType": "uint256",
              "name": "totalStaked",
              "type": "uint256"
            },
            {
              "internalType": "uint256",
              "name": "multiplier",
              "type": "uint256"
            }
          ],
          "internalType": "struct ISaloon.GeneralInfo",
          "name": "generalInfo",
          "type": "tuple"
        },
        {
          "components": [
            {
              "internalType": "uint256",
              "name": "requiredPremiumBalancePerPeriod",
              "type": "uint256"
            },
            {
              "internalType": "uint256",
              "name": "premiumBalance",
              "type": "uint256"
            },
            {
              "internalType": "uint256",
              "name": "premiumAvailable",
              "type": "uint256"
            }
          ],
          "internalType": "struct ISaloon.PremiumInfo",
          "name": "premiumInfo",
          "type": "tuple"
        },
        {
          "components": [
            {
              "internalType": "uint256",
              "name": "timelock",
              "type": "uint256"
            },
            {
              "internalType": "uint256",
              "name": "timeLimit",
              "type": "uint256"
            },
            {
              "internalType": "uint256",
              "name": "withdrawalScheduledAmount",
              "type": "uint256"
            },
            {
              "internalType": "bool",
              "name": "withdrawalExecuted",
              "type": "bool"
            }
          ],
          "internalType": "struct ISaloon.TimelockInfo",
          "name": "poolTimelock",
          "type": "tuple"
        },
        {
          "internalType": "bool",
          "name": "isActive",
          "type": "bool"
        },
        {
          "internalType": "uint256",
          "name": "freezeTime",
          "type": "uint256"
        }
      ],
      "stateMutability": "view",
      "type": "function"
    },
    {
      "inputs": [],
      "name": "poolLength",
      "outputs": [
        {
          "internalType": "uint256",
          "name": "",
          "type": "uint256"
        }
      ],
      "stateMutability": "view",
      "type": "function"
    },
    {
      "inputs": [
        {
          "internalType": "uint256",
          "name": "",
          "type": "uint256"
        }
      ],
      "name": "poolSize",
      "outputs": [
        {
          "internalType": "uint256",
          "name": "",
          "type": "uint256"
        }
      ],
      "stateMutability": "view",
      "type": "function"
    },
    {
      "inputs": [
        {
          "internalType": "uint256",
          "name": "_pid",
          "type": "uint256"
        },
        {
          "internalType": "uint256",
          "name": "_amount",
          "type": "uint256"
        }
      ],
      "name": "projectDepositWithdrawal",
      "outputs": [
        {
          "internalType": "bool",
          "name": "",
          "type": "bool"
        }
      ],
      "stateMutability": "nonpayable",
      "type": "function"
    },
    {
      "inputs": [],
      "name": "proxiableUUID",
      "outputs": [
        {
          "internalType": "bytes32",
          "name": "",
          "type": "bytes32"
        }
      ],
      "stateMutability": "view",
      "type": "function"
    },
    {
      "inputs": [
        {
          "internalType": "address",
          "name": "",
          "type": "address"
        }
      ],
      "name": "saloonBountyProfit",
      "outputs": [
        {
          "internalType": "uint256",
          "name": "",
          "type": "uint256"
        }
      ],
      "stateMutability": "view",
      "type": "function"
    },
    {
      "inputs": [
        {
          "internalType": "address",
          "name": "",
          "type": "address"
        }
      ],
      "name": "saloonPremiumProfit",
      "outputs": [
        {
          "internalType": "uint256",
          "name": "",
          "type": "uint256"
        }
      ],
      "stateMutability": "view",
      "type": "function"
    },
    {
      "inputs": [
        {
          "internalType": "uint256",
          "name": "_pid",
          "type": "uint256"
        },
        {
          "internalType": "uint256",
          "name": "_amount",
          "type": "uint256"
        }
      ],
      "name": "scheduleProjectDepositWithdrawal",
      "outputs": [
        {
          "internalType": "bool",
          "name": "",
          "type": "bool"
        }
      ],
      "stateMutability": "nonpayable",
      "type": "function"
    },
    {
      "inputs": [
        {
          "internalType": "uint256",
          "name": "_pid",
          "type": "uint256"
        },
        {
          "internalType": "uint256",
          "name": "_amount",
          "type": "uint256"
        }
      ],
      "name": "scheduleUnstake",
      "outputs": [
        {
          "internalType": "bool",
          "name": "",
          "type": "bool"
        }
      ],
      "stateMutability": "nonpayable",
      "type": "function"
    },
    {
      "inputs": [],
      "name": "seeEffectiveStakingAPY",
      "outputs": [],
      "stateMutability": "nonpayable",
      "type": "function"
    },
    {
      "inputs": [
        {
          "internalType": "uint256",
          "name": "_pid",
          "type": "uint256"
        },
        {
          "internalType": "uint256",
          "name": "_poolCap",
          "type": "uint256"
        },
        {
          "internalType": "uint16",
          "name": "_apy",
          "type": "uint16"
        },
        {
          "internalType": "uint256",
          "name": "_deposit",
          "type": "uint256"
        }
      ],
      "name": "setAPYandPoolCapAndDeposit",
      "outputs": [],
      "stateMutability": "nonpayable",
      "type": "function"
    },
    {
      "inputs": [
        {
          "internalType": "uint256",
          "name": "_pid",
          "type": "uint256"
        },
        {
          "internalType": "address",
          "name": "_user",
          "type": "address"
        },
        {
          "internalType": "uint256",
          "name": "_amount",
          "type": "uint256"
        }
      ],
      "name": "stake",
      "outputs": [
        {
          "internalType": "bool",
          "name": "",
          "type": "bool"
        }
      ],
      "stateMutability": "nonpayable",
      "type": "function"
    },
    {
      "inputs": [],
      "name": "symbol",
      "outputs": [
        {
          "internalType": "string",
          "name": "",
          "type": "string"
        }
      ],
      "stateMutability": "view",
      "type": "function"
    },
    {
      "inputs": [
        {
          "internalType": "address",
          "name": "",
          "type": "address"
        }
      ],
      "name": "tokenWhitelist",
      "outputs": [
        {
          "internalType": "bool",
          "name": "",
          "type": "bool"
        }
      ],
      "stateMutability": "view",
      "type": "function"
    },
    {
      "inputs": [],
      "name": "totalSupply",
      "outputs": [
        {
          "internalType": "uint256",
          "name": "",
          "type": "uint256"
        }
      ],
      "stateMutability": "view",
      "type": "function"
    },
    {
      "inputs": [
        {
          "internalType": "address",
          "name": "to",
          "type": "address"
        },
        {
          "internalType": "uint256",
          "name": "amount",
          "type": "uint256"
        }
      ],
      "name": "transfer",
      "outputs": [
        {
          "internalType": "bool",
          "name": "",
          "type": "bool"
        }
      ],
      "stateMutability": "nonpayable",
      "type": "function"
    },
    {
      "inputs": [
        {
          "internalType": "address",
          "name": "from",
          "type": "address"
        },
        {
          "internalType": "address",
          "name": "to",
          "type": "address"
        },
        {
          "internalType": "uint256",
          "name": "amount",
          "type": "uint256"
        }
      ],
      "name": "transferFrom",
      "outputs": [
        {
          "internalType": "bool",
          "name": "",
          "type": "bool"
        }
      ],
      "stateMutability": "nonpayable",
      "type": "function"
    },
    {
      "inputs": [
        {
          "internalType": "address",
          "name": "newOwner",
          "type": "address"
        }
      ],
      "name": "transferOwnership",
      "outputs": [],
      "stateMutability": "nonpayable",
      "type": "function"
    },
    {
      "inputs": [
        {
          "internalType": "uint256",
          "name": "_pid",
          "type": "uint256"
        },
        {
          "internalType": "uint256",
          "name": "_amount",
          "type": "uint256"
        },
        {
          "internalType": "bool",
          "name": "_shouldHarvest",
          "type": "bool"
        }
      ],
      "name": "unstake",
      "outputs": [
        {
          "internalType": "bool",
          "name": "",
          "type": "bool"
        }
      ],
      "stateMutability": "nonpayable",
      "type": "function"
    },
    {
      "inputs": [
        {
          "internalType": "address",
          "name": "_token",
          "type": "address"
        },
        {
          "internalType": "bool",
          "name": "_whitelisted",
          "type": "bool"
        }
      ],
      "name": "updateTokenWhitelist",
      "outputs": [
        {
          "internalType": "bool",
          "name": "",
          "type": "bool"
        }
      ],
      "stateMutability": "nonpayable",
      "type": "function"
    },
    {
      "inputs": [
        {
          "internalType": "address",
          "name": "newImplementation",
          "type": "address"
        }
      ],
      "name": "upgradeTo",
      "outputs": [],
      "stateMutability": "nonpayable",
      "type": "function"
    },
    {
      "inputs": [
        {
          "internalType": "address",
          "name": "newImplementation",
          "type": "address"
        },
        {
          "internalType": "bytes",
          "name": "data",
          "type": "bytes"
        }
      ],
      "name": "upgradeToAndCall",
      "outputs": [],
      "stateMutability": "payable",
      "type": "function"
    },
    {
      "inputs": [
        {
          "internalType": "uint256",
          "name": "",
          "type": "uint256"
        },
        {
          "internalType": "address",
          "name": "",
          "type": "address"
        }
      ],
      "name": "userInfo",
      "outputs": [
        {
          "internalType": "uint256",
          "name": "amount",
          "type": "uint256"
        },
        {
          "internalType": "uint256",
          "name": "unclaimed",
          "type": "uint256"
        },
        {
          "internalType": "uint256",
          "name": "lastRewardTime",
          "type": "uint256"
        },
        {
          "internalType": "uint256",
          "name": "timelock",
          "type": "uint256"
        },
        {
          "internalType": "uint256",
          "name": "timeLimit",
          "type": "uint256"
        },
        {
          "internalType": "uint256",
          "name": "unstakeScheduledAmount",
          "type": "uint256"
        }
      ],
      "stateMutability": "view",
      "type": "function"
    },
    {
      "inputs": [
        {
          "internalType": "uint256",
          "name": "_pid",
          "type": "uint256"
        }
      ],
      "name": "viewBountyBalance",
      "outputs": [
        {
          "internalType": "uint256",
          "name": "",
          "type": "uint256"
        }
      ],
      "stateMutability": "view",
      "type": "function"
    },
    {
      "inputs": [
        {
          "internalType": "uint256",
          "name": "_pid",
          "type": "uint256"
        }
      ],
      "name": "viewBountyInfo",
      "outputs": [
        {
          "internalType": "uint256",
          "name": "payout",
          "type": "uint256"
        },
        {
          "internalType": "uint256",
          "name": "apy",
          "type": "uint256"
        },
        {
          "internalType": "uint256",
          "name": "staked",
          "type": "uint256"
        },
        {
          "internalType": "uint256",
          "name": "poolCap",
          "type": "uint256"
        }
      ],
      "stateMutability": "view",
      "type": "function"
    },
    {
      "inputs": [
        {
          "internalType": "uint256",
          "name": "_pid",
          "type": "uint256"
        }
      ],
      "name": "viewHackerPayout",
      "outputs": [
        {
          "internalType": "uint256",
          "name": "",
          "type": "uint256"
        }
      ],
      "stateMutability": "view",
      "type": "function"
    },
    {
      "inputs": [
        {
          "internalType": "uint256",
          "name": "_pid",
          "type": "uint256"
        }
      ],
      "name": "viewPoolAPY",
      "outputs": [
        {
          "internalType": "uint256",
          "name": "",
          "type": "uint256"
        }
      ],
      "stateMutability": "view",
      "type": "function"
    },
    {
      "inputs": [
        {
          "internalType": "uint256",
          "name": "_pid",
          "type": "uint256"
        }
      ],
      "name": "viewPoolCap",
      "outputs": [
        {
          "internalType": "uint256",
          "name": "",
          "type": "uint256"
        }
      ],
      "stateMutability": "view",
      "type": "function"
    },
    {
      "inputs": [
        {
          "internalType": "uint256",
          "name": "_pid",
          "type": "uint256"
        }
      ],
      "name": "viewPoolPremiumInfo",
      "outputs": [
        {
          "internalType": "uint256",
          "name": "requiredPremiumBalancePerPeriod",
          "type": "uint256"
        },
        {
          "internalType": "uint256",
          "name": "premiumBalance",
          "type": "uint256"
        },
        {
          "internalType": "uint256",
          "name": "premiumAvailable",
          "type": "uint256"
        }
      ],
      "stateMutability": "view",
      "type": "function"
    },
    {
      "inputs": [
        {
          "internalType": "uint256",
          "name": "_pid",
          "type": "uint256"
        }
      ],
      "name": "viewPoolTimelockInfo",
      "outputs": [
        {
          "internalType": "uint256",
          "name": "timelock",
          "type": "uint256"
        },
        {
          "internalType": "uint256",
          "name": "timeLimit",
          "type": "uint256"
        },
        {
          "internalType": "uint256",
          "name": "withdrawalScheduledAmount",
          "type": "uint256"
        }
      ],
      "stateMutability": "view",
      "type": "function"
    },
    {
      "inputs": [
        {
          "internalType": "address",
          "name": "_token",
          "type": "address"
        }
      ],
      "name": "viewSaloonProfitBalance",
      "outputs": [
        {
          "internalType": "uint256",
          "name": "totalProfit",
          "type": "uint256"
        },
        {
          "internalType": "uint256",
          "name": "bountyProfit",
          "type": "uint256"
        },
        {
          "internalType": "uint256",
          "name": "premiumProfit",
          "type": "uint256"
        }
      ],
      "stateMutability": "view",
      "type": "function"
    },
    {
      "inputs": [
        {
          "internalType": "uint256",
          "name": "_pid",
          "type": "uint256"
        }
      ],
      "name": "viewTotalStaked",
      "outputs": [
        {
          "internalType": "uint256",
          "name": "",
          "type": "uint256"
        }
      ],
      "stateMutability": "view",
      "type": "function"
    },
    {
      "inputs": [
        {
          "internalType": "uint256",
          "name": "_pid",
          "type": "uint256"
        },
        {
          "internalType": "address",
          "name": "_user",
          "type": "address"
        }
      ],
      "name": "viewUserInfo",
      "outputs": [
        {
          "internalType": "uint256",
          "name": "amount",
          "type": "uint256"
        },
        {
          "internalType": "uint256",
          "name": "actualPending",
          "type": "uint256"
        },
        {
          "internalType": "uint256",
          "name": "unstakeScheduledAmount",
          "type": "uint256"
        },
        {
          "internalType": "uint256",
          "name": "timelock",
          "type": "uint256"
        }
      ],
      "stateMutability": "view",
      "type": "function"
    },
    {
      "inputs": [
        {
          "internalType": "uint256",
          "name": "_pid",
          "type": "uint256"
        },
        {
          "internalType": "address",
          "name": "_user",
          "type": "address"
        }
      ],
      "name": "viewUserUnclaimed",
      "outputs": [
        {
          "internalType": "uint256",
          "name": "unclaimed",
          "type": "uint256"
        }
      ],
      "stateMutability": "view",
      "type": "function"
    },
    {
      "inputs": [
        {
          "internalType": "uint256",
          "name": "_pid",
          "type": "uint256"
        }
      ],
      "name": "windDownBounty",
      "outputs": [
        {
          "internalType": "bool",
          "name": "",
          "type": "bool"
        }
      ],
      "stateMutability": "nonpayable",
      "type": "function"
    }
  ],
  "bytecode": {
    "object": "0x60a0604052306080523480156200001557600080fd5b50600160ca55600054610100900460ff16158080156200003c5750600054600160ff909116105b806200006c575062000059306200019760201b6200402d1760201c565b1580156200006c575060005460ff166001145b620000d55760405162461bcd60e51b815260206004820152602e60248201527f496e697469616c697a61626c653a20636f6e747261637420697320616c72656160448201526d191e481a5b9a5d1a585b1a5e995960921b60648201526084015b60405180910390fd5b6000805460ff191660011790558015620000f9576000805461ff0019166101001790555b620001496040518060400160405280600b81526020016a2137bab73a3caa37b5b2b760a91b8152506040518060400160405280600381526020016210951560ea1b815250620001a660201b60201c565b801562000190576000805461ff0019169055604051600181527f7f26b83ff96e1f2b6a682f133852f6798a09c465da95921460cefb38474024989060200160405180910390a15b5062000400565b6001600160a01b03163b151590565b600054610100900460ff16620002025760405162461bcd60e51b815260206004820152602b602482015260008051602062005e4783398151915260448201526a6e697469616c697a696e6760a81b6064820152608401620000cc565b6200020e828262000212565b5050565b600054610100900460ff166200026e5760405162461bcd60e51b815260206004820152602b602482015260008051602062005e4783398151915260448201526a6e697469616c697a696e6760a81b6064820152608401620000cc565b60ce6200027c838262000334565b5060cf6200028b828262000334565b505050565b634e487b7160e01b600052604160045260246000fd5b600181811c90821680620002bb57607f821691505b602082108103620002dc57634e487b7160e01b600052602260045260246000fd5b50919050565b601f8211156200028b57600081815260208120601f850160051c810160208610156200030b5750805b601f850160051c820191505b818110156200032c5782815560010162000317565b505050505050565b81516001600160401b0381111562000350576200035062000290565b6200036881620003618454620002a6565b84620002e2565b602080601f831160018114620003a05760008415620003875750858301515b600019600386901b1c1916600185901b1785556200032c565b600085815260208120601f198616915b82811015620003d157888601518255948401946001909101908401620003b0565b5085821015620003f05787850151600019600388901b60f8161c191681555b5050505050600190811b01905550565b608051615a0f6200043860003960008181610ea801528181610ef1015281816117b1015281816117f101526118840152615a0f6000f3fe60806040526004361061038c5760003560e01c80638da5cb5b116101dc578063bb7019c111610102578063dd62ed3e116100a0578063ecd7fbed1161006f578063ecd7fbed14610b99578063f2fde38b14610bb9578063f47ec3be14610bd9578063fceb3d7614610bf957600080fd5b8063dd62ed3e14610af7578063de1b75ec14610b17578063e45abd0f14610b4c578063e5e97c6514610b7957600080fd5b8063cf9564b9116100dc578063cf9564b914610a5d578063d6c8552914610a7d578063dbdd695714610aaa578063dd03477914610aca57600080fd5b8063bb7019c1146109ef578063ca00614814610a0f578063cee6b06914610a3d57600080fd5b80639f224f351161017a578063a9059cbb11610149578063a9059cbb1461097a578063ac30b8561461099a578063b1a2d16f146109ba578063b842e87f146109da57600080fd5b80639f224f35146108fa578063a27f92131461091a578063a457c2d71461093a578063a754ecb01461095a57600080fd5b806393f1a40b116101b657806393f1a40b1461082757806395d89b41146108b0578063962ca496146108c5578063983c1ce0146108da57600080fd5b80638da5cb5b146107b55780638dbb1e3a146107e757806391635b4e1461080757600080fd5b80634f1ef286116102c157806370a082311161025f578063804fd5901161022e578063804fd590146107405780638129fc1c14610760578063861e5f661461077557806386ae01431461079557600080fd5b806370a0823114610699578063718c7eef146106cf578063753d7563146106ef57806379b91d691461072057600080fd5b806357a86d3a1161029b57806357a86d3a146105f35780635e3b748b146106135780636ac6d812146106595780636e9c931c1461067957600080fd5b80634f1ef286146105ab57806352d1902d146105be5780635669cbef146105d357600080fd5b8063313ce5671161032e57806339679ff41161030857806339679ff4146104f05780633ac6ad7b1461051057806340ef28681461053057806348e43af41461057057600080fd5b8063313ce567146104925780633659cfe6146104ae57806339509351146104d057600080fd5b80631526fe271161036a5780631526fe271461040c57806318160ddd1461043d57806323b872dd146104525780632dbe051e1461047257600080fd5b806306fdde0314610391578063081e3eda146103bc578063095ea7b3146103dc575b600080fd5b34801561039d57600080fd5b506103a6610c05565b6040516103b39190615032565b60405180910390f35b3480156103c857600080fd5b50610101545b6040519081526020016103b3565b3480156103e857600080fd5b506103fc6103f736600461505c565b610c97565b60405190151581526020016103b3565b34801561041857600080fd5b5061042c610427366004615086565b610cb1565b6040516103b395949392919061509f565b34801561044957600080fd5b5060cd546103ce565b34801561045e57600080fd5b506103fc61046d36600461519c565b610e5e565b34801561047e57600080fd5b506103fc61048d366004615086565b610e84565b34801561049e57600080fd5b50604051601281526020016103b3565b3480156104ba57600080fd5b506104ce6104c93660046151d8565b610e9e565b005b3480156104dc57600080fd5b506103fc6104eb36600461505c565b610f86565b3480156104fc57600080fd5b506103ce61050b366004615086565b610fa8565b34801561051c57600080fd5b506103fc61052b3660046151f3565b6111cd565b34801561053c57600080fd5b5061055061054b366004615086565b611665565b6040805194855260208501939093529183015260608201526080016103b3565b34801561057c57600080fd5b5061059061058b366004615218565b61169e565b604080519384526020840192909252908201526060016103b3565b6104ce6105b93660046152d0565b6117a7565b3480156105ca57600080fd5b506103ce611877565b3480156105df57600080fd5b506103fc6105ee366004615332565b61192a565b3480156105ff57600080fd5b506104ce61060e366004615332565b611a4f565b34801561061f57600080fd5b506103ce61062e366004615218565b6000918252610102602090815260408084206001600160a01b03909316845291905290206001015490565b34801561066557600080fd5b506103ce610674366004615086565b611b2d565b34801561068557600080fd5b506103fc6106943660046151f3565b611d5f565b3480156106a557600080fd5b506103ce6106b43660046151d8565b6001600160a01b0316600090815260cb602052604090205490565b3480156106db57600080fd5b506105906106ea3660046151d8565b6121b3565b3480156106fb57600080fd5b506103fc61070a3660046151d8565b6101036020526000908152604090205460ff1681565b34801561072c57600080fd5b506103fc61073b366004615362565b6121ea565b34801561074c57600080fd5b506103ce61075b36600461539b565b6124c9565b34801561076c57600080fd5b506104ce612831565b34801561078157600080fd5b506103ce610790366004615086565b612941565b3480156107a157600080fd5b506104ce6107b0366004615332565b612b96565b3480156107c157600080fd5b506033546001600160a01b03165b6040516001600160a01b0390911681526020016103b3565b3480156107f357600080fd5b506103ce610802366004615332565b612bd4565b34801561081357600080fd5b506103fc610822366004615332565b612be0565b34801561083357600080fd5b50610883610842366004615218565b610102602090815260009283526040808420909152908252902080546001820154600283015460038401546004850154600590950154939492939192909186565b604080519687526020870195909552938501929092526060840152608083015260a082015260c0016103b3565b3480156108bc57600080fd5b506103a6612cba565b3480156108d157600080fd5b506103ce612cc9565b3480156108e657600080fd5b506103fc6108f5366004615332565b612cdb565b34801561090657600080fd5b506107cf610915366004615086565b612e36565b34801561092657600080fd5b506103ce610935366004615086565b612e61565b34801561094657600080fd5b506103fc61095536600461505c565b613089565b34801561096657600080fd5b50610550610975366004615218565b61310f565b34801561098657600080fd5b506103fc61099536600461505c565b613160565b3480156109a657600080fd5b506105906109b5366004615086565b61316e565b3480156109c657600080fd5b506105906109d5366004615086565b6133a8565b3480156109e657600080fd5b506104ce6135e2565b3480156109fb57600080fd5b506103fc610a0a366004615086565b613662565b348015610a1b57600080fd5b506103ce610a2a3660046151d8565b6101006020526000908152604090205481565b348015610a4957600080fd5b506104ce610a5836600461540d565b6136e8565b348015610a6957600080fd5b506103fc610a78366004615453565b613980565b348015610a8957600080fd5b506103ce610a98366004615086565b60fd6020526000908152604090205481565b348015610ab657600080fd5b506103ce610ac5366004615086565b6139ee565b348015610ad657600080fd5b506103ce610ae5366004615086565b60fe6020526000908152604090205481565b348015610b0357600080fd5b506103ce610b12366004615453565b613c13565b348015610b2357600080fd5b50610b37610b32366004615332565b613c3e565b604080519283526020830191909152016103b3565b348015610b5857600080fd5b506103ce610b673660046151d8565b60ff6020526000908152604090205481565b348015610b8557600080fd5b506103fc610b9436600461547d565b613c81565b348015610ba557600080fd5b506103fc610bb43660046151d8565b613eb6565b348015610bc557600080fd5b506104ce610bd43660046151d8565b613f80565b348015610be557600080fd5b506104ce610bf4366004615086565b61400f565b3480156104ce57600080fd5b606060ce8054610c14906154b4565b80601f0160208091040260200160405190810160405280929190818152602001828054610c40906154b4565b8015610c8d5780601f10610c6257610100808354040283529160200191610c8d565b820191906000526020600020905b815481529060010190602001808311610c7057829003601f168201915b5050505050905090565b600033610ca581858561403c565b60019150505b92915050565b6101018181548110610cc257600080fd5b60009182526020918290206040805161012081018252601190930290910180546001600160a01b03808216855260ff600160a01b8304169585019590955261ffff600160a81b909104169183019190915260018101549092166060820152600282018054929350909183916080840191610d3b906154b4565b80601f0160208091040260200160405190810160405280929190818152602001828054610d67906154b4565b8015610db45780601f10610d8957610100808354040283529160200191610db4565b820191906000526020600020905b815481529060010190602001808311610d9757829003601f168201915b5050509183525050600382015460208083019190915260048301546040808401919091526005840154606080850191909152600690940154608093840152805180850182526007870154815260088701548184015260098701548183015281519384018252600a8701548452600b87015492840192909252600c86015490830152600d85015460ff908116151593830193909352600f850154601090950154939490939192169085565b600033610e6c858285614160565b610e778585856141da565b60019150505b9392505050565b6000610e8e614385565b610e998260006143df565b919050565b6001600160a01b037f0000000000000000000000000000000000000000000000000000000000000000163003610eef5760405162461bcd60e51b8152600401610ee6906154ee565b60405180910390fd5b7f00000000000000000000000000000000000000000000000000000000000000006001600160a01b0316610f38600080516020615993833981519152546001600160a01b031690565b6001600160a01b031614610f5e5760405162461bcd60e51b8152600401610ee69061553a565b610f6781614517565b60408051600080825260208201909252610f839183919061451f565b50565b600033610ca5818585610f998383613c13565b610fa3919061559c565b61403c565b6000806101018381548110610fbf57610fbf6155af565b60009182526020909120604080516101e0810190915260119092020180546001600160a01b0380821660c08501908152600160a01b830460ff1660e0860152600160a81b90920461ffff16610100850152600183015416610120840152600282018054849291849161014085019190611037906154b4565b80601f0160208091040260200160405190810160405280929190818152602001828054611063906154b4565b80156110b05780601f10611085576101008083540402835291602001916110b0565b820191906000526020600020905b81548152906001019060200180831161109357829003601f168201915b505050918352505060038201546020808301919091526004830154604080840191909152600584015460608085019190915260069094015460809384015293855283518084018552600787015481526008870154818301526009870154818601528582015283519182018452600a8601548252600b86015482820152600c86015482850152600d86015460ff1615158284015284840191909152600e8501805484518184028101840190955280855294909201939083018282801561119e57602002820191906000526020600020905b81546001600160a01b03168152600190910190602001808311611180575b5050509183525050600f82015460ff16151560208201526010909101546040909101525160c001519392505050565b60006111d7614385565b600061010185815481106111ed576111ed6155af565b60009182526020822060056011909202019081015460038201549193509190611216908361559c565b9050808286116113b7578286036112ba57600e84015460005b8181101561129c57600086600e01828154811061124e5761124e6155af565b60009182526020808320909101548d8352610102825260408084206001600160a01b03909216808552919092529082209092509061128f908d90849061468f565b600090555060010161122f565b506000600586018190556112b490600e870190614e7e565b50611564565b6000836112cf670de0b6b3a7640000896155c5565b6112d991906155dc565b600e86015490915060005b818110156113af57600087600e018281548110611303576113036155af565b60009182526020808320909101548e8352610102825260408084206001600160a01b039092168085529190925290822090925090611344908e90849061468f565b6000670de0b6b3a764000086836000015461135f91906155c5565b61136991906155dc565b90508082600001600082825461137f91906155fe565b909155505060058a01805482919060009061139b9084906155fe565b9091555050600190930192506112e4915050565b505050611564565b82861180156113c557508186105b1561148957600e84015460005b8181101561143f57600086600e0182815481106113f1576113f16155af565b60009182526020808320909101548d8352610102825260408084206001600160a01b039092168085529190925290822090925090611432908d90849061468f565b60009055506001016113d2565b5060006005860181905561145790600e870190614e7e565b600061146385856155fe565b90508086600001600301600082825461147c91906155fe565b9091555061156492505050565b81860361152a57600e84015460005b8181101561150557600086600e0182815481106114b7576114b76155af565b60009182526020808320909101548d8352610102825260408084206001600160a01b0390921680855291909252908220909250906114f8908d90849061468f565b6000905550600101611498565b5060006005860181905561151d90600e870190614e7e565b5060006003850155611564565b60405162461bcd60e51b815260206004820152600f60248201526e082dadeeadce840e8dede40d0d2ced608b1b6044820152606401610ee6565b60006127106115756103e8896155c5565b61157f91906155dc565b9050600061158d82896155fe565b86546001600160a01b0316600090815260ff60205260408120805492935084929091906115bb90849061559c565b909155505085546115d6906001600160a01b03168a836147f2565b50600386015460058701546000916115ed9161559c565b87546040518b81529192506001600160a01b0390811691908c169042907fc351e6e0f377ec1a399ec84224a83d6a4b9f3cd9a5530e5c652d0b11c2f8dae29060200160405180910390a480848c60008051602061597383398151915260405160405180910390a45060019a9950505050505050505050565b60008060008061167485612941565b935061167f856139ee565b915061168a85612e61565b925061169585610fa8565b90509193509193565b60008060008061010186815481106116b8576116b86155af565b60009182526020808320898452610102825260408085206001600160a01b038b16865290925290832060119290920201600581015460108201549194509192908103611704574261170a565b83601001545b9050600061171c846002015483612bd4565b855485549192506301e133809183916127109161174491600160a81b900461ffff16906155c5565b61174e91906155dc565b61175891906155c5565b61176291906155dc565b9550836001015486611774919061559c565b97506127106117856103e8826155fe565b61178f908a6155c5565b61179991906155dc565b965050505050509250925092565b6001600160a01b037f00000000000000000000000000000000000000000000000000000000000000001630036117ef5760405162461bcd60e51b8152600401610ee6906154ee565b7f00000000000000000000000000000000000000000000000000000000000000006001600160a01b0316611838600080516020615993833981519152546001600160a01b031690565b6001600160a01b03161461185e5760405162461bcd60e51b8152600401610ee69061553a565b61186782614517565b6118738282600161451f565b5050565b6000306001600160a01b037f000000000000000000000000000000000000000000000000000000000000000016146119175760405162461bcd60e51b815260206004820152603860248201527f555550535570677261646561626c653a206d757374206e6f742062652063616c60448201527f6c6564207468726f7567682064656c656761746563616c6c00000000000000006064820152608401610ee6565b5060008051602061599383398151915290565b6000806101018481548110611941576119416155af565b9060005260206000209060110201905082816000016003015410156119a85760405162461bcd60e51b815260206004820152601a60248201527f416d6f756e7420626967676572207468616e206465706f7369740000000000006044820152606401610ee6565b60018101546001600160a01b031633146119d45760405162461bcd60e51b8152600401610ee690615611565b6119e162093a804261559c565b600a8201556119f362093a804261559c565b611a00906203f48061559c565b600b820155600c8101839055600d8101805460ff19169055604051839085907fb3b9c925de3673837b40c6b4d4463a8f88dc821cd27e07f1ff6bf6abf96413a590600090a35060019392505050565b60006101018381548110611a6557611a656155af565b6000918252602090912060119091020160018101549091506001600160a01b03163314611aa45760405162461bcd60e51b8152600401610ee690615611565b60038101546005820154600091611aba9161559c565b8254909150611ad4906001600160a01b0316333086614858565b5082826000016003016000828254611aec919061559c565b909155505060038201546005830154600091611b079161559c565b905080828660008051602061597383398151915260405160405180910390a45050505050565b6000806101018381548110611b4457611b446155af565b60009182526020909120604080516101e0810190915260119092020180546001600160a01b0380821660c08501908152600160a01b830460ff1660e0860152600160a81b90920461ffff16610100850152600183015416610120840152600282018054849291849161014085019190611bbc906154b4565b80601f0160208091040260200160405190810160405280929190818152602001828054611be8906154b4565b8015611c355780601f10611c0a57610100808354040283529160200191611c35565b820191906000526020600020905b815481529060010190602001808311611c1857829003601f168201915b505050918352505060038201546020808301919091526004830154604080840191909152600584015460608085019190915260069094015460809384015293855283518084018552600787015481526008870154818301526009870154818601528582015283519182018452600a8601548252600b86015482820152600c86015482850152600d86015460ff1615158284015284840191909152600e85018054845181840281018401909552808552949092019390830182828015611d2357602002820191906000526020600020905b81546001600160a01b03168152600190910190602001808311611d05575b5050509183525050600f82015460ff1615156020820152601090910154604090910152805160a081015160e090910151919250610e7d9161559c565b6000611d6961489b565b8360006101018281548110611d8057611d806155af565b60009182526020909120604080516101e0810190915260119092020180546001600160a01b0380821660c08501908152600160a01b830460ff1660e0860152600160a81b90920461ffff16610100850152600183015416610120840152600282018054849291849161014085019190611df8906154b4565b80601f0160208091040260200160405190810160405280929190818152602001828054611e24906154b4565b8015611e715780601f10611e4657610100808354040283529160200191611e71565b820191906000526020600020905b815481529060010190602001808311611e5457829003601f168201915b505050918352505060038201546020808301919091526004830154604080840191909152600584015460608085019190915260069094015460809384015293855283518084018552600787015481526008870154818301526009870154818601528582015283519182018452600a8601548252600b86015482820152600c86015482850152600d86015460ff1615158284015284840191909152600e85018054845181840281018401909552808552949092019390830182828015611f5f57602002820191906000526020600020905b81546001600160a01b03168152600190910190602001808311611f41575b5050509183525050600f82015460ff16151560208201526010909101546040909101526080810151909150611fc85760405162461bcd60e51b815260206004820152600f60248201526e706f6f6c206e6f742061637469766560881b6044820152606401610ee6565b60008411611fd557600080fd5b60006101018781548110611feb57611feb6155af565b600091825260208083208a8452610102825260408085206001600160a01b038c16865290925290832060119290920201600381015460058201549194509192916120349161559c565b90506120428989600161468f565b815460000361207c57600e83018054600181018255600091825260209091200180546001600160a01b0319166001600160a01b038a161790555b8254612093906001600160a01b031633308a614858565b50868260000160008282546120a8919061559c565b90915550506005830180548891906000906120c490849061559c565b90915550506004830154158015906120e457506004830154600584015411155b6121265760405162461bcd60e51b8152602060048201526013602482015272115e18d959591959081c1bdbdb081b1a5b5a5d606a1b6044820152606401610ee6565b88886001600160a01b03167f1449c6dd7851abc30abf37f57715f492010519147cc2652fbc38202c18a6ee908960405161216291815260200190565b60405180910390a3600383015460058401546000916121809161559c565b905080828b60008051602061597383398151915260405160405180910390a460019650505050505050610e7d600160ca55565b6001600160a01b038116600090815260ff60209081526040808320546101009092528220546121e2828261559c565b949193509150565b60006121f461489b565b6000610101858154811061220a5761220a6155af565b600091825260208083208884526101028252604080852033865290925292208054601190920290920192508511156122795760405162461bcd60e51b81526020600482015260126024820152711dda5d1a191c985dce881b9bdd0819dbdbd960721b6044820152606401610ee6565b42816003015410801561228f5750428160040154115b801561229f575084816005015410155b80156122ae5750600381015415155b6122ca5760405162461bcd60e51b8152600401610ee690615639565b6000600380830182905583015460058401546122e6919061559c565b90506122f387338761468f565b851561233357815461230590876148f4565b8255600583015461231690876148f4565b60058401558254612331906001600160a01b031633886147f2565b505b815460000361244b57600e83015460005b8181101561244857336001600160a01b031685600e01828154811061236b5761236b6155af565b6000918252602090912001546001600160a01b031603612440576000600e86016123966001856155fe565b815481106123a6576123a66155af565b600091825260209091200154600e870180546001600160a01b0390921692508291849081106123d7576123d76155af565b9060005260206000200160006101000a8154816001600160a01b0302191690836001600160a01b0316021790555085600e0180548061241857612418615682565b600082815260209020810160001990810180546001600160a01b031916905501905550612448565b600101612344565b50505b604051868152879033907f7fc4727e062e336010f2c282598ef5f14facb3de68cf8195c2f23e1454b2b74e9060200160405180910390a3600383015460058401546000916124989161559c565b905080828960008051602061597383398151915260405160405180910390a46001945050505050610e7d600160ca55565b60006124d3614385565b6001600160a01b0384166000908152610103602052604090205460ff166125345760405162461bcd60e51b81526020600482015260156024820152741d1bdad95b881b9bdd081dda1a5d195b1a5cdd1959605a1b6044820152606401610ee6565b60408051600481526024810182526020810180516001600160e01b031663313ce56760e01b17905290516000916001600160a01b038716916125769190615698565b600060405180830381855afa9150503d80600081146125b1576040519150601f19603f3d011682016040523d82523d6000602084013e6125b6565b606091505b509150506000818060200190518101906125d091906156b4565b90506125da614e9c565b80516001600160a01b03808916909152815160ff8085166020928301528351898416606091820152845160809081018a90528551600060a091820181905287516040908101829052885160c001829052885161010001829052885160e00182905280890180518390528051880183905280518201839052518501829052838901829052918801819052610101805460018101825591528751805160119092027f109ea3cebb188b9c1b9fc5bb3920be60dfdc8699098dff92f3d80daaca74768981018054988301519483015161ffff16600160a81b0261ffff60a81b1995909816600160a01b026001600160a81b0319909916938a16939093179790971792909216949094178455918201517f109ea3cebb188b9c1b9fc5bb3920be60dfdc8699098dff92f3d80daaca74768a85018054919096166001600160a01b03199190911617909455928301518493919283917f109ea3cebb188b9c1b9fc5bb3920be60dfdc8699098dff92f3d80daaca74768b909101906127599082615725565b5060a0820151600382015560c0820151600482015560e0820151600582015561010090910151600690910155602082810151805160078401558082015160088401556040908101516009840155808401518051600a85015580830151600b85015590810151600c840155606090810151600d8401805460ff191691151591909117905583015180516127f192600e8501920190614f68565b506080820151600f8201805460ff191691151591909117905560a09091015160109091015561010154612826906001906155fe565b979650505050505050565b600054610100900460ff16158080156128515750600054600160ff909116105b8061286b5750303b15801561286b575060005460ff166001145b6128ce5760405162461bcd60e51b815260206004820152602e60248201527f496e697469616c697a61626c653a20636f6e747261637420697320616c72656160448201526d191e481a5b9a5d1a585b1a5e995960921b6064820152608401610ee6565b6000805460ff1916600117905580156128f1576000805461ff0019166101001790555b6128f9614900565b8015610f83576000805461ff0019169055604051600181527f7f26b83ff96e1f2b6a682f133852f6798a09c465da95921460cefb38474024989060200160405180910390a150565b6000806101018381548110612958576129586155af565b60009182526020909120604080516101e0810190915260119092020180546001600160a01b0380821660c08501908152600160a01b830460ff1660e0860152600160a81b90920461ffff166101008501526001830154166101208401526002820180548492918491610140850191906129d0906154b4565b80601f01602080910402602001604051908101604052809291908181526020018280546129fc906154b4565b8015612a495780601f10612a1e57610100808354040283529160200191612a49565b820191906000526020600020905b815481529060010190602001808311612a2c57829003601f168201915b505050918352505060038201546020808301919091526004830154604080840191909152600584015460608085019190915260069094015460809384015293855283518084018552600787015481526008870154818301526009870154818601528582015283519182018452600a8601548252600b86015482820152600c86015482850152600d86015460ff1615158284015284840191909152600e85018054845181840281018401909552808552949092019390830182828015612b3757602002820191906000526020600020905b81546001600160a01b03168152600190910190602001808311612b19575b5050509183525050600f82015460ff16151560208201526010909101546040909101529050612710612b6b6103e8826155fe565b825160a081015160e090910151612b82919061559c565b612b8c91906155c5565b610e7d91906155dc565b6000670eb5e06245ea0000612bb3670de0b6b3a7640000856155c5565b612bbd91906155dc565b600092835260fd6020526040909220919091555050565b6000610e7d82846148f4565b60008281526101026020908152604080832033845290915281208054831115612c4b5760405162461bcd60e51b815260206004820152601a60248201527f416d6f756e7420626967676572207468616e206465706f7369740000000000006044820152606401610ee6565b612c5862093a804261559c565b6003820155612c6a62093a804261559c565b612c77906203f48061559c565b600482015560058101839055604051839085907fb3b9c925de3673837b40c6b4d4463a8f88dc821cd27e07f1ff6bf6abf96413a590600090a35060019392505050565b606060cf8054610c14906154b4565b600080612cd58161492f565b91505090565b6000806101018481548110612cf257612cf26155af565b6000918252602090912060119091020160018101549091506001600160a01b03163314612d315760405162461bcd60e51b8152600401610ee690615611565b600a81015442118015612d475750600b81015442105b8015612d585750600d81015460ff16155b8015612d685750600c8101548311155b8015612d775750600a81015415155b612d935760405162461bcd60e51b8152600401610ee690615639565b600d8101805460ff1916600117905560038101546005820154600091612db89161559c565b905083826000016003016000828254612dd191906155fe565b909155505060018201548254612df4916001600160a01b039182169116866147f2565b5060038201546005830154600091612e0b9161559c565b905080828760008051602061597383398151915260405160405180910390a450600195945050505050565b6101048181548110612e4757600080fd5b6000918252602090912001546001600160a01b0316905081565b6000806101018381548110612e7857612e786155af565b60009182526020909120604080516101e0810190915260119092020180546001600160a01b0380821660c08501908152600160a01b830460ff1660e0860152600160a81b90920461ffff16610100850152600183015416610120840152600282018054849291849161014085019190612ef0906154b4565b80601f0160208091040260200160405190810160405280929190818152602001828054612f1c906154b4565b8015612f695780601f10612f3e57610100808354040283529160200191612f69565b820191906000526020600020905b815481529060010190602001808311612f4c57829003601f168201915b505050918352505060038201546020808301919091526004830154604080840191909152600584015460608085019190915260069094015460809384015293855283518084018552600787015481526008870154818301526009870154818601528582015283519182018452600a8601548252600b86015482820152600c86015482850152600d86015460ff1615158284015284840191909152600e8501805484518184028101840190955280855294909201939083018282801561305757602002820191906000526020600020905b81546001600160a01b03168152600190910190602001808311613039575b5050509183525050600f82015460ff16151560208201526010909101546040918201529051015161ffff169392505050565b600033816130978286613c13565b9050838110156130f75760405162461bcd60e51b815260206004820152602560248201527f45524332303a2064656372656173656420616c6c6f77616e63652062656c6f77604482015264207a65726f60d81b6064820152608401610ee6565b613104828686840361403c565b506001949350505050565b6000828152610102602090815260408083206001600160a01b038516845290915281208054919081908190613144878761169e565b5060058301546003909301549699909850919650909350505050565b600033610ca58185856141da565b6000806000806101018581548110613188576131886155af565b60009182526020909120604080516101e0810190915260119092020180546001600160a01b0380821660c08501908152600160a01b830460ff1660e0860152600160a81b90920461ffff16610100850152600183015416610120840152600282018054849291849161014085019190613200906154b4565b80601f016020809104026020016040519081016040528092919081815260200182805461322c906154b4565b80156132795780601f1061324e57610100808354040283529160200191613279565b820191906000526020600020905b81548152906001019060200180831161325c57829003601f168201915b505050918352505060038201546020808301919091526004830154604080840191909152600584015460608085019190915260069094015460809384015293855283518084018552600787015481526008870154818301526009870154818601528582015283519182018452600a8601548252600b86015482820152600c86015482850152600d86015460ff1615158284015284840191909152600e8501805484518184028101840190955280855294909201939083018282801561336757602002820191906000526020600020905b81546001600160a01b03168152600190910190602001808311613349575b5050509183525050600f82015460ff161515602080830191909152601090920154604091820152918201518051918101519201519097919650945092505050565b60008060008061010185815481106133c2576133c26155af565b60009182526020909120604080516101e0810190915260119092020180546001600160a01b0380821660c08501908152600160a01b830460ff1660e0860152600160a81b90920461ffff1661010085015260018301541661012084015260028201805484929184916101408501919061343a906154b4565b80601f0160208091040260200160405190810160405280929190818152602001828054613466906154b4565b80156134b35780601f10613488576101008083540402835291602001916134b3565b820191906000526020600020905b81548152906001019060200180831161349657829003601f168201915b505050918352505060038201546020808301919091526004830154604080840191909152600584015460608085019190915260069094015460809384015293855283518084018552600787015481526008870154818301526009870154818601528582015283519182018452600a8601548252600b86015482820152600c86015482850152600d86015460ff1615158284015284840191909152600e850180548451818402810184019095528085529490920193908301828280156135a157602002820191906000526020600020905b81546001600160a01b03168152600190910190602001808311613583575b5050509183525050600f82015460ff161515602080830191909152601090920154604091820152918101518051918101519201519097919650945092505050565b6034546001600160a01b0316331461364b5760405162461bcd60e51b815260206004820152602660248201527f6f6e6c792070656e64696e67206f776e65722063616e2061636365707420747260448201526530b739b332b960d11b6064820152608401610ee6565b603454613660906001600160a01b031661498f565b565b6000806101018381548110613679576136796155af565b6000918252602090912060119091020160018101549091506001600160a01b03163314806136b157506033546001600160a01b031633145b6136cd5760405162461bcd60e51b8152600401610ee690615611565b600f8101805460ff1916905542601090910155506001919050565b600061010185815481106136fe576136fe6155af565b60009182526020909120601190910201600f81015490915060ff1615801561372857506004810154155b6137745760405162461bcd60e51b815260206004820152601860248201527f506f6f6c20616c726561647920696e697469616c697a656400000000000000006044820152606401610ee6565b60008361ffff1611801561378e57506127108361ffff1611155b6137cd5760405162461bcd60e51b815260206004820152601060248201526f415059206f7574206f662072616e676560801b6044820152606401610ee6565b80546137e490600160a01b900460ff16600a6158c9565b6137ef9060646155c5565b84101580156138215750805461381090600160a01b900460ff16600a6158c9565b61381d90629896806155c5565b8411155b6138655760405162461bcd60e51b8152602060048201526015602482015274506f6f6c20636170206f7574206f662072616e676560581b6044820152606401610ee6565b60018101546001600160a01b031633146138915760405162461bcd60e51b8152600401610ee690615611565b60006301e1338061271062093a806138ad61ffff8816896155c5565b6138b791906155c5565b6138c191906155dc565b6138cb91906155dc565b905060006127106138de6103e8846155c5565b6138e891906155dc565b905061390c33306138f9858861559c565b86546001600160a01b0316929190614858565b5083836000016003016000828254613924919061559c565b909155505060048301869055825461ffff60a81b1916600160a81b61ffff871602178355600f8301805460ff19166001179055600883018290556007830182905561396f81836155fe565b600990930192909255505050505050565b600061398a614385565b6001600160a01b0383166000908152610100602090815260408083205460ff9092528220546139b9919061559c565b6001600160a01b038516600081815260ff602090815260408083208390556101009091528120559091506131049084836147f2565b6000806101018381548110613a0557613a056155af565b60009182526020909120604080516101e0810190915260119092020180546001600160a01b0380821660c08501908152600160a01b830460ff1660e0860152600160a81b90920461ffff16610100850152600183015416610120840152600282018054849291849161014085019190613a7d906154b4565b80601f0160208091040260200160405190810160405280929190818152602001828054613aa9906154b4565b8015613af65780601f10613acb57610100808354040283529160200191613af6565b820191906000526020600020905b815481529060010190602001808311613ad957829003601f168201915b505050918352505060038201546020808301919091526004830154604080840191909152600584015460608085019190915260069094015460809384015293855283518084018552600787015481526008870154818301526009870154818601528582015283519182018452600a8601548252600b86015482820152600c86015482850152600d86015460ff1615158284015284840191909152600e85018054845181840281018401909552808552949092019390830182828015613be457602002820191906000526020600020905b81546001600160a01b03168152600190910190602001808311613bc6575b5050509183525050600f82015460ff16151560208201526010909101546040909101525160e001519392505050565b6001600160a01b03918216600090815260cc6020908152604080832093909416825291909152205490565b600081815260fe60205260408120548190613c61670de0b6b3a7640000866155c5565b613c6b91906155dc565b9050613c788160056155c5565b91509250929050565b6000613c8b614385565b6001600160a01b0383166000908152610103602052604090205460ff161515821514613cf15760405162461bcd60e51b81526020600482015260156024820152741dda1a5d195b1a5cdd08185b1c9958591e481cd95d605a1b6044820152606401610ee6565b6001600160a01b03831660008181526101036020526040808220805460ff191686151590811790915590519092917f99795d51e5a8804307721456a7a9c2f0d7421f719d46a46d36e91fee7c85aa7691a38115613d995761010480546001810182556000919091527f4c0be60200faa20559308cb7b5a1bb3255c16cb1cab91f525b5ae7a03d02fabe0180546001600160a01b0319166001600160a01b038516179055613ead565b6101045460005b81811015613eaa5760006101048281548110613dbe57613dbe6155af565b6000918252602090912001546001600160a01b03908116915086168103613e9957610104613ded6001856155fe565b81548110613dfd57613dfd6155af565b60009182526020909120015461010480546001600160a01b039092169184908110613e2a57613e2a6155af565b9060005260206000200160006101000a8154816001600160a01b0302191690836001600160a01b03160217905550610104805480613e6a57613e6a615682565b600082815260209020810160001990810180546001600160a01b03191690550190555060019250610cab915050565b50613ea3816158d8565b9050613da0565b50505b50600192915050565b6000613ec0614385565b6101045460005b81811015613f765760006101048281548110613ee557613ee56155af565b60009182526020808320909101546001600160a01b0316808352610100825260408084205460ff909352832054909350613f1f919061559c565b905080600003613f30575050613f66565b6001600160a01b038216600081815260ff60209081526040808320839055610100909152812055613f629087836147f2565b5050505b613f6f816158d8565b9050613ec7565b5060019392505050565b613f88614385565b6001600160a01b038116613fed5760405162461bcd60e51b815260206004820152602660248201527f4f776e61626c653a206e6577206f776e657220697320746865207a65726f206160448201526564647265737360d01b6064820152608401610ee6565b603480546001600160a01b0319166001600160a01b0392909216919091179055565b61401761489b565b6140238133600161468f565b610f83600160ca55565b6001600160a01b03163b151590565b6001600160a01b03831661409e5760405162461bcd60e51b8152602060048201526024808201527f45524332303a20617070726f76652066726f6d20746865207a65726f206164646044820152637265737360e01b6064820152608401610ee6565b6001600160a01b0382166140ff5760405162461bcd60e51b815260206004820152602260248201527f45524332303a20617070726f766520746f20746865207a65726f206164647265604482015261737360f01b6064820152608401610ee6565b6001600160a01b03838116600081815260cc602090815260408083209487168084529482529182902085905590518481527f8c5be1e5ebec7d5bd14f71427d1e84f3dd0314c0f7b2291e5b200ac8c7c3b925910160405180910390a3505050565b600061416c8484613c13565b905060001981146141d457818110156141c75760405162461bcd60e51b815260206004820152601d60248201527f45524332303a20696e73756666696369656e7420616c6c6f77616e63650000006044820152606401610ee6565b6141d4848484840361403c565b50505050565b6001600160a01b03831661423e5760405162461bcd60e51b815260206004820152602560248201527f45524332303a207472616e736665722066726f6d20746865207a65726f206164604482015264647265737360d81b6064820152608401610ee6565b6001600160a01b0382166142a05760405162461bcd60e51b815260206004820152602360248201527f45524332303a207472616e7366657220746f20746865207a65726f206164647260448201526265737360e81b6064820152608401610ee6565b6001600160a01b038316600090815260cb6020526040902054818110156143185760405162461bcd60e51b815260206004820152602660248201527f45524332303a207472616e7366657220616d6f756e7420657863656564732062604482015265616c616e636560d01b6064820152608401610ee6565b6001600160a01b03808516600081815260cb602052604080822086860390559286168082529083902080548601905591517fddf252ad1be2c89b69c2b068fc378daa952ba7f163c4a11628f55a4df523b3ef906143789086815260200190565b60405180910390a36141d4565b6033546001600160a01b031633146136605760405162461bcd60e51b815260206004820181905260248201527f4f776e61626c653a2063616c6c6572206973206e6f7420746865206f776e65726044820152606401610ee6565b600061010183815481106143f5576143f56155af565b906000526020600020906011020190506000828260070160010154836007016000015461442291906155fe565b61442c919061559c565b6001830154835491925061444e916001600160a01b0390811691163084614858565b5060006127106144606103e8846155c5565b61446a91906155dc565b905081836007016001016000828254614483919061559c565b909155505082546001600160a01b031660009081526101006020526040812080548392906144b290849061559c565b90915550600090506144c482846155fe565b9050808460070160020160008282546144dd919061559c565b9091555050604051839087907fadb049ad2d09be3db90459a16aef1ad0a4d89e8fdcc1ade9429d6cc55abbcd2b90600090a3505050505050565b610f83614385565b7f4910fdfa16fed3260ed0e7147f7cc6da11a60208b5b9406d12a635614ffd91435460ff161561455757614552836149ec565b505050565b826001600160a01b03166352d1902d6040518163ffffffff1660e01b8152600401602060405180830381865afa9250505080156145b1575060408051601f3d908101601f191682019092526145ae918101906158f1565b60015b6146145760405162461bcd60e51b815260206004820152602e60248201527f45524331393637557067726164653a206e657720696d706c656d656e7461746960448201526d6f6e206973206e6f74205555505360901b6064820152608401610ee6565b60008051602061599383398151915281146146835760405162461bcd60e51b815260206004820152602960248201527f45524331393637557067726164653a20756e737570706f727465642070726f786044820152681a58589b195555525160ba1b6064820152608401610ee6565b50614552838383614a88565b600061010184815481106146a5576146a56155af565b60009182526020808320878452610102825260408085206001600160a01b038916865290925292208054601190920290920192501580156146e857506001810154155b156146fa574260029091015550505050565b6000806000614709888861169e565b925092509250856147575780846001016000828254614728919061559c565b9091555050601085015460000361473f5742614745565b84601001545b84600201819055505050505050505050565b600885015483111561476d5761476d88846143df565b82156147e8576000600185018190556010860154900361478d5742614793565b84601001545b60028501556008850180548491906000906147af9084906155fe565b90915550506009850180548391906000906147cb9084906155fe565b909155505084546147e6906001600160a01b031688846147f2565b505b5050505050505050565b6040516001600160a01b038316602482015260448101829052600090613f7690859063a9059cbb60e01b906064015b60408051601f198184030181529190526020810180516001600160e01b03166001600160e01b031990931692909217909152614aad565b6040516001600160a01b03808516602483015283166044820152606481018290526000906131049086906323b872dd60e01b90608401614821565b949350505050565b600260ca54036148ed5760405162461bcd60e51b815260206004820152601f60248201527f5265656e7472616e637947756172643a207265656e7472616e742063616c6c006044820152606401610ee6565b600260ca55565b6000610e7d82846155fe565b600054610100900460ff166149275760405162461bcd60e51b8152600401610ee69061590a565b613660614b7f565b600080670de0b6b3a764000061494d84670928ca80cfc200006155c5565b61495791906155dc565b6149699067016345785d8a000061559c565b90506000614986826ec097ce7bc90715b34b9f10000000006155dc565b90505050919050565b603380546001600160a01b038381166001600160a01b03198084168217909455603480549094169093556040519116919082907f8be0079c531659141344cd1fd0a4f28419497f9722a3daafe3b4186f6b6457e090600090a35050565b6001600160a01b0381163b614a595760405162461bcd60e51b815260206004820152602d60248201527f455243313936373a206e657720696d706c656d656e746174696f6e206973206e60448201526c1bdd08184818dbdb9d1c9858dd609a1b6064820152608401610ee6565b60008051602061599383398151915280546001600160a01b0319166001600160a01b0392909216919091179055565b614a9183614baf565b600082511180614a9e5750805b15614552576141d48383614bef565b6000614b02826040518060400160405280602081526020017f5361666545524332303a206c6f772d6c6576656c2063616c6c206661696c6564815250856001600160a01b0316614ce39092919063ffffffff16565b8051909150156145525780806020019051810190614b209190615955565b6145525760405162461bcd60e51b815260206004820152602a60248201527f5361666545524332303a204552433230206f7065726174696f6e20646964206e6044820152691bdd081cdd58d8d9595960b21b6064820152608401610ee6565b600054610100900460ff16614ba65760405162461bcd60e51b8152600401610ee69061590a565b6136603361498f565b614bb8816149ec565b6040516001600160a01b038216907fbc7cd75a20ee27fd9adebab32041f755214dbc6bffa90cc0225b39da2e5c2d3b90600090a250565b60606001600160a01b0383163b614c575760405162461bcd60e51b815260206004820152602660248201527f416464726573733a2064656c65676174652063616c6c20746f206e6f6e2d636f6044820152651b9d1c9858dd60d21b6064820152608401610ee6565b600080846001600160a01b031684604051614c729190615698565b600060405180830381855af49150503d8060008114614cad576040519150601f19603f3d011682016040523d82523d6000602084013e614cb2565b606091505b5091509150614cda82826040518060600160405280602781526020016159b360279139614cf2565b95945050505050565b60606148938484600085614d0b565b60608315614d01575081610e7d565b610e7d8383614ddb565b606082471015614d6c5760405162461bcd60e51b815260206004820152602660248201527f416464726573733a20696e73756666696369656e742062616c616e636520666f6044820152651c8818d85b1b60d21b6064820152608401610ee6565b600080866001600160a01b03168587604051614d889190615698565b60006040518083038185875af1925050503d8060008114614dc5576040519150601f19603f3d011682016040523d82523d6000602084013e614dca565b606091505b509150915061282687838387614e05565b815115614deb5781518083602001fd5b8060405162461bcd60e51b8152600401610ee69190615032565b60608315614e74578251600003614e6d576001600160a01b0385163b614e6d5760405162461bcd60e51b815260206004820152601d60248201527f416464726573733a2063616c6c20746f206e6f6e2d636f6e74726163740000006044820152606401610ee6565b5081614893565b6148938383614ddb565b5080546000825590600052602060002090810190610f839190614fcd565b604080516101e08101909152600060c0820181815260e08301829052610100830182905261012083018290526060610140840152610160830182905261018083018290526101a083018290526101c083019190915281908152602001614f1c60405180606001604052806000815260200160008152602001600081525090565b8152602001614f4e60405180608001604052806000815260200160008152602001600081526020016000151581525090565b815260606020820181905260006040830181905291015290565b828054828255906000526020600020908101928215614fbd579160200282015b82811115614fbd57825182546001600160a01b0319166001600160a01b03909116178255602090920191600190910190614f88565b50614fc9929150614fcd565b5090565b5b80821115614fc95760008155600101614fce565b60005b83811015614ffd578181015183820152602001614fe5565b50506000910152565b6000815180845261501e816020860160208601614fe2565b601f01601f19169290920160200192915050565b602081526000610e7d6020830184615006565b80356001600160a01b0381168114610e9957600080fd5b6000806040838503121561506f57600080fd5b61507883615045565b946020939093013593505050565b60006020828403121561509857600080fd5b5035919050565b60006101408083526150bc81840189516001600160a01b03169052565b50602087015160ff16610160830152604087015161ffff1661018083015260608701516001600160a01b03166101a083015260808701516101206101c0840181905261510c610260850183615006565b915060a08901516101e085015260c089015161020085015260e0890151610220850152610100808a0151610240860152829350615160602086018a8051825260208082015190830152604090810151910152565b87516080860152602088015160a0860152604088015160c0860152606090970151151560e0850152941515958301959095529201529392505050565b6000806000606084860312156151b157600080fd5b6151ba84615045565b92506151c860208501615045565b9150604084013590509250925092565b6000602082840312156151ea57600080fd5b610e7d82615045565b60008060006060848603121561520857600080fd5b833592506151c860208501615045565b6000806040838503121561522b57600080fd5b8235915061523b60208401615045565b90509250929050565b634e487b7160e01b600052604160045260246000fd5b600067ffffffffffffffff8084111561527557615275615244565b604051601f8501601f19908116603f0116810190828211818310171561529d5761529d615244565b816040528093508581528686860111156152b657600080fd5b858560208301376000602087830101525050509392505050565b600080604083850312156152e357600080fd5b6152ec83615045565b9150602083013567ffffffffffffffff81111561530857600080fd5b8301601f8101851361531957600080fd5b6153288582356020840161525a565b9150509250929050565b6000806040838503121561534557600080fd5b50508035926020909101359150565b8015158114610f8357600080fd5b60008060006060848603121561537757600080fd5b8335925060208401359150604084013561539081615354565b809150509250925092565b6000806000606084860312156153b057600080fd5b6153b984615045565b92506153c760208501615045565b9150604084013567ffffffffffffffff8111156153e357600080fd5b8401601f810186136153f457600080fd5b6154038682356020840161525a565b9150509250925092565b6000806000806080858703121561542357600080fd5b8435935060208501359250604085013561ffff8116811461544357600080fd5b9396929550929360600135925050565b6000806040838503121561546657600080fd5b61546f83615045565b915061523b60208401615045565b6000806040838503121561549057600080fd5b61549983615045565b915060208301356154a981615354565b809150509250929050565b600181811c908216806154c857607f821691505b6020821081036154e857634e487b7160e01b600052602260045260246000fd5b50919050565b6020808252602c908201527f46756e6374696f6e206d7573742062652063616c6c6564207468726f7567682060408201526b19195b1959d85d1958d85b1b60a21b606082015260800190565b6020808252602c908201527f46756e6374696f6e206d7573742062652063616c6c6564207468726f7567682060408201526b6163746976652070726f787960a01b606082015260800190565b634e487b7160e01b600052601160045260246000fd5b80820180821115610cab57610cab615586565b634e487b7160e01b600052603260045260246000fd5b8082028115828204841417610cab57610cab615586565b6000826155f957634e487b7160e01b600052601260045260246000fd5b500490565b81810381811115610cab57610cab615586565b6020808252600e908201526d139bdd08185d5d1a1bdc9a5e995960921b604082015260600190565b60208082526029908201527f54696d656c6f636b206e6f7420736574206f72206e6f7420636f6d706c6574656040820152686420696e2074696d6560b81b606082015260800190565b634e487b7160e01b600052603160045260246000fd5b600082516156aa818460208701614fe2565b9190910192915050565b6000602082840312156156c657600080fd5b815160ff81168114610e7d57600080fd5b601f82111561455257600081815260208120601f850160051c810160208610156156fe5750805b601f850160051c820191505b8181101561571d5782815560010161570a565b505050505050565b815167ffffffffffffffff81111561573f5761573f615244565b6157538161574d84546154b4565b846156d7565b602080601f83116001811461578857600084156157705750858301515b600019600386901b1c1916600185901b17855561571d565b600085815260208120601f198616915b828110156157b757888601518255948401946001909101908401615798565b50858210156157d55787850151600019600388901b60f8161c191681555b5050505050600190811b01905550565b600181815b8085111561582057816000190482111561580657615806615586565b8085161561581357918102915b93841c93908002906157ea565b509250929050565b60008261583757506001610cab565b8161584457506000610cab565b816001811461585a576002811461586457615880565b6001915050610cab565b60ff84111561587557615875615586565b50506001821b610cab565b5060208310610133831016604e8410600b84101617156158a3575081810a610cab565b6158ad83836157e5565b80600019048211156158c1576158c1615586565b029392505050565b6000610e7d60ff841683615828565b6000600182016158ea576158ea615586565b5060010190565b60006020828403121561590357600080fd5b5051919050565b6020808252602b908201527f496e697469616c697a61626c653a20636f6e7472616374206973206e6f74206960408201526a6e697469616c697a696e6760a81b606082015260800190565b60006020828403121561596757600080fd5b8151610e7d8161535456fea3ea4fb8dee4d414198cb197af6eae4fe483c1a0b849dc50e53b9bf1a60e2166360894a13ba1a3210667c828492db98dca3e2076cc3735a920a3ca505d382bbc416464726573733a206c6f772d6c6576656c2064656c65676174652063616c6c206661696c6564a26469706673582212208c04da30eac6cd0009186706fb46bc8f3dcd61d969d002598d0601ba7e3300bb64736f6c63430008110033496e697469616c697a61626c653a20636f6e7472616374206973206e6f742069",
    "linkReferences": {}
  },
  "methodIdentifiers": {
    "M(uint256)": "d6c85529",
    "acceptOwnershipTransfer()": "b842e87f",
    "activeTokens(uint256)": "9f224f35",
    "addNewBountyPool(address,address,string)": "804fd590",
    "allowance(address,address)": "dd62ed3e",
    "approve(address,uint256)": "095ea7b3",
    "balanceOf(address)": "70a08231",
    "billPremium(uint256)": "2dbe051e",
    "calculateMultiplier(uint256,uint256)": "86ae0143",
    "claimPremium(uint256)": "f47ec3be",
    "collectAllSaloonProfits(address)": "ecd7fbed",
    "collectSaloonProfits(address,address)": "cf9564b9",
    "convertStakeToPoolMeasurements(uint256,uint256)": "de1b75ec",
    "decimals()": "313ce567",
    "decreaseAllowance(address,uint256)": "a457c2d7",
    "getCurrentAPY()": "962ca496",
    "getMultiplier(uint256,uint256)": "8dbb1e3a",
    "increaseAllowance(address,uint256)": "39509351",
    "initialize()": "8129fc1c",
    "makeProjectDeposit(uint256,uint256)": "57a86d3a",
    "name()": "06fdde03",
    "owner()": "8da5cb5b",
    "payBounty(uint256,address,uint256)": "3ac6ad7b",
    "pendingToken(uint256,address)": "48e43af4",
    "poolInfo(uint256)": "1526fe27",
    "poolLength()": "081e3eda",
    "poolSize(uint256)": "dd034779",
    "projectDepositWithdrawal(uint256,uint256)": "983c1ce0",
    "proxiableUUID()": "52d1902d",
    "saloonBountyProfit(address)": "e45abd0f",
    "saloonPremiumProfit(address)": "ca006148",
    "scheduleProjectDepositWithdrawal(uint256,uint256)": "5669cbef",
    "scheduleUnstake(uint256,uint256)": "91635b4e",
    "seeEffectiveStakingAPY()": "fceb3d76",
    "setAPYandPoolCapAndDeposit(uint256,uint256,uint16,uint256)": "cee6b069",
    "stake(uint256,address,uint256)": "6e9c931c",
    "symbol()": "95d89b41",
    "tokenWhitelist(address)": "753d7563",
    "totalSupply()": "18160ddd",
    "transfer(address,uint256)": "a9059cbb",
    "transferFrom(address,address,uint256)": "23b872dd",
    "transferOwnership(address)": "f2fde38b",
    "unstake(uint256,uint256,bool)": "79b91d69",
    "updateTokenWhitelist(address,bool)": "e5e97c65",
    "upgradeTo(address)": "3659cfe6",
    "upgradeToAndCall(address,bytes)": "4f1ef286",
    "userInfo(uint256,address)": "93f1a40b",
    "viewBountyBalance(uint256)": "6ac6d812",
    "viewBountyInfo(uint256)": "40ef2868",
    "viewHackerPayout(uint256)": "861e5f66",
    "viewPoolAPY(uint256)": "a27f9213",
    "viewPoolCap(uint256)": "39679ff4",
    "viewPoolPremiumInfo(uint256)": "b1a2d16f",
    "viewPoolTimelockInfo(uint256)": "ac30b856",
    "viewSaloonProfitBalance(address)": "718c7eef",
    "viewTotalStaked(uint256)": "dbdd6957",
    "viewUserInfo(uint256,address)": "a754ecb0",
    "viewUserUnclaimed(uint256,address)": "5e3b748b",
    "windDownBounty(uint256)": "bb7019c1"
  },
  "id": 38
}