{
  "abi": [
    {
      "anonymous": false,
      "inputs": [
        {
          "indexed": false,
          "internalType": "address",
          "name": "previousAdmin",
          "type": "address"
        },
        {
          "indexed": false,
          "internalType": "address",
          "name": "newAdmin",
          "type": "address"
        }
      ],
      "name": "AdminChanged",
      "type": "event"
    },
    {
      "anonymous": false,
      "inputs": [
        {
          "indexed": true,
          "internalType": "address",
          "name": "beacon",
          "type": "address"
        }
      ],
      "name": "BeaconUpgraded",
      "type": "event"
    },
    {
      "anonymous": false,
      "inputs": [
        {
          "indexed": false,
          "internalType": "uint8",
          "name": "version",
          "type": "uint8"
        }
      ],
      "name": "Initialized",
      "type": "event"
    },
    {
      "anonymous": false,
      "inputs": [
        {
          "indexed": true,
          "internalType": "address",
          "name": "previousOwner",
          "type": "address"
        },
        {
          "indexed": true,
          "internalType": "address",
          "name": "newOwner",
          "type": "address"
        }
      ],
      "name": "OwnershipTransferred",
      "type": "event"
    },
    {
      "anonymous": false,
      "inputs": [
        {
          "indexed": true,
          "internalType": "address",
          "name": "user",
          "type": "address"
        },
        {
          "indexed": true,
          "internalType": "uint256",
          "name": "pid",
          "type": "uint256"
        },
        {
          "indexed": false,
          "internalType": "uint256",
          "name": "amount",
          "type": "uint256"
        }
      ],
      "name": "Staked",
      "type": "event"
    },
    {
      "anonymous": false,
      "inputs": [
        {
          "indexed": true,
          "internalType": "address",
          "name": "user",
          "type": "address"
        },
        {
          "indexed": true,
          "internalType": "uint256",
          "name": "pid",
          "type": "uint256"
        },
        {
          "indexed": false,
          "internalType": "uint256",
          "name": "amount",
          "type": "uint256"
        }
      ],
      "name": "Unstaked",
      "type": "event"
    },
    {
      "anonymous": false,
      "inputs": [
        {
          "indexed": true,
          "internalType": "address",
          "name": "implementation",
          "type": "address"
        }
      ],
      "name": "Upgraded",
      "type": "event"
    },
    {
      "anonymous": false,
      "inputs": [
        {
          "indexed": true,
          "internalType": "address",
          "name": "token",
          "type": "address"
        },
        {
          "indexed": true,
          "internalType": "bool",
          "name": "whitelisted",
          "type": "bool"
        }
      ],
      "name": "tokenWhitelistUpdated",
      "type": "event"
    },
    {
      "inputs": [
        {
          "internalType": "uint256",
          "name": "",
          "type": "uint256"
        }
      ],
      "name": "activeTokens",
      "outputs": [
        {
          "internalType": "address",
          "name": "",
          "type": "address"
        }
      ],
      "stateMutability": "view",
      "type": "function"
    },
    {
      "inputs": [
        {
          "internalType": "address",
          "name": "_token",
          "type": "address"
        },
        {
          "internalType": "uint8",
          "name": "_tokenDecimals",
          "type": "uint8"
        },
        {
          "internalType": "address",
          "name": "_projectWallet",
          "type": "address"
        }
      ],
      "name": "addNewBountyPool",
      "outputs": [
        {
          "internalType": "uint256",
          "name": "",
          "type": "uint256"
        }
      ],
      "stateMutability": "nonpayable",
      "type": "function"
    },
    {
      "inputs": [
        {
          "internalType": "uint256",
          "name": "_pid",
          "type": "uint256"
        }
      ],
      "name": "billPremium",
      "outputs": [
        {
          "internalType": "bool",
          "name": "",
          "type": "bool"
        }
      ],
      "stateMutability": "nonpayable",
      "type": "function"
    },
    {
      "inputs": [
        {
          "internalType": "uint256",
          "name": "_pid",
          "type": "uint256"
        }
      ],
      "name": "claimPremium",
      "outputs": [],
      "stateMutability": "nonpayable",
      "type": "function"
    },
    {
      "inputs": [
        {
          "internalType": "address",
          "name": "_saloonWallet",
          "type": "address"
        }
      ],
      "name": "collectAllSaloonProfits",
      "outputs": [
        {
          "internalType": "bool",
          "name": "",
          "type": "bool"
        }
      ],
      "stateMutability": "nonpayable",
      "type": "function"
    },
    {
      "inputs": [
        {
          "internalType": "address",
          "name": "_token",
          "type": "address"
        },
        {
          "internalType": "address",
          "name": "_saloonWallet",
          "type": "address"
        }
      ],
      "name": "collectSaloonProfits",
      "outputs": [
        {
          "internalType": "bool",
          "name": "",
          "type": "bool"
        }
      ],
      "stateMutability": "nonpayable",
      "type": "function"
    },
    {
      "inputs": [
        {
          "internalType": "uint256",
          "name": "_from",
          "type": "uint256"
        },
        {
          "internalType": "uint256",
          "name": "_to",
          "type": "uint256"
        }
      ],
      "name": "getMultiplier",
      "outputs": [
        {
          "internalType": "uint256",
          "name": "",
          "type": "uint256"
        }
      ],
      "stateMutability": "pure",
      "type": "function"
    },
    {
      "inputs": [],
      "name": "initialize",
      "outputs": [],
      "stateMutability": "nonpayable",
      "type": "function"
    },
    {
      "inputs": [
        {
          "internalType": "uint256",
          "name": "_pid",
          "type": "uint256"
        },
        {
          "internalType": "uint256",
          "name": "_deposit",
          "type": "uint256"
        }
      ],
      "name": "makeProjectDeposit",
      "outputs": [],
      "stateMutability": "nonpayable",
      "type": "function"
    },
    {
      "inputs": [],
      "name": "owner",
      "outputs": [
        {
          "internalType": "address",
          "name": "",
          "type": "address"
        }
      ],
      "stateMutability": "view",
      "type": "function"
    },
    {
      "inputs": [
        {
          "internalType": "uint256",
          "name": "_pid",
          "type": "uint256"
        },
        {
          "internalType": "address",
          "name": "_hunter",
          "type": "address"
        },
        {
          "internalType": "uint256",
          "name": "_amount",
          "type": "uint256"
        }
      ],
      "name": "payBounty",
      "outputs": [
        {
          "internalType": "bool",
          "name": "",
          "type": "bool"
        }
      ],
      "stateMutability": "nonpayable",
      "type": "function"
    },
    {
      "inputs": [
        {
          "internalType": "uint256",
          "name": "_pid",
          "type": "uint256"
        },
        {
          "internalType": "address",
          "name": "_user",
          "type": "address"
        }
      ],
      "name": "pendingToken",
      "outputs": [
        {
          "internalType": "uint256",
          "name": "",
          "type": "uint256"
        }
      ],
      "stateMutability": "view",
      "type": "function"
    },
    {
      "inputs": [
        {
          "internalType": "uint256",
          "name": "",
          "type": "uint256"
        }
      ],
      "name": "poolInfo",
      "outputs": [
        {
          "internalType": "contract IERC20",
          "name": "token",
          "type": "address"
        },
        {
          "internalType": "bool",
          "name": "initialized",
          "type": "bool"
        },
        {
          "internalType": "uint8",
          "name": "tokenDecimals",
          "type": "uint8"
        },
        {
          "internalType": "uint16",
          "name": "apy",
          "type": "uint16"
        },
        {
          "internalType": "address",
          "name": "projectWallet",
          "type": "address"
        },
        {
          "internalType": "uint256",
          "name": "projectDeposit",
          "type": "uint256"
        },
        {
          "internalType": "uint256",
          "name": "poolCap",
          "type": "uint256"
        },
        {
          "internalType": "uint256",
          "name": "totalStaked",
          "type": "uint256"
        },
        {
          "internalType": "uint256",
          "name": "totalPending",
          "type": "uint256"
        },
        {
          "internalType": "uint256",
          "name": "requiredPremiumBalancePerPeriod",
          "type": "uint256"
        },
        {
          "internalType": "uint256",
          "name": "premiumBalance",
          "type": "uint256"
        },
        {
          "internalType": "uint256",
          "name": "premiumAvailable",
          "type": "uint256"
        },
        {
          "components": [
            {
              "internalType": "uint256",
              "name": "timelock",
              "type": "uint256"
            },
            {
              "internalType": "uint256",
              "name": "timeLimit",
              "type": "uint256"
            },
            {
              "internalType": "uint256",
              "name": "withdrawalScheduledAmount",
              "type": "uint256"
            },
            {
              "internalType": "bool",
              "name": "withdrawalExecuted",
              "type": "bool"
            }
          ],
          "internalType": "struct ISaloon.TimelockInfo",
          "name": "poolTimelock",
          "type": "tuple"
        }
      ],
      "stateMutability": "view",
      "type": "function"
    },
    {
      "inputs": [],
      "name": "poolLength",
      "outputs": [
        {
          "internalType": "uint256",
          "name": "",
          "type": "uint256"
        }
      ],
      "stateMutability": "view",
      "type": "function"
    },
    {
      "inputs": [
        {
          "internalType": "uint256",
          "name": "_pid",
          "type": "uint256"
        },
        {
          "internalType": "uint256",
          "name": "_amount",
          "type": "uint256"
        }
      ],
      "name": "projectDepositWithdrawal",
      "outputs": [
        {
          "internalType": "bool",
          "name": "",
          "type": "bool"
        }
      ],
      "stateMutability": "nonpayable",
      "type": "function"
    },
    {
      "inputs": [],
      "name": "proxiableUUID",
      "outputs": [
        {
          "internalType": "bytes32",
          "name": "",
          "type": "bytes32"
        }
      ],
      "stateMutability": "view",
      "type": "function"
    },
    {
      "inputs": [],
      "name": "renounceOwnership",
      "outputs": [],
      "stateMutability": "nonpayable",
      "type": "function"
    },
    {
      "inputs": [
        {
          "internalType": "address",
          "name": "",
          "type": "address"
        }
      ],
      "name": "saloonBountyProfit",
      "outputs": [
        {
          "internalType": "uint256",
          "name": "",
          "type": "uint256"
        }
      ],
      "stateMutability": "view",
      "type": "function"
    },
    {
      "inputs": [
        {
          "internalType": "address",
          "name": "",
          "type": "address"
        }
      ],
      "name": "saloonPremiumProfit",
      "outputs": [
        {
          "internalType": "uint256",
          "name": "",
          "type": "uint256"
        }
      ],
      "stateMutability": "view",
      "type": "function"
    },
    {
      "inputs": [
        {
          "internalType": "uint256",
          "name": "_pid",
          "type": "uint256"
        },
        {
          "internalType": "uint256",
          "name": "_amount",
          "type": "uint256"
        }
      ],
      "name": "scheduleProjectDepositWithdrawal",
      "outputs": [
        {
          "internalType": "bool",
          "name": "",
          "type": "bool"
        }
      ],
      "stateMutability": "nonpayable",
      "type": "function"
    },
    {
      "inputs": [
        {
          "internalType": "uint256",
          "name": "_pid",
          "type": "uint256"
        },
        {
          "internalType": "uint256",
          "name": "_amount",
          "type": "uint256"
        }
      ],
      "name": "scheduleUnstake",
      "outputs": [
        {
          "internalType": "bool",
          "name": "",
          "type": "bool"
        }
      ],
      "stateMutability": "nonpayable",
      "type": "function"
    },
    {
      "inputs": [
        {
          "internalType": "uint256",
          "name": "_pid",
          "type": "uint256"
        },
        {
          "internalType": "uint256",
          "name": "_poolCap",
          "type": "uint256"
        },
        {
          "internalType": "uint16",
          "name": "_apy",
          "type": "uint16"
        },
        {
          "internalType": "uint256",
          "name": "_deposit",
          "type": "uint256"
        }
      ],
      "name": "setAPYandPoolCapAndDeposit",
      "outputs": [],
      "stateMutability": "nonpayable",
      "type": "function"
    },
    {
      "inputs": [
        {
          "internalType": "uint256",
          "name": "_pid",
          "type": "uint256"
        },
        {
          "internalType": "address",
          "name": "_user",
          "type": "address"
        },
        {
          "internalType": "uint256",
          "name": "_amount",
          "type": "uint256"
        }
      ],
      "name": "stake",
      "outputs": [
        {
          "internalType": "bool",
          "name": "",
          "type": "bool"
        }
      ],
      "stateMutability": "nonpayable",
      "type": "function"
    },
    {
      "inputs": [
        {
          "internalType": "address",
          "name": "",
          "type": "address"
        }
      ],
      "name": "tokenWhitelist",
      "outputs": [
        {
          "internalType": "bool",
          "name": "",
          "type": "bool"
        }
      ],
      "stateMutability": "view",
      "type": "function"
    },
    {
      "inputs": [
        {
          "internalType": "address",
          "name": "newOwner",
          "type": "address"
        }
      ],
      "name": "transferOwnership",
      "outputs": [],
      "stateMutability": "nonpayable",
      "type": "function"
    },
    {
      "inputs": [
        {
          "internalType": "uint256",
          "name": "_pid",
          "type": "uint256"
        },
        {
          "internalType": "uint256",
          "name": "_amount",
          "type": "uint256"
        }
      ],
      "name": "unstake",
      "outputs": [
        {
          "internalType": "bool",
          "name": "",
          "type": "bool"
        }
      ],
      "stateMutability": "nonpayable",
      "type": "function"
    },
    {
      "inputs": [
        {
          "internalType": "address",
          "name": "_token",
          "type": "address"
        },
        {
          "internalType": "bool",
          "name": "_whitelisted",
          "type": "bool"
        }
      ],
      "name": "updateTokenWhitelist",
      "outputs": [
        {
          "internalType": "bool",
          "name": "",
          "type": "bool"
        }
      ],
      "stateMutability": "nonpayable",
      "type": "function"
    },
    {
      "inputs": [
        {
          "internalType": "address",
          "name": "newImplementation",
          "type": "address"
        }
      ],
      "name": "upgradeTo",
      "outputs": [],
      "stateMutability": "nonpayable",
      "type": "function"
    },
    {
      "inputs": [
        {
          "internalType": "address",
          "name": "newImplementation",
          "type": "address"
        },
        {
          "internalType": "bytes",
          "name": "data",
          "type": "bytes"
        }
      ],
      "name": "upgradeToAndCall",
      "outputs": [],
      "stateMutability": "payable",
      "type": "function"
    },
    {
      "inputs": [
        {
          "internalType": "uint256",
          "name": "",
          "type": "uint256"
        },
        {
          "internalType": "address",
          "name": "",
          "type": "address"
        }
      ],
      "name": "userInfo",
      "outputs": [
        {
          "internalType": "uint256",
          "name": "amount",
          "type": "uint256"
        },
        {
          "internalType": "uint256",
          "name": "unclaimed",
          "type": "uint256"
        },
        {
          "internalType": "uint256",
          "name": "lastRewardTime",
          "type": "uint256"
        },
        {
          "internalType": "uint256",
          "name": "timelock",
          "type": "uint256"
        },
        {
          "internalType": "uint256",
          "name": "timeLimit",
          "type": "uint256"
        },
        {
          "internalType": "uint256",
          "name": "unstakeScheduledAmount",
          "type": "uint256"
        },
        {
          "internalType": "bool",
          "name": "unstakeExecuted",
          "type": "bool"
        }
      ],
      "stateMutability": "view",
      "type": "function"
    },
    {
      "inputs": [
        {
          "internalType": "uint256",
          "name": "_pid",
          "type": "uint256"
        }
      ],
      "name": "viewBountyBalance",
      "outputs": [
        {
          "internalType": "uint256",
          "name": "",
          "type": "uint256"
        }
      ],
      "stateMutability": "view",
      "type": "function"
    },
    {
      "inputs": [
        {
          "internalType": "uint256",
          "name": "_pid",
          "type": "uint256"
        }
      ],
      "name": "viewBountyInfo",
      "outputs": [
        {
          "internalType": "uint256",
          "name": "payout",
          "type": "uint256"
        },
        {
          "internalType": "uint256",
          "name": "apy",
          "type": "uint256"
        },
        {
          "internalType": "uint256",
          "name": "staked",
          "type": "uint256"
        },
        {
          "internalType": "uint256",
          "name": "poolCap",
          "type": "uint256"
        }
      ],
      "stateMutability": "view",
      "type": "function"
    },
    {
      "inputs": [
        {
          "internalType": "uint256",
          "name": "_pid",
          "type": "uint256"
        }
      ],
      "name": "viewHackerPayout",
      "outputs": [
        {
          "internalType": "uint256",
          "name": "",
          "type": "uint256"
        }
      ],
      "stateMutability": "view",
      "type": "function"
    },
    {
      "inputs": [
        {
          "internalType": "uint256",
          "name": "_pid",
          "type": "uint256"
        }
      ],
      "name": "viewPoolAPY",
      "outputs": [
        {
          "internalType": "uint256",
          "name": "",
          "type": "uint256"
        }
      ],
      "stateMutability": "view",
      "type": "function"
    },
    {
      "inputs": [
        {
          "internalType": "uint256",
          "name": "_pid",
          "type": "uint256"
        }
      ],
      "name": "viewPoolCap",
      "outputs": [
        {
          "internalType": "uint256",
          "name": "",
          "type": "uint256"
        }
      ],
      "stateMutability": "view",
      "type": "function"
    },
    {
      "inputs": [
        {
          "internalType": "uint256",
          "name": "_pid",
          "type": "uint256"
        }
      ],
      "name": "viewPoolPremiumInfo",
      "outputs": [
        {
          "internalType": "uint256",
          "name": "totalPending",
          "type": "uint256"
        },
        {
          "internalType": "uint256",
          "name": "requiredPremiumBalancePerPeriod",
          "type": "uint256"
        },
        {
          "internalType": "uint256",
          "name": "premiumBalance",
          "type": "uint256"
        }
      ],
      "stateMutability": "view",
      "type": "function"
    },
    {
      "inputs": [
        {
          "internalType": "uint256",
          "name": "_pid",
          "type": "uint256"
        }
      ],
      "name": "viewPoolTimelockInfo",
      "outputs": [
        {
          "internalType": "uint256",
          "name": "timelock",
          "type": "uint256"
        },
        {
          "internalType": "uint256",
          "name": "timeLimit",
          "type": "uint256"
        },
        {
          "internalType": "uint256",
          "name": "withdrawalScheduledAmount",
          "type": "uint256"
        }
      ],
      "stateMutability": "view",
      "type": "function"
    },
    {
      "inputs": [
        {
          "internalType": "address",
          "name": "_token",
          "type": "address"
        }
      ],
      "name": "viewSaloonProfitBalance",
      "outputs": [
        {
          "internalType": "uint256",
          "name": "totalProfit",
          "type": "uint256"
        },
        {
          "internalType": "uint256",
          "name": "bountyProfit",
          "type": "uint256"
        },
        {
          "internalType": "uint256",
          "name": "premiumProfit",
          "type": "uint256"
        }
      ],
      "stateMutability": "view",
      "type": "function"
    },
    {
      "inputs": [
        {
          "internalType": "uint256",
          "name": "_pid",
          "type": "uint256"
        },
        {
          "internalType": "address",
          "name": "_user",
          "type": "address"
        }
      ],
      "name": "viewStake",
      "outputs": [
        {
          "internalType": "uint256",
          "name": "",
          "type": "uint256"
        }
      ],
      "stateMutability": "view",
      "type": "function"
    },
    {
      "inputs": [
        {
          "internalType": "uint256",
          "name": "_pid",
          "type": "uint256"
        }
      ],
      "name": "viewTotalStaked",
      "outputs": [
        {
          "internalType": "uint256",
          "name": "",
          "type": "uint256"
        }
      ],
      "stateMutability": "view",
      "type": "function"
    },
    {
      "inputs": [
        {
          "internalType": "uint256",
          "name": "_pid",
          "type": "uint256"
        },
        {
          "internalType": "address",
          "name": "_user",
          "type": "address"
        }
      ],
      "name": "viewUserInfo",
      "outputs": [
        {
          "internalType": "uint256",
          "name": "amount",
          "type": "uint256"
        },
        {
          "internalType": "uint256",
          "name": "unclaimed",
          "type": "uint256"
        }
      ],
      "stateMutability": "view",
      "type": "function"
    }
  ],
  "bytecode": {
    "object": "0x60a06040523060805234801561001457600080fd5b50600160c955608051614188610051600039600081816109aa015281816109f30152818161141c0152818161145c01526114ef01526141886000f3fe6080604052600436106102465760003560e01c8063861e5f6611610139578063ac30b856116100b6578063dbdd69571161007a578063dbdd6957146107d2578063e45abd0f146107f2578063e5e97c651461081f578063ecd7fbed1461083f578063f2fde38b1461085f578063f47ec3be1461087f57600080fd5b8063ac30b85614610725578063b1a2d16f14610745578063ca00614814610765578063cee6b06914610792578063cf9564b9146107b257600080fd5b8063983c1ce0116100fd578063983c1ce0146106465780639e2c8a5b146106665780639f224f3514610686578063a27f9213146106a6578063a754ecb0146106c657600080fd5b8063861e5f66146105175780638da5cb5b146105375780638dbb1e3a1461056957806391635b4e1461058957806393f1a40b146105a957600080fd5b80634f1ef286116101c75780636e9c931c1161018b5780636e9c931c14610462578063715018a614610482578063718c7eef14610497578063753d7563146104d25780638129fc1c1461050257600080fd5b80634f1ef286146103da57806352d1902d146103ed5780635669cbef1461040257806357a86d3a146104225780636ac6d8121461044257600080fd5b806339679ff41161020e57806339679ff41461031a578063399eadb81461033a5780633ac6ad7b1461035a57806340ef28681461037a57806348e43af4146103ba57600080fd5b8063081e3eda1461024b57806313c6f76d1461026f5780631526fe271461028f5780632dbe051e146102c85780633659cfe6146102f8575b600080fd5b34801561025757600080fd5b5060cc545b6040519081526020015b60405180910390f35b34801561027b57600080fd5b5061025c61028a366004613a2d565b61089f565b34801561029b57600080fd5b506102af6102aa366004613a59565b6108c9565b6040516102669d9c9b9a99989796959493929190613a72565b3480156102d457600080fd5b506102e86102e3366004613a59565b610983565b6040519015158152602001610266565b34801561030457600080fd5b50610318610313366004613b17565b6109a0565b005b34801561032657600080fd5b5061025c610335366004613a59565b610a88565b34801561034657600080fd5b5061025c610355366004613b32565b610bfd565b34801561036657600080fd5b506102e8610375366004613b7d565b610f15565b34801561038657600080fd5b5061039a610395366004613a59565b611309565b604080519485526020850193909352918301526060820152608001610266565b3480156103c657600080fd5b5061025c6103d5366004613a2d565b611342565b6103186103e8366004613bc8565b611412565b3480156103f957600080fd5b5061025c6114e2565b34801561040e57600080fd5b506102e861041d366004613c8a565b611595565b34801561042e57600080fd5b5061031861043d366004613c8a565b611686565b34801561044e57600080fd5b5061025c61045d366004613a59565b611710565b34801561046e57600080fd5b506102e861047d366004613b7d565b61188f565b34801561048e57600080fd5b50610318611a2d565b3480156104a357600080fd5b506104b76104b2366004613b17565b611a41565b60408051938452602084019290925290820152606001610266565b3480156104de57600080fd5b506102e86104ed366004613b17565b60ce6020526000908152604090205460ff1681565b34801561050e57600080fd5b50610318611a77565b34801561052357600080fd5b5061025c610532366004613a59565b611b87565b34801561054357600080fd5b506033546001600160a01b03165b6040516001600160a01b039091168152602001610266565b34801561057557600080fd5b5061025c610584366004613c8a565b611d23565b34801561059557600080fd5b506102e86105a4366004613c8a565b611d2f565b3480156105b557600080fd5b5061060f6105c4366004613a2d565b60cd6020908152600092835260408084209091529082529020805460018201546002830154600384015460048501546005860154600690960154949593949293919290919060ff1687565b604080519788526020880196909652948601939093526060850191909152608084015260a0830152151560c082015260e001610266565b34801561065257600080fd5b506102e8610661366004613c8a565b611de4565b34801561067257600080fd5b506102e8610681366004613c8a565b611eef565b34801561069257600080fd5b506105516106a1366004613a59565b612196565b3480156106b257600080fd5b5061025c6106c1366004613a59565b6121c0565b3480156106d257600080fd5b506107106106e1366004613a2d565b600091825260cd602090815260408084206001600160a01b039093168452919052902080546001909101549091565b60408051928352602083019190915201610266565b34801561073157600080fd5b506104b7610740366004613a59565b612339565b34801561075157600080fd5b506104b7610760366004613a59565b6124c5565b34801561077157600080fd5b5061025c610780366004613b17565b60cb6020526000908152604090205481565b34801561079e57600080fd5b506103186107ad366004613cac565b612652565b3480156107be57600080fd5b506102e86107cd366004613cf2565b6128de565b3480156107de57600080fd5b5061025c6107ed366004613a59565b61294a565b3480156107fe57600080fd5b5061025c61080d366004613b17565b60ca6020526000908152604090205481565b34801561082b57600080fd5b506102e861083a366004613d2a565b612abf565b34801561084b57600080fd5b506102e861085a366004613b17565b612cec565b34801561086b57600080fd5b5061031861087a366004613b17565b612db4565b34801561088b57600080fd5b5061031861089a366004613a59565b612e2a565b600082815260cd602090815260408083206001600160a01b03851684529091529020545b92915050565b60cc81815481106108d957600080fd5b6000918252602091829020600e91909102018054600182015460028301546003840154600485015460058601546006870154600788015460088901546040805160808101825260098c01548152600a8c01549c81019c909c52600b8b0154908c0152600c9099015460ff908116151560608c01526001600160a01b03808a169c50600160a01b8a0482169b600160a81b8b049092169a600160b01b909a0461ffff1699981697908d565b600061098d612e46565b610998826000612ea0565b505050919050565b6001600160a01b037f00000000000000000000000000000000000000000000000000000000000000001630036109f15760405162461bcd60e51b81526004016109e890613d61565b60405180910390fd5b7f00000000000000000000000000000000000000000000000000000000000000006001600160a01b0316610a3a60008051602061410c833981519152546001600160a01b031690565b6001600160a01b031614610a605760405162461bcd60e51b81526004016109e890613dad565b610a6981612fab565b60408051600080825260208201909252610a8591839190612fb3565b50565b60008060cc8381548110610a9e57610a9e613df9565b6000918252602091829020604080516101c081018252600e9390930290910180546001600160a01b038082168552600160a01b820460ff908116151586880152600160a81b8304811686860152600160b01b90920461ffff166060808701919091526001840154909116608080870191909152600284015460a0870152600384015460c0870152600484015460e087015260058401546101008701526006840154610120870152600784015461014087015260088401546101608701528451908101855260098401548152600a84015481880152600b84015481860152600c840154909216151590820152610180840152600d81018054835181870281018701909452808452939491936101a086019392830182828015610be857602002820191906000526020600020905b81546001600160a01b03168152600190910190602001808311610bca575b5050509190925250505060c001519392505050565b6000610c07612e46565b6001600160a01b038416600090815260ce602052604090205460ff16610c675760405162461bcd60e51b81526020600482015260156024820152741d1bdad95b881b9bdd081dda1a5d195b1a5cdd1959605a1b60448201526064016109e8565b610c6f6138cd565b8481600001906001600160a01b031690816001600160a01b03168152505083816040019060ff16908160ff16815250508281608001906001600160a01b031690816001600160a01b03168152505060008160a00181815250506000816060019061ffff16908161ffff168152505060008160c001818152505060008160e0018181525050600081602001901515908115158152505060008161010001818152505060008161018001516000018181525050600081610180015160200181815250506000816101800151604001818152505060008161018001516060019015159081151581525050806101a001515060cc8190806001815401808255809150506001900390600052602060002090600e020160009091909190915060008201518160000160006101000a8154816001600160a01b0302191690836001600160a01b0316021790555060208201518160000160146101000a81548160ff02191690831515021790555060408201518160000160156101000a81548160ff021916908360ff16021790555060608201518160000160166101000a81548161ffff021916908361ffff16021790555060808201518160010160006101000a8154816001600160a01b0302191690836001600160a01b0316021790555060a0820151816002015560c0820151816003015560e0820151816004015561010082015181600501556101208201518160060155610140820151816007015561016082015181600801556101808201518160090160008201518160000155602082015181600101556040820151816002015560608201518160030160006101000a81548160ff02191690831515021790555050506101a082015181600d019080519060200190610ef8929190613982565b505060cc54610f0a9150600190613e25565b9150505b9392505050565b6000610f1f612e46565b600060cc8581548110610f3457610f34613df9565b90600052602060002090600e020190506000816004015490506000826002015482610f5f9190613e38565b90508185116110e557818503610ffc57600d83015460005b81811015610fde57600085600d018281548110610f9657610f96613df9565b60009182526020808320909101548c835260cd825260408084206001600160a01b03909216808552919092529120909150610fd18b83613123565b6000905550600101610f77565b50600060048501819055610ff690600d8601906139e7565b50611287565b60008261100b6103e888613e4b565b6110159190613e62565b600d85015490915060005b818110156110dd57600086600d01828154811061103f5761103f613df9565b60009182526020808320909101548d835260cd825260408084206001600160a01b0390921680855291909252912090915061107a8c83613123565b80546000906103e89061108e908890613e4b565b6110989190613e62565b9050808260000160008282546110ae9190613e25565b92505081905550808960040160008282546110c99190613e25565b909155505060019093019250611020915050565b505050611287565b81851180156110f75750826002015485105b156111b257600d83015460005b8181101561116b57600085600d01828154811061112357611123613df9565b60009182526020808320909101548c835260cd825260408084206001600160a01b0390921680855291909252912090915061115e8b83613123565b6000905550600101611104565b5060006004850181905561118390600d8601906139e7565b600061118f8484613e25565b9050808560020160008282546111a59190613e25565b9091555061128792505050565b80850361124d57600d83015460005b8181101561122857600085600d0182815481106111e0576111e0613df9565b60009182526020808320909101548c835260cd825260408084206001600160a01b0390921680855291909252912090915061121b8b83613123565b60009055506001016111c1565b5060006004850181905561124090600d8601906139e7565b5060006002840155611287565b60405162461bcd60e51b815260206004820152600f60248201526e082dadeeadce840e8dede40d0d2ced608b1b60448201526064016109e8565b60006127106112986103e888613e4b565b6112a29190613e62565b905060006112b08288613e25565b85546001600160a01b0316600090815260ca60205260408120805492935084929091906112de908490613e38565b909155505084546112f9906001600160a01b03168983613291565b5060019998505050505050505050565b60008060008061131885611b87565b93506113238561294a565b915061132e856121c0565b925061133985610a88565b90509193509193565b60008060cc848154811061135857611358613df9565b6000918252602080832087845260cd825260408085206001600160a01b0389168652909252908320600e929092020160048101546002830154919450919290421180156113a457508115155b156114085760006113b9846002015442611d23565b855485549192506000916301e13380918491612710916113e591600160b01b90910461ffff1690613e4b565b6113ef9190613e62565b6113f99190613e4b565b6114039190613e62565b925050505b9695505050505050565b6001600160a01b037f000000000000000000000000000000000000000000000000000000000000000016300361145a5760405162461bcd60e51b81526004016109e890613d61565b7f00000000000000000000000000000000000000000000000000000000000000006001600160a01b03166114a360008051602061410c833981519152546001600160a01b031690565b6001600160a01b0316146114c95760405162461bcd60e51b81526004016109e890613dad565b6114d282612fab565b6114de82826001612fb3565b5050565b6000306001600160a01b037f000000000000000000000000000000000000000000000000000000000000000016146115825760405162461bcd60e51b815260206004820152603860248201527f555550535570677261646561626c653a206d757374206e6f742062652063616c60448201527f6c6564207468726f7567682064656c656761746563616c6c000000000000000060648201526084016109e8565b5060008051602061410c83398151915290565b60008060cc84815481106115ab576115ab613df9565b90600052602060002090600e02019050828160020154101561160f5760405162461bcd60e51b815260206004820152601a60248201527f416d6f756e7420626967676572207468616e206465706f73697400000000000060448201526064016109e8565b60018101546001600160a01b0316331461163b5760405162461bcd60e51b81526004016109e890613e84565b61164862093a8042613e38565b600982015561165a62093a8042613e38565b611667906203f480613e38565b600a820155600b81019290925550600c01805460ff1916905550600190565b600060cc838154811061169b5761169b613df9565b60009182526020909120600e9091020160018101549091506001600160a01b031633146116da5760405162461bcd60e51b81526004016109e890613e84565b80546116f1906001600160a01b0316333085613301565b50818160020160008282546117069190613e38565b9091555050505050565b60008060cc838154811061172657611726613df9565b6000918252602091829020604080516101c081018252600e9390930290910180546001600160a01b038082168552600160a01b820460ff908116151586880152600160a81b8304811686860152600160b01b90920461ffff166060808701919091526001840154909116608080870191909152600284015460a0870152600384015460c0870152600484015460e087015260058401546101008701526006840154610120870152600784015461014087015260088401546101608701528451908101855260098401548152600a84015481880152600b84015481860152600c840154909216151590820152610180840152600d81018054835181870281018701909452808452939491936101a08601939283018282801561187057602002820191906000526020600020905b81546001600160a01b03168152600190910190602001808311611852575b50505050508152505090508060a001518160e00151610f0e9190613e38565b6000611899613344565b600082116118a657600080fd5b600060cc85815481106118bb576118bb613df9565b6000918252602080832088845260cd825260408085206001600160a01b038a1686529092529220600e90910290910191506118f68686613123565b805460000361193057600d82018054600181018255600091825260209091200180546001600160a01b0319166001600160a01b0387161790555b8154611947906001600160a01b0316333087613301565b508381600001600082825461195c9190613e38565b92505081905550838260040160008282546119779190613e38565b909155505060038201541580159061199757508160030154826004015411155b6119d95760405162461bcd60e51b8152602060048201526013602482015272115e18d959591959081c1bdbdb081b1a5b5a5d606a1b60448201526064016109e8565b85856001600160a01b03167f1449c6dd7851abc30abf37f57715f492010519147cc2652fbc38202c18a6ee9086604051611a1591815260200190565b60405180910390a3600192505050610f0e600160c955565b611a35612e46565b611a3f600061339d565b565b6001600160a01b038116600090815260ca602090815260408083205460cb909252822054611a6f8282613e38565b949193509150565b600054610100900460ff1615808015611a975750600054600160ff909116105b80611ab15750303b158015611ab1575060005460ff166001145b611b145760405162461bcd60e51b815260206004820152602e60248201527f496e697469616c697a61626c653a20636f6e747261637420697320616c72656160448201526d191e481a5b9a5d1a585b1a5e995960921b60648201526084016109e8565b6000805460ff191660011790558015611b37576000805461ff0019166101001790555b611b3f6133ef565b8015610a85576000805461ff0019169055604051600181527f7f26b83ff96e1f2b6a682f133852f6798a09c465da95921460cefb38474024989060200160405180910390a150565b60008060cc8381548110611b9d57611b9d613df9565b6000918252602091829020604080516101c081018252600e9390930290910180546001600160a01b038082168552600160a01b820460ff908116151586880152600160a81b8304811686860152600160b01b90920461ffff166060808701919091526001840154909116608080870191909152600284015460a0870152600384015460c0870152600484015460e087015260058401546101008701526006840154610120870152600784015461014087015260088401546101608701528451908101855260098401548152600a84015481880152600b84015481860152600c840154909216151590820152610180840152600d81018054835181870281018701909452808452939491936101a086019392830182828015611ce757602002820191906000526020600020905b81546001600160a01b03168152600190910190602001808311611cc9575b5050509190925250505060a081015160e0820151919250612710916103e891611d0f91613e38565b611d199190613e4b565b610f0e9190613e62565b6000610f0e828461341e565b600082815260cd6020908152604080832033845290915281208054831115611d995760405162461bcd60e51b815260206004820152601a60248201527f416d6f756e7420626967676572207468616e206465706f73697400000000000060448201526064016109e8565b611da662093a8042613e38565b6003820155611db862093a8042613e38565b611dc5906203f480613e38565b6004820155600581019290925550600601805460ff1916905550600190565b60008060cc8481548110611dfa57611dfa613df9565b60009182526020909120600e9091020160018101549091506001600160a01b03163314611e395760405162461bcd60e51b81526004016109e890613e84565b600981015442118015611e4f5750600a81015442105b8015611e605750600c81015460ff16155b8015611e705750600b8101548311155b8015611e7f5750600981015415155b611e9b5760405162461bcd60e51b81526004016109e890613eac565b600c8101805460ff19166001179055600281018054849190600090611ec1908490613e25565b909155505060018101548154611ee4916001600160a01b03918216911685613291565b506001949350505050565b6000611ef9613344565b600060cc8481548110611f0e57611f0e613df9565b6000918252602080832087845260cd8252604080852033865290925292208054600e9092029092019250841115611f7c5760405162461bcd60e51b81526020600482015260126024820152711dda5d1a191c985dce881b9bdd0819dbdbd960721b60448201526064016109e8565b428160030154108015611f925750428160040154115b8015611fa35750600681015460ff16155b8015611fb3575083816005015410155b8015611fc25750600381015415155b611fde5760405162461bcd60e51b81526004016109e890613eac565b60068101805460ff19166001179055611ff78533613123565b8315612037578054612009908561341e565b8155600482015461201a908561341e565b60048301558154612035906001600160a01b03163386613291565b505b805460000361214f57600d82015460005b8181101561214c57336001600160a01b031684600d01828154811061206f5761206f613df9565b6000918252602090912001546001600160a01b031603612144576000600d850161209a600185613e25565b815481106120aa576120aa613df9565b600091825260209091200154600d860180546001600160a01b0390921692508291849081106120db576120db613df9565b9060005260206000200160006101000a8154816001600160a01b0302191690836001600160a01b0316021790555084600d0180548061211c5761211c613ef5565b600082815260209020810160001990810180546001600160a01b03191690550190555061214c565b600101612048565b50505b604051848152859033907f7fc4727e062e336010f2c282598ef5f14facb3de68cf8195c2f23e1454b2b74e9060200160405180910390a36001925050506108c3600160c955565b60cf81815481106121a657600080fd5b6000918252602090912001546001600160a01b0316905081565b60008060cc83815481106121d6576121d6613df9565b6000918252602091829020604080516101c081018252600e9390930290910180546001600160a01b038082168552600160a01b820460ff908116151586880152600160a81b8304811686860152600160b01b90920461ffff166060808701919091526001840154909116608080870191909152600284015460a0870152600384015460c0870152600484015460e087015260058401546101008701526006840154610120870152600784015461014087015260088401546101608701528451908101855260098401548152600a84015481880152600b84015481860152600c840154909216151590820152610180840152600d81018054835181870281018701909452808452939491936101a08601939283018282801561232057602002820191906000526020600020905b81546001600160a01b03168152600190910190602001808311612302575b505050919092525050506060015161ffff169392505050565b60008060008060cc858154811061235257612352613df9565b6000918252602091829020604080516101c081018252600e9390930290910180546001600160a01b038082168552600160a01b820460ff908116151586880152600160a81b8304811686860152600160b01b90920461ffff166060808701919091526001840154909116608080870191909152600284015460a0870152600384015460c0870152600484015460e087015260058401546101008701526006840154610120870152600784015461014087015260088401546101608701528451908101855260098401548152600a84015481880152600b84015481860152600c840154909216151590820152610180840152600d81018054835181870281018701909452808452939491936101a08601939283018282801561249c57602002820191906000526020600020905b81546001600160a01b0316815260019091019060200180831161247e575b505050919092525050506101800151805160208201516040909201519097919650945092505050565b60008060008060cc85815481106124de576124de613df9565b6000918252602091829020604080516101c081018252600e9390930290910180546001600160a01b038082168552600160a01b820460ff908116151586880152600160a81b8304811686860152600160b01b90920461ffff166060808701919091526001840154909116608080870191909152600284015460a0870152600384015460c0870152600484015460e087015260058401546101008701526006840154610120870152600784015461014087015260088401546101608701528451908101855260098401548152600a84015481880152600b84015481860152600c840154909216151590820152610180840152600d81018054835181870281018701909452808452939491936101a08601939283018282801561262857602002820191906000526020600020905b81546001600160a01b0316815260019091019060200180831161260a575b50505091909252505050610100810151610120820151610140909201519097919650945092505050565b600060cc858154811061266757612667613df9565b60009182526020909120600e909102018054909150600160a01b900460ff16156126d35760405162461bcd60e51b815260206004820152601860248201527f506f6f6c20616c726561647920696e697469616c697a6564000000000000000060448201526064016109e8565b60008361ffff161180156126ed57506127108361ffff1611155b61272c5760405162461bcd60e51b815260206004820152601060248201526f415059206f7574206f662072616e676560801b60448201526064016109e8565b805461274390600160a81b900460ff16600a613fef565b61274e906064613e4b565b84101580156127805750805461276f90600160a81b900460ff16600a613fef565b61277c9062989680613e4b565b8411155b6127c45760405162461bcd60e51b8152602060048201526015602482015274506f6f6c20636170206f7574206f662072616e676560581b60448201526064016109e8565b60018101546001600160a01b031633146127f05760405162461bcd60e51b81526004016109e890613e84565b60006301e1338061271062093a8061280c61ffff881689613e4b565b6128169190613e4b565b6128209190613e62565b61282a9190613e62565b9050600061271061283d6103e884613e4b565b6128479190613e62565b905061286b33306128588588613e38565b86546001600160a01b0316929190613301565b50838360020160008282546128809190613e38565b909155505060038301869055825460ff60a01b1961ffff8716600160b01b021663ffff00ff60a01b1990911617600160a01b17835560078301829055600683018290556128cd8183613e25565b836008018190555050505050505050565b60006128e8612e46565b6001600160a01b038316600090815260cb602090815260408083205460ca9092528220546129169190613e38565b6001600160a01b038516600081815260ca6020908152604080832083905560cb909152812055909150611ee4908483613291565b60008060cc838154811061296057612960613df9565b6000918252602091829020604080516101c081018252600e9390930290910180546001600160a01b038082168552600160a01b820460ff908116151586880152600160a81b8304811686860152600160b01b90920461ffff166060808701919091526001840154909116608080870191909152600284015460a0870152600384015460c0870152600484015460e087015260058401546101008701526006840154610120870152600784015461014087015260088401546101608701528451908101855260098401548152600a84015481880152600b84015481860152600c840154909216151590820152610180840152600d81018054835181870281018701909452808452939491936101a086019392830182828015612aaa57602002820191906000526020600020905b81546001600160a01b03168152600190910190602001808311612a8c575b5050509190925250505060e001519392505050565b6000612ac9612e46565b6001600160a01b038316600090815260ce602052604090205460ff161515821514612b2e5760405162461bcd60e51b81526020600482015260156024820152741dda1a5d195b1a5cdd08185b1c9958591e481cd95d605a1b60448201526064016109e8565b6001600160a01b038316600081815260ce6020526040808220805460ff191686151590811790915590519092917f99795d51e5a8804307721456a7a9c2f0d7421f719d46a46d36e91fee7c85aa7691a38115612bd45760cf80546001810182556000919091527facb8d954e2cfef495862221e91bd7523613cf8808827cb33edfe4904cc51bf290180546001600160a01b0319166001600160a01b038516179055612ce3565b60cf5460005b81811015612ce057600060cf8281548110612bf757612bf7613df9565b6000918252602090912001546001600160a01b03908116915086168103612ccf5760cf612c25600185613e25565b81548110612c3557612c35613df9565b60009182526020909120015460cf80546001600160a01b039092169184908110612c6157612c61613df9565b9060005260206000200160006101000a8154816001600160a01b0302191690836001600160a01b0316021790555060cf805480612ca057612ca0613ef5565b600082815260209020810160001990810180546001600160a01b031916905501905550600192506108c3915050565b50612cd981613ffe565b9050612bda565b50505b50600192915050565b6000612cf6612e46565b60cf5460005b81811015612da857600060cf8281548110612d1957612d19613df9565b60009182526020808320909101546001600160a01b031680835260cb825260408084205460ca909352832054909350612d529190613e38565b905080600003612d63575050612d98565b6001600160a01b038216600081815260ca6020908152604080832083905560cb909152812055612d94908783613291565b5050505b612da181613ffe565b9050612cfc565b5060019150505b919050565b612dbc612e46565b6001600160a01b038116612e215760405162461bcd60e51b815260206004820152602660248201527f4f776e61626c653a206e6577206f776e657220697320746865207a65726f206160448201526564647265737360d01b60648201526084016109e8565b610a858161339d565b612e32613344565b612e3c8133613123565b610a85600160c955565b6033546001600160a01b03163314611a3f5760405162461bcd60e51b815260206004820181905260248201527f4f776e61626c653a2063616c6c6572206973206e6f7420746865206f776e657260448201526064016109e8565b60008060008060cc8681548110612eb957612eb9613df9565b90600052602060002090600e0201905060008582600701548360060154612ee09190613e25565b612eea9190613e38565b60018301548354919250612f0c916001600160a01b0390811691163084613301565b506000612710612f1e6103e884613e4b565b612f289190613e62565b905081836007016000828254612f3e9190613e38565b909155505082546001600160a01b0316600090815260cb602052604081208054839290612f6c908490613e38565b9091555060009050612f7e8284613e25565b905080846008016000828254612f949190613e38565b909155506001975092955093505050509250925092565b610a85612e46565b7f4910fdfa16fed3260ed0e7147f7cc6da11a60208b5b9406d12a635614ffd91435460ff1615612feb57612fe68361342a565b505050565b826001600160a01b03166352d1902d6040518163ffffffff1660e01b8152600401602060405180830381865afa925050508015613045575060408051601f3d908101601f1916820190925261304291810190614017565b60015b6130a85760405162461bcd60e51b815260206004820152602e60248201527f45524331393637557067726164653a206e657720696d706c656d656e7461746960448201526d6f6e206973206e6f74205555505360901b60648201526084016109e8565b60008051602061410c83398151915281146131175760405162461bcd60e51b815260206004820152602960248201527f45524331393637557067726164653a20756e737570706f727465642070726f786044820152681a58589b195555525160ba1b60648201526084016109e8565b50612fe68383836134c6565b600060cc838154811061313857613138613df9565b6000918252602080832086845260cd825260408085206001600160a01b03881686529092529083208054600e9093029091019350910361317e5742600290910155505050565b600061318a8585611342565b905082600801548111156132085760006131a48683612ea0565b90935091505081156132025783546131c6906001600160a01b03168683613291565b50818460070160008282546131db9190613e25565b92505081905550808460080160008282546131f69190613e25565b90915550504260028401555b5061328a565b801561328a57808360070160008282546132229190613e25565b90915550600090506127106132396103e884613e4b565b6132439190613e62565b905061324f8183613e25565b8454909250613268906001600160a01b03168684613291565b508184600801600082825461327d9190613e25565b9091555050426002840155505b5050505050565b6040516001600160a01b0383166024820152604481018290526000906132f790859063a9059cbb60e01b906064015b60408051601f198184030181529190526020810180516001600160e01b03166001600160e01b0319909316929092179091526134f1565b5060019392505050565b6040516001600160a01b0380851660248301528316604482015260648101829052600090611ee49086906323b872dd60e01b906084016132c0565b949350505050565b600260c954036133965760405162461bcd60e51b815260206004820152601f60248201527f5265656e7472616e637947756172643a207265656e7472616e742063616c6c0060448201526064016109e8565b600260c955565b603380546001600160a01b038381166001600160a01b0319831681179093556040519116919082907f8be0079c531659141344cd1fd0a4f28419497f9722a3daafe3b4186f6b6457e090600090a35050565b600054610100900460ff166134165760405162461bcd60e51b81526004016109e890614030565b611a3f6135c3565b6000610f0e8284613e25565b6001600160a01b0381163b6134975760405162461bcd60e51b815260206004820152602d60248201527f455243313936373a206e657720696d706c656d656e746174696f6e206973206e60448201526c1bdd08184818dbdb9d1c9858dd609a1b60648201526084016109e8565b60008051602061410c83398151915280546001600160a01b0319166001600160a01b0392909216919091179055565b6134cf836135f3565b6000825111806134dc5750805b15612fe6576134eb8383613633565b50505050565b6000613546826040518060400160405280602081526020017f5361666545524332303a206c6f772d6c6576656c2063616c6c206661696c6564815250856001600160a01b03166137279092919063ffffffff16565b805190915015612fe65780806020019051810190613564919061407b565b612fe65760405162461bcd60e51b815260206004820152602a60248201527f5361666545524332303a204552433230206f7065726174696f6e20646964206e6044820152691bdd081cdd58d8d9595960b21b60648201526084016109e8565b600054610100900460ff166135ea5760405162461bcd60e51b81526004016109e890614030565b611a3f3361339d565b6135fc8161342a565b6040516001600160a01b038216907fbc7cd75a20ee27fd9adebab32041f755214dbc6bffa90cc0225b39da2e5c2d3b90600090a250565b60606001600160a01b0383163b61369b5760405162461bcd60e51b815260206004820152602660248201527f416464726573733a2064656c65676174652063616c6c20746f206e6f6e2d636f6044820152651b9d1c9858dd60d21b60648201526084016109e8565b600080846001600160a01b0316846040516136b691906140bc565b600060405180830381855af49150503d80600081146136f1576040519150601f19603f3d011682016040523d82523d6000602084013e6136f6565b606091505b509150915061371e828260405180606001604052806027815260200161412c60279139613736565b95945050505050565b606061333c848460008561374f565b60608315613745575081610f0e565b610f0e838361382a565b6060824710156137b05760405162461bcd60e51b815260206004820152602660248201527f416464726573733a20696e73756666696369656e742062616c616e636520666f6044820152651c8818d85b1b60d21b60648201526084016109e8565b600080866001600160a01b031685876040516137cc91906140bc565b60006040518083038185875af1925050503d8060008114613809576040519150601f19603f3d011682016040523d82523d6000602084013e61380e565b606091505b509150915061381f87838387613854565b979650505050505050565b81511561383a5781518083602001fd5b8060405162461bcd60e51b81526004016109e891906140d8565b606083156138c35782516000036138bc576001600160a01b0385163b6138bc5760405162461bcd60e51b815260206004820152601d60248201527f416464726573733a2063616c6c20746f206e6f6e2d636f6e747261637400000060448201526064016109e8565b508161333c565b61333c838361382a565b604051806101c0016040528060006001600160a01b03168152602001600015158152602001600060ff168152602001600061ffff16815260200160006001600160a01b031681526020016000815260200160008152602001600081526020016000815260200160008152602001600081526020016000815260200161397560405180608001604052806000815260200160008152602001600081526020016000151581525090565b8152602001606081525090565b8280548282559060005260206000209081019282156139d7579160200282015b828111156139d757825182546001600160a01b0319166001600160a01b039091161782556020909201916001909101906139a2565b506139e3929150613a01565b5090565b5080546000825590600052602060002090810190610a8591905b5b808211156139e35760008155600101613a02565b80356001600160a01b0381168114612daf57600080fd5b60008060408385031215613a4057600080fd5b82359150613a5060208401613a16565b90509250929050565b600060208284031215613a6b57600080fd5b5035919050565b6001600160a01b038e811682528d1515602083015260ff8d16604083015261ffff8c1660608301528a16608082015261020081018960a08301528860c08301528760e083015286610100830152856101208301528461014083015283610160830152613b056101808301848051825260208101516020830152604081015160408301526060810151151560608301525050565b9e9d5050505050505050505050505050565b600060208284031215613b2957600080fd5b610f0e82613a16565b600080600060608486031215613b4757600080fd5b613b5084613a16565b9250602084013560ff81168114613b6657600080fd5b9150613b7460408501613a16565b90509250925092565b600080600060608486031215613b9257600080fd5b83359250613ba260208501613a16565b9150604084013590509250925092565b634e487b7160e01b600052604160045260246000fd5b60008060408385031215613bdb57600080fd5b613be483613a16565b9150602083013567ffffffffffffffff80821115613c0157600080fd5b818501915085601f830112613c1557600080fd5b813581811115613c2757613c27613bb2565b604051601f8201601f19908116603f01168101908382118183101715613c4f57613c4f613bb2565b81604052828152886020848701011115613c6857600080fd5b8260208601602083013760006020848301015280955050505050509250929050565b60008060408385031215613c9d57600080fd5b50508035926020909101359150565b60008060008060808587031215613cc257600080fd5b8435935060208501359250604085013561ffff81168114613ce257600080fd5b9396929550929360600135925050565b60008060408385031215613d0557600080fd5b613d0e83613a16565b9150613a5060208401613a16565b8015158114610a8557600080fd5b60008060408385031215613d3d57600080fd5b613d4683613a16565b91506020830135613d5681613d1c565b809150509250929050565b6020808252602c908201527f46756e6374696f6e206d7573742062652063616c6c6564207468726f7567682060408201526b19195b1959d85d1958d85b1b60a21b606082015260800190565b6020808252602c908201527f46756e6374696f6e206d7573742062652063616c6c6564207468726f7567682060408201526b6163746976652070726f787960a01b606082015260800190565b634e487b7160e01b600052603260045260246000fd5b634e487b7160e01b600052601160045260246000fd5b818103818111156108c3576108c3613e0f565b808201808211156108c3576108c3613e0f565b80820281158282048414176108c3576108c3613e0f565b600082613e7f57634e487b7160e01b600052601260045260246000fd5b500490565b6020808252600e908201526d139bdd08185d5d1a1bdc9a5e995960921b604082015260600190565b60208082526029908201527f54696d656c6f636b206e6f7420736574206f72206e6f7420636f6d706c6574656040820152686420696e2074696d6560b81b606082015260800190565b634e487b7160e01b600052603160045260246000fd5b600181815b80851115613f46578160001904821115613f2c57613f2c613e0f565b80851615613f3957918102915b93841c9390800290613f10565b509250929050565b600082613f5d575060016108c3565b81613f6a575060006108c3565b8160018114613f805760028114613f8a57613fa6565b60019150506108c3565b60ff841115613f9b57613f9b613e0f565b50506001821b6108c3565b5060208310610133831016604e8410600b8410161715613fc9575081810a6108c3565b613fd38383613f0b565b8060001904821115613fe757613fe7613e0f565b029392505050565b6000610f0e60ff841683613f4e565b60006001820161401057614010613e0f565b5060010190565b60006020828403121561402957600080fd5b5051919050565b6020808252602b908201527f496e697469616c697a61626c653a20636f6e7472616374206973206e6f74206960408201526a6e697469616c697a696e6760a81b606082015260800190565b60006020828403121561408d57600080fd5b8151610f0e81613d1c565b60005b838110156140b357818101518382015260200161409b565b50506000910152565b600082516140ce818460208701614098565b9190910192915050565b60208152600082518060208401526140f7816040850160208701614098565b601f01601f1916919091016040019291505056fe360894a13ba1a3210667c828492db98dca3e2076cc3735a920a3ca505d382bbc416464726573733a206c6f772d6c6576656c2064656c65676174652063616c6c206661696c6564a2646970667358221220aa36058bc27dab42624ab7237877442442339661d8208c412d4fc9ab3ab28c2364736f6c63430008110033",
    "linkReferences": {}
  },
  "methodIdentifiers": {
    "activeTokens(uint256)": "9f224f35",
    "addNewBountyPool(address,uint8,address)": "399eadb8",
    "billPremium(uint256)": "2dbe051e",
    "claimPremium(uint256)": "f47ec3be",
    "collectAllSaloonProfits(address)": "ecd7fbed",
    "collectSaloonProfits(address,address)": "cf9564b9",
    "getMultiplier(uint256,uint256)": "8dbb1e3a",
    "initialize()": "8129fc1c",
    "makeProjectDeposit(uint256,uint256)": "57a86d3a",
    "owner()": "8da5cb5b",
    "payBounty(uint256,address,uint256)": "3ac6ad7b",
    "pendingToken(uint256,address)": "48e43af4",
    "poolInfo(uint256)": "1526fe27",
    "poolLength()": "081e3eda",
    "projectDepositWithdrawal(uint256,uint256)": "983c1ce0",
    "proxiableUUID()": "52d1902d",
    "renounceOwnership()": "715018a6",
    "saloonBountyProfit(address)": "e45abd0f",
    "saloonPremiumProfit(address)": "ca006148",
    "scheduleProjectDepositWithdrawal(uint256,uint256)": "5669cbef",
    "scheduleUnstake(uint256,uint256)": "91635b4e",
    "setAPYandPoolCapAndDeposit(uint256,uint256,uint16,uint256)": "cee6b069",
    "stake(uint256,address,uint256)": "6e9c931c",
    "tokenWhitelist(address)": "753d7563",
    "transferOwnership(address)": "f2fde38b",
    "unstake(uint256,uint256)": "9e2c8a5b",
    "updateTokenWhitelist(address,bool)": "e5e97c65",
    "upgradeTo(address)": "3659cfe6",
    "upgradeToAndCall(address,bytes)": "4f1ef286",
    "userInfo(uint256,address)": "93f1a40b",
    "viewBountyBalance(uint256)": "6ac6d812",
    "viewBountyInfo(uint256)": "40ef2868",
    "viewHackerPayout(uint256)": "861e5f66",
    "viewPoolAPY(uint256)": "a27f9213",
    "viewPoolCap(uint256)": "39679ff4",
    "viewPoolPremiumInfo(uint256)": "b1a2d16f",
    "viewPoolTimelockInfo(uint256)": "ac30b856",
    "viewSaloonProfitBalance(address)": "718c7eef",
    "viewStake(uint256,address)": "13c6f76d",
    "viewTotalStaked(uint256)": "dbdd6957",
    "viewUserInfo(uint256,address)": "a754ecb0"
  },
  "id": 29
}