{
  "abi": [
    {
      "inputs": [
        {
          "internalType": "UD60x18",
          "name": "x",
          "type": "uint256"
        }
      ],
      "name": "PRBMathUD60x18__LogInputTooSmall",
      "type": "error"
    },
    {
      "inputs": [
        {
          "internalType": "uint256",
          "name": "x",
          "type": "uint256"
        }
      ],
      "name": "PRBMathUD60x18__ToUD60x18Overflow",
      "type": "error"
    },
    {
      "inputs": [
        {
          "internalType": "uint256",
          "name": "x",
          "type": "uint256"
        },
        {
          "internalType": "uint256",
          "name": "y",
          "type": "uint256"
        }
      ],
      "name": "PRBMath__MulDiv18Overflow",
      "type": "error"
    },
    {
      "inputs": [
        {
          "internalType": "uint256",
          "name": "x",
          "type": "uint256"
        },
        {
          "internalType": "uint256",
          "name": "y",
          "type": "uint256"
        },
        {
          "internalType": "uint256",
          "name": "denominator",
          "type": "uint256"
        }
      ],
      "name": "PRBMath__MulDivOverflow",
      "type": "error"
    },
    {
      "anonymous": false,
      "inputs": [
        {
          "indexed": false,
          "internalType": "address",
          "name": "previousAdmin",
          "type": "address"
        },
        {
          "indexed": false,
          "internalType": "address",
          "name": "newAdmin",
          "type": "address"
        }
      ],
      "name": "AdminChanged",
      "type": "event"
    },
    {
      "anonymous": false,
      "inputs": [
        {
          "indexed": true,
          "internalType": "address",
          "name": "owner",
          "type": "address"
        },
        {
          "indexed": true,
          "internalType": "address",
          "name": "approved",
          "type": "address"
        },
        {
          "indexed": true,
          "internalType": "uint256",
          "name": "tokenId",
          "type": "uint256"
        }
      ],
      "name": "Approval",
      "type": "event"
    },
    {
      "anonymous": false,
      "inputs": [
        {
          "indexed": true,
          "internalType": "address",
          "name": "owner",
          "type": "address"
        },
        {
          "indexed": true,
          "internalType": "address",
          "name": "operator",
          "type": "address"
        },
        {
          "indexed": false,
          "internalType": "bool",
          "name": "approved",
          "type": "bool"
        }
      ],
      "name": "ApprovalForAll",
      "type": "event"
    },
    {
      "anonymous": false,
      "inputs": [
        {
          "indexed": true,
          "internalType": "address",
          "name": "beacon",
          "type": "address"
        }
      ],
      "name": "BeaconUpgraded",
      "type": "event"
    },
    {
      "anonymous": false,
      "inputs": [
        {
          "indexed": true,
          "internalType": "uint256",
          "name": "pid",
          "type": "uint256"
        },
        {
          "indexed": true,
          "internalType": "uint256",
          "name": "oldAmount",
          "type": "uint256"
        },
        {
          "indexed": true,
          "internalType": "uint256",
          "name": "newAmount",
          "type": "uint256"
        }
      ],
      "name": "BountyBalanceChanged",
      "type": "event"
    },
    {
      "anonymous": false,
      "inputs": [
        {
          "indexed": true,
          "internalType": "uint256",
          "name": "time",
          "type": "uint256"
        },
        {
          "indexed": true,
          "internalType": "address",
          "name": "hunter",
          "type": "address"
        },
        {
          "indexed": true,
          "internalType": "address",
          "name": "token",
          "type": "address"
        },
        {
          "indexed": false,
          "internalType": "uint256",
          "name": "amount",
          "type": "uint256"
        }
      ],
      "name": "BountyPaid",
      "type": "event"
    },
    {
      "anonymous": false,
      "inputs": [
        {
          "indexed": false,
          "internalType": "uint8",
          "name": "version",
          "type": "uint8"
        }
      ],
      "name": "Initialized",
      "type": "event"
    },
    {
      "anonymous": false,
      "inputs": [
        {
          "indexed": true,
          "internalType": "uint256",
          "name": "pid",
          "type": "uint256"
        },
        {
          "indexed": true,
          "internalType": "address",
          "name": "token",
          "type": "address"
        },
        {
          "indexed": true,
          "internalType": "uint256",
          "name": "tokenDecimals",
          "type": "uint256"
        }
      ],
      "name": "NewBountyDeployed",
      "type": "event"
    },
    {
      "anonymous": false,
      "inputs": [
        {
          "indexed": true,
          "internalType": "address",
          "name": "previousOwner",
          "type": "address"
        },
        {
          "indexed": true,
          "internalType": "address",
          "name": "newOwner",
          "type": "address"
        }
      ],
      "name": "OwnershipTransferred",
      "type": "event"
    },
    {
      "anonymous": false,
      "inputs": [
        {
          "indexed": true,
          "internalType": "uint256",
          "name": "pid",
          "type": "uint256"
        },
        {
          "indexed": true,
          "internalType": "uint256",
          "name": "amount",
          "type": "uint256"
        }
      ],
      "name": "PremiumBilled",
      "type": "event"
    },
    {
      "anonymous": false,
      "inputs": [
        {
          "indexed": true,
          "internalType": "address",
          "name": "user",
          "type": "address"
        },
        {
          "indexed": true,
          "internalType": "uint256",
          "name": "pid",
          "type": "uint256"
        },
        {
          "indexed": false,
          "internalType": "uint256",
          "name": "amount",
          "type": "uint256"
        }
      ],
      "name": "Staked",
      "type": "event"
    },
    {
      "anonymous": false,
      "inputs": [
        {
          "indexed": true,
          "internalType": "address",
          "name": "from",
          "type": "address"
        },
        {
          "indexed": true,
          "internalType": "address",
          "name": "to",
          "type": "address"
        },
        {
          "indexed": true,
          "internalType": "uint256",
          "name": "tokenId",
          "type": "uint256"
        }
      ],
      "name": "Transfer",
      "type": "event"
    },
    {
      "anonymous": false,
      "inputs": [
        {
          "indexed": true,
          "internalType": "address",
          "name": "user",
          "type": "address"
        },
        {
          "indexed": true,
          "internalType": "uint256",
          "name": "pid",
          "type": "uint256"
        },
        {
          "indexed": false,
          "internalType": "uint256",
          "name": "amount",
          "type": "uint256"
        }
      ],
      "name": "Unstaked",
      "type": "event"
    },
    {
      "anonymous": false,
      "inputs": [
        {
          "indexed": true,
          "internalType": "address",
          "name": "implementation",
          "type": "address"
        }
      ],
      "name": "Upgraded",
      "type": "event"
    },
    {
      "anonymous": false,
      "inputs": [
        {
          "indexed": true,
          "internalType": "uint256",
          "name": "pid",
          "type": "uint256"
        },
        {
          "indexed": true,
          "internalType": "uint256",
          "name": "amount",
          "type": "uint256"
        }
      ],
      "name": "WithdrawalOrUnstakeScheduled",
      "type": "event"
    },
    {
      "anonymous": false,
      "inputs": [
        {
          "indexed": true,
          "internalType": "address",
          "name": "token",
          "type": "address"
        },
        {
          "indexed": true,
          "internalType": "bool",
          "name": "whitelisted",
          "type": "bool"
        }
      ],
      "name": "tokenWhitelistUpdated",
      "type": "event"
    },
    {
      "inputs": [],
      "name": "acceptOwnershipTransfer",
      "outputs": [],
      "stateMutability": "nonpayable",
      "type": "function"
    },
    {
      "inputs": [
        {
          "internalType": "uint256",
          "name": "",
          "type": "uint256"
        }
      ],
      "name": "activeStrategies",
      "outputs": [
        {
          "internalType": "bytes32",
          "name": "",
          "type": "bytes32"
        }
      ],
      "stateMutability": "view",
      "type": "function"
    },
    {
      "inputs": [
        {
          "internalType": "uint256",
          "name": "",
          "type": "uint256"
        }
      ],
      "name": "activeTokens",
      "outputs": [
        {
          "internalType": "address",
          "name": "",
          "type": "address"
        }
      ],
      "stateMutability": "view",
      "type": "function"
    },
    {
      "inputs": [
        {
          "internalType": "address",
          "name": "_token",
          "type": "address"
        },
        {
          "internalType": "address",
          "name": "_projectWallet",
          "type": "address"
        },
        {
          "internalType": "string",
          "name": "_projectName",
          "type": "string"
        }
      ],
      "name": "addNewBountyPool",
      "outputs": [
        {
          "internalType": "uint256",
          "name": "",
          "type": "uint256"
        }
      ],
      "stateMutability": "nonpayable",
      "type": "function"
    },
    {
      "inputs": [
        {
          "internalType": "address",
          "name": "to",
          "type": "address"
        },
        {
          "internalType": "uint256",
          "name": "tokenId",
          "type": "uint256"
        }
      ],
      "name": "approve",
      "outputs": [],
      "stateMutability": "nonpayable",
      "type": "function"
    },
    {
      "inputs": [
        {
          "internalType": "address",
          "name": "owner",
          "type": "address"
        }
      ],
      "name": "balanceOf",
      "outputs": [
        {
          "internalType": "uint256",
          "name": "",
          "type": "uint256"
        }
      ],
      "stateMutability": "view",
      "type": "function"
    },
    {
      "inputs": [
        {
          "internalType": "uint256",
          "name": "_pid",
          "type": "uint256"
        }
      ],
      "name": "billPremium",
      "outputs": [
        {
          "internalType": "bool",
          "name": "",
          "type": "bool"
        }
      ],
      "stateMutability": "nonpayable",
      "type": "function"
    },
    {
      "inputs": [
        {
          "internalType": "uint256",
          "name": "_poolCap",
          "type": "uint256"
        },
        {
          "internalType": "uint256",
          "name": "_apy",
          "type": "uint256"
        }
      ],
      "name": "calcRequiredPremiumBalancePerPeriod",
      "outputs": [
        {
          "internalType": "uint256",
          "name": "requiredPremiumBalance",
          "type": "uint256"
        }
      ],
      "stateMutability": "pure",
      "type": "function"
    },
    {
      "inputs": [
        {
          "internalType": "uint256",
          "name": "_pid",
          "type": "uint256"
        },
        {
          "internalType": "uint256",
          "name": "_stake",
          "type": "uint256"
        }
      ],
      "name": "calculateEffectiveAPY",
      "outputs": [
        {
          "internalType": "uint256",
          "name": "scaledAPY",
          "type": "uint256"
        }
      ],
      "stateMutability": "view",
      "type": "function"
    },
    {
      "inputs": [
        {
          "internalType": "uint256",
          "name": "_tokenId",
          "type": "uint256"
        }
      ],
      "name": "claimPremium",
      "outputs": [],
      "stateMutability": "nonpayable",
      "type": "function"
    },
    {
      "inputs": [
        {
          "internalType": "address",
          "name": "_saloonWallet",
          "type": "address"
        }
      ],
      "name": "collectAllSaloonProfits",
      "outputs": [
        {
          "internalType": "bool",
          "name": "",
          "type": "bool"
        }
      ],
      "stateMutability": "nonpayable",
      "type": "function"
    },
    {
      "inputs": [
        {
          "internalType": "address",
          "name": "_token",
          "type": "address"
        },
        {
          "internalType": "address",
          "name": "_saloonWallet",
          "type": "address"
        }
      ],
      "name": "collectSaloonProfits",
      "outputs": [
        {
          "internalType": "bool",
          "name": "",
          "type": "bool"
        }
      ],
      "stateMutability": "nonpayable",
      "type": "function"
    },
    {
      "inputs": [],
      "name": "consolidate",
      "outputs": [],
      "stateMutability": "nonpayable",
      "type": "function"
    },
    {
      "inputs": [
        {
          "internalType": "uint256",
          "name": "_pid",
          "type": "uint256"
        }
      ],
      "name": "consolidate",
      "outputs": [],
      "stateMutability": "nonpayable",
      "type": "function"
    },
    {
      "inputs": [],
      "name": "consolidateAll",
      "outputs": [],
      "stateMutability": "nonpayable",
      "type": "function"
    },
    {
      "inputs": [
        {
          "internalType": "uint256",
          "name": "tokenId",
          "type": "uint256"
        }
      ],
      "name": "getApproved",
      "outputs": [
        {
          "internalType": "address",
          "name": "",
          "type": "address"
        }
      ],
      "stateMutability": "view",
      "type": "function"
    },
    {
      "inputs": [
        {
          "internalType": "uint256",
          "name": "_pid",
          "type": "uint256"
        }
      ],
      "name": "getCurrentAPY",
      "outputs": [
        {
          "internalType": "uint256",
          "name": "currentAPY",
          "type": "uint256"
        }
      ],
      "stateMutability": "view",
      "type": "function"
    },
    {
      "inputs": [
        {
          "internalType": "uint256",
          "name": "_from",
          "type": "uint256"
        },
        {
          "internalType": "uint256",
          "name": "_to",
          "type": "uint256"
        }
      ],
      "name": "getMultiplier",
      "outputs": [
        {
          "internalType": "uint256",
          "name": "",
          "type": "uint256"
        }
      ],
      "stateMutability": "pure",
      "type": "function"
    },
    {
      "inputs": [],
      "name": "index",
      "outputs": [
        {
          "internalType": "uint256",
          "name": "",
          "type": "uint256"
        }
      ],
      "stateMutability": "view",
      "type": "function"
    },
    {
      "inputs": [
        {
          "internalType": "address",
          "name": "_strategyFactory",
          "type": "address"
        }
      ],
      "name": "initialize",
      "outputs": [],
      "stateMutability": "nonpayable",
      "type": "function"
    },
    {
      "inputs": [
        {
          "internalType": "address",
          "name": "owner",
          "type": "address"
        },
        {
          "internalType": "address",
          "name": "operator",
          "type": "address"
        }
      ],
      "name": "isApprovedForAll",
      "outputs": [
        {
          "internalType": "bool",
          "name": "",
          "type": "bool"
        }
      ],
      "stateMutability": "view",
      "type": "function"
    },
    {
      "inputs": [
        {
          "internalType": "uint256",
          "name": "_pid",
          "type": "uint256"
        },
        {
          "internalType": "uint256",
          "name": "_deposit",
          "type": "uint256"
        },
        {
          "internalType": "string",
          "name": "_strategyName",
          "type": "string"
        }
      ],
      "name": "makeProjectDeposit",
      "outputs": [],
      "stateMutability": "nonpayable",
      "type": "function"
    },
    {
      "inputs": [
        {
          "internalType": "address",
          "name": "",
          "type": "address"
        }
      ],
      "name": "minTokenStakeAmount",
      "outputs": [
        {
          "internalType": "uint256",
          "name": "",
          "type": "uint256"
        }
      ],
      "stateMutability": "view",
      "type": "function"
    },
    {
      "inputs": [],
      "name": "name",
      "outputs": [
        {
          "internalType": "string",
          "name": "",
          "type": "string"
        }
      ],
      "stateMutability": "view",
      "type": "function"
    },
    {
      "inputs": [
        {
          "internalType": "uint256",
          "name": "",
          "type": "uint256"
        }
      ],
      "name": "nftAPY",
      "outputs": [
        {
          "internalType": "uint256",
          "name": "",
          "type": "uint256"
        }
      ],
      "stateMutability": "view",
      "type": "function"
    },
    {
      "inputs": [
        {
          "internalType": "uint256",
          "name": "",
          "type": "uint256"
        }
      ],
      "name": "nftBalance",
      "outputs": [
        {
          "internalType": "uint256",
          "name": "",
          "type": "uint256"
        }
      ],
      "stateMutability": "view",
      "type": "function"
    },
    {
      "inputs": [
        {
          "internalType": "uint256",
          "name": "",
          "type": "uint256"
        }
      ],
      "name": "nftInfo",
      "outputs": [
        {
          "internalType": "uint256",
          "name": "amount",
          "type": "uint256"
        },
        {
          "internalType": "uint256",
          "name": "apy",
          "type": "uint256"
        },
        {
          "internalType": "uint256",
          "name": "unclaimed",
          "type": "uint256"
        },
        {
          "internalType": "uint256",
          "name": "lastClaimedTime",
          "type": "uint256"
        },
        {
          "internalType": "uint256",
          "name": "timelock",
          "type": "uint256"
        },
        {
          "internalType": "uint256",
          "name": "timelimit",
          "type": "uint256"
        }
      ],
      "stateMutability": "view",
      "type": "function"
    },
    {
      "inputs": [
        {
          "internalType": "uint256",
          "name": "",
          "type": "uint256"
        }
      ],
      "name": "nftToPid",
      "outputs": [
        {
          "internalType": "uint256",
          "name": "",
          "type": "uint256"
        }
      ],
      "stateMutability": "view",
      "type": "function"
    },
    {
      "inputs": [],
      "name": "owner",
      "outputs": [
        {
          "internalType": "address",
          "name": "",
          "type": "address"
        }
      ],
      "stateMutability": "view",
      "type": "function"
    },
    {
      "inputs": [
        {
          "internalType": "uint256",
          "name": "tokenId",
          "type": "uint256"
        }
      ],
      "name": "ownerOf",
      "outputs": [
        {
          "internalType": "address",
          "name": "",
          "type": "address"
        }
      ],
      "stateMutability": "view",
      "type": "function"
    },
    {
      "inputs": [
        {
          "internalType": "uint256",
          "name": "_pid",
          "type": "uint256"
        },
        {
          "internalType": "address",
          "name": "_hunter",
          "type": "address"
        },
        {
          "internalType": "uint256",
          "name": "_amount",
          "type": "uint256"
        }
      ],
      "name": "payBounty",
      "outputs": [
        {
          "internalType": "bool",
          "name": "",
          "type": "bool"
        }
      ],
      "stateMutability": "nonpayable",
      "type": "function"
    },
    {
      "inputs": [
        {
          "internalType": "uint256",
          "name": "_tokenId",
          "type": "uint256"
        }
      ],
      "name": "pendingPremium",
      "outputs": [
        {
          "internalType": "uint256",
          "name": "totalPending",
          "type": "uint256"
        },
        {
          "internalType": "uint256",
          "name": "actualPending",
          "type": "uint256"
        },
        {
          "internalType": "uint256",
          "name": "newPending",
          "type": "uint256"
        }
      ],
      "stateMutability": "view",
      "type": "function"
    },
    {
      "inputs": [
        {
          "internalType": "uint256",
          "name": "",
          "type": "uint256"
        },
        {
          "internalType": "uint256",
          "name": "",
          "type": "uint256"
        }
      ],
      "name": "pidNFTList",
      "outputs": [
        {
          "internalType": "uint256",
          "name": "",
          "type": "uint256"
        }
      ],
      "stateMutability": "view",
      "type": "function"
    },
    {
      "inputs": [
        {
          "internalType": "uint256",
          "name": "",
          "type": "uint256"
        },
        {
          "internalType": "bytes32",
          "name": "",
          "type": "bytes32"
        }
      ],
      "name": "pidStrategies",
      "outputs": [
        {
          "internalType": "address",
          "name": "",
          "type": "address"
        }
      ],
      "stateMutability": "view",
      "type": "function"
    },
    {
      "inputs": [
        {
          "internalType": "uint256",
          "name": "",
          "type": "uint256"
        }
      ],
      "name": "poolInfo",
      "outputs": [
        {
          "components": [
            {
              "internalType": "contract IERC20",
              "name": "token",
              "type": "address"
            },
            {
              "internalType": "uint8",
              "name": "tokenDecimals",
              "type": "uint8"
            },
            {
              "internalType": "uint16",
              "name": "apy",
              "type": "uint16"
            },
            {
              "internalType": "address",
              "name": "projectWallet",
              "type": "address"
            },
            {
              "internalType": "string",
              "name": "projectName",
              "type": "string"
            },
            {
              "internalType": "uint256",
              "name": "poolCap",
              "type": "uint256"
            },
            {
              "internalType": "uint256",
              "name": "totalStaked",
              "type": "uint256"
            },
            {
              "internalType": "uint256",
              "name": "multiplier",
              "type": "uint256"
            }
          ],
          "internalType": "struct ISaloon.GeneralInfo",
          "name": "generalInfo",
          "type": "tuple"
        },
        {
          "components": [
            {
              "internalType": "uint256",
              "name": "projectDepositHeld",
              "type": "uint256"
            },
            {
              "internalType": "uint256",
              "name": "projectDepositInStrategy",
              "type": "uint256"
            }
          ],
          "internalType": "struct ISaloon.DepositInfo",
          "name": "depositInfo",
          "type": "tuple"
        },
        {
          "components": [
            {
              "internalType": "uint256",
              "name": "premiumBalance",
              "type": "uint256"
            },
            {
              "internalType": "uint256",
              "name": "premiumAvailable",
              "type": "uint256"
            }
          ],
          "internalType": "struct ISaloon.PremiumInfo",
          "name": "premiumInfo",
          "type": "tuple"
        },
        {
          "components": [
            {
              "internalType": "uint256",
              "name": "timelock",
              "type": "uint256"
            },
            {
              "internalType": "uint256",
              "name": "timeLimit",
              "type": "uint256"
            },
            {
              "internalType": "uint256",
              "name": "withdrawalScheduledAmount",
              "type": "uint256"
            },
            {
              "internalType": "bool",
              "name": "withdrawalExecuted",
              "type": "bool"
            }
          ],
          "internalType": "struct ISaloon.TimelockInfo",
          "name": "poolTimelock",
          "type": "tuple"
        },
        {
          "components": [
            {
              "internalType": "uint256",
              "name": "currentX",
              "type": "uint256"
            },
            {
              "internalType": "uint256",
              "name": "currentY",
              "type": "uint256"
            },
            {
              "internalType": "uint256",
              "name": "totalSupply",
              "type": "uint256"
            },
            {
              "internalType": "bool",
              "name": "needsConsolidation",
              "type": "bool"
            }
          ],
          "internalType": "struct ISaloon.TokenInfo",
          "name": "tokenInfo",
          "type": "tuple"
        },
        {
          "internalType": "uint256",
          "name": "freezeTime",
          "type": "uint256"
        },
        {
          "internalType": "bool",
          "name": "isActive",
          "type": "bool"
        }
      ],
      "stateMutability": "view",
      "type": "function"
    },
    {
      "inputs": [],
      "name": "poolLength",
      "outputs": [
        {
          "internalType": "uint256",
          "name": "",
          "type": "uint256"
        }
      ],
      "stateMutability": "view",
      "type": "function"
    },
    {
      "inputs": [
        {
          "internalType": "uint256",
          "name": "_pid",
          "type": "uint256"
        },
        {
          "internalType": "uint256",
          "name": "_amount",
          "type": "uint256"
        }
      ],
      "name": "projectDepositWithdrawal",
      "outputs": [
        {
          "internalType": "bool",
          "name": "",
          "type": "bool"
        }
      ],
      "stateMutability": "nonpayable",
      "type": "function"
    },
    {
      "inputs": [],
      "name": "proxiableUUID",
      "outputs": [
        {
          "internalType": "bytes32",
          "name": "",
          "type": "bytes32"
        }
      ],
      "stateMutability": "view",
      "type": "function"
    },
    {
      "inputs": [
        {
          "internalType": "address",
          "name": "from",
          "type": "address"
        },
        {
          "internalType": "address",
          "name": "to",
          "type": "address"
        },
        {
          "internalType": "uint256",
          "name": "tokenId",
          "type": "uint256"
        }
      ],
      "name": "safeTransferFrom",
      "outputs": [],
      "stateMutability": "nonpayable",
      "type": "function"
    },
    {
      "inputs": [
        {
          "internalType": "address",
          "name": "from",
          "type": "address"
        },
        {
          "internalType": "address",
          "name": "to",
          "type": "address"
        },
        {
          "internalType": "uint256",
          "name": "tokenId",
          "type": "uint256"
        },
        {
          "internalType": "bytes",
          "name": "data",
          "type": "bytes"
        }
      ],
      "name": "safeTransferFrom",
      "outputs": [],
      "stateMutability": "nonpayable",
      "type": "function"
    },
    {
      "inputs": [
        {
          "internalType": "address",
          "name": "",
          "type": "address"
        }
      ],
      "name": "saloonBountyProfit",
      "outputs": [
        {
          "internalType": "uint256",
          "name": "",
          "type": "uint256"
        }
      ],
      "stateMutability": "view",
      "type": "function"
    },
    {
      "inputs": [
        {
          "internalType": "address",
          "name": "",
          "type": "address"
        }
      ],
      "name": "saloonPremiumProfit",
      "outputs": [
        {
          "internalType": "uint256",
          "name": "",
          "type": "uint256"
        }
      ],
      "stateMutability": "view",
      "type": "function"
    },
    {
      "inputs": [
        {
          "internalType": "uint256",
          "name": "_pid",
          "type": "uint256"
        },
        {
          "internalType": "uint256",
          "name": "_amount",
          "type": "uint256"
        }
      ],
      "name": "scheduleProjectDepositWithdrawal",
      "outputs": [
        {
          "internalType": "bool",
          "name": "",
          "type": "bool"
        }
      ],
      "stateMutability": "nonpayable",
      "type": "function"
    },
    {
      "inputs": [
        {
          "internalType": "uint256",
          "name": "_tokenId",
          "type": "uint256"
        }
      ],
      "name": "scheduleUnstake",
      "outputs": [
        {
          "internalType": "bool",
          "name": "",
          "type": "bool"
        }
      ],
      "stateMutability": "nonpayable",
      "type": "function"
    },
    {
      "inputs": [
        {
          "internalType": "uint256",
          "name": "_pid",
          "type": "uint256"
        },
        {
          "internalType": "uint256",
          "name": "_poolCap",
          "type": "uint256"
        },
        {
          "internalType": "uint16",
          "name": "_apy",
          "type": "uint16"
        },
        {
          "internalType": "uint256",
          "name": "_deposit",
          "type": "uint256"
        },
        {
          "internalType": "string",
          "name": "_strategyName",
          "type": "string"
        }
      ],
      "name": "setAPYandPoolCapAndDeposit",
      "outputs": [],
      "stateMutability": "nonpayable",
      "type": "function"
    },
    {
      "inputs": [
        {
          "internalType": "address",
          "name": "operator",
          "type": "address"
        },
        {
          "internalType": "bool",
          "name": "approved",
          "type": "bool"
        }
      ],
      "name": "setApprovalForAll",
      "outputs": [],
      "stateMutability": "nonpayable",
      "type": "function"
    },
    {
      "inputs": [
        {
          "internalType": "uint256",
          "name": "_pid",
          "type": "uint256"
        },
        {
          "internalType": "uint256",
          "name": "_amount",
          "type": "uint256"
        }
      ],
      "name": "stake",
      "outputs": [
        {
          "internalType": "uint256",
          "name": "",
          "type": "uint256"
        }
      ],
      "stateMutability": "nonpayable",
      "type": "function"
    },
    {
      "inputs": [
        {
          "internalType": "bytes4",
          "name": "interfaceId",
          "type": "bytes4"
        }
      ],
      "name": "supportsInterface",
      "outputs": [
        {
          "internalType": "bool",
          "name": "",
          "type": "bool"
        }
      ],
      "stateMutability": "view",
      "type": "function"
    },
    {
      "inputs": [],
      "name": "symbol",
      "outputs": [
        {
          "internalType": "string",
          "name": "",
          "type": "string"
        }
      ],
      "stateMutability": "view",
      "type": "function"
    },
    {
      "inputs": [
        {
          "internalType": "uint256",
          "name": "tokenId",
          "type": "uint256"
        }
      ],
      "name": "tokenURI",
      "outputs": [
        {
          "internalType": "string",
          "name": "",
          "type": "string"
        }
      ],
      "stateMutability": "view",
      "type": "function"
    },
    {
      "inputs": [
        {
          "internalType": "address",
          "name": "",
          "type": "address"
        }
      ],
      "name": "tokenWhitelist",
      "outputs": [
        {
          "internalType": "bool",
          "name": "",
          "type": "bool"
        }
      ],
      "stateMutability": "view",
      "type": "function"
    },
    {
      "inputs": [
        {
          "internalType": "address",
          "name": "from",
          "type": "address"
        },
        {
          "internalType": "address",
          "name": "to",
          "type": "address"
        },
        {
          "internalType": "uint256",
          "name": "tokenId",
          "type": "uint256"
        }
      ],
      "name": "transferFrom",
      "outputs": [],
      "stateMutability": "nonpayable",
      "type": "function"
    },
    {
      "inputs": [
        {
          "internalType": "address",
          "name": "newOwner",
          "type": "address"
        }
      ],
      "name": "transferOwnership",
      "outputs": [],
      "stateMutability": "nonpayable",
      "type": "function"
    },
    {
      "inputs": [
        {
          "internalType": "uint256",
          "name": "_tokenId",
          "type": "uint256"
        },
        {
          "internalType": "bool",
          "name": "_shouldHarvest",
          "type": "bool"
        }
      ],
      "name": "unstake",
      "outputs": [
        {
          "internalType": "bool",
          "name": "",
          "type": "bool"
        }
      ],
      "stateMutability": "nonpayable",
      "type": "function"
    },
    {
      "inputs": [
        {
          "internalType": "address",
          "name": "_strategyFactory",
          "type": "address"
        }
      ],
      "name": "updateStrategyFactoryAddress",
      "outputs": [],
      "stateMutability": "nonpayable",
      "type": "function"
    },
    {
      "inputs": [
        {
          "internalType": "address",
          "name": "_token",
          "type": "address"
        },
        {
          "internalType": "bool",
          "name": "_whitelisted",
          "type": "bool"
        },
        {
          "internalType": "uint256",
          "name": "_minStakeAmount",
          "type": "uint256"
        }
      ],
      "name": "updateTokenWhitelist",
      "outputs": [
        {
          "internalType": "bool",
          "name": "",
          "type": "bool"
        }
      ],
      "stateMutability": "nonpayable",
      "type": "function"
    },
    {
      "inputs": [
        {
          "internalType": "address",
          "name": "newImplementation",
          "type": "address"
        }
      ],
      "name": "upgradeTo",
      "outputs": [],
      "stateMutability": "nonpayable",
      "type": "function"
    },
    {
      "inputs": [
        {
          "internalType": "address",
          "name": "newImplementation",
          "type": "address"
        },
        {
          "internalType": "bytes",
          "name": "data",
          "type": "bytes"
        }
      ],
      "name": "upgradeToAndCall",
      "outputs": [],
      "stateMutability": "payable",
      "type": "function"
    },
    {
      "inputs": [
        {
          "internalType": "uint256",
          "name": "_pid",
          "type": "uint256"
        }
      ],
      "name": "viewBountyBalance",
      "outputs": [
        {
          "internalType": "uint256",
          "name": "",
          "type": "uint256"
        }
      ],
      "stateMutability": "view",
      "type": "function"
    },
    {
      "inputs": [
        {
          "internalType": "uint256",
          "name": "_pid",
          "type": "uint256"
        }
      ],
      "name": "viewBountyInfo",
      "outputs": [
        {
          "internalType": "uint256",
          "name": "payout",
          "type": "uint256"
        },
        {
          "internalType": "uint256",
          "name": "apy",
          "type": "uint256"
        },
        {
          "internalType": "uint256",
          "name": "staked",
          "type": "uint256"
        },
        {
          "internalType": "uint256",
          "name": "poolCap",
          "type": "uint256"
        }
      ],
      "stateMutability": "view",
      "type": "function"
    },
    {
      "inputs": [
        {
          "internalType": "uint256",
          "name": "_pid",
          "type": "uint256"
        }
      ],
      "name": "viewHackerPayout",
      "outputs": [
        {
          "internalType": "uint256",
          "name": "",
          "type": "uint256"
        }
      ],
      "stateMutability": "view",
      "type": "function"
    },
    {
      "inputs": [
        {
          "internalType": "uint256",
          "name": "_pid",
          "type": "uint256"
        }
      ],
      "name": "viewMinProjectDeposit",
      "outputs": [
        {
          "internalType": "uint256",
          "name": "",
          "type": "uint256"
        }
      ],
      "stateMutability": "view",
      "type": "function"
    },
    {
      "inputs": [
        {
          "internalType": "uint256",
          "name": "_pid",
          "type": "uint256"
        }
      ],
      "name": "viewPoolAPY",
      "outputs": [
        {
          "internalType": "uint256",
          "name": "",
          "type": "uint256"
        }
      ],
      "stateMutability": "view",
      "type": "function"
    },
    {
      "inputs": [
        {
          "internalType": "uint256",
          "name": "_pid",
          "type": "uint256"
        }
      ],
      "name": "viewPoolCap",
      "outputs": [
        {
          "internalType": "uint256",
          "name": "",
          "type": "uint256"
        }
      ],
      "stateMutability": "view",
      "type": "function"
    },
    {
      "inputs": [
        {
          "internalType": "uint256",
          "name": "_pid",
          "type": "uint256"
        }
      ],
      "name": "viewPoolPremiumInfo",
      "outputs": [
        {
          "internalType": "uint256",
          "name": "requiredPremiumBalancePerPeriod",
          "type": "uint256"
        },
        {
          "internalType": "uint256",
          "name": "premiumBalance",
          "type": "uint256"
        },
        {
          "internalType": "uint256",
          "name": "premiumAvailable",
          "type": "uint256"
        }
      ],
      "stateMutability": "view",
      "type": "function"
    },
    {
      "inputs": [
        {
          "internalType": "uint256",
          "name": "_pid",
          "type": "uint256"
        }
      ],
      "name": "viewPoolTimelockInfo",
      "outputs": [
        {
          "internalType": "uint256",
          "name": "timelock",
          "type": "uint256"
        },
        {
          "internalType": "uint256",
          "name": "timeLimit",
          "type": "uint256"
        },
        {
          "internalType": "uint256",
          "name": "withdrawalScheduledAmount",
          "type": "uint256"
        }
      ],
      "stateMutability": "view",
      "type": "function"
    },
    {
      "inputs": [
        {
          "internalType": "address",
          "name": "_token",
          "type": "address"
        }
      ],
      "name": "viewSaloonProfitBalance",
      "outputs": [
        {
          "internalType": "uint256",
          "name": "totalProfit",
          "type": "uint256"
        },
        {
          "internalType": "uint256",
          "name": "bountyProfit",
          "type": "uint256"
        },
        {
          "internalType": "uint256",
          "name": "premiumProfit",
          "type": "uint256"
        }
      ],
      "stateMutability": "view",
      "type": "function"
    },
    {
      "inputs": [
        {
          "internalType": "uint256",
          "name": "_tokenId",
          "type": "uint256"
        }
      ],
      "name": "viewTokenInfo",
      "outputs": [
        {
          "internalType": "uint256",
          "name": "amount",
          "type": "uint256"
        },
        {
          "internalType": "uint256",
          "name": "apy",
          "type": "uint256"
        },
        {
          "internalType": "uint256",
          "name": "actualPending",
          "type": "uint256"
        },
        {
          "internalType": "uint256",
          "name": "unclaimed",
          "type": "uint256"
        },
        {
          "internalType": "uint256",
          "name": "timelock",
          "type": "uint256"
        }
      ],
      "stateMutability": "view",
      "type": "function"
    },
    {
      "inputs": [
        {
          "internalType": "uint256",
          "name": "_pid",
          "type": "uint256"
        }
      ],
      "name": "viewTotalStaked",
      "outputs": [
        {
          "internalType": "uint256",
          "name": "",
          "type": "uint256"
        }
      ],
      "stateMutability": "view",
      "type": "function"
    },
    {
      "inputs": [
        {
          "internalType": "uint256",
          "name": "_tokenId",
          "type": "uint256"
        }
      ],
      "name": "viewUserUnclaimed",
      "outputs": [
        {
          "internalType": "uint256",
          "name": "unclaimed",
          "type": "uint256"
        }
      ],
      "stateMutability": "view",
      "type": "function"
    },
    {
      "inputs": [
        {
          "internalType": "uint256",
          "name": "_pid",
          "type": "uint256"
        }
      ],
      "name": "windDownBounty",
      "outputs": [
        {
          "internalType": "bool",
          "name": "",
          "type": "bool"
        }
      ],
      "stateMutability": "nonpayable",
      "type": "function"
    }
  ],
  "bytecode": {
    "object": "0x60a0604052306080523480156200001557600080fd5b50600160ca55600054610100900460ff16158080156200003c5750600054600160ff909116105b806200006c575062000059306200019760201b6200554a1760201c565b1580156200006c575060005460ff166001145b620000d55760405162461bcd60e51b815260206004820152602e60248201527f496e697469616c697a61626c653a20636f6e747261637420697320616c72656160448201526d191e481a5b9a5d1a585b1a5e995960921b60648201526084015b60405180910390fd5b6000805460ff191660011790558015620000f9576000805461ff0019166101001790555b620001496040518060400160405280600b81526020016a2137bab73a3caa37b5b2b760a91b8152506040518060400160405280600381526020016210951560ea1b815250620001a660201b60201c565b801562000190576000805461ff0019169055604051600181527f7f26b83ff96e1f2b6a682f133852f6798a09c465da95921460cefb38474024989060200160405180910390a15b5062000400565b6001600160a01b03163b151590565b600054610100900460ff16620002025760405162461bcd60e51b815260206004820152602b60248201526000805160206200884183398151915260448201526a6e697469616c697a696e6760a81b6064820152608401620000cc565b6200020e828262000212565b5050565b600054610100900460ff166200026e5760405162461bcd60e51b815260206004820152602b60248201526000805160206200884183398151915260448201526a6e697469616c697a696e6760a81b6064820152608401620000cc565b60fd6200027c838262000334565b5060fe6200028b828262000334565b505050565b634e487b7160e01b600052604160045260246000fd5b600181811c90821680620002bb57607f821691505b602082108103620002dc57634e487b7160e01b600052602260045260246000fd5b50919050565b601f8211156200028b57600081815260208120601f850160051c810160208610156200030b5750805b601f850160051c820191505b818110156200032c5782815560010162000317565b505050505050565b81516001600160401b0381111562000350576200035062000290565b6200036881620003618454620002a6565b84620002e2565b602080601f831160018114620003a05760008415620003875750858301515b600019600386901b1c1916600185901b1785556200032c565b600085815260208120601f198616915b82811015620003d157888601518255948401946001909101908401620003b0565b5085821015620003f05787850151600019600388901b60f8161c191681555b5050505050600190811b01905550565b6080516184096200043860003960008181611bb701528181611bf7015281816126da0152818161271a01526127ad01526184096000f3fe6080604052600436106104105760003560e01c8063724f024b1161021e578063ac30b85611610123578063ca006148116100ab578063e63d6ee41161007a578063e63d6ee414610d9a578063e985e9c514610dc8578063ecd7fbed14610e12578063f2fde38b14610e32578063f47ec3be14610e5257600080fd5b8063ca00614814610cfe578063cf9564b914610d2c578063dbdd695714610d4c578063e45abd0f14610d6c57600080fd5b8063b842e87f116100f2578063b842e87f14610c69578063b88d4fde14610c7e578063bb7019c114610c9e578063c4d66de814610cbe578063c87b56dd14610cde57600080fd5b8063ac30b85614610bdb578063ae07f94814610bfb578063b1a2d16f14610c1b578063b20b242914610c3b57600080fd5b80638dbb1e3a116101a6578063983c1ce011610175578063983c1ce014610b3b5780639ebea88c14610b5b5780639f224f3514610b7b578063a22cb46514610b9b578063a27f921314610bbb57600080fd5b80638dbb1e3a14610ac6578063949a4a4a14610ae657806395d89b4114610b0657806396ea48e814610b1b57600080fd5b80637fbf3853116101ed5780637fbf385314610a28578063804fd59014610a48578063836ef1fa14610a68578063861e5f6614610a885780638da5cb5b14610aa857600080fd5b8063724f024b146109b6578063753d7563146109c257806375bfd63d146109f35780637b0472f014610a0857600080fd5b806330ca0794116103245780634f1ef286116102ac578063612afc0c1161027b578063612afc0c146109085780636352211e146109365780636ac6d8121461095657806370a0823114610976578063718c7eef1461099657600080fd5b80634f1ef286146108a057806352d1902d146108b35780635669cbef146108c85780635c46f7b1146108e857600080fd5b806339679ff4116102f357806339679ff4146107c55780633ac6ad7b146107e557806340bd1d001461080557806340ef28681461084057806342842e0e1461088057600080fd5b806330ca0794146107375780633538fda0146107575780633659cfe614610777578063394587231461079757600080fd5b80631526fe27116103a75780631f8bc790116103765780631f8bc7901461064257806323b872dd146106c05780632986c0e5146106e05780632cb0dfcc146106f75780632dbe051e1461071757600080fd5b80631526fe271461059057806319693071146105c35780631c6b323f146105f45780631df566221461061457600080fd5b8063081e3eda116103e3578063081e3eda146104e6578063095ea7b314610506578063106d08df14610528578063107258521461054857600080fd5b806301ffc9a71461041557806306fdde031461044a578063074ecf031461046c578063081812fc146104c6575b600080fd5b34801561042157600080fd5b5061043561043036600461773a565b610e72565b60405190151581526020015b60405180910390f35b34801561045657600080fd5b5061045f610ec4565b60405161044191906177a7565b34801561047857600080fd5b506104ae6104873660046177ba565b6101396020908152600092835260408084209091529082529020546001600160a01b031681565b6040516001600160a01b039091168152602001610441565b3480156104d257600080fd5b506104ae6104e13660046177dc565b610f56565b3480156104f257600080fd5b50610130545b604051908152602001610441565b34801561051257600080fd5b5061052661052136600461780a565b610f7e565b005b34801561053457600080fd5b506104356105433660046177dc565b611098565b34801561055457600080fd5b506105686105633660046177dc565b611177565b604080519586526020860194909452928401919091526060830152608082015260a001610441565b34801561059c57600080fd5b506105b06105ab3660046177dc565b611204565b6040516104419796959493929190617836565b3480156105cf57600080fd5b506104f86105de3660046177dc565b6000908152610134602052604090206002015490565b34801561060057600080fd5b506104f861060f3660046177dc565b6113e3565b34801561062057600080fd5b506104f861062f3660046177dc565b6101326020526000908152604090205481565b34801561064e57600080fd5b5061069361065d3660046177dc565b61013460205260009081526040902080546001820154600283015460038401546004850154600590950154939492939192909186565b604080519687526020870195909552938501929092526060840152608083015260a082015260c001610441565b3480156106cc57600080fd5b506105266106db36600461795a565b611661565b3480156106ec57600080fd5b506104f86101035481565b34801561070357600080fd5b506104356107123660046179a9565b611692565b34801561072357600080fd5b506104356107323660046177dc565b6118e1565b34801561074357600080fd5b50610526610752366004617a7c565b6118fb565b34801561076357600080fd5b50610526610772366004617af0565b611b82565b34801561078357600080fd5b50610526610792366004617af0565b611bad565b3480156107a357600080fd5b506104f86107b2366004617af0565b61013d6020526000908152604090205481565b3480156107d157600080fd5b506104f86107e03660046177dc565b611c8c565b3480156107f157600080fd5b50610435610800366004617b0d565b611ef5565b34801561081157600080fd5b506108256108203660046177dc565b612307565b60408051938452602084019290925290820152606001610441565b34801561084c57600080fd5b5061086061085b3660046177dc565b61267c565b604080519485526020850193909352918301526060820152608001610441565b34801561088c57600080fd5b5061052661089b36600461795a565b6126b5565b6105266108ae366004617b34565b6126d0565b3480156108bf57600080fd5b506104f86127a0565b3480156108d457600080fd5b506104356108e33660046177ba565b612853565b3480156108f457600080fd5b506104f86109033660046177ba565b612979565b34801561091457600080fd5b506104f86109233660046177dc565b6101336020526000908152604090205481565b34801561094257600080fd5b506104ae6109513660046177dc565b612cf2565b34801561096257600080fd5b506104f86109713660046177dc565b612d52565b34801561098257600080fd5b506104f8610991366004617af0565b612fca565b3480156109a257600080fd5b506108256109b1366004617af0565b613051565b34801561052657600080fd5b3480156109ce57600080fd5b506104356109dd366004617af0565b61013b6020526000908152604090205460ff1681565b3480156109ff57600080fd5b5061052661308b565b348015610a1457600080fd5b506104f8610a233660046177ba565b6130b3565b348015610a3457600080fd5b506104f8610a433660046177dc565b61351d565b348015610a5457600080fd5b506104f8610a63366004617b84565b6137a5565b348015610a7457600080fd5b506104f8610a833660046177ba565b613b3b565b348015610a9457600080fd5b506104f8610aa33660046177dc565b613b71565b348015610ab457600080fd5b506033546001600160a01b03166104ae565b348015610ad257600080fd5b506104f8610ae13660046177ba565b613dff565b348015610af257600080fd5b50610526610b013660046177dc565b613e0b565b348015610b1257600080fd5b5061045f6141a6565b348015610b2757600080fd5b506104f8610b363660046177ba565b6141b5565b348015610b4757600080fd5b50610435610b563660046177ba565b6141e7565b348015610b6757600080fd5b50610435610b76366004617be6565b614361565b348015610b8757600080fd5b506104ae610b963660046177dc565b614551565b348015610ba757600080fd5b50610526610bb6366004617c16565b61457c565b348015610bc757600080fd5b506104f8610bd63660046177dc565b614587565b348015610be757600080fd5b50610825610bf63660046177dc565b6147f3565b348015610c0757600080fd5b50610526610c16366004617c44565b614a73565b348015610c2757600080fd5b50610825610c363660046177dc565b614b41565b348015610c4757600080fd5b506104f8610c563660046177dc565b61013a6020526000908152604090205481565b348015610c7557600080fd5b50610526614dd6565b348015610c8a57600080fd5b50610526610c99366004617c7e565b614e54565b348015610caa57600080fd5b50610435610cb93660046177dc565b614e8c565b348015610cca57600080fd5b50610526610cd9366004617af0565b614f58565b348015610cea57600080fd5b5061045f610cf93660046177dc565b615085565b348015610d0a57600080fd5b506104f8610d19366004617af0565b6101376020526000908152604090205481565b348015610d3857600080fd5b50610435610d47366004617cea565b6150f8565b348015610d5857600080fd5b506104f8610d673660046177dc565b615173565b348015610d7857600080fd5b506104f8610d87366004617af0565b6101366020526000908152604090205481565b348015610da657600080fd5b506104f8610db53660046177dc565b6101316020526000908152604090205481565b348015610dd457600080fd5b50610435610de3366004617cea565b6001600160a01b0391821660009081526101026020908152604080832093909416825291909152205460ff1690565b348015610e1e57600080fd5b50610435610e2d366004617af0565b6153dc565b348015610e3e57600080fd5b50610526610e4d366004617af0565b61549e565b348015610e5e57600080fd5b50610526610e6d3660046177dc565b61552d565b60006001600160e01b031982166380ac58cd60e01b1480610ea357506001600160e01b03198216635b5e139f60e01b145b80610ebe57506301ffc9a760e01b6001600160e01b03198316145b92915050565b606060fd8054610ed390617d18565b80601f0160208091040260200160405190810160405280929190818152602001828054610eff90617d18565b8015610f4c5780601f10610f2157610100808354040283529160200191610f4c565b820191906000526020600020905b815481529060010190602001808311610f2f57829003601f168201915b5050505050905090565b6000610f6182615559565b50600090815261010160205260409020546001600160a01b031690565b6000610f8982612cf2565b9050806001600160a01b0316836001600160a01b031603610ffb5760405162461bcd60e51b815260206004820152602160248201527f4552433732313a20617070726f76616c20746f2063757272656e74206f776e656044820152603960f91b60648201526084015b60405180910390fd5b336001600160a01b038216148061101757506110178133610de3565b6110895760405162461bcd60e51b815260206004820152603d60248201527f4552433732313a20617070726f76652063616c6c6572206973206e6f7420746f60448201527f6b656e206f776e6572206f7220617070726f76656420666f7220616c6c0000006064820152608401610ff2565b61109383836155b8565b505050565b6000336110a483612cf2565b6001600160a01b0316146110f05760405162461bcd60e51b815260206004820152601360248201527239b2b73232b91034b9903737ba1037bbb732b960691b6044820152606401610ff2565b6000828152610133602090815260408083205461013490925290912061111962093a8042617d68565b600482015561112b62093a8042617d68565b611138906203f480617d68565b60058201558054604051819084907fb3b9c925de3673837b40c6b4d4463a8f88dc821cd27e07f1ff6bf6abf96413a590600090a3506001949350505050565b600081815261013360209081526040808320546101348352818420825160c08101845281548082526001830154958201869052600283015494820194909452600382015460608201526004820154608082015260059091015460a0820152919391829182916111e588612307565b506040830151608090930151989a979950979196919550909350505050565b610130818154811061121557600080fd5b60009182526020918290206040805161010081018252601590930290910180546001600160a01b03808216855260ff600160a01b8304169585019590955261ffff600160a81b90910416918301919091526001810154909216606082015260028201805492935090918391608084019161128e90617d18565b80601f01602080910402602001604051908101604052809291908181526020018280546112ba90617d18565b80156113075780601f106112dc57610100808354040283529160200191611307565b820191906000526020600020905b8154815290600101906020018083116112ea57829003601f168201915b50505091835250506003820154602080830191909152600483015460408084019190915260059093015460609283015282518084018452600686015481526007860154818301528351808501855260088701548152600987015481840152845160808082018752600a8901548252600b89015482860152600c89015482880152600d89015460ff90811615158388015287519182018852600e8a01548252600f8a015495820195909552601089015496810196909652601188015484161515948601949094526013870154601490970154959691959094921687565b60008061013083815481106113fa576113fa617d7b565b6000918252602090912060408051610200810190915260159092020180546001600160a01b038082166101008501908152600160a01b830460ff16610120860152600160a81b90920461ffff1661014085015260018301541661016084015260028201805484929184916101808501919061147490617d18565b80601f01602080910402602001604051908101604052809291908181526020018280546114a090617d18565b80156114ed5780601f106114c2576101008083540402835291602001916114ed565b820191906000526020600020905b8154815290600101906020018083116114d057829003601f168201915b505050918352505060038201546020808301919091526004830154604080840191909152600590930154606092830152928452815180830183526006860154815260078601548185015284840152815180830183526008860154815260098601548185015284830152815160808082018452600a8701548252600b87015482860152600c87015482850152600d87015460ff9081161515838501528684019290925283518082018552600e8801548152600f8801548187015260108801548186015260118801549092161515928201929092529084015260128401805482518185028101850190935280835260a090940193919290919083018282801561161d57602002820191906000526020600020905b81546001600160a01b031681526001909101906020018083116115ff575b5050509183525050601382015460208083019190915260149092015460ff1615156040909101528181015190810151905191925061165a91617d68565b9392505050565b61166b3382615627565b6116875760405162461bcd60e51b8152600401610ff290617d91565b6110938383836156a6565b600061169c61580c565b6001600160a01b038416600090815261013b602052604090205460ff161515831514806116c7575082155b61170b5760405162461bcd60e51b81526020600482015260156024820152741dda1a5d195b1a5cdd08185b1c9958591e481cd95d605a1b6044820152606401610ff2565b6001600160a01b038416600081815261013b6020526040808220805460ff191687151590811790915590519092917f99795d51e5a8804307721456a7a9c2f0d7421f719d46a46d36e91fee7c85aa7691a382156117c35761013c8054600181019091557fa55c1639d917d7b7cbf3837f1642937d4507076edbe26b1a6008234bb0c495300180546001600160a01b0319166001600160a01b038616908117909155600090815261013d602052604090208290556118d7565b61013c5460005b818110156118d457600061013c82815481106117e8576117e8617d7b565b6000918252602090912001546001600160a01b039081169150871681036118c35761013c611817600185617dde565b8154811061182757611827617d7b565b60009182526020909120015461013c80546001600160a01b03909216918490811061185457611854617d7b565b9060005260206000200160006101000a8154816001600160a01b0302191690836001600160a01b0316021790555061013c80548061189457611894617df1565b600082815260209020810160001990810180546001600160a01b0319169055019055506001925061165a915050565b506118cd81617e07565b90506117ca565b50505b5060019392505050565b60006118eb61580c565b6118f6826000615866565b919050565b6000610130868154811061191157611911617d7b565b60009182526020909120601590910201601481015490915060ff1615801561193b57506003810154155b6119875760405162461bcd60e51b815260206004820152601860248201527f506f6f6c20616c726561647920696e697469616c697a656400000000000000006044820152606401610ff2565b60008461ffff161180156119a157506127108461ffff1611155b6119e05760405162461bcd60e51b815260206004820152601060248201526f415059206f7574206f662072616e676560801b6044820152606401610ff2565b80546119f790600160a01b900460ff16600a617f04565b611a02906064617f13565b8510158015611a3457508054611a2390600160a01b900460ff16600a617f04565b611a309062989680617f13565b8511155b611a785760405162461bcd60e51b8152602060048201526015602482015274506f6f6c20636170206f7574206f662072616e676560581b6044820152606401610ff2565b60018101546001600160a01b03163314611aa45760405162461bcd60e51b8152600401610ff290617f2a565b6000611ab4868661ffff16613b3b565b90506000612710611ac76103e884617f13565b611ad19190617f68565b9050611af53330611ae28589617d68565b86546001600160a01b03169291906159b1565b5084836006016000016000828254611b0d9190617d68565b909155505060038301879055825461ffff60a81b1916600160a81b61ffff88160217835560148301805460ff1916600117905560088301829055611b518183617dde565b6009840155611b648861ffff8816615a1f565b835115611b7857611b76888587615a76565b505b5050505050505050565b611b8a61580c565b61013880546001600160a01b0319166001600160a01b0392909216919091179055565b6001600160a01b037f0000000000000000000000000000000000000000000000000000000000000000163003611bf55760405162461bcd60e51b8152600401610ff290617f8a565b7f00000000000000000000000000000000000000000000000000000000000000006001600160a01b0316611c3e60008051602061838d833981519152546001600160a01b031690565b6001600160a01b031614611c645760405162461bcd60e51b8152600401610ff290617fd6565b611c6d81615c10565b60408051600080825260208201909252611c8991839190615c18565b50565b6000806101308381548110611ca357611ca3617d7b565b6000918252602090912060408051610200810190915260159092020180546001600160a01b038082166101008501908152600160a01b830460ff16610120860152600160a81b90920461ffff16610140850152600183015416610160840152600282018054849291849161018085019190611d1d90617d18565b80601f0160208091040260200160405190810160405280929190818152602001828054611d4990617d18565b8015611d965780601f10611d6b57610100808354040283529160200191611d96565b820191906000526020600020905b815481529060010190602001808311611d7957829003601f168201915b505050918352505060038201546020808301919091526004830154604080840191909152600590930154606092830152928452815180830183526006860154815260078601548185015284840152815180830183526008860154815260098601548185015284830152815160808082018452600a8701548252600b87015482860152600c87015482850152600d87015460ff9081161515838501528684019290925283518082018552600e8801548152600f8801548187015260108801548186015260118801549092161515928201929092529084015260128401805482518185028101850190935280835260a0909401939192909190830182828015611ec657602002820191906000526020600020905b81546001600160a01b03168152600190910190602001808311611ea8575b50505091835250506013820154602082015260149091015460ff1615156040909101525160a001519392505050565b6000611eff61580c565b60006101308581548110611f1557611f15617d7b565b60009182526020822060046015909202019081015490925090611f37876113e3565b611f419083617d68565b9050808286116120e757828603611fe85760008881526101356020526040812054905b81811015611fca5760008a815261013560205260408120805483908110611f8d57611f8d617d7b565b90600052602060002001549050600061013460008381526020019081526020016000209050611fbd826000615d83565b6000905550600101611f64565b50600060048601819055611fe290601287019061753e565b50612201565b600083611ffd670de0b6b3a764000089617f13565b6120079190617f68565b60008a815261013560205260408120549192505b818110156120df5760008b81526101356020526040812080548390811061204457612044617d7b565b90600052602060002001549050600061013460008381526020019081526020016000209050612074826000615d83565b6000670de0b6b3a764000086836000015461208f9190617f13565b6120999190617f68565b9050808260000160008282546120af9190617dde565b909155505060048a0180548291906000906120cb908490617dde565b90915550506001909301925061201b915050565b505050612201565b82861180156120f65750818611155b156121c75760008881526101356020526040812054905b818110156121735760008a81526101356020526040812080548390811061213657612136617d7b565b90600052602060002001549050600061013460008381526020019081526020016000209050612166826000615d83565b600090555060010161210d565b5060006004860181905561218b90601287019061753e565b61219489615ebc565b5060006121a18589617dde565b9050808660060160000160008282546121ba9190617dde565b9091555061220192505050565b60405162461bcd60e51b815260206004820152600f60248201526e082dadeeadce840e8dede40d0d2ced608b1b6044820152606401610ff2565b60006127106122126103e889617f13565b61221c9190617f68565b9050600061222a8289617dde565b86546001600160a01b031660009081526101366020526040812080549293508492909190612259908490617d68565b90915550508554612274906001600160a01b03168a8361601a565b5060006122808b6113e3565b600488015461228f9190617d68565b87546040518b81529192506001600160a01b0390811691908c169042907fc351e6e0f377ec1a399ec84224a83d6a4b9f3cd9a5530e5c652d0b11c2f8dae29060200160405180910390a480848c60008051602061836d83398151915260405160405180910390a45060019a9950505050505050505050565b6000818152610133602052604081205461013080548392839290918391908390811061233557612335617d7b565b6000918252602090912060408051610200810190915260159092020180546001600160a01b038082166101008501908152600160a01b830460ff16610120860152600160a81b90920461ffff166101408501526001830154166101608401526002820180548492918491610180850191906123af90617d18565b80601f01602080910402602001604051908101604052809291908181526020018280546123db90617d18565b80156124285780601f106123fd57610100808354040283529160200191612428565b820191906000526020600020905b81548152906001019060200180831161240b57829003601f168201915b505050918352505060038201546020808301919091526004830154604080840191909152600590930154606092830152928452815180830183526006860154815260078601548185015284840152815180830183526008860154815260098601548185015284830152815160808082018452600a8701548252600b87015482860152600c87015482850152600d87015460ff9081161515838501528684019290925283518082018552600e8801548152600f8801548187015260108801548186015260118801549092161515928201929092529084015260128401805482518185028101850190935280835260a090940193919290919083018282801561255857602002820191906000526020600020905b81546001600160a01b0316815260019091019060200180831161253a575b5050509183525050601382015460208083019190915260149092015460ff16151560409182015260008981526101348352818120825160c080820185528254825260018301549582019590955260028201549381019390935260038101546060840152600481015460808401526005015460a0830152918301519293509181036125e257426125e8565b8260c001515b905060006125fa836060015183613dff565b90506301e1338081612710856020015186600001516126199190617f13565b6126239190617f68565b61262d9190617f13565b6126379190617f68565b95508260400151866126499190617d68565b975061271061265a6103e882617dde565b612664908a617f13565b61266e9190617f68565b965050505050509193909250565b60008060008061268b85613b71565b935061269685615173565b91506126a185614587565b92506126ac85611c8c565b90509193509193565b61109383838360405180602001604052806000815250614e54565b6001600160a01b037f00000000000000000000000000000000000000000000000000000000000000001630036127185760405162461bcd60e51b8152600401610ff290617f8a565b7f00000000000000000000000000000000000000000000000000000000000000006001600160a01b031661276160008051602061838d833981519152546001600160a01b031690565b6001600160a01b0316146127875760405162461bcd60e51b8152600401610ff290617fd6565b61279082615c10565b61279c82826001615c18565b5050565b6000306001600160a01b037f000000000000000000000000000000000000000000000000000000000000000016146128405760405162461bcd60e51b815260206004820152603860248201527f555550535570677261646561626c653a206d757374206e6f742062652063616c60448201527f6c6564207468726f7567682064656c656761746563616c6c00000000000000006064820152608401610ff2565b5060008051602061838d83398151915290565b600080610130848154811061286a5761286a617d7b565b9060005260206000209060150201905082612884856113e3565b10156128d25760405162461bcd60e51b815260206004820152601a60248201527f416d6f756e7420626967676572207468616e206465706f7369740000000000006044820152606401610ff2565b60018101546001600160a01b031633146128fe5760405162461bcd60e51b8152600401610ff290617f2a565b61290b62093a8042617d68565b600a82015561291d62093a8042617d68565b61292a906203f480617d68565b600b820155600c8101839055600d8101805460ff19169055604051839085907fb3b9c925de3673837b40c6b4d4463a8f88dc821cd27e07f1ff6bf6abf96413a590600090a35060019392505050565b600080610130848154811061299057612990617d7b565b6000918252602090912060408051610200810190915260159092020180546001600160a01b038082166101008501908152600160a01b830460ff16610120860152600160a81b90920461ffff16610140850152600183015416610160840152600282018054849291849161018085019190612a0a90617d18565b80601f0160208091040260200160405190810160405280929190818152602001828054612a3690617d18565b8015612a835780601f10612a5857610100808354040283529160200191612a83565b820191906000526020600020905b815481529060010190602001808311612a6657829003601f168201915b505050918352505060038201546020808301919091526004830154604080840191909152600590930154606092830152928452815180830183526006860154815260078601548185015284840152815180830183526008860154815260098601548185015284830152815160808082018452600a8701548252600b87015482860152600c87015482850152600d87015460ff9081161515838501528684019290925283518082018552600e8801548152600f8801548187015260108801548186015260118801549092161515928201929092529084015260128401805482518185028101850190935280835260a0909401939192909190830182828015612bb357602002820191906000526020600020905b81546001600160a01b03168152600190910190602001808311612b95575b50505091835250506013820154602082015260149091015460ff1615156040909101526080810151519091506000612beb858761604d565b5090506000612bfa8383617d68565b90506000612c09826021617f13565b612c1b90674563918244f40000617d68565b90506000612c2a856021617f13565b612c3c90674563918244f40000617d68565b90506000612c51612c4c846160aa565b6160f3565b90506000612c61612c4c846160aa565b90506000612c9f612c7260216160aa565b612c99612c7f868661612b565b612c936a295be96e640669720000006160aa565b9061613a565b90616149565b90506000612cb088620f4240617f13565b612cba9083617f68565b8a5160e00151909150670de0b6b3a7640000612cd68284617f13565b612ce09190617f68565b9e9d5050505050505050505050505050565b600081815260ff60205260408120546001600160a01b031680610ebe5760405162461bcd60e51b8152602060048201526018602482015277115490cdcc8c4e881a5b9d985b1a59081d1bdad95b88125160421b6044820152606401610ff2565b6000806101308381548110612d6957612d69617d7b565b6000918252602090912060408051610200810190915260159092020180546001600160a01b038082166101008501908152600160a01b830460ff16610120860152600160a81b90920461ffff16610140850152600183015416610160840152600282018054849291849161018085019190612de390617d18565b80601f0160208091040260200160405190810160405280929190818152602001828054612e0f90617d18565b8015612e5c5780601f10612e3157610100808354040283529160200191612e5c565b820191906000526020600020905b815481529060010190602001808311612e3f57829003601f168201915b505050918352505060038201546020808301919091526004830154604080840191909152600590930154606092830152928452815180830183526006860154815260078601548185015284840152815180830183526008860154815260098601548185015284830152815160808082018452600a8701548252600b87015482860152600c87015482850152600d87015460ff9081161515838501528684019290925283518082018552600e8801548152600f8801548187015260108801548186015260118801549092161515928201929092529084015260128401805482518185028101850190935280835260a0909401939192909190830182828015612f8c57602002820191906000526020600020905b81546001600160a01b03168152600190910190602001808311612f6e575b50505091835250506013820154602082015260149091015460ff1615156040909101529050612fba836113e3565b815160c0015161165a9190617d68565b60006001600160a01b0382166130345760405162461bcd60e51b815260206004820152602960248201527f4552433732313a2061646472657373207a65726f206973206e6f7420612076616044820152683634b21037bbb732b960b91b6064820152608401610ff2565b506001600160a01b03166000908152610100602052604090205490565b6001600160a01b038116600090815261013660209081526040808320546101379092528220546130818282617d68565b949193509150565b565b6101305460005b8181101561279c576130a381613e0b565b6130ac81617e07565b9050613092565b60006130bd616161565b82600061013082815481106130d4576130d4617d7b565b6000918252602090912060408051610200810190915260159092020180546001600160a01b038082166101008501908152600160a01b830460ff16610120860152600160a81b90920461ffff1661014085015260018301541661016084015260028201805484929184916101808501919061314e90617d18565b80601f016020809104026020016040519081016040528092919081815260200182805461317a90617d18565b80156131c75780601f1061319c576101008083540402835291602001916131c7565b820191906000526020600020905b8154815290600101906020018083116131aa57829003601f168201915b505050918352505060038201546020808301919091526004830154604080840191909152600590930154606092830152928452815180830183526006860154815260078601548185015284840152815180830183526008860154815260098601548185015284830152815160808082018452600a8701548252600b87015482860152600c87015482850152600d87015460ff9081161515838501528684019290925283518082018552600e8801548152600f8801548187015260108801548186015260118801549092161515928201929092529084015260128401805482518185028101850190935280835260a09094019391929091908301828280156132f757602002820191906000526020600020905b81546001600160a01b031681526001909101906020018083116132d9575b50505091835250506013820154602082015260149091015460ff16151560409091015260e08101519091506133605760405162461bcd60e51b815260206004820152600f60248201526e706f6f6c206e6f742061637469766560881b6044820152606401610ff2565b6000610130868154811061337657613376617d7b565b60009182526020808320601590920290910180546001600160a01b0316835261013d9091526040909120549091508510156133e75760405162461bcd60e51b8152602060048201526011602482015270135a5b881cdd185ad9481b9bdd081b595d607a1b6044820152606401610ff2565b600681015460048201546000916133fd91617d68565b8254909150613417906001600160a01b03163330896159b1565b5060006134258833896161ba565b90508683600001600401600082825461343e9190617d68565b909155505060038301541580159061345e57506003830154600484015411155b6134a05760405162461bcd60e51b8152602060048201526013602482015272115e18d959591959081c1bdbdb081b1a5b5a5d606a1b6044820152606401610ff2565b604051878152889033907f1449c6dd7851abc30abf37f57715f492010519147cc2652fbc38202c18a6ee909060200160405180910390a3600683015460048401546000916134ed91617d68565b905080838a60008051602061836d83398151915260405160405180910390a450945050505050610ebe600160ca55565b600080610130838154811061353457613534617d7b565b6000918252602090912060408051610200810190915260159092020180546001600160a01b038082166101008501908152600160a01b830460ff16610120860152600160a81b90920461ffff166101408501526001830154166101608401526002820180548492918491610180850191906135ae90617d18565b80601f01602080910402602001604051908101604052809291908181526020018280546135da90617d18565b80156136275780601f106135fc57610100808354040283529160200191613627565b820191906000526020600020905b81548152906001019060200180831161360a57829003601f168201915b505050918352505060038201546020808301919091526004830154604080840191909152600590930154606092830152928452815180830183526006860154815260078601548185015284840152815180830183526008860154815260098601548185015284830152815160808082018452600a8701548252600b87015482860152600c87015482850152600d87015460ff9081161515838501528684019290925283518082018552600e8801548152600f8801548187015260108801548186015260118801549092161515928201929092529084015260128401805482518185028101850190935280835260a090940193919290919083018282801561375757602002820191906000526020600020905b81546001600160a01b03168152600190910190602001808311613739575b50505091835250506013820154602082015260149091015460ff161515604090910152608081015151815160e001519192509061379382616372565b61379d9190617f13565b949350505050565b60006137af61580c565b6001600160a01b038416600090815261013b602052604090205460ff166138105760405162461bcd60e51b81526020600482015260156024820152741d1bdad95b881b9bdd081dda1a5d195b1a5cdd1959605a1b6044820152606401610ff2565b60408051600481526024810182526020810180516001600160e01b031663313ce56760e01b17905290516000916001600160a01b038716916138529190618022565b600060405180830381855afa9150503d806000811461388d576040519150601f19603f3d011682016040523d82523d6000602084013e613892565b606091505b509150506000818060200190518101906138ac919061803e565b90506138b661755c565b80516001600160a01b03808916909152815160ff8085166020928301528351898416606091820152845160809081018a9052855160006040918201819052875160a001819052875160e0908101829052885160c0908101839052878a0151839052858a01805184905280518901849052805185018490525186018390529089018290528801819052610130805460018101825591528751805160159092027f2f605e086faac1d93117bbfbc18835d434e9405fadc1ca66faf4b864746daf3481018054988301519483015161ffff16600160a81b0261ffff60a81b1995909816600160a01b026001600160a81b0319909916938a16939093179790971792909216949094178455918201517f2f605e086faac1d93117bbfbc18835d434e9405fadc1ca66faf4b864746daf3585018054919096166001600160a01b03199190911617909455928301518493919283917f2f605e086faac1d93117bbfbc18835d434e9405fadc1ca66faf4b864746daf3690910190613a3490826180af565b5060a082810151600383015560c0830151600483015560e0909201516005909101556020838101518051600685015581015160078401556040808501518051600886015582015160098501556060808601518051600a87015580840151600b87015580830151600c870155810151600d8601805491151560ff1992831617905560808701518051600e88015580850151600f88015592830151601087015591015160118501805491151591909216179055908301518051613afb926012850192019061766f565b5060c0820151601382015560e0909101516014909101805460ff191691151591909117905561013054613b3090600190617dde565b979650505050505050565b60006301e1338061271062093a80613b538587617f13565b613b5d9190617f13565b613b679190617f68565b61165a9190617f68565b6000806101308381548110613b8857613b88617d7b565b6000918252602090912060408051610200810190915260159092020180546001600160a01b038082166101008501908152600160a01b830460ff16610120860152600160a81b90920461ffff16610140850152600183015416610160840152600282018054849291849161018085019190613c0290617d18565b80601f0160208091040260200160405190810160405280929190818152602001828054613c2e90617d18565b8015613c7b5780601f10613c5057610100808354040283529160200191613c7b565b820191906000526020600020905b815481529060010190602001808311613c5e57829003601f168201915b505050918352505060038201546020808301919091526004830154604080840191909152600590930154606092830152928452815180830183526006860154815260078601548185015284840152815180830183526008860154815260098601548185015284830152815160808082018452600a8701548252600b87015482860152600c87015482850152600d87015460ff9081161515838501528684019290925283518082018552600e8801548152600f8801548187015260108801548186015260118801549092161515928201929092529084015260128401805482518185028101850190935280835260a0909401939192909190830182828015613dab57602002820191906000526020600020905b81546001600160a01b03168152600190910190602001808311613d8d575b50505091835250506013820154602082015260149091015460ff1615156040909101529050612710613ddf6103e882617dde565b602083015151835160c00151613df59190617d68565b613b679190617f13565b600061165a82846163c7565b60006101308281548110613e2157613e21617d7b565b6000918252602090912060408051610200810190915260159092020180546001600160a01b038082166101008501908152600160a01b830460ff16610120860152600160a81b90920461ffff16610140850152600183015416610160840152600282018054849291849161018085019190613e9b90617d18565b80601f0160208091040260200160405190810160405280929190818152602001828054613ec790617d18565b8015613f145780601f10613ee957610100808354040283529160200191613f14565b820191906000526020600020905b815481529060010190602001808311613ef757829003601f168201915b505050918352505060038201546020808301919091526004830154604080840191909152600590930154606092830152928452815180830183526006860154815260078601548185015284840152815180830183526008860154815260098601548185015284830152815160808082018452600a8701548252600b87015482860152600c87015482850152600d87015460ff9081161515838501528684019290925283518082018552600e8801548152600f8801548187015260108801548186015260118801549092161515928201929092529084015260128401805482518185028101850190935280835260a090940193919290919083018282801561404457602002820191906000526020600020905b81546001600160a01b03168152600190910190602001808311614026575b50505091835250506013820154602082015260149091015460ff161515604090910152608081015160600151909150158061408157508060e00151155b1561408a575050565b600082815261013560209081526040808320805482518185028101850190935280835291929091908301828280156140e157602002820191906000526020600020905b8154815260200190600101908083116140cd575b505050505090506000815190506140f98460006163d3565b5060005b8181101561419f57600083828151811061411957614119617d7b565b602090810291909101810151600081815261013490925260409091208054919250906141458882612979565b826001018190555061418a88826101308b8154811061416657614166617d7b565b9060005260206000209060150201600e01600201546141859190617d68565b6163d3565b505050508061419890617e07565b90506140fd565b5050505050565b606060fe8054610ed390617d18565b61013560205281600052604060002081815481106141d257600080fd5b90600052602060002001600091509150505481565b60008061013084815481106141fe576141fe617d7b565b6000918252602090912060159091020160018101549091506001600160a01b0316331461423d5760405162461bcd60e51b8152600401610ff290617f2a565b600a810154421180156142535750600b81015442105b80156142645750600d81015460ff16155b80156142745750600c8101548311155b80156142835750600a81015415155b61429f5760405162461bcd60e51b8152600401610ff29061816f565b600d8101805460ff1916600117905560068101548311156142c5576142c384615ebc565b505b60006142d0856113e3565b60048301546142df9190617d68565b9050838260060160000160008282546142f89190617dde565b90915550506001820154825461431b916001600160a01b0391821691168661601a565b506000614327866113e3565b60048401546143369190617d68565b905080828760008051602061836d83398151915260405160405180910390a450600195945050505050565b600061436b616161565b3361437584612cf2565b6001600160a01b0316146143c15760405162461bcd60e51b815260206004820152601360248201527239b2b73232b91034b9903737ba1037bbb732b960691b6044820152606401610ff2565b600083815261013360205260408120546101308054919291839081106143e9576143e9617d7b565b906000526020600020906015020190506000610134600087815260200190815260200160002090504281600401541080156144275750428160050154115b6144435760405162461bcd60e51b8152600401610ff29061816f565b61444d8686615d83565b80546000808355600483018190556005830181905561446b856113e3565b600485015461447a9190617d68565b9050861561448b5761448b88616407565b81156144bd5760048401546144a090836163c7565b600485015583546144bb906001600160a01b0316338461601a565b505b604051828152859033907f7fc4727e062e336010f2c282598ef5f14facb3de68cf8195c2f23e1454b2b74e9060200160405180910390a360006144ff866113e3565b600486015461450e9190617d68565b905080828760008051602061836d83398151915260405160405180910390a45050506011909101805460ff1916600190811790915592505050610ebe600160ca55565b61013c818154811061456257600080fd5b6000918252602090912001546001600160a01b0316905081565b61279c3383836164ba565b600080610130838154811061459e5761459e617d7b565b6000918252602090912060408051610200810190915260159092020180546001600160a01b038082166101008501908152600160a01b830460ff16610120860152600160a81b90920461ffff1661014085015260018301541661016084015260028201805484929184916101808501919061461890617d18565b80601f016020809104026020016040519081016040528092919081815260200182805461464490617d18565b80156146915780601f1061466657610100808354040283529160200191614691565b820191906000526020600020905b81548152906001019060200180831161467457829003601f168201915b505050918352505060038201546020808301919091526004830154604080840191909152600590930154606092830152928452815180830183526006860154815260078601548185015284840152815180830183526008860154815260098601548185015284830152815160808082018452600a8701548252600b87015482860152600c87015482850152600d87015460ff9081161515838501528684019290925283518082018552600e8801548152600f8801548187015260108801548186015260118801549092161515928201929092529084015260128401805482518185028101850190935280835260a09094019391929091908301828280156147c157602002820191906000526020600020905b81546001600160a01b031681526001909101906020018083116147a3575b50505091835250506013820154602082015260149091015460ff1615156040918201529051015161ffff169392505050565b600080600080610130858154811061480d5761480d617d7b565b6000918252602090912060408051610200810190915260159092020180546001600160a01b038082166101008501908152600160a01b830460ff16610120860152600160a81b90920461ffff1661014085015260018301541661016084015260028201805484929184916101808501919061488790617d18565b80601f01602080910402602001604051908101604052809291908181526020018280546148b390617d18565b80156149005780601f106148d557610100808354040283529160200191614900565b820191906000526020600020905b8154815290600101906020018083116148e357829003601f168201915b505050918352505060038201546020808301919091526004830154604080840191909152600590930154606092830152928452815180830183526006860154815260078601548185015284840152815180830183526008860154815260098601548185015284830152815160808082018452600a8701548252600b87015482860152600c87015482850152600d87015460ff9081161515838501528684019290925283518082018552600e8801548152600f8801548187015260108801548186015260118801549092161515928201929092529084015260128401805482518185028101850190935280835260a0909401939192909190830182828015614a3057602002820191906000526020600020905b81546001600160a01b03168152600190910190602001808311614a12575b5050509183525050601382015460208083019190915260149092015460ff1615156040918201526060909201518051918101519201519097919650945092505050565b60006101308481548110614a8957614a89617d7b565b6000918252602090912060159091020160018101549091506001600160a01b03163314614ac85760405162461bcd60e51b8152600401610ff290617f2a565b60068101546004820154600091614ade91617d68565b8254909150614af8906001600160a01b03163330876159b1565b5083826006016000016000828254614b109190617d68565b909155505060068201546004830154600091614b2b91617d68565b9050614b38868587615a76565b50505050505050565b6000806000806101308581548110614b5b57614b5b617d7b565b6000918252602090912060408051610200810190915260159092020180546001600160a01b038082166101008501908152600160a01b830460ff16610120860152600160a81b90920461ffff16610140850152600183015416610160840152600282018054849291849161018085019190614bd590617d18565b80601f0160208091040260200160405190810160405280929190818152602001828054614c0190617d18565b8015614c4e5780601f10614c2357610100808354040283529160200191614c4e565b820191906000526020600020905b815481529060010190602001808311614c3157829003601f168201915b505050918352505060038201546020808301919091526004830154604080840191909152600590930154606092830152928452815180830183526006860154815260078601548185015284840152815180830183526008860154815260098601548185015284830152815160808082018452600a8701548252600b87015482860152600c87015482850152600d87015460ff9081161515838501528684019290925283518082018552600e8801548152600f8801548187015260108801548186015260118801549092161515928201929092529084015260128401805482518185028101850190935280835260a0909401939192909190830182828015614d7e57602002820191906000526020600020905b81546001600160a01b03168152600190910190602001808311614d60575b50505091835250506013820154602082015260149091015460ff161515604091820152815160a0810151910151919250614dbb9161ffff16613b3b565b60409091015180516020909101519196909550909350915050565b6034546001600160a01b03163314614e3f5760405162461bcd60e51b815260206004820152602660248201527f6f6e6c792070656e64696e67206f776e65722063616e2061636365707420747260448201526530b739b332b960d11b6064820152608401610ff2565b603454613089906001600160a01b0316616589565b614e5e3383615627565b614e7a5760405162461bcd60e51b8152600401610ff290617d91565b614e86848484846165e6565b50505050565b6000806101308381548110614ea357614ea3617d7b565b6000918252602090912060159091020160018101549091506001600160a01b0316331480614edb57506033546001600160a01b031633145b614ef75760405162461bcd60e51b8152600401610ff290617f2a565b601481015460ff16614f3d5760405162461bcd60e51b815260206004820152600f60248201526e506f6f6c206e6f742061637469766560881b6044820152606401610ff2565b60148101805460ff1916905542601390910155506001919050565b600054610100900460ff1615808015614f785750600054600160ff909116105b80614f925750303b158015614f92575060005460ff166001145b614ff55760405162461bcd60e51b815260206004820152602e60248201527f496e697469616c697a61626c653a20636f6e747261637420697320616c72656160448201526d191e481a5b9a5d1a585b1a5e995960921b6064820152608401610ff2565b6000805460ff191660011790558015615018576000805461ff0019166101001790555b615020616619565b61013880546001600160a01b0319166001600160a01b038416179055801561279c576000805461ff0019169055604051600181527f7f26b83ff96e1f2b6a682f133852f6798a09c465da95921460cefb38474024989060200160405180910390a15050565b606061509082615559565b60006150a760408051602081019091526000815290565b905060008151116150c7576040518060200160405280600081525061165a565b806150d184616648565b6040516020016150e29291906181b8565b6040516020818303038152906040529392505050565b600061510261580c565b6001600160a01b038316600090815261013760209081526040808320546101369092528220546151329190617d68565b6001600160a01b03851660008181526101366020908152604080832083905561013790915281205590915061516890848361601a565b506001949350505050565b600080610130838154811061518a5761518a617d7b565b6000918252602090912060408051610200810190915260159092020180546001600160a01b038082166101008501908152600160a01b830460ff16610120860152600160a81b90920461ffff1661014085015260018301541661016084015260028201805484929184916101808501919061520490617d18565b80601f016020809104026020016040519081016040528092919081815260200182805461523090617d18565b801561527d5780601f106152525761010080835404028352916020019161527d565b820191906000526020600020905b81548152906001019060200180831161526057829003601f168201915b505050918352505060038201546020808301919091526004830154604080840191909152600590930154606092830152928452815180830183526006860154815260078601548185015284840152815180830183526008860154815260098601548185015284830152815160808082018452600a8701548252600b87015482860152600c87015482850152600d87015460ff9081161515838501528684019290925283518082018552600e8801548152600f8801548187015260108801548186015260118801549092161515928201929092529084015260128401805482518185028101850190935280835260a09094019391929091908301828280156153ad57602002820191906000526020600020905b81546001600160a01b0316815260019091019060200180831161538f575b50505091835250506013820154602082015260149091015460ff1615156040909101525160c001519392505050565b60006153e661580c565b61013c5460005b818110156118d757600061013c828154811061540b5761540b617d7b565b60009182526020808320909101546001600160a01b031680835261013782526040808420546101369093528320549093506154469190617d68565b90508060000361545757505061548e565b6001600160a01b03821660008181526101366020908152604080832083905561013790915281205561548a90878361601a565b5050505b61549781617e07565b90506153ed565b6154a661580c565b6001600160a01b03811661550b5760405162461bcd60e51b815260206004820152602660248201527f4f776e61626c653a206e6577206f776e657220697320746865207a65726f206160448201526564647265737360d01b6064820152608401610ff2565b603480546001600160a01b0319166001600160a01b0392909216919091179055565b615535616161565b615540816001615d83565b611c89600160ca55565b6001600160a01b03163b151590565b600081815260ff60205260409020546001600160a01b0316611c895760405162461bcd60e51b8152602060048201526018602482015277115490cdcc8c4e881a5b9d985b1a59081d1bdad95b88125160421b6044820152606401610ff2565b60008181526101016020526040902080546001600160a01b0319166001600160a01b03841690811790915581906155ee82612cf2565b6001600160a01b03167f8c5be1e5ebec7d5bd14f71427d1e84f3dd0314c0f7b2291e5b200ac8c7c3b92560405160405180910390a45050565b60008061563383612cf2565b9050806001600160a01b0316846001600160a01b0316148061567b57506001600160a01b038082166000908152610102602090815260408083209388168352929052205460ff165b8061379d5750836001600160a01b031661569484610f56565b6001600160a01b031614949350505050565b826001600160a01b03166156b982612cf2565b6001600160a01b0316146156df5760405162461bcd60e51b8152600401610ff2906181e7565b6001600160a01b0382166157415760405162461bcd60e51b8152602060048201526024808201527f4552433732313a207472616e7366657220746f20746865207a65726f206164646044820152637265737360e01b6064820152608401610ff2565b826001600160a01b031661575482612cf2565b6001600160a01b03161461577a5760405162461bcd60e51b8152600401610ff2906181e7565b60008181526101016020908152604080832080546001600160a01b03199081169091556001600160a01b03878116808652610100855283862080546000190190559087168086528386208054600101905586865260ff90945282852080549092168417909155905184937fddf252ad1be2c89b69c2b068fc378daa952ba7f163c4a11628f55a4df523b3ef91a4505050565b6033546001600160a01b031633146130895760405162461bcd60e51b815260206004820181905260248201527f4f776e61626c653a2063616c6c6572206973206e6f7420746865206f776e65726044820152606401610ff2565b6000610130838154811061587c5761587c617d7b565b6000918252602082206015919091020160088101546003820154825492945085926158b29190600160a81b900461ffff16613b3b565b6158bc9190617dde565b6158c69190617d68565b600183015483549192506158e8916001600160a01b03908116911630846159b1565b5060006127106158fa6103e884617f13565b6159049190617f68565b90508183600801600001600082825461591d9190617d68565b909155505082546001600160a01b0316600090815261013760205260408120805483929061594c908490617d68565b909155506000905061595e8284617dde565b9050808460080160010160008282546159779190617d68565b9091555050604051839087907fadb049ad2d09be3db90459a16aef1ad0a4d89e8fdcc1ade9429d6cc55abbcd2b90600090a3505050505050565b6040516001600160a01b03808516602483015283166044820152606481018290526000906151689086906323b872dd60e01b906084015b60408051601f198184030181529190526020810180516001600160e01b03166001600160e01b0319909316929092179091526166d9565b6000670eb5e06245ea0000615a3c670de0b6b3a764000084617f13565b615a469190617f68565b9050806101308481548110615a5d57615a5d617d7b565b6000918252602090912060056015909202010155505050565b6000806101308581548110615a8d57615a8d617d7b565b90600052602060002090601502019050600084604051602001615ab091906177a7565b60408051601f198184030181529181528151602092830120600089815261013a909352912054909150808214615c06576000615aeb88615ebc565b90506000615af989896167ab565b90506001600160a01b03811615615be65780615b158389617d68565b600687018054600090615b29908490617dde565b90915550615b3990508389617d68565b600787018054600090615b4d908490617d68565b90915550615b73905082615b61858b617d68565b88546001600160a01b0316919061601a565b5060405163d33b0aa760e01b8152600160048201526001600160a01b0382169063d33b0aa7906024016020604051808303816000875af1158015615bbb573d6000803e3d6000fd5b505050506040513d601f19601f82011682018060405250810190615bdf919061822c565b5050615c03565b86856006016000016000828254615bfd9190617d68565b90915550505b50505b5050509392505050565b611c8961580c565b7f4910fdfa16fed3260ed0e7147f7cc6da11a60208b5b9406d12a635614ffd91435460ff1615615c4b57611093836168ea565b826001600160a01b03166352d1902d6040518163ffffffff1660e01b8152600401602060405180830381865afa925050508015615ca5575060408051601f3d908101601f19168201909252615ca29181019061822c565b60015b615d085760405162461bcd60e51b815260206004820152602e60248201527f45524331393637557067726164653a206e657720696d706c656d656e7461746960448201526d6f6e206973206e6f74205555505360901b6064820152608401610ff2565b60008051602061838d8339815191528114615d775760405162461bcd60e51b815260206004820152602960248201527f45524331393637557067726164653a20756e737570706f727465642070726f786044820152681a58589b195555525160ba1b6064820152608401610ff2565b50611093838383616986565b60008281526101336020526040812054610130805491929183908110615dab57615dab617d7b565b60009182526020808320878452610134909152604083206015909202019250908080615dd688612307565b92509250925086615e24578460130154600003615df35742615df9565b84601301545b846003018190555080846002016000828254615e159190617d68565b90915550505050505050505050565b6008850154831115615e3a57615e3a8684615866565b8215611b785760006002850181905560138601549003615e5a5742615e60565b84601301545b6003850155600885018054849190600090615e7c908490617dde565b9091555050600985018054839190600090615e98908490617dde565b90915550611b769050615eaa89612cf2565b86546001600160a01b0316908461601a565b6000806101308381548110615ed357615ed3617d7b565b6000918252602080832086845261013a909152604083205460159092020192508015616012576000858152610139602090815260408083208484528252808320548151637f1f087360e01b815291516001600160a01b0390911693928492637f1f08739260048083019392829003018187875af1158015615f58573d6000803e3d6000fd5b505050506040513d601f19601f82011682018060405250810190615f7c919061822c565b60405163f840cb8360e01b815260016004820152602481018290529091506001600160a01b0383169063f840cb83906044016020604051808303816000875af1158015615fcd573d6000803e3d6000fd5b505050506040513d601f19601f82011682018060405250810190615ff1919061822c565b93508385600601600001600082825461600a9190617d68565b909155505050505b509392505050565b6040516001600160a01b0383166024820152604481018290526000906118d790859063a9059cbb60e01b906064016159e8565b600080610130838154811061606457616064617d7b565b600091825260209091206003601590920201015461608a670de0b6b3a764000086617f13565b6160949190617f68565b90506160a1816005617f13565b91509250929050565b60006160c0670de0b6b3a7640000600019617f68565b8211156160e3576040516322630c4560e01b815260048101839052602401610ff2565b670de0b6b3a76400008202610ebe565b6000610ebe6714057b7ef767814f670de0b6b3a7640000616119616116866169ab565b90565b028161612757616127617f52565b0490565b600061165a6161168385617dde565b600061165a6161168484616ae1565b600061165a61611684670de0b6b3a764000085616b95565b600260ca54036161b35760405162461bcd60e51b815260206004820152601f60248201527f5265656e7472616e637947756172643a207265656e7472616e742063616c6c006044820152606401610ff2565b600260ca55565b60006001600160a01b0383166162125760405162461bcd60e51b815260206004820152601f60248201527f45524332303a206d696e7420746f20746865207a65726f2061646472657373006044820152606401610ff2565b600061621e8584612979565b9050600061622b85616c69565b90506162666040518060c001604052806000815260200160008152602001600081526020016000815260200160008152602001600081525090565b84815260208082018481524260608401908152600085815261013484526040808220865181559351600180860191909155818701516002860155925160038501556080860151600485015560a08601516005909401939093558a8152610135845282812080549283018155815283812090910185905584815261013390925290208790556101308054674563918244f4000091908990811061630a5761630a617d7b565b9060005260206000209060150201600e01600201600082825461632d9190617d68565b9250508190555061636687610130898154811061634c5761634c617d7b565b9060005260206000209060150201600e01600201546163d3565b50909695505050505050565b600080670de0b6b3a764000061639084670928ca80cfc20000617f13565b61639a9190617f68565b6163ac9067016345785d8a0000617d68565b905061165a816ec097ce7bc90715b34b9f1000000000617f68565b600061165a8284617dde565b60008161013084815481106163ea576163ea617d7b565b60009182526020909120600e601590920201015550600192915050565b60008181526101336020908152604080832054610134835292819020815160c0810183528154815260018201549381019390935260028101549183019190915260038101546060830152600481015460808301526005015460a082015261646d83616e10565b61647683616ea7565b805161013080548490811061648d5761648d617d7b565b9060005260206000209060150201600e0160020160008282546164b09190617dde565b9091555050505050565b816001600160a01b0316836001600160a01b03160361651b5760405162461bcd60e51b815260206004820152601960248201527f4552433732313a20617070726f766520746f2063616c6c6572000000000000006044820152606401610ff2565b6001600160a01b0383811660008181526101026020908152604080832094871680845294825291829020805460ff191686151590811790915591519182527f17307eab39ab6107e8899845ad3d59bd9653f200f220920489ca2b5937696c31910160405180910390a3505050565b603380546001600160a01b038381166001600160a01b03198084168217909455603480549094169093556040519116919082907f8be0079c531659141344cd1fd0a4f28419497f9722a3daafe3b4186f6b6457e090600090a35050565b6165f18484846156a6565b6165fd8484848461706d565b614e865760405162461bcd60e51b8152600401610ff290618245565b600054610100900460ff166166405760405162461bcd60e51b8152600401610ff290618297565b61308961716b565b606060006166558361719b565b600101905060008167ffffffffffffffff811115616675576166756179d9565b6040519080825280601f01601f19166020018201604052801561669f576020820181803683370190505b5090508181016020015b600019016f181899199a1a9b1b9c1cb0b131b232b360811b600a86061a8153600a850494508415616012576166a9565b600061672e826040518060400160405280602081526020017f5361666545524332303a206c6f772d6c6576656c2063616c6c206661696c6564815250856001600160a01b03166172739092919063ffffffff16565b805190915015611093578080602001905181019061674c91906182e2565b6110935760405162461bcd60e51b815260206004820152602a60248201527f5361666545524332303a204552433230206f7065726174696f6e20646964206e6044820152691bdd081cdd58d8d9595960b21b6064820152608401610ff2565b6000806000836040516020016167c191906177a7565b60408051601f198184030181529181528151602092830120600088815261013984528281208282529093529120549091506001600160a01b03168061687b5761013854604051632f3802cf60e11b81526001600160a01b0390911690635e70059e906168319088906004016177a7565b6020604051808303816000875af1158015616850573d6000803e3d6000fd5b505050506040513d601f19601f8201168201806040525081019061687491906182ff565b9250616885565b9250610ebe915050565b6001600160a01b03831661689f5760009350505050610ebe565b50600085815261013960209081526040808320848452825280832080546001600160a01b0319166001600160a01b03871617905596825261013a905294909420939093555090919050565b6001600160a01b0381163b6169575760405162461bcd60e51b815260206004820152602d60248201527f455243313936373a206e657720696d706c656d656e746174696f6e206973206e60448201526c1bdd08184818dbdb9d1c9858dd609a1b6064820152608401610ff2565b60008051602061838d83398151915280546001600160a01b0319166001600160a01b0392909216919091179055565b61698f83617282565b60008251118061699c5750805b1561109357614e8683836172c2565b600081670de0b6b3a76400008110156169da57604051633621413760e21b815260048101849052602401610ff2565b6000616a66670de0b6b3a7640000830460016fffffffffffffffffffffffffffffffff821160071b91821c67ffffffffffffffff811160061b90811c63ffffffff811160051b90811c61ffff811160041b90811c60ff8111600390811b91821c600f811160021b90811c918211871b91821c969096119490961792909217171791909117919091171790565b9050670de0b6b3a7640000810282821c670de0b6b3a763ffff198101616a9257815b9695505050505050565b671bc16d674ec800006706f05b59d3b200005b8015616ad557670de0b6b3a7640000838002049250818310616acd579283019260019290921c915b60011c616aa5565b50919695505050505050565b60008080600019848609848602925082811083820303915050670de0b6b3a76400008110616b2c5760405163090638d560e41b81526004810186905260248101859052604401610ff2565b6000670de0b6b3a7640000858709905081600003616b58575050670de0b6b3a764000090049050610ebe565b620400008184030492109003600160ee1b02177faccb18165bd6fe31ae1cf318dc5b51eee0e1ba569b88cd74c1773b91fac1066902905092915050565b6000808060001985870985870292508281108382030391505080600003616bcf57838281616bc557616bc5617f52565b049250505061165a565b838110616c00576040516307639aaf60e41b8152600481018790526024810186905260448101859052606401610ff2565b60008486880960026001871981018816978890046003810283188082028403028082028403028082028403028082028403028082028403029081029092039091026000889003889004909101858311909403939093029303949094049190911702949350505050565b60008061010360008154616c7c90617e07565b918290555090506001600160a01b038316616cd95760405162461bcd60e51b815260206004820181905260248201527f4552433732313a206d696e7420746f20746865207a65726f20616464726573736044820152606401610ff2565b600081815260ff60205260409020546001600160a01b031615616d3e5760405162461bcd60e51b815260206004820152601c60248201527f4552433732313a20746f6b656e20616c7265616479206d696e746564000000006044820152606401610ff2565b600081815260ff60205260409020546001600160a01b031615616da35760405162461bcd60e51b815260206004820152601c60248201527f4552433732313a20746f6b656e20616c7265616479206d696e746564000000006044820152606401610ff2565b6001600160a01b0383166000818152610100602090815260408083208054600101905584835260ff90915280822080546001600160a01b0319168417905551839291907fddf252ad1be2c89b69c2b068fc378daa952ba7f163c4a11628f55a4df523b3ef908290a4610ebe565b6000616e1b82612cf2565b9050616e2682612cf2565b60008381526101016020908152604080832080546001600160a01b03199081169091556001600160a01b0385168085526101008452828520805460001901905587855260ff909352818420805490911690555192935084927fddf252ad1be2c89b69c2b068fc378daa952ba7f163c4a11628f55a4df523b3ef908390a45050565b6000818152610133602090815260408083205480845261013583528184208054835181860281018601909452808452919493909190830182828015616f0b57602002820191906000526020600020905b815481526020019060010190808311616ef7575b5050835193945060009250829150505b82811015616f5b5785848281518110616f3657616f36617d7b565b602002602001015103616f4b57809150616f5b565b616f5481617e07565b9050616f1b565b50818110616fab5760405162461bcd60e51b815260206004820152601860248201527f546f6b656e206e6f7420666f756e6420696e20617272617900000000000000006044820152606401610ff2565b805b616fb8600184617dde565b8110156170105783616fcb826001617d68565b81518110616fdb57616fdb617d7b565b6020026020010151848281518110616ff557616ff5617d7b565b602090810291909101015261700981617e07565b9050616fad565b506000848152610135602090815260409091208451617031928601906176d4565b5060008481526101356020526040902080548061705057617050617df1565b600190038181906000526020600020016000905590555050505050565b60006001600160a01b0384163b1561716357604051630a85bd0160e11b81526001600160a01b0385169063150b7a02906170b190339089908890889060040161831c565b6020604051808303816000875af19250505080156170ec575060408051601f3d908101601f191682019092526170e99181019061834f565b60015b617149573d80801561711a576040519150601f19603f3d011682016040523d82523d6000602084013e61711f565b606091505b5080516000036171415760405162461bcd60e51b8152600401610ff290618245565b805181602001fd5b6001600160e01b031916630a85bd0160e11b14905061379d565b50600161379d565b600054610100900460ff166171925760405162461bcd60e51b8152600401610ff290618297565b61308933616589565b60008072184f03e93ff9f4daa797ed6e38ed64bf6a1f0160401b83106171da5772184f03e93ff9f4daa797ed6e38ed64bf6a1f0160401b830492506040015b6d04ee2d6d415b85acef81000000008310617206576d04ee2d6d415b85acef8100000000830492506020015b662386f26fc10000831061722457662386f26fc10000830492506010015b6305f5e100831061723c576305f5e100830492506008015b612710831061725057612710830492506004015b60648310617262576064830492506002015b600a8310610ebe5760010192915050565b606061379d84846000856173b6565b61728b816168ea565b6040516001600160a01b038216907fbc7cd75a20ee27fd9adebab32041f755214dbc6bffa90cc0225b39da2e5c2d3b90600090a250565b60606001600160a01b0383163b61732a5760405162461bcd60e51b815260206004820152602660248201527f416464726573733a2064656c65676174652063616c6c20746f206e6f6e2d636f6044820152651b9d1c9858dd60d21b6064820152608401610ff2565b600080846001600160a01b0316846040516173459190618022565b600060405180830381855af49150503d8060008114617380576040519150601f19603f3d011682016040523d82523d6000602084013e617385565b606091505b50915091506173ad82826040518060600160405280602781526020016183ad60279139617486565b95945050505050565b6060824710156174175760405162461bcd60e51b815260206004820152602660248201527f416464726573733a20696e73756666696369656e742062616c616e636520666f6044820152651c8818d85b1b60d21b6064820152608401610ff2565b600080866001600160a01b031685876040516174339190618022565b60006040518083038185875af1925050503d8060008114617470576040519150601f19603f3d011682016040523d82523d6000602084013e617475565b606091505b5091509150613b308783838761749f565b6060831561749557508161165a565b61165a8383617514565b6060831561750e578251600003617507576001600160a01b0385163b6175075760405162461bcd60e51b815260206004820152601d60248201527f416464726573733a2063616c6c20746f206e6f6e2d636f6e74726163740000006044820152606401610ff2565b508161379d565b61379d83835b8151156175245781518083602001fd5b8060405162461bcd60e51b8152600401610ff291906177a7565b5080546000825590600052602060002090810190611c89919061770f565b6040805161020081019091526000610100820181815261012083018290526101408301829052610160830182905260606101808401526101a083018290526101c083018290526101e0830191909152819081526020016175cf604051806040016040528060008152602001600081525090565b81526020016175f1604051806040016040528060008152602001600081525090565b815260200161762360405180608001604052806000815260200160008152602001600081526020016000151581525090565b815260200161765560405180608001604052806000815260200160008152602001600081526020016000151581525090565b815260606020820181905260006040830181905291015290565b8280548282559060005260206000209081019282156176c4579160200282015b828111156176c457825182546001600160a01b0319166001600160a01b0390911617825560209092019160019091019061768f565b506176d092915061770f565b5090565b8280548282559060005260206000209081019282156176c4579160200282015b828111156176c45782518255916020019190600101906176f4565b5b808211156176d05760008155600101617710565b6001600160e01b031981168114611c8957600080fd5b60006020828403121561774c57600080fd5b813561165a81617724565b60005b8381101561777257818101518382015260200161775a565b50506000910152565b60008151808452617793816020860160208601617757565b601f01601f19169290920160200192915050565b60208152600061165a602083018461777b565b600080604083850312156177cd57600080fd5b50508035926020909101359150565b6000602082840312156177ee57600080fd5b5035919050565b6001600160a01b0381168114611c8957600080fd5b6000806040838503121561781d57600080fd5b8235617828816177f5565b946020939093013593505050565b6101e080825288516001600160a01b0390811691830191909152602089015160ff16610200830152604089015161ffff1661022083015260608901511661024082015260808801516101006102608301526000906178986102e084018261777b565b60a08b015161028085015260c08b01516102a085015260e08b01516102c085015291506178d49050602083018980518252602090810151910152565b8651606083015260208701516080830152855160a0830152602086015160c0830152604086015160e08301526060860151151561010083015284516101208301526020850151610140830152604085015161016083015260608501511515610180830152836101a083015261794e6101c083018415159052565b98975050505050505050565b60008060006060848603121561796f57600080fd5b833561797a816177f5565b9250602084013561798a816177f5565b929592945050506040919091013590565b8015158114611c8957600080fd5b6000806000606084860312156179be57600080fd5b83356179c9816177f5565b9250602084013561798a8161799b565b634e487b7160e01b600052604160045260246000fd5b600082601f830112617a0057600080fd5b813567ffffffffffffffff80821115617a1b57617a1b6179d9565b604051601f8301601f19908116603f01168101908282118183101715617a4357617a436179d9565b81604052838152866020858801011115617a5c57600080fd5b836020870160208301376000602085830101528094505050505092915050565b600080600080600060a08688031215617a9457600080fd5b8535945060208601359350604086013561ffff81168114617ab457600080fd5b925060608601359150608086013567ffffffffffffffff811115617ad757600080fd5b617ae3888289016179ef565b9150509295509295909350565b600060208284031215617b0257600080fd5b813561165a816177f5565b600080600060608486031215617b2257600080fd5b83359250602084013561798a816177f5565b60008060408385031215617b4757600080fd5b8235617b52816177f5565b9150602083013567ffffffffffffffff811115617b6e57600080fd5b617b7a858286016179ef565b9150509250929050565b600080600060608486031215617b9957600080fd5b8335617ba4816177f5565b92506020840135617bb4816177f5565b9150604084013567ffffffffffffffff811115617bd057600080fd5b617bdc868287016179ef565b9150509250925092565b60008060408385031215617bf957600080fd5b823591506020830135617c0b8161799b565b809150509250929050565b60008060408385031215617c2957600080fd5b8235617c34816177f5565b91506020830135617c0b8161799b565b600080600060608486031215617c5957600080fd5b8335925060208401359150604084013567ffffffffffffffff811115617bd057600080fd5b60008060008060808587031215617c9457600080fd5b8435617c9f816177f5565b93506020850135617caf816177f5565b925060408501359150606085013567ffffffffffffffff811115617cd257600080fd5b617cde878288016179ef565b91505092959194509250565b60008060408385031215617cfd57600080fd5b8235617d08816177f5565b91506020830135617c0b816177f5565b600181811c90821680617d2c57607f821691505b602082108103617d4c57634e487b7160e01b600052602260045260246000fd5b50919050565b634e487b7160e01b600052601160045260246000fd5b80820180821115610ebe57610ebe617d52565b634e487b7160e01b600052603260045260246000fd5b6020808252602d908201527f4552433732313a2063616c6c6572206973206e6f7420746f6b656e206f776e6560408201526c1c881bdc88185c1c1c9bdd9959609a1b606082015260800190565b81810381811115610ebe57610ebe617d52565b634e487b7160e01b600052603160045260246000fd5b600060018201617e1957617e19617d52565b5060010190565b600181815b80851115617e5b578160001904821115617e4157617e41617d52565b80851615617e4e57918102915b93841c9390800290617e25565b509250929050565b600082617e7257506001610ebe565b81617e7f57506000610ebe565b8160018114617e955760028114617e9f57617ebb565b6001915050610ebe565b60ff841115617eb057617eb0617d52565b50506001821b610ebe565b5060208310610133831016604e8410600b8410161715617ede575081810a610ebe565b617ee88383617e20565b8060001904821115617efc57617efc617d52565b029392505050565b600061165a60ff841683617e63565b8082028115828204841417610ebe57610ebe617d52565b6020808252600e908201526d139bdd08185d5d1a1bdc9a5e995960921b604082015260600190565b634e487b7160e01b600052601260045260246000fd5b600082617f8557634e487b7160e01b600052601260045260246000fd5b500490565b6020808252602c908201527f46756e6374696f6e206d7573742062652063616c6c6564207468726f7567682060408201526b19195b1959d85d1958d85b1b60a21b606082015260800190565b6020808252602c908201527f46756e6374696f6e206d7573742062652063616c6c6564207468726f7567682060408201526b6163746976652070726f787960a01b606082015260800190565b60008251618034818460208701617757565b9190910192915050565b60006020828403121561805057600080fd5b815160ff8116811461165a57600080fd5b601f82111561109357600081815260208120601f850160051c810160208610156180885750805b601f850160051c820191505b818110156180a757828155600101618094565b505050505050565b815167ffffffffffffffff8111156180c9576180c96179d9565b6180dd816180d78454617d18565b84618061565b602080601f83116001811461811257600084156180fa5750858301515b600019600386901b1c1916600185901b1785556180a7565b600085815260208120601f198616915b8281101561814157888601518255948401946001909101908401618122565b508582101561815f5787850151600019600388901b60f8161c191681555b5050505050600190811b01905550565b60208082526029908201527f54696d656c6f636b206e6f7420736574206f72206e6f7420636f6d706c6574656040820152686420696e2074696d6560b81b606082015260800190565b600083516181ca818460208801617757565b8351908301906181de818360208801617757565b01949350505050565b60208082526025908201527f4552433732313a207472616e736665722066726f6d20696e636f72726563742060408201526437bbb732b960d91b606082015260800190565b60006020828403121561823e57600080fd5b5051919050565b60208082526032908201527f4552433732313a207472616e7366657220746f206e6f6e20455243373231526560408201527131b2b4bb32b91034b6b83632b6b2b73a32b960711b606082015260800190565b6020808252602b908201527f496e697469616c697a61626c653a20636f6e7472616374206973206e6f74206960408201526a6e697469616c697a696e6760a81b606082015260800190565b6000602082840312156182f457600080fd5b815161165a8161799b565b60006020828403121561831157600080fd5b815161165a816177f5565b6001600160a01b0385811682528416602082015260408101839052608060608201819052600090616a889083018461777b565b60006020828403121561836157600080fd5b815161165a8161772456fea3ea4fb8dee4d414198cb197af6eae4fe483c1a0b849dc50e53b9bf1a60e2166360894a13ba1a3210667c828492db98dca3e2076cc3735a920a3ca505d382bbc416464726573733a206c6f772d6c6576656c2064656c65676174652063616c6c206661696c6564a2646970667358221220b62d3dd19b3b8a93a86443e7cc6badcee3b0c0acc903d21c2748d52e22aaf0be64736f6c63430008110033496e697469616c697a61626c653a20636f6e7472616374206973206e6f742069",
    "linkReferences": {}
  },
  "methodIdentifiers": {
    "acceptOwnershipTransfer()": "b842e87f",
    "activeStrategies(uint256)": "b20b2429",
    "activeTokens(uint256)": "9f224f35",
    "addNewBountyPool(address,address,string)": "804fd590",
    "approve(address,uint256)": "095ea7b3",
    "balanceOf(address)": "70a08231",
    "billPremium(uint256)": "2dbe051e",
    "calcRequiredPremiumBalancePerPeriod(uint256,uint256)": "836ef1fa",
    "calculateEffectiveAPY(uint256,uint256)": "5c46f7b1",
    "claimPremium(uint256)": "f47ec3be",
    "collectAllSaloonProfits(address)": "ecd7fbed",
    "collectSaloonProfits(address,address)": "cf9564b9",
    "consolidate()": "724f024b",
    "consolidate(uint256)": "949a4a4a",
    "consolidateAll()": "75bfd63d",
    "getApproved(uint256)": "081812fc",
    "getCurrentAPY(uint256)": "7fbf3853",
    "getMultiplier(uint256,uint256)": "8dbb1e3a",
    "index()": "2986c0e5",
    "initialize(address)": "c4d66de8",
    "isApprovedForAll(address,address)": "e985e9c5",
    "makeProjectDeposit(uint256,uint256,string)": "ae07f948",
    "minTokenStakeAmount(address)": "39458723",
    "name()": "06fdde03",
    "nftAPY(uint256)": "1df56622",
    "nftBalance(uint256)": "e63d6ee4",
    "nftInfo(uint256)": "1f8bc790",
    "nftToPid(uint256)": "612afc0c",
    "owner()": "8da5cb5b",
    "ownerOf(uint256)": "6352211e",
    "payBounty(uint256,address,uint256)": "3ac6ad7b",
    "pendingPremium(uint256)": "40bd1d00",
    "pidNFTList(uint256,uint256)": "96ea48e8",
    "pidStrategies(uint256,bytes32)": "074ecf03",
    "poolInfo(uint256)": "1526fe27",
    "poolLength()": "081e3eda",
    "projectDepositWithdrawal(uint256,uint256)": "983c1ce0",
    "proxiableUUID()": "52d1902d",
    "safeTransferFrom(address,address,uint256)": "42842e0e",
    "safeTransferFrom(address,address,uint256,bytes)": "b88d4fde",
    "saloonBountyProfit(address)": "e45abd0f",
    "saloonPremiumProfit(address)": "ca006148",
    "scheduleProjectDepositWithdrawal(uint256,uint256)": "5669cbef",
    "scheduleUnstake(uint256)": "106d08df",
    "setAPYandPoolCapAndDeposit(uint256,uint256,uint16,uint256,string)": "30ca0794",
    "setApprovalForAll(address,bool)": "a22cb465",
    "stake(uint256,uint256)": "7b0472f0",
    "supportsInterface(bytes4)": "01ffc9a7",
    "symbol()": "95d89b41",
    "tokenURI(uint256)": "c87b56dd",
    "tokenWhitelist(address)": "753d7563",
    "transferFrom(address,address,uint256)": "23b872dd",
    "transferOwnership(address)": "f2fde38b",
    "unstake(uint256,bool)": "9ebea88c",
    "updateStrategyFactoryAddress(address)": "3538fda0",
    "updateTokenWhitelist(address,bool,uint256)": "2cb0dfcc",
    "upgradeTo(address)": "3659cfe6",
    "upgradeToAndCall(address,bytes)": "4f1ef286",
    "viewBountyBalance(uint256)": "6ac6d812",
    "viewBountyInfo(uint256)": "40ef2868",
    "viewHackerPayout(uint256)": "861e5f66",
    "viewMinProjectDeposit(uint256)": "1c6b323f",
    "viewPoolAPY(uint256)": "a27f9213",
    "viewPoolCap(uint256)": "39679ff4",
    "viewPoolPremiumInfo(uint256)": "b1a2d16f",
    "viewPoolTimelockInfo(uint256)": "ac30b856",
    "viewSaloonProfitBalance(address)": "718c7eef",
    "viewTokenInfo(uint256)": "10725852",
    "viewTotalStaked(uint256)": "dbdd6957",
    "viewUserUnclaimed(uint256)": "19693071",
    "windDownBounty(uint256)": "bb7019c1"
  },
  "id": 46
}