{
  "abi": [
    {
      "inputs": [
        {
          "internalType": "UD60x18",
          "name": "x",
          "type": "uint256"
        }
      ],
      "name": "PRBMathUD60x18__LogInputTooSmall",
      "type": "error"
    },
    {
      "inputs": [
        {
          "internalType": "uint256",
          "name": "x",
          "type": "uint256"
        }
      ],
      "name": "PRBMathUD60x18__ToUD60x18Overflow",
      "type": "error"
    },
    {
      "inputs": [
        {
          "internalType": "uint256",
          "name": "x",
          "type": "uint256"
        },
        {
          "internalType": "uint256",
          "name": "y",
          "type": "uint256"
        }
      ],
      "name": "PRBMath__MulDiv18Overflow",
      "type": "error"
    },
    {
      "inputs": [
        {
          "internalType": "uint256",
          "name": "x",
          "type": "uint256"
        },
        {
          "internalType": "uint256",
          "name": "y",
          "type": "uint256"
        },
        {
          "internalType": "uint256",
          "name": "denominator",
          "type": "uint256"
        }
      ],
      "name": "PRBMath__MulDivOverflow",
      "type": "error"
    },
    {
      "anonymous": false,
      "inputs": [
        {
          "indexed": false,
          "internalType": "address",
          "name": "previousAdmin",
          "type": "address"
        },
        {
          "indexed": false,
          "internalType": "address",
          "name": "newAdmin",
          "type": "address"
        }
      ],
      "name": "AdminChanged",
      "type": "event"
    },
    {
      "anonymous": false,
      "inputs": [
        {
          "indexed": true,
          "internalType": "address",
          "name": "owner",
          "type": "address"
        },
        {
          "indexed": true,
          "internalType": "address",
          "name": "approved",
          "type": "address"
        },
        {
          "indexed": true,
          "internalType": "uint256",
          "name": "tokenId",
          "type": "uint256"
        }
      ],
      "name": "Approval",
      "type": "event"
    },
    {
      "anonymous": false,
      "inputs": [
        {
          "indexed": true,
          "internalType": "address",
          "name": "owner",
          "type": "address"
        },
        {
          "indexed": true,
          "internalType": "address",
          "name": "operator",
          "type": "address"
        },
        {
          "indexed": false,
          "internalType": "bool",
          "name": "approved",
          "type": "bool"
        }
      ],
      "name": "ApprovalForAll",
      "type": "event"
    },
    {
      "anonymous": false,
      "inputs": [
        {
          "indexed": true,
          "internalType": "address",
          "name": "beacon",
          "type": "address"
        }
      ],
      "name": "BeaconUpgraded",
      "type": "event"
    },
    {
      "anonymous": false,
      "inputs": [
        {
          "indexed": true,
          "internalType": "uint256",
          "name": "pid",
          "type": "uint256"
        },
        {
          "indexed": false,
          "internalType": "uint256",
          "name": "oldAmount",
          "type": "uint256"
        },
        {
          "indexed": false,
          "internalType": "uint256",
          "name": "newAmount",
          "type": "uint256"
        }
      ],
      "name": "BountyBalanceChanged",
      "type": "event"
    },
    {
      "anonymous": false,
      "inputs": [
        {
          "indexed": true,
          "internalType": "address",
          "name": "hunter",
          "type": "address"
        },
        {
          "indexed": true,
          "internalType": "address",
          "name": "token",
          "type": "address"
        },
        {
          "indexed": false,
          "internalType": "uint256",
          "name": "amount",
          "type": "uint256"
        }
      ],
      "name": "BountyPaid",
      "type": "event"
    },
    {
      "anonymous": false,
      "inputs": [
        {
          "indexed": false,
          "internalType": "uint8",
          "name": "version",
          "type": "uint8"
        }
      ],
      "name": "Initialized",
      "type": "event"
    },
    {
      "anonymous": false,
      "inputs": [
        {
          "indexed": true,
          "internalType": "uint256",
          "name": "pid",
          "type": "uint256"
        },
        {
          "indexed": true,
          "internalType": "address",
          "name": "token",
          "type": "address"
        },
        {
          "indexed": false,
          "internalType": "uint256",
          "name": "tokenDecimals",
          "type": "uint256"
        }
      ],
      "name": "NewBountyDeployed",
      "type": "event"
    },
    {
      "anonymous": false,
      "inputs": [
        {
          "indexed": true,
          "internalType": "address",
          "name": "previousOwner",
          "type": "address"
        },
        {
          "indexed": true,
          "internalType": "address",
          "name": "newOwner",
          "type": "address"
        }
      ],
      "name": "OwnershipTransferred",
      "type": "event"
    },
    {
      "anonymous": false,
      "inputs": [
        {
          "indexed": true,
          "internalType": "uint256",
          "name": "pid",
          "type": "uint256"
        },
        {
          "indexed": false,
          "internalType": "uint256",
          "name": "amount",
          "type": "uint256"
        }
      ],
      "name": "PremiumBilled",
      "type": "event"
    },
    {
      "anonymous": false,
      "inputs": [
        {
          "indexed": true,
          "internalType": "address",
          "name": "user",
          "type": "address"
        },
        {
          "indexed": true,
          "internalType": "uint256",
          "name": "pid",
          "type": "uint256"
        },
        {
          "indexed": false,
          "internalType": "uint256",
          "name": "amount",
          "type": "uint256"
        }
      ],
      "name": "Staked",
      "type": "event"
    },
    {
      "anonymous": false,
      "inputs": [
        {
          "indexed": true,
          "internalType": "address",
          "name": "from",
          "type": "address"
        },
        {
          "indexed": true,
          "internalType": "address",
          "name": "to",
          "type": "address"
        },
        {
          "indexed": true,
          "internalType": "uint256",
          "name": "tokenId",
          "type": "uint256"
        }
      ],
      "name": "Transfer",
      "type": "event"
    },
    {
      "anonymous": false,
      "inputs": [
        {
          "indexed": true,
          "internalType": "address",
          "name": "user",
          "type": "address"
        },
        {
          "indexed": true,
          "internalType": "uint256",
          "name": "pid",
          "type": "uint256"
        },
        {
          "indexed": false,
          "internalType": "uint256",
          "name": "amount",
          "type": "uint256"
        }
      ],
      "name": "Unstaked",
      "type": "event"
    },
    {
      "anonymous": false,
      "inputs": [
        {
          "indexed": true,
          "internalType": "address",
          "name": "implementation",
          "type": "address"
        }
      ],
      "name": "Upgraded",
      "type": "event"
    },
    {
      "anonymous": false,
      "inputs": [
        {
          "indexed": true,
          "internalType": "uint256",
          "name": "pid",
          "type": "uint256"
        },
        {
          "indexed": false,
          "internalType": "uint256",
          "name": "amount",
          "type": "uint256"
        }
      ],
      "name": "WithdrawalOrUnstakeScheduled",
      "type": "event"
    },
    {
      "anonymous": false,
      "inputs": [
        {
          "indexed": true,
          "internalType": "address",
          "name": "referrer",
          "type": "address"
        },
        {
          "indexed": false,
          "internalType": "uint256",
          "name": "amount",
          "type": "uint256"
        }
      ],
      "name": "referralPaid",
      "type": "event"
    },
    {
      "anonymous": false,
      "inputs": [
        {
          "indexed": true,
          "internalType": "address",
          "name": "token",
          "type": "address"
        },
        {
          "indexed": true,
          "internalType": "bool",
          "name": "whitelisted",
          "type": "bool"
        }
      ],
      "name": "tokenWhitelistUpdated",
      "type": "event"
    },
    {
      "inputs": [],
      "name": "acceptOwnershipTransfer",
      "outputs": [],
      "stateMutability": "nonpayable",
      "type": "function"
    },
    {
      "inputs": [
        {
          "internalType": "uint256",
          "name": "",
          "type": "uint256"
        }
      ],
      "name": "activeStrategies",
      "outputs": [
        {
          "internalType": "bytes32",
          "name": "",
          "type": "bytes32"
        }
      ],
      "stateMutability": "view",
      "type": "function"
    },
    {
      "inputs": [
        {
          "internalType": "uint256",
          "name": "",
          "type": "uint256"
        }
      ],
      "name": "activeTokens",
      "outputs": [
        {
          "internalType": "address",
          "name": "",
          "type": "address"
        }
      ],
      "stateMutability": "view",
      "type": "function"
    },
    {
      "inputs": [
        {
          "internalType": "address",
          "name": "_token",
          "type": "address"
        },
        {
          "internalType": "address",
          "name": "_projectWallet",
          "type": "address"
        },
        {
          "internalType": "string",
          "name": "_projectName",
          "type": "string"
        },
        {
          "internalType": "address",
          "name": "_referrer",
          "type": "address"
        },
        {
          "internalType": "uint256",
          "name": "_referralFee",
          "type": "uint256"
        },
        {
          "internalType": "uint256",
          "name": "_referralEndTime",
          "type": "uint256"
        }
      ],
      "name": "addNewBountyPool",
      "outputs": [
        {
          "internalType": "uint256",
          "name": "",
          "type": "uint256"
        }
      ],
      "stateMutability": "nonpayable",
      "type": "function"
    },
    {
      "inputs": [
        {
          "internalType": "address",
          "name": "to",
          "type": "address"
        },
        {
          "internalType": "uint256",
          "name": "tokenId",
          "type": "uint256"
        }
      ],
      "name": "approve",
      "outputs": [],
      "stateMutability": "nonpayable",
      "type": "function"
    },
    {
      "inputs": [
        {
          "internalType": "address",
          "name": "owner",
          "type": "address"
        }
      ],
      "name": "balanceOf",
      "outputs": [
        {
          "internalType": "uint256",
          "name": "",
          "type": "uint256"
        }
      ],
      "stateMutability": "view",
      "type": "function"
    },
    {
      "inputs": [
        {
          "internalType": "uint256",
          "name": "_pid",
          "type": "uint256"
        }
      ],
      "name": "billPremium",
      "outputs": [
        {
          "internalType": "bool",
          "name": "",
          "type": "bool"
        }
      ],
      "stateMutability": "nonpayable",
      "type": "function"
    },
    {
      "inputs": [
        {
          "internalType": "uint256",
          "name": "_pid",
          "type": "uint256"
        },
        {
          "internalType": "uint256",
          "name": "_totalAmount",
          "type": "uint256"
        }
      ],
      "name": "calcReferralSplit",
      "outputs": [
        {
          "internalType": "uint256",
          "name": "",
          "type": "uint256"
        },
        {
          "internalType": "uint256",
          "name": "",
          "type": "uint256"
        },
        {
          "internalType": "address",
          "name": "",
          "type": "address"
        }
      ],
      "stateMutability": "view",
      "type": "function"
    },
    {
      "inputs": [
        {
          "internalType": "uint256",
          "name": "_poolCap",
          "type": "uint256"
        },
        {
          "internalType": "uint256",
          "name": "_apy",
          "type": "uint256"
        }
      ],
      "name": "calcRequiredPremiumBalancePerPeriod",
      "outputs": [
        {
          "internalType": "uint256",
          "name": "requiredPremiumBalance",
          "type": "uint256"
        }
      ],
      "stateMutability": "pure",
      "type": "function"
    },
    {
      "inputs": [
        {
          "internalType": "uint256",
          "name": "_pid",
          "type": "uint256"
        },
        {
          "internalType": "uint256",
          "name": "_stake",
          "type": "uint256"
        },
        {
          "internalType": "uint256",
          "name": "_memX",
          "type": "uint256"
        }
      ],
      "name": "calculateArbitraryEffectiveAPY",
      "outputs": [
        {
          "internalType": "uint256",
          "name": "scaledAPY",
          "type": "uint256"
        }
      ],
      "stateMutability": "view",
      "type": "function"
    },
    {
      "inputs": [
        {
          "internalType": "uint256",
          "name": "_pid",
          "type": "uint256"
        },
        {
          "internalType": "uint256",
          "name": "_stake",
          "type": "uint256"
        }
      ],
      "name": "calculateEffectiveAPY",
      "outputs": [
        {
          "internalType": "uint256",
          "name": "scaledAPY",
          "type": "uint256"
        }
      ],
      "stateMutability": "view",
      "type": "function"
    },
    {
      "inputs": [
        {
          "internalType": "uint256",
          "name": "_tokenId",
          "type": "uint256"
        }
      ],
      "name": "claimPremium",
      "outputs": [],
      "stateMutability": "nonpayable",
      "type": "function"
    },
    {
      "inputs": [],
      "name": "collectAllReferralProfits",
      "outputs": [
        {
          "internalType": "bool",
          "name": "",
          "type": "bool"
        }
      ],
      "stateMutability": "nonpayable",
      "type": "function"
    },
    {
      "inputs": [
        {
          "internalType": "address",
          "name": "_saloonWallet",
          "type": "address"
        }
      ],
      "name": "collectAllSaloonProfits",
      "outputs": [
        {
          "internalType": "bool",
          "name": "",
          "type": "bool"
        }
      ],
      "stateMutability": "nonpayable",
      "type": "function"
    },
    {
      "inputs": [
        {
          "internalType": "address",
          "name": "_token",
          "type": "address"
        }
      ],
      "name": "collectReferralProfit",
      "outputs": [
        {
          "internalType": "bool",
          "name": "",
          "type": "bool"
        }
      ],
      "stateMutability": "nonpayable",
      "type": "function"
    },
    {
      "inputs": [
        {
          "internalType": "address",
          "name": "_token",
          "type": "address"
        },
        {
          "internalType": "address",
          "name": "_saloonWallet",
          "type": "address"
        }
      ],
      "name": "collectSaloonProfits",
      "outputs": [
        {
          "internalType": "bool",
          "name": "",
          "type": "bool"
        }
      ],
      "stateMutability": "nonpayable",
      "type": "function"
    },
    {
      "inputs": [],
      "name": "compoundYieldForAll",
      "outputs": [],
      "stateMutability": "nonpayable",
      "type": "function"
    },
    {
      "inputs": [
        {
          "internalType": "uint256",
          "name": "_pid",
          "type": "uint256"
        }
      ],
      "name": "compoundYieldForPid",
      "outputs": [],
      "stateMutability": "nonpayable",
      "type": "function"
    },
    {
      "inputs": [
        {
          "internalType": "uint256",
          "name": "_pid",
          "type": "uint256"
        }
      ],
      "name": "consolidate",
      "outputs": [],
      "stateMutability": "nonpayable",
      "type": "function"
    },
    {
      "inputs": [],
      "name": "consolidateAll",
      "outputs": [],
      "stateMutability": "nonpayable",
      "type": "function"
    },
    {
      "inputs": [
        {
          "internalType": "uint256",
          "name": "_pid",
          "type": "uint256"
        },
        {
          "internalType": "uint256",
          "name": "_endTime",
          "type": "uint256"
        }
      ],
      "name": "extendReferralPeriod",
      "outputs": [],
      "stateMutability": "nonpayable",
      "type": "function"
    },
    {
      "inputs": [
        {
          "internalType": "uint256",
          "name": "tokenId",
          "type": "uint256"
        }
      ],
      "name": "getApproved",
      "outputs": [
        {
          "internalType": "address",
          "name": "",
          "type": "address"
        }
      ],
      "stateMutability": "view",
      "type": "function"
    },
    {
      "inputs": [
        {
          "internalType": "uint256",
          "name": "_pid",
          "type": "uint256"
        }
      ],
      "name": "getCurrentAPY",
      "outputs": [
        {
          "internalType": "uint256",
          "name": "currentAPY",
          "type": "uint256"
        }
      ],
      "stateMutability": "view",
      "type": "function"
    },
    {
      "inputs": [
        {
          "internalType": "uint256",
          "name": "_from",
          "type": "uint256"
        },
        {
          "internalType": "uint256",
          "name": "_to",
          "type": "uint256"
        }
      ],
      "name": "getSecondsPassed",
      "outputs": [
        {
          "internalType": "uint256",
          "name": "",
          "type": "uint256"
        }
      ],
      "stateMutability": "pure",
      "type": "function"
    },
    {
      "inputs": [],
      "name": "index",
      "outputs": [
        {
          "internalType": "uint256",
          "name": "",
          "type": "uint256"
        }
      ],
      "stateMutability": "view",
      "type": "function"
    },
    {
      "inputs": [
        {
          "internalType": "address",
          "name": "_strategyFactory",
          "type": "address"
        }
      ],
      "name": "initialize",
      "outputs": [],
      "stateMutability": "nonpayable",
      "type": "function"
    },
    {
      "inputs": [
        {
          "internalType": "address",
          "name": "owner",
          "type": "address"
        },
        {
          "internalType": "address",
          "name": "operator",
          "type": "address"
        }
      ],
      "name": "isApprovedForAll",
      "outputs": [
        {
          "internalType": "bool",
          "name": "",
          "type": "bool"
        }
      ],
      "stateMutability": "view",
      "type": "function"
    },
    {
      "inputs": [
        {
          "internalType": "uint256",
          "name": "_pid",
          "type": "uint256"
        },
        {
          "internalType": "uint256",
          "name": "_deposit",
          "type": "uint256"
        },
        {
          "internalType": "string",
          "name": "_strategyName",
          "type": "string"
        }
      ],
      "name": "makeProjectDeposit",
      "outputs": [],
      "stateMutability": "nonpayable",
      "type": "function"
    },
    {
      "inputs": [
        {
          "internalType": "address",
          "name": "",
          "type": "address"
        }
      ],
      "name": "minTokenStakeAmount",
      "outputs": [
        {
          "internalType": "uint256",
          "name": "",
          "type": "uint256"
        }
      ],
      "stateMutability": "view",
      "type": "function"
    },
    {
      "inputs": [],
      "name": "name",
      "outputs": [
        {
          "internalType": "string",
          "name": "",
          "type": "string"
        }
      ],
      "stateMutability": "view",
      "type": "function"
    },
    {
      "inputs": [
        {
          "internalType": "uint256",
          "name": "",
          "type": "uint256"
        }
      ],
      "name": "nftAPY",
      "outputs": [
        {
          "internalType": "uint256",
          "name": "",
          "type": "uint256"
        }
      ],
      "stateMutability": "view",
      "type": "function"
    },
    {
      "inputs": [
        {
          "internalType": "uint256",
          "name": "",
          "type": "uint256"
        }
      ],
      "name": "nftBalance",
      "outputs": [
        {
          "internalType": "uint256",
          "name": "",
          "type": "uint256"
        }
      ],
      "stateMutability": "view",
      "type": "function"
    },
    {
      "inputs": [
        {
          "internalType": "uint256",
          "name": "",
          "type": "uint256"
        }
      ],
      "name": "nftInfo",
      "outputs": [
        {
          "internalType": "uint256",
          "name": "amount",
          "type": "uint256"
        },
        {
          "internalType": "uint256",
          "name": "xDelta",
          "type": "uint256"
        },
        {
          "internalType": "uint256",
          "name": "apy",
          "type": "uint256"
        },
        {
          "internalType": "uint256",
          "name": "unclaimed",
          "type": "uint256"
        },
        {
          "internalType": "uint256",
          "name": "lastClaimedTime",
          "type": "uint256"
        },
        {
          "internalType": "uint256",
          "name": "timelock",
          "type": "uint256"
        },
        {
          "internalType": "uint256",
          "name": "timelimit",
          "type": "uint256"
        }
      ],
      "stateMutability": "view",
      "type": "function"
    },
    {
      "inputs": [
        {
          "internalType": "uint256",
          "name": "",
          "type": "uint256"
        }
      ],
      "name": "nftToPid",
      "outputs": [
        {
          "internalType": "uint256",
          "name": "",
          "type": "uint256"
        }
      ],
      "stateMutability": "view",
      "type": "function"
    },
    {
      "inputs": [],
      "name": "owner",
      "outputs": [
        {
          "internalType": "address",
          "name": "",
          "type": "address"
        }
      ],
      "stateMutability": "view",
      "type": "function"
    },
    {
      "inputs": [
        {
          "internalType": "uint256",
          "name": "tokenId",
          "type": "uint256"
        }
      ],
      "name": "ownerOf",
      "outputs": [
        {
          "internalType": "address",
          "name": "",
          "type": "address"
        }
      ],
      "stateMutability": "view",
      "type": "function"
    },
    {
      "inputs": [
        {
          "internalType": "uint256",
          "name": "_pid",
          "type": "uint256"
        },
        {
          "internalType": "address",
          "name": "_hunter",
          "type": "address"
        },
        {
          "internalType": "uint256",
          "name": "_payoutBPS",
          "type": "uint256"
        }
      ],
      "name": "payBounty",
      "outputs": [
        {
          "internalType": "bool",
          "name": "",
          "type": "bool"
        }
      ],
      "stateMutability": "nonpayable",
      "type": "function"
    },
    {
      "inputs": [
        {
          "internalType": "uint256",
          "name": "_tokenId",
          "type": "uint256"
        }
      ],
      "name": "pendingPremium",
      "outputs": [
        {
          "internalType": "uint256",
          "name": "totalPending",
          "type": "uint256"
        },
        {
          "internalType": "uint256",
          "name": "actualPending",
          "type": "uint256"
        },
        {
          "internalType": "uint256",
          "name": "newPending",
          "type": "uint256"
        }
      ],
      "stateMutability": "view",
      "type": "function"
    },
    {
      "inputs": [
        {
          "internalType": "uint256",
          "name": "",
          "type": "uint256"
        },
        {
          "internalType": "uint256",
          "name": "",
          "type": "uint256"
        }
      ],
      "name": "pidNFTList",
      "outputs": [
        {
          "internalType": "uint256",
          "name": "",
          "type": "uint256"
        }
      ],
      "stateMutability": "view",
      "type": "function"
    },
    {
      "inputs": [
        {
          "internalType": "uint256",
          "name": "",
          "type": "uint256"
        },
        {
          "internalType": "bytes32",
          "name": "",
          "type": "bytes32"
        }
      ],
      "name": "pidStrategies",
      "outputs": [
        {
          "internalType": "address",
          "name": "",
          "type": "address"
        }
      ],
      "stateMutability": "view",
      "type": "function"
    },
    {
      "inputs": [
        {
          "internalType": "uint256",
          "name": "",
          "type": "uint256"
        }
      ],
      "name": "poolInfo",
      "outputs": [
        {
          "components": [
            {
              "internalType": "contract IERC20",
              "name": "token",
              "type": "address"
            },
            {
              "internalType": "uint8",
              "name": "tokenDecimals",
              "type": "uint8"
            },
            {
              "internalType": "uint16",
              "name": "apy",
              "type": "uint16"
            },
            {
              "internalType": "address",
              "name": "projectWallet",
              "type": "address"
            },
            {
              "internalType": "string",
              "name": "projectName",
              "type": "string"
            },
            {
              "internalType": "uint256",
              "name": "poolCap",
              "type": "uint256"
            },
            {
              "internalType": "uint256",
              "name": "totalStaked",
              "type": "uint256"
            },
            {
              "internalType": "uint256",
              "name": "scalingMultiplier",
              "type": "uint256"
            }
          ],
          "internalType": "struct ISaloon.GeneralInfo",
          "name": "generalInfo",
          "type": "tuple"
        },
        {
          "components": [
            {
              "internalType": "uint256",
              "name": "projectDepositHeld",
              "type": "uint256"
            },
            {
              "internalType": "uint256",
              "name": "projectDepositInStrategy",
              "type": "uint256"
            }
          ],
          "internalType": "struct ISaloon.DepositInfo",
          "name": "depositInfo",
          "type": "tuple"
        },
        {
          "components": [
            {
              "internalType": "uint256",
              "name": "premiumBalance",
              "type": "uint256"
            },
            {
              "internalType": "uint256",
              "name": "premiumAvailable",
              "type": "uint256"
            }
          ],
          "internalType": "struct ISaloon.PremiumInfo",
          "name": "premiumInfo",
          "type": "tuple"
        },
        {
          "components": [
            {
              "internalType": "uint256",
              "name": "timelock",
              "type": "uint256"
            },
            {
              "internalType": "uint256",
              "name": "timeLimit",
              "type": "uint256"
            },
            {
              "internalType": "uint256",
              "name": "withdrawalScheduledAmount",
              "type": "uint256"
            },
            {
              "internalType": "bool",
              "name": "withdrawalExecuted",
              "type": "bool"
            }
          ],
          "internalType": "struct ISaloon.TimelockInfo",
          "name": "poolTimelock",
          "type": "tuple"
        },
        {
          "components": [
            {
              "internalType": "uint256",
              "name": "currentX",
              "type": "uint256"
            },
            {
              "internalType": "uint256",
              "name": "currentY",
              "type": "uint256"
            },
            {
              "internalType": "uint256",
              "name": "totalSupply",
              "type": "uint256"
            },
            {
              "internalType": "uint256[]",
              "name": "unstakedTokens",
              "type": "uint256[]"
            }
          ],
          "internalType": "struct ISaloon.CurveInfo",
          "name": "curveInfo",
          "type": "tuple"
        },
        {
          "components": [
            {
              "internalType": "address",
              "name": "referrer",
              "type": "address"
            },
            {
              "internalType": "uint256",
              "name": "referralFee",
              "type": "uint256"
            },
            {
              "internalType": "uint256",
              "name": "endTime",
              "type": "uint256"
            }
          ],
          "internalType": "struct ISaloon.ReferralInfo",
          "name": "referralInfo",
          "type": "tuple"
        },
        {
          "internalType": "uint256",
          "name": "freezeTime",
          "type": "uint256"
        },
        {
          "internalType": "bool",
          "name": "isActive",
          "type": "bool"
        }
      ],
      "stateMutability": "view",
      "type": "function"
    },
    {
      "inputs": [],
      "name": "poolLength",
      "outputs": [
        {
          "internalType": "uint256",
          "name": "",
          "type": "uint256"
        }
      ],
      "stateMutability": "view",
      "type": "function"
    },
    {
      "inputs": [
        {
          "internalType": "uint256",
          "name": "_pid",
          "type": "uint256"
        },
        {
          "internalType": "uint256",
          "name": "_amount",
          "type": "uint256"
        }
      ],
      "name": "projectDepositWithdrawal",
      "outputs": [
        {
          "internalType": "bool",
          "name": "",
          "type": "bool"
        }
      ],
      "stateMutability": "nonpayable",
      "type": "function"
    },
    {
      "inputs": [],
      "name": "proxiableUUID",
      "outputs": [
        {
          "internalType": "bytes32",
          "name": "",
          "type": "bytes32"
        }
      ],
      "stateMutability": "view",
      "type": "function"
    },
    {
      "inputs": [
        {
          "internalType": "address",
          "name": "_token",
          "type": "address"
        },
        {
          "internalType": "uint256",
          "name": "_amount",
          "type": "uint256"
        }
      ],
      "name": "receiveStrategyYield",
      "outputs": [],
      "stateMutability": "nonpayable",
      "type": "function"
    },
    {
      "inputs": [
        {
          "internalType": "address",
          "name": "",
          "type": "address"
        },
        {
          "internalType": "address",
          "name": "",
          "type": "address"
        }
      ],
      "name": "referralBalances",
      "outputs": [
        {
          "internalType": "uint256",
          "name": "",
          "type": "uint256"
        }
      ],
      "stateMutability": "view",
      "type": "function"
    },
    {
      "inputs": [
        {
          "internalType": "address",
          "name": "from",
          "type": "address"
        },
        {
          "internalType": "address",
          "name": "to",
          "type": "address"
        },
        {
          "internalType": "uint256",
          "name": "tokenId",
          "type": "uint256"
        }
      ],
      "name": "safeTransferFrom",
      "outputs": [],
      "stateMutability": "nonpayable",
      "type": "function"
    },
    {
      "inputs": [
        {
          "internalType": "address",
          "name": "from",
          "type": "address"
        },
        {
          "internalType": "address",
          "name": "to",
          "type": "address"
        },
        {
          "internalType": "uint256",
          "name": "tokenId",
          "type": "uint256"
        },
        {
          "internalType": "bytes",
          "name": "data",
          "type": "bytes"
        }
      ],
      "name": "safeTransferFrom",
      "outputs": [],
      "stateMutability": "nonpayable",
      "type": "function"
    },
    {
      "inputs": [
        {
          "internalType": "address",
          "name": "",
          "type": "address"
        }
      ],
      "name": "saloonBountyProfit",
      "outputs": [
        {
          "internalType": "uint256",
          "name": "",
          "type": "uint256"
        }
      ],
      "stateMutability": "view",
      "type": "function"
    },
    {
      "inputs": [
        {
          "internalType": "address",
          "name": "",
          "type": "address"
        }
      ],
      "name": "saloonPremiumProfit",
      "outputs": [
        {
          "internalType": "uint256",
          "name": "",
          "type": "uint256"
        }
      ],
      "stateMutability": "view",
      "type": "function"
    },
    {
      "inputs": [
        {
          "internalType": "address",
          "name": "",
          "type": "address"
        }
      ],
      "name": "saloonStrategyProfit",
      "outputs": [
        {
          "internalType": "uint256",
          "name": "",
          "type": "uint256"
        }
      ],
      "stateMutability": "view",
      "type": "function"
    },
    {
      "inputs": [
        {
          "internalType": "uint256",
          "name": "_pid",
          "type": "uint256"
        },
        {
          "internalType": "uint256",
          "name": "_amount",
          "type": "uint256"
        }
      ],
      "name": "scheduleProjectDepositWithdrawal",
      "outputs": [
        {
          "internalType": "bool",
          "name": "",
          "type": "bool"
        }
      ],
      "stateMutability": "nonpayable",
      "type": "function"
    },
    {
      "inputs": [
        {
          "internalType": "uint256",
          "name": "_tokenId",
          "type": "uint256"
        }
      ],
      "name": "scheduleUnstake",
      "outputs": [
        {
          "internalType": "bool",
          "name": "",
          "type": "bool"
        }
      ],
      "stateMutability": "nonpayable",
      "type": "function"
    },
    {
      "inputs": [
        {
          "internalType": "uint256",
          "name": "_pid",
          "type": "uint256"
        },
        {
          "internalType": "uint256",
          "name": "_poolCap",
          "type": "uint256"
        },
        {
          "internalType": "uint16",
          "name": "_apy",
          "type": "uint16"
        },
        {
          "internalType": "uint256",
          "name": "_deposit",
          "type": "uint256"
        },
        {
          "internalType": "string",
          "name": "_strategyName",
          "type": "string"
        }
      ],
      "name": "setAPYandPoolCapAndDeposit",
      "outputs": [],
      "stateMutability": "nonpayable",
      "type": "function"
    },
    {
      "inputs": [
        {
          "internalType": "address",
          "name": "operator",
          "type": "address"
        },
        {
          "internalType": "bool",
          "name": "approved",
          "type": "bool"
        }
      ],
      "name": "setApprovalForAll",
      "outputs": [],
      "stateMutability": "nonpayable",
      "type": "function"
    },
    {
      "inputs": [
        {
          "internalType": "uint256",
          "name": "_pid",
          "type": "uint256"
        },
        {
          "internalType": "uint256",
          "name": "_amount",
          "type": "uint256"
        }
      ],
      "name": "stake",
      "outputs": [
        {
          "internalType": "uint256",
          "name": "",
          "type": "uint256"
        }
      ],
      "stateMutability": "nonpayable",
      "type": "function"
    },
    {
      "inputs": [
        {
          "internalType": "address",
          "name": "",
          "type": "address"
        }
      ],
      "name": "strategyAddressToPid",
      "outputs": [
        {
          "internalType": "uint256",
          "name": "",
          "type": "uint256"
        }
      ],
      "stateMutability": "view",
      "type": "function"
    },
    {
      "inputs": [
        {
          "internalType": "bytes4",
          "name": "interfaceId",
          "type": "bytes4"
        }
      ],
      "name": "supportsInterface",
      "outputs": [
        {
          "internalType": "bool",
          "name": "",
          "type": "bool"
        }
      ],
      "stateMutability": "view",
      "type": "function"
    },
    {
      "inputs": [],
      "name": "symbol",
      "outputs": [
        {
          "internalType": "string",
          "name": "",
          "type": "string"
        }
      ],
      "stateMutability": "view",
      "type": "function"
    },
    {
      "inputs": [
        {
          "internalType": "uint256",
          "name": "tokenId",
          "type": "uint256"
        }
      ],
      "name": "tokenURI",
      "outputs": [
        {
          "internalType": "string",
          "name": "",
          "type": "string"
        }
      ],
      "stateMutability": "view",
      "type": "function"
    },
    {
      "inputs": [
        {
          "internalType": "address",
          "name": "",
          "type": "address"
        }
      ],
      "name": "tokenWhitelist",
      "outputs": [
        {
          "internalType": "bool",
          "name": "",
          "type": "bool"
        }
      ],
      "stateMutability": "view",
      "type": "function"
    },
    {
      "inputs": [
        {
          "internalType": "address",
          "name": "from",
          "type": "address"
        },
        {
          "internalType": "address",
          "name": "to",
          "type": "address"
        },
        {
          "internalType": "uint256",
          "name": "tokenId",
          "type": "uint256"
        }
      ],
      "name": "transferFrom",
      "outputs": [],
      "stateMutability": "nonpayable",
      "type": "function"
    },
    {
      "inputs": [
        {
          "internalType": "address",
          "name": "newOwner",
          "type": "address"
        }
      ],
      "name": "transferOwnership",
      "outputs": [],
      "stateMutability": "nonpayable",
      "type": "function"
    },
    {
      "inputs": [
        {
          "internalType": "uint256",
          "name": "_tokenId",
          "type": "uint256"
        },
        {
          "internalType": "bool",
          "name": "_shouldHarvest",
          "type": "bool"
        }
      ],
      "name": "unstake",
      "outputs": [
        {
          "internalType": "bool",
          "name": "",
          "type": "bool"
        }
      ],
      "stateMutability": "nonpayable",
      "type": "function"
    },
    {
      "inputs": [
        {
          "internalType": "address",
          "name": "_strategyFactory",
          "type": "address"
        }
      ],
      "name": "updateStrategyFactoryAddress",
      "outputs": [],
      "stateMutability": "nonpayable",
      "type": "function"
    },
    {
      "inputs": [
        {
          "internalType": "address",
          "name": "_token",
          "type": "address"
        },
        {
          "internalType": "bool",
          "name": "_whitelisted",
          "type": "bool"
        },
        {
          "internalType": "uint256",
          "name": "_minStakeAmount",
          "type": "uint256"
        }
      ],
      "name": "updateTokenWhitelist",
      "outputs": [
        {
          "internalType": "bool",
          "name": "",
          "type": "bool"
        }
      ],
      "stateMutability": "nonpayable",
      "type": "function"
    },
    {
      "inputs": [
        {
          "internalType": "address",
          "name": "newImplementation",
          "type": "address"
        }
      ],
      "name": "upgradeTo",
      "outputs": [],
      "stateMutability": "nonpayable",
      "type": "function"
    },
    {
      "inputs": [
        {
          "internalType": "address",
          "name": "newImplementation",
          "type": "address"
        },
        {
          "internalType": "bytes",
          "name": "data",
          "type": "bytes"
        }
      ],
      "name": "upgradeToAndCall",
      "outputs": [],
      "stateMutability": "payable",
      "type": "function"
    },
    {
      "inputs": [
        {
          "internalType": "uint256",
          "name": "_pid",
          "type": "uint256"
        }
      ],
      "name": "viewBountyBalance",
      "outputs": [
        {
          "internalType": "uint256",
          "name": "",
          "type": "uint256"
        }
      ],
      "stateMutability": "view",
      "type": "function"
    },
    {
      "inputs": [
        {
          "internalType": "uint256",
          "name": "_pid",
          "type": "uint256"
        }
      ],
      "name": "viewBountyInfo",
      "outputs": [
        {
          "internalType": "uint256",
          "name": "payout",
          "type": "uint256"
        },
        {
          "internalType": "uint256",
          "name": "apy",
          "type": "uint256"
        },
        {
          "internalType": "uint256",
          "name": "staked",
          "type": "uint256"
        },
        {
          "internalType": "uint256",
          "name": "poolCap",
          "type": "uint256"
        }
      ],
      "stateMutability": "view",
      "type": "function"
    },
    {
      "inputs": [
        {
          "internalType": "uint256",
          "name": "_pid",
          "type": "uint256"
        }
      ],
      "name": "viewHackerPayout",
      "outputs": [
        {
          "internalType": "uint256",
          "name": "",
          "type": "uint256"
        }
      ],
      "stateMutability": "view",
      "type": "function"
    },
    {
      "inputs": [
        {
          "internalType": "uint256",
          "name": "_pid",
          "type": "uint256"
        }
      ],
      "name": "viewMinProjectDeposit",
      "outputs": [
        {
          "internalType": "uint256",
          "name": "",
          "type": "uint256"
        }
      ],
      "stateMutability": "view",
      "type": "function"
    },
    {
      "inputs": [
        {
          "internalType": "uint256",
          "name": "_pid",
          "type": "uint256"
        }
      ],
      "name": "viewPoolAPY",
      "outputs": [
        {
          "internalType": "uint256",
          "name": "",
          "type": "uint256"
        }
      ],
      "stateMutability": "view",
      "type": "function"
    },
    {
      "inputs": [
        {
          "internalType": "uint256",
          "name": "_pid",
          "type": "uint256"
        }
      ],
      "name": "viewPoolCap",
      "outputs": [
        {
          "internalType": "uint256",
          "name": "",
          "type": "uint256"
        }
      ],
      "stateMutability": "view",
      "type": "function"
    },
    {
      "inputs": [
        {
          "internalType": "uint256",
          "name": "_pid",
          "type": "uint256"
        }
      ],
      "name": "viewPoolPremiumInfo",
      "outputs": [
        {
          "internalType": "uint256",
          "name": "requiredPremiumBalancePerPeriod",
          "type": "uint256"
        },
        {
          "internalType": "uint256",
          "name": "premiumBalance",
          "type": "uint256"
        },
        {
          "internalType": "uint256",
          "name": "premiumAvailable",
          "type": "uint256"
        }
      ],
      "stateMutability": "view",
      "type": "function"
    },
    {
      "inputs": [
        {
          "internalType": "uint256",
          "name": "_pid",
          "type": "uint256"
        }
      ],
      "name": "viewPoolTimelockInfo",
      "outputs": [
        {
          "internalType": "uint256",
          "name": "timelock",
          "type": "uint256"
        },
        {
          "internalType": "uint256",
          "name": "timeLimit",
          "type": "uint256"
        },
        {
          "internalType": "uint256",
          "name": "withdrawalScheduledAmount",
          "type": "uint256"
        }
      ],
      "stateMutability": "view",
      "type": "function"
    },
    {
      "inputs": [
        {
          "internalType": "address",
          "name": "_referrer",
          "type": "address"
        },
        {
          "internalType": "address",
          "name": "_token",
          "type": "address"
        }
      ],
      "name": "viewReferralBalance",
      "outputs": [
        {
          "internalType": "uint256",
          "name": "referralBalance",
          "type": "uint256"
        }
      ],
      "stateMutability": "view",
      "type": "function"
    },
    {
      "inputs": [
        {
          "internalType": "address",
          "name": "_token",
          "type": "address"
        }
      ],
      "name": "viewSaloonProfitBalance",
      "outputs": [
        {
          "internalType": "uint256",
          "name": "totalProfit",
          "type": "uint256"
        },
        {
          "internalType": "uint256",
          "name": "bountyProfit",
          "type": "uint256"
        },
        {
          "internalType": "uint256",
          "name": "strategyProfit",
          "type": "uint256"
        },
        {
          "internalType": "uint256",
          "name": "premiumProfit",
          "type": "uint256"
        }
      ],
      "stateMutability": "view",
      "type": "function"
    },
    {
      "inputs": [
        {
          "internalType": "uint256",
          "name": "_tokenId",
          "type": "uint256"
        }
      ],
      "name": "viewTokenInfo",
      "outputs": [
        {
          "internalType": "uint256",
          "name": "amount",
          "type": "uint256"
        },
        {
          "internalType": "uint256",
          "name": "apy",
          "type": "uint256"
        },
        {
          "internalType": "uint256",
          "name": "actualPending",
          "type": "uint256"
        },
        {
          "internalType": "uint256",
          "name": "unclaimed",
          "type": "uint256"
        },
        {
          "internalType": "uint256",
          "name": "timelock",
          "type": "uint256"
        }
      ],
      "stateMutability": "view",
      "type": "function"
    },
    {
      "inputs": [
        {
          "internalType": "uint256",
          "name": "_pid",
          "type": "uint256"
        }
      ],
      "name": "viewTotalStaked",
      "outputs": [
        {
          "internalType": "uint256",
          "name": "",
          "type": "uint256"
        }
      ],
      "stateMutability": "view",
      "type": "function"
    },
    {
      "inputs": [
        {
          "internalType": "uint256",
          "name": "_tokenId",
          "type": "uint256"
        }
      ],
      "name": "viewUserUnclaimed",
      "outputs": [
        {
          "internalType": "uint256",
          "name": "unclaimed",
          "type": "uint256"
        }
      ],
      "stateMutability": "view",
      "type": "function"
    },
    {
      "inputs": [
        {
          "internalType": "uint256",
          "name": "_pid",
          "type": "uint256"
        }
      ],
      "name": "windDownBounty",
      "outputs": [
        {
          "internalType": "bool",
          "name": "",
          "type": "bool"
        }
      ],
      "stateMutability": "nonpayable",
      "type": "function"
    }
  ],
  "bytecode": {
    "object": "0x60a0604052306080523480156200001557600080fd5b50600160ca55600054610100900460ff16158080156200003c5750600054600160ff909116105b806200006c575062000059306200019760201b62006a111760201c565b1580156200006c575060005460ff166001145b620000d55760405162461bcd60e51b815260206004820152602e60248201527f496e697469616c697a61626c653a20636f6e747261637420697320616c72656160448201526d191e481a5b9a5d1a585b1a5e995960921b60648201526084015b60405180910390fd5b6000805460ff191660011790558015620000f9576000805461ff0019166101001790555b620001496040518060400160405280600b81526020016a2137bab73a3caa37b5b2b760a91b8152506040518060400160405280600381526020016210951560ea1b815250620001a660201b60201c565b801562000190576000805461ff0019169055604051600181527f7f26b83ff96e1f2b6a682f133852f6798a09c465da95921460cefb38474024989060200160405180910390a15b5062000400565b6001600160a01b03163b151590565b600054610100900460ff16620002025760405162461bcd60e51b815260206004820152602b602482015260008051602062009f5183398151915260448201526a6e697469616c697a696e6760a81b6064820152608401620000cc565b6200020e828262000212565b5050565b600054610100900460ff166200026e5760405162461bcd60e51b815260206004820152602b602482015260008051602062009f5183398151915260448201526a6e697469616c697a696e6760a81b6064820152608401620000cc565b60fd6200027c838262000334565b5060fe6200028b828262000334565b505050565b634e487b7160e01b600052604160045260246000fd5b600181811c90821680620002bb57607f821691505b602082108103620002dc57634e487b7160e01b600052602260045260246000fd5b50919050565b601f8211156200028b57600081815260208120601f850160051c810160208610156200030b5750805b601f850160051c820191505b818110156200032c5782815560010162000317565b505050505050565b81516001600160401b0381111562000350576200035062000290565b6200036881620003618454620002a6565b84620002e2565b602080601f831160018114620003a05760008415620003875750858301515b600019600386901b1c1916600185901b1785556200032c565b600085815260208120601f198616915b82811015620003d157888601518255948401946001909101908401620003b0565b5085821015620003f05787850151600019600388901b60f8161c191681555b5050505050600190811b01905550565b608051619b19620004386000396000818161244001528181612480015281816131430152818161318301526136060152619b196000f3fe6080604052600436106104895760003560e01c80636ac6d81211610255578063a27f921311610144578063ca006148116100c1578063e78ea3df11610085578063e78ea3df14610fff578063e985e9c51461101f578063ecd7fbed14611069578063f2fde38b14611089578063f47ec3be146110a9578063f68ce499146110c957600080fd5b8063ca00614814610f35578063cf9564b914610f63578063dbdd695714610f83578063e45abd0f14610fa3578063e63d6ee414610fd157600080fd5b8063b842e87f11610108578063b842e87f14610ea0578063b88d4fde14610eb5578063bb7019c114610ed5578063c4d66de814610ef5578063c87b56dd14610f1557600080fd5b8063a27f921314610df2578063ac30b85614610e12578063ae07f94814610e32578063b1a2d16f14610e52578063b20b242914610e7257600080fd5b8063928dc6a9116101d2578063983c1ce011610196578063983c1ce014610d525780639ebea88c14610d725780639f224f3514610d92578063a089a52014610db2578063a22cb46514610dd257600080fd5b8063928dc6a914610c8b578063949a4a4a14610ccf578063957deecc14610cef57806395d89b4114610d1d57806396ea48e814610d3257600080fd5b80637b0472f0116102195780637b0472f014610bed5780637fbf385314610c0d578063836ef1fa14610c2d578063861e5f6614610c4d5780638da5cb5b14610c6d57600080fd5b80636ac6d81214610b4757806370a0823114610b67578063718c7eef14610b87578063753d756314610ba757806375bfd63d14610bd857600080fd5b80632dbe051e1161037c57806340ef2868116102f95780635669cbef116102bd5780635669cbef14610a6b578063598d17bf14610a8b5780635c46f7b114610ab95780635de406dc14610ad9578063612afc0c14610af95780636352211e14610b2757600080fd5b806340ef2868146109c357806342842e0e14610a035780634f1ef28614610a235780634f3214cc14610a3657806352d1902d14610a5657600080fd5b80633945872311610340578063394587231461090557806339679ff4146109335780633ac6ad7b146109535780633e8888d91461097357806340bd1d001461098857600080fd5b80632dbe051e1461086557806330ca07941461088557806332fce602146108a55780633538fda0146108c55780633659cfe6146108e557600080fd5b8063107258521161040a5780631df56622116103ce5780631df56622146107525780631f8bc7901461078057806323b872dd1461080e5780632986c0e51461082e5780632cb0dfcc1461084557600080fd5b806310725852146106655780631526fe27146106ad57806319693071146106e15780631aebcecb146107125780631c6b323f1461073257600080fd5b8063081e3eda11610451578063081e3eda146105a6578063095ea7b3146105bc5780630a015ab1146105de5780630ed7610c146105fe578063106d08df1461064557600080fd5b8063011b408b1461048e57806301ffc9a7146104da57806306fdde031461050a578063074ecf031461052c578063081812fc14610586575b600080fd5b34801561049a57600080fd5b506104c76104a9366004618d36565b61013960209081526000928352604080842090915290825290205481565b6040519081526020015b60405180910390f35b3480156104e657600080fd5b506104fa6104f5366004618d85565b6110de565b60405190151581526020016104d1565b34801561051657600080fd5b5061051f611130565b6040516104d19190618df2565b34801561053857600080fd5b5061056e610547366004618e05565b61013b6020908152600092835260408084209091529082529020546001600160a01b031681565b6040516001600160a01b0390911681526020016104d1565b34801561059257600080fd5b5061056e6105a1366004618e27565b6111c2565b3480156105b257600080fd5b50610130546104c7565b3480156105c857600080fd5b506105dc6105d7366004618e40565b6111ea565b005b3480156105ea57600080fd5b506104c76105f9366004618e05565b611304565b34801561060a57600080fd5b506104c7610619366004618d36565b6001600160a01b0391821660009081526101396020908152604080832093909416825291909152205490565b34801561065157600080fd5b506104fa610660366004618e27565b611317565b34801561067157600080fd5b50610685610680366004618e27565b6113fe565b604080519586526020860194909452928401919091526060830152608082015260a0016104d1565b3480156106b957600080fd5b506106cd6106c8366004618e27565b611496565b6040516104d1989796959493929190618ed7565b3480156106ed57600080fd5b506104c76106fc366004618e27565b6000908152610134602052604090206003015490565b34801561071e57600080fd5b506105dc61072d366004618e40565b6116f3565b34801561073e57600080fd5b506104c761074d366004618e27565b6117ac565b34801561075e57600080fd5b506104c761076d366004618e27565b6101326020526000908152604090205481565b34801561078c57600080fd5b506107d961079b366004618e27565b610134602052600090815260409020805460018201546002830154600384015460048501546005860154600690960154949593949293919290919087565b604080519788526020880196909652948601939093526060850191909152608084015260a083015260c082015260e0016104d1565b34801561081a57600080fd5b506105dc610829366004619012565b611a9f565b34801561083a57600080fd5b506104c76101035481565b34801561085157600080fd5b506104fa610860366004619061565b611ad0565b34801561087157600080fd5b506104fa610880366004618e27565b611d22565b34801561089157600080fd5b506105dc6108a0366004619134565b611d3f565b3480156108b157600080fd5b506104c76108c03660046191a8565b611fc6565b3480156108d157600080fd5b506105dc6108e036600461922f565b61240b565b3480156108f157600080fd5b506105dc61090036600461922f565b612436565b34801561091157600080fd5b506104c761092036600461922f565b6101406020526000908152604090205481565b34801561093f57600080fd5b506104c761094e366004618e27565b612515565b34801561095f57600080fd5b506104fa61096e36600461924c565b6127fa565b34801561097f57600080fd5b506104fa612c87565b34801561099457600080fd5b506109a86109a3366004618e27565b612cea565b604080519384526020840192909252908201526060016104d1565b3480156109cf57600080fd5b506109e36109de366004618e27565b6130e5565b6040805194855260208501939093529183015260608201526080016104d1565b348015610a0f57600080fd5b506105dc610a1e366004619012565b61311e565b6105dc610a31366004619273565b613139565b348015610a4257600080fd5b506104c7610a513660046192c3565b613209565b348015610a6257600080fd5b506104c76135f9565b348015610a7757600080fd5b506104fa610a86366004618e05565b6136ac565b348015610a9757600080fd5b506104c7610aa636600461922f565b6101386020526000908152604090205481565b348015610ac557600080fd5b506104c7610ad4366004618e05565b6137da565b348015610ae557600080fd5b506105dc610af4366004618e05565b613b9d565b348015610b0557600080fd5b506104c7610b14366004618e27565b6101336020526000908152604090205481565b348015610b3357600080fd5b5061056e610b42366004618e27565b613c28565b348015610b5357600080fd5b506104c7610b62366004618e27565b613c88565b348015610b7357600080fd5b506104c7610b8236600461922f565b613f7c565b348015610b9357600080fd5b506109e3610ba236600461922f565b614003565b348015610bb357600080fd5b506104fa610bc236600461922f565b61013e6020526000908152604090205460ff1681565b348015610be457600080fd5b506105dc614053565b348015610bf957600080fd5b506104c7610c08366004618e05565b61407b565b348015610c1957600080fd5b506104c7610c28366004618e27565b614577565b348015610c3957600080fd5b506104c7610c48366004618e05565b61487b565b348015610c5957600080fd5b506104c7610c68366004618e27565b6148b1565b348015610c7957600080fd5b506033546001600160a01b031661056e565b348015610c9757600080fd5b50610cab610ca6366004618e05565b614bbb565b6040805193845260208401929092526001600160a01b0316908201526060016104d1565b348015610cdb57600080fd5b506105dc610cea366004618e27565b614f19565b348015610cfb57600080fd5b506104c7610d0a36600461922f565b61013d6020526000908152604090205481565b348015610d2957600080fd5b5061051f615366565b348015610d3e57600080fd5b506104c7610d4d366004618e05565b615375565b348015610d5e57600080fd5b506104fa610d6d366004618e05565b6153a7565b348015610d7e57600080fd5b506104fa610d8d3660046192ef565b61552e565b348015610d9e57600080fd5b5061056e610dad366004618e27565b615734565b348015610dbe57600080fd5b506104fa610dcd36600461922f565b61575f565b348015610dde57600080fd5b506105dc610ded366004619314565b6157d5565b348015610dfe57600080fd5b506104c7610e0d366004618e27565b6157e0565b348015610e1e57600080fd5b506109a8610e2d366004618e27565b615ac8565b348015610e3e57600080fd5b506105dc610e4d366004619342565b615dc4565b348015610e5e57600080fd5b506109a8610e6d366004618e27565b615ec4565b348015610e7e57600080fd5b506104c7610e8d366004618e27565b61013c6020526000908152604090205481565b348015610eac57600080fd5b506105dc6161d5565b348015610ec157600080fd5b506105dc610ed0366004619392565b616255565b348015610ee157600080fd5b506104fa610ef0366004618e27565b61628d565b348015610f0157600080fd5b506105dc610f1036600461922f565b616359565b348015610f2157600080fd5b5061051f610f30366004618e27565b616486565b348015610f4157600080fd5b506104c7610f5036600461922f565b6101376020526000908152604090205481565b348015610f6f57600080fd5b506104fa610f7e366004618d36565b6164f9565b348015610f8f57600080fd5b506104c7610f9e366004618e27565b61655d565b348015610faf57600080fd5b506104c7610fbe36600461922f565b6101366020526000908152604090205481565b348015610fdd57600080fd5b506104c7610fec366004618e27565b6101316020526000908152604090205481565b34801561100b57600080fd5b506105dc61101a366004618e27565b616842565b34801561102b57600080fd5b506104fa61103a366004618d36565b6001600160a01b0391821660009081526101026020908152604080832093909416825291909152205460ff1690565b34801561107557600080fd5b506104fa61108436600461922f565b6168da565b34801561109557600080fd5b506105dc6110a436600461922f565b61693d565b3480156110b557600080fd5b506105dc6110c4366004618e27565b6169cc565b3480156110d557600080fd5b506105dc6169e9565b60006001600160e01b031982166380ac58cd60e01b148061110f57506001600160e01b03198216635b5e139f60e01b145b8061112a57506301ffc9a760e01b6001600160e01b03198316145b92915050565b606060fd805461113f906193fe565b80601f016020809104026020016040519081016040528092919081815260200182805461116b906193fe565b80156111b85780601f1061118d576101008083540402835291602001916111b8565b820191906000526020600020905b81548152906001019060200180831161119b57829003601f168201915b5050505050905090565b60006111cd82616a20565b50600090815261010160205260409020546001600160a01b031690565b60006111f582613c28565b9050806001600160a01b0316836001600160a01b0316036112675760405162461bcd60e51b815260206004820152602160248201527f4552433732313a20617070726f76616c20746f2063757272656e74206f776e656044820152603960f91b60648201526084015b60405180910390fd5b336001600160a01b03821614806112835750611283813361103a565b6112f55760405162461bcd60e51b815260206004820152603d60248201527f4552433732313a20617070726f76652063616c6c6572206973206e6f7420746f60448201527f6b656e206f776e6572206f7220617070726f76656420666f7220616c6c000000606482015260840161125e565b6112ff8383616a7f565b505050565b60006113108284616aee565b9392505050565b60003361132383613c28565b6001600160a01b03161461136f5760405162461bcd60e51b815260206004820152601360248201527239b2b73232b91034b9903737ba1037bbb732b960691b604482015260640161125e565b6000828152610133602090815260408083205461013490925290912061139862093a804261944e565b60058201556113aa62093a804261944e565b6113b7906203f48061944e565b6006820155805460405181815283907fb3b9c925de3673837b40c6b4d4463a8f88dc821cd27e07f1ff6bf6abf96413a59060200160405180910390a2506001949350505050565b600081815261013360209081526040808320546101348352818420825160e081018452815480825260018301549582019590955260028201549381018490526003820154606082015260048201546080820152600582015460a082015260069091015460c0820152929391928291829161147788612cea565b50606083015160a090930151989a979950979196919550909350505050565b61013081815481106114a757600080fd5b60009182526020918290206040805161010081018252601890930290910180546001600160a01b03808216855260ff600160a01b8304169585019590955261ffff600160a81b909104169183019190915260018101549092166060820152600282018054929350909183916080840191611520906193fe565b80601f016020809104026020016040519081016040528092919081815260200182805461154c906193fe565b80156115995780601f1061156e57610100808354040283529160200191611599565b820191906000526020600020905b81548152906001019060200180831161157c57829003601f168201915b50505091835250506003820154602080830191909152600483015460408084019190915260059093015460609283015282518084018452600686015481526007860154818301528351808501855260088701548152600987015481840152845160808082018752600a8901548252600b89015482860152600c89015482880152600d89015460ff1615158287015286519081018752600e890180548252600f8a01548287015260108a01548289015260118a018054895181890281018901909a52808a52999a95999498939795969295919491860193929091908301828280156116a257602002820191906000526020600020905b81548152602001906001019080831161168e575b5050509190925250506040805160608101825260128501546001600160a01b031681526013850154602082015260148501549181019190915260168401546017909401549293909290915060ff1688565b6117086001600160a01b038316333084616afa565b5033600090815261013d602052604081205490819003611756576001600160a01b038316600090815261013860205260408120805484929061174b90849061944e565b909155506112ff9050565b60008060006117658486614bbb565b925092509250611776818784616b68565b6001600160a01b038616600090815261013860205260408120805485929061179f90849061944e565b9091555050505050505050565b60008061013083815481106117c3576117c3619461565b6000918252602090912060408051610220810190915260189092020180546001600160a01b038082166101208501908152600160a01b830460ff16610140860152600160a81b90920461ffff1661016085015260018301541661018084015260028201805484929184916101a08501919061183d906193fe565b80601f0160208091040260200160405190810160405280929190818152602001828054611869906193fe565b80156118b65780601f1061188b576101008083540402835291602001916118b6565b820191906000526020600020905b81548152906001019060200180831161189957829003601f168201915b505050918352505060038201546020808301919091526004830154604080840191909152600590930154606092830152928452815180830183526006860154815260078601548185015284840152815180830183526008860154815260098601548185015284830152815160808082018452600a8701548252600b87015482860152600c87015482850152600d87015460ff161515828401528583019190915282518082018452600e870180548252600f880154828701526010880154828601526011880180548651818902810189019097528087529390970196919590949386019392908301828280156119ca57602002820191906000526020600020905b8154815260200190600101908083116119b6575b5050509190925250505081526040805160608101825260128401546001600160a01b03168152601384015460208281019190915260148501548284015280840191909152601584018054835181840281018401855281815293909401939091830182828015611a6257602002820191906000526020600020905b81546001600160a01b03168152600190910190602001808311611a44575b5050509183525050601682015460208083019190915260179092015460ff161515604090910152818101519081015190519192506113109161944e565b611aa93382616bb9565b611ac55760405162461bcd60e51b815260040161125e90619477565b6112ff838383616c38565b6000611ada616d9e565b6001600160a01b038416600090815261013e602052604090205460ff16151583151480611b075750600082115b611b4c5760405162461bcd60e51b81526020600482015260166024820152751b9bc818da185b99d9481d1bc81dda1a5d195b1a5cdd60521b604482015260640161125e565b6001600160a01b038416600081815261013e6020526040808220805460ff191687151590811790915590519092917f99795d51e5a8804307721456a7a9c2f0d7421f719d46a46d36e91fee7c85aa7691a38215611c045761013f8054600181019091557f61537fc21ace3653481170484f792538e1b4bc282f58b619d975a553f7077a760180546001600160a01b0319166001600160a01b038616908117909155600090815261014060205260409020829055611d18565b61013f5460005b81811015611d1557600061013f8281548110611c2957611c29619461565b6000918252602090912001546001600160a01b03908116915087168103611d045761013f611c586001856194c4565b81548110611c6857611c68619461565b60009182526020909120015461013f80546001600160a01b039092169184908110611c9557611c95619461565b9060005260206000200160006101000a8154816001600160a01b0302191690836001600160a01b0316021790555061013f805480611cd557611cd56194d7565b600082815260209020810160001990810180546001600160a01b03191690550190555060019250611310915050565b50611d0e816194ed565b9050611c0b565b50505b5060019392505050565b6000611d2c616d9e565b611d37826000616df8565b506001919050565b60006101308681548110611d5557611d55619461565b60009182526020909120601890910201601781015490915060ff16158015611d7f57506003810154155b611dcb5760405162461bcd60e51b815260206004820152601860248201527f506f6f6c20616c726561647920696e697469616c697a65640000000000000000604482015260640161125e565b60008461ffff16118015611de557506127108461ffff1611155b611e245760405162461bcd60e51b815260206004820152601060248201526f415059206f7574206f662072616e676560801b604482015260640161125e565b8054611e3b90600160a01b900460ff16600a6195ea565b611e469060646195f9565b8510158015611e7857508054611e6790600160a01b900460ff16600a6195ea565b611e7490629896806195f9565b8511155b611ebc5760405162461bcd60e51b8152602060048201526015602482015274506f6f6c20636170206f7574206f662072616e676560581b604482015260640161125e565b60018101546001600160a01b03163314611ee85760405162461bcd60e51b815260040161125e90619610565b6000611ef8868661ffff1661487b565b90506000612710611f0b6103e8846195f9565b611f15919061964e565b9050611f393330611f26858961944e565b86546001600160a01b0316929190616afa565b5084836006016000016000828254611f51919061944e565b909155505060038301879055825461ffff60a81b1916600160a81b61ffff88160217835560178301805460ff1916600117905560088301829055611f9581836194c4565b6009840155611fa88861ffff8816616f7b565b835115611fbc57611fba888587616fd2565b505b5050505050505050565b6000611fd0616d9e565b6001600160a01b038716600090815261013e602052604090205460ff166120315760405162461bcd60e51b81526020600482015260156024820152741d1bdad95b881b9bdd081dda1a5d195b1a5cdd1959605a1b604482015260640161125e565b61138883111561207b5760405162461bcd60e51b81526020600482015260156024820152740e4cacccae4e4c2d840cccaca40e8dede40d0d2ced605b1b604482015260640161125e565b60408051600481526024810182526020810180516001600160e01b031663313ce56760e01b17905290516000916001600160a01b038a16916120bd9190619670565b600060405180830381855afa9150503d80600081146120f8576040519150601f19603f3d011682016040523d82523d6000602084013e6120fd565b606091505b50915050600081806020019051810190612117919061968c565b905060068160ff1610156121665760405162461bcd60e51b815260206004820152601660248201527524b73b30b634b2103232b1b4b6b0b6103932ba3ab93760511b604482015260640161125e565b61216e618b21565b80516001600160a01b03808c16909152815160ff80851660209283015283518c8416606091820152845160809081018d905260a0860180518d87169052805185018c90525160409081018b905261013080546001810182556000919091528751805160189092027f2f605e086faac1d93117bbfbc18835d434e9405fadc1ca66faf4b864746daf3481018054988301519483015161ffff16600160a81b0261ffff60a81b1995909816600160a01b026001600160a81b0319909916938a16939093179790971792909216949094178455918201517f2f605e086faac1d93117bbfbc18835d434e9405fadc1ca66faf4b864746daf3585018054919096166001600160a01b03199190911617909455928301518493919283917f2f605e086faac1d93117bbfbc18835d434e9405fadc1ca66faf4b864746daf36909101906122b590826196fd565b5060a0820151600382015560c0820151600482015560e0909101516005909101556020828101518051600684015581015160078301556040808401518051600885015582015160098401556060808501518051600a86015580840151600b86015580830151600c860155810151600d8501805460ff191691151591909117905560808501518051600e860190815581850151600f870155928101516010860155908101518051919361236f92601187019290910190618c52565b50505060a082015180516012830180546001600160a01b0319166001600160a01b039092169190911790556020808201516013840155604090910151601483015560c083015180516123c79260158501920190618c9d565b5060e08201516016820155610100909101516017909101805460ff1916911515919091179055610130546123fd906001906194c4565b9a9950505050505050505050565b612413616d9e565b61013a80546001600160a01b0319166001600160a01b0392909216919091179055565b6001600160a01b037f000000000000000000000000000000000000000000000000000000000000000016300361247e5760405162461bcd60e51b815260040161125e906197bd565b7f00000000000000000000000000000000000000000000000000000000000000006001600160a01b03166124c7600080516020619a9d833981519152546001600160a01b031690565b6001600160a01b0316146124ed5760405162461bcd60e51b815260040161125e90619809565b6124f681617165565b604080516000808252602082019092526125129183919061716d565b50565b600080610130838154811061252c5761252c619461565b6000918252602090912060408051610220810190915260189092020180546001600160a01b038082166101208501908152600160a01b830460ff16610140860152600160a81b90920461ffff1661016085015260018301541661018084015260028201805484929184916101a0850191906125a6906193fe565b80601f01602080910402602001604051908101604052809291908181526020018280546125d2906193fe565b801561261f5780601f106125f45761010080835404028352916020019161261f565b820191906000526020600020905b81548152906001019060200180831161260257829003601f168201915b505050918352505060038201546020808301919091526004830154604080840191909152600590930154606092830152928452815180830183526006860154815260078601548185015284840152815180830183526008860154815260098601548185015284830152815160808082018452600a8701548252600b87015482860152600c87015482850152600d87015460ff161515828401528583019190915282518082018452600e870180548252600f8801548287015260108801548286015260118801805486518189028101890190975280875293909701969195909493860193929083018282801561273357602002820191906000526020600020905b81548152602001906001019080831161271f575b5050509190925250505081526040805160608101825260128401546001600160a01b031681526013840154602082810191909152601485015482840152808401919091526015840180548351818402810184018552818152939094019390918301828280156127cb57602002820191906000526020600020905b81546001600160a01b031681526001909101906020018083116127ad575b50505091835250506016820154602082015260179091015460ff1615156040909101525160a001519392505050565b6000612804616d9e565b6000610130858154811061281a5761281a619461565b6000918252602082206004601890920201908101549092509061283c876117ac565b612846908361944e565b9050600061271061285787846195f9565b612861919061964e565b90508281036129005760008881526101356020526040812054905b818110156128e25760008a8152610135602052604081208054839081106128a5576128a5619461565b906000526020600020015490506000610134600083815260200190815260200160002090506128d58260006172d8565b600090555060010161287c565b506000600486018190556128fa906015870190618cf2565b50612b21565b82811015612a075760008361291d670de0b6b3a7640000846195f9565b612927919061964e565b60008a815261013560205260408120549192505b818110156129ff5760008b81526101356020526040812080548390811061296457612964619461565b906000526020600020015490506000610134600083815260200190815260200160002090506129948260006172d8565b6000670de0b6b3a76400008683600001546129af91906195f9565b6129b9919061964e565b9050808260000160008282546129cf91906194c4565b909155505060048a0180548291906000906129eb9084906194c4565b90915550506001909301925061293b915050565b505050612b21565b8281118015612a165750818111155b15612ae75760008881526101356020526040812054905b81811015612a935760008a815261013560205260408120805483908110612a5657612a56619461565b90600052602060002001549050600061013460008381526020019081526020016000209050612a868260006172d8565b6000905550600101612a2d565b50600060048601819055612aab906015870190618cf2565b612ab489617411565b506000612ac185846194c4565b905080866006016000016000828254612ada91906194c4565b90915550612b2192505050565b60405162461bcd60e51b815260206004820152600f60248201526e082dadeeadce840e8dede40d0d2ced608b1b604482015260640161125e565b6000612710612b326103e8846195f9565b612b3c919061964e565b90506000612b4a82846194c4565b90506000806000612b5b8d86614bbb565b8b5492955090935091506001600160a01b0316612b79828285616b68565b6001600160a01b0381166000908152610136602052604081208054869290612ba290849061944e565b90915550508954612bbd906001600160a01b03168e87617568565b506000612bc98f6117ac565b60048c0154612bd8919061944e565b90508a60000160000160009054906101000a90046001600160a01b03166001600160a01b03168e6001600160a01b03167fbcbf239e05ac65bcc1a5612cd36d392b0a0aa8c93e027bc86e727687483424888a604051612c3991815260200190565b60405180910390a38e600080516020619a7d8339815191528a83604051612c6a929190918252602082015260400190565b60405180910390a25060019e9d5050505050505050505050505050565b61013f54600090815b81811015612ce157600061013f8281548110612cae57612cae619461565b6000918252602090912001546001600160a01b03169050612cce8161575f565b505080612cda906194ed565b9050612c90565b50600191505090565b60008181526101336020526040812054610130805483928392909183919083908110612d1857612d18619461565b6000918252602090912060408051610220810190915260189092020180546001600160a01b038082166101208501908152600160a01b830460ff16610140860152600160a81b90920461ffff1661016085015260018301541661018084015260028201805484929184916101a085019190612d92906193fe565b80601f0160208091040260200160405190810160405280929190818152602001828054612dbe906193fe565b8015612e0b5780601f10612de057610100808354040283529160200191612e0b565b820191906000526020600020905b815481529060010190602001808311612dee57829003601f168201915b505050918352505060038201546020808301919091526004830154604080840191909152600590930154606092830152928452815180830183526006860154815260078601548185015284840152815180830183526008860154815260098601548185015284830152815160808082018452600a8701548252600b87015482860152600c87015482850152600d87015460ff161515828401528583019190915282518082018452600e870180548252600f88015482870152601088015482860152601188018054865181890281018901909752808752939097019691959094938601939290830182828015612f1f57602002820191906000526020600020905b815481526020019060010190808311612f0b575b5050509190925250505081526040805160608101825260128401546001600160a01b03168152601384015460208281019190915260148501548284015280840191909152601584018054835181840281018401855281815293909401939091830182828015612fb757602002820191906000526020600020905b81546001600160a01b03168152600190910190602001808311612f99575b5050509183525050601682015460208083019190915260179092015460ff16151560409182015260008981526101348352818120825160e08082018552825482526001830154958201959095526002820154938101939093526003810154606084015260048101546080840152600581015460a08401526006015460c08301529183015192935091810361304b5742613051565b8260e001515b90506000613063836080015183611304565b90506301e13380816127108560400151866000015161308291906195f9565b61308c919061964e565b61309691906195f9565b6130a0919061964e565b95508260600151866130b2919061944e565b97506127106130c36103e8826194c4565b6130cd908a6195f9565b6130d7919061964e565b965050505050509193909250565b6000806000806130f4856148b1565b93506130ff8561655d565b915061310a856157e0565b925061311585612515565b90509193509193565b6112ff83838360405180602001604052806000815250616255565b6001600160a01b037f00000000000000000000000000000000000000000000000000000000000000001630036131815760405162461bcd60e51b815260040161125e906197bd565b7f00000000000000000000000000000000000000000000000000000000000000006001600160a01b03166131ca600080516020619a9d833981519152546001600160a01b031690565b6001600160a01b0316146131f05760405162461bcd60e51b815260040161125e90619809565b6131f982617165565b6132058282600161716d565b5050565b600080610130858154811061322057613220619461565b6000918252602090912060408051610220810190915260189092020180546001600160a01b038082166101208501908152600160a01b830460ff16610140860152600160a81b90920461ffff1661016085015260018301541661018084015260028201805484929184916101a08501919061329a906193fe565b80601f01602080910402602001604051908101604052809291908181526020018280546132c6906193fe565b80156133135780601f106132e857610100808354040283529160200191613313565b820191906000526020600020905b8154815290600101906020018083116132f657829003601f168201915b505050918352505060038201546020808301919091526004830154604080840191909152600590930154606092830152928452815180830183526006860154815260078601548185015284840152815180830183526008860154815260098601548185015284830152815160808082018452600a8701548252600b87015482860152600c87015482850152600d87015460ff161515828401528583019190915282518082018452600e870180548252600f8801548287015260108801548286015260118801805486518189028101890190975280875293909701969195909493860193929083018282801561342757602002820191906000526020600020905b815481526020019060010190808311613413575b5050509190925250505081526040805160608101825260128401546001600160a01b031681526013840154602082810191909152601485015482840152808401919091526015840180548351818402810184018552818152939094019390918301828280156134bf57602002820191906000526020600020905b81546001600160a01b031681526001909101906020018083116134a1575b50505091835250506016820154602082015260179091015460ff16151560409091015290508260006134f1878761759b565b5090506000613500838361944e565b9050600061350f8260216195f9565b61352190674563918244f4000061944e565b905060006135308560216195f9565b61354290674563918244f4000061944e565b90506000613557613552846175f8565b617641565b90506000613567613552846175f8565b905060006135a561357860216175f8565b61359f6135858686617679565b6135996a295be96e640669720000006175f8565b90617688565b90617697565b905060006135b688620f42406195f9565b6135c0908361964e565b8a5160e00151909150670de0b6b3a76400006135dc82846195f9565b6135e6919061964e565b9f9e505050505050505050505050505050565b6000306001600160a01b037f000000000000000000000000000000000000000000000000000000000000000016146136995760405162461bcd60e51b815260206004820152603860248201527f555550535570677261646561626c653a206d757374206e6f742062652063616c60448201527f6c6564207468726f7567682064656c656761746563616c6c0000000000000000606482015260840161125e565b50600080516020619a9d83398151915290565b60008061013084815481106136c3576136c3619461565b90600052602060002090601802019050826136dd856117ac565b101561372b5760405162461bcd60e51b815260206004820152601a60248201527f416d6f756e7420626967676572207468616e206465706f736974000000000000604482015260640161125e565b60018101546001600160a01b031633146137575760405162461bcd60e51b815260040161125e90619610565b61376462093a804261944e565b600a82015561377662093a804261944e565b613783906203f48061944e565b600b820155600c8101839055600d8101805460ff1916905560405183815284907fb3b9c925de3673837b40c6b4d4463a8f88dc821cd27e07f1ff6bf6abf96413a59060200160405180910390a25060019392505050565b60008061013084815481106137f1576137f1619461565b6000918252602090912060408051610220810190915260189092020180546001600160a01b038082166101208501908152600160a01b830460ff16610140860152600160a81b90920461ffff1661016085015260018301541661018084015260028201805484929184916101a08501919061386b906193fe565b80601f0160208091040260200160405190810160405280929190818152602001828054613897906193fe565b80156138e45780601f106138b9576101008083540402835291602001916138e4565b820191906000526020600020905b8154815290600101906020018083116138c757829003601f168201915b505050918352505060038201546020808301919091526004830154604080840191909152600590930154606092830152928452815180830183526006860154815260078601548185015284840152815180830183526008860154815260098601548185015284830152815160808082018452600a8701548252600b87015482860152600c87015482850152600d87015460ff161515828401528583019190915282518082018452600e870180548252600f880154828701526010880154828601526011880180548651818902810189019097528087529390970196919590949386019392908301828280156139f857602002820191906000526020600020905b8154815260200190600101908083116139e4575b5050509190925250505081526040805160608101825260128401546001600160a01b03168152601384015460208281019190915260148501548284015280840191909152601584018054835181840281018401855281815293909401939091830182828015613a9057602002820191906000526020600020905b81546001600160a01b03168152600190910190602001808311613a72575b50505091835250506016820154602082015260179091015460ff1615156040909101526080810151519091506000613ac8868661759b565b5090506000613ad7838361944e565b90506000613ae68260216195f9565b613af890674563918244f4000061944e565b90506000613b078560216195f9565b613b1990674563918244f4000061944e565b90506000613b29613552846175f8565b90506000613b39613552846175f8565b90506000613b4a61357860216175f8565b90506000613b5b88620f42406195f9565b613b65908361964e565b8a5160e00151909150670de0b6b3a7640000613b8182846195f9565b613b8b919061964e565b9e9d5050505050505050505050505050565b613ba5616d9e565b60006101308381548110613bbb57613bbb619461565b9060005260206000209060180201905080601201600201548211613c215760405162461bcd60e51b815260206004820152601860248201527f63616e206f6e6c7920657874656e6420656e642074696d650000000000000000604482015260640161125e565b6014015550565b600081815260ff60205260408120546001600160a01b03168061112a5760405162461bcd60e51b8152602060048201526018602482015277115490cdcc8c4e881a5b9d985b1a59081d1bdad95b88125160421b604482015260640161125e565b6000806101308381548110613c9f57613c9f619461565b6000918252602090912060408051610220810190915260189092020180546001600160a01b038082166101208501908152600160a01b830460ff16610140860152600160a81b90920461ffff1661016085015260018301541661018084015260028201805484929184916101a085019190613d19906193fe565b80601f0160208091040260200160405190810160405280929190818152602001828054613d45906193fe565b8015613d925780601f10613d6757610100808354040283529160200191613d92565b820191906000526020600020905b815481529060010190602001808311613d7557829003601f168201915b505050918352505060038201546020808301919091526004830154604080840191909152600590930154606092830152928452815180830183526006860154815260078601548185015284840152815180830183526008860154815260098601548185015284830152815160808082018452600a8701548252600b87015482860152600c87015482850152600d87015460ff161515828401528583019190915282518082018452600e870180548252600f88015482870152601088015482860152601188018054865181890281018901909752808752939097019691959094938601939290830182828015613ea657602002820191906000526020600020905b815481526020019060010190808311613e92575b5050509190925250505081526040805160608101825260128401546001600160a01b03168152601384015460208281019190915260148501548284015280840191909152601584018054835181840281018401855281815293909401939091830182828015613f3e57602002820191906000526020600020905b81546001600160a01b03168152600190910190602001808311613f20575b50505091835250506016820154602082015260179091015460ff1615156040909101529050613f6c836117ac565b815160c00151611310919061944e565b60006001600160a01b038216613fe65760405162461bcd60e51b815260206004820152602960248201527f4552433732313a2061646472657373207a65726f206973206e6f7420612076616044820152683634b21037bbb732b960b91b606482015260840161125e565b506001600160a01b03166000908152610100602052604090205490565b6001600160a01b0381166000908152610136602090815260408083205461013783528184205461013890935290832054909181614040848361944e565b61404a919061944e565b93509193509193565b6101305460005b818110156132055761406b81614f19565b614074816194ed565b905061405a565b60006140856176af565b826000610130828154811061409c5761409c619461565b6000918252602090912060408051610220810190915260189092020180546001600160a01b038082166101208501908152600160a01b830460ff16610140860152600160a81b90920461ffff1661016085015260018301541661018084015260028201805484929184916101a085019190614116906193fe565b80601f0160208091040260200160405190810160405280929190818152602001828054614142906193fe565b801561418f5780601f106141645761010080835404028352916020019161418f565b820191906000526020600020905b81548152906001019060200180831161417257829003601f168201915b505050918352505060038201546020808301919091526004830154604080840191909152600590930154606092830152928452815180830183526006860154815260078601548185015284840152815180830183526008860154815260098601548185015284830152815160808082018452600a8701548252600b87015482860152600c87015482850152600d87015460ff161515828401528583019190915282518082018452600e870180548252600f880154828701526010880154828601526011880180548651818902810189019097528087529390970196919590949386019392908301828280156142a357602002820191906000526020600020905b81548152602001906001019080831161428f575b5050509190925250505081526040805160608101825260128401546001600160a01b0316815260138401546020828101919091526014850154828401528084019190915260158401805483518184028101840185528181529390940193909183018282801561433b57602002820191906000526020600020905b81546001600160a01b0316815260019091019060200180831161431d575b50505091835250506016820154602082015260179091015460ff1615156040909101526101008101519091506143a55760405162461bcd60e51b815260206004820152600f60248201526e706f6f6c206e6f742061637469766560881b604482015260640161125e565b600061013086815481106143bb576143bb619461565b60009182526020808320601890920290910180546001600160a01b0316835261014090915260409091205490915085101561442c5760405162461bcd60e51b8152602060048201526011602482015270135a5b881cdd185ad9481b9bdd081b595d607a1b604482015260640161125e565b6000614437876117ac565b6004830154614446919061944e565b8254909150614460906001600160a01b0316333089616afa565b50600061446e883389617708565b905086836000016004016000828254614487919061944e565b90915550506003830154158015906144a757506003830154600484015411155b6144e95760405162461bcd60e51b8152602060048201526013602482015272115e18d959591959081c1bdbdb081b1a5b5a5d606a1b604482015260640161125e565b604051878152889033907f1449c6dd7851abc30abf37f57715f492010519147cc2652fbc38202c18a6ee909060200160405180910390a3600061452b896117ac565b600485015461453a919061944e565b60408051858152602081018390529192508a91600080516020619a7d833981519152910160405180910390a25094505050505061112a600160ca55565b600080610130838154811061458e5761458e619461565b6000918252602090912060408051610220810190915260189092020180546001600160a01b038082166101208501908152600160a01b830460ff16610140860152600160a81b90920461ffff1661016085015260018301541661018084015260028201805484929184916101a085019190614608906193fe565b80601f0160208091040260200160405190810160405280929190818152602001828054614634906193fe565b80156146815780601f1061465657610100808354040283529160200191614681565b820191906000526020600020905b81548152906001019060200180831161466457829003601f168201915b505050918352505060038201546020808301919091526004830154604080840191909152600590930154606092830152928452815180830183526006860154815260078601548185015284840152815180830183526008860154815260098601548185015284830152815160808082018452600a8701548252600b87015482860152600c87015482850152600d87015460ff161515828401528583019190915282518082018452600e870180548252600f8801548287015260108801548286015260118801805486518189028101890190975280875293909701969195909493860193929083018282801561479557602002820191906000526020600020905b815481526020019060010190808311614781575b5050509190925250505081526040805160608101825260128401546001600160a01b0316815260138401546020828101919091526014850154828401528084019190915260158401805483518184028101840185528181529390940193909183018282801561482d57602002820191906000526020600020905b81546001600160a01b0316815260019091019060200180831161480f575b50505091835250506016820154602082015260179091015460ff161515604090910152608081015151815160e00151919250906148698261795b565b61487391906195f9565b949350505050565b60006301e1338061271062093a8061489385876195f9565b61489d91906195f9565b6148a7919061964e565b611310919061964e565b60008061013083815481106148c8576148c8619461565b6000918252602090912060408051610220810190915260189092020180546001600160a01b038082166101208501908152600160a01b830460ff16610140860152600160a81b90920461ffff1661016085015260018301541661018084015260028201805484929184916101a085019190614942906193fe565b80601f016020809104026020016040519081016040528092919081815260200182805461496e906193fe565b80156149bb5780601f10614990576101008083540402835291602001916149bb565b820191906000526020600020905b81548152906001019060200180831161499e57829003601f168201915b505050918352505060038201546020808301919091526004830154604080840191909152600590930154606092830152928452815180830183526006860154815260078601548185015284840152815180830183526008860154815260098601548185015284830152815160808082018452600a8701548252600b87015482860152600c87015482850152600d87015460ff161515828401528583019190915282518082018452600e870180548252600f88015482870152601088015482860152601188018054865181890281018901909752808752939097019691959094938601939290830182828015614acf57602002820191906000526020600020905b815481526020019060010190808311614abb575b5050509190925250505081526040805160608101825260128401546001600160a01b03168152601384015460208281019190915260148501548284015280840191909152601584018054835181840281018401855281815293909401939091830182828015614b6757602002820191906000526020600020905b81546001600160a01b03168152600190910190602001808311614b49575b50505091835250506016820154602082015260179091015460ff1615156040909101529050612710614b9b6103e8826194c4565b602083015151835160c00151614bb1919061944e565b6148a791906195f9565b6000806000806101308681548110614bd557614bd5619461565b6000918252602090912060408051610220810190915260189092020180546001600160a01b038082166101208501908152600160a01b830460ff16610140860152600160a81b90920461ffff1661016085015260018301541661018084015260028201805484929184916101a085019190614c4f906193fe565b80601f0160208091040260200160405190810160405280929190818152602001828054614c7b906193fe565b8015614cc85780601f10614c9d57610100808354040283529160200191614cc8565b820191906000526020600020905b815481529060010190602001808311614cab57829003601f168201915b505050918352505060038201546020808301919091526004830154604080840191909152600590930154606092830152928452815180830183526006860154815260078601548185015284840152815180830183526008860154815260098601548185015284830152815160808082018452600a8701548252600b87015482860152600c87015482850152600d87015460ff161515828401528583019190915282518082018452600e870180548252600f88015482870152601088015482860152601188018054865181890281018901909752808752939097019691959094938601939290830182828015614ddc57602002820191906000526020600020905b815481526020019060010190808311614dc8575b5050509190925250505081526040805160608101825260128401546001600160a01b03168152601384015460208281019190915260148501548284015280840191909152601584018054835181840281018401855281815293909401939091830182828015614e7457602002820191906000526020600020905b81546001600160a01b03168152600190910190602001808311614e56575b50505091835250506016820154602082015260179091015460ff16151560409182015260a08201518051910151919250906001600160a01b0382161580614eba57504281105b15614ed05750859450600093509150614f129050565b60006127108460a001516020015189614ee991906195f9565b614ef3919061964e565b90506000614f01828a6194c4565b9750909550919350614f1292505050565b9250925092565b60006101308281548110614f2f57614f2f619461565b6000918252602090912060408051610220810190915260189092020180546001600160a01b038082166101208501908152600160a01b830460ff16610140860152600160a81b90920461ffff1661016085015260018301541661018084015260028201805484929184916101a085019190614fa9906193fe565b80601f0160208091040260200160405190810160405280929190818152602001828054614fd5906193fe565b80156150225780601f10614ff757610100808354040283529160200191615022565b820191906000526020600020905b81548152906001019060200180831161500557829003601f168201915b505050918352505060038201546020808301919091526004830154604080840191909152600590930154606092830152928452815180830183526006860154815260078601548185015284840152815180830183526008860154815260098601548185015284830152815160808082018452600a8701548252600b87015482860152600c87015482850152600d87015460ff161515828401528583019190915282518082018452600e870180548252600f8801548287015260108801548286015260118801805486518189028101890190975280875293909701969195909493860193929083018282801561513657602002820191906000526020600020905b815481526020019060010190808311615122575b5050509190925250505081526040805160608101825260128401546001600160a01b031681526013840154602082810191909152601485015482840152808401919091526015840180548351818402810184018552818152939094019390918301828280156151ce57602002820191906000526020600020905b81546001600160a01b031681526001909101906020018083116151b0575b50505091835250506016820154602082015260179091015460ff1615156040909101526080810151606001518051919250908015806152105750826101000151155b1561521b5750505050565b60005b818110156152585761524883828151811061523b5761523b619461565b60200260200101516179b0565b615251816194ed565b905061521e565b50600084815261013560209081526040808320805482518185028101850190935280835291929091908301828280156152b057602002820191906000526020600020905b81548152602001906001019080831161529c575b5050835193945060009250829150505b828110156153335760008482815181106152dc576152dc619461565b602090810291909101810151600081815261013490925260409091208054919250906153098b8287613209565b6002830155600182015461531d908661944e565b94505050508061532c906194ed565b90506152c0565b5080610130888154811061534957615349619461565b600091825260209091206010601890920201015550505050505050565b606060fe805461113f906193fe565b610135602052816000526040600020818154811061539257600080fd5b90600052602060002001600091509150505481565b60008061013084815481106153be576153be619461565b6000918252602090912060189091020160018101549091506001600160a01b031633146153fd5760405162461bcd60e51b815260040161125e90619610565b600a810154421180156154135750600b81015442105b80156154245750600d81015460ff16155b80156154345750600c8101548311155b80156154435750600a81015415155b61545f5760405162461bcd60e51b815260040161125e90619855565b600d8101805460ff1916600117905560068101548311156154855761548384617411565b505b6000615490856117ac565b600483015461549f919061944e565b9050838260060160000160008282546154b891906194c4565b9091555050600182015482546154db916001600160a01b03918216911686617568565b5060006154e7866117ac565b60048401546154f6919061944e565b60408051848152602081018390529192508791600080516020619a7d833981519152910160405180910390a250600195945050505050565b60006155386176af565b3361554284613c28565b6001600160a01b03161461558e5760405162461bcd60e51b815260206004820152601360248201527239b2b73232b91034b9903737ba1037bbb732b960691b604482015260640161125e565b600083815261013360205260408120546101308054919291839081106155b6576155b6619461565b906000526020600020906018020190506000610134600087815260200190815260200160002090504281600501541080156155f45750428160060154115b6156105760405162461bcd60e51b815260040161125e90619855565b61561a86866172d8565b805460008083556005830181905560068301819055615638856117ac565b6004850154615647919061944e565b905086156156585761565888617b76565b811561568a57600484015461566d9083616aee565b60048501558354615688906001600160a01b03163384617568565b505b604051828152859033907f7fc4727e062e336010f2c282598ef5f14facb3de68cf8195c2f23e1454b2b74e9060200160405180910390a360006156cc866117ac565b60048601546156db919061944e565b60408051848152602081018390529192508791600080516020619a7d833981519152910160405180910390a2505050601190910180546001818101835560009283526020909220018690559250505061112a600160ca55565b61013f818154811061574557600080fd5b6000918252602090912001546001600160a01b0316905081565b336000818152610139602090815260408083206001600160a01b038616808552925282208054908390559192615796919083617568565b5060405181815233907fbf7aaef98dccc47249def450ef0fd30757d553648a28fa7cd56e3b2b052724949060200160405180910390a250600192915050565b613205338383617be6565b60008061013083815481106157f7576157f7619461565b6000918252602090912060408051610220810190915260189092020180546001600160a01b038082166101208501908152600160a01b830460ff16610140860152600160a81b90920461ffff1661016085015260018301541661018084015260028201805484929184916101a085019190615871906193fe565b80601f016020809104026020016040519081016040528092919081815260200182805461589d906193fe565b80156158ea5780601f106158bf576101008083540402835291602001916158ea565b820191906000526020600020905b8154815290600101906020018083116158cd57829003601f168201915b505050918352505060038201546020808301919091526004830154604080840191909152600590930154606092830152928452815180830183526006860154815260078601548185015284840152815180830183526008860154815260098601548185015284830152815160808082018452600a8701548252600b87015482860152600c87015482850152600d87015460ff161515828401528583019190915282518082018452600e870180548252600f880154828701526010880154828601526011880180548651818902810189019097528087529390970196919590949386019392908301828280156159fe57602002820191906000526020600020905b8154815260200190600101908083116159ea575b5050509190925250505081526040805160608101825260128401546001600160a01b03168152601384015460208281019190915260148501548284015280840191909152601584018054835181840281018401855281815293909401939091830182828015615a9657602002820191906000526020600020905b81546001600160a01b03168152600190910190602001808311615a78575b50505091835250506016820154602082015260179091015460ff1615156040918201529051015161ffff169392505050565b6000806000806101308581548110615ae257615ae2619461565b6000918252602090912060408051610220810190915260189092020180546001600160a01b038082166101208501908152600160a01b830460ff16610140860152600160a81b90920461ffff1661016085015260018301541661018084015260028201805484929184916101a085019190615b5c906193fe565b80601f0160208091040260200160405190810160405280929190818152602001828054615b88906193fe565b8015615bd55780601f10615baa57610100808354040283529160200191615bd5565b820191906000526020600020905b815481529060010190602001808311615bb857829003601f168201915b505050918352505060038201546020808301919091526004830154604080840191909152600590930154606092830152928452815180830183526006860154815260078601548185015284840152815180830183526008860154815260098601548185015284830152815160808082018452600a8701548252600b87015482860152600c87015482850152600d87015460ff161515828401528583019190915282518082018452600e870180548252600f88015482870152601088015482860152601188018054865181890281018901909752808752939097019691959094938601939290830182828015615ce957602002820191906000526020600020905b815481526020019060010190808311615cd5575b5050509190925250505081526040805160608101825260128401546001600160a01b03168152601384015460208281019190915260148501548284015280840191909152601584018054835181840281018401855281815293909401939091830182828015615d8157602002820191906000526020600020905b81546001600160a01b03168152600190910190602001808311615d63575b5050509183525050601682015460208083019190915260179092015460ff1615156040918201526060909201518051918101519201519097919650945092505050565b60006101308481548110615dda57615dda619461565b6000918252602090912060189091020160018101549091506001600160a01b03163314615e195760405162461bcd60e51b815260040161125e90619610565b6000615e24856117ac565b6004830154615e33919061944e565b8254909150615e4d906001600160a01b0316333087616afa565b5083826006016000016000828254615e65919061944e565b9091555060009050615e76866117ac565b6004840154615e85919061944e565b9050615e92868587616fd2565b5060408051838152602081018390528791600080516020619a7d833981519152910160405180910390a2505050505050565b6000806000806101308581548110615ede57615ede619461565b6000918252602090912060408051610220810190915260189092020180546001600160a01b038082166101208501908152600160a01b830460ff16610140860152600160a81b90920461ffff1661016085015260018301541661018084015260028201805484929184916101a085019190615f58906193fe565b80601f0160208091040260200160405190810160405280929190818152602001828054615f84906193fe565b8015615fd15780601f10615fa657610100808354040283529160200191615fd1565b820191906000526020600020905b815481529060010190602001808311615fb457829003601f168201915b505050918352505060038201546020808301919091526004830154604080840191909152600590930154606092830152928452815180830183526006860154815260078601548185015284840152815180830183526008860154815260098601548185015284830152815160808082018452600a8701548252600b87015482860152600c87015482850152600d87015460ff161515828401528583019190915282518082018452600e870180548252600f880154828701526010880154828601526011880180548651818902810189019097528087529390970196919590949386019392908301828280156160e557602002820191906000526020600020905b8154815260200190600101908083116160d1575b5050509190925250505081526040805160608101825260128401546001600160a01b0316815260138401546020828101919091526014850154828401528084019190915260158401805483518184028101840185528181529390940193909183018282801561617d57602002820191906000526020600020905b81546001600160a01b0316815260019091019060200180831161615f575b50505091835250506016820154602082015260179091015460ff161515604091820152815160a08101519101519192506161ba9161ffff1661487b565b60409091015180516020909101519196909550909350915050565b6034546001600160a01b0316331461623e5760405162461bcd60e51b815260206004820152602660248201527f6f6e6c792070656e64696e67206f776e65722063616e2061636365707420747260448201526530b739b332b960d11b606482015260840161125e565b603454616253906001600160a01b0316617cb5565b565b61625f3383616bb9565b61627b5760405162461bcd60e51b815260040161125e90619477565b61628784848484617d12565b50505050565b60008061013083815481106162a4576162a4619461565b6000918252602090912060189091020160018101549091506001600160a01b03163314806162dc57506033546001600160a01b031633145b6162f85760405162461bcd60e51b815260040161125e90619610565b601781015460ff1661633e5760405162461bcd60e51b815260206004820152600f60248201526e506f6f6c206e6f742061637469766560881b604482015260640161125e565b60178101805460ff1916905542601690910155506001919050565b600054610100900460ff16158080156163795750600054600160ff909116105b806163935750303b158015616393575060005460ff166001145b6163f65760405162461bcd60e51b815260206004820152602e60248201527f496e697469616c697a61626c653a20636f6e747261637420697320616c72656160448201526d191e481a5b9a5d1a585b1a5e995960921b606482015260840161125e565b6000805460ff191660011790558015616419576000805461ff0019166101001790555b616421617d45565b61013a80546001600160a01b0319166001600160a01b0384161790558015613205576000805461ff0019169055604051600181527f7f26b83ff96e1f2b6a682f133852f6798a09c465da95921460cefb38474024989060200160405180910390a15050565b606061649182616a20565b60006164a860408051602081019091526000815290565b905060008151116164c85760405180602001604052806000815250611310565b806164d284617d74565b6040516020016164e392919061989e565b6040516020818303038152906040529392505050565b6000616503616d9e565b600061650e84614003565b5050506001600160a01b0385166000818152610136602090815260408083208390556101378252808320839055610138909152812055909150616552908483617568565b506001949350505050565b600080610130838154811061657457616574619461565b6000918252602090912060408051610220810190915260189092020180546001600160a01b038082166101208501908152600160a01b830460ff16610140860152600160a81b90920461ffff1661016085015260018301541661018084015260028201805484929184916101a0850191906165ee906193fe565b80601f016020809104026020016040519081016040528092919081815260200182805461661a906193fe565b80156166675780601f1061663c57610100808354040283529160200191616667565b820191906000526020600020905b81548152906001019060200180831161664a57829003601f168201915b505050918352505060038201546020808301919091526004830154604080840191909152600590930154606092830152928452815180830183526006860154815260078601548185015284840152815180830183526008860154815260098601548185015284830152815160808082018452600a8701548252600b87015482860152600c87015482850152600d87015460ff161515828401528583019190915282518082018452600e870180548252600f8801548287015260108801548286015260118801805486518189028101890190975280875293909701969195909493860193929083018282801561677b57602002820191906000526020600020905b815481526020019060010190808311616767575b5050509190925250505081526040805160608101825260128401546001600160a01b0316815260138401546020828101919091526014850154828401528084019190915260158401805483518184028101840185528181529390940193909183018282801561681357602002820191906000526020600020905b81546001600160a01b031681526001909101906020018083116167f5575b50505091835250506016820154602082015260179091015460ff1615156040909101525160c001519392505050565b600081815261013c602090815260408083205461013b8352818420818552909252909120546001600160a01b031680156112ff57806001600160a01b031663f69e20466040518163ffffffff1660e01b81526004016020604051808303816000875af11580156168b6573d6000803e3d6000fd5b505050506040513d601f19601f8201168201806040525081019061628791906198cd565b60006168e4616d9e565b61013f5460005b81811015611d1857600061013f828154811061690957616909619461565b6000918252602090912001546001600160a01b0316905061692a81866164f9565b505080616936906194ed565b90506168eb565b616945616d9e565b6001600160a01b0381166169aa5760405162461bcd60e51b815260206004820152602660248201527f4f776e61626c653a206e6577206f776e657220697320746865207a65726f206160448201526564647265737360d01b606482015260840161125e565b603480546001600160a01b0319166001600160a01b0392909216919091179055565b6169d46176af565b6169df8160016172d8565b612512600160ca55565b6101305460005b8181101561320557616a0181616842565b616a0a816194ed565b90506169f0565b6001600160a01b03163b151590565b600081815260ff60205260409020546001600160a01b03166125125760405162461bcd60e51b8152602060048201526018602482015277115490cdcc8c4e881a5b9d985b1a59081d1bdad95b88125160421b604482015260640161125e565b60008181526101016020526040902080546001600160a01b0319166001600160a01b0384169081179091558190616ab582613c28565b6001600160a01b03167f8c5be1e5ebec7d5bd14f71427d1e84f3dd0314c0f7b2291e5b200ac8c7c3b92560405160405180910390a45050565b600061131082846194c4565b6040516001600160a01b03808516602483015283166044820152606481018290526000906165529086906323b872dd60e01b906084015b60408051601f198184030181529190526020810180516001600160e01b03166001600160e01b031990931692909217909152617e05565b6001600160a01b038316156112ff576001600160a01b0380841660009081526101396020908152604080832093861683529290529081208054839290616baf90849061944e565b9091555050505050565b600080616bc583613c28565b9050806001600160a01b0316846001600160a01b03161480616c0d57506001600160a01b038082166000908152610102602090815260408083209388168352929052205460ff165b806148735750836001600160a01b0316616c26846111c2565b6001600160a01b031614949350505050565b826001600160a01b0316616c4b82613c28565b6001600160a01b031614616c715760405162461bcd60e51b815260040161125e906198e6565b6001600160a01b038216616cd35760405162461bcd60e51b8152602060048201526024808201527f4552433732313a207472616e7366657220746f20746865207a65726f206164646044820152637265737360e01b606482015260840161125e565b826001600160a01b0316616ce682613c28565b6001600160a01b031614616d0c5760405162461bcd60e51b815260040161125e906198e6565b60008181526101016020908152604080832080546001600160a01b03199081169091556001600160a01b03878116808652610100855283862080546000190190559087168086528386208054600101905586865260ff90945282852080549092168417909155905184937fddf252ad1be2c89b69c2b068fc378daa952ba7f163c4a11628f55a4df523b3ef91a4505050565b6033546001600160a01b031633146162535760405162461bcd60e51b815260206004820181905260248201527f4f776e61626c653a2063616c6c6572206973206e6f7420746865206f776e6572604482015260640161125e565b60006101308381548110616e0e57616e0e619461565b600091825260208220601891909102016008810154600382015482549294508592616e449190600160a81b900461ffff1661487b565b616e4e91906194c4565b616e58919061944e565b60018301548354919250616e7a916001600160a01b0390811691163084616afa565b506000612710616e8c6103e8846195f9565b616e96919061964e565b905081836008016000016000828254616eaf919061944e565b90915550600090508080616ec38885614bbb565b885492955090935091506001600160a01b0316616ee1828285616b68565b6001600160a01b0381166000908152610137602052604081208054869290616f0a90849061944e565b9091555060009050616f1c86886194c4565b905080886008016001016000828254616f35919061944e565b90915550506040518781528a907fadb049ad2d09be3db90459a16aef1ad0a4d89e8fdcc1ade9429d6cc55abbcd2b9060200160405180910390a250505050505050505050565b6000670eb5e06245ea0000616f98670de0b6b3a7640000846195f9565b616fa2919061964e565b9050806101308481548110616fb957616fb9619461565b6000918252602090912060056018909202010155505050565b6000806101308581548110616fe957616fe9619461565b9060005260206000209060180201905060008460405160200161700c9190618df2565b60408051601f198184030181529181528151602092830120600089815261013c90935291205490915080821461715b57600061704788617411565b905060006170558989617ed7565b90506001600160a01b0381161561713b5780617071838961944e565b6006870180546000906170859084906194c4565b909155506170959050838961944e565b6007870180546000906170a990849061944e565b909155506170cf9050826170bd858b61944e565b88546001600160a01b03169190617568565b50806001600160a01b0316630b5090076040518163ffffffff1660e01b81526004016020604051808303816000875af1158015617110573d6000803e3d6000fd5b505050506040513d601f19601f8201168201806040525081019061713491906198cd565b5050617158565b86856006016000016000828254617152919061944e565b90915550505b50505b5050509392505050565b612512616d9e565b7f4910fdfa16fed3260ed0e7147f7cc6da11a60208b5b9406d12a635614ffd91435460ff16156171a0576112ff8361805d565b826001600160a01b03166352d1902d6040518163ffffffff1660e01b8152600401602060405180830381865afa9250505080156171fa575060408051601f3d908101601f191682019092526171f7918101906198cd565b60015b61725d5760405162461bcd60e51b815260206004820152602e60248201527f45524331393637557067726164653a206e657720696d706c656d656e7461746960448201526d6f6e206973206e6f74205555505360901b606482015260840161125e565b600080516020619a9d83398151915281146172cc5760405162461bcd60e51b815260206004820152602960248201527f45524331393637557067726164653a20756e737570706f727465642070726f786044820152681a58589b195555525160ba1b606482015260840161125e565b506112ff8383836180f9565b6000828152610133602052604081205461013080549192918390811061730057617300619461565b6000918252602080832087845261013490915260408320601890920201925090808061732b88612cea565b92509250925086617379578460160154600003617348574261734e565b84601601545b84600401819055508084600301600082825461736a919061944e565b90915550505050505050505050565b600885015483111561738f5761738f8684616df8565b8215611fbc57600060038501819055601686015490036173af57426173b5565b84601601545b60048501556008850180548491906000906173d19084906194c4565b90915550506009850180548391906000906173ed9084906194c4565b90915550611fba90506173ff89613c28565b86546001600160a01b03169084617568565b600080610130838154811061742857617428619461565b6000918252602080832086845261013c90915260408320546018909202019250801561756057600085815261013b602090815260408083208484528252808320548151637f1f087360e01b815291516001600160a01b0390911693928492637f1f08739260048083019392829003018187875af11580156174ad573d6000803e3d6000fd5b505050506040513d601f19601f820116820180604052508101906174d191906198cd565b6040516348b1933560e01b8152600481018290529091506001600160a01b038316906348b19335906024016020604051808303816000875af115801561751b573d6000803e3d6000fd5b505050506040513d601f19601f8201168201806040525081019061753f91906198cd565b935083856006016000016000828254617558919061944e565b909155505050505b509392505050565b6040516001600160a01b038316602482015260448101829052600090611d1890859063a9059cbb60e01b90606401616b31565b60008061013084815481106175b2576175b2619461565b60009182526020909120600360189092020101546175d8670de0b6b3a7640000856195f9565b6175e2919061964e565b90506175ef8160056195f9565b91509250929050565b600061760e670de0b6b3a764000060001961964e565b821115617631576040516322630c4560e01b81526004810183905260240161125e565b670de0b6b3a7640000820261112a565b600061112a6714057b7ef767814f670de0b6b3a76400006176676176648661811e565b90565b028161767557617675619638565b0490565b600061131061766483856194c4565b60006113106176648484618256565b600061131061766484670de0b6b3a76400008561830a565b600260ca54036177015760405162461bcd60e51b815260206004820152601f60248201527f5265656e7472616e637947756172643a207265656e7472616e742063616c6c00604482015260640161125e565b600260ca55565b60006001600160a01b0383166177605760405162461bcd60e51b815260206004820152601f60248201527f45524332303a206d696e7420746f20746865207a65726f206164647265737300604482015260640161125e565b600061776c85846137da565b90506000617779856183de565b90506177bb6040518060e00160405280600081526020016000815260200160008152602001600081526020016000815260200160008152602001600081525090565b84815260006177ca888761759b565b509050674563918244f40000816101308a815481106177eb576177eb619461565b9060005260206000209060180201600e016002015461780a919061944e565b111561784e5760405162461bcd60e51b81526020600482015260136024820152721608189bdd5b99185c9e481d9a5bdb185d1959606a1b604482015260640161125e565b6020808301828152604080850187815242608087019081526000888152610134865283812088518155945160018087019190915592516002860155606088015160038601559051600485015560a0870151600585015560c08701516006909401939093558b83526101358452818320805491820181558352838320018690558582526101339092522088905561013080548291908a9081106178f2576178f2619461565b9060005260206000209060180201600e016002016000828254617915919061944e565b9250508190555061794e886101308a8154811061793457617934619461565b9060005260206000209060180201600e0160020154618585565b5091979650505050505050565b600080670de0b6b3a764000061797984670928ca80cfc200006195f9565b617983919061964e565b6179959067016345785d8a000061944e565b9050611310816ec097ce7bc90715b34b9f100000000061964e565b6000818152610133602090815260408083205480845261013583528184208054835181860281018601909452808452919493909190830182828015617a1457602002820191906000526020600020905b815481526020019060010190808311617a00575b5050835193945060009250829150505b82811015617a645785848281518110617a3f57617a3f619461565b602002602001015103617a5457809150617a64565b617a5d816194ed565b9050617a24565b50818110617ab45760405162461bcd60e51b815260206004820152601860248201527f546f6b656e206e6f7420666f756e6420696e2061727261790000000000000000604482015260640161125e565b805b617ac16001846194c4565b811015617b195783617ad482600161944e565b81518110617ae457617ae4619461565b6020026020010151848281518110617afe57617afe619461565b6020908102919091010152617b12816194ed565b9050617ab6565b506000848152610135602090815260409091208451617b3a92860190618c52565b50600084815261013560205260409020805480617b5957617b596194d7565b600190038181906000526020600020016000905590555050505050565b60008181526101336020908152604080832054610134835292819020815160e081018352815481526001820154938101939093526002810154918301919091526003810154606083015260048101546080830152600581015460a08301526006015460c08201526112ff836185b9565b816001600160a01b0316836001600160a01b031603617c475760405162461bcd60e51b815260206004820152601960248201527f4552433732313a20617070726f766520746f2063616c6c657200000000000000604482015260640161125e565b6001600160a01b0383811660008181526101026020908152604080832094871680845294825291829020805460ff191686151590811790915591519182527f17307eab39ab6107e8899845ad3d59bd9653f200f220920489ca2b5937696c31910160405180910390a3505050565b603380546001600160a01b038381166001600160a01b03198084168217909455603480549094169093556040519116919082907f8be0079c531659141344cd1fd0a4f28419497f9722a3daafe3b4186f6b6457e090600090a35050565b617d1d848484616c38565b617d2984848484618650565b6162875760405162461bcd60e51b815260040161125e9061992b565b600054610100900460ff16617d6c5760405162461bcd60e51b815260040161125e9061997d565b61625361874e565b60606000617d818361877e565b600101905060008167ffffffffffffffff811115617da157617da1619091565b6040519080825280601f01601f191660200182016040528015617dcb576020820181803683370190505b5090508181016020015b600019016f181899199a1a9b1b9c1cb0b131b232b360811b600a86061a8153600a85049450841561756057617dd5565b6000617e5a826040518060400160405280602081526020017f5361666545524332303a206c6f772d6c6576656c2063616c6c206661696c6564815250856001600160a01b03166188569092919063ffffffff16565b8051909150156112ff5780806020019051810190617e7891906199c8565b6112ff5760405162461bcd60e51b815260206004820152602a60248201527f5361666545524332303a204552433230206f7065726174696f6e20646964206e6044820152691bdd081cdd58d8d9595960b21b606482015260840161125e565b600080600083604051602001617eed9190618df2565b60408051601f198184030181529181528151602092830120600088815261013b84528281208282529093529120549091506001600160a01b031680617fdf5761013a5461013080546001600160a01b039092169163dff968019188918a908110617f5957617f59619461565b60009182526020909120601890910201546040516001600160e01b031960e085901b168152617f9592916001600160a01b0316906004016199e5565b6020604051808303816000875af1158015617fb4573d6000803e3d6000fd5b505050506040513d601f19601f82011682018060405250810190617fd89190619a0f565b9250617fe9565b925061112a915050565b6001600160a01b038316618003576000935050505061112a565b50600085815261013b60209081526040808320848452825280832080546001600160a01b0319166001600160a01b03871690811790915588845261013c83528184209490945592825261013d905220939093555090919050565b6001600160a01b0381163b6180ca5760405162461bcd60e51b815260206004820152602d60248201527f455243313936373a206e657720696d706c656d656e746174696f6e206973206e60448201526c1bdd08184818dbdb9d1c9858dd609a1b606482015260840161125e565b600080516020619a9d83398151915280546001600160a01b0319166001600160a01b0392909216919091179055565b61810283618865565b60008251118061810f5750805b156112ff5761628783836188a5565b600081670de0b6b3a764000081101561814d57604051633621413760e21b81526004810184905260240161125e565b60006181d9670de0b6b3a7640000830460016fffffffffffffffffffffffffffffffff821160071b91821c67ffffffffffffffff811160061b90811c63ffffffff811160051b90811c61ffff811160041b90811c60ff8111600390811b91821c600f811160021b90811c918211871b91821c969096119490961792909217171791909117919091171790565b9050670de0b6b3a7640000810282821c670de0b6b3a763ffff19810161820557815b9695505050505050565b671bc16d674ec800006706f05b59d3b200005b801561824857670de0b6b3a7640000838002049250818310618240579283019260019290921c915b60011c618218565b50825b979650505050505050565b60008080600019848609848602925082811083820303915050670de0b6b3a764000081106182a15760405163090638d560e41b8152600481018690526024810185905260440161125e565b6000670de0b6b3a76400008587099050816000036182cd575050670de0b6b3a76400009004905061112a565b620400008184030492109003600160ee1b02177faccb18165bd6fe31ae1cf318dc5b51eee0e1ba569b88cd74c1773b91fac1066902905092915050565b60008080600019858709858702925082811083820303915050806000036183445783828161833a5761833a619638565b0492505050611310565b838110618375576040516307639aaf60e41b815260048101879052602481018690526044810185905260640161125e565b60008486880960026001871981018816978890046003810283188082028403028082028403028082028403028082028403028082028403029081029092039091026000889003889004909101858311909403939093029303949094049190911702949350505050565b600080610103600081546183f1906194ed565b918290555090506001600160a01b03831661844e5760405162461bcd60e51b815260206004820181905260248201527f4552433732313a206d696e7420746f20746865207a65726f2061646472657373604482015260640161125e565b600081815260ff60205260409020546001600160a01b0316156184b35760405162461bcd60e51b815260206004820152601c60248201527f4552433732313a20746f6b656e20616c7265616479206d696e74656400000000604482015260640161125e565b600081815260ff60205260409020546001600160a01b0316156185185760405162461bcd60e51b815260206004820152601c60248201527f4552433732313a20746f6b656e20616c7265616479206d696e74656400000000604482015260640161125e565b6001600160a01b0383166000818152610100602090815260408083208054600101905584835260ff90915280822080546001600160a01b0319168417905551839291907fddf252ad1be2c89b69c2b068fc378daa952ba7f163c4a11628f55a4df523b3ef908290a461112a565b600081610130848154811061859c5761859c619461565b60009182526020909120600e601890920201015550600192915050565b60006185c482613c28565b90506185cf82613c28565b60008381526101016020908152604080832080546001600160a01b03199081169091556001600160a01b0385168085526101008452828520805460001901905587855260ff909352818420805490911690555192935084927fddf252ad1be2c89b69c2b068fc378daa952ba7f163c4a11628f55a4df523b3ef908390a45050565b60006001600160a01b0384163b1561874657604051630a85bd0160e11b81526001600160a01b0385169063150b7a0290618694903390899088908890600401619a2c565b6020604051808303816000875af19250505080156186cf575060408051601f3d908101601f191682019092526186cc91810190619a5f565b60015b61872c573d8080156186fd576040519150601f19603f3d011682016040523d82523d6000602084013e618702565b606091505b5080516000036187245760405162461bcd60e51b815260040161125e9061992b565b805181602001fd5b6001600160e01b031916630a85bd0160e11b149050614873565b506001614873565b600054610100900460ff166187755760405162461bcd60e51b815260040161125e9061997d565b61625333617cb5565b60008072184f03e93ff9f4daa797ed6e38ed64bf6a1f0160401b83106187bd5772184f03e93ff9f4daa797ed6e38ed64bf6a1f0160401b830492506040015b6d04ee2d6d415b85acef810000000083106187e9576d04ee2d6d415b85acef8100000000830492506020015b662386f26fc10000831061880757662386f26fc10000830492506010015b6305f5e100831061881f576305f5e100830492506008015b612710831061883357612710830492506004015b60648310618845576064830492506002015b600a831061112a5760010192915050565b60606148738484600085618999565b61886e8161805d565b6040516001600160a01b038216907fbc7cd75a20ee27fd9adebab32041f755214dbc6bffa90cc0225b39da2e5c2d3b90600090a250565b60606001600160a01b0383163b61890d5760405162461bcd60e51b815260206004820152602660248201527f416464726573733a2064656c65676174652063616c6c20746f206e6f6e2d636f6044820152651b9d1c9858dd60d21b606482015260840161125e565b600080846001600160a01b0316846040516189289190619670565b600060405180830381855af49150503d8060008114618963576040519150601f19603f3d011682016040523d82523d6000602084013e618968565b606091505b50915091506189908282604051806060016040528060278152602001619abd60279139618a69565b95945050505050565b6060824710156189fa5760405162461bcd60e51b815260206004820152602660248201527f416464726573733a20696e73756666696369656e742062616c616e636520666f6044820152651c8818d85b1b60d21b606482015260840161125e565b600080866001600160a01b03168587604051618a169190619670565b60006040518083038185875af1925050503d8060008114618a53576040519150601f19603f3d011682016040523d82523d6000602084013e618a58565b606091505b509150915061824b87838387618a82565b60608315618a78575081611310565b6113108383618af7565b60608315618af1578251600003618aea576001600160a01b0385163b618aea5760405162461bcd60e51b815260206004820152601d60248201527f416464726573733a2063616c6c20746f206e6f6e2d636f6e7472616374000000604482015260640161125e565b5081614873565b61487383835b815115618b075781518083602001fd5b8060405162461bcd60e51b815260040161125e9190618df2565b6040805161022081019091526000610120820181815261014083018290526101608301829052610180830182905260606101a08401526101c083018290526101e0830182905261020083019190915281908152602001618b94604051806040016040528060008152602001600081525090565b8152602001618bb6604051806040016040528060008152602001600081525090565b8152602001618be860405180608001604052806000815260200160008152602001600081526020016000151581525090565b8152602001618c186040518060800160405280600081526020016000815260200160008152602001606081525090565b8152604080516060810182526000808252602082810182905292820152910190815260606020820181905260006040830181905291015290565b828054828255906000526020600020908101928215618c8d579160200282015b82811115618c8d578251825591602001919060010190618c72565b50618c99929150618d0c565b5090565b828054828255906000526020600020908101928215618c8d579160200282015b82811115618c8d57825182546001600160a01b0319166001600160a01b03909116178255602090920191600190910190618cbd565b508054600082559060005260206000209081019061251291905b5b80821115618c995760008155600101618d0d565b6001600160a01b038116811461251257600080fd5b60008060408385031215618d4957600080fd5b8235618d5481618d21565b91506020830135618d6481618d21565b809150509250929050565b6001600160e01b03198116811461251257600080fd5b600060208284031215618d9757600080fd5b813561131081618d6f565b60005b83811015618dbd578181015183820152602001618da5565b50506000910152565b60008151808452618dde816020860160208601618da2565b601f01601f19169290920160200192915050565b6020815260006113106020830184618dc6565b60008060408385031215618e1857600080fd5b50508035926020909101359150565b600060208284031215618e3957600080fd5b5035919050565b60008060408385031215618e5357600080fd5b8235618e5e81618d21565b946020939093013593505050565b60006080830182518452602080840151818601526040840151604086015260608401516080606087015282815180855260a0880191508383019450600092505b80831015618ecc5784518252938301936001929092019190830190618eac565b509695505050505050565b6101e080825289516001600160a01b039081169183019190915260208a015160ff1661020083015260408a015161ffff1661022083015260608a0151166102408201526080890151610100610260830152600090618f396102e0840182618dc6565b905060a08b015161028084015260c08b01516102a084015260e08b01516102c0840152618f73602084018b80518252602090810151910152565b8851606084015260208901516080840152875160a0840152602088015160c0840152604088015160e084015260608801511515610100840152828103610120840152618fbf8188618e6c565b86516001600160a01b0316610140850152602087015161016085015260408701516101808501529150618fef9050565b836101a08301526190056101c083018415159052565b9998505050505050505050565b60008060006060848603121561902757600080fd5b833561903281618d21565b9250602084013561904281618d21565b929592945050506040919091013590565b801515811461251257600080fd5b60008060006060848603121561907657600080fd5b833561908181618d21565b9250602084013561904281619053565b634e487b7160e01b600052604160045260246000fd5b600082601f8301126190b857600080fd5b813567ffffffffffffffff808211156190d3576190d3619091565b604051601f8301601f19908116603f011681019082821181831017156190fb576190fb619091565b8160405283815286602085880101111561911457600080fd5b836020870160208301376000602085830101528094505050505092915050565b600080600080600060a0868803121561914c57600080fd5b8535945060208601359350604086013561ffff8116811461916c57600080fd5b925060608601359150608086013567ffffffffffffffff81111561918f57600080fd5b61919b888289016190a7565b9150509295509295909350565b60008060008060008060c087890312156191c157600080fd5b86356191cc81618d21565b955060208701356191dc81618d21565b9450604087013567ffffffffffffffff8111156191f857600080fd5b61920489828a016190a7565b945050606087013561921581618d21565b9598949750929560808101359460a0909101359350915050565b60006020828403121561924157600080fd5b813561131081618d21565b60008060006060848603121561926157600080fd5b83359250602084013561904281618d21565b6000806040838503121561928657600080fd5b823561929181618d21565b9150602083013567ffffffffffffffff8111156192ad57600080fd5b6192b9858286016190a7565b9150509250929050565b6000806000606084860312156192d857600080fd5b505081359360208301359350604090920135919050565b6000806040838503121561930257600080fd5b823591506020830135618d6481619053565b6000806040838503121561932757600080fd5b823561933281618d21565b91506020830135618d6481619053565b60008060006060848603121561935757600080fd5b8335925060208401359150604084013567ffffffffffffffff81111561937c57600080fd5b619388868287016190a7565b9150509250925092565b600080600080608085870312156193a857600080fd5b84356193b381618d21565b935060208501356193c381618d21565b925060408501359150606085013567ffffffffffffffff8111156193e657600080fd5b6193f2878288016190a7565b91505092959194509250565b600181811c9082168061941257607f821691505b60208210810361943257634e487b7160e01b600052602260045260246000fd5b50919050565b634e487b7160e01b600052601160045260246000fd5b8082018082111561112a5761112a619438565b634e487b7160e01b600052603260045260246000fd5b6020808252602d908201527f4552433732313a2063616c6c6572206973206e6f7420746f6b656e206f776e6560408201526c1c881bdc88185c1c1c9bdd9959609a1b606082015260800190565b8181038181111561112a5761112a619438565b634e487b7160e01b600052603160045260246000fd5b6000600182016194ff576194ff619438565b5060010190565b600181815b8085111561954157816000190482111561952757619527619438565b8085161561953457918102915b93841c939080029061950b565b509250929050565b6000826195585750600161112a565b816195655750600061112a565b816001811461957b5760028114619585576195a1565b600191505061112a565b60ff84111561959657619596619438565b50506001821b61112a565b5060208310610133831016604e8410600b84101617156195c4575081810a61112a565b6195ce8383619506565b80600019048211156195e2576195e2619438565b029392505050565b600061131060ff841683619549565b808202811582820484141761112a5761112a619438565b6020808252600e908201526d139bdd08185d5d1a1bdc9a5e995960921b604082015260600190565b634e487b7160e01b600052601260045260246000fd5b60008261966b57634e487b7160e01b600052601260045260246000fd5b500490565b60008251619682818460208701618da2565b9190910192915050565b60006020828403121561969e57600080fd5b815160ff8116811461131057600080fd5b601f8211156112ff57600081815260208120601f850160051c810160208610156196d65750805b601f850160051c820191505b818110156196f5578281556001016196e2565b505050505050565b815167ffffffffffffffff81111561971757619717619091565b61972b8161972584546193fe565b846196af565b602080601f83116001811461976057600084156197485750858301515b600019600386901b1c1916600185901b1785556196f5565b600085815260208120601f198616915b8281101561978f57888601518255948401946001909101908401619770565b50858210156197ad5787850151600019600388901b60f8161c191681555b5050505050600190811b01905550565b6020808252602c908201527f46756e6374696f6e206d7573742062652063616c6c6564207468726f7567682060408201526b19195b1959d85d1958d85b1b60a21b606082015260800190565b6020808252602c908201527f46756e6374696f6e206d7573742062652063616c6c6564207468726f7567682060408201526b6163746976652070726f787960a01b606082015260800190565b60208082526029908201527f54696d656c6f636b206e6f7420736574206f72206e6f7420636f6d706c6574656040820152686420696e2074696d6560b81b606082015260800190565b600083516198b0818460208801618da2565b8351908301906198c4818360208801618da2565b01949350505050565b6000602082840312156198df57600080fd5b5051919050565b60208082526025908201527f4552433732313a207472616e736665722066726f6d20696e636f72726563742060408201526437bbb732b960d91b606082015260800190565b60208082526032908201527f4552433732313a207472616e7366657220746f206e6f6e20455243373231526560408201527131b2b4bb32b91034b6b83632b6b2b73a32b960711b606082015260800190565b6020808252602b908201527f496e697469616c697a61626c653a20636f6e7472616374206973206e6f74206960408201526a6e697469616c697a696e6760a81b606082015260800190565b6000602082840312156199da57600080fd5b815161131081619053565b6040815260006199f86040830185618dc6565b905060018060a01b03831660208301529392505050565b600060208284031215619a2157600080fd5b815161131081618d21565b6001600160a01b03858116825284166020820152604081018390526080606082018190526000906181fb90830184618dc6565b600060208284031215619a7157600080fd5b815161131081618d6f56fea3ea4fb8dee4d414198cb197af6eae4fe483c1a0b849dc50e53b9bf1a60e2166360894a13ba1a3210667c828492db98dca3e2076cc3735a920a3ca505d382bbc416464726573733a206c6f772d6c6576656c2064656c65676174652063616c6c206661696c6564a2646970667358221220e14dc9ce1d13c62a61ef26d5e0b1df3a2107fc5a013f9b42bcf6c1b877020a6b64736f6c63430008110033496e697469616c697a61626c653a20636f6e7472616374206973206e6f742069",
    "linkReferences": {}
  },
  "methodIdentifiers": {
    "acceptOwnershipTransfer()": "b842e87f",
    "activeStrategies(uint256)": "b20b2429",
    "activeTokens(uint256)": "9f224f35",
    "addNewBountyPool(address,address,string,address,uint256,uint256)": "32fce602",
    "approve(address,uint256)": "095ea7b3",
    "balanceOf(address)": "70a08231",
    "billPremium(uint256)": "2dbe051e",
    "calcReferralSplit(uint256,uint256)": "928dc6a9",
    "calcRequiredPremiumBalancePerPeriod(uint256,uint256)": "836ef1fa",
    "calculateArbitraryEffectiveAPY(uint256,uint256,uint256)": "4f3214cc",
    "calculateEffectiveAPY(uint256,uint256)": "5c46f7b1",
    "claimPremium(uint256)": "f47ec3be",
    "collectAllReferralProfits()": "3e8888d9",
    "collectAllSaloonProfits(address)": "ecd7fbed",
    "collectReferralProfit(address)": "a089a520",
    "collectSaloonProfits(address,address)": "cf9564b9",
    "compoundYieldForAll()": "f68ce499",
    "compoundYieldForPid(uint256)": "e78ea3df",
    "consolidate(uint256)": "949a4a4a",
    "consolidateAll()": "75bfd63d",
    "extendReferralPeriod(uint256,uint256)": "5de406dc",
    "getApproved(uint256)": "081812fc",
    "getCurrentAPY(uint256)": "7fbf3853",
    "getSecondsPassed(uint256,uint256)": "0a015ab1",
    "index()": "2986c0e5",
    "initialize(address)": "c4d66de8",
    "isApprovedForAll(address,address)": "e985e9c5",
    "makeProjectDeposit(uint256,uint256,string)": "ae07f948",
    "minTokenStakeAmount(address)": "39458723",
    "name()": "06fdde03",
    "nftAPY(uint256)": "1df56622",
    "nftBalance(uint256)": "e63d6ee4",
    "nftInfo(uint256)": "1f8bc790",
    "nftToPid(uint256)": "612afc0c",
    "owner()": "8da5cb5b",
    "ownerOf(uint256)": "6352211e",
    "payBounty(uint256,address,uint256)": "3ac6ad7b",
    "pendingPremium(uint256)": "40bd1d00",
    "pidNFTList(uint256,uint256)": "96ea48e8",
    "pidStrategies(uint256,bytes32)": "074ecf03",
    "poolInfo(uint256)": "1526fe27",
    "poolLength()": "081e3eda",
    "projectDepositWithdrawal(uint256,uint256)": "983c1ce0",
    "proxiableUUID()": "52d1902d",
    "receiveStrategyYield(address,uint256)": "1aebcecb",
    "referralBalances(address,address)": "011b408b",
    "safeTransferFrom(address,address,uint256)": "42842e0e",
    "safeTransferFrom(address,address,uint256,bytes)": "b88d4fde",
    "saloonBountyProfit(address)": "e45abd0f",
    "saloonPremiumProfit(address)": "ca006148",
    "saloonStrategyProfit(address)": "598d17bf",
    "scheduleProjectDepositWithdrawal(uint256,uint256)": "5669cbef",
    "scheduleUnstake(uint256)": "106d08df",
    "setAPYandPoolCapAndDeposit(uint256,uint256,uint16,uint256,string)": "30ca0794",
    "setApprovalForAll(address,bool)": "a22cb465",
    "stake(uint256,uint256)": "7b0472f0",
    "strategyAddressToPid(address)": "957deecc",
    "supportsInterface(bytes4)": "01ffc9a7",
    "symbol()": "95d89b41",
    "tokenURI(uint256)": "c87b56dd",
    "tokenWhitelist(address)": "753d7563",
    "transferFrom(address,address,uint256)": "23b872dd",
    "transferOwnership(address)": "f2fde38b",
    "unstake(uint256,bool)": "9ebea88c",
    "updateStrategyFactoryAddress(address)": "3538fda0",
    "updateTokenWhitelist(address,bool,uint256)": "2cb0dfcc",
    "upgradeTo(address)": "3659cfe6",
    "upgradeToAndCall(address,bytes)": "4f1ef286",
    "viewBountyBalance(uint256)": "6ac6d812",
    "viewBountyInfo(uint256)": "40ef2868",
    "viewHackerPayout(uint256)": "861e5f66",
    "viewMinProjectDeposit(uint256)": "1c6b323f",
    "viewPoolAPY(uint256)": "a27f9213",
    "viewPoolCap(uint256)": "39679ff4",
    "viewPoolPremiumInfo(uint256)": "b1a2d16f",
    "viewPoolTimelockInfo(uint256)": "ac30b856",
    "viewReferralBalance(address,address)": "0ed7610c",
    "viewSaloonProfitBalance(address)": "718c7eef",
    "viewTokenInfo(uint256)": "10725852",
    "viewTotalStaked(uint256)": "dbdd6957",
    "viewUserUnclaimed(uint256)": "19693071",
    "windDownBounty(uint256)": "bb7019c1"
  },
  "id": 43
}