{
  "abi": [
    {
      "inputs": [
        {
          "internalType": "UD60x18",
          "name": "x",
          "type": "uint256"
        }
      ],
      "name": "PRBMathUD60x18__LogInputTooSmall",
      "type": "error"
    },
    {
      "inputs": [
        {
          "internalType": "uint256",
          "name": "x",
          "type": "uint256"
        }
      ],
      "name": "PRBMathUD60x18__ToUD60x18Overflow",
      "type": "error"
    },
    {
      "inputs": [
        {
          "internalType": "uint256",
          "name": "x",
          "type": "uint256"
        },
        {
          "internalType": "uint256",
          "name": "y",
          "type": "uint256"
        }
      ],
      "name": "PRBMath__MulDiv18Overflow",
      "type": "error"
    },
    {
      "inputs": [
        {
          "internalType": "uint256",
          "name": "x",
          "type": "uint256"
        },
        {
          "internalType": "uint256",
          "name": "y",
          "type": "uint256"
        },
        {
          "internalType": "uint256",
          "name": "denominator",
          "type": "uint256"
        }
      ],
      "name": "PRBMath__MulDivOverflow",
      "type": "error"
    },
    {
      "anonymous": false,
      "inputs": [
        {
          "indexed": false,
          "internalType": "address",
          "name": "previousAdmin",
          "type": "address"
        },
        {
          "indexed": false,
          "internalType": "address",
          "name": "newAdmin",
          "type": "address"
        }
      ],
      "name": "AdminChanged",
      "type": "event"
    },
    {
      "anonymous": false,
      "inputs": [
        {
          "indexed": true,
          "internalType": "address",
          "name": "owner",
          "type": "address"
        },
        {
          "indexed": true,
          "internalType": "address",
          "name": "spender",
          "type": "address"
        },
        {
          "indexed": false,
          "internalType": "uint256",
          "name": "value",
          "type": "uint256"
        }
      ],
      "name": "Approval",
      "type": "event"
    },
    {
      "anonymous": false,
      "inputs": [
        {
          "indexed": true,
          "internalType": "address",
          "name": "beacon",
          "type": "address"
        }
      ],
      "name": "BeaconUpgraded",
      "type": "event"
    },
    {
      "anonymous": false,
      "inputs": [
        {
          "indexed": true,
          "internalType": "uint256",
          "name": "pid",
          "type": "uint256"
        },
        {
          "indexed": true,
          "internalType": "uint256",
          "name": "oldAmount",
          "type": "uint256"
        },
        {
          "indexed": true,
          "internalType": "uint256",
          "name": "newAmount",
          "type": "uint256"
        }
      ],
      "name": "BountyBalanceChanged",
      "type": "event"
    },
    {
      "anonymous": false,
      "inputs": [
        {
          "indexed": true,
          "internalType": "uint256",
          "name": "time",
          "type": "uint256"
        },
        {
          "indexed": true,
          "internalType": "address",
          "name": "hunter",
          "type": "address"
        },
        {
          "indexed": true,
          "internalType": "address",
          "name": "token",
          "type": "address"
        },
        {
          "indexed": false,
          "internalType": "uint256",
          "name": "amount",
          "type": "uint256"
        }
      ],
      "name": "BountyPaid",
      "type": "event"
    },
    {
      "anonymous": false,
      "inputs": [
        {
          "indexed": false,
          "internalType": "uint8",
          "name": "version",
          "type": "uint8"
        }
      ],
      "name": "Initialized",
      "type": "event"
    },
    {
      "anonymous": false,
      "inputs": [
        {
          "indexed": true,
          "internalType": "uint256",
          "name": "pid",
          "type": "uint256"
        },
        {
          "indexed": true,
          "internalType": "address",
          "name": "token",
          "type": "address"
        },
        {
          "indexed": true,
          "internalType": "uint256",
          "name": "tokenDecimals",
          "type": "uint256"
        }
      ],
      "name": "NewBountyDeployed",
      "type": "event"
    },
    {
      "anonymous": false,
      "inputs": [
        {
          "indexed": true,
          "internalType": "address",
          "name": "previousOwner",
          "type": "address"
        },
        {
          "indexed": true,
          "internalType": "address",
          "name": "newOwner",
          "type": "address"
        }
      ],
      "name": "OwnershipTransferred",
      "type": "event"
    },
    {
      "anonymous": false,
      "inputs": [
        {
          "indexed": true,
          "internalType": "uint256",
          "name": "pid",
          "type": "uint256"
        },
        {
          "indexed": true,
          "internalType": "uint256",
          "name": "amount",
          "type": "uint256"
        }
      ],
      "name": "PremiumBilled",
      "type": "event"
    },
    {
      "anonymous": false,
      "inputs": [
        {
          "indexed": true,
          "internalType": "address",
          "name": "user",
          "type": "address"
        },
        {
          "indexed": true,
          "internalType": "uint256",
          "name": "pid",
          "type": "uint256"
        },
        {
          "indexed": false,
          "internalType": "uint256",
          "name": "amount",
          "type": "uint256"
        }
      ],
      "name": "Staked",
      "type": "event"
    },
    {
      "anonymous": false,
      "inputs": [
        {
          "indexed": true,
          "internalType": "address",
          "name": "from",
          "type": "address"
        },
        {
          "indexed": true,
          "internalType": "address",
          "name": "to",
          "type": "address"
        },
        {
          "indexed": false,
          "internalType": "uint256",
          "name": "value",
          "type": "uint256"
        }
      ],
      "name": "Transfer",
      "type": "event"
    },
    {
      "anonymous": false,
      "inputs": [
        {
          "indexed": true,
          "internalType": "address",
          "name": "user",
          "type": "address"
        },
        {
          "indexed": true,
          "internalType": "uint256",
          "name": "pid",
          "type": "uint256"
        },
        {
          "indexed": false,
          "internalType": "uint256",
          "name": "amount",
          "type": "uint256"
        }
      ],
      "name": "Unstaked",
      "type": "event"
    },
    {
      "anonymous": false,
      "inputs": [
        {
          "indexed": true,
          "internalType": "address",
          "name": "implementation",
          "type": "address"
        }
      ],
      "name": "Upgraded",
      "type": "event"
    },
    {
      "anonymous": false,
      "inputs": [
        {
          "indexed": true,
          "internalType": "uint256",
          "name": "pid",
          "type": "uint256"
        },
        {
          "indexed": true,
          "internalType": "uint256",
          "name": "amount",
          "type": "uint256"
        }
      ],
      "name": "WithdrawalOrUnstakeScheduled",
      "type": "event"
    },
    {
      "anonymous": false,
      "inputs": [
        {
          "indexed": true,
          "internalType": "address",
          "name": "token",
          "type": "address"
        },
        {
          "indexed": true,
          "internalType": "bool",
          "name": "whitelisted",
          "type": "bool"
        }
      ],
      "name": "tokenWhitelistUpdated",
      "type": "event"
    },
    {
      "inputs": [],
      "name": "acceptOwnershipTransfer",
      "outputs": [],
      "stateMutability": "nonpayable",
      "type": "function"
    },
    {
      "inputs": [
        {
          "internalType": "uint256",
          "name": "",
          "type": "uint256"
        }
      ],
      "name": "activeTokens",
      "outputs": [
        {
          "internalType": "address",
          "name": "",
          "type": "address"
        }
      ],
      "stateMutability": "view",
      "type": "function"
    },
    {
      "inputs": [
        {
          "internalType": "address",
          "name": "_token",
          "type": "address"
        },
        {
          "internalType": "address",
          "name": "_projectWallet",
          "type": "address"
        },
        {
          "internalType": "string",
          "name": "_projectName",
          "type": "string"
        }
      ],
      "name": "addNewBountyPool",
      "outputs": [
        {
          "internalType": "uint256",
          "name": "",
          "type": "uint256"
        }
      ],
      "stateMutability": "nonpayable",
      "type": "function"
    },
    {
      "inputs": [
        {
          "internalType": "address",
          "name": "owner",
          "type": "address"
        },
        {
          "internalType": "address",
          "name": "spender",
          "type": "address"
        }
      ],
      "name": "allowance",
      "outputs": [
        {
          "internalType": "uint256",
          "name": "",
          "type": "uint256"
        }
      ],
      "stateMutability": "view",
      "type": "function"
    },
    {
      "inputs": [
        {
          "internalType": "address",
          "name": "spender",
          "type": "address"
        },
        {
          "internalType": "uint256",
          "name": "amount",
          "type": "uint256"
        }
      ],
      "name": "approve",
      "outputs": [
        {
          "internalType": "bool",
          "name": "",
          "type": "bool"
        }
      ],
      "stateMutability": "nonpayable",
      "type": "function"
    },
    {
      "inputs": [
        {
          "internalType": "address",
          "name": "_staker",
          "type": "address"
        },
        {
          "internalType": "uint256",
          "name": "_poolID",
          "type": "uint256"
        }
      ],
      "name": "balanceOf",
      "outputs": [
        {
          "internalType": "uint256",
          "name": "",
          "type": "uint256"
        }
      ],
      "stateMutability": "view",
      "type": "function"
    },
    {
      "inputs": [
        {
          "internalType": "address",
          "name": "account",
          "type": "address"
        }
      ],
      "name": "balanceOf",
      "outputs": [
        {
          "internalType": "uint256",
          "name": "",
          "type": "uint256"
        }
      ],
      "stateMutability": "view",
      "type": "function"
    },
    {
      "inputs": [
        {
          "internalType": "uint256",
          "name": "_pid",
          "type": "uint256"
        }
      ],
      "name": "billPremium",
      "outputs": [
        {
          "internalType": "bool",
          "name": "",
          "type": "bool"
        }
      ],
      "stateMutability": "nonpayable",
      "type": "function"
    },
    {
      "inputs": [
        {
          "internalType": "uint256",
          "name": "_stake",
          "type": "uint256"
        },
        {
          "internalType": "uint256",
          "name": "_poolID",
          "type": "uint256"
        }
      ],
      "name": "calculateEffectiveAPY",
      "outputs": [
        {
          "internalType": "uint256",
          "name": "toBeMinted",
          "type": "uint256"
        }
      ],
      "stateMutability": "view",
      "type": "function"
    },
    {
      "inputs": [
        {
          "internalType": "uint256",
          "name": "_pid",
          "type": "uint256"
        }
      ],
      "name": "claimPremium",
      "outputs": [],
      "stateMutability": "nonpayable",
      "type": "function"
    },
    {
      "inputs": [
        {
          "internalType": "address",
          "name": "_saloonWallet",
          "type": "address"
        }
      ],
      "name": "collectAllSaloonProfits",
      "outputs": [
        {
          "internalType": "bool",
          "name": "",
          "type": "bool"
        }
      ],
      "stateMutability": "nonpayable",
      "type": "function"
    },
    {
      "inputs": [
        {
          "internalType": "address",
          "name": "_token",
          "type": "address"
        },
        {
          "internalType": "address",
          "name": "_saloonWallet",
          "type": "address"
        }
      ],
      "name": "collectSaloonProfits",
      "outputs": [
        {
          "internalType": "bool",
          "name": "",
          "type": "bool"
        }
      ],
      "stateMutability": "nonpayable",
      "type": "function"
    },
    {
      "inputs": [],
      "name": "decimals",
      "outputs": [
        {
          "internalType": "uint8",
          "name": "",
          "type": "uint8"
        }
      ],
      "stateMutability": "view",
      "type": "function"
    },
    {
      "inputs": [
        {
          "internalType": "address",
          "name": "spender",
          "type": "address"
        },
        {
          "internalType": "uint256",
          "name": "subtractedValue",
          "type": "uint256"
        }
      ],
      "name": "decreaseAllowance",
      "outputs": [
        {
          "internalType": "bool",
          "name": "",
          "type": "bool"
        }
      ],
      "stateMutability": "nonpayable",
      "type": "function"
    },
    {
      "inputs": [
        {
          "internalType": "uint256",
          "name": "_poolID",
          "type": "uint256"
        }
      ],
      "name": "getCurrentAPY",
      "outputs": [
        {
          "internalType": "uint256",
          "name": "currentAPY",
          "type": "uint256"
        }
      ],
      "stateMutability": "nonpayable",
      "type": "function"
    },
    {
      "inputs": [
        {
          "internalType": "uint256",
          "name": "_from",
          "type": "uint256"
        },
        {
          "internalType": "uint256",
          "name": "_to",
          "type": "uint256"
        }
      ],
      "name": "getMultiplier",
      "outputs": [
        {
          "internalType": "uint256",
          "name": "",
          "type": "uint256"
        }
      ],
      "stateMutability": "pure",
      "type": "function"
    },
    {
      "inputs": [
        {
          "internalType": "address",
          "name": "spender",
          "type": "address"
        },
        {
          "internalType": "uint256",
          "name": "addedValue",
          "type": "uint256"
        }
      ],
      "name": "increaseAllowance",
      "outputs": [
        {
          "internalType": "bool",
          "name": "",
          "type": "bool"
        }
      ],
      "stateMutability": "nonpayable",
      "type": "function"
    },
    {
      "inputs": [],
      "name": "initialize",
      "outputs": [],
      "stateMutability": "nonpayable",
      "type": "function"
    },
    {
      "inputs": [
        {
          "internalType": "uint256",
          "name": "_pid",
          "type": "uint256"
        },
        {
          "internalType": "uint256",
          "name": "_deposit",
          "type": "uint256"
        }
      ],
      "name": "makeProjectDeposit",
      "outputs": [],
      "stateMutability": "nonpayable",
      "type": "function"
    },
    {
      "inputs": [],
      "name": "name",
      "outputs": [
        {
          "internalType": "string",
          "name": "",
          "type": "string"
        }
      ],
      "stateMutability": "view",
      "type": "function"
    },
    {
      "inputs": [],
      "name": "owner",
      "outputs": [
        {
          "internalType": "address",
          "name": "",
          "type": "address"
        }
      ],
      "stateMutability": "view",
      "type": "function"
    },
    {
      "inputs": [
        {
          "internalType": "uint256",
          "name": "_pid",
          "type": "uint256"
        },
        {
          "internalType": "address",
          "name": "_hunter",
          "type": "address"
        },
        {
          "internalType": "uint256",
          "name": "_amount",
          "type": "uint256"
        }
      ],
      "name": "payBounty",
      "outputs": [
        {
          "internalType": "bool",
          "name": "",
          "type": "bool"
        }
      ],
      "stateMutability": "nonpayable",
      "type": "function"
    },
    {
      "inputs": [
        {
          "internalType": "uint256",
          "name": "_pid",
          "type": "uint256"
        },
        {
          "internalType": "address",
          "name": "_user",
          "type": "address"
        }
      ],
      "name": "pendingToken",
      "outputs": [
        {
          "internalType": "uint256",
          "name": "totalPending",
          "type": "uint256"
        },
        {
          "internalType": "uint256",
          "name": "actualPending",
          "type": "uint256"
        },
        {
          "internalType": "uint256",
          "name": "newPending",
          "type": "uint256"
        }
      ],
      "stateMutability": "view",
      "type": "function"
    },
    {
      "inputs": [
        {
          "internalType": "uint256",
          "name": "",
          "type": "uint256"
        }
      ],
      "name": "poolInfo",
      "outputs": [
        {
          "components": [
            {
              "internalType": "contract IERC20",
              "name": "token",
              "type": "address"
            },
            {
              "internalType": "uint8",
              "name": "tokenDecimals",
              "type": "uint8"
            },
            {
              "internalType": "uint16",
              "name": "apy",
              "type": "uint16"
            },
            {
              "internalType": "address",
              "name": "projectWallet",
              "type": "address"
            },
            {
              "internalType": "string",
              "name": "projectName",
              "type": "string"
            },
            {
              "internalType": "uint256",
              "name": "projectDeposit",
              "type": "uint256"
            },
            {
              "internalType": "uint256",
              "name": "poolCap",
              "type": "uint256"
            },
            {
              "internalType": "uint256",
              "name": "totalStaked",
              "type": "uint256"
            },
            {
              "internalType": "uint256",
              "name": "multiplier",
              "type": "uint256"
            }
          ],
          "internalType": "struct ISaloon.GeneralInfo",
          "name": "generalInfo",
          "type": "tuple"
        },
        {
          "components": [
            {
              "internalType": "uint256",
              "name": "requiredPremiumBalancePerPeriod",
              "type": "uint256"
            },
            {
              "internalType": "uint256",
              "name": "premiumBalance",
              "type": "uint256"
            },
            {
              "internalType": "uint256",
              "name": "premiumAvailable",
              "type": "uint256"
            }
          ],
          "internalType": "struct ISaloon.PremiumInfo",
          "name": "premiumInfo",
          "type": "tuple"
        },
        {
          "components": [
            {
              "internalType": "uint256",
              "name": "timelock",
              "type": "uint256"
            },
            {
              "internalType": "uint256",
              "name": "timeLimit",
              "type": "uint256"
            },
            {
              "internalType": "uint256",
              "name": "withdrawalScheduledAmount",
              "type": "uint256"
            },
            {
              "internalType": "bool",
              "name": "withdrawalExecuted",
              "type": "bool"
            }
          ],
          "internalType": "struct ISaloon.TimelockInfo",
          "name": "poolTimelock",
          "type": "tuple"
        },
        {
          "components": [
            {
              "internalType": "uint256",
              "name": "currentX",
              "type": "uint256"
            },
            {
              "internalType": "uint256",
              "name": "currentY",
              "type": "uint256"
            },
            {
              "internalType": "uint256",
              "name": "totalSupply",
              "type": "uint256"
            }
          ],
          "internalType": "struct ISaloon.TokenInfo",
          "name": "tokenInfo",
          "type": "tuple"
        },
        {
          "internalType": "uint256",
          "name": "freezeTime",
          "type": "uint256"
        },
        {
          "internalType": "bool",
          "name": "isActive",
          "type": "bool"
        }
      ],
      "stateMutability": "view",
      "type": "function"
    },
    {
      "inputs": [],
      "name": "poolLength",
      "outputs": [
        {
          "internalType": "uint256",
          "name": "",
          "type": "uint256"
        }
      ],
      "stateMutability": "view",
      "type": "function"
    },
    {
      "inputs": [
        {
          "internalType": "uint256",
          "name": "_pid",
          "type": "uint256"
        },
        {
          "internalType": "uint256",
          "name": "_amount",
          "type": "uint256"
        }
      ],
      "name": "projectDepositWithdrawal",
      "outputs": [
        {
          "internalType": "bool",
          "name": "",
          "type": "bool"
        }
      ],
      "stateMutability": "nonpayable",
      "type": "function"
    },
    {
      "inputs": [],
      "name": "proxiableUUID",
      "outputs": [
        {
          "internalType": "bytes32",
          "name": "",
          "type": "bytes32"
        }
      ],
      "stateMutability": "view",
      "type": "function"
    },
    {
      "inputs": [
        {
          "internalType": "address",
          "name": "",
          "type": "address"
        }
      ],
      "name": "saloonBountyProfit",
      "outputs": [
        {
          "internalType": "uint256",
          "name": "",
          "type": "uint256"
        }
      ],
      "stateMutability": "view",
      "type": "function"
    },
    {
      "inputs": [
        {
          "internalType": "address",
          "name": "",
          "type": "address"
        }
      ],
      "name": "saloonPremiumProfit",
      "outputs": [
        {
          "internalType": "uint256",
          "name": "",
          "type": "uint256"
        }
      ],
      "stateMutability": "view",
      "type": "function"
    },
    {
      "inputs": [
        {
          "internalType": "uint256",
          "name": "_pid",
          "type": "uint256"
        },
        {
          "internalType": "uint256",
          "name": "_amount",
          "type": "uint256"
        }
      ],
      "name": "scheduleProjectDepositWithdrawal",
      "outputs": [
        {
          "internalType": "bool",
          "name": "",
          "type": "bool"
        }
      ],
      "stateMutability": "nonpayable",
      "type": "function"
    },
    {
      "inputs": [
        {
          "internalType": "uint256",
          "name": "_pid",
          "type": "uint256"
        },
        {
          "internalType": "uint256",
          "name": "_amount",
          "type": "uint256"
        }
      ],
      "name": "scheduleUnstake",
      "outputs": [
        {
          "internalType": "bool",
          "name": "",
          "type": "bool"
        }
      ],
      "stateMutability": "nonpayable",
      "type": "function"
    },
    {
      "inputs": [
        {
          "internalType": "uint256",
          "name": "_pid",
          "type": "uint256"
        },
        {
          "internalType": "uint256",
          "name": "_poolCap",
          "type": "uint256"
        },
        {
          "internalType": "uint16",
          "name": "_apy",
          "type": "uint16"
        },
        {
          "internalType": "uint256",
          "name": "_deposit",
          "type": "uint256"
        }
      ],
      "name": "setAPYandPoolCapAndDeposit",
      "outputs": [],
      "stateMutability": "nonpayable",
      "type": "function"
    },
    {
      "inputs": [
        {
          "internalType": "uint256",
          "name": "_pid",
          "type": "uint256"
        },
        {
          "internalType": "address",
          "name": "_user",
          "type": "address"
        },
        {
          "internalType": "uint256",
          "name": "_amount",
          "type": "uint256"
        }
      ],
      "name": "stake",
      "outputs": [
        {
          "internalType": "bool",
          "name": "",
          "type": "bool"
        }
      ],
      "stateMutability": "nonpayable",
      "type": "function"
    },
    {
      "inputs": [
        {
          "internalType": "address",
          "name": "",
          "type": "address"
        },
        {
          "internalType": "uint256",
          "name": "",
          "type": "uint256"
        }
      ],
      "name": "stakerBalance",
      "outputs": [
        {
          "internalType": "uint256",
          "name": "",
          "type": "uint256"
        }
      ],
      "stateMutability": "view",
      "type": "function"
    },
    {
      "inputs": [],
      "name": "symbol",
      "outputs": [
        {
          "internalType": "string",
          "name": "",
          "type": "string"
        }
      ],
      "stateMutability": "view",
      "type": "function"
    },
    {
      "inputs": [
        {
          "internalType": "address",
          "name": "",
          "type": "address"
        }
      ],
      "name": "tokenWhitelist",
      "outputs": [
        {
          "internalType": "bool",
          "name": "",
          "type": "bool"
        }
      ],
      "stateMutability": "view",
      "type": "function"
    },
    {
      "inputs": [],
      "name": "totalSupply",
      "outputs": [
        {
          "internalType": "uint256",
          "name": "",
          "type": "uint256"
        }
      ],
      "stateMutability": "view",
      "type": "function"
    },
    {
      "inputs": [
        {
          "internalType": "address",
          "name": "to",
          "type": "address"
        },
        {
          "internalType": "uint256",
          "name": "amount",
          "type": "uint256"
        }
      ],
      "name": "transfer",
      "outputs": [
        {
          "internalType": "bool",
          "name": "",
          "type": "bool"
        }
      ],
      "stateMutability": "nonpayable",
      "type": "function"
    },
    {
      "inputs": [
        {
          "internalType": "address",
          "name": "from",
          "type": "address"
        },
        {
          "internalType": "address",
          "name": "to",
          "type": "address"
        },
        {
          "internalType": "uint256",
          "name": "amount",
          "type": "uint256"
        }
      ],
      "name": "transferFrom",
      "outputs": [
        {
          "internalType": "bool",
          "name": "",
          "type": "bool"
        }
      ],
      "stateMutability": "nonpayable",
      "type": "function"
    },
    {
      "inputs": [
        {
          "internalType": "address",
          "name": "newOwner",
          "type": "address"
        }
      ],
      "name": "transferOwnership",
      "outputs": [],
      "stateMutability": "nonpayable",
      "type": "function"
    },
    {
      "inputs": [
        {
          "internalType": "uint256",
          "name": "_pid",
          "type": "uint256"
        },
        {
          "internalType": "uint256",
          "name": "_amount",
          "type": "uint256"
        },
        {
          "internalType": "bool",
          "name": "_shouldHarvest",
          "type": "bool"
        }
      ],
      "name": "unstake",
      "outputs": [
        {
          "internalType": "bool",
          "name": "",
          "type": "bool"
        }
      ],
      "stateMutability": "nonpayable",
      "type": "function"
    },
    {
      "inputs": [
        {
          "internalType": "address",
          "name": "_token",
          "type": "address"
        },
        {
          "internalType": "bool",
          "name": "_whitelisted",
          "type": "bool"
        }
      ],
      "name": "updateTokenWhitelist",
      "outputs": [
        {
          "internalType": "bool",
          "name": "",
          "type": "bool"
        }
      ],
      "stateMutability": "nonpayable",
      "type": "function"
    },
    {
      "inputs": [
        {
          "internalType": "address",
          "name": "newImplementation",
          "type": "address"
        }
      ],
      "name": "upgradeTo",
      "outputs": [],
      "stateMutability": "nonpayable",
      "type": "function"
    },
    {
      "inputs": [
        {
          "internalType": "address",
          "name": "newImplementation",
          "type": "address"
        },
        {
          "internalType": "bytes",
          "name": "data",
          "type": "bytes"
        }
      ],
      "name": "upgradeToAndCall",
      "outputs": [],
      "stateMutability": "payable",
      "type": "function"
    },
    {
      "inputs": [
        {
          "internalType": "uint256",
          "name": "",
          "type": "uint256"
        },
        {
          "internalType": "address",
          "name": "",
          "type": "address"
        }
      ],
      "name": "userInfo",
      "outputs": [
        {
          "internalType": "uint256",
          "name": "amount",
          "type": "uint256"
        },
        {
          "internalType": "uint256",
          "name": "unclaimed",
          "type": "uint256"
        },
        {
          "internalType": "uint256",
          "name": "lastRewardTime",
          "type": "uint256"
        },
        {
          "internalType": "uint256",
          "name": "timelock",
          "type": "uint256"
        },
        {
          "internalType": "uint256",
          "name": "timeLimit",
          "type": "uint256"
        },
        {
          "internalType": "uint256",
          "name": "unstakeScheduledAmount",
          "type": "uint256"
        }
      ],
      "stateMutability": "view",
      "type": "function"
    },
    {
      "inputs": [
        {
          "internalType": "uint256",
          "name": "_pid",
          "type": "uint256"
        }
      ],
      "name": "viewBountyBalance",
      "outputs": [
        {
          "internalType": "uint256",
          "name": "",
          "type": "uint256"
        }
      ],
      "stateMutability": "view",
      "type": "function"
    },
    {
      "inputs": [
        {
          "internalType": "uint256",
          "name": "_pid",
          "type": "uint256"
        }
      ],
      "name": "viewBountyInfo",
      "outputs": [
        {
          "internalType": "uint256",
          "name": "payout",
          "type": "uint256"
        },
        {
          "internalType": "uint256",
          "name": "apy",
          "type": "uint256"
        },
        {
          "internalType": "uint256",
          "name": "staked",
          "type": "uint256"
        },
        {
          "internalType": "uint256",
          "name": "poolCap",
          "type": "uint256"
        }
      ],
      "stateMutability": "view",
      "type": "function"
    },
    {
      "inputs": [
        {
          "internalType": "uint256",
          "name": "_pid",
          "type": "uint256"
        }
      ],
      "name": "viewHackerPayout",
      "outputs": [
        {
          "internalType": "uint256",
          "name": "",
          "type": "uint256"
        }
      ],
      "stateMutability": "view",
      "type": "function"
    },
    {
      "inputs": [
        {
          "internalType": "uint256",
          "name": "_pid",
          "type": "uint256"
        }
      ],
      "name": "viewPoolAPY",
      "outputs": [
        {
          "internalType": "uint256",
          "name": "",
          "type": "uint256"
        }
      ],
      "stateMutability": "view",
      "type": "function"
    },
    {
      "inputs": [
        {
          "internalType": "uint256",
          "name": "_pid",
          "type": "uint256"
        }
      ],
      "name": "viewPoolCap",
      "outputs": [
        {
          "internalType": "uint256",
          "name": "",
          "type": "uint256"
        }
      ],
      "stateMutability": "view",
      "type": "function"
    },
    {
      "inputs": [
        {
          "internalType": "uint256",
          "name": "_pid",
          "type": "uint256"
        }
      ],
      "name": "viewPoolPremiumInfo",
      "outputs": [
        {
          "internalType": "uint256",
          "name": "requiredPremiumBalancePerPeriod",
          "type": "uint256"
        },
        {
          "internalType": "uint256",
          "name": "premiumBalance",
          "type": "uint256"
        },
        {
          "internalType": "uint256",
          "name": "premiumAvailable",
          "type": "uint256"
        }
      ],
      "stateMutability": "view",
      "type": "function"
    },
    {
      "inputs": [
        {
          "internalType": "uint256",
          "name": "_pid",
          "type": "uint256"
        }
      ],
      "name": "viewPoolTimelockInfo",
      "outputs": [
        {
          "internalType": "uint256",
          "name": "timelock",
          "type": "uint256"
        },
        {
          "internalType": "uint256",
          "name": "timeLimit",
          "type": "uint256"
        },
        {
          "internalType": "uint256",
          "name": "withdrawalScheduledAmount",
          "type": "uint256"
        }
      ],
      "stateMutability": "view",
      "type": "function"
    },
    {
      "inputs": [
        {
          "internalType": "address",
          "name": "_token",
          "type": "address"
        }
      ],
      "name": "viewSaloonProfitBalance",
      "outputs": [
        {
          "internalType": "uint256",
          "name": "totalProfit",
          "type": "uint256"
        },
        {
          "internalType": "uint256",
          "name": "bountyProfit",
          "type": "uint256"
        },
        {
          "internalType": "uint256",
          "name": "premiumProfit",
          "type": "uint256"
        }
      ],
      "stateMutability": "view",
      "type": "function"
    },
    {
      "inputs": [
        {
          "internalType": "uint256",
          "name": "_pid",
          "type": "uint256"
        }
      ],
      "name": "viewTotalStaked",
      "outputs": [
        {
          "internalType": "uint256",
          "name": "",
          "type": "uint256"
        }
      ],
      "stateMutability": "view",
      "type": "function"
    },
    {
      "inputs": [
        {
          "internalType": "uint256",
          "name": "_pid",
          "type": "uint256"
        },
        {
          "internalType": "address",
          "name": "_user",
          "type": "address"
        }
      ],
      "name": "viewUserInfo",
      "outputs": [
        {
          "internalType": "uint256",
          "name": "amount",
          "type": "uint256"
        },
        {
          "internalType": "uint256",
          "name": "actualPending",
          "type": "uint256"
        },
        {
          "internalType": "uint256",
          "name": "unstakeScheduledAmount",
          "type": "uint256"
        },
        {
          "internalType": "uint256",
          "name": "timelock",
          "type": "uint256"
        }
      ],
      "stateMutability": "view",
      "type": "function"
    },
    {
      "inputs": [
        {
          "internalType": "uint256",
          "name": "_pid",
          "type": "uint256"
        },
        {
          "internalType": "address",
          "name": "_user",
          "type": "address"
        }
      ],
      "name": "viewUserUnclaimed",
      "outputs": [
        {
          "internalType": "uint256",
          "name": "unclaimed",
          "type": "uint256"
        }
      ],
      "stateMutability": "view",
      "type": "function"
    },
    {
      "inputs": [
        {
          "internalType": "uint256",
          "name": "_pid",
          "type": "uint256"
        }
      ],
      "name": "windDownBounty",
      "outputs": [
        {
          "internalType": "bool",
          "name": "",
          "type": "bool"
        }
      ],
      "stateMutability": "nonpayable",
      "type": "function"
    }
  ],
  "bytecode": {
    "object": "0x60a0604052306080523480156200001557600080fd5b50600160ca55600054610100900460ff16158080156200003c5750600054600160ff909116105b806200006c575062000059306200019760201b6200468a1760201c565b1580156200006c575060005460ff166001145b620000d55760405162461bcd60e51b815260206004820152602e60248201527f496e697469616c697a61626c653a20636f6e747261637420697320616c72656160448201526d191e481a5b9a5d1a585b1a5e995960921b60648201526084015b60405180910390fd5b6000805460ff191660011790558015620000f9576000805461ff0019166101001790555b620001496040518060400160405280600b81526020016a2137bab73a3caa37b5b2b760a91b8152506040518060400160405280600381526020016210951560ea1b815250620001a660201b60201c565b801562000190576000805461ff0019169055604051600181527f7f26b83ff96e1f2b6a682f133852f6798a09c465da95921460cefb38474024989060200160405180910390a15b5062000400565b6001600160a01b03163b151590565b600054610100900460ff16620002025760405162461bcd60e51b815260206004820152602b6024820152600080516020620068c983398151915260448201526a6e697469616c697a696e6760a81b6064820152608401620000cc565b6200020e828262000212565b5050565b600054610100900460ff166200026e5760405162461bcd60e51b815260206004820152602b6024820152600080516020620068c983398151915260448201526a6e697469616c697a696e6760a81b6064820152608401620000cc565b60ce6200027c838262000334565b5060cf6200028b828262000334565b505050565b634e487b7160e01b600052604160045260246000fd5b600181811c90821680620002bb57607f821691505b602082108103620002dc57634e487b7160e01b600052602260045260246000fd5b50919050565b601f8211156200028b57600081815260208120601f850160051c810160208610156200030b5750805b601f850160051c820191505b818110156200032c5782815560010162000317565b505050505050565b81516001600160401b0381111562000350576200035062000290565b6200036881620003618454620002a6565b84620002e2565b602080601f831160018114620003a05760008415620003875750858301515b600019600386901b1c1916600185901b1785556200032c565b600085815260208120601f198616915b82811015620003d157888601518255948401946001909101908401620003b0565b5085821015620003f05787850151600019600388901b60f8161c191681555b5050505050600190811b01905550565b6080516164916200043860003960008181610ea301528181610eec015281816117cf0152818161180f01526118a201526164916000f3fe6080604052600436106103755760003560e01c80637fbf3853116101d1578063a9059cbb11610102578063cf9564b9116100a0578063e5e97c651161006f578063e5e97c6514610b36578063ecd7fbed14610b56578063f2fde38b14610b76578063f47ec3be14610b9657600080fd5b8063cf9564b914610aa9578063dbdd695714610ac9578063dd62ed3e14610ae9578063e45abd0f14610b0957600080fd5b8063b842e87f116100dc578063b842e87f14610a26578063bb7019c114610a3b578063ca00614814610a5b578063cee6b06914610a8957600080fd5b8063a9059cbb146109c6578063ac30b856146109e6578063b1a2d16f14610a0657600080fd5b806393f1a40b1161016f5780639f224f35116101495780639f224f3514610946578063a27f921314610966578063a457c2d714610986578063a754ecb0146109a657600080fd5b806393f1a40b1461088857806395d89b4114610911578063983c1ce01461092657600080fd5b8063861e5f66116101ab578063861e5f66146107f65780638da5cb5b146108165780638dbb1e3a1461084857806391635b4e1461086857600080fd5b80637fbf3853146107a1578063804fd590146107c15780638129fc1c146107e157600080fd5b806348e43af4116102ab5780636ac6d8121161024957806370a082311161022357806370a08231146106fa578063718c7eef14610730578063753d75631461075057806379b91d691461078157600080fd5b80636ac6d812146106825780636e9c931c146106a257806370882b47146106c257600080fd5b80635669cbef116102855780635669cbef146105dc57806357a86d3a146105fc5780635c46f7b11461061c5780635e3b748b1461063c57600080fd5b806348e43af4146105795780634f1ef286146105b457806352d1902d146105c757600080fd5b80632dbe051e1161031857806339509351116102f257806339509351146104d957806339679ff4146104f95780633ac6ad7b1461051957806340ef28681461053957600080fd5b80632dbe051e1461047b578063313ce5671461049b5780633659cfe6146104b757600080fd5b8063095ea7b311610354578063095ea7b3146103e45780631526fe271461041457806318160ddd1461044657806323b872dd1461045b57600080fd5b8062fdd58e1461037a57806306fdde03146103ad578063081e3eda146103cf575b600080fd5b34801561038657600080fd5b5061039a610395366004615a44565b610bb6565b6040519081526020015b60405180910390f35b3480156103b957600080fd5b506103c2610be1565b6040516103a49190615abe565b3480156103db57600080fd5b5060fd5461039a565b3480156103f057600080fd5b506104046103ff366004615a44565b610c73565b60405190151581526020016103a4565b34801561042057600080fd5b5061043461042f366004615ad1565b610c8b565b6040516103a496959493929190615aea565b34801561045257600080fd5b5060cd5461039a565b34801561046757600080fd5b50610404610476366004615c08565b610e59565b34801561048757600080fd5b50610404610496366004615ad1565b610e7f565b3480156104a757600080fd5b50604051601281526020016103a4565b3480156104c357600080fd5b506104d76104d2366004615c44565b610e99565b005b3480156104e557600080fd5b506104046104f4366004615a44565b610f81565b34801561050557600080fd5b5061039a610514366004615ad1565b610fa3565b34801561052557600080fd5b50610404610534366004615c5f565b6111ed565b34801561054557600080fd5b50610559610554366004615ad1565b611684565b6040805194855260208501939093529183015260608201526080016103a4565b34801561058557600080fd5b50610599610594366004615c84565b6116bd565b604080519384526020840192909252908201526060016103a4565b6104d76105c2366004615d3c565b6117c5565b3480156105d357600080fd5b5061039a611895565b3480156105e857600080fd5b506104046105f7366004615d9e565b611948565b34801561060857600080fd5b506104d7610617366004615d9e565b611a6c565b34801561062857600080fd5b5061039a610637366004615d9e565b611b49565b34801561064857600080fd5b5061039a610657366004615c84565b6000918252610101602090815260408084206001600160a01b03909316845291905290206001015490565b34801561068e57600080fd5b5061039a61069d366004615ad1565b611ea4565b3480156106ae57600080fd5b506104046106bd366004615c5f565b6120fb565b3480156106ce57600080fd5b5061039a6106dd366004615a44565b60fe60209081526000928352604080842090915290825290205481565b34801561070657600080fd5b5061039a610715366004615c44565b6001600160a01b0316600090815260cb602052604090205490565b34801561073c57600080fd5b5061059961074b366004615c44565b612573565b34801561075c57600080fd5b5061040461076b366004615c44565b6101026020526000908152604090205460ff1681565b34801561078d57600080fd5b5061040461079c366004615dce565b6125aa565b3480156107ad57600080fd5b5061039a6107bc366004615ad1565b612888565b3480156107cd57600080fd5b5061039a6107dc366004615e07565b612af2565b3480156107ed57600080fd5b506104d7612e75565b34801561080257600080fd5b5061039a610811366004615ad1565b612f85565b34801561082257600080fd5b506033546001600160a01b03165b6040516001600160a01b0390911681526020016103a4565b34801561085457600080fd5b5061039a610863366004615d9e565b6131ff565b34801561087457600080fd5b50610404610883366004615d9e565b61320b565b34801561089457600080fd5b506108e46108a3366004615c84565b610101602090815260009283526040808420909152908252902080546001820154600283015460038401546004850154600590950154939492939192909186565b604080519687526020870195909552938501929092526060840152608083015260a082015260c0016103a4565b34801561091d57600080fd5b506103c26132e5565b34801561093257600080fd5b50610404610941366004615d9e565b6132f4565b34801561095257600080fd5b50610830610961366004615ad1565b61344e565b34801561097257600080fd5b5061039a610981366004615ad1565b613479565b34801561099257600080fd5b506104046109a1366004615a44565b6136c6565b3480156109b257600080fd5b506105596109c1366004615c84565b61374c565b3480156109d257600080fd5b506104046109e1366004615a44565b61379d565b3480156109f257600080fd5b50610599610a01366004615ad1565b6137ab565b348015610a1257600080fd5b50610599610a21366004615ad1565b613a0a565b348015610a3257600080fd5b506104d7613c69565b348015610a4757600080fd5b50610404610a56366004615ad1565b613ce9565b348015610a6757600080fd5b5061039a610a76366004615c44565b6101006020526000908152604090205481565b348015610a9557600080fd5b506104d7610aa4366004615e79565b613d6e565b348015610ab557600080fd5b50610404610ac4366004615ebf565b614005565b348015610ad557600080fd5b5061039a610ae4366004615ad1565b614073565b348015610af557600080fd5b5061039a610b04366004615ebf565b6142bd565b348015610b1557600080fd5b5061039a610b24366004615c44565b60ff6020526000908152604090205481565b348015610b4257600080fd5b50610404610b51366004615ee9565b6142e8565b348015610b6257600080fd5b50610404610b71366004615c44565b61451d565b348015610b8257600080fd5b506104d7610b91366004615c44565b6145dd565b348015610ba257600080fd5b506104d7610bb1366004615ad1565b61466c565b6001600160a01b038216600090815260fe602090815260408083208484529091529020545b92915050565b606060ce8054610bf090615f20565b80601f0160208091040260200160405190810160405280929190818152602001828054610c1c90615f20565b8015610c695780601f10610c3e57610100808354040283529160200191610c69565b820191906000526020600020905b815481529060010190602001808311610c4c57829003601f168201915b5050505050905090565b600033610c81818585614699565b5060019392505050565b60fd8181548110610c9b57600080fd5b60009182526020918290206040805161012081018252601490930290910180546001600160a01b03808216855260ff600160a01b8304169585019590955261ffff600160a81b909104169183019190915260018101549092166060820152600282018054929350909183916080840191610d1490615f20565b80601f0160208091040260200160405190810160405280929190818152602001828054610d4090615f20565b8015610d8d5780601f10610d6257610100808354040283529160200191610d8d565b820191906000526020600020905b815481529060010190602001808311610d7057829003601f168201915b5050509183525050600382015460208083019190915260048301546040808401919091526005840154606080850191909152600690940154608093840152805180850182526007870154815260088701548184015260098701548183015281519384018252600a8701548452600b87015484840152600c87015484830152600d87015460ff90811615158587015282519586018352600e8801548652600f8801549386019390935260108701549185019190915260128601546013909601549495909492939290911686565b600033610e678582856147bd565b610e72858585614837565b60019150505b9392505050565b6000610e896149e2565b610e94826000614a3c565b919050565b6001600160a01b037f0000000000000000000000000000000000000000000000000000000000000000163003610eea5760405162461bcd60e51b8152600401610ee190615f5a565b60405180910390fd5b7f00000000000000000000000000000000000000000000000000000000000000006001600160a01b0316610f33600080516020616415833981519152546001600160a01b031690565b6001600160a01b031614610f595760405162461bcd60e51b8152600401610ee190615fa6565b610f6281614b73565b60408051600080825260208201909252610f7e91839190614b7b565b50565b600033610c81818585610f9483836142bd565b610f9e9190616008565b614699565b60008060fd8381548110610fb957610fb961601b565b6000918252602090912060408051610200810190915260149092020180546001600160a01b0380821660e08501908152600160a01b830460ff16610100860152600160a81b90920461ffff1661012085015260018301541661014084015260028201805484929184916101608501919061103290615f20565b80601f016020809104026020016040519081016040528092919081815260200182805461105e90615f20565b80156110ab5780601f10611080576101008083540402835291602001916110ab565b820191906000526020600020905b81548152906001019060200180831161108e57829003601f168201915b505050918352505060038201546020808301919091526004830154604080840191909152600584015460608085019190915260069094015460809384015293855283518084018552600787015481526008870154818301526009870154818601528582015283518083018552600a8701548152600b87015481830152600c87015481860152600d87015460ff161515818501528585015283518084018552600e8701548152600f8701548183015260108701548186015292850192909252601185018054845181850281018501909552808552949091019390918301828280156111be57602002820191906000526020600020905b81546001600160a01b031681526001909101906020018083116111a0575b50505091835250506012820154602082015260139091015460ff1615156040909101525160c001519392505050565b60006111f76149e2565b600060fd858154811061120c5761120c61601b565b600091825260208220600560149092020190810154600382015491935091906112359083616008565b9050808286116113d6578286036112d957601184015460005b818110156112bb57600086601101828154811061126d5761126d61601b565b60009182526020808320909101548d8352610101825260408084206001600160a01b0390921680855291909252908220909250906112ae908d908490614ceb565b600090555060010161124e565b506000600586018190556112d390601187019061589f565b50611583565b6000836112ee670de0b6b3a764000089616031565b6112f8919061605e565b601186015490915060005b818110156113ce5760008760110182815481106113225761132261601b565b60009182526020808320909101548e8352610101825260408084206001600160a01b039092168085529190925290822090925090611363908e908490614ceb565b6000670de0b6b3a764000086836000015461137e9190616031565b611388919061605e565b90508082600001600082825461139e9190616080565b909155505060058a0180548291906000906113ba908490616080565b909155505060019093019250611303915050565b505050611583565b82861180156113e457508186105b156114a857601184015460005b8181101561145e5760008660110182815481106114105761141061601b565b60009182526020808320909101548d8352610101825260408084206001600160a01b039092168085529190925290822090925090611451908d908490614ceb565b60009055506001016113f1565b5060006005860181905561147690601187019061589f565b60006114828585616080565b90508086600001600301600082825461149b9190616080565b9091555061158392505050565b81860361154957601184015460005b818110156115245760008660110182815481106114d6576114d661601b565b60009182526020808320909101548d8352610101825260408084206001600160a01b039092168085529190925290822090925090611517908d908490614ceb565b60009055506001016114b7565b5060006005860181905561153c90601187019061589f565b5060006003850155611583565b60405162461bcd60e51b815260206004820152600f60248201526e082dadeeadce840e8dede40d0d2ced608b1b6044820152606401610ee1565b60006127106115946103e889616031565b61159e919061605e565b905060006115ac8289616080565b86546001600160a01b0316600090815260ff60205260408120805492935084929091906115da908490616008565b909155505085546115f5906001600160a01b03168a83614e4d565b506003860154600587015460009161160c91616008565b87546040518b81529192506001600160a01b0390811691908c169042907fc351e6e0f377ec1a399ec84224a83d6a4b9f3cd9a5530e5c652d0b11c2f8dae29060200160405180910390a480848c6000805160206163f583398151915260405160405180910390a45060019a9950505050505050505050565b60008060008061169385612f85565b935061169e85614073565b91506116a985613479565b92506116b485610fa3565b90509193509193565b60008060008060fd86815481106116d6576116d661601b565b60009182526020808320898452610101825260408085206001600160a01b038b168652909252908320601492909202016005810154601282015491945091929081036117225742611728565b83601201545b9050600061173a8460020154836131ff565b855485549192506301e133809183916127109161176291600160a81b900461ffff1690616031565b61176c919061605e565b6117769190616031565b611780919061605e565b95508360010154866117929190616008565b97506127106117a36103e882616080565b6117ad908a616031565b6117b7919061605e565b965050505050509250925092565b6001600160a01b037f000000000000000000000000000000000000000000000000000000000000000016300361180d5760405162461bcd60e51b8152600401610ee190615f5a565b7f00000000000000000000000000000000000000000000000000000000000000006001600160a01b0316611856600080516020616415833981519152546001600160a01b031690565b6001600160a01b03161461187c5760405162461bcd60e51b8152600401610ee190615fa6565b61188582614b73565b61189182826001614b7b565b5050565b6000306001600160a01b037f000000000000000000000000000000000000000000000000000000000000000016146119355760405162461bcd60e51b815260206004820152603860248201527f555550535570677261646561626c653a206d757374206e6f742062652063616c60448201527f6c6564207468726f7567682064656c656761746563616c6c00000000000000006064820152608401610ee1565b5060008051602061641583398151915290565b60008060fd848154811061195e5761195e61601b565b9060005260206000209060140201905082816000016003015410156119c55760405162461bcd60e51b815260206004820152601a60248201527f416d6f756e7420626967676572207468616e206465706f7369740000000000006044820152606401610ee1565b60018101546001600160a01b031633146119f15760405162461bcd60e51b8152600401610ee190616093565b6119fe62093a8042616008565b600a820155611a1062093a8042616008565b611a1d906203f480616008565b600b820155600c8101839055600d8101805460ff19169055604051839085907fb3b9c925de3673837b40c6b4d4463a8f88dc821cd27e07f1ff6bf6abf96413a590600090a35060019392505050565b600060fd8381548110611a8157611a8161601b565b6000918252602090912060149091020160018101549091506001600160a01b03163314611ac05760405162461bcd60e51b8152600401610ee190616093565b60038101546005820154600091611ad691616008565b8254909150611af0906001600160a01b0316333086614eb3565b5082826000016003016000828254611b089190616008565b909155505060038201546005830154600091611b2391616008565b90508082866000805160206163f583398151915260405160405180910390a45050505050565b60008060fd8381548110611b5f57611b5f61601b565b6000918252602090912060408051610200810190915260149092020180546001600160a01b0380821660e08501908152600160a01b830460ff16610100860152600160a81b90920461ffff16610120850152600183015416610140840152600282018054849291849161016085019190611bd890615f20565b80601f0160208091040260200160405190810160405280929190818152602001828054611c0490615f20565b8015611c515780601f10611c2657610100808354040283529160200191611c51565b820191906000526020600020905b815481529060010190602001808311611c3457829003601f168201915b505050918352505060038201546020808301919091526004830154604080840191909152600584015460608085019190915260069094015460809384015293855283518084018552600787015481526008870154818301526009870154818601528582015283518083018552600a8701548152600b87015481830152600c87015481860152600d87015460ff161515818501528585015283518084018552600e8701548152600f870154818301526010870154818601529285019290925260118501805484518185028101850190955280855294909101939091830182828015611d6457602002820191906000526020600020905b81546001600160a01b03168152600190910190602001808311611d46575b50505091835250506012820154602082015260139091015460ff1615156040909101526060810151519091506000611d9c8686614eee565b5090506000611dab8383616008565b90506000611dba826021616031565b611dcc90674563918244f40000616008565b90506000611ddb856021616031565b611ded90674563918244f40000616008565b90506000611e02611dfd84614f4a565b614f93565b90506000611e12611dfd84614f4a565b90506000611e50611e236021614f4a565b611e4a611e308686614fcb565b611e446a295be96e64066972000000614f4a565b90614fda565b90614fe9565b90506000611e6188620f4240616031565b611e6b908361605e565b8a516101000151909150670de0b6b3a7640000611e888284616031565b611e92919061605e565b9e9d5050505050505050505050505050565b60008060fd8381548110611eba57611eba61601b565b6000918252602090912060408051610200810190915260149092020180546001600160a01b0380821660e08501908152600160a01b830460ff16610100860152600160a81b90920461ffff16610120850152600183015416610140840152600282018054849291849161016085019190611f3390615f20565b80601f0160208091040260200160405190810160405280929190818152602001828054611f5f90615f20565b8015611fac5780601f10611f8157610100808354040283529160200191611fac565b820191906000526020600020905b815481529060010190602001808311611f8f57829003601f168201915b505050918352505060038201546020808301919091526004830154604080840191909152600584015460608085019190915260069094015460809384015293855283518084018552600787015481526008870154818301526009870154818601528582015283518083018552600a8701548152600b87015481830152600c87015481860152600d87015460ff161515818501528585015283518084018552600e8701548152600f8701548183015260108701548186015292850192909252601185018054845181850281018501909552808552949091019390918301828280156120bf57602002820191906000526020600020905b81546001600160a01b031681526001909101906020018083116120a1575b50505091835250506012820154602082015260139091015460ff161515604090910152805160a081015160e090910151919250610e7891616008565b6000612105615001565b83600060fd828154811061211b5761211b61601b565b6000918252602090912060408051610200810190915260149092020180546001600160a01b0380821660e08501908152600160a01b830460ff16610100860152600160a81b90920461ffff1661012085015260018301541661014084015260028201805484929184916101608501919061219490615f20565b80601f01602080910402602001604051908101604052809291908181526020018280546121c090615f20565b801561220d5780601f106121e25761010080835404028352916020019161220d565b820191906000526020600020905b8154815290600101906020018083116121f057829003601f168201915b505050918352505060038201546020808301919091526004830154604080840191909152600584015460608085019190915260069094015460809384015293855283518084018552600787015481526008870154818301526009870154818601528582015283518083018552600a8701548152600b87015481830152600c87015481860152600d87015460ff161515818501528585015283518084018552600e8701548152600f87015481830152601087015481860152928501929092526011850180548451818502810185019095528085529490910193909183018282801561232057602002820191906000526020600020905b81546001600160a01b03168152600190910190602001808311612302575b50505091835250506012820154602082015260139091015460ff16151560409091015260c08101519091506123895760405162461bcd60e51b815260206004820152600f60248201526e706f6f6c206e6f742061637469766560881b6044820152606401610ee1565b6000841161239657600080fd5b600060fd87815481106123ab576123ab61601b565b600091825260208083208a8452610101825260408085206001600160a01b038c16865290925290832060149290920201600381015460058201549194509192916123f491616008565b905061240289896001614ceb565b815460000361243c57601183018054600181018255600091825260209091200180546001600160a01b0319166001600160a01b038a161790555b8254612453906001600160a01b031633308a614eb3565b50868260000160008282546124689190616008565b9091555050600583018054889190600090612484908490616008565b90915550506004830154158015906124a457506004830154600584015411155b6124e65760405162461bcd60e51b8152602060048201526013602482015272115e18d959591959081c1bdbdb081b1a5b5a5d606a1b6044820152606401610ee1565b88886001600160a01b03167f1449c6dd7851abc30abf37f57715f492010519147cc2652fbc38202c18a6ee908960405161252291815260200190565b60405180910390a36003830154600584015460009161254091616008565b905080828b6000805160206163f583398151915260405160405180910390a460019650505050505050610e78600160ca55565b6001600160a01b038116600090815260ff60209081526040808320546101009092528220546125a28282616008565b949193509150565b60006125b4615001565b600060fd85815481106125c9576125c961601b565b600091825260208083208884526101018252604080852033865290925292208054601490920290920192508511156126385760405162461bcd60e51b81526020600482015260126024820152711dda5d1a191c985dce881b9bdd0819dbdbd960721b6044820152606401610ee1565b42816003015410801561264e5750428160040154115b801561265e575084816005015410155b801561266d5750600381015415155b6126895760405162461bcd60e51b8152600401610ee1906160bb565b6000600380830182905583015460058401546126a59190616008565b90506126b2873387614ceb565b85156126f25781546126c4908761505a565b825560058301546126d5908761505a565b600584015582546126f0906001600160a01b03163388614e4d565b505b815460000361280a57601183015460005b8181101561280757336001600160a01b031685601101828154811061272a5761272a61601b565b6000918252602090912001546001600160a01b0316036127ff57600060118601612755600185616080565b815481106127655761276561601b565b6000918252602090912001546011870180546001600160a01b0390921692508291849081106127965761279661601b565b9060005260206000200160006101000a8154816001600160a01b0302191690836001600160a01b03160217905550856011018054806127d7576127d7616104565b600082815260209020810160001990810180546001600160a01b031916905501905550612807565b600101612703565b50505b604051868152879033907f7fc4727e062e336010f2c282598ef5f14facb3de68cf8195c2f23e1454b2b74e9060200160405180910390a36003830154600584015460009161285791616008565b90508082896000805160206163f583398151915260405160405180910390a46001945050505050610e78600160ca55565b60008060fd838154811061289e5761289e61601b565b6000918252602090912060408051610200810190915260149092020180546001600160a01b0380821660e08501908152600160a01b830460ff16610100860152600160a81b90920461ffff1661012085015260018301541661014084015260028201805484929184916101608501919061291790615f20565b80601f016020809104026020016040519081016040528092919081815260200182805461294390615f20565b80156129905780601f1061296557610100808354040283529160200191612990565b820191906000526020600020905b81548152906001019060200180831161297357829003601f168201915b505050918352505060038201546020808301919091526004830154604080840191909152600584015460608085019190915260069094015460809384015293855283518084018552600787015481526008870154818301526009870154818601528582015283518083018552600a8701548152600b87015481830152600c87015481860152600d87015460ff161515818501528585015283518084018552600e8701548152600f870154818301526010870154818601529285019290925260118501805484518185028101850190955280855294909101939091830182828015612aa357602002820191906000526020600020905b81546001600160a01b03168152600190910190602001808311612a85575b50505091835250506012820154602082015260139091015460ff1615156040909101526060810151518151610100015191925090612ae082615066565b612aea9190616031565b949350505050565b6000612afc6149e2565b6001600160a01b0384166000908152610102602052604090205460ff16612b5d5760405162461bcd60e51b81526020600482015260156024820152741d1bdad95b881b9bdd081dda1a5d195b1a5cdd1959605a1b6044820152606401610ee1565b60408051600481526024810182526020810180516001600160e01b031663313ce56760e01b17905290516000916001600160a01b03871691612b9f919061611a565b600060405180830381855afa9150503d8060008114612bda576040519150601f19603f3d011682016040523d82523d6000602084013e612bdf565b606091505b50915050600081806020019051810190612bf99190616136565b9050612c036158bd565b80516001600160a01b03808916909152815160ff8085166020928301528351898416606091820152845160809081018a90528551600060a091820181905287516040908101829052885160c0908101839052895161010001839052895160e001839052818a0180518490528051890184905280518301849052518601839052890182905291880181905260fd805460018101825591528751805160149092027f9346ac6dd7de6b96975fec380d4d994c4c12e6a8897544f22915316cc6cca28081018054988301519483015161ffff16600160a81b0261ffff60a81b1995909816600160a01b026001600160a81b0319909916938a16939093179790971792909216949094178455918201517f9346ac6dd7de6b96975fec380d4d994c4c12e6a8897544f22915316cc6cca28185018054919096166001600160a01b03199190911617909455928301518493919283917f9346ac6dd7de6b96975fec380d4d994c4c12e6a8897544f22915316cc6cca28290910190612d8290826161a7565b5060a0820151600382015560c0820151600482015560e0820151600582015561010090910151600690910155602082810151805160078401558082015160088401556040908101516009840155808401518051600a85015580830151600b85015580820151600c850155606090810151600d8501805460ff19169115159190911790558401518051600e85015580830151600f8501550151601083015560808301518051612e3692601185019201906159b3565b5060a0820151601282015560c0909101516013909101805460ff191691151591909117905560fd54612e6a90600190616080565b979650505050505050565b600054610100900460ff1615808015612e955750600054600160ff909116105b80612eaf5750303b158015612eaf575060005460ff166001145b612f125760405162461bcd60e51b815260206004820152602e60248201527f496e697469616c697a61626c653a20636f6e747261637420697320616c72656160448201526d191e481a5b9a5d1a585b1a5e995960921b6064820152608401610ee1565b6000805460ff191660011790558015612f35576000805461ff0019166101001790555b612f3d6150c6565b8015610f7e576000805461ff0019169055604051600181527f7f26b83ff96e1f2b6a682f133852f6798a09c465da95921460cefb38474024989060200160405180910390a150565b60008060fd8381548110612f9b57612f9b61601b565b6000918252602090912060408051610200810190915260149092020180546001600160a01b0380821660e08501908152600160a01b830460ff16610100860152600160a81b90920461ffff1661012085015260018301541661014084015260028201805484929184916101608501919061301490615f20565b80601f016020809104026020016040519081016040528092919081815260200182805461304090615f20565b801561308d5780601f106130625761010080835404028352916020019161308d565b820191906000526020600020905b81548152906001019060200180831161307057829003601f168201915b505050918352505060038201546020808301919091526004830154604080840191909152600584015460608085019190915260069094015460809384015293855283518084018552600787015481526008870154818301526009870154818601528582015283518083018552600a8701548152600b87015481830152600c87015481860152600d87015460ff161515818501528585015283518084018552600e8701548152600f8701548183015260108701548186015292850192909252601185018054845181850281018501909552808552949091019390918301828280156131a057602002820191906000526020600020905b81546001600160a01b03168152600190910190602001808311613182575b50505091835250506012820154602082015260139091015460ff16151560409091015290506127106131d46103e882616080565b825160a081015160e0909101516131eb9190616008565b6131f59190616031565b610e78919061605e565b6000610e78828461505a565b600082815261010160209081526040808320338452909152812080548311156132765760405162461bcd60e51b815260206004820152601a60248201527f416d6f756e7420626967676572207468616e206465706f7369740000000000006044820152606401610ee1565b61328362093a8042616008565b600382015561329562093a8042616008565b6132a2906203f480616008565b600482015560058101839055604051839085907fb3b9c925de3673837b40c6b4d4463a8f88dc821cd27e07f1ff6bf6abf96413a590600090a35060019392505050565b606060cf8054610bf090615f20565b60008060fd848154811061330a5761330a61601b565b6000918252602090912060149091020160018101549091506001600160a01b031633146133495760405162461bcd60e51b8152600401610ee190616093565b600a8101544211801561335f5750600b81015442105b80156133705750600d81015460ff16155b80156133805750600c8101548311155b801561338f5750600a81015415155b6133ab5760405162461bcd60e51b8152600401610ee1906160bb565b600d8101805460ff19166001179055600381015460058201546000916133d091616008565b9050838260000160030160008282546133e99190616080565b90915550506001820154825461340c916001600160a01b03918216911686614e4d565b506003820154600583015460009161342391616008565b90508082876000805160206163f583398151915260405160405180910390a450600195945050505050565b610103818154811061345f57600080fd5b6000918252602090912001546001600160a01b0316905081565b60008060fd838154811061348f5761348f61601b565b6000918252602090912060408051610200810190915260149092020180546001600160a01b0380821660e08501908152600160a01b830460ff16610100860152600160a81b90920461ffff1661012085015260018301541661014084015260028201805484929184916101608501919061350890615f20565b80601f016020809104026020016040519081016040528092919081815260200182805461353490615f20565b80156135815780601f1061355657610100808354040283529160200191613581565b820191906000526020600020905b81548152906001019060200180831161356457829003601f168201915b505050918352505060038201546020808301919091526004830154604080840191909152600584015460608085019190915260069094015460809384015293855283518084018552600787015481526008870154818301526009870154818601528582015283518083018552600a8701548152600b87015481830152600c87015481860152600d87015460ff161515818501528585015283518084018552600e8701548152600f87015481830152601087015481860152928501929092526011850180548451818502810185019095528085529490910193909183018282801561369457602002820191906000526020600020905b81546001600160a01b03168152600190910190602001808311613676575b50505091835250506012820154602082015260139091015460ff1615156040918201529051015161ffff169392505050565b600033816136d482866142bd565b9050838110156137345760405162461bcd60e51b815260206004820152602560248201527f45524332303a2064656372656173656420616c6c6f77616e63652062656c6f77604482015264207a65726f60d81b6064820152608401610ee1565b6137418286868403614699565b506001949350505050565b6000828152610101602090815260408083206001600160a01b03851684529091528120805491908190819061378187876116bd565b5060058301546003909301549699909850919650909350505050565b600033610c81818585614837565b60008060008060fd85815481106137c4576137c461601b565b6000918252602090912060408051610200810190915260149092020180546001600160a01b0380821660e08501908152600160a01b830460ff16610100860152600160a81b90920461ffff1661012085015260018301541661014084015260028201805484929184916101608501919061383d90615f20565b80601f016020809104026020016040519081016040528092919081815260200182805461386990615f20565b80156138b65780601f1061388b576101008083540402835291602001916138b6565b820191906000526020600020905b81548152906001019060200180831161389957829003601f168201915b505050918352505060038201546020808301919091526004830154604080840191909152600584015460608085019190915260069094015460809384015293855283518084018552600787015481526008870154818301526009870154818601528582015283518083018552600a8701548152600b87015481830152600c87015481860152600d87015460ff161515818501528585015283518084018552600e8701548152600f8701548183015260108701548186015292850192909252601185018054845181850281018501909552808552949091019390918301828280156139c957602002820191906000526020600020905b81546001600160a01b031681526001909101906020018083116139ab575b5050509183525050601282015460208083019190915260139092015460ff161515604091820152918201518051918101519201519097919650945092505050565b60008060008060fd8581548110613a2357613a2361601b565b6000918252602090912060408051610200810190915260149092020180546001600160a01b0380821660e08501908152600160a01b830460ff16610100860152600160a81b90920461ffff16610120850152600183015416610140840152600282018054849291849161016085019190613a9c90615f20565b80601f0160208091040260200160405190810160405280929190818152602001828054613ac890615f20565b8015613b155780601f10613aea57610100808354040283529160200191613b15565b820191906000526020600020905b815481529060010190602001808311613af857829003601f168201915b505050918352505060038201546020808301919091526004830154604080840191909152600584015460608085019190915260069094015460809384015293855283518084018552600787015481526008870154818301526009870154818601528582015283518083018552600a8701548152600b87015481830152600c87015481860152600d87015460ff161515818501528585015283518084018552600e8701548152600f870154818301526010870154818601529285019290925260118501805484518185028101850190955280855294909101939091830182828015613c2857602002820191906000526020600020905b81546001600160a01b03168152600190910190602001808311613c0a575b5050509183525050601282015460208083019190915260139092015460ff161515604091820152918101518051918101519201519097919650945092505050565b6034546001600160a01b03163314613cd25760405162461bcd60e51b815260206004820152602660248201527f6f6e6c792070656e64696e67206f776e65722063616e2061636365707420747260448201526530b739b332b960d11b6064820152608401610ee1565b603454613ce7906001600160a01b03166150f5565b565b60008060fd8381548110613cff57613cff61601b565b6000918252602090912060149091020160018101549091506001600160a01b0316331480613d3757506033546001600160a01b031633145b613d535760405162461bcd60e51b8152600401610ee190616093565b60138101805460ff1916905542601290910155506001919050565b600060fd8581548110613d8357613d8361601b565b60009182526020909120601490910201601381015490915060ff16158015613dad57506004810154155b613df95760405162461bcd60e51b815260206004820152601860248201527f506f6f6c20616c726561647920696e697469616c697a656400000000000000006044820152606401610ee1565b60008361ffff16118015613e1357506127108361ffff1611155b613e525760405162461bcd60e51b815260206004820152601060248201526f415059206f7574206f662072616e676560801b6044820152606401610ee1565b8054613e6990600160a01b900460ff16600a61634b565b613e74906064616031565b8410158015613ea657508054613e9590600160a01b900460ff16600a61634b565b613ea29062989680616031565b8411155b613eea5760405162461bcd60e51b8152602060048201526015602482015274506f6f6c20636170206f7574206f662072616e676560581b6044820152606401610ee1565b60018101546001600160a01b03163314613f165760405162461bcd60e51b8152600401610ee190616093565b60006301e1338061271062093a80613f3261ffff881689616031565b613f3c9190616031565b613f46919061605e565b613f50919061605e565b90506000612710613f636103e884616031565b613f6d919061605e565b9050613f913330613f7e8588616008565b86546001600160a01b0316929190614eb3565b5083836000016003016000828254613fa99190616008565b909155505060048301869055825461ffff60a81b1916600160a81b61ffff87160217835560138301805460ff191660011790556008830182905560078301829055613ff48183616080565b600990930192909255505050505050565b600061400f6149e2565b6001600160a01b0383166000908152610100602090815260408083205460ff90925282205461403e9190616008565b6001600160a01b038516600081815260ff60209081526040808320839055610100909152812055909150613741908483614e4d565b60008060fd83815481106140895761408961601b565b6000918252602090912060408051610200810190915260149092020180546001600160a01b0380821660e08501908152600160a01b830460ff16610100860152600160a81b90920461ffff1661012085015260018301541661014084015260028201805484929184916101608501919061410290615f20565b80601f016020809104026020016040519081016040528092919081815260200182805461412e90615f20565b801561417b5780601f106141505761010080835404028352916020019161417b565b820191906000526020600020905b81548152906001019060200180831161415e57829003601f168201915b505050918352505060038201546020808301919091526004830154604080840191909152600584015460608085019190915260069094015460809384015293855283518084018552600787015481526008870154818301526009870154818601528582015283518083018552600a8701548152600b87015481830152600c87015481860152600d87015460ff161515818501528585015283518084018552600e8701548152600f87015481830152601087015481860152928501929092526011850180548451818502810185019095528085529490910193909183018282801561428e57602002820191906000526020600020905b81546001600160a01b03168152600190910190602001808311614270575b50505091835250506012820154602082015260139091015460ff1615156040909101525160e001519392505050565b6001600160a01b03918216600090815260cc6020908152604080832093909416825291909152205490565b60006142f26149e2565b6001600160a01b0383166000908152610102602052604090205460ff1615158215146143585760405162461bcd60e51b81526020600482015260156024820152741dda1a5d195b1a5cdd08185b1c9958591e481cd95d605a1b6044820152606401610ee1565b6001600160a01b03831660008181526101026020526040808220805460ff191686151590811790915590519092917f99795d51e5a8804307721456a7a9c2f0d7421f719d46a46d36e91fee7c85aa7691a381156144005761010380546001810182556000919091527f02c297ab74aad0aede3a1895c857b1f2c71e6a203feb727bec95ac752998cb780180546001600160a01b0319166001600160a01b038516179055614514565b6101035460005b8181101561451157600061010382815481106144255761442561601b565b6000918252602090912001546001600160a01b0390811691508616810361450057610103614454600185616080565b815481106144645761446461601b565b60009182526020909120015461010380546001600160a01b0390921691849081106144915761449161601b565b9060005260206000200160006101000a8154816001600160a01b0302191690836001600160a01b031602179055506101038054806144d1576144d1616104565b600082815260209020810160001990810180546001600160a01b03191690550190555060019250610bdb915050565b5061450a8161635a565b9050614407565b50505b50600192915050565b60006145276149e2565b6101035460005b81811015610c81576000610103828154811061454c5761454c61601b565b60009182526020808320909101546001600160a01b0316808352610100825260408084205460ff9093528320549093506145869190616008565b9050806000036145975750506145cd565b6001600160a01b038216600081815260ff602090815260408083208390556101009091528120556145c9908783614e4d565b5050505b6145d68161635a565b905061452e565b6145e56149e2565b6001600160a01b03811661464a5760405162461bcd60e51b815260206004820152602660248201527f4f776e61626c653a206e6577206f776e657220697320746865207a65726f206160448201526564647265737360d01b6064820152608401610ee1565b603480546001600160a01b0319166001600160a01b0392909216919091179055565b614674615001565b61468081336001614ceb565b610f7e600160ca55565b6001600160a01b03163b151590565b6001600160a01b0383166146fb5760405162461bcd60e51b8152602060048201526024808201527f45524332303a20617070726f76652066726f6d20746865207a65726f206164646044820152637265737360e01b6064820152608401610ee1565b6001600160a01b03821661475c5760405162461bcd60e51b815260206004820152602260248201527f45524332303a20617070726f766520746f20746865207a65726f206164647265604482015261737360f01b6064820152608401610ee1565b6001600160a01b03838116600081815260cc602090815260408083209487168084529482529182902085905590518481527f8c5be1e5ebec7d5bd14f71427d1e84f3dd0314c0f7b2291e5b200ac8c7c3b925910160405180910390a3505050565b60006147c984846142bd565b9050600019811461483157818110156148245760405162461bcd60e51b815260206004820152601d60248201527f45524332303a20696e73756666696369656e7420616c6c6f77616e63650000006044820152606401610ee1565b6148318484848403614699565b50505050565b6001600160a01b03831661489b5760405162461bcd60e51b815260206004820152602560248201527f45524332303a207472616e736665722066726f6d20746865207a65726f206164604482015264647265737360d81b6064820152608401610ee1565b6001600160a01b0382166148fd5760405162461bcd60e51b815260206004820152602360248201527f45524332303a207472616e7366657220746f20746865207a65726f206164647260448201526265737360e81b6064820152608401610ee1565b6001600160a01b038316600090815260cb6020526040902054818110156149755760405162461bcd60e51b815260206004820152602660248201527f45524332303a207472616e7366657220616d6f756e7420657863656564732062604482015265616c616e636560d01b6064820152608401610ee1565b6001600160a01b03808516600081815260cb602052604080822086860390559286168082529083902080548601905591517fddf252ad1be2c89b69c2b068fc378daa952ba7f163c4a11628f55a4df523b3ef906149d59086815260200190565b60405180910390a3614831565b6033546001600160a01b03163314613ce75760405162461bcd60e51b815260206004820181905260248201527f4f776e61626c653a2063616c6c6572206973206e6f7420746865206f776e65726044820152606401610ee1565b600060fd8381548110614a5157614a5161601b565b9060005260206000209060140201905060008282600701600101548360070160000154614a7e9190616080565b614a889190616008565b60018301548354919250614aaa916001600160a01b0390811691163084614eb3565b506000612710614abc6103e884616031565b614ac6919061605e565b905081836007016001016000828254614adf9190616008565b909155505082546001600160a01b03166000908152610100602052604081208054839290614b0e908490616008565b9091555060009050614b208284616080565b905080846007016002016000828254614b399190616008565b9091555050604051839087907fadb049ad2d09be3db90459a16aef1ad0a4d89e8fdcc1ade9429d6cc55abbcd2b90600090a3505050505050565b610f7e6149e2565b7f4910fdfa16fed3260ed0e7147f7cc6da11a60208b5b9406d12a635614ffd91435460ff1615614bb357614bae83615152565b505050565b826001600160a01b03166352d1902d6040518163ffffffff1660e01b8152600401602060405180830381865afa925050508015614c0d575060408051601f3d908101601f19168201909252614c0a91810190616373565b60015b614c705760405162461bcd60e51b815260206004820152602e60248201527f45524331393637557067726164653a206e657720696d706c656d656e7461746960448201526d6f6e206973206e6f74205555505360901b6064820152608401610ee1565b6000805160206164158339815191528114614cdf5760405162461bcd60e51b815260206004820152602960248201527f45524331393637557067726164653a20756e737570706f727465642070726f786044820152681a58589b195555525160ba1b6064820152608401610ee1565b50614bae8383836151ee565b600060fd8481548110614d0057614d0061601b565b60009182526020808320878452610101825260408085206001600160a01b03891686529092529220805460149092029092019250158015614d4357506001810154155b15614d55574260029091015550505050565b6000806000614d6488886116bd565b92509250925085614db25780846001016000828254614d839190616008565b90915550506012850154600003614d9a5742614da0565b84601201545b84600201819055505050505050505050565b6008850154831115614dc857614dc88884614a3c565b8215614e435760006001850181905560128601549003614de85742614dee565b84601201545b6002850155600885018054849190600090614e0a908490616080565b9091555050600985018054839190600090614e26908490616080565b90915550508454614e41906001600160a01b03168884614e4d565b505b5050505050505050565b6040516001600160a01b038316602482015260448101829052600090610c8190859063a9059cbb60e01b906064015b60408051601f198184030181529190526020810180516001600160e01b03166001600160e01b031990931692909217909152615213565b6040516001600160a01b03808516602483015283166044820152606481018290526000906137419086906323b872dd60e01b90608401614e7c565b60008060fd8381548110614f0457614f0461601b565b6000918252602090912060046014909202010154614f2a670de0b6b3a764000086616031565b614f34919061605e565b9050614f41816005616031565b91509250929050565b6000614f60670de0b6b3a764000060001961605e565b821115614f83576040516322630c4560e01b815260048101839052602401610ee1565b670de0b6b3a76400008202610bdb565b6000610bdb6714057b7ef767814f670de0b6b3a7640000614fb9614fb6866152e5565b90565b0281614fc757614fc7616048565b0490565b6000610e78614fb68385616080565b6000610e78614fb68484615418565b6000610e78614fb684670de0b6b3a7640000856154cc565b600260ca54036150535760405162461bcd60e51b815260206004820152601f60248201527f5265656e7472616e637947756172643a207265656e7472616e742063616c6c006044820152606401610ee1565b600260ca55565b6000610e788284616080565b600080670de0b6b3a764000061508484670928ca80cfc20000616031565b61508e919061605e565b6150a09067016345785d8a0000616008565b905060006150bd826ec097ce7bc90715b34b9f100000000061605e565b90505050919050565b600054610100900460ff166150ed5760405162461bcd60e51b8152600401610ee19061638c565b613ce76155a0565b603380546001600160a01b038381166001600160a01b03198084168217909455603480549094169093556040519116919082907f8be0079c531659141344cd1fd0a4f28419497f9722a3daafe3b4186f6b6457e090600090a35050565b6001600160a01b0381163b6151bf5760405162461bcd60e51b815260206004820152602d60248201527f455243313936373a206e657720696d706c656d656e746174696f6e206973206e60448201526c1bdd08184818dbdb9d1c9858dd609a1b6064820152608401610ee1565b60008051602061641583398151915280546001600160a01b0319166001600160a01b0392909216919091179055565b6151f7836155d0565b6000825111806152045750805b15614bae576148318383615610565b6000615268826040518060400160405280602081526020017f5361666545524332303a206c6f772d6c6576656c2063616c6c206661696c6564815250856001600160a01b03166157049092919063ffffffff16565b805190915015614bae578080602001905181019061528691906163d7565b614bae5760405162461bcd60e51b815260206004820152602a60248201527f5361666545524332303a204552433230206f7065726174696f6e20646964206e6044820152691bdd081cdd58d8d9595960b21b6064820152608401610ee1565b600081670de0b6b3a764000081101561531457604051633621413760e21b815260048101849052602401610ee1565b60006153a0670de0b6b3a7640000830460016fffffffffffffffffffffffffffffffff821160071b91821c67ffffffffffffffff811160061b90811c63ffffffff811160051b90811c61ffff811160041b90811c60ff8111600390811b91821c600f811160021b90811c918211871b91821c969096119490961792909217171791909117919091171790565b9050670de0b6b3a7640000810282821c670de0b6b3a763ffff1981016153c95750949350505050565b671bc16d674ec800006706f05b59d3b200005b801561540c57670de0b6b3a7640000838002049250818310615404579283019260019290921c915b60011c6153dc565b50919695505050505050565b60008080600019848609848602925082811083820303915050670de0b6b3a764000081106154635760405163090638d560e41b81526004810186905260248101859052604401610ee1565b6000670de0b6b3a764000085870990508160000361548f575050670de0b6b3a764000090049050610bdb565b620400008184030492109003600160ee1b02177faccb18165bd6fe31ae1cf318dc5b51eee0e1ba569b88cd74c1773b91fac1066902905092915050565b6000808060001985870985870292508281108382030391505080600003615506578382816154fc576154fc616048565b0492505050610e78565b838110615537576040516307639aaf60e41b8152600481018790526024810186905260448101859052606401610ee1565b60008486880960026001871981018816978890046003810283188082028403028082028403028082028403028082028403028082028403029081029092039091026000889003889004909101858311909403939093029303949094049190911702949350505050565b600054610100900460ff166155c75760405162461bcd60e51b8152600401610ee19061638c565b613ce7336150f5565b6155d981615152565b6040516001600160a01b038216907fbc7cd75a20ee27fd9adebab32041f755214dbc6bffa90cc0225b39da2e5c2d3b90600090a250565b60606001600160a01b0383163b6156785760405162461bcd60e51b815260206004820152602660248201527f416464726573733a2064656c65676174652063616c6c20746f206e6f6e2d636f6044820152651b9d1c9858dd60d21b6064820152608401610ee1565b600080846001600160a01b031684604051615693919061611a565b600060405180830381855af49150503d80600081146156ce576040519150601f19603f3d011682016040523d82523d6000602084013e6156d3565b606091505b50915091506156fb828260405180606001604052806027815260200161643560279139615713565b95945050505050565b6060612aea848460008561572c565b60608315615722575081610e78565b610e7883836157fc565b60608247101561578d5760405162461bcd60e51b815260206004820152602660248201527f416464726573733a20696e73756666696369656e742062616c616e636520666f6044820152651c8818d85b1b60d21b6064820152608401610ee1565b600080866001600160a01b031685876040516157a9919061611a565b60006040518083038185875af1925050503d80600081146157e6576040519150601f19603f3d011682016040523d82523d6000602084013e6157eb565b606091505b5091509150612e6a87838387615826565b81511561580c5781518083602001fd5b8060405162461bcd60e51b8152600401610ee19190615abe565b6060831561589557825160000361588e576001600160a01b0385163b61588e5760405162461bcd60e51b815260206004820152601d60248201527f416464726573733a2063616c6c20746f206e6f6e2d636f6e74726163740000006044820152606401610ee1565b5081612aea565b612aea83836157fc565b5080546000825590600052602060002090810190610f7e9190615a18565b604080516102008101909152600060e08201818152610100830182905261012083018290526101408301829052606061016084015261018083018290526101a083018290526101c083018290526101e08301919091528190815260200161593e60405180606001604052806000815260200160008152602001600081525090565b815260200161597060405180608001604052806000815260200160008152602001600081526020016000151581525090565b815260200161599960405180606001604052806000815260200160008152602001600081525090565b815260606020820181905260006040830181905291015290565b828054828255906000526020600020908101928215615a08579160200282015b82811115615a0857825182546001600160a01b0319166001600160a01b039091161782556020909201916001909101906159d3565b50615a14929150615a18565b5090565b5b80821115615a145760008155600101615a19565b80356001600160a01b0381168114610e9457600080fd5b60008060408385031215615a5757600080fd5b615a6083615a2d565b946020939093013593505050565b60005b83811015615a89578181015183820152602001615a71565b50506000910152565b60008151808452615aaa816020860160208601615a6e565b601f01601f19169290920160200192915050565b602081526000610e786020830184615a92565b600060208284031215615ae357600080fd5b5035919050565b60006101a0808352615b078184018a516001600160a01b03169052565b50602088015160ff166101c0830152604088015161ffff166101e083015260608801516001600160a01b03166102008301526080880151610120610220840152615b556102c0840182615a92565b905060a089015161024084015260c089015161026084015260e0890151610280840152610100808a01516102a0850152819250615ba9602085018a8051825260208082015190830152604090810151910152565b87516080850152602088015160a0850152604088015160c08501526060880151151560e0850152615bf0818501888051825260208082015190830152604090810151910152565b505083610160830152612e6a61018083018415159052565b600080600060608486031215615c1d57600080fd5b615c2684615a2d565b9250615c3460208501615a2d565b9150604084013590509250925092565b600060208284031215615c5657600080fd5b610e7882615a2d565b600080600060608486031215615c7457600080fd5b83359250615c3460208501615a2d565b60008060408385031215615c9757600080fd5b82359150615ca760208401615a2d565b90509250929050565b634e487b7160e01b600052604160045260246000fd5b600067ffffffffffffffff80841115615ce157615ce1615cb0565b604051601f8501601f19908116603f01168101908282118183101715615d0957615d09615cb0565b81604052809350858152868686011115615d2257600080fd5b858560208301376000602087830101525050509392505050565b60008060408385031215615d4f57600080fd5b615d5883615a2d565b9150602083013567ffffffffffffffff811115615d7457600080fd5b8301601f81018513615d8557600080fd5b615d9485823560208401615cc6565b9150509250929050565b60008060408385031215615db157600080fd5b50508035926020909101359150565b8015158114610f7e57600080fd5b600080600060608486031215615de357600080fd5b83359250602084013591506040840135615dfc81615dc0565b809150509250925092565b600080600060608486031215615e1c57600080fd5b615e2584615a2d565b9250615e3360208501615a2d565b9150604084013567ffffffffffffffff811115615e4f57600080fd5b8401601f81018613615e6057600080fd5b615e6f86823560208401615cc6565b9150509250925092565b60008060008060808587031215615e8f57600080fd5b8435935060208501359250604085013561ffff81168114615eaf57600080fd5b9396929550929360600135925050565b60008060408385031215615ed257600080fd5b615edb83615a2d565b9150615ca760208401615a2d565b60008060408385031215615efc57600080fd5b615f0583615a2d565b91506020830135615f1581615dc0565b809150509250929050565b600181811c90821680615f3457607f821691505b602082108103615f5457634e487b7160e01b600052602260045260246000fd5b50919050565b6020808252602c908201527f46756e6374696f6e206d7573742062652063616c6c6564207468726f7567682060408201526b19195b1959d85d1958d85b1b60a21b606082015260800190565b6020808252602c908201527f46756e6374696f6e206d7573742062652063616c6c6564207468726f7567682060408201526b6163746976652070726f787960a01b606082015260800190565b634e487b7160e01b600052601160045260246000fd5b80820180821115610bdb57610bdb615ff2565b634e487b7160e01b600052603260045260246000fd5b8082028115828204841417610bdb57610bdb615ff2565b634e487b7160e01b600052601260045260246000fd5b60008261607b57634e487b7160e01b600052601260045260246000fd5b500490565b81810381811115610bdb57610bdb615ff2565b6020808252600e908201526d139bdd08185d5d1a1bdc9a5e995960921b604082015260600190565b60208082526029908201527f54696d656c6f636b206e6f7420736574206f72206e6f7420636f6d706c6574656040820152686420696e2074696d6560b81b606082015260800190565b634e487b7160e01b600052603160045260246000fd5b6000825161612c818460208701615a6e565b9190910192915050565b60006020828403121561614857600080fd5b815160ff81168114610e7857600080fd5b601f821115614bae57600081815260208120601f850160051c810160208610156161805750805b601f850160051c820191505b8181101561619f5782815560010161618c565b505050505050565b815167ffffffffffffffff8111156161c1576161c1615cb0565b6161d5816161cf8454615f20565b84616159565b602080601f83116001811461620a57600084156161f25750858301515b600019600386901b1c1916600185901b17855561619f565b600085815260208120601f198616915b828110156162395788860151825594840194600190910190840161621a565b50858210156162575787850151600019600388901b60f8161c191681555b5050505050600190811b01905550565b600181815b808511156162a257816000190482111561628857616288615ff2565b8085161561629557918102915b93841c939080029061626c565b509250929050565b6000826162b957506001610bdb565b816162c657506000610bdb565b81600181146162dc57600281146162e657616302565b6001915050610bdb565b60ff8411156162f7576162f7615ff2565b50506001821b610bdb565b5060208310610133831016604e8410600b8410161715616325575081810a610bdb565b61632f8383616267565b806000190482111561634357616343615ff2565b029392505050565b6000610e7860ff8416836162aa565b60006001820161636c5761636c615ff2565b5060010190565b60006020828403121561638557600080fd5b5051919050565b6020808252602b908201527f496e697469616c697a61626c653a20636f6e7472616374206973206e6f74206960408201526a6e697469616c697a696e6760a81b606082015260800190565b6000602082840312156163e957600080fd5b8151610e7881615dc056fea3ea4fb8dee4d414198cb197af6eae4fe483c1a0b849dc50e53b9bf1a60e2166360894a13ba1a3210667c828492db98dca3e2076cc3735a920a3ca505d382bbc416464726573733a206c6f772d6c6576656c2064656c65676174652063616c6c206661696c6564a2646970667358221220aa6c387bcef60bc7cc303c1e102d48518537d5d1fbaebd40947a3e4c0fc3305e64736f6c63430008110033496e697469616c697a61626c653a20636f6e7472616374206973206e6f742069",
    "linkReferences": {}
  },
  "methodIdentifiers": {
    "acceptOwnershipTransfer()": "b842e87f",
    "activeTokens(uint256)": "9f224f35",
    "addNewBountyPool(address,address,string)": "804fd590",
    "allowance(address,address)": "dd62ed3e",
    "approve(address,uint256)": "095ea7b3",
    "balanceOf(address)": "70a08231",
    "balanceOf(address,uint256)": "00fdd58e",
    "billPremium(uint256)": "2dbe051e",
    "calculateEffectiveAPY(uint256,uint256)": "5c46f7b1",
    "claimPremium(uint256)": "f47ec3be",
    "collectAllSaloonProfits(address)": "ecd7fbed",
    "collectSaloonProfits(address,address)": "cf9564b9",
    "decimals()": "313ce567",
    "decreaseAllowance(address,uint256)": "a457c2d7",
    "getCurrentAPY(uint256)": "7fbf3853",
    "getMultiplier(uint256,uint256)": "8dbb1e3a",
    "increaseAllowance(address,uint256)": "39509351",
    "initialize()": "8129fc1c",
    "makeProjectDeposit(uint256,uint256)": "57a86d3a",
    "name()": "06fdde03",
    "owner()": "8da5cb5b",
    "payBounty(uint256,address,uint256)": "3ac6ad7b",
    "pendingToken(uint256,address)": "48e43af4",
    "poolInfo(uint256)": "1526fe27",
    "poolLength()": "081e3eda",
    "projectDepositWithdrawal(uint256,uint256)": "983c1ce0",
    "proxiableUUID()": "52d1902d",
    "saloonBountyProfit(address)": "e45abd0f",
    "saloonPremiumProfit(address)": "ca006148",
    "scheduleProjectDepositWithdrawal(uint256,uint256)": "5669cbef",
    "scheduleUnstake(uint256,uint256)": "91635b4e",
    "setAPYandPoolCapAndDeposit(uint256,uint256,uint16,uint256)": "cee6b069",
    "stake(uint256,address,uint256)": "6e9c931c",
    "stakerBalance(address,uint256)": "70882b47",
    "symbol()": "95d89b41",
    "tokenWhitelist(address)": "753d7563",
    "totalSupply()": "18160ddd",
    "transfer(address,uint256)": "a9059cbb",
    "transferFrom(address,address,uint256)": "23b872dd",
    "transferOwnership(address)": "f2fde38b",
    "unstake(uint256,uint256,bool)": "79b91d69",
    "updateTokenWhitelist(address,bool)": "e5e97c65",
    "upgradeTo(address)": "3659cfe6",
    "upgradeToAndCall(address,bytes)": "4f1ef286",
    "userInfo(uint256,address)": "93f1a40b",
    "viewBountyBalance(uint256)": "6ac6d812",
    "viewBountyInfo(uint256)": "40ef2868",
    "viewHackerPayout(uint256)": "861e5f66",
    "viewPoolAPY(uint256)": "a27f9213",
    "viewPoolCap(uint256)": "39679ff4",
    "viewPoolPremiumInfo(uint256)": "b1a2d16f",
    "viewPoolTimelockInfo(uint256)": "ac30b856",
    "viewSaloonProfitBalance(address)": "718c7eef",
    "viewTotalStaked(uint256)": "dbdd6957",
    "viewUserInfo(uint256,address)": "a754ecb0",
    "viewUserUnclaimed(uint256,address)": "5e3b748b",
    "windDownBounty(uint256)": "bb7019c1"
  },
  "id": 38
}