{
  "abi": [
    {
      "inputs": [
        {
          "internalType": "UD60x18",
          "name": "x",
          "type": "uint256"
        }
      ],
      "name": "PRBMathUD60x18__LogInputTooSmall",
      "type": "error"
    },
    {
      "inputs": [
        {
          "internalType": "uint256",
          "name": "x",
          "type": "uint256"
        }
      ],
      "name": "PRBMathUD60x18__ToUD60x18Overflow",
      "type": "error"
    },
    {
      "inputs": [
        {
          "internalType": "uint256",
          "name": "x",
          "type": "uint256"
        },
        {
          "internalType": "uint256",
          "name": "y",
          "type": "uint256"
        }
      ],
      "name": "PRBMath__MulDiv18Overflow",
      "type": "error"
    },
    {
      "inputs": [
        {
          "internalType": "uint256",
          "name": "x",
          "type": "uint256"
        },
        {
          "internalType": "uint256",
          "name": "y",
          "type": "uint256"
        },
        {
          "internalType": "uint256",
          "name": "denominator",
          "type": "uint256"
        }
      ],
      "name": "PRBMath__MulDivOverflow",
      "type": "error"
    },
    {
      "anonymous": false,
      "inputs": [
        {
          "indexed": false,
          "internalType": "address",
          "name": "previousAdmin",
          "type": "address"
        },
        {
          "indexed": false,
          "internalType": "address",
          "name": "newAdmin",
          "type": "address"
        }
      ],
      "name": "AdminChanged",
      "type": "event"
    },
    {
      "anonymous": false,
      "inputs": [
        {
          "indexed": true,
          "internalType": "address",
          "name": "owner",
          "type": "address"
        },
        {
          "indexed": true,
          "internalType": "address",
          "name": "spender",
          "type": "address"
        },
        {
          "indexed": false,
          "internalType": "uint256",
          "name": "value",
          "type": "uint256"
        }
      ],
      "name": "Approval",
      "type": "event"
    },
    {
      "anonymous": false,
      "inputs": [
        {
          "indexed": true,
          "internalType": "address",
          "name": "beacon",
          "type": "address"
        }
      ],
      "name": "BeaconUpgraded",
      "type": "event"
    },
    {
      "anonymous": false,
      "inputs": [
        {
          "indexed": true,
          "internalType": "uint256",
          "name": "pid",
          "type": "uint256"
        },
        {
          "indexed": true,
          "internalType": "uint256",
          "name": "oldAmount",
          "type": "uint256"
        },
        {
          "indexed": true,
          "internalType": "uint256",
          "name": "newAmount",
          "type": "uint256"
        }
      ],
      "name": "BountyBalanceChanged",
      "type": "event"
    },
    {
      "anonymous": false,
      "inputs": [
        {
          "indexed": true,
          "internalType": "uint256",
          "name": "time",
          "type": "uint256"
        },
        {
          "indexed": true,
          "internalType": "address",
          "name": "hunter",
          "type": "address"
        },
        {
          "indexed": true,
          "internalType": "address",
          "name": "token",
          "type": "address"
        },
        {
          "indexed": false,
          "internalType": "uint256",
          "name": "amount",
          "type": "uint256"
        }
      ],
      "name": "BountyPaid",
      "type": "event"
    },
    {
      "anonymous": false,
      "inputs": [
        {
          "indexed": false,
          "internalType": "uint8",
          "name": "version",
          "type": "uint8"
        }
      ],
      "name": "Initialized",
      "type": "event"
    },
    {
      "anonymous": false,
      "inputs": [
        {
          "indexed": true,
          "internalType": "uint256",
          "name": "pid",
          "type": "uint256"
        },
        {
          "indexed": true,
          "internalType": "address",
          "name": "token",
          "type": "address"
        },
        {
          "indexed": true,
          "internalType": "uint256",
          "name": "tokenDecimals",
          "type": "uint256"
        }
      ],
      "name": "NewBountyDeployed",
      "type": "event"
    },
    {
      "anonymous": false,
      "inputs": [
        {
          "indexed": true,
          "internalType": "address",
          "name": "previousOwner",
          "type": "address"
        },
        {
          "indexed": true,
          "internalType": "address",
          "name": "newOwner",
          "type": "address"
        }
      ],
      "name": "OwnershipTransferred",
      "type": "event"
    },
    {
      "anonymous": false,
      "inputs": [
        {
          "indexed": true,
          "internalType": "uint256",
          "name": "pid",
          "type": "uint256"
        },
        {
          "indexed": true,
          "internalType": "uint256",
          "name": "amount",
          "type": "uint256"
        }
      ],
      "name": "PremiumBilled",
      "type": "event"
    },
    {
      "anonymous": false,
      "inputs": [
        {
          "indexed": true,
          "internalType": "address",
          "name": "user",
          "type": "address"
        },
        {
          "indexed": true,
          "internalType": "uint256",
          "name": "pid",
          "type": "uint256"
        },
        {
          "indexed": false,
          "internalType": "uint256",
          "name": "amount",
          "type": "uint256"
        }
      ],
      "name": "Staked",
      "type": "event"
    },
    {
      "anonymous": false,
      "inputs": [
        {
          "indexed": true,
          "internalType": "address",
          "name": "from",
          "type": "address"
        },
        {
          "indexed": true,
          "internalType": "address",
          "name": "to",
          "type": "address"
        },
        {
          "indexed": false,
          "internalType": "uint256",
          "name": "value",
          "type": "uint256"
        }
      ],
      "name": "Transfer",
      "type": "event"
    },
    {
      "anonymous": false,
      "inputs": [
        {
          "indexed": true,
          "internalType": "address",
          "name": "user",
          "type": "address"
        },
        {
          "indexed": true,
          "internalType": "uint256",
          "name": "pid",
          "type": "uint256"
        },
        {
          "indexed": false,
          "internalType": "uint256",
          "name": "amount",
          "type": "uint256"
        }
      ],
      "name": "Unstaked",
      "type": "event"
    },
    {
      "anonymous": false,
      "inputs": [
        {
          "indexed": true,
          "internalType": "address",
          "name": "implementation",
          "type": "address"
        }
      ],
      "name": "Upgraded",
      "type": "event"
    },
    {
      "anonymous": false,
      "inputs": [
        {
          "indexed": true,
          "internalType": "uint256",
          "name": "pid",
          "type": "uint256"
        },
        {
          "indexed": true,
          "internalType": "uint256",
          "name": "amount",
          "type": "uint256"
        }
      ],
      "name": "WithdrawalOrUnstakeScheduled",
      "type": "event"
    },
    {
      "anonymous": false,
      "inputs": [
        {
          "indexed": true,
          "internalType": "address",
          "name": "token",
          "type": "address"
        },
        {
          "indexed": true,
          "internalType": "bool",
          "name": "whitelisted",
          "type": "bool"
        }
      ],
      "name": "tokenWhitelistUpdated",
      "type": "event"
    },
    {
      "inputs": [],
      "name": "acceptOwnershipTransfer",
      "outputs": [],
      "stateMutability": "nonpayable",
      "type": "function"
    },
    {
      "inputs": [
        {
          "internalType": "uint256",
          "name": "",
          "type": "uint256"
        }
      ],
      "name": "activeStrategies",
      "outputs": [
        {
          "internalType": "bytes32",
          "name": "",
          "type": "bytes32"
        }
      ],
      "stateMutability": "view",
      "type": "function"
    },
    {
      "inputs": [
        {
          "internalType": "uint256",
          "name": "",
          "type": "uint256"
        }
      ],
      "name": "activeTokens",
      "outputs": [
        {
          "internalType": "address",
          "name": "",
          "type": "address"
        }
      ],
      "stateMutability": "view",
      "type": "function"
    },
    {
      "inputs": [
        {
          "internalType": "address",
          "name": "_token",
          "type": "address"
        },
        {
          "internalType": "address",
          "name": "_projectWallet",
          "type": "address"
        },
        {
          "internalType": "string",
          "name": "_projectName",
          "type": "string"
        }
      ],
      "name": "addNewBountyPool",
      "outputs": [
        {
          "internalType": "uint256",
          "name": "",
          "type": "uint256"
        }
      ],
      "stateMutability": "nonpayable",
      "type": "function"
    },
    {
      "inputs": [
        {
          "internalType": "address",
          "name": "owner",
          "type": "address"
        },
        {
          "internalType": "address",
          "name": "spender",
          "type": "address"
        }
      ],
      "name": "allowance",
      "outputs": [
        {
          "internalType": "uint256",
          "name": "",
          "type": "uint256"
        }
      ],
      "stateMutability": "view",
      "type": "function"
    },
    {
      "inputs": [
        {
          "internalType": "address",
          "name": "spender",
          "type": "address"
        },
        {
          "internalType": "uint256",
          "name": "amount",
          "type": "uint256"
        }
      ],
      "name": "approve",
      "outputs": [
        {
          "internalType": "bool",
          "name": "",
          "type": "bool"
        }
      ],
      "stateMutability": "nonpayable",
      "type": "function"
    },
    {
      "inputs": [
        {
          "internalType": "address",
          "name": "_staker",
          "type": "address"
        },
        {
          "internalType": "uint256",
          "name": "_poolID",
          "type": "uint256"
        }
      ],
      "name": "balanceOf",
      "outputs": [
        {
          "internalType": "uint256",
          "name": "",
          "type": "uint256"
        }
      ],
      "stateMutability": "view",
      "type": "function"
    },
    {
      "inputs": [
        {
          "internalType": "address",
          "name": "account",
          "type": "address"
        }
      ],
      "name": "balanceOf",
      "outputs": [
        {
          "internalType": "uint256",
          "name": "",
          "type": "uint256"
        }
      ],
      "stateMutability": "view",
      "type": "function"
    },
    {
      "inputs": [
        {
          "internalType": "uint256",
          "name": "_pid",
          "type": "uint256"
        }
      ],
      "name": "billPremium",
      "outputs": [
        {
          "internalType": "bool",
          "name": "",
          "type": "bool"
        }
      ],
      "stateMutability": "nonpayable",
      "type": "function"
    },
    {
      "inputs": [
        {
          "internalType": "uint256",
          "name": "_poolCap",
          "type": "uint256"
        },
        {
          "internalType": "uint256",
          "name": "_apy",
          "type": "uint256"
        }
      ],
      "name": "calcRequiredPremiumBalancePerPeriod",
      "outputs": [
        {
          "internalType": "uint256",
          "name": "requiredPremiumBalance",
          "type": "uint256"
        }
      ],
      "stateMutability": "pure",
      "type": "function"
    },
    {
      "inputs": [
        {
          "internalType": "uint256",
          "name": "_stake",
          "type": "uint256"
        },
        {
          "internalType": "uint256",
          "name": "_poolID",
          "type": "uint256"
        }
      ],
      "name": "calculateEffectiveAPY",
      "outputs": [
        {
          "internalType": "uint256",
          "name": "toBeMinted",
          "type": "uint256"
        }
      ],
      "stateMutability": "view",
      "type": "function"
    },
    {
      "inputs": [
        {
          "internalType": "uint256",
          "name": "_pid",
          "type": "uint256"
        }
      ],
      "name": "claimPremium",
      "outputs": [],
      "stateMutability": "nonpayable",
      "type": "function"
    },
    {
      "inputs": [
        {
          "internalType": "address",
          "name": "_saloonWallet",
          "type": "address"
        }
      ],
      "name": "collectAllSaloonProfits",
      "outputs": [
        {
          "internalType": "bool",
          "name": "",
          "type": "bool"
        }
      ],
      "stateMutability": "nonpayable",
      "type": "function"
    },
    {
      "inputs": [
        {
          "internalType": "address",
          "name": "_token",
          "type": "address"
        },
        {
          "internalType": "address",
          "name": "_saloonWallet",
          "type": "address"
        }
      ],
      "name": "collectSaloonProfits",
      "outputs": [
        {
          "internalType": "bool",
          "name": "",
          "type": "bool"
        }
      ],
      "stateMutability": "nonpayable",
      "type": "function"
    },
    {
      "inputs": [],
      "name": "decimals",
      "outputs": [
        {
          "internalType": "uint8",
          "name": "",
          "type": "uint8"
        }
      ],
      "stateMutability": "view",
      "type": "function"
    },
    {
      "inputs": [
        {
          "internalType": "address",
          "name": "spender",
          "type": "address"
        },
        {
          "internalType": "uint256",
          "name": "subtractedValue",
          "type": "uint256"
        }
      ],
      "name": "decreaseAllowance",
      "outputs": [
        {
          "internalType": "bool",
          "name": "",
          "type": "bool"
        }
      ],
      "stateMutability": "nonpayable",
      "type": "function"
    },
    {
      "inputs": [
        {
          "internalType": "uint256",
          "name": "_poolID",
          "type": "uint256"
        }
      ],
      "name": "getCurrentAPY",
      "outputs": [
        {
          "internalType": "uint256",
          "name": "currentAPY",
          "type": "uint256"
        }
      ],
      "stateMutability": "nonpayable",
      "type": "function"
    },
    {
      "inputs": [
        {
          "internalType": "uint256",
          "name": "_from",
          "type": "uint256"
        },
        {
          "internalType": "uint256",
          "name": "_to",
          "type": "uint256"
        }
      ],
      "name": "getMultiplier",
      "outputs": [
        {
          "internalType": "uint256",
          "name": "",
          "type": "uint256"
        }
      ],
      "stateMutability": "pure",
      "type": "function"
    },
    {
      "inputs": [
        {
          "internalType": "address",
          "name": "spender",
          "type": "address"
        },
        {
          "internalType": "uint256",
          "name": "addedValue",
          "type": "uint256"
        }
      ],
      "name": "increaseAllowance",
      "outputs": [
        {
          "internalType": "bool",
          "name": "",
          "type": "bool"
        }
      ],
      "stateMutability": "nonpayable",
      "type": "function"
    },
    {
      "inputs": [
        {
          "internalType": "address",
          "name": "_strategyFactory",
          "type": "address"
        }
      ],
      "name": "initialize",
      "outputs": [],
      "stateMutability": "nonpayable",
      "type": "function"
    },
    {
      "inputs": [
        {
          "internalType": "uint256",
          "name": "_pid",
          "type": "uint256"
        },
        {
          "internalType": "uint256",
          "name": "_deposit",
          "type": "uint256"
        },
        {
          "internalType": "string",
          "name": "_strategyName",
          "type": "string"
        }
      ],
      "name": "makeProjectDeposit",
      "outputs": [],
      "stateMutability": "nonpayable",
      "type": "function"
    },
    {
      "inputs": [],
      "name": "name",
      "outputs": [
        {
          "internalType": "string",
          "name": "",
          "type": "string"
        }
      ],
      "stateMutability": "view",
      "type": "function"
    },
    {
      "inputs": [],
      "name": "owner",
      "outputs": [
        {
          "internalType": "address",
          "name": "",
          "type": "address"
        }
      ],
      "stateMutability": "view",
      "type": "function"
    },
    {
      "inputs": [
        {
          "internalType": "uint256",
          "name": "_pid",
          "type": "uint256"
        },
        {
          "internalType": "address",
          "name": "_hunter",
          "type": "address"
        },
        {
          "internalType": "uint256",
          "name": "_amount",
          "type": "uint256"
        }
      ],
      "name": "payBounty",
      "outputs": [
        {
          "internalType": "bool",
          "name": "",
          "type": "bool"
        }
      ],
      "stateMutability": "nonpayable",
      "type": "function"
    },
    {
      "inputs": [
        {
          "internalType": "uint256",
          "name": "_pid",
          "type": "uint256"
        },
        {
          "internalType": "address",
          "name": "_user",
          "type": "address"
        }
      ],
      "name": "pendingToken",
      "outputs": [
        {
          "internalType": "uint256",
          "name": "totalPending",
          "type": "uint256"
        },
        {
          "internalType": "uint256",
          "name": "actualPending",
          "type": "uint256"
        },
        {
          "internalType": "uint256",
          "name": "newPending",
          "type": "uint256"
        }
      ],
      "stateMutability": "view",
      "type": "function"
    },
    {
      "inputs": [
        {
          "internalType": "uint256",
          "name": "",
          "type": "uint256"
        },
        {
          "internalType": "bytes32",
          "name": "",
          "type": "bytes32"
        }
      ],
      "name": "pidStrategies",
      "outputs": [
        {
          "internalType": "address",
          "name": "",
          "type": "address"
        }
      ],
      "stateMutability": "view",
      "type": "function"
    },
    {
      "inputs": [
        {
          "internalType": "uint256",
          "name": "",
          "type": "uint256"
        }
      ],
      "name": "poolInfo",
      "outputs": [
        {
          "components": [
            {
              "internalType": "contract IERC20",
              "name": "token",
              "type": "address"
            },
            {
              "internalType": "uint8",
              "name": "tokenDecimals",
              "type": "uint8"
            },
            {
              "internalType": "uint16",
              "name": "apy",
              "type": "uint16"
            },
            {
              "internalType": "address",
              "name": "projectWallet",
              "type": "address"
            },
            {
              "internalType": "string",
              "name": "projectName",
              "type": "string"
            },
            {
              "internalType": "uint256",
              "name": "poolCap",
              "type": "uint256"
            },
            {
              "internalType": "uint256",
              "name": "totalStaked",
              "type": "uint256"
            },
            {
              "internalType": "uint256",
              "name": "multiplier",
              "type": "uint256"
            }
          ],
          "internalType": "struct ISaloon.GeneralInfo",
          "name": "generalInfo",
          "type": "tuple"
        },
        {
          "components": [
            {
              "internalType": "uint256",
              "name": "projectDepositHeld",
              "type": "uint256"
            },
            {
              "internalType": "uint256",
              "name": "projectDepositInStrategy",
              "type": "uint256"
            }
          ],
          "internalType": "struct ISaloon.DepositInfo",
          "name": "depositInfo",
          "type": "tuple"
        },
        {
          "components": [
            {
              "internalType": "uint256",
              "name": "premiumBalance",
              "type": "uint256"
            },
            {
              "internalType": "uint256",
              "name": "premiumAvailable",
              "type": "uint256"
            }
          ],
          "internalType": "struct ISaloon.PremiumInfo",
          "name": "premiumInfo",
          "type": "tuple"
        },
        {
          "components": [
            {
              "internalType": "uint256",
              "name": "timelock",
              "type": "uint256"
            },
            {
              "internalType": "uint256",
              "name": "timeLimit",
              "type": "uint256"
            },
            {
              "internalType": "uint256",
              "name": "withdrawalScheduledAmount",
              "type": "uint256"
            },
            {
              "internalType": "bool",
              "name": "withdrawalExecuted",
              "type": "bool"
            }
          ],
          "internalType": "struct ISaloon.TimelockInfo",
          "name": "poolTimelock",
          "type": "tuple"
        },
        {
          "components": [
            {
              "internalType": "uint256",
              "name": "currentX",
              "type": "uint256"
            },
            {
              "internalType": "uint256",
              "name": "currentY",
              "type": "uint256"
            },
            {
              "internalType": "uint256",
              "name": "totalSupply",
              "type": "uint256"
            }
          ],
          "internalType": "struct ISaloon.TokenInfo",
          "name": "tokenInfo",
          "type": "tuple"
        },
        {
          "internalType": "uint256",
          "name": "freezeTime",
          "type": "uint256"
        },
        {
          "internalType": "bool",
          "name": "isActive",
          "type": "bool"
        }
      ],
      "stateMutability": "view",
      "type": "function"
    },
    {
      "inputs": [],
      "name": "poolLength",
      "outputs": [
        {
          "internalType": "uint256",
          "name": "",
          "type": "uint256"
        }
      ],
      "stateMutability": "view",
      "type": "function"
    },
    {
      "inputs": [
        {
          "internalType": "uint256",
          "name": "_pid",
          "type": "uint256"
        },
        {
          "internalType": "uint256",
          "name": "_amount",
          "type": "uint256"
        }
      ],
      "name": "projectDepositWithdrawal",
      "outputs": [
        {
          "internalType": "bool",
          "name": "",
          "type": "bool"
        }
      ],
      "stateMutability": "nonpayable",
      "type": "function"
    },
    {
      "inputs": [],
      "name": "proxiableUUID",
      "outputs": [
        {
          "internalType": "bytes32",
          "name": "",
          "type": "bytes32"
        }
      ],
      "stateMutability": "view",
      "type": "function"
    },
    {
      "inputs": [
        {
          "internalType": "address",
          "name": "",
          "type": "address"
        }
      ],
      "name": "saloonBountyProfit",
      "outputs": [
        {
          "internalType": "uint256",
          "name": "",
          "type": "uint256"
        }
      ],
      "stateMutability": "view",
      "type": "function"
    },
    {
      "inputs": [
        {
          "internalType": "address",
          "name": "",
          "type": "address"
        }
      ],
      "name": "saloonPremiumProfit",
      "outputs": [
        {
          "internalType": "uint256",
          "name": "",
          "type": "uint256"
        }
      ],
      "stateMutability": "view",
      "type": "function"
    },
    {
      "inputs": [
        {
          "internalType": "uint256",
          "name": "_pid",
          "type": "uint256"
        },
        {
          "internalType": "uint256",
          "name": "_amount",
          "type": "uint256"
        }
      ],
      "name": "scheduleProjectDepositWithdrawal",
      "outputs": [
        {
          "internalType": "bool",
          "name": "",
          "type": "bool"
        }
      ],
      "stateMutability": "nonpayable",
      "type": "function"
    },
    {
      "inputs": [
        {
          "internalType": "uint256",
          "name": "_pid",
          "type": "uint256"
        },
        {
          "internalType": "uint256",
          "name": "_amount",
          "type": "uint256"
        }
      ],
      "name": "scheduleUnstake",
      "outputs": [
        {
          "internalType": "bool",
          "name": "",
          "type": "bool"
        }
      ],
      "stateMutability": "nonpayable",
      "type": "function"
    },
    {
      "inputs": [
        {
          "internalType": "uint256",
          "name": "_pid",
          "type": "uint256"
        },
        {
          "internalType": "uint256",
          "name": "_poolCap",
          "type": "uint256"
        },
        {
          "internalType": "uint16",
          "name": "_apy",
          "type": "uint16"
        },
        {
          "internalType": "uint256",
          "name": "_deposit",
          "type": "uint256"
        },
        {
          "internalType": "string",
          "name": "_strategyName",
          "type": "string"
        }
      ],
      "name": "setAPYandPoolCapAndDeposit",
      "outputs": [],
      "stateMutability": "nonpayable",
      "type": "function"
    },
    {
      "inputs": [
        {
          "internalType": "uint256",
          "name": "_pid",
          "type": "uint256"
        },
        {
          "internalType": "address",
          "name": "_user",
          "type": "address"
        },
        {
          "internalType": "uint256",
          "name": "_amount",
          "type": "uint256"
        }
      ],
      "name": "stake",
      "outputs": [
        {
          "internalType": "bool",
          "name": "",
          "type": "bool"
        }
      ],
      "stateMutability": "nonpayable",
      "type": "function"
    },
    {
      "inputs": [
        {
          "internalType": "address",
          "name": "",
          "type": "address"
        },
        {
          "internalType": "uint256",
          "name": "",
          "type": "uint256"
        }
      ],
      "name": "stakerBalance",
      "outputs": [
        {
          "internalType": "uint256",
          "name": "",
          "type": "uint256"
        }
      ],
      "stateMutability": "view",
      "type": "function"
    },
    {
      "inputs": [],
      "name": "symbol",
      "outputs": [
        {
          "internalType": "string",
          "name": "",
          "type": "string"
        }
      ],
      "stateMutability": "view",
      "type": "function"
    },
    {
      "inputs": [
        {
          "internalType": "address",
          "name": "",
          "type": "address"
        }
      ],
      "name": "tokenWhitelist",
      "outputs": [
        {
          "internalType": "bool",
          "name": "",
          "type": "bool"
        }
      ],
      "stateMutability": "view",
      "type": "function"
    },
    {
      "inputs": [],
      "name": "totalSupply",
      "outputs": [
        {
          "internalType": "uint256",
          "name": "",
          "type": "uint256"
        }
      ],
      "stateMutability": "view",
      "type": "function"
    },
    {
      "inputs": [
        {
          "internalType": "address",
          "name": "to",
          "type": "address"
        },
        {
          "internalType": "uint256",
          "name": "amount",
          "type": "uint256"
        }
      ],
      "name": "transfer",
      "outputs": [
        {
          "internalType": "bool",
          "name": "",
          "type": "bool"
        }
      ],
      "stateMutability": "nonpayable",
      "type": "function"
    },
    {
      "inputs": [
        {
          "internalType": "address",
          "name": "from",
          "type": "address"
        },
        {
          "internalType": "address",
          "name": "to",
          "type": "address"
        },
        {
          "internalType": "uint256",
          "name": "amount",
          "type": "uint256"
        }
      ],
      "name": "transferFrom",
      "outputs": [
        {
          "internalType": "bool",
          "name": "",
          "type": "bool"
        }
      ],
      "stateMutability": "nonpayable",
      "type": "function"
    },
    {
      "inputs": [
        {
          "internalType": "address",
          "name": "newOwner",
          "type": "address"
        }
      ],
      "name": "transferOwnership",
      "outputs": [],
      "stateMutability": "nonpayable",
      "type": "function"
    },
    {
      "inputs": [
        {
          "internalType": "uint256",
          "name": "_pid",
          "type": "uint256"
        },
        {
          "internalType": "uint256",
          "name": "_amount",
          "type": "uint256"
        },
        {
          "internalType": "bool",
          "name": "_shouldHarvest",
          "type": "bool"
        }
      ],
      "name": "unstake",
      "outputs": [
        {
          "internalType": "bool",
          "name": "",
          "type": "bool"
        }
      ],
      "stateMutability": "nonpayable",
      "type": "function"
    },
    {
      "inputs": [
        {
          "internalType": "address",
          "name": "_strategyFactory",
          "type": "address"
        }
      ],
      "name": "updateStrategyFactoryAddress",
      "outputs": [],
      "stateMutability": "nonpayable",
      "type": "function"
    },
    {
      "inputs": [
        {
          "internalType": "address",
          "name": "_token",
          "type": "address"
        },
        {
          "internalType": "bool",
          "name": "_whitelisted",
          "type": "bool"
        }
      ],
      "name": "updateTokenWhitelist",
      "outputs": [
        {
          "internalType": "bool",
          "name": "",
          "type": "bool"
        }
      ],
      "stateMutability": "nonpayable",
      "type": "function"
    },
    {
      "inputs": [
        {
          "internalType": "address",
          "name": "newImplementation",
          "type": "address"
        }
      ],
      "name": "upgradeTo",
      "outputs": [],
      "stateMutability": "nonpayable",
      "type": "function"
    },
    {
      "inputs": [
        {
          "internalType": "address",
          "name": "newImplementation",
          "type": "address"
        },
        {
          "internalType": "bytes",
          "name": "data",
          "type": "bytes"
        }
      ],
      "name": "upgradeToAndCall",
      "outputs": [],
      "stateMutability": "payable",
      "type": "function"
    },
    {
      "inputs": [
        {
          "internalType": "uint256",
          "name": "",
          "type": "uint256"
        },
        {
          "internalType": "address",
          "name": "",
          "type": "address"
        }
      ],
      "name": "userInfo",
      "outputs": [
        {
          "internalType": "uint256",
          "name": "amount",
          "type": "uint256"
        },
        {
          "internalType": "uint256",
          "name": "unclaimed",
          "type": "uint256"
        },
        {
          "internalType": "uint256",
          "name": "lastRewardTime",
          "type": "uint256"
        },
        {
          "internalType": "uint256",
          "name": "timelock",
          "type": "uint256"
        },
        {
          "internalType": "uint256",
          "name": "timeLimit",
          "type": "uint256"
        },
        {
          "internalType": "uint256",
          "name": "unstakeScheduledAmount",
          "type": "uint256"
        }
      ],
      "stateMutability": "view",
      "type": "function"
    },
    {
      "inputs": [
        {
          "internalType": "uint256",
          "name": "_pid",
          "type": "uint256"
        }
      ],
      "name": "viewBountyBalance",
      "outputs": [
        {
          "internalType": "uint256",
          "name": "",
          "type": "uint256"
        }
      ],
      "stateMutability": "view",
      "type": "function"
    },
    {
      "inputs": [
        {
          "internalType": "uint256",
          "name": "_pid",
          "type": "uint256"
        }
      ],
      "name": "viewBountyInfo",
      "outputs": [
        {
          "internalType": "uint256",
          "name": "payout",
          "type": "uint256"
        },
        {
          "internalType": "uint256",
          "name": "apy",
          "type": "uint256"
        },
        {
          "internalType": "uint256",
          "name": "staked",
          "type": "uint256"
        },
        {
          "internalType": "uint256",
          "name": "poolCap",
          "type": "uint256"
        }
      ],
      "stateMutability": "view",
      "type": "function"
    },
    {
      "inputs": [
        {
          "internalType": "uint256",
          "name": "_pid",
          "type": "uint256"
        }
      ],
      "name": "viewHackerPayout",
      "outputs": [
        {
          "internalType": "uint256",
          "name": "",
          "type": "uint256"
        }
      ],
      "stateMutability": "view",
      "type": "function"
    },
    {
      "inputs": [
        {
          "internalType": "uint256",
          "name": "_pid",
          "type": "uint256"
        }
      ],
      "name": "viewMinProjectDeposit",
      "outputs": [
        {
          "internalType": "uint256",
          "name": "",
          "type": "uint256"
        }
      ],
      "stateMutability": "view",
      "type": "function"
    },
    {
      "inputs": [
        {
          "internalType": "uint256",
          "name": "_pid",
          "type": "uint256"
        }
      ],
      "name": "viewPoolAPY",
      "outputs": [
        {
          "internalType": "uint256",
          "name": "",
          "type": "uint256"
        }
      ],
      "stateMutability": "view",
      "type": "function"
    },
    {
      "inputs": [
        {
          "internalType": "uint256",
          "name": "_pid",
          "type": "uint256"
        }
      ],
      "name": "viewPoolCap",
      "outputs": [
        {
          "internalType": "uint256",
          "name": "",
          "type": "uint256"
        }
      ],
      "stateMutability": "view",
      "type": "function"
    },
    {
      "inputs": [
        {
          "internalType": "uint256",
          "name": "_pid",
          "type": "uint256"
        }
      ],
      "name": "viewPoolPremiumInfo",
      "outputs": [
        {
          "internalType": "uint256",
          "name": "requiredPremiumBalancePerPeriod",
          "type": "uint256"
        },
        {
          "internalType": "uint256",
          "name": "premiumBalance",
          "type": "uint256"
        },
        {
          "internalType": "uint256",
          "name": "premiumAvailable",
          "type": "uint256"
        }
      ],
      "stateMutability": "view",
      "type": "function"
    },
    {
      "inputs": [
        {
          "internalType": "uint256",
          "name": "_pid",
          "type": "uint256"
        }
      ],
      "name": "viewPoolTimelockInfo",
      "outputs": [
        {
          "internalType": "uint256",
          "name": "timelock",
          "type": "uint256"
        },
        {
          "internalType": "uint256",
          "name": "timeLimit",
          "type": "uint256"
        },
        {
          "internalType": "uint256",
          "name": "withdrawalScheduledAmount",
          "type": "uint256"
        }
      ],
      "stateMutability": "view",
      "type": "function"
    },
    {
      "inputs": [
        {
          "internalType": "address",
          "name": "_token",
          "type": "address"
        }
      ],
      "name": "viewSaloonProfitBalance",
      "outputs": [
        {
          "internalType": "uint256",
          "name": "totalProfit",
          "type": "uint256"
        },
        {
          "internalType": "uint256",
          "name": "bountyProfit",
          "type": "uint256"
        },
        {
          "internalType": "uint256",
          "name": "premiumProfit",
          "type": "uint256"
        }
      ],
      "stateMutability": "view",
      "type": "function"
    },
    {
      "inputs": [
        {
          "internalType": "uint256",
          "name": "_pid",
          "type": "uint256"
        }
      ],
      "name": "viewTotalStaked",
      "outputs": [
        {
          "internalType": "uint256",
          "name": "",
          "type": "uint256"
        }
      ],
      "stateMutability": "view",
      "type": "function"
    },
    {
      "inputs": [
        {
          "internalType": "uint256",
          "name": "_pid",
          "type": "uint256"
        },
        {
          "internalType": "address",
          "name": "_user",
          "type": "address"
        }
      ],
      "name": "viewUserInfo",
      "outputs": [
        {
          "internalType": "uint256",
          "name": "amount",
          "type": "uint256"
        },
        {
          "internalType": "uint256",
          "name": "actualPending",
          "type": "uint256"
        },
        {
          "internalType": "uint256",
          "name": "unstakeScheduledAmount",
          "type": "uint256"
        },
        {
          "internalType": "uint256",
          "name": "timelock",
          "type": "uint256"
        }
      ],
      "stateMutability": "view",
      "type": "function"
    },
    {
      "inputs": [
        {
          "internalType": "uint256",
          "name": "_pid",
          "type": "uint256"
        },
        {
          "internalType": "address",
          "name": "_user",
          "type": "address"
        }
      ],
      "name": "viewUserUnclaimed",
      "outputs": [
        {
          "internalType": "uint256",
          "name": "unclaimed",
          "type": "uint256"
        }
      ],
      "stateMutability": "view",
      "type": "function"
    },
    {
      "inputs": [
        {
          "internalType": "uint256",
          "name": "_pid",
          "type": "uint256"
        }
      ],
      "name": "windDownBounty",
      "outputs": [
        {
          "internalType": "bool",
          "name": "",
          "type": "bool"
        }
      ],
      "stateMutability": "nonpayable",
      "type": "function"
    }
  ],
  "bytecode": {
    "object": "0x60a0604052306080523480156200001557600080fd5b50600160ca55600054610100900460ff16158080156200003c5750600054600160ff909116105b806200006c575062000059306200019760201b62004b381760201c565b1580156200006c575060005460ff166001145b620000d55760405162461bcd60e51b815260206004820152602e60248201527f496e697469616c697a61626c653a20636f6e747261637420697320616c72656160448201526d191e481a5b9a5d1a585b1a5e995960921b60648201526084015b60405180910390fd5b6000805460ff191660011790558015620000f9576000805461ff0019166101001790555b620001496040518060400160405280600b81526020016a2137bab73a3caa37b5b2b760a91b8152506040518060400160405280600381526020016210951560ea1b815250620001a660201b60201c565b801562000190576000805461ff0019169055604051600181527f7f26b83ff96e1f2b6a682f133852f6798a09c465da95921460cefb38474024989060200160405180910390a15b5062000400565b6001600160a01b03163b151590565b600054610100900460ff16620002025760405162461bcd60e51b815260206004820152602b60248201526000805160206200725b83398151915260448201526a6e697469616c697a696e6760a81b6064820152608401620000cc565b6200020e828262000212565b5050565b600054610100900460ff166200026e5760405162461bcd60e51b815260206004820152602b60248201526000805160206200725b83398151915260448201526a6e697469616c697a696e6760a81b6064820152608401620000cc565b60ce6200027c838262000334565b5060cf6200028b828262000334565b505050565b634e487b7160e01b600052604160045260246000fd5b600181811c90821680620002bb57607f821691505b602082108103620002dc57634e487b7160e01b600052602260045260246000fd5b50919050565b601f8211156200028b57600081815260208120601f850160051c810160208610156200030b5750805b601f850160051c820191505b818110156200032c5782815560010162000317565b505050505050565b81516001600160401b0381111562000350576200035062000290565b6200036881620003618454620002a6565b84620002e2565b602080601f831160018114620003a05760008415620003875750858301515b600019600386901b1c1916600185901b1785556200032c565b600085815260208120601f198616915b82811015620003d157888601518255948401946001909101908401620003b0565b5085821015620003f05787850151600019600388901b60f8161c191681555b5050505050600190811b01905550565b608051616e2362000438600039600081816114c90152818161150901528181611e1101528181611e510152611ee40152616e236000f3fe6080604052600436106103ac5760003560e01c80637fbf3853116101e7578063ac30b8561161010d578063cf9564b9116100a0578063e5e97c651161006f578063e5e97c6514610c4d578063ecd7fbed14610c6d578063f2fde38b14610c8d578063f47ec3be14610cad57600080fd5b8063cf9564b914610bc0578063dbdd695714610be0578063dd62ed3e14610c00578063e45abd0f14610c2057600080fd5b8063b842e87f116100dc578063b842e87f14610b3d578063bb7019c114610b52578063c4d66de814610b72578063ca00614814610b9257600080fd5b8063ac30b85614610aaf578063ae07f94814610acf578063b1a2d16f14610aef578063b20b242914610b0f57600080fd5b806393f1a40b11610185578063a27f921311610154578063a27f921314610a2f578063a457c2d714610a4f578063a754ecb014610a6f578063a9059cbb14610a8f57600080fd5b806393f1a40b1461095157806395d89b41146109da578063983c1ce0146109ef5780639f224f3514610a0f57600080fd5b8063861e5f66116101c1578063861e5f66146108d35780638da5cb5b146108f35780638dbb1e3a1461091157806391635b4e1461093157600080fd5b80637fbf385314610873578063804fd59014610893578063836ef1fa146108b357600080fd5b806339679ff4116102d75780635e3b748b1161026a57806370a082311161023957806370a08231146107cc578063718c7eef14610802578063753d75631461082257806379b91d691461085357600080fd5b80635e3b748b1461070e5780636ac6d812146107545780636e9c931c1461077457806370882b471461079457600080fd5b80634f1ef286116102a65780634f1ef286146106a657806352d1902d146106b95780635669cbef146106ce5780635c46f7b1146106ee57600080fd5b806339679ff4146105eb5780633ac6ad7b1461060b57806340ef28681461062b57806348e43af41461066b57600080fd5b80631c6b323f1161034f578063313ce5671161031e578063313ce5671461056f5780633538fda01461058b5780633659cfe6146105ab57806339509351146105cb57600080fd5b80631c6b323f146104ed57806323b872dd1461050d5780632dbe051e1461052d57806330ca07941461054d57600080fd5b8063081e3eda1161038b578063081e3eda14610460578063095ea7b3146104755780631526fe27146104a557806318160ddd146104d857600080fd5b8062fdd58e146103b157806306fdde03146103e4578063074ecf0314610406575b600080fd5b3480156103bd57600080fd5b506103d16103cc36600461633c565b610ccd565b6040519081526020015b60405180910390f35b3480156103f057600080fd5b506103f9610cf8565b6040516103db91906163b8565b34801561041257600080fd5b506104486104213660046163cb565b6101036020908152600092835260408084209091529082529020546001600160a01b031681565b6040516001600160a01b0390911681526020016103db565b34801561046c57600080fd5b5060fd546103d1565b34801561048157600080fd5b5061049561049036600461633c565b610d8a565b60405190151581526020016103db565b3480156104b157600080fd5b506104c56104c03660046163ed565b610da2565b6040516103db9796959493929190616406565b3480156104e457600080fd5b5060cd546103d1565b3480156104f957600080fd5b506103d16105083660046163ed565b610f70565b34801561051957600080fd5b5061049561052836600461651d565b6111d9565b34801561053957600080fd5b506104956105483660046163ed565b6111fd565b34801561055957600080fd5b5061056d61056836600461660a565b611217565b005b34801561057b57600080fd5b50604051601281526020016103db565b34801561059757600080fd5b5061056d6105a636600461667e565b611494565b3480156105b757600080fd5b5061056d6105c636600461667e565b6114bf565b3480156105d757600080fd5b506104956105e636600461633c565b61159e565b3480156105f757600080fd5b506103d16106063660046163ed565b6115c0565b34801561061757600080fd5b5061049561062636600461669b565b611814565b34801561063757600080fd5b5061064b6106463660046163ed565b611cc6565b6040805194855260208501939093529183015260608201526080016103db565b34801561067757600080fd5b5061068b6106863660046166c2565b611cff565b604080519384526020840192909252908201526060016103db565b61056d6106b43660046166f2565b611e07565b3480156106c557600080fd5b506103d1611ed7565b3480156106da57600080fd5b506104956106e93660046163cb565b611f8a565b3480156106fa57600080fd5b506103d16107093660046163cb565b6120af565b34801561071a57600080fd5b506103d16107293660046166c2565b6000918252610101602090815260408084206001600160a01b03909316845291905290206001015490565b34801561076057600080fd5b506103d161076f3660046163ed565b612413565b34801561078057600080fd5b5061049561078f36600461669b565b612676565b3480156107a057600080fd5b506103d16107af36600461633c565b60fe60209081526000928352604080842090915290825290205481565b3480156107d857600080fd5b506103d16107e736600461667e565b6001600160a01b0316600090815260cb602052604090205490565b34801561080e57600080fd5b5061068b61081d36600461667e565b612af8565b34801561082e57600080fd5b5061049561083d36600461667e565b6101056020526000908152604090205460ff1681565b34801561085f57600080fd5b5061049561086e366004616764565b612b2f565b34801561087f57600080fd5b506103d161088e3660046163ed565b612e0e565b34801561089f57600080fd5b506103d16108ae36600461679d565b613081565b3480156108bf57600080fd5b506103d16108ce3660046163cb565b613400565b3480156108df57600080fd5b506103d16108ee3660046163ed565b613436565b3480156108ff57600080fd5b506033546001600160a01b0316610448565b34801561091d57600080fd5b506103d161092c3660046163cb565b6136af565b34801561093d57600080fd5b5061049561094c3660046163cb565b6136bb565b34801561095d57600080fd5b506109ad61096c3660046166c2565b610101602090815260009283526040808420909152908252902080546001820154600283015460038401546004850154600590950154939492939192909186565b604080519687526020870195909552938501929092526060840152608083015260a082015260c0016103db565b3480156109e657600080fd5b506103f9613795565b3480156109fb57600080fd5b50610495610a0a3660046163cb565b6137a4565b348015610a1b57600080fd5b50610448610a2a3660046163ed565b61391d565b348015610a3b57600080fd5b506103d1610a4a3660046163ed565b613948565b348015610a5b57600080fd5b50610495610a6a36600461633c565b613b9f565b348015610a7b57600080fd5b5061064b610a8a3660046166c2565b613c1a565b348015610a9b57600080fd5b50610495610aaa36600461633c565b613c6b565b348015610abb57600080fd5b5061068b610aca3660046163ed565b613c79565b348015610adb57600080fd5b5061056d610aea3660046167ff565b613ee4565b348015610afb57600080fd5b5061068b610b0a3660046163ed565b613fb1565b348015610b1b57600080fd5b506103d1610b2a3660046163ed565b6101046020526000908152604090205481565b348015610b4957600080fd5b5061056d614231565b348015610b5e57600080fd5b50610495610b6d3660046163ed565b6142b1565b348015610b7e57600080fd5b5061056d610b8d36600461667e565b61437c565b348015610b9e57600080fd5b506103d1610bad36600461667e565b6101006020526000908152604090205481565b348015610bcc57600080fd5b50610495610bdb366004616839565b6144a9565b348015610bec57600080fd5b506103d1610bfb3660046163ed565b614517565b348015610c0c57600080fd5b506103d1610c1b366004616839565b61476b565b348015610c2c57600080fd5b506103d1610c3b36600461667e565b60ff6020526000908152604090205481565b348015610c5957600080fd5b50610495610c68366004616867565b614796565b348015610c7957600080fd5b50610495610c8836600461667e565b6149cb565b348015610c9957600080fd5b5061056d610ca836600461667e565b614a8b565b348015610cb957600080fd5b5061056d610cc83660046163ed565b614b1a565b6001600160a01b038216600090815260fe602090815260408083208484529091529020545b92915050565b606060ce8054610d0790616895565b80601f0160208091040260200160405190810160405280929190818152602001828054610d3390616895565b8015610d805780601f10610d5557610100808354040283529160200191610d80565b820191906000526020600020905b815481529060010190602001808311610d6357829003601f168201915b5050505050905090565b600033610d98818585614b47565b5060019392505050565b60fd8181548110610db257600080fd5b60009182526020918290206040805161010081018252601490930290910180546001600160a01b03808216855260ff600160a01b8304169585019590955261ffff600160a81b909104169183019190915260018101549092166060820152600282018054929350909183916080840191610e2b90616895565b80601f0160208091040260200160405190810160405280929190818152602001828054610e5790616895565b8015610ea45780601f10610e7957610100808354040283529160200191610ea4565b820191906000526020600020905b815481529060010190602001808311610e8757829003601f168201915b505050918352505060038201546020808301919091526004830154604080840191909152600590930154606092830152825180840184526006860154815260078601548183015283518085018552600887015481526009870154818401528451608081018652600a8801548152600b88015481850152600c88015481870152600d88015460ff90811615158287015286519586018752600e8901548652600f89015494860194909452601088015495850195909552601287015460139097015495969195909493921687565b60008060fd8381548110610f8657610f866168cf565b6000918252602090912060408051610200810190915260149092020180546001600160a01b038082166101008501908152600160a01b830460ff16610120860152600160a81b90920461ffff1661014085015260018301541661016084015260028201805484929184916101808501919061100090616895565b80601f016020809104026020016040519081016040528092919081815260200182805461102c90616895565b80156110795780601f1061104e57610100808354040283529160200191611079565b820191906000526020600020905b81548152906001019060200180831161105c57829003601f168201915b505050918352505060038201546020808301919091526004830154604080840191909152600590930154606092830152928452815180830183526006860154815260078601548185015284840152815180830183526008860154815260098601548185015284830152815160808082018452600a8701548252600b87015482860152600c87015482850152600d87015460ff161515828401528583019190915282519182018352600e8601548252600f8601548285015260108601548284015284015260118401805482518185028101850190935280835260a090940193919290919083018282801561119557602002820191906000526020600020905b81546001600160a01b03168152600190910190602001808311611177575b5050509183525050601282015460208083019190915260139092015460ff161515604090910152818101519081015190519192506111d2916168fb565b9392505050565b6000336111e7858285614c6b565b6111f2858585614ce5565b506001949350505050565b6000611207614e90565b611212826000614eea565b919050565b600060fd868154811061122c5761122c6168cf565b60009182526020909120601490910201601381015490915060ff1615801561125657506003810154155b6112a75760405162461bcd60e51b815260206004820152601860248201527f506f6f6c20616c726561647920696e697469616c697a6564000000000000000060448201526064015b60405180910390fd5b60008461ffff161180156112c157506127108461ffff1611155b6113005760405162461bcd60e51b815260206004820152601060248201526f415059206f7574206f662072616e676560801b604482015260640161129e565b805461131790600160a01b900460ff16600a6169f2565b611322906064616a01565b85101580156113545750805461134390600160a01b900460ff16600a6169f2565b6113509062989680616a01565b8511155b6113985760405162461bcd60e51b8152602060048201526015602482015274506f6f6c20636170206f7574206f662072616e676560581b604482015260640161129e565b60018101546001600160a01b031633146113c45760405162461bcd60e51b815260040161129e90616a18565b60006113d4868661ffff16613400565b905060006127106113e76103e884616a01565b6113f19190616a56565b9050611415333061140285896168fb565b86546001600160a01b0316929190615034565b508483600601600001600082825461142d91906168fb565b909155505060038301879055825461ffff60a81b1916600160a81b61ffff88160217835560138301805460ff19166001179055600883018290556114718183616a78565b600984015583511561148a576114888885876150a2565b505b5050505050505050565b61149c614e90565b61010280546001600160a01b0319166001600160a01b0392909216919091179055565b6001600160a01b037f00000000000000000000000000000000000000000000000000000000000000001630036115075760405162461bcd60e51b815260040161129e90616a8b565b7f00000000000000000000000000000000000000000000000000000000000000006001600160a01b0316611550600080516020616da7833981519152546001600160a01b031690565b6001600160a01b0316146115765760405162461bcd60e51b815260040161129e90616ad7565b61157f8161523b565b6040805160008082526020820190925261159b91839190615243565b50565b600033610d988185856115b1838361476b565b6115bb91906168fb565b614b47565b60008060fd83815481106115d6576115d66168cf565b6000918252602090912060408051610200810190915260149092020180546001600160a01b038082166101008501908152600160a01b830460ff16610120860152600160a81b90920461ffff1661014085015260018301541661016084015260028201805484929184916101808501919061165090616895565b80601f016020809104026020016040519081016040528092919081815260200182805461167c90616895565b80156116c95780601f1061169e576101008083540402835291602001916116c9565b820191906000526020600020905b8154815290600101906020018083116116ac57829003601f168201915b505050918352505060038201546020808301919091526004830154604080840191909152600590930154606092830152928452815180830183526006860154815260078601548185015284840152815180830183526008860154815260098601548185015284830152815160808082018452600a8701548252600b87015482860152600c87015482850152600d87015460ff161515828401528583019190915282519182018352600e8601548252600f8601548285015260108601548284015284015260118401805482518185028101850190935280835260a09094019391929091908301828280156117e557602002820191906000526020600020905b81546001600160a01b031681526001909101906020018083116117c7575b50505091835250506012820154602082015260139091015460ff1615156040909101525160a001519392505050565b600061181e614e90565b600060fd8581548110611833576118336168cf565b6000918252602082206004601490920201908101549092509061185587610f70565b61185f90836168fb565b905080828611611a005782860361190357601184015460005b818110156118e5576000866011018281548110611897576118976168cf565b60009182526020808320909101548d8352610101825260408084206001600160a01b0390921680855291909252908220909250906118d8908d9084906153b3565b6000905550600101611878565b506000600486018190556118fd906011870190616185565b50611bc1565b600083611918670de0b6b3a764000089616a01565b6119229190616a56565b601186015490915060005b818110156119f857600087601101828154811061194c5761194c6168cf565b60009182526020808320909101548e8352610101825260408084206001600160a01b03909216808552919092529082209092509061198d908e9084906153b3565b6000670de0b6b3a76400008683600001546119a89190616a01565b6119b29190616a56565b9050808260000160008282546119c89190616a78565b909155505060048a0180548291906000906119e4908490616a78565b90915550506001909301925061192d915050565b505050611bc1565b8286118015611a0e57508186105b15611adc57601184015460005b81811015611a88576000866011018281548110611a3a57611a3a6168cf565b60009182526020808320909101548d8352610101825260408084206001600160a01b039092168085529190925290822090925090611a7b908d9084906153b3565b6000905550600101611a1b565b50600060048601819055611aa0906011870190616185565b611aa989615509565b506000611ab68589616a78565b905080866006016000016000828254611acf9190616a78565b90915550611bc192505050565b818603611b8757601184015460005b81811015611b58576000866011018281548110611b0a57611b0a6168cf565b60009182526020808320909101548d8352610101825260408084206001600160a01b039092168085529190925290822090925090611b4b908d9084906153b3565b6000905550600101611aeb565b50600060048601819055611b70906011870190616185565b611b7989615509565b505060006006850155611bc1565b60405162461bcd60e51b815260206004820152600f60248201526e082dadeeadce840e8dede40d0d2ced608b1b604482015260640161129e565b6000612710611bd26103e889616a01565b611bdc9190616a56565b90506000611bea8289616a78565b86546001600160a01b0316600090815260ff6020526040812080549293508492909190611c189084906168fb565b90915550508554611c33906001600160a01b03168a83615666565b506000611c3f8b610f70565b6004880154611c4e91906168fb565b87546040518b81529192506001600160a01b0390811691908c169042907fc351e6e0f377ec1a399ec84224a83d6a4b9f3cd9a5530e5c652d0b11c2f8dae29060200160405180910390a480848c600080516020616d8783398151915260405160405180910390a45060019a9950505050505050505050565b600080600080611cd585613436565b9350611ce085614517565b9150611ceb85613948565b9250611cf6856115c0565b90509193509193565b60008060008060fd8681548110611d1857611d186168cf565b60009182526020808320898452610101825260408085206001600160a01b038b16865290925290832060149290920201600481015460128201549194509192908103611d645742611d6a565b83601201545b90506000611d7c8460020154836136af565b855485549192506301e1338091839161271091611da491600160a81b900461ffff1690616a01565b611dae9190616a56565b611db89190616a01565b611dc29190616a56565b9550836001015486611dd491906168fb565b9750612710611de56103e882616a78565b611def908a616a01565b611df99190616a56565b965050505050509250925092565b6001600160a01b037f0000000000000000000000000000000000000000000000000000000000000000163003611e4f5760405162461bcd60e51b815260040161129e90616a8b565b7f00000000000000000000000000000000000000000000000000000000000000006001600160a01b0316611e98600080516020616da7833981519152546001600160a01b031690565b6001600160a01b031614611ebe5760405162461bcd60e51b815260040161129e90616ad7565b611ec78261523b565b611ed382826001615243565b5050565b6000306001600160a01b037f00000000000000000000000000000000000000000000000000000000000000001614611f775760405162461bcd60e51b815260206004820152603860248201527f555550535570677261646561626c653a206d757374206e6f742062652063616c60448201527f6c6564207468726f7567682064656c656761746563616c6c0000000000000000606482015260840161129e565b50600080516020616da783398151915290565b60008060fd8481548110611fa057611fa06168cf565b9060005260206000209060140201905082611fba85610f70565b10156120085760405162461bcd60e51b815260206004820152601a60248201527f416d6f756e7420626967676572207468616e206465706f736974000000000000604482015260640161129e565b60018101546001600160a01b031633146120345760405162461bcd60e51b815260040161129e90616a18565b61204162093a80426168fb565b600a82015561205362093a80426168fb565b612060906203f4806168fb565b600b820155600c8101839055600d8101805460ff19169055604051839085907fb3b9c925de3673837b40c6b4d4463a8f88dc821cd27e07f1ff6bf6abf96413a590600090a35060019392505050565b60008060fd83815481106120c5576120c56168cf565b6000918252602090912060408051610200810190915260149092020180546001600160a01b038082166101008501908152600160a01b830460ff16610120860152600160a81b90920461ffff1661014085015260018301541661016084015260028201805484929184916101808501919061213f90616895565b80601f016020809104026020016040519081016040528092919081815260200182805461216b90616895565b80156121b85780601f1061218d576101008083540402835291602001916121b8565b820191906000526020600020905b81548152906001019060200180831161219b57829003601f168201915b505050918352505060038201546020808301919091526004830154604080840191909152600590930154606092830152928452815180830183526006860154815260078601548185015284840152815180830183526008860154815260098601548185015284830152815160808082018452600a8701548252600b87015482860152600c87015482850152600d87015460ff161515828401528583019190915282519182018352600e8601548252600f8601548285015260108601548284015284015260118401805482518185028101850190935280835260a09094019391929091908301828280156122d457602002820191906000526020600020905b81546001600160a01b031681526001909101906020018083116122b6575b50505091835250506012820154602082015260139091015460ff161515604090910152608081015151909150600061230c8686615699565b509050600061231b83836168fb565b9050600061232a826021616a01565b61233c90674563918244f400006168fb565b9050600061234b856021616a01565b61235d90674563918244f400006168fb565b9050600061237261236d846156f5565b61573e565b9050600061238261236d846156f5565b905060006123c061239360216156f5565b6123ba6123a08686615776565b6123b46a295be96e640669720000006156f5565b90615785565b90615794565b905060006123d188620f4240616a01565b6123db9083616a56565b8a5160e00151909150670de0b6b3a76400006123f78284616a01565b6124019190616a56565b9e9d5050505050505050505050505050565b60008060fd8381548110612429576124296168cf565b6000918252602090912060408051610200810190915260149092020180546001600160a01b038082166101008501908152600160a01b830460ff16610120860152600160a81b90920461ffff166101408501526001830154166101608401526002820180548492918491610180850191906124a390616895565b80601f01602080910402602001604051908101604052809291908181526020018280546124cf90616895565b801561251c5780601f106124f15761010080835404028352916020019161251c565b820191906000526020600020905b8154815290600101906020018083116124ff57829003601f168201915b505050918352505060038201546020808301919091526004830154604080840191909152600590930154606092830152928452815180830183526006860154815260078601548185015284840152815180830183526008860154815260098601548185015284830152815160808082018452600a8701548252600b87015482860152600c87015482850152600d87015460ff161515828401528583019190915282519182018352600e8601548252600f8601548285015260108601548284015284015260118401805482518185028101850190935280835260a090940193919290919083018282801561263857602002820191906000526020600020905b81546001600160a01b0316815260019091019060200180831161261a575b50505091835250506012820154602082015260139091015460ff161515604090910152905061266683610f70565b815160c001516111d291906168fb565b60006126806157ac565b83600060fd8281548110612696576126966168cf565b6000918252602090912060408051610200810190915260149092020180546001600160a01b038082166101008501908152600160a01b830460ff16610120860152600160a81b90920461ffff1661014085015260018301541661016084015260028201805484929184916101808501919061271090616895565b80601f016020809104026020016040519081016040528092919081815260200182805461273c90616895565b80156127895780601f1061275e57610100808354040283529160200191612789565b820191906000526020600020905b81548152906001019060200180831161276c57829003601f168201915b505050918352505060038201546020808301919091526004830154604080840191909152600590930154606092830152928452815180830183526006860154815260078601548185015284840152815180830183526008860154815260098601548185015284830152815160808082018452600a8701548252600b87015482860152600c87015482850152600d87015460ff161515828401528583019190915282519182018352600e8601548252600f8601548285015260108601548284015284015260118401805482518185028101850190935280835260a09094019391929091908301828280156128a557602002820191906000526020600020905b81546001600160a01b03168152600190910190602001808311612887575b50505091835250506012820154602082015260139091015460ff16151560409091015260e081015190915061290e5760405162461bcd60e51b815260206004820152600f60248201526e706f6f6c206e6f742061637469766560881b604482015260640161129e565b6000841161291b57600080fd5b600060fd8781548110612930576129306168cf565b600091825260208083208a8452610101825260408085206001600160a01b038c1686529092529083206014929092020160068101546004820154919450919291612979916168fb565b9050612987898960016153b3565b81546000036129c157601183018054600181018255600091825260209091200180546001600160a01b0319166001600160a01b038a161790555b82546129d8906001600160a01b031633308a615034565b50868260000160008282546129ed91906168fb565b9091555050600483018054889190600090612a099084906168fb565b9091555050600383015415801590612a2957506003830154600484015411155b612a6b5760405162461bcd60e51b8152602060048201526013602482015272115e18d959591959081c1bdbdb081b1a5b5a5d606a1b604482015260640161129e565b88886001600160a01b03167f1449c6dd7851abc30abf37f57715f492010519147cc2652fbc38202c18a6ee9089604051612aa791815260200190565b60405180910390a360068301546004840154600091612ac5916168fb565b905080828b600080516020616d8783398151915260405160405180910390a4600196505050505050506111d2600160ca55565b6001600160a01b038116600090815260ff6020908152604080832054610100909252822054612b2782826168fb565b949193509150565b6000612b396157ac565b600060fd8581548110612b4e57612b4e6168cf565b60009182526020808320888452610101825260408085203386529092529220805460149092029092019250851115612bbd5760405162461bcd60e51b81526020600482015260126024820152711dda5d1a191c985dce881b9bdd0819dbdbd960721b604482015260640161129e565b428160030154108015612bd35750428160040154115b8015612be3575084816005015410155b8015612bf25750600381015415155b612c0e5760405162461bcd60e51b815260040161129e90616b23565b60006003820181905560068301546004840154612c2b91906168fb565b9050612c388733876153b3565b8515612c78578154612c4a9087615805565b82556004830154612c5b9087615805565b60048401558254612c76906001600160a01b03163388615666565b505b8154600003612d9057601183015460005b81811015612d8d57336001600160a01b0316856011018281548110612cb057612cb06168cf565b6000918252602090912001546001600160a01b031603612d8557600060118601612cdb600185616a78565b81548110612ceb57612ceb6168cf565b6000918252602090912001546011870180546001600160a01b039092169250829184908110612d1c57612d1c6168cf565b9060005260206000200160006101000a8154816001600160a01b0302191690836001600160a01b0316021790555085601101805480612d5d57612d5d616b6c565b600082815260209020810160001990810180546001600160a01b031916905501905550612d8d565b600101612c89565b50505b604051868152879033907f7fc4727e062e336010f2c282598ef5f14facb3de68cf8195c2f23e1454b2b74e9060200160405180910390a360068301546004840154600091612ddd916168fb565b9050808289600080516020616d8783398151915260405160405180910390a460019450505050506111d2600160ca55565b60008060fd8381548110612e2457612e246168cf565b6000918252602090912060408051610200810190915260149092020180546001600160a01b038082166101008501908152600160a01b830460ff16610120860152600160a81b90920461ffff16610140850152600183015416610160840152600282018054849291849161018085019190612e9e90616895565b80601f0160208091040260200160405190810160405280929190818152602001828054612eca90616895565b8015612f175780601f10612eec57610100808354040283529160200191612f17565b820191906000526020600020905b815481529060010190602001808311612efa57829003601f168201915b505050918352505060038201546020808301919091526004830154604080840191909152600590930154606092830152928452815180830183526006860154815260078601548185015284840152815180830183526008860154815260098601548185015284830152815160808082018452600a8701548252600b87015482860152600c87015482850152600d87015460ff161515828401528583019190915282519182018352600e8601548252600f8601548285015260108601548284015284015260118401805482518185028101850190935280835260a090940193919290919083018282801561303357602002820191906000526020600020905b81546001600160a01b03168152600190910190602001808311613015575b50505091835250506012820154602082015260139091015460ff161515604090910152608081015151815160e001519192509061306f82615811565b6130799190616a01565b949350505050565b600061308b614e90565b6001600160a01b0384166000908152610105602052604090205460ff166130ec5760405162461bcd60e51b81526020600482015260156024820152741d1bdad95b881b9bdd081dda1a5d195b1a5cdd1959605a1b604482015260640161129e565b60408051600481526024810182526020810180516001600160e01b031663313ce56760e01b17905290516000916001600160a01b0387169161312e9190616b82565b600060405180830381855afa9150503d8060008114613169576040519150601f19603f3d011682016040523d82523d6000602084013e61316e565b606091505b509150506000818060200190518101906131889190616b9e565b90506131926161a3565b80516001600160a01b03808916909152815160ff8085166020928301528351898416606091820152845160809081018a9052855160006040918201819052875160a001819052875160e0908101829052885160c0908101839052878a0151839052858a0180518490528051890184905280518501849052518601839052908901829052880181905260fd805460018101825591528751805160149092027f9346ac6dd7de6b96975fec380d4d994c4c12e6a8897544f22915316cc6cca28081018054988301519483015161ffff16600160a81b0261ffff60a81b1995909816600160a01b026001600160a81b0319909916938a16939093179790971792909216949094178455918201517f9346ac6dd7de6b96975fec380d4d994c4c12e6a8897544f22915316cc6cca28185018054919096166001600160a01b03199190911617909455928301518493919283917f9346ac6dd7de6b96975fec380d4d994c4c12e6a8897544f22915316cc6cca2829091019061330f9082616c0f565b5060a082810151600383015560c0830151600483015560e0909201516005909101556020838101518051600685015581015160078401556040808501518051600886015582015160098501556060808601518051600a87015580840151600b87015580830151600c8701550151600d8501805460ff191691151591909117905560808501518051600e86015580830151600f860155015160108401559083015180516133c192601185019201906162ad565b5060c0820151601282015560e0909101516013909101805460ff191691151591909117905560fd546133f590600190616a78565b979650505050505050565b60006301e1338061271062093a806134188587616a01565b6134229190616a01565b61342c9190616a56565b6111d29190616a56565b60008060fd838154811061344c5761344c6168cf565b6000918252602090912060408051610200810190915260149092020180546001600160a01b038082166101008501908152600160a01b830460ff16610120860152600160a81b90920461ffff166101408501526001830154166101608401526002820180548492918491610180850191906134c690616895565b80601f01602080910402602001604051908101604052809291908181526020018280546134f290616895565b801561353f5780601f106135145761010080835404028352916020019161353f565b820191906000526020600020905b81548152906001019060200180831161352257829003601f168201915b505050918352505060038201546020808301919091526004830154604080840191909152600590930154606092830152928452815180830183526006860154815260078601548185015284840152815180830183526008860154815260098601548185015284830152815160808082018452600a8701548252600b87015482860152600c87015482850152600d87015460ff161515828401528583019190915282519182018352600e8601548252600f8601548285015260108601548284015284015260118401805482518185028101850190935280835260a090940193919290919083018282801561365b57602002820191906000526020600020905b81546001600160a01b0316815260019091019060200180831161363d575b50505091835250506012820154602082015260139091015460ff161515604090910152905061271061368f6103e882616a78565b602083015151835160c001516136a591906168fb565b61342c9190616a01565b60006111d28284615805565b600082815261010160209081526040808320338452909152812080548311156137265760405162461bcd60e51b815260206004820152601a60248201527f416d6f756e7420626967676572207468616e206465706f736974000000000000604482015260640161129e565b61373362093a80426168fb565b600382015561374562093a80426168fb565b613752906203f4806168fb565b600482015560058101839055604051839085907fb3b9c925de3673837b40c6b4d4463a8f88dc821cd27e07f1ff6bf6abf96413a590600090a35060019392505050565b606060cf8054610d0790616895565b60008060fd84815481106137ba576137ba6168cf565b6000918252602090912060149091020160018101549091506001600160a01b031633146137f95760405162461bcd60e51b815260040161129e90616a18565b600a8101544211801561380f5750600b81015442105b80156138205750600d81015460ff16155b80156138305750600c8101548311155b801561383f5750600a81015415155b61385b5760405162461bcd60e51b815260040161129e90616b23565b600d8101805460ff1916600117905560068101548311156138815761387f84615509565b505b600061388c85610f70565b600483015461389b91906168fb565b9050838260060160000160008282546138b49190616a78565b9091555050600182015482546138d7916001600160a01b03918216911686615666565b5060006138e386610f70565b60048401546138f291906168fb565b9050808287600080516020616d8783398151915260405160405180910390a450600195945050505050565b610106818154811061392e57600080fd5b6000918252602090912001546001600160a01b0316905081565b60008060fd838154811061395e5761395e6168cf565b6000918252602090912060408051610200810190915260149092020180546001600160a01b038082166101008501908152600160a01b830460ff16610120860152600160a81b90920461ffff166101408501526001830154166101608401526002820180548492918491610180850191906139d890616895565b80601f0160208091040260200160405190810160405280929190818152602001828054613a0490616895565b8015613a515780601f10613a2657610100808354040283529160200191613a51565b820191906000526020600020905b815481529060010190602001808311613a3457829003601f168201915b505050918352505060038201546020808301919091526004830154604080840191909152600590930154606092830152928452815180830183526006860154815260078601548185015284840152815180830183526008860154815260098601548185015284830152815160808082018452600a8701548252600b87015482860152600c87015482850152600d87015460ff161515828401528583019190915282519182018352600e8601548252600f8601548285015260108601548284015284015260118401805482518185028101850190935280835260a0909401939192909190830182828015613b6d57602002820191906000526020600020905b81546001600160a01b03168152600190910190602001808311613b4f575b50505091835250506012820154602082015260139091015460ff1615156040918201529051015161ffff169392505050565b60003381613bad828661476b565b905083811015613c0d5760405162461bcd60e51b815260206004820152602560248201527f45524332303a2064656372656173656420616c6c6f77616e63652062656c6f77604482015264207a65726f60d81b606482015260840161129e565b6111f28286868403614b47565b6000828152610101602090815260408083206001600160a01b038516845290915281208054919081908190613c4f8787611cff565b5060058301546003909301549699909850919650909350505050565b600033610d98818585614ce5565b60008060008060fd8581548110613c9257613c926168cf565b6000918252602090912060408051610200810190915260149092020180546001600160a01b038082166101008501908152600160a01b830460ff16610120860152600160a81b90920461ffff16610140850152600183015416610160840152600282018054849291849161018085019190613d0c90616895565b80601f0160208091040260200160405190810160405280929190818152602001828054613d3890616895565b8015613d855780601f10613d5a57610100808354040283529160200191613d85565b820191906000526020600020905b815481529060010190602001808311613d6857829003601f168201915b505050918352505060038201546020808301919091526004830154604080840191909152600590930154606092830152928452815180830183526006860154815260078601548185015284840152815180830183526008860154815260098601548185015284830152815160808082018452600a8701548252600b87015482860152600c87015482850152600d87015460ff161515828401528583019190915282519182018352600e8601548252600f8601548285015260108601548284015284015260118401805482518185028101850190935280835260a0909401939192909190830182828015613ea157602002820191906000526020600020905b81546001600160a01b03168152600190910190602001808311613e83575b5050509183525050601282015460208083019190915260139092015460ff1615156040918201526060909201518051918101519201519097919650945092505050565b600060fd8481548110613ef957613ef96168cf565b6000918252602090912060149091020160018101549091506001600160a01b03163314613f385760405162461bcd60e51b815260040161129e90616a18565b60068101546004820154600091613f4e916168fb565b8254909150613f68906001600160a01b0316333087615034565b5083826006016000016000828254613f8091906168fb565b909155505060068201546004830154600091613f9b916168fb565b9050613fa88685876150a2565b50505050505050565b60008060008060fd8581548110613fca57613fca6168cf565b6000918252602090912060408051610200810190915260149092020180546001600160a01b038082166101008501908152600160a01b830460ff16610120860152600160a81b90920461ffff1661014085015260018301541661016084015260028201805484929184916101808501919061404490616895565b80601f016020809104026020016040519081016040528092919081815260200182805461407090616895565b80156140bd5780601f10614092576101008083540402835291602001916140bd565b820191906000526020600020905b8154815290600101906020018083116140a057829003601f168201915b505050918352505060038201546020808301919091526004830154604080840191909152600590930154606092830152928452815180830183526006860154815260078601548185015284840152815180830183526008860154815260098601548185015284830152815160808082018452600a8701548252600b87015482860152600c87015482850152600d87015460ff161515828401528583019190915282519182018352600e8601548252600f8601548285015260108601548284015284015260118401805482518185028101850190935280835260a09094019391929091908301828280156141d957602002820191906000526020600020905b81546001600160a01b031681526001909101906020018083116141bb575b50505091835250506012820154602082015260139091015460ff161515604091820152815160a08101519101519192506142169161ffff16613400565b60409091015180516020909101519196909550909350915050565b6034546001600160a01b0316331461429a5760405162461bcd60e51b815260206004820152602660248201527f6f6e6c792070656e64696e67206f776e65722063616e2061636365707420747260448201526530b739b332b960d11b606482015260840161129e565b6034546142af906001600160a01b0316615871565b565b60008060fd83815481106142c7576142c76168cf565b6000918252602090912060149091020160018101549091506001600160a01b03163314806142ff57506033546001600160a01b031633145b61431b5760405162461bcd60e51b815260040161129e90616a18565b601381015460ff166143615760405162461bcd60e51b815260206004820152600f60248201526e506f6f6c206e6f742061637469766560881b604482015260640161129e565b60138101805460ff1916905542601290910155506001919050565b600054610100900460ff161580801561439c5750600054600160ff909116105b806143b65750303b1580156143b6575060005460ff166001145b6144195760405162461bcd60e51b815260206004820152602e60248201527f496e697469616c697a61626c653a20636f6e747261637420697320616c72656160448201526d191e481a5b9a5d1a585b1a5e995960921b606482015260840161129e565b6000805460ff19166001179055801561443c576000805461ff0019166101001790555b6144446158ce565b61010280546001600160a01b0319166001600160a01b0384161790558015611ed3576000805461ff0019169055604051600181527f7f26b83ff96e1f2b6a682f133852f6798a09c465da95921460cefb38474024989060200160405180910390a15050565b60006144b3614e90565b6001600160a01b0383166000908152610100602090815260408083205460ff9092528220546144e291906168fb565b6001600160a01b038516600081815260ff602090815260408083208390556101009091528120559091506111f2908483615666565b60008060fd838154811061452d5761452d6168cf565b6000918252602090912060408051610200810190915260149092020180546001600160a01b038082166101008501908152600160a01b830460ff16610120860152600160a81b90920461ffff166101408501526001830154166101608401526002820180548492918491610180850191906145a790616895565b80601f01602080910402602001604051908101604052809291908181526020018280546145d390616895565b80156146205780601f106145f557610100808354040283529160200191614620565b820191906000526020600020905b81548152906001019060200180831161460357829003601f168201915b505050918352505060038201546020808301919091526004830154604080840191909152600590930154606092830152928452815180830183526006860154815260078601548185015284840152815180830183526008860154815260098601548185015284830152815160808082018452600a8701548252600b87015482860152600c87015482850152600d87015460ff161515828401528583019190915282519182018352600e8601548252600f8601548285015260108601548284015284015260118401805482518185028101850190935280835260a090940193919290919083018282801561473c57602002820191906000526020600020905b81546001600160a01b0316815260019091019060200180831161471e575b50505091835250506012820154602082015260139091015460ff1615156040909101525160c001519392505050565b6001600160a01b03918216600090815260cc6020908152604080832093909416825291909152205490565b60006147a0614e90565b6001600160a01b0383166000908152610105602052604090205460ff1615158215146148065760405162461bcd60e51b81526020600482015260156024820152741dda1a5d195b1a5cdd08185b1c9958591e481cd95d605a1b604482015260640161129e565b6001600160a01b03831660008181526101056020526040808220805460ff191686151590811790915590519092917f99795d51e5a8804307721456a7a9c2f0d7421f719d46a46d36e91fee7c85aa7691a381156148ae5761010680546001810182556000919091527fc9ef9fceea91e87b2c84ea400a44fde78842aae8aa24cd4b502ce5fb4d91e63b0180546001600160a01b0319166001600160a01b0385161790556149c2565b6101065460005b818110156149bf57600061010682815481106148d3576148d36168cf565b6000918252602090912001546001600160a01b039081169150861681036149ae57610106614902600185616a78565b81548110614912576149126168cf565b60009182526020909120015461010680546001600160a01b03909216918490811061493f5761493f6168cf565b9060005260206000200160006101000a8154816001600160a01b0302191690836001600160a01b0316021790555061010680548061497f5761497f616b6c565b600082815260209020810160001990810180546001600160a01b03191690550190555060019250610cf2915050565b506149b881616ccf565b90506148b5565b50505b50600192915050565b60006149d5614e90565b6101065460005b81811015610d9857600061010682815481106149fa576149fa6168cf565b60009182526020808320909101546001600160a01b0316808352610100825260408084205460ff909352832054909350614a3491906168fb565b905080600003614a45575050614a7b565b6001600160a01b038216600081815260ff60209081526040808320839055610100909152812055614a77908783615666565b5050505b614a8481616ccf565b90506149dc565b614a93614e90565b6001600160a01b038116614af85760405162461bcd60e51b815260206004820152602660248201527f4f776e61626c653a206e6577206f776e657220697320746865207a65726f206160448201526564647265737360d01b606482015260840161129e565b603480546001600160a01b0319166001600160a01b0392909216919091179055565b614b226157ac565b614b2e813360016153b3565b61159b600160ca55565b6001600160a01b03163b151590565b6001600160a01b038316614ba95760405162461bcd60e51b8152602060048201526024808201527f45524332303a20617070726f76652066726f6d20746865207a65726f206164646044820152637265737360e01b606482015260840161129e565b6001600160a01b038216614c0a5760405162461bcd60e51b815260206004820152602260248201527f45524332303a20617070726f766520746f20746865207a65726f206164647265604482015261737360f01b606482015260840161129e565b6001600160a01b03838116600081815260cc602090815260408083209487168084529482529182902085905590518481527f8c5be1e5ebec7d5bd14f71427d1e84f3dd0314c0f7b2291e5b200ac8c7c3b925910160405180910390a3505050565b6000614c77848461476b565b90506000198114614cdf5781811015614cd25760405162461bcd60e51b815260206004820152601d60248201527f45524332303a20696e73756666696369656e7420616c6c6f77616e6365000000604482015260640161129e565b614cdf8484848403614b47565b50505050565b6001600160a01b038316614d495760405162461bcd60e51b815260206004820152602560248201527f45524332303a207472616e736665722066726f6d20746865207a65726f206164604482015264647265737360d81b606482015260840161129e565b6001600160a01b038216614dab5760405162461bcd60e51b815260206004820152602360248201527f45524332303a207472616e7366657220746f20746865207a65726f206164647260448201526265737360e81b606482015260840161129e565b6001600160a01b038316600090815260cb602052604090205481811015614e235760405162461bcd60e51b815260206004820152602660248201527f45524332303a207472616e7366657220616d6f756e7420657863656564732062604482015265616c616e636560d01b606482015260840161129e565b6001600160a01b03808516600081815260cb602052604080822086860390559286168082529083902080548601905591517fddf252ad1be2c89b69c2b068fc378daa952ba7f163c4a11628f55a4df523b3ef90614e839086815260200190565b60405180910390a3614cdf565b6033546001600160a01b031633146142af5760405162461bcd60e51b815260206004820181905260248201527f4f776e61626c653a2063616c6c6572206973206e6f7420746865206f776e6572604482015260640161129e565b600060fd8381548110614eff57614eff6168cf565b600091825260208220601491909102016008810154600382015482549294508592614f359190600160a81b900461ffff16613400565b614f3f9190616a78565b614f4991906168fb565b60018301548354919250614f6b916001600160a01b0390811691163084615034565b506000612710614f7d6103e884616a01565b614f879190616a56565b905081836008016000016000828254614fa091906168fb565b909155505082546001600160a01b03166000908152610100602052604081208054839290614fcf9084906168fb565b9091555060009050614fe18284616a78565b905080846008016001016000828254614ffa91906168fb565b9091555050604051839087907fadb049ad2d09be3db90459a16aef1ad0a4d89e8fdcc1ade9429d6cc55abbcd2b90600090a3505050505050565b6040516001600160a01b03808516602483015283166044820152606481018290526000906111f29086906323b872dd60e01b906084015b60408051601f198184030181529190526020810180516001600160e01b03166001600160e01b0319909316929092179091526158fd565b60008060fd85815481106150b8576150b86168cf565b906000526020600020906014020190506000846040516020016150db91906163b8565b60408051601f198184030181529181528151602092830120600089815261010490935291205490915080821461523157600061511688615509565b9050600061512489896159cf565b90506001600160a01b03811615615211578061514083896168fb565b600687018054600090615154908490616a78565b90915550615164905083896168fb565b6007870180546000906151789084906168fb565b9091555061519e90508261518c858b6168fb565b88546001600160a01b03169190615666565b5060405163d33b0aa760e01b8152600160048201526001600160a01b0382169063d33b0aa7906024016020604051808303816000875af11580156151e6573d6000803e3d6000fd5b505050506040513d601f19601f8201168201806040525081019061520a9190616ce8565b505061522e565b8685600601600001600082825461522891906168fb565b90915550505b50505b5050509392505050565b61159b614e90565b7f4910fdfa16fed3260ed0e7147f7cc6da11a60208b5b9406d12a635614ffd91435460ff161561527b5761527683615b0e565b505050565b826001600160a01b03166352d1902d6040518163ffffffff1660e01b8152600401602060405180830381865afa9250505080156152d5575060408051601f3d908101601f191682019092526152d291810190616ce8565b60015b6153385760405162461bcd60e51b815260206004820152602e60248201527f45524331393637557067726164653a206e657720696d706c656d656e7461746960448201526d6f6e206973206e6f74205555505360901b606482015260840161129e565b600080516020616da783398151915281146153a75760405162461bcd60e51b815260206004820152602960248201527f45524331393637557067726164653a20756e737570706f727465642070726f786044820152681a58589b195555525160ba1b606482015260840161129e565b50615276838383615baa565b600060fd84815481106153c8576153c86168cf565b60009182526020808320878452610101825260408085206001600160a01b0389168652909252922080546014909202909201925015801561540b57506001810154155b1561541d574260029091015550505050565b600080600061542c8888611cff565b9250925092508561547a578084600101600082825461544b91906168fb565b909155505060128501546000036154625742615468565b84601201545b84600201819055505050505050505050565b6008850154831115615490576154908884614eea565b821561148a57600060018501819055601286015490036154b057426154b6565b84601201545b60028501556008850180548491906000906154d2908490616a78565b90915550506009850180548391906000906154ee908490616a78565b90915550508454611488906001600160a01b03168884615666565b60008060fd838154811061551f5761551f6168cf565b6000918252602080832086845261010490915260408320546014909202019250801561565e576000858152610103602090815260408083208484528252808320548151637f1f087360e01b815291516001600160a01b0390911693928492637f1f08739260048083019392829003018187875af11580156155a4573d6000803e3d6000fd5b505050506040513d601f19601f820116820180604052508101906155c89190616ce8565b60405163f840cb8360e01b815260016004820152602481018290529091506001600160a01b0383169063f840cb83906044016020604051808303816000875af1158015615619573d6000803e3d6000fd5b505050506040513d601f19601f8201168201806040525081019061563d9190616ce8565b93508385600601600001600082825461565691906168fb565b909155505050505b509392505050565b6040516001600160a01b038316602482015260448101829052600090610d9890859063a9059cbb60e01b9060640161506b565b60008060fd83815481106156af576156af6168cf565b60009182526020909120600360149092020101546156d5670de0b6b3a764000086616a01565b6156df9190616a56565b90506156ec816005616a01565b91509250929050565b600061570b670de0b6b3a7640000600019616a56565b82111561572e576040516322630c4560e01b81526004810183905260240161129e565b670de0b6b3a76400008202610cf2565b6000610cf26714057b7ef767814f670de0b6b3a764000061576461576186615bcf565b90565b028161577257615772616a40565b0490565b60006111d26157618385616a78565b60006111d26157618484615d02565b60006111d261576184670de0b6b3a764000085615db6565b600260ca54036157fe5760405162461bcd60e51b815260206004820152601f60248201527f5265656e7472616e637947756172643a207265656e7472616e742063616c6c00604482015260640161129e565b600260ca55565b60006111d28284616a78565b600080670de0b6b3a764000061582f84670928ca80cfc20000616a01565b6158399190616a56565b61584b9067016345785d8a00006168fb565b90506000615868826ec097ce7bc90715b34b9f1000000000616a56565b90505050919050565b603380546001600160a01b038381166001600160a01b03198084168217909455603480549094169093556040519116919082907f8be0079c531659141344cd1fd0a4f28419497f9722a3daafe3b4186f6b6457e090600090a35050565b600054610100900460ff166158f55760405162461bcd60e51b815260040161129e90616d01565b6142af615e8a565b6000615952826040518060400160405280602081526020017f5361666545524332303a206c6f772d6c6576656c2063616c6c206661696c6564815250856001600160a01b0316615eba9092919063ffffffff16565b80519091501561527657808060200190518101906159709190616d4c565b6152765760405162461bcd60e51b815260206004820152602a60248201527f5361666545524332303a204552433230206f7065726174696f6e20646964206e6044820152691bdd081cdd58d8d9595960b21b606482015260840161129e565b6000806000836040516020016159e591906163b8565b60408051601f198184030181529181528151602092830120600088815261010384528281208282529093529120549091506001600160a01b031680615a9f5761010254604051632f3802cf60e11b81526001600160a01b0390911690635e70059e90615a559088906004016163b8565b6020604051808303816000875af1158015615a74573d6000803e3d6000fd5b505050506040513d601f19601f82011682018060405250810190615a989190616d69565b9250615aa9565b9250610cf2915050565b6001600160a01b038316615ac35760009350505050610cf2565b50600085815261010360209081526040808320848452825280832080546001600160a01b0319166001600160a01b038716179055968252610104905294909420939093555090919050565b6001600160a01b0381163b615b7b5760405162461bcd60e51b815260206004820152602d60248201527f455243313936373a206e657720696d706c656d656e746174696f6e206973206e60448201526c1bdd08184818dbdb9d1c9858dd609a1b606482015260840161129e565b600080516020616da783398151915280546001600160a01b0319166001600160a01b0392909216919091179055565b615bb383615ec9565b600082511180615bc05750805b1561527657614cdf8383615f09565b600081670de0b6b3a7640000811015615bfe57604051633621413760e21b81526004810184905260240161129e565b6000615c8a670de0b6b3a7640000830460016fffffffffffffffffffffffffffffffff821160071b91821c67ffffffffffffffff811160061b90811c63ffffffff811160051b90811c61ffff811160041b90811c60ff8111600390811b91821c600f811160021b90811c918211871b91821c969096119490961792909217171791909117919091171790565b9050670de0b6b3a7640000810282821c670de0b6b3a763ffff198101615cb35750949350505050565b671bc16d674ec800006706f05b59d3b200005b8015615cf657670de0b6b3a7640000838002049250818310615cee579283019260019290921c915b60011c615cc6565b50919695505050505050565b60008080600019848609848602925082811083820303915050670de0b6b3a76400008110615d4d5760405163090638d560e41b8152600481018690526024810185905260440161129e565b6000670de0b6b3a7640000858709905081600003615d79575050670de0b6b3a764000090049050610cf2565b620400008184030492109003600160ee1b02177faccb18165bd6fe31ae1cf318dc5b51eee0e1ba569b88cd74c1773b91fac1066902905092915050565b6000808060001985870985870292508281108382030391505080600003615df057838281615de657615de6616a40565b04925050506111d2565b838110615e21576040516307639aaf60e41b815260048101879052602481018690526044810185905260640161129e565b60008486880960026001871981018816978890046003810283188082028403028082028403028082028403028082028403028082028403029081029092039091026000889003889004909101858311909403939093029303949094049190911702949350505050565b600054610100900460ff16615eb15760405162461bcd60e51b815260040161129e90616d01565b6142af33615871565b60606130798484600085615ffd565b615ed281615b0e565b6040516001600160a01b038216907fbc7cd75a20ee27fd9adebab32041f755214dbc6bffa90cc0225b39da2e5c2d3b90600090a250565b60606001600160a01b0383163b615f715760405162461bcd60e51b815260206004820152602660248201527f416464726573733a2064656c65676174652063616c6c20746f206e6f6e2d636f6044820152651b9d1c9858dd60d21b606482015260840161129e565b600080846001600160a01b031684604051615f8c9190616b82565b600060405180830381855af49150503d8060008114615fc7576040519150601f19603f3d011682016040523d82523d6000602084013e615fcc565b606091505b5091509150615ff48282604051806060016040528060278152602001616dc7602791396160cd565b95945050505050565b60608247101561605e5760405162461bcd60e51b815260206004820152602660248201527f416464726573733a20696e73756666696369656e742062616c616e636520666f6044820152651c8818d85b1b60d21b606482015260840161129e565b600080866001600160a01b0316858760405161607a9190616b82565b60006040518083038185875af1925050503d80600081146160b7576040519150601f19603f3d011682016040523d82523d6000602084013e6160bc565b606091505b50915091506133f5878383876160e6565b606083156160dc5750816111d2565b6111d2838361615b565b6060831561615557825160000361614e576001600160a01b0385163b61614e5760405162461bcd60e51b815260206004820152601d60248201527f416464726573733a2063616c6c20746f206e6f6e2d636f6e7472616374000000604482015260640161129e565b5081613079565b61307983835b81511561616b5781518083602001fd5b8060405162461bcd60e51b815260040161129e91906163b8565b508054600082559060005260206000209081019061159b9190616312565b6040805161020081019091526000610100820181815261012083018290526101408301829052610160830182905260606101808401526101a083018290526101c083018290526101e083019190915281908152602001616216604051806040016040528060008152602001600081525090565b8152602001616238604051806040016040528060008152602001600081525090565b815260200161626a60405180608001604052806000815260200160008152602001600081526020016000151581525090565b815260200161629360405180606001604052806000815260200160008152602001600081525090565b815260606020820181905260006040830181905291015290565b828054828255906000526020600020908101928215616302579160200282015b8281111561630257825182546001600160a01b0319166001600160a01b039091161782556020909201916001909101906162cd565b5061630e929150616312565b5090565b5b8082111561630e5760008155600101616313565b6001600160a01b038116811461159b57600080fd5b6000806040838503121561634f57600080fd5b823561635a81616327565b946020939093013593505050565b60005b8381101561638357818101518382015260200161636b565b50506000910152565b600081518084526163a4816020860160208601616368565b601f01601f19169290920160200192915050565b6020815260006111d2602083018461638c565b600080604083850312156163de57600080fd5b50508035926020909101359150565b6000602082840312156163ff57600080fd5b5035919050565b6101c080825288516001600160a01b0390811691830191909152602089015160ff166101e0830152604089015161ffff1661020083015260608901511661022082015260808801516101006102408301526000906164686102c084018261638c565b60a08b015161026085015260c08b015161028085015260e08b01516102a085015291506164a49050602083018980518252602090810151910152565b8651606083015260208701516080830152855160a0830152602086015160c0830152604086015160e083015260608601511515610100830152845161012083015260208501516101408301526040850151610160830152836101808301526165116101a083018415159052565b98975050505050505050565b60008060006060848603121561653257600080fd5b833561653d81616327565b9250602084013561654d81616327565b929592945050506040919091013590565b634e487b7160e01b600052604160045260246000fd5b600067ffffffffffffffff8084111561658f5761658f61655e565b604051601f8501601f19908116603f011681019082821181831017156165b7576165b761655e565b816040528093508581528686860111156165d057600080fd5b858560208301376000602087830101525050509392505050565b600082601f8301126165fb57600080fd5b6111d283833560208501616574565b600080600080600060a0868803121561662257600080fd5b8535945060208601359350604086013561ffff8116811461664257600080fd5b925060608601359150608086013567ffffffffffffffff81111561666557600080fd5b616671888289016165ea565b9150509295509295909350565b60006020828403121561669057600080fd5b81356111d281616327565b6000806000606084860312156166b057600080fd5b83359250602084013561654d81616327565b600080604083850312156166d557600080fd5b8235915060208301356166e781616327565b809150509250929050565b6000806040838503121561670557600080fd5b823561671081616327565b9150602083013567ffffffffffffffff81111561672c57600080fd5b8301601f8101851361673d57600080fd5b61674c85823560208401616574565b9150509250929050565b801515811461159b57600080fd5b60008060006060848603121561677957600080fd5b8335925060208401359150604084013561679281616756565b809150509250925092565b6000806000606084860312156167b257600080fd5b83356167bd81616327565b925060208401356167cd81616327565b9150604084013567ffffffffffffffff8111156167e957600080fd5b6167f5868287016165ea565b9150509250925092565b60008060006060848603121561681457600080fd5b8335925060208401359150604084013567ffffffffffffffff8111156167e957600080fd5b6000806040838503121561684c57600080fd5b823561685781616327565b915060208301356166e781616327565b6000806040838503121561687a57600080fd5b823561688581616327565b915060208301356166e781616756565b600181811c908216806168a957607f821691505b6020821081036168c957634e487b7160e01b600052602260045260246000fd5b50919050565b634e487b7160e01b600052603260045260246000fd5b634e487b7160e01b600052601160045260246000fd5b80820180821115610cf257610cf26168e5565b600181815b8085111561694957816000190482111561692f5761692f6168e5565b8085161561693c57918102915b93841c9390800290616913565b509250929050565b60008261696057506001610cf2565b8161696d57506000610cf2565b8160018114616983576002811461698d576169a9565b6001915050610cf2565b60ff84111561699e5761699e6168e5565b50506001821b610cf2565b5060208310610133831016604e8410600b84101617156169cc575081810a610cf2565b6169d6838361690e565b80600019048211156169ea576169ea6168e5565b029392505050565b60006111d260ff841683616951565b8082028115828204841417610cf257610cf26168e5565b6020808252600e908201526d139bdd08185d5d1a1bdc9a5e995960921b604082015260600190565b634e487b7160e01b600052601260045260246000fd5b600082616a7357634e487b7160e01b600052601260045260246000fd5b500490565b81810381811115610cf257610cf26168e5565b6020808252602c908201527f46756e6374696f6e206d7573742062652063616c6c6564207468726f7567682060408201526b19195b1959d85d1958d85b1b60a21b606082015260800190565b6020808252602c908201527f46756e6374696f6e206d7573742062652063616c6c6564207468726f7567682060408201526b6163746976652070726f787960a01b606082015260800190565b60208082526029908201527f54696d656c6f636b206e6f7420736574206f72206e6f7420636f6d706c6574656040820152686420696e2074696d6560b81b606082015260800190565b634e487b7160e01b600052603160045260246000fd5b60008251616b94818460208701616368565b9190910192915050565b600060208284031215616bb057600080fd5b815160ff811681146111d257600080fd5b601f82111561527657600081815260208120601f850160051c81016020861015616be85750805b601f850160051c820191505b81811015616c0757828155600101616bf4565b505050505050565b815167ffffffffffffffff811115616c2957616c2961655e565b616c3d81616c378454616895565b84616bc1565b602080601f831160018114616c725760008415616c5a5750858301515b600019600386901b1c1916600185901b178555616c07565b600085815260208120601f198616915b82811015616ca157888601518255948401946001909101908401616c82565b5085821015616cbf5787850151600019600388901b60f8161c191681555b5050505050600190811b01905550565b600060018201616ce157616ce16168e5565b5060010190565b600060208284031215616cfa57600080fd5b5051919050565b6020808252602b908201527f496e697469616c697a61626c653a20636f6e7472616374206973206e6f74206960408201526a6e697469616c697a696e6760a81b606082015260800190565b600060208284031215616d5e57600080fd5b81516111d281616756565b600060208284031215616d7b57600080fd5b81516111d28161632756fea3ea4fb8dee4d414198cb197af6eae4fe483c1a0b849dc50e53b9bf1a60e2166360894a13ba1a3210667c828492db98dca3e2076cc3735a920a3ca505d382bbc416464726573733a206c6f772d6c6576656c2064656c65676174652063616c6c206661696c6564a26469706673582212202db10e75ac5bbee8fd957bcbe4620447229295c693909bd31fc169b206c6b2a664736f6c63430008110033496e697469616c697a61626c653a20636f6e7472616374206973206e6f742069",
    "linkReferences": {}
  },
  "methodIdentifiers": {
    "acceptOwnershipTransfer()": "b842e87f",
    "activeStrategies(uint256)": "b20b2429",
    "activeTokens(uint256)": "9f224f35",
    "addNewBountyPool(address,address,string)": "804fd590",
    "allowance(address,address)": "dd62ed3e",
    "approve(address,uint256)": "095ea7b3",
    "balanceOf(address)": "70a08231",
    "balanceOf(address,uint256)": "00fdd58e",
    "billPremium(uint256)": "2dbe051e",
    "calcRequiredPremiumBalancePerPeriod(uint256,uint256)": "836ef1fa",
    "calculateEffectiveAPY(uint256,uint256)": "5c46f7b1",
    "claimPremium(uint256)": "f47ec3be",
    "collectAllSaloonProfits(address)": "ecd7fbed",
    "collectSaloonProfits(address,address)": "cf9564b9",
    "decimals()": "313ce567",
    "decreaseAllowance(address,uint256)": "a457c2d7",
    "getCurrentAPY(uint256)": "7fbf3853",
    "getMultiplier(uint256,uint256)": "8dbb1e3a",
    "increaseAllowance(address,uint256)": "39509351",
    "initialize(address)": "c4d66de8",
    "makeProjectDeposit(uint256,uint256,string)": "ae07f948",
    "name()": "06fdde03",
    "owner()": "8da5cb5b",
    "payBounty(uint256,address,uint256)": "3ac6ad7b",
    "pendingToken(uint256,address)": "48e43af4",
    "pidStrategies(uint256,bytes32)": "074ecf03",
    "poolInfo(uint256)": "1526fe27",
    "poolLength()": "081e3eda",
    "projectDepositWithdrawal(uint256,uint256)": "983c1ce0",
    "proxiableUUID()": "52d1902d",
    "saloonBountyProfit(address)": "e45abd0f",
    "saloonPremiumProfit(address)": "ca006148",
    "scheduleProjectDepositWithdrawal(uint256,uint256)": "5669cbef",
    "scheduleUnstake(uint256,uint256)": "91635b4e",
    "setAPYandPoolCapAndDeposit(uint256,uint256,uint16,uint256,string)": "30ca0794",
    "stake(uint256,address,uint256)": "6e9c931c",
    "stakerBalance(address,uint256)": "70882b47",
    "symbol()": "95d89b41",
    "tokenWhitelist(address)": "753d7563",
    "totalSupply()": "18160ddd",
    "transfer(address,uint256)": "a9059cbb",
    "transferFrom(address,address,uint256)": "23b872dd",
    "transferOwnership(address)": "f2fde38b",
    "unstake(uint256,uint256,bool)": "79b91d69",
    "updateStrategyFactoryAddress(address)": "3538fda0",
    "updateTokenWhitelist(address,bool)": "e5e97c65",
    "upgradeTo(address)": "3659cfe6",
    "upgradeToAndCall(address,bytes)": "4f1ef286",
    "userInfo(uint256,address)": "93f1a40b",
    "viewBountyBalance(uint256)": "6ac6d812",
    "viewBountyInfo(uint256)": "40ef2868",
    "viewHackerPayout(uint256)": "861e5f66",
    "viewMinProjectDeposit(uint256)": "1c6b323f",
    "viewPoolAPY(uint256)": "a27f9213",
    "viewPoolCap(uint256)": "39679ff4",
    "viewPoolPremiumInfo(uint256)": "b1a2d16f",
    "viewPoolTimelockInfo(uint256)": "ac30b856",
    "viewSaloonProfitBalance(address)": "718c7eef",
    "viewTotalStaked(uint256)": "dbdd6957",
    "viewUserInfo(uint256,address)": "a754ecb0",
    "viewUserUnclaimed(uint256,address)": "5e3b748b",
    "windDownBounty(uint256)": "bb7019c1"
  },
  "id": 41
}