{
  "abi": [
    {
      "anonymous": false,
      "inputs": [
        {
          "indexed": false,
          "internalType": "address",
          "name": "previousAdmin",
          "type": "address"
        },
        {
          "indexed": false,
          "internalType": "address",
          "name": "newAdmin",
          "type": "address"
        }
      ],
      "name": "AdminChanged",
      "type": "event"
    },
    {
      "anonymous": false,
      "inputs": [
        {
          "indexed": true,
          "internalType": "address",
          "name": "owner",
          "type": "address"
        },
        {
          "indexed": true,
          "internalType": "address",
          "name": "approved",
          "type": "address"
        },
        {
          "indexed": true,
          "internalType": "uint256",
          "name": "tokenId",
          "type": "uint256"
        }
      ],
      "name": "Approval",
      "type": "event"
    },
    {
      "anonymous": false,
      "inputs": [
        {
          "indexed": true,
          "internalType": "address",
          "name": "owner",
          "type": "address"
        },
        {
          "indexed": true,
          "internalType": "address",
          "name": "operator",
          "type": "address"
        },
        {
          "indexed": false,
          "internalType": "bool",
          "name": "approved",
          "type": "bool"
        }
      ],
      "name": "ApprovalForAll",
      "type": "event"
    },
    {
      "anonymous": false,
      "inputs": [
        {
          "indexed": true,
          "internalType": "address",
          "name": "beacon",
          "type": "address"
        }
      ],
      "name": "BeaconUpgraded",
      "type": "event"
    },
    {
      "anonymous": false,
      "inputs": [
        {
          "indexed": true,
          "internalType": "uint256",
          "name": "pid",
          "type": "uint256"
        },
        {
          "indexed": false,
          "internalType": "uint256",
          "name": "oldAmount",
          "type": "uint256"
        },
        {
          "indexed": false,
          "internalType": "uint256",
          "name": "newAmount",
          "type": "uint256"
        }
      ],
      "name": "BountyBalanceChanged",
      "type": "event"
    },
    {
      "anonymous": false,
      "inputs": [
        {
          "indexed": true,
          "internalType": "address",
          "name": "hunter",
          "type": "address"
        },
        {
          "indexed": true,
          "internalType": "address",
          "name": "token",
          "type": "address"
        },
        {
          "indexed": false,
          "internalType": "uint256",
          "name": "amount",
          "type": "uint256"
        }
      ],
      "name": "BountyPaid",
      "type": "event"
    },
    {
      "anonymous": false,
      "inputs": [
        {
          "indexed": false,
          "internalType": "uint8",
          "name": "version",
          "type": "uint8"
        }
      ],
      "name": "Initialized",
      "type": "event"
    },
    {
      "anonymous": false,
      "inputs": [
        {
          "indexed": true,
          "internalType": "uint256",
          "name": "pid",
          "type": "uint256"
        },
        {
          "indexed": true,
          "internalType": "address",
          "name": "token",
          "type": "address"
        },
        {
          "indexed": false,
          "internalType": "uint256",
          "name": "tokenDecimals",
          "type": "uint256"
        }
      ],
      "name": "NewBountyDeployed",
      "type": "event"
    },
    {
      "anonymous": false,
      "inputs": [
        {
          "indexed": true,
          "internalType": "address",
          "name": "previousOwner",
          "type": "address"
        },
        {
          "indexed": true,
          "internalType": "address",
          "name": "newOwner",
          "type": "address"
        }
      ],
      "name": "OwnershipTransferred",
      "type": "event"
    },
    {
      "anonymous": false,
      "inputs": [
        {
          "indexed": true,
          "internalType": "uint256",
          "name": "pid",
          "type": "uint256"
        },
        {
          "indexed": false,
          "internalType": "uint256",
          "name": "amount",
          "type": "uint256"
        }
      ],
      "name": "PremiumBilled",
      "type": "event"
    },
    {
      "anonymous": false,
      "inputs": [
        {
          "indexed": true,
          "internalType": "address",
          "name": "user",
          "type": "address"
        },
        {
          "indexed": true,
          "internalType": "uint256",
          "name": "pid",
          "type": "uint256"
        },
        {
          "indexed": false,
          "internalType": "uint256",
          "name": "amount",
          "type": "uint256"
        }
      ],
      "name": "Staked",
      "type": "event"
    },
    {
      "anonymous": false,
      "inputs": [
        {
          "indexed": true,
          "internalType": "address",
          "name": "from",
          "type": "address"
        },
        {
          "indexed": true,
          "internalType": "address",
          "name": "to",
          "type": "address"
        },
        {
          "indexed": true,
          "internalType": "uint256",
          "name": "tokenId",
          "type": "uint256"
        }
      ],
      "name": "Transfer",
      "type": "event"
    },
    {
      "anonymous": false,
      "inputs": [
        {
          "indexed": true,
          "internalType": "address",
          "name": "user",
          "type": "address"
        },
        {
          "indexed": true,
          "internalType": "uint256",
          "name": "pid",
          "type": "uint256"
        },
        {
          "indexed": false,
          "internalType": "uint256",
          "name": "amount",
          "type": "uint256"
        }
      ],
      "name": "Unstaked",
      "type": "event"
    },
    {
      "anonymous": false,
      "inputs": [
        {
          "indexed": true,
          "internalType": "address",
          "name": "implementation",
          "type": "address"
        }
      ],
      "name": "Upgraded",
      "type": "event"
    },
    {
      "anonymous": false,
      "inputs": [
        {
          "indexed": true,
          "internalType": "uint256",
          "name": "pid",
          "type": "uint256"
        },
        {
          "indexed": false,
          "internalType": "uint256",
          "name": "amount",
          "type": "uint256"
        }
      ],
      "name": "WithdrawalOrUnstakeScheduled",
      "type": "event"
    },
    {
      "anonymous": false,
      "inputs": [
        {
          "indexed": true,
          "internalType": "address",
          "name": "referrer",
          "type": "address"
        },
        {
          "indexed": false,
          "internalType": "uint256",
          "name": "amount",
          "type": "uint256"
        }
      ],
      "name": "referralPaid",
      "type": "event"
    },
    {
      "anonymous": false,
      "inputs": [
        {
          "indexed": true,
          "internalType": "address",
          "name": "token",
          "type": "address"
        },
        {
          "indexed": true,
          "internalType": "bool",
          "name": "whitelisted",
          "type": "bool"
        }
      ],
      "name": "tokenWhitelistUpdated",
      "type": "event"
    },
    {
      "inputs": [],
      "name": "acceptOwnershipTransfer",
      "outputs": [],
      "stateMutability": "nonpayable",
      "type": "function"
    },
    {
      "inputs": [
        {
          "internalType": "uint256",
          "name": "",
          "type": "uint256"
        }
      ],
      "name": "activeStrategies",
      "outputs": [
        {
          "internalType": "bytes32",
          "name": "",
          "type": "bytes32"
        }
      ],
      "stateMutability": "view",
      "type": "function"
    },
    {
      "inputs": [
        {
          "internalType": "uint256",
          "name": "",
          "type": "uint256"
        }
      ],
      "name": "activeTokens",
      "outputs": [
        {
          "internalType": "address",
          "name": "",
          "type": "address"
        }
      ],
      "stateMutability": "view",
      "type": "function"
    },
    {
      "inputs": [
        {
          "internalType": "address",
          "name": "_token",
          "type": "address"
        },
        {
          "internalType": "address",
          "name": "_projectWallet",
          "type": "address"
        },
        {
          "internalType": "string",
          "name": "_projectName",
          "type": "string"
        },
        {
          "internalType": "address",
          "name": "_referrer",
          "type": "address"
        },
        {
          "internalType": "uint256",
          "name": "_referralFee",
          "type": "uint256"
        },
        {
          "internalType": "uint256",
          "name": "_referralEndTime",
          "type": "uint256"
        }
      ],
      "name": "addNewBountyPool",
      "outputs": [
        {
          "internalType": "uint256",
          "name": "",
          "type": "uint256"
        }
      ],
      "stateMutability": "nonpayable",
      "type": "function"
    },
    {
      "inputs": [
        {
          "internalType": "address",
          "name": "to",
          "type": "address"
        },
        {
          "internalType": "uint256",
          "name": "tokenId",
          "type": "uint256"
        }
      ],
      "name": "approve",
      "outputs": [],
      "stateMutability": "nonpayable",
      "type": "function"
    },
    {
      "inputs": [
        {
          "internalType": "address",
          "name": "owner",
          "type": "address"
        }
      ],
      "name": "balanceOf",
      "outputs": [
        {
          "internalType": "uint256",
          "name": "",
          "type": "uint256"
        }
      ],
      "stateMutability": "view",
      "type": "function"
    },
    {
      "inputs": [
        {
          "internalType": "uint256",
          "name": "_pid",
          "type": "uint256"
        }
      ],
      "name": "billPremium",
      "outputs": [
        {
          "internalType": "bool",
          "name": "",
          "type": "bool"
        }
      ],
      "stateMutability": "nonpayable",
      "type": "function"
    },
    {
      "inputs": [
        {
          "internalType": "uint256",
          "name": "_poolCap",
          "type": "uint256"
        },
        {
          "internalType": "uint256",
          "name": "_apy",
          "type": "uint256"
        }
      ],
      "name": "calcRequiredPremiumBalancePerPeriod",
      "outputs": [
        {
          "internalType": "uint256",
          "name": "requiredPremiumBalance",
          "type": "uint256"
        }
      ],
      "stateMutability": "pure",
      "type": "function"
    },
    {
      "inputs": [
        {
          "internalType": "uint256",
          "name": "_pid",
          "type": "uint256"
        },
        {
          "internalType": "uint256",
          "name": "_stake",
          "type": "uint256"
        },
        {
          "internalType": "uint256",
          "name": "_x",
          "type": "uint256"
        }
      ],
      "name": "calculateEffectiveAPY",
      "outputs": [
        {
          "internalType": "uint256",
          "name": "scaledAPY",
          "type": "uint256"
        }
      ],
      "stateMutability": "view",
      "type": "function"
    },
    {
      "inputs": [
        {
          "internalType": "uint256",
          "name": "_tokenId",
          "type": "uint256"
        }
      ],
      "name": "claimPremium",
      "outputs": [],
      "stateMutability": "nonpayable",
      "type": "function"
    },
    {
      "inputs": [],
      "name": "collectAllReferralProfits",
      "outputs": [
        {
          "internalType": "bool",
          "name": "",
          "type": "bool"
        }
      ],
      "stateMutability": "nonpayable",
      "type": "function"
    },
    {
      "inputs": [
        {
          "internalType": "address",
          "name": "_saloonWallet",
          "type": "address"
        }
      ],
      "name": "collectAllSaloonProfits",
      "outputs": [
        {
          "internalType": "bool",
          "name": "",
          "type": "bool"
        }
      ],
      "stateMutability": "nonpayable",
      "type": "function"
    },
    {
      "inputs": [
        {
          "internalType": "address",
          "name": "_token",
          "type": "address"
        }
      ],
      "name": "collectReferralProfit",
      "outputs": [
        {
          "internalType": "bool",
          "name": "",
          "type": "bool"
        }
      ],
      "stateMutability": "nonpayable",
      "type": "function"
    },
    {
      "inputs": [
        {
          "internalType": "address",
          "name": "_token",
          "type": "address"
        },
        {
          "internalType": "address",
          "name": "_saloonWallet",
          "type": "address"
        }
      ],
      "name": "collectSaloonProfits",
      "outputs": [
        {
          "internalType": "bool",
          "name": "",
          "type": "bool"
        }
      ],
      "stateMutability": "nonpayable",
      "type": "function"
    },
    {
      "inputs": [],
      "name": "compoundYieldForAll",
      "outputs": [],
      "stateMutability": "nonpayable",
      "type": "function"
    },
    {
      "inputs": [
        {
          "internalType": "uint256",
          "name": "_pid",
          "type": "uint256"
        }
      ],
      "name": "compoundYieldForPid",
      "outputs": [],
      "stateMutability": "nonpayable",
      "type": "function"
    },
    {
      "inputs": [
        {
          "internalType": "uint256",
          "name": "_pid",
          "type": "uint256"
        }
      ],
      "name": "consolidate",
      "outputs": [],
      "stateMutability": "nonpayable",
      "type": "function"
    },
    {
      "inputs": [],
      "name": "consolidateAll",
      "outputs": [],
      "stateMutability": "nonpayable",
      "type": "function"
    },
    {
      "inputs": [
        {
          "internalType": "uint256",
          "name": "_pid",
          "type": "uint256"
        },
        {
          "internalType": "uint256",
          "name": "_endTime",
          "type": "uint256"
        }
      ],
      "name": "extendReferralPeriod",
      "outputs": [],
      "stateMutability": "nonpayable",
      "type": "function"
    },
    {
      "inputs": [
        {
          "internalType": "address",
          "name": "_owner",
          "type": "address"
        }
      ],
      "name": "getAllTokensByOwner",
      "outputs": [
        {
          "components": [
            {
              "internalType": "uint256",
              "name": "pid",
              "type": "uint256"
            },
            {
              "internalType": "uint256",
              "name": "amount",
              "type": "uint256"
            },
            {
              "internalType": "uint256",
              "name": "xDelta",
              "type": "uint256"
            },
            {
              "internalType": "uint256",
              "name": "apy",
              "type": "uint256"
            },
            {
              "internalType": "uint256",
              "name": "unclaimed",
              "type": "uint256"
            },
            {
              "internalType": "uint256",
              "name": "lastClaimedTime",
              "type": "uint256"
            },
            {
              "internalType": "uint256",
              "name": "timelock",
              "type": "uint256"
            },
            {
              "internalType": "uint256",
              "name": "timelimit",
              "type": "uint256"
            },
            {
              "internalType": "bool",
              "name": "hasUnstaked",
              "type": "bool"
            }
          ],
          "internalType": "struct ISaloon.NFTInfo[]",
          "name": "userTokens",
          "type": "tuple[]"
        }
      ],
      "stateMutability": "view",
      "type": "function"
    },
    {
      "inputs": [
        {
          "internalType": "uint256",
          "name": "tokenId",
          "type": "uint256"
        }
      ],
      "name": "getApproved",
      "outputs": [
        {
          "internalType": "address",
          "name": "",
          "type": "address"
        }
      ],
      "stateMutability": "view",
      "type": "function"
    },
    {
      "inputs": [
        {
          "internalType": "uint256",
          "name": "_pid",
          "type": "uint256"
        }
      ],
      "name": "getCurrentAPY",
      "outputs": [
        {
          "internalType": "uint256",
          "name": "currentAPY",
          "type": "uint256"
        }
      ],
      "stateMutability": "view",
      "type": "function"
    },
    {
      "inputs": [],
      "name": "index",
      "outputs": [
        {
          "internalType": "uint256",
          "name": "",
          "type": "uint256"
        }
      ],
      "stateMutability": "view",
      "type": "function"
    },
    {
      "inputs": [
        {
          "internalType": "address",
          "name": "_strategyFactory",
          "type": "address"
        }
      ],
      "name": "initialize",
      "outputs": [],
      "stateMutability": "nonpayable",
      "type": "function"
    },
    {
      "inputs": [
        {
          "internalType": "address",
          "name": "owner",
          "type": "address"
        },
        {
          "internalType": "address",
          "name": "operator",
          "type": "address"
        }
      ],
      "name": "isApprovedForAll",
      "outputs": [
        {
          "internalType": "bool",
          "name": "",
          "type": "bool"
        }
      ],
      "stateMutability": "view",
      "type": "function"
    },
    {
      "inputs": [
        {
          "internalType": "uint256",
          "name": "_pid",
          "type": "uint256"
        },
        {
          "internalType": "uint256",
          "name": "_deposit",
          "type": "uint256"
        },
        {
          "internalType": "string",
          "name": "_strategyName",
          "type": "string"
        }
      ],
      "name": "makeProjectDeposit",
      "outputs": [],
      "stateMutability": "nonpayable",
      "type": "function"
    },
    {
      "inputs": [
        {
          "internalType": "address",
          "name": "",
          "type": "address"
        }
      ],
      "name": "minTokenStakeAmount",
      "outputs": [
        {
          "internalType": "uint256",
          "name": "",
          "type": "uint256"
        }
      ],
      "stateMutability": "view",
      "type": "function"
    },
    {
      "inputs": [],
      "name": "name",
      "outputs": [
        {
          "internalType": "string",
          "name": "",
          "type": "string"
        }
      ],
      "stateMutability": "view",
      "type": "function"
    },
    {
      "inputs": [
        {
          "internalType": "uint256",
          "name": "",
          "type": "uint256"
        }
      ],
      "name": "nftInfo",
      "outputs": [
        {
          "internalType": "uint256",
          "name": "pid",
          "type": "uint256"
        },
        {
          "internalType": "uint256",
          "name": "amount",
          "type": "uint256"
        },
        {
          "internalType": "uint256",
          "name": "xDelta",
          "type": "uint256"
        },
        {
          "internalType": "uint256",
          "name": "apy",
          "type": "uint256"
        },
        {
          "internalType": "uint256",
          "name": "unclaimed",
          "type": "uint256"
        },
        {
          "internalType": "uint256",
          "name": "lastClaimedTime",
          "type": "uint256"
        },
        {
          "internalType": "uint256",
          "name": "timelock",
          "type": "uint256"
        },
        {
          "internalType": "uint256",
          "name": "timelimit",
          "type": "uint256"
        },
        {
          "internalType": "bool",
          "name": "hasUnstaked",
          "type": "bool"
        }
      ],
      "stateMutability": "view",
      "type": "function"
    },
    {
      "inputs": [],
      "name": "owner",
      "outputs": [
        {
          "internalType": "address",
          "name": "",
          "type": "address"
        }
      ],
      "stateMutability": "view",
      "type": "function"
    },
    {
      "inputs": [
        {
          "internalType": "uint256",
          "name": "tokenId",
          "type": "uint256"
        }
      ],
      "name": "ownerOf",
      "outputs": [
        {
          "internalType": "address",
          "name": "",
          "type": "address"
        }
      ],
      "stateMutability": "view",
      "type": "function"
    },
    {
      "inputs": [
        {
          "internalType": "uint256",
          "name": "__pid",
          "type": "uint256"
        },
        {
          "internalType": "address",
          "name": "_hunter",
          "type": "address"
        },
        {
          "internalType": "uint16",
          "name": "_payoutBPS",
          "type": "uint16"
        },
        {
          "internalType": "uint16",
          "name": "_hunterBonusBPS",
          "type": "uint16"
        }
      ],
      "name": "payBounty",
      "outputs": [],
      "stateMutability": "nonpayable",
      "type": "function"
    },
    {
      "inputs": [
        {
          "internalType": "uint256",
          "name": "",
          "type": "uint256"
        },
        {
          "internalType": "uint256",
          "name": "",
          "type": "uint256"
        }
      ],
      "name": "pidNFTList",
      "outputs": [
        {
          "internalType": "uint256",
          "name": "",
          "type": "uint256"
        }
      ],
      "stateMutability": "view",
      "type": "function"
    },
    {
      "inputs": [
        {
          "internalType": "uint256",
          "name": "",
          "type": "uint256"
        },
        {
          "internalType": "bytes32",
          "name": "",
          "type": "bytes32"
        }
      ],
      "name": "pidStrategies",
      "outputs": [
        {
          "internalType": "address",
          "name": "",
          "type": "address"
        }
      ],
      "stateMutability": "view",
      "type": "function"
    },
    {
      "inputs": [
        {
          "internalType": "uint256",
          "name": "",
          "type": "uint256"
        }
      ],
      "name": "poolInfo",
      "outputs": [
        {
          "components": [
            {
              "internalType": "contract IERC20",
              "name": "token",
              "type": "address"
            },
            {
              "internalType": "uint8",
              "name": "tokenDecimals",
              "type": "uint8"
            },
            {
              "internalType": "uint16",
              "name": "apy",
              "type": "uint16"
            },
            {
              "internalType": "address",
              "name": "projectWallet",
              "type": "address"
            },
            {
              "internalType": "string",
              "name": "projectName",
              "type": "string"
            },
            {
              "internalType": "uint256",
              "name": "poolCap",
              "type": "uint256"
            },
            {
              "internalType": "uint256",
              "name": "totalStaked",
              "type": "uint256"
            },
            {
              "internalType": "uint256",
              "name": "scalingMultiplier",
              "type": "uint256"
            }
          ],
          "internalType": "struct ISaloon.GeneralInfo",
          "name": "generalInfo",
          "type": "tuple"
        },
        {
          "components": [
            {
              "internalType": "uint256",
              "name": "projectDepositHeld",
              "type": "uint256"
            },
            {
              "internalType": "uint256",
              "name": "projectDepositInStrategy",
              "type": "uint256"
            }
          ],
          "internalType": "struct ISaloon.DepositInfo",
          "name": "depositInfo",
          "type": "tuple"
        },
        {
          "components": [
            {
              "internalType": "uint256",
              "name": "premiumBalance",
              "type": "uint256"
            },
            {
              "internalType": "uint256",
              "name": "premiumAvailable",
              "type": "uint256"
            }
          ],
          "internalType": "struct ISaloon.PremiumInfo",
          "name": "premiumInfo",
          "type": "tuple"
        },
        {
          "components": [
            {
              "internalType": "uint256",
              "name": "timelock",
              "type": "uint256"
            },
            {
              "internalType": "uint256",
              "name": "timeLimit",
              "type": "uint256"
            },
            {
              "internalType": "uint256",
              "name": "withdrawalScheduledAmount",
              "type": "uint256"
            },
            {
              "internalType": "bool",
              "name": "withdrawalExecuted",
              "type": "bool"
            }
          ],
          "internalType": "struct ISaloon.TimelockInfo",
          "name": "poolTimelock",
          "type": "tuple"
        },
        {
          "components": [
            {
              "internalType": "uint256",
              "name": "currentX",
              "type": "uint256"
            },
            {
              "internalType": "uint256",
              "name": "currentY",
              "type": "uint256"
            },
            {
              "internalType": "uint256",
              "name": "totalSupply",
              "type": "uint256"
            },
            {
              "internalType": "uint256[]",
              "name": "unstakedTokens",
              "type": "uint256[]"
            }
          ],
          "internalType": "struct ISaloon.CurveInfo",
          "name": "curveInfo",
          "type": "tuple"
        },
        {
          "components": [
            {
              "internalType": "address",
              "name": "referrer",
              "type": "address"
            },
            {
              "internalType": "uint256",
              "name": "referralFee",
              "type": "uint256"
            },
            {
              "internalType": "uint256",
              "name": "endTime",
              "type": "uint256"
            }
          ],
          "internalType": "struct ISaloon.ReferralInfo",
          "name": "referralInfo",
          "type": "tuple"
        },
        {
          "internalType": "uint256",
          "name": "assessmentPeriodEnd",
          "type": "uint256"
        },
        {
          "internalType": "uint256",
          "name": "freezeTime",
          "type": "uint256"
        },
        {
          "internalType": "bool",
          "name": "isActive",
          "type": "bool"
        }
      ],
      "stateMutability": "view",
      "type": "function"
    },
    {
      "inputs": [
        {
          "internalType": "uint256",
          "name": "_pid",
          "type": "uint256"
        },
        {
          "internalType": "uint256",
          "name": "_amount",
          "type": "uint256"
        }
      ],
      "name": "projectDepositWithdrawal",
      "outputs": [
        {
          "internalType": "bool",
          "name": "",
          "type": "bool"
        }
      ],
      "stateMutability": "nonpayable",
      "type": "function"
    },
    {
      "inputs": [],
      "name": "proxiableUUID",
      "outputs": [
        {
          "internalType": "bytes32",
          "name": "",
          "type": "bytes32"
        }
      ],
      "stateMutability": "view",
      "type": "function"
    },
    {
      "inputs": [
        {
          "internalType": "address",
          "name": "_token",
          "type": "address"
        },
        {
          "internalType": "uint256",
          "name": "_amount",
          "type": "uint256"
        }
      ],
      "name": "receiveStrategyYield",
      "outputs": [],
      "stateMutability": "nonpayable",
      "type": "function"
    },
    {
      "inputs": [
        {
          "internalType": "address",
          "name": "",
          "type": "address"
        },
        {
          "internalType": "address",
          "name": "",
          "type": "address"
        }
      ],
      "name": "referralBalances",
      "outputs": [
        {
          "internalType": "uint256",
          "name": "",
          "type": "uint256"
        }
      ],
      "stateMutability": "view",
      "type": "function"
    },
    {
      "inputs": [
        {
          "internalType": "address",
          "name": "from",
          "type": "address"
        },
        {
          "internalType": "address",
          "name": "to",
          "type": "address"
        },
        {
          "internalType": "uint256",
          "name": "tokenId",
          "type": "uint256"
        }
      ],
      "name": "safeTransferFrom",
      "outputs": [],
      "stateMutability": "nonpayable",
      "type": "function"
    },
    {
      "inputs": [
        {
          "internalType": "address",
          "name": "from",
          "type": "address"
        },
        {
          "internalType": "address",
          "name": "to",
          "type": "address"
        },
        {
          "internalType": "uint256",
          "name": "tokenId",
          "type": "uint256"
        },
        {
          "internalType": "bytes",
          "name": "data",
          "type": "bytes"
        }
      ],
      "name": "safeTransferFrom",
      "outputs": [],
      "stateMutability": "nonpayable",
      "type": "function"
    },
    {
      "inputs": [
        {
          "internalType": "address",
          "name": "",
          "type": "address"
        }
      ],
      "name": "saloonBountyProfit",
      "outputs": [
        {
          "internalType": "uint256",
          "name": "",
          "type": "uint256"
        }
      ],
      "stateMutability": "view",
      "type": "function"
    },
    {
      "inputs": [
        {
          "internalType": "address",
          "name": "",
          "type": "address"
        }
      ],
      "name": "saloonPremiumProfit",
      "outputs": [
        {
          "internalType": "uint256",
          "name": "",
          "type": "uint256"
        }
      ],
      "stateMutability": "view",
      "type": "function"
    },
    {
      "inputs": [
        {
          "internalType": "address",
          "name": "",
          "type": "address"
        }
      ],
      "name": "saloonStrategyProfit",
      "outputs": [
        {
          "internalType": "uint256",
          "name": "",
          "type": "uint256"
        }
      ],
      "stateMutability": "view",
      "type": "function"
    },
    {
      "inputs": [
        {
          "internalType": "uint256",
          "name": "_pid",
          "type": "uint256"
        },
        {
          "internalType": "uint256",
          "name": "_amount",
          "type": "uint256"
        }
      ],
      "name": "scheduleProjectDepositWithdrawal",
      "outputs": [
        {
          "internalType": "bool",
          "name": "",
          "type": "bool"
        }
      ],
      "stateMutability": "nonpayable",
      "type": "function"
    },
    {
      "inputs": [
        {
          "internalType": "uint256",
          "name": "_tokenId",
          "type": "uint256"
        }
      ],
      "name": "scheduleUnstake",
      "outputs": [
        {
          "internalType": "bool",
          "name": "",
          "type": "bool"
        }
      ],
      "stateMutability": "nonpayable",
      "type": "function"
    },
    {
      "inputs": [
        {
          "internalType": "uint256",
          "name": "_pid",
          "type": "uint256"
        },
        {
          "internalType": "uint256",
          "name": "_poolCap",
          "type": "uint256"
        },
        {
          "internalType": "uint16",
          "name": "_apy",
          "type": "uint16"
        },
        {
          "internalType": "uint256",
          "name": "_deposit",
          "type": "uint256"
        },
        {
          "internalType": "string",
          "name": "_strategyName",
          "type": "string"
        }
      ],
      "name": "setAPYandPoolCapAndDeposit",
      "outputs": [],
      "stateMutability": "nonpayable",
      "type": "function"
    },
    {
      "inputs": [
        {
          "internalType": "address",
          "name": "operator",
          "type": "address"
        },
        {
          "internalType": "bool",
          "name": "approved",
          "type": "bool"
        }
      ],
      "name": "setApprovalForAll",
      "outputs": [],
      "stateMutability": "nonpayable",
      "type": "function"
    },
    {
      "inputs": [
        {
          "internalType": "uint256",
          "name": "_pid",
          "type": "uint256"
        },
        {
          "internalType": "uint256",
          "name": "_amount",
          "type": "uint256"
        }
      ],
      "name": "stake",
      "outputs": [
        {
          "internalType": "uint256",
          "name": "",
          "type": "uint256"
        }
      ],
      "stateMutability": "nonpayable",
      "type": "function"
    },
    {
      "inputs": [
        {
          "internalType": "address",
          "name": "",
          "type": "address"
        }
      ],
      "name": "strategyAddressToPid",
      "outputs": [
        {
          "internalType": "uint256",
          "name": "",
          "type": "uint256"
        }
      ],
      "stateMutability": "view",
      "type": "function"
    },
    {
      "inputs": [
        {
          "internalType": "bytes4",
          "name": "interfaceId",
          "type": "bytes4"
        }
      ],
      "name": "supportsInterface",
      "outputs": [
        {
          "internalType": "bool",
          "name": "",
          "type": "bool"
        }
      ],
      "stateMutability": "view",
      "type": "function"
    },
    {
      "inputs": [],
      "name": "symbol",
      "outputs": [
        {
          "internalType": "string",
          "name": "",
          "type": "string"
        }
      ],
      "stateMutability": "view",
      "type": "function"
    },
    {
      "inputs": [
        {
          "internalType": "uint256",
          "name": "tokenId",
          "type": "uint256"
        }
      ],
      "name": "tokenURI",
      "outputs": [
        {
          "internalType": "string",
          "name": "",
          "type": "string"
        }
      ],
      "stateMutability": "view",
      "type": "function"
    },
    {
      "inputs": [
        {
          "internalType": "address",
          "name": "",
          "type": "address"
        }
      ],
      "name": "tokenWhitelist",
      "outputs": [
        {
          "internalType": "bool",
          "name": "",
          "type": "bool"
        }
      ],
      "stateMutability": "view",
      "type": "function"
    },
    {
      "inputs": [
        {
          "internalType": "address",
          "name": "from",
          "type": "address"
        },
        {
          "internalType": "address",
          "name": "to",
          "type": "address"
        },
        {
          "internalType": "uint256",
          "name": "tokenId",
          "type": "uint256"
        }
      ],
      "name": "transferFrom",
      "outputs": [],
      "stateMutability": "nonpayable",
      "type": "function"
    },
    {
      "inputs": [
        {
          "internalType": "address",
          "name": "newOwner",
          "type": "address"
        }
      ],
      "name": "transferOwnership",
      "outputs": [],
      "stateMutability": "nonpayable",
      "type": "function"
    },
    {
      "inputs": [
        {
          "internalType": "uint256",
          "name": "_tokenId",
          "type": "uint256"
        },
        {
          "internalType": "bool",
          "name": "_shouldHarvest",
          "type": "bool"
        }
      ],
      "name": "unstake",
      "outputs": [
        {
          "internalType": "bool",
          "name": "",
          "type": "bool"
        }
      ],
      "stateMutability": "nonpayable",
      "type": "function"
    },
    {
      "inputs": [
        {
          "internalType": "uint256",
          "name": "_pid",
          "type": "uint256"
        },
        {
          "internalType": "address",
          "name": "_projectWallet",
          "type": "address"
        }
      ],
      "name": "updateProjectWalletAddress",
      "outputs": [],
      "stateMutability": "nonpayable",
      "type": "function"
    },
    {
      "inputs": [
        {
          "internalType": "address",
          "name": "_strategyFactory",
          "type": "address"
        }
      ],
      "name": "updateStrategyFactoryAddress",
      "outputs": [],
      "stateMutability": "nonpayable",
      "type": "function"
    },
    {
      "inputs": [
        {
          "internalType": "address",
          "name": "_token",
          "type": "address"
        },
        {
          "internalType": "bool",
          "name": "_whitelisted",
          "type": "bool"
        },
        {
          "internalType": "uint256",
          "name": "_minStakeAmount",
          "type": "uint256"
        }
      ],
      "name": "updateTokenWhitelist",
      "outputs": [
        {
          "internalType": "bool",
          "name": "",
          "type": "bool"
        }
      ],
      "stateMutability": "nonpayable",
      "type": "function"
    },
    {
      "inputs": [
        {
          "internalType": "address",
          "name": "newImplementation",
          "type": "address"
        }
      ],
      "name": "upgradeTo",
      "outputs": [],
      "stateMutability": "nonpayable",
      "type": "function"
    },
    {
      "inputs": [
        {
          "internalType": "address",
          "name": "newImplementation",
          "type": "address"
        },
        {
          "internalType": "bytes",
          "name": "data",
          "type": "bytes"
        }
      ],
      "name": "upgradeToAndCall",
      "outputs": [],
      "stateMutability": "payable",
      "type": "function"
    },
    {
      "inputs": [
        {
          "internalType": "uint256",
          "name": "_pid",
          "type": "uint256"
        }
      ],
      "name": "viewBountyBalance",
      "outputs": [
        {
          "internalType": "uint256",
          "name": "",
          "type": "uint256"
        }
      ],
      "stateMutability": "view",
      "type": "function"
    },
    {
      "inputs": [
        {
          "internalType": "uint256",
          "name": "_pid",
          "type": "uint256"
        }
      ],
      "name": "windDownBounty",
      "outputs": [
        {
          "internalType": "bool",
          "name": "",
          "type": "bool"
        }
      ],
      "stateMutability": "nonpayable",
      "type": "function"
    },
    {
      "inputs": [
        {
          "internalType": "uint256",
          "name": "_pid",
          "type": "uint256"
        }
      ],
      "name": "withdrawProjectYield",
      "outputs": [
        {
          "internalType": "uint256",
          "name": "returnedAmount",
          "type": "uint256"
        }
      ],
      "stateMutability": "nonpayable",
      "type": "function"
    }
  ],
  "bytecode": {
    "object": "0x60a0604052306080523480156200001557600080fd5b50600054610100900460ff1615808015620000375750600054600160ff909116105b8062000067575062000054306200019260201b6200549e1760201c565b15801562000067575060005460ff166001145b620000d05760405162461bcd60e51b815260206004820152602e60248201527f496e697469616c697a61626c653a20636f6e747261637420697320616c72656160448201526d191e481a5b9a5d1a585b1a5e995960921b60648201526084015b60405180910390fd5b6000805460ff191660011790558015620000f4576000805461ff0019166101001790555b620001446040518060400160405280600b81526020016a2137bab73a3caa37b5b2b760a91b8152506040518060400160405280600381526020016210951560ea1b815250620001a160201b60201c565b80156200018b576000805461ff0019169055604051600181527f7f26b83ff96e1f2b6a682f133852f6798a09c465da95921460cefb38474024989060200160405180910390a15b50620003fd565b6001600160a01b03163b151590565b600054610100900460ff16620001fd5760405162461bcd60e51b815260206004820152602b602482015260008051602062008a7083398151915260448201526a6e697469616c697a696e6760a81b6064820152608401620000c7565b6200020982826200020d565b5050565b600054610100900460ff16620002695760405162461bcd60e51b815260206004820152602b602482015260008051602062008a7083398151915260448201526a6e697469616c697a696e6760a81b6064820152608401620000c7565b61012e62000278838262000331565b5061012f62000288828262000331565b505050565b634e487b7160e01b600052604160045260246000fd5b600181811c90821680620002b857607f821691505b602082108103620002d957634e487b7160e01b600052602260045260246000fd5b50919050565b601f8211156200028857600081815260208120601f850160051c81016020861015620003085750805b601f850160051c820191505b81811015620003295782815560010162000314565b505050505050565b81516001600160401b038111156200034d576200034d6200028d565b62000365816200035e8454620002a3565b84620002df565b602080601f8311600181146200039d5760008415620003845750858301515b600019600386901b1c1916600185901b17855562000329565b600085815260208120601f198616915b82811015620003ce57888601518255948401946001909101908401620003ad565b5085821015620003ed5787850151600019600388901b60f8161c191681555b5050505050600190811b01905550565b60805161863b6200043560003960008181611ee001528181611f200152818161203d0152818161207d0152612110015261863b6000f3fe6080604052600436106103ce5760003560e01c80637fbf3853116101fd578063b842e87f11610118578063db53e8b5116100ab578063e9fda7d41161007a578063e9fda7d414610cb2578063ecd7fbed14610cdf578063f2fde38b14610cff578063f47ec3be14610d1f578063f68ce49914610d3f57600080fd5b8063db53e8b514610bfa578063e45abd0f14610c1a578063e78ea3df14610c48578063e985e9c514610c6857600080fd5b8063c87b56dd116100e7578063c87b56dd14610b6c578063ca00614814610b8c578063cf9564b914610bba578063d075afac14610bda57600080fd5b8063b842e87f14610af7578063b88d4fde14610b0c578063bb7019c114610b2c578063c4d66de814610b4c57600080fd5b8063983c1ce011610190578063a089a5201161015f578063a089a52014610a69578063a22cb46514610a89578063ae07f94814610aa9578063b20b242914610ac957600080fd5b8063983c1ce0146109e9578063995974c414610a095780639ebea88c14610a295780639f224f3514610a4957600080fd5b8063949a4a4a116101cc578063949a4a4a14610966578063957deecc1461098657806395d89b41146109b457806396ea48e8146109c957600080fd5b80637fbf3853146108e857806381c6f1a714610908578063836ef1fa146109285780638da5cb5b1461094857600080fd5b80633538fda0116102ed578063598d17bf1161028057806370a082311161024f57806370a0823114610862578063753d75631461088257806375bfd63d146108b35780637b0472f0146108c857600080fd5b8063598d17bf146107d45780635de406dc146108025780636352211e146108225780636ac6d8121461084257600080fd5b806342842e0e116102bc57806342842e0e1461076c5780634f1ef2861461078c57806352d1902d1461079f5780635669cbef146107b457600080fd5b80633538fda0146106e95780633659cfe61461070957806339458723146107295780633e8888d91461075757600080fd5b80631aebcecb116103655780632cb0dfcc116103345780632cb0dfcc146106695780632dbe051e1461068957806330ca0794146106a957806332fce602146106c957600080fd5b80631aebcecb146105625780631f8bc7901461058257806323b872dd146106325780632986c0e51461065257600080fd5b8063081812fc116103a1578063081812fc146104cb578063095ea7b3146104eb578063106d08df1461050d5780631526fe271461052d57600080fd5b8063011b408b146103d357806301ffc9a71461041f57806306fdde031461044f578063074ecf0314610471575b600080fd5b3480156103df57600080fd5b5061040c6103ee3660046176fc565b61016860209081526000928352604080842090915290825290205481565b6040519081526020015b60405180910390f35b34801561042b57600080fd5b5061043f61043a36600461774b565b610d54565b6040519015158152602001610416565b34801561045b57600080fd5b50610464610da6565b60405161041691906177b8565b34801561047d57600080fd5b506104b361048c3660046177cb565b61016a6020908152600092835260408084209091529082529020546001600160a01b031681565b6040516001600160a01b039091168152602001610416565b3480156104d757600080fd5b506104b36104e63660046177ed565b610e39565b3480156104f757600080fd5b5061050b610506366004617806565b610e61565b005b34801561051957600080fd5b5061043f6105283660046177ed565b610f7b565b34801561053957600080fd5b5061054d6105483660046177ed565b611062565b6040516104169998979695949392919061789d565b34801561056e57600080fd5b5061050b61057d366004617806565b6112c4565b34801561058e57600080fd5b506105ec61059d3660046177ed565b6101636020526000908152604090208054600182015460028301546003840154600485015460058601546006870154600788015460089098015496979596949593949293919290919060ff1689565b60408051998a5260208a0198909852968801959095526060870193909352608086019190915260a085015260c084015260e0830152151561010082015261012001610416565b34801561063e57600080fd5b5061050b61064d3660046179d2565b611483565b34801561065e57600080fd5b5061040c6101345481565b34801561067557600080fd5b5061043f610684366004617a21565b6114b4565b34801561069557600080fd5b5061043f6106a43660046177ed565b6116fc565b3480156106b557600080fd5b5061050b6106c4366004617b06565b611726565b3480156106d557600080fd5b5061040c6106e4366004617b71565b611a77565b3480156106f557600080fd5b5061050b610704366004617bf8565b611eab565b34801561071557600080fd5b5061050b610724366004617bf8565b611ed6565b34801561073557600080fd5b5061040c610744366004617bf8565b61016f6020526000908152604090205481565b34801561076357600080fd5b5061043f611fb5565b34801561077857600080fd5b5061050b6107873660046179d2565b612018565b61050b61079a366004617c15565b612033565b3480156107ab57600080fd5b5061040c612103565b3480156107c057600080fd5b5061043f6107cf3660046177cb565b6121b6565b3480156107e057600080fd5b5061040c6107ef366004617bf8565b6101676020526000908152604090205481565b34801561080e57600080fd5b5061050b61081d3660046177cb565b6122f5565b34801561082e57600080fd5b506104b361083d3660046177ed565b612380565b34801561084e57600080fd5b5061040c61085d3660046177ed565b6123e1565b34801561086e57600080fd5b5061040c61087d366004617bf8565b612693565b34801561088e57600080fd5b5061043f61089d366004617bf8565b61016d6020526000908152604090205460ff1681565b3480156108bf57600080fd5b5061050b61271a565b3480156108d457600080fd5b5061040c6108e33660046177cb565b612742565b3480156108f457600080fd5b5061040c6109033660046177ed565b612bc0565b34801561091457600080fd5b5061040c610923366004617c65565b612ed7565b34801561093457600080fd5b5061040c6109433660046177cb565b6131ba565b34801561095457600080fd5b506033546001600160a01b03166104b3565b34801561097257600080fd5b5061050b6109813660046177ed565b6131f0565b34801561099257600080fd5b5061040c6109a1366004617bf8565b61016c6020526000908152604090205481565b3480156109c057600080fd5b50610464613620565b3480156109d557600080fd5b5061040c6109e43660046177cb565b613630565b3480156109f557600080fd5b5061043f610a043660046177cb565b613662565b348015610a1557600080fd5b5061050b610a24366004617c91565b6137d9565b348015610a3557600080fd5b5061043f610a44366004617cb6565b613b3c565b348015610a5557600080fd5b506104b3610a643660046177ed565b613d10565b348015610a7557600080fd5b5061043f610a84366004617bf8565b613d3b565b348015610a9557600080fd5b5061050b610aa4366004617cdb565b613de8565b348015610ab557600080fd5b5061050b610ac4366004617d09565b613df3565b348015610ad557600080fd5b5061040c610ae43660046177ed565b61016b6020526000908152604090205481565b348015610b0357600080fd5b5061050b613eea565b348015610b1857600080fd5b5061050b610b27366004617d59565b613f6a565b348015610b3857600080fd5b5061043f610b473660046177ed565b613fa2565b348015610b5857600080fd5b5061050b610b67366004617bf8565b6142f8565b348015610b7857600080fd5b50610464610b873660046177ed565b614425565b348015610b9857600080fd5b5061040c610ba7366004617bf8565b6101666020526000908152604090205481565b348015610bc657600080fd5b5061043f610bd53660046176fc565b614498565b348015610be657600080fd5b5061050b610bf5366004617dc5565b614533565b348015610c0657600080fd5b5061040c610c153660046177ed565b614a33565b348015610c2657600080fd5b5061040c610c35366004617bf8565b6101656020526000908152604090205481565b348015610c5457600080fd5b5061050b610c633660046177ed565b614db9565b348015610c7457600080fd5b5061043f610c833660046176fc565b6001600160a01b0391821660009081526101336020908152604080832093909416825291909152205460ff1690565b348015610cbe57600080fd5b50610cd2610ccd366004617bf8565b61517a565b6040516104169190617e14565b348015610ceb57600080fd5b5061043f610cfa366004617bf8565b61531f565b348015610d0b57600080fd5b5061050b610d1a366004617bf8565b615382565b348015610d2b57600080fd5b5061050b610d3a3660046177ed565b615411565b348015610d4b57600080fd5b5061050b615476565b60006001600160e01b031982166380ac58cd60e01b1480610d8557506001600160e01b03198216635b5e139f60e01b145b80610da057506301ffc9a760e01b6001600160e01b03198316145b92915050565b606061012e8054610db690617ea1565b80601f0160208091040260200160405190810160405280929190818152602001828054610de290617ea1565b8015610e2f5780601f10610e0457610100808354040283529160200191610e2f565b820191906000526020600020905b815481529060010190602001808311610e1257829003601f168201915b5050505050905090565b6000610e44826154ad565b50600090815261013260205260409020546001600160a01b031690565b6000610e6c82612380565b9050806001600160a01b0316836001600160a01b031603610ede5760405162461bcd60e51b815260206004820152602160248201527f4552433732313a20617070726f76616c20746f2063757272656e74206f776e656044820152603960f91b60648201526084015b60405180910390fd5b336001600160a01b0382161480610efa5750610efa8133610c83565b610f6c5760405162461bcd60e51b815260206004820152603d60248201527f4552433732313a20617070726f76652063616c6c6572206973206e6f7420746f60448201527f6b656e206f776e6572206f7220617070726f76656420666f7220616c6c0000006064820152608401610ed5565b610f76838361550d565b505050565b6000610f8561557c565b610f8f33836155d5565b610fd15760405162461bcd60e51b815260206004820152601360248201527239b2b73232b91034b9903737ba1037bbb732b960691b6044820152606401610ed5565b6000828152610163602052604090208054610fef62093a8042617ef1565b600683015561100162093a8042617ef1565b61100e906203f480617ef1565b6007830155600182015460405190815281907fb3b9c925de3673837b40c6b4d4463a8f88dc821cd27e07f1ff6bf6abf96413a59060200160405180910390a260019250505061105d600160ca55565b919050565b610162818154811061107357600080fd5b60009182526020918290206040805161010081018252601890930290910180546001600160a01b03808216855260ff600160a01b8304169585019590955261ffff600160a81b9091041691830191909152600181015490921660608201526002820180549293509091839160808401916110ec90617ea1565b80601f016020809104026020016040519081016040528092919081815260200182805461111890617ea1565b80156111655780601f1061113a57610100808354040283529160200191611165565b820191906000526020600020905b81548152906001019060200180831161114857829003601f168201915b50505091835250506003820154602080830191909152600483015460408084019190915260059093015460609283015282518084018452600686015481526007860154818301528351808501855260088701548152600987015481840152845160808082018752600a8901548252600b89015482860152600c89015482880152600d89015460ff1615158287015286519081018752600e890180548252600f8a01548287015260108a01548289015260118a018054895181890281018901909a52808a52999a959994989397959692959194918601939290919083018282801561126e57602002820191906000526020600020905b81548152602001906001019080831161125a575b5050509190925250506040805160608101825260128501546001600160a01b0316815260138501546020820152601485015491810191909152601584015460168501546017909501549394919390925060ff1689565b6112d96001600160a01b038316333084615655565b5033600090815261016c602052604081205490819003611327576001600160a01b038316600090815261016760205260408120805484929061131c908490617ef1565b90915550610f769050565b600080600073__$4defa815a6c8401eda00ac6be9b95d3cdb$__63fc76fff386610162878154811061135b5761135b617f04565b906000526020600020906018020160120160020154610162888154811061138457611384617f04565b90600052602060002090601802016012016001015461016289815481106113ad576113ad617f04565b600091825260209091206018909102016012015460405160e086901b6001600160e01b03191681526004810194909452602484019290925260448301526001600160a01b03166064820152608401606060405180830381865af4158015611418573d6000803e3d6000fd5b505050506040513d601f19601f8201168201806040525081019061143c9190617f1a565b92509250925061144d8187846156c3565b6001600160a01b0386166000908152610167602052604081208054859290611476908490617ef1565b9091555050505050505050565b61148d33826155d5565b6114a95760405162461bcd60e51b8152600401610ed590617f53565b610f76838383615714565b60006114be615886565b6001600160a01b038416600090815261016d602052604090205460ff1615158315146115255760405162461bcd60e51b81526020600482015260166024820152751b9bc818da185b99d9481d1bc81dda1a5d195b1a5cdd60521b6044820152606401610ed5565b6001600160a01b038416600081815261016d6020526040808220805460ff191687151590811790915590519092917f99795d51e5a8804307721456a7a9c2f0d7421f719d46a46d36e91fee7c85aa7691a382156115dd5761016e8054600181019091557ff82fbbf6ecba5c6bca8ffdb165c351ca78f1011f756f9b1202212482fd7d83130180546001600160a01b0319166001600160a01b038616908117909155600090815261016f602052604090208290556116f1565b61016e5460005b818110156116ee57600061016e828154811061160257611602617f04565b6000918252602090912001546001600160a01b039081169150871681036116dd5761016e611631600185617fa0565b8154811061164157611641617f04565b60009182526020909120015461016e80546001600160a01b03909216918490811061166e5761166e617f04565b9060005260206000200160006101000a8154816001600160a01b0302191690836001600160a01b0316021790555061016e8054806116ae576116ae617fb3565b600082815260209020810160001990810180546001600160a01b031916905501905550600192506116f5915050565b506116e781617fc9565b90506115e4565b50505b5060015b9392505050565b600061170661557c565b61170e615886565b6117198260006158e0565b50600161105d600160ca55565b61172e61557c565b6000610162868154811061174457611744617f04565b60009182526020909120601890910201601781015490915060ff1615801561176e57506003810154155b6117ba5760405162461bcd60e51b815260206004820152601860248201527f506f6f6c20616c726561647920696e697469616c697a656400000000000000006044820152606401610ed5565b60008461ffff161180156117d457506127108461ffff1611155b6118135760405162461bcd60e51b815260206004820152601060248201526f415059206f7574206f662072616e676560801b6044820152606401610ed5565b805461182a90600160a01b900460ff16600a6180c6565b611836906103e86180d5565b85101580156118685750805461185790600160a01b900460ff16600a6180c6565b61186490629896806180d5565b8511155b6118ac5760405162461bcd60e51b8152602060048201526015602482015274506f6f6c20636170206f7574206f662072616e676560581b6044820152606401610ed5565b60018101546001600160a01b031633146118d85760405162461bcd60e51b8152600401610ed5906180ec565b60006118e8868661ffff166131ba565b905060006127106118fb6103e8846180d5565b6119059190618114565b90506000611912896123e1565b90506119363330611923868a617ef1565b87546001600160a01b0316929190615655565b508584600601600001600082825461194e9190617ef1565b909155505060038401889055835461ffff60a81b1916600160a81b61ffff89169081029190911785556040516334d5118560e01b8152600481019190915273__$4defa815a6c8401eda00ac6be9b95d3cdb$__906334d5118590602401602060405180830381865af41580156119c8573d6000803e3d6000fd5b505050506040513d601f19601f820116820180604052508101906119ec9190618136565b600585015560178401805460ff1916600117905560088401839055611a118284617fa0565b6009850155845115611a2a57611a28898688615afe565b505b6000611a358a6123e1565b60408051848152602081018390529192508b9160008051602061859f833981519152910160405180910390a25050505050611a70600160ca55565b5050505050565b6000611a81615886565b6001600160a01b038716600090815261016d602052604090205460ff16611ae25760405162461bcd60e51b81526020600482015260156024820152741d1bdad95b881b9bdd081dda1a5d195b1a5cdd1959605a1b6044820152606401610ed5565b611388831115611b2c5760405162461bcd60e51b81526020600482015260156024820152740e4cacccae4e4c2d840cccaca40e8dede40d0d2ced605b1b6044820152606401610ed5565b60408051600481526024810182526020810180516001600160e01b031663313ce56760e01b17905290516000916001600160a01b038a1691611b6e919061814f565b600060405180830381855afa9150503d8060008114611ba9576040519150601f19603f3d011682016040523d82523d6000602084013e611bae565b606091505b50915050600081806020019051810190611bc8919061816b565b905060068160ff161015611c175760405162461bcd60e51b815260206004820152601660248201527524b73b30b634b2103232b1b4b6b0b6103932ba3ab93760511b6044820152606401610ed5565b611c1f6174e7565b80516001600160a01b03808c16909152815160ff80851660209283015283518c8416606091820152845160809081018d905260a0860180518d87169052805185018c90525160409081018b905261016280546001810182556000919091528751805160189092027f29af0939a5988989bfee913a9ad10b9335cb63ebc9fd2b69e5f877d0455ac91981018054988301519483015161ffff16600160a81b0261ffff60a81b1995909816600160a01b026001600160a81b0319909916938a16939093179790971792909216949094178455918201517f29af0939a5988989bfee913a9ad10b9335cb63ebc9fd2b69e5f877d0455ac91a85018054919096166001600160a01b03199190911617909455928301518493919283917f29af0939a5988989bfee913a9ad10b9335cb63ebc9fd2b69e5f877d0455ac91b90910190611d6690826181dc565b5060a0820151600382015560c0820151600482015560e0909101516005909101556020828101518051600684015581015160078301556040808401518051600885015582015160098401556060808501518051600a86015580840151600b86015580830151600c860155810151600d8501805460ff191691151591909117905560808501518051600e860190815581850151600f8701559281015160108601559081015180519193611e209260118701929091019061761b565b50505060a082015180516012830180546001600160a01b0319166001600160a01b039092169190911790556020810151601383015560400151601482015560c0820151601582015560e08201516016820155610100909101516017909101805460ff191691151591909117905561016254611e9d90600190617fa0565b9a9950505050505050505050565b611eb3615886565b61016980546001600160a01b0319166001600160a01b0392909216919091179055565b6001600160a01b037f0000000000000000000000000000000000000000000000000000000000000000163003611f1e5760405162461bcd60e51b8152600401610ed59061829c565b7f00000000000000000000000000000000000000000000000000000000000000006001600160a01b0316611f676000805160206185bf833981519152546001600160a01b031690565b6001600160a01b031614611f8d5760405162461bcd60e51b8152600401610ed5906182e8565b611f9681615c3b565b60408051600080825260208201909252611fb291839190615c43565b50565b61016e54600090815b8181101561200f57600061016e8281548110611fdc57611fdc617f04565b6000918252602090912001546001600160a01b03169050611ffc81613d3b565b50508061200890617fc9565b9050611fbe565b50600191505090565b610f7683838360405180602001604052806000815250613f6a565b6001600160a01b037f000000000000000000000000000000000000000000000000000000000000000016300361207b5760405162461bcd60e51b8152600401610ed59061829c565b7f00000000000000000000000000000000000000000000000000000000000000006001600160a01b03166120c46000805160206185bf833981519152546001600160a01b031690565b6001600160a01b0316146120ea5760405162461bcd60e51b8152600401610ed5906182e8565b6120f382615c3b565b6120ff82826001615c43565b5050565b6000306001600160a01b037f000000000000000000000000000000000000000000000000000000000000000016146121a35760405162461bcd60e51b815260206004820152603860248201527f555550535570677261646561626c653a206d757374206e6f742062652063616c60448201527f6c6564207468726f7567682064656c656761746563616c6c00000000000000006064820152608401610ed5565b506000805160206185bf83398151915290565b60008061016284815481106121cd576121cd617f04565b9060005260206000209060180201905082816006016001015482600601600001546121f89190617ef1565b10156122465760405162461bcd60e51b815260206004820152601a60248201527f416d6f756e7420626967676572207468616e206465706f7369740000000000006044820152606401610ed5565b60018101546001600160a01b031633146122725760405162461bcd60e51b8152600401610ed5906180ec565b61227f62093a8042617ef1565b600a82015561229162093a8042617ef1565b61229e906203f480617ef1565b600b820155600c8101839055600d8101805460ff1916905560405183815284907fb3b9c925de3673837b40c6b4d4463a8f88dc821cd27e07f1ff6bf6abf96413a59060200160405180910390a25060019392505050565b6122fd615886565b6000610162838154811061231357612313617f04565b90600052602060002090601802019050806012016002015482116123795760405162461bcd60e51b815260206004820152601860248201527f63616e206f6e6c7920657874656e6420656e642074696d6500000000000000006044820152606401610ed5565b6014015550565b600081815261013060205260408120546001600160a01b031680610da05760405162461bcd60e51b8152602060048201526018602482015277115490cdcc8c4e881a5b9d985b1a59081d1bdad95b88125160421b6044820152606401610ed5565b60008061016283815481106123f8576123f8617f04565b6000918252602090912060408051610220810190915260189092020180546001600160a01b038082166101208501908152600160a01b830460ff16610140860152600160a81b90920461ffff1661016085015260018301541661018084015260028201805484929184916101a08501919061247290617ea1565b80601f016020809104026020016040519081016040528092919081815260200182805461249e90617ea1565b80156124eb5780601f106124c0576101008083540402835291602001916124eb565b820191906000526020600020905b8154815290600101906020018083116124ce57829003601f168201915b505050918352505060038201546020808301919091526004830154604080840191909152600590930154606092830152928452815180830183526006860154815260078601548185015284840152815180830183526008860154815260098601548185015284830152815160808082018452600a8701548252600b87015482860152600c87015482850152600d87015460ff161515828401528583019190915282518082018452600e870180548252600f880154828701526010880154828601526011880180548651818902810189019097528087529390970196919590949386019392908301828280156125ff57602002820191906000526020600020905b8154815260200190600101908083116125eb575b505050919092525050508152604080516060808201835260128501546001600160a01b0316825260138501546020838101919091526014860154838501528085019290925260158501549284019290925260168401549183019190915260179092015460ff1615156080909101528181015190810151905191925061268391617ef1565b815160c001516116f59190617ef1565b60006001600160a01b0382166126fd5760405162461bcd60e51b815260206004820152602960248201527f4552433732313a2061646472657373207a65726f206973206e6f7420612076616044820152683634b21037bbb732b960b91b6064820152608401610ed5565b506001600160a01b03166000908152610131602052604090205490565b6101625460005b818110156120ff57612732816131f0565b61273b81617fc9565b9050612721565b600061274c61557c565b826000610162828154811061276357612763617f04565b6000918252602090912060408051610220810190915260189092020180546001600160a01b038082166101208501908152600160a01b830460ff16610140860152600160a81b90920461ffff1661016085015260018301541661018084015260028201805484929184916101a0850191906127dd90617ea1565b80601f016020809104026020016040519081016040528092919081815260200182805461280990617ea1565b80156128565780601f1061282b57610100808354040283529160200191612856565b820191906000526020600020905b81548152906001019060200180831161283957829003601f168201915b505050918352505060038201546020808301919091526004830154604080840191909152600590930154606092830152928452815180830183526006860154815260078601548185015284840152815180830183526008860154815260098601548185015284830152815160808082018452600a8701548252600b87015482860152600c87015482850152600d87015460ff161515828401528583019190915282518082018452600e870180548252600f8801548287015260108801548286015260118801805486518189028101890190975280875293909701969195909493860193929083018282801561296a57602002820191906000526020600020905b815481526020019060010190808311612956575b505050919092525050508152604080516060808201835260128501546001600160a01b03168252601385015460208381019190915260148601548385015284019190915260158401549183019190915260168301549082015260179091015460ff161515608090910152610100810151909150612a1b5760405162461bcd60e51b815260206004820152600f60248201526e706f6f6c206e6f742061637469766560881b6044820152606401610ed5565b60006101628681548110612a3157612a31617f04565b60009182526020808320601890920290910180546001600160a01b0316835261016f909152604090912054909150851015612aa25760405162461bcd60e51b8152602060048201526011602482015270135a5b881cdd185ad9481b9bdd081b595d607a1b6044820152606401610ed5565b6000612aad876123e1565b8254909150612ac7906001600160a01b0316333089615655565b506000612ad5883389615dae565b905086836000016004016000828254612aee9190617ef1565b9091555050600383015460048401541115612b415760405162461bcd60e51b8152602060048201526013602482015272115e18d959591959081c1bdbdb081b1a5b5a5d606a1b6044820152606401610ed5565b604051878152889033907f1449c6dd7851abc30abf37f57715f492010519147cc2652fbc38202c18a6ee909060200160405180910390a36000612b83896123e1565b60408051858152602081018390529192508a9160008051602061859f833981519152910160405180910390a250945050505050610da0600160ca55565b6000806101628381548110612bd757612bd7617f04565b6000918252602090912060408051610220810190915260189092020180546001600160a01b038082166101208501908152600160a01b830460ff16610140860152600160a81b90920461ffff1661016085015260018301541661018084015260028201805484929184916101a085019190612c5190617ea1565b80601f0160208091040260200160405190810160405280929190818152602001828054612c7d90617ea1565b8015612cca5780601f10612c9f57610100808354040283529160200191612cca565b820191906000526020600020905b815481529060010190602001808311612cad57829003601f168201915b505050918352505060038201546020808301919091526004830154604080840191909152600590930154606092830152928452815180830183526006860154815260078601548185015284840152815180830183526008860154815260098601548185015284830152815160808082018452600a8701548252600b87015482860152600c87015482850152600d87015460ff161515828401528583019190915282518082018452600e870180548252600f88015482870152601088015482860152601188018054865181890281018901909752808752939097019691959094938601939290830182828015612dde57602002820191906000526020600020905b815481526020019060010190808311612dca575b505050919092525050508152604080516060808201835260128501546001600160a01b03168252601385015460208084019190915260148601548385015284019190915260158401548284015260168401549083015260179092015460ff16151560809182015282015151825160e001519151632500225b60e11b815260048101829052602481018390529293509173__$4defa815a6c8401eda00ac6be9b95d3cdb$__90634a0044b6906044015b602060405180830381865af4158015612eaa573d6000803e3d6000fd5b505050506040513d601f19601f82011682018060405250810190612ece9190618136565b95945050505050565b6000806101628581548110612eee57612eee617f04565b6000918252602090912060408051610220810190915260189092020180546001600160a01b038082166101208501908152600160a01b830460ff16610140860152600160a81b90920461ffff1661016085015260018301541661018084015260028201805484929184916101a085019190612f6890617ea1565b80601f0160208091040260200160405190810160405280929190818152602001828054612f9490617ea1565b8015612fe15780601f10612fb657610100808354040283529160200191612fe1565b820191906000526020600020905b815481529060010190602001808311612fc457829003601f168201915b505050918352505060038201546020808301919091526004830154604080840191909152600590930154606092830152928452815180830183526006860154815260078601548185015284840152815180830183526008860154815260098601548185015284830152815160808082018452600a8701548252600b87015482860152600c87015482850152600d87015460ff161515828401528583019190915282518082018452600e870180548252600f880154828701526010880154828601526011880180548651818902810189019097528087529390970196919590949386019392908301828280156130f557602002820191906000526020600020905b8154815260200190600101908083116130e1575b505050919092525050508152604080516060808201835260128501546001600160a01b03168252601385015460208084019190915260148601548385015284019190915260158401548284015260168401549083015260179092015460ff161515608090910152815160a081015160e0909101519151630d17449160e21b815260048101889052602481018790526044810191909152606481019190915290915073__$4defa815a6c8401eda00ac6be9b95d3cdb$__9063345d124490608401612e8d565b60006301e1338061271062093a806131d285876180d5565b6131dc91906180d5565b6131e69190618114565b6116f59190618114565b6000610162828154811061320657613206617f04565b6000918252602090912060408051610220810190915260189092020180546001600160a01b038082166101208501908152600160a01b830460ff16610140860152600160a81b90920461ffff1661016085015260018301541661018084015260028201805484929184916101a08501919061328090617ea1565b80601f01602080910402602001604051908101604052809291908181526020018280546132ac90617ea1565b80156132f95780601f106132ce576101008083540402835291602001916132f9565b820191906000526020600020905b8154815290600101906020018083116132dc57829003601f168201915b505050918352505060038201546020808301919091526004830154604080840191909152600590930154606092830152928452815180830183526006860154815260078601548185015284840152815180830183526008860154815260098601548185015284830152815160808082018452600a8701548252600b87015482860152600c87015482850152600d87015460ff161515828401528583019190915282518082018452600e870180548252600f8801548287015260108801548286015260118801805486518189028101890190975280875293909701969195909493860193929083018282801561340d57602002820191906000526020600020905b8154815260200190600101908083116133f9575b505050919092525050508152604080516060808201835260128501546001600160a01b03168252601385015460208381019190915260148601548385015284019190915260158401549183019190915260168301548183015260179092015460ff16151560809182015282015101518051919250908015806134925750826101000151155b1561349d5750505050565b60005b818110156134da576134ca8382815181106134bd576134bd617f04565b60200260200101516160b4565b6134d381617fc9565b90506134a0565b506000848152610164602090815260408083208054825181850281018501909352808352919290919083018282801561353257602002820191906000526020600020905b81548152602001906001019080831161351e575b5050835193945060009250829150505b828110156135b857600084828151811061355e5761355e617f04565b6020908102919091018101516000818152610163909252604090912060018101549192509061358e8b8287612ed7565b600383015560028201546135a29086617ef1565b9450505050806135b190617fc9565b9050613542565b508061016288815481106135ce576135ce617f04565b60009182526020909120601060189092020101556101628054889081106135f7576135f7617f04565b9060005260206000209060180201600e0160030160006136179190617666565b50505050505050565b606061012f8054610db690617ea1565b610164602052816000526040600020818154811061364d57600080fd5b90600052602060002001600091509150505481565b600061366c61557c565b6000610162848154811061368257613682617f04565b6000918252602090912060189091020160018101549091506001600160a01b031633146136c15760405162461bcd60e51b8152600401610ed5906180ec565b600a810154421180156136d75750600b81015442105b80156136e85750600d81015460ff16155b80156136f85750600c8101548311155b80156137075750600a81015415155b6137235760405162461bcd60e51b8152600401610ed590618334565b600d8101805460ff19166001179055600681015483111561374957613747846162e1565b505b6000613754856123e1565b90508382600601600001600082825461376d9190617fa0565b909155505060018201548254613790916001600160a01b03918216911686616446565b50600061379c866123e1565b6040805184815260208101839052919250879160008051602061859f833981519152910160405180910390a260019350505050610da0600160ca55565b81600061016282815481106137f0576137f0617f04565b6000918252602090912060408051610220810190915260189092020180546001600160a01b038082166101208501908152600160a01b830460ff16610140860152600160a81b90920461ffff1661016085015260018301541661018084015260028201805484929184916101a08501919061386a90617ea1565b80601f016020809104026020016040519081016040528092919081815260200182805461389690617ea1565b80156138e35780601f106138b8576101008083540402835291602001916138e3565b820191906000526020600020905b8154815290600101906020018083116138c657829003601f168201915b505050918352505060038201546020808301919091526004830154604080840191909152600590930154606092830152928452815180830183526006860154815260078601548185015284840152815180830183526008860154815260098601548185015284830152815160808082018452600a8701548252600b87015482860152600c87015482850152600d87015460ff161515828401528583019190915282518082018452600e870180548252600f880154828701526010880154828601526011880180548651818902810189019097528087529390970196919590949386019392908301828280156139f757602002820191906000526020600020905b8154815260200190600101908083116139e3575b505050919092525050508152604080516060808201835260128501546001600160a01b039081168352601386015460208085019190915260148701548486015285019290925260158501549284019290925260168401548284015260179093015460ff1615156080909201919091528251015191925016331480613a8557506033546001600160a01b031633145b613aa15760405162461bcd60e51b8152600401610ed5906180ec565b6001600160a01b038316613af05760405162461bcd60e51b8152602060048201526016602482015275496e76616c69642077616c6c6574206164647265737360501b6044820152606401610ed5565b826101628581548110613b0557613b05617f04565b6000918252602090912060189091020160010180546001600160a01b0319166001600160a01b039290921691909117905550505050565b6000613b4661557c565b613b5033846155d5565b613b925760405162461bcd60e51b815260206004820152601360248201527239b2b73232b91034b9903737ba1037bbb732b960691b6044820152606401610ed5565b600083815261016360205260408120805461016280549293919283908110613bbc57613bbc617f04565b90600052602060002090601802019050428360060154108015613be25750428360070154115b613bfe5760405162461bcd60e51b8152600401610ed590618334565b613c088686616479565b600183018054600091829055600685018290556007850182905590613c2c846123e1565b90508615613c3d57613c3d8861665c565b8115613c775781836000016004016000828254613c5a9190617fa0565b90915550508254613c75906001600160a01b03163384616446565b505b604051828152849033907f7fc4727e062e336010f2c282598ef5f14facb3de68cf8195c2f23e1454b2b74e9060200160405180910390a36000613cb9856123e1565b6040805184815260208101839052919250869160008051602061859f833981519152910160405180910390a2505050601101805460018181018355600092835260209092200186905592505050610da0600160ca55565b61016e8181548110613d2157600080fd5b6000918252602090912001546001600160a01b0316905081565b6000613d4561557c565b336000908152610168602090815260408083206001600160a01b03861684529091529020548015613dd957336000818152610168602090815260408083206001600160a01b0388168085529252822091909155613da29183616446565b5060405181815233907fbf7aaef98dccc47249def450ef0fd30757d553648a28fa7cd56e3b2b052724949060200160405180910390a25b600191505061105d600160ca55565b6120ff338383616700565b613dfb61557c565b60006101628481548110613e1157613e11617f04565b6000918252602090912060189091020160018101549091506001600160a01b03163314613e505760405162461bcd60e51b8152600401610ed5906180ec565b6000613e5b856123e1565b8254909150613e75906001600160a01b0316333087615655565b5083826006016000016000828254613e8d9190617ef1565b9091555050825115613ea657613ea4858486615afe565b505b6000613eb1866123e1565b6040805184815260208101839052919250879160008051602061859f833981519152910160405180910390a2505050610f76600160ca55565b6034546001600160a01b03163314613f535760405162461bcd60e51b815260206004820152602660248201527f6f6e6c792070656e64696e67206f776e65722063616e2061636365707420747260448201526530b739b332b960d11b6064820152608401610ed5565b603454613f68906001600160a01b03166167cf565b565b613f7433836155d5565b613f905760405162461bcd60e51b8152600401610ed590617f53565b613f9c8484848461682c565b50505050565b60008160006101628281548110613fbb57613fbb617f04565b6000918252602090912060408051610220810190915260189092020180546001600160a01b038082166101208501908152600160a01b830460ff16610140860152600160a81b90920461ffff1661016085015260018301541661018084015260028201805484929184916101a08501919061403590617ea1565b80601f016020809104026020016040519081016040528092919081815260200182805461406190617ea1565b80156140ae5780601f10614083576101008083540402835291602001916140ae565b820191906000526020600020905b81548152906001019060200180831161409157829003601f168201915b505050918352505060038201546020808301919091526004830154604080840191909152600590930154606092830152928452815180830183526006860154815260078601548185015284840152815180830183526008860154815260098601548185015284830152815160808082018452600a8701548252600b87015482860152600c87015482850152600d87015460ff161515828401528583019190915282518082018452600e870180548252600f880154828701526010880154828601526011880180548651818902810189019097528087529390970196919590949386019392908301828280156141c257602002820191906000526020600020905b8154815260200190600101908083116141ae575b505050919092525050508152604080516060808201835260128501546001600160a01b039081168352601386015460208085019190915260148701548486015285019290925260158501549284019290925260168401548284015260179093015460ff161515608090920191909152825101519192501633148061425057506033546001600160a01b031633145b61426c5760405162461bcd60e51b8152600401610ed5906180ec565b6000610162858154811061428257614282617f04565b60009182526020909120601890910201601781015490915060ff166142db5760405162461bcd60e51b815260206004820152600f60248201526e506f6f6c206e6f742061637469766560881b6044820152606401610ed5565b60178101805460ff19169055426016909101555060019392505050565b600054610100900460ff16158080156143185750600054600160ff909116105b806143325750303b158015614332575060005460ff166001145b6143955760405162461bcd60e51b815260206004820152602e60248201527f496e697469616c697a61626c653a20636f6e747261637420697320616c72656160448201526d191e481a5b9a5d1a585b1a5e995960921b6064820152608401610ed5565b6000805460ff1916600117905580156143b8576000805461ff0019166101001790555b6143c061685f565b61016980546001600160a01b0319166001600160a01b03841617905580156120ff576000805461ff0019169055604051600181527f7f26b83ff96e1f2b6a682f133852f6798a09c465da95921460cefb38474024989060200160405180910390a15050565b6060614430826154ad565b600061444760408051602081019091526000815290565b9050600081511161446757604051806020016040528060008152506116f5565b806144718461688e565b60405160200161448292919061837d565b6040516020818303038152906040529392505050565b60006144a2615886565b6001600160a01b038316600090815261016660209081526040808320546101678352818420546101659093529083205490916144dd91617ef1565b6144e79190617ef1565b6001600160a01b0385166000818152610165602090815260408083208390556101668252808320839055610167909152812055909150614528908483616446565b506001949350505050565b61453b615886565b6127108261ffff1611156145835760405162461bcd60e51b815260206004820152600f60248201526e0a0c2f2deeae840e8dede40d0d2ced608b1b6044820152606401610ed5565b6127108161ffff1611156145ca5760405162461bcd60e51b815260206004820152600e60248201526d084dedceae640e8dede40d0d2ced60931b6044820152606401610ed5565b6000849050600061016282815481106145e5576145e5617f04565b60009182526020822060046018909202019081015490925081614607856123e1565b9050600061271061461c61ffff8a16846180d5565b6146269190618114565b600087815261016460205260409020549091508382101561472d57600084614656670de0b6b3a7640000856180d5565b6146609190618114565b905060005b828110156147265760008981526101646020526040812080548390811061468e5761468e617f04565b90600052602060002001549050610163600082815260200190815260200160002097506146bc816000616479565b6000670de0b6b3a7640000848a600101546146d791906180d5565b6146e19190618114565b9050808960010160008282546146f79190617fa0565b909155505060048a018054829190600090614713908490617fa0565b9091555050600190920191506146659050565b505061484a565b83821015801561473d5750828211155b156148105760005b818110156147cd5760008881526101646020526040812080548390811061476e5761476e617f04565b906000526020600020015490506101636000828152602001908152602001600020965061479c816000616479565b600060018089018290556003890182905560118a018054808301825590835260209092209091019190915501614745565b50600060048701556147de876162e1565b5060006147eb8584617fa0565b9050808760060160000160008282546148049190617fa0565b9091555061484a915050565b60405162461bcd60e51b815260206004820152600f60248201526e082dadeeadce840e8dede40d0d2ced608b1b6044820152606401610ed5565b600061271061485d61ffff8b1682617fa0565b61271061486c6103e8876180d5565b6148769190618114565b61488091906180d5565b61488a9190618114565b6014880154601389015460128a015460405163fc76fff360e01b815260048101859052602481019390935260448301919091526001600160a01b031660648201529091506000908190819073__$4defa815a6c8401eda00ac6be9b95d3cdb$__9063fc76fff390608401606060405180830381865af4158015614911573d6000803e3d6000fd5b505050506040513d601f19601f820116820180604052508101906149359190617f1a565b8c5492955090935091506001600160a01b03166149538282856156c3565b6001600160a01b038116600090815261016560205260408120805486929061497c908490617ef1565b909155506149a190508f614990878a617fa0565b6001600160a01b0384169190616446565b50806001600160a01b03168f6001600160a01b03167fbcbf239e05ac65bcc1a5612cd36d392b0a0aa8c93e027bc86e72768748342488896040516149e791815260200190565b60405180910390a38b60008051602061859f83398151915289614a098f6123e1565b6040805192835260208301919091520160405180910390a250505050505050505050505050505050565b6000614a3d61557c565b60006101628381548110614a5357614a53617f04565b6000918252602090912060408051610220810190915260189092020180546001600160a01b038082166101208501908152600160a01b830460ff16610140860152600160a81b90920461ffff1661016085015260018301541661018084015260028201805484929184916101a085019190614acd90617ea1565b80601f0160208091040260200160405190810160405280929190818152602001828054614af990617ea1565b8015614b465780601f10614b1b57610100808354040283529160200191614b46565b820191906000526020600020905b815481529060010190602001808311614b2957829003601f168201915b505050918352505060038201546020808301919091526004830154604080840191909152600590930154606092830152928452815180830183526006860154815260078601548185015284840152815180830183526008860154815260098601548185015284830152815160808082018452600a8701548252600b87015482860152600c87015482850152600d87015460ff161515828401528583019190915282518082018452600e870180548252600f88015482870152601088015482860152601188018054865181890281018901909752808752939097019691959094938601939290830182828015614c5a57602002820191906000526020600020905b815481526020019060010190808311614c46575b505050919092525050508152604080516060808201835260128501546001600160a01b039081168352601386015460208085019190915260148701548486015285019290925260158501549284019290925260168401548284015260179093015460ff16151560809092019190915282510151919250163314614cef5760405162461bcd60e51b8152600401610ed5906180ec565b600083815261016b60205260409020548015614dad57600084815261016a602090815260408083208484528252808320548151633941ea2960e21b815291516001600160a01b0390911693849363e507a8a49360048082019492939183900301908290875af1158015614d66573d6000803e3d6000fd5b505050506040513d601f19601f82011682018060405250810190614d8a9190618136565b835160608101519051919550614daa916001600160a01b03169086616446565b50505b505061105d600160ca55565b8060006101628281548110614dd057614dd0617f04565b6000918252602090912060408051610220810190915260189092020180546001600160a01b038082166101208501908152600160a01b830460ff16610140860152600160a81b90920461ffff1661016085015260018301541661018084015260028201805484929184916101a085019190614e4a90617ea1565b80601f0160208091040260200160405190810160405280929190818152602001828054614e7690617ea1565b8015614ec35780601f10614e9857610100808354040283529160200191614ec3565b820191906000526020600020905b815481529060010190602001808311614ea657829003601f168201915b505050918352505060038201546020808301919091526004830154604080840191909152600590930154606092830152928452815180830183526006860154815260078601548185015284840152815180830183526008860154815260098601548185015284830152815160808082018452600a8701548252600b87015482860152600c87015482850152600d87015460ff161515828401528583019190915282518082018452600e870180548252600f88015482870152601088015482860152601188018054865181890281018901909752808752939097019691959094938601939290830182828015614fd757602002820191906000526020600020905b815481526020019060010190808311614fc3575b505050919092525050508152604080516060808201835260128501546001600160a01b039081168352601386015460208085019190915260148701548486015285019290925260158501549284019290925260168401548284015260179093015460ff161515608090920191909152825101519192501633148061506557506033546001600160a01b031633145b6150815760405162461bcd60e51b8152600401610ed5906180ec565b61508961557c565b600083815261016b602090815260408083205461016a8352818420818552909252909120546001600160a01b0316801561516e576000816001600160a01b031663f69e20466040518163ffffffff1660e01b81526004016020604051808303816000875af11580156150ff573d6000803e3d6000fd5b505050506040513d601f19601f820116820180604052508101906151239190618136565b9050615130600182617fa0565b610162878154811061514457615144617f04565b906000526020600020906018020160060160010160008282546151679190617ef1565b9091555050505b5050610f76600160ca55565b6001600160a01b0381166000908152610135602090815260408083208054825181850281018501909352808352606094938301828280156151da57602002820191906000526020600020905b8154815260200190600101908083116151c6575b50508351939450839250505067ffffffffffffffff8111156151fe576151fe617a63565b60405190808252806020026020018201604052801561523757816020015b615224617684565b81526020019060019003908161521c5790505b50925060005b8181101561531757610163600084838151811061525c5761525c617f04565b602002602001015181526020019081526020016000206040518061012001604052908160008201548152602001600182015481526020016002820154815260200160038201548152602001600482015481526020016005820154815260200160068201548152602001600782015481526020016008820160009054906101000a900460ff1615151515815250508482815181106152fb576152fb617f04565b60200260200101819052508061531090617fc9565b905061523d565b505050919050565b6000615329615886565b61016e5460005b818110156116f157600061016e828154811061534e5761534e617f04565b6000918252602090912001546001600160a01b0316905061536f8186614498565b50508061537b90617fc9565b9050615330565b61538a615886565b6001600160a01b0381166153ef5760405162461bcd60e51b815260206004820152602660248201527f4f776e61626c653a206e6577206f776e657220697320746865207a65726f206160448201526564647265737360d01b6064820152608401610ed5565b603480546001600160a01b0319166001600160a01b0392909216919091179055565b61541961557c565b61542333826155d5565b61543f5760405162461bcd60e51b8152600401610ed590617f53565b61544a816001616479565b60008181526101636020526040812060010154900361546c5761546c8161665c565b611fb2600160ca55565b6101625460005b818110156120ff5761548e81614db9565b61549781617fc9565b905061547d565b6001600160a01b03163b151590565b600081815261013060205260409020546001600160a01b0316611fb25760405162461bcd60e51b8152602060048201526018602482015277115490cdcc8c4e881a5b9d985b1a59081d1bdad95b88125160421b6044820152606401610ed5565b60008181526101326020526040902080546001600160a01b0319166001600160a01b038416908117909155819061554382612380565b6001600160a01b03167f8c5be1e5ebec7d5bd14f71427d1e84f3dd0314c0f7b2291e5b200ac8c7c3b92560405160405180910390a45050565b600260ca54036155ce5760405162461bcd60e51b815260206004820152601f60248201527f5265656e7472616e637947756172643a207265656e7472616e742063616c6c006044820152606401610ed5565b600260ca55565b6000806155e183612380565b9050806001600160a01b0316846001600160a01b0316148061562957506001600160a01b038082166000908152610133602090815260408083209388168352929052205460ff165b8061564d5750836001600160a01b031661564284610e39565b6001600160a01b0316145b949350505050565b6040516001600160a01b03808516602483015283166044820152606481018290526000906145289086906323b872dd60e01b906084015b60408051601f198184030181529190526020810180516001600160e01b03166001600160e01b03199093169290921790915261691f565b6001600160a01b03831615610f76576001600160a01b038084166000908152610168602090815260408083209386168352929052908120805483929061570a908490617ef1565b9091555050505050565b826001600160a01b031661572782612380565b6001600160a01b03161461574d5760405162461bcd60e51b8152600401610ed5906183ac565b6001600160a01b0382166157af5760405162461bcd60e51b8152602060048201526024808201527f4552433732313a207472616e7366657220746f20746865207a65726f206164646044820152637265737360e01b6064820152608401610ed5565b6157ba8383836169f1565b826001600160a01b03166157cd82612380565b6001600160a01b0316146157f35760405162461bcd60e51b8152600401610ed5906183ac565b60008181526101326020908152604080832080546001600160a01b03199081169091556001600160a01b03878116808652610131855283862080546000190190559087168086528386208054600101905586865261013090945282852080549092168417909155905184937fddf252ad1be2c89b69c2b068fc378daa952ba7f163c4a11628f55a4df523b3ef91a4505050565b6033546001600160a01b03163314613f685760405162461bcd60e51b815260206004820181905260248201527f4f776e61626c653a2063616c6c6572206973206e6f7420746865206f776e65726044820152606401610ed5565b600061016283815481106158f6576158f6617f04565b60009182526020822060189190910201600881015460038201548254929450859261592c9190600160a81b900461ffff166131ba565b6159369190617fa0565b6159409190617ef1565b60018301548354919250615962916001600160a01b0390811691163084615655565b508082600801600001600082825461597a9190617ef1565b90915550600090506127106159916103e8846180d5565b61599b9190618114565b60148401546013850154601286015460405163fc76fff360e01b815260048101859052602481019390935260448301919091526001600160a01b031660648201529091506000908190819073__$4defa815a6c8401eda00ac6be9b95d3cdb$__9063fc76fff390608401606060405180830381865af4158015615a22573d6000803e3d6000fd5b505050506040513d601f19601f82011682018060405250810190615a469190617f1a565b885492955090935091506001600160a01b0316615a648282856156c3565b6001600160a01b0381166000908152610166602052604081208054869290615a8d908490617ef1565b9091555060009050615a9f8688617fa0565b905080886008016001016000828254615ab89190617ef1565b90915550506040518781528a907fadb049ad2d09be3db90459a16aef1ad0a4d89e8fdcc1ade9429d6cc55abbcd2b9060200160405180910390a250505050505050505050565b6000806101628581548110615b1557615b15617f04565b90600052602060002090601802019050600084604051602001615b3891906177b8565b60408051601f198184030181529181528151602092830120600089815261016b909352912054909150808214615c31576000615b73886162e1565b90506000615b818989616a88565b90506001600160a01b03811615615c2e5760068501805460009091558190615baa600182617fa0565b60078801558654615bc5906001600160a01b03168483616446565b50816001600160a01b0316630b5090076040518163ffffffff1660e01b81526004016020604051808303816000875af1158015615c06573d6000803e3d6000fd5b505050506040513d601f19601f82011682018060405250810190615c2a9190618136565b5050505b50505b5050509392505050565b611fb2615886565b7f4910fdfa16fed3260ed0e7147f7cc6da11a60208b5b9406d12a635614ffd91435460ff1615615c7657610f7683616c17565b826001600160a01b03166352d1902d6040518163ffffffff1660e01b8152600401602060405180830381865afa925050508015615cd0575060408051601f3d908101601f19168201909252615ccd91810190618136565b60015b615d335760405162461bcd60e51b815260206004820152602e60248201527f45524331393637557067726164653a206e657720696d706c656d656e7461746960448201526d6f6e206973206e6f74205555505360901b6064820152608401610ed5565b6000805160206185bf8339815191528114615da25760405162461bcd60e51b815260206004820152602960248201527f45524331393637557067726164653a20756e737570706f727465642070726f786044820152681a58589b195555525160ba1b6064820152608401610ed5565b50610f76838383616cb3565b60006001600160a01b038316615e065760405162461bcd60e51b815260206004820152601f60248201527f45524332303a206d696e7420746f20746865207a65726f2061646472657373006044820152606401610ed5565b6000615e3b85846101628881548110615e2157615e21617f04565b9060005260206000209060180201600e0160000154612ed7565b90506000615e4885616cd8565b9050615e52617684565b86815260208101859052610162805460009173__$4defa815a6c8401eda00ac6be9b95d3cdb$__9163098952389189918c908110615e9257615e92617f04565b9060005260206000209060180201600001600301546040518363ffffffff1660e01b8152600401615ecd929190918252602082015260400190565b6040805180830381865af4158015615ee9573d6000803e3d6000fd5b505050506040513d601f19601f82011682018060405250810190615f0d91906183f1565b509050674563918244f40000816101628a81548110615f2e57615f2e617f04565b9060005260206000209060180201600e0160020154615f4d9190617ef1565b1115615f915760405162461bcd60e51b81526020600482015260136024820152721608189bdd5b99185c9e481d9a5bdb185d1959606a1b6044820152606401610ed5565b6040828101828152606084018681524260a086019081526000878152610163602090815285822088518155818901516001808301919091559551600282015593516003850155608088015160048501559151600584015560c0870151600684015560e087015160078401556101008701516008909301805460ff1916931515939093179092558b82526101648152928120805492830181558152919091200183905561016280548291908a90811061604b5761604b617f04565b9060005260206000209060180201600e01600201600082825461606e9190617ef1565b925050819055506160a7886101628a8154811061608d5761608d617f04565b9060005260206000209060180201600e0160020154616e8e565b5091979650505050505050565b60008181526101636020908152604080832081516101208101835281548082526001830154828601526002830154828501526003830154606083015260048301546080830152600583015460a0830152600683015460c0830152600783015460e083015260089092015460ff161515610100820152818552610164845282852080548451818702810187019095528085529195929492939290919083018282801561617e57602002820191906000526020600020905b81548152602001906001019080831161616a575b5050835193945060009250829150505b828110156161ce57868482815181106161a9576161a9617f04565b6020026020010151036161be578091506161ce565b6161c781617fc9565b905061618e565b5081811061621e5760405162461bcd60e51b815260206004820152601860248201527f546f6b656e206e6f7420666f756e6420696e20617272617900000000000000006044820152606401610ed5565b805b61622b600184617fa0565b811015616283578361623e826001617ef1565b8151811061624e5761624e617f04565b602002602001015184828151811061626857616268617f04565b602090810291909101015261627c81617fc9565b9050616220565b5060008481526101646020908152604090912084516162a49286019061761b565b506000848152610164602052604090208054806162c3576162c3617fb3565b60019003818190600052602060002001600090559055505050505050565b60008061016283815481106162f8576162f8617f04565b6000918252602080832086845261016b909152604083208054908490556018909202019250801561643e57600085815261016a602090815260408083208484528252808320548151637f1f087360e01b815291516001600160a01b0390911693928492637f1f08739260048083019392829003018187875af1158015616382573d6000803e3d6000fd5b505050506040513d601f19601f820116820180604052508101906163a69190618136565b6040516348b1933560e01b8152600481018290529091506001600160a01b038316906348b19335906024016020604051808303816000875af11580156163f0573d6000803e3d6000fd5b505050506040513d601f19601f820116820180604052508101906164149190618136565b6000600787018190556006870180549296508692909190616436908490617ef1565b909155505050505b509392505050565b6040516001600160a01b0383166024820152604481018290526000906116f190859063a9059cbb60e01b9060640161568c565b6000828152610163602052604081208054610162805492939192839081106164a3576164a3617f04565b90600052602060002090601802019050600080600073__$4defa815a6c8401eda00ac6be9b95d3cdb$__63ad6fa2338560160154886005015489600101548a600301548b600401546040518663ffffffff1660e01b8152600401616529959493929190948552602085019390935260408401919091526060830152608082015260a00190565b606060405180830381865af4158015616546573d6000803e3d6000fd5b505050506040513d601f19601f8201168201806040525081019061656a9190618415565b925092509250866165b8578360160154600003616587574261658d565b83601601545b8660050181905550808660040160008282546165a99190617ef1565b90915550505050505050505050565b60088401548311156165ce576165ce85846158e0565b821561665257600060048701819055601685015490036165ee57426165f4565b83601601545b6005870155600884018054849190600090616610908490617fa0565b909155505060098401805483919060009061662c908490617fa0565b90915550616650905061663e89612380565b85546001600160a01b03169084616446565b505b5050505050505050565b600061666782612380565b9050616675816000846169f1565b61667e82612380565b60008381526101326020908152604080832080546001600160a01b03199081169091556001600160a01b03851680855261013184528285208054600019019055878552610130909352818420805490911690555192935084927fddf252ad1be2c89b69c2b068fc378daa952ba7f163c4a11628f55a4df523b3ef908390a45050565b816001600160a01b0316836001600160a01b0316036167615760405162461bcd60e51b815260206004820152601960248201527f4552433732313a20617070726f766520746f2063616c6c6572000000000000006044820152606401610ed5565b6001600160a01b0383811660008181526101336020908152604080832094871680845294825291829020805460ff191686151590811790915591519182527f17307eab39ab6107e8899845ad3d59bd9653f200f220920489ca2b5937696c31910160405180910390a3505050565b603380546001600160a01b038381166001600160a01b03198084168217909455603480549094169093556040519116919082907f8be0079c531659141344cd1fd0a4f28419497f9722a3daafe3b4186f6b6457e090600090a35050565b616837848484615714565b61684384848484616ec2565b613f9c5760405162461bcd60e51b8152600401610ed590618443565b600054610100900460ff166168865760405162461bcd60e51b8152600401610ed590618495565b613f68616fc0565b6060600061689b83616ff0565b600101905060008167ffffffffffffffff8111156168bb576168bb617a63565b6040519080825280601f01601f1916602001820160405280156168e5576020820181803683370190505b5090508181016020015b600019016f181899199a1a9b1b9c1cb0b131b232b360811b600a86061a8153600a85049450841561643e576168ef565b6000616974826040518060400160405280602081526020017f5361666545524332303a206c6f772d6c6576656c2063616c6c206661696c6564815250856001600160a01b03166170c89092919063ffffffff16565b805190915015610f76578080602001905181019061699291906184e0565b610f765760405162461bcd60e51b815260206004820152602a60248201527f5361666545524332303a204552433230206f7065726174696f6e20646964206e6044820152691bdd081cdd58d8d9595960b21b6064820152608401610ed5565b816001600160a01b0316836001600160a01b031614158015616a1b57506001600160a01b03831615155b15616a2a57616a2a83826170d7565b826001600160a01b0316826001600160a01b031614158015616a5457506001600160a01b03821615155b15610f76576001600160a01b0391909116600090815261013560209081526040822080546001810182559083529120015550565b600080600083604051602001616a9e91906177b8565b60408051601f198184030181529181528151602092830120600088815261016a84528281208282529093529120549091506001600160a01b031680616b90576101695461016280546001600160a01b039092169163dff968019188918a908110616b0a57616b0a617f04565b60009182526020909120601890910201546040516001600160e01b031960e085901b168152616b4692916001600160a01b0316906004016184fd565b6020604051808303816000875af1158015616b65573d6000803e3d6000fd5b505050506040513d601f19601f82011682018060405250810190616b899190618527565b9250616bac565b600086815261016b60205260409020919091559150610da09050565b6001600160a01b03831615616c0d57600086815261016a60209081526040808320858452825280832080546001600160a01b0319166001600160a01b038816908117909155835261016c825280832089905588835261016b90915290208290555b5090949350505050565b6001600160a01b0381163b616c845760405162461bcd60e51b815260206004820152602d60248201527f455243313936373a206e657720696d706c656d656e746174696f6e206973206e60448201526c1bdd08184818dbdb9d1c9858dd609a1b6064820152608401610ed5565b6000805160206185bf83398151915280546001600160a01b0319166001600160a01b0392909216919091179055565b616cbc83617229565b600082511180616cc95750805b15610f7657613f9c8383617269565b60008061013460008154616ceb90617fc9565b918290555090506001600160a01b038316616d485760405162461bcd60e51b815260206004820181905260248201527f4552433732313a206d696e7420746f20746865207a65726f20616464726573736044820152606401610ed5565b600081815261013060205260409020546001600160a01b031615616dae5760405162461bcd60e51b815260206004820152601c60248201527f4552433732313a20746f6b656e20616c7265616479206d696e746564000000006044820152606401610ed5565b616dba600084836169f1565b600081815261013060205260409020546001600160a01b031615616e205760405162461bcd60e51b815260206004820152601c60248201527f4552433732313a20746f6b656e20616c7265616479206d696e746564000000006044820152606401610ed5565b6001600160a01b0383166000818152610131602090815260408083208054600101905584835261013090915280822080546001600160a01b0319168417905551839291907fddf252ad1be2c89b69c2b068fc378daa952ba7f163c4a11628f55a4df523b3ef908290a4610da0565b6000816101628481548110616ea557616ea5617f04565b60009182526020909120600e601890920201015550600192915050565b60006001600160a01b0384163b15616fb857604051630a85bd0160e11b81526001600160a01b0385169063150b7a0290616f06903390899088908890600401618544565b6020604051808303816000875af1925050508015616f41575060408051601f3d908101601f19168201909252616f3e91810190618581565b60015b616f9e573d808015616f6f576040519150601f19603f3d011682016040523d82523d6000602084013e616f74565b606091505b508051600003616f965760405162461bcd60e51b8152600401610ed590618443565b805181602001fd5b6001600160e01b031916630a85bd0160e11b14905061564d565b50600161564d565b600054610100900460ff16616fe75760405162461bcd60e51b8152600401610ed590618495565b613f68336167cf565b60008072184f03e93ff9f4daa797ed6e38ed64bf6a1f0160401b831061702f5772184f03e93ff9f4daa797ed6e38ed64bf6a1f0160401b830492506040015b6d04ee2d6d415b85acef8100000000831061705b576d04ee2d6d415b85acef8100000000830492506020015b662386f26fc10000831061707957662386f26fc10000830492506010015b6305f5e1008310617091576305f5e100830492506008015b61271083106170a557612710830492506004015b606483106170b7576064830492506002015b600a8310610da05760010192915050565b606061564d8484600085617354565b6001600160a01b0382166000908152610135602090815260408083208054825181850281018501909352808352919290919083018282801561713857602002820191906000526020600020905b815481526020019060010190808311617124575b505083519394506000925050505b81811015611a70578383828151811061716157617161617f04565b602002602001015103617219578261717a600184617fa0565b8151811061718a5761718a617f04565b60200260200101518382815181106171a4576171a4617f04565b6020908102919091018101919091526001600160a01b038616600090815261013582526040902084516171d99286019061761b565b506001600160a01b03851660009081526101356020526040902080548061720257617202617fb3565b600190038181906000526020600020016000905590555b61722281617fc9565b9050617146565b61723281616c17565b6040516001600160a01b038216907fbc7cd75a20ee27fd9adebab32041f755214dbc6bffa90cc0225b39da2e5c2d3b90600090a250565b60606001600160a01b0383163b6172d15760405162461bcd60e51b815260206004820152602660248201527f416464726573733a2064656c65676174652063616c6c20746f206e6f6e2d636f6044820152651b9d1c9858dd60d21b6064820152608401610ed5565b600080846001600160a01b0316846040516172ec919061814f565b600060405180830381855af49150503d8060008114617327576040519150601f19603f3d011682016040523d82523d6000602084013e61732c565b606091505b5091509150612ece82826040518060600160405280602781526020016185df6027913961742f565b6060824710156173b55760405162461bcd60e51b815260206004820152602660248201527f416464726573733a20696e73756666696369656e742062616c616e636520666f6044820152651c8818d85b1b60d21b6064820152608401610ed5565b600080866001600160a01b031685876040516173d1919061814f565b60006040518083038185875af1925050503d806000811461740e576040519150601f19603f3d011682016040523d82523d6000602084013e617413565b606091505b509150915061742487838387617448565b979650505050505050565b6060831561743e5750816116f5565b6116f583836174bd565b606083156174b75782516000036174b0576001600160a01b0385163b6174b05760405162461bcd60e51b815260206004820152601d60248201527f416464726573733a2063616c6c20746f206e6f6e2d636f6e74726163740000006044820152606401610ed5565b508161564d565b61564d83835b8151156174cd5781518083602001fd5b8060405162461bcd60e51b8152600401610ed591906177b8565b6040805161022081019091526000610120820181815261014083018290526101608301829052610180830182905260606101a08401526101c083018290526101e083018290526102008301919091528190815260200161755a604051806040016040528060008152602001600081525090565b815260200161757c604051806040016040528060008152602001600081525090565b81526020016175ae60405180608001604052806000815260200160008152602001600081526020016000151581525090565b81526020016175de6040518060800160405280600081526020016000815260200160008152602001606081525090565b8152604080516060810182526000808252602082810182905292820152910190815260200160008152602001600081526020016000151581525090565b828054828255906000526020600020908101928215617656579160200282015b8281111561765657825182559160200191906001019061763b565b506176629291506176d2565b5090565b5080546000825590600052602060002090810190611fb291906176d2565b60405180610120016040528060008152602001600081526020016000815260200160008152602001600081526020016000815260200160008152602001600081526020016000151581525090565b5b8082111561766257600081556001016176d3565b6001600160a01b0381168114611fb257600080fd5b6000806040838503121561770f57600080fd5b823561771a816176e7565b9150602083013561772a816176e7565b809150509250929050565b6001600160e01b031981168114611fb257600080fd5b60006020828403121561775d57600080fd5b81356116f581617735565b60005b8381101561778357818101518382015260200161776b565b50506000910152565b600081518084526177a4816020860160208601617768565b601f01601f19169290920160200192915050565b6020815260006116f5602083018461778c565b600080604083850312156177de57600080fd5b50508035926020909101359150565b6000602082840312156177ff57600080fd5b5035919050565b6000806040838503121561781957600080fd5b8235617824816176e7565b946020939093013593505050565b60006080830182518452602080840151818601526040840151604086015260608401516080606087015282815180855260a0880191508383019450600092505b808310156178925784518252938301936001929092019190830190617872565b509695505050505050565b6102008082528a516001600160a01b039081169183019190915260208b015160ff1661022083015260408b015161ffff1661024083015260608b01511661026082015260808a01516101006102808301526000906178ff61030084018261778c565b905060a08c01516102a084015260c08c01516102c084015260e08c01516102e0840152617939602084018c80518252602090810151910152565b8951606084015260208a01516080840152885160a0840152602089015160c0840152604089015160e0840152606089015115156101008401528281036101208401526179858189617832565b87516001600160a01b03166101408501526020880151610160850152604088015161018085015291506179b59050565b846101a0830152836101c0830152611e9d6101e083018415159052565b6000806000606084860312156179e757600080fd5b83356179f2816176e7565b92506020840135617a02816176e7565b929592945050506040919091013590565b8015158114611fb257600080fd5b600080600060608486031215617a3657600080fd5b8335617a41816176e7565b92506020840135617a0281617a13565b803561ffff8116811461105d57600080fd5b634e487b7160e01b600052604160045260246000fd5b600082601f830112617a8a57600080fd5b813567ffffffffffffffff80821115617aa557617aa5617a63565b604051601f8301601f19908116603f01168101908282118183101715617acd57617acd617a63565b81604052838152866020858801011115617ae657600080fd5b836020870160208301376000602085830101528094505050505092915050565b600080600080600060a08688031215617b1e57600080fd5b8535945060208601359350617b3560408701617a51565b925060608601359150608086013567ffffffffffffffff811115617b5857600080fd5b617b6488828901617a79565b9150509295509295909350565b60008060008060008060c08789031215617b8a57600080fd5b8635617b95816176e7565b95506020870135617ba5816176e7565b9450604087013567ffffffffffffffff811115617bc157600080fd5b617bcd89828a01617a79565b9450506060870135617bde816176e7565b9598949750929560808101359460a0909101359350915050565b600060208284031215617c0a57600080fd5b81356116f5816176e7565b60008060408385031215617c2857600080fd5b8235617c33816176e7565b9150602083013567ffffffffffffffff811115617c4f57600080fd5b617c5b85828601617a79565b9150509250929050565b600080600060608486031215617c7a57600080fd5b505081359360208301359350604090920135919050565b60008060408385031215617ca457600080fd5b82359150602083013561772a816176e7565b60008060408385031215617cc957600080fd5b82359150602083013561772a81617a13565b60008060408385031215617cee57600080fd5b8235617cf9816176e7565b9150602083013561772a81617a13565b600080600060608486031215617d1e57600080fd5b8335925060208401359150604084013567ffffffffffffffff811115617d4357600080fd5b617d4f86828701617a79565b9150509250925092565b60008060008060808587031215617d6f57600080fd5b8435617d7a816176e7565b93506020850135617d8a816176e7565b925060408501359150606085013567ffffffffffffffff811115617dad57600080fd5b617db987828801617a79565b91505092959194509250565b60008060008060808587031215617ddb57600080fd5b843593506020850135617ded816176e7565b9250617dfb60408601617a51565b9150617e0960608601617a51565b905092959194509250565b602080825282518282018190526000919060409081850190868401855b828110156160a75781518051855286810151878601528581015186860152606080820151908601526080808201519086015260a0808201519086015260c0808201519086015260e08082015190860152610100908101511515908501526101209093019290850190600101617e31565b600181811c90821680617eb557607f821691505b602082108103617ed557634e487b7160e01b600052602260045260246000fd5b50919050565b634e487b7160e01b600052601160045260246000fd5b80820180821115610da057610da0617edb565b634e487b7160e01b600052603260045260246000fd5b600080600060608486031215617f2f57600080fd5b83519250602084015191506040840151617f48816176e7565b809150509250925092565b6020808252602d908201527f4552433732313a2063616c6c6572206973206e6f7420746f6b656e206f776e6560408201526c1c881bdc88185c1c1c9bdd9959609a1b606082015260800190565b81810381811115610da057610da0617edb565b634e487b7160e01b600052603160045260246000fd5b600060018201617fdb57617fdb617edb565b5060010190565b600181815b8085111561801d57816000190482111561800357618003617edb565b8085161561801057918102915b93841c9390800290617fe7565b509250929050565b60008261803457506001610da0565b8161804157506000610da0565b816001811461805757600281146180615761807d565b6001915050610da0565b60ff84111561807257618072617edb565b50506001821b610da0565b5060208310610133831016604e8410600b84101617156180a0575081810a610da0565b6180aa8383617fe2565b80600019048211156180be576180be617edb565b029392505050565b60006116f560ff841683618025565b8082028115828204841417610da057610da0617edb565b6020808252600e908201526d139bdd08185d5d1a1bdc9a5e995960921b604082015260600190565b60008261813157634e487b7160e01b600052601260045260246000fd5b500490565b60006020828403121561814857600080fd5b5051919050565b60008251618161818460208701617768565b9190910192915050565b60006020828403121561817d57600080fd5b815160ff811681146116f557600080fd5b601f821115610f7657600081815260208120601f850160051c810160208610156181b55750805b601f850160051c820191505b818110156181d4578281556001016181c1565b505050505050565b815167ffffffffffffffff8111156181f6576181f6617a63565b61820a816182048454617ea1565b8461818e565b602080601f83116001811461823f57600084156182275750858301515b600019600386901b1c1916600185901b1785556181d4565b600085815260208120601f198616915b8281101561826e5788860151825594840194600190910190840161824f565b508582101561828c5787850151600019600388901b60f8161c191681555b5050505050600190811b01905550565b6020808252602c908201527f46756e6374696f6e206d7573742062652063616c6c6564207468726f7567682060408201526b19195b1959d85d1958d85b1b60a21b606082015260800190565b6020808252602c908201527f46756e6374696f6e206d7573742062652063616c6c6564207468726f7567682060408201526b6163746976652070726f787960a01b606082015260800190565b60208082526029908201527f54696d656c6f636b206e6f7420736574206f72206e6f7420636f6d706c6574656040820152686420696e2074696d6560b81b606082015260800190565b6000835161838f818460208801617768565b8351908301906183a3818360208801617768565b01949350505050565b60208082526025908201527f4552433732313a207472616e736665722066726f6d20696e636f72726563742060408201526437bbb732b960d91b606082015260800190565b6000806040838503121561840457600080fd5b505080516020909101519092909150565b60008060006060848603121561842a57600080fd5b8351925060208401519150604084015190509250925092565b60208082526032908201527f4552433732313a207472616e7366657220746f206e6f6e20455243373231526560408201527131b2b4bb32b91034b6b83632b6b2b73a32b960711b606082015260800190565b6020808252602b908201527f496e697469616c697a61626c653a20636f6e7472616374206973206e6f74206960408201526a6e697469616c697a696e6760a81b606082015260800190565b6000602082840312156184f257600080fd5b81516116f581617a13565b604081526000618510604083018561778c565b905060018060a01b03831660208301529392505050565b60006020828403121561853957600080fd5b81516116f5816176e7565b6001600160a01b03858116825284166020820152604081018390526080606082018190526000906185779083018461778c565b9695505050505050565b60006020828403121561859357600080fd5b81516116f58161773556fea3ea4fb8dee4d414198cb197af6eae4fe483c1a0b849dc50e53b9bf1a60e2166360894a13ba1a3210667c828492db98dca3e2076cc3735a920a3ca505d382bbc416464726573733a206c6f772d6c6576656c2064656c65676174652063616c6c206661696c6564a26469706673582212200dd772b44fd300cda10a645f7ab5ac80aceb76713557137cb0df70831b6d83af64736f6c63430008110033496e697469616c697a61626c653a20636f6e7472616374206973206e6f742069",
    "linkReferences": {
      "src/lib/SaloonLib.sol": {
        "SaloonLib": [
          {
            "start": 5987,
            "length": 20
          },
          {
            "start": 7619,
            "length": 20
          },
          {
            "start": 12964,
            "length": 20
          },
          {
            "start": 13773,
            "length": 20
          },
          {
            "start": 19724,
            "length": 20
          },
          {
            "start": 24093,
            "length": 20
          },
          {
            "start": 25243,
            "length": 20
          },
          {
            "start": 26863,
            "length": 20
          }
        ]
      }
    }
  },
  "methodIdentifiers": {
    "acceptOwnershipTransfer()": "b842e87f",
    "activeStrategies(uint256)": "b20b2429",
    "activeTokens(uint256)": "9f224f35",
    "addNewBountyPool(address,address,string,address,uint256,uint256)": "32fce602",
    "approve(address,uint256)": "095ea7b3",
    "balanceOf(address)": "70a08231",
    "billPremium(uint256)": "2dbe051e",
    "calcRequiredPremiumBalancePerPeriod(uint256,uint256)": "836ef1fa",
    "calculateEffectiveAPY(uint256,uint256,uint256)": "81c6f1a7",
    "claimPremium(uint256)": "f47ec3be",
    "collectAllReferralProfits()": "3e8888d9",
    "collectAllSaloonProfits(address)": "ecd7fbed",
    "collectReferralProfit(address)": "a089a520",
    "collectSaloonProfits(address,address)": "cf9564b9",
    "compoundYieldForAll()": "f68ce499",
    "compoundYieldForPid(uint256)": "e78ea3df",
    "consolidate(uint256)": "949a4a4a",
    "consolidateAll()": "75bfd63d",
    "extendReferralPeriod(uint256,uint256)": "5de406dc",
    "getAllTokensByOwner(address)": "e9fda7d4",
    "getApproved(uint256)": "081812fc",
    "getCurrentAPY(uint256)": "7fbf3853",
    "index()": "2986c0e5",
    "initialize(address)": "c4d66de8",
    "isApprovedForAll(address,address)": "e985e9c5",
    "makeProjectDeposit(uint256,uint256,string)": "ae07f948",
    "minTokenStakeAmount(address)": "39458723",
    "name()": "06fdde03",
    "nftInfo(uint256)": "1f8bc790",
    "owner()": "8da5cb5b",
    "ownerOf(uint256)": "6352211e",
    "payBounty(uint256,address,uint16,uint16)": "d075afac",
    "pidNFTList(uint256,uint256)": "96ea48e8",
    "pidStrategies(uint256,bytes32)": "074ecf03",
    "poolInfo(uint256)": "1526fe27",
    "projectDepositWithdrawal(uint256,uint256)": "983c1ce0",
    "proxiableUUID()": "52d1902d",
    "receiveStrategyYield(address,uint256)": "1aebcecb",
    "referralBalances(address,address)": "011b408b",
    "safeTransferFrom(address,address,uint256)": "42842e0e",
    "safeTransferFrom(address,address,uint256,bytes)": "b88d4fde",
    "saloonBountyProfit(address)": "e45abd0f",
    "saloonPremiumProfit(address)": "ca006148",
    "saloonStrategyProfit(address)": "598d17bf",
    "scheduleProjectDepositWithdrawal(uint256,uint256)": "5669cbef",
    "scheduleUnstake(uint256)": "106d08df",
    "setAPYandPoolCapAndDeposit(uint256,uint256,uint16,uint256,string)": "30ca0794",
    "setApprovalForAll(address,bool)": "a22cb465",
    "stake(uint256,uint256)": "7b0472f0",
    "strategyAddressToPid(address)": "957deecc",
    "supportsInterface(bytes4)": "01ffc9a7",
    "symbol()": "95d89b41",
    "tokenURI(uint256)": "c87b56dd",
    "tokenWhitelist(address)": "753d7563",
    "transferFrom(address,address,uint256)": "23b872dd",
    "transferOwnership(address)": "f2fde38b",
    "unstake(uint256,bool)": "9ebea88c",
    "updateProjectWalletAddress(uint256,address)": "995974c4",
    "updateStrategyFactoryAddress(address)": "3538fda0",
    "updateTokenWhitelist(address,bool,uint256)": "2cb0dfcc",
    "upgradeTo(address)": "3659cfe6",
    "upgradeToAndCall(address,bytes)": "4f1ef286",
    "viewBountyBalance(uint256)": "6ac6d812",
    "windDownBounty(uint256)": "bb7019c1",
    "withdrawProjectYield(uint256)": "db53e8b5"
  },
  "id": 52
}