{
  "abi": [
    {
      "anonymous": false,
      "inputs": [
        {
          "indexed": false,
          "internalType": "address",
          "name": "previousAdmin",
          "type": "address"
        },
        {
          "indexed": false,
          "internalType": "address",
          "name": "newAdmin",
          "type": "address"
        }
      ],
      "name": "AdminChanged",
      "type": "event"
    },
    {
      "anonymous": false,
      "inputs": [
        {
          "indexed": true,
          "internalType": "address",
          "name": "beacon",
          "type": "address"
        }
      ],
      "name": "BeaconUpgraded",
      "type": "event"
    },
    {
      "anonymous": false,
      "inputs": [
        {
          "indexed": false,
          "internalType": "uint8",
          "name": "version",
          "type": "uint8"
        }
      ],
      "name": "Initialized",
      "type": "event"
    },
    {
      "anonymous": false,
      "inputs": [
        {
          "indexed": true,
          "internalType": "address",
          "name": "previousOwner",
          "type": "address"
        },
        {
          "indexed": true,
          "internalType": "address",
          "name": "newOwner",
          "type": "address"
        }
      ],
      "name": "OwnershipTransferred",
      "type": "event"
    },
    {
      "anonymous": false,
      "inputs": [
        {
          "indexed": true,
          "internalType": "address",
          "name": "user",
          "type": "address"
        },
        {
          "indexed": true,
          "internalType": "uint256",
          "name": "pid",
          "type": "uint256"
        },
        {
          "indexed": false,
          "internalType": "uint256",
          "name": "amount",
          "type": "uint256"
        }
      ],
      "name": "Staked",
      "type": "event"
    },
    {
      "anonymous": false,
      "inputs": [
        {
          "indexed": true,
          "internalType": "address",
          "name": "user",
          "type": "address"
        },
        {
          "indexed": true,
          "internalType": "uint256",
          "name": "pid",
          "type": "uint256"
        },
        {
          "indexed": false,
          "internalType": "uint256",
          "name": "amount",
          "type": "uint256"
        }
      ],
      "name": "Unstaked",
      "type": "event"
    },
    {
      "anonymous": false,
      "inputs": [
        {
          "indexed": true,
          "internalType": "address",
          "name": "implementation",
          "type": "address"
        }
      ],
      "name": "Upgraded",
      "type": "event"
    },
    {
      "inputs": [
        {
          "internalType": "address",
          "name": "_token",
          "type": "address"
        },
        {
          "internalType": "uint8",
          "name": "_tokenDecimals",
          "type": "uint8"
        },
        {
          "internalType": "address",
          "name": "_projectWallet",
          "type": "address"
        }
      ],
      "name": "addNewBountyPool",
      "outputs": [
        {
          "internalType": "uint256",
          "name": "",
          "type": "uint256"
        }
      ],
      "stateMutability": "nonpayable",
      "type": "function"
    },
    {
      "inputs": [
        {
          "internalType": "uint256",
          "name": "_pid",
          "type": "uint256"
        }
      ],
      "name": "billPremium",
      "outputs": [
        {
          "internalType": "bool",
          "name": "",
          "type": "bool"
        }
      ],
      "stateMutability": "nonpayable",
      "type": "function"
    },
    {
      "inputs": [
        {
          "internalType": "uint256",
          "name": "_pid",
          "type": "uint256"
        }
      ],
      "name": "claimPremium",
      "outputs": [],
      "stateMutability": "nonpayable",
      "type": "function"
    },
    {
      "inputs": [
        {
          "internalType": "address",
          "name": "_token",
          "type": "address"
        },
        {
          "internalType": "address",
          "name": "_saloonWallet",
          "type": "address"
        }
      ],
      "name": "collectSaloonProfits",
      "outputs": [
        {
          "internalType": "bool",
          "name": "",
          "type": "bool"
        }
      ],
      "stateMutability": "nonpayable",
      "type": "function"
    },
    {
      "inputs": [
        {
          "internalType": "uint256",
          "name": "_from",
          "type": "uint256"
        },
        {
          "internalType": "uint256",
          "name": "_to",
          "type": "uint256"
        }
      ],
      "name": "getMultiplier",
      "outputs": [
        {
          "internalType": "uint256",
          "name": "",
          "type": "uint256"
        }
      ],
      "stateMutability": "pure",
      "type": "function"
    },
    {
      "inputs": [],
      "name": "initialize",
      "outputs": [],
      "stateMutability": "nonpayable",
      "type": "function"
    },
    {
      "inputs": [
        {
          "internalType": "uint256",
          "name": "_pid",
          "type": "uint256"
        },
        {
          "internalType": "uint256",
          "name": "_deposit",
          "type": "uint256"
        }
      ],
      "name": "makeProjectDeposit",
      "outputs": [],
      "stateMutability": "nonpayable",
      "type": "function"
    },
    {
      "inputs": [],
      "name": "owner",
      "outputs": [
        {
          "internalType": "address",
          "name": "",
          "type": "address"
        }
      ],
      "stateMutability": "view",
      "type": "function"
    },
    {
      "inputs": [
        {
          "internalType": "uint256",
          "name": "_pid",
          "type": "uint256"
        },
        {
          "internalType": "address",
          "name": "_hunter",
          "type": "address"
        },
        {
          "internalType": "uint256",
          "name": "_amount",
          "type": "uint256"
        }
      ],
      "name": "payBounty",
      "outputs": [
        {
          "internalType": "bool",
          "name": "",
          "type": "bool"
        }
      ],
      "stateMutability": "nonpayable",
      "type": "function"
    },
    {
      "inputs": [
        {
          "internalType": "uint256",
          "name": "_pid",
          "type": "uint256"
        },
        {
          "internalType": "address",
          "name": "_user",
          "type": "address"
        }
      ],
      "name": "pendingToken",
      "outputs": [
        {
          "internalType": "uint256",
          "name": "",
          "type": "uint256"
        }
      ],
      "stateMutability": "view",
      "type": "function"
    },
    {
      "inputs": [
        {
          "internalType": "uint256",
          "name": "",
          "type": "uint256"
        }
      ],
      "name": "poolInfo",
      "outputs": [
        {
          "internalType": "contract IERC20",
          "name": "token",
          "type": "address"
        },
        {
          "internalType": "bool",
          "name": "initialized",
          "type": "bool"
        },
        {
          "internalType": "uint8",
          "name": "tokenDecimals",
          "type": "uint8"
        },
        {
          "internalType": "uint16",
          "name": "apy",
          "type": "uint16"
        },
        {
          "internalType": "address",
          "name": "projectWallet",
          "type": "address"
        },
        {
          "internalType": "uint256",
          "name": "projectDeposit",
          "type": "uint256"
        },
        {
          "internalType": "uint256",
          "name": "poolCap",
          "type": "uint256"
        },
        {
          "internalType": "uint256",
          "name": "totalStaked",
          "type": "uint256"
        },
        {
          "internalType": "uint256",
          "name": "totalPending",
          "type": "uint256"
        },
        {
          "internalType": "uint256",
          "name": "requiredPremiumBalancePerPeriod",
          "type": "uint256"
        },
        {
          "internalType": "uint256",
          "name": "premiumBalance",
          "type": "uint256"
        },
        {
          "internalType": "uint256",
          "name": "premiumAvailable",
          "type": "uint256"
        },
        {
          "components": [
            {
              "internalType": "uint256",
              "name": "timelock",
              "type": "uint256"
            },
            {
              "internalType": "uint256",
              "name": "timeLimit",
              "type": "uint256"
            },
            {
              "internalType": "uint256",
              "name": "withdrawalScheduledAmount",
              "type": "uint256"
            },
            {
              "internalType": "bool",
              "name": "withdrawalExecuted",
              "type": "bool"
            }
          ],
          "internalType": "struct ISaloon.TimelockInfo",
          "name": "poolTimelock",
          "type": "tuple"
        }
      ],
      "stateMutability": "view",
      "type": "function"
    },
    {
      "inputs": [],
      "name": "poolLength",
      "outputs": [
        {
          "internalType": "uint256",
          "name": "",
          "type": "uint256"
        }
      ],
      "stateMutability": "view",
      "type": "function"
    },
    {
      "inputs": [
        {
          "internalType": "uint256",
          "name": "_pid",
          "type": "uint256"
        },
        {
          "internalType": "uint256",
          "name": "_amount",
          "type": "uint256"
        }
      ],
      "name": "projectDepositWithdrawal",
      "outputs": [
        {
          "internalType": "bool",
          "name": "",
          "type": "bool"
        }
      ],
      "stateMutability": "nonpayable",
      "type": "function"
    },
    {
      "inputs": [],
      "name": "proxiableUUID",
      "outputs": [
        {
          "internalType": "bytes32",
          "name": "",
          "type": "bytes32"
        }
      ],
      "stateMutability": "view",
      "type": "function"
    },
    {
      "inputs": [],
      "name": "renounceOwnership",
      "outputs": [],
      "stateMutability": "nonpayable",
      "type": "function"
    },
    {
      "inputs": [
        {
          "internalType": "address",
          "name": "",
          "type": "address"
        }
      ],
      "name": "saloonBountyProfit",
      "outputs": [
        {
          "internalType": "uint256",
          "name": "",
          "type": "uint256"
        }
      ],
      "stateMutability": "view",
      "type": "function"
    },
    {
      "inputs": [
        {
          "internalType": "address",
          "name": "",
          "type": "address"
        }
      ],
      "name": "saloonPremiumProfit",
      "outputs": [
        {
          "internalType": "uint256",
          "name": "",
          "type": "uint256"
        }
      ],
      "stateMutability": "view",
      "type": "function"
    },
    {
      "inputs": [
        {
          "internalType": "uint256",
          "name": "_pid",
          "type": "uint256"
        },
        {
          "internalType": "uint256",
          "name": "_amount",
          "type": "uint256"
        }
      ],
      "name": "scheduleProjectDepositWithdrawal",
      "outputs": [
        {
          "internalType": "bool",
          "name": "",
          "type": "bool"
        }
      ],
      "stateMutability": "nonpayable",
      "type": "function"
    },
    {
      "inputs": [
        {
          "internalType": "uint256",
          "name": "_pid",
          "type": "uint256"
        },
        {
          "internalType": "uint256",
          "name": "_amount",
          "type": "uint256"
        }
      ],
      "name": "scheduleUnstake",
      "outputs": [
        {
          "internalType": "bool",
          "name": "",
          "type": "bool"
        }
      ],
      "stateMutability": "nonpayable",
      "type": "function"
    },
    {
      "inputs": [
        {
          "internalType": "uint256",
          "name": "_pid",
          "type": "uint256"
        },
        {
          "internalType": "uint256",
          "name": "_poolCap",
          "type": "uint256"
        },
        {
          "internalType": "uint16",
          "name": "_apy",
          "type": "uint16"
        },
        {
          "internalType": "uint256",
          "name": "_deposit",
          "type": "uint256"
        }
      ],
      "name": "setAPYandPoolCapAndDeposit",
      "outputs": [],
      "stateMutability": "nonpayable",
      "type": "function"
    },
    {
      "inputs": [
        {
          "internalType": "uint256",
          "name": "_pid",
          "type": "uint256"
        },
        {
          "internalType": "address",
          "name": "_user",
          "type": "address"
        },
        {
          "internalType": "uint256",
          "name": "_amount",
          "type": "uint256"
        }
      ],
      "name": "stake",
      "outputs": [
        {
          "internalType": "bool",
          "name": "",
          "type": "bool"
        }
      ],
      "stateMutability": "nonpayable",
      "type": "function"
    },
    {
      "inputs": [
        {
          "internalType": "address",
          "name": "newOwner",
          "type": "address"
        }
      ],
      "name": "transferOwnership",
      "outputs": [],
      "stateMutability": "nonpayable",
      "type": "function"
    },
    {
      "inputs": [
        {
          "internalType": "uint256",
          "name": "_pid",
          "type": "uint256"
        },
        {
          "internalType": "uint256",
          "name": "_amount",
          "type": "uint256"
        }
      ],
      "name": "unstake",
      "outputs": [
        {
          "internalType": "bool",
          "name": "",
          "type": "bool"
        }
      ],
      "stateMutability": "nonpayable",
      "type": "function"
    },
    {
      "inputs": [
        {
          "internalType": "address",
          "name": "newImplementation",
          "type": "address"
        }
      ],
      "name": "upgradeTo",
      "outputs": [],
      "stateMutability": "nonpayable",
      "type": "function"
    },
    {
      "inputs": [
        {
          "internalType": "address",
          "name": "newImplementation",
          "type": "address"
        },
        {
          "internalType": "bytes",
          "name": "data",
          "type": "bytes"
        }
      ],
      "name": "upgradeToAndCall",
      "outputs": [],
      "stateMutability": "payable",
      "type": "function"
    },
    {
      "inputs": [
        {
          "internalType": "uint256",
          "name": "",
          "type": "uint256"
        },
        {
          "internalType": "address",
          "name": "",
          "type": "address"
        }
      ],
      "name": "userInfo",
      "outputs": [
        {
          "internalType": "uint256",
          "name": "amount",
          "type": "uint256"
        },
        {
          "internalType": "uint256",
          "name": "unclaimed",
          "type": "uint256"
        },
        {
          "internalType": "uint256",
          "name": "lastRewardTime",
          "type": "uint256"
        },
        {
          "internalType": "uint256",
          "name": "timelock",
          "type": "uint256"
        },
        {
          "internalType": "uint256",
          "name": "timeLimit",
          "type": "uint256"
        },
        {
          "internalType": "uint256",
          "name": "unstakeScheduledAmount",
          "type": "uint256"
        },
        {
          "internalType": "bool",
          "name": "unstakeExecuted",
          "type": "bool"
        }
      ],
      "stateMutability": "view",
      "type": "function"
    },
    {
      "inputs": [
        {
          "internalType": "uint256",
          "name": "_pid",
          "type": "uint256"
        }
      ],
      "name": "viewBountyBalance",
      "outputs": [
        {
          "internalType": "uint256",
          "name": "",
          "type": "uint256"
        }
      ],
      "stateMutability": "view",
      "type": "function"
    },
    {
      "inputs": [
        {
          "internalType": "uint256",
          "name": "_pid",
          "type": "uint256"
        }
      ],
      "name": "viewPoolCap",
      "outputs": [
        {
          "internalType": "uint256",
          "name": "",
          "type": "uint256"
        }
      ],
      "stateMutability": "view",
      "type": "function"
    },
    {
      "inputs": [
        {
          "internalType": "uint256",
          "name": "_pid",
          "type": "uint256"
        }
      ],
      "name": "viewPoolPremiumInfo",
      "outputs": [
        {
          "internalType": "uint256",
          "name": "totalPending",
          "type": "uint256"
        },
        {
          "internalType": "uint256",
          "name": "requiredPremiumBalancePerPeriod",
          "type": "uint256"
        },
        {
          "internalType": "uint256",
          "name": "premiumBalance",
          "type": "uint256"
        }
      ],
      "stateMutability": "view",
      "type": "function"
    },
    {
      "inputs": [
        {
          "internalType": "uint256",
          "name": "_pid",
          "type": "uint256"
        }
      ],
      "name": "viewPoolTimelockInfo",
      "outputs": [
        {
          "internalType": "uint256",
          "name": "timelock",
          "type": "uint256"
        },
        {
          "internalType": "uint256",
          "name": "timeLimit",
          "type": "uint256"
        },
        {
          "internalType": "uint256",
          "name": "withdrawalScheduledAmount",
          "type": "uint256"
        }
      ],
      "stateMutability": "view",
      "type": "function"
    },
    {
      "inputs": [
        {
          "internalType": "address",
          "name": "_token",
          "type": "address"
        }
      ],
      "name": "viewSaloonProfitBalance",
      "outputs": [
        {
          "internalType": "uint256",
          "name": "totalProfit",
          "type": "uint256"
        },
        {
          "internalType": "uint256",
          "name": "bountyProfit",
          "type": "uint256"
        },
        {
          "internalType": "uint256",
          "name": "premiumProfit",
          "type": "uint256"
        }
      ],
      "stateMutability": "view",
      "type": "function"
    },
    {
      "inputs": [
        {
          "internalType": "uint256",
          "name": "_pid",
          "type": "uint256"
        }
      ],
      "name": "viewStake",
      "outputs": [
        {
          "internalType": "uint256",
          "name": "",
          "type": "uint256"
        }
      ],
      "stateMutability": "view",
      "type": "function"
    },
    {
      "inputs": [
        {
          "internalType": "uint256",
          "name": "_pid",
          "type": "uint256"
        }
      ],
      "name": "viewTotalStaked",
      "outputs": [
        {
          "internalType": "uint256",
          "name": "",
          "type": "uint256"
        }
      ],
      "stateMutability": "view",
      "type": "function"
    },
    {
      "inputs": [
        {
          "internalType": "uint256",
          "name": "_pid",
          "type": "uint256"
        },
        {
          "internalType": "address",
          "name": "_user",
          "type": "address"
        }
      ],
      "name": "viewUserInfo",
      "outputs": [
        {
          "internalType": "uint256",
          "name": "amount",
          "type": "uint256"
        },
        {
          "internalType": "uint256",
          "name": "unclaimed",
          "type": "uint256"
        }
      ],
      "stateMutability": "view",
      "type": "function"
    }
  ],
  "bytecode": {
    "object": "0x60a06040523060805234801561001457600080fd5b50600160c9556080516138f9610051600039600081816108310152818161087a0152818161120c0152818161124c01526112df01526138f96000f3fe6080604052600436106101f95760003560e01c80638129fc1c1161010d578063ac30b856116100a0578063cf9564b91161006f578063cf9564b9146106a3578063dbdd6957146106c3578063e45abd0f146106e3578063f2fde38b14610710578063f47ec3be1461073057600080fd5b8063ac30b85614610616578063b1a2d16f14610636578063ca00614814610656578063cee6b0691461068357600080fd5b806393f1a40b116100dc57806393f1a40b146104da578063983c1ce0146105775780639e2c8a5b14610597578063a754ecb0146105b757600080fd5b80638129fc1c1461045d5780638da5cb5b146104725780638dbb1e3a1461049a57806391635b4e146104ba57600080fd5b806348e43af41161019057806357a86d3a1161015f57806357a86d3a146103ad5780636ac6d812146103cd5780636e9c931c146103ed578063715018a61461040d578063718c7eef1461042257600080fd5b806348e43af4146103455780634f1ef2861461036557806352d1902d146103785780635669cbef1461038d57600080fd5b80633659cfe6116101cc5780633659cfe6146102c357806339679ff4146102e5578063399eadb8146103055780633ac6ad7b1461032557600080fd5b8063081e3eda146101fe5780631526fe2714610222578063236916771461025b5780632dbe051e14610293575b600080fd5b34801561020a57600080fd5b5060cc545b6040519081526020015b60405180910390f35b34801561022e57600080fd5b5061024261023d3660046131db565b610750565b6040516102199d9c9b9a999897969594939291906131f4565b34801561026757600080fd5b5061020f6102763660046131db565b600090815260cd6020908152604080832033845290915290205490565b34801561029f57600080fd5b506102b36102ae3660046131db565b61080a565b6040519015158152602001610219565b3480156102cf57600080fd5b506102e36102de3660046132b5565b610827565b005b3480156102f157600080fd5b5061020f6103003660046131db565b61090f565b34801561031157600080fd5b5061020f6103203660046132d0565b610a84565b34801561033157600080fd5b506102b361034036600461331b565b610d3c565b34801561035157600080fd5b5061020f610360366004613350565b611130565b6102e3610373366004613392565b611202565b34801561038457600080fd5b5061020f6112d2565b34801561039957600080fd5b506102b36103a8366004613454565b611385565b3480156103b957600080fd5b506102e36103c8366004613454565b611476565b3480156103d957600080fd5b5061020f6103e83660046131db565b611500565b3480156103f957600080fd5b506102b361040836600461331b565b61167f565b34801561041957600080fd5b506102e361181d565b34801561042e57600080fd5b5061044261043d3660046132b5565b611831565b60408051938452602084019290925290820152606001610219565b34801561046957600080fd5b506102e3611867565b34801561047e57600080fd5b506033546040516001600160a01b039091168152602001610219565b3480156104a657600080fd5b5061020f6104b5366004613454565b611977565b3480156104c657600080fd5b506102b36104d5366004613454565b611983565b3480156104e657600080fd5b506105406104f5366004613350565b60cd6020908152600092835260408084209091529082529020805460018201546002830154600384015460048501546005860154600690960154949593949293919290919060ff1687565b604080519788526020880196909652948601939093526060850191909152608084015260a0830152151560c082015260e001610219565b34801561058357600080fd5b506102b3610592366004613454565b611a38565b3480156105a357600080fd5b506102b36105b2366004613454565b611b43565b3480156105c357600080fd5b506106016105d2366004613350565b600091825260cd602090815260408084206001600160a01b039093168452919052902080546001909101549091565b60408051928352602083019190915201610219565b34801561062257600080fd5b506104426106313660046131db565b611dea565b34801561064257600080fd5b506104426106513660046131db565b611f76565b34801561066257600080fd5b5061020f6106713660046132b5565b60cb6020526000908152604090205481565b34801561068f57600080fd5b506102e361069e366004613476565b612103565b3480156106af57600080fd5b506102b36106be3660046134bc565b61238f565b3480156106cf57600080fd5b5061020f6106de3660046131db565b6123fb565b3480156106ef57600080fd5b5061020f6106fe3660046132b5565b60ca6020526000908152604090205481565b34801561071c57600080fd5b506102e361072b3660046132b5565b612570565b34801561073c57600080fd5b506102e361074b3660046131db565b6125e6565b60cc818154811061076057600080fd5b6000918252602091829020600e91909102018054600182015460028301546003840154600485015460058601546006870154600788015460088901546040805160808101825260098c01548152600a8c01549c81019c909c52600b8b0154908c0152600c9099015460ff908116151560608c01526001600160a01b03808a169c50600160a01b8a0482169b600160a81b8b049092169a600160b01b909a0461ffff1699981697908d565b6000610814612602565b61081f82600061265c565b505050919050565b6001600160a01b037f00000000000000000000000000000000000000000000000000000000000000001630036108785760405162461bcd60e51b815260040161086f906134e6565b60405180910390fd5b7f00000000000000000000000000000000000000000000000000000000000000006001600160a01b03166108c160008051602061387d833981519152546001600160a01b031690565b6001600160a01b0316146108e75760405162461bcd60e51b815260040161086f90613532565b6108f081612770565b6040805160008082526020820190925261090c91839190612778565b50565b60008060cc83815481106109255761092561357e565b6000918252602091829020604080516101c081018252600e9390930290910180546001600160a01b038082168552600160a01b820460ff908116151586880152600160a81b8304811686860152600160b01b90920461ffff166060808701919091526001840154909116608080870191909152600284015460a0870152600384015460c0870152600484015460e087015260058401546101008701526006840154610120870152600784015461014087015260088401546101608701528451908101855260098401548152600a84015481880152600b84015481860152600c840154909216151590820152610180840152600d81018054835181870281018701909452808452939491936101a086019392830182828015610a6f57602002820191906000526020600020905b81546001600160a01b03168152600190910190602001808311610a51575b5050509190925250505060c001519392505050565b6000610a8e612602565b610a96613092565b8481600001906001600160a01b031690816001600160a01b03168152505083816040019060ff16908160ff16815250508281608001906001600160a01b031690816001600160a01b03168152505060008160a00181815250506000816060019061ffff16908161ffff168152505060008160c001818152505060008160e0018181525050600081602001901515908115158152505060008161010001818152505060008161018001516000018181525050600081610180015160200181815250506000816101800151604001818152505060008161018001516060019015159081151581525050806101a001515060cc8190806001815401808255809150506001900390600052602060002090600e020160009091909190915060008201518160000160006101000a8154816001600160a01b0302191690836001600160a01b0316021790555060208201518160000160146101000a81548160ff02191690831515021790555060408201518160000160156101000a81548160ff021916908360ff16021790555060608201518160000160166101000a81548161ffff021916908361ffff16021790555060808201518160010160006101000a8154816001600160a01b0302191690836001600160a01b0316021790555060a0820151816002015560c0820151816003015560e0820151816004015561010082015181600501556101208201518160060155610140820151816007015561016082015181600801556101808201518160090160008201518160000155602082015181600101556040820151816002015560608201518160030160006101000a81548160ff02191690831515021790555050506101a082015181600d019080519060200190610d1f929190613147565b505060cc54610d3191506001906135aa565b9150505b9392505050565b6000610d46612602565b600060cc8581548110610d5b57610d5b61357e565b90600052602060002090600e020190506000816004015490506000826002015482610d8691906135bd565b9050818511610f0c57818503610e2357600d83015460005b81811015610e0557600085600d018281548110610dbd57610dbd61357e565b60009182526020808320909101548c835260cd825260408084206001600160a01b03909216808552919092529120909150610df88b836128e8565b6000905550600101610d9e565b50600060048501819055610e1d90600d8601906131ac565b506110ae565b600082610e326103e8886135d0565b610e3c91906135e7565b600d85015490915060005b81811015610f0457600086600d018281548110610e6657610e6661357e565b60009182526020808320909101548d835260cd825260408084206001600160a01b03909216808552919092529120909150610ea18c836128e8565b80546000906103e890610eb59088906135d0565b610ebf91906135e7565b905080826000016000828254610ed591906135aa565b9250508190555080896004016000828254610ef091906135aa565b909155505060019093019250610e47915050565b5050506110ae565b8185118015610f1e5750826002015485105b15610fd957600d83015460005b81811015610f9257600085600d018281548110610f4a57610f4a61357e565b60009182526020808320909101548c835260cd825260408084206001600160a01b03909216808552919092529120909150610f858b836128e8565b6000905550600101610f2b565b50600060048501819055610faa90600d8601906131ac565b6000610fb684846135aa565b905080856002016000828254610fcc91906135aa565b909155506110ae92505050565b80850361107457600d83015460005b8181101561104f57600085600d0182815481106110075761100761357e565b60009182526020808320909101548c835260cd825260408084206001600160a01b039092168085529190925291209091506110428b836128e8565b6000905550600101610fe8565b5060006004850181905561106790600d8601906131ac565b50600060028401556110ae565b60405162461bcd60e51b815260206004820152600f60248201526e082dadeeadce840e8dede40d0d2ced608b1b604482015260640161086f565b60006127106110bf6103e8886135d0565b6110c991906135e7565b905060006110d782886135aa565b85546001600160a01b0316600090815260ca60205260408120805492935084929091906111059084906135bd565b90915550508454611120906001600160a01b03168983612a56565b5060019998505050505050505050565b60008060cc84815481106111465761114661357e565b6000918252602080832087845260cd825260408085206001600160a01b0389168652909252908320600e9290920201600481015460028301549194509192904211801561119257508115155b156111f65760006111a7846002015442611977565b855485549192506000916301e13380918491612710916111d391600160b01b90910461ffff16906135d0565b6111dd91906135e7565b6111e791906135d0565b6111f191906135e7565b925050505b93505050505b92915050565b6001600160a01b037f000000000000000000000000000000000000000000000000000000000000000016300361124a5760405162461bcd60e51b815260040161086f906134e6565b7f00000000000000000000000000000000000000000000000000000000000000006001600160a01b031661129360008051602061387d833981519152546001600160a01b031690565b6001600160a01b0316146112b95760405162461bcd60e51b815260040161086f90613532565b6112c282612770565b6112ce82826001612778565b5050565b6000306001600160a01b037f000000000000000000000000000000000000000000000000000000000000000016146113725760405162461bcd60e51b815260206004820152603860248201527f555550535570677261646561626c653a206d757374206e6f742062652063616c60448201527f6c6564207468726f7567682064656c656761746563616c6c0000000000000000606482015260840161086f565b5060008051602061387d83398151915290565b60008060cc848154811061139b5761139b61357e565b90600052602060002090600e0201905082816002015410156113ff5760405162461bcd60e51b815260206004820152601a60248201527f416d6f756e7420626967676572207468616e206465706f736974000000000000604482015260640161086f565b60018101546001600160a01b0316331461142b5760405162461bcd60e51b815260040161086f90613609565b61143862093a80426135bd565b600982015561144a62093a80426135bd565b611457906203f4806135bd565b600a820155600b81019290925550600c01805460ff1916905550600190565b600060cc838154811061148b5761148b61357e565b60009182526020909120600e9091020160018101549091506001600160a01b031633146114ca5760405162461bcd60e51b815260040161086f90613609565b80546114e1906001600160a01b0316333085612ac6565b50818160020160008282546114f691906135bd565b9091555050505050565b60008060cc83815481106115165761151661357e565b6000918252602091829020604080516101c081018252600e9390930290910180546001600160a01b038082168552600160a01b820460ff908116151586880152600160a81b8304811686860152600160b01b90920461ffff166060808701919091526001840154909116608080870191909152600284015460a0870152600384015460c0870152600484015460e087015260058401546101008701526006840154610120870152600784015461014087015260088401546101608701528451908101855260098401548152600a84015481880152600b84015481860152600c840154909216151590820152610180840152600d81018054835181870281018701909452808452939491936101a08601939283018282801561166057602002820191906000526020600020905b81546001600160a01b03168152600190910190602001808311611642575b50505050508152505090508060a001518160e00151610d3591906135bd565b6000611689612b09565b6000821161169657600080fd5b600060cc85815481106116ab576116ab61357e565b6000918252602080832088845260cd825260408085206001600160a01b038a1686529092529220600e90910290910191506116e686866128e8565b805460000361172057600d82018054600181018255600091825260209091200180546001600160a01b0319166001600160a01b0387161790555b8154611737906001600160a01b0316333087612ac6565b508381600001600082825461174c91906135bd565b925050819055508382600401600082825461176791906135bd565b909155505060038201541580159061178757508160030154826004015411155b6117c95760405162461bcd60e51b8152602060048201526013602482015272115e18d959591959081c1bdbdb081b1a5b5a5d606a1b604482015260640161086f565b85856001600160a01b03167f1449c6dd7851abc30abf37f57715f492010519147cc2652fbc38202c18a6ee908660405161180591815260200190565b60405180910390a3600192505050610d35600160c955565b611825612602565b61182f6000612b62565b565b6001600160a01b038116600090815260ca602090815260408083205460cb90925282205461185f82826135bd565b949193509150565b600054610100900460ff16158080156118875750600054600160ff909116105b806118a15750303b1580156118a1575060005460ff166001145b6119045760405162461bcd60e51b815260206004820152602e60248201527f496e697469616c697a61626c653a20636f6e747261637420697320616c72656160448201526d191e481a5b9a5d1a585b1a5e995960921b606482015260840161086f565b6000805460ff191660011790558015611927576000805461ff0019166101001790555b61192f612bb4565b801561090c576000805461ff0019169055604051600181527f7f26b83ff96e1f2b6a682f133852f6798a09c465da95921460cefb38474024989060200160405180910390a150565b6000610d358284612be3565b600082815260cd60209081526040808320338452909152812080548311156119ed5760405162461bcd60e51b815260206004820152601a60248201527f416d6f756e7420626967676572207468616e206465706f736974000000000000604482015260640161086f565b6119fa62093a80426135bd565b6003820155611a0c62093a80426135bd565b611a19906203f4806135bd565b6004820155600581019290925550600601805460ff1916905550600190565b60008060cc8481548110611a4e57611a4e61357e565b60009182526020909120600e9091020160018101549091506001600160a01b03163314611a8d5760405162461bcd60e51b815260040161086f90613609565b600981015442118015611aa35750600a81015442105b8015611ab45750600c81015460ff16155b8015611ac45750600b8101548311155b8015611ad35750600981015415155b611aef5760405162461bcd60e51b815260040161086f90613631565b600c8101805460ff19166001179055600281018054849190600090611b159084906135aa565b909155505060018101548154611b38916001600160a01b03918216911685612a56565b506001949350505050565b6000611b4d612b09565b600060cc8481548110611b6257611b6261357e565b6000918252602080832087845260cd8252604080852033865290925292208054600e9092029092019250841115611bd05760405162461bcd60e51b81526020600482015260126024820152711dda5d1a191c985dce881b9bdd0819dbdbd960721b604482015260640161086f565b428160030154108015611be65750428160040154115b8015611bf75750600681015460ff16155b8015611c07575083816005015410155b8015611c165750600381015415155b611c325760405162461bcd60e51b815260040161086f90613631565b60068101805460ff19166001179055611c4b85336128e8565b8315611c8b578054611c5d9085612be3565b81556004820154611c6e9085612be3565b60048301558154611c89906001600160a01b03163386612a56565b505b8054600003611da357600d82015460005b81811015611da057336001600160a01b031684600d018281548110611cc357611cc361357e565b6000918252602090912001546001600160a01b031603611d98576000600d8501611cee6001856135aa565b81548110611cfe57611cfe61357e565b600091825260209091200154600d860180546001600160a01b039092169250829184908110611d2f57611d2f61357e565b9060005260206000200160006101000a8154816001600160a01b0302191690836001600160a01b0316021790555084600d01805480611d7057611d7061367a565b600082815260209020810160001990810180546001600160a01b031916905501905550611da0565b600101611c9c565b50505b604051848152859033907f7fc4727e062e336010f2c282598ef5f14facb3de68cf8195c2f23e1454b2b74e9060200160405180910390a36001925050506111fc600160c955565b60008060008060cc8581548110611e0357611e0361357e565b6000918252602091829020604080516101c081018252600e9390930290910180546001600160a01b038082168552600160a01b820460ff908116151586880152600160a81b8304811686860152600160b01b90920461ffff166060808701919091526001840154909116608080870191909152600284015460a0870152600384015460c0870152600484015460e087015260058401546101008701526006840154610120870152600784015461014087015260088401546101608701528451908101855260098401548152600a84015481880152600b84015481860152600c840154909216151590820152610180840152600d81018054835181870281018701909452808452939491936101a086019392830182828015611f4d57602002820191906000526020600020905b81546001600160a01b03168152600190910190602001808311611f2f575b505050919092525050506101800151805160208201516040909201519097919650945092505050565b60008060008060cc8581548110611f8f57611f8f61357e565b6000918252602091829020604080516101c081018252600e9390930290910180546001600160a01b038082168552600160a01b820460ff908116151586880152600160a81b8304811686860152600160b01b90920461ffff166060808701919091526001840154909116608080870191909152600284015460a0870152600384015460c0870152600484015460e087015260058401546101008701526006840154610120870152600784015461014087015260088401546101608701528451908101855260098401548152600a84015481880152600b84015481860152600c840154909216151590820152610180840152600d81018054835181870281018701909452808452939491936101a0860193928301828280156120d957602002820191906000526020600020905b81546001600160a01b031681526001909101906020018083116120bb575b50505091909252505050610100810151610120820151610140909201519097919650945092505050565b600060cc85815481106121185761211861357e565b60009182526020909120600e909102018054909150600160a01b900460ff16156121845760405162461bcd60e51b815260206004820152601860248201527f506f6f6c20616c726561647920696e697469616c697a65640000000000000000604482015260640161086f565b60008361ffff1611801561219e57506127108361ffff1611155b6121dd5760405162461bcd60e51b815260206004820152601060248201526f415059206f7574206f662072616e676560801b604482015260640161086f565b80546121f490600160a81b900460ff16600a613774565b6121ff9060646135d0565b84101580156122315750805461222090600160a81b900460ff16600a613774565b61222d90629896806135d0565b8411155b6122755760405162461bcd60e51b8152602060048201526015602482015274506f6f6c20636170206f7574206f662072616e676560581b604482015260640161086f565b60018101546001600160a01b031633146122a15760405162461bcd60e51b815260040161086f90613609565b60006301e1338061271062093a806122bd61ffff8816896135d0565b6122c791906135d0565b6122d191906135e7565b6122db91906135e7565b905060006127106122ee6103e8846135d0565b6122f891906135e7565b905061231c333061230985886135bd565b86546001600160a01b0316929190612ac6565b508383600201600082825461233191906135bd565b909155505060038301869055825460ff60a01b1961ffff8716600160b01b021663ffff00ff60a01b1990911617600160a01b178355600783018290556006830182905561237e81836135aa565b836008018190555050505050505050565b6000612399612602565b6001600160a01b038316600090815260cb602090815260408083205460ca9092528220546123c791906135bd565b6001600160a01b038516600081815260ca6020908152604080832083905560cb909152812055909150611b38908483612a56565b60008060cc83815481106124115761241161357e565b6000918252602091829020604080516101c081018252600e9390930290910180546001600160a01b038082168552600160a01b820460ff908116151586880152600160a81b8304811686860152600160b01b90920461ffff166060808701919091526001840154909116608080870191909152600284015460a0870152600384015460c0870152600484015460e087015260058401546101008701526006840154610120870152600784015461014087015260088401546101608701528451908101855260098401548152600a84015481880152600b84015481860152600c840154909216151590820152610180840152600d81018054835181870281018701909452808452939491936101a08601939283018282801561255b57602002820191906000526020600020905b81546001600160a01b0316815260019091019060200180831161253d575b5050509190925250505060e001519392505050565b612578612602565b6001600160a01b0381166125dd5760405162461bcd60e51b815260206004820152602660248201527f4f776e61626c653a206e6577206f776e657220697320746865207a65726f206160448201526564647265737360d01b606482015260840161086f565b61090c81612b62565b6125ee612b09565b6125f881336128e8565b61090c600160c955565b6033546001600160a01b0316331461182f5760405162461bcd60e51b815260206004820181905260248201527f4f776e61626c653a2063616c6c6572206973206e6f7420746865206f776e6572604482015260640161086f565b60008060008060cc86815481106126755761267561357e565b90600052602060002090600e0201905060008160070154826006015461269b91906135aa565b9050858110156126b2576126af86826135bd565b90505b600182015482546126d1916001600160a01b0391821691163084612ac6565b5060006127106126e36103e8846135d0565b6126ed91906135e7565b90508183600701600082825461270391906135bd565b909155505082546001600160a01b0316600090815260cb6020526040812080548392906127319084906135bd565b909155506000905061274382846135aa565b90508084600801600082825461275991906135bd565b909155506001975092955093505050509250925092565b61090c612602565b7f4910fdfa16fed3260ed0e7147f7cc6da11a60208b5b9406d12a635614ffd91435460ff16156127b0576127ab83612bef565b505050565b826001600160a01b03166352d1902d6040518163ffffffff1660e01b8152600401602060405180830381865afa92505050801561280a575060408051601f3d908101601f1916820190925261280791810190613783565b60015b61286d5760405162461bcd60e51b815260206004820152602e60248201527f45524331393637557067726164653a206e657720696d706c656d656e7461746960448201526d6f6e206973206e6f74205555505360901b606482015260840161086f565b60008051602061387d83398151915281146128dc5760405162461bcd60e51b815260206004820152602960248201527f45524331393637557067726164653a20756e737570706f727465642070726f786044820152681a58589b195555525160ba1b606482015260840161086f565b506127ab838383612c8b565b600060cc83815481106128fd576128fd61357e565b6000918252602080832086845260cd825260408085206001600160a01b03881686529092529083208054600e909302909101935091036129435742600290910155505050565b600061294f8585611130565b905082600801548111156129cd576000612969868361265c565b90935091505081156129c757835461298b906001600160a01b03168683612a56565b50818460070160008282546129a091906135aa565b92505081905550808460080160008282546129bb91906135aa565b90915550504260028401555b50612a4f565b8015612a4f57808360070160008282546129e791906135aa565b90915550600090506127106129fe6103e8846135d0565b612a0891906135e7565b9050612a1481836135aa565b8454909250612a2d906001600160a01b03168684612a56565b5081846008016000828254612a4291906135aa565b9091555050426002840155505b5050505050565b6040516001600160a01b038316602482015260448101829052600090612abc90859063a9059cbb60e01b906064015b60408051601f198184030181529190526020810180516001600160e01b03166001600160e01b031990931692909217909152612cb6565b5060019392505050565b6040516001600160a01b0380851660248301528316604482015260648101829052600090611b389086906323b872dd60e01b90608401612a85565b949350505050565b600260c95403612b5b5760405162461bcd60e51b815260206004820152601f60248201527f5265656e7472616e637947756172643a207265656e7472616e742063616c6c00604482015260640161086f565b600260c955565b603380546001600160a01b038381166001600160a01b0319831681179093556040519116919082907f8be0079c531659141344cd1fd0a4f28419497f9722a3daafe3b4186f6b6457e090600090a35050565b600054610100900460ff16612bdb5760405162461bcd60e51b815260040161086f9061379c565b61182f612d88565b6000610d3582846135aa565b6001600160a01b0381163b612c5c5760405162461bcd60e51b815260206004820152602d60248201527f455243313936373a206e657720696d706c656d656e746174696f6e206973206e60448201526c1bdd08184818dbdb9d1c9858dd609a1b606482015260840161086f565b60008051602061387d83398151915280546001600160a01b0319166001600160a01b0392909216919091179055565b612c9483612db8565b600082511180612ca15750805b156127ab57612cb08383612df8565b50505050565b6000612d0b826040518060400160405280602081526020017f5361666545524332303a206c6f772d6c6576656c2063616c6c206661696c6564815250856001600160a01b0316612eec9092919063ffffffff16565b8051909150156127ab5780806020019051810190612d2991906137e7565b6127ab5760405162461bcd60e51b815260206004820152602a60248201527f5361666545524332303a204552433230206f7065726174696f6e20646964206e6044820152691bdd081cdd58d8d9595960b21b606482015260840161086f565b600054610100900460ff16612daf5760405162461bcd60e51b815260040161086f9061379c565b61182f33612b62565b612dc181612bef565b6040516001600160a01b038216907fbc7cd75a20ee27fd9adebab32041f755214dbc6bffa90cc0225b39da2e5c2d3b90600090a250565b60606001600160a01b0383163b612e605760405162461bcd60e51b815260206004820152602660248201527f416464726573733a2064656c65676174652063616c6c20746f206e6f6e2d636f6044820152651b9d1c9858dd60d21b606482015260840161086f565b600080846001600160a01b031684604051612e7b919061382d565b600060405180830381855af49150503d8060008114612eb6576040519150601f19603f3d011682016040523d82523d6000602084013e612ebb565b606091505b5091509150612ee3828260405180606001604052806027815260200161389d60279139612efb565b95945050505050565b6060612b018484600085612f14565b60608315612f0a575081610d35565b610d358383612fef565b606082471015612f755760405162461bcd60e51b815260206004820152602660248201527f416464726573733a20696e73756666696369656e742062616c616e636520666f6044820152651c8818d85b1b60d21b606482015260840161086f565b600080866001600160a01b03168587604051612f91919061382d565b60006040518083038185875af1925050503d8060008114612fce576040519150601f19603f3d011682016040523d82523d6000602084013e612fd3565b606091505b5091509150612fe487838387613019565b979650505050505050565b815115612fff5781518083602001fd5b8060405162461bcd60e51b815260040161086f9190613849565b60608315613088578251600003613081576001600160a01b0385163b6130815760405162461bcd60e51b815260206004820152601d60248201527f416464726573733a2063616c6c20746f206e6f6e2d636f6e7472616374000000604482015260640161086f565b5081612b01565b612b018383612fef565b604051806101c0016040528060006001600160a01b03168152602001600015158152602001600060ff168152602001600061ffff16815260200160006001600160a01b031681526020016000815260200160008152602001600081526020016000815260200160008152602001600081526020016000815260200161313a60405180608001604052806000815260200160008152602001600081526020016000151581525090565b8152602001606081525090565b82805482825590600052602060002090810192821561319c579160200282015b8281111561319c57825182546001600160a01b0319166001600160a01b03909116178255602090920191600190910190613167565b506131a89291506131c6565b5090565b508054600082559060005260206000209081019061090c91905b5b808211156131a857600081556001016131c7565b6000602082840312156131ed57600080fd5b5035919050565b6001600160a01b038e811682528d1515602083015260ff8d16604083015261ffff8c1660608301528a16608082015261020081018960a08301528860c08301528760e0830152866101008301528561012083015284610140830152836101608301526132876101808301848051825260208101516020830152604081015160408301526060810151151560608301525050565b9e9d5050505050505050505050505050565b80356001600160a01b03811681146132b057600080fd5b919050565b6000602082840312156132c757600080fd5b610d3582613299565b6000806000606084860312156132e557600080fd5b6132ee84613299565b9250602084013560ff8116811461330457600080fd5b915061331260408501613299565b90509250925092565b60008060006060848603121561333057600080fd5b8335925061334060208501613299565b9150604084013590509250925092565b6000806040838503121561336357600080fd5b8235915061337360208401613299565b90509250929050565b634e487b7160e01b600052604160045260246000fd5b600080604083850312156133a557600080fd5b6133ae83613299565b9150602083013567ffffffffffffffff808211156133cb57600080fd5b818501915085601f8301126133df57600080fd5b8135818111156133f1576133f161337c565b604051601f8201601f19908116603f011681019083821181831017156134195761341961337c565b8160405282815288602084870101111561343257600080fd5b8260208601602083013760006020848301015280955050505050509250929050565b6000806040838503121561346757600080fd5b50508035926020909101359150565b6000806000806080858703121561348c57600080fd5b8435935060208501359250604085013561ffff811681146134ac57600080fd5b9396929550929360600135925050565b600080604083850312156134cf57600080fd5b6134d883613299565b915061337360208401613299565b6020808252602c908201527f46756e6374696f6e206d7573742062652063616c6c6564207468726f7567682060408201526b19195b1959d85d1958d85b1b60a21b606082015260800190565b6020808252602c908201527f46756e6374696f6e206d7573742062652063616c6c6564207468726f7567682060408201526b6163746976652070726f787960a01b606082015260800190565b634e487b7160e01b600052603260045260246000fd5b634e487b7160e01b600052601160045260246000fd5b818103818111156111fc576111fc613594565b808201808211156111fc576111fc613594565b80820281158282048414176111fc576111fc613594565b60008261360457634e487b7160e01b600052601260045260246000fd5b500490565b6020808252600e908201526d139bdd08185d5d1a1bdc9a5e995960921b604082015260600190565b60208082526029908201527f54696d656c6f636b206e6f7420736574206f72206e6f7420636f6d706c6574656040820152686420696e2074696d6560b81b606082015260800190565b634e487b7160e01b600052603160045260246000fd5b600181815b808511156136cb5781600019048211156136b1576136b1613594565b808516156136be57918102915b93841c9390800290613695565b509250929050565b6000826136e2575060016111fc565b816136ef575060006111fc565b8160018114613705576002811461370f5761372b565b60019150506111fc565b60ff84111561372057613720613594565b50506001821b6111fc565b5060208310610133831016604e8410600b841016171561374e575081810a6111fc565b6137588383613690565b806000190482111561376c5761376c613594565b029392505050565b6000610d3560ff8416836136d3565b60006020828403121561379557600080fd5b5051919050565b6020808252602b908201527f496e697469616c697a61626c653a20636f6e7472616374206973206e6f74206960408201526a6e697469616c697a696e6760a81b606082015260800190565b6000602082840312156137f957600080fd5b81518015158114610d3557600080fd5b60005b8381101561382457818101518382015260200161380c565b50506000910152565b6000825161383f818460208701613809565b9190910192915050565b6020815260008251806020840152613868816040850160208701613809565b601f01601f1916919091016040019291505056fe360894a13ba1a3210667c828492db98dca3e2076cc3735a920a3ca505d382bbc416464726573733a206c6f772d6c6576656c2064656c65676174652063616c6c206661696c6564a2646970667358221220a564b9c7361feddc87292116eedcaee52acdbb191e62bd8ed78c5dfd90dceb1d64736f6c63430008110033",
    "linkReferences": {}
  },
  "methodIdentifiers": {
    "addNewBountyPool(address,uint8,address)": "399eadb8",
    "billPremium(uint256)": "2dbe051e",
    "claimPremium(uint256)": "f47ec3be",
    "collectSaloonProfits(address,address)": "cf9564b9",
    "getMultiplier(uint256,uint256)": "8dbb1e3a",
    "initialize()": "8129fc1c",
    "makeProjectDeposit(uint256,uint256)": "57a86d3a",
    "owner()": "8da5cb5b",
    "payBounty(uint256,address,uint256)": "3ac6ad7b",
    "pendingToken(uint256,address)": "48e43af4",
    "poolInfo(uint256)": "1526fe27",
    "poolLength()": "081e3eda",
    "projectDepositWithdrawal(uint256,uint256)": "983c1ce0",
    "proxiableUUID()": "52d1902d",
    "renounceOwnership()": "715018a6",
    "saloonBountyProfit(address)": "e45abd0f",
    "saloonPremiumProfit(address)": "ca006148",
    "scheduleProjectDepositWithdrawal(uint256,uint256)": "5669cbef",
    "scheduleUnstake(uint256,uint256)": "91635b4e",
    "setAPYandPoolCapAndDeposit(uint256,uint256,uint16,uint256)": "cee6b069",
    "stake(uint256,address,uint256)": "6e9c931c",
    "transferOwnership(address)": "f2fde38b",
    "unstake(uint256,uint256)": "9e2c8a5b",
    "upgradeTo(address)": "3659cfe6",
    "upgradeToAndCall(address,bytes)": "4f1ef286",
    "userInfo(uint256,address)": "93f1a40b",
    "viewBountyBalance(uint256)": "6ac6d812",
    "viewPoolCap(uint256)": "39679ff4",
    "viewPoolPremiumInfo(uint256)": "b1a2d16f",
    "viewPoolTimelockInfo(uint256)": "ac30b856",
    "viewSaloonProfitBalance(address)": "718c7eef",
    "viewStake(uint256)": "23691677",
    "viewTotalStaked(uint256)": "dbdd6957",
    "viewUserInfo(uint256,address)": "a754ecb0"
  },
  "id": 29
}