{
  "abi": [
    {
      "inputs": [
        {
          "internalType": "UD60x18",
          "name": "x",
          "type": "uint256"
        }
      ],
      "name": "PRBMathUD60x18__LogInputTooSmall",
      "type": "error"
    },
    {
      "inputs": [
        {
          "internalType": "uint256",
          "name": "x",
          "type": "uint256"
        }
      ],
      "name": "PRBMathUD60x18__ToUD60x18Overflow",
      "type": "error"
    },
    {
      "inputs": [
        {
          "internalType": "uint256",
          "name": "x",
          "type": "uint256"
        },
        {
          "internalType": "uint256",
          "name": "y",
          "type": "uint256"
        }
      ],
      "name": "PRBMath__MulDiv18Overflow",
      "type": "error"
    },
    {
      "inputs": [
        {
          "internalType": "uint256",
          "name": "x",
          "type": "uint256"
        },
        {
          "internalType": "uint256",
          "name": "y",
          "type": "uint256"
        },
        {
          "internalType": "uint256",
          "name": "denominator",
          "type": "uint256"
        }
      ],
      "name": "PRBMath__MulDivOverflow",
      "type": "error"
    },
    {
      "anonymous": false,
      "inputs": [
        {
          "indexed": false,
          "internalType": "address",
          "name": "previousAdmin",
          "type": "address"
        },
        {
          "indexed": false,
          "internalType": "address",
          "name": "newAdmin",
          "type": "address"
        }
      ],
      "name": "AdminChanged",
      "type": "event"
    },
    {
      "anonymous": false,
      "inputs": [
        {
          "indexed": true,
          "internalType": "address",
          "name": "owner",
          "type": "address"
        },
        {
          "indexed": true,
          "internalType": "address",
          "name": "approved",
          "type": "address"
        },
        {
          "indexed": true,
          "internalType": "uint256",
          "name": "tokenId",
          "type": "uint256"
        }
      ],
      "name": "Approval",
      "type": "event"
    },
    {
      "anonymous": false,
      "inputs": [
        {
          "indexed": true,
          "internalType": "address",
          "name": "owner",
          "type": "address"
        },
        {
          "indexed": true,
          "internalType": "address",
          "name": "operator",
          "type": "address"
        },
        {
          "indexed": false,
          "internalType": "bool",
          "name": "approved",
          "type": "bool"
        }
      ],
      "name": "ApprovalForAll",
      "type": "event"
    },
    {
      "anonymous": false,
      "inputs": [
        {
          "indexed": true,
          "internalType": "address",
          "name": "beacon",
          "type": "address"
        }
      ],
      "name": "BeaconUpgraded",
      "type": "event"
    },
    {
      "anonymous": false,
      "inputs": [
        {
          "indexed": true,
          "internalType": "uint256",
          "name": "pid",
          "type": "uint256"
        },
        {
          "indexed": false,
          "internalType": "uint256",
          "name": "oldAmount",
          "type": "uint256"
        },
        {
          "indexed": false,
          "internalType": "uint256",
          "name": "newAmount",
          "type": "uint256"
        }
      ],
      "name": "BountyBalanceChanged",
      "type": "event"
    },
    {
      "anonymous": false,
      "inputs": [
        {
          "indexed": true,
          "internalType": "address",
          "name": "hunter",
          "type": "address"
        },
        {
          "indexed": true,
          "internalType": "address",
          "name": "token",
          "type": "address"
        },
        {
          "indexed": false,
          "internalType": "uint256",
          "name": "amount",
          "type": "uint256"
        }
      ],
      "name": "BountyPaid",
      "type": "event"
    },
    {
      "anonymous": false,
      "inputs": [
        {
          "indexed": false,
          "internalType": "uint8",
          "name": "version",
          "type": "uint8"
        }
      ],
      "name": "Initialized",
      "type": "event"
    },
    {
      "anonymous": false,
      "inputs": [
        {
          "indexed": true,
          "internalType": "uint256",
          "name": "pid",
          "type": "uint256"
        },
        {
          "indexed": true,
          "internalType": "address",
          "name": "token",
          "type": "address"
        },
        {
          "indexed": false,
          "internalType": "uint256",
          "name": "tokenDecimals",
          "type": "uint256"
        }
      ],
      "name": "NewBountyDeployed",
      "type": "event"
    },
    {
      "anonymous": false,
      "inputs": [
        {
          "indexed": true,
          "internalType": "address",
          "name": "previousOwner",
          "type": "address"
        },
        {
          "indexed": true,
          "internalType": "address",
          "name": "newOwner",
          "type": "address"
        }
      ],
      "name": "OwnershipTransferred",
      "type": "event"
    },
    {
      "anonymous": false,
      "inputs": [
        {
          "indexed": true,
          "internalType": "uint256",
          "name": "pid",
          "type": "uint256"
        },
        {
          "indexed": false,
          "internalType": "uint256",
          "name": "amount",
          "type": "uint256"
        }
      ],
      "name": "PremiumBilled",
      "type": "event"
    },
    {
      "anonymous": false,
      "inputs": [
        {
          "indexed": true,
          "internalType": "address",
          "name": "user",
          "type": "address"
        },
        {
          "indexed": true,
          "internalType": "uint256",
          "name": "pid",
          "type": "uint256"
        },
        {
          "indexed": false,
          "internalType": "uint256",
          "name": "amount",
          "type": "uint256"
        }
      ],
      "name": "Staked",
      "type": "event"
    },
    {
      "anonymous": false,
      "inputs": [
        {
          "indexed": true,
          "internalType": "address",
          "name": "from",
          "type": "address"
        },
        {
          "indexed": true,
          "internalType": "address",
          "name": "to",
          "type": "address"
        },
        {
          "indexed": true,
          "internalType": "uint256",
          "name": "tokenId",
          "type": "uint256"
        }
      ],
      "name": "Transfer",
      "type": "event"
    },
    {
      "anonymous": false,
      "inputs": [
        {
          "indexed": true,
          "internalType": "address",
          "name": "user",
          "type": "address"
        },
        {
          "indexed": true,
          "internalType": "uint256",
          "name": "pid",
          "type": "uint256"
        },
        {
          "indexed": false,
          "internalType": "uint256",
          "name": "amount",
          "type": "uint256"
        }
      ],
      "name": "Unstaked",
      "type": "event"
    },
    {
      "anonymous": false,
      "inputs": [
        {
          "indexed": true,
          "internalType": "address",
          "name": "implementation",
          "type": "address"
        }
      ],
      "name": "Upgraded",
      "type": "event"
    },
    {
      "anonymous": false,
      "inputs": [
        {
          "indexed": true,
          "internalType": "uint256",
          "name": "pid",
          "type": "uint256"
        },
        {
          "indexed": false,
          "internalType": "uint256",
          "name": "amount",
          "type": "uint256"
        }
      ],
      "name": "WithdrawalOrUnstakeScheduled",
      "type": "event"
    },
    {
      "anonymous": false,
      "inputs": [
        {
          "indexed": true,
          "internalType": "address",
          "name": "referrer",
          "type": "address"
        },
        {
          "indexed": false,
          "internalType": "uint256",
          "name": "amount",
          "type": "uint256"
        }
      ],
      "name": "referralPaid",
      "type": "event"
    },
    {
      "anonymous": false,
      "inputs": [
        {
          "indexed": true,
          "internalType": "address",
          "name": "token",
          "type": "address"
        },
        {
          "indexed": true,
          "internalType": "bool",
          "name": "whitelisted",
          "type": "bool"
        }
      ],
      "name": "tokenWhitelistUpdated",
      "type": "event"
    },
    {
      "inputs": [],
      "name": "acceptOwnershipTransfer",
      "outputs": [],
      "stateMutability": "nonpayable",
      "type": "function"
    },
    {
      "inputs": [
        {
          "internalType": "uint256",
          "name": "",
          "type": "uint256"
        }
      ],
      "name": "activeStrategies",
      "outputs": [
        {
          "internalType": "bytes32",
          "name": "",
          "type": "bytes32"
        }
      ],
      "stateMutability": "view",
      "type": "function"
    },
    {
      "inputs": [
        {
          "internalType": "uint256",
          "name": "",
          "type": "uint256"
        }
      ],
      "name": "activeTokens",
      "outputs": [
        {
          "internalType": "address",
          "name": "",
          "type": "address"
        }
      ],
      "stateMutability": "view",
      "type": "function"
    },
    {
      "inputs": [
        {
          "internalType": "address",
          "name": "_token",
          "type": "address"
        },
        {
          "internalType": "address",
          "name": "_projectWallet",
          "type": "address"
        },
        {
          "internalType": "string",
          "name": "_projectName",
          "type": "string"
        },
        {
          "internalType": "address",
          "name": "_referrer",
          "type": "address"
        },
        {
          "internalType": "uint256",
          "name": "_referralFee",
          "type": "uint256"
        },
        {
          "internalType": "uint256",
          "name": "_referralEndTime",
          "type": "uint256"
        }
      ],
      "name": "addNewBountyPool",
      "outputs": [
        {
          "internalType": "uint256",
          "name": "",
          "type": "uint256"
        }
      ],
      "stateMutability": "nonpayable",
      "type": "function"
    },
    {
      "inputs": [
        {
          "internalType": "address",
          "name": "to",
          "type": "address"
        },
        {
          "internalType": "uint256",
          "name": "tokenId",
          "type": "uint256"
        }
      ],
      "name": "approve",
      "outputs": [],
      "stateMutability": "nonpayable",
      "type": "function"
    },
    {
      "inputs": [
        {
          "internalType": "address",
          "name": "owner",
          "type": "address"
        }
      ],
      "name": "balanceOf",
      "outputs": [
        {
          "internalType": "uint256",
          "name": "",
          "type": "uint256"
        }
      ],
      "stateMutability": "view",
      "type": "function"
    },
    {
      "inputs": [
        {
          "internalType": "uint256",
          "name": "_pid",
          "type": "uint256"
        }
      ],
      "name": "billPremium",
      "outputs": [
        {
          "internalType": "bool",
          "name": "",
          "type": "bool"
        }
      ],
      "stateMutability": "nonpayable",
      "type": "function"
    },
    {
      "inputs": [
        {
          "internalType": "uint256",
          "name": "_pid",
          "type": "uint256"
        },
        {
          "internalType": "uint256",
          "name": "_totalAmount",
          "type": "uint256"
        }
      ],
      "name": "calcReferralSplit",
      "outputs": [
        {
          "internalType": "uint256",
          "name": "",
          "type": "uint256"
        },
        {
          "internalType": "uint256",
          "name": "",
          "type": "uint256"
        },
        {
          "internalType": "address",
          "name": "",
          "type": "address"
        }
      ],
      "stateMutability": "view",
      "type": "function"
    },
    {
      "inputs": [
        {
          "internalType": "uint256",
          "name": "_poolCap",
          "type": "uint256"
        },
        {
          "internalType": "uint256",
          "name": "_apy",
          "type": "uint256"
        }
      ],
      "name": "calcRequiredPremiumBalancePerPeriod",
      "outputs": [
        {
          "internalType": "uint256",
          "name": "requiredPremiumBalance",
          "type": "uint256"
        }
      ],
      "stateMutability": "pure",
      "type": "function"
    },
    {
      "inputs": [
        {
          "internalType": "uint256",
          "name": "_pid",
          "type": "uint256"
        },
        {
          "internalType": "uint256",
          "name": "_stake",
          "type": "uint256"
        },
        {
          "internalType": "uint256",
          "name": "_memX",
          "type": "uint256"
        }
      ],
      "name": "calculateArbitraryEffectiveAPY",
      "outputs": [
        {
          "internalType": "uint256",
          "name": "scaledAPY",
          "type": "uint256"
        }
      ],
      "stateMutability": "view",
      "type": "function"
    },
    {
      "inputs": [
        {
          "internalType": "uint256",
          "name": "_pid",
          "type": "uint256"
        },
        {
          "internalType": "uint256",
          "name": "_stake",
          "type": "uint256"
        }
      ],
      "name": "calculateEffectiveAPY",
      "outputs": [
        {
          "internalType": "uint256",
          "name": "scaledAPY",
          "type": "uint256"
        }
      ],
      "stateMutability": "view",
      "type": "function"
    },
    {
      "inputs": [
        {
          "internalType": "uint256",
          "name": "_tokenId",
          "type": "uint256"
        }
      ],
      "name": "claimPremium",
      "outputs": [],
      "stateMutability": "nonpayable",
      "type": "function"
    },
    {
      "inputs": [],
      "name": "collectAllReferralProfits",
      "outputs": [
        {
          "internalType": "bool",
          "name": "",
          "type": "bool"
        }
      ],
      "stateMutability": "nonpayable",
      "type": "function"
    },
    {
      "inputs": [
        {
          "internalType": "address",
          "name": "_saloonWallet",
          "type": "address"
        }
      ],
      "name": "collectAllSaloonProfits",
      "outputs": [
        {
          "internalType": "bool",
          "name": "",
          "type": "bool"
        }
      ],
      "stateMutability": "nonpayable",
      "type": "function"
    },
    {
      "inputs": [
        {
          "internalType": "address",
          "name": "_token",
          "type": "address"
        }
      ],
      "name": "collectReferralProfit",
      "outputs": [
        {
          "internalType": "bool",
          "name": "",
          "type": "bool"
        }
      ],
      "stateMutability": "nonpayable",
      "type": "function"
    },
    {
      "inputs": [
        {
          "internalType": "address",
          "name": "_token",
          "type": "address"
        },
        {
          "internalType": "address",
          "name": "_saloonWallet",
          "type": "address"
        }
      ],
      "name": "collectSaloonProfits",
      "outputs": [
        {
          "internalType": "bool",
          "name": "",
          "type": "bool"
        }
      ],
      "stateMutability": "nonpayable",
      "type": "function"
    },
    {
      "inputs": [],
      "name": "compoundYieldForAll",
      "outputs": [],
      "stateMutability": "nonpayable",
      "type": "function"
    },
    {
      "inputs": [
        {
          "internalType": "uint256",
          "name": "_pid",
          "type": "uint256"
        }
      ],
      "name": "compoundYieldForPid",
      "outputs": [],
      "stateMutability": "nonpayable",
      "type": "function"
    },
    {
      "inputs": [
        {
          "internalType": "uint256",
          "name": "_pid",
          "type": "uint256"
        }
      ],
      "name": "consolidate",
      "outputs": [],
      "stateMutability": "nonpayable",
      "type": "function"
    },
    {
      "inputs": [],
      "name": "consolidateAll",
      "outputs": [],
      "stateMutability": "nonpayable",
      "type": "function"
    },
    {
      "inputs": [
        {
          "internalType": "uint256",
          "name": "_pid",
          "type": "uint256"
        },
        {
          "internalType": "uint256",
          "name": "_endTime",
          "type": "uint256"
        }
      ],
      "name": "extendReferralPeriod",
      "outputs": [],
      "stateMutability": "nonpayable",
      "type": "function"
    },
    {
      "inputs": [
        {
          "internalType": "address",
          "name": "owner",
          "type": "address"
        }
      ],
      "name": "getAllTokensByOwner",
      "outputs": [
        {
          "components": [
            {
              "internalType": "uint256",
              "name": "pid",
              "type": "uint256"
            },
            {
              "internalType": "uint256",
              "name": "amount",
              "type": "uint256"
            },
            {
              "internalType": "uint256",
              "name": "xDelta",
              "type": "uint256"
            },
            {
              "internalType": "uint256",
              "name": "apy",
              "type": "uint256"
            },
            {
              "internalType": "uint256",
              "name": "unclaimed",
              "type": "uint256"
            },
            {
              "internalType": "uint256",
              "name": "lastClaimedTime",
              "type": "uint256"
            },
            {
              "internalType": "uint256",
              "name": "timelock",
              "type": "uint256"
            },
            {
              "internalType": "uint256",
              "name": "timelimit",
              "type": "uint256"
            }
          ],
          "internalType": "struct BountyTokenNFT.NFTInfo[]",
          "name": "userTokens",
          "type": "tuple[]"
        }
      ],
      "stateMutability": "view",
      "type": "function"
    },
    {
      "inputs": [
        {
          "internalType": "uint256",
          "name": "tokenId",
          "type": "uint256"
        }
      ],
      "name": "getApproved",
      "outputs": [
        {
          "internalType": "address",
          "name": "",
          "type": "address"
        }
      ],
      "stateMutability": "view",
      "type": "function"
    },
    {
      "inputs": [
        {
          "internalType": "uint256",
          "name": "_pid",
          "type": "uint256"
        }
      ],
      "name": "getCurrentAPY",
      "outputs": [
        {
          "internalType": "uint256",
          "name": "currentAPY",
          "type": "uint256"
        }
      ],
      "stateMutability": "view",
      "type": "function"
    },
    {
      "inputs": [
        {
          "internalType": "uint256",
          "name": "_from",
          "type": "uint256"
        },
        {
          "internalType": "uint256",
          "name": "_to",
          "type": "uint256"
        }
      ],
      "name": "getSecondsPassed",
      "outputs": [
        {
          "internalType": "uint256",
          "name": "",
          "type": "uint256"
        }
      ],
      "stateMutability": "pure",
      "type": "function"
    },
    {
      "inputs": [],
      "name": "index",
      "outputs": [
        {
          "internalType": "uint256",
          "name": "",
          "type": "uint256"
        }
      ],
      "stateMutability": "view",
      "type": "function"
    },
    {
      "inputs": [
        {
          "internalType": "address",
          "name": "_strategyFactory",
          "type": "address"
        }
      ],
      "name": "initialize",
      "outputs": [],
      "stateMutability": "nonpayable",
      "type": "function"
    },
    {
      "inputs": [
        {
          "internalType": "address",
          "name": "owner",
          "type": "address"
        },
        {
          "internalType": "address",
          "name": "operator",
          "type": "address"
        }
      ],
      "name": "isApprovedForAll",
      "outputs": [
        {
          "internalType": "bool",
          "name": "",
          "type": "bool"
        }
      ],
      "stateMutability": "view",
      "type": "function"
    },
    {
      "inputs": [
        {
          "internalType": "uint256",
          "name": "_pid",
          "type": "uint256"
        },
        {
          "internalType": "uint256",
          "name": "_deposit",
          "type": "uint256"
        },
        {
          "internalType": "string",
          "name": "_strategyName",
          "type": "string"
        }
      ],
      "name": "makeProjectDeposit",
      "outputs": [],
      "stateMutability": "nonpayable",
      "type": "function"
    },
    {
      "inputs": [
        {
          "internalType": "address",
          "name": "",
          "type": "address"
        }
      ],
      "name": "minTokenStakeAmount",
      "outputs": [
        {
          "internalType": "uint256",
          "name": "",
          "type": "uint256"
        }
      ],
      "stateMutability": "view",
      "type": "function"
    },
    {
      "inputs": [],
      "name": "name",
      "outputs": [
        {
          "internalType": "string",
          "name": "",
          "type": "string"
        }
      ],
      "stateMutability": "view",
      "type": "function"
    },
    {
      "inputs": [
        {
          "internalType": "uint256",
          "name": "",
          "type": "uint256"
        }
      ],
      "name": "nftInfo",
      "outputs": [
        {
          "internalType": "uint256",
          "name": "pid",
          "type": "uint256"
        },
        {
          "internalType": "uint256",
          "name": "amount",
          "type": "uint256"
        },
        {
          "internalType": "uint256",
          "name": "xDelta",
          "type": "uint256"
        },
        {
          "internalType": "uint256",
          "name": "apy",
          "type": "uint256"
        },
        {
          "internalType": "uint256",
          "name": "unclaimed",
          "type": "uint256"
        },
        {
          "internalType": "uint256",
          "name": "lastClaimedTime",
          "type": "uint256"
        },
        {
          "internalType": "uint256",
          "name": "timelock",
          "type": "uint256"
        },
        {
          "internalType": "uint256",
          "name": "timelimit",
          "type": "uint256"
        }
      ],
      "stateMutability": "view",
      "type": "function"
    },
    {
      "inputs": [
        {
          "internalType": "uint256",
          "name": "",
          "type": "uint256"
        }
      ],
      "name": "nftToPid",
      "outputs": [
        {
          "internalType": "uint256",
          "name": "",
          "type": "uint256"
        }
      ],
      "stateMutability": "view",
      "type": "function"
    },
    {
      "inputs": [],
      "name": "owner",
      "outputs": [
        {
          "internalType": "address",
          "name": "",
          "type": "address"
        }
      ],
      "stateMutability": "view",
      "type": "function"
    },
    {
      "inputs": [
        {
          "internalType": "uint256",
          "name": "tokenId",
          "type": "uint256"
        }
      ],
      "name": "ownerOf",
      "outputs": [
        {
          "internalType": "address",
          "name": "",
          "type": "address"
        }
      ],
      "stateMutability": "view",
      "type": "function"
    },
    {
      "inputs": [
        {
          "internalType": "uint256",
          "name": "_pid",
          "type": "uint256"
        },
        {
          "internalType": "address",
          "name": "_hunter",
          "type": "address"
        },
        {
          "internalType": "uint256",
          "name": "_payoutBPS",
          "type": "uint256"
        }
      ],
      "name": "payBounty",
      "outputs": [
        {
          "internalType": "bool",
          "name": "",
          "type": "bool"
        }
      ],
      "stateMutability": "nonpayable",
      "type": "function"
    },
    {
      "inputs": [
        {
          "internalType": "uint256",
          "name": "_tokenId",
          "type": "uint256"
        }
      ],
      "name": "pendingPremium",
      "outputs": [
        {
          "internalType": "uint256",
          "name": "totalPending",
          "type": "uint256"
        },
        {
          "internalType": "uint256",
          "name": "actualPending",
          "type": "uint256"
        },
        {
          "internalType": "uint256",
          "name": "newPending",
          "type": "uint256"
        }
      ],
      "stateMutability": "view",
      "type": "function"
    },
    {
      "inputs": [
        {
          "internalType": "uint256",
          "name": "",
          "type": "uint256"
        },
        {
          "internalType": "uint256",
          "name": "",
          "type": "uint256"
        }
      ],
      "name": "pidNFTList",
      "outputs": [
        {
          "internalType": "uint256",
          "name": "",
          "type": "uint256"
        }
      ],
      "stateMutability": "view",
      "type": "function"
    },
    {
      "inputs": [
        {
          "internalType": "uint256",
          "name": "",
          "type": "uint256"
        },
        {
          "internalType": "bytes32",
          "name": "",
          "type": "bytes32"
        }
      ],
      "name": "pidStrategies",
      "outputs": [
        {
          "internalType": "address",
          "name": "",
          "type": "address"
        }
      ],
      "stateMutability": "view",
      "type": "function"
    },
    {
      "inputs": [
        {
          "internalType": "uint256",
          "name": "",
          "type": "uint256"
        }
      ],
      "name": "poolInfo",
      "outputs": [
        {
          "components": [
            {
              "internalType": "contract IERC20",
              "name": "token",
              "type": "address"
            },
            {
              "internalType": "uint8",
              "name": "tokenDecimals",
              "type": "uint8"
            },
            {
              "internalType": "uint16",
              "name": "apy",
              "type": "uint16"
            },
            {
              "internalType": "address",
              "name": "projectWallet",
              "type": "address"
            },
            {
              "internalType": "string",
              "name": "projectName",
              "type": "string"
            },
            {
              "internalType": "uint256",
              "name": "poolCap",
              "type": "uint256"
            },
            {
              "internalType": "uint256",
              "name": "totalStaked",
              "type": "uint256"
            },
            {
              "internalType": "uint256",
              "name": "scalingMultiplier",
              "type": "uint256"
            }
          ],
          "internalType": "struct ISaloon.GeneralInfo",
          "name": "generalInfo",
          "type": "tuple"
        },
        {
          "components": [
            {
              "internalType": "uint256",
              "name": "projectDepositHeld",
              "type": "uint256"
            },
            {
              "internalType": "uint256",
              "name": "projectDepositInStrategy",
              "type": "uint256"
            }
          ],
          "internalType": "struct ISaloon.DepositInfo",
          "name": "depositInfo",
          "type": "tuple"
        },
        {
          "components": [
            {
              "internalType": "uint256",
              "name": "premiumBalance",
              "type": "uint256"
            },
            {
              "internalType": "uint256",
              "name": "premiumAvailable",
              "type": "uint256"
            }
          ],
          "internalType": "struct ISaloon.PremiumInfo",
          "name": "premiumInfo",
          "type": "tuple"
        },
        {
          "components": [
            {
              "internalType": "uint256",
              "name": "timelock",
              "type": "uint256"
            },
            {
              "internalType": "uint256",
              "name": "timeLimit",
              "type": "uint256"
            },
            {
              "internalType": "uint256",
              "name": "withdrawalScheduledAmount",
              "type": "uint256"
            },
            {
              "internalType": "bool",
              "name": "withdrawalExecuted",
              "type": "bool"
            }
          ],
          "internalType": "struct ISaloon.TimelockInfo",
          "name": "poolTimelock",
          "type": "tuple"
        },
        {
          "components": [
            {
              "internalType": "uint256",
              "name": "currentX",
              "type": "uint256"
            },
            {
              "internalType": "uint256",
              "name": "currentY",
              "type": "uint256"
            },
            {
              "internalType": "uint256",
              "name": "totalSupply",
              "type": "uint256"
            },
            {
              "internalType": "uint256[]",
              "name": "unstakedTokens",
              "type": "uint256[]"
            }
          ],
          "internalType": "struct ISaloon.CurveInfo",
          "name": "curveInfo",
          "type": "tuple"
        },
        {
          "components": [
            {
              "internalType": "address",
              "name": "referrer",
              "type": "address"
            },
            {
              "internalType": "uint256",
              "name": "referralFee",
              "type": "uint256"
            },
            {
              "internalType": "uint256",
              "name": "endTime",
              "type": "uint256"
            }
          ],
          "internalType": "struct ISaloon.ReferralInfo",
          "name": "referralInfo",
          "type": "tuple"
        },
        {
          "internalType": "uint256",
          "name": "freezeTime",
          "type": "uint256"
        },
        {
          "internalType": "bool",
          "name": "isActive",
          "type": "bool"
        }
      ],
      "stateMutability": "view",
      "type": "function"
    },
    {
      "inputs": [],
      "name": "poolLength",
      "outputs": [
        {
          "internalType": "uint256",
          "name": "",
          "type": "uint256"
        }
      ],
      "stateMutability": "view",
      "type": "function"
    },
    {
      "inputs": [
        {
          "internalType": "uint256",
          "name": "_pid",
          "type": "uint256"
        },
        {
          "internalType": "uint256",
          "name": "_amount",
          "type": "uint256"
        }
      ],
      "name": "projectDepositWithdrawal",
      "outputs": [
        {
          "internalType": "bool",
          "name": "",
          "type": "bool"
        }
      ],
      "stateMutability": "nonpayable",
      "type": "function"
    },
    {
      "inputs": [],
      "name": "proxiableUUID",
      "outputs": [
        {
          "internalType": "bytes32",
          "name": "",
          "type": "bytes32"
        }
      ],
      "stateMutability": "view",
      "type": "function"
    },
    {
      "inputs": [
        {
          "internalType": "address",
          "name": "_token",
          "type": "address"
        },
        {
          "internalType": "uint256",
          "name": "_amount",
          "type": "uint256"
        }
      ],
      "name": "receiveStrategyYield",
      "outputs": [],
      "stateMutability": "nonpayable",
      "type": "function"
    },
    {
      "inputs": [
        {
          "internalType": "address",
          "name": "",
          "type": "address"
        },
        {
          "internalType": "address",
          "name": "",
          "type": "address"
        }
      ],
      "name": "referralBalances",
      "outputs": [
        {
          "internalType": "uint256",
          "name": "",
          "type": "uint256"
        }
      ],
      "stateMutability": "view",
      "type": "function"
    },
    {
      "inputs": [
        {
          "internalType": "address",
          "name": "from",
          "type": "address"
        },
        {
          "internalType": "address",
          "name": "to",
          "type": "address"
        },
        {
          "internalType": "uint256",
          "name": "tokenId",
          "type": "uint256"
        }
      ],
      "name": "safeTransferFrom",
      "outputs": [],
      "stateMutability": "nonpayable",
      "type": "function"
    },
    {
      "inputs": [
        {
          "internalType": "address",
          "name": "from",
          "type": "address"
        },
        {
          "internalType": "address",
          "name": "to",
          "type": "address"
        },
        {
          "internalType": "uint256",
          "name": "tokenId",
          "type": "uint256"
        },
        {
          "internalType": "bytes",
          "name": "data",
          "type": "bytes"
        }
      ],
      "name": "safeTransferFrom",
      "outputs": [],
      "stateMutability": "nonpayable",
      "type": "function"
    },
    {
      "inputs": [
        {
          "internalType": "address",
          "name": "",
          "type": "address"
        }
      ],
      "name": "saloonBountyProfit",
      "outputs": [
        {
          "internalType": "uint256",
          "name": "",
          "type": "uint256"
        }
      ],
      "stateMutability": "view",
      "type": "function"
    },
    {
      "inputs": [
        {
          "internalType": "address",
          "name": "",
          "type": "address"
        }
      ],
      "name": "saloonPremiumProfit",
      "outputs": [
        {
          "internalType": "uint256",
          "name": "",
          "type": "uint256"
        }
      ],
      "stateMutability": "view",
      "type": "function"
    },
    {
      "inputs": [
        {
          "internalType": "address",
          "name": "",
          "type": "address"
        }
      ],
      "name": "saloonStrategyProfit",
      "outputs": [
        {
          "internalType": "uint256",
          "name": "",
          "type": "uint256"
        }
      ],
      "stateMutability": "view",
      "type": "function"
    },
    {
      "inputs": [
        {
          "internalType": "uint256",
          "name": "_pid",
          "type": "uint256"
        },
        {
          "internalType": "uint256",
          "name": "_amount",
          "type": "uint256"
        }
      ],
      "name": "scheduleProjectDepositWithdrawal",
      "outputs": [
        {
          "internalType": "bool",
          "name": "",
          "type": "bool"
        }
      ],
      "stateMutability": "nonpayable",
      "type": "function"
    },
    {
      "inputs": [
        {
          "internalType": "uint256",
          "name": "_tokenId",
          "type": "uint256"
        }
      ],
      "name": "scheduleUnstake",
      "outputs": [
        {
          "internalType": "bool",
          "name": "",
          "type": "bool"
        }
      ],
      "stateMutability": "nonpayable",
      "type": "function"
    },
    {
      "inputs": [
        {
          "internalType": "uint256",
          "name": "_pid",
          "type": "uint256"
        },
        {
          "internalType": "uint256",
          "name": "_poolCap",
          "type": "uint256"
        },
        {
          "internalType": "uint16",
          "name": "_apy",
          "type": "uint16"
        },
        {
          "internalType": "uint256",
          "name": "_deposit",
          "type": "uint256"
        },
        {
          "internalType": "string",
          "name": "_strategyName",
          "type": "string"
        }
      ],
      "name": "setAPYandPoolCapAndDeposit",
      "outputs": [],
      "stateMutability": "nonpayable",
      "type": "function"
    },
    {
      "inputs": [
        {
          "internalType": "address",
          "name": "operator",
          "type": "address"
        },
        {
          "internalType": "bool",
          "name": "approved",
          "type": "bool"
        }
      ],
      "name": "setApprovalForAll",
      "outputs": [],
      "stateMutability": "nonpayable",
      "type": "function"
    },
    {
      "inputs": [
        {
          "internalType": "uint256",
          "name": "_pid",
          "type": "uint256"
        },
        {
          "internalType": "uint256",
          "name": "_amount",
          "type": "uint256"
        }
      ],
      "name": "stake",
      "outputs": [
        {
          "internalType": "uint256",
          "name": "",
          "type": "uint256"
        }
      ],
      "stateMutability": "nonpayable",
      "type": "function"
    },
    {
      "inputs": [
        {
          "internalType": "address",
          "name": "",
          "type": "address"
        }
      ],
      "name": "strategyAddressToPid",
      "outputs": [
        {
          "internalType": "uint256",
          "name": "",
          "type": "uint256"
        }
      ],
      "stateMutability": "view",
      "type": "function"
    },
    {
      "inputs": [
        {
          "internalType": "bytes4",
          "name": "interfaceId",
          "type": "bytes4"
        }
      ],
      "name": "supportsInterface",
      "outputs": [
        {
          "internalType": "bool",
          "name": "",
          "type": "bool"
        }
      ],
      "stateMutability": "view",
      "type": "function"
    },
    {
      "inputs": [],
      "name": "symbol",
      "outputs": [
        {
          "internalType": "string",
          "name": "",
          "type": "string"
        }
      ],
      "stateMutability": "view",
      "type": "function"
    },
    {
      "inputs": [
        {
          "internalType": "uint256",
          "name": "tokenId",
          "type": "uint256"
        }
      ],
      "name": "tokenURI",
      "outputs": [
        {
          "internalType": "string",
          "name": "",
          "type": "string"
        }
      ],
      "stateMutability": "view",
      "type": "function"
    },
    {
      "inputs": [
        {
          "internalType": "address",
          "name": "",
          "type": "address"
        }
      ],
      "name": "tokenWhitelist",
      "outputs": [
        {
          "internalType": "bool",
          "name": "",
          "type": "bool"
        }
      ],
      "stateMutability": "view",
      "type": "function"
    },
    {
      "inputs": [
        {
          "internalType": "address",
          "name": "from",
          "type": "address"
        },
        {
          "internalType": "address",
          "name": "to",
          "type": "address"
        },
        {
          "internalType": "uint256",
          "name": "tokenId",
          "type": "uint256"
        }
      ],
      "name": "transferFrom",
      "outputs": [],
      "stateMutability": "nonpayable",
      "type": "function"
    },
    {
      "inputs": [
        {
          "internalType": "address",
          "name": "newOwner",
          "type": "address"
        }
      ],
      "name": "transferOwnership",
      "outputs": [],
      "stateMutability": "nonpayable",
      "type": "function"
    },
    {
      "inputs": [
        {
          "internalType": "uint256",
          "name": "_tokenId",
          "type": "uint256"
        },
        {
          "internalType": "bool",
          "name": "_shouldHarvest",
          "type": "bool"
        }
      ],
      "name": "unstake",
      "outputs": [
        {
          "internalType": "bool",
          "name": "",
          "type": "bool"
        }
      ],
      "stateMutability": "nonpayable",
      "type": "function"
    },
    {
      "inputs": [
        {
          "internalType": "address",
          "name": "_strategyFactory",
          "type": "address"
        }
      ],
      "name": "updateStrategyFactoryAddress",
      "outputs": [],
      "stateMutability": "nonpayable",
      "type": "function"
    },
    {
      "inputs": [
        {
          "internalType": "address",
          "name": "_token",
          "type": "address"
        },
        {
          "internalType": "bool",
          "name": "_whitelisted",
          "type": "bool"
        },
        {
          "internalType": "uint256",
          "name": "_minStakeAmount",
          "type": "uint256"
        }
      ],
      "name": "updateTokenWhitelist",
      "outputs": [
        {
          "internalType": "bool",
          "name": "",
          "type": "bool"
        }
      ],
      "stateMutability": "nonpayable",
      "type": "function"
    },
    {
      "inputs": [
        {
          "internalType": "address",
          "name": "newImplementation",
          "type": "address"
        }
      ],
      "name": "upgradeTo",
      "outputs": [],
      "stateMutability": "nonpayable",
      "type": "function"
    },
    {
      "inputs": [
        {
          "internalType": "address",
          "name": "newImplementation",
          "type": "address"
        },
        {
          "internalType": "bytes",
          "name": "data",
          "type": "bytes"
        }
      ],
      "name": "upgradeToAndCall",
      "outputs": [],
      "stateMutability": "payable",
      "type": "function"
    },
    {
      "inputs": [
        {
          "internalType": "uint256",
          "name": "_pid",
          "type": "uint256"
        }
      ],
      "name": "viewBountyBalance",
      "outputs": [
        {
          "internalType": "uint256",
          "name": "",
          "type": "uint256"
        }
      ],
      "stateMutability": "view",
      "type": "function"
    },
    {
      "inputs": [
        {
          "internalType": "uint256",
          "name": "_pid",
          "type": "uint256"
        }
      ],
      "name": "viewBountyInfo",
      "outputs": [
        {
          "internalType": "uint256",
          "name": "payout",
          "type": "uint256"
        },
        {
          "internalType": "uint256",
          "name": "apy",
          "type": "uint256"
        },
        {
          "internalType": "uint256",
          "name": "staked",
          "type": "uint256"
        },
        {
          "internalType": "uint256",
          "name": "poolCap",
          "type": "uint256"
        }
      ],
      "stateMutability": "view",
      "type": "function"
    },
    {
      "inputs": [
        {
          "internalType": "uint256",
          "name": "_pid",
          "type": "uint256"
        }
      ],
      "name": "viewHackerPayout",
      "outputs": [
        {
          "internalType": "uint256",
          "name": "",
          "type": "uint256"
        }
      ],
      "stateMutability": "view",
      "type": "function"
    },
    {
      "inputs": [
        {
          "internalType": "uint256",
          "name": "_pid",
          "type": "uint256"
        }
      ],
      "name": "viewMinProjectDeposit",
      "outputs": [
        {
          "internalType": "uint256",
          "name": "",
          "type": "uint256"
        }
      ],
      "stateMutability": "view",
      "type": "function"
    },
    {
      "inputs": [
        {
          "internalType": "uint256",
          "name": "_pid",
          "type": "uint256"
        }
      ],
      "name": "viewPoolAPY",
      "outputs": [
        {
          "internalType": "uint256",
          "name": "",
          "type": "uint256"
        }
      ],
      "stateMutability": "view",
      "type": "function"
    },
    {
      "inputs": [
        {
          "internalType": "uint256",
          "name": "_pid",
          "type": "uint256"
        }
      ],
      "name": "viewPoolCap",
      "outputs": [
        {
          "internalType": "uint256",
          "name": "",
          "type": "uint256"
        }
      ],
      "stateMutability": "view",
      "type": "function"
    },
    {
      "inputs": [
        {
          "internalType": "uint256",
          "name": "_pid",
          "type": "uint256"
        }
      ],
      "name": "viewPoolPremiumInfo",
      "outputs": [
        {
          "internalType": "uint256",
          "name": "requiredPremiumBalancePerPeriod",
          "type": "uint256"
        },
        {
          "internalType": "uint256",
          "name": "premiumBalance",
          "type": "uint256"
        },
        {
          "internalType": "uint256",
          "name": "premiumAvailable",
          "type": "uint256"
        }
      ],
      "stateMutability": "view",
      "type": "function"
    },
    {
      "inputs": [
        {
          "internalType": "uint256",
          "name": "_pid",
          "type": "uint256"
        }
      ],
      "name": "viewPoolTimelockInfo",
      "outputs": [
        {
          "internalType": "uint256",
          "name": "timelock",
          "type": "uint256"
        },
        {
          "internalType": "uint256",
          "name": "timeLimit",
          "type": "uint256"
        },
        {
          "internalType": "uint256",
          "name": "withdrawalScheduledAmount",
          "type": "uint256"
        }
      ],
      "stateMutability": "view",
      "type": "function"
    },
    {
      "inputs": [
        {
          "internalType": "address",
          "name": "_referrer",
          "type": "address"
        },
        {
          "internalType": "address",
          "name": "_token",
          "type": "address"
        }
      ],
      "name": "viewReferralBalance",
      "outputs": [
        {
          "internalType": "uint256",
          "name": "referralBalance",
          "type": "uint256"
        }
      ],
      "stateMutability": "view",
      "type": "function"
    },
    {
      "inputs": [
        {
          "internalType": "address",
          "name": "_token",
          "type": "address"
        }
      ],
      "name": "viewSaloonProfitBalance",
      "outputs": [
        {
          "internalType": "uint256",
          "name": "totalProfit",
          "type": "uint256"
        },
        {
          "internalType": "uint256",
          "name": "bountyProfit",
          "type": "uint256"
        },
        {
          "internalType": "uint256",
          "name": "strategyProfit",
          "type": "uint256"
        },
        {
          "internalType": "uint256",
          "name": "premiumProfit",
          "type": "uint256"
        }
      ],
      "stateMutability": "view",
      "type": "function"
    },
    {
      "inputs": [
        {
          "internalType": "uint256",
          "name": "_tokenId",
          "type": "uint256"
        }
      ],
      "name": "viewTokenInfo",
      "outputs": [
        {
          "internalType": "uint256",
          "name": "amount",
          "type": "uint256"
        },
        {
          "internalType": "uint256",
          "name": "apy",
          "type": "uint256"
        },
        {
          "internalType": "uint256",
          "name": "actualPending",
          "type": "uint256"
        },
        {
          "internalType": "uint256",
          "name": "unclaimed",
          "type": "uint256"
        },
        {
          "internalType": "uint256",
          "name": "timelock",
          "type": "uint256"
        }
      ],
      "stateMutability": "view",
      "type": "function"
    },
    {
      "inputs": [
        {
          "internalType": "uint256",
          "name": "_pid",
          "type": "uint256"
        }
      ],
      "name": "viewTotalStaked",
      "outputs": [
        {
          "internalType": "uint256",
          "name": "",
          "type": "uint256"
        }
      ],
      "stateMutability": "view",
      "type": "function"
    },
    {
      "inputs": [
        {
          "internalType": "uint256",
          "name": "_tokenId",
          "type": "uint256"
        }
      ],
      "name": "viewUserUnclaimed",
      "outputs": [
        {
          "internalType": "uint256",
          "name": "unclaimed",
          "type": "uint256"
        }
      ],
      "stateMutability": "view",
      "type": "function"
    },
    {
      "inputs": [
        {
          "internalType": "uint256",
          "name": "_pid",
          "type": "uint256"
        }
      ],
      "name": "windDownBounty",
      "outputs": [
        {
          "internalType": "bool",
          "name": "",
          "type": "bool"
        }
      ],
      "stateMutability": "nonpayable",
      "type": "function"
    }
  ],
  "bytecode": {
    "object": "0x60a0604052306080523480156200001557600080fd5b50600160ca55600054610100900460ff16158080156200003c5750600054600160ff909116105b806200006c575062000059306200019760201b62006bb01760201c565b1580156200006c575060005460ff166001145b620000d55760405162461bcd60e51b815260206004820152602e60248201527f496e697469616c697a61626c653a20636f6e747261637420697320616c72656160448201526d191e481a5b9a5d1a585b1a5e995960921b60648201526084015b60405180910390fd5b6000805460ff191660011790558015620000f9576000805461ff0019166101001790555b620001496040518060400160405280600b81526020016a2137bab73a3caa37b5b2b760a91b8152506040518060400160405280600381526020016210951560ea1b815250620001a660201b60201c565b801562000190576000805461ff0019169055604051600181527f7f26b83ff96e1f2b6a682f133852f6798a09c465da95921460cefb38474024989060200160405180910390a15b5062000400565b6001600160a01b03163b151590565b600054610100900460ff16620002025760405162461bcd60e51b815260206004820152602b60248201526000805160206200a34d83398151915260448201526a6e697469616c697a696e6760a81b6064820152608401620000cc565b6200020e828262000212565b5050565b600054610100900460ff166200026e5760405162461bcd60e51b815260206004820152602b60248201526000805160206200a34d83398151915260448201526a6e697469616c697a696e6760a81b6064820152608401620000cc565b60fd6200027c838262000334565b5060fe6200028b828262000334565b505050565b634e487b7160e01b600052604160045260246000fd5b600181811c90821680620002bb57607f821691505b602082108103620002dc57634e487b7160e01b600052602260045260246000fd5b50919050565b601f8211156200028b57600081815260208120601f850160051c810160208610156200030b5750805b601f850160051c820191505b818110156200032c5782815560010162000317565b505050505050565b81516001600160401b0381111562000350576200035062000290565b6200036881620003618454620002a6565b84620002e2565b602080601f831160018114620003a05760008415620003875750858301515b600019600386901b1c1916600185901b1785556200032c565b600085815260208120601f198616915b82811015620003d157888601518255948401946001909101908401620003b0565b5085821015620003f05787850151600019600388901b60f8161c191681555b5050505050600190811b01905550565b608051619f156200043860003960008181612420015281816124600152818161313f0152818161317f01526136020152619f156000f3fe60806040526004361061047e5760003560e01c80636ac6d81211610255578063a27f921311610144578063ca006148116100c1578063e985e9c511610085578063e985e9c514610fc4578063e9fda7d41461100e578063ecd7fbed1461103b578063f2fde38b1461105b578063f47ec3be1461107b578063f68ce4991461109b57600080fd5b8063ca00614814610f08578063cf9564b914610f36578063dbdd695714610f56578063e45abd0f14610f76578063e78ea3df14610fa457600080fd5b8063b842e87f11610108578063b842e87f14610e73578063b88d4fde14610e88578063bb7019c114610ea8578063c4d66de814610ec8578063c87b56dd14610ee857600080fd5b8063a27f921314610dc5578063ac30b85614610de5578063ae07f94814610e05578063b1a2d16f14610e25578063b20b242914610e4557600080fd5b8063928dc6a9116101d2578063983c1ce011610196578063983c1ce014610d255780639ebea88c14610d455780639f224f3514610d65578063a089a52014610d85578063a22cb46514610da557600080fd5b8063928dc6a914610c5e578063949a4a4a14610ca2578063957deecc14610cc257806395d89b4114610cf057806396ea48e814610d0557600080fd5b80637b0472f0116102195780637b0472f014610bc05780637fbf385314610be0578063836ef1fa14610c00578063861e5f6614610c205780638da5cb5b14610c4057600080fd5b80636ac6d81214610b1a57806370a0823114610b3a578063718c7eef14610b5a578063753d756314610b7a57806375bfd63d14610bab57600080fd5b806330ca07941161037157806342842e0e116102ee578063598d17bf116102b2578063598d17bf14610a5e5780635c46f7b114610a8c5780635de406dc14610aac578063612afc0c14610acc5780636352211e14610afa57600080fd5b806342842e0e146109d65780634f1ef286146109f65780634f3214cc14610a0957806352d1902d14610a295780635669cbef14610a3e57600080fd5b806339679ff41161033557806339679ff4146109065780633ac6ad7b146109265780633e8888d91461094657806340bd1d001461095b57806340ef28681461099657600080fd5b806330ca07941461085857806332fce602146108785780633538fda0146108985780633659cfe6146108b857806339458723146108d857600080fd5b806310725852116103ff5780631f8bc790116103c35780631f8bc7901461074757806323b872dd146107e15780632986c0e5146108015780632cb0dfcc146108185780632dbe051e1461083857600080fd5b8063107258521461065a5780631526fe27146106a257806319693071146106d65780631aebcecb146107075780631c6b323f1461072757600080fd5b8063081e3eda11610446578063081e3eda1461059b578063095ea7b3146105b15780630a015ab1146105d35780630ed7610c146105f3578063106d08df1461063a57600080fd5b8063011b408b1461048357806301ffc9a7146104cf57806306fdde03146104ff578063074ecf0314610521578063081812fc1461057b575b600080fd5b34801561048f57600080fd5b506104bc61049e3660046190b2565b61013860209081526000928352604080842090915290825290205481565b6040519081526020015b60405180910390f35b3480156104db57600080fd5b506104ef6104ea366004619101565b6110b0565b60405190151581526020016104c6565b34801561050b57600080fd5b50610514611102565b6040516104c6919061916e565b34801561052d57600080fd5b5061056361053c366004619181565b61013a6020908152600092835260408084209091529082529020546001600160a01b031681565b6040516001600160a01b0390911681526020016104c6565b34801561058757600080fd5b506105636105963660046191a3565b611194565b3480156105a757600080fd5b50610131546104bc565b3480156105bd57600080fd5b506105d16105cc3660046191bc565b6111bc565b005b3480156105df57600080fd5b506104bc6105ee366004619181565b6112d6565b3480156105ff57600080fd5b506104bc61060e3660046190b2565b6001600160a01b0391821660009081526101386020908152604080832093909416825291909152205490565b34801561064657600080fd5b506104ef6106553660046191a3565b6112e9565b34801561066657600080fd5b5061067a6106753660046191a3565b6113d3565b604080519586526020860194909452928401919091526060830152608082015260a0016104c6565b3480156106ae57600080fd5b506106c26106bd3660046191a3565b611476565b6040516104c6989796959493929190619253565b3480156106e257600080fd5b506104bc6106f13660046191a3565b6000908152610133602052604090206004015490565b34801561071357600080fd5b506105d16107223660046191bc565b6116d3565b34801561073357600080fd5b506104bc6107423660046191a3565b61178c565b34801561075357600080fd5b506107a66107623660046191a3565b610133602052600090815260409020805460018201546002830154600384015460048501546005860154600687015460079097015495969495939492939192909188565b604080519889526020890197909752958701949094526060860192909252608085015260a084015260c083015260e0820152610100016104c6565b3480156107ed57600080fd5b506105d16107fc36600461938e565b611a7f565b34801561080d57600080fd5b506104bc6101035481565b34801561082457600080fd5b506104ef6108333660046193dd565b611ab0565b34801561084457600080fd5b506104ef6108533660046191a3565b611d02565b34801561086457600080fd5b506105d16108733660046194b0565b611d1f565b34801561088457600080fd5b506104bc610893366004619524565b611fa6565b3480156108a457600080fd5b506105d16108b33660046195ab565b6123eb565b3480156108c457600080fd5b506105d16108d33660046195ab565b612416565b3480156108e457600080fd5b506104bc6108f33660046195ab565b61013f6020526000908152604090205481565b34801561091257600080fd5b506104bc6109213660046191a3565b6124f5565b34801561093257600080fd5b506104ef6109413660046195c8565b6127da565b34801561095257600080fd5b506104ef612c73565b34801561096757600080fd5b5061097b6109763660046191a3565b612cd6565b604080519384526020840192909252908201526060016104c6565b3480156109a257600080fd5b506109b66109b13660046191a3565b6130e1565b6040805194855260208501939093529183015260608201526080016104c6565b3480156109e257600080fd5b506105d16109f136600461938e565b61311a565b6105d1610a043660046195ef565b613135565b348015610a1557600080fd5b506104bc610a2436600461963f565b613205565b348015610a3557600080fd5b506104bc6135f5565b348015610a4a57600080fd5b506104ef610a59366004619181565b6136a8565b348015610a6a57600080fd5b506104bc610a793660046195ab565b6101376020526000908152604090205481565b348015610a9857600080fd5b506104bc610aa7366004619181565b6137d6565b348015610ab857600080fd5b506105d1610ac7366004619181565b613b99565b348015610ad857600080fd5b506104bc610ae73660046191a3565b6101326020526000908152604090205481565b348015610b0657600080fd5b50610563610b153660046191a3565b613c24565b348015610b2657600080fd5b506104bc610b353660046191a3565b613c84565b348015610b4657600080fd5b506104bc610b553660046195ab565b613f78565b348015610b6657600080fd5b506109b6610b753660046195ab565b613fff565b348015610b8657600080fd5b506104ef610b953660046195ab565b61013d6020526000908152604090205460ff1681565b348015610bb757600080fd5b506105d161404f565b348015610bcc57600080fd5b506104bc610bdb366004619181565b614077565b348015610bec57600080fd5b506104bc610bfb3660046191a3565b614573565b348015610c0c57600080fd5b506104bc610c1b366004619181565b614877565b348015610c2c57600080fd5b506104bc610c3b3660046191a3565b6148ad565b348015610c4c57600080fd5b506033546001600160a01b0316610563565b348015610c6a57600080fd5b50610c7e610c79366004619181565b614bb7565b6040805193845260208401929092526001600160a01b0316908201526060016104c6565b348015610cae57600080fd5b506105d1610cbd3660046191a3565b614f15565b348015610cce57600080fd5b506104bc610cdd3660046195ab565b61013c6020526000908152604090205481565b348015610cfc57600080fd5b50610514615365565b348015610d1157600080fd5b506104bc610d20366004619181565b615374565b348015610d3157600080fd5b506104ef610d40366004619181565b6153a6565b348015610d5157600080fd5b506104ef610d6036600461966b565b61552d565b348015610d7157600080fd5b50610563610d803660046191a3565b615739565b348015610d9157600080fd5b506104ef610da03660046195ab565b615764565b348015610db157600080fd5b506105d1610dc0366004619690565b6157da565b348015610dd157600080fd5b506104bc610de03660046191a3565b6157e5565b348015610df157600080fd5b5061097b610e003660046191a3565b615acd565b348015610e1157600080fd5b506105d1610e203660046196be565b615dc9565b348015610e3157600080fd5b5061097b610e403660046191a3565b615ec9565b348015610e5157600080fd5b506104bc610e603660046191a3565b61013b6020526000908152604090205481565b348015610e7f57600080fd5b506105d16161da565b348015610e9457600080fd5b506105d1610ea336600461970e565b61625a565b348015610eb457600080fd5b506104ef610ec33660046191a3565b616292565b348015610ed457600080fd5b506105d1610ee33660046195ab565b61635e565b348015610ef457600080fd5b50610514610f033660046191a3565b61648b565b348015610f1457600080fd5b506104bc610f233660046195ab565b6101366020526000908152604090205481565b348015610f4257600080fd5b506104ef610f513660046190b2565b6164fe565b348015610f6257600080fd5b506104bc610f713660046191a3565b616562565b348015610f8257600080fd5b506104bc610f913660046195ab565b6101356020526000908152604090205481565b348015610fb057600080fd5b506105d1610fbf3660046191a3565b616847565b348015610fd057600080fd5b506104ef610fdf3660046190b2565b6001600160a01b0391821660009081526101026020908152604080832093909416825291909152205460ff1690565b34801561101a57600080fd5b5061102e6110293660046195ab565b6168df565b6040516104c6919061977a565b34801561104757600080fd5b506104ef6110563660046195ab565b616a79565b34801561106757600080fd5b506105d16110763660046195ab565b616adc565b34801561108757600080fd5b506105d16110963660046191a3565b616b6b565b3480156110a757600080fd5b506105d1616b88565b60006001600160e01b031982166380ac58cd60e01b14806110e157506001600160e01b03198216635b5e139f60e01b145b806110fc57506301ffc9a760e01b6001600160e01b03198316145b92915050565b606060fd8054611111906197fa565b80601f016020809104026020016040519081016040528092919081815260200182805461113d906197fa565b801561118a5780601f1061115f5761010080835404028352916020019161118a565b820191906000526020600020905b81548152906001019060200180831161116d57829003601f168201915b5050505050905090565b600061119f82616bbf565b50600090815261010160205260409020546001600160a01b031690565b60006111c782613c24565b9050806001600160a01b0316836001600160a01b0316036112395760405162461bcd60e51b815260206004820152602160248201527f4552433732313a20617070726f76616c20746f2063757272656e74206f776e656044820152603960f91b60648201526084015b60405180910390fd5b336001600160a01b038216148061125557506112558133610fdf565b6112c75760405162461bcd60e51b815260206004820152603d60248201527f4552433732313a20617070726f76652063616c6c6572206973206e6f7420746f60448201527f6b656e206f776e6572206f7220617070726f76656420666f7220616c6c0000006064820152608401611230565b6112d18383616c1e565b505050565b60006112e28284616c8d565b9392505050565b6000336112f583613c24565b6001600160a01b0316146113415760405162461bcd60e51b815260206004820152601360248201527239b2b73232b91034b9903737ba1037bbb732b960691b6044820152606401611230565b6000828152610132602090815260408083205461013390925290912061136a62093a804261984a565b600682015561137c62093a804261984a565b611389906203f48061984a565b6007820155600181015460405181815283907fb3b9c925de3673837b40c6b4d4463a8f88dc821cd27e07f1ff6bf6abf96413a59060200160405180910390a2506001949350505050565b60008181526101326020908152604080832054610133835281842082516101008101845281548152600182015494810185905260028201549381019390935260038101546060840181905260048201546080850152600582015460a0850152600682015460c085015260079091015460e08401529293918291829161145788612cd6565b50608083015160c090930151989a979950979196919550909350505050565b610131818154811061148757600080fd5b60009182526020918290206040805161010081018252601890930290910180546001600160a01b03808216855260ff600160a01b8304169585019590955261ffff600160a81b909104169183019190915260018101549092166060820152600282018054929350909183916080840191611500906197fa565b80601f016020809104026020016040519081016040528092919081815260200182805461152c906197fa565b80156115795780601f1061154e57610100808354040283529160200191611579565b820191906000526020600020905b81548152906001019060200180831161155c57829003601f168201915b50505091835250506003820154602080830191909152600483015460408084019190915260059093015460609283015282518084018452600686015481526007860154818301528351808501855260088701548152600987015481840152845160808082018752600a8901548252600b89015482860152600c89015482880152600d89015460ff1615158287015286519081018752600e890180548252600f8a01548287015260108a01548289015260118a018054895181890281018901909a52808a52999a959994989397959692959194918601939290919083018282801561168257602002820191906000526020600020905b81548152602001906001019080831161166e575b5050509190925250506040805160608101825260128501546001600160a01b031681526013850154602082015260148501549181019190915260168401546017909401549293909290915060ff1688565b6116e86001600160a01b038316333084616c99565b5033600090815261013c602052604081205490819003611736576001600160a01b038316600090815261013760205260408120805484929061172b90849061984a565b909155506112d19050565b60008060006117458486614bb7565b925092509250611756818784616d07565b6001600160a01b038616600090815261013760205260408120805485929061177f90849061984a565b9091555050505050505050565b60008061013183815481106117a3576117a361985d565b6000918252602090912060408051610220810190915260189092020180546001600160a01b038082166101208501908152600160a01b830460ff16610140860152600160a81b90920461ffff1661016085015260018301541661018084015260028201805484929184916101a08501919061181d906197fa565b80601f0160208091040260200160405190810160405280929190818152602001828054611849906197fa565b80156118965780601f1061186b57610100808354040283529160200191611896565b820191906000526020600020905b81548152906001019060200180831161187957829003601f168201915b505050918352505060038201546020808301919091526004830154604080840191909152600590930154606092830152928452815180830183526006860154815260078601548185015284840152815180830183526008860154815260098601548185015284830152815160808082018452600a8701548252600b87015482860152600c87015482850152600d87015460ff161515828401528583019190915282518082018452600e870180548252600f880154828701526010880154828601526011880180548651818902810189019097528087529390970196919590949386019392908301828280156119aa57602002820191906000526020600020905b815481526020019060010190808311611996575b5050509190925250505081526040805160608101825260128401546001600160a01b03168152601384015460208281019190915260148501548284015280840191909152601584018054835181840281018401855281815293909401939091830182828015611a4257602002820191906000526020600020905b81546001600160a01b03168152600190910190602001808311611a24575b5050509183525050601682015460208083019190915260179092015460ff161515604090910152818101519081015190519192506112e29161984a565b611a893382616d58565b611aa55760405162461bcd60e51b815260040161123090619873565b6112d1838383616dd7565b6000611aba616f48565b6001600160a01b038416600090815261013d602052604090205460ff16151583151480611ae75750600082115b611b2c5760405162461bcd60e51b81526020600482015260166024820152751b9bc818da185b99d9481d1bc81dda1a5d195b1a5cdd60521b6044820152606401611230565b6001600160a01b038416600081815261013d6020526040808220805460ff191687151590811790915590519092917f99795d51e5a8804307721456a7a9c2f0d7421f719d46a46d36e91fee7c85aa7691a38215611be45761013e8054600181019091557f3096b0ff83c28e07db9b87f650bc5521a4928b98f2734605e31b316abbb272350180546001600160a01b0319166001600160a01b038616908117909155600090815261013f60205260409020829055611cf8565b61013e5460005b81811015611cf557600061013e8281548110611c0957611c0961985d565b6000918252602090912001546001600160a01b03908116915087168103611ce45761013e611c386001856198c0565b81548110611c4857611c4861985d565b60009182526020909120015461013e80546001600160a01b039092169184908110611c7557611c7561985d565b9060005260206000200160006101000a8154816001600160a01b0302191690836001600160a01b0316021790555061013e805480611cb557611cb56198d3565b600082815260209020810160001990810180546001600160a01b031916905501905550600192506112e2915050565b50611cee816198e9565b9050611beb565b50505b5060019392505050565b6000611d0c616f48565b611d17826000616fa2565b506001919050565b60006101318681548110611d3557611d3561985d565b60009182526020909120601890910201601781015490915060ff16158015611d5f57506003810154155b611dab5760405162461bcd60e51b815260206004820152601860248201527f506f6f6c20616c726561647920696e697469616c697a656400000000000000006044820152606401611230565b60008461ffff16118015611dc557506127108461ffff1611155b611e045760405162461bcd60e51b815260206004820152601060248201526f415059206f7574206f662072616e676560801b6044820152606401611230565b8054611e1b90600160a01b900460ff16600a6199e6565b611e269060646199f5565b8510158015611e5857508054611e4790600160a01b900460ff16600a6199e6565b611e5490629896806199f5565b8511155b611e9c5760405162461bcd60e51b8152602060048201526015602482015274506f6f6c20636170206f7574206f662072616e676560581b6044820152606401611230565b60018101546001600160a01b03163314611ec85760405162461bcd60e51b815260040161123090619a0c565b6000611ed8868661ffff16614877565b90506000612710611eeb6103e8846199f5565b611ef59190619a4a565b9050611f193330611f06858961984a565b86546001600160a01b0316929190616c99565b5084836006016000016000828254611f31919061984a565b909155505060038301879055825461ffff60a81b1916600160a81b61ffff88160217835560178301805460ff1916600117905560088301829055611f7581836198c0565b6009840155611f888861ffff8816617125565b835115611f9c57611f9a88858761717c565b505b5050505050505050565b6000611fb0616f48565b6001600160a01b038716600090815261013d602052604090205460ff166120115760405162461bcd60e51b81526020600482015260156024820152741d1bdad95b881b9bdd081dda1a5d195b1a5cdd1959605a1b6044820152606401611230565b61138883111561205b5760405162461bcd60e51b81526020600482015260156024820152740e4cacccae4e4c2d840cccaca40e8dede40d0d2ced605b1b6044820152606401611230565b60408051600481526024810182526020810180516001600160e01b031663313ce56760e01b17905290516000916001600160a01b038a169161209d9190619a6c565b600060405180830381855afa9150503d80600081146120d8576040519150601f19603f3d011682016040523d82523d6000602084013e6120dd565b606091505b509150506000818060200190518101906120f79190619a88565b905060068160ff1610156121465760405162461bcd60e51b815260206004820152601660248201527524b73b30b634b2103232b1b4b6b0b6103932ba3ab93760511b6044820152606401611230565b61214e618e54565b80516001600160a01b03808c16909152815160ff80851660209283015283518c8416606091820152845160809081018d905260a0860180518d87169052805185018c90525160409081018b905261013180546001810182556000919091528751805160189092027fbd987ad6ccdb7c7567f7335ea839f95dc944431abcf935b6924f70215963db7381018054988301519483015161ffff16600160a81b0261ffff60a81b1995909816600160a01b026001600160a81b0319909916938a16939093179790971792909216949094178455918201517fbd987ad6ccdb7c7567f7335ea839f95dc944431abcf935b6924f70215963db7485018054919096166001600160a01b03199190911617909455928301518493919283917fbd987ad6ccdb7c7567f7335ea839f95dc944431abcf935b6924f70215963db75909101906122959082619af9565b5060a0820151600382015560c0820151600482015560e0909101516005909101556020828101518051600684015581015160078301556040808401518051600885015582015160098401556060808501518051600a86015580840151600b86015580830151600c860155810151600d8501805460ff191691151591909117905560808501518051600e860190815581850151600f870155928101516010860155908101518051919361234f92601187019290910190618f85565b50505060a082015180516012830180546001600160a01b0319166001600160a01b039092169190911790556020808201516013840155604090910151601483015560c083015180516123a79260158501920190618fd0565b5060e08201516016820155610100909101516017909101805460ff1916911515919091179055610131546123dd906001906198c0565b9a9950505050505050505050565b6123f3616f48565b61013980546001600160a01b0319166001600160a01b0392909216919091179055565b6001600160a01b037f000000000000000000000000000000000000000000000000000000000000000016300361245e5760405162461bcd60e51b815260040161123090619bb9565b7f00000000000000000000000000000000000000000000000000000000000000006001600160a01b03166124a7600080516020619e99833981519152546001600160a01b031690565b6001600160a01b0316146124cd5760405162461bcd60e51b815260040161123090619c05565b6124d68161731b565b604080516000808252602082019092526124f291839190617323565b50565b600080610131838154811061250c5761250c61985d565b6000918252602090912060408051610220810190915260189092020180546001600160a01b038082166101208501908152600160a01b830460ff16610140860152600160a81b90920461ffff1661016085015260018301541661018084015260028201805484929184916101a085019190612586906197fa565b80601f01602080910402602001604051908101604052809291908181526020018280546125b2906197fa565b80156125ff5780601f106125d4576101008083540402835291602001916125ff565b820191906000526020600020905b8154815290600101906020018083116125e257829003601f168201915b505050918352505060038201546020808301919091526004830154604080840191909152600590930154606092830152928452815180830183526006860154815260078601548185015284840152815180830183526008860154815260098601548185015284830152815160808082018452600a8701548252600b87015482860152600c87015482850152600d87015460ff161515828401528583019190915282518082018452600e870180548252600f8801548287015260108801548286015260118801805486518189028101890190975280875293909701969195909493860193929083018282801561271357602002820191906000526020600020905b8154815260200190600101908083116126ff575b5050509190925250505081526040805160608101825260128401546001600160a01b031681526013840154602082810191909152601485015482840152808401919091526015840180548351818402810184018552818152939094019390918301828280156127ab57602002820191906000526020600020905b81546001600160a01b0316815260019091019060200180831161278d575b50505091835250506016820154602082015260179091015460ff1615156040909101525160a001519392505050565b60006127e4616f48565b600061013185815481106127fa576127fa61985d565b6000918252602082206004601890920201908101549092509061281c8761178c565b612826908361984a565b9050600061271061283787846199f5565b6128419190619a4a565b90508281036128e65760008881526101346020526040812054905b818110156128c85760008a8152610134602052604081208054839081106128855761288561985d565b906000526020600020015490506000610133600083815260200190815260200160002090506128b582600061748e565b600060019182015591909101905061285c565b506000600486018190556128e0906015870190619025565b50612b0d565b828110156129ed57600083612903670de0b6b3a7640000846199f5565b61290d9190619a4a565b60008a815261013460205260408120549192505b818110156129e55760008b81526101346020526040812080548390811061294a5761294a61985d565b9060005260206000200154905060006101336000838152602001908152602001600020905061297a82600061748e565b6000670de0b6b3a764000086836001015461299591906199f5565b61299f9190619a4a565b9050808260010160008282546129b591906198c0565b909155505060048a0180548291906000906129d19084906198c0565b909155505060019093019250612921915050565b505050612b0d565b82811180156129fc5750818111155b15612ad35760008881526101346020526040812054905b81811015612a7f5760008a815261013460205260408120805483908110612a3c57612a3c61985d565b90600052602060002001549050600061013360008381526020019081526020016000209050612a6c82600061748e565b6000600191820155919091019050612a13565b50600060048601819055612a97906015870190619025565b612aa0896175c7565b506000612aad85846198c0565b905080866006016000016000828254612ac691906198c0565b90915550612b0d92505050565b60405162461bcd60e51b815260206004820152600f60248201526e082dadeeadce840e8dede40d0d2ced608b1b6044820152606401611230565b6000612710612b1e6103e8846199f5565b612b289190619a4a565b90506000612b3682846198c0565b90506000806000612b478d86614bb7565b8b5492955090935091506001600160a01b0316612b65828285616d07565b6001600160a01b0381166000908152610135602052604081208054869290612b8e90849061984a565b90915550508954612ba9906001600160a01b03168e87617727565b506000612bb58f61178c565b60048c0154612bc4919061984a565b90508a60000160000160009054906101000a90046001600160a01b03166001600160a01b03168e6001600160a01b03167fbcbf239e05ac65bcc1a5612cd36d392b0a0aa8c93e027bc86e727687483424888a604051612c2591815260200190565b60405180910390a38e600080516020619e798339815191528a83604051612c56929190918252602082015260400190565b60405180910390a25060019e9d5050505050505050505050505050565b61013e54600090815b81811015612ccd57600061013e8281548110612c9a57612c9a61985d565b6000918252602090912001546001600160a01b03169050612cba81615764565b505080612cc6906198e9565b9050612c7c565b50600191505090565b60008181526101326020526040812054610131805483928392909183919083908110612d0457612d0461985d565b6000918252602090912060408051610220810190915260189092020180546001600160a01b038082166101208501908152600160a01b830460ff16610140860152600160a81b90920461ffff1661016085015260018301541661018084015260028201805484929184916101a085019190612d7e906197fa565b80601f0160208091040260200160405190810160405280929190818152602001828054612daa906197fa565b8015612df75780601f10612dcc57610100808354040283529160200191612df7565b820191906000526020600020905b815481529060010190602001808311612dda57829003601f168201915b505050918352505060038201546020808301919091526004830154604080840191909152600590930154606092830152928452815180830183526006860154815260078601548185015284840152815180830183526008860154815260098601548185015284830152815160808082018452600a8701548252600b87015482860152600c87015482850152600d87015460ff161515828401528583019190915282518082018452600e870180548252600f88015482870152601088015482860152601188018054865181890281018901909752808752939097019691959094938601939290830182828015612f0b57602002820191906000526020600020905b815481526020019060010190808311612ef7575b5050509190925250505081526040805160608101825260128401546001600160a01b03168152601384015460208281019190915260148501548284015280840191909152601584018054835181840281018401855281815293909401939091830182828015612fa357602002820191906000526020600020905b81546001600160a01b03168152600190910190602001808311612f85575b5050509183525050601682015460208083019190915260179092015460ff16151560409182015260008981526101338352818120825161010081018452815481526001820154948101949094526002810154928401929092526003820154606084015260048201546080840152600582015460a0840152600682015460c084015260079091015460e08084019190915283015192935090918103613047574261304d565b8260e001515b9050600061305f8360a00151836112d6565b90506301e13380816127108560600151866020015161307e91906199f5565b6130889190619a4a565b61309291906199f5565b61309c9190619a4a565b95508260800151866130ae919061984a565b97506127106130bf6103e8826198c0565b6130c9908a6199f5565b6130d39190619a4a565b965050505050509193909250565b6000806000806130f0856148ad565b93506130fb85616562565b9150613106856157e5565b9250613111856124f5565b90509193509193565b6112d18383836040518060200160405280600081525061625a565b6001600160a01b037f000000000000000000000000000000000000000000000000000000000000000016300361317d5760405162461bcd60e51b815260040161123090619bb9565b7f00000000000000000000000000000000000000000000000000000000000000006001600160a01b03166131c6600080516020619e99833981519152546001600160a01b031690565b6001600160a01b0316146131ec5760405162461bcd60e51b815260040161123090619c05565b6131f58261731b565b61320182826001617323565b5050565b600080610131858154811061321c5761321c61985d565b6000918252602090912060408051610220810190915260189092020180546001600160a01b038082166101208501908152600160a01b830460ff16610140860152600160a81b90920461ffff1661016085015260018301541661018084015260028201805484929184916101a085019190613296906197fa565b80601f01602080910402602001604051908101604052809291908181526020018280546132c2906197fa565b801561330f5780601f106132e45761010080835404028352916020019161330f565b820191906000526020600020905b8154815290600101906020018083116132f257829003601f168201915b505050918352505060038201546020808301919091526004830154604080840191909152600590930154606092830152928452815180830183526006860154815260078601548185015284840152815180830183526008860154815260098601548185015284830152815160808082018452600a8701548252600b87015482860152600c87015482850152600d87015460ff161515828401528583019190915282518082018452600e870180548252600f8801548287015260108801548286015260118801805486518189028101890190975280875293909701969195909493860193929083018282801561342357602002820191906000526020600020905b81548152602001906001019080831161340f575b5050509190925250505081526040805160608101825260128401546001600160a01b031681526013840154602082810191909152601485015482840152808401919091526015840180548351818402810184018552818152939094019390918301828280156134bb57602002820191906000526020600020905b81546001600160a01b0316815260019091019060200180831161349d575b50505091835250506016820154602082015260179091015460ff16151560409091015290508260006134ed878761775a565b50905060006134fc838361984a565b9050600061350b8260216199f5565b61351d90674563918244f4000061984a565b9050600061352c8560216199f5565b61353e90674563918244f4000061984a565b9050600061355361354e846177b7565b617800565b9050600061356361354e846177b7565b905060006135a161357460216177b7565b61359b6135818686617838565b6135956a295be96e640669720000006177b7565b90617847565b90617856565b905060006135b288620f42406199f5565b6135bc9083619a4a565b8a5160e00151909150670de0b6b3a76400006135d882846199f5565b6135e29190619a4a565b9f9e505050505050505050505050505050565b6000306001600160a01b037f000000000000000000000000000000000000000000000000000000000000000016146136955760405162461bcd60e51b815260206004820152603860248201527f555550535570677261646561626c653a206d757374206e6f742062652063616c60448201527f6c6564207468726f7567682064656c656761746563616c6c00000000000000006064820152608401611230565b50600080516020619e9983398151915290565b60008061013184815481106136bf576136bf61985d565b90600052602060002090601802019050826136d98561178c565b10156137275760405162461bcd60e51b815260206004820152601a60248201527f416d6f756e7420626967676572207468616e206465706f7369740000000000006044820152606401611230565b60018101546001600160a01b031633146137535760405162461bcd60e51b815260040161123090619a0c565b61376062093a804261984a565b600a82015561377262093a804261984a565b61377f906203f48061984a565b600b820155600c8101839055600d8101805460ff1916905560405183815284907fb3b9c925de3673837b40c6b4d4463a8f88dc821cd27e07f1ff6bf6abf96413a59060200160405180910390a25060019392505050565b60008061013184815481106137ed576137ed61985d565b6000918252602090912060408051610220810190915260189092020180546001600160a01b038082166101208501908152600160a01b830460ff16610140860152600160a81b90920461ffff1661016085015260018301541661018084015260028201805484929184916101a085019190613867906197fa565b80601f0160208091040260200160405190810160405280929190818152602001828054613893906197fa565b80156138e05780601f106138b5576101008083540402835291602001916138e0565b820191906000526020600020905b8154815290600101906020018083116138c357829003601f168201915b505050918352505060038201546020808301919091526004830154604080840191909152600590930154606092830152928452815180830183526006860154815260078601548185015284840152815180830183526008860154815260098601548185015284830152815160808082018452600a8701548252600b87015482860152600c87015482850152600d87015460ff161515828401528583019190915282518082018452600e870180548252600f880154828701526010880154828601526011880180548651818902810189019097528087529390970196919590949386019392908301828280156139f457602002820191906000526020600020905b8154815260200190600101908083116139e0575b5050509190925250505081526040805160608101825260128401546001600160a01b03168152601384015460208281019190915260148501548284015280840191909152601584018054835181840281018401855281815293909401939091830182828015613a8c57602002820191906000526020600020905b81546001600160a01b03168152600190910190602001808311613a6e575b50505091835250506016820154602082015260179091015460ff1615156040909101526080810151519091506000613ac4868661775a565b5090506000613ad3838361984a565b90506000613ae28260216199f5565b613af490674563918244f4000061984a565b90506000613b038560216199f5565b613b1590674563918244f4000061984a565b90506000613b2561354e846177b7565b90506000613b3561354e846177b7565b90506000613b4661357460216177b7565b90506000613b5788620f42406199f5565b613b619083619a4a565b8a5160e00151909150670de0b6b3a7640000613b7d82846199f5565b613b879190619a4a565b9e9d5050505050505050505050505050565b613ba1616f48565b60006101318381548110613bb757613bb761985d565b9060005260206000209060180201905080601201600201548211613c1d5760405162461bcd60e51b815260206004820152601860248201527f63616e206f6e6c7920657874656e6420656e642074696d6500000000000000006044820152606401611230565b6014015550565b600081815260ff60205260408120546001600160a01b0316806110fc5760405162461bcd60e51b8152602060048201526018602482015277115490cdcc8c4e881a5b9d985b1a59081d1bdad95b88125160421b6044820152606401611230565b6000806101318381548110613c9b57613c9b61985d565b6000918252602090912060408051610220810190915260189092020180546001600160a01b038082166101208501908152600160a01b830460ff16610140860152600160a81b90920461ffff1661016085015260018301541661018084015260028201805484929184916101a085019190613d15906197fa565b80601f0160208091040260200160405190810160405280929190818152602001828054613d41906197fa565b8015613d8e5780601f10613d6357610100808354040283529160200191613d8e565b820191906000526020600020905b815481529060010190602001808311613d7157829003601f168201915b505050918352505060038201546020808301919091526004830154604080840191909152600590930154606092830152928452815180830183526006860154815260078601548185015284840152815180830183526008860154815260098601548185015284830152815160808082018452600a8701548252600b87015482860152600c87015482850152600d87015460ff161515828401528583019190915282518082018452600e870180548252600f88015482870152601088015482860152601188018054865181890281018901909752808752939097019691959094938601939290830182828015613ea257602002820191906000526020600020905b815481526020019060010190808311613e8e575b5050509190925250505081526040805160608101825260128401546001600160a01b03168152601384015460208281019190915260148501548284015280840191909152601584018054835181840281018401855281815293909401939091830182828015613f3a57602002820191906000526020600020905b81546001600160a01b03168152600190910190602001808311613f1c575b50505091835250506016820154602082015260179091015460ff1615156040909101529050613f688361178c565b815160c001516112e2919061984a565b60006001600160a01b038216613fe25760405162461bcd60e51b815260206004820152602960248201527f4552433732313a2061646472657373207a65726f206973206e6f7420612076616044820152683634b21037bbb732b960b91b6064820152608401611230565b506001600160a01b03166000908152610100602052604090205490565b6001600160a01b038116600090815261013560209081526040808320546101368352818420546101379093529083205490918161403c848361984a565b614046919061984a565b93509193509193565b6101315460005b818110156132015761406781614f15565b614070816198e9565b9050614056565b600061408161786e565b82600061013182815481106140985761409861985d565b6000918252602090912060408051610220810190915260189092020180546001600160a01b038082166101208501908152600160a01b830460ff16610140860152600160a81b90920461ffff1661016085015260018301541661018084015260028201805484929184916101a085019190614112906197fa565b80601f016020809104026020016040519081016040528092919081815260200182805461413e906197fa565b801561418b5780601f106141605761010080835404028352916020019161418b565b820191906000526020600020905b81548152906001019060200180831161416e57829003601f168201915b505050918352505060038201546020808301919091526004830154604080840191909152600590930154606092830152928452815180830183526006860154815260078601548185015284840152815180830183526008860154815260098601548185015284830152815160808082018452600a8701548252600b87015482860152600c87015482850152600d87015460ff161515828401528583019190915282518082018452600e870180548252600f8801548287015260108801548286015260118801805486518189028101890190975280875293909701969195909493860193929083018282801561429f57602002820191906000526020600020905b81548152602001906001019080831161428b575b5050509190925250505081526040805160608101825260128401546001600160a01b0316815260138401546020828101919091526014850154828401528084019190915260158401805483518184028101840185528181529390940193909183018282801561433757602002820191906000526020600020905b81546001600160a01b03168152600190910190602001808311614319575b50505091835250506016820154602082015260179091015460ff1615156040909101526101008101519091506143a15760405162461bcd60e51b815260206004820152600f60248201526e706f6f6c206e6f742061637469766560881b6044820152606401611230565b600061013186815481106143b7576143b761985d565b60009182526020808320601890920290910180546001600160a01b0316835261013f9091526040909120549091508510156144285760405162461bcd60e51b8152602060048201526011602482015270135a5b881cdd185ad9481b9bdd081b595d607a1b6044820152606401611230565b60006144338761178c565b6004830154614442919061984a565b825490915061445c906001600160a01b0316333089616c99565b50600061446a8833896178c7565b905086836000016004016000828254614483919061984a565b90915550506003830154158015906144a357506003830154600484015411155b6144e55760405162461bcd60e51b8152602060048201526013602482015272115e18d959591959081c1bdbdb081b1a5b5a5d606a1b6044820152606401611230565b604051878152889033907f1449c6dd7851abc30abf37f57715f492010519147cc2652fbc38202c18a6ee909060200160405180910390a360006145278961178c565b6004850154614536919061984a565b60408051858152602081018390529192508a91600080516020619e79833981519152910160405180910390a2509450505050506110fc600160ca55565b600080610131838154811061458a5761458a61985d565b6000918252602090912060408051610220810190915260189092020180546001600160a01b038082166101208501908152600160a01b830460ff16610140860152600160a81b90920461ffff1661016085015260018301541661018084015260028201805484929184916101a085019190614604906197fa565b80601f0160208091040260200160405190810160405280929190818152602001828054614630906197fa565b801561467d5780601f106146525761010080835404028352916020019161467d565b820191906000526020600020905b81548152906001019060200180831161466057829003601f168201915b505050918352505060038201546020808301919091526004830154604080840191909152600590930154606092830152928452815180830183526006860154815260078601548185015284840152815180830183526008860154815260098601548185015284830152815160808082018452600a8701548252600b87015482860152600c87015482850152600d87015460ff161515828401528583019190915282518082018452600e870180548252600f8801548287015260108801548286015260118801805486518189028101890190975280875293909701969195909493860193929083018282801561479157602002820191906000526020600020905b81548152602001906001019080831161477d575b5050509190925250505081526040805160608101825260128401546001600160a01b0316815260138401546020828101919091526014850154828401528084019190915260158401805483518184028101840185528181529390940193909183018282801561482957602002820191906000526020600020905b81546001600160a01b0316815260019091019060200180831161480b575b50505091835250506016820154602082015260179091015460ff161515604090910152608081015151815160e001519192509061486582617af6565b61486f91906199f5565b949350505050565b60006301e1338061271062093a8061488f85876199f5565b61489991906199f5565b6148a39190619a4a565b6112e29190619a4a565b60008061013183815481106148c4576148c461985d565b6000918252602090912060408051610220810190915260189092020180546001600160a01b038082166101208501908152600160a01b830460ff16610140860152600160a81b90920461ffff1661016085015260018301541661018084015260028201805484929184916101a08501919061493e906197fa565b80601f016020809104026020016040519081016040528092919081815260200182805461496a906197fa565b80156149b75780601f1061498c576101008083540402835291602001916149b7565b820191906000526020600020905b81548152906001019060200180831161499a57829003601f168201915b505050918352505060038201546020808301919091526004830154604080840191909152600590930154606092830152928452815180830183526006860154815260078601548185015284840152815180830183526008860154815260098601548185015284830152815160808082018452600a8701548252600b87015482860152600c87015482850152600d87015460ff161515828401528583019190915282518082018452600e870180548252600f88015482870152601088015482860152601188018054865181890281018901909752808752939097019691959094938601939290830182828015614acb57602002820191906000526020600020905b815481526020019060010190808311614ab7575b5050509190925250505081526040805160608101825260128401546001600160a01b03168152601384015460208281019190915260148501548284015280840191909152601584018054835181840281018401855281815293909401939091830182828015614b6357602002820191906000526020600020905b81546001600160a01b03168152600190910190602001808311614b45575b50505091835250506016820154602082015260179091015460ff1615156040909101529050612710614b976103e8826198c0565b602083015151835160c00151614bad919061984a565b6148a391906199f5565b6000806000806101318681548110614bd157614bd161985d565b6000918252602090912060408051610220810190915260189092020180546001600160a01b038082166101208501908152600160a01b830460ff16610140860152600160a81b90920461ffff1661016085015260018301541661018084015260028201805484929184916101a085019190614c4b906197fa565b80601f0160208091040260200160405190810160405280929190818152602001828054614c77906197fa565b8015614cc45780601f10614c9957610100808354040283529160200191614cc4565b820191906000526020600020905b815481529060010190602001808311614ca757829003601f168201915b505050918352505060038201546020808301919091526004830154604080840191909152600590930154606092830152928452815180830183526006860154815260078601548185015284840152815180830183526008860154815260098601548185015284830152815160808082018452600a8701548252600b87015482860152600c87015482850152600d87015460ff161515828401528583019190915282518082018452600e870180548252600f88015482870152601088015482860152601188018054865181890281018901909752808752939097019691959094938601939290830182828015614dd857602002820191906000526020600020905b815481526020019060010190808311614dc4575b5050509190925250505081526040805160608101825260128401546001600160a01b03168152601384015460208281019190915260148501548284015280840191909152601584018054835181840281018401855281815293909401939091830182828015614e7057602002820191906000526020600020905b81546001600160a01b03168152600190910190602001808311614e52575b50505091835250506016820154602082015260179091015460ff16151560409182015260a08201518051910151919250906001600160a01b0382161580614eb657504281105b15614ecc5750859450600093509150614f0e9050565b60006127108460a001516020015189614ee591906199f5565b614eef9190619a4a565b90506000614efd828a6198c0565b9750909550919350614f0e92505050565b9250925092565b60006101318281548110614f2b57614f2b61985d565b6000918252602090912060408051610220810190915260189092020180546001600160a01b038082166101208501908152600160a01b830460ff16610140860152600160a81b90920461ffff1661016085015260018301541661018084015260028201805484929184916101a085019190614fa5906197fa565b80601f0160208091040260200160405190810160405280929190818152602001828054614fd1906197fa565b801561501e5780601f10614ff35761010080835404028352916020019161501e565b820191906000526020600020905b81548152906001019060200180831161500157829003601f168201915b505050918352505060038201546020808301919091526004830154604080840191909152600590930154606092830152928452815180830183526006860154815260078601548185015284840152815180830183526008860154815260098601548185015284830152815160808082018452600a8701548252600b87015482860152600c87015482850152600d87015460ff161515828401528583019190915282518082018452600e870180548252600f8801548287015260108801548286015260118801805486518189028101890190975280875293909701969195909493860193929083018282801561513257602002820191906000526020600020905b81548152602001906001019080831161511e575b5050509190925250505081526040805160608101825260128401546001600160a01b031681526013840154602082810191909152601485015482840152808401919091526015840180548351818402810184018552818152939094019390918301828280156151ca57602002820191906000526020600020905b81546001600160a01b031681526001909101906020018083116151ac575b50505091835250506016820154602082015260179091015460ff16151560409091015260808101516060015180519192509080158061520c5750826101000151155b156152175750505050565b60005b81811015615254576152448382815181106152375761523761985d565b6020026020010151617b4b565b61524d816198e9565b905061521a565b50600084815261013460209081526040808320805482518185028101850190935280835291929091908301828280156152ac57602002820191906000526020600020905b815481526020019060010190808311615298575b5050835193945060009250829150505b828110156153325760008482815181106152d8576152d861985d565b602090810291909101810151600081815261013390925260409091206001810154919250906153088b8287613205565b6003830155600282015461531c908661984a565b94505050508061532b906198e9565b90506152bc565b508061013188815481106153485761534861985d565b600091825260209091206010601890920201015550505050505050565b606060fe8054611111906197fa565b610134602052816000526040600020818154811061539157600080fd5b90600052602060002001600091509150505481565b60008061013184815481106153bd576153bd61985d565b6000918252602090912060189091020160018101549091506001600160a01b031633146153fc5760405162461bcd60e51b815260040161123090619a0c565b600a810154421180156154125750600b81015442105b80156154235750600d81015460ff16155b80156154335750600c8101548311155b80156154425750600a81015415155b61545e5760405162461bcd60e51b815260040161123090619c51565b600d8101805460ff19166001179055600681015483111561548457615482846175c7565b505b600061548f8561178c565b600483015461549e919061984a565b9050838260060160000160008282546154b791906198c0565b9091555050600182015482546154da916001600160a01b03918216911686617727565b5060006154e68661178c565b60048401546154f5919061984a565b60408051848152602081018390529192508791600080516020619e79833981519152910160405180910390a250600195945050505050565b600061553761786e565b3361554184613c24565b6001600160a01b03161461558d5760405162461bcd60e51b815260206004820152601360248201527239b2b73232b91034b9903737ba1037bbb732b960691b6044820152606401611230565b600083815261013260205260408120546101318054919291839081106155b5576155b561985d565b906000526020600020906018020190506000610133600087815260200190815260200160002090504281600601541080156155f35750428160070154115b61560f5760405162461bcd60e51b815260040161123090619c51565b615619868661748e565b60018101805460009182905560068301829055600783018290559061563d8561178c565b600485015461564c919061984a565b9050861561565d5761565d88617d11565b811561568f5760048401546156729083616c8d565b6004850155835461568d906001600160a01b03163384617727565b505b604051828152859033907f7fc4727e062e336010f2c282598ef5f14facb3de68cf8195c2f23e1454b2b74e9060200160405180910390a360006156d18661178c565b60048601546156e0919061984a565b60408051848152602081018390529192508791600080516020619e79833981519152910160405180910390a250505060119091018054600181810183556000928352602090922001869055925050506110fc600160ca55565b61013e818154811061574a57600080fd5b6000918252602090912001546001600160a01b0316905081565b336000818152610138602090815260408083206001600160a01b03861680855292528220805490839055919261579b919083617727565b5060405181815233907fbf7aaef98dccc47249def450ef0fd30757d553648a28fa7cd56e3b2b052724949060200160405180910390a250600192915050565b613201338383617db4565b60008061013183815481106157fc576157fc61985d565b6000918252602090912060408051610220810190915260189092020180546001600160a01b038082166101208501908152600160a01b830460ff16610140860152600160a81b90920461ffff1661016085015260018301541661018084015260028201805484929184916101a085019190615876906197fa565b80601f01602080910402602001604051908101604052809291908181526020018280546158a2906197fa565b80156158ef5780601f106158c4576101008083540402835291602001916158ef565b820191906000526020600020905b8154815290600101906020018083116158d257829003601f168201915b505050918352505060038201546020808301919091526004830154604080840191909152600590930154606092830152928452815180830183526006860154815260078601548185015284840152815180830183526008860154815260098601548185015284830152815160808082018452600a8701548252600b87015482860152600c87015482850152600d87015460ff161515828401528583019190915282518082018452600e870180548252600f88015482870152601088015482860152601188018054865181890281018901909752808752939097019691959094938601939290830182828015615a0357602002820191906000526020600020905b8154815260200190600101908083116159ef575b5050509190925250505081526040805160608101825260128401546001600160a01b03168152601384015460208281019190915260148501548284015280840191909152601584018054835181840281018401855281815293909401939091830182828015615a9b57602002820191906000526020600020905b81546001600160a01b03168152600190910190602001808311615a7d575b50505091835250506016820154602082015260179091015460ff1615156040918201529051015161ffff169392505050565b6000806000806101318581548110615ae757615ae761985d565b6000918252602090912060408051610220810190915260189092020180546001600160a01b038082166101208501908152600160a01b830460ff16610140860152600160a81b90920461ffff1661016085015260018301541661018084015260028201805484929184916101a085019190615b61906197fa565b80601f0160208091040260200160405190810160405280929190818152602001828054615b8d906197fa565b8015615bda5780601f10615baf57610100808354040283529160200191615bda565b820191906000526020600020905b815481529060010190602001808311615bbd57829003601f168201915b505050918352505060038201546020808301919091526004830154604080840191909152600590930154606092830152928452815180830183526006860154815260078601548185015284840152815180830183526008860154815260098601548185015284830152815160808082018452600a8701548252600b87015482860152600c87015482850152600d87015460ff161515828401528583019190915282518082018452600e870180548252600f88015482870152601088015482860152601188018054865181890281018901909752808752939097019691959094938601939290830182828015615cee57602002820191906000526020600020905b815481526020019060010190808311615cda575b5050509190925250505081526040805160608101825260128401546001600160a01b03168152601384015460208281019190915260148501548284015280840191909152601584018054835181840281018401855281815293909401939091830182828015615d8657602002820191906000526020600020905b81546001600160a01b03168152600190910190602001808311615d68575b5050509183525050601682015460208083019190915260179092015460ff1615156040918201526060909201518051918101519201519097919650945092505050565b60006101318481548110615ddf57615ddf61985d565b6000918252602090912060189091020160018101549091506001600160a01b03163314615e1e5760405162461bcd60e51b815260040161123090619a0c565b6000615e298561178c565b6004830154615e38919061984a565b8254909150615e52906001600160a01b0316333087616c99565b5083826006016000016000828254615e6a919061984a565b9091555060009050615e7b8661178c565b6004840154615e8a919061984a565b9050615e9786858761717c565b5060408051838152602081018390528791600080516020619e79833981519152910160405180910390a2505050505050565b6000806000806101318581548110615ee357615ee361985d565b6000918252602090912060408051610220810190915260189092020180546001600160a01b038082166101208501908152600160a01b830460ff16610140860152600160a81b90920461ffff1661016085015260018301541661018084015260028201805484929184916101a085019190615f5d906197fa565b80601f0160208091040260200160405190810160405280929190818152602001828054615f89906197fa565b8015615fd65780601f10615fab57610100808354040283529160200191615fd6565b820191906000526020600020905b815481529060010190602001808311615fb957829003601f168201915b505050918352505060038201546020808301919091526004830154604080840191909152600590930154606092830152928452815180830183526006860154815260078601548185015284840152815180830183526008860154815260098601548185015284830152815160808082018452600a8701548252600b87015482860152600c87015482850152600d87015460ff161515828401528583019190915282518082018452600e870180548252600f880154828701526010880154828601526011880180548651818902810189019097528087529390970196919590949386019392908301828280156160ea57602002820191906000526020600020905b8154815260200190600101908083116160d6575b5050509190925250505081526040805160608101825260128401546001600160a01b0316815260138401546020828101919091526014850154828401528084019190915260158401805483518184028101840185528181529390940193909183018282801561618257602002820191906000526020600020905b81546001600160a01b03168152600190910190602001808311616164575b50505091835250506016820154602082015260179091015460ff161515604091820152815160a08101519101519192506161bf9161ffff16614877565b60409091015180516020909101519196909550909350915050565b6034546001600160a01b031633146162435760405162461bcd60e51b815260206004820152602660248201527f6f6e6c792070656e64696e67206f776e65722063616e2061636365707420747260448201526530b739b332b960d11b6064820152608401611230565b603454616258906001600160a01b0316617e83565b565b6162643383616d58565b6162805760405162461bcd60e51b815260040161123090619873565b61628c84848484617ee0565b50505050565b60008061013183815481106162a9576162a961985d565b6000918252602090912060189091020160018101549091506001600160a01b03163314806162e157506033546001600160a01b031633145b6162fd5760405162461bcd60e51b815260040161123090619a0c565b601781015460ff166163435760405162461bcd60e51b815260206004820152600f60248201526e506f6f6c206e6f742061637469766560881b6044820152606401611230565b60178101805460ff1916905542601690910155506001919050565b600054610100900460ff161580801561637e5750600054600160ff909116105b806163985750303b158015616398575060005460ff166001145b6163fb5760405162461bcd60e51b815260206004820152602e60248201527f496e697469616c697a61626c653a20636f6e747261637420697320616c72656160448201526d191e481a5b9a5d1a585b1a5e995960921b6064820152608401611230565b6000805460ff19166001179055801561641e576000805461ff0019166101001790555b616426617f13565b61013980546001600160a01b0319166001600160a01b0384161790558015613201576000805461ff0019169055604051600181527f7f26b83ff96e1f2b6a682f133852f6798a09c465da95921460cefb38474024989060200160405180910390a15050565b606061649682616bbf565b60006164ad60408051602081019091526000815290565b905060008151116164cd57604051806020016040528060008152506112e2565b806164d784617f42565b6040516020016164e8929190619c9a565b6040516020818303038152906040529392505050565b6000616508616f48565b600061651384613fff565b5050506001600160a01b0385166000818152610135602090815260408083208390556101368252808320839055610137909152812055909150616557908483617727565b506001949350505050565b60008061013183815481106165795761657961985d565b6000918252602090912060408051610220810190915260189092020180546001600160a01b038082166101208501908152600160a01b830460ff16610140860152600160a81b90920461ffff1661016085015260018301541661018084015260028201805484929184916101a0850191906165f3906197fa565b80601f016020809104026020016040519081016040528092919081815260200182805461661f906197fa565b801561666c5780601f106166415761010080835404028352916020019161666c565b820191906000526020600020905b81548152906001019060200180831161664f57829003601f168201915b505050918352505060038201546020808301919091526004830154604080840191909152600590930154606092830152928452815180830183526006860154815260078601548185015284840152815180830183526008860154815260098601548185015284830152815160808082018452600a8701548252600b87015482860152600c87015482850152600d87015460ff161515828401528583019190915282518082018452600e870180548252600f8801548287015260108801548286015260118801805486518189028101890190975280875293909701969195909493860193929083018282801561678057602002820191906000526020600020905b81548152602001906001019080831161676c575b5050509190925250505081526040805160608101825260128401546001600160a01b0316815260138401546020828101919091526014850154828401528084019190915260158401805483518184028101840185528181529390940193909183018282801561681857602002820191906000526020600020905b81546001600160a01b031681526001909101906020018083116167fa575b50505091835250506016820154602082015260179091015460ff1615156040909101525160c001519392505050565b600081815261013b602090815260408083205461013a8352818420818552909252909120546001600160a01b031680156112d157806001600160a01b031663f69e20466040518163ffffffff1660e01b81526004016020604051808303816000875af11580156168bb573d6000803e3d6000fd5b505050506040513d601f19601f8201168201806040525081019061628c9190619cc9565b6001600160a01b03811660009081526101046020908152604080832080548251818502810185019093528083526060949383018282801561693f57602002820191906000526020600020905b81548152602001906001019080831161692b575b50508351939450839250505067ffffffffffffffff8111156169635761696361940d565b60405190808252806020026020018201604052801561699c57816020015b616989619043565b8152602001906001900390816169815790505b5092506000805b82811015616a705761013360008583815181106169c2576169c261985d565b602002602001015181526020019081526020016000206040518061010001604052908160008201548152602001600182015481526020016002820154815260200160038201548152602001600482015481526020016005820154815260200160068201548152602001600782015481525050858381518110616a4657616a4661985d565b60200260200101819052508180616a5c906198e9565b92505080616a69906198e9565b90506169a3565b50505050919050565b6000616a83616f48565b61013e5460005b81811015611cf857600061013e8281548110616aa857616aa861985d565b6000918252602090912001546001600160a01b03169050616ac981866164fe565b505080616ad5906198e9565b9050616a8a565b616ae4616f48565b6001600160a01b038116616b495760405162461bcd60e51b815260206004820152602660248201527f4f776e61626c653a206e6577206f776e657220697320746865207a65726f206160448201526564647265737360d01b6064820152608401611230565b603480546001600160a01b0319166001600160a01b0392909216919091179055565b616b7361786e565b616b7e81600161748e565b6124f2600160ca55565b6101315460005b8181101561320157616ba081616847565b616ba9816198e9565b9050616b8f565b6001600160a01b03163b151590565b600081815260ff60205260409020546001600160a01b03166124f25760405162461bcd60e51b8152602060048201526018602482015277115490cdcc8c4e881a5b9d985b1a59081d1bdad95b88125160421b6044820152606401611230565b60008181526101016020526040902080546001600160a01b0319166001600160a01b0384169081179091558190616c5482613c24565b6001600160a01b03167f8c5be1e5ebec7d5bd14f71427d1e84f3dd0314c0f7b2291e5b200ac8c7c3b92560405160405180910390a45050565b60006112e282846198c0565b6040516001600160a01b03808516602483015283166044820152606481018290526000906165579086906323b872dd60e01b906084015b60408051601f198184030181529190526020810180516001600160e01b03166001600160e01b031990931692909217909152617fd3565b6001600160a01b038316156112d1576001600160a01b0380841660009081526101386020908152604080832093861683529290529081208054839290616d4e90849061984a565b9091555050505050565b600080616d6483613c24565b9050806001600160a01b0316846001600160a01b03161480616dac57506001600160a01b038082166000908152610102602090815260408083209388168352929052205460ff165b8061486f5750836001600160a01b0316616dc584611194565b6001600160a01b031614949350505050565b826001600160a01b0316616dea82613c24565b6001600160a01b031614616e105760405162461bcd60e51b815260040161123090619ce2565b6001600160a01b038216616e725760405162461bcd60e51b8152602060048201526024808201527f4552433732313a207472616e7366657220746f20746865207a65726f206164646044820152637265737360e01b6064820152608401611230565b616e7d8383836180a5565b826001600160a01b0316616e9082613c24565b6001600160a01b031614616eb65760405162461bcd60e51b815260040161123090619ce2565b60008181526101016020908152604080832080546001600160a01b03199081169091556001600160a01b03878116808652610100855283862080546000190190559087168086528386208054600101905586865260ff90945282852080549092168417909155905184937fddf252ad1be2c89b69c2b068fc378daa952ba7f163c4a11628f55a4df523b3ef91a4505050565b6033546001600160a01b031633146162585760405162461bcd60e51b815260206004820181905260248201527f4f776e61626c653a2063616c6c6572206973206e6f7420746865206f776e65726044820152606401611230565b60006101318381548110616fb857616fb861985d565b600091825260208220601891909102016008810154600382015482549294508592616fee9190600160a81b900461ffff16614877565b616ff891906198c0565b617002919061984a565b60018301548354919250617024916001600160a01b0390811691163084616c99565b5060006127106170366103e8846199f5565b6170409190619a4a565b905081836008016000016000828254617059919061984a565b9091555060009050808061706d8885614bb7565b885492955090935091506001600160a01b031661708b828285616d07565b6001600160a01b03811660009081526101366020526040812080548692906170b490849061984a565b90915550600090506170c686886198c0565b9050808860080160010160008282546170df919061984a565b90915550506040518781528a907fadb049ad2d09be3db90459a16aef1ad0a4d89e8fdcc1ade9429d6cc55abbcd2b9060200160405180910390a250505050505050505050565b6000670eb5e06245ea0000617142670de0b6b3a7640000846199f5565b61714c9190619a4a565b90508061013184815481106171635761716361985d565b6000918252602090912060056018909202010155505050565b60008061013185815481106171935761719361985d565b906000526020600020906018020190506000846040516020016171b6919061916e565b60408051601f198184030181529181528151602092830120600089815261013b9093529120549091508082146173115760006171f1886175c7565b905060006171ff898961813c565b90506001600160a01b038116156172f1578061721b838961984a565b60068701805460009061722f9084906198c0565b9091555060019050617241848a61984a565b61724b91906198c0565b60078701805460009061725f90849061984a565b90915550617285905082617273858b61984a565b88546001600160a01b03169190617727565b50806001600160a01b0316630b5090076040518163ffffffff1660e01b81526004016020604051808303816000875af11580156172c6573d6000803e3d6000fd5b505050506040513d601f19601f820116820180604052508101906172ea9190619cc9565b505061730e565b86856006016000016000828254617308919061984a565b90915550505b50505b5050509392505050565b6124f2616f48565b7f4910fdfa16fed3260ed0e7147f7cc6da11a60208b5b9406d12a635614ffd91435460ff1615617356576112d1836182c2565b826001600160a01b03166352d1902d6040518163ffffffff1660e01b8152600401602060405180830381865afa9250505080156173b0575060408051601f3d908101601f191682019092526173ad91810190619cc9565b60015b6174135760405162461bcd60e51b815260206004820152602e60248201527f45524331393637557067726164653a206e657720696d706c656d656e7461746960448201526d6f6e206973206e6f74205555505360901b6064820152608401611230565b600080516020619e9983398151915281146174825760405162461bcd60e51b815260206004820152602960248201527f45524331393637557067726164653a20756e737570706f727465642070726f786044820152681a58589b195555525160ba1b6064820152608401611230565b506112d183838361835e565b600082815261013260205260408120546101318054919291839081106174b6576174b661985d565b600091825260208083208784526101339091526040832060189092020192509080806174e188612cd6565b9250925092508661752f5784601601546000036174fe5742617504565b84601601545b846005018190555080846004016000828254617520919061984a565b90915550505050505050505050565b6008850154831115617545576175458684616fa2565b8215611f9c5760006004850181905560168601549003617565574261756b565b84601601545b60058501556008850180548491906000906175879084906198c0565b90915550506009850180548391906000906175a39084906198c0565b90915550611f9a90506175b589613c24565b86546001600160a01b03169084617727565b60008061013183815481106175de576175de61985d565b6000918252602080832086845261013b90915260408320546018909202019250801561771f57600085815261013a602090815260408083208484528252808320548151637f1f087360e01b815291516001600160a01b0390911693928492637f1f08739260048083019392829003018187875af1158015617663573d6000803e3d6000fd5b505050506040513d601f19601f820116820180604052508101906176879190619cc9565b6040516348b1933560e01b8152600481018290529091506001600160a01b038316906348b19335906024016020604051808303816000875af11580156176d1573d6000803e3d6000fd5b505050506040513d601f19601f820116820180604052508101906176f59190619cc9565b600060078701819055600687018054929650869290919061771790849061984a565b909155505050505b509392505050565b6040516001600160a01b038316602482015260448101829052600090611cf890859063a9059cbb60e01b90606401616cd0565b60008061013184815481106177715761777161985d565b6000918252602090912060036018909202010154617797670de0b6b3a7640000856199f5565b6177a19190619a4a565b90506177ae8160056199f5565b91509250929050565b60006177cd670de0b6b3a7640000600019619a4a565b8211156177f0576040516322630c4560e01b815260048101839052602401611230565b670de0b6b3a764000082026110fc565b60006110fc6714057b7ef767814f670de0b6b3a764000061782661782386618383565b90565b028161783457617834619a34565b0490565b60006112e261782383856198c0565b60006112e261782384846184bb565b60006112e261782384670de0b6b3a76400008561856f565b600260ca54036178c05760405162461bcd60e51b815260206004820152601f60248201527f5265656e7472616e637947756172643a207265656e7472616e742063616c6c006044820152606401611230565b600260ca55565b60006001600160a01b03831661791f5760405162461bcd60e51b815260206004820152601f60248201527f45524332303a206d696e7420746f20746865207a65726f2061646472657373006044820152606401611230565b600061792b85846137d6565b9050600061793885618643565b9050617942619043565b868152602081018590526000617958888761775a565b509050674563918244f40000816101318a815481106179795761797961985d565b9060005260206000209060180201600e0160020154617998919061984a565b11156179dc5760405162461bcd60e51b81526020600482015260136024820152721608189bdd5b99185c9e481d9a5bdb185d1959606a1b6044820152606401611230565b6040808301828152606084018681524260a086019081526000878152610133602090815285822088518155818901516001808301919091559551600282015593516003850155608088015160048501559151600584015560c0870151600684015560e08701516007909301929092558b825261013481528382208054938401815582528082209092018690558581526101329091522088905561013180548291908a908110617a8d57617a8d61985d565b9060005260206000209060180201600e016002016000828254617ab0919061984a565b92505081905550617ae9886101318a81548110617acf57617acf61985d565b9060005260206000209060180201600e01600201546187f6565b5091979650505050505050565b600080670de0b6b3a7640000617b1484670928ca80cfc200006199f5565b617b1e9190619a4a565b617b309067016345785d8a000061984a565b90506112e2816ec097ce7bc90715b34b9f1000000000619a4a565b6000818152610132602090815260408083205480845261013483528184208054835181860281018601909452808452919493909190830182828015617baf57602002820191906000526020600020905b815481526020019060010190808311617b9b575b5050835193945060009250829150505b82811015617bff5785848281518110617bda57617bda61985d565b602002602001015103617bef57809150617bff565b617bf8816198e9565b9050617bbf565b50818110617c4f5760405162461bcd60e51b815260206004820152601860248201527f546f6b656e206e6f7420666f756e6420696e20617272617900000000000000006044820152606401611230565b805b617c5c6001846198c0565b811015617cb45783617c6f82600161984a565b81518110617c7f57617c7f61985d565b6020026020010151848281518110617c9957617c9961985d565b6020908102919091010152617cad816198e9565b9050617c51565b506000848152610134602090815260409091208451617cd592860190618f85565b50600084815261013460205260409020805480617cf457617cf46198d3565b600190038181906000526020600020016000905590555050505050565b6000617d1c82613c24565b9050617d2a816000846180a5565b617d3382613c24565b60008381526101016020908152604080832080546001600160a01b03199081169091556001600160a01b0385168085526101008452828520805460001901905587855260ff909352818420805490911690555192935084927fddf252ad1be2c89b69c2b068fc378daa952ba7f163c4a11628f55a4df523b3ef908390a45050565b816001600160a01b0316836001600160a01b031603617e155760405162461bcd60e51b815260206004820152601960248201527f4552433732313a20617070726f766520746f2063616c6c6572000000000000006044820152606401611230565b6001600160a01b0383811660008181526101026020908152604080832094871680845294825291829020805460ff191686151590811790915591519182527f17307eab39ab6107e8899845ad3d59bd9653f200f220920489ca2b5937696c31910160405180910390a3505050565b603380546001600160a01b038381166001600160a01b03198084168217909455603480549094169093556040519116919082907f8be0079c531659141344cd1fd0a4f28419497f9722a3daafe3b4186f6b6457e090600090a35050565b617eeb848484616dd7565b617ef78484848461882a565b61628c5760405162461bcd60e51b815260040161123090619d27565b600054610100900460ff16617f3a5760405162461bcd60e51b815260040161123090619d79565b616258618928565b60606000617f4f83618958565b600101905060008167ffffffffffffffff811115617f6f57617f6f61940d565b6040519080825280601f01601f191660200182016040528015617f99576020820181803683370190505b5090508181016020015b600019016f181899199a1a9b1b9c1cb0b131b232b360811b600a86061a8153600a85049450841561771f57617fa3565b6000618028826040518060400160405280602081526020017f5361666545524332303a206c6f772d6c6576656c2063616c6c206661696c6564815250856001600160a01b0316618a309092919063ffffffff16565b8051909150156112d157808060200190518101906180469190619dc4565b6112d15760405162461bcd60e51b815260206004820152602a60248201527f5361666545524332303a204552433230206f7065726174696f6e20646964206e6044820152691bdd081cdd58d8d9595960b21b6064820152608401611230565b816001600160a01b0316836001600160a01b0316141580156180cf57506001600160a01b03831615155b156180de576180de8382618a3f565b826001600160a01b0316826001600160a01b03161415801561810857506001600160a01b03821615155b156112d1576001600160a01b0391909116600090815261010460209081526040822080546001810182559083529120015550565b600080600083604051602001618152919061916e565b60408051601f198184030181529181528151602092830120600088815261013a84528281208282529093529120549091506001600160a01b031680618244576101395461013180546001600160a01b039092169163dff968019188918a9081106181be576181be61985d565b60009182526020909120601890910201546040516001600160e01b031960e085901b1681526181fa92916001600160a01b031690600401619de1565b6020604051808303816000875af1158015618219573d6000803e3d6000fd5b505050506040513d601f19601f8201168201806040525081019061823d9190619e0b565b925061824e565b92506110fc915050565b6001600160a01b03831661826857600093505050506110fc565b50600085815261013a60209081526040808320848452825280832080546001600160a01b0319166001600160a01b03871690811790915588845261013b83528184209490945592825261013c905220939093555090919050565b6001600160a01b0381163b61832f5760405162461bcd60e51b815260206004820152602d60248201527f455243313936373a206e657720696d706c656d656e746174696f6e206973206e60448201526c1bdd08184818dbdb9d1c9858dd609a1b6064820152608401611230565b600080516020619e9983398151915280546001600160a01b0319166001600160a01b0392909216919091179055565b61836783618b98565b6000825111806183745750805b156112d15761628c8383618bd8565b600081670de0b6b3a76400008110156183b257604051633621413760e21b815260048101849052602401611230565b600061843e670de0b6b3a7640000830460016fffffffffffffffffffffffffffffffff821160071b91821c67ffffffffffffffff811160061b90811c63ffffffff811160051b90811c61ffff811160041b90811c60ff8111600390811b91821c600f811160021b90811c918211871b91821c969096119490961792909217171791909117919091171790565b9050670de0b6b3a7640000810282821c670de0b6b3a763ffff19810161846a57815b9695505050505050565b671bc16d674ec800006706f05b59d3b200005b80156184ad57670de0b6b3a76400008380020492508183106184a5579283019260019290921c915b60011c61847d565b50825b979650505050505050565b60008080600019848609848602925082811083820303915050670de0b6b3a764000081106185065760405163090638d560e41b81526004810186905260248101859052604401611230565b6000670de0b6b3a7640000858709905081600003618532575050670de0b6b3a7640000900490506110fc565b620400008184030492109003600160ee1b02177faccb18165bd6fe31ae1cf318dc5b51eee0e1ba569b88cd74c1773b91fac1066902905092915050565b60008080600019858709858702925082811083820303915050806000036185a95783828161859f5761859f619a34565b04925050506112e2565b8381106185da576040516307639aaf60e41b8152600481018790526024810186905260448101859052606401611230565b60008486880960026001871981018816978890046003810283188082028403028082028403028082028403028082028403028082028403029081029092039091026000889003889004909101858311909403939093029303949094049190911702949350505050565b60008061010360008154618656906198e9565b918290555090506001600160a01b0383166186b35760405162461bcd60e51b815260206004820181905260248201527f4552433732313a206d696e7420746f20746865207a65726f20616464726573736044820152606401611230565b600081815260ff60205260409020546001600160a01b0316156187185760405162461bcd60e51b815260206004820152601c60248201527f4552433732313a20746f6b656e20616c7265616479206d696e746564000000006044820152606401611230565b618724600084836180a5565b600081815260ff60205260409020546001600160a01b0316156187895760405162461bcd60e51b815260206004820152601c60248201527f4552433732313a20746f6b656e20616c7265616479206d696e746564000000006044820152606401611230565b6001600160a01b0383166000818152610100602090815260408083208054600101905584835260ff90915280822080546001600160a01b0319168417905551839291907fddf252ad1be2c89b69c2b068fc378daa952ba7f163c4a11628f55a4df523b3ef908290a46110fc565b600081610131848154811061880d5761880d61985d565b60009182526020909120600e601890920201015550600192915050565b60006001600160a01b0384163b1561892057604051630a85bd0160e11b81526001600160a01b0385169063150b7a029061886e903390899088908890600401619e28565b6020604051808303816000875af19250505080156188a9575060408051601f3d908101601f191682019092526188a691810190619e5b565b60015b618906573d8080156188d7576040519150601f19603f3d011682016040523d82523d6000602084013e6188dc565b606091505b5080516000036188fe5760405162461bcd60e51b815260040161123090619d27565b805181602001fd5b6001600160e01b031916630a85bd0160e11b14905061486f565b50600161486f565b600054610100900460ff1661894f5760405162461bcd60e51b815260040161123090619d79565b61625833617e83565b60008072184f03e93ff9f4daa797ed6e38ed64bf6a1f0160401b83106189975772184f03e93ff9f4daa797ed6e38ed64bf6a1f0160401b830492506040015b6d04ee2d6d415b85acef810000000083106189c3576d04ee2d6d415b85acef8100000000830492506020015b662386f26fc1000083106189e157662386f26fc10000830492506010015b6305f5e10083106189f9576305f5e100830492506008015b6127108310618a0d57612710830492506004015b60648310618a1f576064830492506002015b600a83106110fc5760010192915050565b606061486f8484600085618ccc565b6001600160a01b03821660009081526101046020908152604080832080548251818502810185019093528083529192909190830182828015618aa057602002820191906000526020600020905b815481526020019060010190808311618a8c575b505083519394506000925050505b81811015618b915783838281518110618ac957618ac961985d565b602002602001015103618b815782618ae26001846198c0565b81518110618af257618af261985d565b6020026020010151838281518110618b0c57618b0c61985d565b6020908102919091018101919091526001600160a01b03861660009081526101048252604090208451618b4192860190618f85565b506001600160a01b038516600090815261010460205260409020805480618b6a57618b6a6198d3565b600190038181906000526020600020016000905590555b618b8a816198e9565b9050618aae565b5050505050565b618ba1816182c2565b6040516001600160a01b038216907fbc7cd75a20ee27fd9adebab32041f755214dbc6bffa90cc0225b39da2e5c2d3b90600090a250565b60606001600160a01b0383163b618c405760405162461bcd60e51b815260206004820152602660248201527f416464726573733a2064656c65676174652063616c6c20746f206e6f6e2d636f6044820152651b9d1c9858dd60d21b6064820152608401611230565b600080846001600160a01b031684604051618c5b9190619a6c565b600060405180830381855af49150503d8060008114618c96576040519150601f19603f3d011682016040523d82523d6000602084013e618c9b565b606091505b5091509150618cc38282604051806060016040528060278152602001619eb960279139618d9c565b95945050505050565b606082471015618d2d5760405162461bcd60e51b815260206004820152602660248201527f416464726573733a20696e73756666696369656e742062616c616e636520666f6044820152651c8818d85b1b60d21b6064820152608401611230565b600080866001600160a01b03168587604051618d499190619a6c565b60006040518083038185875af1925050503d8060008114618d86576040519150601f19603f3d011682016040523d82523d6000602084013e618d8b565b606091505b50915091506184b087838387618db5565b60608315618dab5750816112e2565b6112e28383618e2a565b60608315618e24578251600003618e1d576001600160a01b0385163b618e1d5760405162461bcd60e51b815260206004820152601d60248201527f416464726573733a2063616c6c20746f206e6f6e2d636f6e74726163740000006044820152606401611230565b508161486f565b61486f83835b815115618e3a5781518083602001fd5b8060405162461bcd60e51b8152600401611230919061916e565b6040805161022081019091526000610120820181815261014083018290526101608301829052610180830182905260606101a08401526101c083018290526101e0830182905261020083019190915281908152602001618ec7604051806040016040528060008152602001600081525090565b8152602001618ee9604051806040016040528060008152602001600081525090565b8152602001618f1b60405180608001604052806000815260200160008152602001600081526020016000151581525090565b8152602001618f4b6040518060800160405280600081526020016000815260200160008152602001606081525090565b8152604080516060810182526000808252602082810182905292820152910190815260606020820181905260006040830181905291015290565b828054828255906000526020600020908101928215618fc0579160200282015b82811115618fc0578251825591602001919060010190618fa5565b50618fcc929150619088565b5090565b828054828255906000526020600020908101928215618fc0579160200282015b82811115618fc057825182546001600160a01b0319166001600160a01b03909116178255602090920191600190910190618ff0565b50805460008255906000526020600020908101906124f29190619088565b60405180610100016040528060008152602001600081526020016000815260200160008152602001600081526020016000815260200160008152602001600081525090565b5b80821115618fcc5760008155600101619089565b6001600160a01b03811681146124f257600080fd5b600080604083850312156190c557600080fd5b82356190d08161909d565b915060208301356190e08161909d565b809150509250929050565b6001600160e01b0319811681146124f257600080fd5b60006020828403121561911357600080fd5b81356112e2816190eb565b60005b83811015619139578181015183820152602001619121565b50506000910152565b6000815180845261915a81602086016020860161911e565b601f01601f19169290920160200192915050565b6020815260006112e26020830184619142565b6000806040838503121561919457600080fd5b50508035926020909101359150565b6000602082840312156191b557600080fd5b5035919050565b600080604083850312156191cf57600080fd5b82356191da8161909d565b946020939093013593505050565b60006080830182518452602080840151818601526040840151604086015260608401516080606087015282815180855260a0880191508383019450600092505b808310156192485784518252938301936001929092019190830190619228565b509695505050505050565b6101e080825289516001600160a01b039081169183019190915260208a015160ff1661020083015260408a015161ffff1661022083015260608a01511661024082015260808901516101006102608301526000906192b56102e0840182619142565b905060a08b015161028084015260c08b01516102a084015260e08b01516102c08401526192ef602084018b80518252602090810151910152565b8851606084015260208901516080840152875160a0840152602088015160c0840152604088015160e08401526060880151151561010084015282810361012084015261933b81886191e8565b86516001600160a01b031661014085015260208701516101608501526040870151610180850152915061936b9050565b836101a08301526193816101c083018415159052565b9998505050505050505050565b6000806000606084860312156193a357600080fd5b83356193ae8161909d565b925060208401356193be8161909d565b929592945050506040919091013590565b80151581146124f257600080fd5b6000806000606084860312156193f257600080fd5b83356193fd8161909d565b925060208401356193be816193cf565b634e487b7160e01b600052604160045260246000fd5b600082601f83011261943457600080fd5b813567ffffffffffffffff8082111561944f5761944f61940d565b604051601f8301601f19908116603f011681019082821181831017156194775761947761940d565b8160405283815286602085880101111561949057600080fd5b836020870160208301376000602085830101528094505050505092915050565b600080600080600060a086880312156194c857600080fd5b8535945060208601359350604086013561ffff811681146194e857600080fd5b925060608601359150608086013567ffffffffffffffff81111561950b57600080fd5b61951788828901619423565b9150509295509295909350565b60008060008060008060c0878903121561953d57600080fd5b86356195488161909d565b955060208701356195588161909d565b9450604087013567ffffffffffffffff81111561957457600080fd5b61958089828a01619423565b94505060608701356195918161909d565b9598949750929560808101359460a0909101359350915050565b6000602082840312156195bd57600080fd5b81356112e28161909d565b6000806000606084860312156195dd57600080fd5b8335925060208401356193be8161909d565b6000806040838503121561960257600080fd5b823561960d8161909d565b9150602083013567ffffffffffffffff81111561962957600080fd5b61963585828601619423565b9150509250929050565b60008060006060848603121561965457600080fd5b505081359360208301359350604090920135919050565b6000806040838503121561967e57600080fd5b8235915060208301356190e0816193cf565b600080604083850312156196a357600080fd5b82356196ae8161909d565b915060208301356190e0816193cf565b6000806000606084860312156196d357600080fd5b8335925060208401359150604084013567ffffffffffffffff8111156196f857600080fd5b61970486828701619423565b9150509250925092565b6000806000806080858703121561972457600080fd5b843561972f8161909d565b9350602085013561973f8161909d565b925060408501359150606085013567ffffffffffffffff81111561976257600080fd5b61976e87828801619423565b91505092959194509250565b602080825282518282018190526000919060409081850190868401855b82811015617ae95781518051855286810151878601528581015186860152606080820151908601526080808201519086015260a0808201519086015260c0808201519086015260e090810151908501526101009093019290850190600101619797565b600181811c9082168061980e57607f821691505b60208210810361982e57634e487b7160e01b600052602260045260246000fd5b50919050565b634e487b7160e01b600052601160045260246000fd5b808201808211156110fc576110fc619834565b634e487b7160e01b600052603260045260246000fd5b6020808252602d908201527f4552433732313a2063616c6c6572206973206e6f7420746f6b656e206f776e6560408201526c1c881bdc88185c1c1c9bdd9959609a1b606082015260800190565b818103818111156110fc576110fc619834565b634e487b7160e01b600052603160045260246000fd5b6000600182016198fb576198fb619834565b5060010190565b600181815b8085111561993d57816000190482111561992357619923619834565b8085161561993057918102915b93841c9390800290619907565b509250929050565b600082619954575060016110fc565b81619961575060006110fc565b816001811461997757600281146199815761999d565b60019150506110fc565b60ff84111561999257619992619834565b50506001821b6110fc565b5060208310610133831016604e8410600b84101617156199c0575081810a6110fc565b6199ca8383619902565b80600019048211156199de576199de619834565b029392505050565b60006112e260ff841683619945565b80820281158282048414176110fc576110fc619834565b6020808252600e908201526d139bdd08185d5d1a1bdc9a5e995960921b604082015260600190565b634e487b7160e01b600052601260045260246000fd5b600082619a6757634e487b7160e01b600052601260045260246000fd5b500490565b60008251619a7e81846020870161911e565b9190910192915050565b600060208284031215619a9a57600080fd5b815160ff811681146112e257600080fd5b601f8211156112d157600081815260208120601f850160051c81016020861015619ad25750805b601f850160051c820191505b81811015619af157828155600101619ade565b505050505050565b815167ffffffffffffffff811115619b1357619b1361940d565b619b2781619b2184546197fa565b84619aab565b602080601f831160018114619b5c5760008415619b445750858301515b600019600386901b1c1916600185901b178555619af1565b600085815260208120601f198616915b82811015619b8b57888601518255948401946001909101908401619b6c565b5085821015619ba95787850151600019600388901b60f8161c191681555b5050505050600190811b01905550565b6020808252602c908201527f46756e6374696f6e206d7573742062652063616c6c6564207468726f7567682060408201526b19195b1959d85d1958d85b1b60a21b606082015260800190565b6020808252602c908201527f46756e6374696f6e206d7573742062652063616c6c6564207468726f7567682060408201526b6163746976652070726f787960a01b606082015260800190565b60208082526029908201527f54696d656c6f636b206e6f7420736574206f72206e6f7420636f6d706c6574656040820152686420696e2074696d6560b81b606082015260800190565b60008351619cac81846020880161911e565b835190830190619cc081836020880161911e565b01949350505050565b600060208284031215619cdb57600080fd5b5051919050565b60208082526025908201527f4552433732313a207472616e736665722066726f6d20696e636f72726563742060408201526437bbb732b960d91b606082015260800190565b60208082526032908201527f4552433732313a207472616e7366657220746f206e6f6e20455243373231526560408201527131b2b4bb32b91034b6b83632b6b2b73a32b960711b606082015260800190565b6020808252602b908201527f496e697469616c697a61626c653a20636f6e7472616374206973206e6f74206960408201526a6e697469616c697a696e6760a81b606082015260800190565b600060208284031215619dd657600080fd5b81516112e2816193cf565b604081526000619df46040830185619142565b905060018060a01b03831660208301529392505050565b600060208284031215619e1d57600080fd5b81516112e28161909d565b6001600160a01b038581168252841660208201526040810183905260806060820181905260009061846090830184619142565b600060208284031215619e6d57600080fd5b81516112e2816190eb56fea3ea4fb8dee4d414198cb197af6eae4fe483c1a0b849dc50e53b9bf1a60e2166360894a13ba1a3210667c828492db98dca3e2076cc3735a920a3ca505d382bbc416464726573733a206c6f772d6c6576656c2064656c65676174652063616c6c206661696c6564a26469706673582212204ae5adacbb726e598f0bbc98b9ac439208454dbc026f66a18d5faf68355033df64736f6c63430008110033496e697469616c697a61626c653a20636f6e7472616374206973206e6f742069",
    "linkReferences": {}
  },
  "methodIdentifiers": {
    "acceptOwnershipTransfer()": "b842e87f",
    "activeStrategies(uint256)": "b20b2429",
    "activeTokens(uint256)": "9f224f35",
    "addNewBountyPool(address,address,string,address,uint256,uint256)": "32fce602",
    "approve(address,uint256)": "095ea7b3",
    "balanceOf(address)": "70a08231",
    "billPremium(uint256)": "2dbe051e",
    "calcReferralSplit(uint256,uint256)": "928dc6a9",
    "calcRequiredPremiumBalancePerPeriod(uint256,uint256)": "836ef1fa",
    "calculateArbitraryEffectiveAPY(uint256,uint256,uint256)": "4f3214cc",
    "calculateEffectiveAPY(uint256,uint256)": "5c46f7b1",
    "claimPremium(uint256)": "f47ec3be",
    "collectAllReferralProfits()": "3e8888d9",
    "collectAllSaloonProfits(address)": "ecd7fbed",
    "collectReferralProfit(address)": "a089a520",
    "collectSaloonProfits(address,address)": "cf9564b9",
    "compoundYieldForAll()": "f68ce499",
    "compoundYieldForPid(uint256)": "e78ea3df",
    "consolidate(uint256)": "949a4a4a",
    "consolidateAll()": "75bfd63d",
    "extendReferralPeriod(uint256,uint256)": "5de406dc",
    "getAllTokensByOwner(address)": "e9fda7d4",
    "getApproved(uint256)": "081812fc",
    "getCurrentAPY(uint256)": "7fbf3853",
    "getSecondsPassed(uint256,uint256)": "0a015ab1",
    "index()": "2986c0e5",
    "initialize(address)": "c4d66de8",
    "isApprovedForAll(address,address)": "e985e9c5",
    "makeProjectDeposit(uint256,uint256,string)": "ae07f948",
    "minTokenStakeAmount(address)": "39458723",
    "name()": "06fdde03",
    "nftInfo(uint256)": "1f8bc790",
    "nftToPid(uint256)": "612afc0c",
    "owner()": "8da5cb5b",
    "ownerOf(uint256)": "6352211e",
    "payBounty(uint256,address,uint256)": "3ac6ad7b",
    "pendingPremium(uint256)": "40bd1d00",
    "pidNFTList(uint256,uint256)": "96ea48e8",
    "pidStrategies(uint256,bytes32)": "074ecf03",
    "poolInfo(uint256)": "1526fe27",
    "poolLength()": "081e3eda",
    "projectDepositWithdrawal(uint256,uint256)": "983c1ce0",
    "proxiableUUID()": "52d1902d",
    "receiveStrategyYield(address,uint256)": "1aebcecb",
    "referralBalances(address,address)": "011b408b",
    "safeTransferFrom(address,address,uint256)": "42842e0e",
    "safeTransferFrom(address,address,uint256,bytes)": "b88d4fde",
    "saloonBountyProfit(address)": "e45abd0f",
    "saloonPremiumProfit(address)": "ca006148",
    "saloonStrategyProfit(address)": "598d17bf",
    "scheduleProjectDepositWithdrawal(uint256,uint256)": "5669cbef",
    "scheduleUnstake(uint256)": "106d08df",
    "setAPYandPoolCapAndDeposit(uint256,uint256,uint16,uint256,string)": "30ca0794",
    "setApprovalForAll(address,bool)": "a22cb465",
    "stake(uint256,uint256)": "7b0472f0",
    "strategyAddressToPid(address)": "957deecc",
    "supportsInterface(bytes4)": "01ffc9a7",
    "symbol()": "95d89b41",
    "tokenURI(uint256)": "c87b56dd",
    "tokenWhitelist(address)": "753d7563",
    "transferFrom(address,address,uint256)": "23b872dd",
    "transferOwnership(address)": "f2fde38b",
    "unstake(uint256,bool)": "9ebea88c",
    "updateStrategyFactoryAddress(address)": "3538fda0",
    "updateTokenWhitelist(address,bool,uint256)": "2cb0dfcc",
    "upgradeTo(address)": "3659cfe6",
    "upgradeToAndCall(address,bytes)": "4f1ef286",
    "viewBountyBalance(uint256)": "6ac6d812",
    "viewBountyInfo(uint256)": "40ef2868",
    "viewHackerPayout(uint256)": "861e5f66",
    "viewMinProjectDeposit(uint256)": "1c6b323f",
    "viewPoolAPY(uint256)": "a27f9213",
    "viewPoolCap(uint256)": "39679ff4",
    "viewPoolPremiumInfo(uint256)": "b1a2d16f",
    "viewPoolTimelockInfo(uint256)": "ac30b856",
    "viewReferralBalance(address,address)": "0ed7610c",
    "viewSaloonProfitBalance(address)": "718c7eef",
    "viewTokenInfo(uint256)": "10725852",
    "viewTotalStaked(uint256)": "dbdd6957",
    "viewUserUnclaimed(uint256)": "19693071",
    "windDownBounty(uint256)": "bb7019c1"
  },
  "id": 43
}