{
  "abi": [
    {
      "anonymous": false,
      "inputs": [
        {
          "indexed": false,
          "internalType": "address",
          "name": "previousAdmin",
          "type": "address"
        },
        {
          "indexed": false,
          "internalType": "address",
          "name": "newAdmin",
          "type": "address"
        }
      ],
      "name": "AdminChanged",
      "type": "event"
    },
    {
      "anonymous": false,
      "inputs": [
        {
          "indexed": true,
          "internalType": "address",
          "name": "beacon",
          "type": "address"
        }
      ],
      "name": "BeaconUpgraded",
      "type": "event"
    },
    {
      "anonymous": false,
      "inputs": [
        {
          "indexed": true,
          "internalType": "uint256",
          "name": "pid",
          "type": "uint256"
        },
        {
          "indexed": true,
          "internalType": "uint256",
          "name": "oldAmount",
          "type": "uint256"
        },
        {
          "indexed": true,
          "internalType": "uint256",
          "name": "newAmount",
          "type": "uint256"
        }
      ],
      "name": "BountyBalanceChanged",
      "type": "event"
    },
    {
      "anonymous": false,
      "inputs": [
        {
          "indexed": true,
          "internalType": "uint256",
          "name": "time",
          "type": "uint256"
        },
        {
          "indexed": true,
          "internalType": "address",
          "name": "hunter",
          "type": "address"
        },
        {
          "indexed": true,
          "internalType": "address",
          "name": "token",
          "type": "address"
        },
        {
          "indexed": false,
          "internalType": "uint256",
          "name": "amount",
          "type": "uint256"
        }
      ],
      "name": "BountyPaid",
      "type": "event"
    },
    {
      "anonymous": false,
      "inputs": [
        {
          "indexed": false,
          "internalType": "uint8",
          "name": "version",
          "type": "uint8"
        }
      ],
      "name": "Initialized",
      "type": "event"
    },
    {
      "anonymous": false,
      "inputs": [
        {
          "indexed": true,
          "internalType": "uint256",
          "name": "pid",
          "type": "uint256"
        },
        {
          "indexed": true,
          "internalType": "address",
          "name": "token",
          "type": "address"
        },
        {
          "indexed": true,
          "internalType": "uint256",
          "name": "tokenDecimals",
          "type": "uint256"
        }
      ],
      "name": "NewBountyDeployed",
      "type": "event"
    },
    {
      "anonymous": false,
      "inputs": [
        {
          "indexed": true,
          "internalType": "address",
          "name": "previousOwner",
          "type": "address"
        },
        {
          "indexed": true,
          "internalType": "address",
          "name": "newOwner",
          "type": "address"
        }
      ],
      "name": "OwnershipTransferred",
      "type": "event"
    },
    {
      "anonymous": false,
      "inputs": [
        {
          "indexed": true,
          "internalType": "uint256",
          "name": "pid",
          "type": "uint256"
        },
        {
          "indexed": true,
          "internalType": "uint256",
          "name": "amount",
          "type": "uint256"
        }
      ],
      "name": "PremiumBilled",
      "type": "event"
    },
    {
      "anonymous": false,
      "inputs": [
        {
          "indexed": true,
          "internalType": "address",
          "name": "user",
          "type": "address"
        },
        {
          "indexed": true,
          "internalType": "uint256",
          "name": "pid",
          "type": "uint256"
        },
        {
          "indexed": false,
          "internalType": "uint256",
          "name": "amount",
          "type": "uint256"
        }
      ],
      "name": "Staked",
      "type": "event"
    },
    {
      "anonymous": false,
      "inputs": [
        {
          "indexed": true,
          "internalType": "address",
          "name": "user",
          "type": "address"
        },
        {
          "indexed": true,
          "internalType": "uint256",
          "name": "pid",
          "type": "uint256"
        },
        {
          "indexed": false,
          "internalType": "uint256",
          "name": "amount",
          "type": "uint256"
        }
      ],
      "name": "Unstaked",
      "type": "event"
    },
    {
      "anonymous": false,
      "inputs": [
        {
          "indexed": true,
          "internalType": "address",
          "name": "implementation",
          "type": "address"
        }
      ],
      "name": "Upgraded",
      "type": "event"
    },
    {
      "anonymous": false,
      "inputs": [
        {
          "indexed": true,
          "internalType": "uint256",
          "name": "pid",
          "type": "uint256"
        },
        {
          "indexed": true,
          "internalType": "uint256",
          "name": "amount",
          "type": "uint256"
        }
      ],
      "name": "WithdrawalOrUnstakeScheduled",
      "type": "event"
    },
    {
      "anonymous": false,
      "inputs": [
        {
          "indexed": true,
          "internalType": "address",
          "name": "token",
          "type": "address"
        },
        {
          "indexed": true,
          "internalType": "bool",
          "name": "whitelisted",
          "type": "bool"
        }
      ],
      "name": "tokenWhitelistUpdated",
      "type": "event"
    },
    {
      "inputs": [],
      "name": "acceptOwnershipTransfer",
      "outputs": [],
      "stateMutability": "nonpayable",
      "type": "function"
    },
    {
      "inputs": [
        {
          "internalType": "uint256",
          "name": "",
          "type": "uint256"
        }
      ],
      "name": "activeTokens",
      "outputs": [
        {
          "internalType": "address",
          "name": "",
          "type": "address"
        }
      ],
      "stateMutability": "view",
      "type": "function"
    },
    {
      "inputs": [
        {
          "internalType": "address",
          "name": "_token",
          "type": "address"
        },
        {
          "internalType": "address",
          "name": "_projectWallet",
          "type": "address"
        },
        {
          "internalType": "string",
          "name": "_projectName",
          "type": "string"
        }
      ],
      "name": "addNewBountyPool",
      "outputs": [
        {
          "internalType": "uint256",
          "name": "",
          "type": "uint256"
        }
      ],
      "stateMutability": "nonpayable",
      "type": "function"
    },
    {
      "inputs": [
        {
          "internalType": "uint256",
          "name": "_pid",
          "type": "uint256"
        }
      ],
      "name": "billPremium",
      "outputs": [
        {
          "internalType": "bool",
          "name": "",
          "type": "bool"
        }
      ],
      "stateMutability": "nonpayable",
      "type": "function"
    },
    {
      "inputs": [
        {
          "internalType": "uint256",
          "name": "_pid",
          "type": "uint256"
        }
      ],
      "name": "claimPremium",
      "outputs": [],
      "stateMutability": "nonpayable",
      "type": "function"
    },
    {
      "inputs": [
        {
          "internalType": "address",
          "name": "_saloonWallet",
          "type": "address"
        }
      ],
      "name": "collectAllSaloonProfits",
      "outputs": [
        {
          "internalType": "bool",
          "name": "",
          "type": "bool"
        }
      ],
      "stateMutability": "nonpayable",
      "type": "function"
    },
    {
      "inputs": [
        {
          "internalType": "address",
          "name": "_token",
          "type": "address"
        },
        {
          "internalType": "address",
          "name": "_saloonWallet",
          "type": "address"
        }
      ],
      "name": "collectSaloonProfits",
      "outputs": [
        {
          "internalType": "bool",
          "name": "",
          "type": "bool"
        }
      ],
      "stateMutability": "nonpayable",
      "type": "function"
    },
    {
      "inputs": [
        {
          "internalType": "uint256",
          "name": "_from",
          "type": "uint256"
        },
        {
          "internalType": "uint256",
          "name": "_to",
          "type": "uint256"
        }
      ],
      "name": "getMultiplier",
      "outputs": [
        {
          "internalType": "uint256",
          "name": "",
          "type": "uint256"
        }
      ],
      "stateMutability": "pure",
      "type": "function"
    },
    {
      "inputs": [],
      "name": "initialize",
      "outputs": [],
      "stateMutability": "nonpayable",
      "type": "function"
    },
    {
      "inputs": [
        {
          "internalType": "uint256",
          "name": "_pid",
          "type": "uint256"
        },
        {
          "internalType": "uint256",
          "name": "_deposit",
          "type": "uint256"
        }
      ],
      "name": "makeProjectDeposit",
      "outputs": [],
      "stateMutability": "nonpayable",
      "type": "function"
    },
    {
      "inputs": [],
      "name": "owner",
      "outputs": [
        {
          "internalType": "address",
          "name": "",
          "type": "address"
        }
      ],
      "stateMutability": "view",
      "type": "function"
    },
    {
      "inputs": [
        {
          "internalType": "uint256",
          "name": "_pid",
          "type": "uint256"
        },
        {
          "internalType": "address",
          "name": "_hunter",
          "type": "address"
        },
        {
          "internalType": "uint256",
          "name": "_amount",
          "type": "uint256"
        }
      ],
      "name": "payBounty",
      "outputs": [
        {
          "internalType": "bool",
          "name": "",
          "type": "bool"
        }
      ],
      "stateMutability": "nonpayable",
      "type": "function"
    },
    {
      "inputs": [
        {
          "internalType": "uint256",
          "name": "_pid",
          "type": "uint256"
        },
        {
          "internalType": "address",
          "name": "_user",
          "type": "address"
        }
      ],
      "name": "pendingToken",
      "outputs": [
        {
          "internalType": "uint256",
          "name": "totalPending",
          "type": "uint256"
        },
        {
          "internalType": "uint256",
          "name": "actualPending",
          "type": "uint256"
        },
        {
          "internalType": "uint256",
          "name": "newPending",
          "type": "uint256"
        }
      ],
      "stateMutability": "view",
      "type": "function"
    },
    {
      "inputs": [
        {
          "internalType": "uint256",
          "name": "",
          "type": "uint256"
        }
      ],
      "name": "poolInfo",
      "outputs": [
        {
          "internalType": "contract IERC20",
          "name": "token",
          "type": "address"
        },
        {
          "internalType": "uint8",
          "name": "tokenDecimals",
          "type": "uint8"
        },
        {
          "internalType": "uint16",
          "name": "apy",
          "type": "uint16"
        },
        {
          "internalType": "address",
          "name": "projectWallet",
          "type": "address"
        },
        {
          "internalType": "string",
          "name": "projectName",
          "type": "string"
        },
        {
          "internalType": "uint256",
          "name": "projectDeposit",
          "type": "uint256"
        },
        {
          "internalType": "uint256",
          "name": "poolCap",
          "type": "uint256"
        },
        {
          "internalType": "uint256",
          "name": "totalStaked",
          "type": "uint256"
        },
        {
          "internalType": "uint256",
          "name": "requiredPremiumBalancePerPeriod",
          "type": "uint256"
        },
        {
          "internalType": "uint256",
          "name": "premiumBalance",
          "type": "uint256"
        },
        {
          "internalType": "uint256",
          "name": "premiumAvailable",
          "type": "uint256"
        },
        {
          "components": [
            {
              "internalType": "uint256",
              "name": "timelock",
              "type": "uint256"
            },
            {
              "internalType": "uint256",
              "name": "timeLimit",
              "type": "uint256"
            },
            {
              "internalType": "uint256",
              "name": "withdrawalScheduledAmount",
              "type": "uint256"
            },
            {
              "internalType": "bool",
              "name": "withdrawalExecuted",
              "type": "bool"
            }
          ],
          "internalType": "struct ISaloon.TimelockInfo",
          "name": "poolTimelock",
          "type": "tuple"
        },
        {
          "internalType": "bool",
          "name": "isActive",
          "type": "bool"
        },
        {
          "internalType": "uint256",
          "name": "freezeTime",
          "type": "uint256"
        }
      ],
      "stateMutability": "view",
      "type": "function"
    },
    {
      "inputs": [],
      "name": "poolLength",
      "outputs": [
        {
          "internalType": "uint256",
          "name": "",
          "type": "uint256"
        }
      ],
      "stateMutability": "view",
      "type": "function"
    },
    {
      "inputs": [
        {
          "internalType": "uint256",
          "name": "_pid",
          "type": "uint256"
        },
        {
          "internalType": "uint256",
          "name": "_amount",
          "type": "uint256"
        }
      ],
      "name": "projectDepositWithdrawal",
      "outputs": [
        {
          "internalType": "bool",
          "name": "",
          "type": "bool"
        }
      ],
      "stateMutability": "nonpayable",
      "type": "function"
    },
    {
      "inputs": [],
      "name": "proxiableUUID",
      "outputs": [
        {
          "internalType": "bytes32",
          "name": "",
          "type": "bytes32"
        }
      ],
      "stateMutability": "view",
      "type": "function"
    },
    {
      "inputs": [
        {
          "internalType": "address",
          "name": "",
          "type": "address"
        }
      ],
      "name": "saloonBountyProfit",
      "outputs": [
        {
          "internalType": "uint256",
          "name": "",
          "type": "uint256"
        }
      ],
      "stateMutability": "view",
      "type": "function"
    },
    {
      "inputs": [
        {
          "internalType": "address",
          "name": "",
          "type": "address"
        }
      ],
      "name": "saloonPremiumProfit",
      "outputs": [
        {
          "internalType": "uint256",
          "name": "",
          "type": "uint256"
        }
      ],
      "stateMutability": "view",
      "type": "function"
    },
    {
      "inputs": [
        {
          "internalType": "uint256",
          "name": "_pid",
          "type": "uint256"
        },
        {
          "internalType": "uint256",
          "name": "_amount",
          "type": "uint256"
        }
      ],
      "name": "scheduleProjectDepositWithdrawal",
      "outputs": [
        {
          "internalType": "bool",
          "name": "",
          "type": "bool"
        }
      ],
      "stateMutability": "nonpayable",
      "type": "function"
    },
    {
      "inputs": [
        {
          "internalType": "uint256",
          "name": "_pid",
          "type": "uint256"
        },
        {
          "internalType": "uint256",
          "name": "_amount",
          "type": "uint256"
        }
      ],
      "name": "scheduleUnstake",
      "outputs": [
        {
          "internalType": "bool",
          "name": "",
          "type": "bool"
        }
      ],
      "stateMutability": "nonpayable",
      "type": "function"
    },
    {
      "inputs": [
        {
          "internalType": "uint256",
          "name": "_pid",
          "type": "uint256"
        },
        {
          "internalType": "uint256",
          "name": "_poolCap",
          "type": "uint256"
        },
        {
          "internalType": "uint16",
          "name": "_apy",
          "type": "uint16"
        },
        {
          "internalType": "uint256",
          "name": "_deposit",
          "type": "uint256"
        }
      ],
      "name": "setAPYandPoolCapAndDeposit",
      "outputs": [],
      "stateMutability": "nonpayable",
      "type": "function"
    },
    {
      "inputs": [
        {
          "internalType": "uint256",
          "name": "_pid",
          "type": "uint256"
        },
        {
          "internalType": "address",
          "name": "_user",
          "type": "address"
        },
        {
          "internalType": "uint256",
          "name": "_amount",
          "type": "uint256"
        }
      ],
      "name": "stake",
      "outputs": [
        {
          "internalType": "bool",
          "name": "",
          "type": "bool"
        }
      ],
      "stateMutability": "nonpayable",
      "type": "function"
    },
    {
      "inputs": [
        {
          "internalType": "address",
          "name": "",
          "type": "address"
        }
      ],
      "name": "tokenWhitelist",
      "outputs": [
        {
          "internalType": "bool",
          "name": "",
          "type": "bool"
        }
      ],
      "stateMutability": "view",
      "type": "function"
    },
    {
      "inputs": [
        {
          "internalType": "address",
          "name": "newOwner",
          "type": "address"
        }
      ],
      "name": "transferOwnership",
      "outputs": [],
      "stateMutability": "nonpayable",
      "type": "function"
    },
    {
      "inputs": [
        {
          "internalType": "uint256",
          "name": "_pid",
          "type": "uint256"
        },
        {
          "internalType": "uint256",
          "name": "_amount",
          "type": "uint256"
        },
        {
          "internalType": "bool",
          "name": "_shouldHarvest",
          "type": "bool"
        }
      ],
      "name": "unstake",
      "outputs": [
        {
          "internalType": "bool",
          "name": "",
          "type": "bool"
        }
      ],
      "stateMutability": "nonpayable",
      "type": "function"
    },
    {
      "inputs": [
        {
          "internalType": "address",
          "name": "_token",
          "type": "address"
        },
        {
          "internalType": "bool",
          "name": "_whitelisted",
          "type": "bool"
        }
      ],
      "name": "updateTokenWhitelist",
      "outputs": [
        {
          "internalType": "bool",
          "name": "",
          "type": "bool"
        }
      ],
      "stateMutability": "nonpayable",
      "type": "function"
    },
    {
      "inputs": [
        {
          "internalType": "address",
          "name": "newImplementation",
          "type": "address"
        }
      ],
      "name": "upgradeTo",
      "outputs": [],
      "stateMutability": "nonpayable",
      "type": "function"
    },
    {
      "inputs": [
        {
          "internalType": "address",
          "name": "newImplementation",
          "type": "address"
        },
        {
          "internalType": "bytes",
          "name": "data",
          "type": "bytes"
        }
      ],
      "name": "upgradeToAndCall",
      "outputs": [],
      "stateMutability": "payable",
      "type": "function"
    },
    {
      "inputs": [
        {
          "internalType": "uint256",
          "name": "",
          "type": "uint256"
        },
        {
          "internalType": "address",
          "name": "",
          "type": "address"
        }
      ],
      "name": "userInfo",
      "outputs": [
        {
          "internalType": "uint256",
          "name": "amount",
          "type": "uint256"
        },
        {
          "internalType": "uint256",
          "name": "unclaimed",
          "type": "uint256"
        },
        {
          "internalType": "uint256",
          "name": "lastRewardTime",
          "type": "uint256"
        },
        {
          "internalType": "uint256",
          "name": "timelock",
          "type": "uint256"
        },
        {
          "internalType": "uint256",
          "name": "timeLimit",
          "type": "uint256"
        },
        {
          "internalType": "uint256",
          "name": "unstakeScheduledAmount",
          "type": "uint256"
        },
        {
          "internalType": "bool",
          "name": "unstakeExecuted",
          "type": "bool"
        }
      ],
      "stateMutability": "view",
      "type": "function"
    },
    {
      "inputs": [
        {
          "internalType": "uint256",
          "name": "_pid",
          "type": "uint256"
        }
      ],
      "name": "viewBountyBalance",
      "outputs": [
        {
          "internalType": "uint256",
          "name": "",
          "type": "uint256"
        }
      ],
      "stateMutability": "view",
      "type": "function"
    },
    {
      "inputs": [
        {
          "internalType": "uint256",
          "name": "_pid",
          "type": "uint256"
        }
      ],
      "name": "viewBountyInfo",
      "outputs": [
        {
          "internalType": "uint256",
          "name": "payout",
          "type": "uint256"
        },
        {
          "internalType": "uint256",
          "name": "apy",
          "type": "uint256"
        },
        {
          "internalType": "uint256",
          "name": "staked",
          "type": "uint256"
        },
        {
          "internalType": "uint256",
          "name": "poolCap",
          "type": "uint256"
        }
      ],
      "stateMutability": "view",
      "type": "function"
    },
    {
      "inputs": [
        {
          "internalType": "uint256",
          "name": "_pid",
          "type": "uint256"
        }
      ],
      "name": "viewHackerPayout",
      "outputs": [
        {
          "internalType": "uint256",
          "name": "",
          "type": "uint256"
        }
      ],
      "stateMutability": "view",
      "type": "function"
    },
    {
      "inputs": [
        {
          "internalType": "uint256",
          "name": "_pid",
          "type": "uint256"
        }
      ],
      "name": "viewPoolAPY",
      "outputs": [
        {
          "internalType": "uint256",
          "name": "",
          "type": "uint256"
        }
      ],
      "stateMutability": "view",
      "type": "function"
    },
    {
      "inputs": [
        {
          "internalType": "uint256",
          "name": "_pid",
          "type": "uint256"
        }
      ],
      "name": "viewPoolCap",
      "outputs": [
        {
          "internalType": "uint256",
          "name": "",
          "type": "uint256"
        }
      ],
      "stateMutability": "view",
      "type": "function"
    },
    {
      "inputs": [
        {
          "internalType": "uint256",
          "name": "_pid",
          "type": "uint256"
        }
      ],
      "name": "viewPoolPremiumInfo",
      "outputs": [
        {
          "internalType": "uint256",
          "name": "requiredPremiumBalancePerPeriod",
          "type": "uint256"
        },
        {
          "internalType": "uint256",
          "name": "premiumBalance",
          "type": "uint256"
        },
        {
          "internalType": "uint256",
          "name": "premiumAvailable",
          "type": "uint256"
        }
      ],
      "stateMutability": "view",
      "type": "function"
    },
    {
      "inputs": [
        {
          "internalType": "uint256",
          "name": "_pid",
          "type": "uint256"
        }
      ],
      "name": "viewPoolTimelockInfo",
      "outputs": [
        {
          "internalType": "uint256",
          "name": "timelock",
          "type": "uint256"
        },
        {
          "internalType": "uint256",
          "name": "timeLimit",
          "type": "uint256"
        },
        {
          "internalType": "uint256",
          "name": "withdrawalScheduledAmount",
          "type": "uint256"
        }
      ],
      "stateMutability": "view",
      "type": "function"
    },
    {
      "inputs": [
        {
          "internalType": "address",
          "name": "_token",
          "type": "address"
        }
      ],
      "name": "viewSaloonProfitBalance",
      "outputs": [
        {
          "internalType": "uint256",
          "name": "totalProfit",
          "type": "uint256"
        },
        {
          "internalType": "uint256",
          "name": "bountyProfit",
          "type": "uint256"
        },
        {
          "internalType": "uint256",
          "name": "premiumProfit",
          "type": "uint256"
        }
      ],
      "stateMutability": "view",
      "type": "function"
    },
    {
      "inputs": [
        {
          "internalType": "uint256",
          "name": "_pid",
          "type": "uint256"
        }
      ],
      "name": "viewTotalStaked",
      "outputs": [
        {
          "internalType": "uint256",
          "name": "",
          "type": "uint256"
        }
      ],
      "stateMutability": "view",
      "type": "function"
    },
    {
      "inputs": [
        {
          "internalType": "uint256",
          "name": "_pid",
          "type": "uint256"
        },
        {
          "internalType": "address",
          "name": "_user",
          "type": "address"
        }
      ],
      "name": "viewUserInfo",
      "outputs": [
        {
          "internalType": "uint256",
          "name": "amount",
          "type": "uint256"
        },
        {
          "internalType": "uint256",
          "name": "actualPending",
          "type": "uint256"
        }
      ],
      "stateMutability": "view",
      "type": "function"
    },
    {
      "inputs": [
        {
          "internalType": "uint256",
          "name": "_pid",
          "type": "uint256"
        },
        {
          "internalType": "address",
          "name": "_user",
          "type": "address"
        }
      ],
      "name": "viewUserUnclaimed",
      "outputs": [
        {
          "internalType": "uint256",
          "name": "unclaimed",
          "type": "uint256"
        }
      ],
      "stateMutability": "view",
      "type": "function"
    },
    {
      "inputs": [
        {
          "internalType": "uint256",
          "name": "_pid",
          "type": "uint256"
        }
      ],
      "name": "windDownBounty",
      "outputs": [
        {
          "internalType": "bool",
          "name": "",
          "type": "bool"
        }
      ],
      "stateMutability": "nonpayable",
      "type": "function"
    }
  ],
  "bytecode": {
    "object": "0x60a06040523060805234801561001457600080fd5b50600160ca55608051614efe61005160003960008181610a3f01528181610a88015281816112e60152818161132601526113b90152614efe6000f3fe6080604052600436106102515760003560e01c80638da5cb5b11610139578063b842e87f116100b6578063dbdd69571161007a578063dbdd6957146107f9578063e45abd0f14610819578063e5e97c6514610846578063ecd7fbed14610866578063f2fde38b14610886578063f47ec3be146108a657600080fd5b8063b842e87f14610757578063bb7019c11461076c578063ca0061481461078c578063cee6b069146107b9578063cf9564b9146107d957600080fd5b80639f224f35116100fd5780639f224f35146106a2578063a27f9213146106c2578063a754ecb0146106e2578063ac30b85614610717578063b1a2d16f1461073757600080fd5b80638da5cb5b146105735780638dbb1e3a146105a557806391635b4e146105c557806393f1a40b146105e5578063983c1ce01461068257600080fd5b80635669cbef116101d2578063718c7eef11610196578063718c7eef146104ae578063753d7563146104ce57806379b91d69146104fe578063804fd5901461051e5780638129fc1c1461053e578063861e5f661461055357600080fd5b80635669cbef146103e957806357a86d3a146104095780635e3b748b146104295780636ac6d8121461046e5780636e9c931c1461048e57600080fd5b80633ac6ad7b116102195780633ac6ad7b1461032657806340ef28681461034657806348e43af4146103865780634f1ef286146103c157806352d1902d146103d457600080fd5b8063081e3eda146102565780631526fe271461027a5780632dbe051e146102b45780633659cfe6146102e457806339679ff414610306575b600080fd5b34801561026257600080fd5b5060cd545b6040519081526020015b60405180910390f35b34801561028657600080fd5b5061029a610295366004614544565b6108c6565b6040516102719e9d9c9b9a999897969594939291906145ad565b3480156102c057600080fd5b506102d46102cf366004614544565b610a1b565b6040519015158152602001610271565b3480156102f057600080fd5b506103046102ff366004614682565b610a35565b005b34801561031257600080fd5b50610267610321366004614544565b610b1d565b34801561033257600080fd5b506102d461034136600461469d565b610d3b565b34801561035257600080fd5b50610366610361366004614544565b611198565b604080519485526020850193909352918301526060820152608001610271565b34801561039257600080fd5b506103a66103a13660046146d2565b6111d1565b60408051938452602084019290925290820152606001610271565b6103046103cf36600461478a565b6112dc565b3480156103e057600080fd5b506102676113ac565b3480156103f557600080fd5b506102d46104043660046147ec565b61145f565b34801561041557600080fd5b506103046104243660046147ec565b611582565b34801561043557600080fd5b506102676104443660046146d2565b600091825260ce602090815260408084206001600160a01b03909316845291905290206001015490565b34801561047a57600080fd5b50610267610489366004614544565b61165c565b34801561049a57600080fd5b506102d46104a936600461469d565b611885565b3480156104ba57600080fd5b506103a66104c9366004614682565b611cd1565b3480156104da57600080fd5b506102d46104e9366004614682565b60cf6020526000908152604090205460ff1681565b34801561050a57600080fd5b506102d461051936600461481c565b611d07565b34801561052a57600080fd5b50610267610539366004614855565b611ffe565b34801561054a57600080fd5b50610304612343565b34801561055f57600080fd5b5061026761056e366004614544565b612453565b34801561057f57600080fd5b506033546001600160a01b03165b6040516001600160a01b039091168152602001610271565b3480156105b157600080fd5b506102676105c03660046147ec565b612698565b3480156105d157600080fd5b506102d46105e03660046147ec565b6126a4565b3480156105f157600080fd5b5061064b6106003660046146d2565b60ce6020908152600092835260408084209091529082529020805460018201546002830154600384015460048501546005860154600690960154949593949293919290919060ff1687565b604080519788526020880196909652948601939093526060850191909152608084015260a0830152151560c082015260e001610271565b34801561068e57600080fd5b506102d461069d3660046147ec565b612789565b3480156106ae57600080fd5b5061058d6106bd366004614544565b6128e0565b3480156106ce57600080fd5b506102676106dd366004614544565b61290a565b3480156106ee57600080fd5b506107026106fd3660046146d2565b612b2a565b60408051928352602083019190915201610271565b34801561072357600080fd5b506103a6610732366004614544565b612b68565b34801561074357600080fd5b506103a6610752366004614544565b612d9f565b34801561076357600080fd5b50610304612fd5565b34801561077857600080fd5b506102d4610787366004614544565b613055565b34801561079857600080fd5b506102676107a7366004614682565b60cc6020526000908152604090205481565b3480156107c557600080fd5b506103046107d43660046148c7565b6130da565b3480156107e557600080fd5b506102d46107f436600461490d565b613360565b34801561080557600080fd5b50610267610814366004614544565b6133d7565b34801561082557600080fd5b50610267610834366004614682565b60cb6020526000908152604090205481565b34801561085257600080fd5b506102d4610861366004614937565b6135f5565b34801561087257600080fd5b506102d4610881366004614682565b613822565b34801561089257600080fd5b506103046108a1366004614682565b6138e8565b3480156108b257600080fd5b506103046108c1366004614544565b613977565b60cd81815481106108d657600080fd5b60009182526020909120601090910201805460018201546002830180546001600160a01b038085169650600160a01b850460ff1695600160a81b90950461ffff169493169291906109269061496e565b80601f01602080910402602001604051908101604052809291908181526020018280546109529061496e565b801561099f5780601f106109745761010080835404028352916020019161099f565b820191906000526020600020905b81548152906001019060200180831161098257829003601f168201915b5050506003840154600485015460058601546006870154600788015460088901546040805160808101825260098c01548152600a8c01546020820152600b8c015491810191909152600c8b015460ff90811615156060830152600e8c0154600f909c01549a9b979a96995094975092959194909391909116908e565b6000610a25613995565b610a308260006139ef565b919050565b6001600160a01b037f0000000000000000000000000000000000000000000000000000000000000000163003610a865760405162461bcd60e51b8152600401610a7d906149a8565b60405180910390fd5b7f00000000000000000000000000000000000000000000000000000000000000006001600160a01b0316610acf600080516020614e82833981519152546001600160a01b031690565b6001600160a01b031614610af55760405162461bcd60e51b8152600401610a7d906149f4565b610afe81613b19565b60408051600080825260208201909252610b1a91839190613b21565b50565b60008060cd8381548110610b3357610b33614a40565b6000918252602091829020604080516101e081018252601090930290910180546001600160a01b03808216855260ff600160a01b8304169585019590955261ffff600160a81b909104169183019190915260018101549092166060820152600282018054919291608084019190610ba99061496e565b80601f0160208091040260200160405190810160405280929190818152602001828054610bd59061496e565b8015610c225780601f10610bf757610100808354040283529160200191610c22565b820191906000526020600020905b815481529060010190602001808311610c0557829003601f168201915b50505050508152602001600382015481526020016004820154815260200160058201548152602001600682015481526020016007820154815260200160088201548152602001600982016040518060800160405290816000820154815260200160018201548152602001600282015481526020016003820160009054906101000a900460ff1615151515815250508152602001600d8201805480602002602001604051908101604052809291908181526020018280548015610d0d57602002820191906000526020600020905b81546001600160a01b03168152600190910190602001808311610cef575b5050509183525050600e82015460ff1615156020820152600f9091015460409091015260c001519392505050565b6000610d45613995565b600060cd8581548110610d5a57610d5a614a40565b906000526020600020906010020190506000816005015490506000826003015482610d859190614a6c565b9050818511610f2257818503610e2757600d83015460005b81811015610e0957600085600d018281548110610dbc57610dbc614a40565b60009182526020808320909101548c835260ce825260408084206001600160a01b039092168085529190925290822090925090610dfc908c908490613c91565b6000905550600101610d9d565b50600060058501819055610e2190600d8601906143f3565b506110ce565b600082610e3c670de0b6b3a764000088614a7f565b610e469190614a96565b600d85015490915060005b81811015610f1a57600086600d018281548110610e7057610e70614a40565b60009182526020808320909101548d835260ce825260408084206001600160a01b039092168085529190925290822090925090610eb0908d908490613c91565b6000670de0b6b3a7640000868360000154610ecb9190614a7f565b610ed59190614a96565b905080826000016000828254610eeb9190614ab8565b9250508190555080896005016000828254610f069190614ab8565b909155505060019093019250610e51915050565b5050506110ce565b8185118015610f345750826003015485105b15610ff457600d83015460005b81811015610fad57600085600d018281548110610f6057610f60614a40565b60009182526020808320909101548c835260ce825260408084206001600160a01b039092168085529190925290822090925090610fa0908c908490613c91565b6000905550600101610f41565b50600060058501819055610fc590600d8601906143f3565b6000610fd18484614ab8565b905080856003016000828254610fe79190614ab8565b909155506110ce92505050565b80850361109457600d83015460005b8181101561106f57600085600d01828154811061102257611022614a40565b60009182526020808320909101548c835260ce825260408084206001600160a01b039092168085529190925290822090925090611062908c908490613c91565b6000905550600101611003565b5060006005850181905561108790600d8601906143f3565b50600060038401556110ce565b60405162461bcd60e51b815260206004820152600f60248201526e082dadeeadce840e8dede40d0d2ced608b1b6044820152606401610a7d565b60006127106110df6103e888614a7f565b6110e99190614a96565b905060006110f78288614ab8565b85546001600160a01b0316600090815260cb6020526040812080549293508492909190611125908490614a6c565b90915550508454611140906001600160a01b03168983613dc1565b5084546040518881526001600160a01b03918216918a169042907fc351e6e0f377ec1a399ec84224a83d6a4b9f3cd9a5530e5c652d0b11c2f8dae29060200160405180910390a46001955050505050505b9392505050565b6000806000806111a785612453565b93506111b2856133d7565b91506111bd8561290a565b92506111c885610b1d565b90509193509193565b60008060008060cd86815481106111ea576111ea614a40565b6000918252602080832089845260ce825260408085206001600160a01b038b168652909252908320601092909202016005810154600f8201549194509192908103611235574261123b565b83600f01545b9050600061124d846002015483612698565b855485549192506301e133809183916127109161127591600160a81b900461ffff1690614a7f565b61127f9190614a96565b6112899190614a7f565b6112939190614a96565b95508360010154866112a59190614a6c565b97506127106112b66103e882614acb565b6112c49061ffff168a614a7f565b6112ce9190614a96565b965050505050509250925092565b6001600160a01b037f00000000000000000000000000000000000000000000000000000000000000001630036113245760405162461bcd60e51b8152600401610a7d906149a8565b7f00000000000000000000000000000000000000000000000000000000000000006001600160a01b031661136d600080516020614e82833981519152546001600160a01b031690565b6001600160a01b0316146113935760405162461bcd60e51b8152600401610a7d906149f4565b61139c82613b19565b6113a882826001613b21565b5050565b6000306001600160a01b037f0000000000000000000000000000000000000000000000000000000000000000161461144c5760405162461bcd60e51b815260206004820152603860248201527f555550535570677261646561626c653a206d757374206e6f742062652063616c60448201527f6c6564207468726f7567682064656c656761746563616c6c00000000000000006064820152608401610a7d565b50600080516020614e8283398151915290565b60008060cd848154811061147557611475614a40565b9060005260206000209060100201905082816003015410156114d95760405162461bcd60e51b815260206004820152601a60248201527f416d6f756e7420626967676572207468616e206465706f7369740000000000006044820152606401610a7d565b60018101546001600160a01b031633146115055760405162461bcd60e51b8152600401610a7d90614aed565b61151262093a8042614a6c565b600982015561152462093a8042614a6c565b611531906203f480614a6c565b600a820155600b8101839055600c8101805460ff19169055604051839085907fb3b9c925de3673837b40c6b4d4463a8f88dc821cd27e07f1ff6bf6abf96413a590600090a360019150505b92915050565b600060cd838154811061159757611597614a40565b6000918252602090912060109091020160018101549091506001600160a01b031633146115d65760405162461bcd60e51b8152600401610a7d90614aed565b6000816003015482600501546115ec9190614a6c565b8254909150611606906001600160a01b0316333086613e27565b508282600301600082825461161b9190614a6c565b90915550506003820154600583015460009161163691614a6c565b9050808286600080516020614e6283398151915260405160405180910390a45050505050565b60008060cd838154811061167257611672614a40565b6000918252602091829020604080516101e081018252601090930290910180546001600160a01b03808216855260ff600160a01b8304169585019590955261ffff600160a81b9091041691830191909152600181015490921660608201526002820180549192916080840191906116e89061496e565b80601f01602080910402602001604051908101604052809291908181526020018280546117149061496e565b80156117615780601f1061173657610100808354040283529160200191611761565b820191906000526020600020905b81548152906001019060200180831161174457829003601f168201915b50505050508152602001600382015481526020016004820154815260200160058201548152602001600682015481526020016007820154815260200160088201548152602001600982016040518060800160405290816000820154815260200160018201548152602001600282015481526020016003820160009054906101000a900460ff1615151515815250508152602001600d820180548060200260200160405190810160405280929190818152602001828054801561184c57602002820191906000526020600020905b81546001600160a01b0316815260019091019060200180831161182e575b5050509183525050600e82015460ff1615156020820152600f9091015460409091015260a081015160e082015191925061119191614a6c565b600061188f613e6a565b83600060cd82815481106118a5576118a5614a40565b6000918252602091829020604080516101e081018252601090930290910180546001600160a01b03808216855260ff600160a01b8304169585019590955261ffff600160a81b90910416918301919091526001810154909216606082015260028201805491929160808401919061191b9061496e565b80601f01602080910402602001604051908101604052809291908181526020018280546119479061496e565b80156119945780601f1061196957610100808354040283529160200191611994565b820191906000526020600020905b81548152906001019060200180831161197757829003601f168201915b50505050508152602001600382015481526020016004820154815260200160058201548152602001600682015481526020016007820154815260200160088201548152602001600982016040518060800160405290816000820154815260200160018201548152602001600282015481526020016003820160009054906101000a900460ff1615151515815250508152602001600d8201805480602002602001604051908101604052809291908181526020018280548015611a7f57602002820191906000526020600020905b81546001600160a01b03168152600190910190602001808311611a61575b5050509183525050600e82015460ff1615156020820152600f909101546040909101526101a0810151909150611ae95760405162461bcd60e51b815260206004820152600f60248201526e706f6f6c206e6f742061637469766560881b6044820152606401610a7d565b60008411611af657600080fd5b600060cd8781548110611b0b57611b0b614a40565b600091825260208083208a845260ce825260408085206001600160a01b038c1686529092529083206010929092020160038101546005820154919450919291611b5391614a6c565b9050611b6189896001613c91565b8154600003611b9b57600d83018054600181018255600091825260209091200180546001600160a01b0319166001600160a01b038a161790555b8254611bb2906001600160a01b031633308a613e27565b5086826000016000828254611bc79190614a6c565b9250508190555086836005016000828254611be29190614a6c565b9091555050600483015415801590611c0257508260040154836005015411155b611c445760405162461bcd60e51b8152602060048201526013602482015272115e18d959591959081c1bdbdb081b1a5b5a5d606a1b6044820152606401610a7d565b88886001600160a01b03167f1449c6dd7851abc30abf37f57715f492010519147cc2652fbc38202c18a6ee9089604051611c8091815260200190565b60405180910390a3600083600301548460050154611c9e9190614a6c565b905080828b600080516020614e6283398151915260405160405180910390a460019650505050505050611191600160ca55565b6001600160a01b038116600090815260cb602090815260408083205460cc909252822054611cff8282614a6c565b949193509150565b6000611d11613e6a565b600060cd8581548110611d2657611d26614a40565b6000918252602080832088845260ce825260408085203386529092529220805460109092029092019250851115611d945760405162461bcd60e51b81526020600482015260126024820152711dda5d1a191c985dce881b9bdd0819dbdbd960721b6044820152606401610a7d565b428160030154108015611daa5750428160040154115b8015611dbb5750600681015460ff16155b8015611dcb575084816005015410155b8015611dda5750600381015415155b611df65760405162461bcd60e51b8152600401610a7d90614b15565b60068101805460ff1916600117905560038201546005830154600091611e1b91614a6c565b9050611e28873387613c91565b8515611e68578154611e3a9087613ec3565b82556005830154611e4b9087613ec3565b60058401558254611e66906001600160a01b03163388613dc1565b505b8154600003611f8057600d83015460005b81811015611f7d57336001600160a01b031685600d018281548110611ea057611ea0614a40565b6000918252602090912001546001600160a01b031603611f75576000600d8601611ecb600185614ab8565b81548110611edb57611edb614a40565b600091825260209091200154600d870180546001600160a01b039092169250829184908110611f0c57611f0c614a40565b9060005260206000200160006101000a8154816001600160a01b0302191690836001600160a01b0316021790555085600d01805480611f4d57611f4d614b5e565b600082815260209020810160001990810180546001600160a01b031916905501905550611f7d565b600101611e79565b50505b604051868152879033907f7fc4727e062e336010f2c282598ef5f14facb3de68cf8195c2f23e1454b2b74e9060200160405180910390a3600083600301548460050154611fcd9190614a6c565b9050808289600080516020614e6283398151915260405160405180910390a46001945050505050611191600160ca55565b6000612008613995565b6001600160a01b038416600090815260cf602052604090205460ff166120685760405162461bcd60e51b81526020600482015260156024820152741d1bdad95b881b9bdd081dda1a5d195b1a5cdd1959605a1b6044820152606401610a7d565b60408051600481526024810182526020810180516001600160e01b031663313ce56760e01b17905290516000916001600160a01b038716916120aa9190614b74565b600060405180830381855afa9150503d80600081146120e5576040519150601f19603f3d011682016040523d82523d6000602084013e6120ea565b606091505b509150506000818060200190518101906121049190614b90565b905061210e614411565b6001600160a01b03808816825260ff80841660208085019182528984166060808701918252608087018b8152600060a089018190526040808a0182815260c08b0183905260e08b018390526101608b0180518490528051909701839052865190910182905294519092018290526101a088018290526101c0880182905260cd80546001810182559252875160109092027f83978b4c69c48dd978ab43fe30f077615294f938fb7f936d9eb340e51ea7db2e810180549651955161ffff16600160a81b0261ffff60a81b1996909816600160a01b026001600160a81b0319909716938916939093179590951793909316949094178455517f83978b4c69c48dd978ab43fe30f077615294f938fb7f936d9eb340e51ea7db2f83018054919095166001600160a01b03199190911617909355915183927f83978b4c69c48dd978ab43fe30f077615294f938fb7f936d9eb340e51ea7db30019061226f9082614c01565b5060a0820151600382015560c0820151600482015560e0820151600582015561010082015160068201556101208201516007820155610140820151600882015561016082015180516009830155602080820151600a8401556040820151600b840155606090910151600c8301805460ff1916911515919091179055610180830151805161230292600d85019201906144ca565b506101a0820151600e8201805460ff19169115159190911790556101c090910151600f9091015560cd5461233890600190614ab8565b979650505050505050565b600054610100900460ff16158080156123635750600054600160ff909116105b8061237d5750303b15801561237d575060005460ff166001145b6123e05760405162461bcd60e51b815260206004820152602e60248201527f496e697469616c697a61626c653a20636f6e747261637420697320616c72656160448201526d191e481a5b9a5d1a585b1a5e995960921b6064820152608401610a7d565b6000805460ff191660011790558015612403576000805461ff0019166101001790555b61240b613ecf565b8015610b1a576000805461ff0019169055604051600181527f7f26b83ff96e1f2b6a682f133852f6798a09c465da95921460cefb38474024989060200160405180910390a150565b60008060cd838154811061246957612469614a40565b6000918252602091829020604080516101e081018252601090930290910180546001600160a01b03808216855260ff600160a01b8304169585019590955261ffff600160a81b9091041691830191909152600181015490921660608201526002820180549192916080840191906124df9061496e565b80601f016020809104026020016040519081016040528092919081815260200182805461250b9061496e565b80156125585780601f1061252d57610100808354040283529160200191612558565b820191906000526020600020905b81548152906001019060200180831161253b57829003601f168201915b50505050508152602001600382015481526020016004820154815260200160058201548152602001600682015481526020016007820154815260200160088201548152602001600982016040518060800160405290816000820154815260200160018201548152602001600282015481526020016003820160009054906101000a900460ff1615151515815250508152602001600d820180548060200260200160405190810160405280929190818152602001828054801561264357602002820191906000526020600020905b81546001600160a01b03168152600190910190602001808311612625575b5050509183525050600e82015460ff1615156020820152600f9091015460409091015260a081015160e0820151919250612710916103e89161268491614a6c565b61268e9190614a7f565b6111919190614a96565b60006111918284613ec3565b600082815260ce602090815260408083203384529091528120805483111561270e5760405162461bcd60e51b815260206004820152601a60248201527f416d6f756e7420626967676572207468616e206465706f7369740000000000006044820152606401610a7d565b61271b62093a8042614a6c565b600382015561272d62093a8042614a6c565b61273a906203f480614a6c565b60048201556005810183905560068101805460ff19169055604051839085907fb3b9c925de3673837b40c6b4d4463a8f88dc821cd27e07f1ff6bf6abf96413a590600090a35060019392505050565b60008060cd848154811061279f5761279f614a40565b6000918252602090912060109091020160018101549091506001600160a01b031633146127de5760405162461bcd60e51b8152600401610a7d90614aed565b6009810154421180156127f45750600a81015442105b80156128055750600c81015460ff16155b80156128155750600b8101548311155b80156128245750600981015415155b6128405760405162461bcd60e51b8152600401610a7d90614b15565b600c8101805460ff191660011790556003810154600582015460009161286591614a6c565b90508382600301600082825461287b9190614ab8565b90915550506001820154825461289e916001600160a01b03918216911686613dc1565b506000826003015483600501546128b59190614a6c565b9050808287600080516020614e6283398151915260405160405180910390a450600195945050505050565b60d081815481106128f057600080fd5b6000918252602090912001546001600160a01b0316905081565b60008060cd838154811061292057612920614a40565b6000918252602091829020604080516101e081018252601090930290910180546001600160a01b03808216855260ff600160a01b8304169585019590955261ffff600160a81b9091041691830191909152600181015490921660608201526002820180549192916080840191906129969061496e565b80601f01602080910402602001604051908101604052809291908181526020018280546129c29061496e565b8015612a0f5780601f106129e457610100808354040283529160200191612a0f565b820191906000526020600020905b8154815290600101906020018083116129f257829003601f168201915b50505050508152602001600382015481526020016004820154815260200160058201548152602001600682015481526020016007820154815260200160088201548152602001600982016040518060800160405290816000820154815260200160018201548152602001600282015481526020016003820160009054906101000a900460ff1615151515815250508152602001600d8201805480602002602001604051908101604052809291908181526020018280548015612afa57602002820191906000526020600020905b81546001600160a01b03168152600190910190602001808311612adc575b5050509183525050600e82015460ff1615156020820152600f90910154604091820152015161ffff169392505050565b600082815260ce602090815260408083206001600160a01b0385168452909152812080549190612b5a85856111d1565b509396939550929350505050565b60008060008060cd8581548110612b8157612b81614a40565b6000918252602091829020604080516101e081018252601090930290910180546001600160a01b03808216855260ff600160a01b8304169585019590955261ffff600160a81b909104169183019190915260018101549092166060820152600282018054919291608084019190612bf79061496e565b80601f0160208091040260200160405190810160405280929190818152602001828054612c239061496e565b8015612c705780601f10612c4557610100808354040283529160200191612c70565b820191906000526020600020905b815481529060010190602001808311612c5357829003601f168201915b50505050508152602001600382015481526020016004820154815260200160058201548152602001600682015481526020016007820154815260200160088201548152602001600982016040518060800160405290816000820154815260200160018201548152602001600282015481526020016003820160009054906101000a900460ff1615151515815250508152602001600d8201805480602002602001604051908101604052809291908181526020018280548015612d5b57602002820191906000526020600020905b81546001600160a01b03168152600190910190602001808311612d3d575b5050509183525050600e82015460ff161515602080830191909152600f90920154604091820152610160909201518051918101519201519097919650945092505050565b60008060008060cd8581548110612db857612db8614a40565b6000918252602091829020604080516101e081018252601090930290910180546001600160a01b03808216855260ff600160a01b8304169585019590955261ffff600160a81b909104169183019190915260018101549092166060820152600282018054919291608084019190612e2e9061496e565b80601f0160208091040260200160405190810160405280929190818152602001828054612e5a9061496e565b8015612ea75780601f10612e7c57610100808354040283529160200191612ea7565b820191906000526020600020905b815481529060010190602001808311612e8a57829003601f168201915b50505050508152602001600382015481526020016004820154815260200160058201548152602001600682015481526020016007820154815260200160088201548152602001600982016040518060800160405290816000820154815260200160018201548152602001600282015481526020016003820160009054906101000a900460ff1615151515815250508152602001600d8201805480602002602001604051908101604052809291908181526020018280548015612f9257602002820191906000526020600020905b81546001600160a01b03168152600190910190602001808311612f74575b5050509183525050600e82015460ff1615156020820152600f90910154604090910152610100810151610120820151610140909201519097919650945092505050565b6034546001600160a01b0316331461303e5760405162461bcd60e51b815260206004820152602660248201527f6f6e6c792070656e64696e67206f776e65722063616e2061636365707420747260448201526530b739b332b960d11b6064820152608401610a7d565b603454613053906001600160a01b0316613efe565b565b60008060cd838154811061306b5761306b614a40565b6000918252602090912060109091020160018101549091506001600160a01b03163314806130a357506033546001600160a01b031633145b6130bf5760405162461bcd60e51b8152600401610a7d90614aed565b600e8101805460ff1916905542600f90910155506001919050565b600060cd85815481106130ef576130ef614a40565b60009182526020909120601090910201600e81015490915060ff16156131575760405162461bcd60e51b815260206004820152601860248201527f506f6f6c20616c726561647920696e697469616c697a656400000000000000006044820152606401610a7d565b60008361ffff1611801561317157506127108361ffff1611155b6131b05760405162461bcd60e51b815260206004820152601060248201526f415059206f7574206f662072616e676560801b6044820152606401610a7d565b80546131c790600160a01b900460ff16600a614da5565b6131d2906064614a7f565b8410158015613204575080546131f390600160a01b900460ff16600a614da5565b6132009062989680614a7f565b8411155b6132485760405162461bcd60e51b8152602060048201526015602482015274506f6f6c20636170206f7574206f662072616e676560581b6044820152606401610a7d565b60018101546001600160a01b031633146132745760405162461bcd60e51b8152600401610a7d90614aed565b60006301e1338061271062093a8061329061ffff881689614a7f565b61329a9190614a7f565b6132a49190614a96565b6132ae9190614a96565b905060006127106132c16103e884614a7f565b6132cb9190614a96565b90506132ef33306132dc8588614a6c565b86546001600160a01b0316929190613e27565b50838360030160008282546133049190614a6c565b909155505060048301869055825461ffff60a81b1916600160a81b61ffff871602178355600e8301805460ff19166001179055600783018290556006830182905561334f8183614ab8565b836008018190555050505050505050565b600061336a613995565b6001600160a01b038316600090815260cc602090815260408083205460cb9092528220546133989190614a6c565b6001600160a01b038516600081815260cb6020908152604080832083905560cc9091528120559091506133cc908483613dc1565b506001949350505050565b60008060cd83815481106133ed576133ed614a40565b6000918252602091829020604080516101e081018252601090930290910180546001600160a01b03808216855260ff600160a01b8304169585019590955261ffff600160a81b9091041691830191909152600181015490921660608201526002820180549192916080840191906134639061496e565b80601f016020809104026020016040519081016040528092919081815260200182805461348f9061496e565b80156134dc5780601f106134b1576101008083540402835291602001916134dc565b820191906000526020600020905b8154815290600101906020018083116134bf57829003601f168201915b50505050508152602001600382015481526020016004820154815260200160058201548152602001600682015481526020016007820154815260200160088201548152602001600982016040518060800160405290816000820154815260200160018201548152602001600282015481526020016003820160009054906101000a900460ff1615151515815250508152602001600d82018054806020026020016040519081016040528092919081815260200182805480156135c757602002820191906000526020600020905b81546001600160a01b031681526001909101906020018083116135a9575b5050509183525050600e82015460ff1615156020820152600f9091015460409091015260e001519392505050565b60006135ff613995565b6001600160a01b038316600090815260cf602052604090205460ff1615158215146136645760405162461bcd60e51b81526020600482015260156024820152741dda1a5d195b1a5cdd08185b1c9958591e481cd95d605a1b6044820152606401610a7d565b6001600160a01b038316600081815260cf6020526040808220805460ff191686151590811790915590519092917f99795d51e5a8804307721456a7a9c2f0d7421f719d46a46d36e91fee7c85aa7691a3811561370a5760d080546001810182556000919091527fe89d44c8fd6a9bac8af33ce47f56337617d449bf7ff3956b618c646de829cbcb0180546001600160a01b0319166001600160a01b038516179055613819565b60d05460005b8181101561381657600060d0828154811061372d5761372d614a40565b6000918252602090912001546001600160a01b039081169150861681036138055760d061375b600185614ab8565b8154811061376b5761376b614a40565b60009182526020909120015460d080546001600160a01b03909216918490811061379757613797614a40565b9060005260206000200160006101000a8154816001600160a01b0302191690836001600160a01b0316021790555060d08054806137d6576137d6614b5e565b600082815260209020810160001990810180546001600160a01b0319169055019055506001925061157c915050565b5061380f81614db4565b9050613710565b50505b50600192915050565b600061382c613995565b60d05460005b818110156138de57600060d0828154811061384f5761384f614a40565b60009182526020808320909101546001600160a01b031680835260cc825260408084205460cb9093528320549093506138889190614a6c565b9050806000036138995750506138ce565b6001600160a01b038216600081815260cb6020908152604080832083905560cc9091528120556138ca908783613dc1565b5050505b6138d781614db4565b9050613832565b5060019392505050565b6138f0613995565b6001600160a01b0381166139555760405162461bcd60e51b815260206004820152602660248201527f4f776e61626c653a206e6577206f776e657220697320746865207a65726f206160448201526564647265737360d01b6064820152608401610a7d565b603480546001600160a01b0319166001600160a01b0392909216919091179055565b61397f613e6a565b61398b81336001613c91565b610b1a600160ca55565b6033546001600160a01b031633146130535760405162461bcd60e51b815260206004820181905260248201527f4f776e61626c653a2063616c6c6572206973206e6f7420746865206f776e65726044820152606401610a7d565b600060cd8381548110613a0457613a04614a40565b9060005260206000209060100201905060008282600701548360060154613a2b9190614ab8565b613a359190614a6c565b60018301548354919250613a57916001600160a01b0390811691163084613e27565b506000612710613a696103e884614a7f565b613a739190614a96565b905081836007016000828254613a899190614a6c565b909155505082546001600160a01b0316600090815260cc602052604081208054839290613ab7908490614a6c565b9091555060009050613ac98284614ab8565b905080846008016000828254613adf9190614a6c565b9091555050604051839087907fadb049ad2d09be3db90459a16aef1ad0a4d89e8fdcc1ade9429d6cc55abbcd2b90600090a3505050505050565b610b1a613995565b7f4910fdfa16fed3260ed0e7147f7cc6da11a60208b5b9406d12a635614ffd91435460ff1615613b5957613b5483613f5b565b505050565b826001600160a01b03166352d1902d6040518163ffffffff1660e01b8152600401602060405180830381865afa925050508015613bb3575060408051601f3d908101601f19168201909252613bb091810190614dcd565b60015b613c165760405162461bcd60e51b815260206004820152602e60248201527f45524331393637557067726164653a206e657720696d706c656d656e7461746960448201526d6f6e206973206e6f74205555505360901b6064820152608401610a7d565b600080516020614e828339815191528114613c855760405162461bcd60e51b815260206004820152602960248201527f45524331393637557067726164653a20756e737570706f727465642070726f786044820152681a58589b195555525160ba1b6064820152608401610a7d565b50613b54838383613ff7565b600060cd8481548110613ca657613ca6614a40565b6000918252602080832087845260ce825260408085206001600160a01b03891686529092529220805460109092029092019250158015613ce857506001810154155b15613cfa574260029091015550505050565b6000806000613d0988886111d1565b92509250925085613d405780846001016000828254613d289190614a6c565b90915550504260029094019390935550505050505050565b8460070154831115613d5657613d5688846139ef565b8215613db757600060018501819055426002860155600786018054859290613d7f908490614ab8565b9250508190555081856008016000828254613d9a9190614ab8565b90915550508454613db5906001600160a01b03168884613dc1565b505b5050505050505050565b6040516001600160a01b0383166024820152604481018290526000906138de90859063a9059cbb60e01b906064015b60408051601f198184030181529190526020810180516001600160e01b03166001600160e01b031990931692909217909152614022565b6040516001600160a01b03808516602483015283166044820152606481018290526000906133cc9086906323b872dd60e01b90608401613df0565b949350505050565b600260ca5403613ebc5760405162461bcd60e51b815260206004820152601f60248201527f5265656e7472616e637947756172643a207265656e7472616e742063616c6c006044820152606401610a7d565b600260ca55565b60006111918284614ab8565b600054610100900460ff16613ef65760405162461bcd60e51b8152600401610a7d90614de6565b6130536140f4565b603380546001600160a01b038381166001600160a01b03198084168217909455603480549094169093556040519116919082907f8be0079c531659141344cd1fd0a4f28419497f9722a3daafe3b4186f6b6457e090600090a35050565b6001600160a01b0381163b613fc85760405162461bcd60e51b815260206004820152602d60248201527f455243313936373a206e657720696d706c656d656e746174696f6e206973206e60448201526c1bdd08184818dbdb9d1c9858dd609a1b6064820152608401610a7d565b600080516020614e8283398151915280546001600160a01b0319166001600160a01b0392909216919091179055565b61400083614124565b60008251118061400d5750805b15613b545761401c8383614164565b50505050565b6000614077826040518060400160405280602081526020017f5361666545524332303a206c6f772d6c6576656c2063616c6c206661696c6564815250856001600160a01b03166142589092919063ffffffff16565b805190915015613b5457808060200190518101906140959190614e31565b613b545760405162461bcd60e51b815260206004820152602a60248201527f5361666545524332303a204552433230206f7065726174696f6e20646964206e6044820152691bdd081cdd58d8d9595960b21b6064820152608401610a7d565b600054610100900460ff1661411b5760405162461bcd60e51b8152600401610a7d90614de6565b61305333613efe565b61412d81613f5b565b6040516001600160a01b038216907fbc7cd75a20ee27fd9adebab32041f755214dbc6bffa90cc0225b39da2e5c2d3b90600090a250565b60606001600160a01b0383163b6141cc5760405162461bcd60e51b815260206004820152602660248201527f416464726573733a2064656c65676174652063616c6c20746f206e6f6e2d636f6044820152651b9d1c9858dd60d21b6064820152608401610a7d565b600080846001600160a01b0316846040516141e79190614b74565b600060405180830381855af49150503d8060008114614222576040519150601f19603f3d011682016040523d82523d6000602084013e614227565b606091505b509150915061424f8282604051806060016040528060278152602001614ea260279139614267565b95945050505050565b6060613e628484600085614280565b60608315614276575081611191565b6111918383614350565b6060824710156142e15760405162461bcd60e51b815260206004820152602660248201527f416464726573733a20696e73756666696369656e742062616c616e636520666f6044820152651c8818d85b1b60d21b6064820152608401610a7d565b600080866001600160a01b031685876040516142fd9190614b74565b60006040518083038185875af1925050503d806000811461433a576040519150601f19603f3d011682016040523d82523d6000602084013e61433f565b606091505b50915091506123388783838761437a565b8151156143605781518083602001fd5b8060405162461bcd60e51b8152600401610a7d9190614e4e565b606083156143e95782516000036143e2576001600160a01b0385163b6143e25760405162461bcd60e51b815260206004820152601d60248201527f416464726573733a2063616c6c20746f206e6f6e2d636f6e74726163740000006044820152606401610a7d565b5081613e62565b613e628383614350565b5080546000825590600052602060002090810190610b1a919061452f565b604051806101e0016040528060006001600160a01b03168152602001600060ff168152602001600061ffff16815260200160006001600160a01b03168152602001606081526020016000815260200160008152602001600081526020016000815260200160008152602001600081526020016144b060405180608001604052806000815260200160008152602001600081526020016000151581525090565b815260606020820181905260006040830181905291015290565b82805482825590600052602060002090810192821561451f579160200282015b8281111561451f57825182546001600160a01b0319166001600160a01b039091161782556020909201916001909101906144ea565b5061452b92915061452f565b5090565b5b8082111561452b5760008155600101614530565b60006020828403121561455657600080fd5b5035919050565b60005b83811015614578578181015183820152602001614560565b50506000910152565b6000815180845261459981602086016020860161455d565b601f01601f19169290920160200192915050565b6001600160a01b038f16815260ff8e16602082015261ffff8d1660408201526001600160a01b038c166060820152610220608082015260006145f361022083018d614581565b90508a60a08301528960c08301528860e083015287610100830152866101208301528561014083015261464d6101608301868051825260208101516020830152604081015160408301526060810151151560608301525050565b9215156101e082015261020001529c9b505050505050505050505050565b80356001600160a01b0381168114610a3057600080fd5b60006020828403121561469457600080fd5b6111918261466b565b6000806000606084860312156146b257600080fd5b833592506146c26020850161466b565b9150604084013590509250925092565b600080604083850312156146e557600080fd5b823591506146f56020840161466b565b90509250929050565b634e487b7160e01b600052604160045260246000fd5b600067ffffffffffffffff8084111561472f5761472f6146fe565b604051601f8501601f19908116603f01168101908282118183101715614757576147576146fe565b8160405280935085815286868601111561477057600080fd5b858560208301376000602087830101525050509392505050565b6000806040838503121561479d57600080fd5b6147a68361466b565b9150602083013567ffffffffffffffff8111156147c257600080fd5b8301601f810185136147d357600080fd5b6147e285823560208401614714565b9150509250929050565b600080604083850312156147ff57600080fd5b50508035926020909101359150565b8015158114610b1a57600080fd5b60008060006060848603121561483157600080fd5b8335925060208401359150604084013561484a8161480e565b809150509250925092565b60008060006060848603121561486a57600080fd5b6148738461466b565b92506148816020850161466b565b9150604084013567ffffffffffffffff81111561489d57600080fd5b8401601f810186136148ae57600080fd5b6148bd86823560208401614714565b9150509250925092565b600080600080608085870312156148dd57600080fd5b8435935060208501359250604085013561ffff811681146148fd57600080fd5b9396929550929360600135925050565b6000806040838503121561492057600080fd5b6149298361466b565b91506146f56020840161466b565b6000806040838503121561494a57600080fd5b6149538361466b565b915060208301356149638161480e565b809150509250929050565b600181811c9082168061498257607f821691505b6020821081036149a257634e487b7160e01b600052602260045260246000fd5b50919050565b6020808252602c908201527f46756e6374696f6e206d7573742062652063616c6c6564207468726f7567682060408201526b19195b1959d85d1958d85b1b60a21b606082015260800190565b6020808252602c908201527f46756e6374696f6e206d7573742062652063616c6c6564207468726f7567682060408201526b6163746976652070726f787960a01b606082015260800190565b634e487b7160e01b600052603260045260246000fd5b634e487b7160e01b600052601160045260246000fd5b8082018082111561157c5761157c614a56565b808202811582820484141761157c5761157c614a56565b600082614ab357634e487b7160e01b600052601260045260246000fd5b500490565b8181038181111561157c5761157c614a56565b61ffff828116828216039080821115614ae657614ae6614a56565b5092915050565b6020808252600e908201526d139bdd08185d5d1a1bdc9a5e995960921b604082015260600190565b60208082526029908201527f54696d656c6f636b206e6f7420736574206f72206e6f7420636f6d706c6574656040820152686420696e2074696d6560b81b606082015260800190565b634e487b7160e01b600052603160045260246000fd5b60008251614b8681846020870161455d565b9190910192915050565b600060208284031215614ba257600080fd5b815160ff8116811461119157600080fd5b601f821115613b5457600081815260208120601f850160051c81016020861015614bda5750805b601f850160051c820191505b81811015614bf957828155600101614be6565b505050505050565b815167ffffffffffffffff811115614c1b57614c1b6146fe565b614c2f81614c29845461496e565b84614bb3565b602080601f831160018114614c645760008415614c4c5750858301515b600019600386901b1c1916600185901b178555614bf9565b600085815260208120601f198616915b82811015614c9357888601518255948401946001909101908401614c74565b5085821015614cb15787850151600019600388901b60f8161c191681555b5050505050600190811b01905550565b600181815b80851115614cfc578160001904821115614ce257614ce2614a56565b80851615614cef57918102915b93841c9390800290614cc6565b509250929050565b600082614d135750600161157c565b81614d205750600061157c565b8160018114614d365760028114614d4057614d5c565b600191505061157c565b60ff841115614d5157614d51614a56565b50506001821b61157c565b5060208310610133831016604e8410600b8410161715614d7f575081810a61157c565b614d898383614cc1565b8060001904821115614d9d57614d9d614a56565b029392505050565b600061119160ff841683614d04565b600060018201614dc657614dc6614a56565b5060010190565b600060208284031215614ddf57600080fd5b5051919050565b6020808252602b908201527f496e697469616c697a61626c653a20636f6e7472616374206973206e6f74206960408201526a6e697469616c697a696e6760a81b606082015260800190565b600060208284031215614e4357600080fd5b81516111918161480e565b602081526000611191602083018461458156fea3ea4fb8dee4d414198cb197af6eae4fe483c1a0b849dc50e53b9bf1a60e2166360894a13ba1a3210667c828492db98dca3e2076cc3735a920a3ca505d382bbc416464726573733a206c6f772d6c6576656c2064656c65676174652063616c6c206661696c6564a264697066735822122087be9a668802075314909c47667abd9c9aff2dd85d6230a22454dd377f7d2b7464736f6c63430008110033",
    "linkReferences": {}
  },
  "methodIdentifiers": {
    "acceptOwnershipTransfer()": "b842e87f",
    "activeTokens(uint256)": "9f224f35",
    "addNewBountyPool(address,address,string)": "804fd590",
    "billPremium(uint256)": "2dbe051e",
    "claimPremium(uint256)": "f47ec3be",
    "collectAllSaloonProfits(address)": "ecd7fbed",
    "collectSaloonProfits(address,address)": "cf9564b9",
    "getMultiplier(uint256,uint256)": "8dbb1e3a",
    "initialize()": "8129fc1c",
    "makeProjectDeposit(uint256,uint256)": "57a86d3a",
    "owner()": "8da5cb5b",
    "payBounty(uint256,address,uint256)": "3ac6ad7b",
    "pendingToken(uint256,address)": "48e43af4",
    "poolInfo(uint256)": "1526fe27",
    "poolLength()": "081e3eda",
    "projectDepositWithdrawal(uint256,uint256)": "983c1ce0",
    "proxiableUUID()": "52d1902d",
    "saloonBountyProfit(address)": "e45abd0f",
    "saloonPremiumProfit(address)": "ca006148",
    "scheduleProjectDepositWithdrawal(uint256,uint256)": "5669cbef",
    "scheduleUnstake(uint256,uint256)": "91635b4e",
    "setAPYandPoolCapAndDeposit(uint256,uint256,uint16,uint256)": "cee6b069",
    "stake(uint256,address,uint256)": "6e9c931c",
    "tokenWhitelist(address)": "753d7563",
    "transferOwnership(address)": "f2fde38b",
    "unstake(uint256,uint256,bool)": "79b91d69",
    "updateTokenWhitelist(address,bool)": "e5e97c65",
    "upgradeTo(address)": "3659cfe6",
    "upgradeToAndCall(address,bytes)": "4f1ef286",
    "userInfo(uint256,address)": "93f1a40b",
    "viewBountyBalance(uint256)": "6ac6d812",
    "viewBountyInfo(uint256)": "40ef2868",
    "viewHackerPayout(uint256)": "861e5f66",
    "viewPoolAPY(uint256)": "a27f9213",
    "viewPoolCap(uint256)": "39679ff4",
    "viewPoolPremiumInfo(uint256)": "b1a2d16f",
    "viewPoolTimelockInfo(uint256)": "ac30b856",
    "viewSaloonProfitBalance(address)": "718c7eef",
    "viewTotalStaked(uint256)": "dbdd6957",
    "viewUserInfo(uint256,address)": "a754ecb0",
    "viewUserUnclaimed(uint256,address)": "5e3b748b",
    "windDownBounty(uint256)": "bb7019c1"
  },
  "id": 28
}