{
  "abi": [
    {
      "anonymous": false,
      "inputs": [
        {
          "indexed": false,
          "internalType": "address",
          "name": "previousAdmin",
          "type": "address"
        },
        {
          "indexed": false,
          "internalType": "address",
          "name": "newAdmin",
          "type": "address"
        }
      ],
      "name": "AdminChanged",
      "type": "event"
    },
    {
      "anonymous": false,
      "inputs": [
        {
          "indexed": true,
          "internalType": "address",
          "name": "beacon",
          "type": "address"
        }
      ],
      "name": "BeaconUpgraded",
      "type": "event"
    },
    {
      "anonymous": false,
      "inputs": [
        {
          "indexed": false,
          "internalType": "uint8",
          "name": "version",
          "type": "uint8"
        }
      ],
      "name": "Initialized",
      "type": "event"
    },
    {
      "anonymous": false,
      "inputs": [
        {
          "indexed": true,
          "internalType": "address",
          "name": "previousOwner",
          "type": "address"
        },
        {
          "indexed": true,
          "internalType": "address",
          "name": "newOwner",
          "type": "address"
        }
      ],
      "name": "OwnershipTransferred",
      "type": "event"
    },
    {
      "anonymous": false,
      "inputs": [
        {
          "indexed": true,
          "internalType": "address",
          "name": "user",
          "type": "address"
        },
        {
          "indexed": true,
          "internalType": "uint256",
          "name": "pid",
          "type": "uint256"
        },
        {
          "indexed": false,
          "internalType": "uint256",
          "name": "amount",
          "type": "uint256"
        }
      ],
      "name": "Staked",
      "type": "event"
    },
    {
      "anonymous": false,
      "inputs": [
        {
          "indexed": true,
          "internalType": "address",
          "name": "user",
          "type": "address"
        },
        {
          "indexed": true,
          "internalType": "uint256",
          "name": "pid",
          "type": "uint256"
        },
        {
          "indexed": false,
          "internalType": "uint256",
          "name": "amount",
          "type": "uint256"
        }
      ],
      "name": "Unstaked",
      "type": "event"
    },
    {
      "anonymous": false,
      "inputs": [
        {
          "indexed": true,
          "internalType": "address",
          "name": "implementation",
          "type": "address"
        }
      ],
      "name": "Upgraded",
      "type": "event"
    },
    {
      "inputs": [
        {
          "internalType": "address",
          "name": "_token",
          "type": "address"
        },
        {
          "internalType": "uint8",
          "name": "_tokenDecimals",
          "type": "uint8"
        },
        {
          "internalType": "address",
          "name": "_projectWallet",
          "type": "address"
        }
      ],
      "name": "addNewBountyPool",
      "outputs": [],
      "stateMutability": "nonpayable",
      "type": "function"
    },
    {
      "inputs": [
        {
          "internalType": "uint256",
          "name": "_pid",
          "type": "uint256"
        }
      ],
      "name": "billPremium",
      "outputs": [
        {
          "internalType": "bool",
          "name": "",
          "type": "bool"
        }
      ],
      "stateMutability": "nonpayable",
      "type": "function"
    },
    {
      "inputs": [
        {
          "internalType": "uint256",
          "name": "_pid",
          "type": "uint256"
        },
        {
          "internalType": "address",
          "name": "_user",
          "type": "address"
        }
      ],
      "name": "claimPremium",
      "outputs": [],
      "stateMutability": "nonpayable",
      "type": "function"
    },
    {
      "inputs": [
        {
          "internalType": "address",
          "name": "_token",
          "type": "address"
        },
        {
          "internalType": "address",
          "name": "_saloonWallet",
          "type": "address"
        }
      ],
      "name": "collectSaloonProfits",
      "outputs": [
        {
          "internalType": "bool",
          "name": "",
          "type": "bool"
        }
      ],
      "stateMutability": "nonpayable",
      "type": "function"
    },
    {
      "inputs": [],
      "name": "denominator",
      "outputs": [
        {
          "internalType": "uint256",
          "name": "",
          "type": "uint256"
        }
      ],
      "stateMutability": "view",
      "type": "function"
    },
    {
      "inputs": [
        {
          "internalType": "uint256",
          "name": "_from",
          "type": "uint256"
        },
        {
          "internalType": "uint256",
          "name": "_to",
          "type": "uint256"
        }
      ],
      "name": "getMultiplier",
      "outputs": [
        {
          "internalType": "uint256",
          "name": "",
          "type": "uint256"
        }
      ],
      "stateMutability": "pure",
      "type": "function"
    },
    {
      "inputs": [],
      "name": "initialize",
      "outputs": [],
      "stateMutability": "nonpayable",
      "type": "function"
    },
    {
      "inputs": [
        {
          "internalType": "uint256",
          "name": "_pid",
          "type": "uint256"
        },
        {
          "internalType": "uint256",
          "name": "_deposit",
          "type": "uint256"
        }
      ],
      "name": "makeProjectDeposit",
      "outputs": [],
      "stateMutability": "nonpayable",
      "type": "function"
    },
    {
      "inputs": [],
      "name": "owner",
      "outputs": [
        {
          "internalType": "address",
          "name": "",
          "type": "address"
        }
      ],
      "stateMutability": "view",
      "type": "function"
    },
    {
      "inputs": [
        {
          "internalType": "uint256",
          "name": "_pid",
          "type": "uint256"
        },
        {
          "internalType": "address",
          "name": "_hunter",
          "type": "address"
        },
        {
          "internalType": "uint256",
          "name": "_amount",
          "type": "uint256"
        }
      ],
      "name": "payBounty",
      "outputs": [
        {
          "internalType": "bool",
          "name": "",
          "type": "bool"
        }
      ],
      "stateMutability": "nonpayable",
      "type": "function"
    },
    {
      "inputs": [
        {
          "internalType": "uint256",
          "name": "_pid",
          "type": "uint256"
        },
        {
          "internalType": "address",
          "name": "_user",
          "type": "address"
        }
      ],
      "name": "pendingToken",
      "outputs": [
        {
          "internalType": "uint256",
          "name": "",
          "type": "uint256"
        }
      ],
      "stateMutability": "view",
      "type": "function"
    },
    {
      "inputs": [
        {
          "internalType": "uint256",
          "name": "",
          "type": "uint256"
        }
      ],
      "name": "poolInfo",
      "outputs": [
        {
          "internalType": "contract IERC20",
          "name": "token",
          "type": "address"
        },
        {
          "internalType": "uint8",
          "name": "tokenDecimals",
          "type": "uint8"
        },
        {
          "internalType": "address",
          "name": "projectWallet",
          "type": "address"
        },
        {
          "internalType": "uint256",
          "name": "projectDeposit",
          "type": "uint256"
        },
        {
          "internalType": "uint16",
          "name": "apy",
          "type": "uint16"
        },
        {
          "internalType": "uint256",
          "name": "poolCap",
          "type": "uint256"
        },
        {
          "internalType": "uint256",
          "name": "totalStaked",
          "type": "uint256"
        },
        {
          "internalType": "uint256",
          "name": "lastBilledTime",
          "type": "uint256"
        },
        {
          "internalType": "uint256",
          "name": "timelock",
          "type": "uint256"
        },
        {
          "internalType": "uint256",
          "name": "timeLimit",
          "type": "uint256"
        },
        {
          "internalType": "uint256",
          "name": "withdrawalScheduledAmount",
          "type": "uint256"
        },
        {
          "internalType": "bool",
          "name": "WithdrawalExecuted",
          "type": "bool"
        },
        {
          "internalType": "bool",
          "name": "initialized",
          "type": "bool"
        }
      ],
      "stateMutability": "view",
      "type": "function"
    },
    {
      "inputs": [],
      "name": "poolLength",
      "outputs": [
        {
          "internalType": "uint256",
          "name": "",
          "type": "uint256"
        }
      ],
      "stateMutability": "view",
      "type": "function"
    },
    {
      "inputs": [],
      "name": "premiumBalance",
      "outputs": [
        {
          "internalType": "uint256",
          "name": "",
          "type": "uint256"
        }
      ],
      "stateMutability": "view",
      "type": "function"
    },
    {
      "inputs": [
        {
          "internalType": "uint256",
          "name": "_pid",
          "type": "uint256"
        },
        {
          "internalType": "uint256",
          "name": "_amount",
          "type": "uint256"
        }
      ],
      "name": "projectDepositWithdrawal",
      "outputs": [
        {
          "internalType": "bool",
          "name": "",
          "type": "bool"
        }
      ],
      "stateMutability": "nonpayable",
      "type": "function"
    },
    {
      "inputs": [],
      "name": "proxiableUUID",
      "outputs": [
        {
          "internalType": "bytes32",
          "name": "",
          "type": "bytes32"
        }
      ],
      "stateMutability": "view",
      "type": "function"
    },
    {
      "inputs": [],
      "name": "renounceOwnership",
      "outputs": [],
      "stateMutability": "nonpayable",
      "type": "function"
    },
    {
      "inputs": [
        {
          "internalType": "address",
          "name": "",
          "type": "address"
        }
      ],
      "name": "saloonBountyProfit",
      "outputs": [
        {
          "internalType": "uint256",
          "name": "",
          "type": "uint256"
        }
      ],
      "stateMutability": "view",
      "type": "function"
    },
    {
      "inputs": [
        {
          "internalType": "address",
          "name": "",
          "type": "address"
        }
      ],
      "name": "saloonPremiumProfit",
      "outputs": [
        {
          "internalType": "uint256",
          "name": "",
          "type": "uint256"
        }
      ],
      "stateMutability": "view",
      "type": "function"
    },
    {
      "inputs": [
        {
          "internalType": "uint256",
          "name": "_pid",
          "type": "uint256"
        },
        {
          "internalType": "uint256",
          "name": "_amount",
          "type": "uint256"
        }
      ],
      "name": "scheduleProjectDepositWithdrawal",
      "outputs": [
        {
          "internalType": "bool",
          "name": "",
          "type": "bool"
        }
      ],
      "stateMutability": "nonpayable",
      "type": "function"
    },
    {
      "inputs": [
        {
          "internalType": "uint256",
          "name": "_pid",
          "type": "uint256"
        },
        {
          "internalType": "uint256",
          "name": "_amount",
          "type": "uint256"
        }
      ],
      "name": "scheduleUnstake",
      "outputs": [
        {
          "internalType": "bool",
          "name": "",
          "type": "bool"
        }
      ],
      "stateMutability": "nonpayable",
      "type": "function"
    },
    {
      "inputs": [
        {
          "internalType": "uint256",
          "name": "_pid",
          "type": "uint256"
        },
        {
          "internalType": "uint256",
          "name": "_poolCap",
          "type": "uint256"
        },
        {
          "internalType": "uint16",
          "name": "_apy",
          "type": "uint16"
        },
        {
          "internalType": "uint256",
          "name": "_deposit",
          "type": "uint256"
        }
      ],
      "name": "setAPYandPoolCapAndDeposit",
      "outputs": [],
      "stateMutability": "nonpayable",
      "type": "function"
    },
    {
      "inputs": [
        {
          "internalType": "uint256",
          "name": "_pid",
          "type": "uint256"
        },
        {
          "internalType": "address",
          "name": "_user",
          "type": "address"
        },
        {
          "internalType": "uint256",
          "name": "_amount",
          "type": "uint256"
        }
      ],
      "name": "stake",
      "outputs": [
        {
          "internalType": "bool",
          "name": "",
          "type": "bool"
        }
      ],
      "stateMutability": "nonpayable",
      "type": "function"
    },
    {
      "inputs": [
        {
          "internalType": "uint256",
          "name": "",
          "type": "uint256"
        }
      ],
      "name": "stakerList",
      "outputs": [
        {
          "internalType": "address",
          "name": "",
          "type": "address"
        }
      ],
      "stateMutability": "view",
      "type": "function"
    },
    {
      "inputs": [],
      "name": "startTime",
      "outputs": [
        {
          "internalType": "uint256",
          "name": "",
          "type": "uint256"
        }
      ],
      "stateMutability": "view",
      "type": "function"
    },
    {
      "inputs": [
        {
          "internalType": "address",
          "name": "newOwner",
          "type": "address"
        }
      ],
      "name": "transferOwnership",
      "outputs": [],
      "stateMutability": "nonpayable",
      "type": "function"
    },
    {
      "inputs": [
        {
          "internalType": "uint256",
          "name": "_pid",
          "type": "uint256"
        },
        {
          "internalType": "address",
          "name": "_user",
          "type": "address"
        },
        {
          "internalType": "uint256",
          "name": "_amount",
          "type": "uint256"
        }
      ],
      "name": "unstake",
      "outputs": [
        {
          "internalType": "bool",
          "name": "",
          "type": "bool"
        }
      ],
      "stateMutability": "nonpayable",
      "type": "function"
    },
    {
      "inputs": [
        {
          "internalType": "address",
          "name": "newImplementation",
          "type": "address"
        }
      ],
      "name": "upgradeTo",
      "outputs": [],
      "stateMutability": "nonpayable",
      "type": "function"
    },
    {
      "inputs": [
        {
          "internalType": "address",
          "name": "newImplementation",
          "type": "address"
        },
        {
          "internalType": "bytes",
          "name": "data",
          "type": "bytes"
        }
      ],
      "name": "upgradeToAndCall",
      "outputs": [],
      "stateMutability": "payable",
      "type": "function"
    },
    {
      "inputs": [
        {
          "internalType": "uint256",
          "name": "",
          "type": "uint256"
        },
        {
          "internalType": "address",
          "name": "",
          "type": "address"
        }
      ],
      "name": "userInfo",
      "outputs": [
        {
          "internalType": "uint256",
          "name": "amount",
          "type": "uint256"
        },
        {
          "internalType": "uint256",
          "name": "unclaimed",
          "type": "uint256"
        },
        {
          "internalType": "uint256",
          "name": "lastRewardTime",
          "type": "uint256"
        },
        {
          "internalType": "uint256",
          "name": "timelock",
          "type": "uint256"
        },
        {
          "internalType": "uint256",
          "name": "timeLimit",
          "type": "uint256"
        },
        {
          "internalType": "uint256",
          "name": "unstakeScheduledAmount",
          "type": "uint256"
        },
        {
          "internalType": "bool",
          "name": "UnstakeExecuted",
          "type": "bool"
        }
      ],
      "stateMutability": "view",
      "type": "function"
    },
    {
      "inputs": [
        {
          "internalType": "uint256",
          "name": "_pid",
          "type": "uint256"
        }
      ],
      "name": "viewBountyBalance",
      "outputs": [
        {
          "internalType": "uint256",
          "name": "",
          "type": "uint256"
        }
      ],
      "stateMutability": "view",
      "type": "function"
    },
    {
      "inputs": [
        {
          "internalType": "uint256",
          "name": "_pid",
          "type": "uint256"
        }
      ],
      "name": "viewPoolCap",
      "outputs": [
        {
          "internalType": "uint256",
          "name": "",
          "type": "uint256"
        }
      ],
      "stateMutability": "view",
      "type": "function"
    },
    {
      "inputs": [
        {
          "internalType": "uint256",
          "name": "_pid",
          "type": "uint256"
        }
      ],
      "name": "viewStake",
      "outputs": [
        {
          "internalType": "uint256",
          "name": "",
          "type": "uint256"
        }
      ],
      "stateMutability": "view",
      "type": "function"
    },
    {
      "inputs": [
        {
          "internalType": "uint256",
          "name": "_pid",
          "type": "uint256"
        }
      ],
      "name": "viewTotalStaked",
      "outputs": [
        {
          "internalType": "uint256",
          "name": "",
          "type": "uint256"
        }
      ],
      "stateMutability": "view",
      "type": "function"
    }
  ],
  "bytecode": {
    "object": "0x60a06040523060805268056bc75e2d6310000060ca5534801561002157600080fd5b50600160c955608051612f0861005e60003960008181610950015281816109990152818161105a0152818161109a01526113de0152612f086000f3fe6080604052600436106101f95760003560e01c80636ac6d8121161010d57806393f1a40b116100a0578063cee6b0691161006f578063cee6b0691461069b578063cf9564b9146106bb578063dbdd6957146106db578063e45abd0f146106fb578063f2fde38b1461072857600080fd5b806393f1a40b1461059b57806396ce079514610638578063983c1ce01461064e578063ca0061481461066e57600080fd5b80638129fc1c116100dc5780638129fc1c146105285780638da5cb5b1461053d5780638dbb1e3a1461055b57806391635b4e1461057b57600080fd5b80636ac6d812146104bd5780636e9c931c146104dd578063715018a6146104fd57806378e979251461051257600080fd5b8063399eadb8116101905780634f1ef2861161015f5780634f1ef2861461043557806351a7c7161461044857806352d1902d146104685780635669cbef1461047d57806357a86d3a1461049d57600080fd5b8063399eadb8146103bf5780633ac6ad7b146103df57806344ebc03d146103ff57806348e43af41461041557600080fd5b80632dbe051e116101cc5780632dbe051e14610317578063348e50c6146103475780633659cfe61461037f57806339679ff41461039f57600080fd5b8063081e3eda146101fe5780631526fe2714610222578063196ca389146102bd57806323691677146102df575b600080fd5b34801561020a57600080fd5b5060cf545b6040519081526020015b60405180910390f35b34801561022e57600080fd5b5061024261023d36600461287b565b610748565b604080516001600160a01b039e8f16815260ff909d1660208e01529c909a169b8b019b909b5260608a019790975261ffff909516608089015260a088019390935260c087019190915260e08601526101008501526101208401526101408301529115156101608201529015156101808201526101a001610219565b3480156102c957600080fd5b506102dd6102d83660046128ab565b6107db565b005b3480156102eb57600080fd5b5061020f6102fa36600461287b565b600090815260d06020908152604080832033845290915290205490565b34801561032357600080fd5b5061033761033236600461287b565b610805565b6040519015158152602001610219565b34801561035357600080fd5b5061036761036236600461287b565b61091c565b6040516001600160a01b039091168152602001610219565b34801561038b57600080fd5b506102dd61039a3660046128d7565b610946565b3480156103ab57600080fd5b5061020f6103ba36600461287b565b610a2e565b3480156103cb57600080fd5b506102dd6103da3660046128f2565b610b18565b3480156103eb57600080fd5b506103376103fa36600461293d565b610cfa565b34801561040b57600080fd5b5061020f60cd5481565b34801561042157600080fd5b5061020f6104303660046128ab565b610f37565b6102dd610443366004612988565b611050565b34801561045457600080fd5b5061033761046336600461293d565b61111c565b34801561047457600080fd5b5061020f6113d1565b34801561048957600080fd5b50610337610498366004612a4a565b611484565b3480156104a957600080fd5b506102dd6104b8366004612a4a565b611575565b3480156104c957600080fd5b5061020f6104d836600461287b565b6115ff565b3480156104e957600080fd5b506103376104f836600461293d565b6116f0565b34801561050957600080fd5b506102dd611881565b34801561051e57600080fd5b5061020f60d15481565b34801561053457600080fd5b506102dd611895565b34801561054957600080fd5b506033546001600160a01b0316610367565b34801561056757600080fd5b5061020f610576366004612a4a565b6119a5565b34801561058757600080fd5b50610337610596366004612a4a565b6119b1565b3480156105a757600080fd5b506106016105b63660046128ab565b60d06020908152600092835260408084209091529082529020805460018201546002830154600384015460048501546005860154600690960154949593949293919290919060ff1687565b604080519788526020880196909652948601939093526060850191909152608084015260a0830152151560c082015260e001610219565b34801561064457600080fd5b5061020f60ca5481565b34801561065a57600080fd5b50610337610669366004612a4a565b611a66565b34801561067a57600080fd5b5061020f6106893660046128d7565b60cc6020526000908152604090205481565b3480156106a757600080fd5b506102dd6106b6366004612a6c565b611b71565b3480156106c757600080fd5b506103376106d6366004612ab2565b611d65565b3480156106e757600080fd5b5061020f6106f636600461287b565b611dd1565b34801561070757600080fd5b5061020f6107163660046128d7565b60cb6020526000908152604090205481565b34801561073457600080fd5b506102dd6107433660046128d7565b611ebb565b60cf818154811061075857600080fd5b60009182526020909120600b9091020180546001820154600283015460038401546004850154600586015460068701546007880154600889015460098a0154600a909a01546001600160a01b03808b169c5060ff600160a01b909b048b169b991699979861ffff909716979596949593949293919291818116916101009004168d565b6107e3611f31565b6107eb611f8a565b6107f782826001611fe4565b610801600160c955565b5050565b600061080f611f8a565b600060cf838154811061082457610824612adc565b6000918252602082206003600b9092020190810154600482015491935061ffff16916301e1338061271062093a8061085c8686612b08565b6108669190612b08565b6108709190612b27565b61087a9190612b27565b6001850154855491925061089c916001600160a01b03908116911630846120da565b5060006127106108ae6103e884612b08565b6108b89190612b27565b85546001600160a01b0316600090815260cc60205260408120805492935083929091906108e6908490612b49565b925050819055508160cd60008282546108ff9190612b49565b90915550504260069095019490945550600193505050505b919050565b60ce818154811061092c57600080fd5b6000918252602090912001546001600160a01b0316905081565b6001600160a01b037f00000000000000000000000000000000000000000000000000000000000000001630036109975760405162461bcd60e51b815260040161098e90612b61565b60405180910390fd5b7f00000000000000000000000000000000000000000000000000000000000000006001600160a01b03166109e0600080516020612e8c833981519152546001600160a01b031690565b6001600160a01b031614610a065760405162461bcd60e51b815260040161098e90612bad565b610a0f81612150565b60408051600080825260208201909252610a2b91839190612158565b50565b60008060cf8381548110610a4457610a44612adc565b6000918252602091829020604080516101a081018252600b90930290910180546001600160a01b03808216855260ff600160a01b90920482169585019590955260018201549094169183019190915260028101546060830152600381015461ffff166080830152600481015460a08301819052600582015460c0840152600682015460e084015260078201546101008085019190915260088301546101208501526009830154610140850152600a909201548085161515610160850152919091049092161515610180909101529392505050565b610b20611f8a565b60cf604051806101a00160405280856001600160a01b031681526020018460ff168152602001836001600160a01b0316815260200160008152602001600061ffff1681526020016000815260200160008152602001600081526020016000815260200160008152602001600081526020016000151581526020016000151581525090806001815401808255809150506001900390600052602060002090600b020160009091909190915060008201518160000160006101000a8154816001600160a01b0302191690836001600160a01b0316021790555060208201518160000160146101000a81548160ff021916908360ff16021790555060408201518160010160006101000a8154816001600160a01b0302191690836001600160a01b031602179055506060820151816002015560808201518160030160006101000a81548161ffff021916908361ffff16021790555060a0820151816004015560c0820151816005015560e0820151816006015561010082015181600701556101208201518160080155610140820151816009015561016082015181600a0160006101000a81548160ff02191690831515021790555061018082015181600a0160016101000a81548160ff0219169083151502179055505050505050565b6000610d04611f8a565b600060cf8581548110610d1957610d19612adc565b90600052602060002090600b020190506000816005015490506000826002015482610d449190612b49565b9050600081861015610da85781610d5d61271088612b08565b610d679190612b27565b905061271061ffff16818560020154610d809190612b08565b610d8a9190612b27565b846002016000828254610d9d9190612bf9565b90915550610df99050565b818603610dbf575060006002840155612710610df9565b60405162461bcd60e51b815260206004820152600f60248201526e082dadeeadce840e8dede40d0d2ced608b1b604482015260640161098e565b60ce5460005b81811015610e9d57600060ce8281548110610e1c57610e1c612adc565b60009182526020808320909101548d835260d0825260408084206001600160a01b039092168085529190925290822090925090610e5c908d908490611fe4565b805461271090610e6d908790612b08565b610e779190612b27565b816000016000828254610e8a9190612bf9565b909155505060019092019150610dff9050565b50828703610eb157610eb160ce6000612849565b6000612710610ec26103e88a612b08565b610ecc9190612b27565b90506000610eda828a612bf9565b87546001600160a01b0316600090815260cb6020526040812080549293508492909190610f08908490612b49565b90915550508654610f23906001600160a01b03168b836122c8565b5060019750505050505050505b9392505050565b60008060cf8481548110610f4d57610f4d612adc565b6000918252602080832087845260d0825260408085206001600160a01b0389168652909252908320600b92909202016005810154600283015491945091929042118015610f9957508115155b15611044576000610fae8460020154426119a5565b600386015460ca5486549293506000926301e13380926127109261ffff90911691610fd99190612b08565b610fe39190612b08565b610fed9190612b27565b610ff79190612b27565b60ca5490915060009061100a8484612305565b6110149190612b27565b905060006127106110276103e884612b08565b6110319190612b27565b905061103d8183612bf9565b9450505050505b93505050505b92915050565b6001600160a01b037f00000000000000000000000000000000000000000000000000000000000000001630036110985760405162461bcd60e51b815260040161098e90612b61565b7f00000000000000000000000000000000000000000000000000000000000000006001600160a01b03166110e1600080516020612e8c833981519152546001600160a01b031690565b6001600160a01b0316146111075760405162461bcd60e51b815260040161098e90612bad565b61111082612150565b61080182826001612158565b6000611126611f31565b61112e611f8a565b600060cf858154811061114357611143612adc565b6000918252602080832088845260d0825260408085206001600160a01b038a16865290925292208054600b90920290920192508411156111ba5760405162461bcd60e51b81526020600482015260126024820152711dda5d1a191c985dce881b9bdd0819dbdbd960721b604482015260640161098e565b4281600301541080156111d05750428160040154115b80156111e15750600681015460ff16155b80156111f1575083816005015410155b80156112005750600381015415155b61121c5760405162461bcd60e51b815260040161098e90612c10565b60068101805460ff1916600190811790915561123b9087908790611fe4565b831561127b57805461124d9085612311565b8155600582015461125e9085612311565b60058301558154611279906001600160a01b031686866122c8565b505b80546000036113895760ce5460005b8181101561138657866001600160a01b031660ce82815481106112af576112af612adc565b6000918252602090912001546001600160a01b03160361137e57600060ce6112d8600185612bf9565b815481106112e8576112e8612adc565b60009182526020909120015460ce80546001600160a01b03909216925082918490811061131757611317612adc565b9060005260206000200160006101000a8154816001600160a01b0302191690836001600160a01b0316021790555060ce80548061135657611356612c59565b600082815260209020810160001990810180546001600160a01b031916905501905550611386565b60010161128a565b50505b604051848152869033907f7fc4727e062e336010f2c282598ef5f14facb3de68cf8195c2f23e1454b2b74e906020015b60405180910390a3600192505050610f30600160c955565b6000306001600160a01b037f000000000000000000000000000000000000000000000000000000000000000016146114715760405162461bcd60e51b815260206004820152603860248201527f555550535570677261646561626c653a206d757374206e6f742062652063616c60448201527f6c6564207468726f7567682064656c656761746563616c6c0000000000000000606482015260840161098e565b50600080516020612e8c83398151915290565b60008060cf848154811061149a5761149a612adc565b90600052602060002090600b0201905082816002015410156114fe5760405162461bcd60e51b815260206004820152601a60248201527f416d6f756e7420626967676572207468616e206465706f736974000000000000604482015260640161098e565b60018101546001600160a01b0316331461152a5760405162461bcd60e51b815260040161098e90612c6f565b61153762093a8042612b49565b600782015561154962093a8042612b49565b611556906203f480612b49565b6008820155600981019290925550600a01805460ff1916905550600190565b600060cf838154811061158a5761158a612adc565b60009182526020909120600b9091020160018101549091506001600160a01b031633146115c95760405162461bcd60e51b815260040161098e90612c6f565b80546115e0906001600160a01b03163330856120da565b50818160020160008282546115f59190612b49565b9091555050505050565b60008060cf838154811061161557611615612adc565b6000918252602091829020604080516101a081018252600b90930290910180546001600160a01b03808216855260ff600160a01b909204821695850195909552600182015490941691830191909152600281015460608301819052600382015461ffff166080840152600482015460a0840152600582015460c08401819052600683015460e085015260078301546101008086019190915260088401546101208601526009840154610140860152600a909301548086161515610160860152929092049093161515610180830152909250610f309190612b49565b60006116fa611f31565b611702611f8a565b6000821161170f57600080fd5b600060cf858154811061172457611724612adc565b6000918252602080832088845260d0825260408085206001600160a01b038a1686529092529220600b909102909101915061176186866001611fe4565b80546000036117b65760ce80546001810182556000919091527fd36cd1c74ef8d7326d8021b776c18fb5a5724b7f7bc93c2f42e43e10ef27d12a0180546001600160a01b0319166001600160a01b0387161790555b81546117cd906001600160a01b03168630876120da565b5080546117da908561231d565b815560058201546117eb908561231d565b600583015560048201541580159061180b57508160040154826005015411155b61184d5760405162461bcd60e51b8152602060048201526013602482015272115e18d959591959081c1bdbdb081b1a5b5a5d606a1b604482015260640161098e565b604051848152869033907f1449c6dd7851abc30abf37f57715f492010519147cc2652fbc38202c18a6ee90906020016113b9565b611889611f8a565b6118936000612329565b565b600054610100900460ff16158080156118b55750600054600160ff909116105b806118cf5750303b1580156118cf575060005460ff166001145b6119325760405162461bcd60e51b815260206004820152602e60248201527f496e697469616c697a61626c653a20636f6e747261637420697320616c72656160448201526d191e481a5b9a5d1a585b1a5e995960921b606482015260840161098e565b6000805460ff191660011790558015611955576000805461ff0019166101001790555b61195d61237b565b8015610a2b576000805461ff0019169055604051600181527f7f26b83ff96e1f2b6a682f133852f6798a09c465da95921460cefb38474024989060200160405180910390a150565b6000610f308284612311565b600082815260d06020908152604080832033845290915281208054831115611a1b5760405162461bcd60e51b815260206004820152601a60248201527f416d6f756e7420626967676572207468616e206465706f736974000000000000604482015260640161098e565b611a2862093a8042612b49565b6003820155611a3a62093a8042612b49565b611a47906203f480612b49565b6004820155600581019290925550600601805460ff1916905550600190565b60008060cf8481548110611a7c57611a7c612adc565b60009182526020909120600b9091020160018101549091506001600160a01b03163314611abb5760405162461bcd60e51b815260040161098e90612c6f565b428160070154108015611ad15750428160080154115b8015611ae25750600a81015460ff16155b8015611af2575082816009015410155b8015611b015750600781015415155b611b1d5760405162461bcd60e51b815260040161098e90612c10565b600a8101805460ff19166001179055600281018054849190600090611b43908490612bf9565b909155505060018101548154611b66916001600160a01b039182169116856122c8565b506001949350505050565b600060cf8581548110611b8657611b86612adc565b90600052602060002090600b0201905080600a0160019054906101000a900460ff1615611bf55760405162461bcd60e51b815260206004820152601860248201527f506f6f6c20616c726561647920696e697469616c697a65640000000000000000604482015260640161098e565b60008361ffff16118015611c0f57506127108361ffff1611155b611c4e5760405162461bcd60e51b815260206004820152601060248201526f415059206f7574206f662072616e676560801b604482015260640161098e565b8054611c6590600160a01b900460ff16600a612d7b565b611c70906064612b08565b84118015611ca157508054611c9090600160a01b900460ff16600a612d7b565b611c9d9062989680612b08565b8411155b611ce55760405162461bcd60e51b8152602060048201526015602482015274506f6f6c20636170206f7574206f662072616e676560581b604482015260640161098e565b60018101546001600160a01b03163314611d115760405162461bcd60e51b815260040161098e90612c6f565b8054611d28906001600160a01b03163330856120da565b506002810191909155600481019290925560038201805461ffff90921661ffff19909216919091179055600a01805461ff00191661010017905550565b6000611d6f611f8a565b6001600160a01b038316600090815260cc602090815260408083205460cb909252822054611d9d9190612b49565b6001600160a01b038516600081815260cb6020908152604080832083905560cc909152812055909150611b669084836122c8565b60008060cf8381548110611de757611de7612adc565b6000918252602091829020604080516101a081018252600b90930290910180546001600160a01b03808216855260ff600160a01b90920482169585019590955260018201549094169183019190915260028101546060830152600381015461ffff166080830152600481015460a0830152600581015460c08301819052600682015460e084015260078201546101008085019190915260088301546101208501526009830154610140850152600a909201548085161515610160850152919091049092161515610180909101529392505050565b611ec3611f8a565b6001600160a01b038116611f285760405162461bcd60e51b815260206004820152602660248201527f4f776e61626c653a206e6577206f776e657220697320746865207a65726f206160448201526564647265737360d01b606482015260840161098e565b610a2b81612329565b600260c95403611f835760405162461bcd60e51b815260206004820152601f60248201527f5265656e7472616e637947756172643a207265656e7472616e742063616c6c00604482015260640161098e565b600260c955565b6033546001600160a01b031633146118935760405162461bcd60e51b815260206004820181905260248201527f4f776e61626c653a2063616c6c6572206973206e6f7420746865206f776e6572604482015260640161098e565b600060cf8481548110611ff957611ff9612adc565b6000918252602080832087845260d0825260408085206001600160a01b03891686529092529083208054600b90930290910193509103612040574260029091015550505050565b600061204c8686610f37565b905060cd548111156120635761206186610805565b505b83612092578082600101600082825461207c9190612b49565b9091555050426002909201919091555050505050565b60008260010154826120a49190612b49565b905080156120cb5783546120c2906001600160a01b031687836122c8565b50600060018401555b50504260029091015550505050565b6040516001600160a01b0380851660248301528316604482015260648101829052600090611b669086906323b872dd60e01b906084015b60408051601f198184030181529190526020810180516001600160e01b03166001600160e01b0319909316929092179091526123aa565b949350505050565b610a2b611f8a565b7f4910fdfa16fed3260ed0e7147f7cc6da11a60208b5b9406d12a635614ffd91435460ff16156121905761218b8361247c565b505050565b826001600160a01b03166352d1902d6040518163ffffffff1660e01b8152600401602060405180830381865afa9250505080156121ea575060408051601f3d908101601f191682019092526121e791810190612d8a565b60015b61224d5760405162461bcd60e51b815260206004820152602e60248201527f45524331393637557067726164653a206e657720696d706c656d656e7461746960448201526d6f6e206973206e6f74205555505360901b606482015260840161098e565b600080516020612e8c83398151915281146122bc5760405162461bcd60e51b815260206004820152602960248201527f45524331393637557067726164653a20756e737570706f727465642070726f786044820152681a58589b195555525160ba1b606482015260840161098e565b5061218b838383612518565b6040516001600160a01b0383166024820152604481018290526000906122fb90859063a9059cbb60e01b90606401612111565b5060019392505050565b6000610f308284612b08565b6000610f308284612bf9565b6000610f308284612b49565b603380546001600160a01b038381166001600160a01b0319831681179093556040519116919082907f8be0079c531659141344cd1fd0a4f28419497f9722a3daafe3b4186f6b6457e090600090a35050565b600054610100900460ff166123a25760405162461bcd60e51b815260040161098e90612da3565b611893612543565b60006123ff826040518060400160405280602081526020017f5361666545524332303a206c6f772d6c6576656c2063616c6c206661696c6564815250856001600160a01b03166125739092919063ffffffff16565b80519091501561218b578080602001905181019061241d9190612dee565b61218b5760405162461bcd60e51b815260206004820152602a60248201527f5361666545524332303a204552433230206f7065726174696f6e20646964206e6044820152691bdd081cdd58d8d9595960b21b606482015260840161098e565b6001600160a01b0381163b6124e95760405162461bcd60e51b815260206004820152602d60248201527f455243313936373a206e657720696d706c656d656e746174696f6e206973206e60448201526c1bdd08184818dbdb9d1c9858dd609a1b606482015260840161098e565b600080516020612e8c83398151915280546001600160a01b0319166001600160a01b0392909216919091179055565b61252183612582565b60008251118061252e5750805b1561218b5761253d83836125c2565b50505050565b600054610100900460ff1661256a5760405162461bcd60e51b815260040161098e90612da3565b61189333612329565b606061214884846000856126b6565b61258b8161247c565b6040516001600160a01b038216907fbc7cd75a20ee27fd9adebab32041f755214dbc6bffa90cc0225b39da2e5c2d3b90600090a250565b60606001600160a01b0383163b61262a5760405162461bcd60e51b815260206004820152602660248201527f416464726573733a2064656c65676174652063616c6c20746f206e6f6e2d636f6044820152651b9d1c9858dd60d21b606482015260840161098e565b600080846001600160a01b0316846040516126459190612e3c565b600060405180830381855af49150503d8060008114612680576040519150601f19603f3d011682016040523d82523d6000602084013e612685565b606091505b50915091506126ad8282604051806060016040528060278152602001612eac60279139612791565b95945050505050565b6060824710156127175760405162461bcd60e51b815260206004820152602660248201527f416464726573733a20696e73756666696369656e742062616c616e636520666f6044820152651c8818d85b1b60d21b606482015260840161098e565b600080866001600160a01b031685876040516127339190612e3c565b60006040518083038185875af1925050503d8060008114612770576040519150601f19603f3d011682016040523d82523d6000602084013e612775565b606091505b5091509150612786878383876127aa565b979650505050505050565b606083156127a0575081610f30565b610f30838361281f565b60608315612819578251600003612812576001600160a01b0385163b6128125760405162461bcd60e51b815260206004820152601d60248201527f416464726573733a2063616c6c20746f206e6f6e2d636f6e7472616374000000604482015260640161098e565b5081612148565b61214883835b81511561282f5781518083602001fd5b8060405162461bcd60e51b815260040161098e9190612e58565b5080546000825590600052602060002090810190610a2b91905b808211156128775760008155600101612863565b5090565b60006020828403121561288d57600080fd5b5035919050565b80356001600160a01b038116811461091757600080fd5b600080604083850312156128be57600080fd5b823591506128ce60208401612894565b90509250929050565b6000602082840312156128e957600080fd5b610f3082612894565b60008060006060848603121561290757600080fd5b61291084612894565b9250602084013560ff8116811461292657600080fd5b915061293460408501612894565b90509250925092565b60008060006060848603121561295257600080fd5b8335925061296260208501612894565b9150604084013590509250925092565b634e487b7160e01b600052604160045260246000fd5b6000806040838503121561299b57600080fd5b6129a483612894565b9150602083013567ffffffffffffffff808211156129c157600080fd5b818501915085601f8301126129d557600080fd5b8135818111156129e7576129e7612972565b604051601f8201601f19908116603f01168101908382118183101715612a0f57612a0f612972565b81604052828152886020848701011115612a2857600080fd5b8260208601602083013760006020848301015280955050505050509250929050565b60008060408385031215612a5d57600080fd5b50508035926020909101359150565b60008060008060808587031215612a8257600080fd5b8435935060208501359250604085013561ffff81168114612aa257600080fd5b9396929550929360600135925050565b60008060408385031215612ac557600080fd5b612ace83612894565b91506128ce60208401612894565b634e487b7160e01b600052603260045260246000fd5b634e487b7160e01b600052601160045260246000fd5b6000816000190483118215151615612b2257612b22612af2565b500290565b600082612b4457634e487b7160e01b600052601260045260246000fd5b500490565b60008219821115612b5c57612b5c612af2565b500190565b6020808252602c908201527f46756e6374696f6e206d7573742062652063616c6c6564207468726f7567682060408201526b19195b1959d85d1958d85b1b60a21b606082015260800190565b6020808252602c908201527f46756e6374696f6e206d7573742062652063616c6c6564207468726f7567682060408201526b6163746976652070726f787960a01b606082015260800190565b600082821015612c0b57612c0b612af2565b500390565b60208082526029908201527f54696d656c6f636b206e6f7420736574206f72206e6f7420636f6d706c6574656040820152686420696e2074696d6560b81b606082015260800190565b634e487b7160e01b600052603160045260246000fd5b6020808252600e908201526d139bdd08185d5d1a1bdc9a5e995960921b604082015260600190565b600181815b80851115612cd2578160001904821115612cb857612cb8612af2565b80851615612cc557918102915b93841c9390800290612c9c565b509250929050565b600082612ce95750600161104a565b81612cf65750600061104a565b8160018114612d0c5760028114612d1657612d32565b600191505061104a565b60ff841115612d2757612d27612af2565b50506001821b61104a565b5060208310610133831016604e8410600b8410161715612d55575081810a61104a565b612d5f8383612c97565b8060001904821115612d7357612d73612af2565b029392505050565b6000610f3060ff841683612cda565b600060208284031215612d9c57600080fd5b5051919050565b6020808252602b908201527f496e697469616c697a61626c653a20636f6e7472616374206973206e6f74206960408201526a6e697469616c697a696e6760a81b606082015260800190565b600060208284031215612e0057600080fd5b81518015158114610f3057600080fd5b60005b83811015612e2b578181015183820152602001612e13565b8381111561253d5750506000910152565b60008251612e4e818460208701612e10565b9190910192915050565b6020815260008251806020840152612e77816040850160208701612e10565b601f01601f1916919091016040019291505056fe360894a13ba1a3210667c828492db98dca3e2076cc3735a920a3ca505d382bbc416464726573733a206c6f772d6c6576656c2064656c65676174652063616c6c206661696c6564a264697066735822122003be3cb17704e0847830fe17d24cd6af9682d0449845dbcb026cdd60fc46c1a164736f6c634300080d0033",
    "linkReferences": {}
  },
  "methodIdentifiers": {
    "addNewBountyPool(address,uint8,address)": "399eadb8",
    "billPremium(uint256)": "2dbe051e",
    "claimPremium(uint256,address)": "196ca389",
    "collectSaloonProfits(address,address)": "cf9564b9",
    "denominator()": "96ce0795",
    "getMultiplier(uint256,uint256)": "8dbb1e3a",
    "initialize()": "8129fc1c",
    "makeProjectDeposit(uint256,uint256)": "57a86d3a",
    "owner()": "8da5cb5b",
    "payBounty(uint256,address,uint256)": "3ac6ad7b",
    "pendingToken(uint256,address)": "48e43af4",
    "poolInfo(uint256)": "1526fe27",
    "poolLength()": "081e3eda",
    "premiumBalance()": "44ebc03d",
    "projectDepositWithdrawal(uint256,uint256)": "983c1ce0",
    "proxiableUUID()": "52d1902d",
    "renounceOwnership()": "715018a6",
    "saloonBountyProfit(address)": "e45abd0f",
    "saloonPremiumProfit(address)": "ca006148",
    "scheduleProjectDepositWithdrawal(uint256,uint256)": "5669cbef",
    "scheduleUnstake(uint256,uint256)": "91635b4e",
    "setAPYandPoolCapAndDeposit(uint256,uint256,uint16,uint256)": "cee6b069",
    "stake(uint256,address,uint256)": "6e9c931c",
    "stakerList(uint256)": "348e50c6",
    "startTime()": "78e97925",
    "transferOwnership(address)": "f2fde38b",
    "unstake(uint256,address,uint256)": "51a7c716",
    "upgradeTo(address)": "3659cfe6",
    "upgradeToAndCall(address,bytes)": "4f1ef286",
    "userInfo(uint256,address)": "93f1a40b",
    "viewBountyBalance(uint256)": "6ac6d812",
    "viewPoolCap(uint256)": "39679ff4",
    "viewStake(uint256)": "23691677",
    "viewTotalStaked(uint256)": "dbdd6957"
  },
  "id": 26
}