{
  "abi": [
    {
      "anonymous": false,
      "inputs": [
        {
          "indexed": false,
          "internalType": "address",
          "name": "previousAdmin",
          "type": "address"
        },
        {
          "indexed": false,
          "internalType": "address",
          "name": "newAdmin",
          "type": "address"
        }
      ],
      "name": "AdminChanged",
      "type": "event"
    },
    {
      "anonymous": false,
      "inputs": [
        {
          "indexed": true,
          "internalType": "address",
          "name": "beacon",
          "type": "address"
        }
      ],
      "name": "BeaconUpgraded",
      "type": "event"
    },
    {
      "anonymous": false,
      "inputs": [
        {
          "indexed": false,
          "internalType": "uint8",
          "name": "version",
          "type": "uint8"
        }
      ],
      "name": "Initialized",
      "type": "event"
    },
    {
      "anonymous": false,
      "inputs": [
        {
          "indexed": true,
          "internalType": "address",
          "name": "previousOwner",
          "type": "address"
        },
        {
          "indexed": true,
          "internalType": "address",
          "name": "newOwner",
          "type": "address"
        }
      ],
      "name": "OwnershipTransferred",
      "type": "event"
    },
    {
      "anonymous": false,
      "inputs": [
        {
          "indexed": true,
          "internalType": "address",
          "name": "user",
          "type": "address"
        },
        {
          "indexed": true,
          "internalType": "uint256",
          "name": "pid",
          "type": "uint256"
        },
        {
          "indexed": false,
          "internalType": "uint256",
          "name": "amount",
          "type": "uint256"
        }
      ],
      "name": "Staked",
      "type": "event"
    },
    {
      "anonymous": false,
      "inputs": [
        {
          "indexed": true,
          "internalType": "address",
          "name": "user",
          "type": "address"
        },
        {
          "indexed": true,
          "internalType": "uint256",
          "name": "pid",
          "type": "uint256"
        },
        {
          "indexed": false,
          "internalType": "uint256",
          "name": "amount",
          "type": "uint256"
        }
      ],
      "name": "Unstaked",
      "type": "event"
    },
    {
      "anonymous": false,
      "inputs": [
        {
          "indexed": true,
          "internalType": "address",
          "name": "implementation",
          "type": "address"
        }
      ],
      "name": "Upgraded",
      "type": "event"
    },
    {
      "inputs": [
        {
          "internalType": "address",
          "name": "_token",
          "type": "address"
        },
        {
          "internalType": "uint8",
          "name": "_tokenDecimals",
          "type": "uint8"
        },
        {
          "internalType": "address",
          "name": "_projectWallet",
          "type": "address"
        }
      ],
      "name": "addNewBountyPool",
      "outputs": [
        {
          "internalType": "uint256",
          "name": "",
          "type": "uint256"
        }
      ],
      "stateMutability": "nonpayable",
      "type": "function"
    },
    {
      "inputs": [
        {
          "internalType": "uint256",
          "name": "_pid",
          "type": "uint256"
        }
      ],
      "name": "billPremium",
      "outputs": [
        {
          "internalType": "bool",
          "name": "",
          "type": "bool"
        }
      ],
      "stateMutability": "nonpayable",
      "type": "function"
    },
    {
      "inputs": [
        {
          "internalType": "uint256",
          "name": "_pid",
          "type": "uint256"
        }
      ],
      "name": "claimPremium",
      "outputs": [],
      "stateMutability": "nonpayable",
      "type": "function"
    },
    {
      "inputs": [
        {
          "internalType": "address",
          "name": "_token",
          "type": "address"
        },
        {
          "internalType": "address",
          "name": "_saloonWallet",
          "type": "address"
        }
      ],
      "name": "collectSaloonProfits",
      "outputs": [
        {
          "internalType": "bool",
          "name": "",
          "type": "bool"
        }
      ],
      "stateMutability": "nonpayable",
      "type": "function"
    },
    {
      "inputs": [
        {
          "internalType": "uint256",
          "name": "_from",
          "type": "uint256"
        },
        {
          "internalType": "uint256",
          "name": "_to",
          "type": "uint256"
        }
      ],
      "name": "getMultiplier",
      "outputs": [
        {
          "internalType": "uint256",
          "name": "",
          "type": "uint256"
        }
      ],
      "stateMutability": "pure",
      "type": "function"
    },
    {
      "inputs": [],
      "name": "initialize",
      "outputs": [],
      "stateMutability": "nonpayable",
      "type": "function"
    },
    {
      "inputs": [
        {
          "internalType": "uint256",
          "name": "_pid",
          "type": "uint256"
        },
        {
          "internalType": "uint256",
          "name": "_deposit",
          "type": "uint256"
        }
      ],
      "name": "makeProjectDeposit",
      "outputs": [],
      "stateMutability": "nonpayable",
      "type": "function"
    },
    {
      "inputs": [],
      "name": "owner",
      "outputs": [
        {
          "internalType": "address",
          "name": "",
          "type": "address"
        }
      ],
      "stateMutability": "view",
      "type": "function"
    },
    {
      "inputs": [
        {
          "internalType": "uint256",
          "name": "_pid",
          "type": "uint256"
        },
        {
          "internalType": "address",
          "name": "_hunter",
          "type": "address"
        },
        {
          "internalType": "uint256",
          "name": "_amount",
          "type": "uint256"
        }
      ],
      "name": "payBounty",
      "outputs": [
        {
          "internalType": "bool",
          "name": "",
          "type": "bool"
        }
      ],
      "stateMutability": "nonpayable",
      "type": "function"
    },
    {
      "inputs": [
        {
          "internalType": "uint256",
          "name": "_pid",
          "type": "uint256"
        },
        {
          "internalType": "address",
          "name": "_user",
          "type": "address"
        }
      ],
      "name": "pendingToken",
      "outputs": [
        {
          "internalType": "uint256",
          "name": "",
          "type": "uint256"
        }
      ],
      "stateMutability": "view",
      "type": "function"
    },
    {
      "inputs": [
        {
          "internalType": "uint256",
          "name": "",
          "type": "uint256"
        }
      ],
      "name": "poolInfo",
      "outputs": [
        {
          "internalType": "contract IERC20",
          "name": "token",
          "type": "address"
        },
        {
          "internalType": "bool",
          "name": "initialized",
          "type": "bool"
        },
        {
          "internalType": "uint8",
          "name": "tokenDecimals",
          "type": "uint8"
        },
        {
          "internalType": "uint16",
          "name": "apy",
          "type": "uint16"
        },
        {
          "internalType": "address",
          "name": "projectWallet",
          "type": "address"
        },
        {
          "internalType": "uint256",
          "name": "projectDeposit",
          "type": "uint256"
        },
        {
          "internalType": "uint256",
          "name": "poolCap",
          "type": "uint256"
        },
        {
          "internalType": "uint256",
          "name": "totalStaked",
          "type": "uint256"
        },
        {
          "internalType": "uint256",
          "name": "totalPending",
          "type": "uint256"
        },
        {
          "internalType": "uint256",
          "name": "requiredPremiumBalancePerPeriod",
          "type": "uint256"
        },
        {
          "internalType": "uint256",
          "name": "premiumBalance",
          "type": "uint256"
        },
        {
          "internalType": "uint256",
          "name": "premiumAvailable",
          "type": "uint256"
        },
        {
          "components": [
            {
              "internalType": "uint256",
              "name": "timelock",
              "type": "uint256"
            },
            {
              "internalType": "uint256",
              "name": "timeLimit",
              "type": "uint256"
            },
            {
              "internalType": "uint256",
              "name": "withdrawalScheduledAmount",
              "type": "uint256"
            },
            {
              "internalType": "bool",
              "name": "withdrawalExecuted",
              "type": "bool"
            }
          ],
          "internalType": "struct ISaloon.TimelockInfo",
          "name": "poolTimelock",
          "type": "tuple"
        }
      ],
      "stateMutability": "view",
      "type": "function"
    },
    {
      "inputs": [],
      "name": "poolLength",
      "outputs": [
        {
          "internalType": "uint256",
          "name": "",
          "type": "uint256"
        }
      ],
      "stateMutability": "view",
      "type": "function"
    },
    {
      "inputs": [
        {
          "internalType": "uint256",
          "name": "_pid",
          "type": "uint256"
        },
        {
          "internalType": "uint256",
          "name": "_amount",
          "type": "uint256"
        }
      ],
      "name": "projectDepositWithdrawal",
      "outputs": [
        {
          "internalType": "bool",
          "name": "",
          "type": "bool"
        }
      ],
      "stateMutability": "nonpayable",
      "type": "function"
    },
    {
      "inputs": [],
      "name": "proxiableUUID",
      "outputs": [
        {
          "internalType": "bytes32",
          "name": "",
          "type": "bytes32"
        }
      ],
      "stateMutability": "view",
      "type": "function"
    },
    {
      "inputs": [],
      "name": "renounceOwnership",
      "outputs": [],
      "stateMutability": "nonpayable",
      "type": "function"
    },
    {
      "inputs": [
        {
          "internalType": "address",
          "name": "",
          "type": "address"
        }
      ],
      "name": "saloonBountyProfit",
      "outputs": [
        {
          "internalType": "uint256",
          "name": "",
          "type": "uint256"
        }
      ],
      "stateMutability": "view",
      "type": "function"
    },
    {
      "inputs": [
        {
          "internalType": "address",
          "name": "",
          "type": "address"
        }
      ],
      "name": "saloonPremiumProfit",
      "outputs": [
        {
          "internalType": "uint256",
          "name": "",
          "type": "uint256"
        }
      ],
      "stateMutability": "view",
      "type": "function"
    },
    {
      "inputs": [
        {
          "internalType": "uint256",
          "name": "_pid",
          "type": "uint256"
        },
        {
          "internalType": "uint256",
          "name": "_amount",
          "type": "uint256"
        }
      ],
      "name": "scheduleProjectDepositWithdrawal",
      "outputs": [
        {
          "internalType": "bool",
          "name": "",
          "type": "bool"
        }
      ],
      "stateMutability": "nonpayable",
      "type": "function"
    },
    {
      "inputs": [
        {
          "internalType": "uint256",
          "name": "_pid",
          "type": "uint256"
        },
        {
          "internalType": "uint256",
          "name": "_amount",
          "type": "uint256"
        }
      ],
      "name": "scheduleUnstake",
      "outputs": [
        {
          "internalType": "bool",
          "name": "",
          "type": "bool"
        }
      ],
      "stateMutability": "nonpayable",
      "type": "function"
    },
    {
      "inputs": [
        {
          "internalType": "uint256",
          "name": "_pid",
          "type": "uint256"
        },
        {
          "internalType": "uint256",
          "name": "_poolCap",
          "type": "uint256"
        },
        {
          "internalType": "uint16",
          "name": "_apy",
          "type": "uint16"
        },
        {
          "internalType": "uint256",
          "name": "_deposit",
          "type": "uint256"
        }
      ],
      "name": "setAPYandPoolCapAndDeposit",
      "outputs": [],
      "stateMutability": "nonpayable",
      "type": "function"
    },
    {
      "inputs": [
        {
          "internalType": "uint256",
          "name": "_pid",
          "type": "uint256"
        },
        {
          "internalType": "address",
          "name": "_user",
          "type": "address"
        },
        {
          "internalType": "uint256",
          "name": "_amount",
          "type": "uint256"
        }
      ],
      "name": "stake",
      "outputs": [
        {
          "internalType": "bool",
          "name": "",
          "type": "bool"
        }
      ],
      "stateMutability": "nonpayable",
      "type": "function"
    },
    {
      "inputs": [
        {
          "internalType": "address",
          "name": "newOwner",
          "type": "address"
        }
      ],
      "name": "transferOwnership",
      "outputs": [],
      "stateMutability": "nonpayable",
      "type": "function"
    },
    {
      "inputs": [
        {
          "internalType": "uint256",
          "name": "_pid",
          "type": "uint256"
        },
        {
          "internalType": "uint256",
          "name": "_amount",
          "type": "uint256"
        }
      ],
      "name": "unstake",
      "outputs": [
        {
          "internalType": "bool",
          "name": "",
          "type": "bool"
        }
      ],
      "stateMutability": "nonpayable",
      "type": "function"
    },
    {
      "inputs": [
        {
          "internalType": "address",
          "name": "newImplementation",
          "type": "address"
        }
      ],
      "name": "upgradeTo",
      "outputs": [],
      "stateMutability": "nonpayable",
      "type": "function"
    },
    {
      "inputs": [
        {
          "internalType": "address",
          "name": "newImplementation",
          "type": "address"
        },
        {
          "internalType": "bytes",
          "name": "data",
          "type": "bytes"
        }
      ],
      "name": "upgradeToAndCall",
      "outputs": [],
      "stateMutability": "payable",
      "type": "function"
    },
    {
      "inputs": [
        {
          "internalType": "uint256",
          "name": "",
          "type": "uint256"
        },
        {
          "internalType": "address",
          "name": "",
          "type": "address"
        }
      ],
      "name": "userInfo",
      "outputs": [
        {
          "internalType": "uint256",
          "name": "amount",
          "type": "uint256"
        },
        {
          "internalType": "uint256",
          "name": "unclaimed",
          "type": "uint256"
        },
        {
          "internalType": "uint256",
          "name": "lastRewardTime",
          "type": "uint256"
        },
        {
          "internalType": "uint256",
          "name": "timelock",
          "type": "uint256"
        },
        {
          "internalType": "uint256",
          "name": "timeLimit",
          "type": "uint256"
        },
        {
          "internalType": "uint256",
          "name": "unstakeScheduledAmount",
          "type": "uint256"
        },
        {
          "internalType": "bool",
          "name": "unstakeExecuted",
          "type": "bool"
        }
      ],
      "stateMutability": "view",
      "type": "function"
    },
    {
      "inputs": [
        {
          "internalType": "uint256",
          "name": "_pid",
          "type": "uint256"
        }
      ],
      "name": "viewBountyBalance",
      "outputs": [
        {
          "internalType": "uint256",
          "name": "",
          "type": "uint256"
        }
      ],
      "stateMutability": "view",
      "type": "function"
    },
    {
      "inputs": [
        {
          "internalType": "uint256",
          "name": "_pid",
          "type": "uint256"
        }
      ],
      "name": "viewPoolCap",
      "outputs": [
        {
          "internalType": "uint256",
          "name": "",
          "type": "uint256"
        }
      ],
      "stateMutability": "view",
      "type": "function"
    },
    {
      "inputs": [
        {
          "internalType": "uint256",
          "name": "_pid",
          "type": "uint256"
        }
      ],
      "name": "viewPoolPremiumInfo",
      "outputs": [
        {
          "internalType": "uint256",
          "name": "totalPending",
          "type": "uint256"
        },
        {
          "internalType": "uint256",
          "name": "requiredPremiumBalancePerPeriod",
          "type": "uint256"
        },
        {
          "internalType": "uint256",
          "name": "premiumBalance",
          "type": "uint256"
        }
      ],
      "stateMutability": "view",
      "type": "function"
    },
    {
      "inputs": [
        {
          "internalType": "uint256",
          "name": "_pid",
          "type": "uint256"
        }
      ],
      "name": "viewPoolTimelockInfo",
      "outputs": [
        {
          "internalType": "uint256",
          "name": "timelock",
          "type": "uint256"
        },
        {
          "internalType": "uint256",
          "name": "timeLimit",
          "type": "uint256"
        },
        {
          "internalType": "uint256",
          "name": "withdrawalScheduledAmount",
          "type": "uint256"
        }
      ],
      "stateMutability": "view",
      "type": "function"
    },
    {
      "inputs": [
        {
          "internalType": "uint256",
          "name": "_pid",
          "type": "uint256"
        }
      ],
      "name": "viewStake",
      "outputs": [
        {
          "internalType": "uint256",
          "name": "",
          "type": "uint256"
        }
      ],
      "stateMutability": "view",
      "type": "function"
    },
    {
      "inputs": [
        {
          "internalType": "uint256",
          "name": "_pid",
          "type": "uint256"
        }
      ],
      "name": "viewTotalStaked",
      "outputs": [
        {
          "internalType": "uint256",
          "name": "",
          "type": "uint256"
        }
      ],
      "stateMutability": "view",
      "type": "function"
    },
    {
      "inputs": [
        {
          "internalType": "uint256",
          "name": "_pid",
          "type": "uint256"
        },
        {
          "internalType": "address",
          "name": "_user",
          "type": "address"
        }
      ],
      "name": "viewUserInfo",
      "outputs": [
        {
          "internalType": "uint256",
          "name": "amount",
          "type": "uint256"
        },
        {
          "internalType": "uint256",
          "name": "unclaimed",
          "type": "uint256"
        }
      ],
      "stateMutability": "view",
      "type": "function"
    }
  ],
  "bytecode": {
    "object": "0x60a06040523060805234801561001457600080fd5b50600160c9556080516136e4610051600039600081816108060152818161084f015281816110290152818161106901526110fc01526136e46000f3fe6080604052600436106101ee5760003560e01c80638129fc1c1161010d578063ac30b856116100a0578063cf9564b91161006f578063cf9564b914610678578063dbdd695714610698578063e45abd0f146106b8578063f2fde38b146106e5578063f47ec3be1461070557600080fd5b8063ac30b856146105d0578063b1a2d16f1461060b578063ca0061481461062b578063cee6b0691461065857600080fd5b806393f1a40b116100dc57806393f1a40b14610494578063983c1ce0146105315780639e2c8a5b14610551578063a754ecb01461057157600080fd5b80638129fc1c146104175780638da5cb5b1461042c5780638dbb1e3a1461045457806391635b4e1461047457600080fd5b806348e43af41161018557806357a86d3a1161015457806357a86d3a146103a25780636ac6d812146103c25780636e9c931c146103e2578063715018a61461040257600080fd5b806348e43af41461033a5780634f1ef2861461035a57806352d1902d1461036d5780635669cbef1461038257600080fd5b80633659cfe6116101c15780633659cfe6146102b857806339679ff4146102da578063399eadb8146102fa5780633ac6ad7b1461031a57600080fd5b8063081e3eda146101f35780631526fe271461021757806323691677146102505780632dbe051e14610288575b600080fd5b3480156101ff57600080fd5b5060cc545b6040519081526020015b60405180910390f35b34801561022357600080fd5b50610237610232366004612fc6565b610725565b60405161020e9d9c9b9a99989796959493929190612fdf565b34801561025c57600080fd5b5061020461026b366004612fc6565b600090815260cd6020908152604080832033845290915290205490565b34801561029457600080fd5b506102a86102a3366004612fc6565b6107df565b604051901515815260200161020e565b3480156102c457600080fd5b506102d86102d33660046130a0565b6107fc565b005b3480156102e657600080fd5b506102046102f5366004612fc6565b6108e4565b34801561030657600080fd5b506102046103153660046130bb565b610a59565b34801561032657600080fd5b506102a8610335366004613106565b610d11565b34801561034657600080fd5b5061020461035536600461313b565b610f4d565b6102d861036836600461317d565b61101f565b34801561037957600080fd5b506102046110ef565b34801561038e57600080fd5b506102a861039d36600461323f565b6111a2565b3480156103ae57600080fd5b506102d86103bd36600461323f565b611293565b3480156103ce57600080fd5b506102046103dd366004612fc6565b61131d565b3480156103ee57600080fd5b506102a86103fd366004613106565b61149c565b34801561040e57600080fd5b506102d8611633565b34801561042357600080fd5b506102d8611647565b34801561043857600080fd5b506033546040516001600160a01b03909116815260200161020e565b34801561046057600080fd5b5061020461046f36600461323f565b611757565b34801561048057600080fd5b506102a861048f36600461323f565b611763565b3480156104a057600080fd5b506104fa6104af36600461313b565b60cd6020908152600092835260408084209091529082529020805460018201546002830154600384015460048501546005860154600690960154949593949293919290919060ff1687565b604080519788526020880196909652948601939093526060850191909152608084015260a0830152151560c082015260e00161020e565b34801561053d57600080fd5b506102a861054c36600461323f565b611818565b34801561055d57600080fd5b506102a861056c36600461323f565b611923565b34801561057d57600080fd5b506105bb61058c36600461313b565b600091825260cd602090815260408084206001600160a01b039093168452919052902080546001909101549091565b6040805192835260208301919091520161020e565b3480156105dc57600080fd5b506105f06105eb366004612fc6565b611bca565b6040805193845260208401929092529082015260600161020e565b34801561061757600080fd5b506105f0610626366004612fc6565b611d56565b34801561063757600080fd5b506102046106463660046130a0565b60cb6020526000908152604090205481565b34801561066457600080fd5b506102d8610673366004613261565b611ee3565b34801561068457600080fd5b506102a86106933660046132a7565b61216f565b3480156106a457600080fd5b506102046106b3366004612fc6565b6121db565b3480156106c457600080fd5b506102046106d33660046130a0565b60ca6020526000908152604090205481565b3480156106f157600080fd5b506102d86107003660046130a0565b612350565b34801561071157600080fd5b506102d8610720366004612fc6565b6123c6565b60cc818154811061073557600080fd5b6000918252602091829020600e91909102018054600182015460028301546003840154600485015460058601546006870154600788015460088901546040805160808101825260098c01548152600a8c01549c81019c909c52600b8b0154908c0152600c9099015460ff908116151560608c01526001600160a01b03808a169c50600160a01b8a0482169b600160a81b8b049092169a600160b01b909a0461ffff1699981697908d565b60006107e96123e2565b6107f482600061243c565b505050919050565b6001600160a01b037f000000000000000000000000000000000000000000000000000000000000000016300361084d5760405162461bcd60e51b8152600401610844906132d1565b60405180910390fd5b7f00000000000000000000000000000000000000000000000000000000000000006001600160a01b0316610896600080516020613668833981519152546001600160a01b031690565b6001600160a01b0316146108bc5760405162461bcd60e51b81526004016108449061331d565b6108c581612550565b604080516000808252602082019092526108e191839190612558565b50565b60008060cc83815481106108fa576108fa613369565b6000918252602091829020604080516101c081018252600e9390930290910180546001600160a01b038082168552600160a01b820460ff908116151586880152600160a81b8304811686860152600160b01b90920461ffff166060808701919091526001840154909116608080870191909152600284015460a0870152600384015460c0870152600484015460e087015260058401546101008701526006840154610120870152600784015461014087015260088401546101608701528451908101855260098401548152600a84015481880152600b84015481860152600c840154909216151590820152610180840152600d81018054835181870281018701909452808452939491936101a086019392830182828015610a4457602002820191906000526020600020905b81546001600160a01b03168152600190910190602001808311610a26575b5050509190925250505060c001519392505050565b6000610a636123e2565b610a6b612e7d565b8481600001906001600160a01b031690816001600160a01b03168152505083816040019060ff16908160ff16815250508281608001906001600160a01b031690816001600160a01b03168152505060008160a00181815250506000816060019061ffff16908161ffff168152505060008160c001818152505060008160e0018181525050600081602001901515908115158152505060008161010001818152505060008161018001516000018181525050600081610180015160200181815250506000816101800151604001818152505060008161018001516060019015159081151581525050806101a001515060cc8190806001815401808255809150506001900390600052602060002090600e020160009091909190915060008201518160000160006101000a8154816001600160a01b0302191690836001600160a01b0316021790555060208201518160000160146101000a81548160ff02191690831515021790555060408201518160000160156101000a81548160ff021916908360ff16021790555060608201518160000160166101000a81548161ffff021916908361ffff16021790555060808201518160010160006101000a8154816001600160a01b0302191690836001600160a01b0316021790555060a0820151816002015560c0820151816003015560e0820151816004015561010082015181600501556101208201518160060155610140820151816007015561016082015181600801556101808201518160090160008201518160000155602082015181600101556040820151816002015560608201518160030160006101000a81548160ff02191690831515021790555050506101a082015181600d019080519060200190610cf4929190612f32565b505060cc54610d069150600190613395565b9150505b9392505050565b6000610d1b6123e2565b600060cc8581548110610d3057610d30613369565b90600052602060002090600e020190506000816004015490506000826002015482610d5b91906133a8565b9050600081861015610dbf5781610d74612710886133bb565b610d7e91906133d2565b905061271061ffff16818560020154610d9791906133bb565b610da191906133d2565b846002016000828254610db49190613395565b90915550610e109050565b818603610dd6575060006002840155612710610e10565b60405162461bcd60e51b815260206004820152600f60248201526e082dadeeadce840e8dede40d0d2ced608b1b6044820152606401610844565b600d84015460005b81811015610eb357600086600d018281548110610e3757610e37613369565b60009182526020808320909101548d835260cd825260408084206001600160a01b03909216808552919092529120909150610e728c836126c8565b805461271090610e839087906133bb565b610e8d91906133d2565b816000016000828254610ea09190613395565b909155505060019092019150610e189050565b50828703610ec957610ec9600d86016000612f97565b6000612710610eda6103e88a6133bb565b610ee491906133d2565b90506000610ef2828a613395565b87546001600160a01b0316600090815260ca6020526040812080549293508492909190610f209084906133a8565b90915550508654610f3b906001600160a01b03168b83612835565b5060019b9a5050505050505050505050565b60008060cc8481548110610f6357610f63613369565b6000918252602080832087845260cd825260408085206001600160a01b0389168652909252908320600e92909202016004810154600283015491945091929042118015610faf57508115155b15611013576000610fc4846002015442611757565b855485549192506000916301e1338091849161271091610ff091600160b01b90910461ffff16906133bb565b610ffa91906133d2565b61100491906133bb565b61100e91906133d2565b925050505b93505050505b92915050565b6001600160a01b037f00000000000000000000000000000000000000000000000000000000000000001630036110675760405162461bcd60e51b8152600401610844906132d1565b7f00000000000000000000000000000000000000000000000000000000000000006001600160a01b03166110b0600080516020613668833981519152546001600160a01b031690565b6001600160a01b0316146110d65760405162461bcd60e51b81526004016108449061331d565b6110df82612550565b6110eb82826001612558565b5050565b6000306001600160a01b037f0000000000000000000000000000000000000000000000000000000000000000161461118f5760405162461bcd60e51b815260206004820152603860248201527f555550535570677261646561626c653a206d757374206e6f742062652063616c60448201527f6c6564207468726f7567682064656c656761746563616c6c00000000000000006064820152608401610844565b5060008051602061366883398151915290565b60008060cc84815481106111b8576111b8613369565b90600052602060002090600e02019050828160020154101561121c5760405162461bcd60e51b815260206004820152601a60248201527f416d6f756e7420626967676572207468616e206465706f7369740000000000006044820152606401610844565b60018101546001600160a01b031633146112485760405162461bcd60e51b8152600401610844906133f4565b61125562093a80426133a8565b600982015561126762093a80426133a8565b611274906203f4806133a8565b600a820155600b81019290925550600c01805460ff1916905550600190565b600060cc83815481106112a8576112a8613369565b60009182526020909120600e9091020160018101549091506001600160a01b031633146112e75760405162461bcd60e51b8152600401610844906133f4565b80546112fe906001600160a01b03163330856128a5565b508181600201600082825461131391906133a8565b9091555050505050565b60008060cc838154811061133357611333613369565b6000918252602091829020604080516101c081018252600e9390930290910180546001600160a01b038082168552600160a01b820460ff908116151586880152600160a81b8304811686860152600160b01b90920461ffff166060808701919091526001840154909116608080870191909152600284015460a0870152600384015460c0870152600484015460e087015260058401546101008701526006840154610120870152600784015461014087015260088401546101608701528451908101855260098401548152600a84015481880152600b84015481860152600c840154909216151590820152610180840152600d81018054835181870281018701909452808452939491936101a08601939283018282801561147d57602002820191906000526020600020905b81546001600160a01b0316815260019091019060200180831161145f575b50505050508152505090508060a001518160e00151610d0a91906133a8565b60006114a66128e8565b600082116114b357600080fd5b600060cc85815481106114c8576114c8613369565b6000918252602080832088845260cd825260408085206001600160a01b038a1686529092529220600e909102909101915061150386866126c8565b805460000361153d57600d82018054600181018255600091825260209091200180546001600160a01b0319166001600160a01b0387161790555b8154611554906001600160a01b03163330876128a5565b508381600001600082825461156991906133a8565b9091555050600482015461157d9085612941565b600483015560038201541580159061159d57508160030154826004015411155b6115df5760405162461bcd60e51b8152602060048201526013602482015272115e18d959591959081c1bdbdb081b1a5b5a5d606a1b6044820152606401610844565b85856001600160a01b03167f1449c6dd7851abc30abf37f57715f492010519147cc2652fbc38202c18a6ee908660405161161b91815260200190565b60405180910390a3600192505050610d0a600160c955565b61163b6123e2565b611645600061294d565b565b600054610100900460ff16158080156116675750600054600160ff909116105b806116815750303b158015611681575060005460ff166001145b6116e45760405162461bcd60e51b815260206004820152602e60248201527f496e697469616c697a61626c653a20636f6e747261637420697320616c72656160448201526d191e481a5b9a5d1a585b1a5e995960921b6064820152608401610844565b6000805460ff191660011790558015611707576000805461ff0019166101001790555b61170f61299f565b80156108e1576000805461ff0019169055604051600181527f7f26b83ff96e1f2b6a682f133852f6798a09c465da95921460cefb38474024989060200160405180910390a150565b6000610d0a82846129ce565b600082815260cd60209081526040808320338452909152812080548311156117cd5760405162461bcd60e51b815260206004820152601a60248201527f416d6f756e7420626967676572207468616e206465706f7369740000000000006044820152606401610844565b6117da62093a80426133a8565b60038201556117ec62093a80426133a8565b6117f9906203f4806133a8565b6004820155600581019290925550600601805460ff1916905550600190565b60008060cc848154811061182e5761182e613369565b60009182526020909120600e9091020160018101549091506001600160a01b0316331461186d5760405162461bcd60e51b8152600401610844906133f4565b6009810154421180156118835750600a81015442105b80156118945750600c81015460ff16155b80156118a45750600b8101548311155b80156118b35750600981015415155b6118cf5760405162461bcd60e51b81526004016108449061341c565b600c8101805460ff191660011790556002810180548491906000906118f5908490613395565b909155505060018101548154611918916001600160a01b03918216911685612835565b506001949350505050565b600061192d6128e8565b600060cc848154811061194257611942613369565b6000918252602080832087845260cd8252604080852033865290925292208054600e90920290920192508411156119b05760405162461bcd60e51b81526020600482015260126024820152711dda5d1a191c985dce881b9bdd0819dbdbd960721b6044820152606401610844565b4281600301541080156119c65750428160040154115b80156119d75750600681015460ff16155b80156119e7575083816005015410155b80156119f65750600381015415155b611a125760405162461bcd60e51b81526004016108449061341c565b60068101805460ff19166001179055611a2b85336126c8565b8315611a6b578054611a3d90856129ce565b81556004820154611a4e90856129ce565b60048301558154611a69906001600160a01b03163386612835565b505b8054600003611b8357600d82015460005b81811015611b8057336001600160a01b031684600d018281548110611aa357611aa3613369565b6000918252602090912001546001600160a01b031603611b78576000600d8501611ace600185613395565b81548110611ade57611ade613369565b600091825260209091200154600d860180546001600160a01b039092169250829184908110611b0f57611b0f613369565b9060005260206000200160006101000a8154816001600160a01b0302191690836001600160a01b0316021790555084600d01805480611b5057611b50613465565b600082815260209020810160001990810180546001600160a01b031916905501905550611b80565b600101611a7c565b50505b604051848152859033907f7fc4727e062e336010f2c282598ef5f14facb3de68cf8195c2f23e1454b2b74e9060200160405180910390a3600192505050611019600160c955565b60008060008060cc8581548110611be357611be3613369565b6000918252602091829020604080516101c081018252600e9390930290910180546001600160a01b038082168552600160a01b820460ff908116151586880152600160a81b8304811686860152600160b01b90920461ffff166060808701919091526001840154909116608080870191909152600284015460a0870152600384015460c0870152600484015460e087015260058401546101008701526006840154610120870152600784015461014087015260088401546101608701528451908101855260098401548152600a84015481880152600b84015481860152600c840154909216151590820152610180840152600d81018054835181870281018701909452808452939491936101a086019392830182828015611d2d57602002820191906000526020600020905b81546001600160a01b03168152600190910190602001808311611d0f575b505050919092525050506101800151805160208201516040909201519097919650945092505050565b60008060008060cc8581548110611d6f57611d6f613369565b6000918252602091829020604080516101c081018252600e9390930290910180546001600160a01b038082168552600160a01b820460ff908116151586880152600160a81b8304811686860152600160b01b90920461ffff166060808701919091526001840154909116608080870191909152600284015460a0870152600384015460c0870152600484015460e087015260058401546101008701526006840154610120870152600784015461014087015260088401546101608701528451908101855260098401548152600a84015481880152600b84015481860152600c840154909216151590820152610180840152600d81018054835181870281018701909452808452939491936101a086019392830182828015611eb957602002820191906000526020600020905b81546001600160a01b03168152600190910190602001808311611e9b575b50505091909252505050610100810151610120820151610140909201519097919650945092505050565b600060cc8581548110611ef857611ef8613369565b60009182526020909120600e909102018054909150600160a01b900460ff1615611f645760405162461bcd60e51b815260206004820152601860248201527f506f6f6c20616c726561647920696e697469616c697a656400000000000000006044820152606401610844565b60008361ffff16118015611f7e57506127108361ffff1611155b611fbd5760405162461bcd60e51b815260206004820152601060248201526f415059206f7574206f662072616e676560801b6044820152606401610844565b8054611fd490600160a81b900460ff16600a61355f565b611fdf9060646133bb565b84101580156120115750805461200090600160a81b900460ff16600a61355f565b61200d90629896806133bb565b8411155b6120555760405162461bcd60e51b8152602060048201526015602482015274506f6f6c20636170206f7574206f662072616e676560581b6044820152606401610844565b60018101546001600160a01b031633146120815760405162461bcd60e51b8152600401610844906133f4565b60006301e1338061271062093a8061209d61ffff8816896133bb565b6120a791906133bb565b6120b191906133d2565b6120bb91906133d2565b905060006127106120ce6103e8846133bb565b6120d891906133d2565b90506120fc33306120e985886133a8565b86546001600160a01b03169291906128a5565b508383600201600082825461211191906133a8565b909155505060038301869055825460ff60a01b1961ffff8716600160b01b021663ffff00ff60a01b1990911617600160a01b178355600783018290556006830182905561215e8183613395565b836008018190555050505050505050565b60006121796123e2565b6001600160a01b038316600090815260cb602090815260408083205460ca9092528220546121a791906133a8565b6001600160a01b038516600081815260ca6020908152604080832083905560cb909152812055909150611918908483612835565b60008060cc83815481106121f1576121f1613369565b6000918252602091829020604080516101c081018252600e9390930290910180546001600160a01b038082168552600160a01b820460ff908116151586880152600160a81b8304811686860152600160b01b90920461ffff166060808701919091526001840154909116608080870191909152600284015460a0870152600384015460c0870152600484015460e087015260058401546101008701526006840154610120870152600784015461014087015260088401546101608701528451908101855260098401548152600a84015481880152600b84015481860152600c840154909216151590820152610180840152600d81018054835181870281018701909452808452939491936101a08601939283018282801561233b57602002820191906000526020600020905b81546001600160a01b0316815260019091019060200180831161231d575b5050509190925250505060e001519392505050565b6123586123e2565b6001600160a01b0381166123bd5760405162461bcd60e51b815260206004820152602660248201527f4f776e61626c653a206e6577206f776e657220697320746865207a65726f206160448201526564647265737360d01b6064820152608401610844565b6108e18161294d565b6123ce6128e8565b6123d881336126c8565b6108e1600160c955565b6033546001600160a01b031633146116455760405162461bcd60e51b815260206004820181905260248201527f4f776e61626c653a2063616c6c6572206973206e6f7420746865206f776e65726044820152606401610844565b60008060008060cc868154811061245557612455613369565b90600052602060002090600e0201905060008160070154826006015461247b9190613395565b9050858110156124925761248f86826133a8565b90505b600182015482546124b1916001600160a01b03918216911630846128a5565b5060006127106124c36103e8846133bb565b6124cd91906133d2565b9050818360070160008282546124e391906133a8565b909155505082546001600160a01b0316600090815260cb6020526040812080548392906125119084906133a8565b90915550600090506125238284613395565b90508084600801600082825461253991906133a8565b909155506001975092955093505050509250925092565b6108e16123e2565b7f4910fdfa16fed3260ed0e7147f7cc6da11a60208b5b9406d12a635614ffd91435460ff16156125905761258b836129da565b505050565b826001600160a01b03166352d1902d6040518163ffffffff1660e01b8152600401602060405180830381865afa9250505080156125ea575060408051601f3d908101601f191682019092526125e79181019061356e565b60015b61264d5760405162461bcd60e51b815260206004820152602e60248201527f45524331393637557067726164653a206e657720696d706c656d656e7461746960448201526d6f6e206973206e6f74205555505360901b6064820152608401610844565b60008051602061366883398151915281146126bc5760405162461bcd60e51b815260206004820152602960248201527f45524331393637557067726164653a20756e737570706f727465642070726f786044820152681a58589b195555525160ba1b6064820152608401610844565b5061258b838383612a76565b600060cc83815481106126dd576126dd613369565b6000918252602080832086845260cd825260408085206001600160a01b03881686529092529083208054600e909302909101935091036127235742600290910155505050565b600061272f8585610f4d565b905082600801548111156127ad576000612749868361243c565b90935091505081156127a757835461276b906001600160a01b03168684612835565b50818460070160008282546127809190613395565b925050819055508084600801600082825461279b9190613395565b90915550504260028401555b5061282e565b801561282e5782546127c9906001600160a01b03168583612835565b50808360070160008282546127de9190613395565b90915550600090506127106127f56103e8846133bb565b6127ff91906133d2565b905061280b8183613395565b9150818460080160008282546128219190613395565b9091555050426002840155505b5050505050565b6040516001600160a01b03831660248201526044810182905260009061289b90859063a9059cbb60e01b906064015b60408051601f198184030181529190526020810180516001600160e01b03166001600160e01b031990931692909217909152612aa1565b5060019392505050565b6040516001600160a01b03808516602483015283166044820152606481018290526000906119189086906323b872dd60e01b90608401612864565b949350505050565b600260c9540361293a5760405162461bcd60e51b815260206004820152601f60248201527f5265656e7472616e637947756172643a207265656e7472616e742063616c6c006044820152606401610844565b600260c955565b6000610d0a82846133a8565b603380546001600160a01b038381166001600160a01b0319831681179093556040519116919082907f8be0079c531659141344cd1fd0a4f28419497f9722a3daafe3b4186f6b6457e090600090a35050565b600054610100900460ff166129c65760405162461bcd60e51b815260040161084490613587565b611645612b73565b6000610d0a8284613395565b6001600160a01b0381163b612a475760405162461bcd60e51b815260206004820152602d60248201527f455243313936373a206e657720696d706c656d656e746174696f6e206973206e60448201526c1bdd08184818dbdb9d1c9858dd609a1b6064820152608401610844565b60008051602061366883398151915280546001600160a01b0319166001600160a01b0392909216919091179055565b612a7f83612ba3565b600082511180612a8c5750805b1561258b57612a9b8383612be3565b50505050565b6000612af6826040518060400160405280602081526020017f5361666545524332303a206c6f772d6c6576656c2063616c6c206661696c6564815250856001600160a01b0316612cd79092919063ffffffff16565b80519091501561258b5780806020019051810190612b1491906135d2565b61258b5760405162461bcd60e51b815260206004820152602a60248201527f5361666545524332303a204552433230206f7065726174696f6e20646964206e6044820152691bdd081cdd58d8d9595960b21b6064820152608401610844565b600054610100900460ff16612b9a5760405162461bcd60e51b815260040161084490613587565b6116453361294d565b612bac816129da565b6040516001600160a01b038216907fbc7cd75a20ee27fd9adebab32041f755214dbc6bffa90cc0225b39da2e5c2d3b90600090a250565b60606001600160a01b0383163b612c4b5760405162461bcd60e51b815260206004820152602660248201527f416464726573733a2064656c65676174652063616c6c20746f206e6f6e2d636f6044820152651b9d1c9858dd60d21b6064820152608401610844565b600080846001600160a01b031684604051612c669190613618565b600060405180830381855af49150503d8060008114612ca1576040519150601f19603f3d011682016040523d82523d6000602084013e612ca6565b606091505b5091509150612cce828260405180606001604052806027815260200161368860279139612ce6565b95945050505050565b60606128e08484600085612cff565b60608315612cf5575081610d0a565b610d0a8383612dda565b606082471015612d605760405162461bcd60e51b815260206004820152602660248201527f416464726573733a20696e73756666696369656e742062616c616e636520666f6044820152651c8818d85b1b60d21b6064820152608401610844565b600080866001600160a01b03168587604051612d7c9190613618565b60006040518083038185875af1925050503d8060008114612db9576040519150601f19603f3d011682016040523d82523d6000602084013e612dbe565b606091505b5091509150612dcf87838387612e04565b979650505050505050565b815115612dea5781518083602001fd5b8060405162461bcd60e51b81526004016108449190613634565b60608315612e73578251600003612e6c576001600160a01b0385163b612e6c5760405162461bcd60e51b815260206004820152601d60248201527f416464726573733a2063616c6c20746f206e6f6e2d636f6e74726163740000006044820152606401610844565b50816128e0565b6128e08383612dda565b604051806101c0016040528060006001600160a01b03168152602001600015158152602001600060ff168152602001600061ffff16815260200160006001600160a01b0316815260200160008152602001600081526020016000815260200160008152602001600081526020016000815260200160008152602001612f2560405180608001604052806000815260200160008152602001600081526020016000151581525090565b8152602001606081525090565b828054828255906000526020600020908101928215612f87579160200282015b82811115612f8757825182546001600160a01b0319166001600160a01b03909116178255602090920191600190910190612f52565b50612f93929150612fb1565b5090565b50805460008255906000526020600020908101906108e191905b5b80821115612f935760008155600101612fb2565b600060208284031215612fd857600080fd5b5035919050565b6001600160a01b038e811682528d1515602083015260ff8d16604083015261ffff8c1660608301528a16608082015261020081018960a08301528860c08301528760e0830152866101008301528561012083015284610140830152836101608301526130726101808301848051825260208101516020830152604081015160408301526060810151151560608301525050565b9e9d5050505050505050505050505050565b80356001600160a01b038116811461309b57600080fd5b919050565b6000602082840312156130b257600080fd5b610d0a82613084565b6000806000606084860312156130d057600080fd5b6130d984613084565b9250602084013560ff811681146130ef57600080fd5b91506130fd60408501613084565b90509250925092565b60008060006060848603121561311b57600080fd5b8335925061312b60208501613084565b9150604084013590509250925092565b6000806040838503121561314e57600080fd5b8235915061315e60208401613084565b90509250929050565b634e487b7160e01b600052604160045260246000fd5b6000806040838503121561319057600080fd5b61319983613084565b9150602083013567ffffffffffffffff808211156131b657600080fd5b818501915085601f8301126131ca57600080fd5b8135818111156131dc576131dc613167565b604051601f8201601f19908116603f0116810190838211818310171561320457613204613167565b8160405282815288602084870101111561321d57600080fd5b8260208601602083013760006020848301015280955050505050509250929050565b6000806040838503121561325257600080fd5b50508035926020909101359150565b6000806000806080858703121561327757600080fd5b8435935060208501359250604085013561ffff8116811461329757600080fd5b9396929550929360600135925050565b600080604083850312156132ba57600080fd5b6132c383613084565b915061315e60208401613084565b6020808252602c908201527f46756e6374696f6e206d7573742062652063616c6c6564207468726f7567682060408201526b19195b1959d85d1958d85b1b60a21b606082015260800190565b6020808252602c908201527f46756e6374696f6e206d7573742062652063616c6c6564207468726f7567682060408201526b6163746976652070726f787960a01b606082015260800190565b634e487b7160e01b600052603260045260246000fd5b634e487b7160e01b600052601160045260246000fd5b818103818111156110195761101961337f565b808201808211156110195761101961337f565b80820281158282048414176110195761101961337f565b6000826133ef57634e487b7160e01b600052601260045260246000fd5b500490565b6020808252600e908201526d139bdd08185d5d1a1bdc9a5e995960921b604082015260600190565b60208082526029908201527f54696d656c6f636b206e6f7420736574206f72206e6f7420636f6d706c6574656040820152686420696e2074696d6560b81b606082015260800190565b634e487b7160e01b600052603160045260246000fd5b600181815b808511156134b657816000190482111561349c5761349c61337f565b808516156134a957918102915b93841c9390800290613480565b509250929050565b6000826134cd57506001611019565b816134da57506000611019565b81600181146134f057600281146134fa57613516565b6001915050611019565b60ff84111561350b5761350b61337f565b50506001821b611019565b5060208310610133831016604e8410600b8410161715613539575081810a611019565b613543838361347b565b80600019048211156135575761355761337f565b029392505050565b6000610d0a60ff8416836134be565b60006020828403121561358057600080fd5b5051919050565b6020808252602b908201527f496e697469616c697a61626c653a20636f6e7472616374206973206e6f74206960408201526a6e697469616c697a696e6760a81b606082015260800190565b6000602082840312156135e457600080fd5b81518015158114610d0a57600080fd5b60005b8381101561360f5781810151838201526020016135f7565b50506000910152565b6000825161362a8184602087016135f4565b9190910192915050565b60208152600082518060208401526136538160408501602087016135f4565b601f01601f1916919091016040019291505056fe360894a13ba1a3210667c828492db98dca3e2076cc3735a920a3ca505d382bbc416464726573733a206c6f772d6c6576656c2064656c65676174652063616c6c206661696c6564a26469706673582212202df9b35c59cc791a54989951f576bbd0ed96ed9501f4065efa1ef7584192464664736f6c63430008110033",
    "linkReferences": {}
  },
  "methodIdentifiers": {
    "addNewBountyPool(address,uint8,address)": "399eadb8",
    "billPremium(uint256)": "2dbe051e",
    "claimPremium(uint256)": "f47ec3be",
    "collectSaloonProfits(address,address)": "cf9564b9",
    "getMultiplier(uint256,uint256)": "8dbb1e3a",
    "initialize()": "8129fc1c",
    "makeProjectDeposit(uint256,uint256)": "57a86d3a",
    "owner()": "8da5cb5b",
    "payBounty(uint256,address,uint256)": "3ac6ad7b",
    "pendingToken(uint256,address)": "48e43af4",
    "poolInfo(uint256)": "1526fe27",
    "poolLength()": "081e3eda",
    "projectDepositWithdrawal(uint256,uint256)": "983c1ce0",
    "proxiableUUID()": "52d1902d",
    "renounceOwnership()": "715018a6",
    "saloonBountyProfit(address)": "e45abd0f",
    "saloonPremiumProfit(address)": "ca006148",
    "scheduleProjectDepositWithdrawal(uint256,uint256)": "5669cbef",
    "scheduleUnstake(uint256,uint256)": "91635b4e",
    "setAPYandPoolCapAndDeposit(uint256,uint256,uint16,uint256)": "cee6b069",
    "stake(uint256,address,uint256)": "6e9c931c",
    "transferOwnership(address)": "f2fde38b",
    "unstake(uint256,uint256)": "9e2c8a5b",
    "upgradeTo(address)": "3659cfe6",
    "upgradeToAndCall(address,bytes)": "4f1ef286",
    "userInfo(uint256,address)": "93f1a40b",
    "viewBountyBalance(uint256)": "6ac6d812",
    "viewPoolCap(uint256)": "39679ff4",
    "viewPoolPremiumInfo(uint256)": "b1a2d16f",
    "viewPoolTimelockInfo(uint256)": "ac30b856",
    "viewStake(uint256)": "23691677",
    "viewTotalStaked(uint256)": "dbdd6957",
    "viewUserInfo(uint256,address)": "a754ecb0"
  },
  "id": 29
}