{
  "abi": [
    {
      "inputs": [
        {
          "internalType": "address",
          "name": "_logic",
          "type": "address"
        },
        {
          "internalType": "bytes",
          "name": "_data",
          "type": "bytes"
        }
      ],
      "stateMutability": "nonpayable",
      "type": "constructor"
    },
    {
      "anonymous": false,
      "inputs": [
        {
          "indexed": false,
          "internalType": "address",
          "name": "previousAdmin",
          "type": "address"
        },
        {
          "indexed": false,
          "internalType": "address",
          "name": "newAdmin",
          "type": "address"
        }
      ],
      "name": "AdminChanged",
      "type": "event"
    },
    {
      "anonymous": false,
      "inputs": [
        {
          "indexed": true,
          "internalType": "address",
          "name": "beacon",
          "type": "address"
        }
      ],
      "name": "BeaconUpgraded",
      "type": "event"
    },
    {
      "anonymous": false,
      "inputs": [
        {
          "indexed": true,
          "internalType": "address",
          "name": "implementation",
          "type": "address"
        }
      ],
      "name": "Upgraded",
      "type": "event"
    },
    {
      "stateMutability": "payable",
      "type": "fallback"
    },
    {
      "inputs": [],
      "name": "getImplementation",
      "outputs": [
        {
          "internalType": "address",
          "name": "",
          "type": "address"
        }
      ],
      "stateMutability": "view",
      "type": "function"
    },
    {
      "inputs": [
        {
          "internalType": "address",
          "name": "_token",
          "type": "address"
        },
        {
          "internalType": "uint256",
          "name": "_amount",
          "type": "uint256"
        }
      ],
      "name": "receiveStrategyYield",
      "outputs": [],
      "stateMutability": "nonpayable",
      "type": "function"
    },
    {
      "stateMutability": "payable",
      "type": "receive"
    }
  ],
  "bytecode": {
    "object": "0x608060405234801561001057600080fd5b5060405161082638038061082683398101604081905261002f9161032a565b818161003d82826000610046565b50505050610447565b61004f8361007c565b60008251118061005c5750805b156100775761007583836100bc60201b6101171760201c565b505b505050565b610085816100e8565b6040516001600160a01b038216907fbc7cd75a20ee27fd9adebab32041f755214dbc6bffa90cc0225b39da2e5c2d3b90600090a250565b60606100e183836040518060600160405280602781526020016107ff602791396101ba565b9392505050565b6100fb8161023360201b6101431760201c565b6101625760405162461bcd60e51b815260206004820152602d60248201527f455243313936373a206e657720696d706c656d656e746174696f6e206973206e60448201526c1bdd08184818dbdb9d1c9858dd609a1b60648201526084015b60405180910390fd5b806101997f360894a13ba1a3210667c828492db98dca3e2076cc3735a920a3ca505d382bbc60001b61024260201b6101521760201c565b80546001600160a01b0319166001600160a01b039290921691909117905550565b6060600080856001600160a01b0316856040516101d791906103f8565b600060405180830381855af49150503d8060008114610212576040519150601f19603f3d011682016040523d82523d6000602084013e610217565b606091505b50909250905061022986838387610245565b9695505050505050565b6001600160a01b03163b151590565b90565b606083156102b45782516000036102ad576001600160a01b0385163b6102ad5760405162461bcd60e51b815260206004820152601d60248201527f416464726573733a2063616c6c20746f206e6f6e2d636f6e74726163740000006044820152606401610159565b50816102be565b6102be83836102c6565b949350505050565b8151156102d65781518083602001fd5b8060405162461bcd60e51b81526004016101599190610414565b634e487b7160e01b600052604160045260246000fd5b60005b83811015610321578181015183820152602001610309565b50506000910152565b6000806040838503121561033d57600080fd5b82516001600160a01b038116811461035457600080fd5b60208401519092506001600160401b038082111561037157600080fd5b818501915085601f83011261038557600080fd5b815181811115610397576103976102f0565b604051601f8201601f19908116603f011681019083821181831017156103bf576103bf6102f0565b816040528281528860208487010111156103d857600080fd5b6103e9836020830160208801610306565b80955050505050509250929050565b6000825161040a818460208701610306565b9190910192915050565b6020815260008251806020840152610433816040850160208701610306565b601f01601f19169190910160400192915050565b6103a9806104566000396000f3fe60806040526004361061002d5760003560e01c80631aebcecb14610044578063aaf10f42146100645761003c565b3661003c5761003a610095565b005b61003a610095565b34801561005057600080fd5b5061003a61005f3660046102a1565b6100a7565b34801561007057600080fd5b506100796100df565b6040516001600160a01b03909116815260200160405180910390f35b6100a56100a06100df565b610155565b565b6100db6100a07f360894a13ba1a3210667c828492db98dca3e2076cc3735a920a3ca505d382bbc546001600160a01b031690565b5050565b60006101127f360894a13ba1a3210667c828492db98dca3e2076cc3735a920a3ca505d382bbc546001600160a01b031690565b905090565b606061013c838360405180606001604052806027815260200161034d60279139610179565b9392505050565b6001600160a01b03163b151590565b90565b3660008037600080366000845af43d6000803e808015610174573d6000f35b3d6000fd5b6060600080856001600160a01b03168560405161019691906102fd565b600060405180830381855af49150503d80600081146101d1576040519150601f19603f3d011682016040523d82523d6000602084013e6101d6565b606091505b50915091506101e7868383876101f1565b9695505050505050565b6060831561026557825160000361025e576001600160a01b0385163b61025e5760405162461bcd60e51b815260206004820152601d60248201527f416464726573733a2063616c6c20746f206e6f6e2d636f6e747261637400000060448201526064015b60405180910390fd5b508161026f565b61026f8383610277565b949350505050565b8151156102875781518083602001fd5b8060405162461bcd60e51b81526004016102559190610319565b600080604083850312156102b457600080fd5b82356001600160a01b03811681146102cb57600080fd5b946020939093013593505050565b60005b838110156102f45781810151838201526020016102dc565b50506000910152565b6000825161030f8184602087016102d9565b9190910192915050565b60208152600082518060208401526103388160408501602087016102d9565b601f01601f1916919091016040019291505056fe416464726573733a206c6f772d6c6576656c2064656c65676174652063616c6c206661696c6564a2646970667358221220db0769affd57562eeff6e5aa4fafb0edaf9f6284c0cf8c73ab09f3a983414e7964736f6c63430008110033416464726573733a206c6f772d6c6576656c2064656c65676174652063616c6c206661696c6564",
    "linkReferences": {}
  },
  "methodIdentifiers": {
    "getImplementation()": "aaf10f42",
    "receiveStrategyYield(address,uint256)": "1aebcecb"
  },
  "id": 50
}