{
  "abi": [
    {
      "anonymous": false,
      "inputs": [
        {
          "indexed": false,
          "internalType": "address",
          "name": "previousAdmin",
          "type": "address"
        },
        {
          "indexed": false,
          "internalType": "address",
          "name": "newAdmin",
          "type": "address"
        }
      ],
      "name": "AdminChanged",
      "type": "event"
    },
    {
      "anonymous": false,
      "inputs": [
        {
          "indexed": true,
          "internalType": "address",
          "name": "beacon",
          "type": "address"
        }
      ],
      "name": "BeaconUpgraded",
      "type": "event"
    },
    {
      "anonymous": false,
      "inputs": [
        {
          "indexed": true,
          "internalType": "uint256",
          "name": "pid",
          "type": "uint256"
        },
        {
          "indexed": false,
          "internalType": "uint256",
          "name": "oldAmount",
          "type": "uint256"
        },
        {
          "indexed": false,
          "internalType": "uint256",
          "name": "newAmount",
          "type": "uint256"
        }
      ],
      "name": "BountyBalanceChanged",
      "type": "event"
    },
    {
      "anonymous": false,
      "inputs": [
        {
          "indexed": true,
          "internalType": "address",
          "name": "hunter",
          "type": "address"
        },
        {
          "indexed": true,
          "internalType": "address",
          "name": "token",
          "type": "address"
        },
        {
          "indexed": false,
          "internalType": "uint256",
          "name": "amount",
          "type": "uint256"
        }
      ],
      "name": "BountyPaid",
      "type": "event"
    },
    {
      "anonymous": false,
      "inputs": [
        {
          "indexed": false,
          "internalType": "uint8",
          "name": "version",
          "type": "uint8"
        }
      ],
      "name": "Initialized",
      "type": "event"
    },
    {
      "anonymous": false,
      "inputs": [
        {
          "indexed": true,
          "internalType": "uint256",
          "name": "pid",
          "type": "uint256"
        },
        {
          "indexed": true,
          "internalType": "address",
          "name": "token",
          "type": "address"
        },
        {
          "indexed": false,
          "internalType": "uint256",
          "name": "tokenDecimals",
          "type": "uint256"
        }
      ],
      "name": "NewBountyDeployed",
      "type": "event"
    },
    {
      "anonymous": false,
      "inputs": [
        {
          "indexed": true,
          "internalType": "address",
          "name": "previousOwner",
          "type": "address"
        },
        {
          "indexed": true,
          "internalType": "address",
          "name": "newOwner",
          "type": "address"
        }
      ],
      "name": "OwnershipTransferred",
      "type": "event"
    },
    {
      "anonymous": false,
      "inputs": [
        {
          "indexed": true,
          "internalType": "uint256",
          "name": "pid",
          "type": "uint256"
        },
        {
          "indexed": false,
          "internalType": "uint256",
          "name": "amount",
          "type": "uint256"
        }
      ],
      "name": "PremiumBilled",
      "type": "event"
    },
    {
      "anonymous": false,
      "inputs": [
        {
          "indexed": true,
          "internalType": "address",
          "name": "user",
          "type": "address"
        },
        {
          "indexed": true,
          "internalType": "uint256",
          "name": "pid",
          "type": "uint256"
        },
        {
          "indexed": false,
          "internalType": "uint256",
          "name": "amount",
          "type": "uint256"
        }
      ],
      "name": "Staked",
      "type": "event"
    },
    {
      "anonymous": false,
      "inputs": [
        {
          "indexed": true,
          "internalType": "address",
          "name": "user",
          "type": "address"
        },
        {
          "indexed": true,
          "internalType": "uint256",
          "name": "pid",
          "type": "uint256"
        },
        {
          "indexed": false,
          "internalType": "uint256",
          "name": "amount",
          "type": "uint256"
        }
      ],
      "name": "Unstaked",
      "type": "event"
    },
    {
      "anonymous": false,
      "inputs": [
        {
          "indexed": true,
          "internalType": "address",
          "name": "implementation",
          "type": "address"
        }
      ],
      "name": "Upgraded",
      "type": "event"
    },
    {
      "anonymous": false,
      "inputs": [
        {
          "indexed": true,
          "internalType": "uint256",
          "name": "pid",
          "type": "uint256"
        },
        {
          "indexed": false,
          "internalType": "uint256",
          "name": "amount",
          "type": "uint256"
        }
      ],
      "name": "WithdrawalOrUnstakeScheduled",
      "type": "event"
    },
    {
      "anonymous": false,
      "inputs": [
        {
          "indexed": true,
          "internalType": "address",
          "name": "referrer",
          "type": "address"
        },
        {
          "indexed": false,
          "internalType": "uint256",
          "name": "amount",
          "type": "uint256"
        }
      ],
      "name": "referralPaid",
      "type": "event"
    },
    {
      "anonymous": false,
      "inputs": [
        {
          "indexed": true,
          "internalType": "address",
          "name": "token",
          "type": "address"
        },
        {
          "indexed": true,
          "internalType": "bool",
          "name": "whitelisted",
          "type": "bool"
        }
      ],
      "name": "tokenWhitelistUpdated",
      "type": "event"
    },
    {
      "inputs": [],
      "name": "acceptOwnershipTransfer",
      "outputs": [],
      "stateMutability": "nonpayable",
      "type": "function"
    },
    {
      "inputs": [
        {
          "internalType": "uint256",
          "name": "",
          "type": "uint256"
        }
      ],
      "name": "activeStrategies",
      "outputs": [
        {
          "internalType": "bytes32",
          "name": "",
          "type": "bytes32"
        }
      ],
      "stateMutability": "view",
      "type": "function"
    },
    {
      "inputs": [
        {
          "internalType": "uint256",
          "name": "",
          "type": "uint256"
        }
      ],
      "name": "activeTokens",
      "outputs": [
        {
          "internalType": "address",
          "name": "",
          "type": "address"
        }
      ],
      "stateMutability": "view",
      "type": "function"
    },
    {
      "inputs": [
        {
          "internalType": "address",
          "name": "_token",
          "type": "address"
        },
        {
          "internalType": "address",
          "name": "_projectWallet",
          "type": "address"
        },
        {
          "internalType": "string",
          "name": "_projectName",
          "type": "string"
        },
        {
          "internalType": "address",
          "name": "_referrer",
          "type": "address"
        },
        {
          "internalType": "uint256",
          "name": "_referralFee",
          "type": "uint256"
        },
        {
          "internalType": "uint256",
          "name": "_referralEndTime",
          "type": "uint256"
        }
      ],
      "name": "addNewBountyPool",
      "outputs": [
        {
          "internalType": "uint256",
          "name": "",
          "type": "uint256"
        }
      ],
      "stateMutability": "nonpayable",
      "type": "function"
    },
    {
      "inputs": [
        {
          "internalType": "uint256",
          "name": "_pid",
          "type": "uint256"
        }
      ],
      "name": "billPremium",
      "outputs": [
        {
          "internalType": "bool",
          "name": "",
          "type": "bool"
        }
      ],
      "stateMutability": "nonpayable",
      "type": "function"
    },
    {
      "inputs": [
        {
          "internalType": "uint256",
          "name": "_tokenId",
          "type": "uint256"
        }
      ],
      "name": "claimPremium",
      "outputs": [],
      "stateMutability": "nonpayable",
      "type": "function"
    },
    {
      "inputs": [],
      "name": "collectAllReferralProfits",
      "outputs": [
        {
          "internalType": "bool",
          "name": "",
          "type": "bool"
        }
      ],
      "stateMutability": "nonpayable",
      "type": "function"
    },
    {
      "inputs": [
        {
          "internalType": "address",
          "name": "_saloonWallet",
          "type": "address"
        }
      ],
      "name": "collectAllSaloonProfits",
      "outputs": [
        {
          "internalType": "bool",
          "name": "",
          "type": "bool"
        }
      ],
      "stateMutability": "nonpayable",
      "type": "function"
    },
    {
      "inputs": [
        {
          "internalType": "address",
          "name": "_token",
          "type": "address"
        }
      ],
      "name": "collectReferralProfit",
      "outputs": [
        {
          "internalType": "bool",
          "name": "",
          "type": "bool"
        }
      ],
      "stateMutability": "nonpayable",
      "type": "function"
    },
    {
      "inputs": [
        {
          "internalType": "address",
          "name": "_token",
          "type": "address"
        },
        {
          "internalType": "address",
          "name": "_saloonWallet",
          "type": "address"
        }
      ],
      "name": "collectSaloonProfits",
      "outputs": [
        {
          "internalType": "bool",
          "name": "",
          "type": "bool"
        }
      ],
      "stateMutability": "nonpayable",
      "type": "function"
    },
    {
      "inputs": [
        {
          "internalType": "uint256",
          "name": "_pid",
          "type": "uint256"
        }
      ],
      "name": "compoundYieldForPid",
      "outputs": [],
      "stateMutability": "nonpayable",
      "type": "function"
    },
    {
      "inputs": [
        {
          "internalType": "uint256",
          "name": "_pid",
          "type": "uint256"
        }
      ],
      "name": "consolidate",
      "outputs": [],
      "stateMutability": "nonpayable",
      "type": "function"
    },
    {
      "inputs": [],
      "name": "consolidateAll",
      "outputs": [],
      "stateMutability": "nonpayable",
      "type": "function"
    },
    {
      "inputs": [
        {
          "internalType": "uint256",
          "name": "_pid",
          "type": "uint256"
        },
        {
          "internalType": "uint256",
          "name": "_endTime",
          "type": "uint256"
        }
      ],
      "name": "extendReferralPeriod",
      "outputs": [],
      "stateMutability": "nonpayable",
      "type": "function"
    },
    {
      "inputs": [
        {
          "internalType": "contract ISaloonManager",
          "name": "_saloonManager",
          "type": "address"
        },
        {
          "internalType": "contract ISaloonProjectPortal",
          "name": "_saloonProjectPortal",
          "type": "address"
        },
        {
          "internalType": "contract ISaloonBounty",
          "name": "_saloonBounty",
          "type": "address"
        }
      ],
      "name": "initialize",
      "outputs": [],
      "stateMutability": "nonpayable",
      "type": "function"
    },
    {
      "inputs": [
        {
          "internalType": "uint256",
          "name": "_pid",
          "type": "uint256"
        },
        {
          "internalType": "uint256",
          "name": "_deposit",
          "type": "uint256"
        },
        {
          "internalType": "string",
          "name": "_strategyName",
          "type": "string"
        }
      ],
      "name": "makeProjectDeposit",
      "outputs": [],
      "stateMutability": "nonpayable",
      "type": "function"
    },
    {
      "inputs": [
        {
          "internalType": "address",
          "name": "",
          "type": "address"
        }
      ],
      "name": "minTokenStakeAmount",
      "outputs": [
        {
          "internalType": "uint256",
          "name": "",
          "type": "uint256"
        }
      ],
      "stateMutability": "view",
      "type": "function"
    },
    {
      "inputs": [
        {
          "internalType": "uint256",
          "name": "",
          "type": "uint256"
        }
      ],
      "name": "nftInfo",
      "outputs": [
        {
          "internalType": "uint256",
          "name": "pid",
          "type": "uint256"
        },
        {
          "internalType": "uint256",
          "name": "amount",
          "type": "uint256"
        },
        {
          "internalType": "uint256",
          "name": "xDelta",
          "type": "uint256"
        },
        {
          "internalType": "uint256",
          "name": "apy",
          "type": "uint256"
        },
        {
          "internalType": "uint256",
          "name": "unclaimed",
          "type": "uint256"
        },
        {
          "internalType": "uint256",
          "name": "lastClaimedTime",
          "type": "uint256"
        },
        {
          "internalType": "uint256",
          "name": "timelock",
          "type": "uint256"
        },
        {
          "internalType": "uint256",
          "name": "timelimit",
          "type": "uint256"
        }
      ],
      "stateMutability": "view",
      "type": "function"
    },
    {
      "inputs": [],
      "name": "owner",
      "outputs": [
        {
          "internalType": "address",
          "name": "",
          "type": "address"
        }
      ],
      "stateMutability": "view",
      "type": "function"
    },
    {
      "inputs": [
        {
          "internalType": "uint256",
          "name": "__pid",
          "type": "uint256"
        },
        {
          "internalType": "address",
          "name": "_hunter",
          "type": "address"
        },
        {
          "internalType": "uint16",
          "name": "_payoutBPS",
          "type": "uint16"
        },
        {
          "internalType": "uint16",
          "name": "_hunterBonusBPS",
          "type": "uint16"
        }
      ],
      "name": "payBounty",
      "outputs": [],
      "stateMutability": "nonpayable",
      "type": "function"
    },
    {
      "inputs": [
        {
          "internalType": "uint256",
          "name": "",
          "type": "uint256"
        },
        {
          "internalType": "uint256",
          "name": "",
          "type": "uint256"
        }
      ],
      "name": "pidNFTList",
      "outputs": [
        {
          "internalType": "uint256",
          "name": "",
          "type": "uint256"
        }
      ],
      "stateMutability": "view",
      "type": "function"
    },
    {
      "inputs": [
        {
          "internalType": "uint256",
          "name": "",
          "type": "uint256"
        },
        {
          "internalType": "bytes32",
          "name": "",
          "type": "bytes32"
        }
      ],
      "name": "pidStrategies",
      "outputs": [
        {
          "internalType": "address",
          "name": "",
          "type": "address"
        }
      ],
      "stateMutability": "view",
      "type": "function"
    },
    {
      "inputs": [
        {
          "internalType": "uint256",
          "name": "",
          "type": "uint256"
        }
      ],
      "name": "poolInfo",
      "outputs": [
        {
          "components": [
            {
              "internalType": "contract IERC20",
              "name": "token",
              "type": "address"
            },
            {
              "internalType": "uint8",
              "name": "tokenDecimals",
              "type": "uint8"
            },
            {
              "internalType": "uint16",
              "name": "apy",
              "type": "uint16"
            },
            {
              "internalType": "address",
              "name": "projectWallet",
              "type": "address"
            },
            {
              "internalType": "string",
              "name": "projectName",
              "type": "string"
            },
            {
              "internalType": "uint256",
              "name": "poolCap",
              "type": "uint256"
            },
            {
              "internalType": "uint256",
              "name": "totalStaked",
              "type": "uint256"
            },
            {
              "internalType": "uint256",
              "name": "scalingMultiplier",
              "type": "uint256"
            }
          ],
          "internalType": "struct ISaloon.GeneralInfo",
          "name": "generalInfo",
          "type": "tuple"
        },
        {
          "components": [
            {
              "internalType": "uint256",
              "name": "projectDepositHeld",
              "type": "uint256"
            },
            {
              "internalType": "uint256",
              "name": "projectDepositInStrategy",
              "type": "uint256"
            }
          ],
          "internalType": "struct ISaloon.DepositInfo",
          "name": "depositInfo",
          "type": "tuple"
        },
        {
          "components": [
            {
              "internalType": "uint256",
              "name": "premiumBalance",
              "type": "uint256"
            },
            {
              "internalType": "uint256",
              "name": "premiumAvailable",
              "type": "uint256"
            }
          ],
          "internalType": "struct ISaloon.PremiumInfo",
          "name": "premiumInfo",
          "type": "tuple"
        },
        {
          "components": [
            {
              "internalType": "uint256",
              "name": "timelock",
              "type": "uint256"
            },
            {
              "internalType": "uint256",
              "name": "timeLimit",
              "type": "uint256"
            },
            {
              "internalType": "uint256",
              "name": "withdrawalScheduledAmount",
              "type": "uint256"
            },
            {
              "internalType": "bool",
              "name": "withdrawalExecuted",
              "type": "bool"
            }
          ],
          "internalType": "struct ISaloon.TimelockInfo",
          "name": "poolTimelock",
          "type": "tuple"
        },
        {
          "components": [
            {
              "internalType": "uint256",
              "name": "currentX",
              "type": "uint256"
            },
            {
              "internalType": "uint256",
              "name": "currentY",
              "type": "uint256"
            },
            {
              "internalType": "uint256",
              "name": "totalSupply",
              "type": "uint256"
            },
            {
              "internalType": "uint256[]",
              "name": "unstakedTokens",
              "type": "uint256[]"
            }
          ],
          "internalType": "struct ISaloon.CurveInfo",
          "name": "curveInfo",
          "type": "tuple"
        },
        {
          "components": [
            {
              "internalType": "address",
              "name": "referrer",
              "type": "address"
            },
            {
              "internalType": "uint256",
              "name": "referralFee",
              "type": "uint256"
            },
            {
              "internalType": "uint256",
              "name": "endTime",
              "type": "uint256"
            }
          ],
          "internalType": "struct ISaloon.ReferralInfo",
          "name": "referralInfo",
          "type": "tuple"
        },
        {
          "internalType": "uint256",
          "name": "freezeTime",
          "type": "uint256"
        },
        {
          "internalType": "bool",
          "name": "isActive",
          "type": "bool"
        }
      ],
      "stateMutability": "view",
      "type": "function"
    },
    {
      "inputs": [
        {
          "internalType": "uint256",
          "name": "_pid",
          "type": "uint256"
        },
        {
          "internalType": "uint256",
          "name": "_amount",
          "type": "uint256"
        }
      ],
      "name": "projectDepositWithdrawal",
      "outputs": [
        {
          "internalType": "bool",
          "name": "",
          "type": "bool"
        }
      ],
      "stateMutability": "nonpayable",
      "type": "function"
    },
    {
      "inputs": [],
      "name": "proxiableUUID",
      "outputs": [
        {
          "internalType": "bytes32",
          "name": "",
          "type": "bytes32"
        }
      ],
      "stateMutability": "view",
      "type": "function"
    },
    {
      "inputs": [
        {
          "internalType": "address",
          "name": "_token",
          "type": "address"
        },
        {
          "internalType": "uint256",
          "name": "_amount",
          "type": "uint256"
        }
      ],
      "name": "receiveStrategyYield",
      "outputs": [],
      "stateMutability": "nonpayable",
      "type": "function"
    },
    {
      "inputs": [
        {
          "internalType": "address",
          "name": "",
          "type": "address"
        },
        {
          "internalType": "address",
          "name": "",
          "type": "address"
        }
      ],
      "name": "referralBalances",
      "outputs": [
        {
          "internalType": "uint256",
          "name": "",
          "type": "uint256"
        }
      ],
      "stateMutability": "view",
      "type": "function"
    },
    {
      "inputs": [],
      "name": "saloonBounty",
      "outputs": [
        {
          "internalType": "contract ISaloonBounty",
          "name": "",
          "type": "address"
        }
      ],
      "stateMutability": "view",
      "type": "function"
    },
    {
      "inputs": [
        {
          "internalType": "address",
          "name": "",
          "type": "address"
        }
      ],
      "name": "saloonBountyProfit",
      "outputs": [
        {
          "internalType": "uint256",
          "name": "",
          "type": "uint256"
        }
      ],
      "stateMutability": "view",
      "type": "function"
    },
    {
      "inputs": [],
      "name": "saloonManager",
      "outputs": [
        {
          "internalType": "contract ISaloonManager",
          "name": "",
          "type": "address"
        }
      ],
      "stateMutability": "view",
      "type": "function"
    },
    {
      "inputs": [
        {
          "internalType": "address",
          "name": "",
          "type": "address"
        }
      ],
      "name": "saloonPremiumProfit",
      "outputs": [
        {
          "internalType": "uint256",
          "name": "",
          "type": "uint256"
        }
      ],
      "stateMutability": "view",
      "type": "function"
    },
    {
      "inputs": [],
      "name": "saloonProjectPortal",
      "outputs": [
        {
          "internalType": "contract ISaloonProjectPortal",
          "name": "",
          "type": "address"
        }
      ],
      "stateMutability": "view",
      "type": "function"
    },
    {
      "inputs": [
        {
          "internalType": "address",
          "name": "",
          "type": "address"
        }
      ],
      "name": "saloonStrategyProfit",
      "outputs": [
        {
          "internalType": "uint256",
          "name": "",
          "type": "uint256"
        }
      ],
      "stateMutability": "view",
      "type": "function"
    },
    {
      "inputs": [
        {
          "internalType": "uint256",
          "name": "_pid",
          "type": "uint256"
        },
        {
          "internalType": "uint256",
          "name": "_amount",
          "type": "uint256"
        }
      ],
      "name": "scheduleProjectDepositWithdrawal",
      "outputs": [
        {
          "internalType": "bool",
          "name": "",
          "type": "bool"
        }
      ],
      "stateMutability": "nonpayable",
      "type": "function"
    },
    {
      "inputs": [
        {
          "internalType": "uint256",
          "name": "_tokenId",
          "type": "uint256"
        }
      ],
      "name": "scheduleUnstake",
      "outputs": [
        {
          "internalType": "bool",
          "name": "",
          "type": "bool"
        }
      ],
      "stateMutability": "nonpayable",
      "type": "function"
    },
    {
      "inputs": [
        {
          "internalType": "uint256",
          "name": "_pid",
          "type": "uint256"
        },
        {
          "internalType": "uint256",
          "name": "_poolCap",
          "type": "uint256"
        },
        {
          "internalType": "uint16",
          "name": "_apy",
          "type": "uint16"
        },
        {
          "internalType": "uint256",
          "name": "_deposit",
          "type": "uint256"
        },
        {
          "internalType": "string",
          "name": "_strategyName",
          "type": "string"
        }
      ],
      "name": "setAPYandPoolCapAndDeposit",
      "outputs": [],
      "stateMutability": "nonpayable",
      "type": "function"
    },
    {
      "inputs": [
        {
          "internalType": "contract ISaloonManager",
          "name": "_saloonManager",
          "type": "address"
        },
        {
          "internalType": "contract ISaloonProjectPortal",
          "name": "_saloonProjectPortal",
          "type": "address"
        },
        {
          "internalType": "contract ISaloonBounty",
          "name": "_saloonBounty",
          "type": "address"
        }
      ],
      "name": "setImplementations",
      "outputs": [],
      "stateMutability": "nonpayable",
      "type": "function"
    },
    {
      "inputs": [
        {
          "internalType": "uint256",
          "name": "_pid",
          "type": "uint256"
        },
        {
          "internalType": "uint256",
          "name": "_amount",
          "type": "uint256"
        }
      ],
      "name": "stake",
      "outputs": [],
      "stateMutability": "nonpayable",
      "type": "function"
    },
    {
      "inputs": [
        {
          "internalType": "address",
          "name": "",
          "type": "address"
        }
      ],
      "name": "strategyAddressToPid",
      "outputs": [
        {
          "internalType": "uint256",
          "name": "",
          "type": "uint256"
        }
      ],
      "stateMutability": "view",
      "type": "function"
    },
    {
      "inputs": [
        {
          "internalType": "address",
          "name": "",
          "type": "address"
        }
      ],
      "name": "tokenWhitelist",
      "outputs": [
        {
          "internalType": "bool",
          "name": "",
          "type": "bool"
        }
      ],
      "stateMutability": "view",
      "type": "function"
    },
    {
      "inputs": [
        {
          "internalType": "address",
          "name": "newOwner",
          "type": "address"
        }
      ],
      "name": "transferOwnership",
      "outputs": [],
      "stateMutability": "nonpayable",
      "type": "function"
    },
    {
      "inputs": [
        {
          "internalType": "uint256",
          "name": "_tokenId",
          "type": "uint256"
        },
        {
          "internalType": "bool",
          "name": "_shouldHarvest",
          "type": "bool"
        }
      ],
      "name": "unstake",
      "outputs": [
        {
          "internalType": "bool",
          "name": "",
          "type": "bool"
        }
      ],
      "stateMutability": "nonpayable",
      "type": "function"
    },
    {
      "inputs": [
        {
          "internalType": "uint256",
          "name": "_pid",
          "type": "uint256"
        },
        {
          "internalType": "address",
          "name": "_projectWallet",
          "type": "address"
        }
      ],
      "name": "updateProjectWalletAddress",
      "outputs": [],
      "stateMutability": "nonpayable",
      "type": "function"
    },
    {
      "inputs": [
        {
          "internalType": "address",
          "name": "_token",
          "type": "address"
        },
        {
          "internalType": "bool",
          "name": "_whitelisted",
          "type": "bool"
        },
        {
          "internalType": "uint256",
          "name": "_minStakeAmount",
          "type": "uint256"
        }
      ],
      "name": "updateTokenWhitelist",
      "outputs": [
        {
          "internalType": "bool",
          "name": "",
          "type": "bool"
        }
      ],
      "stateMutability": "nonpayable",
      "type": "function"
    },
    {
      "inputs": [
        {
          "internalType": "address",
          "name": "newImplementation",
          "type": "address"
        }
      ],
      "name": "upgradeTo",
      "outputs": [],
      "stateMutability": "nonpayable",
      "type": "function"
    },
    {
      "inputs": [
        {
          "internalType": "address",
          "name": "newImplementation",
          "type": "address"
        },
        {
          "internalType": "bytes",
          "name": "data",
          "type": "bytes"
        }
      ],
      "name": "upgradeToAndCall",
      "outputs": [],
      "stateMutability": "payable",
      "type": "function"
    },
    {
      "inputs": [
        {
          "internalType": "uint256",
          "name": "_pid",
          "type": "uint256"
        }
      ],
      "name": "windDownBounty",
      "outputs": [
        {
          "internalType": "bool",
          "name": "",
          "type": "bool"
        }
      ],
      "stateMutability": "nonpayable",
      "type": "function"
    },
    {
      "inputs": [
        {
          "internalType": "uint256",
          "name": "_pid",
          "type": "uint256"
        }
      ],
      "name": "withdrawProjectYield",
      "outputs": [
        {
          "internalType": "uint256",
          "name": "returnedAmount",
          "type": "uint256"
        }
      ],
      "stateMutability": "nonpayable",
      "type": "function"
    }
  ],
  "bytecode": {
    "object": "0x60a06040523060805234801561001457600080fd5b5060805161243161004c60003960008181610e0101528181610e4a01528181610f2f01528181610f6f015261100201526124316000f3fe6080604052600436106102935760003560e01c80638da5cb5b1161015a578063b842e87f116100c1578063db53e8b51161007a578063db53e8b5146108f1578063e45abd0f14610911578063e78ea3df1461093e578063ecd7fbed1461095e578063f2fde38b1461097e578063f47ec3be1461099e57600080fd5b8063b842e87f1461082f578063bb7019c114610844578063c0c53b8b14610864578063ca00614814610884578063cf9564b9146108b1578063d075afac146108d157600080fd5b8063995974c411610113578063995974c4146107625780639ebea88c146107825780639f224f35146107a2578063a089a520146107c2578063ae07f948146107e2578063b20b24291461080257600080fd5b80638da5cb5b146106975780639300d238146106b5578063949a4a4a146106d5578063957deecc146106f557806396ea48e814610722578063983c1ce01461074257600080fd5b80633659cfe6116101fe578063598d17bf116101b7578063598d17bf146105c55780635de406dc146105f2578063753d75631461061257806375bfd63d1461064257806379923898146106575780637b0472f01461067757600080fd5b80633659cfe61461051b578063394587231461053b5780633e8888d9146105685780634f1ef2861461057d57806352d1902d146105905780635669cbef146105a557600080fd5b8063220e112411610250578063220e11241461045b578063277fd2a11461047b5780632cb0dfcc1461049b5780632dbe051e146104bb57806330ca0794146104db57806332fce602146104fb57600080fd5b8063011b408b14610298578063074ecf03146102e3578063106d08df1461033c5780631526fe271461036c5780631aebcecb146103a05780631f8bc790146103c2575b600080fd5b3480156102a457600080fd5b506102d06102b3366004611b6b565b600960209081526000928352604080842090915290825290205481565b6040519081526020015b60405180910390f35b3480156102ef57600080fd5b506103246102fe366004611ba4565b600b6020908152600092835260408084209091529082529020546001600160a01b031681565b6040516001600160a01b0390911681526020016102da565b34801561034857600080fd5b5061035c610357366004611bc6565b6109be565b60405190151581526020016102da565b34801561037857600080fd5b5061038c610387366004611bc6565b610a28565b6040516102da989796959493929190611c8f565b3480156103ac57600080fd5b506103c06103bb366004611dca565b610c84565b005b3480156103ce57600080fd5b506104206103dd366004611bc6565b6004602081905260009182526040909120805460018201546002830154600384015494840154600585015460068601546007909601549496939592949192909188565b604080519889526020890197909752958701949094526060860192909252608085015260a084015260c083015260e0820152610100016102da565b34801561046757600080fd5b50600054610324906001600160a01b031681565b34801561048757600080fd5b50600154610324906001600160a01b031681565b3480156104a757600080fd5b5061035c6104b6366004611e0b565b610cf7565b3480156104c757600080fd5b5061035c6104d6366004611bc6565b610d78565b3480156104e757600080fd5b506103c06104f6366004611f07565b610d98565b34801561050757600080fd5b506102d0610516366004611f72565b610dc4565b34801561052757600080fd5b506103c0610536366004611ff9565b610df7565b34801561054757600080fd5b506102d0610556366004611ff9565b60106020526000908152604090205481565b34801561057457600080fd5b5061035c610edf565b6103c061058b366004612016565b610f25565b34801561059c57600080fd5b506102d0610ff5565b3480156105b157600080fd5b5061035c6105c0366004611ba4565b6110a8565b3480156105d157600080fd5b506102d06105e0366004611ff9565b60086020526000908152604090205481565b3480156105fe57600080fd5b506103c061060d366004611ba4565b6110d8565b34801561061e57600080fd5b5061035c61062d366004611ff9565b600e6020526000908152604090205460ff1681565b34801561064e57600080fd5b506103c06110fe565b34801561066357600080fd5b50600254610324906001600160a01b031681565b34801561068357600080fd5b506103c0610692366004611ba4565b61113f565b3480156106a357600080fd5b506044546001600160a01b0316610324565b3480156106c157600080fd5b506103c06106d036600461207a565b611165565b3480156106e157600080fd5b506103c06106f0366004611bc6565b6111ac565b34801561070157600080fd5b506102d0610710366004611ff9565b600d6020526000908152604090205481565b34801561072e57600080fd5b506102d061073d366004611ba4565b6111cb565b34801561074e57600080fd5b5061035c61075d366004611ba4565b6111fc565b34801561076e57600080fd5b506103c061077d3660046120c5565b611225565b34801561078e57600080fd5b5061035c61079d3660046120ea565b611253565b3480156107ae57600080fd5b506103246107bd366004611bc6565b61127d565b3480156107ce57600080fd5b5061035c6107dd366004611ff9565b6112a7565b3480156107ee57600080fd5b506103c06107fd366004612116565b6112d1565b34801561080e57600080fd5b506102d061081d366004611bc6565b600c6020526000908152604090205481565b34801561083b57600080fd5b506103c06112f7565b34801561085057600080fd5b5061035c61085f366004611bc6565b611377565b34801561087057600080fd5b506103c061087f36600461207a565b611397565b34801561089057600080fd5b506102d061089f366004611ff9565b60076020526000908152604090205481565b3480156108bd57600080fd5b5061035c6108cc366004611b6b565b6114b5565b3480156108dd57600080fd5b506103c06108ec366004612166565b6114e7565b3480156108fd57600080fd5b506102d061090c366004611bc6565b61152e565b34801561091d57600080fd5b506102d061092c366004611ff9565b60066020526000908152604090205481565b34801561094a57600080fd5b506103c0610959366004611bc6565b61154e565b34801561096a57600080fd5b5061035c610979366004611ff9565b61156d565b34801561098a57600080fd5b506103c0610999366004611ff9565b611597565b3480156109aa57600080fd5b506103c06109b9366004611bc6565b611626565b6000610a2263106d08df60e01b836040516024016109de91815260200190565b60408051601f198184030181529190526020810180516001600160e01b03166001600160e01b0319909316929092179091526002546001600160a01b031690611645565b50919050565b60038181548110610a3857600080fd5b60009182526020918290206040805161010081018252601790930290910180546001600160a01b03808216855260ff600160a01b8304169585019590955261ffff600160a81b909104169183019190915260018101549092166060820152600282018054929350909183916080840191610ab1906121b5565b80601f0160208091040260200160405190810160405280929190818152602001828054610add906121b5565b8015610b2a5780601f10610aff57610100808354040283529160200191610b2a565b820191906000526020600020905b815481529060010190602001808311610b0d57829003601f168201915b50505091835250506003820154602080830191909152600483015460408084019190915260059093015460609283015282518084018452600686015481526007860154818301528351808501855260088701548152600987015481840152845160808082018752600a8901548252600b89015482860152600c89015482880152600d89015460ff1615158287015286519081018752600e890180548252600f8a01548287015260108a01548289015260118a018054895181890281018901909a52808a52999a9599949893979596929591949186019392909190830182828015610c3357602002820191906000526020600020905b815481526020019060010190808311610c1f575b5050509190925250506040805160608101825260128501546001600160a01b031681526013850154602082015260148501549181019190915260158401546016909401549293909290915060ff1688565b6040516001600160a01b038316602482015260448101829052610cf290631aebcecb60e01b906064015b60408051601f198184030181529190526020810180516001600160e01b03166001600160e01b0319909316929092179091526001546001600160a01b031690611645565b505050565b6040516001600160a01b0384166024820152821515604482015260648101829052600090610d7090630b2c37f360e21b906084015b60408051601f198184030181529190526020810180516001600160e01b03166001600160e01b0319909316929092179091526000546001600160a01b031690611645565b509392505050565b6000610a22632dbe051e60e01b83604051602401610d2c91815260200190565b610dbc6330ca079460e01b8686868686604051602401610cae9594939291906121e9565b505050505050565b6000610dec6332fce60260e01b888888888888604051602401610d2c96959493929190612223565b509695505050505050565b6001600160a01b037f0000000000000000000000000000000000000000000000000000000000000000163003610e485760405162461bcd60e51b8152600401610e3f9061226a565b60405180910390fd5b7f00000000000000000000000000000000000000000000000000000000000000006001600160a01b0316610e916000805160206123b5833981519152546001600160a01b031690565b6001600160a01b031614610eb75760405162461bcd60e51b8152600401610e3f906122b6565b610ec08161168e565b60408051600080825260208201909252610edc91839190611696565b50565b6040805160048152602481019091526020810180516001600160e01b0316633e8888d960e01b179052600080549091610f21916001600160a01b031690611645565b5090565b6001600160a01b037f0000000000000000000000000000000000000000000000000000000000000000163003610f6d5760405162461bcd60e51b8152600401610e3f9061226a565b7f00000000000000000000000000000000000000000000000000000000000000006001600160a01b0316610fb66000805160206123b5833981519152546001600160a01b031690565b6001600160a01b031614610fdc5760405162461bcd60e51b8152600401610e3f906122b6565b610fe58261168e565b610ff182826001611696565b5050565b6000306001600160a01b037f000000000000000000000000000000000000000000000000000000000000000016146110955760405162461bcd60e51b815260206004820152603860248201527f555550535570677261646561626c653a206d757374206e6f742062652063616c60448201527f6c6564207468726f7567682064656c656761746563616c6c00000000000000006064820152608401610e3f565b506000805160206123b583398151915290565b60405160248101839052604481018290526000906110d190635669cbef60e01b90606401610cae565b5092915050565b6040516024810183905260448101829052610cf29063177901b760e21b90606401610d2c565b6040805160048152602481019091526020810180516001600160e01b03166375bfd63d60e01b179052600254610edc916001600160a01b0390911690611645565b6040516024810183905260448101829052610cf2906307b0472f60e41b906064016109de565b61116d611801565b600080546001600160a01b039485166001600160a01b031991821617909155600180549385169382169390931790925560028054919093169116179055565b60405160248101829052610ff190634a4d252560e11b906044016109de565b600560205281600052604060002081815481106111e757600080fd5b90600052602060002001600091509150505481565b60405160248101839052604481018290526000906110d1906304c1e0e760e51b90606401610cae565b604051602481018390526001600160a01b0382166044820152610cf2906326565d3160e21b90606401610cae565b6040516024810183905281151560448201526000906110d1906327afaa2360e21b906064016109de565b600f818154811061128d57600080fd5b6000918252602090912001546001600160a01b0316905081565b6040516001600160a01b0382166024820152600090610a22906305044d2960e51b90604401610d2c565b6112f163ae07f94860e01b848484604051602401610cae93929190612302565b50505050565b6045546001600160a01b031633146113605760405162461bcd60e51b815260206004820152602660248201527f6f6e6c792070656e64696e67206f776e65722063616e2061636365707420747260448201526530b739b332b960d11b6064820152608401610e3f565b604554611375906001600160a01b031661185b565b565b6000610a2263bb7019c160e01b83604051602401610cae91815260200190565b601154610100900460ff16158080156113b75750601154600160ff909116105b806113d15750303b1580156113d1575060115460ff166001145b6114345760405162461bcd60e51b815260206004820152602e60248201527f496e697469616c697a61626c653a20636f6e747261637420697320616c72656160448201526d191e481a5b9a5d1a585b1a5e995960921b6064820152608401610e3f565b6011805460ff191660011790558015611457576011805461ff0019166101001790555b61145f6118b8565b61146a848484611165565b80156112f1576011805461ff0019169055604051600181527f7f26b83ff96e1f2b6a682f133852f6798a09c465da95921460cefb38474024989060200160405180910390a150505050565b6040516001600160a01b038084166024830152821660448201526000906110d19063cf9564b960e01b90606401610d2c565b604051602481018590526001600160a01b038416604482015261ffff8084166064830152821660848201526115279063341d6beb60e21b9060a4016109de565b5050505050565b6000610a2263db53e8b560e01b83604051602401610cae91815260200190565b60405160248101829052610ff19063e78ea3df60e01b90604401610cae565b6040516001600160a01b0382166024820152600090610a229063ecd7fbed60e01b90604401610d2c565b61159f611801565b6001600160a01b0381166116045760405162461bcd60e51b815260206004820152602660248201527f4f776e61626c653a206e6577206f776e657220697320746865207a65726f206160448201526564647265737360d01b6064820152608401610e3f565b604580546001600160a01b0319166001600160a01b0392909216919091179055565b60405160248101829052610ff190637a3f61df60e11b906044016109de565b6040518151600090819060208501865af4611677573d61166e5763037b81af60e11b8152600481fd5b3d6000823e3d81fd5b3d8152602081013d6000823e3d0160405292915050565b610edc611801565b7f4910fdfa16fed3260ed0e7147f7cc6da11a60208b5b9406d12a635614ffd91435460ff16156116c957610cf2836118e7565b826001600160a01b03166352d1902d6040518163ffffffff1660e01b8152600401602060405180830381865afa925050508015611723575060408051601f3d908101601f1916820190925261172091810190612321565b60015b6117865760405162461bcd60e51b815260206004820152602e60248201527f45524331393637557067726164653a206e657720696d706c656d656e7461746960448201526d6f6e206973206e6f74205555505360901b6064820152608401610e3f565b6000805160206123b583398151915281146117f55760405162461bcd60e51b815260206004820152602960248201527f45524331393637557067726164653a20756e737570706f727465642070726f786044820152681a58589b195555525160ba1b6064820152608401610e3f565b50610cf2838383611983565b6044546001600160a01b031633146113755760405162461bcd60e51b815260206004820181905260248201527f4f776e61626c653a2063616c6c6572206973206e6f7420746865206f776e65726044820152606401610e3f565b604480546001600160a01b038381166001600160a01b03198084168217909455604580549094169093556040519116919082907f8be0079c531659141344cd1fd0a4f28419497f9722a3daafe3b4186f6b6457e090600090a35050565b601154610100900460ff166118df5760405162461bcd60e51b8152600401610e3f9061233a565b6113756119a8565b6001600160a01b0381163b6119545760405162461bcd60e51b815260206004820152602d60248201527f455243313936373a206e657720696d706c656d656e746174696f6e206973206e60448201526c1bdd08184818dbdb9d1c9858dd609a1b6064820152608401610e3f565b6000805160206123b583398151915280546001600160a01b0319166001600160a01b0392909216919091179055565b61198c836119d8565b6000825111806119995750805b15610cf2576112f18383611a18565b601154610100900460ff166119cf5760405162461bcd60e51b8152600401610e3f9061233a565b6113753361185b565b6119e1816118e7565b6040516001600160a01b038216907fbc7cd75a20ee27fd9adebab32041f755214dbc6bffa90cc0225b39da2e5c2d3b90600090a250565b60606001600160a01b0383163b611a805760405162461bcd60e51b815260206004820152602660248201527f416464726573733a2064656c65676174652063616c6c20746f206e6f6e2d636f6044820152651b9d1c9858dd60d21b6064820152608401610e3f565b600080846001600160a01b031684604051611a9b9190612385565b600060405180830381855af49150503d8060008114611ad6576040519150601f19603f3d011682016040523d82523d6000602084013e611adb565b606091505b5091509150611b0382826040518060600160405280602781526020016123d560279139611b0c565b95945050505050565b60608315611b1b575081611b25565b611b258383611b2c565b9392505050565b815115611b3c5781518083602001fd5b8060405162461bcd60e51b8152600401610e3f91906123a1565b6001600160a01b0381168114610edc57600080fd5b60008060408385031215611b7e57600080fd5b8235611b8981611b56565b91506020830135611b9981611b56565b809150509250929050565b60008060408385031215611bb757600080fd5b50508035926020909101359150565b600060208284031215611bd857600080fd5b5035919050565b60005b83811015611bfa578181015183820152602001611be2565b50506000910152565b60008151808452611c1b816020860160208601611bdf565b601f01601f19169290920160200192915050565b60006080830182518452602080840151818601526040840151604086015260608401516080606087015282815180855260a0880191508383019450600092505b80831015610dec5784518252938301936001929092019190830190611c6f565b6101e080825289516001600160a01b039081169183019190915260208a015160ff1661020083015260408a015161ffff1661022083015260608a0151166102408201526080890151610100610260830152600090611cf16102e0840182611c03565b905060a08b015161028084015260c08b01516102a084015260e08b01516102c0840152611d2b602084018b80518252602090810151910152565b8851606084015260208901516080840152875160a0840152602088015160c0840152604088015160e084015260608801511515610100840152828103610120840152611d778188611c2f565b86516001600160a01b0316610140850152602087015161016085015260408701516101808501529150611da79050565b836101a0830152611dbd6101c083018415159052565b9998505050505050505050565b60008060408385031215611ddd57600080fd5b8235611de881611b56565b946020939093013593505050565b80358015158114611e0657600080fd5b919050565b600080600060608486031215611e2057600080fd5b8335611e2b81611b56565b9250611e3960208501611df6565b9150604084013590509250925092565b803561ffff81168114611e0657600080fd5b634e487b7160e01b600052604160045260246000fd5b600067ffffffffffffffff80841115611e8c57611e8c611e5b565b604051601f8501601f19908116603f01168101908282118183101715611eb457611eb4611e5b565b81604052809350858152868686011115611ecd57600080fd5b858560208301376000602087830101525050509392505050565b600082601f830112611ef857600080fd5b611b2583833560208501611e71565b600080600080600060a08688031215611f1f57600080fd5b8535945060208601359350611f3660408701611e49565b925060608601359150608086013567ffffffffffffffff811115611f5957600080fd5b611f6588828901611ee7565b9150509295509295909350565b60008060008060008060c08789031215611f8b57600080fd5b8635611f9681611b56565b95506020870135611fa681611b56565b9450604087013567ffffffffffffffff811115611fc257600080fd5b611fce89828a01611ee7565b9450506060870135611fdf81611b56565b9598949750929560808101359460a0909101359350915050565b60006020828403121561200b57600080fd5b8135611b2581611b56565b6000806040838503121561202957600080fd5b823561203481611b56565b9150602083013567ffffffffffffffff81111561205057600080fd5b8301601f8101851361206157600080fd5b61207085823560208401611e71565b9150509250929050565b60008060006060848603121561208f57600080fd5b833561209a81611b56565b925060208401356120aa81611b56565b915060408401356120ba81611b56565b809150509250925092565b600080604083850312156120d857600080fd5b823591506020830135611b9981611b56565b600080604083850312156120fd57600080fd5b8235915061210d60208401611df6565b90509250929050565b60008060006060848603121561212b57600080fd5b8335925060208401359150604084013567ffffffffffffffff81111561215057600080fd5b61215c86828701611ee7565b9150509250925092565b6000806000806080858703121561217c57600080fd5b84359350602085013561218e81611b56565b925061219c60408601611e49565b91506121aa60608601611e49565b905092959194509250565b600181811c908216806121c957607f821691505b602082108103610a2257634e487b7160e01b600052602260045260246000fd5b85815284602082015261ffff8416604082015282606082015260a06080820152600061221860a0830184611c03565b979650505050505050565b600060018060a01b038089168352808816602084015260c0604084015261224d60c0840188611c03565b9516606083015250608081019290925260a0909101529392505050565b6020808252602c908201527f46756e6374696f6e206d7573742062652063616c6c6564207468726f7567682060408201526b19195b1959d85d1958d85b1b60a21b606082015260800190565b6020808252602c908201527f46756e6374696f6e206d7573742062652063616c6c6564207468726f7567682060408201526b6163746976652070726f787960a01b606082015260800190565b838152826020820152606060408201526000611b036060830184611c03565b60006020828403121561233357600080fd5b5051919050565b6020808252602b908201527f496e697469616c697a61626c653a20636f6e7472616374206973206e6f74206960408201526a6e697469616c697a696e6760a81b606082015260800190565b60008251612397818460208701611bdf565b9190910192915050565b602081526000611b256020830184611c0356fe360894a13ba1a3210667c828492db98dca3e2076cc3735a920a3ca505d382bbc416464726573733a206c6f772d6c6576656c2064656c65676174652063616c6c206661696c6564a2646970667358221220b3d4d275f2113fd6767a6b9e74d3d13ef99406403acb7fb41a6433204c7df80664736f6c63430008110033",
    "linkReferences": {}
  },
  "methodIdentifiers": {
    "acceptOwnershipTransfer()": "b842e87f",
    "activeStrategies(uint256)": "b20b2429",
    "activeTokens(uint256)": "9f224f35",
    "addNewBountyPool(address,address,string,address,uint256,uint256)": "32fce602",
    "billPremium(uint256)": "2dbe051e",
    "claimPremium(uint256)": "f47ec3be",
    "collectAllReferralProfits()": "3e8888d9",
    "collectAllSaloonProfits(address)": "ecd7fbed",
    "collectReferralProfit(address)": "a089a520",
    "collectSaloonProfits(address,address)": "cf9564b9",
    "compoundYieldForPid(uint256)": "e78ea3df",
    "consolidate(uint256)": "949a4a4a",
    "consolidateAll()": "75bfd63d",
    "extendReferralPeriod(uint256,uint256)": "5de406dc",
    "initialize(address,address,address)": "c0c53b8b",
    "makeProjectDeposit(uint256,uint256,string)": "ae07f948",
    "minTokenStakeAmount(address)": "39458723",
    "nftInfo(uint256)": "1f8bc790",
    "owner()": "8da5cb5b",
    "payBounty(uint256,address,uint16,uint16)": "d075afac",
    "pidNFTList(uint256,uint256)": "96ea48e8",
    "pidStrategies(uint256,bytes32)": "074ecf03",
    "poolInfo(uint256)": "1526fe27",
    "projectDepositWithdrawal(uint256,uint256)": "983c1ce0",
    "proxiableUUID()": "52d1902d",
    "receiveStrategyYield(address,uint256)": "1aebcecb",
    "referralBalances(address,address)": "011b408b",
    "saloonBounty()": "79923898",
    "saloonBountyProfit(address)": "e45abd0f",
    "saloonManager()": "220e1124",
    "saloonPremiumProfit(address)": "ca006148",
    "saloonProjectPortal()": "277fd2a1",
    "saloonStrategyProfit(address)": "598d17bf",
    "scheduleProjectDepositWithdrawal(uint256,uint256)": "5669cbef",
    "scheduleUnstake(uint256)": "106d08df",
    "setAPYandPoolCapAndDeposit(uint256,uint256,uint16,uint256,string)": "30ca0794",
    "setImplementations(address,address,address)": "9300d238",
    "stake(uint256,uint256)": "7b0472f0",
    "strategyAddressToPid(address)": "957deecc",
    "tokenWhitelist(address)": "753d7563",
    "transferOwnership(address)": "f2fde38b",
    "unstake(uint256,bool)": "9ebea88c",
    "updateProjectWalletAddress(uint256,address)": "995974c4",
    "updateTokenWhitelist(address,bool,uint256)": "2cb0dfcc",
    "upgradeTo(address)": "3659cfe6",
    "upgradeToAndCall(address,bytes)": "4f1ef286",
    "windDownBounty(uint256)": "bb7019c1",
    "withdrawProjectYield(uint256)": "db53e8b5"
  },
  "id": 43
}