{
  "abi": [
    {
      "inputs": [
        {
          "internalType": "address",
          "name": "_logic",
          "type": "address"
        },
        {
          "internalType": "bytes",
          "name": "_data",
          "type": "bytes"
        }
      ],
      "stateMutability": "payable",
      "type": "constructor"
    },
    {
      "anonymous": false,
      "inputs": [
        {
          "indexed": false,
          "internalType": "address",
          "name": "previousAdmin",
          "type": "address"
        },
        {
          "indexed": false,
          "internalType": "address",
          "name": "newAdmin",
          "type": "address"
        }
      ],
      "name": "AdminChanged",
      "type": "event"
    },
    {
      "anonymous": false,
      "inputs": [
        {
          "indexed": true,
          "internalType": "address",
          "name": "beacon",
          "type": "address"
        }
      ],
      "name": "BeaconUpgraded",
      "type": "event"
    },
    {
      "anonymous": false,
      "inputs": [
        {
          "indexed": true,
          "internalType": "address",
          "name": "implementation",
          "type": "address"
        }
      ],
      "name": "Upgraded",
      "type": "event"
    },
    {
      "stateMutability": "payable",
      "type": "fallback"
    },
    {
      "inputs": [
        {
          "internalType": "address",
          "name": "_token",
          "type": "address"
        },
        {
          "internalType": "address",
          "name": "_projectWallet",
          "type": "address"
        },
        {
          "internalType": "string",
          "name": "_projectName",
          "type": "string"
        },
        {
          "internalType": "address",
          "name": "_referrer",
          "type": "address"
        },
        {
          "internalType": "uint256",
          "name": "_referralFee",
          "type": "uint256"
        },
        {
          "internalType": "uint256",
          "name": "_referralEndTime",
          "type": "uint256"
        }
      ],
      "name": "addNewBountyPool",
      "outputs": [
        {
          "internalType": "uint256",
          "name": "",
          "type": "uint256"
        }
      ],
      "stateMutability": "nonpayable",
      "type": "function"
    },
    {
      "inputs": [
        {
          "internalType": "uint256",
          "name": "_pid",
          "type": "uint256"
        }
      ],
      "name": "billPremium",
      "outputs": [
        {
          "internalType": "bool",
          "name": "",
          "type": "bool"
        }
      ],
      "stateMutability": "nonpayable",
      "type": "function"
    },
    {
      "inputs": [
        {
          "internalType": "uint256",
          "name": "_pid",
          "type": "uint256"
        },
        {
          "internalType": "uint256",
          "name": "_stake",
          "type": "uint256"
        },
        {
          "internalType": "uint256",
          "name": "_x",
          "type": "uint256"
        }
      ],
      "name": "calculateEffectiveAPY",
      "outputs": [
        {
          "internalType": "uint256",
          "name": "scaledAPY",
          "type": "uint256"
        }
      ],
      "stateMutability": "view",
      "type": "function"
    },
    {
      "inputs": [
        {
          "internalType": "uint256",
          "name": "_tokenId",
          "type": "uint256"
        }
      ],
      "name": "claimPremium",
      "outputs": [],
      "stateMutability": "nonpayable",
      "type": "function"
    },
    {
      "inputs": [],
      "name": "collectAllReferralProfits",
      "outputs": [
        {
          "internalType": "bool",
          "name": "",
          "type": "bool"
        }
      ],
      "stateMutability": "nonpayable",
      "type": "function"
    },
    {
      "inputs": [
        {
          "internalType": "address",
          "name": "_saloonWallet",
          "type": "address"
        }
      ],
      "name": "collectAllSaloonProfits",
      "outputs": [
        {
          "internalType": "bool",
          "name": "",
          "type": "bool"
        }
      ],
      "stateMutability": "nonpayable",
      "type": "function"
    },
    {
      "inputs": [
        {
          "internalType": "address",
          "name": "_token",
          "type": "address"
        }
      ],
      "name": "collectReferralProfit",
      "outputs": [
        {
          "internalType": "bool",
          "name": "",
          "type": "bool"
        }
      ],
      "stateMutability": "nonpayable",
      "type": "function"
    },
    {
      "inputs": [
        {
          "internalType": "address",
          "name": "_token",
          "type": "address"
        },
        {
          "internalType": "address",
          "name": "_saloonWallet",
          "type": "address"
        }
      ],
      "name": "collectSaloonProfits",
      "outputs": [
        {
          "internalType": "bool",
          "name": "",
          "type": "bool"
        }
      ],
      "stateMutability": "nonpayable",
      "type": "function"
    },
    {
      "inputs": [
        {
          "internalType": "uint256",
          "name": "_pid",
          "type": "uint256"
        }
      ],
      "name": "compoundYieldForPid",
      "outputs": [],
      "stateMutability": "nonpayable",
      "type": "function"
    },
    {
      "inputs": [
        {
          "internalType": "uint256",
          "name": "_pid",
          "type": "uint256"
        }
      ],
      "name": "consolidate",
      "outputs": [],
      "stateMutability": "nonpayable",
      "type": "function"
    },
    {
      "inputs": [],
      "name": "consolidateAll",
      "outputs": [],
      "stateMutability": "nonpayable",
      "type": "function"
    },
    {
      "inputs": [
        {
          "internalType": "uint256",
          "name": "_pid",
          "type": "uint256"
        },
        {
          "internalType": "uint256",
          "name": "_endTime",
          "type": "uint256"
        }
      ],
      "name": "extendReferralPeriod",
      "outputs": [],
      "stateMutability": "nonpayable",
      "type": "function"
    },
    {
      "inputs": [
        {
          "internalType": "uint256",
          "name": "_pid",
          "type": "uint256"
        },
        {
          "internalType": "uint256",
          "name": "_deposit",
          "type": "uint256"
        },
        {
          "internalType": "string",
          "name": "_strategyName",
          "type": "string"
        }
      ],
      "name": "makeProjectDeposit",
      "outputs": [],
      "stateMutability": "nonpayable",
      "type": "function"
    },
    {
      "inputs": [
        {
          "internalType": "uint256",
          "name": "__pid",
          "type": "uint256"
        },
        {
          "internalType": "address",
          "name": "_hunter",
          "type": "address"
        },
        {
          "internalType": "uint16",
          "name": "_payoutBPS",
          "type": "uint16"
        },
        {
          "internalType": "uint16",
          "name": "_hunterBonusBPS",
          "type": "uint16"
        }
      ],
      "name": "payBounty",
      "outputs": [],
      "stateMutability": "nonpayable",
      "type": "function"
    },
    {
      "inputs": [
        {
          "internalType": "uint256",
          "name": "_pid",
          "type": "uint256"
        },
        {
          "internalType": "uint256",
          "name": "_amount",
          "type": "uint256"
        }
      ],
      "name": "projectDepositWithdrawal",
      "outputs": [
        {
          "internalType": "bool",
          "name": "",
          "type": "bool"
        }
      ],
      "stateMutability": "nonpayable",
      "type": "function"
    },
    {
      "inputs": [
        {
          "internalType": "address",
          "name": "_token",
          "type": "address"
        },
        {
          "internalType": "uint256",
          "name": "_amount",
          "type": "uint256"
        }
      ],
      "name": "receiveStrategyYield",
      "outputs": [],
      "stateMutability": "nonpayable",
      "type": "function"
    },
    {
      "inputs": [
        {
          "internalType": "uint256",
          "name": "_pid",
          "type": "uint256"
        },
        {
          "internalType": "uint256",
          "name": "_amount",
          "type": "uint256"
        }
      ],
      "name": "scheduleProjectDepositWithdrawal",
      "outputs": [
        {
          "internalType": "bool",
          "name": "",
          "type": "bool"
        }
      ],
      "stateMutability": "nonpayable",
      "type": "function"
    },
    {
      "inputs": [
        {
          "internalType": "uint256",
          "name": "_tokenId",
          "type": "uint256"
        }
      ],
      "name": "scheduleUnstake",
      "outputs": [
        {
          "internalType": "bool",
          "name": "",
          "type": "bool"
        }
      ],
      "stateMutability": "nonpayable",
      "type": "function"
    },
    {
      "inputs": [
        {
          "internalType": "uint256",
          "name": "_pid",
          "type": "uint256"
        },
        {
          "internalType": "uint256",
          "name": "_poolCap",
          "type": "uint256"
        },
        {
          "internalType": "uint16",
          "name": "_apy",
          "type": "uint16"
        },
        {
          "internalType": "uint256",
          "name": "_deposit",
          "type": "uint256"
        },
        {
          "internalType": "string",
          "name": "_strategyName",
          "type": "string"
        }
      ],
      "name": "setAPYandPoolCapAndDeposit",
      "outputs": [],
      "stateMutability": "nonpayable",
      "type": "function"
    },
    {
      "inputs": [
        {
          "internalType": "uint256",
          "name": "_pid",
          "type": "uint256"
        },
        {
          "internalType": "uint256",
          "name": "_amount",
          "type": "uint256"
        }
      ],
      "name": "stake",
      "outputs": [],
      "stateMutability": "nonpayable",
      "type": "function"
    },
    {
      "inputs": [
        {
          "internalType": "uint256",
          "name": "_tokenId",
          "type": "uint256"
        },
        {
          "internalType": "bool",
          "name": "_shouldHarvest",
          "type": "bool"
        }
      ],
      "name": "unstake",
      "outputs": [
        {
          "internalType": "bool",
          "name": "",
          "type": "bool"
        }
      ],
      "stateMutability": "nonpayable",
      "type": "function"
    },
    {
      "inputs": [
        {
          "internalType": "uint256",
          "name": "_pid",
          "type": "uint256"
        },
        {
          "internalType": "address",
          "name": "_projectWallet",
          "type": "address"
        }
      ],
      "name": "updateProjectWalletAddress",
      "outputs": [],
      "stateMutability": "nonpayable",
      "type": "function"
    },
    {
      "inputs": [
        {
          "internalType": "address",
          "name": "_token",
          "type": "address"
        },
        {
          "internalType": "bool",
          "name": "_whitelisted",
          "type": "bool"
        },
        {
          "internalType": "uint256",
          "name": "_minStakeAmount",
          "type": "uint256"
        }
      ],
      "name": "updateTokenWhitelist",
      "outputs": [
        {
          "internalType": "bool",
          "name": "",
          "type": "bool"
        }
      ],
      "stateMutability": "nonpayable",
      "type": "function"
    },
    {
      "inputs": [
        {
          "internalType": "uint256",
          "name": "_pid",
          "type": "uint256"
        }
      ],
      "name": "viewBountyBalance",
      "outputs": [
        {
          "internalType": "uint256",
          "name": "",
          "type": "uint256"
        }
      ],
      "stateMutability": "view",
      "type": "function"
    },
    {
      "inputs": [
        {
          "internalType": "uint256",
          "name": "_pid",
          "type": "uint256"
        }
      ],
      "name": "windDownBounty",
      "outputs": [
        {
          "internalType": "bool",
          "name": "",
          "type": "bool"
        }
      ],
      "stateMutability": "nonpayable",
      "type": "function"
    },
    {
      "inputs": [
        {
          "internalType": "uint256",
          "name": "_pid",
          "type": "uint256"
        }
      ],
      "name": "withdrawProjectYield",
      "outputs": [
        {
          "internalType": "uint256",
          "name": "returnedAmount",
          "type": "uint256"
        }
      ],
      "stateMutability": "nonpayable",
      "type": "function"
    },
    {
      "stateMutability": "payable",
      "type": "receive"
    }
  ],
  "bytecode": {
    "object": "0x608060405260405162000ee438038062000ee4833981016040819052620000269162000345565b62000034828260006200003c565b505062000473565b620000478362000079565b600082511180620000555750805b156200007457620000728383620000bb60201b620003dd1760201c565b505b505050565b6200008481620000ea565b6040516001600160a01b038216907fbc7cd75a20ee27fd9adebab32041f755214dbc6bffa90cc0225b39da2e5c2d3b90600090a250565b6060620000e3838360405180606001604052806027815260200162000ebd60279139620001c3565b9392505050565b62000100816200024260201b620004091760201c565b620001685760405162461bcd60e51b815260206004820152602d60248201527f455243313936373a206e657720696d706c656d656e746174696f6e206973206e60448201526c1bdd08184818dbdb9d1c9858dd609a1b60648201526084015b60405180910390fd5b80620001a27f360894a13ba1a3210667c828492db98dca3e2076cc3735a920a3ca505d382bbc60001b6200025160201b620004181760201c565b80546001600160a01b0319166001600160a01b039290921691909117905550565b6060600080856001600160a01b031685604051620001e2919062000420565b600060405180830381855af49150503d80600081146200021f576040519150601f19603f3d011682016040523d82523d6000602084013e62000224565b606091505b509092509050620002388683838762000254565b9695505050505050565b6001600160a01b03163b151590565b90565b60608315620002c8578251600003620002c0576001600160a01b0385163b620002c05760405162461bcd60e51b815260206004820152601d60248201527f416464726573733a2063616c6c20746f206e6f6e2d636f6e747261637400000060448201526064016200015f565b5081620002d4565b620002d48383620002dc565b949350505050565b815115620002ed5781518083602001fd5b8060405162461bcd60e51b81526004016200015f91906200043e565b634e487b7160e01b600052604160045260246000fd5b60005b838110156200033c57818101518382015260200162000322565b50506000910152565b600080604083850312156200035957600080fd5b82516001600160a01b03811681146200037157600080fd5b60208401519092506001600160401b03808211156200038f57600080fd5b818501915085601f830112620003a457600080fd5b815181811115620003b957620003b962000309565b604051601f8201601f19908116603f01168101908382118183101715620003e457620003e462000309565b81604052828152886020848701011115620003fe57600080fd5b620004118360208301602088016200031f565b80955050505050509250929050565b60008251620004348184602087016200031f565b9190910192915050565b60208152600082518060208401526200045f8160408501602087016200031f565b601f01601f19169190910160400192915050565b610a3a80620004836000396000f3fe6080604052600436106101855760003560e01c8063949a4a4a116100d1578063bb7019c11161008a578063db53e8b511610064578063db53e8b5146102be578063e78ea3df14610300578063ecd7fbed14610354578063f47ec3be1461030057610194565b8063bb7019c11461019c578063cf9564b91461038f578063d075afac146103aa57610194565b8063949a4a4a14610300578063983c1ce014610280578063995974c41461031e5780639ebea88c14610339578063a089a52014610354578063ae07f9481461036f57610194565b80633e8888d91161013e5780636ac6d812116101185780636ac6d812146102be57806375bfd63d146102d95780637b0472f0146102a357806381c6f1a7146102e557610194565b80633e8888d91461026c5780635669cbef146102805780635de406dc146102a357610194565b8063106d08df1461019c5780631aebcecb146101d25780632cb0dfcc146101f15780632dbe051e1461019c57806330ca07941461021557806332fce6021461023757610194565b36610194576101926103cb565b005b6101926103cb565b3480156101a857600080fd5b506101bd6101b736600461059f565b50600090565b60405190151581526020015b60405180910390f35b3480156101de57600080fd5b506101926101ed3660046105d4565b5050565b3480156101fd57600080fd5b506101bd61020c36600461060e565b60009392505050565b34801561022157600080fd5b506101926102303660046106ff565b5050505050565b34801561024357600080fd5b5061025e61025236600461076a565b60009695505050505050565b6040519081526020016101c9565b34801561027857600080fd5b5060006101bd565b34801561028c57600080fd5b506101bd61029b3660046107eb565b600092915050565b3480156102af57600080fd5b506101926101ed3660046107eb565b3480156102ca57600080fd5b5061025e6101b736600461059f565b34801561019257600080fd5b3480156102f157600080fd5b5061025e61020c36600461080d565b34801561030c57600080fd5b5061019261031b36600461059f565b50565b34801561032a57600080fd5b506101926101ed366004610839565b34801561034557600080fd5b506101bd61029b366004610865565b34801561036057600080fd5b506101bd6101b7366004610888565b34801561037b57600080fd5b5061019261038a3660046108a3565b505050565b34801561039b57600080fd5b506101bd61029b3660046108f3565b3480156103b657600080fd5b506101926103c536600461091d565b50505050565b6103db6103d661041b565b610453565b565b606061040283836040518060600160405280602781526020016109de60279139610477565b9392505050565b6001600160a01b03163b151590565b90565b600061044e7f360894a13ba1a3210667c828492db98dca3e2076cc3735a920a3ca505d382bbc546001600160a01b031690565b905090565b3660008037600080366000845af43d6000803e808015610472573d6000f35b3d6000fd5b6060600080856001600160a01b031685604051610494919061098e565b600060405180830381855af49150503d80600081146104cf576040519150601f19603f3d011682016040523d82523d6000602084013e6104d4565b606091505b50915091506104e5868383876104ef565b9695505050505050565b6060831561056357825160000361055c576001600160a01b0385163b61055c5760405162461bcd60e51b815260206004820152601d60248201527f416464726573733a2063616c6c20746f206e6f6e2d636f6e747261637400000060448201526064015b60405180910390fd5b508161056d565b61056d8383610575565b949350505050565b8151156105855781518083602001fd5b8060405162461bcd60e51b815260040161055391906109aa565b6000602082840312156105b157600080fd5b5035919050565b80356001600160a01b03811681146105cf57600080fd5b919050565b600080604083850312156105e757600080fd5b6105f0836105b8565b946020939093013593505050565b803580151581146105cf57600080fd5b60008060006060848603121561062357600080fd5b61062c846105b8565b925061063a602085016105fe565b9150604084013590509250925092565b803561ffff811681146105cf57600080fd5b634e487b7160e01b600052604160045260246000fd5b600082601f83011261068357600080fd5b813567ffffffffffffffff8082111561069e5761069e61065c565b604051601f8301601f19908116603f011681019082821181831017156106c6576106c661065c565b816040528381528660208588010111156106df57600080fd5b836020870160208301376000602085830101528094505050505092915050565b600080600080600060a0868803121561071757600080fd5b853594506020860135935061072e6040870161064a565b925060608601359150608086013567ffffffffffffffff81111561075157600080fd5b61075d88828901610672565b9150509295509295909350565b60008060008060008060c0878903121561078357600080fd5b61078c876105b8565b955061079a602088016105b8565b9450604087013567ffffffffffffffff8111156107b657600080fd5b6107c289828a01610672565b9450506107d1606088016105b8565b92506080870135915060a087013590509295509295509295565b600080604083850312156107fe57600080fd5b50508035926020909101359150565b60008060006060848603121561082257600080fd5b505081359360208301359350604090920135919050565b6000806040838503121561084c57600080fd5b8235915061085c602084016105b8565b90509250929050565b6000806040838503121561087857600080fd5b8235915061085c602084016105fe565b60006020828403121561089a57600080fd5b610402826105b8565b6000806000606084860312156108b857600080fd5b8335925060208401359150604084013567ffffffffffffffff8111156108dd57600080fd5b6108e986828701610672565b9150509250925092565b6000806040838503121561090657600080fd5b61090f836105b8565b915061085c602084016105b8565b6000806000806080858703121561093357600080fd5b84359350610943602086016105b8565b92506109516040860161064a565b915061095f6060860161064a565b905092959194509250565b60005b8381101561098557818101518382015260200161096d565b50506000910152565b600082516109a081846020870161096a565b9190910192915050565b60208152600082518060208401526109c981604085016020870161096a565b601f01601f1916919091016040019291505056fe416464726573733a206c6f772d6c6576656c2064656c65676174652063616c6c206661696c6564a2646970667358221220b4f7325044500fd8ebb24a976ebadb84e01608abe5e69a1584ced3ba8cc2de8364736f6c63430008110033416464726573733a206c6f772d6c6576656c2064656c65676174652063616c6c206661696c6564",
    "linkReferences": {}
  },
  "methodIdentifiers": {
    "addNewBountyPool(address,address,string,address,uint256,uint256)": "32fce602",
    "billPremium(uint256)": "2dbe051e",
    "calculateEffectiveAPY(uint256,uint256,uint256)": "81c6f1a7",
    "claimPremium(uint256)": "f47ec3be",
    "collectAllReferralProfits()": "3e8888d9",
    "collectAllSaloonProfits(address)": "ecd7fbed",
    "collectReferralProfit(address)": "a089a520",
    "collectSaloonProfits(address,address)": "cf9564b9",
    "compoundYieldForPid(uint256)": "e78ea3df",
    "consolidate(uint256)": "949a4a4a",
    "consolidateAll()": "75bfd63d",
    "extendReferralPeriod(uint256,uint256)": "5de406dc",
    "makeProjectDeposit(uint256,uint256,string)": "ae07f948",
    "payBounty(uint256,address,uint16,uint16)": "d075afac",
    "projectDepositWithdrawal(uint256,uint256)": "983c1ce0",
    "receiveStrategyYield(address,uint256)": "1aebcecb",
    "scheduleProjectDepositWithdrawal(uint256,uint256)": "5669cbef",
    "scheduleUnstake(uint256)": "106d08df",
    "setAPYandPoolCapAndDeposit(uint256,uint256,uint16,uint256,string)": "30ca0794",
    "stake(uint256,uint256)": "7b0472f0",
    "unstake(uint256,bool)": "9ebea88c",
    "updateProjectWalletAddress(uint256,address)": "995974c4",
    "updateTokenWhitelist(address,bool,uint256)": "2cb0dfcc",
    "viewBountyBalance(uint256)": "6ac6d812",
    "windDownBounty(uint256)": "bb7019c1",
    "withdrawProjectYield(uint256)": "db53e8b5"
  },
  "id": 48
}