{
  "abi": [
    {
      "anonymous": false,
      "inputs": [
        {
          "indexed": true,
          "internalType": "uint256",
          "name": "pid",
          "type": "uint256"
        },
        {
          "indexed": false,
          "internalType": "uint256",
          "name": "oldAmount",
          "type": "uint256"
        },
        {
          "indexed": false,
          "internalType": "uint256",
          "name": "newAmount",
          "type": "uint256"
        }
      ],
      "name": "BountyBalanceChanged",
      "type": "event"
    },
    {
      "anonymous": false,
      "inputs": [
        {
          "indexed": true,
          "internalType": "address",
          "name": "hunter",
          "type": "address"
        },
        {
          "indexed": true,
          "internalType": "address",
          "name": "token",
          "type": "address"
        },
        {
          "indexed": false,
          "internalType": "uint256",
          "name": "amount",
          "type": "uint256"
        }
      ],
      "name": "BountyPaid",
      "type": "event"
    },
    {
      "anonymous": false,
      "inputs": [
        {
          "indexed": false,
          "internalType": "uint8",
          "name": "version",
          "type": "uint8"
        }
      ],
      "name": "Initialized",
      "type": "event"
    },
    {
      "anonymous": false,
      "inputs": [
        {
          "indexed": true,
          "internalType": "uint256",
          "name": "pid",
          "type": "uint256"
        },
        {
          "indexed": true,
          "internalType": "address",
          "name": "token",
          "type": "address"
        },
        {
          "indexed": false,
          "internalType": "uint256",
          "name": "tokenDecimals",
          "type": "uint256"
        }
      ],
      "name": "NewBountyDeployed",
      "type": "event"
    },
    {
      "anonymous": false,
      "inputs": [
        {
          "indexed": true,
          "internalType": "address",
          "name": "previousOwner",
          "type": "address"
        },
        {
          "indexed": true,
          "internalType": "address",
          "name": "newOwner",
          "type": "address"
        }
      ],
      "name": "OwnershipTransferred",
      "type": "event"
    },
    {
      "anonymous": false,
      "inputs": [
        {
          "indexed": true,
          "internalType": "uint256",
          "name": "pid",
          "type": "uint256"
        },
        {
          "indexed": false,
          "internalType": "uint256",
          "name": "amount",
          "type": "uint256"
        }
      ],
      "name": "PremiumBilled",
      "type": "event"
    },
    {
      "anonymous": false,
      "inputs": [
        {
          "indexed": true,
          "internalType": "address",
          "name": "user",
          "type": "address"
        },
        {
          "indexed": true,
          "internalType": "uint256",
          "name": "pid",
          "type": "uint256"
        },
        {
          "indexed": false,
          "internalType": "uint256",
          "name": "amount",
          "type": "uint256"
        }
      ],
      "name": "Staked",
      "type": "event"
    },
    {
      "anonymous": false,
      "inputs": [
        {
          "indexed": true,
          "internalType": "address",
          "name": "user",
          "type": "address"
        },
        {
          "indexed": true,
          "internalType": "uint256",
          "name": "pid",
          "type": "uint256"
        },
        {
          "indexed": false,
          "internalType": "uint256",
          "name": "amount",
          "type": "uint256"
        }
      ],
      "name": "Unstaked",
      "type": "event"
    },
    {
      "anonymous": false,
      "inputs": [
        {
          "indexed": true,
          "internalType": "uint256",
          "name": "pid",
          "type": "uint256"
        },
        {
          "indexed": false,
          "internalType": "uint256",
          "name": "amount",
          "type": "uint256"
        }
      ],
      "name": "WithdrawalOrUnstakeScheduled",
      "type": "event"
    },
    {
      "anonymous": false,
      "inputs": [
        {
          "indexed": true,
          "internalType": "address",
          "name": "referrer",
          "type": "address"
        },
        {
          "indexed": false,
          "internalType": "uint256",
          "name": "amount",
          "type": "uint256"
        }
      ],
      "name": "referralPaid",
      "type": "event"
    },
    {
      "anonymous": false,
      "inputs": [
        {
          "indexed": true,
          "internalType": "address",
          "name": "token",
          "type": "address"
        },
        {
          "indexed": true,
          "internalType": "bool",
          "name": "whitelisted",
          "type": "bool"
        }
      ],
      "name": "tokenWhitelistUpdated",
      "type": "event"
    },
    {
      "inputs": [],
      "name": "YEAR",
      "outputs": [
        {
          "internalType": "uint256",
          "name": "",
          "type": "uint256"
        }
      ],
      "stateMutability": "view",
      "type": "function"
    },
    {
      "inputs": [],
      "name": "acceptOwnershipTransfer",
      "outputs": [],
      "stateMutability": "nonpayable",
      "type": "function"
    },
    {
      "inputs": [
        {
          "internalType": "uint256",
          "name": "",
          "type": "uint256"
        }
      ],
      "name": "activeStrategies",
      "outputs": [
        {
          "internalType": "bytes32",
          "name": "",
          "type": "bytes32"
        }
      ],
      "stateMutability": "view",
      "type": "function"
    },
    {
      "inputs": [
        {
          "internalType": "uint256",
          "name": "",
          "type": "uint256"
        }
      ],
      "name": "activeTokens",
      "outputs": [
        {
          "internalType": "address",
          "name": "",
          "type": "address"
        }
      ],
      "stateMutability": "view",
      "type": "function"
    },
    {
      "inputs": [
        {
          "internalType": "uint256",
          "name": "_poolCap",
          "type": "uint256"
        },
        {
          "internalType": "uint256",
          "name": "_apy",
          "type": "uint256"
        }
      ],
      "name": "calcRequiredPremiumBalancePerPeriod",
      "outputs": [
        {
          "internalType": "uint256",
          "name": "requiredPremiumBalance",
          "type": "uint256"
        }
      ],
      "stateMutability": "pure",
      "type": "function"
    },
    {
      "inputs": [
        {
          "internalType": "address",
          "name": "",
          "type": "address"
        }
      ],
      "name": "minTokenStakeAmount",
      "outputs": [
        {
          "internalType": "uint256",
          "name": "",
          "type": "uint256"
        }
      ],
      "stateMutability": "view",
      "type": "function"
    },
    {
      "inputs": [
        {
          "internalType": "uint256",
          "name": "",
          "type": "uint256"
        }
      ],
      "name": "nftInfo",
      "outputs": [
        {
          "internalType": "uint256",
          "name": "pid",
          "type": "uint256"
        },
        {
          "internalType": "uint256",
          "name": "amount",
          "type": "uint256"
        },
        {
          "internalType": "uint256",
          "name": "xDelta",
          "type": "uint256"
        },
        {
          "internalType": "uint256",
          "name": "apy",
          "type": "uint256"
        },
        {
          "internalType": "uint256",
          "name": "unclaimed",
          "type": "uint256"
        },
        {
          "internalType": "uint256",
          "name": "lastClaimedTime",
          "type": "uint256"
        },
        {
          "internalType": "uint256",
          "name": "timelock",
          "type": "uint256"
        },
        {
          "internalType": "uint256",
          "name": "timelimit",
          "type": "uint256"
        },
        {
          "internalType": "bool",
          "name": "hasUnstaked",
          "type": "bool"
        }
      ],
      "stateMutability": "view",
      "type": "function"
    },
    {
      "inputs": [],
      "name": "owner",
      "outputs": [
        {
          "internalType": "address",
          "name": "",
          "type": "address"
        }
      ],
      "stateMutability": "view",
      "type": "function"
    },
    {
      "inputs": [
        {
          "internalType": "uint256",
          "name": "_tokenId",
          "type": "uint256"
        }
      ],
      "name": "pendingPremium",
      "outputs": [
        {
          "internalType": "uint256",
          "name": "totalPending",
          "type": "uint256"
        },
        {
          "internalType": "uint256",
          "name": "actualPending",
          "type": "uint256"
        },
        {
          "internalType": "uint256",
          "name": "newPending",
          "type": "uint256"
        }
      ],
      "stateMutability": "view",
      "type": "function"
    },
    {
      "inputs": [
        {
          "internalType": "uint256",
          "name": "",
          "type": "uint256"
        },
        {
          "internalType": "uint256",
          "name": "",
          "type": "uint256"
        }
      ],
      "name": "pidNFTList",
      "outputs": [
        {
          "internalType": "uint256",
          "name": "",
          "type": "uint256"
        }
      ],
      "stateMutability": "view",
      "type": "function"
    },
    {
      "inputs": [
        {
          "internalType": "uint256",
          "name": "",
          "type": "uint256"
        },
        {
          "internalType": "bytes32",
          "name": "",
          "type": "bytes32"
        }
      ],
      "name": "pidStrategies",
      "outputs": [
        {
          "internalType": "address",
          "name": "",
          "type": "address"
        }
      ],
      "stateMutability": "view",
      "type": "function"
    },
    {
      "inputs": [
        {
          "internalType": "uint256",
          "name": "",
          "type": "uint256"
        }
      ],
      "name": "poolInfo",
      "outputs": [
        {
          "components": [
            {
              "internalType": "contract IERC20",
              "name": "token",
              "type": "address"
            },
            {
              "internalType": "uint8",
              "name": "tokenDecimals",
              "type": "uint8"
            },
            {
              "internalType": "uint16",
              "name": "apy",
              "type": "uint16"
            },
            {
              "internalType": "address",
              "name": "projectWallet",
              "type": "address"
            },
            {
              "internalType": "string",
              "name": "projectName",
              "type": "string"
            },
            {
              "internalType": "uint256",
              "name": "poolCap",
              "type": "uint256"
            },
            {
              "internalType": "uint256",
              "name": "totalStaked",
              "type": "uint256"
            },
            {
              "internalType": "uint256",
              "name": "scalingMultiplier",
              "type": "uint256"
            }
          ],
          "internalType": "struct ISaloon.GeneralInfo",
          "name": "generalInfo",
          "type": "tuple"
        },
        {
          "components": [
            {
              "internalType": "uint256",
              "name": "projectDepositHeld",
              "type": "uint256"
            },
            {
              "internalType": "uint256",
              "name": "projectDepositInStrategy",
              "type": "uint256"
            }
          ],
          "internalType": "struct ISaloon.DepositInfo",
          "name": "depositInfo",
          "type": "tuple"
        },
        {
          "components": [
            {
              "internalType": "uint256",
              "name": "premiumBalance",
              "type": "uint256"
            },
            {
              "internalType": "uint256",
              "name": "premiumAvailable",
              "type": "uint256"
            }
          ],
          "internalType": "struct ISaloon.PremiumInfo",
          "name": "premiumInfo",
          "type": "tuple"
        },
        {
          "components": [
            {
              "internalType": "uint256",
              "name": "timelock",
              "type": "uint256"
            },
            {
              "internalType": "uint256",
              "name": "timeLimit",
              "type": "uint256"
            },
            {
              "internalType": "uint256",
              "name": "withdrawalScheduledAmount",
              "type": "uint256"
            },
            {
              "internalType": "bool",
              "name": "withdrawalExecuted",
              "type": "bool"
            }
          ],
          "internalType": "struct ISaloon.TimelockInfo",
          "name": "poolTimelock",
          "type": "tuple"
        },
        {
          "components": [
            {
              "internalType": "uint256",
              "name": "currentX",
              "type": "uint256"
            },
            {
              "internalType": "uint256",
              "name": "currentY",
              "type": "uint256"
            },
            {
              "internalType": "uint256",
              "name": "totalSupply",
              "type": "uint256"
            },
            {
              "internalType": "uint256[]",
              "name": "unstakedTokens",
              "type": "uint256[]"
            }
          ],
          "internalType": "struct ISaloon.CurveInfo",
          "name": "curveInfo",
          "type": "tuple"
        },
        {
          "components": [
            {
              "internalType": "address",
              "name": "referrer",
              "type": "address"
            },
            {
              "internalType": "uint256",
              "name": "referralFee",
              "type": "uint256"
            },
            {
              "internalType": "uint256",
              "name": "endTime",
              "type": "uint256"
            }
          ],
          "internalType": "struct ISaloon.ReferralInfo",
          "name": "referralInfo",
          "type": "tuple"
        },
        {
          "internalType": "uint256",
          "name": "assessmentPeriodEnd",
          "type": "uint256"
        },
        {
          "internalType": "uint256",
          "name": "freezeTime",
          "type": "uint256"
        },
        {
          "internalType": "bool",
          "name": "isActive",
          "type": "bool"
        }
      ],
      "stateMutability": "view",
      "type": "function"
    },
    {
      "inputs": [
        {
          "internalType": "address",
          "name": "_token",
          "type": "address"
        },
        {
          "internalType": "uint256",
          "name": "_amount",
          "type": "uint256"
        }
      ],
      "name": "receiveStrategyYield",
      "outputs": [],
      "stateMutability": "nonpayable",
      "type": "function"
    },
    {
      "inputs": [
        {
          "internalType": "address",
          "name": "",
          "type": "address"
        },
        {
          "internalType": "address",
          "name": "",
          "type": "address"
        }
      ],
      "name": "referralBalances",
      "outputs": [
        {
          "internalType": "uint256",
          "name": "",
          "type": "uint256"
        }
      ],
      "stateMutability": "view",
      "type": "function"
    },
    {
      "inputs": [],
      "name": "saloonBounty",
      "outputs": [
        {
          "internalType": "contract ISaloonBounty",
          "name": "",
          "type": "address"
        }
      ],
      "stateMutability": "view",
      "type": "function"
    },
    {
      "inputs": [
        {
          "internalType": "address",
          "name": "",
          "type": "address"
        }
      ],
      "name": "saloonBountyProfit",
      "outputs": [
        {
          "internalType": "uint256",
          "name": "",
          "type": "uint256"
        }
      ],
      "stateMutability": "view",
      "type": "function"
    },
    {
      "inputs": [],
      "name": "saloonManager",
      "outputs": [
        {
          "internalType": "contract ISaloonManager",
          "name": "",
          "type": "address"
        }
      ],
      "stateMutability": "view",
      "type": "function"
    },
    {
      "inputs": [
        {
          "internalType": "address",
          "name": "",
          "type": "address"
        }
      ],
      "name": "saloonPremiumProfit",
      "outputs": [
        {
          "internalType": "uint256",
          "name": "",
          "type": "uint256"
        }
      ],
      "stateMutability": "view",
      "type": "function"
    },
    {
      "inputs": [],
      "name": "saloonProjectPortal",
      "outputs": [
        {
          "internalType": "contract ISaloonProjectPortal",
          "name": "",
          "type": "address"
        }
      ],
      "stateMutability": "view",
      "type": "function"
    },
    {
      "inputs": [
        {
          "internalType": "address",
          "name": "",
          "type": "address"
        }
      ],
      "name": "saloonStrategyProfit",
      "outputs": [
        {
          "internalType": "uint256",
          "name": "",
          "type": "uint256"
        }
      ],
      "stateMutability": "view",
      "type": "function"
    },
    {
      "inputs": [],
      "name": "saloonView",
      "outputs": [
        {
          "internalType": "contract ISaloonView",
          "name": "",
          "type": "address"
        }
      ],
      "stateMutability": "view",
      "type": "function"
    },
    {
      "inputs": [
        {
          "internalType": "address",
          "name": "",
          "type": "address"
        }
      ],
      "name": "strategyAddressToPid",
      "outputs": [
        {
          "internalType": "uint256",
          "name": "",
          "type": "uint256"
        }
      ],
      "stateMutability": "view",
      "type": "function"
    },
    {
      "inputs": [],
      "name": "strategyFactory",
      "outputs": [
        {
          "internalType": "contract IStrategyFactory",
          "name": "",
          "type": "address"
        }
      ],
      "stateMutability": "view",
      "type": "function"
    },
    {
      "inputs": [
        {
          "internalType": "address",
          "name": "",
          "type": "address"
        }
      ],
      "name": "tokenWhitelist",
      "outputs": [
        {
          "internalType": "bool",
          "name": "",
          "type": "bool"
        }
      ],
      "stateMutability": "view",
      "type": "function"
    },
    {
      "inputs": [
        {
          "internalType": "address",
          "name": "newOwner",
          "type": "address"
        }
      ],
      "name": "transferOwnership",
      "outputs": [],
      "stateMutability": "nonpayable",
      "type": "function"
    },
    {
      "inputs": [],
      "name": "viewAllPoolsInfo",
      "outputs": [
        {
          "components": [
            {
              "components": [
                {
                  "internalType": "contract IERC20",
                  "name": "token",
                  "type": "address"
                },
                {
                  "internalType": "uint8",
                  "name": "tokenDecimals",
                  "type": "uint8"
                },
                {
                  "internalType": "uint16",
                  "name": "apy",
                  "type": "uint16"
                },
                {
                  "internalType": "address",
                  "name": "projectWallet",
                  "type": "address"
                },
                {
                  "internalType": "string",
                  "name": "projectName",
                  "type": "string"
                },
                {
                  "internalType": "uint256",
                  "name": "poolCap",
                  "type": "uint256"
                },
                {
                  "internalType": "uint256",
                  "name": "totalStaked",
                  "type": "uint256"
                },
                {
                  "internalType": "uint256",
                  "name": "scalingMultiplier",
                  "type": "uint256"
                }
              ],
              "internalType": "struct ISaloon.GeneralInfo",
              "name": "generalInfo",
              "type": "tuple"
            },
            {
              "components": [
                {
                  "internalType": "uint256",
                  "name": "projectDepositHeld",
                  "type": "uint256"
                },
                {
                  "internalType": "uint256",
                  "name": "projectDepositInStrategy",
                  "type": "uint256"
                }
              ],
              "internalType": "struct ISaloon.DepositInfo",
              "name": "depositInfo",
              "type": "tuple"
            },
            {
              "components": [
                {
                  "internalType": "uint256",
                  "name": "premiumBalance",
                  "type": "uint256"
                },
                {
                  "internalType": "uint256",
                  "name": "premiumAvailable",
                  "type": "uint256"
                }
              ],
              "internalType": "struct ISaloon.PremiumInfo",
              "name": "premiumInfo",
              "type": "tuple"
            },
            {
              "components": [
                {
                  "internalType": "uint256",
                  "name": "timelock",
                  "type": "uint256"
                },
                {
                  "internalType": "uint256",
                  "name": "timeLimit",
                  "type": "uint256"
                },
                {
                  "internalType": "uint256",
                  "name": "withdrawalScheduledAmount",
                  "type": "uint256"
                },
                {
                  "internalType": "bool",
                  "name": "withdrawalExecuted",
                  "type": "bool"
                }
              ],
              "internalType": "struct ISaloon.TimelockInfo",
              "name": "poolTimelock",
              "type": "tuple"
            },
            {
              "components": [
                {
                  "internalType": "uint256",
                  "name": "currentX",
                  "type": "uint256"
                },
                {
                  "internalType": "uint256",
                  "name": "currentY",
                  "type": "uint256"
                },
                {
                  "internalType": "uint256",
                  "name": "totalSupply",
                  "type": "uint256"
                },
                {
                  "internalType": "uint256[]",
                  "name": "unstakedTokens",
                  "type": "uint256[]"
                }
              ],
              "internalType": "struct ISaloon.CurveInfo",
              "name": "curveInfo",
              "type": "tuple"
            },
            {
              "components": [
                {
                  "internalType": "address",
                  "name": "referrer",
                  "type": "address"
                },
                {
                  "internalType": "uint256",
                  "name": "referralFee",
                  "type": "uint256"
                },
                {
                  "internalType": "uint256",
                  "name": "endTime",
                  "type": "uint256"
                }
              ],
              "internalType": "struct ISaloon.ReferralInfo",
              "name": "referralInfo",
              "type": "tuple"
            },
            {
              "internalType": "uint256",
              "name": "assessmentPeriodEnd",
              "type": "uint256"
            },
            {
              "internalType": "uint256",
              "name": "freezeTime",
              "type": "uint256"
            },
            {
              "internalType": "bool",
              "name": "isActive",
              "type": "bool"
            }
          ],
          "internalType": "struct ISaloon.PoolInfo[]",
          "name": "",
          "type": "tuple[]"
        }
      ],
      "stateMutability": "view",
      "type": "function"
    },
    {
      "inputs": [
        {
          "internalType": "uint256",
          "name": "_pid",
          "type": "uint256"
        }
      ],
      "name": "viewBountyBalance",
      "outputs": [
        {
          "internalType": "uint256",
          "name": "",
          "type": "uint256"
        }
      ],
      "stateMutability": "view",
      "type": "function"
    },
    {
      "inputs": [
        {
          "internalType": "uint256",
          "name": "_pid",
          "type": "uint256"
        }
      ],
      "name": "viewBountyInfo",
      "outputs": [
        {
          "internalType": "uint256",
          "name": "payout",
          "type": "uint256"
        },
        {
          "internalType": "uint256",
          "name": "apy",
          "type": "uint256"
        },
        {
          "internalType": "uint256",
          "name": "staked",
          "type": "uint256"
        },
        {
          "internalType": "uint256",
          "name": "poolCap",
          "type": "uint256"
        }
      ],
      "stateMutability": "view",
      "type": "function"
    },
    {
      "inputs": [
        {
          "internalType": "uint256",
          "name": "_pid",
          "type": "uint256"
        }
      ],
      "name": "viewHackerPayout",
      "outputs": [
        {
          "internalType": "uint256",
          "name": "",
          "type": "uint256"
        }
      ],
      "stateMutability": "view",
      "type": "function"
    },
    {
      "inputs": [
        {
          "internalType": "uint256",
          "name": "_pid",
          "type": "uint256"
        }
      ],
      "name": "viewMinProjectDeposit",
      "outputs": [
        {
          "internalType": "uint256",
          "name": "",
          "type": "uint256"
        }
      ],
      "stateMutability": "view",
      "type": "function"
    },
    {
      "inputs": [
        {
          "internalType": "uint256",
          "name": "_pid",
          "type": "uint256"
        }
      ],
      "name": "viewPoolAPY",
      "outputs": [
        {
          "internalType": "uint256",
          "name": "",
          "type": "uint256"
        }
      ],
      "stateMutability": "view",
      "type": "function"
    },
    {
      "inputs": [
        {
          "internalType": "uint256",
          "name": "_pid",
          "type": "uint256"
        }
      ],
      "name": "viewPoolCap",
      "outputs": [
        {
          "internalType": "uint256",
          "name": "",
          "type": "uint256"
        }
      ],
      "stateMutability": "view",
      "type": "function"
    },
    {
      "inputs": [
        {
          "internalType": "uint256",
          "name": "_pid",
          "type": "uint256"
        }
      ],
      "name": "viewPoolPremiumInfo",
      "outputs": [
        {
          "internalType": "uint256",
          "name": "requiredPremiumBalancePerPeriod",
          "type": "uint256"
        },
        {
          "internalType": "uint256",
          "name": "premiumBalance",
          "type": "uint256"
        },
        {
          "internalType": "uint256",
          "name": "premiumAvailable",
          "type": "uint256"
        }
      ],
      "stateMutability": "view",
      "type": "function"
    },
    {
      "inputs": [
        {
          "internalType": "uint256",
          "name": "_pid",
          "type": "uint256"
        }
      ],
      "name": "viewPoolTimelockInfo",
      "outputs": [
        {
          "internalType": "uint256",
          "name": "timelock",
          "type": "uint256"
        },
        {
          "internalType": "uint256",
          "name": "timeLimit",
          "type": "uint256"
        },
        {
          "internalType": "uint256",
          "name": "withdrawalScheduledAmount",
          "type": "uint256"
        }
      ],
      "stateMutability": "view",
      "type": "function"
    },
    {
      "inputs": [
        {
          "internalType": "uint256",
          "name": "_pid",
          "type": "uint256"
        }
      ],
      "name": "viewProjectWallet",
      "outputs": [
        {
          "internalType": "address",
          "name": "",
          "type": "address"
        }
      ],
      "stateMutability": "view",
      "type": "function"
    },
    {
      "inputs": [
        {
          "internalType": "address",
          "name": "_referrer",
          "type": "address"
        },
        {
          "internalType": "address",
          "name": "_token",
          "type": "address"
        }
      ],
      "name": "viewReferralBalance",
      "outputs": [
        {
          "internalType": "uint256",
          "name": "referralBalance",
          "type": "uint256"
        }
      ],
      "stateMutability": "view",
      "type": "function"
    },
    {
      "inputs": [
        {
          "internalType": "address",
          "name": "_token",
          "type": "address"
        }
      ],
      "name": "viewSaloonProfitBalance",
      "outputs": [
        {
          "internalType": "uint256",
          "name": "totalProfit",
          "type": "uint256"
        },
        {
          "internalType": "uint256",
          "name": "bountyProfit",
          "type": "uint256"
        },
        {
          "internalType": "uint256",
          "name": "strategyProfit",
          "type": "uint256"
        },
        {
          "internalType": "uint256",
          "name": "premiumProfit",
          "type": "uint256"
        }
      ],
      "stateMutability": "view",
      "type": "function"
    },
    {
      "inputs": [
        {
          "internalType": "uint256",
          "name": "_tokenId",
          "type": "uint256"
        }
      ],
      "name": "viewTokenInfo",
      "outputs": [
        {
          "internalType": "uint256",
          "name": "amount",
          "type": "uint256"
        },
        {
          "internalType": "uint256",
          "name": "apy",
          "type": "uint256"
        },
        {
          "internalType": "uint256",
          "name": "actualPending",
          "type": "uint256"
        },
        {
          "internalType": "uint256",
          "name": "unclaimed",
          "type": "uint256"
        },
        {
          "internalType": "uint256",
          "name": "timelock",
          "type": "uint256"
        }
      ],
      "stateMutability": "view",
      "type": "function"
    },
    {
      "inputs": [
        {
          "internalType": "address",
          "name": "_token",
          "type": "address"
        }
      ],
      "name": "viewTokenWhitelistStatus",
      "outputs": [
        {
          "internalType": "bool",
          "name": "",
          "type": "bool"
        }
      ],
      "stateMutability": "view",
      "type": "function"
    },
    {
      "inputs": [
        {
          "internalType": "uint256",
          "name": "_pid",
          "type": "uint256"
        }
      ],
      "name": "viewTotalStaked",
      "outputs": [
        {
          "internalType": "uint256",
          "name": "",
          "type": "uint256"
        }
      ],
      "stateMutability": "view",
      "type": "function"
    }
  ],
  "bytecode": {
    "object": "0x608060405234801561001057600080fd5b50612e3c806100206000396000f3fe608060405234801561001057600080fd5b50600436106102485760003560e01c8063799238981161013b578063a27f9213116100b8578063ca0061481161007c578063ca006148146106d0578063cacb1a29146106f0578063dbdd695714610705578063e45abd0f14610718578063f2fde38b1461073857600080fd5b8063a27f92131461066f578063ac30b85614610682578063b1a2d16f14610695578063b20b2429146106a8578063b842e87f146106c857600080fd5b8063957deecc116100ff578063957deecc146105ea57806396ea48e81461060a5780639ef357101461061d5780639f224f35146106305780639fe722021461064357600080fd5b80637992389814610595578063836ef1fa146105a857806383914540146105bb578063861e5f66146105c65780638da5cb5b146105d957600080fd5b8063277fd2a1116101c957806353e173ca1161018d57806353e173ca14610509578063598d17bf1461051c5780636ac6d8121461053c578063718c7eef1461054f578063753d75631461056257600080fd5b8063277fd2a114610462578063394587231461047557806339679ff41461049557806340bd1d00146104a857806340ef2868146104d657600080fd5b80631526fe27116102105780631526fe271461035e5780631aebcecb146103865780631c6b323f1461039a5780631f8bc790146103ad578063220e11241461044f57600080fd5b8063011b408b1461024d578063074ecf031461028b5780630a07f543146102d75780630ed7610c146102ea5780631072585214610323575b600080fd5b61027861025b36600461290c565b60a260209081526000928352604080842090915290825290205481565b6040519081526020015b60405180910390f35b6102bf61029936600461293f565b60a46020908152600092835260408084209091529082529020546001600160a01b031681565b6040516001600160a01b039091168152602001610282565b609b546102bf906001600160a01b031681565b6102786102f836600461290c565b6001600160a01b03918216600090815260a26020908152604080832093909416825291909152205490565b610336610331366004612961565b61074b565b604080519586526020860194909452928401919091526060830152608082015260a001610282565b61037161036c366004612961565b6107f3565b60405161028299989796959493929190612ab4565b610398610394366004612b82565b5050565b005b6102786103a8366004612961565b610a54565b6104096103bb366004612961565b609d6020526000908152604090208054600182015460028301546003840154600485015460058601546006870154600788015460089098015496979596949593949293919290919060ff1689565b60408051998a5260208a0198909852968801959095526060870193909352608086019190915260a085015260c084015260e0830152151561010082015261012001610282565b6098546102bf906001600160a01b031681565b6099546102bf906001600160a01b031681565b610278610483366004612bac565b60a96020526000908152604090205481565b6102786104a3366004612961565b610cfc565b6104bb6104b6366004612961565b610f8f565b60408051938452602084019290925290820152606001610282565b6104e96104e4366004612961565b611357565b604080519485526020850193909352918301526060820152608001610282565b6102bf610517366004612961565b611390565b61027861052a366004612bac565b60a16020526000908152604090205481565b61027861054a366004612961565b61161f565b6104e961055d366004612bac565b6118d0565b610585610570366004612bac565b60a76020526000908152604090205460ff1681565b6040519015158152602001610282565b609a546102bf906001600160a01b031681565b6102786105b636600461293f565b61191e565b6102786301e1338081565b6102786105d4366004612961565b611954565b6033546001600160a01b03166102bf565b6102786105f8366004612bac565b60a66020526000908152604090205481565b61027861061836600461293f565b611988565b60a3546102bf906001600160a01b031681565b6102bf61063e366004612961565b6119b9565b610585610651366004612bac565b6001600160a01b0316600090815260a7602052604090205460ff1690565b61027861067d366004612961565b6119e3565b6104bb610690366004612961565b611c76565b6104bb6106a3366004612961565b611f1c565b6102786106b6366004612961565b60a56020526000908152604090205481565b6103986121d8565b6102786106de366004612bac565b60a06020526000908152604090205481565b6106f861225d565b6040516102829190612bc7565b610278610713366004612961565b612517565b610278610726366004612bac565b609f6020526000908152604090205481565b610398610746366004612bac565b6127aa565b6000818152609d6020908152604080832081516101208101835281548152600182015493810184905260028201549281019290925260038101546060830181905260048201546080840152600582015460a0840152600682015460c0840152600782015460e084015260089091015460ff161515610100830152919290819081906107d587610f8f565b50608083015160c09093015197999698509691959194509092505050565b609c818154811061080357600080fd5b60009182526020918290206040805161010081018252601890930290910180546001600160a01b03808216855260ff600160a01b8304169585019590955261ffff600160a81b90910416918301919091526001810154909216606082015260028201805492935090918391608084019161087c90612d13565b80601f01602080910402602001604051908101604052809291908181526020018280546108a890612d13565b80156108f55780601f106108ca576101008083540402835291602001916108f5565b820191906000526020600020905b8154815290600101906020018083116108d857829003601f168201915b50505091835250506003820154602080830191909152600483015460408084019190915260059093015460609283015282518084018452600686015481526007860154818301528351808501855260088701548152600987015481840152845160808082018752600a8901548252600b89015482860152600c89015482880152600d89015460ff1615158287015286519081018752600e890180548252600f8a01548287015260108a01548289015260118a018054895181890281018901909a52808a52999a95999498939795969295919491860193929091908301828280156109fe57602002820191906000526020600020905b8154815260200190600101908083116109ea575b5050509190925250506040805160608101825260128501546001600160a01b0316815260138501546020820152601485015491810191909152601584015460168501546017909501549394919390925060ff1689565b600080609c8381548110610a6a57610a6a612d4d565b6000918252602090912060408051610220810190915260189092020180546001600160a01b038082166101208501908152600160a01b830460ff16610140860152600160a81b90920461ffff1661016085015260018301541661018084015260028201805484929184916101a085019190610ae490612d13565b80601f0160208091040260200160405190810160405280929190818152602001828054610b1090612d13565b8015610b5d5780601f10610b3257610100808354040283529160200191610b5d565b820191906000526020600020905b815481529060010190602001808311610b4057829003601f168201915b505050918352505060038201546020808301919091526004830154604080840191909152600590930154606092830152928452815180830183526006860154815260078601548185015284840152815180830183526008860154815260098601548185015284830152815160808082018452600a8701548252600b87015482860152600c87015482850152600d87015460ff161515828401528583019190915282518082018452600e870180548252600f88015482870152601088015482860152601188018054865181890281018901909752808752939097019691959094938601939290830182828015610c7157602002820191906000526020600020905b815481526020019060010190808311610c5d575b505050919092525050508152604080516060808201835260128501546001600160a01b0316825260138501546020838101919091526014860154838501528085019290925260158501549284019290925260168401549183019190915260179092015460ff16151560809091015281810151908101519051919250610cf591612d79565b9392505050565b600080609c8381548110610d1257610d12612d4d565b6000918252602090912060408051610220810190915260189092020180546001600160a01b038082166101208501908152600160a01b830460ff16610140860152600160a81b90920461ffff1661016085015260018301541661018084015260028201805484929184916101a085019190610d8c90612d13565b80601f0160208091040260200160405190810160405280929190818152602001828054610db890612d13565b8015610e055780601f10610dda57610100808354040283529160200191610e05565b820191906000526020600020905b815481529060010190602001808311610de857829003601f168201915b505050918352505060038201546020808301919091526004830154604080840191909152600590930154606092830152928452815180830183526006860154815260078601548185015284840152815180830183526008860154815260098601548185015284830152815160808082018452600a8701548252600b87015482860152600c87015482850152600d87015460ff161515828401528583019190915282518082018452600e870180548252600f88015482870152601088015482860152601188018054865181890281018901909752808752939097019691959094938601939290830182828015610f1957602002820191906000526020600020905b815481526020019060010190808311610f05575b505050919092525050508152604080516060808201835260128501546001600160a01b03168252601385015460208381019190915260148601548385015284019190915260158401549183019190915260168301549082015260179091015460ff1615156080909101525160a001519392505050565b6000818152609d6020908152604080832081516101208101835281548082526001830154948201949094526002820154928101929092526003810154606083015260048101546080830152600581015460a0830152600681015460c0830152600781015460e08301526008015460ff161515610100820152609c8054849384939290918491908390811061102557611025612d4d565b6000918252602090912060408051610220810190915260189092020180546001600160a01b038082166101208501908152600160a01b830460ff16610140860152600160a81b90920461ffff1661016085015260018301541661018084015260028201805484929184916101a08501919061109f90612d13565b80601f01602080910402602001604051908101604052809291908181526020018280546110cb90612d13565b80156111185780601f106110ed57610100808354040283529160200191611118565b820191906000526020600020905b8154815290600101906020018083116110fb57829003601f168201915b505050918352505060038201546020808301919091526004830154604080840191909152600590930154606092830152928452815180830183526006860154815260078601548185015284840152815180830183526008860154815260098601548185015284830152815160808082018452600a8701548252600b87015482860152600c87015482850152600d87015460ff161515828401528583019190915282518082018452600e870180548252600f8801548287015260108801548286015260118801805486518189028101890190975280875293909701969195909493860193929083018282801561122c57602002820191906000526020600020905b815481526020019060010190808311611218575b505050919092525050508152604080516060808201835260128501546001600160a01b0316825260138501546020808401919091526014860154838501528085019290925260158501548385015260168501548185015260179094015460ff16151560809384015260e085015160a0890151918901519489015193890151925163ad6fa23360e01b8152600481019190915260248101919091526044810193909352606483019190915260848201529091506000908190819073__$4defa815a6c8401eda00ac6be9b95d3cdb$__9063ad6fa2339060a401606060405180830381865af4158015611321573d6000803e3d6000fd5b505050506040513d601f19601f820116820180604052508101906113459190612d8c565b50999b989a5096985050505050505050565b60008060008061136685611954565b935061137185612517565b915061137c856119e3565b925061138785610cfc565b90509193509193565b600080609c83815481106113a6576113a6612d4d565b6000918252602090912060408051610220810190915260189092020180546001600160a01b038082166101208501908152600160a01b830460ff16610140860152600160a81b90920461ffff1661016085015260018301541661018084015260028201805484929184916101a08501919061142090612d13565b80601f016020809104026020016040519081016040528092919081815260200182805461144c90612d13565b80156114995780601f1061146e57610100808354040283529160200191611499565b820191906000526020600020905b81548152906001019060200180831161147c57829003601f168201915b505050918352505060038201546020808301919091526004830154604080840191909152600590930154606092830152928452815180830183526006860154815260078601548185015284840152815180830183526008860154815260098601548185015284830152815160808082018452600a8701548252600b87015482860152600c87015482850152600d87015460ff161515828401528583019190915282518082018452600e870180548252600f880154828701526010880154828601526011880180548651818902810189019097528087529390970196919590949386019392908301828280156115ad57602002820191906000526020600020905b815481526020019060010190808311611599575b505050919092525050508152604080516060808201835260128501546001600160a01b03168252601385015460208381019190915260148601548385015284019190915260158401549183019190915260168301549082015260179091015460ff161515608090910152509092915050565b600080609c838154811061163557611635612d4d565b6000918252602090912060408051610220810190915260189092020180546001600160a01b038082166101208501908152600160a01b830460ff16610140860152600160a81b90920461ffff1661016085015260018301541661018084015260028201805484929184916101a0850191906116af90612d13565b80601f01602080910402602001604051908101604052809291908181526020018280546116db90612d13565b80156117285780601f106116fd57610100808354040283529160200191611728565b820191906000526020600020905b81548152906001019060200180831161170b57829003601f168201915b505050918352505060038201546020808301919091526004830154604080840191909152600590930154606092830152928452815180830183526006860154815260078601548185015284840152815180830183526008860154815260098601548185015284830152815160808082018452600a8701548252600b87015482860152600c87015482850152600d87015460ff161515828401528583019190915282518082018452600e870180548252600f8801548287015260108801548286015260118801805486518189028101890190975280875293909701969195909493860193929083018282801561183c57602002820191906000526020600020905b815481526020019060010190808311611828575b505050919092525050508152604080516060808201835260128501546001600160a01b0316825260138501546020838101919091526014860154838501528085019290925260158501549284019290925260168401549183019190915260179092015460ff161515608090910152818101519081015190519192506118c091612d79565b815160c00151610cf59190612d79565b6001600160a01b0381166000908152609f602090815260408083205460a183528184205460a0909352908320549091908161190b8483612d79565b6119159190612d79565b93509193509193565b60006301e1338061271062093a806119368587612dba565b6119409190612dba565b61194a9190612dd1565b610cf59190612dd1565b60006127106119656103e882612df3565b61196e8461161f565b6119789190612dba565b6119829190612dd1565b92915050565b609e60205281600052604060002081815481106119a457600080fd5b90600052602060002001600091509150505481565b60a881815481106119c957600080fd5b6000918252602090912001546001600160a01b0316905081565b600080609c83815481106119f9576119f9612d4d565b6000918252602090912060408051610220810190915260189092020180546001600160a01b038082166101208501908152600160a01b830460ff16610140860152600160a81b90920461ffff1661016085015260018301541661018084015260028201805484929184916101a085019190611a7390612d13565b80601f0160208091040260200160405190810160405280929190818152602001828054611a9f90612d13565b8015611aec5780601f10611ac157610100808354040283529160200191611aec565b820191906000526020600020905b815481529060010190602001808311611acf57829003601f168201915b505050918352505060038201546020808301919091526004830154604080840191909152600590930154606092830152928452815180830183526006860154815260078601548185015284840152815180830183526008860154815260098601548185015284830152815160808082018452600a8701548252600b87015482860152600c87015482850152600d87015460ff161515828401528583019190915282518082018452600e870180548252600f88015482870152601088015482860152601188018054865181890281018901909752808752939097019691959094938601939290830182828015611c0057602002820191906000526020600020905b815481526020019060010190808311611bec575b505050919092525050508152604080516060808201835260128501546001600160a01b03168252601385015460208381019190915260148601548385015284019190915260158401548284015260168401549083015260179092015460ff1615156080909101529051015161ffff169392505050565b600080600080609c8581548110611c8f57611c8f612d4d565b6000918252602090912060408051610220810190915260189092020180546001600160a01b038082166101208501908152600160a01b830460ff16610140860152600160a81b90920461ffff1661016085015260018301541661018084015260028201805484929184916101a085019190611d0990612d13565b80601f0160208091040260200160405190810160405280929190818152602001828054611d3590612d13565b8015611d825780601f10611d5757610100808354040283529160200191611d82565b820191906000526020600020905b815481529060010190602001808311611d6557829003601f168201915b505050918352505060038201546020808301919091526004830154604080840191909152600590930154606092830152928452815180830183526006860154815260078601548185015284840152815180830183526008860154815260098601548185015284830152815160808082018452600a8701548252600b87015482860152600c87015482850152600d87015460ff161515828401528583019190915282518082018452600e870180548252600f88015482870152601088015482860152601188018054865181890281018901909752808752939097019691959094938601939290830182828015611e9657602002820191906000526020600020905b815481526020019060010190808311611e82575b505050919092525050508152604080516060808201835260128501546001600160a01b0316825260138501546020838101919091526014860154838501528085019290925260158501548385015260168501548185015260179094015460ff16151560809093019290925292909101518051918101519201519097919650945092505050565b600080600080609c8581548110611f3557611f35612d4d565b6000918252602090912060408051610220810190915260189092020180546001600160a01b038082166101208501908152600160a01b830460ff16610140860152600160a81b90920461ffff1661016085015260018301541661018084015260028201805484929184916101a085019190611faf90612d13565b80601f0160208091040260200160405190810160405280929190818152602001828054611fdb90612d13565b80156120285780601f10611ffd57610100808354040283529160200191612028565b820191906000526020600020905b81548152906001019060200180831161200b57829003601f168201915b505050918352505060038201546020808301919091526004830154604080840191909152600590930154606092830152928452815180830183526006860154815260078601548185015284840152815180830183526008860154815260098601548185015284830152815160808082018452600a8701548252600b87015482860152600c87015482850152600d87015460ff161515828401528583019190915282518082018452600e870180548252600f8801548287015260108801548286015260118801805486518189028101890190975280875293909701969195909493860193929083018282801561213c57602002820191906000526020600020905b815481526020019060010190808311612128575b505050919092525050508152604080516060808201835260128501546001600160a01b03168252601385015460208381019190915260148601548385015284019190915260158401548284015260168401549083015260179092015460ff161515608090910152815160a08101519101519192506121bd9161ffff1661191e565b60409091015180516020909101519196909550909350915050565b6034546001600160a01b031633146122465760405162461bcd60e51b815260206004820152602660248201527f6f6e6c792070656e64696e67206f776e65722063616e2061636365707420747260448201526530b739b332b960d11b60648201526084015b60405180910390fd5b60345461225b906001600160a01b0316612839565b565b6060609c805480602002602001604051908101604052809291908181526020016000905b8282101561250e576000848152602090206040805161022081019091526018840290910180546001600160a01b038082166101208501908152600160a01b830460ff16610140860152600160a81b90920461ffff1661016085015260018301541661018084015260028201805484929184916101a08501919061230390612d13565b80601f016020809104026020016040519081016040528092919081815260200182805461232f90612d13565b801561237c5780601f106123515761010080835404028352916020019161237c565b820191906000526020600020905b81548152906001019060200180831161235f57829003601f168201915b505050918352505060038201546020808301919091526004830154604080840191909152600590930154606092830152928452815180830183526006860154815260078601548185015284840152815180830183526008860154815260098601548185015284830152815160808082018452600a8701548252600b87015482860152600c87015482850152600d87015460ff161515828401528583019190915282518082018452600e870180548252600f8801548287015260108801548286015260118801805486518189028101890190975280875293909701969195909493860193929083018282801561249057602002820191906000526020600020905b81548152602001906001019080831161247c575b505050919092525050508152604080516060808201835260128501546001600160a01b0316825260138501546020838101919091526014860154838501528085019290925260158501549284019290925260168401549183019190915260179092015460ff1615156080909101529082526001929092019101612281565b50505050905090565b600080609c838154811061252d5761252d612d4d565b6000918252602090912060408051610220810190915260189092020180546001600160a01b038082166101208501908152600160a01b830460ff16610140860152600160a81b90920461ffff1661016085015260018301541661018084015260028201805484929184916101a0850191906125a790612d13565b80601f01602080910402602001604051908101604052809291908181526020018280546125d390612d13565b80156126205780601f106125f557610100808354040283529160200191612620565b820191906000526020600020905b81548152906001019060200180831161260357829003601f168201915b505050918352505060038201546020808301919091526004830154604080840191909152600590930154606092830152928452815180830183526006860154815260078601548185015284840152815180830183526008860154815260098601548185015284830152815160808082018452600a8701548252600b87015482860152600c87015482850152600d87015460ff161515828401528583019190915282518082018452600e870180548252600f8801548287015260108801548286015260118801805486518189028101890190975280875293909701969195909493860193929083018282801561273457602002820191906000526020600020905b815481526020019060010190808311612720575b505050919092525050508152604080516060808201835260128501546001600160a01b03168252601385015460208381019190915260148601548385015284019190915260158401549183019190915260168301549082015260179091015460ff1615156080909101525160c001519392505050565b6127b2612896565b6001600160a01b0381166128175760405162461bcd60e51b815260206004820152602660248201527f4f776e61626c653a206e6577206f776e657220697320746865207a65726f206160448201526564647265737360d01b606482015260840161223d565b603480546001600160a01b0319166001600160a01b0392909216919091179055565b603380546001600160a01b038381166001600160a01b03198084168217909455603480549094169093556040519116919082907f8be0079c531659141344cd1fd0a4f28419497f9722a3daafe3b4186f6b6457e090600090a35050565b6033546001600160a01b0316331461225b5760405162461bcd60e51b815260206004820181905260248201527f4f776e61626c653a2063616c6c6572206973206e6f7420746865206f776e6572604482015260640161223d565b80356001600160a01b038116811461290757600080fd5b919050565b6000806040838503121561291f57600080fd5b612928836128f0565b9150612936602084016128f0565b90509250929050565b6000806040838503121561295257600080fd5b50508035926020909101359150565b60006020828403121561297357600080fd5b5035919050565b6000815180845260005b818110156129a057602081850181015186830182015201612984565b506000602082860101526020601f19601f83011685010191505092915050565b600061010060018060a01b03835116845260ff602084015116602085015261ffff60408401511660408501526060830151612a0660608601826001600160a01b03169052565b506080830151816080860152612a1e8286018261297a565b91505060a083015160a085015260c083015160c085015260e083015160e08501528091505092915050565b60006080830182518452602080840151818601526040840151604086015260608401516080606087015282815180855260a0880191508383019450600092505b80831015612aa95784518252938301936001929092019190830190612a89565b509695505050505050565b6000610200808352612ac88184018d6129c0565b9050612ae1602084018c80518252602090810151910152565b8951606084015260208a01516080840152885160a0840152602089015160c0840152604089015160e084015260608901511515610100840152828103610120840152612b2d8189612a49565b87516001600160a01b0316610140850152602088015161016085015260408801516101808501529150612b5d9050565b846101a0830152836101c08301528215156101e08301529a9950505050505050505050565b60008060408385031215612b9557600080fd5b612b9e836128f0565b946020939093013593505050565b600060208284031215612bbe57600080fd5b610cf5826128f0565b60006020808301818452808551808352604092508286019150828160051b87010184880160005b83811015612d0557603f1989840301855281516102008151818652612c15828701826129c0565b91505088820151612c328a87018280518252602090810151910152565b50878201516060612c4f8188018380518252602090810151910152565b830151905060a0612c85878201838051825260208101516020830152604081015160408301526060810151151560608301525050565b60808401519150868303610120880152612c9f8383612a49565b9084015180516001600160a01b031661014089015260208101516101608901526040015161018088015260c08401516101a088015260e08401516101c08801526101009093015115156101e0909601959095525094870194925090860190600101612bee565b509098975050505050505050565b600181811c90821680612d2757607f821691505b602082108103612d4757634e487b7160e01b600052602260045260246000fd5b50919050565b634e487b7160e01b600052603260045260246000fd5b634e487b7160e01b600052601160045260246000fd5b8082018082111561198257611982612d63565b600080600060608486031215612da157600080fd5b8351925060208401519150604084015190509250925092565b808202811582820484141761198257611982612d63565b600082612dee57634e487b7160e01b600052601260045260246000fd5b500490565b8181038181111561198257611982612d6356fea2646970667358221220e47a12d14ff79be659d92771e3c5bdbbca67b197df9ec810580b74da8947dd6c64736f6c63430008110033",
    "linkReferences": {
      "src/lib/SaloonLib.sol": {
        "SaloonLib": [
          {
            "start": 4871,
            "length": 20
          }
        ]
      }
    }
  },
  "methodIdentifiers": {
    "YEAR()": "83914540",
    "acceptOwnershipTransfer()": "b842e87f",
    "activeStrategies(uint256)": "b20b2429",
    "activeTokens(uint256)": "9f224f35",
    "calcRequiredPremiumBalancePerPeriod(uint256,uint256)": "836ef1fa",
    "minTokenStakeAmount(address)": "39458723",
    "nftInfo(uint256)": "1f8bc790",
    "owner()": "8da5cb5b",
    "pendingPremium(uint256)": "40bd1d00",
    "pidNFTList(uint256,uint256)": "96ea48e8",
    "pidStrategies(uint256,bytes32)": "074ecf03",
    "poolInfo(uint256)": "1526fe27",
    "receiveStrategyYield(address,uint256)": "1aebcecb",
    "referralBalances(address,address)": "011b408b",
    "saloonBounty()": "79923898",
    "saloonBountyProfit(address)": "e45abd0f",
    "saloonManager()": "220e1124",
    "saloonPremiumProfit(address)": "ca006148",
    "saloonProjectPortal()": "277fd2a1",
    "saloonStrategyProfit(address)": "598d17bf",
    "saloonView()": "0a07f543",
    "strategyAddressToPid(address)": "957deecc",
    "strategyFactory()": "9ef35710",
    "tokenWhitelist(address)": "753d7563",
    "transferOwnership(address)": "f2fde38b",
    "viewAllPoolsInfo()": "cacb1a29",
    "viewBountyBalance(uint256)": "6ac6d812",
    "viewBountyInfo(uint256)": "40ef2868",
    "viewHackerPayout(uint256)": "861e5f66",
    "viewMinProjectDeposit(uint256)": "1c6b323f",
    "viewPoolAPY(uint256)": "a27f9213",
    "viewPoolCap(uint256)": "39679ff4",
    "viewPoolPremiumInfo(uint256)": "b1a2d16f",
    "viewPoolTimelockInfo(uint256)": "ac30b856",
    "viewProjectWallet(uint256)": "53e173ca",
    "viewReferralBalance(address,address)": "0ed7610c",
    "viewSaloonProfitBalance(address)": "718c7eef",
    "viewTokenInfo(uint256)": "10725852",
    "viewTokenWhitelistStatus(address)": "9fe72202",
    "viewTotalStaked(uint256)": "dbdd6957"
  },
  "id": 48
}