{
  "abi": [
    {
      "inputs": [
        {
          "internalType": "address",
          "name": "_manager",
          "type": "address"
        }
      ],
      "stateMutability": "nonpayable",
      "type": "constructor"
    },
    {
      "inputs": [],
      "name": "BOUNTY_COMMISSION",
      "outputs": [
        {
          "internalType": "uint256",
          "name": "",
          "type": "uint256"
        }
      ],
      "stateMutability": "view",
      "type": "function"
    },
    {
      "inputs": [],
      "name": "DENOMINATOR",
      "outputs": [
        {
          "internalType": "uint256",
          "name": "",
          "type": "uint256"
        }
      ],
      "stateMutability": "view",
      "type": "function"
    },
    {
      "inputs": [
        {
          "internalType": "address",
          "name": "_token",
          "type": "address"
        },
        {
          "internalType": "uint256",
          "name": "_decimals",
          "type": "uint256"
        },
        {
          "internalType": "address",
          "name": "_hunter",
          "type": "address"
        },
        {
          "internalType": "uint256",
          "name": "_amount",
          "type": "uint256"
        }
      ],
      "name": "bountyPaid",
      "outputs": [],
      "stateMutability": "nonpayable",
      "type": "function"
    },
    {
      "inputs": [],
      "name": "cummulativeCommission",
      "outputs": [
        {
          "internalType": "uint256",
          "name": "",
          "type": "uint256"
        }
      ],
      "stateMutability": "view",
      "type": "function"
    },
    {
      "inputs": [],
      "name": "cummulativeHackerPayouts",
      "outputs": [
        {
          "internalType": "uint256",
          "name": "",
          "type": "uint256"
        }
      ],
      "stateMutability": "view",
      "type": "function"
    },
    {
      "inputs": [
        {
          "internalType": "address",
          "name": "",
          "type": "address"
        }
      ],
      "name": "enshieldTokenBalance",
      "outputs": [
        {
          "internalType": "uint256",
          "name": "",
          "type": "uint256"
        }
      ],
      "stateMutability": "view",
      "type": "function"
    },
    {
      "inputs": [],
      "name": "enshieldTotalBalance",
      "outputs": [
        {
          "internalType": "uint256",
          "name": "",
          "type": "uint256"
        }
      ],
      "stateMutability": "view",
      "type": "function"
    },
    {
      "inputs": [
        {
          "internalType": "address",
          "name": "",
          "type": "address"
        },
        {
          "internalType": "address",
          "name": "",
          "type": "address"
        }
      ],
      "name": "hunterTokenBalance",
      "outputs": [
        {
          "internalType": "uint256",
          "name": "",
          "type": "uint256"
        }
      ],
      "stateMutability": "view",
      "type": "function"
    },
    {
      "inputs": [],
      "name": "manager",
      "outputs": [
        {
          "internalType": "address",
          "name": "",
          "type": "address"
        }
      ],
      "stateMutability": "view",
      "type": "function"
    },
    {
      "inputs": [],
      "name": "premiumFees",
      "outputs": [
        {
          "internalType": "uint256",
          "name": "",
          "type": "uint256"
        }
      ],
      "stateMutability": "view",
      "type": "function"
    },
    {
      "inputs": [
        {
          "internalType": "address",
          "name": "_token",
          "type": "address"
        },
        {
          "internalType": "uint256",
          "name": "_amount",
          "type": "uint256"
        }
      ],
      "name": "premiumFeesCollected",
      "outputs": [],
      "stateMutability": "nonpayable",
      "type": "function"
    },
    {
      "inputs": [],
      "name": "viewEnshieldBalance",
      "outputs": [
        {
          "internalType": "uint256",
          "name": "",
          "type": "uint256"
        }
      ],
      "stateMutability": "view",
      "type": "function"
    },
    {
      "inputs": [
        {
          "internalType": "address",
          "name": "_token",
          "type": "address"
        },
        {
          "internalType": "address",
          "name": "_hunter",
          "type": "address"
        }
      ],
      "name": "viewHunterTotalTokenPayouts",
      "outputs": [
        {
          "internalType": "uint256",
          "name": "",
          "type": "uint256"
        }
      ],
      "stateMutability": "view",
      "type": "function"
    },
    {
      "inputs": [],
      "name": "viewTotalEarnedEnshield",
      "outputs": [
        {
          "internalType": "uint256",
          "name": "",
          "type": "uint256"
        }
      ],
      "stateMutability": "view",
      "type": "function"
    },
    {
      "inputs": [],
      "name": "viewTotalEnshieldCommission",
      "outputs": [
        {
          "internalType": "uint256",
          "name": "",
          "type": "uint256"
        }
      ],
      "stateMutability": "view",
      "type": "function"
    },
    {
      "inputs": [],
      "name": "viewTotalHackerPayouts",
      "outputs": [
        {
          "internalType": "uint256",
          "name": "",
          "type": "uint256"
        }
      ],
      "stateMutability": "view",
      "type": "function"
    },
    {
      "inputs": [],
      "name": "viewTotalPremiums",
      "outputs": [
        {
          "internalType": "uint256",
          "name": "",
          "type": "uint256"
        }
      ],
      "stateMutability": "view",
      "type": "function"
    },
    {
      "inputs": [
        {
          "internalType": "address",
          "name": "_token",
          "type": "address"
        },
        {
          "internalType": "address",
          "name": "_to",
          "type": "address"
        },
        {
          "internalType": "uint256",
          "name": "_amount",
          "type": "uint256"
        },
        {
          "internalType": "uint256",
          "name": "_decimals",
          "type": "uint256"
        }
      ],
      "name": "withdrawEnshieldFunds",
      "outputs": [
        {
          "internalType": "bool",
          "name": "",
          "type": "bool"
        }
      ],
      "stateMutability": "nonpayable",
      "type": "function"
    }
  ],
  "bytecode": {
    "object": "0x60a060405234801561001057600080fd5b50604051610cec380380610cec83398101604081905261002f91610040565b6001600160a01b0316608052610070565b60006020828403121561005257600080fd5b81516001600160a01b038116811461006957600080fd5b9392505050565b608051610c4c6100a060003960008181610158015281816102aa0152818161043a01526105120152610c4c6000f3fe608060405234801561001057600080fd5b50600436106101165760003560e01c8063913737ec116100a2578063c9e66d4111610071578063c9e66d4114610231578063e5125d7b14610239578063e651b25a14610241578063e679af8e14610249578063f1b5f8e41461025257600080fd5b8063913737ec146101f6578063918f8674146101fe578063ab5f661514610206578063c31495901461022957600080fd5b8063700c9085116100e9578063700c9085146101925780637a76be861461019b57806383ab9304146101b05780638b8b7e1b146101c35780638c39444c146101ee57600080fd5b8063215803221461011b5780632847e5e314610141578063311820e71461014a578063481c6a7514610153575b600080fd5b61012e6101293660046108cc565b610272565b6040519081526020015b60405180910390f35b61012e60025481565b61012e60015481565b61017a7f000000000000000000000000000000000000000000000000000000000000000081565b6040516001600160a01b039091168152602001610138565b61012e60005481565b6101ae6101a93660046108ff565b61029f565b005b6101ae6101be366004610943565b61042f565b61012e6101d13660046108cc565b600460209081526000928352604080842090915290825290205481565b61012e6104d9565b60025461012e565b61012e606481565b61021961021436600461096d565b610505565b6040519015158152602001610138565b60035461012e565b61012e600a81565b60005461012e565b60015461012e565b61012e60035481565b61012e6102603660046109af565b60056020526000908152604090205481565b6001600160a01b038082166000908152600460209081526040808320938616835292905220545b92915050565b336001600160a01b037f000000000000000000000000000000000000000000000000000000000000000016146102f05760405162461bcd60e51b81526004016102e7906109d1565b60405180910390fd5b60006102fd846012610a15565b156103125761030d846012610a15565b610315565b60125b905060006064600a6103278482610b10565b6103319086610b1c565b61033b9190610b1c565b6103459190610b3b565b9050600061035483600a610b10565b61035e9085610b1c565b9050600061036c8383610a15565b6001600160a01b038088166000908152600460209081526040808320938d168352929052908120805492935083929091906103a8908490610b5d565b9250508190555080600360008282546103c19190610b5d565b90915550506001600160a01b038816600090815260056020526040812080548592906103ee908490610b5d565b9250508190555082600160008282546104079190610b5d565b9250508190555082600260008282546104209190610b5d565b90915550505050505050505050565b336001600160a01b037f000000000000000000000000000000000000000000000000000000000000000016146104775760405162461bcd60e51b81526004016102e7906109d1565b6001600160a01b0382166000908152600560205260408120805483929061049f908490610b5d565b92505081905550806000808282546104b79190610b5d565b9250508190555080600160008282546104d09190610b5d565b90915550505050565b6000806104e560005490565b905060006104f260025490565b90506104fe8183610b5d565b9250505090565b6000336001600160a01b037f0000000000000000000000000000000000000000000000000000000000000000161461054f5760405162461bcd60e51b81526004016102e7906109d1565b6001600160a01b0385166000908152600560205260409020548311156105ac5760405162461bcd60e51b81526020600482015260126024820152716e6f7420656e6f7567682062616c616e636560701b60448201526064016102e7565b60006105b9836012610a15565b156105ce576105c9836012610a15565b6105d1565b60125b905060006105e082600a610b10565b6105ea9086610b1c565b6001600160a01b038816600090815260056020526040812080549293508392909190610617908490610a15565b9250508190555080600160008282546106309190610a15565b9091555061064a90506001600160a01b038816878361065a565b506001925050505b949350505050565b604080516001600160a01b038416602482015260448082018490528251808303909101815260649091019091526020810180516001600160e01b031663a9059cbb60e01b1790526000906106af9085906106b9565b5060019392505050565b600061070e826040518060400160405280602081526020017f5361666545524332303a206c6f772d6c6576656c2063616c6c206661696c6564815250856001600160a01b03166107909092919063ffffffff16565b80519091501561078b578080602001905181019061072c9190610b75565b61078b5760405162461bcd60e51b815260206004820152602a60248201527f5361666545524332303a204552433230206f7065726174696f6e20646964206e6044820152691bdd081cdd58d8d9595960b21b60648201526084016102e7565b505050565b6060610652848460008585600080866001600160a01b031685876040516107b79190610bc7565b60006040518083038185875af1925050503d80600081146107f4576040519150601f19603f3d011682016040523d82523d6000602084013e6107f9565b606091505b509150915061080a87838387610815565b979650505050505050565b6060831561088157825161087a576001600160a01b0385163b61087a5760405162461bcd60e51b815260206004820152601d60248201527f416464726573733a2063616c6c20746f206e6f6e2d636f6e747261637400000060448201526064016102e7565b5081610652565b61065283838151156108965781518083602001fd5b8060405162461bcd60e51b81526004016102e79190610be3565b80356001600160a01b03811681146108c757600080fd5b919050565b600080604083850312156108df57600080fd5b6108e8836108b0565b91506108f6602084016108b0565b90509250929050565b6000806000806080858703121561091557600080fd5b61091e856108b0565b935060208501359250610933604086016108b0565b9396929550929360600135925050565b6000806040838503121561095657600080fd5b61095f836108b0565b946020939093013593505050565b6000806000806080858703121561098357600080fd5b61098c856108b0565b935061099a602086016108b0565b93969395505050506040820135916060013590565b6000602082840312156109c157600080fd5b6109ca826108b0565b9392505050565b60208082526014908201527313db9b1e481b585b9859d95c88185b1b1bddd95960621b604082015260600190565b634e487b7160e01b600052601160045260246000fd5b600082821015610a2757610a276109ff565b500390565b600181815b80851115610a67578160001904821115610a4d57610a4d6109ff565b80851615610a5a57918102915b93841c9390800290610a31565b509250929050565b600082610a7e57506001610299565b81610a8b57506000610299565b8160018114610aa15760028114610aab57610ac7565b6001915050610299565b60ff841115610abc57610abc6109ff565b50506001821b610299565b5060208310610133831016604e8410600b8410161715610aea575081810a610299565b610af48383610a2c565b8060001904821115610b0857610b086109ff565b029392505050565b60006109ca8383610a6f565b6000816000190483118215151615610b3657610b366109ff565b500290565b600082610b5857634e487b7160e01b600052601260045260246000fd5b500490565b60008219821115610b7057610b706109ff565b500190565b600060208284031215610b8757600080fd5b815180151581146109ca57600080fd5b60005b83811015610bb2578181015183820152602001610b9a565b83811115610bc1576000848401525b50505050565b60008251610bd9818460208701610b97565b9190910192915050565b6020815260008251806020840152610c02816040850160208701610b97565b601f01601f1916919091016040019291505056fea26469706673582212209f8a997b6e6f3990d2badb8adbed53ee87828f7db6d996882b37a5ed2a0bb87364736f6c634300080a0033",
    "linkReferences": {}
  },
  "methodIdentifiers": {
    "BOUNTY_COMMISSION()": "c9e66d41",
    "DENOMINATOR()": "918f8674",
    "bountyPaid(address,uint256,address,uint256)": "7a76be86",
    "cummulativeCommission()": "2847e5e3",
    "cummulativeHackerPayouts()": "e679af8e",
    "enshieldTokenBalance(address)": "f1b5f8e4",
    "enshieldTotalBalance()": "311820e7",
    "hunterTokenBalance(address,address)": "8b8b7e1b",
    "manager()": "481c6a75",
    "premiumFees()": "700c9085",
    "premiumFeesCollected(address,uint256)": "83ab9304",
    "viewEnshieldBalance()": "e651b25a",
    "viewHunterTotalTokenPayouts(address,address)": "21580322",
    "viewTotalEarnedEnshield()": "8c39444c",
    "viewTotalEnshieldCommission()": "913737ec",
    "viewTotalHackerPayouts()": "c3149590",
    "viewTotalPremiums()": "e5125d7b",
    "withdrawEnshieldFunds(address,address,uint256,uint256)": "ab5f6615"
  },
  "id": 29
}