{
  "abi": [
    {
      "anonymous": false,
      "inputs": [
        {
          "indexed": false,
          "internalType": "address",
          "name": "previousAdmin",
          "type": "address"
        },
        {
          "indexed": false,
          "internalType": "address",
          "name": "newAdmin",
          "type": "address"
        }
      ],
      "name": "AdminChanged",
      "type": "event"
    },
    {
      "anonymous": false,
      "inputs": [
        {
          "indexed": true,
          "internalType": "address",
          "name": "beacon",
          "type": "address"
        }
      ],
      "name": "BeaconUpgraded",
      "type": "event"
    },
    {
      "anonymous": false,
      "inputs": [
        {
          "indexed": false,
          "internalType": "uint8",
          "name": "version",
          "type": "uint8"
        }
      ],
      "name": "Initialized",
      "type": "event"
    },
    {
      "anonymous": false,
      "inputs": [
        {
          "indexed": true,
          "internalType": "address",
          "name": "implementation",
          "type": "address"
        }
      ],
      "name": "Upgraded",
      "type": "event"
    },
    {
      "stateMutability": "payable",
      "type": "fallback"
    },
    {
      "inputs": [
        {
          "internalType": "address",
          "name": "_beaconAddress",
          "type": "address"
        },
        {
          "internalType": "bytes",
          "name": "_data",
          "type": "bytes"
        },
        {
          "internalType": "address",
          "name": "_manager",
          "type": "address"
        }
      ],
      "name": "initialize",
      "outputs": [],
      "stateMutability": "payable",
      "type": "function"
    },
    {
      "stateMutability": "payable",
      "type": "receive"
    }
  ],
  "bytecode": {
    "object": "0x608060405234801561001057600080fd5b50610915806100206000396000f3fe6080604052600436106100225760003560e01c8063abf90f7b1461006b57610056565b3661005657336000805160206108998339815191525b546001600160a01b03161461004c57600080fd5b61005461007e565b005b33600080516020610899833981519152610038565b61005461007936600461072c565b610090565b61008e6100896101b6565b610226565b565b600054610100900460ff16158080156100b05750600054600160ff909116105b806100ca5750303b1580156100ca575060005460ff166001145b6101325760405162461bcd60e51b815260206004820152602e60248201527f496e697469616c697a61626c653a20636f6e747261637420697320616c72656160448201526d191e481a5b9a5d1a585b1a5e995960921b60648201526084015b60405180910390fd5b6000805460ff191660011790558015610155576000805461ff0019166101001790555b6101618484600061024f565b61016a82610309565b80156101b0576000805461ff0019169055604051600181527f7f26b83ff96e1f2b6a682f133852f6798a09c465da95921460cefb38474024989060200160405180910390a15b50505050565b60006101c0610360565b6001600160a01b0316635c60da1b6040518163ffffffff1660e01b8152600401602060405180830381865afa1580156101fd573d6000803e3d6000fd5b505050506040513d601f19601f820116820180604052508101906102219190610800565b905090565b3660008037600080366000845af43d6000803e808015610245573d6000f35b3d6000fd5b505050565b61025883610393565b6040516001600160a01b038416907f1cf3b03a6cf19fa2baba4df148e9dcabedea7f8a5c07840e207e5c089be95d3e90600090a26000825111806102995750805b1561024a576101b0836001600160a01b0316635c60da1b6040518163ffffffff1660e01b8152600401602060405180830381865afa1580156102df573d6000803e3d6000fd5b505050506040513d601f19601f820116820180604052508101906103039190610800565b83610515565b7f7e644d79422f17c01e4894b5f4f588d331ebfa28653d42ae832dc59e38c9798f610332610541565b604080516001600160a01b03928316815291841660208301520160405180910390a161035d81610557565b50565b60007fa3f0ad74e5423aebfd80d3ef4346578335a9a72aeaee59ff6cb3582b35133d505b546001600160a01b0316919050565b6001600160a01b0381163b6103f85760405162461bcd60e51b815260206004820152602560248201527f455243313936373a206e657720626561636f6e206973206e6f74206120636f6e6044820152641d1c9858dd60da1b6064820152608401610129565b61046c816001600160a01b0316635c60da1b6040518163ffffffff1660e01b8152600401602060405180830381865afa158015610439573d6000803e3d6000fd5b505050506040513d601f19601f8201168201806040525081019061045d9190610800565b6001600160a01b03163b151590565b6104d15760405162461bcd60e51b815260206004820152603060248201527f455243313936373a20626561636f6e20696d706c656d656e746174696f6e206960448201526f1cc81b9bdd08184818dbdb9d1c9858dd60821b6064820152608401610129565b807fa3f0ad74e5423aebfd80d3ef4346578335a9a72aeaee59ff6cb3582b35133d505b80546001600160a01b0319166001600160a01b039290921691909117905550565b606061053a83836040518060600160405280602781526020016108b9602791396105d1565b9392505050565b6000600080516020610899833981519152610384565b6001600160a01b0381166105bc5760405162461bcd60e51b815260206004820152602660248201527f455243313936373a206e65772061646d696e20697320746865207a65726f206160448201526564647265737360d01b6064820152608401610129565b806000805160206108998339815191526104f4565b6060600080856001600160a01b0316856040516105ee9190610849565b600060405180830381855af49150503d8060008114610629576040519150601f19603f3d011682016040523d82523d6000602084013e61062e565b606091505b509150915061063f86838387610649565b9695505050505050565b606083156106b55782516106ae576001600160a01b0385163b6106ae5760405162461bcd60e51b815260206004820152601d60248201527f416464726573733a2063616c6c20746f206e6f6e2d636f6e74726163740000006044820152606401610129565b50816106bf565b6106bf83836106c7565b949350505050565b8151156106d75781518083602001fd5b8060405162461bcd60e51b81526004016101299190610865565b6001600160a01b038116811461035d57600080fd5b8035610711816106f1565b919050565b634e487b7160e01b600052604160045260246000fd5b60008060006060848603121561074157600080fd5b833561074c816106f1565b9250602084013567ffffffffffffffff8082111561076957600080fd5b818601915086601f83011261077d57600080fd5b81358181111561078f5761078f610716565b604051601f8201601f19908116603f011681019083821181831017156107b7576107b7610716565b816040528281528960208487010111156107d057600080fd5b8260208601602083013760006020848301015280965050505050506107f760408501610706565b90509250925092565b60006020828403121561081257600080fd5b815161053a816106f1565b60005b83811015610838578181015183820152602001610820565b838111156101b05750506000910152565b6000825161085b81846020870161081d565b9190910192915050565b602081526000825180602084015261088481604085016020870161081d565b601f01601f1916919091016040019291505056feb53127684a568b3173ae13b9f8a6016e243e63b6e8ee1178d6a717850b5d6103416464726573733a206c6f772d6c6576656c2064656c65676174652063616c6c206661696c6564a2646970667358221220776784960fad2032f49ef17226c4e0fc6265e50fff03cbad8f55dd93781a01e864736f6c634300080a0033",
    "linkReferences": {}
  },
  "methodIdentifiers": {
    "initialize(address,bytes,address)": "abf90f7b"
  },
  "id": 25
}