{
  "abi": [
    {
      "anonymous": false,
      "inputs": [
        {
          "indexed": false,
          "internalType": "address",
          "name": "previousAdmin",
          "type": "address"
        },
        {
          "indexed": false,
          "internalType": "address",
          "name": "newAdmin",
          "type": "address"
        }
      ],
      "name": "AdminChanged",
      "type": "event"
    },
    {
      "anonymous": false,
      "inputs": [
        {
          "indexed": true,
          "internalType": "address",
          "name": "beacon",
          "type": "address"
        }
      ],
      "name": "BeaconUpgraded",
      "type": "event"
    },
    {
      "anonymous": false,
      "inputs": [
        {
          "indexed": false,
          "internalType": "uint8",
          "name": "version",
          "type": "uint8"
        }
      ],
      "name": "Initialized",
      "type": "event"
    },
    {
      "anonymous": false,
      "inputs": [
        {
          "indexed": true,
          "internalType": "address",
          "name": "implementation",
          "type": "address"
        }
      ],
      "name": "Upgraded",
      "type": "event"
    },
    {
      "stateMutability": "payable",
      "type": "fallback"
    },
    {
      "inputs": [
        {
          "internalType": "address",
          "name": "_beaconAddress",
          "type": "address"
        },
        {
          "internalType": "bytes",
          "name": "_data",
          "type": "bytes"
        },
        {
          "internalType": "address",
          "name": "_manager",
          "type": "address"
        }
      ],
      "name": "initialize",
      "outputs": [],
      "stateMutability": "payable",
      "type": "function"
    },
    {
      "stateMutability": "payable",
      "type": "receive"
    }
  ],
  "bytecode": {
    "object": "0x608060405234801561001057600080fd5b50610939806100206000396000f3fe6080604052600436106100225760003560e01c8063abf90f7b1461006b57610056565b3661005657336000805160206108bd8339815191525b546001600160a01b03161461004c57600080fd5b61005461007e565b005b336000805160206108bd833981519152610038565b610054610079366004610750565b610090565b61008e6100896101da565b61024a565b565b600054610100900460ff16158080156100b05750600054600160ff909116105b806100ca5750303b1580156100ca575060005460ff166001145b6101325760405162461bcd60e51b815260206004820152602e60248201527f496e697469616c697a61626c653a20636f6e747261637420697320616c72656160448201526d191e481a5b9a5d1a585b1a5e995960921b60648201526084015b60405180910390fd5b6000805460ff191660011790558015610155576000805461ff0019166101001790555b336000805160206108bd833981519152546001600160a01b03161461017957600080fd5b61018584846000610273565b61018e8261032d565b80156101d4576000805461ff0019169055604051600181527f7f26b83ff96e1f2b6a682f133852f6798a09c465da95921460cefb38474024989060200160405180910390a15b50505050565b60006101e4610384565b6001600160a01b0316635c60da1b6040518163ffffffff1660e01b8152600401602060405180830381865afa158015610221573d6000803e3d6000fd5b505050506040513d601f19601f820116820180604052508101906102459190610824565b905090565b3660008037600080366000845af43d6000803e808015610269573d6000f35b3d6000fd5b505050565b61027c836103b7565b6040516001600160a01b038416907f1cf3b03a6cf19fa2baba4df148e9dcabedea7f8a5c07840e207e5c089be95d3e90600090a26000825111806102bd5750805b1561026e576101d4836001600160a01b0316635c60da1b6040518163ffffffff1660e01b8152600401602060405180830381865afa158015610303573d6000803e3d6000fd5b505050506040513d601f19601f820116820180604052508101906103279190610824565b83610539565b7f7e644d79422f17c01e4894b5f4f588d331ebfa28653d42ae832dc59e38c9798f610356610565565b604080516001600160a01b03928316815291841660208301520160405180910390a16103818161057b565b50565b60007fa3f0ad74e5423aebfd80d3ef4346578335a9a72aeaee59ff6cb3582b35133d505b546001600160a01b0316919050565b6001600160a01b0381163b61041c5760405162461bcd60e51b815260206004820152602560248201527f455243313936373a206e657720626561636f6e206973206e6f74206120636f6e6044820152641d1c9858dd60da1b6064820152608401610129565b610490816001600160a01b0316635c60da1b6040518163ffffffff1660e01b8152600401602060405180830381865afa15801561045d573d6000803e3d6000fd5b505050506040513d601f19601f820116820180604052508101906104819190610824565b6001600160a01b03163b151590565b6104f55760405162461bcd60e51b815260206004820152603060248201527f455243313936373a20626561636f6e20696d706c656d656e746174696f6e206960448201526f1cc81b9bdd08184818dbdb9d1c9858dd60821b6064820152608401610129565b807fa3f0ad74e5423aebfd80d3ef4346578335a9a72aeaee59ff6cb3582b35133d505b80546001600160a01b0319166001600160a01b039290921691909117905550565b606061055e83836040518060600160405280602781526020016108dd602791396105f5565b9392505050565b60006000805160206108bd8339815191526103a8565b6001600160a01b0381166105e05760405162461bcd60e51b815260206004820152602660248201527f455243313936373a206e65772061646d696e20697320746865207a65726f206160448201526564647265737360d01b6064820152608401610129565b806000805160206108bd833981519152610518565b6060600080856001600160a01b031685604051610612919061086d565b600060405180830381855af49150503d806000811461064d576040519150601f19603f3d011682016040523d82523d6000602084013e610652565b606091505b50915091506106638683838761066d565b9695505050505050565b606083156106d95782516106d2576001600160a01b0385163b6106d25760405162461bcd60e51b815260206004820152601d60248201527f416464726573733a2063616c6c20746f206e6f6e2d636f6e74726163740000006044820152606401610129565b50816106e3565b6106e383836106eb565b949350505050565b8151156106fb5781518083602001fd5b8060405162461bcd60e51b81526004016101299190610889565b6001600160a01b038116811461038157600080fd5b803561073581610715565b919050565b634e487b7160e01b600052604160045260246000fd5b60008060006060848603121561076557600080fd5b833561077081610715565b9250602084013567ffffffffffffffff8082111561078d57600080fd5b818601915086601f8301126107a157600080fd5b8135818111156107b3576107b361073a565b604051601f8201601f19908116603f011681019083821181831017156107db576107db61073a565b816040528281528960208487010111156107f457600080fd5b82602086016020830137600060208483010152809650505050505061081b6040850161072a565b90509250925092565b60006020828403121561083657600080fd5b815161055e81610715565b60005b8381101561085c578181015183820152602001610844565b838111156101d45750506000910152565b6000825161087f818460208701610841565b9190910192915050565b60208152600082518060208401526108a8816040850160208701610841565b601f01601f1916919091016040019291505056feb53127684a568b3173ae13b9f8a6016e243e63b6e8ee1178d6a717850b5d6103416464726573733a206c6f772d6c6576656c2064656c65676174652063616c6c206661696c6564a2646970667358221220c363f9d775a10aedf9d6e4624d87ac3c44cd111991fd96587462e022e3eb441d64736f6c634300080a0033",
    "linkReferences": {}
  }
}