{
  "abi": [
    {
      "inputs": [
        {
          "internalType": "address",
          "name": "_owner",
          "type": "address"
        }
      ],
      "stateMutability": "nonpayable",
      "type": "constructor"
    },
    {
      "inputs": [],
      "name": "STG",
      "outputs": [
        {
          "internalType": "contract IERC20",
          "name": "",
          "type": "address"
        }
      ],
      "stateMutability": "view",
      "type": "function"
    },
    {
      "inputs": [],
      "name": "USDC",
      "outputs": [
        {
          "internalType": "contract IERC20",
          "name": "",
          "type": "address"
        }
      ],
      "stateMutability": "view",
      "type": "function"
    },
    {
      "inputs": [],
      "name": "WETH9",
      "outputs": [
        {
          "internalType": "address",
          "name": "",
          "type": "address"
        }
      ],
      "stateMutability": "view",
      "type": "function"
    },
    {
      "inputs": [],
      "name": "acceptOwnershipTransfer",
      "outputs": [],
      "stateMutability": "nonpayable",
      "type": "function"
    },
    {
      "inputs": [],
      "name": "compound",
      "outputs": [
        {
          "internalType": "uint256",
          "name": "",
          "type": "uint256"
        }
      ],
      "stateMutability": "nonpayable",
      "type": "function"
    },
    {
      "inputs": [
        {
          "internalType": "uint256",
          "name": "_poolId",
          "type": "uint256"
        }
      ],
      "name": "depositToStrategy",
      "outputs": [
        {
          "internalType": "uint256",
          "name": "",
          "type": "uint256"
        }
      ],
      "stateMutability": "nonpayable",
      "type": "function"
    },
    {
      "inputs": [],
      "name": "lpDepositBalance",
      "outputs": [
        {
          "internalType": "uint256",
          "name": "",
          "type": "uint256"
        }
      ],
      "stateMutability": "view",
      "type": "function"
    },
    {
      "inputs": [],
      "name": "pendingOwner",
      "outputs": [
        {
          "internalType": "address",
          "name": "",
          "type": "address"
        }
      ],
      "stateMutability": "view",
      "type": "function"
    },
    {
      "inputs": [],
      "name": "pendingRewardBalance",
      "outputs": [
        {
          "internalType": "uint256",
          "name": "",
          "type": "uint256"
        }
      ],
      "stateMutability": "view",
      "type": "function"
    },
    {
      "inputs": [],
      "name": "poolFee",
      "outputs": [
        {
          "internalType": "uint24",
          "name": "",
          "type": "uint24"
        }
      ],
      "stateMutability": "view",
      "type": "function"
    },
    {
      "inputs": [],
      "name": "rewardBalance",
      "outputs": [
        {
          "internalType": "uint256",
          "name": "",
          "type": "uint256"
        }
      ],
      "stateMutability": "view",
      "type": "function"
    },
    {
      "inputs": [],
      "name": "saloon",
      "outputs": [
        {
          "internalType": "contract ISaloon",
          "name": "",
          "type": "address"
        }
      ],
      "stateMutability": "view",
      "type": "function"
    },
    {
      "inputs": [
        {
          "internalType": "address",
          "name": "_pendingOwner",
          "type": "address"
        }
      ],
      "name": "setPendingOwner",
      "outputs": [],
      "stateMutability": "nonpayable",
      "type": "function"
    },
    {
      "inputs": [],
      "name": "stargateLPStaking",
      "outputs": [
        {
          "internalType": "contract IStargateLPStaking",
          "name": "",
          "type": "address"
        }
      ],
      "stateMutability": "view",
      "type": "function"
    },
    {
      "inputs": [],
      "name": "stargateLPToken",
      "outputs": [
        {
          "internalType": "contract IStargateLPToken",
          "name": "",
          "type": "address"
        }
      ],
      "stateMutability": "view",
      "type": "function"
    },
    {
      "inputs": [],
      "name": "stargateRouter",
      "outputs": [
        {
          "internalType": "contract IStargateRouter",
          "name": "",
          "type": "address"
        }
      ],
      "stateMutability": "view",
      "type": "function"
    },
    {
      "inputs": [],
      "name": "uniswapRouter",
      "outputs": [
        {
          "internalType": "contract IUniswapRouter",
          "name": "",
          "type": "address"
        }
      ],
      "stateMutability": "view",
      "type": "function"
    },
    {
      "inputs": [
        {
          "internalType": "address",
          "name": "_stargateRouter",
          "type": "address"
        },
        {
          "internalType": "address",
          "name": "_stargateLPStaking",
          "type": "address"
        },
        {
          "internalType": "address",
          "name": "_stargateLPToken",
          "type": "address"
        }
      ],
      "name": "updateStargateAddresses",
      "outputs": [],
      "stateMutability": "nonpayable",
      "type": "function"
    },
    {
      "inputs": [
        {
          "internalType": "address",
          "name": "_uniswapRouter",
          "type": "address"
        }
      ],
      "name": "updateUniswapRouterAddress",
      "outputs": [],
      "stateMutability": "nonpayable",
      "type": "function"
    },
    {
      "inputs": [
        {
          "internalType": "uint256",
          "name": "_poolId",
          "type": "uint256"
        },
        {
          "internalType": "uint256",
          "name": "_amount",
          "type": "uint256"
        }
      ],
      "name": "withdrawFromStrategy",
      "outputs": [
        {
          "internalType": "uint256",
          "name": "",
          "type": "uint256"
        }
      ],
      "stateMutability": "nonpayable",
      "type": "function"
    },
    {
      "inputs": [],
      "name": "withdrawYield",
      "outputs": [
        {
          "internalType": "uint256",
          "name": "",
          "type": "uint256"
        }
      ],
      "stateMutability": "nonpayable",
      "type": "function"
    }
  ],
  "bytecode": {
    "object": "0x60806040526103e860035561271060045534801561001c57600080fd5b50604051620015fb380380620015fb83398101604081905261003d9161016d565b600580546001600160a01b0319908116738731d54e9d02c286767d56ac03e8037c07e01e981790915560068054821673b0d502e938ed5f4df2e681fe6e419ff29631d62b17905560078054821673df0770df86a8034b3efef0a1bb3c889b8332ff561790556008805490911673e592427a0aece92de3edee1f18e0157c0586156417905560405163095ea7b360e01b81526001600160a01b0382166004820152600019602482015273a0b86991c6218b36c1d19d4a2e9eb0ce3606eb489063095ea7b3906044016020604051808303816000875af1158015610123573d6000803e3d6000fd5b505050506040513d601f19601f82011682018060405250810190610147919061019d565b50600080546001600160a01b0319166001600160a01b03929092169190911790556101bf565b60006020828403121561017f57600080fd5b81516001600160a01b038116811461019657600080fd5b9392505050565b6000602082840312156101af57600080fd5b8151801515811461019657600080fd5b61142c80620001cf6000396000f3fe608060405234801561001057600080fd5b50600436106101375760003560e01c8063aba0f7f2116100b8578063e507a8a41161007c578063e507a8a41461027d578063e86c106e14610285578063ef2dcf5f14610298578063f69e2046146102ab578063f840cb83146102b3578063ff494947146102c657600080fd5b8063aba0f7f214610227578063b842e87f1461023c578063c42069ec14610244578063d33b0aa714610257578063e30c39781461026a57600080fd5b80637f1f0873116100ff5780637f1f0873146101d557806380c3c8a2146101de57806389a30271146101f1578063a9e56f3c1461020c578063aa5c3ab41461021f57600080fd5b8063089fe6aa1461013c5780630a1c049e1461015e5780634aa4a4fc146101745780634c16e973146101a7578063735de9f7146101c2575b600080fd5b610145610bb881565b60405162ffffff90911681526020015b60405180910390f35b6101666102d9565b604051908152602001610155565b61018f73c02aaa39b223fe8d0a0e5c4f27ead9083c756cc281565b6040516001600160a01b039091168152602001610155565b61018f73af5191b0de278c7286d6c7cc6ab6bb8a73ba2cd681565b60085461018f906001600160a01b031681565b61016660025481565b60005461018f906001600160a01b031681565b61018f73a0b86991c6218b36c1d19d4a2e9eb0ce3606eb4881565b60055461018f906001600160a01b031681565b610166610353565b61023a6102353660046111a7565b61038d565b005b61023a610446565b61023a6102523660046111ea565b6104bb565b61016661026536600461120c565b610507565b60015461018f906001600160a01b031681565b610166610801565b60075461018f906001600160a01b031681565b61023a6102a63660046111ea565b6108a2565b6101666108fa565b6101666102c1366004611225565b6109a0565b60065461018f906001600160a01b031681565b600654604051632f607fdd60e01b8152600060048201819052306024830152916001600160a01b031690632f607fdd906044015b602060405180830381865afa15801561032a573d6000803e3d6000fd5b505050506040513d601f19601f8201168201806040525081019061034e9190611247565b905090565b6040516370a0823160e01b815230600482015260009073af5191b0de278c7286d6c7cc6ab6bb8a73ba2cd6906370a082319060240161030d565b6000546001600160a01b031633146103c05760405162461bcd60e51b81526004016103b790611260565b60405180910390fd5b6001600160a01b038316156103eb57600580546001600160a01b0319166001600160a01b0385161790555b6001600160a01b0382161561041657600680546001600160a01b0319166001600160a01b0384161790555b6001600160a01b0381161561044157600780546001600160a01b0319166001600160a01b0383161790555b505050565b6001546001600160a01b031633146104945760405162461bcd60e51b81526020600482015260116024820152702737ba103832b73234b7339037bbb732b960791b60448201526064016103b7565b60018054600080546001600160a01b03199081166001600160a01b03841617909155169055565b6000546001600160a01b031633146104e55760405162461bcd60e51b81526004016103b790611260565b600180546001600160a01b0319166001600160a01b0392909216919091179055565b600080546001600160a01b031633146105325760405162461bcd60e51b81526004016103b790611260565b6040516370a0823160e01b815230600482015260009073a0b86991c6218b36c1d19d4a2e9eb0ce3606eb48906370a0823190602401602060405180830381865afa158015610584573d6000803e3d6000fd5b505050506040513d601f19601f820116820180604052508101906105a89190611247565b60055460405163095ea7b360e01b81526001600160a01b0390911660048201526024810182905290915073a0b86991c6218b36c1d19d4a2e9eb0ce3606eb489063095ea7b3906044016020604051808303816000875af1158015610610573d6000803e3d6000fd5b505050506040513d601f19601f820116820180604052508101906106349190611288565b506005546040516321ec87bf60e21b815260016004820152602481018390523060448201526001600160a01b03909116906387b21efc90606401600060405180830381600087803b15801561068857600080fd5b505af115801561069c573d6000803e3d6000fd5b50506007546040516370a0823160e01b8152306004820152600093506001600160a01b0390911691506370a08231906024016020604051808303816000875af11580156106ed573d6000803e3d6000fd5b505050506040513d601f19601f820116820180604052508101906107119190611247565b60075460065460405163095ea7b360e01b81526001600160a01b03918216600482015260248101849052929350169063095ea7b390604401600060405180830381600087803b15801561076357600080fd5b505af1158015610777573d6000803e3d6000fd5b5050600654604051631c57762b60e31b815260006004820152602481018590526001600160a01b03909116925063e2bbb1589150604401600060405180830381600087803b1580156107c857600080fd5b505af11580156107dc573d6000803e3d6000fd5b5050505080600260008282546107f291906112c0565b9091555090925050505b919050565b600080546001600160a01b0316331461082c5760405162461bcd60e51b81526004016103b790611260565b600654604051631c57762b60e31b815260006004820181905260248201526001600160a01b039091169063e2bbb15890604401600060405180830381600087803b15801561087957600080fd5b505af115801561088d573d6000803e3d6000fd5b50505050600061089c33610c2e565b91505090565b6000546001600160a01b031633146108cc5760405162461bcd60e51b81526004016103b790611260565b6001600160a01b038116156108f757600880546001600160a01b0319166001600160a01b0383161790555b50565b600080546001600160a01b031633146109255760405162461bcd60e51b81526004016103b790611260565b600654604051631c57762b60e31b815260006004820181905260248201526001600160a01b039091169063e2bbb15890604401600060405180830381600087803b15801561097257600080fd5b505af1158015610986573d6000803e3d6000fd5b5050505061099330610c2e565b50600061089c6001610507565b600080546001600160a01b031633146109cb5760405162461bcd60e51b81526004016103b790611260565b600254821115610a0d5760405162461bcd60e51b815260206004820152600d60248201526c04e6f7420656e6f756768206c7609c1b60448201526064016103b7565b8160026000828254610a1f91906112d3565b9091555050600654604051630441a3e760e41b815260006004820152602481018490526001600160a01b039091169063441a3e7090604401600060405180830381600087803b158015610a7157600080fd5b505af1158015610a85573d6000803e3d6000fd5b50506007546040516370a0823160e01b8152306004820152600093506001600160a01b0390911691506370a08231906024016020604051808303816000875af1158015610ad6573d6000803e3d6000fd5b505050506040513d601f19601f82011682018060405250810190610afa9190611247565b60055460405163c4de93a560e01b815261ffff87166004820152602481018390523060448201529192506000916001600160a01b039091169063c4de93a5906064016020604051808303816000875af1158015610b5b573d6000803e3d6000fd5b505050506040513d601f19601f82011682018060405250810190610b7f9190611247565b9050610b8a30610c2e565b506040516370a0823160e01b815230600482015260009073a0b86991c6218b36c1d19d4a2e9eb0ce3606eb48906370a0823190602401602060405180830381865afa158015610bdd573d6000803e3d6000fd5b505050506040513d601f19601f82011682018060405250810190610c019190611247565b9050610c2273a0b86991c6218b36c1d19d4a2e9eb0ce3606eb483383610ecf565b50925050505b92915050565b600080610c39610353565b905080600003610c4c5750600092915050565b60085460405163095ea7b360e01b81526001600160a01b0390911660048201526024810182905273af5191b0de278c7286d6c7cc6ab6bb8a73ba2cd69063095ea7b3906044016020604051808303816000875af1158015610cb1573d6000803e3d6000fd5b505050506040513d601f19601f82011682018060405250810190610cd59190611288565b506040805160a0810182527357a8c8d86f13c639436b63e6355b5dc539dd166b60611b60c082015261017760eb1b60d48201819052736015551cd911ff4685072e2793f56c841e3ab66160611b60d783015260eb8201527314170d3238c43166d83a33a945d3d619c6c0dd6960631b60ee820152815160e2818303018152610102820183528152306020820152428183015260608101839052600060808201819052600854925163c04b8d5960e01b8152919290916001600160a01b039091169063c04b8d5990610daa908590600401611336565b6020604051808303816000875af1158015610dc9573d6000803e3d6000fd5b505050506040513d601f19601f82011682018060405250810190610ded9190611247565b9050600060045460035483610e02919061138e565b610e0c91906113a5565b90506000610e1a82846112d3565b600054604051631aebcecb60e01b815273a0b86991c6218b36c1d19d4a2e9eb0ce3606eb486004820152602481018590529192506001600160a01b031690631aebcecb90604401600060405180830381600087803b158015610e7b57600080fd5b505af1158015610e8f573d6000803e3d6000fd5b505050506001600160a01b0387163014610ec457610ec273a0b86991c6218b36c1d19d4a2e9eb0ce3606eb488883610ecf565b505b509095945050505050565b604080516001600160a01b038416602482015260448082018490528251808303909101815260649091019091526020810180516001600160e01b031663a9059cbb60e01b179052600090610f24908590610f2e565b5060019392505050565b6000610f83826040518060400160405280602081526020017f5361666545524332303a206c6f772d6c6576656c2063616c6c206661696c6564815250856001600160a01b03166110009092919063ffffffff16565b8051909150156104415780806020019051810190610fa19190611288565b6104415760405162461bcd60e51b815260206004820152602a60248201527f5361666545524332303a204552433230206f7065726174696f6e20646964206e6044820152691bdd081cdd58d8d9595960b21b60648201526084016103b7565b606061100f8484600085611017565b949350505050565b6060824710156110785760405162461bcd60e51b815260206004820152602660248201527f416464726573733a20696e73756666696369656e742062616c616e636520666f6044820152651c8818d85b1b60d21b60648201526084016103b7565b600080866001600160a01b0316858760405161109491906113c7565b60006040518083038185875af1925050503d80600081146110d1576040519150601f19603f3d011682016040523d82523d6000602084013e6110d6565b606091505b50915091506110e7878383876110f2565b979650505050505050565b6060831561116157825160000361115a576001600160a01b0385163b61115a5760405162461bcd60e51b815260206004820152601d60248201527f416464726573733a2063616c6c20746f206e6f6e2d636f6e747261637400000060448201526064016103b7565b508161100f565b61100f83838151156111765781518083602001fd5b8060405162461bcd60e51b81526004016103b791906113e3565b80356001600160a01b03811681146107fc57600080fd5b6000806000606084860312156111bc57600080fd5b6111c584611190565b92506111d360208501611190565b91506111e160408501611190565b90509250925092565b6000602082840312156111fc57600080fd5b61120582611190565b9392505050565b60006020828403121561121e57600080fd5b5035919050565b6000806040838503121561123857600080fd5b50508035926020909101359150565b60006020828403121561125957600080fd5b5051919050565b6020808252600e908201526d139bdd08185d5d1a1bdc9a5e995960921b604082015260600190565b60006020828403121561129a57600080fd5b8151801515811461120557600080fd5b634e487b7160e01b600052601160045260246000fd5b80820180821115610c2857610c286112aa565b81810381811115610c2857610c286112aa565b60005b838110156113015781810151838201526020016112e9565b50506000910152565b600081518084526113228160208601602086016112e6565b601f01601f19169290920160200192915050565b602081526000825160a0602084015261135260c084018261130a565b905060018060a01b0360208501511660408401526040840151606084015260608401516080840152608084015160a08401528091505092915050565b8082028115828204841417610c2857610c286112aa565b6000826113c257634e487b7160e01b600052601260045260246000fd5b500490565b600082516113d98184602087016112e6565b9190910192915050565b602081526000611205602083018461130a56fea2646970667358221220a8b01702a03d173c11607147639cab49b86fe5a002156e9346ef194e4e8798d664736f6c63430008110033",
    "linkReferences": {}
  },
  "methodIdentifiers": {
    "STG()": "4c16e973",
    "USDC()": "89a30271",
    "WETH9()": "4aa4a4fc",
    "acceptOwnershipTransfer()": "b842e87f",
    "compound()": "f69e2046",
    "depositToStrategy(uint256)": "d33b0aa7",
    "lpDepositBalance()": "7f1f0873",
    "pendingOwner()": "e30c3978",
    "pendingRewardBalance()": "0a1c049e",
    "poolFee()": "089fe6aa",
    "rewardBalance()": "aa5c3ab4",
    "saloon()": "80c3c8a2",
    "setPendingOwner(address)": "c42069ec",
    "stargateLPStaking()": "ff494947",
    "stargateLPToken()": "e86c106e",
    "stargateRouter()": "a9e56f3c",
    "uniswapRouter()": "735de9f7",
    "updateStargateAddresses(address,address,address)": "aba0f7f2",
    "updateUniswapRouterAddress(address)": "ef2dcf5f",
    "withdrawFromStrategy(uint256,uint256)": "f840cb83",
    "withdrawYield()": "e507a8a4"
  },
  "id": 47
}