{
  "abi": [
    {
      "inputs": [],
      "stateMutability": "nonpayable",
      "type": "constructor"
    },
    {
      "anonymous": false,
      "inputs": [
        {
          "indexed": false,
          "internalType": "uint8",
          "name": "version",
          "type": "uint8"
        }
      ],
      "name": "Initialized",
      "type": "event"
    },
    {
      "anonymous": false,
      "inputs": [
        {
          "indexed": true,
          "internalType": "address",
          "name": "previousOwner",
          "type": "address"
        },
        {
          "indexed": true,
          "internalType": "address",
          "name": "newOwner",
          "type": "address"
        }
      ],
      "name": "OwnershipTransferred",
      "type": "event"
    },
    {
      "inputs": [],
      "name": "USDC",
      "outputs": [
        {
          "internalType": "contract IERC20",
          "name": "",
          "type": "address"
        }
      ],
      "stateMutability": "view",
      "type": "function"
    },
    {
      "inputs": [],
      "name": "acceptOwnershipTransfer",
      "outputs": [],
      "stateMutability": "nonpayable",
      "type": "function"
    },
    {
      "inputs": [
        {
          "internalType": "uint256",
          "name": "_poolId",
          "type": "uint256"
        },
        {
          "internalType": "uint256",
          "name": "_amount",
          "type": "uint256"
        }
      ],
      "name": "despositToStrategy",
      "outputs": [
        {
          "internalType": "uint256",
          "name": "",
          "type": "uint256"
        }
      ],
      "stateMutability": "nonpayable",
      "type": "function"
    },
    {
      "inputs": [],
      "name": "owner",
      "outputs": [
        {
          "internalType": "address",
          "name": "",
          "type": "address"
        }
      ],
      "stateMutability": "view",
      "type": "function"
    },
    {
      "inputs": [],
      "name": "stargateLPStaking",
      "outputs": [
        {
          "internalType": "contract IStargateLPStaking",
          "name": "",
          "type": "address"
        }
      ],
      "stateMutability": "view",
      "type": "function"
    },
    {
      "inputs": [],
      "name": "stargateLPToken",
      "outputs": [
        {
          "internalType": "contract IStargateLPToken",
          "name": "",
          "type": "address"
        }
      ],
      "stateMutability": "view",
      "type": "function"
    },
    {
      "inputs": [],
      "name": "stargateRouter",
      "outputs": [
        {
          "internalType": "contract IStargateRouter",
          "name": "",
          "type": "address"
        }
      ],
      "stateMutability": "view",
      "type": "function"
    },
    {
      "inputs": [
        {
          "internalType": "address",
          "name": "newOwner",
          "type": "address"
        }
      ],
      "name": "transferOwnership",
      "outputs": [],
      "stateMutability": "nonpayable",
      "type": "function"
    }
  ],
  "bytecode": {
    "object": "0x608060405234801561001057600080fd5b50606680546001600160a01b0319908116738731d54e9d02c286767d56ac03e8037c07e01e981790915560678054821673b0d502e938ed5f4df2e681fe6e419ff29631d62b1790556068805490911673df0770df86a8034b3efef0a1bb3c889b8332ff56179055610841806100866000396000f3fe608060405234801561001057600080fd5b50600436106100885760003560e01c8063e48381b41161005b578063e48381b4146100f3578063e86c106e14610114578063f2fde38b14610127578063ff4949471461013a57600080fd5b806389a302711461008d5780638da5cb5b146100c5578063a9e56f3c146100d6578063b842e87f146100e9575b600080fd5b6100a873a0b86991c6218b36c1d19d4a2e9eb0ce3606eb4881565b6040516001600160a01b0390911681526020015b60405180910390f35b6033546001600160a01b03166100a8565b6066546100a8906001600160a01b031681565b6100f161014d565b005b61010661010136600461070b565b6101d2565b6040519081526020016100bc565b6068546100a8906001600160a01b031681565b6100f161013536600461072d565b610363565b6067546100a8906001600160a01b031681565b6034546001600160a01b031633146101bb5760405162461bcd60e51b815260206004820152602660248201527f6f6e6c792070656e64696e67206f776e65722063616e2061636365707420747260448201526530b739b332b960d11b60648201526084015b60405180910390fd5b6034546101d0906001600160a01b03166103f2565b565b60006101f473a0b86991c6218b36c1d19d4a2e9eb0ce3606eb4833308561044f565b5060665460405163095ea7b360e01b81526001600160a01b0390911660048201526024810183905273a0b86991c6218b36c1d19d4a2e9eb0ce3606eb489063095ea7b3906044016020604051808303816000875af115801561025a573d6000803e3d6000fd5b505050506040513d601f19601f8201168201806040525081019061027e919061075d565b506066546040516321ec87bf60e21b815260048101859052602481018490523060448201526001600160a01b03909116906387b21efc90606401600060405180830381600087803b1580156102d257600080fd5b505af11580156102e6573d6000803e3d6000fd5b50506068546040516370a0823160e01b8152306004820152600093506001600160a01b0390911691506370a08231906024016020604051808303816000875af1158015610337573d6000803e3d6000fd5b505050506040513d601f19601f8201168201806040525081019061035b919061077f565b949350505050565b61036b6104b7565b6001600160a01b0381166103d05760405162461bcd60e51b815260206004820152602660248201527f4f776e61626c653a206e6577206f776e657220697320746865207a65726f206160448201526564647265737360d01b60648201526084016101b2565b603480546001600160a01b0319166001600160a01b0392909216919091179055565b603380546001600160a01b038381166001600160a01b03198084168217909455603480549094169093556040519116919082907f8be0079c531659141344cd1fd0a4f28419497f9722a3daafe3b4186f6b6457e090600090a35050565b604080516001600160a01b0385811660248301528416604482015260648082018490528251808303909101815260849091019091526020810180516001600160e01b03166323b872dd60e01b1790526000906104ac908690610511565b506001949350505050565b6033546001600160a01b031633146101d05760405162461bcd60e51b815260206004820181905260248201527f4f776e61626c653a2063616c6c6572206973206e6f7420746865206f776e657260448201526064016101b2565b6000610566826040518060400160405280602081526020017f5361666545524332303a206c6f772d6c6576656c2063616c6c206661696c6564815250856001600160a01b03166105e89092919063ffffffff16565b8051909150156105e35780806020019051810190610584919061075d565b6105e35760405162461bcd60e51b815260206004820152602a60248201527f5361666545524332303a204552433230206f7065726174696f6e20646964206e6044820152691bdd081cdd58d8d9595960b21b60648201526084016101b2565b505050565b606061035b848460008585600080866001600160a01b0316858760405161060f91906107bc565b60006040518083038185875af1925050503d806000811461064c576040519150601f19603f3d011682016040523d82523d6000602084013e610651565b606091505b50915091506106628783838761066d565b979650505050505050565b606083156106dc5782516000036106d5576001600160a01b0385163b6106d55760405162461bcd60e51b815260206004820152601d60248201527f416464726573733a2063616c6c20746f206e6f6e2d636f6e747261637400000060448201526064016101b2565b508161035b565b61035b83838151156106f15781518083602001fd5b8060405162461bcd60e51b81526004016101b291906107d8565b6000806040838503121561071e57600080fd5b50508035926020909101359150565b60006020828403121561073f57600080fd5b81356001600160a01b038116811461075657600080fd5b9392505050565b60006020828403121561076f57600080fd5b8151801515811461075657600080fd5b60006020828403121561079157600080fd5b5051919050565b60005b838110156107b357818101518382015260200161079b565b50506000910152565b600082516107ce818460208701610798565b9190910192915050565b60208152600082518060208401526107f7816040850160208701610798565b601f01601f1916919091016040019291505056fea264697066735822122009a1861056e33729f4ab94bf20ab8e903c8cb438e6dc665c94445b74d1dff15b64736f6c63430008110033",
    "linkReferences": {}
  },
  "methodIdentifiers": {
    "USDC()": "89a30271",
    "acceptOwnershipTransfer()": "b842e87f",
    "despositToStrategy(uint256,uint256)": "e48381b4",
    "owner()": "8da5cb5b",
    "stargateLPStaking()": "ff494947",
    "stargateLPToken()": "e86c106e",
    "stargateRouter()": "a9e56f3c",
    "transferOwnership(address)": "f2fde38b"
  },
  "id": 25
}