{
  "abi": [
    {
      "inputs": [
        {
          "internalType": "address",
          "name": "_owner",
          "type": "address"
        }
      ],
      "stateMutability": "nonpayable",
      "type": "constructor"
    },
    {
      "inputs": [],
      "name": "STG",
      "outputs": [
        {
          "internalType": "contract IERC20",
          "name": "",
          "type": "address"
        }
      ],
      "stateMutability": "view",
      "type": "function"
    },
    {
      "inputs": [],
      "name": "USDC",
      "outputs": [
        {
          "internalType": "contract IERC20",
          "name": "",
          "type": "address"
        }
      ],
      "stateMutability": "view",
      "type": "function"
    },
    {
      "inputs": [],
      "name": "WETH9",
      "outputs": [
        {
          "internalType": "address",
          "name": "",
          "type": "address"
        }
      ],
      "stateMutability": "view",
      "type": "function"
    },
    {
      "inputs": [],
      "name": "acceptOwnershipTransfer",
      "outputs": [],
      "stateMutability": "nonpayable",
      "type": "function"
    },
    {
      "inputs": [],
      "name": "compound",
      "outputs": [
        {
          "internalType": "uint256",
          "name": "",
          "type": "uint256"
        }
      ],
      "stateMutability": "nonpayable",
      "type": "function"
    },
    {
      "inputs": [
        {
          "internalType": "uint256",
          "name": "_poolId",
          "type": "uint256"
        }
      ],
      "name": "depositToStrategy",
      "outputs": [
        {
          "internalType": "uint256",
          "name": "",
          "type": "uint256"
        }
      ],
      "stateMutability": "nonpayable",
      "type": "function"
    },
    {
      "inputs": [],
      "name": "lpDepositBalance",
      "outputs": [
        {
          "internalType": "uint256",
          "name": "",
          "type": "uint256"
        }
      ],
      "stateMutability": "view",
      "type": "function"
    },
    {
      "inputs": [],
      "name": "pendingOwner",
      "outputs": [
        {
          "internalType": "address",
          "name": "",
          "type": "address"
        }
      ],
      "stateMutability": "view",
      "type": "function"
    },
    {
      "inputs": [],
      "name": "pendingRewardBalance",
      "outputs": [
        {
          "internalType": "uint256",
          "name": "",
          "type": "uint256"
        }
      ],
      "stateMutability": "view",
      "type": "function"
    },
    {
      "inputs": [],
      "name": "poolFee",
      "outputs": [
        {
          "internalType": "uint24",
          "name": "",
          "type": "uint24"
        }
      ],
      "stateMutability": "view",
      "type": "function"
    },
    {
      "inputs": [],
      "name": "poolInfo",
      "outputs": [
        {
          "internalType": "uint256",
          "name": "",
          "type": "uint256"
        },
        {
          "internalType": "uint256",
          "name": "",
          "type": "uint256"
        },
        {
          "internalType": "uint256",
          "name": "",
          "type": "uint256"
        },
        {
          "internalType": "uint256",
          "name": "",
          "type": "uint256"
        }
      ],
      "stateMutability": "view",
      "type": "function"
    },
    {
      "inputs": [],
      "name": "rewardBalance",
      "outputs": [
        {
          "internalType": "uint256",
          "name": "",
          "type": "uint256"
        }
      ],
      "stateMutability": "view",
      "type": "function"
    },
    {
      "inputs": [],
      "name": "saloon",
      "outputs": [
        {
          "internalType": "contract ISaloon",
          "name": "",
          "type": "address"
        }
      ],
      "stateMutability": "view",
      "type": "function"
    },
    {
      "inputs": [
        {
          "internalType": "address",
          "name": "_pendingOwner",
          "type": "address"
        }
      ],
      "name": "setPendingOwner",
      "outputs": [],
      "stateMutability": "nonpayable",
      "type": "function"
    },
    {
      "inputs": [],
      "name": "stargateLPStaking",
      "outputs": [
        {
          "internalType": "contract IStargateLPStaking",
          "name": "",
          "type": "address"
        }
      ],
      "stateMutability": "view",
      "type": "function"
    },
    {
      "inputs": [],
      "name": "stargateLPToken",
      "outputs": [
        {
          "internalType": "contract IStargateLPToken",
          "name": "",
          "type": "address"
        }
      ],
      "stateMutability": "view",
      "type": "function"
    },
    {
      "inputs": [],
      "name": "stargateRouter",
      "outputs": [
        {
          "internalType": "contract IStargateRouter",
          "name": "",
          "type": "address"
        }
      ],
      "stateMutability": "view",
      "type": "function"
    },
    {
      "inputs": [],
      "name": "uniswapRouter",
      "outputs": [
        {
          "internalType": "contract IUniswapRouter",
          "name": "",
          "type": "address"
        }
      ],
      "stateMutability": "view",
      "type": "function"
    },
    {
      "inputs": [
        {
          "internalType": "address",
          "name": "_stargateRouter",
          "type": "address"
        },
        {
          "internalType": "address",
          "name": "_stargateLPStaking",
          "type": "address"
        },
        {
          "internalType": "address",
          "name": "_stargateLPToken",
          "type": "address"
        }
      ],
      "name": "updateStargateAddresses",
      "outputs": [],
      "stateMutability": "nonpayable",
      "type": "function"
    },
    {
      "inputs": [
        {
          "internalType": "address",
          "name": "_uniswapRouter",
          "type": "address"
        }
      ],
      "name": "updateUniswapRouterAddress",
      "outputs": [],
      "stateMutability": "nonpayable",
      "type": "function"
    },
    {
      "inputs": [],
      "name": "userInfo",
      "outputs": [
        {
          "internalType": "uint256",
          "name": "",
          "type": "uint256"
        },
        {
          "internalType": "uint256",
          "name": "",
          "type": "uint256"
        }
      ],
      "stateMutability": "view",
      "type": "function"
    },
    {
      "inputs": [
        {
          "internalType": "uint256",
          "name": "_poolId",
          "type": "uint256"
        },
        {
          "internalType": "uint256",
          "name": "_amount",
          "type": "uint256"
        }
      ],
      "name": "withdrawFromStrategy",
      "outputs": [
        {
          "internalType": "uint256",
          "name": "",
          "type": "uint256"
        }
      ],
      "stateMutability": "nonpayable",
      "type": "function"
    },
    {
      "inputs": [],
      "name": "withdrawYield",
      "outputs": [
        {
          "internalType": "uint256",
          "name": "",
          "type": "uint256"
        }
      ],
      "stateMutability": "nonpayable",
      "type": "function"
    }
  ],
  "bytecode": {
    "object": "0x60806040526103e86003556127106004553480156200001d57600080fd5b50604051620017d1380380620017d1833981016040819052620000409162000174565b600580546001600160a01b0319908116738731d54e9d02c286767d56ac03e8037c07e01e981790915560068054821673b0d502e938ed5f4df2e681fe6e419ff29631d62b17905560078054821673df0770df86a8034b3efef0a1bb3c889b8332ff561790556008805490911673e592427a0aece92de3edee1f18e0157c0586156417905560405163095ea7b360e01b81526001600160a01b0382166004820152600019602482015273a0b86991c6218b36c1d19d4a2e9eb0ce3606eb489063095ea7b3906044016020604051808303816000875af115801562000127573d6000803e3d6000fd5b505050506040513d601f19601f820116820180604052508101906200014d9190620001a6565b50600080546001600160a01b0319166001600160a01b0392909216919091179055620001ca565b6000602082840312156200018757600080fd5b81516001600160a01b03811681146200019f57600080fd5b9392505050565b600060208284031215620001b957600080fd5b815180151581146200019f57600080fd5b6115f780620001da6000396000f3fe608060405234801561001057600080fd5b506004361061014d5760003560e01c8063aa5c3ab4116100c3578063e507a8a41161007c578063e507a8a4146102d8578063e86c106e146102e0578063ef2dcf5f146102f3578063f69e204614610306578063f840cb831461030e578063ff4949471461032157600080fd5b8063aa5c3ab41461027a578063aba0f7f214610282578063b842e87f14610297578063c42069ec1461029f578063d33b0aa7146102b2578063e30c3978146102c557600080fd5b80635a2f3d09116101155780635a2f3d09146101f5578063735de9f71461021d5780637f1f08731461023057806380c3c8a21461023957806389a302711461024c578063a9e56f3c1461026757600080fd5b8063089fe6aa146101525780630a1c049e1461017457806343a6f4ee1461018a5780634aa4a4fc146101a75780634c16e973146101da575b600080fd5b61015b610bb881565b60405162ffffff90911681526020015b60405180910390f35b61017c610334565b60405190815260200161016b565b6101926103ae565b6040805192835260208301919091520161016b565b6101c273c02aaa39b223fe8d0a0e5c4f27ead9083c756cc281565b6040516001600160a01b03909116815260200161016b565b6101c273af5191b0de278c7286d6c7cc6ab6bb8a73ba2cd681565b6101fd610434565b60408051948552602085019390935291830152606082015260800161016b565b6008546101c2906001600160a01b031681565b61017c60025481565b6000546101c2906001600160a01b031681565b6101c273a0b86991c6218b36c1d19d4a2e9eb0ce3606eb4881565b6005546101c2906001600160a01b031681565b61017c6104c4565b610295610290366004611318565b6104fe565b005b6102956105b7565b6102956102ad36600461135b565b61062c565b61017c6102c036600461137d565b610678565b6001546101c2906001600160a01b031681565b61017c610972565b6007546101c2906001600160a01b031681565b61029561030136600461135b565b610a13565b61017c610a6b565b61017c61031c366004611396565b610b11565b6006546101c2906001600160a01b031681565b600654604051632f607fdd60e01b8152600060048201819052306024830152916001600160a01b031690632f607fdd906044015b602060405180830381865afa158015610385573d6000803e3d6000fd5b505050506040513d601f19601f820116820180604052508101906103a991906113b8565b905090565b6006546040516393f1a40b60e01b8152600060048201819052306024830152918291829182916001600160a01b03909116906393f1a40b906044016040805180830381865afa158015610405573d6000803e3d6000fd5b505050506040513d601f19601f8201168201806040525081019061042991906113d1565b909590945092505050565b600654604051631526fe2760e01b81526000600482018190529182918291829182918291829182916001600160a01b0390911690631526fe2790602401608060405180830381865afa15801561048e573d6000803e3d6000fd5b505050506040513d601f19601f820116820180604052508101906104b291906113f5565b929b919a509850909650945050505050565b6040516370a0823160e01b815230600482015260009073af5191b0de278c7286d6c7cc6ab6bb8a73ba2cd6906370a0823190602401610368565b6000546001600160a01b031633146105315760405162461bcd60e51b81526004016105289061142b565b60405180910390fd5b6001600160a01b0383161561055c57600580546001600160a01b0319166001600160a01b0385161790555b6001600160a01b0382161561058757600680546001600160a01b0319166001600160a01b0384161790555b6001600160a01b038116156105b257600780546001600160a01b0319166001600160a01b0383161790555b505050565b6001546001600160a01b031633146106055760405162461bcd60e51b81526020600482015260116024820152702737ba103832b73234b7339037bbb732b960791b6044820152606401610528565b60018054600080546001600160a01b03199081166001600160a01b03841617909155169055565b6000546001600160a01b031633146106565760405162461bcd60e51b81526004016105289061142b565b600180546001600160a01b0319166001600160a01b0392909216919091179055565b600080546001600160a01b031633146106a35760405162461bcd60e51b81526004016105289061142b565b6040516370a0823160e01b815230600482015260009073a0b86991c6218b36c1d19d4a2e9eb0ce3606eb48906370a0823190602401602060405180830381865afa1580156106f5573d6000803e3d6000fd5b505050506040513d601f19601f8201168201806040525081019061071991906113b8565b60055460405163095ea7b360e01b81526001600160a01b0390911660048201526024810182905290915073a0b86991c6218b36c1d19d4a2e9eb0ce3606eb489063095ea7b3906044016020604051808303816000875af1158015610781573d6000803e3d6000fd5b505050506040513d601f19601f820116820180604052508101906107a59190611453565b506005546040516321ec87bf60e21b815260016004820152602481018390523060448201526001600160a01b03909116906387b21efc90606401600060405180830381600087803b1580156107f957600080fd5b505af115801561080d573d6000803e3d6000fd5b50506007546040516370a0823160e01b8152306004820152600093506001600160a01b0390911691506370a08231906024016020604051808303816000875af115801561085e573d6000803e3d6000fd5b505050506040513d601f19601f8201168201806040525081019061088291906113b8565b60075460065460405163095ea7b360e01b81526001600160a01b03918216600482015260248101849052929350169063095ea7b390604401600060405180830381600087803b1580156108d457600080fd5b505af11580156108e8573d6000803e3d6000fd5b5050600654604051631c57762b60e31b815260006004820152602481018590526001600160a01b03909116925063e2bbb1589150604401600060405180830381600087803b15801561093957600080fd5b505af115801561094d573d6000803e3d6000fd5b505050508060026000828254610963919061148b565b9091555090925050505b919050565b600080546001600160a01b0316331461099d5760405162461bcd60e51b81526004016105289061142b565b600654604051631c57762b60e31b815260006004820181905260248201526001600160a01b039091169063e2bbb15890604401600060405180830381600087803b1580156109ea57600080fd5b505af11580156109fe573d6000803e3d6000fd5b505050506000610a0d33610d9f565b91505090565b6000546001600160a01b03163314610a3d5760405162461bcd60e51b81526004016105289061142b565b6001600160a01b03811615610a6857600880546001600160a01b0319166001600160a01b0383161790555b50565b600080546001600160a01b03163314610a965760405162461bcd60e51b81526004016105289061142b565b600654604051631c57762b60e31b815260006004820181905260248201526001600160a01b039091169063e2bbb15890604401600060405180830381600087803b158015610ae357600080fd5b505af1158015610af7573d6000803e3d6000fd5b50505050610b0430610d9f565b506000610a0d6001610678565b600080546001600160a01b03163314610b3c5760405162461bcd60e51b81526004016105289061142b565b600254821115610b7e5760405162461bcd60e51b815260206004820152600d60248201526c04e6f7420656e6f756768206c7609c1b6044820152606401610528565b8160026000828254610b90919061149e565b9091555050600654604051630441a3e760e41b815260006004820152602481018490526001600160a01b039091169063441a3e7090604401600060405180830381600087803b158015610be257600080fd5b505af1158015610bf6573d6000803e3d6000fd5b50506007546040516370a0823160e01b8152306004820152600093506001600160a01b0390911691506370a08231906024016020604051808303816000875af1158015610c47573d6000803e3d6000fd5b505050506040513d601f19601f82011682018060405250810190610c6b91906113b8565b60055460405163c4de93a560e01b815261ffff87166004820152602481018390523060448201529192506000916001600160a01b039091169063c4de93a5906064016020604051808303816000875af1158015610ccc573d6000803e3d6000fd5b505050506040513d601f19601f82011682018060405250810190610cf091906113b8565b9050610cfb30610d9f565b506040516370a0823160e01b815230600482015260009073a0b86991c6218b36c1d19d4a2e9eb0ce3606eb48906370a0823190602401602060405180830381865afa158015610d4e573d6000803e3d6000fd5b505050506040513d601f19601f82011682018060405250810190610d7291906113b8565b9050610d9373a0b86991c6218b36c1d19d4a2e9eb0ce3606eb483383611040565b50925050505b92915050565b600080610daa6104c4565b905080600003610dbd5750600092915050565b60085460405163095ea7b360e01b81526001600160a01b0390911660048201526024810182905273af5191b0de278c7286d6c7cc6ab6bb8a73ba2cd69063095ea7b3906044016020604051808303816000875af1158015610e22573d6000803e3d6000fd5b505050506040513d601f19601f82011682018060405250810190610e469190611453565b506040805160a0810182527357a8c8d86f13c639436b63e6355b5dc539dd166b60611b60c082015261017760eb1b60d48201819052736015551cd911ff4685072e2793f56c841e3ab66160611b60d783015260eb8201527314170d3238c43166d83a33a945d3d619c6c0dd6960631b60ee820152815160e2818303018152610102820183528152306020820152428183015260608101839052600060808201819052600854925163c04b8d5960e01b8152919290916001600160a01b039091169063c04b8d5990610f1b908590600401611501565b6020604051808303816000875af1158015610f3a573d6000803e3d6000fd5b505050506040513d601f19601f82011682018060405250810190610f5e91906113b8565b9050600060045460035483610f739190611559565b610f7d9190611570565b90506000610f8b828461149e565b600054604051631aebcecb60e01b815273a0b86991c6218b36c1d19d4a2e9eb0ce3606eb486004820152602481018590529192506001600160a01b031690631aebcecb90604401600060405180830381600087803b158015610fec57600080fd5b505af1158015611000573d6000803e3d6000fd5b505050506001600160a01b03871630146110355761103373a0b86991c6218b36c1d19d4a2e9eb0ce3606eb488883611040565b505b509095945050505050565b604080516001600160a01b038416602482015260448082018490528251808303909101815260649091019091526020810180516001600160e01b031663a9059cbb60e01b17905260009061109590859061109f565b5060019392505050565b60006110f4826040518060400160405280602081526020017f5361666545524332303a206c6f772d6c6576656c2063616c6c206661696c6564815250856001600160a01b03166111719092919063ffffffff16565b8051909150156105b257808060200190518101906111129190611453565b6105b25760405162461bcd60e51b815260206004820152602a60248201527f5361666545524332303a204552433230206f7065726174696f6e20646964206e6044820152691bdd081cdd58d8d9595960b21b6064820152608401610528565b60606111808484600085611188565b949350505050565b6060824710156111e95760405162461bcd60e51b815260206004820152602660248201527f416464726573733a20696e73756666696369656e742062616c616e636520666f6044820152651c8818d85b1b60d21b6064820152608401610528565b600080866001600160a01b031685876040516112059190611592565b60006040518083038185875af1925050503d8060008114611242576040519150601f19603f3d011682016040523d82523d6000602084013e611247565b606091505b509150915061125887838387611263565b979650505050505050565b606083156112d25782516000036112cb576001600160a01b0385163b6112cb5760405162461bcd60e51b815260206004820152601d60248201527f416464726573733a2063616c6c20746f206e6f6e2d636f6e74726163740000006044820152606401610528565b5081611180565b61118083838151156112e75781518083602001fd5b8060405162461bcd60e51b815260040161052891906115ae565b80356001600160a01b038116811461096d57600080fd5b60008060006060848603121561132d57600080fd5b61133684611301565b925061134460208501611301565b915061135260408501611301565b90509250925092565b60006020828403121561136d57600080fd5b61137682611301565b9392505050565b60006020828403121561138f57600080fd5b5035919050565b600080604083850312156113a957600080fd5b50508035926020909101359150565b6000602082840312156113ca57600080fd5b5051919050565b600080604083850312156113e457600080fd5b505080516020909101519092909150565b6000806000806080858703121561140b57600080fd5b505082516020840151604085015160609095015191969095509092509050565b6020808252600e908201526d139bdd08185d5d1a1bdc9a5e995960921b604082015260600190565b60006020828403121561146557600080fd5b8151801515811461137657600080fd5b634e487b7160e01b600052601160045260246000fd5b80820180821115610d9957610d99611475565b81810381811115610d9957610d99611475565b60005b838110156114cc5781810151838201526020016114b4565b50506000910152565b600081518084526114ed8160208601602086016114b1565b601f01601f19169290920160200192915050565b602081526000825160a0602084015261151d60c08401826114d5565b905060018060a01b0360208501511660408401526040840151606084015260608401516080840152608084015160a08401528091505092915050565b8082028115828204841417610d9957610d99611475565b60008261158d57634e487b7160e01b600052601260045260246000fd5b500490565b600082516115a48184602087016114b1565b9190910192915050565b60208152600061137660208301846114d556fea2646970667358221220e27542526d8c8d4827c2efb271485eee8385d9e1dbb56b65d13158ed62cfad7f64736f6c63430008110033",
    "linkReferences": {}
  },
  "methodIdentifiers": {
    "STG()": "4c16e973",
    "USDC()": "89a30271",
    "WETH9()": "4aa4a4fc",
    "acceptOwnershipTransfer()": "b842e87f",
    "compound()": "f69e2046",
    "depositToStrategy(uint256)": "d33b0aa7",
    "lpDepositBalance()": "7f1f0873",
    "pendingOwner()": "e30c3978",
    "pendingRewardBalance()": "0a1c049e",
    "poolFee()": "089fe6aa",
    "poolInfo()": "5a2f3d09",
    "rewardBalance()": "aa5c3ab4",
    "saloon()": "80c3c8a2",
    "setPendingOwner(address)": "c42069ec",
    "stargateLPStaking()": "ff494947",
    "stargateLPToken()": "e86c106e",
    "stargateRouter()": "a9e56f3c",
    "uniswapRouter()": "735de9f7",
    "updateStargateAddresses(address,address,address)": "aba0f7f2",
    "updateUniswapRouterAddress(address)": "ef2dcf5f",
    "userInfo()": "43a6f4ee",
    "withdrawFromStrategy(uint256,uint256)": "f840cb83",
    "withdrawYield()": "e507a8a4"
  },
  "id": 49
}