{
  "abi": [
    {
      "inputs": [
        {
          "internalType": "address",
          "name": "_owner",
          "type": "address"
        },
        {
          "internalType": "address",
          "name": "_depositToken",
          "type": "address"
        }
      ],
      "stateMutability": "nonpayable",
      "type": "constructor"
    },
    {
      "inputs": [],
      "name": "DAI",
      "outputs": [
        {
          "internalType": "contract IERC20",
          "name": "",
          "type": "address"
        }
      ],
      "stateMutability": "view",
      "type": "function"
    },
    {
      "inputs": [],
      "name": "STG",
      "outputs": [
        {
          "internalType": "contract IERC20",
          "name": "",
          "type": "address"
        }
      ],
      "stateMutability": "view",
      "type": "function"
    },
    {
      "inputs": [],
      "name": "USDC",
      "outputs": [
        {
          "internalType": "contract IERC20",
          "name": "",
          "type": "address"
        }
      ],
      "stateMutability": "view",
      "type": "function"
    },
    {
      "inputs": [],
      "name": "USDT",
      "outputs": [
        {
          "internalType": "contract IERC20",
          "name": "",
          "type": "address"
        }
      ],
      "stateMutability": "view",
      "type": "function"
    },
    {
      "inputs": [],
      "name": "WETH9",
      "outputs": [
        {
          "internalType": "address",
          "name": "",
          "type": "address"
        }
      ],
      "stateMutability": "view",
      "type": "function"
    },
    {
      "inputs": [],
      "name": "compound",
      "outputs": [
        {
          "internalType": "uint256",
          "name": "",
          "type": "uint256"
        }
      ],
      "stateMutability": "nonpayable",
      "type": "function"
    },
    {
      "inputs": [],
      "name": "depositPoolId",
      "outputs": [
        {
          "internalType": "uint256",
          "name": "",
          "type": "uint256"
        }
      ],
      "stateMutability": "view",
      "type": "function"
    },
    {
      "inputs": [],
      "name": "depositToStrategy",
      "outputs": [
        {
          "internalType": "uint256",
          "name": "",
          "type": "uint256"
        }
      ],
      "stateMutability": "nonpayable",
      "type": "function"
    },
    {
      "inputs": [],
      "name": "depositToken",
      "outputs": [
        {
          "internalType": "address",
          "name": "",
          "type": "address"
        }
      ],
      "stateMutability": "view",
      "type": "function"
    },
    {
      "inputs": [],
      "name": "lpDepositBalance",
      "outputs": [
        {
          "internalType": "uint256",
          "name": "",
          "type": "uint256"
        }
      ],
      "stateMutability": "view",
      "type": "function"
    },
    {
      "inputs": [],
      "name": "pendingOwner",
      "outputs": [
        {
          "internalType": "address",
          "name": "",
          "type": "address"
        }
      ],
      "stateMutability": "view",
      "type": "function"
    },
    {
      "inputs": [],
      "name": "pendingRewardBalance",
      "outputs": [
        {
          "internalType": "uint256",
          "name": "",
          "type": "uint256"
        }
      ],
      "stateMutability": "view",
      "type": "function"
    },
    {
      "inputs": [],
      "name": "poolFee",
      "outputs": [
        {
          "internalType": "uint24",
          "name": "",
          "type": "uint24"
        }
      ],
      "stateMutability": "view",
      "type": "function"
    },
    {
      "inputs": [],
      "name": "rewardBalance",
      "outputs": [
        {
          "internalType": "uint256",
          "name": "",
          "type": "uint256"
        }
      ],
      "stateMutability": "view",
      "type": "function"
    },
    {
      "inputs": [],
      "name": "saloon",
      "outputs": [
        {
          "internalType": "contract ISaloon",
          "name": "",
          "type": "address"
        }
      ],
      "stateMutability": "view",
      "type": "function"
    },
    {
      "inputs": [],
      "name": "stakingPoolId",
      "outputs": [
        {
          "internalType": "uint256",
          "name": "",
          "type": "uint256"
        }
      ],
      "stateMutability": "view",
      "type": "function"
    },
    {
      "inputs": [],
      "name": "stargateLPStaking",
      "outputs": [
        {
          "internalType": "contract IStargateLPStaking",
          "name": "",
          "type": "address"
        }
      ],
      "stateMutability": "view",
      "type": "function"
    },
    {
      "inputs": [],
      "name": "stargateLPToken",
      "outputs": [
        {
          "internalType": "contract IStargateLPToken",
          "name": "",
          "type": "address"
        }
      ],
      "stateMutability": "view",
      "type": "function"
    },
    {
      "inputs": [],
      "name": "stargateRouter",
      "outputs": [
        {
          "internalType": "contract IStargateRouter",
          "name": "",
          "type": "address"
        }
      ],
      "stateMutability": "view",
      "type": "function"
    },
    {
      "inputs": [],
      "name": "uniswapRouter",
      "outputs": [
        {
          "internalType": "contract IUniswapRouter",
          "name": "",
          "type": "address"
        }
      ],
      "stateMutability": "view",
      "type": "function"
    },
    {
      "inputs": [
        {
          "internalType": "address",
          "name": "_STG",
          "type": "address"
        },
        {
          "internalType": "address",
          "name": "_stargateRouter",
          "type": "address"
        },
        {
          "internalType": "address",
          "name": "_stargateLPToken",
          "type": "address"
        },
        {
          "internalType": "address",
          "name": "_stargateLPStaking",
          "type": "address"
        }
      ],
      "name": "updateStargateAddresses",
      "outputs": [],
      "stateMutability": "nonpayable",
      "type": "function"
    },
    {
      "inputs": [
        {
          "internalType": "address",
          "name": "_uniswapRouter",
          "type": "address"
        }
      ],
      "name": "updateUniswapRouterAddress",
      "outputs": [],
      "stateMutability": "nonpayable",
      "type": "function"
    },
    {
      "inputs": [
        {
          "internalType": "uint256",
          "name": "_amount",
          "type": "uint256"
        }
      ],
      "name": "withdrawFromStrategy",
      "outputs": [
        {
          "internalType": "uint256",
          "name": "",
          "type": "uint256"
        }
      ],
      "stateMutability": "nonpayable",
      "type": "function"
    },
    {
      "inputs": [],
      "name": "withdrawYield",
      "outputs": [
        {
          "internalType": "uint256",
          "name": "",
          "type": "uint256"
        }
      ],
      "stateMutability": "nonpayable",
      "type": "function"
    }
  ],
  "bytecode": {
    "object": "0x60806040526103e86006556127106007553480156200001d57600080fd5b506040516200176f3803806200176f833981016040819052620000409162000335565b6001600160a01b0382166200008c5760405162461bcd60e51b815260206004820152600d60248201526c34b73b30b634b21037bbb732b960991b60448201526064015b60405180910390fd5b6001600160a01b038116620000e45760405162461bcd60e51b815260206004820152601560248201527f696e76616c6964206465706f73697420746f6b656e0000000000000000000000604482015260640162000083565b600880546001600160a01b03199081167345a01e4e04f14f7a4a6702c74187c5f6222033cd17909155600980548216738731d54e9d02c286767d56ac03e8037c07e01e98179055600b8054821673e592427a0aece92de3edee1f18e0157c05861564179055600c80548216732f6f07cdcf3588944bf4c42ac74ff24bf56e7590179055600080546001600160a01b0385811691841682179092556002805492851692909316821790925560405163095ea7b360e01b8152600481019290925260001960248301529063095ea7b3906044016020604051808303816000875af1158015620001d5573d6000803e3d6000fd5b505050506040513d601f19601f82011682018060405250810190620001fb91906200036d565b506002546001600160a01b0316732791bca1f2de4661ed88a30c99a7a9449aa8417319016200025a5760016003556000600455600a80546001600160a01b031916731205f31718499dbf1fca446663b532ef87481fe117905562000310565b6002546001600160a01b031673c2132d05d31c914a87c6611c10748aeb04b58e8e1901620002b85760026003556001600455600a80546001600160a01b0319167329e38769f23701a2e4a8ef0492e19da4604be62c17905562000310565b6002546001600160a01b0316738f3cf7ad23cd3cadbd9735aff958023239c6a06219016200031057600380556002600455600a80546001600160a01b031916731c272232df0bb6225da87f4decd9d37c32f63eea1790555b505062000398565b80516001600160a01b03811681146200033057600080fd5b919050565b600080604083850312156200034957600080fd5b620003548362000318565b9150620003646020840162000318565b90509250929050565b6000602082840312156200038057600080fd5b815180151581146200039157600080fd5b9392505050565b6113c780620003a86000396000f3fe608060405234801561001057600080fd5b50600436106101585760003560e01c8063a46c8505116100c3578063e30c39781161007c578063e30c3978146102cb578063e507a8a4146102de578063e86c106e146102e6578063ef2dcf5f146102f9578063f69e20461461030c578063ff4949471461031457600080fd5b8063a46c85051461025e578063a9e56f3c14610267578063aa5c3ab41461027a578063c54e44eb14610282578063c89039c51461029d578063e0bab4c4146102b057600080fd5b80634c16e973116101155780634c16e973146101f8578063735de9f71461020b5780637f1f08731461021e57806380c3c8a21461022757806389a302711461023a5780638a2e83a41461025557600080fd5b8063053f1ed31461015d578063089fe6aa146101725780630a1c049e146101945780630b509007146101aa57806348b19335146101b25780634aa4a4fc146101c5575b600080fd5b61017061016b36600461114d565b610327565b005b61017b610bb881565b60405162ffffff90911681526020015b60405180910390f35b61019c61040c565b60405190815260200161018b565b61019c610486565b61019c6101c03660046111a1565b610782565b6101e0737ceb23fd6bc0add59e62ac25578270cff1b9f61981565b6040516001600160a01b03909116815260200161018b565b600c546101e0906001600160a01b031681565b600b546101e0906001600160a01b031681565b61019c60055481565b6000546101e0906001600160a01b031681565b6101e0732791bca1f2de4661ed88a30c99a7a9449aa8417481565b61019c60035481565b61019c60045481565b6008546101e0906001600160a01b031681565b61019c610a14565b6101e073c2132d05d31c914a87c6611c10748aeb04b58e8f81565b6002546101e0906001600160a01b031681565b6101e0738f3cf7ad23cd3cadbd9735aff958023239c6a06381565b6001546101e0906001600160a01b031681565b61019c610a45565b600a546101e0906001600160a01b031681565b6101706103073660046111ba565b610ae6565b61019c610b3e565b6009546101e0906001600160a01b031681565b6000546001600160a01b0316331461035a5760405162461bcd60e51b8152600401610351906111dc565b60405180910390fd5b6001600160a01b0384161561038557600c80546001600160a01b0319166001600160a01b0386161790555b6001600160a01b038316156103b057600880546001600160a01b0319166001600160a01b0385161790555b6001600160a01b038216156103db57600a80546001600160a01b0319166001600160a01b0384161790555b6001600160a01b0381161561040657600980546001600160a01b0319166001600160a01b0383161790555b50505050565b600954604051632f607fdd60e01b8152600060048201819052306024830152916001600160a01b031690632f607fdd906044015b602060405180830381865afa15801561045d573d6000803e3d6000fd5b505050506040513d601f19601f820116820180604052508101906104819190611204565b905090565b600080546001600160a01b031633146104b15760405162461bcd60e51b8152600401610351906111dc565b6040516370a0823160e01b8152306004820152600090732791bca1f2de4661ed88a30c99a7a9449aa84174906370a0823190602401602060405180830381865afa158015610503573d6000803e3d6000fd5b505050506040513d601f19601f820116820180604052508101906105279190611204565b60085460405163095ea7b360e01b81526001600160a01b03909116600482015260248101829052909150732791bca1f2de4661ed88a30c99a7a9449aa841749063095ea7b3906044016020604051808303816000875af115801561058f573d6000803e3d6000fd5b505050506040513d601f19601f820116820180604052508101906105b3919061121d565b506008546003546040516321ec87bf60e21b81526004810191909152602481018390523060448201526001600160a01b03909116906387b21efc90606401600060405180830381600087803b15801561060b57600080fd5b505af115801561061f573d6000803e3d6000fd5b5050600a546040516370a0823160e01b8152306004820152600093506001600160a01b0390911691506370a08231906024016020604051808303816000875af1158015610670573d6000803e3d6000fd5b505050506040513d601f19601f820116820180604052508101906106949190611204565b600a5460095460405163095ea7b360e01b81526001600160a01b03918216600482015260248101849052929350169063095ea7b390604401600060405180830381600087803b1580156106e657600080fd5b505af11580156106fa573d6000803e3d6000fd5b505060095460048054604051631c57762b60e31b815291820152602481018590526001600160a01b03909116925063e2bbb1589150604401600060405180830381600087803b15801561074c57600080fd5b505af1158015610760573d6000803e3d6000fd5b5050505080600560008282546107769190611255565b90915550909250505090565b600080546001600160a01b031633146107ad5760405162461bcd60e51b8152600401610351906111dc565b6005548211156107ef5760405162461bcd60e51b815260206004820152600d60248201526c04e6f7420656e6f756768206c7609c1b6044820152606401610351565b8160056000828254610801919061126e565b909155505060095460048054604051630441a3e760e41b815291820152602481018490526001600160a01b039091169063441a3e7090604401600060405180830381600087803b15801561085457600080fd5b505af1158015610868573d6000803e3d6000fd5b5050600a546040516370a0823160e01b8152306004820152600093506001600160a01b0390911691506370a08231906024016020604051808303816000875af11580156108b9573d6000803e3d6000fd5b505050506040513d601f19601f820116820180604052508101906108dd9190611204565b60085460035460405163c4de93a560e01b815261ffff9091166004820152602481018390523060448201529192506000916001600160a01b039091169063c4de93a5906064016020604051808303816000875af1158015610942573d6000803e3d6000fd5b505050506040513d601f19601f820116820180604052508101906109669190611204565b905061097130610be2565b506040516370a0823160e01b8152306004820152600090732791bca1f2de4661ed88a30c99a7a9449aa84174906370a0823190602401602060405180830381865afa1580156109c4573d6000803e3d6000fd5b505050506040513d601f19601f820116820180604052508101906109e89190611204565b9050610a09732791bca1f2de4661ed88a30c99a7a9449aa841743383610e70565b50925050505b919050565b600c546040516370a0823160e01b81523060048201526000916001600160a01b0316906370a0823190602401610440565b600080546001600160a01b03163314610a705760405162461bcd60e51b8152600401610351906111dc565b600954604051631c57762b60e31b815260006004820181905260248201526001600160a01b039091169063e2bbb15890604401600060405180830381600087803b158015610abd57600080fd5b505af1158015610ad1573d6000803e3d6000fd5b505050506000610ae033610be2565b91505090565b6000546001600160a01b03163314610b105760405162461bcd60e51b8152600401610351906111dc565b6001600160a01b03811615610b3b57600b80546001600160a01b0319166001600160a01b0383161790555b50565b600080546001600160a01b03163314610b695760405162461bcd60e51b8152600401610351906111dc565b600954604051631c57762b60e31b815260006004820181905260248201526001600160a01b039091169063e2bbb15890604401600060405180830381600087803b158015610bb657600080fd5b505af1158015610bca573d6000803e3d6000fd5b50505050610bd730610be2565b506000610ae0610486565b600080610bed610a14565b905080600003610c005750600092915050565b600c54600b5460405163095ea7b360e01b81526001600160a01b0391821660048201526024810184905291169063095ea7b3906044016020604051808303816000875af1158015610c55573d6000803e3d6000fd5b505050506040513d601f19601f82011682018060405250810190610c79919061121d565b506040805160a081018252600c546bffffffffffffffffffffffff19606091821b1660c083015261017760eb1b60d48301819052737ceb23fd6bc0add59e62ac25578270cff1b9f61960601b60d784015260eb8301527309e46f287cb791987b6228c32669ea5126aa105d60621b60ee830152825160e281840301815261010283018452825230602083015242828401528101839052600060808201819052600b54925163c04b8d5960e01b8152919290916001600160a01b039091169063c04b8d5990610d4b9085906004016112d1565b6020604051808303816000875af1158015610d6a573d6000803e3d6000fd5b505050506040513d601f19601f82011682018060405250810190610d8e9190611204565b9050600060075460065483610da39190611329565b610dad9190611340565b90506000610dbb828461126e565b600054604051631aebcecb60e01b8152732791bca1f2de4661ed88a30c99a7a9449aa841746004820152602481018590529192506001600160a01b031690631aebcecb90604401600060405180830381600087803b158015610e1c57600080fd5b505af1158015610e30573d6000803e3d6000fd5b505050506001600160a01b0387163014610e6557610e63732791bca1f2de4661ed88a30c99a7a9449aa841748883610e70565b505b509095945050505050565b604080516001600160a01b038416602482015260448082018490528251808303909101815260649091019091526020810180516001600160e01b031663a9059cbb60e01b179052600090610ec5908590610ecf565b5060019392505050565b6000610f24826040518060400160405280602081526020017f5361666545524332303a206c6f772d6c6576656c2063616c6c206661696c6564815250856001600160a01b0316610fa69092919063ffffffff16565b805190915015610fa15780806020019051810190610f42919061121d565b610fa15760405162461bcd60e51b815260206004820152602a60248201527f5361666545524332303a204552433230206f7065726174696f6e20646964206e6044820152691bdd081cdd58d8d9595960b21b6064820152608401610351565b505050565b6060610fb58484600085610fbd565b949350505050565b60608247101561101e5760405162461bcd60e51b815260206004820152602660248201527f416464726573733a20696e73756666696369656e742062616c616e636520666f6044820152651c8818d85b1b60d21b6064820152608401610351565b600080866001600160a01b0316858760405161103a9190611362565b60006040518083038185875af1925050503d8060008114611077576040519150601f19603f3d011682016040523d82523d6000602084013e61107c565b606091505b509150915061108d87838387611098565b979650505050505050565b60608315611107578251600003611100576001600160a01b0385163b6111005760405162461bcd60e51b815260206004820152601d60248201527f416464726573733a2063616c6c20746f206e6f6e2d636f6e74726163740000006044820152606401610351565b5081610fb5565b610fb5838381511561111c5781518083602001fd5b8060405162461bcd60e51b8152600401610351919061137e565b80356001600160a01b0381168114610a0f57600080fd5b6000806000806080858703121561116357600080fd5b61116c85611136565b935061117a60208601611136565b925061118860408601611136565b915061119660608601611136565b905092959194509250565b6000602082840312156111b357600080fd5b5035919050565b6000602082840312156111cc57600080fd5b6111d582611136565b9392505050565b6020808252600e908201526d139bdd08185d5d1a1bdc9a5e995960921b604082015260600190565b60006020828403121561121657600080fd5b5051919050565b60006020828403121561122f57600080fd5b815180151581146111d557600080fd5b634e487b7160e01b600052601160045260246000fd5b808201808211156112685761126861123f565b92915050565b818103818111156112685761126861123f565b60005b8381101561129c578181015183820152602001611284565b50506000910152565b600081518084526112bd816020860160208601611281565b601f01601f19169290920160200192915050565b602081526000825160a060208401526112ed60c08401826112a5565b905060018060a01b0360208501511660408401526040840151606084015260608401516080840152608084015160a08401528091505092915050565b80820281158282048414176112685761126861123f565b60008261135d57634e487b7160e01b600052601260045260246000fd5b500490565b60008251611374818460208701611281565b9190910192915050565b6020815260006111d560208301846112a556fea2646970667358221220528d0c5873f7717d0851f34a14c1161bfa0afdc06ed99df3ba2db782abc6e72c64736f6c63430008110033",
    "linkReferences": {}
  },
  "methodIdentifiers": {
    "DAI()": "e0bab4c4",
    "STG()": "4c16e973",
    "USDC()": "89a30271",
    "USDT()": "c54e44eb",
    "WETH9()": "4aa4a4fc",
    "compound()": "f69e2046",
    "depositPoolId()": "8a2e83a4",
    "depositToStrategy()": "0b509007",
    "depositToken()": "c89039c5",
    "lpDepositBalance()": "7f1f0873",
    "pendingOwner()": "e30c3978",
    "pendingRewardBalance()": "0a1c049e",
    "poolFee()": "089fe6aa",
    "rewardBalance()": "aa5c3ab4",
    "saloon()": "80c3c8a2",
    "stakingPoolId()": "a46c8505",
    "stargateLPStaking()": "ff494947",
    "stargateLPToken()": "e86c106e",
    "stargateRouter()": "a9e56f3c",
    "uniswapRouter()": "735de9f7",
    "updateStargateAddresses(address,address,address,address)": "053f1ed3",
    "updateUniswapRouterAddress(address)": "ef2dcf5f",
    "withdrawFromStrategy(uint256)": "48b19335",
    "withdrawYield()": "e507a8a4"
  },
  "id": 45
}