{
  "abi": [
    {
      "inputs": [
        {
          "internalType": "address",
          "name": "_owner",
          "type": "address"
        },
        {
          "internalType": "address",
          "name": "_depositToken",
          "type": "address"
        }
      ],
      "stateMutability": "nonpayable",
      "type": "constructor"
    },
    {
      "inputs": [],
      "name": "DAI",
      "outputs": [
        {
          "internalType": "contract IERC20",
          "name": "",
          "type": "address"
        }
      ],
      "stateMutability": "view",
      "type": "function"
    },
    {
      "inputs": [],
      "name": "STG",
      "outputs": [
        {
          "internalType": "contract IERC20",
          "name": "",
          "type": "address"
        }
      ],
      "stateMutability": "view",
      "type": "function"
    },
    {
      "inputs": [],
      "name": "USDC",
      "outputs": [
        {
          "internalType": "contract IERC20",
          "name": "",
          "type": "address"
        }
      ],
      "stateMutability": "view",
      "type": "function"
    },
    {
      "inputs": [],
      "name": "WETH9",
      "outputs": [
        {
          "internalType": "address",
          "name": "",
          "type": "address"
        }
      ],
      "stateMutability": "view",
      "type": "function"
    },
    {
      "inputs": [],
      "name": "compound",
      "outputs": [
        {
          "internalType": "uint256",
          "name": "",
          "type": "uint256"
        }
      ],
      "stateMutability": "nonpayable",
      "type": "function"
    },
    {
      "inputs": [],
      "name": "depositPoolId",
      "outputs": [
        {
          "internalType": "uint256",
          "name": "",
          "type": "uint256"
        }
      ],
      "stateMutability": "view",
      "type": "function"
    },
    {
      "inputs": [],
      "name": "depositToStrategy",
      "outputs": [
        {
          "internalType": "uint256",
          "name": "",
          "type": "uint256"
        }
      ],
      "stateMutability": "nonpayable",
      "type": "function"
    },
    {
      "inputs": [],
      "name": "depositToken",
      "outputs": [
        {
          "internalType": "address",
          "name": "",
          "type": "address"
        }
      ],
      "stateMutability": "view",
      "type": "function"
    },
    {
      "inputs": [],
      "name": "lpDepositBalance",
      "outputs": [
        {
          "internalType": "uint256",
          "name": "",
          "type": "uint256"
        }
      ],
      "stateMutability": "view",
      "type": "function"
    },
    {
      "inputs": [],
      "name": "pendingOwner",
      "outputs": [
        {
          "internalType": "address",
          "name": "",
          "type": "address"
        }
      ],
      "stateMutability": "view",
      "type": "function"
    },
    {
      "inputs": [],
      "name": "pendingRewardBalance",
      "outputs": [
        {
          "internalType": "uint256",
          "name": "",
          "type": "uint256"
        }
      ],
      "stateMutability": "view",
      "type": "function"
    },
    {
      "inputs": [],
      "name": "poolFee",
      "outputs": [
        {
          "internalType": "uint24",
          "name": "",
          "type": "uint24"
        }
      ],
      "stateMutability": "view",
      "type": "function"
    },
    {
      "inputs": [],
      "name": "rewardBalance",
      "outputs": [
        {
          "internalType": "uint256",
          "name": "",
          "type": "uint256"
        }
      ],
      "stateMutability": "view",
      "type": "function"
    },
    {
      "inputs": [],
      "name": "saloon",
      "outputs": [
        {
          "internalType": "contract ISaloon",
          "name": "",
          "type": "address"
        }
      ],
      "stateMutability": "view",
      "type": "function"
    },
    {
      "inputs": [],
      "name": "stakingPoolId",
      "outputs": [
        {
          "internalType": "uint256",
          "name": "",
          "type": "uint256"
        }
      ],
      "stateMutability": "view",
      "type": "function"
    },
    {
      "inputs": [],
      "name": "stargateLPStaking",
      "outputs": [
        {
          "internalType": "contract IStargateLPStaking",
          "name": "",
          "type": "address"
        }
      ],
      "stateMutability": "view",
      "type": "function"
    },
    {
      "inputs": [],
      "name": "stargateLPToken",
      "outputs": [
        {
          "internalType": "contract IStargateLPToken",
          "name": "",
          "type": "address"
        }
      ],
      "stateMutability": "view",
      "type": "function"
    },
    {
      "inputs": [],
      "name": "stargateRouter",
      "outputs": [
        {
          "internalType": "contract IStargateRouter",
          "name": "",
          "type": "address"
        }
      ],
      "stateMutability": "view",
      "type": "function"
    },
    {
      "inputs": [],
      "name": "uniswapRouter",
      "outputs": [
        {
          "internalType": "contract IUniswapRouter",
          "name": "",
          "type": "address"
        }
      ],
      "stateMutability": "view",
      "type": "function"
    },
    {
      "inputs": [
        {
          "internalType": "address",
          "name": "_stargateRouter",
          "type": "address"
        },
        {
          "internalType": "address",
          "name": "_stargateLPToken",
          "type": "address"
        },
        {
          "internalType": "address",
          "name": "_stargateLPStaking",
          "type": "address"
        }
      ],
      "name": "updateStargateAddresses",
      "outputs": [],
      "stateMutability": "nonpayable",
      "type": "function"
    },
    {
      "inputs": [
        {
          "internalType": "address",
          "name": "_uniswapRouter",
          "type": "address"
        }
      ],
      "name": "updateUniswapRouterAddress",
      "outputs": [],
      "stateMutability": "nonpayable",
      "type": "function"
    },
    {
      "inputs": [
        {
          "internalType": "uint256",
          "name": "_amount",
          "type": "uint256"
        }
      ],
      "name": "withdrawFromStrategy",
      "outputs": [
        {
          "internalType": "uint256",
          "name": "",
          "type": "uint256"
        }
      ],
      "stateMutability": "nonpayable",
      "type": "function"
    },
    {
      "inputs": [],
      "name": "withdrawYield",
      "outputs": [
        {
          "internalType": "uint256",
          "name": "",
          "type": "uint256"
        }
      ],
      "stateMutability": "nonpayable",
      "type": "function"
    }
  ],
  "bytecode": {
    "object": "0x60806040526103e86006556127106007553480156200001d57600080fd5b50604051620016823803806200168283398101604081905262000040916200028c565b6001600160a01b0382166200008c5760405162461bcd60e51b815260206004820152600d60248201526c34b73b30b634b21037bbb732b960991b60448201526064015b60405180910390fd5b6001600160a01b038116620000e45760405162461bcd60e51b815260206004820152601560248201527f696e76616c6964206465706f73697420746f6b656e0000000000000000000000604482015260640162000083565b600880546001600160a01b0319908116738731d54e9d02c286767d56ac03e8037c07e01e981790915560098054821673b0d502e938ed5f4df2e681fe6e419ff29631d62b179055600a8054821673df0770df86a8034b3efef0a1bb3c889b8332ff56179055600b8054821673e592427a0aece92de3edee1f18e0157c05861564179055600080546001600160a01b0385811691841682179092556002805492851692909316821790925560405163095ea7b360e01b8152600481019290925260001960248301529063095ea7b3906044016020604051808303816000875af1158015620001d5573d6000803e3d6000fd5b505050506040513d601f19601f82011682018060405250810190620001fb9190620002c4565b506002546001600160a01b031673a0b86991c6218b36c1d19d4a2e9eb0ce3606eb47190162000234576001600355600060045562000267565b6002546001600160a01b0316736b175474e89094c44da98b954eedeac495271d0e19016200026757600160035560006004555b5050620002ef565b80516001600160a01b03811681146200028757600080fd5b919050565b60008060408385031215620002a057600080fd5b620002ab836200026f565b9150620002bb602084016200026f565b90509250929050565b600060208284031215620002d757600080fd5b81518015158114620002e857600080fd5b9392505050565b61138380620002ff6000396000f3fe608060405234801561001057600080fd5b506004361061014d5760003560e01c8063a46c8505116100c3578063e30c39781161007c578063e30c3978146102ad578063e507a8a4146102c0578063e86c106e146102c8578063ef2dcf5f146102db578063f69e2046146102ee578063ff494947146102f657600080fd5b8063a46c850514610246578063a9e56f3c1461024f578063aa5c3ab414610262578063aba0f7f21461026a578063c89039c51461027f578063e0bab4c41461029257600080fd5b80634c16e973116101155780634c16e973146101d8578063735de9f7146101f35780637f1f08731461020657806380c3c8a21461020f57806389a30271146102225780638a2e83a41461023d57600080fd5b8063089fe6aa146101525780630a1c049e146101745780630b5090071461018a57806348b19335146101925780634aa4a4fc146101a5575b600080fd5b61015b610bb881565b60405162ffffff90911681526020015b60405180910390f35b61017c610309565b60405190815260200161016b565b61017c610383565b61017c6101a0366004611103565b610688565b6101c073c02aaa39b223fe8d0a0e5c4f27ead9083c756cc281565b6040516001600160a01b03909116815260200161016b565b6101c073af5191b0de278c7286d6c7cc6ab6bb8a73ba2cd681565b600b546101c0906001600160a01b031681565b61017c60055481565b6000546101c0906001600160a01b031681565b6101c073a0b86991c6218b36c1d19d4a2e9eb0ce3606eb4881565b61017c60035481565b61017c60045481565b6008546101c0906001600160a01b031681565b61017c61091a565b61027d610278366004611133565b610954565b005b6002546101c0906001600160a01b031681565b6101c0736b175474e89094c44da98b954eedeac495271d0f81565b6001546101c0906001600160a01b031681565b61017c610a04565b600a546101c0906001600160a01b031681565b61027d6102e9366004611176565b610aa5565b61017c610afd565b6009546101c0906001600160a01b031681565b600954604051632f607fdd60e01b8152600060048201819052306024830152916001600160a01b031690632f607fdd906044015b602060405180830381865afa15801561035a573d6000803e3d6000fd5b505050506040513d601f19601f8201168201806040525081019061037e9190611198565b905090565b600080546001600160a01b031633146103b75760405162461bcd60e51b81526004016103ae906111b1565b60405180910390fd5b6040516370a0823160e01b815230600482015260009073a0b86991c6218b36c1d19d4a2e9eb0ce3606eb48906370a0823190602401602060405180830381865afa158015610409573d6000803e3d6000fd5b505050506040513d601f19601f8201168201806040525081019061042d9190611198565b60085460405163095ea7b360e01b81526001600160a01b0390911660048201526024810182905290915073a0b86991c6218b36c1d19d4a2e9eb0ce3606eb489063095ea7b3906044016020604051808303816000875af1158015610495573d6000803e3d6000fd5b505050506040513d601f19601f820116820180604052508101906104b991906111d9565b506008546003546040516321ec87bf60e21b81526004810191909152602481018390523060448201526001600160a01b03909116906387b21efc90606401600060405180830381600087803b15801561051157600080fd5b505af1158015610525573d6000803e3d6000fd5b5050600a546040516370a0823160e01b8152306004820152600093506001600160a01b0390911691506370a08231906024016020604051808303816000875af1158015610576573d6000803e3d6000fd5b505050506040513d601f19601f8201168201806040525081019061059a9190611198565b600a5460095460405163095ea7b360e01b81526001600160a01b03918216600482015260248101849052929350169063095ea7b390604401600060405180830381600087803b1580156105ec57600080fd5b505af1158015610600573d6000803e3d6000fd5b505060095460048054604051631c57762b60e31b815291820152602481018590526001600160a01b03909116925063e2bbb1589150604401600060405180830381600087803b15801561065257600080fd5b505af1158015610666573d6000803e3d6000fd5b50505050806005600082825461067c9190611211565b90915550909250505090565b600080546001600160a01b031633146106b35760405162461bcd60e51b81526004016103ae906111b1565b6005548211156106f55760405162461bcd60e51b815260206004820152600d60248201526c04e6f7420656e6f756768206c7609c1b60448201526064016103ae565b8160056000828254610707919061122a565b909155505060095460048054604051630441a3e760e41b815291820152602481018490526001600160a01b039091169063441a3e7090604401600060405180830381600087803b15801561075a57600080fd5b505af115801561076e573d6000803e3d6000fd5b5050600a546040516370a0823160e01b8152306004820152600093506001600160a01b0390911691506370a08231906024016020604051808303816000875af11580156107bf573d6000803e3d6000fd5b505050506040513d601f19601f820116820180604052508101906107e39190611198565b60085460035460405163c4de93a560e01b815261ffff9091166004820152602481018390523060448201529192506000916001600160a01b039091169063c4de93a5906064016020604051808303816000875af1158015610848573d6000803e3d6000fd5b505050506040513d601f19601f8201168201806040525081019061086c9190611198565b905061087730610ba1565b506040516370a0823160e01b815230600482015260009073a0b86991c6218b36c1d19d4a2e9eb0ce3606eb48906370a0823190602401602060405180830381865afa1580156108ca573d6000803e3d6000fd5b505050506040513d601f19601f820116820180604052508101906108ee9190611198565b905061090f73a0b86991c6218b36c1d19d4a2e9eb0ce3606eb483383610e42565b50925050505b919050565b6040516370a0823160e01b815230600482015260009073af5191b0de278c7286d6c7cc6ab6bb8a73ba2cd6906370a082319060240161033d565b6000546001600160a01b0316331461097e5760405162461bcd60e51b81526004016103ae906111b1565b6001600160a01b038316156109a957600880546001600160a01b0319166001600160a01b0385161790555b6001600160a01b038216156109d457600a80546001600160a01b0319166001600160a01b0384161790555b6001600160a01b038116156109ff57600980546001600160a01b0319166001600160a01b0383161790555b505050565b600080546001600160a01b03163314610a2f5760405162461bcd60e51b81526004016103ae906111b1565b600954604051631c57762b60e31b815260006004820181905260248201526001600160a01b039091169063e2bbb15890604401600060405180830381600087803b158015610a7c57600080fd5b505af1158015610a90573d6000803e3d6000fd5b505050506000610a9f33610ba1565b91505090565b6000546001600160a01b03163314610acf5760405162461bcd60e51b81526004016103ae906111b1565b6001600160a01b03811615610afa57600b80546001600160a01b0319166001600160a01b0383161790555b50565b600080546001600160a01b03163314610b285760405162461bcd60e51b81526004016103ae906111b1565b600954604051631c57762b60e31b815260006004820181905260248201526001600160a01b039091169063e2bbb15890604401600060405180830381600087803b158015610b7557600080fd5b505af1158015610b89573d6000803e3d6000fd5b50505050610b9630610ba1565b506000610a9f610383565b600080610bac61091a565b905080600003610bbf5750600092915050565b600b5460405163095ea7b360e01b81526001600160a01b0390911660048201526024810182905273af5191b0de278c7286d6c7cc6ab6bb8a73ba2cd69063095ea7b3906044016020604051808303816000875af1158015610c24573d6000803e3d6000fd5b505050506040513d601f19601f82011682018060405250810190610c4891906111d9565b506040805160a0810182527357a8c8d86f13c639436b63e6355b5dc539dd166b60611b60c082015261017760eb1b60d48201819052736015551cd911ff4685072e2793f56c841e3ab66160611b60d783015260eb8201527314170d3238c43166d83a33a945d3d619c6c0dd6960631b60ee820152815160e2818303018152610102820183528152306020820152428183015260608101839052600060808201819052600b54925163c04b8d5960e01b8152919290916001600160a01b039091169063c04b8d5990610d1d90859060040161128d565b6020604051808303816000875af1158015610d3c573d6000803e3d6000fd5b505050506040513d601f19601f82011682018060405250810190610d609190611198565b9050600060075460065483610d7591906112e5565b610d7f91906112fc565b90506000610d8d828461122a565b600054604051631aebcecb60e01b815273a0b86991c6218b36c1d19d4a2e9eb0ce3606eb486004820152602481018590529192506001600160a01b031690631aebcecb90604401600060405180830381600087803b158015610dee57600080fd5b505af1158015610e02573d6000803e3d6000fd5b505050506001600160a01b0387163014610e3757610e3573a0b86991c6218b36c1d19d4a2e9eb0ce3606eb488883610e42565b505b509095945050505050565b604080516001600160a01b038416602482015260448082018490528251808303909101815260649091019091526020810180516001600160e01b031663a9059cbb60e01b179052600090610e97908590610ea1565b5060019392505050565b6000610ef6826040518060400160405280602081526020017f5361666545524332303a206c6f772d6c6576656c2063616c6c206661696c6564815250856001600160a01b0316610f739092919063ffffffff16565b8051909150156109ff5780806020019051810190610f1491906111d9565b6109ff5760405162461bcd60e51b815260206004820152602a60248201527f5361666545524332303a204552433230206f7065726174696f6e20646964206e6044820152691bdd081cdd58d8d9595960b21b60648201526084016103ae565b6060610f828484600085610f8a565b949350505050565b606082471015610feb5760405162461bcd60e51b815260206004820152602660248201527f416464726573733a20696e73756666696369656e742062616c616e636520666f6044820152651c8818d85b1b60d21b60648201526084016103ae565b600080866001600160a01b03168587604051611007919061131e565b60006040518083038185875af1925050503d8060008114611044576040519150601f19603f3d011682016040523d82523d6000602084013e611049565b606091505b509150915061105a87838387611065565b979650505050505050565b606083156110d45782516000036110cd576001600160a01b0385163b6110cd5760405162461bcd60e51b815260206004820152601d60248201527f416464726573733a2063616c6c20746f206e6f6e2d636f6e747261637400000060448201526064016103ae565b5081610f82565b610f8283838151156110e95781518083602001fd5b8060405162461bcd60e51b81526004016103ae919061133a565b60006020828403121561111557600080fd5b5035919050565b80356001600160a01b038116811461091557600080fd5b60008060006060848603121561114857600080fd5b6111518461111c565b925061115f6020850161111c565b915061116d6040850161111c565b90509250925092565b60006020828403121561118857600080fd5b6111918261111c565b9392505050565b6000602082840312156111aa57600080fd5b5051919050565b6020808252600e908201526d139bdd08185d5d1a1bdc9a5e995960921b604082015260600190565b6000602082840312156111eb57600080fd5b8151801515811461119157600080fd5b634e487b7160e01b600052601160045260246000fd5b80820180821115611224576112246111fb565b92915050565b81810381811115611224576112246111fb565b60005b83811015611258578181015183820152602001611240565b50506000910152565b6000815180845261127981602086016020860161123d565b601f01601f19169290920160200192915050565b602081526000825160a060208401526112a960c0840182611261565b905060018060a01b0360208501511660408401526040840151606084015260608401516080840152608084015160a08401528091505092915050565b8082028115828204841417611224576112246111fb565b60008261131957634e487b7160e01b600052601260045260246000fd5b500490565b6000825161133081846020870161123d565b9190910192915050565b602081526000611191602083018461126156fea2646970667358221220e5a638e81c1a3952a188e29d6cce43ce39b7f411f0ec963a6f5866bf37ceb7ec64736f6c63430008110033",
    "linkReferences": {}
  },
  "methodIdentifiers": {
    "DAI()": "e0bab4c4",
    "STG()": "4c16e973",
    "USDC()": "89a30271",
    "WETH9()": "4aa4a4fc",
    "compound()": "f69e2046",
    "depositPoolId()": "8a2e83a4",
    "depositToStrategy()": "0b509007",
    "depositToken()": "c89039c5",
    "lpDepositBalance()": "7f1f0873",
    "pendingOwner()": "e30c3978",
    "pendingRewardBalance()": "0a1c049e",
    "poolFee()": "089fe6aa",
    "rewardBalance()": "aa5c3ab4",
    "saloon()": "80c3c8a2",
    "stakingPoolId()": "a46c8505",
    "stargateLPStaking()": "ff494947",
    "stargateLPToken()": "e86c106e",
    "stargateRouter()": "a9e56f3c",
    "uniswapRouter()": "735de9f7",
    "updateStargateAddresses(address,address,address)": "aba0f7f2",
    "updateUniswapRouterAddress(address)": "ef2dcf5f",
    "withdrawFromStrategy(uint256)": "48b19335",
    "withdrawYield()": "e507a8a4"
  },
  "id": 45
}