{
  "abi": [
    {
      "inputs": [
        {
          "internalType": "address",
          "name": "_owner",
          "type": "address"
        },
        {
          "internalType": "address",
          "name": "_depositToken",
          "type": "address"
        }
      ],
      "stateMutability": "nonpayable",
      "type": "constructor"
    },
    {
      "inputs": [],
      "name": "DAI",
      "outputs": [
        {
          "internalType": "contract IERC20",
          "name": "",
          "type": "address"
        }
      ],
      "stateMutability": "view",
      "type": "function"
    },
    {
      "inputs": [],
      "name": "STG",
      "outputs": [
        {
          "internalType": "contract IERC20",
          "name": "",
          "type": "address"
        }
      ],
      "stateMutability": "view",
      "type": "function"
    },
    {
      "inputs": [],
      "name": "USDC",
      "outputs": [
        {
          "internalType": "contract IERC20",
          "name": "",
          "type": "address"
        }
      ],
      "stateMutability": "view",
      "type": "function"
    },
    {
      "inputs": [],
      "name": "USDT",
      "outputs": [
        {
          "internalType": "contract IERC20",
          "name": "",
          "type": "address"
        }
      ],
      "stateMutability": "view",
      "type": "function"
    },
    {
      "inputs": [],
      "name": "WETH9",
      "outputs": [
        {
          "internalType": "address",
          "name": "",
          "type": "address"
        }
      ],
      "stateMutability": "view",
      "type": "function"
    },
    {
      "inputs": [],
      "name": "compound",
      "outputs": [
        {
          "internalType": "uint256",
          "name": "",
          "type": "uint256"
        }
      ],
      "stateMutability": "nonpayable",
      "type": "function"
    },
    {
      "inputs": [],
      "name": "depositPoolId",
      "outputs": [
        {
          "internalType": "uint256",
          "name": "",
          "type": "uint256"
        }
      ],
      "stateMutability": "view",
      "type": "function"
    },
    {
      "inputs": [],
      "name": "depositToStrategy",
      "outputs": [
        {
          "internalType": "uint256",
          "name": "",
          "type": "uint256"
        }
      ],
      "stateMutability": "nonpayable",
      "type": "function"
    },
    {
      "inputs": [],
      "name": "depositToken",
      "outputs": [
        {
          "internalType": "address",
          "name": "",
          "type": "address"
        }
      ],
      "stateMutability": "view",
      "type": "function"
    },
    {
      "inputs": [],
      "name": "lpDepositBalance",
      "outputs": [
        {
          "internalType": "uint256",
          "name": "",
          "type": "uint256"
        }
      ],
      "stateMutability": "view",
      "type": "function"
    },
    {
      "inputs": [],
      "name": "pendingOwner",
      "outputs": [
        {
          "internalType": "address",
          "name": "",
          "type": "address"
        }
      ],
      "stateMutability": "view",
      "type": "function"
    },
    {
      "inputs": [],
      "name": "pendingRewardBalance",
      "outputs": [
        {
          "internalType": "uint256",
          "name": "",
          "type": "uint256"
        }
      ],
      "stateMutability": "view",
      "type": "function"
    },
    {
      "inputs": [],
      "name": "poolFee",
      "outputs": [
        {
          "internalType": "uint24",
          "name": "",
          "type": "uint24"
        }
      ],
      "stateMutability": "view",
      "type": "function"
    },
    {
      "inputs": [],
      "name": "rewardBalance",
      "outputs": [
        {
          "internalType": "uint256",
          "name": "",
          "type": "uint256"
        }
      ],
      "stateMutability": "view",
      "type": "function"
    },
    {
      "inputs": [],
      "name": "saloon",
      "outputs": [
        {
          "internalType": "contract ISaloonGlobal",
          "name": "",
          "type": "address"
        }
      ],
      "stateMutability": "view",
      "type": "function"
    },
    {
      "inputs": [],
      "name": "stakingPoolId",
      "outputs": [
        {
          "internalType": "uint256",
          "name": "",
          "type": "uint256"
        }
      ],
      "stateMutability": "view",
      "type": "function"
    },
    {
      "inputs": [],
      "name": "stargateLPStaking",
      "outputs": [
        {
          "internalType": "contract IStargateLPStaking",
          "name": "",
          "type": "address"
        }
      ],
      "stateMutability": "view",
      "type": "function"
    },
    {
      "inputs": [],
      "name": "stargateLPToken",
      "outputs": [
        {
          "internalType": "contract IStargateLPToken",
          "name": "",
          "type": "address"
        }
      ],
      "stateMutability": "view",
      "type": "function"
    },
    {
      "inputs": [],
      "name": "stargateRouter",
      "outputs": [
        {
          "internalType": "contract IStargateRouter",
          "name": "",
          "type": "address"
        }
      ],
      "stateMutability": "view",
      "type": "function"
    },
    {
      "inputs": [],
      "name": "swapRouter",
      "outputs": [
        {
          "internalType": "contract IUniswapV2Router",
          "name": "",
          "type": "address"
        }
      ],
      "stateMutability": "view",
      "type": "function"
    },
    {
      "inputs": [
        {
          "internalType": "address",
          "name": "_STG",
          "type": "address"
        },
        {
          "internalType": "address",
          "name": "_stargateRouter",
          "type": "address"
        },
        {
          "internalType": "address",
          "name": "_stargateLPToken",
          "type": "address"
        },
        {
          "internalType": "address",
          "name": "_stargateLPStaking",
          "type": "address"
        }
      ],
      "name": "updateStargateAddresses",
      "outputs": [],
      "stateMutability": "nonpayable",
      "type": "function"
    },
    {
      "inputs": [
        {
          "internalType": "address",
          "name": "_swapRouter",
          "type": "address"
        }
      ],
      "name": "updateSwapRouterAddress",
      "outputs": [],
      "stateMutability": "nonpayable",
      "type": "function"
    },
    {
      "inputs": [
        {
          "internalType": "uint256",
          "name": "_amount",
          "type": "uint256"
        }
      ],
      "name": "withdrawFromStrategy",
      "outputs": [
        {
          "internalType": "uint256",
          "name": "",
          "type": "uint256"
        }
      ],
      "stateMutability": "nonpayable",
      "type": "function"
    },
    {
      "inputs": [],
      "name": "withdrawYield",
      "outputs": [
        {
          "internalType": "uint256",
          "name": "",
          "type": "uint256"
        }
      ],
      "stateMutability": "nonpayable",
      "type": "function"
    }
  ],
  "bytecode": {
    "object": "0x60806040526103e86006556127106007553480156200001d57600080fd5b506040516200183b3803806200183b833981016040819052620000409162000335565b6001600160a01b0382166200008c5760405162461bcd60e51b815260206004820152600d60248201526c34b73b30b634b21037bbb732b960991b60448201526064015b60405180910390fd5b6001600160a01b038116620000e45760405162461bcd60e51b815260206004820152601560248201527f696e76616c6964206465706f73697420746f6b656e0000000000000000000000604482015260640162000083565b600880546001600160a01b03199081167345a01e4e04f14f7a4a6702c74187c5f6222033cd17909155600980548216738731d54e9d02c286767d56ac03e8037c07e01e98179055600b80548216731b02da8cb0d097eb8d57a175b88c7d8b47997506179055600c80548216732f6f07cdcf3588944bf4c42ac74ff24bf56e7590179055600080546001600160a01b0385811691841682179092556002805492851692909316821790925560405163095ea7b360e01b8152600481019290925260001960248301529063095ea7b3906044016020604051808303816000875af1158015620001d5573d6000803e3d6000fd5b505050506040513d601f19601f82011682018060405250810190620001fb91906200036d565b506002546001600160a01b0316732791bca1f2de4661ed88a30c99a7a9449aa8417319016200025a5760016003556000600455600a80546001600160a01b031916731205f31718499dbf1fca446663b532ef87481fe117905562000310565b6002546001600160a01b031673c2132d05d31c914a87c6611c10748aeb04b58e8e1901620002b85760026003556001600455600a80546001600160a01b0319167329e38769f23701a2e4a8ef0492e19da4604be62c17905562000310565b6002546001600160a01b0316738f3cf7ad23cd3cadbd9735aff958023239c6a06219016200031057600380556002600455600a80546001600160a01b031916731c272232df0bb6225da87f4decd9d37c32f63eea1790555b505062000398565b80516001600160a01b03811681146200033057600080fd5b919050565b600080604083850312156200034957600080fd5b620003548362000318565b9150620003646020840162000318565b90509250929050565b6000602082840312156200038057600080fd5b815180151581146200039157600080fd5b9392505050565b61149380620003a86000396000f3fe608060405234801561001057600080fd5b50600436106101585760003560e01c8063a46c8505116100c3578063e0bab4c41161007c578063e0bab4c4146102c3578063e30c3978146102de578063e507a8a4146102f1578063e86c106e146102f9578063f69e20461461030c578063ff4949471461031457600080fd5b8063a46c85051461025e578063a9e56f3c14610267578063aa5c3ab41461027a578063c31c9c0714610282578063c54e44eb14610295578063c89039c5146102b057600080fd5b80634c16e973116101155780634c16e973146101f85780636cf3f8df1461020b5780637f1f08731461021e57806380c3c8a21461022757806389a302711461023a5780638a2e83a41461025557600080fd5b8063053f1ed31461015d578063089fe6aa146101725780630a1c049e146101945780630b509007146101aa57806348b19335146101b25780634aa4a4fc146101c5575b600080fd5b61017061016b366004611122565b610327565b005b61017b610bb881565b60405162ffffff90911681526020015b60405180910390f35b61019c61040c565b60405190815260200161018b565b61019c610486565b61019c6101c0366004611176565b610779565b6101e0737ceb23fd6bc0add59e62ac25578270cff1b9f61981565b6040516001600160a01b03909116815260200161018b565b600c546101e0906001600160a01b031681565b61017061021936600461118f565b6109fb565b61019c60055481565b6000546101e0906001600160a01b031681565b6101e0732791bca1f2de4661ed88a30c99a7a9449aa8417481565b61019c60035481565b61019c60045481565b6008546101e0906001600160a01b031681565b61019c610a53565b600b546101e0906001600160a01b031681565b6101e073c2132d05d31c914a87c6611c10748aeb04b58e8f81565b6002546101e0906001600160a01b031681565b6101e0738f3cf7ad23cd3cadbd9735aff958023239c6a06381565b6001546101e0906001600160a01b031681565b61019c610a84565b600a546101e0906001600160a01b031681565b61019c610b25565b6009546101e0906001600160a01b031681565b6000546001600160a01b0316331461035a5760405162461bcd60e51b8152600401610351906111b1565b60405180910390fd5b6001600160a01b0384161561038557600c80546001600160a01b0319166001600160a01b0386161790555b6001600160a01b038316156103b057600880546001600160a01b0319166001600160a01b0385161790555b6001600160a01b038216156103db57600a80546001600160a01b0319166001600160a01b0384161790555b6001600160a01b0381161561040657600980546001600160a01b0319166001600160a01b0383161790555b50505050565b600954604051632f607fdd60e01b8152600060048201819052306024830152916001600160a01b031690632f607fdd906044015b602060405180830381865afa15801561045d573d6000803e3d6000fd5b505050506040513d601f19601f8201168201806040525081019061048191906111d9565b905090565b600080546001600160a01b031633146104b15760405162461bcd60e51b8152600401610351906111b1565b6002546040516370a0823160e01b81523060048201526000916001600160a01b0316906370a0823190602401602060405180830381865afa1580156104fa573d6000803e3d6000fd5b505050506040513d601f19601f8201168201806040525081019061051e91906111d9565b60085460405163095ea7b360e01b81526001600160a01b03909116600482015260248101829052909150732791bca1f2de4661ed88a30c99a7a9449aa841749063095ea7b3906044016020604051808303816000875af1158015610586573d6000803e3d6000fd5b505050506040513d601f19601f820116820180604052508101906105aa91906111f2565b506008546003546040516321ec87bf60e21b81526004810191909152602481018390523060448201526001600160a01b03909116906387b21efc90606401600060405180830381600087803b15801561060257600080fd5b505af1158015610616573d6000803e3d6000fd5b5050600a546040516370a0823160e01b8152306004820152600093506001600160a01b0390911691506370a08231906024016020604051808303816000875af1158015610667573d6000803e3d6000fd5b505050506040513d601f19601f8201168201806040525081019061068b91906111d9565b600a5460095460405163095ea7b360e01b81526001600160a01b03918216600482015260248101849052929350169063095ea7b390604401600060405180830381600087803b1580156106dd57600080fd5b505af11580156106f1573d6000803e3d6000fd5b505060095460048054604051631c57762b60e31b815291820152602481018590526001600160a01b03909116925063e2bbb1589150604401600060405180830381600087803b15801561074357600080fd5b505af1158015610757573d6000803e3d6000fd5b50505050806005600082825461076d919061122a565b90915550909250505090565b600080546001600160a01b031633146107a45760405162461bcd60e51b8152600401610351906111b1565b6005548211156107e65760405162461bcd60e51b815260206004820152600d60248201526c04e6f7420656e6f756768206c7609c1b6044820152606401610351565b81600560008282546107f89190611243565b909155505060095460048054604051630441a3e760e41b815291820152602481018490526001600160a01b039091169063441a3e7090604401600060405180830381600087803b15801561084b57600080fd5b505af115801561085f573d6000803e3d6000fd5b5050600a546040516370a0823160e01b8152306004820152600093506001600160a01b0390911691506370a08231906024016020604051808303816000875af11580156108b0573d6000803e3d6000fd5b505050506040513d601f19601f820116820180604052508101906108d491906111d9565b60085460035460405163c4de93a560e01b815261ffff9091166004820152602481018390523060448201529192506000916001600160a01b039091169063c4de93a5906064016020604051808303816000875af1158015610939573d6000803e3d6000fd5b505050506040513d601f19601f8201168201806040525081019061095d91906111d9565b905061096830610bd0565b506002546040516370a0823160e01b81523060048201526000916001600160a01b0316906370a0823190602401602060405180830381865afa1580156109b2573d6000803e3d6000fd5b505050506040513d601f19601f820116820180604052508101906109d691906111d9565b6002549091506109f0906001600160a01b03163383610e55565b50925050505b919050565b6000546001600160a01b03163314610a255760405162461bcd60e51b8152600401610351906111b1565b6001600160a01b03811615610a5057600b80546001600160a01b0319166001600160a01b0383161790555b50565b600c546040516370a0823160e01b81523060048201526000916001600160a01b0316906370a0823190602401610440565b600080546001600160a01b03163314610aaf5760405162461bcd60e51b8152600401610351906111b1565b600954604051631c57762b60e31b815260006004820181905260248201526001600160a01b039091169063e2bbb15890604401600060405180830381600087803b158015610afc57600080fd5b505af1158015610b10573d6000803e3d6000fd5b505050506000610b1f33610bd0565b91505090565b600080546001600160a01b03163314610b505760405162461bcd60e51b8152600401610351906111b1565b600954604051631c57762b60e31b815260006004820181905260248201526001600160a01b039091169063e2bbb15890604401600060405180830381600087803b158015610b9d57600080fd5b505af1158015610bb1573d6000803e3d6000fd5b505050506000610bc030610bd0565b9050610bca610486565b50905090565b600080610bdb610a53565b905080600003610bee5750600092915050565b600c54600b5460405163095ea7b360e01b81526001600160a01b0391821660048201526024810184905291169063095ea7b3906044016020604051808303816000875af1158015610c43573d6000803e3d6000fd5b505050506040513d601f19601f82011682018060405250810190610c6791906111f2565b506040805160028082526060820183526000926020830190803683375050600c5482519293506001600160a01b031691839150600090610ca957610ca961126c565b6001600160a01b039283166020918202929092010152600254825191169082906001908110610cda57610cda61126c565b6001600160a01b039283166020918202929092010152600b546040516338ed173960e01b815260009291909116906338ed173990610d249086908590879030904290600401611282565b6000604051808303816000875af1158015610d43573d6000803e3d6000fd5b505050506040513d6000823e601f3d908101601f19168201604052610d6b91908101906112f3565b9050600081600181518110610d8257610d8261126c565b60200260200101519050600060075460065483610d9f91906113b1565b610da991906113c8565b90506000610db78284611243565b600054600254604051631aebcecb60e01b81526001600160a01b039182166004820152602481018690529293501690631aebcecb90604401600060405180830381600087803b158015610e0957600080fd5b505af1158015610e1d573d6000803e3d6000fd5b505050506001600160a01b0388163014610e4a57600254610e48906001600160a01b03168983610e55565b505b979650505050505050565b604080516001600160a01b038416602482015260448082018490528251808303909101815260649091019091526020810180516001600160e01b031663a9059cbb60e01b179052600090610eaa908590610eb4565b5060019392505050565b6000610f09826040518060400160405280602081526020017f5361666545524332303a206c6f772d6c6576656c2063616c6c206661696c6564815250856001600160a01b0316610f8b9092919063ffffffff16565b805190915015610f865780806020019051810190610f2791906111f2565b610f865760405162461bcd60e51b815260206004820152602a60248201527f5361666545524332303a204552433230206f7065726174696f6e20646964206e6044820152691bdd081cdd58d8d9595960b21b6064820152608401610351565b505050565b6060610f9a8484600085610fa2565b949350505050565b6060824710156110035760405162461bcd60e51b815260206004820152602660248201527f416464726573733a20696e73756666696369656e742062616c616e636520666f6044820152651c8818d85b1b60d21b6064820152608401610351565b600080866001600160a01b0316858760405161101f919061140e565b60006040518083038185875af1925050503d806000811461105c576040519150601f19603f3d011682016040523d82523d6000602084013e611061565b606091505b5091509150610e4a87838387606083156110dc5782516000036110d5576001600160a01b0385163b6110d55760405162461bcd60e51b815260206004820152601d60248201527f416464726573733a2063616c6c20746f206e6f6e2d636f6e74726163740000006044820152606401610351565b5081610f9a565b610f9a83838151156110f15781518083602001fd5b8060405162461bcd60e51b8152600401610351919061142a565b80356001600160a01b03811681146109f657600080fd5b6000806000806080858703121561113857600080fd5b6111418561110b565b935061114f6020860161110b565b925061115d6040860161110b565b915061116b6060860161110b565b905092959194509250565b60006020828403121561118857600080fd5b5035919050565b6000602082840312156111a157600080fd5b6111aa8261110b565b9392505050565b6020808252600e908201526d139bdd08185d5d1a1bdc9a5e995960921b604082015260600190565b6000602082840312156111eb57600080fd5b5051919050565b60006020828403121561120457600080fd5b815180151581146111aa57600080fd5b634e487b7160e01b600052601160045260246000fd5b8082018082111561123d5761123d611214565b92915050565b8181038181111561123d5761123d611214565b634e487b7160e01b600052604160045260246000fd5b634e487b7160e01b600052603260045260246000fd5b600060a082018783526020878185015260a0604085015281875180845260c086019150828901935060005b818110156112d25784516001600160a01b0316835293830193918301916001016112ad565b50506001600160a01b03969096166060850152505050608001529392505050565b6000602080838503121561130657600080fd5b825167ffffffffffffffff8082111561131e57600080fd5b818501915085601f83011261133257600080fd5b81518181111561134457611344611256565b8060051b604051601f19603f8301168101818110858211171561136957611369611256565b60405291825284820192508381018501918883111561138757600080fd5b938501935b828510156113a55784518452938501939285019261138c565b98975050505050505050565b808202811582820484141761123d5761123d611214565b6000826113e557634e487b7160e01b600052601260045260246000fd5b500490565b60005b838110156114055781810151838201526020016113ed565b50506000910152565b600082516114208184602087016113ea565b9190910192915050565b60208152600082518060208401526114498160408501602087016113ea565b601f01601f1916919091016040019291505056fea2646970667358221220ff1d7f82b0914d352372e5a3b9482e074c2d1edd363ff5313f9bb51fb6a4c66f64736f6c63430008130033",
    "linkReferences": {}
  },
  "methodIdentifiers": {
    "DAI()": "e0bab4c4",
    "STG()": "4c16e973",
    "USDC()": "89a30271",
    "USDT()": "c54e44eb",
    "WETH9()": "4aa4a4fc",
    "compound()": "f69e2046",
    "depositPoolId()": "8a2e83a4",
    "depositToStrategy()": "0b509007",
    "depositToken()": "c89039c5",
    "lpDepositBalance()": "7f1f0873",
    "pendingOwner()": "e30c3978",
    "pendingRewardBalance()": "0a1c049e",
    "poolFee()": "089fe6aa",
    "rewardBalance()": "aa5c3ab4",
    "saloon()": "80c3c8a2",
    "stakingPoolId()": "a46c8505",
    "stargateLPStaking()": "ff494947",
    "stargateLPToken()": "e86c106e",
    "stargateRouter()": "a9e56f3c",
    "swapRouter()": "c31c9c07",
    "updateStargateAddresses(address,address,address,address)": "053f1ed3",
    "updateSwapRouterAddress(address)": "6cf3f8df",
    "withdrawFromStrategy(uint256)": "48b19335",
    "withdrawYield()": "e507a8a4"
  },
  "id": 64
}