{
  "abi": [
    {
      "inputs": [],
      "stateMutability": "nonpayable",
      "type": "constructor"
    },
    {
      "anonymous": false,
      "inputs": [
        {
          "indexed": false,
          "internalType": "uint8",
          "name": "version",
          "type": "uint8"
        }
      ],
      "name": "Initialized",
      "type": "event"
    },
    {
      "anonymous": false,
      "inputs": [
        {
          "indexed": true,
          "internalType": "address",
          "name": "previousOwner",
          "type": "address"
        },
        {
          "indexed": true,
          "internalType": "address",
          "name": "newOwner",
          "type": "address"
        }
      ],
      "name": "OwnershipTransferred",
      "type": "event"
    },
    {
      "inputs": [],
      "name": "STG",
      "outputs": [
        {
          "internalType": "contract IERC20",
          "name": "",
          "type": "address"
        }
      ],
      "stateMutability": "view",
      "type": "function"
    },
    {
      "inputs": [],
      "name": "USDC",
      "outputs": [
        {
          "internalType": "contract IERC20",
          "name": "",
          "type": "address"
        }
      ],
      "stateMutability": "view",
      "type": "function"
    },
    {
      "inputs": [],
      "name": "acceptOwnershipTransfer",
      "outputs": [],
      "stateMutability": "nonpayable",
      "type": "function"
    },
    {
      "inputs": [
        {
          "internalType": "uint256",
          "name": "_poolId",
          "type": "uint256"
        },
        {
          "internalType": "uint256",
          "name": "_amount",
          "type": "uint256"
        }
      ],
      "name": "despositToStrategy",
      "outputs": [
        {
          "internalType": "uint256",
          "name": "",
          "type": "uint256"
        }
      ],
      "stateMutability": "nonpayable",
      "type": "function"
    },
    {
      "inputs": [],
      "name": "owner",
      "outputs": [
        {
          "internalType": "address",
          "name": "",
          "type": "address"
        }
      ],
      "stateMutability": "view",
      "type": "function"
    },
    {
      "inputs": [],
      "name": "pendingRewardBalance",
      "outputs": [
        {
          "internalType": "uint256",
          "name": "",
          "type": "uint256"
        }
      ],
      "stateMutability": "view",
      "type": "function"
    },
    {
      "inputs": [],
      "name": "rewardBalance",
      "outputs": [
        {
          "internalType": "uint256",
          "name": "",
          "type": "uint256"
        }
      ],
      "stateMutability": "view",
      "type": "function"
    },
    {
      "inputs": [],
      "name": "stargateLPStaking",
      "outputs": [
        {
          "internalType": "contract IStargateLPStaking",
          "name": "",
          "type": "address"
        }
      ],
      "stateMutability": "view",
      "type": "function"
    },
    {
      "inputs": [],
      "name": "stargateLPToken",
      "outputs": [
        {
          "internalType": "contract IStargateLPToken",
          "name": "",
          "type": "address"
        }
      ],
      "stateMutability": "view",
      "type": "function"
    },
    {
      "inputs": [],
      "name": "stargateRouter",
      "outputs": [
        {
          "internalType": "contract IStargateRouter",
          "name": "",
          "type": "address"
        }
      ],
      "stateMutability": "view",
      "type": "function"
    },
    {
      "inputs": [
        {
          "internalType": "address",
          "name": "newOwner",
          "type": "address"
        }
      ],
      "name": "transferOwnership",
      "outputs": [],
      "stateMutability": "nonpayable",
      "type": "function"
    }
  ],
  "bytecode": {
    "object": "0x608060405234801561001057600080fd5b50606780546001600160a01b0319908116738731d54e9d02c286767d56ac03e8037c07e01e981790915560688054821673b0d502e938ed5f4df2e681fe6e419ff29631d62b1790556069805490911673df0770df86a8034b3efef0a1bb3c889b8332ff56179055610a4e806100866000396000f3fe608060405234801561001057600080fd5b50600436106100a95760003560e01c8063aa5c3ab411610071578063aa5c3ab41461013b578063b842e87f14610143578063e48381b41461014d578063e86c106e14610160578063f2fde38b14610173578063ff4949471461018657600080fd5b80630a1c049e146100ae5780634c16e973146100c957806389a30271146100fc5780638da5cb5b14610117578063a9e56f3c14610128575b600080fd5b6100b6610199565b6040519081526020015b60405180910390f35b6100e473af5191b0de278c7286d6c7cc6ab6bb8a73ba2cd681565b6040516001600160a01b0390911681526020016100c0565b6100e473a0b86991c6218b36c1d19d4a2e9eb0ce3606eb4881565b6033546001600160a01b03166100e4565b6067546100e4906001600160a01b031681565b6100b6610213565b61014b61024d565b005b6100b661015b3660046108f7565b6102d2565b6069546100e4906001600160a01b031681565b61014b610181366004610919565b61054e565b6068546100e4906001600160a01b031681565b606854604051632f607fdd60e01b8152600060048201819052306024830152916001600160a01b031690632f607fdd906044015b602060405180830381865afa1580156101ea573d6000803e3d6000fd5b505050506040513d601f19601f8201168201806040525081019061020e9190610949565b905090565b6040516370a0823160e01b815230600482015260009073af5191b0de278c7286d6c7cc6ab6bb8a73ba2cd6906370a08231906024016101cd565b6034546001600160a01b031633146102bb5760405162461bcd60e51b815260206004820152602660248201527f6f6e6c792070656e64696e67206f776e65722063616e2061636365707420747260448201526530b739b332b960d11b60648201526084015b60405180910390fd5b6034546102d0906001600160a01b03166105dd565b565b60006102f473a0b86991c6218b36c1d19d4a2e9eb0ce3606eb4833308561063a565b5060675460405163095ea7b360e01b81526001600160a01b0390911660048201526024810183905273a0b86991c6218b36c1d19d4a2e9eb0ce3606eb489063095ea7b3906044016020604051808303816000875af115801561035a573d6000803e3d6000fd5b505050506040513d601f19601f8201168201806040525081019061037e9190610962565b506067546040516321ec87bf60e21b815260048101859052602481018490523060448201526001600160a01b03909116906387b21efc90606401600060405180830381600087803b1580156103d257600080fd5b505af11580156103e6573d6000803e3d6000fd5b50506069546040516370a0823160e01b8152306004820152600093506001600160a01b0390911691506370a08231906024016020604051808303816000875af1158015610437573d6000803e3d6000fd5b505050506040513d601f19601f8201168201806040525081019061045b9190610949565b60695460685460405163095ea7b360e01b81526001600160a01b03918216600482015260248101849052929350169063095ea7b390604401600060405180830381600087803b1580156104ad57600080fd5b505af11580156104c1573d6000803e3d6000fd5b5050606854604051631c57762b60e31b815260006004820152602481018590526001600160a01b03909116925063e2bbb1589150604401600060405180830381600087803b15801561051257600080fd5b505af1158015610526573d6000803e3d6000fd5b50505050806066600082825461053c9190610984565b90915550506066549150505b92915050565b6105566106a3565b6001600160a01b0381166105bb5760405162461bcd60e51b815260206004820152602660248201527f4f776e61626c653a206e6577206f776e657220697320746865207a65726f206160448201526564647265737360d01b60648201526084016102b2565b603480546001600160a01b0319166001600160a01b0392909216919091179055565b603380546001600160a01b038381166001600160a01b03198084168217909455603480549094169093556040519116919082907f8be0079c531659141344cd1fd0a4f28419497f9722a3daafe3b4186f6b6457e090600090a35050565b604080516001600160a01b0385811660248301528416604482015260648082018490528251808303909101815260849091019091526020810180516001600160e01b03166323b872dd60e01b1790526000906106979086906106fd565b5060015b949350505050565b6033546001600160a01b031633146102d05760405162461bcd60e51b815260206004820181905260248201527f4f776e61626c653a2063616c6c6572206973206e6f7420746865206f776e657260448201526064016102b2565b6000610752826040518060400160405280602081526020017f5361666545524332303a206c6f772d6c6576656c2063616c6c206661696c6564815250856001600160a01b03166107d49092919063ffffffff16565b8051909150156107cf57808060200190518101906107709190610962565b6107cf5760405162461bcd60e51b815260206004820152602a60248201527f5361666545524332303a204552433230206f7065726174696f6e20646964206e6044820152691bdd081cdd58d8d9595960b21b60648201526084016102b2565b505050565b606061069b848460008585600080866001600160a01b031685876040516107fb91906109c9565b60006040518083038185875af1925050503d8060008114610838576040519150601f19603f3d011682016040523d82523d6000602084013e61083d565b606091505b509150915061084e87838387610859565b979650505050505050565b606083156108c85782516000036108c1576001600160a01b0385163b6108c15760405162461bcd60e51b815260206004820152601d60248201527f416464726573733a2063616c6c20746f206e6f6e2d636f6e747261637400000060448201526064016102b2565b508161069b565b61069b83838151156108dd5781518083602001fd5b8060405162461bcd60e51b81526004016102b291906109e5565b6000806040838503121561090a57600080fd5b50508035926020909101359150565b60006020828403121561092b57600080fd5b81356001600160a01b038116811461094257600080fd5b9392505050565b60006020828403121561095b57600080fd5b5051919050565b60006020828403121561097457600080fd5b8151801515811461094257600080fd5b8082018082111561054857634e487b7160e01b600052601160045260246000fd5b60005b838110156109c05781810151838201526020016109a8565b50506000910152565b600082516109db8184602087016109a5565b9190910192915050565b6020815260008251806020840152610a048160408501602087016109a5565b601f01601f1916919091016040019291505056fea2646970667358221220d8fd3420e6834dc9a53dcfa4ff59c5caf9a52dceb8a35e932d245e0114c9c57e64736f6c63430008110033",
    "linkReferences": {}
  },
  "methodIdentifiers": {
    "STG()": "4c16e973",
    "USDC()": "89a30271",
    "acceptOwnershipTransfer()": "b842e87f",
    "despositToStrategy(uint256,uint256)": "e48381b4",
    "owner()": "8da5cb5b",
    "pendingRewardBalance()": "0a1c049e",
    "rewardBalance()": "aa5c3ab4",
    "stargateLPStaking()": "ff494947",
    "stargateLPToken()": "e86c106e",
    "stargateRouter()": "a9e56f3c",
    "transferOwnership(address)": "f2fde38b"
  },
  "id": 25
}