{
  "abi": [
    {
      "inputs": [
        {
          "internalType": "address",
          "name": "_owner",
          "type": "address"
        }
      ],
      "stateMutability": "nonpayable",
      "type": "constructor"
    },
    {
      "inputs": [],
      "name": "STG",
      "outputs": [
        {
          "internalType": "contract IERC20",
          "name": "",
          "type": "address"
        }
      ],
      "stateMutability": "view",
      "type": "function"
    },
    {
      "inputs": [],
      "name": "USDC",
      "outputs": [
        {
          "internalType": "contract IERC20",
          "name": "",
          "type": "address"
        }
      ],
      "stateMutability": "view",
      "type": "function"
    },
    {
      "inputs": [],
      "name": "WETH9",
      "outputs": [
        {
          "internalType": "address",
          "name": "",
          "type": "address"
        }
      ],
      "stateMutability": "view",
      "type": "function"
    },
    {
      "inputs": [],
      "name": "compound",
      "outputs": [
        {
          "internalType": "uint256",
          "name": "",
          "type": "uint256"
        }
      ],
      "stateMutability": "nonpayable",
      "type": "function"
    },
    {
      "inputs": [],
      "name": "depositToStrategy",
      "outputs": [
        {
          "internalType": "uint256",
          "name": "",
          "type": "uint256"
        }
      ],
      "stateMutability": "nonpayable",
      "type": "function"
    },
    {
      "inputs": [],
      "name": "lpDepositBalance",
      "outputs": [
        {
          "internalType": "uint256",
          "name": "",
          "type": "uint256"
        }
      ],
      "stateMutability": "view",
      "type": "function"
    },
    {
      "inputs": [],
      "name": "pendingOwner",
      "outputs": [
        {
          "internalType": "address",
          "name": "",
          "type": "address"
        }
      ],
      "stateMutability": "view",
      "type": "function"
    },
    {
      "inputs": [],
      "name": "pendingRewardBalance",
      "outputs": [
        {
          "internalType": "uint256",
          "name": "",
          "type": "uint256"
        }
      ],
      "stateMutability": "view",
      "type": "function"
    },
    {
      "inputs": [],
      "name": "poolFee",
      "outputs": [
        {
          "internalType": "uint24",
          "name": "",
          "type": "uint24"
        }
      ],
      "stateMutability": "view",
      "type": "function"
    },
    {
      "inputs": [],
      "name": "rewardBalance",
      "outputs": [
        {
          "internalType": "uint256",
          "name": "",
          "type": "uint256"
        }
      ],
      "stateMutability": "view",
      "type": "function"
    },
    {
      "inputs": [],
      "name": "saloon",
      "outputs": [
        {
          "internalType": "contract ISaloon",
          "name": "",
          "type": "address"
        }
      ],
      "stateMutability": "view",
      "type": "function"
    },
    {
      "inputs": [],
      "name": "stargateLPStaking",
      "outputs": [
        {
          "internalType": "contract IStargateLPStaking",
          "name": "",
          "type": "address"
        }
      ],
      "stateMutability": "view",
      "type": "function"
    },
    {
      "inputs": [],
      "name": "stargateLPToken",
      "outputs": [
        {
          "internalType": "contract IStargateLPToken",
          "name": "",
          "type": "address"
        }
      ],
      "stateMutability": "view",
      "type": "function"
    },
    {
      "inputs": [],
      "name": "stargateRouter",
      "outputs": [
        {
          "internalType": "contract IStargateRouter",
          "name": "",
          "type": "address"
        }
      ],
      "stateMutability": "view",
      "type": "function"
    },
    {
      "inputs": [],
      "name": "uniswapRouter",
      "outputs": [
        {
          "internalType": "contract IUniswapRouter",
          "name": "",
          "type": "address"
        }
      ],
      "stateMutability": "view",
      "type": "function"
    },
    {
      "inputs": [
        {
          "internalType": "address",
          "name": "_stargateRouter",
          "type": "address"
        },
        {
          "internalType": "address",
          "name": "_stargateLPToken",
          "type": "address"
        },
        {
          "internalType": "address",
          "name": "_stargateLPStaking",
          "type": "address"
        }
      ],
      "name": "updateStargateAddresses",
      "outputs": [],
      "stateMutability": "nonpayable",
      "type": "function"
    },
    {
      "inputs": [
        {
          "internalType": "address",
          "name": "_uniswapRouter",
          "type": "address"
        }
      ],
      "name": "updateUniswapRouterAddress",
      "outputs": [],
      "stateMutability": "nonpayable",
      "type": "function"
    },
    {
      "inputs": [
        {
          "internalType": "uint256",
          "name": "_amount",
          "type": "uint256"
        }
      ],
      "name": "withdrawFromStrategy",
      "outputs": [
        {
          "internalType": "uint256",
          "name": "",
          "type": "uint256"
        }
      ],
      "stateMutability": "nonpayable",
      "type": "function"
    },
    {
      "inputs": [],
      "name": "withdrawYield",
      "outputs": [
        {
          "internalType": "uint256",
          "name": "",
          "type": "uint256"
        }
      ],
      "stateMutability": "nonpayable",
      "type": "function"
    }
  ],
  "bytecode": {
    "object": "0x60806040526103e860035561271060045534801561001c57600080fd5b506040516114d63803806114d683398101604081905261003b9161016b565b600580546001600160a01b0319908116738731d54e9d02c286767d56ac03e8037c07e01e981790915560068054821673b0d502e938ed5f4df2e681fe6e419ff29631d62b17905560078054821673df0770df86a8034b3efef0a1bb3c889b8332ff561790556008805490911673e592427a0aece92de3edee1f18e0157c0586156417905560405163095ea7b360e01b81526001600160a01b0382166004820152600019602482015273a0b86991c6218b36c1d19d4a2e9eb0ce3606eb489063095ea7b3906044016020604051808303816000875af1158015610121573d6000803e3d6000fd5b505050506040513d601f19601f82011682018060405250810190610145919061019b565b50600080546001600160a01b0319166001600160a01b03929092169190911790556101bd565b60006020828403121561017d57600080fd5b81516001600160a01b038116811461019457600080fd5b9392505050565b6000602082840312156101ad57600080fd5b8151801515811461019457600080fd5b61130a806101cc6000396000f3fe608060405234801561001057600080fd5b50600436106101215760003560e01c806389a30271116100ad578063e507a8a411610071578063e507a8a414610254578063e86c106e1461025c578063ef2dcf5f1461026f578063f69e204614610282578063ff4949471461028a57600080fd5b806389a30271146101f6578063a9e56f3c14610211578063aa5c3ab414610224578063aba0f7f21461022c578063e30c39781461024157600080fd5b80634aa4a4fc116100f45780634aa4a4fc146101795780634c16e973146101ac578063735de9f7146101c75780637f1f0873146101da57806380c3c8a2146101e357600080fd5b8063089fe6aa146101265780630a1c049e146101485780630b5090071461015e57806348b1933514610166575b600080fd5b61012f610bb881565b60405162ffffff90911681526020015b60405180910390f35b61015061029d565b60405190815260200161013f565b610150610317565b61015061017436600461108a565b610617565b61019473c02aaa39b223fe8d0a0e5c4f27ead9083c756cc281565b6040516001600160a01b03909116815260200161013f565b61019473af5191b0de278c7286d6c7cc6ab6bb8a73ba2cd681565b600854610194906001600160a01b031681565b61015060025481565b600054610194906001600160a01b031681565b61019473a0b86991c6218b36c1d19d4a2e9eb0ce3606eb4881565b600554610194906001600160a01b031681565b6101506108a1565b61023f61023a3660046110ba565b6108db565b005b600154610194906001600160a01b031681565b61015061098b565b600754610194906001600160a01b031681565b61023f61027d3660046110fd565b610a2c565b610150610a84565b600654610194906001600160a01b031681565b600654604051632f607fdd60e01b8152600060048201819052306024830152916001600160a01b031690632f607fdd906044015b602060405180830381865afa1580156102ee573d6000803e3d6000fd5b505050506040513d601f19601f82011682018060405250810190610312919061111f565b905090565b600080546001600160a01b0316331461034b5760405162461bcd60e51b815260040161034290611138565b60405180910390fd5b6040516370a0823160e01b815230600482015260009073a0b86991c6218b36c1d19d4a2e9eb0ce3606eb48906370a0823190602401602060405180830381865afa15801561039d573d6000803e3d6000fd5b505050506040513d601f19601f820116820180604052508101906103c1919061111f565b60055460405163095ea7b360e01b81526001600160a01b0390911660048201526024810182905290915073a0b86991c6218b36c1d19d4a2e9eb0ce3606eb489063095ea7b3906044016020604051808303816000875af1158015610429573d6000803e3d6000fd5b505050506040513d601f19601f8201168201806040525081019061044d9190611160565b506005546040516321ec87bf60e21b815260016004820152602481018390523060448201526001600160a01b03909116906387b21efc90606401600060405180830381600087803b1580156104a157600080fd5b505af11580156104b5573d6000803e3d6000fd5b50506007546040516370a0823160e01b8152306004820152600093506001600160a01b0390911691506370a08231906024016020604051808303816000875af1158015610506573d6000803e3d6000fd5b505050506040513d601f19601f8201168201806040525081019061052a919061111f565b60075460065460405163095ea7b360e01b81526001600160a01b03918216600482015260248101849052929350169063095ea7b390604401600060405180830381600087803b15801561057c57600080fd5b505af1158015610590573d6000803e3d6000fd5b5050600654604051631c57762b60e31b815260006004820152602481018590526001600160a01b03909116925063e2bbb1589150604401600060405180830381600087803b1580156105e157600080fd5b505af11580156105f5573d6000803e3d6000fd5b50505050806002600082825461060b9190611198565b90915550909250505090565b600080546001600160a01b031633146106425760405162461bcd60e51b815260040161034290611138565b6002548211156106845760405162461bcd60e51b815260206004820152600d60248201526c04e6f7420656e6f756768206c7609c1b6044820152606401610342565b816002600082825461069691906111b1565b9091555050600654604051630441a3e760e41b815260006004820152602481018490526001600160a01b039091169063441a3e7090604401600060405180830381600087803b1580156106e857600080fd5b505af11580156106fc573d6000803e3d6000fd5b50506007546040516370a0823160e01b8152306004820152600093506001600160a01b0390911691506370a08231906024016020604051808303816000875af115801561074d573d6000803e3d6000fd5b505050506040513d601f19601f82011682018060405250810190610771919061111f565b60055460405163c4de93a560e01b815260016004820152602481018390523060448201529192506000916001600160a01b039091169063c4de93a5906064016020604051808303816000875af11580156107cf573d6000803e3d6000fd5b505050506040513d601f19601f820116820180604052508101906107f3919061111f565b90506107fe30610b28565b506040516370a0823160e01b815230600482015260009073a0b86991c6218b36c1d19d4a2e9eb0ce3606eb48906370a0823190602401602060405180830381865afa158015610851573d6000803e3d6000fd5b505050506040513d601f19601f82011682018060405250810190610875919061111f565b905061089673a0b86991c6218b36c1d19d4a2e9eb0ce3606eb483383610dc9565b50925050505b919050565b6040516370a0823160e01b815230600482015260009073af5191b0de278c7286d6c7cc6ab6bb8a73ba2cd6906370a08231906024016102d1565b6000546001600160a01b031633146109055760405162461bcd60e51b815260040161034290611138565b6001600160a01b0383161561093057600580546001600160a01b0319166001600160a01b0385161790555b6001600160a01b0382161561095b57600780546001600160a01b0319166001600160a01b0384161790555b6001600160a01b0381161561098657600680546001600160a01b0319166001600160a01b0383161790555b505050565b600080546001600160a01b031633146109b65760405162461bcd60e51b815260040161034290611138565b600654604051631c57762b60e31b815260006004820181905260248201526001600160a01b039091169063e2bbb15890604401600060405180830381600087803b158015610a0357600080fd5b505af1158015610a17573d6000803e3d6000fd5b505050506000610a2633610b28565b91505090565b6000546001600160a01b03163314610a565760405162461bcd60e51b815260040161034290611138565b6001600160a01b03811615610a8157600880546001600160a01b0319166001600160a01b0383161790555b50565b600080546001600160a01b03163314610aaf5760405162461bcd60e51b815260040161034290611138565b600654604051631c57762b60e31b815260006004820181905260248201526001600160a01b039091169063e2bbb15890604401600060405180830381600087803b158015610afc57600080fd5b505af1158015610b10573d6000803e3d6000fd5b50505050610b1d30610b28565b506000610a26610317565b600080610b336108a1565b905080600003610b465750600092915050565b60085460405163095ea7b360e01b81526001600160a01b0390911660048201526024810182905273af5191b0de278c7286d6c7cc6ab6bb8a73ba2cd69063095ea7b3906044016020604051808303816000875af1158015610bab573d6000803e3d6000fd5b505050506040513d601f19601f82011682018060405250810190610bcf9190611160565b506040805160a0810182527357a8c8d86f13c639436b63e6355b5dc539dd166b60611b60c082015261017760eb1b60d48201819052736015551cd911ff4685072e2793f56c841e3ab66160611b60d783015260eb8201527314170d3238c43166d83a33a945d3d619c6c0dd6960631b60ee820152815160e2818303018152610102820183528152306020820152428183015260608101839052600060808201819052600854925163c04b8d5960e01b8152919290916001600160a01b039091169063c04b8d5990610ca4908590600401611214565b6020604051808303816000875af1158015610cc3573d6000803e3d6000fd5b505050506040513d601f19601f82011682018060405250810190610ce7919061111f565b9050600060045460035483610cfc919061126c565b610d069190611283565b90506000610d1482846111b1565b600054604051631aebcecb60e01b815273a0b86991c6218b36c1d19d4a2e9eb0ce3606eb486004820152602481018590529192506001600160a01b031690631aebcecb90604401600060405180830381600087803b158015610d7557600080fd5b505af1158015610d89573d6000803e3d6000fd5b505050506001600160a01b0387163014610dbe57610dbc73a0b86991c6218b36c1d19d4a2e9eb0ce3606eb488883610dc9565b505b509095945050505050565b604080516001600160a01b038416602482015260448082018490528251808303909101815260649091019091526020810180516001600160e01b031663a9059cbb60e01b179052600090610e1e908590610e28565b5060019392505050565b6000610e7d826040518060400160405280602081526020017f5361666545524332303a206c6f772d6c6576656c2063616c6c206661696c6564815250856001600160a01b0316610efa9092919063ffffffff16565b8051909150156109865780806020019051810190610e9b9190611160565b6109865760405162461bcd60e51b815260206004820152602a60248201527f5361666545524332303a204552433230206f7065726174696f6e20646964206e6044820152691bdd081cdd58d8d9595960b21b6064820152608401610342565b6060610f098484600085610f11565b949350505050565b606082471015610f725760405162461bcd60e51b815260206004820152602660248201527f416464726573733a20696e73756666696369656e742062616c616e636520666f6044820152651c8818d85b1b60d21b6064820152608401610342565b600080866001600160a01b03168587604051610f8e91906112a5565b60006040518083038185875af1925050503d8060008114610fcb576040519150601f19603f3d011682016040523d82523d6000602084013e610fd0565b606091505b5091509150610fe187838387610fec565b979650505050505050565b6060831561105b578251600003611054576001600160a01b0385163b6110545760405162461bcd60e51b815260206004820152601d60248201527f416464726573733a2063616c6c20746f206e6f6e2d636f6e74726163740000006044820152606401610342565b5081610f09565b610f0983838151156110705781518083602001fd5b8060405162461bcd60e51b815260040161034291906112c1565b60006020828403121561109c57600080fd5b5035919050565b80356001600160a01b038116811461089c57600080fd5b6000806000606084860312156110cf57600080fd5b6110d8846110a3565b92506110e6602085016110a3565b91506110f4604085016110a3565b90509250925092565b60006020828403121561110f57600080fd5b611118826110a3565b9392505050565b60006020828403121561113157600080fd5b5051919050565b6020808252600e908201526d139bdd08185d5d1a1bdc9a5e995960921b604082015260600190565b60006020828403121561117257600080fd5b8151801515811461111857600080fd5b634e487b7160e01b600052601160045260246000fd5b808201808211156111ab576111ab611182565b92915050565b818103818111156111ab576111ab611182565b60005b838110156111df5781810151838201526020016111c7565b50506000910152565b600081518084526112008160208601602086016111c4565b601f01601f19169290920160200192915050565b602081526000825160a0602084015261123060c08401826111e8565b905060018060a01b0360208501511660408401526040840151606084015260608401516080840152608084015160a08401528091505092915050565b80820281158282048414176111ab576111ab611182565b6000826112a057634e487b7160e01b600052601260045260246000fd5b500490565b600082516112b78184602087016111c4565b9190910192915050565b60208152600061111860208301846111e856fea2646970667358221220533357edb8ce2b1c1ec7ef84bfd831099b6f264d335dad9bb6ed693a760bccf064736f6c63430008110033",
    "linkReferences": {}
  },
  "methodIdentifiers": {
    "STG()": "4c16e973",
    "USDC()": "89a30271",
    "WETH9()": "4aa4a4fc",
    "compound()": "f69e2046",
    "depositToStrategy()": "0b509007",
    "lpDepositBalance()": "7f1f0873",
    "pendingOwner()": "e30c3978",
    "pendingRewardBalance()": "0a1c049e",
    "poolFee()": "089fe6aa",
    "rewardBalance()": "aa5c3ab4",
    "saloon()": "80c3c8a2",
    "stargateLPStaking()": "ff494947",
    "stargateLPToken()": "e86c106e",
    "stargateRouter()": "a9e56f3c",
    "uniswapRouter()": "735de9f7",
    "updateStargateAddresses(address,address,address)": "aba0f7f2",
    "updateUniswapRouterAddress(address)": "ef2dcf5f",
    "withdrawFromStrategy(uint256)": "48b19335",
    "withdrawYield()": "e507a8a4"
  },
  "id": 45
}