{
  "abi": [
    {
      "inputs": [],
      "stateMutability": "nonpayable",
      "type": "constructor"
    },
    {
      "anonymous": false,
      "inputs": [
        {
          "indexed": false,
          "internalType": "uint8",
          "name": "version",
          "type": "uint8"
        }
      ],
      "name": "Initialized",
      "type": "event"
    },
    {
      "anonymous": false,
      "inputs": [
        {
          "indexed": true,
          "internalType": "address",
          "name": "previousOwner",
          "type": "address"
        },
        {
          "indexed": true,
          "internalType": "address",
          "name": "newOwner",
          "type": "address"
        }
      ],
      "name": "OwnershipTransferred",
      "type": "event"
    },
    {
      "inputs": [],
      "name": "STG",
      "outputs": [
        {
          "internalType": "contract IERC20",
          "name": "",
          "type": "address"
        }
      ],
      "stateMutability": "view",
      "type": "function"
    },
    {
      "inputs": [],
      "name": "USDC",
      "outputs": [
        {
          "internalType": "contract IERC20",
          "name": "",
          "type": "address"
        }
      ],
      "stateMutability": "view",
      "type": "function"
    },
    {
      "inputs": [],
      "name": "WETH9",
      "outputs": [
        {
          "internalType": "address",
          "name": "",
          "type": "address"
        }
      ],
      "stateMutability": "view",
      "type": "function"
    },
    {
      "inputs": [],
      "name": "acceptOwnershipTransfer",
      "outputs": [],
      "stateMutability": "nonpayable",
      "type": "function"
    },
    {
      "inputs": [],
      "name": "compound",
      "outputs": [
        {
          "internalType": "uint256",
          "name": "",
          "type": "uint256"
        }
      ],
      "stateMutability": "nonpayable",
      "type": "function"
    },
    {
      "inputs": [],
      "name": "convertReward",
      "outputs": [
        {
          "internalType": "uint256",
          "name": "",
          "type": "uint256"
        }
      ],
      "stateMutability": "nonpayable",
      "type": "function"
    },
    {
      "inputs": [
        {
          "internalType": "uint256",
          "name": "_poolId",
          "type": "uint256"
        },
        {
          "internalType": "uint256",
          "name": "_amount",
          "type": "uint256"
        }
      ],
      "name": "despositToStrategy",
      "outputs": [
        {
          "internalType": "uint256",
          "name": "",
          "type": "uint256"
        }
      ],
      "stateMutability": "nonpayable",
      "type": "function"
    },
    {
      "inputs": [],
      "name": "lpDepositBalance",
      "outputs": [
        {
          "internalType": "uint256",
          "name": "",
          "type": "uint256"
        }
      ],
      "stateMutability": "view",
      "type": "function"
    },
    {
      "inputs": [],
      "name": "owner",
      "outputs": [
        {
          "internalType": "address",
          "name": "",
          "type": "address"
        }
      ],
      "stateMutability": "view",
      "type": "function"
    },
    {
      "inputs": [],
      "name": "pendingRewardBalance",
      "outputs": [
        {
          "internalType": "uint256",
          "name": "",
          "type": "uint256"
        }
      ],
      "stateMutability": "view",
      "type": "function"
    },
    {
      "inputs": [],
      "name": "poolFee",
      "outputs": [
        {
          "internalType": "uint24",
          "name": "",
          "type": "uint24"
        }
      ],
      "stateMutability": "view",
      "type": "function"
    },
    {
      "inputs": [],
      "name": "poolInfo",
      "outputs": [
        {
          "internalType": "uint256",
          "name": "",
          "type": "uint256"
        },
        {
          "internalType": "uint256",
          "name": "",
          "type": "uint256"
        },
        {
          "internalType": "uint256",
          "name": "",
          "type": "uint256"
        },
        {
          "internalType": "uint256",
          "name": "",
          "type": "uint256"
        }
      ],
      "stateMutability": "view",
      "type": "function"
    },
    {
      "inputs": [],
      "name": "rewardBalance",
      "outputs": [
        {
          "internalType": "uint256",
          "name": "",
          "type": "uint256"
        }
      ],
      "stateMutability": "view",
      "type": "function"
    },
    {
      "inputs": [],
      "name": "stargateLPStaking",
      "outputs": [
        {
          "internalType": "contract IStargateLPStaking",
          "name": "",
          "type": "address"
        }
      ],
      "stateMutability": "view",
      "type": "function"
    },
    {
      "inputs": [],
      "name": "stargateLPToken",
      "outputs": [
        {
          "internalType": "contract IStargateLPToken",
          "name": "",
          "type": "address"
        }
      ],
      "stateMutability": "view",
      "type": "function"
    },
    {
      "inputs": [],
      "name": "stargateRouter",
      "outputs": [
        {
          "internalType": "contract IStargateRouter",
          "name": "",
          "type": "address"
        }
      ],
      "stateMutability": "view",
      "type": "function"
    },
    {
      "inputs": [
        {
          "internalType": "address",
          "name": "newOwner",
          "type": "address"
        }
      ],
      "name": "transferOwnership",
      "outputs": [],
      "stateMutability": "nonpayable",
      "type": "function"
    },
    {
      "inputs": [],
      "name": "uniswapRouter",
      "outputs": [
        {
          "internalType": "contract IUniswapRouter",
          "name": "",
          "type": "address"
        }
      ],
      "stateMutability": "view",
      "type": "function"
    },
    {
      "inputs": [],
      "name": "userInfo",
      "outputs": [
        {
          "internalType": "uint256",
          "name": "",
          "type": "uint256"
        },
        {
          "internalType": "uint256",
          "name": "",
          "type": "uint256"
        }
      ],
      "stateMutability": "view",
      "type": "function"
    },
    {
      "inputs": [
        {
          "internalType": "uint256",
          "name": "_poolId",
          "type": "uint256"
        },
        {
          "internalType": "uint256",
          "name": "_amount",
          "type": "uint256"
        }
      ],
      "name": "withdrawFromStrategy",
      "outputs": [
        {
          "internalType": "uint256",
          "name": "",
          "type": "uint256"
        }
      ],
      "stateMutability": "nonpayable",
      "type": "function"
    }
  ],
  "bytecode": {
    "object": "0x608060405234801561001057600080fd5b50606780546001600160a01b0319908116738731d54e9d02c286767d56ac03e8037c07e01e981790915560688054821673b0d502e938ed5f4df2e681fe6e419ff29631d62b17905560698054821673df0770df86a8034b3efef0a1bb3c889b8332ff56179055606a805490911673e592427a0aece92de3edee1f18e0157c058615641790556112d5806100a46000396000f3fe608060405234801561001057600080fd5b506004361061012c5760003560e01c8063a9e56f3c116100ad578063e86c106e11610071578063e86c106e14610284578063f2fde38b14610297578063f69e2046146102aa578063f840cb83146102b2578063ff494947146102c557600080fd5b8063a9e56f3c14610244578063aa5c3ab414610257578063b842e87f1461025f578063bbf48d6f14610269578063e48381b41461027157600080fd5b80635a2f3d09116100f45780635a2f3d09146101d4578063735de9f7146101fc5780637f1f08731461020f57806389a30271146102185780638da5cb5b1461023357600080fd5b8063089fe6aa146101315780630a1c049e1461015357806343a6f4ee146101695780634aa4a4fc146101865780634c16e973146101b9575b600080fd5b61013a610bb881565b60405162ffffff90911681526020015b60405180910390f35b61015b6102d8565b60405190815260200161014a565b610171610352565b6040805192835260208301919091520161014a565b6101a173c02aaa39b223fe8d0a0e5c4f27ead9083c756cc281565b6040516001600160a01b03909116815260200161014a565b6101a173af5191b0de278c7286d6c7cc6ab6bb8a73ba2cd681565b6101dc6103d8565b60408051948552602085019390935291830152606082015260800161014a565b606a546101a1906001600160a01b031681565b61015b60665481565b6101a173a0b86991c6218b36c1d19d4a2e9eb0ce3606eb4881565b6033546001600160a01b03166101a1565b6067546101a1906001600160a01b031681565b61015b610468565b6102676104a2565b005b61015b610527565b61015b61027f3660046110ac565b6106ed565b6069546101a1906001600160a01b031681565b6102676102a53660046110ce565b61096e565b61015b6109fd565b61015b6102c03660046110ac565b610ae3565b6068546101a1906001600160a01b031681565b606854604051632f607fdd60e01b8152600060048201819052306024830152916001600160a01b031690632f607fdd906044015b602060405180830381865afa158015610329573d6000803e3d6000fd5b505050506040513d601f19601f8201168201806040525081019061034d91906110f7565b905090565b6068546040516393f1a40b60e01b8152600060048201819052306024830152918291829182916001600160a01b03909116906393f1a40b906044016040805180830381865afa1580156103a9573d6000803e3d6000fd5b505050506040513d601f19601f820116820180604052508101906103cd9190611110565b909590945092505050565b606854604051631526fe2760e01b81526000600482018190529182918291829182918291829182916001600160a01b0390911690631526fe2790602401608060405180830381865afa158015610432573d6000803e3d6000fd5b505050506040513d601f19601f820116820180604052508101906104569190611134565b929b919a509850909650945050505050565b6040516370a0823160e01b815230600482015260009073af5191b0de278c7286d6c7cc6ab6bb8a73ba2cd6906370a082319060240161030c565b6034546001600160a01b031633146105105760405162461bcd60e51b815260206004820152602660248201527f6f6e6c792070656e64696e67206f776e65722063616e2061636365707420747260448201526530b739b332b960d11b60648201526084015b60405180910390fd5b603454610525906001600160a01b0316610d45565b565b600080610532610468565b90508060000361054457600091505090565b606a5460405163095ea7b360e01b81526001600160a01b0390911660048201526024810182905273af5191b0de278c7286d6c7cc6ab6bb8a73ba2cd69063095ea7b3906044016020604051808303816000875af11580156105a9573d6000803e3d6000fd5b505050506040513d601f19601f820116820180604052508101906105cd919061116a565b506040805160a0810182527357a8c8d86f13c639436b63e6355b5dc539dd166b60611b60c082015261017760eb1b60d48201819052736015551cd911ff4685072e2793f56c841e3ab66160611b60d783015260eb8201527314170d3238c43166d83a33a945d3d619c6c0dd6960631b60ee820152815160e2818303018152610102820183528152306020820152428183015260608101839052600060808201819052606a54925163c04b8d5960e01b8152919290916001600160a01b039091169063c04b8d59906106a29085906004016111dc565b6020604051808303816000875af11580156106c1573d6000803e3d6000fd5b505050506040513d601f19601f820116820180604052508101906106e591906110f7565b949350505050565b60003330146107185761071673a0b86991c6218b36c1d19d4a2e9eb0ce3606eb48333085610da2565b505b60675460405163095ea7b360e01b81526001600160a01b0390911660048201526024810183905273a0b86991c6218b36c1d19d4a2e9eb0ce3606eb489063095ea7b3906044016020604051808303816000875af115801561077d573d6000803e3d6000fd5b505050506040513d601f19601f820116820180604052508101906107a1919061116a565b506067546040516321ec87bf60e21b815260048101859052602481018490523060448201526001600160a01b03909116906387b21efc90606401600060405180830381600087803b1580156107f557600080fd5b505af1158015610809573d6000803e3d6000fd5b50506069546040516370a0823160e01b8152306004820152600093506001600160a01b0390911691506370a08231906024016020604051808303816000875af115801561085a573d6000803e3d6000fd5b505050506040513d601f19601f8201168201806040525081019061087e91906110f7565b60695460685460405163095ea7b360e01b81526001600160a01b03918216600482015260248101849052929350169063095ea7b390604401600060405180830381600087803b1580156108d057600080fd5b505af11580156108e4573d6000803e3d6000fd5b5050606854604051631c57762b60e31b815260006004820152602481018590526001600160a01b03909116925063e2bbb1589150604401600060405180830381600087803b15801561093557600080fd5b505af1158015610949573d6000803e3d6000fd5b50505050806066600082825461095f919061124a565b90915550909150505b92915050565b610976610e1b565b6001600160a01b0381166109db5760405162461bcd60e51b815260206004820152602660248201527f4f776e61626c653a206e6577206f776e657220697320746865207a65726f206160448201526564647265737360d01b6064820152608401610507565b603480546001600160a01b0319166001600160a01b0392909216919091179055565b606854604051631c57762b60e31b815260006004820181905260248201819052916001600160a01b03169063e2bbb15890604401600060405180830381600087803b158015610a4b57600080fd5b505af1158015610a5f573d6000803e3d6000fd5b505050506000610a6d610527565b604051633920e06d60e21b81526001600482015260248101829052909150600090309063e48381b4906044016020604051808303816000875af1158015610ab8573d6000803e3d6000fd5b505050506040513d601f19601f82011682018060405250810190610adc91906110f7565b9392505050565b6000606654821115610b275760405162461bcd60e51b815260206004820152600d60248201526c04e6f7420656e6f756768206c7609c1b6044820152606401610507565b8160666000828254610b39919061125d565b9091555050606854604051630441a3e760e41b815260006004820152602481018490526001600160a01b039091169063441a3e7090604401600060405180830381600087803b158015610b8b57600080fd5b505af1158015610b9f573d6000803e3d6000fd5b50506069546040516370a0823160e01b8152306004820152600093506001600160a01b0390911691506370a08231906024016020604051808303816000875af1158015610bf0573d6000803e3d6000fd5b505050506040513d601f19601f82011682018060405250810190610c1491906110f7565b60675460405163c4de93a560e01b815261ffff87166004820152602481018390523060448201529192506000916001600160a01b039091169063c4de93a5906064016020604051808303816000875af1158015610c75573d6000803e3d6000fd5b505050506040513d601f19601f82011682018060405250810190610c9991906110f7565b9050610ca3610527565b506040516370a0823160e01b815230600482015260009073a0b86991c6218b36c1d19d4a2e9eb0ce3606eb48906370a0823190602401602060405180830381865afa158015610cf6573d6000803e3d6000fd5b505050506040513d601f19601f82011682018060405250810190610d1a91906110f7565b9050610d3b73a0b86991c6218b36c1d19d4a2e9eb0ce3606eb483383610e75565b5095945050505050565b603380546001600160a01b038381166001600160a01b03198084168217909455603480549094169093556040519116919082907f8be0079c531659141344cd1fd0a4f28419497f9722a3daafe3b4186f6b6457e090600090a35050565b6040516001600160a01b0380851660248301528316604482015260648101829052600090610e109086906323b872dd60e01b906084015b60408051601f198184030181529190526020810180516001600160e01b03166001600160e01b031990931692909217909152610eb2565b506001949350505050565b6033546001600160a01b031633146105255760405162461bcd60e51b815260206004820181905260248201527f4f776e61626c653a2063616c6c6572206973206e6f7420746865206f776e65726044820152606401610507565b6040516001600160a01b038316602482015260448101829052600090610ea890859063a9059cbb60e01b90606401610dd9565b5060019392505050565b6000610f07826040518060400160405280602081526020017f5361666545524332303a206c6f772d6c6576656c2063616c6c206661696c6564815250856001600160a01b0316610f899092919063ffffffff16565b805190915015610f845780806020019051810190610f25919061116a565b610f845760405162461bcd60e51b815260206004820152602a60248201527f5361666545524332303a204552433230206f7065726174696f6e20646964206e6044820152691bdd081cdd58d8d9595960b21b6064820152608401610507565b505050565b60606106e5848460008585600080866001600160a01b03168587604051610fb09190611270565b60006040518083038185875af1925050503d8060008114610fed576040519150601f19603f3d011682016040523d82523d6000602084013e610ff2565b606091505b50915091506110038783838761100e565b979650505050505050565b6060831561107d578251600003611076576001600160a01b0385163b6110765760405162461bcd60e51b815260206004820152601d60248201527f416464726573733a2063616c6c20746f206e6f6e2d636f6e74726163740000006044820152606401610507565b50816106e5565b6106e583838151156110925781518083602001fd5b8060405162461bcd60e51b8152600401610507919061128c565b600080604083850312156110bf57600080fd5b50508035926020909101359150565b6000602082840312156110e057600080fd5b81356001600160a01b0381168114610adc57600080fd5b60006020828403121561110957600080fd5b5051919050565b6000806040838503121561112357600080fd5b505080516020909101519092909150565b6000806000806080858703121561114a57600080fd5b505082516020840151604085015160609095015191969095509092509050565b60006020828403121561117c57600080fd5b81518015158114610adc57600080fd5b60005b838110156111a757818101518382015260200161118f565b50506000910152565b600081518084526111c881602086016020860161118c565b601f01601f19169290920160200192915050565b602081526000825160a060208401526111f860c08401826111b0565b905060018060a01b0360208501511660408401526040840151606084015260608401516080840152608084015160a08401528091505092915050565b634e487b7160e01b600052601160045260246000fd5b8082018082111561096857610968611234565b8181038181111561096857610968611234565b6000825161128281846020870161118c565b9190910192915050565b602081526000610adc60208301846111b056fea2646970667358221220827ca43baf9bde8d1f404310b5b3945ed4b9fe4fbf6fe6be42c67603f46d13af64736f6c63430008110033",
    "linkReferences": {}
  },
  "methodIdentifiers": {
    "STG()": "4c16e973",
    "USDC()": "89a30271",
    "WETH9()": "4aa4a4fc",
    "acceptOwnershipTransfer()": "b842e87f",
    "compound()": "f69e2046",
    "convertReward()": "bbf48d6f",
    "despositToStrategy(uint256,uint256)": "e48381b4",
    "lpDepositBalance()": "7f1f0873",
    "owner()": "8da5cb5b",
    "pendingRewardBalance()": "0a1c049e",
    "poolFee()": "089fe6aa",
    "poolInfo()": "5a2f3d09",
    "rewardBalance()": "aa5c3ab4",
    "stargateLPStaking()": "ff494947",
    "stargateLPToken()": "e86c106e",
    "stargateRouter()": "a9e56f3c",
    "transferOwnership(address)": "f2fde38b",
    "uniswapRouter()": "735de9f7",
    "userInfo()": "43a6f4ee",
    "withdrawFromStrategy(uint256,uint256)": "f840cb83"
  },
  "id": 26
}