{
  "abi": [
    {
      "anonymous": false,
      "inputs": [
        {
          "indexed": true,
          "internalType": "address",
          "name": "previousOwner",
          "type": "address"
        },
        {
          "indexed": true,
          "internalType": "address",
          "name": "newOwner",
          "type": "address"
        }
      ],
      "name": "OwnershipTransferred",
      "type": "event"
    },
    {
      "inputs": [
        {
          "internalType": "address",
          "name": "_token",
          "type": "address"
        },
        {
          "internalType": "uint256",
          "name": "_tokenId",
          "type": "uint256"
        },
        {
          "internalType": "uint256",
          "name": "_minPayment",
          "type": "uint256"
        },
        {
          "internalType": "uint256",
          "name": "_matchId",
          "type": "uint256"
        },
        {
          "internalType": "enum NFTBetting.Winner",
          "name": "_winner",
          "type": "uint8"
        },
        {
          "internalType": "address",
          "name": "_paymentToken",
          "type": "address"
        }
      ],
      "name": "betNFT",
      "outputs": [
        {
          "internalType": "bool",
          "name": "",
          "type": "bool"
        }
      ],
      "stateMutability": "nonpayable",
      "type": "function"
    },
    {
      "inputs": [
        {
          "internalType": "uint256",
          "name": "_betCount",
          "type": "uint256"
        }
      ],
      "name": "cancelBet",
      "outputs": [
        {
          "internalType": "bool",
          "name": "",
          "type": "bool"
        }
      ],
      "stateMutability": "nonpayable",
      "type": "function"
    },
    {
      "inputs": [],
      "name": "owner",
      "outputs": [
        {
          "internalType": "address",
          "name": "",
          "type": "address"
        }
      ],
      "stateMutability": "view",
      "type": "function"
    },
    {
      "inputs": [],
      "name": "renounceOwnership",
      "outputs": [],
      "stateMutability": "nonpayable",
      "type": "function"
    },
    {
      "inputs": [
        {
          "internalType": "uint256",
          "name": "_betCount",
          "type": "uint256"
        },
        {
          "internalType": "uint256",
          "name": "_payment",
          "type": "uint256"
        },
        {
          "internalType": "enum NFTBetting.Winner",
          "name": "_takerToWin",
          "type": "uint8"
        }
      ],
      "name": "takeBet",
      "outputs": [
        {
          "internalType": "bool",
          "name": "",
          "type": "bool"
        }
      ],
      "stateMutability": "payable",
      "type": "function"
    },
    {
      "inputs": [
        {
          "internalType": "address",
          "name": "newOwner",
          "type": "address"
        }
      ],
      "name": "transferOwnership",
      "outputs": [],
      "stateMutability": "nonpayable",
      "type": "function"
    },
    {
      "inputs": [
        {
          "internalType": "uint256[]",
          "name": "_matchId",
          "type": "uint256[]"
        },
        {
          "internalType": "uint256[]",
          "name": "_matchStart",
          "type": "uint256[]"
        },
        {
          "internalType": "enum NFTBetting.Winner[]",
          "name": "_matchWinner",
          "type": "uint8[]"
        }
      ],
      "name": "updateMatches",
      "outputs": [],
      "stateMutability": "nonpayable",
      "type": "function"
    },
    {
      "inputs": [
        {
          "internalType": "uint256",
          "name": "_betCount",
          "type": "uint256"
        }
      ],
      "name": "withdrawEarnings",
      "outputs": [
        {
          "internalType": "bool",
          "name": "",
          "type": "bool"
        }
      ],
      "stateMutability": "nonpayable",
      "type": "function"
    }
  ],
  "bytecode": {
    "object": "0x608060405234801561001057600080fd5b50600160005561001f33610024565b610076565b600180546001600160a01b038381166001600160a01b0319831681179093556040519116919082907f8be0079c531659141344cd1fd0a4f28419497f9722a3daafe3b4186f6b6457e090600090a35050565b61179c806100856000396000f3fe60806040526004361061007b5760003560e01c80636e70096e1161004e5780636e70096e1461010a578063715018a61461012a5780638da5cb5b1461013f578063f2fde38b1461016757600080fd5b806314f780c614610080578063357401f5146100b557806344a21585146100d55780635d4a19a8146100f7575b600080fd5b34801561008c57600080fd5b506100a061009b3660046114c0565b610187565b60405190151581526020015b60405180910390f35b3480156100c157600080fd5b506100a06100d036600461151f565b61049f565b3480156100e157600080fd5b506100f56100f0366004611584565b6106bc565b005b6100a061010536600461161e565b61088d565b34801561011657600080fd5b506100a061012536600461151f565b610d69565b34801561013657600080fd5b506100f5611307565b34801561014b57600080fd5b506001546040516001600160a01b0390911681526020016100ac565b34801561017357600080fd5b506100f5610182366004611653565b61131b565b6000610191611394565b600085116101e65760405162461bcd60e51b815260206004820152601760248201527f4d696e696d756d205061796d656e7420746f6f206c6f7700000000000000000060448201526064015b60405180910390fd5b60008360038111156101fa576101fa61166e565b1161023a5760405162461bcd60e51b815260206004820152601060248201526f2737903bb4b73732b91031b437b9b2b760811b60448201526064016101dd565b60008481526004602052604090206002015442116102905760405162461bcd60e51b81526020600482015260136024820152724d61746368206e6f7420617661696c61626c6560681b60448201526064016101dd565b60008481526004602052604081205460ff1660038111156102b3576102b361166e565b146102f85760405162461bcd60e51b81526020600482015260156024820152742bb4b73732b91030b63932b0b23c9031b437b9b2b760591b60448201526064016101dd565b60008481526004602052604090206003015460ff1615156001146103515760405162461bcd60e51b815260206004820152601060248201526f125b9d985b1a59081b585d18da081a5960821b60448201526064016101dd565b6040516323b872dd60e01b81526001600160a01b038816906323b872dd9061038190339030908b90600401611684565b600060405180830381600087803b15801561039b57600080fd5b505af11580156103af573d6000803e3d6000fd5b5050600280549250905060006103c4836116be565b90915550506002805460009081526003602081905260408083206007908101805463ff0000001916630100000017905584548452818420850180546001600160a01b03808f166001600160a01b031992831617909255865486528386206004018d9055865486528386206005018c90558654865283862085018054928a169290911691909117905584548452818420600601899055935483529091209091018054859260ff199091169060019084908111156104825761048261166e565b0217905550600190506104956001600055565b9695505050505050565b600081815260036020818152604080842081516101808101835281546001600160a01b0390811682526001830154811694820194909452600282015484169281019290925280840154909216606082015260048201546080820152600582015460a0820152600682015460c08201526007820154849391929160e084019160ff16908111156105305761053061166e565b60038111156105415761054161166e565b81526020016007820160019054906101000a900460ff1660038111156105695761056961166e565b600381111561057a5761057a61166e565b81526007919091015460ff62010000820481161515602084015263010000008204811615156040840152600160201b90910416151560609091015280519091506001600160a01b031633146106115760405162461bcd60e51b815260206004820152601760248201527f596f7520686176656e74206d616465207468652062657400000000000000000060448201526064016101dd565b610120810151156106585760405162461bcd60e51b81526020600482015260116024820152702132ba1030b63932b0b23c903a30b5b2b760791b60448201526064016101dd565b60c08101516000908152600460205260409020600201544211156106995750506000908152600360205260409020600701805463ff00000019169055600190565b50506000908152600360205260409020600701805463ff00000019169055600190565b6106c46113ee565b8483811480156106d357508082145b6107155760405162461bcd60e51b8152602060048201526013602482015272098cacedce8d040c8decadce6e840dac2e8c6d606b1b60448201526064016101dd565b60005b8181101561088357838382818110610732576107326116d9565b905060200201602081019061074791906116ef565b600460008a8a8581811061075d5761075d6116d9565b60209081029290920135835250810191909152604001600020805460ff191660018360038111156107905761079061166e565b02179055506116448686838181106107aa576107aa6116d9565b905060200201356107bb919061170a565b600460008a8a858181106107d1576107d16116d9565b905060200201358152602001908152602001600020600201819055508585828181106107ff576107ff6116d9565b90506020020135600460008a8a8581811061081c5761081c6116d9565b905060200201358152602001908152602001600020600101819055506001600460008a8a85818110610850576108506116d9565b60209081029290920135835250810191909152604001600020600301805460ff1916911515919091179055600101610718565b5050505050505050565b6000610897611394565b600084815260036020818152604080842081516101808101835281546001600160a01b0390811682526001830154811694820194909452600282015484169281019290925280840154909216606082015260048201546080820152600582015460a0820152600682015460c08201526007820154909260e084019160ff16908111156109255761092561166e565b60038111156109365761093661166e565b81526020016007820160019054906101000a900460ff16600381111561095e5761095e61166e565b600381111561096f5761096f61166e565b81526007919091015460ff62010000820481161515602084015263010000008204811615156040840152600160201b9091041615156060909101526101408101519091506001901515146109f85760405162461bcd60e51b815260206004820152601060248201526f10995d08139bdb8b595e1a5cdd195b9d60821b60448201526064016101dd565b826003811115610a0a57610a0a61166e565b8160e001516003811115610a2057610a2061166e565b14158015610a4057506000836003811115610a3d57610a3d61166e565b14155b610a8c5760405162461bcd60e51b815260206004820152601c60248201527f43616e7420626574206f6e207468652073616d65206f7574636f6d650000000060448201526064016101dd565b60008581526003602081905260409091206007018054859261ff001990911690610100908490811115610ac157610ac161166e565b0217905550610120810151610c98578060a00151841015610b195760405162461bcd60e51b8152602060048201526012602482015271139bdd08195b9bdd59da0814185e5b595b9d60721b60448201526064016101dd565b600085815260036020526040902060078101805462ff000019166201000017905560010180546001600160a01b0319163317905560608101516001600160a01b0316610bbe5783341015610ba45760405162461bcd60e51b8152602060048201526012602482015271139bdd08195b9bdd59da081c185e5b595b9d60721b60448201526064016101dd565b600085815260036020526040902034600590910155610c8e565b3415610c015760405162461bcd60e51b81526020600482015260126024820152714552433230207061796d656e74206f6e6c7960701b60448201526064016101dd565b80606001516001600160a01b03166323b872dd3330876040518463ffffffff1660e01b8152600401610c3593929190611684565b6020604051808303816000875af1158015610c54573d6000803e3d6000fd5b505050506040513d601f19601f82011682018060405250810190610c789190611722565b5060008581526003602052604090206005018490555b6001915050610d58565b8060a001518411610ce05760405162461bcd60e51b81526020600482015260126024820152710a0c2f2dacadce840dcdee840cadcdeeaced60731b60448201526064016101dd565b600085815260036020526040902060010180546001600160a01b0319163317905560608101516001600160a01b0316610bbe5783341015610ba45760405162461bcd60e51b8152602060048201526012602482015271139bdd08195b9bdd59da081c185e5b595b9d60721b60448201526064016101dd565b610d626001600055565b9392505050565b6000610d73611394565b600082815260036020818152604080842081516101808101835281546001600160a01b0390811682526001830154811694820194909452600282015484169281019290925280840154909216606082015260048201546080820152600582015460a0820152600682015460c08201526007820154909260e084019160ff1690811115610e0157610e0161166e565b6003811115610e1257610e1261166e565b81526020016007820160019054906101000a900460ff166003811115610e3a57610e3a61166e565b6003811115610e4b57610e4b61166e565b81526007919091015460ff62010000820481161515602084015263010000008204811615156040840152600160201b9091041615156060909101529050600060c082015160009081526004602052604090205460ff166003811115610eb257610eb261166e565b1415610ef65760405162461bcd60e51b815260206004820152601360248201527215da5b9b995c881b9bdd081cd95b1958dd1959606a1b60448201526064016101dd565b600083815260036020526040902060070154600160201b900460ff1615610f575760405162461bcd60e51b815260206004820152601560248201527412185cc8185b1c9958591e481899595b881c185a59605a1b60448201526064016101dd565b80516001600160a01b0316331415610fde578060e001516003811115610f7f57610f7f61166e565b60c082015160009081526004602052604090205460ff166003811115610fa757610fa761166e565b1415610fd95750506000818152600360205260409020600701805464ff000000001916600160201b17905560016112f8565b61104f565b8061010001516003811115610ff557610ff561166e565b60c082015160009081526004602052604090205460ff16600381111561101d5761101d61166e565b141561104f5750506000818152600360205260409020600701805464ff000000001916600160201b17905560016112f8565b600060028260a001516110629190611744565b60608301519091506001600160a01b03166111d857600082602001516001600160a01b03168260405160006040518083038185875af1925050503d80600081146110c8576040519150601f19603f3d011682016040523d82523d6000602084013e6110cd565b606091505b50909150506001811515146111125760405162461bcd60e51b815260206004820152600b60248201526a10d85b1b0819985a5b195960aa1b60448201526064016101dd565b82516040516000916001600160a01b03169084908381818185875af1925050503d806000811461115e576040519150601f19603f3d011682016040523d82523d6000602084013e611163565b606091505b50909150506001811515146111a85760405162461bcd60e51b815260206004820152600b60248201526a10d85b1b0819985a5b195960aa1b60448201526064016101dd565b5050506000838152600360205260409020600701805464ff000000001916600160201b17905550600190506112f8565b606082015182516040516323b872dd60e01b81526001600160a01b03909216916323b872dd9161120e9130908690600401611684565b6020604051808303816000875af115801561122d573d6000803e3d6000fd5b505050506040513d601f19601f820116820180604052508101906112519190611722565b50606082015160208301516040516323b872dd60e01b81526001600160a01b03909216916323b872dd9161128b9130908690600401611684565b6020604051808303816000875af11580156112aa573d6000803e3d6000fd5b505050506040513d601f19601f820116820180604052508101906112ce9190611722565b5050506000828152600360205260409020600701805464ff000000001916600160201b1790555060015b6113026001600055565b919050565b61130f6113ee565b6113196000611448565b565b6113236113ee565b6001600160a01b0381166113885760405162461bcd60e51b815260206004820152602660248201527f4f776e61626c653a206e6577206f776e657220697320746865207a65726f206160448201526564647265737360d01b60648201526084016101dd565b61139181611448565b50565b600260005414156113e75760405162461bcd60e51b815260206004820152601f60248201527f5265656e7472616e637947756172643a207265656e7472616e742063616c6c0060448201526064016101dd565b6002600055565b6001546001600160a01b031633146113195760405162461bcd60e51b815260206004820181905260248201527f4f776e61626c653a2063616c6c6572206973206e6f7420746865206f776e657260448201526064016101dd565b600180546001600160a01b038381166001600160a01b0319831681179093556040519116919082907f8be0079c531659141344cd1fd0a4f28419497f9722a3daafe3b4186f6b6457e090600090a35050565b80356001600160a01b038116811461130257600080fd5b80356004811061130257600080fd5b60008060008060008060c087890312156114d957600080fd5b6114e28761149a565b9550602087013594506040870135935060608701359250611505608088016114b1565b915061151360a0880161149a565b90509295509295509295565b60006020828403121561153157600080fd5b5035919050565b60008083601f84011261154a57600080fd5b50813567ffffffffffffffff81111561156257600080fd5b6020830191508360208260051b850101111561157d57600080fd5b9250929050565b6000806000806000806060878903121561159d57600080fd5b863567ffffffffffffffff808211156115b557600080fd5b6115c18a838b01611538565b909850965060208901359150808211156115da57600080fd5b6115e68a838b01611538565b909650945060408901359150808211156115ff57600080fd5b5061160c89828a01611538565b979a9699509497509295939492505050565b60008060006060848603121561163357600080fd5b833592506020840135915061164a604085016114b1565b90509250925092565b60006020828403121561166557600080fd5b610d628261149a565b634e487b7160e01b600052602160045260246000fd5b6001600160a01b039384168152919092166020820152604081019190915260600190565b634e487b7160e01b600052601160045260246000fd5b60006000198214156116d2576116d26116a8565b5060010190565b634e487b7160e01b600052603260045260246000fd5b60006020828403121561170157600080fd5b610d62826114b1565b6000821982111561171d5761171d6116a8565b500190565b60006020828403121561173457600080fd5b81518015158114610d6257600080fd5b60008261176157634e487b7160e01b600052601260045260246000fd5b50049056fea2646970667358221220db7202bf109be119c0afe5f84899734a69759815b79e0655a840acf6c621473064736f6c634300080a0033",
    "linkReferences": {}
  }
}