{
  "abi": [
    {
      "anonymous": false,
      "inputs": [
        {
          "indexed": false,
          "internalType": "uint8",
          "name": "version",
          "type": "uint8"
        }
      ],
      "name": "Initialized",
      "type": "event"
    },
    {
      "anonymous": false,
      "inputs": [
        {
          "indexed": true,
          "internalType": "address",
          "name": "previousOwner",
          "type": "address"
        },
        {
          "indexed": true,
          "internalType": "address",
          "name": "newOwner",
          "type": "address"
        }
      ],
      "name": "OwnershipTransferred",
      "type": "event"
    },
    {
      "inputs": [
        {
          "internalType": "uint256",
          "name": "",
          "type": "uint256"
        }
      ],
      "name": "APYTimelock",
      "outputs": [
        {
          "internalType": "uint256",
          "name": "timelock",
          "type": "uint256"
        },
        {
          "internalType": "bool",
          "name": "executed",
          "type": "bool"
        }
      ],
      "stateMutability": "view",
      "type": "function"
    },
    {
      "inputs": [],
      "name": "APYdropped",
      "outputs": [
        {
          "internalType": "bool",
          "name": "",
          "type": "bool"
        }
      ],
      "stateMutability": "view",
      "type": "function"
    },
    {
      "inputs": [
        {
          "internalType": "uint256",
          "name": "",
          "type": "uint256"
        }
      ],
      "name": "APYrecords",
      "outputs": [
        {
          "internalType": "uint256",
          "name": "timeStamp",
          "type": "uint256"
        },
        {
          "internalType": "uint256",
          "name": "periodAPY",
          "type": "uint256"
        }
      ],
      "stateMutability": "view",
      "type": "function"
    },
    {
      "inputs": [],
      "name": "BOUNTY_COMMISSION",
      "outputs": [
        {
          "internalType": "uint256",
          "name": "",
          "type": "uint256"
        }
      ],
      "stateMutability": "view",
      "type": "function"
    },
    {
      "inputs": [],
      "name": "DENOMINATOR",
      "outputs": [
        {
          "internalType": "uint256",
          "name": "",
          "type": "uint256"
        }
      ],
      "stateMutability": "view",
      "type": "function"
    },
    {
      "inputs": [],
      "name": "PREMIUM_COMMISSION",
      "outputs": [
        {
          "internalType": "uint256",
          "name": "",
          "type": "uint256"
        }
      ],
      "stateMutability": "view",
      "type": "function"
    },
    {
      "inputs": [],
      "name": "VERSION",
      "outputs": [
        {
          "internalType": "uint256",
          "name": "",
          "type": "uint256"
        }
      ],
      "stateMutability": "view",
      "type": "function"
    },
    {
      "inputs": [],
      "name": "YEAR",
      "outputs": [
        {
          "internalType": "uint256",
          "name": "",
          "type": "uint256"
        }
      ],
      "stateMutability": "view",
      "type": "function"
    },
    {
      "inputs": [
        {
          "internalType": "address",
          "name": "_token",
          "type": "address"
        },
        {
          "internalType": "address",
          "name": "_projectWallet",
          "type": "address"
        }
      ],
      "name": "billPremium",
      "outputs": [
        {
          "internalType": "bool",
          "name": "",
          "type": "bool"
        }
      ],
      "stateMutability": "nonpayable",
      "type": "function"
    },
    {
      "inputs": [
        {
          "internalType": "address",
          "name": "_token",
          "type": "address"
        },
        {
          "internalType": "address",
          "name": "_projectWallet",
          "type": "address"
        },
        {
          "internalType": "uint256",
          "name": "_amount",
          "type": "uint256"
        }
      ],
      "name": "bountyDeposit",
      "outputs": [
        {
          "internalType": "bool",
          "name": "",
          "type": "bool"
        }
      ],
      "stateMutability": "nonpayable",
      "type": "function"
    },
    {
      "inputs": [
        {
          "internalType": "address",
          "name": "_token",
          "type": "address"
        },
        {
          "internalType": "address",
          "name": "_staker",
          "type": "address"
        },
        {
          "internalType": "address",
          "name": "_projectWallet",
          "type": "address"
        }
      ],
      "name": "claimPremium",
      "outputs": [
        {
          "internalType": "uint256",
          "name": "",
          "type": "uint256"
        },
        {
          "internalType": "bool",
          "name": "",
          "type": "bool"
        }
      ],
      "stateMutability": "nonpayable",
      "type": "function"
    },
    {
      "inputs": [
        {
          "internalType": "address",
          "name": "_token",
          "type": "address"
        },
        {
          "internalType": "address",
          "name": "_saloonWallet",
          "type": "address"
        }
      ],
      "name": "collectSaloonPremiumFees",
      "outputs": [
        {
          "internalType": "uint256",
          "name": "",
          "type": "uint256"
        }
      ],
      "stateMutability": "nonpayable",
      "type": "function"
    },
    {
      "inputs": [],
      "name": "desiredAPY",
      "outputs": [
        {
          "internalType": "uint256",
          "name": "",
          "type": "uint256"
        }
      ],
      "stateMutability": "view",
      "type": "function"
    },
    {
      "inputs": [
        {
          "internalType": "address",
          "name": "_manager",
          "type": "address"
        }
      ],
      "name": "initializeImplementation",
      "outputs": [],
      "stateMutability": "nonpayable",
      "type": "function"
    },
    {
      "inputs": [
        {
          "internalType": "address",
          "name": "",
          "type": "address"
        }
      ],
      "name": "lastClaimed",
      "outputs": [
        {
          "internalType": "uint256",
          "name": "",
          "type": "uint256"
        }
      ],
      "stateMutability": "view",
      "type": "function"
    },
    {
      "inputs": [],
      "name": "lastTimePaid",
      "outputs": [
        {
          "internalType": "uint256",
          "name": "",
          "type": "uint256"
        }
      ],
      "stateMutability": "view",
      "type": "function"
    },
    {
      "inputs": [],
      "name": "manager",
      "outputs": [
        {
          "internalType": "address",
          "name": "",
          "type": "address"
        }
      ],
      "stateMutability": "view",
      "type": "function"
    },
    {
      "inputs": [],
      "name": "owner",
      "outputs": [
        {
          "internalType": "address",
          "name": "",
          "type": "address"
        }
      ],
      "stateMutability": "view",
      "type": "function"
    },
    {
      "inputs": [
        {
          "internalType": "address",
          "name": "_token",
          "type": "address"
        },
        {
          "internalType": "address",
          "name": "_saloonWallet",
          "type": "address"
        },
        {
          "internalType": "address",
          "name": "_hunter",
          "type": "address"
        },
        {
          "internalType": "uint256",
          "name": "_amount",
          "type": "uint256"
        }
      ],
      "name": "payBounty",
      "outputs": [
        {
          "internalType": "bool",
          "name": "",
          "type": "bool"
        }
      ],
      "stateMutability": "nonpayable",
      "type": "function"
    },
    {
      "inputs": [],
      "name": "poolCap",
      "outputs": [
        {
          "internalType": "uint256",
          "name": "",
          "type": "uint256"
        }
      ],
      "stateMutability": "view",
      "type": "function"
    },
    {
      "inputs": [
        {
          "internalType": "uint256",
          "name": "",
          "type": "uint256"
        }
      ],
      "name": "poolCapTimelock",
      "outputs": [
        {
          "internalType": "uint256",
          "name": "timelock",
          "type": "uint256"
        },
        {
          "internalType": "bool",
          "name": "executed",
          "type": "bool"
        }
      ],
      "stateMutability": "view",
      "type": "function"
    },
    {
      "inputs": [],
      "name": "poolPeriod",
      "outputs": [
        {
          "internalType": "uint256",
          "name": "",
          "type": "uint256"
        }
      ],
      "stateMutability": "view",
      "type": "function"
    },
    {
      "inputs": [],
      "name": "premiumBalance",
      "outputs": [
        {
          "internalType": "uint256",
          "name": "",
          "type": "uint256"
        }
      ],
      "stateMutability": "view",
      "type": "function"
    },
    {
      "inputs": [],
      "name": "projectDeposit",
      "outputs": [
        {
          "internalType": "uint256",
          "name": "",
          "type": "uint256"
        }
      ],
      "stateMutability": "view",
      "type": "function"
    },
    {
      "inputs": [
        {
          "internalType": "address",
          "name": "_token",
          "type": "address"
        },
        {
          "internalType": "address",
          "name": "_projectWallet",
          "type": "address"
        },
        {
          "internalType": "uint256",
          "name": "_amount",
          "type": "uint256"
        }
      ],
      "name": "projectDepositWithdrawal",
      "outputs": [
        {
          "internalType": "bool",
          "name": "",
          "type": "bool"
        }
      ],
      "stateMutability": "nonpayable",
      "type": "function"
    },
    {
      "inputs": [],
      "name": "renounceOwnership",
      "outputs": [],
      "stateMutability": "nonpayable",
      "type": "function"
    },
    {
      "inputs": [],
      "name": "requiredPremiumBalancePerPeriod",
      "outputs": [
        {
          "internalType": "uint256",
          "name": "",
          "type": "uint256"
        }
      ],
      "stateMutability": "view",
      "type": "function"
    },
    {
      "inputs": [],
      "name": "saloonBountyCommission",
      "outputs": [
        {
          "internalType": "uint256",
          "name": "",
          "type": "uint256"
        }
      ],
      "stateMutability": "view",
      "type": "function"
    },
    {
      "inputs": [],
      "name": "saloonPremiumFees",
      "outputs": [
        {
          "internalType": "uint256",
          "name": "",
          "type": "uint256"
        }
      ],
      "stateMutability": "view",
      "type": "function"
    },
    {
      "inputs": [
        {
          "internalType": "uint256",
          "name": "_newAPY",
          "type": "uint256"
        }
      ],
      "name": "scheduleAPYChange",
      "outputs": [],
      "stateMutability": "nonpayable",
      "type": "function"
    },
    {
      "inputs": [
        {
          "internalType": "uint256",
          "name": "_newPoolCap",
          "type": "uint256"
        }
      ],
      "name": "schedulePoolCapChange",
      "outputs": [],
      "stateMutability": "nonpayable",
      "type": "function"
    },
    {
      "inputs": [
        {
          "internalType": "address",
          "name": "_staker",
          "type": "address"
        },
        {
          "internalType": "uint256",
          "name": "_amount",
          "type": "uint256"
        }
      ],
      "name": "scheduleUnstake",
      "outputs": [
        {
          "internalType": "bool",
          "name": "",
          "type": "bool"
        }
      ],
      "stateMutability": "nonpayable",
      "type": "function"
    },
    {
      "inputs": [
        {
          "internalType": "uint256",
          "name": "_amount",
          "type": "uint256"
        }
      ],
      "name": "scheduleprojectDepositWithdrawal",
      "outputs": [
        {
          "internalType": "bool",
          "name": "",
          "type": "bool"
        }
      ],
      "stateMutability": "nonpayable",
      "type": "function"
    },
    {
      "inputs": [
        {
          "internalType": "address",
          "name": "_token",
          "type": "address"
        },
        {
          "internalType": "address",
          "name": "_projectWallet",
          "type": "address"
        },
        {
          "internalType": "uint256",
          "name": "_desiredAPY",
          "type": "uint256"
        }
      ],
      "name": "setDesiredAPY",
      "outputs": [
        {
          "internalType": "bool",
          "name": "",
          "type": "bool"
        }
      ],
      "stateMutability": "nonpayable",
      "type": "function"
    },
    {
      "inputs": [
        {
          "internalType": "uint256",
          "name": "_amount",
          "type": "uint256"
        }
      ],
      "name": "setPoolCap",
      "outputs": [],
      "stateMutability": "nonpayable",
      "type": "function"
    },
    {
      "inputs": [
        {
          "internalType": "address",
          "name": "_token",
          "type": "address"
        },
        {
          "internalType": "address",
          "name": "_staker",
          "type": "address"
        },
        {
          "internalType": "uint256",
          "name": "_amount",
          "type": "uint256"
        }
      ],
      "name": "stake",
      "outputs": [
        {
          "internalType": "bool",
          "name": "",
          "type": "bool"
        }
      ],
      "stateMutability": "nonpayable",
      "type": "function"
    },
    {
      "inputs": [
        {
          "internalType": "address",
          "name": "",
          "type": "address"
        },
        {
          "internalType": "uint256",
          "name": "",
          "type": "uint256"
        }
      ],
      "name": "staker",
      "outputs": [
        {
          "internalType": "uint256",
          "name": "stakeBalance",
          "type": "uint256"
        },
        {
          "internalType": "uint256",
          "name": "balanceTimeStamp",
          "type": "uint256"
        }
      ],
      "stateMutability": "view",
      "type": "function"
    },
    {
      "inputs": [
        {
          "internalType": "uint256",
          "name": "",
          "type": "uint256"
        }
      ],
      "name": "stakerList",
      "outputs": [
        {
          "internalType": "address",
          "name": "",
          "type": "address"
        }
      ],
      "stateMutability": "view",
      "type": "function"
    },
    {
      "inputs": [
        {
          "internalType": "address",
          "name": "",
          "type": "address"
        },
        {
          "internalType": "uint256",
          "name": "",
          "type": "uint256"
        }
      ],
      "name": "stakerTimelock",
      "outputs": [
        {
          "internalType": "uint256",
          "name": "timelock",
          "type": "uint256"
        },
        {
          "internalType": "bool",
          "name": "executed",
          "type": "bool"
        }
      ],
      "stateMutability": "view",
      "type": "function"
    },
    {
      "inputs": [
        {
          "internalType": "uint256",
          "name": "",
          "type": "uint256"
        }
      ],
      "name": "stakersDeposit",
      "outputs": [
        {
          "internalType": "uint256",
          "name": "stakeBalance",
          "type": "uint256"
        },
        {
          "internalType": "uint256",
          "name": "balanceTimeStamp",
          "type": "uint256"
        }
      ],
      "stateMutability": "view",
      "type": "function"
    },
    {
      "inputs": [
        {
          "internalType": "address",
          "name": "newOwner",
          "type": "address"
        }
      ],
      "name": "transferOwnership",
      "outputs": [],
      "stateMutability": "nonpayable",
      "type": "function"
    },
    {
      "inputs": [
        {
          "internalType": "address",
          "name": "_token",
          "type": "address"
        },
        {
          "internalType": "address",
          "name": "_staker",
          "type": "address"
        },
        {
          "internalType": "uint256",
          "name": "_amount",
          "type": "uint256"
        }
      ],
      "name": "unstake",
      "outputs": [
        {
          "internalType": "bool",
          "name": "",
          "type": "bool"
        }
      ],
      "stateMutability": "nonpayable",
      "type": "function"
    },
    {
      "inputs": [],
      "name": "viewBountyBalance",
      "outputs": [
        {
          "internalType": "uint256",
          "name": "",
          "type": "uint256"
        }
      ],
      "stateMutability": "view",
      "type": "function"
    },
    {
      "inputs": [],
      "name": "viewDesiredAPY",
      "outputs": [
        {
          "internalType": "uint256",
          "name": "",
          "type": "uint256"
        }
      ],
      "stateMutability": "view",
      "type": "function"
    },
    {
      "inputs": [],
      "name": "viewHackerPayout",
      "outputs": [
        {
          "internalType": "uint256",
          "name": "",
          "type": "uint256"
        }
      ],
      "stateMutability": "view",
      "type": "function"
    },
    {
      "inputs": [],
      "name": "viewPoolCap",
      "outputs": [
        {
          "internalType": "uint256",
          "name": "",
          "type": "uint256"
        }
      ],
      "stateMutability": "view",
      "type": "function"
    },
    {
      "inputs": [],
      "name": "viewPremiumBalance",
      "outputs": [
        {
          "internalType": "uint256",
          "name": "",
          "type": "uint256"
        }
      ],
      "stateMutability": "view",
      "type": "function"
    },
    {
      "inputs": [],
      "name": "viewProjecDeposit",
      "outputs": [
        {
          "internalType": "uint256",
          "name": "",
          "type": "uint256"
        }
      ],
      "stateMutability": "view",
      "type": "function"
    },
    {
      "inputs": [],
      "name": "viewRequirePremiumBalance",
      "outputs": [
        {
          "internalType": "uint256",
          "name": "",
          "type": "uint256"
        }
      ],
      "stateMutability": "view",
      "type": "function"
    },
    {
      "inputs": [],
      "name": "viewStakersDeposit",
      "outputs": [
        {
          "internalType": "uint256",
          "name": "",
          "type": "uint256"
        }
      ],
      "stateMutability": "view",
      "type": "function"
    },
    {
      "inputs": [
        {
          "internalType": "address",
          "name": "_staker",
          "type": "address"
        }
      ],
      "name": "viewUserStakingBalance",
      "outputs": [
        {
          "internalType": "uint256",
          "name": "",
          "type": "uint256"
        },
        {
          "internalType": "uint256",
          "name": "",
          "type": "uint256"
        }
      ],
      "stateMutability": "view",
      "type": "function"
    },
    {
      "inputs": [],
      "name": "viewcurrentAPY",
      "outputs": [
        {
          "internalType": "uint256",
          "name": "",
          "type": "uint256"
        }
      ],
      "stateMutability": "view",
      "type": "function"
    },
    {
      "inputs": [
        {
          "internalType": "uint256",
          "name": "",
          "type": "uint256"
        }
      ],
      "name": "withdrawalTimelock",
      "outputs": [
        {
          "internalType": "uint256",
          "name": "timelock",
          "type": "uint256"
        },
        {
          "internalType": "bool",
          "name": "executed",
          "type": "bool"
        }
      ],
      "stateMutability": "view",
      "type": "function"
    }
  ],
  "bytecode": {
    "object": "0x608060405262127500600a553480156200001857600080fd5b5062000024336200002a565b6200007a565b600080546001600160a01b038381166001600160a01b0319831681178455604051919092169283917f8be0079c531659141344cd1fd0a4f28419497f9722a3daafe3b4186f6b6457e09190a35050565b6133c6806200008a6000396000f3fe608060405234801561001057600080fd5b50600436106103275760003560e01c806378eb46fd116101b8578063bf6eac2f11610104578063d835f535116100a2578063ed6ea1641161007c578063ed6ea164146106a8578063f2fde38b146106d2578063ff45d4c0146106e5578063ffa1ad74146106ed57600080fd5b8063d835f5351461067a578063ddaaae031461068d578063e45080e6146106a057600080fd5b8063cc12c311116100de578063cc12c31114610657578063d084b03a1461066a578063d26c90a9146104a5578063d5cb86691461067257600080fd5b8063bf6eac2f14610622578063c790ef8214610635578063c9e66d411461064857600080fd5b8063918f867411610171578063a4bf70bd1161014b578063a4bf70bd146105d7578063b404baa1146105e0578063b954dc571461060a578063bb8627851461061357600080fd5b8063918f8674146105a15780639e4bfaa5146105b1578063a194c3b6146105c457600080fd5b806378eb46fd146105375780637a5001e71461053f578063839145401461056957806384dc10b4146105745780638aa82e821461057d5780638da5cb5b1461059057600080fd5b806345042dec11610277578063503cb917116102305780636b01eab31161020a5780636b01eab3146104de578063715018a61461051357806372d269511461051b57806373927c111461052457600080fd5b8063503cb917146104a55780635121ac9d146104b857806360829f8a146104cb57600080fd5b806345042dec14610450578063481c6a75146104595780634a94bcb31461046c5780634b5df6cc146104745780634b8e0d37146104875780634c3bdee01461049c57600080fd5b80633147096d116102e45780633a5b0172116102be5780633a5b01721461041e5780633d850fb21461042b578063419b7bd71461043457806344ebc03d1461044757600080fd5b80633147096d146103c8578063348e50c6146103eb578063383639b31461041657600080fd5b8063013eba921461032c5780631104ec251461035f57806316e17b8d146103685780631a89cabd1461037057806320d83086146103985780633065f450146103a0575b600080fd5b61034c61033a366004613001565b600b6020526000908152604090205481565b6040519081526020015b60405180910390f35b61034c60085481565b61034c6106f5565b61038361037e366004613001565b6107ad565b60408051928352602083019190915201610356565b60055461034c565b6103b36103ae36600461301c565b610844565b60408051928352901515602083015201610356565b6103db6103d636600461305f565b610af6565b6040519015158152602001610356565b6103fe6103f936600461309b565b610b5c565b6040516001600160a01b039091168152602001610356565b60025461034c565b6014546103db9060ff1681565b61034c60045481565b6103db61044236600461305f565b610b86565b61034c60055481565b61034c600a5481565b6001546103fe906001600160a01b031681565b61034c610c6c565b6103db61048236600461309b565b610d66565b61049a610495366004613001565b610dc6565b005b61034c60095481565b61049a6104b336600461309b565b610f06565b61034c6104c63660046130b4565b610f5c565b6103db6104d936600461305f565b610fb4565b6103b36104ec3660046130e7565b600d6020908152600092835260408084209091529082529020805460019091015460ff1682565b61049a61146d565b61034c60025481565b6103db610532366004613111565b611481565b60065461034c565b6103b361054d36600461309b565b6010602052600090815260409020805460019091015460ff1682565b61034c6301e1338081565b61034c60065481565b6103db61058b3660046130b4565b611a6a565b6000546001600160a01b03166103fe565b61034c68056bc75e2d6310000081565b6103836105bf3660046130e7565b611ca9565b6103836105d236600461309b565b611ce5565b61034c60035481565b6103b36105ee36600461309b565b600f602052600090815260409020805460019091015460ff1682565b61034c60075481565b61034c671bc16d674ec8000081565b6103db61063036600461305f565b611d13565b6103db6106433660046130e7565b6121a7565b61034c678ac7230489e8000081565b6103db61066536600461305f565b6122c8565b60095461034c565b61034c6126d1565b61049a61068836600461309b565b6126e4565b61038361069b36600461309b565b61279e565b61034c6127ae565b6103b36106b636600461309b565b600e602052600090815260409020805460019091015460ff1682565b61049a6106e0366004613001565b612868565b60075461034c565b61034c600181565b6000806013805480602002602001604051908101604052809291908181526020016000905b828210156107605783829060005260206000209060020201604051806040016040529081600082015481526020016001820154815250508152602001906001019061071a565b505082519293505050806107775760009250505090565b6013610784600183613172565b8154811061079457610794613189565b9060005260206000209060020201600001549250505090565b6001600160a01b0381166000908152600c60205260408120805482916107d4600183613172565b815481106107e4576107e4613189565b600091825260208083206002909202909101546001600160a01b0387168352600c9091526040909120610818600184613172565b8154811061082857610828613189565b9060005260206000209060020201600101549250925050915091565b60015460009081906001600160a01b0316331461087c5760405162461bcd60e51b81526004016108739061319f565b60405180910390fd5b6001600160a01b0384166000908152600b6020526040812054906108a08242613172565b600a546001600160a01b0388166000908152600c6020908152604080832080548251818502810185019093528083529596509394929390929091849084015b82821015610925578382906000526020600020906002020160405180604001604052908160008201548152602001600182015481525050815260200190600101906108df565b505082519293505050828411156109e55760006109438684846128e1565b9050600068056bc75e2d63100000610963671bc16d674ec80000846131cd565b61096d91906131ec565b90506109798183613172565b9150816109906001600160a01b038e168d83612b20565b6109a05761099e8d8c611a6a565b505b82600560008282546109b29190613172565b90915550506001600160a01b038c166000908152600b60205260409020429055985060019750610aee9650505050505050565b6000600a546301e1338068056bc75e2d6310000060065486600187610a0a9190613172565b81518110610a1a57610a1a613189565b602002602001015160000151610a3091906131cd565b610a3a91906131ec565b610a4491906131ec565b610a4e91906131cd565b9050600068056bc75e2d63100000610a6e671bc16d674ec80000846131cd565b610a7891906131ec565b9050610a848183613172565b9150610a9a6001600160a01b038d168c84612b20565b610aaa57610aa88c8b611a6a565b505b8160056000828254610abc9190613172565b9091555050506001600160a01b038a166000908152600b60205260409020429055965060019550610aee945050505050565b935093915050565b6001546000906001600160a01b03163314610b235760405162461bcd60e51b81526004016108739061319f565b610b386001600160a01b038516843085612b90565b508160026000828254610b4b919061320e565b9091555060019150505b9392505050565b60118181548110610b6c57600080fd5b6000918252602090912001546001600160a01b0316905081565b6001546000906001600160a01b03163314610bb35760405162461bcd60e51b81526004016108739061319f565b60008281526010602052604090205442118015610be2575060008281526010602052604090206001015460ff16155b8015610bfb575060008281526010602052604090205415155b610c175760405162461bcd60e51b815260040161087390613226565b60008281526010602052604081206001908101805460ff1916909117905560028054849290610c47908490613172565b90915550610c6190506001600160a01b0385168484612b20565b506001949350505050565b6000806013805480602002602001604051908101604052809291908181526020016000905b82821015610cd757838290600052602060002090600202016040518060400160405290816000820154815260200160018201548152505081526020019060010190610c91565b50508251929350600091505081610cf15750600254610d29565b82610cfd600184613172565b81518110610d0d57610d0d613189565b602002602001015160000151600254610d26919061320e565b90505b600068056bc75e2d63100000610d47678ac7230489e80000846131cd565b610d5191906131ec565b9050610d5d8183613172565b94505050505090565b6001546000906001600160a01b03163314610d935760405162461bcd60e51b81526004016108739061319f565b600a54610da0904261320e565b60008381526010602052604090209081556001908101805460ff1916905590505b919050565b600054600160a81b900460ff1615808015610dee57506000546001600160a01b90910460ff16105b80610e0f5750303b158015610e0f5750600054600160a01b900460ff166001145b610e725760405162461bcd60e51b815260206004820152602e60248201527f496e697469616c697a61626c653a20636f6e747261637420697320616c72656160448201526d191e481a5b9a5d1a585b1a5e995960921b6064820152608401610873565b6000805460ff60a01b1916600160a01b1790558015610e9f576000805460ff60a81b1916600160a81b1790555b600180546001600160a01b0319166001600160a01b0384161790558015610f02576000805460ff60a81b19169055604051600181527f7f26b83ff96e1f2b6a682f133852f6798a09c465da95921460cefb38474024989060200160405180910390a15b5050565b6001546001600160a01b03163314610f305760405162461bcd60e51b81526004016108739061319f565b600a54610f3d904261320e565b6000918252600e6020526040909120908155600101805460ff19169055565b6001546000906001600160a01b03163314610f895760405162461bcd60e51b81526004016108739061319f565b600454610fa2906001600160a01b038516908490612b20565b50506004805460009091555b92915050565b6001546000906001600160a01b03163314610fe15760405162461bcd60e51b81526004016108739061319f565b600654151580610ff8575060145460ff1615156001145b15610b55576001600160a01b0383166000908152600d602090815260408083208584529091529020544211801561105657506001600160a01b0383166000908152600d6020908152604080832085845290915290206001015460ff16155b801561108457506001600160a01b0383166000908152600d6020908152604080832085845290915290205415155b6110a05760405162461bcd60e51b815260040161087390613226565b6001600160a01b0383166000818152600d6020908152604080832086845282528083206001908101805460ff191682179055938352600c90915281205490916110e891613172565b9050611107604051806040016040528060008152602001600081525090565b426020808301919091526001600160a01b0386166000908152600c9091526040902080548591908490811061113e5761113e613189565b90600052602060002090600202016000015461115a9190613172565b81526011805460408051602080840282018101909252828152600093909290918301828280156111b357602002820191906000526020600020905b81546001600160a01b03168152600190910190602001808311611195575b5050505050905081600001516000141561130357805160005b8181101561130057876001600160a01b03168382815181106111f0576111f0613189565b60200260200101516001600160a01b031614156112f857600083611215600185613172565b8151811061122557611225613189565b6020026020010151905088601160018561123f9190613172565b8154811061124f5761124f613189565b9060005260206000200160006101000a8154816001600160a01b0302191690836001600160a01b03160217905550806011838154811061129157611291613189565b9060005260206000200160006101000a8154816001600160a01b0302191690836001600160a01b0316021790555060118054806112d0576112d0613267565b600082815260209020810160001990810180546001600160a01b031916905501905550611300565b6001016111cc565b50505b6001600160a01b0386166000908152600c60209081526040808320805460018181018355918552838520875160029092020190815586840151910155601380548251818502810185019093528083529192909190849084015b828210156113a25783829060005260206000209060020201604051806040016040529081600082015481526020016001820154815250508152602001906001019061135c565b5050505090506000600182516113b89190613172565b90506113d7604051806040016040528060008152602001600081525090565b878383815181106113ea576113ea613189565b6020026020010151600001516114009190613172565b8152426020820190815260138054600181018255600091909152825160008051602061335183398151915260029092029182015590516000805160206133718339815191529091015561145d6001600160a01b038b168a8a612b20565b5060019650505050505050610b55565b611475612bcb565b61147f6000612c25565b565b6001546000906001600160a01b031633146114ae5760405162461bcd60e51b81526004016108739061319f565b60006013805480602002602001604051908101604052809291908181526020016000905b82821015611518578382906000526020600020906002020160405180604001604052908160008201548152602001600182015481525050815260200190600101906114d2565b50505050905060006001825161152e9190613172565b90506000601180548060200260200160405190810160405280929190818152602001828054801561158857602002820191906000526020600020905b81546001600160a01b0316815260019091019060200180831161156a575b50505050509050600081519050858484815181106115a8576115a8613189565b6020026020010151600001511061190057858484815181106115cc576115cc613189565b60200260200101516000018181516115e49190613172565b9052506040805180820190915260008152426020820152845185908590811061160f5761160f613189565b6020908102919091010151518152845185908590811061163157611631613189565b6020026020010151600001516000141561173f5760005b828110156116e357604080518082019091526000808252426020830152855186908490811061167957611679613189565b6020908102919091018101516001600160a01b0381166000908152600c8352604081208054600181810183559183529184902086516002909302019182559285015192019190915590506116cf8d8c8e8d612c75565b505050806116dc9061327d565b9050611648565b50601380546001810182556000918252825160008051602061335183398151915260029092029182015560208301516000805160206133718339815191529091015561173190601190612fb8565b600195505050505050611a62565b600085858151811061175357611753613189565b6020026020010151600001518861176a91906131ec565b905060005b838110156118a157600085828151811061178b5761178b613189565b6020908102919091018101516001600160a01b0381166000908152600c90925260408220549092506117bf90600190613172565b6001600160a01b0383166000908152600c6020526040812080549293509091839081106117ee576117ee613189565b906000526020600020906002020160000154905061181f604051806040016040528060008152602001600081525090565b42602082015268056bc75e2d6310000061183987846131cd565b61184391906131ec565b61184d9083613172565b81526001600160a01b039093166000908152600c6020908152604082208054600181810183559184529282902086516002909402019283559401519301929092555061189a90508161327d565b905061176f565b506013805460018101825560009190915282516000805160206133518339815191526002909202918201556020830151600080516020613371833981519152909101556118f08b8a8c8b612c75565b5060019650505050505050611a62565b60005b8181101561198d57604080518082019091526000808252426020830152845185908490811061193457611934613189565b6020908102919091018101516001600160a01b03166000908152600c8252604081208054600181810183559183529183902085516002909302019182559390910151920191909155506119868161327d565b9050611903565b5061199a60116000612fb8565b60008484815181106119ae576119ae613189565b602002602001015160000151876119c59190613172565b905080600260008282546119d99190613172565b909155505060408051808201909152600081524260208201528551869086908110611a0657611a06613189565b60209081029190910181015151825260138054600181018255600091909152825160008051602061335183398151915260029092029182015590820151600080516020613371833981519152909101556118f08b8a8c8b612c75565b949350505050565b6001546000906001600160a01b0316331480611a8557503330145b611ad15760405162461bcd60e51b815260206004820152601c60248201527f4f6e6c79206d616e61676572206f722073656c6620616c6c6f776564000000006044820152606401610873565b60006013805480602002602001604051908101604052809291908181526020016000905b82821015611b3b57838290600052602060002090600202016040518060400160405290816000820154815260200160018201548152505081526020019060010190611af5565b505050509050600060018251611b519190613172565b600854600654919250906000611b6982858588612ce5565b9050611b806001600160a01b038916883084612b90565b611c32576040805180820190915260006020820152428152611ba06126d1565b602082019081526012805460018101825560009190915282517fbb8a6a4669ba250d26cd7a459eca9d215f8307e33aebe50379bc5a3617ec344460029092029182015590517fbb8a6a4669ba250d26cd7a459eca9d215f8307e33aebe50379bc5a3617ec344590910155611c126126d1565b60065550506014805460ff191660011790555060009350610fae92505050565b600068056bc75e2d63100000611c50671bc16d674ec80000846131cd565b611c5a91906131ec565b90508060046000828254611c6e919061320e565b925050819055508160056000828254611c87919061320e565b90915550504260085550506014805460ff191690555060019695505050505050565b600c6020528160005260406000208181548110611cc557600080fd5b600091825260209091206002909102018054600190910154909250905082565b60138181548110611cf557600080fd5b60009182526020909120600290910201805460019091015490915082565b6001546000906001600160a01b03163314611d405760405162461bcd60e51b81526004016108739061319f565b60006013805480602002602001604051908101604052809291908181526020016000905b82821015611daa57838290600052602060002090600202016040518060400160405290816000820154815260200160018201548152505081526020019060010190611d64565b50508251929350505080611e0a576040805180820190915260008082526020820181815260138054600181018255925291516000805160206133518339815191526002909202918201559051600080516020613371833981519152909101555b601354600090611e1c90600190613172565b90506007548560138381548110611e3557611e35613189565b906000526020600020906002020160000154611e51919061320e565b1115611e9f5760405162461bcd60e51b815260206004820152601960248201527f5374616b696e6720506f6f6c20616c72656164792066756c6c000000000000006044820152606401610873565b6001600160a01b0386166000908152600c602052604090205480611f0957604080518082018252600080825260208083018281526001600160a01b038c168352600c8252938220805460018082018355918452919092209251600290910290920191825591519101555b6001600160a01b0387166000908152600c6020526040812054611f2e90600190613172565b6001600160a01b0389166000908152600c6020526040902080549192509082908110611f5c57611f5c613189565b90600052602060002090600202016000015460001415611fc257601180546001810182556000919091527f31ecc21a745e3968a04e9570e4425bc18fa8019c68028196b546d1669c200c680180546001600160a01b0319166001600160a01b038a161790555b6040805180820182526000808252426020808401919091526001600160a01b038c168252600c90529190912080548991908490811061200357612003613189565b90600052602060002090600202016000015461201f919061320e565b815282612077576001600160a01b0389166000908152600c6020526040902080548291908490811061205357612053613189565b600091825260209182902083516002909202019081559101516001909101556120b4565b6001600160a01b0389166000908152600c602090815260408220805460018181018355918452928290208451600290940201928355908301519101555b604080518082019091526000808252602082015288601386815481106120dc576120dc613189565b9060005260206000209060020201600001546120f8919061320e565b81524260208201528561213d57806013868154811061211957612119613189565b60009182526020918290208351600290920201908155910151600190910155612180565b6013805460018101825560009190915281516000805160206133518339815191526002909202918201556020820151600080516020613371833981519152909101555b6121956001600160a01b038c168b308c612b90565b5060019b9a5050505050505050505050565b6001546000906001600160a01b031633146121d45760405162461bcd60e51b81526004016108739061319f565b6001600160a01b0383166000908152600c60205260408120546121f990600190613172565b6001600160a01b0385166000908152600c60205260409020805491925084918390811061222857612228613189565b906000526020600020906002020160000154101561227f5760405162461bcd60e51b8152602060048201526014602482015273496e73756669636369656e742062616c616e636560601b6044820152606401610873565b600a5461228c904261320e565b6001600160a01b03949094166000908152600d602090815260408083209583529490529290922092835550506001908101805460ff1916905590565b6001546000906001600160a01b031633146122f55760405162461bcd60e51b81526004016108739061319f565b60065415612380576000828152600f60205260409020544211801561232c57506000828152600f602052604090206001015460ff16155b801561234557506000828152600f602052604090205415155b6123615760405162461bcd60e51b815260040161087390613226565b6000828152600f602052604090206001908101805460ff191690911790555b600060055490506000806013805480602002602001604051908101604052809291908181526020016000905b828210156123f2578382906000526020600020906002020160405180604001604052908160008201548152602001600182015481525050815260200190600101906123ac565b505082519293505081159050612442578161240e600183613172565b8151811061241e5761241e613189565b60200260200101516000015160001461243d5761243b8888611a6a565b505b6124c7565b600a546301e1338068056bc75e2d631000008860075461246291906131cd565b61246c91906131ec565b61247691906131ec565b61248091906131cd565b9250828410156124c75760006124968585613172565b90506124ad6001600160a01b038a16893084612b90565b5080600560008282546124c0919061320e565b9091555050505b6009839055604080518082018252428152602080820189815260128054600181018255600091825284517fbb8a6a4669ba250d26cd7a459eca9d215f8307e33aebe50379bc5a3617ec344460029092029182015591517fbb8a6a4669ba250d26cd7a459eca9d215f8307e33aebe50379bc5a3617ec34459092019190915560068a90556011805485518185028101850190965280865293949193919290919083018282801561259f57602002820191906000526020600020905b81546001600160a01b03168152600190910190602001808311612581575b505050505090506000815111156126b7576000600182516125c09190613172565b905060005b818110156126b45760008382815181106125e1576125e1613189565b6020908102919091018101516001600160a01b0381166000908152600c909252604082205490925061261590600190613172565b9050612634604051806040016040528060008152602001600081525090565b6001600160a01b0383166000908152600c6020526040902080548390811061265e5761265e613189565b60009182526020808320600292830201548452428482019081526001600160a01b039096168352600c815260408320805460018181018355918552919093209351910290920191825592519083015550016125c5565b50505b50506014805460ff19169055506001979650505050505050565b600080600754600554610fae91906131ec565b6001546001600160a01b0316331461270e5760405162461bcd60e51b81526004016108739061319f565b60075415612799576000818152600e60205260409020544211801561274557506000818152600e602052604090206001015460ff16155b801561275e57506000818152600e602052604090205415155b61277a5760405162461bcd60e51b815260040161087390613226565b6000818152600e602052604090206001908101805460ff191690911790555b600755565b60128181548110611cf557600080fd5b6000806013805480602002602001604051908101604052809291908181526020016000905b82821015612819578382906000526020600020906002020160405180604001604052908160008201548152602001600182015481525050815260200190600101906127d3565b505082519293506000915050816128335750600254610b55565b8261283f600184613172565b8151811061284f5761284f613189565b602002602001015160000151600254611a62919061320e565b612870612bcb565b6001600160a01b0381166128d55760405162461bcd60e51b815260206004820152602660248201527f4f776e61626c653a206e6577206f776e657220697320746865207a65726f206160448201526564647265737360d01b6064820152608401610873565b6128de81612c25565b50565b6012546000908180806128f5600185613172565b90505b8061294757876012828154811061291157612911613189565b90600052602060002090600202016000015410156129375761293481600161320e565b92505b61294081613298565b90506128f8565b50815b83811015612b155760006012828154811061296757612967613189565b600091825260208220600290910201549150601261298684600161320e565b8154811061299657612996613189565b906000526020600020906002020160000154600014156129b657426129e6565b60126129c384600161320e565b815481106129d3576129d3613189565b9060005260206000209060020201600001545b905060006129f48383613172565b90506000805b8a811015612a8b57848c8281518110612a1557612a15613189565b602002602001015160200151118015612a4a5750838c8281518110612a3c57612a3c613189565b602002602001015160200151105b15612a7b578b8181518110612a6157612a61613189565b60200260200101516000015182612a78919061320e565b91505b612a848161327d565b90506129fa565b50816301e1338068056bc75e2d631000006012612aa989600161320e565b81548110612ab957612ab9613189565b90600052602060002090600202016001015484612ad691906131cd565b612ae091906131ec565b612aea91906131ec565b612af491906131cd565b612afe908761320e565b95505050505080612b0e9061327d565b905061294a565b509695505050505050565b6040516001600160a01b038316602482015260448101829052600090612b8690859063a9059cbb60e01b906064015b60408051601f198184030181529190526020810180516001600160e01b03166001600160e01b031990931692909217909152612dc1565b5060019392505050565b6040516001600160a01b0380851660248301528316604482015260648101829052600090610c619086906323b872dd60e01b90608401612b4f565b6000546001600160a01b0316331461147f5760405162461bcd60e51b815260206004820181905260248201527f4f776e61626c653a2063616c6c6572206973206e6f7420746865206f776e65726044820152606401610873565b600080546001600160a01b038381166001600160a01b0319831681178455604051919092169283917f8be0079c531659141344cd1fd0a4f28419497f9722a3daafe3b4186f6b6457e09190a35050565b60008068056bc75e2d63100000612c94678ac7230489e80000856131cd565b612c9e91906131ec565b90506000612cac8285613172565b9050612cc26001600160a01b0388168783612b20565b50612cd76001600160a01b0388168684612b20565b506001979650505050505050565b600080845b8015612db75784848281518110612d0357612d03613189565b6020026020010151602001511115612da757600085858381518110612d2a57612d2a613189565b602002602001015160200151612d409190613172565b9050806301e1338068056bc75e2d631000008a888681518110612d6557612d65613189565b602002602001015160000151612d7b91906131cd565b612d8591906131ec565b612d8f91906131ec565b612d9991906131cd565b612da3908461320e565b9250505b612db081613298565b9050612cea565b5095945050505050565b6000612e16826040518060400160405280602081526020017f5361666545524332303a206c6f772d6c6576656c2063616c6c206661696c6564815250856001600160a01b0316612e989092919063ffffffff16565b805190915015612e935780806020019051810190612e3491906132af565b612e935760405162461bcd60e51b815260206004820152602a60248201527f5361666545524332303a204552433230206f7065726174696f6e20646964206e6044820152691bdd081cdd58d8d9595960b21b6064820152608401610873565b505050565b6060611a62848460008585600080866001600160a01b03168587604051612ebf9190613301565b60006040518083038185875af1925050503d8060008114612efc576040519150601f19603f3d011682016040523d82523d6000602084013e612f01565b606091505b5091509150612f1287838387612f1d565b979650505050505050565b60608315612f89578251612f82576001600160a01b0385163b612f825760405162461bcd60e51b815260206004820152601d60248201527f416464726573733a2063616c6c20746f206e6f6e2d636f6e74726163740000006044820152606401610873565b5081611a62565b611a628383815115612f9e5781518083602001fd5b8060405162461bcd60e51b8152600401610873919061331d565b50805460008255906000526020600020908101906128de91905b80821115612fe65760008155600101612fd2565b5090565b80356001600160a01b0381168114610dc157600080fd5b60006020828403121561301357600080fd5b610b5582612fea565b60008060006060848603121561303157600080fd5b61303a84612fea565b925061304860208501612fea565b915061305660408501612fea565b90509250925092565b60008060006060848603121561307457600080fd5b61307d84612fea565b925061308b60208501612fea565b9150604084013590509250925092565b6000602082840312156130ad57600080fd5b5035919050565b600080604083850312156130c757600080fd5b6130d083612fea565b91506130de60208401612fea565b90509250929050565b600080604083850312156130fa57600080fd5b61310383612fea565b946020939093013593505050565b6000806000806080858703121561312757600080fd5b61313085612fea565b935061313e60208601612fea565b925061314c60408601612fea565b9396929550929360600135925050565b634e487b7160e01b600052601160045260246000fd5b6000828210156131845761318461315c565b500390565b634e487b7160e01b600052603260045260246000fd5b60208082526014908201527313db9b1e481b585b9859d95c88185b1b1bddd95960621b604082015260600190565b60008160001904831182151516156131e7576131e761315c565b500290565b60008261320957634e487b7160e01b600052601260045260246000fd5b500490565b600082198211156132215761322161315c565b500190565b60208082526021908201527f54696d656c6f636b206e6f7420736574206f72206e6f7420636f6d706c6574656040820152601960fa1b606082015260800190565b634e487b7160e01b600052603160045260246000fd5b60006000198214156132915761329161315c565b5060010190565b6000816132a7576132a761315c565b506000190190565b6000602082840312156132c157600080fd5b81518015158114610b5557600080fd5b60005b838110156132ec5781810151838201526020016132d4565b838111156132fb576000848401525b50505050565b600082516133138184602087016132d1565b9190910192915050565b602081526000825180602084015261333c8160408501602087016132d1565b601f01601f1916919091016040019291505056fe66de8ffda797e3de9c05e8fc57b3bf0ec28a930d40b0d285d93c06501cf6a09066de8ffda797e3de9c05e8fc57b3bf0ec28a930d40b0d285d93c06501cf6a091a264697066735822122009b4f20b69732c0ba2d7b1038a71e59727b6b130fb862cc5a46686ad0972c21164736f6c634300080a0033",
    "linkReferences": {}
  },
  "methodIdentifiers": {
    "APYTimelock(uint256)": "b404baa1",
    "APYdropped()": "3a5b0172",
    "APYrecords(uint256)": "ddaaae03",
    "BOUNTY_COMMISSION()": "c9e66d41",
    "DENOMINATOR()": "918f8674",
    "PREMIUM_COMMISSION()": "bb862785",
    "VERSION()": "ffa1ad74",
    "YEAR()": "83914540",
    "billPremium(address,address)": "8aa82e82",
    "bountyDeposit(address,address,uint256)": "3147096d",
    "claimPremium(address,address,address)": "3065f450",
    "collectSaloonPremiumFees(address,address)": "5121ac9d",
    "desiredAPY()": "84dc10b4",
    "initializeImplementation(address)": "4b8e0d37",
    "lastClaimed(address)": "013eba92",
    "lastTimePaid()": "1104ec25",
    "manager()": "481c6a75",
    "owner()": "8da5cb5b",
    "payBounty(address,address,address,uint256)": "73927c11",
    "poolCap()": "b954dc57",
    "poolCapTimelock(uint256)": "ed6ea164",
    "poolPeriod()": "45042dec",
    "premiumBalance()": "44ebc03d",
    "projectDeposit()": "72d26951",
    "projectDepositWithdrawal(address,address,uint256)": "419b7bd7",
    "renounceOwnership()": "715018a6",
    "requiredPremiumBalancePerPeriod()": "4c3bdee0",
    "saloonBountyCommission()": "a4bf70bd",
    "saloonPremiumFees()": "3d850fb2",
    "scheduleAPYChange(uint256)": "503cb917",
    "schedulePoolCapChange(uint256)": "d26c90a9",
    "scheduleUnstake(address,uint256)": "c790ef82",
    "scheduleprojectDepositWithdrawal(uint256)": "4b5df6cc",
    "setDesiredAPY(address,address,uint256)": "cc12c311",
    "setPoolCap(uint256)": "d835f535",
    "stake(address,address,uint256)": "bf6eac2f",
    "staker(address,uint256)": "9e4bfaa5",
    "stakerList(uint256)": "348e50c6",
    "stakerTimelock(address,uint256)": "6b01eab3",
    "stakersDeposit(uint256)": "a194c3b6",
    "transferOwnership(address)": "f2fde38b",
    "unstake(address,address,uint256)": "60829f8a",
    "viewBountyBalance()": "e45080e6",
    "viewDesiredAPY()": "78eb46fd",
    "viewHackerPayout()": "4a94bcb3",
    "viewPoolCap()": "ff45d4c0",
    "viewPremiumBalance()": "20d83086",
    "viewProjecDeposit()": "383639b3",
    "viewRequirePremiumBalance()": "d084b03a",
    "viewStakersDeposit()": "16e17b8d",
    "viewUserStakingBalance(address)": "1a89cabd",
    "viewcurrentAPY()": "d5cb8669",
    "withdrawalTimelock(uint256)": "7a5001e7"
  },
  "id": 29
}