{
  "abi": [
    {
      "anonymous": false,
      "inputs": [
        {
          "indexed": false,
          "internalType": "uint8",
          "name": "version",
          "type": "uint8"
        }
      ],
      "name": "Initialized",
      "type": "event"
    },
    {
      "anonymous": false,
      "inputs": [
        {
          "indexed": true,
          "internalType": "address",
          "name": "previousOwner",
          "type": "address"
        },
        {
          "indexed": true,
          "internalType": "address",
          "name": "newOwner",
          "type": "address"
        }
      ],
      "name": "OwnershipTransferred",
      "type": "event"
    },
    {
      "inputs": [],
      "name": "APYdropped",
      "outputs": [
        {
          "internalType": "bool",
          "name": "",
          "type": "bool"
        }
      ],
      "stateMutability": "view",
      "type": "function"
    },
    {
      "inputs": [
        {
          "internalType": "uint256",
          "name": "",
          "type": "uint256"
        }
      ],
      "name": "APYrecords",
      "outputs": [
        {
          "internalType": "uint256",
          "name": "timeStamp",
          "type": "uint256"
        },
        {
          "internalType": "uint256",
          "name": "periodAPY",
          "type": "uint256"
        }
      ],
      "stateMutability": "view",
      "type": "function"
    },
    {
      "inputs": [],
      "name": "BOUNTY_COMMISSION",
      "outputs": [
        {
          "internalType": "uint256",
          "name": "",
          "type": "uint256"
        }
      ],
      "stateMutability": "view",
      "type": "function"
    },
    {
      "inputs": [],
      "name": "DENOMINATOR",
      "outputs": [
        {
          "internalType": "uint256",
          "name": "",
          "type": "uint256"
        }
      ],
      "stateMutability": "view",
      "type": "function"
    },
    {
      "inputs": [],
      "name": "PREMIUM_COMMISSION",
      "outputs": [
        {
          "internalType": "uint256",
          "name": "",
          "type": "uint256"
        }
      ],
      "stateMutability": "view",
      "type": "function"
    },
    {
      "inputs": [],
      "name": "VERSION",
      "outputs": [
        {
          "internalType": "uint256",
          "name": "",
          "type": "uint256"
        }
      ],
      "stateMutability": "view",
      "type": "function"
    },
    {
      "inputs": [],
      "name": "YEAR",
      "outputs": [
        {
          "internalType": "uint256",
          "name": "",
          "type": "uint256"
        }
      ],
      "stateMutability": "view",
      "type": "function"
    },
    {
      "inputs": [
        {
          "internalType": "address",
          "name": "_staker",
          "type": "address"
        },
        {
          "internalType": "uint256",
          "name": "_amount",
          "type": "uint256"
        }
      ],
      "name": "askForUnstake",
      "outputs": [
        {
          "internalType": "bool",
          "name": "",
          "type": "bool"
        }
      ],
      "stateMutability": "nonpayable",
      "type": "function"
    },
    {
      "inputs": [
        {
          "internalType": "address",
          "name": "_token",
          "type": "address"
        },
        {
          "internalType": "address",
          "name": "_projectWallet",
          "type": "address"
        }
      ],
      "name": "billFortnightlyPremium",
      "outputs": [
        {
          "internalType": "bool",
          "name": "",
          "type": "bool"
        }
      ],
      "stateMutability": "nonpayable",
      "type": "function"
    },
    {
      "inputs": [
        {
          "internalType": "address",
          "name": "_token",
          "type": "address"
        },
        {
          "internalType": "address",
          "name": "_projectWallet",
          "type": "address"
        },
        {
          "internalType": "uint256",
          "name": "_amount",
          "type": "uint256"
        }
      ],
      "name": "bountyDeposit",
      "outputs": [
        {
          "internalType": "bool",
          "name": "",
          "type": "bool"
        }
      ],
      "stateMutability": "nonpayable",
      "type": "function"
    },
    {
      "inputs": [
        {
          "internalType": "address",
          "name": "_token",
          "type": "address"
        },
        {
          "internalType": "address",
          "name": "_staker",
          "type": "address"
        },
        {
          "internalType": "address",
          "name": "_projectWallet",
          "type": "address"
        }
      ],
      "name": "claimPremium",
      "outputs": [
        {
          "internalType": "uint256",
          "name": "",
          "type": "uint256"
        },
        {
          "internalType": "bool",
          "name": "",
          "type": "bool"
        }
      ],
      "stateMutability": "nonpayable",
      "type": "function"
    },
    {
      "inputs": [
        {
          "internalType": "address",
          "name": "_token",
          "type": "address"
        },
        {
          "internalType": "address",
          "name": "_saloonWallet",
          "type": "address"
        }
      ],
      "name": "collectSaloonPremiumFees",
      "outputs": [
        {
          "internalType": "uint256",
          "name": "",
          "type": "uint256"
        }
      ],
      "stateMutability": "nonpayable",
      "type": "function"
    },
    {
      "inputs": [],
      "name": "desiredAPY",
      "outputs": [
        {
          "internalType": "uint256",
          "name": "",
          "type": "uint256"
        }
      ],
      "stateMutability": "view",
      "type": "function"
    },
    {
      "inputs": [
        {
          "internalType": "address",
          "name": "_manager",
          "type": "address"
        }
      ],
      "name": "initializeImplementation",
      "outputs": [],
      "stateMutability": "nonpayable",
      "type": "function"
    },
    {
      "inputs": [
        {
          "internalType": "address",
          "name": "",
          "type": "address"
        }
      ],
      "name": "lastClaimed",
      "outputs": [
        {
          "internalType": "uint256",
          "name": "",
          "type": "uint256"
        }
      ],
      "stateMutability": "view",
      "type": "function"
    },
    {
      "inputs": [],
      "name": "lastTimePaid",
      "outputs": [
        {
          "internalType": "uint256",
          "name": "",
          "type": "uint256"
        }
      ],
      "stateMutability": "view",
      "type": "function"
    },
    {
      "inputs": [],
      "name": "manager",
      "outputs": [
        {
          "internalType": "address",
          "name": "",
          "type": "address"
        }
      ],
      "stateMutability": "view",
      "type": "function"
    },
    {
      "inputs": [],
      "name": "owner",
      "outputs": [
        {
          "internalType": "address",
          "name": "",
          "type": "address"
        }
      ],
      "stateMutability": "view",
      "type": "function"
    },
    {
      "inputs": [
        {
          "internalType": "address",
          "name": "_token",
          "type": "address"
        },
        {
          "internalType": "address",
          "name": "_saloonWallet",
          "type": "address"
        },
        {
          "internalType": "address",
          "name": "_hunter",
          "type": "address"
        },
        {
          "internalType": "uint256",
          "name": "_amount",
          "type": "uint256"
        }
      ],
      "name": "payBounty",
      "outputs": [
        {
          "internalType": "bool",
          "name": "",
          "type": "bool"
        }
      ],
      "stateMutability": "nonpayable",
      "type": "function"
    },
    {
      "inputs": [],
      "name": "poolCap",
      "outputs": [
        {
          "internalType": "uint256",
          "name": "",
          "type": "uint256"
        }
      ],
      "stateMutability": "view",
      "type": "function"
    },
    {
      "inputs": [],
      "name": "poolPeriod",
      "outputs": [
        {
          "internalType": "uint256",
          "name": "",
          "type": "uint256"
        }
      ],
      "stateMutability": "view",
      "type": "function"
    },
    {
      "inputs": [],
      "name": "premiumBalance",
      "outputs": [
        {
          "internalType": "uint256",
          "name": "",
          "type": "uint256"
        }
      ],
      "stateMutability": "view",
      "type": "function"
    },
    {
      "inputs": [],
      "name": "projectDeposit",
      "outputs": [
        {
          "internalType": "uint256",
          "name": "",
          "type": "uint256"
        }
      ],
      "stateMutability": "view",
      "type": "function"
    },
    {
      "inputs": [
        {
          "internalType": "address",
          "name": "_token",
          "type": "address"
        },
        {
          "internalType": "address",
          "name": "_projectWallet",
          "type": "address"
        },
        {
          "internalType": "uint256",
          "name": "_amount",
          "type": "uint256"
        }
      ],
      "name": "projectDepositWithdrawal",
      "outputs": [
        {
          "internalType": "bool",
          "name": "",
          "type": "bool"
        }
      ],
      "stateMutability": "nonpayable",
      "type": "function"
    },
    {
      "inputs": [
        {
          "internalType": "uint256",
          "name": "",
          "type": "uint256"
        }
      ],
      "name": "projectWithdrawalTimeLock",
      "outputs": [
        {
          "internalType": "uint256",
          "name": "",
          "type": "uint256"
        }
      ],
      "stateMutability": "view",
      "type": "function"
    },
    {
      "inputs": [],
      "name": "renounceOwnership",
      "outputs": [],
      "stateMutability": "nonpayable",
      "type": "function"
    },
    {
      "inputs": [],
      "name": "requiredPremiumBalancePerPeriod",
      "outputs": [
        {
          "internalType": "uint256",
          "name": "",
          "type": "uint256"
        }
      ],
      "stateMutability": "view",
      "type": "function"
    },
    {
      "inputs": [],
      "name": "saloonBountyCommission",
      "outputs": [
        {
          "internalType": "uint256",
          "name": "",
          "type": "uint256"
        }
      ],
      "stateMutability": "view",
      "type": "function"
    },
    {
      "inputs": [],
      "name": "saloonPremiumFees",
      "outputs": [
        {
          "internalType": "uint256",
          "name": "",
          "type": "uint256"
        }
      ],
      "stateMutability": "view",
      "type": "function"
    },
    {
      "inputs": [
        {
          "internalType": "uint256",
          "name": "_amount",
          "type": "uint256"
        }
      ],
      "name": "scheduleprojectDepositWithdrawal",
      "outputs": [],
      "stateMutability": "nonpayable",
      "type": "function"
    },
    {
      "inputs": [
        {
          "internalType": "address",
          "name": "_token",
          "type": "address"
        },
        {
          "internalType": "address",
          "name": "_projectWallet",
          "type": "address"
        },
        {
          "internalType": "uint256",
          "name": "_desiredAPY",
          "type": "uint256"
        }
      ],
      "name": "setDesiredAPY",
      "outputs": [
        {
          "internalType": "bool",
          "name": "",
          "type": "bool"
        }
      ],
      "stateMutability": "nonpayable",
      "type": "function"
    },
    {
      "inputs": [
        {
          "internalType": "uint256",
          "name": "_amount",
          "type": "uint256"
        }
      ],
      "name": "setPoolCap",
      "outputs": [],
      "stateMutability": "nonpayable",
      "type": "function"
    },
    {
      "inputs": [
        {
          "internalType": "address",
          "name": "_token",
          "type": "address"
        },
        {
          "internalType": "address",
          "name": "_staker",
          "type": "address"
        },
        {
          "internalType": "uint256",
          "name": "_amount",
          "type": "uint256"
        }
      ],
      "name": "stake",
      "outputs": [
        {
          "internalType": "bool",
          "name": "",
          "type": "bool"
        }
      ],
      "stateMutability": "nonpayable",
      "type": "function"
    },
    {
      "inputs": [
        {
          "internalType": "address",
          "name": "",
          "type": "address"
        },
        {
          "internalType": "uint256",
          "name": "",
          "type": "uint256"
        }
      ],
      "name": "staker",
      "outputs": [
        {
          "internalType": "uint256",
          "name": "stakerBalance",
          "type": "uint256"
        },
        {
          "internalType": "uint256",
          "name": "balanceTimeStamp",
          "type": "uint256"
        }
      ],
      "stateMutability": "view",
      "type": "function"
    },
    {
      "inputs": [
        {
          "internalType": "uint256",
          "name": "",
          "type": "uint256"
        }
      ],
      "name": "stakerList",
      "outputs": [
        {
          "internalType": "address",
          "name": "",
          "type": "address"
        }
      ],
      "stateMutability": "view",
      "type": "function"
    },
    {
      "inputs": [
        {
          "internalType": "address",
          "name": "",
          "type": "address"
        },
        {
          "internalType": "uint256",
          "name": "",
          "type": "uint256"
        }
      ],
      "name": "stakerTimelock",
      "outputs": [
        {
          "internalType": "uint256",
          "name": "",
          "type": "uint256"
        }
      ],
      "stateMutability": "view",
      "type": "function"
    },
    {
      "inputs": [],
      "name": "stakersDeposit",
      "outputs": [
        {
          "internalType": "uint256",
          "name": "",
          "type": "uint256"
        }
      ],
      "stateMutability": "view",
      "type": "function"
    },
    {
      "inputs": [
        {
          "internalType": "address",
          "name": "newOwner",
          "type": "address"
        }
      ],
      "name": "transferOwnership",
      "outputs": [],
      "stateMutability": "nonpayable",
      "type": "function"
    },
    {
      "inputs": [
        {
          "internalType": "address",
          "name": "_token",
          "type": "address"
        },
        {
          "internalType": "address",
          "name": "_staker",
          "type": "address"
        },
        {
          "internalType": "uint256",
          "name": "_amount",
          "type": "uint256"
        }
      ],
      "name": "unstake",
      "outputs": [
        {
          "internalType": "bool",
          "name": "",
          "type": "bool"
        }
      ],
      "stateMutability": "nonpayable",
      "type": "function"
    },
    {
      "inputs": [],
      "name": "viewBountyBalance",
      "outputs": [
        {
          "internalType": "uint256",
          "name": "",
          "type": "uint256"
        }
      ],
      "stateMutability": "view",
      "type": "function"
    },
    {
      "inputs": [],
      "name": "viewDesiredAPY",
      "outputs": [
        {
          "internalType": "uint256",
          "name": "",
          "type": "uint256"
        }
      ],
      "stateMutability": "view",
      "type": "function"
    },
    {
      "inputs": [],
      "name": "viewHackerPayout",
      "outputs": [
        {
          "internalType": "uint256",
          "name": "",
          "type": "uint256"
        }
      ],
      "stateMutability": "view",
      "type": "function"
    },
    {
      "inputs": [],
      "name": "viewPoolCap",
      "outputs": [
        {
          "internalType": "uint256",
          "name": "",
          "type": "uint256"
        }
      ],
      "stateMutability": "view",
      "type": "function"
    },
    {
      "inputs": [],
      "name": "viewPremiumBalance",
      "outputs": [
        {
          "internalType": "uint256",
          "name": "",
          "type": "uint256"
        }
      ],
      "stateMutability": "view",
      "type": "function"
    },
    {
      "inputs": [],
      "name": "viewProjecDeposit",
      "outputs": [
        {
          "internalType": "uint256",
          "name": "",
          "type": "uint256"
        }
      ],
      "stateMutability": "view",
      "type": "function"
    },
    {
      "inputs": [],
      "name": "viewRequirePremiumBalance",
      "outputs": [
        {
          "internalType": "uint256",
          "name": "",
          "type": "uint256"
        }
      ],
      "stateMutability": "view",
      "type": "function"
    },
    {
      "inputs": [],
      "name": "viewStakersDeposit",
      "outputs": [
        {
          "internalType": "uint256",
          "name": "",
          "type": "uint256"
        }
      ],
      "stateMutability": "view",
      "type": "function"
    },
    {
      "inputs": [
        {
          "internalType": "address",
          "name": "_staker",
          "type": "address"
        }
      ],
      "name": "viewUserStakingBalance",
      "outputs": [
        {
          "internalType": "uint256",
          "name": "",
          "type": "uint256"
        },
        {
          "internalType": "uint256",
          "name": "",
          "type": "uint256"
        }
      ],
      "stateMutability": "view",
      "type": "function"
    },
    {
      "inputs": [],
      "name": "viewcurrentAPY",
      "outputs": [
        {
          "internalType": "uint256",
          "name": "",
          "type": "uint256"
        }
      ],
      "stateMutability": "view",
      "type": "function"
    }
  ],
  "bytecode": {
    "object": "0x608060405262127500600b5534801561001757600080fd5b5061002133610026565b610076565b600080546001600160a01b038381166001600160a01b0319831681178455604051919092169283917f8be0079c531659141344cd1fd0a4f28419497f9722a3daafe3b4186f6b6457e09190a35050565b6126a9806100856000396000f3fe608060405234801561001057600080fd5b50600436106102bb5760003560e01c8063715018a611610182578063bb862785116100e9578063d835f535116100a2578063ee3acd581161007c578063ee3acd58146105c8578063f2fde38b146105e8578063ff45d4c0146105fb578063ffa1ad741461060357600080fd5b8063d835f5351461059a578063ddaaae03146105ad578063e45080e6146105c057600080fd5b8063bb86278514610546578063bf6eac2f14610555578063c9e66d4114610568578063cc12c31114610577578063d084b03a1461058a578063d5cb86691461059257600080fd5b80638da5cb5b1161013b5780638da5cb5b146104ed578063918f8674146104fe5780639e4bfaa51461050e578063a4bf70bd14610521578063b15ce20a1461052a578063b954dc571461053d57600080fd5b8063715018a6146104ad57806372d26951146104b557806373927c11146104be57806378eb46fd146104d157806383914540146104d957806384dc10b4146104e457600080fd5b80633f5f958c116102265780634b5df6cc116101df5780634b5df6cc1461042b5780634b8e0d37146104405780634c3bdee0146104535780635121ac9d1461045c57806360829f8a1461046f5780636b01eab31461048257600080fd5b80633f5f958c146103e2578063419b7bd7146103eb57806344ebc03d146103fe57806345042dec14610407578063481c6a75146104105780634a94bcb31461042357600080fd5b80633065f450116102785780633065f450146103575780633147096d1461037f578063348e50c614610392578063383639b3146103bd5780633a5b0172146103c55780633d850fb2146103d957600080fd5b8063013eba92146102c057806310775e74146102f35780631104ec251461031657806316e17b8d1461031f5780631a89cabd1461032757806320d830861461034f575b600080fd5b6102e06102ce366004612365565b600d6020526000908152604090205481565b6040519081526020015b60405180910390f35b610306610301366004612380565b61060b565b60405190151581526020016102ea565b6102e060095481565b6003546102e0565b61033a610335366004612365565b610a21565b604080519283526020830191909152016102ea565b6006546102e0565b61036a6103653660046123b3565b610ab8565b604080519283529015156020830152016102ea565b61030661038d3660046123f6565b610d61565b6103a56103a0366004612432565b610dc7565b6040516001600160a01b0390911681526020016102ea565b6002546102e0565b60015461030690600160a01b900460ff1681565b6102e060055481565b6102e060035481565b6103066103f93660046123f6565b610df1565b6102e060065481565b6102e0600b5481565b6001546103a5906001600160a01b031681565b6102e0610e9e565b61043e610439366004612432565b610eee565b005b61043e61044e366004612365565b610f0d565b6102e0600a5481565b6102e061046a366004612380565b61104d565b61030661047d3660046123f6565b6110a4565b6102e061049036600461244b565b601060209081526000928352604080842090915290825290205481565b61043e611447565b6102e060025481565b6103066104cc366004612475565b61145b565b6007546102e0565b6102e06301e1338081565b6102e060075481565b6000546001600160a01b03166103a5565b6102e068056bc75e2d6310000081565b61033a61051c36600461244b565b611791565b6102e060045481565b61030661053836600461244b565b6117cd565b6102e060085481565b6102e0671bc16d674ec8000081565b6103066105633660046123f6565b6118e1565b6102e067a688906bd8b0000081565b6103066105853660046123f6565b611afa565b600a546102e0565b6102e0611c4c565b61043e6105a8366004612432565b611c5f565b61033a6105bb366004612432565b611c8e565b6102e0611cbc565b6102e06105d6366004612432565b600c6020526000908152604090205481565b61043e6105f6366004612365565b611ccf565b6008546102e0565b6102e0600181565b6001546000906001600160a01b031633148061062657503330145b61064b5760405162461bcd60e51b8152600401610642906124c0565b60405180910390fd5b600654600a5460035481831015610a1357600954600b54600061066e8342612504565b905081811115610902576000816301e1338068056bc75e2d6310000060075488610698919061251b565b6106a2919061253a565b6106ac919061253a565b6106b6919061251b565b90506106cd6001600160a01b038b168a3084611d48565b6108875760408051808201909152600060208201524281526106ed611c4c565b602082019081526011805460018101825560009190915282517f31ecc21a745e3968a04e9570e4425bc18fa8019c68028196b546d1669c200c6860029092029182015590517f31ecc21a745e3968a04e9570e4425bc18fa8019c68028196b546d1669c200c699091015561075f611c4c565b6007819055506000836301e1338068056bc75e2d631000006007548a610785919061251b565b61078f919061253a565b610799919061253a565b6107a3919061251b565b9050600068056bc75e2d631000006107c3671bc16d674ec800008461251b565b6107cd919061253a565b905080600560008282546107e1919061255c565b9250508190555081600660008282546107fa919061255c565b90915550504260095560075460085460009188916301e133809168056bc75e2d6310000091610829919061251b565b610833919061253a565b61083d919061253a565b610847919061251b565b600a555061086290506001600160a01b038d168c3084611d48565b50506001805460ff60a01b1916600160a01b1781559850610a1b975050505050505050565b600068056bc75e2d631000006108a5671bc16d674ec800008461251b565b6108af919061253a565b905080600560008282546108c3919061255c565b9250508190555081600660008282546108dc919061255c565b90915550504260095550506001805460ff60a01b191681559650610a1b95505050505050565b6000826301e1338068056bc75e2d63100000600754600354610924919061251b565b61092e919061253a565b610938919061253a565b610942919061251b565b90506109596001600160a01b038b168a3084611d48565b610887576040805180820190915260006020820152428152610979611c4c565b602082019081526011805460018101825560009190915282517f31ecc21a745e3968a04e9570e4425bc18fa8019c68028196b546d1669c200c6860029092029182015590517f31ecc21a745e3968a04e9570e4425bc18fa8019c68028196b546d1669c200c69909101556109eb611c4c565b6007819055506000846301e1338068056bc75e2d63100000600754600354610785919061251b565b600093505050505b92915050565b6001600160a01b0381166000908152600e6020526040812080548291610a48600183612504565b81548110610a5857610a58612574565b600091825260208083206002909202909101546001600160a01b0387168352600e9091526040909120610a8c600184612504565b81548110610a9c57610a9c612574565b9060005260206000209060020201600101549250925050915091565b60015460009081906001600160a01b03163314610ae75760405162461bcd60e51b8152600401610642906124c0565b6001600160a01b0384166000908152600d602052604081205490610b0b8242612504565b600b546001600160a01b0388166000908152600e6020908152604080832080548251818502810185019093528083529596509394929390929091849084015b82821015610b9057838290600052602060002090600202016040518060400160405290816000820154815260200160018201548152505081526020019060010190610b4a565b50508251929350505082841115610c50576000610bae868484611db6565b9050600068056bc75e2d63100000610bce671bc16d674ec800008461251b565b610bd8919061253a565b9050610be48183612504565b915081610bfb6001600160a01b038e168d83611fc9565b610c0b57610c098d8c61060b565b505b8260066000828254610c1d9190612504565b90915550506001600160a01b038c166000908152600d60205260409020429055985060019750610d599650505050505050565b6000600b546301e1338068056bc75e2d6310000060075486600187610c759190612504565b81518110610c8557610c85612574565b602002602001015160000151610c9b919061251b565b610ca5919061253a565b610caf919061253a565b610cb9919061251b565b9050600068056bc75e2d63100000610cd9671bc16d674ec800008461251b565b610ce3919061253a565b9050610cef8183612504565b9150610d056001600160a01b038d168c84611fc9565b610d1557610d138c8b61060b565b505b8160066000828254610d279190612504565b9091555050506001600160a01b038a166000908152600d60205260409020429055965060019550610d59945050505050565b935093915050565b6001546000906001600160a01b03163314610d8e5760405162461bcd60e51b8152600401610642906124c0565b610da36001600160a01b038516843085611d48565b508160026000828254610db6919061255c565b9091555060019150505b9392505050565b600f8181548110610dd757600080fd5b6000918252602090912001546001600160a01b0316905081565b6000818152600c602052604081205442118015610e1b57506000828152600c602052604090205415155b610e675760405162461bcd60e51b815260206004820181905260248201527f54696d656c6f636b206e6f742066696e6973686564206f7220737461727465646044820152606401610642565b8160026000828254610e799190612504565b90915550610e9390506001600160a01b0385168484611fc9565b506001949350505050565b600080600354600254610eb1919061255c565b9050600068056bc75e2d63100000610ed167a688906bd8b000008461251b565b610edb919061253a565b9050610ee78183612504565b9250505090565b600b54610efb904261255c565b6000918252600c602052604090912055565b600054600160a81b900460ff1615808015610f3557506000546001600160a01b90910460ff16105b80610f565750303b158015610f565750600054600160a01b900460ff166001145b610fb95760405162461bcd60e51b815260206004820152602e60248201527f496e697469616c697a61626c653a20636f6e747261637420697320616c72656160448201526d191e481a5b9a5d1a585b1a5e995960921b6064820152608401610642565b6000805460ff60a01b1916600160a01b1790558015610fe6576000805460ff60a81b1916600160a81b1790555b600180546001600160a01b0319166001600160a01b0384161790558015611049576000805460ff60a81b19169055604051600181527f7f26b83ff96e1f2b6a682f133852f6798a09c465da95921460cefb38474024989060200160405180910390a15b5050565b6001546000906001600160a01b0316331461107a5760405162461bcd60e51b8152600401610642906124c0565b600554611093906001600160a01b038516908490611fc9565b505060058054600090915592915050565b6001546000906001600160a01b031633146110d15760405162461bcd60e51b8152600401610642906124c0565b6007541515806110ee575060018054600160a01b900460ff161515145b15610dc0576001600160a01b03831660009081526010602090815260408083208584529091529020544211801561114757506001600160a01b038316600090815260106020908152604080832085845290915290205415155b6111935760405162461bcd60e51b815260206004820181905260248201527f54696d656c6f636b206e6f742066696e6973686564206f7220737461727465646044820152606401610642565b6001600160a01b0383166000908152600e60205260408120546111b890600190612504565b90506111d7604051806040016040528060008152602001600081525090565b426020808301919091526001600160a01b0386166000908152600e9091526040902080548591908490811061120e5761120e612574565b90600052602060002090600202016000015461122a9190612504565b8152600f8054604080516020808402820181019092528281526000939092909183018282801561128357602002820191906000526020600020905b81546001600160a01b03168152600190910190602001808311611265575b505050505090508160000151600014156113d357805160005b818110156113d057876001600160a01b03168382815181106112c0576112c0612574565b60200260200101516001600160a01b031614156113c8576000836112e5600185612504565b815181106112f5576112f5612574565b6020026020010151905088600f60018561130f9190612504565b8154811061131f5761131f612574565b9060005260206000200160006101000a8154816001600160a01b0302191690836001600160a01b0316021790555080600f838154811061136157611361612574565b9060005260206000200160006101000a8154816001600160a01b0302191690836001600160a01b03160217905550600f8054806113a0576113a061258a565b600082815260209020810160001990810180546001600160a01b0319169055019055506113d0565b60010161129c565b50505b6001600160a01b0386166000908152600e60209081526040822080546001818101835591845282842086516002909202019081559185015191015560038054879290611420908490612504565b9091555061143a90506001600160a01b0388168787611fc9565b5060019350505050610dc0565b61144f612006565b6114596000612060565b565b6001546000906001600160a01b031633146114885760405162461bcd60e51b8152600401610642906124c0565b81600354106116b55781600360008282546114a39190612504565b9091555050600f54600354611555576000811561154857604080518082019091526000808252426020830152600f8054849081106114e3576114e3612574565b60009182526020808320909101546001600160a01b0316808352600e825260408320805460018181018355918552938390208651600290950201938455918501519290910191909155905061153a89888a896120b0565b506001945050505050611789565b50611555600f6000612317565b600060035484611565919061253a565b905060005b8281101561169c576000600f828154811061158757611587612574565b60009182526020808320909101546001600160a01b0316808352600e90915260408220549092506115ba90600190612504565b6001600160a01b0383166000908152600e6020526040812080549293509091839081106115e9576115e9612574565b906000526020600020906002020160000154905061161a604051806040016040528060008152602001600081525090565b42602082015268056bc75e2d63100000611634878461251b565b61163e919061253a565b6116489083612504565b81526001600160a01b039093166000908152600e602090815260408220805460018181018355918452928290208651600290940201928355940151930192909255506116959050816125a0565b905061156a565b506116a9878688876120b0565b50600192505050611789565b600f5460005b8181101561174257604080518082019091526000808252426020830152600f8054849081106116ec576116ec612574565b60009182526020808320909101546001600160a01b03168252600e8152604082208054600181810183559184529282902085516002909402019283559301519201919091555061173b816125a0565b90506116bb565b5061174f600f6000612317565b60006003548461175f9190612504565b905080600260008282546117739190612504565b909155505060006003556116a9878688876120b0565b949350505050565b600e60205281600052604060002081815481106117ad57600080fd5b600091825260209091206002909102018054600190910154909250905082565b6001546000906001600160a01b031633146117fa5760405162461bcd60e51b8152600401610642906124c0565b6001600160a01b0383166000908152600e602052604081205461181f90600190612504565b6001600160a01b0385166000908152600e60205260409020805491925084918390811061184e5761184e612574565b90600052602060002090600202016000015410156118a55760405162461bcd60e51b8152602060048201526014602482015273496e73756669636369656e742062616c616e636560601b6044820152606401610642565b600b546118b2904261255c565b6001600160a01b0385166000908152601060209081526040808320878452909152902055506001905092915050565b6001546000906001600160a01b0316331461190e5760405162461bcd60e51b8152600401610642906124c0565b6008548260035461191f919061255c565b111561196d5760405162461bcd60e51b815260206004820152601960248201527f5374616b696e6720506f6f6c20616c72656164792066756c6c000000000000006044820152606401610642565b6001600160a01b0383166000908152600e602052604081205461199290600190612504565b6001600160a01b0385166000908152600e60205260409020805491925090829081106119c0576119c0612574565b90600052602060002090600202016000015460001415611a2657600f80546001810182556000919091527f8d1108e10bcb7c27dddfc02ed9d693a074039d026cf4ea4240b40f7d581ac8020180546001600160a01b0319166001600160a01b0386161790555b6040805180820182526000808252426020808401919091526001600160a01b0388168252600e905291909120805485919084908110611a6757611a67612574565b906000526020600020906002020160000154611a83919061255c565b81526001600160a01b0385166000908152600e60209081526040822080546001818101835591845282842085516002909202019081559184015191015560038054869290611ad290849061255c565b90915550611aed90506001600160a01b038716863087611d48565b5060019695505050505050565b6001546000906001600160a01b03163314611b275760405162461bcd60e51b8152600401610642906124c0565b600060065490506000600b546301e1338068056bc75e2d6310000086600854611b50919061251b565b611b5a919061253a565b611b64919061253a565b611b6e919061251b565b905080821015611bb5576000611b848383612504565b9050611b9b6001600160a01b038816873084611d48565b508060066000828254611bae919061255c565b9091555050505b600a5550506040805180820190915242815260208101828152601180546001808201835560009290925292517f31ecc21a745e3968a04e9570e4425bc18fa8019c68028196b546d1669c200c6860029094029384015590517f31ecc21a745e3968a04e9570e4425bc18fa8019c68028196b546d1669c200c6990920191909155600791909155805460ff60a01b1916815592915050565b600080600854600654610a1b919061253a565b6001546001600160a01b03163314611c895760405162461bcd60e51b8152600401610642906124c0565b600855565b60118181548110611c9e57600080fd5b60009182526020909120600290910201805460019091015490915082565b600080600354600254610a1b919061255c565b611cd7612006565b6001600160a01b038116611d3c5760405162461bcd60e51b815260206004820152602660248201527f4f776e61626c653a206e6577206f776e657220697320746865207a65726f206160448201526564647265737360d01b6064820152608401610642565b611d4581612060565b50565b6040516001600160a01b0380851660248301528316604482015260648101829052600090610e939086906323b872dd60e01b906084015b60408051601f198184030181529190526020810180516001600160e01b03166001600160e01b031990931692909217909152612120565b601154600090818080611dca600185612504565b90505b80611e1c578760118281548110611de657611de6612574565b9060005260206000209060020201600001541015611e0c57611e0981600161255c565b92505b611e15816125bb565b9050611dcd565b50815b83811015611fbe57600060118281548110611e3c57611e3c612574565b6000918252602082206002909102015491506011611e5b84600161255c565b81548110611e6b57611e6b612574565b90600052602060002090600202016000015460001415611e8b5742611ebb565b6011611e9884600161255c565b81548110611ea857611ea8612574565b9060005260206000209060020201600001545b90506000611ec98383612504565b90506000805b8a811015611f6057848c8281518110611eea57611eea612574565b602002602001015160200151118015611f1f5750838c8281518110611f1157611f11612574565b602002602001015160200151105b15611f50578b8181518110611f3657611f36612574565b60200260200101516000015182611f4d919061255c565b91505b611f59816125a0565b9050611ecf565b50816301e1338068056bc75e2d6310000060075484611f7f919061251b565b611f89919061253a565b611f93919061253a565b611f9d919061251b565b611fa7908761255c565b95505050505080611fb7906125a0565b9050611e1f565b509695505050505050565b6040516001600160a01b038316602482015260448101829052600090611ffc90859063a9059cbb60e01b90606401611d7f565b5060019392505050565b6000546001600160a01b031633146114595760405162461bcd60e51b815260206004820181905260248201527f4f776e61626c653a2063616c6c6572206973206e6f7420746865206f776e65726044820152606401610642565b600080546001600160a01b038381166001600160a01b0319831681178455604051919092169283917f8be0079c531659141344cd1fd0a4f28419497f9722a3daafe3b4186f6b6457e09190a35050565b60008068056bc75e2d631000006120cf67a688906bd8b000008561251b565b6120d9919061253a565b905060006120e78285612504565b90506120fd6001600160a01b0388168783611fc9565b506121126001600160a01b0388168684611fc9565b506001979650505050505050565b6000612175826040518060400160405280602081526020017f5361666545524332303a206c6f772d6c6576656c2063616c6c206661696c6564815250856001600160a01b03166121f79092919063ffffffff16565b8051909150156121f2578080602001905181019061219391906125d2565b6121f25760405162461bcd60e51b815260206004820152602a60248201527f5361666545524332303a204552433230206f7065726174696f6e20646964206e6044820152691bdd081cdd58d8d9595960b21b6064820152608401610642565b505050565b6060611789848460008585600080866001600160a01b0316858760405161221e9190612624565b60006040518083038185875af1925050503d806000811461225b576040519150601f19603f3d011682016040523d82523d6000602084013e612260565b606091505b50915091506122718783838761227c565b979650505050505050565b606083156122e85782516122e1576001600160a01b0385163b6122e15760405162461bcd60e51b815260206004820152601d60248201527f416464726573733a2063616c6c20746f206e6f6e2d636f6e74726163740000006044820152606401610642565b5081611789565b61178983838151156122fd5781518083602001fd5b8060405162461bcd60e51b81526004016106429190612640565b5080546000825590600052602060002090810190611d4591905b808211156123455760008155600101612331565b5090565b80356001600160a01b038116811461236057600080fd5b919050565b60006020828403121561237757600080fd5b610dc082612349565b6000806040838503121561239357600080fd5b61239c83612349565b91506123aa60208401612349565b90509250929050565b6000806000606084860312156123c857600080fd5b6123d184612349565b92506123df60208501612349565b91506123ed60408501612349565b90509250925092565b60008060006060848603121561240b57600080fd5b61241484612349565b925061242260208501612349565b9150604084013590509250925092565b60006020828403121561244457600080fd5b5035919050565b6000806040838503121561245e57600080fd5b61246783612349565b946020939093013593505050565b6000806000806080858703121561248b57600080fd5b61249485612349565b93506124a260208601612349565b92506124b060408601612349565b9396929550929360600135925050565b60208082526014908201527313db9b1e481b585b9859d95c88185b1b1bddd95960621b604082015260600190565b634e487b7160e01b600052601160045260246000fd5b600082821015612516576125166124ee565b500390565b6000816000190483118215151615612535576125356124ee565b500290565b60008261255757634e487b7160e01b600052601260045260246000fd5b500490565b6000821982111561256f5761256f6124ee565b500190565b634e487b7160e01b600052603260045260246000fd5b634e487b7160e01b600052603160045260246000fd5b60006000198214156125b4576125b46124ee565b5060010190565b6000816125ca576125ca6124ee565b506000190190565b6000602082840312156125e457600080fd5b81518015158114610dc057600080fd5b60005b8381101561260f5781810151838201526020016125f7565b8381111561261e576000848401525b50505050565b600082516126368184602087016125f4565b9190910192915050565b602081526000825180602084015261265f8160408501602087016125f4565b601f01601f1916919091016040019291505056fea2646970667358221220c4174fe32d72e1dab1219e8bd50d66a8be282a76ae2cbdab67ca6a23cda8e67a64736f6c634300080a0033",
    "linkReferences": {}
  },
  "methodIdentifiers": {
    "APYdropped()": "3a5b0172",
    "APYrecords(uint256)": "ddaaae03",
    "BOUNTY_COMMISSION()": "c9e66d41",
    "DENOMINATOR()": "918f8674",
    "PREMIUM_COMMISSION()": "bb862785",
    "VERSION()": "ffa1ad74",
    "YEAR()": "83914540",
    "askForUnstake(address,uint256)": "b15ce20a",
    "billFortnightlyPremium(address,address)": "10775e74",
    "bountyDeposit(address,address,uint256)": "3147096d",
    "claimPremium(address,address,address)": "3065f450",
    "collectSaloonPremiumFees(address,address)": "5121ac9d",
    "desiredAPY()": "84dc10b4",
    "initializeImplementation(address)": "4b8e0d37",
    "lastClaimed(address)": "013eba92",
    "lastTimePaid()": "1104ec25",
    "manager()": "481c6a75",
    "owner()": "8da5cb5b",
    "payBounty(address,address,address,uint256)": "73927c11",
    "poolCap()": "b954dc57",
    "poolPeriod()": "45042dec",
    "premiumBalance()": "44ebc03d",
    "projectDeposit()": "72d26951",
    "projectDepositWithdrawal(address,address,uint256)": "419b7bd7",
    "projectWithdrawalTimeLock(uint256)": "ee3acd58",
    "renounceOwnership()": "715018a6",
    "requiredPremiumBalancePerPeriod()": "4c3bdee0",
    "saloonBountyCommission()": "a4bf70bd",
    "saloonPremiumFees()": "3d850fb2",
    "scheduleprojectDepositWithdrawal(uint256)": "4b5df6cc",
    "setDesiredAPY(address,address,uint256)": "cc12c311",
    "setPoolCap(uint256)": "d835f535",
    "stake(address,address,uint256)": "bf6eac2f",
    "staker(address,uint256)": "9e4bfaa5",
    "stakerList(uint256)": "348e50c6",
    "stakerTimelock(address,uint256)": "6b01eab3",
    "stakersDeposit()": "3f5f958c",
    "transferOwnership(address)": "f2fde38b",
    "unstake(address,address,uint256)": "60829f8a",
    "viewBountyBalance()": "e45080e6",
    "viewDesiredAPY()": "78eb46fd",
    "viewHackerPayout()": "4a94bcb3",
    "viewPoolCap()": "ff45d4c0",
    "viewPremiumBalance()": "20d83086",
    "viewProjecDeposit()": "383639b3",
    "viewRequirePremiumBalance()": "d084b03a",
    "viewStakersDeposit()": "16e17b8d",
    "viewUserStakingBalance(address)": "1a89cabd",
    "viewcurrentAPY()": "d5cb8669"
  },
  "id": 27
}