{
  "abi": [
    {
      "anonymous": false,
      "inputs": [
        {
          "indexed": false,
          "internalType": "uint8",
          "name": "version",
          "type": "uint8"
        }
      ],
      "name": "Initialized",
      "type": "event"
    },
    {
      "anonymous": false,
      "inputs": [
        {
          "indexed": true,
          "internalType": "address",
          "name": "previousOwner",
          "type": "address"
        },
        {
          "indexed": true,
          "internalType": "address",
          "name": "newOwner",
          "type": "address"
        }
      ],
      "name": "OwnershipTransferred",
      "type": "event"
    },
    {
      "inputs": [],
      "name": "APYdropped",
      "outputs": [
        {
          "internalType": "bool",
          "name": "",
          "type": "bool"
        }
      ],
      "stateMutability": "view",
      "type": "function"
    },
    {
      "inputs": [
        {
          "internalType": "uint256",
          "name": "",
          "type": "uint256"
        }
      ],
      "name": "APYrecords",
      "outputs": [
        {
          "internalType": "uint256",
          "name": "timeStamp",
          "type": "uint256"
        },
        {
          "internalType": "uint256",
          "name": "periodAPY",
          "type": "uint256"
        }
      ],
      "stateMutability": "view",
      "type": "function"
    },
    {
      "inputs": [],
      "name": "BOUNTY_COMMISSION",
      "outputs": [
        {
          "internalType": "uint256",
          "name": "",
          "type": "uint256"
        }
      ],
      "stateMutability": "view",
      "type": "function"
    },
    {
      "inputs": [],
      "name": "DENOMINATOR",
      "outputs": [
        {
          "internalType": "uint256",
          "name": "",
          "type": "uint256"
        }
      ],
      "stateMutability": "view",
      "type": "function"
    },
    {
      "inputs": [],
      "name": "PREMIUM_COMMISSION",
      "outputs": [
        {
          "internalType": "uint256",
          "name": "",
          "type": "uint256"
        }
      ],
      "stateMutability": "view",
      "type": "function"
    },
    {
      "inputs": [],
      "name": "VERSION",
      "outputs": [
        {
          "internalType": "uint256",
          "name": "",
          "type": "uint256"
        }
      ],
      "stateMutability": "view",
      "type": "function"
    },
    {
      "inputs": [],
      "name": "YEAR",
      "outputs": [
        {
          "internalType": "uint256",
          "name": "",
          "type": "uint256"
        }
      ],
      "stateMutability": "view",
      "type": "function"
    },
    {
      "inputs": [
        {
          "internalType": "address",
          "name": "_staker",
          "type": "address"
        },
        {
          "internalType": "uint256",
          "name": "_amount",
          "type": "uint256"
        }
      ],
      "name": "askForUnstake",
      "outputs": [
        {
          "internalType": "bool",
          "name": "",
          "type": "bool"
        }
      ],
      "stateMutability": "nonpayable",
      "type": "function"
    },
    {
      "inputs": [
        {
          "internalType": "address",
          "name": "_token",
          "type": "address"
        },
        {
          "internalType": "address",
          "name": "_projectWallet",
          "type": "address"
        }
      ],
      "name": "billFortnightlyPremium",
      "outputs": [
        {
          "internalType": "bool",
          "name": "",
          "type": "bool"
        }
      ],
      "stateMutability": "nonpayable",
      "type": "function"
    },
    {
      "inputs": [
        {
          "internalType": "address",
          "name": "_token",
          "type": "address"
        },
        {
          "internalType": "address",
          "name": "_projectWallet",
          "type": "address"
        },
        {
          "internalType": "uint256",
          "name": "_amount",
          "type": "uint256"
        }
      ],
      "name": "bountyDeposit",
      "outputs": [
        {
          "internalType": "bool",
          "name": "",
          "type": "bool"
        }
      ],
      "stateMutability": "nonpayable",
      "type": "function"
    },
    {
      "inputs": [
        {
          "internalType": "address",
          "name": "_token",
          "type": "address"
        },
        {
          "internalType": "address",
          "name": "_staker",
          "type": "address"
        },
        {
          "internalType": "address",
          "name": "_projectWallet",
          "type": "address"
        }
      ],
      "name": "claimPremium",
      "outputs": [
        {
          "internalType": "uint256",
          "name": "",
          "type": "uint256"
        },
        {
          "internalType": "bool",
          "name": "",
          "type": "bool"
        }
      ],
      "stateMutability": "nonpayable",
      "type": "function"
    },
    {
      "inputs": [
        {
          "internalType": "address",
          "name": "_token",
          "type": "address"
        },
        {
          "internalType": "address",
          "name": "_saloonWallet",
          "type": "address"
        }
      ],
      "name": "collectSaloonPremiumFees",
      "outputs": [
        {
          "internalType": "uint256",
          "name": "",
          "type": "uint256"
        }
      ],
      "stateMutability": "nonpayable",
      "type": "function"
    },
    {
      "inputs": [],
      "name": "desiredAPY",
      "outputs": [
        {
          "internalType": "uint256",
          "name": "",
          "type": "uint256"
        }
      ],
      "stateMutability": "view",
      "type": "function"
    },
    {
      "inputs": [
        {
          "internalType": "address",
          "name": "_manager",
          "type": "address"
        }
      ],
      "name": "initializeImplementation",
      "outputs": [],
      "stateMutability": "nonpayable",
      "type": "function"
    },
    {
      "inputs": [
        {
          "internalType": "address",
          "name": "",
          "type": "address"
        }
      ],
      "name": "lastClaimed",
      "outputs": [
        {
          "internalType": "uint256",
          "name": "",
          "type": "uint256"
        }
      ],
      "stateMutability": "view",
      "type": "function"
    },
    {
      "inputs": [],
      "name": "lastTimePaid",
      "outputs": [
        {
          "internalType": "uint256",
          "name": "",
          "type": "uint256"
        }
      ],
      "stateMutability": "view",
      "type": "function"
    },
    {
      "inputs": [],
      "name": "manager",
      "outputs": [
        {
          "internalType": "address",
          "name": "",
          "type": "address"
        }
      ],
      "stateMutability": "view",
      "type": "function"
    },
    {
      "inputs": [],
      "name": "owner",
      "outputs": [
        {
          "internalType": "address",
          "name": "",
          "type": "address"
        }
      ],
      "stateMutability": "view",
      "type": "function"
    },
    {
      "inputs": [
        {
          "internalType": "address",
          "name": "_token",
          "type": "address"
        },
        {
          "internalType": "address",
          "name": "_saloonWallet",
          "type": "address"
        },
        {
          "internalType": "address",
          "name": "_hunter",
          "type": "address"
        },
        {
          "internalType": "uint256",
          "name": "_amount",
          "type": "uint256"
        }
      ],
      "name": "payBounty",
      "outputs": [
        {
          "internalType": "bool",
          "name": "",
          "type": "bool"
        }
      ],
      "stateMutability": "nonpayable",
      "type": "function"
    },
    {
      "inputs": [],
      "name": "poolCap",
      "outputs": [
        {
          "internalType": "uint256",
          "name": "",
          "type": "uint256"
        }
      ],
      "stateMutability": "view",
      "type": "function"
    },
    {
      "inputs": [
        {
          "internalType": "uint256",
          "name": "",
          "type": "uint256"
        }
      ],
      "name": "poolCapTimelock",
      "outputs": [
        {
          "internalType": "uint256",
          "name": "timelock",
          "type": "uint256"
        },
        {
          "internalType": "bool",
          "name": "executed",
          "type": "bool"
        }
      ],
      "stateMutability": "view",
      "type": "function"
    },
    {
      "inputs": [],
      "name": "poolPeriod",
      "outputs": [
        {
          "internalType": "uint256",
          "name": "",
          "type": "uint256"
        }
      ],
      "stateMutability": "view",
      "type": "function"
    },
    {
      "inputs": [],
      "name": "premiumBalance",
      "outputs": [
        {
          "internalType": "uint256",
          "name": "",
          "type": "uint256"
        }
      ],
      "stateMutability": "view",
      "type": "function"
    },
    {
      "inputs": [],
      "name": "projectDeposit",
      "outputs": [
        {
          "internalType": "uint256",
          "name": "",
          "type": "uint256"
        }
      ],
      "stateMutability": "view",
      "type": "function"
    },
    {
      "inputs": [
        {
          "internalType": "address",
          "name": "_token",
          "type": "address"
        },
        {
          "internalType": "address",
          "name": "_projectWallet",
          "type": "address"
        },
        {
          "internalType": "uint256",
          "name": "_amount",
          "type": "uint256"
        }
      ],
      "name": "projectDepositWithdrawal",
      "outputs": [
        {
          "internalType": "bool",
          "name": "",
          "type": "bool"
        }
      ],
      "stateMutability": "nonpayable",
      "type": "function"
    },
    {
      "inputs": [
        {
          "internalType": "uint256",
          "name": "",
          "type": "uint256"
        }
      ],
      "name": "projectWithdrawalTimeLock",
      "outputs": [
        {
          "internalType": "uint256",
          "name": "",
          "type": "uint256"
        }
      ],
      "stateMutability": "view",
      "type": "function"
    },
    {
      "inputs": [],
      "name": "renounceOwnership",
      "outputs": [],
      "stateMutability": "nonpayable",
      "type": "function"
    },
    {
      "inputs": [],
      "name": "requiredPremiumBalancePerPeriod",
      "outputs": [
        {
          "internalType": "uint256",
          "name": "",
          "type": "uint256"
        }
      ],
      "stateMutability": "view",
      "type": "function"
    },
    {
      "inputs": [],
      "name": "saloonBountyCommission",
      "outputs": [
        {
          "internalType": "uint256",
          "name": "",
          "type": "uint256"
        }
      ],
      "stateMutability": "view",
      "type": "function"
    },
    {
      "inputs": [],
      "name": "saloonPremiumFees",
      "outputs": [
        {
          "internalType": "uint256",
          "name": "",
          "type": "uint256"
        }
      ],
      "stateMutability": "view",
      "type": "function"
    },
    {
      "inputs": [
        {
          "internalType": "uint256",
          "name": "_amount",
          "type": "uint256"
        }
      ],
      "name": "scheduleprojectDepositWithdrawal",
      "outputs": [],
      "stateMutability": "nonpayable",
      "type": "function"
    },
    {
      "inputs": [
        {
          "internalType": "address",
          "name": "_token",
          "type": "address"
        },
        {
          "internalType": "address",
          "name": "_projectWallet",
          "type": "address"
        },
        {
          "internalType": "uint256",
          "name": "_desiredAPY",
          "type": "uint256"
        }
      ],
      "name": "setDesiredAPY",
      "outputs": [
        {
          "internalType": "bool",
          "name": "",
          "type": "bool"
        }
      ],
      "stateMutability": "nonpayable",
      "type": "function"
    },
    {
      "inputs": [
        {
          "internalType": "uint256",
          "name": "_amount",
          "type": "uint256"
        }
      ],
      "name": "setPoolCap",
      "outputs": [],
      "stateMutability": "nonpayable",
      "type": "function"
    },
    {
      "inputs": [
        {
          "internalType": "uint256",
          "name": "_newPoolCap",
          "type": "uint256"
        }
      ],
      "name": "setPoolCapTimelock",
      "outputs": [],
      "stateMutability": "nonpayable",
      "type": "function"
    },
    {
      "inputs": [
        {
          "internalType": "address",
          "name": "_token",
          "type": "address"
        },
        {
          "internalType": "address",
          "name": "_staker",
          "type": "address"
        },
        {
          "internalType": "uint256",
          "name": "_amount",
          "type": "uint256"
        }
      ],
      "name": "stake",
      "outputs": [
        {
          "internalType": "bool",
          "name": "",
          "type": "bool"
        }
      ],
      "stateMutability": "nonpayable",
      "type": "function"
    },
    {
      "inputs": [
        {
          "internalType": "address",
          "name": "",
          "type": "address"
        },
        {
          "internalType": "uint256",
          "name": "",
          "type": "uint256"
        }
      ],
      "name": "staker",
      "outputs": [
        {
          "internalType": "uint256",
          "name": "stakerBalance",
          "type": "uint256"
        },
        {
          "internalType": "uint256",
          "name": "balanceTimeStamp",
          "type": "uint256"
        }
      ],
      "stateMutability": "view",
      "type": "function"
    },
    {
      "inputs": [
        {
          "internalType": "uint256",
          "name": "",
          "type": "uint256"
        }
      ],
      "name": "stakerList",
      "outputs": [
        {
          "internalType": "address",
          "name": "",
          "type": "address"
        }
      ],
      "stateMutability": "view",
      "type": "function"
    },
    {
      "inputs": [
        {
          "internalType": "address",
          "name": "",
          "type": "address"
        },
        {
          "internalType": "uint256",
          "name": "",
          "type": "uint256"
        }
      ],
      "name": "stakerTimelock",
      "outputs": [
        {
          "internalType": "uint256",
          "name": "",
          "type": "uint256"
        }
      ],
      "stateMutability": "view",
      "type": "function"
    },
    {
      "inputs": [],
      "name": "stakersDeposit",
      "outputs": [
        {
          "internalType": "uint256",
          "name": "",
          "type": "uint256"
        }
      ],
      "stateMutability": "view",
      "type": "function"
    },
    {
      "inputs": [
        {
          "internalType": "address",
          "name": "newOwner",
          "type": "address"
        }
      ],
      "name": "transferOwnership",
      "outputs": [],
      "stateMutability": "nonpayable",
      "type": "function"
    },
    {
      "inputs": [
        {
          "internalType": "address",
          "name": "_token",
          "type": "address"
        },
        {
          "internalType": "address",
          "name": "_staker",
          "type": "address"
        },
        {
          "internalType": "uint256",
          "name": "_amount",
          "type": "uint256"
        }
      ],
      "name": "unstake",
      "outputs": [
        {
          "internalType": "bool",
          "name": "",
          "type": "bool"
        }
      ],
      "stateMutability": "nonpayable",
      "type": "function"
    },
    {
      "inputs": [],
      "name": "viewBountyBalance",
      "outputs": [
        {
          "internalType": "uint256",
          "name": "",
          "type": "uint256"
        }
      ],
      "stateMutability": "view",
      "type": "function"
    },
    {
      "inputs": [],
      "name": "viewDesiredAPY",
      "outputs": [
        {
          "internalType": "uint256",
          "name": "",
          "type": "uint256"
        }
      ],
      "stateMutability": "view",
      "type": "function"
    },
    {
      "inputs": [],
      "name": "viewHackerPayout",
      "outputs": [
        {
          "internalType": "uint256",
          "name": "",
          "type": "uint256"
        }
      ],
      "stateMutability": "view",
      "type": "function"
    },
    {
      "inputs": [],
      "name": "viewPoolCap",
      "outputs": [
        {
          "internalType": "uint256",
          "name": "",
          "type": "uint256"
        }
      ],
      "stateMutability": "view",
      "type": "function"
    },
    {
      "inputs": [],
      "name": "viewPremiumBalance",
      "outputs": [
        {
          "internalType": "uint256",
          "name": "",
          "type": "uint256"
        }
      ],
      "stateMutability": "view",
      "type": "function"
    },
    {
      "inputs": [],
      "name": "viewProjecDeposit",
      "outputs": [
        {
          "internalType": "uint256",
          "name": "",
          "type": "uint256"
        }
      ],
      "stateMutability": "view",
      "type": "function"
    },
    {
      "inputs": [],
      "name": "viewRequirePremiumBalance",
      "outputs": [
        {
          "internalType": "uint256",
          "name": "",
          "type": "uint256"
        }
      ],
      "stateMutability": "view",
      "type": "function"
    },
    {
      "inputs": [],
      "name": "viewStakersDeposit",
      "outputs": [
        {
          "internalType": "uint256",
          "name": "",
          "type": "uint256"
        }
      ],
      "stateMutability": "view",
      "type": "function"
    },
    {
      "inputs": [
        {
          "internalType": "address",
          "name": "_staker",
          "type": "address"
        }
      ],
      "name": "viewUserStakingBalance",
      "outputs": [
        {
          "internalType": "uint256",
          "name": "",
          "type": "uint256"
        },
        {
          "internalType": "uint256",
          "name": "",
          "type": "uint256"
        }
      ],
      "stateMutability": "view",
      "type": "function"
    },
    {
      "inputs": [],
      "name": "viewcurrentAPY",
      "outputs": [
        {
          "internalType": "uint256",
          "name": "",
          "type": "uint256"
        }
      ],
      "stateMutability": "view",
      "type": "function"
    }
  ],
  "bytecode": {
    "object": "0x608060405262127500600b5534801561001757600080fd5b5061002133610026565b610076565b600080546001600160a01b038381166001600160a01b0319831681178455604051919092169283917f8be0079c531659141344cd1fd0a4f28419497f9722a3daafe3b4186f6b6457e09190a35050565b612acb806100856000396000f3fe608060405234801561001057600080fd5b50600436106102f15760003560e01c806372d269511161019d578063bf6eac2f116100e9578063ddaaae03116100a2578063ee3acd581161007c578063ee3acd5814610634578063f2fde38b14610654578063ff45d4c014610667578063ffa1ad741461066f57600080fd5b8063ddaaae03146105ef578063e45080e614610602578063ed6ea1641461060a57600080fd5b8063bf6eac2f14610597578063c9e66d41146105aa578063cc12c311146105b9578063d084b03a146105cc578063d5cb8669146105d4578063d835f535146105dc57600080fd5b8063918f867411610156578063a4bf70bd11610130578063a4bf70bd14610563578063b15ce20a1461056c578063b954dc571461057f578063bb8627851461058857600080fd5b8063918f86741461052d5780639e4bfaa51461053d578063a3bea8b11461055057600080fd5b806372d26951146104e457806373927c11146104ed57806378eb46fd14610500578063839145401461050857806384dc10b4146105135780638da5cb5b1461051c57600080fd5b80633f5f958c1161025c5780634b5df6cc116102155780635121ac9d116101ef5780635121ac9d1461048b57806360829f8a1461049e5780636b01eab3146104b1578063715018a6146104dc57600080fd5b80634b5df6cc1461045a5780634b8e0d371461046f5780634c3bdee01461048257600080fd5b80633f5f958c14610411578063419b7bd71461041a57806344ebc03d1461042d57806345042dec14610436578063481c6a751461043f5780634a94bcb31461045257600080fd5b80633065f450116102ae5780633065f4501461038d5780633147096d146103b5578063348e50c6146103c8578063383639b3146103f35780633a5b0172146103fb5780633d850fb21461040857600080fd5b8063013eba92146102f657806310775e74146103295780631104ec251461034c57806316e17b8d146103555780631a89cabd1461035d57806320d8308614610385575b600080fd5b610316610304366004612787565b600d6020526000908152604090205481565b6040519081526020015b60405180910390f35b61033c6103373660046127a2565b610677565b6040519015158152602001610320565b61031660095481565b600354610316565b61037061036b366004612787565b610ab5565b60408051928352602083019190915201610320565b600654610316565b6103a061039b3660046127d5565b610b4c565b60408051928352901515602083015201610320565b61033c6103c3366004612818565b610df5565b6103db6103d6366004612854565b610e5b565b6040516001600160a01b039091168152602001610320565b600254610316565b60135461033c9060ff1681565b61031660055481565b61031660035481565b61033c610428366004612818565b610e85565b61031660065481565b610316600b5481565b6001546103db906001600160a01b031681565b610316610f32565b61046d610468366004612854565b610f82565b005b61046d61047d366004612787565b610fa1565b610316600a5481565b6103166104993660046127a2565b6110e1565b61033c6104ac366004612818565b611138565b6103166104bf36600461286d565b600f60209081526000928352604080842090915290825290205481565b61046d6114d5565b61031660025481565b61033c6104fb366004612897565b6114e9565b600754610316565b6103166301e1338081565b61031660075481565b6000546001600160a01b03166103db565b61031668056bc75e2d6310000081565b61037061054b36600461286d565b611880565b61046d61055e366004612854565b6118bc565b61031660045481565b61033c61057a36600461286d565b611912565b61031660085481565b610316671bc16d674ec8000081565b61033c6105a5366004612818565b611a26565b61031667a688906bd8b0000081565b61033c6105c7366004612818565b611cea565b600a54610316565b610316611f94565b61046d6105ea366004612854565b611fa7565b6103706105fd366004612854565b612092565b6103166120c0565b6103a0610618366004612854565b6010602052600090815260409020805460019091015460ff1682565b610316610642366004612854565b600c6020526000908152604090205481565b61046d610662366004612787565b6120d3565b600854610316565b610316600181565b6001546000906001600160a01b031633148061069257503330145b6106e35760405162461bcd60e51b815260206004820152601c60248201527f4f6e6c79206d616e61676572206f722073656c6620616c6c6f7765640000000060448201526064015b60405180910390fd5b600654600a5460035481831015610aa757600954600b54600061070683426128f8565b905081811115610996576000816301e1338068056bc75e2d6310000060075488610730919061290f565b61073a919061292e565b610744919061292e565b61074e919061290f565b90506107656001600160a01b038b168a308461214c565b61091c576040805180820190915260006020820152428152610785611f94565b602082019081526012805460018101825560009190915282517fbb8a6a4669ba250d26cd7a459eca9d215f8307e33aebe50379bc5a3617ec344460029092029182015590517fbb8a6a4669ba250d26cd7a459eca9d215f8307e33aebe50379bc5a3617ec3445909101556107f7611f94565b6007819055506000836301e1338068056bc75e2d631000006007548a61081d919061290f565b610827919061292e565b610831919061292e565b61083b919061290f565b9050600068056bc75e2d6310000061085b671bc16d674ec800008461290f565b610865919061292e565b905080600560008282546108799190612950565b9250508190555081600660008282546108929190612950565b90915550504260095560075460085460009188916301e133809168056bc75e2d63100000916108c1919061290f565b6108cb919061292e565b6108d5919061292e565b6108df919061290f565b600a55506108fa90506001600160a01b038d168c308461214c565b50506013805460ff191660019081179091559850610aaf975050505050505050565b600068056bc75e2d6310000061093a671bc16d674ec800008461290f565b610944919061292e565b905080600560008282546109589190612950565b9250508190555081600660008282546109719190612950565b90915550504260095550506013805460ff191690555060019550610aaf945050505050565b6000826301e1338068056bc75e2d631000006007546003546109b8919061290f565b6109c2919061292e565b6109cc919061292e565b6109d6919061290f565b90506109ed6001600160a01b038b168a308461214c565b61091c576040805180820190915260006020820152428152610a0d611f94565b602082019081526012805460018101825560009190915282517fbb8a6a4669ba250d26cd7a459eca9d215f8307e33aebe50379bc5a3617ec344460029092029182015590517fbb8a6a4669ba250d26cd7a459eca9d215f8307e33aebe50379bc5a3617ec344590910155610a7f611f94565b6007819055506000846301e1338068056bc75e2d6310000060075460035461081d919061290f565b600093505050505b92915050565b6001600160a01b0381166000908152600e6020526040812080548291610adc6001836128f8565b81548110610aec57610aec612968565b600091825260208083206002909202909101546001600160a01b0387168352600e9091526040909120610b206001846128f8565b81548110610b3057610b30612968565b9060005260206000209060020201600101549250925050915091565b60015460009081906001600160a01b03163314610b7b5760405162461bcd60e51b81526004016106da9061297e565b6001600160a01b0384166000908152600d602052604081205490610b9f82426128f8565b600b546001600160a01b0388166000908152600e6020908152604080832080548251818502810185019093528083529596509394929390929091849084015b82821015610c2457838290600052602060002090600202016040518060400160405290816000820154815260200160018201548152505081526020019060010190610bde565b50508251929350505082841115610ce4576000610c428684846121ba565b9050600068056bc75e2d63100000610c62671bc16d674ec800008461290f565b610c6c919061292e565b9050610c7881836128f8565b915081610c8f6001600160a01b038e168d836123f9565b610c9f57610c9d8d8c610677565b505b8260066000828254610cb191906128f8565b90915550506001600160a01b038c166000908152600d60205260409020429055985060019750610ded9650505050505050565b6000600b546301e1338068056bc75e2d6310000060075486600187610d0991906128f8565b81518110610d1957610d19612968565b602002602001015160000151610d2f919061290f565b610d39919061292e565b610d43919061292e565b610d4d919061290f565b9050600068056bc75e2d63100000610d6d671bc16d674ec800008461290f565b610d77919061292e565b9050610d8381836128f8565b9150610d996001600160a01b038d168c846123f9565b610da957610da78c8b610677565b505b8160066000828254610dbb91906128f8565b9091555050506001600160a01b038a166000908152600d60205260409020429055965060019550610ded945050505050565b935093915050565b6001546000906001600160a01b03163314610e225760405162461bcd60e51b81526004016106da9061297e565b610e376001600160a01b03851684308561214c565b508160026000828254610e4a9190612950565b9091555060019150505b9392505050565b60118181548110610e6b57600080fd5b6000918252602090912001546001600160a01b0316905081565b6000818152600c602052604081205442118015610eaf57506000828152600c602052604090205415155b610efb5760405162461bcd60e51b815260206004820181905260248201527f54696d656c6f636b206e6f742066696e6973686564206f72207374617274656460448201526064016106da565b8160026000828254610f0d91906128f8565b90915550610f2790506001600160a01b03851684846123f9565b506001949350505050565b600080600354600254610f459190612950565b9050600068056bc75e2d63100000610f6567a688906bd8b000008461290f565b610f6f919061292e565b9050610f7b81836128f8565b9250505090565b600b54610f8f9042612950565b6000918252600c602052604090912055565b600054600160a81b900460ff1615808015610fc957506000546001600160a01b90910460ff16105b80610fea5750303b158015610fea5750600054600160a01b900460ff166001145b61104d5760405162461bcd60e51b815260206004820152602e60248201527f496e697469616c697a61626c653a20636f6e747261637420697320616c72656160448201526d191e481a5b9a5d1a585b1a5e995960921b60648201526084016106da565b6000805460ff60a01b1916600160a01b179055801561107a576000805460ff60a81b1916600160a81b1790555b600180546001600160a01b0319166001600160a01b03841617905580156110dd576000805460ff60a81b19169055604051600181527f7f26b83ff96e1f2b6a682f133852f6798a09c465da95921460cefb38474024989060200160405180910390a15b5050565b6001546000906001600160a01b0316331461110e5760405162461bcd60e51b81526004016106da9061297e565b600554611127906001600160a01b0385169084906123f9565b505060058054600090915592915050565b6001546000906001600160a01b031633146111655760405162461bcd60e51b81526004016106da9061297e565b60075415158061117c575060135460ff1615156001145b15610e54576001600160a01b0383166000908152600f60209081526040808320858452909152902054421180156111d557506001600160a01b0383166000908152600f6020908152604080832085845290915290205415155b6112215760405162461bcd60e51b815260206004820181905260248201527f54696d656c6f636b206e6f742066696e6973686564206f72207374617274656460448201526064016106da565b6001600160a01b0383166000908152600e6020526040812054611246906001906128f8565b9050611265604051806040016040528060008152602001600081525090565b426020808301919091526001600160a01b0386166000908152600e9091526040902080548591908490811061129c5761129c612968565b9060005260206000209060020201600001546112b891906128f8565b815260118054604080516020808402820181019092528281526000939092909183018282801561131157602002820191906000526020600020905b81546001600160a01b031681526001909101906020018083116112f3575b5050505050905081600001516000141561146157805160005b8181101561145e57876001600160a01b031683828151811061134e5761134e612968565b60200260200101516001600160a01b03161415611456576000836113736001856128f8565b8151811061138357611383612968565b6020026020010151905088601160018561139d91906128f8565b815481106113ad576113ad612968565b9060005260206000200160006101000a8154816001600160a01b0302191690836001600160a01b0316021790555080601183815481106113ef576113ef612968565b9060005260206000200160006101000a8154816001600160a01b0302191690836001600160a01b03160217905550601180548061142e5761142e6129ac565b600082815260209020810160001990810180546001600160a01b03191690550190555061145e565b60010161132a565b50505b6001600160a01b0386166000908152600e602090815260408220805460018181018355918452828420865160029092020190815591850151910155600380548792906114ae9084906128f8565b909155506114c890506001600160a01b03881687876123f9565b5060019350505050610e54565b6114dd612436565b6114e76000612490565b565b6001546000906001600160a01b031633146115165760405162461bcd60e51b81526004016106da9061297e565b60035460118054604080516020808402820181019092528281526000939092909183018282801561157057602002820191906000526020600020905b81546001600160a01b03168152600190910190602001808311611552575b50508351939450505085841090506117a85761158c85846128f8565b92508261164a5760005b818110156116315760408051808201909152600080825242602083015284518590849081106115c7576115c7612968565b6020908102919091018101516001600160a01b0381166000908152600e83526040812080546001818101835591835291849020865160029093020191825592850151920191909155905061161d8b8a8c8b6124e0565b5050508061162a906129c2565b9050611596565b5061163e60116000612739565b60019350505050611878565b6000611656848761292e565b905060005b8281101561178d57600084828151811061167757611677612968565b6020908102919091018101516001600160a01b0381166000908152600e90925260408220549092506116ab906001906128f8565b6001600160a01b0383166000908152600e6020526040812080549293509091839081106116da576116da612968565b906000526020600020906002020160000154905061170b604051806040016040528060008152602001600081525090565b42602082015268056bc75e2d63100000611725878461290f565b61172f919061292e565b61173990836128f8565b81526001600160a01b039093166000908152600e602090815260408220805460018181018355918452928290208651600290940201928355940151930192909255506117869050816129c2565b905061165b565b5061179a89888a896124e0565b506001945050505050611878565b60005b818110156118355760408051808201909152600080825242602083015284518590849081106117dc576117dc612968565b6020908102919091018101516001600160a01b03166000908152600e82526040812080546001818101835591835291839020855160029093020191825593909101519201919091555061182e816129c2565b90506117ab565b5061184260116000612739565b600061184e84876128f8565b9050806002600082825461186291906128f8565b9091555050600060035561179a89888a896124e0565b949350505050565b600e602052816000526040600020818154811061189c57600080fd5b600091825260209091206002909102018054600190910154909250905082565b6001546001600160a01b031633146118e65760405162461bcd60e51b81526004016106da9061297e565b600b546118f39042612950565b600091825260106020526040909120908155600101805460ff19169055565b6001546000906001600160a01b0316331461193f5760405162461bcd60e51b81526004016106da9061297e565b6001600160a01b0383166000908152600e6020526040812054611964906001906128f8565b6001600160a01b0385166000908152600e60205260409020805491925084918390811061199357611993612968565b90600052602060002090600202016000015410156119ea5760405162461bcd60e51b8152602060048201526014602482015273496e73756669636369656e742062616c616e636560601b60448201526064016106da565b600b546119f79042612950565b6001600160a01b0385166000908152600f60209081526040808320878452909152902055506001905092915050565b6001546000906001600160a01b03163314611a535760405162461bcd60e51b81526004016106da9061297e565b60085482600354611a649190612950565b1115611ab25760405162461bcd60e51b815260206004820152601960248201527f5374616b696e6720506f6f6c20616c72656164792066756c6c0000000000000060448201526064016106da565b6001600160a01b0383166000908152600e602052604090205480611b1c57604080518082018252600080825260208083018281526001600160a01b0389168352600e8252938220805460018082018355918452919092209251600290910290920191825591519101555b6000611b296001836128f8565b6001600160a01b0386166000908152600e6020526040902080549192509082908110611b5757611b57612968565b90600052602060002090600202016000015460001415611bbd57601180546001810182556000919091527f31ecc21a745e3968a04e9570e4425bc18fa8019c68028196b546d1669c200c680180546001600160a01b0319166001600160a01b0387161790555b6040805180820182526000808252426020808401919091526001600160a01b0389168252600e905291909120805486919085908110611bfe57611bfe612968565b906000526020600020906002020160000154611c1a9190612950565b815282611c72576001600160a01b0386166000908152600e60205260409020805482919084908110611c4e57611c4e612968565b60009182526020918290208351600290920201908155910151600190910155611caf565b6001600160a01b0386166000908152600e602090815260408220805460018181018355918452928290208451600290940201928355908301519101555b8460036000828254611cc19190612950565b90915550611cdc90506001600160a01b03881687308861214c565b506001979650505050505050565b6001546000906001600160a01b03163314611d175760405162461bcd60e51b81526004016106da9061297e565b600060065490506000600b546301e1338068056bc75e2d6310000086600854611d40919061290f565b611d4a919061292e565b611d54919061292e565b611d5e919061290f565b905080821015611da5576000611d7483836128f8565b9050611d8b6001600160a01b03881687308461214c565b508060066000828254611d9e9190612950565b9091555050505b600a819055604080518082018252428152602080820187815260128054600181018255600091825284517fbb8a6a4669ba250d26cd7a459eca9d215f8307e33aebe50379bc5a3617ec344460029092029182015591517fbb8a6a4669ba250d26cd7a459eca9d215f8307e33aebe50379bc5a3617ec344590920191909155600788905560118054855181850281018501909652808652939491939192909190830182828015611e7d57602002820191906000526020600020905b81546001600160a01b03168152600190910190602001808311611e5f575b505083519394506000925050505b81811015611f7a576000838281518110611ea757611ea7612968565b6020908102919091018101516001600160a01b0381166000908152600e9092526040822054909250611edb906001906128f8565b9050611efa604051806040016040528060008152602001600081525090565b6001600160a01b0383166000908152600e60205260409020805483908110611f2457611f24612968565b60009182526020808320600292830201548452428482019081526001600160a01b039096168352600e81526040832080546001818101835591855291909320935191029092019182559251908301555001611e8b565b50506013805460ff19169055506001979650505050505050565b600080600854600654610aaf919061292e565b6001546001600160a01b03163314611fd15760405162461bcd60e51b81526004016106da9061297e565b60008181526010602052604090205442118015612000575060008181526010602052604090206001015460ff16155b8015612019575060008181526010602052604090205415155b61206f5760405162461bcd60e51b815260206004820152602160248201527f54696d656c6f636b206e6f7420736574206f72206e6f7420636f6d706c6574656044820152601960fa1b60648201526084016106da565b60008181526010602052604090206001908101805460ff19169091179055600855565b601281815481106120a257600080fd5b60009182526020909120600290910201805460019091015490915082565b600080600354600254610aaf9190612950565b6120db612436565b6001600160a01b0381166121405760405162461bcd60e51b815260206004820152602660248201527f4f776e61626c653a206e6577206f776e657220697320746865207a65726f206160448201526564647265737360d01b60648201526084016106da565b61214981612490565b50565b6040516001600160a01b0380851660248301528316604482015260648101829052600090610f279086906323b872dd60e01b906084015b60408051601f198184030181529190526020810180516001600160e01b03166001600160e01b031990931692909217909152612542565b6012546000908180806121ce6001856128f8565b90505b806122205787601282815481106121ea576121ea612968565b90600052602060002090600202016000015410156122105761220d816001612950565b92505b612219816129dd565b90506121d1565b50815b838110156123ee5760006012828154811061224057612240612968565b600091825260208220600290910201549150601261225f846001612950565b8154811061226f5761226f612968565b9060005260206000209060020201600001546000141561228f57426122bf565b601261229c846001612950565b815481106122ac576122ac612968565b9060005260206000209060020201600001545b905060006122cd83836128f8565b90506000805b8a81101561236457848c82815181106122ee576122ee612968565b6020026020010151602001511180156123235750838c828151811061231557612315612968565b602002602001015160200151105b15612354578b818151811061233a5761233a612968565b602002602001015160000151826123519190612950565b91505b61235d816129c2565b90506122d3565b50816301e1338068056bc75e2d631000006012612382896001612950565b8154811061239257612392612968565b906000526020600020906002020160010154846123af919061290f565b6123b9919061292e565b6123c3919061292e565b6123cd919061290f565b6123d79087612950565b955050505050806123e7906129c2565b9050612223565b509695505050505050565b6040516001600160a01b03831660248201526044810182905260009061242c90859063a9059cbb60e01b90606401612183565b5060019392505050565b6000546001600160a01b031633146114e75760405162461bcd60e51b815260206004820181905260248201527f4f776e61626c653a2063616c6c6572206973206e6f7420746865206f776e657260448201526064016106da565b600080546001600160a01b038381166001600160a01b0319831681178455604051919092169283917f8be0079c531659141344cd1fd0a4f28419497f9722a3daafe3b4186f6b6457e09190a35050565b60008068056bc75e2d631000006124ff67a688906bd8b000008561290f565b612509919061292e565b9050600061251782856128f8565b905061252d6001600160a01b03881687836123f9565b50611cdc6001600160a01b03881686846123f9565b6000612597826040518060400160405280602081526020017f5361666545524332303a206c6f772d6c6576656c2063616c6c206661696c6564815250856001600160a01b03166126199092919063ffffffff16565b80519091501561261457808060200190518101906125b591906129f4565b6126145760405162461bcd60e51b815260206004820152602a60248201527f5361666545524332303a204552433230206f7065726174696f6e20646964206e6044820152691bdd081cdd58d8d9595960b21b60648201526084016106da565b505050565b6060611878848460008585600080866001600160a01b031685876040516126409190612a46565b60006040518083038185875af1925050503d806000811461267d576040519150601f19603f3d011682016040523d82523d6000602084013e612682565b606091505b50915091506126938783838761269e565b979650505050505050565b6060831561270a578251612703576001600160a01b0385163b6127035760405162461bcd60e51b815260206004820152601d60248201527f416464726573733a2063616c6c20746f206e6f6e2d636f6e747261637400000060448201526064016106da565b5081611878565b611878838381511561271f5781518083602001fd5b8060405162461bcd60e51b81526004016106da9190612a62565b508054600082559060005260206000209081019061214991905b808211156127675760008155600101612753565b5090565b80356001600160a01b038116811461278257600080fd5b919050565b60006020828403121561279957600080fd5b610e548261276b565b600080604083850312156127b557600080fd5b6127be8361276b565b91506127cc6020840161276b565b90509250929050565b6000806000606084860312156127ea57600080fd5b6127f38461276b565b92506128016020850161276b565b915061280f6040850161276b565b90509250925092565b60008060006060848603121561282d57600080fd5b6128368461276b565b92506128446020850161276b565b9150604084013590509250925092565b60006020828403121561286657600080fd5b5035919050565b6000806040838503121561288057600080fd5b6128898361276b565b946020939093013593505050565b600080600080608085870312156128ad57600080fd5b6128b68561276b565b93506128c46020860161276b565b92506128d26040860161276b565b9396929550929360600135925050565b634e487b7160e01b600052601160045260246000fd5b60008282101561290a5761290a6128e2565b500390565b6000816000190483118215151615612929576129296128e2565b500290565b60008261294b57634e487b7160e01b600052601260045260246000fd5b500490565b60008219821115612963576129636128e2565b500190565b634e487b7160e01b600052603260045260246000fd5b60208082526014908201527313db9b1e481b585b9859d95c88185b1b1bddd95960621b604082015260600190565b634e487b7160e01b600052603160045260246000fd5b60006000198214156129d6576129d66128e2565b5060010190565b6000816129ec576129ec6128e2565b506000190190565b600060208284031215612a0657600080fd5b81518015158114610e5457600080fd5b60005b83811015612a31578181015183820152602001612a19565b83811115612a40576000848401525b50505050565b60008251612a58818460208701612a16565b9190910192915050565b6020815260008251806020840152612a81816040850160208701612a16565b601f01601f1916919091016040019291505056fea26469706673582212202da16ba460fa8b06ae8c7eed7f1b195c8e920a19f01e6aa280d1da0792d88e4f64736f6c634300080a0033",
    "linkReferences": {}
  },
  "methodIdentifiers": {
    "APYdropped()": "3a5b0172",
    "APYrecords(uint256)": "ddaaae03",
    "BOUNTY_COMMISSION()": "c9e66d41",
    "DENOMINATOR()": "918f8674",
    "PREMIUM_COMMISSION()": "bb862785",
    "VERSION()": "ffa1ad74",
    "YEAR()": "83914540",
    "askForUnstake(address,uint256)": "b15ce20a",
    "billFortnightlyPremium(address,address)": "10775e74",
    "bountyDeposit(address,address,uint256)": "3147096d",
    "claimPremium(address,address,address)": "3065f450",
    "collectSaloonPremiumFees(address,address)": "5121ac9d",
    "desiredAPY()": "84dc10b4",
    "initializeImplementation(address)": "4b8e0d37",
    "lastClaimed(address)": "013eba92",
    "lastTimePaid()": "1104ec25",
    "manager()": "481c6a75",
    "owner()": "8da5cb5b",
    "payBounty(address,address,address,uint256)": "73927c11",
    "poolCap()": "b954dc57",
    "poolCapTimelock(uint256)": "ed6ea164",
    "poolPeriod()": "45042dec",
    "premiumBalance()": "44ebc03d",
    "projectDeposit()": "72d26951",
    "projectDepositWithdrawal(address,address,uint256)": "419b7bd7",
    "projectWithdrawalTimeLock(uint256)": "ee3acd58",
    "renounceOwnership()": "715018a6",
    "requiredPremiumBalancePerPeriod()": "4c3bdee0",
    "saloonBountyCommission()": "a4bf70bd",
    "saloonPremiumFees()": "3d850fb2",
    "scheduleprojectDepositWithdrawal(uint256)": "4b5df6cc",
    "setDesiredAPY(address,address,uint256)": "cc12c311",
    "setPoolCap(uint256)": "d835f535",
    "setPoolCapTimelock(uint256)": "a3bea8b1",
    "stake(address,address,uint256)": "bf6eac2f",
    "staker(address,uint256)": "9e4bfaa5",
    "stakerList(uint256)": "348e50c6",
    "stakerTimelock(address,uint256)": "6b01eab3",
    "stakersDeposit()": "3f5f958c",
    "transferOwnership(address)": "f2fde38b",
    "unstake(address,address,uint256)": "60829f8a",
    "viewBountyBalance()": "e45080e6",
    "viewDesiredAPY()": "78eb46fd",
    "viewHackerPayout()": "4a94bcb3",
    "viewPoolCap()": "ff45d4c0",
    "viewPremiumBalance()": "20d83086",
    "viewProjecDeposit()": "383639b3",
    "viewRequirePremiumBalance()": "d084b03a",
    "viewStakersDeposit()": "16e17b8d",
    "viewUserStakingBalance(address)": "1a89cabd",
    "viewcurrentAPY()": "d5cb8669"
  },
  "id": 29
}