{
  "abi": [
    {
      "anonymous": false,
      "inputs": [
        {
          "indexed": false,
          "internalType": "uint8",
          "name": "version",
          "type": "uint8"
        }
      ],
      "name": "Initialized",
      "type": "event"
    },
    {
      "anonymous": false,
      "inputs": [
        {
          "indexed": true,
          "internalType": "address",
          "name": "previousOwner",
          "type": "address"
        },
        {
          "indexed": true,
          "internalType": "address",
          "name": "newOwner",
          "type": "address"
        }
      ],
      "name": "OwnershipTransferred",
      "type": "event"
    },
    {
      "inputs": [
        {
          "internalType": "uint256",
          "name": "",
          "type": "uint256"
        }
      ],
      "name": "APYTimelock",
      "outputs": [
        {
          "internalType": "uint256",
          "name": "timelock",
          "type": "uint256"
        },
        {
          "internalType": "bool",
          "name": "executed",
          "type": "bool"
        }
      ],
      "stateMutability": "view",
      "type": "function"
    },
    {
      "inputs": [],
      "name": "APYdropped",
      "outputs": [
        {
          "internalType": "bool",
          "name": "",
          "type": "bool"
        }
      ],
      "stateMutability": "view",
      "type": "function"
    },
    {
      "inputs": [
        {
          "internalType": "uint256",
          "name": "",
          "type": "uint256"
        }
      ],
      "name": "APYrecords",
      "outputs": [
        {
          "internalType": "uint256",
          "name": "timeStamp",
          "type": "uint256"
        },
        {
          "internalType": "uint256",
          "name": "periodAPY",
          "type": "uint256"
        }
      ],
      "stateMutability": "view",
      "type": "function"
    },
    {
      "inputs": [],
      "name": "BOUNTY_COMMISSION",
      "outputs": [
        {
          "internalType": "uint256",
          "name": "",
          "type": "uint256"
        }
      ],
      "stateMutability": "view",
      "type": "function"
    },
    {
      "inputs": [],
      "name": "DENOMINATOR",
      "outputs": [
        {
          "internalType": "uint256",
          "name": "",
          "type": "uint256"
        }
      ],
      "stateMutability": "view",
      "type": "function"
    },
    {
      "inputs": [],
      "name": "PREMIUM_COMMISSION",
      "outputs": [
        {
          "internalType": "uint256",
          "name": "",
          "type": "uint256"
        }
      ],
      "stateMutability": "view",
      "type": "function"
    },
    {
      "inputs": [],
      "name": "VERSION",
      "outputs": [
        {
          "internalType": "uint256",
          "name": "",
          "type": "uint256"
        }
      ],
      "stateMutability": "view",
      "type": "function"
    },
    {
      "inputs": [],
      "name": "YEAR",
      "outputs": [
        {
          "internalType": "uint256",
          "name": "",
          "type": "uint256"
        }
      ],
      "stateMutability": "view",
      "type": "function"
    },
    {
      "inputs": [
        {
          "internalType": "address",
          "name": "_token",
          "type": "address"
        },
        {
          "internalType": "address",
          "name": "_projectWallet",
          "type": "address"
        }
      ],
      "name": "billPremium",
      "outputs": [
        {
          "internalType": "bool",
          "name": "",
          "type": "bool"
        }
      ],
      "stateMutability": "nonpayable",
      "type": "function"
    },
    {
      "inputs": [
        {
          "internalType": "address",
          "name": "_token",
          "type": "address"
        },
        {
          "internalType": "address",
          "name": "_projectWallet",
          "type": "address"
        },
        {
          "internalType": "uint256",
          "name": "_amount",
          "type": "uint256"
        }
      ],
      "name": "bountyDeposit",
      "outputs": [
        {
          "internalType": "bool",
          "name": "",
          "type": "bool"
        }
      ],
      "stateMutability": "nonpayable",
      "type": "function"
    },
    {
      "inputs": [
        {
          "internalType": "address",
          "name": "_token",
          "type": "address"
        },
        {
          "internalType": "address",
          "name": "_staker",
          "type": "address"
        },
        {
          "internalType": "address",
          "name": "_projectWallet",
          "type": "address"
        }
      ],
      "name": "claimPremium",
      "outputs": [
        {
          "internalType": "uint256",
          "name": "",
          "type": "uint256"
        },
        {
          "internalType": "bool",
          "name": "",
          "type": "bool"
        }
      ],
      "stateMutability": "nonpayable",
      "type": "function"
    },
    {
      "inputs": [
        {
          "internalType": "address",
          "name": "_token",
          "type": "address"
        },
        {
          "internalType": "address",
          "name": "_saloonWallet",
          "type": "address"
        }
      ],
      "name": "collectSaloonPremiumFees",
      "outputs": [
        {
          "internalType": "uint256",
          "name": "",
          "type": "uint256"
        }
      ],
      "stateMutability": "nonpayable",
      "type": "function"
    },
    {
      "inputs": [],
      "name": "desiredAPY",
      "outputs": [
        {
          "internalType": "uint256",
          "name": "",
          "type": "uint256"
        }
      ],
      "stateMutability": "view",
      "type": "function"
    },
    {
      "inputs": [
        {
          "internalType": "address",
          "name": "_manager",
          "type": "address"
        }
      ],
      "name": "initializeImplementation",
      "outputs": [],
      "stateMutability": "nonpayable",
      "type": "function"
    },
    {
      "inputs": [
        {
          "internalType": "address",
          "name": "",
          "type": "address"
        }
      ],
      "name": "lastClaimed",
      "outputs": [
        {
          "internalType": "uint256",
          "name": "",
          "type": "uint256"
        }
      ],
      "stateMutability": "view",
      "type": "function"
    },
    {
      "inputs": [],
      "name": "lastTimePaid",
      "outputs": [
        {
          "internalType": "uint256",
          "name": "",
          "type": "uint256"
        }
      ],
      "stateMutability": "view",
      "type": "function"
    },
    {
      "inputs": [],
      "name": "manager",
      "outputs": [
        {
          "internalType": "address",
          "name": "",
          "type": "address"
        }
      ],
      "stateMutability": "view",
      "type": "function"
    },
    {
      "inputs": [],
      "name": "owner",
      "outputs": [
        {
          "internalType": "address",
          "name": "",
          "type": "address"
        }
      ],
      "stateMutability": "view",
      "type": "function"
    },
    {
      "inputs": [
        {
          "internalType": "address",
          "name": "_token",
          "type": "address"
        },
        {
          "internalType": "address",
          "name": "_saloonWallet",
          "type": "address"
        },
        {
          "internalType": "address",
          "name": "_hunter",
          "type": "address"
        },
        {
          "internalType": "uint256",
          "name": "_amount",
          "type": "uint256"
        }
      ],
      "name": "payBounty",
      "outputs": [
        {
          "internalType": "bool",
          "name": "",
          "type": "bool"
        }
      ],
      "stateMutability": "nonpayable",
      "type": "function"
    },
    {
      "inputs": [],
      "name": "poolCap",
      "outputs": [
        {
          "internalType": "uint256",
          "name": "",
          "type": "uint256"
        }
      ],
      "stateMutability": "view",
      "type": "function"
    },
    {
      "inputs": [
        {
          "internalType": "uint256",
          "name": "",
          "type": "uint256"
        }
      ],
      "name": "poolCapTimelock",
      "outputs": [
        {
          "internalType": "uint256",
          "name": "timelock",
          "type": "uint256"
        },
        {
          "internalType": "bool",
          "name": "executed",
          "type": "bool"
        }
      ],
      "stateMutability": "view",
      "type": "function"
    },
    {
      "inputs": [],
      "name": "poolPeriod",
      "outputs": [
        {
          "internalType": "uint256",
          "name": "",
          "type": "uint256"
        }
      ],
      "stateMutability": "view",
      "type": "function"
    },
    {
      "inputs": [],
      "name": "premiumBalance",
      "outputs": [
        {
          "internalType": "uint256",
          "name": "",
          "type": "uint256"
        }
      ],
      "stateMutability": "view",
      "type": "function"
    },
    {
      "inputs": [],
      "name": "projectDeposit",
      "outputs": [
        {
          "internalType": "uint256",
          "name": "",
          "type": "uint256"
        }
      ],
      "stateMutability": "view",
      "type": "function"
    },
    {
      "inputs": [
        {
          "internalType": "address",
          "name": "_token",
          "type": "address"
        },
        {
          "internalType": "address",
          "name": "_projectWallet",
          "type": "address"
        },
        {
          "internalType": "uint256",
          "name": "_amount",
          "type": "uint256"
        }
      ],
      "name": "projectDepositWithdrawal",
      "outputs": [
        {
          "internalType": "bool",
          "name": "",
          "type": "bool"
        }
      ],
      "stateMutability": "nonpayable",
      "type": "function"
    },
    {
      "inputs": [],
      "name": "renounceOwnership",
      "outputs": [],
      "stateMutability": "nonpayable",
      "type": "function"
    },
    {
      "inputs": [],
      "name": "requiredPremiumBalancePerPeriod",
      "outputs": [
        {
          "internalType": "uint256",
          "name": "",
          "type": "uint256"
        }
      ],
      "stateMutability": "view",
      "type": "function"
    },
    {
      "inputs": [],
      "name": "saloonBountyCommission",
      "outputs": [
        {
          "internalType": "uint256",
          "name": "",
          "type": "uint256"
        }
      ],
      "stateMutability": "view",
      "type": "function"
    },
    {
      "inputs": [],
      "name": "saloonPremiumFees",
      "outputs": [
        {
          "internalType": "uint256",
          "name": "",
          "type": "uint256"
        }
      ],
      "stateMutability": "view",
      "type": "function"
    },
    {
      "inputs": [
        {
          "internalType": "uint256",
          "name": "_newAPY",
          "type": "uint256"
        }
      ],
      "name": "scheduleAPYChange",
      "outputs": [],
      "stateMutability": "nonpayable",
      "type": "function"
    },
    {
      "inputs": [
        {
          "internalType": "uint256",
          "name": "_newPoolCap",
          "type": "uint256"
        }
      ],
      "name": "schedulePoolCapChange",
      "outputs": [],
      "stateMutability": "nonpayable",
      "type": "function"
    },
    {
      "inputs": [
        {
          "internalType": "address",
          "name": "_staker",
          "type": "address"
        },
        {
          "internalType": "uint256",
          "name": "_amount",
          "type": "uint256"
        }
      ],
      "name": "scheduleUnstake",
      "outputs": [
        {
          "internalType": "bool",
          "name": "",
          "type": "bool"
        }
      ],
      "stateMutability": "nonpayable",
      "type": "function"
    },
    {
      "inputs": [
        {
          "internalType": "uint256",
          "name": "_amount",
          "type": "uint256"
        }
      ],
      "name": "scheduleprojectDepositWithdrawal",
      "outputs": [
        {
          "internalType": "bool",
          "name": "",
          "type": "bool"
        }
      ],
      "stateMutability": "nonpayable",
      "type": "function"
    },
    {
      "inputs": [
        {
          "internalType": "address",
          "name": "_token",
          "type": "address"
        },
        {
          "internalType": "address",
          "name": "_projectWallet",
          "type": "address"
        },
        {
          "internalType": "uint256",
          "name": "_desiredAPY",
          "type": "uint256"
        }
      ],
      "name": "setDesiredAPY",
      "outputs": [
        {
          "internalType": "bool",
          "name": "",
          "type": "bool"
        }
      ],
      "stateMutability": "nonpayable",
      "type": "function"
    },
    {
      "inputs": [
        {
          "internalType": "uint256",
          "name": "_amount",
          "type": "uint256"
        }
      ],
      "name": "setPoolCap",
      "outputs": [],
      "stateMutability": "nonpayable",
      "type": "function"
    },
    {
      "inputs": [
        {
          "internalType": "address",
          "name": "_token",
          "type": "address"
        },
        {
          "internalType": "address",
          "name": "_staker",
          "type": "address"
        },
        {
          "internalType": "uint256",
          "name": "_amount",
          "type": "uint256"
        }
      ],
      "name": "stake",
      "outputs": [
        {
          "internalType": "bool",
          "name": "",
          "type": "bool"
        }
      ],
      "stateMutability": "nonpayable",
      "type": "function"
    },
    {
      "inputs": [
        {
          "internalType": "address",
          "name": "",
          "type": "address"
        },
        {
          "internalType": "uint256",
          "name": "",
          "type": "uint256"
        }
      ],
      "name": "staker",
      "outputs": [
        {
          "internalType": "uint256",
          "name": "stakeBalance",
          "type": "uint256"
        },
        {
          "internalType": "uint256",
          "name": "balanceTimeStamp",
          "type": "uint256"
        }
      ],
      "stateMutability": "view",
      "type": "function"
    },
    {
      "inputs": [
        {
          "internalType": "uint256",
          "name": "",
          "type": "uint256"
        }
      ],
      "name": "stakerList",
      "outputs": [
        {
          "internalType": "address",
          "name": "",
          "type": "address"
        }
      ],
      "stateMutability": "view",
      "type": "function"
    },
    {
      "inputs": [
        {
          "internalType": "address",
          "name": "",
          "type": "address"
        },
        {
          "internalType": "uint256",
          "name": "",
          "type": "uint256"
        }
      ],
      "name": "stakerTimelock",
      "outputs": [
        {
          "internalType": "uint256",
          "name": "timelock",
          "type": "uint256"
        },
        {
          "internalType": "bool",
          "name": "executed",
          "type": "bool"
        }
      ],
      "stateMutability": "view",
      "type": "function"
    },
    {
      "inputs": [
        {
          "internalType": "uint256",
          "name": "",
          "type": "uint256"
        }
      ],
      "name": "stakersDeposit",
      "outputs": [
        {
          "internalType": "uint256",
          "name": "stakeBalance",
          "type": "uint256"
        },
        {
          "internalType": "uint256",
          "name": "balanceTimeStamp",
          "type": "uint256"
        }
      ],
      "stateMutability": "view",
      "type": "function"
    },
    {
      "inputs": [
        {
          "internalType": "address",
          "name": "newOwner",
          "type": "address"
        }
      ],
      "name": "transferOwnership",
      "outputs": [],
      "stateMutability": "nonpayable",
      "type": "function"
    },
    {
      "inputs": [
        {
          "internalType": "address",
          "name": "_token",
          "type": "address"
        },
        {
          "internalType": "address",
          "name": "_staker",
          "type": "address"
        },
        {
          "internalType": "uint256",
          "name": "_amount",
          "type": "uint256"
        }
      ],
      "name": "unstake",
      "outputs": [
        {
          "internalType": "bool",
          "name": "",
          "type": "bool"
        }
      ],
      "stateMutability": "nonpayable",
      "type": "function"
    },
    {
      "inputs": [],
      "name": "viewBountyBalance",
      "outputs": [
        {
          "internalType": "uint256",
          "name": "",
          "type": "uint256"
        }
      ],
      "stateMutability": "view",
      "type": "function"
    },
    {
      "inputs": [],
      "name": "viewDesiredAPY",
      "outputs": [
        {
          "internalType": "uint256",
          "name": "",
          "type": "uint256"
        }
      ],
      "stateMutability": "view",
      "type": "function"
    },
    {
      "inputs": [],
      "name": "viewHackerPayout",
      "outputs": [
        {
          "internalType": "uint256",
          "name": "",
          "type": "uint256"
        }
      ],
      "stateMutability": "view",
      "type": "function"
    },
    {
      "inputs": [],
      "name": "viewPoolCap",
      "outputs": [
        {
          "internalType": "uint256",
          "name": "",
          "type": "uint256"
        }
      ],
      "stateMutability": "view",
      "type": "function"
    },
    {
      "inputs": [],
      "name": "viewPremiumBalance",
      "outputs": [
        {
          "internalType": "uint256",
          "name": "",
          "type": "uint256"
        }
      ],
      "stateMutability": "view",
      "type": "function"
    },
    {
      "inputs": [],
      "name": "viewProjecDeposit",
      "outputs": [
        {
          "internalType": "uint256",
          "name": "",
          "type": "uint256"
        }
      ],
      "stateMutability": "view",
      "type": "function"
    },
    {
      "inputs": [],
      "name": "viewRequirePremiumBalance",
      "outputs": [
        {
          "internalType": "uint256",
          "name": "",
          "type": "uint256"
        }
      ],
      "stateMutability": "view",
      "type": "function"
    },
    {
      "inputs": [],
      "name": "viewStakersDeposit",
      "outputs": [
        {
          "internalType": "uint256",
          "name": "",
          "type": "uint256"
        }
      ],
      "stateMutability": "view",
      "type": "function"
    },
    {
      "inputs": [
        {
          "internalType": "address",
          "name": "_staker",
          "type": "address"
        }
      ],
      "name": "viewUserStakingBalance",
      "outputs": [
        {
          "internalType": "uint256",
          "name": "",
          "type": "uint256"
        },
        {
          "internalType": "uint256",
          "name": "",
          "type": "uint256"
        }
      ],
      "stateMutability": "view",
      "type": "function"
    },
    {
      "inputs": [],
      "name": "viewcurrentAPY",
      "outputs": [
        {
          "internalType": "uint256",
          "name": "",
          "type": "uint256"
        }
      ],
      "stateMutability": "view",
      "type": "function"
    },
    {
      "inputs": [
        {
          "internalType": "uint256",
          "name": "",
          "type": "uint256"
        }
      ],
      "name": "withdrawalTimelock",
      "outputs": [
        {
          "internalType": "uint256",
          "name": "timelock",
          "type": "uint256"
        },
        {
          "internalType": "bool",
          "name": "executed",
          "type": "bool"
        }
      ],
      "stateMutability": "view",
      "type": "function"
    }
  ],
  "bytecode": {
    "object": "0x608060405262127500600a553480156200001857600080fd5b5062000024336200002a565b6200007a565b600080546001600160a01b038381166001600160a01b0319831681178455604051919092169283917f8be0079c531659141344cd1fd0a4f28419497f9722a3daafe3b4186f6b6457e09190a35050565b613a26806200008a6000396000f3fe608060405234801561001057600080fd5b50600436106103275760003560e01c806378eb46fd116101b8578063bf6eac2f11610104578063d835f535116100a2578063ed6ea1641161007c578063ed6ea164146106a8578063f2fde38b146106d2578063ff45d4c0146106e5578063ffa1ad74146106ed57600080fd5b8063d835f5351461067a578063ddaaae031461068d578063e45080e6146106a057600080fd5b8063cc12c311116100de578063cc12c31114610657578063d084b03a1461066a578063d26c90a9146104a5578063d5cb86691461067257600080fd5b8063bf6eac2f14610622578063c790ef8214610635578063c9e66d411461064857600080fd5b8063918f867411610171578063a4bf70bd1161014b578063a4bf70bd146105d7578063b404baa1146105e0578063b954dc571461060a578063bb8627851461061357600080fd5b8063918f8674146105a15780639e4bfaa5146105b1578063a194c3b6146105c457600080fd5b806378eb46fd146105375780637a5001e71461053f578063839145401461056957806384dc10b4146105745780638aa82e821461057d5780638da5cb5b1461059057600080fd5b806345042dec11610277578063503cb917116102305780636b01eab31161020a5780636b01eab3146104de578063715018a61461051357806372d269511461051b57806373927c111461052457600080fd5b8063503cb917146104a55780635121ac9d146104b857806360829f8a146104cb57600080fd5b806345042dec14610450578063481c6a75146104595780634a94bcb31461046c5780634b5df6cc146104745780634b8e0d37146104875780634c3bdee01461049c57600080fd5b80633147096d116102e45780633a5b0172116102be5780633a5b01721461041e5780633d850fb21461042b578063419b7bd71461043457806344ebc03d1461044757600080fd5b80633147096d146103c8578063348e50c6146103eb578063383639b31461041657600080fd5b8063013eba921461032c5780631104ec251461035f57806316e17b8d146103685780631a89cabd1461037057806320d83086146103985780633065f450146103a0575b600080fd5b61034c61033a366004613678565b600b6020526000908152604090205481565b6040519081526020015b60405180910390f35b61034c60085481565b61034c6106f5565b61038361037e366004613678565b6107ad565b60408051928352602083019190915201610356565b60055461034c565b6103b36103ae366004613693565b610844565b60408051928352901515602083015201610356565b6103db6103d63660046136d6565b610a4a565b6040519015158152602001610356565b6103fe6103f9366004613712565b610ab0565b6040516001600160a01b039091168152602001610356565b60025461034c565b6017546103db9060ff1681565b61034c60045481565b6103db6104423660046136d6565b610ada565b61034c60055481565b61034c600a5481565b6001546103fe906001600160a01b031681565b61034c610bc0565b6103db610482366004613712565b610cba565b61049a610495366004613678565b610d1a565b005b61034c60095481565b61049a6104b3366004613712565b610e5a565b61034c6104c636600461372b565b610eb0565b6103db6104d93660046136d6565b610f03565b6103b36104ec36600461375e565b600d6020908152600092835260408084209091529082529020805460019091015460ff1682565b61049a6113bc565b61034c60025481565b6103db610532366004613788565b6113d0565b60065461034c565b6103b361054d366004613712565b6010602052600090815260409020805460019091015460ff1682565b61034c6301e1338081565b61034c60065481565b6103db61058b36600461372b565b6119b5565b6000546001600160a01b03166103fe565b61034c68056bc75e2d6310000081565b6103836105bf36600461375e565b611c47565b6103836105d2366004613712565b611c83565b61034c60035481565b6103b36105ee366004613712565b600f602052600090815260409020805460019091015460ff1682565b61034c60075481565b61034c671bc16d674ec8000081565b6103db6106303660046136d6565b611cb1565b6103db61064336600461375e565b612145565b61034c678ac7230489e8000081565b6103db6106653660046136d6565b612266565b60095461034c565b61034c61266f565b61049a610688366004613712565b612682565b61038361069b366004613712565b61273c565b61034c61274c565b6103b36106b6366004613712565b600e602052600090815260409020805460019091015460ff1682565b61049a6106e0366004613678565b612806565b60075461034c565b61034c600181565b6000806013805480602002602001604051908101604052809291908181526020016000905b828210156107605783829060005260206000209060020201604051806040016040529081600082015481526020016001820154815250508152602001906001019061071a565b505082519293505050806107775760009250505090565b60136107846001836137e9565b8154811061079457610794613800565b9060005260206000209060020201600001549250505090565b6001600160a01b0381166000908152600c60205260408120805482916107d46001836137e9565b815481106107e4576107e4613800565b600091825260208083206002909202909101546001600160a01b0387168352600c90915260409091206108186001846137e9565b8154811061082857610828613800565b9060005260206000209060020201600101549250925050915091565b60015460009081906001600160a01b0316331461087c5760405162461bcd60e51b815260040161087390613816565b60405180910390fd5b6001600160a01b0384166000908152600b6020526040812054906108a082426137e9565b600a546001600160a01b0388166000908152600c6020908152604080832080548251818502810185019093528083529596509394929390929091849084015b82821015610925578382906000526020600020906002020160405180604001604052908160008201548152602001600182015481525050815260200190600101906108df565b505082516005549394509291506000905061094187858561287f565b9050600068056bc75e2d63100000610961671bc16d674ec8000084613844565b61096b9190613863565b905061097781836137e9565b9150818084101561098e5761098c8e8d6119b5565b505b60405163a9059cbb60e01b81526001600160a01b038e81166004830152602482018390528f169063a9059cbb906044016020604051808303816000875af11580156109dd573d6000803e3d6000fd5b505050506040513d601f19601f82011682018060405250810190610a019190613885565b508260056000828254610a1491906137e9565b90915550506001600160a01b038d166000908152600b602052604090204290559950600198505050505050505050935093915050565b6001546000906001600160a01b03163314610a775760405162461bcd60e51b815260040161087390613816565b610a8c6001600160a01b038516843085612908565b508160026000828254610a9f91906138a7565b9091555060019150505b9392505050565b60118181548110610ac057600080fd5b6000918252602090912001546001600160a01b0316905081565b6001546000906001600160a01b03163314610b075760405162461bcd60e51b815260040161087390613816565b60008281526010602052604090205442118015610b36575060008281526010602052604090206001015460ff16155b8015610b4f575060008281526010602052604090205415155b610b6b5760405162461bcd60e51b8152600401610873906138bf565b60008281526010602052604081206001908101805460ff1916909117905560028054849290610b9b9084906137e9565b90915550610bb590506001600160a01b0385168484612976565b506001949350505050565b6000806013805480602002602001604051908101604052809291908181526020016000905b82821015610c2b57838290600052602060002090600202016040518060400160405290816000820154815260200160018201548152505081526020019060010190610be5565b50508251929350600091505081610c455750600254610c7d565b82610c516001846137e9565b81518110610c6157610c61613800565b602002602001015160000151600254610c7a91906138a7565b90505b600068056bc75e2d63100000610c9b678ac7230489e8000084613844565b610ca59190613863565b9050610cb181836137e9565b94505050505090565b6001546000906001600160a01b03163314610ce75760405162461bcd60e51b815260040161087390613816565b600a54610cf490426138a7565b60008381526010602052604090209081556001908101805460ff1916905590505b919050565b600054600160a81b900460ff1615808015610d4257506000546001600160a01b90910460ff16105b80610d635750303b158015610d635750600054600160a01b900460ff166001145b610dc65760405162461bcd60e51b815260206004820152602e60248201527f496e697469616c697a61626c653a20636f6e747261637420697320616c72656160448201526d191e481a5b9a5d1a585b1a5e995960921b6064820152608401610873565b6000805460ff60a01b1916600160a01b1790558015610df3576000805460ff60a81b1916600160a81b1790555b600180546001600160a01b0319166001600160a01b0384161790558015610e56576000805460ff60a81b19169055604051600181527f7f26b83ff96e1f2b6a682f133852f6798a09c465da95921460cefb38474024989060200160405180910390a15b5050565b6001546001600160a01b03163314610e845760405162461bcd60e51b815260040161087390613816565b600a54610e9190426138a7565b6000918252600e6020526040909120908155600101805460ff19169055565b6001546000906001600160a01b03163314610edd5760405162461bcd60e51b815260040161087390613816565b600454610ef46001600160a01b0385168483612976565b50600060045590505b92915050565b6001546000906001600160a01b03163314610f305760405162461bcd60e51b815260040161087390613816565b600654151580610f47575060175460ff1615156001145b15610aa9576001600160a01b0383166000908152600d6020908152604080832085845290915290205442118015610fa557506001600160a01b0383166000908152600d6020908152604080832085845290915290206001015460ff16155b8015610fd357506001600160a01b0383166000908152600d6020908152604080832085845290915290205415155b610fef5760405162461bcd60e51b8152600401610873906138bf565b6001600160a01b0383166000818152600d6020908152604080832086845282528083206001908101805460ff191682179055938352600c9091528120549091611037916137e9565b9050611056604051806040016040528060008152602001600081525090565b426020808301919091526001600160a01b0386166000908152600c9091526040902080548591908490811061108d5761108d613800565b9060005260206000209060020201600001546110a991906137e9565b815260118054604080516020808402820181019092528281526000939092909183018282801561110257602002820191906000526020600020905b81546001600160a01b031681526001909101906020018083116110e4575b5050505050905081600001516000141561125257805160005b8181101561124f57876001600160a01b031683828151811061113f5761113f613800565b60200260200101516001600160a01b03161415611247576000836111646001856137e9565b8151811061117457611174613800565b6020026020010151905088601160018561118e91906137e9565b8154811061119e5761119e613800565b9060005260206000200160006101000a8154816001600160a01b0302191690836001600160a01b0316021790555080601183815481106111e0576111e0613800565b9060005260206000200160006101000a8154816001600160a01b0302191690836001600160a01b03160217905550601180548061121f5761121f613900565b600082815260209020810160001990810180546001600160a01b03191690550190555061124f565b60010161111b565b50505b6001600160a01b0386166000908152600c60209081526040808320805460018181018355918552838520875160029092020190815586840151910155601380548251818502810185019093528083529192909190849084015b828210156112f1578382906000526020600020906002020160405180604001604052908160008201548152602001600182015481525050815260200190600101906112ab565b50505050905060006001825161130791906137e9565b9050611326604051806040016040528060008152602001600081525090565b8783838151811061133957611339613800565b60200260200101516000015161134f91906137e9565b815242602082019081526013805460018101825560009190915282516000805160206139b183398151915260029092029182015590516000805160206139d1833981519152909101556113ac6001600160a01b038b168a8a612976565b5060019650505050505050610aa9565b6113c46129b3565b6113ce6000612a0d565b565b6001546000906001600160a01b031633146113fd5760405162461bcd60e51b815260040161087390613816565b60006013805480602002602001604051908101604052809291908181526020016000905b8282101561146757838290600052602060002090600202016040518060400160405290816000820154815260200160018201548152505081526020019060010190611421565b50505050905060006001825161147d91906137e9565b9050600060118054806020026020016040519081016040528092919081815260200182805480156114d757602002820191906000526020600020905b81546001600160a01b031681526001909101906020018083116114b9575b50505050509050600081519050858484815181106114f7576114f7613800565b6020026020010151600001511061184b578584848151811061151b5761151b613800565b602002602001015160000181815161153391906137e9565b9052506040805180820190915260008152426020820152845185908590811061155e5761155e613800565b6020908102919091010151518152845185908590811061158057611580613800565b6020026020010151600001516000141561168a5760005b828110156116215760408051808201909152600080825242602083015285518690849081106115c8576115c8613800565b6020908102919091018101516001600160a01b03166000908152600c82526040812080546001818101835591835291839020855160029093020191825593909101519201919091555061161a81613916565b9050611597565b5061162e8a898b8a612a5d565b5060138054600181018255600091825282516000805160206139b183398151915260029092029182015560208301516000805160206139d18339815191529091015561167c9060119061362f565b6001955050505050506119ad565b600085858151811061169e5761169e613800565b602002602001015160000151886116b59190613863565b905060005b838110156117ec5760008582815181106116d6576116d6613800565b6020908102919091018101516001600160a01b0381166000908152600c909252604082205490925061170a906001906137e9565b6001600160a01b0383166000908152600c60205260408120805492935090918390811061173957611739613800565b906000526020600020906002020160000154905061176a604051806040016040528060008152602001600081525090565b42602082015268056bc75e2d631000006117848784613844565b61178e9190613863565b61179890836137e9565b81526001600160a01b039093166000908152600c602090815260408220805460018181018355918452928290208651600290940201928355940151930192909255506117e5905081613916565b90506116ba565b506013805460018101825560009190915282516000805160206139b183398151915260029092029182015560208301516000805160206139d18339815191529091015561183b8b8a8c8b612a5d565b50600196505050505050506119ad565b60005b818110156118d857604080518082019091526000808252426020830152845185908490811061187f5761187f613800565b6020908102919091018101516001600160a01b03166000908152600c8252604081208054600181810183559183529183902085516002909302019182559390910151920191909155506118d181613916565b905061184e565b506118e56011600061362f565b60008484815181106118f9576118f9613800565b6020026020010151600001518761191091906137e9565b9050806002600082825461192491906137e9565b90915550506040805180820190915260008152426020820152855186908690811061195157611951613800565b6020908102919091018101515182526013805460018101825560009190915282516000805160206139b1833981519152600290920291820155908201516000805160206139d18339815191529091015561183b8b8a8c8b612a5d565b949350505050565b6001546000906001600160a01b03163314806119d057503330145b611a1c5760405162461bcd60e51b815260206004820152601c60248201527f4f6e6c79206d616e61676572206f722073656c6620616c6c6f776564000000006044820152606401610873565b60006013805480602002602001604051908101604052809291908181526020016000905b82821015611a8657838290600052602060002090600202016040518060400160405290816000820154815260200160018201548152505081526020019060010190611a40565b50508251600854600654949550909390925090506000611aa882858588612acd565b6040516323b872dd60e01b81526001600160a01b03898116600483015230602483015260448201839052919250908916906323b872dd906064016020604051808303816000875af1925050508015611b1d575060408051601f3d908101601f19168201909252611b1a91810190613885565b60015b611bcf576040805180820190915260006020820152428152611b3d61266f565b602082019081526012805460018101825560009190915282517fbb8a6a4669ba250d26cd7a459eca9d215f8307e33aebe50379bc5a3617ec344460029092029182015590517fbb8a6a4669ba250d26cd7a459eca9d215f8307e33aebe50379bc5a3617ec344590910155611baf61266f565b60065550506017805460ff191660011790555060009350610efd92505050565b50600068056bc75e2d63100000611bee671bc16d674ec8000084613844565b611bf89190613863565b90508060046000828254611c0c91906138a7565b925050819055508160056000828254611c2591906138a7565b90915550504260085550506017805460ff191690555060019695505050505050565b600c6020528160005260406000208181548110611c6357600080fd5b600091825260209091206002909102018054600190910154909250905082565b60138181548110611c9357600080fd5b60009182526020909120600290910201805460019091015490915082565b6001546000906001600160a01b03163314611cde5760405162461bcd60e51b815260040161087390613816565b60006013805480602002602001604051908101604052809291908181526020016000905b82821015611d4857838290600052602060002090600202016040518060400160405290816000820154815260200160018201548152505081526020019060010190611d02565b50508251929350505080611da8576040805180820190915260008082526020820181815260138054600181018255925291516000805160206139b183398151915260029092029182015590516000805160206139d1833981519152909101555b601354600090611dba906001906137e9565b90506007548560138381548110611dd357611dd3613800565b906000526020600020906002020160000154611def91906138a7565b1115611e3d5760405162461bcd60e51b815260206004820152601960248201527f5374616b696e6720506f6f6c20616c72656164792066756c6c000000000000006044820152606401610873565b6001600160a01b0386166000908152600c602052604090205480611ea757604080518082018252600080825260208083018281526001600160a01b038c168352600c8252938220805460018082018355918452919092209251600290910290920191825591519101555b6001600160a01b0387166000908152600c6020526040812054611ecc906001906137e9565b6001600160a01b0389166000908152600c6020526040902080549192509082908110611efa57611efa613800565b90600052602060002090600202016000015460001415611f6057601180546001810182556000919091527f31ecc21a745e3968a04e9570e4425bc18fa8019c68028196b546d1669c200c680180546001600160a01b0319166001600160a01b038a161790555b6040805180820182526000808252426020808401919091526001600160a01b038c168252600c905291909120805489919084908110611fa157611fa1613800565b906000526020600020906002020160000154611fbd91906138a7565b815282612015576001600160a01b0389166000908152600c60205260409020805482919084908110611ff157611ff1613800565b60009182526020918290208351600290920201908155910151600190910155612052565b6001600160a01b0389166000908152600c602090815260408220805460018181018355918452928290208451600290940201928355908301519101555b6040805180820190915260008082526020820152886013868154811061207a5761207a613800565b90600052602060002090600202016000015461209691906138a7565b8152426020820152856120db5780601386815481106120b7576120b7613800565b6000918252602091829020835160029092020190815591015160019091015561211e565b6013805460018101825560009190915281516000805160206139b183398151915260029092029182015560208201516000805160206139d1833981519152909101555b6121336001600160a01b038c168b308c612908565b5060019b9a5050505050505050505050565b6001546000906001600160a01b031633146121725760405162461bcd60e51b815260040161087390613816565b6001600160a01b0383166000908152600c6020526040812054612197906001906137e9565b6001600160a01b0385166000908152600c6020526040902080549192508491839081106121c6576121c6613800565b906000526020600020906002020160000154101561221d5760405162461bcd60e51b8152602060048201526014602482015273496e73756669636369656e742062616c616e636560601b6044820152606401610873565b600a5461222a90426138a7565b6001600160a01b03949094166000908152600d602090815260408083209583529490529290922092835550506001908101805460ff1916905590565b6001546000906001600160a01b031633146122935760405162461bcd60e51b815260040161087390613816565b6006541561231e576000828152600f6020526040902054421180156122ca57506000828152600f602052604090206001015460ff16155b80156122e357506000828152600f602052604090205415155b6122ff5760405162461bcd60e51b8152600401610873906138bf565b6000828152600f602052604090206001908101805460ff191690911790555b600060055490506000806013805480602002602001604051908101604052809291908181526020016000905b828210156123905783829060005260206000209060020201604051806040016040529081600082015481526020016001820154815250508152602001906001019061234a565b5050825192935050811590506123e057816123ac6001836137e9565b815181106123bc576123bc613800565b6020026020010151600001516000146123db576123d988886119b5565b505b612465565b600a546301e1338068056bc75e2d63100000886007546124009190613844565b61240a9190613863565b6124149190613863565b61241e9190613844565b92508284101561246557600061243485856137e9565b905061244b6001600160a01b038a16893084612908565b50806005600082825461245e91906138a7565b9091555050505b6009839055604080518082018252428152602080820189815260128054600181018255600091825284517fbb8a6a4669ba250d26cd7a459eca9d215f8307e33aebe50379bc5a3617ec344460029092029182015591517fbb8a6a4669ba250d26cd7a459eca9d215f8307e33aebe50379bc5a3617ec34459092019190915560068a90556011805485518185028101850190965280865293949193919290919083018282801561253d57602002820191906000526020600020905b81546001600160a01b0316815260019091019060200180831161251f575b505050505090506000815111156126555760006001825161255e91906137e9565b905060005b8181101561265257600083828151811061257f5761257f613800565b6020908102919091018101516001600160a01b0381166000908152600c90925260408220549092506125b3906001906137e9565b90506125d2604051806040016040528060008152602001600081525090565b6001600160a01b0383166000908152600c602052604090208054839081106125fc576125fc613800565b60009182526020808320600292830201548452428482019081526001600160a01b039096168352600c81526040832080546001818101835591855291909320935191029092019182559251908301555001612563565b50505b50506017805460ff19169055506001979650505050505050565b600080600754600554610efd9190613863565b6001546001600160a01b031633146126ac5760405162461bcd60e51b815260040161087390613816565b60075415612737576000818152600e6020526040902054421180156126e357506000818152600e602052604090206001015460ff16155b80156126fc57506000818152600e602052604090205415155b6127185760405162461bcd60e51b8152600401610873906138bf565b6000818152600e602052604090206001908101805460ff191690911790555b600755565b60128181548110611c9357600080fd5b6000806013805480602002602001604051908101604052809291908181526020016000905b828210156127b757838290600052602060002090600202016040518060400160405290816000820154815260200160018201548152505081526020019060010190612771565b505082519293506000915050816127d15750600254610aa9565b826127dd6001846137e9565b815181106127ed576127ed613800565b6020026020010151600001516002546119ad91906138a7565b61280e6129b3565b6001600160a01b0381166128735760405162461bcd60e51b815260206004820152602660248201527f4f776e61626c653a206e6577206f776e657220697320746865207a65726f206160448201526564647265737360d01b6064820152608401610873565b61287c81612a0d565b50565b6000806012805480602002602001604051908101604052809291908181526020016000905b828210156128ea578382906000526020600020906002020160405180604001604052908160008201548152602001600182015481525050815260200190600101906128a4565b50505050905060006128fe86868685612eb9565b9695505050505050565b6040516001600160a01b0380851660248301528316604482015260648101829052600090610bb59086906323b872dd60e01b906084015b60408051601f198184030181529190526020810180516001600160e01b03166001600160e01b0319909316929092179091526131a1565b6040516001600160a01b0383166024820152604481018290526000906129a990859063a9059cbb60e01b9060640161293f565b5060019392505050565b6000546001600160a01b031633146113ce5760405162461bcd60e51b815260206004820181905260248201527f4f776e61626c653a2063616c6c6572206973206e6f7420746865206f776e65726044820152606401610873565b600080546001600160a01b038381166001600160a01b0319831681178455604051919092169283917f8be0079c531659141344cd1fd0a4f28419497f9722a3daafe3b4186f6b6457e09190a35050565b60008068056bc75e2d63100000612a7c678ac7230489e8000085613844565b612a869190613863565b90506000612a9482856137e9565b9050612aaa6001600160a01b0388168783612976565b50612abf6001600160a01b0388168684612976565b506001979650505050505050565b60008060005b85811015612b465784848281518110612aee57612aee613800565b6020026020010151602001511115612b3657601580546001810182556000919091527f55f448fdea98c4d29eb340757ef0a66cd03dbb9538908a6a81d96026b71ec475018190555b612b3f81613916565b9050612ad3565b5060006015805480602002602001604051908101604052809291908181526020018280548015612b9557602002820191906000526020600020905b815481526020019060010190808311612b81575b505083519394506000925050505b81811015612ea057600087612c9157612bbd6001846137e9565b821415612c0d5786848381518110612bd757612bd7613800565b602002602001015181518110612bef57612bef613800565b60200260200101516020015142612c0691906137e9565b9050612e12565b86848381518110612c2057612c20613800565b602002602001015181518110612c3857612c38613800565b6020026020010151602001518785846001612c5391906138a7565b81518110612c6357612c63613800565b602002602001015181518110612c7b57612c7b613800565b602002602001015160200151612c0691906137e9565b81612d665786848381518110612ca957612ca9613800565b602002602001015181518110612cc157612cc1613800565b6020026020010151602001518785846001612cdc91906138a7565b81518110612cec57612cec613800565b602002602001015181518110612d0457612d04613800565b602002602001015160200151612d1a91906137e9565b87858481518110612d2d57612d2d613800565b602002602001015181518110612d4557612d45613800565b60200260200101516020015189612d5c91906137e9565b612c0691906138a7565b612d716001846137e9565b821415612d8b5786848381518110612bd757612bd7613800565b86848381518110612d9e57612d9e613800565b602002602001015181518110612db657612db6613800565b6020026020010151602001518785846001612dd191906138a7565b81518110612de157612de1613800565b602002602001015181518110612df957612df9613800565b602002602001015160200151612e0f91906137e9565b90505b806301e1338068056bc75e2d631000008c8a888781518110612e3657612e36613800565b602002602001015181518110612e4e57612e4e613800565b602002602001015160000151612e649190613844565b612e6e9190613863565b612e789190613863565b612e829190613844565b612e8c90866138a7565b94505080612e9990613916565b9050612ba3565b50612ead6015600061362f565b50909695505050505050565b805160009081808088612f815760005b84811015612f7b57868181518110612ee357612ee3613800565b6020026020010151600001519250600185612efe91906137e9565b811415612f0d57429150612f38565b86612f198260016138a7565b81518110612f2957612f29613800565b60200260200101516000015191505b6000878281518110612f4c57612f4c613800565b6020026020010151602001519050612f678185858d8d613278565b94505080612f7490613916565b9050612ec9565b50613194565b60005b8481101561302a5789878281518110612f9f57612f9f613800565b602002602001015160000151111561301a576014612fbe6001836137e9565b815460018181018455600093845260209093200155612fdd90866137e9565b81141561301a57601480546001810182556000919091527fce6d7b5282bd9a3661ae061feed1dbda4e52ab073b1f9285be6e155d9c38d4ec018190555b61302381613916565b9050612f84565b506000601480548060200260200160405190810160405280929190818152602001828054801561307957602002820191906000526020600020905b815481526020019060010190808311613065575b505083519394506000925050505b81811015613190578061309c578b94506130d6565b888382815181106130af576130af613800565b6020026020010151815181106130c7576130c7613800565b60200260200101516000015194505b6130e16001886137e9565b8114156130f057429350613134565b88836130fd8360016138a7565b8151811061310d5761310d613800565b60200260200101518151811061312557613125613800565b60200260200101516000015193505b60008984838151811061314957613149613800565b60200260200101518151811061316157613161613800565b602002602001015160200151905061317c8187878f8f613278565b9650508061318990613916565b9050613087565b5050505b5090979650505050505050565b60006131f6826040518060400160405280602081526020017f5361666545524332303a206c6f772d6c6576656c2063616c6c206661696c6564815250856001600160a01b031661350f9092919063ffffffff16565b80519091501561327357808060200190518101906132149190613885565b6132735760405162461bcd60e51b815260206004820152602a60248201527f5361666545524332303a204552433230206f7065726174696f6e20646964206e6044820152691bdd081cdd58d8d9595960b21b6064820152608401610873565b505050565b6000806000805b8481101561331a578786828151811061329a5761329a613800565b6020026020010151602001511180156132cf5750868682815181106132c1576132c1613800565b602002602001015160200151105b1561330a57601680546001810182556000919091527fd833147d7dc355ba459fc788f669e58cfaf9dc25ddcd0702e87d69c7b5124289018190555b61331381613916565b905061327f565b506000601680548060200260200160405190810160405280929190818152602001828054801561336957602002820191906000526020600020905b815481526020019060010190808311613355575b505083519394506000925050505b818110156134f35761338a6001836137e9565b8114156133da57878382815181106133a4576133a4613800565b6020026020010151815181106133bc576133bc613800565b602002602001015160200151426133d391906137e9565b9350613461565b878382815181106133ed576133ed613800565b60200260200101518151811061340557613405613800565b602002602001015160200151888483600161342091906138a7565b8151811061343057613430613800565b60200260200101518151811061344857613448613800565b60200260200101516020015161345e91906137e9565b93505b6000846301e1338068056bc75e2d631000008e8c88878151811061348757613487613800565b60200260200101518151811061349f5761349f613800565b6020026020010151600001516134b59190613844565b6134bf9190613863565b6134c99190613863565b6134d39190613844565b90506134df81876138a7565b955050806134ec90613916565b9050613377565b50505060166000613504919061362f565b509695505050505050565b60606119ad848460008585600080866001600160a01b031685876040516135369190613961565b60006040518083038185875af1925050503d8060008114613573576040519150601f19603f3d011682016040523d82523d6000602084013e613578565b606091505b509150915061358987838387613594565b979650505050505050565b606083156136005782516135f9576001600160a01b0385163b6135f95760405162461bcd60e51b815260206004820152601d60248201527f416464726573733a2063616c6c20746f206e6f6e2d636f6e74726163740000006044820152606401610873565b50816119ad565b6119ad83838151156136155781518083602001fd5b8060405162461bcd60e51b8152600401610873919061397d565b508054600082559060005260206000209081019061287c91905b8082111561365d5760008155600101613649565b5090565b80356001600160a01b0381168114610d1557600080fd5b60006020828403121561368a57600080fd5b610aa982613661565b6000806000606084860312156136a857600080fd5b6136b184613661565b92506136bf60208501613661565b91506136cd60408501613661565b90509250925092565b6000806000606084860312156136eb57600080fd5b6136f484613661565b925061370260208501613661565b9150604084013590509250925092565b60006020828403121561372457600080fd5b5035919050565b6000806040838503121561373e57600080fd5b61374783613661565b915061375560208401613661565b90509250929050565b6000806040838503121561377157600080fd5b61377a83613661565b946020939093013593505050565b6000806000806080858703121561379e57600080fd5b6137a785613661565b93506137b560208601613661565b92506137c360408601613661565b9396929550929360600135925050565b634e487b7160e01b600052601160045260246000fd5b6000828210156137fb576137fb6137d3565b500390565b634e487b7160e01b600052603260045260246000fd5b60208082526014908201527313db9b1e481b585b9859d95c88185b1b1bddd95960621b604082015260600190565b600081600019048311821515161561385e5761385e6137d3565b500290565b60008261388057634e487b7160e01b600052601260045260246000fd5b500490565b60006020828403121561389757600080fd5b81518015158114610aa957600080fd5b600082198211156138ba576138ba6137d3565b500190565b60208082526021908201527f54696d656c6f636b206e6f7420736574206f72206e6f7420636f6d706c6574656040820152601960fa1b606082015260800190565b634e487b7160e01b600052603160045260246000fd5b600060001982141561392a5761392a6137d3565b5060010190565b60005b8381101561394c578181015183820152602001613934565b8381111561395b576000848401525b50505050565b60008251613973818460208701613931565b9190910192915050565b602081526000825180602084015261399c816040850160208701613931565b601f01601f1916919091016040019291505056fe66de8ffda797e3de9c05e8fc57b3bf0ec28a930d40b0d285d93c06501cf6a09066de8ffda797e3de9c05e8fc57b3bf0ec28a930d40b0d285d93c06501cf6a091a2646970667358221220ea75340e13cba83ec76a80ae502cbcecbd240c00d4d8ee57f6aa212ad5fc454f64736f6c634300080a0033",
    "linkReferences": {}
  },
  "methodIdentifiers": {
    "APYTimelock(uint256)": "b404baa1",
    "APYdropped()": "3a5b0172",
    "APYrecords(uint256)": "ddaaae03",
    "BOUNTY_COMMISSION()": "c9e66d41",
    "DENOMINATOR()": "918f8674",
    "PREMIUM_COMMISSION()": "bb862785",
    "VERSION()": "ffa1ad74",
    "YEAR()": "83914540",
    "billPremium(address,address)": "8aa82e82",
    "bountyDeposit(address,address,uint256)": "3147096d",
    "claimPremium(address,address,address)": "3065f450",
    "collectSaloonPremiumFees(address,address)": "5121ac9d",
    "desiredAPY()": "84dc10b4",
    "initializeImplementation(address)": "4b8e0d37",
    "lastClaimed(address)": "013eba92",
    "lastTimePaid()": "1104ec25",
    "manager()": "481c6a75",
    "owner()": "8da5cb5b",
    "payBounty(address,address,address,uint256)": "73927c11",
    "poolCap()": "b954dc57",
    "poolCapTimelock(uint256)": "ed6ea164",
    "poolPeriod()": "45042dec",
    "premiumBalance()": "44ebc03d",
    "projectDeposit()": "72d26951",
    "projectDepositWithdrawal(address,address,uint256)": "419b7bd7",
    "renounceOwnership()": "715018a6",
    "requiredPremiumBalancePerPeriod()": "4c3bdee0",
    "saloonBountyCommission()": "a4bf70bd",
    "saloonPremiumFees()": "3d850fb2",
    "scheduleAPYChange(uint256)": "503cb917",
    "schedulePoolCapChange(uint256)": "d26c90a9",
    "scheduleUnstake(address,uint256)": "c790ef82",
    "scheduleprojectDepositWithdrawal(uint256)": "4b5df6cc",
    "setDesiredAPY(address,address,uint256)": "cc12c311",
    "setPoolCap(uint256)": "d835f535",
    "stake(address,address,uint256)": "bf6eac2f",
    "staker(address,uint256)": "9e4bfaa5",
    "stakerList(uint256)": "348e50c6",
    "stakerTimelock(address,uint256)": "6b01eab3",
    "stakersDeposit(uint256)": "a194c3b6",
    "transferOwnership(address)": "f2fde38b",
    "unstake(address,address,uint256)": "60829f8a",
    "viewBountyBalance()": "e45080e6",
    "viewDesiredAPY()": "78eb46fd",
    "viewHackerPayout()": "4a94bcb3",
    "viewPoolCap()": "ff45d4c0",
    "viewPremiumBalance()": "20d83086",
    "viewProjecDeposit()": "383639b3",
    "viewRequirePremiumBalance()": "d084b03a",
    "viewStakersDeposit()": "16e17b8d",
    "viewUserStakingBalance(address)": "1a89cabd",
    "viewcurrentAPY()": "d5cb8669",
    "withdrawalTimelock(uint256)": "7a5001e7"
  },
  "id": 29
}