{
  "abi": [
    {
      "anonymous": false,
      "inputs": [
        {
          "indexed": false,
          "internalType": "uint8",
          "name": "version",
          "type": "uint8"
        }
      ],
      "name": "Initialized",
      "type": "event"
    },
    {
      "anonymous": false,
      "inputs": [
        {
          "indexed": true,
          "internalType": "address",
          "name": "previousOwner",
          "type": "address"
        },
        {
          "indexed": true,
          "internalType": "address",
          "name": "newOwner",
          "type": "address"
        }
      ],
      "name": "OwnershipTransferred",
      "type": "event"
    },
    {
      "inputs": [],
      "name": "APYdropped",
      "outputs": [
        {
          "internalType": "bool",
          "name": "",
          "type": "bool"
        }
      ],
      "stateMutability": "view",
      "type": "function"
    },
    {
      "inputs": [
        {
          "internalType": "uint256",
          "name": "",
          "type": "uint256"
        }
      ],
      "name": "APYrecords",
      "outputs": [
        {
          "internalType": "uint256",
          "name": "timeStamp",
          "type": "uint256"
        },
        {
          "internalType": "uint256",
          "name": "periodAPY",
          "type": "uint256"
        }
      ],
      "stateMutability": "view",
      "type": "function"
    },
    {
      "inputs": [],
      "name": "BOUNTY_COMMISSION",
      "outputs": [
        {
          "internalType": "uint256",
          "name": "",
          "type": "uint256"
        }
      ],
      "stateMutability": "view",
      "type": "function"
    },
    {
      "inputs": [],
      "name": "DENOMINATOR",
      "outputs": [
        {
          "internalType": "uint256",
          "name": "",
          "type": "uint256"
        }
      ],
      "stateMutability": "view",
      "type": "function"
    },
    {
      "inputs": [],
      "name": "PREMIUM_COMMISSION",
      "outputs": [
        {
          "internalType": "uint256",
          "name": "",
          "type": "uint256"
        }
      ],
      "stateMutability": "view",
      "type": "function"
    },
    {
      "inputs": [],
      "name": "VERSION",
      "outputs": [
        {
          "internalType": "uint256",
          "name": "",
          "type": "uint256"
        }
      ],
      "stateMutability": "view",
      "type": "function"
    },
    {
      "inputs": [],
      "name": "YEAR",
      "outputs": [
        {
          "internalType": "uint256",
          "name": "",
          "type": "uint256"
        }
      ],
      "stateMutability": "view",
      "type": "function"
    },
    {
      "inputs": [
        {
          "internalType": "address",
          "name": "_staker",
          "type": "address"
        },
        {
          "internalType": "uint256",
          "name": "_amount",
          "type": "uint256"
        }
      ],
      "name": "askForUnstake",
      "outputs": [
        {
          "internalType": "bool",
          "name": "",
          "type": "bool"
        }
      ],
      "stateMutability": "nonpayable",
      "type": "function"
    },
    {
      "inputs": [
        {
          "internalType": "address",
          "name": "_token",
          "type": "address"
        },
        {
          "internalType": "address",
          "name": "_projectWallet",
          "type": "address"
        }
      ],
      "name": "billFortnightlyPremium",
      "outputs": [
        {
          "internalType": "bool",
          "name": "",
          "type": "bool"
        }
      ],
      "stateMutability": "nonpayable",
      "type": "function"
    },
    {
      "inputs": [],
      "name": "bountyBalance",
      "outputs": [
        {
          "internalType": "uint256",
          "name": "",
          "type": "uint256"
        }
      ],
      "stateMutability": "view",
      "type": "function"
    },
    {
      "inputs": [
        {
          "internalType": "address",
          "name": "_token",
          "type": "address"
        },
        {
          "internalType": "address",
          "name": "_projectWallet",
          "type": "address"
        },
        {
          "internalType": "uint256",
          "name": "_amount",
          "type": "uint256"
        }
      ],
      "name": "bountyDeposit",
      "outputs": [
        {
          "internalType": "bool",
          "name": "",
          "type": "bool"
        }
      ],
      "stateMutability": "nonpayable",
      "type": "function"
    },
    {
      "inputs": [
        {
          "internalType": "address",
          "name": "_token",
          "type": "address"
        },
        {
          "internalType": "address",
          "name": "_staker",
          "type": "address"
        },
        {
          "internalType": "address",
          "name": "_projectWallet",
          "type": "address"
        }
      ],
      "name": "claimPremium",
      "outputs": [
        {
          "internalType": "uint256",
          "name": "",
          "type": "uint256"
        },
        {
          "internalType": "bool",
          "name": "",
          "type": "bool"
        }
      ],
      "stateMutability": "nonpayable",
      "type": "function"
    },
    {
      "inputs": [
        {
          "internalType": "address",
          "name": "_token",
          "type": "address"
        },
        {
          "internalType": "address",
          "name": "_saloonWallet",
          "type": "address"
        }
      ],
      "name": "collectSaloonPremiumFees",
      "outputs": [
        {
          "internalType": "uint256",
          "name": "",
          "type": "uint256"
        }
      ],
      "stateMutability": "nonpayable",
      "type": "function"
    },
    {
      "inputs": [],
      "name": "desiredAPY",
      "outputs": [
        {
          "internalType": "uint256",
          "name": "",
          "type": "uint256"
        }
      ],
      "stateMutability": "view",
      "type": "function"
    },
    {
      "inputs": [
        {
          "internalType": "address",
          "name": "_manager",
          "type": "address"
        }
      ],
      "name": "initialize",
      "outputs": [],
      "stateMutability": "nonpayable",
      "type": "function"
    },
    {
      "inputs": [
        {
          "internalType": "address",
          "name": "",
          "type": "address"
        }
      ],
      "name": "lastClaimed",
      "outputs": [
        {
          "internalType": "uint256",
          "name": "",
          "type": "uint256"
        }
      ],
      "stateMutability": "view",
      "type": "function"
    },
    {
      "inputs": [],
      "name": "lastTimePaid",
      "outputs": [
        {
          "internalType": "uint256",
          "name": "",
          "type": "uint256"
        }
      ],
      "stateMutability": "view",
      "type": "function"
    },
    {
      "inputs": [],
      "name": "manager",
      "outputs": [
        {
          "internalType": "address",
          "name": "",
          "type": "address"
        }
      ],
      "stateMutability": "view",
      "type": "function"
    },
    {
      "inputs": [],
      "name": "owner",
      "outputs": [
        {
          "internalType": "address",
          "name": "",
          "type": "address"
        }
      ],
      "stateMutability": "view",
      "type": "function"
    },
    {
      "inputs": [
        {
          "internalType": "address",
          "name": "_token",
          "type": "address"
        },
        {
          "internalType": "address",
          "name": "_saloonWallet",
          "type": "address"
        },
        {
          "internalType": "address",
          "name": "_hunter",
          "type": "address"
        },
        {
          "internalType": "uint256",
          "name": "_amount",
          "type": "uint256"
        }
      ],
      "name": "payBounty",
      "outputs": [
        {
          "internalType": "bool",
          "name": "",
          "type": "bool"
        }
      ],
      "stateMutability": "nonpayable",
      "type": "function"
    },
    {
      "inputs": [],
      "name": "poolCap",
      "outputs": [
        {
          "internalType": "uint256",
          "name": "",
          "type": "uint256"
        }
      ],
      "stateMutability": "view",
      "type": "function"
    },
    {
      "inputs": [],
      "name": "poolPeriod",
      "outputs": [
        {
          "internalType": "uint256",
          "name": "",
          "type": "uint256"
        }
      ],
      "stateMutability": "view",
      "type": "function"
    },
    {
      "inputs": [],
      "name": "premiumBalance",
      "outputs": [
        {
          "internalType": "uint256",
          "name": "",
          "type": "uint256"
        }
      ],
      "stateMutability": "view",
      "type": "function"
    },
    {
      "inputs": [],
      "name": "projectDeposit",
      "outputs": [
        {
          "internalType": "uint256",
          "name": "",
          "type": "uint256"
        }
      ],
      "stateMutability": "view",
      "type": "function"
    },
    {
      "inputs": [
        {
          "internalType": "address",
          "name": "_token",
          "type": "address"
        },
        {
          "internalType": "address",
          "name": "_projectWallet",
          "type": "address"
        },
        {
          "internalType": "uint256",
          "name": "_amount",
          "type": "uint256"
        }
      ],
      "name": "projectDepositWithdrawal",
      "outputs": [
        {
          "internalType": "bool",
          "name": "",
          "type": "bool"
        }
      ],
      "stateMutability": "nonpayable",
      "type": "function"
    },
    {
      "inputs": [
        {
          "internalType": "uint256",
          "name": "",
          "type": "uint256"
        }
      ],
      "name": "projectWithdrawalTimeLock",
      "outputs": [
        {
          "internalType": "uint256",
          "name": "",
          "type": "uint256"
        }
      ],
      "stateMutability": "view",
      "type": "function"
    },
    {
      "inputs": [],
      "name": "renounceOwnership",
      "outputs": [],
      "stateMutability": "nonpayable",
      "type": "function"
    },
    {
      "inputs": [],
      "name": "requiredPremiumBalancePerPeriod",
      "outputs": [
        {
          "internalType": "uint256",
          "name": "",
          "type": "uint256"
        }
      ],
      "stateMutability": "view",
      "type": "function"
    },
    {
      "inputs": [],
      "name": "saloonBountyCommission",
      "outputs": [
        {
          "internalType": "uint256",
          "name": "",
          "type": "uint256"
        }
      ],
      "stateMutability": "view",
      "type": "function"
    },
    {
      "inputs": [],
      "name": "saloonPremiumFees",
      "outputs": [
        {
          "internalType": "uint256",
          "name": "",
          "type": "uint256"
        }
      ],
      "stateMutability": "view",
      "type": "function"
    },
    {
      "inputs": [
        {
          "internalType": "uint256",
          "name": "_amount",
          "type": "uint256"
        }
      ],
      "name": "scheduleprojectDepositWithdrawal",
      "outputs": [],
      "stateMutability": "nonpayable",
      "type": "function"
    },
    {
      "inputs": [
        {
          "internalType": "address",
          "name": "_token",
          "type": "address"
        },
        {
          "internalType": "address",
          "name": "_projectWallet",
          "type": "address"
        },
        {
          "internalType": "uint256",
          "name": "_desiredAPY",
          "type": "uint256"
        }
      ],
      "name": "setDesiredAPY",
      "outputs": [
        {
          "internalType": "bool",
          "name": "",
          "type": "bool"
        }
      ],
      "stateMutability": "nonpayable",
      "type": "function"
    },
    {
      "inputs": [
        {
          "internalType": "uint256",
          "name": "_amount",
          "type": "uint256"
        }
      ],
      "name": "setPoolCap",
      "outputs": [],
      "stateMutability": "nonpayable",
      "type": "function"
    },
    {
      "inputs": [
        {
          "internalType": "address",
          "name": "_token",
          "type": "address"
        },
        {
          "internalType": "address",
          "name": "_staker",
          "type": "address"
        },
        {
          "internalType": "uint256",
          "name": "_amount",
          "type": "uint256"
        }
      ],
      "name": "stake",
      "outputs": [
        {
          "internalType": "bool",
          "name": "",
          "type": "bool"
        }
      ],
      "stateMutability": "nonpayable",
      "type": "function"
    },
    {
      "inputs": [
        {
          "internalType": "address",
          "name": "",
          "type": "address"
        },
        {
          "internalType": "uint256",
          "name": "",
          "type": "uint256"
        }
      ],
      "name": "staker",
      "outputs": [
        {
          "internalType": "uint256",
          "name": "stakerBalance",
          "type": "uint256"
        },
        {
          "internalType": "uint256",
          "name": "balanceTimeStamp",
          "type": "uint256"
        }
      ],
      "stateMutability": "view",
      "type": "function"
    },
    {
      "inputs": [
        {
          "internalType": "uint256",
          "name": "",
          "type": "uint256"
        }
      ],
      "name": "stakerList",
      "outputs": [
        {
          "internalType": "address",
          "name": "",
          "type": "address"
        }
      ],
      "stateMutability": "view",
      "type": "function"
    },
    {
      "inputs": [
        {
          "internalType": "address",
          "name": "",
          "type": "address"
        },
        {
          "internalType": "uint256",
          "name": "",
          "type": "uint256"
        }
      ],
      "name": "stakerTimelock",
      "outputs": [
        {
          "internalType": "uint256",
          "name": "",
          "type": "uint256"
        }
      ],
      "stateMutability": "view",
      "type": "function"
    },
    {
      "inputs": [],
      "name": "stakersDeposit",
      "outputs": [
        {
          "internalType": "uint256",
          "name": "",
          "type": "uint256"
        }
      ],
      "stateMutability": "view",
      "type": "function"
    },
    {
      "inputs": [
        {
          "internalType": "address",
          "name": "newOwner",
          "type": "address"
        }
      ],
      "name": "transferOwnership",
      "outputs": [],
      "stateMutability": "nonpayable",
      "type": "function"
    },
    {
      "inputs": [
        {
          "internalType": "address",
          "name": "_token",
          "type": "address"
        },
        {
          "internalType": "address",
          "name": "_staker",
          "type": "address"
        },
        {
          "internalType": "uint256",
          "name": "_amount",
          "type": "uint256"
        }
      ],
      "name": "unstake",
      "outputs": [
        {
          "internalType": "bool",
          "name": "",
          "type": "bool"
        }
      ],
      "stateMutability": "nonpayable",
      "type": "function"
    },
    {
      "inputs": [],
      "name": "viewDesireAPY",
      "outputs": [
        {
          "internalType": "uint256",
          "name": "",
          "type": "uint256"
        }
      ],
      "stateMutability": "view",
      "type": "function"
    },
    {
      "inputs": [],
      "name": "viewHackerPayout",
      "outputs": [
        {
          "internalType": "uint256",
          "name": "",
          "type": "uint256"
        }
      ],
      "stateMutability": "view",
      "type": "function"
    },
    {
      "inputs": [],
      "name": "viewPoolCap",
      "outputs": [
        {
          "internalType": "uint256",
          "name": "",
          "type": "uint256"
        }
      ],
      "stateMutability": "view",
      "type": "function"
    },
    {
      "inputs": [],
      "name": "viewPremiumBalance",
      "outputs": [
        {
          "internalType": "uint256",
          "name": "",
          "type": "uint256"
        }
      ],
      "stateMutability": "view",
      "type": "function"
    },
    {
      "inputs": [],
      "name": "viewProjecDeposit",
      "outputs": [
        {
          "internalType": "uint256",
          "name": "",
          "type": "uint256"
        }
      ],
      "stateMutability": "view",
      "type": "function"
    },
    {
      "inputs": [],
      "name": "viewRequirePremiumBalance",
      "outputs": [
        {
          "internalType": "uint256",
          "name": "",
          "type": "uint256"
        }
      ],
      "stateMutability": "view",
      "type": "function"
    },
    {
      "inputs": [],
      "name": "viewStakersDeposit",
      "outputs": [
        {
          "internalType": "uint256",
          "name": "",
          "type": "uint256"
        }
      ],
      "stateMutability": "view",
      "type": "function"
    },
    {
      "inputs": [
        {
          "internalType": "address",
          "name": "_staker",
          "type": "address"
        }
      ],
      "name": "viewUserStakingBalance",
      "outputs": [
        {
          "internalType": "uint256",
          "name": "",
          "type": "uint256"
        },
        {
          "internalType": "uint256",
          "name": "",
          "type": "uint256"
        }
      ],
      "stateMutability": "view",
      "type": "function"
    },
    {
      "inputs": [],
      "name": "viewcurrentAPY",
      "outputs": [
        {
          "internalType": "uint256",
          "name": "",
          "type": "uint256"
        }
      ],
      "stateMutability": "view",
      "type": "function"
    }
  ],
  "bytecode": {
    "object": "0x60806040526003546002546200001691906200008f565b60045562127500600c553480156200002d57600080fd5b5062000039336200003f565b620000b6565b600080546001600160a01b038381166001600160a01b0319831681178455604051919092169283917f8be0079c531659141344cd1fd0a4f28419497f9722a3daafe3b4186f6b6457e09190a35050565b60008219821115620000b157634e487b7160e01b600052601160045260246000fd5b500190565b61269280620000c66000396000f3fe608060405234801561001057600080fd5b50600436106102bb5760003560e01c806372d2695111610182578063bf6eac2f116100e9578063d5cb8669116100a2578063ee3acd581161007c578063ee3acd58146105c9578063f2fde38b146105e9578063ff45d4c0146105fc578063ffa1ad741461060457600080fd5b8063d5cb86691461059b578063d835f535146105a3578063ddaaae03146105b657600080fd5b8063bf6eac2f14610542578063c4d66de814610555578063c9e66d4114610568578063cc12c31114610577578063d03b41a91461058a578063d084b03a1461059357600080fd5b80639e4bfaa51161013b5780639e4bfaa5146104f35780639ff3128f14610506578063a4bf70bd1461050e578063b15ce20a14610517578063b954dc571461052a578063bb8627851461053357600080fd5b806372d26951146104a257806373927c11146104ab57806383914540146104be57806384dc10b4146104c95780638da5cb5b146104d2578063918f8674146104e357600080fd5b80633f5f958c116102265780634b5df6cc116101df5780634b5df6cc1461042b5780634c3bdee0146104405780635121ac9d1461044957806360829f8a1461045c5780636b01eab31461046f578063715018a61461049a57600080fd5b80633f5f958c146103e2578063419b7bd7146103eb57806344ebc03d146103fe57806345042dec14610407578063481c6a75146104105780634a94bcb31461042357600080fd5b80633065f450116102785780633065f450146103575780633147096d1461037f578063348e50c614610392578063383639b3146103bd5780633a5b0172146103c55780633d850fb2146103d957600080fd5b8063013eba92146102c057806310775e74146102f35780631104ec251461031657806316e17b8d1461031f5780631a89cabd1461032757806320d830861461034f575b600080fd5b6102e06102ce36600461234e565b600e6020526000908152604090205481565b6040519081526020015b60405180910390f35b610306610301366004612369565b61060c565b60405190151581526020016102ea565b6102e0600a5481565b6003546102e0565b61033a61033536600461234e565b610a22565b604080519283526020830191909152016102ea565b6007546102e0565b61036a61036536600461239c565b610ab9565b604080519283529015156020830152016102ea565b61030661038d3660046123df565b610d62565b6103a56103a036600461241b565b610dc8565b6040516001600160a01b0390911681526020016102ea565b6002546102e0565b60015461030690600160a01b900460ff1681565b6102e060065481565b6102e060035481565b6103066103f93660046123df565b610df2565b6102e060075481565b6102e0600c5481565b6001546103a5906001600160a01b031681565b6102e0610e9f565b61043e61043936600461241b565b610ee2565b005b6102e0600b5481565b6102e0610457366004612369565b610f01565b61030661046a3660046123df565b610f58565b6102e061047d366004612434565b601160209081526000928352604080842090915290825290205481565b61043e6112fb565b6102e060025481565b6103066104b936600461245e565b61130f565b6102e06301e1338081565b6102e060085481565b6000546001600160a01b03166103a5565b6102e068056bc75e2d6310000081565b61033a610501366004612434565b611645565b6008546102e0565b6102e060055481565b610306610525366004612434565b611681565b6102e060095481565b6102e0671bc16d674ec8000081565b6103066105503660046123df565b611795565b61043e61056336600461234e565b6119ae565b6102e067a688906bd8b0000081565b6103066105853660046123df565b611af6565b6102e060045481565b600b546102e0565b6102e0611c48565b61043e6105b136600461241b565b611c5b565b61033a6105c436600461241b565b611c8a565b6102e06105d736600461241b565b600d6020526000908152604090205481565b61043e6105f736600461234e565b611cb8565b6009546102e0565b6102e0600181565b6001546000906001600160a01b031633148061062757503330145b61064c5760405162461bcd60e51b8152600401610643906124a9565b60405180910390fd5b600754600b5460035481831015610a1457600a54600c54600061066f83426124ed565b905081811115610903576000816301e1338068056bc75e2d63100000600854886106999190612504565b6106a39190612523565b6106ad9190612523565b6106b79190612504565b90506106ce6001600160a01b038b168a3084611d31565b6108885760408051808201909152600060208201524281526106ee611c48565b602082019081526012805460018101825560009190915282517fbb8a6a4669ba250d26cd7a459eca9d215f8307e33aebe50379bc5a3617ec344460029092029182015590517fbb8a6a4669ba250d26cd7a459eca9d215f8307e33aebe50379bc5a3617ec344590910155610760611c48565b6008819055506000836301e1338068056bc75e2d631000006008548a6107869190612504565b6107909190612523565b61079a9190612523565b6107a49190612504565b9050600068056bc75e2d631000006107c4671bc16d674ec8000084612504565b6107ce9190612523565b905080600660008282546107e29190612545565b9250508190555081600760008282546107fb9190612545565b909155505042600a5560085460095460009188916301e133809168056bc75e2d631000009161082a9190612504565b6108349190612523565b61083e9190612523565b6108489190612504565b600b555061086390506001600160a01b038d168c3084611d31565b50506001805460ff60a01b1916600160a01b1781559850610a1c975050505050505050565b600068056bc75e2d631000006108a6671bc16d674ec8000084612504565b6108b09190612523565b905080600660008282546108c49190612545565b9250508190555081600760008282546108dd9190612545565b909155505042600a5550506001805460ff60a01b191681559650610a1c95505050505050565b6000826301e1338068056bc75e2d631000006008546003546109259190612504565b61092f9190612523565b6109399190612523565b6109439190612504565b905061095a6001600160a01b038b168a3084611d31565b61088857604080518082019091526000602082015242815261097a611c48565b602082019081526012805460018101825560009190915282517fbb8a6a4669ba250d26cd7a459eca9d215f8307e33aebe50379bc5a3617ec344460029092029182015590517fbb8a6a4669ba250d26cd7a459eca9d215f8307e33aebe50379bc5a3617ec3445909101556109ec611c48565b6008819055506000846301e1338068056bc75e2d631000006008546003546107869190612504565b600093505050505b92915050565b6001600160a01b0381166000908152600f6020526040812080548291610a496001836124ed565b81548110610a5957610a5961255d565b600091825260208083206002909202909101546001600160a01b0387168352600f9091526040909120610a8d6001846124ed565b81548110610a9d57610a9d61255d565b9060005260206000209060020201600101549250925050915091565b60015460009081906001600160a01b03163314610ae85760405162461bcd60e51b8152600401610643906124a9565b6001600160a01b0384166000908152600e602052604081205490610b0c82426124ed565b600c546001600160a01b0388166000908152600f6020908152604080832080548251818502810185019093528083529596509394929390929091849084015b82821015610b9157838290600052602060002090600202016040518060400160405290816000820154815260200160018201548152505081526020019060010190610b4b565b50508251929350505082841115610c51576000610baf868484611d9f565b9050600068056bc75e2d63100000610bcf671bc16d674ec8000084612504565b610bd99190612523565b9050610be581836124ed565b915081610bfc6001600160a01b038e168d83611fb2565b610c0c57610c0a8d8c61060c565b505b8260076000828254610c1e91906124ed565b90915550506001600160a01b038c166000908152600e60205260409020429055985060019750610d5a9650505050505050565b6000600c546301e1338068056bc75e2d6310000060085486600187610c7691906124ed565b81518110610c8657610c8661255d565b602002602001015160000151610c9c9190612504565b610ca69190612523565b610cb09190612523565b610cba9190612504565b9050600068056bc75e2d63100000610cda671bc16d674ec8000084612504565b610ce49190612523565b9050610cf081836124ed565b9150610d066001600160a01b038d168c84611fb2565b610d1657610d148c8b61060c565b505b8160076000828254610d2891906124ed565b9091555050506001600160a01b038a166000908152600e60205260409020429055965060019550610d5a945050505050565b935093915050565b6001546000906001600160a01b03163314610d8f5760405162461bcd60e51b8152600401610643906124a9565b610da46001600160a01b038516843085611d31565b508160026000828254610db79190612545565b9091555060019150505b9392505050565b60108181548110610dd857600080fd5b6000918252602090912001546001600160a01b0316905081565b6000818152600d602052604081205442118015610e1c57506000828152600d602052604090205415155b610e685760405162461bcd60e51b815260206004820181905260248201527f54696d656c6f636b206e6f742066696e6973686564206f7220737461727465646044820152606401610643565b8160026000828254610e7a91906124ed565b90915550610e9490506001600160a01b0385168484611fb2565b506001949350505050565b60008068056bc75e2d6310000067a688906bd8b00000600454610ec29190612504565b610ecc9190612523565b905080600454610edc91906124ed565b91505090565b600c54610eef9042612545565b6000918252600d602052604090912055565b6001546000906001600160a01b03163314610f2e5760405162461bcd60e51b8152600401610643906124a9565b600654610f47906001600160a01b038516908490611fb2565b505060068054600090915592915050565b6001546000906001600160a01b03163314610f855760405162461bcd60e51b8152600401610643906124a9565b600854151580610fa2575060018054600160a01b900460ff161515145b15610dc1576001600160a01b038316600090815260116020908152604080832085845290915290205442118015610ffb57506001600160a01b038316600090815260116020908152604080832085845290915290205415155b6110475760405162461bcd60e51b815260206004820181905260248201527f54696d656c6f636b206e6f742066696e6973686564206f7220737461727465646044820152606401610643565b6001600160a01b0383166000908152600f602052604081205461106c906001906124ed565b905061108b604051806040016040528060008152602001600081525090565b426020808301919091526001600160a01b0386166000908152600f909152604090208054859190849081106110c2576110c261255d565b9060005260206000209060020201600001546110de91906124ed565b815260108054604080516020808402820181019092528281526000939092909183018282801561113757602002820191906000526020600020905b81546001600160a01b03168152600190910190602001808311611119575b5050505050905081600001516000141561128757805160005b8181101561128457876001600160a01b03168382815181106111745761117461255d565b60200260200101516001600160a01b0316141561127c576000836111996001856124ed565b815181106111a9576111a961255d565b602002602001015190508860106001856111c391906124ed565b815481106111d3576111d361255d565b9060005260206000200160006101000a8154816001600160a01b0302191690836001600160a01b0316021790555080601083815481106112155761121561255d565b9060005260206000200160006101000a8154816001600160a01b0302191690836001600160a01b03160217905550601080548061125457611254612573565b600082815260209020810160001990810180546001600160a01b031916905501905550611284565b600101611150565b50505b6001600160a01b0386166000908152600f602090815260408220805460018181018355918452828420865160029092020190815591850151910155600380548792906112d49084906124ed565b909155506112ee90506001600160a01b0388168787611fb2565b5060019350505050610dc1565b611303611fef565b61130d6000612049565b565b6001546000906001600160a01b0316331461133c5760405162461bcd60e51b8152600401610643906124a9565b816003541061156957816003600082825461135791906124ed565b909155505060105460035461140957600081156113fc5760408051808201909152600080825242602083015260108054849081106113975761139761255d565b60009182526020808320909101546001600160a01b0316808352600f82526040832080546001818101835591855293839020865160029095020193845591850151929091019190915590506113ee89888a89612099565b50600194505050505061163d565b5061140960106000612300565b6000600354846114199190612523565b905060005b828110156115505760006010828154811061143b5761143b61255d565b60009182526020808320909101546001600160a01b0316808352600f909152604082205490925061146e906001906124ed565b6001600160a01b0383166000908152600f60205260408120805492935090918390811061149d5761149d61255d565b90600052602060002090600202016000015490506114ce604051806040016040528060008152602001600081525090565b42602082015268056bc75e2d631000006114e88784612504565b6114f29190612523565b6114fc90836124ed565b81526001600160a01b039093166000908152600f60209081526040822080546001818101835591845292829020865160029094020192835594015193019290925550611549905081612589565b905061141e565b5061155d87868887612099565b5060019250505061163d565b60105460005b818110156115f65760408051808201909152600080825242602083015260108054849081106115a0576115a061255d565b60009182526020808320909101546001600160a01b03168252600f815260408220805460018181018355918452928290208551600290940201928355930151920191909155506115ef81612589565b905061156f565b5061160360106000612300565b60006003548461161391906124ed565b9050806002600082825461162791906124ed565b9091555050600060035561155d87868887612099565b949350505050565b600f602052816000526040600020818154811061166157600080fd5b600091825260209091206002909102018054600190910154909250905082565b6001546000906001600160a01b031633146116ae5760405162461bcd60e51b8152600401610643906124a9565b6001600160a01b0383166000908152600f60205260408120546116d3906001906124ed565b6001600160a01b0385166000908152600f6020526040902080549192508491839081106117025761170261255d565b90600052602060002090600202016000015410156117595760405162461bcd60e51b8152602060048201526014602482015273496e73756669636369656e742062616c616e636560601b6044820152606401610643565b600c546117669042612545565b6001600160a01b0385166000908152601160209081526040808320878452909152902055506001905092915050565b6001546000906001600160a01b031633146117c25760405162461bcd60e51b8152600401610643906124a9565b600954826003546117d39190612545565b11156118215760405162461bcd60e51b815260206004820152601960248201527f5374616b696e6720506f6f6c20616c72656164792066756c6c000000000000006044820152606401610643565b6001600160a01b0383166000908152600f6020526040812054611846906001906124ed565b6001600160a01b0385166000908152600f60205260409020805491925090829081106118745761187461255d565b906000526020600020906002020160000154600014156118da57601080546001810182556000919091527f1b6847dc741a1b0cd08d278845f9d819d87b734759afb55fe2de5cb82a9ae6720180546001600160a01b0319166001600160a01b0386161790555b6040805180820182526000808252426020808401919091526001600160a01b0388168252600f90529190912080548591908490811061191b5761191b61255d565b9060005260206000209060020201600001546119379190612545565b81526001600160a01b0385166000908152600f60209081526040822080546001818101835591845282842085516002909202019081559184015191015560038054869290611986908490612545565b909155506119a190506001600160a01b038716863087611d31565b5060019695505050505050565b600054600160a81b900460ff16158080156119d657506000546001600160a01b90910460ff16105b806119f75750303b1580156119f75750600054600160a01b900460ff166001145b611a5a5760405162461bcd60e51b815260206004820152602e60248201527f496e697469616c697a61626c653a20636f6e747261637420697320616c72656160448201526d191e481a5b9a5d1a585b1a5e995960921b6064820152608401610643565b6000805460ff60a01b1916600160a01b1790558015611a87576000805460ff60a81b1916600160a81b1790555b611a8f611fef565b600180546001600160a01b0319166001600160a01b0384161790558015611af2576000805460ff60a81b19169055604051600181527f7f26b83ff96e1f2b6a682f133852f6798a09c465da95921460cefb38474024989060200160405180910390a15b5050565b6001546000906001600160a01b03163314611b235760405162461bcd60e51b8152600401610643906124a9565b600060075490506000600c546301e1338068056bc75e2d6310000086600954611b4c9190612504565b611b569190612523565b611b609190612523565b611b6a9190612504565b905080821015611bb1576000611b8083836124ed565b9050611b976001600160a01b038816873084611d31565b508060076000828254611baa9190612545565b9091555050505b600b5550506040805180820190915242815260208101828152601280546001808201835560009290925292517fbb8a6a4669ba250d26cd7a459eca9d215f8307e33aebe50379bc5a3617ec344460029094029384015590517fbb8a6a4669ba250d26cd7a459eca9d215f8307e33aebe50379bc5a3617ec344590920191909155600891909155805460ff60a01b1916815592915050565b600080600954600754610a1c9190612523565b6001546001600160a01b03163314611c855760405162461bcd60e51b8152600401610643906124a9565b600955565b60128181548110611c9a57600080fd5b60009182526020909120600290910201805460019091015490915082565b611cc0611fef565b6001600160a01b038116611d255760405162461bcd60e51b815260206004820152602660248201527f4f776e61626c653a206e6577206f776e657220697320746865207a65726f206160448201526564647265737360d01b6064820152608401610643565b611d2e81612049565b50565b6040516001600160a01b0380851660248301528316604482015260648101829052600090610e949086906323b872dd60e01b906084015b60408051601f198184030181529190526020810180516001600160e01b03166001600160e01b031990931692909217909152612109565b601254600090818080611db36001856124ed565b90505b80611e05578760128281548110611dcf57611dcf61255d565b9060005260206000209060020201600001541015611df557611df2816001612545565b92505b611dfe816125a4565b9050611db6565b50815b83811015611fa757600060128281548110611e2557611e2561255d565b6000918252602082206002909102015491506012611e44846001612545565b81548110611e5457611e5461255d565b90600052602060002090600202016000015460001415611e745742611ea4565b6012611e81846001612545565b81548110611e9157611e9161255d565b9060005260206000209060020201600001545b90506000611eb283836124ed565b90506000805b8a811015611f4957848c8281518110611ed357611ed361255d565b602002602001015160200151118015611f085750838c8281518110611efa57611efa61255d565b602002602001015160200151105b15611f39578b8181518110611f1f57611f1f61255d565b60200260200101516000015182611f369190612545565b91505b611f4281612589565b9050611eb8565b50816301e1338068056bc75e2d6310000060085484611f689190612504565b611f729190612523565b611f7c9190612523565b611f869190612504565b611f909087612545565b95505050505080611fa090612589565b9050611e08565b509695505050505050565b6040516001600160a01b038316602482015260448101829052600090611fe590859063a9059cbb60e01b90606401611d68565b5060019392505050565b6000546001600160a01b0316331461130d5760405162461bcd60e51b815260206004820181905260248201527f4f776e61626c653a2063616c6c6572206973206e6f7420746865206f776e65726044820152606401610643565b600080546001600160a01b038381166001600160a01b0319831681178455604051919092169283917f8be0079c531659141344cd1fd0a4f28419497f9722a3daafe3b4186f6b6457e09190a35050565b60008068056bc75e2d631000006120b867a688906bd8b0000085612504565b6120c29190612523565b905060006120d082856124ed565b90506120e66001600160a01b0388168783611fb2565b506120fb6001600160a01b0388168684611fb2565b506001979650505050505050565b600061215e826040518060400160405280602081526020017f5361666545524332303a206c6f772d6c6576656c2063616c6c206661696c6564815250856001600160a01b03166121e09092919063ffffffff16565b8051909150156121db578080602001905181019061217c91906125bb565b6121db5760405162461bcd60e51b815260206004820152602a60248201527f5361666545524332303a204552433230206f7065726174696f6e20646964206e6044820152691bdd081cdd58d8d9595960b21b6064820152608401610643565b505050565b606061163d848460008585600080866001600160a01b03168587604051612207919061260d565b60006040518083038185875af1925050503d8060008114612244576040519150601f19603f3d011682016040523d82523d6000602084013e612249565b606091505b509150915061225a87838387612265565b979650505050505050565b606083156122d15782516122ca576001600160a01b0385163b6122ca5760405162461bcd60e51b815260206004820152601d60248201527f416464726573733a2063616c6c20746f206e6f6e2d636f6e74726163740000006044820152606401610643565b508161163d565b61163d83838151156122e65781518083602001fd5b8060405162461bcd60e51b81526004016106439190612629565b5080546000825590600052602060002090810190611d2e91905b8082111561232e576000815560010161231a565b5090565b80356001600160a01b038116811461234957600080fd5b919050565b60006020828403121561236057600080fd5b610dc182612332565b6000806040838503121561237c57600080fd5b61238583612332565b915061239360208401612332565b90509250929050565b6000806000606084860312156123b157600080fd5b6123ba84612332565b92506123c860208501612332565b91506123d660408501612332565b90509250925092565b6000806000606084860312156123f457600080fd5b6123fd84612332565b925061240b60208501612332565b9150604084013590509250925092565b60006020828403121561242d57600080fd5b5035919050565b6000806040838503121561244757600080fd5b61245083612332565b946020939093013593505050565b6000806000806080858703121561247457600080fd5b61247d85612332565b935061248b60208601612332565b925061249960408601612332565b9396929550929360600135925050565b60208082526014908201527313db9b1e481b585b9859d95c88185b1b1bddd95960621b604082015260600190565b634e487b7160e01b600052601160045260246000fd5b6000828210156124ff576124ff6124d7565b500390565b600081600019048311821515161561251e5761251e6124d7565b500290565b60008261254057634e487b7160e01b600052601260045260246000fd5b500490565b60008219821115612558576125586124d7565b500190565b634e487b7160e01b600052603260045260246000fd5b634e487b7160e01b600052603160045260246000fd5b600060001982141561259d5761259d6124d7565b5060010190565b6000816125b3576125b36124d7565b506000190190565b6000602082840312156125cd57600080fd5b81518015158114610dc157600080fd5b60005b838110156125f85781810151838201526020016125e0565b83811115612607576000848401525b50505050565b6000825161261f8184602087016125dd565b9190910192915050565b60208152600082518060208401526126488160408501602087016125dd565b601f01601f1916919091016040019291505056fea26469706673582212204c703053162d90931615a876c21c774a9b342f3b02775350da024716b8c7927364736f6c634300080a0033",
    "linkReferences": {}
  },
  "methodIdentifiers": {
    "APYdropped()": "3a5b0172",
    "APYrecords(uint256)": "ddaaae03",
    "BOUNTY_COMMISSION()": "c9e66d41",
    "DENOMINATOR()": "918f8674",
    "PREMIUM_COMMISSION()": "bb862785",
    "VERSION()": "ffa1ad74",
    "YEAR()": "83914540",
    "askForUnstake(address,uint256)": "b15ce20a",
    "billFortnightlyPremium(address,address)": "10775e74",
    "bountyBalance()": "d03b41a9",
    "bountyDeposit(address,address,uint256)": "3147096d",
    "claimPremium(address,address,address)": "3065f450",
    "collectSaloonPremiumFees(address,address)": "5121ac9d",
    "desiredAPY()": "84dc10b4",
    "initialize(address)": "c4d66de8",
    "lastClaimed(address)": "013eba92",
    "lastTimePaid()": "1104ec25",
    "manager()": "481c6a75",
    "owner()": "8da5cb5b",
    "payBounty(address,address,address,uint256)": "73927c11",
    "poolCap()": "b954dc57",
    "poolPeriod()": "45042dec",
    "premiumBalance()": "44ebc03d",
    "projectDeposit()": "72d26951",
    "projectDepositWithdrawal(address,address,uint256)": "419b7bd7",
    "projectWithdrawalTimeLock(uint256)": "ee3acd58",
    "renounceOwnership()": "715018a6",
    "requiredPremiumBalancePerPeriod()": "4c3bdee0",
    "saloonBountyCommission()": "a4bf70bd",
    "saloonPremiumFees()": "3d850fb2",
    "scheduleprojectDepositWithdrawal(uint256)": "4b5df6cc",
    "setDesiredAPY(address,address,uint256)": "cc12c311",
    "setPoolCap(uint256)": "d835f535",
    "stake(address,address,uint256)": "bf6eac2f",
    "staker(address,uint256)": "9e4bfaa5",
    "stakerList(uint256)": "348e50c6",
    "stakerTimelock(address,uint256)": "6b01eab3",
    "stakersDeposit()": "3f5f958c",
    "transferOwnership(address)": "f2fde38b",
    "unstake(address,address,uint256)": "60829f8a",
    "viewDesireAPY()": "9ff3128f",
    "viewHackerPayout()": "4a94bcb3",
    "viewPoolCap()": "ff45d4c0",
    "viewPremiumBalance()": "20d83086",
    "viewProjecDeposit()": "383639b3",
    "viewRequirePremiumBalance()": "d084b03a",
    "viewStakersDeposit()": "16e17b8d",
    "viewUserStakingBalance(address)": "1a89cabd",
    "viewcurrentAPY()": "d5cb8669"
  },
  "id": 23
}