{
  "abi": [
    {
      "anonymous": false,
      "inputs": [
        {
          "indexed": false,
          "internalType": "uint8",
          "name": "version",
          "type": "uint8"
        }
      ],
      "name": "Initialized",
      "type": "event"
    },
    {
      "anonymous": false,
      "inputs": [
        {
          "indexed": true,
          "internalType": "address",
          "name": "previousOwner",
          "type": "address"
        },
        {
          "indexed": true,
          "internalType": "address",
          "name": "newOwner",
          "type": "address"
        }
      ],
      "name": "OwnershipTransferred",
      "type": "event"
    },
    {
      "inputs": [],
      "name": "APYdropped",
      "outputs": [
        {
          "internalType": "bool",
          "name": "",
          "type": "bool"
        }
      ],
      "stateMutability": "view",
      "type": "function"
    },
    {
      "inputs": [
        {
          "internalType": "uint256",
          "name": "",
          "type": "uint256"
        }
      ],
      "name": "APYrecords",
      "outputs": [
        {
          "internalType": "uint256",
          "name": "timeStamp",
          "type": "uint256"
        },
        {
          "internalType": "uint256",
          "name": "periodAPY",
          "type": "uint256"
        }
      ],
      "stateMutability": "view",
      "type": "function"
    },
    {
      "inputs": [],
      "name": "BOUNTY_COMMISSION",
      "outputs": [
        {
          "internalType": "uint256",
          "name": "",
          "type": "uint256"
        }
      ],
      "stateMutability": "view",
      "type": "function"
    },
    {
      "inputs": [],
      "name": "DENOMINATOR",
      "outputs": [
        {
          "internalType": "uint256",
          "name": "",
          "type": "uint256"
        }
      ],
      "stateMutability": "view",
      "type": "function"
    },
    {
      "inputs": [],
      "name": "PREMIUM_COMMISSION",
      "outputs": [
        {
          "internalType": "uint256",
          "name": "",
          "type": "uint256"
        }
      ],
      "stateMutability": "view",
      "type": "function"
    },
    {
      "inputs": [],
      "name": "VERSION",
      "outputs": [
        {
          "internalType": "uint256",
          "name": "",
          "type": "uint256"
        }
      ],
      "stateMutability": "view",
      "type": "function"
    },
    {
      "inputs": [],
      "name": "YEAR",
      "outputs": [
        {
          "internalType": "uint256",
          "name": "",
          "type": "uint256"
        }
      ],
      "stateMutability": "view",
      "type": "function"
    },
    {
      "inputs": [
        {
          "internalType": "address",
          "name": "_staker",
          "type": "address"
        },
        {
          "internalType": "uint256",
          "name": "_amount",
          "type": "uint256"
        }
      ],
      "name": "askForUnstake",
      "outputs": [
        {
          "internalType": "bool",
          "name": "",
          "type": "bool"
        }
      ],
      "stateMutability": "nonpayable",
      "type": "function"
    },
    {
      "inputs": [
        {
          "internalType": "address",
          "name": "_token",
          "type": "address"
        },
        {
          "internalType": "address",
          "name": "_projectWallet",
          "type": "address"
        }
      ],
      "name": "billFortnightlyPremium",
      "outputs": [
        {
          "internalType": "bool",
          "name": "",
          "type": "bool"
        }
      ],
      "stateMutability": "nonpayable",
      "type": "function"
    },
    {
      "inputs": [
        {
          "internalType": "address",
          "name": "_token",
          "type": "address"
        },
        {
          "internalType": "address",
          "name": "_projectWallet",
          "type": "address"
        },
        {
          "internalType": "uint256",
          "name": "_amount",
          "type": "uint256"
        }
      ],
      "name": "bountyDeposit",
      "outputs": [
        {
          "internalType": "bool",
          "name": "",
          "type": "bool"
        }
      ],
      "stateMutability": "nonpayable",
      "type": "function"
    },
    {
      "inputs": [
        {
          "internalType": "address",
          "name": "_token",
          "type": "address"
        },
        {
          "internalType": "address",
          "name": "_staker",
          "type": "address"
        },
        {
          "internalType": "address",
          "name": "_projectWallet",
          "type": "address"
        }
      ],
      "name": "claimPremium",
      "outputs": [
        {
          "internalType": "uint256",
          "name": "",
          "type": "uint256"
        },
        {
          "internalType": "bool",
          "name": "",
          "type": "bool"
        }
      ],
      "stateMutability": "nonpayable",
      "type": "function"
    },
    {
      "inputs": [
        {
          "internalType": "address",
          "name": "_token",
          "type": "address"
        },
        {
          "internalType": "address",
          "name": "_saloonWallet",
          "type": "address"
        }
      ],
      "name": "collectSaloonPremiumFees",
      "outputs": [
        {
          "internalType": "uint256",
          "name": "",
          "type": "uint256"
        }
      ],
      "stateMutability": "nonpayable",
      "type": "function"
    },
    {
      "inputs": [],
      "name": "desiredAPY",
      "outputs": [
        {
          "internalType": "uint256",
          "name": "",
          "type": "uint256"
        }
      ],
      "stateMutability": "view",
      "type": "function"
    },
    {
      "inputs": [
        {
          "internalType": "address",
          "name": "_manager",
          "type": "address"
        }
      ],
      "name": "initializeImplementation",
      "outputs": [],
      "stateMutability": "nonpayable",
      "type": "function"
    },
    {
      "inputs": [
        {
          "internalType": "address",
          "name": "",
          "type": "address"
        }
      ],
      "name": "lastClaimed",
      "outputs": [
        {
          "internalType": "uint256",
          "name": "",
          "type": "uint256"
        }
      ],
      "stateMutability": "view",
      "type": "function"
    },
    {
      "inputs": [],
      "name": "lastTimePaid",
      "outputs": [
        {
          "internalType": "uint256",
          "name": "",
          "type": "uint256"
        }
      ],
      "stateMutability": "view",
      "type": "function"
    },
    {
      "inputs": [],
      "name": "manager",
      "outputs": [
        {
          "internalType": "address",
          "name": "",
          "type": "address"
        }
      ],
      "stateMutability": "view",
      "type": "function"
    },
    {
      "inputs": [],
      "name": "owner",
      "outputs": [
        {
          "internalType": "address",
          "name": "",
          "type": "address"
        }
      ],
      "stateMutability": "view",
      "type": "function"
    },
    {
      "inputs": [
        {
          "internalType": "address",
          "name": "_token",
          "type": "address"
        },
        {
          "internalType": "address",
          "name": "_saloonWallet",
          "type": "address"
        },
        {
          "internalType": "address",
          "name": "_hunter",
          "type": "address"
        },
        {
          "internalType": "uint256",
          "name": "_amount",
          "type": "uint256"
        }
      ],
      "name": "payBounty",
      "outputs": [
        {
          "internalType": "bool",
          "name": "",
          "type": "bool"
        }
      ],
      "stateMutability": "nonpayable",
      "type": "function"
    },
    {
      "inputs": [],
      "name": "poolCap",
      "outputs": [
        {
          "internalType": "uint256",
          "name": "",
          "type": "uint256"
        }
      ],
      "stateMutability": "view",
      "type": "function"
    },
    {
      "inputs": [],
      "name": "poolPeriod",
      "outputs": [
        {
          "internalType": "uint256",
          "name": "",
          "type": "uint256"
        }
      ],
      "stateMutability": "view",
      "type": "function"
    },
    {
      "inputs": [],
      "name": "premiumBalance",
      "outputs": [
        {
          "internalType": "uint256",
          "name": "",
          "type": "uint256"
        }
      ],
      "stateMutability": "view",
      "type": "function"
    },
    {
      "inputs": [],
      "name": "projectDeposit",
      "outputs": [
        {
          "internalType": "uint256",
          "name": "",
          "type": "uint256"
        }
      ],
      "stateMutability": "view",
      "type": "function"
    },
    {
      "inputs": [
        {
          "internalType": "address",
          "name": "_token",
          "type": "address"
        },
        {
          "internalType": "address",
          "name": "_projectWallet",
          "type": "address"
        },
        {
          "internalType": "uint256",
          "name": "_amount",
          "type": "uint256"
        }
      ],
      "name": "projectDepositWithdrawal",
      "outputs": [
        {
          "internalType": "bool",
          "name": "",
          "type": "bool"
        }
      ],
      "stateMutability": "nonpayable",
      "type": "function"
    },
    {
      "inputs": [
        {
          "internalType": "uint256",
          "name": "",
          "type": "uint256"
        }
      ],
      "name": "projectWithdrawalTimeLock",
      "outputs": [
        {
          "internalType": "uint256",
          "name": "",
          "type": "uint256"
        }
      ],
      "stateMutability": "view",
      "type": "function"
    },
    {
      "inputs": [],
      "name": "renounceOwnership",
      "outputs": [],
      "stateMutability": "nonpayable",
      "type": "function"
    },
    {
      "inputs": [],
      "name": "requiredPremiumBalancePerPeriod",
      "outputs": [
        {
          "internalType": "uint256",
          "name": "",
          "type": "uint256"
        }
      ],
      "stateMutability": "view",
      "type": "function"
    },
    {
      "inputs": [],
      "name": "saloonBountyCommission",
      "outputs": [
        {
          "internalType": "uint256",
          "name": "",
          "type": "uint256"
        }
      ],
      "stateMutability": "view",
      "type": "function"
    },
    {
      "inputs": [],
      "name": "saloonPremiumFees",
      "outputs": [
        {
          "internalType": "uint256",
          "name": "",
          "type": "uint256"
        }
      ],
      "stateMutability": "view",
      "type": "function"
    },
    {
      "inputs": [
        {
          "internalType": "uint256",
          "name": "_amount",
          "type": "uint256"
        }
      ],
      "name": "scheduleprojectDepositWithdrawal",
      "outputs": [],
      "stateMutability": "nonpayable",
      "type": "function"
    },
    {
      "inputs": [
        {
          "internalType": "address",
          "name": "_token",
          "type": "address"
        },
        {
          "internalType": "address",
          "name": "_projectWallet",
          "type": "address"
        },
        {
          "internalType": "uint256",
          "name": "_desiredAPY",
          "type": "uint256"
        }
      ],
      "name": "setDesiredAPY",
      "outputs": [
        {
          "internalType": "bool",
          "name": "",
          "type": "bool"
        }
      ],
      "stateMutability": "nonpayable",
      "type": "function"
    },
    {
      "inputs": [
        {
          "internalType": "uint256",
          "name": "_amount",
          "type": "uint256"
        }
      ],
      "name": "setPoolCap",
      "outputs": [],
      "stateMutability": "nonpayable",
      "type": "function"
    },
    {
      "inputs": [
        {
          "internalType": "address",
          "name": "_token",
          "type": "address"
        },
        {
          "internalType": "address",
          "name": "_staker",
          "type": "address"
        },
        {
          "internalType": "uint256",
          "name": "_amount",
          "type": "uint256"
        }
      ],
      "name": "stake",
      "outputs": [
        {
          "internalType": "bool",
          "name": "",
          "type": "bool"
        }
      ],
      "stateMutability": "nonpayable",
      "type": "function"
    },
    {
      "inputs": [
        {
          "internalType": "address",
          "name": "",
          "type": "address"
        },
        {
          "internalType": "uint256",
          "name": "",
          "type": "uint256"
        }
      ],
      "name": "staker",
      "outputs": [
        {
          "internalType": "uint256",
          "name": "stakerBalance",
          "type": "uint256"
        },
        {
          "internalType": "uint256",
          "name": "balanceTimeStamp",
          "type": "uint256"
        }
      ],
      "stateMutability": "view",
      "type": "function"
    },
    {
      "inputs": [
        {
          "internalType": "uint256",
          "name": "",
          "type": "uint256"
        }
      ],
      "name": "stakerList",
      "outputs": [
        {
          "internalType": "address",
          "name": "",
          "type": "address"
        }
      ],
      "stateMutability": "view",
      "type": "function"
    },
    {
      "inputs": [
        {
          "internalType": "address",
          "name": "",
          "type": "address"
        },
        {
          "internalType": "uint256",
          "name": "",
          "type": "uint256"
        }
      ],
      "name": "stakerTimelock",
      "outputs": [
        {
          "internalType": "uint256",
          "name": "",
          "type": "uint256"
        }
      ],
      "stateMutability": "view",
      "type": "function"
    },
    {
      "inputs": [],
      "name": "stakersDeposit",
      "outputs": [
        {
          "internalType": "uint256",
          "name": "",
          "type": "uint256"
        }
      ],
      "stateMutability": "view",
      "type": "function"
    },
    {
      "inputs": [
        {
          "internalType": "address",
          "name": "newOwner",
          "type": "address"
        }
      ],
      "name": "transferOwnership",
      "outputs": [],
      "stateMutability": "nonpayable",
      "type": "function"
    },
    {
      "inputs": [
        {
          "internalType": "address",
          "name": "_token",
          "type": "address"
        },
        {
          "internalType": "address",
          "name": "_staker",
          "type": "address"
        },
        {
          "internalType": "uint256",
          "name": "_amount",
          "type": "uint256"
        }
      ],
      "name": "unstake",
      "outputs": [
        {
          "internalType": "bool",
          "name": "",
          "type": "bool"
        }
      ],
      "stateMutability": "nonpayable",
      "type": "function"
    },
    {
      "inputs": [],
      "name": "viewBountyBalance",
      "outputs": [
        {
          "internalType": "uint256",
          "name": "",
          "type": "uint256"
        }
      ],
      "stateMutability": "view",
      "type": "function"
    },
    {
      "inputs": [],
      "name": "viewDesiredAPY",
      "outputs": [
        {
          "internalType": "uint256",
          "name": "",
          "type": "uint256"
        }
      ],
      "stateMutability": "view",
      "type": "function"
    },
    {
      "inputs": [],
      "name": "viewHackerPayout",
      "outputs": [
        {
          "internalType": "uint256",
          "name": "",
          "type": "uint256"
        }
      ],
      "stateMutability": "view",
      "type": "function"
    },
    {
      "inputs": [],
      "name": "viewPoolCap",
      "outputs": [
        {
          "internalType": "uint256",
          "name": "",
          "type": "uint256"
        }
      ],
      "stateMutability": "view",
      "type": "function"
    },
    {
      "inputs": [],
      "name": "viewPremiumBalance",
      "outputs": [
        {
          "internalType": "uint256",
          "name": "",
          "type": "uint256"
        }
      ],
      "stateMutability": "view",
      "type": "function"
    },
    {
      "inputs": [],
      "name": "viewProjecDeposit",
      "outputs": [
        {
          "internalType": "uint256",
          "name": "",
          "type": "uint256"
        }
      ],
      "stateMutability": "view",
      "type": "function"
    },
    {
      "inputs": [],
      "name": "viewRequirePremiumBalance",
      "outputs": [
        {
          "internalType": "uint256",
          "name": "",
          "type": "uint256"
        }
      ],
      "stateMutability": "view",
      "type": "function"
    },
    {
      "inputs": [],
      "name": "viewStakersDeposit",
      "outputs": [
        {
          "internalType": "uint256",
          "name": "",
          "type": "uint256"
        }
      ],
      "stateMutability": "view",
      "type": "function"
    },
    {
      "inputs": [
        {
          "internalType": "address",
          "name": "_staker",
          "type": "address"
        }
      ],
      "name": "viewUserStakingBalance",
      "outputs": [
        {
          "internalType": "uint256",
          "name": "",
          "type": "uint256"
        },
        {
          "internalType": "uint256",
          "name": "",
          "type": "uint256"
        }
      ],
      "stateMutability": "view",
      "type": "function"
    },
    {
      "inputs": [],
      "name": "viewcurrentAPY",
      "outputs": [
        {
          "internalType": "uint256",
          "name": "",
          "type": "uint256"
        }
      ],
      "stateMutability": "view",
      "type": "function"
    }
  ],
  "bytecode": {
    "object": "0x608060405262127500600b5534801561001757600080fd5b5061002133610026565b610076565b600080546001600160a01b038381166001600160a01b0319831681178455604051919092169283917f8be0079c531659141344cd1fd0a4f28419497f9722a3daafe3b4186f6b6457e09190a35050565b6127cf806100856000396000f3fe608060405234801561001057600080fd5b50600436106102bb5760003560e01c8063715018a611610182578063bb862785116100e9578063d835f535116100a2578063ee3acd581161007c578063ee3acd58146105c8578063f2fde38b146105e8578063ff45d4c0146105fb578063ffa1ad741461060357600080fd5b8063d835f5351461059a578063ddaaae03146105ad578063e45080e6146105c057600080fd5b8063bb86278514610546578063bf6eac2f14610555578063c9e66d4114610568578063cc12c31114610577578063d084b03a1461058a578063d5cb86691461059257600080fd5b80638da5cb5b1161013b5780638da5cb5b146104ed578063918f8674146104fe5780639e4bfaa51461050e578063a4bf70bd14610521578063b15ce20a1461052a578063b954dc571461053d57600080fd5b8063715018a6146104ad57806372d26951146104b557806373927c11146104be57806378eb46fd146104d157806383914540146104d957806384dc10b4146104e457600080fd5b80633f5f958c116102265780634b5df6cc116101df5780634b5df6cc1461042b5780634b8e0d37146104405780634c3bdee0146104535780635121ac9d1461045c57806360829f8a1461046f5780636b01eab31461048257600080fd5b80633f5f958c146103e2578063419b7bd7146103eb57806344ebc03d146103fe57806345042dec14610407578063481c6a75146104105780634a94bcb31461042357600080fd5b80633065f450116102785780633065f450146103575780633147096d1461037f578063348e50c614610392578063383639b3146103bd5780633a5b0172146103c55780633d850fb2146103d957600080fd5b8063013eba92146102c057806310775e74146102f35780631104ec251461031657806316e17b8d1461031f5780631a89cabd1461032757806320d830861461034f575b600080fd5b6102e06102ce36600461248b565b600d6020526000908152604090205481565b6040519081526020015b60405180910390f35b6103066103013660046124a6565b61060b565b60405190151581526020016102ea565b6102e060095481565b6003546102e0565b61033a61033536600461248b565b610a4d565b604080519283526020830191909152016102ea565b6006546102e0565b61036a6103653660046124d9565b610ae4565b604080519283529015156020830152016102ea565b61030661038d36600461251c565b610d8d565b6103a56103a0366004612558565b610df3565b6040516001600160a01b0390911681526020016102ea565b6002546102e0565b60015461030690600160a01b900460ff1681565b6102e060055481565b6102e060035481565b6103066103f936600461251c565b610e1d565b6102e060065481565b6102e0600b5481565b6001546103a5906001600160a01b031681565b6102e0610eca565b61043e610439366004612558565b610f1a565b005b61043e61044e36600461248b565b610f39565b6102e0600a5481565b6102e061046a3660046124a6565b611079565b61030661047d36600461251c565b6110d0565b6102e0610490366004612571565b601060209081526000928352604080842090915290825290205481565b61043e611473565b6102e060025481565b6103066104cc36600461259b565b611487565b6007546102e0565b6102e06301e1338081565b6102e060075481565b6000546001600160a01b03166103a5565b6102e068056bc75e2d6310000081565b61033a61051c366004612571565b61181e565b6102e060045481565b610306610538366004612571565b61185a565b6102e060085481565b6102e0671bc16d674ec8000081565b61030661056336600461251c565b61196e565b6102e067a688906bd8b0000081565b61030661058536600461251c565b611c20565b600a546102e0565b6102e0611d72565b61043e6105a8366004612558565b611d85565b61033a6105bb366004612558565b611db4565b6102e0611de2565b6102e06105d6366004612558565b600c6020526000908152604090205481565b61043e6105f636600461248b565b611df5565b6008546102e0565b6102e0600181565b6001546000906001600160a01b031633148061062657503330145b6106775760405162461bcd60e51b815260206004820152601c60248201527f4f6e6c79206d616e61676572206f722073656c6620616c6c6f7765640000000060448201526064015b60405180910390fd5b600654600a5460035481831015610a3f57600954600b54600061069a83426125fc565b90508181111561092e576000816301e1338068056bc75e2d63100000600754886106c49190612613565b6106ce9190612632565b6106d89190612632565b6106e29190612613565b90506106f96001600160a01b038b168a3084611e6e565b6108b3576040805180820190915260006020820152428152610719611d72565b602082019081526011805460018101825560009190915282517f31ecc21a745e3968a04e9570e4425bc18fa8019c68028196b546d1669c200c6860029092029182015590517f31ecc21a745e3968a04e9570e4425bc18fa8019c68028196b546d1669c200c699091015561078b611d72565b6007819055506000836301e1338068056bc75e2d631000006007548a6107b19190612613565b6107bb9190612632565b6107c59190612632565b6107cf9190612613565b9050600068056bc75e2d631000006107ef671bc16d674ec8000084612613565b6107f99190612632565b9050806005600082825461080d9190612654565b9250508190555081600660008282546108269190612654565b90915550504260095560075460085460009188916301e133809168056bc75e2d63100000916108559190612613565b61085f9190612632565b6108699190612632565b6108739190612613565b600a555061088e90506001600160a01b038d168c3084611e6e565b50506001805460ff60a01b1916600160a01b1781559850610a47975050505050505050565b600068056bc75e2d631000006108d1671bc16d674ec8000084612613565b6108db9190612632565b905080600560008282546108ef9190612654565b9250508190555081600660008282546109089190612654565b90915550504260095550506001805460ff60a01b191681559650610a4795505050505050565b6000826301e1338068056bc75e2d631000006007546003546109509190612613565b61095a9190612632565b6109649190612632565b61096e9190612613565b90506109856001600160a01b038b168a3084611e6e565b6108b35760408051808201909152600060208201524281526109a5611d72565b602082019081526011805460018101825560009190915282517f31ecc21a745e3968a04e9570e4425bc18fa8019c68028196b546d1669c200c6860029092029182015590517f31ecc21a745e3968a04e9570e4425bc18fa8019c68028196b546d1669c200c6990910155610a17611d72565b6007819055506000846301e1338068056bc75e2d631000006007546003546107b19190612613565b600093505050505b92915050565b6001600160a01b0381166000908152600e6020526040812080548291610a746001836125fc565b81548110610a8457610a8461266c565b600091825260208083206002909202909101546001600160a01b0387168352600e9091526040909120610ab86001846125fc565b81548110610ac857610ac861266c565b9060005260206000209060020201600101549250925050915091565b60015460009081906001600160a01b03163314610b135760405162461bcd60e51b815260040161066e90612682565b6001600160a01b0384166000908152600d602052604081205490610b3782426125fc565b600b546001600160a01b0388166000908152600e6020908152604080832080548251818502810185019093528083529596509394929390929091849084015b82821015610bbc57838290600052602060002090600202016040518060400160405290816000820154815260200160018201548152505081526020019060010190610b76565b50508251929350505082841115610c7c576000610bda868484611edc565b9050600068056bc75e2d63100000610bfa671bc16d674ec8000084612613565b610c049190612632565b9050610c1081836125fc565b915081610c276001600160a01b038e168d836120ef565b610c3757610c358d8c61060b565b505b8260066000828254610c4991906125fc565b90915550506001600160a01b038c166000908152600d60205260409020429055985060019750610d859650505050505050565b6000600b546301e1338068056bc75e2d6310000060075486600187610ca191906125fc565b81518110610cb157610cb161266c565b602002602001015160000151610cc79190612613565b610cd19190612632565b610cdb9190612632565b610ce59190612613565b9050600068056bc75e2d63100000610d05671bc16d674ec8000084612613565b610d0f9190612632565b9050610d1b81836125fc565b9150610d316001600160a01b038d168c846120ef565b610d4157610d3f8c8b61060b565b505b8160066000828254610d5391906125fc565b9091555050506001600160a01b038a166000908152600d60205260409020429055965060019550610d85945050505050565b935093915050565b6001546000906001600160a01b03163314610dba5760405162461bcd60e51b815260040161066e90612682565b610dcf6001600160a01b038516843085611e6e565b508160026000828254610de29190612654565b9091555060019150505b9392505050565b600f8181548110610e0357600080fd5b6000918252602090912001546001600160a01b0316905081565b6000818152600c602052604081205442118015610e4757506000828152600c602052604090205415155b610e935760405162461bcd60e51b815260206004820181905260248201527f54696d656c6f636b206e6f742066696e6973686564206f722073746172746564604482015260640161066e565b8160026000828254610ea591906125fc565b90915550610ebf90506001600160a01b03851684846120ef565b506001949350505050565b600080600354600254610edd9190612654565b9050600068056bc75e2d63100000610efd67a688906bd8b0000084612613565b610f079190612632565b9050610f1381836125fc565b9250505090565b600b54610f279042612654565b6000918252600c602052604090912055565b600054600160a81b900460ff1615808015610f6157506000546001600160a01b90910460ff16105b80610f825750303b158015610f825750600054600160a01b900460ff166001145b610fe55760405162461bcd60e51b815260206004820152602e60248201527f496e697469616c697a61626c653a20636f6e747261637420697320616c72656160448201526d191e481a5b9a5d1a585b1a5e995960921b606482015260840161066e565b6000805460ff60a01b1916600160a01b1790558015611012576000805460ff60a81b1916600160a81b1790555b600180546001600160a01b0319166001600160a01b0384161790558015611075576000805460ff60a81b19169055604051600181527f7f26b83ff96e1f2b6a682f133852f6798a09c465da95921460cefb38474024989060200160405180910390a15b5050565b6001546000906001600160a01b031633146110a65760405162461bcd60e51b815260040161066e90612682565b6005546110bf906001600160a01b0385169084906120ef565b505060058054600090915592915050565b6001546000906001600160a01b031633146110fd5760405162461bcd60e51b815260040161066e90612682565b60075415158061111a575060018054600160a01b900460ff161515145b15610dec576001600160a01b03831660009081526010602090815260408083208584529091529020544211801561117357506001600160a01b038316600090815260106020908152604080832085845290915290205415155b6111bf5760405162461bcd60e51b815260206004820181905260248201527f54696d656c6f636b206e6f742066696e6973686564206f722073746172746564604482015260640161066e565b6001600160a01b0383166000908152600e60205260408120546111e4906001906125fc565b9050611203604051806040016040528060008152602001600081525090565b426020808301919091526001600160a01b0386166000908152600e9091526040902080548591908490811061123a5761123a61266c565b90600052602060002090600202016000015461125691906125fc565b8152600f805460408051602080840282018101909252828152600093909290918301828280156112af57602002820191906000526020600020905b81546001600160a01b03168152600190910190602001808311611291575b505050505090508160000151600014156113ff57805160005b818110156113fc57876001600160a01b03168382815181106112ec576112ec61266c565b60200260200101516001600160a01b031614156113f4576000836113116001856125fc565b815181106113215761132161266c565b6020026020010151905088600f60018561133b91906125fc565b8154811061134b5761134b61266c565b9060005260206000200160006101000a8154816001600160a01b0302191690836001600160a01b0316021790555080600f838154811061138d5761138d61266c565b9060005260206000200160006101000a8154816001600160a01b0302191690836001600160a01b03160217905550600f8054806113cc576113cc6126b0565b600082815260209020810160001990810180546001600160a01b0319169055019055506113fc565b6001016112c8565b50505b6001600160a01b0386166000908152600e6020908152604082208054600181810183559184528284208651600290920201908155918501519101556003805487929061144c9084906125fc565b9091555061146690506001600160a01b03881687876120ef565b5060019350505050610dec565b61147b61212c565b6114856000612186565b565b6001546000906001600160a01b031633146114b45760405162461bcd60e51b815260040161066e90612682565b600354600f8054604080516020808402820181019092528281526000939092909183018282801561150e57602002820191906000526020600020905b81546001600160a01b031681526001909101906020018083116114f0575b50508351939450505085841090506117465761152a85846125fc565b9250826115e85760005b818110156115cf5760408051808201909152600080825242602083015284518590849081106115655761156561266c565b6020908102919091018101516001600160a01b0381166000908152600e8352604081208054600181810183559183529184902086516002909302019182559285015192019190915590506115bb8b8a8c8b6121d6565b505050806115c8906126c6565b9050611534565b506115dc600f600061243d565b60019350505050611816565b60006115f48487612632565b905060005b8281101561172b5760008482815181106116155761161561266c565b6020908102919091018101516001600160a01b0381166000908152600e9092526040822054909250611649906001906125fc565b6001600160a01b0383166000908152600e6020526040812080549293509091839081106116785761167861266c565b90600052602060002090600202016000015490506116a9604051806040016040528060008152602001600081525090565b42602082015268056bc75e2d631000006116c38784612613565b6116cd9190612632565b6116d790836125fc565b81526001600160a01b039093166000908152600e602090815260408220805460018181018355918452928290208651600290940201928355940151930192909255506117249050816126c6565b90506115f9565b5061173889888a896121d6565b506001945050505050611816565b60005b818110156117d357604080518082019091526000808252426020830152845185908490811061177a5761177a61266c565b6020908102919091018101516001600160a01b03166000908152600e8252604081208054600181810183559183529183902085516002909302019182559390910151920191909155506117cc816126c6565b9050611749565b506117e0600f600061243d565b60006117ec84876125fc565b9050806002600082825461180091906125fc565b9091555050600060035561173889888a896121d6565b949350505050565b600e602052816000526040600020818154811061183a57600080fd5b600091825260209091206002909102018054600190910154909250905082565b6001546000906001600160a01b031633146118875760405162461bcd60e51b815260040161066e90612682565b6001600160a01b0383166000908152600e60205260408120546118ac906001906125fc565b6001600160a01b0385166000908152600e6020526040902080549192508491839081106118db576118db61266c565b90600052602060002090600202016000015410156119325760405162461bcd60e51b8152602060048201526014602482015273496e73756669636369656e742062616c616e636560601b604482015260640161066e565b600b5461193f9042612654565b6001600160a01b0385166000908152601060209081526040808320878452909152902055506001905092915050565b6001546000906001600160a01b0316331461199b5760405162461bcd60e51b815260040161066e90612682565b600854826003546119ac9190612654565b11156119fa5760405162461bcd60e51b815260206004820152601960248201527f5374616b696e6720506f6f6c20616c72656164792066756c6c00000000000000604482015260640161066e565b6001600160a01b0383166000908152600e602052604090205480611a6457604080518082018252600080825260208083018281526001600160a01b0389168352600e8252938220805460018082018355918452919092209251600290910290920191825591519101555b6001600160a01b0384166000908152600e60205260409020805482908110611a8e57611a8e61266c565b90600052602060002090600202016000015460001415611af457600f80546001810182556000919091527f8d1108e10bcb7c27dddfc02ed9d693a074039d026cf4ea4240b40f7d581ac8020180546001600160a01b0319166001600160a01b0386161790555b6040805180820182526000808252426020808401919091526001600160a01b0388168252600e905291909120805485919084908110611b3557611b3561266c565b906000526020600020906002020160000154611b519190612654565b815281611ba9576001600160a01b0385166000908152600e60205260409020805482919084908110611b8557611b8561266c565b60009182526020918290208351600290920201908155910151600190910155611be6565b6001600160a01b0385166000908152600e602090815260408220805460018181018355918452928290208451600290940201928355908301519101555b8360036000828254611bf89190612654565b90915550611c1390506001600160a01b038716863087611e6e565b5060019695505050505050565b6001546000906001600160a01b03163314611c4d5760405162461bcd60e51b815260040161066e90612682565b600060065490506000600b546301e1338068056bc75e2d6310000086600854611c769190612613565b611c809190612632565b611c8a9190612632565b611c949190612613565b905080821015611cdb576000611caa83836125fc565b9050611cc16001600160a01b038816873084611e6e565b508060066000828254611cd49190612654565b9091555050505b600a5550506040805180820190915242815260208101828152601180546001808201835560009290925292517f31ecc21a745e3968a04e9570e4425bc18fa8019c68028196b546d1669c200c6860029094029384015590517f31ecc21a745e3968a04e9570e4425bc18fa8019c68028196b546d1669c200c6990920191909155600791909155805460ff60a01b1916815592915050565b600080600854600654610a479190612632565b6001546001600160a01b03163314611daf5760405162461bcd60e51b815260040161066e90612682565b600855565b60118181548110611dc457600080fd5b60009182526020909120600290910201805460019091015490915082565b600080600354600254610a479190612654565b611dfd61212c565b6001600160a01b038116611e625760405162461bcd60e51b815260206004820152602660248201527f4f776e61626c653a206e6577206f776e657220697320746865207a65726f206160448201526564647265737360d01b606482015260840161066e565b611e6b81612186565b50565b6040516001600160a01b0380851660248301528316604482015260648101829052600090610ebf9086906323b872dd60e01b906084015b60408051601f198184030181529190526020810180516001600160e01b03166001600160e01b031990931692909217909152612246565b601154600090818080611ef06001856125fc565b90505b80611f42578760118281548110611f0c57611f0c61266c565b9060005260206000209060020201600001541015611f3257611f2f816001612654565b92505b611f3b816126e1565b9050611ef3565b50815b838110156120e457600060118281548110611f6257611f6261266c565b6000918252602082206002909102015491506011611f81846001612654565b81548110611f9157611f9161266c565b90600052602060002090600202016000015460001415611fb15742611fe1565b6011611fbe846001612654565b81548110611fce57611fce61266c565b9060005260206000209060020201600001545b90506000611fef83836125fc565b90506000805b8a81101561208657848c82815181106120105761201061266c565b6020026020010151602001511180156120455750838c82815181106120375761203761266c565b602002602001015160200151105b15612076578b818151811061205c5761205c61266c565b602002602001015160000151826120739190612654565b91505b61207f816126c6565b9050611ff5565b50816301e1338068056bc75e2d63100000600754846120a59190612613565b6120af9190612632565b6120b99190612632565b6120c39190612613565b6120cd9087612654565b955050505050806120dd906126c6565b9050611f45565b509695505050505050565b6040516001600160a01b03831660248201526044810182905260009061212290859063a9059cbb60e01b90606401611ea5565b5060019392505050565b6000546001600160a01b031633146114855760405162461bcd60e51b815260206004820181905260248201527f4f776e61626c653a2063616c6c6572206973206e6f7420746865206f776e6572604482015260640161066e565b600080546001600160a01b038381166001600160a01b0319831681178455604051919092169283917f8be0079c531659141344cd1fd0a4f28419497f9722a3daafe3b4186f6b6457e09190a35050565b60008068056bc75e2d631000006121f567a688906bd8b0000085612613565b6121ff9190612632565b9050600061220d82856125fc565b90506122236001600160a01b03881687836120ef565b506122386001600160a01b03881686846120ef565b506001979650505050505050565b600061229b826040518060400160405280602081526020017f5361666545524332303a206c6f772d6c6576656c2063616c6c206661696c6564815250856001600160a01b031661231d9092919063ffffffff16565b80519091501561231857808060200190518101906122b991906126f8565b6123185760405162461bcd60e51b815260206004820152602a60248201527f5361666545524332303a204552433230206f7065726174696f6e20646964206e6044820152691bdd081cdd58d8d9595960b21b606482015260840161066e565b505050565b6060611816848460008585600080866001600160a01b03168587604051612344919061274a565b60006040518083038185875af1925050503d8060008114612381576040519150601f19603f3d011682016040523d82523d6000602084013e612386565b606091505b5091509150612397878383876123a2565b979650505050505050565b6060831561240e578251612407576001600160a01b0385163b6124075760405162461bcd60e51b815260206004820152601d60248201527f416464726573733a2063616c6c20746f206e6f6e2d636f6e7472616374000000604482015260640161066e565b5081611816565b61181683838151156124235781518083602001fd5b8060405162461bcd60e51b815260040161066e9190612766565b5080546000825590600052602060002090810190611e6b91905b8082111561246b5760008155600101612457565b5090565b80356001600160a01b038116811461248657600080fd5b919050565b60006020828403121561249d57600080fd5b610dec8261246f565b600080604083850312156124b957600080fd5b6124c28361246f565b91506124d06020840161246f565b90509250929050565b6000806000606084860312156124ee57600080fd5b6124f78461246f565b92506125056020850161246f565b91506125136040850161246f565b90509250925092565b60008060006060848603121561253157600080fd5b61253a8461246f565b92506125486020850161246f565b9150604084013590509250925092565b60006020828403121561256a57600080fd5b5035919050565b6000806040838503121561258457600080fd5b61258d8361246f565b946020939093013593505050565b600080600080608085870312156125b157600080fd5b6125ba8561246f565b93506125c86020860161246f565b92506125d66040860161246f565b9396929550929360600135925050565b634e487b7160e01b600052601160045260246000fd5b60008282101561260e5761260e6125e6565b500390565b600081600019048311821515161561262d5761262d6125e6565b500290565b60008261264f57634e487b7160e01b600052601260045260246000fd5b500490565b60008219821115612667576126676125e6565b500190565b634e487b7160e01b600052603260045260246000fd5b60208082526014908201527313db9b1e481b585b9859d95c88185b1b1bddd95960621b604082015260600190565b634e487b7160e01b600052603160045260246000fd5b60006000198214156126da576126da6125e6565b5060010190565b6000816126f0576126f06125e6565b506000190190565b60006020828403121561270a57600080fd5b81518015158114610dec57600080fd5b60005b8381101561273557818101518382015260200161271d565b83811115612744576000848401525b50505050565b6000825161275c81846020870161271a565b9190910192915050565b602081526000825180602084015261278581604085016020870161271a565b601f01601f1916919091016040019291505056fea264697066735822122081a7175c4ba3ce66f27fdcac55d6a45870f472756f4adbac50e5acb1b0bb6e2164736f6c634300080a0033",
    "linkReferences": {}
  },
  "methodIdentifiers": {
    "APYdropped()": "3a5b0172",
    "APYrecords(uint256)": "ddaaae03",
    "BOUNTY_COMMISSION()": "c9e66d41",
    "DENOMINATOR()": "918f8674",
    "PREMIUM_COMMISSION()": "bb862785",
    "VERSION()": "ffa1ad74",
    "YEAR()": "83914540",
    "askForUnstake(address,uint256)": "b15ce20a",
    "billFortnightlyPremium(address,address)": "10775e74",
    "bountyDeposit(address,address,uint256)": "3147096d",
    "claimPremium(address,address,address)": "3065f450",
    "collectSaloonPremiumFees(address,address)": "5121ac9d",
    "desiredAPY()": "84dc10b4",
    "initializeImplementation(address)": "4b8e0d37",
    "lastClaimed(address)": "013eba92",
    "lastTimePaid()": "1104ec25",
    "manager()": "481c6a75",
    "owner()": "8da5cb5b",
    "payBounty(address,address,address,uint256)": "73927c11",
    "poolCap()": "b954dc57",
    "poolPeriod()": "45042dec",
    "premiumBalance()": "44ebc03d",
    "projectDeposit()": "72d26951",
    "projectDepositWithdrawal(address,address,uint256)": "419b7bd7",
    "projectWithdrawalTimeLock(uint256)": "ee3acd58",
    "renounceOwnership()": "715018a6",
    "requiredPremiumBalancePerPeriod()": "4c3bdee0",
    "saloonBountyCommission()": "a4bf70bd",
    "saloonPremiumFees()": "3d850fb2",
    "scheduleprojectDepositWithdrawal(uint256)": "4b5df6cc",
    "setDesiredAPY(address,address,uint256)": "cc12c311",
    "setPoolCap(uint256)": "d835f535",
    "stake(address,address,uint256)": "bf6eac2f",
    "staker(address,uint256)": "9e4bfaa5",
    "stakerList(uint256)": "348e50c6",
    "stakerTimelock(address,uint256)": "6b01eab3",
    "stakersDeposit()": "3f5f958c",
    "transferOwnership(address)": "f2fde38b",
    "unstake(address,address,uint256)": "60829f8a",
    "viewBountyBalance()": "e45080e6",
    "viewDesiredAPY()": "78eb46fd",
    "viewHackerPayout()": "4a94bcb3",
    "viewPoolCap()": "ff45d4c0",
    "viewPremiumBalance()": "20d83086",
    "viewProjecDeposit()": "383639b3",
    "viewRequirePremiumBalance()": "d084b03a",
    "viewStakersDeposit()": "16e17b8d",
    "viewUserStakingBalance(address)": "1a89cabd",
    "viewcurrentAPY()": "d5cb8669"
  },
  "id": 28
}