{
  "abi": [
    {
      "anonymous": false,
      "inputs": [
        {
          "indexed": false,
          "internalType": "uint8",
          "name": "version",
          "type": "uint8"
        }
      ],
      "name": "Initialized",
      "type": "event"
    },
    {
      "anonymous": false,
      "inputs": [
        {
          "indexed": true,
          "internalType": "address",
          "name": "previousOwner",
          "type": "address"
        },
        {
          "indexed": true,
          "internalType": "address",
          "name": "newOwner",
          "type": "address"
        }
      ],
      "name": "OwnershipTransferred",
      "type": "event"
    },
    {
      "inputs": [],
      "name": "APYTimelock",
      "outputs": [
        {
          "internalType": "uint256",
          "name": "timelock",
          "type": "uint256"
        },
        {
          "internalType": "uint256",
          "name": "amount",
          "type": "uint256"
        },
        {
          "internalType": "bool",
          "name": "executed",
          "type": "bool"
        }
      ],
      "stateMutability": "view",
      "type": "function"
    },
    {
      "inputs": [],
      "name": "APYdropped",
      "outputs": [
        {
          "internalType": "bool",
          "name": "",
          "type": "bool"
        }
      ],
      "stateMutability": "view",
      "type": "function"
    },
    {
      "inputs": [
        {
          "internalType": "uint256",
          "name": "",
          "type": "uint256"
        }
      ],
      "name": "APYrecords",
      "outputs": [
        {
          "internalType": "uint256",
          "name": "timeStamp",
          "type": "uint256"
        },
        {
          "internalType": "uint256",
          "name": "periodAPY",
          "type": "uint256"
        }
      ],
      "stateMutability": "view",
      "type": "function"
    },
    {
      "inputs": [],
      "name": "BOUNTY_COMMISSION",
      "outputs": [
        {
          "internalType": "uint256",
          "name": "",
          "type": "uint256"
        }
      ],
      "stateMutability": "view",
      "type": "function"
    },
    {
      "inputs": [],
      "name": "DENOMINATOR",
      "outputs": [
        {
          "internalType": "uint256",
          "name": "",
          "type": "uint256"
        }
      ],
      "stateMutability": "view",
      "type": "function"
    },
    {
      "inputs": [],
      "name": "PREMIUM_COMMISSION",
      "outputs": [
        {
          "internalType": "uint256",
          "name": "",
          "type": "uint256"
        }
      ],
      "stateMutability": "view",
      "type": "function"
    },
    {
      "inputs": [],
      "name": "VERSION",
      "outputs": [
        {
          "internalType": "uint256",
          "name": "",
          "type": "uint256"
        }
      ],
      "stateMutability": "view",
      "type": "function"
    },
    {
      "inputs": [],
      "name": "YEAR",
      "outputs": [
        {
          "internalType": "uint256",
          "name": "",
          "type": "uint256"
        }
      ],
      "stateMutability": "view",
      "type": "function"
    },
    {
      "inputs": [
        {
          "internalType": "address",
          "name": "_token",
          "type": "address"
        },
        {
          "internalType": "address",
          "name": "_projectWallet",
          "type": "address"
        }
      ],
      "name": "billPremium",
      "outputs": [
        {
          "internalType": "bool",
          "name": "",
          "type": "bool"
        }
      ],
      "stateMutability": "nonpayable",
      "type": "function"
    },
    {
      "inputs": [
        {
          "internalType": "address",
          "name": "_token",
          "type": "address"
        },
        {
          "internalType": "address",
          "name": "_projectWallet",
          "type": "address"
        },
        {
          "internalType": "uint256",
          "name": "_amount",
          "type": "uint256"
        }
      ],
      "name": "bountyDeposit",
      "outputs": [
        {
          "internalType": "bool",
          "name": "",
          "type": "bool"
        }
      ],
      "stateMutability": "nonpayable",
      "type": "function"
    },
    {
      "inputs": [
        {
          "internalType": "address",
          "name": "_token",
          "type": "address"
        },
        {
          "internalType": "address",
          "name": "_staker",
          "type": "address"
        },
        {
          "internalType": "address",
          "name": "_projectWallet",
          "type": "address"
        }
      ],
      "name": "claimPremium",
      "outputs": [
        {
          "internalType": "uint256",
          "name": "",
          "type": "uint256"
        },
        {
          "internalType": "bool",
          "name": "",
          "type": "bool"
        }
      ],
      "stateMutability": "nonpayable",
      "type": "function"
    },
    {
      "inputs": [
        {
          "internalType": "address",
          "name": "_token",
          "type": "address"
        },
        {
          "internalType": "address",
          "name": "_saloonWallet",
          "type": "address"
        }
      ],
      "name": "collectSaloonPremiumFees",
      "outputs": [
        {
          "internalType": "uint256",
          "name": "",
          "type": "uint256"
        }
      ],
      "stateMutability": "nonpayable",
      "type": "function"
    },
    {
      "inputs": [],
      "name": "desiredAPY",
      "outputs": [
        {
          "internalType": "uint256",
          "name": "",
          "type": "uint256"
        }
      ],
      "stateMutability": "view",
      "type": "function"
    },
    {
      "inputs": [
        {
          "internalType": "address",
          "name": "_manager",
          "type": "address"
        }
      ],
      "name": "initializeImplementation",
      "outputs": [],
      "stateMutability": "nonpayable",
      "type": "function"
    },
    {
      "inputs": [
        {
          "internalType": "address",
          "name": "",
          "type": "address"
        }
      ],
      "name": "lastClaimed",
      "outputs": [
        {
          "internalType": "uint256",
          "name": "",
          "type": "uint256"
        }
      ],
      "stateMutability": "view",
      "type": "function"
    },
    {
      "inputs": [],
      "name": "lastTimePaid",
      "outputs": [
        {
          "internalType": "uint256",
          "name": "",
          "type": "uint256"
        }
      ],
      "stateMutability": "view",
      "type": "function"
    },
    {
      "inputs": [],
      "name": "manager",
      "outputs": [
        {
          "internalType": "address",
          "name": "",
          "type": "address"
        }
      ],
      "stateMutability": "view",
      "type": "function"
    },
    {
      "inputs": [],
      "name": "owner",
      "outputs": [
        {
          "internalType": "address",
          "name": "",
          "type": "address"
        }
      ],
      "stateMutability": "view",
      "type": "function"
    },
    {
      "inputs": [
        {
          "internalType": "address",
          "name": "_token",
          "type": "address"
        },
        {
          "internalType": "address",
          "name": "_saloonWallet",
          "type": "address"
        },
        {
          "internalType": "address",
          "name": "_hunter",
          "type": "address"
        },
        {
          "internalType": "uint256",
          "name": "_amount",
          "type": "uint256"
        }
      ],
      "name": "payBounty",
      "outputs": [
        {
          "internalType": "bool",
          "name": "",
          "type": "bool"
        }
      ],
      "stateMutability": "nonpayable",
      "type": "function"
    },
    {
      "inputs": [],
      "name": "poolCap",
      "outputs": [
        {
          "internalType": "uint256",
          "name": "",
          "type": "uint256"
        }
      ],
      "stateMutability": "view",
      "type": "function"
    },
    {
      "inputs": [],
      "name": "poolCapTimelock",
      "outputs": [
        {
          "internalType": "uint256",
          "name": "timelock",
          "type": "uint256"
        },
        {
          "internalType": "uint256",
          "name": "amount",
          "type": "uint256"
        },
        {
          "internalType": "bool",
          "name": "executed",
          "type": "bool"
        }
      ],
      "stateMutability": "view",
      "type": "function"
    },
    {
      "inputs": [],
      "name": "poolPeriod",
      "outputs": [
        {
          "internalType": "uint256",
          "name": "",
          "type": "uint256"
        }
      ],
      "stateMutability": "view",
      "type": "function"
    },
    {
      "inputs": [],
      "name": "premiumBalance",
      "outputs": [
        {
          "internalType": "uint256",
          "name": "",
          "type": "uint256"
        }
      ],
      "stateMutability": "view",
      "type": "function"
    },
    {
      "inputs": [],
      "name": "projectDeposit",
      "outputs": [
        {
          "internalType": "uint256",
          "name": "",
          "type": "uint256"
        }
      ],
      "stateMutability": "view",
      "type": "function"
    },
    {
      "inputs": [
        {
          "internalType": "address",
          "name": "_token",
          "type": "address"
        },
        {
          "internalType": "address",
          "name": "_projectWallet",
          "type": "address"
        },
        {
          "internalType": "uint256",
          "name": "_amount",
          "type": "uint256"
        }
      ],
      "name": "projectDepositWithdrawal",
      "outputs": [
        {
          "internalType": "bool",
          "name": "",
          "type": "bool"
        }
      ],
      "stateMutability": "nonpayable",
      "type": "function"
    },
    {
      "inputs": [],
      "name": "renounceOwnership",
      "outputs": [],
      "stateMutability": "nonpayable",
      "type": "function"
    },
    {
      "inputs": [],
      "name": "requiredPremiumBalancePerPeriod",
      "outputs": [
        {
          "internalType": "uint256",
          "name": "",
          "type": "uint256"
        }
      ],
      "stateMutability": "view",
      "type": "function"
    },
    {
      "inputs": [],
      "name": "saloonBountyCommission",
      "outputs": [
        {
          "internalType": "uint256",
          "name": "",
          "type": "uint256"
        }
      ],
      "stateMutability": "view",
      "type": "function"
    },
    {
      "inputs": [],
      "name": "saloonPremiumFees",
      "outputs": [
        {
          "internalType": "uint256",
          "name": "",
          "type": "uint256"
        }
      ],
      "stateMutability": "view",
      "type": "function"
    },
    {
      "inputs": [
        {
          "internalType": "uint256",
          "name": "_newAPY",
          "type": "uint256"
        }
      ],
      "name": "scheduleAPYChange",
      "outputs": [],
      "stateMutability": "nonpayable",
      "type": "function"
    },
    {
      "inputs": [
        {
          "internalType": "uint256",
          "name": "_newPoolCap",
          "type": "uint256"
        }
      ],
      "name": "schedulePoolCapChange",
      "outputs": [],
      "stateMutability": "nonpayable",
      "type": "function"
    },
    {
      "inputs": [
        {
          "internalType": "address",
          "name": "_staker",
          "type": "address"
        },
        {
          "internalType": "uint256",
          "name": "_amount",
          "type": "uint256"
        }
      ],
      "name": "scheduleUnstake",
      "outputs": [
        {
          "internalType": "bool",
          "name": "",
          "type": "bool"
        }
      ],
      "stateMutability": "nonpayable",
      "type": "function"
    },
    {
      "inputs": [
        {
          "internalType": "uint256",
          "name": "_amount",
          "type": "uint256"
        }
      ],
      "name": "scheduleprojectDepositWithdrawal",
      "outputs": [
        {
          "internalType": "bool",
          "name": "",
          "type": "bool"
        }
      ],
      "stateMutability": "nonpayable",
      "type": "function"
    },
    {
      "inputs": [
        {
          "internalType": "address",
          "name": "_token",
          "type": "address"
        },
        {
          "internalType": "address",
          "name": "_projectWallet",
          "type": "address"
        },
        {
          "internalType": "uint256",
          "name": "_desiredAPY",
          "type": "uint256"
        }
      ],
      "name": "setDesiredAPY",
      "outputs": [
        {
          "internalType": "bool",
          "name": "",
          "type": "bool"
        }
      ],
      "stateMutability": "nonpayable",
      "type": "function"
    },
    {
      "inputs": [
        {
          "internalType": "uint256",
          "name": "_amount",
          "type": "uint256"
        }
      ],
      "name": "setPoolCap",
      "outputs": [],
      "stateMutability": "nonpayable",
      "type": "function"
    },
    {
      "inputs": [
        {
          "internalType": "address",
          "name": "_token",
          "type": "address"
        },
        {
          "internalType": "address",
          "name": "_staker",
          "type": "address"
        },
        {
          "internalType": "uint256",
          "name": "_amount",
          "type": "uint256"
        }
      ],
      "name": "stake",
      "outputs": [
        {
          "internalType": "bool",
          "name": "",
          "type": "bool"
        }
      ],
      "stateMutability": "nonpayable",
      "type": "function"
    },
    {
      "inputs": [
        {
          "internalType": "address",
          "name": "",
          "type": "address"
        },
        {
          "internalType": "uint256",
          "name": "",
          "type": "uint256"
        }
      ],
      "name": "staker",
      "outputs": [
        {
          "internalType": "uint256",
          "name": "stakeBalance",
          "type": "uint256"
        },
        {
          "internalType": "uint256",
          "name": "balanceTimeStamp",
          "type": "uint256"
        }
      ],
      "stateMutability": "view",
      "type": "function"
    },
    {
      "inputs": [
        {
          "internalType": "uint256",
          "name": "",
          "type": "uint256"
        }
      ],
      "name": "stakerList",
      "outputs": [
        {
          "internalType": "address",
          "name": "",
          "type": "address"
        }
      ],
      "stateMutability": "view",
      "type": "function"
    },
    {
      "inputs": [
        {
          "internalType": "address",
          "name": "",
          "type": "address"
        }
      ],
      "name": "stakerTimelock",
      "outputs": [
        {
          "internalType": "uint256",
          "name": "timelock",
          "type": "uint256"
        },
        {
          "internalType": "uint256",
          "name": "amount",
          "type": "uint256"
        },
        {
          "internalType": "bool",
          "name": "executed",
          "type": "bool"
        }
      ],
      "stateMutability": "view",
      "type": "function"
    },
    {
      "inputs": [
        {
          "internalType": "uint256",
          "name": "",
          "type": "uint256"
        }
      ],
      "name": "stakersDeposit",
      "outputs": [
        {
          "internalType": "uint256",
          "name": "stakeBalance",
          "type": "uint256"
        },
        {
          "internalType": "uint256",
          "name": "balanceTimeStamp",
          "type": "uint256"
        }
      ],
      "stateMutability": "view",
      "type": "function"
    },
    {
      "inputs": [
        {
          "internalType": "address",
          "name": "newOwner",
          "type": "address"
        }
      ],
      "name": "transferOwnership",
      "outputs": [],
      "stateMutability": "nonpayable",
      "type": "function"
    },
    {
      "inputs": [
        {
          "internalType": "address",
          "name": "_token",
          "type": "address"
        },
        {
          "internalType": "address",
          "name": "_staker",
          "type": "address"
        },
        {
          "internalType": "uint256",
          "name": "_amount",
          "type": "uint256"
        }
      ],
      "name": "unstake",
      "outputs": [
        {
          "internalType": "bool",
          "name": "",
          "type": "bool"
        }
      ],
      "stateMutability": "nonpayable",
      "type": "function"
    },
    {
      "inputs": [],
      "name": "viewBountyBalance",
      "outputs": [
        {
          "internalType": "uint256",
          "name": "",
          "type": "uint256"
        }
      ],
      "stateMutability": "view",
      "type": "function"
    },
    {
      "inputs": [],
      "name": "viewDesiredAPY",
      "outputs": [
        {
          "internalType": "uint256",
          "name": "",
          "type": "uint256"
        }
      ],
      "stateMutability": "view",
      "type": "function"
    },
    {
      "inputs": [],
      "name": "viewHackerPayout",
      "outputs": [
        {
          "internalType": "uint256",
          "name": "",
          "type": "uint256"
        }
      ],
      "stateMutability": "view",
      "type": "function"
    },
    {
      "inputs": [],
      "name": "viewPoolCap",
      "outputs": [
        {
          "internalType": "uint256",
          "name": "",
          "type": "uint256"
        }
      ],
      "stateMutability": "view",
      "type": "function"
    },
    {
      "inputs": [],
      "name": "viewPremiumBalance",
      "outputs": [
        {
          "internalType": "uint256",
          "name": "",
          "type": "uint256"
        }
      ],
      "stateMutability": "view",
      "type": "function"
    },
    {
      "inputs": [],
      "name": "viewProjecDeposit",
      "outputs": [
        {
          "internalType": "uint256",
          "name": "",
          "type": "uint256"
        }
      ],
      "stateMutability": "view",
      "type": "function"
    },
    {
      "inputs": [],
      "name": "viewRequirePremiumBalance",
      "outputs": [
        {
          "internalType": "uint256",
          "name": "",
          "type": "uint256"
        }
      ],
      "stateMutability": "view",
      "type": "function"
    },
    {
      "inputs": [],
      "name": "viewStakersDeposit",
      "outputs": [
        {
          "internalType": "uint256",
          "name": "",
          "type": "uint256"
        }
      ],
      "stateMutability": "view",
      "type": "function"
    },
    {
      "inputs": [
        {
          "internalType": "address",
          "name": "_staker",
          "type": "address"
        }
      ],
      "name": "viewUserStakingBalance",
      "outputs": [
        {
          "internalType": "uint256",
          "name": "",
          "type": "uint256"
        },
        {
          "internalType": "uint256",
          "name": "",
          "type": "uint256"
        }
      ],
      "stateMutability": "view",
      "type": "function"
    },
    {
      "inputs": [],
      "name": "viewcurrentAPY",
      "outputs": [
        {
          "internalType": "uint256",
          "name": "",
          "type": "uint256"
        }
      ],
      "stateMutability": "view",
      "type": "function"
    },
    {
      "inputs": [],
      "name": "withdrawalTimelock",
      "outputs": [
        {
          "internalType": "uint256",
          "name": "timelock",
          "type": "uint256"
        },
        {
          "internalType": "uint256",
          "name": "amount",
          "type": "uint256"
        },
        {
          "internalType": "bool",
          "name": "executed",
          "type": "bool"
        }
      ],
      "stateMutability": "view",
      "type": "function"
    }
  ],
  "bytecode": {
    "object": "0x6080604052621275006002553480156200001857600080fd5b5062000024336200002a565b6200007a565b600080546001600160a01b038381166001600160a01b0319831681178455604051919092169283917f8be0079c531659141344cd1fd0a4f28419497f9722a3daafe3b4186f6b6457e09190a35050565b613a3d806200008a6000396000f3fe608060405234801561001057600080fd5b50600436106103275760003560e01c806373927c11116101b8578063bb86278511610104578063d5cb8669116100a2578063e45080e61161007c578063e45080e6146106a9578063f2fde38b146106b1578063ff45d4c0146106c4578063ffa1ad74146106cc57600080fd5b8063d5cb86691461067b578063d835f53514610683578063ddaaae031461069657600080fd5b8063c9e66d41116100de578063c9e66d4114610618578063cc12c3111461064d578063d084b03a14610660578063d26c90a91461066857600080fd5b8063bb86278514610618578063bf6eac2f14610627578063c790ef821461063a57600080fd5b80638aa82e82116101715780639e4bfaa51161014b5780639e4bfaa5146105e0578063a194c3b6146105f3578063a4bf70bd14610606578063b954dc571461060f57600080fd5b80638aa82e82146105ac5780638da5cb5b146105bf578063918f8674146105d057600080fd5b806373927c1114610536578063769966e81461054957806378eb46fd1461057b57806380d440ff14610583578063839145401461059857806384dc10b4146105a357600080fd5b806344ebc03d116102775780634c3bdee01161023057806360829f8a1161020a57806360829f8a146104fd578063715018a614610510578063728ecaf81461051857806372d269511461052d57600080fd5b80634c3bdee0146104ce578063503cb917146104d75780635121ac9d146104ea57600080fd5b806344ebc03d1461047957806345042dec14610482578063481c6a751461048b5780634a94bcb31461049e5780634b5df6cc146104a65780634b8e0d37146104b957600080fd5b80633065f450116102e4578063383639b3116102be578063383639b3146104485780633a5b0172146104505780633d850fb21461045d578063419b7bd71461046657600080fd5b80633065f450146103d25780633147096d146103fa578063348e50c61461041d57600080fd5b8063013eba921461032c5780631104ec251461035f57806316e17b8d146103685780631a89cabd146103705780631e27970f1461039857806320d83086146103ca575b600080fd5b61034c61033a36600461368f565b600b6020526000908152604090205481565b6040519081526020015b60405180910390f35b61034c60085481565b61034c6106d4565b61038361037e36600461368f565b61078c565b60408051928352602083019190915201610356565b6014546015546016546103ad92919060ff1683565b604080519384526020840192909252151590820152606001610356565b60055461034c565b6103e56103e03660046136aa565b610823565b60408051928352901515602083015201610356565b61040d6104083660046136ed565b610a03565b6040519015158152602001610356565b61043061042b366004613729565b610a69565b6040516001600160a01b039091168152602001610356565b60095461034c565b601d5461040d9060ff1681565b61034c60045481565b61040d6104743660046136ed565b610a93565b61034c60055481565b61034c60025481565b600154610430906001600160a01b031681565b61034c610b78565b61040d6104b4366004613729565b610c72565b6104cc6104c736600461368f565b610cc7565b005b61034c600a5481565b6104cc6104e5366004613729565b610e07565b61034c6104f8366004613742565b610e50565b61040d61050b3660046136ed565b610ea3565b6104cc61133f565b6011546012546013546103ad92919060ff1683565b61034c60095481565b61040d610544366004613775565b611353565b6103ad61055736600461368f565b600d6020526000908152604090208054600182015460029092015490919060ff1683565b60065461034c565b600e54600f546010546103ad92919060ff1683565b61034c6301e1338081565b61034c60065481565b61040d6105ba366004613742565b611938565b6000546001600160a01b0316610430565b61034c68056bc75e2d6310000081565b6103836105ee3660046137c0565b611bca565b610383610601366004613729565b611c06565b61034c60035481565b61034c60075481565b61034c678ac7230489e8000081565b61040d6106353660046136ed565b611c34565b61040d6106483660046137c0565b6120c8565b61040d61065b3660046136ed565b612233565b600a5461034c565b6104cc610676366004613729565b612637565b61034c612680565b6104cc610691366004613729565b612693565b6103836106a4366004613729565b612748565b61034c612758565b6104cc6106bf36600461368f565b612812565b60075461034c565b61034c600181565b6000806019805480602002602001604051908101604052809291908181526020016000905b8282101561073f578382906000526020600020906002020160405180604001604052908160008201548152602001600182015481525050815260200190600101906106f9565b505082519293505050806107565760009250505090565b6019610763600183613800565b8154811061077357610773613817565b9060005260206000209060020201600001549250505090565b6001600160a01b0381166000908152600c60205260408120805482916107b3600183613800565b815481106107c3576107c3613817565b600091825260208083206002909202909101546001600160a01b0387168352600c90915260409091206107f7600184613800565b8154811061080757610807613817565b9060005260206000209060020201600101549250925050915091565b60015460009081906001600160a01b0316331461085b5760405162461bcd60e51b81526004016108529061382d565b60405180910390fd5b6001600160a01b0384166000908152600b6020908152604080832054600c83528184208054835181860281018601909452808452919493909190849084015b828210156108e05783829060005260206000209060020201604051806040016040529081600082015481526020016001820154815250508152602001906001019061089a565b50508251600554939450929150600090506108fc85858561288b565b9050600068056bc75e2d6310000061091c678ac7230489e800008461385b565b610926919061387a565b90506109328183613800565b91508180841015610949576109478c8b611938565b505b60405163a9059cbb60e01b81526001600160a01b038c81166004830152602482018390528d169063a9059cbb906044016020604051808303816000875af1158015610998573d6000803e3d6000fd5b505050506040513d601f19601f820116820180604052508101906109bc919061389c565b5082600560008282546109cf9190613800565b90915550506001600160a01b038b166000908152600b60205260409020429055975060019650505050505050935093915050565b6001546000906001600160a01b03163314610a305760405162461bcd60e51b81526004016108529061382d565b610a456001600160a01b038516843085612914565b508160096000828254610a5891906138be565b9091555060019150505b9392505050565b60178181548110610a7957600080fd5b6000918252602090912001546001600160a01b0316905081565b6001546000906001600160a01b03163314610ac05760405162461bcd60e51b81526004016108529061382d565b60408051606081018252601454808252601554602083015260165460ff161515928201929092529042118015610af857506040810151155b8015610b08575082816020015110155b8015610b145750805115155b610b305760405162461bcd60e51b8152600401610852906138d6565b6016805460ff1916600117905560098054849190600090610b52908490613800565b90915550610b6c90506001600160a01b038616858561298d565b50600195945050505050565b6000806019805480602002602001604051908101604052809291908181526020016000905b82821015610be357838290600052602060002090600202016040518060400160405290816000820154815260200160018201548152505081526020019060010190610b9d565b50508251929350600091505081610bfd5750600954610c35565b82610c09600184613800565b81518110610c1957610c19613817565b602002602001015160000151600954610c3291906138be565b90505b600068056bc75e2d63100000610c53678ac7230489e800008461385b565b610c5d919061387a565b9050610c698183613800565b94505050505090565b6001546000906001600160a01b03163314610c9f5760405162461bcd60e51b81526004016108529061382d565b600254610cac90426138be565b6014555060158190556016805460ff1916905560015b919050565b600054600160a81b900460ff1615808015610cef57506000546001600160a01b90910460ff16105b80610d105750303b158015610d105750600054600160a01b900460ff166001145b610d735760405162461bcd60e51b815260206004820152602e60248201527f496e697469616c697a61626c653a20636f6e747261637420697320616c72656160448201526d191e481a5b9a5d1a585b1a5e995960921b6064820152608401610852565b6000805460ff60a01b1916600160a01b1790558015610da0576000805460ff60a81b1916600160a81b1790555b600180546001600160a01b0319166001600160a01b0384161790558015610e03576000805460ff60a81b19169055604051600181527f7f26b83ff96e1f2b6a682f133852f6798a09c465da95921460cefb38474024989060200160405180910390a15b5050565b6001546001600160a01b03163314610e315760405162461bcd60e51b81526004016108529061382d565b600254610e3e90426138be565b6011556012556013805460ff19169055565b6001546000906001600160a01b03163314610e7d5760405162461bcd60e51b81526004016108529061382d565b600454610e946001600160a01b038516848361298d565b50600060045590505b92915050565b6001546000906001600160a01b03163314610ed05760405162461bcd60e51b81526004016108529061382d565b600654151580610ee75750601d5460ff1615156001145b15610a62576001600160a01b0383166000908152600d60209081526040918290208251606081018452815480825260018301549382019390935260029091015460ff1615159281019290925242118015610f4357506040810151155b8015610f53575082816020015110155b8015610f5f5750805115155b610f7b5760405162461bcd60e51b8152600401610852906138d6565b6001600160a01b0384166000908152600d60209081526040808320600201805460ff19166001908117909155600c909252822054610fb99190613800565b9050610fd8604051806040016040528060008152602001600081525090565b426020808301919091526001600160a01b0387166000908152600c9091526040902080548691908490811061100f5761100f613817565b90600052602060002090600202016000015461102b9190613800565b815260178054604080516020808402820181019092528281526000939092909183018282801561108457602002820191906000526020600020905b81546001600160a01b03168152600190910190602001808311611066575b505050505090508160000151600014156111d457805160005b818110156111d157886001600160a01b03168382815181106110c1576110c1613817565b60200260200101516001600160a01b031614156111c9576000836110e6600185613800565b815181106110f6576110f6613817565b602002602001015190508960176001856111109190613800565b8154811061112057611120613817565b9060005260206000200160006101000a8154816001600160a01b0302191690836001600160a01b03160217905550806017838154811061116257611162613817565b9060005260206000200160006101000a8154816001600160a01b0302191690836001600160a01b0316021790555060178054806111a1576111a1613917565b600082815260209020810160001990810180546001600160a01b0319169055019055506111d1565b60010161109d565b50505b6001600160a01b0387166000908152600c60209081526040808320805460018181018355918552838520875160029092020190815586840151910155601980548251818502810185019093528083529192909190849084015b828210156112735783829060005260206000209060020201604051806040016040529081600082015481526020016001820154815250508152602001906001019061122d565b5050505090506000600182516112899190613800565b90506112a8604051806040016040528060008152602001600081525090565b888383815181106112bb576112bb613817565b6020026020010151600001516112d19190613800565b815242602082019081526019805460018101825560009190915282516000805160206139e883398151915260029092029182015590516000805160206139c88339815191529091015561132e6001600160a01b038c168b8b61298d565b506001975050505050505050610a62565b6113476129ca565b6113516000612a24565b565b6001546000906001600160a01b031633146113805760405162461bcd60e51b81526004016108529061382d565b60006019805480602002602001604051908101604052809291908181526020016000905b828210156113ea578382906000526020600020906002020160405180604001604052908160008201548152602001600182015481525050815260200190600101906113a4565b5050505090506000600182516114009190613800565b90506000601780548060200260200160405190810160405280929190818152602001828054801561145a57602002820191906000526020600020905b81546001600160a01b0316815260019091019060200180831161143c575b505050505090506000815190508584848151811061147a5761147a613817565b602002602001015160000151106117ce578584848151811061149e5761149e613817565b60200260200101516000018181516114b69190613800565b905250604080518082019091526000815242602082015284518590859081106114e1576114e1613817565b6020908102919091010151518152845185908590811061150357611503613817565b6020026020010151600001516000141561160d5760005b828110156115a457604080518082019091526000808252426020830152855186908490811061154b5761154b613817565b6020908102919091018101516001600160a01b03166000908152600c82526040812080546001818101835591835291839020855160029093020191825593909101519201919091555061159d8161392d565b905061151a565b506115b18a898b8a612a74565b5060198054600181018255600091825282516000805160206139e883398151915260029092029182015560208301516000805160206139c8833981519152909101556115ff90601790613646565b600195505050505050611930565b600085858151811061162157611621613817565b60200260200101516000015188611638919061387a565b905060005b8381101561176f57600085828151811061165957611659613817565b6020908102919091018101516001600160a01b0381166000908152600c909252604082205490925061168d90600190613800565b6001600160a01b0383166000908152600c6020526040812080549293509091839081106116bc576116bc613817565b90600052602060002090600202016000015490506116ed604051806040016040528060008152602001600081525090565b42602082015268056bc75e2d63100000611707878461385b565b611711919061387a565b61171b9083613800565b81526001600160a01b039093166000908152600c6020908152604082208054600181810183559184529282902086516002909402019283559401519301929092555061176890508161392d565b905061163d565b506019805460018101825560009190915282516000805160206139e883398151915260029092029182015560208301516000805160206139c8833981519152909101556117be8b8a8c8b612a74565b5060019650505050505050611930565b60005b8181101561185b57604080518082019091526000808252426020830152845185908490811061180257611802613817565b6020908102919091018101516001600160a01b03166000908152600c8252604081208054600181810183559183529183902085516002909302019182559390910151920191909155506118548161392d565b90506117d1565b5061186860176000613646565b600084848151811061187c5761187c613817565b602002602001015160000151876118939190613800565b905080600960008282546118a79190613800565b9091555050604080518082019091526000815242602082015285518690869081106118d4576118d4613817565b6020908102919091018101515182526019805460018101825560009190915282516000805160206139e8833981519152600290920291820155908201516000805160206139c8833981519152909101556117be8b8a8c8b612a74565b949350505050565b6001546000906001600160a01b031633148061195357503330145b61199f5760405162461bcd60e51b815260206004820152601c60248201527f4f6e6c79206d616e61676572206f722073656c6620616c6c6f776564000000006044820152606401610852565b60006019805480602002602001604051908101604052809291908181526020016000905b82821015611a09578382906000526020600020906002020160405180604001604052908160008201548152602001600182015481525050815260200190600101906119c3565b50508251600854600654949550909390925090506000611a2b82858588612ae4565b6040516323b872dd60e01b81526001600160a01b03898116600483015230602483015260448201839052919250908916906323b872dd906064016020604051808303816000875af1925050508015611aa0575060408051601f3d908101601f19168201909252611a9d9181019061389c565b60015b611b52576040805180820190915260006020820152428152611ac0612680565b602082019081526018805460018101825560009190915282517fb13d2d76d1f4b7be834882e410b3e3a8afaf69f83600ae24db354391d2378d2e60029092029182015590517fb13d2d76d1f4b7be834882e410b3e3a8afaf69f83600ae24db354391d2378d2f90910155611b32612680565b6006555050601d805460ff191660011790555060009350610e9d92505050565b50600068056bc75e2d63100000611b71678ac7230489e800008461385b565b611b7b919061387a565b90508060046000828254611b8f91906138be565b925050819055508160056000828254611ba891906138be565b9091555050426008555050601d805460ff191690555060019695505050505050565b600c6020528160005260406000208181548110611be657600080fd5b600091825260209091206002909102018054600190910154909250905082565b60198181548110611c1657600080fd5b60009182526020909120600290910201805460019091015490915082565b6001546000906001600160a01b03163314611c615760405162461bcd60e51b81526004016108529061382d565b60006019805480602002602001604051908101604052809291908181526020016000905b82821015611ccb57838290600052602060002090600202016040518060400160405290816000820154815260200160018201548152505081526020019060010190611c85565b50508251929350505080611d2b576040805180820190915260008082526020820181815260198054600181018255925291516000805160206139e883398151915260029092029182015590516000805160206139c8833981519152909101555b601954600090611d3d90600190613800565b90506007548560198381548110611d5657611d56613817565b906000526020600020906002020160000154611d7291906138be565b1115611dc05760405162461bcd60e51b815260206004820152601960248201527f5374616b696e6720506f6f6c20616c72656164792066756c6c000000000000006044820152606401610852565b6001600160a01b0386166000908152600c602052604090205480611e2a57604080518082018252600080825260208083018281526001600160a01b038c168352600c8252938220805460018082018355918452919092209251600290910290920191825591519101555b6001600160a01b0387166000908152600c6020526040812054611e4f90600190613800565b6001600160a01b0389166000908152600c6020526040902080549192509082908110611e7d57611e7d613817565b90600052602060002090600202016000015460001415611ee357601780546001810182556000919091527fc624b66cc0138b8fabc209247f72d758e1cf3343756d543badbf24212bed8c150180546001600160a01b0319166001600160a01b038a161790555b6040805180820182526000808252426020808401919091526001600160a01b038c168252600c905291909120805489919084908110611f2457611f24613817565b906000526020600020906002020160000154611f4091906138be565b815282611f98576001600160a01b0389166000908152600c60205260409020805482919084908110611f7457611f74613817565b60009182526020918290208351600290920201908155910151600190910155611fd5565b6001600160a01b0389166000908152600c602090815260408220805460018181018355918452928290208451600290940201928355908301519101555b60408051808201909152600080825260208201528860198681548110611ffd57611ffd613817565b90600052602060002090600202016000015461201991906138be565b81524260208201528561205e57806019868154811061203a5761203a613817565b600091825260209182902083516002909202019081559101516001909101556120a1565b6019805460018101825560009190915281516000805160206139e883398151915260029092029182015560208201516000805160206139c8833981519152909101555b6120b66001600160a01b038c168b308c612914565b5060019b9a5050505050505050505050565b6001546000906001600160a01b031633146120f55760405162461bcd60e51b81526004016108529061382d565b6001600160a01b0383166000908152600c6020908152604080832080548251818502810185019093528083529192909190849084015b828210156121715783829060005260206000209060020201604051806040016040529081600082015481526020016001820154815250508152602001906001019061212b565b5050505090506000600182516121879190613800565b90508382828151811061219c5761219c613817565b60200260200101516000015110156121ed5760405162461bcd60e51b8152602060048201526014602482015273496e73756669636369656e742062616c616e636560601b6044820152606401610852565b6002546121fa90426138be565b6001600160a01b03959095166000908152600d602052604090209485555050506001808301919091556002909101805460ff1916905590565b6001546000906001600160a01b031633146122605760405162461bcd60e51b81526004016108529061382d565b600654156122e65760408051606081018252601154808252601254602083015260135460ff1615159282019290925290421180156122a057506040810151155b80156122af5750828160200151145b80156122bb5750805115155b6122d75760405162461bcd60e51b8152600401610852906138d6565b506013805460ff191660011790555b600060055490506000806019805480602002602001604051908101604052809291908181526020016000905b8282101561235857838290600052602060002090600202016040518060400160405290816000820154815260200160018201548152505081526020019060010190612312565b5050825192935050811590506123a85781612374600183613800565b8151811061238457612384613817565b6020026020010151600001516000146123a3576123a18888611938565b505b61242d565b6002546301e1338068056bc75e2d63100000886007546123c8919061385b565b6123d2919061387a565b6123dc919061387a565b6123e6919061385b565b92508284101561242d5760006123fc8585613800565b90506124136001600160a01b038a16893084612914565b50806005600082825461242691906138be565b9091555050505b600a839055604080518082018252428152602080820189815260188054600181018255600091825284517fb13d2d76d1f4b7be834882e410b3e3a8afaf69f83600ae24db354391d2378d2e60029092029182015591517fb13d2d76d1f4b7be834882e410b3e3a8afaf69f83600ae24db354391d2378d2f9092019190915560068a90556017805485518185028101850190965280865293949193919290919083018282801561250557602002820191906000526020600020905b81546001600160a01b031681526001909101906020018083116124e7575b5050505050905060008151111561261d576000600182516125269190613800565b905060005b8181101561261a57600083828151811061254757612547613817565b6020908102919091018101516001600160a01b0381166000908152600c909252604082205490925061257b90600190613800565b905061259a604051806040016040528060008152602001600081525090565b6001600160a01b0383166000908152600c602052604090208054839081106125c4576125c4613817565b60009182526020808320600292830201548452428482019081526001600160a01b039096168352600c8152604083208054600181810183559185529190932093519102909201918255925190830155500161252b565b50505b5050601d805460ff19169055506001979650505050505050565b6001546001600160a01b031633146126615760405162461bcd60e51b81526004016108529061382d565b60025461266e90426138be565b600e55600f556010805460ff19169055565b600080600754600554610e9d919061387a565b6001546001600160a01b031633146126bd5760405162461bcd60e51b81526004016108529061382d565b600754156127435760408051606081018252600e54808252600f54602083015260105460ff1615159282019290925290421180156126fd57506040810151155b801561270c5750818160200151145b80156127185750805115155b6127345760405162461bcd60e51b8152600401610852906138d6565b506010805460ff191660011790555b600755565b60188181548110611c1657600080fd5b6000806019805480602002602001604051908101604052809291908181526020016000905b828210156127c35783829060005260206000209060020201604051806040016040529081600082015481526020016001820154815250508152602001906001019061277d565b505082519293506000915050816127dd5750600954610a62565b826127e9600184613800565b815181106127f9576127f9613817565b60200260200101516000015160095461193091906138be565b61281a6129ca565b6001600160a01b03811661287f5760405162461bcd60e51b815260206004820152602660248201527f4f776e61626c653a206e6577206f776e657220697320746865207a65726f206160448201526564647265737360d01b6064820152608401610852565b61288881612a24565b50565b6000806018805480602002602001604051908101604052809291908181526020016000905b828210156128f6578382906000526020600020906002020160405180604001604052908160008201548152602001600182015481525050815260200190600101906128b0565b505050509050600061290a86868685612ed0565b9695505050505050565b6040516001600160a01b03808516602483015283166044820152606481018290526000906129829086906323b872dd60e01b906084015b60408051601f198184030181529190526020810180516001600160e01b03166001600160e01b0319909316929092179091526131b8565b506001949350505050565b6040516001600160a01b0383166024820152604481018290526000906129c090859063a9059cbb60e01b9060640161294b565b5060019392505050565b6000546001600160a01b031633146113515760405162461bcd60e51b815260206004820181905260248201527f4f776e61626c653a2063616c6c6572206973206e6f7420746865206f776e65726044820152606401610852565b600080546001600160a01b038381166001600160a01b0319831681178455604051919092169283917f8be0079c531659141344cd1fd0a4f28419497f9722a3daafe3b4186f6b6457e09190a35050565b60008068056bc75e2d63100000612a93678ac7230489e800008561385b565b612a9d919061387a565b90506000612aab8285613800565b9050612ac16001600160a01b038816878361298d565b50612ad66001600160a01b038816868461298d565b506001979650505050505050565b60008060005b85811015612b5d5784848281518110612b0557612b05613817565b6020026020010151602001511115612b4d57601b80546001810182556000919091527f3ad8aa4f87544323a9d1e5dd902f40c356527a7955687113db5f9a85ad579dc1018190555b612b568161392d565b9050612aea565b506000601b805480602002602001604051908101604052809291908181526020018280548015612bac57602002820191906000526020600020905b815481526020019060010190808311612b98575b505083519394506000925050505b81811015612eb757600087612ca857612bd4600184613800565b821415612c245786848381518110612bee57612bee613817565b602002602001015181518110612c0657612c06613817565b60200260200101516020015142612c1d9190613800565b9050612e29565b86848381518110612c3757612c37613817565b602002602001015181518110612c4f57612c4f613817565b6020026020010151602001518785846001612c6a91906138be565b81518110612c7a57612c7a613817565b602002602001015181518110612c9257612c92613817565b602002602001015160200151612c1d9190613800565b81612d7d5786848381518110612cc057612cc0613817565b602002602001015181518110612cd857612cd8613817565b6020026020010151602001518785846001612cf391906138be565b81518110612d0357612d03613817565b602002602001015181518110612d1b57612d1b613817565b602002602001015160200151612d319190613800565b87858481518110612d4457612d44613817565b602002602001015181518110612d5c57612d5c613817565b60200260200101516020015189612d739190613800565b612c1d91906138be565b612d88600184613800565b821415612da25786848381518110612bee57612bee613817565b86848381518110612db557612db5613817565b602002602001015181518110612dcd57612dcd613817565b6020026020010151602001518785846001612de891906138be565b81518110612df857612df8613817565b602002602001015181518110612e1057612e10613817565b602002602001015160200151612e269190613800565b90505b806301e1338068056bc75e2d631000008c8a888781518110612e4d57612e4d613817565b602002602001015181518110612e6557612e65613817565b602002602001015160000151612e7b919061385b565b612e85919061387a565b612e8f919061387a565b612e99919061385b565b612ea390866138be565b94505080612eb09061392d565b9050612bba565b50612ec4601b6000613646565b50909695505050505050565b805160009081808088612f985760005b84811015612f9257868181518110612efa57612efa613817565b6020026020010151600001519250600185612f159190613800565b811415612f2457429150612f4f565b86612f308260016138be565b81518110612f4057612f40613817565b60200260200101516000015191505b6000878281518110612f6357612f63613817565b6020026020010151602001519050612f7e8185858d8d61328f565b94505080612f8b9061392d565b9050612ee0565b506131ab565b60005b848110156130415789878281518110612fb657612fb6613817565b602002602001015160000151111561303157601a612fd5600183613800565b815460018181018455600093845260209093200155612ff49086613800565b81141561303157601a80546001810182556000919091527f057c384a7d1c54f3a1b2e5e67b2617b8224fdfd1ea7234eea573a6ff665ff63e018190555b61303a8161392d565b9050612f9b565b506000601a80548060200260200160405190810160405280929190818152602001828054801561309057602002820191906000526020600020905b81548152602001906001019080831161307c575b505083519394506000925050505b818110156131a757806130b3578b94506130ed565b888382815181106130c6576130c6613817565b6020026020010151815181106130de576130de613817565b60200260200101516000015194505b6130f8600188613800565b8114156131075742935061314b565b88836131148360016138be565b8151811061312457613124613817565b60200260200101518151811061313c5761313c613817565b60200260200101516000015193505b60008984838151811061316057613160613817565b60200260200101518151811061317857613178613817565b60200260200101516020015190506131938187878f8f61328f565b965050806131a09061392d565b905061309e565b5050505b5090979650505050505050565b600061320d826040518060400160405280602081526020017f5361666545524332303a206c6f772d6c6576656c2063616c6c206661696c6564815250856001600160a01b03166135269092919063ffffffff16565b80519091501561328a578080602001905181019061322b919061389c565b61328a5760405162461bcd60e51b815260206004820152602a60248201527f5361666545524332303a204552433230206f7065726174696f6e20646964206e6044820152691bdd081cdd58d8d9595960b21b6064820152608401610852565b505050565b6000806000805b8481101561333157878682815181106132b1576132b1613817565b6020026020010151602001511180156132e65750868682815181106132d8576132d8613817565b602002602001015160200151105b1561332157601c80546001810182556000919091527f0e4562a10381dec21b205ed72637e6b1b523bdd0e4d4d50af5cd23dd4500a211018190555b61332a8161392d565b9050613296565b506000601c80548060200260200160405190810160405280929190818152602001828054801561338057602002820191906000526020600020905b81548152602001906001019080831161336c575b505083519394506000925050505b8181101561350a576133a1600183613800565b8114156133f157878382815181106133bb576133bb613817565b6020026020010151815181106133d3576133d3613817565b602002602001015160200151426133ea9190613800565b9350613478565b8783828151811061340457613404613817565b60200260200101518151811061341c5761341c613817565b602002602001015160200151888483600161343791906138be565b8151811061344757613447613817565b60200260200101518151811061345f5761345f613817565b6020026020010151602001516134759190613800565b93505b6000846301e1338068056bc75e2d631000008e8c88878151811061349e5761349e613817565b6020026020010151815181106134b6576134b6613817565b6020026020010151600001516134cc919061385b565b6134d6919061387a565b6134e0919061387a565b6134ea919061385b565b90506134f681876138be565b955050806135039061392d565b905061338e565b505050601c600061351b9190613646565b509695505050505050565b6060611930848460008585600080866001600160a01b0316858760405161354d9190613978565b60006040518083038185875af1925050503d806000811461358a576040519150601f19603f3d011682016040523d82523d6000602084013e61358f565b606091505b50915091506135a0878383876135ab565b979650505050505050565b60608315613617578251613610576001600160a01b0385163b6136105760405162461bcd60e51b815260206004820152601d60248201527f416464726573733a2063616c6c20746f206e6f6e2d636f6e74726163740000006044820152606401610852565b5081611930565b611930838381511561362c5781518083602001fd5b8060405162461bcd60e51b81526004016108529190613994565b508054600082559060005260206000209081019061288891905b808211156136745760008155600101613660565b5090565b80356001600160a01b0381168114610cc257600080fd5b6000602082840312156136a157600080fd5b610a6282613678565b6000806000606084860312156136bf57600080fd5b6136c884613678565b92506136d660208501613678565b91506136e460408501613678565b90509250925092565b60008060006060848603121561370257600080fd5b61370b84613678565b925061371960208501613678565b9150604084013590509250925092565b60006020828403121561373b57600080fd5b5035919050565b6000806040838503121561375557600080fd5b61375e83613678565b915061376c60208401613678565b90509250929050565b6000806000806080858703121561378b57600080fd5b61379485613678565b93506137a260208601613678565b92506137b060408601613678565b9396929550929360600135925050565b600080604083850312156137d357600080fd5b6137dc83613678565b946020939093013593505050565b634e487b7160e01b600052601160045260246000fd5b600082821015613812576138126137ea565b500390565b634e487b7160e01b600052603260045260246000fd5b60208082526014908201527313db9b1e481b585b9859d95c88185b1b1bddd95960621b604082015260600190565b6000816000190483118215151615613875576138756137ea565b500290565b60008261389757634e487b7160e01b600052601260045260246000fd5b500490565b6000602082840312156138ae57600080fd5b81518015158114610a6257600080fd5b600082198211156138d1576138d16137ea565b500190565b60208082526021908201527f54696d656c6f636b206e6f7420736574206f72206e6f7420636f6d706c6574656040820152601960fa1b606082015260800190565b634e487b7160e01b600052603160045260246000fd5b6000600019821415613941576139416137ea565b5060010190565b60005b8381101561396357818101518382015260200161394b565b83811115613972576000848401525b50505050565b6000825161398a818460208701613948565b9190910192915050565b60208152600082518060208401526139b3816040850160208701613948565b601f01601f1916919091016040019291505056fe944998273e477b495144fb8794c914197f3ccb46be2900f4698fd0ef743c9696944998273e477b495144fb8794c914197f3ccb46be2900f4698fd0ef743c9695a2646970667358221220a258ce8485bcb5b980ff0f28ade1b0ddd809443ab4b590d340f0b41dd7226ae364736f6c634300080a0033",
    "linkReferences": {}
  },
  "methodIdentifiers": {
    "APYTimelock()": "728ecaf8",
    "APYdropped()": "3a5b0172",
    "APYrecords(uint256)": "ddaaae03",
    "BOUNTY_COMMISSION()": "c9e66d41",
    "DENOMINATOR()": "918f8674",
    "PREMIUM_COMMISSION()": "bb862785",
    "VERSION()": "ffa1ad74",
    "YEAR()": "83914540",
    "billPremium(address,address)": "8aa82e82",
    "bountyDeposit(address,address,uint256)": "3147096d",
    "claimPremium(address,address,address)": "3065f450",
    "collectSaloonPremiumFees(address,address)": "5121ac9d",
    "desiredAPY()": "84dc10b4",
    "initializeImplementation(address)": "4b8e0d37",
    "lastClaimed(address)": "013eba92",
    "lastTimePaid()": "1104ec25",
    "manager()": "481c6a75",
    "owner()": "8da5cb5b",
    "payBounty(address,address,address,uint256)": "73927c11",
    "poolCap()": "b954dc57",
    "poolCapTimelock()": "80d440ff",
    "poolPeriod()": "45042dec",
    "premiumBalance()": "44ebc03d",
    "projectDeposit()": "72d26951",
    "projectDepositWithdrawal(address,address,uint256)": "419b7bd7",
    "renounceOwnership()": "715018a6",
    "requiredPremiumBalancePerPeriod()": "4c3bdee0",
    "saloonBountyCommission()": "a4bf70bd",
    "saloonPremiumFees()": "3d850fb2",
    "scheduleAPYChange(uint256)": "503cb917",
    "schedulePoolCapChange(uint256)": "d26c90a9",
    "scheduleUnstake(address,uint256)": "c790ef82",
    "scheduleprojectDepositWithdrawal(uint256)": "4b5df6cc",
    "setDesiredAPY(address,address,uint256)": "cc12c311",
    "setPoolCap(uint256)": "d835f535",
    "stake(address,address,uint256)": "bf6eac2f",
    "staker(address,uint256)": "9e4bfaa5",
    "stakerList(uint256)": "348e50c6",
    "stakerTimelock(address)": "769966e8",
    "stakersDeposit(uint256)": "a194c3b6",
    "transferOwnership(address)": "f2fde38b",
    "unstake(address,address,uint256)": "60829f8a",
    "viewBountyBalance()": "e45080e6",
    "viewDesiredAPY()": "78eb46fd",
    "viewHackerPayout()": "4a94bcb3",
    "viewPoolCap()": "ff45d4c0",
    "viewPremiumBalance()": "20d83086",
    "viewProjecDeposit()": "383639b3",
    "viewRequirePremiumBalance()": "d084b03a",
    "viewStakersDeposit()": "16e17b8d",
    "viewUserStakingBalance(address)": "1a89cabd",
    "viewcurrentAPY()": "d5cb8669",
    "withdrawalTimelock()": "1e27970f"
  },
  "id": 29
}