{
  "abi": [
    {
      "anonymous": false,
      "inputs": [
        {
          "indexed": false,
          "internalType": "uint8",
          "name": "version",
          "type": "uint8"
        }
      ],
      "name": "Initialized",
      "type": "event"
    },
    {
      "anonymous": false,
      "inputs": [
        {
          "indexed": true,
          "internalType": "address",
          "name": "previousOwner",
          "type": "address"
        },
        {
          "indexed": true,
          "internalType": "address",
          "name": "newOwner",
          "type": "address"
        }
      ],
      "name": "OwnershipTransferred",
      "type": "event"
    },
    {
      "inputs": [],
      "name": "APYTimelock",
      "outputs": [
        {
          "internalType": "uint256",
          "name": "timelock",
          "type": "uint256"
        },
        {
          "internalType": "uint256",
          "name": "amount",
          "type": "uint256"
        },
        {
          "internalType": "bool",
          "name": "executed",
          "type": "bool"
        }
      ],
      "stateMutability": "view",
      "type": "function"
    },
    {
      "inputs": [],
      "name": "APYdropped",
      "outputs": [
        {
          "internalType": "bool",
          "name": "",
          "type": "bool"
        }
      ],
      "stateMutability": "view",
      "type": "function"
    },
    {
      "inputs": [
        {
          "internalType": "uint256",
          "name": "",
          "type": "uint256"
        }
      ],
      "name": "APYrecords",
      "outputs": [
        {
          "internalType": "uint256",
          "name": "timeStamp",
          "type": "uint256"
        },
        {
          "internalType": "uint256",
          "name": "periodAPY",
          "type": "uint256"
        }
      ],
      "stateMutability": "view",
      "type": "function"
    },
    {
      "inputs": [],
      "name": "PERIOD",
      "outputs": [
        {
          "internalType": "uint256",
          "name": "",
          "type": "uint256"
        }
      ],
      "stateMutability": "view",
      "type": "function"
    },
    {
      "inputs": [],
      "name": "PRECISION",
      "outputs": [
        {
          "internalType": "uint256",
          "name": "",
          "type": "uint256"
        }
      ],
      "stateMutability": "view",
      "type": "function"
    },
    {
      "inputs": [],
      "name": "VERSION",
      "outputs": [
        {
          "internalType": "uint256",
          "name": "",
          "type": "uint256"
        }
      ],
      "stateMutability": "view",
      "type": "function"
    },
    {
      "inputs": [],
      "name": "YEAR",
      "outputs": [
        {
          "internalType": "uint256",
          "name": "",
          "type": "uint256"
        }
      ],
      "stateMutability": "view",
      "type": "function"
    },
    {
      "inputs": [
        {
          "internalType": "address",
          "name": "_token",
          "type": "address"
        },
        {
          "internalType": "address",
          "name": "_projectWallet",
          "type": "address"
        }
      ],
      "name": "billPremium",
      "outputs": [
        {
          "internalType": "bool",
          "name": "",
          "type": "bool"
        }
      ],
      "stateMutability": "nonpayable",
      "type": "function"
    },
    {
      "inputs": [],
      "name": "bountyCommission",
      "outputs": [
        {
          "internalType": "uint256",
          "name": "",
          "type": "uint256"
        }
      ],
      "stateMutability": "view",
      "type": "function"
    },
    {
      "inputs": [
        {
          "internalType": "address",
          "name": "_token",
          "type": "address"
        },
        {
          "internalType": "address",
          "name": "_projectWallet",
          "type": "address"
        },
        {
          "internalType": "uint256",
          "name": "_amount",
          "type": "uint256"
        }
      ],
      "name": "bountyDeposit",
      "outputs": [
        {
          "internalType": "bool",
          "name": "",
          "type": "bool"
        }
      ],
      "stateMutability": "nonpayable",
      "type": "function"
    },
    {
      "inputs": [
        {
          "internalType": "address",
          "name": "_token",
          "type": "address"
        },
        {
          "internalType": "address",
          "name": "_staker",
          "type": "address"
        },
        {
          "internalType": "address",
          "name": "_projectWallet",
          "type": "address"
        }
      ],
      "name": "claimPremium",
      "outputs": [
        {
          "internalType": "uint256",
          "name": "",
          "type": "uint256"
        },
        {
          "internalType": "bool",
          "name": "",
          "type": "bool"
        }
      ],
      "stateMutability": "nonpayable",
      "type": "function"
    },
    {
      "inputs": [
        {
          "internalType": "address",
          "name": "_token",
          "type": "address"
        },
        {
          "internalType": "address",
          "name": "_saloonWallet",
          "type": "address"
        }
      ],
      "name": "collectSaloonPremiumFees",
      "outputs": [
        {
          "internalType": "uint256",
          "name": "",
          "type": "uint256"
        }
      ],
      "stateMutability": "nonpayable",
      "type": "function"
    },
    {
      "inputs": [],
      "name": "decimals",
      "outputs": [
        {
          "internalType": "uint256",
          "name": "",
          "type": "uint256"
        }
      ],
      "stateMutability": "view",
      "type": "function"
    },
    {
      "inputs": [],
      "name": "denominator",
      "outputs": [
        {
          "internalType": "uint256",
          "name": "",
          "type": "uint256"
        }
      ],
      "stateMutability": "view",
      "type": "function"
    },
    {
      "inputs": [],
      "name": "desiredAPY",
      "outputs": [
        {
          "internalType": "uint256",
          "name": "",
          "type": "uint256"
        }
      ],
      "stateMutability": "view",
      "type": "function"
    },
    {
      "inputs": [
        {
          "internalType": "address",
          "name": "_manager",
          "type": "address"
        },
        {
          "internalType": "uint256",
          "name": "_decimals",
          "type": "uint256"
        }
      ],
      "name": "initializeImplementation",
      "outputs": [],
      "stateMutability": "nonpayable",
      "type": "function"
    },
    {
      "inputs": [
        {
          "internalType": "address",
          "name": "",
          "type": "address"
        }
      ],
      "name": "lastClaimed",
      "outputs": [
        {
          "internalType": "uint256",
          "name": "",
          "type": "uint256"
        }
      ],
      "stateMutability": "view",
      "type": "function"
    },
    {
      "inputs": [],
      "name": "lastTimePaid",
      "outputs": [
        {
          "internalType": "uint256",
          "name": "",
          "type": "uint256"
        }
      ],
      "stateMutability": "view",
      "type": "function"
    },
    {
      "inputs": [],
      "name": "manager",
      "outputs": [
        {
          "internalType": "address",
          "name": "",
          "type": "address"
        }
      ],
      "stateMutability": "view",
      "type": "function"
    },
    {
      "inputs": [],
      "name": "owner",
      "outputs": [
        {
          "internalType": "address",
          "name": "",
          "type": "address"
        }
      ],
      "stateMutability": "view",
      "type": "function"
    },
    {
      "inputs": [
        {
          "internalType": "address",
          "name": "_token",
          "type": "address"
        },
        {
          "internalType": "address",
          "name": "_saloonWallet",
          "type": "address"
        },
        {
          "internalType": "address",
          "name": "_hunter",
          "type": "address"
        },
        {
          "internalType": "uint256",
          "name": "_amount",
          "type": "uint256"
        }
      ],
      "name": "payBounty",
      "outputs": [
        {
          "internalType": "bool",
          "name": "",
          "type": "bool"
        }
      ],
      "stateMutability": "nonpayable",
      "type": "function"
    },
    {
      "inputs": [],
      "name": "poolCap",
      "outputs": [
        {
          "internalType": "uint256",
          "name": "",
          "type": "uint256"
        }
      ],
      "stateMutability": "view",
      "type": "function"
    },
    {
      "inputs": [],
      "name": "poolCapTimelock",
      "outputs": [
        {
          "internalType": "uint256",
          "name": "timelock",
          "type": "uint256"
        },
        {
          "internalType": "uint256",
          "name": "amount",
          "type": "uint256"
        },
        {
          "internalType": "bool",
          "name": "executed",
          "type": "bool"
        }
      ],
      "stateMutability": "view",
      "type": "function"
    },
    {
      "inputs": [],
      "name": "premiumBalance",
      "outputs": [
        {
          "internalType": "uint256",
          "name": "",
          "type": "uint256"
        }
      ],
      "stateMutability": "view",
      "type": "function"
    },
    {
      "inputs": [],
      "name": "premiumCommission",
      "outputs": [
        {
          "internalType": "uint256",
          "name": "",
          "type": "uint256"
        }
      ],
      "stateMutability": "view",
      "type": "function"
    },
    {
      "inputs": [],
      "name": "projectDeposit",
      "outputs": [
        {
          "internalType": "uint256",
          "name": "",
          "type": "uint256"
        }
      ],
      "stateMutability": "view",
      "type": "function"
    },
    {
      "inputs": [
        {
          "internalType": "address",
          "name": "_token",
          "type": "address"
        },
        {
          "internalType": "address",
          "name": "_projectWallet",
          "type": "address"
        },
        {
          "internalType": "uint256",
          "name": "_amount",
          "type": "uint256"
        }
      ],
      "name": "projectDepositWithdrawal",
      "outputs": [
        {
          "internalType": "bool",
          "name": "",
          "type": "bool"
        }
      ],
      "stateMutability": "nonpayable",
      "type": "function"
    },
    {
      "inputs": [],
      "name": "renounceOwnership",
      "outputs": [],
      "stateMutability": "nonpayable",
      "type": "function"
    },
    {
      "inputs": [],
      "name": "requiredPremiumBalancePerPeriod",
      "outputs": [
        {
          "internalType": "uint256",
          "name": "",
          "type": "uint256"
        }
      ],
      "stateMutability": "view",
      "type": "function"
    },
    {
      "inputs": [],
      "name": "saloonBountyCommission",
      "outputs": [
        {
          "internalType": "uint256",
          "name": "",
          "type": "uint256"
        }
      ],
      "stateMutability": "view",
      "type": "function"
    },
    {
      "inputs": [],
      "name": "saloonPremiumFees",
      "outputs": [
        {
          "internalType": "uint256",
          "name": "",
          "type": "uint256"
        }
      ],
      "stateMutability": "view",
      "type": "function"
    },
    {
      "inputs": [
        {
          "internalType": "uint256",
          "name": "_newAPY",
          "type": "uint256"
        }
      ],
      "name": "scheduleAPYChange",
      "outputs": [],
      "stateMutability": "nonpayable",
      "type": "function"
    },
    {
      "inputs": [
        {
          "internalType": "uint256",
          "name": "_newPoolCap",
          "type": "uint256"
        }
      ],
      "name": "schedulePoolCapChange",
      "outputs": [],
      "stateMutability": "nonpayable",
      "type": "function"
    },
    {
      "inputs": [
        {
          "internalType": "address",
          "name": "_staker",
          "type": "address"
        },
        {
          "internalType": "uint256",
          "name": "_amount",
          "type": "uint256"
        }
      ],
      "name": "scheduleUnstake",
      "outputs": [
        {
          "internalType": "bool",
          "name": "",
          "type": "bool"
        }
      ],
      "stateMutability": "nonpayable",
      "type": "function"
    },
    {
      "inputs": [
        {
          "internalType": "uint256",
          "name": "_amount",
          "type": "uint256"
        }
      ],
      "name": "scheduleprojectDepositWithdrawal",
      "outputs": [
        {
          "internalType": "bool",
          "name": "",
          "type": "bool"
        }
      ],
      "stateMutability": "nonpayable",
      "type": "function"
    },
    {
      "inputs": [
        {
          "internalType": "address",
          "name": "_token",
          "type": "address"
        },
        {
          "internalType": "address",
          "name": "_projectWallet",
          "type": "address"
        },
        {
          "internalType": "uint256",
          "name": "_desiredAPY",
          "type": "uint256"
        }
      ],
      "name": "setDesiredAPY",
      "outputs": [
        {
          "internalType": "bool",
          "name": "",
          "type": "bool"
        }
      ],
      "stateMutability": "nonpayable",
      "type": "function"
    },
    {
      "inputs": [
        {
          "internalType": "uint256",
          "name": "_amount",
          "type": "uint256"
        }
      ],
      "name": "setPoolCap",
      "outputs": [],
      "stateMutability": "nonpayable",
      "type": "function"
    },
    {
      "inputs": [
        {
          "internalType": "address",
          "name": "_token",
          "type": "address"
        },
        {
          "internalType": "address",
          "name": "_staker",
          "type": "address"
        },
        {
          "internalType": "uint256",
          "name": "_amount",
          "type": "uint256"
        }
      ],
      "name": "stake",
      "outputs": [
        {
          "internalType": "bool",
          "name": "",
          "type": "bool"
        }
      ],
      "stateMutability": "nonpayable",
      "type": "function"
    },
    {
      "inputs": [
        {
          "internalType": "address",
          "name": "",
          "type": "address"
        },
        {
          "internalType": "uint256",
          "name": "",
          "type": "uint256"
        }
      ],
      "name": "staker",
      "outputs": [
        {
          "internalType": "uint256",
          "name": "stakeBalance",
          "type": "uint256"
        },
        {
          "internalType": "uint256",
          "name": "balanceTimeStamp",
          "type": "uint256"
        }
      ],
      "stateMutability": "view",
      "type": "function"
    },
    {
      "inputs": [
        {
          "internalType": "uint256",
          "name": "",
          "type": "uint256"
        }
      ],
      "name": "stakerList",
      "outputs": [
        {
          "internalType": "address",
          "name": "",
          "type": "address"
        }
      ],
      "stateMutability": "view",
      "type": "function"
    },
    {
      "inputs": [
        {
          "internalType": "address",
          "name": "",
          "type": "address"
        }
      ],
      "name": "stakerTimelock",
      "outputs": [
        {
          "internalType": "uint256",
          "name": "timelock",
          "type": "uint256"
        },
        {
          "internalType": "uint256",
          "name": "amount",
          "type": "uint256"
        },
        {
          "internalType": "bool",
          "name": "executed",
          "type": "bool"
        }
      ],
      "stateMutability": "view",
      "type": "function"
    },
    {
      "inputs": [
        {
          "internalType": "uint256",
          "name": "",
          "type": "uint256"
        }
      ],
      "name": "stakersDeposit",
      "outputs": [
        {
          "internalType": "uint256",
          "name": "stakeBalance",
          "type": "uint256"
        },
        {
          "internalType": "uint256",
          "name": "balanceTimeStamp",
          "type": "uint256"
        }
      ],
      "stateMutability": "view",
      "type": "function"
    },
    {
      "inputs": [],
      "name": "stakingPause",
      "outputs": [
        {
          "internalType": "uint256",
          "name": "",
          "type": "uint256"
        }
      ],
      "stateMutability": "view",
      "type": "function"
    },
    {
      "inputs": [
        {
          "internalType": "address",
          "name": "newOwner",
          "type": "address"
        }
      ],
      "name": "transferOwnership",
      "outputs": [],
      "stateMutability": "nonpayable",
      "type": "function"
    },
    {
      "inputs": [
        {
          "internalType": "address",
          "name": "_token",
          "type": "address"
        },
        {
          "internalType": "address",
          "name": "_staker",
          "type": "address"
        },
        {
          "internalType": "uint256",
          "name": "_amount",
          "type": "uint256"
        }
      ],
      "name": "unstake",
      "outputs": [
        {
          "internalType": "bool",
          "name": "",
          "type": "bool"
        }
      ],
      "stateMutability": "nonpayable",
      "type": "function"
    },
    {
      "inputs": [],
      "name": "viewBountyBalance",
      "outputs": [
        {
          "internalType": "uint256",
          "name": "",
          "type": "uint256"
        }
      ],
      "stateMutability": "view",
      "type": "function"
    },
    {
      "inputs": [],
      "name": "viewDesiredAPY",
      "outputs": [
        {
          "internalType": "uint256",
          "name": "",
          "type": "uint256"
        }
      ],
      "stateMutability": "view",
      "type": "function"
    },
    {
      "inputs": [],
      "name": "viewHackerPayout",
      "outputs": [
        {
          "internalType": "uint256",
          "name": "",
          "type": "uint256"
        }
      ],
      "stateMutability": "view",
      "type": "function"
    },
    {
      "inputs": [],
      "name": "viewPoolCap",
      "outputs": [
        {
          "internalType": "uint256",
          "name": "",
          "type": "uint256"
        }
      ],
      "stateMutability": "view",
      "type": "function"
    },
    {
      "inputs": [],
      "name": "viewPremiumBalance",
      "outputs": [
        {
          "internalType": "uint256",
          "name": "",
          "type": "uint256"
        }
      ],
      "stateMutability": "view",
      "type": "function"
    },
    {
      "inputs": [],
      "name": "viewProjecDeposit",
      "outputs": [
        {
          "internalType": "uint256",
          "name": "",
          "type": "uint256"
        }
      ],
      "stateMutability": "view",
      "type": "function"
    },
    {
      "inputs": [],
      "name": "viewRequirePremiumBalance",
      "outputs": [
        {
          "internalType": "uint256",
          "name": "",
          "type": "uint256"
        }
      ],
      "stateMutability": "view",
      "type": "function"
    },
    {
      "inputs": [],
      "name": "viewStakersDeposit",
      "outputs": [
        {
          "internalType": "uint256",
          "name": "",
          "type": "uint256"
        }
      ],
      "stateMutability": "view",
      "type": "function"
    },
    {
      "inputs": [
        {
          "internalType": "address",
          "name": "_staker",
          "type": "address"
        }
      ],
      "name": "viewUserStakingBalance",
      "outputs": [
        {
          "internalType": "uint256",
          "name": "",
          "type": "uint256"
        },
        {
          "internalType": "uint256",
          "name": "",
          "type": "uint256"
        }
      ],
      "stateMutability": "view",
      "type": "function"
    },
    {
      "inputs": [
        {
          "internalType": "address",
          "name": "_staker",
          "type": "address"
        }
      ],
      "name": "viewUserTimelock",
      "outputs": [
        {
          "internalType": "uint256",
          "name": "timelock",
          "type": "uint256"
        },
        {
          "internalType": "uint256",
          "name": "amount",
          "type": "uint256"
        },
        {
          "internalType": "bool",
          "name": "executed",
          "type": "bool"
        }
      ],
      "stateMutability": "view",
      "type": "function"
    },
    {
      "inputs": [],
      "name": "viewcurrentAPY",
      "outputs": [
        {
          "internalType": "uint256",
          "name": "",
          "type": "uint256"
        }
      ],
      "stateMutability": "view",
      "type": "function"
    },
    {
      "inputs": [],
      "name": "withdrawalTimelock",
      "outputs": [
        {
          "internalType": "uint256",
          "name": "timelock",
          "type": "uint256"
        },
        {
          "internalType": "uint256",
          "name": "amount",
          "type": "uint256"
        },
        {
          "internalType": "bool",
          "name": "executed",
          "type": "bool"
        }
      ],
      "stateMutability": "view",
      "type": "function"
    }
  ],
  "bytecode": {
    "object": "0x60806040523480156200001157600080fd5b506200001d3362000023565b62000073565b600080546001600160a01b038381166001600160a01b0319831681178455604051919092169283917f8be0079c531659141344cd1fd0a4f28419497f9722a3daafe3b4186f6b6457e09190a35050565b613d6c80620000836000396000f3fe608060405234801561001057600080fd5b50600436106103835760003560e01c806372d26951116101de578063b4d1d7951161010f578063d5cb8669116100ad578063e45080e61161007c578063e45080e614610758578063f2fde38b14610760578063ff45d4c014610773578063ffa1ad741461077b57600080fd5b8063d5cb866914610721578063d6c47be714610729578063d835f53514610732578063ddaaae031461074557600080fd5b8063c790ef82116100e9578063c790ef82146106e0578063cc12c311146106f3578063d084b03a14610706578063d26c90a91461070e57600080fd5b8063b4d1d795146106ba578063b954dc57146106c4578063bf6eac2f146106cd57600080fd5b80638aa82e821161017c5780639e4bfaa5116101565780639e4bfaa514610683578063a194c3b614610696578063a4bf70bd146106a9578063aaf5eb68146106b257600080fd5b80638aa82e82146106565780638da5cb5b1461066957806396ce07951461067a57600080fd5b806378eb46fd116101b857806378eb46fd1461062557806380d440ff1461062d578063839145401461064257806384dc10b41461064d57600080fd5b806372d26951146105d757806373927c11146105e0578063769966e8146105f357600080fd5b80633d850fb2116102b8578063503cb917116102565780635a898d03116102305780635a898d031461059457806360829f8a146105a7578063715018a6146105ba578063728ecaf8146105c257600080fd5b8063503cb917146105635780635121ac9d1461057857806355455df21461058b57600080fd5b8063481c6a7511610292578063481c6a751461052c5780634a94bcb31461053f5780634b5df6cc146105475780634c3bdee01461055a57600080fd5b80633d850fb214610507578063419b7bd71461051057806344ebc03d1461052357600080fd5b80632d7807a9116103255780633147096d116102ff5780633147096d146104a4578063348e50c6146104c7578063383639b3146104f25780633a5b0172146104fa57600080fd5b80632d7807a9146104375780633065f45014610473578063313ce5671461049b57600080fd5b806316e17b8d1161036157806316e17b8d146103cd5780631a89cabd146103d55780631e27970f146103fd57806320d830861461042f57600080fd5b8063013eba92146103885780630ba68f1a146103bb5780631104ec25146103c4575b600080fd5b6103a86103963660046138ce565b600f6020526000908152604090205481565b6040519081526020015b60405180910390f35b6103a860045481565b6103a8600b5481565b6103a8610783565b6103e86103e33660046138ce565b61083b565b604080519283526020830191909152016103b2565b601854601954601a5461041292919060ff1683565b6040805193845260208401929092521515908201526060016103b2565b6008546103a8565b6104126104453660046138ce565b6001600160a01b0316600090815260116020526040902080546001820154600290920154909260ff90911690565b6104866104813660046138e9565b6108fa565b604080519283529015156020830152016103b2565b6103a860025481565b6104b76104b236600461392c565b610acf565b60405190151581526020016103b2565b6104da6104d5366004613968565b610b4b565b6040516001600160a01b0390911681526020016103b2565b600c546103a8565b6021546104b79060ff1681565b6103a860075481565b6104b761051e36600461392c565b610b75565b6103a860085481565b6001546104da906001600160a01b031681565b6103a8610c5a565b6104b7610555366004613968565b610d49565b6103a8600d5481565b610576610571366004613968565b610d9e565b005b6103a8610586366004613981565b610de7565b6103a8600e5481565b6105766105a23660046139b4565b610e3b565b6104b76105b536600461392c565b610fcc565b61057661143e565b60155460165460175461041292919060ff1683565b6103a8600c5481565b6104b76105ee3660046139de565b611452565b6104126106013660046138ce565b60116020526000908152604090208054600182015460029092015490919060ff1683565b6009546103a8565b60125460135460145461041292919060ff1683565b6103a86301e1338081565b6103a860095481565b6104b7610664366004613981565b611a3c565b6000546001600160a01b03166104da565b6103a860055481565b6103e86106913660046139b4565b611d77565b6103e86106a4366004613968565b611db3565b6103a860065481565b6103a8606481565b6103a862093a8081565b6103a8600a5481565b6104b76106db36600461392c565b611de1565b6104b76106ee3660046139b4565b6122c6565b6104b761070136600461392c565b612431565b600d546103a8565b61057661071c366004613968565b612869565b6103a86128b2565b6103a860035481565b610576610740366004613968565b6128d1565b6103e8610753366004613968565b612986565b6103a8612996565b61057661076e3660046138ce565b612a5a565b600a546103a8565b6103a8600181565b600080601d805480602002602001604051908101604052809291908181526020016000905b828210156107ee578382906000526020600020906002020160405180604001604052908160008201548152602001600182015481525050815260200190600101906107a8565b505082519293505050806108055760009250505090565b601d610812600183613a3f565b8154811061082257610822613a56565b9060005260206000209060020201600001549250505090565b6001600160a01b0381166000908152601060205260408120548190806108675750600093849350915050565b6001600160a01b038416600090815260106020526040902061088a600183613a3f565b8154811061089a5761089a613a56565b600091825260208083206002909202909101546001600160a01b0387168352601090915260409091206108ce600184613a3f565b815481106108de576108de613a56565b9060005260206000209060020201600101549250925050915091565b60015460009081906001600160a01b031633146109325760405162461bcd60e51b815260040161092990613a6c565b60405180910390fd5b6001600160a01b0384166000908152600f6020908152604080832054601083528184208054835181860281018601909452808452919493909190849084015b828210156109b757838290600052602060002090600202016040518060400160405290816000820154815260200160018201548152505081526020019060010190610971565b50508251600854939450929150600090506109d3858585612ad3565b90506000600554600454836109e89190613a9a565b6109f29190613ab9565b90506109fe8183613a3f565b91508180841015610a1557610a138c8b611a3c565b505b60405163a9059cbb60e01b81526001600160a01b038c81166004830152602482018390528d169063a9059cbb906044016020604051808303816000875af1158015610a64573d6000803e3d6000fd5b505050506040513d601f19601f82011682018060405250810190610a889190613adb565b508260086000828254610a9b9190613a3f565b90915550506001600160a01b038b166000908152600f60205260409020429055975060019650505050505050935093915050565b6001546000906001600160a01b03163314610afc5760405162461bcd60e51b815260040161092990613a6c565b610b116001600160a01b038516843085612b5c565b50600c54610b2a57610b2662093a8042613afd565b600e555b81600c6000828254610b3c9190613afd565b90915550600195945050505050565b601b8181548110610b5b57600080fd5b6000918252602090912001546001600160a01b0316905081565b6001546000906001600160a01b03163314610ba25760405162461bcd60e51b815260040161092990613a6c565b604080516060810182526018548082526019546020830152601a5460ff161515928201929092529042118015610bda57506040810151155b8015610bea575082816020015110155b8015610bf65750805115155b610c125760405162461bcd60e51b815260040161092990613b15565b601a805460ff19166001179055600c8054849190600090610c34908490613a3f565b90915550610c4e90506001600160a01b0386168585612bd5565b50600195945050505050565b600080601d805480602002602001604051908101604052809291908181526020016000905b82821015610cc557838290600052602060002090600202016040518060400160405290816000820154815260200160018201548152505081526020019060010190610c7f565b50508251929350600091505081610cdf5750600c54610d17565b82610ceb600184613a3f565b81518110610cfb57610cfb613a56565b602002602001015160000151600c54610d149190613afd565b90505b600060055460035483610d2a9190613a9a565b610d349190613ab9565b9050610d408183613a3f565b94505050505090565b6001546000906001600160a01b03163314610d765760405162461bcd60e51b815260040161092990613a6c565b610d8362093a8042613afd565b601855506019819055601a805460ff1916905560015b919050565b6001546001600160a01b03163314610dc85760405162461bcd60e51b815260040161092990613a6c565b610dd562093a8042613afd565b6015556016556017805460ff19169055565b6001546000906001600160a01b03163314610e145760405162461bcd60e51b815260040161092990613a6c565b600780546000909155610e316001600160a01b0385168483612bd5565b5090505b92915050565b600054600160a81b900460ff1615808015610e6357506000546001600160a01b90910460ff16105b80610e845750303b158015610e845750600054600160a01b900460ff166001145b610ee75760405162461bcd60e51b815260206004820152602e60248201527f496e697469616c697a61626c653a20636f6e747261637420697320616c72656160448201526d191e481a5b9a5d1a585b1a5e995960921b6064820152608401610929565b6000805460ff60a01b1916600160a01b1790558015610f14576000805460ff60a81b1916600160a81b1790555b600180546001600160a01b0319166001600160a01b0385161790556002829055610f3f82600a613c3a565b610f4a90600a613a9a565b600355610f5882600a613c3a565b610f6390600a613a9a565b600455610f7182600a613c3a565b610f7c906064613a9a565b6005558015610fc7576000805460ff60a81b19169055604051600181527f7f26b83ff96e1f2b6a682f133852f6798a09c465da95921460cefb38474024989060200160405180910390a15b505050565b6001546000906001600160a01b03163314610ff95760405162461bcd60e51b815260040161092990613a6c565b6000601d805480602002602001604051908101604052809291908181526020016000905b828210156110635783829060005260206000209060020201604051806040016040529081600082015481526020016001820154815250508152602001906001019061101d565b5050505090506000600182516110799190613a3f565b905060095460001415806110ab575081818151811061109a5761109a613a56565b602002602001015160000151600a54115b15611167576001600160a01b0385166000908152601160209081526040918290208251606081018452815480825260018301549382019390935260029091015460ff161515928101929092524211801561110757506040810151155b8015611117575084816020015110155b80156111235750805115155b61113f5760405162461bcd60e51b815260040161092990613b15565b506001600160a01b0385166000908152601160205260409020600201805460ff191660011790555b6001600160a01b03851660009081526010602052604081205461118c90600190613a3f565b90506111ab604051806040016040528060008152602001600081525090565b426020808301919091526001600160a01b03881660009081526010909152604090208054879190849081106111e2576111e2613a56565b9060005260206000209060020201600001546111fe9190613a3f565b8152601b8054604080516020808402820181019092528281526000939092909183018282801561125757602002820191906000526020600020905b81546001600160a01b03168152600190910190602001808311611239575b5050505050905081600001516000141561135957805160005b8181101561135657896001600160a01b031683828151811061129457611294613a56565b60200260200101516001600160a01b0316141561134e576000836112b9600185613a3f565b815181106112c9576112c9613a56565b6020026020010151905080601b83815481106112e7576112e7613a56565b9060005260206000200160006101000a8154816001600160a01b0302191690836001600160a01b03160217905550601b80548061132657611326613c46565b600082815260209020810160001990810180546001600160a01b031916905501905550611356565b600101611270565b50505b6001600160a01b0388166000908152601060209081526040808320805460018181018355918552838520875160029092020190815586840151910155805180820190915282815290810191909152878686815181106113ba576113ba613a56565b6020026020010151600001516113d09190613a3f565b81524260208201908152601d80546001810182556000919091528251600080516020613cf78339815191526002909202918201559051600080516020613d178339815191529091015561142d6001600160a01b038b168a8a612bd5565b5060019a9950505050505050505050565b611446612c12565b6114506000612c6c565b565b6001546000906001600160a01b0316331461147f5760405162461bcd60e51b815260040161092990613a6c565b6000601d805480602002602001604051908101604052809291908181526020016000905b828210156114e9578382906000526020600020906002020160405180604001604052908160008201548152602001600182015481525050815260200190600101906114a3565b5050505090506000600182516114ff9190613a3f565b90506000601b80548060200260200160405190810160405280929190818152602001828054801561155957602002820191906000526020600020905b81546001600160a01b0316815260019091019060200180831161153b575b505050505090506000815190508584848151811061157957611579613a56565b602002602001015160000151106118d2578584848151811061159d5761159d613a56565b60200260200101516000018181516115b59190613a3f565b905250604080518082019091526000815242602082015284518590859081106115e0576115e0613a56565b6020908102919091010151518152845185908590811061160257611602613a56565b6020026020010151600001516000141561170c5760005b828110156116a357604080518082019091526000808252426020830152855186908490811061164a5761164a613a56565b6020908102919091018101516001600160a01b03166000908152601082526040812080546001818101835591835291839020855160029093020191825593909101519201919091555061169c81613c5c565b9050611619565b506116b08a898b8a612cbc565b50601d805460018101825560009182528251600080516020613cf78339815191526002909202918201556020830151600080516020613d17833981519152909101556116fe90601b90613885565b600195505050505050611a34565b600085858151811061172057611720613a56565b6020026020010151600001516064896117399190613a9a565b6117439190613ab9565b905060005b8381101561187357600085828151811061176457611764613a56565b6020908102919091018101516001600160a01b03811660009081526010909252604082205490925061179890600190613a3f565b6001600160a01b038316600090815260106020526040812080549293509091839081106117c7576117c7613a56565b90600052602060002090600202016000015490506117f8604051806040016040528060008152602001600081525090565b42602082015260055461180b8784613a9a565b6118159190613ab9565b61181f9083613a3f565b81526001600160a01b03909316600090815260106020908152604082208054600181810183559184529282902086516002909402019283559401519301929092555061186c905081613c5c565b9050611748565b50601d80546001810182556000919091528251600080516020613cf78339815191526002909202918201556020830151600080516020613d17833981519152909101556118c28b8a8c8b612cbc565b5060019650505050505050611a34565b60005b8181101561195f57604080518082019091526000808252426020830152845185908490811061190657611906613a56565b6020908102919091018101516001600160a01b03166000908152601082526040812080546001818101835591835291839020855160029093020191825593909101519201919091555061195881613c5c565b90506118d5565b5061196c601b6000613885565b600084848151811061198057611980613a56565b602002602001015160000151876119979190613a3f565b905080600c60008282546119ab9190613a3f565b9091555050604080518082019091526000815242602082015285518690869081106119d8576119d8613a56565b602090810291909101810151518252601d80546001810182556000919091528251600080516020613cf783398151915260029092029182015590820151600080516020613d17833981519152909101556118c28b8a8c8b612cbc565b949350505050565b6001546000906001600160a01b0316331480611a5757503330145b611aa35760405162461bcd60e51b815260206004820152601c60248201527f4f6e6c79206d616e61676572206f722073656c6620616c6c6f776564000000006044820152606401610929565b6000601d805480602002602001604051908101604052809291908181526020016000905b82821015611b0d57838290600052602060002090600202016040518060400160405290816000820154815260200160018201548152505081526020019060010190611ac7565b50508251600b54600954949550909390925090506000611b2f82858588612d21565b6040516323b872dd60e01b81526001600160a01b03898116600483015230602483015260448201839052919250908916906323b872dd906064016020604051808303816000875af1925050508015611ba4575060408051601f3d908101601f19168201909252611ba191810190613adb565b60015b611c56576040805180820190915260006020820152428152611bc46128b2565b60208201908152601c8054600181018255600091825283517f0e4562a10381dec21b205ed72637e6b1b523bdd0e4d4d50af5cd23dd4500a21160029092029182015591517f0e4562a10381dec21b205ed72637e6b1b523bdd0e4d4d50af5cd23dd4500a21290920191909155611c386128b2565b9050611c458a8a83612431565b506000975050505050505050610e35565b80611d0a576040805180820190915260006020820152428152611c776128b2565b60208201908152601c8054600181018255600091825283517f0e4562a10381dec21b205ed72637e6b1b523bdd0e4d4d50af5cd23dd4500a21160029092029182015591517f0e4562a10381dec21b205ed72637e6b1b523bdd0e4d4d50af5cd23dd4500a21290920191909155611ceb6128b2565b9050611cf88b8b83612431565b50600098505050505050505050610e35565b50600060055460045483611d1e9190613a9a565b611d289190613ab9565b90508060076000828254611d3c9190613afd565b925050819055508160086000828254611d559190613afd565b909155505042600b5550506021805460ff191690555060019695505050505050565b60106020528160005260406000208181548110611d9357600080fd5b600091825260209091206002909102018054600190910154909250905082565b601d8181548110611dc357600080fd5b60009182526020909120600290910201805460019091015490915082565b6001546000906001600160a01b03163314611e0e5760405162461bcd60e51b815260040161092990613a6c565b42600e5410611e5f5760405162461bcd60e51b815260206004820152601960248201527f5374616b696e67206e6f74206f70656e206a75737420796574000000000000006044820152606401610929565b6000601d805480602002602001604051908101604052809291908181526020016000905b82821015611ec957838290600052602060002090600202016040518060400160405290816000820154815260200160018201548152505081526020019060010190611e83565b50508251929350505080611f295760408051808201909152600080825260208201818152601d805460018101825592529151600080516020613cf78339815191526002909202918201559051600080516020613d17833981519152909101555b601d54600090611f3b90600190613a3f565b9050600a5485601d8381548110611f5457611f54613a56565b906000526020600020906002020160000154611f709190613afd565b1115611fbe5760405162461bcd60e51b815260206004820152601960248201527f5374616b696e6720506f6f6c20616c72656164792066756c6c000000000000006044820152606401610929565b6001600160a01b0386166000908152601060205260409020548061202857604080518082018252600080825260208083018281526001600160a01b038c16835260108252938220805460018082018355918452919092209251600290910290920191825591519101555b6001600160a01b03871660009081526010602052604081205461204d90600190613a3f565b6001600160a01b03891660009081526010602052604090208054919250908290811061207b5761207b613a56565b906000526020600020906002020160000154600014156120e157601b80546001810182556000919091527f3ad8aa4f87544323a9d1e5dd902f40c356527a7955687113db5f9a85ad579dc10180546001600160a01b0319166001600160a01b038a161790555b6040805180820182526000808252426020808401919091526001600160a01b038c168252601090529190912080548991908490811061212257612122613a56565b90600052602060002090600202016000015461213e9190613afd565b815282612196576001600160a01b038916600090815260106020526040902080548291908490811061217257612172613a56565b600091825260209182902083516002909202019081559101516001909101556121d3565b6001600160a01b03891660009081526010602090815260408220805460018181018355918452928290208451600290940201928355908301519101555b604080518082019091526000808252602082015288601d86815481106121fb576121fb613a56565b9060005260206000209060020201600001546122179190613afd565b81524260208201528561225c5780601d868154811061223857612238613a56565b6000918252602091829020835160029092020190815591015160019091015561229f565b601d80546001810182556000919091528151600080516020613cf78339815191526002909202918201556020820151600080516020613d17833981519152909101555b6122b46001600160a01b038c168b308c612b5c565b5060019b9a5050505050505050505050565b6001546000906001600160a01b031633146122f35760405162461bcd60e51b815260040161092990613a6c565b6001600160a01b038316600090815260106020908152604080832080548251818502810185019093528083529192909190849084015b8282101561236f57838290600052602060002090600202016040518060400160405290816000820154815260200160018201548152505081526020019060010190612329565b5050505090506000600182516123859190613a3f565b90508382828151811061239a5761239a613a56565b60200260200101516000015110156123eb5760405162461bcd60e51b8152602060048201526014602482015273496e73756669636369656e742062616c616e636560601b6044820152606401610929565b6123f862093a8042613afd565b6001600160a01b039590951660009081526011602052604090209485555050506001808301919091556002909101805460ff1916905590565b6001546000906001600160a01b031633148061244c57503330145b6124985760405162461bcd60e51b815260206004820152601c60248201527f4f6e6c79206d616e61676572206f722073656c6620616c6c6f776564000000006044820152606401610929565b6009541561251e5760408051606081018252601554808252601654602083015260175460ff1615159282019290925290421180156124d857506040810151155b80156124e75750828160200151145b80156124f35750805115155b61250f5760405162461bcd60e51b815260040161092990613b15565b506017805460ff191660011790555b60006008549050600080601d805480602002602001604051908101604052809291908181526020016000905b828210156125905783829060005260206000209060020201604051806040016040529081600082015481526020016001820154815250508152602001906001019061254a565b5050825192935050811590506125e057816125ac600183613a3f565b815181106125bc576125bc613a56565b6020026020010151600001516000146125db576125d98888611a3c565b505b61265f565b62093a806301e1338060055488600a546125fa9190613a9a565b6126049190613ab9565b61260e9190613ab9565b6126189190613a9a565b92508284101561265f57600061262e8585613a3f565b90506126456001600160a01b038a16893084612b5c565b5080600860008282546126589190613afd565b9091555050505b600d8390556040805180820182524281526020808201898152601c8054600181018255600091825284517f0e4562a10381dec21b205ed72637e6b1b523bdd0e4d4d50af5cd23dd4500a21160029092029182015591517f0e4562a10381dec21b205ed72637e6b1b523bdd0e4d4d50af5cd23dd4500a2129092019190915560098a9055601b805485518185028101850190965280865293949193919290919083018282801561273757602002820191906000526020600020905b81546001600160a01b03168152600190910190602001808311612719575b5050505050905060008151111561284f576000600182516127589190613a3f565b905060005b8181101561284c57600083828151811061277957612779613a56565b6020908102919091018101516001600160a01b0381166000908152601090925260408220549092506127ad90600190613a3f565b90506127cc604051806040016040528060008152602001600081525090565b6001600160a01b03831660009081526010602052604090208054839081106127f6576127f6613a56565b60009182526020808320600292830201548452428482019081526001600160a01b03909616835260108152604083208054600181810183559185529190932093519102909201918255925190830155500161275d565b50505b50506021805460ff19169055506001979650505050505050565b6001546001600160a01b031633146128935760405162461bcd60e51b815260040161092990613a6c565b6128a062093a8042613afd565b6012556013556014805460ff19169055565b600080600a5460646008546128c79190613a9a565b610e359190613ab9565b6001546001600160a01b031633146128fb5760405162461bcd60e51b815260040161092990613a6c565b600a54156129815760408051606081018252601254808252601354602083015260145460ff16151592820192909252904211801561293b57506040810151155b801561294a5750818160200151145b80156129565750805115155b6129725760405162461bcd60e51b815260040161092990613b15565b506014805460ff191660011790555b600a55565b601c8181548110611dc357600080fd5b600080601d805480602002602001604051908101604052809291908181526020016000905b82821015612a01578382906000526020600020906002020160405180604001604052908160008201548152602001600182015481525050815260200190600101906129bb565b50508251929350600091505081612a1b5750600c54612a53565b82612a27600184613a3f565b81518110612a3757612a37613a56565b602002602001015160000151600c54612a509190613afd565b90505b9392505050565b612a62612c12565b6001600160a01b038116612ac75760405162461bcd60e51b815260206004820152602660248201527f4f776e61626c653a206e6577206f776e657220697320746865207a65726f206160448201526564647265737360d01b6064820152608401610929565b612ad081612c6c565b50565b600080601c805480602002602001604051908101604052809291908181526020016000905b82821015612b3e57838290600052602060002090600202016040518060400160405290816000820154815260200160018201548152505081526020019060010190612af8565b5050505090506000612b5286868685613106565b9695505050505050565b6040516001600160a01b0380851660248301528316604482015260648101829052600090612bca9086906323b872dd60e01b906084015b60408051601f198184030181529190526020810180516001600160e01b03166001600160e01b031990931692909217909152613402565b506001949350505050565b6040516001600160a01b038316602482015260448101829052600090612c0890859063a9059cbb60e01b90606401612b93565b5060019392505050565b6000546001600160a01b031633146114505760405162461bcd60e51b815260206004820181905260248201527f4f776e61626c653a2063616c6c6572206973206e6f7420746865206f776e65726044820152606401610929565b600080546001600160a01b038381166001600160a01b0319831681178455604051919092169283917f8be0079c531659141344cd1fd0a4f28419497f9722a3daafe3b4186f6b6457e09190a35050565b60008060055460035484612cd09190613a9a565b612cda9190613ab9565b90506000612ce88285613a3f565b9050612cfe6001600160a01b0388168783612bd5565b50612d136001600160a01b0388168684612bd5565b506001979650505050505050565b60008060005b85811015612d9a5784848281518110612d4257612d42613a56565b6020026020010151602001511115612d8a57601f80546001810182556000919091527fa03837a25210ee280c2113ff4b77ca23440b19d4866cca721c801278fd08d807018190555b612d9381613c5c565b9050612d27565b506000601f805480602002602001604051908101604052809291908181526020018280548015612de957602002820191906000526020600020905b815481526020019060010190808311612dd5575b505083519394506000925050505b818110156130ed57600087612ee557612e11600184613a3f565b821415612e615786848381518110612e2b57612e2b613a56565b602002602001015181518110612e4357612e43613a56565b60200260200101516020015142612e5a9190613a3f565b9050613066565b86848381518110612e7457612e74613a56565b602002602001015181518110612e8c57612e8c613a56565b6020026020010151602001518785846001612ea79190613afd565b81518110612eb757612eb7613a56565b602002602001015181518110612ecf57612ecf613a56565b602002602001015160200151612e5a9190613a3f565b81612fba5786848381518110612efd57612efd613a56565b602002602001015181518110612f1557612f15613a56565b6020026020010151602001518785846001612f309190613afd565b81518110612f4057612f40613a56565b602002602001015181518110612f5857612f58613a56565b602002602001015160200151612f6e9190613a3f565b87858481518110612f8157612f81613a56565b602002602001015181518110612f9957612f99613a56565b60200260200101516020015189612fb09190613a3f565b612e5a9190613afd565b612fc5600184613a3f565b821415612fdf5786848381518110612e2b57612e2b613a56565b86848381518110612ff257612ff2613a56565b60200260200101518151811061300a5761300a613a56565b60200260200101516020015187858460016130259190613afd565b8151811061303557613035613a56565b60200260200101518151811061304d5761304d613a56565b6020026020010151602001516130639190613a3f565b90505b806301e133806005548c8a88878151811061308357613083613a56565b60200260200101518151811061309b5761309b613a56565b6020026020010151600001516130b19190613a9a565b6130bb9190613ab9565b6130c59190613ab9565b6130cf9190613a9a565b6130d99086613afd565b945050806130e690613c5c565b9050612df7565b506130fa601f6000613885565b50909695505050505050565b8051600090818080886131d85760005b848110156131d25786818151811061313057613130613a56565b602002602001015160000151925060018561314b9190613a3f565b81141561315a57429150613185565b86613166826001613afd565b8151811061317657613176613a56565b60200260200101516000015191505b600087828151811061319957613199613a56565b60200260200101516020015190506131b48185858d8d6134d4565b6131be9086613afd565b945050806131cb90613c5c565b9050613116565b506133f5565b60005b8481101561328157898782815181106131f6576131f6613a56565b602002602001015160000151111561327157601e613215600183613a3f565b8154600181810184556000938452602090932001556132349086613a3f565b81141561327157601e80546001810182556000919091527f50bb669a95c7b50b7e8a6f09454034b2b14cf2b85c730dca9a539ca82cb6e350018190555b61327a81613c5c565b90506131db565b506000601e8054806020026020016040519081016040528092919081815260200182805480156132d057602002820191906000526020600020905b8154815260200190600101908083116132bc575b505083519394506000925050505b818110156133f157806132f3578b945061332d565b8883828151811061330657613306613a56565b60200260200101518151811061331e5761331e613a56565b60200260200101516000015194505b613338600188613a3f565b8114156133475742935061338b565b8883613354836001613afd565b8151811061336457613364613a56565b60200260200101518151811061337c5761337c613a56565b60200260200101516000015193505b6000898483815181106133a0576133a0613a56565b6020026020010151815181106133b8576133b8613a56565b60200260200101516020015190506133d38187878f8f6134d4565b6133dd9088613afd565b965050806133ea90613c5c565b90506132de565b5050505b5090979650505050505050565b6000613457826040518060400160405280602081526020017f5361666545524332303a206c6f772d6c6576656c2063616c6c206661696c6564815250856001600160a01b03166137659092919063ffffffff16565b805190915015610fc757808060200190518101906134759190613adb565b610fc75760405162461bcd60e51b815260206004820152602a60248201527f5361666545524332303a204552433230206f7065726174696f6e20646964206e6044820152691bdd081cdd58d8d9595960b21b6064820152608401610929565b6000806000805b8481101561357757878682815181106134f6576134f6613a56565b6020026020010151602001511015801561352c57508686828151811061351e5761351e613a56565b602002602001015160200151105b1561356757602080546001810182556000919091527fc97bfaf2f8ee708c303a06d134f5ecd8389ae0432af62dc132a24118292866bb018190555b61357081613c5c565b90506134db565b50600060208054806020026020016040519081016040528092919081815260200182805480156135c657602002820191906000526020600020905b8154815260200190600101908083116135b2575b505083519394506000925050505b81811015613749576135e7600183613a3f565b811415613637578783828151811061360157613601613a56565b60200260200101518151811061361957613619613a56565b602002602001015160200151896136309190613a3f565b93506136be565b8783828151811061364a5761364a613a56565b60200260200101518151811061366257613662613a56565b602002602001015160200151888483600161367d9190613afd565b8151811061368d5761368d613a56565b6020026020010151815181106136a5576136a5613a56565b6020026020010151602001516136bb9190613a3f565b93505b6000846301e133806005548e8c8887815181106136dd576136dd613a56565b6020026020010151815181106136f5576136f5613a56565b60200260200101516000015161370b9190613a9a565b6137159190613ab9565b61371f9190613ab9565b6137299190613a9a565b90506137358187613afd565b9550508061374290613c5c565b90506135d4565b5050506020600061375a9190613885565b509695505050505050565b6060612a50848460008585600080866001600160a01b0316858760405161378c9190613ca7565b60006040518083038185875af1925050503d80600081146137c9576040519150601f19603f3d011682016040523d82523d6000602084013e6137ce565b606091505b50915091506137df878383876137ea565b979650505050505050565b6060831561385657825161384f576001600160a01b0385163b61384f5760405162461bcd60e51b815260206004820152601d60248201527f416464726573733a2063616c6c20746f206e6f6e2d636f6e74726163740000006044820152606401610929565b5081611a34565b611a34838381511561386b5781518083602001fd5b8060405162461bcd60e51b81526004016109299190613cc3565b5080546000825590600052602060002090810190612ad091905b808211156138b3576000815560010161389f565b5090565b80356001600160a01b0381168114610d9957600080fd5b6000602082840312156138e057600080fd5b612a53826138b7565b6000806000606084860312156138fe57600080fd5b613907846138b7565b9250613915602085016138b7565b9150613923604085016138b7565b90509250925092565b60008060006060848603121561394157600080fd5b61394a846138b7565b9250613958602085016138b7565b9150604084013590509250925092565b60006020828403121561397a57600080fd5b5035919050565b6000806040838503121561399457600080fd5b61399d836138b7565b91506139ab602084016138b7565b90509250929050565b600080604083850312156139c757600080fd5b6139d0836138b7565b946020939093013593505050565b600080600080608085870312156139f457600080fd5b6139fd856138b7565b9350613a0b602086016138b7565b9250613a19604086016138b7565b9396929550929360600135925050565b634e487b7160e01b600052601160045260246000fd5b600082821015613a5157613a51613a29565b500390565b634e487b7160e01b600052603260045260246000fd5b60208082526014908201527313db9b1e481b585b9859d95c88185b1b1bddd95960621b604082015260600190565b6000816000190483118215151615613ab457613ab4613a29565b500290565b600082613ad657634e487b7160e01b600052601260045260246000fd5b500490565b600060208284031215613aed57600080fd5b81518015158114612a5357600080fd5b60008219821115613b1057613b10613a29565b500190565b60208082526021908201527f54696d656c6f636b206e6f7420736574206f72206e6f7420636f6d706c6574656040820152601960fa1b606082015260800190565b600181815b80851115613b91578160001904821115613b7757613b77613a29565b80851615613b8457918102915b93841c9390800290613b5b565b509250929050565b600082613ba857506001610e35565b81613bb557506000610e35565b8160018114613bcb5760028114613bd557613bf1565b6001915050610e35565b60ff841115613be657613be6613a29565b50506001821b610e35565b5060208310610133831016604e8410600b8410161715613c14575081810a610e35565b613c1e8383613b56565b8060001904821115613c3257613c32613a29565b029392505050565b6000612a538383613b99565b634e487b7160e01b600052603160045260246000fd5b6000600019821415613c7057613c70613a29565b5060010190565b60005b83811015613c92578181015183820152602001613c7a565b83811115613ca1576000848401525b50505050565b60008251613cb9818460208701613c77565b9190910192915050565b6020815260008251806020840152613ce2816040850160208701613c77565b601f01601f1916919091016040019291505056fe6d4407e7be21f808e6509aa9fa9143369579dd7d760fe20a2c09680fc146134f6d4407e7be21f808e6509aa9fa9143369579dd7d760fe20a2c09680fc1461350a2646970667358221220d894424c259954758857c99f603c3d11944c7f353409058f46d7e57f1069d09664736f6c634300080a0033",
    "linkReferences": {}
  },
  "methodIdentifiers": {
    "APYTimelock()": "728ecaf8",
    "APYdropped()": "3a5b0172",
    "APYrecords(uint256)": "ddaaae03",
    "PERIOD()": "b4d1d795",
    "PRECISION()": "aaf5eb68",
    "VERSION()": "ffa1ad74",
    "YEAR()": "83914540",
    "billPremium(address,address)": "8aa82e82",
    "bountyCommission()": "d6c47be7",
    "bountyDeposit(address,address,uint256)": "3147096d",
    "claimPremium(address,address,address)": "3065f450",
    "collectSaloonPremiumFees(address,address)": "5121ac9d",
    "decimals()": "313ce567",
    "denominator()": "96ce0795",
    "desiredAPY()": "84dc10b4",
    "initializeImplementation(address,uint256)": "5a898d03",
    "lastClaimed(address)": "013eba92",
    "lastTimePaid()": "1104ec25",
    "manager()": "481c6a75",
    "owner()": "8da5cb5b",
    "payBounty(address,address,address,uint256)": "73927c11",
    "poolCap()": "b954dc57",
    "poolCapTimelock()": "80d440ff",
    "premiumBalance()": "44ebc03d",
    "premiumCommission()": "0ba68f1a",
    "projectDeposit()": "72d26951",
    "projectDepositWithdrawal(address,address,uint256)": "419b7bd7",
    "renounceOwnership()": "715018a6",
    "requiredPremiumBalancePerPeriod()": "4c3bdee0",
    "saloonBountyCommission()": "a4bf70bd",
    "saloonPremiumFees()": "3d850fb2",
    "scheduleAPYChange(uint256)": "503cb917",
    "schedulePoolCapChange(uint256)": "d26c90a9",
    "scheduleUnstake(address,uint256)": "c790ef82",
    "scheduleprojectDepositWithdrawal(uint256)": "4b5df6cc",
    "setDesiredAPY(address,address,uint256)": "cc12c311",
    "setPoolCap(uint256)": "d835f535",
    "stake(address,address,uint256)": "bf6eac2f",
    "staker(address,uint256)": "9e4bfaa5",
    "stakerList(uint256)": "348e50c6",
    "stakerTimelock(address)": "769966e8",
    "stakersDeposit(uint256)": "a194c3b6",
    "stakingPause()": "55455df2",
    "transferOwnership(address)": "f2fde38b",
    "unstake(address,address,uint256)": "60829f8a",
    "viewBountyBalance()": "e45080e6",
    "viewDesiredAPY()": "78eb46fd",
    "viewHackerPayout()": "4a94bcb3",
    "viewPoolCap()": "ff45d4c0",
    "viewPremiumBalance()": "20d83086",
    "viewProjecDeposit()": "383639b3",
    "viewRequirePremiumBalance()": "d084b03a",
    "viewStakersDeposit()": "16e17b8d",
    "viewUserStakingBalance(address)": "1a89cabd",
    "viewUserTimelock(address)": "2d7807a9",
    "viewcurrentAPY()": "d5cb8669",
    "withdrawalTimelock()": "1e27970f"
  },
  "id": 27
}