{
  "abi": [
    {
      "anonymous": false,
      "inputs": [
        {
          "indexed": false,
          "internalType": "uint8",
          "name": "version",
          "type": "uint8"
        }
      ],
      "name": "Initialized",
      "type": "event"
    },
    {
      "anonymous": false,
      "inputs": [
        {
          "indexed": true,
          "internalType": "address",
          "name": "previousOwner",
          "type": "address"
        },
        {
          "indexed": true,
          "internalType": "address",
          "name": "newOwner",
          "type": "address"
        }
      ],
      "name": "OwnershipTransferred",
      "type": "event"
    },
    {
      "inputs": [],
      "name": "APYTimelock",
      "outputs": [
        {
          "internalType": "uint256",
          "name": "timelock",
          "type": "uint256"
        },
        {
          "internalType": "uint256",
          "name": "amount",
          "type": "uint256"
        },
        {
          "internalType": "bool",
          "name": "executed",
          "type": "bool"
        }
      ],
      "stateMutability": "view",
      "type": "function"
    },
    {
      "inputs": [],
      "name": "APYdropped",
      "outputs": [
        {
          "internalType": "bool",
          "name": "",
          "type": "bool"
        }
      ],
      "stateMutability": "view",
      "type": "function"
    },
    {
      "inputs": [
        {
          "internalType": "uint256",
          "name": "",
          "type": "uint256"
        }
      ],
      "name": "APYrecords",
      "outputs": [
        {
          "internalType": "uint256",
          "name": "timeStamp",
          "type": "uint256"
        },
        {
          "internalType": "uint256",
          "name": "periodAPY",
          "type": "uint256"
        }
      ],
      "stateMutability": "view",
      "type": "function"
    },
    {
      "inputs": [],
      "name": "PERIOD",
      "outputs": [
        {
          "internalType": "uint256",
          "name": "",
          "type": "uint256"
        }
      ],
      "stateMutability": "view",
      "type": "function"
    },
    {
      "inputs": [],
      "name": "PRECISION",
      "outputs": [
        {
          "internalType": "uint256",
          "name": "",
          "type": "uint256"
        }
      ],
      "stateMutability": "view",
      "type": "function"
    },
    {
      "inputs": [],
      "name": "VERSION",
      "outputs": [
        {
          "internalType": "uint256",
          "name": "",
          "type": "uint256"
        }
      ],
      "stateMutability": "view",
      "type": "function"
    },
    {
      "inputs": [],
      "name": "YEAR",
      "outputs": [
        {
          "internalType": "uint256",
          "name": "",
          "type": "uint256"
        }
      ],
      "stateMutability": "view",
      "type": "function"
    },
    {
      "inputs": [
        {
          "internalType": "address",
          "name": "_token",
          "type": "address"
        },
        {
          "internalType": "address",
          "name": "_projectWallet",
          "type": "address"
        }
      ],
      "name": "billPremium",
      "outputs": [
        {
          "internalType": "bool",
          "name": "",
          "type": "bool"
        }
      ],
      "stateMutability": "nonpayable",
      "type": "function"
    },
    {
      "inputs": [],
      "name": "bountyCommission",
      "outputs": [
        {
          "internalType": "uint256",
          "name": "",
          "type": "uint256"
        }
      ],
      "stateMutability": "view",
      "type": "function"
    },
    {
      "inputs": [
        {
          "internalType": "address",
          "name": "_token",
          "type": "address"
        },
        {
          "internalType": "address",
          "name": "_projectWallet",
          "type": "address"
        },
        {
          "internalType": "uint256",
          "name": "_amount",
          "type": "uint256"
        }
      ],
      "name": "bountyDeposit",
      "outputs": [
        {
          "internalType": "bool",
          "name": "",
          "type": "bool"
        }
      ],
      "stateMutability": "nonpayable",
      "type": "function"
    },
    {
      "inputs": [
        {
          "internalType": "address",
          "name": "_token",
          "type": "address"
        },
        {
          "internalType": "address",
          "name": "_staker",
          "type": "address"
        },
        {
          "internalType": "address",
          "name": "_projectWallet",
          "type": "address"
        }
      ],
      "name": "claimPremium",
      "outputs": [
        {
          "internalType": "uint256",
          "name": "",
          "type": "uint256"
        },
        {
          "internalType": "bool",
          "name": "",
          "type": "bool"
        }
      ],
      "stateMutability": "nonpayable",
      "type": "function"
    },
    {
      "inputs": [
        {
          "internalType": "address",
          "name": "_token",
          "type": "address"
        },
        {
          "internalType": "address",
          "name": "_saloonWallet",
          "type": "address"
        }
      ],
      "name": "collectSaloonPremiumFees",
      "outputs": [
        {
          "internalType": "uint256",
          "name": "",
          "type": "uint256"
        }
      ],
      "stateMutability": "nonpayable",
      "type": "function"
    },
    {
      "inputs": [],
      "name": "decimals",
      "outputs": [
        {
          "internalType": "uint256",
          "name": "",
          "type": "uint256"
        }
      ],
      "stateMutability": "view",
      "type": "function"
    },
    {
      "inputs": [],
      "name": "denominator",
      "outputs": [
        {
          "internalType": "uint256",
          "name": "",
          "type": "uint256"
        }
      ],
      "stateMutability": "view",
      "type": "function"
    },
    {
      "inputs": [],
      "name": "desiredAPY",
      "outputs": [
        {
          "internalType": "uint256",
          "name": "",
          "type": "uint256"
        }
      ],
      "stateMutability": "view",
      "type": "function"
    },
    {
      "inputs": [
        {
          "internalType": "address",
          "name": "_manager",
          "type": "address"
        },
        {
          "internalType": "uint256",
          "name": "_decimals",
          "type": "uint256"
        }
      ],
      "name": "initializeImplementation",
      "outputs": [],
      "stateMutability": "nonpayable",
      "type": "function"
    },
    {
      "inputs": [
        {
          "internalType": "address",
          "name": "",
          "type": "address"
        }
      ],
      "name": "lastClaimed",
      "outputs": [
        {
          "internalType": "uint256",
          "name": "",
          "type": "uint256"
        }
      ],
      "stateMutability": "view",
      "type": "function"
    },
    {
      "inputs": [],
      "name": "lastTimePaid",
      "outputs": [
        {
          "internalType": "uint256",
          "name": "",
          "type": "uint256"
        }
      ],
      "stateMutability": "view",
      "type": "function"
    },
    {
      "inputs": [],
      "name": "manager",
      "outputs": [
        {
          "internalType": "address",
          "name": "",
          "type": "address"
        }
      ],
      "stateMutability": "view",
      "type": "function"
    },
    {
      "inputs": [],
      "name": "owner",
      "outputs": [
        {
          "internalType": "address",
          "name": "",
          "type": "address"
        }
      ],
      "stateMutability": "view",
      "type": "function"
    },
    {
      "inputs": [
        {
          "internalType": "address",
          "name": "_token",
          "type": "address"
        },
        {
          "internalType": "address",
          "name": "_saloonWallet",
          "type": "address"
        },
        {
          "internalType": "address",
          "name": "_hunter",
          "type": "address"
        },
        {
          "internalType": "uint256",
          "name": "_amount",
          "type": "uint256"
        }
      ],
      "name": "payBounty",
      "outputs": [
        {
          "internalType": "bool",
          "name": "",
          "type": "bool"
        }
      ],
      "stateMutability": "nonpayable",
      "type": "function"
    },
    {
      "inputs": [],
      "name": "poolCap",
      "outputs": [
        {
          "internalType": "uint256",
          "name": "",
          "type": "uint256"
        }
      ],
      "stateMutability": "view",
      "type": "function"
    },
    {
      "inputs": [],
      "name": "poolCapTimelock",
      "outputs": [
        {
          "internalType": "uint256",
          "name": "timelock",
          "type": "uint256"
        },
        {
          "internalType": "uint256",
          "name": "amount",
          "type": "uint256"
        },
        {
          "internalType": "bool",
          "name": "executed",
          "type": "bool"
        }
      ],
      "stateMutability": "view",
      "type": "function"
    },
    {
      "inputs": [],
      "name": "premiumBalance",
      "outputs": [
        {
          "internalType": "uint256",
          "name": "",
          "type": "uint256"
        }
      ],
      "stateMutability": "view",
      "type": "function"
    },
    {
      "inputs": [],
      "name": "premiumCommission",
      "outputs": [
        {
          "internalType": "uint256",
          "name": "",
          "type": "uint256"
        }
      ],
      "stateMutability": "view",
      "type": "function"
    },
    {
      "inputs": [],
      "name": "projectDeposit",
      "outputs": [
        {
          "internalType": "uint256",
          "name": "",
          "type": "uint256"
        }
      ],
      "stateMutability": "view",
      "type": "function"
    },
    {
      "inputs": [
        {
          "internalType": "address",
          "name": "_token",
          "type": "address"
        },
        {
          "internalType": "address",
          "name": "_projectWallet",
          "type": "address"
        },
        {
          "internalType": "uint256",
          "name": "_amount",
          "type": "uint256"
        }
      ],
      "name": "projectDepositWithdrawal",
      "outputs": [
        {
          "internalType": "bool",
          "name": "",
          "type": "bool"
        }
      ],
      "stateMutability": "nonpayable",
      "type": "function"
    },
    {
      "inputs": [],
      "name": "renounceOwnership",
      "outputs": [],
      "stateMutability": "nonpayable",
      "type": "function"
    },
    {
      "inputs": [],
      "name": "requiredPremiumBalancePerPeriod",
      "outputs": [
        {
          "internalType": "uint256",
          "name": "",
          "type": "uint256"
        }
      ],
      "stateMutability": "view",
      "type": "function"
    },
    {
      "inputs": [],
      "name": "saloonBountyCommission",
      "outputs": [
        {
          "internalType": "uint256",
          "name": "",
          "type": "uint256"
        }
      ],
      "stateMutability": "view",
      "type": "function"
    },
    {
      "inputs": [],
      "name": "saloonPremiumFees",
      "outputs": [
        {
          "internalType": "uint256",
          "name": "",
          "type": "uint256"
        }
      ],
      "stateMutability": "view",
      "type": "function"
    },
    {
      "inputs": [
        {
          "internalType": "uint256",
          "name": "_newAPY",
          "type": "uint256"
        }
      ],
      "name": "scheduleAPYChange",
      "outputs": [],
      "stateMutability": "nonpayable",
      "type": "function"
    },
    {
      "inputs": [
        {
          "internalType": "uint256",
          "name": "_newPoolCap",
          "type": "uint256"
        }
      ],
      "name": "schedulePoolCapChange",
      "outputs": [],
      "stateMutability": "nonpayable",
      "type": "function"
    },
    {
      "inputs": [
        {
          "internalType": "address",
          "name": "_staker",
          "type": "address"
        },
        {
          "internalType": "uint256",
          "name": "_amount",
          "type": "uint256"
        }
      ],
      "name": "scheduleUnstake",
      "outputs": [
        {
          "internalType": "bool",
          "name": "",
          "type": "bool"
        }
      ],
      "stateMutability": "nonpayable",
      "type": "function"
    },
    {
      "inputs": [
        {
          "internalType": "uint256",
          "name": "_amount",
          "type": "uint256"
        }
      ],
      "name": "scheduleprojectDepositWithdrawal",
      "outputs": [
        {
          "internalType": "bool",
          "name": "",
          "type": "bool"
        }
      ],
      "stateMutability": "nonpayable",
      "type": "function"
    },
    {
      "inputs": [
        {
          "internalType": "address",
          "name": "_token",
          "type": "address"
        },
        {
          "internalType": "address",
          "name": "_projectWallet",
          "type": "address"
        },
        {
          "internalType": "uint256",
          "name": "_desiredAPY",
          "type": "uint256"
        }
      ],
      "name": "setDesiredAPY",
      "outputs": [
        {
          "internalType": "bool",
          "name": "",
          "type": "bool"
        }
      ],
      "stateMutability": "nonpayable",
      "type": "function"
    },
    {
      "inputs": [
        {
          "internalType": "uint256",
          "name": "_amount",
          "type": "uint256"
        }
      ],
      "name": "setPoolCap",
      "outputs": [],
      "stateMutability": "nonpayable",
      "type": "function"
    },
    {
      "inputs": [
        {
          "internalType": "address",
          "name": "_token",
          "type": "address"
        },
        {
          "internalType": "address",
          "name": "_staker",
          "type": "address"
        },
        {
          "internalType": "uint256",
          "name": "_amount",
          "type": "uint256"
        }
      ],
      "name": "stake",
      "outputs": [
        {
          "internalType": "bool",
          "name": "",
          "type": "bool"
        }
      ],
      "stateMutability": "nonpayable",
      "type": "function"
    },
    {
      "inputs": [
        {
          "internalType": "address",
          "name": "",
          "type": "address"
        },
        {
          "internalType": "uint256",
          "name": "",
          "type": "uint256"
        }
      ],
      "name": "staker",
      "outputs": [
        {
          "internalType": "uint256",
          "name": "stakeBalance",
          "type": "uint256"
        },
        {
          "internalType": "uint256",
          "name": "balanceTimeStamp",
          "type": "uint256"
        }
      ],
      "stateMutability": "view",
      "type": "function"
    },
    {
      "inputs": [
        {
          "internalType": "uint256",
          "name": "",
          "type": "uint256"
        }
      ],
      "name": "stakerList",
      "outputs": [
        {
          "internalType": "address",
          "name": "",
          "type": "address"
        }
      ],
      "stateMutability": "view",
      "type": "function"
    },
    {
      "inputs": [
        {
          "internalType": "address",
          "name": "",
          "type": "address"
        }
      ],
      "name": "stakerTimelock",
      "outputs": [
        {
          "internalType": "uint256",
          "name": "timelock",
          "type": "uint256"
        },
        {
          "internalType": "uint256",
          "name": "amount",
          "type": "uint256"
        },
        {
          "internalType": "bool",
          "name": "executed",
          "type": "bool"
        }
      ],
      "stateMutability": "view",
      "type": "function"
    },
    {
      "inputs": [
        {
          "internalType": "uint256",
          "name": "",
          "type": "uint256"
        }
      ],
      "name": "stakersDeposit",
      "outputs": [
        {
          "internalType": "uint256",
          "name": "stakeBalance",
          "type": "uint256"
        },
        {
          "internalType": "uint256",
          "name": "balanceTimeStamp",
          "type": "uint256"
        }
      ],
      "stateMutability": "view",
      "type": "function"
    },
    {
      "inputs": [],
      "name": "stakingPause",
      "outputs": [
        {
          "internalType": "uint256",
          "name": "",
          "type": "uint256"
        }
      ],
      "stateMutability": "view",
      "type": "function"
    },
    {
      "inputs": [
        {
          "internalType": "address",
          "name": "newOwner",
          "type": "address"
        }
      ],
      "name": "transferOwnership",
      "outputs": [],
      "stateMutability": "nonpayable",
      "type": "function"
    },
    {
      "inputs": [
        {
          "internalType": "address",
          "name": "_token",
          "type": "address"
        },
        {
          "internalType": "address",
          "name": "_staker",
          "type": "address"
        },
        {
          "internalType": "uint256",
          "name": "_amount",
          "type": "uint256"
        }
      ],
      "name": "unstake",
      "outputs": [
        {
          "internalType": "bool",
          "name": "",
          "type": "bool"
        }
      ],
      "stateMutability": "nonpayable",
      "type": "function"
    },
    {
      "inputs": [],
      "name": "viewBountyBalance",
      "outputs": [
        {
          "internalType": "uint256",
          "name": "",
          "type": "uint256"
        }
      ],
      "stateMutability": "view",
      "type": "function"
    },
    {
      "inputs": [],
      "name": "viewDesiredAPY",
      "outputs": [
        {
          "internalType": "uint256",
          "name": "",
          "type": "uint256"
        }
      ],
      "stateMutability": "view",
      "type": "function"
    },
    {
      "inputs": [],
      "name": "viewHackerPayout",
      "outputs": [
        {
          "internalType": "uint256",
          "name": "",
          "type": "uint256"
        }
      ],
      "stateMutability": "view",
      "type": "function"
    },
    {
      "inputs": [],
      "name": "viewPoolCap",
      "outputs": [
        {
          "internalType": "uint256",
          "name": "",
          "type": "uint256"
        }
      ],
      "stateMutability": "view",
      "type": "function"
    },
    {
      "inputs": [],
      "name": "viewPremiumBalance",
      "outputs": [
        {
          "internalType": "uint256",
          "name": "",
          "type": "uint256"
        }
      ],
      "stateMutability": "view",
      "type": "function"
    },
    {
      "inputs": [],
      "name": "viewProjecDeposit",
      "outputs": [
        {
          "internalType": "uint256",
          "name": "",
          "type": "uint256"
        }
      ],
      "stateMutability": "view",
      "type": "function"
    },
    {
      "inputs": [],
      "name": "viewRequirePremiumBalance",
      "outputs": [
        {
          "internalType": "uint256",
          "name": "",
          "type": "uint256"
        }
      ],
      "stateMutability": "view",
      "type": "function"
    },
    {
      "inputs": [],
      "name": "viewStakersDeposit",
      "outputs": [
        {
          "internalType": "uint256",
          "name": "",
          "type": "uint256"
        }
      ],
      "stateMutability": "view",
      "type": "function"
    },
    {
      "inputs": [
        {
          "internalType": "address",
          "name": "_staker",
          "type": "address"
        }
      ],
      "name": "viewUserStakingBalance",
      "outputs": [
        {
          "internalType": "uint256",
          "name": "",
          "type": "uint256"
        },
        {
          "internalType": "uint256",
          "name": "",
          "type": "uint256"
        }
      ],
      "stateMutability": "view",
      "type": "function"
    },
    {
      "inputs": [
        {
          "internalType": "address",
          "name": "_staker",
          "type": "address"
        }
      ],
      "name": "viewUserTimelock",
      "outputs": [
        {
          "internalType": "uint256",
          "name": "timelock",
          "type": "uint256"
        },
        {
          "internalType": "uint256",
          "name": "amount",
          "type": "uint256"
        },
        {
          "internalType": "bool",
          "name": "executed",
          "type": "bool"
        }
      ],
      "stateMutability": "view",
      "type": "function"
    },
    {
      "inputs": [],
      "name": "viewcurrentAPY",
      "outputs": [
        {
          "internalType": "uint256",
          "name": "",
          "type": "uint256"
        }
      ],
      "stateMutability": "view",
      "type": "function"
    },
    {
      "inputs": [],
      "name": "withdrawalTimelock",
      "outputs": [
        {
          "internalType": "uint256",
          "name": "timelock",
          "type": "uint256"
        },
        {
          "internalType": "uint256",
          "name": "amount",
          "type": "uint256"
        },
        {
          "internalType": "bool",
          "name": "executed",
          "type": "bool"
        }
      ],
      "stateMutability": "view",
      "type": "function"
    }
  ],
  "bytecode": {
    "object": "0x60806040523480156200001157600080fd5b506200001d3362000023565b62000073565b600080546001600160a01b038381166001600160a01b0319831681178455604051919092169283917f8be0079c531659141344cd1fd0a4f28419497f9722a3daafe3b4186f6b6457e09190a35050565b613d4280620000836000396000f3fe608060405234801561001057600080fd5b50600436106103835760003560e01c806372d26951116101de578063b4d1d7951161010f578063d5cb8669116100ad578063e45080e61161007c578063e45080e614610758578063f2fde38b14610760578063ff45d4c014610773578063ffa1ad741461077b57600080fd5b8063d5cb866914610721578063d6c47be714610729578063d835f53514610732578063ddaaae031461074557600080fd5b8063c790ef82116100e9578063c790ef82146106e0578063cc12c311146106f3578063d084b03a14610706578063d26c90a91461070e57600080fd5b8063b4d1d795146106ba578063b954dc57146106c4578063bf6eac2f146106cd57600080fd5b80638aa82e821161017c5780639e4bfaa5116101565780639e4bfaa514610683578063a194c3b614610696578063a4bf70bd146106a9578063aaf5eb68146106b257600080fd5b80638aa82e82146106565780638da5cb5b1461066957806396ce07951461067a57600080fd5b806378eb46fd116101b857806378eb46fd1461062557806380d440ff1461062d578063839145401461064257806384dc10b41461064d57600080fd5b806372d26951146105d757806373927c11146105e0578063769966e8146105f357600080fd5b80633d850fb2116102b8578063503cb917116102565780635a898d03116102305780635a898d031461059457806360829f8a146105a7578063715018a6146105ba578063728ecaf8146105c257600080fd5b8063503cb917146105635780635121ac9d1461057857806355455df21461058b57600080fd5b8063481c6a7511610292578063481c6a751461052c5780634a94bcb31461053f5780634b5df6cc146105475780634c3bdee01461055a57600080fd5b80633d850fb214610507578063419b7bd71461051057806344ebc03d1461052357600080fd5b80632d7807a9116103255780633147096d116102ff5780633147096d146104a4578063348e50c6146104c7578063383639b3146104f25780633a5b0172146104fa57600080fd5b80632d7807a9146104375780633065f45014610473578063313ce5671461049b57600080fd5b806316e17b8d1161036157806316e17b8d146103cd5780631a89cabd146103d55780631e27970f146103fd57806320d830861461042f57600080fd5b8063013eba92146103885780630ba68f1a146103bb5780631104ec25146103c4575b600080fd5b6103a86103963660046138a4565b600f6020526000908152604090205481565b6040519081526020015b60405180910390f35b6103a860045481565b6103a8600b5481565b6103a8610783565b6103e86103e33660046138a4565b61083b565b604080519283526020830191909152016103b2565b601854601954601a5461041292919060ff1683565b6040805193845260208401929092521515908201526060016103b2565b6008546103a8565b6104126104453660046138a4565b6001600160a01b0316600090815260116020526040902080546001820154600290920154909260ff90911690565b6104866104813660046138bf565b6108fa565b604080519283529015156020830152016103b2565b6103a860025481565b6104b76104b2366004613902565b610acf565b60405190151581526020016103b2565b6104da6104d536600461393e565b610b4b565b6040516001600160a01b0390911681526020016103b2565b600c546103a8565b6021546104b79060ff1681565b6103a860075481565b6104b761051e366004613902565b610b75565b6103a860085481565b6001546104da906001600160a01b031681565b6103a8610c5a565b6104b761055536600461393e565b610d49565b6103a8600d5481565b61057661057136600461393e565b610d9e565b005b6103a8610586366004613957565b610de7565b6103a8600e5481565b6105766105a236600461398a565b610e3a565b6104b76105b5366004613902565b610fcb565b610576611414565b60155460165460175461041292919060ff1683565b6103a8600c5481565b6104b76105ee3660046139b4565b611428565b6104126106013660046138a4565b60116020526000908152604090208054600182015460029092015490919060ff1683565b6009546103a8565b60125460135460145461041292919060ff1683565b6103a86301e1338081565b6103a860095481565b6104b7610664366004613957565b611a12565b6000546001600160a01b03166104da565b6103a860055481565b6103e861069136600461398a565b611d4d565b6103e86106a436600461393e565b611d89565b6103a860065481565b6103a8606481565b6103a862093a8081565b6103a8600a5481565b6104b76106db366004613902565b611db7565b6104b76106ee36600461398a565b61229c565b6104b7610701366004613902565b612407565b600d546103a8565b61057661071c36600461393e565b61283f565b6103a8612888565b6103a860035481565b61057661074036600461393e565b6128a7565b6103e861075336600461393e565b61295c565b6103a861296c565b61057661076e3660046138a4565b612a30565b600a546103a8565b6103a8600181565b600080601d805480602002602001604051908101604052809291908181526020016000905b828210156107ee578382906000526020600020906002020160405180604001604052908160008201548152602001600182015481525050815260200190600101906107a8565b505082519293505050806108055760009250505090565b601d610812600183613a15565b8154811061082257610822613a2c565b9060005260206000209060020201600001549250505090565b6001600160a01b0381166000908152601060205260408120548190806108675750600093849350915050565b6001600160a01b038416600090815260106020526040902061088a600183613a15565b8154811061089a5761089a613a2c565b600091825260208083206002909202909101546001600160a01b0387168352601090915260409091206108ce600184613a15565b815481106108de576108de613a2c565b9060005260206000209060020201600101549250925050915091565b60015460009081906001600160a01b031633146109325760405162461bcd60e51b815260040161092990613a42565b60405180910390fd5b6001600160a01b0384166000908152600f6020908152604080832054601083528184208054835181860281018601909452808452919493909190849084015b828210156109b757838290600052602060002090600202016040518060400160405290816000820154815260200160018201548152505081526020019060010190610971565b50508251600854939450929150600090506109d3858585612aa9565b90506000600554600454836109e89190613a70565b6109f29190613a8f565b90506109fe8183613a15565b91508180841015610a1557610a138c8b611a12565b505b60405163a9059cbb60e01b81526001600160a01b038c81166004830152602482018390528d169063a9059cbb906044016020604051808303816000875af1158015610a64573d6000803e3d6000fd5b505050506040513d601f19601f82011682018060405250810190610a889190613ab1565b508260086000828254610a9b9190613a15565b90915550506001600160a01b038b166000908152600f60205260409020429055975060019650505050505050935093915050565b6001546000906001600160a01b03163314610afc5760405162461bcd60e51b815260040161092990613a42565b610b116001600160a01b038516843085612b32565b50600c54610b2a57610b2662093a8042613ad3565b600e555b81600c6000828254610b3c9190613ad3565b90915550600195945050505050565b601b8181548110610b5b57600080fd5b6000918252602090912001546001600160a01b0316905081565b6001546000906001600160a01b03163314610ba25760405162461bcd60e51b815260040161092990613a42565b604080516060810182526018548082526019546020830152601a5460ff161515928201929092529042118015610bda57506040810151155b8015610bea575082816020015110155b8015610bf65750805115155b610c125760405162461bcd60e51b815260040161092990613aeb565b601a805460ff19166001179055600c8054849190600090610c34908490613a15565b90915550610c4e90506001600160a01b0386168585612bab565b50600195945050505050565b600080601d805480602002602001604051908101604052809291908181526020016000905b82821015610cc557838290600052602060002090600202016040518060400160405290816000820154815260200160018201548152505081526020019060010190610c7f565b50508251929350600091505081610cdf5750600c54610d17565b82610ceb600184613a15565b81518110610cfb57610cfb613a2c565b602002602001015160000151600c54610d149190613ad3565b90505b600060055460035483610d2a9190613a70565b610d349190613a8f565b9050610d408183613a15565b94505050505090565b6001546000906001600160a01b03163314610d765760405162461bcd60e51b815260040161092990613a42565b610d8362093a8042613ad3565b601855506019819055601a805460ff1916905560015b919050565b6001546001600160a01b03163314610dc85760405162461bcd60e51b815260040161092990613a42565b610dd562093a8042613ad3565b6015556016556017805460ff19169055565b6001546000906001600160a01b03163314610e145760405162461bcd60e51b815260040161092990613a42565b600754610e2b6001600160a01b0385168483612bab565b50600060075590505b92915050565b600054600160a81b900460ff1615808015610e6257506000546001600160a01b90910460ff16105b80610e835750303b158015610e835750600054600160a01b900460ff166001145b610ee65760405162461bcd60e51b815260206004820152602e60248201527f496e697469616c697a61626c653a20636f6e747261637420697320616c72656160448201526d191e481a5b9a5d1a585b1a5e995960921b6064820152608401610929565b6000805460ff60a01b1916600160a01b1790558015610f13576000805460ff60a81b1916600160a81b1790555b600180546001600160a01b0319166001600160a01b0385161790556002829055610f3e82600a613c10565b610f4990600a613a70565b600355610f5782600a613c10565b610f6290600a613a70565b600455610f7082600a613c10565b610f7b906064613a70565b6005558015610fc6576000805460ff60a81b19169055604051600181527f7f26b83ff96e1f2b6a682f133852f6798a09c465da95921460cefb38474024989060200160405180910390a15b505050565b6001546000906001600160a01b03163314610ff85760405162461bcd60e51b815260040161092990613a42565b600954156110b7576001600160a01b0383166000908152601160209081526040918290208251606081018452815480825260018301549382019390935260029091015460ff161515928101929092524211801561105757506040810151155b8015611067575082816020015110155b80156110735750805115155b61108f5760405162461bcd60e51b815260040161092990613aeb565b506001600160a01b0383166000908152601160205260409020600201805460ff191660011790555b6001600160a01b0383166000908152601060205260408120546110dc90600190613a15565b90506110fb604051806040016040528060008152602001600081525090565b426020808301919091526001600160a01b038616600090815260109091526040902080548591908490811061113257611132613a2c565b90600052602060002090600202016000015461114e9190613a15565b8152601b805460408051602080840282018101909252828152600093909290918301828280156111a757602002820191906000526020600020905b81546001600160a01b03168152600190910190602001808311611189575b505050505090508160000151600014156112a957805160005b818110156112a657876001600160a01b03168382815181106111e4576111e4613a2c565b60200260200101516001600160a01b0316141561129e57600083611209600185613a15565b8151811061121957611219613a2c565b6020026020010151905080601b838154811061123757611237613a2c565b9060005260206000200160006101000a8154816001600160a01b0302191690836001600160a01b03160217905550601b80548061127657611276613c1c565b600082815260209020810160001990810180546001600160a01b0319169055019055506112a6565b6001016111c0565b50505b6001600160a01b0386166000908152601060209081526040808320805460018181018355918552838520875160029092020190815586840151910155601d80548251818502810185019093528083529192909190849084015b8282101561134857838290600052602060002090600202016040518060400160405290816000820154815260200160018201548152505081526020019060010190611302565b50505050905060006001825161135e9190613a15565b905061137d604051806040016040528060008152602001600081525090565b8783838151811061139057611390613a2c565b6020026020010151600001516113a69190613a15565b81524260208201908152601d80546001810182556000919091528251600080516020613ccd8339815191526002909202918201559051600080516020613ced833981519152909101556114036001600160a01b038b168a8a612bab565b5060019a9950505050505050505050565b61141c612be8565b6114266000612c42565b565b6001546000906001600160a01b031633146114555760405162461bcd60e51b815260040161092990613a42565b6000601d805480602002602001604051908101604052809291908181526020016000905b828210156114bf57838290600052602060002090600202016040518060400160405290816000820154815260200160018201548152505081526020019060010190611479565b5050505090506000600182516114d59190613a15565b90506000601b80548060200260200160405190810160405280929190818152602001828054801561152f57602002820191906000526020600020905b81546001600160a01b03168152600190910190602001808311611511575b505050505090506000815190508584848151811061154f5761154f613a2c565b602002602001015160000151106118a8578584848151811061157357611573613a2c565b602002602001015160000181815161158b9190613a15565b905250604080518082019091526000815242602082015284518590859081106115b6576115b6613a2c565b602090810291909101015151815284518590859081106115d8576115d8613a2c565b602002602001015160000151600014156116e25760005b8281101561167957604080518082019091526000808252426020830152855186908490811061162057611620613a2c565b6020908102919091018101516001600160a01b03166000908152601082526040812080546001818101835591835291839020855160029093020191825593909101519201919091555061167281613c32565b90506115ef565b506116868a898b8a612c92565b50601d805460018101825560009182528251600080516020613ccd8339815191526002909202918201556020830151600080516020613ced833981519152909101556116d490601b9061385b565b600195505050505050611a0a565b60008585815181106116f6576116f6613a2c565b60200260200101516000015160648961170f9190613a70565b6117199190613a8f565b905060005b8381101561184957600085828151811061173a5761173a613a2c565b6020908102919091018101516001600160a01b03811660009081526010909252604082205490925061176e90600190613a15565b6001600160a01b0383166000908152601060205260408120805492935090918390811061179d5761179d613a2c565b90600052602060002090600202016000015490506117ce604051806040016040528060008152602001600081525090565b4260208201526005546117e18784613a70565b6117eb9190613a8f565b6117f59083613a15565b81526001600160a01b039093166000908152601060209081526040822080546001818101835591845292829020865160029094020192835594015193019290925550611842905081613c32565b905061171e565b50601d80546001810182556000919091528251600080516020613ccd8339815191526002909202918201556020830151600080516020613ced833981519152909101556118988b8a8c8b612c92565b5060019650505050505050611a0a565b60005b818110156119355760408051808201909152600080825242602083015284518590849081106118dc576118dc613a2c565b6020908102919091018101516001600160a01b03166000908152601082526040812080546001818101835591835291839020855160029093020191825593909101519201919091555061192e81613c32565b90506118ab565b50611942601b600061385b565b600084848151811061195657611956613a2c565b6020026020010151600001518761196d9190613a15565b905080600c60008282546119819190613a15565b9091555050604080518082019091526000815242602082015285518690869081106119ae576119ae613a2c565b602090810291909101810151518252601d80546001810182556000919091528251600080516020613ccd83398151915260029092029182015590820151600080516020613ced833981519152909101556118988b8a8c8b612c92565b949350505050565b6001546000906001600160a01b0316331480611a2d57503330145b611a795760405162461bcd60e51b815260206004820152601c60248201527f4f6e6c79206d616e61676572206f722073656c6620616c6c6f776564000000006044820152606401610929565b6000601d805480602002602001604051908101604052809291908181526020016000905b82821015611ae357838290600052602060002090600202016040518060400160405290816000820154815260200160018201548152505081526020019060010190611a9d565b50508251600b54600954949550909390925090506000611b0582858588612cf7565b6040516323b872dd60e01b81526001600160a01b03898116600483015230602483015260448201839052919250908916906323b872dd906064016020604051808303816000875af1925050508015611b7a575060408051601f3d908101601f19168201909252611b7791810190613ab1565b60015b611c2c576040805180820190915260006020820152428152611b9a612888565b60208201908152601c8054600181018255600091825283517f0e4562a10381dec21b205ed72637e6b1b523bdd0e4d4d50af5cd23dd4500a21160029092029182015591517f0e4562a10381dec21b205ed72637e6b1b523bdd0e4d4d50af5cd23dd4500a21290920191909155611c0e612888565b9050611c1b8a8a83612407565b506000975050505050505050610e34565b80611ce0576040805180820190915260006020820152428152611c4d612888565b60208201908152601c8054600181018255600091825283517f0e4562a10381dec21b205ed72637e6b1b523bdd0e4d4d50af5cd23dd4500a21160029092029182015591517f0e4562a10381dec21b205ed72637e6b1b523bdd0e4d4d50af5cd23dd4500a21290920191909155611cc1612888565b9050611cce8b8b83612407565b50600098505050505050505050610e34565b50600060055460045483611cf49190613a70565b611cfe9190613a8f565b90508060076000828254611d129190613ad3565b925050819055508160086000828254611d2b9190613ad3565b909155505042600b5550506021805460ff191690555060019695505050505050565b60106020528160005260406000208181548110611d6957600080fd5b600091825260209091206002909102018054600190910154909250905082565b601d8181548110611d9957600080fd5b60009182526020909120600290910201805460019091015490915082565b6001546000906001600160a01b03163314611de45760405162461bcd60e51b815260040161092990613a42565b42600e5410611e355760405162461bcd60e51b815260206004820152601960248201527f5374616b696e67206e6f74206f70656e206a75737420796574000000000000006044820152606401610929565b6000601d805480602002602001604051908101604052809291908181526020016000905b82821015611e9f57838290600052602060002090600202016040518060400160405290816000820154815260200160018201548152505081526020019060010190611e59565b50508251929350505080611eff5760408051808201909152600080825260208201818152601d805460018101825592529151600080516020613ccd8339815191526002909202918201559051600080516020613ced833981519152909101555b601d54600090611f1190600190613a15565b9050600a5485601d8381548110611f2a57611f2a613a2c565b906000526020600020906002020160000154611f469190613ad3565b1115611f945760405162461bcd60e51b815260206004820152601960248201527f5374616b696e6720506f6f6c20616c72656164792066756c6c000000000000006044820152606401610929565b6001600160a01b03861660009081526010602052604090205480611ffe57604080518082018252600080825260208083018281526001600160a01b038c16835260108252938220805460018082018355918452919092209251600290910290920191825591519101555b6001600160a01b03871660009081526010602052604081205461202390600190613a15565b6001600160a01b03891660009081526010602052604090208054919250908290811061205157612051613a2c565b906000526020600020906002020160000154600014156120b757601b80546001810182556000919091527f3ad8aa4f87544323a9d1e5dd902f40c356527a7955687113db5f9a85ad579dc10180546001600160a01b0319166001600160a01b038a161790555b6040805180820182526000808252426020808401919091526001600160a01b038c16825260109052919091208054899190849081106120f8576120f8613a2c565b9060005260206000209060020201600001546121149190613ad3565b81528261216c576001600160a01b038916600090815260106020526040902080548291908490811061214857612148613a2c565b600091825260209182902083516002909202019081559101516001909101556121a9565b6001600160a01b03891660009081526010602090815260408220805460018181018355918452928290208451600290940201928355908301519101555b604080518082019091526000808252602082015288601d86815481106121d1576121d1613a2c565b9060005260206000209060020201600001546121ed9190613ad3565b8152426020820152856122325780601d868154811061220e5761220e613a2c565b60009182526020918290208351600290920201908155910151600190910155612275565b601d80546001810182556000919091528151600080516020613ccd8339815191526002909202918201556020820151600080516020613ced833981519152909101555b61228a6001600160a01b038c168b308c612b32565b5060019b9a5050505050505050505050565b6001546000906001600160a01b031633146122c95760405162461bcd60e51b815260040161092990613a42565b6001600160a01b038316600090815260106020908152604080832080548251818502810185019093528083529192909190849084015b82821015612345578382906000526020600020906002020160405180604001604052908160008201548152602001600182015481525050815260200190600101906122ff565b50505050905060006001825161235b9190613a15565b90508382828151811061237057612370613a2c565b60200260200101516000015110156123c15760405162461bcd60e51b8152602060048201526014602482015273496e73756669636369656e742062616c616e636560601b6044820152606401610929565b6123ce62093a8042613ad3565b6001600160a01b039590951660009081526011602052604090209485555050506001808301919091556002909101805460ff1916905590565b6001546000906001600160a01b031633148061242257503330145b61246e5760405162461bcd60e51b815260206004820152601c60248201527f4f6e6c79206d616e61676572206f722073656c6620616c6c6f776564000000006044820152606401610929565b600954156124f45760408051606081018252601554808252601654602083015260175460ff1615159282019290925290421180156124ae57506040810151155b80156124bd5750828160200151145b80156124c95750805115155b6124e55760405162461bcd60e51b815260040161092990613aeb565b506017805460ff191660011790555b60006008549050600080601d805480602002602001604051908101604052809291908181526020016000905b8282101561256657838290600052602060002090600202016040518060400160405290816000820154815260200160018201548152505081526020019060010190612520565b5050825192935050811590506125b65781612582600183613a15565b8151811061259257612592613a2c565b6020026020010151600001516000146125b1576125af8888611a12565b505b612635565b62093a806301e1338060055488600a546125d09190613a70565b6125da9190613a8f565b6125e49190613a8f565b6125ee9190613a70565b9250828410156126355760006126048585613a15565b905061261b6001600160a01b038a16893084612b32565b50806008600082825461262e9190613ad3565b9091555050505b600d8390556040805180820182524281526020808201898152601c8054600181018255600091825284517f0e4562a10381dec21b205ed72637e6b1b523bdd0e4d4d50af5cd23dd4500a21160029092029182015591517f0e4562a10381dec21b205ed72637e6b1b523bdd0e4d4d50af5cd23dd4500a2129092019190915560098a9055601b805485518185028101850190965280865293949193919290919083018282801561270d57602002820191906000526020600020905b81546001600160a01b031681526001909101906020018083116126ef575b505050505090506000815111156128255760006001825161272e9190613a15565b905060005b8181101561282257600083828151811061274f5761274f613a2c565b6020908102919091018101516001600160a01b03811660009081526010909252604082205490925061278390600190613a15565b90506127a2604051806040016040528060008152602001600081525090565b6001600160a01b03831660009081526010602052604090208054839081106127cc576127cc613a2c565b60009182526020808320600292830201548452428482019081526001600160a01b039096168352601081526040832080546001818101835591855291909320935191029092019182559251908301555001612733565b50505b50506021805460ff19169055506001979650505050505050565b6001546001600160a01b031633146128695760405162461bcd60e51b815260040161092990613a42565b61287662093a8042613ad3565b6012556013556014805460ff19169055565b600080600a54606460085461289d9190613a70565b610e349190613a8f565b6001546001600160a01b031633146128d15760405162461bcd60e51b815260040161092990613a42565b600a54156129575760408051606081018252601254808252601354602083015260145460ff16151592820192909252904211801561291157506040810151155b80156129205750818160200151145b801561292c5750805115155b6129485760405162461bcd60e51b815260040161092990613aeb565b506014805460ff191660011790555b600a55565b601c8181548110611d9957600080fd5b600080601d805480602002602001604051908101604052809291908181526020016000905b828210156129d757838290600052602060002090600202016040518060400160405290816000820154815260200160018201548152505081526020019060010190612991565b505082519293506000915050816129f15750600c54612a29565b826129fd600184613a15565b81518110612a0d57612a0d613a2c565b602002602001015160000151600c54612a269190613ad3565b90505b9392505050565b612a38612be8565b6001600160a01b038116612a9d5760405162461bcd60e51b815260206004820152602660248201527f4f776e61626c653a206e6577206f776e657220697320746865207a65726f206160448201526564647265737360d01b6064820152608401610929565b612aa681612c42565b50565b600080601c805480602002602001604051908101604052809291908181526020016000905b82821015612b1457838290600052602060002090600202016040518060400160405290816000820154815260200160018201548152505081526020019060010190612ace565b5050505090506000612b28868686856130dc565b9695505050505050565b6040516001600160a01b0380851660248301528316604482015260648101829052600090612ba09086906323b872dd60e01b906084015b60408051601f198184030181529190526020810180516001600160e01b03166001600160e01b0319909316929092179091526133d8565b506001949350505050565b6040516001600160a01b038316602482015260448101829052600090612bde90859063a9059cbb60e01b90606401612b69565b5060019392505050565b6000546001600160a01b031633146114265760405162461bcd60e51b815260206004820181905260248201527f4f776e61626c653a2063616c6c6572206973206e6f7420746865206f776e65726044820152606401610929565b600080546001600160a01b038381166001600160a01b0319831681178455604051919092169283917f8be0079c531659141344cd1fd0a4f28419497f9722a3daafe3b4186f6b6457e09190a35050565b60008060055460035484612ca69190613a70565b612cb09190613a8f565b90506000612cbe8285613a15565b9050612cd46001600160a01b0388168783612bab565b50612ce96001600160a01b0388168684612bab565b506001979650505050505050565b60008060005b85811015612d705784848281518110612d1857612d18613a2c565b6020026020010151602001511115612d6057601f80546001810182556000919091527fa03837a25210ee280c2113ff4b77ca23440b19d4866cca721c801278fd08d807018190555b612d6981613c32565b9050612cfd565b506000601f805480602002602001604051908101604052809291908181526020018280548015612dbf57602002820191906000526020600020905b815481526020019060010190808311612dab575b505083519394506000925050505b818110156130c357600087612ebb57612de7600184613a15565b821415612e375786848381518110612e0157612e01613a2c565b602002602001015181518110612e1957612e19613a2c565b60200260200101516020015142612e309190613a15565b905061303c565b86848381518110612e4a57612e4a613a2c565b602002602001015181518110612e6257612e62613a2c565b6020026020010151602001518785846001612e7d9190613ad3565b81518110612e8d57612e8d613a2c565b602002602001015181518110612ea557612ea5613a2c565b602002602001015160200151612e309190613a15565b81612f905786848381518110612ed357612ed3613a2c565b602002602001015181518110612eeb57612eeb613a2c565b6020026020010151602001518785846001612f069190613ad3565b81518110612f1657612f16613a2c565b602002602001015181518110612f2e57612f2e613a2c565b602002602001015160200151612f449190613a15565b87858481518110612f5757612f57613a2c565b602002602001015181518110612f6f57612f6f613a2c565b60200260200101516020015189612f869190613a15565b612e309190613ad3565b612f9b600184613a15565b821415612fb55786848381518110612e0157612e01613a2c565b86848381518110612fc857612fc8613a2c565b602002602001015181518110612fe057612fe0613a2c565b6020026020010151602001518785846001612ffb9190613ad3565b8151811061300b5761300b613a2c565b60200260200101518151811061302357613023613a2c565b6020026020010151602001516130399190613a15565b90505b806301e133806005548c8a88878151811061305957613059613a2c565b60200260200101518151811061307157613071613a2c565b6020026020010151600001516130879190613a70565b6130919190613a8f565b61309b9190613a8f565b6130a59190613a70565b6130af9086613ad3565b945050806130bc90613c32565b9050612dcd565b506130d0601f600061385b565b50909695505050505050565b8051600090818080886131ae5760005b848110156131a85786818151811061310657613106613a2c565b60200260200101516000015192506001856131219190613a15565b8114156131305742915061315b565b8661313c826001613ad3565b8151811061314c5761314c613a2c565b60200260200101516000015191505b600087828151811061316f5761316f613a2c565b602002602001015160200151905061318a8185858d8d6134aa565b6131949086613ad3565b945050806131a190613c32565b90506130ec565b506133cb565b60005b8481101561325757898782815181106131cc576131cc613a2c565b602002602001015160000151111561324757601e6131eb600183613a15565b81546001818101845560009384526020909320015561320a9086613a15565b81141561324757601e80546001810182556000919091527f50bb669a95c7b50b7e8a6f09454034b2b14cf2b85c730dca9a539ca82cb6e350018190555b61325081613c32565b90506131b1565b506000601e8054806020026020016040519081016040528092919081815260200182805480156132a657602002820191906000526020600020905b815481526020019060010190808311613292575b505083519394506000925050505b818110156133c757806132c9578b9450613303565b888382815181106132dc576132dc613a2c565b6020026020010151815181106132f4576132f4613a2c565b60200260200101516000015194505b61330e600188613a15565b81141561331d57429350613361565b888361332a836001613ad3565b8151811061333a5761333a613a2c565b60200260200101518151811061335257613352613a2c565b60200260200101516000015193505b60008984838151811061337657613376613a2c565b60200260200101518151811061338e5761338e613a2c565b60200260200101516020015190506133a98187878f8f6134aa565b6133b39088613ad3565b965050806133c090613c32565b90506132b4565b5050505b5090979650505050505050565b600061342d826040518060400160405280602081526020017f5361666545524332303a206c6f772d6c6576656c2063616c6c206661696c6564815250856001600160a01b031661373b9092919063ffffffff16565b805190915015610fc6578080602001905181019061344b9190613ab1565b610fc65760405162461bcd60e51b815260206004820152602a60248201527f5361666545524332303a204552433230206f7065726174696f6e20646964206e6044820152691bdd081cdd58d8d9595960b21b6064820152608401610929565b6000806000805b8481101561354d57878682815181106134cc576134cc613a2c565b602002602001015160200151101580156135025750868682815181106134f4576134f4613a2c565b602002602001015160200151105b1561353d57602080546001810182556000919091527fc97bfaf2f8ee708c303a06d134f5ecd8389ae0432af62dc132a24118292866bb018190555b61354681613c32565b90506134b1565b506000602080548060200260200160405190810160405280929190818152602001828054801561359c57602002820191906000526020600020905b815481526020019060010190808311613588575b505083519394506000925050505b8181101561371f576135bd600183613a15565b81141561360d57878382815181106135d7576135d7613a2c565b6020026020010151815181106135ef576135ef613a2c565b602002602001015160200151896136069190613a15565b9350613694565b8783828151811061362057613620613a2c565b60200260200101518151811061363857613638613a2c565b60200260200101516020015188848360016136539190613ad3565b8151811061366357613663613a2c565b60200260200101518151811061367b5761367b613a2c565b6020026020010151602001516136919190613a15565b93505b6000846301e133806005548e8c8887815181106136b3576136b3613a2c565b6020026020010151815181106136cb576136cb613a2c565b6020026020010151600001516136e19190613a70565b6136eb9190613a8f565b6136f59190613a8f565b6136ff9190613a70565b905061370b8187613ad3565b9550508061371890613c32565b90506135aa565b50505060206000613730919061385b565b509695505050505050565b6060612a26848460008585600080866001600160a01b031685876040516137629190613c7d565b60006040518083038185875af1925050503d806000811461379f576040519150601f19603f3d011682016040523d82523d6000602084013e6137a4565b606091505b50915091506137b5878383876137c0565b979650505050505050565b6060831561382c578251613825576001600160a01b0385163b6138255760405162461bcd60e51b815260206004820152601d60248201527f416464726573733a2063616c6c20746f206e6f6e2d636f6e74726163740000006044820152606401610929565b5081611a0a565b611a0a83838151156138415781518083602001fd5b8060405162461bcd60e51b81526004016109299190613c99565b5080546000825590600052602060002090810190612aa691905b808211156138895760008155600101613875565b5090565b80356001600160a01b0381168114610d9957600080fd5b6000602082840312156138b657600080fd5b612a298261388d565b6000806000606084860312156138d457600080fd5b6138dd8461388d565b92506138eb6020850161388d565b91506138f96040850161388d565b90509250925092565b60008060006060848603121561391757600080fd5b6139208461388d565b925061392e6020850161388d565b9150604084013590509250925092565b60006020828403121561395057600080fd5b5035919050565b6000806040838503121561396a57600080fd5b6139738361388d565b91506139816020840161388d565b90509250929050565b6000806040838503121561399d57600080fd5b6139a68361388d565b946020939093013593505050565b600080600080608085870312156139ca57600080fd5b6139d38561388d565b93506139e16020860161388d565b92506139ef6040860161388d565b9396929550929360600135925050565b634e487b7160e01b600052601160045260246000fd5b600082821015613a2757613a276139ff565b500390565b634e487b7160e01b600052603260045260246000fd5b60208082526014908201527313db9b1e481b585b9859d95c88185b1b1bddd95960621b604082015260600190565b6000816000190483118215151615613a8a57613a8a6139ff565b500290565b600082613aac57634e487b7160e01b600052601260045260246000fd5b500490565b600060208284031215613ac357600080fd5b81518015158114612a2957600080fd5b60008219821115613ae657613ae66139ff565b500190565b60208082526021908201527f54696d656c6f636b206e6f7420736574206f72206e6f7420636f6d706c6574656040820152601960fa1b606082015260800190565b600181815b80851115613b67578160001904821115613b4d57613b4d6139ff565b80851615613b5a57918102915b93841c9390800290613b31565b509250929050565b600082613b7e57506001610e34565b81613b8b57506000610e34565b8160018114613ba15760028114613bab57613bc7565b6001915050610e34565b60ff841115613bbc57613bbc6139ff565b50506001821b610e34565b5060208310610133831016604e8410600b8410161715613bea575081810a610e34565b613bf48383613b2c565b8060001904821115613c0857613c086139ff565b029392505050565b6000612a298383613b6f565b634e487b7160e01b600052603160045260246000fd5b6000600019821415613c4657613c466139ff565b5060010190565b60005b83811015613c68578181015183820152602001613c50565b83811115613c77576000848401525b50505050565b60008251613c8f818460208701613c4d565b9190910192915050565b6020815260008251806020840152613cb8816040850160208701613c4d565b601f01601f1916919091016040019291505056fe6d4407e7be21f808e6509aa9fa9143369579dd7d760fe20a2c09680fc146134f6d4407e7be21f808e6509aa9fa9143369579dd7d760fe20a2c09680fc1461350a2646970667358221220a0821123b641254d2c8e1ed0d7b42398261fa39d4857027940f475ad02c4178164736f6c634300080a0033",
    "linkReferences": {}
  },
  "methodIdentifiers": {
    "APYTimelock()": "728ecaf8",
    "APYdropped()": "3a5b0172",
    "APYrecords(uint256)": "ddaaae03",
    "PERIOD()": "b4d1d795",
    "PRECISION()": "aaf5eb68",
    "VERSION()": "ffa1ad74",
    "YEAR()": "83914540",
    "billPremium(address,address)": "8aa82e82",
    "bountyCommission()": "d6c47be7",
    "bountyDeposit(address,address,uint256)": "3147096d",
    "claimPremium(address,address,address)": "3065f450",
    "collectSaloonPremiumFees(address,address)": "5121ac9d",
    "decimals()": "313ce567",
    "denominator()": "96ce0795",
    "desiredAPY()": "84dc10b4",
    "initializeImplementation(address,uint256)": "5a898d03",
    "lastClaimed(address)": "013eba92",
    "lastTimePaid()": "1104ec25",
    "manager()": "481c6a75",
    "owner()": "8da5cb5b",
    "payBounty(address,address,address,uint256)": "73927c11",
    "poolCap()": "b954dc57",
    "poolCapTimelock()": "80d440ff",
    "premiumBalance()": "44ebc03d",
    "premiumCommission()": "0ba68f1a",
    "projectDeposit()": "72d26951",
    "projectDepositWithdrawal(address,address,uint256)": "419b7bd7",
    "renounceOwnership()": "715018a6",
    "requiredPremiumBalancePerPeriod()": "4c3bdee0",
    "saloonBountyCommission()": "a4bf70bd",
    "saloonPremiumFees()": "3d850fb2",
    "scheduleAPYChange(uint256)": "503cb917",
    "schedulePoolCapChange(uint256)": "d26c90a9",
    "scheduleUnstake(address,uint256)": "c790ef82",
    "scheduleprojectDepositWithdrawal(uint256)": "4b5df6cc",
    "setDesiredAPY(address,address,uint256)": "cc12c311",
    "setPoolCap(uint256)": "d835f535",
    "stake(address,address,uint256)": "bf6eac2f",
    "staker(address,uint256)": "9e4bfaa5",
    "stakerList(uint256)": "348e50c6",
    "stakerTimelock(address)": "769966e8",
    "stakersDeposit(uint256)": "a194c3b6",
    "stakingPause()": "55455df2",
    "transferOwnership(address)": "f2fde38b",
    "unstake(address,address,uint256)": "60829f8a",
    "viewBountyBalance()": "e45080e6",
    "viewDesiredAPY()": "78eb46fd",
    "viewHackerPayout()": "4a94bcb3",
    "viewPoolCap()": "ff45d4c0",
    "viewPremiumBalance()": "20d83086",
    "viewProjecDeposit()": "383639b3",
    "viewRequirePremiumBalance()": "d084b03a",
    "viewStakersDeposit()": "16e17b8d",
    "viewUserStakingBalance(address)": "1a89cabd",
    "viewUserTimelock(address)": "2d7807a9",
    "viewcurrentAPY()": "d5cb8669",
    "withdrawalTimelock()": "1e27970f"
  },
  "id": 29
}