{
  "abi": [
    {
      "anonymous": false,
      "inputs": [
        {
          "indexed": false,
          "internalType": "uint8",
          "name": "version",
          "type": "uint8"
        }
      ],
      "name": "Initialized",
      "type": "event"
    },
    {
      "anonymous": false,
      "inputs": [
        {
          "indexed": true,
          "internalType": "address",
          "name": "previousOwner",
          "type": "address"
        },
        {
          "indexed": true,
          "internalType": "address",
          "name": "newOwner",
          "type": "address"
        }
      ],
      "name": "OwnershipTransferred",
      "type": "event"
    },
    {
      "inputs": [],
      "name": "APYTimelock",
      "outputs": [
        {
          "internalType": "uint256",
          "name": "timelock",
          "type": "uint256"
        },
        {
          "internalType": "uint256",
          "name": "amount",
          "type": "uint256"
        },
        {
          "internalType": "bool",
          "name": "executed",
          "type": "bool"
        }
      ],
      "stateMutability": "view",
      "type": "function"
    },
    {
      "inputs": [],
      "name": "APYdropped",
      "outputs": [
        {
          "internalType": "bool",
          "name": "",
          "type": "bool"
        }
      ],
      "stateMutability": "view",
      "type": "function"
    },
    {
      "inputs": [
        {
          "internalType": "uint256",
          "name": "",
          "type": "uint256"
        }
      ],
      "name": "APYrecords",
      "outputs": [
        {
          "internalType": "uint256",
          "name": "timeStamp",
          "type": "uint256"
        },
        {
          "internalType": "uint256",
          "name": "periodAPY",
          "type": "uint256"
        }
      ],
      "stateMutability": "view",
      "type": "function"
    },
    {
      "inputs": [],
      "name": "BOUNTY_COMMISSION",
      "outputs": [
        {
          "internalType": "uint256",
          "name": "",
          "type": "uint256"
        }
      ],
      "stateMutability": "view",
      "type": "function"
    },
    {
      "inputs": [],
      "name": "DENOMINATOR",
      "outputs": [
        {
          "internalType": "uint256",
          "name": "",
          "type": "uint256"
        }
      ],
      "stateMutability": "view",
      "type": "function"
    },
    {
      "inputs": [],
      "name": "PERIOD",
      "outputs": [
        {
          "internalType": "uint256",
          "name": "",
          "type": "uint256"
        }
      ],
      "stateMutability": "view",
      "type": "function"
    },
    {
      "inputs": [],
      "name": "PRECISION",
      "outputs": [
        {
          "internalType": "uint256",
          "name": "",
          "type": "uint256"
        }
      ],
      "stateMutability": "view",
      "type": "function"
    },
    {
      "inputs": [],
      "name": "PREMIUM_COMMISSION",
      "outputs": [
        {
          "internalType": "uint256",
          "name": "",
          "type": "uint256"
        }
      ],
      "stateMutability": "view",
      "type": "function"
    },
    {
      "inputs": [],
      "name": "VERSION",
      "outputs": [
        {
          "internalType": "uint256",
          "name": "",
          "type": "uint256"
        }
      ],
      "stateMutability": "view",
      "type": "function"
    },
    {
      "inputs": [],
      "name": "YEAR",
      "outputs": [
        {
          "internalType": "uint256",
          "name": "",
          "type": "uint256"
        }
      ],
      "stateMutability": "view",
      "type": "function"
    },
    {
      "inputs": [
        {
          "internalType": "address",
          "name": "_token",
          "type": "address"
        },
        {
          "internalType": "address",
          "name": "_projectWallet",
          "type": "address"
        }
      ],
      "name": "billPremium",
      "outputs": [
        {
          "internalType": "bool",
          "name": "",
          "type": "bool"
        }
      ],
      "stateMutability": "nonpayable",
      "type": "function"
    },
    {
      "inputs": [
        {
          "internalType": "address",
          "name": "_token",
          "type": "address"
        },
        {
          "internalType": "address",
          "name": "_projectWallet",
          "type": "address"
        },
        {
          "internalType": "uint256",
          "name": "_amount",
          "type": "uint256"
        }
      ],
      "name": "bountyDeposit",
      "outputs": [
        {
          "internalType": "bool",
          "name": "",
          "type": "bool"
        }
      ],
      "stateMutability": "nonpayable",
      "type": "function"
    },
    {
      "inputs": [
        {
          "internalType": "address",
          "name": "_token",
          "type": "address"
        },
        {
          "internalType": "address",
          "name": "_staker",
          "type": "address"
        },
        {
          "internalType": "address",
          "name": "_projectWallet",
          "type": "address"
        }
      ],
      "name": "claimPremium",
      "outputs": [
        {
          "internalType": "uint256",
          "name": "",
          "type": "uint256"
        },
        {
          "internalType": "bool",
          "name": "",
          "type": "bool"
        }
      ],
      "stateMutability": "nonpayable",
      "type": "function"
    },
    {
      "inputs": [
        {
          "internalType": "address",
          "name": "_token",
          "type": "address"
        },
        {
          "internalType": "address",
          "name": "_saloonWallet",
          "type": "address"
        }
      ],
      "name": "collectSaloonPremiumFees",
      "outputs": [
        {
          "internalType": "uint256",
          "name": "",
          "type": "uint256"
        }
      ],
      "stateMutability": "nonpayable",
      "type": "function"
    },
    {
      "inputs": [],
      "name": "desiredAPY",
      "outputs": [
        {
          "internalType": "uint256",
          "name": "",
          "type": "uint256"
        }
      ],
      "stateMutability": "view",
      "type": "function"
    },
    {
      "inputs": [
        {
          "internalType": "address",
          "name": "_manager",
          "type": "address"
        }
      ],
      "name": "initializeImplementation",
      "outputs": [],
      "stateMutability": "nonpayable",
      "type": "function"
    },
    {
      "inputs": [
        {
          "internalType": "address",
          "name": "",
          "type": "address"
        }
      ],
      "name": "lastClaimed",
      "outputs": [
        {
          "internalType": "uint256",
          "name": "",
          "type": "uint256"
        }
      ],
      "stateMutability": "view",
      "type": "function"
    },
    {
      "inputs": [],
      "name": "lastTimePaid",
      "outputs": [
        {
          "internalType": "uint256",
          "name": "",
          "type": "uint256"
        }
      ],
      "stateMutability": "view",
      "type": "function"
    },
    {
      "inputs": [],
      "name": "manager",
      "outputs": [
        {
          "internalType": "address",
          "name": "",
          "type": "address"
        }
      ],
      "stateMutability": "view",
      "type": "function"
    },
    {
      "inputs": [],
      "name": "owner",
      "outputs": [
        {
          "internalType": "address",
          "name": "",
          "type": "address"
        }
      ],
      "stateMutability": "view",
      "type": "function"
    },
    {
      "inputs": [
        {
          "internalType": "address",
          "name": "_token",
          "type": "address"
        },
        {
          "internalType": "address",
          "name": "_saloonWallet",
          "type": "address"
        },
        {
          "internalType": "address",
          "name": "_hunter",
          "type": "address"
        },
        {
          "internalType": "uint256",
          "name": "_amount",
          "type": "uint256"
        }
      ],
      "name": "payBounty",
      "outputs": [
        {
          "internalType": "bool",
          "name": "",
          "type": "bool"
        }
      ],
      "stateMutability": "nonpayable",
      "type": "function"
    },
    {
      "inputs": [],
      "name": "poolCap",
      "outputs": [
        {
          "internalType": "uint256",
          "name": "",
          "type": "uint256"
        }
      ],
      "stateMutability": "view",
      "type": "function"
    },
    {
      "inputs": [],
      "name": "poolCapTimelock",
      "outputs": [
        {
          "internalType": "uint256",
          "name": "timelock",
          "type": "uint256"
        },
        {
          "internalType": "uint256",
          "name": "amount",
          "type": "uint256"
        },
        {
          "internalType": "bool",
          "name": "executed",
          "type": "bool"
        }
      ],
      "stateMutability": "view",
      "type": "function"
    },
    {
      "inputs": [],
      "name": "premiumBalance",
      "outputs": [
        {
          "internalType": "uint256",
          "name": "",
          "type": "uint256"
        }
      ],
      "stateMutability": "view",
      "type": "function"
    },
    {
      "inputs": [],
      "name": "projectDeposit",
      "outputs": [
        {
          "internalType": "uint256",
          "name": "",
          "type": "uint256"
        }
      ],
      "stateMutability": "view",
      "type": "function"
    },
    {
      "inputs": [
        {
          "internalType": "address",
          "name": "_token",
          "type": "address"
        },
        {
          "internalType": "address",
          "name": "_projectWallet",
          "type": "address"
        },
        {
          "internalType": "uint256",
          "name": "_amount",
          "type": "uint256"
        }
      ],
      "name": "projectDepositWithdrawal",
      "outputs": [
        {
          "internalType": "bool",
          "name": "",
          "type": "bool"
        }
      ],
      "stateMutability": "nonpayable",
      "type": "function"
    },
    {
      "inputs": [],
      "name": "renounceOwnership",
      "outputs": [],
      "stateMutability": "nonpayable",
      "type": "function"
    },
    {
      "inputs": [],
      "name": "requiredPremiumBalancePerPeriod",
      "outputs": [
        {
          "internalType": "uint256",
          "name": "",
          "type": "uint256"
        }
      ],
      "stateMutability": "view",
      "type": "function"
    },
    {
      "inputs": [],
      "name": "saloonBountyCommission",
      "outputs": [
        {
          "internalType": "uint256",
          "name": "",
          "type": "uint256"
        }
      ],
      "stateMutability": "view",
      "type": "function"
    },
    {
      "inputs": [],
      "name": "saloonPremiumFees",
      "outputs": [
        {
          "internalType": "uint256",
          "name": "",
          "type": "uint256"
        }
      ],
      "stateMutability": "view",
      "type": "function"
    },
    {
      "inputs": [
        {
          "internalType": "uint256",
          "name": "_newAPY",
          "type": "uint256"
        }
      ],
      "name": "scheduleAPYChange",
      "outputs": [],
      "stateMutability": "nonpayable",
      "type": "function"
    },
    {
      "inputs": [
        {
          "internalType": "uint256",
          "name": "_newPoolCap",
          "type": "uint256"
        }
      ],
      "name": "schedulePoolCapChange",
      "outputs": [],
      "stateMutability": "nonpayable",
      "type": "function"
    },
    {
      "inputs": [
        {
          "internalType": "address",
          "name": "_staker",
          "type": "address"
        },
        {
          "internalType": "uint256",
          "name": "_amount",
          "type": "uint256"
        }
      ],
      "name": "scheduleUnstake",
      "outputs": [
        {
          "internalType": "bool",
          "name": "",
          "type": "bool"
        }
      ],
      "stateMutability": "nonpayable",
      "type": "function"
    },
    {
      "inputs": [
        {
          "internalType": "uint256",
          "name": "_amount",
          "type": "uint256"
        }
      ],
      "name": "scheduleprojectDepositWithdrawal",
      "outputs": [
        {
          "internalType": "bool",
          "name": "",
          "type": "bool"
        }
      ],
      "stateMutability": "nonpayable",
      "type": "function"
    },
    {
      "inputs": [
        {
          "internalType": "address",
          "name": "_token",
          "type": "address"
        },
        {
          "internalType": "address",
          "name": "_projectWallet",
          "type": "address"
        },
        {
          "internalType": "uint256",
          "name": "_desiredAPY",
          "type": "uint256"
        }
      ],
      "name": "setDesiredAPY",
      "outputs": [
        {
          "internalType": "bool",
          "name": "",
          "type": "bool"
        }
      ],
      "stateMutability": "nonpayable",
      "type": "function"
    },
    {
      "inputs": [
        {
          "internalType": "uint256",
          "name": "_amount",
          "type": "uint256"
        }
      ],
      "name": "setPoolCap",
      "outputs": [],
      "stateMutability": "nonpayable",
      "type": "function"
    },
    {
      "inputs": [
        {
          "internalType": "address",
          "name": "_token",
          "type": "address"
        },
        {
          "internalType": "address",
          "name": "_staker",
          "type": "address"
        },
        {
          "internalType": "uint256",
          "name": "_amount",
          "type": "uint256"
        }
      ],
      "name": "stake",
      "outputs": [
        {
          "internalType": "bool",
          "name": "",
          "type": "bool"
        }
      ],
      "stateMutability": "nonpayable",
      "type": "function"
    },
    {
      "inputs": [
        {
          "internalType": "address",
          "name": "",
          "type": "address"
        },
        {
          "internalType": "uint256",
          "name": "",
          "type": "uint256"
        }
      ],
      "name": "staker",
      "outputs": [
        {
          "internalType": "uint256",
          "name": "stakeBalance",
          "type": "uint256"
        },
        {
          "internalType": "uint256",
          "name": "balanceTimeStamp",
          "type": "uint256"
        }
      ],
      "stateMutability": "view",
      "type": "function"
    },
    {
      "inputs": [
        {
          "internalType": "uint256",
          "name": "",
          "type": "uint256"
        }
      ],
      "name": "stakerList",
      "outputs": [
        {
          "internalType": "address",
          "name": "",
          "type": "address"
        }
      ],
      "stateMutability": "view",
      "type": "function"
    },
    {
      "inputs": [
        {
          "internalType": "address",
          "name": "",
          "type": "address"
        }
      ],
      "name": "stakerTimelock",
      "outputs": [
        {
          "internalType": "uint256",
          "name": "timelock",
          "type": "uint256"
        },
        {
          "internalType": "uint256",
          "name": "amount",
          "type": "uint256"
        },
        {
          "internalType": "bool",
          "name": "executed",
          "type": "bool"
        }
      ],
      "stateMutability": "view",
      "type": "function"
    },
    {
      "inputs": [
        {
          "internalType": "uint256",
          "name": "",
          "type": "uint256"
        }
      ],
      "name": "stakersDeposit",
      "outputs": [
        {
          "internalType": "uint256",
          "name": "stakeBalance",
          "type": "uint256"
        },
        {
          "internalType": "uint256",
          "name": "balanceTimeStamp",
          "type": "uint256"
        }
      ],
      "stateMutability": "view",
      "type": "function"
    },
    {
      "inputs": [
        {
          "internalType": "address",
          "name": "newOwner",
          "type": "address"
        }
      ],
      "name": "transferOwnership",
      "outputs": [],
      "stateMutability": "nonpayable",
      "type": "function"
    },
    {
      "inputs": [
        {
          "internalType": "address",
          "name": "_token",
          "type": "address"
        },
        {
          "internalType": "address",
          "name": "_staker",
          "type": "address"
        },
        {
          "internalType": "uint256",
          "name": "_amount",
          "type": "uint256"
        }
      ],
      "name": "unstake",
      "outputs": [
        {
          "internalType": "bool",
          "name": "",
          "type": "bool"
        }
      ],
      "stateMutability": "nonpayable",
      "type": "function"
    },
    {
      "inputs": [],
      "name": "viewBountyBalance",
      "outputs": [
        {
          "internalType": "uint256",
          "name": "",
          "type": "uint256"
        }
      ],
      "stateMutability": "view",
      "type": "function"
    },
    {
      "inputs": [],
      "name": "viewDesiredAPY",
      "outputs": [
        {
          "internalType": "uint256",
          "name": "",
          "type": "uint256"
        }
      ],
      "stateMutability": "view",
      "type": "function"
    },
    {
      "inputs": [],
      "name": "viewHackerPayout",
      "outputs": [
        {
          "internalType": "uint256",
          "name": "",
          "type": "uint256"
        }
      ],
      "stateMutability": "view",
      "type": "function"
    },
    {
      "inputs": [],
      "name": "viewPoolCap",
      "outputs": [
        {
          "internalType": "uint256",
          "name": "",
          "type": "uint256"
        }
      ],
      "stateMutability": "view",
      "type": "function"
    },
    {
      "inputs": [],
      "name": "viewPremiumBalance",
      "outputs": [
        {
          "internalType": "uint256",
          "name": "",
          "type": "uint256"
        }
      ],
      "stateMutability": "view",
      "type": "function"
    },
    {
      "inputs": [],
      "name": "viewProjecDeposit",
      "outputs": [
        {
          "internalType": "uint256",
          "name": "",
          "type": "uint256"
        }
      ],
      "stateMutability": "view",
      "type": "function"
    },
    {
      "inputs": [],
      "name": "viewRequirePremiumBalance",
      "outputs": [
        {
          "internalType": "uint256",
          "name": "",
          "type": "uint256"
        }
      ],
      "stateMutability": "view",
      "type": "function"
    },
    {
      "inputs": [],
      "name": "viewStakersDeposit",
      "outputs": [
        {
          "internalType": "uint256",
          "name": "",
          "type": "uint256"
        }
      ],
      "stateMutability": "view",
      "type": "function"
    },
    {
      "inputs": [
        {
          "internalType": "address",
          "name": "_staker",
          "type": "address"
        }
      ],
      "name": "viewUserStakingBalance",
      "outputs": [
        {
          "internalType": "uint256",
          "name": "",
          "type": "uint256"
        },
        {
          "internalType": "uint256",
          "name": "",
          "type": "uint256"
        }
      ],
      "stateMutability": "view",
      "type": "function"
    },
    {
      "inputs": [
        {
          "internalType": "address",
          "name": "_staker",
          "type": "address"
        }
      ],
      "name": "viewUserTimelock",
      "outputs": [
        {
          "internalType": "uint256",
          "name": "timelock",
          "type": "uint256"
        },
        {
          "internalType": "uint256",
          "name": "amount",
          "type": "uint256"
        },
        {
          "internalType": "bool",
          "name": "executed",
          "type": "bool"
        }
      ],
      "stateMutability": "view",
      "type": "function"
    },
    {
      "inputs": [],
      "name": "viewcurrentAPY",
      "outputs": [
        {
          "internalType": "uint256",
          "name": "",
          "type": "uint256"
        }
      ],
      "stateMutability": "view",
      "type": "function"
    },
    {
      "inputs": [],
      "name": "withdrawalTimelock",
      "outputs": [
        {
          "internalType": "uint256",
          "name": "timelock",
          "type": "uint256"
        },
        {
          "internalType": "uint256",
          "name": "amount",
          "type": "uint256"
        },
        {
          "internalType": "bool",
          "name": "executed",
          "type": "bool"
        }
      ],
      "stateMutability": "view",
      "type": "function"
    }
  ],
  "bytecode": {
    "object": "0x60806040523480156200001157600080fd5b506200001d3362000023565b62000073565b600080546001600160a01b038381166001600160a01b0319831681178455604051919092169283917f8be0079c531659141344cd1fd0a4f28419497f9722a3daafe3b4186f6b6457e09190a35050565b613b9b80620000836000396000f3fe608060405234801561001057600080fd5b506004361061035d5760003560e01c8063769966e8116101d3578063bb86278511610104578063d5cb8669116100a2578063e45080e61161007c578063e45080e61461071f578063f2fde38b14610727578063ff45d4c01461073a578063ffa1ad741461074257600080fd5b8063d5cb8669146106f1578063d835f535146106f9578063ddaaae031461070c57600080fd5b8063c9e66d41116100de578063c9e66d411461068e578063cc12c311146106c3578063d084b03a146106d6578063d26c90a9146106de57600080fd5b8063bb8627851461068e578063bf6eac2f1461069d578063c790ef82146106b057600080fd5b8063918f867411610171578063a4bf70bd1161014b578063a4bf70bd1461066a578063aaf5eb6814610673578063b4d1d7951461067b578063b954dc571461068557600080fd5b8063918f8674146106345780639e4bfaa514610644578063a194c3b61461065757600080fd5b806383914540116101ad57806383914540146105fc57806384dc10b4146106075780638aa82e82146106105780638da5cb5b1461062357600080fd5b8063769966e8146105ad57806378eb46fd146105df57806380d440ff146105e757600080fd5b8063419b7bd7116102ad578063503cb9171161024b578063715018a611610225578063715018a614610574578063728ecaf81461057c57806372d269511461059157806373927c111461059a57600080fd5b8063503cb9171461053b5780635121ac9d1461054e57806360829f8a1461056157600080fd5b80634a94bcb3116102875780634a94bcb3146105025780634b5df6cc1461050a5780634b8e0d371461051d5780634c3bdee01461053257600080fd5b8063419b7bd7146104d357806344ebc03d146104e6578063481c6a75146104ef57600080fd5b80632d7807a91161031a578063348e50c6116102f4578063348e50c61461048a578063383639b3146104b55780633a5b0172146104bd5780633d850fb2146104ca57600080fd5b80632d7807a9146104085780633065f4501461043f5780633147096d1461046757600080fd5b8063013eba92146103625780631104ec251461039557806316e17b8d1461039e5780631a89cabd146103a65780631e27970f146103ce57806320d8308614610400575b600080fd5b6103826103703660046137ed565b600a6020526000908152604090205481565b6040519081526020015b60405180910390f35b61038260075481565b61038261074a565b6103b96103b43660046137ed565b610802565b6040805192835260208301919091520161038c565b6013546014546015546103e392919060ff1683565b60408051938452602084019290925215159082015260600161038c565b600454610382565b6103e36104163660046137ed565b6001600160a01b03166000908152600c6020526040902080546002909101549091829160ff1690565b61045261044d366004613808565b6108c1565b6040805192835290151560208301520161038c565b61047a61047536600461384b565b610aa1565b604051901515815260200161038c565b61049d610498366004613887565b610b07565b6040516001600160a01b03909116815260200161038c565b600854610382565b601c5461047a9060ff1681565b61038260035481565b61047a6104e136600461384b565b610b31565b61038260045481565b60015461049d906001600160a01b031681565b610382610c16565b61047a610518366004613887565b610d10565b61053061052b3660046137ed565b610d65565b005b61038260095481565b610530610549366004613887565b610ea5565b61038261055c3660046138a0565b610eee565b61047a61056f36600461384b565b610f41565b61053061138f565b6010546011546012546103e392919060ff1683565b61038260085481565b61047a6105a83660046138d3565b6113a3565b6103e36105bb3660046137ed565b600c6020526000908152604090208054600182015460029092015490919060ff1683565b600554610382565b600d54600e54600f546103e392919060ff1683565b6103826301e1338081565b61038260055481565b61047a61061e3660046138a0565b611994565b6000546001600160a01b031661049d565b61038268056bc75e2d6310000081565b6103b961065236600461391e565b611ccc565b6103b9610665366004613887565b611d08565b61038260025481565b610382606481565b6103826212750081565b61038260065481565b610382678ac7230489e8000081565b61047a6106ab36600461384b565b611d36565b61047a6106be36600461391e565b6121ca565b61047a6106d136600461384b565b612335565b600954610382565b6105306106ec366004613887565b612774565b6103826127bd565b610530610707366004613887565b6127dc565b6103b961071a366004613887565b612891565b6103826128a1565b6105306107353660046137ed565b61295b565b600654610382565b610382600181565b6000806018805480602002602001604051908101604052809291908181526020016000905b828210156107b55783829060005260206000209060020201604051806040016040529081600082015481526020016001820154815250508152602001906001019061076f565b505082519293505050806107cc5760009250505090565b60186107d960018361395e565b815481106107e9576107e9613975565b9060005260206000209060020201600001549250505090565b6001600160a01b0381166000908152600b602052604081205481908061082e5750600093849350915050565b6001600160a01b0384166000908152600b6020526040902061085160018361395e565b8154811061086157610861613975565b600091825260208083206002909202909101546001600160a01b0387168352600b909152604090912061089560018461395e565b815481106108a5576108a5613975565b9060005260206000209060020201600101549250925050915091565b60015460009081906001600160a01b031633146108f95760405162461bcd60e51b81526004016108f09061398b565b60405180910390fd5b6001600160a01b0384166000908152600a6020908152604080832054600b83528184208054835181860281018601909452808452919493909190849084015b8282101561097e57838290600052602060002090600202016040518060400160405290816000820154815260200160018201548152505081526020019060010190610938565b505082516004549394509291506000905061099a8585856129d4565b9050600068056bc75e2d631000006109ba678ac7230489e80000846139b9565b6109c491906139d8565b90506109d0818361395e565b915081808410156109e7576109e58c8b611994565b505b60405163a9059cbb60e01b81526001600160a01b038c81166004830152602482018390528d169063a9059cbb906044016020604051808303816000875af1158015610a36573d6000803e3d6000fd5b505050506040513d601f19601f82011682018060405250810190610a5a91906139fa565b508260046000828254610a6d919061395e565b90915550506001600160a01b038b166000908152600a60205260409020429055975060019650505050505050935093915050565b6001546000906001600160a01b03163314610ace5760405162461bcd60e51b81526004016108f09061398b565b610ae36001600160a01b038516843085612a5d565b508160086000828254610af69190613a1c565b9091555060019150505b9392505050565b60168181548110610b1757600080fd5b6000918252602090912001546001600160a01b0316905081565b6001546000906001600160a01b03163314610b5e5760405162461bcd60e51b81526004016108f09061398b565b60408051606081018252601354808252601454602083015260155460ff161515928201929092529042118015610b9657506040810151155b8015610ba6575082816020015110155b8015610bb25750805115155b610bce5760405162461bcd60e51b81526004016108f090613a34565b6015805460ff1916600117905560088054849190600090610bf090849061395e565b90915550610c0a90506001600160a01b0386168585612ad6565b50600195945050505050565b6000806018805480602002602001604051908101604052809291908181526020016000905b82821015610c8157838290600052602060002090600202016040518060400160405290816000820154815260200160018201548152505081526020019060010190610c3b565b50508251929350600091505081610c9b5750600854610cd3565b82610ca760018461395e565b81518110610cb757610cb7613975565b602002602001015160000151600854610cd09190613a1c565b90505b600068056bc75e2d63100000610cf1678ac7230489e80000846139b9565b610cfb91906139d8565b9050610d07818361395e565b94505050505090565b6001546000906001600160a01b03163314610d3d5760405162461bcd60e51b81526004016108f09061398b565b610d4a6212750042613a1c565b6013555060148190556015805460ff1916905560015b919050565b600054600160a81b900460ff1615808015610d8d57506000546001600160a01b90910460ff16105b80610dae5750303b158015610dae5750600054600160a01b900460ff166001145b610e115760405162461bcd60e51b815260206004820152602e60248201527f496e697469616c697a61626c653a20636f6e747261637420697320616c72656160448201526d191e481a5b9a5d1a585b1a5e995960921b60648201526084016108f0565b6000805460ff60a01b1916600160a01b1790558015610e3e576000805460ff60a81b1916600160a81b1790555b600180546001600160a01b0319166001600160a01b0384161790558015610ea1576000805460ff60a81b19169055604051600181527f7f26b83ff96e1f2b6a682f133852f6798a09c465da95921460cefb38474024989060200160405180910390a15b5050565b6001546001600160a01b03163314610ecf5760405162461bcd60e51b81526004016108f09061398b565b610edc6212750042613a1c565b6010556011556012805460ff19169055565b6001546000906001600160a01b03163314610f1b5760405162461bcd60e51b81526004016108f09061398b565b600354610f326001600160a01b0385168483612ad6565b50600060035590505b92915050565b6001546000906001600160a01b03163314610f6e5760405162461bcd60e51b81526004016108f09061398b565b600554151580610f855750601c5460ff1615156001145b15610b00576001600160a01b0383166000908152600c60209081526040918290208251606081018452815480825260018301549382019390935260029091015460ff1615159281019290925242118015610fe157506040810151155b8015610ff1575082816020015110155b8015610ffd5750805115155b6110195760405162461bcd60e51b81526004016108f090613a34565b6001600160a01b0384166000908152600c60209081526040808320600201805460ff19166001908117909155600b909252822054611057919061395e565b9050611076604051806040016040528060008152602001600081525090565b426020808301919091526001600160a01b0387166000908152600b909152604090208054869190849081106110ad576110ad613975565b9060005260206000209060020201600001546110c9919061395e565b815260168054604080516020808402820181019092528281526000939092909183018282801561112257602002820191906000526020600020905b81546001600160a01b03168152600190910190602001808311611104575b5050505050905081600001516000141561122457805160005b8181101561122157886001600160a01b031683828151811061115f5761115f613975565b60200260200101516001600160a01b031614156112195760008361118460018561395e565b8151811061119457611194613975565b6020026020010151905080601683815481106111b2576111b2613975565b9060005260206000200160006101000a8154816001600160a01b0302191690836001600160a01b0316021790555060168054806111f1576111f1613a75565b600082815260209020810160001990810180546001600160a01b031916905501905550611221565b60010161113b565b50505b6001600160a01b0387166000908152600b60209081526040808320805460018181018355918552838520875160029092020190815586840151910155601880548251818502810185019093528083529192909190849084015b828210156112c35783829060005260206000209060020201604051806040016040529081600082015481526020016001820154815250508152602001906001019061127d565b5050505090506000600182516112d9919061395e565b90506112f8604051806040016040528060008152602001600081525090565b8883838151811061130b5761130b613975565b602002602001015160000151611321919061395e565b81524260208201908152601880546001810182556000919091528251600080516020613b468339815191526002909202918201559051600080516020613b268339815191529091015561137e6001600160a01b038c168b8b612ad6565b506001975050505050505050610b00565b611397612b13565b6113a16000612b6d565b565b6001546000906001600160a01b031633146113d05760405162461bcd60e51b81526004016108f09061398b565b60006018805480602002602001604051908101604052809291908181526020016000905b8282101561143a578382906000526020600020906002020160405180604001604052908160008201548152602001600182015481525050815260200190600101906113f4565b505050509050600060018251611450919061395e565b9050600060168054806020026020016040519081016040528092919081815260200182805480156114aa57602002820191906000526020600020905b81546001600160a01b0316815260019091019060200180831161148c575b50505050509050600081519050858484815181106114ca576114ca613975565b6020026020010151600001511061182a57858484815181106114ee576114ee613975565b6020026020010151600001818151611506919061395e565b9052506040805180820190915260008152426020820152845185908590811061153157611531613975565b6020908102919091010151518152845185908590811061155357611553613975565b6020026020010151600001516000141561165d5760005b828110156115f457604080518082019091526000808252426020830152855186908490811061159b5761159b613975565b6020908102919091018101516001600160a01b03166000908152600b8252604081208054600181810183559183529183902085516002909302019182559390910151920191909155506115ed81613a8b565b905061156a565b506116018a898b8a612bbd565b506018805460018101825560009182528251600080516020613b468339815191526002909202918201556020830151600080516020613b268339815191529091015561164f906016906137a4565b60019550505050505061198c565b600085858151811061167157611671613975565b60200260200101516000015160648961168a91906139b9565b61169491906139d8565b905060005b838110156117cb5760008582815181106116b5576116b5613975565b6020908102919091018101516001600160a01b0381166000908152600b90925260408220549092506116e99060019061395e565b6001600160a01b0383166000908152600b60205260408120805492935090918390811061171857611718613975565b9060005260206000209060020201600001549050611749604051806040016040528060008152602001600081525090565b42602082015268056bc75e2d6310000061176387846139b9565b61176d91906139d8565b611777908361395e565b81526001600160a01b039093166000908152600b602090815260408220805460018181018355918452928290208651600290940201928355940151930192909255506117c4905081613a8b565b9050611699565b50601880546001810182556000919091528251600080516020613b468339815191526002909202918201556020830151600080516020613b268339815191529091015561181a8b8a8c8b612bbd565b506001965050505050505061198c565b60005b818110156118b757604080518082019091526000808252426020830152845185908490811061185e5761185e613975565b6020908102919091018101516001600160a01b03166000908152600b8252604081208054600181810183559183529183902085516002909302019182559390910151920191909155506118b081613a8b565b905061182d565b506118c4601660006137a4565b60008484815181106118d8576118d8613975565b602002602001015160000151876118ef919061395e565b90508060086000828254611903919061395e565b90915550506040805180820190915260008152426020820152855186908690811061193057611930613975565b602090810291909101810151518252601880546001810182556000919091528251600080516020613b4683398151915260029092029182015590820151600080516020613b268339815191529091015561181a8b8a8c8b612bbd565b949350505050565b6001546000906001600160a01b03163314806119af57503330145b6119fb5760405162461bcd60e51b815260206004820152601c60248201527f4f6e6c79206d616e61676572206f722073656c6620616c6c6f7765640000000060448201526064016108f0565b60006018805480602002602001604051908101604052809291908181526020016000905b82821015611a6557838290600052602060002090600202016040518060400160405290816000820154815260200160018201548152505081526020019060010190611a1f565b50508251600754600554949550909390925090506000611a8782858588612c2d565b6040516323b872dd60e01b81526001600160a01b03898116600483015230602483015260448201839052919250908916906323b872dd906064016020604051808303816000875af1925050508015611afc575060408051601f3d908101601f19168201909252611af9918101906139fa565b60015b611bae576040805180820190915260006020820152428152611b1c6127bd565b6020820190815260178054600181018255600091825283517fc624b66cc0138b8fabc209247f72d758e1cf3343756d543badbf24212bed8c1560029092029182015591517fc624b66cc0138b8fabc209247f72d758e1cf3343756d543badbf24212bed8c1690920191909155611b906127bd565b9050611b9d8a8a83612335565b506000975050505050505050610f3b565b80611c54576040805180820190915260006020820152428152611bcf6127bd565b6020820190815260178054600181018255600091825283517fc624b66cc0138b8fabc209247f72d758e1cf3343756d543badbf24212bed8c1560029092029182015591517fc624b66cc0138b8fabc209247f72d758e1cf3343756d543badbf24212bed8c1690920191909155611c436127bd565b9050611c508b8b83612335565b5050505b50600068056bc75e2d63100000611c73678ac7230489e80000846139b9565b611c7d91906139d8565b90508060036000828254611c919190613a1c565b925050819055508160046000828254611caa9190613a1c565b9091555050426007555050601c805460ff191690555060019695505050505050565b600b6020528160005260406000208181548110611ce857600080fd5b600091825260209091206002909102018054600190910154909250905082565b60188181548110611d1857600080fd5b60009182526020909120600290910201805460019091015490915082565b6001546000906001600160a01b03163314611d635760405162461bcd60e51b81526004016108f09061398b565b60006018805480602002602001604051908101604052809291908181526020016000905b82821015611dcd57838290600052602060002090600202016040518060400160405290816000820154815260200160018201548152505081526020019060010190611d87565b50508251929350505080611e2d57604080518082019091526000808252602082018181526018805460018101825592529151600080516020613b468339815191526002909202918201559051600080516020613b26833981519152909101555b601854600090611e3f9060019061395e565b90506006548560188381548110611e5857611e58613975565b906000526020600020906002020160000154611e749190613a1c565b1115611ec25760405162461bcd60e51b815260206004820152601960248201527f5374616b696e6720506f6f6c20616c72656164792066756c6c0000000000000060448201526064016108f0565b6001600160a01b0386166000908152600b602052604090205480611f2c57604080518082018252600080825260208083018281526001600160a01b038c168352600b8252938220805460018082018355918452919092209251600290910290920191825591519101555b6001600160a01b0387166000908152600b6020526040812054611f519060019061395e565b6001600160a01b0389166000908152600b6020526040902080549192509082908110611f7f57611f7f613975565b90600052602060002090600202016000015460001415611fe557601680546001810182556000919091527fd833147d7dc355ba459fc788f669e58cfaf9dc25ddcd0702e87d69c7b51242890180546001600160a01b0319166001600160a01b038a161790555b6040805180820182526000808252426020808401919091526001600160a01b038c168252600b90529190912080548991908490811061202657612026613975565b9060005260206000209060020201600001546120429190613a1c565b81528261209a576001600160a01b0389166000908152600b6020526040902080548291908490811061207657612076613975565b600091825260209182902083516002909202019081559101516001909101556120d7565b6001600160a01b0389166000908152600b602090815260408220805460018181018355918452928290208451600290940201928355908301519101555b604080518082019091526000808252602082015288601886815481106120ff576120ff613975565b90600052602060002090600202016000015461211b9190613a1c565b81524260208201528561216057806018868154811061213c5761213c613975565b600091825260209182902083516002909202019081559101516001909101556121a3565b601880546001810182556000919091528151600080516020613b468339815191526002909202918201556020820151600080516020613b26833981519152909101555b6121b86001600160a01b038c168b308c612a5d565b5060019b9a5050505050505050505050565b6001546000906001600160a01b031633146121f75760405162461bcd60e51b81526004016108f09061398b565b6001600160a01b0383166000908152600b6020908152604080832080548251818502810185019093528083529192909190849084015b828210156122735783829060005260206000209060020201604051806040016040529081600082015481526020016001820154815250508152602001906001019061222d565b505050509050600060018251612289919061395e565b90508382828151811061229e5761229e613975565b60200260200101516000015110156122ef5760405162461bcd60e51b8152602060048201526014602482015273496e73756669636369656e742062616c616e636560601b60448201526064016108f0565b6122fc6212750042613a1c565b6001600160a01b03959095166000908152600c602052604090209485555050506001808301919091556002909101805460ff1916905590565b6001546000906001600160a01b031633148061235057503330145b61239c5760405162461bcd60e51b815260206004820152601c60248201527f4f6e6c79206d616e61676572206f722073656c6620616c6c6f7765640000000060448201526064016108f0565b600554156124225760408051606081018252601054808252601154602083015260125460ff1615159282019290925290421180156123dc57506040810151155b80156123eb5750828160200151145b80156123f75750805115155b6124135760405162461bcd60e51b81526004016108f090613a34565b506012805460ff191660011790555b600060045490506000806018805480602002602001604051908101604052809291908181526020016000905b828210156124945783829060005260206000209060020201604051806040016040529081600082015481526020016001820154815250508152602001906001019061244e565b5050825192935050811590506124e457816124b060018361395e565b815181106124c0576124c0613975565b6020026020010151600001516000146124df576124dd8888611994565b505b61256a565b621275006301e1338068056bc75e2d631000008860065461250591906139b9565b61250f91906139d8565b61251991906139d8565b61252391906139b9565b92508284101561256a576000612539858561395e565b90506125506001600160a01b038a16893084612a5d565b5080600460008282546125639190613a1c565b9091555050505b6009839055604080518082018252428152602080820189815260178054600181018255600091825284517fc624b66cc0138b8fabc209247f72d758e1cf3343756d543badbf24212bed8c1560029092029182015591517fc624b66cc0138b8fabc209247f72d758e1cf3343756d543badbf24212bed8c169092019190915560058a90556016805485518185028101850190965280865293949193919290919083018282801561264257602002820191906000526020600020905b81546001600160a01b03168152600190910190602001808311612624575b5050505050905060008151111561275a57600060018251612663919061395e565b905060005b8181101561275757600083828151811061268457612684613975565b6020908102919091018101516001600160a01b0381166000908152600b90925260408220549092506126b89060019061395e565b90506126d7604051806040016040528060008152602001600081525090565b6001600160a01b0383166000908152600b6020526040902080548390811061270157612701613975565b60009182526020808320600292830201548452428482019081526001600160a01b039096168352600b81526040832080546001818101835591855291909320935191029092019182559251908301555001612668565b50505b5050601c805460ff19169055506001979650505050505050565b6001546001600160a01b0316331461279e5760405162461bcd60e51b81526004016108f09061398b565b6127ab6212750042613a1c565b600d55600e55600f805460ff19169055565b60008060065460646004546127d291906139b9565b610f3b91906139d8565b6001546001600160a01b031633146128065760405162461bcd60e51b81526004016108f09061398b565b6006541561288c5760408051606081018252600d54808252600e546020830152600f5460ff16151592820192909252904211801561284657506040810151155b80156128555750818160200151145b80156128615750805115155b61287d5760405162461bcd60e51b81526004016108f090613a34565b50600f805460ff191660011790555b600655565b60178181548110611d1857600080fd5b6000806018805480602002602001604051908101604052809291908181526020016000905b8282101561290c578382906000526020600020906002020160405180604001604052908160008201548152602001600182015481525050815260200190600101906128c6565b505082519293506000915050816129265750600854610b00565b8261293260018461395e565b8151811061294257612942613975565b60200260200101516000015160085461198c9190613a1c565b612963612b13565b6001600160a01b0381166129c85760405162461bcd60e51b815260206004820152602660248201527f4f776e61626c653a206e6577206f776e657220697320746865207a65726f206160448201526564647265737360d01b60648201526084016108f0565b6129d181612b6d565b50565b6000806017805480602002602001604051908101604052809291908181526020016000905b82821015612a3f578382906000526020600020906002020160405180604001604052908160008201548152602001600182015481525050815260200190600101906129f9565b5050505090506000612a5386868685613019565b9695505050505050565b6040516001600160a01b0380851660248301528316604482015260648101829052600090612acb9086906323b872dd60e01b906084015b60408051601f198184030181529190526020810180516001600160e01b03166001600160e01b031990931692909217909152613315565b506001949350505050565b6040516001600160a01b038316602482015260448101829052600090612b0990859063a9059cbb60e01b90606401612a94565b5060019392505050565b6000546001600160a01b031633146113a15760405162461bcd60e51b815260206004820181905260248201527f4f776e61626c653a2063616c6c6572206973206e6f7420746865206f776e657260448201526064016108f0565b600080546001600160a01b038381166001600160a01b0319831681178455604051919092169283917f8be0079c531659141344cd1fd0a4f28419497f9722a3daafe3b4186f6b6457e09190a35050565b60008068056bc75e2d63100000612bdc678ac7230489e80000856139b9565b612be691906139d8565b90506000612bf4828561395e565b9050612c0a6001600160a01b0388168783612ad6565b50612c1f6001600160a01b0388168684612ad6565b506001979650505050505050565b60008060005b85811015612ca65784848281518110612c4e57612c4e613975565b6020026020010151602001511115612c9657601a80546001810182556000919091527f057c384a7d1c54f3a1b2e5e67b2617b8224fdfd1ea7234eea573a6ff665ff63e018190555b612c9f81613a8b565b9050612c33565b506000601a805480602002602001604051908101604052809291908181526020018280548015612cf557602002820191906000526020600020905b815481526020019060010190808311612ce1575b505083519394506000925050505b8181101561300057600087612df157612d1d60018461395e565b821415612d6d5786848381518110612d3757612d37613975565b602002602001015181518110612d4f57612d4f613975565b60200260200101516020015142612d66919061395e565b9050612f72565b86848381518110612d8057612d80613975565b602002602001015181518110612d9857612d98613975565b6020026020010151602001518785846001612db39190613a1c565b81518110612dc357612dc3613975565b602002602001015181518110612ddb57612ddb613975565b602002602001015160200151612d66919061395e565b81612ec65786848381518110612e0957612e09613975565b602002602001015181518110612e2157612e21613975565b6020026020010151602001518785846001612e3c9190613a1c565b81518110612e4c57612e4c613975565b602002602001015181518110612e6457612e64613975565b602002602001015160200151612e7a919061395e565b87858481518110612e8d57612e8d613975565b602002602001015181518110612ea557612ea5613975565b60200260200101516020015189612ebc919061395e565b612d669190613a1c565b612ed160018461395e565b821415612eeb5786848381518110612d3757612d37613975565b86848381518110612efe57612efe613975565b602002602001015181518110612f1657612f16613975565b6020026020010151602001518785846001612f319190613a1c565b81518110612f4157612f41613975565b602002602001015181518110612f5957612f59613975565b602002602001015160200151612f6f919061395e565b90505b806301e1338068056bc75e2d631000008c8a888781518110612f9657612f96613975565b602002602001015181518110612fae57612fae613975565b602002602001015160000151612fc491906139b9565b612fce91906139d8565b612fd891906139d8565b612fe291906139b9565b612fec9086613a1c565b94505080612ff990613a8b565b9050612d03565b5061300d601a60006137a4565b50909695505050505050565b8051600090818080886130eb5760005b848110156130e55786818151811061304357613043613975565b602002602001015160000151925060018561305e919061395e565b81141561306d57429150613098565b86613079826001613a1c565b8151811061308957613089613975565b60200260200101516000015191505b60008782815181106130ac576130ac613975565b60200260200101516020015190506130c78185858d8d6133ec565b6130d19086613a1c565b945050806130de90613a8b565b9050613029565b50613308565b60005b84811015613194578987828151811061310957613109613975565b602002602001015160000151111561318457601961312860018361395e565b815460018181018455600093845260209093200155613147908661395e565b81141561318457601980546001810182556000919091527f944998273e477b495144fb8794c914197f3ccb46be2900f4698fd0ef743c9695018190555b61318d81613a8b565b90506130ee565b50600060198054806020026020016040519081016040528092919081815260200182805480156131e357602002820191906000526020600020905b8154815260200190600101908083116131cf575b505083519394506000925050505b818110156133045780613206578b9450613240565b8883828151811061321957613219613975565b60200260200101518151811061323157613231613975565b60200260200101516000015194505b61324b60018861395e565b81141561325a5742935061329e565b8883613267836001613a1c565b8151811061327757613277613975565b60200260200101518151811061328f5761328f613975565b60200260200101516000015193505b6000898483815181106132b3576132b3613975565b6020026020010151815181106132cb576132cb613975565b60200260200101516020015190506132e68187878f8f6133ec565b6132f09088613a1c565b965050806132fd90613a8b565b90506131f1565b5050505b5090979650505050505050565b600061336a826040518060400160405280602081526020017f5361666545524332303a206c6f772d6c6576656c2063616c6c206661696c6564815250856001600160a01b03166136849092919063ffffffff16565b8051909150156133e7578080602001905181019061338891906139fa565b6133e75760405162461bcd60e51b815260206004820152602a60248201527f5361666545524332303a204552433230206f7065726174696f6e20646964206e6044820152691bdd081cdd58d8d9595960b21b60648201526084016108f0565b505050565b6000806000805b8481101561348f578786828151811061340e5761340e613975565b6020026020010151602001511015801561344457508686828151811061343657613436613975565b602002602001015160200151105b1561347f57601b80546001810182556000919091527f3ad8aa4f87544323a9d1e5dd902f40c356527a7955687113db5f9a85ad579dc1018190555b61348881613a8b565b90506133f3565b506000601b8054806020026020016040519081016040528092919081815260200182805480156134de57602002820191906000526020600020905b8154815260200190600101908083116134ca575b505083519394506000925050505b81811015613668576134ff60018361395e565b81141561354f578783828151811061351957613519613975565b60200260200101518151811061353157613531613975565b60200260200101516020015189613548919061395e565b93506135d6565b8783828151811061356257613562613975565b60200260200101518151811061357a5761357a613975565b60200260200101516020015188848360016135959190613a1c565b815181106135a5576135a5613975565b6020026020010151815181106135bd576135bd613975565b6020026020010151602001516135d3919061395e565b93505b6000846301e1338068056bc75e2d631000008e8c8887815181106135fc576135fc613975565b60200260200101518151811061361457613614613975565b60200260200101516000015161362a91906139b9565b61363491906139d8565b61363e91906139d8565b61364891906139b9565b90506136548187613a1c565b9550508061366190613a8b565b90506134ec565b505050601b600061367991906137a4565b509695505050505050565b606061198c848460008585600080866001600160a01b031685876040516136ab9190613ad6565b60006040518083038185875af1925050503d80600081146136e8576040519150601f19603f3d011682016040523d82523d6000602084013e6136ed565b606091505b50915091506136fe87838387613709565b979650505050505050565b6060831561377557825161376e576001600160a01b0385163b61376e5760405162461bcd60e51b815260206004820152601d60248201527f416464726573733a2063616c6c20746f206e6f6e2d636f6e747261637400000060448201526064016108f0565b508161198c565b61198c838381511561378a5781518083602001fd5b8060405162461bcd60e51b81526004016108f09190613af2565b50805460008255906000526020600020908101906129d191905b808211156137d257600081556001016137be565b5090565b80356001600160a01b0381168114610d6057600080fd5b6000602082840312156137ff57600080fd5b610b00826137d6565b60008060006060848603121561381d57600080fd5b613826846137d6565b9250613834602085016137d6565b9150613842604085016137d6565b90509250925092565b60008060006060848603121561386057600080fd5b613869846137d6565b9250613877602085016137d6565b9150604084013590509250925092565b60006020828403121561389957600080fd5b5035919050565b600080604083850312156138b357600080fd5b6138bc836137d6565b91506138ca602084016137d6565b90509250929050565b600080600080608085870312156138e957600080fd5b6138f2856137d6565b9350613900602086016137d6565b925061390e604086016137d6565b9396929550929360600135925050565b6000806040838503121561393157600080fd5b61393a836137d6565b946020939093013593505050565b634e487b7160e01b600052601160045260246000fd5b60008282101561397057613970613948565b500390565b634e487b7160e01b600052603260045260246000fd5b60208082526014908201527313db9b1e481b585b9859d95c88185b1b1bddd95960621b604082015260600190565b60008160001904831182151516156139d3576139d3613948565b500290565b6000826139f557634e487b7160e01b600052601260045260246000fd5b500490565b600060208284031215613a0c57600080fd5b81518015158114610b0057600080fd5b60008219821115613a2f57613a2f613948565b500190565b60208082526021908201527f54696d656c6f636b206e6f7420736574206f72206e6f7420636f6d706c6574656040820152601960fa1b606082015260800190565b634e487b7160e01b600052603160045260246000fd5b6000600019821415613a9f57613a9f613948565b5060010190565b60005b83811015613ac1578181015183820152602001613aa9565b83811115613ad0576000848401525b50505050565b60008251613ae8818460208701613aa6565b9190910192915050565b6020815260008251806020840152613b11816040850160208701613aa6565b601f01601f1916919091016040019291505056feb13d2d76d1f4b7be834882e410b3e3a8afaf69f83600ae24db354391d2378d2fb13d2d76d1f4b7be834882e410b3e3a8afaf69f83600ae24db354391d2378d2ea2646970667358221220c2d71bd916193e33c9df5223b0fb7f4ae12bb8bada23b3b45a33beb72912220a64736f6c634300080a0033",
    "linkReferences": {}
  },
  "methodIdentifiers": {
    "APYTimelock()": "728ecaf8",
    "APYdropped()": "3a5b0172",
    "APYrecords(uint256)": "ddaaae03",
    "BOUNTY_COMMISSION()": "c9e66d41",
    "DENOMINATOR()": "918f8674",
    "PERIOD()": "b4d1d795",
    "PRECISION()": "aaf5eb68",
    "PREMIUM_COMMISSION()": "bb862785",
    "VERSION()": "ffa1ad74",
    "YEAR()": "83914540",
    "billPremium(address,address)": "8aa82e82",
    "bountyDeposit(address,address,uint256)": "3147096d",
    "claimPremium(address,address,address)": "3065f450",
    "collectSaloonPremiumFees(address,address)": "5121ac9d",
    "desiredAPY()": "84dc10b4",
    "initializeImplementation(address)": "4b8e0d37",
    "lastClaimed(address)": "013eba92",
    "lastTimePaid()": "1104ec25",
    "manager()": "481c6a75",
    "owner()": "8da5cb5b",
    "payBounty(address,address,address,uint256)": "73927c11",
    "poolCap()": "b954dc57",
    "poolCapTimelock()": "80d440ff",
    "premiumBalance()": "44ebc03d",
    "projectDeposit()": "72d26951",
    "projectDepositWithdrawal(address,address,uint256)": "419b7bd7",
    "renounceOwnership()": "715018a6",
    "requiredPremiumBalancePerPeriod()": "4c3bdee0",
    "saloonBountyCommission()": "a4bf70bd",
    "saloonPremiumFees()": "3d850fb2",
    "scheduleAPYChange(uint256)": "503cb917",
    "schedulePoolCapChange(uint256)": "d26c90a9",
    "scheduleUnstake(address,uint256)": "c790ef82",
    "scheduleprojectDepositWithdrawal(uint256)": "4b5df6cc",
    "setDesiredAPY(address,address,uint256)": "cc12c311",
    "setPoolCap(uint256)": "d835f535",
    "stake(address,address,uint256)": "bf6eac2f",
    "staker(address,uint256)": "9e4bfaa5",
    "stakerList(uint256)": "348e50c6",
    "stakerTimelock(address)": "769966e8",
    "stakersDeposit(uint256)": "a194c3b6",
    "transferOwnership(address)": "f2fde38b",
    "unstake(address,address,uint256)": "60829f8a",
    "viewBountyBalance()": "e45080e6",
    "viewDesiredAPY()": "78eb46fd",
    "viewHackerPayout()": "4a94bcb3",
    "viewPoolCap()": "ff45d4c0",
    "viewPremiumBalance()": "20d83086",
    "viewProjecDeposit()": "383639b3",
    "viewRequirePremiumBalance()": "d084b03a",
    "viewStakersDeposit()": "16e17b8d",
    "viewUserStakingBalance(address)": "1a89cabd",
    "viewUserTimelock(address)": "2d7807a9",
    "viewcurrentAPY()": "d5cb8669",
    "withdrawalTimelock()": "1e27970f"
  },
  "id": 29
}