{
  "abi": [
    {
      "anonymous": false,
      "inputs": [
        {
          "indexed": false,
          "internalType": "uint8",
          "name": "version",
          "type": "uint8"
        }
      ],
      "name": "Initialized",
      "type": "event"
    },
    {
      "anonymous": false,
      "inputs": [
        {
          "indexed": true,
          "internalType": "address",
          "name": "previousOwner",
          "type": "address"
        },
        {
          "indexed": true,
          "internalType": "address",
          "name": "newOwner",
          "type": "address"
        }
      ],
      "name": "OwnershipTransferred",
      "type": "event"
    },
    {
      "inputs": [],
      "name": "APYdropped",
      "outputs": [
        {
          "internalType": "bool",
          "name": "",
          "type": "bool"
        }
      ],
      "stateMutability": "view",
      "type": "function"
    },
    {
      "inputs": [
        {
          "internalType": "uint256",
          "name": "",
          "type": "uint256"
        }
      ],
      "name": "APYrecords",
      "outputs": [
        {
          "internalType": "uint256",
          "name": "timeStamp",
          "type": "uint256"
        },
        {
          "internalType": "uint256",
          "name": "periodAPY",
          "type": "uint256"
        }
      ],
      "stateMutability": "view",
      "type": "function"
    },
    {
      "inputs": [],
      "name": "BOUNTY_COMMISSION",
      "outputs": [
        {
          "internalType": "uint256",
          "name": "",
          "type": "uint256"
        }
      ],
      "stateMutability": "view",
      "type": "function"
    },
    {
      "inputs": [],
      "name": "DENOMINATOR",
      "outputs": [
        {
          "internalType": "uint256",
          "name": "",
          "type": "uint256"
        }
      ],
      "stateMutability": "view",
      "type": "function"
    },
    {
      "inputs": [],
      "name": "PREMIUM_COMMISSION",
      "outputs": [
        {
          "internalType": "uint256",
          "name": "",
          "type": "uint256"
        }
      ],
      "stateMutability": "view",
      "type": "function"
    },
    {
      "inputs": [],
      "name": "VERSION",
      "outputs": [
        {
          "internalType": "uint256",
          "name": "",
          "type": "uint256"
        }
      ],
      "stateMutability": "view",
      "type": "function"
    },
    {
      "inputs": [],
      "name": "YEAR",
      "outputs": [
        {
          "internalType": "uint256",
          "name": "",
          "type": "uint256"
        }
      ],
      "stateMutability": "view",
      "type": "function"
    },
    {
      "inputs": [
        {
          "internalType": "address",
          "name": "_staker",
          "type": "address"
        },
        {
          "internalType": "uint256",
          "name": "_amount",
          "type": "uint256"
        }
      ],
      "name": "askForUnstake",
      "outputs": [
        {
          "internalType": "bool",
          "name": "",
          "type": "bool"
        }
      ],
      "stateMutability": "nonpayable",
      "type": "function"
    },
    {
      "inputs": [
        {
          "internalType": "address",
          "name": "_token",
          "type": "address"
        },
        {
          "internalType": "address",
          "name": "_projectWallet",
          "type": "address"
        }
      ],
      "name": "billFortnightlyPremium",
      "outputs": [
        {
          "internalType": "bool",
          "name": "",
          "type": "bool"
        }
      ],
      "stateMutability": "nonpayable",
      "type": "function"
    },
    {
      "inputs": [],
      "name": "bountyBalance",
      "outputs": [
        {
          "internalType": "uint256",
          "name": "",
          "type": "uint256"
        }
      ],
      "stateMutability": "view",
      "type": "function"
    },
    {
      "inputs": [
        {
          "internalType": "address",
          "name": "_token",
          "type": "address"
        },
        {
          "internalType": "address",
          "name": "_projectWallet",
          "type": "address"
        },
        {
          "internalType": "uint256",
          "name": "_amount",
          "type": "uint256"
        }
      ],
      "name": "bountyDeposit",
      "outputs": [
        {
          "internalType": "bool",
          "name": "",
          "type": "bool"
        }
      ],
      "stateMutability": "nonpayable",
      "type": "function"
    },
    {
      "inputs": [
        {
          "internalType": "address",
          "name": "_token",
          "type": "address"
        },
        {
          "internalType": "address",
          "name": "_staker",
          "type": "address"
        },
        {
          "internalType": "address",
          "name": "_projectWallet",
          "type": "address"
        }
      ],
      "name": "claimPremium",
      "outputs": [
        {
          "internalType": "uint256",
          "name": "",
          "type": "uint256"
        },
        {
          "internalType": "bool",
          "name": "",
          "type": "bool"
        }
      ],
      "stateMutability": "nonpayable",
      "type": "function"
    },
    {
      "inputs": [
        {
          "internalType": "address",
          "name": "_token",
          "type": "address"
        },
        {
          "internalType": "address",
          "name": "_saloonWallet",
          "type": "address"
        }
      ],
      "name": "collectSaloonPremiumFees",
      "outputs": [
        {
          "internalType": "uint256",
          "name": "",
          "type": "uint256"
        }
      ],
      "stateMutability": "nonpayable",
      "type": "function"
    },
    {
      "inputs": [],
      "name": "desiredAPY",
      "outputs": [
        {
          "internalType": "uint256",
          "name": "",
          "type": "uint256"
        }
      ],
      "stateMutability": "view",
      "type": "function"
    },
    {
      "inputs": [
        {
          "internalType": "address",
          "name": "_manager",
          "type": "address"
        }
      ],
      "name": "initializeImplementation",
      "outputs": [],
      "stateMutability": "nonpayable",
      "type": "function"
    },
    {
      "inputs": [
        {
          "internalType": "address",
          "name": "",
          "type": "address"
        }
      ],
      "name": "lastClaimed",
      "outputs": [
        {
          "internalType": "uint256",
          "name": "",
          "type": "uint256"
        }
      ],
      "stateMutability": "view",
      "type": "function"
    },
    {
      "inputs": [],
      "name": "lastTimePaid",
      "outputs": [
        {
          "internalType": "uint256",
          "name": "",
          "type": "uint256"
        }
      ],
      "stateMutability": "view",
      "type": "function"
    },
    {
      "inputs": [],
      "name": "manager",
      "outputs": [
        {
          "internalType": "address",
          "name": "",
          "type": "address"
        }
      ],
      "stateMutability": "view",
      "type": "function"
    },
    {
      "inputs": [],
      "name": "owner",
      "outputs": [
        {
          "internalType": "address",
          "name": "",
          "type": "address"
        }
      ],
      "stateMutability": "view",
      "type": "function"
    },
    {
      "inputs": [
        {
          "internalType": "address",
          "name": "_token",
          "type": "address"
        },
        {
          "internalType": "address",
          "name": "_saloonWallet",
          "type": "address"
        },
        {
          "internalType": "address",
          "name": "_hunter",
          "type": "address"
        },
        {
          "internalType": "uint256",
          "name": "_amount",
          "type": "uint256"
        }
      ],
      "name": "payBounty",
      "outputs": [
        {
          "internalType": "bool",
          "name": "",
          "type": "bool"
        }
      ],
      "stateMutability": "nonpayable",
      "type": "function"
    },
    {
      "inputs": [],
      "name": "poolCap",
      "outputs": [
        {
          "internalType": "uint256",
          "name": "",
          "type": "uint256"
        }
      ],
      "stateMutability": "view",
      "type": "function"
    },
    {
      "inputs": [],
      "name": "poolPeriod",
      "outputs": [
        {
          "internalType": "uint256",
          "name": "",
          "type": "uint256"
        }
      ],
      "stateMutability": "view",
      "type": "function"
    },
    {
      "inputs": [],
      "name": "premiumBalance",
      "outputs": [
        {
          "internalType": "uint256",
          "name": "",
          "type": "uint256"
        }
      ],
      "stateMutability": "view",
      "type": "function"
    },
    {
      "inputs": [],
      "name": "projectDeposit",
      "outputs": [
        {
          "internalType": "uint256",
          "name": "",
          "type": "uint256"
        }
      ],
      "stateMutability": "view",
      "type": "function"
    },
    {
      "inputs": [
        {
          "internalType": "address",
          "name": "_token",
          "type": "address"
        },
        {
          "internalType": "address",
          "name": "_projectWallet",
          "type": "address"
        },
        {
          "internalType": "uint256",
          "name": "_amount",
          "type": "uint256"
        }
      ],
      "name": "projectDepositWithdrawal",
      "outputs": [
        {
          "internalType": "bool",
          "name": "",
          "type": "bool"
        }
      ],
      "stateMutability": "nonpayable",
      "type": "function"
    },
    {
      "inputs": [
        {
          "internalType": "uint256",
          "name": "",
          "type": "uint256"
        }
      ],
      "name": "projectWithdrawalTimeLock",
      "outputs": [
        {
          "internalType": "uint256",
          "name": "",
          "type": "uint256"
        }
      ],
      "stateMutability": "view",
      "type": "function"
    },
    {
      "inputs": [],
      "name": "renounceOwnership",
      "outputs": [],
      "stateMutability": "nonpayable",
      "type": "function"
    },
    {
      "inputs": [],
      "name": "requiredPremiumBalancePerPeriod",
      "outputs": [
        {
          "internalType": "uint256",
          "name": "",
          "type": "uint256"
        }
      ],
      "stateMutability": "view",
      "type": "function"
    },
    {
      "inputs": [],
      "name": "saloonBountyCommission",
      "outputs": [
        {
          "internalType": "uint256",
          "name": "",
          "type": "uint256"
        }
      ],
      "stateMutability": "view",
      "type": "function"
    },
    {
      "inputs": [],
      "name": "saloonPremiumFees",
      "outputs": [
        {
          "internalType": "uint256",
          "name": "",
          "type": "uint256"
        }
      ],
      "stateMutability": "view",
      "type": "function"
    },
    {
      "inputs": [
        {
          "internalType": "uint256",
          "name": "_amount",
          "type": "uint256"
        }
      ],
      "name": "scheduleprojectDepositWithdrawal",
      "outputs": [],
      "stateMutability": "nonpayable",
      "type": "function"
    },
    {
      "inputs": [
        {
          "internalType": "address",
          "name": "_token",
          "type": "address"
        },
        {
          "internalType": "address",
          "name": "_projectWallet",
          "type": "address"
        },
        {
          "internalType": "uint256",
          "name": "_desiredAPY",
          "type": "uint256"
        }
      ],
      "name": "setDesiredAPY",
      "outputs": [
        {
          "internalType": "bool",
          "name": "",
          "type": "bool"
        }
      ],
      "stateMutability": "nonpayable",
      "type": "function"
    },
    {
      "inputs": [
        {
          "internalType": "uint256",
          "name": "_amount",
          "type": "uint256"
        }
      ],
      "name": "setPoolCap",
      "outputs": [],
      "stateMutability": "nonpayable",
      "type": "function"
    },
    {
      "inputs": [
        {
          "internalType": "address",
          "name": "_token",
          "type": "address"
        },
        {
          "internalType": "address",
          "name": "_staker",
          "type": "address"
        },
        {
          "internalType": "uint256",
          "name": "_amount",
          "type": "uint256"
        }
      ],
      "name": "stake",
      "outputs": [
        {
          "internalType": "bool",
          "name": "",
          "type": "bool"
        }
      ],
      "stateMutability": "nonpayable",
      "type": "function"
    },
    {
      "inputs": [
        {
          "internalType": "address",
          "name": "",
          "type": "address"
        },
        {
          "internalType": "uint256",
          "name": "",
          "type": "uint256"
        }
      ],
      "name": "staker",
      "outputs": [
        {
          "internalType": "uint256",
          "name": "stakerBalance",
          "type": "uint256"
        },
        {
          "internalType": "uint256",
          "name": "balanceTimeStamp",
          "type": "uint256"
        }
      ],
      "stateMutability": "view",
      "type": "function"
    },
    {
      "inputs": [
        {
          "internalType": "uint256",
          "name": "",
          "type": "uint256"
        }
      ],
      "name": "stakerList",
      "outputs": [
        {
          "internalType": "address",
          "name": "",
          "type": "address"
        }
      ],
      "stateMutability": "view",
      "type": "function"
    },
    {
      "inputs": [
        {
          "internalType": "address",
          "name": "",
          "type": "address"
        },
        {
          "internalType": "uint256",
          "name": "",
          "type": "uint256"
        }
      ],
      "name": "stakerTimelock",
      "outputs": [
        {
          "internalType": "uint256",
          "name": "",
          "type": "uint256"
        }
      ],
      "stateMutability": "view",
      "type": "function"
    },
    {
      "inputs": [],
      "name": "stakersDeposit",
      "outputs": [
        {
          "internalType": "uint256",
          "name": "",
          "type": "uint256"
        }
      ],
      "stateMutability": "view",
      "type": "function"
    },
    {
      "inputs": [
        {
          "internalType": "address",
          "name": "newOwner",
          "type": "address"
        }
      ],
      "name": "transferOwnership",
      "outputs": [],
      "stateMutability": "nonpayable",
      "type": "function"
    },
    {
      "inputs": [
        {
          "internalType": "address",
          "name": "_token",
          "type": "address"
        },
        {
          "internalType": "address",
          "name": "_staker",
          "type": "address"
        },
        {
          "internalType": "uint256",
          "name": "_amount",
          "type": "uint256"
        }
      ],
      "name": "unstake",
      "outputs": [
        {
          "internalType": "bool",
          "name": "",
          "type": "bool"
        }
      ],
      "stateMutability": "nonpayable",
      "type": "function"
    },
    {
      "inputs": [],
      "name": "viewDesireAPY",
      "outputs": [
        {
          "internalType": "uint256",
          "name": "",
          "type": "uint256"
        }
      ],
      "stateMutability": "view",
      "type": "function"
    },
    {
      "inputs": [],
      "name": "viewHackerPayout",
      "outputs": [
        {
          "internalType": "uint256",
          "name": "",
          "type": "uint256"
        }
      ],
      "stateMutability": "view",
      "type": "function"
    },
    {
      "inputs": [],
      "name": "viewPoolCap",
      "outputs": [
        {
          "internalType": "uint256",
          "name": "",
          "type": "uint256"
        }
      ],
      "stateMutability": "view",
      "type": "function"
    },
    {
      "inputs": [],
      "name": "viewPremiumBalance",
      "outputs": [
        {
          "internalType": "uint256",
          "name": "",
          "type": "uint256"
        }
      ],
      "stateMutability": "view",
      "type": "function"
    },
    {
      "inputs": [],
      "name": "viewProjecDeposit",
      "outputs": [
        {
          "internalType": "uint256",
          "name": "",
          "type": "uint256"
        }
      ],
      "stateMutability": "view",
      "type": "function"
    },
    {
      "inputs": [],
      "name": "viewRequirePremiumBalance",
      "outputs": [
        {
          "internalType": "uint256",
          "name": "",
          "type": "uint256"
        }
      ],
      "stateMutability": "view",
      "type": "function"
    },
    {
      "inputs": [],
      "name": "viewStakersDeposit",
      "outputs": [
        {
          "internalType": "uint256",
          "name": "",
          "type": "uint256"
        }
      ],
      "stateMutability": "view",
      "type": "function"
    },
    {
      "inputs": [
        {
          "internalType": "address",
          "name": "_staker",
          "type": "address"
        }
      ],
      "name": "viewUserStakingBalance",
      "outputs": [
        {
          "internalType": "uint256",
          "name": "",
          "type": "uint256"
        },
        {
          "internalType": "uint256",
          "name": "",
          "type": "uint256"
        }
      ],
      "stateMutability": "view",
      "type": "function"
    },
    {
      "inputs": [],
      "name": "viewcurrentAPY",
      "outputs": [
        {
          "internalType": "uint256",
          "name": "",
          "type": "uint256"
        }
      ],
      "stateMutability": "view",
      "type": "function"
    }
  ],
  "bytecode": {
    "object": "0x60806040526003546002546200001691906200008f565b60045562127500600c553480156200002d57600080fd5b5062000039336200003f565b620000b6565b600080546001600160a01b038381166001600160a01b0319831681178455604051919092169283917f8be0079c531659141344cd1fd0a4f28419497f9722a3daafe3b4186f6b6457e09190a35050565b60008219821115620000b157634e487b7160e01b600052601160045260246000fd5b500190565b61268a80620000c66000396000f3fe608060405234801561001057600080fd5b50600436106102bb5760003560e01c8063715018a611610182578063bb862785116100e9578063d5cb8669116100a2578063ee3acd581161007c578063ee3acd58146105c9578063f2fde38b146105e9578063ff45d4c0146105fc578063ffa1ad741461060457600080fd5b8063d5cb86691461059b578063d835f535146105a3578063ddaaae03146105b657600080fd5b8063bb86278514610546578063bf6eac2f14610555578063c9e66d4114610568578063cc12c31114610577578063d03b41a91461058a578063d084b03a1461059357600080fd5b8063918f86741161013b578063918f8674146104f65780639e4bfaa5146105065780639ff3128f14610519578063a4bf70bd14610521578063b15ce20a1461052a578063b954dc571461053d57600080fd5b8063715018a6146104ad57806372d26951146104b557806373927c11146104be57806383914540146104d157806384dc10b4146104dc5780638da5cb5b146104e557600080fd5b80633f5f958c116102265780634b5df6cc116101df5780634b5df6cc1461042b5780634b8e0d37146104405780634c3bdee0146104535780635121ac9d1461045c57806360829f8a1461046f5780636b01eab31461048257600080fd5b80633f5f958c146103e2578063419b7bd7146103eb57806344ebc03d146103fe57806345042dec14610407578063481c6a75146104105780634a94bcb31461042357600080fd5b80633065f450116102785780633065f450146103575780633147096d1461037f578063348e50c614610392578063383639b3146103bd5780633a5b0172146103c55780633d850fb2146103d957600080fd5b8063013eba92146102c057806310775e74146102f35780631104ec251461031657806316e17b8d1461031f5780631a89cabd1461032757806320d830861461034f575b600080fd5b6102e06102ce366004612346565b600e6020526000908152604090205481565b6040519081526020015b60405180910390f35b610306610301366004612361565b61060c565b60405190151581526020016102ea565b6102e0600a5481565b6003546102e0565b61033a610335366004612346565b610a22565b604080519283526020830191909152016102ea565b6007546102e0565b61036a610365366004612394565b610ab9565b604080519283529015156020830152016102ea565b61030661038d3660046123d7565b610d62565b6103a56103a0366004612413565b610dc8565b6040516001600160a01b0390911681526020016102ea565b6002546102e0565b60015461030690600160a01b900460ff1681565b6102e060065481565b6102e060035481565b6103066103f93660046123d7565b610df2565b6102e060075481565b6102e0600c5481565b6001546103a5906001600160a01b031681565b6102e0610e9f565b61043e610439366004612413565b610ee2565b005b61043e61044e366004612346565b610f01565b6102e0600b5481565b6102e061046a366004612361565b611041565b61030661047d3660046123d7565b611098565b6102e061049036600461242c565b601160209081526000928352604080842090915290825290205481565b61043e61143b565b6102e060025481565b6103066104cc366004612456565b61144f565b6102e06301e1338081565b6102e060085481565b6000546001600160a01b03166103a5565b6102e068056bc75e2d6310000081565b61033a61051436600461242c565b611785565b6008546102e0565b6102e060055481565b61030661053836600461242c565b6117c1565b6102e060095481565b6102e0671bc16d674ec8000081565b6103066105633660046123d7565b6118d5565b6102e067a688906bd8b0000081565b6103066105853660046123d7565b611aee565b6102e060045481565b600b546102e0565b6102e0611c40565b61043e6105b1366004612413565b611c53565b61033a6105c4366004612413565b611c82565b6102e06105d7366004612413565b600d6020526000908152604090205481565b61043e6105f7366004612346565b611cb0565b6009546102e0565b6102e0600181565b6001546000906001600160a01b031633148061062757503330145b61064c5760405162461bcd60e51b8152600401610643906124a1565b60405180910390fd5b600754600b5460035481831015610a1457600a54600c54600061066f83426124e5565b905081811115610903576000816301e1338068056bc75e2d631000006008548861069991906124fc565b6106a3919061251b565b6106ad919061251b565b6106b791906124fc565b90506106ce6001600160a01b038b168a3084611d29565b6108885760408051808201909152600060208201524281526106ee611c40565b602082019081526012805460018101825560009190915282517fbb8a6a4669ba250d26cd7a459eca9d215f8307e33aebe50379bc5a3617ec344460029092029182015590517fbb8a6a4669ba250d26cd7a459eca9d215f8307e33aebe50379bc5a3617ec344590910155610760611c40565b6008819055506000836301e1338068056bc75e2d631000006008548a61078691906124fc565b610790919061251b565b61079a919061251b565b6107a491906124fc565b9050600068056bc75e2d631000006107c4671bc16d674ec80000846124fc565b6107ce919061251b565b905080600660008282546107e2919061253d565b9250508190555081600760008282546107fb919061253d565b909155505042600a5560085460095460009188916301e133809168056bc75e2d631000009161082a91906124fc565b610834919061251b565b61083e919061251b565b61084891906124fc565b600b555061086390506001600160a01b038d168c3084611d29565b50506001805460ff60a01b1916600160a01b1781559850610a1c975050505050505050565b600068056bc75e2d631000006108a6671bc16d674ec80000846124fc565b6108b0919061251b565b905080600660008282546108c4919061253d565b9250508190555081600760008282546108dd919061253d565b909155505042600a5550506001805460ff60a01b191681559650610a1c95505050505050565b6000826301e1338068056bc75e2d6310000060085460035461092591906124fc565b61092f919061251b565b610939919061251b565b61094391906124fc565b905061095a6001600160a01b038b168a3084611d29565b61088857604080518082019091526000602082015242815261097a611c40565b602082019081526012805460018101825560009190915282517fbb8a6a4669ba250d26cd7a459eca9d215f8307e33aebe50379bc5a3617ec344460029092029182015590517fbb8a6a4669ba250d26cd7a459eca9d215f8307e33aebe50379bc5a3617ec3445909101556109ec611c40565b6008819055506000846301e1338068056bc75e2d6310000060085460035461078691906124fc565b600093505050505b92915050565b6001600160a01b0381166000908152600f6020526040812080548291610a496001836124e5565b81548110610a5957610a59612555565b600091825260208083206002909202909101546001600160a01b0387168352600f9091526040909120610a8d6001846124e5565b81548110610a9d57610a9d612555565b9060005260206000209060020201600101549250925050915091565b60015460009081906001600160a01b03163314610ae85760405162461bcd60e51b8152600401610643906124a1565b6001600160a01b0384166000908152600e602052604081205490610b0c82426124e5565b600c546001600160a01b0388166000908152600f6020908152604080832080548251818502810185019093528083529596509394929390929091849084015b82821015610b9157838290600052602060002090600202016040518060400160405290816000820154815260200160018201548152505081526020019060010190610b4b565b50508251929350505082841115610c51576000610baf868484611d97565b9050600068056bc75e2d63100000610bcf671bc16d674ec80000846124fc565b610bd9919061251b565b9050610be581836124e5565b915081610bfc6001600160a01b038e168d83611faa565b610c0c57610c0a8d8c61060c565b505b8260076000828254610c1e91906124e5565b90915550506001600160a01b038c166000908152600e60205260409020429055985060019750610d5a9650505050505050565b6000600c546301e1338068056bc75e2d6310000060085486600187610c7691906124e5565b81518110610c8657610c86612555565b602002602001015160000151610c9c91906124fc565b610ca6919061251b565b610cb0919061251b565b610cba91906124fc565b9050600068056bc75e2d63100000610cda671bc16d674ec80000846124fc565b610ce4919061251b565b9050610cf081836124e5565b9150610d066001600160a01b038d168c84611faa565b610d1657610d148c8b61060c565b505b8160076000828254610d2891906124e5565b9091555050506001600160a01b038a166000908152600e60205260409020429055965060019550610d5a945050505050565b935093915050565b6001546000906001600160a01b03163314610d8f5760405162461bcd60e51b8152600401610643906124a1565b610da46001600160a01b038516843085611d29565b508160026000828254610db7919061253d565b9091555060019150505b9392505050565b60108181548110610dd857600080fd5b6000918252602090912001546001600160a01b0316905081565b6000818152600d602052604081205442118015610e1c57506000828152600d602052604090205415155b610e685760405162461bcd60e51b815260206004820181905260248201527f54696d656c6f636b206e6f742066696e6973686564206f7220737461727465646044820152606401610643565b8160026000828254610e7a91906124e5565b90915550610e9490506001600160a01b0385168484611faa565b506001949350505050565b60008068056bc75e2d6310000067a688906bd8b00000600454610ec291906124fc565b610ecc919061251b565b905080600454610edc91906124e5565b91505090565b600c54610eef904261253d565b6000918252600d602052604090912055565b600054600160a81b900460ff1615808015610f2957506000546001600160a01b90910460ff16105b80610f4a5750303b158015610f4a5750600054600160a01b900460ff166001145b610fad5760405162461bcd60e51b815260206004820152602e60248201527f496e697469616c697a61626c653a20636f6e747261637420697320616c72656160448201526d191e481a5b9a5d1a585b1a5e995960921b6064820152608401610643565b6000805460ff60a01b1916600160a01b1790558015610fda576000805460ff60a81b1916600160a81b1790555b600180546001600160a01b0319166001600160a01b038416179055801561103d576000805460ff60a81b19169055604051600181527f7f26b83ff96e1f2b6a682f133852f6798a09c465da95921460cefb38474024989060200160405180910390a15b5050565b6001546000906001600160a01b0316331461106e5760405162461bcd60e51b8152600401610643906124a1565b600654611087906001600160a01b038516908490611faa565b505060068054600090915592915050565b6001546000906001600160a01b031633146110c55760405162461bcd60e51b8152600401610643906124a1565b6008541515806110e2575060018054600160a01b900460ff161515145b15610dc1576001600160a01b03831660009081526011602090815260408083208584529091529020544211801561113b57506001600160a01b038316600090815260116020908152604080832085845290915290205415155b6111875760405162461bcd60e51b815260206004820181905260248201527f54696d656c6f636b206e6f742066696e6973686564206f7220737461727465646044820152606401610643565b6001600160a01b0383166000908152600f60205260408120546111ac906001906124e5565b90506111cb604051806040016040528060008152602001600081525090565b426020808301919091526001600160a01b0386166000908152600f9091526040902080548591908490811061120257611202612555565b90600052602060002090600202016000015461121e91906124e5565b815260108054604080516020808402820181019092528281526000939092909183018282801561127757602002820191906000526020600020905b81546001600160a01b03168152600190910190602001808311611259575b505050505090508160000151600014156113c757805160005b818110156113c457876001600160a01b03168382815181106112b4576112b4612555565b60200260200101516001600160a01b031614156113bc576000836112d96001856124e5565b815181106112e9576112e9612555565b6020026020010151905088601060018561130391906124e5565b8154811061131357611313612555565b9060005260206000200160006101000a8154816001600160a01b0302191690836001600160a01b03160217905550806010838154811061135557611355612555565b9060005260206000200160006101000a8154816001600160a01b0302191690836001600160a01b0316021790555060108054806113945761139461256b565b600082815260209020810160001990810180546001600160a01b0319169055019055506113c4565b600101611290565b50505b6001600160a01b0386166000908152600f602090815260408220805460018181018355918452828420865160029092020190815591850151910155600380548792906114149084906124e5565b9091555061142e90506001600160a01b0388168787611faa565b5060019350505050610dc1565b611443611fe7565b61144d6000612041565b565b6001546000906001600160a01b0316331461147c5760405162461bcd60e51b8152600401610643906124a1565b81600354106116a957816003600082825461149791906124e5565b9091555050601054600354611549576000811561153c5760408051808201909152600080825242602083015260108054849081106114d7576114d7612555565b60009182526020808320909101546001600160a01b0316808352600f825260408320805460018181018355918552938390208651600290950201938455918501519290910191909155905061152e89888a89612091565b50600194505050505061177d565b50611549601060006122f8565b600060035484611559919061251b565b905060005b828110156116905760006010828154811061157b5761157b612555565b60009182526020808320909101546001600160a01b0316808352600f90915260408220549092506115ae906001906124e5565b6001600160a01b0383166000908152600f6020526040812080549293509091839081106115dd576115dd612555565b906000526020600020906002020160000154905061160e604051806040016040528060008152602001600081525090565b42602082015268056bc75e2d6310000061162887846124fc565b611632919061251b565b61163c90836124e5565b81526001600160a01b039093166000908152600f60209081526040822080546001818101835591845292829020865160029094020192835594015193019290925550611689905081612581565b905061155e565b5061169d87868887612091565b5060019250505061177d565b60105460005b818110156117365760408051808201909152600080825242602083015260108054849081106116e0576116e0612555565b60009182526020808320909101546001600160a01b03168252600f8152604082208054600181810183559184529282902085516002909402019283559301519201919091555061172f81612581565b90506116af565b50611743601060006122f8565b60006003548461175391906124e5565b9050806002600082825461176791906124e5565b9091555050600060035561169d87868887612091565b949350505050565b600f60205281600052604060002081815481106117a157600080fd5b600091825260209091206002909102018054600190910154909250905082565b6001546000906001600160a01b031633146117ee5760405162461bcd60e51b8152600401610643906124a1565b6001600160a01b0383166000908152600f6020526040812054611813906001906124e5565b6001600160a01b0385166000908152600f60205260409020805491925084918390811061184257611842612555565b90600052602060002090600202016000015410156118995760405162461bcd60e51b8152602060048201526014602482015273496e73756669636369656e742062616c616e636560601b6044820152606401610643565b600c546118a6904261253d565b6001600160a01b0385166000908152601160209081526040808320878452909152902055506001905092915050565b6001546000906001600160a01b031633146119025760405162461bcd60e51b8152600401610643906124a1565b60095482600354611913919061253d565b11156119615760405162461bcd60e51b815260206004820152601960248201527f5374616b696e6720506f6f6c20616c72656164792066756c6c000000000000006044820152606401610643565b6001600160a01b0383166000908152600f6020526040812054611986906001906124e5565b6001600160a01b0385166000908152600f60205260409020805491925090829081106119b4576119b4612555565b90600052602060002090600202016000015460001415611a1a57601080546001810182556000919091527f1b6847dc741a1b0cd08d278845f9d819d87b734759afb55fe2de5cb82a9ae6720180546001600160a01b0319166001600160a01b0386161790555b6040805180820182526000808252426020808401919091526001600160a01b0388168252600f905291909120805485919084908110611a5b57611a5b612555565b906000526020600020906002020160000154611a77919061253d565b81526001600160a01b0385166000908152600f60209081526040822080546001818101835591845282842085516002909202019081559184015191015560038054869290611ac690849061253d565b90915550611ae190506001600160a01b038716863087611d29565b5060019695505050505050565b6001546000906001600160a01b03163314611b1b5760405162461bcd60e51b8152600401610643906124a1565b600060075490506000600c546301e1338068056bc75e2d6310000086600954611b4491906124fc565b611b4e919061251b565b611b58919061251b565b611b6291906124fc565b905080821015611ba9576000611b7883836124e5565b9050611b8f6001600160a01b038816873084611d29565b508060076000828254611ba2919061253d565b9091555050505b600b5550506040805180820190915242815260208101828152601280546001808201835560009290925292517fbb8a6a4669ba250d26cd7a459eca9d215f8307e33aebe50379bc5a3617ec344460029094029384015590517fbb8a6a4669ba250d26cd7a459eca9d215f8307e33aebe50379bc5a3617ec344590920191909155600891909155805460ff60a01b1916815592915050565b600080600954600754610a1c919061251b565b6001546001600160a01b03163314611c7d5760405162461bcd60e51b8152600401610643906124a1565b600955565b60128181548110611c9257600080fd5b60009182526020909120600290910201805460019091015490915082565b611cb8611fe7565b6001600160a01b038116611d1d5760405162461bcd60e51b815260206004820152602660248201527f4f776e61626c653a206e6577206f776e657220697320746865207a65726f206160448201526564647265737360d01b6064820152608401610643565b611d2681612041565b50565b6040516001600160a01b0380851660248301528316604482015260648101829052600090610e949086906323b872dd60e01b906084015b60408051601f198184030181529190526020810180516001600160e01b03166001600160e01b031990931692909217909152612101565b601254600090818080611dab6001856124e5565b90505b80611dfd578760128281548110611dc757611dc7612555565b9060005260206000209060020201600001541015611ded57611dea81600161253d565b92505b611df68161259c565b9050611dae565b50815b83811015611f9f57600060128281548110611e1d57611e1d612555565b6000918252602082206002909102015491506012611e3c84600161253d565b81548110611e4c57611e4c612555565b90600052602060002090600202016000015460001415611e6c5742611e9c565b6012611e7984600161253d565b81548110611e8957611e89612555565b9060005260206000209060020201600001545b90506000611eaa83836124e5565b90506000805b8a811015611f4157848c8281518110611ecb57611ecb612555565b602002602001015160200151118015611f005750838c8281518110611ef257611ef2612555565b602002602001015160200151105b15611f31578b8181518110611f1757611f17612555565b60200260200101516000015182611f2e919061253d565b91505b611f3a81612581565b9050611eb0565b50816301e1338068056bc75e2d6310000060085484611f6091906124fc565b611f6a919061251b565b611f74919061251b565b611f7e91906124fc565b611f88908761253d565b95505050505080611f9890612581565b9050611e00565b509695505050505050565b6040516001600160a01b038316602482015260448101829052600090611fdd90859063a9059cbb60e01b90606401611d60565b5060019392505050565b6000546001600160a01b0316331461144d5760405162461bcd60e51b815260206004820181905260248201527f4f776e61626c653a2063616c6c6572206973206e6f7420746865206f776e65726044820152606401610643565b600080546001600160a01b038381166001600160a01b0319831681178455604051919092169283917f8be0079c531659141344cd1fd0a4f28419497f9722a3daafe3b4186f6b6457e09190a35050565b60008068056bc75e2d631000006120b067a688906bd8b00000856124fc565b6120ba919061251b565b905060006120c882856124e5565b90506120de6001600160a01b0388168783611faa565b506120f36001600160a01b0388168684611faa565b506001979650505050505050565b6000612156826040518060400160405280602081526020017f5361666545524332303a206c6f772d6c6576656c2063616c6c206661696c6564815250856001600160a01b03166121d89092919063ffffffff16565b8051909150156121d3578080602001905181019061217491906125b3565b6121d35760405162461bcd60e51b815260206004820152602a60248201527f5361666545524332303a204552433230206f7065726174696f6e20646964206e6044820152691bdd081cdd58d8d9595960b21b6064820152608401610643565b505050565b606061177d848460008585600080866001600160a01b031685876040516121ff9190612605565b60006040518083038185875af1925050503d806000811461223c576040519150601f19603f3d011682016040523d82523d6000602084013e612241565b606091505b50915091506122528783838761225d565b979650505050505050565b606083156122c95782516122c2576001600160a01b0385163b6122c25760405162461bcd60e51b815260206004820152601d60248201527f416464726573733a2063616c6c20746f206e6f6e2d636f6e74726163740000006044820152606401610643565b508161177d565b61177d83838151156122de5781518083602001fd5b8060405162461bcd60e51b81526004016106439190612621565b5080546000825590600052602060002090810190611d2691905b808211156123265760008155600101612312565b5090565b80356001600160a01b038116811461234157600080fd5b919050565b60006020828403121561235857600080fd5b610dc18261232a565b6000806040838503121561237457600080fd5b61237d8361232a565b915061238b6020840161232a565b90509250929050565b6000806000606084860312156123a957600080fd5b6123b28461232a565b92506123c06020850161232a565b91506123ce6040850161232a565b90509250925092565b6000806000606084860312156123ec57600080fd5b6123f58461232a565b92506124036020850161232a565b9150604084013590509250925092565b60006020828403121561242557600080fd5b5035919050565b6000806040838503121561243f57600080fd5b6124488361232a565b946020939093013593505050565b6000806000806080858703121561246c57600080fd5b6124758561232a565b93506124836020860161232a565b92506124916040860161232a565b9396929550929360600135925050565b60208082526014908201527313db9b1e481b585b9859d95c88185b1b1bddd95960621b604082015260600190565b634e487b7160e01b600052601160045260246000fd5b6000828210156124f7576124f76124cf565b500390565b6000816000190483118215151615612516576125166124cf565b500290565b60008261253857634e487b7160e01b600052601260045260246000fd5b500490565b60008219821115612550576125506124cf565b500190565b634e487b7160e01b600052603260045260246000fd5b634e487b7160e01b600052603160045260246000fd5b6000600019821415612595576125956124cf565b5060010190565b6000816125ab576125ab6124cf565b506000190190565b6000602082840312156125c557600080fd5b81518015158114610dc157600080fd5b60005b838110156125f05781810151838201526020016125d8565b838111156125ff576000848401525b50505050565b600082516126178184602087016125d5565b9190910192915050565b60208152600082518060208401526126408160408501602087016125d5565b601f01601f1916919091016040019291505056fea2646970667358221220838ecfe02c4f6e1f8011171f5afc40ee10507d27265ad3dde267953f44ca609564736f6c634300080a0033",
    "linkReferences": {}
  },
  "methodIdentifiers": {
    "APYdropped()": "3a5b0172",
    "APYrecords(uint256)": "ddaaae03",
    "BOUNTY_COMMISSION()": "c9e66d41",
    "DENOMINATOR()": "918f8674",
    "PREMIUM_COMMISSION()": "bb862785",
    "VERSION()": "ffa1ad74",
    "YEAR()": "83914540",
    "askForUnstake(address,uint256)": "b15ce20a",
    "billFortnightlyPremium(address,address)": "10775e74",
    "bountyBalance()": "d03b41a9",
    "bountyDeposit(address,address,uint256)": "3147096d",
    "claimPremium(address,address,address)": "3065f450",
    "collectSaloonPremiumFees(address,address)": "5121ac9d",
    "desiredAPY()": "84dc10b4",
    "initializeImplementation(address)": "4b8e0d37",
    "lastClaimed(address)": "013eba92",
    "lastTimePaid()": "1104ec25",
    "manager()": "481c6a75",
    "owner()": "8da5cb5b",
    "payBounty(address,address,address,uint256)": "73927c11",
    "poolCap()": "b954dc57",
    "poolPeriod()": "45042dec",
    "premiumBalance()": "44ebc03d",
    "projectDeposit()": "72d26951",
    "projectDepositWithdrawal(address,address,uint256)": "419b7bd7",
    "projectWithdrawalTimeLock(uint256)": "ee3acd58",
    "renounceOwnership()": "715018a6",
    "requiredPremiumBalancePerPeriod()": "4c3bdee0",
    "saloonBountyCommission()": "a4bf70bd",
    "saloonPremiumFees()": "3d850fb2",
    "scheduleprojectDepositWithdrawal(uint256)": "4b5df6cc",
    "setDesiredAPY(address,address,uint256)": "cc12c311",
    "setPoolCap(uint256)": "d835f535",
    "stake(address,address,uint256)": "bf6eac2f",
    "staker(address,uint256)": "9e4bfaa5",
    "stakerList(uint256)": "348e50c6",
    "stakerTimelock(address,uint256)": "6b01eab3",
    "stakersDeposit()": "3f5f958c",
    "transferOwnership(address)": "f2fde38b",
    "unstake(address,address,uint256)": "60829f8a",
    "viewDesireAPY()": "9ff3128f",
    "viewHackerPayout()": "4a94bcb3",
    "viewPoolCap()": "ff45d4c0",
    "viewPremiumBalance()": "20d83086",
    "viewProjecDeposit()": "383639b3",
    "viewRequirePremiumBalance()": "d084b03a",
    "viewStakersDeposit()": "16e17b8d",
    "viewUserStakingBalance(address)": "1a89cabd",
    "viewcurrentAPY()": "d5cb8669"
  },
  "id": 27
}