{
  "abi": [
    {
      "anonymous": false,
      "inputs": [
        {
          "indexed": false,
          "internalType": "uint8",
          "name": "version",
          "type": "uint8"
        }
      ],
      "name": "Initialized",
      "type": "event"
    },
    {
      "anonymous": false,
      "inputs": [
        {
          "indexed": true,
          "internalType": "address",
          "name": "previousOwner",
          "type": "address"
        },
        {
          "indexed": true,
          "internalType": "address",
          "name": "newOwner",
          "type": "address"
        }
      ],
      "name": "OwnershipTransferred",
      "type": "event"
    },
    {
      "inputs": [],
      "name": "APYTimelock",
      "outputs": [
        {
          "internalType": "uint256",
          "name": "timelock",
          "type": "uint256"
        },
        {
          "internalType": "uint256",
          "name": "amount",
          "type": "uint256"
        },
        {
          "internalType": "bool",
          "name": "executed",
          "type": "bool"
        }
      ],
      "stateMutability": "view",
      "type": "function"
    },
    {
      "inputs": [],
      "name": "APYdropped",
      "outputs": [
        {
          "internalType": "bool",
          "name": "",
          "type": "bool"
        }
      ],
      "stateMutability": "view",
      "type": "function"
    },
    {
      "inputs": [
        {
          "internalType": "uint256",
          "name": "",
          "type": "uint256"
        }
      ],
      "name": "APYrecords",
      "outputs": [
        {
          "internalType": "uint256",
          "name": "timeStamp",
          "type": "uint256"
        },
        {
          "internalType": "uint256",
          "name": "periodAPY",
          "type": "uint256"
        }
      ],
      "stateMutability": "view",
      "type": "function"
    },
    {
      "inputs": [],
      "name": "BOUNTY_COMMISSION",
      "outputs": [
        {
          "internalType": "uint256",
          "name": "",
          "type": "uint256"
        }
      ],
      "stateMutability": "view",
      "type": "function"
    },
    {
      "inputs": [],
      "name": "DENOMINATOR",
      "outputs": [
        {
          "internalType": "uint256",
          "name": "",
          "type": "uint256"
        }
      ],
      "stateMutability": "view",
      "type": "function"
    },
    {
      "inputs": [],
      "name": "PERIOD",
      "outputs": [
        {
          "internalType": "uint256",
          "name": "",
          "type": "uint256"
        }
      ],
      "stateMutability": "view",
      "type": "function"
    },
    {
      "inputs": [],
      "name": "PRECISION",
      "outputs": [
        {
          "internalType": "uint256",
          "name": "",
          "type": "uint256"
        }
      ],
      "stateMutability": "view",
      "type": "function"
    },
    {
      "inputs": [],
      "name": "PREMIUM_COMMISSION",
      "outputs": [
        {
          "internalType": "uint256",
          "name": "",
          "type": "uint256"
        }
      ],
      "stateMutability": "view",
      "type": "function"
    },
    {
      "inputs": [],
      "name": "VERSION",
      "outputs": [
        {
          "internalType": "uint256",
          "name": "",
          "type": "uint256"
        }
      ],
      "stateMutability": "view",
      "type": "function"
    },
    {
      "inputs": [],
      "name": "YEAR",
      "outputs": [
        {
          "internalType": "uint256",
          "name": "",
          "type": "uint256"
        }
      ],
      "stateMutability": "view",
      "type": "function"
    },
    {
      "inputs": [
        {
          "internalType": "address",
          "name": "_token",
          "type": "address"
        },
        {
          "internalType": "address",
          "name": "_projectWallet",
          "type": "address"
        }
      ],
      "name": "billPremium",
      "outputs": [
        {
          "internalType": "bool",
          "name": "",
          "type": "bool"
        }
      ],
      "stateMutability": "nonpayable",
      "type": "function"
    },
    {
      "inputs": [
        {
          "internalType": "address",
          "name": "_token",
          "type": "address"
        },
        {
          "internalType": "address",
          "name": "_projectWallet",
          "type": "address"
        },
        {
          "internalType": "uint256",
          "name": "_amount",
          "type": "uint256"
        }
      ],
      "name": "bountyDeposit",
      "outputs": [
        {
          "internalType": "bool",
          "name": "",
          "type": "bool"
        }
      ],
      "stateMutability": "nonpayable",
      "type": "function"
    },
    {
      "inputs": [
        {
          "internalType": "address",
          "name": "_token",
          "type": "address"
        },
        {
          "internalType": "address",
          "name": "_staker",
          "type": "address"
        },
        {
          "internalType": "address",
          "name": "_projectWallet",
          "type": "address"
        }
      ],
      "name": "claimPremium",
      "outputs": [
        {
          "internalType": "uint256",
          "name": "",
          "type": "uint256"
        },
        {
          "internalType": "bool",
          "name": "",
          "type": "bool"
        }
      ],
      "stateMutability": "nonpayable",
      "type": "function"
    },
    {
      "inputs": [
        {
          "internalType": "address",
          "name": "_token",
          "type": "address"
        },
        {
          "internalType": "address",
          "name": "_saloonWallet",
          "type": "address"
        }
      ],
      "name": "collectSaloonPremiumFees",
      "outputs": [
        {
          "internalType": "uint256",
          "name": "",
          "type": "uint256"
        }
      ],
      "stateMutability": "nonpayable",
      "type": "function"
    },
    {
      "inputs": [],
      "name": "desiredAPY",
      "outputs": [
        {
          "internalType": "uint256",
          "name": "",
          "type": "uint256"
        }
      ],
      "stateMutability": "view",
      "type": "function"
    },
    {
      "inputs": [
        {
          "internalType": "address",
          "name": "_manager",
          "type": "address"
        }
      ],
      "name": "initializeImplementation",
      "outputs": [],
      "stateMutability": "nonpayable",
      "type": "function"
    },
    {
      "inputs": [
        {
          "internalType": "address",
          "name": "",
          "type": "address"
        }
      ],
      "name": "lastClaimed",
      "outputs": [
        {
          "internalType": "uint256",
          "name": "",
          "type": "uint256"
        }
      ],
      "stateMutability": "view",
      "type": "function"
    },
    {
      "inputs": [],
      "name": "lastTimePaid",
      "outputs": [
        {
          "internalType": "uint256",
          "name": "",
          "type": "uint256"
        }
      ],
      "stateMutability": "view",
      "type": "function"
    },
    {
      "inputs": [],
      "name": "manager",
      "outputs": [
        {
          "internalType": "address",
          "name": "",
          "type": "address"
        }
      ],
      "stateMutability": "view",
      "type": "function"
    },
    {
      "inputs": [],
      "name": "owner",
      "outputs": [
        {
          "internalType": "address",
          "name": "",
          "type": "address"
        }
      ],
      "stateMutability": "view",
      "type": "function"
    },
    {
      "inputs": [
        {
          "internalType": "address",
          "name": "_token",
          "type": "address"
        },
        {
          "internalType": "address",
          "name": "_saloonWallet",
          "type": "address"
        },
        {
          "internalType": "address",
          "name": "_hunter",
          "type": "address"
        },
        {
          "internalType": "uint256",
          "name": "_amount",
          "type": "uint256"
        }
      ],
      "name": "payBounty",
      "outputs": [
        {
          "internalType": "bool",
          "name": "",
          "type": "bool"
        }
      ],
      "stateMutability": "nonpayable",
      "type": "function"
    },
    {
      "inputs": [],
      "name": "poolCap",
      "outputs": [
        {
          "internalType": "uint256",
          "name": "",
          "type": "uint256"
        }
      ],
      "stateMutability": "view",
      "type": "function"
    },
    {
      "inputs": [],
      "name": "poolCapTimelock",
      "outputs": [
        {
          "internalType": "uint256",
          "name": "timelock",
          "type": "uint256"
        },
        {
          "internalType": "uint256",
          "name": "amount",
          "type": "uint256"
        },
        {
          "internalType": "bool",
          "name": "executed",
          "type": "bool"
        }
      ],
      "stateMutability": "view",
      "type": "function"
    },
    {
      "inputs": [],
      "name": "premiumBalance",
      "outputs": [
        {
          "internalType": "uint256",
          "name": "",
          "type": "uint256"
        }
      ],
      "stateMutability": "view",
      "type": "function"
    },
    {
      "inputs": [],
      "name": "projectDeposit",
      "outputs": [
        {
          "internalType": "uint256",
          "name": "",
          "type": "uint256"
        }
      ],
      "stateMutability": "view",
      "type": "function"
    },
    {
      "inputs": [
        {
          "internalType": "address",
          "name": "_token",
          "type": "address"
        },
        {
          "internalType": "address",
          "name": "_projectWallet",
          "type": "address"
        },
        {
          "internalType": "uint256",
          "name": "_amount",
          "type": "uint256"
        }
      ],
      "name": "projectDepositWithdrawal",
      "outputs": [
        {
          "internalType": "bool",
          "name": "",
          "type": "bool"
        }
      ],
      "stateMutability": "nonpayable",
      "type": "function"
    },
    {
      "inputs": [],
      "name": "renounceOwnership",
      "outputs": [],
      "stateMutability": "nonpayable",
      "type": "function"
    },
    {
      "inputs": [],
      "name": "requiredPremiumBalancePerPeriod",
      "outputs": [
        {
          "internalType": "uint256",
          "name": "",
          "type": "uint256"
        }
      ],
      "stateMutability": "view",
      "type": "function"
    },
    {
      "inputs": [],
      "name": "saloonBountyCommission",
      "outputs": [
        {
          "internalType": "uint256",
          "name": "",
          "type": "uint256"
        }
      ],
      "stateMutability": "view",
      "type": "function"
    },
    {
      "inputs": [],
      "name": "saloonPremiumFees",
      "outputs": [
        {
          "internalType": "uint256",
          "name": "",
          "type": "uint256"
        }
      ],
      "stateMutability": "view",
      "type": "function"
    },
    {
      "inputs": [
        {
          "internalType": "uint256",
          "name": "_newAPY",
          "type": "uint256"
        }
      ],
      "name": "scheduleAPYChange",
      "outputs": [],
      "stateMutability": "nonpayable",
      "type": "function"
    },
    {
      "inputs": [
        {
          "internalType": "uint256",
          "name": "_newPoolCap",
          "type": "uint256"
        }
      ],
      "name": "schedulePoolCapChange",
      "outputs": [],
      "stateMutability": "nonpayable",
      "type": "function"
    },
    {
      "inputs": [
        {
          "internalType": "address",
          "name": "_staker",
          "type": "address"
        },
        {
          "internalType": "uint256",
          "name": "_amount",
          "type": "uint256"
        }
      ],
      "name": "scheduleUnstake",
      "outputs": [
        {
          "internalType": "bool",
          "name": "",
          "type": "bool"
        }
      ],
      "stateMutability": "nonpayable",
      "type": "function"
    },
    {
      "inputs": [
        {
          "internalType": "uint256",
          "name": "_amount",
          "type": "uint256"
        }
      ],
      "name": "scheduleprojectDepositWithdrawal",
      "outputs": [
        {
          "internalType": "bool",
          "name": "",
          "type": "bool"
        }
      ],
      "stateMutability": "nonpayable",
      "type": "function"
    },
    {
      "inputs": [
        {
          "internalType": "address",
          "name": "_token",
          "type": "address"
        },
        {
          "internalType": "address",
          "name": "_projectWallet",
          "type": "address"
        },
        {
          "internalType": "uint256",
          "name": "_desiredAPY",
          "type": "uint256"
        }
      ],
      "name": "setDesiredAPY",
      "outputs": [
        {
          "internalType": "bool",
          "name": "",
          "type": "bool"
        }
      ],
      "stateMutability": "nonpayable",
      "type": "function"
    },
    {
      "inputs": [
        {
          "internalType": "uint256",
          "name": "_amount",
          "type": "uint256"
        }
      ],
      "name": "setPoolCap",
      "outputs": [],
      "stateMutability": "nonpayable",
      "type": "function"
    },
    {
      "inputs": [
        {
          "internalType": "address",
          "name": "_token",
          "type": "address"
        },
        {
          "internalType": "address",
          "name": "_staker",
          "type": "address"
        },
        {
          "internalType": "uint256",
          "name": "_amount",
          "type": "uint256"
        }
      ],
      "name": "stake",
      "outputs": [
        {
          "internalType": "bool",
          "name": "",
          "type": "bool"
        }
      ],
      "stateMutability": "nonpayable",
      "type": "function"
    },
    {
      "inputs": [
        {
          "internalType": "address",
          "name": "",
          "type": "address"
        },
        {
          "internalType": "uint256",
          "name": "",
          "type": "uint256"
        }
      ],
      "name": "staker",
      "outputs": [
        {
          "internalType": "uint256",
          "name": "stakeBalance",
          "type": "uint256"
        },
        {
          "internalType": "uint256",
          "name": "balanceTimeStamp",
          "type": "uint256"
        }
      ],
      "stateMutability": "view",
      "type": "function"
    },
    {
      "inputs": [
        {
          "internalType": "uint256",
          "name": "",
          "type": "uint256"
        }
      ],
      "name": "stakerList",
      "outputs": [
        {
          "internalType": "address",
          "name": "",
          "type": "address"
        }
      ],
      "stateMutability": "view",
      "type": "function"
    },
    {
      "inputs": [
        {
          "internalType": "address",
          "name": "",
          "type": "address"
        }
      ],
      "name": "stakerTimelock",
      "outputs": [
        {
          "internalType": "uint256",
          "name": "timelock",
          "type": "uint256"
        },
        {
          "internalType": "uint256",
          "name": "amount",
          "type": "uint256"
        },
        {
          "internalType": "bool",
          "name": "executed",
          "type": "bool"
        }
      ],
      "stateMutability": "view",
      "type": "function"
    },
    {
      "inputs": [
        {
          "internalType": "uint256",
          "name": "",
          "type": "uint256"
        }
      ],
      "name": "stakersDeposit",
      "outputs": [
        {
          "internalType": "uint256",
          "name": "stakeBalance",
          "type": "uint256"
        },
        {
          "internalType": "uint256",
          "name": "balanceTimeStamp",
          "type": "uint256"
        }
      ],
      "stateMutability": "view",
      "type": "function"
    },
    {
      "inputs": [
        {
          "internalType": "address",
          "name": "newOwner",
          "type": "address"
        }
      ],
      "name": "transferOwnership",
      "outputs": [],
      "stateMutability": "nonpayable",
      "type": "function"
    },
    {
      "inputs": [
        {
          "internalType": "address",
          "name": "_token",
          "type": "address"
        },
        {
          "internalType": "address",
          "name": "_staker",
          "type": "address"
        },
        {
          "internalType": "uint256",
          "name": "_amount",
          "type": "uint256"
        }
      ],
      "name": "unstake",
      "outputs": [
        {
          "internalType": "bool",
          "name": "",
          "type": "bool"
        }
      ],
      "stateMutability": "nonpayable",
      "type": "function"
    },
    {
      "inputs": [],
      "name": "viewBountyBalance",
      "outputs": [
        {
          "internalType": "uint256",
          "name": "",
          "type": "uint256"
        }
      ],
      "stateMutability": "view",
      "type": "function"
    },
    {
      "inputs": [],
      "name": "viewDesiredAPY",
      "outputs": [
        {
          "internalType": "uint256",
          "name": "",
          "type": "uint256"
        }
      ],
      "stateMutability": "view",
      "type": "function"
    },
    {
      "inputs": [],
      "name": "viewHackerPayout",
      "outputs": [
        {
          "internalType": "uint256",
          "name": "",
          "type": "uint256"
        }
      ],
      "stateMutability": "view",
      "type": "function"
    },
    {
      "inputs": [],
      "name": "viewPoolCap",
      "outputs": [
        {
          "internalType": "uint256",
          "name": "",
          "type": "uint256"
        }
      ],
      "stateMutability": "view",
      "type": "function"
    },
    {
      "inputs": [],
      "name": "viewPremiumBalance",
      "outputs": [
        {
          "internalType": "uint256",
          "name": "",
          "type": "uint256"
        }
      ],
      "stateMutability": "view",
      "type": "function"
    },
    {
      "inputs": [],
      "name": "viewProjecDeposit",
      "outputs": [
        {
          "internalType": "uint256",
          "name": "",
          "type": "uint256"
        }
      ],
      "stateMutability": "view",
      "type": "function"
    },
    {
      "inputs": [],
      "name": "viewRequirePremiumBalance",
      "outputs": [
        {
          "internalType": "uint256",
          "name": "",
          "type": "uint256"
        }
      ],
      "stateMutability": "view",
      "type": "function"
    },
    {
      "inputs": [],
      "name": "viewStakersDeposit",
      "outputs": [
        {
          "internalType": "uint256",
          "name": "",
          "type": "uint256"
        }
      ],
      "stateMutability": "view",
      "type": "function"
    },
    {
      "inputs": [
        {
          "internalType": "address",
          "name": "_staker",
          "type": "address"
        }
      ],
      "name": "viewUserStakingBalance",
      "outputs": [
        {
          "internalType": "uint256",
          "name": "",
          "type": "uint256"
        },
        {
          "internalType": "uint256",
          "name": "",
          "type": "uint256"
        }
      ],
      "stateMutability": "view",
      "type": "function"
    },
    {
      "inputs": [
        {
          "internalType": "address",
          "name": "_staker",
          "type": "address"
        }
      ],
      "name": "viewUserTimelock",
      "outputs": [
        {
          "internalType": "uint256",
          "name": "timelock",
          "type": "uint256"
        },
        {
          "internalType": "uint256",
          "name": "amount",
          "type": "uint256"
        },
        {
          "internalType": "bool",
          "name": "executed",
          "type": "bool"
        }
      ],
      "stateMutability": "view",
      "type": "function"
    },
    {
      "inputs": [],
      "name": "viewcurrentAPY",
      "outputs": [
        {
          "internalType": "uint256",
          "name": "",
          "type": "uint256"
        }
      ],
      "stateMutability": "view",
      "type": "function"
    },
    {
      "inputs": [],
      "name": "withdrawalTimelock",
      "outputs": [
        {
          "internalType": "uint256",
          "name": "timelock",
          "type": "uint256"
        },
        {
          "internalType": "uint256",
          "name": "amount",
          "type": "uint256"
        },
        {
          "internalType": "bool",
          "name": "executed",
          "type": "bool"
        }
      ],
      "stateMutability": "view",
      "type": "function"
    }
  ],
  "bytecode": {
    "object": "0x60806040523480156200001157600080fd5b506200001d3362000023565b62000073565b600080546001600160a01b038381166001600160a01b0319831681178455604051919092169283917f8be0079c531659141344cd1fd0a4f28419497f9722a3daafe3b4186f6b6457e09190a35050565b613b3a80620000836000396000f3fe608060405234801561001057600080fd5b506004361061035d5760003560e01c8063769966e8116101d3578063bb86278511610104578063d5cb8669116100a2578063e45080e61161007c578063e45080e61461071f578063f2fde38b14610727578063ff45d4c01461073a578063ffa1ad741461074257600080fd5b8063d5cb8669146106f1578063d835f535146106f9578063ddaaae031461070c57600080fd5b8063c9e66d41116100de578063c9e66d411461068e578063cc12c311146106c3578063d084b03a146106d6578063d26c90a9146106de57600080fd5b8063bb8627851461068e578063bf6eac2f1461069d578063c790ef82146106b057600080fd5b8063918f867411610171578063a4bf70bd1161014b578063a4bf70bd1461066a578063aaf5eb6814610673578063b4d1d7951461067b578063b954dc571461068557600080fd5b8063918f8674146106345780639e4bfaa514610644578063a194c3b61461065757600080fd5b806383914540116101ad57806383914540146105fc57806384dc10b4146106075780638aa82e82146106105780638da5cb5b1461062357600080fd5b8063769966e8146105ad57806378eb46fd146105df57806380d440ff146105e757600080fd5b8063419b7bd7116102ad578063503cb9171161024b578063715018a611610225578063715018a614610574578063728ecaf81461057c57806372d269511461059157806373927c111461059a57600080fd5b8063503cb9171461053b5780635121ac9d1461054e57806360829f8a1461056157600080fd5b80634a94bcb3116102875780634a94bcb3146105025780634b5df6cc1461050a5780634b8e0d371461051d5780634c3bdee01461053257600080fd5b8063419b7bd7146104d357806344ebc03d146104e6578063481c6a75146104ef57600080fd5b80632d7807a91161031a578063348e50c6116102f4578063348e50c61461048a578063383639b3146104b55780633a5b0172146104bd5780633d850fb2146104ca57600080fd5b80632d7807a9146104085780633065f4501461043f5780633147096d1461046757600080fd5b8063013eba92146103625780631104ec251461039557806316e17b8d1461039e5780631a89cabd146103a65780631e27970f146103ce57806320d8308614610400575b600080fd5b61038261037036600461378c565b600a6020526000908152604090205481565b6040519081526020015b60405180910390f35b61038260075481565b61038261074a565b6103b96103b436600461378c565b610802565b6040805192835260208301919091520161038c565b6013546014546015546103e392919060ff1683565b60408051938452602084019290925215159082015260600161038c565b600454610382565b6103e361041636600461378c565b6001600160a01b03166000908152600c6020526040902080546002909101549091829160ff1690565b61045261044d3660046137a7565b6108c1565b6040805192835290151560208301520161038c565b61047a6104753660046137ea565b610aa1565b604051901515815260200161038c565b61049d610498366004613826565b610b07565b6040516001600160a01b03909116815260200161038c565b600854610382565b601c5461047a9060ff1681565b61038260035481565b61047a6104e13660046137ea565b610b31565b61038260045481565b60015461049d906001600160a01b031681565b610382610c16565b61047a610518366004613826565b610d10565b61053061052b36600461378c565b610d65565b005b61038260095481565b610530610549366004613826565b610ea5565b61038261055c36600461383f565b610eee565b61047a61056f3660046137ea565b610f41565b61053061138f565b6010546011546012546103e392919060ff1683565b61038260085481565b61047a6105a8366004613872565b6113a3565b6103e36105bb36600461378c565b600c6020526000908152604090208054600182015460029092015490919060ff1683565b600554610382565b600d54600e54600f546103e392919060ff1683565b6103826301e1338081565b61038260055481565b61047a61061e36600461383f565b611994565b6000546001600160a01b031661049d565b61038268056bc75e2d6310000081565b6103b96106523660046138bd565b611cb1565b6103b9610665366004613826565b611ced565b61038260025481565b610382606481565b6103826212750081565b61038260065481565b610382678ac7230489e8000081565b61047a6106ab3660046137ea565b611d1b565b61047a6106be3660046138bd565b6121af565b61047a6106d13660046137ea565b61231a565b600954610382565b6105306106ec366004613826565b61271f565b610382612768565b610530610707366004613826565b61277b565b6103b961071a366004613826565b612830565b610382612840565b61053061073536600461378c565b6128fa565b600654610382565b610382600181565b6000806018805480602002602001604051908101604052809291908181526020016000905b828210156107b55783829060005260206000209060020201604051806040016040529081600082015481526020016001820154815250508152602001906001019061076f565b505082519293505050806107cc5760009250505090565b60186107d96001836138fd565b815481106107e9576107e9613914565b9060005260206000209060020201600001549250505090565b6001600160a01b0381166000908152600b602052604081205481908061082e5750600093849350915050565b6001600160a01b0384166000908152600b602052604090206108516001836138fd565b8154811061086157610861613914565b600091825260208083206002909202909101546001600160a01b0387168352600b90915260409091206108956001846138fd565b815481106108a5576108a5613914565b9060005260206000209060020201600101549250925050915091565b60015460009081906001600160a01b031633146108f95760405162461bcd60e51b81526004016108f09061392a565b60405180910390fd5b6001600160a01b0384166000908152600a6020908152604080832054600b83528184208054835181860281018601909452808452919493909190849084015b8282101561097e57838290600052602060002090600202016040518060400160405290816000820154815260200160018201548152505081526020019060010190610938565b505082516004549394509291506000905061099a858585612973565b9050600068056bc75e2d631000006109ba678ac7230489e8000084613958565b6109c49190613977565b90506109d081836138fd565b915081808410156109e7576109e58c8b611994565b505b60405163a9059cbb60e01b81526001600160a01b038c81166004830152602482018390528d169063a9059cbb906044016020604051808303816000875af1158015610a36573d6000803e3d6000fd5b505050506040513d601f19601f82011682018060405250810190610a5a9190613999565b508260046000828254610a6d91906138fd565b90915550506001600160a01b038b166000908152600a60205260409020429055975060019650505050505050935093915050565b6001546000906001600160a01b03163314610ace5760405162461bcd60e51b81526004016108f09061392a565b610ae36001600160a01b0385168430856129fc565b508160086000828254610af691906139bb565b9091555060019150505b9392505050565b60168181548110610b1757600080fd5b6000918252602090912001546001600160a01b0316905081565b6001546000906001600160a01b03163314610b5e5760405162461bcd60e51b81526004016108f09061392a565b60408051606081018252601354808252601454602083015260155460ff161515928201929092529042118015610b9657506040810151155b8015610ba6575082816020015110155b8015610bb25750805115155b610bce5760405162461bcd60e51b81526004016108f0906139d3565b6015805460ff1916600117905560088054849190600090610bf09084906138fd565b90915550610c0a90506001600160a01b0386168585612a75565b50600195945050505050565b6000806018805480602002602001604051908101604052809291908181526020016000905b82821015610c8157838290600052602060002090600202016040518060400160405290816000820154815260200160018201548152505081526020019060010190610c3b565b50508251929350600091505081610c9b5750600854610cd3565b82610ca76001846138fd565b81518110610cb757610cb7613914565b602002602001015160000151600854610cd091906139bb565b90505b600068056bc75e2d63100000610cf1678ac7230489e8000084613958565b610cfb9190613977565b9050610d0781836138fd565b94505050505090565b6001546000906001600160a01b03163314610d3d5760405162461bcd60e51b81526004016108f09061392a565b610d4a62127500426139bb565b6013555060148190556015805460ff1916905560015b919050565b600054600160a81b900460ff1615808015610d8d57506000546001600160a01b90910460ff16105b80610dae5750303b158015610dae5750600054600160a01b900460ff166001145b610e115760405162461bcd60e51b815260206004820152602e60248201527f496e697469616c697a61626c653a20636f6e747261637420697320616c72656160448201526d191e481a5b9a5d1a585b1a5e995960921b60648201526084016108f0565b6000805460ff60a01b1916600160a01b1790558015610e3e576000805460ff60a81b1916600160a81b1790555b600180546001600160a01b0319166001600160a01b0384161790558015610ea1576000805460ff60a81b19169055604051600181527f7f26b83ff96e1f2b6a682f133852f6798a09c465da95921460cefb38474024989060200160405180910390a15b5050565b6001546001600160a01b03163314610ecf5760405162461bcd60e51b81526004016108f09061392a565b610edc62127500426139bb565b6010556011556012805460ff19169055565b6001546000906001600160a01b03163314610f1b5760405162461bcd60e51b81526004016108f09061392a565b600354610f326001600160a01b0385168483612a75565b50600060035590505b92915050565b6001546000906001600160a01b03163314610f6e5760405162461bcd60e51b81526004016108f09061392a565b600554151580610f855750601c5460ff1615156001145b15610b00576001600160a01b0383166000908152600c60209081526040918290208251606081018452815480825260018301549382019390935260029091015460ff1615159281019290925242118015610fe157506040810151155b8015610ff1575082816020015110155b8015610ffd5750805115155b6110195760405162461bcd60e51b81526004016108f0906139d3565b6001600160a01b0384166000908152600c60209081526040808320600201805460ff19166001908117909155600b90925282205461105791906138fd565b9050611076604051806040016040528060008152602001600081525090565b426020808301919091526001600160a01b0387166000908152600b909152604090208054869190849081106110ad576110ad613914565b9060005260206000209060020201600001546110c991906138fd565b815260168054604080516020808402820181019092528281526000939092909183018282801561112257602002820191906000526020600020905b81546001600160a01b03168152600190910190602001808311611104575b5050505050905081600001516000141561122457805160005b8181101561122157886001600160a01b031683828151811061115f5761115f613914565b60200260200101516001600160a01b03161415611219576000836111846001856138fd565b8151811061119457611194613914565b6020026020010151905080601683815481106111b2576111b2613914565b9060005260206000200160006101000a8154816001600160a01b0302191690836001600160a01b0316021790555060168054806111f1576111f1613a14565b600082815260209020810160001990810180546001600160a01b031916905501905550611221565b60010161113b565b50505b6001600160a01b0387166000908152600b60209081526040808320805460018181018355918552838520875160029092020190815586840151910155601880548251818502810185019093528083529192909190849084015b828210156112c35783829060005260206000209060020201604051806040016040529081600082015481526020016001820154815250508152602001906001019061127d565b5050505090506000600182516112d991906138fd565b90506112f8604051806040016040528060008152602001600081525090565b8883838151811061130b5761130b613914565b60200260200101516000015161132191906138fd565b81524260208201908152601880546001810182556000919091528251600080516020613ae58339815191526002909202918201559051600080516020613ac58339815191529091015561137e6001600160a01b038c168b8b612a75565b506001975050505050505050610b00565b611397612ab2565b6113a16000612b0c565b565b6001546000906001600160a01b031633146113d05760405162461bcd60e51b81526004016108f09061392a565b60006018805480602002602001604051908101604052809291908181526020016000905b8282101561143a578382906000526020600020906002020160405180604001604052908160008201548152602001600182015481525050815260200190600101906113f4565b50505050905060006001825161145091906138fd565b9050600060168054806020026020016040519081016040528092919081815260200182805480156114aa57602002820191906000526020600020905b81546001600160a01b0316815260019091019060200180831161148c575b50505050509050600081519050858484815181106114ca576114ca613914565b6020026020010151600001511061182a57858484815181106114ee576114ee613914565b602002602001015160000181815161150691906138fd565b9052506040805180820190915260008152426020820152845185908590811061153157611531613914565b6020908102919091010151518152845185908590811061155357611553613914565b6020026020010151600001516000141561165d5760005b828110156115f457604080518082019091526000808252426020830152855186908490811061159b5761159b613914565b6020908102919091018101516001600160a01b03166000908152600b8252604081208054600181810183559183529183902085516002909302019182559390910151920191909155506115ed81613a2a565b905061156a565b506116018a898b8a612b5c565b506018805460018101825560009182528251600080516020613ae58339815191526002909202918201556020830151600080516020613ac58339815191529091015561164f90601690613743565b60019550505050505061198c565b600085858151811061167157611671613914565b60200260200101516000015160648961168a9190613958565b6116949190613977565b905060005b838110156117cb5760008582815181106116b5576116b5613914565b6020908102919091018101516001600160a01b0381166000908152600b90925260408220549092506116e9906001906138fd565b6001600160a01b0383166000908152600b60205260408120805492935090918390811061171857611718613914565b9060005260206000209060020201600001549050611749604051806040016040528060008152602001600081525090565b42602082015268056bc75e2d631000006117638784613958565b61176d9190613977565b61177790836138fd565b81526001600160a01b039093166000908152600b602090815260408220805460018181018355918452928290208651600290940201928355940151930192909255506117c4905081613a2a565b9050611699565b50601880546001810182556000919091528251600080516020613ae58339815191526002909202918201556020830151600080516020613ac58339815191529091015561181a8b8a8c8b612b5c565b506001965050505050505061198c565b60005b818110156118b757604080518082019091526000808252426020830152845185908490811061185e5761185e613914565b6020908102919091018101516001600160a01b03166000908152600b8252604081208054600181810183559183529183902085516002909302019182559390910151920191909155506118b081613a2a565b905061182d565b506118c460166000613743565b60008484815181106118d8576118d8613914565b602002602001015160000151876118ef91906138fd565b9050806008600082825461190391906138fd565b90915550506040805180820190915260008152426020820152855186908690811061193057611930613914565b602090810291909101810151518252601880546001810182556000919091528251600080516020613ae583398151915260029092029182015590820151600080516020613ac58339815191529091015561181a8b8a8c8b612b5c565b949350505050565b6001546000906001600160a01b03163314806119af57503330145b6119fb5760405162461bcd60e51b815260206004820152601c60248201527f4f6e6c79206d616e61676572206f722073656c6620616c6c6f7765640000000060448201526064016108f0565b60006018805480602002602001604051908101604052809291908181526020016000905b82821015611a6557838290600052602060002090600202016040518060400160405290816000820154815260200160018201548152505081526020019060010190611a1f565b50508251600754600554949550909390925090506000611a8782858588612bcc565b6040516323b872dd60e01b81526001600160a01b03898116600483015230602483015260448201839052919250908916906323b872dd906064016020604051808303816000875af1925050508015611afc575060408051601f3d908101601f19168201909252611af991810190613999565b60015b611ba1576040805180820190915260006020820152428152611b1c612768565b602082019081526017805460018101825560009190915282517fc624b66cc0138b8fabc209247f72d758e1cf3343756d543badbf24212bed8c1560029092029182015590517fc624b66cc0138b8fabc209247f72d758e1cf3343756d543badbf24212bed8c1690910155611b8e612768565b6005555060009550610f3b945050505050565b80611c39576040805180820190915260006020820152428152611bc2612768565b602082019081526017805460018101825560009190915282517fc624b66cc0138b8fabc209247f72d758e1cf3343756d543badbf24212bed8c1560029092029182015590517fc624b66cc0138b8fabc209247f72d758e1cf3343756d543badbf24212bed8c1690910155611c34612768565b600555505b50600068056bc75e2d63100000611c58678ac7230489e8000084613958565b611c629190613977565b90508060036000828254611c7691906139bb565b925050819055508160046000828254611c8f91906139bb565b9091555050426007555050601c805460ff191690555060019695505050505050565b600b6020528160005260406000208181548110611ccd57600080fd5b600091825260209091206002909102018054600190910154909250905082565b60188181548110611cfd57600080fd5b60009182526020909120600290910201805460019091015490915082565b6001546000906001600160a01b03163314611d485760405162461bcd60e51b81526004016108f09061392a565b60006018805480602002602001604051908101604052809291908181526020016000905b82821015611db257838290600052602060002090600202016040518060400160405290816000820154815260200160018201548152505081526020019060010190611d6c565b50508251929350505080611e1257604080518082019091526000808252602082018181526018805460018101825592529151600080516020613ae58339815191526002909202918201559051600080516020613ac5833981519152909101555b601854600090611e24906001906138fd565b90506006548560188381548110611e3d57611e3d613914565b906000526020600020906002020160000154611e5991906139bb565b1115611ea75760405162461bcd60e51b815260206004820152601960248201527f5374616b696e6720506f6f6c20616c72656164792066756c6c0000000000000060448201526064016108f0565b6001600160a01b0386166000908152600b602052604090205480611f1157604080518082018252600080825260208083018281526001600160a01b038c168352600b8252938220805460018082018355918452919092209251600290910290920191825591519101555b6001600160a01b0387166000908152600b6020526040812054611f36906001906138fd565b6001600160a01b0389166000908152600b6020526040902080549192509082908110611f6457611f64613914565b90600052602060002090600202016000015460001415611fca57601680546001810182556000919091527fd833147d7dc355ba459fc788f669e58cfaf9dc25ddcd0702e87d69c7b51242890180546001600160a01b0319166001600160a01b038a161790555b6040805180820182526000808252426020808401919091526001600160a01b038c168252600b90529190912080548991908490811061200b5761200b613914565b90600052602060002090600202016000015461202791906139bb565b81528261207f576001600160a01b0389166000908152600b6020526040902080548291908490811061205b5761205b613914565b600091825260209182902083516002909202019081559101516001909101556120bc565b6001600160a01b0389166000908152600b602090815260408220805460018181018355918452928290208451600290940201928355908301519101555b604080518082019091526000808252602082015288601886815481106120e4576120e4613914565b90600052602060002090600202016000015461210091906139bb565b81524260208201528561214557806018868154811061212157612121613914565b60009182526020918290208351600290920201908155910151600190910155612188565b601880546001810182556000919091528151600080516020613ae58339815191526002909202918201556020820151600080516020613ac5833981519152909101555b61219d6001600160a01b038c168b308c6129fc565b5060019b9a5050505050505050505050565b6001546000906001600160a01b031633146121dc5760405162461bcd60e51b81526004016108f09061392a565b6001600160a01b0383166000908152600b6020908152604080832080548251818502810185019093528083529192909190849084015b8282101561225857838290600052602060002090600202016040518060400160405290816000820154815260200160018201548152505081526020019060010190612212565b50505050905060006001825161226e91906138fd565b90508382828151811061228357612283613914565b60200260200101516000015110156122d45760405162461bcd60e51b8152602060048201526014602482015273496e73756669636369656e742062616c616e636560601b60448201526064016108f0565b6122e162127500426139bb565b6001600160a01b03959095166000908152600c602052604090209485555050506001808301919091556002909101805460ff1916905590565b6001546000906001600160a01b031633146123475760405162461bcd60e51b81526004016108f09061392a565b600554156123cd5760408051606081018252601054808252601154602083015260125460ff16151592820192909252904211801561238757506040810151155b80156123965750828160200151145b80156123a25750805115155b6123be5760405162461bcd60e51b81526004016108f0906139d3565b506012805460ff191660011790555b600060045490506000806018805480602002602001604051908101604052809291908181526020016000905b8282101561243f578382906000526020600020906002020160405180604001604052908160008201548152602001600182015481525050815260200190600101906123f9565b50508251929350508115905061248f578161245b6001836138fd565b8151811061246b5761246b613914565b60200260200101516000015160001461248a576124888888611994565b505b612515565b621275006301e1338068056bc75e2d63100000886006546124b09190613958565b6124ba9190613977565b6124c49190613977565b6124ce9190613958565b9250828410156125155760006124e485856138fd565b90506124fb6001600160a01b038a168930846129fc565b50806004600082825461250e91906139bb565b9091555050505b6009839055604080518082018252428152602080820189815260178054600181018255600091825284517fc624b66cc0138b8fabc209247f72d758e1cf3343756d543badbf24212bed8c1560029092029182015591517fc624b66cc0138b8fabc209247f72d758e1cf3343756d543badbf24212bed8c169092019190915560058a9055601680548551818502810185019096528086529394919391929091908301828280156125ed57602002820191906000526020600020905b81546001600160a01b031681526001909101906020018083116125cf575b505050505090506000815111156127055760006001825161260e91906138fd565b905060005b8181101561270257600083828151811061262f5761262f613914565b6020908102919091018101516001600160a01b0381166000908152600b9092526040822054909250612663906001906138fd565b9050612682604051806040016040528060008152602001600081525090565b6001600160a01b0383166000908152600b602052604090208054839081106126ac576126ac613914565b60009182526020808320600292830201548452428482019081526001600160a01b039096168352600b81526040832080546001818101835591855291909320935191029092019182559251908301555001612613565b50505b5050601c805460ff19169055506001979650505050505050565b6001546001600160a01b031633146127495760405162461bcd60e51b81526004016108f09061392a565b61275662127500426139bb565b600d55600e55600f805460ff19169055565b600080600654600454610f3b9190613977565b6001546001600160a01b031633146127a55760405162461bcd60e51b81526004016108f09061392a565b6006541561282b5760408051606081018252600d54808252600e546020830152600f5460ff1615159282019290925290421180156127e557506040810151155b80156127f45750818160200151145b80156128005750805115155b61281c5760405162461bcd60e51b81526004016108f0906139d3565b50600f805460ff191660011790555b600655565b60178181548110611cfd57600080fd5b6000806018805480602002602001604051908101604052809291908181526020016000905b828210156128ab57838290600052602060002090600202016040518060400160405290816000820154815260200160018201548152505081526020019060010190612865565b505082519293506000915050816128c55750600854610b00565b826128d16001846138fd565b815181106128e1576128e1613914565b60200260200101516000015160085461198c91906139bb565b612902612ab2565b6001600160a01b0381166129675760405162461bcd60e51b815260206004820152602660248201527f4f776e61626c653a206e6577206f776e657220697320746865207a65726f206160448201526564647265737360d01b60648201526084016108f0565b61297081612b0c565b50565b6000806017805480602002602001604051908101604052809291908181526020016000905b828210156129de57838290600052602060002090600202016040518060400160405290816000820154815260200160018201548152505081526020019060010190612998565b50505050905060006129f286868685612fb8565b9695505050505050565b6040516001600160a01b0380851660248301528316604482015260648101829052600090612a6a9086906323b872dd60e01b906084015b60408051601f198184030181529190526020810180516001600160e01b03166001600160e01b0319909316929092179091526132b4565b506001949350505050565b6040516001600160a01b038316602482015260448101829052600090612aa890859063a9059cbb60e01b90606401612a33565b5060019392505050565b6000546001600160a01b031633146113a15760405162461bcd60e51b815260206004820181905260248201527f4f776e61626c653a2063616c6c6572206973206e6f7420746865206f776e657260448201526064016108f0565b600080546001600160a01b038381166001600160a01b0319831681178455604051919092169283917f8be0079c531659141344cd1fd0a4f28419497f9722a3daafe3b4186f6b6457e09190a35050565b60008068056bc75e2d63100000612b7b678ac7230489e8000085613958565b612b859190613977565b90506000612b9382856138fd565b9050612ba96001600160a01b0388168783612a75565b50612bbe6001600160a01b0388168684612a75565b506001979650505050505050565b60008060005b85811015612c455784848281518110612bed57612bed613914565b6020026020010151602001511115612c3557601a80546001810182556000919091527f057c384a7d1c54f3a1b2e5e67b2617b8224fdfd1ea7234eea573a6ff665ff63e018190555b612c3e81613a2a565b9050612bd2565b506000601a805480602002602001604051908101604052809291908181526020018280548015612c9457602002820191906000526020600020905b815481526020019060010190808311612c80575b505083519394506000925050505b81811015612f9f57600087612d9057612cbc6001846138fd565b821415612d0c5786848381518110612cd657612cd6613914565b602002602001015181518110612cee57612cee613914565b60200260200101516020015142612d0591906138fd565b9050612f11565b86848381518110612d1f57612d1f613914565b602002602001015181518110612d3757612d37613914565b6020026020010151602001518785846001612d5291906139bb565b81518110612d6257612d62613914565b602002602001015181518110612d7a57612d7a613914565b602002602001015160200151612d0591906138fd565b81612e655786848381518110612da857612da8613914565b602002602001015181518110612dc057612dc0613914565b6020026020010151602001518785846001612ddb91906139bb565b81518110612deb57612deb613914565b602002602001015181518110612e0357612e03613914565b602002602001015160200151612e1991906138fd565b87858481518110612e2c57612e2c613914565b602002602001015181518110612e4457612e44613914565b60200260200101516020015189612e5b91906138fd565b612d0591906139bb565b612e706001846138fd565b821415612e8a5786848381518110612cd657612cd6613914565b86848381518110612e9d57612e9d613914565b602002602001015181518110612eb557612eb5613914565b6020026020010151602001518785846001612ed091906139bb565b81518110612ee057612ee0613914565b602002602001015181518110612ef857612ef8613914565b602002602001015160200151612f0e91906138fd565b90505b806301e1338068056bc75e2d631000008c8a888781518110612f3557612f35613914565b602002602001015181518110612f4d57612f4d613914565b602002602001015160000151612f639190613958565b612f6d9190613977565b612f779190613977565b612f819190613958565b612f8b90866139bb565b94505080612f9890613a2a565b9050612ca2565b50612fac601a6000613743565b50909695505050505050565b80516000908180808861308a5760005b8481101561308457868181518110612fe257612fe2613914565b6020026020010151600001519250600185612ffd91906138fd565b81141561300c57429150613037565b866130188260016139bb565b8151811061302857613028613914565b60200260200101516000015191505b600087828151811061304b5761304b613914565b60200260200101516020015190506130668185858d8d61338b565b61307090866139bb565b9450508061307d90613a2a565b9050612fc8565b506132a7565b60005b8481101561313357898782815181106130a8576130a8613914565b60200260200101516000015111156131235760196130c76001836138fd565b8154600181810184556000938452602090932001556130e690866138fd565b81141561312357601980546001810182556000919091527f944998273e477b495144fb8794c914197f3ccb46be2900f4698fd0ef743c9695018190555b61312c81613a2a565b905061308d565b506000601980548060200260200160405190810160405280929190818152602001828054801561318257602002820191906000526020600020905b81548152602001906001019080831161316e575b505083519394506000925050505b818110156132a357806131a5578b94506131df565b888382815181106131b8576131b8613914565b6020026020010151815181106131d0576131d0613914565b60200260200101516000015194505b6131ea6001886138fd565b8114156131f95742935061323d565b88836132068360016139bb565b8151811061321657613216613914565b60200260200101518151811061322e5761322e613914565b60200260200101516000015193505b60008984838151811061325257613252613914565b60200260200101518151811061326a5761326a613914565b60200260200101516020015190506132858187878f8f61338b565b61328f90886139bb565b9650508061329c90613a2a565b9050613190565b5050505b5090979650505050505050565b6000613309826040518060400160405280602081526020017f5361666545524332303a206c6f772d6c6576656c2063616c6c206661696c6564815250856001600160a01b03166136239092919063ffffffff16565b80519091501561338657808060200190518101906133279190613999565b6133865760405162461bcd60e51b815260206004820152602a60248201527f5361666545524332303a204552433230206f7065726174696f6e20646964206e6044820152691bdd081cdd58d8d9595960b21b60648201526084016108f0565b505050565b6000806000805b8481101561342e57878682815181106133ad576133ad613914565b602002602001015160200151101580156133e35750868682815181106133d5576133d5613914565b602002602001015160200151105b1561341e57601b80546001810182556000919091527f3ad8aa4f87544323a9d1e5dd902f40c356527a7955687113db5f9a85ad579dc1018190555b61342781613a2a565b9050613392565b506000601b80548060200260200160405190810160405280929190818152602001828054801561347d57602002820191906000526020600020905b815481526020019060010190808311613469575b505083519394506000925050505b818110156136075761349e6001836138fd565b8114156134ee57878382815181106134b8576134b8613914565b6020026020010151815181106134d0576134d0613914565b602002602001015160200151896134e791906138fd565b9350613575565b8783828151811061350157613501613914565b60200260200101518151811061351957613519613914565b602002602001015160200151888483600161353491906139bb565b8151811061354457613544613914565b60200260200101518151811061355c5761355c613914565b60200260200101516020015161357291906138fd565b93505b6000846301e1338068056bc75e2d631000008e8c88878151811061359b5761359b613914565b6020026020010151815181106135b3576135b3613914565b6020026020010151600001516135c99190613958565b6135d39190613977565b6135dd9190613977565b6135e79190613958565b90506135f381876139bb565b9550508061360090613a2a565b905061348b565b505050601b60006136189190613743565b509695505050505050565b606061198c848460008585600080866001600160a01b0316858760405161364a9190613a75565b60006040518083038185875af1925050503d8060008114613687576040519150601f19603f3d011682016040523d82523d6000602084013e61368c565b606091505b509150915061369d878383876136a8565b979650505050505050565b6060831561371457825161370d576001600160a01b0385163b61370d5760405162461bcd60e51b815260206004820152601d60248201527f416464726573733a2063616c6c20746f206e6f6e2d636f6e747261637400000060448201526064016108f0565b508161198c565b61198c83838151156137295781518083602001fd5b8060405162461bcd60e51b81526004016108f09190613a91565b508054600082559060005260206000209081019061297091905b80821115613771576000815560010161375d565b5090565b80356001600160a01b0381168114610d6057600080fd5b60006020828403121561379e57600080fd5b610b0082613775565b6000806000606084860312156137bc57600080fd5b6137c584613775565b92506137d360208501613775565b91506137e160408501613775565b90509250925092565b6000806000606084860312156137ff57600080fd5b61380884613775565b925061381660208501613775565b9150604084013590509250925092565b60006020828403121561383857600080fd5b5035919050565b6000806040838503121561385257600080fd5b61385b83613775565b915061386960208401613775565b90509250929050565b6000806000806080858703121561388857600080fd5b61389185613775565b935061389f60208601613775565b92506138ad60408601613775565b9396929550929360600135925050565b600080604083850312156138d057600080fd5b6138d983613775565b946020939093013593505050565b634e487b7160e01b600052601160045260246000fd5b60008282101561390f5761390f6138e7565b500390565b634e487b7160e01b600052603260045260246000fd5b60208082526014908201527313db9b1e481b585b9859d95c88185b1b1bddd95960621b604082015260600190565b6000816000190483118215151615613972576139726138e7565b500290565b60008261399457634e487b7160e01b600052601260045260246000fd5b500490565b6000602082840312156139ab57600080fd5b81518015158114610b0057600080fd5b600082198211156139ce576139ce6138e7565b500190565b60208082526021908201527f54696d656c6f636b206e6f7420736574206f72206e6f7420636f6d706c6574656040820152601960fa1b606082015260800190565b634e487b7160e01b600052603160045260246000fd5b6000600019821415613a3e57613a3e6138e7565b5060010190565b60005b83811015613a60578181015183820152602001613a48565b83811115613a6f576000848401525b50505050565b60008251613a87818460208701613a45565b9190910192915050565b6020815260008251806020840152613ab0816040850160208701613a45565b601f01601f1916919091016040019291505056feb13d2d76d1f4b7be834882e410b3e3a8afaf69f83600ae24db354391d2378d2fb13d2d76d1f4b7be834882e410b3e3a8afaf69f83600ae24db354391d2378d2ea264697066735822122003f8ee8734140c702b74d93379da6fcb08aa4aeb4976d50bdb8efdf27685c01164736f6c634300080a0033",
    "linkReferences": {}
  },
  "methodIdentifiers": {
    "APYTimelock()": "728ecaf8",
    "APYdropped()": "3a5b0172",
    "APYrecords(uint256)": "ddaaae03",
    "BOUNTY_COMMISSION()": "c9e66d41",
    "DENOMINATOR()": "918f8674",
    "PERIOD()": "b4d1d795",
    "PRECISION()": "aaf5eb68",
    "PREMIUM_COMMISSION()": "bb862785",
    "VERSION()": "ffa1ad74",
    "YEAR()": "83914540",
    "billPremium(address,address)": "8aa82e82",
    "bountyDeposit(address,address,uint256)": "3147096d",
    "claimPremium(address,address,address)": "3065f450",
    "collectSaloonPremiumFees(address,address)": "5121ac9d",
    "desiredAPY()": "84dc10b4",
    "initializeImplementation(address)": "4b8e0d37",
    "lastClaimed(address)": "013eba92",
    "lastTimePaid()": "1104ec25",
    "manager()": "481c6a75",
    "owner()": "8da5cb5b",
    "payBounty(address,address,address,uint256)": "73927c11",
    "poolCap()": "b954dc57",
    "poolCapTimelock()": "80d440ff",
    "premiumBalance()": "44ebc03d",
    "projectDeposit()": "72d26951",
    "projectDepositWithdrawal(address,address,uint256)": "419b7bd7",
    "renounceOwnership()": "715018a6",
    "requiredPremiumBalancePerPeriod()": "4c3bdee0",
    "saloonBountyCommission()": "a4bf70bd",
    "saloonPremiumFees()": "3d850fb2",
    "scheduleAPYChange(uint256)": "503cb917",
    "schedulePoolCapChange(uint256)": "d26c90a9",
    "scheduleUnstake(address,uint256)": "c790ef82",
    "scheduleprojectDepositWithdrawal(uint256)": "4b5df6cc",
    "setDesiredAPY(address,address,uint256)": "cc12c311",
    "setPoolCap(uint256)": "d835f535",
    "stake(address,address,uint256)": "bf6eac2f",
    "staker(address,uint256)": "9e4bfaa5",
    "stakerList(uint256)": "348e50c6",
    "stakerTimelock(address)": "769966e8",
    "stakersDeposit(uint256)": "a194c3b6",
    "transferOwnership(address)": "f2fde38b",
    "unstake(address,address,uint256)": "60829f8a",
    "viewBountyBalance()": "e45080e6",
    "viewDesiredAPY()": "78eb46fd",
    "viewHackerPayout()": "4a94bcb3",
    "viewPoolCap()": "ff45d4c0",
    "viewPremiumBalance()": "20d83086",
    "viewProjecDeposit()": "383639b3",
    "viewRequirePremiumBalance()": "d084b03a",
    "viewStakersDeposit()": "16e17b8d",
    "viewUserStakingBalance(address)": "1a89cabd",
    "viewUserTimelock(address)": "2d7807a9",
    "viewcurrentAPY()": "d5cb8669",
    "withdrawalTimelock()": "1e27970f"
  },
  "id": 29
}