{
  "abi": [
    {
      "anonymous": false,
      "inputs": [
        {
          "indexed": false,
          "internalType": "uint8",
          "name": "version",
          "type": "uint8"
        }
      ],
      "name": "Initialized",
      "type": "event"
    },
    {
      "anonymous": false,
      "inputs": [
        {
          "indexed": true,
          "internalType": "address",
          "name": "previousOwner",
          "type": "address"
        },
        {
          "indexed": true,
          "internalType": "address",
          "name": "newOwner",
          "type": "address"
        }
      ],
      "name": "OwnershipTransferred",
      "type": "event"
    },
    {
      "inputs": [
        {
          "internalType": "uint256",
          "name": "",
          "type": "uint256"
        }
      ],
      "name": "APYTimelock",
      "outputs": [
        {
          "internalType": "uint256",
          "name": "timelock",
          "type": "uint256"
        },
        {
          "internalType": "bool",
          "name": "executed",
          "type": "bool"
        }
      ],
      "stateMutability": "view",
      "type": "function"
    },
    {
      "inputs": [],
      "name": "APYdropped",
      "outputs": [
        {
          "internalType": "bool",
          "name": "",
          "type": "bool"
        }
      ],
      "stateMutability": "view",
      "type": "function"
    },
    {
      "inputs": [
        {
          "internalType": "uint256",
          "name": "",
          "type": "uint256"
        }
      ],
      "name": "APYrecords",
      "outputs": [
        {
          "internalType": "uint256",
          "name": "timeStamp",
          "type": "uint256"
        },
        {
          "internalType": "uint256",
          "name": "periodAPY",
          "type": "uint256"
        }
      ],
      "stateMutability": "view",
      "type": "function"
    },
    {
      "inputs": [],
      "name": "BOUNTY_COMMISSION",
      "outputs": [
        {
          "internalType": "uint256",
          "name": "",
          "type": "uint256"
        }
      ],
      "stateMutability": "view",
      "type": "function"
    },
    {
      "inputs": [],
      "name": "DENOMINATOR",
      "outputs": [
        {
          "internalType": "uint256",
          "name": "",
          "type": "uint256"
        }
      ],
      "stateMutability": "view",
      "type": "function"
    },
    {
      "inputs": [],
      "name": "PREMIUM_COMMISSION",
      "outputs": [
        {
          "internalType": "uint256",
          "name": "",
          "type": "uint256"
        }
      ],
      "stateMutability": "view",
      "type": "function"
    },
    {
      "inputs": [],
      "name": "VERSION",
      "outputs": [
        {
          "internalType": "uint256",
          "name": "",
          "type": "uint256"
        }
      ],
      "stateMutability": "view",
      "type": "function"
    },
    {
      "inputs": [],
      "name": "YEAR",
      "outputs": [
        {
          "internalType": "uint256",
          "name": "",
          "type": "uint256"
        }
      ],
      "stateMutability": "view",
      "type": "function"
    },
    {
      "inputs": [
        {
          "internalType": "address",
          "name": "_token",
          "type": "address"
        },
        {
          "internalType": "address",
          "name": "_projectWallet",
          "type": "address"
        }
      ],
      "name": "billFortnightlyPremium",
      "outputs": [
        {
          "internalType": "bool",
          "name": "",
          "type": "bool"
        }
      ],
      "stateMutability": "nonpayable",
      "type": "function"
    },
    {
      "inputs": [
        {
          "internalType": "address",
          "name": "_token",
          "type": "address"
        },
        {
          "internalType": "address",
          "name": "_projectWallet",
          "type": "address"
        },
        {
          "internalType": "uint256",
          "name": "_amount",
          "type": "uint256"
        }
      ],
      "name": "bountyDeposit",
      "outputs": [
        {
          "internalType": "bool",
          "name": "",
          "type": "bool"
        }
      ],
      "stateMutability": "nonpayable",
      "type": "function"
    },
    {
      "inputs": [
        {
          "internalType": "address",
          "name": "_token",
          "type": "address"
        },
        {
          "internalType": "address",
          "name": "_staker",
          "type": "address"
        },
        {
          "internalType": "address",
          "name": "_projectWallet",
          "type": "address"
        }
      ],
      "name": "claimPremium",
      "outputs": [
        {
          "internalType": "uint256",
          "name": "",
          "type": "uint256"
        },
        {
          "internalType": "bool",
          "name": "",
          "type": "bool"
        }
      ],
      "stateMutability": "nonpayable",
      "type": "function"
    },
    {
      "inputs": [
        {
          "internalType": "address",
          "name": "_token",
          "type": "address"
        },
        {
          "internalType": "address",
          "name": "_saloonWallet",
          "type": "address"
        }
      ],
      "name": "collectSaloonPremiumFees",
      "outputs": [
        {
          "internalType": "uint256",
          "name": "",
          "type": "uint256"
        }
      ],
      "stateMutability": "nonpayable",
      "type": "function"
    },
    {
      "inputs": [],
      "name": "desiredAPY",
      "outputs": [
        {
          "internalType": "uint256",
          "name": "",
          "type": "uint256"
        }
      ],
      "stateMutability": "view",
      "type": "function"
    },
    {
      "inputs": [
        {
          "internalType": "address",
          "name": "_manager",
          "type": "address"
        }
      ],
      "name": "initializeImplementation",
      "outputs": [],
      "stateMutability": "nonpayable",
      "type": "function"
    },
    {
      "inputs": [
        {
          "internalType": "address",
          "name": "",
          "type": "address"
        }
      ],
      "name": "lastClaimed",
      "outputs": [
        {
          "internalType": "uint256",
          "name": "",
          "type": "uint256"
        }
      ],
      "stateMutability": "view",
      "type": "function"
    },
    {
      "inputs": [],
      "name": "lastTimePaid",
      "outputs": [
        {
          "internalType": "uint256",
          "name": "",
          "type": "uint256"
        }
      ],
      "stateMutability": "view",
      "type": "function"
    },
    {
      "inputs": [],
      "name": "manager",
      "outputs": [
        {
          "internalType": "address",
          "name": "",
          "type": "address"
        }
      ],
      "stateMutability": "view",
      "type": "function"
    },
    {
      "inputs": [],
      "name": "owner",
      "outputs": [
        {
          "internalType": "address",
          "name": "",
          "type": "address"
        }
      ],
      "stateMutability": "view",
      "type": "function"
    },
    {
      "inputs": [
        {
          "internalType": "address",
          "name": "_token",
          "type": "address"
        },
        {
          "internalType": "address",
          "name": "_saloonWallet",
          "type": "address"
        },
        {
          "internalType": "address",
          "name": "_hunter",
          "type": "address"
        },
        {
          "internalType": "uint256",
          "name": "_amount",
          "type": "uint256"
        }
      ],
      "name": "payBounty",
      "outputs": [
        {
          "internalType": "bool",
          "name": "",
          "type": "bool"
        }
      ],
      "stateMutability": "nonpayable",
      "type": "function"
    },
    {
      "inputs": [],
      "name": "poolCap",
      "outputs": [
        {
          "internalType": "uint256",
          "name": "",
          "type": "uint256"
        }
      ],
      "stateMutability": "view",
      "type": "function"
    },
    {
      "inputs": [
        {
          "internalType": "uint256",
          "name": "",
          "type": "uint256"
        }
      ],
      "name": "poolCapTimelock",
      "outputs": [
        {
          "internalType": "uint256",
          "name": "timelock",
          "type": "uint256"
        },
        {
          "internalType": "bool",
          "name": "executed",
          "type": "bool"
        }
      ],
      "stateMutability": "view",
      "type": "function"
    },
    {
      "inputs": [],
      "name": "poolPeriod",
      "outputs": [
        {
          "internalType": "uint256",
          "name": "",
          "type": "uint256"
        }
      ],
      "stateMutability": "view",
      "type": "function"
    },
    {
      "inputs": [],
      "name": "premiumBalance",
      "outputs": [
        {
          "internalType": "uint256",
          "name": "",
          "type": "uint256"
        }
      ],
      "stateMutability": "view",
      "type": "function"
    },
    {
      "inputs": [],
      "name": "projectDeposit",
      "outputs": [
        {
          "internalType": "uint256",
          "name": "",
          "type": "uint256"
        }
      ],
      "stateMutability": "view",
      "type": "function"
    },
    {
      "inputs": [
        {
          "internalType": "address",
          "name": "_token",
          "type": "address"
        },
        {
          "internalType": "address",
          "name": "_projectWallet",
          "type": "address"
        },
        {
          "internalType": "uint256",
          "name": "_amount",
          "type": "uint256"
        }
      ],
      "name": "projectDepositWithdrawal",
      "outputs": [
        {
          "internalType": "bool",
          "name": "",
          "type": "bool"
        }
      ],
      "stateMutability": "nonpayable",
      "type": "function"
    },
    {
      "inputs": [],
      "name": "renounceOwnership",
      "outputs": [],
      "stateMutability": "nonpayable",
      "type": "function"
    },
    {
      "inputs": [],
      "name": "requiredPremiumBalancePerPeriod",
      "outputs": [
        {
          "internalType": "uint256",
          "name": "",
          "type": "uint256"
        }
      ],
      "stateMutability": "view",
      "type": "function"
    },
    {
      "inputs": [],
      "name": "saloonBountyCommission",
      "outputs": [
        {
          "internalType": "uint256",
          "name": "",
          "type": "uint256"
        }
      ],
      "stateMutability": "view",
      "type": "function"
    },
    {
      "inputs": [],
      "name": "saloonPremiumFees",
      "outputs": [
        {
          "internalType": "uint256",
          "name": "",
          "type": "uint256"
        }
      ],
      "stateMutability": "view",
      "type": "function"
    },
    {
      "inputs": [
        {
          "internalType": "uint256",
          "name": "_newAPY",
          "type": "uint256"
        }
      ],
      "name": "scheduleAPYChange",
      "outputs": [],
      "stateMutability": "nonpayable",
      "type": "function"
    },
    {
      "inputs": [
        {
          "internalType": "uint256",
          "name": "_newPoolCap",
          "type": "uint256"
        }
      ],
      "name": "schedulePoolCapChange",
      "outputs": [],
      "stateMutability": "nonpayable",
      "type": "function"
    },
    {
      "inputs": [
        {
          "internalType": "address",
          "name": "_staker",
          "type": "address"
        },
        {
          "internalType": "uint256",
          "name": "_amount",
          "type": "uint256"
        }
      ],
      "name": "scheduleUnstake",
      "outputs": [
        {
          "internalType": "bool",
          "name": "",
          "type": "bool"
        }
      ],
      "stateMutability": "nonpayable",
      "type": "function"
    },
    {
      "inputs": [
        {
          "internalType": "uint256",
          "name": "_amount",
          "type": "uint256"
        }
      ],
      "name": "scheduleprojectDepositWithdrawal",
      "outputs": [
        {
          "internalType": "bool",
          "name": "",
          "type": "bool"
        }
      ],
      "stateMutability": "nonpayable",
      "type": "function"
    },
    {
      "inputs": [
        {
          "internalType": "address",
          "name": "_token",
          "type": "address"
        },
        {
          "internalType": "address",
          "name": "_projectWallet",
          "type": "address"
        },
        {
          "internalType": "uint256",
          "name": "_desiredAPY",
          "type": "uint256"
        }
      ],
      "name": "setDesiredAPY",
      "outputs": [
        {
          "internalType": "bool",
          "name": "",
          "type": "bool"
        }
      ],
      "stateMutability": "nonpayable",
      "type": "function"
    },
    {
      "inputs": [
        {
          "internalType": "uint256",
          "name": "_amount",
          "type": "uint256"
        }
      ],
      "name": "setPoolCap",
      "outputs": [],
      "stateMutability": "nonpayable",
      "type": "function"
    },
    {
      "inputs": [
        {
          "internalType": "address",
          "name": "_token",
          "type": "address"
        },
        {
          "internalType": "address",
          "name": "_staker",
          "type": "address"
        },
        {
          "internalType": "uint256",
          "name": "_amount",
          "type": "uint256"
        }
      ],
      "name": "stake",
      "outputs": [
        {
          "internalType": "bool",
          "name": "",
          "type": "bool"
        }
      ],
      "stateMutability": "nonpayable",
      "type": "function"
    },
    {
      "inputs": [
        {
          "internalType": "address",
          "name": "",
          "type": "address"
        },
        {
          "internalType": "uint256",
          "name": "",
          "type": "uint256"
        }
      ],
      "name": "staker",
      "outputs": [
        {
          "internalType": "uint256",
          "name": "stakerBalance",
          "type": "uint256"
        },
        {
          "internalType": "uint256",
          "name": "balanceTimeStamp",
          "type": "uint256"
        }
      ],
      "stateMutability": "view",
      "type": "function"
    },
    {
      "inputs": [
        {
          "internalType": "uint256",
          "name": "",
          "type": "uint256"
        }
      ],
      "name": "stakerList",
      "outputs": [
        {
          "internalType": "address",
          "name": "",
          "type": "address"
        }
      ],
      "stateMutability": "view",
      "type": "function"
    },
    {
      "inputs": [
        {
          "internalType": "address",
          "name": "",
          "type": "address"
        },
        {
          "internalType": "uint256",
          "name": "",
          "type": "uint256"
        }
      ],
      "name": "stakerTimelock",
      "outputs": [
        {
          "internalType": "uint256",
          "name": "timelock",
          "type": "uint256"
        },
        {
          "internalType": "bool",
          "name": "executed",
          "type": "bool"
        }
      ],
      "stateMutability": "view",
      "type": "function"
    },
    {
      "inputs": [],
      "name": "stakersDeposit",
      "outputs": [
        {
          "internalType": "uint256",
          "name": "",
          "type": "uint256"
        }
      ],
      "stateMutability": "view",
      "type": "function"
    },
    {
      "inputs": [
        {
          "internalType": "address",
          "name": "newOwner",
          "type": "address"
        }
      ],
      "name": "transferOwnership",
      "outputs": [],
      "stateMutability": "nonpayable",
      "type": "function"
    },
    {
      "inputs": [
        {
          "internalType": "address",
          "name": "_token",
          "type": "address"
        },
        {
          "internalType": "address",
          "name": "_staker",
          "type": "address"
        },
        {
          "internalType": "uint256",
          "name": "_amount",
          "type": "uint256"
        }
      ],
      "name": "unstake",
      "outputs": [
        {
          "internalType": "bool",
          "name": "",
          "type": "bool"
        }
      ],
      "stateMutability": "nonpayable",
      "type": "function"
    },
    {
      "inputs": [],
      "name": "viewBountyBalance",
      "outputs": [
        {
          "internalType": "uint256",
          "name": "",
          "type": "uint256"
        }
      ],
      "stateMutability": "view",
      "type": "function"
    },
    {
      "inputs": [],
      "name": "viewDesiredAPY",
      "outputs": [
        {
          "internalType": "uint256",
          "name": "",
          "type": "uint256"
        }
      ],
      "stateMutability": "view",
      "type": "function"
    },
    {
      "inputs": [],
      "name": "viewHackerPayout",
      "outputs": [
        {
          "internalType": "uint256",
          "name": "",
          "type": "uint256"
        }
      ],
      "stateMutability": "view",
      "type": "function"
    },
    {
      "inputs": [],
      "name": "viewPoolCap",
      "outputs": [
        {
          "internalType": "uint256",
          "name": "",
          "type": "uint256"
        }
      ],
      "stateMutability": "view",
      "type": "function"
    },
    {
      "inputs": [],
      "name": "viewPremiumBalance",
      "outputs": [
        {
          "internalType": "uint256",
          "name": "",
          "type": "uint256"
        }
      ],
      "stateMutability": "view",
      "type": "function"
    },
    {
      "inputs": [],
      "name": "viewProjecDeposit",
      "outputs": [
        {
          "internalType": "uint256",
          "name": "",
          "type": "uint256"
        }
      ],
      "stateMutability": "view",
      "type": "function"
    },
    {
      "inputs": [],
      "name": "viewRequirePremiumBalance",
      "outputs": [
        {
          "internalType": "uint256",
          "name": "",
          "type": "uint256"
        }
      ],
      "stateMutability": "view",
      "type": "function"
    },
    {
      "inputs": [],
      "name": "viewStakersDeposit",
      "outputs": [
        {
          "internalType": "uint256",
          "name": "",
          "type": "uint256"
        }
      ],
      "stateMutability": "view",
      "type": "function"
    },
    {
      "inputs": [
        {
          "internalType": "address",
          "name": "_staker",
          "type": "address"
        }
      ],
      "name": "viewUserStakingBalance",
      "outputs": [
        {
          "internalType": "uint256",
          "name": "",
          "type": "uint256"
        },
        {
          "internalType": "uint256",
          "name": "",
          "type": "uint256"
        }
      ],
      "stateMutability": "view",
      "type": "function"
    },
    {
      "inputs": [],
      "name": "viewcurrentAPY",
      "outputs": [
        {
          "internalType": "uint256",
          "name": "",
          "type": "uint256"
        }
      ],
      "stateMutability": "view",
      "type": "function"
    },
    {
      "inputs": [
        {
          "internalType": "uint256",
          "name": "",
          "type": "uint256"
        }
      ],
      "name": "withdrawalTimelock",
      "outputs": [
        {
          "internalType": "uint256",
          "name": "timelock",
          "type": "uint256"
        },
        {
          "internalType": "bool",
          "name": "executed",
          "type": "bool"
        }
      ],
      "stateMutability": "view",
      "type": "function"
    }
  ],
  "bytecode": {
    "object": "0x608060405262127500600b5534801561001757600080fd5b5061002133610026565b610076565b600080546001600160a01b038381166001600160a01b0319831681178455604051919092169283917f8be0079c531659141344cd1fd0a4f28419497f9722a3daafe3b4186f6b6457e09190a35050565b612c9a80620000866000396000f3fe608060405234801561001057600080fd5b50600436106103275760003560e01c806372d26951116101b8578063bf6eac2f11610104578063d835f535116100a2578063ed6ea1641161007c578063ed6ea1641461069e578063f2fde38b146106c8578063ff45d4c0146106db578063ffa1ad74146106e357600080fd5b8063d835f53514610670578063ddaaae0314610683578063e45080e61461069657600080fd5b8063cc12c311116100de578063cc12c3111461064d578063d084b03a14610660578063d26c90a9146104c1578063d5cb86691461066857600080fd5b8063bf6eac2f14610618578063c790ef821461062b578063c9e66d411461063e57600080fd5b80638da5cb5b11610171578063a4bf70bd1161014b578063a4bf70bd146105cd578063b404baa1146105d6578063b954dc5714610600578063bb8627851461060957600080fd5b80638da5cb5b14610599578063918f8674146105aa5780639e4bfaa5146105ba57600080fd5b806372d269511461053757806373927c111461054057806378eb46fd146105535780637a5001e71461055b578063839145401461058557806384dc10b41461059057600080fd5b8063419b7bd7116102775780634b8e0d37116102305780635121ac9d1161020a5780635121ac9d146104d457806360829f8a146104e75780636b01eab3146104fa578063715018a61461052f57600080fd5b80634b8e0d37146104a35780634c3bdee0146104b8578063503cb917146104c157600080fd5b8063419b7bd71461045057806344ebc03d1461046357806345042dec1461046c578063481c6a75146104755780634a94bcb3146104885780634b5df6cc1461049057600080fd5b80633065f450116102e4578063383639b3116102be578063383639b3146104295780633a5b0172146104315780633d850fb21461043e5780633f5f958c1461044757600080fd5b80633065f450146103c35780633147096d146103eb578063348e50c6146103fe57600080fd5b8063013eba921461032c57806310775e741461035f5780631104ec251461038257806316e17b8d1461038b5780631a89cabd1461039357806320d83086146103bb575b600080fd5b61034c61033a366004612915565b600c6020526000908152604090205481565b6040519081526020015b60405180910390f35b61037261036d366004612930565b6106eb565b6040519015158152602001610356565b61034c60095481565b60035461034c565b6103a66103a1366004612915565b610b29565b60408051928352602083019190915201610356565b60065461034c565b6103d66103d1366004612963565b610bc0565b60408051928352901515602083015201610356565b6103726103f93660046129a6565b610e69565b61041161040c3660046129e2565b610ecf565b6040516001600160a01b039091168152602001610356565b60025461034c565b6014546103729060ff1681565b61034c60055481565b61034c60035481565b61037261045e3660046129a6565b610ef9565b61034c60065481565b61034c600b5481565b600154610411906001600160a01b031681565b61034c610fdf565b61037261049e3660046129e2565b61102f565b6104b66104b1366004612915565b61108f565b005b61034c600a5481565b6104b66104cf3660046129e2565b6111cf565b61034c6104e2366004612930565b611225565b6103726104f53660046129a6565b61127c565b6103d66105083660046129fb565b600e6020908152600092835260408084209091529082529020805460019091015460ff1682565b6104b661163f565b61034c60025481565b61037261054e366004612a25565b611653565b60075461034c565b6103d66105693660046129e2565b6011602052600090815260409020805460019091015460ff1682565b61034c6301e1338081565b61034c60075481565b6000546001600160a01b0316610411565b61034c68056bc75e2d6310000081565b6103a66105c83660046129fb565b6119ea565b61034c60045481565b6103d66105e43660046129e2565b6010602052600090815260409020805460019091015460ff1682565b61034c60085481565b61034c671bc16d674ec8000081565b6103726106263660046129a6565b611a26565b6103726106393660046129fb565b611d02565b61034c67a688906bd8b0000081565b61037261065b3660046129a6565b611e23565b600a5461034c565b61034c612158565b6104b661067e3660046129e2565b61216b565b6103a66106913660046129e2565b612225565b61034c612253565b6103d66106ac3660046129e2565b600f602052600090815260409020805460019091015460ff1682565b6104b66106d6366004612915565b612266565b60085461034c565b61034c600181565b6001546000906001600160a01b031633148061070657503330145b6107575760405162461bcd60e51b815260206004820152601c60248201527f4f6e6c79206d616e61676572206f722073656c6620616c6c6f7765640000000060448201526064015b60405180910390fd5b600654600a5460035481831015610b1b57600954600b54600061077a8342612a86565b905081811115610a0a576000816301e1338068056bc75e2d63100000600754886107a49190612a9d565b6107ae9190612abc565b6107b89190612abc565b6107c29190612a9d565b90506107d96001600160a01b038b168a30846122df565b6109905760408051808201909152600060208201524281526107f9612158565b602082019081526013805460018101825560009190915282517f66de8ffda797e3de9c05e8fc57b3bf0ec28a930d40b0d285d93c06501cf6a09060029092029182015590517f66de8ffda797e3de9c05e8fc57b3bf0ec28a930d40b0d285d93c06501cf6a0919091015561086b612158565b6007819055506000836301e1338068056bc75e2d631000006007548a6108919190612a9d565b61089b9190612abc565b6108a59190612abc565b6108af9190612a9d565b9050600068056bc75e2d631000006108cf671bc16d674ec8000084612a9d565b6108d99190612abc565b905080600560008282546108ed9190612ade565b9250508190555081600660008282546109069190612ade565b90915550504260095560075460085460009188916301e133809168056bc75e2d63100000916109359190612a9d565b61093f9190612abc565b6109499190612abc565b6109539190612a9d565b600a555061096e90506001600160a01b038d168c30846122df565b50506014805460ff191660019081179091559850610b23975050505050505050565b600068056bc75e2d631000006109ae671bc16d674ec8000084612a9d565b6109b89190612abc565b905080600560008282546109cc9190612ade565b9250508190555081600660008282546109e59190612ade565b90915550504260095550506014805460ff191690555060019550610b23945050505050565b6000826301e1338068056bc75e2d63100000600754600354610a2c9190612a9d565b610a369190612abc565b610a409190612abc565b610a4a9190612a9d565b9050610a616001600160a01b038b168a30846122df565b610990576040805180820190915260006020820152428152610a81612158565b602082019081526013805460018101825560009190915282517f66de8ffda797e3de9c05e8fc57b3bf0ec28a930d40b0d285d93c06501cf6a09060029092029182015590517f66de8ffda797e3de9c05e8fc57b3bf0ec28a930d40b0d285d93c06501cf6a09190910155610af3612158565b6007819055506000846301e1338068056bc75e2d631000006007546003546108919190612a9d565b600093505050505b92915050565b6001600160a01b0381166000908152600d6020526040812080548291610b50600183612a86565b81548110610b6057610b60612af6565b600091825260208083206002909202909101546001600160a01b0387168352600d9091526040909120610b94600184612a86565b81548110610ba457610ba4612af6565b9060005260206000209060020201600101549250925050915091565b60015460009081906001600160a01b03163314610bef5760405162461bcd60e51b815260040161074e90612b0c565b6001600160a01b0384166000908152600c602052604081205490610c138242612a86565b600b546001600160a01b0388166000908152600d6020908152604080832080548251818502810185019093528083529596509394929390929091849084015b82821015610c9857838290600052602060002090600202016040518060400160405290816000820154815260200160018201548152505081526020019060010190610c52565b50508251929350505082841115610d58576000610cb686848461234d565b9050600068056bc75e2d63100000610cd6671bc16d674ec8000084612a9d565b610ce09190612abc565b9050610cec8183612a86565b915081610d036001600160a01b038e168d8361258c565b610d1357610d118d8c6106eb565b505b8260066000828254610d259190612a86565b90915550506001600160a01b038c166000908152600c60205260409020429055985060019750610e619650505050505050565b6000600b546301e1338068056bc75e2d6310000060075486600187610d7d9190612a86565b81518110610d8d57610d8d612af6565b602002602001015160000151610da39190612a9d565b610dad9190612abc565b610db79190612abc565b610dc19190612a9d565b9050600068056bc75e2d63100000610de1671bc16d674ec8000084612a9d565b610deb9190612abc565b9050610df78183612a86565b9150610e0d6001600160a01b038d168c8461258c565b610e1d57610e1b8c8b6106eb565b505b8160066000828254610e2f9190612a86565b9091555050506001600160a01b038a166000908152600c60205260409020429055965060019550610e61945050505050565b935093915050565b6001546000906001600160a01b03163314610e965760405162461bcd60e51b815260040161074e90612b0c565b610eab6001600160a01b0385168430856122df565b508160026000828254610ebe9190612ade565b9091555060019150505b9392505050565b60128181548110610edf57600080fd5b6000918252602090912001546001600160a01b0316905081565b6001546000906001600160a01b03163314610f265760405162461bcd60e51b815260040161074e90612b0c565b60008281526011602052604090205442118015610f55575060008281526011602052604090206001015460ff16155b8015610f6e575060008281526011602052604090205415155b610f8a5760405162461bcd60e51b815260040161074e90612b3a565b60008281526011602052604081206001908101805460ff1916909117905560028054849290610fba908490612a86565b90915550610fd490506001600160a01b038516848461258c565b506001949350505050565b600080600354600254610ff29190612ade565b9050600068056bc75e2d6310000061101267a688906bd8b0000084612a9d565b61101c9190612abc565b90506110288183612a86565b9250505090565b6001546000906001600160a01b0316331461105c5760405162461bcd60e51b815260040161074e90612b0c565b600b546110699042612ade565b60008381526011602052604090209081556001908101805460ff1916905590505b919050565b600054600160a81b900460ff16158080156110b757506000546001600160a01b90910460ff16105b806110d85750303b1580156110d85750600054600160a01b900460ff166001145b61113b5760405162461bcd60e51b815260206004820152602e60248201527f496e697469616c697a61626c653a20636f6e747261637420697320616c72656160448201526d191e481a5b9a5d1a585b1a5e995960921b606482015260840161074e565b6000805460ff60a01b1916600160a01b1790558015611168576000805460ff60a81b1916600160a81b1790555b600180546001600160a01b0319166001600160a01b03841617905580156111cb576000805460ff60a81b19169055604051600181527f7f26b83ff96e1f2b6a682f133852f6798a09c465da95921460cefb38474024989060200160405180910390a15b5050565b6001546001600160a01b031633146111f95760405162461bcd60e51b815260040161074e90612b0c565b600b546112069042612ade565b6000918252600f6020526040909120908155600101805460ff19169055565b6001546000906001600160a01b031633146112525760405162461bcd60e51b815260040161074e90612b0c565b60055461126b906001600160a01b03851690849061258c565b505060058054600090915592915050565b6001546000906001600160a01b031633146112a95760405162461bcd60e51b815260040161074e90612b0c565b6007541515806112c0575060145460ff1615156001145b15610ec8576001600160a01b0383166000908152600e602090815260408083208584529091529020544211801561131e57506001600160a01b0383166000908152600e6020908152604080832085845290915290206001015460ff16155b801561134c57506001600160a01b0383166000908152600e6020908152604080832085845290915290205415155b6113685760405162461bcd60e51b815260040161074e90612b3a565b6001600160a01b0383166000818152600e6020908152604080832086845282528083206001908101805460ff191682179055938352600d90915281205490916113b091612a86565b90506113cf604051806040016040528060008152602001600081525090565b426020808301919091526001600160a01b0386166000908152600d9091526040902080548591908490811061140657611406612af6565b9060005260206000209060020201600001546114229190612a86565b815260128054604080516020808402820181019092528281526000939092909183018282801561147b57602002820191906000526020600020905b81546001600160a01b0316815260019091019060200180831161145d575b505050505090508160000151600014156115cb57805160005b818110156115c857876001600160a01b03168382815181106114b8576114b8612af6565b60200260200101516001600160a01b031614156115c0576000836114dd600185612a86565b815181106114ed576114ed612af6565b602002602001015190508860126001856115079190612a86565b8154811061151757611517612af6565b9060005260206000200160006101000a8154816001600160a01b0302191690836001600160a01b03160217905550806012838154811061155957611559612af6565b9060005260206000200160006101000a8154816001600160a01b0302191690836001600160a01b03160217905550601280548061159857611598612b7b565b600082815260209020810160001990810180546001600160a01b0319169055019055506115c8565b600101611494565b50505b6001600160a01b0386166000908152600d60209081526040822080546001818101835591845282842086516002909202019081559185015191015560038054879290611618908490612a86565b9091555061163290506001600160a01b038816878761258c565b5060019350505050610ec8565b6116476125c9565b6116516000612623565b565b6001546000906001600160a01b031633146116805760405162461bcd60e51b815260040161074e90612b0c565b6003546012805460408051602080840282018101909252828152600093909290918301828280156116da57602002820191906000526020600020905b81546001600160a01b031681526001909101906020018083116116bc575b5050835193945050508584109050611912576116f68584612a86565b9250826117b45760005b8181101561179b57604080518082019091526000808252426020830152845185908490811061173157611731612af6565b6020908102919091018101516001600160a01b0381166000908152600d8352604081208054600181810183559183529184902086516002909302019182559285015192019190915590506117878b8a8c8b612673565b5050508061179490612b91565b9050611700565b506117a8601260006128cc565b600193505050506119e2565b60006117c08487612abc565b905060005b828110156118f75760008482815181106117e1576117e1612af6565b6020908102919091018101516001600160a01b0381166000908152600d909252604082205490925061181590600190612a86565b6001600160a01b0383166000908152600d60205260408120805492935090918390811061184457611844612af6565b9060005260206000209060020201600001549050611875604051806040016040528060008152602001600081525090565b42602082015268056bc75e2d6310000061188f8784612a9d565b6118999190612abc565b6118a39083612a86565b81526001600160a01b039093166000908152600d602090815260408220805460018181018355918452928290208651600290940201928355940151930192909255506118f0905081612b91565b90506117c5565b5061190489888a89612673565b5060019450505050506119e2565b60005b8181101561199f57604080518082019091526000808252426020830152845185908490811061194657611946612af6565b6020908102919091018101516001600160a01b03166000908152600d82526040812080546001818101835591835291839020855160029093020191825593909101519201919091555061199881612b91565b9050611915565b506119ac601260006128cc565b60006119b88487612a86565b905080600260008282546119cc9190612a86565b9091555050600060035561190489888a89612673565b949350505050565b600d6020528160005260406000208181548110611a0657600080fd5b600091825260209091206002909102018054600190910154909250905082565b6001546000906001600160a01b03163314611a535760405162461bcd60e51b815260040161074e90612b0c565b60085482600354611a649190612ade565b1115611ab25760405162461bcd60e51b815260206004820152601960248201527f5374616b696e6720506f6f6c20616c72656164792066756c6c00000000000000604482015260640161074e565b6001600160a01b0383166000908152600d602052604090205480611b1c57604080518082018252600080825260208083018281526001600160a01b0389168352600d8252938220805460018082018355918452919092209251600290910290920191825591519101555b6001600160a01b0384166000908152600d6020526040812054611b4190600190612a86565b6001600160a01b0386166000908152600d6020526040902080549192509082908110611b6f57611b6f612af6565b90600052602060002090600202016000015460001415611bd557601280546001810182556000919091527fbb8a6a4669ba250d26cd7a459eca9d215f8307e33aebe50379bc5a3617ec34440180546001600160a01b0319166001600160a01b0387161790555b6040805180820182526000808252426020808401919091526001600160a01b0389168252600d905291909120805486919084908110611c1657611c16612af6565b906000526020600020906002020160000154611c329190612ade565b815282611c8a576001600160a01b0386166000908152600d60205260409020805482919084908110611c6657611c66612af6565b60009182526020918290208351600290920201908155910151600190910155611cc7565b6001600160a01b0386166000908152600d602090815260408220805460018181018355918452928290208451600290940201928355908301519101555b8460036000828254611cd99190612ade565b90915550611cf490506001600160a01b0388168730886122df565b506001979650505050505050565b6001546000906001600160a01b03163314611d2f5760405162461bcd60e51b815260040161074e90612b0c565b6001600160a01b0383166000908152600d6020526040812054611d5490600190612a86565b6001600160a01b0385166000908152600d602052604090208054919250849183908110611d8357611d83612af6565b9060005260206000209060020201600001541015611dda5760405162461bcd60e51b8152602060048201526014602482015273496e73756669636369656e742062616c616e636560601b604482015260640161074e565b600b54611de79042612ade565b6001600160a01b03949094166000908152600e602090815260408083209583529490529290922092835550506001908101805460ff1916905590565b6001546000906001600160a01b03163314611e505760405162461bcd60e51b815260040161074e90612b0c565b60075415611edb5760008281526010602052604090205442118015611e87575060008281526010602052604090206001015460ff16155b8015611ea0575060008281526010602052604090205415155b611ebc5760405162461bcd60e51b815260040161074e90612b3a565b60008281526010602052604090206001908101805460ff191690911790555b600060065490506000600b546301e1338068056bc75e2d6310000086600854611f049190612a9d565b611f0e9190612abc565b611f189190612abc565b611f229190612a9d565b905080821015611f69576000611f388383612a86565b9050611f4f6001600160a01b0388168730846122df565b508060066000828254611f629190612ade565b9091555050505b600a819055604080518082018252428152602080820187815260138054600181018255600091825284517f66de8ffda797e3de9c05e8fc57b3bf0ec28a930d40b0d285d93c06501cf6a09060029092029182015591517f66de8ffda797e3de9c05e8fc57b3bf0ec28a930d40b0d285d93c06501cf6a0919092019190915560078890556012805485518185028101850190965280865293949193919290919083018282801561204157602002820191906000526020600020905b81546001600160a01b03168152600190910190602001808311612023575b505083519394506000925050505b8181101561213e57600083828151811061206b5761206b612af6565b6020908102919091018101516001600160a01b0381166000908152600d909252604082205490925061209f90600190612a86565b90506120be604051806040016040528060008152602001600081525090565b6001600160a01b0383166000908152600d602052604090208054839081106120e8576120e8612af6565b60009182526020808320600292830201548452428482019081526001600160a01b039096168352600d8152604083208054600181810183559185529190932093519102909201918255925190830155500161204f565b50506014805460ff19169055506001979650505050505050565b600080600854600654610b239190612abc565b6001546001600160a01b031633146121955760405162461bcd60e51b815260040161074e90612b0c565b60085415612220576000818152600f6020526040902054421180156121cc57506000818152600f602052604090206001015460ff16155b80156121e557506000818152600f602052604090205415155b6122015760405162461bcd60e51b815260040161074e90612b3a565b6000818152600f602052604090206001908101805460ff191690911790555b600855565b6013818154811061223557600080fd5b60009182526020909120600290910201805460019091015490915082565b600080600354600254610b239190612ade565b61226e6125c9565b6001600160a01b0381166122d35760405162461bcd60e51b815260206004820152602660248201527f4f776e61626c653a206e6577206f776e657220697320746865207a65726f206160448201526564647265737360d01b606482015260840161074e565b6122dc81612623565b50565b6040516001600160a01b0380851660248301528316604482015260648101829052600090610fd49086906323b872dd60e01b906084015b60408051601f198184030181529190526020810180516001600160e01b03166001600160e01b0319909316929092179091526126d5565b601354600090818080612361600185612a86565b90505b806123b357876013828154811061237d5761237d612af6565b90600052602060002090600202016000015410156123a3576123a0816001612ade565b92505b6123ac81612bac565b9050612364565b50815b83811015612581576000601382815481106123d3576123d3612af6565b60009182526020822060029091020154915060136123f2846001612ade565b8154811061240257612402612af6565b906000526020600020906002020160000154600014156124225742612452565b601361242f846001612ade565b8154811061243f5761243f612af6565b9060005260206000209060020201600001545b905060006124608383612a86565b90506000805b8a8110156124f757848c828151811061248157612481612af6565b6020026020010151602001511180156124b65750838c82815181106124a8576124a8612af6565b602002602001015160200151105b156124e7578b81815181106124cd576124cd612af6565b602002602001015160000151826124e49190612ade565b91505b6124f081612b91565b9050612466565b50816301e1338068056bc75e2d631000006013612515896001612ade565b8154811061252557612525612af6565b906000526020600020906002020160010154846125429190612a9d565b61254c9190612abc565b6125569190612abc565b6125609190612a9d565b61256a9087612ade565b9550505050508061257a90612b91565b90506123b6565b509695505050505050565b6040516001600160a01b0383166024820152604481018290526000906125bf90859063a9059cbb60e01b90606401612316565b5060019392505050565b6000546001600160a01b031633146116515760405162461bcd60e51b815260206004820181905260248201527f4f776e61626c653a2063616c6c6572206973206e6f7420746865206f776e6572604482015260640161074e565b600080546001600160a01b038381166001600160a01b0319831681178455604051919092169283917f8be0079c531659141344cd1fd0a4f28419497f9722a3daafe3b4186f6b6457e09190a35050565b60008068056bc75e2d6310000061269267a688906bd8b0000085612a9d565b61269c9190612abc565b905060006126aa8285612a86565b90506126c06001600160a01b038816878361258c565b50611cf46001600160a01b038816868461258c565b600061272a826040518060400160405280602081526020017f5361666545524332303a206c6f772d6c6576656c2063616c6c206661696c6564815250856001600160a01b03166127ac9092919063ffffffff16565b8051909150156127a757808060200190518101906127489190612bc3565b6127a75760405162461bcd60e51b815260206004820152602a60248201527f5361666545524332303a204552433230206f7065726174696f6e20646964206e6044820152691bdd081cdd58d8d9595960b21b606482015260840161074e565b505050565b60606119e2848460008585600080866001600160a01b031685876040516127d39190612c15565b60006040518083038185875af1925050503d8060008114612810576040519150601f19603f3d011682016040523d82523d6000602084013e612815565b606091505b509150915061282687838387612831565b979650505050505050565b6060831561289d578251612896576001600160a01b0385163b6128965760405162461bcd60e51b815260206004820152601d60248201527f416464726573733a2063616c6c20746f206e6f6e2d636f6e7472616374000000604482015260640161074e565b50816119e2565b6119e283838151156128b25781518083602001fd5b8060405162461bcd60e51b815260040161074e9190612c31565b50805460008255906000526020600020908101906122dc91905b808211156128fa57600081556001016128e6565b5090565b80356001600160a01b038116811461108a57600080fd5b60006020828403121561292757600080fd5b610ec8826128fe565b6000806040838503121561294357600080fd5b61294c836128fe565b915061295a602084016128fe565b90509250929050565b60008060006060848603121561297857600080fd5b612981846128fe565b925061298f602085016128fe565b915061299d604085016128fe565b90509250925092565b6000806000606084860312156129bb57600080fd5b6129c4846128fe565b92506129d2602085016128fe565b9150604084013590509250925092565b6000602082840312156129f457600080fd5b5035919050565b60008060408385031215612a0e57600080fd5b612a17836128fe565b946020939093013593505050565b60008060008060808587031215612a3b57600080fd5b612a44856128fe565b9350612a52602086016128fe565b9250612a60604086016128fe565b9396929550929360600135925050565b634e487b7160e01b600052601160045260246000fd5b600082821015612a9857612a98612a70565b500390565b6000816000190483118215151615612ab757612ab7612a70565b500290565b600082612ad957634e487b7160e01b600052601260045260246000fd5b500490565b60008219821115612af157612af1612a70565b500190565b634e487b7160e01b600052603260045260246000fd5b60208082526014908201527313db9b1e481b585b9859d95c88185b1b1bddd95960621b604082015260600190565b60208082526021908201527f54696d656c6f636b206e6f7420736574206f72206e6f7420636f6d706c6574656040820152601960fa1b606082015260800190565b634e487b7160e01b600052603160045260246000fd5b6000600019821415612ba557612ba5612a70565b5060010190565b600081612bbb57612bbb612a70565b506000190190565b600060208284031215612bd557600080fd5b81518015158114610ec857600080fd5b60005b83811015612c00578181015183820152602001612be8565b83811115612c0f576000848401525b50505050565b60008251612c27818460208701612be5565b9190910192915050565b6020815260008251806020840152612c50816040850160208701612be5565b601f01601f1916919091016040019291505056fea26469706673582212207db93165196646201da1953dda835b1af442db3b9e1e54ab3a1e43558513cf7764736f6c634300080a0033",
    "linkReferences": {}
  },
  "methodIdentifiers": {
    "APYTimelock(uint256)": "b404baa1",
    "APYdropped()": "3a5b0172",
    "APYrecords(uint256)": "ddaaae03",
    "BOUNTY_COMMISSION()": "c9e66d41",
    "DENOMINATOR()": "918f8674",
    "PREMIUM_COMMISSION()": "bb862785",
    "VERSION()": "ffa1ad74",
    "YEAR()": "83914540",
    "billFortnightlyPremium(address,address)": "10775e74",
    "bountyDeposit(address,address,uint256)": "3147096d",
    "claimPremium(address,address,address)": "3065f450",
    "collectSaloonPremiumFees(address,address)": "5121ac9d",
    "desiredAPY()": "84dc10b4",
    "initializeImplementation(address)": "4b8e0d37",
    "lastClaimed(address)": "013eba92",
    "lastTimePaid()": "1104ec25",
    "manager()": "481c6a75",
    "owner()": "8da5cb5b",
    "payBounty(address,address,address,uint256)": "73927c11",
    "poolCap()": "b954dc57",
    "poolCapTimelock(uint256)": "ed6ea164",
    "poolPeriod()": "45042dec",
    "premiumBalance()": "44ebc03d",
    "projectDeposit()": "72d26951",
    "projectDepositWithdrawal(address,address,uint256)": "419b7bd7",
    "renounceOwnership()": "715018a6",
    "requiredPremiumBalancePerPeriod()": "4c3bdee0",
    "saloonBountyCommission()": "a4bf70bd",
    "saloonPremiumFees()": "3d850fb2",
    "scheduleAPYChange(uint256)": "503cb917",
    "schedulePoolCapChange(uint256)": "d26c90a9",
    "scheduleUnstake(address,uint256)": "c790ef82",
    "scheduleprojectDepositWithdrawal(uint256)": "4b5df6cc",
    "setDesiredAPY(address,address,uint256)": "cc12c311",
    "setPoolCap(uint256)": "d835f535",
    "stake(address,address,uint256)": "bf6eac2f",
    "staker(address,uint256)": "9e4bfaa5",
    "stakerList(uint256)": "348e50c6",
    "stakerTimelock(address,uint256)": "6b01eab3",
    "stakersDeposit()": "3f5f958c",
    "transferOwnership(address)": "f2fde38b",
    "unstake(address,address,uint256)": "60829f8a",
    "viewBountyBalance()": "e45080e6",
    "viewDesiredAPY()": "78eb46fd",
    "viewHackerPayout()": "4a94bcb3",
    "viewPoolCap()": "ff45d4c0",
    "viewPremiumBalance()": "20d83086",
    "viewProjecDeposit()": "383639b3",
    "viewRequirePremiumBalance()": "d084b03a",
    "viewStakersDeposit()": "16e17b8d",
    "viewUserStakingBalance(address)": "1a89cabd",
    "viewcurrentAPY()": "d5cb8669",
    "withdrawalTimelock(uint256)": "7a5001e7"
  },
  "id": 29
}