{
  "abi": [
    {
      "anonymous": false,
      "inputs": [
        {
          "indexed": false,
          "internalType": "uint8",
          "name": "version",
          "type": "uint8"
        }
      ],
      "name": "Initialized",
      "type": "event"
    },
    {
      "anonymous": false,
      "inputs": [
        {
          "indexed": true,
          "internalType": "address",
          "name": "previousOwner",
          "type": "address"
        },
        {
          "indexed": true,
          "internalType": "address",
          "name": "newOwner",
          "type": "address"
        }
      ],
      "name": "OwnershipTransferred",
      "type": "event"
    },
    {
      "inputs": [],
      "name": "APYTimelock",
      "outputs": [
        {
          "internalType": "uint256",
          "name": "timelock",
          "type": "uint256"
        },
        {
          "internalType": "uint256",
          "name": "timeLimit",
          "type": "uint256"
        },
        {
          "internalType": "uint256",
          "name": "amount",
          "type": "uint256"
        },
        {
          "internalType": "bool",
          "name": "executed",
          "type": "bool"
        }
      ],
      "stateMutability": "view",
      "type": "function"
    },
    {
      "inputs": [],
      "name": "APYdropped",
      "outputs": [
        {
          "internalType": "bool",
          "name": "",
          "type": "bool"
        }
      ],
      "stateMutability": "view",
      "type": "function"
    },
    {
      "inputs": [
        {
          "internalType": "uint256",
          "name": "",
          "type": "uint256"
        }
      ],
      "name": "APYrecords",
      "outputs": [
        {
          "internalType": "uint256",
          "name": "timeStamp",
          "type": "uint256"
        },
        {
          "internalType": "uint256",
          "name": "periodAPY",
          "type": "uint256"
        }
      ],
      "stateMutability": "view",
      "type": "function"
    },
    {
      "inputs": [],
      "name": "PERIOD",
      "outputs": [
        {
          "internalType": "uint256",
          "name": "",
          "type": "uint256"
        }
      ],
      "stateMutability": "view",
      "type": "function"
    },
    {
      "inputs": [],
      "name": "PRECISION",
      "outputs": [
        {
          "internalType": "uint256",
          "name": "",
          "type": "uint256"
        }
      ],
      "stateMutability": "view",
      "type": "function"
    },
    {
      "inputs": [],
      "name": "VERSION",
      "outputs": [
        {
          "internalType": "uint256",
          "name": "",
          "type": "uint256"
        }
      ],
      "stateMutability": "view",
      "type": "function"
    },
    {
      "inputs": [],
      "name": "YEAR",
      "outputs": [
        {
          "internalType": "uint256",
          "name": "",
          "type": "uint256"
        }
      ],
      "stateMutability": "view",
      "type": "function"
    },
    {
      "inputs": [
        {
          "internalType": "address",
          "name": "_token",
          "type": "address"
        },
        {
          "internalType": "address",
          "name": "_projectWallet",
          "type": "address"
        }
      ],
      "name": "billPremium",
      "outputs": [
        {
          "internalType": "bool",
          "name": "",
          "type": "bool"
        }
      ],
      "stateMutability": "nonpayable",
      "type": "function"
    },
    {
      "inputs": [],
      "name": "bountyCommission",
      "outputs": [
        {
          "internalType": "uint256",
          "name": "",
          "type": "uint256"
        }
      ],
      "stateMutability": "view",
      "type": "function"
    },
    {
      "inputs": [
        {
          "internalType": "address",
          "name": "_token",
          "type": "address"
        },
        {
          "internalType": "address",
          "name": "_projectWallet",
          "type": "address"
        },
        {
          "internalType": "uint256",
          "name": "_amount",
          "type": "uint256"
        }
      ],
      "name": "bountyDeposit",
      "outputs": [
        {
          "internalType": "bool",
          "name": "",
          "type": "bool"
        }
      ],
      "stateMutability": "nonpayable",
      "type": "function"
    },
    {
      "inputs": [
        {
          "internalType": "address",
          "name": "_token",
          "type": "address"
        },
        {
          "internalType": "address",
          "name": "_staker",
          "type": "address"
        },
        {
          "internalType": "address",
          "name": "_projectWallet",
          "type": "address"
        }
      ],
      "name": "claimPremium",
      "outputs": [
        {
          "internalType": "uint256",
          "name": "",
          "type": "uint256"
        },
        {
          "internalType": "bool",
          "name": "",
          "type": "bool"
        }
      ],
      "stateMutability": "nonpayable",
      "type": "function"
    },
    {
      "inputs": [
        {
          "internalType": "address",
          "name": "_token",
          "type": "address"
        },
        {
          "internalType": "address",
          "name": "_saloonWallet",
          "type": "address"
        }
      ],
      "name": "collectSaloonPremiumFees",
      "outputs": [
        {
          "internalType": "uint256",
          "name": "",
          "type": "uint256"
        }
      ],
      "stateMutability": "nonpayable",
      "type": "function"
    },
    {
      "inputs": [],
      "name": "decimals",
      "outputs": [
        {
          "internalType": "uint256",
          "name": "",
          "type": "uint256"
        }
      ],
      "stateMutability": "view",
      "type": "function"
    },
    {
      "inputs": [],
      "name": "denominator",
      "outputs": [
        {
          "internalType": "uint256",
          "name": "",
          "type": "uint256"
        }
      ],
      "stateMutability": "view",
      "type": "function"
    },
    {
      "inputs": [],
      "name": "desiredAPY",
      "outputs": [
        {
          "internalType": "uint256",
          "name": "",
          "type": "uint256"
        }
      ],
      "stateMutability": "view",
      "type": "function"
    },
    {
      "inputs": [],
      "name": "firstDeposit",
      "outputs": [
        {
          "internalType": "bool",
          "name": "",
          "type": "bool"
        }
      ],
      "stateMutability": "view",
      "type": "function"
    },
    {
      "inputs": [
        {
          "internalType": "address",
          "name": "_manager",
          "type": "address"
        },
        {
          "internalType": "uint256",
          "name": "_decimals",
          "type": "uint256"
        }
      ],
      "name": "initializeImplementation",
      "outputs": [],
      "stateMutability": "nonpayable",
      "type": "function"
    },
    {
      "inputs": [
        {
          "internalType": "address",
          "name": "",
          "type": "address"
        }
      ],
      "name": "lastClaimed",
      "outputs": [
        {
          "internalType": "uint256",
          "name": "",
          "type": "uint256"
        }
      ],
      "stateMutability": "view",
      "type": "function"
    },
    {
      "inputs": [],
      "name": "lastTimePaid",
      "outputs": [
        {
          "internalType": "uint256",
          "name": "",
          "type": "uint256"
        }
      ],
      "stateMutability": "view",
      "type": "function"
    },
    {
      "inputs": [],
      "name": "manager",
      "outputs": [
        {
          "internalType": "address",
          "name": "",
          "type": "address"
        }
      ],
      "stateMutability": "view",
      "type": "function"
    },
    {
      "inputs": [],
      "name": "owner",
      "outputs": [
        {
          "internalType": "address",
          "name": "",
          "type": "address"
        }
      ],
      "stateMutability": "view",
      "type": "function"
    },
    {
      "inputs": [
        {
          "internalType": "address",
          "name": "_token",
          "type": "address"
        },
        {
          "internalType": "address",
          "name": "_saloonWallet",
          "type": "address"
        },
        {
          "internalType": "address",
          "name": "_hunter",
          "type": "address"
        },
        {
          "internalType": "uint256",
          "name": "_amount",
          "type": "uint256"
        }
      ],
      "name": "payBounty",
      "outputs": [
        {
          "internalType": "bool",
          "name": "",
          "type": "bool"
        }
      ],
      "stateMutability": "nonpayable",
      "type": "function"
    },
    {
      "inputs": [],
      "name": "poolCap",
      "outputs": [
        {
          "internalType": "uint256",
          "name": "",
          "type": "uint256"
        }
      ],
      "stateMutability": "view",
      "type": "function"
    },
    {
      "inputs": [],
      "name": "poolCapTimelock",
      "outputs": [
        {
          "internalType": "uint256",
          "name": "timelock",
          "type": "uint256"
        },
        {
          "internalType": "uint256",
          "name": "timeLimit",
          "type": "uint256"
        },
        {
          "internalType": "uint256",
          "name": "amount",
          "type": "uint256"
        },
        {
          "internalType": "bool",
          "name": "executed",
          "type": "bool"
        }
      ],
      "stateMutability": "view",
      "type": "function"
    },
    {
      "inputs": [],
      "name": "premiumBalance",
      "outputs": [
        {
          "internalType": "uint256",
          "name": "",
          "type": "uint256"
        }
      ],
      "stateMutability": "view",
      "type": "function"
    },
    {
      "inputs": [],
      "name": "premiumCommission",
      "outputs": [
        {
          "internalType": "uint256",
          "name": "",
          "type": "uint256"
        }
      ],
      "stateMutability": "view",
      "type": "function"
    },
    {
      "inputs": [],
      "name": "projectDeposit",
      "outputs": [
        {
          "internalType": "uint256",
          "name": "",
          "type": "uint256"
        }
      ],
      "stateMutability": "view",
      "type": "function"
    },
    {
      "inputs": [
        {
          "internalType": "address",
          "name": "_token",
          "type": "address"
        },
        {
          "internalType": "address",
          "name": "_projectWallet",
          "type": "address"
        },
        {
          "internalType": "uint256",
          "name": "_amount",
          "type": "uint256"
        }
      ],
      "name": "projectDepositWithdrawal",
      "outputs": [
        {
          "internalType": "bool",
          "name": "",
          "type": "bool"
        }
      ],
      "stateMutability": "nonpayable",
      "type": "function"
    },
    {
      "inputs": [],
      "name": "renounceOwnership",
      "outputs": [],
      "stateMutability": "nonpayable",
      "type": "function"
    },
    {
      "inputs": [],
      "name": "requiredPremiumBalancePerPeriod",
      "outputs": [
        {
          "internalType": "uint256",
          "name": "",
          "type": "uint256"
        }
      ],
      "stateMutability": "view",
      "type": "function"
    },
    {
      "inputs": [],
      "name": "saloonBountyCommission",
      "outputs": [
        {
          "internalType": "uint256",
          "name": "",
          "type": "uint256"
        }
      ],
      "stateMutability": "view",
      "type": "function"
    },
    {
      "inputs": [],
      "name": "saloonPremiumFees",
      "outputs": [
        {
          "internalType": "uint256",
          "name": "",
          "type": "uint256"
        }
      ],
      "stateMutability": "view",
      "type": "function"
    },
    {
      "inputs": [
        {
          "internalType": "uint256",
          "name": "_newAPY",
          "type": "uint256"
        }
      ],
      "name": "scheduleAPYChange",
      "outputs": [],
      "stateMutability": "nonpayable",
      "type": "function"
    },
    {
      "inputs": [
        {
          "internalType": "uint256",
          "name": "_newPoolCap",
          "type": "uint256"
        }
      ],
      "name": "schedulePoolCapChange",
      "outputs": [],
      "stateMutability": "nonpayable",
      "type": "function"
    },
    {
      "inputs": [
        {
          "internalType": "address",
          "name": "_staker",
          "type": "address"
        },
        {
          "internalType": "uint256",
          "name": "_amount",
          "type": "uint256"
        }
      ],
      "name": "scheduleUnstake",
      "outputs": [
        {
          "internalType": "bool",
          "name": "",
          "type": "bool"
        }
      ],
      "stateMutability": "nonpayable",
      "type": "function"
    },
    {
      "inputs": [
        {
          "internalType": "uint256",
          "name": "_amount",
          "type": "uint256"
        }
      ],
      "name": "scheduleprojectDepositWithdrawal",
      "outputs": [
        {
          "internalType": "bool",
          "name": "",
          "type": "bool"
        }
      ],
      "stateMutability": "nonpayable",
      "type": "function"
    },
    {
      "inputs": [
        {
          "internalType": "address",
          "name": "_token",
          "type": "address"
        },
        {
          "internalType": "address",
          "name": "_projectWallet",
          "type": "address"
        },
        {
          "internalType": "uint256",
          "name": "_desiredAPY",
          "type": "uint256"
        }
      ],
      "name": "setDesiredAPY",
      "outputs": [
        {
          "internalType": "bool",
          "name": "",
          "type": "bool"
        }
      ],
      "stateMutability": "nonpayable",
      "type": "function"
    },
    {
      "inputs": [
        {
          "internalType": "uint256",
          "name": "_amount",
          "type": "uint256"
        }
      ],
      "name": "setPoolCap",
      "outputs": [],
      "stateMutability": "nonpayable",
      "type": "function"
    },
    {
      "inputs": [
        {
          "internalType": "address",
          "name": "_token",
          "type": "address"
        },
        {
          "internalType": "address",
          "name": "_staker",
          "type": "address"
        },
        {
          "internalType": "uint256",
          "name": "_amount",
          "type": "uint256"
        }
      ],
      "name": "stake",
      "outputs": [
        {
          "internalType": "bool",
          "name": "",
          "type": "bool"
        }
      ],
      "stateMutability": "nonpayable",
      "type": "function"
    },
    {
      "inputs": [
        {
          "internalType": "address",
          "name": "",
          "type": "address"
        },
        {
          "internalType": "uint256",
          "name": "",
          "type": "uint256"
        }
      ],
      "name": "staker",
      "outputs": [
        {
          "internalType": "uint256",
          "name": "stakeBalance",
          "type": "uint256"
        },
        {
          "internalType": "uint256",
          "name": "balanceTimeStamp",
          "type": "uint256"
        }
      ],
      "stateMutability": "view",
      "type": "function"
    },
    {
      "inputs": [
        {
          "internalType": "uint256",
          "name": "",
          "type": "uint256"
        }
      ],
      "name": "stakerList",
      "outputs": [
        {
          "internalType": "address",
          "name": "",
          "type": "address"
        }
      ],
      "stateMutability": "view",
      "type": "function"
    },
    {
      "inputs": [
        {
          "internalType": "address",
          "name": "",
          "type": "address"
        }
      ],
      "name": "stakerReimbursement",
      "outputs": [
        {
          "internalType": "uint256",
          "name": "",
          "type": "uint256"
        }
      ],
      "stateMutability": "view",
      "type": "function"
    },
    {
      "inputs": [
        {
          "internalType": "address",
          "name": "",
          "type": "address"
        }
      ],
      "name": "stakerTimelock",
      "outputs": [
        {
          "internalType": "uint256",
          "name": "timelock",
          "type": "uint256"
        },
        {
          "internalType": "uint256",
          "name": "timeLimit",
          "type": "uint256"
        },
        {
          "internalType": "uint256",
          "name": "amount",
          "type": "uint256"
        },
        {
          "internalType": "bool",
          "name": "executed",
          "type": "bool"
        }
      ],
      "stateMutability": "view",
      "type": "function"
    },
    {
      "inputs": [
        {
          "internalType": "uint256",
          "name": "",
          "type": "uint256"
        }
      ],
      "name": "stakersDeposit",
      "outputs": [
        {
          "internalType": "uint256",
          "name": "stakeBalance",
          "type": "uint256"
        },
        {
          "internalType": "uint256",
          "name": "balanceTimeStamp",
          "type": "uint256"
        }
      ],
      "stateMutability": "view",
      "type": "function"
    },
    {
      "inputs": [],
      "name": "stakingPause",
      "outputs": [
        {
          "internalType": "uint256",
          "name": "",
          "type": "uint256"
        }
      ],
      "stateMutability": "view",
      "type": "function"
    },
    {
      "inputs": [
        {
          "internalType": "address",
          "name": "newOwner",
          "type": "address"
        }
      ],
      "name": "transferOwnership",
      "outputs": [],
      "stateMutability": "nonpayable",
      "type": "function"
    },
    {
      "inputs": [
        {
          "internalType": "address",
          "name": "_token",
          "type": "address"
        },
        {
          "internalType": "address",
          "name": "_staker",
          "type": "address"
        },
        {
          "internalType": "uint256",
          "name": "_amount",
          "type": "uint256"
        }
      ],
      "name": "unstake",
      "outputs": [
        {
          "internalType": "bool",
          "name": "",
          "type": "bool"
        }
      ],
      "stateMutability": "nonpayable",
      "type": "function"
    },
    {
      "inputs": [],
      "name": "viewBountyBalance",
      "outputs": [
        {
          "internalType": "uint256",
          "name": "",
          "type": "uint256"
        }
      ],
      "stateMutability": "view",
      "type": "function"
    },
    {
      "inputs": [],
      "name": "viewDesiredAPY",
      "outputs": [
        {
          "internalType": "uint256",
          "name": "",
          "type": "uint256"
        }
      ],
      "stateMutability": "view",
      "type": "function"
    },
    {
      "inputs": [],
      "name": "viewHackerPayout",
      "outputs": [
        {
          "internalType": "uint256",
          "name": "",
          "type": "uint256"
        }
      ],
      "stateMutability": "view",
      "type": "function"
    },
    {
      "inputs": [],
      "name": "viewPoolCap",
      "outputs": [
        {
          "internalType": "uint256",
          "name": "",
          "type": "uint256"
        }
      ],
      "stateMutability": "view",
      "type": "function"
    },
    {
      "inputs": [],
      "name": "viewPremiumBalance",
      "outputs": [
        {
          "internalType": "uint256",
          "name": "",
          "type": "uint256"
        }
      ],
      "stateMutability": "view",
      "type": "function"
    },
    {
      "inputs": [],
      "name": "viewProjecDeposit",
      "outputs": [
        {
          "internalType": "uint256",
          "name": "",
          "type": "uint256"
        }
      ],
      "stateMutability": "view",
      "type": "function"
    },
    {
      "inputs": [],
      "name": "viewRequirePremiumBalance",
      "outputs": [
        {
          "internalType": "uint256",
          "name": "",
          "type": "uint256"
        }
      ],
      "stateMutability": "view",
      "type": "function"
    },
    {
      "inputs": [],
      "name": "viewStakersDeposit",
      "outputs": [
        {
          "internalType": "uint256",
          "name": "",
          "type": "uint256"
        }
      ],
      "stateMutability": "view",
      "type": "function"
    },
    {
      "inputs": [
        {
          "internalType": "address",
          "name": "_staker",
          "type": "address"
        }
      ],
      "name": "viewUserStakingBalance",
      "outputs": [
        {
          "internalType": "uint256",
          "name": "",
          "type": "uint256"
        },
        {
          "internalType": "uint256",
          "name": "",
          "type": "uint256"
        }
      ],
      "stateMutability": "view",
      "type": "function"
    },
    {
      "inputs": [
        {
          "internalType": "address",
          "name": "_staker",
          "type": "address"
        }
      ],
      "name": "viewUserTimelock",
      "outputs": [
        {
          "internalType": "uint256",
          "name": "timelock",
          "type": "uint256"
        },
        {
          "internalType": "uint256",
          "name": "amount",
          "type": "uint256"
        },
        {
          "internalType": "bool",
          "name": "executed",
          "type": "bool"
        }
      ],
      "stateMutability": "view",
      "type": "function"
    },
    {
      "inputs": [],
      "name": "viewcurrentAPY",
      "outputs": [
        {
          "internalType": "uint256",
          "name": "",
          "type": "uint256"
        }
      ],
      "stateMutability": "view",
      "type": "function"
    },
    {
      "inputs": [],
      "name": "withdrawalTimelock",
      "outputs": [
        {
          "internalType": "uint256",
          "name": "timelock",
          "type": "uint256"
        },
        {
          "internalType": "uint256",
          "name": "timeLimit",
          "type": "uint256"
        },
        {
          "internalType": "uint256",
          "name": "amount",
          "type": "uint256"
        },
        {
          "internalType": "bool",
          "name": "executed",
          "type": "bool"
        }
      ],
      "stateMutability": "view",
      "type": "function"
    }
  ],
  "bytecode": {
    "object": "0x60806040523480156200001157600080fd5b506200001d3362000023565b62000073565b600080546001600160a01b038381166001600160a01b0319831681178455604051919092169283917f8be0079c531659141344cd1fd0a4f28419497f9722a3daafe3b4186f6b6457e09190a35050565b614d2480620000836000396000f3fe608060405234801561001057600080fd5b50600436106103995760003560e01c806372d26951116101e9578063b4d1d7951161010f578063d5cb8669116100ad578063e45080e61161007c578063e45080e6146107d4578063f2fde38b146107dc578063ff45d4c0146107ef578063ffa1ad74146107f757600080fd5b8063d5cb86691461079d578063d6c47be7146107a5578063d835f535146107ae578063ddaaae03146107c157600080fd5b8063c790ef82116100e9578063c790ef821461075c578063cc12c3111461076f578063d084b03a14610782578063d26c90a91461078a57600080fd5b8063b4d1d79514610736578063b954dc5714610740578063bf6eac2f1461074957600080fd5b80638aa82e8211610187578063a194c3b611610156578063a194c3b614610700578063a4bf70bd14610713578063a5f5be541461071c578063aaf5eb681461072e57600080fd5b80638aa82e82146106c05780638da5cb5b146106d357806396ce0795146106e45780639e4bfaa5146106ed57600080fd5b806378eb46fd116101c357806378eb46fd1461068b57806380d440ff1461069357806383914540146106ac57806384dc10b4146106b757600080fd5b806372d269511461063757806373927c1114610640578063769966e81461065357600080fd5b80633d850fb2116102ce5780634c3bdee01161026c5780635a898d031161023b5780635a898d03146105f057806360829f8a14610603578063715018a614610616578063728ecaf81461061e57600080fd5b80634c3bdee0146105b6578063503cb917146105bf5780635121ac9d146105d457806355455df2146105e757600080fd5b806344ebc03d116102a857806344ebc03d1461057f578063481c6a75146105885780634a94bcb31461059b5780634b5df6cc146105a357600080fd5b80633d850fb2146105435780633f6fc7981461054c578063419b7bd71461056c57600080fd5b80632d7807a91161033b5780633147096d116103155780633147096d146104e0578063348e50c614610503578063383639b31461052e5780633a5b01721461053657600080fd5b80632d7807a9146104565780633065f450146104af578063313ce567146104d757600080fd5b806316e17b8d1161037757806316e17b8d146103e35780631a89cabd146103eb5780631e27970f1461041357806320d830861461044e57600080fd5b8063013eba921461039e5780630ba68f1a146103d15780631104ec25146103da575b600080fd5b6103be6103ac36600461483d565b600f6020526000908152604090205481565b6040519081526020015b60405180910390f35b6103be60045481565b6103be600b5481565b6103be6107ff565b6103fe6103f936600461483d565b6108b7565b604080519283526020830191909152016103c8565b601b54601c54601d54601e5461042c9392919060ff1684565b60408051948552602085019390935291830152151560608201526080016103c8565b6008546103be565b61049261046436600461483d565b6001600160a01b0316600090815260116020526040902080546002820154600390920154909260ff90911690565b6040805193845260208401929092521515908201526060016103c8565b6104c26104bd366004614858565b610976565b604080519283529015156020830152016103c8565b6103be60025481565b6104f36104ee36600461489b565b610b83565b60405190151581526020016103c8565b6105166105113660046148d7565b610c16565b6040516001600160a01b0390911681526020016103c8565b600c546103be565b6025546104f39060ff1681565b6103be60075481565b6103be61055a36600461483d565b60126020526000908152604090205481565b6104f361057a36600461489b565b610c40565b6103be60085481565b600154610516906001600160a01b031681565b6103be610d3c565b6104f36105b13660046148d7565b610e2b565b6103be600d5481565b6105d26105cd3660046148d7565b610eef565b005b6103be6105e23660046148f0565b610f38565b6103be600e5481565b6105d26105fe366004614923565b610f8c565b6104f361061136600461489b565b61111d565b6105d26115a6565b601754601854601954601a5461042c9392919060ff1684565b6103be600c5481565b6104f361064e36600461494d565b6115ba565b61042c61066136600461483d565b60116020526000908152604090208054600182015460028301546003909301549192909160ff1684565b6009546103be565b60135460145460155460165461042c9392919060ff1684565b6103be6301e1338081565b6103be60095481565b6104f36106ce3660046148f0565b611ba9565b6000546001600160a01b0316610516565b6103be60055481565b6103fe6106fb366004614923565b6121ac565b6103fe61070e3660046148d7565b6121e8565b6103be60065481565b6025546104f390610100900460ff1681565b6103be606481565b6103be62093a8081565b6103be600a5481565b6104f361075736600461489b565b612216565b6104f361076a366004614923565b6126fb565b6104f361077d36600461489b565b61289c565b600d546103be565b6105d26107983660046148d7565b612cd7565b6103be612d20565b6103be60035481565b6105d26107bc3660046148d7565b612d3f565b6103fe6107cf3660046148d7565b61316f565b6103be61317f565b6105d26107ea36600461483d565b613243565b600a546103be565b6103be600181565b6000806021805480602002602001604051908101604052809291908181526020016000905b8282101561086a57838290600052602060002090600202016040518060400160405290816000820154815260200160018201548152505081526020019060010190610824565b505082519293505050806108815760009250505090565b602161088e6001836149ae565b8154811061089e5761089e6149c5565b9060005260206000209060020201600001549250505090565b6001600160a01b0381166000908152601060205260408120548190806108e35750600093849350915050565b6001600160a01b03841660009081526010602052604090206109066001836149ae565b81548110610916576109166149c5565b600091825260208083206002909202909101546001600160a01b03871683526010909152604090912061094a6001846149ae565b8154811061095a5761095a6149c5565b9060005260206000209060020201600101549250925050915091565b60015460009081906001600160a01b031633146109ae5760405162461bcd60e51b81526004016109a5906149db565b60405180910390fd5b6001600160a01b0384166000908152600f6020908152604080832054601083528184208054835181860281018601909452808452919493909190849084015b82821015610a33578382906000526020600020906002020160405180604001604052908160008201548152602001600182015481525050815260200190600101906109ed565b5050825160085493945092915060009050610a4f8585856132bc565b9050600060055460045483610a649190614a09565b610a6e9190614a28565b9050610a7a81836149ae565b91508180841015610ae957610a8f8c8b611ba9565b610ae9576001600160a01b03808c1660009081526012602052604090205490610abb908e168d8361333f565b506001600160a01b038c1660009081526012602052604081208190559099509750610b7b9650505050505050565b6001600160a01b038b16600090815260126020526040902054610b0c9082614a4a565b6001600160a01b03808d16600090815260126020526040812055909150610b36908d168c8361333f565b508260086000828254610b4991906149ae565b90915550506001600160a01b038b166000908152600f60205260409020429055975060019650610b7b95505050505050565b935093915050565b6001546000906001600160a01b03163314610bb05760405162461bcd60e51b81526004016109a5906149db565b610bc56001600160a01b0385168430856133af565b50602554610100900460ff16610bf557610be262093a8042614a4a565b600e556025805461ff0019166101001790555b81600c6000828254610c079190614a4a565b90915550600195945050505050565b601f8181548110610c2657600080fd5b6000918252602090912001546001600160a01b0316905081565b6001546000906001600160a01b03163314610c6d5760405162461bcd60e51b81526004016109a5906149db565b60408051608081018252601b54808252601c546020830152601d5492820192909252601e5460ff16151560608201529042118015610cae5750428160200151115b8015610cbc57506060810151155b8015610ccc575082816040015110155b8015610cd85750805115155b610cf45760405162461bcd60e51b81526004016109a590614a62565b601e805460ff19166001179055600c8054849190600090610d169084906149ae565b90915550610d3090506001600160a01b038616858561333f565b50600195945050505050565b6000806021805480602002602001604051908101604052809291908181526020016000905b82821015610da757838290600052602060002090600202016040518060400160405290816000820154815260200160018201548152505081526020019060010190610d61565b50508251929350600091505081610dc15750600c54610df9565b82610dcd6001846149ae565b81518110610ddd57610ddd6149c5565b602002602001015160000151600c54610df69190614a4a565b90505b600060055460035483610e0c9190614a09565b610e169190614a28565b9050610e2281836149ae565b94505050505090565b6001546000906001600160a01b03163314610e585760405162461bcd60e51b81526004016109a5906149db565b81600c541015610eaa5760405162461bcd60e51b815260206004820152601a60248201527f416d6f756e7420626967676572207468616e206465706f73697400000000000060448201526064016109a5565b610eb762093a8042614a4a565b601b55610ec762093a8042614a4a565b610ed4906203f480614a4a565b601c5550601d819055601e805460ff1916905560015b919050565b6001546001600160a01b03163314610f195760405162461bcd60e51b81526004016109a5906149db565b610f2662093a8042614a4a565b601755601955601a805460ff19169055565b6001546000906001600160a01b03163314610f655760405162461bcd60e51b81526004016109a5906149db565b600780546000909155610f826001600160a01b038516848361333f565b5090505b92915050565b600054600160a81b900460ff1615808015610fb457506000546001600160a01b90910460ff16105b80610fd55750303b158015610fd55750600054600160a01b900460ff166001145b6110385760405162461bcd60e51b815260206004820152602e60248201527f496e697469616c697a61626c653a20636f6e747261637420697320616c72656160448201526d191e481a5b9a5d1a585b1a5e995960921b60648201526084016109a5565b6000805460ff60a01b1916600160a01b1790558015611065576000805460ff60a81b1916600160a81b1790555b600180546001600160a01b0319166001600160a01b038516179055600282905561109082600a614b8f565b61109b90600a614a09565b6003556110a982600a614b8f565b6110b490600a614a09565b6004556110c282600a614b8f565b6110cd906064614a09565b6005558015611118576000805460ff60a81b19169055604051600181527f7f26b83ff96e1f2b6a682f133852f6798a09c465da95921460cefb38474024989060200160405180910390a15b505050565b6001546000906001600160a01b0316331461114a5760405162461bcd60e51b81526004016109a5906149db565b60006021805480602002602001604051908101604052809291908181526020016000905b828210156111b45783829060005260206000209060020201604051806040016040529081600082015481526020016001820154815250508152602001906001019061116e565b5050505090506000600182516111ca91906149ae565b905060095460001415806111fc57508181815181106111eb576111eb6149c5565b602002602001015160000151600a54115b156112cf576001600160a01b038516600090815260116020908152604091829020825160808101845281548082526001830154938201939093526002820154938101939093526003015460ff1615156060830152421180156112615750428160200151115b801561126f57506060810151155b801561127f575084816040015110155b801561128b5750805115155b6112a75760405162461bcd60e51b81526004016109a590614b9b565b506001600160a01b0385166000908152601160205260409020600301805460ff191660011790555b6001600160a01b0385166000908152601060205260408120546112f4906001906149ae565b9050611313604051806040016040528060008152602001600081525090565b426020808301919091526001600160a01b038816600090815260109091526040902080548791908490811061134a5761134a6149c5565b90600052602060002090600202016000015461136691906149ae565b8152601f805460408051602080840282018101909252828152600093909290918301828280156113bf57602002820191906000526020600020905b81546001600160a01b031681526001909101906020018083116113a1575b505050505090508160000151600014156114c157805160005b818110156114be57896001600160a01b03168382815181106113fc576113fc6149c5565b60200260200101516001600160a01b031614156114b6576000836114216001856149ae565b81518110611431576114316149c5565b6020026020010151905080601f838154811061144f5761144f6149c5565b9060005260206000200160006101000a8154816001600160a01b0302191690836001600160a01b03160217905550601f80548061148e5761148e614bdc565b600082815260209020810160001990810180546001600160a01b0319169055019055506114be565b6001016113d8565b50505b6001600160a01b038816600090815260106020908152604080832080546001818101835591855283852087516002909202019081558684015191015580518082019091528281529081019190915287868681518110611522576115226149c5565b60200260200101516000015161153891906149ae565b81524260208201908152602180546001810182556000919091528251600080516020614caf8339815191526002909202918201559051600080516020614ccf833981519152909101556115956001600160a01b038b168a8a61333f565b5060019a9950505050505050505050565b6115ae6133f5565b6115b8600061344f565b565b6001546000906001600160a01b031633146115e75760405162461bcd60e51b81526004016109a5906149db565b60006021805480602002602001604051908101604052809291908181526020016000905b828210156116515783829060005260206000209060020201604051806040016040529081600082015481526020016001820154815250508152602001906001019061160b565b50505050905060006001825161166791906149ae565b90506000601f8054806020026020016040519081016040528092919081815260200182805480156116c157602002820191906000526020600020905b81546001600160a01b031681526001909101906020018083116116a3575b505083519394505082159150611b6f905057858484815181106116e6576116e66149c5565b60200260200101516000015110611a245760008685858151811061170c5761170c6149c5565b60200260200101516000015161172291906149ae565b9050611741604051806040016040528060008152602001600081525090565b426020820152818152816118465760005b838110156117dc576040805180820190915260008082524260208301528651879084908110611783576117836149c5565b6020908102919091018101516001600160a01b0316600090815260108252604081208054600181810183559183529183902085516002909302019182559390910151920191909155506117d581614bf2565b9050611752565b506117e98b8a8c8b61349f565b506021805460018101825560009182528251600080516020614caf8339815191526002909202918201556020830151600080516020614ccf8339815191529091015561183790601f906147f4565b60019650505050505050611ba1565b600086868151811061185a5761185a6149c5565b602002602001015160000151600254600a6118759190614b8f565b61187f908b614a09565b6118899190614a28565b905060005b848110156119c45760008682815181106118aa576118aa6149c5565b6020908102919091018101516001600160a01b0381166000908152601090925260408220549092506118de906001906149ae565b6001600160a01b0383166000908152601060205260408120805492935090918390811061190d5761190d6149c5565b906000526020600020906002020160000154905061193e604051806040016040528060008152602001600081525090565b42602082015260025461195290600a614b8f565b61195c8784614a09565b6119669190614a28565b61197090836149ae565b81526001600160a01b0390931660009081526010602090815260408220805460018181018355918452928290208651600290940201928355940151930192909255506119bd905081614bf2565b905061188e565b50602180546001810182556000919091528251600080516020614caf8339815191526002909202918201556020830151600080516020614ccf83398151915290910155611a138c8b8d8c61349f565b506001975050505050505050611ba1565b60005b81811015611ab1576040805180820190915260008082524260208301528451859084908110611a5857611a586149c5565b6020908102919091018101516001600160a01b031660009081526010825260408120805460018181018355918352918390208551600290930201918255939091015192019190915550611aaa81614bf2565b9050611a27565b50611abe601f60006147f4565b6000848481518110611ad257611ad26149c5565b60200260200101516000015187611ae991906149ae565b905080600c6000828254611afd91906149ae565b909155505060408051808201909152600080825242602083019081526021805460018101825592528251600080516020614caf83398151915260029093029283015551600080516020614ccf83398151915290910155611b5f8b8a8c8b61349f565b5060019650505050505050611ba1565b611b7b89888a8961349f565b5085600c6000828254611b8e91906149ae565b9091555060019550611ba1945050505050565b949350505050565b6001546000906001600160a01b0316331480611bc457503330145b611c105760405162461bcd60e51b815260206004820152601c60248201527f4f6e6c79206d616e61676572206f722073656c6620616c6c6f7765640000000060448201526064016109a5565b60006021805480602002602001604051908101604052809291908181526020016000905b82821015611c7a57838290600052602060002090600202016040518060400160405290816000820154815260200160018201548152505081526020019060010190611c34565b50508251600b54600954949550909390925090506000611c9c82858588613504565b6040516323b872dd60e01b81526001600160a01b03898116600483015230602483015260448201839052919250908916906323b872dd906064016020604051808303816000875af1925050508015611d11575060408051601f3d908101601f19168201909252611d0e91810190614c0d565b60015b611f27576000611d1f612d20565b9050611d3e604051806040016040528060008152602001600081525090565b42815260208082018381528154600181018355600083815284517fc97bfaf2f8ee708c303a06d134f5ecd8389ae0432af62dc132a24118292866bb60029093029283015591517fc97bfaf2f8ee708c303a06d134f5ecd8389ae0432af62dc132a24118292866bc909101556009849055601f805460408051828602810186019091528181529293830182828015611dfe57602002820191906000526020600020905b81546001600160a01b03168152600190910190602001808311611de0575b50505050509050600081511115611f1657600060018251611e1f91906149ae565b905060005b81811015611f13576000838281518110611e4057611e406149c5565b6020908102919091018101516001600160a01b038116600090815260109092526040822054909250611e74906001906149ae565b9050611e93604051806040016040528060008152602001600081525090565b6001600160a01b0383166000908152601060205260409020805483908110611ebd57611ebd6149c5565b60009182526020808320600292830201548452428482019081526001600160a01b039096168352601081526040832080546001818101835591855291909320935191029092019182559251908301555001611e24565b50505b600098505050505050505050610f86565b8061213f576000611f36612d20565b9050611f55604051806040016040528060008152602001600081525090565b42815260208082018381528154600181018355600083815284517fc97bfaf2f8ee708c303a06d134f5ecd8389ae0432af62dc132a24118292866bb60029093029283015591517fc97bfaf2f8ee708c303a06d134f5ecd8389ae0432af62dc132a24118292866bc909101556009849055601f80546040805182860281018601909152818152929383018282801561201557602002820191906000526020600020905b81546001600160a01b03168152600190910190602001808311611ff7575b5050505050905060008151111561212d5760006001825161203691906149ae565b905060005b8181101561212a576000838281518110612057576120576149c5565b6020908102919091018101516001600160a01b03811660009081526010909252604082205490925061208b906001906149ae565b90506120aa604051806040016040528060008152602001600081525090565b6001600160a01b03831660009081526010602052604090208054839081106120d4576120d46149c5565b60009182526020808320600292830201548452428482019081526001600160a01b03909616835260108152604083208054600181810183559185529190932093519102909201918255925190830155500161203b565b50505b60009950505050505050505050610f86565b506000600554600454836121539190614a09565b61215d9190614a28565b905080600760008282546121719190614a4a565b92505081905550816008600082825461218a9190614a4a565b909155505042600b5550506025805460ff191690555060019695505050505050565b601060205281600052604060002081815481106121c857600080fd5b600091825260209091206002909102018054600190910154909250905082565b602181815481106121f857600080fd5b60009182526020909120600290910201805460019091015490915082565b6001546000906001600160a01b031633146122435760405162461bcd60e51b81526004016109a5906149db565b42600e54106122945760405162461bcd60e51b815260206004820152601960248201527f5374616b696e67206e6f74206f70656e206a757374207965740000000000000060448201526064016109a5565b60006021805480602002602001604051908101604052809291908181526020016000905b828210156122fe578382906000526020600020906002020160405180604001604052908160008201548152602001600182015481525050815260200190600101906122b8565b5050825192935050508061235e57604080518082019091526000808252602082018181526021805460018101825592529151600080516020614caf8339815191526002909202918201559051600080516020614ccf833981519152909101555b602154600090612370906001906149ae565b9050600a548560218381548110612389576123896149c5565b9060005260206000209060020201600001546123a59190614a4a565b11156123f35760405162461bcd60e51b815260206004820152601960248201527f5374616b696e6720506f6f6c20616c72656164792066756c6c0000000000000060448201526064016109a5565b6001600160a01b0386166000908152601060205260409020548061245d57604080518082018252600080825260208083018281526001600160a01b038c16835260108252938220805460018082018355918452919092209251600290910290920191825591519101555b6001600160a01b038716600090815260106020526040812054612482906001906149ae565b6001600160a01b0389166000908152601060205260409020805491925090829081106124b0576124b06149c5565b9060005260206000209060020201600001546000141561251657601f80546001810182556000919091527fa03837a25210ee280c2113ff4b77ca23440b19d4866cca721c801278fd08d8070180546001600160a01b0319166001600160a01b038a161790555b6040805180820182526000808252426020808401919091526001600160a01b038c1682526010905291909120805489919084908110612557576125576149c5565b9060005260206000209060020201600001546125739190614a4a565b8152826125cb576001600160a01b03891660009081526010602052604090208054829190849081106125a7576125a76149c5565b60009182526020918290208351600290920201908155910151600190910155612608565b6001600160a01b03891660009081526010602090815260408220805460018181018355918452928290208451600290940201928355908301519101555b60408051808201909152600080825260208201528860218681548110612630576126306149c5565b90600052602060002090600202016000015461264c9190614a4a565b81524260208201528561269157806021868154811061266d5761266d6149c5565b600091825260209182902083516002909202019081559101516001909101556126d4565b602180546001810182556000919091528151600080516020614caf8339815191526002909202918201556020820151600080516020614ccf833981519152909101555b6126e96001600160a01b038c168b308c6133af565b5060019b9a5050505050505050505050565b6001546000906001600160a01b031633146127285760405162461bcd60e51b81526004016109a5906149db565b6001600160a01b038316600090815260106020908152604080832080548251818502810185019093528083529192909190849084015b828210156127a45783829060005260206000209060020201604051806040016040529081600082015481526020016001820154815250508152602001906001019061275e565b5050505090506000600182516127ba91906149ae565b9050838282815181106127cf576127cf6149c5565b60200260200101516000015110156128205760405162461bcd60e51b8152602060048201526014602482015273496e73756669636369656e742062616c616e636560601b60448201526064016109a5565b61282d62093a8042614a4a565b6001600160a01b03861660009081526011602052604090205561285362093a8042614a4a565b612860906203f480614a4a565b6001600160a01b039590951660009081526011602052604090206001808201969096556002810194909455505050600301805460ff1916905590565b6001546000906001600160a01b03163314806128b757503330145b6129035760405162461bcd60e51b815260206004820152601c60248201527f4f6e6c79206d616e61676572206f722073656c6620616c6c6f7765640000000060448201526064016109a5565b600954156129915760408051608081018252601754808252601854602083015260195492820192909252601a5460ff1615156060820152904211801561294b57506060810151155b801561295a5750828160400151145b80156129665750805115155b6129825760405162461bcd60e51b81526004016109a590614b9b565b50601a805460ff191660011790555b600060085490506000806021805480602002602001604051908101604052809291908181526020016000905b82821015612a03578382906000526020600020906002020160405180604001604052908160008201548152602001600182015481525050815260200190600101906129bd565b505082519293505081159050612a535781612a1f6001836149ae565b81518110612a2f57612a2f6149c5565b602002602001015160000151600014612a4e57612a4c8888611ba9565b505b612ad2565b62093a806301e1338060055488600a54612a6d9190614a09565b612a779190614a28565b612a819190614a28565b612a8b9190614a09565b925082841015612ad2576000612aa185856149ae565b9050612ab86001600160a01b038a168930846133af565b508060086000828254612acb9190614a4a565b9091555050505b600d83905560408051808201825242815260208082018981528154600181018355600083815284517fc97bfaf2f8ee708c303a06d134f5ecd8389ae0432af62dc132a24118292866bb60029093029283015591517fc97bfaf2f8ee708c303a06d134f5ecd8389ae0432af62dc132a24118292866bc9091015560098a9055601f8054855181850281018501909652808652939491939192909190830182828015612ba557602002820191906000526020600020905b81546001600160a01b03168152600190910190602001808311612b87575b50505050509050600081511115612cbd57600060018251612bc691906149ae565b905060005b81811015612cba576000838281518110612be757612be76149c5565b6020908102919091018101516001600160a01b038116600090815260109092526040822054909250612c1b906001906149ae565b9050612c3a604051806040016040528060008152602001600081525090565b6001600160a01b0383166000908152601060205260409020805483908110612c6457612c646149c5565b60009182526020808320600292830201548452428482019081526001600160a01b039096168352601081526040832080546001818101835591855291909320935191029092019182559251908301555001612bcb565b50505b50506025805460ff19169055506001979650505050505050565b6001546001600160a01b03163314612d015760405162461bcd60e51b81526004016109a5906149db565b612d0e62093a8042614a4a565b6013556015556016805460ff19169055565b600080600a546064600854612d359190614a09565b610f869190614a28565b6001546001600160a01b03163314612d695760405162461bcd60e51b81526004016109a5906149db565b600a5415612df7576040805160808101825260135480825260145460208301526015549282019290925260165460ff16151560608201529042118015612db157506060810151155b8015612dc05750818160400151145b8015612dcc5750805115155b612de85760405162461bcd60e51b81526004016109a590614a62565b506016805460ff191660011790555b60006021805480602002602001604051908101604052809291908181526020016000905b82821015612e6157838290600052602060002090600202016040518060400160405290816000820154815260200160018201548152505081526020019060010190612e1b565b50508251929350508115905061316857600082612e7f6001846149ae565b81518110612e8f57612e8f6149c5565b602002602001015160000151905083811115613166576000601f805480602002602001604051908101604052809291908181526020018280548015612efd57602002820191906000526020600020905b81546001600160a01b03168152600190910190602001808311612edf575b5050835193945060009250612f169150889050856149ae565b905060005b828110156130d5576000848281518110612f3757612f376149c5565b6020908102919091018101516001600160a01b038116600090815260109092526040822054909250612f6b906001906149ae565b600254909150600088612f7f83600a614b8f565b6001600160a01b0386166000908152601060205260409020805486908110612fa957612fa96149c5565b906000526020600020906002020160000154612fc59190614a09565b612fcf9190614a28565b90506000612fde83600a614b8f565b612fe88389614a09565b612ff29190614a28565b6001600160a01b03861660009081526012602052604081208054929350839290919061301f908490614a4a565b909155505060408051808201909152600080825260208201526001600160a01b0386166000908152601060205260409020805483919087908110613065576130656149c5565b90600052602060002090600202016000015461308191906149ae565b81524260208083019182526001600160a01b03909716600090815260108852604081208054600181810183559183529890912092516002909802909201968755519581019590955550505091019050612f1b565b50604080518082019091526000815242602082015281876130f76001896149ae565b81518110613107576131076149c5565b60200260200101516000015161311d91906149ae565b8152602180546001810182556000919091528151600080516020614caf833981519152600290920291820155602090910151600080516020614ccf833981519152909101555050505b505b5050600a55565b602081815481106121f857600080fd5b6000806021805480602002602001604051908101604052809291908181526020016000905b828210156131ea578382906000526020600020906002020160405180604001604052908160008201548152602001600182015481525050815260200190600101906131a4565b505082519293506000915050816132045750600c5461323c565b826132106001846149ae565b81518110613220576132206149c5565b602002602001015160000151600c546132399190614a4a565b90505b9392505050565b61324b6133f5565b6001600160a01b0381166132b05760405162461bcd60e51b815260206004820152602660248201527f4f776e61626c653a206e6577206f776e657220697320746865207a65726f206160448201526564647265737360d01b60648201526084016109a5565b6132b98161344f565b50565b6020805460408051828402810184019091528181526000928392838383015b82821015613321578382906000526020600020906002020160405180604001604052908160008201548152602001600182015481525050815260200190600101906132db565b505050509050600061333586868685613cab565b9695505050505050565b6040516001600160a01b0383166024820152604481018290526000906133a590859063a9059cbb60e01b906064015b60408051601f198184030181529190526020810180516001600160e01b03166001600160e01b031990931692909217909152613ed2565b5060019392505050565b6040516001600160a01b03808516602483015283166044820152606481018290526000906133ea9086906323b872dd60e01b9060840161336e565b506001949350505050565b6000546001600160a01b031633146115b85760405162461bcd60e51b815260206004820181905260248201527f4f776e61626c653a2063616c6c6572206973206e6f7420746865206f776e657260448201526064016109a5565b600080546001600160a01b038381166001600160a01b0319831681178455604051919092169283917f8be0079c531659141344cd1fd0a4f28419497f9722a3daafe3b4186f6b6457e09190a35050565b600080600554600354846134b39190614a09565b6134bd9190614a28565b905060006134cb82856149ae565b90506134e16001600160a01b038816878361333f565b506134f66001600160a01b038816868461333f565b506001979650505050505050565b60008060005b8581101561357d5784848281518110613525576135256149c5565b602002602001015160200151111561356d57602380546001810182556000919091527fd57b2b5166478fd4318d2acc6cc2c704584312bdd8781b32d5d06abda57f4230018190555b61357681614bf2565b905061350a565b50600060238054806020026020016040519081016040528092919081815260200182805480156135cc57602002820191906000526020600020905b8154815260200190600101908083116135b8575b505083519394506000925050508161364d576135e887426149ae565b9050806301e133806005548b8960018d61360291906149ae565b81518110613612576136126149c5565b6020026020010151600001516136289190614a09565b6136329190614a28565b61363c9190614a28565b6136469190614a09565b9350613c92565b816001141561382e57866136a4578560008151811061366e5761366e6149c5565b6020026020010151602001514261368591906149ae565b9050806301e133806005548b89600081518110613612576136126149c5565b8686846000815181106136b9576136b96149c5565b6020026020010151815181106136d1576136d16149c5565b6020026020010151602001516136e791906149ae565b9050806301e133806005548b89600188600081518110613709576137096149c5565b602002602001015161371b91906149ae565b8151811061372b5761372b6149c5565b6020026020010151600001516137419190614a09565b61374b9190614a28565b6137559190614a28565b61375f9190614a09565b6137699085614a4a565b935060008684600081518110613781576137816149c5565b602002602001015181518110613799576137996149c5565b602002602001015160200151426137b091906149ae565b9050806301e133806005548c8a886000815181106137d0576137d06149c5565b6020026020010151815181106137e8576137e86149c5565b6020026020010151600001516137fe9190614a09565b6138089190614a28565b6138129190614a28565b61381c9190614a09565b6138269086614a4a565b945050613c92565b60005b82811015613c905787613992576138496001846149ae565b81141561390e5786848281518110613863576138636149c5565b60200260200101518151811061387b5761387b6149c5565b6020026020010151602001514261389291906149ae565b9150816301e133806005548c8a8886815181106138b1576138b16149c5565b6020026020010151815181106138c9576138c96149c5565b6020026020010151600001516138df9190614a09565b6138e99190614a28565b6138f39190614a28565b6138fd9190614a09565b6139079086614a4a565b9450613c80565b86848281518110613921576139216149c5565b602002602001015181518110613939576139396149c5565b60200260200101516020015187858360016139549190614a4a565b81518110613964576139646149c5565b60200260200101518151811061397c5761397c6149c5565b60200260200101516020015161389291906149ae565b80613b5f5787878583815181106139ab576139ab6149c5565b6020026020010151815181106139c3576139c36149c5565b6020026020010151602001516139d991906149ae565b9150816301e133806005548c8a60018987815181106139fa576139fa6149c5565b6020026020010151613a0c91906149ae565b81518110613a1c57613a1c6149c5565b602002602001015160000151613a329190614a09565b613a3c9190614a28565b613a469190614a28565b613a509190614a09565b613a5a9086614a4a565b9450600087858381518110613a7157613a716149c5565b602002602001015181518110613a8957613a896149c5565b60200260200101516020015188868481518110613aa857613aa86149c5565b60200260200101516001613abc9190614a4a565b81518110613acc57613acc6149c5565b602002602001015160200151613ae291906149ae565b9050806301e133806005548d8b898781518110613b0157613b016149c5565b602002602001015181518110613b1957613b196149c5565b602002602001015160000151613b2f9190614a09565b613b399190614a28565b613b439190614a28565b613b4d9190614a09565b613b579087614a4a565b955050613c80565b613b6a6001846149ae565b811415613b845786848281518110613863576138636149c5565b86848281518110613b9757613b976149c5565b602002602001015181518110613baf57613baf6149c5565b6020026020010151602001518785836001613bca9190614a4a565b81518110613bda57613bda6149c5565b602002602001015181518110613bf257613bf26149c5565b602002602001015160200151613c0891906149ae565b9150816301e133806005548c8a888681518110613c2757613c276149c5565b602002602001015181518110613c3f57613c3f6149c5565b602002602001015160000151613c559190614a09565b613c5f9190614a28565b613c699190614a28565b613c739190614a09565b613c7d9086614a4a565b94505b613c8981614bf2565b9050613831565b505b613c9e602360006147f4565b5091979650505050505050565b805160009081808088613d7f5760005b84811015613d7957868181518110613cd557613cd56149c5565b6020026020010151600001519250600185613cf091906149ae565b811415613cff57429150613d2a565b86613d0b826001614a4a565b81518110613d1b57613d1b6149c5565b60200260200101516000015191505b6000878281518110613d3e57613d3e6149c5565b6020026020010151602001519050613d5b8185858d8d6000613fa4565b613d659086614a4a565b94505080613d7290614bf2565b9050613cbb565b50613ec5565b60005b84811015613e285789878281518110613d9d57613d9d6149c5565b6020026020010151600001511115613e18576022613dbc6001836149ae565b815460018181018455600093845260209093200155613ddb90866149ae565b811415613e1857602280546001810182556000919091527f61035b26e3e9eee00e0d72fd1ee8ddca6894550dca6916ea2ac6baa90d11e510018190555b613e2181614bf2565b9050613d82565b5060006022805480602002602001604051908101604052809291908181526020018280548015613e7757602002820191906000526020600020905b815481526020019060010190808311613e63575b5050835193945050508115159050613ea757613e9689878d8d8c6144d8565b613ea09086614a4a565b9450613ec2565b613eb589878d8d8c8761459a565b613ebf9086614a4a565b94505b50505b5090979650505050505050565b6000613f27826040518060400160405280602081526020017f5361666545524332303a206c6f772d6c6576656c2063616c6c206661696c6564815250856001600160a01b03166146d49092919063ffffffff16565b8051909150156111185780806020019051810190613f459190614c0d565b6111185760405162461bcd60e51b815260206004820152602a60248201527f5361666545524332303a204552433230206f7065726174696f6e20646964206e6044820152691bdd081cdd58d8d9595960b21b60648201526084016109a5565b6000808088815b868110156140475789888281518110613fc657613fc66149c5565b60200260200101516020015110158015613ffc575088888281518110613fee57613fee6149c5565b602002602001015160200151105b1561403757602480546001810182556000919091527f7cd332d19b93bcabe3cce7ca0c18a052f57e5fd03b4758a09f30f5ddc4b22ec4018190555b61404081614bf2565b9050613fab565b506000602480548060200260200160405190810160405280929190818152602001828054801561409657602002820191906000526020600020905b815481526020019060010190808311614082575b5050835193945050508115159050614117576140b28b426149ae565b9350836301e13380600554858c60018d6140cc91906149ae565b815181106140dc576140dc6149c5565b6020026020010151600001516140f29190614a09565b6140fc9190614a28565b6141069190614a28565b6141109190614a09565b94506144bb565b6000805b828110156144b85761412e6001846149ae565b81141561417e578a848281518110614148576141486149c5565b602002602001015181518110614160576141606149c5565b6020026020010151602001518c61417791906149ae565b9550614205565b8a848281518110614191576141916149c5565b6020026020010151815181106141a9576141a96149c5565b6020026020010151602001518b858360016141c49190614a4a565b815181106141d4576141d46149c5565b6020026020010151815181106141ec576141ec6149c5565b60200260200101516020015161420291906149ae565b95505b600189151514156144305760008161442a578d8c86848151811061422b5761422b6149c5565b602002602001015181518110614243576142436149c5565b60200260200101516020015161425991906149ae565b96506142666001856149ae565b8214156142b6578b858381518110614280576142806149c5565b602002602001015181518110614298576142986149c5565b6020026020010151602001518d6142af91906149ae565b905061433d565b8b8583815181106142c9576142c96149c5565b6020026020010151815181106142e1576142e16149c5565b6020026020010151602001518c868460016142fc9190614a4a565b8151811061430c5761430c6149c5565b602002602001015181518110614324576143246149c5565b60200260200101516020015161433a91906149ae565b90505b866301e13380600554888f60018a888151811061435c5761435c6149c5565b602002602001015161436e91906149ae565b8151811061437e5761437e6149c5565b6020026020010151600001516143949190614a09565b61439e9190614a28565b6143a89190614a28565b6143b29190614a09565b9250806301e13380600554888f8987815181106143d1576143d16149c5565b6020026020010151815181106143e9576143e96149c5565b6020026020010151600001516143ff9190614a09565b6144099190614a28565b6144139190614a28565b61441d9190614a09565b6144279084614a4a565b92505b5061449c565b856301e13380600554878e88868151811061444d5761444d6149c5565b602002602001015181518110614465576144656149c5565b60200260200101516000015161447b9190614a09565b6144859190614a28565b61448f9190614a28565b6144999190614a09565b91505b6144a68288614a4a565b96506144b181614bf2565b905061411b565b50505b506144ca9050602460006147f4565b509098975050505050505050565b600080808080856144ea60018b6149ae565b815181106144fa576144fa6149c5565b60200260200101516000015188101561453c578561451960018b6149ae565b81518110614529576145296149c5565b6020026020010151600001519250614544565b879250600193505b42915060008661455560018c6149ae565b81518110614565576145656149c5565b60200260200101516020015190506145818185858b8f8a613fa4565b61458b9083614a4a565b9b9a5050505050505050505050565b805160009081908190819081908b825b828110156146c257806145c3578b9550600196506145fd565b898982815181106145d6576145d66149c5565b6020026020010151815181106145ee576145ee6149c5565b60200260200101516000015195505b61460860018e6149ae565b8114156146175742945061465b565b8989614624836001614a4a565b81518110614634576146346149c5565b60200260200101518151811061464c5761464c6149c5565b60200260200101516000015194505b60008a8a8381518110614670576146706149c5565b602002602001015181518110614688576146886149c5565b60200260200101516020015190506146a48188888f878d613fa4565b6146ae9086614a4a565b945050806146bb90614bf2565b90506145aa565b50919c9b505050505050505050505050565b6060613239848460008585600080866001600160a01b031685876040516146fb9190614c5f565b60006040518083038185875af1925050503d8060008114614738576040519150601f19603f3d011682016040523d82523d6000602084013e61473d565b606091505b509150915061474e87838387614759565b979650505050505050565b606083156147c55782516147be576001600160a01b0385163b6147be5760405162461bcd60e51b815260206004820152601d60248201527f416464726573733a2063616c6c20746f206e6f6e2d636f6e747261637400000060448201526064016109a5565b5081611ba1565b611ba183838151156147da5781518083602001fd5b8060405162461bcd60e51b81526004016109a59190614c7b565b50805460008255906000526020600020908101906132b991905b80821115614822576000815560010161480e565b5090565b80356001600160a01b0381168114610eea57600080fd5b60006020828403121561484f57600080fd5b61323c82614826565b60008060006060848603121561486d57600080fd5b61487684614826565b925061488460208501614826565b915061489260408501614826565b90509250925092565b6000806000606084860312156148b057600080fd5b6148b984614826565b92506148c760208501614826565b9150604084013590509250925092565b6000602082840312156148e957600080fd5b5035919050565b6000806040838503121561490357600080fd5b61490c83614826565b915061491a60208401614826565b90509250929050565b6000806040838503121561493657600080fd5b61493f83614826565b946020939093013593505050565b6000806000806080858703121561496357600080fd5b61496c85614826565b935061497a60208601614826565b925061498860408601614826565b9396929550929360600135925050565b634e487b7160e01b600052601160045260246000fd5b6000828210156149c0576149c0614998565b500390565b634e487b7160e01b600052603260045260246000fd5b60208082526014908201527313db9b1e481b585b9859d95c88185b1b1bddd95960621b604082015260600190565b6000816000190483118215151615614a2357614a23614998565b500290565b600082614a4557634e487b7160e01b600052601260045260246000fd5b500490565b60008219821115614a5d57614a5d614998565b500190565b60208082526029908201527f54696d656c6f636b206e6f7420736574206f72206e6f7420636f6d706c6574656040820152686420696e2074696d6560b81b606082015260800190565b600181815b80851115614ae6578160001904821115614acc57614acc614998565b80851615614ad957918102915b93841c9390800290614ab0565b509250929050565b600082614afd57506001610f86565b81614b0a57506000610f86565b8160018114614b205760028114614b2a57614b46565b6001915050610f86565b60ff841115614b3b57614b3b614998565b50506001821b610f86565b5060208310610133831016604e8410600b8410161715614b69575081810a610f86565b614b738383614aab565b8060001904821115614b8757614b87614998565b029392505050565b600061323c8383614aee565b60208082526021908201527f54696d656c6f636b206e6f7420736574206f72206e6f7420636f6d706c6574656040820152601960fa1b606082015260800190565b634e487b7160e01b600052603160045260246000fd5b6000600019821415614c0657614c06614998565b5060010190565b600060208284031215614c1f57600080fd5b8151801515811461323c57600080fd5b60005b83811015614c4a578181015183820152602001614c32565b83811115614c59576000848401525b50505050565b60008251614c71818460208701614c2f565b9190910192915050565b6020815260008251806020840152614c9a816040850160208701614c2f565b601f01601f1916919091016040019291505056fe3a6357012c1a3ae0a17d304c9920310382d968ebcc4b1771f41c6b304205b5703a6357012c1a3ae0a17d304c9920310382d968ebcc4b1771f41c6b304205b571a2646970667358221220aba877f3a52ccbe81bca7663f4de08b1825e75f858a584f960efaa8c9c62b7f464736f6c634300080a0033",
    "linkReferences": {}
  },
  "methodIdentifiers": {
    "APYTimelock()": "728ecaf8",
    "APYdropped()": "3a5b0172",
    "APYrecords(uint256)": "ddaaae03",
    "PERIOD()": "b4d1d795",
    "PRECISION()": "aaf5eb68",
    "VERSION()": "ffa1ad74",
    "YEAR()": "83914540",
    "billPremium(address,address)": "8aa82e82",
    "bountyCommission()": "d6c47be7",
    "bountyDeposit(address,address,uint256)": "3147096d",
    "claimPremium(address,address,address)": "3065f450",
    "collectSaloonPremiumFees(address,address)": "5121ac9d",
    "decimals()": "313ce567",
    "denominator()": "96ce0795",
    "desiredAPY()": "84dc10b4",
    "firstDeposit()": "a5f5be54",
    "initializeImplementation(address,uint256)": "5a898d03",
    "lastClaimed(address)": "013eba92",
    "lastTimePaid()": "1104ec25",
    "manager()": "481c6a75",
    "owner()": "8da5cb5b",
    "payBounty(address,address,address,uint256)": "73927c11",
    "poolCap()": "b954dc57",
    "poolCapTimelock()": "80d440ff",
    "premiumBalance()": "44ebc03d",
    "premiumCommission()": "0ba68f1a",
    "projectDeposit()": "72d26951",
    "projectDepositWithdrawal(address,address,uint256)": "419b7bd7",
    "renounceOwnership()": "715018a6",
    "requiredPremiumBalancePerPeriod()": "4c3bdee0",
    "saloonBountyCommission()": "a4bf70bd",
    "saloonPremiumFees()": "3d850fb2",
    "scheduleAPYChange(uint256)": "503cb917",
    "schedulePoolCapChange(uint256)": "d26c90a9",
    "scheduleUnstake(address,uint256)": "c790ef82",
    "scheduleprojectDepositWithdrawal(uint256)": "4b5df6cc",
    "setDesiredAPY(address,address,uint256)": "cc12c311",
    "setPoolCap(uint256)": "d835f535",
    "stake(address,address,uint256)": "bf6eac2f",
    "staker(address,uint256)": "9e4bfaa5",
    "stakerList(uint256)": "348e50c6",
    "stakerReimbursement(address)": "3f6fc798",
    "stakerTimelock(address)": "769966e8",
    "stakersDeposit(uint256)": "a194c3b6",
    "stakingPause()": "55455df2",
    "transferOwnership(address)": "f2fde38b",
    "unstake(address,address,uint256)": "60829f8a",
    "viewBountyBalance()": "e45080e6",
    "viewDesiredAPY()": "78eb46fd",
    "viewHackerPayout()": "4a94bcb3",
    "viewPoolCap()": "ff45d4c0",
    "viewPremiumBalance()": "20d83086",
    "viewProjecDeposit()": "383639b3",
    "viewRequirePremiumBalance()": "d084b03a",
    "viewStakersDeposit()": "16e17b8d",
    "viewUserStakingBalance(address)": "1a89cabd",
    "viewUserTimelock(address)": "2d7807a9",
    "viewcurrentAPY()": "d5cb8669",
    "withdrawalTimelock()": "1e27970f"
  },
  "id": 24
}