{
  "abi": [
    {
      "anonymous": false,
      "inputs": [
        {
          "indexed": false,
          "internalType": "uint8",
          "name": "version",
          "type": "uint8"
        }
      ],
      "name": "Initialized",
      "type": "event"
    },
    {
      "anonymous": false,
      "inputs": [
        {
          "indexed": true,
          "internalType": "address",
          "name": "previousOwner",
          "type": "address"
        },
        {
          "indexed": true,
          "internalType": "address",
          "name": "newOwner",
          "type": "address"
        }
      ],
      "name": "OwnershipTransferred",
      "type": "event"
    },
    {
      "inputs": [],
      "name": "APYdropped",
      "outputs": [
        {
          "internalType": "bool",
          "name": "",
          "type": "bool"
        }
      ],
      "stateMutability": "view",
      "type": "function"
    },
    {
      "inputs": [
        {
          "internalType": "uint256",
          "name": "",
          "type": "uint256"
        }
      ],
      "name": "APYrecords",
      "outputs": [
        {
          "internalType": "uint256",
          "name": "timeStamp",
          "type": "uint256"
        },
        {
          "internalType": "uint256",
          "name": "periodAPY",
          "type": "uint256"
        }
      ],
      "stateMutability": "view",
      "type": "function"
    },
    {
      "inputs": [],
      "name": "BOUNTY_COMMISSION",
      "outputs": [
        {
          "internalType": "uint256",
          "name": "",
          "type": "uint256"
        }
      ],
      "stateMutability": "view",
      "type": "function"
    },
    {
      "inputs": [],
      "name": "DENOMINATOR",
      "outputs": [
        {
          "internalType": "uint256",
          "name": "",
          "type": "uint256"
        }
      ],
      "stateMutability": "view",
      "type": "function"
    },
    {
      "inputs": [],
      "name": "PREMIUM_COMMISSION",
      "outputs": [
        {
          "internalType": "uint256",
          "name": "",
          "type": "uint256"
        }
      ],
      "stateMutability": "view",
      "type": "function"
    },
    {
      "inputs": [],
      "name": "VERSION",
      "outputs": [
        {
          "internalType": "uint256",
          "name": "",
          "type": "uint256"
        }
      ],
      "stateMutability": "view",
      "type": "function"
    },
    {
      "inputs": [],
      "name": "YEAR",
      "outputs": [
        {
          "internalType": "uint256",
          "name": "",
          "type": "uint256"
        }
      ],
      "stateMutability": "view",
      "type": "function"
    },
    {
      "inputs": [
        {
          "internalType": "address",
          "name": "_staker",
          "type": "address"
        },
        {
          "internalType": "uint256",
          "name": "_amount",
          "type": "uint256"
        }
      ],
      "name": "askForUnstake",
      "outputs": [
        {
          "internalType": "bool",
          "name": "",
          "type": "bool"
        }
      ],
      "stateMutability": "nonpayable",
      "type": "function"
    },
    {
      "inputs": [
        {
          "internalType": "address",
          "name": "_token",
          "type": "address"
        },
        {
          "internalType": "address",
          "name": "_projectWallet",
          "type": "address"
        }
      ],
      "name": "billFortnightlyPremium",
      "outputs": [
        {
          "internalType": "bool",
          "name": "",
          "type": "bool"
        }
      ],
      "stateMutability": "nonpayable",
      "type": "function"
    },
    {
      "inputs": [],
      "name": "bountyBalance",
      "outputs": [
        {
          "internalType": "uint256",
          "name": "",
          "type": "uint256"
        }
      ],
      "stateMutability": "view",
      "type": "function"
    },
    {
      "inputs": [
        {
          "internalType": "address",
          "name": "_token",
          "type": "address"
        },
        {
          "internalType": "address",
          "name": "_projectWallet",
          "type": "address"
        },
        {
          "internalType": "uint256",
          "name": "_amount",
          "type": "uint256"
        }
      ],
      "name": "bountyDeposit",
      "outputs": [
        {
          "internalType": "bool",
          "name": "",
          "type": "bool"
        }
      ],
      "stateMutability": "nonpayable",
      "type": "function"
    },
    {
      "inputs": [],
      "name": "bountyHackerPayout",
      "outputs": [
        {
          "internalType": "uint256",
          "name": "",
          "type": "uint256"
        }
      ],
      "stateMutability": "view",
      "type": "function"
    },
    {
      "inputs": [
        {
          "internalType": "address",
          "name": "_token",
          "type": "address"
        },
        {
          "internalType": "address",
          "name": "_staker",
          "type": "address"
        },
        {
          "internalType": "address",
          "name": "_projectWallet",
          "type": "address"
        }
      ],
      "name": "claimPremium",
      "outputs": [
        {
          "internalType": "uint256",
          "name": "",
          "type": "uint256"
        },
        {
          "internalType": "bool",
          "name": "",
          "type": "bool"
        }
      ],
      "stateMutability": "nonpayable",
      "type": "function"
    },
    {
      "inputs": [
        {
          "internalType": "address",
          "name": "_token",
          "type": "address"
        },
        {
          "internalType": "address",
          "name": "_saloonWallet",
          "type": "address"
        }
      ],
      "name": "collectSaloonPremiumFees",
      "outputs": [
        {
          "internalType": "uint256",
          "name": "",
          "type": "uint256"
        }
      ],
      "stateMutability": "nonpayable",
      "type": "function"
    },
    {
      "inputs": [],
      "name": "currentAPY",
      "outputs": [
        {
          "internalType": "uint256",
          "name": "",
          "type": "uint256"
        }
      ],
      "stateMutability": "view",
      "type": "function"
    },
    {
      "inputs": [],
      "name": "desiredAPY",
      "outputs": [
        {
          "internalType": "uint256",
          "name": "",
          "type": "uint256"
        }
      ],
      "stateMutability": "view",
      "type": "function"
    },
    {
      "inputs": [
        {
          "internalType": "address",
          "name": "_manager",
          "type": "address"
        }
      ],
      "name": "initialize",
      "outputs": [],
      "stateMutability": "nonpayable",
      "type": "function"
    },
    {
      "inputs": [
        {
          "internalType": "address",
          "name": "",
          "type": "address"
        }
      ],
      "name": "lastClaimed",
      "outputs": [
        {
          "internalType": "uint256",
          "name": "",
          "type": "uint256"
        }
      ],
      "stateMutability": "view",
      "type": "function"
    },
    {
      "inputs": [],
      "name": "lastTimePaid",
      "outputs": [
        {
          "internalType": "uint256",
          "name": "",
          "type": "uint256"
        }
      ],
      "stateMutability": "view",
      "type": "function"
    },
    {
      "inputs": [],
      "name": "manager",
      "outputs": [
        {
          "internalType": "address",
          "name": "",
          "type": "address"
        }
      ],
      "stateMutability": "view",
      "type": "function"
    },
    {
      "inputs": [],
      "name": "owner",
      "outputs": [
        {
          "internalType": "address",
          "name": "",
          "type": "address"
        }
      ],
      "stateMutability": "view",
      "type": "function"
    },
    {
      "inputs": [
        {
          "internalType": "address",
          "name": "_token",
          "type": "address"
        },
        {
          "internalType": "address",
          "name": "_saloonWallet",
          "type": "address"
        },
        {
          "internalType": "address",
          "name": "_hunter",
          "type": "address"
        },
        {
          "internalType": "uint256",
          "name": "_amount",
          "type": "uint256"
        }
      ],
      "name": "payBounty",
      "outputs": [
        {
          "internalType": "bool",
          "name": "",
          "type": "bool"
        }
      ],
      "stateMutability": "nonpayable",
      "type": "function"
    },
    {
      "inputs": [],
      "name": "poolCap",
      "outputs": [
        {
          "internalType": "uint256",
          "name": "",
          "type": "uint256"
        }
      ],
      "stateMutability": "view",
      "type": "function"
    },
    {
      "inputs": [],
      "name": "poolPeriod",
      "outputs": [
        {
          "internalType": "uint256",
          "name": "",
          "type": "uint256"
        }
      ],
      "stateMutability": "view",
      "type": "function"
    },
    {
      "inputs": [],
      "name": "premiumBalance",
      "outputs": [
        {
          "internalType": "uint256",
          "name": "",
          "type": "uint256"
        }
      ],
      "stateMutability": "view",
      "type": "function"
    },
    {
      "inputs": [],
      "name": "projectDeposit",
      "outputs": [
        {
          "internalType": "uint256",
          "name": "",
          "type": "uint256"
        }
      ],
      "stateMutability": "view",
      "type": "function"
    },
    {
      "inputs": [
        {
          "internalType": "address",
          "name": "_token",
          "type": "address"
        },
        {
          "internalType": "address",
          "name": "_projectWallet",
          "type": "address"
        },
        {
          "internalType": "uint256",
          "name": "_amount",
          "type": "uint256"
        }
      ],
      "name": "projectDepositWithdrawal",
      "outputs": [
        {
          "internalType": "bool",
          "name": "",
          "type": "bool"
        }
      ],
      "stateMutability": "nonpayable",
      "type": "function"
    },
    {
      "inputs": [
        {
          "internalType": "uint256",
          "name": "",
          "type": "uint256"
        }
      ],
      "name": "projectWithdrawalTimeLock",
      "outputs": [
        {
          "internalType": "uint256",
          "name": "",
          "type": "uint256"
        }
      ],
      "stateMutability": "view",
      "type": "function"
    },
    {
      "inputs": [],
      "name": "renounceOwnership",
      "outputs": [],
      "stateMutability": "nonpayable",
      "type": "function"
    },
    {
      "inputs": [],
      "name": "requiredPremiumBalancePerPeriod",
      "outputs": [
        {
          "internalType": "uint256",
          "name": "",
          "type": "uint256"
        }
      ],
      "stateMutability": "view",
      "type": "function"
    },
    {
      "inputs": [],
      "name": "saloonBountyCommission",
      "outputs": [
        {
          "internalType": "uint256",
          "name": "",
          "type": "uint256"
        }
      ],
      "stateMutability": "view",
      "type": "function"
    },
    {
      "inputs": [],
      "name": "saloonPremiumFees",
      "outputs": [
        {
          "internalType": "uint256",
          "name": "",
          "type": "uint256"
        }
      ],
      "stateMutability": "view",
      "type": "function"
    },
    {
      "inputs": [
        {
          "internalType": "uint256",
          "name": "_amount",
          "type": "uint256"
        }
      ],
      "name": "scheduleprojectDepositWithdrawal",
      "outputs": [],
      "stateMutability": "nonpayable",
      "type": "function"
    },
    {
      "inputs": [
        {
          "internalType": "address",
          "name": "_token",
          "type": "address"
        },
        {
          "internalType": "address",
          "name": "_projectWallet",
          "type": "address"
        },
        {
          "internalType": "uint256",
          "name": "_desiredAPY",
          "type": "uint256"
        }
      ],
      "name": "setDesiredAPY",
      "outputs": [
        {
          "internalType": "bool",
          "name": "",
          "type": "bool"
        }
      ],
      "stateMutability": "nonpayable",
      "type": "function"
    },
    {
      "inputs": [
        {
          "internalType": "uint256",
          "name": "_amount",
          "type": "uint256"
        }
      ],
      "name": "setPoolCap",
      "outputs": [],
      "stateMutability": "nonpayable",
      "type": "function"
    },
    {
      "inputs": [
        {
          "internalType": "address",
          "name": "_token",
          "type": "address"
        },
        {
          "internalType": "address",
          "name": "_staker",
          "type": "address"
        },
        {
          "internalType": "uint256",
          "name": "_amount",
          "type": "uint256"
        }
      ],
      "name": "stake",
      "outputs": [
        {
          "internalType": "bool",
          "name": "",
          "type": "bool"
        }
      ],
      "stateMutability": "nonpayable",
      "type": "function"
    },
    {
      "inputs": [
        {
          "internalType": "address",
          "name": "",
          "type": "address"
        },
        {
          "internalType": "uint256",
          "name": "",
          "type": "uint256"
        }
      ],
      "name": "staker",
      "outputs": [
        {
          "internalType": "uint256",
          "name": "stakerBalance",
          "type": "uint256"
        },
        {
          "internalType": "uint256",
          "name": "balanceTimeStamp",
          "type": "uint256"
        }
      ],
      "stateMutability": "view",
      "type": "function"
    },
    {
      "inputs": [
        {
          "internalType": "uint256",
          "name": "",
          "type": "uint256"
        }
      ],
      "name": "stakerList",
      "outputs": [
        {
          "internalType": "address",
          "name": "",
          "type": "address"
        }
      ],
      "stateMutability": "view",
      "type": "function"
    },
    {
      "inputs": [
        {
          "internalType": "address",
          "name": "",
          "type": "address"
        },
        {
          "internalType": "uint256",
          "name": "",
          "type": "uint256"
        }
      ],
      "name": "stakerTimelock",
      "outputs": [
        {
          "internalType": "uint256",
          "name": "",
          "type": "uint256"
        }
      ],
      "stateMutability": "view",
      "type": "function"
    },
    {
      "inputs": [],
      "name": "stakersDeposit",
      "outputs": [
        {
          "internalType": "uint256",
          "name": "",
          "type": "uint256"
        }
      ],
      "stateMutability": "view",
      "type": "function"
    },
    {
      "inputs": [
        {
          "internalType": "address",
          "name": "newOwner",
          "type": "address"
        }
      ],
      "name": "transferOwnership",
      "outputs": [],
      "stateMutability": "nonpayable",
      "type": "function"
    },
    {
      "inputs": [
        {
          "internalType": "address",
          "name": "_token",
          "type": "address"
        },
        {
          "internalType": "address",
          "name": "_staker",
          "type": "address"
        },
        {
          "internalType": "uint256",
          "name": "_amount",
          "type": "uint256"
        }
      ],
      "name": "unstake",
      "outputs": [
        {
          "internalType": "bool",
          "name": "",
          "type": "bool"
        }
      ],
      "stateMutability": "nonpayable",
      "type": "function"
    },
    {
      "inputs": [],
      "name": "viewDesireAPY",
      "outputs": [
        {
          "internalType": "uint256",
          "name": "",
          "type": "uint256"
        }
      ],
      "stateMutability": "view",
      "type": "function"
    },
    {
      "inputs": [],
      "name": "viewHackerPayout",
      "outputs": [
        {
          "internalType": "uint256",
          "name": "",
          "type": "uint256"
        }
      ],
      "stateMutability": "view",
      "type": "function"
    },
    {
      "inputs": [],
      "name": "viewPoolCap",
      "outputs": [
        {
          "internalType": "uint256",
          "name": "",
          "type": "uint256"
        }
      ],
      "stateMutability": "view",
      "type": "function"
    },
    {
      "inputs": [],
      "name": "viewPremiumBalance",
      "outputs": [
        {
          "internalType": "uint256",
          "name": "",
          "type": "uint256"
        }
      ],
      "stateMutability": "view",
      "type": "function"
    },
    {
      "inputs": [],
      "name": "viewProjecDeposit",
      "outputs": [
        {
          "internalType": "uint256",
          "name": "",
          "type": "uint256"
        }
      ],
      "stateMutability": "view",
      "type": "function"
    },
    {
      "inputs": [],
      "name": "viewRequirePremiumBalance",
      "outputs": [
        {
          "internalType": "uint256",
          "name": "",
          "type": "uint256"
        }
      ],
      "stateMutability": "view",
      "type": "function"
    },
    {
      "inputs": [],
      "name": "viewStakersDeposit",
      "outputs": [
        {
          "internalType": "uint256",
          "name": "",
          "type": "uint256"
        }
      ],
      "stateMutability": "view",
      "type": "function"
    },
    {
      "inputs": [
        {
          "internalType": "address",
          "name": "_staker",
          "type": "address"
        }
      ],
      "name": "viewUserStakingBalance",
      "outputs": [
        {
          "internalType": "uint256",
          "name": "",
          "type": "uint256"
        },
        {
          "internalType": "uint256",
          "name": "",
          "type": "uint256"
        }
      ],
      "stateMutability": "view",
      "type": "function"
    }
  ],
  "bytecode": {
    "object": "0x608060405260035460025462000016919062000100565b60045568056bc75e2d6310000067a688906bd8b000006004546200003b91906200011b565b6200004791906200013d565b6005556005546004546200005c919062000160565b600655600b546008546200007191906200013d565b60095562127500600e553480156200008857600080fd5b5062000094336200009a565b6200017a565b600080546001600160a01b038381166001600160a01b0319831681178455604051919092169283917f8be0079c531659141344cd1fd0a4f28419497f9722a3daafe3b4186f6b6457e09190a35050565b634e487b7160e01b600052601160045260246000fd5b60008219821115620001165762000116620000ea565b500190565b6000816000190483118215151615620001385762000138620000ea565b500290565b6000826200015b57634e487b7160e01b600052601260045260246000fd5b500490565b600082821015620001755762000175620000ea565b500390565b61263b806200018a6000396000f3fe608060405234801561001057600080fd5b50600436106102d65760003560e01c806373927c1111610182578063bb862785116100e9578063d084b03a116100a2578063ee3acd581161007c578063ee3acd58146105ee578063f2fde38b1461060e578063ff45d4c014610621578063ffa1ad741461062957600080fd5b8063d084b03a146105c0578063d835f535146105c8578063ddaaae03146105db57600080fd5b8063bb86278514610560578063bf6eac2f1461056f578063c4d66de814610582578063c9e66d4114610595578063cc12c311146105a4578063d03b41a9146105b757600080fd5b80639a79d32b1161013b5780639a79d32b146105175780639e4bfaa5146105205780639ff3128f14610533578063a4bf70bd1461053b578063b15ce20a14610544578063b954dc571461055757600080fd5b806373927c11146104c65780637cbd10ab146104d957806383914540146104e257806384dc10b4146104ed5780638da5cb5b146104f6578063918f86741461050757600080fd5b80633f5f958c116102415780634b5df6cc116101fa57806360829f8a116101d457806360829f8a146104775780636b01eab31461048a578063715018a6146104b557806372d26951146104bd57600080fd5b80634b5df6cc146104465780634c3bdee01461045b5780635121ac9d1461046457600080fd5b80633f5f958c146103fd578063419b7bd71461040657806344ebc03d1461041957806345042dec14610422578063481c6a751461042b5780634a94bcb31461043e57600080fd5b80633065f450116102935780633065f450146103725780633147096d1461039a578063348e50c6146103ad578063383639b3146103d85780633a5b0172146103e05780633d850fb2146103f457600080fd5b8063013eba92146102db57806310775e741461030e5780631104ec251461033157806316e17b8d1461033a5780631a89cabd1461034257806320d830861461036a575b600080fd5b6102fb6102e93660046122f7565b60106020526000908152604090205481565b6040519081526020015b60405180910390f35b61032161031c366004612312565b610631565b6040519015158152602001610305565b6102fb600c5481565b6003546102fb565b6103556103503660046122f7565b610a21565b60408051928352602083019190915201610305565b6008546102fb565b610385610380366004612345565b610ab8565b60408051928352901515602083015201610305565b6103216103a8366004612388565b610d61565b6103c06103bb3660046123c4565b610dc7565b6040516001600160a01b039091168152602001610305565b6002546102fb565b60015461032190600160a01b900460ff1681565b6102fb60075481565b6102fb60035481565b610321610414366004612388565b610df1565b6102fb60085481565b6102fb600e5481565b6001546103c0906001600160a01b031681565b6006546102fb565b6104596104543660046123c4565b610e9e565b005b6102fb600d5481565b6102fb610472366004612312565b610ebd565b610321610485366004612388565b610f14565b6102fb6104983660046123dd565b601360209081526000928352604080842090915290825290205481565b6104596112b7565b6102fb60025481565b6103216104d4366004612407565b6112cb565b6102fb60065481565b6102fb6301e1338081565b6102fb600a5481565b6000546001600160a01b03166103c0565b6102fb68056bc75e2d6310000081565b6102fb60095481565b61035561052e3660046123dd565b611601565b600a546102fb565b6102fb60055481565b6103216105523660046123dd565b61163d565b6102fb600b5481565b6102fb671bc16d674ec8000081565b61032161057d366004612388565b611751565b6104596105903660046122f7565b61196a565b6102fb67a688906bd8b0000081565b6103216105b2366004612388565b611ab2565b6102fb60045481565b600d546102fb565b6104596105d63660046123c4565b611c04565b6103556105e93660046123c4565b611c33565b6102fb6105fc3660046123c4565b600f6020526000908152604090205481565b61045961061c3660046122f7565b611c61565b600b546102fb565b6102fb600181565b6001546000906001600160a01b031633148061064c57503330145b6106715760405162461bcd60e51b815260040161066890612452565b60405180910390fd5b600854600d5460035481831015610a1357600c54600e5460006106948342612496565b905081811115610915576000816301e1338068056bc75e2d63100000600a54886106be91906124ad565b6106c891906124cc565b6106d291906124cc565b6106dc91906124ad565b90506106f36001600160a01b038b168a3084611cda565b61089a5760408051808201909152428152600980546020830190815260148054600181018255600091825284517fce6d7b5282bd9a3661ae061feed1dbda4e52ab073b1f9285be6e155d9c38d4ec60029092029182015591517fce6d7b5282bd9a3661ae061feed1dbda4e52ab073b1f9285be6e155d9c38d4ed909201919091559054600a81905584906301e133809068056bc75e2d6310000090610798908b6124ad565b6107a291906124cc565b6107ac91906124cc565b6107b691906124ad565b9050600068056bc75e2d631000006107d6671bc16d674ec80000846124ad565b6107e091906124cc565b905080600760008282546107f491906124ee565b92505081905550816008600082825461080d91906124ee565b909155505042600c55600a54600b5460009188916301e133809168056bc75e2d631000009161083c91906124ad565b61084691906124cc565b61085091906124cc565b61085a91906124ad565b600d555061087590506001600160a01b038d168c3084611cda565b50506001805460ff60a01b1916600160a01b1781559850610a1b975050505050505050565b600068056bc75e2d631000006108b8671bc16d674ec80000846124ad565b6108c291906124cc565b905080600760008282546108d691906124ee565b9250508190555081600860008282546108ef91906124ee565b909155505042600c5550506001805460ff60a01b191681559650610a1b95505050505050565b6000826301e1338068056bc75e2d63100000600a5460035461093791906124ad565b61094191906124cc565b61094b91906124cc565b61095591906124ad565b905061096c6001600160a01b038b168a3084611cda565b61089a5760408051808201909152428152600980546020830190815260148054600181018255600091825284517fce6d7b5282bd9a3661ae061feed1dbda4e52ab073b1f9285be6e155d9c38d4ec60029092029182015591517fce6d7b5282bd9a3661ae061feed1dbda4e52ab073b1f9285be6e155d9c38d4ed909201919091559054600a81905560035486916301e133809168056bc75e2d6310000091610798916124ad565b600093505050505b92915050565b6001600160a01b038116600090815260116020526040812080548291610a48600183612496565b81548110610a5857610a58612506565b600091825260208083206002909202909101546001600160a01b038716835260119091526040909120610a8c600184612496565b81548110610a9c57610a9c612506565b9060005260206000209060020201600101549250925050915091565b60015460009081906001600160a01b03163314610ae75760405162461bcd60e51b815260040161066890612452565b6001600160a01b03841660009081526010602052604081205490610b0b8242612496565b600e546001600160a01b038816600090815260116020908152604080832080548251818502810185019093528083529596509394929390929091849084015b82821015610b9057838290600052602060002090600202016040518060400160405290816000820154815260200160018201548152505081526020019060010190610b4a565b50508251929350505082841115610c50576000610bae868484611d48565b9050600068056bc75e2d63100000610bce671bc16d674ec80000846124ad565b610bd891906124cc565b9050610be48183612496565b915081610bfb6001600160a01b038e168d83611f5b565b610c0b57610c098d8c610631565b505b8260086000828254610c1d9190612496565b90915550506001600160a01b038c166000908152601060205260409020429055985060019750610d599650505050505050565b6000600e546301e1338068056bc75e2d63100000600a5486600187610c759190612496565b81518110610c8557610c85612506565b602002602001015160000151610c9b91906124ad565b610ca591906124cc565b610caf91906124cc565b610cb991906124ad565b9050600068056bc75e2d63100000610cd9671bc16d674ec80000846124ad565b610ce391906124cc565b9050610cef8183612496565b9150610d056001600160a01b038d168c84611f5b565b610d1557610d138c8b610631565b505b8160086000828254610d279190612496565b9091555050506001600160a01b038a166000908152601060205260409020429055965060019550610d59945050505050565b935093915050565b6001546000906001600160a01b03163314610d8e5760405162461bcd60e51b815260040161066890612452565b610da36001600160a01b038516843085611cda565b508160026000828254610db691906124ee565b9091555060019150505b9392505050565b60128181548110610dd757600080fd5b6000918252602090912001546001600160a01b0316905081565b6000818152600f602052604081205442118015610e1b57506000828152600f602052604090205415155b610e675760405162461bcd60e51b815260206004820181905260248201527f54696d656c6f636b206e6f742066696e6973686564206f7220737461727465646044820152606401610668565b8160026000828254610e799190612496565b90915550610e9390506001600160a01b0385168484611f5b565b506001949350505050565b600e54610eab90426124ee565b6000918252600f602052604090912055565b6001546000906001600160a01b03163314610eea5760405162461bcd60e51b815260040161066890612452565b600754610f03906001600160a01b038516908490611f5b565b505060078054600090915592915050565b6001546000906001600160a01b03163314610f415760405162461bcd60e51b815260040161066890612452565b600a54151580610f5e575060018054600160a01b900460ff161515145b15610dc0576001600160a01b038316600090815260136020908152604080832085845290915290205442118015610fb757506001600160a01b038316600090815260136020908152604080832085845290915290205415155b6110035760405162461bcd60e51b815260206004820181905260248201527f54696d656c6f636b206e6f742066696e6973686564206f7220737461727465646044820152606401610668565b6001600160a01b03831660009081526011602052604081205461102890600190612496565b9050611047604051806040016040528060008152602001600081525090565b426020808301919091526001600160a01b038616600090815260119091526040902080548591908490811061107e5761107e612506565b90600052602060002090600202016000015461109a9190612496565b81526012805460408051602080840282018101909252828152600093909290918301828280156110f357602002820191906000526020600020905b81546001600160a01b031681526001909101906020018083116110d5575b5050505050905081600001516000141561124357805160005b8181101561124057876001600160a01b031683828151811061113057611130612506565b60200260200101516001600160a01b0316141561123857600083611155600185612496565b8151811061116557611165612506565b6020026020010151905088601260018561117f9190612496565b8154811061118f5761118f612506565b9060005260206000200160006101000a8154816001600160a01b0302191690836001600160a01b0316021790555080601283815481106111d1576111d1612506565b9060005260206000200160006101000a8154816001600160a01b0302191690836001600160a01b0316021790555060128054806112105761121061251c565b600082815260209020810160001990810180546001600160a01b031916905501905550611240565b60010161110c565b50505b6001600160a01b0386166000908152601160209081526040822080546001818101835591845282842086516002909202019081559185015191015560038054879290611290908490612496565b909155506112aa90506001600160a01b0388168787611f5b565b5060019350505050610dc0565b6112bf611f98565b6112c96000611ff2565b565b6001546000906001600160a01b031633146112f85760405162461bcd60e51b815260040161066890612452565b81600354106115255781600360008282546113139190612496565b90915550506012546003546113c557600081156113b857604080518082019091526000808252426020830152601280548490811061135357611353612506565b60009182526020808320909101546001600160a01b0316808352601182526040832080546001818101835591855293839020865160029095020193845591850151929091019190915590506113aa89888a89612042565b5060019450505050506115f9565b506113c5601260006122a9565b6000600354846113d591906124cc565b905060005b8281101561150c576000601282815481106113f7576113f7612506565b60009182526020808320909101546001600160a01b03168083526011909152604082205490925061142a90600190612496565b6001600160a01b0383166000908152601160205260408120805492935090918390811061145957611459612506565b906000526020600020906002020160000154905061148a604051806040016040528060008152602001600081525090565b42602082015268056bc75e2d631000006114a487846124ad565b6114ae91906124cc565b6114b89083612496565b81526001600160a01b039093166000908152601160209081526040822080546001818101835591845292829020865160029094020192835594015193019290925550611505905081612532565b90506113da565b5061151987868887612042565b506001925050506115f9565b60125460005b818110156115b257604080518082019091526000808252426020830152601280548490811061155c5761155c612506565b60009182526020808320909101546001600160a01b031682526011815260408220805460018181018355918452928290208551600290940201928355930151920191909155506115ab81612532565b905061152b565b506115bf601260006122a9565b6000600354846115cf9190612496565b905080600260008282546115e39190612496565b9091555050600060035561151987868887612042565b949350505050565b6011602052816000526040600020818154811061161d57600080fd5b600091825260209091206002909102018054600190910154909250905082565b6001546000906001600160a01b0316331461166a5760405162461bcd60e51b815260040161066890612452565b6001600160a01b03831660009081526011602052604081205461168f90600190612496565b6001600160a01b038516600090815260116020526040902080549192508491839081106116be576116be612506565b90600052602060002090600202016000015410156117155760405162461bcd60e51b8152602060048201526014602482015273496e73756669636369656e742062616c616e636560601b6044820152606401610668565b600e5461172290426124ee565b6001600160a01b0385166000908152601360209081526040808320878452909152902055506001905092915050565b6001546000906001600160a01b0316331461177e5760405162461bcd60e51b815260040161066890612452565b600b548260035461178f91906124ee565b11156117dd5760405162461bcd60e51b815260206004820152601960248201527f5374616b696e6720506f6f6c20616c72656164792066756c6c000000000000006044820152606401610668565b6001600160a01b03831660009081526011602052604081205461180290600190612496565b6001600160a01b03851660009081526011602052604090208054919250908290811061183057611830612506565b9060005260206000209060020201600001546000141561189657601280546001810182556000919091527fbb8a6a4669ba250d26cd7a459eca9d215f8307e33aebe50379bc5a3617ec34440180546001600160a01b0319166001600160a01b0386161790555b6040805180820182526000808252426020808401919091526001600160a01b038816825260119052919091208054859190849081106118d7576118d7612506565b9060005260206000209060020201600001546118f391906124ee565b81526001600160a01b03851660009081526011602090815260408220805460018181018355918452828420855160029092020190815591840151910155600380548692906119429084906124ee565b9091555061195d90506001600160a01b038716863087611cda565b5060019695505050505050565b600054600160a81b900460ff161580801561199257506000546001600160a01b90910460ff16105b806119b35750303b1580156119b35750600054600160a01b900460ff166001145b611a165760405162461bcd60e51b815260206004820152602e60248201527f496e697469616c697a61626c653a20636f6e747261637420697320616c72656160448201526d191e481a5b9a5d1a585b1a5e995960921b6064820152608401610668565b6000805460ff60a01b1916600160a01b1790558015611a43576000805460ff60a81b1916600160a81b1790555b611a4b611f98565b600180546001600160a01b0319166001600160a01b0384161790558015611aae576000805460ff60a81b19169055604051600181527f7f26b83ff96e1f2b6a682f133852f6798a09c465da95921460cefb38474024989060200160405180910390a15b5050565b6001546000906001600160a01b03163314611adf5760405162461bcd60e51b815260040161066890612452565b600060085490506000600e546301e1338068056bc75e2d6310000086600b54611b0891906124ad565b611b1291906124cc565b611b1c91906124cc565b611b2691906124ad565b905080821015611b6d576000611b3c8383612496565b9050611b536001600160a01b038816873084611cda565b508060086000828254611b6691906124ee565b9091555050505b600d5550506040805180820190915242815260208101828152601480546001808201835560009290925292517fce6d7b5282bd9a3661ae061feed1dbda4e52ab073b1f9285be6e155d9c38d4ec60029094029384015590517fce6d7b5282bd9a3661ae061feed1dbda4e52ab073b1f9285be6e155d9c38d4ed90920191909155600a91909155805460ff60a01b1916815592915050565b6001546001600160a01b03163314611c2e5760405162461bcd60e51b815260040161066890612452565b600b55565b60148181548110611c4357600080fd5b60009182526020909120600290910201805460019091015490915082565b611c69611f98565b6001600160a01b038116611cce5760405162461bcd60e51b815260206004820152602660248201527f4f776e61626c653a206e6577206f776e657220697320746865207a65726f206160448201526564647265737360d01b6064820152608401610668565b611cd781611ff2565b50565b6040516001600160a01b0380851660248301528316604482015260648101829052600090610e939086906323b872dd60e01b906084015b60408051601f198184030181529190526020810180516001600160e01b03166001600160e01b0319909316929092179091526120b2565b601454600090818080611d5c600185612496565b90505b80611dae578760148281548110611d7857611d78612506565b9060005260206000209060020201600001541015611d9e57611d9b8160016124ee565b92505b611da78161254d565b9050611d5f565b50815b83811015611f5057600060148281548110611dce57611dce612506565b6000918252602082206002909102015491506014611ded8460016124ee565b81548110611dfd57611dfd612506565b90600052602060002090600202016000015460001415611e1d5742611e4d565b6014611e2a8460016124ee565b81548110611e3a57611e3a612506565b9060005260206000209060020201600001545b90506000611e5b8383612496565b90506000805b8a811015611ef257848c8281518110611e7c57611e7c612506565b602002602001015160200151118015611eb15750838c8281518110611ea357611ea3612506565b602002602001015160200151105b15611ee2578b8181518110611ec857611ec8612506565b60200260200101516000015182611edf91906124ee565b91505b611eeb81612532565b9050611e61565b50816301e1338068056bc75e2d63100000600a5484611f1191906124ad565b611f1b91906124cc565b611f2591906124cc565b611f2f91906124ad565b611f3990876124ee565b95505050505080611f4990612532565b9050611db1565b509695505050505050565b6040516001600160a01b038316602482015260448101829052600090611f8e90859063a9059cbb60e01b90606401611d11565b5060019392505050565b6000546001600160a01b031633146112c95760405162461bcd60e51b815260206004820181905260248201527f4f776e61626c653a2063616c6c6572206973206e6f7420746865206f776e65726044820152606401610668565b600080546001600160a01b038381166001600160a01b0319831681178455604051919092169283917f8be0079c531659141344cd1fd0a4f28419497f9722a3daafe3b4186f6b6457e09190a35050565b60008068056bc75e2d6310000061206167a688906bd8b00000856124ad565b61206b91906124cc565b905060006120798285612496565b905061208f6001600160a01b0388168783611f5b565b506120a46001600160a01b0388168684611f5b565b506001979650505050505050565b6000612107826040518060400160405280602081526020017f5361666545524332303a206c6f772d6c6576656c2063616c6c206661696c6564815250856001600160a01b03166121899092919063ffffffff16565b80519091501561218457808060200190518101906121259190612564565b6121845760405162461bcd60e51b815260206004820152602a60248201527f5361666545524332303a204552433230206f7065726174696f6e20646964206e6044820152691bdd081cdd58d8d9595960b21b6064820152608401610668565b505050565b60606115f9848460008585600080866001600160a01b031685876040516121b091906125b6565b60006040518083038185875af1925050503d80600081146121ed576040519150601f19603f3d011682016040523d82523d6000602084013e6121f2565b606091505b50915091506122038783838761220e565b979650505050505050565b6060831561227a578251612273576001600160a01b0385163b6122735760405162461bcd60e51b815260206004820152601d60248201527f416464726573733a2063616c6c20746f206e6f6e2d636f6e74726163740000006044820152606401610668565b50816115f9565b6115f9838381511561228f5781518083602001fd5b8060405162461bcd60e51b815260040161066891906125d2565b5080546000825590600052602060002090810190611cd791905b808211156122d757600081556001016122c3565b5090565b80356001600160a01b03811681146122f257600080fd5b919050565b60006020828403121561230957600080fd5b610dc0826122db565b6000806040838503121561232557600080fd5b61232e836122db565b915061233c602084016122db565b90509250929050565b60008060006060848603121561235a57600080fd5b612363846122db565b9250612371602085016122db565b915061237f604085016122db565b90509250925092565b60008060006060848603121561239d57600080fd5b6123a6846122db565b92506123b4602085016122db565b9150604084013590509250925092565b6000602082840312156123d657600080fd5b5035919050565b600080604083850312156123f057600080fd5b6123f9836122db565b946020939093013593505050565b6000806000806080858703121561241d57600080fd5b612426856122db565b9350612434602086016122db565b9250612442604086016122db565b9396929550929360600135925050565b60208082526014908201527313db9b1e481b585b9859d95c88185b1b1bddd95960621b604082015260600190565b634e487b7160e01b600052601160045260246000fd5b6000828210156124a8576124a8612480565b500390565b60008160001904831182151516156124c7576124c7612480565b500290565b6000826124e957634e487b7160e01b600052601260045260246000fd5b500490565b6000821982111561250157612501612480565b500190565b634e487b7160e01b600052603260045260246000fd5b634e487b7160e01b600052603160045260246000fd5b600060001982141561254657612546612480565b5060010190565b60008161255c5761255c612480565b506000190190565b60006020828403121561257657600080fd5b81518015158114610dc057600080fd5b60005b838110156125a1578181015183820152602001612589565b838111156125b0576000848401525b50505050565b600082516125c8818460208701612586565b9190910192915050565b60208152600082518060208401526125f1816040850160208701612586565b601f01601f1916919091016040019291505056fea26469706673582212203c3368581f7493b523d1a3ed9f831777adebe44f8fd022c5e5a273e5c23dc7d864736f6c634300080a0033",
    "linkReferences": {}
  },
  "methodIdentifiers": {
    "APYdropped()": "3a5b0172",
    "APYrecords(uint256)": "ddaaae03",
    "BOUNTY_COMMISSION()": "c9e66d41",
    "DENOMINATOR()": "918f8674",
    "PREMIUM_COMMISSION()": "bb862785",
    "VERSION()": "ffa1ad74",
    "YEAR()": "83914540",
    "askForUnstake(address,uint256)": "b15ce20a",
    "billFortnightlyPremium(address,address)": "10775e74",
    "bountyBalance()": "d03b41a9",
    "bountyDeposit(address,address,uint256)": "3147096d",
    "bountyHackerPayout()": "7cbd10ab",
    "claimPremium(address,address,address)": "3065f450",
    "collectSaloonPremiumFees(address,address)": "5121ac9d",
    "currentAPY()": "9a79d32b",
    "desiredAPY()": "84dc10b4",
    "initialize(address)": "c4d66de8",
    "lastClaimed(address)": "013eba92",
    "lastTimePaid()": "1104ec25",
    "manager()": "481c6a75",
    "owner()": "8da5cb5b",
    "payBounty(address,address,address,uint256)": "73927c11",
    "poolCap()": "b954dc57",
    "poolPeriod()": "45042dec",
    "premiumBalance()": "44ebc03d",
    "projectDeposit()": "72d26951",
    "projectDepositWithdrawal(address,address,uint256)": "419b7bd7",
    "projectWithdrawalTimeLock(uint256)": "ee3acd58",
    "renounceOwnership()": "715018a6",
    "requiredPremiumBalancePerPeriod()": "4c3bdee0",
    "saloonBountyCommission()": "a4bf70bd",
    "saloonPremiumFees()": "3d850fb2",
    "scheduleprojectDepositWithdrawal(uint256)": "4b5df6cc",
    "setDesiredAPY(address,address,uint256)": "cc12c311",
    "setPoolCap(uint256)": "d835f535",
    "stake(address,address,uint256)": "bf6eac2f",
    "staker(address,uint256)": "9e4bfaa5",
    "stakerList(uint256)": "348e50c6",
    "stakerTimelock(address,uint256)": "6b01eab3",
    "stakersDeposit()": "3f5f958c",
    "transferOwnership(address)": "f2fde38b",
    "unstake(address,address,uint256)": "60829f8a",
    "viewDesireAPY()": "9ff3128f",
    "viewHackerPayout()": "4a94bcb3",
    "viewPoolCap()": "ff45d4c0",
    "viewPremiumBalance()": "20d83086",
    "viewProjecDeposit()": "383639b3",
    "viewRequirePremiumBalance()": "d084b03a",
    "viewStakersDeposit()": "16e17b8d",
    "viewUserStakingBalance(address)": "1a89cabd"
  },
  "id": 23
}