{
  "abi": [
    {
      "anonymous": false,
      "inputs": [
        {
          "indexed": false,
          "internalType": "uint8",
          "name": "version",
          "type": "uint8"
        }
      ],
      "name": "Initialized",
      "type": "event"
    },
    {
      "inputs": [],
      "name": "APYTimelock",
      "outputs": [
        {
          "internalType": "uint256",
          "name": "timelock",
          "type": "uint256"
        },
        {
          "internalType": "uint256",
          "name": "timeLimit",
          "type": "uint256"
        },
        {
          "internalType": "uint256",
          "name": "amount",
          "type": "uint256"
        },
        {
          "internalType": "bool",
          "name": "executed",
          "type": "bool"
        }
      ],
      "stateMutability": "view",
      "type": "function"
    },
    {
      "inputs": [],
      "name": "APYdropped",
      "outputs": [
        {
          "internalType": "bool",
          "name": "",
          "type": "bool"
        }
      ],
      "stateMutability": "view",
      "type": "function"
    },
    {
      "inputs": [
        {
          "internalType": "uint256",
          "name": "",
          "type": "uint256"
        }
      ],
      "name": "APYrecords",
      "outputs": [
        {
          "internalType": "uint256",
          "name": "timeStamp",
          "type": "uint256"
        },
        {
          "internalType": "uint256",
          "name": "periodAPY",
          "type": "uint256"
        }
      ],
      "stateMutability": "view",
      "type": "function"
    },
    {
      "inputs": [],
      "name": "PERIOD",
      "outputs": [
        {
          "internalType": "uint256",
          "name": "",
          "type": "uint256"
        }
      ],
      "stateMutability": "view",
      "type": "function"
    },
    {
      "inputs": [],
      "name": "PRECISION",
      "outputs": [
        {
          "internalType": "uint256",
          "name": "",
          "type": "uint256"
        }
      ],
      "stateMutability": "view",
      "type": "function"
    },
    {
      "inputs": [],
      "name": "VERSION",
      "outputs": [
        {
          "internalType": "uint256",
          "name": "",
          "type": "uint256"
        }
      ],
      "stateMutability": "view",
      "type": "function"
    },
    {
      "inputs": [],
      "name": "YEAR",
      "outputs": [
        {
          "internalType": "uint256",
          "name": "",
          "type": "uint256"
        }
      ],
      "stateMutability": "view",
      "type": "function"
    },
    {
      "inputs": [
        {
          "internalType": "address",
          "name": "_token",
          "type": "address"
        },
        {
          "internalType": "address",
          "name": "_projectWallet",
          "type": "address"
        }
      ],
      "name": "billPremium",
      "outputs": [
        {
          "internalType": "bool",
          "name": "",
          "type": "bool"
        }
      ],
      "stateMutability": "nonpayable",
      "type": "function"
    },
    {
      "inputs": [],
      "name": "bountyCommission",
      "outputs": [
        {
          "internalType": "uint256",
          "name": "",
          "type": "uint256"
        }
      ],
      "stateMutability": "view",
      "type": "function"
    },
    {
      "inputs": [
        {
          "internalType": "address",
          "name": "_token",
          "type": "address"
        },
        {
          "internalType": "address",
          "name": "_projectWallet",
          "type": "address"
        },
        {
          "internalType": "uint256",
          "name": "_amount",
          "type": "uint256"
        }
      ],
      "name": "bountyDeposit",
      "outputs": [
        {
          "internalType": "bool",
          "name": "",
          "type": "bool"
        }
      ],
      "stateMutability": "nonpayable",
      "type": "function"
    },
    {
      "inputs": [
        {
          "internalType": "address",
          "name": "_token",
          "type": "address"
        },
        {
          "internalType": "address",
          "name": "_staker",
          "type": "address"
        },
        {
          "internalType": "address",
          "name": "_projectWallet",
          "type": "address"
        }
      ],
      "name": "claimPremium",
      "outputs": [
        {
          "internalType": "uint256",
          "name": "",
          "type": "uint256"
        },
        {
          "internalType": "bool",
          "name": "",
          "type": "bool"
        }
      ],
      "stateMutability": "nonpayable",
      "type": "function"
    },
    {
      "inputs": [
        {
          "internalType": "address",
          "name": "_token",
          "type": "address"
        },
        {
          "internalType": "address",
          "name": "_enshieldWallet",
          "type": "address"
        }
      ],
      "name": "collectEnshieldPremiumFees",
      "outputs": [
        {
          "internalType": "uint256",
          "name": "",
          "type": "uint256"
        }
      ],
      "stateMutability": "nonpayable",
      "type": "function"
    },
    {
      "inputs": [],
      "name": "decimals",
      "outputs": [
        {
          "internalType": "uint256",
          "name": "",
          "type": "uint256"
        }
      ],
      "stateMutability": "view",
      "type": "function"
    },
    {
      "inputs": [],
      "name": "denominator",
      "outputs": [
        {
          "internalType": "uint256",
          "name": "",
          "type": "uint256"
        }
      ],
      "stateMutability": "view",
      "type": "function"
    },
    {
      "inputs": [],
      "name": "desiredAPY",
      "outputs": [
        {
          "internalType": "uint256",
          "name": "",
          "type": "uint256"
        }
      ],
      "stateMutability": "view",
      "type": "function"
    },
    {
      "inputs": [],
      "name": "enshieldBountyCommission",
      "outputs": [
        {
          "internalType": "uint256",
          "name": "",
          "type": "uint256"
        }
      ],
      "stateMutability": "view",
      "type": "function"
    },
    {
      "inputs": [],
      "name": "enshieldPremiumFees",
      "outputs": [
        {
          "internalType": "uint256",
          "name": "",
          "type": "uint256"
        }
      ],
      "stateMutability": "view",
      "type": "function"
    },
    {
      "inputs": [],
      "name": "firstDeposit",
      "outputs": [
        {
          "internalType": "bool",
          "name": "",
          "type": "bool"
        }
      ],
      "stateMutability": "view",
      "type": "function"
    },
    {
      "inputs": [
        {
          "internalType": "address",
          "name": "_manager",
          "type": "address"
        },
        {
          "internalType": "uint256",
          "name": "_decimals",
          "type": "uint256"
        }
      ],
      "name": "initializeImplementation",
      "outputs": [],
      "stateMutability": "nonpayable",
      "type": "function"
    },
    {
      "inputs": [
        {
          "internalType": "address",
          "name": "",
          "type": "address"
        }
      ],
      "name": "lastClaimed",
      "outputs": [
        {
          "internalType": "uint256",
          "name": "",
          "type": "uint256"
        }
      ],
      "stateMutability": "view",
      "type": "function"
    },
    {
      "inputs": [],
      "name": "lastTimePaid",
      "outputs": [
        {
          "internalType": "uint256",
          "name": "",
          "type": "uint256"
        }
      ],
      "stateMutability": "view",
      "type": "function"
    },
    {
      "inputs": [],
      "name": "manager",
      "outputs": [
        {
          "internalType": "address",
          "name": "",
          "type": "address"
        }
      ],
      "stateMutability": "view",
      "type": "function"
    },
    {
      "inputs": [
        {
          "internalType": "address",
          "name": "_token",
          "type": "address"
        },
        {
          "internalType": "address",
          "name": "_enshieldWallet",
          "type": "address"
        },
        {
          "internalType": "address",
          "name": "_hunter",
          "type": "address"
        },
        {
          "internalType": "uint256",
          "name": "_amount",
          "type": "uint256"
        }
      ],
      "name": "payBounty",
      "outputs": [
        {
          "internalType": "bool",
          "name": "",
          "type": "bool"
        }
      ],
      "stateMutability": "nonpayable",
      "type": "function"
    },
    {
      "inputs": [],
      "name": "poolCap",
      "outputs": [
        {
          "internalType": "uint256",
          "name": "",
          "type": "uint256"
        }
      ],
      "stateMutability": "view",
      "type": "function"
    },
    {
      "inputs": [],
      "name": "poolCapTimelock",
      "outputs": [
        {
          "internalType": "uint256",
          "name": "timelock",
          "type": "uint256"
        },
        {
          "internalType": "uint256",
          "name": "timeLimit",
          "type": "uint256"
        },
        {
          "internalType": "uint256",
          "name": "amount",
          "type": "uint256"
        },
        {
          "internalType": "bool",
          "name": "executed",
          "type": "bool"
        }
      ],
      "stateMutability": "view",
      "type": "function"
    },
    {
      "inputs": [],
      "name": "premiumBalance",
      "outputs": [
        {
          "internalType": "uint256",
          "name": "",
          "type": "uint256"
        }
      ],
      "stateMutability": "view",
      "type": "function"
    },
    {
      "inputs": [],
      "name": "premiumCommission",
      "outputs": [
        {
          "internalType": "uint256",
          "name": "",
          "type": "uint256"
        }
      ],
      "stateMutability": "view",
      "type": "function"
    },
    {
      "inputs": [],
      "name": "projectDeposit",
      "outputs": [
        {
          "internalType": "uint256",
          "name": "",
          "type": "uint256"
        }
      ],
      "stateMutability": "view",
      "type": "function"
    },
    {
      "inputs": [
        {
          "internalType": "address",
          "name": "_token",
          "type": "address"
        },
        {
          "internalType": "address",
          "name": "_projectWallet",
          "type": "address"
        },
        {
          "internalType": "uint256",
          "name": "_amount",
          "type": "uint256"
        }
      ],
      "name": "projectDepositWithdrawal",
      "outputs": [
        {
          "internalType": "bool",
          "name": "",
          "type": "bool"
        }
      ],
      "stateMutability": "nonpayable",
      "type": "function"
    },
    {
      "inputs": [],
      "name": "requiredPremiumBalancePerPeriod",
      "outputs": [
        {
          "internalType": "uint256",
          "name": "",
          "type": "uint256"
        }
      ],
      "stateMutability": "view",
      "type": "function"
    },
    {
      "inputs": [
        {
          "internalType": "uint256",
          "name": "_newAPY",
          "type": "uint256"
        }
      ],
      "name": "scheduleAPYChange",
      "outputs": [],
      "stateMutability": "nonpayable",
      "type": "function"
    },
    {
      "inputs": [
        {
          "internalType": "uint256",
          "name": "_newPoolCap",
          "type": "uint256"
        }
      ],
      "name": "schedulePoolCapChange",
      "outputs": [],
      "stateMutability": "nonpayable",
      "type": "function"
    },
    {
      "inputs": [
        {
          "internalType": "address",
          "name": "_staker",
          "type": "address"
        },
        {
          "internalType": "uint256",
          "name": "_amount",
          "type": "uint256"
        }
      ],
      "name": "scheduleUnstake",
      "outputs": [
        {
          "internalType": "bool",
          "name": "",
          "type": "bool"
        }
      ],
      "stateMutability": "nonpayable",
      "type": "function"
    },
    {
      "inputs": [
        {
          "internalType": "uint256",
          "name": "_amount",
          "type": "uint256"
        }
      ],
      "name": "scheduleprojectDepositWithdrawal",
      "outputs": [
        {
          "internalType": "bool",
          "name": "",
          "type": "bool"
        }
      ],
      "stateMutability": "nonpayable",
      "type": "function"
    },
    {
      "inputs": [
        {
          "internalType": "address",
          "name": "_token",
          "type": "address"
        },
        {
          "internalType": "address",
          "name": "_projectWallet",
          "type": "address"
        },
        {
          "internalType": "uint256",
          "name": "_desiredAPY",
          "type": "uint256"
        }
      ],
      "name": "setDesiredAPY",
      "outputs": [
        {
          "internalType": "bool",
          "name": "",
          "type": "bool"
        }
      ],
      "stateMutability": "nonpayable",
      "type": "function"
    },
    {
      "inputs": [
        {
          "internalType": "uint256",
          "name": "_amount",
          "type": "uint256"
        }
      ],
      "name": "setPoolCap",
      "outputs": [],
      "stateMutability": "nonpayable",
      "type": "function"
    },
    {
      "inputs": [
        {
          "internalType": "address",
          "name": "_token",
          "type": "address"
        },
        {
          "internalType": "address",
          "name": "_staker",
          "type": "address"
        },
        {
          "internalType": "uint256",
          "name": "_amount",
          "type": "uint256"
        }
      ],
      "name": "stake",
      "outputs": [
        {
          "internalType": "bool",
          "name": "",
          "type": "bool"
        }
      ],
      "stateMutability": "nonpayable",
      "type": "function"
    },
    {
      "inputs": [
        {
          "internalType": "address",
          "name": "",
          "type": "address"
        },
        {
          "internalType": "uint256",
          "name": "",
          "type": "uint256"
        }
      ],
      "name": "staker",
      "outputs": [
        {
          "internalType": "uint256",
          "name": "stakeBalance",
          "type": "uint256"
        },
        {
          "internalType": "uint256",
          "name": "balanceTimeStamp",
          "type": "uint256"
        }
      ],
      "stateMutability": "view",
      "type": "function"
    },
    {
      "inputs": [
        {
          "internalType": "uint256",
          "name": "",
          "type": "uint256"
        }
      ],
      "name": "stakerList",
      "outputs": [
        {
          "internalType": "address",
          "name": "",
          "type": "address"
        }
      ],
      "stateMutability": "view",
      "type": "function"
    },
    {
      "inputs": [
        {
          "internalType": "address",
          "name": "",
          "type": "address"
        }
      ],
      "name": "stakerReimbursement",
      "outputs": [
        {
          "internalType": "uint256",
          "name": "",
          "type": "uint256"
        }
      ],
      "stateMutability": "view",
      "type": "function"
    },
    {
      "inputs": [
        {
          "internalType": "address",
          "name": "",
          "type": "address"
        }
      ],
      "name": "stakerTimelock",
      "outputs": [
        {
          "internalType": "uint256",
          "name": "timelock",
          "type": "uint256"
        },
        {
          "internalType": "uint256",
          "name": "timeLimit",
          "type": "uint256"
        },
        {
          "internalType": "uint256",
          "name": "amount",
          "type": "uint256"
        },
        {
          "internalType": "bool",
          "name": "executed",
          "type": "bool"
        }
      ],
      "stateMutability": "view",
      "type": "function"
    },
    {
      "inputs": [
        {
          "internalType": "uint256",
          "name": "",
          "type": "uint256"
        }
      ],
      "name": "stakersDeposit",
      "outputs": [
        {
          "internalType": "uint256",
          "name": "stakeBalance",
          "type": "uint256"
        },
        {
          "internalType": "uint256",
          "name": "balanceTimeStamp",
          "type": "uint256"
        }
      ],
      "stateMutability": "view",
      "type": "function"
    },
    {
      "inputs": [],
      "name": "stakingPause",
      "outputs": [
        {
          "internalType": "uint256",
          "name": "",
          "type": "uint256"
        }
      ],
      "stateMutability": "view",
      "type": "function"
    },
    {
      "inputs": [
        {
          "internalType": "address",
          "name": "_token",
          "type": "address"
        },
        {
          "internalType": "address",
          "name": "_staker",
          "type": "address"
        },
        {
          "internalType": "uint256",
          "name": "_amount",
          "type": "uint256"
        }
      ],
      "name": "unstake",
      "outputs": [
        {
          "internalType": "bool",
          "name": "",
          "type": "bool"
        }
      ],
      "stateMutability": "nonpayable",
      "type": "function"
    },
    {
      "inputs": [],
      "name": "viewBountyBalance",
      "outputs": [
        {
          "internalType": "uint256",
          "name": "",
          "type": "uint256"
        }
      ],
      "stateMutability": "view",
      "type": "function"
    },
    {
      "inputs": [],
      "name": "viewDesiredAPY",
      "outputs": [
        {
          "internalType": "uint256",
          "name": "",
          "type": "uint256"
        }
      ],
      "stateMutability": "view",
      "type": "function"
    },
    {
      "inputs": [],
      "name": "viewHackerPayout",
      "outputs": [
        {
          "internalType": "uint256",
          "name": "",
          "type": "uint256"
        }
      ],
      "stateMutability": "view",
      "type": "function"
    },
    {
      "inputs": [],
      "name": "viewPoolCap",
      "outputs": [
        {
          "internalType": "uint256",
          "name": "",
          "type": "uint256"
        }
      ],
      "stateMutability": "view",
      "type": "function"
    },
    {
      "inputs": [],
      "name": "viewPremiumBalance",
      "outputs": [
        {
          "internalType": "uint256",
          "name": "",
          "type": "uint256"
        }
      ],
      "stateMutability": "view",
      "type": "function"
    },
    {
      "inputs": [],
      "name": "viewProjecDeposit",
      "outputs": [
        {
          "internalType": "uint256",
          "name": "",
          "type": "uint256"
        }
      ],
      "stateMutability": "view",
      "type": "function"
    },
    {
      "inputs": [],
      "name": "viewRequirePremiumBalance",
      "outputs": [
        {
          "internalType": "uint256",
          "name": "",
          "type": "uint256"
        }
      ],
      "stateMutability": "view",
      "type": "function"
    },
    {
      "inputs": [],
      "name": "viewStakersDeposit",
      "outputs": [
        {
          "internalType": "uint256",
          "name": "",
          "type": "uint256"
        }
      ],
      "stateMutability": "view",
      "type": "function"
    },
    {
      "inputs": [
        {
          "internalType": "address",
          "name": "_staker",
          "type": "address"
        }
      ],
      "name": "viewUserStakingBalance",
      "outputs": [
        {
          "internalType": "uint256",
          "name": "",
          "type": "uint256"
        },
        {
          "internalType": "uint256",
          "name": "",
          "type": "uint256"
        }
      ],
      "stateMutability": "view",
      "type": "function"
    },
    {
      "inputs": [
        {
          "internalType": "address",
          "name": "_staker",
          "type": "address"
        }
      ],
      "name": "viewUserTimelock",
      "outputs": [
        {
          "internalType": "uint256",
          "name": "timelock",
          "type": "uint256"
        },
        {
          "internalType": "uint256",
          "name": "amount",
          "type": "uint256"
        },
        {
          "internalType": "bool",
          "name": "executed",
          "type": "bool"
        }
      ],
      "stateMutability": "view",
      "type": "function"
    },
    {
      "inputs": [],
      "name": "viewcurrentAPY",
      "outputs": [
        {
          "internalType": "uint256",
          "name": "",
          "type": "uint256"
        }
      ],
      "stateMutability": "view",
      "type": "function"
    },
    {
      "inputs": [],
      "name": "withdrawalTimelock",
      "outputs": [
        {
          "internalType": "uint256",
          "name": "timelock",
          "type": "uint256"
        },
        {
          "internalType": "uint256",
          "name": "timeLimit",
          "type": "uint256"
        },
        {
          "internalType": "uint256",
          "name": "amount",
          "type": "uint256"
        },
        {
          "internalType": "bool",
          "name": "executed",
          "type": "bool"
        }
      ],
      "stateMutability": "view",
      "type": "function"
    }
  ],
  "bytecode": {
    "object": "0x608060405234801561001057600080fd5b50614c2b806100206000396000f3fe608060405234801561001057600080fd5b50600436106103785760003560e01c806372d26951116101d3578063b6aa676b11610104578063d5cb8669116100a2578063ddaaae031161007c578063ddaaae031461078d578063e45080e6146107a0578063ff45d4c0146107a8578063ffa1ad74146107b057600080fd5b8063d5cb866914610769578063d6c47be714610771578063d835f5351461077a57600080fd5b8063c790ef82116100de578063c790ef8214610728578063cc12c3111461073b578063d084b03a1461074e578063d26c90a91461075657600080fd5b8063b6aa676b14610703578063b954dc571461070c578063bf6eac2f1461071557600080fd5b80638aa82e8211610171578063a194c3b61161014b578063a194c3b6146106cc578063a5f5be54146106df578063aaf5eb68146106f1578063b4d1d795146106f957600080fd5b80638aa82e821461069d57806396ce0795146106b05780639e4bfaa5146106b957600080fd5b806378eb46fd116101ad57806378eb46fd1461066857806380d440ff14610670578063839145401461068957806384dc10b41461069457600080fd5b806372d269511461061457806373927c111461061d578063769966e81461063057600080fd5b8063383639b3116102ad5780634b5df6cc1161024b57806355455df21161022557806355455df2146105cc5780635a898d03146105d557806360829f8a146105e8578063728ecaf8146105fb57600080fd5b80634b5df6cc1461059b5780634c3bdee0146105ae578063503cb917146105b757600080fd5b8063419b7bd711610287578063419b7bd71461055e57806344ebc03d14610571578063481c6a751461057a5780634a94bcb31461059357600080fd5b8063383639b3146105295780633a5b0172146105315780633f6fc7981461053e57600080fd5b806320d830861161031a5780633065f450116102f45780633065f450146104aa578063313ce567146104d25780633147096d146104db578063348e50c6146104fe57600080fd5b806320d83086146104365780632d7807a91461043e5780632e17fec41461049757600080fd5b80631104ec25116103565780631104ec25146103c257806316e17b8d146103cb5780631a89cabd146103d35780631e27970f146103fb57600080fd5b8063013eba921461037d578063046afb1b146103b05780630ba68f1a146103b9575b600080fd5b61039d61038b366004614744565b600e6020526000908152604090205481565b6040519081526020015b60405180910390f35b61039d60055481565b61039d60035481565b61039d600a5481565b61039d6107b8565b6103e66103e1366004614744565b61086a565b604080519283526020830191909152016103a7565b601a54601b54601c54601d546104149392919060ff1684565b60408051948552602085019390935291830152151560608201526080016103a7565b60075461039d565b61047a61044c366004614744565b6001600160a01b0316600090815260106020526040902080546002820154600390920154909260ff90911690565b6040805193845260208401929092521515908201526060016103a7565b61039d6104a536600461475f565b610929565b6104bd6104b8366004614792565b61098a565b604080519283529015156020830152016103a7565b61039d60015481565b6104ee6104e93660046147d5565b610b92565b60405190151581526020016103a7565b61051161050c366004614811565b610c29565b6040516001600160a01b0390911681526020016103a7565b600b5461039d565b6024546104ee9060ff1681565b61039d61054c366004614744565b60116020526000908152604090205481565b6104ee61056c3660046147d5565b610c53565b61039d60075481565b600054610511906201000090046001600160a01b031681565b61039d610d53565b6104ee6105a9366004614811565b610e3c565b61039d600c5481565b6105ca6105c5366004614811565b610f04565b005b61039d600d5481565b6105ca6105e336600461482a565b610f53565b6104ee6105f63660046147d5565b6110d0565b6016546017546018546019546104149392919060ff1684565b61039d600b5481565b6104ee61062b366004614854565b61155c565b61041461063e366004614744565b60106020526000908152604090208054600182015460028301546003909301549192909160ff1684565b60085461039d565b6012546013546014546015546104149392919060ff1684565b61039d6301e1338081565b61039d60085481565b6104ee6106ab36600461475f565b611b4b565b61039d60045481565b6103e66106c736600461482a565b61215c565b6103e66106da366004614811565b612198565b6024546104ee90610100900460ff1681565b61039d606481565b61039d62093a8081565b61039d60065481565b61039d60095481565b6104ee6107233660046147d5565b6121c6565b6104ee61073636600461482a565b6126ad565b6104ee6107493660046147d5565b612852565b600c5461039d565b6105ca610764366004614811565b612c8c565b61039d612cdb565b61039d60025481565b6105ca610788366004614811565b612cfa565b6103e661079b366004614811565b61312c565b61039d61313c565b60095461039d565b61039d600181565b6020805460408051828402810184019091528181526000928392838383015b8282101561081d578382906000526020600020906002020160405180604001604052908160008201548152602001600182015481525050815260200190600101906107d7565b505082519293505050806108345760009250505090565b60206108416001836148b5565b81548110610851576108516148cc565b9060005260206000209060020201600001549250505090565b6001600160a01b0381166000908152600f60205260408120548190806108965750600093849350915050565b6001600160a01b0384166000908152600f602052604090206108b96001836148b5565b815481106108c9576108c96148cc565b600091825260208083206002909202909101546001600160a01b0387168352600f90915260409091206108fd6001846148b5565b8154811061090d5761090d6148cc565b9060005260206000209060020201600101549250925050915091565b600080546201000090046001600160a01b031633146109635760405162461bcd60e51b815260040161095a906148e2565b60405180910390fd5b6006805460009091556109806001600160a01b03851684836131fa565b5090505b92915050565b6000805481906201000090046001600160a01b031633146109bd5760405162461bcd60e51b815260040161095a906148e2565b6001600160a01b0384166000908152600e6020908152604080832054600f83528184208054835181860281018601909452808452919493909190849084015b82821015610a42578382906000526020600020906002020160405180604001604052908160008201548152602001600182015481525050815260200190600101906109fc565b5050825160075493945092915060009050610a5e85858561326a565b9050600060045460035483610a739190614910565b610a7d919061492f565b9050610a8981836148b5565b91508180841015610af857610a9e8c8b611b4b565b610af8576001600160a01b03808c1660009081526011602052604090205490610aca908e168d836131fa565b506001600160a01b038c1660009081526011602052604081208190559099509750610b8a9650505050505050565b6001600160a01b038b16600090815260116020526040902054610b1b9082614951565b6001600160a01b03808d16600090815260116020526040812055909150610b45908d168c836131fa565b508260076000828254610b5891906148b5565b90915550506001600160a01b038b166000908152600e60205260409020429055975060019650610b8a95505050505050565b935093915050565b600080546201000090046001600160a01b03163314610bc35760405162461bcd60e51b815260040161095a906148e2565b610bd86001600160a01b0385168430856132f3565b50602454610100900460ff16610c0857610bf562093a8042614951565b600d556024805461ff0019166101001790555b81600b6000828254610c1a9190614951565b90915550600195945050505050565b601e8181548110610c3957600080fd5b6000918252602090912001546001600160a01b0316905081565b600080546201000090046001600160a01b03163314610c845760405162461bcd60e51b815260040161095a906148e2565b60408051608081018252601a54808252601b546020830152601c5492820192909252601d5460ff16151560608201529042118015610cc55750428160200151115b8015610cd357506060810151155b8015610ce3575082816040015110155b8015610cef5750805115155b610d0b5760405162461bcd60e51b815260040161095a90614969565b601d805460ff19166001179055600b8054849190600090610d2d9084906148b5565b90915550610d4790506001600160a01b03861685856131fa565b50600195945050505050565b6020805460408051828402810184019091528181526000928392838383015b82821015610db857838290600052602060002090600202016040518060400160405290816000820154815260200160018201548152505081526020019060010190610d72565b50508251929350600091505081610dd25750600b54610e0a565b82610dde6001846148b5565b81518110610dee57610dee6148cc565b602002602001015160000151600b54610e079190614951565b90505b600060045460025483610e1d9190614910565b610e27919061492f565b9050610e3381836148b5565b94505050505090565b600080546201000090046001600160a01b03163314610e6d5760405162461bcd60e51b815260040161095a906148e2565b81600b541015610ebf5760405162461bcd60e51b815260206004820152601a60248201527f416d6f756e7420626967676572207468616e206465706f736974000000000000604482015260640161095a565b610ecc62093a8042614951565b601a55610edc62093a8042614951565b610ee9906203f480614951565b601b5550601c819055601d805460ff1916905560015b919050565b6000546201000090046001600160a01b03163314610f345760405162461bcd60e51b815260040161095a906148e2565b610f4162093a8042614951565b6016556018556019805460ff19169055565b600054610100900460ff1615808015610f735750600054600160ff909116105b80610f8d5750303b158015610f8d575060005460ff166001145b610ff05760405162461bcd60e51b815260206004820152602e60248201527f496e697469616c697a61626c653a20636f6e747261637420697320616c72656160448201526d191e481a5b9a5d1a585b1a5e995960921b606482015260840161095a565b6000805460ff191660011790558015611013576000805461ff0019166101001790555b6000805462010000600160b01b031916620100006001600160a01b03861602179055600182905561104582600a614a96565b61105090600a614910565b60025561105e82600a614a96565b61106990600a614910565b60035561107782600a614a96565b611082906064614910565b60045580156110cb576000805461ff0019169055604051600181527f7f26b83ff96e1f2b6a682f133852f6798a09c465da95921460cefb38474024989060200160405180910390a15b505050565b600080546201000090046001600160a01b031633146111015760405162461bcd60e51b815260040161095a906148e2565b60006020805480602002602001604051908101604052809291908181526020016000905b8282101561116b57838290600052602060002090600202016040518060400160405290816000820154815260200160018201548152505081526020019060010190611125565b50505050905060006001825161118191906148b5565b905060085460001415806111b357508181815181106111a2576111a26148cc565b602002602001015160000151600954115b15611286576001600160a01b038516600090815260106020908152604091829020825160808101845281548082526001830154938201939093526002820154938101939093526003015460ff1615156060830152421180156112185750428160200151115b801561122657506060810151155b8015611236575084816040015110155b80156112425750805115155b61125e5760405162461bcd60e51b815260040161095a90614aa2565b506001600160a01b0385166000908152601060205260409020600301805460ff191660011790555b6001600160a01b0385166000908152600f60205260408120546112ab906001906148b5565b90506112ca604051806040016040528060008152602001600081525090565b426020808301919091526001600160a01b0388166000908152600f90915260409020805487919084908110611301576113016148cc565b90600052602060002090600202016000015461131d91906148b5565b8152601e8054604080516020808402820181019092528281526000939092909183018282801561137657602002820191906000526020600020905b81546001600160a01b03168152600190910190602001808311611358575b5050505050905081600001516000141561147857805160005b8181101561147557896001600160a01b03168382815181106113b3576113b36148cc565b60200260200101516001600160a01b0316141561146d576000836113d86001856148b5565b815181106113e8576113e86148cc565b6020026020010151905080601e8381548110611406576114066148cc565b9060005260206000200160006101000a8154816001600160a01b0302191690836001600160a01b03160217905550601e80548061144557611445614ae3565b600082815260209020810160001990810180546001600160a01b031916905501905550611475565b60010161138f565b50505b6001600160a01b0388166000908152600f60209081526040808320805460018181018355918552838520875160029092020190815586840151910155805180820190915282815290810191909152878686815181106114d9576114d96148cc565b6020026020010151600001516114ef91906148b5565b815242602080830191825280546001810182556000919091528251600080516020614bb68339815191526002909202918201559051600080516020614bd68339815191529091015561154b6001600160a01b038b168a8a6131fa565b5060019a9950505050505050505050565b600080546201000090046001600160a01b0316331461158d5760405162461bcd60e51b815260040161095a906148e2565b60006020805480602002602001604051908101604052809291908181526020016000905b828210156115f7578382906000526020600020906002020160405180604001604052908160008201548152602001600182015481525050815260200190600101906115b1565b50505050905060006001825161160d91906148b5565b90506000601e80548060200260200160405190810160405280929190818152602001828054801561166757602002820191906000526020600020905b81546001600160a01b03168152600190910190602001808311611649575b505083519394505082159150611b119050578584848151811061168c5761168c6148cc565b602002602001015160000151106119c7576000868585815181106116b2576116b26148cc565b6020026020010151600001516116c891906148b5565b90506116e7604051806040016040528060008152602001600081525090565b426020820152818152816117eb5760005b83811015611782576040805180820190915260008082524260208301528651879084908110611729576117296148cc565b6020908102919091018101516001600160a01b03166000908152600f82526040812080546001818101835591835291839020855160029093020191825593909101519201919091555061177b81614af9565b90506116f8565b5061178f8b8a8c8b613339565b506020805460018101825560008281528351600080516020614bb683398151915260029093029283015591830151600080516020614bd6833981519152909101556117dc90601e906146f3565b60019650505050505050611b43565b60008686815181106117ff576117ff6148cc565b602002602001015160000151600154600a61181a9190614a96565b611824908b614910565b61182e919061492f565b905060005b8481101561196957600086828151811061184f5761184f6148cc565b6020908102919091018101516001600160a01b0381166000908152600f9092526040822054909250611883906001906148b5565b6001600160a01b0383166000908152600f6020526040812080549293509091839081106118b2576118b26148cc565b90600052602060002090600202016000015490506118e3604051806040016040528060008152602001600081525090565b4260208201526001546118f790600a614a96565b6119018784614910565b61190b919061492f565b61191590836148b5565b81526001600160a01b039093166000908152600f60209081526040822080546001818101835591845292829020865160029094020192835594015193019290925550611962905081614af9565b9050611833565b506020805460018101825560008290528351600080516020614bb683398151915260029092029182015590830151600080516020614bd6833981519152909101556119b68c8b8d8c613339565b506001975050505050505050611b43565b60005b81811015611a545760408051808201909152600080825242602083015284518590849081106119fb576119fb6148cc565b6020908102919091018101516001600160a01b03166000908152600f825260408120805460018181018355918352918390208551600290930201918255939091015192019190915550611a4d81614af9565b90506119ca565b50611a61601e60006146f3565b6000848481518110611a7557611a756148cc565b60200260200101516000015187611a8c91906148b5565b905080600b6000828254611aa091906148b5565b9091555050604080518082019091526000808252426020808401918252805460018101825592528251600080516020614bb683398151915260029093029283015551600080516020614bd683398151915290910155611b018b8a8c8b613339565b5060019650505050505050611b43565b611b1d89888a89613339565b5085600b6000828254611b3091906148b5565b9091555060019550611b43945050505050565b949350505050565b600080546201000090046001600160a01b0316331480611b6a57503330145b611bb65760405162461bcd60e51b815260206004820152601c60248201527f4f6e6c79206d616e61676572206f722073656c6620616c6c6f77656400000000604482015260640161095a565b60006020805480602002602001604051908101604052809291908181526020016000905b82821015611c2057838290600052602060002090600202016040518060400160405290816000820154815260200160018201548152505081526020019060010190611bda565b50508251600a54600854949550909390925090506000611c428285858861339e565b6040516323b872dd60e01b81526001600160a01b03898116600483015230602483015260448201839052919250908916906323b872dd906064016020604051808303816000875af1925050508015611cb7575060408051601f3d908101601f19168201909252611cb491810190614b14565b60015b611ed2576000611cc5612cdb565b9050611ce4604051806040016040528060008152602001600081525090565b4281526020808201838152601f8054600181018255600091825284517fa03837a25210ee280c2113ff4b77ca23440b19d4866cca721c801278fd08d80760029092029182015591517fa03837a25210ee280c2113ff4b77ca23440b19d4866cca721c801278fd08d808909201919091556008849055601e805460408051828602810186019091528181529293830182828015611da957602002820191906000526020600020905b81546001600160a01b03168152600190910190602001808311611d8b575b50505050509050600081511115611ec157600060018251611dca91906148b5565b905060005b81811015611ebe576000838281518110611deb57611deb6148cc565b6020908102919091018101516001600160a01b0381166000908152600f9092526040822054909250611e1f906001906148b5565b9050611e3e604051806040016040528060008152602001600081525090565b6001600160a01b0383166000908152600f60205260409020805483908110611e6857611e686148cc565b60009182526020808320600292830201548452428482019081526001600160a01b039096168352600f81526040832080546001818101835591855291909320935191029092019182559251908301555001611dcf565b50505b600098505050505050505050610984565b806120ef576000611ee1612cdb565b9050611f00604051806040016040528060008152602001600081525090565b4281526020808201838152601f8054600181018255600091825284517fa03837a25210ee280c2113ff4b77ca23440b19d4866cca721c801278fd08d80760029092029182015591517fa03837a25210ee280c2113ff4b77ca23440b19d4866cca721c801278fd08d808909201919091556008849055601e805460408051828602810186019091528181529293830182828015611fc557602002820191906000526020600020905b81546001600160a01b03168152600190910190602001808311611fa7575b505050505090506000815111156120dd57600060018251611fe691906148b5565b905060005b818110156120da576000838281518110612007576120076148cc565b6020908102919091018101516001600160a01b0381166000908152600f909252604082205490925061203b906001906148b5565b905061205a604051806040016040528060008152602001600081525090565b6001600160a01b0383166000908152600f60205260409020805483908110612084576120846148cc565b60009182526020808320600292830201548452428482019081526001600160a01b039096168352600f81526040832080546001818101835591855291909320935191029092019182559251908301555001611feb565b50505b60009950505050505050505050610984565b506000600454600354836121039190614910565b61210d919061492f565b905080600660008282546121219190614951565b92505081905550816007600082825461213a9190614951565b909155505042600a5550506024805460ff191690555060019695505050505050565b600f602052816000526040600020818154811061217857600080fd5b600091825260209091206002909102018054600190910154909250905082565b602081815481106121a857600080fd5b60009182526020909120600290910201805460019091015490915082565b600080546201000090046001600160a01b031633146121f75760405162461bcd60e51b815260040161095a906148e2565b42600d54106122485760405162461bcd60e51b815260206004820152601960248201527f5374616b696e67206e6f74206f70656e206a7573742079657400000000000000604482015260640161095a565b60006020805480602002602001604051908101604052809291908181526020016000905b828210156122b25783829060005260206000209060020201604051806040016040529081600082015481526020016001820154815250508152602001906001019061226c565b505082519293505050806123125760408051808201909152600080825260208083018281528154600181018355919092529151600080516020614bb683398151915260029093029283015551600080516020614bd6833981519152909101555b602054600090612324906001906148b5565b9050600954856020838154811061233d5761233d6148cc565b9060005260206000209060020201600001546123599190614951565b11156123a75760405162461bcd60e51b815260206004820152601960248201527f5374616b696e6720506f6f6c20616c72656164792066756c6c00000000000000604482015260640161095a565b6001600160a01b0386166000908152600f60205260409020548061241157604080518082018252600080825260208083018281526001600160a01b038c168352600f8252938220805460018082018355918452919092209251600290910290920191825591519101555b6001600160a01b0387166000908152600f6020526040812054612436906001906148b5565b6001600160a01b0389166000908152600f6020526040902080549192509082908110612464576124646148cc565b906000526020600020906002020160000154600014156124ca57601e80546001810182556000919091527f50bb669a95c7b50b7e8a6f09454034b2b14cf2b85c730dca9a539ca82cb6e3500180546001600160a01b0319166001600160a01b038a161790555b6040805180820182526000808252426020808401919091526001600160a01b038c168252600f90529190912080548991908490811061250b5761250b6148cc565b9060005260206000209060020201600001546125279190614951565b81528261257f576001600160a01b0389166000908152600f6020526040902080548291908490811061255b5761255b6148cc565b600091825260209182902083516002909202019081559101516001909101556125bc565b6001600160a01b0389166000908152600f602090815260408220805460018181018355918452928290208451600290940201928355908301519101555b604080518082019091526000808252602082015288602086815481106125e4576125e46148cc565b9060005260206000209060020201600001546126009190614951565b815242602082015285612645578060208681548110612621576126216148cc565b60009182526020918290208351600290920201908155910151600190910155612686565b6020805460018101825560008290528251600080516020614bb683398151915260029092029182015590820151600080516020614bd6833981519152909101555b61269b6001600160a01b038c168b308c6132f3565b5060019b9a5050505050505050505050565b600080546201000090046001600160a01b031633146126de5760405162461bcd60e51b815260040161095a906148e2565b6001600160a01b0383166000908152600f6020908152604080832080548251818502810185019093528083529192909190849084015b8282101561275a57838290600052602060002090600202016040518060400160405290816000820154815260200160018201548152505081526020019060010190612714565b50505050905060006001825161277091906148b5565b905083828281518110612785576127856148cc565b60200260200101516000015110156127d65760405162461bcd60e51b8152602060048201526014602482015273496e73756669636369656e742062616c616e636560601b604482015260640161095a565b6127e362093a8042614951565b6001600160a01b03861660009081526010602052604090205561280962093a8042614951565b612816906203f480614951565b6001600160a01b039590951660009081526010602052604090206001808201969096556002810194909455505050600301805460ff1916905590565b600080546201000090046001600160a01b031633148061287157503330145b6128bd5760405162461bcd60e51b815260206004820152601c60248201527f4f6e6c79206d616e61676572206f722073656c6620616c6c6f77656400000000604482015260640161095a565b6008541561294b576040805160808101825260165480825260175460208301526018549282019290925260195460ff1615156060820152904211801561290557506060810151155b80156129145750828160400151145b80156129205750805115155b61293c5760405162461bcd60e51b815260040161095a90614aa2565b506019805460ff191660011790555b6007546020805460408051828402810184019091528181526000928392838383015b828210156129b35783829060005260206000209060020201604051806040016040529081600082015481526020016001820154815250508152602001906001019061296d565b505082519293505081159050612a0357816129cf6001836148b5565b815181106129df576129df6148cc565b6020026020010151600001516000146129fe576129fc8888611b4b565b505b612a82565b62093a806301e1338060045488600954612a1d9190614910565b612a27919061492f565b612a31919061492f565b612a3b9190614910565b925082841015612a82576000612a5185856148b5565b9050612a686001600160a01b038a168930846132f3565b508060076000828254612a7b9190614951565b9091555050505b600c8390556040805180820182524281526020808201898152601f8054600181018255600091825284517fa03837a25210ee280c2113ff4b77ca23440b19d4866cca721c801278fd08d80760029092029182015591517fa03837a25210ee280c2113ff4b77ca23440b19d4866cca721c801278fd08d8089092019190915560088a9055601e8054855181850281018501909652808652939491939192909190830182828015612b5a57602002820191906000526020600020905b81546001600160a01b03168152600190910190602001808311612b3c575b50505050509050600081511115612c7257600060018251612b7b91906148b5565b905060005b81811015612c6f576000838281518110612b9c57612b9c6148cc565b6020908102919091018101516001600160a01b0381166000908152600f9092526040822054909250612bd0906001906148b5565b9050612bef604051806040016040528060008152602001600081525090565b6001600160a01b0383166000908152600f60205260409020805483908110612c1957612c196148cc565b60009182526020808320600292830201548452428482019081526001600160a01b039096168352600f81526040832080546001818101835591855291909320935191029092019182559251908301555001612b80565b50505b50506024805460ff19169055506001979650505050505050565b6000546201000090046001600160a01b03163314612cbc5760405162461bcd60e51b815260040161095a906148e2565b612cc962093a8042614951565b6012556014556015805460ff19169055565b6000806009546064600754612cf09190614910565b610984919061492f565b6000546201000090046001600160a01b03163314612d2a5760405162461bcd60e51b815260040161095a906148e2565b60095415612db8576040805160808101825260125480825260135460208301526014549282019290925260155460ff16151560608201529042118015612d7257506060810151155b8015612d815750818160400151145b8015612d8d5750805115155b612da95760405162461bcd60e51b815260040161095a90614969565b506015805460ff191660011790555b60006020805480602002602001604051908101604052809291908181526020016000905b82821015612e2257838290600052602060002090600202016040518060400160405290816000820154815260200160018201548152505081526020019060010190612ddc565b50508251929350508115905061312557600082612e406001846148b5565b81518110612e5057612e506148cc565b602002602001015160000151905083811115613123576000601e805480602002602001604051908101604052809291908181526020018280548015612ebe57602002820191906000526020600020905b81546001600160a01b03168152600190910190602001808311612ea0575b5050835193945060009250612ed79150889050856148b5565b905060005b82811015613096576000848281518110612ef857612ef86148cc565b6020908102919091018101516001600160a01b0381166000908152600f9092526040822054909250612f2c906001906148b5565b600154909150600088612f4083600a614a96565b6001600160a01b0386166000908152600f60205260409020805486908110612f6a57612f6a6148cc565b906000526020600020906002020160000154612f869190614910565b612f90919061492f565b90506000612f9f83600a614a96565b612fa98389614910565b612fb3919061492f565b6001600160a01b038616600090815260116020526040812080549293508392909190612fe0908490614951565b909155505060408051808201909152600080825260208201526001600160a01b0386166000908152600f60205260409020805483919087908110613026576130266148cc565b90600052602060002090600202016000015461304291906148b5565b81524260208083019182526001600160a01b039097166000908152600f8852604081208054600181810183559183529890912092516002909802909201968755519581019590955550505091019050612edc565b50604080518082019091526000815242602082015281876130b86001896148b5565b815181106130c8576130c86148cc565b6020026020010151600001516130de91906148b5565b81526020805460018101825560008290528251600080516020614bb6833981519152600290920291820155910151600080516020614bd6833981519152909101555050505b505b5050600955565b601f81815481106121a857600080fd5b6020805460408051828402810184019091528181526000928392838383015b828210156131a15783829060005260206000209060020201604051806040016040529081600082015481526020016001820154815250508152602001906001019061315b565b505082519293506000915050816131bb5750600b546131f3565b826131c76001846148b5565b815181106131d7576131d76148cc565b602002602001015160000151600b546131f09190614951565b90505b9392505050565b6040516001600160a01b03831660248201526044810182905260009061326090859063a9059cbb60e01b906064015b60408051601f198184030181529190526020810180516001600160e01b03166001600160e01b031990931692909217909152613b45565b5060019392505050565b600080601f805480602002602001604051908101604052809291908181526020016000905b828210156132d55783829060005260206000209060020201604051806040016040529081600082015481526020016001820154815250508152602001906001019061328f565b50505050905060006132e986868685613c17565b9695505050505050565b6040516001600160a01b038085166024830152831660448201526064810182905260009061332e9086906323b872dd60e01b90608401613229565b506001949350505050565b6000806004546002548461334d9190614910565b613357919061492f565b9050600061336582856148b5565b905061337b6001600160a01b03881687836131fa565b506133906001600160a01b03881686846131fa565b506001979650505050505050565b60008060005b8581101561341757848482815181106133bf576133bf6148cc565b602002602001015160200151111561340757602280546001810182556000919091527f61035b26e3e9eee00e0d72fd1ee8ddca6894550dca6916ea2ac6baa90d11e510018190555b61341081614af9565b90506133a4565b506000602280548060200260200160405190810160405280929190818152602001828054801561346657602002820191906000526020600020905b815481526020019060010190808311613452575b50508351939450600092505050816134e75761348287426148b5565b9050806301e133806004548b8960018d61349c91906148b5565b815181106134ac576134ac6148cc565b6020026020010151600001516134c29190614910565b6134cc919061492f565b6134d6919061492f565b6134e09190614910565b9350613b2c565b81600114156136c8578661353e5785600081518110613508576135086148cc565b6020026020010151602001514261351f91906148b5565b9050806301e133806004548b896000815181106134ac576134ac6148cc565b868684600081518110613553576135536148cc565b60200260200101518151811061356b5761356b6148cc565b60200260200101516020015161358191906148b5565b9050806301e133806004548b896001886000815181106135a3576135a36148cc565b60200260200101516135b591906148b5565b815181106135c5576135c56148cc565b6020026020010151600001516135db9190614910565b6135e5919061492f565b6135ef919061492f565b6135f99190614910565b6136039085614951565b93506000868460008151811061361b5761361b6148cc565b602002602001015181518110613633576136336148cc565b6020026020010151602001514261364a91906148b5565b9050806301e133806004548c8a8860008151811061366a5761366a6148cc565b602002602001015181518110613682576136826148cc565b6020026020010151600001516136989190614910565b6136a2919061492f565b6136ac919061492f565b6136b69190614910565b6136c09086614951565b945050613b2c565b60005b82811015613b2a578761382c576136e36001846148b5565b8114156137a857868482815181106136fd576136fd6148cc565b602002602001015181518110613715576137156148cc565b6020026020010151602001514261372c91906148b5565b9150816301e133806004548c8a88868151811061374b5761374b6148cc565b602002602001015181518110613763576137636148cc565b6020026020010151600001516137799190614910565b613783919061492f565b61378d919061492f565b6137979190614910565b6137a19086614951565b9450613b1a565b868482815181106137bb576137bb6148cc565b6020026020010151815181106137d3576137d36148cc565b60200260200101516020015187858360016137ee9190614951565b815181106137fe576137fe6148cc565b602002602001015181518110613816576138166148cc565b60200260200101516020015161372c91906148b5565b806139f9578787858381518110613845576138456148cc565b60200260200101518151811061385d5761385d6148cc565b60200260200101516020015161387391906148b5565b9150816301e133806004548c8a6001898781518110613894576138946148cc565b60200260200101516138a691906148b5565b815181106138b6576138b66148cc565b6020026020010151600001516138cc9190614910565b6138d6919061492f565b6138e0919061492f565b6138ea9190614910565b6138f49086614951565b945060008785838151811061390b5761390b6148cc565b602002602001015181518110613923576139236148cc565b60200260200101516020015188868481518110613942576139426148cc565b602002602001015160016139569190614951565b81518110613966576139666148cc565b60200260200101516020015161397c91906148b5565b9050806301e133806004548d8b89878151811061399b5761399b6148cc565b6020026020010151815181106139b3576139b36148cc565b6020026020010151600001516139c99190614910565b6139d3919061492f565b6139dd919061492f565b6139e79190614910565b6139f19087614951565b955050613b1a565b613a046001846148b5565b811415613a1e57868482815181106136fd576136fd6148cc565b86848281518110613a3157613a316148cc565b602002602001015181518110613a4957613a496148cc565b6020026020010151602001518785836001613a649190614951565b81518110613a7457613a746148cc565b602002602001015181518110613a8c57613a8c6148cc565b602002602001015160200151613aa291906148b5565b9150816301e133806004548c8a888681518110613ac157613ac16148cc565b602002602001015181518110613ad957613ad96148cc565b602002602001015160000151613aef9190614910565b613af9919061492f565b613b03919061492f565b613b0d9190614910565b613b179086614951565b94505b613b2381614af9565b90506136cb565b505b613b38602260006146f3565b5091979650505050505050565b6000613b9a826040518060400160405280602081526020017f5361666545524332303a206c6f772d6c6576656c2063616c6c206661696c6564815250856001600160a01b0316613e3e9092919063ffffffff16565b8051909150156110cb5780806020019051810190613bb89190614b14565b6110cb5760405162461bcd60e51b815260206004820152602a60248201527f5361666545524332303a204552433230206f7065726174696f6e20646964206e6044820152691bdd081cdd58d8d9595960b21b606482015260840161095a565b805160009081808088613ceb5760005b84811015613ce557868181518110613c4157613c416148cc565b6020026020010151600001519250600185613c5c91906148b5565b811415613c6b57429150613c96565b86613c77826001614951565b81518110613c8757613c876148cc565b60200260200101516000015191505b6000878281518110613caa57613caa6148cc565b6020026020010151602001519050613cc78185858d8d6000613e4d565b613cd19086614951565b94505080613cde90614af9565b9050613c27565b50613e31565b60005b84811015613d945789878281518110613d0957613d096148cc565b6020026020010151600001511115613d84576021613d286001836148b5565b815460018181018455600093845260209093200155613d4790866148b5565b811415613d8457602180546001810182556000919091527f3a6357012c1a3ae0a17d304c9920310382d968ebcc4b1771f41c6b304205b570018190555b613d8d81614af9565b9050613cee565b5060006021805480602002602001604051908101604052809291908181526020018280548015613de357602002820191906000526020600020905b815481526020019060010190808311613dcf575b5050835193945050508115159050613e1357613e0289878d8d8c614381565b613e0c9086614951565b9450613e2e565b613e2189878d8d8c87614443565b613e2b9086614951565b94505b50505b5090979650505050505050565b60606131f0848460008561457d565b6000808088815b86811015613ef05789888281518110613e6f57613e6f6148cc565b60200260200101516020015110158015613ea5575088888281518110613e9757613e976148cc565b602002602001015160200151105b15613ee057602380546001810182556000919091527fd57b2b5166478fd4318d2acc6cc2c704584312bdd8781b32d5d06abda57f4230018190555b613ee981614af9565b9050613e54565b5060006023805480602002602001604051908101604052809291908181526020018280548015613f3f57602002820191906000526020600020905b815481526020019060010190808311613f2b575b5050835193945050508115159050613fc057613f5b8b426148b5565b9350836301e13380600454858c60018d613f7591906148b5565b81518110613f8557613f856148cc565b602002602001015160000151613f9b9190614910565b613fa5919061492f565b613faf919061492f565b613fb99190614910565b9450614364565b6000805b8281101561436157613fd76001846148b5565b811415614027578a848281518110613ff157613ff16148cc565b602002602001015181518110614009576140096148cc565b6020026020010151602001518c61402091906148b5565b95506140ae565b8a84828151811061403a5761403a6148cc565b602002602001015181518110614052576140526148cc565b6020026020010151602001518b8583600161406d9190614951565b8151811061407d5761407d6148cc565b602002602001015181518110614095576140956148cc565b6020026020010151602001516140ab91906148b5565b95505b600189151514156142d9576000816142d3578d8c8684815181106140d4576140d46148cc565b6020026020010151815181106140ec576140ec6148cc565b60200260200101516020015161410291906148b5565b965061410f6001856148b5565b82141561415f578b858381518110614129576141296148cc565b602002602001015181518110614141576141416148cc565b6020026020010151602001518d61415891906148b5565b90506141e6565b8b858381518110614172576141726148cc565b60200260200101518151811061418a5761418a6148cc565b6020026020010151602001518c868460016141a59190614951565b815181106141b5576141b56148cc565b6020026020010151815181106141cd576141cd6148cc565b6020026020010151602001516141e391906148b5565b90505b866301e13380600454888f60018a8881518110614205576142056148cc565b602002602001015161421791906148b5565b81518110614227576142276148cc565b60200260200101516000015161423d9190614910565b614247919061492f565b614251919061492f565b61425b9190614910565b9250806301e13380600454888f89878151811061427a5761427a6148cc565b602002602001015181518110614292576142926148cc565b6020026020010151600001516142a89190614910565b6142b2919061492f565b6142bc919061492f565b6142c69190614910565b6142d09084614951565b92505b50614345565b856301e13380600454878e8886815181106142f6576142f66148cc565b60200260200101518151811061430e5761430e6148cc565b6020026020010151600001516143249190614910565b61432e919061492f565b614338919061492f565b6143429190614910565b91505b61434f8288614951565b965061435a81614af9565b9050613fc4565b50505b506143739050602360006146f3565b509098975050505050505050565b6000808080808561439360018b6148b5565b815181106143a3576143a36148cc565b6020026020010151600001518810156143e557856143c260018b6148b5565b815181106143d2576143d26148cc565b60200260200101516000015192506143ed565b879250600193505b4291506000866143fe60018c6148b5565b8151811061440e5761440e6148cc565b602002602001015160200151905061442a8185858b8f8a613e4d565b6144349083614951565b9b9a5050505050505050505050565b805160009081908190819081908b825b8281101561456b578061446c578b9550600196506144a6565b8989828151811061447f5761447f6148cc565b602002602001015181518110614497576144976148cc565b60200260200101516000015195505b6144b160018e6148b5565b8114156144c057429450614504565b89896144cd836001614951565b815181106144dd576144dd6148cc565b6020026020010151815181106144f5576144f56148cc565b60200260200101516000015194505b60008a8a8381518110614519576145196148cc565b602002602001015181518110614531576145316148cc565b602002602001015160200151905061454d8188888f878d613e4d565b6145579086614951565b9450508061456490614af9565b9050614453565b50919c9b505050505050505050505050565b6060824710156145de5760405162461bcd60e51b815260206004820152602660248201527f416464726573733a20696e73756666696369656e742062616c616e636520666f6044820152651c8818d85b1b60d21b606482015260840161095a565b600080866001600160a01b031685876040516145fa9190614b66565b60006040518083038185875af1925050503d8060008114614637576040519150601f19603f3d011682016040523d82523d6000602084013e61463c565b606091505b509150915061464d87838387614658565b979650505050505050565b606083156146c45782516146bd576001600160a01b0385163b6146bd5760405162461bcd60e51b815260206004820152601d60248201527f416464726573733a2063616c6c20746f206e6f6e2d636f6e7472616374000000604482015260640161095a565b5081611b43565b611b4383838151156146d95781518083602001fd5b8060405162461bcd60e51b815260040161095a9190614b82565b50805460008255906000526020600020908101906147119190614714565b50565b5b808211156147295760008155600101614715565b5090565b80356001600160a01b0381168114610eff57600080fd5b60006020828403121561475657600080fd5b6131f38261472d565b6000806040838503121561477257600080fd5b61477b8361472d565b91506147896020840161472d565b90509250929050565b6000806000606084860312156147a757600080fd5b6147b08461472d565b92506147be6020850161472d565b91506147cc6040850161472d565b90509250925092565b6000806000606084860312156147ea57600080fd5b6147f38461472d565b92506148016020850161472d565b9150604084013590509250925092565b60006020828403121561482357600080fd5b5035919050565b6000806040838503121561483d57600080fd5b6148468361472d565b946020939093013593505050565b6000806000806080858703121561486a57600080fd5b6148738561472d565b93506148816020860161472d565b925061488f6040860161472d565b9396929550929360600135925050565b634e487b7160e01b600052601160045260246000fd5b6000828210156148c7576148c761489f565b500390565b634e487b7160e01b600052603260045260246000fd5b60208082526014908201527313db9b1e481b585b9859d95c88185b1b1bddd95960621b604082015260600190565b600081600019048311821515161561492a5761492a61489f565b500290565b60008261494c57634e487b7160e01b600052601260045260246000fd5b500490565b600082198211156149645761496461489f565b500190565b60208082526029908201527f54696d656c6f636b206e6f7420736574206f72206e6f7420636f6d706c6574656040820152686420696e2074696d6560b81b606082015260800190565b600181815b808511156149ed5781600019048211156149d3576149d361489f565b808516156149e057918102915b93841c93908002906149b7565b509250929050565b600082614a0457506001610984565b81614a1157506000610984565b8160018114614a275760028114614a3157614a4d565b6001915050610984565b60ff841115614a4257614a4261489f565b50506001821b610984565b5060208310610133831016604e8410600b8410161715614a70575081810a610984565b614a7a83836149b2565b8060001904821115614a8e57614a8e61489f565b029392505050565b60006131f383836149f5565b60208082526021908201527f54696d656c6f636b206e6f7420736574206f72206e6f7420636f6d706c6574656040820152601960fa1b606082015260800190565b634e487b7160e01b600052603160045260246000fd5b6000600019821415614b0d57614b0d61489f565b5060010190565b600060208284031215614b2657600080fd5b815180151581146131f357600080fd5b60005b83811015614b51578181015183820152602001614b39565b83811115614b60576000848401525b50505050565b60008251614b78818460208701614b36565b9190910192915050565b6020815260008251806020840152614ba1816040850160208701614b36565b601f01601f1916919091016040019291505056fec97bfaf2f8ee708c303a06d134f5ecd8389ae0432af62dc132a24118292866bbc97bfaf2f8ee708c303a06d134f5ecd8389ae0432af62dc132a24118292866bca2646970667358221220872d2c51407bb94e8432c136bfedd29f18ef8500c56d9cf5d7831c997c8dc27b64736f6c634300080a0033",
    "linkReferences": {}
  },
  "methodIdentifiers": {
    "APYTimelock()": "728ecaf8",
    "APYdropped()": "3a5b0172",
    "APYrecords(uint256)": "ddaaae03",
    "PERIOD()": "b4d1d795",
    "PRECISION()": "aaf5eb68",
    "VERSION()": "ffa1ad74",
    "YEAR()": "83914540",
    "billPremium(address,address)": "8aa82e82",
    "bountyCommission()": "d6c47be7",
    "bountyDeposit(address,address,uint256)": "3147096d",
    "claimPremium(address,address,address)": "3065f450",
    "collectEnshieldPremiumFees(address,address)": "2e17fec4",
    "decimals()": "313ce567",
    "denominator()": "96ce0795",
    "desiredAPY()": "84dc10b4",
    "enshieldBountyCommission()": "046afb1b",
    "enshieldPremiumFees()": "b6aa676b",
    "firstDeposit()": "a5f5be54",
    "initializeImplementation(address,uint256)": "5a898d03",
    "lastClaimed(address)": "013eba92",
    "lastTimePaid()": "1104ec25",
    "manager()": "481c6a75",
    "payBounty(address,address,address,uint256)": "73927c11",
    "poolCap()": "b954dc57",
    "poolCapTimelock()": "80d440ff",
    "premiumBalance()": "44ebc03d",
    "premiumCommission()": "0ba68f1a",
    "projectDeposit()": "72d26951",
    "projectDepositWithdrawal(address,address,uint256)": "419b7bd7",
    "requiredPremiumBalancePerPeriod()": "4c3bdee0",
    "scheduleAPYChange(uint256)": "503cb917",
    "schedulePoolCapChange(uint256)": "d26c90a9",
    "scheduleUnstake(address,uint256)": "c790ef82",
    "scheduleprojectDepositWithdrawal(uint256)": "4b5df6cc",
    "setDesiredAPY(address,address,uint256)": "cc12c311",
    "setPoolCap(uint256)": "d835f535",
    "stake(address,address,uint256)": "bf6eac2f",
    "staker(address,uint256)": "9e4bfaa5",
    "stakerList(uint256)": "348e50c6",
    "stakerReimbursement(address)": "3f6fc798",
    "stakerTimelock(address)": "769966e8",
    "stakersDeposit(uint256)": "a194c3b6",
    "stakingPause()": "55455df2",
    "unstake(address,address,uint256)": "60829f8a",
    "viewBountyBalance()": "e45080e6",
    "viewDesiredAPY()": "78eb46fd",
    "viewHackerPayout()": "4a94bcb3",
    "viewPoolCap()": "ff45d4c0",
    "viewPremiumBalance()": "20d83086",
    "viewProjecDeposit()": "383639b3",
    "viewRequirePremiumBalance()": "d084b03a",
    "viewStakersDeposit()": "16e17b8d",
    "viewUserStakingBalance(address)": "1a89cabd",
    "viewUserTimelock(address)": "2d7807a9",
    "viewcurrentAPY()": "d5cb8669",
    "withdrawalTimelock()": "1e27970f"
  },
  "id": 25
}