{
  "abi": [
    {
      "anonymous": false,
      "inputs": [
        {
          "indexed": false,
          "internalType": "uint8",
          "name": "version",
          "type": "uint8"
        }
      ],
      "name": "Initialized",
      "type": "event"
    },
    {
      "anonymous": false,
      "inputs": [
        {
          "indexed": true,
          "internalType": "address",
          "name": "previousOwner",
          "type": "address"
        },
        {
          "indexed": true,
          "internalType": "address",
          "name": "newOwner",
          "type": "address"
        }
      ],
      "name": "OwnershipTransferred",
      "type": "event"
    },
    {
      "inputs": [],
      "name": "APYTimelock",
      "outputs": [
        {
          "internalType": "uint256",
          "name": "timelock",
          "type": "uint256"
        },
        {
          "internalType": "uint256",
          "name": "timeLimit",
          "type": "uint256"
        },
        {
          "internalType": "uint256",
          "name": "amount",
          "type": "uint256"
        },
        {
          "internalType": "bool",
          "name": "executed",
          "type": "bool"
        }
      ],
      "stateMutability": "view",
      "type": "function"
    },
    {
      "inputs": [],
      "name": "APYdropped",
      "outputs": [
        {
          "internalType": "bool",
          "name": "",
          "type": "bool"
        }
      ],
      "stateMutability": "view",
      "type": "function"
    },
    {
      "inputs": [
        {
          "internalType": "uint256",
          "name": "",
          "type": "uint256"
        }
      ],
      "name": "APYrecords",
      "outputs": [
        {
          "internalType": "uint256",
          "name": "timeStamp",
          "type": "uint256"
        },
        {
          "internalType": "uint256",
          "name": "periodAPY",
          "type": "uint256"
        }
      ],
      "stateMutability": "view",
      "type": "function"
    },
    {
      "inputs": [],
      "name": "PERIOD",
      "outputs": [
        {
          "internalType": "uint256",
          "name": "",
          "type": "uint256"
        }
      ],
      "stateMutability": "view",
      "type": "function"
    },
    {
      "inputs": [],
      "name": "PRECISION",
      "outputs": [
        {
          "internalType": "uint256",
          "name": "",
          "type": "uint256"
        }
      ],
      "stateMutability": "view",
      "type": "function"
    },
    {
      "inputs": [],
      "name": "VERSION",
      "outputs": [
        {
          "internalType": "uint256",
          "name": "",
          "type": "uint256"
        }
      ],
      "stateMutability": "view",
      "type": "function"
    },
    {
      "inputs": [],
      "name": "YEAR",
      "outputs": [
        {
          "internalType": "uint256",
          "name": "",
          "type": "uint256"
        }
      ],
      "stateMutability": "view",
      "type": "function"
    },
    {
      "inputs": [
        {
          "internalType": "address",
          "name": "_token",
          "type": "address"
        },
        {
          "internalType": "address",
          "name": "_projectWallet",
          "type": "address"
        }
      ],
      "name": "billPremium",
      "outputs": [
        {
          "internalType": "bool",
          "name": "",
          "type": "bool"
        }
      ],
      "stateMutability": "nonpayable",
      "type": "function"
    },
    {
      "inputs": [],
      "name": "bountyCommission",
      "outputs": [
        {
          "internalType": "uint256",
          "name": "",
          "type": "uint256"
        }
      ],
      "stateMutability": "view",
      "type": "function"
    },
    {
      "inputs": [
        {
          "internalType": "address",
          "name": "_token",
          "type": "address"
        },
        {
          "internalType": "address",
          "name": "_projectWallet",
          "type": "address"
        },
        {
          "internalType": "uint256",
          "name": "_amount",
          "type": "uint256"
        }
      ],
      "name": "bountyDeposit",
      "outputs": [
        {
          "internalType": "bool",
          "name": "",
          "type": "bool"
        }
      ],
      "stateMutability": "nonpayable",
      "type": "function"
    },
    {
      "inputs": [
        {
          "internalType": "address",
          "name": "_token",
          "type": "address"
        },
        {
          "internalType": "address",
          "name": "_staker",
          "type": "address"
        },
        {
          "internalType": "address",
          "name": "_projectWallet",
          "type": "address"
        }
      ],
      "name": "claimPremium",
      "outputs": [
        {
          "internalType": "uint256",
          "name": "",
          "type": "uint256"
        },
        {
          "internalType": "bool",
          "name": "",
          "type": "bool"
        }
      ],
      "stateMutability": "nonpayable",
      "type": "function"
    },
    {
      "inputs": [
        {
          "internalType": "address",
          "name": "_token",
          "type": "address"
        },
        {
          "internalType": "address",
          "name": "_saloonWallet",
          "type": "address"
        }
      ],
      "name": "collectSaloonPremiumFees",
      "outputs": [
        {
          "internalType": "uint256",
          "name": "",
          "type": "uint256"
        }
      ],
      "stateMutability": "nonpayable",
      "type": "function"
    },
    {
      "inputs": [],
      "name": "decimals",
      "outputs": [
        {
          "internalType": "uint256",
          "name": "",
          "type": "uint256"
        }
      ],
      "stateMutability": "view",
      "type": "function"
    },
    {
      "inputs": [],
      "name": "denominator",
      "outputs": [
        {
          "internalType": "uint256",
          "name": "",
          "type": "uint256"
        }
      ],
      "stateMutability": "view",
      "type": "function"
    },
    {
      "inputs": [],
      "name": "desiredAPY",
      "outputs": [
        {
          "internalType": "uint256",
          "name": "",
          "type": "uint256"
        }
      ],
      "stateMutability": "view",
      "type": "function"
    },
    {
      "inputs": [],
      "name": "firstDeposit",
      "outputs": [
        {
          "internalType": "bool",
          "name": "",
          "type": "bool"
        }
      ],
      "stateMutability": "view",
      "type": "function"
    },
    {
      "inputs": [
        {
          "internalType": "address",
          "name": "_manager",
          "type": "address"
        },
        {
          "internalType": "uint256",
          "name": "_decimals",
          "type": "uint256"
        }
      ],
      "name": "initializeImplementation",
      "outputs": [],
      "stateMutability": "nonpayable",
      "type": "function"
    },
    {
      "inputs": [
        {
          "internalType": "address",
          "name": "",
          "type": "address"
        }
      ],
      "name": "lastClaimed",
      "outputs": [
        {
          "internalType": "uint256",
          "name": "",
          "type": "uint256"
        }
      ],
      "stateMutability": "view",
      "type": "function"
    },
    {
      "inputs": [],
      "name": "lastTimePaid",
      "outputs": [
        {
          "internalType": "uint256",
          "name": "",
          "type": "uint256"
        }
      ],
      "stateMutability": "view",
      "type": "function"
    },
    {
      "inputs": [],
      "name": "manager",
      "outputs": [
        {
          "internalType": "address",
          "name": "",
          "type": "address"
        }
      ],
      "stateMutability": "view",
      "type": "function"
    },
    {
      "inputs": [],
      "name": "owner",
      "outputs": [
        {
          "internalType": "address",
          "name": "",
          "type": "address"
        }
      ],
      "stateMutability": "view",
      "type": "function"
    },
    {
      "inputs": [
        {
          "internalType": "address",
          "name": "_token",
          "type": "address"
        },
        {
          "internalType": "address",
          "name": "_saloonWallet",
          "type": "address"
        },
        {
          "internalType": "address",
          "name": "_hunter",
          "type": "address"
        },
        {
          "internalType": "uint256",
          "name": "_amount",
          "type": "uint256"
        }
      ],
      "name": "payBounty",
      "outputs": [
        {
          "internalType": "bool",
          "name": "",
          "type": "bool"
        }
      ],
      "stateMutability": "nonpayable",
      "type": "function"
    },
    {
      "inputs": [],
      "name": "poolCap",
      "outputs": [
        {
          "internalType": "uint256",
          "name": "",
          "type": "uint256"
        }
      ],
      "stateMutability": "view",
      "type": "function"
    },
    {
      "inputs": [],
      "name": "poolCapTimelock",
      "outputs": [
        {
          "internalType": "uint256",
          "name": "timelock",
          "type": "uint256"
        },
        {
          "internalType": "uint256",
          "name": "timeLimit",
          "type": "uint256"
        },
        {
          "internalType": "uint256",
          "name": "amount",
          "type": "uint256"
        },
        {
          "internalType": "bool",
          "name": "executed",
          "type": "bool"
        }
      ],
      "stateMutability": "view",
      "type": "function"
    },
    {
      "inputs": [],
      "name": "premiumBalance",
      "outputs": [
        {
          "internalType": "uint256",
          "name": "",
          "type": "uint256"
        }
      ],
      "stateMutability": "view",
      "type": "function"
    },
    {
      "inputs": [],
      "name": "premiumCommission",
      "outputs": [
        {
          "internalType": "uint256",
          "name": "",
          "type": "uint256"
        }
      ],
      "stateMutability": "view",
      "type": "function"
    },
    {
      "inputs": [],
      "name": "projectDeposit",
      "outputs": [
        {
          "internalType": "uint256",
          "name": "",
          "type": "uint256"
        }
      ],
      "stateMutability": "view",
      "type": "function"
    },
    {
      "inputs": [
        {
          "internalType": "address",
          "name": "_token",
          "type": "address"
        },
        {
          "internalType": "address",
          "name": "_projectWallet",
          "type": "address"
        },
        {
          "internalType": "uint256",
          "name": "_amount",
          "type": "uint256"
        }
      ],
      "name": "projectDepositWithdrawal",
      "outputs": [
        {
          "internalType": "bool",
          "name": "",
          "type": "bool"
        }
      ],
      "stateMutability": "nonpayable",
      "type": "function"
    },
    {
      "inputs": [],
      "name": "renounceOwnership",
      "outputs": [],
      "stateMutability": "nonpayable",
      "type": "function"
    },
    {
      "inputs": [],
      "name": "requiredPremiumBalancePerPeriod",
      "outputs": [
        {
          "internalType": "uint256",
          "name": "",
          "type": "uint256"
        }
      ],
      "stateMutability": "view",
      "type": "function"
    },
    {
      "inputs": [],
      "name": "saloonBountyCommission",
      "outputs": [
        {
          "internalType": "uint256",
          "name": "",
          "type": "uint256"
        }
      ],
      "stateMutability": "view",
      "type": "function"
    },
    {
      "inputs": [],
      "name": "saloonPremiumFees",
      "outputs": [
        {
          "internalType": "uint256",
          "name": "",
          "type": "uint256"
        }
      ],
      "stateMutability": "view",
      "type": "function"
    },
    {
      "inputs": [
        {
          "internalType": "uint256",
          "name": "_newAPY",
          "type": "uint256"
        }
      ],
      "name": "scheduleAPYChange",
      "outputs": [],
      "stateMutability": "nonpayable",
      "type": "function"
    },
    {
      "inputs": [
        {
          "internalType": "uint256",
          "name": "_newPoolCap",
          "type": "uint256"
        }
      ],
      "name": "schedulePoolCapChange",
      "outputs": [],
      "stateMutability": "nonpayable",
      "type": "function"
    },
    {
      "inputs": [
        {
          "internalType": "address",
          "name": "_staker",
          "type": "address"
        },
        {
          "internalType": "uint256",
          "name": "_amount",
          "type": "uint256"
        }
      ],
      "name": "scheduleUnstake",
      "outputs": [
        {
          "internalType": "bool",
          "name": "",
          "type": "bool"
        }
      ],
      "stateMutability": "nonpayable",
      "type": "function"
    },
    {
      "inputs": [
        {
          "internalType": "uint256",
          "name": "_amount",
          "type": "uint256"
        }
      ],
      "name": "scheduleprojectDepositWithdrawal",
      "outputs": [
        {
          "internalType": "bool",
          "name": "",
          "type": "bool"
        }
      ],
      "stateMutability": "nonpayable",
      "type": "function"
    },
    {
      "inputs": [
        {
          "internalType": "address",
          "name": "_token",
          "type": "address"
        },
        {
          "internalType": "address",
          "name": "_projectWallet",
          "type": "address"
        },
        {
          "internalType": "uint256",
          "name": "_desiredAPY",
          "type": "uint256"
        }
      ],
      "name": "setDesiredAPY",
      "outputs": [
        {
          "internalType": "bool",
          "name": "",
          "type": "bool"
        }
      ],
      "stateMutability": "nonpayable",
      "type": "function"
    },
    {
      "inputs": [
        {
          "internalType": "uint256",
          "name": "_amount",
          "type": "uint256"
        }
      ],
      "name": "setPoolCap",
      "outputs": [],
      "stateMutability": "nonpayable",
      "type": "function"
    },
    {
      "inputs": [
        {
          "internalType": "address",
          "name": "_token",
          "type": "address"
        },
        {
          "internalType": "address",
          "name": "_staker",
          "type": "address"
        },
        {
          "internalType": "uint256",
          "name": "_amount",
          "type": "uint256"
        }
      ],
      "name": "stake",
      "outputs": [
        {
          "internalType": "bool",
          "name": "",
          "type": "bool"
        }
      ],
      "stateMutability": "nonpayable",
      "type": "function"
    },
    {
      "inputs": [
        {
          "internalType": "address",
          "name": "",
          "type": "address"
        },
        {
          "internalType": "uint256",
          "name": "",
          "type": "uint256"
        }
      ],
      "name": "staker",
      "outputs": [
        {
          "internalType": "uint256",
          "name": "stakeBalance",
          "type": "uint256"
        },
        {
          "internalType": "uint256",
          "name": "balanceTimeStamp",
          "type": "uint256"
        }
      ],
      "stateMutability": "view",
      "type": "function"
    },
    {
      "inputs": [
        {
          "internalType": "uint256",
          "name": "",
          "type": "uint256"
        }
      ],
      "name": "stakerList",
      "outputs": [
        {
          "internalType": "address",
          "name": "",
          "type": "address"
        }
      ],
      "stateMutability": "view",
      "type": "function"
    },
    {
      "inputs": [
        {
          "internalType": "address",
          "name": "",
          "type": "address"
        }
      ],
      "name": "stakerTimelock",
      "outputs": [
        {
          "internalType": "uint256",
          "name": "timelock",
          "type": "uint256"
        },
        {
          "internalType": "uint256",
          "name": "timeLimit",
          "type": "uint256"
        },
        {
          "internalType": "uint256",
          "name": "amount",
          "type": "uint256"
        },
        {
          "internalType": "bool",
          "name": "executed",
          "type": "bool"
        }
      ],
      "stateMutability": "view",
      "type": "function"
    },
    {
      "inputs": [
        {
          "internalType": "uint256",
          "name": "",
          "type": "uint256"
        }
      ],
      "name": "stakersDeposit",
      "outputs": [
        {
          "internalType": "uint256",
          "name": "stakeBalance",
          "type": "uint256"
        },
        {
          "internalType": "uint256",
          "name": "balanceTimeStamp",
          "type": "uint256"
        }
      ],
      "stateMutability": "view",
      "type": "function"
    },
    {
      "inputs": [],
      "name": "stakingPause",
      "outputs": [
        {
          "internalType": "uint256",
          "name": "",
          "type": "uint256"
        }
      ],
      "stateMutability": "view",
      "type": "function"
    },
    {
      "inputs": [
        {
          "internalType": "address",
          "name": "newOwner",
          "type": "address"
        }
      ],
      "name": "transferOwnership",
      "outputs": [],
      "stateMutability": "nonpayable",
      "type": "function"
    },
    {
      "inputs": [
        {
          "internalType": "address",
          "name": "_token",
          "type": "address"
        },
        {
          "internalType": "address",
          "name": "_staker",
          "type": "address"
        },
        {
          "internalType": "uint256",
          "name": "_amount",
          "type": "uint256"
        }
      ],
      "name": "unstake",
      "outputs": [
        {
          "internalType": "bool",
          "name": "",
          "type": "bool"
        }
      ],
      "stateMutability": "nonpayable",
      "type": "function"
    },
    {
      "inputs": [],
      "name": "viewBountyBalance",
      "outputs": [
        {
          "internalType": "uint256",
          "name": "",
          "type": "uint256"
        }
      ],
      "stateMutability": "view",
      "type": "function"
    },
    {
      "inputs": [],
      "name": "viewDesiredAPY",
      "outputs": [
        {
          "internalType": "uint256",
          "name": "",
          "type": "uint256"
        }
      ],
      "stateMutability": "view",
      "type": "function"
    },
    {
      "inputs": [],
      "name": "viewHackerPayout",
      "outputs": [
        {
          "internalType": "uint256",
          "name": "",
          "type": "uint256"
        }
      ],
      "stateMutability": "view",
      "type": "function"
    },
    {
      "inputs": [],
      "name": "viewPoolCap",
      "outputs": [
        {
          "internalType": "uint256",
          "name": "",
          "type": "uint256"
        }
      ],
      "stateMutability": "view",
      "type": "function"
    },
    {
      "inputs": [],
      "name": "viewPremiumBalance",
      "outputs": [
        {
          "internalType": "uint256",
          "name": "",
          "type": "uint256"
        }
      ],
      "stateMutability": "view",
      "type": "function"
    },
    {
      "inputs": [],
      "name": "viewProjecDeposit",
      "outputs": [
        {
          "internalType": "uint256",
          "name": "",
          "type": "uint256"
        }
      ],
      "stateMutability": "view",
      "type": "function"
    },
    {
      "inputs": [],
      "name": "viewRequirePremiumBalance",
      "outputs": [
        {
          "internalType": "uint256",
          "name": "",
          "type": "uint256"
        }
      ],
      "stateMutability": "view",
      "type": "function"
    },
    {
      "inputs": [],
      "name": "viewStakersDeposit",
      "outputs": [
        {
          "internalType": "uint256",
          "name": "",
          "type": "uint256"
        }
      ],
      "stateMutability": "view",
      "type": "function"
    },
    {
      "inputs": [
        {
          "internalType": "address",
          "name": "_staker",
          "type": "address"
        }
      ],
      "name": "viewUserStakingBalance",
      "outputs": [
        {
          "internalType": "uint256",
          "name": "",
          "type": "uint256"
        },
        {
          "internalType": "uint256",
          "name": "",
          "type": "uint256"
        }
      ],
      "stateMutability": "view",
      "type": "function"
    },
    {
      "inputs": [
        {
          "internalType": "address",
          "name": "_staker",
          "type": "address"
        }
      ],
      "name": "viewUserTimelock",
      "outputs": [
        {
          "internalType": "uint256",
          "name": "timelock",
          "type": "uint256"
        },
        {
          "internalType": "uint256",
          "name": "amount",
          "type": "uint256"
        },
        {
          "internalType": "bool",
          "name": "executed",
          "type": "bool"
        }
      ],
      "stateMutability": "view",
      "type": "function"
    },
    {
      "inputs": [],
      "name": "viewcurrentAPY",
      "outputs": [
        {
          "internalType": "uint256",
          "name": "",
          "type": "uint256"
        }
      ],
      "stateMutability": "view",
      "type": "function"
    },
    {
      "inputs": [],
      "name": "withdrawalTimelock",
      "outputs": [
        {
          "internalType": "uint256",
          "name": "timelock",
          "type": "uint256"
        },
        {
          "internalType": "uint256",
          "name": "timeLimit",
          "type": "uint256"
        },
        {
          "internalType": "uint256",
          "name": "amount",
          "type": "uint256"
        },
        {
          "internalType": "bool",
          "name": "executed",
          "type": "bool"
        }
      ],
      "stateMutability": "view",
      "type": "function"
    }
  ],
  "bytecode": {
    "object": "0x60806040523480156200001157600080fd5b506200001d3362000023565b62000073565b600080546001600160a01b038381166001600160a01b0319831681178455604051919092169283917f8be0079c531659141344cd1fd0a4f28419497f9722a3daafe3b4186f6b6457e09190a35050565b61423880620000836000396000f3fe608060405234801561001057600080fd5b506004361061038e5760003560e01c806373927c11116101de578063b4d1d7951161010f578063d5cb8669116100ad578063e45080e61161007c578063e45080e6146107a9578063f2fde38b146107b1578063ff45d4c0146107c4578063ffa1ad74146107cc57600080fd5b8063d5cb866914610772578063d6c47be71461077a578063d835f53514610783578063ddaaae031461079657600080fd5b8063c790ef82116100e9578063c790ef8214610731578063cc12c31114610744578063d084b03a14610757578063d26c90a91461075f57600080fd5b8063b4d1d7951461070b578063b954dc5714610715578063bf6eac2f1461071e57600080fd5b80638da5cb5b1161017c578063a194c3b611610156578063a194c3b6146106d5578063a4bf70bd146106e8578063a5f5be54146106f1578063aaf5eb681461070357600080fd5b80638da5cb5b146106a857806396ce0795146106b95780639e4bfaa5146106c257600080fd5b806380d440ff116101b857806380d440ff14610668578063839145401461068157806384dc10b41461068c5780638aa82e821461069557600080fd5b806373927c1114610615578063769966e81461062857806378eb46fd1461066057600080fd5b80633d850fb2116102c3578063503cb9171161026157806360829f8a1161023057806360829f8a146105d8578063715018a6146105eb578063728ecaf8146105f357806372d269511461060c57600080fd5b8063503cb917146105945780635121ac9d146105a957806355455df2146105bc5780635a898d03146105c557600080fd5b8063481c6a751161029d578063481c6a751461055d5780634a94bcb3146105705780634b5df6cc146105785780634c3bdee01461058b57600080fd5b80633d850fb214610538578063419b7bd71461054157806344ebc03d1461055457600080fd5b80632d7807a9116103305780633147096d1161030a5780633147096d146104d5578063348e50c6146104f8578063383639b3146105235780633a5b01721461052b57600080fd5b80632d7807a91461044b5780633065f450146104a4578063313ce567146104cc57600080fd5b806316e17b8d1161036c57806316e17b8d146103d85780631a89cabd146103e05780631e27970f1461040857806320d830861461044357600080fd5b8063013eba92146103935780630ba68f1a146103c65780631104ec25146103cf575b600080fd5b6103b36103a1366004613d9a565b600f6020526000908152604090205481565b6040519081526020015b60405180910390f35b6103b360045481565b6103b3600b5481565b6103b36107d4565b6103f36103ee366004613d9a565b610886565b604080519283526020830191909152016103bd565b601a54601b54601c54601d546104219392919060ff1684565b60408051948552602085019390935291830152151560608201526080016103bd565b6008546103b3565b610487610459366004613d9a565b6001600160a01b0316600090815260116020526040902080546002820154600390920154909260ff90911690565b6040805193845260208401929092521515908201526060016103bd565b6104b76104b2366004613db5565b610945565b604080519283529015156020830152016103bd565b6103b360025481565b6104e86104e3366004613df8565b610b1a565b60405190151581526020016103bd565b61050b610506366004613e34565b610bad565b6040516001600160a01b0390911681526020016103bd565b600c546103b3565b6024546104e89060ff1681565b6103b360075481565b6104e861054f366004613df8565b610bd7565b6103b360085481565b60015461050b906001600160a01b031681565b6103b3610cd3565b6104e8610586366004613e34565b610dbc565b6103b3600d5481565b6105a76105a2366004613e34565b610e2e565b005b6103b36105b7366004613e4d565b610e77565b6103b3600e5481565b6105a76105d3366004613e80565b610ecb565b6104e86105e6366004613df8565b61105c565b6105a76114e4565b6016546017546018546019546104219392919060ff1684565b6103b3600c5481565b6104e8610623366004613eaa565b6114f8565b610421610636366004613d9a565b60116020526000908152604090208054600182015460028301546003909301549192909160ff1684565b6009546103b3565b6012546013546014546015546104219392919060ff1684565b6103b36301e1338081565b6103b360095481565b6104e86106a3366004613e4d565b611adc565b6000546001600160a01b031661050b565b6103b360055481565b6103f36106d0366004613e80565b611e17565b6103f36106e3366004613e34565b611e53565b6103b360065481565b6024546104e890610100900460ff1681565b6103b3606481565b6103b362093a8081565b6103b3600a5481565b6104e861072c366004613df8565b611e81565b6104e861073f366004613e80565b612364565b6104e8610752366004613df8565b612505565b600d546103b3565b6105a761076d366004613e34565b61293b565b6103b3612984565b6103b360035481565b6105a7610791366004613e34565b6129a3565b6103f36107a4366004613e34565b612a60565b6103b3612a70565b6105a76107bf366004613d9a565b612b2e565b600a546103b3565b6103b3600181565b6020805460408051828402810184019091528181526000928392838383015b82821015610839578382906000526020600020906002020160405180604001604052908160008201548152602001600182015481525050815260200190600101906107f3565b505082519293505050806108505760009250505090565b602061085d600183613f0b565b8154811061086d5761086d613f22565b9060005260206000209060020201600001549250505090565b6001600160a01b0381166000908152601060205260408120548190806108b25750600093849350915050565b6001600160a01b03841660009081526010602052604090206108d5600183613f0b565b815481106108e5576108e5613f22565b600091825260208083206002909202909101546001600160a01b038716835260109091526040909120610919600184613f0b565b8154811061092957610929613f22565b9060005260206000209060020201600101549250925050915091565b60015460009081906001600160a01b0316331461097d5760405162461bcd60e51b815260040161097490613f38565b60405180910390fd5b6001600160a01b0384166000908152600f6020908152604080832054601083528184208054835181860281018601909452808452919493909190849084015b82821015610a02578382906000526020600020906002020160405180604001604052908160008201548152602001600182015481525050815260200190600101906109bc565b5050825160085493945092915060009050610a1e858585612ba7565b9050600060055460045483610a339190613f66565b610a3d9190613f85565b9050610a498183613f0b565b91508180841015610a6057610a5e8c8b611adc565b505b60405163a9059cbb60e01b81526001600160a01b038c81166004830152602482018390528d169063a9059cbb906044016020604051808303816000875af1158015610aaf573d6000803e3d6000fd5b505050506040513d601f19601f82011682018060405250810190610ad39190613fa7565b508260086000828254610ae69190613f0b565b90915550506001600160a01b038b166000908152600f60205260409020429055975060019650505050505050935093915050565b6001546000906001600160a01b03163314610b475760405162461bcd60e51b815260040161097490613f38565b610b5c6001600160a01b038516843085612c30565b50602454610100900460ff16610b8c57610b7962093a8042613fc9565b600e556024805461ff0019166101001790555b81600c6000828254610b9e9190613fc9565b90915550600195945050505050565b601e8181548110610bbd57600080fd5b6000918252602090912001546001600160a01b0316905081565b6001546000906001600160a01b03163314610c045760405162461bcd60e51b815260040161097490613f38565b60408051608081018252601a54808252601b546020830152601c5492820192909252601d5460ff16151560608201529042118015610c455750428160200151115b8015610c5357506060810151155b8015610c63575082816040015110155b8015610c6f5750805115155b610c8b5760405162461bcd60e51b815260040161097490613fe1565b601d805460ff19166001179055600c8054849190600090610cad908490613f0b565b90915550610cc790506001600160a01b0386168585612ca9565b50600195945050505050565b6020805460408051828402810184019091528181526000928392838383015b82821015610d3857838290600052602060002090600202016040518060400160405290816000820154815260200160018201548152505081526020019060010190610cf2565b50508251929350600091505081610d525750600c54610d8a565b82610d5e600184613f0b565b81518110610d6e57610d6e613f22565b602002602001015160000151600c54610d879190613fc9565b90505b600060055460035483610d9d9190613f66565b610da79190613f85565b9050610db38183613f0b565b94505050505090565b6001546000906001600160a01b03163314610de95760405162461bcd60e51b815260040161097490613f38565b610df662093a8042613fc9565b601a55610e0662093a8042613fc9565b610e13906203f480613fc9565b601b5550601c819055601d805460ff1916905560015b919050565b6001546001600160a01b03163314610e585760405162461bcd60e51b815260040161097490613f38565b610e6562093a8042613fc9565b6016556018556019805460ff19169055565b6001546000906001600160a01b03163314610ea45760405162461bcd60e51b815260040161097490613f38565b600780546000909155610ec16001600160a01b0385168483612ca9565b5090505b92915050565b600054600160a81b900460ff1615808015610ef357506000546001600160a01b90910460ff16105b80610f145750303b158015610f145750600054600160a01b900460ff166001145b610f775760405162461bcd60e51b815260206004820152602e60248201527f496e697469616c697a61626c653a20636f6e747261637420697320616c72656160448201526d191e481a5b9a5d1a585b1a5e995960921b6064820152608401610974565b6000805460ff60a01b1916600160a01b1790558015610fa4576000805460ff60a81b1916600160a81b1790555b600180546001600160a01b0319166001600160a01b0385161790556002829055610fcf82600a614106565b610fda90600a613f66565b600355610fe882600a614106565b610ff390600a613f66565b60045561100182600a614106565b61100c906064613f66565b6005558015611057576000805460ff60a81b19169055604051600181527f7f26b83ff96e1f2b6a682f133852f6798a09c465da95921460cefb38474024989060200160405180910390a15b505050565b6001546000906001600160a01b031633146110895760405162461bcd60e51b815260040161097490613f38565b60006020805480602002602001604051908101604052809291908181526020016000905b828210156110f3578382906000526020600020906002020160405180604001604052908160008201548152602001600182015481525050815260200190600101906110ad565b5050505090506000600182516111099190613f0b565b9050600954600014158061113b575081818151811061112a5761112a613f22565b602002602001015160000151600a54115b1561120e576001600160a01b038516600090815260116020908152604091829020825160808101845281548082526001830154938201939093526002820154938101939093526003015460ff1615156060830152421180156111a05750428160200151115b80156111ae57506060810151155b80156111be575084816040015110155b80156111ca5750805115155b6111e65760405162461bcd60e51b815260040161097490613fe1565b506001600160a01b0385166000908152601160205260409020600301805460ff191660011790555b6001600160a01b03851660009081526010602052604081205461123390600190613f0b565b9050611252604051806040016040528060008152602001600081525090565b426020808301919091526001600160a01b038816600090815260109091526040902080548791908490811061128957611289613f22565b9060005260206000209060020201600001546112a59190613f0b565b8152601e805460408051602080840282018101909252828152600093909290918301828280156112fe57602002820191906000526020600020905b81546001600160a01b031681526001909101906020018083116112e0575b5050505050905081600001516000141561140057805160005b818110156113fd57896001600160a01b031683828151811061133b5761133b613f22565b60200260200101516001600160a01b031614156113f557600083611360600185613f0b565b8151811061137057611370613f22565b6020026020010151905080601e838154811061138e5761138e613f22565b9060005260206000200160006101000a8154816001600160a01b0302191690836001600160a01b03160217905550601e8054806113cd576113cd614112565b600082815260209020810160001990810180546001600160a01b0319169055019055506113fd565b600101611317565b50505b6001600160a01b03881660009081526010602090815260408083208054600181810183559185528385208751600290920201908155868401519101558051808201909152828152908101919091528786868151811061146157611461613f22565b6020026020010151600001516114779190613f0b565b8152426020808301918252805460018101825560009190915282516000805160206141c383398151915260029092029182015590516000805160206141e3833981519152909101556114d36001600160a01b038b168a8a612ca9565b5060019a9950505050505050505050565b6114ec612ce6565b6114f66000612d40565b565b6001546000906001600160a01b031633146115255760405162461bcd60e51b815260040161097490613f38565b60006020805480602002602001604051908101604052809291908181526020016000905b8282101561158f57838290600052602060002090600202016040518060400160405290816000820154815260200160018201548152505081526020019060010190611549565b5050505090506000600182516115a59190613f0b565b90506000601e8054806020026020016040519081016040528092919081815260200182805480156115ff57602002820191906000526020600020905b81546001600160a01b031681526001909101906020018083116115e1575b505050505090506000815190508584848151811061161f5761161f613f22565b60200260200101516000015110611975578584848151811061164357611643613f22565b602002602001015160000181815161165b9190613f0b565b9052506040805180820190915260008152426020820152845185908590811061168657611686613f22565b602090810291909101015151815284518590859081106116a8576116a8613f22565b602002602001015160000151600014156117b15760005b828110156117495760408051808201909152600080825242602083015285518690849081106116f0576116f0613f22565b6020908102919091018101516001600160a01b03166000908152601082526040812080546001818101835591835291839020855160029093020191825593909101519201919091555061174281614128565b90506116bf565b506117568a898b8a612d90565b5060208054600181018255600082815283516000805160206141c3833981519152600290930292830155918301516000805160206141e3833981519152909101556117a390601e90613d51565b600195505050505050611ad4565b60008585815181106117c5576117c5613f22565b6020026020010151600001516064896117de9190613f66565b6117e89190613f85565b905060005b8381101561191857600085828151811061180957611809613f22565b6020908102919091018101516001600160a01b03811660009081526010909252604082205490925061183d90600190613f0b565b6001600160a01b0383166000908152601060205260408120805492935090918390811061186c5761186c613f22565b906000526020600020906002020160000154905061189d604051806040016040528060008152602001600081525090565b4260208201526005546118b08784613f66565b6118ba9190613f85565b6118c49083613f0b565b81526001600160a01b039093166000908152601060209081526040822080546001818101835591845292829020865160029094020192835594015193019290925550611911905081614128565b90506117ed565b5060208054600181018255600082905283516000805160206141c3833981519152600290920291820155908301516000805160206141e3833981519152909101556119658b8a8c8b612d90565b5060019650505050505050611ad4565b60005b81811015611a025760408051808201909152600080825242602083015284518590849081106119a9576119a9613f22565b6020908102919091018101516001600160a01b0316600090815260108252604081208054600181810183559183529183902085516002909302019182559390910151920191909155506119fb81614128565b9050611978565b50611a0f601e6000613d51565b6000848481518110611a2357611a23613f22565b60200260200101516000015187611a3a9190613f0b565b905080600c6000828254611a4e9190613f0b565b909155505060408051808201909152600081524260208201528551869086908110611a7b57611a7b613f22565b6020908102919091018101515182528054600181018255600082905282516000805160206141c3833981519152600290920291820155908201516000805160206141e3833981519152909101556119658b8a8c8b612d90565b949350505050565b6001546000906001600160a01b0316331480611af757503330145b611b435760405162461bcd60e51b815260206004820152601c60248201527f4f6e6c79206d616e61676572206f722073656c6620616c6c6f776564000000006044820152606401610974565b60006020805480602002602001604051908101604052809291908181526020016000905b82821015611bad57838290600052602060002090600202016040518060400160405290816000820154815260200160018201548152505081526020019060010190611b67565b50508251600b54600954949550909390925090506000611bcf82858588612df5565b6040516323b872dd60e01b81526001600160a01b03898116600483015230602483015260448201839052919250908916906323b872dd906064016020604051808303816000875af1925050508015611c44575060408051601f3d908101601f19168201909252611c4191810190613fa7565b60015b611cf6576040805180820190915260006020820152428152611c64612984565b60208201908152601f8054600181018255600091825283517fa03837a25210ee280c2113ff4b77ca23440b19d4866cca721c801278fd08d80760029092029182015591517fa03837a25210ee280c2113ff4b77ca23440b19d4866cca721c801278fd08d80890920191909155611cd8612984565b9050611ce58a8a83612505565b506000975050505050505050610ec5565b80611daa576040805180820190915260006020820152428152611d17612984565b60208201908152601f8054600181018255600091825283517fa03837a25210ee280c2113ff4b77ca23440b19d4866cca721c801278fd08d80760029092029182015591517fa03837a25210ee280c2113ff4b77ca23440b19d4866cca721c801278fd08d80890920191909155611d8b612984565b9050611d988b8b83612505565b50600098505050505050505050610ec5565b50600060055460045483611dbe9190613f66565b611dc89190613f85565b90508060076000828254611ddc9190613fc9565b925050819055508160086000828254611df59190613fc9565b909155505042600b5550506024805460ff191690555060019695505050505050565b60106020528160005260406000208181548110611e3357600080fd5b600091825260209091206002909102018054600190910154909250905082565b60208181548110611e6357600080fd5b60009182526020909120600290910201805460019091015490915082565b6001546000906001600160a01b03163314611eae5760405162461bcd60e51b815260040161097490613f38565b42600e5410611eff5760405162461bcd60e51b815260206004820152601960248201527f5374616b696e67206e6f74206f70656e206a75737420796574000000000000006044820152606401610974565b60006020805480602002602001604051908101604052809291908181526020016000905b82821015611f6957838290600052602060002090600202016040518060400160405290816000820154815260200160018201548152505081526020019060010190611f23565b50508251929350505080611fc957604080518082019091526000808252602080830182815281546001810183559190925291516000805160206141c3833981519152600290930292830155516000805160206141e3833981519152909101555b602054600090611fdb90600190613f0b565b9050600a548560208381548110611ff457611ff4613f22565b9060005260206000209060020201600001546120109190613fc9565b111561205e5760405162461bcd60e51b815260206004820152601960248201527f5374616b696e6720506f6f6c20616c72656164792066756c6c000000000000006044820152606401610974565b6001600160a01b038616600090815260106020526040902054806120c857604080518082018252600080825260208083018281526001600160a01b038c16835260108252938220805460018082018355918452919092209251600290910290920191825591519101555b6001600160a01b0387166000908152601060205260408120546120ed90600190613f0b565b6001600160a01b03891660009081526010602052604090208054919250908290811061211b5761211b613f22565b9060005260206000209060020201600001546000141561218157601e80546001810182556000919091527f50bb669a95c7b50b7e8a6f09454034b2b14cf2b85c730dca9a539ca82cb6e3500180546001600160a01b0319166001600160a01b038a161790555b6040805180820182526000808252426020808401919091526001600160a01b038c16825260109052919091208054899190849081106121c2576121c2613f22565b9060005260206000209060020201600001546121de9190613fc9565b815282612236576001600160a01b038916600090815260106020526040902080548291908490811061221257612212613f22565b60009182526020918290208351600290920201908155910151600190910155612273565b6001600160a01b03891660009081526010602090815260408220805460018181018355918452928290208451600290940201928355908301519101555b6040805180820190915260008082526020820152886020868154811061229b5761229b613f22565b9060005260206000209060020201600001546122b79190613fc9565b8152426020820152856122fc5780602086815481106122d8576122d8613f22565b6000918252602091829020835160029092020190815591015160019091015561233d565b60208054600181018255600082905282516000805160206141c3833981519152600290920291820155908201516000805160206141e3833981519152909101555b6123526001600160a01b038c168b308c612c30565b5060019b9a5050505050505050505050565b6001546000906001600160a01b031633146123915760405162461bcd60e51b815260040161097490613f38565b6001600160a01b038316600090815260106020908152604080832080548251818502810185019093528083529192909190849084015b8282101561240d578382906000526020600020906002020160405180604001604052908160008201548152602001600182015481525050815260200190600101906123c7565b5050505090506000600182516124239190613f0b565b90508382828151811061243857612438613f22565b60200260200101516000015110156124895760405162461bcd60e51b8152602060048201526014602482015273496e73756669636369656e742062616c616e636560601b6044820152606401610974565b61249662093a8042613fc9565b6001600160a01b0386166000908152601160205260409020556124bc62093a8042613fc9565b6124c9906203f480613fc9565b6001600160a01b039590951660009081526011602052604090206001808201969096556002810194909455505050600301805460ff1916905590565b6001546000906001600160a01b031633148061252057503330145b61256c5760405162461bcd60e51b815260206004820152601c60248201527f4f6e6c79206d616e61676572206f722073656c6620616c6c6f776564000000006044820152606401610974565b600954156125fa576040805160808101825260165480825260175460208301526018549282019290925260195460ff161515606082015290421180156125b457506060810151155b80156125c35750828160400151145b80156125cf5750805115155b6125eb5760405162461bcd60e51b815260040161097490613fe1565b506019805460ff191660011790555b6008546020805460408051828402810184019091528181526000928392838383015b828210156126625783829060005260206000209060020201604051806040016040529081600082015481526020016001820154815250508152602001906001019061261c565b5050825192935050811590506126b2578161267e600183613f0b565b8151811061268e5761268e613f22565b6020026020010151600001516000146126ad576126ab8888611adc565b505b612731565b62093a806301e1338060055488600a546126cc9190613f66565b6126d69190613f85565b6126e09190613f85565b6126ea9190613f66565b9250828410156127315760006127008585613f0b565b90506127176001600160a01b038a16893084612c30565b50806008600082825461272a9190613fc9565b9091555050505b600d8390556040805180820182524281526020808201898152601f8054600181018255600091825284517fa03837a25210ee280c2113ff4b77ca23440b19d4866cca721c801278fd08d80760029092029182015591517fa03837a25210ee280c2113ff4b77ca23440b19d4866cca721c801278fd08d8089092019190915560098a9055601e805485518185028101850190965280865293949193919290919083018282801561280957602002820191906000526020600020905b81546001600160a01b031681526001909101906020018083116127eb575b505050505090506000815111156129215760006001825161282a9190613f0b565b905060005b8181101561291e57600083828151811061284b5761284b613f22565b6020908102919091018101516001600160a01b03811660009081526010909252604082205490925061287f90600190613f0b565b905061289e604051806040016040528060008152602001600081525090565b6001600160a01b03831660009081526010602052604090208054839081106128c8576128c8613f22565b60009182526020808320600292830201548452428482019081526001600160a01b03909616835260108152604083208054600181810183559185529190932093519102909201918255925190830155500161282f565b50505b50506024805460ff19169055506001979650505050505050565b6001546001600160a01b031633146129655760405162461bcd60e51b815260040161097490613f38565b61297262093a8042613fc9565b6012556014556015805460ff19169055565b600080600a5460646008546129999190613f66565b610ec59190613f85565b6001546001600160a01b031633146129cd5760405162461bcd60e51b815260040161097490613f38565b600a5415612a5b576040805160808101825260125480825260135460208301526014549282019290925260155460ff16151560608201529042118015612a1557506060810151155b8015612a245750818160400151145b8015612a305750805115155b612a4c5760405162461bcd60e51b815260040161097490613fe1565b506015805460ff191660011790555b600a55565b601f8181548110611e6357600080fd5b6020805460408051828402810184019091528181526000928392838383015b82821015612ad557838290600052602060002090600202016040518060400160405290816000820154815260200160018201548152505081526020019060010190612a8f565b50508251929350600091505081612aef5750600c54612b27565b82612afb600184613f0b565b81518110612b0b57612b0b613f22565b602002602001015160000151600c54612b249190613fc9565b90505b9392505050565b612b36612ce6565b6001600160a01b038116612b9b5760405162461bcd60e51b815260206004820152602660248201527f4f776e61626c653a206e6577206f776e657220697320746865207a65726f206160448201526564647265737360d01b6064820152608401610974565b612ba481612d40565b50565b600080601f805480602002602001604051908101604052809291908181526020016000905b82821015612c1257838290600052602060002090600202016040518060400160405290816000820154815260200160018201548152505081526020019060010190612bcc565b5050505090506000612c26868686856135d2565b9695505050505050565b6040516001600160a01b0380851660248301528316604482015260648101829052600090612c9e9086906323b872dd60e01b906084015b60408051601f198184030181529190526020810180516001600160e01b03166001600160e01b0319909316929092179091526138ce565b506001949350505050565b6040516001600160a01b038316602482015260448101829052600090612cdc90859063a9059cbb60e01b90606401612c67565b5060019392505050565b6000546001600160a01b031633146114f65760405162461bcd60e51b815260206004820181905260248201527f4f776e61626c653a2063616c6c6572206973206e6f7420746865206f776e65726044820152606401610974565b600080546001600160a01b038381166001600160a01b0319831681178455604051919092169283917f8be0079c531659141344cd1fd0a4f28419497f9722a3daafe3b4186f6b6457e09190a35050565b60008060055460035484612da49190613f66565b612dae9190613f85565b90506000612dbc8285613f0b565b9050612dd26001600160a01b0388168783612ca9565b50612de76001600160a01b0388168684612ca9565b506001979650505050505050565b60008060005b85811015612e6e5784848281518110612e1657612e16613f22565b6020026020010151602001511115612e5e57602280546001810182556000919091527f61035b26e3e9eee00e0d72fd1ee8ddca6894550dca6916ea2ac6baa90d11e510018190555b612e6781614128565b9050612dfb565b5060006022805480602002602001604051908101604052809291908181526020018280548015612ebd57602002820191906000526020600020905b815481526020019060010190808311612ea9575b5050835193945060009250505081612f3e57612ed98742613f0b565b9050806301e133806005548b8960018d612ef39190613f0b565b81518110612f0357612f03613f22565b602002602001015160000151612f199190613f66565b612f239190613f85565b612f2d9190613f85565b612f379190613f66565b93506135b9565b816001141561311f5786612f955785600081518110612f5f57612f5f613f22565b60200260200101516020015142612f769190613f0b565b9050806301e133806005548b89600081518110612f0357612f03613f22565b868684600081518110612faa57612faa613f22565b602002602001015181518110612fc257612fc2613f22565b602002602001015160200151612fd89190613f0b565b9050806301e133806005548b89600188600081518110612ffa57612ffa613f22565b602002602001015161300c9190613f0b565b8151811061301c5761301c613f22565b6020026020010151600001516130329190613f66565b61303c9190613f85565b6130469190613f85565b6130509190613f66565b61305a9085613fc9565b93506000868460008151811061307257613072613f22565b60200260200101518151811061308a5761308a613f22565b602002602001015160200151426130a19190613f0b565b9050806301e133806005548c8a886000815181106130c1576130c1613f22565b6020026020010151815181106130d9576130d9613f22565b6020026020010151600001516130ef9190613f66565b6130f99190613f85565b6131039190613f85565b61310d9190613f66565b6131179086613fc9565b9450506135b9565b60005b828110156135b7578761320e5761313a600184613f0b565b81141561318a578684828151811061315457613154613f22565b60200260200101518151811061316c5761316c613f22565b602002602001015160200151426131839190613f0b565b91506135a7565b8684828151811061319d5761319d613f22565b6020026020010151815181106131b5576131b5613f22565b60200260200101516020015187858360016131d09190613fc9565b815181106131e0576131e0613f22565b6020026020010151815181106131f8576131f8613f22565b6020026020010151602001516131839190613f0b565b806133db57878785838151811061322757613227613f22565b60200260200101518151811061323f5761323f613f22565b6020026020010151602001516132559190613f0b565b9150816301e133806005548c8a600189878151811061327657613276613f22565b60200260200101516132889190613f0b565b8151811061329857613298613f22565b6020026020010151600001516132ae9190613f66565b6132b89190613f85565b6132c29190613f85565b6132cc9190613f66565b6132d69086613fc9565b94506000878583815181106132ed576132ed613f22565b60200260200101518151811061330557613305613f22565b6020026020010151602001518886848151811061332457613324613f22565b602002602001015160016133389190613fc9565b8151811061334857613348613f22565b60200260200101516020015161335e9190613f0b565b9050806301e133806005548d8b89878151811061337d5761337d613f22565b60200260200101518151811061339557613395613f22565b6020026020010151600001516133ab9190613f66565b6133b59190613f85565b6133bf9190613f85565b6133c99190613f66565b6133d39087613fc9565b9550506135a7565b6133e6600184613f0b565b8114156134ab578684828151811061340057613400613f22565b60200260200101518151811061341857613418613f22565b6020026020010151602001514261342f9190613f0b565b9150816301e133806005548c8a88868151811061344e5761344e613f22565b60200260200101518151811061346657613466613f22565b60200260200101516000015161347c9190613f66565b6134869190613f85565b6134909190613f85565b61349a9190613f66565b6134a49086613fc9565b94506135a7565b868482815181106134be576134be613f22565b6020026020010151815181106134d6576134d6613f22565b60200260200101516020015187858360016134f19190613fc9565b8151811061350157613501613f22565b60200260200101518151811061351957613519613f22565b60200260200101516020015161352f9190613f0b565b9150816301e133806005548c8a88868151811061354e5761354e613f22565b60200260200101518151811061356657613566613f22565b60200260200101516000015161357c9190613f66565b6135869190613f85565b6135909190613f85565b61359a9190613f66565b6135a49086613fc9565b94505b6135b081614128565b9050613122565b505b6135c560226000613d51565b5091979650505050505050565b8051600090818080886136a45760005b8481101561369e578681815181106135fc576135fc613f22565b60200260200101516000015192506001856136179190613f0b565b81141561362657429150613651565b86613632826001613fc9565b8151811061364257613642613f22565b60200260200101516000015191505b600087828151811061366557613665613f22565b60200260200101516020015190506136808185858d8d6139a0565b61368a9086613fc9565b9450508061369790614128565b90506135e2565b506138c1565b60005b8481101561374d57898782815181106136c2576136c2613f22565b602002602001015160000151111561373d5760216136e1600183613f0b565b8154600181810184556000938452602090932001556137009086613f0b565b81141561373d57602180546001810182556000919091527f3a6357012c1a3ae0a17d304c9920310382d968ebcc4b1771f41c6b304205b570018190555b61374681614128565b90506136a7565b506000602180548060200260200160405190810160405280929190818152602001828054801561379c57602002820191906000526020600020905b815481526020019060010190808311613788575b505083519394506000925050505b818110156138bd57806137bf578b94506137f9565b888382815181106137d2576137d2613f22565b6020026020010151815181106137ea576137ea613f22565b60200260200101516000015194505b613804600188613f0b565b81141561381357429350613857565b8883613820836001613fc9565b8151811061383057613830613f22565b60200260200101518151811061384857613848613f22565b60200260200101516000015193505b60008984838151811061386c5761386c613f22565b60200260200101518151811061388457613884613f22565b602002602001015160200151905061389f8187878f8f6139a0565b6138a99088613fc9565b965050806138b690614128565b90506137aa565b5050505b5090979650505050505050565b6000613923826040518060400160405280602081526020017f5361666545524332303a206c6f772d6c6576656c2063616c6c206661696c6564815250856001600160a01b0316613c319092919063ffffffff16565b80519091501561105757808060200190518101906139419190613fa7565b6110575760405162461bcd60e51b815260206004820152602a60248201527f5361666545524332303a204552433230206f7065726174696f6e20646964206e6044820152691bdd081cdd58d8d9595960b21b6064820152608401610974565b6000806000805b84811015613a4357878682815181106139c2576139c2613f22565b602002602001015160200151101580156139f85750868682815181106139ea576139ea613f22565b602002602001015160200151105b15613a3357602380546001810182556000919091527fd57b2b5166478fd4318d2acc6cc2c704584312bdd8781b32d5d06abda57f4230018190555b613a3c81614128565b90506139a7565b5060006023805480602002602001604051908101604052809291908181526020018280548015613a9257602002820191906000526020600020905b815481526020019060010190808311613a7e575b505083519394506000925050505b81811015613c1557613ab3600183613f0b565b811415613b035787838281518110613acd57613acd613f22565b602002602001015181518110613ae557613ae5613f22565b60200260200101516020015189613afc9190613f0b565b9350613b8a565b87838281518110613b1657613b16613f22565b602002602001015181518110613b2e57613b2e613f22565b6020026020010151602001518884836001613b499190613fc9565b81518110613b5957613b59613f22565b602002602001015181518110613b7157613b71613f22565b602002602001015160200151613b879190613f0b565b93505b6000846301e133806005548e8c888781518110613ba957613ba9613f22565b602002602001015181518110613bc157613bc1613f22565b602002602001015160000151613bd79190613f66565b613be19190613f85565b613beb9190613f85565b613bf59190613f66565b9050613c018187613fc9565b95505080613c0e90614128565b9050613aa0565b50505060236000613c269190613d51565b509695505050505050565b6060612b24848460008585600080866001600160a01b03168587604051613c589190614173565b60006040518083038185875af1925050503d8060008114613c95576040519150601f19603f3d011682016040523d82523d6000602084013e613c9a565b606091505b5091509150613cab87838387613cb6565b979650505050505050565b60608315613d22578251613d1b576001600160a01b0385163b613d1b5760405162461bcd60e51b815260206004820152601d60248201527f416464726573733a2063616c6c20746f206e6f6e2d636f6e74726163740000006044820152606401610974565b5081611ad4565b611ad48383815115613d375781518083602001fd5b8060405162461bcd60e51b8152600401610974919061418f565b5080546000825590600052602060002090810190612ba491905b80821115613d7f5760008155600101613d6b565b5090565b80356001600160a01b0381168114610e2957600080fd5b600060208284031215613dac57600080fd5b612b2782613d83565b600080600060608486031215613dca57600080fd5b613dd384613d83565b9250613de160208501613d83565b9150613def60408501613d83565b90509250925092565b600080600060608486031215613e0d57600080fd5b613e1684613d83565b9250613e2460208501613d83565b9150604084013590509250925092565b600060208284031215613e4657600080fd5b5035919050565b60008060408385031215613e6057600080fd5b613e6983613d83565b9150613e7760208401613d83565b90509250929050565b60008060408385031215613e9357600080fd5b613e9c83613d83565b946020939093013593505050565b60008060008060808587031215613ec057600080fd5b613ec985613d83565b9350613ed760208601613d83565b9250613ee560408601613d83565b9396929550929360600135925050565b634e487b7160e01b600052601160045260246000fd5b600082821015613f1d57613f1d613ef5565b500390565b634e487b7160e01b600052603260045260246000fd5b60208082526014908201527313db9b1e481b585b9859d95c88185b1b1bddd95960621b604082015260600190565b6000816000190483118215151615613f8057613f80613ef5565b500290565b600082613fa257634e487b7160e01b600052601260045260246000fd5b500490565b600060208284031215613fb957600080fd5b81518015158114612b2757600080fd5b60008219821115613fdc57613fdc613ef5565b500190565b60208082526021908201527f54696d656c6f636b206e6f7420736574206f72206e6f7420636f6d706c6574656040820152601960fa1b606082015260800190565b600181815b8085111561405d57816000190482111561404357614043613ef5565b8085161561405057918102915b93841c9390800290614027565b509250929050565b60008261407457506001610ec5565b8161408157506000610ec5565b816001811461409757600281146140a1576140bd565b6001915050610ec5565b60ff8411156140b2576140b2613ef5565b50506001821b610ec5565b5060208310610133831016604e8410600b84101617156140e0575081810a610ec5565b6140ea8383614022565b80600019048211156140fe576140fe613ef5565b029392505050565b6000612b278383614065565b634e487b7160e01b600052603160045260246000fd5b600060001982141561413c5761413c613ef5565b5060010190565b60005b8381101561415e578181015183820152602001614146565b8381111561416d576000848401525b50505050565b60008251614185818460208701614143565b9190910192915050565b60208152600082518060208401526141ae816040850160208701614143565b601f01601f1916919091016040019291505056fec97bfaf2f8ee708c303a06d134f5ecd8389ae0432af62dc132a24118292866bbc97bfaf2f8ee708c303a06d134f5ecd8389ae0432af62dc132a24118292866bca264697066735822122005fbb18c0067b895cdf7bf6378f34f011fe284e0daf31df3ea6388ce30ee150264736f6c634300080a0033",
    "linkReferences": {}
  },
  "methodIdentifiers": {
    "APYTimelock()": "728ecaf8",
    "APYdropped()": "3a5b0172",
    "APYrecords(uint256)": "ddaaae03",
    "PERIOD()": "b4d1d795",
    "PRECISION()": "aaf5eb68",
    "VERSION()": "ffa1ad74",
    "YEAR()": "83914540",
    "billPremium(address,address)": "8aa82e82",
    "bountyCommission()": "d6c47be7",
    "bountyDeposit(address,address,uint256)": "3147096d",
    "claimPremium(address,address,address)": "3065f450",
    "collectSaloonPremiumFees(address,address)": "5121ac9d",
    "decimals()": "313ce567",
    "denominator()": "96ce0795",
    "desiredAPY()": "84dc10b4",
    "firstDeposit()": "a5f5be54",
    "initializeImplementation(address,uint256)": "5a898d03",
    "lastClaimed(address)": "013eba92",
    "lastTimePaid()": "1104ec25",
    "manager()": "481c6a75",
    "owner()": "8da5cb5b",
    "payBounty(address,address,address,uint256)": "73927c11",
    "poolCap()": "b954dc57",
    "poolCapTimelock()": "80d440ff",
    "premiumBalance()": "44ebc03d",
    "premiumCommission()": "0ba68f1a",
    "projectDeposit()": "72d26951",
    "projectDepositWithdrawal(address,address,uint256)": "419b7bd7",
    "renounceOwnership()": "715018a6",
    "requiredPremiumBalancePerPeriod()": "4c3bdee0",
    "saloonBountyCommission()": "a4bf70bd",
    "saloonPremiumFees()": "3d850fb2",
    "scheduleAPYChange(uint256)": "503cb917",
    "schedulePoolCapChange(uint256)": "d26c90a9",
    "scheduleUnstake(address,uint256)": "c790ef82",
    "scheduleprojectDepositWithdrawal(uint256)": "4b5df6cc",
    "setDesiredAPY(address,address,uint256)": "cc12c311",
    "setPoolCap(uint256)": "d835f535",
    "stake(address,address,uint256)": "bf6eac2f",
    "staker(address,uint256)": "9e4bfaa5",
    "stakerList(uint256)": "348e50c6",
    "stakerTimelock(address)": "769966e8",
    "stakersDeposit(uint256)": "a194c3b6",
    "stakingPause()": "55455df2",
    "transferOwnership(address)": "f2fde38b",
    "unstake(address,address,uint256)": "60829f8a",
    "viewBountyBalance()": "e45080e6",
    "viewDesiredAPY()": "78eb46fd",
    "viewHackerPayout()": "4a94bcb3",
    "viewPoolCap()": "ff45d4c0",
    "viewPremiumBalance()": "20d83086",
    "viewProjecDeposit()": "383639b3",
    "viewRequirePremiumBalance()": "d084b03a",
    "viewStakersDeposit()": "16e17b8d",
    "viewUserStakingBalance(address)": "1a89cabd",
    "viewUserTimelock(address)": "2d7807a9",
    "viewcurrentAPY()": "d5cb8669",
    "withdrawalTimelock()": "1e27970f"
  },
  "id": 27
}