{
  "abi": [
    {
      "anonymous": false,
      "inputs": [
        {
          "indexed": false,
          "internalType": "uint8",
          "name": "version",
          "type": "uint8"
        }
      ],
      "name": "Initialized",
      "type": "event"
    },
    {
      "anonymous": false,
      "inputs": [
        {
          "indexed": true,
          "internalType": "address",
          "name": "previousOwner",
          "type": "address"
        },
        {
          "indexed": true,
          "internalType": "address",
          "name": "newOwner",
          "type": "address"
        }
      ],
      "name": "OwnershipTransferred",
      "type": "event"
    },
    {
      "inputs": [],
      "name": "APYTimelock",
      "outputs": [
        {
          "internalType": "uint256",
          "name": "timelock",
          "type": "uint256"
        },
        {
          "internalType": "uint256",
          "name": "timeLimit",
          "type": "uint256"
        },
        {
          "internalType": "uint256",
          "name": "amount",
          "type": "uint256"
        },
        {
          "internalType": "bool",
          "name": "executed",
          "type": "bool"
        }
      ],
      "stateMutability": "view",
      "type": "function"
    },
    {
      "inputs": [],
      "name": "APYdropped",
      "outputs": [
        {
          "internalType": "bool",
          "name": "",
          "type": "bool"
        }
      ],
      "stateMutability": "view",
      "type": "function"
    },
    {
      "inputs": [
        {
          "internalType": "uint256",
          "name": "",
          "type": "uint256"
        }
      ],
      "name": "APYrecords",
      "outputs": [
        {
          "internalType": "uint256",
          "name": "timeStamp",
          "type": "uint256"
        },
        {
          "internalType": "uint256",
          "name": "periodAPY",
          "type": "uint256"
        }
      ],
      "stateMutability": "view",
      "type": "function"
    },
    {
      "inputs": [],
      "name": "PERIOD",
      "outputs": [
        {
          "internalType": "uint256",
          "name": "",
          "type": "uint256"
        }
      ],
      "stateMutability": "view",
      "type": "function"
    },
    {
      "inputs": [],
      "name": "PRECISION",
      "outputs": [
        {
          "internalType": "uint256",
          "name": "",
          "type": "uint256"
        }
      ],
      "stateMutability": "view",
      "type": "function"
    },
    {
      "inputs": [],
      "name": "VERSION",
      "outputs": [
        {
          "internalType": "uint256",
          "name": "",
          "type": "uint256"
        }
      ],
      "stateMutability": "view",
      "type": "function"
    },
    {
      "inputs": [],
      "name": "YEAR",
      "outputs": [
        {
          "internalType": "uint256",
          "name": "",
          "type": "uint256"
        }
      ],
      "stateMutability": "view",
      "type": "function"
    },
    {
      "inputs": [
        {
          "internalType": "address",
          "name": "_token",
          "type": "address"
        },
        {
          "internalType": "address",
          "name": "_projectWallet",
          "type": "address"
        }
      ],
      "name": "billPremium",
      "outputs": [
        {
          "internalType": "bool",
          "name": "",
          "type": "bool"
        }
      ],
      "stateMutability": "nonpayable",
      "type": "function"
    },
    {
      "inputs": [],
      "name": "bountyCommission",
      "outputs": [
        {
          "internalType": "uint256",
          "name": "",
          "type": "uint256"
        }
      ],
      "stateMutability": "view",
      "type": "function"
    },
    {
      "inputs": [
        {
          "internalType": "address",
          "name": "_token",
          "type": "address"
        },
        {
          "internalType": "address",
          "name": "_projectWallet",
          "type": "address"
        },
        {
          "internalType": "uint256",
          "name": "_amount",
          "type": "uint256"
        }
      ],
      "name": "bountyDeposit",
      "outputs": [
        {
          "internalType": "bool",
          "name": "",
          "type": "bool"
        }
      ],
      "stateMutability": "nonpayable",
      "type": "function"
    },
    {
      "inputs": [
        {
          "internalType": "address",
          "name": "_token",
          "type": "address"
        },
        {
          "internalType": "address",
          "name": "_staker",
          "type": "address"
        },
        {
          "internalType": "address",
          "name": "_projectWallet",
          "type": "address"
        }
      ],
      "name": "claimPremium",
      "outputs": [
        {
          "internalType": "uint256",
          "name": "",
          "type": "uint256"
        },
        {
          "internalType": "bool",
          "name": "",
          "type": "bool"
        }
      ],
      "stateMutability": "nonpayable",
      "type": "function"
    },
    {
      "inputs": [
        {
          "internalType": "address",
          "name": "_token",
          "type": "address"
        },
        {
          "internalType": "address",
          "name": "_saloonWallet",
          "type": "address"
        }
      ],
      "name": "collectSaloonPremiumFees",
      "outputs": [
        {
          "internalType": "uint256",
          "name": "",
          "type": "uint256"
        }
      ],
      "stateMutability": "nonpayable",
      "type": "function"
    },
    {
      "inputs": [],
      "name": "decimals",
      "outputs": [
        {
          "internalType": "uint256",
          "name": "",
          "type": "uint256"
        }
      ],
      "stateMutability": "view",
      "type": "function"
    },
    {
      "inputs": [],
      "name": "denominator",
      "outputs": [
        {
          "internalType": "uint256",
          "name": "",
          "type": "uint256"
        }
      ],
      "stateMutability": "view",
      "type": "function"
    },
    {
      "inputs": [],
      "name": "desiredAPY",
      "outputs": [
        {
          "internalType": "uint256",
          "name": "",
          "type": "uint256"
        }
      ],
      "stateMutability": "view",
      "type": "function"
    },
    {
      "inputs": [],
      "name": "firstDeposit",
      "outputs": [
        {
          "internalType": "bool",
          "name": "",
          "type": "bool"
        }
      ],
      "stateMutability": "view",
      "type": "function"
    },
    {
      "inputs": [
        {
          "internalType": "address",
          "name": "_manager",
          "type": "address"
        },
        {
          "internalType": "uint256",
          "name": "_decimals",
          "type": "uint256"
        }
      ],
      "name": "initializeImplementation",
      "outputs": [],
      "stateMutability": "nonpayable",
      "type": "function"
    },
    {
      "inputs": [
        {
          "internalType": "address",
          "name": "",
          "type": "address"
        }
      ],
      "name": "lastClaimed",
      "outputs": [
        {
          "internalType": "uint256",
          "name": "",
          "type": "uint256"
        }
      ],
      "stateMutability": "view",
      "type": "function"
    },
    {
      "inputs": [],
      "name": "lastTimePaid",
      "outputs": [
        {
          "internalType": "uint256",
          "name": "",
          "type": "uint256"
        }
      ],
      "stateMutability": "view",
      "type": "function"
    },
    {
      "inputs": [],
      "name": "manager",
      "outputs": [
        {
          "internalType": "address",
          "name": "",
          "type": "address"
        }
      ],
      "stateMutability": "view",
      "type": "function"
    },
    {
      "inputs": [],
      "name": "owner",
      "outputs": [
        {
          "internalType": "address",
          "name": "",
          "type": "address"
        }
      ],
      "stateMutability": "view",
      "type": "function"
    },
    {
      "inputs": [
        {
          "internalType": "address",
          "name": "_token",
          "type": "address"
        },
        {
          "internalType": "address",
          "name": "_saloonWallet",
          "type": "address"
        },
        {
          "internalType": "address",
          "name": "_hunter",
          "type": "address"
        },
        {
          "internalType": "uint256",
          "name": "_amount",
          "type": "uint256"
        }
      ],
      "name": "payBounty",
      "outputs": [
        {
          "internalType": "bool",
          "name": "",
          "type": "bool"
        }
      ],
      "stateMutability": "nonpayable",
      "type": "function"
    },
    {
      "inputs": [],
      "name": "poolCap",
      "outputs": [
        {
          "internalType": "uint256",
          "name": "",
          "type": "uint256"
        }
      ],
      "stateMutability": "view",
      "type": "function"
    },
    {
      "inputs": [],
      "name": "poolCapTimelock",
      "outputs": [
        {
          "internalType": "uint256",
          "name": "timelock",
          "type": "uint256"
        },
        {
          "internalType": "uint256",
          "name": "timeLimit",
          "type": "uint256"
        },
        {
          "internalType": "uint256",
          "name": "amount",
          "type": "uint256"
        },
        {
          "internalType": "bool",
          "name": "executed",
          "type": "bool"
        }
      ],
      "stateMutability": "view",
      "type": "function"
    },
    {
      "inputs": [],
      "name": "premiumBalance",
      "outputs": [
        {
          "internalType": "uint256",
          "name": "",
          "type": "uint256"
        }
      ],
      "stateMutability": "view",
      "type": "function"
    },
    {
      "inputs": [],
      "name": "premiumCommission",
      "outputs": [
        {
          "internalType": "uint256",
          "name": "",
          "type": "uint256"
        }
      ],
      "stateMutability": "view",
      "type": "function"
    },
    {
      "inputs": [],
      "name": "projectDeposit",
      "outputs": [
        {
          "internalType": "uint256",
          "name": "",
          "type": "uint256"
        }
      ],
      "stateMutability": "view",
      "type": "function"
    },
    {
      "inputs": [
        {
          "internalType": "address",
          "name": "_token",
          "type": "address"
        },
        {
          "internalType": "address",
          "name": "_projectWallet",
          "type": "address"
        },
        {
          "internalType": "uint256",
          "name": "_amount",
          "type": "uint256"
        }
      ],
      "name": "projectDepositWithdrawal",
      "outputs": [
        {
          "internalType": "bool",
          "name": "",
          "type": "bool"
        }
      ],
      "stateMutability": "nonpayable",
      "type": "function"
    },
    {
      "inputs": [],
      "name": "renounceOwnership",
      "outputs": [],
      "stateMutability": "nonpayable",
      "type": "function"
    },
    {
      "inputs": [],
      "name": "requiredPremiumBalancePerPeriod",
      "outputs": [
        {
          "internalType": "uint256",
          "name": "",
          "type": "uint256"
        }
      ],
      "stateMutability": "view",
      "type": "function"
    },
    {
      "inputs": [],
      "name": "saloonBountyCommission",
      "outputs": [
        {
          "internalType": "uint256",
          "name": "",
          "type": "uint256"
        }
      ],
      "stateMutability": "view",
      "type": "function"
    },
    {
      "inputs": [],
      "name": "saloonPremiumFees",
      "outputs": [
        {
          "internalType": "uint256",
          "name": "",
          "type": "uint256"
        }
      ],
      "stateMutability": "view",
      "type": "function"
    },
    {
      "inputs": [
        {
          "internalType": "uint256",
          "name": "_newAPY",
          "type": "uint256"
        }
      ],
      "name": "scheduleAPYChange",
      "outputs": [],
      "stateMutability": "nonpayable",
      "type": "function"
    },
    {
      "inputs": [
        {
          "internalType": "uint256",
          "name": "_newPoolCap",
          "type": "uint256"
        }
      ],
      "name": "schedulePoolCapChange",
      "outputs": [],
      "stateMutability": "nonpayable",
      "type": "function"
    },
    {
      "inputs": [
        {
          "internalType": "address",
          "name": "_staker",
          "type": "address"
        },
        {
          "internalType": "uint256",
          "name": "_amount",
          "type": "uint256"
        }
      ],
      "name": "scheduleUnstake",
      "outputs": [
        {
          "internalType": "bool",
          "name": "",
          "type": "bool"
        }
      ],
      "stateMutability": "nonpayable",
      "type": "function"
    },
    {
      "inputs": [
        {
          "internalType": "uint256",
          "name": "_amount",
          "type": "uint256"
        }
      ],
      "name": "scheduleprojectDepositWithdrawal",
      "outputs": [
        {
          "internalType": "bool",
          "name": "",
          "type": "bool"
        }
      ],
      "stateMutability": "nonpayable",
      "type": "function"
    },
    {
      "inputs": [
        {
          "internalType": "address",
          "name": "_token",
          "type": "address"
        },
        {
          "internalType": "address",
          "name": "_projectWallet",
          "type": "address"
        },
        {
          "internalType": "uint256",
          "name": "_desiredAPY",
          "type": "uint256"
        }
      ],
      "name": "setDesiredAPY",
      "outputs": [
        {
          "internalType": "bool",
          "name": "",
          "type": "bool"
        }
      ],
      "stateMutability": "nonpayable",
      "type": "function"
    },
    {
      "inputs": [
        {
          "internalType": "uint256",
          "name": "_amount",
          "type": "uint256"
        }
      ],
      "name": "setPoolCap",
      "outputs": [],
      "stateMutability": "nonpayable",
      "type": "function"
    },
    {
      "inputs": [
        {
          "internalType": "address",
          "name": "_token",
          "type": "address"
        },
        {
          "internalType": "address",
          "name": "_staker",
          "type": "address"
        },
        {
          "internalType": "uint256",
          "name": "_amount",
          "type": "uint256"
        }
      ],
      "name": "stake",
      "outputs": [
        {
          "internalType": "bool",
          "name": "",
          "type": "bool"
        }
      ],
      "stateMutability": "nonpayable",
      "type": "function"
    },
    {
      "inputs": [
        {
          "internalType": "address",
          "name": "",
          "type": "address"
        },
        {
          "internalType": "uint256",
          "name": "",
          "type": "uint256"
        }
      ],
      "name": "staker",
      "outputs": [
        {
          "internalType": "uint256",
          "name": "stakeBalance",
          "type": "uint256"
        },
        {
          "internalType": "uint256",
          "name": "balanceTimeStamp",
          "type": "uint256"
        }
      ],
      "stateMutability": "view",
      "type": "function"
    },
    {
      "inputs": [
        {
          "internalType": "uint256",
          "name": "",
          "type": "uint256"
        }
      ],
      "name": "stakerList",
      "outputs": [
        {
          "internalType": "address",
          "name": "",
          "type": "address"
        }
      ],
      "stateMutability": "view",
      "type": "function"
    },
    {
      "inputs": [
        {
          "internalType": "address",
          "name": "",
          "type": "address"
        }
      ],
      "name": "stakerReimbursement",
      "outputs": [
        {
          "internalType": "uint256",
          "name": "",
          "type": "uint256"
        }
      ],
      "stateMutability": "view",
      "type": "function"
    },
    {
      "inputs": [
        {
          "internalType": "address",
          "name": "",
          "type": "address"
        }
      ],
      "name": "stakerTimelock",
      "outputs": [
        {
          "internalType": "uint256",
          "name": "timelock",
          "type": "uint256"
        },
        {
          "internalType": "uint256",
          "name": "timeLimit",
          "type": "uint256"
        },
        {
          "internalType": "uint256",
          "name": "amount",
          "type": "uint256"
        },
        {
          "internalType": "bool",
          "name": "executed",
          "type": "bool"
        }
      ],
      "stateMutability": "view",
      "type": "function"
    },
    {
      "inputs": [
        {
          "internalType": "uint256",
          "name": "",
          "type": "uint256"
        }
      ],
      "name": "stakersDeposit",
      "outputs": [
        {
          "internalType": "uint256",
          "name": "stakeBalance",
          "type": "uint256"
        },
        {
          "internalType": "uint256",
          "name": "balanceTimeStamp",
          "type": "uint256"
        }
      ],
      "stateMutability": "view",
      "type": "function"
    },
    {
      "inputs": [],
      "name": "stakingPause",
      "outputs": [
        {
          "internalType": "uint256",
          "name": "",
          "type": "uint256"
        }
      ],
      "stateMutability": "view",
      "type": "function"
    },
    {
      "inputs": [
        {
          "internalType": "address",
          "name": "newOwner",
          "type": "address"
        }
      ],
      "name": "transferOwnership",
      "outputs": [],
      "stateMutability": "nonpayable",
      "type": "function"
    },
    {
      "inputs": [
        {
          "internalType": "address",
          "name": "_token",
          "type": "address"
        },
        {
          "internalType": "address",
          "name": "_staker",
          "type": "address"
        },
        {
          "internalType": "uint256",
          "name": "_amount",
          "type": "uint256"
        }
      ],
      "name": "unstake",
      "outputs": [
        {
          "internalType": "bool",
          "name": "",
          "type": "bool"
        }
      ],
      "stateMutability": "nonpayable",
      "type": "function"
    },
    {
      "inputs": [],
      "name": "viewBountyBalance",
      "outputs": [
        {
          "internalType": "uint256",
          "name": "",
          "type": "uint256"
        }
      ],
      "stateMutability": "view",
      "type": "function"
    },
    {
      "inputs": [],
      "name": "viewDesiredAPY",
      "outputs": [
        {
          "internalType": "uint256",
          "name": "",
          "type": "uint256"
        }
      ],
      "stateMutability": "view",
      "type": "function"
    },
    {
      "inputs": [],
      "name": "viewHackerPayout",
      "outputs": [
        {
          "internalType": "uint256",
          "name": "",
          "type": "uint256"
        }
      ],
      "stateMutability": "view",
      "type": "function"
    },
    {
      "inputs": [],
      "name": "viewPoolCap",
      "outputs": [
        {
          "internalType": "uint256",
          "name": "",
          "type": "uint256"
        }
      ],
      "stateMutability": "view",
      "type": "function"
    },
    {
      "inputs": [],
      "name": "viewPremiumBalance",
      "outputs": [
        {
          "internalType": "uint256",
          "name": "",
          "type": "uint256"
        }
      ],
      "stateMutability": "view",
      "type": "function"
    },
    {
      "inputs": [],
      "name": "viewProjecDeposit",
      "outputs": [
        {
          "internalType": "uint256",
          "name": "",
          "type": "uint256"
        }
      ],
      "stateMutability": "view",
      "type": "function"
    },
    {
      "inputs": [],
      "name": "viewRequirePremiumBalance",
      "outputs": [
        {
          "internalType": "uint256",
          "name": "",
          "type": "uint256"
        }
      ],
      "stateMutability": "view",
      "type": "function"
    },
    {
      "inputs": [],
      "name": "viewStakersDeposit",
      "outputs": [
        {
          "internalType": "uint256",
          "name": "",
          "type": "uint256"
        }
      ],
      "stateMutability": "view",
      "type": "function"
    },
    {
      "inputs": [
        {
          "internalType": "address",
          "name": "_staker",
          "type": "address"
        }
      ],
      "name": "viewUserStakingBalance",
      "outputs": [
        {
          "internalType": "uint256",
          "name": "",
          "type": "uint256"
        },
        {
          "internalType": "uint256",
          "name": "",
          "type": "uint256"
        }
      ],
      "stateMutability": "view",
      "type": "function"
    },
    {
      "inputs": [
        {
          "internalType": "address",
          "name": "_staker",
          "type": "address"
        }
      ],
      "name": "viewUserTimelock",
      "outputs": [
        {
          "internalType": "uint256",
          "name": "timelock",
          "type": "uint256"
        },
        {
          "internalType": "uint256",
          "name": "amount",
          "type": "uint256"
        },
        {
          "internalType": "bool",
          "name": "executed",
          "type": "bool"
        }
      ],
      "stateMutability": "view",
      "type": "function"
    },
    {
      "inputs": [],
      "name": "viewcurrentAPY",
      "outputs": [
        {
          "internalType": "uint256",
          "name": "",
          "type": "uint256"
        }
      ],
      "stateMutability": "view",
      "type": "function"
    },
    {
      "inputs": [],
      "name": "withdrawalTimelock",
      "outputs": [
        {
          "internalType": "uint256",
          "name": "timelock",
          "type": "uint256"
        },
        {
          "internalType": "uint256",
          "name": "timeLimit",
          "type": "uint256"
        },
        {
          "internalType": "uint256",
          "name": "amount",
          "type": "uint256"
        },
        {
          "internalType": "bool",
          "name": "executed",
          "type": "bool"
        }
      ],
      "stateMutability": "view",
      "type": "function"
    }
  ],
  "bytecode": {
    "object": "0x60806040523480156200001157600080fd5b506200001d3362000023565b62000073565b600080546001600160a01b038381166001600160a01b0319831681178455604051919092169283917f8be0079c531659141344cd1fd0a4f28419497f9722a3daafe3b4186f6b6457e09190a35050565b61460180620000836000396000f3fe608060405234801561001057600080fd5b50600436106103995760003560e01c806372d26951116101e9578063b4d1d7951161010f578063d5cb8669116100ad578063e45080e61161007c578063e45080e6146107d4578063f2fde38b146107dc578063ff45d4c0146107ef578063ffa1ad74146107f757600080fd5b8063d5cb86691461079d578063d6c47be7146107a5578063d835f535146107ae578063ddaaae03146107c157600080fd5b8063c790ef82116100e9578063c790ef821461075c578063cc12c3111461076f578063d084b03a14610782578063d26c90a91461078a57600080fd5b8063b4d1d79514610736578063b954dc5714610740578063bf6eac2f1461074957600080fd5b80638aa82e8211610187578063a194c3b611610156578063a194c3b614610700578063a4bf70bd14610713578063a5f5be541461071c578063aaf5eb681461072e57600080fd5b80638aa82e82146106c05780638da5cb5b146106d357806396ce0795146106e45780639e4bfaa5146106ed57600080fd5b806378eb46fd116101c357806378eb46fd1461068b57806380d440ff1461069357806383914540146106ac57806384dc10b4146106b757600080fd5b806372d269511461063757806373927c1114610640578063769966e81461065357600080fd5b80633d850fb2116102ce5780634c3bdee01161026c5780635a898d031161023b5780635a898d03146105f057806360829f8a14610603578063715018a614610616578063728ecaf81461061e57600080fd5b80634c3bdee0146105b6578063503cb917146105bf5780635121ac9d146105d457806355455df2146105e757600080fd5b806344ebc03d116102a857806344ebc03d1461057f578063481c6a75146105885780634a94bcb31461059b5780634b5df6cc146105a357600080fd5b80633d850fb2146105435780633f6fc7981461054c578063419b7bd71461056c57600080fd5b80632d7807a91161033b5780633147096d116103155780633147096d146104e0578063348e50c614610503578063383639b31461052e5780633a5b01721461053657600080fd5b80632d7807a9146104565780633065f450146104af578063313ce567146104d757600080fd5b806316e17b8d1161037757806316e17b8d146103e35780631a89cabd146103eb5780631e27970f1461041357806320d830861461044e57600080fd5b8063013eba921461039e5780630ba68f1a146103d15780631104ec25146103da575b600080fd5b6103be6103ac366004614163565b600f6020526000908152604090205481565b6040519081526020015b60405180910390f35b6103be60045481565b6103be600b5481565b6103be6107ff565b6103fe6103f9366004614163565b6108b7565b604080519283526020830191909152016103c8565b601b54601c54601d54601e5461042c9392919060ff1684565b60408051948552602085019390935291830152151560608201526080016103c8565b6008546103be565b610492610464366004614163565b6001600160a01b0316600090815260116020526040902080546002820154600390920154909260ff90911690565b6040805193845260208401929092521515908201526060016103c8565b6104c26104bd36600461417e565b610976565b604080519283529015156020830152016103c8565b6103be60025481565b6104f36104ee3660046141c1565b610b2b565b60405190151581526020016103c8565b6105166105113660046141fd565b610bbe565b6040516001600160a01b0390911681526020016103c8565b600c546103be565b6025546104f39060ff1681565b6103be60075481565b6103be61055a366004614163565b60126020526000908152604090205481565b6104f361057a3660046141c1565b610be8565b6103be60085481565b600154610516906001600160a01b031681565b6103be610ce4565b6104f36105b13660046141fd565b610dd3565b6103be600d5481565b6105d26105cd3660046141fd565b610e97565b005b6103be6105e2366004614216565b610ee0565b6103be600e5481565b6105d26105fe366004614249565b610f34565b6104f36106113660046141c1565b6110c5565b6105d261154e565b601754601854601954601a5461042c9392919060ff1684565b6103be600c5481565b6104f361064e366004614273565b611562565b61042c610661366004614163565b60116020526000908152604090208054600182015460028301546003909301549192909160ff1684565b6009546103be565b60135460145460155460165461042c9392919060ff1684565b6103be6301e1338081565b6103be60095481565b6104f36106ce366004614216565b611b4c565b6000546001600160a01b0316610516565b6103be60055481565b6103fe6106fb366004614249565b611e85565b6103fe61070e3660046141fd565b611ec1565b6103be60065481565b6025546104f390610100900460ff1681565b6103be606481565b6103be62093a8081565b6103be600a5481565b6104f36107573660046141c1565b611eef565b6104f361076a366004614249565b6123d4565b6104f361077d3660046141c1565b612575565b600d546103be565b6105d26107983660046141fd565b6129b0565b6103be6129f9565b6103be60035481565b6105d26107bc3660046141fd565b612a18565b6103fe6107cf3660046141fd565b612e29565b6103be612e39565b6105d26107ea366004614163565b612efd565b600a546103be565b6103be600181565b6000806021805480602002602001604051908101604052809291908181526020016000905b8282101561086a57838290600052602060002090600202016040518060400160405290816000820154815260200160018201548152505081526020019060010190610824565b505082519293505050806108815760009250505090565b602161088e6001836142d4565b8154811061089e5761089e6142eb565b9060005260206000209060020201600001549250505090565b6001600160a01b0381166000908152601060205260408120548190806108e35750600093849350915050565b6001600160a01b03841660009081526010602052604090206109066001836142d4565b81548110610916576109166142eb565b600091825260208083206002909202909101546001600160a01b03871683526010909152604090912061094a6001846142d4565b8154811061095a5761095a6142eb565b9060005260206000209060020201600101549250925050915091565b60015460009081906001600160a01b031633146109ae5760405162461bcd60e51b81526004016109a590614301565b60405180910390fd5b6001600160a01b0384166000908152600f6020908152604080832054601083528184208054835181860281018601909452808452919493909190849084015b82821015610a33578382906000526020600020906002020160405180604001604052908160008201548152602001600182015481525050815260200190600101906109ed565b5050825160085493945092915060009050610a4f858585612f76565b9050600060055460045483610a64919061432f565b610a6e919061434e565b9050610a7a81836142d4565b6001600160a01b038b1660009081526012602052604081205491935090610aa19084614370565b6001600160a01b038c16600090815260126020526040812055905080841015610ad057610ace8c8b611b4c565b505b610ae46001600160a01b038d168c83612ff9565b508260086000828254610af791906142d4565b90915550506001600160a01b038b166000908152600f60205260409020429055975060019650505050505050935093915050565b6001546000906001600160a01b03163314610b585760405162461bcd60e51b81526004016109a590614301565b610b6d6001600160a01b038516843085613069565b50602554610100900460ff16610b9d57610b8a62093a8042614370565b600e556025805461ff0019166101001790555b81600c6000828254610baf9190614370565b90915550600195945050505050565b601f8181548110610bce57600080fd5b6000918252602090912001546001600160a01b0316905081565b6001546000906001600160a01b03163314610c155760405162461bcd60e51b81526004016109a590614301565b60408051608081018252601b54808252601c546020830152601d5492820192909252601e5460ff16151560608201529042118015610c565750428160200151115b8015610c6457506060810151155b8015610c74575082816040015110155b8015610c805750805115155b610c9c5760405162461bcd60e51b81526004016109a590614388565b601e805460ff19166001179055600c8054849190600090610cbe9084906142d4565b90915550610cd890506001600160a01b0386168585612ff9565b50600195945050505050565b6000806021805480602002602001604051908101604052809291908181526020016000905b82821015610d4f57838290600052602060002090600202016040518060400160405290816000820154815260200160018201548152505081526020019060010190610d09565b50508251929350600091505081610d695750600c54610da1565b82610d756001846142d4565b81518110610d8557610d856142eb565b602002602001015160000151600c54610d9e9190614370565b90505b600060055460035483610db4919061432f565b610dbe919061434e565b9050610dca81836142d4565b94505050505090565b6001546000906001600160a01b03163314610e005760405162461bcd60e51b81526004016109a590614301565b81600c541115610e525760405162461bcd60e51b815260206004820152601a60248201527f416d6f756e7420626967676572207468616e206465706f73697400000000000060448201526064016109a5565b610e5f62093a8042614370565b601b55610e6f62093a8042614370565b610e7c906203f480614370565b601c5550601d819055601e805460ff1916905560015b919050565b6001546001600160a01b03163314610ec15760405162461bcd60e51b81526004016109a590614301565b610ece62093a8042614370565b601755601955601a805460ff19169055565b6001546000906001600160a01b03163314610f0d5760405162461bcd60e51b81526004016109a590614301565b600780546000909155610f2a6001600160a01b0385168483612ff9565b5090505b92915050565b600054600160a81b900460ff1615808015610f5c57506000546001600160a01b90910460ff16105b80610f7d5750303b158015610f7d5750600054600160a01b900460ff166001145b610fe05760405162461bcd60e51b815260206004820152602e60248201527f496e697469616c697a61626c653a20636f6e747261637420697320616c72656160448201526d191e481a5b9a5d1a585b1a5e995960921b60648201526084016109a5565b6000805460ff60a01b1916600160a01b179055801561100d576000805460ff60a81b1916600160a81b1790555b600180546001600160a01b0319166001600160a01b038516179055600282905561103882600a6144ad565b61104390600a61432f565b60035561105182600a6144ad565b61105c90600a61432f565b60045561106a82600a6144ad565b61107590606461432f565b60055580156110c0576000805460ff60a81b19169055604051600181527f7f26b83ff96e1f2b6a682f133852f6798a09c465da95921460cefb38474024989060200160405180910390a15b505050565b6001546000906001600160a01b031633146110f25760405162461bcd60e51b81526004016109a590614301565b60006021805480602002602001604051908101604052809291908181526020016000905b8282101561115c57838290600052602060002090600202016040518060400160405290816000820154815260200160018201548152505081526020019060010190611116565b50505050905060006001825161117291906142d4565b905060095460001415806111a45750818181518110611193576111936142eb565b602002602001015160000151600a54115b15611277576001600160a01b038516600090815260116020908152604091829020825160808101845281548082526001830154938201939093526002820154938101939093526003015460ff1615156060830152421180156112095750428160200151115b801561121757506060810151155b8015611227575084816040015110155b80156112335750805115155b61124f5760405162461bcd60e51b81526004016109a590614388565b506001600160a01b0385166000908152601160205260409020600301805460ff191660011790555b6001600160a01b03851660009081526010602052604081205461129c906001906142d4565b90506112bb604051806040016040528060008152602001600081525090565b426020808301919091526001600160a01b03881660009081526010909152604090208054879190849081106112f2576112f26142eb565b90600052602060002090600202016000015461130e91906142d4565b8152601f8054604080516020808402820181019092528281526000939092909183018282801561136757602002820191906000526020600020905b81546001600160a01b03168152600190910190602001808311611349575b5050505050905081600001516000141561146957805160005b8181101561146657896001600160a01b03168382815181106113a4576113a46142eb565b60200260200101516001600160a01b0316141561145e576000836113c96001856142d4565b815181106113d9576113d96142eb565b6020026020010151905080601f83815481106113f7576113f76142eb565b9060005260206000200160006101000a8154816001600160a01b0302191690836001600160a01b03160217905550601f805480611436576114366144b9565b600082815260209020810160001990810180546001600160a01b031916905501905550611466565b600101611380565b50505b6001600160a01b0388166000908152601060209081526040808320805460018181018355918552838520875160029092020190815586840151910155805180820190915282815290810191909152878686815181106114ca576114ca6142eb565b6020026020010151600001516114e091906142d4565b8152426020820190815260218054600181018255600091909152825160008051602061458c83398151915260029092029182015590516000805160206145ac8339815191529091015561153d6001600160a01b038b168a8a612ff9565b5060019a9950505050505050505050565b6115566130af565b6115606000613109565b565b6001546000906001600160a01b0316331461158f5760405162461bcd60e51b81526004016109a590614301565b60006021805480602002602001604051908101604052809291908181526020016000905b828210156115f9578382906000526020600020906002020160405180604001604052908160008201548152602001600182015481525050815260200190600101906115b3565b50505050905060006001825161160f91906142d4565b90506000601f80548060200260200160405190810160405280929190818152602001828054801561166957602002820191906000526020600020905b81546001600160a01b0316815260019091019060200180831161164b575b5050505050905060008151905085848481518110611689576116896142eb565b602002602001015160000151106119e257858484815181106116ad576116ad6142eb565b60200260200101516000018181516116c591906142d4565b905250604080518082019091526000815242602082015284518590859081106116f0576116f06142eb565b60209081029190910101515181528451859085908110611712576117126142eb565b6020026020010151600001516000141561181c5760005b828110156117b357604080518082019091526000808252426020830152855186908490811061175a5761175a6142eb565b6020908102919091018101516001600160a01b0316600090815260108252604081208054600181810183559183529183902085516002909302019182559390910151920191909155506117ac816144cf565b9050611729565b506117c08a898b8a613159565b50602180546001810182556000918252825160008051602061458c83398151915260029092029182015560208301516000805160206145ac8339815191529091015561180e90601f9061411a565b600195505050505050611b44565b6000858581518110611830576118306142eb565b602002602001015160000151606489611849919061432f565b611853919061434e565b905060005b83811015611983576000858281518110611874576118746142eb565b6020908102919091018101516001600160a01b0381166000908152601090925260408220549092506118a8906001906142d4565b6001600160a01b038316600090815260106020526040812080549293509091839081106118d7576118d76142eb565b9060005260206000209060020201600001549050611908604051806040016040528060008152602001600081525090565b42602082015260055461191b878461432f565b611925919061434e565b61192f90836142d4565b81526001600160a01b03909316600090815260106020908152604082208054600181810183559184529282902086516002909402019283559401519301929092555061197c9050816144cf565b9050611858565b5060218054600181018255600091909152825160008051602061458c83398151915260029092029182015560208301516000805160206145ac833981519152909101556119d28b8a8c8b613159565b5060019650505050505050611b44565b60005b81811015611a6f576040805180820190915260008082524260208301528451859084908110611a1657611a166142eb565b6020908102919091018101516001600160a01b031660009081526010825260408120805460018181018355918352918390208551600290930201918255939091015192019190915550611a68816144cf565b90506119e5565b50611a7c601f600061411a565b6000848481518110611a9057611a906142eb565b60200260200101516000015187611aa791906142d4565b905080600c6000828254611abb91906142d4565b909155505060408051808201909152600081524260208201528551869086908110611ae857611ae86142eb565b60209081029190910181015151825260218054600181018255600091909152825160008051602061458c833981519152600290920291820155908201516000805160206145ac833981519152909101556119d28b8a8c8b613159565b949350505050565b6001546000906001600160a01b0316331480611b6757503330145b611bb35760405162461bcd60e51b815260206004820152601c60248201527f4f6e6c79206d616e61676572206f722073656c6620616c6c6f7765640000000060448201526064016109a5565b60006021805480602002602001604051908101604052809291908181526020016000905b82821015611c1d57838290600052602060002090600202016040518060400160405290816000820154815260200160018201548152505081526020019060010190611bd7565b50508251600b54600954949550909390925090506000611c3f828585886131be565b6040516323b872dd60e01b81526001600160a01b03898116600483015230602483015260448201839052919250908916906323b872dd906064016020604051808303816000875af1925050508015611cb4575060408051601f3d908101601f19168201909252611cb1918101906144ea565b60015b611d65576040805180820190915260006020820152428152611cd46129f9565b60208281019182528054600181018255600091825283517fc97bfaf2f8ee708c303a06d134f5ecd8389ae0432af62dc132a24118292866bb60029092029182015591517fc97bfaf2f8ee708c303a06d134f5ecd8389ae0432af62dc132a24118292866bc90920191909155611d476129f9565b9050611d548a8a83612575565b506000975050505050505050610f2e565b80611e18576040805180820190915260006020820152428152611d866129f9565b60208281019182528054600181018255600091825283517fc97bfaf2f8ee708c303a06d134f5ecd8389ae0432af62dc132a24118292866bb60029092029182015591517fc97bfaf2f8ee708c303a06d134f5ecd8389ae0432af62dc132a24118292866bc90920191909155611df96129f9565b9050611e068b8b83612575565b50600098505050505050505050610f2e565b50600060055460045483611e2c919061432f565b611e36919061434e565b90508060076000828254611e4a9190614370565b925050819055508160086000828254611e639190614370565b909155505042600b5550506025805460ff191690555060019695505050505050565b60106020528160005260406000208181548110611ea157600080fd5b600091825260209091206002909102018054600190910154909250905082565b60218181548110611ed157600080fd5b60009182526020909120600290910201805460019091015490915082565b6001546000906001600160a01b03163314611f1c5760405162461bcd60e51b81526004016109a590614301565b42600e5410611f6d5760405162461bcd60e51b815260206004820152601960248201527f5374616b696e67206e6f74206f70656e206a757374207965740000000000000060448201526064016109a5565b60006021805480602002602001604051908101604052809291908181526020016000905b82821015611fd757838290600052602060002090600202016040518060400160405290816000820154815260200160018201548152505081526020019060010190611f91565b505082519293505050806120375760408051808201909152600080825260208201818152602180546001810182559252915160008051602061458c83398151915260029092029182015590516000805160206145ac833981519152909101555b602154600090612049906001906142d4565b9050600a548560218381548110612062576120626142eb565b90600052602060002090600202016000015461207e9190614370565b11156120cc5760405162461bcd60e51b815260206004820152601960248201527f5374616b696e6720506f6f6c20616c72656164792066756c6c0000000000000060448201526064016109a5565b6001600160a01b0386166000908152601060205260409020548061213657604080518082018252600080825260208083018281526001600160a01b038c16835260108252938220805460018082018355918452919092209251600290910290920191825591519101555b6001600160a01b03871660009081526010602052604081205461215b906001906142d4565b6001600160a01b038916600090815260106020526040902080549192509082908110612189576121896142eb565b906000526020600020906002020160000154600014156121ef57601f80546001810182556000919091527fa03837a25210ee280c2113ff4b77ca23440b19d4866cca721c801278fd08d8070180546001600160a01b0319166001600160a01b038a161790555b6040805180820182526000808252426020808401919091526001600160a01b038c1682526010905291909120805489919084908110612230576122306142eb565b90600052602060002090600202016000015461224c9190614370565b8152826122a4576001600160a01b0389166000908152601060205260409020805482919084908110612280576122806142eb565b600091825260209182902083516002909202019081559101516001909101556122e1565b6001600160a01b03891660009081526010602090815260408220805460018181018355918452928290208451600290940201928355908301519101555b60408051808201909152600080825260208201528860218681548110612309576123096142eb565b9060005260206000209060020201600001546123259190614370565b81524260208201528561236a578060218681548110612346576123466142eb565b600091825260209182902083516002909202019081559101516001909101556123ad565b60218054600181018255600091909152815160008051602061458c83398151915260029092029182015560208201516000805160206145ac833981519152909101555b6123c26001600160a01b038c168b308c613069565b5060019b9a5050505050505050505050565b6001546000906001600160a01b031633146124015760405162461bcd60e51b81526004016109a590614301565b6001600160a01b038316600090815260106020908152604080832080548251818502810185019093528083529192909190849084015b8282101561247d57838290600052602060002090600202016040518060400160405290816000820154815260200160018201548152505081526020019060010190612437565b50505050905060006001825161249391906142d4565b9050838282815181106124a8576124a86142eb565b60200260200101516000015110156124f95760405162461bcd60e51b8152602060048201526014602482015273496e73756669636369656e742062616c616e636560601b60448201526064016109a5565b61250662093a8042614370565b6001600160a01b03861660009081526011602052604090205561252c62093a8042614370565b612539906203f480614370565b6001600160a01b039590951660009081526011602052604090206001808201969096556002810194909455505050600301805460ff1916905590565b6001546000906001600160a01b031633148061259057503330145b6125dc5760405162461bcd60e51b815260206004820152601c60248201527f4f6e6c79206d616e61676572206f722073656c6620616c6c6f7765640000000060448201526064016109a5565b6009541561266a5760408051608081018252601754808252601854602083015260195492820192909252601a5460ff1615156060820152904211801561262457506060810151155b80156126335750828160400151145b801561263f5750805115155b61265b5760405162461bcd60e51b81526004016109a590614388565b50601a805460ff191660011790555b600060085490506000806021805480602002602001604051908101604052809291908181526020016000905b828210156126dc57838290600052602060002090600202016040518060400160405290816000820154815260200160018201548152505081526020019060010190612696565b50508251929350508115905061272c57816126f86001836142d4565b81518110612708576127086142eb565b602002602001015160000151600014612727576127258888611b4c565b505b6127ab565b62093a806301e1338060055488600a54612746919061432f565b612750919061434e565b61275a919061434e565b612764919061432f565b9250828410156127ab57600061277a85856142d4565b90506127916001600160a01b038a16893084613069565b5080600860008282546127a49190614370565b9091555050505b600d83905560408051808201825242815260208082018981528154600181018355600083815284517fc97bfaf2f8ee708c303a06d134f5ecd8389ae0432af62dc132a24118292866bb60029093029283015591517fc97bfaf2f8ee708c303a06d134f5ecd8389ae0432af62dc132a24118292866bc9091015560098a9055601f805485518185028101850190965280865293949193919290919083018282801561287e57602002820191906000526020600020905b81546001600160a01b03168152600190910190602001808311612860575b505050505090506000815111156129965760006001825161289f91906142d4565b905060005b818110156129935760008382815181106128c0576128c06142eb565b6020908102919091018101516001600160a01b0381166000908152601090925260408220549092506128f4906001906142d4565b9050612913604051806040016040528060008152602001600081525090565b6001600160a01b038316600090815260106020526040902080548390811061293d5761293d6142eb565b60009182526020808320600292830201548452428482019081526001600160a01b0390961683526010815260408320805460018181018355918552919093209351910290920191825592519083015550016128a4565b50505b50506025805460ff19169055506001979650505050505050565b6001546001600160a01b031633146129da5760405162461bcd60e51b81526004016109a590614301565b6129e762093a8042614370565b6013556015556016805460ff19169055565b600080600a546064600854612a0e919061432f565b610f2e919061434e565b6001546001600160a01b03163314612a425760405162461bcd60e51b81526004016109a590614301565b600a5415612ad0576040805160808101825260135480825260145460208301526015549282019290925260165460ff16151560608201529042118015612a8a57506060810151155b8015612a995750818160400151145b8015612aa55750805115155b612ac15760405162461bcd60e51b81526004016109a590614388565b506016805460ff191660011790555b60006021805480602002602001604051908101604052809291908181526020016000905b82821015612b3a57838290600052602060002090600202016040518060400160405290816000820154815260200160018201548152505081526020019060010190612af4565b505050509050600060018251612b5091906142d4565b90506000828281518110612b6657612b666142eb565b602002602001015160000151905083811115612e21576000612b8885836142d4565b90506000601f805480602002602001604051908101604052809291908181526020018280548015612be257602002820191906000526020600020905b81546001600160a01b03168152600190910190602001808311612bc4575b50505050509050600060018251612bf991906142d4565b905060005b81811015612d97576000838281518110612c1a57612c1a6142eb565b6020908102919091018101516001600160a01b038116600090815260109092526040822054909250612c4e906001906142d4565b600254909150600088612c6283600a6144ad565b6001600160a01b0386166000908152601060205260409020805486908110612c8c57612c8c6142eb565b906000526020600020906002020160000154612ca8919061432f565b612cb2919061434e565b90506000612cc183600a6144ad565b612ccb838b61432f565b612cd5919061434e565b6001600160a01b038616600081815260126020908152604080832085905580518082018252838152808301849052938352601090915290208054929350909183919087908110612d2757612d276142eb565b906000526020600020906002020160000154612d4391906142d4565b81524260208083019182526001600160a01b03909716600090815260108852604081208054600181810183559183529890912092516002909802909201968755519581019590955550505091019050612bfe565b50604080518082019091526000815242602082015286518490889088908110612dc257612dc26142eb565b602002602001015160000151612dd891906142d4565b815260218054600181018255600091909152815160008051602061458c8339815191526002909202918201556020909101516000805160206145ac833981519152909101555050505b505050600a55565b60208181548110611ed157600080fd5b6000806021805480602002602001604051908101604052809291908181526020016000905b82821015612ea457838290600052602060002090600202016040518060400160405290816000820154815260200160018201548152505081526020019060010190612e5e565b50508251929350600091505081612ebe5750600c54612ef6565b82612eca6001846142d4565b81518110612eda57612eda6142eb565b602002602001015160000151600c54612ef39190614370565b90505b9392505050565b612f056130af565b6001600160a01b038116612f6a5760405162461bcd60e51b815260206004820152602660248201527f4f776e61626c653a206e6577206f776e657220697320746865207a65726f206160448201526564647265737360d01b60648201526084016109a5565b612f7381613109565b50565b6020805460408051828402810184019091528181526000928392838383015b82821015612fdb57838290600052602060002090600202016040518060400160405290816000820154815260200160018201548152505081526020019060010190612f95565b5050505090506000612fef8686868561399b565b9695505050505050565b6040516001600160a01b03831660248201526044810182905260009061305f90859063a9059cbb60e01b906064015b60408051601f198184030181529190526020810180516001600160e01b03166001600160e01b031990931692909217909152613c97565b5060019392505050565b6040516001600160a01b03808516602483015283166044820152606481018290526000906130a49086906323b872dd60e01b90608401613028565b506001949350505050565b6000546001600160a01b031633146115605760405162461bcd60e51b815260206004820181905260248201527f4f776e61626c653a2063616c6c6572206973206e6f7420746865206f776e657260448201526064016109a5565b600080546001600160a01b038381166001600160a01b0319831681178455604051919092169283917f8be0079c531659141344cd1fd0a4f28419497f9722a3daafe3b4186f6b6457e09190a35050565b6000806005546003548461316d919061432f565b613177919061434e565b9050600061318582856142d4565b905061319b6001600160a01b0388168783612ff9565b506131b06001600160a01b0388168684612ff9565b506001979650505050505050565b60008060005b8581101561323757848482815181106131df576131df6142eb565b602002602001015160200151111561322757602380546001810182556000919091527fd57b2b5166478fd4318d2acc6cc2c704584312bdd8781b32d5d06abda57f4230018190555b613230816144cf565b90506131c4565b506000602380548060200260200160405190810160405280929190818152602001828054801561328657602002820191906000526020600020905b815481526020019060010190808311613272575b5050835193945060009250505081613307576132a287426142d4565b9050806301e133806005548b8960018d6132bc91906142d4565b815181106132cc576132cc6142eb565b6020026020010151600001516132e2919061432f565b6132ec919061434e565b6132f6919061434e565b613300919061432f565b9350613982565b81600114156134e8578661335e5785600081518110613328576133286142eb565b6020026020010151602001514261333f91906142d4565b9050806301e133806005548b896000815181106132cc576132cc6142eb565b868684600081518110613373576133736142eb565b60200260200101518151811061338b5761338b6142eb565b6020026020010151602001516133a191906142d4565b9050806301e133806005548b896001886000815181106133c3576133c36142eb565b60200260200101516133d591906142d4565b815181106133e5576133e56142eb565b6020026020010151600001516133fb919061432f565b613405919061434e565b61340f919061434e565b613419919061432f565b6134239085614370565b93506000868460008151811061343b5761343b6142eb565b602002602001015181518110613453576134536142eb565b6020026020010151602001514261346a91906142d4565b9050806301e133806005548c8a8860008151811061348a5761348a6142eb565b6020026020010151815181106134a2576134a26142eb565b6020026020010151600001516134b8919061432f565b6134c2919061434e565b6134cc919061434e565b6134d6919061432f565b6134e09086614370565b945050613982565b60005b8281101561398057876135d7576135036001846142d4565b811415613553578684828151811061351d5761351d6142eb565b602002602001015181518110613535576135356142eb565b6020026020010151602001514261354c91906142d4565b9150613970565b86848281518110613566576135666142eb565b60200260200101518151811061357e5761357e6142eb565b60200260200101516020015187858360016135999190614370565b815181106135a9576135a96142eb565b6020026020010151815181106135c1576135c16142eb565b60200260200101516020015161354c91906142d4565b806137a45787878583815181106135f0576135f06142eb565b602002602001015181518110613608576136086142eb565b60200260200101516020015161361e91906142d4565b9150816301e133806005548c8a600189878151811061363f5761363f6142eb565b602002602001015161365191906142d4565b81518110613661576136616142eb565b602002602001015160000151613677919061432f565b613681919061434e565b61368b919061434e565b613695919061432f565b61369f9086614370565b94506000878583815181106136b6576136b66142eb565b6020026020010151815181106136ce576136ce6142eb565b602002602001015160200151888684815181106136ed576136ed6142eb565b602002602001015160016137019190614370565b81518110613711576137116142eb565b60200260200101516020015161372791906142d4565b9050806301e133806005548d8b898781518110613746576137466142eb565b60200260200101518151811061375e5761375e6142eb565b602002602001015160000151613774919061432f565b61377e919061434e565b613788919061434e565b613792919061432f565b61379c9087614370565b955050613970565b6137af6001846142d4565b81141561387457868482815181106137c9576137c96142eb565b6020026020010151815181106137e1576137e16142eb565b602002602001015160200151426137f891906142d4565b9150816301e133806005548c8a888681518110613817576138176142eb565b60200260200101518151811061382f5761382f6142eb565b602002602001015160000151613845919061432f565b61384f919061434e565b613859919061434e565b613863919061432f565b61386d9086614370565b9450613970565b86848281518110613887576138876142eb565b60200260200101518151811061389f5761389f6142eb565b60200260200101516020015187858360016138ba9190614370565b815181106138ca576138ca6142eb565b6020026020010151815181106138e2576138e26142eb565b6020026020010151602001516138f891906142d4565b9150816301e133806005548c8a888681518110613917576139176142eb565b60200260200101518151811061392f5761392f6142eb565b602002602001015160000151613945919061432f565b61394f919061434e565b613959919061434e565b613963919061432f565b61396d9086614370565b94505b613979816144cf565b90506134eb565b505b61398e6023600061411a565b5091979650505050505050565b805160009081808088613a6d5760005b84811015613a67578681815181106139c5576139c56142eb565b60200260200101516000015192506001856139e091906142d4565b8114156139ef57429150613a1a565b866139fb826001614370565b81518110613a0b57613a0b6142eb565b60200260200101516000015191505b6000878281518110613a2e57613a2e6142eb565b6020026020010151602001519050613a498185858d8d613d69565b613a539086614370565b94505080613a60906144cf565b90506139ab565b50613c8a565b60005b84811015613b165789878281518110613a8b57613a8b6142eb565b6020026020010151600001511115613b06576022613aaa6001836142d4565b815460018181018455600093845260209093200155613ac990866142d4565b811415613b0657602280546001810182556000919091527f61035b26e3e9eee00e0d72fd1ee8ddca6894550dca6916ea2ac6baa90d11e510018190555b613b0f816144cf565b9050613a70565b5060006022805480602002602001604051908101604052809291908181526020018280548015613b6557602002820191906000526020600020905b815481526020019060010190808311613b51575b505083519394506000925050505b81811015613c865780613b88578b9450613bc2565b88838281518110613b9b57613b9b6142eb565b602002602001015181518110613bb357613bb36142eb565b60200260200101516000015194505b613bcd6001886142d4565b811415613bdc57429350613c20565b8883613be9836001614370565b81518110613bf957613bf96142eb565b602002602001015181518110613c1157613c116142eb565b60200260200101516000015193505b600089848381518110613c3557613c356142eb565b602002602001015181518110613c4d57613c4d6142eb565b6020026020010151602001519050613c688187878f8f613d69565b613c729088614370565b96505080613c7f906144cf565b9050613b73565b5050505b5090979650505050505050565b6000613cec826040518060400160405280602081526020017f5361666545524332303a206c6f772d6c6576656c2063616c6c206661696c6564815250856001600160a01b0316613ffa9092919063ffffffff16565b8051909150156110c05780806020019051810190613d0a91906144ea565b6110c05760405162461bcd60e51b815260206004820152602a60248201527f5361666545524332303a204552433230206f7065726174696f6e20646964206e6044820152691bdd081cdd58d8d9595960b21b60648201526084016109a5565b6000806000805b84811015613e0c5787868281518110613d8b57613d8b6142eb565b60200260200101516020015110158015613dc1575086868281518110613db357613db36142eb565b602002602001015160200151105b15613dfc57602480546001810182556000919091527f7cd332d19b93bcabe3cce7ca0c18a052f57e5fd03b4758a09f30f5ddc4b22ec4018190555b613e05816144cf565b9050613d70565b5060006024805480602002602001604051908101604052809291908181526020018280548015613e5b57602002820191906000526020600020905b815481526020019060010190808311613e47575b505083519394506000925050505b81811015613fde57613e7c6001836142d4565b811415613ecc5787838281518110613e9657613e966142eb565b602002602001015181518110613eae57613eae6142eb565b60200260200101516020015189613ec591906142d4565b9350613f53565b87838281518110613edf57613edf6142eb565b602002602001015181518110613ef757613ef76142eb565b6020026020010151602001518884836001613f129190614370565b81518110613f2257613f226142eb565b602002602001015181518110613f3a57613f3a6142eb565b602002602001015160200151613f5091906142d4565b93505b6000846301e133806005548e8c888781518110613f7257613f726142eb565b602002602001015181518110613f8a57613f8a6142eb565b602002602001015160000151613fa0919061432f565b613faa919061434e565b613fb4919061434e565b613fbe919061432f565b9050613fca8187614370565b95505080613fd7906144cf565b9050613e69565b50505060246000613fef919061411a565b509695505050505050565b6060612ef3848460008585600080866001600160a01b03168587604051614021919061453c565b60006040518083038185875af1925050503d806000811461405e576040519150601f19603f3d011682016040523d82523d6000602084013e614063565b606091505b50915091506140748783838761407f565b979650505050505050565b606083156140eb5782516140e4576001600160a01b0385163b6140e45760405162461bcd60e51b815260206004820152601d60248201527f416464726573733a2063616c6c20746f206e6f6e2d636f6e747261637400000060448201526064016109a5565b5081611b44565b611b4483838151156141005781518083602001fd5b8060405162461bcd60e51b81526004016109a59190614558565b5080546000825590600052602060002090810190612f7391905b808211156141485760008155600101614134565b5090565b80356001600160a01b0381168114610e9257600080fd5b60006020828403121561417557600080fd5b612ef68261414c565b60008060006060848603121561419357600080fd5b61419c8461414c565b92506141aa6020850161414c565b91506141b86040850161414c565b90509250925092565b6000806000606084860312156141d657600080fd5b6141df8461414c565b92506141ed6020850161414c565b9150604084013590509250925092565b60006020828403121561420f57600080fd5b5035919050565b6000806040838503121561422957600080fd5b6142328361414c565b91506142406020840161414c565b90509250929050565b6000806040838503121561425c57600080fd5b6142658361414c565b946020939093013593505050565b6000806000806080858703121561428957600080fd5b6142928561414c565b93506142a06020860161414c565b92506142ae6040860161414c565b9396929550929360600135925050565b634e487b7160e01b600052601160045260246000fd5b6000828210156142e6576142e66142be565b500390565b634e487b7160e01b600052603260045260246000fd5b60208082526014908201527313db9b1e481b585b9859d95c88185b1b1bddd95960621b604082015260600190565b6000816000190483118215151615614349576143496142be565b500290565b60008261436b57634e487b7160e01b600052601260045260246000fd5b500490565b60008219821115614383576143836142be565b500190565b60208082526021908201527f54696d656c6f636b206e6f7420736574206f72206e6f7420636f6d706c6574656040820152601960fa1b606082015260800190565b600181815b808511156144045781600019048211156143ea576143ea6142be565b808516156143f757918102915b93841c93908002906143ce565b509250929050565b60008261441b57506001610f2e565b8161442857506000610f2e565b816001811461443e576002811461444857614464565b6001915050610f2e565b60ff841115614459576144596142be565b50506001821b610f2e565b5060208310610133831016604e8410600b8410161715614487575081810a610f2e565b61449183836143c9565b80600019048211156144a5576144a56142be565b029392505050565b6000612ef6838361440c565b634e487b7160e01b600052603160045260246000fd5b60006000198214156144e3576144e36142be565b5060010190565b6000602082840312156144fc57600080fd5b81518015158114612ef657600080fd5b60005b8381101561452757818101518382015260200161450f565b83811115614536576000848401525b50505050565b6000825161454e81846020870161450c565b9190910192915050565b602081526000825180602084015261457781604085016020870161450c565b601f01601f1916919091016040019291505056fe3a6357012c1a3ae0a17d304c9920310382d968ebcc4b1771f41c6b304205b5703a6357012c1a3ae0a17d304c9920310382d968ebcc4b1771f41c6b304205b571a2646970667358221220a1bd1dd0f1440bab5eadc5f521dcd63276ab7efc1d36f6eab4c5ed858366feb164736f6c634300080a0033",
    "linkReferences": {}
  },
  "methodIdentifiers": {
    "APYTimelock()": "728ecaf8",
    "APYdropped()": "3a5b0172",
    "APYrecords(uint256)": "ddaaae03",
    "PERIOD()": "b4d1d795",
    "PRECISION()": "aaf5eb68",
    "VERSION()": "ffa1ad74",
    "YEAR()": "83914540",
    "billPremium(address,address)": "8aa82e82",
    "bountyCommission()": "d6c47be7",
    "bountyDeposit(address,address,uint256)": "3147096d",
    "claimPremium(address,address,address)": "3065f450",
    "collectSaloonPremiumFees(address,address)": "5121ac9d",
    "decimals()": "313ce567",
    "denominator()": "96ce0795",
    "desiredAPY()": "84dc10b4",
    "firstDeposit()": "a5f5be54",
    "initializeImplementation(address,uint256)": "5a898d03",
    "lastClaimed(address)": "013eba92",
    "lastTimePaid()": "1104ec25",
    "manager()": "481c6a75",
    "owner()": "8da5cb5b",
    "payBounty(address,address,address,uint256)": "73927c11",
    "poolCap()": "b954dc57",
    "poolCapTimelock()": "80d440ff",
    "premiumBalance()": "44ebc03d",
    "premiumCommission()": "0ba68f1a",
    "projectDeposit()": "72d26951",
    "projectDepositWithdrawal(address,address,uint256)": "419b7bd7",
    "renounceOwnership()": "715018a6",
    "requiredPremiumBalancePerPeriod()": "4c3bdee0",
    "saloonBountyCommission()": "a4bf70bd",
    "saloonPremiumFees()": "3d850fb2",
    "scheduleAPYChange(uint256)": "503cb917",
    "schedulePoolCapChange(uint256)": "d26c90a9",
    "scheduleUnstake(address,uint256)": "c790ef82",
    "scheduleprojectDepositWithdrawal(uint256)": "4b5df6cc",
    "setDesiredAPY(address,address,uint256)": "cc12c311",
    "setPoolCap(uint256)": "d835f535",
    "stake(address,address,uint256)": "bf6eac2f",
    "staker(address,uint256)": "9e4bfaa5",
    "stakerList(uint256)": "348e50c6",
    "stakerReimbursement(address)": "3f6fc798",
    "stakerTimelock(address)": "769966e8",
    "stakersDeposit(uint256)": "a194c3b6",
    "stakingPause()": "55455df2",
    "transferOwnership(address)": "f2fde38b",
    "unstake(address,address,uint256)": "60829f8a",
    "viewBountyBalance()": "e45080e6",
    "viewDesiredAPY()": "78eb46fd",
    "viewHackerPayout()": "4a94bcb3",
    "viewPoolCap()": "ff45d4c0",
    "viewPremiumBalance()": "20d83086",
    "viewProjecDeposit()": "383639b3",
    "viewRequirePremiumBalance()": "d084b03a",
    "viewStakersDeposit()": "16e17b8d",
    "viewUserStakingBalance(address)": "1a89cabd",
    "viewUserTimelock(address)": "2d7807a9",
    "viewcurrentAPY()": "d5cb8669",
    "withdrawalTimelock()": "1e27970f"
  },
  "id": 27
}