{
  "abi": [
    {
      "anonymous": false,
      "inputs": [
        {
          "indexed": false,
          "internalType": "uint8",
          "name": "version",
          "type": "uint8"
        }
      ],
      "name": "Initialized",
      "type": "event"
    },
    {
      "anonymous": false,
      "inputs": [
        {
          "indexed": true,
          "internalType": "address",
          "name": "previousOwner",
          "type": "address"
        },
        {
          "indexed": true,
          "internalType": "address",
          "name": "newOwner",
          "type": "address"
        }
      ],
      "name": "OwnershipTransferred",
      "type": "event"
    },
    {
      "inputs": [],
      "name": "APYTimelock",
      "outputs": [
        {
          "internalType": "uint256",
          "name": "timelock",
          "type": "uint256"
        },
        {
          "internalType": "uint256",
          "name": "amount",
          "type": "uint256"
        },
        {
          "internalType": "bool",
          "name": "executed",
          "type": "bool"
        }
      ],
      "stateMutability": "view",
      "type": "function"
    },
    {
      "inputs": [],
      "name": "APYdropped",
      "outputs": [
        {
          "internalType": "bool",
          "name": "",
          "type": "bool"
        }
      ],
      "stateMutability": "view",
      "type": "function"
    },
    {
      "inputs": [
        {
          "internalType": "uint256",
          "name": "",
          "type": "uint256"
        }
      ],
      "name": "APYrecords",
      "outputs": [
        {
          "internalType": "uint256",
          "name": "timeStamp",
          "type": "uint256"
        },
        {
          "internalType": "uint256",
          "name": "periodAPY",
          "type": "uint256"
        }
      ],
      "stateMutability": "view",
      "type": "function"
    },
    {
      "inputs": [],
      "name": "BOUNTY_COMMISSION",
      "outputs": [
        {
          "internalType": "uint256",
          "name": "",
          "type": "uint256"
        }
      ],
      "stateMutability": "view",
      "type": "function"
    },
    {
      "inputs": [],
      "name": "DENOMINATOR",
      "outputs": [
        {
          "internalType": "uint256",
          "name": "",
          "type": "uint256"
        }
      ],
      "stateMutability": "view",
      "type": "function"
    },
    {
      "inputs": [],
      "name": "PERIOD",
      "outputs": [
        {
          "internalType": "uint256",
          "name": "",
          "type": "uint256"
        }
      ],
      "stateMutability": "view",
      "type": "function"
    },
    {
      "inputs": [],
      "name": "PRECISION",
      "outputs": [
        {
          "internalType": "uint256",
          "name": "",
          "type": "uint256"
        }
      ],
      "stateMutability": "view",
      "type": "function"
    },
    {
      "inputs": [],
      "name": "PREMIUM_COMMISSION",
      "outputs": [
        {
          "internalType": "uint256",
          "name": "",
          "type": "uint256"
        }
      ],
      "stateMutability": "view",
      "type": "function"
    },
    {
      "inputs": [],
      "name": "VERSION",
      "outputs": [
        {
          "internalType": "uint256",
          "name": "",
          "type": "uint256"
        }
      ],
      "stateMutability": "view",
      "type": "function"
    },
    {
      "inputs": [],
      "name": "YEAR",
      "outputs": [
        {
          "internalType": "uint256",
          "name": "",
          "type": "uint256"
        }
      ],
      "stateMutability": "view",
      "type": "function"
    },
    {
      "inputs": [
        {
          "internalType": "address",
          "name": "_token",
          "type": "address"
        },
        {
          "internalType": "address",
          "name": "_projectWallet",
          "type": "address"
        }
      ],
      "name": "billPremium",
      "outputs": [
        {
          "internalType": "bool",
          "name": "",
          "type": "bool"
        }
      ],
      "stateMutability": "nonpayable",
      "type": "function"
    },
    {
      "inputs": [
        {
          "internalType": "address",
          "name": "_token",
          "type": "address"
        },
        {
          "internalType": "address",
          "name": "_projectWallet",
          "type": "address"
        },
        {
          "internalType": "uint256",
          "name": "_amount",
          "type": "uint256"
        }
      ],
      "name": "bountyDeposit",
      "outputs": [
        {
          "internalType": "bool",
          "name": "",
          "type": "bool"
        }
      ],
      "stateMutability": "nonpayable",
      "type": "function"
    },
    {
      "inputs": [
        {
          "internalType": "address",
          "name": "_token",
          "type": "address"
        },
        {
          "internalType": "address",
          "name": "_staker",
          "type": "address"
        },
        {
          "internalType": "address",
          "name": "_projectWallet",
          "type": "address"
        }
      ],
      "name": "claimPremium",
      "outputs": [
        {
          "internalType": "uint256",
          "name": "",
          "type": "uint256"
        },
        {
          "internalType": "bool",
          "name": "",
          "type": "bool"
        }
      ],
      "stateMutability": "nonpayable",
      "type": "function"
    },
    {
      "inputs": [
        {
          "internalType": "address",
          "name": "_token",
          "type": "address"
        },
        {
          "internalType": "address",
          "name": "_saloonWallet",
          "type": "address"
        }
      ],
      "name": "collectSaloonPremiumFees",
      "outputs": [
        {
          "internalType": "uint256",
          "name": "",
          "type": "uint256"
        }
      ],
      "stateMutability": "nonpayable",
      "type": "function"
    },
    {
      "inputs": [],
      "name": "desiredAPY",
      "outputs": [
        {
          "internalType": "uint256",
          "name": "",
          "type": "uint256"
        }
      ],
      "stateMutability": "view",
      "type": "function"
    },
    {
      "inputs": [
        {
          "internalType": "address",
          "name": "_manager",
          "type": "address"
        }
      ],
      "name": "initializeImplementation",
      "outputs": [],
      "stateMutability": "nonpayable",
      "type": "function"
    },
    {
      "inputs": [
        {
          "internalType": "address",
          "name": "",
          "type": "address"
        }
      ],
      "name": "lastClaimed",
      "outputs": [
        {
          "internalType": "uint256",
          "name": "",
          "type": "uint256"
        }
      ],
      "stateMutability": "view",
      "type": "function"
    },
    {
      "inputs": [],
      "name": "lastTimePaid",
      "outputs": [
        {
          "internalType": "uint256",
          "name": "",
          "type": "uint256"
        }
      ],
      "stateMutability": "view",
      "type": "function"
    },
    {
      "inputs": [],
      "name": "manager",
      "outputs": [
        {
          "internalType": "address",
          "name": "",
          "type": "address"
        }
      ],
      "stateMutability": "view",
      "type": "function"
    },
    {
      "inputs": [],
      "name": "owner",
      "outputs": [
        {
          "internalType": "address",
          "name": "",
          "type": "address"
        }
      ],
      "stateMutability": "view",
      "type": "function"
    },
    {
      "inputs": [
        {
          "internalType": "address",
          "name": "_token",
          "type": "address"
        },
        {
          "internalType": "address",
          "name": "_saloonWallet",
          "type": "address"
        },
        {
          "internalType": "address",
          "name": "_hunter",
          "type": "address"
        },
        {
          "internalType": "uint256",
          "name": "_amount",
          "type": "uint256"
        }
      ],
      "name": "payBounty",
      "outputs": [
        {
          "internalType": "bool",
          "name": "",
          "type": "bool"
        }
      ],
      "stateMutability": "nonpayable",
      "type": "function"
    },
    {
      "inputs": [],
      "name": "poolCap",
      "outputs": [
        {
          "internalType": "uint256",
          "name": "",
          "type": "uint256"
        }
      ],
      "stateMutability": "view",
      "type": "function"
    },
    {
      "inputs": [],
      "name": "poolCapTimelock",
      "outputs": [
        {
          "internalType": "uint256",
          "name": "timelock",
          "type": "uint256"
        },
        {
          "internalType": "uint256",
          "name": "amount",
          "type": "uint256"
        },
        {
          "internalType": "bool",
          "name": "executed",
          "type": "bool"
        }
      ],
      "stateMutability": "view",
      "type": "function"
    },
    {
      "inputs": [],
      "name": "premiumBalance",
      "outputs": [
        {
          "internalType": "uint256",
          "name": "",
          "type": "uint256"
        }
      ],
      "stateMutability": "view",
      "type": "function"
    },
    {
      "inputs": [],
      "name": "projectDeposit",
      "outputs": [
        {
          "internalType": "uint256",
          "name": "",
          "type": "uint256"
        }
      ],
      "stateMutability": "view",
      "type": "function"
    },
    {
      "inputs": [
        {
          "internalType": "address",
          "name": "_token",
          "type": "address"
        },
        {
          "internalType": "address",
          "name": "_projectWallet",
          "type": "address"
        },
        {
          "internalType": "uint256",
          "name": "_amount",
          "type": "uint256"
        }
      ],
      "name": "projectDepositWithdrawal",
      "outputs": [
        {
          "internalType": "bool",
          "name": "",
          "type": "bool"
        }
      ],
      "stateMutability": "nonpayable",
      "type": "function"
    },
    {
      "inputs": [],
      "name": "renounceOwnership",
      "outputs": [],
      "stateMutability": "nonpayable",
      "type": "function"
    },
    {
      "inputs": [],
      "name": "requiredPremiumBalancePerPeriod",
      "outputs": [
        {
          "internalType": "uint256",
          "name": "",
          "type": "uint256"
        }
      ],
      "stateMutability": "view",
      "type": "function"
    },
    {
      "inputs": [],
      "name": "saloonBountyCommission",
      "outputs": [
        {
          "internalType": "uint256",
          "name": "",
          "type": "uint256"
        }
      ],
      "stateMutability": "view",
      "type": "function"
    },
    {
      "inputs": [],
      "name": "saloonPremiumFees",
      "outputs": [
        {
          "internalType": "uint256",
          "name": "",
          "type": "uint256"
        }
      ],
      "stateMutability": "view",
      "type": "function"
    },
    {
      "inputs": [
        {
          "internalType": "uint256",
          "name": "_newAPY",
          "type": "uint256"
        }
      ],
      "name": "scheduleAPYChange",
      "outputs": [],
      "stateMutability": "nonpayable",
      "type": "function"
    },
    {
      "inputs": [
        {
          "internalType": "uint256",
          "name": "_newPoolCap",
          "type": "uint256"
        }
      ],
      "name": "schedulePoolCapChange",
      "outputs": [],
      "stateMutability": "nonpayable",
      "type": "function"
    },
    {
      "inputs": [
        {
          "internalType": "address",
          "name": "_staker",
          "type": "address"
        },
        {
          "internalType": "uint256",
          "name": "_amount",
          "type": "uint256"
        }
      ],
      "name": "scheduleUnstake",
      "outputs": [
        {
          "internalType": "bool",
          "name": "",
          "type": "bool"
        }
      ],
      "stateMutability": "nonpayable",
      "type": "function"
    },
    {
      "inputs": [
        {
          "internalType": "uint256",
          "name": "_amount",
          "type": "uint256"
        }
      ],
      "name": "scheduleprojectDepositWithdrawal",
      "outputs": [
        {
          "internalType": "bool",
          "name": "",
          "type": "bool"
        }
      ],
      "stateMutability": "nonpayable",
      "type": "function"
    },
    {
      "inputs": [
        {
          "internalType": "address",
          "name": "_token",
          "type": "address"
        },
        {
          "internalType": "address",
          "name": "_projectWallet",
          "type": "address"
        },
        {
          "internalType": "uint256",
          "name": "_desiredAPY",
          "type": "uint256"
        }
      ],
      "name": "setDesiredAPY",
      "outputs": [
        {
          "internalType": "bool",
          "name": "",
          "type": "bool"
        }
      ],
      "stateMutability": "nonpayable",
      "type": "function"
    },
    {
      "inputs": [
        {
          "internalType": "uint256",
          "name": "_amount",
          "type": "uint256"
        }
      ],
      "name": "setPoolCap",
      "outputs": [],
      "stateMutability": "nonpayable",
      "type": "function"
    },
    {
      "inputs": [
        {
          "internalType": "address",
          "name": "_token",
          "type": "address"
        },
        {
          "internalType": "address",
          "name": "_staker",
          "type": "address"
        },
        {
          "internalType": "uint256",
          "name": "_amount",
          "type": "uint256"
        }
      ],
      "name": "stake",
      "outputs": [
        {
          "internalType": "bool",
          "name": "",
          "type": "bool"
        }
      ],
      "stateMutability": "nonpayable",
      "type": "function"
    },
    {
      "inputs": [
        {
          "internalType": "address",
          "name": "",
          "type": "address"
        },
        {
          "internalType": "uint256",
          "name": "",
          "type": "uint256"
        }
      ],
      "name": "staker",
      "outputs": [
        {
          "internalType": "uint256",
          "name": "stakeBalance",
          "type": "uint256"
        },
        {
          "internalType": "uint256",
          "name": "balanceTimeStamp",
          "type": "uint256"
        }
      ],
      "stateMutability": "view",
      "type": "function"
    },
    {
      "inputs": [
        {
          "internalType": "uint256",
          "name": "",
          "type": "uint256"
        }
      ],
      "name": "stakerList",
      "outputs": [
        {
          "internalType": "address",
          "name": "",
          "type": "address"
        }
      ],
      "stateMutability": "view",
      "type": "function"
    },
    {
      "inputs": [
        {
          "internalType": "address",
          "name": "",
          "type": "address"
        }
      ],
      "name": "stakerTimelock",
      "outputs": [
        {
          "internalType": "uint256",
          "name": "timelock",
          "type": "uint256"
        },
        {
          "internalType": "uint256",
          "name": "amount",
          "type": "uint256"
        },
        {
          "internalType": "bool",
          "name": "executed",
          "type": "bool"
        }
      ],
      "stateMutability": "view",
      "type": "function"
    },
    {
      "inputs": [
        {
          "internalType": "uint256",
          "name": "",
          "type": "uint256"
        }
      ],
      "name": "stakersDeposit",
      "outputs": [
        {
          "internalType": "uint256",
          "name": "stakeBalance",
          "type": "uint256"
        },
        {
          "internalType": "uint256",
          "name": "balanceTimeStamp",
          "type": "uint256"
        }
      ],
      "stateMutability": "view",
      "type": "function"
    },
    {
      "inputs": [],
      "name": "stakingPause",
      "outputs": [
        {
          "internalType": "uint256",
          "name": "",
          "type": "uint256"
        }
      ],
      "stateMutability": "view",
      "type": "function"
    },
    {
      "inputs": [
        {
          "internalType": "address",
          "name": "newOwner",
          "type": "address"
        }
      ],
      "name": "transferOwnership",
      "outputs": [],
      "stateMutability": "nonpayable",
      "type": "function"
    },
    {
      "inputs": [
        {
          "internalType": "address",
          "name": "_token",
          "type": "address"
        },
        {
          "internalType": "address",
          "name": "_staker",
          "type": "address"
        },
        {
          "internalType": "uint256",
          "name": "_amount",
          "type": "uint256"
        }
      ],
      "name": "unstake",
      "outputs": [
        {
          "internalType": "bool",
          "name": "",
          "type": "bool"
        }
      ],
      "stateMutability": "nonpayable",
      "type": "function"
    },
    {
      "inputs": [],
      "name": "viewBountyBalance",
      "outputs": [
        {
          "internalType": "uint256",
          "name": "",
          "type": "uint256"
        }
      ],
      "stateMutability": "view",
      "type": "function"
    },
    {
      "inputs": [],
      "name": "viewDesiredAPY",
      "outputs": [
        {
          "internalType": "uint256",
          "name": "",
          "type": "uint256"
        }
      ],
      "stateMutability": "view",
      "type": "function"
    },
    {
      "inputs": [],
      "name": "viewHackerPayout",
      "outputs": [
        {
          "internalType": "uint256",
          "name": "",
          "type": "uint256"
        }
      ],
      "stateMutability": "view",
      "type": "function"
    },
    {
      "inputs": [],
      "name": "viewPoolCap",
      "outputs": [
        {
          "internalType": "uint256",
          "name": "",
          "type": "uint256"
        }
      ],
      "stateMutability": "view",
      "type": "function"
    },
    {
      "inputs": [],
      "name": "viewPremiumBalance",
      "outputs": [
        {
          "internalType": "uint256",
          "name": "",
          "type": "uint256"
        }
      ],
      "stateMutability": "view",
      "type": "function"
    },
    {
      "inputs": [],
      "name": "viewProjecDeposit",
      "outputs": [
        {
          "internalType": "uint256",
          "name": "",
          "type": "uint256"
        }
      ],
      "stateMutability": "view",
      "type": "function"
    },
    {
      "inputs": [],
      "name": "viewRequirePremiumBalance",
      "outputs": [
        {
          "internalType": "uint256",
          "name": "",
          "type": "uint256"
        }
      ],
      "stateMutability": "view",
      "type": "function"
    },
    {
      "inputs": [],
      "name": "viewStakersDeposit",
      "outputs": [
        {
          "internalType": "uint256",
          "name": "",
          "type": "uint256"
        }
      ],
      "stateMutability": "view",
      "type": "function"
    },
    {
      "inputs": [
        {
          "internalType": "address",
          "name": "_staker",
          "type": "address"
        }
      ],
      "name": "viewUserStakingBalance",
      "outputs": [
        {
          "internalType": "uint256",
          "name": "",
          "type": "uint256"
        },
        {
          "internalType": "uint256",
          "name": "",
          "type": "uint256"
        }
      ],
      "stateMutability": "view",
      "type": "function"
    },
    {
      "inputs": [
        {
          "internalType": "address",
          "name": "_staker",
          "type": "address"
        }
      ],
      "name": "viewUserTimelock",
      "outputs": [
        {
          "internalType": "uint256",
          "name": "timelock",
          "type": "uint256"
        },
        {
          "internalType": "uint256",
          "name": "amount",
          "type": "uint256"
        },
        {
          "internalType": "bool",
          "name": "executed",
          "type": "bool"
        }
      ],
      "stateMutability": "view",
      "type": "function"
    },
    {
      "inputs": [],
      "name": "viewcurrentAPY",
      "outputs": [
        {
          "internalType": "uint256",
          "name": "",
          "type": "uint256"
        }
      ],
      "stateMutability": "view",
      "type": "function"
    },
    {
      "inputs": [],
      "name": "withdrawalTimelock",
      "outputs": [
        {
          "internalType": "uint256",
          "name": "timelock",
          "type": "uint256"
        },
        {
          "internalType": "uint256",
          "name": "amount",
          "type": "uint256"
        },
        {
          "internalType": "bool",
          "name": "executed",
          "type": "bool"
        }
      ],
      "stateMutability": "view",
      "type": "function"
    }
  ],
  "bytecode": {
    "object": "0x60806040523480156200001157600080fd5b506200001d3362000023565b62000073565b600080546001600160a01b038381166001600160a01b0319831681178455604051919092169283917f8be0079c531659141344cd1fd0a4f28419497f9722a3daafe3b4186f6b6457e09190a35050565b613c3980620000836000396000f3fe608060405234801561001057600080fd5b50600436106103785760003560e01c8063769966e8116101d3578063bb86278511610104578063d5cb8669116100a2578063e45080e61161007c578063e45080e614610743578063f2fde38b1461074b578063ff45d4c01461075e578063ffa1ad741461076657600080fd5b8063d5cb866914610715578063d835f5351461071d578063ddaaae031461073057600080fd5b8063c9e66d41116100de578063c9e66d41146106b2578063cc12c311146106e7578063d084b03a146106fa578063d26c90a91461070257600080fd5b8063bb862785146106b2578063bf6eac2f146106c1578063c790ef82146106d457600080fd5b8063918f867411610171578063a4bf70bd1161014b578063a4bf70bd1461068e578063aaf5eb6814610697578063b4d1d7951461069f578063b954dc57146106a957600080fd5b8063918f8674146106585780639e4bfaa514610668578063a194c3b61461067b57600080fd5b806383914540116101ad578063839145401461062057806384dc10b41461062b5780638aa82e82146106345780638da5cb5b1461064757600080fd5b8063769966e8146105d157806378eb46fd1461060357806380d440ff1461060b57600080fd5b806344ebc03d116102ad5780635121ac9d1161024b578063715018a611610225578063715018a614610598578063728ecaf8146105a057806372d26951146105b557806373927c11146105be57600080fd5b80635121ac9d1461056957806355455df21461057c57806360829f8a1461058557600080fd5b80634b5df6cc116102875780634b5df6cc146105255780634b8e0d37146105385780634c3bdee01461054d578063503cb9171461055657600080fd5b806344ebc03d14610501578063481c6a751461050a5780634a94bcb31461051d57600080fd5b80633065f4501161031a578063383639b3116102f4578063383639b3146104d05780633a5b0172146104d85780633d850fb2146104e5578063419b7bd7146104ee57600080fd5b80633065f4501461045a5780633147096d14610482578063348e50c6146104a557600080fd5b80631a89cabd116103565780631a89cabd146103c15780631e27970f146103e957806320d830861461041b5780632d7807a91461042357600080fd5b8063013eba921461037d5780631104ec25146103b057806316e17b8d146103b9575b600080fd5b61039d61038b36600461388b565b600b6020526000908152604090205481565b6040519081526020015b60405180910390f35b61039d60075481565b61039d61076e565b6103d46103cf36600461388b565b610826565b604080519283526020830191909152016103a7565b6014546015546016546103fe92919060ff1683565b6040805193845260208401929092521515908201526060016103a7565b60045461039d565b6103fe61043136600461388b565b6001600160a01b03166000908152600d6020526040902080546002909101549091829160ff1690565b61046d6104683660046138a6565b6108e5565b604080519283529015156020830152016103a7565b6104956104903660046138e9565b610ac5565b60405190151581526020016103a7565b6104b86104b3366004613925565b610b41565b6040516001600160a01b0390911681526020016103a7565b60085461039d565b601d546104959060ff1681565b61039d60035481565b6104956104fc3660046138e9565b610b6b565b61039d60045481565b6001546104b8906001600160a01b031681565b61039d610c50565b610495610533366004613925565b610d4a565b61054b61054636600461388b565b610d9f565b005b61039d60095481565b61054b610564366004613925565b610edf565b61039d61057736600461393e565b610f28565b61039d600a5481565b6104956105933660046138e9565b610f7b565b61054b6113c4565b6011546012546013546103fe92919060ff1683565b61039d60085481565b6104956105cc366004613971565b6113d8565b6103fe6105df36600461388b565b600d6020526000908152604090208054600182015460029092015490919060ff1683565b60055461039d565b600e54600f546010546103fe92919060ff1683565b61039d6301e1338081565b61039d60055481565b61049561064236600461393e565b6119c9565b6000546001600160a01b03166104b8565b61039d68056bc75e2d6310000081565b6103d46106763660046139bc565b611d0f565b6103d4610689366004613925565b611d4b565b61039d60025481565b61039d606481565b61039d6212750081565b61039d60065481565b61039d678ac7230489e8000081565b6104956106cf3660046138e9565b611d79565b6104956106e23660046139bc565b61225e565b6104956106f53660046138e9565b6123c9565b60095461039d565b61054b610710366004613925565b612808565b61039d612851565b61054b61072b366004613925565b612870565b6103d461073e366004613925565b612925565b61039d612935565b61054b61075936600461388b565b6129f9565b60065461039d565b61039d600181565b6000806019805480602002602001604051908101604052809291908181526020016000905b828210156107d957838290600052602060002090600202016040518060400160405290816000820154815260200160018201548152505081526020019060010190610793565b505082519293505050806107f05760009250505090565b60196107fd6001836139fc565b8154811061080d5761080d613a13565b9060005260206000209060020201600001549250505090565b6001600160a01b0381166000908152600c60205260408120548190806108525750600093849350915050565b6001600160a01b0384166000908152600c602052604090206108756001836139fc565b8154811061088557610885613a13565b600091825260208083206002909202909101546001600160a01b0387168352600c90915260409091206108b96001846139fc565b815481106108c9576108c9613a13565b9060005260206000209060020201600101549250925050915091565b60015460009081906001600160a01b0316331461091d5760405162461bcd60e51b815260040161091490613a29565b60405180910390fd5b6001600160a01b0384166000908152600b6020908152604080832054600c83528184208054835181860281018601909452808452919493909190849084015b828210156109a25783829060005260206000209060020201604051806040016040529081600082015481526020016001820154815250508152602001906001019061095c565b50508251600454939450929150600090506109be858585612a72565b9050600068056bc75e2d631000006109de678ac7230489e8000084613a57565b6109e89190613a76565b90506109f481836139fc565b91508180841015610a0b57610a098c8b6119c9565b505b60405163a9059cbb60e01b81526001600160a01b038c81166004830152602482018390528d169063a9059cbb906044016020604051808303816000875af1158015610a5a573d6000803e3d6000fd5b505050506040513d601f19601f82011682018060405250810190610a7e9190613a98565b508260046000828254610a9191906139fc565b90915550506001600160a01b038b166000908152600b60205260409020429055975060019650505050505050935093915050565b6001546000906001600160a01b03163314610af25760405162461bcd60e51b815260040161091490613a29565b610b076001600160a01b038516843085612afb565b50600854610b2057610b1c6212750042613aba565b600a555b8160086000828254610b329190613aba565b90915550600195945050505050565b60178181548110610b5157600080fd5b6000918252602090912001546001600160a01b0316905081565b6001546000906001600160a01b03163314610b985760405162461bcd60e51b815260040161091490613a29565b60408051606081018252601454808252601554602083015260165460ff161515928201929092529042118015610bd057506040810151155b8015610be0575082816020015110155b8015610bec5750805115155b610c085760405162461bcd60e51b815260040161091490613ad2565b6016805460ff1916600117905560088054849190600090610c2a9084906139fc565b90915550610c4490506001600160a01b0386168585612b74565b50600195945050505050565b6000806019805480602002602001604051908101604052809291908181526020016000905b82821015610cbb57838290600052602060002090600202016040518060400160405290816000820154815260200160018201548152505081526020019060010190610c75565b50508251929350600091505081610cd55750600854610d0d565b82610ce16001846139fc565b81518110610cf157610cf1613a13565b602002602001015160000151600854610d0a9190613aba565b90505b600068056bc75e2d63100000610d2b678ac7230489e8000084613a57565b610d359190613a76565b9050610d4181836139fc565b94505050505090565b6001546000906001600160a01b03163314610d775760405162461bcd60e51b815260040161091490613a29565b610d846212750042613aba565b6014555060158190556016805460ff1916905560015b919050565b600054600160a81b900460ff1615808015610dc757506000546001600160a01b90910460ff16105b80610de85750303b158015610de85750600054600160a01b900460ff166001145b610e4b5760405162461bcd60e51b815260206004820152602e60248201527f496e697469616c697a61626c653a20636f6e747261637420697320616c72656160448201526d191e481a5b9a5d1a585b1a5e995960921b6064820152608401610914565b6000805460ff60a01b1916600160a01b1790558015610e78576000805460ff60a81b1916600160a81b1790555b600180546001600160a01b0319166001600160a01b0384161790558015610edb576000805460ff60a81b19169055604051600181527f7f26b83ff96e1f2b6a682f133852f6798a09c465da95921460cefb38474024989060200160405180910390a15b5050565b6001546001600160a01b03163314610f095760405162461bcd60e51b815260040161091490613a29565b610f166212750042613aba565b6011556012556013805460ff19169055565b6001546000906001600160a01b03163314610f555760405162461bcd60e51b815260040161091490613a29565b600354610f6c6001600160a01b0385168483612b74565b50600060035590505b92915050565b6001546000906001600160a01b03163314610fa85760405162461bcd60e51b815260040161091490613a29565b60055415611067576001600160a01b0383166000908152600d60209081526040918290208251606081018452815480825260018301549382019390935260029091015460ff161515928101929092524211801561100757506040810151155b8015611017575082816020015110155b80156110235750805115155b61103f5760405162461bcd60e51b815260040161091490613ad2565b506001600160a01b0383166000908152600d60205260409020600201805460ff191660011790555b6001600160a01b0383166000908152600c602052604081205461108c906001906139fc565b90506110ab604051806040016040528060008152602001600081525090565b426020808301919091526001600160a01b0386166000908152600c909152604090208054859190849081106110e2576110e2613a13565b9060005260206000209060020201600001546110fe91906139fc565b815260178054604080516020808402820181019092528281526000939092909183018282801561115757602002820191906000526020600020905b81546001600160a01b03168152600190910190602001808311611139575b5050505050905081600001516000141561125957805160005b8181101561125657876001600160a01b031683828151811061119457611194613a13565b60200260200101516001600160a01b0316141561124e576000836111b96001856139fc565b815181106111c9576111c9613a13565b6020026020010151905080601783815481106111e7576111e7613a13565b9060005260206000200160006101000a8154816001600160a01b0302191690836001600160a01b03160217905550601780548061122657611226613b13565b600082815260209020810160001990810180546001600160a01b031916905501905550611256565b600101611170565b50505b6001600160a01b0386166000908152600c60209081526040808320805460018181018355918552838520875160029092020190815586840151910155601980548251818502810185019093528083529192909190849084015b828210156112f8578382906000526020600020906002020160405180604001604052908160008201548152602001600182015481525050815260200190600101906112b2565b50505050905060006001825161130e91906139fc565b905061132d604051806040016040528060008152602001600081525090565b8783838151811061134057611340613a13565b60200260200101516000015161135691906139fc565b81524260208201908152601980546001810182556000919091528251600080516020613be48339815191526002909202918201559051600080516020613bc4833981519152909101556113b36001600160a01b038b168a8a612b74565b5060019a9950505050505050505050565b6113cc612bb1565b6113d66000612c0b565b565b6001546000906001600160a01b031633146114055760405162461bcd60e51b815260040161091490613a29565b60006019805480602002602001604051908101604052809291908181526020016000905b8282101561146f57838290600052602060002090600202016040518060400160405290816000820154815260200160018201548152505081526020019060010190611429565b50505050905060006001825161148591906139fc565b9050600060178054806020026020016040519081016040528092919081815260200182805480156114df57602002820191906000526020600020905b81546001600160a01b031681526001909101906020018083116114c1575b50505050509050600081519050858484815181106114ff576114ff613a13565b6020026020010151600001511061185f578584848151811061152357611523613a13565b602002602001015160000181815161153b91906139fc565b9052506040805180820190915260008152426020820152845185908590811061156657611566613a13565b6020908102919091010151518152845185908590811061158857611588613a13565b602002602001015160000151600014156116925760005b828110156116295760408051808201909152600080825242602083015285518690849081106115d0576115d0613a13565b6020908102919091018101516001600160a01b03166000908152600c82526040812080546001818101835591835291839020855160029093020191825593909101519201919091555061162281613b29565b905061159f565b506116368a898b8a612c5b565b506019805460018101825560009182528251600080516020613be48339815191526002909202918201556020830151600080516020613bc48339815191529091015561168490601790613842565b6001955050505050506119c1565b60008585815181106116a6576116a6613a13565b6020026020010151600001516064896116bf9190613a57565b6116c99190613a76565b905060005b838110156118005760008582815181106116ea576116ea613a13565b6020908102919091018101516001600160a01b0381166000908152600c909252604082205490925061171e906001906139fc565b6001600160a01b0383166000908152600c60205260408120805492935090918390811061174d5761174d613a13565b906000526020600020906002020160000154905061177e604051806040016040528060008152602001600081525090565b42602082015268056bc75e2d631000006117988784613a57565b6117a29190613a76565b6117ac90836139fc565b81526001600160a01b039093166000908152600c602090815260408220805460018181018355918452928290208651600290940201928355940151930192909255506117f9905081613b29565b90506116ce565b50601980546001810182556000919091528251600080516020613be48339815191526002909202918201556020830151600080516020613bc48339815191529091015561184f8b8a8c8b612c5b565b50600196505050505050506119c1565b60005b818110156118ec57604080518082019091526000808252426020830152845185908490811061189357611893613a13565b6020908102919091018101516001600160a01b03166000908152600c8252604081208054600181810183559183529183902085516002909302019182559390910151920191909155506118e581613b29565b9050611862565b506118f960176000613842565b600084848151811061190d5761190d613a13565b6020026020010151600001518761192491906139fc565b9050806008600082825461193891906139fc565b90915550506040805180820190915260008152426020820152855186908690811061196557611965613a13565b602090810291909101810151518252601980546001810182556000919091528251600080516020613be483398151915260029092029182015590820151600080516020613bc48339815191529091015561184f8b8a8c8b612c5b565b949350505050565b6001546000906001600160a01b03163314806119e457503330145b611a305760405162461bcd60e51b815260206004820152601c60248201527f4f6e6c79206d616e61676572206f722073656c6620616c6c6f776564000000006044820152606401610914565b60006019805480602002602001604051908101604052809291908181526020016000905b82821015611a9a57838290600052602060002090600202016040518060400160405290816000820154815260200160018201548152505081526020019060010190611a54565b50508251600754600554949550909390925090506000611abc82858588612ccb565b6040516323b872dd60e01b81526001600160a01b03898116600483015230602483015260448201839052919250908916906323b872dd906064016020604051808303816000875af1925050508015611b31575060408051601f3d908101601f19168201909252611b2e91810190613a98565b60015b611be3576040805180820190915260006020820152428152611b51612851565b6020820190815260188054600181018255600091825283517fb13d2d76d1f4b7be834882e410b3e3a8afaf69f83600ae24db354391d2378d2e60029092029182015591517fb13d2d76d1f4b7be834882e410b3e3a8afaf69f83600ae24db354391d2378d2f90920191909155611bc5612851565b9050611bd28a8a836123c9565b506000975050505050505050610f75565b80611c97576040805180820190915260006020820152428152611c04612851565b6020820190815260188054600181018255600091825283517fb13d2d76d1f4b7be834882e410b3e3a8afaf69f83600ae24db354391d2378d2e60029092029182015591517fb13d2d76d1f4b7be834882e410b3e3a8afaf69f83600ae24db354391d2378d2f90920191909155611c78612851565b9050611c858b8b836123c9565b50600098505050505050505050610f75565b50600068056bc75e2d63100000611cb6678ac7230489e8000084613a57565b611cc09190613a76565b90508060036000828254611cd49190613aba565b925050819055508160046000828254611ced9190613aba565b9091555050426007555050601d805460ff191690555060019695505050505050565b600c6020528160005260406000208181548110611d2b57600080fd5b600091825260209091206002909102018054600190910154909250905082565b60198181548110611d5b57600080fd5b60009182526020909120600290910201805460019091015490915082565b6001546000906001600160a01b03163314611da65760405162461bcd60e51b815260040161091490613a29565b42600a5410611df75760405162461bcd60e51b815260206004820152601960248201527f5374616b696e67206e6f74206f70656e206a75737420796574000000000000006044820152606401610914565b60006019805480602002602001604051908101604052809291908181526020016000905b82821015611e6157838290600052602060002090600202016040518060400160405290816000820154815260200160018201548152505081526020019060010190611e1b565b50508251929350505080611ec157604080518082019091526000808252602082018181526019805460018101825592529151600080516020613be48339815191526002909202918201559051600080516020613bc4833981519152909101555b601954600090611ed3906001906139fc565b90506006548560198381548110611eec57611eec613a13565b906000526020600020906002020160000154611f089190613aba565b1115611f565760405162461bcd60e51b815260206004820152601960248201527f5374616b696e6720506f6f6c20616c72656164792066756c6c000000000000006044820152606401610914565b6001600160a01b0386166000908152600c602052604090205480611fc057604080518082018252600080825260208083018281526001600160a01b038c168352600c8252938220805460018082018355918452919092209251600290910290920191825591519101555b6001600160a01b0387166000908152600c6020526040812054611fe5906001906139fc565b6001600160a01b0389166000908152600c602052604090208054919250908290811061201357612013613a13565b9060005260206000209060020201600001546000141561207957601780546001810182556000919091527fc624b66cc0138b8fabc209247f72d758e1cf3343756d543badbf24212bed8c150180546001600160a01b0319166001600160a01b038a161790555b6040805180820182526000808252426020808401919091526001600160a01b038c168252600c9052919091208054899190849081106120ba576120ba613a13565b9060005260206000209060020201600001546120d69190613aba565b81528261212e576001600160a01b0389166000908152600c6020526040902080548291908490811061210a5761210a613a13565b6000918252602091829020835160029092020190815591015160019091015561216b565b6001600160a01b0389166000908152600c602090815260408220805460018181018355918452928290208451600290940201928355908301519101555b6040805180820190915260008082526020820152886019868154811061219357612193613a13565b9060005260206000209060020201600001546121af9190613aba565b8152426020820152856121f45780601986815481106121d0576121d0613a13565b60009182526020918290208351600290920201908155910151600190910155612237565b601980546001810182556000919091528151600080516020613be48339815191526002909202918201556020820151600080516020613bc4833981519152909101555b61224c6001600160a01b038c168b308c612afb565b5060019b9a5050505050505050505050565b6001546000906001600160a01b0316331461228b5760405162461bcd60e51b815260040161091490613a29565b6001600160a01b0383166000908152600c6020908152604080832080548251818502810185019093528083529192909190849084015b82821015612307578382906000526020600020906002020160405180604001604052908160008201548152602001600182015481525050815260200190600101906122c1565b50505050905060006001825161231d91906139fc565b90508382828151811061233257612332613a13565b60200260200101516000015110156123835760405162461bcd60e51b8152602060048201526014602482015273496e73756669636369656e742062616c616e636560601b6044820152606401610914565b6123906212750042613aba565b6001600160a01b03959095166000908152600d602052604090209485555050506001808301919091556002909101805460ff1916905590565b6001546000906001600160a01b03163314806123e457503330145b6124305760405162461bcd60e51b815260206004820152601c60248201527f4f6e6c79206d616e61676572206f722073656c6620616c6c6f776564000000006044820152606401610914565b600554156124b65760408051606081018252601154808252601254602083015260135460ff16151592820192909252904211801561247057506040810151155b801561247f5750828160200151145b801561248b5750805115155b6124a75760405162461bcd60e51b815260040161091490613ad2565b506013805460ff191660011790555b600060045490506000806019805480602002602001604051908101604052809291908181526020016000905b82821015612528578382906000526020600020906002020160405180604001604052908160008201548152602001600182015481525050815260200190600101906124e2565b50508251929350508115905061257857816125446001836139fc565b8151811061255457612554613a13565b6020026020010151600001516000146125735761257188886119c9565b505b6125fe565b621275006301e1338068056bc75e2d63100000886006546125999190613a57565b6125a39190613a76565b6125ad9190613a76565b6125b79190613a57565b9250828410156125fe5760006125cd85856139fc565b90506125e46001600160a01b038a16893084612afb565b5080600460008282546125f79190613aba565b9091555050505b6009839055604080518082018252428152602080820189815260188054600181018255600091825284517fb13d2d76d1f4b7be834882e410b3e3a8afaf69f83600ae24db354391d2378d2e60029092029182015591517fb13d2d76d1f4b7be834882e410b3e3a8afaf69f83600ae24db354391d2378d2f9092019190915560058a9055601780548551818502810185019096528086529394919391929091908301828280156126d657602002820191906000526020600020905b81546001600160a01b031681526001909101906020018083116126b8575b505050505090506000815111156127ee576000600182516126f791906139fc565b905060005b818110156127eb57600083828151811061271857612718613a13565b6020908102919091018101516001600160a01b0381166000908152600c909252604082205490925061274c906001906139fc565b905061276b604051806040016040528060008152602001600081525090565b6001600160a01b0383166000908152600c6020526040902080548390811061279557612795613a13565b60009182526020808320600292830201548452428482019081526001600160a01b039096168352600c815260408320805460018181018355918552919093209351910290920191825592519083015550016126fc565b50505b5050601d805460ff19169055506001979650505050505050565b6001546001600160a01b031633146128325760405162461bcd60e51b815260040161091490613a29565b61283f6212750042613aba565b600e55600f556010805460ff19169055565b60008060065460646004546128669190613a57565b610f759190613a76565b6001546001600160a01b0316331461289a5760405162461bcd60e51b815260040161091490613a29565b600654156129205760408051606081018252600e54808252600f54602083015260105460ff1615159282019290925290421180156128da57506040810151155b80156128e95750818160200151145b80156128f55750805115155b6129115760405162461bcd60e51b815260040161091490613ad2565b506010805460ff191660011790555b600655565b60188181548110611d5b57600080fd5b6000806019805480602002602001604051908101604052809291908181526020016000905b828210156129a05783829060005260206000209060020201604051806040016040529081600082015481526020016001820154815250508152602001906001019061295a565b505082519293506000915050816129ba57506008546129f2565b826129c66001846139fc565b815181106129d6576129d6613a13565b6020026020010151600001516008546129ef9190613aba565b90505b9392505050565b612a01612bb1565b6001600160a01b038116612a665760405162461bcd60e51b815260206004820152602660248201527f4f776e61626c653a206e6577206f776e657220697320746865207a65726f206160448201526564647265737360d01b6064820152608401610914565b612a6f81612c0b565b50565b6000806018805480602002602001604051908101604052809291908181526020016000905b82821015612add57838290600052602060002090600202016040518060400160405290816000820154815260200160018201548152505081526020019060010190612a97565b5050505090506000612af1868686856130b7565b9695505050505050565b6040516001600160a01b0380851660248301528316604482015260648101829052600090612b699086906323b872dd60e01b906084015b60408051601f198184030181529190526020810180516001600160e01b03166001600160e01b0319909316929092179091526133b3565b506001949350505050565b6040516001600160a01b038316602482015260448101829052600090612ba790859063a9059cbb60e01b90606401612b32565b5060019392505050565b6000546001600160a01b031633146113d65760405162461bcd60e51b815260206004820181905260248201527f4f776e61626c653a2063616c6c6572206973206e6f7420746865206f776e65726044820152606401610914565b600080546001600160a01b038381166001600160a01b0319831681178455604051919092169283917f8be0079c531659141344cd1fd0a4f28419497f9722a3daafe3b4186f6b6457e09190a35050565b60008068056bc75e2d63100000612c7a678ac7230489e8000085613a57565b612c849190613a76565b90506000612c9282856139fc565b9050612ca86001600160a01b0388168783612b74565b50612cbd6001600160a01b0388168684612b74565b506001979650505050505050565b60008060005b85811015612d445784848281518110612cec57612cec613a13565b6020026020010151602001511115612d3457601b80546001810182556000919091527f3ad8aa4f87544323a9d1e5dd902f40c356527a7955687113db5f9a85ad579dc1018190555b612d3d81613b29565b9050612cd1565b506000601b805480602002602001604051908101604052809291908181526020018280548015612d9357602002820191906000526020600020905b815481526020019060010190808311612d7f575b505083519394506000925050505b8181101561309e57600087612e8f57612dbb6001846139fc565b821415612e0b5786848381518110612dd557612dd5613a13565b602002602001015181518110612ded57612ded613a13565b60200260200101516020015142612e0491906139fc565b9050613010565b86848381518110612e1e57612e1e613a13565b602002602001015181518110612e3657612e36613a13565b6020026020010151602001518785846001612e519190613aba565b81518110612e6157612e61613a13565b602002602001015181518110612e7957612e79613a13565b602002602001015160200151612e0491906139fc565b81612f645786848381518110612ea757612ea7613a13565b602002602001015181518110612ebf57612ebf613a13565b6020026020010151602001518785846001612eda9190613aba565b81518110612eea57612eea613a13565b602002602001015181518110612f0257612f02613a13565b602002602001015160200151612f1891906139fc565b87858481518110612f2b57612f2b613a13565b602002602001015181518110612f4357612f43613a13565b60200260200101516020015189612f5a91906139fc565b612e049190613aba565b612f6f6001846139fc565b821415612f895786848381518110612dd557612dd5613a13565b86848381518110612f9c57612f9c613a13565b602002602001015181518110612fb457612fb4613a13565b6020026020010151602001518785846001612fcf9190613aba565b81518110612fdf57612fdf613a13565b602002602001015181518110612ff757612ff7613a13565b60200260200101516020015161300d91906139fc565b90505b806301e1338068056bc75e2d631000008c8a88878151811061303457613034613a13565b60200260200101518151811061304c5761304c613a13565b6020026020010151600001516130629190613a57565b61306c9190613a76565b6130769190613a76565b6130809190613a57565b61308a9086613aba565b9450508061309790613b29565b9050612da1565b506130ab601b6000613842565b50909695505050505050565b8051600090818080886131895760005b84811015613183578681815181106130e1576130e1613a13565b60200260200101516000015192506001856130fc91906139fc565b81141561310b57429150613136565b86613117826001613aba565b8151811061312757613127613a13565b60200260200101516000015191505b600087828151811061314a5761314a613a13565b60200260200101516020015190506131658185858d8d61348a565b61316f9086613aba565b9450508061317c90613b29565b90506130c7565b506133a6565b60005b8481101561323257898782815181106131a7576131a7613a13565b602002602001015160000151111561322257601a6131c66001836139fc565b8154600181810184556000938452602090932001556131e590866139fc565b81141561322257601a80546001810182556000919091527f057c384a7d1c54f3a1b2e5e67b2617b8224fdfd1ea7234eea573a6ff665ff63e018190555b61322b81613b29565b905061318c565b506000601a80548060200260200160405190810160405280929190818152602001828054801561328157602002820191906000526020600020905b81548152602001906001019080831161326d575b505083519394506000925050505b818110156133a257806132a4578b94506132de565b888382815181106132b7576132b7613a13565b6020026020010151815181106132cf576132cf613a13565b60200260200101516000015194505b6132e96001886139fc565b8114156132f85742935061333c565b8883613305836001613aba565b8151811061331557613315613a13565b60200260200101518151811061332d5761332d613a13565b60200260200101516000015193505b60008984838151811061335157613351613a13565b60200260200101518151811061336957613369613a13565b60200260200101516020015190506133848187878f8f61348a565b61338e9088613aba565b9650508061339b90613b29565b905061328f565b5050505b5090979650505050505050565b6000613408826040518060400160405280602081526020017f5361666545524332303a206c6f772d6c6576656c2063616c6c206661696c6564815250856001600160a01b03166137229092919063ffffffff16565b80519091501561348557808060200190518101906134269190613a98565b6134855760405162461bcd60e51b815260206004820152602a60248201527f5361666545524332303a204552433230206f7065726174696f6e20646964206e6044820152691bdd081cdd58d8d9595960b21b6064820152608401610914565b505050565b6000806000805b8481101561352d57878682815181106134ac576134ac613a13565b602002602001015160200151101580156134e25750868682815181106134d4576134d4613a13565b602002602001015160200151105b1561351d57601c80546001810182556000919091527f0e4562a10381dec21b205ed72637e6b1b523bdd0e4d4d50af5cd23dd4500a211018190555b61352681613b29565b9050613491565b506000601c80548060200260200160405190810160405280929190818152602001828054801561357c57602002820191906000526020600020905b815481526020019060010190808311613568575b505083519394506000925050505b818110156137065761359d6001836139fc565b8114156135ed57878382815181106135b7576135b7613a13565b6020026020010151815181106135cf576135cf613a13565b602002602001015160200151896135e691906139fc565b9350613674565b8783828151811061360057613600613a13565b60200260200101518151811061361857613618613a13565b60200260200101516020015188848360016136339190613aba565b8151811061364357613643613a13565b60200260200101518151811061365b5761365b613a13565b60200260200101516020015161367191906139fc565b93505b6000846301e1338068056bc75e2d631000008e8c88878151811061369a5761369a613a13565b6020026020010151815181106136b2576136b2613a13565b6020026020010151600001516136c89190613a57565b6136d29190613a76565b6136dc9190613a76565b6136e69190613a57565b90506136f28187613aba565b955050806136ff90613b29565b905061358a565b505050601c60006137179190613842565b509695505050505050565b60606129ef848460008585600080866001600160a01b031685876040516137499190613b74565b60006040518083038185875af1925050503d8060008114613786576040519150601f19603f3d011682016040523d82523d6000602084013e61378b565b606091505b509150915061379c878383876137a7565b979650505050505050565b6060831561381357825161380c576001600160a01b0385163b61380c5760405162461bcd60e51b815260206004820152601d60248201527f416464726573733a2063616c6c20746f206e6f6e2d636f6e74726163740000006044820152606401610914565b50816119c1565b6119c183838151156138285781518083602001fd5b8060405162461bcd60e51b81526004016109149190613b90565b5080546000825590600052602060002090810190612a6f91905b80821115613870576000815560010161385c565b5090565b80356001600160a01b0381168114610d9a57600080fd5b60006020828403121561389d57600080fd5b6129f282613874565b6000806000606084860312156138bb57600080fd5b6138c484613874565b92506138d260208501613874565b91506138e060408501613874565b90509250925092565b6000806000606084860312156138fe57600080fd5b61390784613874565b925061391560208501613874565b9150604084013590509250925092565b60006020828403121561393757600080fd5b5035919050565b6000806040838503121561395157600080fd5b61395a83613874565b915061396860208401613874565b90509250929050565b6000806000806080858703121561398757600080fd5b61399085613874565b935061399e60208601613874565b92506139ac60408601613874565b9396929550929360600135925050565b600080604083850312156139cf57600080fd5b6139d883613874565b946020939093013593505050565b634e487b7160e01b600052601160045260246000fd5b600082821015613a0e57613a0e6139e6565b500390565b634e487b7160e01b600052603260045260246000fd5b60208082526014908201527313db9b1e481b585b9859d95c88185b1b1bddd95960621b604082015260600190565b6000816000190483118215151615613a7157613a716139e6565b500290565b600082613a9357634e487b7160e01b600052601260045260246000fd5b500490565b600060208284031215613aaa57600080fd5b815180151581146129f257600080fd5b60008219821115613acd57613acd6139e6565b500190565b60208082526021908201527f54696d656c6f636b206e6f7420736574206f72206e6f7420636f6d706c6574656040820152601960fa1b606082015260800190565b634e487b7160e01b600052603160045260246000fd5b6000600019821415613b3d57613b3d6139e6565b5060010190565b60005b83811015613b5f578181015183820152602001613b47565b83811115613b6e576000848401525b50505050565b60008251613b86818460208701613b44565b9190910192915050565b6020815260008251806020840152613baf816040850160208701613b44565b601f01601f1916919091016040019291505056fe944998273e477b495144fb8794c914197f3ccb46be2900f4698fd0ef743c9696944998273e477b495144fb8794c914197f3ccb46be2900f4698fd0ef743c9695a264697066735822122021b5f8edd678a7e9c3841fd6e2beadabdf7c1d82012db5b70c6f6a25291a047364736f6c634300080a0033",
    "linkReferences": {}
  },
  "methodIdentifiers": {
    "APYTimelock()": "728ecaf8",
    "APYdropped()": "3a5b0172",
    "APYrecords(uint256)": "ddaaae03",
    "BOUNTY_COMMISSION()": "c9e66d41",
    "DENOMINATOR()": "918f8674",
    "PERIOD()": "b4d1d795",
    "PRECISION()": "aaf5eb68",
    "PREMIUM_COMMISSION()": "bb862785",
    "VERSION()": "ffa1ad74",
    "YEAR()": "83914540",
    "billPremium(address,address)": "8aa82e82",
    "bountyDeposit(address,address,uint256)": "3147096d",
    "claimPremium(address,address,address)": "3065f450",
    "collectSaloonPremiumFees(address,address)": "5121ac9d",
    "desiredAPY()": "84dc10b4",
    "initializeImplementation(address)": "4b8e0d37",
    "lastClaimed(address)": "013eba92",
    "lastTimePaid()": "1104ec25",
    "manager()": "481c6a75",
    "owner()": "8da5cb5b",
    "payBounty(address,address,address,uint256)": "73927c11",
    "poolCap()": "b954dc57",
    "poolCapTimelock()": "80d440ff",
    "premiumBalance()": "44ebc03d",
    "projectDeposit()": "72d26951",
    "projectDepositWithdrawal(address,address,uint256)": "419b7bd7",
    "renounceOwnership()": "715018a6",
    "requiredPremiumBalancePerPeriod()": "4c3bdee0",
    "saloonBountyCommission()": "a4bf70bd",
    "saloonPremiumFees()": "3d850fb2",
    "scheduleAPYChange(uint256)": "503cb917",
    "schedulePoolCapChange(uint256)": "d26c90a9",
    "scheduleUnstake(address,uint256)": "c790ef82",
    "scheduleprojectDepositWithdrawal(uint256)": "4b5df6cc",
    "setDesiredAPY(address,address,uint256)": "cc12c311",
    "setPoolCap(uint256)": "d835f535",
    "stake(address,address,uint256)": "bf6eac2f",
    "staker(address,uint256)": "9e4bfaa5",
    "stakerList(uint256)": "348e50c6",
    "stakerTimelock(address)": "769966e8",
    "stakersDeposit(uint256)": "a194c3b6",
    "stakingPause()": "55455df2",
    "transferOwnership(address)": "f2fde38b",
    "unstake(address,address,uint256)": "60829f8a",
    "viewBountyBalance()": "e45080e6",
    "viewDesiredAPY()": "78eb46fd",
    "viewHackerPayout()": "4a94bcb3",
    "viewPoolCap()": "ff45d4c0",
    "viewPremiumBalance()": "20d83086",
    "viewProjecDeposit()": "383639b3",
    "viewRequirePremiumBalance()": "d084b03a",
    "viewStakersDeposit()": "16e17b8d",
    "viewUserStakingBalance(address)": "1a89cabd",
    "viewUserTimelock(address)": "2d7807a9",
    "viewcurrentAPY()": "d5cb8669",
    "withdrawalTimelock()": "1e27970f"
  },
  "id": 29
}