{
  "abi": [
    {
      "inputs": [
        {
          "internalType": "address",
          "name": "_manager",
          "type": "address"
        }
      ],
      "stateMutability": "nonpayable",
      "type": "constructor"
    },
    {
      "inputs": [],
      "name": "BOUNTY_COMMISSION",
      "outputs": [
        {
          "internalType": "uint256",
          "name": "",
          "type": "uint256"
        }
      ],
      "stateMutability": "view",
      "type": "function"
    },
    {
      "inputs": [],
      "name": "DENOMINATOR",
      "outputs": [
        {
          "internalType": "uint256",
          "name": "",
          "type": "uint256"
        }
      ],
      "stateMutability": "view",
      "type": "function"
    },
    {
      "inputs": [
        {
          "internalType": "address",
          "name": "_token",
          "type": "address"
        },
        {
          "internalType": "uint256",
          "name": "_decimals",
          "type": "uint256"
        },
        {
          "internalType": "address",
          "name": "_hunter",
          "type": "address"
        },
        {
          "internalType": "uint256",
          "name": "_amount",
          "type": "uint256"
        }
      ],
      "name": "bountyPaid",
      "outputs": [],
      "stateMutability": "nonpayable",
      "type": "function"
    },
    {
      "inputs": [],
      "name": "cummulativeCommission",
      "outputs": [
        {
          "internalType": "uint256",
          "name": "",
          "type": "uint256"
        }
      ],
      "stateMutability": "view",
      "type": "function"
    },
    {
      "inputs": [],
      "name": "cummulativeHackerPayouts",
      "outputs": [
        {
          "internalType": "uint256",
          "name": "",
          "type": "uint256"
        }
      ],
      "stateMutability": "view",
      "type": "function"
    },
    {
      "inputs": [
        {
          "internalType": "address",
          "name": "",
          "type": "address"
        },
        {
          "internalType": "address",
          "name": "",
          "type": "address"
        }
      ],
      "name": "hunterTokenBalance",
      "outputs": [
        {
          "internalType": "uint256",
          "name": "",
          "type": "uint256"
        }
      ],
      "stateMutability": "view",
      "type": "function"
    },
    {
      "inputs": [],
      "name": "manager",
      "outputs": [
        {
          "internalType": "address",
          "name": "",
          "type": "address"
        }
      ],
      "stateMutability": "view",
      "type": "function"
    },
    {
      "inputs": [],
      "name": "premiumFees",
      "outputs": [
        {
          "internalType": "uint256",
          "name": "",
          "type": "uint256"
        }
      ],
      "stateMutability": "view",
      "type": "function"
    },
    {
      "inputs": [
        {
          "internalType": "address",
          "name": "_token",
          "type": "address"
        },
        {
          "internalType": "uint256",
          "name": "_amount",
          "type": "uint256"
        }
      ],
      "name": "premiumFeesCollected",
      "outputs": [],
      "stateMutability": "nonpayable",
      "type": "function"
    },
    {
      "inputs": [
        {
          "internalType": "address",
          "name": "",
          "type": "address"
        }
      ],
      "name": "saloonTokenBalance",
      "outputs": [
        {
          "internalType": "uint256",
          "name": "",
          "type": "uint256"
        }
      ],
      "stateMutability": "view",
      "type": "function"
    },
    {
      "inputs": [],
      "name": "saloonTotalBalance",
      "outputs": [
        {
          "internalType": "uint256",
          "name": "",
          "type": "uint256"
        }
      ],
      "stateMutability": "view",
      "type": "function"
    },
    {
      "inputs": [
        {
          "internalType": "address",
          "name": "_token",
          "type": "address"
        },
        {
          "internalType": "address",
          "name": "_hunter",
          "type": "address"
        }
      ],
      "name": "viewHunterTotalTokenPayouts",
      "outputs": [
        {
          "internalType": "uint256",
          "name": "",
          "type": "uint256"
        }
      ],
      "stateMutability": "view",
      "type": "function"
    },
    {
      "inputs": [],
      "name": "viewSaloonBalance",
      "outputs": [
        {
          "internalType": "uint256",
          "name": "",
          "type": "uint256"
        }
      ],
      "stateMutability": "view",
      "type": "function"
    },
    {
      "inputs": [],
      "name": "viewTotalEarnedSaloon",
      "outputs": [
        {
          "internalType": "uint256",
          "name": "",
          "type": "uint256"
        }
      ],
      "stateMutability": "view",
      "type": "function"
    },
    {
      "inputs": [],
      "name": "viewTotalHackerPayouts",
      "outputs": [
        {
          "internalType": "uint256",
          "name": "",
          "type": "uint256"
        }
      ],
      "stateMutability": "view",
      "type": "function"
    },
    {
      "inputs": [],
      "name": "viewTotalPremiums",
      "outputs": [
        {
          "internalType": "uint256",
          "name": "",
          "type": "uint256"
        }
      ],
      "stateMutability": "view",
      "type": "function"
    },
    {
      "inputs": [],
      "name": "viewTotalSaloonCommission",
      "outputs": [
        {
          "internalType": "uint256",
          "name": "",
          "type": "uint256"
        }
      ],
      "stateMutability": "view",
      "type": "function"
    },
    {
      "inputs": [
        {
          "internalType": "address",
          "name": "_token",
          "type": "address"
        },
        {
          "internalType": "address",
          "name": "_to",
          "type": "address"
        },
        {
          "internalType": "uint256",
          "name": "_amount",
          "type": "uint256"
        },
        {
          "internalType": "uint256",
          "name": "_decimals",
          "type": "uint256"
        }
      ],
      "name": "withdrawSaloonFunds",
      "outputs": [
        {
          "internalType": "bool",
          "name": "",
          "type": "bool"
        }
      ],
      "stateMutability": "nonpayable",
      "type": "function"
    }
  ],
  "bytecode": {
    "object": "0x60a060405234801561001057600080fd5b50604051610cc5380380610cc583398101604081905261002f91610040565b6001600160a01b0316608052610070565b60006020828403121561005257600080fd5b81516001600160a01b038116811461006957600080fd5b9392505050565b608051610c256100a060003960008181610158015281816102ac0152818161042901526105940152610c256000f3fe608060405234801561001057600080fd5b50600436106101165760003560e01c80638b8b7e1b116100a2578063c9e66d4111610071578063c9e66d4114610231578063d30b648514610239578063d3326a0a14610259578063e5125d7b14610261578063e679af8e1461026957600080fd5b80638b8b7e1b146101ee578063918f867414610219578063a0d0712514610221578063c31495901461022957600080fd5b80635bcb23c7116100e95780635bcb23c7146101925780636c948535146101b5578063700c9085146101bd5780637a76be86146101c657806383ab9304146101db57600080fd5b80631d5673811461011b57806321580322146101375780632847e5e31461014a578063481c6a7514610153575b600080fd5b61012460015481565b6040519081526020015b60405180910390f35b6101246101453660046108a5565b610272565b61012460025481565b61017a7f000000000000000000000000000000000000000000000000000000000000000081565b6040516001600160a01b03909116815260200161012e565b6101a56101a03660046108d8565b61029f565b604051901515815260200161012e565b6101246103f2565b61012460005481565b6101d96101d436600461091a565b61041e565b005b6101d96101e936600461095e565b610589565b6101246101fc3660046108a5565b600460209081526000928352604080842090915290825290205481565b610124606481565b600154610124565b600354610124565b610124600a81565b610124610247366004610988565b60056020526000908152604090205481565b600254610124565b600054610124565b61012460035481565b6001600160a01b038082166000908152600460209081526040808320938616835292905220545b92915050565b6000336001600160a01b037f000000000000000000000000000000000000000000000000000000000000000016146102f25760405162461bcd60e51b81526004016102e9906109aa565b60405180910390fd5b6001600160a01b03851660009081526005602052604090205483111561034f5760405162461bcd60e51b81526020600482015260126024820152716e6f7420656e6f7567682062616c616e636560701b60448201526064016102e9565b600061035c8360126109ee565b156103715761036c8360126109ee565b610374565b60125b905060006103828286610ae9565b6001600160a01b0388166000908152600560205260408120805492935083929091906103af9084906109ee565b9250508190555080600160008282546103c891906109ee565b909155506103e290506001600160a01b0388168787610633565b506001925050505b949350505050565b6000806103fe60005490565b9050600061040b60025490565b90506104178183610af5565b9250505090565b336001600160a01b037f000000000000000000000000000000000000000000000000000000000000000016146104665760405162461bcd60e51b81526004016102e9906109aa565b60006104738460126109ee565b15610488576104838460126109ee565b61048b565b60125b9050600061049a826064610ae9565b6104a583600a610ae9565b6104af9085610b0d565b6104b99190610b2c565b905060006104c782856109ee565b6001600160a01b038087166000908152600460209081526040808320938c16835292905290812080549293508392909190610503908490610af5565b92505081905550806003600082825461051c9190610af5565b90915550506001600160a01b03871660009081526005602052604081208054849290610549908490610af5565b9250508190555081600160008282546105629190610af5565b92505081905550816002600082825461057b9190610af5565b909155505050505050505050565b336001600160a01b037f000000000000000000000000000000000000000000000000000000000000000016146105d15760405162461bcd60e51b81526004016102e9906109aa565b6001600160a01b038216600090815260056020526040812080548392906105f9908490610af5565b92505081905550806000808282546106119190610af5565b92505081905550806001600082825461062a9190610af5565b90915550505050565b604080516001600160a01b038416602482015260448082018490528251808303909101815260649091019091526020810180516001600160e01b031663a9059cbb60e01b179052600090610688908590610692565b5060019392505050565b60006106e7826040518060400160405280602081526020017f5361666545524332303a206c6f772d6c6576656c2063616c6c206661696c6564815250856001600160a01b03166107699092919063ffffffff16565b80519091501561076457808060200190518101906107059190610b4e565b6107645760405162461bcd60e51b815260206004820152602a60248201527f5361666545524332303a204552433230206f7065726174696f6e20646964206e6044820152691bdd081cdd58d8d9595960b21b60648201526084016102e9565b505050565b60606103ea848460008585600080866001600160a01b031685876040516107909190610ba0565b60006040518083038185875af1925050503d80600081146107cd576040519150601f19603f3d011682016040523d82523d6000602084013e6107d2565b606091505b50915091506107e3878383876107ee565b979650505050505050565b6060831561085a578251610853576001600160a01b0385163b6108535760405162461bcd60e51b815260206004820152601d60248201527f416464726573733a2063616c6c20746f206e6f6e2d636f6e747261637400000060448201526064016102e9565b50816103ea565b6103ea838381511561086f5781518083602001fd5b8060405162461bcd60e51b81526004016102e99190610bbc565b80356001600160a01b03811681146108a057600080fd5b919050565b600080604083850312156108b857600080fd5b6108c183610889565b91506108cf60208401610889565b90509250929050565b600080600080608085870312156108ee57600080fd5b6108f785610889565b935061090560208601610889565b93969395505050506040820135916060013590565b6000806000806080858703121561093057600080fd5b61093985610889565b93506020850135925061094e60408601610889565b9396929550929360600135925050565b6000806040838503121561097157600080fd5b61097a83610889565b946020939093013593505050565b60006020828403121561099a57600080fd5b6109a382610889565b9392505050565b60208082526014908201527313db9b1e481b585b9859d95c88185b1b1bddd95960621b604082015260600190565b634e487b7160e01b600052601160045260246000fd5b600082821015610a0057610a006109d8565b500390565b600181815b80851115610a40578160001904821115610a2657610a266109d8565b80851615610a3357918102915b93841c9390800290610a0a565b509250929050565b600082610a5757506001610299565b81610a6457506000610299565b8160018114610a7a5760028114610a8457610aa0565b6001915050610299565b60ff841115610a9557610a956109d8565b50506001821b610299565b5060208310610133831016604e8410600b8410161715610ac3575081810a610299565b610acd8383610a05565b8060001904821115610ae157610ae16109d8565b029392505050565b60006109a38383610a48565b60008219821115610b0857610b086109d8565b500190565b6000816000190483118215151615610b2757610b276109d8565b500290565b600082610b4957634e487b7160e01b600052601260045260246000fd5b500490565b600060208284031215610b6057600080fd5b815180151581146109a357600080fd5b60005b83811015610b8b578181015183820152602001610b73565b83811115610b9a576000848401525b50505050565b60008251610bb2818460208701610b70565b9190910192915050565b6020815260008251806020840152610bdb816040850160208701610b70565b601f01601f1916919091016040019291505056fea264697066735822122066af8d061bd90b85e4bd42027d67f04059bb96007aa143121ce522d93e86189064736f6c634300080a0033",
    "linkReferences": {}
  },
  "methodIdentifiers": {
    "BOUNTY_COMMISSION()": "c9e66d41",
    "DENOMINATOR()": "918f8674",
    "bountyPaid(address,uint256,address,uint256)": "7a76be86",
    "cummulativeCommission()": "2847e5e3",
    "cummulativeHackerPayouts()": "e679af8e",
    "hunterTokenBalance(address,address)": "8b8b7e1b",
    "manager()": "481c6a75",
    "premiumFees()": "700c9085",
    "premiumFeesCollected(address,uint256)": "83ab9304",
    "saloonTokenBalance(address)": "d30b6485",
    "saloonTotalBalance()": "1d567381",
    "viewHunterTotalTokenPayouts(address,address)": "21580322",
    "viewSaloonBalance()": "a0d07125",
    "viewTotalEarnedSaloon()": "6c948535",
    "viewTotalHackerPayouts()": "c3149590",
    "viewTotalPremiums()": "e5125d7b",
    "viewTotalSaloonCommission()": "d3326a0a",
    "withdrawSaloonFunds(address,address,uint256,uint256)": "5bcb23c7"
  },
  "id": 33
}