{
  "abi": [
    {
      "inputs": [
        {
          "internalType": "address",
          "name": "_manager",
          "type": "address"
        }
      ],
      "stateMutability": "nonpayable",
      "type": "constructor"
    },
    {
      "inputs": [],
      "name": "BOUNTY_COMMISSION",
      "outputs": [
        {
          "internalType": "uint256",
          "name": "",
          "type": "uint256"
        }
      ],
      "stateMutability": "view",
      "type": "function"
    },
    {
      "inputs": [],
      "name": "DENOMINATOR",
      "outputs": [
        {
          "internalType": "uint256",
          "name": "",
          "type": "uint256"
        }
      ],
      "stateMutability": "view",
      "type": "function"
    },
    {
      "inputs": [
        {
          "internalType": "address",
          "name": "_token",
          "type": "address"
        },
        {
          "internalType": "address",
          "name": "_hunter",
          "type": "address"
        },
        {
          "internalType": "uint256",
          "name": "_amount",
          "type": "uint256"
        }
      ],
      "name": "bountyPaid",
      "outputs": [],
      "stateMutability": "nonpayable",
      "type": "function"
    },
    {
      "inputs": [],
      "name": "cummulativeCommission",
      "outputs": [
        {
          "internalType": "uint256",
          "name": "",
          "type": "uint256"
        }
      ],
      "stateMutability": "view",
      "type": "function"
    },
    {
      "inputs": [],
      "name": "cummulativeHackerPayouts",
      "outputs": [
        {
          "internalType": "uint256",
          "name": "",
          "type": "uint256"
        }
      ],
      "stateMutability": "view",
      "type": "function"
    },
    {
      "inputs": [
        {
          "internalType": "address",
          "name": "",
          "type": "address"
        },
        {
          "internalType": "address",
          "name": "",
          "type": "address"
        }
      ],
      "name": "hunterTokenBalance",
      "outputs": [
        {
          "internalType": "uint256",
          "name": "",
          "type": "uint256"
        }
      ],
      "stateMutability": "view",
      "type": "function"
    },
    {
      "inputs": [],
      "name": "manager",
      "outputs": [
        {
          "internalType": "address",
          "name": "",
          "type": "address"
        }
      ],
      "stateMutability": "view",
      "type": "function"
    },
    {
      "inputs": [],
      "name": "premiumFees",
      "outputs": [
        {
          "internalType": "uint256",
          "name": "",
          "type": "uint256"
        }
      ],
      "stateMutability": "view",
      "type": "function"
    },
    {
      "inputs": [
        {
          "internalType": "address",
          "name": "_token",
          "type": "address"
        },
        {
          "internalType": "uint256",
          "name": "_amount",
          "type": "uint256"
        }
      ],
      "name": "premiumFeesCollected",
      "outputs": [],
      "stateMutability": "nonpayable",
      "type": "function"
    },
    {
      "inputs": [
        {
          "internalType": "address",
          "name": "",
          "type": "address"
        }
      ],
      "name": "saloonTokenBalance",
      "outputs": [
        {
          "internalType": "uint256",
          "name": "",
          "type": "uint256"
        }
      ],
      "stateMutability": "view",
      "type": "function"
    },
    {
      "inputs": [],
      "name": "saloonTotalBalance",
      "outputs": [
        {
          "internalType": "uint256",
          "name": "",
          "type": "uint256"
        }
      ],
      "stateMutability": "view",
      "type": "function"
    },
    {
      "inputs": [
        {
          "internalType": "address",
          "name": "_token",
          "type": "address"
        },
        {
          "internalType": "address",
          "name": "_hunter",
          "type": "address"
        }
      ],
      "name": "viewHunterTotalTokenPayouts",
      "outputs": [
        {
          "internalType": "uint256",
          "name": "",
          "type": "uint256"
        }
      ],
      "stateMutability": "view",
      "type": "function"
    },
    {
      "inputs": [],
      "name": "viewSaloonBalance",
      "outputs": [
        {
          "internalType": "uint256",
          "name": "",
          "type": "uint256"
        }
      ],
      "stateMutability": "view",
      "type": "function"
    },
    {
      "inputs": [],
      "name": "viewTotalEarnedSaloon",
      "outputs": [
        {
          "internalType": "uint256",
          "name": "",
          "type": "uint256"
        }
      ],
      "stateMutability": "view",
      "type": "function"
    },
    {
      "inputs": [],
      "name": "viewTotalHackerPayouts",
      "outputs": [
        {
          "internalType": "uint256",
          "name": "",
          "type": "uint256"
        }
      ],
      "stateMutability": "view",
      "type": "function"
    },
    {
      "inputs": [],
      "name": "viewTotalPremiums",
      "outputs": [
        {
          "internalType": "uint256",
          "name": "",
          "type": "uint256"
        }
      ],
      "stateMutability": "view",
      "type": "function"
    },
    {
      "inputs": [],
      "name": "viewTotalSaloonCommission",
      "outputs": [
        {
          "internalType": "uint256",
          "name": "",
          "type": "uint256"
        }
      ],
      "stateMutability": "view",
      "type": "function"
    },
    {
      "inputs": [
        {
          "internalType": "address",
          "name": "_token",
          "type": "address"
        },
        {
          "internalType": "address",
          "name": "_to",
          "type": "address"
        },
        {
          "internalType": "uint256",
          "name": "_amount",
          "type": "uint256"
        }
      ],
      "name": "withdrawSaloonFunds",
      "outputs": [
        {
          "internalType": "bool",
          "name": "",
          "type": "bool"
        }
      ],
      "stateMutability": "nonpayable",
      "type": "function"
    }
  ],
  "bytecode": {
    "object": "0x60a060405234801561001057600080fd5b50604051610b97380380610b9783398101604081905261002f91610040565b6001600160a01b0316608052610070565b60006020828403121561005257600080fd5b81516001600160a01b038116811461006957600080fd5b9392505050565b608051610af76100a0600039600081816101a2015281816102b5015281816103f5015261049f0152610af76000f3fe608060405234801561001057600080fd5b50600436106101165760003560e01c8063918f8674116100a2578063d16cfcc111610071578063d16cfcc11461025c578063d30b64851461026f578063d3326a0a1461028f578063e5125d7b14610297578063e679af8e1461029f57600080fd5b8063918f86741461022d578063a0d071251461023d578063c314959014610245578063c9e66d411461024d57600080fd5b8063481c6a75116100e9578063481c6a751461019d5780636c948535146101dc578063700c9085146101e457806383ab9304146101ed5780638b8b7e1b1461020257600080fd5b806317cbc8f61461011b5780631d56738114610143578063215803221461015a5780632847e5e314610194575b600080fd5b61012e6101293660046108b1565b6102a8565b60405190151581526020015b60405180910390f35b61014c60015481565b60405190815260200161013a565b61014c6101683660046108ed565b6001600160a01b0380821660009081526004602090815260408083209386168352929052205492915050565b61014c60025481565b6101c47f000000000000000000000000000000000000000000000000000000000000000081565b6040516001600160a01b03909116815260200161013a565b61014c6103be565b61014c60005481565b6102006101fb366004610920565b6103ea565b005b61014c6102103660046108ed565b600460209081526000928352604080842090915290825290205481565b61014c68056bc75e2d6310000081565b60015461014c565b60035461014c565b61014c67a688906bd8b0000081565b61020061026a3660046108b1565b610494565b61014c61027d36600461094a565b60056020526000908152604090205481565b60025461014c565b60005461014c565b61014c60035481565b6000336001600160a01b037f000000000000000000000000000000000000000000000000000000000000000016146102fb5760405162461bcd60e51b81526004016102f29061096c565b60405180910390fd5b6001600160a01b0384166000908152600560205260409020548211156103585760405162461bcd60e51b81526020600482015260126024820152716e6f7420656e6f7567682062616c616e636560701b60448201526064016102f2565b6001600160a01b038416600090815260056020526040812080548492906103809084906109b0565b92505081905550816001600082825461039991906109b0565b909155506103b390506001600160a01b03851684846105d2565b506001949350505050565b6000806103ca60005490565b905060006103d760025490565b90506103e381836109c7565b9250505090565b336001600160a01b037f000000000000000000000000000000000000000000000000000000000000000016146104325760405162461bcd60e51b81526004016102f29061096c565b6001600160a01b0382166000908152600560205260408120805483929061045a9084906109c7565b925050819055508060008082825461047291906109c7565b92505081905550806001600082825461048b91906109c7565b90915550505050565b336001600160a01b037f000000000000000000000000000000000000000000000000000000000000000016146104dc5760405162461bcd60e51b81526004016102f29061096c565b600068056bc75e2d631000006104fa67a688906bd8b00000846109df565b61050491906109fe565b9050600061051282846109b0565b6001600160a01b038086166000908152600460209081526040808320938a1683529290529081208054929350839290919061054e9084906109c7565b92505081905550806003600082825461056791906109c7565b90915550506001600160a01b038516600090815260056020526040812080548492906105949084906109c7565b9250508190555081600160008282546105ad91906109c7565b9250508190555081600260008282546105c691906109c7565b90915550505050505050565b604080516001600160a01b038416602482015260448082018490528251808303909101815260649091019091526020810180516001600160e01b031663a9059cbb60e01b179052600090610627908590610631565b5060019392505050565b6000610686826040518060400160405280602081526020017f5361666545524332303a206c6f772d6c6576656c2063616c6c206661696c6564815250856001600160a01b03166107089092919063ffffffff16565b80519091501561070357808060200190518101906106a49190610a20565b6107035760405162461bcd60e51b815260206004820152602a60248201527f5361666545524332303a204552433230206f7065726174696f6e20646964206e6044820152691bdd081cdd58d8d9595960b21b60648201526084016102f2565b505050565b6060610717848460008561071f565b949350505050565b6060824710156107805760405162461bcd60e51b815260206004820152602660248201527f416464726573733a20696e73756666696369656e742062616c616e636520666f6044820152651c8818d85b1b60d21b60648201526084016102f2565b600080866001600160a01b0316858760405161079c9190610a72565b60006040518083038185875af1925050503d80600081146107d9576040519150601f19603f3d011682016040523d82523d6000602084013e6107de565b606091505b50915091506107ef878383876107fa565b979650505050505050565b6060831561086657825161085f576001600160a01b0385163b61085f5760405162461bcd60e51b815260206004820152601d60248201527f416464726573733a2063616c6c20746f206e6f6e2d636f6e747261637400000060448201526064016102f2565b5081610717565b610717838381511561087b5781518083602001fd5b8060405162461bcd60e51b81526004016102f29190610a8e565b80356001600160a01b03811681146108ac57600080fd5b919050565b6000806000606084860312156108c657600080fd5b6108cf84610895565b92506108dd60208501610895565b9150604084013590509250925092565b6000806040838503121561090057600080fd5b61090983610895565b915061091760208401610895565b90509250929050565b6000806040838503121561093357600080fd5b61093c83610895565b946020939093013593505050565b60006020828403121561095c57600080fd5b61096582610895565b9392505050565b60208082526014908201527313db9b1e481b585b9859d95c88185b1b1bddd95960621b604082015260600190565b634e487b7160e01b600052601160045260246000fd5b6000828210156109c2576109c261099a565b500390565b600082198211156109da576109da61099a565b500190565b60008160001904831182151516156109f9576109f961099a565b500290565b600082610a1b57634e487b7160e01b600052601260045260246000fd5b500490565b600060208284031215610a3257600080fd5b8151801515811461096557600080fd5b60005b83811015610a5d578181015183820152602001610a45565b83811115610a6c576000848401525b50505050565b60008251610a84818460208701610a42565b9190910192915050565b6020815260008251806020840152610aad816040850160208701610a42565b601f01601f1916919091016040019291505056fea2646970667358221220d03a5e6f183aaef88c0285005b26050580903ac3cbeab4d1a9de82100674269b64736f6c634300080a0033",
    "linkReferences": {}
  }
}