{
  "abi": [
    {
      "inputs": [
        {
          "internalType": "address",
          "name": "_manager",
          "type": "address"
        }
      ],
      "stateMutability": "nonpayable",
      "type": "constructor"
    },
    {
      "inputs": [],
      "name": "BOUNTY_COMMISSION",
      "outputs": [
        {
          "internalType": "uint256",
          "name": "",
          "type": "uint256"
        }
      ],
      "stateMutability": "view",
      "type": "function"
    },
    {
      "inputs": [],
      "name": "DENOMINATOR",
      "outputs": [
        {
          "internalType": "uint256",
          "name": "",
          "type": "uint256"
        }
      ],
      "stateMutability": "view",
      "type": "function"
    },
    {
      "inputs": [
        {
          "internalType": "address",
          "name": "_token",
          "type": "address"
        },
        {
          "internalType": "uint256",
          "name": "_decimals",
          "type": "uint256"
        },
        {
          "internalType": "address",
          "name": "_hunter",
          "type": "address"
        },
        {
          "internalType": "uint256",
          "name": "_amount",
          "type": "uint256"
        }
      ],
      "name": "bountyPaid",
      "outputs": [],
      "stateMutability": "nonpayable",
      "type": "function"
    },
    {
      "inputs": [],
      "name": "cummulativeCommission",
      "outputs": [
        {
          "internalType": "uint256",
          "name": "",
          "type": "uint256"
        }
      ],
      "stateMutability": "view",
      "type": "function"
    },
    {
      "inputs": [],
      "name": "cummulativeHackerPayouts",
      "outputs": [
        {
          "internalType": "uint256",
          "name": "",
          "type": "uint256"
        }
      ],
      "stateMutability": "view",
      "type": "function"
    },
    {
      "inputs": [
        {
          "internalType": "address",
          "name": "",
          "type": "address"
        },
        {
          "internalType": "address",
          "name": "",
          "type": "address"
        }
      ],
      "name": "hunterTokenBalance",
      "outputs": [
        {
          "internalType": "uint256",
          "name": "",
          "type": "uint256"
        }
      ],
      "stateMutability": "view",
      "type": "function"
    },
    {
      "inputs": [],
      "name": "manager",
      "outputs": [
        {
          "internalType": "address",
          "name": "",
          "type": "address"
        }
      ],
      "stateMutability": "view",
      "type": "function"
    },
    {
      "inputs": [],
      "name": "premiumFees",
      "outputs": [
        {
          "internalType": "uint256",
          "name": "",
          "type": "uint256"
        }
      ],
      "stateMutability": "view",
      "type": "function"
    },
    {
      "inputs": [
        {
          "internalType": "address",
          "name": "_token",
          "type": "address"
        },
        {
          "internalType": "uint256",
          "name": "_amount",
          "type": "uint256"
        }
      ],
      "name": "premiumFeesCollected",
      "outputs": [],
      "stateMutability": "nonpayable",
      "type": "function"
    },
    {
      "inputs": [
        {
          "internalType": "address",
          "name": "",
          "type": "address"
        }
      ],
      "name": "saloonTokenBalance",
      "outputs": [
        {
          "internalType": "uint256",
          "name": "",
          "type": "uint256"
        }
      ],
      "stateMutability": "view",
      "type": "function"
    },
    {
      "inputs": [],
      "name": "saloonTotalBalance",
      "outputs": [
        {
          "internalType": "uint256",
          "name": "",
          "type": "uint256"
        }
      ],
      "stateMutability": "view",
      "type": "function"
    },
    {
      "inputs": [
        {
          "internalType": "address",
          "name": "_token",
          "type": "address"
        },
        {
          "internalType": "address",
          "name": "_hunter",
          "type": "address"
        }
      ],
      "name": "viewHunterTotalTokenPayouts",
      "outputs": [
        {
          "internalType": "uint256",
          "name": "",
          "type": "uint256"
        }
      ],
      "stateMutability": "view",
      "type": "function"
    },
    {
      "inputs": [],
      "name": "viewSaloonBalance",
      "outputs": [
        {
          "internalType": "uint256",
          "name": "",
          "type": "uint256"
        }
      ],
      "stateMutability": "view",
      "type": "function"
    },
    {
      "inputs": [],
      "name": "viewTotalEarnedSaloon",
      "outputs": [
        {
          "internalType": "uint256",
          "name": "",
          "type": "uint256"
        }
      ],
      "stateMutability": "view",
      "type": "function"
    },
    {
      "inputs": [],
      "name": "viewTotalHackerPayouts",
      "outputs": [
        {
          "internalType": "uint256",
          "name": "",
          "type": "uint256"
        }
      ],
      "stateMutability": "view",
      "type": "function"
    },
    {
      "inputs": [],
      "name": "viewTotalPremiums",
      "outputs": [
        {
          "internalType": "uint256",
          "name": "",
          "type": "uint256"
        }
      ],
      "stateMutability": "view",
      "type": "function"
    },
    {
      "inputs": [],
      "name": "viewTotalSaloonCommission",
      "outputs": [
        {
          "internalType": "uint256",
          "name": "",
          "type": "uint256"
        }
      ],
      "stateMutability": "view",
      "type": "function"
    },
    {
      "inputs": [
        {
          "internalType": "address",
          "name": "_token",
          "type": "address"
        },
        {
          "internalType": "address",
          "name": "_to",
          "type": "address"
        },
        {
          "internalType": "uint256",
          "name": "_amount",
          "type": "uint256"
        },
        {
          "internalType": "uint256",
          "name": "_decimals",
          "type": "uint256"
        }
      ],
      "name": "withdrawSaloonFunds",
      "outputs": [
        {
          "internalType": "bool",
          "name": "",
          "type": "bool"
        }
      ],
      "stateMutability": "nonpayable",
      "type": "function"
    }
  ],
  "bytecode": {
    "object": "0x60a060405234801561001057600080fd5b50604051610cec380380610cec83398101604081905261002f91610040565b6001600160a01b0316608052610070565b60006020828403121561005257600080fd5b81516001600160a01b038116811461006957600080fd5b9392505050565b608051610c4c6100a060003960008181610158015281816102ac0152818161043401526105bb0152610c4c6000f3fe608060405234801561001057600080fd5b50600436106101165760003560e01c80638b8b7e1b116100a2578063c9e66d4111610071578063c9e66d4114610231578063d30b648514610239578063d3326a0a14610259578063e5125d7b14610261578063e679af8e1461026957600080fd5b80638b8b7e1b146101ee578063918f867414610219578063a0d0712514610221578063c31495901461022957600080fd5b80635bcb23c7116100e95780635bcb23c7146101925780636c948535146101b5578063700c9085146101bd5780637a76be86146101c657806383ab9304146101db57600080fd5b80631d5673811461011b57806321580322146101375780632847e5e31461014a578063481c6a7514610153575b600080fd5b61012460015481565b6040519081526020015b60405180910390f35b6101246101453660046108cc565b610272565b61012460025481565b61017a7f000000000000000000000000000000000000000000000000000000000000000081565b6040516001600160a01b03909116815260200161012e565b6101a56101a03660046108ff565b61029f565b604051901515815260200161012e565b6101246103fd565b61012460005481565b6101d96101d4366004610941565b610429565b005b6101d96101e9366004610985565b6105b0565b6101246101fc3660046108cc565b600460209081526000928352604080842090915290825290205481565b610124606481565b600154610124565b600354610124565b610124600a81565b6101246102473660046109af565b60056020526000908152604090205481565b600254610124565b600054610124565b61012460035481565b6001600160a01b038082166000908152600460209081526040808320938616835292905220545b92915050565b6000336001600160a01b037f000000000000000000000000000000000000000000000000000000000000000016146102f25760405162461bcd60e51b81526004016102e9906109d1565b60405180910390fd5b6001600160a01b03851660009081526005602052604090205483111561034f5760405162461bcd60e51b81526020600482015260126024820152716e6f7420656e6f7567682062616c616e636560701b60448201526064016102e9565b600061035c836012610a15565b156103715761036c836012610a15565b610374565b60125b9050600061038382600a610b10565b61038d9086610b1c565b6001600160a01b0388166000908152600560205260408120805492935083929091906103ba908490610a15565b9250508190555080600160008282546103d39190610a15565b909155506103ed90506001600160a01b038816878361065a565b506001925050505b949350505050565b60008061040960005490565b9050600061041660025490565b90506104228183610b3b565b9250505090565b336001600160a01b037f000000000000000000000000000000000000000000000000000000000000000016146104715760405162461bcd60e51b81526004016102e9906109d1565b600061047e846012610a15565b156104935761048e846012610a15565b610496565b60125b905060006064600a6104a88482610b10565b6104b29086610b1c565b6104bc9190610b1c565b6104c69190610b53565b905060006104d583600a610b10565b6104df9085610b1c565b905060006104ed8383610a15565b6001600160a01b038088166000908152600460209081526040808320938d16835292905290812080549293508392909190610529908490610b3b565b9250508190555080600360008282546105429190610b3b565b90915550506001600160a01b0388166000908152600560205260408120805485929061056f908490610b3b565b9250508190555082600160008282546105889190610b3b565b9250508190555082600260008282546105a19190610b3b565b90915550505050505050505050565b336001600160a01b037f000000000000000000000000000000000000000000000000000000000000000016146105f85760405162461bcd60e51b81526004016102e9906109d1565b6001600160a01b03821660009081526005602052604081208054839290610620908490610b3b565b92505081905550806000808282546106389190610b3b565b9250508190555080600160008282546106519190610b3b565b90915550505050565b604080516001600160a01b038416602482015260448082018490528251808303909101815260649091019091526020810180516001600160e01b031663a9059cbb60e01b1790526000906106af9085906106b9565b5060019392505050565b600061070e826040518060400160405280602081526020017f5361666545524332303a206c6f772d6c6576656c2063616c6c206661696c6564815250856001600160a01b03166107909092919063ffffffff16565b80519091501561078b578080602001905181019061072c9190610b75565b61078b5760405162461bcd60e51b815260206004820152602a60248201527f5361666545524332303a204552433230206f7065726174696f6e20646964206e6044820152691bdd081cdd58d8d9595960b21b60648201526084016102e9565b505050565b60606103f5848460008585600080866001600160a01b031685876040516107b79190610bc7565b60006040518083038185875af1925050503d80600081146107f4576040519150601f19603f3d011682016040523d82523d6000602084013e6107f9565b606091505b509150915061080a87838387610815565b979650505050505050565b6060831561088157825161087a576001600160a01b0385163b61087a5760405162461bcd60e51b815260206004820152601d60248201527f416464726573733a2063616c6c20746f206e6f6e2d636f6e747261637400000060448201526064016102e9565b50816103f5565b6103f583838151156108965781518083602001fd5b8060405162461bcd60e51b81526004016102e99190610be3565b80356001600160a01b03811681146108c757600080fd5b919050565b600080604083850312156108df57600080fd5b6108e8836108b0565b91506108f6602084016108b0565b90509250929050565b6000806000806080858703121561091557600080fd5b61091e856108b0565b935061092c602086016108b0565b93969395505050506040820135916060013590565b6000806000806080858703121561095757600080fd5b610960856108b0565b935060208501359250610975604086016108b0565b9396929550929360600135925050565b6000806040838503121561099857600080fd5b6109a1836108b0565b946020939093013593505050565b6000602082840312156109c157600080fd5b6109ca826108b0565b9392505050565b60208082526014908201527313db9b1e481b585b9859d95c88185b1b1bddd95960621b604082015260600190565b634e487b7160e01b600052601160045260246000fd5b600082821015610a2757610a276109ff565b500390565b600181815b80851115610a67578160001904821115610a4d57610a4d6109ff565b80851615610a5a57918102915b93841c9390800290610a31565b509250929050565b600082610a7e57506001610299565b81610a8b57506000610299565b8160018114610aa15760028114610aab57610ac7565b6001915050610299565b60ff841115610abc57610abc6109ff565b50506001821b610299565b5060208310610133831016604e8410600b8410161715610aea575081810a610299565b610af48383610a2c565b8060001904821115610b0857610b086109ff565b029392505050565b60006109ca8383610a6f565b6000816000190483118215151615610b3657610b366109ff565b500290565b60008219821115610b4e57610b4e6109ff565b500190565b600082610b7057634e487b7160e01b600052601260045260246000fd5b500490565b600060208284031215610b8757600080fd5b815180151581146109ca57600080fd5b60005b83811015610bb2578181015183820152602001610b9a565b83811115610bc1576000848401525b50505050565b60008251610bd9818460208701610b97565b9190910192915050565b6020815260008251806020840152610c02816040850160208701610b97565b601f01601f1916919091016040019291505056fea2646970667358221220bd1c3a4526da6f736f745224f5dc1026ba82e942b303a140a0b2b0efebb3121064736f6c634300080a0033",
    "linkReferences": {}
  },
  "methodIdentifiers": {
    "BOUNTY_COMMISSION()": "c9e66d41",
    "DENOMINATOR()": "918f8674",
    "bountyPaid(address,uint256,address,uint256)": "7a76be86",
    "cummulativeCommission()": "2847e5e3",
    "cummulativeHackerPayouts()": "e679af8e",
    "hunterTokenBalance(address,address)": "8b8b7e1b",
    "manager()": "481c6a75",
    "premiumFees()": "700c9085",
    "premiumFeesCollected(address,uint256)": "83ab9304",
    "saloonTokenBalance(address)": "d30b6485",
    "saloonTotalBalance()": "1d567381",
    "viewHunterTotalTokenPayouts(address,address)": "21580322",
    "viewSaloonBalance()": "a0d07125",
    "viewTotalEarnedSaloon()": "6c948535",
    "viewTotalHackerPayouts()": "c3149590",
    "viewTotalPremiums()": "e5125d7b",
    "viewTotalSaloonCommission()": "d3326a0a",
    "withdrawSaloonFunds(address,address,uint256,uint256)": "5bcb23c7"
  },
  "id": 31
}