{
  "abi": [
    {
      "inputs": [
        {
          "internalType": "address",
          "name": "_manager",
          "type": "address"
        }
      ],
      "stateMutability": "nonpayable",
      "type": "constructor"
    },
    {
      "inputs": [],
      "name": "BOUNTY_COMMISSION",
      "outputs": [
        {
          "internalType": "uint256",
          "name": "",
          "type": "uint256"
        }
      ],
      "stateMutability": "view",
      "type": "function"
    },
    {
      "inputs": [],
      "name": "DENOMINATOR",
      "outputs": [
        {
          "internalType": "uint256",
          "name": "",
          "type": "uint256"
        }
      ],
      "stateMutability": "view",
      "type": "function"
    },
    {
      "inputs": [
        {
          "internalType": "address",
          "name": "_token",
          "type": "address"
        },
        {
          "internalType": "uint256",
          "name": "_decimals",
          "type": "uint256"
        },
        {
          "internalType": "address",
          "name": "_hunter",
          "type": "address"
        },
        {
          "internalType": "uint256",
          "name": "_amount",
          "type": "uint256"
        }
      ],
      "name": "bountyPaid",
      "outputs": [],
      "stateMutability": "nonpayable",
      "type": "function"
    },
    {
      "inputs": [],
      "name": "cummulativeCommission",
      "outputs": [
        {
          "internalType": "uint256",
          "name": "",
          "type": "uint256"
        }
      ],
      "stateMutability": "view",
      "type": "function"
    },
    {
      "inputs": [],
      "name": "cummulativeHackerPayouts",
      "outputs": [
        {
          "internalType": "uint256",
          "name": "",
          "type": "uint256"
        }
      ],
      "stateMutability": "view",
      "type": "function"
    },
    {
      "inputs": [
        {
          "internalType": "address",
          "name": "",
          "type": "address"
        },
        {
          "internalType": "address",
          "name": "",
          "type": "address"
        }
      ],
      "name": "hunterTokenBalance",
      "outputs": [
        {
          "internalType": "uint256",
          "name": "",
          "type": "uint256"
        }
      ],
      "stateMutability": "view",
      "type": "function"
    },
    {
      "inputs": [],
      "name": "manager",
      "outputs": [
        {
          "internalType": "address",
          "name": "",
          "type": "address"
        }
      ],
      "stateMutability": "view",
      "type": "function"
    },
    {
      "inputs": [],
      "name": "premiumFees",
      "outputs": [
        {
          "internalType": "uint256",
          "name": "",
          "type": "uint256"
        }
      ],
      "stateMutability": "view",
      "type": "function"
    },
    {
      "inputs": [
        {
          "internalType": "address",
          "name": "_token",
          "type": "address"
        },
        {
          "internalType": "uint256",
          "name": "_decimals",
          "type": "uint256"
        },
        {
          "internalType": "uint256",
          "name": "_amount",
          "type": "uint256"
        }
      ],
      "name": "premiumFeesCollected",
      "outputs": [],
      "stateMutability": "nonpayable",
      "type": "function"
    },
    {
      "inputs": [
        {
          "internalType": "address",
          "name": "",
          "type": "address"
        }
      ],
      "name": "saloonTokenBalance",
      "outputs": [
        {
          "internalType": "uint256",
          "name": "",
          "type": "uint256"
        }
      ],
      "stateMutability": "view",
      "type": "function"
    },
    {
      "inputs": [],
      "name": "saloonTotalBalance",
      "outputs": [
        {
          "internalType": "uint256",
          "name": "",
          "type": "uint256"
        }
      ],
      "stateMutability": "view",
      "type": "function"
    },
    {
      "inputs": [
        {
          "internalType": "address",
          "name": "_token",
          "type": "address"
        },
        {
          "internalType": "address",
          "name": "_hunter",
          "type": "address"
        }
      ],
      "name": "viewHunterTotalTokenPayouts",
      "outputs": [
        {
          "internalType": "uint256",
          "name": "",
          "type": "uint256"
        }
      ],
      "stateMutability": "view",
      "type": "function"
    },
    {
      "inputs": [],
      "name": "viewSaloonBalance",
      "outputs": [
        {
          "internalType": "uint256",
          "name": "",
          "type": "uint256"
        }
      ],
      "stateMutability": "view",
      "type": "function"
    },
    {
      "inputs": [],
      "name": "viewTotalEarnedSaloon",
      "outputs": [
        {
          "internalType": "uint256",
          "name": "",
          "type": "uint256"
        }
      ],
      "stateMutability": "view",
      "type": "function"
    },
    {
      "inputs": [],
      "name": "viewTotalHackerPayouts",
      "outputs": [
        {
          "internalType": "uint256",
          "name": "",
          "type": "uint256"
        }
      ],
      "stateMutability": "view",
      "type": "function"
    },
    {
      "inputs": [],
      "name": "viewTotalPremiums",
      "outputs": [
        {
          "internalType": "uint256",
          "name": "",
          "type": "uint256"
        }
      ],
      "stateMutability": "view",
      "type": "function"
    },
    {
      "inputs": [],
      "name": "viewTotalSaloonCommission",
      "outputs": [
        {
          "internalType": "uint256",
          "name": "",
          "type": "uint256"
        }
      ],
      "stateMutability": "view",
      "type": "function"
    },
    {
      "inputs": [
        {
          "internalType": "address",
          "name": "_token",
          "type": "address"
        },
        {
          "internalType": "address",
          "name": "_to",
          "type": "address"
        },
        {
          "internalType": "uint256",
          "name": "_amount",
          "type": "uint256"
        },
        {
          "internalType": "uint256",
          "name": "_decimals",
          "type": "uint256"
        }
      ],
      "name": "withdrawSaloonFunds",
      "outputs": [
        {
          "internalType": "bool",
          "name": "",
          "type": "bool"
        }
      ],
      "stateMutability": "nonpayable",
      "type": "function"
    }
  ],
  "bytecode": {
    "object": "0x60a060405234801561001057600080fd5b50604051610d14380380610d1483398101604081905261002f91610040565b6001600160a01b0316608052610070565b60006020828403121561005257600080fd5b81516001600160a01b038116811461006957600080fd5b9392505050565b608051610c746100a06000396000818161016d0152818161027d0152818161039a015261050e0152610c746000f3fe608060405234801561001057600080fd5b50600436106101165760003560e01c80638b8b7e1b116100a2578063c9e66d4111610071578063c9e66d4114610231578063d30b648514610239578063d3326a0a14610259578063e5125d7b14610261578063e679af8e1461026957600080fd5b80638b8b7e1b146101ee578063918f867414610219578063a0d0712514610221578063c31495901461022957600080fd5b8063481c6a75116100e9578063481c6a75146101685780635bcb23c7146101a75780636c948535146101ca578063700c9085146101d25780637a76be86146101db57600080fd5b80630200b95f1461011b5780631d56738114610130578063215803221461014c5780632847e5e31461015f575b600080fd5b61012e6101293660046108eb565b610272565b005b61013960015481565b6040519081526020015b60405180910390f35b61013961015a36600461091e565b610360565b61013960025481565b61018f7f000000000000000000000000000000000000000000000000000000000000000081565b6040516001600160a01b039091168152602001610143565b6101ba6101b5366004610951565b61038d565b6040519015158152602001610143565b6101396104d7565b61013960005481565b61012e6101e9366004610993565b610503565b6101396101fc36600461091e565b600460209081526000928352604080842090915290825290205481565b610139606481565b600154610139565b600354610139565b610139600a81565b6101396102473660046109d7565b60056020526000908152604090205481565b600254610139565b600054610139565b61013960035481565b336001600160a01b037f000000000000000000000000000000000000000000000000000000000000000016146102c35760405162461bcd60e51b81526004016102ba906109f9565b60405180910390fd5b60006102d0836012610a3d565b156102e5576102e0836012610a3d565b6102e8565b60125b905060006102f68284610b38565b6001600160a01b038616600090815260056020526040812080549293508392909190610323908490610b44565b925050819055508060008082825461033b9190610b44565b9250508190555080600160008282546103549190610b44565b90915550505050505050565b6001600160a01b038082166000908152600460209081526040808320938616835292905220545b92915050565b6000336001600160a01b037f000000000000000000000000000000000000000000000000000000000000000016146103d75760405162461bcd60e51b81526004016102ba906109f9565b6001600160a01b0385166000908152600560205260409020548311156104345760405162461bcd60e51b81526020600482015260126024820152716e6f7420656e6f7567682062616c616e636560701b60448201526064016102ba565b6000610441836012610a3d565b1561045657610451836012610a3d565b610459565b60125b905060006104678286610b38565b6001600160a01b038816600090815260056020526040812080549293508392909190610494908490610a3d565b9250508190555080600160008282546104ad9190610a3d565b909155506104c790506001600160a01b0388168787610679565b506001925050505b949350505050565b6000806104e360005490565b905060006104f060025490565b90506104fc8183610b44565b9250505090565b336001600160a01b037f0000000000000000000000000000000000000000000000000000000000000000161461054b5760405162461bcd60e51b81526004016102ba906109f9565b6000610558846012610a3d565b1561056d57610568846012610a3d565b610570565b60125b9050600061057f826064610b38565b61058a83600a610b38565b6105949085610b5c565b61059e9190610b7b565b90506000816105ad8486610b38565b6105b79190610a3d565b6001600160a01b038087166000908152600460209081526040808320938c168352929052908120805492935083929091906105f3908490610b44565b92505081905550806003600082825461060c9190610b44565b90915550506001600160a01b03871660009081526005602052604081208054849290610639908490610b44565b9250508190555081600160008282546106529190610b44565b92505081905550816002600082825461066b9190610b44565b909155505050505050505050565b604080516001600160a01b038416602482015260448082018490528251808303909101815260649091019091526020810180516001600160e01b031663a9059cbb60e01b1790526000906106ce9085906106d8565b5060019392505050565b600061072d826040518060400160405280602081526020017f5361666545524332303a206c6f772d6c6576656c2063616c6c206661696c6564815250856001600160a01b03166107af9092919063ffffffff16565b8051909150156107aa578080602001905181019061074b9190610b9d565b6107aa5760405162461bcd60e51b815260206004820152602a60248201527f5361666545524332303a204552433230206f7065726174696f6e20646964206e6044820152691bdd081cdd58d8d9595960b21b60648201526084016102ba565b505050565b60606104cf848460008585600080866001600160a01b031685876040516107d69190610bef565b60006040518083038185875af1925050503d8060008114610813576040519150601f19603f3d011682016040523d82523d6000602084013e610818565b606091505b509150915061082987838387610834565b979650505050505050565b606083156108a0578251610899576001600160a01b0385163b6108995760405162461bcd60e51b815260206004820152601d60248201527f416464726573733a2063616c6c20746f206e6f6e2d636f6e747261637400000060448201526064016102ba565b50816104cf565b6104cf83838151156108b55781518083602001fd5b8060405162461bcd60e51b81526004016102ba9190610c0b565b80356001600160a01b03811681146108e657600080fd5b919050565b60008060006060848603121561090057600080fd5b610909846108cf565b95602085013595506040909401359392505050565b6000806040838503121561093157600080fd5b61093a836108cf565b9150610948602084016108cf565b90509250929050565b6000806000806080858703121561096757600080fd5b610970856108cf565b935061097e602086016108cf565b93969395505050506040820135916060013590565b600080600080608085870312156109a957600080fd5b6109b2856108cf565b9350602085013592506109c7604086016108cf565b9396929550929360600135925050565b6000602082840312156109e957600080fd5b6109f2826108cf565b9392505050565b60208082526014908201527313db9b1e481b585b9859d95c88185b1b1bddd95960621b604082015260600190565b634e487b7160e01b600052601160045260246000fd5b600082821015610a4f57610a4f610a27565b500390565b600181815b80851115610a8f578160001904821115610a7557610a75610a27565b80851615610a8257918102915b93841c9390800290610a59565b509250929050565b600082610aa657506001610387565b81610ab357506000610387565b8160018114610ac95760028114610ad357610aef565b6001915050610387565b60ff841115610ae457610ae4610a27565b50506001821b610387565b5060208310610133831016604e8410600b8410161715610b12575081810a610387565b610b1c8383610a54565b8060001904821115610b3057610b30610a27565b029392505050565b60006109f28383610a97565b60008219821115610b5757610b57610a27565b500190565b6000816000190483118215151615610b7657610b76610a27565b500290565b600082610b9857634e487b7160e01b600052601260045260246000fd5b500490565b600060208284031215610baf57600080fd5b815180151581146109f257600080fd5b60005b83811015610bda578181015183820152602001610bc2565b83811115610be9576000848401525b50505050565b60008251610c01818460208701610bbf565b9190910192915050565b6020815260008251806020840152610c2a816040850160208701610bbf565b601f01601f1916919091016040019291505056fea26469706673582212207424f3e1bacbe56f322ea4b48da4ac6525e4b38d828a8380e6e45b1305ebda0164736f6c634300080a0033",
    "linkReferences": {}
  },
  "methodIdentifiers": {
    "BOUNTY_COMMISSION()": "c9e66d41",
    "DENOMINATOR()": "918f8674",
    "bountyPaid(address,uint256,address,uint256)": "7a76be86",
    "cummulativeCommission()": "2847e5e3",
    "cummulativeHackerPayouts()": "e679af8e",
    "hunterTokenBalance(address,address)": "8b8b7e1b",
    "manager()": "481c6a75",
    "premiumFees()": "700c9085",
    "premiumFeesCollected(address,uint256,uint256)": "0200b95f",
    "saloonTokenBalance(address)": "d30b6485",
    "saloonTotalBalance()": "1d567381",
    "viewHunterTotalTokenPayouts(address,address)": "21580322",
    "viewSaloonBalance()": "a0d07125",
    "viewTotalEarnedSaloon()": "6c948535",
    "viewTotalHackerPayouts()": "c3149590",
    "viewTotalPremiums()": "e5125d7b",
    "viewTotalSaloonCommission()": "d3326a0a",
    "withdrawSaloonFunds(address,address,uint256,uint256)": "5bcb23c7"
  },
  "id": 33
}