{
  "abi": [
    {
      "inputs": [
        {
          "internalType": "address",
          "name": "_manager",
          "type": "address"
        }
      ],
      "stateMutability": "nonpayable",
      "type": "constructor"
    },
    {
      "inputs": [],
      "name": "BOUNTY_COMMISSION",
      "outputs": [
        {
          "internalType": "uint256",
          "name": "",
          "type": "uint256"
        }
      ],
      "stateMutability": "view",
      "type": "function"
    },
    {
      "inputs": [],
      "name": "DENOMINATOR",
      "outputs": [
        {
          "internalType": "uint256",
          "name": "",
          "type": "uint256"
        }
      ],
      "stateMutability": "view",
      "type": "function"
    },
    {
      "inputs": [
        {
          "internalType": "address",
          "name": "_token",
          "type": "address"
        },
        {
          "internalType": "uint256",
          "name": "_decimals",
          "type": "uint256"
        },
        {
          "internalType": "address",
          "name": "_hunter",
          "type": "address"
        },
        {
          "internalType": "uint256",
          "name": "_amount",
          "type": "uint256"
        }
      ],
      "name": "bountyPaid",
      "outputs": [],
      "stateMutability": "nonpayable",
      "type": "function"
    },
    {
      "inputs": [],
      "name": "cummulativeCommission",
      "outputs": [
        {
          "internalType": "uint256",
          "name": "",
          "type": "uint256"
        }
      ],
      "stateMutability": "view",
      "type": "function"
    },
    {
      "inputs": [],
      "name": "cummulativeHackerPayouts",
      "outputs": [
        {
          "internalType": "uint256",
          "name": "",
          "type": "uint256"
        }
      ],
      "stateMutability": "view",
      "type": "function"
    },
    {
      "inputs": [
        {
          "internalType": "address",
          "name": "",
          "type": "address"
        },
        {
          "internalType": "address",
          "name": "",
          "type": "address"
        }
      ],
      "name": "hunterTokenBalance",
      "outputs": [
        {
          "internalType": "uint256",
          "name": "",
          "type": "uint256"
        }
      ],
      "stateMutability": "view",
      "type": "function"
    },
    {
      "inputs": [],
      "name": "manager",
      "outputs": [
        {
          "internalType": "address",
          "name": "",
          "type": "address"
        }
      ],
      "stateMutability": "view",
      "type": "function"
    },
    {
      "inputs": [],
      "name": "premiumFees",
      "outputs": [
        {
          "internalType": "uint256",
          "name": "",
          "type": "uint256"
        }
      ],
      "stateMutability": "view",
      "type": "function"
    },
    {
      "inputs": [
        {
          "internalType": "address",
          "name": "_token",
          "type": "address"
        },
        {
          "internalType": "uint256",
          "name": "_amount",
          "type": "uint256"
        }
      ],
      "name": "premiumFeesCollected",
      "outputs": [],
      "stateMutability": "nonpayable",
      "type": "function"
    },
    {
      "inputs": [
        {
          "internalType": "address",
          "name": "",
          "type": "address"
        }
      ],
      "name": "saloonTokenBalance",
      "outputs": [
        {
          "internalType": "uint256",
          "name": "",
          "type": "uint256"
        }
      ],
      "stateMutability": "view",
      "type": "function"
    },
    {
      "inputs": [],
      "name": "saloonTotalBalance",
      "outputs": [
        {
          "internalType": "uint256",
          "name": "",
          "type": "uint256"
        }
      ],
      "stateMutability": "view",
      "type": "function"
    },
    {
      "inputs": [
        {
          "internalType": "address",
          "name": "_token",
          "type": "address"
        },
        {
          "internalType": "address",
          "name": "_hunter",
          "type": "address"
        }
      ],
      "name": "viewHunterTotalTokenPayouts",
      "outputs": [
        {
          "internalType": "uint256",
          "name": "",
          "type": "uint256"
        }
      ],
      "stateMutability": "view",
      "type": "function"
    },
    {
      "inputs": [],
      "name": "viewSaloonBalance",
      "outputs": [
        {
          "internalType": "uint256",
          "name": "",
          "type": "uint256"
        }
      ],
      "stateMutability": "view",
      "type": "function"
    },
    {
      "inputs": [],
      "name": "viewTotalEarnedSaloon",
      "outputs": [
        {
          "internalType": "uint256",
          "name": "",
          "type": "uint256"
        }
      ],
      "stateMutability": "view",
      "type": "function"
    },
    {
      "inputs": [],
      "name": "viewTotalHackerPayouts",
      "outputs": [
        {
          "internalType": "uint256",
          "name": "",
          "type": "uint256"
        }
      ],
      "stateMutability": "view",
      "type": "function"
    },
    {
      "inputs": [],
      "name": "viewTotalPremiums",
      "outputs": [
        {
          "internalType": "uint256",
          "name": "",
          "type": "uint256"
        }
      ],
      "stateMutability": "view",
      "type": "function"
    },
    {
      "inputs": [],
      "name": "viewTotalSaloonCommission",
      "outputs": [
        {
          "internalType": "uint256",
          "name": "",
          "type": "uint256"
        }
      ],
      "stateMutability": "view",
      "type": "function"
    },
    {
      "inputs": [
        {
          "internalType": "address",
          "name": "_token",
          "type": "address"
        },
        {
          "internalType": "address",
          "name": "_to",
          "type": "address"
        },
        {
          "internalType": "uint256",
          "name": "_amount",
          "type": "uint256"
        }
      ],
      "name": "withdrawSaloonFunds",
      "outputs": [
        {
          "internalType": "bool",
          "name": "",
          "type": "bool"
        }
      ],
      "stateMutability": "nonpayable",
      "type": "function"
    }
  ],
  "bytecode": {
    "object": "0x60a060405234801561001057600080fd5b50604051610cc7380380610cc783398101604081905261002f91610040565b6001600160a01b0316608052610070565b60006020828403121561005257600080fd5b81516001600160a01b038116811461006957600080fd5b9392505050565b608051610c276100a06000396000818161017b0152818161027f015281816103ec015261052f0152610c276000f3fe608060405234801561001057600080fd5b50600436106101165760003560e01c80638b8b7e1b116100a2578063c9e66d4111610071578063c9e66d4114610231578063d30b648514610239578063d3326a0a14610259578063e5125d7b14610261578063e679af8e1461026957600080fd5b80638b8b7e1b146101ee578063918f867414610219578063a0d0712514610221578063c31495901461022957600080fd5b8063481c6a75116100e9578063481c6a75146101765780636c948535146101b5578063700c9085146101bd5780637a76be86146101c657806383ab9304146101db57600080fd5b806317cbc8f61461011b5780631d56738114610143578063215803221461015a5780632847e5e31461016d575b600080fd5b61012e6101293660046108ad565b610272565b60405190151581526020015b60405180910390f35b61014c60015481565b60405190815260200161013a565b61014c6101683660046108e9565b610388565b61014c60025481565b61019d7f000000000000000000000000000000000000000000000000000000000000000081565b6040516001600160a01b03909116815260200161013a565b61014c6103b5565b61014c60005481565b6101d96101d436600461091c565b6103e1565b005b6101d96101e9366004610960565b610524565b61014c6101fc3660046108e9565b600460209081526000928352604080842090915290825290205481565b61014c606481565b60015461014c565b60035461014c565b61014c600a81565b61014c61024736600461098a565b60056020526000908152604090205481565b60025461014c565b60005461014c565b61014c60035481565b6000336001600160a01b037f000000000000000000000000000000000000000000000000000000000000000016146102c55760405162461bcd60e51b81526004016102bc906109ac565b60405180910390fd5b6001600160a01b0384166000908152600560205260409020548211156103225760405162461bcd60e51b81526020600482015260126024820152716e6f7420656e6f7567682062616c616e636560701b60448201526064016102bc565b6001600160a01b0384166000908152600560205260408120805484929061034a9084906109f0565b92505081905550816001600082825461036391906109f0565b9091555061037d90506001600160a01b03851684846105ce565b506001949350505050565b6001600160a01b038082166000908152600460209081526040808320938616835292905220545b92915050565b6000806103c160005490565b905060006103ce60025490565b90506103da8183610a07565b9250505090565b336001600160a01b037f000000000000000000000000000000000000000000000000000000000000000016146104295760405162461bcd60e51b81526004016102bc906109ac565b6000610436846064610b03565b61044185600a610b03565b61044b9084610b0f565b6104559190610b2e565b9050600061046382846109f0565b6001600160a01b038086166000908152600460209081526040808320938b1683529290529081208054929350839290919061049f908490610a07565b9250508190555080600360008282546104b89190610a07565b90915550506001600160a01b038616600090815260056020526040812080548492906104e5908490610a07565b9250508190555081600160008282546104fe9190610a07565b9250508190555081600260008282546105179190610a07565b9091555050505050505050565b336001600160a01b037f0000000000000000000000000000000000000000000000000000000000000000161461056c5760405162461bcd60e51b81526004016102bc906109ac565b6001600160a01b03821660009081526005602052604081208054839290610594908490610a07565b92505081905550806000808282546105ac9190610a07565b9250508190555080600160008282546105c59190610a07565b90915550505050565b604080516001600160a01b038416602482015260448082018490528251808303909101815260649091019091526020810180516001600160e01b031663a9059cbb60e01b17905260009061062390859061062d565b5060019392505050565b6000610682826040518060400160405280602081526020017f5361666545524332303a206c6f772d6c6576656c2063616c6c206661696c6564815250856001600160a01b03166107049092919063ffffffff16565b8051909150156106ff57808060200190518101906106a09190610b50565b6106ff5760405162461bcd60e51b815260206004820152602a60248201527f5361666545524332303a204552433230206f7065726174696f6e20646964206e6044820152691bdd081cdd58d8d9595960b21b60648201526084016102bc565b505050565b6060610713848460008561071b565b949350505050565b60608247101561077c5760405162461bcd60e51b815260206004820152602660248201527f416464726573733a20696e73756666696369656e742062616c616e636520666f6044820152651c8818d85b1b60d21b60648201526084016102bc565b600080866001600160a01b031685876040516107989190610ba2565b60006040518083038185875af1925050503d80600081146107d5576040519150601f19603f3d011682016040523d82523d6000602084013e6107da565b606091505b50915091506107eb878383876107f6565b979650505050505050565b6060831561086257825161085b576001600160a01b0385163b61085b5760405162461bcd60e51b815260206004820152601d60248201527f416464726573733a2063616c6c20746f206e6f6e2d636f6e747261637400000060448201526064016102bc565b5081610713565b61071383838151156108775781518083602001fd5b8060405162461bcd60e51b81526004016102bc9190610bbe565b80356001600160a01b03811681146108a857600080fd5b919050565b6000806000606084860312156108c257600080fd5b6108cb84610891565b92506108d960208501610891565b9150604084013590509250925092565b600080604083850312156108fc57600080fd5b61090583610891565b915061091360208401610891565b90509250929050565b6000806000806080858703121561093257600080fd5b61093b85610891565b93506020850135925061095060408601610891565b9396929550929360600135925050565b6000806040838503121561097357600080fd5b61097c83610891565b946020939093013593505050565b60006020828403121561099c57600080fd5b6109a582610891565b9392505050565b60208082526014908201527313db9b1e481b585b9859d95c88185b1b1bddd95960621b604082015260600190565b634e487b7160e01b600052601160045260246000fd5b600082821015610a0257610a026109da565b500390565b60008219821115610a1a57610a1a6109da565b500190565b600181815b80851115610a5a578160001904821115610a4057610a406109da565b80851615610a4d57918102915b93841c9390800290610a24565b509250929050565b600082610a71575060016103af565b81610a7e575060006103af565b8160018114610a945760028114610a9e57610aba565b60019150506103af565b60ff841115610aaf57610aaf6109da565b50506001821b6103af565b5060208310610133831016604e8410600b8410161715610add575081810a6103af565b610ae78383610a1f565b8060001904821115610afb57610afb6109da565b029392505050565b60006109a58383610a62565b6000816000190483118215151615610b2957610b296109da565b500290565b600082610b4b57634e487b7160e01b600052601260045260246000fd5b500490565b600060208284031215610b6257600080fd5b815180151581146109a557600080fd5b60005b83811015610b8d578181015183820152602001610b75565b83811115610b9c576000848401525b50505050565b60008251610bb4818460208701610b72565b9190910192915050565b6020815260008251806020840152610bdd816040850160208701610b72565b601f01601f1916919091016040019291505056fea2646970667358221220c5dd80299e210d8f3707d3f84575a237bba63d8ba555560b709520aaf55f14c964736f6c634300080a0033",
    "linkReferences": {}
  },
  "methodIdentifiers": {
    "BOUNTY_COMMISSION()": "c9e66d41",
    "DENOMINATOR()": "918f8674",
    "bountyPaid(address,uint256,address,uint256)": "7a76be86",
    "cummulativeCommission()": "2847e5e3",
    "cummulativeHackerPayouts()": "e679af8e",
    "hunterTokenBalance(address,address)": "8b8b7e1b",
    "manager()": "481c6a75",
    "premiumFees()": "700c9085",
    "premiumFeesCollected(address,uint256)": "83ab9304",
    "saloonTokenBalance(address)": "d30b6485",
    "saloonTotalBalance()": "1d567381",
    "viewHunterTotalTokenPayouts(address,address)": "21580322",
    "viewSaloonBalance()": "a0d07125",
    "viewTotalEarnedSaloon()": "6c948535",
    "viewTotalHackerPayouts()": "c3149590",
    "viewTotalPremiums()": "e5125d7b",
    "viewTotalSaloonCommission()": "d3326a0a",
    "withdrawSaloonFunds(address,address,uint256)": "17cbc8f6"
  },
  "id": 33
}