{
  "abi": [
    {
      "anonymous": false,
      "inputs": [
        {
          "indexed": false,
          "internalType": "address",
          "name": "previousAdmin",
          "type": "address"
        },
        {
          "indexed": false,
          "internalType": "address",
          "name": "newAdmin",
          "type": "address"
        }
      ],
      "name": "AdminChanged",
      "type": "event"
    },
    {
      "anonymous": false,
      "inputs": [
        {
          "indexed": true,
          "internalType": "address",
          "name": "owner",
          "type": "address"
        },
        {
          "indexed": true,
          "internalType": "address",
          "name": "approved",
          "type": "address"
        },
        {
          "indexed": true,
          "internalType": "uint256",
          "name": "tokenId",
          "type": "uint256"
        }
      ],
      "name": "Approval",
      "type": "event"
    },
    {
      "anonymous": false,
      "inputs": [
        {
          "indexed": true,
          "internalType": "address",
          "name": "owner",
          "type": "address"
        },
        {
          "indexed": true,
          "internalType": "address",
          "name": "operator",
          "type": "address"
        },
        {
          "indexed": false,
          "internalType": "bool",
          "name": "approved",
          "type": "bool"
        }
      ],
      "name": "ApprovalForAll",
      "type": "event"
    },
    {
      "anonymous": false,
      "inputs": [
        {
          "indexed": true,
          "internalType": "address",
          "name": "beacon",
          "type": "address"
        }
      ],
      "name": "BeaconUpgraded",
      "type": "event"
    },
    {
      "anonymous": false,
      "inputs": [
        {
          "indexed": true,
          "internalType": "uint256",
          "name": "pid",
          "type": "uint256"
        },
        {
          "indexed": false,
          "internalType": "uint256",
          "name": "oldAmount",
          "type": "uint256"
        },
        {
          "indexed": false,
          "internalType": "uint256",
          "name": "newAmount",
          "type": "uint256"
        }
      ],
      "name": "BountyBalanceChanged",
      "type": "event"
    },
    {
      "anonymous": false,
      "inputs": [
        {
          "indexed": true,
          "internalType": "address",
          "name": "hunter",
          "type": "address"
        },
        {
          "indexed": true,
          "internalType": "address",
          "name": "token",
          "type": "address"
        },
        {
          "indexed": false,
          "internalType": "uint256",
          "name": "amount",
          "type": "uint256"
        }
      ],
      "name": "BountyPaid",
      "type": "event"
    },
    {
      "anonymous": false,
      "inputs": [
        {
          "indexed": false,
          "internalType": "uint8",
          "name": "version",
          "type": "uint8"
        }
      ],
      "name": "Initialized",
      "type": "event"
    },
    {
      "anonymous": false,
      "inputs": [
        {
          "indexed": true,
          "internalType": "uint256",
          "name": "pid",
          "type": "uint256"
        },
        {
          "indexed": true,
          "internalType": "address",
          "name": "token",
          "type": "address"
        },
        {
          "indexed": false,
          "internalType": "uint256",
          "name": "tokenDecimals",
          "type": "uint256"
        }
      ],
      "name": "NewBountyDeployed",
      "type": "event"
    },
    {
      "anonymous": false,
      "inputs": [
        {
          "indexed": true,
          "internalType": "address",
          "name": "previousOwner",
          "type": "address"
        },
        {
          "indexed": true,
          "internalType": "address",
          "name": "newOwner",
          "type": "address"
        }
      ],
      "name": "OwnershipTransferred",
      "type": "event"
    },
    {
      "anonymous": false,
      "inputs": [
        {
          "indexed": true,
          "internalType": "uint256",
          "name": "pid",
          "type": "uint256"
        },
        {
          "indexed": false,
          "internalType": "uint256",
          "name": "amount",
          "type": "uint256"
        }
      ],
      "name": "PremiumBilled",
      "type": "event"
    },
    {
      "anonymous": false,
      "inputs": [
        {
          "indexed": true,
          "internalType": "address",
          "name": "user",
          "type": "address"
        },
        {
          "indexed": true,
          "internalType": "uint256",
          "name": "pid",
          "type": "uint256"
        },
        {
          "indexed": false,
          "internalType": "uint256",
          "name": "amount",
          "type": "uint256"
        }
      ],
      "name": "Staked",
      "type": "event"
    },
    {
      "anonymous": false,
      "inputs": [
        {
          "indexed": true,
          "internalType": "address",
          "name": "from",
          "type": "address"
        },
        {
          "indexed": true,
          "internalType": "address",
          "name": "to",
          "type": "address"
        },
        {
          "indexed": true,
          "internalType": "uint256",
          "name": "tokenId",
          "type": "uint256"
        }
      ],
      "name": "Transfer",
      "type": "event"
    },
    {
      "anonymous": false,
      "inputs": [
        {
          "indexed": true,
          "internalType": "address",
          "name": "user",
          "type": "address"
        },
        {
          "indexed": true,
          "internalType": "uint256",
          "name": "pid",
          "type": "uint256"
        },
        {
          "indexed": false,
          "internalType": "uint256",
          "name": "amount",
          "type": "uint256"
        }
      ],
      "name": "Unstaked",
      "type": "event"
    },
    {
      "anonymous": false,
      "inputs": [
        {
          "indexed": true,
          "internalType": "address",
          "name": "implementation",
          "type": "address"
        }
      ],
      "name": "Upgraded",
      "type": "event"
    },
    {
      "anonymous": false,
      "inputs": [
        {
          "indexed": true,
          "internalType": "uint256",
          "name": "pid",
          "type": "uint256"
        },
        {
          "indexed": false,
          "internalType": "uint256",
          "name": "amount",
          "type": "uint256"
        }
      ],
      "name": "WithdrawalOrUnstakeScheduled",
      "type": "event"
    },
    {
      "anonymous": false,
      "inputs": [
        {
          "indexed": true,
          "internalType": "address",
          "name": "referrer",
          "type": "address"
        },
        {
          "indexed": false,
          "internalType": "uint256",
          "name": "amount",
          "type": "uint256"
        }
      ],
      "name": "referralPaid",
      "type": "event"
    },
    {
      "anonymous": false,
      "inputs": [
        {
          "indexed": true,
          "internalType": "address",
          "name": "token",
          "type": "address"
        },
        {
          "indexed": true,
          "internalType": "bool",
          "name": "whitelisted",
          "type": "bool"
        }
      ],
      "name": "tokenWhitelistUpdated",
      "type": "event"
    },
    {
      "inputs": [],
      "name": "acceptOwnershipTransfer",
      "outputs": [],
      "stateMutability": "nonpayable",
      "type": "function"
    },
    {
      "inputs": [
        {
          "internalType": "uint256",
          "name": "",
          "type": "uint256"
        }
      ],
      "name": "activeStrategies",
      "outputs": [
        {
          "internalType": "bytes32",
          "name": "",
          "type": "bytes32"
        }
      ],
      "stateMutability": "view",
      "type": "function"
    },
    {
      "inputs": [
        {
          "internalType": "uint256",
          "name": "",
          "type": "uint256"
        }
      ],
      "name": "activeTokens",
      "outputs": [
        {
          "internalType": "address",
          "name": "",
          "type": "address"
        }
      ],
      "stateMutability": "view",
      "type": "function"
    },
    {
      "inputs": [
        {
          "internalType": "address",
          "name": "_token",
          "type": "address"
        },
        {
          "internalType": "address",
          "name": "_projectWallet",
          "type": "address"
        },
        {
          "internalType": "string",
          "name": "_projectName",
          "type": "string"
        },
        {
          "internalType": "address",
          "name": "_referrer",
          "type": "address"
        },
        {
          "internalType": "uint256",
          "name": "_referralFee",
          "type": "uint256"
        },
        {
          "internalType": "uint256",
          "name": "_referralEndTime",
          "type": "uint256"
        }
      ],
      "name": "addNewBountyPool",
      "outputs": [
        {
          "internalType": "uint256",
          "name": "",
          "type": "uint256"
        }
      ],
      "stateMutability": "nonpayable",
      "type": "function"
    },
    {
      "inputs": [
        {
          "internalType": "address",
          "name": "to",
          "type": "address"
        },
        {
          "internalType": "uint256",
          "name": "tokenId",
          "type": "uint256"
        }
      ],
      "name": "approve",
      "outputs": [],
      "stateMutability": "nonpayable",
      "type": "function"
    },
    {
      "inputs": [
        {
          "internalType": "address",
          "name": "owner",
          "type": "address"
        }
      ],
      "name": "balanceOf",
      "outputs": [
        {
          "internalType": "uint256",
          "name": "",
          "type": "uint256"
        }
      ],
      "stateMutability": "view",
      "type": "function"
    },
    {
      "inputs": [
        {
          "internalType": "uint256",
          "name": "_pid",
          "type": "uint256"
        }
      ],
      "name": "billPremium",
      "outputs": [
        {
          "internalType": "bool",
          "name": "",
          "type": "bool"
        }
      ],
      "stateMutability": "nonpayable",
      "type": "function"
    },
    {
      "inputs": [
        {
          "internalType": "uint256",
          "name": "_poolCap",
          "type": "uint256"
        },
        {
          "internalType": "uint256",
          "name": "_apy",
          "type": "uint256"
        }
      ],
      "name": "calcRequiredPremiumBalancePerPeriod",
      "outputs": [
        {
          "internalType": "uint256",
          "name": "requiredPremiumBalance",
          "type": "uint256"
        }
      ],
      "stateMutability": "pure",
      "type": "function"
    },
    {
      "inputs": [
        {
          "internalType": "uint256",
          "name": "_pid",
          "type": "uint256"
        },
        {
          "internalType": "uint256",
          "name": "_stake",
          "type": "uint256"
        },
        {
          "internalType": "uint256",
          "name": "_x",
          "type": "uint256"
        }
      ],
      "name": "calculateEffectiveAPY",
      "outputs": [
        {
          "internalType": "uint256",
          "name": "scaledAPY",
          "type": "uint256"
        }
      ],
      "stateMutability": "view",
      "type": "function"
    },
    {
      "inputs": [
        {
          "internalType": "uint256",
          "name": "_tokenId",
          "type": "uint256"
        }
      ],
      "name": "claimPremium",
      "outputs": [],
      "stateMutability": "nonpayable",
      "type": "function"
    },
    {
      "inputs": [],
      "name": "collectAllReferralProfits",
      "outputs": [
        {
          "internalType": "bool",
          "name": "",
          "type": "bool"
        }
      ],
      "stateMutability": "nonpayable",
      "type": "function"
    },
    {
      "inputs": [
        {
          "internalType": "address",
          "name": "_saloonWallet",
          "type": "address"
        }
      ],
      "name": "collectAllSaloonProfits",
      "outputs": [
        {
          "internalType": "bool",
          "name": "",
          "type": "bool"
        }
      ],
      "stateMutability": "nonpayable",
      "type": "function"
    },
    {
      "inputs": [
        {
          "internalType": "address",
          "name": "_token",
          "type": "address"
        }
      ],
      "name": "collectReferralProfit",
      "outputs": [
        {
          "internalType": "bool",
          "name": "",
          "type": "bool"
        }
      ],
      "stateMutability": "nonpayable",
      "type": "function"
    },
    {
      "inputs": [
        {
          "internalType": "address",
          "name": "_token",
          "type": "address"
        },
        {
          "internalType": "address",
          "name": "_saloonWallet",
          "type": "address"
        }
      ],
      "name": "collectSaloonProfits",
      "outputs": [
        {
          "internalType": "bool",
          "name": "",
          "type": "bool"
        }
      ],
      "stateMutability": "nonpayable",
      "type": "function"
    },
    {
      "inputs": [
        {
          "internalType": "uint256",
          "name": "_pid",
          "type": "uint256"
        }
      ],
      "name": "consolidate",
      "outputs": [],
      "stateMutability": "nonpayable",
      "type": "function"
    },
    {
      "inputs": [],
      "name": "consolidateAll",
      "outputs": [],
      "stateMutability": "nonpayable",
      "type": "function"
    },
    {
      "inputs": [
        {
          "internalType": "uint256",
          "name": "_pid",
          "type": "uint256"
        },
        {
          "internalType": "uint256",
          "name": "_endTime",
          "type": "uint256"
        }
      ],
      "name": "extendReferralPeriod",
      "outputs": [],
      "stateMutability": "nonpayable",
      "type": "function"
    },
    {
      "inputs": [
        {
          "internalType": "address",
          "name": "_owner",
          "type": "address"
        }
      ],
      "name": "getAllTokensByOwner",
      "outputs": [
        {
          "components": [
            {
              "internalType": "uint256",
              "name": "pid",
              "type": "uint256"
            },
            {
              "internalType": "uint256",
              "name": "amount",
              "type": "uint256"
            },
            {
              "internalType": "uint256",
              "name": "xDelta",
              "type": "uint256"
            },
            {
              "internalType": "uint256",
              "name": "apy",
              "type": "uint256"
            },
            {
              "internalType": "uint256",
              "name": "unclaimed",
              "type": "uint256"
            },
            {
              "internalType": "uint256",
              "name": "lastClaimedTime",
              "type": "uint256"
            },
            {
              "internalType": "uint256",
              "name": "timelock",
              "type": "uint256"
            },
            {
              "internalType": "uint256",
              "name": "timelimit",
              "type": "uint256"
            }
          ],
          "internalType": "struct ISaloon.NFTInfo[]",
          "name": "userTokens",
          "type": "tuple[]"
        }
      ],
      "stateMutability": "view",
      "type": "function"
    },
    {
      "inputs": [
        {
          "internalType": "uint256",
          "name": "tokenId",
          "type": "uint256"
        }
      ],
      "name": "getApproved",
      "outputs": [
        {
          "internalType": "address",
          "name": "",
          "type": "address"
        }
      ],
      "stateMutability": "view",
      "type": "function"
    },
    {
      "inputs": [
        {
          "internalType": "uint256",
          "name": "_pid",
          "type": "uint256"
        }
      ],
      "name": "getCurrentAPY",
      "outputs": [
        {
          "internalType": "uint256",
          "name": "currentAPY",
          "type": "uint256"
        }
      ],
      "stateMutability": "view",
      "type": "function"
    },
    {
      "inputs": [],
      "name": "index",
      "outputs": [
        {
          "internalType": "uint256",
          "name": "",
          "type": "uint256"
        }
      ],
      "stateMutability": "view",
      "type": "function"
    },
    {
      "inputs": [
        {
          "internalType": "address",
          "name": "_strategyFactory",
          "type": "address"
        }
      ],
      "name": "initialize",
      "outputs": [],
      "stateMutability": "nonpayable",
      "type": "function"
    },
    {
      "inputs": [
        {
          "internalType": "address",
          "name": "owner",
          "type": "address"
        },
        {
          "internalType": "address",
          "name": "operator",
          "type": "address"
        }
      ],
      "name": "isApprovedForAll",
      "outputs": [
        {
          "internalType": "bool",
          "name": "",
          "type": "bool"
        }
      ],
      "stateMutability": "view",
      "type": "function"
    },
    {
      "inputs": [
        {
          "internalType": "address",
          "name": "",
          "type": "address"
        }
      ],
      "name": "minTokenStakeAmount",
      "outputs": [
        {
          "internalType": "uint256",
          "name": "",
          "type": "uint256"
        }
      ],
      "stateMutability": "view",
      "type": "function"
    },
    {
      "inputs": [],
      "name": "name",
      "outputs": [
        {
          "internalType": "string",
          "name": "",
          "type": "string"
        }
      ],
      "stateMutability": "view",
      "type": "function"
    },
    {
      "inputs": [
        {
          "internalType": "uint256",
          "name": "",
          "type": "uint256"
        }
      ],
      "name": "nftInfo",
      "outputs": [
        {
          "internalType": "uint256",
          "name": "pid",
          "type": "uint256"
        },
        {
          "internalType": "uint256",
          "name": "amount",
          "type": "uint256"
        },
        {
          "internalType": "uint256",
          "name": "xDelta",
          "type": "uint256"
        },
        {
          "internalType": "uint256",
          "name": "apy",
          "type": "uint256"
        },
        {
          "internalType": "uint256",
          "name": "unclaimed",
          "type": "uint256"
        },
        {
          "internalType": "uint256",
          "name": "lastClaimedTime",
          "type": "uint256"
        },
        {
          "internalType": "uint256",
          "name": "timelock",
          "type": "uint256"
        },
        {
          "internalType": "uint256",
          "name": "timelimit",
          "type": "uint256"
        }
      ],
      "stateMutability": "view",
      "type": "function"
    },
    {
      "inputs": [],
      "name": "owner",
      "outputs": [
        {
          "internalType": "address",
          "name": "",
          "type": "address"
        }
      ],
      "stateMutability": "view",
      "type": "function"
    },
    {
      "inputs": [
        {
          "internalType": "uint256",
          "name": "tokenId",
          "type": "uint256"
        }
      ],
      "name": "ownerOf",
      "outputs": [
        {
          "internalType": "address",
          "name": "",
          "type": "address"
        }
      ],
      "stateMutability": "view",
      "type": "function"
    },
    {
      "inputs": [
        {
          "internalType": "uint256",
          "name": "__pid",
          "type": "uint256"
        },
        {
          "internalType": "address",
          "name": "_hunter",
          "type": "address"
        },
        {
          "internalType": "uint16",
          "name": "_payoutBPS",
          "type": "uint16"
        },
        {
          "internalType": "uint16",
          "name": "_hunterBonusBPS",
          "type": "uint16"
        }
      ],
      "name": "payBounty",
      "outputs": [],
      "stateMutability": "nonpayable",
      "type": "function"
    },
    {
      "inputs": [
        {
          "internalType": "uint256",
          "name": "",
          "type": "uint256"
        },
        {
          "internalType": "uint256",
          "name": "",
          "type": "uint256"
        }
      ],
      "name": "pidNFTList",
      "outputs": [
        {
          "internalType": "uint256",
          "name": "",
          "type": "uint256"
        }
      ],
      "stateMutability": "view",
      "type": "function"
    },
    {
      "inputs": [
        {
          "internalType": "uint256",
          "name": "",
          "type": "uint256"
        },
        {
          "internalType": "bytes32",
          "name": "",
          "type": "bytes32"
        }
      ],
      "name": "pidStrategies",
      "outputs": [
        {
          "internalType": "address",
          "name": "",
          "type": "address"
        }
      ],
      "stateMutability": "view",
      "type": "function"
    },
    {
      "inputs": [
        {
          "internalType": "uint256",
          "name": "",
          "type": "uint256"
        }
      ],
      "name": "poolInfo",
      "outputs": [
        {
          "components": [
            {
              "internalType": "contract IERC20",
              "name": "token",
              "type": "address"
            },
            {
              "internalType": "uint8",
              "name": "tokenDecimals",
              "type": "uint8"
            },
            {
              "internalType": "uint16",
              "name": "apy",
              "type": "uint16"
            },
            {
              "internalType": "address",
              "name": "projectWallet",
              "type": "address"
            },
            {
              "internalType": "string",
              "name": "projectName",
              "type": "string"
            },
            {
              "internalType": "uint256",
              "name": "poolCap",
              "type": "uint256"
            },
            {
              "internalType": "uint256",
              "name": "totalStaked",
              "type": "uint256"
            },
            {
              "internalType": "uint256",
              "name": "scalingMultiplier",
              "type": "uint256"
            }
          ],
          "internalType": "struct ISaloon.GeneralInfo",
          "name": "generalInfo",
          "type": "tuple"
        },
        {
          "components": [
            {
              "internalType": "uint256",
              "name": "projectDepositHeld",
              "type": "uint256"
            },
            {
              "internalType": "uint256",
              "name": "projectDepositInStrategy",
              "type": "uint256"
            }
          ],
          "internalType": "struct ISaloon.DepositInfo",
          "name": "depositInfo",
          "type": "tuple"
        },
        {
          "components": [
            {
              "internalType": "uint256",
              "name": "premiumBalance",
              "type": "uint256"
            },
            {
              "internalType": "uint256",
              "name": "premiumAvailable",
              "type": "uint256"
            }
          ],
          "internalType": "struct ISaloon.PremiumInfo",
          "name": "premiumInfo",
          "type": "tuple"
        },
        {
          "components": [
            {
              "internalType": "uint256",
              "name": "timelock",
              "type": "uint256"
            },
            {
              "internalType": "uint256",
              "name": "timeLimit",
              "type": "uint256"
            },
            {
              "internalType": "uint256",
              "name": "withdrawalScheduledAmount",
              "type": "uint256"
            },
            {
              "internalType": "bool",
              "name": "withdrawalExecuted",
              "type": "bool"
            }
          ],
          "internalType": "struct ISaloon.TimelockInfo",
          "name": "poolTimelock",
          "type": "tuple"
        },
        {
          "components": [
            {
              "internalType": "uint256",
              "name": "currentX",
              "type": "uint256"
            },
            {
              "internalType": "uint256",
              "name": "currentY",
              "type": "uint256"
            },
            {
              "internalType": "uint256",
              "name": "totalSupply",
              "type": "uint256"
            },
            {
              "internalType": "uint256[]",
              "name": "unstakedTokens",
              "type": "uint256[]"
            }
          ],
          "internalType": "struct ISaloon.CurveInfo",
          "name": "curveInfo",
          "type": "tuple"
        },
        {
          "components": [
            {
              "internalType": "address",
              "name": "referrer",
              "type": "address"
            },
            {
              "internalType": "uint256",
              "name": "referralFee",
              "type": "uint256"
            },
            {
              "internalType": "uint256",
              "name": "endTime",
              "type": "uint256"
            }
          ],
          "internalType": "struct ISaloon.ReferralInfo",
          "name": "referralInfo",
          "type": "tuple"
        },
        {
          "internalType": "uint256",
          "name": "freezeTime",
          "type": "uint256"
        },
        {
          "internalType": "bool",
          "name": "isActive",
          "type": "bool"
        }
      ],
      "stateMutability": "view",
      "type": "function"
    },
    {
      "inputs": [],
      "name": "proxiableUUID",
      "outputs": [
        {
          "internalType": "bytes32",
          "name": "",
          "type": "bytes32"
        }
      ],
      "stateMutability": "view",
      "type": "function"
    },
    {
      "inputs": [
        {
          "internalType": "address",
          "name": "_token",
          "type": "address"
        },
        {
          "internalType": "uint256",
          "name": "_amount",
          "type": "uint256"
        }
      ],
      "name": "receiveStrategyYield",
      "outputs": [],
      "stateMutability": "nonpayable",
      "type": "function"
    },
    {
      "inputs": [
        {
          "internalType": "address",
          "name": "",
          "type": "address"
        },
        {
          "internalType": "address",
          "name": "",
          "type": "address"
        }
      ],
      "name": "referralBalances",
      "outputs": [
        {
          "internalType": "uint256",
          "name": "",
          "type": "uint256"
        }
      ],
      "stateMutability": "view",
      "type": "function"
    },
    {
      "inputs": [
        {
          "internalType": "address",
          "name": "from",
          "type": "address"
        },
        {
          "internalType": "address",
          "name": "to",
          "type": "address"
        },
        {
          "internalType": "uint256",
          "name": "tokenId",
          "type": "uint256"
        }
      ],
      "name": "safeTransferFrom",
      "outputs": [],
      "stateMutability": "nonpayable",
      "type": "function"
    },
    {
      "inputs": [
        {
          "internalType": "address",
          "name": "from",
          "type": "address"
        },
        {
          "internalType": "address",
          "name": "to",
          "type": "address"
        },
        {
          "internalType": "uint256",
          "name": "tokenId",
          "type": "uint256"
        },
        {
          "internalType": "bytes",
          "name": "data",
          "type": "bytes"
        }
      ],
      "name": "safeTransferFrom",
      "outputs": [],
      "stateMutability": "nonpayable",
      "type": "function"
    },
    {
      "inputs": [
        {
          "internalType": "address",
          "name": "",
          "type": "address"
        }
      ],
      "name": "saloonBountyProfit",
      "outputs": [
        {
          "internalType": "uint256",
          "name": "",
          "type": "uint256"
        }
      ],
      "stateMutability": "view",
      "type": "function"
    },
    {
      "inputs": [
        {
          "internalType": "address",
          "name": "",
          "type": "address"
        }
      ],
      "name": "saloonPremiumProfit",
      "outputs": [
        {
          "internalType": "uint256",
          "name": "",
          "type": "uint256"
        }
      ],
      "stateMutability": "view",
      "type": "function"
    },
    {
      "inputs": [
        {
          "internalType": "address",
          "name": "",
          "type": "address"
        }
      ],
      "name": "saloonStrategyProfit",
      "outputs": [
        {
          "internalType": "uint256",
          "name": "",
          "type": "uint256"
        }
      ],
      "stateMutability": "view",
      "type": "function"
    },
    {
      "inputs": [
        {
          "internalType": "uint256",
          "name": "_tokenId",
          "type": "uint256"
        }
      ],
      "name": "scheduleUnstake",
      "outputs": [
        {
          "internalType": "bool",
          "name": "",
          "type": "bool"
        }
      ],
      "stateMutability": "nonpayable",
      "type": "function"
    },
    {
      "inputs": [
        {
          "internalType": "address",
          "name": "operator",
          "type": "address"
        },
        {
          "internalType": "bool",
          "name": "approved",
          "type": "bool"
        }
      ],
      "name": "setApprovalForAll",
      "outputs": [],
      "stateMutability": "nonpayable",
      "type": "function"
    },
    {
      "inputs": [
        {
          "internalType": "uint256",
          "name": "_pid",
          "type": "uint256"
        },
        {
          "internalType": "uint256",
          "name": "_amount",
          "type": "uint256"
        }
      ],
      "name": "stake",
      "outputs": [
        {
          "internalType": "uint256",
          "name": "",
          "type": "uint256"
        }
      ],
      "stateMutability": "nonpayable",
      "type": "function"
    },
    {
      "inputs": [
        {
          "internalType": "address",
          "name": "",
          "type": "address"
        }
      ],
      "name": "strategyAddressToPid",
      "outputs": [
        {
          "internalType": "uint256",
          "name": "",
          "type": "uint256"
        }
      ],
      "stateMutability": "view",
      "type": "function"
    },
    {
      "inputs": [
        {
          "internalType": "bytes4",
          "name": "interfaceId",
          "type": "bytes4"
        }
      ],
      "name": "supportsInterface",
      "outputs": [
        {
          "internalType": "bool",
          "name": "",
          "type": "bool"
        }
      ],
      "stateMutability": "view",
      "type": "function"
    },
    {
      "inputs": [],
      "name": "symbol",
      "outputs": [
        {
          "internalType": "string",
          "name": "",
          "type": "string"
        }
      ],
      "stateMutability": "view",
      "type": "function"
    },
    {
      "inputs": [
        {
          "internalType": "uint256",
          "name": "tokenId",
          "type": "uint256"
        }
      ],
      "name": "tokenURI",
      "outputs": [
        {
          "internalType": "string",
          "name": "",
          "type": "string"
        }
      ],
      "stateMutability": "view",
      "type": "function"
    },
    {
      "inputs": [
        {
          "internalType": "address",
          "name": "",
          "type": "address"
        }
      ],
      "name": "tokenWhitelist",
      "outputs": [
        {
          "internalType": "bool",
          "name": "",
          "type": "bool"
        }
      ],
      "stateMutability": "view",
      "type": "function"
    },
    {
      "inputs": [
        {
          "internalType": "address",
          "name": "from",
          "type": "address"
        },
        {
          "internalType": "address",
          "name": "to",
          "type": "address"
        },
        {
          "internalType": "uint256",
          "name": "tokenId",
          "type": "uint256"
        }
      ],
      "name": "transferFrom",
      "outputs": [],
      "stateMutability": "nonpayable",
      "type": "function"
    },
    {
      "inputs": [
        {
          "internalType": "address",
          "name": "newOwner",
          "type": "address"
        }
      ],
      "name": "transferOwnership",
      "outputs": [],
      "stateMutability": "nonpayable",
      "type": "function"
    },
    {
      "inputs": [
        {
          "internalType": "uint256",
          "name": "_tokenId",
          "type": "uint256"
        },
        {
          "internalType": "bool",
          "name": "_shouldHarvest",
          "type": "bool"
        }
      ],
      "name": "unstake",
      "outputs": [
        {
          "internalType": "bool",
          "name": "",
          "type": "bool"
        }
      ],
      "stateMutability": "nonpayable",
      "type": "function"
    },
    {
      "inputs": [
        {
          "internalType": "address",
          "name": "_token",
          "type": "address"
        },
        {
          "internalType": "bool",
          "name": "_whitelisted",
          "type": "bool"
        },
        {
          "internalType": "uint256",
          "name": "_minStakeAmount",
          "type": "uint256"
        }
      ],
      "name": "updateTokenWhitelist",
      "outputs": [
        {
          "internalType": "bool",
          "name": "",
          "type": "bool"
        }
      ],
      "stateMutability": "nonpayable",
      "type": "function"
    },
    {
      "inputs": [
        {
          "internalType": "address",
          "name": "newImplementation",
          "type": "address"
        }
      ],
      "name": "upgradeTo",
      "outputs": [],
      "stateMutability": "nonpayable",
      "type": "function"
    },
    {
      "inputs": [
        {
          "internalType": "address",
          "name": "newImplementation",
          "type": "address"
        },
        {
          "internalType": "bytes",
          "name": "data",
          "type": "bytes"
        }
      ],
      "name": "upgradeToAndCall",
      "outputs": [],
      "stateMutability": "payable",
      "type": "function"
    },
    {
      "inputs": [
        {
          "internalType": "uint256",
          "name": "_pid",
          "type": "uint256"
        }
      ],
      "name": "viewBountyBalance",
      "outputs": [
        {
          "internalType": "uint256",
          "name": "",
          "type": "uint256"
        }
      ],
      "stateMutability": "view",
      "type": "function"
    }
  ],
  "bytecode": {
    "object": "0x60a0604052306080523480156200001557600080fd5b50600054610100900460ff1615808015620000375750600054600160ff909116105b8062000067575062000054306200019260201b62003bda1760201c565b15801562000067575060005460ff166001145b620000d05760405162461bcd60e51b815260206004820152602e60248201527f496e697469616c697a61626c653a20636f6e747261637420697320616c72656160448201526d191e481a5b9a5d1a585b1a5e995960921b60648201526084015b60405180910390fd5b6000805460ff191660011790558015620000f4576000805461ff0019166101001790555b620001446040518060400160405280600b81526020016a2137bab73a3caa37b5b2b760a91b8152506040518060400160405280600381526020016210951560ea1b815250620001a160201b60201c565b80156200018b576000805461ff0019169055604051600181527f7f26b83ff96e1f2b6a682f133852f6798a09c465da95921460cefb38474024989060200160405180910390a15b50620003fd565b6001600160a01b03163b151590565b600054610100900460ff16620001fd5760405162461bcd60e51b815260206004820152602b602482015260008051602062006c1f83398151915260448201526a6e697469616c697a696e6760a81b6064820152608401620000c7565b6200020982826200020d565b5050565b600054610100900460ff16620002695760405162461bcd60e51b815260206004820152602b602482015260008051602062006c1f83398151915260448201526a6e697469616c697a696e6760a81b6064820152608401620000c7565b61012e62000278838262000331565b5061012f62000288828262000331565b505050565b634e487b7160e01b600052604160045260246000fd5b600181811c90821680620002b857607f821691505b602082108103620002d957634e487b7160e01b600052602260045260246000fd5b50919050565b601f8211156200028857600081815260208120601f850160051c81016020861015620003085750805b601f850160051c820191505b81811015620003295782815560010162000314565b505050505050565b81516001600160401b038111156200034d576200034d6200028d565b62000365816200035e8454620002a3565b84620002df565b602080601f8311600181146200039d5760008415620003845750858301515b600019600386901b1c1916600185901b17855562000329565b600085815260208120601f198616915b82811015620003ce57888601518255948401946001909101908401620003ad565b5085821015620003ed5787850151600019600388901b60f8161c191681555b5050505050600190811b01905550565b6080516167ea62000435600039600081816117ca0152818161180a015281816119270152818161196701526119f601526167ea6000f3fe6080604052600436106103505760003560e01c806375bfd63d116101c6578063b20b2429116100f7578063d075afac11610095578063e9fda7d41161006f578063e9fda7d414610afc578063ecd7fbed14610b29578063f2fde38b14610b49578063f47ec3be14610b6957600080fd5b8063d075afac14610a64578063e45abd0f14610a84578063e985e9c514610ab257600080fd5b8063c4d66de8116100d1578063c4d66de8146109d6578063c87b56dd146109f6578063ca00614814610a16578063cf9564b914610a4457600080fd5b8063b20b242914610973578063b842e87f146109a1578063b88d4fde146109b657600080fd5b8063957deecc116101645780639ebea88c1161013e5780639ebea88c146108f35780639f224f3514610913578063a089a52014610933578063a22cb4651461095357600080fd5b8063957deecc1461089057806395d89b41146108be57806396ea48e8146108d357600080fd5b806381c6f1a7116101a057806381c6f1a714610812578063836ef1fa146108325780638da5cb5b14610852578063949a4a4a1461087057600080fd5b806375bfd63d146107bd5780637b0472f0146107d25780637fbf3853146107f257600080fd5b80632dbe051e116102a057806352d1902d1161023e5780636352211e116102185780636352211e1461072c5780636ac6d8121461074c57806370a082311461076c578063753d75631461078c57600080fd5b806352d1902d146106c9578063598d17bf146106de5780635de406dc1461070c57600080fd5b8063394587231161027a57806339458723146106535780633e8888d91461068157806342842e0e146106965780634f1ef286146106b657600080fd5b80632dbe051e146105f357806332fce602146106135780633659cfe61461063357600080fd5b8063106d08df1161030d5780631f8bc790116102e75780631f8bc7901461050257806323b872dd1461059c5780632986c0e5146105bc5780632cb0dfcc146105d357600080fd5b8063106d08df1461048f5780631526fe27146104af5780631aebcecb146104e357600080fd5b8063011b408b1461035557806301ffc9a7146103a157806306fdde03146103d1578063074ecf03146103f3578063081812fc1461044d578063095ea7b31461046d575b600080fd5b34801561036157600080fd5b5061038e610370366004615b40565b61016860209081526000928352604080842090915290825290205481565b6040519081526020015b60405180910390f35b3480156103ad57600080fd5b506103c16103bc366004615b8f565b610b89565b6040519015158152602001610398565b3480156103dd57600080fd5b506103e6610bdb565b6040516103989190615bfc565b3480156103ff57600080fd5b5061043561040e366004615c0f565b61016a6020908152600092835260408084209091529082529020546001600160a01b031681565b6040516001600160a01b039091168152602001610398565b34801561045957600080fd5b50610435610468366004615c31565b610c6e565b34801561047957600080fd5b5061048d610488366004615c4a565b610c96565b005b34801561049b57600080fd5b506103c16104aa366004615c31565b610db0565b3480156104bb57600080fd5b506104cf6104ca366004615c31565b610e97565b604051610398989796959493929190615ce1565b3480156104ef57600080fd5b5061048d6104fe366004615c4a565b5050565b34801561050e57600080fd5b5061056161051d366004615c31565b610163602052600090815260409020805460018201546002830154600384015460048501546005860154600687015460079097015495969495939492939192909188565b604080519889526020890197909752958701949094526060860192909252608085015260a084015260c083015260e082015261010001610398565b3480156105a857600080fd5b5061048d6105b7366004615e1c565b6110f4565b3480156105c857600080fd5b5061038e6101345481565b3480156105df57600080fd5b506103c16105ee366004615e6b565b611125565b3480156105ff57600080fd5b506103c161060e366004615c31565b61136d565b34801561061f57600080fd5b5061038e61062e366004615f27565b611397565b34801561063f57600080fd5b5061048d61064e366004615fc2565b6117c0565b34801561065f57600080fd5b5061038e61066e366004615fc2565b61016f6020526000908152604090205481565b34801561068d57600080fd5b506103c161189f565b3480156106a257600080fd5b5061048d6106b1366004615e1c565b611902565b61048d6106c4366004615fff565b61191d565b3480156106d557600080fd5b5061038e6119e9565b3480156106ea57600080fd5b5061038e6106f9366004615fc2565b6101676020526000908152604090205481565b34801561071857600080fd5b5061048d610727366004615c0f565b611a9c565b34801561073857600080fd5b50610435610747366004615c31565b611b27565b34801561075857600080fd5b5061038e610767366004615c31565b611b88565b34801561077857600080fd5b5061038e610787366004615fc2565b611e2b565b34801561079857600080fd5b506103c16107a7366004615fc2565b61016d6020526000908152604090205460ff1681565b3480156107c957600080fd5b5061048d611eb2565b3480156107de57600080fd5b5061038e6107ed366004615c0f565b611eda565b3480156107fe57600080fd5b5061038e61080d366004615c31565b61235d565b34801561081e57600080fd5b5061038e61082d36600461604f565b61266f565b34801561083e57600080fd5b5061038e61084d366004615c0f565b61294b565b34801561085e57600080fd5b506033546001600160a01b0316610435565b34801561087c57600080fd5b5061048d61088b366004615c31565b612981565b34801561089c57600080fd5b5061038e6108ab366004615fc2565b61016c6020526000908152604090205481565b3480156108ca57600080fd5b506103e6612da7565b3480156108df57600080fd5b5061038e6108ee366004615c0f565b612db7565b3480156108ff57600080fd5b506103c161090e36600461607b565b612de9565b34801561091f57600080fd5b5061043561092e366004615c31565b613011565b34801561093f57600080fd5b506103c161094e366004615fc2565b61303c565b34801561095f57600080fd5b5061048d61096e3660046160a0565b6130e9565b34801561097f57600080fd5b5061038e61098e366004615c31565b61016b6020526000908152604090205481565b3480156109ad57600080fd5b5061048d6130f4565b3480156109c257600080fd5b5061048d6109d13660046160ce565b613174565b3480156109e257600080fd5b5061048d6109f1366004615fc2565b6131ac565b348015610a0257600080fd5b506103e6610a11366004615c31565b6132d9565b348015610a2257600080fd5b5061038e610a31366004615fc2565b6101666020526000908152604090205481565b348015610a5057600080fd5b506103c1610a5f366004615b40565b61334c565b348015610a7057600080fd5b5061048d610a7f36600461614c565b6133e7565b348015610a9057600080fd5b5061038e610a9f366004615fc2565b6101656020526000908152604090205481565b348015610abe57600080fd5b506103c1610acd366004615b40565b6001600160a01b0391821660009081526101336020908152604080832093909416825291909152205460ff1690565b348015610b0857600080fd5b50610b1c610b17366004615fc2565b6138f9565b604051610398919061619b565b348015610b3557600080fd5b506103c1610b44366004615fc2565b613a83565b348015610b5557600080fd5b5061048d610b64366004615fc2565b613ae6565b348015610b7557600080fd5b5061048d610b84366004615c31565b613b75565b60006001600160e01b031982166380ac58cd60e01b1480610bba57506001600160e01b03198216635b5e139f60e01b145b80610bd557506301ffc9a760e01b6001600160e01b03198316145b92915050565b606061012e8054610beb9061621b565b80601f0160208091040260200160405190810160405280929190818152602001828054610c179061621b565b8015610c645780601f10610c3957610100808354040283529160200191610c64565b820191906000526020600020905b815481529060010190602001808311610c4757829003601f168201915b5050505050905090565b6000610c7982613be9565b50600090815261013260205260409020546001600160a01b031690565b6000610ca182611b27565b9050806001600160a01b0316836001600160a01b031603610d135760405162461bcd60e51b815260206004820152602160248201527f4552433732313a20617070726f76616c20746f2063757272656e74206f776e656044820152603960f91b60648201526084015b60405180910390fd5b336001600160a01b0382161480610d2f5750610d2f8133610acd565b610da15760405162461bcd60e51b815260206004820152603d60248201527f4552433732313a20617070726f76652063616c6c6572206973206e6f7420746f60448201527f6b656e206f776e6572206f7220617070726f76656420666f7220616c6c0000006064820152608401610d0a565b610dab8383613c49565b505050565b6000610dba613cb8565b610dc43383613d11565b610e065760405162461bcd60e51b815260206004820152601360248201527239b2b73232b91034b9903737ba1037bbb732b960691b6044820152606401610d0a565b6000828152610163602052604090208054610e2462093a804261626b565b6006830155610e3662093a804261626b565b610e43906203f48061626b565b6007830155600182015460405190815281907fb3b9c925de3673837b40c6b4d4463a8f88dc821cd27e07f1ff6bf6abf96413a59060200160405180910390a2600192505050610e92600160ca55565b919050565b6101628181548110610ea857600080fd5b60009182526020918290206040805161010081018252601790930290910180546001600160a01b03808216855260ff600160a01b8304169585019590955261ffff600160a81b909104169183019190915260018101549092166060820152600282018054929350909183916080840191610f219061621b565b80601f0160208091040260200160405190810160405280929190818152602001828054610f4d9061621b565b8015610f9a5780601f10610f6f57610100808354040283529160200191610f9a565b820191906000526020600020905b815481529060010190602001808311610f7d57829003601f168201915b50505091835250506003820154602080830191909152600483015460408084019190915260059093015460609283015282518084018452600686015481526007860154818301528351808501855260088701548152600987015481840152845160808082018752600a8901548252600b89015482860152600c89015482880152600d89015460ff1615158287015286519081018752600e890180548252600f8a01548287015260108a01548289015260118a018054895181890281018901909a52808a52999a95999498939795969295919491860193929091908301828280156110a357602002820191906000526020600020905b81548152602001906001019080831161108f575b5050509190925250506040805160608101825260128501546001600160a01b031681526013850154602082015260148501549181019190915260158401546016909401549293909290915060ff1688565b6110fe3382613d11565b61111a5760405162461bcd60e51b8152600401610d0a9061627e565b610dab838383613d91565b600061112f613f03565b6001600160a01b038416600090815261016d602052604090205460ff1615158315146111965760405162461bcd60e51b81526020600482015260166024820152751b9bc818da185b99d9481d1bc81dda1a5d195b1a5cdd60521b6044820152606401610d0a565b6001600160a01b038416600081815261016d6020526040808220805460ff191687151590811790915590519092917f99795d51e5a8804307721456a7a9c2f0d7421f719d46a46d36e91fee7c85aa7691a3821561124e5761016e8054600181019091557ff82fbbf6ecba5c6bca8ffdb165c351ca78f1011f756f9b1202212482fd7d83130180546001600160a01b0319166001600160a01b038616908117909155600090815261016f60205260409020829055611362565b61016e5460005b8181101561135f57600061016e8281548110611273576112736162cb565b6000918252602090912001546001600160a01b0390811691508716810361134e5761016e6112a26001856162e1565b815481106112b2576112b26162cb565b60009182526020909120015461016e80546001600160a01b0390921691849081106112df576112df6162cb565b9060005260206000200160006101000a8154816001600160a01b0302191690836001600160a01b0316021790555061016e80548061131f5761131f6162f4565b600082815260209020810160001990810180546001600160a01b03191690550190555060019250611366915050565b506113588161630a565b9050611255565b50505b5060015b9392505050565b6000611377613cb8565b61137f613f03565b61138a826000613f5d565b506001610e92600160ca55565b60006113a1613f03565b6001600160a01b038716600090815261016d602052604090205460ff166114025760405162461bcd60e51b81526020600482015260156024820152741d1bdad95b881b9bdd081dda1a5d195b1a5cdd1959605a1b6044820152606401610d0a565b61138883111561144c5760405162461bcd60e51b81526020600482015260156024820152740e4cacccae4e4c2d840cccaca40e8dede40d0d2ced605b1b6044820152606401610d0a565b60408051600481526024810182526020810180516001600160e01b031663313ce56760e01b17905290516000916001600160a01b038a169161148e9190616323565b600060405180830381855afa9150503d80600081146114c9576040519150601f19603f3d011682016040523d82523d6000602084013e6114ce565b606091505b509150506000818060200190518101906114e8919061633f565b905060068160ff1610156115375760405162461bcd60e51b815260206004820152601660248201527524b73b30b634b2103232b1b4b6b0b6103932ba3ab93760511b6044820152606401610d0a565b61153f61593d565b80516001600160a01b03808c16909152815160ff80851660209283015283518c8416606091820152845160809081018d905260a0860180518d87169052805185018c90525160409081018b905261016280546001810182556000919091528751805160179092027f29af0939a5988989bfee913a9ad10b9335cb63ebc9fd2b69e5f877d0455ac91981018054988301519483015161ffff16600160a81b0261ffff60a81b1995909816600160a01b026001600160a81b0319909916938a16939093179790971792909216949094178455918201517f29af0939a5988989bfee913a9ad10b9335cb63ebc9fd2b69e5f877d0455ac91a85018054919096166001600160a01b03199190911617909455928301518493919283917f29af0939a5988989bfee913a9ad10b9335cb63ebc9fd2b69e5f877d0455ac91b9091019061168690826163b0565b5060a0820151600382015560c0820151600482015560e0909101516005909101556020828101518051600684015581015160078301556040808401518051600885015582015160098401556060808501518051600a86015580840151600b86015580830151600c860155810151600d8501805460ff191691151591909117905560808501518051600e860190815581850151600f870155928101516010860155908101518051919361174092601187019290910190615a68565b50505060a082015180516012830180546001600160a01b0319166001600160a01b039092169190911790556020810151601383015560400151601482015560c0820151601582015560e0909101516016909101805460ff1916911515919091179055610162546117b2906001906162e1565b9a9950505050505050505050565b6001600160a01b037f00000000000000000000000000000000000000000000000000000000000000001630036118085760405162461bcd60e51b8152600401610d0a90616470565b7f00000000000000000000000000000000000000000000000000000000000000006001600160a01b031661185160008051602061676e833981519152546001600160a01b031690565b6001600160a01b0316146118775760405162461bcd60e51b8152600401610d0a906164bc565b6118808161417b565b6040805160008082526020820190925261189c91839190614183565b50565b61016e54600090815b818110156118f957600061016e82815481106118c6576118c66162cb565b6000918252602090912001546001600160a01b031690506118e68161303c565b5050806118f29061630a565b90506118a8565b50600191505090565b610dab83838360405180602001604052806000815250613174565b6001600160a01b037f00000000000000000000000000000000000000000000000000000000000000001630036119655760405162461bcd60e51b8152600401610d0a90616470565b7f00000000000000000000000000000000000000000000000000000000000000006001600160a01b03166119ae60008051602061676e833981519152546001600160a01b031690565b6001600160a01b0316146119d45760405162461bcd60e51b8152600401610d0a906164bc565b6119dd8261417b565b6104fe82826001614183565b6000306001600160a01b037f00000000000000000000000000000000000000000000000000000000000000001614611a895760405162461bcd60e51b815260206004820152603860248201527f555550535570677261646561626c653a206d757374206e6f742062652063616c60448201527f6c6564207468726f7567682064656c656761746563616c6c00000000000000006064820152608401610d0a565b5060008051602061676e83398151915290565b611aa4613f03565b60006101628381548110611aba57611aba6162cb565b9060005260206000209060170201905080601201600201548211611b205760405162461bcd60e51b815260206004820152601860248201527f63616e206f6e6c7920657874656e6420656e642074696d6500000000000000006044820152606401610d0a565b6014015550565b600081815261013060205260408120546001600160a01b031680610bd55760405162461bcd60e51b8152602060048201526018602482015277115490cdcc8c4e881a5b9d985b1a59081d1bdad95b88125160421b6044820152606401610d0a565b6000806101628381548110611b9f57611b9f6162cb565b6000918252602090912060408051610200810190915260179092020180546001600160a01b038082166101008501908152600160a01b830460ff16610120860152600160a81b90920461ffff16610140850152600183015416610160840152600282018054849291849161018085019190611c199061621b565b80601f0160208091040260200160405190810160405280929190818152602001828054611c459061621b565b8015611c925780601f10611c6757610100808354040283529160200191611c92565b820191906000526020600020905b815481529060010190602001808311611c7557829003601f168201915b505050918352505060038201546020808301919091526004830154604080840191909152600590930154606092830152928452815180830183526006860154815260078601548185015284840152815180830183526008860154815260098601548185015284830152815160808082018452600a8701548252600b87015482860152600c87015482850152600d87015460ff161515828401528583019190915282518082018452600e870180548252600f88015482870152601088015482860152601188018054865181890281018901909752808752939097019691959094938601939290830182828015611da657602002820191906000526020600020905b815481526020019060010190808311611d92575b505050919092525050508152604080516060808201835260128501546001600160a01b0316825260138501546020838101919091526014860154838501528085019290925260158501549284019290925260169093015460ff16151591015281810151908101519051919250611e1b9161626b565b815160c00151611366919061626b565b60006001600160a01b038216611e955760405162461bcd60e51b815260206004820152602960248201527f4552433732313a2061646472657373207a65726f206973206e6f7420612076616044820152683634b21037bbb732b960b91b6064820152608401610d0a565b506001600160a01b03166000908152610131602052604090205490565b6101625460005b818110156104fe57611eca81612981565b611ed38161630a565b9050611eb9565b6000611ee4613cb8565b8260006101628281548110611efb57611efb6162cb565b6000918252602090912060408051610200810190915260179092020180546001600160a01b038082166101008501908152600160a01b830460ff16610120860152600160a81b90920461ffff16610140850152600183015416610160840152600282018054849291849161018085019190611f759061621b565b80601f0160208091040260200160405190810160405280929190818152602001828054611fa19061621b565b8015611fee5780601f10611fc357610100808354040283529160200191611fee565b820191906000526020600020905b815481529060010190602001808311611fd157829003601f168201915b505050918352505060038201546020808301919091526004830154604080840191909152600590930154606092830152928452815180830183526006860154815260078601548185015284840152815180830183526008860154815260098601548185015284830152815160808082018452600a8701548252600b87015482860152600c87015482850152600d87015460ff161515828401528583019190915282518082018452600e870180548252600f8801548287015260108801548286015260118801805486518189028101890190975280875293909701969195909493860193929083018282801561210257602002820191906000526020600020905b8154815260200190600101908083116120ee575b505050919092525050508152604080516060808201835260128501546001600160a01b03168252601385015460208381019190915260148601548385015284019190915260158401549183019190915260169092015460ff16151591015260e08101519091506121a65760405162461bcd60e51b815260206004820152600f60248201526e706f6f6c206e6f742061637469766560881b6044820152606401610d0a565b600061016286815481106121bc576121bc6162cb565b60009182526020808320601790920290910180546001600160a01b0316835261016f90915260409091205490915085101561222d5760405162461bcd60e51b8152602060048201526011602482015270135a5b881cdd185ad9481b9bdd081b595d607a1b6044820152606401610d0a565b600061223887611b88565b8254909150612252906001600160a01b03163330896142ee565b50600061226088338961435c565b905086836000016004016000828254612279919061626b565b90915550506003830154600484015411156122cc5760405162461bcd60e51b8152602060048201526013602482015272115e18d959591959081c1bdbdb081b1a5b5a5d606a1b6044820152606401610d0a565b604051878152889033907f1449c6dd7851abc30abf37f57715f492010519147cc2652fbc38202c18a6ee909060200160405180910390a3600061230e89611b88565b60408051858152602081018390529192508a917fa3ea4fb8dee4d414198cb197af6eae4fe483c1a0b849dc50e53b9bf1a60e2166910160405180910390a250945050505050610bd5600160ca55565b6000806101628381548110612374576123746162cb565b6000918252602090912060408051610200810190915260179092020180546001600160a01b038082166101008501908152600160a01b830460ff16610120860152600160a81b90920461ffff166101408501526001830154166101608401526002820180548492918491610180850191906123ee9061621b565b80601f016020809104026020016040519081016040528092919081815260200182805461241a9061621b565b80156124675780601f1061243c57610100808354040283529160200191612467565b820191906000526020600020905b81548152906001019060200180831161244a57829003601f168201915b505050918352505060038201546020808301919091526004830154604080840191909152600590930154606092830152928452815180830183526006860154815260078601548185015284840152815180830183526008860154815260098601548185015284830152815160808082018452600a8701548252600b87015482860152600c87015482850152600d87015460ff161515828401528583019190915282518082018452600e870180548252600f8801548287015260108801548286015260118801805486518189028101890190975280875293909701969195909493860193929083018282801561257b57602002820191906000526020600020905b815481526020019060010190808311612567575b505050919092525050508152604080516060808201835260128501546001600160a01b03168252601385015460208084019190915260148601548385015284019190915260158401548284015260169093015460ff1615159290910191909152608082015151825160e001519151632500225b60e11b815260048101829052602481018390529293509173__$4defa815a6c8401eda00ac6be9b95d3cdb$__90634a0044b6906044015b602060405180830381865af4158015612642573d6000803e3d6000fd5b505050506040513d601f19601f820116820180604052508101906126669190616508565b95945050505050565b6000806101628581548110612686576126866162cb565b6000918252602090912060408051610200810190915260179092020180546001600160a01b038082166101008501908152600160a01b830460ff16610120860152600160a81b90920461ffff166101408501526001830154166101608401526002820180548492918491610180850191906127009061621b565b80601f016020809104026020016040519081016040528092919081815260200182805461272c9061621b565b80156127795780601f1061274e57610100808354040283529160200191612779565b820191906000526020600020905b81548152906001019060200180831161275c57829003601f168201915b505050918352505060038201546020808301919091526004830154604080840191909152600590930154606092830152928452815180830183526006860154815260078601548185015284840152815180830183526008860154815260098601548185015284830152815160808082018452600a8701548252600b87015482860152600c87015482850152600d87015460ff161515828401528583019190915282518082018452600e870180548252600f8801548287015260108801548286015260118801805486518189028101890190975280875293909701969195909493860193929083018282801561288d57602002820191906000526020600020905b815481526020019060010190808311612879575b505050919092525050508152604080516060808201835260128501546001600160a01b03168252601385015460208084019190915260148601548385015284019190915260158401548284015260169093015460ff1615159290910191909152815160a081015160e0909101519151630d17449160e21b815260048101889052602481018790526044810191909152606481019190915290915073__$4defa815a6c8401eda00ac6be9b95d3cdb$__9063345d124490608401612625565b60006301e1338061271062093a806129638587616521565b61296d9190616521565b6129779190616538565b6113669190616538565b60006101628281548110612997576129976162cb565b6000918252602090912060408051610200810190915260179092020180546001600160a01b038082166101008501908152600160a01b830460ff16610120860152600160a81b90920461ffff16610140850152600183015416610160840152600282018054849291849161018085019190612a119061621b565b80601f0160208091040260200160405190810160405280929190818152602001828054612a3d9061621b565b8015612a8a5780601f10612a5f57610100808354040283529160200191612a8a565b820191906000526020600020905b815481529060010190602001808311612a6d57829003601f168201915b505050918352505060038201546020808301919091526004830154604080840191909152600590930154606092830152928452815180830183526006860154815260078601548185015284840152815180830183526008860154815260098601548185015284830152815160808082018452600a8701548252600b87015482860152600c87015482850152600d87015460ff161515828401528583019190915282518082018452600e870180548252600f88015482870152601088015482860152601188018054865181890281018901909752808752939097019691959094938601939290830182828015612b9e57602002820191906000526020600020905b815481526020019060010190808311612b8a575b505050919092525050508152604080516060808201835260128501546001600160a01b03168252601385015460208381019190915260148601548385015284019190915260158401549183019190915260169092015460ff1615159082015260808201510151805191925090801580612c1957508260e00151155b15612c245750505050565b60005b81811015612c6157612c51838281518110612c4457612c446162cb565b602002602001015161464b565b612c5a8161630a565b9050612c27565b5060008481526101646020908152604080832080548251818502810185019093528083529192909190830182828015612cb957602002820191906000526020600020905b815481526020019060010190808311612ca5575b5050835193945060009250829150505b82811015612d3f576000848281518110612ce557612ce56162cb565b60209081029190910181015160008181526101639092526040909120600181015491925090612d158b828761266f565b60038301556002820154612d29908661626b565b945050505080612d389061630a565b9050612cc9565b50806101628881548110612d5557612d556162cb565b6000918252602090912060106017909202010155610162805488908110612d7e57612d7e6162cb565b9060005260206000209060170201600e016003016000612d9e9190615ab3565b50505050505050565b606061012f8054610beb9061621b565b6101646020528160005260406000208181548110612dd457600080fd5b90600052602060002001600091509150505481565b6000612df3613cb8565b612dfd3384613d11565b612e3f5760405162461bcd60e51b815260206004820152601360248201527239b2b73232b91034b9903737ba1037bbb732b960691b6044820152606401610d0a565b600083815261016360205260408120805461016280549293919283908110612e6957612e696162cb565b90600052602060002090601702019050428360060154108015612e8f5750428360070154115b612eed5760405162461bcd60e51b815260206004820152602960248201527f54696d656c6f636b206e6f7420736574206f72206e6f7420636f6d706c6574656044820152686420696e2074696d6560b81b6064820152608401610d0a565b612ef78686614868565b600183018054600091829055600685018290556007850182905590612f1b84611b88565b90508615612f2c57612f2c88614a4b565b8115612f665781836000016004016000828254612f4991906162e1565b90915550508254612f64906001600160a01b03163384614aef565b505b604051828152849033907f7fc4727e062e336010f2c282598ef5f14facb3de68cf8195c2f23e1454b2b74e9060200160405180910390a36000612fa885611b88565b604080518481526020810183905291925086917fa3ea4fb8dee4d414198cb197af6eae4fe483c1a0b849dc50e53b9bf1a60e2166910160405180910390a2505050601101805460018181018355600092835260209092200186905592505050610bd5600160ca55565b61016e818154811061302257600080fd5b6000918252602090912001546001600160a01b0316905081565b6000613046613cb8565b336000908152610168602090815260408083206001600160a01b038616845290915290205480156130da57336000818152610168602090815260408083206001600160a01b03881680855292528220919091556130a39183614aef565b5060405181815233907fbf7aaef98dccc47249def450ef0fd30757d553648a28fa7cd56e3b2b052724949060200160405180910390a25b6001915050610e92600160ca55565b6104fe338383614b22565b6034546001600160a01b0316331461315d5760405162461bcd60e51b815260206004820152602660248201527f6f6e6c792070656e64696e67206f776e65722063616e2061636365707420747260448201526530b739b332b960d11b6064820152608401610d0a565b603454613172906001600160a01b0316614bf1565b565b61317e3383613d11565b61319a5760405162461bcd60e51b8152600401610d0a9061627e565b6131a684848484614c4e565b50505050565b600054610100900460ff16158080156131cc5750600054600160ff909116105b806131e65750303b1580156131e6575060005460ff166001145b6132495760405162461bcd60e51b815260206004820152602e60248201527f496e697469616c697a61626c653a20636f6e747261637420697320616c72656160448201526d191e481a5b9a5d1a585b1a5e995960921b6064820152608401610d0a565b6000805460ff19166001179055801561326c576000805461ff0019166101001790555b613274614c81565b61016980546001600160a01b0319166001600160a01b03841617905580156104fe576000805461ff0019169055604051600181527f7f26b83ff96e1f2b6a682f133852f6798a09c465da95921460cefb38474024989060200160405180910390a15050565b60606132e482613be9565b60006132fb60408051602081019091526000815290565b9050600081511161331b5760405180602001604052806000815250611366565b8061332584614cb0565b60405160200161333692919061655a565b6040516020818303038152906040529392505050565b6000613356613f03565b6001600160a01b038316600090815261016660209081526040808320546101678352818420546101659093529083205490916133919161626b565b61339b919061626b565b6001600160a01b03851660008181526101656020908152604080832083905561016682528083208390556101679091528120559091506133dc908483614aef565b506001949350505050565b6133ef613f03565b6127108261ffff1611156134375760405162461bcd60e51b815260206004820152600f60248201526e0a0c2f2deeae840e8dede40d0d2ced608b1b6044820152606401610d0a565b6127108161ffff16111561347e5760405162461bcd60e51b815260206004820152600e60248201526d084dedceae640e8dede40d0d2ced60931b6044820152606401610d0a565b600084905060006101628281548110613499576134996162cb565b600091825260208220600460179092020190810154909250816134bb85611b88565b905060006127106134d061ffff8a1684616521565b6134da9190616538565b60008781526101646020526040902054909150838210156135e15760008461350a670de0b6b3a764000085616521565b6135149190616538565b905060005b828110156135da57600089815261016460205260408120805483908110613542576135426162cb565b9060005260206000200154905061016360008281526020019081526020016000209750613570816000614868565b6000670de0b6b3a7640000848a6001015461358b9190616521565b6135959190616538565b9050808960010160008282546135ab91906162e1565b909155505060048a0180548291906000906135c79084906162e1565b9091555050600190920191506135199050565b50506136fe565b8382101580156135f15750828211155b156136c45760005b8181101561368157600088815261016460205260408120805483908110613622576136226162cb565b9060005260206000200154905061016360008281526020019081526020016000209650613650816000614868565b600060018089018290556003890182905560118a0180548083018255908352602090922090910191909155016135f9565b506000600487015561369287614d44565b50600061369f85846162e1565b9050808760060160000160008282546136b891906162e1565b909155506136fe915050565b60405162461bcd60e51b815260206004820152600f60248201526e082dadeeadce840e8dede40d0d2ced608b1b6044820152606401610d0a565b600061271061371161ffff8b16826162e1565b6127106137206103e887616521565b61372a9190616538565b6137349190616521565b61373e9190616538565b6014880154601389015460128a015460405163fc76fff360e01b815260048101859052602481019390935260448301919091526001600160a01b031660648201529091506000908190819073__$4defa815a6c8401eda00ac6be9b95d3cdb$__9063fc76fff390608401606060405180830381865af41580156137c5573d6000803e3d6000fd5b505050506040513d601f19601f820116820180604052508101906137e99190616589565b8c5492955090935091506001600160a01b0316613807828285614ea8565b6001600160a01b038116600090815261016560205260408120805486929061383090849061626b565b9091555061385590508f613844878a6162e1565b6001600160a01b0384169190614aef565b50806001600160a01b03168f6001600160a01b03167fbcbf239e05ac65bcc1a5612cd36d392b0a0aa8c93e027bc86e727687483424888960405161389b91815260200190565b60405180910390a38b7fa3ea4fb8dee4d414198cb197af6eae4fe483c1a0b849dc50e53b9bf1a60e2166896138cf8f611b88565b6040805192835260208301919091520160405180910390a250505050505050505050505050505050565b6001600160a01b03811660009081526101356020908152604080832080548251818502810185019093528083526060949383018282801561395957602002820191906000526020600020905b815481526020019060010190808311613945575b50508351939450839250505067ffffffffffffffff81111561397d5761397d615e9b565b6040519080825280602002602001820160405280156139b657816020015b6139a3615ad1565b81526020019060019003908161399b5790505b50925060005b81811015613a7b5761016360008483815181106139db576139db6162cb565b602002602001015181526020019081526020016000206040518061010001604052908160008201548152602001600182015481526020016002820154815260200160038201548152602001600482015481526020016005820154815260200160068201548152602001600782015481525050848281518110613a5f57613a5f6162cb565b602002602001018190525080613a749061630a565b90506139bc565b505050919050565b6000613a8d613f03565b61016e5460005b8181101561136257600061016e8281548110613ab257613ab26162cb565b6000918252602090912001546001600160a01b03169050613ad3818661334c565b505080613adf9061630a565b9050613a94565b613aee613f03565b6001600160a01b038116613b535760405162461bcd60e51b815260206004820152602660248201527f4f776e61626c653a206e6577206f776e657220697320746865207a65726f206160448201526564647265737360d01b6064820152608401610d0a565b603480546001600160a01b0319166001600160a01b0392909216919091179055565b613b7d613cb8565b613b873382613d11565b613ba35760405162461bcd60e51b8152600401610d0a9061627e565b613bae816001614868565b600081815261016360205260408120600101549003613bd057613bd081614a4b565b61189c600160ca55565b6001600160a01b03163b151590565b600081815261013060205260409020546001600160a01b031661189c5760405162461bcd60e51b8152602060048201526018602482015277115490cdcc8c4e881a5b9d985b1a59081d1bdad95b88125160421b6044820152606401610d0a565b60008181526101326020526040902080546001600160a01b0319166001600160a01b0384169081179091558190613c7f82611b27565b6001600160a01b03167f8c5be1e5ebec7d5bd14f71427d1e84f3dd0314c0f7b2291e5b200ac8c7c3b92560405160405180910390a45050565b600260ca5403613d0a5760405162461bcd60e51b815260206004820152601f60248201527f5265656e7472616e637947756172643a207265656e7472616e742063616c6c006044820152606401610d0a565b600260ca55565b600080613d1d83611b27565b9050806001600160a01b0316846001600160a01b03161480613d6557506001600160a01b038082166000908152610133602090815260408083209388168352929052205460ff165b80613d895750836001600160a01b0316613d7e84610c6e565b6001600160a01b0316145b949350505050565b826001600160a01b0316613da482611b27565b6001600160a01b031614613dca5760405162461bcd60e51b8152600401610d0a906165c2565b6001600160a01b038216613e2c5760405162461bcd60e51b8152602060048201526024808201527f4552433732313a207472616e7366657220746f20746865207a65726f206164646044820152637265737360e01b6064820152608401610d0a565b613e37838383614ef9565b826001600160a01b0316613e4a82611b27565b6001600160a01b031614613e705760405162461bcd60e51b8152600401610d0a906165c2565b60008181526101326020908152604080832080546001600160a01b03199081169091556001600160a01b03878116808652610131855283862080546000190190559087168086528386208054600101905586865261013090945282852080549092168417909155905184937fddf252ad1be2c89b69c2b068fc378daa952ba7f163c4a11628f55a4df523b3ef91a4505050565b6033546001600160a01b031633146131725760405162461bcd60e51b815260206004820181905260248201527f4f776e61626c653a2063616c6c6572206973206e6f7420746865206f776e65726044820152606401610d0a565b60006101628381548110613f7357613f736162cb565b600091825260208220601791909102016008810154600382015482549294508592613fa99190600160a81b900461ffff1661294b565b613fb391906162e1565b613fbd919061626b565b60018301548354919250613fdf916001600160a01b03908116911630846142ee565b5080826008016000016000828254613ff7919061626b565b909155506000905061271061400e6103e884616521565b6140189190616538565b60148401546013850154601286015460405163fc76fff360e01b815260048101859052602481019390935260448301919091526001600160a01b031660648201529091506000908190819073__$4defa815a6c8401eda00ac6be9b95d3cdb$__9063fc76fff390608401606060405180830381865af415801561409f573d6000803e3d6000fd5b505050506040513d601f19601f820116820180604052508101906140c39190616589565b885492955090935091506001600160a01b03166140e1828285614ea8565b6001600160a01b038116600090815261016660205260408120805486929061410a90849061626b565b909155506000905061411c86886162e1565b905080886008016001016000828254614135919061626b565b90915550506040518781528a907fadb049ad2d09be3db90459a16aef1ad0a4d89e8fdcc1ade9429d6cc55abbcd2b9060200160405180910390a250505050505050505050565b61189c613f03565b7f4910fdfa16fed3260ed0e7147f7cc6da11a60208b5b9406d12a635614ffd91435460ff16156141b657610dab83614f90565b826001600160a01b03166352d1902d6040518163ffffffff1660e01b8152600401602060405180830381865afa925050508015614210575060408051601f3d908101601f1916820190925261420d91810190616508565b60015b6142735760405162461bcd60e51b815260206004820152602e60248201527f45524331393637557067726164653a206e657720696d706c656d656e7461746960448201526d6f6e206973206e6f74205555505360901b6064820152608401610d0a565b60008051602061676e83398151915281146142e25760405162461bcd60e51b815260206004820152602960248201527f45524331393637557067726164653a20756e737570706f727465642070726f786044820152681a58589b195555525160ba1b6064820152608401610d0a565b50610dab83838361502c565b6040516001600160a01b03808516602483015283166044820152606481018290526000906133dc9086906323b872dd60e01b906084015b60408051601f198184030181529190526020810180516001600160e01b03166001600160e01b031990931692909217909152615051565b60006001600160a01b0383166143b45760405162461bcd60e51b815260206004820152601f60248201527f45524332303a206d696e7420746f20746865207a65726f2061646472657373006044820152606401610d0a565b60006143e9858461016288815481106143cf576143cf6162cb565b9060005260206000209060170201600e016000015461266f565b905060006143f685615123565b9050614400615ad1565b86815260208101859052610162805460009173__$4defa815a6c8401eda00ac6be9b95d3cdb$__9163098952389189918c908110614440576144406162cb565b9060005260206000209060170201600001600301546040518363ffffffff1660e01b815260040161447b929190918252602082015260400190565b6040805180830381865af4158015614497573d6000803e3d6000fd5b505050506040513d601f19601f820116820180604052508101906144bb9190616607565b509050674563918244f40000816101628a815481106144dc576144dc6162cb565b9060005260206000209060170201600e01600201546144fb919061626b565b111561453f5760405162461bcd60e51b81526020600482015260136024820152721608189bdd5b99185c9e481d9a5bdb185d1959606a1b6044820152606401610d0a565b6040808301828152606084018681524260a086019081526000878152610163602090815285822088518155818901516001808301919091559551600282015593516003850155608088015160048501559151600584015560c0870151600684015560e08701516007909301929092558b82526101648152928120805492830181558152919091200183905561016280548291908a9081106145e2576145e26162cb565b9060005260206000209060170201600e016002016000828254614605919061626b565b9250508190555061463e886101628a81548110614624576146246162cb565b9060005260206000209060170201600e01600201546152d9565b5091979650505050505050565b60008181526101636020908152604080832081516101008101835281548082526001830154828601526002830154828501526003830154606083015260048301546080830152600583015460a0830152600683015460c083015260079092015460e0820152818552610164845282852080548451818702810187019095528085529195929492939290919083018282801561470557602002820191906000526020600020905b8154815260200190600101908083116146f1575b5050835193945060009250829150505b828110156147555786848281518110614730576147306162cb565b60200260200101510361474557809150614755565b61474e8161630a565b9050614715565b508181106147a55760405162461bcd60e51b815260206004820152601860248201527f546f6b656e206e6f7420666f756e6420696e20617272617900000000000000006044820152606401610d0a565b805b6147b26001846162e1565b81101561480a57836147c582600161626b565b815181106147d5576147d56162cb565b60200260200101518482815181106147ef576147ef6162cb565b60209081029190910101526148038161630a565b90506147a7565b50600084815261016460209081526040909120845161482b92860190615a68565b5060008481526101646020526040902080548061484a5761484a6162f4565b60019003818190600052602060002001600090559055505050505050565b600082815261016360205260408120805461016280549293919283908110614892576148926162cb565b90600052602060002090601702019050600080600073__$4defa815a6c8401eda00ac6be9b95d3cdb$__63ad6fa2338560150154886005015489600101548a600301548b600401546040518663ffffffff1660e01b8152600401614918959493929190948552602085019390935260408401919091526060830152608082015260a00190565b606060405180830381865af4158015614935573d6000803e3d6000fd5b505050506040513d601f19601f82011682018060405250810190614959919061662b565b925092509250866149a7578360150154600003614976574261497c565b83601501545b866005018190555080866004016000828254614998919061626b565b90915550505050505050505050565b60088401548311156149bd576149bd8584613f5d565b8215614a4157600060048701819055601585015490036149dd57426149e3565b83601501545b60058701556008840180548491906000906149ff9084906162e1565b9091555050600984018054839190600090614a1b9084906162e1565b90915550614a3f9050614a2d89611b27565b85546001600160a01b03169084614aef565b505b5050505050505050565b6000614a5682611b27565b9050614a6481600084614ef9565b614a6d82611b27565b60008381526101326020908152604080832080546001600160a01b03199081169091556001600160a01b03851680855261013184528285208054600019019055878552610130909352818420805490911690555192935084927fddf252ad1be2c89b69c2b068fc378daa952ba7f163c4a11628f55a4df523b3ef908390a45050565b6040516001600160a01b03831660248201526044810182905260009061136290859063a9059cbb60e01b90606401614325565b816001600160a01b0316836001600160a01b031603614b835760405162461bcd60e51b815260206004820152601960248201527f4552433732313a20617070726f766520746f2063616c6c6572000000000000006044820152606401610d0a565b6001600160a01b0383811660008181526101336020908152604080832094871680845294825291829020805460ff191686151590811790915591519182527f17307eab39ab6107e8899845ad3d59bd9653f200f220920489ca2b5937696c31910160405180910390a3505050565b603380546001600160a01b038381166001600160a01b03198084168217909455603480549094169093556040519116919082907f8be0079c531659141344cd1fd0a4f28419497f9722a3daafe3b4186f6b6457e090600090a35050565b614c59848484613d91565b614c658484848461530d565b6131a65760405162461bcd60e51b8152600401610d0a90616659565b600054610100900460ff16614ca85760405162461bcd60e51b8152600401610d0a906166ab565b61317261540b565b60606000614cbd8361543b565b600101905060008167ffffffffffffffff811115614cdd57614cdd615e9b565b6040519080825280601f01601f191660200182016040528015614d07576020820181803683370190505b5090508181016020015b600019016f181899199a1a9b1b9c1cb0b131b232b360811b600a86061a8153600a8504945084614d11575b509392505050565b6000806101628381548110614d5b57614d5b6162cb565b6000918252602080832086845261016b9091526040832080549084905560179092020192508015614d3c57600085815261016a602090815260408083208484528252808320548151637f1f087360e01b815291516001600160a01b0390911693928492637f1f08739260048083019392829003018187875af1158015614de5573d6000803e3d6000fd5b505050506040513d601f19601f82011682018060405250810190614e099190616508565b6040516348b1933560e01b8152600481018290529091506001600160a01b038316906348b19335906024016020604051808303816000875af1158015614e53573d6000803e3d6000fd5b505050506040513d601f19601f82011682018060405250810190614e779190616508565b6000600787018190556006870180549296508692909190614e9990849061626b565b90915550505050509392505050565b6001600160a01b03831615610dab576001600160a01b0380841660009081526101686020908152604080832093861683529290529081208054839290614eef90849061626b565b9091555050505050565b816001600160a01b0316836001600160a01b031614158015614f2357506001600160a01b03831615155b15614f3257614f328382615513565b826001600160a01b0316826001600160a01b031614158015614f5c57506001600160a01b03821615155b15610dab576001600160a01b0391909116600090815261013560209081526040822080546001810182559083529120015550565b6001600160a01b0381163b614ffd5760405162461bcd60e51b815260206004820152602d60248201527f455243313936373a206e657720696d706c656d656e746174696f6e206973206e60448201526c1bdd08184818dbdb9d1c9858dd609a1b6064820152608401610d0a565b60008051602061676e83398151915280546001600160a01b0319166001600160a01b0392909216919091179055565b6150358361566c565b6000825111806150425750805b15610dab576131a683836156ac565b60006150a6826040518060400160405280602081526020017f5361666545524332303a206c6f772d6c6576656c2063616c6c206661696c6564815250856001600160a01b03166157979092919063ffffffff16565b805190915015610dab57808060200190518101906150c491906166f6565b610dab5760405162461bcd60e51b815260206004820152602a60248201527f5361666545524332303a204552433230206f7065726174696f6e20646964206e6044820152691bdd081cdd58d8d9595960b21b6064820152608401610d0a565b600080610134600081546151369061630a565b918290555090506001600160a01b0383166151935760405162461bcd60e51b815260206004820181905260248201527f4552433732313a206d696e7420746f20746865207a65726f20616464726573736044820152606401610d0a565b600081815261013060205260409020546001600160a01b0316156151f95760405162461bcd60e51b815260206004820152601c60248201527f4552433732313a20746f6b656e20616c7265616479206d696e746564000000006044820152606401610d0a565b61520560008483614ef9565b600081815261013060205260409020546001600160a01b03161561526b5760405162461bcd60e51b815260206004820152601c60248201527f4552433732313a20746f6b656e20616c7265616479206d696e746564000000006044820152606401610d0a565b6001600160a01b0383166000818152610131602090815260408083208054600101905584835261013090915280822080546001600160a01b0319168417905551839291907fddf252ad1be2c89b69c2b068fc378daa952ba7f163c4a11628f55a4df523b3ef908290a4610bd5565b60008161016284815481106152f0576152f06162cb565b60009182526020909120600e601790920201015550600192915050565b60006001600160a01b0384163b1561540357604051630a85bd0160e11b81526001600160a01b0385169063150b7a0290615351903390899088908890600401616713565b6020604051808303816000875af192505050801561538c575060408051601f3d908101601f1916820190925261538991810190616750565b60015b6153e9573d8080156153ba576040519150601f19603f3d011682016040523d82523d6000602084013e6153bf565b606091505b5080516000036153e15760405162461bcd60e51b8152600401610d0a90616659565b805181602001fd5b6001600160e01b031916630a85bd0160e11b149050613d89565b506001613d89565b600054610100900460ff166154325760405162461bcd60e51b8152600401610d0a906166ab565b61317233614bf1565b60008072184f03e93ff9f4daa797ed6e38ed64bf6a1f0160401b831061547a5772184f03e93ff9f4daa797ed6e38ed64bf6a1f0160401b830492506040015b6d04ee2d6d415b85acef810000000083106154a6576d04ee2d6d415b85acef8100000000830492506020015b662386f26fc1000083106154c457662386f26fc10000830492506010015b6305f5e10083106154dc576305f5e100830492506008015b61271083106154f057612710830492506004015b60648310615502576064830492506002015b600a8310610bd55760010192915050565b6001600160a01b0382166000908152610135602090815260408083208054825181850281018501909352808352919290919083018282801561557457602002820191906000526020600020905b815481526020019060010190808311615560575b505083519394506000925050505b81811015615665578383828151811061559d5761559d6162cb565b60200260200101510361565557826155b66001846162e1565b815181106155c6576155c66162cb565b60200260200101518382815181106155e0576155e06162cb565b6020908102919091018101919091526001600160a01b0386166000908152610135825260409020845161561592860190615a68565b506001600160a01b03851660009081526101356020526040902080548061563e5761563e6162f4565b600190038181906000526020600020016000905590555b61565e8161630a565b9050615582565b5050505050565b61567581614f90565b6040516001600160a01b038216907fbc7cd75a20ee27fd9adebab32041f755214dbc6bffa90cc0225b39da2e5c2d3b90600090a250565b60606001600160a01b0383163b6157145760405162461bcd60e51b815260206004820152602660248201527f416464726573733a2064656c65676174652063616c6c20746f206e6f6e2d636f6044820152651b9d1c9858dd60d21b6064820152608401610d0a565b600080846001600160a01b03168460405161572f9190616323565b600060405180830381855af49150503d806000811461576a576040519150601f19603f3d011682016040523d82523d6000602084013e61576f565b606091505b5091509150612666828260405180606001604052806027815260200161678e602791396157a6565b6060613d8984846000856157bf565b606083156157b5575081611366565b611366838361589a565b6060824710156158205760405162461bcd60e51b815260206004820152602660248201527f416464726573733a20696e73756666696369656e742062616c616e636520666f6044820152651c8818d85b1b60d21b6064820152608401610d0a565b600080866001600160a01b0316858760405161583c9190616323565b60006040518083038185875af1925050503d8060008114615879576040519150601f19603f3d011682016040523d82523d6000602084013e61587e565b606091505b509150915061588f878383876158c4565b979650505050505050565b8151156158aa5781518083602001fd5b8060405162461bcd60e51b8152600401610d0a9190615bfc565b6060831561593357825160000361592c576001600160a01b0385163b61592c5760405162461bcd60e51b815260206004820152601d60248201527f416464726573733a2063616c6c20746f206e6f6e2d636f6e74726163740000006044820152606401610d0a565b5081613d89565b613d89838361589a565b6040805161020081019091526000610100820181815261012083018290526101408301829052610160830182905260606101808401526101a083018290526101c083018290526101e0830191909152819081526020016159b0604051806040016040528060008152602001600081525090565b81526020016159d2604051806040016040528060008152602001600081525090565b8152602001615a0460405180608001604052806000815260200160008152602001600081526020016000151581525090565b8152602001615a346040518060800160405280600081526020016000815260200160008152602001606081525090565b8152604080516060810182526000808252602082810182905292820152910190815260006020820181905260409091015290565b828054828255906000526020600020908101928215615aa3579160200282015b82811115615aa3578251825591602001919060010190615a88565b50615aaf929150615b16565b5090565b508054600082559060005260206000209081019061189c9190615b16565b60405180610100016040528060008152602001600081526020016000815260200160008152602001600081526020016000815260200160008152602001600081525090565b5b80821115615aaf5760008155600101615b17565b6001600160a01b038116811461189c57600080fd5b60008060408385031215615b5357600080fd5b8235615b5e81615b2b565b91506020830135615b6e81615b2b565b809150509250929050565b6001600160e01b03198116811461189c57600080fd5b600060208284031215615ba157600080fd5b813561136681615b79565b60005b83811015615bc7578181015183820152602001615baf565b50506000910152565b60008151808452615be8816020860160208601615bac565b601f01601f19169290920160200192915050565b6020815260006113666020830184615bd0565b60008060408385031215615c2257600080fd5b50508035926020909101359150565b600060208284031215615c4357600080fd5b5035919050565b60008060408385031215615c5d57600080fd5b8235615c6881615b2b565b946020939093013593505050565b60006080830182518452602080840151818601526040840151604086015260608401516080606087015282815180855260a0880191508383019450600092505b80831015615cd65784518252938301936001929092019190830190615cb6565b509695505050505050565b6101e080825289516001600160a01b039081169183019190915260208a015160ff1661020083015260408a015161ffff1661022083015260608a0151166102408201526080890151610100610260830152600090615d436102e0840182615bd0565b905060a08b015161028084015260c08b01516102a084015260e08b01516102c0840152615d7d602084018b80518252602090810151910152565b8851606084015260208901516080840152875160a0840152602088015160c0840152604088015160e084015260608801511515610100840152828103610120840152615dc98188615c76565b86516001600160a01b0316610140850152602087015161016085015260408701516101808501529150615df99050565b836101a0830152615e0f6101c083018415159052565b9998505050505050505050565b600080600060608486031215615e3157600080fd5b8335615e3c81615b2b565b92506020840135615e4c81615b2b565b929592945050506040919091013590565b801515811461189c57600080fd5b600080600060608486031215615e8057600080fd5b8335615e8b81615b2b565b92506020840135615e4c81615e5d565b634e487b7160e01b600052604160045260246000fd5b600067ffffffffffffffff80841115615ecc57615ecc615e9b565b604051601f8501601f19908116603f01168101908282118183101715615ef457615ef4615e9b565b81604052809350858152868686011115615f0d57600080fd5b858560208301376000602087830101525050509392505050565b60008060008060008060c08789031215615f4057600080fd5b8635615f4b81615b2b565b95506020870135615f5b81615b2b565b9450604087013567ffffffffffffffff811115615f7757600080fd5b8701601f81018913615f8857600080fd5b615f9789823560208401615eb1565b9450506060870135615fa881615b2b565b9598949750929560808101359460a0909101359350915050565b600060208284031215615fd457600080fd5b813561136681615b2b565b600082601f830112615ff057600080fd5b61136683833560208501615eb1565b6000806040838503121561601257600080fd5b823561601d81615b2b565b9150602083013567ffffffffffffffff81111561603957600080fd5b61604585828601615fdf565b9150509250929050565b60008060006060848603121561606457600080fd5b505081359360208301359350604090920135919050565b6000806040838503121561608e57600080fd5b823591506020830135615b6e81615e5d565b600080604083850312156160b357600080fd5b82356160be81615b2b565b91506020830135615b6e81615e5d565b600080600080608085870312156160e457600080fd5b84356160ef81615b2b565b935060208501356160ff81615b2b565b925060408501359150606085013567ffffffffffffffff81111561612257600080fd5b61612e87828801615fdf565b91505092959194509250565b803561ffff81168114610e9257600080fd5b6000806000806080858703121561616257600080fd5b84359350602085013561617481615b2b565b92506161826040860161613a565b91506161906060860161613a565b905092959194509250565b602080825282518282018190526000919060409081850190868401855b8281101561463e5781518051855286810151878601528581015186860152606080820151908601526080808201519086015260a0808201519086015260c0808201519086015260e0908101519085015261010090930192908501906001016161b8565b600181811c9082168061622f57607f821691505b60208210810361624f57634e487b7160e01b600052602260045260246000fd5b50919050565b634e487b7160e01b600052601160045260246000fd5b80820180821115610bd557610bd5616255565b6020808252602d908201527f4552433732313a2063616c6c6572206973206e6f7420746f6b656e206f776e6560408201526c1c881bdc88185c1c1c9bdd9959609a1b606082015260800190565b634e487b7160e01b600052603260045260246000fd5b81810381811115610bd557610bd5616255565b634e487b7160e01b600052603160045260246000fd5b60006001820161631c5761631c616255565b5060010190565b60008251616335818460208701615bac565b9190910192915050565b60006020828403121561635157600080fd5b815160ff8116811461136657600080fd5b601f821115610dab57600081815260208120601f850160051c810160208610156163895750805b601f850160051c820191505b818110156163a857828155600101616395565b505050505050565b815167ffffffffffffffff8111156163ca576163ca615e9b565b6163de816163d8845461621b565b84616362565b602080601f83116001811461641357600084156163fb5750858301515b600019600386901b1c1916600185901b1785556163a8565b600085815260208120601f198616915b8281101561644257888601518255948401946001909101908401616423565b50858210156164605787850151600019600388901b60f8161c191681555b5050505050600190811b01905550565b6020808252602c908201527f46756e6374696f6e206d7573742062652063616c6c6564207468726f7567682060408201526b19195b1959d85d1958d85b1b60a21b606082015260800190565b6020808252602c908201527f46756e6374696f6e206d7573742062652063616c6c6564207468726f7567682060408201526b6163746976652070726f787960a01b606082015260800190565b60006020828403121561651a57600080fd5b5051919050565b8082028115828204841417610bd557610bd5616255565b60008261655557634e487b7160e01b600052601260045260246000fd5b500490565b6000835161656c818460208801615bac565b835190830190616580818360208801615bac565b01949350505050565b60008060006060848603121561659e57600080fd5b835192506020840151915060408401516165b781615b2b565b809150509250925092565b60208082526025908201527f4552433732313a207472616e736665722066726f6d20696e636f72726563742060408201526437bbb732b960d91b606082015260800190565b6000806040838503121561661a57600080fd5b505080516020909101519092909150565b60008060006060848603121561664057600080fd5b8351925060208401519150604084015190509250925092565b60208082526032908201527f4552433732313a207472616e7366657220746f206e6f6e20455243373231526560408201527131b2b4bb32b91034b6b83632b6b2b73a32b960711b606082015260800190565b6020808252602b908201527f496e697469616c697a61626c653a20636f6e7472616374206973206e6f74206960408201526a6e697469616c697a696e6760a81b606082015260800190565b60006020828403121561670857600080fd5b815161136681615e5d565b6001600160a01b038581168252841660208201526040810183905260806060820181905260009061674690830184615bd0565b9695505050505050565b60006020828403121561676257600080fd5b815161136681615b7956fe360894a13ba1a3210667c828492db98dca3e2076cc3735a920a3ca505d382bbc416464726573733a206c6f772d6c6576656c2064656c65676174652063616c6c206661696c6564a2646970667358221220ad965bfe1e075b1b5aa55104d96b2b9eb2aa25e0639023905020f5d46b19057c64736f6c63430008110033496e697469616c697a61626c653a20636f6e7472616374206973206e6f742069",
    "linkReferences": {
      "src/lib/SaloonLib.sol": {
        "SaloonLib": [
          {
            "start": 10812,
            "length": 20
          },
          {
            "start": 11614,
            "length": 20
          },
          {
            "start": 15296,
            "length": 20
          },
          {
            "start": 17562,
            "length": 20
          },
          {
            "start": 18505,
            "length": 20
          },
          {
            "start": 19678,
            "length": 20
          }
        ]
      }
    }
  },
  "methodIdentifiers": {
    "acceptOwnershipTransfer()": "b842e87f",
    "activeStrategies(uint256)": "b20b2429",
    "activeTokens(uint256)": "9f224f35",
    "addNewBountyPool(address,address,string,address,uint256,uint256)": "32fce602",
    "approve(address,uint256)": "095ea7b3",
    "balanceOf(address)": "70a08231",
    "billPremium(uint256)": "2dbe051e",
    "calcRequiredPremiumBalancePerPeriod(uint256,uint256)": "836ef1fa",
    "calculateEffectiveAPY(uint256,uint256,uint256)": "81c6f1a7",
    "claimPremium(uint256)": "f47ec3be",
    "collectAllReferralProfits()": "3e8888d9",
    "collectAllSaloonProfits(address)": "ecd7fbed",
    "collectReferralProfit(address)": "a089a520",
    "collectSaloonProfits(address,address)": "cf9564b9",
    "consolidate(uint256)": "949a4a4a",
    "consolidateAll()": "75bfd63d",
    "extendReferralPeriod(uint256,uint256)": "5de406dc",
    "getAllTokensByOwner(address)": "e9fda7d4",
    "getApproved(uint256)": "081812fc",
    "getCurrentAPY(uint256)": "7fbf3853",
    "index()": "2986c0e5",
    "initialize(address)": "c4d66de8",
    "isApprovedForAll(address,address)": "e985e9c5",
    "minTokenStakeAmount(address)": "39458723",
    "name()": "06fdde03",
    "nftInfo(uint256)": "1f8bc790",
    "owner()": "8da5cb5b",
    "ownerOf(uint256)": "6352211e",
    "payBounty(uint256,address,uint16,uint16)": "d075afac",
    "pidNFTList(uint256,uint256)": "96ea48e8",
    "pidStrategies(uint256,bytes32)": "074ecf03",
    "poolInfo(uint256)": "1526fe27",
    "proxiableUUID()": "52d1902d",
    "receiveStrategyYield(address,uint256)": "1aebcecb",
    "referralBalances(address,address)": "011b408b",
    "safeTransferFrom(address,address,uint256)": "42842e0e",
    "safeTransferFrom(address,address,uint256,bytes)": "b88d4fde",
    "saloonBountyProfit(address)": "e45abd0f",
    "saloonPremiumProfit(address)": "ca006148",
    "saloonStrategyProfit(address)": "598d17bf",
    "scheduleUnstake(uint256)": "106d08df",
    "setApprovalForAll(address,bool)": "a22cb465",
    "stake(uint256,uint256)": "7b0472f0",
    "strategyAddressToPid(address)": "957deecc",
    "supportsInterface(bytes4)": "01ffc9a7",
    "symbol()": "95d89b41",
    "tokenURI(uint256)": "c87b56dd",
    "tokenWhitelist(address)": "753d7563",
    "transferFrom(address,address,uint256)": "23b872dd",
    "transferOwnership(address)": "f2fde38b",
    "unstake(uint256,bool)": "9ebea88c",
    "updateTokenWhitelist(address,bool,uint256)": "2cb0dfcc",
    "upgradeTo(address)": "3659cfe6",
    "upgradeToAndCall(address,bytes)": "4f1ef286",
    "viewBountyBalance(uint256)": "6ac6d812"
  },
  "id": 46
}