{
  "abi": [
    {
      "inputs": [],
      "stateMutability": "nonpayable",
      "type": "constructor"
    },
    {
      "inputs": [
        {
          "internalType": "address",
          "name": "_owner",
          "type": "address"
        }
      ],
      "name": "initialize",
      "outputs": [
        {
          "internalType": "bytes32",
          "name": "",
          "type": "bytes32"
        }
      ],
      "stateMutability": "nonpayable",
      "type": "function"
    }
  ],
  "bytecode": {
    "object": "0x608060405234801561001057600080fd5b5061001961001e565b610080565b7f8e94fed44239eb2314ab7a406345e6c5a8f0ccedf3b600de3d004e672c33abf480546001909155801561007d5760405162461bcd60e51b815260206004820152600260248201526118a160f11b604482015260640160405180910390fd5b50565b61016b8061008f6000396000f3fe608060405234801561001057600080fd5b506004361061002b5760003560e01c8063c4d66de814610030575b600080fd5b61004361003e366004610105565b610055565b60405190815260200160405180910390f35b600061005f6100a3565b50600780546001600160a01b0383166001600160a01b03199091161790557f33774e659306e47509050e97cb651e731180a42d458212294d30751925c551a2919050565b7f8e94fed44239eb2314ab7a406345e6c5a8f0ccedf3b600de3d004e672c33abf48054600190915580156101025760405162461bcd60e51b815260206004820152600260248201526118a160f11b604482015260640160405180910390fd5b50565b60006020828403121561011757600080fd5b81356001600160a01b038116811461012e57600080fd5b939250505056fea26469706673582212207df2853d1f1f865375957900df0c16503f84f6415af50d8c86956a7f9958fef564736f6c63430008110033",
    "linkReferences": {}
  },
  "methodIdentifiers": {
    "initialize(address)": "c4d66de8"
  },
  "id": 43
}