{
  "abi": [
    {
      "inputs": [],
      "stateMutability": "nonpayable",
      "type": "constructor"
    },
    {
      "inputs": [
        {
          "internalType": "address",
          "name": "_owner",
          "type": "address"
        }
      ],
      "name": "initialize",
      "outputs": [
        {
          "internalType": "bytes32",
          "name": "",
          "type": "bytes32"
        }
      ],
      "stateMutability": "nonpayable",
      "type": "function"
    }
  ],
  "bytecode": {
    "object": "0x608060405234801561001057600080fd5b5061001961001e565b610080565b7f8e94fed44239eb2314ab7a406345e6c5a8f0ccedf3b600de3d004e672c33abf480546001909155801561007d5760405162461bcd60e51b815260206004820152600260248201526118a160f11b604482015260640160405180910390fd5b50565b6101de8061008f6000396000f3fe608060405234801561001057600080fd5b506004361061002b5760003560e01c8063c4d66de814610030575b600080fd5b61004361003e366004610178565b610055565b60405190815260200160405180910390f35b600061005f610116565b50600980546001600160a01b0383166001600160a01b031990911617905560046020527f948543ad562464d78df2375bcecaa90dc488cd7c4ce48810e4eb8e65a2916f0e805460ff199081166001908117909255615ec26000527fe2a907f9682ccc650d99ae5b2e59cac6396ff33450e26c7d25e43bf949a2799c8054909116909117905562093a8060075560026008557f33774e659306e47509050e97cb651e731180a42d458212294d30751925c551a2919050565b7f8e94fed44239eb2314ab7a406345e6c5a8f0ccedf3b600de3d004e672c33abf48054600190915580156101755760405162461bcd60e51b815260206004820152600260248201526118a160f11b604482015260640160405180910390fd5b50565b60006020828403121561018a57600080fd5b81356001600160a01b03811681146101a157600080fd5b939250505056fea2646970667358221220026cd94db24df3e1440d0aaa5626a8441d0b617e83b8c9b32b2402e2fb0f857364736f6c63430008130033",
    "linkReferences": {}
  },
  "methodIdentifiers": {
    "initialize(address)": "c4d66de8"
  },
  "id": 31
}