{
  "abi": [
    {
      "anonymous": false,
      "inputs": [
        {
          "indexed": true,
          "internalType": "uint256",
          "name": "pid",
          "type": "uint256"
        },
        {
          "indexed": false,
          "internalType": "uint256",
          "name": "oldAmount",
          "type": "uint256"
        },
        {
          "indexed": false,
          "internalType": "uint256",
          "name": "newAmount",
          "type": "uint256"
        }
      ],
      "name": "BountyBalanceChanged",
      "type": "event"
    },
    {
      "anonymous": false,
      "inputs": [
        {
          "indexed": true,
          "internalType": "address",
          "name": "hunter",
          "type": "address"
        },
        {
          "indexed": true,
          "internalType": "address",
          "name": "token",
          "type": "address"
        },
        {
          "indexed": false,
          "internalType": "uint256",
          "name": "amount",
          "type": "uint256"
        }
      ],
      "name": "BountyPaid",
      "type": "event"
    },
    {
      "anonymous": false,
      "inputs": [
        {
          "indexed": true,
          "internalType": "uint256",
          "name": "pid",
          "type": "uint256"
        },
        {
          "indexed": false,
          "internalType": "uint256",
          "name": "amount",
          "type": "uint256"
        }
      ],
      "name": "PremiumBilled",
      "type": "event"
    },
    {
      "anonymous": false,
      "inputs": [
        {
          "indexed": true,
          "internalType": "address",
          "name": "user",
          "type": "address"
        },
        {
          "indexed": true,
          "internalType": "uint256",
          "name": "pid",
          "type": "uint256"
        },
        {
          "indexed": false,
          "internalType": "uint256",
          "name": "amount",
          "type": "uint256"
        }
      ],
      "name": "Staked",
      "type": "event"
    },
    {
      "anonymous": false,
      "inputs": [
        {
          "indexed": true,
          "internalType": "address",
          "name": "user",
          "type": "address"
        },
        {
          "indexed": true,
          "internalType": "uint256",
          "name": "pid",
          "type": "uint256"
        },
        {
          "indexed": false,
          "internalType": "uint256",
          "name": "amount",
          "type": "uint256"
        }
      ],
      "name": "Unstaked",
      "type": "event"
    },
    {
      "anonymous": false,
      "inputs": [
        {
          "indexed": true,
          "internalType": "uint256",
          "name": "pid",
          "type": "uint256"
        },
        {
          "indexed": false,
          "internalType": "uint256",
          "name": "amount",
          "type": "uint256"
        }
      ],
      "name": "WithdrawalOrUnstakeScheduled",
      "type": "event"
    },
    {
      "inputs": [
        {
          "internalType": "address",
          "name": "_approved",
          "type": "address"
        },
        {
          "internalType": "uint256",
          "name": "_tokenId",
          "type": "uint256"
        }
      ],
      "name": "approve",
      "outputs": [],
      "stateMutability": "nonpayable",
      "type": "function"
    },
    {
      "inputs": [
        {
          "internalType": "address",
          "name": "_owner",
          "type": "address"
        }
      ],
      "name": "balanceOf",
      "outputs": [
        {
          "internalType": "uint256",
          "name": "",
          "type": "uint256"
        }
      ],
      "stateMutability": "view",
      "type": "function"
    },
    {
      "inputs": [
        {
          "internalType": "uint256",
          "name": "_pid",
          "type": "uint256"
        },
        {
          "internalType": "uint256",
          "name": "_stake",
          "type": "uint256"
        },
        {
          "internalType": "uint256",
          "name": "_x",
          "type": "uint256"
        }
      ],
      "name": "calculateEffectiveAPY",
      "outputs": [
        {
          "internalType": "uint256",
          "name": "scaledAPY",
          "type": "uint256"
        }
      ],
      "stateMutability": "view",
      "type": "function"
    },
    {
      "inputs": [
        {
          "internalType": "uint256",
          "name": "_tokenId",
          "type": "uint256"
        }
      ],
      "name": "claimPremium",
      "outputs": [],
      "stateMutability": "nonpayable",
      "type": "function"
    },
    {
      "inputs": [
        {
          "internalType": "uint256",
          "name": "_pid",
          "type": "uint256"
        }
      ],
      "name": "consolidate",
      "outputs": [],
      "stateMutability": "nonpayable",
      "type": "function"
    },
    {
      "inputs": [],
      "name": "consolidateAll",
      "outputs": [],
      "stateMutability": "nonpayable",
      "type": "function"
    },
    {
      "inputs": [
        {
          "internalType": "uint256",
          "name": "_tokenId",
          "type": "uint256"
        }
      ],
      "name": "getApproved",
      "outputs": [
        {
          "internalType": "address",
          "name": "",
          "type": "address"
        }
      ],
      "stateMutability": "view",
      "type": "function"
    },
    {
      "inputs": [
        {
          "internalType": "uint256",
          "name": "_pid",
          "type": "uint256"
        }
      ],
      "name": "getCurrentAPY",
      "outputs": [
        {
          "internalType": "uint256",
          "name": "currentAPY",
          "type": "uint256"
        }
      ],
      "stateMutability": "view",
      "type": "function"
    },
    {
      "inputs": [
        {
          "internalType": "address",
          "name": "_owner",
          "type": "address"
        },
        {
          "internalType": "address",
          "name": "_operator",
          "type": "address"
        }
      ],
      "name": "isApprovedForAll",
      "outputs": [
        {
          "internalType": "bool",
          "name": "",
          "type": "bool"
        }
      ],
      "stateMutability": "view",
      "type": "function"
    },
    {
      "inputs": [
        {
          "internalType": "uint256",
          "name": "_tokenId",
          "type": "uint256"
        }
      ],
      "name": "ownerOf",
      "outputs": [
        {
          "internalType": "address",
          "name": "",
          "type": "address"
        }
      ],
      "stateMutability": "view",
      "type": "function"
    },
    {
      "inputs": [
        {
          "internalType": "uint256",
          "name": "__pid",
          "type": "uint256"
        },
        {
          "internalType": "address",
          "name": "__hunter",
          "type": "address"
        },
        {
          "internalType": "uint16",
          "name": "_payoutBPS",
          "type": "uint16"
        },
        {
          "internalType": "uint16",
          "name": "_hunterBonusBPS",
          "type": "uint16"
        }
      ],
      "name": "payBounty",
      "outputs": [],
      "stateMutability": "nonpayable",
      "type": "function"
    },
    {
      "inputs": [
        {
          "internalType": "uint256",
          "name": "_pid",
          "type": "uint256"
        },
        {
          "internalType": "address",
          "name": "_hunter",
          "type": "address"
        },
        {
          "internalType": "uint16",
          "name": "_payoutBPS",
          "type": "uint16"
        },
        {
          "internalType": "uint16",
          "name": "_hunterBonusBPS",
          "type": "uint16"
        }
      ],
      "name": "payBountyDuringAssessment",
      "outputs": [],
      "stateMutability": "nonpayable",
      "type": "function"
    },
    {
      "inputs": [
        {
          "internalType": "address",
          "name": "_from",
          "type": "address"
        },
        {
          "internalType": "address",
          "name": "_to",
          "type": "address"
        },
        {
          "internalType": "uint256",
          "name": "_tokenId",
          "type": "uint256"
        }
      ],
      "name": "safeTransferFrom",
      "outputs": [],
      "stateMutability": "nonpayable",
      "type": "function"
    },
    {
      "inputs": [
        {
          "internalType": "address",
          "name": "_from",
          "type": "address"
        },
        {
          "internalType": "address",
          "name": "_to",
          "type": "address"
        },
        {
          "internalType": "uint256",
          "name": "_tokenId",
          "type": "uint256"
        },
        {
          "internalType": "bytes",
          "name": "data",
          "type": "bytes"
        }
      ],
      "name": "safeTransferFrom",
      "outputs": [],
      "stateMutability": "nonpayable",
      "type": "function"
    },
    {
      "inputs": [
        {
          "internalType": "uint256",
          "name": "_tokenId",
          "type": "uint256"
        }
      ],
      "name": "scheduleUnstake",
      "outputs": [
        {
          "internalType": "bool",
          "name": "",
          "type": "bool"
        }
      ],
      "stateMutability": "nonpayable",
      "type": "function"
    },
    {
      "inputs": [
        {
          "internalType": "address",
          "name": "_operator",
          "type": "address"
        },
        {
          "internalType": "bool",
          "name": "_approved",
          "type": "bool"
        }
      ],
      "name": "setApprovalForAll",
      "outputs": [],
      "stateMutability": "nonpayable",
      "type": "function"
    },
    {
      "inputs": [
        {
          "internalType": "uint256",
          "name": "_pid",
          "type": "uint256"
        },
        {
          "internalType": "uint256",
          "name": "_amount",
          "type": "uint256"
        }
      ],
      "name": "stake",
      "outputs": [
        {
          "internalType": "uint256",
          "name": "",
          "type": "uint256"
        }
      ],
      "stateMutability": "nonpayable",
      "type": "function"
    },
    {
      "inputs": [
        {
          "internalType": "address",
          "name": "_from",
          "type": "address"
        },
        {
          "internalType": "address",
          "name": "_to",
          "type": "address"
        },
        {
          "internalType": "uint256",
          "name": "_tokenId",
          "type": "uint256"
        }
      ],
      "name": "transferFrom",
      "outputs": [],
      "stateMutability": "nonpayable",
      "type": "function"
    },
    {
      "inputs": [
        {
          "internalType": "uint256",
          "name": "_tokenId",
          "type": "uint256"
        },
        {
          "internalType": "bool",
          "name": "_shouldHarvest",
          "type": "bool"
        }
      ],
      "name": "unstake",
      "outputs": [
        {
          "internalType": "bool",
          "name": "",
          "type": "bool"
        }
      ],
      "stateMutability": "nonpayable",
      "type": "function"
    },
    {
      "inputs": [
        {
          "internalType": "uint256",
          "name": "_pid",
          "type": "uint256"
        }
      ],
      "name": "viewBountyBalance",
      "outputs": [
        {
          "internalType": "uint256",
          "name": "",
          "type": "uint256"
        }
      ],
      "stateMutability": "view",
      "type": "function"
    },
    {
      "inputs": [
        {
          "internalType": "uint256",
          "name": "_pid",
          "type": "uint256"
        }
      ],
      "name": "withdrawRemainingAPY",
      "outputs": [],
      "stateMutability": "nonpayable",
      "type": "function"
    }
  ],
  "bytecode": {
    "object": "0x608060405234801561001057600080fd5b50614abb806100206000396000f3fe608060405234801561001057600080fd5b50600436106101375760003560e01c80637b0472f0116100b8578063a22cb4651161007c578063a22cb4651461028b578063b88d4fde1461029e578063cfd54bfa146102b1578063d075afac146102c4578063e985e9c5146102d7578063f47ec3be146102ea57600080fd5b80637b0472f01461022c5780637fbf38531461023f57806381c6f1a714610252578063949a4a4a146102655780639ebea88c1461027857600080fd5b80634ef19f63116100ff5780634ef19f63146101ca5780636352211e146101dd5780636ac6d812146101f057806370a082311461021157806375bfd63d1461022457600080fd5b8063081812fc1461013c578063095ea7b31461016c578063106d08df1461018157806323b872dd146101a457806342842e0e146101b7575b600080fd5b61014f61014a3660046144cb565b6102fd565b6040516001600160a01b0390911681526020015b60405180910390f35b61017f61017a3660046144f9565b61037b565b005b61019461018f3660046144cb565b6103f2565b6040519015158152602001610163565b61017f6101b2366004614525565b61054f565b61017f6101c5366004614525565b6105cf565b61017f6101d83660046144cb565b61061e565b61014f6101eb3660046144cb565b610c96565b6102036101fe3660046144cb565b610cd1565b604051908152602001610163565b61020361021f366004614566565b610f8c565b61017f61100b565b61020361023a366004614583565b611036565b61020361024d3660046144cb565b611510565b6102036102603660046145a5565b611829565b61017f6102733660046144cb565b611b0e565b6101946102863660046145df565b611f44565b61017f61029936600461460f565b612249565b61017f6102ac36600461463d565b612291565b61017f6102bf3660046146f3565b612307565b61017f6102d23660046146f3565b612668565b6101946102e5366004614742565b612c19565b61017f6102f83660046144cb565b612ca0565b60405163020604bf60e21b81526004810182905260009073__$0a47a65a6432b6520c78f3e5508d96088b$__9063081812fc906024015b602060405180830381865af4158015610351573d6000803e3d6000fd5b505050506040513d601f19601f820116820180604052508101906103759190614770565b92915050565b60405163095ea7b360e01b81526001600160a01b03831660048201526024810182905273__$0a47a65a6432b6520c78f3e5508d96088b$__9063095ea7b3906044015b60006040518083038186803b1580156103d657600080fd5b505af41580156103ea573d6000803e3d6000fd5b505050505050565b600080516020614a46833981519152546000906001811461042e5760405162461bcd60e51b81526004016104259061478d565b60405180910390fd5b6002600080516020614a468339815191525561044a3384612d90565b61048c5760405162461bcd60e51b815260206004820152601360248201527239b2b73232b91034b9903737ba1037bbb732b960691b6044820152606401610425565b600080516020614a668339815191526104a6846000612e2e565b6000848152600a602052604081208054600382019290925560048301549091906104d090426147bf565b600683015560048301546104e490426147bf565b6104f1906203f4806147bf565b6007830155600182015460405190815281907fb3b9c925de3673837b40c6b4d4463a8f88dc821cd27e07f1ff6bf6abf96413a59060200160405180910390a2600194505050506001600080516020614a468339815191525550919050565b6040516323b872dd60e01b81526001600160a01b038085166004830152831660248201526044810182905273__$0a47a65a6432b6520c78f3e5508d96088b$__906323b872dd906064015b60006040518083038186803b1580156105b257600080fd5b505af41580156105c6573d6000803e3d6000fd5b50505050505050565b604051632142170760e11b81526001600160a01b038085166004830152831660248201526044810182905273__$0a47a65a6432b6520c78f3e5508d96088b$__906342842e0e9060640161059a565b806000806009018281548110610636576106366147d2565b6000918252602090912060408051610220810190915260189092020180546001600160a01b038082166101208501908152600160a01b830460ff16610140860152600160a81b90920461ffff1661016085015260018301541661018084015260028201805484929184916101a0850191906106b0906147e8565b80601f01602080910402602001604051908101604052809291908181526020018280546106dc906147e8565b80156107295780601f106106fe57610100808354040283529160200191610729565b820191906000526020600020905b81548152906001019060200180831161070c57829003601f168201915b505050918352505060038201546020808301919091526004830154604080840191909152600590930154606092830152928452815180830183526006860154815260078601548185015284840152815180830183526008860154815260098601548185015284830152815160808082018452600a8701548252600b87015482860152600c87015482850152600d87015460ff161515828401528583019190915282518082018452600e870180548252600f8801548287015260108801548286015260118801805486518189028101890190975280875293909701969195909493860193929083018282801561083d57602002820191906000526020600020905b815481526020019060010190808311610829575b505050919092525050508152604080516060808201835260128501546001600160a01b039081168352601386015460208085019190915260148701548486015285019290925260158501549284019290925260168401548284015260179093015460ff16151560809092019190915282510151919250163314806108cb57506007546001600160a01b031633145b6109085760405162461bcd60e51b815260206004820152600e60248201526d139bdd08185d5d1a1bdc9a5e995960921b6044820152606401610425565b600080600901848154811061091f5761091f6147d2565b6000918252602090912060408051610220810190915260189092020180546001600160a01b038082166101208501908152600160a01b830460ff16610140860152600160a81b90920461ffff1661016085015260018301541661018084015260028201805484929184916101a085019190610999906147e8565b80601f01602080910402602001604051908101604052809291908181526020018280546109c5906147e8565b8015610a125780601f106109e757610100808354040283529160200191610a12565b820191906000526020600020905b8154815290600101906020018083116109f557829003601f168201915b505050918352505060038201546020808301919091526004830154604080840191909152600590930154606092830152928452815180830183526006860154815260078601548185015284840152815180830183526008860154815260098601548185015284830152815160808082018452600a8701548252600b87015482860152600c87015482850152600d87015460ff161515828401528583019190915282518082018452600e870180548252600f88015482870152601088015482860152601188018054865181890281018901909752808752939097019691959094938601939290830182828015610b2657602002820191906000526020600020905b815481526020019060010190808311610b12575b505050919092525050508152604080516060808201835260128501546001600160a01b03168252601385015460208381019190915260148601548385015284019190915260158401549183019190915260168301549082015260179091015460ff16151560809091015261010081015190915015610be65760405162461bcd60e51b815260206004820152601860248201527f506f6f6c206d75737420626520646561637469766174656400000000000000006044820152606401610425565b6000848152600b6020526040812054905b81811015610c3d576000868152600b60205260408120805483908110610c1f57610c1f6147d2565b90600052602060002001549050610c37816001612e2e565b50610bf7565b50815160608101516040840151519151610c63926001600160a01b039091169190613078565b506000806009018681548110610c7b57610c7b6147d2565b60009182526020909120600860189092020101555050505050565b6040516331a9108f60e11b81526004810182905260009073__$0a47a65a6432b6520c78f3e5508d96088b$__90636352211e90602401610334565b60008060006009018381548110610cea57610cea6147d2565b6000918252602090912060408051610220810190915260189092020180546001600160a01b038082166101208501908152600160a01b830460ff16610140860152600160a81b90920461ffff1661016085015260018301541661018084015260028201805484929184916101a085019190610d64906147e8565b80601f0160208091040260200160405190810160405280929190818152602001828054610d90906147e8565b8015610ddd5780601f10610db257610100808354040283529160200191610ddd565b820191906000526020600020905b815481529060010190602001808311610dc057829003601f168201915b505050918352505060038201546020808301919091526004830154604080840191909152600590930154606092830152928452815180830183526006860154815260078601548185015284840152815180830183526008860154815260098601548185015284830152815160808082018452600a8701548252600b87015482860152600c87015482850152600d87015460ff161515828401528583019190915282518082018452600e870180548252600f88015482870152601088015482860152601188018054865181890281018901909752808752939097019691959094938601939290830182828015610ef157602002820191906000526020600020905b815481526020019060010190808311610edd575b505050919092525050508152604080516060808201835260128501546001600160a01b0316825260138501546020838101919091526014860154838501528085019290925260158501549284019290925260168401549183019190915260179092015460ff16151560809091015281810151908101519051919250610f75916147bf565b815160c00151610f8591906147bf565b9392505050565b6040516370a0823160e01b81526001600160a01b038216600482015260009073__$0a47a65a6432b6520c78f3e5508d96088b$__906370a0823190602401602060405180830381865af4158015610fe7573d6000803e3d6000fd5b505050506040513d601f19601f820116820180604052508101906103759190614822565b60095460005b818110156110325761102281611b0e565b61102b8161483b565b9050611011565b5050565b600080516020614a4683398151915254600090600181146110695760405162461bcd60e51b81526004016104259061478d565b6002600080516020614a4683398151915255836000806009018281548110611093576110936147d2565b6000918252602090912060408051610220810190915260189092020180546001600160a01b038082166101208501908152600160a01b830460ff16610140860152600160a81b90920461ffff1661016085015260018301541661018084015260028201805484929184916101a08501919061110d906147e8565b80601f0160208091040260200160405190810160405280929190818152602001828054611139906147e8565b80156111865780601f1061115b57610100808354040283529160200191611186565b820191906000526020600020905b81548152906001019060200180831161116957829003601f168201915b505050918352505060038201546020808301919091526004830154604080840191909152600590930154606092830152928452815180830183526006860154815260078601548185015284840152815180830183526008860154815260098601548185015284830152815160808082018452600a8701548252600b87015482860152600c87015482850152600d87015460ff161515828401528583019190915282518082018452600e870180548252600f8801548287015260108801548286015260118801805486518189028101890190975280875293909701969195909493860193929083018282801561129a57602002820191906000526020600020905b815481526020019060010190808311611286575b505050919092525050508152604080516060808201835260128501546001600160a01b03168252601385015460208381019190915260148601548385015284019190915260158401549183019190915260168301549082015260179091015460ff16151560809091015261010081015190915061134b5760405162461bcd60e51b815260206004820152600f60248201526e706f6f6c206e6f742061637469766560881b6044820152606401610425565b6000806009018781548110611362576113626147d2565b60009182526020808320601890920290910180546001600160a01b0316835260169091526040909120549091508610156113d25760405162461bcd60e51b8152602060048201526011602482015270135a5b881cdd185ad9481b9bdd081b595d607a1b6044820152606401610425565b60006113dd88610cd1565b82549091506113f7906001600160a01b031633308a6130e8565b50600061140589338a61312e565b90508783600001600401600082825461141e91906147bf565b90915550506003830154600484015411156114715760405162461bcd60e51b8152602060048201526013602482015272115e18d959591959081c1bdbdb081b1a5b5a5d606a1b6044820152606401610425565b604051888152899033907f1449c6dd7851abc30abf37f57715f492010519147cc2652fbc38202c18a6ee909060200160405180910390a360006114b38a610cd1565b60408051858152602081018390529192508b917fa3ea4fb8dee4d414198cb197af6eae4fe483c1a0b849dc50e53b9bf1a60e2166910160405180910390a2506001600080516020614a468339815191525598975050505050505050565b60008060006009018381548110611529576115296147d2565b6000918252602090912060408051610220810190915260189092020180546001600160a01b038082166101208501908152600160a01b830460ff16610140860152600160a81b90920461ffff1661016085015260018301541661018084015260028201805484929184916101a0850191906115a3906147e8565b80601f01602080910402602001604051908101604052809291908181526020018280546115cf906147e8565b801561161c5780601f106115f15761010080835404028352916020019161161c565b820191906000526020600020905b8154815290600101906020018083116115ff57829003601f168201915b505050918352505060038201546020808301919091526004830154604080840191909152600590930154606092830152928452815180830183526006860154815260078601548185015284840152815180830183526008860154815260098601548185015284830152815160808082018452600a8701548252600b87015482860152600c87015482850152600d87015460ff161515828401528583019190915282518082018452600e870180548252600f8801548287015260108801548286015260118801805486518189028101890190975280875293909701969195909493860193929083018282801561173057602002820191906000526020600020905b81548152602001906001019080831161171c575b505050919092525050508152604080516060808201835260128501546001600160a01b03168252601385015460208084019190915260148601548385015284019190915260158401548284015260168401549083015260179092015460ff16151560809182015282015151825160e001519151632500225b60e11b815260048101829052602481018390529293509173__$295e309c8a6ffd54f96e1a7c7b04118a38$__90634a0044b6906044015b602060405180830381865af41580156117fc573d6000803e3d6000fd5b505050506040513d601f19601f820116820180604052508101906118209190614822565b95945050505050565b60008060006009018581548110611842576118426147d2565b6000918252602090912060408051610220810190915260189092020180546001600160a01b038082166101208501908152600160a01b830460ff16610140860152600160a81b90920461ffff1661016085015260018301541661018084015260028201805484929184916101a0850191906118bc906147e8565b80601f01602080910402602001604051908101604052809291908181526020018280546118e8906147e8565b80156119355780601f1061190a57610100808354040283529160200191611935565b820191906000526020600020905b81548152906001019060200180831161191857829003601f168201915b505050918352505060038201546020808301919091526004830154604080840191909152600590930154606092830152928452815180830183526006860154815260078601548185015284840152815180830183526008860154815260098601548185015284830152815160808082018452600a8701548252600b87015482860152600c87015482850152600d87015460ff161515828401528583019190915282518082018452600e870180548252600f88015482870152601088015482860152601188018054865181890281018901909752808752939097019691959094938601939290830182828015611a4957602002820191906000526020600020905b815481526020019060010190808311611a35575b505050919092525050508152604080516060808201835260128501546001600160a01b03168252601385015460208084019190915260148601548385015284019190915260158401548284015260168401549083015260179092015460ff161515608090910152815160a081015160e0909101519151630d17449160e21b815260048101889052602481018790526044810191909152606481019190915290915073__$295e309c8a6ffd54f96e1a7c7b04118a38$__9063345d1244906084016117df565b6000806009018281548110611b2557611b256147d2565b6000918252602090912060408051610220810190915260189092020180546001600160a01b038082166101208501908152600160a01b830460ff16610140860152600160a81b90920461ffff1661016085015260018301541661018084015260028201805484929184916101a085019190611b9f906147e8565b80601f0160208091040260200160405190810160405280929190818152602001828054611bcb906147e8565b8015611c185780601f10611bed57610100808354040283529160200191611c18565b820191906000526020600020905b815481529060010190602001808311611bfb57829003601f168201915b505050918352505060038201546020808301919091526004830154604080840191909152600590930154606092830152928452815180830183526006860154815260078601548185015284840152815180830183526008860154815260098601548185015284830152815160808082018452600a8701548252600b87015482860152600c87015482850152600d87015460ff161515828401528583019190915282518082018452600e870180548252600f88015482870152601088015482860152601188018054865181890281018901909752808752939097019691959094938601939290830182828015611d2c57602002820191906000526020600020905b815481526020019060010190808311611d18575b505050919092525050508152604080516060808201835260128501546001600160a01b03168252601385015460208381019190915260148601548385015284019190915260158401549183019190915260168301548183015260179092015460ff1615156080918201528201510151805191925090801580611db15750826101000151155b15611dbc5750505050565b60005b81811015611df957611de9838281518110611ddc57611ddc6147d2565b602002602001015161347d565b611df28161483b565b9050611dbf565b506000848152600b6020908152604080832080548251818502810185019093528083529192909190830182828015611e5057602002820191906000526020600020905b815481526020019060010190808311611e3c575b5050835193945060009250829150505b82811015611ee4576000848281518110611e7c57611e7c6147d2565b60200260200101519050600080600a0160008381526020019081526020016000209050611eaa826000612e2e565b6001810154611eba8b8287611829565b60038301556002820154611ece90866147bf565b945050505080611edd9061483b565b9050611e60565b508060006009018881548110611efc57611efc6147d2565b60009182526020909120601060189092020101556009805488908110611f2457611f246147d2565b9060005260206000209060180201600e0160030160006105c6919061444d565b600080516020614a468339815191525460009060018114611f775760405162461bcd60e51b81526004016104259061478d565b6002600080516020614a4683398151915255611f933385612d90565b611fd55760405162461bcd60e51b815260206004820152601360248201527239b2b73232b91034b9903737ba1037bbb732b960691b6044820152606401610425565b6000848152600a602052604081208054600980549293919283908110611ffd57611ffd6147d2565b6000918252602082206040516331a9108f60e11b8152600481018b905260189290920201925073__$0a47a65a6432b6520c78f3e5508d96088b$__90636352211e90602401602060405180830381865af415801561205f573d6000803e3d6000fd5b505050506040513d601f19601f820116820180604052508101906120839190614770565b90504282601501541015612105574284600601541080156120a75750428460070154115b6121055760405162461bcd60e51b815260206004820152602960248201527f54696d656c6f636b206e6f7420736574206f72206e6f7420636f6d706c6574656044820152686420696e2074696d6560b81b6064820152608401610425565b61210f8888612e2e565b60018401805460009182905560068601829055600786018290559061213385610cd1565b90508815612144576121448a6136a6565b811561217e57818460000160040160008282546121619190614854565b9091555050835461217c906001600160a01b03168484613078565b505b604051828152859033907f7fc4727e062e336010f2c282598ef5f14facb3de68cf8195c2f23e1454b2b74e9060200160405180910390a360006121c086610cd1565b604080518481526020810183905291925087917fa3ea4fb8dee4d414198cb197af6eae4fe483c1a0b849dc50e53b9bf1a60e2166910160405180910390a2600887015460ff166122255760118501805460018101825560009182526020909120018b90555b60019850505050505050506001600080516020614a46833981519152555092915050565b60405163a22cb46560e01b81526001600160a01b0383166004820152811515602482015273__$0a47a65a6432b6520c78f3e5508d96088b$__9063a22cb465906044016103be565b604051635c46a7ef60e11b815273__$0a47a65a6432b6520c78f3e5508d96088b$__9063b88d4fde906122d09088908890889088908890600401614867565b60006040518083038186803b1580156122e857600080fd5b505af41580156122fc573d6000803e3d6000fd5b505050505050505050565b6007546001600160a01b0316331461234d5760405162461bcd60e51b81526020600482015260096024820152683737ba1037bbb732b960b91b6044820152606401610425565b60098054600080516020614a668339815191529160009187908110612374576123746147d2565b90600052602060002090601802019050428160150154116123d15760405162461bcd60e51b815260206004820152601760248201527641737365736d656e7420706572696f6420626f756e747960481b6044820152606401610425565b6127108461ffff1611156124195760405162461bcd60e51b815260206004820152600f60248201526e0a0c2f2deeae840e8dede40d0d2ced608b1b6044820152606401610425565b6127108361ffff1611156124605760405162461bcd60e51b815260206004820152600e60248201526d084dedceae640e8dede40d0d2ced60931b6044820152606401610425565b6124698661375b565b506006810154600183015460009061248561ffff8816846148bb565b61248f91906148d2565b9050808360060160000160008282546124a89190614854565b909155505060018401546000906124c361ffff881682614854565b600187015460058801546124d790866148bb565b6124e191906148d2565b6124eb91906148bb565b6124f591906148d2565b60148501546013860154601287015460405163fc76fff360e01b815260048101859052602481019390935260448301919091526001600160a01b031660648201529091506000908190819073__$295e309c8a6ffd54f96e1a7c7b04118a38$__9063fc76fff390608401606060405180830381865af415801561257c573d6000803e3d6000fd5b505050506040513d601f19601f820116820180604052508101906125a091906148f4565b895492955090935091506001600160a01b03166125be8282856138c0565b6001600160a01b0381166000908152600c6020526040812080548692906125e69084906147bf565b9091555061260b90508c6125fa8789614854565b6001600160a01b0384169190613078565b50806001600160a01b03168c6001600160a01b03167fbcbf239e05ac65bcc1a5612cd36d392b0a0aa8c93e027bc86e727687483424888860405161265191815260200190565b60405180910390a350505050505050505050505050565b6007546001600160a01b031633146126ae5760405162461bcd60e51b81526020600482015260096024820152683737ba1037bbb732b960b91b6044820152606401610425565b83836000600080516020614a66833981519152905060008060090184815481106126da576126da6147d2565b90600052602060002090601802019050428160150154106127375760405162461bcd60e51b815260206004820152601760248201527641737365736d656e7420706572696f6420626f756e747960481b6044820152606401610425565b6127108661ffff16111561277f5760405162461bcd60e51b815260206004820152600f60248201526e0a0c2f2deeae840e8dede40d0d2ced608b1b6044820152606401610425565b6127108561ffff1611156127c65760405162461bcd60e51b815260206004820152600e60248201526d084dedceae640e8dede40d0d2ced60931b6044820152606401610425565b6004810154600090816127d887610cd1565b9050600085600101548a61ffff16836127f191906148bb565b6127fb91906148d2565b6000898152600b6020526040902054909150838210156128f55760008488600201548461282891906148bb565b61283291906148d2565b905060005b828110156128ee5760008b8152600b6020526040812080548390811061285f5761285f6147d2565b6000918252602080832090910154808352600a9091526040822099509150612888908290612e2e565b60008a60020154848a6001015461289f91906148bb565b6128a991906148d2565b9050808960010160008282546128bf9190614854565b909155505060048a0180548291906000906128db908490614854565b9091555050600190920191506128379050565b5050612a19565b8382101580156129055750828211155b156129df5760005b8181101561299c5760008a8152600b60205260408120805483908110612935576129356147d2565b6000918252602080832090910154808352600a909152604082209850915061295e908290612e2e565b6000600188018190556003880155600887015460ff166129935760118801805460018101825560009182526020909120018190555b5060010161290d565b50600060048701556129ad8961375b565b5060006129ba8584614854565b9050808760060160000160008282546129d39190614854565b90915550612a19915050565b60405162461bcd60e51b815260206004820152600f60248201526e082dadeeadce840e8dede40d0d2ced608b1b6044820152606401610425565b6001870154600090612a2f61ffff8d1682614854565b60018a015460058b0154612a4390876148bb565b612a4d91906148d2565b612a5791906148bb565b612a6191906148d2565b6014880154601389015460128a015460405163fc76fff360e01b815260048101859052602481019390935260448301919091526001600160a01b031660648201529091506000908190819073__$295e309c8a6ffd54f96e1a7c7b04118a38$__9063fc76fff390608401606060405180830381865af4158015612ae8573d6000803e3d6000fd5b505050506040513d601f19601f82011682018060405250810190612b0c91906148f4565b8c5492955090935091506001600160a01b0316612b2a8282856138c0565b6001600160a01b0381166000908152600c602052604081208054869290612b529084906147bf565b90915550612b6690508d6125fa878a614854565b506000612b728f610cd1565b9050816001600160a01b03168e6001600160a01b03167fbcbf239e05ac65bcc1a5612cd36d392b0a0aa8c93e027bc86e727687483424888a604051612bb991815260200190565b60405180910390a38e7fa3ea4fb8dee4d414198cb197af6eae4fe483c1a0b849dc50e53b9bf1a60e21668a83604051612bfc929190918252602082015260400190565b60405180910390a250505050505050505050505050505050505050565b60405163e985e9c560e01b81526001600160a01b0380841660048301528216602482015260009073__$0a47a65a6432b6520c78f3e5508d96088b$__9063e985e9c590604401602060405180830381865af4158015612c7c573d6000803e3d6000fd5b505050506040513d601f19601f82011682018060405250810190610f85919061492d565b600080516020614a468339815191525460018114612cd05760405162461bcd60e51b81526004016104259061478d565b6002600080516020614a4683398151915255612cec3383612d90565b612d4e5760405162461bcd60e51b815260206004820152602d60248201527f4552433732313a2063616c6c6572206973206e6f7420746f6b656e206f776e6560448201526c1c881bdc88185c1c1c9bdd9959609a1b6064820152608401610425565b612d59826001612e2e565b6000828152600a60205260408120600101549003612d7a57612d7a826136a6565b6001600080516020614a46833981519152555050565b600080612d9c83613910565b9050806001600160a01b0316846001600160a01b03161480612e0257506001600160a01b0380821660009081527f07cfe06905cfedb580eece28a10ae6a81afa7f795e57d58eb5cecaff527e70c4602090815260408083209388168352929052205460ff165b80612e265750836001600160a01b0316612e1b8461396f565b6001600160a01b0316145b949350505050565b6000828152600a602052604081208054600980549293919283908110612e5657612e566147d2565b90600052602060002090601802019050600080600073__$295e309c8a6ffd54f96e1a7c7b04118a38$__63ad6fa2338560160154886005015489600101548a600301548b600401546040518663ffffffff1660e01b8152600401612edc959493929190948552602085019390935260408401919091526060830152608082015260a00190565b606060405180830381865af4158015612ef9573d6000803e3d6000fd5b505050506040513d601f19601f82011682018060405250810190612f1d919061494a565b92509250925086612f6b578360160154600003612f3a5742612f40565b83601601545b866005018190555080866004016000828254612f5c91906147bf565b90915550505050505050505050565b6008840154831115612f8157612f8185846139b5565b821561306e5760006004870181905560168501549003612fa15742612fa7565b83601601545b6005870155600884018054849190600090612fc3908490614854565b9091555050600984018054839190600090612fdf908490614854565b90915550506040516331a9108f60e11b8152600481018990526122fc9073__$0a47a65a6432b6520c78f3e5508d96088b$__90636352211e90602401602060405180830381865af4158015613038573d6000803e3d6000fd5b505050506040513d601f19601f8201168201806040525081019061305c9190614770565b85546001600160a01b03169084613078565b5050505050505050565b6040516001600160a01b0383166024820152604481018290526000906130de90859063a9059cbb60e01b906064015b60408051601f198184030181529190526020810180516001600160e01b03166001600160e01b031990931692909217909152613d2c565b5060019392505050565b6040516001600160a01b03808516602483015283166044820152606481018290526000906131239086906323b872dd60e01b906084016130a7565b506001949350505050565b60006001600160a01b0383166131865760405162461bcd60e51b815260206004820152601f60248201527f45524332303a206d696e7420746f20746865207a65726f2061646472657373006044820152606401610425565b60006131bd8584600060090188815481106131a3576131a36147d2565b9060005260206000209060180201600e0160000154611829565b905060006131ca85613dfe565b905061321d60405180610120016040528060008152602001600081526020016000815260200160008152602001600081526020016000815260200160008152602001600081526020016000151581525090565b868152602081018590526009805460009173__$295e309c8a6ffd54f96e1a7c7b04118a38$__9163098952389189918c90811061325c5761325c6147d2565b9060005260206000209060180201600001600301546040518363ffffffff1660e01b8152600401613297929190918252602082015260400190565b6040805180830381865af41580156132b3573d6000803e3d6000fd5b505050506040513d601f19601f820116820180604052508101906132d79190614978565b509050674563918244f400008160006009018a815481106132fa576132fa6147d2565b9060005260206000209060180201600e016002015461331991906147bf565b111561335d5760405162461bcd60e51b81526020600482015260136024820152721608189bdd5b99185c9e481d9a5bdb185d1959606a1b6044820152606401610425565b6040828101828152606084018681524260a086019081526000878152600a602090815285822088518155818901516001808301919091559551600282015593516003850155608088015160048501559151600584015560c0870151600684015560e087015160078401556101008701516008909301805460ff1916931515939093179092558b8252600b81529281208054928301815581529190912001839055600980548291908a908110613414576134146147d2565b9060005260206000209060180201600e01600201600082825461343791906147bf565b909155505060098054613470918a9182908110613456576134566147d2565b9060005260206000209060180201600e0160020154613fc4565b5091979650505050505050565b6000818152600a6020908152604080832081516101208101835281548082526001830154828601526002830154828501526003830154606083015260048301546080830152600583015460a0830152600683015460c0830152600783015460e083015260089092015460ff161515610100820152818552600b845282852080548451818702810187019095528085529195929492939290919083018282801561354557602002820191906000526020600020905b815481526020019060010190808311613531575b5050835193945060009250829150505b828110156135955786848281518110613570576135706147d2565b60200260200101510361358557809150613595565b61358e8161483b565b9050613555565b508181106135e55760405162461bcd60e51b815260206004820152601860248201527f546f6b656e206e6f7420666f756e6420696e20617272617900000000000000006044820152606401610425565b805b6135f2600184614854565b81101561364a57836136058260016147bf565b81518110613615576136156147d2565b602002602001015184828151811061362f5761362f6147d2565b60209081029190910101526136438161483b565b90506135e7565b506000848152600b60209081526040909120845161366a9286019061446b565b506000848152600b602052604090208054806136885761368861499c565b60019003818190600052602060002001600090559055505050505050565b600080516020614a2683398151915260006136c083613910565b90506136ce81600085613ffa565b6136d783613910565b6000848152600284016020908152604080832080546001600160a01b03199081169091556001600160a01b038516808552600188018452828520805460001901905588855292879052818420805490911690555192935085927fddf252ad1be2c89b69c2b068fc378daa952ba7f163c4a11628f55a4df523b3ef908390a45b505050565b60008060006009018381548110613774576137746147d2565b60009182526020808320868452601290915260408320805490849055601890920201925080156138b85760008581526011602090815260408083208484528252808320548151637f1f087360e01b815291516001600160a01b0390911693928492637f1f08739260048083019392829003018187875af11580156137fc573d6000803e3d6000fd5b505050506040513d601f19601f820116820180604052508101906138209190614822565b6040516348b1933560e01b8152600481018290529091506001600160a01b038316906348b19335906024016020604051808303816000875af115801561386a573d6000803e3d6000fd5b505050506040513d601f19601f8201168201806040525081019061388e9190614822565b60006007870181905560068701805492965086929091906138b09084906147bf565b909155505050505b509392505050565b6001600160a01b03831615613756576001600160a01b038084166000908152600f60209081526040808320938616835292905290812080548392906139069084906147bf565b9091555050505050565b60008061391c836140af565b90506001600160a01b0381166103755760405162461bcd60e51b8152602060048201526018602482015277115490cdcc8c4e881a5b9d985b1a59081d1bdad95b88125160421b6044820152606401610425565b600061397a826140d7565b5060009081527f07cfe06905cfedb580eece28a10ae6a81afa7f795e57d58eb5cecaff527e70c360205260409020546001600160a01b031690565b6040805160c081018252600080516020614a668339815191525481527fb3489dd2b6aceffcd73eb3bc338c0fb7cf41e877855ec204580612eca103a15e5460208201527fb3489dd2b6aceffcd73eb3bc338c0fb7cf41e877855ec204580612eca103a15f54918101919091527fb3489dd2b6aceffcd73eb3bc338c0fb7cf41e877855ec204580612eca103a1605460608201527fb3489dd2b6aceffcd73eb3bc338c0fb7cf41e877855ec204580612eca103a1615460808201527fb3489dd2b6aceffcd73eb3bc338c0fb7cf41e877855ec204580612eca103a1625460a0820152600980546000919085908110613aae57613aae6147d2565b600091825260208220601891909102016008810154600382015482546040516341b778fd60e11b81526004810192909252600160a81b900461ffff166024820152919350859173__$295e309c8a6ffd54f96e1a7c7b04118a38$__9063836ef1fa90604401602060405180830381865af4158015613b30573d6000803e3d6000fd5b505050506040513d601f19601f82011682018060405250810190613b549190614822565b613b5e9190614854565b613b6891906147bf565b60018301548354919250613b8a916001600160a01b03908116911630846130e8565b5080826008016000016000828254613ba291906147bf565b9091555050602083015160a084015160009190613bbf90846148bb565b613bc991906148d2565b60148401546013850154601286015460405163fc76fff360e01b815260048101859052602481019390935260448301919091526001600160a01b031660648201529091506000908190819073__$295e309c8a6ffd54f96e1a7c7b04118a38$__9063fc76fff390608401606060405180830381865af4158015613c50573d6000803e3d6000fd5b505050506040513d601f19601f82011682018060405250810190613c7491906148f4565b885492955090935091506001600160a01b0316613c928282856138c0565b6001600160a01b0381166000908152600d602052604081208054869290613cba9084906147bf565b9091555060009050613ccc8688614854565b905080886008016001016000828254613ce591906147bf565b90915550506040518781528b907fadb049ad2d09be3db90459a16aef1ad0a4d89e8fdcc1ade9429d6cc55abbcd2b9060200160405180910390a25050505050505050505050565b6000613d81826040518060400160405280602081526020017f5361666545524332303a206c6f772d6c6576656c2063616c6c206661696c6564815250856001600160a01b031661412a9092919063ffffffff16565b8051909150156137565780806020019051810190613d9f919061492d565b6137565760405162461bcd60e51b815260206004820152602a60248201527f5361666545524332303a204552433230206f7065726174696f6e20646964206e6044820152691bdd081cdd58d8d9595960b21b6064820152608401610425565b7f07cfe06905cfedb580eece28a10ae6a81afa7f795e57d58eb5cecaff527e70c58054600091600080516020614a2683398151915291839182613e408361483b565b9091555090506001600160a01b038416613e9c5760405162461bcd60e51b815260206004820181905260248201527f4552433732313a206d696e7420746f20746865207a65726f20616464726573736044820152606401610425565b613ea581614139565b15613ef25760405162461bcd60e51b815260206004820152601c60248201527f4552433732313a20746f6b656e20616c7265616479206d696e746564000000006044820152606401610425565b613efe60008583613ffa565b613f0781614139565b15613f545760405162461bcd60e51b815260206004820152601c60248201527f4552433732313a20746f6b656e20616c7265616479206d696e746564000000006044820152606401610425565b6001600160a01b0384166000818152600184810160209081526040808420805490930190925584835285905280822080546001600160a01b0319168417905551839291907fddf252ad1be2c89b69c2b068fc378daa952ba7f163c4a11628f55a4df523b3ef908290a49392505050565b60008160006009018481548110613fdd57613fdd6147d2565b60009182526020909120600e601890920201015550600192915050565b816001600160a01b0316836001600160a01b03161415801561402457506001600160a01b03831615155b15614033576140338382614156565b826001600160a01b0316826001600160a01b03161415801561405d57506001600160a01b03821615155b15613756576001600160a01b039190911660009081527f07cfe06905cfedb580eece28a10ae6a81afa7f795e57d58eb5cecaff527e70c660209081526040822080546001810182559083529120015550565b6000908152600080516020614a2683398151915260205260409020546001600160a01b031690565b6140e081614139565b6141275760405162461bcd60e51b8152602060048201526018602482015277115490cdcc8c4e881a5b9d985b1a59081d1bdad95b88125160421b6044820152606401610425565b50565b6060612e2684846000856142d4565b600080614145836140af565b6001600160a01b0316141592915050565b6001600160a01b03821660009081527f07cfe06905cfedb580eece28a10ae6a81afa7f795e57d58eb5cecaff527e70c6602090815260408083208054825181850281018501909352808352600080516020614a2683398151915294938301828280156141e157602002820191906000526020600020905b8154815260200190600101908083116141cd575b505083519394506000925050505b818110156103ea578483828151811061420a5761420a6147d2565b6020026020010151036142c45782614223600184614854565b81518110614233576142336147d2565b602002602001015183828151811061424d5761424d6147d2565b6020908102919091018101919091526001600160a01b03871660009081526005860182526040902084516142839286019061446b565b506001600160a01b038616600090815260058501602052604090208054806142ad576142ad61499c565b600190038181906000526020600020016000905590555b6142cd8161483b565b90506141ef565b6060824710156143355760405162461bcd60e51b815260206004820152602660248201527f416464726573733a20696e73756666696369656e742062616c616e636520666f6044820152651c8818d85b1b60d21b6064820152608401610425565b600080866001600160a01b0316858760405161435191906149d6565b60006040518083038185875af1925050503d806000811461438e576040519150601f19603f3d011682016040523d82523d6000602084013e614393565b606091505b50915091506143a4878383876143af565b979650505050505050565b6060831561441e578251600003614417576001600160a01b0385163b6144175760405162461bcd60e51b815260206004820152601d60248201527f416464726573733a2063616c6c20746f206e6f6e2d636f6e74726163740000006044820152606401610425565b5081612e26565b612e2683838151156144335781518083602001fd5b8060405162461bcd60e51b815260040161042591906149f2565b508054600082559060005260206000209081019061412791906144b6565b8280548282559060005260206000209081019282156144a6579160200282015b828111156144a657825182559160200191906001019061448b565b506144b29291506144b6565b5090565b5b808211156144b257600081556001016144b7565b6000602082840312156144dd57600080fd5b5035919050565b6001600160a01b038116811461412757600080fd5b6000806040838503121561450c57600080fd5b8235614517816144e4565b946020939093013593505050565b60008060006060848603121561453a57600080fd5b8335614545816144e4565b92506020840135614555816144e4565b929592945050506040919091013590565b60006020828403121561457857600080fd5b8135610f85816144e4565b6000806040838503121561459657600080fd5b50508035926020909101359150565b6000806000606084860312156145ba57600080fd5b505081359360208301359350604090920135919050565b801515811461412757600080fd5b600080604083850312156145f257600080fd5b823591506020830135614604816145d1565b809150509250929050565b6000806040838503121561462257600080fd5b823561462d816144e4565b91506020830135614604816145d1565b60008060008060006080868803121561465557600080fd5b8535614660816144e4565b94506020860135614670816144e4565b935060408601359250606086013567ffffffffffffffff8082111561469457600080fd5b818801915088601f8301126146a857600080fd5b8135818111156146b757600080fd5b8960208285010111156146c957600080fd5b9699959850939650602001949392505050565b803561ffff811681146146ee57600080fd5b919050565b6000806000806080858703121561470957600080fd5b84359350602085013561471b816144e4565b9250614729604086016146dc565b9150614737606086016146dc565b905092959194509250565b6000806040838503121561475557600080fd5b8235614760816144e4565b91506020830135614604816144e4565b60006020828403121561478257600080fd5b8151610f85816144e4565b602080825260029082015261723160f01b604082015260600190565b634e487b7160e01b600052601160045260246000fd5b80820180821115610375576103756147a9565b634e487b7160e01b600052603260045260246000fd5b600181811c908216806147fc57607f821691505b60208210810361481c57634e487b7160e01b600052602260045260246000fd5b50919050565b60006020828403121561483457600080fd5b5051919050565b60006001820161484d5761484d6147a9565b5060010190565b81810381811115610375576103756147a9565b6001600160a01b038681168252851660208201526040810184905260806060820181905281018290526000828460a0840137600060a0848401015260a0601f19601f85011683010190509695505050505050565b8082028115828204841417610375576103756147a9565b6000826148ef57634e487b7160e01b600052601260045260246000fd5b500490565b60008060006060848603121561490957600080fd5b83519250602084015191506040840151614922816144e4565b809150509250925092565b60006020828403121561493f57600080fd5b8151610f85816145d1565b60008060006060848603121561495f57600080fd5b8351925060208401519150604084015190509250925092565b6000806040838503121561498b57600080fd5b505080516020909101519092909150565b634e487b7160e01b600052603160045260246000fd5b60005b838110156149cd5781810151838201526020016149b5565b50506000910152565b600082516149e88184602087016149b2565b9190910192915050565b6020815260008251806020840152614a118160408501602087016149b2565b601f01601f1916919091016040019291505056fe07cfe06905cfedb580eece28a10ae6a81afa7f795e57d58eb5cecaff527e70c18e94fed44239eb2314ab7a406345e6c5a8f0ccedf3b600de3d004e672c33abf4b3489dd2b6aceffcd73eb3bc338c0fb7cf41e877855ec204580612eca103a15da26469706673582212201ac49e75c1dde53a0eb2a935fa7f8cf1eea3d1d4f1e3719582e943fa772daab364736f6c63430008130033",
    "linkReferences": {
      "src/lib/LibERC721.sol": {
        "LibERC721": [
          {
            "start": 822,
            "length": 20
          },
          {
            "start": 960,
            "length": 20
          },
          {
            "start": 1436,
            "length": 20
          },
          {
            "start": 1564,
            "length": 20
          },
          {
            "start": 3279,
            "length": 20
          },
          {
            "start": 4045,
            "length": 20
          },
          {
            "start": 8261,
            "length": 20
          },
          {
            "start": 8847,
            "length": 20
          },
          {
            "start": 8896,
            "length": 20
          },
          {
            "start": 11362,
            "length": 20
          },
          {
            "start": 12318,
            "length": 20
          }
        ]
      },
      "src/lib/LibSaloon.sol": {
        "LibSaloon": [
          {
            "start": 6113,
            "length": 20
          },
          {
            "start": 6924,
            "length": 20
          },
          {
            "start": 9570,
            "length": 20
          },
          {
            "start": 10958,
            "length": 20
          },
          {
            "start": 11917,
            "length": 20
          },
          {
            "start": 12880,
            "length": 20
          },
          {
            "start": 15126,
            "length": 20
          },
          {
            "start": 15414,
            "length": 20
          }
        ]
      }
    }
  },
  "methodIdentifiers": {
    "approve(address,uint256)": "095ea7b3",
    "balanceOf(address)": "70a08231",
    "calculateEffectiveAPY(uint256,uint256,uint256)": "81c6f1a7",
    "claimPremium(uint256)": "f47ec3be",
    "consolidate(uint256)": "949a4a4a",
    "consolidateAll()": "75bfd63d",
    "getApproved(uint256)": "081812fc",
    "getCurrentAPY(uint256)": "7fbf3853",
    "isApprovedForAll(address,address)": "e985e9c5",
    "ownerOf(uint256)": "6352211e",
    "payBounty(uint256,address,uint16,uint16)": "d075afac",
    "payBountyDuringAssessment(uint256,address,uint16,uint16)": "cfd54bfa",
    "safeTransferFrom(address,address,uint256)": "42842e0e",
    "safeTransferFrom(address,address,uint256,bytes)": "b88d4fde",
    "scheduleUnstake(uint256)": "106d08df",
    "setApprovalForAll(address,bool)": "a22cb465",
    "stake(uint256,uint256)": "7b0472f0",
    "transferFrom(address,address,uint256)": "23b872dd",
    "unstake(uint256,bool)": "9ebea88c",
    "viewBountyBalance(uint256)": "6ac6d812",
    "withdrawRemainingAPY(uint256)": "4ef19f63"
  },
  "id": 45
}