{
  "abi": [
    {
      "anonymous": false,
      "inputs": [
        {
          "indexed": true,
          "internalType": "uint256",
          "name": "pid",
          "type": "uint256"
        },
        {
          "indexed": false,
          "internalType": "uint256",
          "name": "oldAmount",
          "type": "uint256"
        },
        {
          "indexed": false,
          "internalType": "uint256",
          "name": "newAmount",
          "type": "uint256"
        }
      ],
      "name": "BountyBalanceChanged",
      "type": "event"
    },
    {
      "anonymous": false,
      "inputs": [
        {
          "indexed": true,
          "internalType": "address",
          "name": "hunter",
          "type": "address"
        },
        {
          "indexed": true,
          "internalType": "address",
          "name": "token",
          "type": "address"
        },
        {
          "indexed": false,
          "internalType": "uint256",
          "name": "amount",
          "type": "uint256"
        }
      ],
      "name": "BountyPaid",
      "type": "event"
    },
    {
      "anonymous": false,
      "inputs": [
        {
          "indexed": true,
          "internalType": "uint256",
          "name": "pid",
          "type": "uint256"
        },
        {
          "indexed": false,
          "internalType": "uint256",
          "name": "amount",
          "type": "uint256"
        }
      ],
      "name": "PremiumBilled",
      "type": "event"
    },
    {
      "anonymous": false,
      "inputs": [
        {
          "indexed": true,
          "internalType": "address",
          "name": "user",
          "type": "address"
        },
        {
          "indexed": true,
          "internalType": "uint256",
          "name": "pid",
          "type": "uint256"
        },
        {
          "indexed": false,
          "internalType": "uint256",
          "name": "amount",
          "type": "uint256"
        }
      ],
      "name": "Staked",
      "type": "event"
    },
    {
      "anonymous": false,
      "inputs": [
        {
          "indexed": true,
          "internalType": "address",
          "name": "user",
          "type": "address"
        },
        {
          "indexed": true,
          "internalType": "uint256",
          "name": "pid",
          "type": "uint256"
        },
        {
          "indexed": false,
          "internalType": "uint256",
          "name": "amount",
          "type": "uint256"
        }
      ],
      "name": "Unstaked",
      "type": "event"
    },
    {
      "anonymous": false,
      "inputs": [
        {
          "indexed": true,
          "internalType": "uint256",
          "name": "pid",
          "type": "uint256"
        },
        {
          "indexed": false,
          "internalType": "uint256",
          "name": "amount",
          "type": "uint256"
        }
      ],
      "name": "WithdrawalOrUnstakeScheduled",
      "type": "event"
    },
    {
      "inputs": [
        {
          "internalType": "uint256",
          "name": "_pid",
          "type": "uint256"
        },
        {
          "internalType": "uint256",
          "name": "_stake",
          "type": "uint256"
        },
        {
          "internalType": "uint256",
          "name": "_x",
          "type": "uint256"
        }
      ],
      "name": "calculateEffectiveAPY",
      "outputs": [
        {
          "internalType": "uint256",
          "name": "scaledAPY",
          "type": "uint256"
        }
      ],
      "stateMutability": "view",
      "type": "function"
    },
    {
      "inputs": [
        {
          "internalType": "uint256",
          "name": "_tokenId",
          "type": "uint256"
        }
      ],
      "name": "claimPremium",
      "outputs": [],
      "stateMutability": "nonpayable",
      "type": "function"
    },
    {
      "inputs": [
        {
          "internalType": "uint256",
          "name": "_pid",
          "type": "uint256"
        }
      ],
      "name": "consolidate",
      "outputs": [],
      "stateMutability": "nonpayable",
      "type": "function"
    },
    {
      "inputs": [],
      "name": "consolidateAll",
      "outputs": [],
      "stateMutability": "nonpayable",
      "type": "function"
    },
    {
      "inputs": [
        {
          "internalType": "uint256",
          "name": "_pid",
          "type": "uint256"
        }
      ],
      "name": "getCurrentAPY",
      "outputs": [
        {
          "internalType": "uint256",
          "name": "currentAPY",
          "type": "uint256"
        }
      ],
      "stateMutability": "view",
      "type": "function"
    },
    {
      "inputs": [
        {
          "internalType": "uint256",
          "name": "__pid",
          "type": "uint256"
        },
        {
          "internalType": "address",
          "name": "__hunter",
          "type": "address"
        },
        {
          "internalType": "uint16",
          "name": "_payoutBPS",
          "type": "uint16"
        },
        {
          "internalType": "uint16",
          "name": "_hunterBonusBPS",
          "type": "uint16"
        }
      ],
      "name": "payBounty",
      "outputs": [],
      "stateMutability": "nonpayable",
      "type": "function"
    },
    {
      "inputs": [
        {
          "internalType": "uint256",
          "name": "_pid",
          "type": "uint256"
        },
        {
          "internalType": "address",
          "name": "_hunter",
          "type": "address"
        },
        {
          "internalType": "uint16",
          "name": "_payoutBPS",
          "type": "uint16"
        },
        {
          "internalType": "uint16",
          "name": "_hunterBonusBPS",
          "type": "uint16"
        }
      ],
      "name": "payBountyDuringAssessment",
      "outputs": [],
      "stateMutability": "nonpayable",
      "type": "function"
    },
    {
      "inputs": [
        {
          "internalType": "uint256",
          "name": "_tokenId",
          "type": "uint256"
        }
      ],
      "name": "scheduleUnstake",
      "outputs": [
        {
          "internalType": "bool",
          "name": "",
          "type": "bool"
        }
      ],
      "stateMutability": "nonpayable",
      "type": "function"
    },
    {
      "inputs": [
        {
          "internalType": "uint256",
          "name": "_pid",
          "type": "uint256"
        },
        {
          "internalType": "uint256",
          "name": "_amount",
          "type": "uint256"
        }
      ],
      "name": "stake",
      "outputs": [
        {
          "internalType": "uint256",
          "name": "",
          "type": "uint256"
        }
      ],
      "stateMutability": "nonpayable",
      "type": "function"
    },
    {
      "inputs": [
        {
          "internalType": "uint256",
          "name": "_tokenId",
          "type": "uint256"
        },
        {
          "internalType": "bool",
          "name": "_shouldHarvest",
          "type": "bool"
        }
      ],
      "name": "unstake",
      "outputs": [
        {
          "internalType": "bool",
          "name": "",
          "type": "bool"
        }
      ],
      "stateMutability": "nonpayable",
      "type": "function"
    },
    {
      "inputs": [
        {
          "internalType": "uint256",
          "name": "_pid",
          "type": "uint256"
        }
      ],
      "name": "viewBountyBalance",
      "outputs": [
        {
          "internalType": "uint256",
          "name": "",
          "type": "uint256"
        }
      ],
      "stateMutability": "view",
      "type": "function"
    },
    {
      "inputs": [
        {
          "internalType": "uint256",
          "name": "_pid",
          "type": "uint256"
        }
      ],
      "name": "withdrawRemainingAPY",
      "outputs": [],
      "stateMutability": "nonpayable",
      "type": "function"
    }
  ],
  "bytecode": {
    "object": "0x608060405234801561001057600080fd5b506143fb806100206000396000f3fe608060405234801561001057600080fd5b50600436106100b45760003560e01c806381c6f1a71161007157806381c6f1a714610145578063949a4a4a146101585780639ebea88c1461016b578063cfd54bfa1461017e578063d075afac14610191578063f47ec3be146101a457600080fd5b8063106d08df146100b95780634ef19f63146100e15780636ac6d812146100f657806375bfd63d146101175780637b0472f01461011f5780637fbf385314610132575b600080fd5b6100cc6100c7366004613fe4565b6101b7565b60405190151581526020015b60405180910390f35b6100f46100ef366004613fe4565b610325565b005b610109610104366004613fe4565b61099d565b6040519081526020016100d8565b6100f4610c58565b61010961012d366004613ffd565b610c83565b610109610140366004613fe4565b61115d565b61010961015336600461401f565b611476565b6100f4610166366004613fe4565b61175b565b6100cc610179366004614059565b611b9a565b6100f461018c3660046140b5565b611e9a565b6100f461019f3660046140b5565b6121fb565b6100f46101b2366004613fe4565b6127ac565b60008051602061438683398151915254600090600181146101f35760405162461bcd60e51b81526004016101ea90614104565b60405180910390fd5b60026000805160206143868339815191525561020f338461289c565b6102515760405162461bcd60e51b815260206004820152601360248201527239b2b73232b91034b9903737ba1037bbb732b960691b60448201526064016101ea565b6000838152600e60205260408120805460038201929092557fb3489dd2b6aceffcd73eb3bc338c0fb7cf41e877855ec204580612eca103a161546000805160206143a683398151915292906102a69042614136565b600683015560048301546102ba9042614136565b6102c7906203f480614136565b6007830155600182015460405190815281907fb3b9c925de3673837b40c6b4d4463a8f88dc821cd27e07f1ff6bf6abf96413a59060200160405180910390a26001945050505060016000805160206143868339815191525550919050565b80600080600d01828154811061033d5761033d614149565b6000918252602090912060408051610220810190915260189092020180546001600160a01b038082166101208501908152600160a01b830460ff16610140860152600160a81b90920461ffff1661016085015260018301541661018084015260028201805484929184916101a0850191906103b79061415f565b80601f01602080910402602001604051908101604052809291908181526020018280546103e39061415f565b80156104305780601f1061040557610100808354040283529160200191610430565b820191906000526020600020905b81548152906001019060200180831161041357829003601f168201915b505050918352505060038201546020808301919091526004830154604080840191909152600590930154606092830152928452815180830183526006860154815260078601548185015284840152815180830183526008860154815260098601548185015284830152815160808082018452600a8701548252600b87015482860152600c87015482850152600d87015460ff161515828401528583019190915282518082018452600e870180548252600f8801548287015260108801548286015260118801805486518189028101890190975280875293909701969195909493860193929083018282801561054457602002820191906000526020600020905b815481526020019060010190808311610530575b505050919092525050508152604080516060808201835260128501546001600160a01b039081168352601386015460208085019190915260148701548486015285019290925260158501549284019290925260168401548284015260179093015460ff16151560809092019190915282510151919250163314806105d257506007546001600160a01b031633145b61060f5760405162461bcd60e51b815260206004820152600e60248201526d139bdd08185d5d1a1bdc9a5e995960921b60448201526064016101ea565b600080600d01848154811061062657610626614149565b6000918252602090912060408051610220810190915260189092020180546001600160a01b038082166101208501908152600160a01b830460ff16610140860152600160a81b90920461ffff1661016085015260018301541661018084015260028201805484929184916101a0850191906106a09061415f565b80601f01602080910402602001604051908101604052809291908181526020018280546106cc9061415f565b80156107195780601f106106ee57610100808354040283529160200191610719565b820191906000526020600020905b8154815290600101906020018083116106fc57829003601f168201915b505050918352505060038201546020808301919091526004830154604080840191909152600590930154606092830152928452815180830183526006860154815260078601548185015284840152815180830183526008860154815260098601548185015284830152815160808082018452600a8701548252600b87015482860152600c87015482850152600d87015460ff161515828401528583019190915282518082018452600e870180548252600f8801548287015260108801548286015260118801805486518189028101890190975280875293909701969195909493860193929083018282801561082d57602002820191906000526020600020905b815481526020019060010190808311610819575b505050919092525050508152604080516060808201835260128501546001600160a01b03168252601385015460208381019190915260148601548385015284019190915260158401549183019190915260168301549082015260179091015460ff161515608090910152610100810151909150156108ed5760405162461bcd60e51b815260206004820152601860248201527f506f6f6c206d757374206265206465616374697661746564000000000000000060448201526064016101ea565b6000848152600f6020526040812054905b81811015610944576000868152600f6020526040812080548390811061092657610926614149565b9060005260206000200154905061093e81600161293c565b506108fe565b5081516060810151604084015151915161096a926001600160a01b039091169190612b88565b50600080600d01868154811061098257610982614149565b60009182526020909120600860189092020101555050505050565b6000806000600d0183815481106109b6576109b6614149565b6000918252602090912060408051610220810190915260189092020180546001600160a01b038082166101208501908152600160a01b830460ff16610140860152600160a81b90920461ffff1661016085015260018301541661018084015260028201805484929184916101a085019190610a309061415f565b80601f0160208091040260200160405190810160405280929190818152602001828054610a5c9061415f565b8015610aa95780601f10610a7e57610100808354040283529160200191610aa9565b820191906000526020600020905b815481529060010190602001808311610a8c57829003601f168201915b505050918352505060038201546020808301919091526004830154604080840191909152600590930154606092830152928452815180830183526006860154815260078601548185015284840152815180830183526008860154815260098601548185015284830152815160808082018452600a8701548252600b87015482860152600c87015482850152600d87015460ff161515828401528583019190915282518082018452600e870180548252600f88015482870152601088015482860152601188018054865181890281018901909752808752939097019691959094938601939290830182828015610bbd57602002820191906000526020600020905b815481526020019060010190808311610ba9575b505050919092525050508152604080516060808201835260128501546001600160a01b0316825260138501546020838101919091526014860154838501528085019290925260158501549284019290925260168401549183019190915260179092015460ff16151560809091015281810151908101519051919250610c4191614136565b815160c00151610c519190614136565b9392505050565b600d5460005b81811015610c7f57610c6f8161175b565b610c7881614199565b9050610c5e565b5050565b6000805160206143868339815191525460009060018114610cb65760405162461bcd60e51b81526004016101ea90614104565b60026000805160206143868339815191525583600080600d018281548110610ce057610ce0614149565b6000918252602090912060408051610220810190915260189092020180546001600160a01b038082166101208501908152600160a01b830460ff16610140860152600160a81b90920461ffff1661016085015260018301541661018084015260028201805484929184916101a085019190610d5a9061415f565b80601f0160208091040260200160405190810160405280929190818152602001828054610d869061415f565b8015610dd35780601f10610da857610100808354040283529160200191610dd3565b820191906000526020600020905b815481529060010190602001808311610db657829003601f168201915b505050918352505060038201546020808301919091526004830154604080840191909152600590930154606092830152928452815180830183526006860154815260078601548185015284840152815180830183526008860154815260098601548185015284830152815160808082018452600a8701548252600b87015482860152600c87015482850152600d87015460ff161515828401528583019190915282518082018452600e870180548252600f88015482870152601088015482860152601188018054865181890281018901909752808752939097019691959094938601939290830182828015610ee757602002820191906000526020600020905b815481526020019060010190808311610ed3575b505050919092525050508152604080516060808201835260128501546001600160a01b03168252601385015460208381019190915260148601548385015284019190915260158401549183019190915260168301549082015260179091015460ff161515608090910152610100810151909150610f985760405162461bcd60e51b815260206004820152600f60248201526e706f6f6c206e6f742061637469766560881b60448201526064016101ea565b600080600d018781548110610faf57610faf614149565b60009182526020808320601890920290910180546001600160a01b03168352601a90915260409091205490915086101561101f5760405162461bcd60e51b8152602060048201526011602482015270135a5b881cdd185ad9481b9bdd081b595d607a1b60448201526064016101ea565b600061102a8861099d565b8254909150611044906001600160a01b031633308a612bf8565b50600061105289338a612c3f565b90508783600001600401600082825461106b9190614136565b90915550506003830154600484015411156110be5760405162461bcd60e51b8152602060048201526013602482015272115e18d959591959081c1bdbdb081b1a5b5a5d606a1b60448201526064016101ea565b604051888152899033907f1449c6dd7851abc30abf37f57715f492010519147cc2652fbc38202c18a6ee909060200160405180910390a360006111008a61099d565b60408051858152602081018390529192508b917fa3ea4fb8dee4d414198cb197af6eae4fe483c1a0b849dc50e53b9bf1a60e2166910160405180910390a25060016000805160206143868339815191525598975050505050505050565b6000806000600d01838154811061117657611176614149565b6000918252602090912060408051610220810190915260189092020180546001600160a01b038082166101208501908152600160a01b830460ff16610140860152600160a81b90920461ffff1661016085015260018301541661018084015260028201805484929184916101a0850191906111f09061415f565b80601f016020809104026020016040519081016040528092919081815260200182805461121c9061415f565b80156112695780601f1061123e57610100808354040283529160200191611269565b820191906000526020600020905b81548152906001019060200180831161124c57829003601f168201915b505050918352505060038201546020808301919091526004830154604080840191909152600590930154606092830152928452815180830183526006860154815260078601548185015284840152815180830183526008860154815260098601548185015284830152815160808082018452600a8701548252600b87015482860152600c87015482850152600d87015460ff161515828401528583019190915282518082018452600e870180548252600f8801548287015260108801548286015260118801805486518189028101890190975280875293909701969195909493860193929083018282801561137d57602002820191906000526020600020905b815481526020019060010190808311611369575b505050919092525050508152604080516060808201835260128501546001600160a01b03168252601385015460208084019190915260148601548385015284019190915260158401548284015260168401549083015260179092015460ff16151560809182015282015151825160e001519151632500225b60e11b815260048101829052602481018390529293509173__$295e309c8a6ffd54f96e1a7c7b04118a38$__90634a0044b6906044015b602060405180830381865af4158015611449573d6000803e3d6000fd5b505050506040513d601f19601f8201168201806040525081019061146d91906141b2565b95945050505050565b6000806000600d01858154811061148f5761148f614149565b6000918252602090912060408051610220810190915260189092020180546001600160a01b038082166101208501908152600160a01b830460ff16610140860152600160a81b90920461ffff1661016085015260018301541661018084015260028201805484929184916101a0850191906115099061415f565b80601f01602080910402602001604051908101604052809291908181526020018280546115359061415f565b80156115825780601f1061155757610100808354040283529160200191611582565b820191906000526020600020905b81548152906001019060200180831161156557829003601f168201915b505050918352505060038201546020808301919091526004830154604080840191909152600590930154606092830152928452815180830183526006860154815260078601548185015284840152815180830183526008860154815260098601548185015284830152815160808082018452600a8701548252600b87015482860152600c87015482850152600d87015460ff161515828401528583019190915282518082018452600e870180548252600f8801548287015260108801548286015260118801805486518189028101890190975280875293909701969195909493860193929083018282801561169657602002820191906000526020600020905b815481526020019060010190808311611682575b505050919092525050508152604080516060808201835260128501546001600160a01b03168252601385015460208084019190915260148601548385015284019190915260158401548284015260168401549083015260179092015460ff161515608090910152815160a081015160e0909101519151630d17449160e21b815260048101889052602481018790526044810191909152606481019190915290915073__$295e309c8a6ffd54f96e1a7c7b04118a38$__9063345d12449060840161142c565b600080600d01828154811061177257611772614149565b6000918252602090912060408051610220810190915260189092020180546001600160a01b038082166101208501908152600160a01b830460ff16610140860152600160a81b90920461ffff1661016085015260018301541661018084015260028201805484929184916101a0850191906117ec9061415f565b80601f01602080910402602001604051908101604052809291908181526020018280546118189061415f565b80156118655780601f1061183a57610100808354040283529160200191611865565b820191906000526020600020905b81548152906001019060200180831161184857829003601f168201915b505050918352505060038201546020808301919091526004830154604080840191909152600590930154606092830152928452815180830183526006860154815260078601548185015284840152815180830183526008860154815260098601548185015284830152815160808082018452600a8701548252600b87015482860152600c87015482850152600d87015460ff161515828401528583019190915282518082018452600e870180548252600f8801548287015260108801548286015260118801805486518189028101890190975280875293909701969195909493860193929083018282801561197957602002820191906000526020600020905b815481526020019060010190808311611965575b505050919092525050508152604080516060808201835260128501546001600160a01b03168252601385015460208381019190915260148601548385015284019190915260158401549183019190915260168301548183015260179092015460ff16151560809182015282015101518051919250908015806119fe5750826101000151155b15611a095750505050565b60005b81811015611a4657611a36838281518110611a2957611a29614149565b6020026020010151612f8e565b611a3f81614199565b9050611a0c565b506000848152600f6020908152604080832080548251818502810185019093528083529192909190830182828015611a9d57602002820191906000526020600020905b815481526020019060010190808311611a89575b5050835193945060009250829150505b82811015611b31576000848281518110611ac957611ac9614149565b60200260200101519050600080600e0160008381526020019081526020016000209050611af782600061293c565b6001810154611b078b8287611476565b60038301556002820154611b1b9086614136565b945050505080611b2a90614199565b9050611aad565b50806000600d018881548110611b4957611b49614149565b6000918252602090912060106018909202010155600d805488908110611b7157611b71614149565b9060005260206000209060180201600e016003016000611b919190613f66565b50505050505050565b6000805160206143868339815191525460009060018114611bcd5760405162461bcd60e51b81526004016101ea90614104565b600260008051602061438683398151915255611be9338561289c565b611c2b5760405162461bcd60e51b815260206004820152601360248201527239b2b73232b91034b9903737ba1037bbb732b960691b60448201526064016101ea565b6000848152600e602052604081208054600d80549293919283908110611c5357611c53614149565b906000526020600020906018020190504281601501541115611ce357428360060154108015611c855750428360070154115b611ce35760405162461bcd60e51b815260206004820152602960248201527f54696d656c6f636b206e6f7420736574206f72206e6f7420636f6d706c6574656044820152686420696e2074696d6560b81b60648201526084016101ea565b611ced878761293c565b600183018054600091829055600685018290556007850182905590611d118461099d565b90508715611d2257611d22896131b7565b8115611dd05781836000016004016000828254611d3f91906141cb565b90915550506040516331a9108f60e11b8152600481018a9052611dce9073__$0a47a65a6432b6520c78f3e5508d96088b$__90636352211e90602401602060405180830381865af4158015611d98573d6000803e3d6000fd5b505050506040513d601f19601f82011682018060405250810190611dbc91906141de565b84546001600160a01b03169084612b88565b505b604051828152849033907f7fc4727e062e336010f2c282598ef5f14facb3de68cf8195c2f23e1454b2b74e9060200160405180910390a36000611e128561099d565b604080518481526020810183905291925086917fa3ea4fb8dee4d414198cb197af6eae4fe483c1a0b849dc50e53b9bf1a60e2166910160405180910390a2600886015460ff16611e775760118401805460018101825560009182526020909120018a90555b600197505050505050506001600080516020614386833981519152555092915050565b6007546001600160a01b03163314611ee05760405162461bcd60e51b81526020600482015260096024820152683737ba1037bbb732b960b91b60448201526064016101ea565b600d80546000805160206143a68339815191529160009187908110611f0757611f07614149565b9060005260206000209060180201905042816015015411611f645760405162461bcd60e51b815260206004820152601760248201527641737365736d656e7420706572696f6420626f756e747960481b60448201526064016101ea565b6127108461ffff161115611fac5760405162461bcd60e51b815260206004820152600f60248201526e0a0c2f2deeae840e8dede40d0d2ced608b1b60448201526064016101ea565b6127108361ffff161115611ff35760405162461bcd60e51b815260206004820152600e60248201526d084dedceae640e8dede40d0d2ced60931b60448201526064016101ea565b611ffc8661326c565b506006810154600183015460009061201861ffff8816846141fb565b6120229190614212565b90508083600601600001600082825461203b91906141cb565b9091555050600184015460009061205661ffff8816826141cb565b6001870154600588015461206a90866141fb565b6120749190614212565b61207e91906141fb565b6120889190614212565b60148501546013860154601287015460405163fc76fff360e01b815260048101859052602481019390935260448301919091526001600160a01b031660648201529091506000908190819073__$295e309c8a6ffd54f96e1a7c7b04118a38$__9063fc76fff390608401606060405180830381865af415801561210f573d6000803e3d6000fd5b505050506040513d601f19601f820116820180604052508101906121339190614234565b895492955090935091506001600160a01b03166121518282856133d1565b6001600160a01b03811660009081526010602052604081208054869290612179908490614136565b9091555061219e90508c61218d87896141cb565b6001600160a01b0384169190612b88565b50806001600160a01b03168c6001600160a01b03167fbcbf239e05ac65bcc1a5612cd36d392b0a0aa8c93e027bc86e72768748342488886040516121e491815260200190565b60405180910390a350505050505050505050505050565b6007546001600160a01b031633146122415760405162461bcd60e51b81526020600482015260096024820152683737ba1037bbb732b960b91b60448201526064016101ea565b838360006000805160206143a68339815191529050600080600d01848154811061226d5761226d614149565b90600052602060002090601802019050428160150154106122ca5760405162461bcd60e51b815260206004820152601760248201527641737365736d656e7420706572696f6420626f756e747960481b60448201526064016101ea565b6127108661ffff1611156123125760405162461bcd60e51b815260206004820152600f60248201526e0a0c2f2deeae840e8dede40d0d2ced608b1b60448201526064016101ea565b6127108561ffff1611156123595760405162461bcd60e51b815260206004820152600e60248201526d084dedceae640e8dede40d0d2ced60931b60448201526064016101ea565b60048101546000908161236b8761099d565b9050600085600101548a61ffff168361238491906141fb565b61238e9190614212565b6000898152600f602052604090205490915083821015612488576000848860020154846123bb91906141fb565b6123c59190614212565b905060005b828110156124815760008b8152600f602052604081208054839081106123f2576123f2614149565b6000918252602080832090910154808352600e909152604082209950915061241b90829061293c565b60008a60020154848a6001015461243291906141fb565b61243c9190614212565b90508089600101600082825461245291906141cb565b909155505060048a01805482919060009061246e9084906141cb565b9091555050600190920191506123ca9050565b50506125ac565b8382101580156124985750828211155b156125725760005b8181101561252f5760008a8152600f602052604081208054839081106124c8576124c8614149565b6000918252602080832090910154808352600e90915260408220985091506124f190829061293c565b6000600188018190556003880155600887015460ff166125265760118801805460018101825560009182526020909120018190555b506001016124a0565b50600060048701556125408961326c565b50600061254d85846141cb565b90508087600601600001600082825461256691906141cb565b909155506125ac915050565b60405162461bcd60e51b815260206004820152600f60248201526e082dadeeadce840e8dede40d0d2ced608b1b60448201526064016101ea565b60018701546000906125c261ffff8d16826141cb565b60018a015460058b01546125d690876141fb565b6125e09190614212565b6125ea91906141fb565b6125f49190614212565b6014880154601389015460128a015460405163fc76fff360e01b815260048101859052602481019390935260448301919091526001600160a01b031660648201529091506000908190819073__$295e309c8a6ffd54f96e1a7c7b04118a38$__9063fc76fff390608401606060405180830381865af415801561267b573d6000803e3d6000fd5b505050506040513d601f19601f8201168201806040525081019061269f9190614234565b8c5492955090935091506001600160a01b03166126bd8282856133d1565b6001600160a01b038116600090815260106020526040812080548692906126e5908490614136565b909155506126f990508d61218d878a6141cb565b5060006127058f61099d565b9050816001600160a01b03168e6001600160a01b03167fbcbf239e05ac65bcc1a5612cd36d392b0a0aa8c93e027bc86e727687483424888a60405161274c91815260200190565b60405180910390a38e7fa3ea4fb8dee4d414198cb197af6eae4fe483c1a0b849dc50e53b9bf1a60e21668a8360405161278f929190918252602082015260400190565b60405180910390a250505050505050505050505050505050505050565b60008051602061438683398151915254600181146127dc5760405162461bcd60e51b81526004016101ea90614104565b6002600080516020614386833981519152556127f8338361289c565b61285a5760405162461bcd60e51b815260206004820152602d60248201527f4552433732313a2063616c6c6572206973206e6f7420746f6b656e206f776e6560448201526c1c881bdc88185c1c1c9bdd9959609a1b60648201526084016101ea565b61286582600161293c565b6000828152600e6020526040812060010154900361288657612886826131b7565b6001600080516020614386833981519152555050565b6000806128a883613421565b9050806001600160a01b0316846001600160a01b0316148061290e57506001600160a01b0380821660009081527f07cfe06905cfedb580eece28a10ae6a81afa7f795e57d58eb5cecaff527e70c4602090815260408083209388168352929052205460ff165b806129325750836001600160a01b031661292784613480565b6001600160a01b0316145b9150505b92915050565b6000828152600e602052604081208054600d8054929391928390811061296457612964614149565b90600052602060002090601802019050600080600073__$295e309c8a6ffd54f96e1a7c7b04118a38$__63ad6fa2338560160154886005015489600101548a600301548b600401546040518663ffffffff1660e01b81526004016129ea959493929190948552602085019390935260408401919091526060830152608082015260a00190565b606060405180830381865af4158015612a07573d6000803e3d6000fd5b505050506040513d601f19601f82011682018060405250810190612a2b919061426d565b92509250925086612a79578360160154600003612a485742612a4e565b83601601545b866005018190555080866004016000828254612a6a9190614136565b90915550505050505050505050565b6008840154831115612a8f57612a8f85846134c6565b8215612b7e5760006004870181905560168501549003612aaf5742612ab5565b83601601545b6005870155600884018054849190600090612ad19084906141cb565b9091555050600984018054839190600090612aed9084906141cb565b90915550506040516331a9108f60e11b815260048101899052612b7c9073__$0a47a65a6432b6520c78f3e5508d96088b$__90636352211e90602401602060405180830381865af4158015612b46573d6000803e3d6000fd5b505050506040513d601f19601f82011682018060405250810190612b6a91906141de565b85546001600160a01b03169084612b88565b505b5050505050505050565b6040516001600160a01b038316602482015260448101829052600090612bee90859063a9059cbb60e01b906064015b60408051601f198184030181529190526020810180516001600160e01b03166001600160e01b03199093169290921790915261383d565b5060019392505050565b6040516001600160a01b0380851660248301528316604482015260648101829052600090612c339086906323b872dd60e01b90608401612bb7565b5060015b949350505050565b60006001600160a01b038316612c975760405162461bcd60e51b815260206004820152601f60248201527f45524332303a206d696e7420746f20746865207a65726f20616464726573730060448201526064016101ea565b6000612cce85846000600d018881548110612cb457612cb4614149565b9060005260206000209060180201600e0160000154611476565b90506000612cdb8561390f565b9050612d2e60405180610120016040528060008152602001600081526020016000815260200160008152602001600081526020016000815260200160008152602001600081526020016000151581525090565b86815260208101859052600d805460009173__$295e309c8a6ffd54f96e1a7c7b04118a38$__9163098952389189918c908110612d6d57612d6d614149565b9060005260206000209060180201600001600301546040518363ffffffff1660e01b8152600401612da8929190918252602082015260400190565b6040805180830381865af4158015612dc4573d6000803e3d6000fd5b505050506040513d601f19601f82011682018060405250810190612de8919061429b565b509050674563918244f40000816000600d018a81548110612e0b57612e0b614149565b9060005260206000209060180201600e0160020154612e2a9190614136565b1115612e6e5760405162461bcd60e51b81526020600482015260136024820152721608189bdd5b99185c9e481d9a5bdb185d1959606a1b60448201526064016101ea565b6040828101828152606084018681524260a086019081526000878152600e602090815285822088518155818901516001808301919091559551600282015593516003850155608088015160048501559151600584015560c0870151600684015560e087015160078401556101008701516008909301805460ff1916931515939093179092558b8252600f81529281208054928301815581529190912001839055600d80548291908a908110612f2557612f25614149565b9060005260206000209060180201600e016002016000828254612f489190614136565b9091555050600d8054612f81918a9182908110612f6757612f67614149565b9060005260206000209060180201600e0160020154613ad5565b5091979650505050505050565b6000818152600e6020908152604080832081516101208101835281548082526001830154828601526002830154828501526003830154606083015260048301546080830152600583015460a0830152600683015460c0830152600783015460e083015260089092015460ff161515610100820152818552600f845282852080548451818702810187019095528085529195929492939290919083018282801561305657602002820191906000526020600020905b815481526020019060010190808311613042575b5050835193945060009250829150505b828110156130a6578684828151811061308157613081614149565b602002602001015103613096578091506130a6565b61309f81614199565b9050613066565b508181106130f65760405162461bcd60e51b815260206004820152601860248201527f546f6b656e206e6f7420666f756e6420696e206172726179000000000000000060448201526064016101ea565b805b6131036001846141cb565b81101561315b5783613116826001614136565b8151811061312657613126614149565b602002602001015184828151811061314057613140614149565b602090810291909101015261315481614199565b90506130f8565b506000848152600f60209081526040909120845161317b92860190613f84565b506000848152600f60205260409020805480613199576131996142bf565b60019003818190600052602060002001600090559055505050505050565b60008051602061436683398151915260006131d183613421565b90506131df81600085613b0b565b6131e883613421565b6000848152600284016020908152604080832080546001600160a01b03199081169091556001600160a01b038516808552600188018452828520805460001901905588855292879052818420805490911690555192935085927fddf252ad1be2c89b69c2b068fc378daa952ba7f163c4a11628f55a4df523b3ef908390a45b505050565b6000806000600d01838154811061328557613285614149565b60009182526020808320868452601690915260408320805490849055601890920201925080156133c95760008581526015602090815260408083208484528252808320548151637f1f087360e01b815291516001600160a01b0390911693928492637f1f08739260048083019392829003018187875af115801561330d573d6000803e3d6000fd5b505050506040513d601f19601f8201168201806040525081019061333191906141b2565b6040516348b1933560e01b8152600481018290529091506001600160a01b038316906348b19335906024016020604051808303816000875af115801561337b573d6000803e3d6000fd5b505050506040513d601f19601f8201168201806040525081019061339f91906141b2565b60006007870181905560068701805492965086929091906133c1908490614136565b909155505050505b509392505050565b6001600160a01b03831615613267576001600160a01b03808416600090815260136020908152604080832093861683529290529081208054839290613417908490614136565b9091555050505050565b60008061342d83613bc0565b90506001600160a01b0381166129365760405162461bcd60e51b8152602060048201526018602482015277115490cdcc8c4e881a5b9d985b1a59081d1bdad95b88125160421b60448201526064016101ea565b600061348b82613be8565b5060009081527f07cfe06905cfedb580eece28a10ae6a81afa7f795e57d58eb5cecaff527e70c360205260409020546001600160a01b031690565b6040805160c0810182526000805160206143a68339815191525481527fb3489dd2b6aceffcd73eb3bc338c0fb7cf41e877855ec204580612eca103a15e5460208201527fb3489dd2b6aceffcd73eb3bc338c0fb7cf41e877855ec204580612eca103a15f54918101919091527fb3489dd2b6aceffcd73eb3bc338c0fb7cf41e877855ec204580612eca103a1605460608201527fb3489dd2b6aceffcd73eb3bc338c0fb7cf41e877855ec204580612eca103a1615460808201527fb3489dd2b6aceffcd73eb3bc338c0fb7cf41e877855ec204580612eca103a1625460a0820152600d805460009190859081106135bf576135bf614149565b600091825260208220601891909102016008810154600382015482546040516341b778fd60e11b81526004810192909252600160a81b900461ffff166024820152919350859173__$295e309c8a6ffd54f96e1a7c7b04118a38$__9063836ef1fa90604401602060405180830381865af4158015613641573d6000803e3d6000fd5b505050506040513d601f19601f8201168201806040525081019061366591906141b2565b61366f91906141cb565b6136799190614136565b6001830154835491925061369b916001600160a01b0390811691163084612bf8565b50808260080160000160008282546136b39190614136565b9091555050602083015160a0840151600091906136d090846141fb565b6136da9190614212565b60148401546013850154601286015460405163fc76fff360e01b815260048101859052602481019390935260448301919091526001600160a01b031660648201529091506000908190819073__$295e309c8a6ffd54f96e1a7c7b04118a38$__9063fc76fff390608401606060405180830381865af4158015613761573d6000803e3d6000fd5b505050506040513d601f19601f820116820180604052508101906137859190614234565b885492955090935091506001600160a01b03166137a38282856133d1565b6001600160a01b038116600090815260116020526040812080548692906137cb908490614136565b90915550600090506137dd86886141cb565b9050808860080160010160008282546137f69190614136565b90915550506040518781528b907fadb049ad2d09be3db90459a16aef1ad0a4d89e8fdcc1ade9429d6cc55abbcd2b9060200160405180910390a25050505050505050505050565b6000613892826040518060400160405280602081526020017f5361666545524332303a206c6f772d6c6576656c2063616c6c206661696c6564815250856001600160a01b0316613c3b9092919063ffffffff16565b80519091501561326757808060200190518101906138b091906142d5565b6132675760405162461bcd60e51b815260206004820152602a60248201527f5361666545524332303a204552433230206f7065726174696f6e20646964206e6044820152691bdd081cdd58d8d9595960b21b60648201526084016101ea565b7f07cfe06905cfedb580eece28a10ae6a81afa7f795e57d58eb5cecaff527e70c580546000916000805160206143668339815191529183918261395183614199565b9091555090506001600160a01b0384166139ad5760405162461bcd60e51b815260206004820181905260248201527f4552433732313a206d696e7420746f20746865207a65726f206164647265737360448201526064016101ea565b6139b681613c4a565b15613a035760405162461bcd60e51b815260206004820152601c60248201527f4552433732313a20746f6b656e20616c7265616479206d696e7465640000000060448201526064016101ea565b613a0f60008583613b0b565b613a1881613c4a565b15613a655760405162461bcd60e51b815260206004820152601c60248201527f4552433732313a20746f6b656e20616c7265616479206d696e7465640000000060448201526064016101ea565b6001600160a01b0384166000818152600184810160209081526040808420805490930190925584835285905280822080546001600160a01b0319168417905551839291907fddf252ad1be2c89b69c2b068fc378daa952ba7f163c4a11628f55a4df523b3ef908290a49392505050565b6000816000600d018481548110613aee57613aee614149565b60009182526020909120600e601890920201015550600192915050565b816001600160a01b0316836001600160a01b031614158015613b3557506001600160a01b03831615155b15613b4457613b448382613c67565b826001600160a01b0316826001600160a01b031614158015613b6e57506001600160a01b03821615155b15613267576001600160a01b039190911660009081527f07cfe06905cfedb580eece28a10ae6a81afa7f795e57d58eb5cecaff527e70c660209081526040822080546001810182559083529120015550565b600090815260008051602061436683398151915260205260409020546001600160a01b031690565b613bf181613c4a565b613c385760405162461bcd60e51b8152602060048201526018602482015277115490cdcc8c4e881a5b9d985b1a59081d1bdad95b88125160421b60448201526064016101ea565b50565b6060612c378484600085613ded565b600080613c5683613bc0565b6001600160a01b0316141592915050565b6001600160a01b03821660009081527f07cfe06905cfedb580eece28a10ae6a81afa7f795e57d58eb5cecaff527e70c66020908152604080832080548251818502810185019093528083526000805160206143668339815191529493830182828015613cf257602002820191906000526020600020905b815481526020019060010190808311613cde575b505083519394506000925050505b81811015613de55784838281518110613d1b57613d1b614149565b602002602001015103613dd55782613d346001846141cb565b81518110613d4457613d44614149565b6020026020010151838281518110613d5e57613d5e614149565b6020908102919091018101919091526001600160a01b0387166000908152600586018252604090208451613d9492860190613f84565b506001600160a01b03861660009081526005850160205260409020805480613dbe57613dbe6142bf565b600190038181906000526020600020016000905590555b613dde81614199565b9050613d00565b505050505050565b606082471015613e4e5760405162461bcd60e51b815260206004820152602660248201527f416464726573733a20696e73756666696369656e742062616c616e636520666f6044820152651c8818d85b1b60d21b60648201526084016101ea565b600080866001600160a01b03168587604051613e6a9190614316565b60006040518083038185875af1925050503d8060008114613ea7576040519150601f19603f3d011682016040523d82523d6000602084013e613eac565b606091505b5091509150613ebd87838387613ec8565b979650505050505050565b60608315613f37578251600003613f30576001600160a01b0385163b613f305760405162461bcd60e51b815260206004820152601d60248201527f416464726573733a2063616c6c20746f206e6f6e2d636f6e747261637400000060448201526064016101ea565b5081612c37565b612c378383815115613f4c5781518083602001fd5b8060405162461bcd60e51b81526004016101ea9190614332565b5080546000825590600052602060002090810190613c389190613fcf565b828054828255906000526020600020908101928215613fbf579160200282015b82811115613fbf578251825591602001919060010190613fa4565b50613fcb929150613fcf565b5090565b5b80821115613fcb5760008155600101613fd0565b600060208284031215613ff657600080fd5b5035919050565b6000806040838503121561401057600080fd5b50508035926020909101359150565b60008060006060848603121561403457600080fd5b505081359360208301359350604090920135919050565b8015158114613c3857600080fd5b6000806040838503121561406c57600080fd5b82359150602083013561407e8161404b565b809150509250929050565b6001600160a01b0381168114613c3857600080fd5b803561ffff811681146140b057600080fd5b919050565b600080600080608085870312156140cb57600080fd5b8435935060208501356140dd81614089565b92506140eb6040860161409e565b91506140f96060860161409e565b905092959194509250565b602080825260029082015261723160f01b604082015260600190565b634e487b7160e01b600052601160045260246000fd5b8082018082111561293657612936614120565b634e487b7160e01b600052603260045260246000fd5b600181811c9082168061417357607f821691505b60208210810361419357634e487b7160e01b600052602260045260246000fd5b50919050565b6000600182016141ab576141ab614120565b5060010190565b6000602082840312156141c457600080fd5b5051919050565b8181038181111561293657612936614120565b6000602082840312156141f057600080fd5b8151610c5181614089565b808202811582820484141761293657612936614120565b60008261422f57634e487b7160e01b600052601260045260246000fd5b500490565b60008060006060848603121561424957600080fd5b8351925060208401519150604084015161426281614089565b809150509250925092565b60008060006060848603121561428257600080fd5b8351925060208401519150604084015190509250925092565b600080604083850312156142ae57600080fd5b505080516020909101519092909150565b634e487b7160e01b600052603160045260246000fd5b6000602082840312156142e757600080fd5b8151610c518161404b565b60005b8381101561430d5781810151838201526020016142f5565b50506000910152565b600082516143288184602087016142f2565b9190910192915050565b60208152600082518060208401526143518160408501602087016142f2565b601f01601f1916919091016040019291505056fe07cfe06905cfedb580eece28a10ae6a81afa7f795e57d58eb5cecaff527e70c18e94fed44239eb2314ab7a406345e6c5a8f0ccedf3b600de3d004e672c33abf4b3489dd2b6aceffcd73eb3bc338c0fb7cf41e877855ec204580612eca103a15da26469706673582212206b1f210c5a5d84ca4c52ba79961996e46655a7197e36a2e453070ecdcc4a0c4664736f6c63430008130033",
    "linkReferences": {
      "src/lib/LibERC721.sol": {
        "LibERC721": [
          {
            "start": 7550,
            "length": 20
          },
          {
            "start": 11052,
            "length": 20
          }
        ]
      },
      "src/lib/LibSaloon.sol": {
        "LibSaloon": [
          {
            "start": 5166,
            "length": 20
          },
          {
            "start": 5977,
            "length": 20
          },
          {
            "start": 8437,
            "length": 20
          },
          {
            "start": 9825,
            "length": 20
          },
          {
            "start": 10651,
            "length": 20
          },
          {
            "start": 11617,
            "length": 20
          },
          {
            "start": 13863,
            "length": 20
          },
          {
            "start": 14151,
            "length": 20
          }
        ]
      }
    }
  },
  "methodIdentifiers": {
    "calculateEffectiveAPY(uint256,uint256,uint256)": "81c6f1a7",
    "claimPremium(uint256)": "f47ec3be",
    "consolidate(uint256)": "949a4a4a",
    "consolidateAll()": "75bfd63d",
    "getCurrentAPY(uint256)": "7fbf3853",
    "payBounty(uint256,address,uint16,uint16)": "d075afac",
    "payBountyDuringAssessment(uint256,address,uint16,uint16)": "cfd54bfa",
    "scheduleUnstake(uint256)": "106d08df",
    "stake(uint256,uint256)": "7b0472f0",
    "unstake(uint256,bool)": "9ebea88c",
    "viewBountyBalance(uint256)": "6ac6d812",
    "withdrawRemainingAPY(uint256)": "4ef19f63"
  },
  "id": 39
}