{
  "abi": [
    {
      "inputs": [
        {
          "internalType": "uint256",
          "name": "_pid",
          "type": "uint256"
        }
      ],
      "name": "viewBountyInfo",
      "outputs": [
        {
          "internalType": "uint256",
          "name": "payout",
          "type": "uint256"
        },
        {
          "internalType": "uint256",
          "name": "apy",
          "type": "uint256"
        },
        {
          "internalType": "uint256",
          "name": "staked",
          "type": "uint256"
        },
        {
          "internalType": "uint256",
          "name": "poolCap",
          "type": "uint256"
        }
      ],
      "stateMutability": "view",
      "type": "function"
    },
    {
      "inputs": [
        {
          "internalType": "uint256",
          "name": "_pid",
          "type": "uint256"
        }
      ],
      "name": "viewMinProjectDeposit",
      "outputs": [
        {
          "internalType": "uint256",
          "name": "",
          "type": "uint256"
        }
      ],
      "stateMutability": "view",
      "type": "function"
    },
    {
      "inputs": [
        {
          "internalType": "uint256",
          "name": "_tokenId",
          "type": "uint256"
        }
      ],
      "name": "viewPendingPremium",
      "outputs": [
        {
          "internalType": "uint256",
          "name": "totalPending",
          "type": "uint256"
        },
        {
          "internalType": "uint256",
          "name": "actualPending",
          "type": "uint256"
        },
        {
          "internalType": "uint256",
          "name": "newPending",
          "type": "uint256"
        }
      ],
      "stateMutability": "nonpayable",
      "type": "function"
    },
    {
      "inputs": [
        {
          "internalType": "uint256",
          "name": "_pid",
          "type": "uint256"
        }
      ],
      "name": "viewPoolAPY",
      "outputs": [
        {
          "internalType": "uint256",
          "name": "",
          "type": "uint256"
        }
      ],
      "stateMutability": "view",
      "type": "function"
    },
    {
      "inputs": [
        {
          "internalType": "uint256",
          "name": "_pid",
          "type": "uint256"
        }
      ],
      "name": "viewPoolCap",
      "outputs": [
        {
          "internalType": "uint256",
          "name": "",
          "type": "uint256"
        }
      ],
      "stateMutability": "view",
      "type": "function"
    },
    {
      "inputs": [
        {
          "internalType": "uint256",
          "name": "_pid",
          "type": "uint256"
        }
      ],
      "name": "viewPoolPremiumInfo",
      "outputs": [
        {
          "internalType": "uint256",
          "name": "requiredPremiumBalancePerPeriod",
          "type": "uint256"
        },
        {
          "internalType": "uint256",
          "name": "premiumBalance",
          "type": "uint256"
        },
        {
          "internalType": "uint256",
          "name": "premiumAvailable",
          "type": "uint256"
        }
      ],
      "stateMutability": "view",
      "type": "function"
    },
    {
      "inputs": [
        {
          "internalType": "uint256",
          "name": "_pid",
          "type": "uint256"
        }
      ],
      "name": "viewPoolTimelockInfo",
      "outputs": [
        {
          "internalType": "uint256",
          "name": "timelock",
          "type": "uint256"
        },
        {
          "internalType": "uint256",
          "name": "timeLimit",
          "type": "uint256"
        },
        {
          "internalType": "uint256",
          "name": "withdrawalScheduledAmount",
          "type": "uint256"
        }
      ],
      "stateMutability": "view",
      "type": "function"
    },
    {
      "inputs": [
        {
          "internalType": "address",
          "name": "_referrer",
          "type": "address"
        },
        {
          "internalType": "address",
          "name": "_token",
          "type": "address"
        }
      ],
      "name": "viewReferralBalance",
      "outputs": [
        {
          "internalType": "uint256",
          "name": "referralBalance",
          "type": "uint256"
        }
      ],
      "stateMutability": "view",
      "type": "function"
    },
    {
      "inputs": [
        {
          "internalType": "address",
          "name": "_token",
          "type": "address"
        }
      ],
      "name": "viewSaloonProfitBalance",
      "outputs": [
        {
          "internalType": "uint256",
          "name": "totalProfit",
          "type": "uint256"
        },
        {
          "internalType": "uint256",
          "name": "bountyProfit",
          "type": "uint256"
        },
        {
          "internalType": "uint256",
          "name": "strategyProfit",
          "type": "uint256"
        },
        {
          "internalType": "uint256",
          "name": "premiumProfit",
          "type": "uint256"
        }
      ],
      "stateMutability": "view",
      "type": "function"
    },
    {
      "inputs": [
        {
          "internalType": "uint256",
          "name": "_tokenId",
          "type": "uint256"
        }
      ],
      "name": "viewTokenInfo",
      "outputs": [
        {
          "internalType": "uint256",
          "name": "amount",
          "type": "uint256"
        },
        {
          "internalType": "uint256",
          "name": "apy",
          "type": "uint256"
        },
        {
          "internalType": "uint256",
          "name": "actualPending",
          "type": "uint256"
        },
        {
          "internalType": "uint256",
          "name": "unclaimed",
          "type": "uint256"
        },
        {
          "internalType": "uint256",
          "name": "timelock",
          "type": "uint256"
        }
      ],
      "stateMutability": "view",
      "type": "function"
    },
    {
      "inputs": [
        {
          "internalType": "uint256",
          "name": "_pid",
          "type": "uint256"
        }
      ],
      "name": "viewTotalStaked",
      "outputs": [
        {
          "internalType": "uint256",
          "name": "",
          "type": "uint256"
        }
      ],
      "stateMutability": "view",
      "type": "function"
    }
  ],
  "bytecode": {
    "object": "0x608060405234801561001057600080fd5b50611bf2806100206000396000f3fe608060405234801561001057600080fd5b50600436106100a95760003560e01c806340ef28681161007157806340ef286814610189578063718c7eef146101bc578063a27f9213146101cf578063ac30b856146101e2578063b1a2d16f146101f5578063dbdd69571461020857600080fd5b806301690ef7146100ae5780630ed7610c146100e157806310725852146101285780631c6b323f1461016357806339679ff414610176575b600080fd5b6100c16100bc366004611a7b565b61021b565b604080519384526020840192909252908201526060015b60405180910390f35b61011a6100ef366004611ab0565b6001600160a01b03918216600090815260136020908152604080832093909416825291909152205490565b6040519081526020016100d8565b61013b610136366004611a7b565b6105da565b604080519586526020860194909452928401919091526060830152608082015260a0016100d8565b61011a610171366004611a7b565b6109b3565b61011a610184366004611a7b565b610c5e565b61019c610197366004611a7b565b610ef4565b6040805194855260208501939093529183015260608201526080016100d8565b61019c6101ca366004611ae3565b610f22565b61011a6101dd366004611a7b565b610f70565b6100c16101f0366004611a7b565b611206565b6100c1610203366004611a7b565b6114af565b61011a610216366004611a7b565b6117e5565b6000818152600e6020908152604080832081516101208101835281548082526001830154948201949094526002820154928101929092526003810154606083015260048101546080830152600581015460a0830152600681015460c0830152600781015460e08301526008015460ff161515610100820152600d805484938493929091849190839081106102b1576102b1611afe565b6000918252602090912060408051610220810190915260189092020180546001600160a01b038082166101208501908152600160a01b830460ff16610140860152600160a81b90920461ffff1661016085015260018301541661018084015260028201805484929184916101a08501919061032b90611b14565b80601f016020809104026020016040519081016040528092919081815260200182805461035790611b14565b80156103a45780601f10610379576101008083540402835291602001916103a4565b820191906000526020600020905b81548152906001019060200180831161038757829003601f168201915b505050918352505060038201546020808301919091526004830154604080840191909152600590930154606092830152928452815180830183526006860154815260078601548185015284840152815180830183526008860154815260098601548185015284830152815160808082018452600a8701548252600b87015482860152600c87015482850152600d87015460ff161515828401528583019190915282518082018452600e870180548252600f880154828701526010880154828601526011880180548651818902810189019097528087529390970196919590949386019392908301828280156104b857602002820191906000526020600020905b8154815260200190600101908083116104a4575b505050919092525050508152604080516060808201835260128501546001600160a01b0316825260138501546020808401919091526014860154838501528085019290925260158501548385015260168501548185015260179094015460ff16151560809384015260e085015160a0890151918901519489015193890151925163ad6fa23360e01b81526004810191909152602481019190915260448101939093526064830191909152608482015290915073__$295e309c8a6ffd54f96e1a7c7b04118a38$__9063ad6fa2339060a401606060405180830381865af41580156105a6573d6000803e3d6000fd5b505050506040513d601f19601f820116820180604052508101906105ca9190611b4e565b9199909850909650945050505050565b6000818152600e6020908152604080832081516101208101835281548082526001830154948201949094526002820154928101929092526003810154606083015260048101546080830152600581015460a0830152600681015460c0830152600781015460e08301526008015460ff161515610100820152600d805484938493849384939192918491908390811061067457610674611afe565b6000918252602090912060408051610220810190915260189092020180546001600160a01b038082166101208501908152600160a01b830460ff16610140860152600160a81b90920461ffff1661016085015260018301541661018084015260028201805484929184916101a0850191906106ee90611b14565b80601f016020809104026020016040519081016040528092919081815260200182805461071a90611b14565b80156107675780601f1061073c57610100808354040283529160200191610767565b820191906000526020600020905b81548152906001019060200180831161074a57829003601f168201915b505050918352505060038201546020808301919091526004830154604080840191909152600590930154606092830152928452815180830183526006860154815260078601548185015284840152815180830183526008860154815260098601548185015284830152815160808082018452600a8701548252600b87015482860152600c87015482850152600d87015460ff161515828401528583019190915282518082018452600e870180548252600f8801548287015260108801548286015260118801805486518189028101890190975280875293909701969195909493860193929083018282801561087b57602002820191906000526020600020905b815481526020019060010190808311610867575b505050919092525050508152604080516060808201835260128501546001600160a01b0316825260138501546020808401919091526014860154838501528085019290925260158501548385015260168501548185015260179094015460ff1615156080938401528701519287015160e085015160a089015193890151925163ad6fa23360e01b81526004810191909152602481019390935260448301849052606483018190526084830191909152919a5090985090915073__$295e309c8a6ffd54f96e1a7c7b04118a38$__9063ad6fa2339060a401606060405180830381865af415801561096f573d6000803e3d6000fd5b505050506040513d601f19601f820116820180604052508101906109939190611b4e565b50608085015160c090950151999b989a5098939793965092945050505050565b6000806000600d0183815481106109cc576109cc611afe565b6000918252602090912060408051610220810190915260189092020180546001600160a01b038082166101208501908152600160a01b830460ff16610140860152600160a81b90920461ffff1661016085015260018301541661018084015260028201805484929184916101a085019190610a4690611b14565b80601f0160208091040260200160405190810160405280929190818152602001828054610a7290611b14565b8015610abf5780601f10610a9457610100808354040283529160200191610abf565b820191906000526020600020905b815481529060010190602001808311610aa257829003601f168201915b505050918352505060038201546020808301919091526004830154604080840191909152600590930154606092830152928452815180830183526006860154815260078601548185015284840152815180830183526008860154815260098601548185015284830152815160808082018452600a8701548252600b87015482860152600c87015482850152600d87015460ff161515828401528583019190915282518082018452600e870180548252600f88015482870152601088015482860152601188018054865181890281018901909752808752939097019691959094938601939290830182828015610bd357602002820191906000526020600020905b815481526020019060010190808311610bbf575b505050919092525050508152604080516060808201835260128501546001600160a01b0316825260138501546020838101919091526014860154838501528085019290925260158501549284019290925260168401549183019190915260179092015460ff16151560809091015281810151908101519051919250610c5791611b7c565b9392505050565b6000806000600d018381548110610c7757610c77611afe565b6000918252602090912060408051610220810190915260189092020180546001600160a01b038082166101208501908152600160a01b830460ff16610140860152600160a81b90920461ffff1661016085015260018301541661018084015260028201805484929184916101a085019190610cf190611b14565b80601f0160208091040260200160405190810160405280929190818152602001828054610d1d90611b14565b8015610d6a5780601f10610d3f57610100808354040283529160200191610d6a565b820191906000526020600020905b815481529060010190602001808311610d4d57829003601f168201915b505050918352505060038201546020808301919091526004830154604080840191909152600590930154606092830152928452815180830183526006860154815260078601548185015284840152815180830183526008860154815260098601548185015284830152815160808082018452600a8701548252600b87015482860152600c87015482850152600d87015460ff161515828401528583019190915282518082018452600e870180548252600f88015482870152601088015482860152601188018054865181890281018901909752808752939097019691959094938601939290830182828015610e7e57602002820191906000526020600020905b815481526020019060010190808311610e6a575b505050919092525050508152604080516060808201835260128501546001600160a01b03168252601385015460208381019190915260148601548385015284019190915260158401549183019190915260168301549082015260179091015460ff1615156080909101525160a001519392505050565b600080600080610f03856117e5565b9150610f0e85610f70565b9250610f1985610c5e565b90509193509193565b6001600160a01b038116600090815260106020908152604080832054601283528184205460119093529083205490919081610f5d8483611b7c565b610f679190611b7c565b93509193509193565b6000806000600d018381548110610f8957610f89611afe565b6000918252602090912060408051610220810190915260189092020180546001600160a01b038082166101208501908152600160a01b830460ff16610140860152600160a81b90920461ffff1661016085015260018301541661018084015260028201805484929184916101a08501919061100390611b14565b80601f016020809104026020016040519081016040528092919081815260200182805461102f90611b14565b801561107c5780601f106110515761010080835404028352916020019161107c565b820191906000526020600020905b81548152906001019060200180831161105f57829003601f168201915b505050918352505060038201546020808301919091526004830154604080840191909152600590930154606092830152928452815180830183526006860154815260078601548185015284840152815180830183526008860154815260098601548185015284830152815160808082018452600a8701548252600b87015482860152600c87015482850152600d87015460ff161515828401528583019190915282518082018452600e870180548252600f8801548287015260108801548286015260118801805486518189028101890190975280875293909701969195909493860193929083018282801561119057602002820191906000526020600020905b81548152602001906001019080831161117c575b505050919092525050508152604080516060808201835260128501546001600160a01b03168252601385015460208381019190915260148601548385015284019190915260158401548284015260168401549083015260179092015460ff1615156080909101529051015161ffff169392505050565b6000806000806000600d01858154811061122257611222611afe565b6000918252602090912060408051610220810190915260189092020180546001600160a01b038082166101208501908152600160a01b830460ff16610140860152600160a81b90920461ffff1661016085015260018301541661018084015260028201805484929184916101a08501919061129c90611b14565b80601f01602080910402602001604051908101604052809291908181526020018280546112c890611b14565b80156113155780601f106112ea57610100808354040283529160200191611315565b820191906000526020600020905b8154815290600101906020018083116112f857829003601f168201915b505050918352505060038201546020808301919091526004830154604080840191909152600590930154606092830152928452815180830183526006860154815260078601548185015284840152815180830183526008860154815260098601548185015284830152815160808082018452600a8701548252600b87015482860152600c87015482850152600d87015460ff161515828401528583019190915282518082018452600e870180548252600f8801548287015260108801548286015260118801805486518189028101890190975280875293909701969195909493860193929083018282801561142957602002820191906000526020600020905b815481526020019060010190808311611415575b505050919092525050508152604080516060808201835260128501546001600160a01b0316825260138501546020838101919091526014860154838501528085019290925260158501548385015260168501548185015260179094015460ff16151560809093019290925292909101518051918101519201519097919650945092505050565b6000806000806000600d0185815481106114cb576114cb611afe565b6000918252602090912060408051610220810190915260189092020180546001600160a01b038082166101208501908152600160a01b830460ff16610140860152600160a81b90920461ffff1661016085015260018301541661018084015260028201805484929184916101a08501919061154590611b14565b80601f016020809104026020016040519081016040528092919081815260200182805461157190611b14565b80156115be5780601f10611593576101008083540402835291602001916115be565b820191906000526020600020905b8154815290600101906020018083116115a157829003601f168201915b505050918352505060038201546020808301919091526004830154604080840191909152600590930154606092830152928452815180830183526006860154815260078601548185015284840152815180830183526008860154815260098601548185015284830152815160808082018452600a8701548252600b87015482860152600c87015482850152600d87015460ff161515828401528583019190915282518082018452600e870180548252600f880154828701526010880154828601526011880180548651818902810189019097528087529390970196919590949386019392908301828280156116d257602002820191906000526020600020905b8154815260200190600101908083116116be575b505050919092525050508152604080516060808201835260128501546001600160a01b03168252601385015460208381019190915260148601548385015284019190915260158401548284015260168401549083015260179092015460ff161515608090910152815160a08101519082015191516341b778fd60e11b815292935073__$295e309c8a6ffd54f96e1a7c7b04118a38$__9263836ef1fa92611789929160040191825261ffff16602082015260400190565b602060405180830381865af41580156117a6573d6000803e3d6000fd5b505050506040513d601f19601f820116820180604052508101906117ca9190611ba3565b60409091015180516020909101519196909550909350915050565b6000806000600d0183815481106117fe576117fe611afe565b6000918252602090912060408051610220810190915260189092020180546001600160a01b038082166101208501908152600160a01b830460ff16610140860152600160a81b90920461ffff1661016085015260018301541661018084015260028201805484929184916101a08501919061187890611b14565b80601f01602080910402602001604051908101604052809291908181526020018280546118a490611b14565b80156118f15780601f106118c6576101008083540402835291602001916118f1565b820191906000526020600020905b8154815290600101906020018083116118d457829003601f168201915b505050918352505060038201546020808301919091526004830154604080840191909152600590930154606092830152928452815180830183526006860154815260078601548185015284840152815180830183526008860154815260098601548185015284830152815160808082018452600a8701548252600b87015482860152600c87015482850152600d87015460ff161515828401528583019190915282518082018452600e870180548252600f88015482870152601088015482860152601188018054865181890281018901909752808752939097019691959094938601939290830182828015611a0557602002820191906000526020600020905b8154815260200190600101908083116119f1575b505050919092525050508152604080516060808201835260128501546001600160a01b03168252601385015460208381019190915260148601548385015284019190915260158401549183019190915260168301549082015260179091015460ff1615156080909101525160c001519392505050565b600060208284031215611a8d57600080fd5b5035919050565b80356001600160a01b0381168114611aab57600080fd5b919050565b60008060408385031215611ac357600080fd5b611acc83611a94565b9150611ada60208401611a94565b90509250929050565b600060208284031215611af557600080fd5b610c5782611a94565b634e487b7160e01b600052603260045260246000fd5b600181811c90821680611b2857607f821691505b602082108103611b4857634e487b7160e01b600052602260045260246000fd5b50919050565b600080600060608486031215611b6357600080fd5b8351925060208401519150604084015190509250925092565b80820180821115611b9d57634e487b7160e01b600052601160045260246000fd5b92915050565b600060208284031215611bb557600080fd5b505191905056fea26469706673582212205bd6e7f28d6ed3d8862c3db6b1ed5e418cdfb34de7d6863a6b45f3894948fee764736f6c63430008130033",
    "linkReferences": {
      "src/lib/LibSaloon.sol": {
        "LibSaloon": [
          {
            "start": 1420,
            "length": 20
          },
          {
            "start": 2389,
            "length": 20
          },
          {
            "start": 6005,
            "length": 20
          }
        ]
      }
    }
  },
  "methodIdentifiers": {
    "viewBountyInfo(uint256)": "40ef2868",
    "viewMinProjectDeposit(uint256)": "1c6b323f",
    "viewPendingPremium(uint256)": "01690ef7",
    "viewPoolAPY(uint256)": "a27f9213",
    "viewPoolCap(uint256)": "39679ff4",
    "viewPoolPremiumInfo(uint256)": "b1a2d16f",
    "viewPoolTimelockInfo(uint256)": "ac30b856",
    "viewReferralBalance(address,address)": "0ed7610c",
    "viewSaloonProfitBalance(address)": "718c7eef",
    "viewTokenInfo(uint256)": "10725852",
    "viewTotalStaked(uint256)": "dbdd6957"
  },
  "id": 57
}