{
  "abi": [
    {
      "inputs": [
        {
          "internalType": "address",
          "name": "_owner",
          "type": "address"
        }
      ],
      "name": "getAllTokensByOwner",
      "outputs": [
        {
          "components": [
            {
              "internalType": "uint256",
              "name": "pid",
              "type": "uint256"
            },
            {
              "internalType": "uint256",
              "name": "amount",
              "type": "uint256"
            },
            {
              "internalType": "uint256",
              "name": "xDelta",
              "type": "uint256"
            },
            {
              "internalType": "uint256",
              "name": "apy",
              "type": "uint256"
            },
            {
              "internalType": "uint256",
              "name": "unclaimed",
              "type": "uint256"
            },
            {
              "internalType": "uint256",
              "name": "lastClaimedTime",
              "type": "uint256"
            },
            {
              "internalType": "uint256",
              "name": "timelock",
              "type": "uint256"
            },
            {
              "internalType": "uint256",
              "name": "timelimit",
              "type": "uint256"
            },
            {
              "internalType": "bool",
              "name": "hasUnstaked",
              "type": "bool"
            }
          ],
          "internalType": "struct NFTInfo[]",
          "name": "userTokens",
          "type": "tuple[]"
        }
      ],
      "stateMutability": "view",
      "type": "function"
    },
    {
      "inputs": [
        {
          "internalType": "uint256",
          "name": "_pid",
          "type": "uint256"
        }
      ],
      "name": "viewBountyInfo",
      "outputs": [
        {
          "internalType": "uint256",
          "name": "payout",
          "type": "uint256"
        },
        {
          "internalType": "uint256",
          "name": "apy",
          "type": "uint256"
        },
        {
          "internalType": "uint256",
          "name": "staked",
          "type": "uint256"
        },
        {
          "internalType": "uint256",
          "name": "poolCap",
          "type": "uint256"
        }
      ],
      "stateMutability": "view",
      "type": "function"
    },
    {
      "inputs": [
        {
          "internalType": "uint256",
          "name": "_pid",
          "type": "uint256"
        }
      ],
      "name": "viewMinProjectDeposit",
      "outputs": [
        {
          "internalType": "uint256",
          "name": "",
          "type": "uint256"
        }
      ],
      "stateMutability": "view",
      "type": "function"
    },
    {
      "inputs": [
        {
          "internalType": "uint256",
          "name": "_tokenId",
          "type": "uint256"
        }
      ],
      "name": "viewPendingPremium",
      "outputs": [
        {
          "internalType": "uint256",
          "name": "totalPending",
          "type": "uint256"
        },
        {
          "internalType": "uint256",
          "name": "actualPending",
          "type": "uint256"
        },
        {
          "internalType": "uint256",
          "name": "newPending",
          "type": "uint256"
        }
      ],
      "stateMutability": "nonpayable",
      "type": "function"
    },
    {
      "inputs": [
        {
          "internalType": "uint256",
          "name": "_pid",
          "type": "uint256"
        }
      ],
      "name": "viewPoolAPY",
      "outputs": [
        {
          "internalType": "uint256",
          "name": "",
          "type": "uint256"
        }
      ],
      "stateMutability": "view",
      "type": "function"
    },
    {
      "inputs": [
        {
          "internalType": "uint256",
          "name": "_pid",
          "type": "uint256"
        }
      ],
      "name": "viewPoolCap",
      "outputs": [
        {
          "internalType": "uint256",
          "name": "",
          "type": "uint256"
        }
      ],
      "stateMutability": "view",
      "type": "function"
    },
    {
      "inputs": [
        {
          "internalType": "uint256",
          "name": "_pid",
          "type": "uint256"
        }
      ],
      "name": "viewPoolPremiumInfo",
      "outputs": [
        {
          "internalType": "uint256",
          "name": "requiredPremiumBalancePerPeriod",
          "type": "uint256"
        },
        {
          "internalType": "uint256",
          "name": "premiumBalance",
          "type": "uint256"
        },
        {
          "internalType": "uint256",
          "name": "premiumAvailable",
          "type": "uint256"
        }
      ],
      "stateMutability": "view",
      "type": "function"
    },
    {
      "inputs": [
        {
          "internalType": "uint256",
          "name": "_pid",
          "type": "uint256"
        }
      ],
      "name": "viewPoolTimelockInfo",
      "outputs": [
        {
          "internalType": "uint256",
          "name": "timelock",
          "type": "uint256"
        },
        {
          "internalType": "uint256",
          "name": "timeLimit",
          "type": "uint256"
        },
        {
          "internalType": "uint256",
          "name": "withdrawalScheduledAmount",
          "type": "uint256"
        }
      ],
      "stateMutability": "view",
      "type": "function"
    },
    {
      "inputs": [
        {
          "internalType": "address",
          "name": "_referrer",
          "type": "address"
        },
        {
          "internalType": "address",
          "name": "_token",
          "type": "address"
        }
      ],
      "name": "viewReferralBalance",
      "outputs": [
        {
          "internalType": "uint256",
          "name": "referralBalance",
          "type": "uint256"
        }
      ],
      "stateMutability": "view",
      "type": "function"
    },
    {
      "inputs": [
        {
          "internalType": "address",
          "name": "_token",
          "type": "address"
        }
      ],
      "name": "viewSaloonProfitBalance",
      "outputs": [
        {
          "internalType": "uint256",
          "name": "totalProfit",
          "type": "uint256"
        },
        {
          "internalType": "uint256",
          "name": "bountyProfit",
          "type": "uint256"
        },
        {
          "internalType": "uint256",
          "name": "strategyProfit",
          "type": "uint256"
        },
        {
          "internalType": "uint256",
          "name": "premiumProfit",
          "type": "uint256"
        }
      ],
      "stateMutability": "view",
      "type": "function"
    },
    {
      "inputs": [
        {
          "internalType": "uint256",
          "name": "_tokenId",
          "type": "uint256"
        }
      ],
      "name": "viewTokenInfo",
      "outputs": [
        {
          "internalType": "uint256",
          "name": "amount",
          "type": "uint256"
        },
        {
          "internalType": "uint256",
          "name": "apy",
          "type": "uint256"
        },
        {
          "internalType": "uint256",
          "name": "actualPending",
          "type": "uint256"
        },
        {
          "internalType": "uint256",
          "name": "unclaimed",
          "type": "uint256"
        },
        {
          "internalType": "uint256",
          "name": "timelock",
          "type": "uint256"
        }
      ],
      "stateMutability": "view",
      "type": "function"
    },
    {
      "inputs": [
        {
          "internalType": "uint256",
          "name": "_pid",
          "type": "uint256"
        }
      ],
      "name": "viewTotalStaked",
      "outputs": [
        {
          "internalType": "uint256",
          "name": "",
          "type": "uint256"
        }
      ],
      "stateMutability": "view",
      "type": "function"
    }
  ],
  "bytecode": {
    "object": "0x608060405234801561001057600080fd5b50611f23806100206000396000f3fe608060405234801561001057600080fd5b50600436106100b45760003560e01c8063718c7eef11610071578063718c7eef146101c7578063a27f9213146101da578063ac30b856146101ed578063b1a2d16f14610200578063dbdd695714610213578063e9fda7d41461022657600080fd5b806301690ef7146100b95780630ed7610c146100ec57806310725852146101335780631c6b323f1461016e57806339679ff41461018157806340ef286814610194575b600080fd5b6100cc6100c7366004611cdb565b610246565b604080519384526020840192909252908201526060015b60405180910390f35b6101256100fa366004611d10565b6001600160a01b039182166000908152600f6020908152604080832093909416825291909152205490565b6040519081526020016100e3565b610146610141366004611cdb565b610605565b604080519586526020860194909452928401919091526060830152608082015260a0016100e3565b61012561017c366004611cdb565b6109de565b61012561018f366004611cdb565b610c89565b6101a76101a2366004611cdb565b610f1f565b6040805194855260208501939093529183015260608201526080016100e3565b6101a76101d5366004611d43565b610f4d565b6101256101e8366004611cdb565b610f9b565b6100cc6101fb366004611cdb565b611231565b6100cc61020e366004611cdb565b6114da565b610125610221366004611cdb565b611810565b610239610234366004611d43565b611aa6565b6040516100e39190611d5e565b6000818152600a6020908152604080832081516101208101835281548082526001830154948201949094526002820154928101929092526003810154606083015260048101546080830152600581015460a0830152600681015460c0830152600781015460e08301526008015460ff1615156101008201526009805484938493929091849190839081106102dc576102dc611df8565b6000918252602090912060408051610220810190915260189092020180546001600160a01b038082166101208501908152600160a01b830460ff16610140860152600160a81b90920461ffff1661016085015260018301541661018084015260028201805484929184916101a08501919061035690611e0e565b80601f016020809104026020016040519081016040528092919081815260200182805461038290611e0e565b80156103cf5780601f106103a4576101008083540402835291602001916103cf565b820191906000526020600020905b8154815290600101906020018083116103b257829003601f168201915b505050918352505060038201546020808301919091526004830154604080840191909152600590930154606092830152928452815180830183526006860154815260078601548185015284840152815180830183526008860154815260098601548185015284830152815160808082018452600a8701548252600b87015482860152600c87015482850152600d87015460ff161515828401528583019190915282518082018452600e870180548252600f880154828701526010880154828601526011880180548651818902810189019097528087529390970196919590949386019392908301828280156104e357602002820191906000526020600020905b8154815260200190600101908083116104cf575b505050919092525050508152604080516060808201835260128501546001600160a01b0316825260138501546020808401919091526014860154838501528085019290925260158501548385015260168501548185015260179094015460ff16151560809384015260e085015160a0890151918901519489015193890151925163ad6fa23360e01b81526004810191909152602481019190915260448101939093526064830191909152608482015290915073__$295e309c8a6ffd54f96e1a7c7b04118a38$__9063ad6fa2339060a401606060405180830381865af41580156105d1573d6000803e3d6000fd5b505050506040513d601f19601f820116820180604052508101906105f59190611e48565b9199909850909650945050505050565b6000818152600a6020908152604080832081516101208101835281548082526001830154948201949094526002820154928101929092526003810154606083015260048101546080830152600581015460a0830152600681015460c0830152600781015460e08301526008015460ff1615156101008201526009805484938493849384939192918491908390811061069f5761069f611df8565b6000918252602090912060408051610220810190915260189092020180546001600160a01b038082166101208501908152600160a01b830460ff16610140860152600160a81b90920461ffff1661016085015260018301541661018084015260028201805484929184916101a08501919061071990611e0e565b80601f016020809104026020016040519081016040528092919081815260200182805461074590611e0e565b80156107925780601f1061076757610100808354040283529160200191610792565b820191906000526020600020905b81548152906001019060200180831161077557829003601f168201915b505050918352505060038201546020808301919091526004830154604080840191909152600590930154606092830152928452815180830183526006860154815260078601548185015284840152815180830183526008860154815260098601548185015284830152815160808082018452600a8701548252600b87015482860152600c87015482850152600d87015460ff161515828401528583019190915282518082018452600e870180548252600f880154828701526010880154828601526011880180548651818902810189019097528087529390970196919590949386019392908301828280156108a657602002820191906000526020600020905b815481526020019060010190808311610892575b505050919092525050508152604080516060808201835260128501546001600160a01b0316825260138501546020808401919091526014860154838501528085019290925260158501548385015260168501548185015260179094015460ff1615156080938401528701519287015160e085015160a089015193890151925163ad6fa23360e01b81526004810191909152602481019390935260448301849052606483018190526084830191909152919a5090985090915073__$295e309c8a6ffd54f96e1a7c7b04118a38$__9063ad6fa2339060a401606060405180830381865af415801561099a573d6000803e3d6000fd5b505050506040513d601f19601f820116820180604052508101906109be9190611e48565b50608085015160c090950151999b989a5098939793965092945050505050565b600080600060090183815481106109f7576109f7611df8565b6000918252602090912060408051610220810190915260189092020180546001600160a01b038082166101208501908152600160a01b830460ff16610140860152600160a81b90920461ffff1661016085015260018301541661018084015260028201805484929184916101a085019190610a7190611e0e565b80601f0160208091040260200160405190810160405280929190818152602001828054610a9d90611e0e565b8015610aea5780601f10610abf57610100808354040283529160200191610aea565b820191906000526020600020905b815481529060010190602001808311610acd57829003601f168201915b505050918352505060038201546020808301919091526004830154604080840191909152600590930154606092830152928452815180830183526006860154815260078601548185015284840152815180830183526008860154815260098601548185015284830152815160808082018452600a8701548252600b87015482860152600c87015482850152600d87015460ff161515828401528583019190915282518082018452600e870180548252600f88015482870152601088015482860152601188018054865181890281018901909752808752939097019691959094938601939290830182828015610bfe57602002820191906000526020600020905b815481526020019060010190808311610bea575b505050919092525050508152604080516060808201835260128501546001600160a01b0316825260138501546020838101919091526014860154838501528085019290925260158501549284019290925260168401549183019190915260179092015460ff16151560809091015281810151908101519051919250610c8291611e8c565b9392505050565b60008060006009018381548110610ca257610ca2611df8565b6000918252602090912060408051610220810190915260189092020180546001600160a01b038082166101208501908152600160a01b830460ff16610140860152600160a81b90920461ffff1661016085015260018301541661018084015260028201805484929184916101a085019190610d1c90611e0e565b80601f0160208091040260200160405190810160405280929190818152602001828054610d4890611e0e565b8015610d955780601f10610d6a57610100808354040283529160200191610d95565b820191906000526020600020905b815481529060010190602001808311610d7857829003601f168201915b505050918352505060038201546020808301919091526004830154604080840191909152600590930154606092830152928452815180830183526006860154815260078601548185015284840152815180830183526008860154815260098601548185015284830152815160808082018452600a8701548252600b87015482860152600c87015482850152600d87015460ff161515828401528583019190915282518082018452600e870180548252600f88015482870152601088015482860152601188018054865181890281018901909752808752939097019691959094938601939290830182828015610ea957602002820191906000526020600020905b815481526020019060010190808311610e95575b505050919092525050508152604080516060808201835260128501546001600160a01b03168252601385015460208381019190915260148601548385015284019190915260158401549183019190915260168301549082015260179091015460ff1615156080909101525160a001519392505050565b600080600080610f2e85611810565b9150610f3985610f9b565b9250610f4485610c89565b90509193509193565b6001600160a01b0381166000908152600c6020908152604080832054600e835281842054600d9093529083205490919081610f888483611e8c565b610f929190611e8c565b93509193509193565b60008060006009018381548110610fb457610fb4611df8565b6000918252602090912060408051610220810190915260189092020180546001600160a01b038082166101208501908152600160a01b830460ff16610140860152600160a81b90920461ffff1661016085015260018301541661018084015260028201805484929184916101a08501919061102e90611e0e565b80601f016020809104026020016040519081016040528092919081815260200182805461105a90611e0e565b80156110a75780601f1061107c576101008083540402835291602001916110a7565b820191906000526020600020905b81548152906001019060200180831161108a57829003601f168201915b505050918352505060038201546020808301919091526004830154604080840191909152600590930154606092830152928452815180830183526006860154815260078601548185015284840152815180830183526008860154815260098601548185015284830152815160808082018452600a8701548252600b87015482860152600c87015482850152600d87015460ff161515828401528583019190915282518082018452600e870180548252600f880154828701526010880154828601526011880180548651818902810189019097528087529390970196919590949386019392908301828280156111bb57602002820191906000526020600020905b8154815260200190600101908083116111a7575b505050919092525050508152604080516060808201835260128501546001600160a01b03168252601385015460208381019190915260148601548385015284019190915260158401548284015260168401549083015260179092015460ff1615156080909101529051015161ffff169392505050565b6000806000806000600901858154811061124d5761124d611df8565b6000918252602090912060408051610220810190915260189092020180546001600160a01b038082166101208501908152600160a01b830460ff16610140860152600160a81b90920461ffff1661016085015260018301541661018084015260028201805484929184916101a0850191906112c790611e0e565b80601f01602080910402602001604051908101604052809291908181526020018280546112f390611e0e565b80156113405780601f1061131557610100808354040283529160200191611340565b820191906000526020600020905b81548152906001019060200180831161132357829003601f168201915b505050918352505060038201546020808301919091526004830154604080840191909152600590930154606092830152928452815180830183526006860154815260078601548185015284840152815180830183526008860154815260098601548185015284830152815160808082018452600a8701548252600b87015482860152600c87015482850152600d87015460ff161515828401528583019190915282518082018452600e870180548252600f8801548287015260108801548286015260118801805486518189028101890190975280875293909701969195909493860193929083018282801561145457602002820191906000526020600020905b815481526020019060010190808311611440575b505050919092525050508152604080516060808201835260128501546001600160a01b0316825260138501546020838101919091526014860154838501528085019290925260158501548385015260168501548185015260179094015460ff16151560809093019290925292909101518051918101519201519097919650945092505050565b600080600080600060090185815481106114f6576114f6611df8565b6000918252602090912060408051610220810190915260189092020180546001600160a01b038082166101208501908152600160a01b830460ff16610140860152600160a81b90920461ffff1661016085015260018301541661018084015260028201805484929184916101a08501919061157090611e0e565b80601f016020809104026020016040519081016040528092919081815260200182805461159c90611e0e565b80156115e95780601f106115be576101008083540402835291602001916115e9565b820191906000526020600020905b8154815290600101906020018083116115cc57829003601f168201915b505050918352505060038201546020808301919091526004830154604080840191909152600590930154606092830152928452815180830183526006860154815260078601548185015284840152815180830183526008860154815260098601548185015284830152815160808082018452600a8701548252600b87015482860152600c87015482850152600d87015460ff161515828401528583019190915282518082018452600e870180548252600f880154828701526010880154828601526011880180548651818902810189019097528087529390970196919590949386019392908301828280156116fd57602002820191906000526020600020905b8154815260200190600101908083116116e9575b505050919092525050508152604080516060808201835260128501546001600160a01b03168252601385015460208381019190915260148601548385015284019190915260158401548284015260168401549083015260179092015460ff161515608090910152815160a08101519082015191516341b778fd60e11b815292935073__$295e309c8a6ffd54f96e1a7c7b04118a38$__9263836ef1fa926117b4929160040191825261ffff16602082015260400190565b602060405180830381865af41580156117d1573d6000803e3d6000fd5b505050506040513d601f19601f820116820180604052508101906117f59190611ea5565b60409091015180516020909101519196909550909350915050565b6000806000600901838154811061182957611829611df8565b6000918252602090912060408051610220810190915260189092020180546001600160a01b038082166101208501908152600160a01b830460ff16610140860152600160a81b90920461ffff1661016085015260018301541661018084015260028201805484929184916101a0850191906118a390611e0e565b80601f01602080910402602001604051908101604052809291908181526020018280546118cf90611e0e565b801561191c5780601f106118f15761010080835404028352916020019161191c565b820191906000526020600020905b8154815290600101906020018083116118ff57829003601f168201915b505050918352505060038201546020808301919091526004830154604080840191909152600590930154606092830152928452815180830183526006860154815260078601548185015284840152815180830183526008860154815260098601548185015284830152815160808082018452600a8701548252600b87015482860152600c87015482850152600d87015460ff161515828401528583019190915282518082018452600e870180548252600f88015482870152601088015482860152601188018054865181890281018901909752808752939097019691959094938601939290830182828015611a3057602002820191906000526020600020905b815481526020019060010190808311611a1c575b505050919092525050508152604080516060808201835260128501546001600160a01b03168252601385015460208381019190915260148601548385015284019190915260158401549183019190915260168301549082015260179091015460ff1615156080909101525160c001519392505050565b6001600160a01b03811660009081527f07cfe06905cfedb580eece28a10ae6a81afa7f795e57d58eb5cecaff527e70c66020908152604080832080548251818502810185019093528083526060947f07cfe06905cfedb580eece28a10ae6a81afa7f795e57d58eb5cecaff527e70c1949093929190830182828015611b4a57602002820191906000526020600020905b815481526020019060010190808311611b36575b50508351939450839250505067ffffffffffffffff811115611b6e57611b6e611ebe565b604051908082528060200260200182016040528015611bf057816020015b611bdd60405180610120016040528060008152602001600081526020016000815260200160008152602001600081526020016000815260200160008152602001600081526020016000151581525090565b815260200190600190039081611b8c5790505b50935060005b81811015611cd2576000600a016000848381518110611c1757611c17611df8565b602002602001015181526020019081526020016000206040518061012001604052908160008201548152602001600182015481526020016002820154815260200160038201548152602001600482015481526020016005820154815260200160068201548152602001600782015481526020016008820160009054906101000a900460ff161515151581525050858281518110611cb657611cb6611df8565b602002602001018190525080611ccb90611ed4565b9050611bf6565b50505050919050565b600060208284031215611ced57600080fd5b5035919050565b80356001600160a01b0381168114611d0b57600080fd5b919050565b60008060408385031215611d2357600080fd5b611d2c83611cf4565b9150611d3a60208401611cf4565b90509250929050565b600060208284031215611d5557600080fd5b610c8282611cf4565b602080825282518282018190526000919060409081850190868401855b82811015611deb5781518051855286810151878601528581015186860152606080820151908601526080808201519086015260a0808201519086015260c0808201519086015260e08082015190860152610100908101511515908501526101209093019290850190600101611d7b565b5091979650505050505050565b634e487b7160e01b600052603260045260246000fd5b600181811c90821680611e2257607f821691505b602082108103611e4257634e487b7160e01b600052602260045260246000fd5b50919050565b600080600060608486031215611e5d57600080fd5b8351925060208401519150604084015190509250925092565b634e487b7160e01b600052601160045260246000fd5b80820180821115611e9f57611e9f611e76565b92915050565b600060208284031215611eb757600080fd5b5051919050565b634e487b7160e01b600052604160045260246000fd5b600060018201611ee657611ee6611e76565b506001019056fea2646970667358221220a259c1f7110ed5b94174f55613f91b77d5686ac977d56e0f3e3fad5f4e383fa564736f6c63430008130033",
    "linkReferences": {
      "src/lib/LibSaloon.sol": {
        "LibSaloon": [
          {
            "start": 1463,
            "length": 20
          },
          {
            "start": 2432,
            "length": 20
          },
          {
            "start": 6048,
            "length": 20
          }
        ]
      }
    }
  },
  "methodIdentifiers": {
    "getAllTokensByOwner(address)": "e9fda7d4",
    "viewBountyInfo(uint256)": "40ef2868",
    "viewMinProjectDeposit(uint256)": "1c6b323f",
    "viewPendingPremium(uint256)": "01690ef7",
    "viewPoolAPY(uint256)": "a27f9213",
    "viewPoolCap(uint256)": "39679ff4",
    "viewPoolPremiumInfo(uint256)": "b1a2d16f",
    "viewPoolTimelockInfo(uint256)": "ac30b856",
    "viewReferralBalance(address,address)": "0ed7610c",
    "viewSaloonProfitBalance(address)": "718c7eef",
    "viewTokenInfo(uint256)": "10725852",
    "viewTotalStaked(uint256)": "dbdd6957"
  },
  "id": 67
}