{
  "abi": [
    {
      "anonymous": false,
      "inputs": [
        {
          "indexed": true,
          "internalType": "uint256",
          "name": "pid",
          "type": "uint256"
        },
        {
          "indexed": false,
          "internalType": "uint256",
          "name": "oldAmount",
          "type": "uint256"
        },
        {
          "indexed": false,
          "internalType": "uint256",
          "name": "newAmount",
          "type": "uint256"
        }
      ],
      "name": "BountyBalanceChanged",
      "type": "event"
    },
    {
      "anonymous": false,
      "inputs": [
        {
          "indexed": true,
          "internalType": "address",
          "name": "hunter",
          "type": "address"
        },
        {
          "indexed": true,
          "internalType": "address",
          "name": "token",
          "type": "address"
        },
        {
          "indexed": false,
          "internalType": "uint256",
          "name": "amount",
          "type": "uint256"
        }
      ],
      "name": "BountyPaid",
      "type": "event"
    },
    {
      "anonymous": false,
      "inputs": [
        {
          "indexed": false,
          "internalType": "uint8",
          "name": "version",
          "type": "uint8"
        }
      ],
      "name": "Initialized",
      "type": "event"
    },
    {
      "anonymous": false,
      "inputs": [
        {
          "indexed": true,
          "internalType": "uint256",
          "name": "pid",
          "type": "uint256"
        },
        {
          "indexed": true,
          "internalType": "address",
          "name": "token",
          "type": "address"
        },
        {
          "indexed": false,
          "internalType": "uint256",
          "name": "tokenDecimals",
          "type": "uint256"
        }
      ],
      "name": "NewBountyDeployed",
      "type": "event"
    },
    {
      "anonymous": false,
      "inputs": [
        {
          "indexed": true,
          "internalType": "address",
          "name": "previousOwner",
          "type": "address"
        },
        {
          "indexed": true,
          "internalType": "address",
          "name": "newOwner",
          "type": "address"
        }
      ],
      "name": "OwnershipTransferred",
      "type": "event"
    },
    {
      "anonymous": false,
      "inputs": [
        {
          "indexed": true,
          "internalType": "uint256",
          "name": "pid",
          "type": "uint256"
        },
        {
          "indexed": false,
          "internalType": "uint256",
          "name": "amount",
          "type": "uint256"
        }
      ],
      "name": "PremiumBilled",
      "type": "event"
    },
    {
      "anonymous": false,
      "inputs": [
        {
          "indexed": true,
          "internalType": "address",
          "name": "user",
          "type": "address"
        },
        {
          "indexed": true,
          "internalType": "uint256",
          "name": "pid",
          "type": "uint256"
        },
        {
          "indexed": false,
          "internalType": "uint256",
          "name": "amount",
          "type": "uint256"
        }
      ],
      "name": "Staked",
      "type": "event"
    },
    {
      "anonymous": false,
      "inputs": [
        {
          "indexed": true,
          "internalType": "address",
          "name": "user",
          "type": "address"
        },
        {
          "indexed": true,
          "internalType": "uint256",
          "name": "pid",
          "type": "uint256"
        },
        {
          "indexed": false,
          "internalType": "uint256",
          "name": "amount",
          "type": "uint256"
        }
      ],
      "name": "Unstaked",
      "type": "event"
    },
    {
      "anonymous": false,
      "inputs": [
        {
          "indexed": true,
          "internalType": "uint256",
          "name": "pid",
          "type": "uint256"
        },
        {
          "indexed": false,
          "internalType": "uint256",
          "name": "amount",
          "type": "uint256"
        }
      ],
      "name": "WithdrawalOrUnstakeScheduled",
      "type": "event"
    },
    {
      "anonymous": false,
      "inputs": [
        {
          "indexed": true,
          "internalType": "address",
          "name": "referrer",
          "type": "address"
        },
        {
          "indexed": false,
          "internalType": "uint256",
          "name": "amount",
          "type": "uint256"
        }
      ],
      "name": "referralPaid",
      "type": "event"
    },
    {
      "anonymous": false,
      "inputs": [
        {
          "indexed": true,
          "internalType": "address",
          "name": "token",
          "type": "address"
        },
        {
          "indexed": true,
          "internalType": "bool",
          "name": "whitelisted",
          "type": "bool"
        }
      ],
      "name": "tokenWhitelistUpdated",
      "type": "event"
    },
    {
      "inputs": [],
      "name": "acceptOwnershipTransfer",
      "outputs": [],
      "stateMutability": "nonpayable",
      "type": "function"
    },
    {
      "inputs": [
        {
          "internalType": "uint256",
          "name": "",
          "type": "uint256"
        }
      ],
      "name": "activeStrategies",
      "outputs": [
        {
          "internalType": "bytes32",
          "name": "",
          "type": "bytes32"
        }
      ],
      "stateMutability": "view",
      "type": "function"
    },
    {
      "inputs": [
        {
          "internalType": "uint256",
          "name": "",
          "type": "uint256"
        }
      ],
      "name": "activeTokens",
      "outputs": [
        {
          "internalType": "address",
          "name": "",
          "type": "address"
        }
      ],
      "stateMutability": "view",
      "type": "function"
    },
    {
      "inputs": [
        {
          "internalType": "uint256",
          "name": "_poolCap",
          "type": "uint256"
        },
        {
          "internalType": "uint256",
          "name": "_apy",
          "type": "uint256"
        }
      ],
      "name": "calcRequiredPremiumBalancePerPeriod",
      "outputs": [
        {
          "internalType": "uint256",
          "name": "requiredPremiumBalance",
          "type": "uint256"
        }
      ],
      "stateMutability": "pure",
      "type": "function"
    },
    {
      "inputs": [
        {
          "internalType": "uint256",
          "name": "_pid",
          "type": "uint256"
        }
      ],
      "name": "compoundYieldForPid",
      "outputs": [],
      "stateMutability": "nonpayable",
      "type": "function"
    },
    {
      "inputs": [
        {
          "internalType": "uint256",
          "name": "_pid",
          "type": "uint256"
        },
        {
          "internalType": "uint256",
          "name": "_deposit",
          "type": "uint256"
        },
        {
          "internalType": "string",
          "name": "_strategyName",
          "type": "string"
        }
      ],
      "name": "makeProjectDeposit",
      "outputs": [],
      "stateMutability": "nonpayable",
      "type": "function"
    },
    {
      "inputs": [
        {
          "internalType": "address",
          "name": "",
          "type": "address"
        }
      ],
      "name": "minTokenStakeAmount",
      "outputs": [
        {
          "internalType": "uint256",
          "name": "",
          "type": "uint256"
        }
      ],
      "stateMutability": "view",
      "type": "function"
    },
    {
      "inputs": [
        {
          "internalType": "uint256",
          "name": "",
          "type": "uint256"
        }
      ],
      "name": "nftInfo",
      "outputs": [
        {
          "internalType": "uint256",
          "name": "pid",
          "type": "uint256"
        },
        {
          "internalType": "uint256",
          "name": "amount",
          "type": "uint256"
        },
        {
          "internalType": "uint256",
          "name": "xDelta",
          "type": "uint256"
        },
        {
          "internalType": "uint256",
          "name": "apy",
          "type": "uint256"
        },
        {
          "internalType": "uint256",
          "name": "unclaimed",
          "type": "uint256"
        },
        {
          "internalType": "uint256",
          "name": "lastClaimedTime",
          "type": "uint256"
        },
        {
          "internalType": "uint256",
          "name": "timelock",
          "type": "uint256"
        },
        {
          "internalType": "uint256",
          "name": "timelimit",
          "type": "uint256"
        },
        {
          "internalType": "bool",
          "name": "hasUnstaked",
          "type": "bool"
        }
      ],
      "stateMutability": "view",
      "type": "function"
    },
    {
      "inputs": [],
      "name": "owner",
      "outputs": [
        {
          "internalType": "address",
          "name": "",
          "type": "address"
        }
      ],
      "stateMutability": "view",
      "type": "function"
    },
    {
      "inputs": [
        {
          "internalType": "uint256",
          "name": "",
          "type": "uint256"
        },
        {
          "internalType": "uint256",
          "name": "",
          "type": "uint256"
        }
      ],
      "name": "pidNFTList",
      "outputs": [
        {
          "internalType": "uint256",
          "name": "",
          "type": "uint256"
        }
      ],
      "stateMutability": "view",
      "type": "function"
    },
    {
      "inputs": [
        {
          "internalType": "uint256",
          "name": "",
          "type": "uint256"
        },
        {
          "internalType": "bytes32",
          "name": "",
          "type": "bytes32"
        }
      ],
      "name": "pidStrategies",
      "outputs": [
        {
          "internalType": "address",
          "name": "",
          "type": "address"
        }
      ],
      "stateMutability": "view",
      "type": "function"
    },
    {
      "inputs": [
        {
          "internalType": "uint256",
          "name": "",
          "type": "uint256"
        }
      ],
      "name": "poolInfo",
      "outputs": [
        {
          "components": [
            {
              "internalType": "contract IERC20",
              "name": "token",
              "type": "address"
            },
            {
              "internalType": "uint8",
              "name": "tokenDecimals",
              "type": "uint8"
            },
            {
              "internalType": "uint16",
              "name": "apy",
              "type": "uint16"
            },
            {
              "internalType": "address",
              "name": "projectWallet",
              "type": "address"
            },
            {
              "internalType": "string",
              "name": "projectName",
              "type": "string"
            },
            {
              "internalType": "uint256",
              "name": "poolCap",
              "type": "uint256"
            },
            {
              "internalType": "uint256",
              "name": "totalStaked",
              "type": "uint256"
            },
            {
              "internalType": "uint256",
              "name": "scalingMultiplier",
              "type": "uint256"
            }
          ],
          "internalType": "struct ISaloon.GeneralInfo",
          "name": "generalInfo",
          "type": "tuple"
        },
        {
          "components": [
            {
              "internalType": "uint256",
              "name": "projectDepositHeld",
              "type": "uint256"
            },
            {
              "internalType": "uint256",
              "name": "projectDepositInStrategy",
              "type": "uint256"
            }
          ],
          "internalType": "struct ISaloon.DepositInfo",
          "name": "depositInfo",
          "type": "tuple"
        },
        {
          "components": [
            {
              "internalType": "uint256",
              "name": "premiumBalance",
              "type": "uint256"
            },
            {
              "internalType": "uint256",
              "name": "premiumAvailable",
              "type": "uint256"
            }
          ],
          "internalType": "struct ISaloon.PremiumInfo",
          "name": "premiumInfo",
          "type": "tuple"
        },
        {
          "components": [
            {
              "internalType": "uint256",
              "name": "timelock",
              "type": "uint256"
            },
            {
              "internalType": "uint256",
              "name": "timeLimit",
              "type": "uint256"
            },
            {
              "internalType": "uint256",
              "name": "withdrawalScheduledAmount",
              "type": "uint256"
            },
            {
              "internalType": "bool",
              "name": "withdrawalExecuted",
              "type": "bool"
            }
          ],
          "internalType": "struct ISaloon.TimelockInfo",
          "name": "poolTimelock",
          "type": "tuple"
        },
        {
          "components": [
            {
              "internalType": "uint256",
              "name": "currentX",
              "type": "uint256"
            },
            {
              "internalType": "uint256",
              "name": "currentY",
              "type": "uint256"
            },
            {
              "internalType": "uint256",
              "name": "totalSupply",
              "type": "uint256"
            },
            {
              "internalType": "uint256[]",
              "name": "unstakedTokens",
              "type": "uint256[]"
            }
          ],
          "internalType": "struct ISaloon.CurveInfo",
          "name": "curveInfo",
          "type": "tuple"
        },
        {
          "components": [
            {
              "internalType": "address",
              "name": "referrer",
              "type": "address"
            },
            {
              "internalType": "uint256",
              "name": "referralFee",
              "type": "uint256"
            },
            {
              "internalType": "uint256",
              "name": "endTime",
              "type": "uint256"
            }
          ],
          "internalType": "struct ISaloon.ReferralInfo",
          "name": "referralInfo",
          "type": "tuple"
        },
        {
          "internalType": "uint256",
          "name": "assessmentPeriodEnd",
          "type": "uint256"
        },
        {
          "internalType": "uint256",
          "name": "freezeTime",
          "type": "uint256"
        },
        {
          "internalType": "bool",
          "name": "isActive",
          "type": "bool"
        }
      ],
      "stateMutability": "view",
      "type": "function"
    },
    {
      "inputs": [
        {
          "internalType": "uint256",
          "name": "_pid",
          "type": "uint256"
        },
        {
          "internalType": "uint256",
          "name": "_amount",
          "type": "uint256"
        }
      ],
      "name": "projectDepositWithdrawal",
      "outputs": [
        {
          "internalType": "bool",
          "name": "",
          "type": "bool"
        }
      ],
      "stateMutability": "nonpayable",
      "type": "function"
    },
    {
      "inputs": [
        {
          "internalType": "address",
          "name": "_token",
          "type": "address"
        },
        {
          "internalType": "uint256",
          "name": "_amount",
          "type": "uint256"
        }
      ],
      "name": "receiveStrategyYield",
      "outputs": [],
      "stateMutability": "nonpayable",
      "type": "function"
    },
    {
      "inputs": [
        {
          "internalType": "address",
          "name": "",
          "type": "address"
        },
        {
          "internalType": "address",
          "name": "",
          "type": "address"
        }
      ],
      "name": "referralBalances",
      "outputs": [
        {
          "internalType": "uint256",
          "name": "",
          "type": "uint256"
        }
      ],
      "stateMutability": "view",
      "type": "function"
    },
    {
      "inputs": [],
      "name": "saloonBounty",
      "outputs": [
        {
          "internalType": "contract ISaloonBounty",
          "name": "",
          "type": "address"
        }
      ],
      "stateMutability": "view",
      "type": "function"
    },
    {
      "inputs": [
        {
          "internalType": "address",
          "name": "",
          "type": "address"
        }
      ],
      "name": "saloonBountyProfit",
      "outputs": [
        {
          "internalType": "uint256",
          "name": "",
          "type": "uint256"
        }
      ],
      "stateMutability": "view",
      "type": "function"
    },
    {
      "inputs": [],
      "name": "saloonManager",
      "outputs": [
        {
          "internalType": "contract ISaloonManager",
          "name": "",
          "type": "address"
        }
      ],
      "stateMutability": "view",
      "type": "function"
    },
    {
      "inputs": [
        {
          "internalType": "address",
          "name": "",
          "type": "address"
        }
      ],
      "name": "saloonPremiumProfit",
      "outputs": [
        {
          "internalType": "uint256",
          "name": "",
          "type": "uint256"
        }
      ],
      "stateMutability": "view",
      "type": "function"
    },
    {
      "inputs": [],
      "name": "saloonProjectPortal",
      "outputs": [
        {
          "internalType": "contract ISaloonProjectPortal",
          "name": "",
          "type": "address"
        }
      ],
      "stateMutability": "view",
      "type": "function"
    },
    {
      "inputs": [
        {
          "internalType": "address",
          "name": "",
          "type": "address"
        }
      ],
      "name": "saloonStrategyProfit",
      "outputs": [
        {
          "internalType": "uint256",
          "name": "",
          "type": "uint256"
        }
      ],
      "stateMutability": "view",
      "type": "function"
    },
    {
      "inputs": [],
      "name": "saloonView",
      "outputs": [
        {
          "internalType": "contract ISaloonView",
          "name": "",
          "type": "address"
        }
      ],
      "stateMutability": "view",
      "type": "function"
    },
    {
      "inputs": [
        {
          "internalType": "uint256",
          "name": "_pid",
          "type": "uint256"
        },
        {
          "internalType": "uint256",
          "name": "_amount",
          "type": "uint256"
        }
      ],
      "name": "scheduleProjectDepositWithdrawal",
      "outputs": [
        {
          "internalType": "bool",
          "name": "",
          "type": "bool"
        }
      ],
      "stateMutability": "nonpayable",
      "type": "function"
    },
    {
      "inputs": [
        {
          "internalType": "uint256",
          "name": "_pid",
          "type": "uint256"
        },
        {
          "internalType": "uint256",
          "name": "_poolCap",
          "type": "uint256"
        },
        {
          "internalType": "uint16",
          "name": "_apy",
          "type": "uint16"
        },
        {
          "internalType": "uint256",
          "name": "_deposit",
          "type": "uint256"
        },
        {
          "internalType": "string",
          "name": "_strategyName",
          "type": "string"
        }
      ],
      "name": "setAPYandPoolCapAndDeposit",
      "outputs": [],
      "stateMutability": "nonpayable",
      "type": "function"
    },
    {
      "inputs": [
        {
          "internalType": "address",
          "name": "",
          "type": "address"
        }
      ],
      "name": "strategyAddressToPid",
      "outputs": [
        {
          "internalType": "uint256",
          "name": "",
          "type": "uint256"
        }
      ],
      "stateMutability": "view",
      "type": "function"
    },
    {
      "inputs": [],
      "name": "strategyFactory",
      "outputs": [
        {
          "internalType": "contract IStrategyFactory",
          "name": "",
          "type": "address"
        }
      ],
      "stateMutability": "view",
      "type": "function"
    },
    {
      "inputs": [
        {
          "internalType": "address",
          "name": "",
          "type": "address"
        }
      ],
      "name": "tokenWhitelist",
      "outputs": [
        {
          "internalType": "bool",
          "name": "",
          "type": "bool"
        }
      ],
      "stateMutability": "view",
      "type": "function"
    },
    {
      "inputs": [
        {
          "internalType": "address",
          "name": "newOwner",
          "type": "address"
        }
      ],
      "name": "transferOwnership",
      "outputs": [],
      "stateMutability": "nonpayable",
      "type": "function"
    },
    {
      "inputs": [
        {
          "internalType": "uint256",
          "name": "_pid",
          "type": "uint256"
        },
        {
          "internalType": "address",
          "name": "_projectWallet",
          "type": "address"
        }
      ],
      "name": "updateProjectWalletAddress",
      "outputs": [],
      "stateMutability": "nonpayable",
      "type": "function"
    },
    {
      "inputs": [
        {
          "internalType": "uint256",
          "name": "_pid",
          "type": "uint256"
        }
      ],
      "name": "viewBountyBalance",
      "outputs": [
        {
          "internalType": "uint256",
          "name": "",
          "type": "uint256"
        }
      ],
      "stateMutability": "view",
      "type": "function"
    },
    {
      "inputs": [
        {
          "internalType": "uint256",
          "name": "_pid",
          "type": "uint256"
        }
      ],
      "name": "windDownBounty",
      "outputs": [
        {
          "internalType": "bool",
          "name": "",
          "type": "bool"
        }
      ],
      "stateMutability": "nonpayable",
      "type": "function"
    },
    {
      "inputs": [
        {
          "internalType": "uint256",
          "name": "_pid",
          "type": "uint256"
        }
      ],
      "name": "withdrawProjectYield",
      "outputs": [
        {
          "internalType": "uint256",
          "name": "returnedAmount",
          "type": "uint256"
        }
      ],
      "stateMutability": "nonpayable",
      "type": "function"
    }
  ],
  "bytecode": {
    "object": "0x608060405234801561001057600080fd5b50613337806100206000396000f3fe608060405234801561001057600080fd5b50600436106101f05760003560e01c80638da5cb5b1161010f578063b20b2429116100a2578063db53e8b511610071578063db53e8b514610568578063e45abd0f1461057b578063e78ea3df1461059b578063f2fde38b146105ae57600080fd5b8063b20b24291461050d578063b842e87f1461052d578063bb7019c114610535578063ca0061481461054857600080fd5b8063995974c4116100de578063995974c4146104c15780639ef35710146104d45780639f224f35146104e7578063ae07f948146104fa57600080fd5b80638da5cb5b1461046a578063957deecc1461047b57806396ea48e81461049b578063983c1ce0146104ae57600080fd5b806330ca0794116101875780636ac6d812116101565780636ac6d8121461040e578063753d7563146104215780637992389814610444578063836ef1fa1461045757600080fd5b806330ca07941461039857806339458723146103ab5780635669cbef146103cb578063598d17bf146103ee57600080fd5b80631aebcecb116101c35780631aebcecb146102ba5780631f8bc790146102cf578063220e112414610372578063277fd2a11461038557600080fd5b8063011b408b146101f5578063074ecf03146102335780630a07f5431461027f5780631526fe2714610292575b600080fd5b610220610203366004612bf0565b600a60209081526000928352604080842090915290825290205481565b6040519081526020015b60405180910390f35b610267610241366004612c29565b600c6020908152600092835260408084209091529082529020546001600160a01b031681565b6040516001600160a01b03909116815260200161022a565b600354610267906001600160a01b031681565b6102a56102a0366004612c4b565b6105c1565b60405161022a99989796959493929190612d1f565b6102cd6102c8366004612e62565b610822565b005b61032c6102dd366004612c4b565b6005602081905260009182526040909120805460018201546002830154600384015460048501549585015460068601546007870154600890970154959794969395929493919290919060ff1689565b60408051998a5260208a0198909852968801959095526060870193909352608086019190915260a085015260c084015260e083015215156101008201526101200161022a565b600054610267906001600160a01b031681565b600154610267906001600160a01b031681565b6102cd6103a6366004612f31565b6109dc565b6102206103b9366004612fa5565b60116020526000908152604090205481565b6103de6103d9366004612c29565b610d43565b604051901515815260200161022a565b6102206103fc366004612fa5565b60096020526000908152604090205481565b61022061041c366004612c4b565b610e83565b6103de61042f366004612fa5565b600f6020526000908152604090205460ff1681565b600254610267906001600160a01b031681565b610220610465366004612c29565b61113b565b6045546001600160a01b0316610267565b610220610489366004612fa5565b600e6020526000908152604090205481565b6102206104a9366004612c29565b611171565b6103de6104bc366004612c29565b6111a2565b6102cd6104cf366004612fc2565b61136c565b600b54610267906001600160a01b031681565b6102676104f5366004612c4b565b6116cd565b6102cd610508366004612fe7565b6116f7565b61022061051b366004612c4b565b600d6020526000908152604090205481565b6102cd6117ff565b6103de610543366004612c4b565b61187f565b610220610556366004612fa5565b60086020526000908152604090205481565b610220610576366004612c4b565b611bd3565b610220610589366004612fa5565b60076020526000908152604090205481565b6102cd6105a9366004612c4b565b611f5b565b6102cd6105bc366004612fa5565b612318565b600481815481106105d157600080fd5b60009182526020918290206040805161010081018252601890930290910180546001600160a01b03808216855260ff600160a01b8304169585019590955261ffff600160a81b90910416918301919091526001810154909216606082015260028201805492935090918391608084019161064a90613037565b80601f016020809104026020016040519081016040528092919081815260200182805461067690613037565b80156106c35780601f10610698576101008083540402835291602001916106c3565b820191906000526020600020905b8154815290600101906020018083116106a657829003601f168201915b50505091835250506003820154602080830191909152600483015460408084019190915260059093015460609283015282518084018452600686015481526007860154818301528351808501855260088701548152600987015481840152845160808082018752600a8901548252600b89015482860152600c89015482880152600d89015460ff1615158287015286519081018752600e890180548252600f8a01548287015260108a01548289015260118a018054895181890281018901909a52808a52999a95999498939795969295919491860193929091908301828280156107cc57602002820191906000526020600020905b8154815260200190600101908083116107b8575b5050509190925250506040805160608101825260128501546001600160a01b0316815260138501546020820152601485015491810191909152601584015460168501546017909501549394919390925060ff1689565b6108376001600160a01b0383163330846123a7565b50336000908152600e602052604081205490819003610883576001600160a01b03831660009081526009602052604081208054849290610878908490613087565b909155506109d79050565b600080600073__$4defa815a6c8401eda00ac6be9b95d3cdb$__63fc76fff386600487815481106108b6576108b661309a565b906000526020600020906018020160120160020154600488815481106108de576108de61309a565b906000526020600020906018020160120160010154600489815481106109065761090661309a565b600091825260209091206018909102016012015460405160e086901b6001600160e01b03191681526004810194909452602484019290925260448301526001600160a01b03166064820152608401606060405180830381865af4158015610971573d6000803e3d6000fd5b505050506040513d601f19601f8201168201806040525081019061099591906130b0565b9250925092506109a6818784612421565b6001600160a01b038616600090815260096020526040812080548592906109ce908490613087565b90915550505050505b505050565b6109e4612471565b6000600486815481106109f9576109f961309a565b60009182526020909120601890910201601781015490915060ff16158015610a2357506003810154155b610a745760405162461bcd60e51b815260206004820152601860248201527f506f6f6c20616c726561647920696e697469616c697a6564000000000000000060448201526064015b60405180910390fd5b60008461ffff16118015610a8e57506127108461ffff1611155b610acd5760405162461bcd60e51b815260206004820152601060248201526f415059206f7574206f662072616e676560801b6044820152606401610a6b565b8054610ae490600160a01b900460ff16600a6131cd565b610af0906103e86131dc565b8510158015610b2257508054610b1190600160a01b900460ff16600a6131cd565b610b1e90629896806131dc565b8511155b610b665760405162461bcd60e51b8152602060048201526015602482015274506f6f6c20636170206f7574206f662072616e676560581b6044820152606401610a6b565b60018101546001600160a01b03163314610b925760405162461bcd60e51b8152600401610a6b906131f3565b6000610ba2868661ffff1661113b565b90506000612710610bb56103e8846131dc565b610bbf919061321b565b90506000610bcc89610e83565b9050610bf03330610bdd868a613087565b87546001600160a01b03169291906123a7565b5085846006016000016000828254610c089190613087565b909155505060038401889055835461ffff60a81b1916600160a81b61ffff89169081029190911785556040516334d5118560e01b8152600481019190915273__$4defa815a6c8401eda00ac6be9b95d3cdb$__906334d5118590602401602060405180830381865af4158015610c82573d6000803e3d6000fd5b505050506040513d601f19601f82011682018060405250810190610ca6919061323d565b600585015560178401805460ff1916600117905560088401839055610ccb8284613256565b6009850155845115610ce457610ce28986886124ca565b505b6000610cef8a610e83565b60408051848152602081018390529192508b917fa3ea4fb8dee4d414198cb197af6eae4fe483c1a0b849dc50e53b9bf1a60e2166910160405180910390a25050505050610d3c6001607855565b5050505050565b60008060048481548110610d5957610d5961309a565b906000526020600020906018020190508281600601600101548260060160000154610d849190613087565b1015610dd25760405162461bcd60e51b815260206004820152601a60248201527f416d6f756e7420626967676572207468616e206465706f7369740000000000006044820152606401610a6b565b60018101546001600160a01b03163314610dfe5760405162461bcd60e51b8152600401610a6b906131f3565b610e0b62093a8042613087565b600a820155610e1d62093a8042613087565b610e2a906203f480613087565b600b820155600c8101839055600d8101805460ff1916905560405183815284907fb3b9c925de3673837b40c6b4d4463a8f88dc821cd27e07f1ff6bf6abf96413a59060200160405180910390a260019150505b92915050565b60008060048381548110610e9957610e9961309a565b6000918252602090912060408051610220810190915260189092020180546001600160a01b038082166101208501908152600160a01b830460ff16610140860152600160a81b90920461ffff1661016085015260018301541661018084015260028201805484929184916101a085019190610f1390613037565b80601f0160208091040260200160405190810160405280929190818152602001828054610f3f90613037565b8015610f8c5780601f10610f6157610100808354040283529160200191610f8c565b820191906000526020600020905b815481529060010190602001808311610f6f57829003601f168201915b505050918352505060038201546020808301919091526004830154604080840191909152600590930154606092830152928452815180830183526006860154815260078601548185015284840152815180830183526008860154815260098601548185015284830152815160808082018452600a8701548252600b87015482860152600c87015482850152600d87015460ff161515828401528583019190915282518082018452600e870180548252600f880154828701526010880154828601526011880180548651818902810189019097528087529390970196919590949386019392908301828280156110a057602002820191906000526020600020905b81548152602001906001019080831161108c575b505050919092525050508152604080516060808201835260128501546001600160a01b0316825260138501546020838101919091526014860154838501528085019290925260158501549284019290925260168401549183019190915260179092015460ff1615156080909101528181015190810151905191925061112491613087565b815160c001516111349190613087565b9392505050565b60006301e1338061271062093a8061115385876131dc565b61115d91906131dc565b611167919061321b565b611134919061321b565b6006602052816000526040600020818154811061118d57600080fd5b90600052602060002001600091509150505481565b60006111ac612471565b6000600484815481106111c1576111c161309a565b6000918252602090912060189091020160018101549091506001600160a01b031633146112005760405162461bcd60e51b8152600401610a6b906131f3565b600a810154421180156112165750600b81015442105b80156112275750600d81015460ff16155b80156112375750600c8101548311155b80156112465750600a81015415155b6112a45760405162461bcd60e51b815260206004820152602960248201527f54696d656c6f636b206e6f7420736574206f72206e6f7420636f6d706c6574656044820152686420696e2074696d6560b81b6064820152608401610a6b565b600d8101805460ff1916600117905560068101548311156112ca576112c884612605565b505b60006112d585610e83565b9050838260060160000160008282546112ee9190613256565b909155505060018201548254611311916001600160a01b03918216911686612767565b50600061131d86610e83565b604080518481526020810183905291925087917fa3ea4fb8dee4d414198cb197af6eae4fe483c1a0b849dc50e53b9bf1a60e2166910160405180910390a260019350505050610e7d6001607855565b816000600482815481106113825761138261309a565b6000918252602090912060408051610220810190915260189092020180546001600160a01b038082166101208501908152600160a01b830460ff16610140860152600160a81b90920461ffff1661016085015260018301541661018084015260028201805484929184916101a0850191906113fc90613037565b80601f016020809104026020016040519081016040528092919081815260200182805461142890613037565b80156114755780601f1061144a57610100808354040283529160200191611475565b820191906000526020600020905b81548152906001019060200180831161145857829003601f168201915b505050918352505060038201546020808301919091526004830154604080840191909152600590930154606092830152928452815180830183526006860154815260078601548185015284840152815180830183526008860154815260098601548185015284830152815160808082018452600a8701548252600b87015482860152600c87015482850152600d87015460ff161515828401528583019190915282518082018452600e870180548252600f8801548287015260108801548286015260118801805486518189028101890190975280875293909701969195909493860193929083018282801561158957602002820191906000526020600020905b815481526020019060010190808311611575575b505050919092525050508152604080516060808201835260128501546001600160a01b039081168352601386015460208085019190915260148701548486015285019290925260158501549284019290925260168401548284015260179093015460ff161515608090920191909152825101519192501633148061161757506045546001600160a01b031633145b6116335760405162461bcd60e51b8152600401610a6b906131f3565b6001600160a01b0383166116825760405162461bcd60e51b8152602060048201526016602482015275496e76616c69642077616c6c6574206164647265737360501b6044820152606401610a6b565b82600485815481106116965761169661309a565b6000918252602090912060189091020160010180546001600160a01b0319166001600160a01b039290921691909117905550505050565b601081815481106116dd57600080fd5b6000918252602090912001546001600160a01b0316905081565b6116ff612471565b6000600484815481106117145761171461309a565b6000918252602090912060189091020160018101549091506001600160a01b031633146117535760405162461bcd60e51b8152600401610a6b906131f3565b600061175e85610e83565b8254909150611778906001600160a01b03163330876123a7565b50838260060160000160008282546117909190613087565b90915550508251156117a9576117a78584866124ca565b505b60006117b486610e83565b604080518481526020810183905291925087917fa3ea4fb8dee4d414198cb197af6eae4fe483c1a0b849dc50e53b9bf1a60e2166910160405180910390a25050506109d76001607855565b6046546001600160a01b031633146118685760405162461bcd60e51b815260206004820152602660248201527f6f6e6c792070656e64696e67206f776e65722063616e2061636365707420747260448201526530b739b332b960d11b6064820152608401610a6b565b60465461187d906001600160a01b03166127a4565b565b6000816000600482815481106118975761189761309a565b6000918252602090912060408051610220810190915260189092020180546001600160a01b038082166101208501908152600160a01b830460ff16610140860152600160a81b90920461ffff1661016085015260018301541661018084015260028201805484929184916101a08501919061191190613037565b80601f016020809104026020016040519081016040528092919081815260200182805461193d90613037565b801561198a5780601f1061195f5761010080835404028352916020019161198a565b820191906000526020600020905b81548152906001019060200180831161196d57829003601f168201915b505050918352505060038201546020808301919091526004830154604080840191909152600590930154606092830152928452815180830183526006860154815260078601548185015284840152815180830183526008860154815260098601548185015284830152815160808082018452600a8701548252600b87015482860152600c87015482850152600d87015460ff161515828401528583019190915282518082018452600e870180548252600f88015482870152601088015482860152601188018054865181890281018901909752808752939097019691959094938601939290830182828015611a9e57602002820191906000526020600020905b815481526020019060010190808311611a8a575b505050919092525050508152604080516060808201835260128501546001600160a01b039081168352601386015460208085019190915260148701548486015285019290925260158501549284019290925260168401548284015260179093015460ff1615156080909201919091528251015191925016331480611b2c57506045546001600160a01b031633145b611b485760405162461bcd60e51b8152600401610a6b906131f3565b600060048581548110611b5d57611b5d61309a565b60009182526020909120601890910201601781015490915060ff16611bb65760405162461bcd60e51b815260206004820152600f60248201526e506f6f6c206e6f742061637469766560881b6044820152606401610a6b565b60178101805460ff19169055426016909101555060019392505050565b6000611bdd612471565b600060048381548110611bf257611bf261309a565b6000918252602090912060408051610220810190915260189092020180546001600160a01b038082166101208501908152600160a01b830460ff16610140860152600160a81b90920461ffff1661016085015260018301541661018084015260028201805484929184916101a085019190611c6c90613037565b80601f0160208091040260200160405190810160405280929190818152602001828054611c9890613037565b8015611ce55780601f10611cba57610100808354040283529160200191611ce5565b820191906000526020600020905b815481529060010190602001808311611cc857829003601f168201915b505050918352505060038201546020808301919091526004830154604080840191909152600590930154606092830152928452815180830183526006860154815260078601548185015284840152815180830183526008860154815260098601548185015284830152815160808082018452600a8701548252600b87015482860152600c87015482850152600d87015460ff161515828401528583019190915282518082018452600e870180548252600f88015482870152601088015482860152601188018054865181890281018901909752808752939097019691959094938601939290830182828015611df957602002820191906000526020600020905b815481526020019060010190808311611de5575b505050919092525050508152604080516060808201835260128501546001600160a01b039081168352601386015460208085019190915260148701548486015285019290925260158501549284019290925260168401548284015260179093015460ff16151560809092019190915282510151919250163314611e8e5760405162461bcd60e51b8152600401610a6b906131f3565b6000838152600d60205260409020548015611f4a576000848152600c602090815260408083208484528252808320548151633941ea2960e21b815291516001600160a01b0390911693849363e507a8a49360048082019492939183900301908290875af1158015611f03573d6000803e3d6000fd5b505050506040513d601f19601f82011682018060405250810190611f27919061323d565b835160608101519051919550611f47916001600160a01b03169086612767565b50505b5050611f566001607855565b919050565b80600060048281548110611f7157611f7161309a565b6000918252602090912060408051610220810190915260189092020180546001600160a01b038082166101208501908152600160a01b830460ff16610140860152600160a81b90920461ffff1661016085015260018301541661018084015260028201805484929184916101a085019190611feb90613037565b80601f016020809104026020016040519081016040528092919081815260200182805461201790613037565b80156120645780601f1061203957610100808354040283529160200191612064565b820191906000526020600020905b81548152906001019060200180831161204757829003601f168201915b505050918352505060038201546020808301919091526004830154604080840191909152600590930154606092830152928452815180830183526006860154815260078601548185015284840152815180830183526008860154815260098601548185015284830152815160808082018452600a8701548252600b87015482860152600c87015482850152600d87015460ff161515828401528583019190915282518082018452600e870180548252600f8801548287015260108801548286015260118801805486518189028101890190975280875293909701969195909493860193929083018282801561217857602002820191906000526020600020905b815481526020019060010190808311612164575b505050919092525050508152604080516060808201835260128501546001600160a01b039081168352601386015460208085019190915260148701548486015285019290925260158501549284019290925260168401548284015260179093015460ff161515608090920191909152825101519192501633148061220657506045546001600160a01b031633145b6122225760405162461bcd60e51b8152600401610a6b906131f3565b61222a612471565b6000838152600d6020908152604080832054600c8352818420818552909252909120546001600160a01b0316801561230c576000816001600160a01b031663f69e20466040518163ffffffff1660e01b81526004016020604051808303816000875af115801561229e573d6000803e3d6000fd5b505050506040513d601f19601f820116820180604052508101906122c2919061323d565b90506122cf600182613256565b600487815481106122e2576122e261309a565b906000526020600020906018020160060160010160008282546123059190613087565b9091555050505b50506109d76001607855565b612320612801565b6001600160a01b0381166123855760405162461bcd60e51b815260206004820152602660248201527f4f776e61626c653a206e6577206f776e657220697320746865207a65726f206160448201526564647265737360d01b6064820152608401610a6b565b604680546001600160a01b0319166001600160a01b0392909216919091179055565b6040516001600160a01b03808516602483015283166044820152606481018290526000906124159086906323b872dd60e01b906084015b60408051601f198184030181529190526020810180516001600160e01b03166001600160e01b03199093169290921790915261285b565b5060015b949350505050565b6001600160a01b038316156109d7576001600160a01b038084166000908152600a6020908152604080832093861683529290529081208054839290612467908490613087565b9091555050505050565b6002607854036124c35760405162461bcd60e51b815260206004820152601f60248201527f5265656e7472616e637947756172643a207265656e7472616e742063616c6c006044820152606401610a6b565b6002607855565b600080600485815481106124e0576124e061309a565b906000526020600020906018020190506000846040516020016125039190613269565b60408051601f1981840301815291815281516020928301206000898152600d9093529120549091508082146125fb57600061253d88612605565b9050600061254b898961292d565b90506001600160a01b038116156125f85760068501805460009091558190612574600182613256565b6007880155865461258f906001600160a01b03168483612767565b50816001600160a01b0316630b5090076040518163ffffffff1660e01b81526004016020604051808303816000875af11580156125d0573d6000803e3d6000fd5b505050506040513d601f19601f820116820180604052508101906125f4919061323d565b5050505b50505b5050509392505050565b6000806004838154811061261b5761261b61309a565b60009182526020808320868452600d909152604083208054908490556018909202019250801561275f576000858152600c602090815260408083208484528252808320548151637f1f087360e01b815291516001600160a01b0390911693928492637f1f08739260048083019392829003018187875af11580156126a3573d6000803e3d6000fd5b505050506040513d601f19601f820116820180604052508101906126c7919061323d565b6040516348b1933560e01b8152600481018290529091506001600160a01b038316906348b19335906024016020604051808303816000875af1158015612711573d6000803e3d6000fd5b505050506040513d601f19601f82011682018060405250810190612735919061323d565b6000600787018190556006870180549296508692909190612757908490613087565b909155505050505b509392505050565b6040516001600160a01b03831660248201526044810182905260009061279a90859063a9059cbb60e01b906064016123de565b5060019392505050565b604580546001600160a01b038381166001600160a01b03198084168217909455604680549094169093556040519116919082907f8be0079c531659141344cd1fd0a4f28419497f9722a3daafe3b4186f6b6457e090600090a35050565b6045546001600160a01b0316331461187d5760405162461bcd60e51b815260206004820181905260248201527f4f776e61626c653a2063616c6c6572206973206e6f7420746865206f776e65726044820152606401610a6b565b60006128b0826040518060400160405280602081526020017f5361666545524332303a206c6f772d6c6576656c2063616c6c206661696c6564815250856001600160a01b0316612ab59092919063ffffffff16565b8051909150156109d757808060200190518101906128ce919061327c565b6109d75760405162461bcd60e51b815260206004820152602a60248201527f5361666545524332303a204552433230206f7065726174696f6e20646964206e6044820152691bdd081cdd58d8d9595960b21b6064820152608401610a6b565b6000806000836040516020016129439190613269565b60408051601f1981840301815291815281516020928301206000888152600c84528281208282529093529120549091506001600160a01b031680612a3257600b54600480546001600160a01b039092169163dff968019188918a9081106129ac576129ac61309a565b60009182526020909120601890910201546040516001600160e01b031960e085901b1681526129e892916001600160a01b03169060040161329e565b6020604051808303816000875af1158015612a07573d6000803e3d6000fd5b505050506040513d601f19601f82011682018060405250810190612a2b91906132c8565b9250612a4d565b6000868152600d60205260409020919091559150610e7d9050565b6001600160a01b03831615612aab576000868152600c60209081526040808320858452825280832080546001600160a01b0319166001600160a01b0388169081179091558352600e8252808320899055888352600d90915290208290555b5090949350505050565b6060612419848460008585600080866001600160a01b03168587604051612adc91906132e5565b60006040518083038185875af1925050503d8060008114612b19576040519150601f19603f3d011682016040523d82523d6000602084013e612b1e565b606091505b5091509150612b2f87838387612b3a565b979650505050505050565b60608315612ba9578251600003612ba2576001600160a01b0385163b612ba25760405162461bcd60e51b815260206004820152601d60248201527f416464726573733a2063616c6c20746f206e6f6e2d636f6e74726163740000006044820152606401610a6b565b5081612419565b6124198383815115612bbe5781518083602001fd5b8060405162461bcd60e51b8152600401610a6b9190613269565b6001600160a01b0381168114612bed57600080fd5b50565b60008060408385031215612c0357600080fd5b8235612c0e81612bd8565b91506020830135612c1e81612bd8565b809150509250929050565b60008060408385031215612c3c57600080fd5b50508035926020909101359150565b600060208284031215612c5d57600080fd5b5035919050565b60005b83811015612c7f578181015183820152602001612c67565b50506000910152565b60008151808452612ca0816020860160208601612c64565b601f01601f19169290920160200192915050565b60006080830182518452602080840151818601526040840151604086015260608401516080606087015282815180855260a0880191508383019450600092505b80831015612d145784518252938301936001929092019190830190612cf4565b509695505050505050565b6102008082528a516001600160a01b039081169183019190915260208b015160ff1661022083015260408b015161ffff1661024083015260608b01511661026082015260808a0151610100610280830152600090612d81610300840182612c88565b905060a08c01516102a084015260c08c01516102c084015260e08c01516102e0840152612dbb602084018c80518252602090810151910152565b8951606084015260208a01516080840152885160a0840152602089015160c0840152604089015160e084015260608901511515610100840152828103610120840152612e078189612cb4565b87516001600160a01b0316610140850152602088015161016085015260408801516101808501529150612e379050565b846101a0830152836101c0830152612e546101e083018415159052565b9a9950505050505050505050565b60008060408385031215612e7557600080fd5b8235612e8081612bd8565b946020939093013593505050565b634e487b7160e01b600052604160045260246000fd5b600082601f830112612eb557600080fd5b813567ffffffffffffffff80821115612ed057612ed0612e8e565b604051601f8301601f19908116603f01168101908282118183101715612ef857612ef8612e8e565b81604052838152866020858801011115612f1157600080fd5b836020870160208301376000602085830101528094505050505092915050565b600080600080600060a08688031215612f4957600080fd5b8535945060208601359350604086013561ffff81168114612f6957600080fd5b925060608601359150608086013567ffffffffffffffff811115612f8c57600080fd5b612f9888828901612ea4565b9150509295509295909350565b600060208284031215612fb757600080fd5b813561113481612bd8565b60008060408385031215612fd557600080fd5b823591506020830135612c1e81612bd8565b600080600060608486031215612ffc57600080fd5b8335925060208401359150604084013567ffffffffffffffff81111561302157600080fd5b61302d86828701612ea4565b9150509250925092565b600181811c9082168061304b57607f821691505b60208210810361306b57634e487b7160e01b600052602260045260246000fd5b50919050565b634e487b7160e01b600052601160045260246000fd5b80820180821115610e7d57610e7d613071565b634e487b7160e01b600052603260045260246000fd5b6000806000606084860312156130c557600080fd5b835192506020840151915060408401516130de81612bd8565b809150509250925092565b600181815b8085111561312457816000190482111561310a5761310a613071565b8085161561311757918102915b93841c93908002906130ee565b509250929050565b60008261313b57506001610e7d565b8161314857506000610e7d565b816001811461315e576002811461316857613184565b6001915050610e7d565b60ff84111561317957613179613071565b50506001821b610e7d565b5060208310610133831016604e8410600b84101617156131a7575081810a610e7d565b6131b183836130e9565b80600019048211156131c5576131c5613071565b029392505050565b600061113460ff84168361312c565b8082028115828204841417610e7d57610e7d613071565b6020808252600e908201526d139bdd08185d5d1a1bdc9a5e995960921b604082015260600190565b60008261323857634e487b7160e01b600052601260045260246000fd5b500490565b60006020828403121561324f57600080fd5b5051919050565b81810381811115610e7d57610e7d613071565b6020815260006111346020830184612c88565b60006020828403121561328e57600080fd5b8151801515811461113457600080fd5b6040815260006132b16040830185612c88565b905060018060a01b03831660208301529392505050565b6000602082840312156132da57600080fd5b815161113481612bd8565b600082516132f7818460208701612c64565b919091019291505056fea26469706673582212201af8d1e1c6b330f916dc7399cc256e33c103eac2f461493e7bf6074d9dc3b46264736f6c63430008110033",
    "linkReferences": {
      "src/lib/SaloonLib.sol": {
        "SaloonLib": [
          {
            "start": 2218,
            "length": 20
          },
          {
            "start": 3176,
            "length": 20
          }
        ]
      }
    }
  },
  "methodIdentifiers": {
    "acceptOwnershipTransfer()": "b842e87f",
    "activeStrategies(uint256)": "b20b2429",
    "activeTokens(uint256)": "9f224f35",
    "calcRequiredPremiumBalancePerPeriod(uint256,uint256)": "836ef1fa",
    "compoundYieldForPid(uint256)": "e78ea3df",
    "makeProjectDeposit(uint256,uint256,string)": "ae07f948",
    "minTokenStakeAmount(address)": "39458723",
    "nftInfo(uint256)": "1f8bc790",
    "owner()": "8da5cb5b",
    "pidNFTList(uint256,uint256)": "96ea48e8",
    "pidStrategies(uint256,bytes32)": "074ecf03",
    "poolInfo(uint256)": "1526fe27",
    "projectDepositWithdrawal(uint256,uint256)": "983c1ce0",
    "receiveStrategyYield(address,uint256)": "1aebcecb",
    "referralBalances(address,address)": "011b408b",
    "saloonBounty()": "79923898",
    "saloonBountyProfit(address)": "e45abd0f",
    "saloonManager()": "220e1124",
    "saloonPremiumProfit(address)": "ca006148",
    "saloonProjectPortal()": "277fd2a1",
    "saloonStrategyProfit(address)": "598d17bf",
    "saloonView()": "0a07f543",
    "scheduleProjectDepositWithdrawal(uint256,uint256)": "5669cbef",
    "setAPYandPoolCapAndDeposit(uint256,uint256,uint16,uint256,string)": "30ca0794",
    "strategyAddressToPid(address)": "957deecc",
    "strategyFactory()": "9ef35710",
    "tokenWhitelist(address)": "753d7563",
    "transferOwnership(address)": "f2fde38b",
    "updateProjectWalletAddress(uint256,address)": "995974c4",
    "viewBountyBalance(uint256)": "6ac6d812",
    "windDownBounty(uint256)": "bb7019c1",
    "withdrawProjectYield(uint256)": "db53e8b5"
  },
  "id": 58
}