{
  "abi": [
    {
      "anonymous": false,
      "inputs": [
        {
          "indexed": true,
          "internalType": "uint256",
          "name": "pid",
          "type": "uint256"
        },
        {
          "indexed": false,
          "internalType": "uint256",
          "name": "oldAmount",
          "type": "uint256"
        },
        {
          "indexed": false,
          "internalType": "uint256",
          "name": "newAmount",
          "type": "uint256"
        }
      ],
      "name": "BountyBalanceChanged",
      "type": "event"
    },
    {
      "anonymous": false,
      "inputs": [
        {
          "indexed": true,
          "internalType": "address",
          "name": "hunter",
          "type": "address"
        },
        {
          "indexed": true,
          "internalType": "address",
          "name": "token",
          "type": "address"
        },
        {
          "indexed": false,
          "internalType": "uint256",
          "name": "amount",
          "type": "uint256"
        }
      ],
      "name": "BountyPaid",
      "type": "event"
    },
    {
      "anonymous": false,
      "inputs": [
        {
          "indexed": false,
          "internalType": "uint8",
          "name": "version",
          "type": "uint8"
        }
      ],
      "name": "Initialized",
      "type": "event"
    },
    {
      "anonymous": false,
      "inputs": [
        {
          "indexed": true,
          "internalType": "uint256",
          "name": "pid",
          "type": "uint256"
        },
        {
          "indexed": true,
          "internalType": "address",
          "name": "token",
          "type": "address"
        },
        {
          "indexed": false,
          "internalType": "uint256",
          "name": "tokenDecimals",
          "type": "uint256"
        }
      ],
      "name": "NewBountyDeployed",
      "type": "event"
    },
    {
      "anonymous": false,
      "inputs": [
        {
          "indexed": true,
          "internalType": "address",
          "name": "previousOwner",
          "type": "address"
        },
        {
          "indexed": true,
          "internalType": "address",
          "name": "newOwner",
          "type": "address"
        }
      ],
      "name": "OwnershipTransferred",
      "type": "event"
    },
    {
      "anonymous": false,
      "inputs": [
        {
          "indexed": true,
          "internalType": "uint256",
          "name": "pid",
          "type": "uint256"
        },
        {
          "indexed": false,
          "internalType": "uint256",
          "name": "amount",
          "type": "uint256"
        }
      ],
      "name": "PremiumBilled",
      "type": "event"
    },
    {
      "anonymous": false,
      "inputs": [
        {
          "indexed": true,
          "internalType": "address",
          "name": "user",
          "type": "address"
        },
        {
          "indexed": true,
          "internalType": "uint256",
          "name": "pid",
          "type": "uint256"
        },
        {
          "indexed": false,
          "internalType": "uint256",
          "name": "amount",
          "type": "uint256"
        }
      ],
      "name": "Staked",
      "type": "event"
    },
    {
      "anonymous": false,
      "inputs": [
        {
          "indexed": true,
          "internalType": "address",
          "name": "user",
          "type": "address"
        },
        {
          "indexed": true,
          "internalType": "uint256",
          "name": "pid",
          "type": "uint256"
        },
        {
          "indexed": false,
          "internalType": "uint256",
          "name": "amount",
          "type": "uint256"
        }
      ],
      "name": "Unstaked",
      "type": "event"
    },
    {
      "anonymous": false,
      "inputs": [
        {
          "indexed": true,
          "internalType": "uint256",
          "name": "pid",
          "type": "uint256"
        },
        {
          "indexed": false,
          "internalType": "uint256",
          "name": "amount",
          "type": "uint256"
        }
      ],
      "name": "WithdrawalOrUnstakeScheduled",
      "type": "event"
    },
    {
      "anonymous": false,
      "inputs": [
        {
          "indexed": true,
          "internalType": "address",
          "name": "referrer",
          "type": "address"
        },
        {
          "indexed": false,
          "internalType": "uint256",
          "name": "amount",
          "type": "uint256"
        }
      ],
      "name": "referralPaid",
      "type": "event"
    },
    {
      "anonymous": false,
      "inputs": [
        {
          "indexed": true,
          "internalType": "address",
          "name": "token",
          "type": "address"
        },
        {
          "indexed": true,
          "internalType": "bool",
          "name": "whitelisted",
          "type": "bool"
        }
      ],
      "name": "tokenWhitelistUpdated",
      "type": "event"
    },
    {
      "inputs": [],
      "name": "YEAR",
      "outputs": [
        {
          "internalType": "uint256",
          "name": "",
          "type": "uint256"
        }
      ],
      "stateMutability": "view",
      "type": "function"
    },
    {
      "inputs": [],
      "name": "acceptOwnershipTransfer",
      "outputs": [],
      "stateMutability": "nonpayable",
      "type": "function"
    },
    {
      "inputs": [
        {
          "internalType": "uint256",
          "name": "",
          "type": "uint256"
        }
      ],
      "name": "activeStrategies",
      "outputs": [
        {
          "internalType": "bytes32",
          "name": "",
          "type": "bytes32"
        }
      ],
      "stateMutability": "view",
      "type": "function"
    },
    {
      "inputs": [
        {
          "internalType": "uint256",
          "name": "",
          "type": "uint256"
        }
      ],
      "name": "activeTokens",
      "outputs": [
        {
          "internalType": "address",
          "name": "",
          "type": "address"
        }
      ],
      "stateMutability": "view",
      "type": "function"
    },
    {
      "inputs": [
        {
          "internalType": "uint256",
          "name": "_poolCap",
          "type": "uint256"
        },
        {
          "internalType": "uint256",
          "name": "_apy",
          "type": "uint256"
        }
      ],
      "name": "calcRequiredPremiumBalancePerPeriod",
      "outputs": [
        {
          "internalType": "uint256",
          "name": "requiredPremiumBalance",
          "type": "uint256"
        }
      ],
      "stateMutability": "pure",
      "type": "function"
    },
    {
      "inputs": [
        {
          "internalType": "uint256",
          "name": "_pid",
          "type": "uint256"
        }
      ],
      "name": "compoundYieldForPid",
      "outputs": [],
      "stateMutability": "nonpayable",
      "type": "function"
    },
    {
      "inputs": [
        {
          "internalType": "uint256",
          "name": "_pid",
          "type": "uint256"
        },
        {
          "internalType": "uint256",
          "name": "_deposit",
          "type": "uint256"
        },
        {
          "internalType": "string",
          "name": "_strategyName",
          "type": "string"
        }
      ],
      "name": "makeProjectDeposit",
      "outputs": [],
      "stateMutability": "nonpayable",
      "type": "function"
    },
    {
      "inputs": [
        {
          "internalType": "address",
          "name": "",
          "type": "address"
        }
      ],
      "name": "minTokenStakeAmount",
      "outputs": [
        {
          "internalType": "uint256",
          "name": "",
          "type": "uint256"
        }
      ],
      "stateMutability": "view",
      "type": "function"
    },
    {
      "inputs": [
        {
          "internalType": "uint256",
          "name": "",
          "type": "uint256"
        }
      ],
      "name": "nftInfo",
      "outputs": [
        {
          "internalType": "uint256",
          "name": "pid",
          "type": "uint256"
        },
        {
          "internalType": "uint256",
          "name": "amount",
          "type": "uint256"
        },
        {
          "internalType": "uint256",
          "name": "xDelta",
          "type": "uint256"
        },
        {
          "internalType": "uint256",
          "name": "apy",
          "type": "uint256"
        },
        {
          "internalType": "uint256",
          "name": "unclaimed",
          "type": "uint256"
        },
        {
          "internalType": "uint256",
          "name": "lastClaimedTime",
          "type": "uint256"
        },
        {
          "internalType": "uint256",
          "name": "timelock",
          "type": "uint256"
        },
        {
          "internalType": "uint256",
          "name": "timelimit",
          "type": "uint256"
        },
        {
          "internalType": "bool",
          "name": "hasUnstaked",
          "type": "bool"
        }
      ],
      "stateMutability": "view",
      "type": "function"
    },
    {
      "inputs": [],
      "name": "owner",
      "outputs": [
        {
          "internalType": "address",
          "name": "",
          "type": "address"
        }
      ],
      "stateMutability": "view",
      "type": "function"
    },
    {
      "inputs": [
        {
          "internalType": "uint256",
          "name": "",
          "type": "uint256"
        },
        {
          "internalType": "uint256",
          "name": "",
          "type": "uint256"
        }
      ],
      "name": "pidNFTList",
      "outputs": [
        {
          "internalType": "uint256",
          "name": "",
          "type": "uint256"
        }
      ],
      "stateMutability": "view",
      "type": "function"
    },
    {
      "inputs": [
        {
          "internalType": "uint256",
          "name": "",
          "type": "uint256"
        },
        {
          "internalType": "bytes32",
          "name": "",
          "type": "bytes32"
        }
      ],
      "name": "pidStrategies",
      "outputs": [
        {
          "internalType": "address",
          "name": "",
          "type": "address"
        }
      ],
      "stateMutability": "view",
      "type": "function"
    },
    {
      "inputs": [
        {
          "internalType": "uint256",
          "name": "",
          "type": "uint256"
        }
      ],
      "name": "poolInfo",
      "outputs": [
        {
          "components": [
            {
              "internalType": "contract IERC20",
              "name": "token",
              "type": "address"
            },
            {
              "internalType": "uint8",
              "name": "tokenDecimals",
              "type": "uint8"
            },
            {
              "internalType": "uint16",
              "name": "apy",
              "type": "uint16"
            },
            {
              "internalType": "address",
              "name": "projectWallet",
              "type": "address"
            },
            {
              "internalType": "string",
              "name": "projectName",
              "type": "string"
            },
            {
              "internalType": "uint256",
              "name": "poolCap",
              "type": "uint256"
            },
            {
              "internalType": "uint256",
              "name": "totalStaked",
              "type": "uint256"
            },
            {
              "internalType": "uint256",
              "name": "scalingMultiplier",
              "type": "uint256"
            }
          ],
          "internalType": "struct ISaloon.GeneralInfo",
          "name": "generalInfo",
          "type": "tuple"
        },
        {
          "components": [
            {
              "internalType": "uint256",
              "name": "projectDepositHeld",
              "type": "uint256"
            },
            {
              "internalType": "uint256",
              "name": "projectDepositInStrategy",
              "type": "uint256"
            }
          ],
          "internalType": "struct ISaloon.DepositInfo",
          "name": "depositInfo",
          "type": "tuple"
        },
        {
          "components": [
            {
              "internalType": "uint256",
              "name": "premiumBalance",
              "type": "uint256"
            },
            {
              "internalType": "uint256",
              "name": "premiumAvailable",
              "type": "uint256"
            }
          ],
          "internalType": "struct ISaloon.PremiumInfo",
          "name": "premiumInfo",
          "type": "tuple"
        },
        {
          "components": [
            {
              "internalType": "uint256",
              "name": "timelock",
              "type": "uint256"
            },
            {
              "internalType": "uint256",
              "name": "timeLimit",
              "type": "uint256"
            },
            {
              "internalType": "uint256",
              "name": "withdrawalScheduledAmount",
              "type": "uint256"
            },
            {
              "internalType": "bool",
              "name": "withdrawalExecuted",
              "type": "bool"
            }
          ],
          "internalType": "struct ISaloon.TimelockInfo",
          "name": "poolTimelock",
          "type": "tuple"
        },
        {
          "components": [
            {
              "internalType": "uint256",
              "name": "currentX",
              "type": "uint256"
            },
            {
              "internalType": "uint256",
              "name": "currentY",
              "type": "uint256"
            },
            {
              "internalType": "uint256",
              "name": "totalSupply",
              "type": "uint256"
            },
            {
              "internalType": "uint256[]",
              "name": "unstakedTokens",
              "type": "uint256[]"
            }
          ],
          "internalType": "struct ISaloon.CurveInfo",
          "name": "curveInfo",
          "type": "tuple"
        },
        {
          "components": [
            {
              "internalType": "address",
              "name": "referrer",
              "type": "address"
            },
            {
              "internalType": "uint256",
              "name": "referralFee",
              "type": "uint256"
            },
            {
              "internalType": "uint256",
              "name": "endTime",
              "type": "uint256"
            }
          ],
          "internalType": "struct ISaloon.ReferralInfo",
          "name": "referralInfo",
          "type": "tuple"
        },
        {
          "internalType": "uint256",
          "name": "assessmentPeriodEnd",
          "type": "uint256"
        },
        {
          "internalType": "uint256",
          "name": "freezeTime",
          "type": "uint256"
        },
        {
          "internalType": "bool",
          "name": "isActive",
          "type": "bool"
        }
      ],
      "stateMutability": "view",
      "type": "function"
    },
    {
      "inputs": [
        {
          "internalType": "uint256",
          "name": "_pid",
          "type": "uint256"
        },
        {
          "internalType": "uint256",
          "name": "_amount",
          "type": "uint256"
        }
      ],
      "name": "projectDepositWithdrawal",
      "outputs": [
        {
          "internalType": "bool",
          "name": "",
          "type": "bool"
        }
      ],
      "stateMutability": "nonpayable",
      "type": "function"
    },
    {
      "inputs": [
        {
          "internalType": "address",
          "name": "_token",
          "type": "address"
        },
        {
          "internalType": "uint256",
          "name": "_amount",
          "type": "uint256"
        }
      ],
      "name": "receiveStrategyYield",
      "outputs": [],
      "stateMutability": "nonpayable",
      "type": "function"
    },
    {
      "inputs": [
        {
          "internalType": "address",
          "name": "",
          "type": "address"
        },
        {
          "internalType": "address",
          "name": "",
          "type": "address"
        }
      ],
      "name": "referralBalances",
      "outputs": [
        {
          "internalType": "uint256",
          "name": "",
          "type": "uint256"
        }
      ],
      "stateMutability": "view",
      "type": "function"
    },
    {
      "inputs": [],
      "name": "saloonBounty",
      "outputs": [
        {
          "internalType": "contract ISaloonBounty",
          "name": "",
          "type": "address"
        }
      ],
      "stateMutability": "view",
      "type": "function"
    },
    {
      "inputs": [
        {
          "internalType": "address",
          "name": "",
          "type": "address"
        }
      ],
      "name": "saloonBountyProfit",
      "outputs": [
        {
          "internalType": "uint256",
          "name": "",
          "type": "uint256"
        }
      ],
      "stateMutability": "view",
      "type": "function"
    },
    {
      "inputs": [],
      "name": "saloonManager",
      "outputs": [
        {
          "internalType": "contract ISaloonManager",
          "name": "",
          "type": "address"
        }
      ],
      "stateMutability": "view",
      "type": "function"
    },
    {
      "inputs": [
        {
          "internalType": "address",
          "name": "",
          "type": "address"
        }
      ],
      "name": "saloonPremiumProfit",
      "outputs": [
        {
          "internalType": "uint256",
          "name": "",
          "type": "uint256"
        }
      ],
      "stateMutability": "view",
      "type": "function"
    },
    {
      "inputs": [],
      "name": "saloonProjectPortal",
      "outputs": [
        {
          "internalType": "contract ISaloonProjectPortal",
          "name": "",
          "type": "address"
        }
      ],
      "stateMutability": "view",
      "type": "function"
    },
    {
      "inputs": [
        {
          "internalType": "address",
          "name": "",
          "type": "address"
        }
      ],
      "name": "saloonStrategyProfit",
      "outputs": [
        {
          "internalType": "uint256",
          "name": "",
          "type": "uint256"
        }
      ],
      "stateMutability": "view",
      "type": "function"
    },
    {
      "inputs": [],
      "name": "saloonView",
      "outputs": [
        {
          "internalType": "contract ISaloonView",
          "name": "",
          "type": "address"
        }
      ],
      "stateMutability": "view",
      "type": "function"
    },
    {
      "inputs": [
        {
          "internalType": "uint256",
          "name": "_pid",
          "type": "uint256"
        },
        {
          "internalType": "uint256",
          "name": "_amount",
          "type": "uint256"
        }
      ],
      "name": "scheduleProjectDepositWithdrawal",
      "outputs": [
        {
          "internalType": "bool",
          "name": "",
          "type": "bool"
        }
      ],
      "stateMutability": "nonpayable",
      "type": "function"
    },
    {
      "inputs": [
        {
          "internalType": "uint256",
          "name": "_pid",
          "type": "uint256"
        },
        {
          "internalType": "uint256",
          "name": "_poolCap",
          "type": "uint256"
        },
        {
          "internalType": "uint16",
          "name": "_apy",
          "type": "uint16"
        },
        {
          "internalType": "uint256",
          "name": "_deposit",
          "type": "uint256"
        },
        {
          "internalType": "string",
          "name": "_strategyName",
          "type": "string"
        }
      ],
      "name": "setAPYandPoolCapAndDeposit",
      "outputs": [],
      "stateMutability": "nonpayable",
      "type": "function"
    },
    {
      "inputs": [
        {
          "internalType": "address",
          "name": "",
          "type": "address"
        }
      ],
      "name": "strategyAddressToPid",
      "outputs": [
        {
          "internalType": "uint256",
          "name": "",
          "type": "uint256"
        }
      ],
      "stateMutability": "view",
      "type": "function"
    },
    {
      "inputs": [],
      "name": "strategyFactory",
      "outputs": [
        {
          "internalType": "contract IStrategyFactory",
          "name": "",
          "type": "address"
        }
      ],
      "stateMutability": "view",
      "type": "function"
    },
    {
      "inputs": [
        {
          "internalType": "address",
          "name": "",
          "type": "address"
        }
      ],
      "name": "tokenWhitelist",
      "outputs": [
        {
          "internalType": "bool",
          "name": "",
          "type": "bool"
        }
      ],
      "stateMutability": "view",
      "type": "function"
    },
    {
      "inputs": [
        {
          "internalType": "address",
          "name": "newOwner",
          "type": "address"
        }
      ],
      "name": "transferOwnership",
      "outputs": [],
      "stateMutability": "nonpayable",
      "type": "function"
    },
    {
      "inputs": [
        {
          "internalType": "uint256",
          "name": "_pid",
          "type": "uint256"
        },
        {
          "internalType": "address",
          "name": "_projectWallet",
          "type": "address"
        }
      ],
      "name": "updateProjectWalletAddress",
      "outputs": [],
      "stateMutability": "nonpayable",
      "type": "function"
    },
    {
      "inputs": [
        {
          "internalType": "uint256",
          "name": "_pid",
          "type": "uint256"
        }
      ],
      "name": "viewBountyBalance",
      "outputs": [
        {
          "internalType": "uint256",
          "name": "",
          "type": "uint256"
        }
      ],
      "stateMutability": "view",
      "type": "function"
    },
    {
      "inputs": [
        {
          "internalType": "uint256",
          "name": "_pid",
          "type": "uint256"
        }
      ],
      "name": "windDownBounty",
      "outputs": [
        {
          "internalType": "bool",
          "name": "",
          "type": "bool"
        }
      ],
      "stateMutability": "nonpayable",
      "type": "function"
    },
    {
      "inputs": [
        {
          "internalType": "uint256",
          "name": "_pid",
          "type": "uint256"
        }
      ],
      "name": "withdrawProjectYield",
      "outputs": [
        {
          "internalType": "uint256",
          "name": "returnedAmount",
          "type": "uint256"
        }
      ],
      "stateMutability": "nonpayable",
      "type": "function"
    }
  ],
  "bytecode": {
    "object": "0x608060405234801561001057600080fd5b5061334d806100206000396000f3fe608060405234801561001057600080fd5b50600436106101fb5760003560e01c8063839145401161011a578063ae07f948116100ad578063ca0061481161007c578063ca0061481461055e578063db53e8b51461057e578063e45abd0f14610591578063e78ea3df146105b1578063f2fde38b146105c457600080fd5b8063ae07f94814610510578063b20b242914610523578063b842e87f14610543578063bb7019c11461054b57600080fd5b8063983c1ce0116100e9578063983c1ce0146104c4578063995974c4146104d75780639ef35710146104ea5780639f224f35146104fd57600080fd5b806383914540146104755780638da5cb5b14610480578063957deecc1461049157806396ea48e8146104b157600080fd5b806330ca0794116101925780636ac6d812116101615780636ac6d81214610419578063753d75631461042c578063799238981461044f578063836ef1fa1461046257600080fd5b806330ca0794146103a357806339458723146103b65780635669cbef146103d6578063598d17bf146103f957600080fd5b80631aebcecb116101ce5780631aebcecb146102c55780631f8bc790146102da578063220e11241461037d578063277fd2a11461039057600080fd5b8063011b408b14610200578063074ecf031461023e5780630a07f5431461028a5780631526fe271461029d575b600080fd5b61022b61020e366004612c06565b600a60209081526000928352604080842090915290825290205481565b6040519081526020015b60405180910390f35b61027261024c366004612c3f565b600c6020908152600092835260408084209091529082529020546001600160a01b031681565b6040516001600160a01b039091168152602001610235565b600354610272906001600160a01b031681565b6102b06102ab366004612c61565b6105d7565b60405161023599989796959493929190612d35565b6102d86102d3366004612e78565b610838565b005b6103376102e8366004612c61565b6005602081905260009182526040909120805460018201546002830154600384015460048501549585015460068601546007870154600890970154959794969395929493919290919060ff1689565b60408051998a5260208a0198909852968801959095526060870193909352608086019190915260a085015260c084015260e0830152151561010082015261012001610235565b600054610272906001600160a01b031681565b600154610272906001600160a01b031681565b6102d86103b1366004612f47565b6109f2565b61022b6103c4366004612fbb565b60116020526000908152604090205481565b6103e96103e4366004612c3f565b610d59565b6040519015158152602001610235565b61022b610407366004612fbb565b60096020526000908152604090205481565b61022b610427366004612c61565b610e99565b6103e961043a366004612fbb565b600f6020526000908152604090205460ff1681565b600254610272906001600160a01b031681565b61022b610470366004612c3f565b611151565b61022b6301e1338081565b6045546001600160a01b0316610272565b61022b61049f366004612fbb565b600e6020526000908152604090205481565b61022b6104bf366004612c3f565b611187565b6103e96104d2366004612c3f565b6111b8565b6102d86104e5366004612fd8565b611382565b600b54610272906001600160a01b031681565b61027261050b366004612c61565b6116e3565b6102d861051e366004612ffd565b61170d565b61022b610531366004612c61565b600d6020526000908152604090205481565b6102d8611815565b6103e9610559366004612c61565b611895565b61022b61056c366004612fbb565b60086020526000908152604090205481565b61022b61058c366004612c61565b611be9565b61022b61059f366004612fbb565b60076020526000908152604090205481565b6102d86105bf366004612c61565b611f71565b6102d86105d2366004612fbb565b61232e565b600481815481106105e757600080fd5b60009182526020918290206040805161010081018252601890930290910180546001600160a01b03808216855260ff600160a01b8304169585019590955261ffff600160a81b9091041691830191909152600181015490921660608201526002820180549293509091839160808401916106609061304d565b80601f016020809104026020016040519081016040528092919081815260200182805461068c9061304d565b80156106d95780601f106106ae576101008083540402835291602001916106d9565b820191906000526020600020905b8154815290600101906020018083116106bc57829003601f168201915b50505091835250506003820154602080830191909152600483015460408084019190915260059093015460609283015282518084018452600686015481526007860154818301528351808501855260088701548152600987015481840152845160808082018752600a8901548252600b89015482860152600c89015482880152600d89015460ff1615158287015286519081018752600e890180548252600f8a01548287015260108a01548289015260118a018054895181890281018901909a52808a52999a95999498939795969295919491860193929091908301828280156107e257602002820191906000526020600020905b8154815260200190600101908083116107ce575b5050509190925250506040805160608101825260128501546001600160a01b0316815260138501546020820152601485015491810191909152601584015460168501546017909501549394919390925060ff1689565b61084d6001600160a01b0383163330846123bd565b50336000908152600e602052604081205490819003610899576001600160a01b0383166000908152600960205260408120805484929061088e90849061309d565b909155506109ed9050565b600080600073__$4defa815a6c8401eda00ac6be9b95d3cdb$__63fc76fff386600487815481106108cc576108cc6130b0565b906000526020600020906018020160120160020154600488815481106108f4576108f46130b0565b9060005260206000209060180201601201600101546004898154811061091c5761091c6130b0565b600091825260209091206018909102016012015460405160e086901b6001600160e01b03191681526004810194909452602484019290925260448301526001600160a01b03166064820152608401606060405180830381865af4158015610987573d6000803e3d6000fd5b505050506040513d601f19601f820116820180604052508101906109ab91906130c6565b9250925092506109bc818784612437565b6001600160a01b038616600090815260096020526040812080548592906109e490849061309d565b90915550505050505b505050565b6109fa612487565b600060048681548110610a0f57610a0f6130b0565b60009182526020909120601890910201601781015490915060ff16158015610a3957506003810154155b610a8a5760405162461bcd60e51b815260206004820152601860248201527f506f6f6c20616c726561647920696e697469616c697a6564000000000000000060448201526064015b60405180910390fd5b60008461ffff16118015610aa457506127108461ffff1611155b610ae35760405162461bcd60e51b815260206004820152601060248201526f415059206f7574206f662072616e676560801b6044820152606401610a81565b8054610afa90600160a01b900460ff16600a6131e3565b610b06906103e86131f2565b8510158015610b3857508054610b2790600160a01b900460ff16600a6131e3565b610b3490629896806131f2565b8511155b610b7c5760405162461bcd60e51b8152602060048201526015602482015274506f6f6c20636170206f7574206f662072616e676560581b6044820152606401610a81565b60018101546001600160a01b03163314610ba85760405162461bcd60e51b8152600401610a8190613209565b6000610bb8868661ffff16611151565b90506000612710610bcb6103e8846131f2565b610bd59190613231565b90506000610be289610e99565b9050610c063330610bf3868a61309d565b87546001600160a01b03169291906123bd565b5085846006016000016000828254610c1e919061309d565b909155505060038401889055835461ffff60a81b1916600160a81b61ffff89169081029190911785556040516334d5118560e01b8152600481019190915273__$4defa815a6c8401eda00ac6be9b95d3cdb$__906334d5118590602401602060405180830381865af4158015610c98573d6000803e3d6000fd5b505050506040513d601f19601f82011682018060405250810190610cbc9190613253565b600585015560178401805460ff1916600117905560088401839055610ce1828461326c565b6009850155845115610cfa57610cf88986886124e0565b505b6000610d058a610e99565b60408051848152602081018390529192508b917fa3ea4fb8dee4d414198cb197af6eae4fe483c1a0b849dc50e53b9bf1a60e2166910160405180910390a25050505050610d526001607855565b5050505050565b60008060048481548110610d6f57610d6f6130b0565b906000526020600020906018020190508281600601600101548260060160000154610d9a919061309d565b1015610de85760405162461bcd60e51b815260206004820152601a60248201527f416d6f756e7420626967676572207468616e206465706f7369740000000000006044820152606401610a81565b60018101546001600160a01b03163314610e145760405162461bcd60e51b8152600401610a8190613209565b610e2162093a804261309d565b600a820155610e3362093a804261309d565b610e40906203f48061309d565b600b820155600c8101839055600d8101805460ff1916905560405183815284907fb3b9c925de3673837b40c6b4d4463a8f88dc821cd27e07f1ff6bf6abf96413a59060200160405180910390a260019150505b92915050565b60008060048381548110610eaf57610eaf6130b0565b6000918252602090912060408051610220810190915260189092020180546001600160a01b038082166101208501908152600160a01b830460ff16610140860152600160a81b90920461ffff1661016085015260018301541661018084015260028201805484929184916101a085019190610f299061304d565b80601f0160208091040260200160405190810160405280929190818152602001828054610f559061304d565b8015610fa25780601f10610f7757610100808354040283529160200191610fa2565b820191906000526020600020905b815481529060010190602001808311610f8557829003601f168201915b505050918352505060038201546020808301919091526004830154604080840191909152600590930154606092830152928452815180830183526006860154815260078601548185015284840152815180830183526008860154815260098601548185015284830152815160808082018452600a8701548252600b87015482860152600c87015482850152600d87015460ff161515828401528583019190915282518082018452600e870180548252600f880154828701526010880154828601526011880180548651818902810189019097528087529390970196919590949386019392908301828280156110b657602002820191906000526020600020905b8154815260200190600101908083116110a2575b505050919092525050508152604080516060808201835260128501546001600160a01b0316825260138501546020838101919091526014860154838501528085019290925260158501549284019290925260168401549183019190915260179092015460ff1615156080909101528181015190810151905191925061113a9161309d565b815160c0015161114a919061309d565b9392505050565b60006301e1338061271062093a8061116985876131f2565b61117391906131f2565b61117d9190613231565b61114a9190613231565b600660205281600052604060002081815481106111a357600080fd5b90600052602060002001600091509150505481565b60006111c2612487565b6000600484815481106111d7576111d76130b0565b6000918252602090912060189091020160018101549091506001600160a01b031633146112165760405162461bcd60e51b8152600401610a8190613209565b600a8101544211801561122c5750600b81015442105b801561123d5750600d81015460ff16155b801561124d5750600c8101548311155b801561125c5750600a81015415155b6112ba5760405162461bcd60e51b815260206004820152602960248201527f54696d656c6f636b206e6f7420736574206f72206e6f7420636f6d706c6574656044820152686420696e2074696d6560b81b6064820152608401610a81565b600d8101805460ff1916600117905560068101548311156112e0576112de8461261b565b505b60006112eb85610e99565b905083826006016000016000828254611304919061326c565b909155505060018201548254611327916001600160a01b0391821691168661277d565b50600061133386610e99565b604080518481526020810183905291925087917fa3ea4fb8dee4d414198cb197af6eae4fe483c1a0b849dc50e53b9bf1a60e2166910160405180910390a260019350505050610e936001607855565b81600060048281548110611398576113986130b0565b6000918252602090912060408051610220810190915260189092020180546001600160a01b038082166101208501908152600160a01b830460ff16610140860152600160a81b90920461ffff1661016085015260018301541661018084015260028201805484929184916101a0850191906114129061304d565b80601f016020809104026020016040519081016040528092919081815260200182805461143e9061304d565b801561148b5780601f106114605761010080835404028352916020019161148b565b820191906000526020600020905b81548152906001019060200180831161146e57829003601f168201915b505050918352505060038201546020808301919091526004830154604080840191909152600590930154606092830152928452815180830183526006860154815260078601548185015284840152815180830183526008860154815260098601548185015284830152815160808082018452600a8701548252600b87015482860152600c87015482850152600d87015460ff161515828401528583019190915282518082018452600e870180548252600f8801548287015260108801548286015260118801805486518189028101890190975280875293909701969195909493860193929083018282801561159f57602002820191906000526020600020905b81548152602001906001019080831161158b575b505050919092525050508152604080516060808201835260128501546001600160a01b039081168352601386015460208085019190915260148701548486015285019290925260158501549284019290925260168401548284015260179093015460ff161515608090920191909152825101519192501633148061162d57506045546001600160a01b031633145b6116495760405162461bcd60e51b8152600401610a8190613209565b6001600160a01b0383166116985760405162461bcd60e51b8152602060048201526016602482015275496e76616c69642077616c6c6574206164647265737360501b6044820152606401610a81565b82600485815481106116ac576116ac6130b0565b6000918252602090912060189091020160010180546001600160a01b0319166001600160a01b039290921691909117905550505050565b601081815481106116f357600080fd5b6000918252602090912001546001600160a01b0316905081565b611715612487565b60006004848154811061172a5761172a6130b0565b6000918252602090912060189091020160018101549091506001600160a01b031633146117695760405162461bcd60e51b8152600401610a8190613209565b600061177485610e99565b825490915061178e906001600160a01b03163330876123bd565b50838260060160000160008282546117a6919061309d565b90915550508251156117bf576117bd8584866124e0565b505b60006117ca86610e99565b604080518481526020810183905291925087917fa3ea4fb8dee4d414198cb197af6eae4fe483c1a0b849dc50e53b9bf1a60e2166910160405180910390a25050506109ed6001607855565b6046546001600160a01b0316331461187e5760405162461bcd60e51b815260206004820152602660248201527f6f6e6c792070656e64696e67206f776e65722063616e2061636365707420747260448201526530b739b332b960d11b6064820152608401610a81565b604654611893906001600160a01b03166127ba565b565b6000816000600482815481106118ad576118ad6130b0565b6000918252602090912060408051610220810190915260189092020180546001600160a01b038082166101208501908152600160a01b830460ff16610140860152600160a81b90920461ffff1661016085015260018301541661018084015260028201805484929184916101a0850191906119279061304d565b80601f01602080910402602001604051908101604052809291908181526020018280546119539061304d565b80156119a05780601f10611975576101008083540402835291602001916119a0565b820191906000526020600020905b81548152906001019060200180831161198357829003601f168201915b505050918352505060038201546020808301919091526004830154604080840191909152600590930154606092830152928452815180830183526006860154815260078601548185015284840152815180830183526008860154815260098601548185015284830152815160808082018452600a8701548252600b87015482860152600c87015482850152600d87015460ff161515828401528583019190915282518082018452600e870180548252600f88015482870152601088015482860152601188018054865181890281018901909752808752939097019691959094938601939290830182828015611ab457602002820191906000526020600020905b815481526020019060010190808311611aa0575b505050919092525050508152604080516060808201835260128501546001600160a01b039081168352601386015460208085019190915260148701548486015285019290925260158501549284019290925260168401548284015260179093015460ff1615156080909201919091528251015191925016331480611b4257506045546001600160a01b031633145b611b5e5760405162461bcd60e51b8152600401610a8190613209565b600060048581548110611b7357611b736130b0565b60009182526020909120601890910201601781015490915060ff16611bcc5760405162461bcd60e51b815260206004820152600f60248201526e506f6f6c206e6f742061637469766560881b6044820152606401610a81565b60178101805460ff19169055426016909101555060019392505050565b6000611bf3612487565b600060048381548110611c0857611c086130b0565b6000918252602090912060408051610220810190915260189092020180546001600160a01b038082166101208501908152600160a01b830460ff16610140860152600160a81b90920461ffff1661016085015260018301541661018084015260028201805484929184916101a085019190611c829061304d565b80601f0160208091040260200160405190810160405280929190818152602001828054611cae9061304d565b8015611cfb5780601f10611cd057610100808354040283529160200191611cfb565b820191906000526020600020905b815481529060010190602001808311611cde57829003601f168201915b505050918352505060038201546020808301919091526004830154604080840191909152600590930154606092830152928452815180830183526006860154815260078601548185015284840152815180830183526008860154815260098601548185015284830152815160808082018452600a8701548252600b87015482860152600c87015482850152600d87015460ff161515828401528583019190915282518082018452600e870180548252600f88015482870152601088015482860152601188018054865181890281018901909752808752939097019691959094938601939290830182828015611e0f57602002820191906000526020600020905b815481526020019060010190808311611dfb575b505050919092525050508152604080516060808201835260128501546001600160a01b039081168352601386015460208085019190915260148701548486015285019290925260158501549284019290925260168401548284015260179093015460ff16151560809092019190915282510151919250163314611ea45760405162461bcd60e51b8152600401610a8190613209565b6000838152600d60205260409020548015611f60576000848152600c602090815260408083208484528252808320548151633941ea2960e21b815291516001600160a01b0390911693849363e507a8a49360048082019492939183900301908290875af1158015611f19573d6000803e3d6000fd5b505050506040513d601f19601f82011682018060405250810190611f3d9190613253565b835160608101519051919550611f5d916001600160a01b0316908661277d565b50505b5050611f6c6001607855565b919050565b80600060048281548110611f8757611f876130b0565b6000918252602090912060408051610220810190915260189092020180546001600160a01b038082166101208501908152600160a01b830460ff16610140860152600160a81b90920461ffff1661016085015260018301541661018084015260028201805484929184916101a0850191906120019061304d565b80601f016020809104026020016040519081016040528092919081815260200182805461202d9061304d565b801561207a5780601f1061204f5761010080835404028352916020019161207a565b820191906000526020600020905b81548152906001019060200180831161205d57829003601f168201915b505050918352505060038201546020808301919091526004830154604080840191909152600590930154606092830152928452815180830183526006860154815260078601548185015284840152815180830183526008860154815260098601548185015284830152815160808082018452600a8701548252600b87015482860152600c87015482850152600d87015460ff161515828401528583019190915282518082018452600e870180548252600f8801548287015260108801548286015260118801805486518189028101890190975280875293909701969195909493860193929083018282801561218e57602002820191906000526020600020905b81548152602001906001019080831161217a575b505050919092525050508152604080516060808201835260128501546001600160a01b039081168352601386015460208085019190915260148701548486015285019290925260158501549284019290925260168401548284015260179093015460ff161515608090920191909152825101519192501633148061221c57506045546001600160a01b031633145b6122385760405162461bcd60e51b8152600401610a8190613209565b612240612487565b6000838152600d6020908152604080832054600c8352818420818552909252909120546001600160a01b03168015612322576000816001600160a01b031663f69e20466040518163ffffffff1660e01b81526004016020604051808303816000875af11580156122b4573d6000803e3d6000fd5b505050506040513d601f19601f820116820180604052508101906122d89190613253565b90506122e560018261326c565b600487815481106122f8576122f86130b0565b9060005260206000209060180201600601600101600082825461231b919061309d565b9091555050505b50506109ed6001607855565b612336612817565b6001600160a01b03811661239b5760405162461bcd60e51b815260206004820152602660248201527f4f776e61626c653a206e6577206f776e657220697320746865207a65726f206160448201526564647265737360d01b6064820152608401610a81565b604680546001600160a01b0319166001600160a01b0392909216919091179055565b6040516001600160a01b038085166024830152831660448201526064810182905260009061242b9086906323b872dd60e01b906084015b60408051601f198184030181529190526020810180516001600160e01b03166001600160e01b031990931692909217909152612871565b5060015b949350505050565b6001600160a01b038316156109ed576001600160a01b038084166000908152600a602090815260408083209386168352929052908120805483929061247d90849061309d565b9091555050505050565b6002607854036124d95760405162461bcd60e51b815260206004820152601f60248201527f5265656e7472616e637947756172643a207265656e7472616e742063616c6c006044820152606401610a81565b6002607855565b600080600485815481106124f6576124f66130b0565b90600052602060002090601802019050600084604051602001612519919061327f565b60408051601f1981840301815291815281516020928301206000898152600d9093529120549091508082146126115760006125538861261b565b905060006125618989612943565b90506001600160a01b0381161561260e576006850180546000909155819061258a60018261326c565b600788015586546125a5906001600160a01b0316848361277d565b50816001600160a01b0316630b5090076040518163ffffffff1660e01b81526004016020604051808303816000875af11580156125e6573d6000803e3d6000fd5b505050506040513d601f19601f8201168201806040525081019061260a9190613253565b5050505b50505b5050509392505050565b60008060048381548110612631576126316130b0565b60009182526020808320868452600d9091526040832080549084905560189092020192508015612775576000858152600c602090815260408083208484528252808320548151637f1f087360e01b815291516001600160a01b0390911693928492637f1f08739260048083019392829003018187875af11580156126b9573d6000803e3d6000fd5b505050506040513d601f19601f820116820180604052508101906126dd9190613253565b6040516348b1933560e01b8152600481018290529091506001600160a01b038316906348b19335906024016020604051808303816000875af1158015612727573d6000803e3d6000fd5b505050506040513d601f19601f8201168201806040525081019061274b9190613253565b600060078701819055600687018054929650869290919061276d90849061309d565b909155505050505b509392505050565b6040516001600160a01b0383166024820152604481018290526000906127b090859063a9059cbb60e01b906064016123f4565b5060019392505050565b604580546001600160a01b038381166001600160a01b03198084168217909455604680549094169093556040519116919082907f8be0079c531659141344cd1fd0a4f28419497f9722a3daafe3b4186f6b6457e090600090a35050565b6045546001600160a01b031633146118935760405162461bcd60e51b815260206004820181905260248201527f4f776e61626c653a2063616c6c6572206973206e6f7420746865206f776e65726044820152606401610a81565b60006128c6826040518060400160405280602081526020017f5361666545524332303a206c6f772d6c6576656c2063616c6c206661696c6564815250856001600160a01b0316612acb9092919063ffffffff16565b8051909150156109ed57808060200190518101906128e49190613292565b6109ed5760405162461bcd60e51b815260206004820152602a60248201527f5361666545524332303a204552433230206f7065726174696f6e20646964206e6044820152691bdd081cdd58d8d9595960b21b6064820152608401610a81565b600080600083604051602001612959919061327f565b60408051601f1981840301815291815281516020928301206000888152600c84528281208282529093529120549091506001600160a01b031680612a4857600b54600480546001600160a01b039092169163dff968019188918a9081106129c2576129c26130b0565b60009182526020909120601890910201546040516001600160e01b031960e085901b1681526129fe92916001600160a01b0316906004016132b4565b6020604051808303816000875af1158015612a1d573d6000803e3d6000fd5b505050506040513d601f19601f82011682018060405250810190612a4191906132de565b9250612a63565b6000868152600d60205260409020919091559150610e939050565b6001600160a01b03831615612ac1576000868152600c60209081526040808320858452825280832080546001600160a01b0319166001600160a01b0388169081179091558352600e8252808320899055888352600d90915290208290555b5090949350505050565b606061242f848460008585600080866001600160a01b03168587604051612af291906132fb565b60006040518083038185875af1925050503d8060008114612b2f576040519150601f19603f3d011682016040523d82523d6000602084013e612b34565b606091505b5091509150612b4587838387612b50565b979650505050505050565b60608315612bbf578251600003612bb8576001600160a01b0385163b612bb85760405162461bcd60e51b815260206004820152601d60248201527f416464726573733a2063616c6c20746f206e6f6e2d636f6e74726163740000006044820152606401610a81565b508161242f565b61242f8383815115612bd45781518083602001fd5b8060405162461bcd60e51b8152600401610a81919061327f565b6001600160a01b0381168114612c0357600080fd5b50565b60008060408385031215612c1957600080fd5b8235612c2481612bee565b91506020830135612c3481612bee565b809150509250929050565b60008060408385031215612c5257600080fd5b50508035926020909101359150565b600060208284031215612c7357600080fd5b5035919050565b60005b83811015612c95578181015183820152602001612c7d565b50506000910152565b60008151808452612cb6816020860160208601612c7a565b601f01601f19169290920160200192915050565b60006080830182518452602080840151818601526040840151604086015260608401516080606087015282815180855260a0880191508383019450600092505b80831015612d2a5784518252938301936001929092019190830190612d0a565b509695505050505050565b6102008082528a516001600160a01b039081169183019190915260208b015160ff1661022083015260408b015161ffff1661024083015260608b01511661026082015260808a0151610100610280830152600090612d97610300840182612c9e565b905060a08c01516102a084015260c08c01516102c084015260e08c01516102e0840152612dd1602084018c80518252602090810151910152565b8951606084015260208a01516080840152885160a0840152602089015160c0840152604089015160e084015260608901511515610100840152828103610120840152612e1d8189612cca565b87516001600160a01b0316610140850152602088015161016085015260408801516101808501529150612e4d9050565b846101a0830152836101c0830152612e6a6101e083018415159052565b9a9950505050505050505050565b60008060408385031215612e8b57600080fd5b8235612e9681612bee565b946020939093013593505050565b634e487b7160e01b600052604160045260246000fd5b600082601f830112612ecb57600080fd5b813567ffffffffffffffff80821115612ee657612ee6612ea4565b604051601f8301601f19908116603f01168101908282118183101715612f0e57612f0e612ea4565b81604052838152866020858801011115612f2757600080fd5b836020870160208301376000602085830101528094505050505092915050565b600080600080600060a08688031215612f5f57600080fd5b8535945060208601359350604086013561ffff81168114612f7f57600080fd5b925060608601359150608086013567ffffffffffffffff811115612fa257600080fd5b612fae88828901612eba565b9150509295509295909350565b600060208284031215612fcd57600080fd5b813561114a81612bee565b60008060408385031215612feb57600080fd5b823591506020830135612c3481612bee565b60008060006060848603121561301257600080fd5b8335925060208401359150604084013567ffffffffffffffff81111561303757600080fd5b61304386828701612eba565b9150509250925092565b600181811c9082168061306157607f821691505b60208210810361308157634e487b7160e01b600052602260045260246000fd5b50919050565b634e487b7160e01b600052601160045260246000fd5b80820180821115610e9357610e93613087565b634e487b7160e01b600052603260045260246000fd5b6000806000606084860312156130db57600080fd5b835192506020840151915060408401516130f481612bee565b809150509250925092565b600181815b8085111561313a57816000190482111561312057613120613087565b8085161561312d57918102915b93841c9390800290613104565b509250929050565b60008261315157506001610e93565b8161315e57506000610e93565b8160018114613174576002811461317e5761319a565b6001915050610e93565b60ff84111561318f5761318f613087565b50506001821b610e93565b5060208310610133831016604e8410600b84101617156131bd575081810a610e93565b6131c783836130ff565b80600019048211156131db576131db613087565b029392505050565b600061114a60ff841683613142565b8082028115828204841417610e9357610e93613087565b6020808252600e908201526d139bdd08185d5d1a1bdc9a5e995960921b604082015260600190565b60008261324e57634e487b7160e01b600052601260045260246000fd5b500490565b60006020828403121561326557600080fd5b5051919050565b81810381811115610e9357610e93613087565b60208152600061114a6020830184612c9e565b6000602082840312156132a457600080fd5b8151801515811461114a57600080fd5b6040815260006132c76040830185612c9e565b905060018060a01b03831660208301529392505050565b6000602082840312156132f057600080fd5b815161114a81612bee565b6000825161330d818460208701612c7a565b919091019291505056fea26469706673582212204bad1b2bf31c0c4434ffa167492690039789642b77a08b58edce96305b2f43fb64736f6c63430008110033",
    "linkReferences": {
      "src/lib/SaloonLib.sol": {
        "SaloonLib": [
          {
            "start": 2240,
            "length": 20
          },
          {
            "start": 3198,
            "length": 20
          }
        ]
      }
    }
  },
  "methodIdentifiers": {
    "YEAR()": "83914540",
    "acceptOwnershipTransfer()": "b842e87f",
    "activeStrategies(uint256)": "b20b2429",
    "activeTokens(uint256)": "9f224f35",
    "calcRequiredPremiumBalancePerPeriod(uint256,uint256)": "836ef1fa",
    "compoundYieldForPid(uint256)": "e78ea3df",
    "makeProjectDeposit(uint256,uint256,string)": "ae07f948",
    "minTokenStakeAmount(address)": "39458723",
    "nftInfo(uint256)": "1f8bc790",
    "owner()": "8da5cb5b",
    "pidNFTList(uint256,uint256)": "96ea48e8",
    "pidStrategies(uint256,bytes32)": "074ecf03",
    "poolInfo(uint256)": "1526fe27",
    "projectDepositWithdrawal(uint256,uint256)": "983c1ce0",
    "receiveStrategyYield(address,uint256)": "1aebcecb",
    "referralBalances(address,address)": "011b408b",
    "saloonBounty()": "79923898",
    "saloonBountyProfit(address)": "e45abd0f",
    "saloonManager()": "220e1124",
    "saloonPremiumProfit(address)": "ca006148",
    "saloonProjectPortal()": "277fd2a1",
    "saloonStrategyProfit(address)": "598d17bf",
    "saloonView()": "0a07f543",
    "scheduleProjectDepositWithdrawal(uint256,uint256)": "5669cbef",
    "setAPYandPoolCapAndDeposit(uint256,uint256,uint16,uint256,string)": "30ca0794",
    "strategyAddressToPid(address)": "957deecc",
    "strategyFactory()": "9ef35710",
    "tokenWhitelist(address)": "753d7563",
    "transferOwnership(address)": "f2fde38b",
    "updateProjectWalletAddress(uint256,address)": "995974c4",
    "viewBountyBalance(uint256)": "6ac6d812",
    "windDownBounty(uint256)": "bb7019c1",
    "withdrawProjectYield(uint256)": "db53e8b5"
  },
  "id": 44
}