{
  "abi": [
    {
      "anonymous": false,
      "inputs": [
        {
          "indexed": true,
          "internalType": "uint256",
          "name": "pid",
          "type": "uint256"
        },
        {
          "indexed": false,
          "internalType": "uint256",
          "name": "oldAmount",
          "type": "uint256"
        },
        {
          "indexed": false,
          "internalType": "uint256",
          "name": "newAmount",
          "type": "uint256"
        }
      ],
      "name": "BountyBalanceChanged",
      "type": "event"
    },
    {
      "anonymous": false,
      "inputs": [
        {
          "indexed": true,
          "internalType": "address",
          "name": "hunter",
          "type": "address"
        },
        {
          "indexed": true,
          "internalType": "address",
          "name": "token",
          "type": "address"
        },
        {
          "indexed": false,
          "internalType": "uint256",
          "name": "amount",
          "type": "uint256"
        }
      ],
      "name": "BountyPaid",
      "type": "event"
    },
    {
      "anonymous": false,
      "inputs": [
        {
          "indexed": false,
          "internalType": "uint8",
          "name": "version",
          "type": "uint8"
        }
      ],
      "name": "Initialized",
      "type": "event"
    },
    {
      "anonymous": false,
      "inputs": [
        {
          "indexed": true,
          "internalType": "uint256",
          "name": "pid",
          "type": "uint256"
        },
        {
          "indexed": true,
          "internalType": "address",
          "name": "token",
          "type": "address"
        },
        {
          "indexed": false,
          "internalType": "uint256",
          "name": "tokenDecimals",
          "type": "uint256"
        }
      ],
      "name": "NewBountyDeployed",
      "type": "event"
    },
    {
      "anonymous": false,
      "inputs": [
        {
          "indexed": true,
          "internalType": "address",
          "name": "previousOwner",
          "type": "address"
        },
        {
          "indexed": true,
          "internalType": "address",
          "name": "newOwner",
          "type": "address"
        }
      ],
      "name": "OwnershipTransferred",
      "type": "event"
    },
    {
      "anonymous": false,
      "inputs": [
        {
          "indexed": true,
          "internalType": "uint256",
          "name": "pid",
          "type": "uint256"
        },
        {
          "indexed": false,
          "internalType": "uint256",
          "name": "amount",
          "type": "uint256"
        }
      ],
      "name": "PremiumBilled",
      "type": "event"
    },
    {
      "anonymous": false,
      "inputs": [
        {
          "indexed": true,
          "internalType": "address",
          "name": "user",
          "type": "address"
        },
        {
          "indexed": true,
          "internalType": "uint256",
          "name": "pid",
          "type": "uint256"
        },
        {
          "indexed": false,
          "internalType": "uint256",
          "name": "amount",
          "type": "uint256"
        }
      ],
      "name": "Staked",
      "type": "event"
    },
    {
      "anonymous": false,
      "inputs": [
        {
          "indexed": true,
          "internalType": "address",
          "name": "user",
          "type": "address"
        },
        {
          "indexed": true,
          "internalType": "uint256",
          "name": "pid",
          "type": "uint256"
        },
        {
          "indexed": false,
          "internalType": "uint256",
          "name": "amount",
          "type": "uint256"
        }
      ],
      "name": "Unstaked",
      "type": "event"
    },
    {
      "anonymous": false,
      "inputs": [
        {
          "indexed": true,
          "internalType": "uint256",
          "name": "pid",
          "type": "uint256"
        },
        {
          "indexed": false,
          "internalType": "uint256",
          "name": "amount",
          "type": "uint256"
        }
      ],
      "name": "WithdrawalOrUnstakeScheduled",
      "type": "event"
    },
    {
      "anonymous": false,
      "inputs": [
        {
          "indexed": true,
          "internalType": "address",
          "name": "referrer",
          "type": "address"
        },
        {
          "indexed": false,
          "internalType": "uint256",
          "name": "amount",
          "type": "uint256"
        }
      ],
      "name": "referralPaid",
      "type": "event"
    },
    {
      "anonymous": false,
      "inputs": [
        {
          "indexed": true,
          "internalType": "address",
          "name": "token",
          "type": "address"
        },
        {
          "indexed": true,
          "internalType": "bool",
          "name": "whitelisted",
          "type": "bool"
        }
      ],
      "name": "tokenWhitelistUpdated",
      "type": "event"
    },
    {
      "inputs": [],
      "name": "acceptOwnershipTransfer",
      "outputs": [],
      "stateMutability": "nonpayable",
      "type": "function"
    },
    {
      "inputs": [
        {
          "internalType": "uint256",
          "name": "",
          "type": "uint256"
        }
      ],
      "name": "activeStrategies",
      "outputs": [
        {
          "internalType": "bytes32",
          "name": "",
          "type": "bytes32"
        }
      ],
      "stateMutability": "view",
      "type": "function"
    },
    {
      "inputs": [
        {
          "internalType": "uint256",
          "name": "",
          "type": "uint256"
        }
      ],
      "name": "activeTokens",
      "outputs": [
        {
          "internalType": "address",
          "name": "",
          "type": "address"
        }
      ],
      "stateMutability": "view",
      "type": "function"
    },
    {
      "inputs": [
        {
          "internalType": "uint256",
          "name": "_poolCap",
          "type": "uint256"
        },
        {
          "internalType": "uint256",
          "name": "_apy",
          "type": "uint256"
        }
      ],
      "name": "calcRequiredPremiumBalancePerPeriod",
      "outputs": [
        {
          "internalType": "uint256",
          "name": "requiredPremiumBalance",
          "type": "uint256"
        }
      ],
      "stateMutability": "pure",
      "type": "function"
    },
    {
      "inputs": [
        {
          "internalType": "uint256",
          "name": "_pid",
          "type": "uint256"
        }
      ],
      "name": "compoundYieldForPid",
      "outputs": [],
      "stateMutability": "nonpayable",
      "type": "function"
    },
    {
      "inputs": [
        {
          "internalType": "address",
          "name": "_strategyFactory",
          "type": "address"
        }
      ],
      "name": "initialize",
      "outputs": [],
      "stateMutability": "nonpayable",
      "type": "function"
    },
    {
      "inputs": [
        {
          "internalType": "uint256",
          "name": "_pid",
          "type": "uint256"
        },
        {
          "internalType": "uint256",
          "name": "_deposit",
          "type": "uint256"
        },
        {
          "internalType": "string",
          "name": "_strategyName",
          "type": "string"
        }
      ],
      "name": "makeProjectDeposit",
      "outputs": [],
      "stateMutability": "nonpayable",
      "type": "function"
    },
    {
      "inputs": [
        {
          "internalType": "address",
          "name": "",
          "type": "address"
        }
      ],
      "name": "minTokenStakeAmount",
      "outputs": [
        {
          "internalType": "uint256",
          "name": "",
          "type": "uint256"
        }
      ],
      "stateMutability": "view",
      "type": "function"
    },
    {
      "inputs": [
        {
          "internalType": "uint256",
          "name": "",
          "type": "uint256"
        }
      ],
      "name": "nftInfo",
      "outputs": [
        {
          "internalType": "uint256",
          "name": "pid",
          "type": "uint256"
        },
        {
          "internalType": "uint256",
          "name": "amount",
          "type": "uint256"
        },
        {
          "internalType": "uint256",
          "name": "xDelta",
          "type": "uint256"
        },
        {
          "internalType": "uint256",
          "name": "apy",
          "type": "uint256"
        },
        {
          "internalType": "uint256",
          "name": "unclaimed",
          "type": "uint256"
        },
        {
          "internalType": "uint256",
          "name": "lastClaimedTime",
          "type": "uint256"
        },
        {
          "internalType": "uint256",
          "name": "timelock",
          "type": "uint256"
        },
        {
          "internalType": "uint256",
          "name": "timelimit",
          "type": "uint256"
        }
      ],
      "stateMutability": "view",
      "type": "function"
    },
    {
      "inputs": [],
      "name": "owner",
      "outputs": [
        {
          "internalType": "address",
          "name": "",
          "type": "address"
        }
      ],
      "stateMutability": "view",
      "type": "function"
    },
    {
      "inputs": [
        {
          "internalType": "uint256",
          "name": "",
          "type": "uint256"
        },
        {
          "internalType": "uint256",
          "name": "",
          "type": "uint256"
        }
      ],
      "name": "pidNFTList",
      "outputs": [
        {
          "internalType": "uint256",
          "name": "",
          "type": "uint256"
        }
      ],
      "stateMutability": "view",
      "type": "function"
    },
    {
      "inputs": [
        {
          "internalType": "uint256",
          "name": "",
          "type": "uint256"
        },
        {
          "internalType": "bytes32",
          "name": "",
          "type": "bytes32"
        }
      ],
      "name": "pidStrategies",
      "outputs": [
        {
          "internalType": "address",
          "name": "",
          "type": "address"
        }
      ],
      "stateMutability": "view",
      "type": "function"
    },
    {
      "inputs": [
        {
          "internalType": "uint256",
          "name": "",
          "type": "uint256"
        }
      ],
      "name": "poolInfo",
      "outputs": [
        {
          "components": [
            {
              "internalType": "contract IERC20",
              "name": "token",
              "type": "address"
            },
            {
              "internalType": "uint8",
              "name": "tokenDecimals",
              "type": "uint8"
            },
            {
              "internalType": "uint16",
              "name": "apy",
              "type": "uint16"
            },
            {
              "internalType": "address",
              "name": "projectWallet",
              "type": "address"
            },
            {
              "internalType": "string",
              "name": "projectName",
              "type": "string"
            },
            {
              "internalType": "uint256",
              "name": "poolCap",
              "type": "uint256"
            },
            {
              "internalType": "uint256",
              "name": "totalStaked",
              "type": "uint256"
            },
            {
              "internalType": "uint256",
              "name": "scalingMultiplier",
              "type": "uint256"
            }
          ],
          "internalType": "struct ISaloon.GeneralInfo",
          "name": "generalInfo",
          "type": "tuple"
        },
        {
          "components": [
            {
              "internalType": "uint256",
              "name": "projectDepositHeld",
              "type": "uint256"
            },
            {
              "internalType": "uint256",
              "name": "projectDepositInStrategy",
              "type": "uint256"
            }
          ],
          "internalType": "struct ISaloon.DepositInfo",
          "name": "depositInfo",
          "type": "tuple"
        },
        {
          "components": [
            {
              "internalType": "uint256",
              "name": "premiumBalance",
              "type": "uint256"
            },
            {
              "internalType": "uint256",
              "name": "premiumAvailable",
              "type": "uint256"
            }
          ],
          "internalType": "struct ISaloon.PremiumInfo",
          "name": "premiumInfo",
          "type": "tuple"
        },
        {
          "components": [
            {
              "internalType": "uint256",
              "name": "timelock",
              "type": "uint256"
            },
            {
              "internalType": "uint256",
              "name": "timeLimit",
              "type": "uint256"
            },
            {
              "internalType": "uint256",
              "name": "withdrawalScheduledAmount",
              "type": "uint256"
            },
            {
              "internalType": "bool",
              "name": "withdrawalExecuted",
              "type": "bool"
            }
          ],
          "internalType": "struct ISaloon.TimelockInfo",
          "name": "poolTimelock",
          "type": "tuple"
        },
        {
          "components": [
            {
              "internalType": "uint256",
              "name": "currentX",
              "type": "uint256"
            },
            {
              "internalType": "uint256",
              "name": "currentY",
              "type": "uint256"
            },
            {
              "internalType": "uint256",
              "name": "totalSupply",
              "type": "uint256"
            },
            {
              "internalType": "uint256[]",
              "name": "unstakedTokens",
              "type": "uint256[]"
            }
          ],
          "internalType": "struct ISaloon.CurveInfo",
          "name": "curveInfo",
          "type": "tuple"
        },
        {
          "components": [
            {
              "internalType": "address",
              "name": "referrer",
              "type": "address"
            },
            {
              "internalType": "uint256",
              "name": "referralFee",
              "type": "uint256"
            },
            {
              "internalType": "uint256",
              "name": "endTime",
              "type": "uint256"
            }
          ],
          "internalType": "struct ISaloon.ReferralInfo",
          "name": "referralInfo",
          "type": "tuple"
        },
        {
          "internalType": "uint256",
          "name": "freezeTime",
          "type": "uint256"
        },
        {
          "internalType": "bool",
          "name": "isActive",
          "type": "bool"
        }
      ],
      "stateMutability": "view",
      "type": "function"
    },
    {
      "inputs": [
        {
          "internalType": "uint256",
          "name": "_pid",
          "type": "uint256"
        },
        {
          "internalType": "uint256",
          "name": "_amount",
          "type": "uint256"
        }
      ],
      "name": "projectDepositWithdrawal",
      "outputs": [
        {
          "internalType": "bool",
          "name": "",
          "type": "bool"
        }
      ],
      "stateMutability": "nonpayable",
      "type": "function"
    },
    {
      "inputs": [
        {
          "internalType": "address",
          "name": "_token",
          "type": "address"
        },
        {
          "internalType": "uint256",
          "name": "_amount",
          "type": "uint256"
        }
      ],
      "name": "receiveStrategyYield",
      "outputs": [],
      "stateMutability": "nonpayable",
      "type": "function"
    },
    {
      "inputs": [
        {
          "internalType": "address",
          "name": "",
          "type": "address"
        },
        {
          "internalType": "address",
          "name": "",
          "type": "address"
        }
      ],
      "name": "referralBalances",
      "outputs": [
        {
          "internalType": "uint256",
          "name": "",
          "type": "uint256"
        }
      ],
      "stateMutability": "view",
      "type": "function"
    },
    {
      "inputs": [],
      "name": "saloonBounty",
      "outputs": [
        {
          "internalType": "contract ISaloonBounty",
          "name": "",
          "type": "address"
        }
      ],
      "stateMutability": "view",
      "type": "function"
    },
    {
      "inputs": [
        {
          "internalType": "address",
          "name": "",
          "type": "address"
        }
      ],
      "name": "saloonBountyProfit",
      "outputs": [
        {
          "internalType": "uint256",
          "name": "",
          "type": "uint256"
        }
      ],
      "stateMutability": "view",
      "type": "function"
    },
    {
      "inputs": [],
      "name": "saloonManager",
      "outputs": [
        {
          "internalType": "contract ISaloonManager",
          "name": "",
          "type": "address"
        }
      ],
      "stateMutability": "view",
      "type": "function"
    },
    {
      "inputs": [
        {
          "internalType": "address",
          "name": "",
          "type": "address"
        }
      ],
      "name": "saloonPremiumProfit",
      "outputs": [
        {
          "internalType": "uint256",
          "name": "",
          "type": "uint256"
        }
      ],
      "stateMutability": "view",
      "type": "function"
    },
    {
      "inputs": [],
      "name": "saloonProjectPortal",
      "outputs": [
        {
          "internalType": "contract ISaloonProjectPortal",
          "name": "",
          "type": "address"
        }
      ],
      "stateMutability": "view",
      "type": "function"
    },
    {
      "inputs": [
        {
          "internalType": "address",
          "name": "",
          "type": "address"
        }
      ],
      "name": "saloonStrategyProfit",
      "outputs": [
        {
          "internalType": "uint256",
          "name": "",
          "type": "uint256"
        }
      ],
      "stateMutability": "view",
      "type": "function"
    },
    {
      "inputs": [
        {
          "internalType": "uint256",
          "name": "_pid",
          "type": "uint256"
        },
        {
          "internalType": "uint256",
          "name": "_amount",
          "type": "uint256"
        }
      ],
      "name": "scheduleProjectDepositWithdrawal",
      "outputs": [
        {
          "internalType": "bool",
          "name": "",
          "type": "bool"
        }
      ],
      "stateMutability": "nonpayable",
      "type": "function"
    },
    {
      "inputs": [
        {
          "internalType": "uint256",
          "name": "_pid",
          "type": "uint256"
        },
        {
          "internalType": "uint256",
          "name": "_poolCap",
          "type": "uint256"
        },
        {
          "internalType": "uint16",
          "name": "_apy",
          "type": "uint16"
        },
        {
          "internalType": "uint256",
          "name": "_deposit",
          "type": "uint256"
        },
        {
          "internalType": "string",
          "name": "_strategyName",
          "type": "string"
        }
      ],
      "name": "setAPYandPoolCapAndDeposit",
      "outputs": [],
      "stateMutability": "nonpayable",
      "type": "function"
    },
    {
      "inputs": [
        {
          "internalType": "address",
          "name": "",
          "type": "address"
        }
      ],
      "name": "strategyAddressToPid",
      "outputs": [
        {
          "internalType": "uint256",
          "name": "",
          "type": "uint256"
        }
      ],
      "stateMutability": "view",
      "type": "function"
    },
    {
      "inputs": [
        {
          "internalType": "address",
          "name": "",
          "type": "address"
        }
      ],
      "name": "tokenWhitelist",
      "outputs": [
        {
          "internalType": "bool",
          "name": "",
          "type": "bool"
        }
      ],
      "stateMutability": "view",
      "type": "function"
    },
    {
      "inputs": [
        {
          "internalType": "address",
          "name": "newOwner",
          "type": "address"
        }
      ],
      "name": "transferOwnership",
      "outputs": [],
      "stateMutability": "nonpayable",
      "type": "function"
    },
    {
      "inputs": [
        {
          "internalType": "uint256",
          "name": "_pid",
          "type": "uint256"
        },
        {
          "internalType": "address",
          "name": "_projectWallet",
          "type": "address"
        }
      ],
      "name": "updateProjectWalletAddress",
      "outputs": [],
      "stateMutability": "nonpayable",
      "type": "function"
    },
    {
      "inputs": [
        {
          "internalType": "uint256",
          "name": "_pid",
          "type": "uint256"
        }
      ],
      "name": "viewBountyBalance",
      "outputs": [
        {
          "internalType": "uint256",
          "name": "",
          "type": "uint256"
        }
      ],
      "stateMutability": "view",
      "type": "function"
    },
    {
      "inputs": [
        {
          "internalType": "uint256",
          "name": "_pid",
          "type": "uint256"
        }
      ],
      "name": "windDownBounty",
      "outputs": [
        {
          "internalType": "bool",
          "name": "",
          "type": "bool"
        }
      ],
      "stateMutability": "nonpayable",
      "type": "function"
    },
    {
      "inputs": [
        {
          "internalType": "uint256",
          "name": "_pid",
          "type": "uint256"
        }
      ],
      "name": "withdrawProjectYield",
      "outputs": [
        {
          "internalType": "uint256",
          "name": "returnedAmount",
          "type": "uint256"
        }
      ],
      "stateMutability": "nonpayable",
      "type": "function"
    }
  ],
  "bytecode": {
    "object": "0x608060405234801561001057600080fd5b50613475806100206000396000f3fe608060405234801561001057600080fd5b50600436106101e55760003560e01c80638da5cb5b1161010f578063b842e87f116100a2578063db53e8b511610071578063db53e8b514610532578063e45abd0f14610545578063e78ea3df14610565578063f2fde38b1461057857600080fd5b8063b842e87f146104e4578063bb7019c1146104ec578063c4d66de8146104ff578063ca0061481461051257600080fd5b8063995974c4116100de578063995974c41461048b5780639f224f351461049e578063ae07f948146104b1578063b20b2429146104c457600080fd5b80638da5cb5b14610434578063957deecc1461044557806396ea48e814610465578063983c1ce01461047857600080fd5b806330ca0794116101875780636ac6d812116101565780636ac6d812146103d8578063753d7563146103eb578063799238981461040e578063836ef1fa1461042157600080fd5b806330ca07941461036257806339458723146103755780635669cbef14610395578063598d17bf146103b857600080fd5b80631aebcecb116101c35780631aebcecb1461029b5780631f8bc790146102b0578063220e11241461033c578063277fd2a11461034f57600080fd5b8063011b408b146101ea578063074ecf03146102285780631526fe2714610274575b600080fd5b6102156101f8366004612ceb565b600960209081526000928352604080842090915290825290205481565b6040519081526020015b60405180910390f35b61025c610236366004612d24565b600b6020908152600092835260408084209091529082529020546001600160a01b031681565b6040516001600160a01b03909116815260200161021f565b610287610282366004612d46565b61058b565b60405161021f989796959493929190612e1a565b6102ae6102a9366004612f55565b6107e7565b005b6103016102be366004612d46565b6004602081905260009182526040909120805460018201546002830154600384015494840154600585015460068601546007909601549496939592949192909188565b604080519889526020890197909752958701949094526060860192909252608085015260a084015260c083015260e08201526101000161021f565b60005461025c906001600160a01b031681565b60015461025c906001600160a01b031681565b6102ae610370366004613024565b6109a1565b610215610383366004613098565b60106020526000908152604090205481565b6103a86103a3366004612d24565b610d08565b604051901515815260200161021f565b6102156103c6366004613098565b60086020526000908152604090205481565b6102156103e6366004612d46565b610e48565b6103a86103f9366004613098565b600e6020526000908152604090205460ff1681565b60025461025c906001600160a01b031681565b61021561042f366004612d24565b6110f1565b6044546001600160a01b031661025c565b610215610453366004613098565b600d6020526000908152604090205481565b610215610473366004612d24565b611127565b6103a8610486366004612d24565b611158565b6102ae6104993660046130b5565b611322565b61025c6104ac366004612d46565b611678565b6102ae6104bf3660046130da565b6116a2565b6102156104d2366004612d46565b600c6020526000908152604090205481565b6102ae6117aa565b6103a86104fa366004612d46565b61182a565b6102ae61050d366004613098565b611b73565b610215610520366004613098565b60076020526000908152604090205481565b610215610540366004612d46565b611c85565b610215610553366004613098565b60066020526000908152604090205481565b6102ae610573366004612d46565b612002565b6102ae610586366004613098565b6123b4565b6003818154811061059b57600080fd5b60009182526020918290206040805161010081018252601790930290910180546001600160a01b03808216855260ff600160a01b8304169585019590955261ffff600160a81b9091041691830191909152600181015490921660608201526002820180549293509091839160808401916106149061312a565b80601f01602080910402602001604051908101604052809291908181526020018280546106409061312a565b801561068d5780601f106106625761010080835404028352916020019161068d565b820191906000526020600020905b81548152906001019060200180831161067057829003601f168201915b50505091835250506003820154602080830191909152600483015460408084019190915260059093015460609283015282518084018452600686015481526007860154818301528351808501855260088701548152600987015481840152845160808082018752600a8901548252600b89015482860152600c89015482880152600d89015460ff1615158287015286519081018752600e890180548252600f8a01548287015260108a01548289015260118a018054895181890281018901909a52808a52999a959994989397959692959194918601939290919083018282801561079657602002820191906000526020600020905b815481526020019060010190808311610782575b5050509190925250506040805160608101825260128501546001600160a01b031681526013850154602082015260148501549181019190915260158401546016909401549293909290915060ff1688565b6107fc6001600160a01b038316333084612443565b50336000908152600d602052604081205490819003610848576001600160a01b0383166000908152600860205260408120805484929061083d90849061317a565b9091555061099c9050565b600080600073__$4defa815a6c8401eda00ac6be9b95d3cdb$__63fc76fff3866003878154811061087b5761087b61318d565b906000526020600020906017020160120160020154600388815481106108a3576108a361318d565b906000526020600020906017020160120160010154600389815481106108cb576108cb61318d565b600091825260209091206017909102016012015460405160e086901b6001600160e01b03191681526004810194909452602484019290925260448301526001600160a01b03166064820152608401606060405180830381865af4158015610936573d6000803e3d6000fd5b505050506040513d601f19601f8201168201806040525081019061095a91906131a3565b92509250925061096b8187846124bd565b6001600160a01b0386166000908152600860205260408120805485929061099390849061317a565b90915550505050505b505050565b6109a961250d565b6000600386815481106109be576109be61318d565b60009182526020909120601790910201601681015490915060ff161580156109e857506003810154155b610a395760405162461bcd60e51b815260206004820152601860248201527f506f6f6c20616c726561647920696e697469616c697a6564000000000000000060448201526064015b60405180910390fd5b60008461ffff16118015610a5357506127108461ffff1611155b610a925760405162461bcd60e51b815260206004820152601060248201526f415059206f7574206f662072616e676560801b6044820152606401610a30565b8054610aa990600160a01b900460ff16600a6132c0565b610ab5906103e86132cf565b8510158015610ae757508054610ad690600160a01b900460ff16600a6132c0565b610ae390629896806132cf565b8511155b610b2b5760405162461bcd60e51b8152602060048201526015602482015274506f6f6c20636170206f7574206f662072616e676560581b6044820152606401610a30565b60018101546001600160a01b03163314610b575760405162461bcd60e51b8152600401610a30906132e6565b6000610b67868661ffff166110f1565b90506000612710610b7a6103e8846132cf565b610b84919061330e565b90506000610b9189610e48565b9050610bb53330610ba2868a61317a565b87546001600160a01b0316929190612443565b5085846006016000016000828254610bcd919061317a565b909155505060038401889055835461ffff60a81b1916600160a81b61ffff89169081029190911785556040516334d5118560e01b8152600481019190915273__$4defa815a6c8401eda00ac6be9b95d3cdb$__906334d5118590602401602060405180830381865af4158015610c47573d6000803e3d6000fd5b505050506040513d601f19601f82011682018060405250810190610c6b9190613330565b600585015560168401805460ff1916600117905560088401839055610c908284613349565b6009850155845115610ca957610ca7898688612566565b505b6000610cb48a610e48565b60408051848152602081018390529192508b917fa3ea4fb8dee4d414198cb197af6eae4fe483c1a0b849dc50e53b9bf1a60e2166910160405180910390a25050505050610d016001607755565b5050505050565b60008060038481548110610d1e57610d1e61318d565b906000526020600020906017020190508281600601600101548260060160000154610d49919061317a565b1015610d975760405162461bcd60e51b815260206004820152601a60248201527f416d6f756e7420626967676572207468616e206465706f7369740000000000006044820152606401610a30565b60018101546001600160a01b03163314610dc35760405162461bcd60e51b8152600401610a30906132e6565b610dd062093a804261317a565b600a820155610de262093a804261317a565b610def906203f48061317a565b600b820155600c8101839055600d8101805460ff1916905560405183815284907fb3b9c925de3673837b40c6b4d4463a8f88dc821cd27e07f1ff6bf6abf96413a59060200160405180910390a260019150505b92915050565b60008060038381548110610e5e57610e5e61318d565b6000918252602090912060408051610200810190915260179092020180546001600160a01b038082166101008501908152600160a01b830460ff16610120860152600160a81b90920461ffff16610140850152600183015416610160840152600282018054849291849161018085019190610ed89061312a565b80601f0160208091040260200160405190810160405280929190818152602001828054610f049061312a565b8015610f515780601f10610f2657610100808354040283529160200191610f51565b820191906000526020600020905b815481529060010190602001808311610f3457829003601f168201915b505050918352505060038201546020808301919091526004830154604080840191909152600590930154606092830152928452815180830183526006860154815260078601548185015284840152815180830183526008860154815260098601548185015284830152815160808082018452600a8701548252600b87015482860152600c87015482850152600d87015460ff161515828401528583019190915282518082018452600e870180548252600f8801548287015260108801548286015260118801805486518189028101890190975280875293909701969195909493860193929083018282801561106557602002820191906000526020600020905b815481526020019060010190808311611051575b505050919092525050508152604080516060808201835260128501546001600160a01b0316825260138501546020838101919091526014860154838501528085019290925260158501549284019290925260169093015460ff161515910152818101519081015190519192506110da9161317a565b815160c001516110ea919061317a565b9392505050565b60006301e1338061271062093a8061110985876132cf565b61111391906132cf565b61111d919061330e565b6110ea919061330e565b6005602052816000526040600020818154811061114357600080fd5b90600052602060002001600091509150505481565b600061116261250d565b6000600384815481106111775761117761318d565b6000918252602090912060179091020160018101549091506001600160a01b031633146111b65760405162461bcd60e51b8152600401610a30906132e6565b600a810154421180156111cc5750600b81015442105b80156111dd5750600d81015460ff16155b80156111ed5750600c8101548311155b80156111fc5750600a81015415155b61125a5760405162461bcd60e51b815260206004820152602960248201527f54696d656c6f636b206e6f7420736574206f72206e6f7420636f6d706c6574656044820152686420696e2074696d6560b81b6064820152608401610a30565b600d8101805460ff1916600117905560068101548311156112805761127e846126a1565b505b600061128b85610e48565b9050838260060160000160008282546112a49190613349565b9091555050600182015482546112c7916001600160a01b03918216911686612803565b5060006112d386610e48565b604080518481526020810183905291925087917fa3ea4fb8dee4d414198cb197af6eae4fe483c1a0b849dc50e53b9bf1a60e2166910160405180910390a260019350505050610e426001607755565b816000600382815481106113385761133861318d565b6000918252602090912060408051610200810190915260179092020180546001600160a01b038082166101008501908152600160a01b830460ff16610120860152600160a81b90920461ffff166101408501526001830154166101608401526002820180548492918491610180850191906113b29061312a565b80601f01602080910402602001604051908101604052809291908181526020018280546113de9061312a565b801561142b5780601f106114005761010080835404028352916020019161142b565b820191906000526020600020905b81548152906001019060200180831161140e57829003601f168201915b505050918352505060038201546020808301919091526004830154604080840191909152600590930154606092830152928452815180830183526006860154815260078601548185015284840152815180830183526008860154815260098601548185015284830152815160808082018452600a8701548252600b87015482860152600c87015482850152600d87015460ff161515828401528583019190915282518082018452600e870180548252600f8801548287015260108801548286015260118801805486518189028101890190975280875293909701969195909493860193929083018282801561153f57602002820191906000526020600020905b81548152602001906001019080831161152b575b505050919092525050508152604080516060808201835260128501546001600160a01b039081168352601386015460208085019190915260148701548486015285019290925260158501549284019290925260169093015460ff1615159181019190915282510151919250163314806115c257506044546001600160a01b031633145b6115de5760405162461bcd60e51b8152600401610a30906132e6565b6001600160a01b03831661162d5760405162461bcd60e51b8152602060048201526016602482015275496e76616c69642077616c6c6574206164647265737360501b6044820152606401610a30565b82600385815481106116415761164161318d565b6000918252602090912060179091020160010180546001600160a01b0319166001600160a01b039290921691909117905550505050565b600f818154811061168857600080fd5b6000918252602090912001546001600160a01b0316905081565b6116aa61250d565b6000600384815481106116bf576116bf61318d565b6000918252602090912060179091020160018101549091506001600160a01b031633146116fe5760405162461bcd60e51b8152600401610a30906132e6565b600061170985610e48565b8254909150611723906001600160a01b0316333087612443565b508382600601600001600082825461173b919061317a565b909155505082511561175457611752858486612566565b505b600061175f86610e48565b604080518481526020810183905291925087917fa3ea4fb8dee4d414198cb197af6eae4fe483c1a0b849dc50e53b9bf1a60e2166910160405180910390a250505061099c6001607755565b6045546001600160a01b031633146118135760405162461bcd60e51b815260206004820152602660248201527f6f6e6c792070656e64696e67206f776e65722063616e2061636365707420747260448201526530b739b332b960d11b6064820152608401610a30565b604554611828906001600160a01b0316612840565b565b6000816000600382815481106118425761184261318d565b6000918252602090912060408051610200810190915260179092020180546001600160a01b038082166101008501908152600160a01b830460ff16610120860152600160a81b90920461ffff166101408501526001830154166101608401526002820180548492918491610180850191906118bc9061312a565b80601f01602080910402602001604051908101604052809291908181526020018280546118e89061312a565b80156119355780601f1061190a57610100808354040283529160200191611935565b820191906000526020600020905b81548152906001019060200180831161191857829003601f168201915b505050918352505060038201546020808301919091526004830154604080840191909152600590930154606092830152928452815180830183526006860154815260078601548185015284840152815180830183526008860154815260098601548185015284830152815160808082018452600a8701548252600b87015482860152600c87015482850152600d87015460ff161515828401528583019190915282518082018452600e870180548252600f88015482870152601088015482860152601188018054865181890281018901909752808752939097019691959094938601939290830182828015611a4957602002820191906000526020600020905b815481526020019060010190808311611a35575b505050919092525050508152604080516060808201835260128501546001600160a01b039081168352601386015460208085019190915260148701548486015285019290925260158501549284019290925260169093015460ff161515918101919091528251015191925016331480611acc57506044546001600160a01b031633145b611ae85760405162461bcd60e51b8152600401610a30906132e6565b600060038581548110611afd57611afd61318d565b60009182526020909120601790910201601681015490915060ff16611b565760405162461bcd60e51b815260206004820152600f60248201526e506f6f6c206e6f742061637469766560881b6044820152606401610a30565b60168101805460ff19169055426015909101555060019392505050565b601154610100900460ff1615808015611b935750601154600160ff909116105b80611bad5750303b158015611bad575060115460ff166001145b611c105760405162461bcd60e51b815260206004820152602e60248201527f496e697469616c697a61626c653a20636f6e747261637420697320616c72656160448201526d191e481a5b9a5d1a585b1a5e995960921b6064820152608401610a30565b6011805460ff191660011790558015611c33576011805461ff0019166101001790555b611c3b61289d565b8015611c81576011805461ff0019169055604051600181527f7f26b83ff96e1f2b6a682f133852f6798a09c465da95921460cefb38474024989060200160405180910390a15b5050565b6000611c8f61250d565b600060038381548110611ca457611ca461318d565b6000918252602090912060408051610200810190915260179092020180546001600160a01b038082166101008501908152600160a01b830460ff16610120860152600160a81b90920461ffff16610140850152600183015416610160840152600282018054849291849161018085019190611d1e9061312a565b80601f0160208091040260200160405190810160405280929190818152602001828054611d4a9061312a565b8015611d975780601f10611d6c57610100808354040283529160200191611d97565b820191906000526020600020905b815481529060010190602001808311611d7a57829003601f168201915b505050918352505060038201546020808301919091526004830154604080840191909152600590930154606092830152928452815180830183526006860154815260078601548185015284840152815180830183526008860154815260098601548185015284830152815160808082018452600a8701548252600b87015482860152600c87015482850152600d87015460ff161515828401528583019190915282518082018452600e870180548252600f88015482870152601088015482860152601188018054865181890281018901909752808752939097019691959094938601939290830182828015611eab57602002820191906000526020600020905b815481526020019060010190808311611e97575b505050919092525050508152604080516060808201835260128501546001600160a01b039081168352601386015460208085019190915260148701548486015285019290925260158501549284019290925260169093015460ff1615159181019190915282510151919250163314611f355760405162461bcd60e51b8152600401610a30906132e6565b6000838152600c60205260409020548015611ff1576000848152600b602090815260408083208484528252808320548151633941ea2960e21b815291516001600160a01b0390911693849363e507a8a49360048082019492939183900301908290875af1158015611faa573d6000803e3d6000fd5b505050506040513d601f19601f82011682018060405250810190611fce9190613330565b835160608101519051919550611fee916001600160a01b03169086612803565b50505b5050611ffd6001607755565b919050565b806000600382815481106120185761201861318d565b6000918252602090912060408051610200810190915260179092020180546001600160a01b038082166101008501908152600160a01b830460ff16610120860152600160a81b90920461ffff166101408501526001830154166101608401526002820180548492918491610180850191906120929061312a565b80601f01602080910402602001604051908101604052809291908181526020018280546120be9061312a565b801561210b5780601f106120e05761010080835404028352916020019161210b565b820191906000526020600020905b8154815290600101906020018083116120ee57829003601f168201915b505050918352505060038201546020808301919091526004830154604080840191909152600590930154606092830152928452815180830183526006860154815260078601548185015284840152815180830183526008860154815260098601548185015284830152815160808082018452600a8701548252600b87015482860152600c87015482850152600d87015460ff161515828401528583019190915282518082018452600e870180548252600f8801548287015260108801548286015260118801805486518189028101890190975280875293909701969195909493860193929083018282801561221f57602002820191906000526020600020905b81548152602001906001019080831161220b575b505050919092525050508152604080516060808201835260128501546001600160a01b039081168352601386015460208085019190915260148701548486015285019290925260158501549284019290925260169093015460ff1615159181019190915282510151919250163314806122a257506044546001600160a01b031633145b6122be5760405162461bcd60e51b8152600401610a30906132e6565b6122c661250d565b6000838152600c6020908152604080832054600b8352818420818552909252909120546001600160a01b031680156123a8576000816001600160a01b031663f69e20466040518163ffffffff1660e01b81526004016020604051808303816000875af115801561233a573d6000803e3d6000fd5b505050506040513d601f19601f8201168201806040525081019061235e9190613330565b905061236b600182613349565b6003878154811061237e5761237e61318d565b906000526020600020906017020160060160010160008282546123a1919061317a565b9091555050505b505061099c6001607755565b6123bc6128cc565b6001600160a01b0381166124215760405162461bcd60e51b815260206004820152602660248201527f4f776e61626c653a206e6577206f776e657220697320746865207a65726f206160448201526564647265737360d01b6064820152608401610a30565b604580546001600160a01b0319166001600160a01b0392909216919091179055565b6040516001600160a01b03808516602483015283166044820152606481018290526000906124b19086906323b872dd60e01b906084015b60408051601f198184030181529190526020810180516001600160e01b03166001600160e01b031990931692909217909152612926565b5060015b949350505050565b6001600160a01b0383161561099c576001600160a01b0380841660009081526009602090815260408083209386168352929052908120805483929061250390849061317a565b9091555050505050565b60026077540361255f5760405162461bcd60e51b815260206004820152601f60248201527f5265656e7472616e637947756172643a207265656e7472616e742063616c6c006044820152606401610a30565b6002607755565b6000806003858154811061257c5761257c61318d565b9060005260206000209060170201905060008460405160200161259f919061335c565b60408051601f1981840301815291815281516020928301206000898152600c9093529120549091508082146126975760006125d9886126a1565b905060006125e789896129f8565b90506001600160a01b038116156126945760068501805460009091558190612610600182613349565b6007880155865461262b906001600160a01b03168483612803565b50816001600160a01b0316630b5090076040518163ffffffff1660e01b81526004016020604051808303816000875af115801561266c573d6000803e3d6000fd5b505050506040513d601f19601f820116820180604052508101906126909190613330565b5050505b50505b5050509392505050565b600080600383815481106126b7576126b761318d565b60009182526020808320868452600c90915260408320805490849055601790920201925080156127fb576000858152600b602090815260408083208484528252808320548151637f1f087360e01b815291516001600160a01b0390911693928492637f1f08739260048083019392829003018187875af115801561273f573d6000803e3d6000fd5b505050506040513d601f19601f820116820180604052508101906127639190613330565b6040516348b1933560e01b8152600481018290529091506001600160a01b038316906348b19335906024016020604051808303816000875af11580156127ad573d6000803e3d6000fd5b505050506040513d601f19601f820116820180604052508101906127d19190613330565b60006007870181905560068701805492965086929091906127f390849061317a565b909155505050505b509392505050565b6040516001600160a01b03831660248201526044810182905260009061283690859063a9059cbb60e01b9060640161247a565b5060019392505050565b604480546001600160a01b038381166001600160a01b03198084168217909455604580549094169093556040519116919082907f8be0079c531659141344cd1fd0a4f28419497f9722a3daafe3b4186f6b6457e090600090a35050565b601154610100900460ff166128c45760405162461bcd60e51b8152600401610a309061336f565b611828612b80565b6044546001600160a01b031633146118285760405162461bcd60e51b815260206004820181905260248201527f4f776e61626c653a2063616c6c6572206973206e6f7420746865206f776e65726044820152606401610a30565b600061297b826040518060400160405280602081526020017f5361666545524332303a206c6f772d6c6576656c2063616c6c206661696c6564815250856001600160a01b0316612bb09092919063ffffffff16565b80519091501561099c578080602001905181019061299991906133ba565b61099c5760405162461bcd60e51b815260206004820152602a60248201527f5361666545524332303a204552433230206f7065726174696f6e20646964206e6044820152691bdd081cdd58d8d9595960b21b6064820152608401610a30565b600080600083604051602001612a0e919061335c565b60408051601f1981840301815291815281516020928301206000888152600b84528281208282529093529120549091506001600160a01b031680612afd57600a54600380546001600160a01b039092169163dff968019188918a908110612a7757612a7761318d565b60009182526020909120601790910201546040516001600160e01b031960e085901b168152612ab392916001600160a01b0316906004016133dc565b6020604051808303816000875af1158015612ad2573d6000803e3d6000fd5b505050506040513d601f19601f82011682018060405250810190612af69190613406565b9250612b18565b6000868152600c60205260409020919091559150610e429050565b6001600160a01b03831615612b76576000868152600b60209081526040808320858452825280832080546001600160a01b0319166001600160a01b0388169081179091558352600d8252808320899055888352600c90915290208290555b5090949350505050565b601154610100900460ff16612ba75760405162461bcd60e51b8152600401610a309061336f565b61182833612840565b60606124b5848460008585600080866001600160a01b03168587604051612bd79190613423565b60006040518083038185875af1925050503d8060008114612c14576040519150601f19603f3d011682016040523d82523d6000602084013e612c19565b606091505b5091509150612c2a87838387612c35565b979650505050505050565b60608315612ca4578251600003612c9d576001600160a01b0385163b612c9d5760405162461bcd60e51b815260206004820152601d60248201527f416464726573733a2063616c6c20746f206e6f6e2d636f6e74726163740000006044820152606401610a30565b50816124b5565b6124b58383815115612cb95781518083602001fd5b8060405162461bcd60e51b8152600401610a30919061335c565b6001600160a01b0381168114612ce857600080fd5b50565b60008060408385031215612cfe57600080fd5b8235612d0981612cd3565b91506020830135612d1981612cd3565b809150509250929050565b60008060408385031215612d3757600080fd5b50508035926020909101359150565b600060208284031215612d5857600080fd5b5035919050565b60005b83811015612d7a578181015183820152602001612d62565b50506000910152565b60008151808452612d9b816020860160208601612d5f565b601f01601f19169290920160200192915050565b60006080830182518452602080840151818601526040840151604086015260608401516080606087015282815180855260a0880191508383019450600092505b80831015612e0f5784518252938301936001929092019190830190612def565b509695505050505050565b6101e080825289516001600160a01b039081169183019190915260208a015160ff1661020083015260408a015161ffff1661022083015260608a0151166102408201526080890151610100610260830152600090612e7c6102e0840182612d83565b905060a08b015161028084015260c08b01516102a084015260e08b01516102c0840152612eb6602084018b80518252602090810151910152565b8851606084015260208901516080840152875160a0840152602088015160c0840152604088015160e084015260608801511515610100840152828103610120840152612f028188612daf565b86516001600160a01b0316610140850152602087015161016085015260408701516101808501529150612f329050565b836101a0830152612f486101c083018415159052565b9998505050505050505050565b60008060408385031215612f6857600080fd5b8235612f7381612cd3565b946020939093013593505050565b634e487b7160e01b600052604160045260246000fd5b600082601f830112612fa857600080fd5b813567ffffffffffffffff80821115612fc357612fc3612f81565b604051601f8301601f19908116603f01168101908282118183101715612feb57612feb612f81565b8160405283815286602085880101111561300457600080fd5b836020870160208301376000602085830101528094505050505092915050565b600080600080600060a0868803121561303c57600080fd5b8535945060208601359350604086013561ffff8116811461305c57600080fd5b925060608601359150608086013567ffffffffffffffff81111561307f57600080fd5b61308b88828901612f97565b9150509295509295909350565b6000602082840312156130aa57600080fd5b81356110ea81612cd3565b600080604083850312156130c857600080fd5b823591506020830135612d1981612cd3565b6000806000606084860312156130ef57600080fd5b8335925060208401359150604084013567ffffffffffffffff81111561311457600080fd5b61312086828701612f97565b9150509250925092565b600181811c9082168061313e57607f821691505b60208210810361315e57634e487b7160e01b600052602260045260246000fd5b50919050565b634e487b7160e01b600052601160045260246000fd5b80820180821115610e4257610e42613164565b634e487b7160e01b600052603260045260246000fd5b6000806000606084860312156131b857600080fd5b835192506020840151915060408401516131d181612cd3565b809150509250925092565b600181815b808511156132175781600019048211156131fd576131fd613164565b8085161561320a57918102915b93841c93908002906131e1565b509250929050565b60008261322e57506001610e42565b8161323b57506000610e42565b8160018114613251576002811461325b57613277565b6001915050610e42565b60ff84111561326c5761326c613164565b50506001821b610e42565b5060208310610133831016604e8410600b841016171561329a575081810a610e42565b6132a483836131dc565b80600019048211156132b8576132b8613164565b029392505050565b60006110ea60ff84168361321f565b8082028115828204841417610e4257610e42613164565b6020808252600e908201526d139bdd08185d5d1a1bdc9a5e995960921b604082015260600190565b60008261332b57634e487b7160e01b600052601260045260246000fd5b500490565b60006020828403121561334257600080fd5b5051919050565b81810381811115610e4257610e42613164565b6020815260006110ea6020830184612d83565b6020808252602b908201527f496e697469616c697a61626c653a20636f6e7472616374206973206e6f74206960408201526a6e697469616c697a696e6760a81b606082015260800190565b6000602082840312156133cc57600080fd5b815180151581146110ea57600080fd5b6040815260006133ef6040830185612d83565b905060018060a01b03831660208301529392505050565b60006020828403121561341857600080fd5b81516110ea81612cd3565b60008251613435818460208701612d5f565b919091019291505056fea26469706673582212203e142b0a3a90a1c14cada36d9f4156b714c4acae72dcdfc4349133b5989ef84064736f6c63430008110033",
    "linkReferences": {
      "src/lib/SaloonLib.sol": {
        "SaloonLib": [
          {
            "start": 2159,
            "length": 20
          },
          {
            "start": 3117,
            "length": 20
          }
        ]
      }
    }
  },
  "methodIdentifiers": {
    "acceptOwnershipTransfer()": "b842e87f",
    "activeStrategies(uint256)": "b20b2429",
    "activeTokens(uint256)": "9f224f35",
    "calcRequiredPremiumBalancePerPeriod(uint256,uint256)": "836ef1fa",
    "compoundYieldForPid(uint256)": "e78ea3df",
    "initialize(address)": "c4d66de8",
    "makeProjectDeposit(uint256,uint256,string)": "ae07f948",
    "minTokenStakeAmount(address)": "39458723",
    "nftInfo(uint256)": "1f8bc790",
    "owner()": "8da5cb5b",
    "pidNFTList(uint256,uint256)": "96ea48e8",
    "pidStrategies(uint256,bytes32)": "074ecf03",
    "poolInfo(uint256)": "1526fe27",
    "projectDepositWithdrawal(uint256,uint256)": "983c1ce0",
    "receiveStrategyYield(address,uint256)": "1aebcecb",
    "referralBalances(address,address)": "011b408b",
    "saloonBounty()": "79923898",
    "saloonBountyProfit(address)": "e45abd0f",
    "saloonManager()": "220e1124",
    "saloonPremiumProfit(address)": "ca006148",
    "saloonProjectPortal()": "277fd2a1",
    "saloonStrategyProfit(address)": "598d17bf",
    "scheduleProjectDepositWithdrawal(uint256,uint256)": "5669cbef",
    "setAPYandPoolCapAndDeposit(uint256,uint256,uint16,uint256,string)": "30ca0794",
    "strategyAddressToPid(address)": "957deecc",
    "tokenWhitelist(address)": "753d7563",
    "transferOwnership(address)": "f2fde38b",
    "updateProjectWalletAddress(uint256,address)": "995974c4",
    "viewBountyBalance(uint256)": "6ac6d812",
    "windDownBounty(uint256)": "bb7019c1",
    "withdrawProjectYield(uint256)": "db53e8b5"
  },
  "id": 49
}