{
  "abi": [
    {
      "anonymous": false,
      "inputs": [
        {
          "indexed": true,
          "internalType": "uint256",
          "name": "pid",
          "type": "uint256"
        },
        {
          "indexed": false,
          "internalType": "uint256",
          "name": "oldAmount",
          "type": "uint256"
        },
        {
          "indexed": false,
          "internalType": "uint256",
          "name": "newAmount",
          "type": "uint256"
        }
      ],
      "name": "BountyBalanceChanged",
      "type": "event"
    },
    {
      "anonymous": false,
      "inputs": [
        {
          "indexed": true,
          "internalType": "address",
          "name": "hunter",
          "type": "address"
        },
        {
          "indexed": true,
          "internalType": "address",
          "name": "token",
          "type": "address"
        },
        {
          "indexed": false,
          "internalType": "uint256",
          "name": "amount",
          "type": "uint256"
        }
      ],
      "name": "BountyPaid",
      "type": "event"
    },
    {
      "anonymous": false,
      "inputs": [
        {
          "indexed": false,
          "internalType": "uint8",
          "name": "version",
          "type": "uint8"
        }
      ],
      "name": "Initialized",
      "type": "event"
    },
    {
      "anonymous": false,
      "inputs": [
        {
          "indexed": true,
          "internalType": "uint256",
          "name": "pid",
          "type": "uint256"
        },
        {
          "indexed": true,
          "internalType": "address",
          "name": "token",
          "type": "address"
        },
        {
          "indexed": false,
          "internalType": "uint256",
          "name": "tokenDecimals",
          "type": "uint256"
        }
      ],
      "name": "NewBountyDeployed",
      "type": "event"
    },
    {
      "anonymous": false,
      "inputs": [
        {
          "indexed": true,
          "internalType": "address",
          "name": "previousOwner",
          "type": "address"
        },
        {
          "indexed": true,
          "internalType": "address",
          "name": "newOwner",
          "type": "address"
        }
      ],
      "name": "OwnershipTransferred",
      "type": "event"
    },
    {
      "anonymous": false,
      "inputs": [
        {
          "indexed": true,
          "internalType": "uint256",
          "name": "pid",
          "type": "uint256"
        },
        {
          "indexed": false,
          "internalType": "uint256",
          "name": "amount",
          "type": "uint256"
        }
      ],
      "name": "PremiumBilled",
      "type": "event"
    },
    {
      "anonymous": false,
      "inputs": [
        {
          "indexed": true,
          "internalType": "address",
          "name": "user",
          "type": "address"
        },
        {
          "indexed": true,
          "internalType": "uint256",
          "name": "pid",
          "type": "uint256"
        },
        {
          "indexed": false,
          "internalType": "uint256",
          "name": "amount",
          "type": "uint256"
        }
      ],
      "name": "Staked",
      "type": "event"
    },
    {
      "anonymous": false,
      "inputs": [
        {
          "indexed": true,
          "internalType": "address",
          "name": "user",
          "type": "address"
        },
        {
          "indexed": true,
          "internalType": "uint256",
          "name": "pid",
          "type": "uint256"
        },
        {
          "indexed": false,
          "internalType": "uint256",
          "name": "amount",
          "type": "uint256"
        }
      ],
      "name": "Unstaked",
      "type": "event"
    },
    {
      "anonymous": false,
      "inputs": [
        {
          "indexed": true,
          "internalType": "uint256",
          "name": "pid",
          "type": "uint256"
        },
        {
          "indexed": false,
          "internalType": "uint256",
          "name": "amount",
          "type": "uint256"
        }
      ],
      "name": "WithdrawalOrUnstakeScheduled",
      "type": "event"
    },
    {
      "anonymous": false,
      "inputs": [
        {
          "indexed": true,
          "internalType": "address",
          "name": "referrer",
          "type": "address"
        },
        {
          "indexed": false,
          "internalType": "uint256",
          "name": "amount",
          "type": "uint256"
        }
      ],
      "name": "referralPaid",
      "type": "event"
    },
    {
      "anonymous": false,
      "inputs": [
        {
          "indexed": true,
          "internalType": "address",
          "name": "token",
          "type": "address"
        },
        {
          "indexed": true,
          "internalType": "bool",
          "name": "whitelisted",
          "type": "bool"
        }
      ],
      "name": "tokenWhitelistUpdated",
      "type": "event"
    },
    {
      "inputs": [],
      "name": "acceptOwnershipTransfer",
      "outputs": [],
      "stateMutability": "nonpayable",
      "type": "function"
    },
    {
      "inputs": [
        {
          "internalType": "uint256",
          "name": "",
          "type": "uint256"
        }
      ],
      "name": "activeStrategies",
      "outputs": [
        {
          "internalType": "bytes32",
          "name": "",
          "type": "bytes32"
        }
      ],
      "stateMutability": "view",
      "type": "function"
    },
    {
      "inputs": [
        {
          "internalType": "uint256",
          "name": "",
          "type": "uint256"
        }
      ],
      "name": "activeTokens",
      "outputs": [
        {
          "internalType": "address",
          "name": "",
          "type": "address"
        }
      ],
      "stateMutability": "view",
      "type": "function"
    },
    {
      "inputs": [
        {
          "internalType": "uint256",
          "name": "_poolCap",
          "type": "uint256"
        },
        {
          "internalType": "uint256",
          "name": "_apy",
          "type": "uint256"
        }
      ],
      "name": "calcRequiredPremiumBalancePerPeriod",
      "outputs": [
        {
          "internalType": "uint256",
          "name": "requiredPremiumBalance",
          "type": "uint256"
        }
      ],
      "stateMutability": "pure",
      "type": "function"
    },
    {
      "inputs": [
        {
          "internalType": "uint256",
          "name": "_pid",
          "type": "uint256"
        }
      ],
      "name": "compoundYieldForPid",
      "outputs": [],
      "stateMutability": "nonpayable",
      "type": "function"
    },
    {
      "inputs": [
        {
          "internalType": "address",
          "name": "_strategyFactory",
          "type": "address"
        }
      ],
      "name": "initialize",
      "outputs": [],
      "stateMutability": "nonpayable",
      "type": "function"
    },
    {
      "inputs": [
        {
          "internalType": "uint256",
          "name": "_pid",
          "type": "uint256"
        },
        {
          "internalType": "uint256",
          "name": "_deposit",
          "type": "uint256"
        },
        {
          "internalType": "string",
          "name": "_strategyName",
          "type": "string"
        }
      ],
      "name": "makeProjectDeposit",
      "outputs": [],
      "stateMutability": "nonpayable",
      "type": "function"
    },
    {
      "inputs": [
        {
          "internalType": "address",
          "name": "",
          "type": "address"
        }
      ],
      "name": "minTokenStakeAmount",
      "outputs": [
        {
          "internalType": "uint256",
          "name": "",
          "type": "uint256"
        }
      ],
      "stateMutability": "view",
      "type": "function"
    },
    {
      "inputs": [
        {
          "internalType": "uint256",
          "name": "",
          "type": "uint256"
        }
      ],
      "name": "nftInfo",
      "outputs": [
        {
          "internalType": "uint256",
          "name": "pid",
          "type": "uint256"
        },
        {
          "internalType": "uint256",
          "name": "amount",
          "type": "uint256"
        },
        {
          "internalType": "uint256",
          "name": "xDelta",
          "type": "uint256"
        },
        {
          "internalType": "uint256",
          "name": "apy",
          "type": "uint256"
        },
        {
          "internalType": "uint256",
          "name": "unclaimed",
          "type": "uint256"
        },
        {
          "internalType": "uint256",
          "name": "lastClaimedTime",
          "type": "uint256"
        },
        {
          "internalType": "uint256",
          "name": "timelock",
          "type": "uint256"
        },
        {
          "internalType": "uint256",
          "name": "timelimit",
          "type": "uint256"
        },
        {
          "internalType": "bool",
          "name": "hasUnstaked",
          "type": "bool"
        }
      ],
      "stateMutability": "view",
      "type": "function"
    },
    {
      "inputs": [],
      "name": "owner",
      "outputs": [
        {
          "internalType": "address",
          "name": "",
          "type": "address"
        }
      ],
      "stateMutability": "view",
      "type": "function"
    },
    {
      "inputs": [
        {
          "internalType": "uint256",
          "name": "",
          "type": "uint256"
        },
        {
          "internalType": "uint256",
          "name": "",
          "type": "uint256"
        }
      ],
      "name": "pidNFTList",
      "outputs": [
        {
          "internalType": "uint256",
          "name": "",
          "type": "uint256"
        }
      ],
      "stateMutability": "view",
      "type": "function"
    },
    {
      "inputs": [
        {
          "internalType": "uint256",
          "name": "",
          "type": "uint256"
        },
        {
          "internalType": "bytes32",
          "name": "",
          "type": "bytes32"
        }
      ],
      "name": "pidStrategies",
      "outputs": [
        {
          "internalType": "address",
          "name": "",
          "type": "address"
        }
      ],
      "stateMutability": "view",
      "type": "function"
    },
    {
      "inputs": [
        {
          "internalType": "uint256",
          "name": "",
          "type": "uint256"
        }
      ],
      "name": "poolInfo",
      "outputs": [
        {
          "components": [
            {
              "internalType": "contract IERC20",
              "name": "token",
              "type": "address"
            },
            {
              "internalType": "uint8",
              "name": "tokenDecimals",
              "type": "uint8"
            },
            {
              "internalType": "uint16",
              "name": "apy",
              "type": "uint16"
            },
            {
              "internalType": "address",
              "name": "projectWallet",
              "type": "address"
            },
            {
              "internalType": "string",
              "name": "projectName",
              "type": "string"
            },
            {
              "internalType": "uint256",
              "name": "poolCap",
              "type": "uint256"
            },
            {
              "internalType": "uint256",
              "name": "totalStaked",
              "type": "uint256"
            },
            {
              "internalType": "uint256",
              "name": "scalingMultiplier",
              "type": "uint256"
            }
          ],
          "internalType": "struct ISaloon.GeneralInfo",
          "name": "generalInfo",
          "type": "tuple"
        },
        {
          "components": [
            {
              "internalType": "uint256",
              "name": "projectDepositHeld",
              "type": "uint256"
            },
            {
              "internalType": "uint256",
              "name": "projectDepositInStrategy",
              "type": "uint256"
            }
          ],
          "internalType": "struct ISaloon.DepositInfo",
          "name": "depositInfo",
          "type": "tuple"
        },
        {
          "components": [
            {
              "internalType": "uint256",
              "name": "premiumBalance",
              "type": "uint256"
            },
            {
              "internalType": "uint256",
              "name": "premiumAvailable",
              "type": "uint256"
            }
          ],
          "internalType": "struct ISaloon.PremiumInfo",
          "name": "premiumInfo",
          "type": "tuple"
        },
        {
          "components": [
            {
              "internalType": "uint256",
              "name": "timelock",
              "type": "uint256"
            },
            {
              "internalType": "uint256",
              "name": "timeLimit",
              "type": "uint256"
            },
            {
              "internalType": "uint256",
              "name": "withdrawalScheduledAmount",
              "type": "uint256"
            },
            {
              "internalType": "bool",
              "name": "withdrawalExecuted",
              "type": "bool"
            }
          ],
          "internalType": "struct ISaloon.TimelockInfo",
          "name": "poolTimelock",
          "type": "tuple"
        },
        {
          "components": [
            {
              "internalType": "uint256",
              "name": "currentX",
              "type": "uint256"
            },
            {
              "internalType": "uint256",
              "name": "currentY",
              "type": "uint256"
            },
            {
              "internalType": "uint256",
              "name": "totalSupply",
              "type": "uint256"
            },
            {
              "internalType": "uint256[]",
              "name": "unstakedTokens",
              "type": "uint256[]"
            }
          ],
          "internalType": "struct ISaloon.CurveInfo",
          "name": "curveInfo",
          "type": "tuple"
        },
        {
          "components": [
            {
              "internalType": "address",
              "name": "referrer",
              "type": "address"
            },
            {
              "internalType": "uint256",
              "name": "referralFee",
              "type": "uint256"
            },
            {
              "internalType": "uint256",
              "name": "endTime",
              "type": "uint256"
            }
          ],
          "internalType": "struct ISaloon.ReferralInfo",
          "name": "referralInfo",
          "type": "tuple"
        },
        {
          "internalType": "uint256",
          "name": "assessmentPeriodEnd",
          "type": "uint256"
        },
        {
          "internalType": "uint256",
          "name": "freezeTime",
          "type": "uint256"
        },
        {
          "internalType": "bool",
          "name": "isActive",
          "type": "bool"
        }
      ],
      "stateMutability": "view",
      "type": "function"
    },
    {
      "inputs": [
        {
          "internalType": "uint256",
          "name": "_pid",
          "type": "uint256"
        },
        {
          "internalType": "uint256",
          "name": "_amount",
          "type": "uint256"
        }
      ],
      "name": "projectDepositWithdrawal",
      "outputs": [
        {
          "internalType": "bool",
          "name": "",
          "type": "bool"
        }
      ],
      "stateMutability": "nonpayable",
      "type": "function"
    },
    {
      "inputs": [
        {
          "internalType": "address",
          "name": "_token",
          "type": "address"
        },
        {
          "internalType": "uint256",
          "name": "_amount",
          "type": "uint256"
        }
      ],
      "name": "receiveStrategyYield",
      "outputs": [],
      "stateMutability": "nonpayable",
      "type": "function"
    },
    {
      "inputs": [
        {
          "internalType": "address",
          "name": "",
          "type": "address"
        },
        {
          "internalType": "address",
          "name": "",
          "type": "address"
        }
      ],
      "name": "referralBalances",
      "outputs": [
        {
          "internalType": "uint256",
          "name": "",
          "type": "uint256"
        }
      ],
      "stateMutability": "view",
      "type": "function"
    },
    {
      "inputs": [],
      "name": "saloonBounty",
      "outputs": [
        {
          "internalType": "contract ISaloonBounty",
          "name": "",
          "type": "address"
        }
      ],
      "stateMutability": "view",
      "type": "function"
    },
    {
      "inputs": [
        {
          "internalType": "address",
          "name": "",
          "type": "address"
        }
      ],
      "name": "saloonBountyProfit",
      "outputs": [
        {
          "internalType": "uint256",
          "name": "",
          "type": "uint256"
        }
      ],
      "stateMutability": "view",
      "type": "function"
    },
    {
      "inputs": [],
      "name": "saloonManager",
      "outputs": [
        {
          "internalType": "contract ISaloonManager",
          "name": "",
          "type": "address"
        }
      ],
      "stateMutability": "view",
      "type": "function"
    },
    {
      "inputs": [
        {
          "internalType": "address",
          "name": "",
          "type": "address"
        }
      ],
      "name": "saloonPremiumProfit",
      "outputs": [
        {
          "internalType": "uint256",
          "name": "",
          "type": "uint256"
        }
      ],
      "stateMutability": "view",
      "type": "function"
    },
    {
      "inputs": [],
      "name": "saloonProjectPortal",
      "outputs": [
        {
          "internalType": "contract ISaloonProjectPortal",
          "name": "",
          "type": "address"
        }
      ],
      "stateMutability": "view",
      "type": "function"
    },
    {
      "inputs": [
        {
          "internalType": "address",
          "name": "",
          "type": "address"
        }
      ],
      "name": "saloonStrategyProfit",
      "outputs": [
        {
          "internalType": "uint256",
          "name": "",
          "type": "uint256"
        }
      ],
      "stateMutability": "view",
      "type": "function"
    },
    {
      "inputs": [
        {
          "internalType": "uint256",
          "name": "_pid",
          "type": "uint256"
        },
        {
          "internalType": "uint256",
          "name": "_amount",
          "type": "uint256"
        }
      ],
      "name": "scheduleProjectDepositWithdrawal",
      "outputs": [
        {
          "internalType": "bool",
          "name": "",
          "type": "bool"
        }
      ],
      "stateMutability": "nonpayable",
      "type": "function"
    },
    {
      "inputs": [
        {
          "internalType": "uint256",
          "name": "_pid",
          "type": "uint256"
        },
        {
          "internalType": "uint256",
          "name": "_poolCap",
          "type": "uint256"
        },
        {
          "internalType": "uint16",
          "name": "_apy",
          "type": "uint16"
        },
        {
          "internalType": "uint256",
          "name": "_deposit",
          "type": "uint256"
        },
        {
          "internalType": "string",
          "name": "_strategyName",
          "type": "string"
        }
      ],
      "name": "setAPYandPoolCapAndDeposit",
      "outputs": [],
      "stateMutability": "nonpayable",
      "type": "function"
    },
    {
      "inputs": [
        {
          "internalType": "address",
          "name": "",
          "type": "address"
        }
      ],
      "name": "strategyAddressToPid",
      "outputs": [
        {
          "internalType": "uint256",
          "name": "",
          "type": "uint256"
        }
      ],
      "stateMutability": "view",
      "type": "function"
    },
    {
      "inputs": [
        {
          "internalType": "address",
          "name": "",
          "type": "address"
        }
      ],
      "name": "tokenWhitelist",
      "outputs": [
        {
          "internalType": "bool",
          "name": "",
          "type": "bool"
        }
      ],
      "stateMutability": "view",
      "type": "function"
    },
    {
      "inputs": [
        {
          "internalType": "address",
          "name": "newOwner",
          "type": "address"
        }
      ],
      "name": "transferOwnership",
      "outputs": [],
      "stateMutability": "nonpayable",
      "type": "function"
    },
    {
      "inputs": [
        {
          "internalType": "uint256",
          "name": "_pid",
          "type": "uint256"
        },
        {
          "internalType": "address",
          "name": "_projectWallet",
          "type": "address"
        }
      ],
      "name": "updateProjectWalletAddress",
      "outputs": [],
      "stateMutability": "nonpayable",
      "type": "function"
    },
    {
      "inputs": [
        {
          "internalType": "uint256",
          "name": "_pid",
          "type": "uint256"
        }
      ],
      "name": "viewBountyBalance",
      "outputs": [
        {
          "internalType": "uint256",
          "name": "",
          "type": "uint256"
        }
      ],
      "stateMutability": "view",
      "type": "function"
    },
    {
      "inputs": [
        {
          "internalType": "uint256",
          "name": "_pid",
          "type": "uint256"
        }
      ],
      "name": "windDownBounty",
      "outputs": [
        {
          "internalType": "bool",
          "name": "",
          "type": "bool"
        }
      ],
      "stateMutability": "nonpayable",
      "type": "function"
    },
    {
      "inputs": [
        {
          "internalType": "uint256",
          "name": "_pid",
          "type": "uint256"
        }
      ],
      "name": "withdrawProjectYield",
      "outputs": [
        {
          "internalType": "uint256",
          "name": "returnedAmount",
          "type": "uint256"
        }
      ],
      "stateMutability": "nonpayable",
      "type": "function"
    }
  ],
  "bytecode": {
    "object": "0x608060405234801561001057600080fd5b506134d4806100206000396000f3fe608060405234801561001057600080fd5b50600436106101e55760003560e01c80638da5cb5b1161010f578063b842e87f116100a2578063db53e8b511610071578063db53e8b514610549578063e45abd0f1461055c578063e78ea3df1461057c578063f2fde38b1461058f57600080fd5b8063b842e87f146104fb578063bb7019c114610503578063c4d66de814610516578063ca0061481461052957600080fd5b8063995974c4116100de578063995974c4146104a25780639f224f35146104b5578063ae07f948146104c8578063b20b2429146104db57600080fd5b80638da5cb5b1461044b578063957deecc1461045c57806396ea48e81461047c578063983c1ce01461048f57600080fd5b806330ca0794116101875780636ac6d812116101565780636ac6d812146103ef578063753d7563146104025780637992389814610425578063836ef1fa1461043857600080fd5b806330ca079414610379578063394587231461038c5780635669cbef146103ac578063598d17bf146103cf57600080fd5b80631aebcecb116101c35780631aebcecb1461029c5780631f8bc790146102b1578063220e112414610353578063277fd2a11461036657600080fd5b8063011b408b146101ea578063074ecf03146102285780631526fe2714610274575b600080fd5b6102156101f8366004612d42565b600960209081526000928352604080842090915290825290205481565b6040519081526020015b60405180910390f35b61025c610236366004612d7b565b600b6020908152600092835260408084209091529082529020546001600160a01b031681565b6040516001600160a01b03909116815260200161021f565b610287610282366004612d9d565b6105a2565b60405161021f99989796959493929190612e71565b6102af6102aa366004612fb4565b610803565b005b61030d6102bf366004612d9d565b60046020819052600091825260409091208054600182015460028301546003840154948401546005850154600686015460078701546008909701549597949693959293919290919060ff1689565b60408051998a5260208a0198909852968801959095526060870193909352608086019190915260a085015260c084015260e083015215156101008201526101200161021f565b60005461025c906001600160a01b031681565b60015461025c906001600160a01b031681565b6102af610387366004613083565b6109bd565b61021561039a3660046130f7565b60106020526000908152604090205481565b6103bf6103ba366004612d7b565b610d24565b604051901515815260200161021f565b6102156103dd3660046130f7565b60086020526000908152604090205481565b6102156103fd366004612d9d565b610e64565b6103bf6104103660046130f7565b600e6020526000908152604090205460ff1681565b60025461025c906001600160a01b031681565b610215610446366004612d7b565b61111c565b6044546001600160a01b031661025c565b61021561046a3660046130f7565b600d6020526000908152604090205481565b61021561048a366004612d7b565b611152565b6103bf61049d366004612d7b565b611183565b6102af6104b0366004613114565b61134d565b61025c6104c3366004612d9d565b6116ae565b6102af6104d6366004613139565b6116d8565b6102156104e9366004612d9d565b600c6020526000908152604090205481565b6102af6117e0565b6103bf610511366004612d9d565b611860565b6102af6105243660046130f7565b611bb4565b6102156105373660046130f7565b60076020526000908152604090205481565b610215610557366004612d9d565b611cc6565b61021561056a3660046130f7565b60066020526000908152604090205481565b6102af61058a366004612d9d565b61204e565b6102af61059d3660046130f7565b61240b565b600381815481106105b257600080fd5b60009182526020918290206040805161010081018252601890930290910180546001600160a01b03808216855260ff600160a01b8304169585019590955261ffff600160a81b90910416918301919091526001810154909216606082015260028201805492935090918391608084019161062b90613189565b80601f016020809104026020016040519081016040528092919081815260200182805461065790613189565b80156106a45780601f10610679576101008083540402835291602001916106a4565b820191906000526020600020905b81548152906001019060200180831161068757829003601f168201915b50505091835250506003820154602080830191909152600483015460408084019190915260059093015460609283015282518084018452600686015481526007860154818301528351808501855260088701548152600987015481840152845160808082018752600a8901548252600b89015482860152600c89015482880152600d89015460ff1615158287015286519081018752600e890180548252600f8a01548287015260108a01548289015260118a018054895181890281018901909a52808a52999a95999498939795969295919491860193929091908301828280156107ad57602002820191906000526020600020905b815481526020019060010190808311610799575b5050509190925250506040805160608101825260128501546001600160a01b0316815260138501546020820152601485015491810191909152601584015460168501546017909501549394919390925060ff1689565b6108186001600160a01b03831633308461249a565b50336000908152600d602052604081205490819003610864576001600160a01b038316600090815260086020526040812080548492906108599084906131d9565b909155506109b89050565b600080600073__$4defa815a6c8401eda00ac6be9b95d3cdb$__63fc76fff38660038781548110610897576108976131ec565b906000526020600020906018020160120160020154600388815481106108bf576108bf6131ec565b906000526020600020906018020160120160010154600389815481106108e7576108e76131ec565b600091825260209091206018909102016012015460405160e086901b6001600160e01b03191681526004810194909452602484019290925260448301526001600160a01b03166064820152608401606060405180830381865af4158015610952573d6000803e3d6000fd5b505050506040513d601f19601f820116820180604052508101906109769190613202565b925092509250610987818784612514565b6001600160a01b038616600090815260086020526040812080548592906109af9084906131d9565b90915550505050505b505050565b6109c5612564565b6000600386815481106109da576109da6131ec565b60009182526020909120601890910201601781015490915060ff16158015610a0457506003810154155b610a555760405162461bcd60e51b815260206004820152601860248201527f506f6f6c20616c726561647920696e697469616c697a6564000000000000000060448201526064015b60405180910390fd5b60008461ffff16118015610a6f57506127108461ffff1611155b610aae5760405162461bcd60e51b815260206004820152601060248201526f415059206f7574206f662072616e676560801b6044820152606401610a4c565b8054610ac590600160a01b900460ff16600a61331f565b610ad1906103e861332e565b8510158015610b0357508054610af290600160a01b900460ff16600a61331f565b610aff906298968061332e565b8511155b610b475760405162461bcd60e51b8152602060048201526015602482015274506f6f6c20636170206f7574206f662072616e676560581b6044820152606401610a4c565b60018101546001600160a01b03163314610b735760405162461bcd60e51b8152600401610a4c90613345565b6000610b83868661ffff1661111c565b90506000612710610b966103e88461332e565b610ba0919061336d565b90506000610bad89610e64565b9050610bd13330610bbe868a6131d9565b87546001600160a01b031692919061249a565b5085846006016000016000828254610be991906131d9565b909155505060038401889055835461ffff60a81b1916600160a81b61ffff89169081029190911785556040516334d5118560e01b8152600481019190915273__$4defa815a6c8401eda00ac6be9b95d3cdb$__906334d5118590602401602060405180830381865af4158015610c63573d6000803e3d6000fd5b505050506040513d601f19601f82011682018060405250810190610c87919061338f565b600585015560178401805460ff1916600117905560088401839055610cac82846133a8565b6009850155845115610cc557610cc38986886125bd565b505b6000610cd08a610e64565b60408051848152602081018390529192508b917fa3ea4fb8dee4d414198cb197af6eae4fe483c1a0b849dc50e53b9bf1a60e2166910160405180910390a25050505050610d1d6001607755565b5050505050565b60008060038481548110610d3a57610d3a6131ec565b906000526020600020906018020190508281600601600101548260060160000154610d6591906131d9565b1015610db35760405162461bcd60e51b815260206004820152601a60248201527f416d6f756e7420626967676572207468616e206465706f7369740000000000006044820152606401610a4c565b60018101546001600160a01b03163314610ddf5760405162461bcd60e51b8152600401610a4c90613345565b610dec62093a80426131d9565b600a820155610dfe62093a80426131d9565b610e0b906203f4806131d9565b600b820155600c8101839055600d8101805460ff1916905560405183815284907fb3b9c925de3673837b40c6b4d4463a8f88dc821cd27e07f1ff6bf6abf96413a59060200160405180910390a260019150505b92915050565b60008060038381548110610e7a57610e7a6131ec565b6000918252602090912060408051610220810190915260189092020180546001600160a01b038082166101208501908152600160a01b830460ff16610140860152600160a81b90920461ffff1661016085015260018301541661018084015260028201805484929184916101a085019190610ef490613189565b80601f0160208091040260200160405190810160405280929190818152602001828054610f2090613189565b8015610f6d5780601f10610f4257610100808354040283529160200191610f6d565b820191906000526020600020905b815481529060010190602001808311610f5057829003601f168201915b505050918352505060038201546020808301919091526004830154604080840191909152600590930154606092830152928452815180830183526006860154815260078601548185015284840152815180830183526008860154815260098601548185015284830152815160808082018452600a8701548252600b87015482860152600c87015482850152600d87015460ff161515828401528583019190915282518082018452600e870180548252600f8801548287015260108801548286015260118801805486518189028101890190975280875293909701969195909493860193929083018282801561108157602002820191906000526020600020905b81548152602001906001019080831161106d575b505050919092525050508152604080516060808201835260128501546001600160a01b0316825260138501546020838101919091526014860154838501528085019290925260158501549284019290925260168401549183019190915260179092015460ff16151560809091015281810151908101519051919250611105916131d9565b815160c0015161111591906131d9565b9392505050565b60006301e1338061271062093a80611134858761332e565b61113e919061332e565b611148919061336d565b611115919061336d565b6005602052816000526040600020818154811061116e57600080fd5b90600052602060002001600091509150505481565b600061118d612564565b6000600384815481106111a2576111a26131ec565b6000918252602090912060189091020160018101549091506001600160a01b031633146111e15760405162461bcd60e51b8152600401610a4c90613345565b600a810154421180156111f75750600b81015442105b80156112085750600d81015460ff16155b80156112185750600c8101548311155b80156112275750600a81015415155b6112855760405162461bcd60e51b815260206004820152602960248201527f54696d656c6f636b206e6f7420736574206f72206e6f7420636f6d706c6574656044820152686420696e2074696d6560b81b6064820152608401610a4c565b600d8101805460ff1916600117905560068101548311156112ab576112a9846126f8565b505b60006112b685610e64565b9050838260060160000160008282546112cf91906133a8565b9091555050600182015482546112f2916001600160a01b0391821691168661285a565b5060006112fe86610e64565b604080518481526020810183905291925087917fa3ea4fb8dee4d414198cb197af6eae4fe483c1a0b849dc50e53b9bf1a60e2166910160405180910390a260019350505050610e5e6001607755565b81600060038281548110611363576113636131ec565b6000918252602090912060408051610220810190915260189092020180546001600160a01b038082166101208501908152600160a01b830460ff16610140860152600160a81b90920461ffff1661016085015260018301541661018084015260028201805484929184916101a0850191906113dd90613189565b80601f016020809104026020016040519081016040528092919081815260200182805461140990613189565b80156114565780601f1061142b57610100808354040283529160200191611456565b820191906000526020600020905b81548152906001019060200180831161143957829003601f168201915b505050918352505060038201546020808301919091526004830154604080840191909152600590930154606092830152928452815180830183526006860154815260078601548185015284840152815180830183526008860154815260098601548185015284830152815160808082018452600a8701548252600b87015482860152600c87015482850152600d87015460ff161515828401528583019190915282518082018452600e870180548252600f8801548287015260108801548286015260118801805486518189028101890190975280875293909701969195909493860193929083018282801561156a57602002820191906000526020600020905b815481526020019060010190808311611556575b505050919092525050508152604080516060808201835260128501546001600160a01b039081168352601386015460208085019190915260148701548486015285019290925260158501549284019290925260168401548284015260179093015460ff16151560809092019190915282510151919250163314806115f857506044546001600160a01b031633145b6116145760405162461bcd60e51b8152600401610a4c90613345565b6001600160a01b0383166116635760405162461bcd60e51b8152602060048201526016602482015275496e76616c69642077616c6c6574206164647265737360501b6044820152606401610a4c565b8260038581548110611677576116776131ec565b6000918252602090912060189091020160010180546001600160a01b0319166001600160a01b039290921691909117905550505050565b600f81815481106116be57600080fd5b6000918252602090912001546001600160a01b0316905081565b6116e0612564565b6000600384815481106116f5576116f56131ec565b6000918252602090912060189091020160018101549091506001600160a01b031633146117345760405162461bcd60e51b8152600401610a4c90613345565b600061173f85610e64565b8254909150611759906001600160a01b031633308761249a565b508382600601600001600082825461177191906131d9565b909155505082511561178a576117888584866125bd565b505b600061179586610e64565b604080518481526020810183905291925087917fa3ea4fb8dee4d414198cb197af6eae4fe483c1a0b849dc50e53b9bf1a60e2166910160405180910390a25050506109b86001607755565b6045546001600160a01b031633146118495760405162461bcd60e51b815260206004820152602660248201527f6f6e6c792070656e64696e67206f776e65722063616e2061636365707420747260448201526530b739b332b960d11b6064820152608401610a4c565b60455461185e906001600160a01b0316612897565b565b600081600060038281548110611878576118786131ec565b6000918252602090912060408051610220810190915260189092020180546001600160a01b038082166101208501908152600160a01b830460ff16610140860152600160a81b90920461ffff1661016085015260018301541661018084015260028201805484929184916101a0850191906118f290613189565b80601f016020809104026020016040519081016040528092919081815260200182805461191e90613189565b801561196b5780601f106119405761010080835404028352916020019161196b565b820191906000526020600020905b81548152906001019060200180831161194e57829003601f168201915b505050918352505060038201546020808301919091526004830154604080840191909152600590930154606092830152928452815180830183526006860154815260078601548185015284840152815180830183526008860154815260098601548185015284830152815160808082018452600a8701548252600b87015482860152600c87015482850152600d87015460ff161515828401528583019190915282518082018452600e870180548252600f88015482870152601088015482860152601188018054865181890281018901909752808752939097019691959094938601939290830182828015611a7f57602002820191906000526020600020905b815481526020019060010190808311611a6b575b505050919092525050508152604080516060808201835260128501546001600160a01b039081168352601386015460208085019190915260148701548486015285019290925260158501549284019290925260168401548284015260179093015460ff1615156080909201919091528251015191925016331480611b0d57506044546001600160a01b031633145b611b295760405162461bcd60e51b8152600401610a4c90613345565b600060038581548110611b3e57611b3e6131ec565b60009182526020909120601890910201601781015490915060ff16611b975760405162461bcd60e51b815260206004820152600f60248201526e506f6f6c206e6f742061637469766560881b6044820152606401610a4c565b60178101805460ff19169055426016909101555060019392505050565b601154610100900460ff1615808015611bd45750601154600160ff909116105b80611bee5750303b158015611bee575060115460ff166001145b611c515760405162461bcd60e51b815260206004820152602e60248201527f496e697469616c697a61626c653a20636f6e747261637420697320616c72656160448201526d191e481a5b9a5d1a585b1a5e995960921b6064820152608401610a4c565b6011805460ff191660011790558015611c74576011805461ff0019166101001790555b611c7c6128f4565b8015611cc2576011805461ff0019169055604051600181527f7f26b83ff96e1f2b6a682f133852f6798a09c465da95921460cefb38474024989060200160405180910390a15b5050565b6000611cd0612564565b600060038381548110611ce557611ce56131ec565b6000918252602090912060408051610220810190915260189092020180546001600160a01b038082166101208501908152600160a01b830460ff16610140860152600160a81b90920461ffff1661016085015260018301541661018084015260028201805484929184916101a085019190611d5f90613189565b80601f0160208091040260200160405190810160405280929190818152602001828054611d8b90613189565b8015611dd85780601f10611dad57610100808354040283529160200191611dd8565b820191906000526020600020905b815481529060010190602001808311611dbb57829003601f168201915b505050918352505060038201546020808301919091526004830154604080840191909152600590930154606092830152928452815180830183526006860154815260078601548185015284840152815180830183526008860154815260098601548185015284830152815160808082018452600a8701548252600b87015482860152600c87015482850152600d87015460ff161515828401528583019190915282518082018452600e870180548252600f88015482870152601088015482860152601188018054865181890281018901909752808752939097019691959094938601939290830182828015611eec57602002820191906000526020600020905b815481526020019060010190808311611ed8575b505050919092525050508152604080516060808201835260128501546001600160a01b039081168352601386015460208085019190915260148701548486015285019290925260158501549284019290925260168401548284015260179093015460ff16151560809092019190915282510151919250163314611f815760405162461bcd60e51b8152600401610a4c90613345565b6000838152600c6020526040902054801561203d576000848152600b602090815260408083208484528252808320548151633941ea2960e21b815291516001600160a01b0390911693849363e507a8a49360048082019492939183900301908290875af1158015611ff6573d6000803e3d6000fd5b505050506040513d601f19601f8201168201806040525081019061201a919061338f565b83516060810151905191955061203a916001600160a01b0316908661285a565b50505b50506120496001607755565b919050565b80600060038281548110612064576120646131ec565b6000918252602090912060408051610220810190915260189092020180546001600160a01b038082166101208501908152600160a01b830460ff16610140860152600160a81b90920461ffff1661016085015260018301541661018084015260028201805484929184916101a0850191906120de90613189565b80601f016020809104026020016040519081016040528092919081815260200182805461210a90613189565b80156121575780601f1061212c57610100808354040283529160200191612157565b820191906000526020600020905b81548152906001019060200180831161213a57829003601f168201915b505050918352505060038201546020808301919091526004830154604080840191909152600590930154606092830152928452815180830183526006860154815260078601548185015284840152815180830183526008860154815260098601548185015284830152815160808082018452600a8701548252600b87015482860152600c87015482850152600d87015460ff161515828401528583019190915282518082018452600e870180548252600f8801548287015260108801548286015260118801805486518189028101890190975280875293909701969195909493860193929083018282801561226b57602002820191906000526020600020905b815481526020019060010190808311612257575b505050919092525050508152604080516060808201835260128501546001600160a01b039081168352601386015460208085019190915260148701548486015285019290925260158501549284019290925260168401548284015260179093015460ff16151560809092019190915282510151919250163314806122f957506044546001600160a01b031633145b6123155760405162461bcd60e51b8152600401610a4c90613345565b61231d612564565b6000838152600c6020908152604080832054600b8352818420818552909252909120546001600160a01b031680156123ff576000816001600160a01b031663f69e20466040518163ffffffff1660e01b81526004016020604051808303816000875af1158015612391573d6000803e3d6000fd5b505050506040513d601f19601f820116820180604052508101906123b5919061338f565b90506123c26001826133a8565b600387815481106123d5576123d56131ec565b906000526020600020906018020160060160010160008282546123f891906131d9565b9091555050505b50506109b86001607755565b612413612923565b6001600160a01b0381166124785760405162461bcd60e51b815260206004820152602660248201527f4f776e61626c653a206e6577206f776e657220697320746865207a65726f206160448201526564647265737360d01b6064820152608401610a4c565b604580546001600160a01b0319166001600160a01b0392909216919091179055565b6040516001600160a01b03808516602483015283166044820152606481018290526000906125089086906323b872dd60e01b906084015b60408051601f198184030181529190526020810180516001600160e01b03166001600160e01b03199093169290921790915261297d565b5060015b949350505050565b6001600160a01b038316156109b8576001600160a01b0380841660009081526009602090815260408083209386168352929052908120805483929061255a9084906131d9565b9091555050505050565b6002607754036125b65760405162461bcd60e51b815260206004820152601f60248201527f5265656e7472616e637947756172643a207265656e7472616e742063616c6c006044820152606401610a4c565b6002607755565b600080600385815481106125d3576125d36131ec565b906000526020600020906018020190506000846040516020016125f691906133bb565b60408051601f1981840301815291815281516020928301206000898152600c9093529120549091508082146126ee576000612630886126f8565b9050600061263e8989612a4f565b90506001600160a01b038116156126eb57600685018054600090915581906126676001826133a8565b60078801558654612682906001600160a01b0316848361285a565b50816001600160a01b0316630b5090076040518163ffffffff1660e01b81526004016020604051808303816000875af11580156126c3573d6000803e3d6000fd5b505050506040513d601f19601f820116820180604052508101906126e7919061338f565b5050505b50505b5050509392505050565b6000806003838154811061270e5761270e6131ec565b60009182526020808320868452600c9091526040832080549084905560189092020192508015612852576000858152600b602090815260408083208484528252808320548151637f1f087360e01b815291516001600160a01b0390911693928492637f1f08739260048083019392829003018187875af1158015612796573d6000803e3d6000fd5b505050506040513d601f19601f820116820180604052508101906127ba919061338f565b6040516348b1933560e01b8152600481018290529091506001600160a01b038316906348b19335906024016020604051808303816000875af1158015612804573d6000803e3d6000fd5b505050506040513d601f19601f82011682018060405250810190612828919061338f565b600060078701819055600687018054929650869290919061284a9084906131d9565b909155505050505b509392505050565b6040516001600160a01b03831660248201526044810182905260009061288d90859063a9059cbb60e01b906064016124d1565b5060019392505050565b604480546001600160a01b038381166001600160a01b03198084168217909455604580549094169093556040519116919082907f8be0079c531659141344cd1fd0a4f28419497f9722a3daafe3b4186f6b6457e090600090a35050565b601154610100900460ff1661291b5760405162461bcd60e51b8152600401610a4c906133ce565b61185e612bd7565b6044546001600160a01b0316331461185e5760405162461bcd60e51b815260206004820181905260248201527f4f776e61626c653a2063616c6c6572206973206e6f7420746865206f776e65726044820152606401610a4c565b60006129d2826040518060400160405280602081526020017f5361666545524332303a206c6f772d6c6576656c2063616c6c206661696c6564815250856001600160a01b0316612c079092919063ffffffff16565b8051909150156109b857808060200190518101906129f09190613419565b6109b85760405162461bcd60e51b815260206004820152602a60248201527f5361666545524332303a204552433230206f7065726174696f6e20646964206e6044820152691bdd081cdd58d8d9595960b21b6064820152608401610a4c565b600080600083604051602001612a6591906133bb565b60408051601f1981840301815291815281516020928301206000888152600b84528281208282529093529120549091506001600160a01b031680612b5457600a54600380546001600160a01b039092169163dff968019188918a908110612ace57612ace6131ec565b60009182526020909120601890910201546040516001600160e01b031960e085901b168152612b0a92916001600160a01b03169060040161343b565b6020604051808303816000875af1158015612b29573d6000803e3d6000fd5b505050506040513d601f19601f82011682018060405250810190612b4d9190613465565b9250612b6f565b6000868152600c60205260409020919091559150610e5e9050565b6001600160a01b03831615612bcd576000868152600b60209081526040808320858452825280832080546001600160a01b0319166001600160a01b0388169081179091558352600d8252808320899055888352600c90915290208290555b5090949350505050565b601154610100900460ff16612bfe5760405162461bcd60e51b8152600401610a4c906133ce565b61185e33612897565b606061250c848460008585600080866001600160a01b03168587604051612c2e9190613482565b60006040518083038185875af1925050503d8060008114612c6b576040519150601f19603f3d011682016040523d82523d6000602084013e612c70565b606091505b5091509150612c8187838387612c8c565b979650505050505050565b60608315612cfb578251600003612cf4576001600160a01b0385163b612cf45760405162461bcd60e51b815260206004820152601d60248201527f416464726573733a2063616c6c20746f206e6f6e2d636f6e74726163740000006044820152606401610a4c565b508161250c565b61250c8383815115612d105781518083602001fd5b8060405162461bcd60e51b8152600401610a4c91906133bb565b6001600160a01b0381168114612d3f57600080fd5b50565b60008060408385031215612d5557600080fd5b8235612d6081612d2a565b91506020830135612d7081612d2a565b809150509250929050565b60008060408385031215612d8e57600080fd5b50508035926020909101359150565b600060208284031215612daf57600080fd5b5035919050565b60005b83811015612dd1578181015183820152602001612db9565b50506000910152565b60008151808452612df2816020860160208601612db6565b601f01601f19169290920160200192915050565b60006080830182518452602080840151818601526040840151604086015260608401516080606087015282815180855260a0880191508383019450600092505b80831015612e665784518252938301936001929092019190830190612e46565b509695505050505050565b6102008082528a516001600160a01b039081169183019190915260208b015160ff1661022083015260408b015161ffff1661024083015260608b01511661026082015260808a0151610100610280830152600090612ed3610300840182612dda565b905060a08c01516102a084015260c08c01516102c084015260e08c01516102e0840152612f0d602084018c80518252602090810151910152565b8951606084015260208a01516080840152885160a0840152602089015160c0840152604089015160e084015260608901511515610100840152828103610120840152612f598189612e06565b87516001600160a01b0316610140850152602088015161016085015260408801516101808501529150612f899050565b846101a0830152836101c0830152612fa66101e083018415159052565b9a9950505050505050505050565b60008060408385031215612fc757600080fd5b8235612fd281612d2a565b946020939093013593505050565b634e487b7160e01b600052604160045260246000fd5b600082601f83011261300757600080fd5b813567ffffffffffffffff8082111561302257613022612fe0565b604051601f8301601f19908116603f0116810190828211818310171561304a5761304a612fe0565b8160405283815286602085880101111561306357600080fd5b836020870160208301376000602085830101528094505050505092915050565b600080600080600060a0868803121561309b57600080fd5b8535945060208601359350604086013561ffff811681146130bb57600080fd5b925060608601359150608086013567ffffffffffffffff8111156130de57600080fd5b6130ea88828901612ff6565b9150509295509295909350565b60006020828403121561310957600080fd5b813561111581612d2a565b6000806040838503121561312757600080fd5b823591506020830135612d7081612d2a565b60008060006060848603121561314e57600080fd5b8335925060208401359150604084013567ffffffffffffffff81111561317357600080fd5b61317f86828701612ff6565b9150509250925092565b600181811c9082168061319d57607f821691505b6020821081036131bd57634e487b7160e01b600052602260045260246000fd5b50919050565b634e487b7160e01b600052601160045260246000fd5b80820180821115610e5e57610e5e6131c3565b634e487b7160e01b600052603260045260246000fd5b60008060006060848603121561321757600080fd5b8351925060208401519150604084015161323081612d2a565b809150509250925092565b600181815b8085111561327657816000190482111561325c5761325c6131c3565b8085161561326957918102915b93841c9390800290613240565b509250929050565b60008261328d57506001610e5e565b8161329a57506000610e5e565b81600181146132b057600281146132ba576132d6565b6001915050610e5e565b60ff8411156132cb576132cb6131c3565b50506001821b610e5e565b5060208310610133831016604e8410600b84101617156132f9575081810a610e5e565b613303838361323b565b8060001904821115613317576133176131c3565b029392505050565b600061111560ff84168361327e565b8082028115828204841417610e5e57610e5e6131c3565b6020808252600e908201526d139bdd08185d5d1a1bdc9a5e995960921b604082015260600190565b60008261338a57634e487b7160e01b600052601260045260246000fd5b500490565b6000602082840312156133a157600080fd5b5051919050565b81810381811115610e5e57610e5e6131c3565b6020815260006111156020830184612dda565b6020808252602b908201527f496e697469616c697a61626c653a20636f6e7472616374206973206e6f74206960408201526a6e697469616c697a696e6760a81b606082015260800190565b60006020828403121561342b57600080fd5b8151801515811461111557600080fd5b60408152600061344e6040830185612dda565b905060018060a01b03831660208301529392505050565b60006020828403121561347757600080fd5b815161111581612d2a565b60008251613494818460208701612db6565b919091019291505056fea264697066735822122088242afb3aac6b16dbe9c906fbe47e2c44b00d52dcfe656c35432350d087d9ea64736f6c63430008110033",
    "linkReferences": {
      "src/lib/SaloonLib.sol": {
        "SaloonLib": [
          {
            "start": 2187,
            "length": 20
          },
          {
            "start": 3145,
            "length": 20
          }
        ]
      }
    }
  },
  "methodIdentifiers": {
    "acceptOwnershipTransfer()": "b842e87f",
    "activeStrategies(uint256)": "b20b2429",
    "activeTokens(uint256)": "9f224f35",
    "calcRequiredPremiumBalancePerPeriod(uint256,uint256)": "836ef1fa",
    "compoundYieldForPid(uint256)": "e78ea3df",
    "initialize(address)": "c4d66de8",
    "makeProjectDeposit(uint256,uint256,string)": "ae07f948",
    "minTokenStakeAmount(address)": "39458723",
    "nftInfo(uint256)": "1f8bc790",
    "owner()": "8da5cb5b",
    "pidNFTList(uint256,uint256)": "96ea48e8",
    "pidStrategies(uint256,bytes32)": "074ecf03",
    "poolInfo(uint256)": "1526fe27",
    "projectDepositWithdrawal(uint256,uint256)": "983c1ce0",
    "receiveStrategyYield(address,uint256)": "1aebcecb",
    "referralBalances(address,address)": "011b408b",
    "saloonBounty()": "79923898",
    "saloonBountyProfit(address)": "e45abd0f",
    "saloonManager()": "220e1124",
    "saloonPremiumProfit(address)": "ca006148",
    "saloonProjectPortal()": "277fd2a1",
    "saloonStrategyProfit(address)": "598d17bf",
    "scheduleProjectDepositWithdrawal(uint256,uint256)": "5669cbef",
    "setAPYandPoolCapAndDeposit(uint256,uint256,uint16,uint256,string)": "30ca0794",
    "strategyAddressToPid(address)": "957deecc",
    "tokenWhitelist(address)": "753d7563",
    "transferOwnership(address)": "f2fde38b",
    "updateProjectWalletAddress(uint256,address)": "995974c4",
    "viewBountyBalance(uint256)": "6ac6d812",
    "windDownBounty(uint256)": "bb7019c1",
    "withdrawProjectYield(uint256)": "db53e8b5"
  },
  "id": 49
}