{
  "abi": [
    {
      "anonymous": false,
      "inputs": [
        {
          "indexed": false,
          "internalType": "address",
          "name": "previousAdmin",
          "type": "address"
        },
        {
          "indexed": false,
          "internalType": "address",
          "name": "newAdmin",
          "type": "address"
        }
      ],
      "name": "AdminChanged",
      "type": "event"
    },
    {
      "anonymous": false,
      "inputs": [
        {
          "indexed": true,
          "internalType": "address",
          "name": "beacon",
          "type": "address"
        }
      ],
      "name": "BeaconUpgraded",
      "type": "event"
    },
    {
      "anonymous": false,
      "inputs": [
        {
          "indexed": true,
          "internalType": "uint256",
          "name": "pid",
          "type": "uint256"
        },
        {
          "indexed": false,
          "internalType": "uint256",
          "name": "oldAmount",
          "type": "uint256"
        },
        {
          "indexed": false,
          "internalType": "uint256",
          "name": "newAmount",
          "type": "uint256"
        }
      ],
      "name": "BountyBalanceChanged",
      "type": "event"
    },
    {
      "anonymous": false,
      "inputs": [
        {
          "indexed": true,
          "internalType": "address",
          "name": "hunter",
          "type": "address"
        },
        {
          "indexed": true,
          "internalType": "address",
          "name": "token",
          "type": "address"
        },
        {
          "indexed": false,
          "internalType": "uint256",
          "name": "amount",
          "type": "uint256"
        }
      ],
      "name": "BountyPaid",
      "type": "event"
    },
    {
      "anonymous": false,
      "inputs": [
        {
          "indexed": false,
          "internalType": "uint8",
          "name": "version",
          "type": "uint8"
        }
      ],
      "name": "Initialized",
      "type": "event"
    },
    {
      "anonymous": false,
      "inputs": [
        {
          "indexed": true,
          "internalType": "uint256",
          "name": "pid",
          "type": "uint256"
        },
        {
          "indexed": true,
          "internalType": "address",
          "name": "token",
          "type": "address"
        },
        {
          "indexed": false,
          "internalType": "uint256",
          "name": "tokenDecimals",
          "type": "uint256"
        }
      ],
      "name": "NewBountyDeployed",
      "type": "event"
    },
    {
      "anonymous": false,
      "inputs": [
        {
          "indexed": true,
          "internalType": "address",
          "name": "previousOwner",
          "type": "address"
        },
        {
          "indexed": true,
          "internalType": "address",
          "name": "newOwner",
          "type": "address"
        }
      ],
      "name": "OwnershipTransferred",
      "type": "event"
    },
    {
      "anonymous": false,
      "inputs": [
        {
          "indexed": true,
          "internalType": "uint256",
          "name": "pid",
          "type": "uint256"
        },
        {
          "indexed": false,
          "internalType": "uint256",
          "name": "amount",
          "type": "uint256"
        }
      ],
      "name": "PremiumBilled",
      "type": "event"
    },
    {
      "anonymous": false,
      "inputs": [
        {
          "indexed": true,
          "internalType": "address",
          "name": "user",
          "type": "address"
        },
        {
          "indexed": true,
          "internalType": "uint256",
          "name": "pid",
          "type": "uint256"
        },
        {
          "indexed": false,
          "internalType": "uint256",
          "name": "amount",
          "type": "uint256"
        }
      ],
      "name": "Staked",
      "type": "event"
    },
    {
      "anonymous": false,
      "inputs": [
        {
          "indexed": true,
          "internalType": "address",
          "name": "user",
          "type": "address"
        },
        {
          "indexed": true,
          "internalType": "uint256",
          "name": "pid",
          "type": "uint256"
        },
        {
          "indexed": false,
          "internalType": "uint256",
          "name": "amount",
          "type": "uint256"
        }
      ],
      "name": "Unstaked",
      "type": "event"
    },
    {
      "anonymous": false,
      "inputs": [
        {
          "indexed": true,
          "internalType": "address",
          "name": "implementation",
          "type": "address"
        }
      ],
      "name": "Upgraded",
      "type": "event"
    },
    {
      "anonymous": false,
      "inputs": [
        {
          "indexed": true,
          "internalType": "uint256",
          "name": "pid",
          "type": "uint256"
        },
        {
          "indexed": false,
          "internalType": "uint256",
          "name": "amount",
          "type": "uint256"
        }
      ],
      "name": "WithdrawalOrUnstakeScheduled",
      "type": "event"
    },
    {
      "anonymous": false,
      "inputs": [
        {
          "indexed": true,
          "internalType": "address",
          "name": "referrer",
          "type": "address"
        },
        {
          "indexed": false,
          "internalType": "uint256",
          "name": "amount",
          "type": "uint256"
        }
      ],
      "name": "referralPaid",
      "type": "event"
    },
    {
      "anonymous": false,
      "inputs": [
        {
          "indexed": true,
          "internalType": "address",
          "name": "token",
          "type": "address"
        },
        {
          "indexed": true,
          "internalType": "bool",
          "name": "whitelisted",
          "type": "bool"
        }
      ],
      "name": "tokenWhitelistUpdated",
      "type": "event"
    },
    {
      "inputs": [],
      "name": "acceptOwnershipTransfer",
      "outputs": [],
      "stateMutability": "nonpayable",
      "type": "function"
    },
    {
      "inputs": [
        {
          "internalType": "uint256",
          "name": "",
          "type": "uint256"
        }
      ],
      "name": "activeStrategies",
      "outputs": [
        {
          "internalType": "bytes32",
          "name": "",
          "type": "bytes32"
        }
      ],
      "stateMutability": "view",
      "type": "function"
    },
    {
      "inputs": [
        {
          "internalType": "uint256",
          "name": "",
          "type": "uint256"
        }
      ],
      "name": "activeTokens",
      "outputs": [
        {
          "internalType": "address",
          "name": "",
          "type": "address"
        }
      ],
      "stateMutability": "view",
      "type": "function"
    },
    {
      "inputs": [
        {
          "internalType": "uint256",
          "name": "_poolCap",
          "type": "uint256"
        },
        {
          "internalType": "uint256",
          "name": "_apy",
          "type": "uint256"
        }
      ],
      "name": "calcRequiredPremiumBalancePerPeriod",
      "outputs": [
        {
          "internalType": "uint256",
          "name": "requiredPremiumBalance",
          "type": "uint256"
        }
      ],
      "stateMutability": "pure",
      "type": "function"
    },
    {
      "inputs": [
        {
          "internalType": "uint256",
          "name": "_pid",
          "type": "uint256"
        }
      ],
      "name": "compoundYieldForPid",
      "outputs": [],
      "stateMutability": "nonpayable",
      "type": "function"
    },
    {
      "inputs": [
        {
          "internalType": "address",
          "name": "_strategyFactory",
          "type": "address"
        }
      ],
      "name": "initialize",
      "outputs": [],
      "stateMutability": "nonpayable",
      "type": "function"
    },
    {
      "inputs": [
        {
          "internalType": "uint256",
          "name": "_pid",
          "type": "uint256"
        },
        {
          "internalType": "uint256",
          "name": "_deposit",
          "type": "uint256"
        },
        {
          "internalType": "string",
          "name": "_strategyName",
          "type": "string"
        }
      ],
      "name": "makeProjectDeposit",
      "outputs": [],
      "stateMutability": "nonpayable",
      "type": "function"
    },
    {
      "inputs": [
        {
          "internalType": "address",
          "name": "",
          "type": "address"
        }
      ],
      "name": "minTokenStakeAmount",
      "outputs": [
        {
          "internalType": "uint256",
          "name": "",
          "type": "uint256"
        }
      ],
      "stateMutability": "view",
      "type": "function"
    },
    {
      "inputs": [
        {
          "internalType": "uint256",
          "name": "",
          "type": "uint256"
        }
      ],
      "name": "nftInfo",
      "outputs": [
        {
          "internalType": "uint256",
          "name": "pid",
          "type": "uint256"
        },
        {
          "internalType": "uint256",
          "name": "amount",
          "type": "uint256"
        },
        {
          "internalType": "uint256",
          "name": "xDelta",
          "type": "uint256"
        },
        {
          "internalType": "uint256",
          "name": "apy",
          "type": "uint256"
        },
        {
          "internalType": "uint256",
          "name": "unclaimed",
          "type": "uint256"
        },
        {
          "internalType": "uint256",
          "name": "lastClaimedTime",
          "type": "uint256"
        },
        {
          "internalType": "uint256",
          "name": "timelock",
          "type": "uint256"
        },
        {
          "internalType": "uint256",
          "name": "timelimit",
          "type": "uint256"
        }
      ],
      "stateMutability": "view",
      "type": "function"
    },
    {
      "inputs": [],
      "name": "owner",
      "outputs": [
        {
          "internalType": "address",
          "name": "",
          "type": "address"
        }
      ],
      "stateMutability": "view",
      "type": "function"
    },
    {
      "inputs": [
        {
          "internalType": "uint256",
          "name": "",
          "type": "uint256"
        },
        {
          "internalType": "uint256",
          "name": "",
          "type": "uint256"
        }
      ],
      "name": "pidNFTList",
      "outputs": [
        {
          "internalType": "uint256",
          "name": "",
          "type": "uint256"
        }
      ],
      "stateMutability": "view",
      "type": "function"
    },
    {
      "inputs": [
        {
          "internalType": "uint256",
          "name": "",
          "type": "uint256"
        },
        {
          "internalType": "bytes32",
          "name": "",
          "type": "bytes32"
        }
      ],
      "name": "pidStrategies",
      "outputs": [
        {
          "internalType": "address",
          "name": "",
          "type": "address"
        }
      ],
      "stateMutability": "view",
      "type": "function"
    },
    {
      "inputs": [
        {
          "internalType": "uint256",
          "name": "",
          "type": "uint256"
        }
      ],
      "name": "poolInfo",
      "outputs": [
        {
          "components": [
            {
              "internalType": "contract IERC20",
              "name": "token",
              "type": "address"
            },
            {
              "internalType": "uint8",
              "name": "tokenDecimals",
              "type": "uint8"
            },
            {
              "internalType": "uint16",
              "name": "apy",
              "type": "uint16"
            },
            {
              "internalType": "address",
              "name": "projectWallet",
              "type": "address"
            },
            {
              "internalType": "string",
              "name": "projectName",
              "type": "string"
            },
            {
              "internalType": "uint256",
              "name": "poolCap",
              "type": "uint256"
            },
            {
              "internalType": "uint256",
              "name": "totalStaked",
              "type": "uint256"
            },
            {
              "internalType": "uint256",
              "name": "scalingMultiplier",
              "type": "uint256"
            }
          ],
          "internalType": "struct ISaloon.GeneralInfo",
          "name": "generalInfo",
          "type": "tuple"
        },
        {
          "components": [
            {
              "internalType": "uint256",
              "name": "projectDepositHeld",
              "type": "uint256"
            },
            {
              "internalType": "uint256",
              "name": "projectDepositInStrategy",
              "type": "uint256"
            }
          ],
          "internalType": "struct ISaloon.DepositInfo",
          "name": "depositInfo",
          "type": "tuple"
        },
        {
          "components": [
            {
              "internalType": "uint256",
              "name": "premiumBalance",
              "type": "uint256"
            },
            {
              "internalType": "uint256",
              "name": "premiumAvailable",
              "type": "uint256"
            }
          ],
          "internalType": "struct ISaloon.PremiumInfo",
          "name": "premiumInfo",
          "type": "tuple"
        },
        {
          "components": [
            {
              "internalType": "uint256",
              "name": "timelock",
              "type": "uint256"
            },
            {
              "internalType": "uint256",
              "name": "timeLimit",
              "type": "uint256"
            },
            {
              "internalType": "uint256",
              "name": "withdrawalScheduledAmount",
              "type": "uint256"
            },
            {
              "internalType": "bool",
              "name": "withdrawalExecuted",
              "type": "bool"
            }
          ],
          "internalType": "struct ISaloon.TimelockInfo",
          "name": "poolTimelock",
          "type": "tuple"
        },
        {
          "components": [
            {
              "internalType": "uint256",
              "name": "currentX",
              "type": "uint256"
            },
            {
              "internalType": "uint256",
              "name": "currentY",
              "type": "uint256"
            },
            {
              "internalType": "uint256",
              "name": "totalSupply",
              "type": "uint256"
            },
            {
              "internalType": "uint256[]",
              "name": "unstakedTokens",
              "type": "uint256[]"
            }
          ],
          "internalType": "struct ISaloon.CurveInfo",
          "name": "curveInfo",
          "type": "tuple"
        },
        {
          "components": [
            {
              "internalType": "address",
              "name": "referrer",
              "type": "address"
            },
            {
              "internalType": "uint256",
              "name": "referralFee",
              "type": "uint256"
            },
            {
              "internalType": "uint256",
              "name": "endTime",
              "type": "uint256"
            }
          ],
          "internalType": "struct ISaloon.ReferralInfo",
          "name": "referralInfo",
          "type": "tuple"
        },
        {
          "internalType": "uint256",
          "name": "freezeTime",
          "type": "uint256"
        },
        {
          "internalType": "bool",
          "name": "isActive",
          "type": "bool"
        }
      ],
      "stateMutability": "view",
      "type": "function"
    },
    {
      "inputs": [
        {
          "internalType": "uint256",
          "name": "_pid",
          "type": "uint256"
        },
        {
          "internalType": "uint256",
          "name": "_amount",
          "type": "uint256"
        }
      ],
      "name": "projectDepositWithdrawal",
      "outputs": [
        {
          "internalType": "bool",
          "name": "",
          "type": "bool"
        }
      ],
      "stateMutability": "nonpayable",
      "type": "function"
    },
    {
      "inputs": [],
      "name": "proxiableUUID",
      "outputs": [
        {
          "internalType": "bytes32",
          "name": "",
          "type": "bytes32"
        }
      ],
      "stateMutability": "view",
      "type": "function"
    },
    {
      "inputs": [
        {
          "internalType": "address",
          "name": "_token",
          "type": "address"
        },
        {
          "internalType": "uint256",
          "name": "_amount",
          "type": "uint256"
        }
      ],
      "name": "receiveStrategyYield",
      "outputs": [],
      "stateMutability": "nonpayable",
      "type": "function"
    },
    {
      "inputs": [
        {
          "internalType": "address",
          "name": "",
          "type": "address"
        },
        {
          "internalType": "address",
          "name": "",
          "type": "address"
        }
      ],
      "name": "referralBalances",
      "outputs": [
        {
          "internalType": "uint256",
          "name": "",
          "type": "uint256"
        }
      ],
      "stateMutability": "view",
      "type": "function"
    },
    {
      "inputs": [],
      "name": "saloonBounty",
      "outputs": [
        {
          "internalType": "contract ISaloonBounty",
          "name": "",
          "type": "address"
        }
      ],
      "stateMutability": "view",
      "type": "function"
    },
    {
      "inputs": [
        {
          "internalType": "address",
          "name": "",
          "type": "address"
        }
      ],
      "name": "saloonBountyProfit",
      "outputs": [
        {
          "internalType": "uint256",
          "name": "",
          "type": "uint256"
        }
      ],
      "stateMutability": "view",
      "type": "function"
    },
    {
      "inputs": [],
      "name": "saloonManager",
      "outputs": [
        {
          "internalType": "contract ISaloonManager",
          "name": "",
          "type": "address"
        }
      ],
      "stateMutability": "view",
      "type": "function"
    },
    {
      "inputs": [
        {
          "internalType": "address",
          "name": "",
          "type": "address"
        }
      ],
      "name": "saloonPremiumProfit",
      "outputs": [
        {
          "internalType": "uint256",
          "name": "",
          "type": "uint256"
        }
      ],
      "stateMutability": "view",
      "type": "function"
    },
    {
      "inputs": [],
      "name": "saloonProjectPortal",
      "outputs": [
        {
          "internalType": "contract ISaloonProjectPortal",
          "name": "",
          "type": "address"
        }
      ],
      "stateMutability": "view",
      "type": "function"
    },
    {
      "inputs": [
        {
          "internalType": "address",
          "name": "",
          "type": "address"
        }
      ],
      "name": "saloonStrategyProfit",
      "outputs": [
        {
          "internalType": "uint256",
          "name": "",
          "type": "uint256"
        }
      ],
      "stateMutability": "view",
      "type": "function"
    },
    {
      "inputs": [
        {
          "internalType": "uint256",
          "name": "_pid",
          "type": "uint256"
        },
        {
          "internalType": "uint256",
          "name": "_amount",
          "type": "uint256"
        }
      ],
      "name": "scheduleProjectDepositWithdrawal",
      "outputs": [
        {
          "internalType": "bool",
          "name": "",
          "type": "bool"
        }
      ],
      "stateMutability": "nonpayable",
      "type": "function"
    },
    {
      "inputs": [
        {
          "internalType": "uint256",
          "name": "_pid",
          "type": "uint256"
        },
        {
          "internalType": "uint256",
          "name": "_poolCap",
          "type": "uint256"
        },
        {
          "internalType": "uint16",
          "name": "_apy",
          "type": "uint16"
        },
        {
          "internalType": "uint256",
          "name": "_deposit",
          "type": "uint256"
        },
        {
          "internalType": "string",
          "name": "_strategyName",
          "type": "string"
        }
      ],
      "name": "setAPYandPoolCapAndDeposit",
      "outputs": [],
      "stateMutability": "nonpayable",
      "type": "function"
    },
    {
      "inputs": [
        {
          "internalType": "address",
          "name": "",
          "type": "address"
        }
      ],
      "name": "strategyAddressToPid",
      "outputs": [
        {
          "internalType": "uint256",
          "name": "",
          "type": "uint256"
        }
      ],
      "stateMutability": "view",
      "type": "function"
    },
    {
      "inputs": [
        {
          "internalType": "address",
          "name": "",
          "type": "address"
        }
      ],
      "name": "tokenWhitelist",
      "outputs": [
        {
          "internalType": "bool",
          "name": "",
          "type": "bool"
        }
      ],
      "stateMutability": "view",
      "type": "function"
    },
    {
      "inputs": [
        {
          "internalType": "address",
          "name": "newOwner",
          "type": "address"
        }
      ],
      "name": "transferOwnership",
      "outputs": [],
      "stateMutability": "nonpayable",
      "type": "function"
    },
    {
      "inputs": [
        {
          "internalType": "uint256",
          "name": "_pid",
          "type": "uint256"
        },
        {
          "internalType": "address",
          "name": "_projectWallet",
          "type": "address"
        }
      ],
      "name": "updateProjectWalletAddress",
      "outputs": [],
      "stateMutability": "nonpayable",
      "type": "function"
    },
    {
      "inputs": [
        {
          "internalType": "address",
          "name": "newImplementation",
          "type": "address"
        }
      ],
      "name": "upgradeTo",
      "outputs": [],
      "stateMutability": "nonpayable",
      "type": "function"
    },
    {
      "inputs": [
        {
          "internalType": "address",
          "name": "newImplementation",
          "type": "address"
        },
        {
          "internalType": "bytes",
          "name": "data",
          "type": "bytes"
        }
      ],
      "name": "upgradeToAndCall",
      "outputs": [],
      "stateMutability": "payable",
      "type": "function"
    },
    {
      "inputs": [
        {
          "internalType": "uint256",
          "name": "_pid",
          "type": "uint256"
        }
      ],
      "name": "viewBountyBalance",
      "outputs": [
        {
          "internalType": "uint256",
          "name": "",
          "type": "uint256"
        }
      ],
      "stateMutability": "view",
      "type": "function"
    },
    {
      "inputs": [
        {
          "internalType": "uint256",
          "name": "_pid",
          "type": "uint256"
        }
      ],
      "name": "windDownBounty",
      "outputs": [
        {
          "internalType": "bool",
          "name": "",
          "type": "bool"
        }
      ],
      "stateMutability": "nonpayable",
      "type": "function"
    },
    {
      "inputs": [
        {
          "internalType": "uint256",
          "name": "_pid",
          "type": "uint256"
        }
      ],
      "name": "withdrawProjectYield",
      "outputs": [
        {
          "internalType": "uint256",
          "name": "returnedAmount",
          "type": "uint256"
        }
      ],
      "stateMutability": "nonpayable",
      "type": "function"
    }
  ],
  "bytecode": {
    "object": "0x60a06040523060805234801561001457600080fd5b50608051613e1661004c60003960008181610f0101528181610f4101528181610fe00152818161102001526110b30152613e166000f3fe6080604052600436106101f95760003560e01c8063836ef1fa1161010d578063b20b2429116100a0578063ca0061481161006f578063ca006148146106c0578063db53e8b5146106ed578063e45abd0f1461070d578063e78ea3df1461073a578063f2fde38b1461075a57600080fd5b8063b20b24291461063e578063b842e87f1461066b578063bb7019c114610680578063c4d66de8146106a057600080fd5b8063983c1ce0116100dc578063983c1ce0146105be578063995974c4146105de5780639f224f35146105fe578063ae07f9481461061e57600080fd5b8063836ef1fa146105335780638da5cb5b14610553578063957deecc1461057157806396ea48e81461059e57600080fd5b80633659cfe6116101905780635669cbef1161015f5780635669cbef14610466578063598d17bf146104965780636ac6d812146104c3578063753d7563146104e3578063799238981461051357600080fd5b80633659cfe6146103f157806339458723146104115780634f1ef2861461043e57806352d1902d1461045157600080fd5b80631f8bc790116101cc5780631f8bc790146102f8578063220e112414610391578063277fd2a1146103b157806330ca0794146103d157600080fd5b8063011b408b146101fe578063074ecf03146102495780631526fe27146102a25780631aebcecb146102d6575b600080fd5b34801561020a57600080fd5b50610236610219366004613540565b600960209081526000928352604080842090915290825290205481565b6040519081526020015b60405180910390f35b34801561025557600080fd5b5061028a610264366004613579565b600b6020908152600092835260408084209091529082529020546001600160a01b031681565b6040516001600160a01b039091168152602001610240565b3480156102ae57600080fd5b506102c26102bd36600461359b565b61077a565b60405161024098979695949392919061366f565b3480156102e257600080fd5b506102f66102f13660046137aa565b6109d6565b005b34801561030457600080fd5b5061035661031336600461359b565b6004602081905260009182526040909120805460018201546002830154600384015494840154600585015460068601546007909601549496939592949192909188565b604080519889526020890197909752958701949094526060860192909252608085015260a084015260c083015260e082015261010001610240565b34801561039d57600080fd5b5060005461028a906001600160a01b031681565b3480156103bd57600080fd5b5060015461028a906001600160a01b031681565b3480156103dd57600080fd5b506102f66103ec366004613882565b610b90565b3480156103fd57600080fd5b506102f661040c3660046138f6565b610ef7565b34801561041d57600080fd5b5061023661042c3660046138f6565b60106020526000908152604090205481565b6102f661044c366004613913565b610fd6565b34801561045d57600080fd5b506102366110a6565b34801561047257600080fd5b50610486610481366004613579565b611159565b6040519015158152602001610240565b3480156104a257600080fd5b506102366104b13660046138f6565b60086020526000908152604090205481565b3480156104cf57600080fd5b506102366104de36600461359b565b611299565b3480156104ef57600080fd5b506104866104fe3660046138f6565b600e6020526000908152604090205460ff1681565b34801561051f57600080fd5b5060025461028a906001600160a01b031681565b34801561053f57600080fd5b5061023661054e366004613579565b611542565b34801561055f57600080fd5b506044546001600160a01b031661028a565b34801561057d57600080fd5b5061023661058c3660046138f6565b600d6020526000908152604090205481565b3480156105aa57600080fd5b506102366105b9366004613579565b611578565b3480156105ca57600080fd5b506104866105d9366004613579565b6115a9565b3480156105ea57600080fd5b506102f66105f9366004613977565b611773565b34801561060a57600080fd5b5061028a61061936600461359b565b611ac9565b34801561062a57600080fd5b506102f661063936600461399c565b611af3565b34801561064a57600080fd5b5061023661065936600461359b565b600c6020526000908152604090205481565b34801561067757600080fd5b506102f6611bfb565b34801561068c57600080fd5b5061048661069b36600461359b565b611c7b565b3480156106ac57600080fd5b506102f66106bb3660046138f6565b611fc4565b3480156106cc57600080fd5b506102366106db3660046138f6565b60076020526000908152604090205481565b3480156106f957600080fd5b5061023661070836600461359b565b6120f0565b34801561071957600080fd5b506102366107283660046138f6565b60066020526000908152604090205481565b34801561074657600080fd5b506102f661075536600461359b565b61246d565b34801561076657600080fd5b506102f66107753660046138f6565b61281f565b6003818154811061078a57600080fd5b60009182526020918290206040805161010081018252601790930290910180546001600160a01b03808216855260ff600160a01b8304169585019590955261ffff600160a81b909104169183019190915260018101549092166060820152600282018054929350909183916080840191610803906139ec565b80601f016020809104026020016040519081016040528092919081815260200182805461082f906139ec565b801561087c5780601f106108515761010080835404028352916020019161087c565b820191906000526020600020905b81548152906001019060200180831161085f57829003601f168201915b50505091835250506003820154602080830191909152600483015460408084019190915260059093015460609283015282518084018452600686015481526007860154818301528351808501855260088701548152600987015481840152845160808082018752600a8901548252600b89015482860152600c89015482880152600d89015460ff1615158287015286519081018752600e890180548252600f8a01548287015260108a01548289015260118a018054895181890281018901909a52808a52999a959994989397959692959194918601939290919083018282801561098557602002820191906000526020600020905b815481526020019060010190808311610971575b5050509190925250506040805160608101825260128501546001600160a01b031681526013850154602082015260148501549181019190915260158401546016909401549293909290915060ff1688565b6109eb6001600160a01b0383163330846128ae565b50336000908152600d602052604081205490819003610a37576001600160a01b03831660009081526008602052604081208054849290610a2c908490613a3c565b90915550610b8b9050565b600080600073__$4defa815a6c8401eda00ac6be9b95d3cdb$__63fc76fff38660038781548110610a6a57610a6a613a4f565b90600052602060002090601702016012016002015460038881548110610a9257610a92613a4f565b90600052602060002090601702016012016001015460038981548110610aba57610aba613a4f565b600091825260209091206017909102016012015460405160e086901b6001600160e01b03191681526004810194909452602484019290925260448301526001600160a01b03166064820152608401606060405180830381865af4158015610b25573d6000803e3d6000fd5b505050506040513d601f19601f82011682018060405250810190610b499190613a65565b925092509250610b5a818784612928565b6001600160a01b03861660009081526008602052604081208054859290610b82908490613a3c565b90915550505050505b505050565b610b98612978565b600060038681548110610bad57610bad613a4f565b60009182526020909120601790910201601681015490915060ff16158015610bd757506003810154155b610c285760405162461bcd60e51b815260206004820152601860248201527f506f6f6c20616c726561647920696e697469616c697a6564000000000000000060448201526064015b60405180910390fd5b60008461ffff16118015610c4257506127108461ffff1611155b610c815760405162461bcd60e51b815260206004820152601060248201526f415059206f7574206f662072616e676560801b6044820152606401610c1f565b8054610c9890600160a01b900460ff16600a613b82565b610ca4906103e8613b91565b8510158015610cd657508054610cc590600160a01b900460ff16600a613b82565b610cd29062989680613b91565b8511155b610d1a5760405162461bcd60e51b8152602060048201526015602482015274506f6f6c20636170206f7574206f662072616e676560581b6044820152606401610c1f565b60018101546001600160a01b03163314610d465760405162461bcd60e51b8152600401610c1f90613ba8565b6000610d56868661ffff16611542565b90506000612710610d696103e884613b91565b610d739190613bd0565b90506000610d8089611299565b9050610da43330610d91868a613a3c565b87546001600160a01b03169291906128ae565b5085846006016000016000828254610dbc9190613a3c565b909155505060038401889055835461ffff60a81b1916600160a81b61ffff89169081029190911785556040516334d5118560e01b8152600481019190915273__$4defa815a6c8401eda00ac6be9b95d3cdb$__906334d5118590602401602060405180830381865af4158015610e36573d6000803e3d6000fd5b505050506040513d601f19601f82011682018060405250810190610e5a9190613bf2565b600585015560168401805460ff1916600117905560088401839055610e7f8284613c0b565b6009850155845115610e9857610e968986886129d1565b505b6000610ea38a611299565b60408051848152602081018390529192508b917fa3ea4fb8dee4d414198cb197af6eae4fe483c1a0b849dc50e53b9bf1a60e2166910160405180910390a25050505050610ef0600160db55565b5050505050565b6001600160a01b037f0000000000000000000000000000000000000000000000000000000000000000163003610f3f5760405162461bcd60e51b8152600401610c1f90613c1e565b7f00000000000000000000000000000000000000000000000000000000000000006001600160a01b0316610f88600080516020613d9a833981519152546001600160a01b031690565b6001600160a01b031614610fae5760405162461bcd60e51b8152600401610c1f90613c6a565b610fb781612b0c565b60408051600080825260208201909252610fd391839190612b14565b50565b6001600160a01b037f000000000000000000000000000000000000000000000000000000000000000016300361101e5760405162461bcd60e51b8152600401610c1f90613c1e565b7f00000000000000000000000000000000000000000000000000000000000000006001600160a01b0316611067600080516020613d9a833981519152546001600160a01b031690565b6001600160a01b03161461108d5760405162461bcd60e51b8152600401610c1f90613c6a565b61109682612b0c565b6110a282826001612b14565b5050565b6000306001600160a01b037f000000000000000000000000000000000000000000000000000000000000000016146111465760405162461bcd60e51b815260206004820152603860248201527f555550535570677261646561626c653a206d757374206e6f742062652063616c60448201527f6c6564207468726f7567682064656c656761746563616c6c00000000000000006064820152608401610c1f565b50600080516020613d9a83398151915290565b6000806003848154811061116f5761116f613a4f565b90600052602060002090601702019050828160060160010154826006016000015461119a9190613a3c565b10156111e85760405162461bcd60e51b815260206004820152601a60248201527f416d6f756e7420626967676572207468616e206465706f7369740000000000006044820152606401610c1f565b60018101546001600160a01b031633146112145760405162461bcd60e51b8152600401610c1f90613ba8565b61122162093a8042613a3c565b600a82015561123362093a8042613a3c565b611240906203f480613a3c565b600b820155600c8101839055600d8101805460ff1916905560405183815284907fb3b9c925de3673837b40c6b4d4463a8f88dc821cd27e07f1ff6bf6abf96413a59060200160405180910390a260019150505b92915050565b600080600383815481106112af576112af613a4f565b6000918252602090912060408051610200810190915260179092020180546001600160a01b038082166101008501908152600160a01b830460ff16610120860152600160a81b90920461ffff16610140850152600183015416610160840152600282018054849291849161018085019190611329906139ec565b80601f0160208091040260200160405190810160405280929190818152602001828054611355906139ec565b80156113a25780601f10611377576101008083540402835291602001916113a2565b820191906000526020600020905b81548152906001019060200180831161138557829003601f168201915b505050918352505060038201546020808301919091526004830154604080840191909152600590930154606092830152928452815180830183526006860154815260078601548185015284840152815180830183526008860154815260098601548185015284830152815160808082018452600a8701548252600b87015482860152600c87015482850152600d87015460ff161515828401528583019190915282518082018452600e870180548252600f880154828701526010880154828601526011880180548651818902810189019097528087529390970196919590949386019392908301828280156114b657602002820191906000526020600020905b8154815260200190600101908083116114a2575b505050919092525050508152604080516060808201835260128501546001600160a01b0316825260138501546020838101919091526014860154838501528085019290925260158501549284019290925260169093015460ff1615159101528181015190810151905191925061152b91613a3c565b815160c0015161153b9190613a3c565b9392505050565b60006301e1338061271062093a8061155a8587613b91565b6115649190613b91565b61156e9190613bd0565b61153b9190613bd0565b6005602052816000526040600020818154811061159457600080fd5b90600052602060002001600091509150505481565b60006115b3612978565b6000600384815481106115c8576115c8613a4f565b6000918252602090912060179091020160018101549091506001600160a01b031633146116075760405162461bcd60e51b8152600401610c1f90613ba8565b600a8101544211801561161d5750600b81015442105b801561162e5750600d81015460ff16155b801561163e5750600c8101548311155b801561164d5750600a81015415155b6116ab5760405162461bcd60e51b815260206004820152602960248201527f54696d656c6f636b206e6f7420736574206f72206e6f7420636f6d706c6574656044820152686420696e2074696d6560b81b6064820152608401610c1f565b600d8101805460ff1916600117905560068101548311156116d1576116cf84612c7f565b505b60006116dc85611299565b9050838260060160000160008282546116f59190613c0b565b909155505060018201548254611718916001600160a01b03918216911686612de1565b50600061172486611299565b604080518481526020810183905291925087917fa3ea4fb8dee4d414198cb197af6eae4fe483c1a0b849dc50e53b9bf1a60e2166910160405180910390a260019350505050611293600160db55565b8160006003828154811061178957611789613a4f565b6000918252602090912060408051610200810190915260179092020180546001600160a01b038082166101008501908152600160a01b830460ff16610120860152600160a81b90920461ffff16610140850152600183015416610160840152600282018054849291849161018085019190611803906139ec565b80601f016020809104026020016040519081016040528092919081815260200182805461182f906139ec565b801561187c5780601f106118515761010080835404028352916020019161187c565b820191906000526020600020905b81548152906001019060200180831161185f57829003601f168201915b505050918352505060038201546020808301919091526004830154604080840191909152600590930154606092830152928452815180830183526006860154815260078601548185015284840152815180830183526008860154815260098601548185015284830152815160808082018452600a8701548252600b87015482860152600c87015482850152600d87015460ff161515828401528583019190915282518082018452600e870180548252600f8801548287015260108801548286015260118801805486518189028101890190975280875293909701969195909493860193929083018282801561199057602002820191906000526020600020905b81548152602001906001019080831161197c575b505050919092525050508152604080516060808201835260128501546001600160a01b039081168352601386015460208085019190915260148701548486015285019290925260158501549284019290925260169093015460ff161515918101919091528251015191925016331480611a1357506044546001600160a01b031633145b611a2f5760405162461bcd60e51b8152600401610c1f90613ba8565b6001600160a01b038316611a7e5760405162461bcd60e51b8152602060048201526016602482015275496e76616c69642077616c6c6574206164647265737360501b6044820152606401610c1f565b8260038581548110611a9257611a92613a4f565b6000918252602090912060179091020160010180546001600160a01b0319166001600160a01b039290921691909117905550505050565b600f8181548110611ad957600080fd5b6000918252602090912001546001600160a01b0316905081565b611afb612978565b600060038481548110611b1057611b10613a4f565b6000918252602090912060179091020160018101549091506001600160a01b03163314611b4f5760405162461bcd60e51b8152600401610c1f90613ba8565b6000611b5a85611299565b8254909150611b74906001600160a01b03163330876128ae565b5083826006016000016000828254611b8c9190613a3c565b9091555050825115611ba557611ba38584866129d1565b505b6000611bb086611299565b604080518481526020810183905291925087917fa3ea4fb8dee4d414198cb197af6eae4fe483c1a0b849dc50e53b9bf1a60e2166910160405180910390a2505050610b8b600160db55565b6045546001600160a01b03163314611c645760405162461bcd60e51b815260206004820152602660248201527f6f6e6c792070656e64696e67206f776e65722063616e2061636365707420747260448201526530b739b332b960d11b6064820152608401610c1f565b604554611c79906001600160a01b0316612e1e565b565b600081600060038281548110611c9357611c93613a4f565b6000918252602090912060408051610200810190915260179092020180546001600160a01b038082166101008501908152600160a01b830460ff16610120860152600160a81b90920461ffff16610140850152600183015416610160840152600282018054849291849161018085019190611d0d906139ec565b80601f0160208091040260200160405190810160405280929190818152602001828054611d39906139ec565b8015611d865780601f10611d5b57610100808354040283529160200191611d86565b820191906000526020600020905b815481529060010190602001808311611d6957829003601f168201915b505050918352505060038201546020808301919091526004830154604080840191909152600590930154606092830152928452815180830183526006860154815260078601548185015284840152815180830183526008860154815260098601548185015284830152815160808082018452600a8701548252600b87015482860152600c87015482850152600d87015460ff161515828401528583019190915282518082018452600e870180548252600f88015482870152601088015482860152601188018054865181890281018901909752808752939097019691959094938601939290830182828015611e9a57602002820191906000526020600020905b815481526020019060010190808311611e86575b505050919092525050508152604080516060808201835260128501546001600160a01b039081168352601386015460208085019190915260148701548486015285019290925260158501549284019290925260169093015460ff161515918101919091528251015191925016331480611f1d57506044546001600160a01b031633145b611f395760405162461bcd60e51b8152600401610c1f90613ba8565b600060038581548110611f4e57611f4e613a4f565b60009182526020909120601790910201601681015490915060ff16611fa75760405162461bcd60e51b815260206004820152600f60248201526e506f6f6c206e6f742061637469766560881b6044820152606401610c1f565b60168101805460ff19169055426015909101555060019392505050565b601154610100900460ff1615808015611fe45750601154600160ff909116105b80611ffe5750303b158015611ffe575060115460ff166001145b6120615760405162461bcd60e51b815260206004820152602e60248201527f496e697469616c697a61626c653a20636f6e747261637420697320616c72656160448201526d191e481a5b9a5d1a585b1a5e995960921b6064820152608401610c1f565b6011805460ff191660011790558015612084576011805461ff0019166101001790555b61208c612e7b565b600a80546001600160a01b0319166001600160a01b03841617905580156110a2576011805461ff0019169055604051600181527f7f26b83ff96e1f2b6a682f133852f6798a09c465da95921460cefb38474024989060200160405180910390a15050565b60006120fa612978565b60006003838154811061210f5761210f613a4f565b6000918252602090912060408051610200810190915260179092020180546001600160a01b038082166101008501908152600160a01b830460ff16610120860152600160a81b90920461ffff16610140850152600183015416610160840152600282018054849291849161018085019190612189906139ec565b80601f01602080910402602001604051908101604052809291908181526020018280546121b5906139ec565b80156122025780601f106121d757610100808354040283529160200191612202565b820191906000526020600020905b8154815290600101906020018083116121e557829003601f168201915b505050918352505060038201546020808301919091526004830154604080840191909152600590930154606092830152928452815180830183526006860154815260078601548185015284840152815180830183526008860154815260098601548185015284830152815160808082018452600a8701548252600b87015482860152600c87015482850152600d87015460ff161515828401528583019190915282518082018452600e870180548252600f8801548287015260108801548286015260118801805486518189028101890190975280875293909701969195909493860193929083018282801561231657602002820191906000526020600020905b815481526020019060010190808311612302575b505050919092525050508152604080516060808201835260128501546001600160a01b039081168352601386015460208085019190915260148701548486015285019290925260158501549284019290925260169093015460ff16151591810191909152825101519192501633146123a05760405162461bcd60e51b8152600401610c1f90613ba8565b6000838152600c6020526040902054801561245c576000848152600b602090815260408083208484528252808320548151633941ea2960e21b815291516001600160a01b0390911693849363e507a8a49360048082019492939183900301908290875af1158015612415573d6000803e3d6000fd5b505050506040513d601f19601f820116820180604052508101906124399190613bf2565b835160608101519051919550612459916001600160a01b03169086612de1565b50505b5050612468600160db55565b919050565b8060006003828154811061248357612483613a4f565b6000918252602090912060408051610200810190915260179092020180546001600160a01b038082166101008501908152600160a01b830460ff16610120860152600160a81b90920461ffff166101408501526001830154166101608401526002820180548492918491610180850191906124fd906139ec565b80601f0160208091040260200160405190810160405280929190818152602001828054612529906139ec565b80156125765780601f1061254b57610100808354040283529160200191612576565b820191906000526020600020905b81548152906001019060200180831161255957829003601f168201915b505050918352505060038201546020808301919091526004830154604080840191909152600590930154606092830152928452815180830183526006860154815260078601548185015284840152815180830183526008860154815260098601548185015284830152815160808082018452600a8701548252600b87015482860152600c87015482850152600d87015460ff161515828401528583019190915282518082018452600e870180548252600f8801548287015260108801548286015260118801805486518189028101890190975280875293909701969195909493860193929083018282801561268a57602002820191906000526020600020905b815481526020019060010190808311612676575b505050919092525050508152604080516060808201835260128501546001600160a01b039081168352601386015460208085019190915260148701548486015285019290925260158501549284019290925260169093015460ff16151591810191909152825101519192501633148061270d57506044546001600160a01b031633145b6127295760405162461bcd60e51b8152600401610c1f90613ba8565b612731612978565b6000838152600c6020908152604080832054600b8352818420818552909252909120546001600160a01b03168015612813576000816001600160a01b031663f69e20466040518163ffffffff1660e01b81526004016020604051808303816000875af11580156127a5573d6000803e3d6000fd5b505050506040513d601f19601f820116820180604052508101906127c99190613bf2565b90506127d6600182613c0b565b600387815481106127e9576127e9613a4f565b9060005260206000209060170201600601600101600082825461280c9190613a3c565b9091555050505b5050610b8b600160db55565b612827612eaa565b6001600160a01b03811661288c5760405162461bcd60e51b815260206004820152602660248201527f4f776e61626c653a206e6577206f776e657220697320746865207a65726f206160448201526564647265737360d01b6064820152608401610c1f565b604580546001600160a01b0319166001600160a01b0392909216919091179055565b6040516001600160a01b038085166024830152831660448201526064810182905260009061291c9086906323b872dd60e01b906084015b60408051601f198184030181529190526020810180516001600160e01b03166001600160e01b031990931692909217909152612f04565b5060015b949350505050565b6001600160a01b03831615610b8b576001600160a01b0380841660009081526009602090815260408083209386168352929052908120805483929061296e908490613a3c565b9091555050505050565b600260db54036129ca5760405162461bcd60e51b815260206004820152601f60248201527f5265656e7472616e637947756172643a207265656e7472616e742063616c6c006044820152606401610c1f565b600260db55565b600080600385815481106129e7576129e7613a4f565b90600052602060002090601702019050600084604051602001612a0a9190613cb6565b60408051601f1981840301815291815281516020928301206000898152600c909352912054909150808214612b02576000612a4488612c7f565b90506000612a528989612fd6565b90506001600160a01b03811615612aff5760068501805460009091558190612a7b600182613c0b565b60078801558654612a96906001600160a01b03168483612de1565b50816001600160a01b0316630b5090076040518163ffffffff1660e01b81526004016020604051808303816000875af1158015612ad7573d6000803e3d6000fd5b505050506040513d601f19601f82011682018060405250810190612afb9190613bf2565b5050505b50505b5050509392505050565b610fd3612eaa565b7f4910fdfa16fed3260ed0e7147f7cc6da11a60208b5b9406d12a635614ffd91435460ff1615612b4757610b8b8361315e565b826001600160a01b03166352d1902d6040518163ffffffff1660e01b8152600401602060405180830381865afa925050508015612ba1575060408051601f3d908101601f19168201909252612b9e91810190613bf2565b60015b612c045760405162461bcd60e51b815260206004820152602e60248201527f45524331393637557067726164653a206e657720696d706c656d656e7461746960448201526d6f6e206973206e6f74205555505360901b6064820152608401610c1f565b600080516020613d9a8339815191528114612c735760405162461bcd60e51b815260206004820152602960248201527f45524331393637557067726164653a20756e737570706f727465642070726f786044820152681a58589b195555525160ba1b6064820152608401610c1f565b50610b8b8383836131fa565b60008060038381548110612c9557612c95613a4f565b60009182526020808320868452600c9091526040832080549084905560179092020192508015612dd9576000858152600b602090815260408083208484528252808320548151637f1f087360e01b815291516001600160a01b0390911693928492637f1f08739260048083019392829003018187875af1158015612d1d573d6000803e3d6000fd5b505050506040513d601f19601f82011682018060405250810190612d419190613bf2565b6040516348b1933560e01b8152600481018290529091506001600160a01b038316906348b19335906024016020604051808303816000875af1158015612d8b573d6000803e3d6000fd5b505050506040513d601f19601f82011682018060405250810190612daf9190613bf2565b6000600787018190556006870180549296508692909190612dd1908490613a3c565b909155505050505b509392505050565b6040516001600160a01b038316602482015260448101829052600090612e1490859063a9059cbb60e01b906064016128e5565b5060019392505050565b604480546001600160a01b038381166001600160a01b03198084168217909455604580549094169093556040519116919082907f8be0079c531659141344cd1fd0a4f28419497f9722a3daafe3b4186f6b6457e090600090a35050565b601154610100900460ff16612ea25760405162461bcd60e51b8152600401610c1f90613cc9565b611c79613225565b6044546001600160a01b03163314611c795760405162461bcd60e51b815260206004820181905260248201527f4f776e61626c653a2063616c6c6572206973206e6f7420746865206f776e65726044820152606401610c1f565b6000612f59826040518060400160405280602081526020017f5361666545524332303a206c6f772d6c6576656c2063616c6c206661696c6564815250856001600160a01b03166132559092919063ffffffff16565b805190915015610b8b5780806020019051810190612f779190613d14565b610b8b5760405162461bcd60e51b815260206004820152602a60248201527f5361666545524332303a204552433230206f7065726174696f6e20646964206e6044820152691bdd081cdd58d8d9595960b21b6064820152608401610c1f565b600080600083604051602001612fec9190613cb6565b60408051601f1981840301815291815281516020928301206000888152600b84528281208282529093529120549091506001600160a01b0316806130db57600a54600380546001600160a01b039092169163dff968019188918a90811061305557613055613a4f565b60009182526020909120601790910201546040516001600160e01b031960e085901b16815261309192916001600160a01b031690600401613d36565b6020604051808303816000875af11580156130b0573d6000803e3d6000fd5b505050506040513d601f19601f820116820180604052508101906130d49190613d60565b92506130f6565b6000868152600c602052604090209190915591506112939050565b6001600160a01b03831615613154576000868152600b60209081526040808320858452825280832080546001600160a01b0319166001600160a01b0388169081179091558352600d8252808320899055888352600c90915290208290555b5090949350505050565b6001600160a01b0381163b6131cb5760405162461bcd60e51b815260206004820152602d60248201527f455243313936373a206e657720696d706c656d656e746174696f6e206973206e60448201526c1bdd08184818dbdb9d1c9858dd609a1b6064820152608401610c1f565b600080516020613d9a83398151915280546001600160a01b0319166001600160a01b0392909216919091179055565b61320383613264565b6000825111806132105750805b15610b8b5761321f83836132a4565b50505050565b601154610100900460ff1661324c5760405162461bcd60e51b8152600401610c1f90613cc9565b611c7933612e1e565b60606129208484600085613398565b61326d8161315e565b6040516001600160a01b038216907fbc7cd75a20ee27fd9adebab32041f755214dbc6bffa90cc0225b39da2e5c2d3b90600090a250565b60606001600160a01b0383163b61330c5760405162461bcd60e51b815260206004820152602660248201527f416464726573733a2064656c65676174652063616c6c20746f206e6f6e2d636f6044820152651b9d1c9858dd60d21b6064820152608401610c1f565b600080846001600160a01b0316846040516133279190613d7d565b600060405180830381855af49150503d8060008114613362576040519150601f19603f3d011682016040523d82523d6000602084013e613367565b606091505b509150915061338f8282604051806060016040528060278152602001613dba60279139613473565b95945050505050565b6060824710156133f95760405162461bcd60e51b815260206004820152602660248201527f416464726573733a20696e73756666696369656e742062616c616e636520666f6044820152651c8818d85b1b60d21b6064820152608401610c1f565b600080866001600160a01b031685876040516134159190613d7d565b60006040518083038185875af1925050503d8060008114613452576040519150601f19603f3d011682016040523d82523d6000602084013e613457565b606091505b50915091506134688783838761348c565b979650505050505050565b6060831561348257508161153b565b61153b8383613501565b606083156134fb5782516000036134f4576001600160a01b0385163b6134f45760405162461bcd60e51b815260206004820152601d60248201527f416464726573733a2063616c6c20746f206e6f6e2d636f6e74726163740000006044820152606401610c1f565b5081612920565b61292083835b8151156135115781518083602001fd5b8060405162461bcd60e51b8152600401610c1f9190613cb6565b6001600160a01b0381168114610fd357600080fd5b6000806040838503121561355357600080fd5b823561355e8161352b565b9150602083013561356e8161352b565b809150509250929050565b6000806040838503121561358c57600080fd5b50508035926020909101359150565b6000602082840312156135ad57600080fd5b5035919050565b60005b838110156135cf5781810151838201526020016135b7565b50506000910152565b600081518084526135f08160208601602086016135b4565b601f01601f19169290920160200192915050565b60006080830182518452602080840151818601526040840151604086015260608401516080606087015282815180855260a0880191508383019450600092505b808310156136645784518252938301936001929092019190830190613644565b509695505050505050565b6101e080825289516001600160a01b039081169183019190915260208a015160ff1661020083015260408a015161ffff1661022083015260608a01511661024082015260808901516101006102608301526000906136d16102e08401826135d8565b905060a08b015161028084015260c08b01516102a084015260e08b01516102c084015261370b602084018b80518252602090810151910152565b8851606084015260208901516080840152875160a0840152602088015160c0840152604088015160e0840152606088015115156101008401528281036101208401526137578188613604565b86516001600160a01b03166101408501526020870151610160850152604087015161018085015291506137879050565b836101a083015261379d6101c083018415159052565b9998505050505050505050565b600080604083850312156137bd57600080fd5b82356137c88161352b565b946020939093013593505050565b634e487b7160e01b600052604160045260246000fd5b600067ffffffffffffffff80841115613807576138076137d6565b604051601f8501601f19908116603f0116810190828211818310171561382f5761382f6137d6565b8160405280935085815286868601111561384857600080fd5b858560208301376000602087830101525050509392505050565b600082601f83011261387357600080fd5b61153b838335602085016137ec565b600080600080600060a0868803121561389a57600080fd5b8535945060208601359350604086013561ffff811681146138ba57600080fd5b925060608601359150608086013567ffffffffffffffff8111156138dd57600080fd5b6138e988828901613862565b9150509295509295909350565b60006020828403121561390857600080fd5b813561153b8161352b565b6000806040838503121561392657600080fd5b82356139318161352b565b9150602083013567ffffffffffffffff81111561394d57600080fd5b8301601f8101851361395e57600080fd5b61396d858235602084016137ec565b9150509250929050565b6000806040838503121561398a57600080fd5b82359150602083013561356e8161352b565b6000806000606084860312156139b157600080fd5b8335925060208401359150604084013567ffffffffffffffff8111156139d657600080fd5b6139e286828701613862565b9150509250925092565b600181811c90821680613a0057607f821691505b602082108103613a2057634e487b7160e01b600052602260045260246000fd5b50919050565b634e487b7160e01b600052601160045260246000fd5b8082018082111561129357611293613a26565b634e487b7160e01b600052603260045260246000fd5b600080600060608486031215613a7a57600080fd5b83519250602084015191506040840151613a938161352b565b809150509250925092565b600181815b80851115613ad9578160001904821115613abf57613abf613a26565b80851615613acc57918102915b93841c9390800290613aa3565b509250929050565b600082613af057506001611293565b81613afd57506000611293565b8160018114613b135760028114613b1d57613b39565b6001915050611293565b60ff841115613b2e57613b2e613a26565b50506001821b611293565b5060208310610133831016604e8410600b8410161715613b5c575081810a611293565b613b668383613a9e565b8060001904821115613b7a57613b7a613a26565b029392505050565b600061153b60ff841683613ae1565b808202811582820484141761129357611293613a26565b6020808252600e908201526d139bdd08185d5d1a1bdc9a5e995960921b604082015260600190565b600082613bed57634e487b7160e01b600052601260045260246000fd5b500490565b600060208284031215613c0457600080fd5b5051919050565b8181038181111561129357611293613a26565b6020808252602c908201527f46756e6374696f6e206d7573742062652063616c6c6564207468726f7567682060408201526b19195b1959d85d1958d85b1b60a21b606082015260800190565b6020808252602c908201527f46756e6374696f6e206d7573742062652063616c6c6564207468726f7567682060408201526b6163746976652070726f787960a01b606082015260800190565b60208152600061153b60208301846135d8565b6020808252602b908201527f496e697469616c697a61626c653a20636f6e7472616374206973206e6f74206960408201526a6e697469616c697a696e6760a81b606082015260800190565b600060208284031215613d2657600080fd5b8151801515811461153b57600080fd5b604081526000613d4960408301856135d8565b905060018060a01b03831660208301529392505050565b600060208284031215613d7257600080fd5b815161153b8161352b565b60008251613d8f8184602087016135b4565b919091019291505056fe360894a13ba1a3210667c828492db98dca3e2076cc3735a920a3ca505d382bbc416464726573733a206c6f772d6c6576656c2064656c65676174652063616c6c206661696c6564a264697066735822122045e939498d6c607d8c39e3bfd9aa3c365ddce1a33417d28be77c52607757d18864736f6c63430008110033",
    "linkReferences": {
      "src/lib/SaloonLib.sol": {
        "SaloonLib": [
          {
            "start": 2698,
            "length": 20
          },
          {
            "start": 3656,
            "length": 20
          }
        ]
      }
    }
  },
  "methodIdentifiers": {
    "acceptOwnershipTransfer()": "b842e87f",
    "activeStrategies(uint256)": "b20b2429",
    "activeTokens(uint256)": "9f224f35",
    "calcRequiredPremiumBalancePerPeriod(uint256,uint256)": "836ef1fa",
    "compoundYieldForPid(uint256)": "e78ea3df",
    "initialize(address)": "c4d66de8",
    "makeProjectDeposit(uint256,uint256,string)": "ae07f948",
    "minTokenStakeAmount(address)": "39458723",
    "nftInfo(uint256)": "1f8bc790",
    "owner()": "8da5cb5b",
    "pidNFTList(uint256,uint256)": "96ea48e8",
    "pidStrategies(uint256,bytes32)": "074ecf03",
    "poolInfo(uint256)": "1526fe27",
    "projectDepositWithdrawal(uint256,uint256)": "983c1ce0",
    "proxiableUUID()": "52d1902d",
    "receiveStrategyYield(address,uint256)": "1aebcecb",
    "referralBalances(address,address)": "011b408b",
    "saloonBounty()": "79923898",
    "saloonBountyProfit(address)": "e45abd0f",
    "saloonManager()": "220e1124",
    "saloonPremiumProfit(address)": "ca006148",
    "saloonProjectPortal()": "277fd2a1",
    "saloonStrategyProfit(address)": "598d17bf",
    "scheduleProjectDepositWithdrawal(uint256,uint256)": "5669cbef",
    "setAPYandPoolCapAndDeposit(uint256,uint256,uint16,uint256,string)": "30ca0794",
    "strategyAddressToPid(address)": "957deecc",
    "tokenWhitelist(address)": "753d7563",
    "transferOwnership(address)": "f2fde38b",
    "updateProjectWalletAddress(uint256,address)": "995974c4",
    "upgradeTo(address)": "3659cfe6",
    "upgradeToAndCall(address,bytes)": "4f1ef286",
    "viewBountyBalance(uint256)": "6ac6d812",
    "windDownBounty(uint256)": "bb7019c1",
    "withdrawProjectYield(uint256)": "db53e8b5"
  },
  "id": 49
}