{
  "abi": [
    {
      "anonymous": false,
      "inputs": [
        {
          "indexed": false,
          "internalType": "address",
          "name": "previousAdmin",
          "type": "address"
        },
        {
          "indexed": false,
          "internalType": "address",
          "name": "newAdmin",
          "type": "address"
        }
      ],
      "name": "AdminChanged",
      "type": "event"
    },
    {
      "anonymous": false,
      "inputs": [
        {
          "indexed": true,
          "internalType": "address",
          "name": "beacon",
          "type": "address"
        }
      ],
      "name": "BeaconUpgraded",
      "type": "event"
    },
    {
      "anonymous": false,
      "inputs": [
        {
          "indexed": true,
          "internalType": "uint256",
          "name": "pid",
          "type": "uint256"
        },
        {
          "indexed": false,
          "internalType": "uint256",
          "name": "oldAmount",
          "type": "uint256"
        },
        {
          "indexed": false,
          "internalType": "uint256",
          "name": "newAmount",
          "type": "uint256"
        }
      ],
      "name": "BountyBalanceChanged",
      "type": "event"
    },
    {
      "anonymous": false,
      "inputs": [
        {
          "indexed": true,
          "internalType": "address",
          "name": "hunter",
          "type": "address"
        },
        {
          "indexed": true,
          "internalType": "address",
          "name": "token",
          "type": "address"
        },
        {
          "indexed": false,
          "internalType": "uint256",
          "name": "amount",
          "type": "uint256"
        }
      ],
      "name": "BountyPaid",
      "type": "event"
    },
    {
      "anonymous": false,
      "inputs": [
        {
          "indexed": false,
          "internalType": "uint8",
          "name": "version",
          "type": "uint8"
        }
      ],
      "name": "Initialized",
      "type": "event"
    },
    {
      "anonymous": false,
      "inputs": [
        {
          "indexed": true,
          "internalType": "uint256",
          "name": "pid",
          "type": "uint256"
        },
        {
          "indexed": true,
          "internalType": "address",
          "name": "token",
          "type": "address"
        },
        {
          "indexed": false,
          "internalType": "uint256",
          "name": "tokenDecimals",
          "type": "uint256"
        }
      ],
      "name": "NewBountyDeployed",
      "type": "event"
    },
    {
      "anonymous": false,
      "inputs": [
        {
          "indexed": true,
          "internalType": "address",
          "name": "previousOwner",
          "type": "address"
        },
        {
          "indexed": true,
          "internalType": "address",
          "name": "newOwner",
          "type": "address"
        }
      ],
      "name": "OwnershipTransferred",
      "type": "event"
    },
    {
      "anonymous": false,
      "inputs": [
        {
          "indexed": true,
          "internalType": "uint256",
          "name": "pid",
          "type": "uint256"
        },
        {
          "indexed": false,
          "internalType": "uint256",
          "name": "amount",
          "type": "uint256"
        }
      ],
      "name": "PremiumBilled",
      "type": "event"
    },
    {
      "anonymous": false,
      "inputs": [
        {
          "indexed": true,
          "internalType": "address",
          "name": "user",
          "type": "address"
        },
        {
          "indexed": true,
          "internalType": "uint256",
          "name": "pid",
          "type": "uint256"
        },
        {
          "indexed": false,
          "internalType": "uint256",
          "name": "amount",
          "type": "uint256"
        }
      ],
      "name": "Staked",
      "type": "event"
    },
    {
      "anonymous": false,
      "inputs": [
        {
          "indexed": true,
          "internalType": "address",
          "name": "user",
          "type": "address"
        },
        {
          "indexed": true,
          "internalType": "uint256",
          "name": "pid",
          "type": "uint256"
        },
        {
          "indexed": false,
          "internalType": "uint256",
          "name": "amount",
          "type": "uint256"
        }
      ],
      "name": "Unstaked",
      "type": "event"
    },
    {
      "anonymous": false,
      "inputs": [
        {
          "indexed": true,
          "internalType": "address",
          "name": "implementation",
          "type": "address"
        }
      ],
      "name": "Upgraded",
      "type": "event"
    },
    {
      "anonymous": false,
      "inputs": [
        {
          "indexed": true,
          "internalType": "uint256",
          "name": "pid",
          "type": "uint256"
        },
        {
          "indexed": false,
          "internalType": "uint256",
          "name": "amount",
          "type": "uint256"
        }
      ],
      "name": "WithdrawalOrUnstakeScheduled",
      "type": "event"
    },
    {
      "anonymous": false,
      "inputs": [
        {
          "indexed": true,
          "internalType": "address",
          "name": "referrer",
          "type": "address"
        },
        {
          "indexed": false,
          "internalType": "uint256",
          "name": "amount",
          "type": "uint256"
        }
      ],
      "name": "referralPaid",
      "type": "event"
    },
    {
      "anonymous": false,
      "inputs": [
        {
          "indexed": true,
          "internalType": "address",
          "name": "token",
          "type": "address"
        },
        {
          "indexed": true,
          "internalType": "bool",
          "name": "whitelisted",
          "type": "bool"
        }
      ],
      "name": "tokenWhitelistUpdated",
      "type": "event"
    },
    {
      "inputs": [],
      "name": "acceptOwnershipTransfer",
      "outputs": [],
      "stateMutability": "nonpayable",
      "type": "function"
    },
    {
      "inputs": [
        {
          "internalType": "uint256",
          "name": "",
          "type": "uint256"
        }
      ],
      "name": "activeStrategies",
      "outputs": [
        {
          "internalType": "bytes32",
          "name": "",
          "type": "bytes32"
        }
      ],
      "stateMutability": "view",
      "type": "function"
    },
    {
      "inputs": [
        {
          "internalType": "uint256",
          "name": "",
          "type": "uint256"
        }
      ],
      "name": "activeTokens",
      "outputs": [
        {
          "internalType": "address",
          "name": "",
          "type": "address"
        }
      ],
      "stateMutability": "view",
      "type": "function"
    },
    {
      "inputs": [
        {
          "internalType": "uint256",
          "name": "_poolCap",
          "type": "uint256"
        },
        {
          "internalType": "uint256",
          "name": "_apy",
          "type": "uint256"
        }
      ],
      "name": "calcRequiredPremiumBalancePerPeriod",
      "outputs": [
        {
          "internalType": "uint256",
          "name": "requiredPremiumBalance",
          "type": "uint256"
        }
      ],
      "stateMutability": "pure",
      "type": "function"
    },
    {
      "inputs": [
        {
          "internalType": "uint256",
          "name": "_pid",
          "type": "uint256"
        }
      ],
      "name": "compoundYieldForPid",
      "outputs": [],
      "stateMutability": "nonpayable",
      "type": "function"
    },
    {
      "inputs": [
        {
          "internalType": "address",
          "name": "_strategyFactory",
          "type": "address"
        }
      ],
      "name": "initialize",
      "outputs": [],
      "stateMutability": "nonpayable",
      "type": "function"
    },
    {
      "inputs": [
        {
          "internalType": "uint256",
          "name": "_pid",
          "type": "uint256"
        },
        {
          "internalType": "uint256",
          "name": "_deposit",
          "type": "uint256"
        },
        {
          "internalType": "string",
          "name": "_strategyName",
          "type": "string"
        }
      ],
      "name": "makeProjectDeposit",
      "outputs": [],
      "stateMutability": "nonpayable",
      "type": "function"
    },
    {
      "inputs": [
        {
          "internalType": "address",
          "name": "",
          "type": "address"
        }
      ],
      "name": "minTokenStakeAmount",
      "outputs": [
        {
          "internalType": "uint256",
          "name": "",
          "type": "uint256"
        }
      ],
      "stateMutability": "view",
      "type": "function"
    },
    {
      "inputs": [
        {
          "internalType": "uint256",
          "name": "",
          "type": "uint256"
        }
      ],
      "name": "nftInfo",
      "outputs": [
        {
          "internalType": "uint256",
          "name": "pid",
          "type": "uint256"
        },
        {
          "internalType": "uint256",
          "name": "amount",
          "type": "uint256"
        },
        {
          "internalType": "uint256",
          "name": "xDelta",
          "type": "uint256"
        },
        {
          "internalType": "uint256",
          "name": "apy",
          "type": "uint256"
        },
        {
          "internalType": "uint256",
          "name": "unclaimed",
          "type": "uint256"
        },
        {
          "internalType": "uint256",
          "name": "lastClaimedTime",
          "type": "uint256"
        },
        {
          "internalType": "uint256",
          "name": "timelock",
          "type": "uint256"
        },
        {
          "internalType": "uint256",
          "name": "timelimit",
          "type": "uint256"
        }
      ],
      "stateMutability": "view",
      "type": "function"
    },
    {
      "inputs": [],
      "name": "owner",
      "outputs": [
        {
          "internalType": "address",
          "name": "",
          "type": "address"
        }
      ],
      "stateMutability": "view",
      "type": "function"
    },
    {
      "inputs": [
        {
          "internalType": "uint256",
          "name": "",
          "type": "uint256"
        },
        {
          "internalType": "uint256",
          "name": "",
          "type": "uint256"
        }
      ],
      "name": "pidNFTList",
      "outputs": [
        {
          "internalType": "uint256",
          "name": "",
          "type": "uint256"
        }
      ],
      "stateMutability": "view",
      "type": "function"
    },
    {
      "inputs": [
        {
          "internalType": "uint256",
          "name": "",
          "type": "uint256"
        },
        {
          "internalType": "bytes32",
          "name": "",
          "type": "bytes32"
        }
      ],
      "name": "pidStrategies",
      "outputs": [
        {
          "internalType": "address",
          "name": "",
          "type": "address"
        }
      ],
      "stateMutability": "view",
      "type": "function"
    },
    {
      "inputs": [
        {
          "internalType": "uint256",
          "name": "",
          "type": "uint256"
        }
      ],
      "name": "poolInfo",
      "outputs": [
        {
          "components": [
            {
              "internalType": "contract IERC20",
              "name": "token",
              "type": "address"
            },
            {
              "internalType": "uint8",
              "name": "tokenDecimals",
              "type": "uint8"
            },
            {
              "internalType": "uint16",
              "name": "apy",
              "type": "uint16"
            },
            {
              "internalType": "address",
              "name": "projectWallet",
              "type": "address"
            },
            {
              "internalType": "string",
              "name": "projectName",
              "type": "string"
            },
            {
              "internalType": "uint256",
              "name": "poolCap",
              "type": "uint256"
            },
            {
              "internalType": "uint256",
              "name": "totalStaked",
              "type": "uint256"
            },
            {
              "internalType": "uint256",
              "name": "scalingMultiplier",
              "type": "uint256"
            }
          ],
          "internalType": "struct ISaloon.GeneralInfo",
          "name": "generalInfo",
          "type": "tuple"
        },
        {
          "components": [
            {
              "internalType": "uint256",
              "name": "projectDepositHeld",
              "type": "uint256"
            },
            {
              "internalType": "uint256",
              "name": "projectDepositInStrategy",
              "type": "uint256"
            }
          ],
          "internalType": "struct ISaloon.DepositInfo",
          "name": "depositInfo",
          "type": "tuple"
        },
        {
          "components": [
            {
              "internalType": "uint256",
              "name": "premiumBalance",
              "type": "uint256"
            },
            {
              "internalType": "uint256",
              "name": "premiumAvailable",
              "type": "uint256"
            }
          ],
          "internalType": "struct ISaloon.PremiumInfo",
          "name": "premiumInfo",
          "type": "tuple"
        },
        {
          "components": [
            {
              "internalType": "uint256",
              "name": "timelock",
              "type": "uint256"
            },
            {
              "internalType": "uint256",
              "name": "timeLimit",
              "type": "uint256"
            },
            {
              "internalType": "uint256",
              "name": "withdrawalScheduledAmount",
              "type": "uint256"
            },
            {
              "internalType": "bool",
              "name": "withdrawalExecuted",
              "type": "bool"
            }
          ],
          "internalType": "struct ISaloon.TimelockInfo",
          "name": "poolTimelock",
          "type": "tuple"
        },
        {
          "components": [
            {
              "internalType": "uint256",
              "name": "currentX",
              "type": "uint256"
            },
            {
              "internalType": "uint256",
              "name": "currentY",
              "type": "uint256"
            },
            {
              "internalType": "uint256",
              "name": "totalSupply",
              "type": "uint256"
            },
            {
              "internalType": "uint256[]",
              "name": "unstakedTokens",
              "type": "uint256[]"
            }
          ],
          "internalType": "struct ISaloon.CurveInfo",
          "name": "curveInfo",
          "type": "tuple"
        },
        {
          "components": [
            {
              "internalType": "address",
              "name": "referrer",
              "type": "address"
            },
            {
              "internalType": "uint256",
              "name": "referralFee",
              "type": "uint256"
            },
            {
              "internalType": "uint256",
              "name": "endTime",
              "type": "uint256"
            }
          ],
          "internalType": "struct ISaloon.ReferralInfo",
          "name": "referralInfo",
          "type": "tuple"
        },
        {
          "internalType": "uint256",
          "name": "freezeTime",
          "type": "uint256"
        },
        {
          "internalType": "bool",
          "name": "isActive",
          "type": "bool"
        }
      ],
      "stateMutability": "view",
      "type": "function"
    },
    {
      "inputs": [
        {
          "internalType": "uint256",
          "name": "_pid",
          "type": "uint256"
        },
        {
          "internalType": "uint256",
          "name": "_amount",
          "type": "uint256"
        }
      ],
      "name": "projectDepositWithdrawal",
      "outputs": [
        {
          "internalType": "bool",
          "name": "",
          "type": "bool"
        }
      ],
      "stateMutability": "nonpayable",
      "type": "function"
    },
    {
      "inputs": [],
      "name": "proxiableUUID",
      "outputs": [
        {
          "internalType": "bytes32",
          "name": "",
          "type": "bytes32"
        }
      ],
      "stateMutability": "view",
      "type": "function"
    },
    {
      "inputs": [
        {
          "internalType": "address",
          "name": "_token",
          "type": "address"
        },
        {
          "internalType": "uint256",
          "name": "_amount",
          "type": "uint256"
        }
      ],
      "name": "receiveStrategyYield",
      "outputs": [],
      "stateMutability": "nonpayable",
      "type": "function"
    },
    {
      "inputs": [
        {
          "internalType": "address",
          "name": "",
          "type": "address"
        },
        {
          "internalType": "address",
          "name": "",
          "type": "address"
        }
      ],
      "name": "referralBalances",
      "outputs": [
        {
          "internalType": "uint256",
          "name": "",
          "type": "uint256"
        }
      ],
      "stateMutability": "view",
      "type": "function"
    },
    {
      "inputs": [
        {
          "internalType": "address",
          "name": "",
          "type": "address"
        }
      ],
      "name": "saloonBountyProfit",
      "outputs": [
        {
          "internalType": "uint256",
          "name": "",
          "type": "uint256"
        }
      ],
      "stateMutability": "view",
      "type": "function"
    },
    {
      "inputs": [
        {
          "internalType": "address",
          "name": "",
          "type": "address"
        }
      ],
      "name": "saloonPremiumProfit",
      "outputs": [
        {
          "internalType": "uint256",
          "name": "",
          "type": "uint256"
        }
      ],
      "stateMutability": "view",
      "type": "function"
    },
    {
      "inputs": [
        {
          "internalType": "address",
          "name": "",
          "type": "address"
        }
      ],
      "name": "saloonStrategyProfit",
      "outputs": [
        {
          "internalType": "uint256",
          "name": "",
          "type": "uint256"
        }
      ],
      "stateMutability": "view",
      "type": "function"
    },
    {
      "inputs": [
        {
          "internalType": "uint256",
          "name": "_pid",
          "type": "uint256"
        },
        {
          "internalType": "uint256",
          "name": "_amount",
          "type": "uint256"
        }
      ],
      "name": "scheduleProjectDepositWithdrawal",
      "outputs": [
        {
          "internalType": "bool",
          "name": "",
          "type": "bool"
        }
      ],
      "stateMutability": "nonpayable",
      "type": "function"
    },
    {
      "inputs": [
        {
          "internalType": "uint256",
          "name": "_pid",
          "type": "uint256"
        },
        {
          "internalType": "uint256",
          "name": "_poolCap",
          "type": "uint256"
        },
        {
          "internalType": "uint16",
          "name": "_apy",
          "type": "uint16"
        },
        {
          "internalType": "uint256",
          "name": "_deposit",
          "type": "uint256"
        },
        {
          "internalType": "string",
          "name": "_strategyName",
          "type": "string"
        }
      ],
      "name": "setAPYandPoolCapAndDeposit",
      "outputs": [],
      "stateMutability": "nonpayable",
      "type": "function"
    },
    {
      "inputs": [
        {
          "internalType": "address",
          "name": "",
          "type": "address"
        }
      ],
      "name": "strategyAddressToPid",
      "outputs": [
        {
          "internalType": "uint256",
          "name": "",
          "type": "uint256"
        }
      ],
      "stateMutability": "view",
      "type": "function"
    },
    {
      "inputs": [
        {
          "internalType": "address",
          "name": "",
          "type": "address"
        }
      ],
      "name": "tokenWhitelist",
      "outputs": [
        {
          "internalType": "bool",
          "name": "",
          "type": "bool"
        }
      ],
      "stateMutability": "view",
      "type": "function"
    },
    {
      "inputs": [
        {
          "internalType": "address",
          "name": "newOwner",
          "type": "address"
        }
      ],
      "name": "transferOwnership",
      "outputs": [],
      "stateMutability": "nonpayable",
      "type": "function"
    },
    {
      "inputs": [
        {
          "internalType": "uint256",
          "name": "_pid",
          "type": "uint256"
        },
        {
          "internalType": "address",
          "name": "_projectWallet",
          "type": "address"
        }
      ],
      "name": "updateProjectWalletAddress",
      "outputs": [],
      "stateMutability": "nonpayable",
      "type": "function"
    },
    {
      "inputs": [
        {
          "internalType": "address",
          "name": "newImplementation",
          "type": "address"
        }
      ],
      "name": "upgradeTo",
      "outputs": [],
      "stateMutability": "nonpayable",
      "type": "function"
    },
    {
      "inputs": [
        {
          "internalType": "address",
          "name": "newImplementation",
          "type": "address"
        },
        {
          "internalType": "bytes",
          "name": "data",
          "type": "bytes"
        }
      ],
      "name": "upgradeToAndCall",
      "outputs": [],
      "stateMutability": "payable",
      "type": "function"
    },
    {
      "inputs": [
        {
          "internalType": "uint256",
          "name": "_pid",
          "type": "uint256"
        }
      ],
      "name": "viewBountyBalance",
      "outputs": [
        {
          "internalType": "uint256",
          "name": "",
          "type": "uint256"
        }
      ],
      "stateMutability": "view",
      "type": "function"
    },
    {
      "inputs": [
        {
          "internalType": "uint256",
          "name": "_pid",
          "type": "uint256"
        }
      ],
      "name": "windDownBounty",
      "outputs": [
        {
          "internalType": "bool",
          "name": "",
          "type": "bool"
        }
      ],
      "stateMutability": "nonpayable",
      "type": "function"
    },
    {
      "inputs": [
        {
          "internalType": "uint256",
          "name": "_pid",
          "type": "uint256"
        }
      ],
      "name": "withdrawProjectYield",
      "outputs": [
        {
          "internalType": "uint256",
          "name": "returnedAmount",
          "type": "uint256"
        }
      ],
      "stateMutability": "nonpayable",
      "type": "function"
    }
  ],
  "bytecode": {
    "object": "0x60a06040523060805234801561001457600080fd5b50608051613d9261004c60003960008181610e8401528181610ec401528181610f6301528181610fa301526110360152613d926000f3fe6080604052600436106101d85760003560e01c80638da5cb5b11610102578063b842e87f11610095578063db53e8b511610064578063db53e8b514610671578063e45abd0f14610691578063e78ea3df146106be578063f2fde38b146106de57600080fd5b8063b842e87f146105ef578063bb7019c114610604578063c4d66de814610624578063ca0061481461064457600080fd5b8063995974c4116100d1578063995974c4146105625780639f224f3514610582578063ae07f948146105a2578063b20b2429146105c257600080fd5b80638da5cb5b146104d7578063957deecc146104f557806396ea48e814610522578063983c1ce01461054257600080fd5b8063394587231161017a578063598d17bf11610149578063598d17bf1461043a5780636ac6d81214610467578063753d756314610487578063836ef1fa146104b757600080fd5b806339458723146103b55780634f1ef286146103e257806352d1902d146103f55780635669cbef1461040a57600080fd5b80631aebcecb116101b65780631aebcecb146102b55780631f8bc790146102d757806330ca0794146103755780633659cfe61461039557600080fd5b8063011b408b146101dd578063074ecf03146102285780631526fe2714610281575b600080fd5b3480156101e957600080fd5b506102156101f83660046134bc565b600660209081526000928352604080842090915290825290205481565b6040519081526020015b60405180910390f35b34801561023457600080fd5b506102696102433660046134f5565b60086020908152600092835260408084209091529082529020546001600160a01b031681565b6040516001600160a01b03909116815260200161021f565b34801561028d57600080fd5b506102a161029c366004613517565b6106fe565b60405161021f9897969594939291906135eb565b3480156102c157600080fd5b506102d56102d0366004613726565b61095a565b005b3480156102e357600080fd5b5061033a6102f2366004613517565b60016020528060005260406000206000915090508060000154908060010154908060020154908060030154908060040154908060050154908060060154908060070154905088565b604080519889526020890197909752958701949094526060860192909252608085015260a084015260c083015260e08201526101000161021f565b34801561038157600080fd5b506102d56103903660046137fe565b610b14565b3480156103a157600080fd5b506102d56103b0366004613872565b610e7a565b3480156103c157600080fd5b506102156103d0366004613872565b600d6020526000908152604090205481565b6102d56103f036600461388f565b610f59565b34801561040157600080fd5b50610215611029565b34801561041657600080fd5b5061042a6104253660046134f5565b6110dc565b604051901515815260200161021f565b34801561044657600080fd5b50610215610455366004613872565b60056020526000908152604090205481565b34801561047357600080fd5b50610215610482366004613517565b61121c565b34801561049357600080fd5b5061042a6104a2366004613872565b600b6020526000908152604090205460ff1681565b3480156104c357600080fd5b506102156104d23660046134f5565b6114c5565b3480156104e357600080fd5b506041546001600160a01b0316610269565b34801561050157600080fd5b50610215610510366004613872565b600a6020526000908152604090205481565b34801561052e57600080fd5b5061021561053d3660046134f5565b6114fb565b34801561054e57600080fd5b5061042a61055d3660046134f5565b61152c565b34801561056e57600080fd5b506102d561057d3660046138f3565b6116f5565b34801561058e57600080fd5b5061026961059d366004613517565b611a4a565b3480156105ae57600080fd5b506102d56105bd366004613918565b611a74565b3480156105ce57600080fd5b506102156105dd366004613517565b60096020526000908152604090205481565b3480156105fb57600080fd5b506102d5611b7b565b34801561061057600080fd5b5061042a61061f366004613517565b611bfb565b34801561063057600080fd5b506102d561063f366004613872565b611f42565b34801561065057600080fd5b5061021561065f366004613872565b60046020526000908152604090205481565b34801561067d57600080fd5b5061021561068c366004613517565b61206e565b34801561069d57600080fd5b506102156106ac366004613872565b60036020526000908152604090205481565b3480156106ca57600080fd5b506102d56106d9366004613517565b6123ea565b3480156106ea57600080fd5b506102d56106f9366004613872565b61279b565b6000818154811061070e57600080fd5b60009182526020918290206040805161010081018252601790930290910180546001600160a01b03808216855260ff600160a01b8304169585019590955261ffff600160a81b90910416918301919091526001810154909216606082015260028201805492935090918391608084019161078790613968565b80601f01602080910402602001604051908101604052809291908181526020018280546107b390613968565b80156108005780601f106107d557610100808354040283529160200191610800565b820191906000526020600020905b8154815290600101906020018083116107e357829003601f168201915b50505091835250506003820154602080830191909152600483015460408084019190915260059093015460609283015282518084018452600686015481526007860154818301528351808501855260088701548152600987015481840152845160808082018752600a8901548252600b89015482860152600c89015482880152600d89015460ff1615158287015286519081018752600e890180548252600f8a01548287015260108a01548289015260118a018054895181890281018901909a52808a52999a959994989397959692959194918601939290919083018282801561090957602002820191906000526020600020905b8154815260200190600101908083116108f5575b5050509190925250506040805160608101825260128501546001600160a01b031681526013850154602082015260148501549181019190915260158401546016909401549293909290915060ff1688565b61096f6001600160a01b03831633308461282a565b50336000908152600a6020526040812054908190036109bb576001600160a01b038316600090815260056020526040812080548492906109b09084906139b8565b90915550610b0f9050565b600080600073__$4defa815a6c8401eda00ac6be9b95d3cdb$__63fc76fff386600087815481106109ee576109ee6139cb565b90600052602060002090601702016012016002015460008881548110610a1657610a166139cb565b90600052602060002090601702016012016001015460008981548110610a3e57610a3e6139cb565b600091825260209091206017909102016012015460405160e086901b6001600160e01b03191681526004810194909452602484019290925260448301526001600160a01b03166064820152608401606060405180830381865af4158015610aa9573d6000803e3d6000fd5b505050506040513d601f19601f82011682018060405250810190610acd91906139e1565b925092509250610ade8187846128a4565b6001600160a01b03861660009081526005602052604081208054859290610b069084906139b8565b90915550505050505b505050565b610b1c6128f4565b6000808681548110610b3057610b306139cb565b60009182526020909120601790910201601681015490915060ff16158015610b5a57506003810154155b610bab5760405162461bcd60e51b815260206004820152601860248201527f506f6f6c20616c726561647920696e697469616c697a6564000000000000000060448201526064015b60405180910390fd5b60008461ffff16118015610bc557506127108461ffff1611155b610c045760405162461bcd60e51b815260206004820152601060248201526f415059206f7574206f662072616e676560801b6044820152606401610ba2565b8054610c1b90600160a01b900460ff16600a613afe565b610c27906103e8613b0d565b8510158015610c5957508054610c4890600160a01b900460ff16600a613afe565b610c559062989680613b0d565b8511155b610c9d5760405162461bcd60e51b8152602060048201526015602482015274506f6f6c20636170206f7574206f662072616e676560581b6044820152606401610ba2565b60018101546001600160a01b03163314610cc95760405162461bcd60e51b8152600401610ba290613b24565b6000610cd9868661ffff166114c5565b90506000612710610cec6103e884613b0d565b610cf69190613b4c565b90506000610d038961121c565b9050610d273330610d14868a6139b8565b87546001600160a01b031692919061282a565b5085846006016000016000828254610d3f91906139b8565b909155505060038401889055835461ffff60a81b1916600160a81b61ffff89169081029190911785556040516334d5118560e01b8152600481019190915273__$4defa815a6c8401eda00ac6be9b95d3cdb$__906334d5118590602401602060405180830381865af4158015610db9573d6000803e3d6000fd5b505050506040513d601f19601f82011682018060405250810190610ddd9190613b6e565b600585015560168401805460ff1916600117905560088401839055610e028284613b87565b6009850155845115610e1b57610e1989868861294d565b505b6000610e268a61121c565b60408051848152602081018390529192508b917fa3ea4fb8dee4d414198cb197af6eae4fe483c1a0b849dc50e53b9bf1a60e2166910160405180910390a25050505050610e73600160d855565b5050505050565b6001600160a01b037f0000000000000000000000000000000000000000000000000000000000000000163003610ec25760405162461bcd60e51b8152600401610ba290613b9a565b7f00000000000000000000000000000000000000000000000000000000000000006001600160a01b0316610f0b600080516020613d16833981519152546001600160a01b031690565b6001600160a01b031614610f315760405162461bcd60e51b8152600401610ba290613be6565b610f3a81612a88565b60408051600080825260208201909252610f5691839190612a90565b50565b6001600160a01b037f0000000000000000000000000000000000000000000000000000000000000000163003610fa15760405162461bcd60e51b8152600401610ba290613b9a565b7f00000000000000000000000000000000000000000000000000000000000000006001600160a01b0316610fea600080516020613d16833981519152546001600160a01b031690565b6001600160a01b0316146110105760405162461bcd60e51b8152600401610ba290613be6565b61101982612a88565b61102582826001612a90565b5050565b6000306001600160a01b037f000000000000000000000000000000000000000000000000000000000000000016146110c95760405162461bcd60e51b815260206004820152603860248201527f555550535570677261646561626c653a206d757374206e6f742062652063616c60448201527f6c6564207468726f7567682064656c656761746563616c6c00000000000000006064820152608401610ba2565b50600080516020613d1683398151915290565b600080600084815481106110f2576110f26139cb565b90600052602060002090601702019050828160060160010154826006016000015461111d91906139b8565b101561116b5760405162461bcd60e51b815260206004820152601a60248201527f416d6f756e7420626967676572207468616e206465706f7369740000000000006044820152606401610ba2565b60018101546001600160a01b031633146111975760405162461bcd60e51b8152600401610ba290613b24565b6111a462093a80426139b8565b600a8201556111b662093a80426139b8565b6111c3906203f4806139b8565b600b820155600c8101839055600d8101805460ff1916905560405183815284907fb3b9c925de3673837b40c6b4d4463a8f88dc821cd27e07f1ff6bf6abf96413a59060200160405180910390a260019150505b92915050565b60008060008381548110611232576112326139cb565b6000918252602090912060408051610200810190915260179092020180546001600160a01b038082166101008501908152600160a01b830460ff16610120860152600160a81b90920461ffff166101408501526001830154166101608401526002820180548492918491610180850191906112ac90613968565b80601f01602080910402602001604051908101604052809291908181526020018280546112d890613968565b80156113255780601f106112fa57610100808354040283529160200191611325565b820191906000526020600020905b81548152906001019060200180831161130857829003601f168201915b505050918352505060038201546020808301919091526004830154604080840191909152600590930154606092830152928452815180830183526006860154815260078601548185015284840152815180830183526008860154815260098601548185015284830152815160808082018452600a8701548252600b87015482860152600c87015482850152600d87015460ff161515828401528583019190915282518082018452600e870180548252600f8801548287015260108801548286015260118801805486518189028101890190975280875293909701969195909493860193929083018282801561143957602002820191906000526020600020905b815481526020019060010190808311611425575b505050919092525050508152604080516060808201835260128501546001600160a01b0316825260138501546020838101919091526014860154838501528085019290925260158501549284019290925260169093015460ff161515910152818101519081015190519192506114ae916139b8565b815160c001516114be91906139b8565b9392505050565b60006301e1338061271062093a806114dd8587613b0d565b6114e79190613b0d565b6114f19190613b4c565b6114be9190613b4c565b6002602052816000526040600020818154811061151757600080fd5b90600052602060002001600091509150505481565b60006115366128f4565b600080848154811061154a5761154a6139cb565b6000918252602090912060179091020160018101549091506001600160a01b031633146115895760405162461bcd60e51b8152600401610ba290613b24565b600a8101544211801561159f5750600b81015442105b80156115b05750600d81015460ff16155b80156115c05750600c8101548311155b80156115cf5750600a81015415155b61162d5760405162461bcd60e51b815260206004820152602960248201527f54696d656c6f636b206e6f7420736574206f72206e6f7420636f6d706c6574656044820152686420696e2074696d6560b81b6064820152608401610ba2565b600d8101805460ff1916600117905560068101548311156116535761165184612bfb565b505b600061165e8561121c565b9050838260060160000160008282546116779190613b87565b90915550506001820154825461169a916001600160a01b03918216911686612d5d565b5060006116a68661121c565b604080518481526020810183905291925087917fa3ea4fb8dee4d414198cb197af6eae4fe483c1a0b849dc50e53b9bf1a60e2166910160405180910390a260019350505050611216600160d855565b81600080828154811061170a5761170a6139cb565b6000918252602090912060408051610200810190915260179092020180546001600160a01b038082166101008501908152600160a01b830460ff16610120860152600160a81b90920461ffff1661014085015260018301541661016084015260028201805484929184916101808501919061178490613968565b80601f01602080910402602001604051908101604052809291908181526020018280546117b090613968565b80156117fd5780601f106117d2576101008083540402835291602001916117fd565b820191906000526020600020905b8154815290600101906020018083116117e057829003601f168201915b505050918352505060038201546020808301919091526004830154604080840191909152600590930154606092830152928452815180830183526006860154815260078601548185015284840152815180830183526008860154815260098601548185015284830152815160808082018452600a8701548252600b87015482860152600c87015482850152600d87015460ff161515828401528583019190915282518082018452600e870180548252600f8801548287015260108801548286015260118801805486518189028101890190975280875293909701969195909493860193929083018282801561191157602002820191906000526020600020905b8154815260200190600101908083116118fd575b505050919092525050508152604080516060808201835260128501546001600160a01b039081168352601386015460208085019190915260148701548486015285019290925260158501549284019290925260169093015460ff16151591810191909152825101519192501633148061199457506041546001600160a01b031633145b6119b05760405162461bcd60e51b8152600401610ba290613b24565b6001600160a01b0383166119ff5760405162461bcd60e51b8152602060048201526016602482015275496e76616c69642077616c6c6574206164647265737360501b6044820152606401610ba2565b8260008581548110611a1357611a136139cb565b6000918252602090912060179091020160010180546001600160a01b0319166001600160a01b039290921691909117905550505050565b600c8181548110611a5a57600080fd5b6000918252602090912001546001600160a01b0316905081565b611a7c6128f4565b6000808481548110611a9057611a906139cb565b6000918252602090912060179091020160018101549091506001600160a01b03163314611acf5760405162461bcd60e51b8152600401610ba290613b24565b6000611ada8561121c565b8254909150611af4906001600160a01b031633308761282a565b5083826006016000016000828254611b0c91906139b8565b9091555050825115611b2557611b2385848661294d565b505b6000611b308661121c565b604080518481526020810183905291925087917fa3ea4fb8dee4d414198cb197af6eae4fe483c1a0b849dc50e53b9bf1a60e2166910160405180910390a2505050610b0f600160d855565b6042546001600160a01b03163314611be45760405162461bcd60e51b815260206004820152602660248201527f6f6e6c792070656e64696e67206f776e65722063616e2061636365707420747260448201526530b739b332b960d11b6064820152608401610ba2565b604254611bf9906001600160a01b0316612d9a565b565b6000816000808281548110611c1257611c126139cb565b6000918252602090912060408051610200810190915260179092020180546001600160a01b038082166101008501908152600160a01b830460ff16610120860152600160a81b90920461ffff16610140850152600183015416610160840152600282018054849291849161018085019190611c8c90613968565b80601f0160208091040260200160405190810160405280929190818152602001828054611cb890613968565b8015611d055780601f10611cda57610100808354040283529160200191611d05565b820191906000526020600020905b815481529060010190602001808311611ce857829003601f168201915b505050918352505060038201546020808301919091526004830154604080840191909152600590930154606092830152928452815180830183526006860154815260078601548185015284840152815180830183526008860154815260098601548185015284830152815160808082018452600a8701548252600b87015482860152600c87015482850152600d87015460ff161515828401528583019190915282518082018452600e870180548252600f88015482870152601088015482860152601188018054865181890281018901909752808752939097019691959094938601939290830182828015611e1957602002820191906000526020600020905b815481526020019060010190808311611e05575b505050919092525050508152604080516060808201835260128501546001600160a01b039081168352601386015460208085019190915260148701548486015285019290925260158501549284019290925260169093015460ff161515918101919091528251015191925016331480611e9c57506041546001600160a01b031633145b611eb85760405162461bcd60e51b8152600401610ba290613b24565b6000808581548110611ecc57611ecc6139cb565b60009182526020909120601790910201601681015490915060ff16611f255760405162461bcd60e51b815260206004820152600f60248201526e506f6f6c206e6f742061637469766560881b6044820152606401610ba2565b60168101805460ff19169055426015909101555060019392505050565b600e54610100900460ff1615808015611f625750600e54600160ff909116105b80611f7c5750303b158015611f7c5750600e5460ff166001145b611fdf5760405162461bcd60e51b815260206004820152602e60248201527f496e697469616c697a61626c653a20636f6e747261637420697320616c72656160448201526d191e481a5b9a5d1a585b1a5e995960921b6064820152608401610ba2565b600e805460ff19166001179055801561200257600e805461ff0019166101001790555b61200a612df7565b600780546001600160a01b0319166001600160a01b038416179055801561102557600e805461ff0019169055604051600181527f7f26b83ff96e1f2b6a682f133852f6798a09c465da95921460cefb38474024989060200160405180910390a15050565b60006120786128f4565b600080838154811061208c5761208c6139cb565b6000918252602090912060408051610200810190915260179092020180546001600160a01b038082166101008501908152600160a01b830460ff16610120860152600160a81b90920461ffff1661014085015260018301541661016084015260028201805484929184916101808501919061210690613968565b80601f016020809104026020016040519081016040528092919081815260200182805461213290613968565b801561217f5780601f106121545761010080835404028352916020019161217f565b820191906000526020600020905b81548152906001019060200180831161216257829003601f168201915b505050918352505060038201546020808301919091526004830154604080840191909152600590930154606092830152928452815180830183526006860154815260078601548185015284840152815180830183526008860154815260098601548185015284830152815160808082018452600a8701548252600b87015482860152600c87015482850152600d87015460ff161515828401528583019190915282518082018452600e870180548252600f8801548287015260108801548286015260118801805486518189028101890190975280875293909701969195909493860193929083018282801561229357602002820191906000526020600020905b81548152602001906001019080831161227f575b505050919092525050508152604080516060808201835260128501546001600160a01b039081168352601386015460208085019190915260148701548486015285019290925260158501549284019290925260169093015460ff161515918101919091528251015191925016331461231d5760405162461bcd60e51b8152600401610ba290613b24565b60008381526009602052604090205480156123d95760008481526008602090815260408083208484528252808320548151633941ea2960e21b815291516001600160a01b0390911693849363e507a8a49360048082019492939183900301908290875af1158015612392573d6000803e3d6000fd5b505050506040513d601f19601f820116820180604052508101906123b69190613b6e565b8351606081015190519195506123d6916001600160a01b03169086612d5d565b50505b50506123e5600160d855565b919050565b8060008082815481106123ff576123ff6139cb565b6000918252602090912060408051610200810190915260179092020180546001600160a01b038082166101008501908152600160a01b830460ff16610120860152600160a81b90920461ffff1661014085015260018301541661016084015260028201805484929184916101808501919061247990613968565b80601f01602080910402602001604051908101604052809291908181526020018280546124a590613968565b80156124f25780601f106124c7576101008083540402835291602001916124f2565b820191906000526020600020905b8154815290600101906020018083116124d557829003601f168201915b505050918352505060038201546020808301919091526004830154604080840191909152600590930154606092830152928452815180830183526006860154815260078601548185015284840152815180830183526008860154815260098601548185015284830152815160808082018452600a8701548252600b87015482860152600c87015482850152600d87015460ff161515828401528583019190915282518082018452600e870180548252600f8801548287015260108801548286015260118801805486518189028101890190975280875293909701969195909493860193929083018282801561260657602002820191906000526020600020905b8154815260200190600101908083116125f2575b505050919092525050508152604080516060808201835260128501546001600160a01b039081168352601386015460208085019190915260148701548486015285019290925260158501549284019290925260169093015460ff16151591810191909152825101519192501633148061268957506041546001600160a01b031633145b6126a55760405162461bcd60e51b8152600401610ba290613b24565b6126ad6128f4565b60008381526009602090815260408083205460088352818420818552909252909120546001600160a01b0316801561278f576000816001600160a01b031663f69e20466040518163ffffffff1660e01b81526004016020604051808303816000875af1158015612721573d6000803e3d6000fd5b505050506040513d601f19601f820116820180604052508101906127459190613b6e565b9050612752600182613b87565b60008781548110612765576127656139cb565b9060005260206000209060170201600601600101600082825461278891906139b8565b9091555050505b5050610b0f600160d855565b6127a3612e26565b6001600160a01b0381166128085760405162461bcd60e51b815260206004820152602660248201527f4f776e61626c653a206e6577206f776e657220697320746865207a65726f206160448201526564647265737360d01b6064820152608401610ba2565b604280546001600160a01b0319166001600160a01b0392909216919091179055565b6040516001600160a01b03808516602483015283166044820152606481018290526000906128989086906323b872dd60e01b906084015b60408051601f198184030181529190526020810180516001600160e01b03166001600160e01b031990931692909217909152612e80565b5060015b949350505050565b6001600160a01b03831615610b0f576001600160a01b038084166000908152600660209081526040808320938616835292905290812080548392906128ea9084906139b8565b9091555050505050565b600260d854036129465760405162461bcd60e51b815260206004820152601f60248201527f5265656e7472616e637947756172643a207265656e7472616e742063616c6c006044820152606401610ba2565b600260d855565b60008060008581548110612963576129636139cb565b906000526020600020906017020190506000846040516020016129869190613c32565b60408051601f19818403018152918152815160209283012060008981526009909352912054909150808214612a7e5760006129c088612bfb565b905060006129ce8989612f52565b90506001600160a01b03811615612a7b57600685018054600090915581906129f7600182613b87565b60078801558654612a12906001600160a01b03168483612d5d565b50816001600160a01b0316630b5090076040518163ffffffff1660e01b81526004016020604051808303816000875af1158015612a53573d6000803e3d6000fd5b505050506040513d601f19601f82011682018060405250810190612a779190613b6e565b5050505b50505b5050509392505050565b610f56612e26565b7f4910fdfa16fed3260ed0e7147f7cc6da11a60208b5b9406d12a635614ffd91435460ff1615612ac357610b0f836130da565b826001600160a01b03166352d1902d6040518163ffffffff1660e01b8152600401602060405180830381865afa925050508015612b1d575060408051601f3d908101601f19168201909252612b1a91810190613b6e565b60015b612b805760405162461bcd60e51b815260206004820152602e60248201527f45524331393637557067726164653a206e657720696d706c656d656e7461746960448201526d6f6e206973206e6f74205555505360901b6064820152608401610ba2565b600080516020613d168339815191528114612bef5760405162461bcd60e51b815260206004820152602960248201527f45524331393637557067726164653a20756e737570706f727465642070726f786044820152681a58589b195555525160ba1b6064820152608401610ba2565b50610b0f838383613176565b60008060008381548110612c1157612c116139cb565b6000918252602080832086845260099091526040832080549084905560179092020192508015612d555760008581526008602090815260408083208484528252808320548151637f1f087360e01b815291516001600160a01b0390911693928492637f1f08739260048083019392829003018187875af1158015612c99573d6000803e3d6000fd5b505050506040513d601f19601f82011682018060405250810190612cbd9190613b6e565b6040516348b1933560e01b8152600481018290529091506001600160a01b038316906348b19335906024016020604051808303816000875af1158015612d07573d6000803e3d6000fd5b505050506040513d601f19601f82011682018060405250810190612d2b9190613b6e565b6000600787018190556006870180549296508692909190612d4d9084906139b8565b909155505050505b509392505050565b6040516001600160a01b038316602482015260448101829052600090612d9090859063a9059cbb60e01b90606401612861565b5060019392505050565b604180546001600160a01b038381166001600160a01b03198084168217909455604280549094169093556040519116919082907f8be0079c531659141344cd1fd0a4f28419497f9722a3daafe3b4186f6b6457e090600090a35050565b600e54610100900460ff16612e1e5760405162461bcd60e51b8152600401610ba290613c45565b611bf96131a1565b6041546001600160a01b03163314611bf95760405162461bcd60e51b815260206004820181905260248201527f4f776e61626c653a2063616c6c6572206973206e6f7420746865206f776e65726044820152606401610ba2565b6000612ed5826040518060400160405280602081526020017f5361666545524332303a206c6f772d6c6576656c2063616c6c206661696c6564815250856001600160a01b03166131d19092919063ffffffff16565b805190915015610b0f5780806020019051810190612ef39190613c90565b610b0f5760405162461bcd60e51b815260206004820152602a60248201527f5361666545524332303a204552433230206f7065726174696f6e20646964206e6044820152691bdd081cdd58d8d9595960b21b6064820152608401610ba2565b600080600083604051602001612f689190613c32565b60408051601f1981840301815291815281516020928301206000888152600884528281208282529093529120549091506001600160a01b03168061305757600754600080546001600160a01b039092169163dff968019188918a908110612fd157612fd16139cb565b60009182526020909120601790910201546040516001600160e01b031960e085901b16815261300d92916001600160a01b031690600401613cb2565b6020604051808303816000875af115801561302c573d6000803e3d6000fd5b505050506040513d601f19601f820116820180604052508101906130509190613cdc565b9250613072565b60008681526009602052604090209190915591506112169050565b6001600160a01b038316156130d0576000868152600860209081526040808320858452825280832080546001600160a01b0319166001600160a01b0388169081179091558352600a8252808320899055888352600990915290208290555b5090949350505050565b6001600160a01b0381163b6131475760405162461bcd60e51b815260206004820152602d60248201527f455243313936373a206e657720696d706c656d656e746174696f6e206973206e60448201526c1bdd08184818dbdb9d1c9858dd609a1b6064820152608401610ba2565b600080516020613d1683398151915280546001600160a01b0319166001600160a01b0392909216919091179055565b61317f836131e0565b60008251118061318c5750805b15610b0f5761319b8383613220565b50505050565b600e54610100900460ff166131c85760405162461bcd60e51b8152600401610ba290613c45565b611bf933612d9a565b606061289c8484600085613314565b6131e9816130da565b6040516001600160a01b038216907fbc7cd75a20ee27fd9adebab32041f755214dbc6bffa90cc0225b39da2e5c2d3b90600090a250565b60606001600160a01b0383163b6132885760405162461bcd60e51b815260206004820152602660248201527f416464726573733a2064656c65676174652063616c6c20746f206e6f6e2d636f6044820152651b9d1c9858dd60d21b6064820152608401610ba2565b600080846001600160a01b0316846040516132a39190613cf9565b600060405180830381855af49150503d80600081146132de576040519150601f19603f3d011682016040523d82523d6000602084013e6132e3565b606091505b509150915061330b8282604051806060016040528060278152602001613d36602791396133ef565b95945050505050565b6060824710156133755760405162461bcd60e51b815260206004820152602660248201527f416464726573733a20696e73756666696369656e742062616c616e636520666f6044820152651c8818d85b1b60d21b6064820152608401610ba2565b600080866001600160a01b031685876040516133919190613cf9565b60006040518083038185875af1925050503d80600081146133ce576040519150601f19603f3d011682016040523d82523d6000602084013e6133d3565b606091505b50915091506133e487838387613408565b979650505050505050565b606083156133fe5750816114be565b6114be838361347d565b60608315613477578251600003613470576001600160a01b0385163b6134705760405162461bcd60e51b815260206004820152601d60248201527f416464726573733a2063616c6c20746f206e6f6e2d636f6e74726163740000006044820152606401610ba2565b508161289c565b61289c83835b81511561348d5781518083602001fd5b8060405162461bcd60e51b8152600401610ba29190613c32565b6001600160a01b0381168114610f5657600080fd5b600080604083850312156134cf57600080fd5b82356134da816134a7565b915060208301356134ea816134a7565b809150509250929050565b6000806040838503121561350857600080fd5b50508035926020909101359150565b60006020828403121561352957600080fd5b5035919050565b60005b8381101561354b578181015183820152602001613533565b50506000910152565b6000815180845261356c816020860160208601613530565b601f01601f19169290920160200192915050565b60006080830182518452602080840151818601526040840151604086015260608401516080606087015282815180855260a0880191508383019450600092505b808310156135e057845182529383019360019290920191908301906135c0565b509695505050505050565b6101e080825289516001600160a01b039081169183019190915260208a015160ff1661020083015260408a015161ffff1661022083015260608a015116610240820152608089015161010061026083015260009061364d6102e0840182613554565b905060a08b015161028084015260c08b01516102a084015260e08b01516102c0840152613687602084018b80518252602090810151910152565b8851606084015260208901516080840152875160a0840152602088015160c0840152604088015160e0840152606088015115156101008401528281036101208401526136d38188613580565b86516001600160a01b03166101408501526020870151610160850152604087015161018085015291506137039050565b836101a08301526137196101c083018415159052565b9998505050505050505050565b6000806040838503121561373957600080fd5b8235613744816134a7565b946020939093013593505050565b634e487b7160e01b600052604160045260246000fd5b600067ffffffffffffffff8084111561378357613783613752565b604051601f8501601f19908116603f011681019082821181831017156137ab576137ab613752565b816040528093508581528686860111156137c457600080fd5b858560208301376000602087830101525050509392505050565b600082601f8301126137ef57600080fd5b6114be83833560208501613768565b600080600080600060a0868803121561381657600080fd5b8535945060208601359350604086013561ffff8116811461383657600080fd5b925060608601359150608086013567ffffffffffffffff81111561385957600080fd5b613865888289016137de565b9150509295509295909350565b60006020828403121561388457600080fd5b81356114be816134a7565b600080604083850312156138a257600080fd5b82356138ad816134a7565b9150602083013567ffffffffffffffff8111156138c957600080fd5b8301601f810185136138da57600080fd5b6138e985823560208401613768565b9150509250929050565b6000806040838503121561390657600080fd5b8235915060208301356134ea816134a7565b60008060006060848603121561392d57600080fd5b8335925060208401359150604084013567ffffffffffffffff81111561395257600080fd5b61395e868287016137de565b9150509250925092565b600181811c9082168061397c57607f821691505b60208210810361399c57634e487b7160e01b600052602260045260246000fd5b50919050565b634e487b7160e01b600052601160045260246000fd5b80820180821115611216576112166139a2565b634e487b7160e01b600052603260045260246000fd5b6000806000606084860312156139f657600080fd5b83519250602084015191506040840151613a0f816134a7565b809150509250925092565b600181815b80851115613a55578160001904821115613a3b57613a3b6139a2565b80851615613a4857918102915b93841c9390800290613a1f565b509250929050565b600082613a6c57506001611216565b81613a7957506000611216565b8160018114613a8f5760028114613a9957613ab5565b6001915050611216565b60ff841115613aaa57613aaa6139a2565b50506001821b611216565b5060208310610133831016604e8410600b8410161715613ad8575081810a611216565b613ae28383613a1a565b8060001904821115613af657613af66139a2565b029392505050565b60006114be60ff841683613a5d565b8082028115828204841417611216576112166139a2565b6020808252600e908201526d139bdd08185d5d1a1bdc9a5e995960921b604082015260600190565b600082613b6957634e487b7160e01b600052601260045260246000fd5b500490565b600060208284031215613b8057600080fd5b5051919050565b81810381811115611216576112166139a2565b6020808252602c908201527f46756e6374696f6e206d7573742062652063616c6c6564207468726f7567682060408201526b19195b1959d85d1958d85b1b60a21b606082015260800190565b6020808252602c908201527f46756e6374696f6e206d7573742062652063616c6c6564207468726f7567682060408201526b6163746976652070726f787960a01b606082015260800190565b6020815260006114be6020830184613554565b6020808252602b908201527f496e697469616c697a61626c653a20636f6e7472616374206973206e6f74206960408201526a6e697469616c697a696e6760a81b606082015260800190565b600060208284031215613ca257600080fd5b815180151581146114be57600080fd5b604081526000613cc56040830185613554565b905060018060a01b03831660208301529392505050565b600060208284031215613cee57600080fd5b81516114be816134a7565b60008251613d0b818460208701613530565b919091019291505056fe360894a13ba1a3210667c828492db98dca3e2076cc3735a920a3ca505d382bbc416464726573733a206c6f772d6c6576656c2064656c65676174652063616c6c206661696c6564a26469706673582212204ecc5010480fa554d82b5b67dc93d4c672262cc4b04c26b8fdd9368ee223a82164736f6c63430008110033",
    "linkReferences": {
      "src/lib/SaloonLib.sol": {
        "SaloonLib": [
          {
            "start": 2574,
            "length": 20
          },
          {
            "start": 3531,
            "length": 20
          }
        ]
      }
    }
  },
  "methodIdentifiers": {
    "acceptOwnershipTransfer()": "b842e87f",
    "activeStrategies(uint256)": "b20b2429",
    "activeTokens(uint256)": "9f224f35",
    "calcRequiredPremiumBalancePerPeriod(uint256,uint256)": "836ef1fa",
    "compoundYieldForPid(uint256)": "e78ea3df",
    "initialize(address)": "c4d66de8",
    "makeProjectDeposit(uint256,uint256,string)": "ae07f948",
    "minTokenStakeAmount(address)": "39458723",
    "nftInfo(uint256)": "1f8bc790",
    "owner()": "8da5cb5b",
    "pidNFTList(uint256,uint256)": "96ea48e8",
    "pidStrategies(uint256,bytes32)": "074ecf03",
    "poolInfo(uint256)": "1526fe27",
    "projectDepositWithdrawal(uint256,uint256)": "983c1ce0",
    "proxiableUUID()": "52d1902d",
    "receiveStrategyYield(address,uint256)": "1aebcecb",
    "referralBalances(address,address)": "011b408b",
    "saloonBountyProfit(address)": "e45abd0f",
    "saloonPremiumProfit(address)": "ca006148",
    "saloonStrategyProfit(address)": "598d17bf",
    "scheduleProjectDepositWithdrawal(uint256,uint256)": "5669cbef",
    "setAPYandPoolCapAndDeposit(uint256,uint256,uint16,uint256,string)": "30ca0794",
    "strategyAddressToPid(address)": "957deecc",
    "tokenWhitelist(address)": "753d7563",
    "transferOwnership(address)": "f2fde38b",
    "updateProjectWalletAddress(uint256,address)": "995974c4",
    "upgradeTo(address)": "3659cfe6",
    "upgradeToAndCall(address,bytes)": "4f1ef286",
    "viewBountyBalance(uint256)": "6ac6d812",
    "windDownBounty(uint256)": "bb7019c1",
    "withdrawProjectYield(uint256)": "db53e8b5"
  },
  "id": 48
}