{
  "abi": [
    {
      "anonymous": false,
      "inputs": [
        {
          "indexed": true,
          "internalType": "uint256",
          "name": "pid",
          "type": "uint256"
        },
        {
          "indexed": false,
          "internalType": "uint256",
          "name": "oldAmount",
          "type": "uint256"
        },
        {
          "indexed": false,
          "internalType": "uint256",
          "name": "newAmount",
          "type": "uint256"
        }
      ],
      "name": "BountyBalanceChanged",
      "type": "event"
    },
    {
      "anonymous": false,
      "inputs": [
        {
          "indexed": true,
          "internalType": "address",
          "name": "hunter",
          "type": "address"
        },
        {
          "indexed": true,
          "internalType": "address",
          "name": "token",
          "type": "address"
        },
        {
          "indexed": false,
          "internalType": "uint256",
          "name": "amount",
          "type": "uint256"
        }
      ],
      "name": "BountyPaid",
      "type": "event"
    },
    {
      "anonymous": false,
      "inputs": [
        {
          "indexed": false,
          "internalType": "uint8",
          "name": "version",
          "type": "uint8"
        }
      ],
      "name": "Initialized",
      "type": "event"
    },
    {
      "anonymous": false,
      "inputs": [
        {
          "indexed": true,
          "internalType": "uint256",
          "name": "pid",
          "type": "uint256"
        },
        {
          "indexed": true,
          "internalType": "address",
          "name": "token",
          "type": "address"
        },
        {
          "indexed": false,
          "internalType": "uint256",
          "name": "tokenDecimals",
          "type": "uint256"
        }
      ],
      "name": "NewBountyDeployed",
      "type": "event"
    },
    {
      "anonymous": false,
      "inputs": [
        {
          "indexed": true,
          "internalType": "address",
          "name": "previousOwner",
          "type": "address"
        },
        {
          "indexed": true,
          "internalType": "address",
          "name": "newOwner",
          "type": "address"
        }
      ],
      "name": "OwnershipTransferred",
      "type": "event"
    },
    {
      "anonymous": false,
      "inputs": [
        {
          "indexed": true,
          "internalType": "uint256",
          "name": "pid",
          "type": "uint256"
        },
        {
          "indexed": false,
          "internalType": "uint256",
          "name": "amount",
          "type": "uint256"
        }
      ],
      "name": "PremiumBilled",
      "type": "event"
    },
    {
      "anonymous": false,
      "inputs": [
        {
          "indexed": true,
          "internalType": "address",
          "name": "user",
          "type": "address"
        },
        {
          "indexed": true,
          "internalType": "uint256",
          "name": "pid",
          "type": "uint256"
        },
        {
          "indexed": false,
          "internalType": "uint256",
          "name": "amount",
          "type": "uint256"
        }
      ],
      "name": "Staked",
      "type": "event"
    },
    {
      "anonymous": false,
      "inputs": [
        {
          "indexed": true,
          "internalType": "address",
          "name": "user",
          "type": "address"
        },
        {
          "indexed": true,
          "internalType": "uint256",
          "name": "pid",
          "type": "uint256"
        },
        {
          "indexed": false,
          "internalType": "uint256",
          "name": "amount",
          "type": "uint256"
        }
      ],
      "name": "Unstaked",
      "type": "event"
    },
    {
      "anonymous": false,
      "inputs": [
        {
          "indexed": true,
          "internalType": "uint256",
          "name": "pid",
          "type": "uint256"
        },
        {
          "indexed": false,
          "internalType": "uint256",
          "name": "amount",
          "type": "uint256"
        }
      ],
      "name": "WithdrawalOrUnstakeScheduled",
      "type": "event"
    },
    {
      "anonymous": false,
      "inputs": [
        {
          "indexed": true,
          "internalType": "address",
          "name": "referrer",
          "type": "address"
        },
        {
          "indexed": false,
          "internalType": "uint256",
          "name": "amount",
          "type": "uint256"
        }
      ],
      "name": "referralPaid",
      "type": "event"
    },
    {
      "anonymous": false,
      "inputs": [
        {
          "indexed": true,
          "internalType": "address",
          "name": "token",
          "type": "address"
        },
        {
          "indexed": true,
          "internalType": "bool",
          "name": "whitelisted",
          "type": "bool"
        }
      ],
      "name": "tokenWhitelistUpdated",
      "type": "event"
    },
    {
      "inputs": [],
      "name": "YEAR",
      "outputs": [
        {
          "internalType": "uint256",
          "name": "",
          "type": "uint256"
        }
      ],
      "stateMutability": "view",
      "type": "function"
    },
    {
      "inputs": [],
      "name": "acceptOwnershipTransfer",
      "outputs": [],
      "stateMutability": "nonpayable",
      "type": "function"
    },
    {
      "inputs": [
        {
          "internalType": "uint256",
          "name": "",
          "type": "uint256"
        }
      ],
      "name": "activeStrategies",
      "outputs": [
        {
          "internalType": "bytes32",
          "name": "",
          "type": "bytes32"
        }
      ],
      "stateMutability": "view",
      "type": "function"
    },
    {
      "inputs": [
        {
          "internalType": "uint256",
          "name": "",
          "type": "uint256"
        }
      ],
      "name": "activeTokens",
      "outputs": [
        {
          "internalType": "address",
          "name": "",
          "type": "address"
        }
      ],
      "stateMutability": "view",
      "type": "function"
    },
    {
      "inputs": [
        {
          "internalType": "uint256",
          "name": "_poolCap",
          "type": "uint256"
        },
        {
          "internalType": "uint256",
          "name": "_apy",
          "type": "uint256"
        }
      ],
      "name": "calcRequiredPremiumBalancePerPeriod",
      "outputs": [
        {
          "internalType": "uint256",
          "name": "requiredPremiumBalance",
          "type": "uint256"
        }
      ],
      "stateMutability": "pure",
      "type": "function"
    },
    {
      "inputs": [
        {
          "internalType": "uint256",
          "name": "_pid",
          "type": "uint256"
        }
      ],
      "name": "compoundYieldForPid",
      "outputs": [],
      "stateMutability": "nonpayable",
      "type": "function"
    },
    {
      "inputs": [],
      "name": "initialize",
      "outputs": [],
      "stateMutability": "nonpayable",
      "type": "function"
    },
    {
      "inputs": [
        {
          "internalType": "uint256",
          "name": "_pid",
          "type": "uint256"
        },
        {
          "internalType": "uint256",
          "name": "_deposit",
          "type": "uint256"
        },
        {
          "internalType": "string",
          "name": "_strategyName",
          "type": "string"
        }
      ],
      "name": "makeProjectDeposit",
      "outputs": [],
      "stateMutability": "nonpayable",
      "type": "function"
    },
    {
      "inputs": [
        {
          "internalType": "address",
          "name": "",
          "type": "address"
        }
      ],
      "name": "minTokenStakeAmount",
      "outputs": [
        {
          "internalType": "uint256",
          "name": "",
          "type": "uint256"
        }
      ],
      "stateMutability": "view",
      "type": "function"
    },
    {
      "inputs": [
        {
          "internalType": "uint256",
          "name": "",
          "type": "uint256"
        }
      ],
      "name": "nftInfo",
      "outputs": [
        {
          "internalType": "uint256",
          "name": "pid",
          "type": "uint256"
        },
        {
          "internalType": "uint256",
          "name": "amount",
          "type": "uint256"
        },
        {
          "internalType": "uint256",
          "name": "xDelta",
          "type": "uint256"
        },
        {
          "internalType": "uint256",
          "name": "apy",
          "type": "uint256"
        },
        {
          "internalType": "uint256",
          "name": "unclaimed",
          "type": "uint256"
        },
        {
          "internalType": "uint256",
          "name": "lastClaimedTime",
          "type": "uint256"
        },
        {
          "internalType": "uint256",
          "name": "timelock",
          "type": "uint256"
        },
        {
          "internalType": "uint256",
          "name": "timelimit",
          "type": "uint256"
        },
        {
          "internalType": "bool",
          "name": "hasUnstaked",
          "type": "bool"
        }
      ],
      "stateMutability": "view",
      "type": "function"
    },
    {
      "inputs": [],
      "name": "owner",
      "outputs": [
        {
          "internalType": "address",
          "name": "",
          "type": "address"
        }
      ],
      "stateMutability": "view",
      "type": "function"
    },
    {
      "inputs": [
        {
          "internalType": "uint256",
          "name": "",
          "type": "uint256"
        },
        {
          "internalType": "uint256",
          "name": "",
          "type": "uint256"
        }
      ],
      "name": "pidNFTList",
      "outputs": [
        {
          "internalType": "uint256",
          "name": "",
          "type": "uint256"
        }
      ],
      "stateMutability": "view",
      "type": "function"
    },
    {
      "inputs": [
        {
          "internalType": "uint256",
          "name": "",
          "type": "uint256"
        },
        {
          "internalType": "bytes32",
          "name": "",
          "type": "bytes32"
        }
      ],
      "name": "pidStrategies",
      "outputs": [
        {
          "internalType": "address",
          "name": "",
          "type": "address"
        }
      ],
      "stateMutability": "view",
      "type": "function"
    },
    {
      "inputs": [
        {
          "internalType": "uint256",
          "name": "",
          "type": "uint256"
        }
      ],
      "name": "poolInfo",
      "outputs": [
        {
          "components": [
            {
              "internalType": "contract IERC20",
              "name": "token",
              "type": "address"
            },
            {
              "internalType": "uint8",
              "name": "tokenDecimals",
              "type": "uint8"
            },
            {
              "internalType": "uint16",
              "name": "apy",
              "type": "uint16"
            },
            {
              "internalType": "address",
              "name": "projectWallet",
              "type": "address"
            },
            {
              "internalType": "string",
              "name": "projectName",
              "type": "string"
            },
            {
              "internalType": "uint256",
              "name": "poolCap",
              "type": "uint256"
            },
            {
              "internalType": "uint256",
              "name": "totalStaked",
              "type": "uint256"
            },
            {
              "internalType": "uint256",
              "name": "scalingMultiplier",
              "type": "uint256"
            }
          ],
          "internalType": "struct ISaloon.GeneralInfo",
          "name": "generalInfo",
          "type": "tuple"
        },
        {
          "components": [
            {
              "internalType": "uint256",
              "name": "projectDepositHeld",
              "type": "uint256"
            },
            {
              "internalType": "uint256",
              "name": "projectDepositInStrategy",
              "type": "uint256"
            }
          ],
          "internalType": "struct ISaloon.DepositInfo",
          "name": "depositInfo",
          "type": "tuple"
        },
        {
          "components": [
            {
              "internalType": "uint256",
              "name": "premiumBalance",
              "type": "uint256"
            },
            {
              "internalType": "uint256",
              "name": "premiumAvailable",
              "type": "uint256"
            }
          ],
          "internalType": "struct ISaloon.PremiumInfo",
          "name": "premiumInfo",
          "type": "tuple"
        },
        {
          "components": [
            {
              "internalType": "uint256",
              "name": "timelock",
              "type": "uint256"
            },
            {
              "internalType": "uint256",
              "name": "timeLimit",
              "type": "uint256"
            },
            {
              "internalType": "uint256",
              "name": "withdrawalScheduledAmount",
              "type": "uint256"
            },
            {
              "internalType": "bool",
              "name": "withdrawalExecuted",
              "type": "bool"
            }
          ],
          "internalType": "struct ISaloon.TimelockInfo",
          "name": "poolTimelock",
          "type": "tuple"
        },
        {
          "components": [
            {
              "internalType": "uint256",
              "name": "currentX",
              "type": "uint256"
            },
            {
              "internalType": "uint256",
              "name": "currentY",
              "type": "uint256"
            },
            {
              "internalType": "uint256",
              "name": "totalSupply",
              "type": "uint256"
            },
            {
              "internalType": "uint256[]",
              "name": "unstakedTokens",
              "type": "uint256[]"
            }
          ],
          "internalType": "struct ISaloon.CurveInfo",
          "name": "curveInfo",
          "type": "tuple"
        },
        {
          "components": [
            {
              "internalType": "address",
              "name": "referrer",
              "type": "address"
            },
            {
              "internalType": "uint256",
              "name": "referralFee",
              "type": "uint256"
            },
            {
              "internalType": "uint256",
              "name": "endTime",
              "type": "uint256"
            }
          ],
          "internalType": "struct ISaloon.ReferralInfo",
          "name": "referralInfo",
          "type": "tuple"
        },
        {
          "internalType": "uint256",
          "name": "assessmentPeriodEnd",
          "type": "uint256"
        },
        {
          "internalType": "uint256",
          "name": "freezeTime",
          "type": "uint256"
        },
        {
          "internalType": "bool",
          "name": "isActive",
          "type": "bool"
        }
      ],
      "stateMutability": "view",
      "type": "function"
    },
    {
      "inputs": [
        {
          "internalType": "uint256",
          "name": "_pid",
          "type": "uint256"
        },
        {
          "internalType": "uint256",
          "name": "_amount",
          "type": "uint256"
        }
      ],
      "name": "projectDepositWithdrawal",
      "outputs": [
        {
          "internalType": "bool",
          "name": "",
          "type": "bool"
        }
      ],
      "stateMutability": "nonpayable",
      "type": "function"
    },
    {
      "inputs": [
        {
          "internalType": "address",
          "name": "_token",
          "type": "address"
        },
        {
          "internalType": "uint256",
          "name": "_amount",
          "type": "uint256"
        }
      ],
      "name": "receiveStrategyYield",
      "outputs": [],
      "stateMutability": "nonpayable",
      "type": "function"
    },
    {
      "inputs": [
        {
          "internalType": "address",
          "name": "",
          "type": "address"
        },
        {
          "internalType": "address",
          "name": "",
          "type": "address"
        }
      ],
      "name": "referralBalances",
      "outputs": [
        {
          "internalType": "uint256",
          "name": "",
          "type": "uint256"
        }
      ],
      "stateMutability": "view",
      "type": "function"
    },
    {
      "inputs": [],
      "name": "saloonBounty",
      "outputs": [
        {
          "internalType": "contract ISaloonBounty",
          "name": "",
          "type": "address"
        }
      ],
      "stateMutability": "view",
      "type": "function"
    },
    {
      "inputs": [
        {
          "internalType": "address",
          "name": "",
          "type": "address"
        }
      ],
      "name": "saloonBountyProfit",
      "outputs": [
        {
          "internalType": "uint256",
          "name": "",
          "type": "uint256"
        }
      ],
      "stateMutability": "view",
      "type": "function"
    },
    {
      "inputs": [],
      "name": "saloonManager",
      "outputs": [
        {
          "internalType": "contract ISaloonManager",
          "name": "",
          "type": "address"
        }
      ],
      "stateMutability": "view",
      "type": "function"
    },
    {
      "inputs": [
        {
          "internalType": "address",
          "name": "",
          "type": "address"
        }
      ],
      "name": "saloonPremiumProfit",
      "outputs": [
        {
          "internalType": "uint256",
          "name": "",
          "type": "uint256"
        }
      ],
      "stateMutability": "view",
      "type": "function"
    },
    {
      "inputs": [],
      "name": "saloonProjectPortal",
      "outputs": [
        {
          "internalType": "contract ISaloonProjectPortal",
          "name": "",
          "type": "address"
        }
      ],
      "stateMutability": "view",
      "type": "function"
    },
    {
      "inputs": [
        {
          "internalType": "address",
          "name": "",
          "type": "address"
        }
      ],
      "name": "saloonStrategyProfit",
      "outputs": [
        {
          "internalType": "uint256",
          "name": "",
          "type": "uint256"
        }
      ],
      "stateMutability": "view",
      "type": "function"
    },
    {
      "inputs": [],
      "name": "saloonView",
      "outputs": [
        {
          "internalType": "contract ISaloonView",
          "name": "",
          "type": "address"
        }
      ],
      "stateMutability": "view",
      "type": "function"
    },
    {
      "inputs": [
        {
          "internalType": "uint256",
          "name": "_pid",
          "type": "uint256"
        },
        {
          "internalType": "uint256",
          "name": "_amount",
          "type": "uint256"
        }
      ],
      "name": "scheduleProjectDepositWithdrawal",
      "outputs": [
        {
          "internalType": "bool",
          "name": "",
          "type": "bool"
        }
      ],
      "stateMutability": "nonpayable",
      "type": "function"
    },
    {
      "inputs": [
        {
          "internalType": "uint256",
          "name": "_pid",
          "type": "uint256"
        },
        {
          "internalType": "uint256",
          "name": "_poolCap",
          "type": "uint256"
        },
        {
          "internalType": "uint16",
          "name": "_apy",
          "type": "uint16"
        },
        {
          "internalType": "uint256",
          "name": "_deposit",
          "type": "uint256"
        },
        {
          "internalType": "string",
          "name": "_strategyName",
          "type": "string"
        }
      ],
      "name": "setAPYandPoolCapAndDeposit",
      "outputs": [],
      "stateMutability": "nonpayable",
      "type": "function"
    },
    {
      "inputs": [
        {
          "internalType": "address",
          "name": "",
          "type": "address"
        }
      ],
      "name": "strategyAddressToPid",
      "outputs": [
        {
          "internalType": "uint256",
          "name": "",
          "type": "uint256"
        }
      ],
      "stateMutability": "view",
      "type": "function"
    },
    {
      "inputs": [],
      "name": "strategyFactory",
      "outputs": [
        {
          "internalType": "contract IStrategyFactory",
          "name": "",
          "type": "address"
        }
      ],
      "stateMutability": "view",
      "type": "function"
    },
    {
      "inputs": [
        {
          "internalType": "address",
          "name": "",
          "type": "address"
        }
      ],
      "name": "tokenWhitelist",
      "outputs": [
        {
          "internalType": "bool",
          "name": "",
          "type": "bool"
        }
      ],
      "stateMutability": "view",
      "type": "function"
    },
    {
      "inputs": [
        {
          "internalType": "address",
          "name": "newOwner",
          "type": "address"
        }
      ],
      "name": "transferOwnership",
      "outputs": [],
      "stateMutability": "nonpayable",
      "type": "function"
    },
    {
      "inputs": [
        {
          "internalType": "uint256",
          "name": "_pid",
          "type": "uint256"
        },
        {
          "internalType": "address",
          "name": "_projectWallet",
          "type": "address"
        }
      ],
      "name": "updateProjectWalletAddress",
      "outputs": [],
      "stateMutability": "nonpayable",
      "type": "function"
    },
    {
      "inputs": [
        {
          "internalType": "uint256",
          "name": "_pid",
          "type": "uint256"
        }
      ],
      "name": "viewBountyBalance",
      "outputs": [
        {
          "internalType": "uint256",
          "name": "",
          "type": "uint256"
        }
      ],
      "stateMutability": "view",
      "type": "function"
    },
    {
      "inputs": [
        {
          "internalType": "uint256",
          "name": "_pid",
          "type": "uint256"
        }
      ],
      "name": "windDownBounty",
      "outputs": [
        {
          "internalType": "bool",
          "name": "",
          "type": "bool"
        }
      ],
      "stateMutability": "nonpayable",
      "type": "function"
    },
    {
      "inputs": [
        {
          "internalType": "uint256",
          "name": "_pid",
          "type": "uint256"
        }
      ],
      "name": "withdrawProjectYield",
      "outputs": [
        {
          "internalType": "uint256",
          "name": "returnedAmount",
          "type": "uint256"
        }
      ],
      "stateMutability": "nonpayable",
      "type": "function"
    }
  ],
  "bytecode": {
    "object": "0x608060405234801561001057600080fd5b50613518806100206000396000f3fe608060405234801561001057600080fd5b50600436106102065760003560e01c8063839145401161011a578063ae07f948116100ad578063ca0061481161007c578063ca00614814610571578063db53e8b514610591578063e45abd0f146105a4578063e78ea3df146105c4578063f2fde38b146105d757600080fd5b8063ae07f94814610523578063b20b242914610536578063b842e87f14610556578063bb7019c11461055e57600080fd5b8063983c1ce0116100e9578063983c1ce0146104d7578063995974c4146104ea5780639ef35710146104fd5780639f224f351461051057600080fd5b806383914540146104885780638da5cb5b14610493578063957deecc146104a457806396ea48e8146104c457600080fd5b806330ca07941161019d5780636ac6d8121161016c5780636ac6d81214610424578063753d756314610437578063799238981461045a5780638129fc1c1461046d578063836ef1fa1461047557600080fd5b806330ca0794146103ae57806339458723146103c15780635669cbef146103e1578063598d17bf1461040457600080fd5b80631aebcecb116101d95780631aebcecb146102d05780631f8bc790146102e5578063220e112414610388578063277fd2a11461039b57600080fd5b8063011b408b1461020b578063074ecf03146102495780630a07f543146102955780631526fe27146102a8575b600080fd5b610236610219366004612d86565b600a60209081526000928352604080842090915290825290205481565b6040519081526020015b60405180910390f35b61027d610257366004612dbf565b600c6020908152600092835260408084209091529082529020546001600160a01b031681565b6040516001600160a01b039091168152602001610240565b60035461027d906001600160a01b031681565b6102bb6102b6366004612de1565b6105ea565b60405161024099989796959493929190612eb5565b6102e36102de366004612ff8565b61084b565b005b6103426102f3366004612de1565b6005602081905260009182526040909120805460018201546002830154600384015460048501549585015460068601546007870154600890970154959794969395929493919290919060ff1689565b60408051998a5260208a0198909852968801959095526060870193909352608086019190915260a085015260c084015260e0830152151561010082015261012001610240565b60005461027d906001600160a01b031681565b60015461027d906001600160a01b031681565b6102e36103bc3660046130c7565b610a05565b6102366103cf36600461313b565b60116020526000908152604090205481565b6103f46103ef366004612dbf565b610d6c565b6040519015158152602001610240565b61023661041236600461313b565b60096020526000908152604090205481565b610236610432366004612de1565b610eac565b6103f461044536600461313b565b600f6020526000908152604090205460ff1681565b60025461027d906001600160a01b031681565b6102e3611164565b610236610483366004612dbf565b611275565b6102366301e1338081565b6045546001600160a01b031661027d565b6102366104b236600461313b565b600e6020526000908152604090205481565b6102366104d2366004612dbf565b6112ab565b6103f46104e5366004612dbf565b6112dc565b6102e36104f8366004613158565b6114a6565b600b5461027d906001600160a01b031681565b61027d61051e366004612de1565b611807565b6102e361053136600461317d565b611831565b610236610544366004612de1565b600d6020526000908152604090205481565b6102e3611939565b6103f461056c366004612de1565b6119b9565b61023661057f36600461313b565b60086020526000908152604090205481565b61023661059f366004612de1565b611d0d565b6102366105b236600461313b565b60076020526000908152604090205481565b6102e36105d2366004612de1565b612095565b6102e36105e536600461313b565b612452565b600481815481106105fa57600080fd5b60009182526020918290206040805161010081018252601890930290910180546001600160a01b03808216855260ff600160a01b8304169585019590955261ffff600160a81b909104169183019190915260018101549092166060820152600282018054929350909183916080840191610673906131cd565b80601f016020809104026020016040519081016040528092919081815260200182805461069f906131cd565b80156106ec5780601f106106c1576101008083540402835291602001916106ec565b820191906000526020600020905b8154815290600101906020018083116106cf57829003601f168201915b50505091835250506003820154602080830191909152600483015460408084019190915260059093015460609283015282518084018452600686015481526007860154818301528351808501855260088701548152600987015481840152845160808082018752600a8901548252600b89015482860152600c89015482880152600d89015460ff1615158287015286519081018752600e890180548252600f8a01548287015260108a01548289015260118a018054895181890281018901909a52808a52999a95999498939795969295919491860193929091908301828280156107f557602002820191906000526020600020905b8154815260200190600101908083116107e1575b5050509190925250506040805160608101825260128501546001600160a01b0316815260138501546020820152601485015491810191909152601584015460168501546017909501549394919390925060ff1689565b6108606001600160a01b0383163330846124e1565b50336000908152600e6020526040812054908190036108ac576001600160a01b038316600090815260096020526040812080548492906108a190849061321d565b90915550610a009050565b600080600073__$4defa815a6c8401eda00ac6be9b95d3cdb$__63fc76fff386600487815481106108df576108df613230565b9060005260206000209060180201601201600201546004888154811061090757610907613230565b9060005260206000209060180201601201600101546004898154811061092f5761092f613230565b600091825260209091206018909102016012015460405160e086901b6001600160e01b03191681526004810194909452602484019290925260448301526001600160a01b03166064820152608401606060405180830381865af415801561099a573d6000803e3d6000fd5b505050506040513d601f19601f820116820180604052508101906109be9190613246565b9250925092506109cf81878461255b565b6001600160a01b038616600090815260096020526040812080548592906109f790849061321d565b90915550505050505b505050565b610a0d6125ab565b600060048681548110610a2257610a22613230565b60009182526020909120601890910201601781015490915060ff16158015610a4c57506003810154155b610a9d5760405162461bcd60e51b815260206004820152601860248201527f506f6f6c20616c726561647920696e697469616c697a6564000000000000000060448201526064015b60405180910390fd5b60008461ffff16118015610ab757506127108461ffff1611155b610af65760405162461bcd60e51b815260206004820152601060248201526f415059206f7574206f662072616e676560801b6044820152606401610a94565b8054610b0d90600160a01b900460ff16600a613363565b610b19906103e8613372565b8510158015610b4b57508054610b3a90600160a01b900460ff16600a613363565b610b479062989680613372565b8511155b610b8f5760405162461bcd60e51b8152602060048201526015602482015274506f6f6c20636170206f7574206f662072616e676560581b6044820152606401610a94565b60018101546001600160a01b03163314610bbb5760405162461bcd60e51b8152600401610a9490613389565b6000610bcb868661ffff16611275565b90506000612710610bde6103e884613372565b610be891906133b1565b90506000610bf589610eac565b9050610c193330610c06868a61321d565b87546001600160a01b03169291906124e1565b5085846006016000016000828254610c31919061321d565b909155505060038401889055835461ffff60a81b1916600160a81b61ffff89169081029190911785556040516334d5118560e01b8152600481019190915273__$4defa815a6c8401eda00ac6be9b95d3cdb$__906334d5118590602401602060405180830381865af4158015610cab573d6000803e3d6000fd5b505050506040513d601f19601f82011682018060405250810190610ccf91906133d3565b600585015560178401805460ff1916600117905560088401839055610cf482846133ec565b6009850155845115610d0d57610d0b898688612604565b505b6000610d188a610eac565b60408051848152602081018390529192508b917fa3ea4fb8dee4d414198cb197af6eae4fe483c1a0b849dc50e53b9bf1a60e2166910160405180910390a25050505050610d656001607855565b5050505050565b60008060048481548110610d8257610d82613230565b906000526020600020906018020190508281600601600101548260060160000154610dad919061321d565b1015610dfb5760405162461bcd60e51b815260206004820152601a60248201527f416d6f756e7420626967676572207468616e206465706f7369740000000000006044820152606401610a94565b60018101546001600160a01b03163314610e275760405162461bcd60e51b8152600401610a9490613389565b610e3462093a804261321d565b600a820155610e4662093a804261321d565b610e53906203f48061321d565b600b820155600c8101839055600d8101805460ff1916905560405183815284907fb3b9c925de3673837b40c6b4d4463a8f88dc821cd27e07f1ff6bf6abf96413a59060200160405180910390a260019150505b92915050565b60008060048381548110610ec257610ec2613230565b6000918252602090912060408051610220810190915260189092020180546001600160a01b038082166101208501908152600160a01b830460ff16610140860152600160a81b90920461ffff1661016085015260018301541661018084015260028201805484929184916101a085019190610f3c906131cd565b80601f0160208091040260200160405190810160405280929190818152602001828054610f68906131cd565b8015610fb55780601f10610f8a57610100808354040283529160200191610fb5565b820191906000526020600020905b815481529060010190602001808311610f9857829003601f168201915b505050918352505060038201546020808301919091526004830154604080840191909152600590930154606092830152928452815180830183526006860154815260078601548185015284840152815180830183526008860154815260098601548185015284830152815160808082018452600a8701548252600b87015482860152600c87015482850152600d87015460ff161515828401528583019190915282518082018452600e870180548252600f880154828701526010880154828601526011880180548651818902810189019097528087529390970196919590949386019392908301828280156110c957602002820191906000526020600020905b8154815260200190600101908083116110b5575b505050919092525050508152604080516060808201835260128501546001600160a01b0316825260138501546020838101919091526014860154838501528085019290925260158501549284019290925260168401549183019190915260179092015460ff1615156080909101528181015190810151905191925061114d9161321d565b815160c0015161115d919061321d565b9392505050565b601254610100900460ff16158080156111845750601254600160ff909116105b8061119e5750303b15801561119e575060125460ff166001145b6112015760405162461bcd60e51b815260206004820152602e60248201527f496e697469616c697a61626c653a20636f6e747261637420697320616c72656160448201526d191e481a5b9a5d1a585b1a5e995960921b6064820152608401610a94565b6012805460ff191660011790558015611224576012805461ff0019166101001790555b61122c61273f565b8015611272576012805461ff0019169055604051600181527f7f26b83ff96e1f2b6a682f133852f6798a09c465da95921460cefb38474024989060200160405180910390a15b50565b60006301e1338061271062093a8061128d8587613372565b6112979190613372565b6112a191906133b1565b61115d91906133b1565b600660205281600052604060002081815481106112c757600080fd5b90600052602060002001600091509150505481565b60006112e66125ab565b6000600484815481106112fb576112fb613230565b6000918252602090912060189091020160018101549091506001600160a01b0316331461133a5760405162461bcd60e51b8152600401610a9490613389565b600a810154421180156113505750600b81015442105b80156113615750600d81015460ff16155b80156113715750600c8101548311155b80156113805750600a81015415155b6113de5760405162461bcd60e51b815260206004820152602960248201527f54696d656c6f636b206e6f7420736574206f72206e6f7420636f6d706c6574656044820152686420696e2074696d6560b81b6064820152608401610a94565b600d8101805460ff191660011790556006810154831115611404576114028461276e565b505b600061140f85610eac565b90508382600601600001600082825461142891906133ec565b90915550506001820154825461144b916001600160a01b039182169116866128d0565b50600061145786610eac565b604080518481526020810183905291925087917fa3ea4fb8dee4d414198cb197af6eae4fe483c1a0b849dc50e53b9bf1a60e2166910160405180910390a260019350505050610ea66001607855565b816000600482815481106114bc576114bc613230565b6000918252602090912060408051610220810190915260189092020180546001600160a01b038082166101208501908152600160a01b830460ff16610140860152600160a81b90920461ffff1661016085015260018301541661018084015260028201805484929184916101a085019190611536906131cd565b80601f0160208091040260200160405190810160405280929190818152602001828054611562906131cd565b80156115af5780601f10611584576101008083540402835291602001916115af565b820191906000526020600020905b81548152906001019060200180831161159257829003601f168201915b505050918352505060038201546020808301919091526004830154604080840191909152600590930154606092830152928452815180830183526006860154815260078601548185015284840152815180830183526008860154815260098601548185015284830152815160808082018452600a8701548252600b87015482860152600c87015482850152600d87015460ff161515828401528583019190915282518082018452600e870180548252600f880154828701526010880154828601526011880180548651818902810189019097528087529390970196919590949386019392908301828280156116c357602002820191906000526020600020905b8154815260200190600101908083116116af575b505050919092525050508152604080516060808201835260128501546001600160a01b039081168352601386015460208085019190915260148701548486015285019290925260158501549284019290925260168401548284015260179093015460ff161515608090920191909152825101519192501633148061175157506045546001600160a01b031633145b61176d5760405162461bcd60e51b8152600401610a9490613389565b6001600160a01b0383166117bc5760405162461bcd60e51b8152602060048201526016602482015275496e76616c69642077616c6c6574206164647265737360501b6044820152606401610a94565b82600485815481106117d0576117d0613230565b6000918252602090912060189091020160010180546001600160a01b0319166001600160a01b039290921691909117905550505050565b6010818154811061181757600080fd5b6000918252602090912001546001600160a01b0316905081565b6118396125ab565b60006004848154811061184e5761184e613230565b6000918252602090912060189091020160018101549091506001600160a01b0316331461188d5760405162461bcd60e51b8152600401610a9490613389565b600061189885610eac565b82549091506118b2906001600160a01b03163330876124e1565b50838260060160000160008282546118ca919061321d565b90915550508251156118e3576118e1858486612604565b505b60006118ee86610eac565b604080518481526020810183905291925087917fa3ea4fb8dee4d414198cb197af6eae4fe483c1a0b849dc50e53b9bf1a60e2166910160405180910390a2505050610a006001607855565b6046546001600160a01b031633146119a25760405162461bcd60e51b815260206004820152602660248201527f6f6e6c792070656e64696e67206f776e65722063616e2061636365707420747260448201526530b739b332b960d11b6064820152608401610a94565b6046546119b7906001600160a01b031661290d565b565b6000816000600482815481106119d1576119d1613230565b6000918252602090912060408051610220810190915260189092020180546001600160a01b038082166101208501908152600160a01b830460ff16610140860152600160a81b90920461ffff1661016085015260018301541661018084015260028201805484929184916101a085019190611a4b906131cd565b80601f0160208091040260200160405190810160405280929190818152602001828054611a77906131cd565b8015611ac45780601f10611a9957610100808354040283529160200191611ac4565b820191906000526020600020905b815481529060010190602001808311611aa757829003601f168201915b505050918352505060038201546020808301919091526004830154604080840191909152600590930154606092830152928452815180830183526006860154815260078601548185015284840152815180830183526008860154815260098601548185015284830152815160808082018452600a8701548252600b87015482860152600c87015482850152600d87015460ff161515828401528583019190915282518082018452600e870180548252600f88015482870152601088015482860152601188018054865181890281018901909752808752939097019691959094938601939290830182828015611bd857602002820191906000526020600020905b815481526020019060010190808311611bc4575b505050919092525050508152604080516060808201835260128501546001600160a01b039081168352601386015460208085019190915260148701548486015285019290925260158501549284019290925260168401548284015260179093015460ff1615156080909201919091528251015191925016331480611c6657506045546001600160a01b031633145b611c825760405162461bcd60e51b8152600401610a9490613389565b600060048581548110611c9757611c97613230565b60009182526020909120601890910201601781015490915060ff16611cf05760405162461bcd60e51b815260206004820152600f60248201526e506f6f6c206e6f742061637469766560881b6044820152606401610a94565b60178101805460ff19169055426016909101555060019392505050565b6000611d176125ab565b600060048381548110611d2c57611d2c613230565b6000918252602090912060408051610220810190915260189092020180546001600160a01b038082166101208501908152600160a01b830460ff16610140860152600160a81b90920461ffff1661016085015260018301541661018084015260028201805484929184916101a085019190611da6906131cd565b80601f0160208091040260200160405190810160405280929190818152602001828054611dd2906131cd565b8015611e1f5780601f10611df457610100808354040283529160200191611e1f565b820191906000526020600020905b815481529060010190602001808311611e0257829003601f168201915b505050918352505060038201546020808301919091526004830154604080840191909152600590930154606092830152928452815180830183526006860154815260078601548185015284840152815180830183526008860154815260098601548185015284830152815160808082018452600a8701548252600b87015482860152600c87015482850152600d87015460ff161515828401528583019190915282518082018452600e870180548252600f88015482870152601088015482860152601188018054865181890281018901909752808752939097019691959094938601939290830182828015611f3357602002820191906000526020600020905b815481526020019060010190808311611f1f575b505050919092525050508152604080516060808201835260128501546001600160a01b039081168352601386015460208085019190915260148701548486015285019290925260158501549284019290925260168401548284015260179093015460ff16151560809092019190915282510151919250163314611fc85760405162461bcd60e51b8152600401610a9490613389565b6000838152600d60205260409020548015612084576000848152600c602090815260408083208484528252808320548151633941ea2960e21b815291516001600160a01b0390911693849363e507a8a49360048082019492939183900301908290875af115801561203d573d6000803e3d6000fd5b505050506040513d601f19601f8201168201806040525081019061206191906133d3565b835160608101519051919550612081916001600160a01b031690866128d0565b50505b50506120906001607855565b919050565b806000600482815481106120ab576120ab613230565b6000918252602090912060408051610220810190915260189092020180546001600160a01b038082166101208501908152600160a01b830460ff16610140860152600160a81b90920461ffff1661016085015260018301541661018084015260028201805484929184916101a085019190612125906131cd565b80601f0160208091040260200160405190810160405280929190818152602001828054612151906131cd565b801561219e5780601f106121735761010080835404028352916020019161219e565b820191906000526020600020905b81548152906001019060200180831161218157829003601f168201915b505050918352505060038201546020808301919091526004830154604080840191909152600590930154606092830152928452815180830183526006860154815260078601548185015284840152815180830183526008860154815260098601548185015284830152815160808082018452600a8701548252600b87015482860152600c87015482850152600d87015460ff161515828401528583019190915282518082018452600e870180548252600f880154828701526010880154828601526011880180548651818902810189019097528087529390970196919590949386019392908301828280156122b257602002820191906000526020600020905b81548152602001906001019080831161229e575b505050919092525050508152604080516060808201835260128501546001600160a01b039081168352601386015460208085019190915260148701548486015285019290925260158501549284019290925260168401548284015260179093015460ff161515608090920191909152825101519192501633148061234057506045546001600160a01b031633145b61235c5760405162461bcd60e51b8152600401610a9490613389565b6123646125ab565b6000838152600d6020908152604080832054600c8352818420818552909252909120546001600160a01b03168015612446576000816001600160a01b031663f69e20466040518163ffffffff1660e01b81526004016020604051808303816000875af11580156123d8573d6000803e3d6000fd5b505050506040513d601f19601f820116820180604052508101906123fc91906133d3565b90506124096001826133ec565b6004878154811061241c5761241c613230565b9060005260206000209060180201600601600101600082825461243f919061321d565b9091555050505b5050610a006001607855565b61245a61296a565b6001600160a01b0381166124bf5760405162461bcd60e51b815260206004820152602660248201527f4f776e61626c653a206e6577206f776e657220697320746865207a65726f206160448201526564647265737360d01b6064820152608401610a94565b604680546001600160a01b0319166001600160a01b0392909216919091179055565b6040516001600160a01b038085166024830152831660448201526064810182905260009061254f9086906323b872dd60e01b906084015b60408051601f198184030181529190526020810180516001600160e01b03166001600160e01b0319909316929092179091526129c4565b5060015b949350505050565b6001600160a01b03831615610a00576001600160a01b038084166000908152600a60209081526040808320938616835292905290812080548392906125a190849061321d565b9091555050505050565b6002607854036125fd5760405162461bcd60e51b815260206004820152601f60248201527f5265656e7472616e637947756172643a207265656e7472616e742063616c6c006044820152606401610a94565b6002607855565b6000806004858154811061261a5761261a613230565b9060005260206000209060180201905060008460405160200161263d91906133ff565b60408051601f1981840301815291815281516020928301206000898152600d9093529120549091508082146127355760006126778861276e565b905060006126858989612a96565b90506001600160a01b0381161561273257600685018054600090915581906126ae6001826133ec565b600788015586546126c9906001600160a01b031684836128d0565b50816001600160a01b0316630b5090076040518163ffffffff1660e01b81526004016020604051808303816000875af115801561270a573d6000803e3d6000fd5b505050506040513d601f19601f8201168201806040525081019061272e91906133d3565b5050505b50505b5050509392505050565b601254610100900460ff166127665760405162461bcd60e51b8152600401610a9490613412565b6119b7612c1e565b6000806004838154811061278457612784613230565b60009182526020808320868452600d90915260408320805490849055601890920201925080156128c8576000858152600c602090815260408083208484528252808320548151637f1f087360e01b815291516001600160a01b0390911693928492637f1f08739260048083019392829003018187875af115801561280c573d6000803e3d6000fd5b505050506040513d601f19601f8201168201806040525081019061283091906133d3565b6040516348b1933560e01b8152600481018290529091506001600160a01b038316906348b19335906024016020604051808303816000875af115801561287a573d6000803e3d6000fd5b505050506040513d601f19601f8201168201806040525081019061289e91906133d3565b60006007870181905560068701805492965086929091906128c090849061321d565b909155505050505b509392505050565b6040516001600160a01b03831660248201526044810182905260009061290390859063a9059cbb60e01b90606401612518565b5060019392505050565b604580546001600160a01b038381166001600160a01b03198084168217909455604680549094169093556040519116919082907f8be0079c531659141344cd1fd0a4f28419497f9722a3daafe3b4186f6b6457e090600090a35050565b6045546001600160a01b031633146119b75760405162461bcd60e51b815260206004820181905260248201527f4f776e61626c653a2063616c6c6572206973206e6f7420746865206f776e65726044820152606401610a94565b6000612a19826040518060400160405280602081526020017f5361666545524332303a206c6f772d6c6576656c2063616c6c206661696c6564815250856001600160a01b0316612c4e9092919063ffffffff16565b805190915015610a005780806020019051810190612a37919061345d565b610a005760405162461bcd60e51b815260206004820152602a60248201527f5361666545524332303a204552433230206f7065726174696f6e20646964206e6044820152691bdd081cdd58d8d9595960b21b6064820152608401610a94565b600080600083604051602001612aac91906133ff565b60408051601f1981840301815291815281516020928301206000888152600c84528281208282529093529120549091506001600160a01b031680612b9b57600b54600480546001600160a01b039092169163dff968019188918a908110612b1557612b15613230565b60009182526020909120601890910201546040516001600160e01b031960e085901b168152612b5192916001600160a01b03169060040161347f565b6020604051808303816000875af1158015612b70573d6000803e3d6000fd5b505050506040513d601f19601f82011682018060405250810190612b9491906134a9565b9250612bb6565b6000868152600d60205260409020919091559150610ea69050565b6001600160a01b03831615612c14576000868152600c60209081526040808320858452825280832080546001600160a01b0319166001600160a01b0388169081179091558352600e8252808320899055888352600d90915290208290555b5090949350505050565b601254610100900460ff16612c455760405162461bcd60e51b8152600401610a9490613412565b6119b73361290d565b6060612553848460008585600080866001600160a01b03168587604051612c7591906134c6565b60006040518083038185875af1925050503d8060008114612cb2576040519150601f19603f3d011682016040523d82523d6000602084013e612cb7565b606091505b5091509150612cc887838387612cd3565b979650505050505050565b60608315612d42578251600003612d3b576001600160a01b0385163b612d3b5760405162461bcd60e51b815260206004820152601d60248201527f416464726573733a2063616c6c20746f206e6f6e2d636f6e74726163740000006044820152606401610a94565b5081612553565b6125538383815115612d575781518083602001fd5b8060405162461bcd60e51b8152600401610a9491906133ff565b6001600160a01b038116811461127257600080fd5b60008060408385031215612d9957600080fd5b8235612da481612d71565b91506020830135612db481612d71565b809150509250929050565b60008060408385031215612dd257600080fd5b50508035926020909101359150565b600060208284031215612df357600080fd5b5035919050565b60005b83811015612e15578181015183820152602001612dfd565b50506000910152565b60008151808452612e36816020860160208601612dfa565b601f01601f19169290920160200192915050565b60006080830182518452602080840151818601526040840151604086015260608401516080606087015282815180855260a0880191508383019450600092505b80831015612eaa5784518252938301936001929092019190830190612e8a565b509695505050505050565b6102008082528a516001600160a01b039081169183019190915260208b015160ff1661022083015260408b015161ffff1661024083015260608b01511661026082015260808a0151610100610280830152600090612f17610300840182612e1e565b905060a08c01516102a084015260c08c01516102c084015260e08c01516102e0840152612f51602084018c80518252602090810151910152565b8951606084015260208a01516080840152885160a0840152602089015160c0840152604089015160e084015260608901511515610100840152828103610120840152612f9d8189612e4a565b87516001600160a01b0316610140850152602088015161016085015260408801516101808501529150612fcd9050565b846101a0830152836101c0830152612fea6101e083018415159052565b9a9950505050505050505050565b6000806040838503121561300b57600080fd5b823561301681612d71565b946020939093013593505050565b634e487b7160e01b600052604160045260246000fd5b600082601f83011261304b57600080fd5b813567ffffffffffffffff8082111561306657613066613024565b604051601f8301601f19908116603f0116810190828211818310171561308e5761308e613024565b816040528381528660208588010111156130a757600080fd5b836020870160208301376000602085830101528094505050505092915050565b600080600080600060a086880312156130df57600080fd5b8535945060208601359350604086013561ffff811681146130ff57600080fd5b925060608601359150608086013567ffffffffffffffff81111561312257600080fd5b61312e8882890161303a565b9150509295509295909350565b60006020828403121561314d57600080fd5b813561115d81612d71565b6000806040838503121561316b57600080fd5b823591506020830135612db481612d71565b60008060006060848603121561319257600080fd5b8335925060208401359150604084013567ffffffffffffffff8111156131b757600080fd5b6131c38682870161303a565b9150509250925092565b600181811c908216806131e157607f821691505b60208210810361320157634e487b7160e01b600052602260045260246000fd5b50919050565b634e487b7160e01b600052601160045260246000fd5b80820180821115610ea657610ea6613207565b634e487b7160e01b600052603260045260246000fd5b60008060006060848603121561325b57600080fd5b8351925060208401519150604084015161327481612d71565b809150509250925092565b600181815b808511156132ba5781600019048211156132a0576132a0613207565b808516156132ad57918102915b93841c9390800290613284565b509250929050565b6000826132d157506001610ea6565b816132de57506000610ea6565b81600181146132f457600281146132fe5761331a565b6001915050610ea6565b60ff84111561330f5761330f613207565b50506001821b610ea6565b5060208310610133831016604e8410600b841016171561333d575081810a610ea6565b613347838361327f565b806000190482111561335b5761335b613207565b029392505050565b600061115d60ff8416836132c2565b8082028115828204841417610ea657610ea6613207565b6020808252600e908201526d139bdd08185d5d1a1bdc9a5e995960921b604082015260600190565b6000826133ce57634e487b7160e01b600052601260045260246000fd5b500490565b6000602082840312156133e557600080fd5b5051919050565b81810381811115610ea657610ea6613207565b60208152600061115d6020830184612e1e565b6020808252602b908201527f496e697469616c697a61626c653a20636f6e7472616374206973206e6f74206960408201526a6e697469616c697a696e6760a81b606082015260800190565b60006020828403121561346f57600080fd5b8151801515811461115d57600080fd5b6040815260006134926040830185612e1e565b905060018060a01b03831660208301529392505050565b6000602082840312156134bb57600080fd5b815161115d81612d71565b600082516134d8818460208701612dfa565b919091019291505056fea2646970667358221220fad3c1578f9102889642287a39be17868d0e06bee1e037f0f573f77f67601c1c64736f6c63430008110033",
    "linkReferences": {
      "src/lib/SaloonLib.sol": {
        "SaloonLib": [
          {
            "start": 2259,
            "length": 20
          },
          {
            "start": 3217,
            "length": 20
          }
        ]
      }
    }
  },
  "methodIdentifiers": {
    "YEAR()": "83914540",
    "acceptOwnershipTransfer()": "b842e87f",
    "activeStrategies(uint256)": "b20b2429",
    "activeTokens(uint256)": "9f224f35",
    "calcRequiredPremiumBalancePerPeriod(uint256,uint256)": "836ef1fa",
    "compoundYieldForPid(uint256)": "e78ea3df",
    "initialize()": "8129fc1c",
    "makeProjectDeposit(uint256,uint256,string)": "ae07f948",
    "minTokenStakeAmount(address)": "39458723",
    "nftInfo(uint256)": "1f8bc790",
    "owner()": "8da5cb5b",
    "pidNFTList(uint256,uint256)": "96ea48e8",
    "pidStrategies(uint256,bytes32)": "074ecf03",
    "poolInfo(uint256)": "1526fe27",
    "projectDepositWithdrawal(uint256,uint256)": "983c1ce0",
    "receiveStrategyYield(address,uint256)": "1aebcecb",
    "referralBalances(address,address)": "011b408b",
    "saloonBounty()": "79923898",
    "saloonBountyProfit(address)": "e45abd0f",
    "saloonManager()": "220e1124",
    "saloonPremiumProfit(address)": "ca006148",
    "saloonProjectPortal()": "277fd2a1",
    "saloonStrategyProfit(address)": "598d17bf",
    "saloonView()": "0a07f543",
    "scheduleProjectDepositWithdrawal(uint256,uint256)": "5669cbef",
    "setAPYandPoolCapAndDeposit(uint256,uint256,uint16,uint256,string)": "30ca0794",
    "strategyAddressToPid(address)": "957deecc",
    "strategyFactory()": "9ef35710",
    "tokenWhitelist(address)": "753d7563",
    "transferOwnership(address)": "f2fde38b",
    "updateProjectWalletAddress(uint256,address)": "995974c4",
    "viewBountyBalance(uint256)": "6ac6d812",
    "windDownBounty(uint256)": "bb7019c1",
    "withdrawProjectYield(uint256)": "db53e8b5"
  },
  "id": 44
}