{
  "abi": [
    {
      "inputs": [
        {
          "internalType": "UD60x18",
          "name": "x",
          "type": "uint256"
        }
      ],
      "name": "PRBMathUD60x18__LogInputTooSmall",
      "type": "error"
    },
    {
      "inputs": [
        {
          "internalType": "uint256",
          "name": "x",
          "type": "uint256"
        }
      ],
      "name": "PRBMathUD60x18__ToUD60x18Overflow",
      "type": "error"
    },
    {
      "inputs": [
        {
          "internalType": "uint256",
          "name": "x",
          "type": "uint256"
        },
        {
          "internalType": "uint256",
          "name": "y",
          "type": "uint256"
        }
      ],
      "name": "PRBMath__MulDiv18Overflow",
      "type": "error"
    },
    {
      "inputs": [
        {
          "internalType": "uint256",
          "name": "x",
          "type": "uint256"
        },
        {
          "internalType": "uint256",
          "name": "y",
          "type": "uint256"
        },
        {
          "internalType": "uint256",
          "name": "denominator",
          "type": "uint256"
        }
      ],
      "name": "PRBMath__MulDivOverflow",
      "type": "error"
    },
    {
      "inputs": [
        {
          "internalType": "uint256",
          "name": "_stake",
          "type": "uint256"
        },
        {
          "internalType": "uint256",
          "name": "_poolCap",
          "type": "uint256"
        }
      ],
      "name": "_convertStakeToPoolMeasurements",
      "outputs": [
        {
          "internalType": "uint256",
          "name": "x",
          "type": "uint256"
        },
        {
          "internalType": "uint256",
          "name": "poolPercentage",
          "type": "uint256"
        }
      ],
      "stateMutability": "view",
      "type": "function"
    },
    {
      "inputs": [
        {
          "internalType": "uint256",
          "name": "_x",
          "type": "uint256"
        }
      ],
      "name": "_curveImplementation",
      "outputs": [
        {
          "internalType": "uint256",
          "name": "y",
          "type": "uint256"
        }
      ],
      "stateMutability": "pure",
      "type": "function"
    },
    {
      "inputs": [
        {
          "internalType": "uint256",
          "name": "_targetAPY",
          "type": "uint256"
        }
      ],
      "name": "_updateScalingMultiplier",
      "outputs": [
        {
          "internalType": "uint256",
          "name": "scalingMultiplier",
          "type": "uint256"
        }
      ],
      "stateMutability": "view",
      "type": "function"
    },
    {
      "inputs": [
        {
          "internalType": "uint256",
          "name": "_totalAmount",
          "type": "uint256"
        },
        {
          "internalType": "uint256",
          "name": "_endTime",
          "type": "uint256"
        },
        {
          "internalType": "uint256",
          "name": "_referralFee",
          "type": "uint256"
        },
        {
          "internalType": "address",
          "name": "_referrer",
          "type": "address"
        }
      ],
      "name": "calcReferralSplit",
      "outputs": [
        {
          "internalType": "uint256",
          "name": "",
          "type": "uint256"
        },
        {
          "internalType": "uint256",
          "name": "",
          "type": "uint256"
        },
        {
          "internalType": "address",
          "name": "",
          "type": "address"
        }
      ],
      "stateMutability": "view",
      "type": "function"
    },
    {
      "inputs": [
        {
          "internalType": "uint256",
          "name": "_poolCap",
          "type": "uint256"
        },
        {
          "internalType": "uint256",
          "name": "_apy",
          "type": "uint256"
        }
      ],
      "name": "calcRequiredPremiumBalancePerPeriod",
      "outputs": [
        {
          "internalType": "uint256",
          "name": "requiredPremiumBalance",
          "type": "uint256"
        }
      ],
      "stateMutability": "view",
      "type": "function"
    },
    {
      "inputs": [
        {
          "internalType": "uint256",
          "name": "_stake",
          "type": "uint256"
        },
        {
          "internalType": "uint256",
          "name": "_memX",
          "type": "uint256"
        },
        {
          "internalType": "uint256",
          "name": "_poolCap",
          "type": "uint256"
        },
        {
          "internalType": "uint256",
          "name": "_multiplier",
          "type": "uint256"
        }
      ],
      "name": "calculateArbitraryEffectiveAPY",
      "outputs": [
        {
          "internalType": "uint256",
          "name": "scaledAPY",
          "type": "uint256"
        }
      ],
      "stateMutability": "view",
      "type": "function"
    },
    {
      "inputs": [
        {
          "internalType": "uint256",
          "name": "_x",
          "type": "uint256"
        },
        {
          "internalType": "uint256",
          "name": "_multiplier",
          "type": "uint256"
        }
      ],
      "name": "getCurrentAPY",
      "outputs": [
        {
          "internalType": "uint256",
          "name": "currentAPY",
          "type": "uint256"
        }
      ],
      "stateMutability": "view",
      "type": "function"
    },
    {
      "inputs": [
        {
          "internalType": "uint256",
          "name": "_freezeTime",
          "type": "uint256"
        },
        {
          "internalType": "uint256",
          "name": "_lastClaimedTime",
          "type": "uint256"
        },
        {
          "internalType": "uint256",
          "name": "_amount",
          "type": "uint256"
        },
        {
          "internalType": "uint256",
          "name": "_apy",
          "type": "uint256"
        },
        {
          "internalType": "uint256",
          "name": "_unclaimed",
          "type": "uint256"
        }
      ],
      "name": "pendingPremium",
      "outputs": [
        {
          "internalType": "uint256",
          "name": "totalPending",
          "type": "uint256"
        },
        {
          "internalType": "uint256",
          "name": "actualPending",
          "type": "uint256"
        },
        {
          "internalType": "uint256",
          "name": "newPending",
          "type": "uint256"
        }
      ],
      "stateMutability": "view",
      "type": "function"
    }
  ],
  "bytecode": {
    "object": "0x610afd61003a600b82828239805160001a60731461002d57634e487b7160e01b600052600060045260246000fd5b30600052607381538281f3fe73000000000000000000000000000000000000000030146080604052600436106100925760003560e01c8063836ef1fa11610065578063836ef1fa1461010b578063a0e63f301461011e578063ad6fa23314610131578063fc76fff31461015f57600080fd5b80630989523814610097578063345d1244146100c457806334d51185146100e55780634a0044b6146100f8575b600080fd5b6100aa6100a5366004610927565b610196565b604080519283526020830191909152015b60405180910390f35b6100d76100d2366004610949565b6101fa565b6040519081526020016100bb565b6100d76100f336600461097b565b610315565b6100d7610106366004610927565b610368565b6100d7610119366004610927565b61037e565b6100d761012c36600461097b565b610429565b61014461013f366004610994565b61047e565b604080519384526020840192909252908201526060016100bb565b61017261016d3660046109cf565b61052e565b6040805193845260208401929092526001600160a01b0316908201526060016100bb565b7fb3489dd2b6aceffcd73eb3bc338c0fb7cf41e877855ec204580612eca103a15f546000908190600080516020610aa88339815191529084906101d99087610a32565b6101e39190610a5f565b91506101f0826005610a32565b9250509250929050565b6000600080516020610aa883398151915284826102178887610196565b50905060006102268383610a81565b90506000610235826021610a32565b61024790674563918244f40000610a81565b90506000610256856021610a32565b61026890674563918244f40000610a81565b9050600061027d610278846105af565b6105ff565b9050600061028d610278846105af565b905060006102cb61029e60216105af565b6102c56102ab8686610637565b6102bf6a295be96e640669720000006105af565b90610646565b90610655565b905060006102dc88620f4240610a32565b6102e69083610a5f565b60028b01549091506102f88d83610a32565b6103029190610a5f565b9f9e505050505050505050505050505050565b600080516020610aa883398151915280547fb3489dd2b6aceffcd73eb3bc338c0fb7cf41e877855ec204580612eca103a15f5460009291906103579085610a32565b6103619190610a5f565b9392505050565b60008161037484610429565b6103619190610a32565b7fb3489dd2b6aceffcd73eb3bc338c0fb7cf41e877855ec204580612eca103a160547fb3489dd2b6aceffcd73eb3bc338c0fb7cf41e877855ec204580612eca103a15e547fb3489dd2b6aceffcd73eb3bc338c0fb7cf41e877855ec204580612eca103a16154600092600080516020610aa88339815191529290916104038688610a32565b61040d9190610a32565b6104179190610a5f565b6104219190610a5f565b949350505050565b600080670de0b6b3a764000061044784670928ca80cfc20000610a32565b6104519190610a5f565b6104639067016345785d8a0000610a81565b9050610361816ec097ce7bc90715b34b9f1000000000610a5f565b60008080600080516020610aa88339815191528189810361049f57426104a1565b895b905060006104af8a83610a94565b905082600301548360010154828a8c6104c89190610a32565b6104d29190610a32565b6104dc9190610a5f565b6104e69190610a5f565b93506104f28785610a81565b600184015460058501549197509061050a9082610a94565b6105149088610a32565b61051e9190610a5f565b9450505050955095509592505050565b60008080600080516020610aa88339815191526001600160a01b038516158061055657504287105b1561056b5787600086935093509350506105a5565b600181015460009061057d888b610a32565b6105879190610a5f565b90506000610595828b610a94565b95509093508592506105a5915050565b9450945094915050565b60006105c5670de0b6b3a7640000600019610a5f565b8211156105ed576040516322630c4560e01b8152600481018390526024015b60405180910390fd5b670de0b6b3a764000082025b92915050565b60006105f96714057b7ef767814f670de0b6b3a76400006106256106228661066d565b90565b028161063357610633610a49565b0490565b60006103616106228385610a94565b600061036161062284846107a0565b600061036161062284670de0b6b3a764000085610854565b600081670de0b6b3a764000081101561069c57604051633621413760e21b8152600481018490526024016105e4565b6000610728670de0b6b3a7640000830460016fffffffffffffffffffffffffffffffff821160071b91821c67ffffffffffffffff811160061b90811c63ffffffff811160051b90811c61ffff811160041b90811c60ff8111600390811b91821c600f811160021b90811c918211871b91821c969096119490961792909217171791909117919091171790565b9050670de0b6b3a7640000810282821c670de0b6b3a763ffff1981016107515750949350505050565b671bc16d674ec800006706f05b59d3b200005b801561079457670de0b6b3a764000083800204925081831061078c579283019260019290921c915b60011c610764565b50919695505050505050565b60008080600019848609848602925082811083820303915050670de0b6b3a764000081106107eb5760405163090638d560e41b815260048101869052602481018590526044016105e4565b6000670de0b6b3a7640000858709905081600003610817575050670de0b6b3a7640000900490506105f9565b620400008184030492109003600160ee1b02177faccb18165bd6fe31ae1cf318dc5b51eee0e1ba569b88cd74c1773b91fac1066902905092915050565b600080806000198587098587029250828110838203039150508060000361088e5783828161088457610884610a49565b0492505050610361565b8381106108bf576040516307639aaf60e41b81526004810187905260248101869052604481018590526064016105e4565b600084868809600260036001881981018916988990049182028318808302840302808302840302808302840302808302840302808302840302918202909203026000889003889004909101858311909403939093029303949094049190911702949350505050565b6000806040838503121561093a57600080fd5b50508035926020909101359150565b6000806000806080858703121561095f57600080fd5b5050823594602084013594506040840135936060013592509050565b60006020828403121561098d57600080fd5b5035919050565b600080600080600060a086880312156109ac57600080fd5b505083359560208501359550604085013594606081013594506080013592509050565b600080600080608085870312156109e557600080fd5b84359350602085013592506040850135915060608501356001600160a01b0381168114610a1157600080fd5b939692955090935050565b634e487b7160e01b600052601160045260246000fd5b80820281158282048414176105f9576105f9610a1c565b634e487b7160e01b600052601260045260246000fd5b600082610a7c57634e487b7160e01b600052601260045260246000fd5b500490565b808201808211156105f9576105f9610a1c565b818103818111156105f9576105f9610a1c56feb3489dd2b6aceffcd73eb3bc338c0fb7cf41e877855ec204580612eca103a15da26469706673582212207212c155de93e79202862309fd0b1077358398785154365c4143c357b119524d64736f6c63430008130033",
    "linkReferences": {}
  },
  "methodIdentifiers": {
    "_convertStakeToPoolMeasurements(uint256,uint256)": "09895238",
    "_curveImplementation(uint256)": "a0e63f30",
    "_updateScalingMultiplier(uint256)": "34d51185",
    "calcReferralSplit(uint256,uint256,uint256,address)": "fc76fff3",
    "calcRequiredPremiumBalancePerPeriod(uint256,uint256)": "836ef1fa",
    "calculateArbitraryEffectiveAPY(uint256,uint256,uint256,uint256)": "345d1244",
    "getCurrentAPY(uint256,uint256)": "4a0044b6",
    "pendingPremium(uint256,uint256,uint256,uint256,uint256)": "ad6fa233"
  },
  "id": 57
}